{
  "transactions": [
    {
      "hash": "0xa1028f2c0937f32cf88ae3a9c857a6e78f0fff03a2840090378afc5dd495bd10",
      "transactionType": "CALL",
      "contractName": null,
      "contractAddress": "0x741f0d8bde14140f62107fc60a0ee122b37d4630",
      "function": "batchBridgeWithEthFeeFromWallet((uint32,bytes32,uint256,uint256,bytes,bytes,bytes)[],address[],address[])",
      "arguments": [
        "[(30168, 0x3c1b094729102e0c095ee2417e5940ee4f1eab4763f6113fe75281ab74c62398, 1000000000000000000, 0, 0x, 0x, 0x), (30108, 0x09d0eb2763c96e085fa74ba6cf0d49136f8654c48ec7dbc59279a9066c7dd409, 1000000000000000000, 0, 0x, 0x, 0x)]",
        "[0x57558Cb8d6005DE0BAe8a2789d5EfaaE52dba5a8, 0x57558Cb8d6005DE0BAe8a2789d5EfaaE52dba5a8]",
        "[0x741F0d8Bde14140f62107FC60A0EE122B37D4630, 0x741F0d8Bde14140f62107FC60A0EE122B37D4630]"
      ],
      "transaction": {
        "from": "0x45dce8e4f2dc005a5f28206a46cb034697eeda8e",
        "to": "0x741f0d8bde14140f62107fc60a0ee122b37d4630",
        "gas": "0xf1137",
        "value": "0x1482cd982d446",
        "input": "0xb70d42410000000000000000000000000000000000000000000000000000000000000060000000000000000000000000000000000000000000000000000000000000034000000000000000000000000000000000000000000000000000000000000003a000000000000000000000000000000000000000000000000000000000000000020000000000000000000000000000000000000000000000000000000000000040000000000000000000000000000000000000000000000000000000000000018000000000000000000000000000000000000000000000000000000000000075d83c1b094729102e0c095ee2417e5940ee4f1eab4763f6113fe75281ab74c623980000000000000000000000000000000000000000000000000de0b6b3a7640000000000000000000000000000000000000000000000000000000000000000000000000000000000000000000000000000000000000000000000000000000000e000000000000000000000000000000000000000000000000000000000000001000000000000000000000000000000000000000000000000000000000000000120000000000000000000000000000000000000000000000000000000000000000000000000000000000000000000000000000000000000000000000000000000000000000000000000000000000000000000000000000000000000000000000000000000000000000000000000000000000000000000000000000000000000759c09d0eb2763c96e085fa74ba6cf0d49136f8654c48ec7dbc59279a9066c7dd4090000000000000000000000000000000000000000000000000de0b6b3a7640000000000000000000000000000000000000000000000000000000000000000000000000000000000000000000000000000000000000000000000000000000000e000000000000000000000000000000000000000000000000000000000000001000000000000000000000000000000000000000000000000000000000000000120000000000000000000000000000000000000000000000000000000000000000000000000000000000000000000000000000000000000000000000000000000000000000000000000000000000000000000000000000000000000000000000000000000000000000000000000000000000000000000000000000000000000000200000000000000000000000057558cb8d6005de0bae8a2789d5efaae52dba5a800000000000000000000000057558cb8d6005de0bae8a2789d5efaae52dba5a80000000000000000000000000000000000000000000000000000000000000002000000000000000000000000741f0d8bde14140f62107fc60a0ee122b37d4630000000000000000000000000741f0d8bde14140f62107fc60a0ee122b37d4630",
        "nonce": "0xba",
        "chainId": "0x82"
      },
      "additionalContracts": [],
      "isFixedGasLimit": false
    }
  ],
  "receipts": [
    {
      "status": "0x1",
      "cumulativeGasUsed": "0x3bb864",
      "logs": [
        {
          "address": "0x57558cb8d6005de0bae8a2789d5efaae52dba5a8",
          "topics": [
            "0xddf252ad1be2c89b69c2b068fc378daa952ba7f163c4a11628f55a4df523b3ef",
            "0x000000000000000000000000741f0d8bde14140f62107fc60a0ee122b37d4630",
            "0x0000000000000000000000000000000000000000000000000000000000000000"
          ],
          "data": "0x0000000000000000000000000000000000000000000000000de0b6b3a7640000",
          "blockHash": "0xcb4a493fc9bbebabccb372a76c4fce6e78189d6e892678fc35e5ddb9979999dd",
          "blockNumber": "0x1461f48",
          "transactionHash": "0xa1028f2c0937f32cf88ae3a9c857a6e78f0fff03a2840090378afc5dd495bd10",
          "transactionIndex": "0x11",
          "logIndex": "0x0",
          "removed": false
        },
        {
          "address": "0xc39161c743d0307eb9bcc9fef03eeb9dc4802de7",
          "topics": [
            "0x61ed099e74a97a1d7f8bb0952a88ca8b7b8ebd00c126ea04671f92a81213318a"
          ],
          "data": "0x0000000000000000000000004208d6e27538189bb48e603d6123a94b8abe0a0b0000000000000000000000000000000000000000000000000000adc2a97806e5",
          "blockHash": "0xcb4a493fc9bbebabccb372a76c4fce6e78189d6e892678fc35e5ddb9979999dd",
          "blockNumber": "0x1461f48",
          "transactionHash": "0xa1028f2c0937f32cf88ae3a9c857a6e78f0fff03a2840090378afc5dd495bd10",
          "transactionIndex": "0x11",
          "logIndex": "0x1",
          "removed": false
        },
        {
          "address": "0xc39161c743d0307eb9bcc9fef03eeb9dc4802de7",
          "topics": [
            "0x07ea52d82345d6e838192107d8fd7123d9c2ec8e916cd0aad13fd2b60db24644"
          ],
          "data": "0x000000000000000000000000000000000000000000000000000000000000006000000000000000000000000000000000000000000000000000000000000000e000000000000000000000000000000000000000000000000000000000000001000000000000000000000000000000000000000000000000000000000000000003000000000000000000000000282b3386571f7f794450d5789911a9804fa346b400000000000000000000000097faa2a9c9bf8b4082b175a5b894ce6bac6697a8000000000000000000000000c6a6324932b399d6a673b7ed0af671f28033e046000000000000000000000000000000000000000000000000000000000000000000000000000000000000000000000000000000000000000000000000000000030000000000000000000000000000000000000000000000000000058ad7df93610000000000000000000000000000000000000000000000000000058ad7df93610000000000000000000000000000000000000000000000000000058ad7df9361",
          "blockHash": "0xcb4a493fc9bbebabccb372a76c4fce6e78189d6e892678fc35e5ddb9979999dd",
          "blockNumber": "0x1461f48",
          "transactionHash": "0xa1028f2c0937f32cf88ae3a9c857a6e78f0fff03a2840090378afc5dd495bd10",
          "transactionIndex": "0x11",
          "logIndex": "0x2",
          "removed": false
        },
        {
          "address": "0x6f475642a6e85809b1c36fa62763669b1b48dd5b",
          "topics": [
            "0x1ab700d4ced0c005b164c0f789fd09fcbb0156d4c2041b8a3bfbcd961cd1567f"
          ],
          "data": "0x00000000000000000000000000000000000000000000000000000000000000600000000000000000000000000000000000000000000000000000000000000120000000000000000000000000c39161c743d0307eb9bcc9fef03eeb9dc4802de700000000000000000000000000000000000000000000000000000000000000990100000000000000010000767000000000000000000000000057558cb8d6005de0bae8a2789d5efaae52dba5a8000075d8006d6ff762f7fcb768c550bae67f7a6a3a94969e469b6e0689563ace4e3759ad17ce949a80a8902e751cfd36864295314feca1fc6a91e85c3db3fd8f85b94e713c1b094729102e0c095ee2417e5940ee4f1eab4763f6113fe75281ab74c6239800000000000f424000000000000000000000000000000000000000000000000000000000000000000000000000002600030100210100000000000000000000000000030d40000000000000000000000000002625a00000000000000000000000000000000000000000000000000000",
          "blockHash": "0xcb4a493fc9bbebabccb372a76c4fce6e78189d6e892678fc35e5ddb9979999dd",
          "blockNumber": "0x1461f48",
          "transactionHash": "0xa1028f2c0937f32cf88ae3a9c857a6e78f0fff03a2840090378afc5dd495bd10",
          "transactionIndex": "0x11",
          "logIndex": "0x3",
          "removed": false
        },
        {
          "address": "0x57558cb8d6005de0bae8a2789d5efaae52dba5a8",
          "topics": [
            "0x85496b760a4b7f8d66384b9df21b381f5d1b1e79f229a47aaf4c232edc2fe59a",
            "0x17ce949a80a8902e751cfd36864295314feca1fc6a91e85c3db3fd8f85b94e71",
            "0x000000000000000000000000741f0d8bde14140f62107fc60a0ee122b37d4630"
          ],
          "data": "0x00000000000000000000000000000000000000000000000000000000000075d80000000000000000000000000000000000000000000000000de0b6b3a76400000000000000000000000000000000000000000000000000000de0b6b3a7640000",
          "blockHash": "0xcb4a493fc9bbebabccb372a76c4fce6e78189d6e892678fc35e5ddb9979999dd",
          "blockNumber": "0x1461f48",
          "transactionHash": "0xa1028f2c0937f32cf88ae3a9c857a6e78f0fff03a2840090378afc5dd495bd10",
          "transactionIndex": "0x11",
          "logIndex": "0x4",
          "removed": false
        },
        {
          "address": "0x57558cb8d6005de0bae8a2789d5efaae52dba5a8",
          "topics": [
            "0xddf252ad1be2c89b69c2b068fc378daa952ba7f163c4a11628f55a4df523b3ef",
            "0x000000000000000000000000741f0d8bde14140f62107fc60a0ee122b37d4630",
            "0x0000000000000000000000000000000000000000000000000000000000000000"
          ],
          "data": "0x0000000000000000000000000000000000000000000000000de0b6b3a7640000",
          "blockHash": "0xcb4a493fc9bbebabccb372a76c4fce6e78189d6e892678fc35e5ddb9979999dd",
          "blockNumber": "0x1461f48",
          "transactionHash": "0xa1028f2c0937f32cf88ae3a9c857a6e78f0fff03a2840090378afc5dd495bd10",
          "transactionIndex": "0x11",
          "logIndex": "0x5",
          "removed": false
        },
        {
          "address": "0xc39161c743d0307eb9bcc9fef03eeb9dc4802de7",
          "topics": [
            "0x61ed099e74a97a1d7f8bb0952a88ca8b7b8ebd00c126ea04671f92a81213318a"
          ],
          "data": "0x0000000000000000000000004208d6e27538189bb48e603d6123a94b8abe0a0b00000000000000000000000000000000000000000000000000000d0e272f26fa",
          "blockHash": "0xcb4a493fc9bbebabccb372a76c4fce6e78189d6e892678fc35e5ddb9979999dd",
          "blockNumber": "0x1461f48",
          "transactionHash": "0xa1028f2c0937f32cf88ae3a9c857a6e78f0fff03a2840090378afc5dd495bd10",
          "transactionIndex": "0x11",
          "logIndex": "0x6",
          "removed": false
        },
        {
          "address": "0xc39161c743d0307eb9bcc9fef03eeb9dc4802de7",
          "topics": [
            "0x07ea52d82345d6e838192107d8fd7123d9c2ec8e916cd0aad13fd2b60db24644"
          ],
          "data": "0x000000000000000000000000000000000000000000000000000000000000006000000000000000000000000000000000000000000000000000000000000000e000000000000000000000000000000000000000000000000000000000000001000000000000000000000000000000000000000000000000000000000000000003000000000000000000000000282b3386571f7f794450d5789911a9804fa346b400000000000000000000000097faa2a9c9bf8b4082b175a5b894ce6bac6697a8000000000000000000000000c6a6324932b399d6a673b7ed0af671f28033e0460000000000000000000000000000000000000000000000000000000000000000000000000000000000000000000000000000000000000000000000000000000300000000000000000000000000000000000000000000000000002993d5bef96c00000000000000000000000000000000000000000000000000002993d5bef96c00000000000000000000000000000000000000000000000000002993d5bef96c",
          "blockHash": "0xcb4a493fc9bbebabccb372a76c4fce6e78189d6e892678fc35e5ddb9979999dd",
          "blockNumber": "0x1461f48",
          "transactionHash": "0xa1028f2c0937f32cf88ae3a9c857a6e78f0fff03a2840090378afc5dd495bd10",
          "transactionIndex": "0x11",
          "logIndex": "0x7",
          "removed": false
        },
        {
          "address": "0x6f475642a6e85809b1c36fa62763669b1b48dd5b",
          "topics": [
            "0x1ab700d4ced0c005b164c0f789fd09fcbb0156d4c2041b8a3bfbcd961cd1567f"
          ],
          "data": "0x00000000000000000000000000000000000000000000000000000000000000600000000000000000000000000000000000000000000000000000000000000120000000000000000000000000c39161c743d0307eb9bcc9fef03eeb9dc4802de700000000000000000000000000000000000000000000000000000000000000990100000000000000010000767000000000000000000000000057558cb8d6005de0bae8a2789d5efaae52dba5a80000759ca1bb74f0d5770dfc905c508e6273fadc595ddc15326cc907889bdfffa50602c8944dc43a009d8ec6da3f86a530fb147d12cc538a9cd64923d54fed9288d812e309d0eb2763c96e085fa74ba6cf0d49136f8654c48ec7dbc59279a9066c7dd40900000000000f42400000000000000000000000000000000000000000000000000000000000000000000000000000160003010011010000000000000000000000000000138800000000000000000000",
          "blockHash": "0xcb4a493fc9bbebabccb372a76c4fce6e78189d6e892678fc35e5ddb9979999dd",
          "blockNumber": "0x1461f48",
          "transactionHash": "0xa1028f2c0937f32cf88ae3a9c857a6e78f0fff03a2840090378afc5dd495bd10",
          "transactionIndex": "0x11",
          "logIndex": "0x8",
          "removed": false
        },
        {
          "address": "0x57558cb8d6005de0bae8a2789d5efaae52dba5a8",
          "topics": [
            "0x85496b760a4b7f8d66384b9df21b381f5d1b1e79f229a47aaf4c232edc2fe59a",
            "0x944dc43a009d8ec6da3f86a530fb147d12cc538a9cd64923d54fed9288d812e3",
            "0x000000000000000000000000741f0d8bde14140f62107fc60a0ee122b37d4630"
          ],
          "data": "0x000000000000000000000000000000000000000000000000000000000000759c0000000000000000000000000000000000000000000000000de0b6b3a76400000000000000000000000000000000000000000000000000000de0b6b3a7640000",
          "blockHash": "0xcb4a493fc9bbebabccb372a76c4fce6e78189d6e892678fc35e5ddb9979999dd",
          "blockNumber": "0x1461f48",
          "transactionHash": "0xa1028f2c0937f32cf88ae3a9c857a6e78f0fff03a2840090378afc5dd495bd10",
          "transactionIndex": "0x11",
          "logIndex": "0x9",
          "removed": false
        }
      ],
      "logsBloom": "0x0010000000000000000000000004004000000000000000000000080000000000000000000000000000000000000000040000010000000000000040000000000000000200000000000000000800000000014000000000000000000000000000000000000002000000802000000000080000000000000000000000001000000000000000000080004000000008000000000000000000000000000000000000000000000000a000001000100000010080000000000000400000000440000000000000000002000010000000000080000000000000000000000000000000000020004000040000000000000000000000002000000000008000000000000000000000",
      "type": "0x2",
      "transactionHash": "0xa1028f2c0937f32cf88ae3a9c857a6e78f0fff03a2840090378afc5dd495bd10",
      "transactionIndex": "0x11",
      "blockHash": "0xcb4a493fc9bbebabccb372a76c4fce6e78189d6e892678fc35e5ddb9979999dd",
      "blockNumber": "0x1461f48",
      "gasUsed": "0xa4d6a",
      "effectiveGasPrice": "0x1b9",
      "from": "0x45dce8e4f2dc005a5f28206a46cb034697eeda8e",
      "to": "0x741f0d8bde14140f62107fc60a0ee122b37d4630",
      "contractAddress": null,
      "l1BaseFeeScalar": "0x7d0",
      "l1BlobBaseFee": "0x1",
      "l1BlobBaseFeeScalar": "0xdbba0",
      "l1Fee": "0x198914b90",
      "l1GasPrice": "0x377c0aba",
      "l1GasUsed": "0xe61"
    }
  ],
  "libraries": [],
  "pending": [],
  "returns": {},
  "timestamp": 1752121103,
  "chain": 130,
  "commit": "4a90ad4"
}