{
  "transactions": [
    {
      "hash": "0x91f90c16223028c2e74c41fc01e09e49dcd168301545e1c24a564f3ff3c3150d",
      "transactionType": "CALL",
      "contractName": null,
      "contractAddress": "0xfeec000000000000000000000000000000000000",
      "function": "setUserToken(address)",
      "arguments": [
        "0x20c000000000000000000000cf5b0F48F7fEDC7F"
      ],
      "transaction": {
        "from": "0x1d434906aa520e592fab2b82406beff859be8e82",
        "to": "0xfeec000000000000000000000000000000000000",
        "gas": "0xa1fe",
        "value": "0x0",
        "input": "0xe789744400000000000000000000000020c000000000000000000000cf5b0f48f7fedc7f",
        "nonce": "0x12",
        "chainId": "0xa5bf",
        "feeToken": null,
        "calls": [],
        "keyType": null,
        "keyData": null
      },
      "additionalContracts": [],
      "isFixedGasLimit": false
    },
    {
      "hash": "0xf834d95ee68c40c4d131b069315c269888c3fbbc08f436e722b96849a466bacf",
      "transactionType": "CALL",
      "contractName": null,
      "contractAddress": "0x20c000000000000000000000cf5b0f48f7fedc7f",
      "function": "approve(address,uint256)",
      "arguments": [
        "0x16FBfCF4970D4550791faF75AE9BaecE75C85A27",
        "1266230"
      ],
      "transaction": {
        "from": "0x1d434906aa520e592fab2b82406beff859be8e82",
        "to": "0x20c000000000000000000000cf5b0f48f7fedc7f",
        "gas": "0xf669",
        "value": "0x0",
        "input": "0x095ea7b300000000000000000000000016fbfcf4970d4550791faf75ae9baece75c85a270000000000000000000000000000000000000000000000000000000000135236",
        "nonce": "0x13",
        "chainId": "0xa5bf",
        "feeToken": null,
        "calls": [],
        "keyType": null,
        "keyData": null
      },
      "additionalContracts": [],
      "isFixedGasLimit": false
    },
    {
      "hash": "0x977719f929aebbdaab0daa53268a0dac83e2a686614a4cc7c2e6ee10373938c1",
      "transactionType": "CALL",
      "contractName": null,
      "contractAddress": "0x16fbfcf4970d4550791faf75ae9baece75c85a27",
      "function": "send((uint32,bytes32,uint256,uint256,bytes,bytes,bytes),(uint256,uint256),address)",
      "arguments": [
        "(40161, 0x0000000000000000000000000990be6db8c785fbbf9ded8baec612a10cae814b, 10000, 10000, 0x, 0x, 0x)",
        "(1256230, 0)",
        "0x1d434906Aa520E592fAB2b82406BEfF859be8e82"
      ],
      "transaction": {
        "from": "0x1d434906aa520e592fab2b82406beff859be8e82",
        "to": "0x16fbfcf4970d4550791faf75ae9baece75c85a27",
        "gas": "0xc2b85",
        "value": "0x0",
        "input": "0xc7c7f5b300000000000000000000000000000000000000000000000000000000000000800000000000000000000000000000000000000000000000000000000000132b2600000000000000000000000000000000000000000000000000000000000000000000000000000000000000001d434906aa520e592fab2b82406beff859be8e820000000000000000000000000000000000000000000000000000000000009ce10000000000000000000000000990be6db8c785fbbf9ded8baec612a10cae814b0000000000000000000000000000000000000000000000000000000000002710000000000000000000000000000000000000000000000000000000000000271000000000000000000000000000000000000000000000000000000000000000e000000000000000000000000000000000000000000000000000000000000001000000000000000000000000000000000000000000000000000000000000000120000000000000000000000000000000000000000000000000000000000000000000000000000000000000000000000000000000000000000000000000000000000000000000000000000000000000000000000000000000000000000000000000",
        "nonce": "0x14",
        "chainId": "0xa5bf",
        "feeToken": null,
        "calls": [],
        "keyType": null,
        "keyData": null
      },
      "additionalContracts": [],
      "isFixedGasLimit": false
    }
  ],
  "receipts": [
    {
      "type": "0x2",
      "status": "0x1",
      "cumulativeGasUsed": "0x200769",
      "logs": [
        {
          "address": "0xfeec000000000000000000000000000000000000",
          "topics": [
            "0xabc7758d4ca817ce0d125eb731121a1304c36077b791253be835b95472368856",
            "0x0000000000000000000000001d434906aa520e592fab2b82406beff859be8e82",
            "0x00000000000000000000000020c000000000000000000000cf5b0f48f7fedc7f"
          ],
          "data": "0x",
          "blockHash": "0x64e36721838c16f2e49209e53ca84da06a96b2e6efd773379b6efeab1eabb280",
          "blockNumber": "0x35ede6",
          "blockTimestamp": "0x69827091",
          "transactionHash": "0x91f90c16223028c2e74c41fc01e09e49dcd168301545e1c24a564f3ff3c3150d",
          "transactionIndex": "0x1c",
          "logIndex": "0x38",
          "removed": false
        },
        {
          "address": "0x20c000000000000000000000cf5b0f48f7fedc7f",
          "topics": [
            "0xddf252ad1be2c89b69c2b068fc378daa952ba7f163c4a11628f55a4df523b3ef",
            "0x0000000000000000000000001d434906aa520e592fab2b82406beff859be8e82",
            "0x000000000000000000000000feec000000000000000000000000000000000000"
          ],
          "data": "0x0000000000000000000000000000000000000000000000000000000000000119",
          "blockHash": "0x64e36721838c16f2e49209e53ca84da06a96b2e6efd773379b6efeab1eabb280",
          "blockNumber": "0x35ede6",
          "blockTimestamp": "0x69827091",
          "transactionHash": "0x91f90c16223028c2e74c41fc01e09e49dcd168301545e1c24a564f3ff3c3150d",
          "transactionIndex": "0x1c",
          "logIndex": "0x39",
          "removed": false
        }
      ],
      "logsBloom": "0x00004000000000000000000000000000000000000000000000000000000000000040000000000000000100000008000000000000000000000000000000000000000004000000000000000008000000000000000000000000000000000000000000000000000000000080000000000000000000000000000000000010000040000000000000000000000000000020000000000000800000000000000000000040080020000000000000000000000400000000000000000000000000000000000000000002000000000000000000000000000000000080000000000000000000000000000000004000000100000000000002000800000000000000000000000000",
      "transactionHash": "0x91f90c16223028c2e74c41fc01e09e49dcd168301545e1c24a564f3ff3c3150d",
      "transactionIndex": "0x1c",
      "blockHash": "0x64e36721838c16f2e49209e53ca84da06a96b2e6efd773379b6efeab1eabb280",
      "blockNumber": "0x35ede6",
      "gasUsed": "0x6d78",
      "effectiveGasPrice": "0x2540c48b5",
      "from": "0x1d434906aa520e592fab2b82406beff859be8e82",
      "to": "0xfeec000000000000000000000000000000000000",
      "contractAddress": null,
      "feeToken": "0x20c000000000000000000000cf5b0f48f7fedc7f",
      "feePayer": "0x1d434906aa520e592fab2b82406beff859be8e82"
    },
    {
      "type": "0x2",
      "status": "0x1",
      "cumulativeGasUsed": "0x20b9cf",
      "logs": [
        {
          "address": "0x20c000000000000000000000cf5b0f48f7fedc7f",
          "topics": [
            "0x8c5be1e5ebec7d5bd14f71427d1e84f3dd0314c0f7b2291e5b200ac8c7c3b925",
            "0x0000000000000000000000001d434906aa520e592fab2b82406beff859be8e82",
            "0x00000000000000000000000016fbfcf4970d4550791faf75ae9baece75c85a27"
          ],
          "data": "0x0000000000000000000000000000000000000000000000000000000000135236",
          "blockHash": "0x64e36721838c16f2e49209e53ca84da06a96b2e6efd773379b6efeab1eabb280",
          "blockNumber": "0x35ede6",
          "blockTimestamp": "0x69827091",
          "transactionHash": "0x977719f929aebbdaab0daa53268a0dac83e2a686614a4cc7c2e6ee10373938c1",
          "transactionIndex": "0x1d",
          "logIndex": "0x3a",
          "removed": false
        },
        {
          "address": "0x20c000000000000000000000cf5b0f48f7fedc7f",
          "topics": [
            "0xddf252ad1be2c89b69c2b068fc378daa952ba7f163c4a11628f55a4df523b3ef",
            "0x0000000000000000000000001d434906aa520e592fab2b82406beff859be8e82",
            "0x000000000000000000000000feec000000000000000000000000000000000000"
          ],
          "data": "0x00000000000000000000000000000000000000000000000000000000000001c9",
          "blockHash": "0x64e36721838c16f2e49209e53ca84da06a96b2e6efd773379b6efeab1eabb280",
          "blockNumber": "0x35ede6",
          "blockTimestamp": "0x69827091",
          "transactionHash": "0x977719f929aebbdaab0daa53268a0dac83e2a686614a4cc7c2e6ee10373938c1",
          "transactionIndex": "0x1d",
          "logIndex": "0x3b",
          "removed": false
        }
      ],
      "logsBloom": "0x000010000000000000000000000000000000000000000000000000000000000200400000000000000001000000080000000000000000000000000000002000000000040000000000000000080000000000000000000000000000000000000000000000000000000000000000000000000000000000000000000000100000000000000000000000000000000000202000000000008000000000000000000000000a0020000000000000000000000000000000000000000000000000000000000000000002000000000000000000000000000000000000000000000000000000000010000000004000000000000000000000000000000000000000000000000000",
      "transactionHash": "0x977719f929aebbdaab0daa53268a0dac83e2a686614a4cc7c2e6ee10373938c1",
      "transactionIndex": "0x1d",
      "blockHash": "0x64e36721838c16f2e49209e53ca84da06a96b2e6efd773379b6efeab1eabb280",
      "blockNumber": "0x35ede6",
      "gasUsed": "0xb266",
      "effectiveGasPrice": "0x2540c48b5",
      "from": "0x1d434906aa520e592fab2b82406beff859be8e82",
      "to": "0x20c000000000000000000000cf5b0f48f7fedc7f",
      "contractAddress": null,
      "feeToken": "0x20c000000000000000000000cf5b0f48f7fedc7f",
      "feePayer": "0x1d434906aa520e592fab2b82406beff859be8e82"
    },
    {
      "type": "0x2",
      "status": "0x1",
      "cumulativeGasUsed": "0x293ff4",
      "logs": [
        {
          "address": "0x16fbfcf4970d4550791faf75ae9baece75c85a27",
          "topics": [
            "0x603e191ccb1fad1c0004c9c1f37101358f84c3cf059031e9ec9b0c17cad34188",
            "0x0000000000000000000000000000000000000000000000000000000000009ce1"
          ],
          "data": "0x00000000000000000000000000000000000000000000000000000000000027100000000000000000000000000000000000000000000000000000000000002710",
          "blockHash": "0x64e36721838c16f2e49209e53ca84da06a96b2e6efd773379b6efeab1eabb280",
          "blockNumber": "0x35ede6",
          "blockTimestamp": "0x69827091",
          "transactionHash": "0xf834d95ee68c40c4d131b069315c269888c3fbbc08f436e722b96849a466bacf",
          "transactionIndex": "0x1e",
          "logIndex": "0x3c",
          "removed": false
        },
        {
          "address": "0x16fbfcf4970d4550791faf75ae9baece75c85a27",
          "topics": [
            "0xd2ff7607bbad14e866630d67da40c9a9cedd964cce5ce4c3dc4176133954ef98"
          ],
          "data": "0x00000000000000000000000000000000000000000000000000000000000027100000000000000000000000000000000000000000000000000000000000002710",
          "blockHash": "0x64e36721838c16f2e49209e53ca84da06a96b2e6efd773379b6efeab1eabb280",
          "blockNumber": "0x35ede6",
          "blockTimestamp": "0x69827091",
          "transactionHash": "0xf834d95ee68c40c4d131b069315c269888c3fbbc08f436e722b96849a466bacf",
          "transactionIndex": "0x1e",
          "logIndex": "0x3d",
          "removed": false
        },
        {
          "address": "0x20c000000000000000000000cf5b0f48f7fedc7f",
          "topics": [
            "0xddf252ad1be2c89b69c2b068fc378daa952ba7f163c4a11628f55a4df523b3ef",
            "0x0000000000000000000000001d434906aa520e592fab2b82406beff859be8e82",
            "0x00000000000000000000000016fbfcf4970d4550791faf75ae9baece75c85a27"
          ],
          "data": "0x0000000000000000000000000000000000000000000000000000000000002710",
          "blockHash": "0x64e36721838c16f2e49209e53ca84da06a96b2e6efd773379b6efeab1eabb280",
          "blockNumber": "0x35ede6",
          "blockTimestamp": "0x69827091",
          "transactionHash": "0xf834d95ee68c40c4d131b069315c269888c3fbbc08f436e722b96849a466bacf",
          "transactionIndex": "0x1e",
          "logIndex": "0x3e",
          "removed": false
        },
        {
          "address": "0x20c000000000000000000000cf5b0f48f7fedc7f",
          "topics": [
            "0xddf252ad1be2c89b69c2b068fc378daa952ba7f163c4a11628f55a4df523b3ef",
            "0x00000000000000000000000016fbfcf4970d4550791faf75ae9baece75c85a27",
            "0x0000000000000000000000000000000000000000000000000000000000000000"
          ],
          "data": "0x0000000000000000000000000000000000000000000000000000000000002710",
          "blockHash": "0x64e36721838c16f2e49209e53ca84da06a96b2e6efd773379b6efeab1eabb280",
          "blockNumber": "0x35ede6",
          "blockTimestamp": "0x69827091",
          "transactionHash": "0xf834d95ee68c40c4d131b069315c269888c3fbbc08f436e722b96849a466bacf",
          "transactionIndex": "0x1e",
          "logIndex": "0x3f",
          "removed": false
        },
        {
          "address": "0x20c000000000000000000000cf5b0f48f7fedc7f",
          "topics": [
            "0xcc16f5dbb4873280815c1ee09dbd06736cffcc184412cf7a71a0fdb75d397ca5",
            "0x00000000000000000000000016fbfcf4970d4550791faf75ae9baece75c85a27"
          ],
          "data": "0x0000000000000000000000000000000000000000000000000000000000002710",
          "blockHash": "0x64e36721838c16f2e49209e53ca84da06a96b2e6efd773379b6efeab1eabb280",
          "blockNumber": "0x35ede6",
          "blockTimestamp": "0x69827091",
          "transactionHash": "0xf834d95ee68c40c4d131b069315c269888c3fbbc08f436e722b96849a466bacf",
          "transactionIndex": "0x1e",
          "logIndex": "0x40",
          "removed": false
        },
        {
          "address": "0x20c000000000000000000000cf5b0f48f7fedc7f",
          "topics": [
            "0xddf252ad1be2c89b69c2b068fc378daa952ba7f163c4a11628f55a4df523b3ef",
            "0x0000000000000000000000001d434906aa520e592fab2b82406beff859be8e82",
            "0x00000000000000000000000016fbfcf4970d4550791faf75ae9baece75c85a27"
          ],
          "data": "0x0000000000000000000000000000000000000000000000000000000000132b26",
          "blockHash": "0x64e36721838c16f2e49209e53ca84da06a96b2e6efd773379b6efeab1eabb280",
          "blockNumber": "0x35ede6",
          "blockTimestamp": "0x69827091",
          "transactionHash": "0xf834d95ee68c40c4d131b069315c269888c3fbbc08f436e722b96849a466bacf",
          "transactionIndex": "0x1e",
          "logIndex": "0x41",
          "removed": false
        },
        {
          "address": "0x20c000000000000000000000cf5b0f48f7fedc7f",
          "topics": [
            "0x8c5be1e5ebec7d5bd14f71427d1e84f3dd0314c0f7b2291e5b200ac8c7c3b925",
            "0x00000000000000000000000016fbfcf4970d4550791faf75ae9baece75c85a27",
            "0x000000000000000000000000dec0000000000000000000000000000000000000"
          ],
          "data": "0x0000000000000000000000000000000000000000000000000000000000132b26",
          "blockHash": "0x64e36721838c16f2e49209e53ca84da06a96b2e6efd773379b6efeab1eabb280",
          "blockNumber": "0x35ede6",
          "blockTimestamp": "0x69827091",
          "transactionHash": "0xf834d95ee68c40c4d131b069315c269888c3fbbc08f436e722b96849a466bacf",
          "transactionIndex": "0x1e",
          "logIndex": "0x42",
          "removed": false
        },
        {
          "address": "0xdec0000000000000000000000000000000000000",
          "topics": [
            "0x16c08f8f2c17b3c8879b3e3cf5efdbdcdfdbd0fcb3890f9d3086f470cd601ddd",
            "0x0000000000000000000000000000000000000000000000000000000000454654",
            "0x0000000000000000000000001d434906aa520e592fab2b82406beff859be8e82",
            "0x00000000000000000000000016fbfcf4970d4550791faf75ae9baece75c85a27"
          ],
          "data": "0x0000000000000000000000000000000000000000000000000000000000132b260000000000000000000000000000000000000000000000000000000000000001",
          "blockHash": "0x64e36721838c16f2e49209e53ca84da06a96b2e6efd773379b6efeab1eabb280",
          "blockNumber": "0x35ede6",
          "blockTimestamp": "0x69827091",
          "transactionHash": "0xf834d95ee68c40c4d131b069315c269888c3fbbc08f436e722b96849a466bacf",
          "transactionIndex": "0x1e",
          "logIndex": "0x43",
          "removed": false
        },
        {
          "address": "0x20c000000000000000000000cf5b0f48f7fedc7f",
          "topics": [
            "0xddf252ad1be2c89b69c2b068fc378daa952ba7f163c4a11628f55a4df523b3ef",
            "0x00000000000000000000000016fbfcf4970d4550791faf75ae9baece75c85a27",
            "0x000000000000000000000000dec0000000000000000000000000000000000000"
          ],
          "data": "0x0000000000000000000000000000000000000000000000000000000000132b26",
          "blockHash": "0x64e36721838c16f2e49209e53ca84da06a96b2e6efd773379b6efeab1eabb280",
          "blockNumber": "0x35ede6",
          "blockTimestamp": "0x69827091",
          "transactionHash": "0xf834d95ee68c40c4d131b069315c269888c3fbbc08f436e722b96849a466bacf",
          "transactionIndex": "0x1e",
          "logIndex": "0x44",
          "removed": false
        },
        {
          "address": "0x20c0000000000000000000000000000000000000",
          "topics": [
            "0xddf252ad1be2c89b69c2b068fc378daa952ba7f163c4a11628f55a4df523b3ef",
            "0x000000000000000000000000dec0000000000000000000000000000000000000",
            "0x00000000000000000000000016fbfcf4970d4550791faf75ae9baece75c85a27"
          ],
          "data": "0x0000000000000000000000000000000000000000000000000000000000132b26",
          "blockHash": "0x64e36721838c16f2e49209e53ca84da06a96b2e6efd773379b6efeab1eabb280",
          "blockNumber": "0x35ede6",
          "blockTimestamp": "0x69827091",
          "transactionHash": "0xf834d95ee68c40c4d131b069315c269888c3fbbc08f436e722b96849a466bacf",
          "transactionIndex": "0x1e",
          "logIndex": "0x45",
          "removed": false
        },
        {
          "address": "0x20c0000000000000000000000000000000000000",
          "topics": [
            "0x8c5be1e5ebec7d5bd14f71427d1e84f3dd0314c0f7b2291e5b200ac8c7c3b925",
            "0x00000000000000000000000016fbfcf4970d4550791faf75ae9baece75c85a27",
            "0x0000000000000000000000000e81579b25c9c458a2030824b7fdbd0194900803"
          ],
          "data": "0x0000000000000000000000000000000000000000000000000000000000132b26",
          "blockHash": "0x64e36721838c16f2e49209e53ca84da06a96b2e6efd773379b6efeab1eabb280",
          "blockNumber": "0x35ede6",
          "blockTimestamp": "0x69827091",
          "transactionHash": "0xf834d95ee68c40c4d131b069315c269888c3fbbc08f436e722b96849a466bacf",
          "transactionIndex": "0x1e",
          "logIndex": "0x46",
          "removed": false
        },
        {
          "address": "0x20c0000000000000000000000000000000000000",
          "topics": [
            "0xddf252ad1be2c89b69c2b068fc378daa952ba7f163c4a11628f55a4df523b3ef",
            "0x00000000000000000000000016fbfcf4970d4550791faf75ae9baece75c85a27",
            "0x0000000000000000000000000e81579b25c9c458a2030824b7fdbd0194900803"
          ],
          "data": "0x0000000000000000000000000000000000000000000000000000000000132b26",
          "blockHash": "0x64e36721838c16f2e49209e53ca84da06a96b2e6efd773379b6efeab1eabb280",
          "blockNumber": "0x35ede6",
          "blockTimestamp": "0x69827091",
          "transactionHash": "0xf834d95ee68c40c4d131b069315c269888c3fbbc08f436e722b96849a466bacf",
          "transactionIndex": "0x1e",
          "logIndex": "0x47",
          "removed": false
        },
        {
          "address": "0x0e81579b25c9c458a2030824b7fdbd0194900803",
          "topics": [
            "0xddf252ad1be2c89b69c2b068fc378daa952ba7f163c4a11628f55a4df523b3ef",
            "0x0000000000000000000000000000000000000000000000000000000000000000",
            "0x000000000000000000000000fb34352ba2e2d9cb93837bb19d36db5d93bcfc41"
          ],
          "data": "0x0000000000000000000000000000000000000000000000000000000000132b26",
          "blockHash": "0x64e36721838c16f2e49209e53ca84da06a96b2e6efd773379b6efeab1eabb280",
          "blockNumber": "0x35ede6",
          "blockTimestamp": "0x69827091",
          "transactionHash": "0xf834d95ee68c40c4d131b069315c269888c3fbbc08f436e722b96849a466bacf",
          "transactionIndex": "0x1e",
          "logIndex": "0x48",
          "removed": false
        },
        {
          "address": "0x0e81579b25c9c458a2030824b7fdbd0194900803",
          "topics": [
            "0x8ed59ebee7004468a5666f7566d43343b5917817e35765800064b665b66d070f",
            "0x00000000000000000000000020c0000000000000000000000000000000000000",
            "0x00000000000000000000000016fbfcf4970d4550791faf75ae9baece75c85a27",
            "0x000000000000000000000000fb34352ba2e2d9cb93837bb19d36db5d93bcfc41"
          ],
          "data": "0x0000000000000000000000000000000000000000000000000000000000132b26",
          "blockHash": "0x64e36721838c16f2e49209e53ca84da06a96b2e6efd773379b6efeab1eabb280",
          "blockNumber": "0x35ede6",
          "blockTimestamp": "0x69827091",
          "transactionHash": "0xf834d95ee68c40c4d131b069315c269888c3fbbc08f436e722b96849a466bacf",
          "transactionIndex": "0x1e",
          "logIndex": "0x49",
          "removed": false
        },
        {
          "address": "0x91ec94dd5e949bdb2ece3b91b9602ec5f7f59ffd",
          "topics": [
            "0x61ed099e74a97a1d7f8bb0952a88ca8b7b8ebd00c126ea04671f92a81213318a"
          ],
          "data": "0x000000000000000000000000e665f5dfd91dfe883d36cc8552d4cc385ac2368700000000000000000000000000000000000000000000000000000000000eea1f",
          "blockHash": "0x64e36721838c16f2e49209e53ca84da06a96b2e6efd773379b6efeab1eabb280",
          "blockNumber": "0x35ede6",
          "blockTimestamp": "0x69827091",
          "transactionHash": "0xf834d95ee68c40c4d131b069315c269888c3fbbc08f436e722b96849a466bacf",
          "transactionIndex": "0x1e",
          "logIndex": "0x4a",
          "removed": false
        },
        {
          "address": "0x91ec94dd5e949bdb2ece3b91b9602ec5f7f59ffd",
          "topics": [
            "0x07ea52d82345d6e838192107d8fd7123d9c2ec8e916cd0aad13fd2b60db24644"
          ],
          "data": "0x000000000000000000000000000000000000000000000000000000000000006000000000000000000000000000000000000000000000000000000000000000a000000000000000000000000000000000000000000000000000000000000000c000000000000000000000000000000000000000000000000000000000000000010000000000000000000000000ac2924460a5b285fd205dedb46738ad46971061000000000000000000000000000000000000000000000000000000000000000000000000000000000000000000000000000000000000000000000000000000010000000000000000000000000000000000000000000000000000000000044107",
          "blockHash": "0x64e36721838c16f2e49209e53ca84da06a96b2e6efd773379b6efeab1eabb280",
          "blockNumber": "0x35ede6",
          "blockTimestamp": "0x69827091",
          "transactionHash": "0xf834d95ee68c40c4d131b069315c269888c3fbbc08f436e722b96849a466bacf",
          "transactionIndex": "0x1e",
          "logIndex": "0x4b",
          "removed": false
        },
        {
          "address": "0xfb34352ba2e2d9cb93837bb19d36db5d93bcfc41",
          "topics": [
            "0x1ab700d4ced0c005b164c0f789fd09fcbb0156d4c2041b8a3bfbcd961cd1567f"
          ],
          "data": "0x0000000000000000000000000000000000000000000000000000000000000060000000000000000000000000000000000000000000000000000000000000012000000000000000000000000091ec94dd5e949bdb2ece3b91b9602ec5f7f59ffd000000000000000000000000000000000000000000000000000000000000009901000000000000000200009dfc00000000000000000000000016fbfcf4970d4550791faf75ae9baece75c85a2700009ce100000000000000000000000029a5134d3b22f47ad52e0a22a63247363e9f35c2371a4a2d62fb8aebdc80a2634b651183dfb32c1f2fdef976301c3d001871f6ff0000000000000000000000000990be6db8c785fbbf9ded8baec612a10cae814b000000000000271000000000000000000000000000000000000000000000000000000000000000000000000000001600030100110100000000000000000000000000030d4000000000000000000000",
          "blockHash": "0x64e36721838c16f2e49209e53ca84da06a96b2e6efd773379b6efeab1eabb280",
          "blockNumber": "0x35ede6",
          "blockTimestamp": "0x69827091",
          "transactionHash": "0xf834d95ee68c40c4d131b069315c269888c3fbbc08f436e722b96849a466bacf",
          "transactionIndex": "0x1e",
          "logIndex": "0x4c",
          "removed": false
        },
        {
          "address": "0x0e81579b25c9c458a2030824b7fdbd0194900803",
          "topics": [
            "0xddf252ad1be2c89b69c2b068fc378daa952ba7f163c4a11628f55a4df523b3ef",
            "0x000000000000000000000000fb34352ba2e2d9cb93837bb19d36db5d93bcfc41",
            "0x00000000000000000000000091ec94dd5e949bdb2ece3b91b9602ec5f7f59ffd"
          ],
          "data": "0x0000000000000000000000000000000000000000000000000000000000132b26",
          "blockHash": "0x64e36721838c16f2e49209e53ca84da06a96b2e6efd773379b6efeab1eabb280",
          "blockNumber": "0x35ede6",
          "blockTimestamp": "0x69827091",
          "transactionHash": "0xf834d95ee68c40c4d131b069315c269888c3fbbc08f436e722b96849a466bacf",
          "transactionIndex": "0x1e",
          "logIndex": "0x4d",
          "removed": false
        },
        {
          "address": "0x16fbfcf4970d4550791faf75ae9baece75c85a27",
          "topics": [
            "0x85496b760a4b7f8d66384b9df21b381f5d1b1e79f229a47aaf4c232edc2fe59a",
            "0x371a4a2d62fb8aebdc80a2634b651183dfb32c1f2fdef976301c3d001871f6ff",
            "0x0000000000000000000000001d434906aa520e592fab2b82406beff859be8e82"
          ],
          "data": "0x0000000000000000000000000000000000000000000000000000000000009ce100000000000000000000000000000000000000000000000000000000000027100000000000000000000000000000000000000000000000000000000000002710",
          "blockHash": "0x64e36721838c16f2e49209e53ca84da06a96b2e6efd773379b6efeab1eabb280",
          "blockNumber": "0x35ede6",
          "blockTimestamp": "0x69827091",
          "transactionHash": "0xf834d95ee68c40c4d131b069315c269888c3fbbc08f436e722b96849a466bacf",
          "transactionIndex": "0x1e",
          "logIndex": "0x4e",
          "removed": false
        },
        {
          "address": "0x20c000000000000000000000cf5b0f48f7fedc7f",
          "topics": [
            "0xddf252ad1be2c89b69c2b068fc378daa952ba7f163c4a11628f55a4df523b3ef",
            "0x0000000000000000000000001d434906aa520e592fab2b82406beff859be8e82",
            "0x000000000000000000000000feec000000000000000000000000000000000000"
          ],
          "data": "0x00000000000000000000000000000000000000000000000000000000000015d3",
          "blockHash": "0x64e36721838c16f2e49209e53ca84da06a96b2e6efd773379b6efeab1eabb280",
          "blockNumber": "0x35ede6",
          "blockTimestamp": "0x69827091",
          "transactionHash": "0xf834d95ee68c40c4d131b069315c269888c3fbbc08f436e722b96849a466bacf",
          "transactionIndex": "0x1e",
          "logIndex": "0x4f",
          "removed": false
        }
      ],
      "logsBloom": "0x000010000000000000000000010000100000000000010030100000000000000200400400200200000001000001080000000000000000220202000000002000000010060000106000000000080010000000000100000000000000000004000000000000000200040080220000008008000800001000000000000000101080200000000000000008000000000800202040000000008001002120000040002000002a0020008000000000100000004000000040200000400010000440040000004000000002000000000100200084000000000000000000000000000000000020000010040000005000000000000080002200000002008900000000000041000000",
      "transactionHash": "0xf834d95ee68c40c4d131b069315c269888c3fbbc08f436e722b96849a466bacf",
      "transactionIndex": "0x1e",
      "blockHash": "0x64e36721838c16f2e49209e53ca84da06a96b2e6efd773379b6efeab1eabb280",
      "blockNumber": "0x35ede6",
      "gasUsed": "0x88625",
      "effectiveGasPrice": "0x2540c48b5",
      "from": "0x1d434906aa520e592fab2b82406beff859be8e82",
      "to": "0x16fbfcf4970d4550791faf75ae9baece75c85a27",
      "contractAddress": null,
      "feeToken": "0x20c000000000000000000000cf5b0f48f7fedc7f",
      "feePayer": "0x1d434906aa520e592fab2b82406beff859be8e82"
    }
  ],
  "libraries": [],
  "pending": [],
  "returns": {},
  "timestamp": 1770156179203,
  "chain": 42431,
  "commit": "47b8acf"
}