{
  "transactions": [
    {
      "hash": "0xfd02d1ea97f0668e17767d01baf495bb5ae04f7efbd8a31cd476ebcf0684ae3b",
      "transactionType": "CALL",
      "contractName": null,
      "contractAddress": "0x23432452b720c80553458496d4d9d7c5003280d0",
      "function": "send((uint32,bytes32,uint256,uint256,bytes,bytes,bytes),(uint256,uint256),address)",
      "arguments": [
        "(30260, 0x000000000000000000000000b0e1650a9760e0f383174af042091fc544b8356f, 1000000000000, 1000000000000, 0x0003, 0x, 0x)",
        "(9307274903933, 0)",
        "0xb0E1650A9760e0f383174af042091fc544b8356f"
      ],
      "transaction": {
        "from": "0xb0e1650a9760e0f383174af042091fc544b8356f",
        "to": "0x23432452b720c80553458496d4d9d7c5003280d0",
        "gas": "0x5df16",
        "value": "0x87704d0817d",
        "input": "0xc7c7f5b300000000000000000000000000000000000000000000000000000000000000800000000000000000000000000000000000000000000000000000087704d0817d0000000000000000000000000000000000000000000000000000000000000000000000000000000000000000b0e1650a9760e0f383174af042091fc544b8356f0000000000000000000000000000000000000000000000000000000000007634000000000000000000000000b0e1650a9760e0f383174af042091fc544b8356f000000000000000000000000000000000000000000000000000000e8d4a51000000000000000000000000000000000000000000000000000000000e8d4a5100000000000000000000000000000000000000000000000000000000000000000e0000000000000000000000000000000000000000000000000000000000000012000000000000000000000000000000000000000000000000000000000000001400000000000000000000000000000000000000000000000000000000000000002000300000000000000000000000000000000000000000000000000000000000000000000000000000000000000000000000000000000000000000000000000000000000000000000000000000000000000000000000000000000000000000000",
        "nonce": "0x1",
        "chainId": "0x2105"
      },
      "additionalContracts": [],
      "isFixedGasLimit": false
    },
    {
      "hash": "0x16891fe63229fbe648e3d2e1ad749fdf76aec33f8d102b0b4054b64e2fa5300c",
      "transactionType": "CALL",
      "contractName": null,
      "contractAddress": "0xe4796ccb6bb5de2290c417ac337f2b66ca2e770e",
      "function": "send((uint32,bytes32,uint256,uint256,bytes,bytes,bytes),(uint256,uint256),address)",
      "arguments": [
        "(30260, 0x000000000000000000000000b0e1650a9760e0f383174af042091fc544b8356f, 1000000000000, 1000000000000, 0x0003, 0x, 0x)",
        "(9307274903933, 0)",
        "0xb0E1650A9760e0f383174af042091fc544b8356f"
      ],
      "transaction": {
        "from": "0xb0e1650a9760e0f383174af042091fc544b8356f",
        "to": "0xe4796ccb6bb5de2290c417ac337f2b66ca2e770e",
        "gas": "0x5df16",
        "value": "0x87704d0817d",
        "input": "0xc7c7f5b300000000000000000000000000000000000000000000000000000000000000800000000000000000000000000000000000000000000000000000087704d0817d0000000000000000000000000000000000000000000000000000000000000000000000000000000000000000b0e1650a9760e0f383174af042091fc544b8356f0000000000000000000000000000000000000000000000000000000000007634000000000000000000000000b0e1650a9760e0f383174af042091fc544b8356f000000000000000000000000000000000000000000000000000000e8d4a51000000000000000000000000000000000000000000000000000000000e8d4a5100000000000000000000000000000000000000000000000000000000000000000e0000000000000000000000000000000000000000000000000000000000000012000000000000000000000000000000000000000000000000000000000000001400000000000000000000000000000000000000000000000000000000000000002000300000000000000000000000000000000000000000000000000000000000000000000000000000000000000000000000000000000000000000000000000000000000000000000000000000000000000000000000000000000000000000000",
        "nonce": "0x2",
        "chainId": "0x2105"
      },
      "additionalContracts": [],
      "isFixedGasLimit": false
    },
    {
      "hash": "0x4e13874060eb20bd6eac5168521877f4d16c698b8396928db3c59d17d737ebc4",
      "transactionType": "CALL",
      "contractName": null,
      "contractAddress": "0x1f55a02a049033e3419a8e2975cf3f572f4e6e9a",
      "function": "send((uint32,bytes32,uint256,uint256,bytes,bytes,bytes),(uint256,uint256),address)",
      "arguments": [
        "(30260, 0x000000000000000000000000b0e1650a9760e0f383174af042091fc544b8356f, 1000000000000, 1000000000000, 0x0003, 0x, 0x)",
        "(9307274903933, 0)",
        "0xb0E1650A9760e0f383174af042091fc544b8356f"
      ],
      "transaction": {
        "from": "0xb0e1650a9760e0f383174af042091fc544b8356f",
        "to": "0x1f55a02a049033e3419a8e2975cf3f572f4e6e9a",
        "gas": "0x5df16",
        "value": "0x87704d0817d",
        "input": "0xc7c7f5b300000000000000000000000000000000000000000000000000000000000000800000000000000000000000000000000000000000000000000000087704d0817d0000000000000000000000000000000000000000000000000000000000000000000000000000000000000000b0e1650a9760e0f383174af042091fc544b8356f0000000000000000000000000000000000000000000000000000000000007634000000000000000000000000b0e1650a9760e0f383174af042091fc544b8356f000000000000000000000000000000000000000000000000000000e8d4a51000000000000000000000000000000000000000000000000000000000e8d4a5100000000000000000000000000000000000000000000000000000000000000000e0000000000000000000000000000000000000000000000000000000000000012000000000000000000000000000000000000000000000000000000000000001400000000000000000000000000000000000000000000000000000000000000002000300000000000000000000000000000000000000000000000000000000000000000000000000000000000000000000000000000000000000000000000000000000000000000000000000000000000000000000000000000000000000000000",
        "nonce": "0x3",
        "chainId": "0x2105"
      },
      "additionalContracts": [],
      "isFixedGasLimit": false
    },
    {
      "hash": "0x599b0df35006a3742418ad1bfa8883886e2fff72f1cb56362b630ee7a8068834",
      "transactionType": "CALL",
      "contractName": null,
      "contractAddress": "0x909dbde1ebe906af95660033e478d59efe831fed",
      "function": "send((uint32,bytes32,uint256,uint256,bytes,bytes,bytes),(uint256,uint256),address)",
      "arguments": [
        "(30260, 0x000000000000000000000000b0e1650a9760e0f383174af042091fc544b8356f, 1000000000000, 1000000000000, 0x0003, 0x, 0x)",
        "(9307274903933, 0)",
        "0xb0E1650A9760e0f383174af042091fc544b8356f"
      ],
      "transaction": {
        "from": "0xb0e1650a9760e0f383174af042091fc544b8356f",
        "to": "0x909dbde1ebe906af95660033e478d59efe831fed",
        "gas": "0x5d5d1",
        "value": "0x87704d0817d",
        "input": "0xc7c7f5b300000000000000000000000000000000000000000000000000000000000000800000000000000000000000000000000000000000000000000000087704d0817d0000000000000000000000000000000000000000000000000000000000000000000000000000000000000000b0e1650a9760e0f383174af042091fc544b8356f0000000000000000000000000000000000000000000000000000000000007634000000000000000000000000b0e1650a9760e0f383174af042091fc544b8356f000000000000000000000000000000000000000000000000000000e8d4a51000000000000000000000000000000000000000000000000000000000e8d4a5100000000000000000000000000000000000000000000000000000000000000000e0000000000000000000000000000000000000000000000000000000000000012000000000000000000000000000000000000000000000000000000000000001400000000000000000000000000000000000000000000000000000000000000002000300000000000000000000000000000000000000000000000000000000000000000000000000000000000000000000000000000000000000000000000000000000000000000000000000000000000000000000000000000000000000000000",
        "nonce": "0x4",
        "chainId": "0x2105"
      },
      "additionalContracts": [],
      "isFixedGasLimit": false
    }
  ],
  "receipts": [
    {
      "status": "0x1",
      "cumulativeGasUsed": "0x7a509f",
      "logs": [
        {
          "address": "0x23432452b720c80553458496d4d9d7c5003280d0",
          "topics": [
            "0xddf252ad1be2c89b69c2b068fc378daa952ba7f163c4a11628f55a4df523b3ef",
            "0x000000000000000000000000b0e1650a9760e0f383174af042091fc544b8356f",
            "0x0000000000000000000000000000000000000000000000000000000000000000"
          ],
          "data": "0x000000000000000000000000000000000000000000000000000000e8d4a51000",
          "blockHash": "0x867261ffa7663c68f3b0ef5eda041f1ca61d03c54847e2ac2b00edae1b5ffc44",
          "blockNumber": "0xf9c024",
          "transactionHash": "0xfd02d1ea97f0668e17767d01baf495bb5ae04f7efbd8a31cd476ebcf0684ae3b",
          "transactionIndex": "0x2d",
          "logIndex": "0xbd",
          "removed": false
        },
        {
          "address": "0xb5320b0b3a13cc860893e2bd79fcd7e13484dda2",
          "topics": [
            "0x61ed099e74a97a1d7f8bb0952a88ca8b7b8ebd00c126ea04671f92a81213318a"
          ],
          "data": "0x0000000000000000000000002cca08ae69e0c44b18a57ab2a87644234daebae40000000000000000000000000000000000000000000000000000082a2805899d",
          "blockHash": "0x867261ffa7663c68f3b0ef5eda041f1ca61d03c54847e2ac2b00edae1b5ffc44",
          "blockNumber": "0xf9c024",
          "transactionHash": "0xfd02d1ea97f0668e17767d01baf495bb5ae04f7efbd8a31cd476ebcf0684ae3b",
          "transactionIndex": "0x2d",
          "logIndex": "0xbe",
          "removed": false
        },
        {
          "address": "0xb5320b0b3a13cc860893e2bd79fcd7e13484dda2",
          "topics": [
            "0x07ea52d82345d6e838192107d8fd7123d9c2ec8e916cd0aad13fd2b60db24644"
          ],
          "data": "0x000000000000000000000000000000000000000000000000000000000000006000000000000000000000000000000000000000000000000000000000000000c000000000000000000000000000000000000000000000000000000000000000e000000000000000000000000000000000000000000000000000000000000000020000000000000000000000009e059a54699a285714207b43b055483e78faac25000000000000000000000000a7b5189bca84cd304d8553977c7c614329750d9900000000000000000000000000000000000000000000000000000000000000000000000000000000000000000000000000000000000000000000000000000002000000000000000000000000000000000000000000000000000000266e657bf0000000000000000000000000000000000000000000000000000000266e657bf0",
          "blockHash": "0x867261ffa7663c68f3b0ef5eda041f1ca61d03c54847e2ac2b00edae1b5ffc44",
          "blockNumber": "0xf9c024",
          "transactionHash": "0xfd02d1ea97f0668e17767d01baf495bb5ae04f7efbd8a31cd476ebcf0684ae3b",
          "transactionIndex": "0x2d",
          "logIndex": "0xbf",
          "removed": false
        },
        {
          "address": "0x1a44076050125825900e736c501f859c50fe728c",
          "topics": [
            "0x1ab700d4ced0c005b164c0f789fd09fcbb0156d4c2041b8a3bfbcd961cd1567f"
          ],
          "data": "0x00000000000000000000000000000000000000000000000000000000000000600000000000000000000000000000000000000000000000000000000000000120000000000000000000000000b5320b0b3a13cc860893e2bd79fcd7e13484dda20000000000000000000000000000000000000000000000000000000000000099010000000000000001000075e800000000000000000000000023432452b720c80553458496d4d9d7c5003280d00000763400000000000000000000000064445f0aecc51e94ad52d8ac56b7190e764e561a95c8d3680a748bad1d980f45858b0a4eeaea7672fdc428f551886eaf4871eade000000000000000000000000b0e1650a9760e0f383174af042091fc544b8356f000000000000000100000000000000000000000000000000000000000000000000000000000000000000000000001600030100110100000000000000000000000000030d4000000000000000000000",
          "blockHash": "0x867261ffa7663c68f3b0ef5eda041f1ca61d03c54847e2ac2b00edae1b5ffc44",
          "blockNumber": "0xf9c024",
          "transactionHash": "0xfd02d1ea97f0668e17767d01baf495bb5ae04f7efbd8a31cd476ebcf0684ae3b",
          "transactionIndex": "0x2d",
          "logIndex": "0xc0",
          "removed": false
        },
        {
          "address": "0x23432452b720c80553458496d4d9d7c5003280d0",
          "topics": [
            "0x85496b760a4b7f8d66384b9df21b381f5d1b1e79f229a47aaf4c232edc2fe59a",
            "0x95c8d3680a748bad1d980f45858b0a4eeaea7672fdc428f551886eaf4871eade",
            "0x000000000000000000000000b0e1650a9760e0f383174af042091fc544b8356f"
          ],
          "data": "0x0000000000000000000000000000000000000000000000000000000000007634000000000000000000000000000000000000000000000000000000e8d4a51000000000000000000000000000000000000000000000000000000000e8d4a51000",
          "blockHash": "0x867261ffa7663c68f3b0ef5eda041f1ca61d03c54847e2ac2b00edae1b5ffc44",
          "blockNumber": "0xf9c024",
          "transactionHash": "0xfd02d1ea97f0668e17767d01baf495bb5ae04f7efbd8a31cd476ebcf0684ae3b",
          "transactionIndex": "0x2d",
          "logIndex": "0xc1",
          "removed": false
        }
      ],
      "logsBloom": "0x00000000000000000000000000000000000000000000000000000000001000000000000000000000000000000000000000000000000000000000000000000000000002000000000000000408000000000000000000000000000000000000000100000000020000008000000000000800000000000110080000000010000000000000000000000000000000080000000000000000000020000004000000000000000000008000000000100000000000000000000000400000000440000000000000000002000000000000000080400000000000000000000000000000000022000000040080000000000000000000002000000000018000008000000000104000",
      "type": "0x2",
      "transactionHash": "0xfd02d1ea97f0668e17767d01baf495bb5ae04f7efbd8a31cd476ebcf0684ae3b",
      "transactionIndex": "0x2d",
      "blockHash": "0x867261ffa7663c68f3b0ef5eda041f1ca61d03c54847e2ac2b00edae1b5ffc44",
      "blockNumber": "0xf9c024",
      "gasUsed": "0x44036",
      "effectiveGasPrice": "0x83e80c",
      "from": "0xb0e1650a9760e0f383174af042091fc544b8356f",
      "to": "0x23432452b720c80553458496d4d9d7c5003280d0",
      "contractAddress": null,
      "l1BaseFeeScalar": "0x58a",
      "l1BlobBaseFee": "0x2",
      "l1BlobBaseFeeScalar": "0xa118b",
      "l1Fee": "0x85557092e",
      "l1GasPrice": "0x143ae6efb",
      "l1GasUsed": "0x1228"
    },
    {
      "status": "0x1",
      "cumulativeGasUsed": "0xe3c8ad",
      "logs": [
        {
          "address": "0xe4796ccb6bb5de2290c417ac337f2b66ca2e770e",
          "topics": [
            "0xddf252ad1be2c89b69c2b068fc378daa952ba7f163c4a11628f55a4df523b3ef",
            "0x000000000000000000000000b0e1650a9760e0f383174af042091fc544b8356f",
            "0x0000000000000000000000000000000000000000000000000000000000000000"
          ],
          "data": "0x000000000000000000000000000000000000000000000000000000e8d4a51000",
          "blockHash": "0x03dd2041f91e1be0c551809770af8bc0446354243e1c6461ddb7323a82a381b2",
          "blockNumber": "0xf9c028",
          "transactionHash": "0x16891fe63229fbe648e3d2e1ad749fdf76aec33f8d102b0b4054b64e2fa5300c",
          "transactionIndex": "0x63",
          "logIndex": "0x1ca",
          "removed": false
        },
        {
          "address": "0xb5320b0b3a13cc860893e2bd79fcd7e13484dda2",
          "topics": [
            "0x61ed099e74a97a1d7f8bb0952a88ca8b7b8ebd00c126ea04671f92a81213318a"
          ],
          "data": "0x0000000000000000000000002cca08ae69e0c44b18a57ab2a87644234daebae40000000000000000000000000000000000000000000000000000082a2805899d",
          "blockHash": "0x03dd2041f91e1be0c551809770af8bc0446354243e1c6461ddb7323a82a381b2",
          "blockNumber": "0xf9c028",
          "transactionHash": "0x16891fe63229fbe648e3d2e1ad749fdf76aec33f8d102b0b4054b64e2fa5300c",
          "transactionIndex": "0x63",
          "logIndex": "0x1cb",
          "removed": false
        },
        {
          "address": "0xb5320b0b3a13cc860893e2bd79fcd7e13484dda2",
          "topics": [
            "0x07ea52d82345d6e838192107d8fd7123d9c2ec8e916cd0aad13fd2b60db24644"
          ],
          "data": "0x000000000000000000000000000000000000000000000000000000000000006000000000000000000000000000000000000000000000000000000000000000c000000000000000000000000000000000000000000000000000000000000000e000000000000000000000000000000000000000000000000000000000000000020000000000000000000000009e059a54699a285714207b43b055483e78faac25000000000000000000000000a7b5189bca84cd304d8553977c7c614329750d9900000000000000000000000000000000000000000000000000000000000000000000000000000000000000000000000000000000000000000000000000000002000000000000000000000000000000000000000000000000000000266e657bf0000000000000000000000000000000000000000000000000000000266e657bf0",
          "blockHash": "0x03dd2041f91e1be0c551809770af8bc0446354243e1c6461ddb7323a82a381b2",
          "blockNumber": "0xf9c028",
          "transactionHash": "0x16891fe63229fbe648e3d2e1ad749fdf76aec33f8d102b0b4054b64e2fa5300c",
          "transactionIndex": "0x63",
          "logIndex": "0x1cc",
          "removed": false
        },
        {
          "address": "0x1a44076050125825900e736c501f859c50fe728c",
          "topics": [
            "0x1ab700d4ced0c005b164c0f789fd09fcbb0156d4c2041b8a3bfbcd961cd1567f"
          ],
          "data": "0x00000000000000000000000000000000000000000000000000000000000000600000000000000000000000000000000000000000000000000000000000000120000000000000000000000000b5320b0b3a13cc860893e2bd79fcd7e13484dda20000000000000000000000000000000000000000000000000000000000000099010000000000000001000075e8000000000000000000000000e4796ccb6bb5de2290c417ac337f2b66ca2e770e000076340000000000000000000000005bff88ca1442c2496f7e475e9e7786383bc070c035bbb2ea5e8eafea4da529f272c877be81d8a99151383da87cdd6186dde39fb5000000000000000000000000b0e1650a9760e0f383174af042091fc544b8356f000000000000000100000000000000000000000000000000000000000000000000000000000000000000000000001600030100110100000000000000000000000000030d4000000000000000000000",
          "blockHash": "0x03dd2041f91e1be0c551809770af8bc0446354243e1c6461ddb7323a82a381b2",
          "blockNumber": "0xf9c028",
          "transactionHash": "0x16891fe63229fbe648e3d2e1ad749fdf76aec33f8d102b0b4054b64e2fa5300c",
          "transactionIndex": "0x63",
          "logIndex": "0x1cd",
          "removed": false
        },
        {
          "address": "0xe4796ccb6bb5de2290c417ac337f2b66ca2e770e",
          "topics": [
            "0x85496b760a4b7f8d66384b9df21b381f5d1b1e79f229a47aaf4c232edc2fe59a",
            "0x35bbb2ea5e8eafea4da529f272c877be81d8a99151383da87cdd6186dde39fb5",
            "0x000000000000000000000000b0e1650a9760e0f383174af042091fc544b8356f"
          ],
          "data": "0x0000000000000000000000000000000000000000000000000000000000007634000000000000000000000000000000000000000000000000000000e8d4a51000000000000000000000000000000000000000000000000000000000e8d4a51000",
          "blockHash": "0x03dd2041f91e1be0c551809770af8bc0446354243e1c6461ddb7323a82a381b2",
          "blockNumber": "0xf9c028",
          "transactionHash": "0x16891fe63229fbe648e3d2e1ad749fdf76aec33f8d102b0b4054b64e2fa5300c",
          "transactionIndex": "0x63",
          "logIndex": "0x1ce",
          "removed": false
        }
      ],
      "logsBloom": "0x00000000000000000000000000000000000000000000000000000000001000100000000000000000000000000000000000000000000000000000000000000200000002000000000000000408000000000004000000000000000000000000000100400000020000008000000000000800000000000110080000000010000000000000000000000004000000080000000000000000000000000004000000000000000000008000000000100000000000000000000000400000000440000000000000000002000000000000000080000000000000000000000000000000000020000000040080000000000000000000002000000000018000000000000000001000",
      "type": "0x2",
      "transactionHash": "0x16891fe63229fbe648e3d2e1ad749fdf76aec33f8d102b0b4054b64e2fa5300c",
      "transactionIndex": "0x63",
      "blockHash": "0x03dd2041f91e1be0c551809770af8bc0446354243e1c6461ddb7323a82a381b2",
      "blockNumber": "0xf9c028",
      "gasUsed": "0x44036",
      "effectiveGasPrice": "0x83ff7e",
      "from": "0xb0e1650a9760e0f383174af042091fc544b8356f",
      "to": "0xe4796ccb6bb5de2290c417ac337f2b66ca2e770e",
      "contractAddress": null,
      "l1BaseFeeScalar": "0x58a",
      "l1BlobBaseFee": "0x2",
      "l1BlobBaseFeeScalar": "0xa118b",
      "l1Fee": "0x82087559b",
      "l1GasPrice": "0x13adb0e9a",
      "l1GasUsed": "0x1234"
    },
    {
      "status": "0x1",
      "cumulativeGasUsed": "0xa2fdf8",
      "logs": [
        {
          "address": "0x1f55a02a049033e3419a8e2975cf3f572f4e6e9a",
          "topics": [
            "0xddf252ad1be2c89b69c2b068fc378daa952ba7f163c4a11628f55a4df523b3ef",
            "0x000000000000000000000000b0e1650a9760e0f383174af042091fc544b8356f",
            "0x0000000000000000000000000000000000000000000000000000000000000000"
          ],
          "data": "0x000000000000000000000000000000000000000000000000000000e8d4a51000",
          "blockHash": "0x0515bbc5b5a437898dc4f4f57e1e802ff7b0710a1d00af6cd417f9196683313b",
          "blockNumber": "0xf9c02c",
          "transactionHash": "0x4e13874060eb20bd6eac5168521877f4d16c698b8396928db3c59d17d737ebc4",
          "transactionIndex": "0x46",
          "logIndex": "0xcc",
          "removed": false
        },
        {
          "address": "0xb5320b0b3a13cc860893e2bd79fcd7e13484dda2",
          "topics": [
            "0x61ed099e74a97a1d7f8bb0952a88ca8b7b8ebd00c126ea04671f92a81213318a"
          ],
          "data": "0x0000000000000000000000002cca08ae69e0c44b18a57ab2a87644234daebae40000000000000000000000000000000000000000000000000000082a2805899d",
          "blockHash": "0x0515bbc5b5a437898dc4f4f57e1e802ff7b0710a1d00af6cd417f9196683313b",
          "blockNumber": "0xf9c02c",
          "transactionHash": "0x4e13874060eb20bd6eac5168521877f4d16c698b8396928db3c59d17d737ebc4",
          "transactionIndex": "0x46",
          "logIndex": "0xcd",
          "removed": false
        },
        {
          "address": "0xb5320b0b3a13cc860893e2bd79fcd7e13484dda2",
          "topics": [
            "0x07ea52d82345d6e838192107d8fd7123d9c2ec8e916cd0aad13fd2b60db24644"
          ],
          "data": "0x000000000000000000000000000000000000000000000000000000000000006000000000000000000000000000000000000000000000000000000000000000c000000000000000000000000000000000000000000000000000000000000000e000000000000000000000000000000000000000000000000000000000000000020000000000000000000000009e059a54699a285714207b43b055483e78faac25000000000000000000000000a7b5189bca84cd304d8553977c7c614329750d9900000000000000000000000000000000000000000000000000000000000000000000000000000000000000000000000000000000000000000000000000000002000000000000000000000000000000000000000000000000000000266e657bf0000000000000000000000000000000000000000000000000000000266e657bf0",
          "blockHash": "0x0515bbc5b5a437898dc4f4f57e1e802ff7b0710a1d00af6cd417f9196683313b",
          "blockNumber": "0xf9c02c",
          "transactionHash": "0x4e13874060eb20bd6eac5168521877f4d16c698b8396928db3c59d17d737ebc4",
          "transactionIndex": "0x46",
          "logIndex": "0xce",
          "removed": false
        },
        {
          "address": "0x1a44076050125825900e736c501f859c50fe728c",
          "topics": [
            "0x1ab700d4ced0c005b164c0f789fd09fcbb0156d4c2041b8a3bfbcd961cd1567f"
          ],
          "data": "0x00000000000000000000000000000000000000000000000000000000000000600000000000000000000000000000000000000000000000000000000000000120000000000000000000000000b5320b0b3a13cc860893e2bd79fcd7e13484dda20000000000000000000000000000000000000000000000000000000000000099010000000000000001000075e80000000000000000000000001f55a02a049033e3419a8e2975cf3f572f4e6e9a000076340000000000000000000000003ec3849c33291a9ef4c5db86de593eb4a37fde4552c3053ffd05dc89101e86a9feb249569ccd0f8ad94e9034330a86c89e078c30000000000000000000000000b0e1650a9760e0f383174af042091fc544b8356f000000000000000100000000000000000000000000000000000000000000000000000000000000000000000000001600030100110100000000000000000000000000030d4000000000000000000000",
          "blockHash": "0x0515bbc5b5a437898dc4f4f57e1e802ff7b0710a1d00af6cd417f9196683313b",
          "blockNumber": "0xf9c02c",
          "transactionHash": "0x4e13874060eb20bd6eac5168521877f4d16c698b8396928db3c59d17d737ebc4",
          "transactionIndex": "0x46",
          "logIndex": "0xcf",
          "removed": false
        },
        {
          "address": "0x1f55a02a049033e3419a8e2975cf3f572f4e6e9a",
          "topics": [
            "0x85496b760a4b7f8d66384b9df21b381f5d1b1e79f229a47aaf4c232edc2fe59a",
            "0x52c3053ffd05dc89101e86a9feb249569ccd0f8ad94e9034330a86c89e078c30",
            "0x000000000000000000000000b0e1650a9760e0f383174af042091fc544b8356f"
          ],
          "data": "0x0000000000000000000000000000000000000000000000000000000000007634000000000000000000000000000000000000000000000000000000e8d4a51000000000000000000000000000000000000000000000000000000000e8d4a51000",
          "blockHash": "0x0515bbc5b5a437898dc4f4f57e1e802ff7b0710a1d00af6cd417f9196683313b",
          "blockNumber": "0xf9c02c",
          "transactionHash": "0x4e13874060eb20bd6eac5168521877f4d16c698b8396928db3c59d17d737ebc4",
          "transactionIndex": "0x46",
          "logIndex": "0xd0",
          "removed": false
        }
      ],
      "logsBloom": "0x20000000100000000000000000000000000000000000000000000000001000000000000000000000000000000000000000000000000000000000000000000000000002000000000000000408000000000000000000000000000000000000000100000000020000008000000000000800000000000110080000000010000000000000000000000010000000080000000000000000000000000004000000000000000000008000000000100000000000000000000000424100000440000000000000000002000000000000000080000000000000000000000000000000000020000000040080000000000000000000002000000000018000000000000000000000",
      "type": "0x2",
      "transactionHash": "0x4e13874060eb20bd6eac5168521877f4d16c698b8396928db3c59d17d737ebc4",
      "transactionIndex": "0x46",
      "blockHash": "0x0515bbc5b5a437898dc4f4f57e1e802ff7b0710a1d00af6cd417f9196683313b",
      "blockNumber": "0xf9c02c",
      "gasUsed": "0x44036",
      "effectiveGasPrice": "0x83caa9",
      "from": "0xb0e1650a9760e0f383174af042091fc544b8356f",
      "to": "0x1f55a02a049033e3419a8e2975cf3f572f4e6e9a",
      "contractAddress": null,
      "l1BaseFeeScalar": "0x58a",
      "l1BlobBaseFee": "0x2",
      "l1BlobBaseFeeScalar": "0xa118b",
      "l1Fee": "0x82087559b",
      "l1GasPrice": "0x13adb0e9a",
      "l1GasUsed": "0x1234"
    },
    {
      "status": "0x1",
      "cumulativeGasUsed": "0x91b1a1",
      "logs": [
        {
          "address": "0x909dbde1ebe906af95660033e478d59efe831fed",
          "topics": [
            "0xddf252ad1be2c89b69c2b068fc378daa952ba7f163c4a11628f55a4df523b3ef",
            "0x000000000000000000000000b0e1650a9760e0f383174af042091fc544b8356f",
            "0x0000000000000000000000000000000000000000000000000000000000000000"
          ],
          "data": "0x000000000000000000000000000000000000000000000000000000e8d4a51000",
          "blockHash": "0x00b5083c400a51f99a01e20793b3a2c268b9a7789d6c94f8185c74f5c14362b0",
          "blockNumber": "0xf9c030",
          "transactionHash": "0x599b0df35006a3742418ad1bfa8883886e2fff72f1cb56362b630ee7a8068834",
          "transactionIndex": "0x3f",
          "logIndex": "0xb6",
          "removed": false
        },
        {
          "address": "0xb5320b0b3a13cc860893e2bd79fcd7e13484dda2",
          "topics": [
            "0x61ed099e74a97a1d7f8bb0952a88ca8b7b8ebd00c126ea04671f92a81213318a"
          ],
          "data": "0x0000000000000000000000002cca08ae69e0c44b18a57ab2a87644234daebae40000000000000000000000000000000000000000000000000000082a2805899d",
          "blockHash": "0x00b5083c400a51f99a01e20793b3a2c268b9a7789d6c94f8185c74f5c14362b0",
          "blockNumber": "0xf9c030",
          "transactionHash": "0x599b0df35006a3742418ad1bfa8883886e2fff72f1cb56362b630ee7a8068834",
          "transactionIndex": "0x3f",
          "logIndex": "0xb7",
          "removed": false
        },
        {
          "address": "0xb5320b0b3a13cc860893e2bd79fcd7e13484dda2",
          "topics": [
            "0x07ea52d82345d6e838192107d8fd7123d9c2ec8e916cd0aad13fd2b60db24644"
          ],
          "data": "0x000000000000000000000000000000000000000000000000000000000000006000000000000000000000000000000000000000000000000000000000000000c000000000000000000000000000000000000000000000000000000000000000e000000000000000000000000000000000000000000000000000000000000000020000000000000000000000009e059a54699a285714207b43b055483e78faac25000000000000000000000000a7b5189bca84cd304d8553977c7c614329750d9900000000000000000000000000000000000000000000000000000000000000000000000000000000000000000000000000000000000000000000000000000002000000000000000000000000000000000000000000000000000000266e657bf0000000000000000000000000000000000000000000000000000000266e657bf0",
          "blockHash": "0x00b5083c400a51f99a01e20793b3a2c268b9a7789d6c94f8185c74f5c14362b0",
          "blockNumber": "0xf9c030",
          "transactionHash": "0x599b0df35006a3742418ad1bfa8883886e2fff72f1cb56362b630ee7a8068834",
          "transactionIndex": "0x3f",
          "logIndex": "0xb8",
          "removed": false
        },
        {
          "address": "0x1a44076050125825900e736c501f859c50fe728c",
          "topics": [
            "0x1ab700d4ced0c005b164c0f789fd09fcbb0156d4c2041b8a3bfbcd961cd1567f"
          ],
          "data": "0x00000000000000000000000000000000000000000000000000000000000000600000000000000000000000000000000000000000000000000000000000000120000000000000000000000000b5320b0b3a13cc860893e2bd79fcd7e13484dda20000000000000000000000000000000000000000000000000000000000000099010000000000000002000075e8000000000000000000000000909dbde1ebe906af95660033e478d59efe831fed0000763400000000000000000000000080eede496655fb9047dd39d9f418d5483ed600df057fd717f45245e924676d68305e93158b0e27e1739b18598ea5a726fee4b464000000000000000000000000b0e1650a9760e0f383174af042091fc544b8356f000000000000000100000000000000000000000000000000000000000000000000000000000000000000000000001600030100110100000000000000000000000000030d4000000000000000000000",
          "blockHash": "0x00b5083c400a51f99a01e20793b3a2c268b9a7789d6c94f8185c74f5c14362b0",
          "blockNumber": "0xf9c030",
          "transactionHash": "0x599b0df35006a3742418ad1bfa8883886e2fff72f1cb56362b630ee7a8068834",
          "transactionIndex": "0x3f",
          "logIndex": "0xb9",
          "removed": false
        },
        {
          "address": "0x909dbde1ebe906af95660033e478d59efe831fed",
          "topics": [
            "0x85496b760a4b7f8d66384b9df21b381f5d1b1e79f229a47aaf4c232edc2fe59a",
            "0x057fd717f45245e924676d68305e93158b0e27e1739b18598ea5a726fee4b464",
            "0x000000000000000000000000b0e1650a9760e0f383174af042091fc544b8356f"
          ],
          "data": "0x0000000000000000000000000000000000000000000000000000000000007634000000000000000000000000000000000000000000000000000000e8d4a51000000000000000000000000000000000000000000000000000000000e8d4a51000",
          "blockHash": "0x00b5083c400a51f99a01e20793b3a2c268b9a7789d6c94f8185c74f5c14362b0",
          "blockNumber": "0xf9c030",
          "transactionHash": "0x599b0df35006a3742418ad1bfa8883886e2fff72f1cb56362b630ee7a8068834",
          "transactionIndex": "0x3f",
          "logIndex": "0xba",
          "removed": false
        }
      ],
      "logsBloom": "0x00000000000000000000000002000000000000000000000000000000001000000000000000000000000000000000000000000000002001000000000000000000000002000000000000000408000000000000000000000000000000000000000100000000020000008002000000000800000000000110080000000010000000000000000000100000000000080000000000000000000000000004000000000000000000008000000000100000000000020000000000400000000440000000000000000002000000000000000080000000000000000000000000000000000020000000040080000000000000000000002000000000018000000000000000000000",
      "type": "0x2",
      "transactionHash": "0x599b0df35006a3742418ad1bfa8883886e2fff72f1cb56362b630ee7a8068834",
      "transactionIndex": "0x3f",
      "blockHash": "0x00b5083c400a51f99a01e20793b3a2c268b9a7789d6c94f8185c74f5c14362b0",
      "blockNumber": "0xf9c030",
      "gasUsed": "0x3fd6a",
      "effectiveGasPrice": "0x83793a",
      "from": "0xb0e1650a9760e0f383174af042091fc544b8356f",
      "to": "0x909dbde1ebe906af95660033e478d59efe831fed",
      "contractAddress": null,
      "l1BaseFeeScalar": "0x58a",
      "l1BlobBaseFee": "0x2",
      "l1BlobBaseFeeScalar": "0xa118b",
      "l1Fee": "0x87655c576",
      "l1GasPrice": "0x148f87dcd",
      "l1GasUsed": "0x1224"
    }
  ],
  "libraries": [],
  "pending": [],
  "returns": {},
  "timestamp": 1719524675,
  "chain": 8453,
  "commit": "8c3a4d2"
}