{
  "transactions": [
    {
      "hash": "0xed33a69a81ab8674246f53c3ee74795d720559a9cf7fdca52a4dc26f4d0b0a06",
      "transactionType": "CALL",
      "contractName": null,
      "contractAddress": "0x23432452b720c80553458496d4d9d7c5003280d0",
      "function": "send((uint32,bytes32,uint256,uint256,bytes,bytes,bytes),(uint256,uint256),address)",
      "arguments": [
        "(30101, 0x000000000000000000000000b0e1650a9760e0f383174af042091fc544b8356f, 10000000000000, 10000000000000, 0x0003, 0x, 0x)",
        "(736090784940640, 0)",
        "0xb0E1650A9760e0f383174af042091fc544b8356f"
      ],
      "transaction": {
        "from": "0xb0e1650a9760e0f383174af042091fc544b8356f",
        "to": "0x23432452b720c80553458496d4d9d7c5003280d0",
        "gas": "0x5826d",
        "value": "0x29d787dc24260",
        "input": "0xc7c7f5b3000000000000000000000000000000000000000000000000000000000000008000000000000000000000000000000000000000000000000000029d787dc242600000000000000000000000000000000000000000000000000000000000000000000000000000000000000000b0e1650a9760e0f383174af042091fc544b8356f0000000000000000000000000000000000000000000000000000000000007595000000000000000000000000b0e1650a9760e0f383174af042091fc544b8356f000000000000000000000000000000000000000000000000000009184e72a000000000000000000000000000000000000000000000000000000009184e72a00000000000000000000000000000000000000000000000000000000000000000e0000000000000000000000000000000000000000000000000000000000000012000000000000000000000000000000000000000000000000000000000000001400000000000000000000000000000000000000000000000000000000000000002000300000000000000000000000000000000000000000000000000000000000000000000000000000000000000000000000000000000000000000000000000000000000000000000000000000000000000000000000000000000000000000000",
        "nonce": "0x5",
        "chainId": "0x2105"
      },
      "additionalContracts": [],
      "isFixedGasLimit": false
    },
    {
      "hash": "0xb493a3e7056dfb7a328d65c15568d58df332dc0c5ca56b6648f6f68e06ac2387",
      "transactionType": "CALL",
      "contractName": null,
      "contractAddress": "0xe4796ccb6bb5de2290c417ac337f2b66ca2e770e",
      "function": "send((uint32,bytes32,uint256,uint256,bytes,bytes,bytes),(uint256,uint256),address)",
      "arguments": [
        "(30101, 0x000000000000000000000000b0e1650a9760e0f383174af042091fc544b8356f, 10000000000000, 10000000000000, 0x0003, 0x, 0x)",
        "(736090784940640, 0)",
        "0xb0E1650A9760e0f383174af042091fc544b8356f"
      ],
      "transaction": {
        "from": "0xb0e1650a9760e0f383174af042091fc544b8356f",
        "to": "0xe4796ccb6bb5de2290c417ac337f2b66ca2e770e",
        "gas": "0x5826d",
        "value": "0x29d787dc24260",
        "input": "0xc7c7f5b3000000000000000000000000000000000000000000000000000000000000008000000000000000000000000000000000000000000000000000029d787dc242600000000000000000000000000000000000000000000000000000000000000000000000000000000000000000b0e1650a9760e0f383174af042091fc544b8356f0000000000000000000000000000000000000000000000000000000000007595000000000000000000000000b0e1650a9760e0f383174af042091fc544b8356f000000000000000000000000000000000000000000000000000009184e72a000000000000000000000000000000000000000000000000000000009184e72a00000000000000000000000000000000000000000000000000000000000000000e0000000000000000000000000000000000000000000000000000000000000012000000000000000000000000000000000000000000000000000000000000001400000000000000000000000000000000000000000000000000000000000000002000300000000000000000000000000000000000000000000000000000000000000000000000000000000000000000000000000000000000000000000000000000000000000000000000000000000000000000000000000000000000000000000",
        "nonce": "0x6",
        "chainId": "0x2105"
      },
      "additionalContracts": [],
      "isFixedGasLimit": false
    },
    {
      "hash": "0xcf6c093100354bc164c098e7f8465125097702ed969029ee0df315041a7476fb",
      "transactionType": "CALL",
      "contractName": null,
      "contractAddress": "0x1f55a02a049033e3419a8e2975cf3f572f4e6e9a",
      "function": "send((uint32,bytes32,uint256,uint256,bytes,bytes,bytes),(uint256,uint256),address)",
      "arguments": [
        "(30101, 0x000000000000000000000000b0e1650a9760e0f383174af042091fc544b8356f, 10000000000000, 10000000000000, 0x0003, 0x, 0x)",
        "(736090784940640, 0)",
        "0xb0E1650A9760e0f383174af042091fc544b8356f"
      ],
      "transaction": {
        "from": "0xb0e1650a9760e0f383174af042091fc544b8356f",
        "to": "0x1f55a02a049033e3419a8e2975cf3f572f4e6e9a",
        "gas": "0x5826d",
        "value": "0x29d787dc24260",
        "input": "0xc7c7f5b3000000000000000000000000000000000000000000000000000000000000008000000000000000000000000000000000000000000000000000029d787dc242600000000000000000000000000000000000000000000000000000000000000000000000000000000000000000b0e1650a9760e0f383174af042091fc544b8356f0000000000000000000000000000000000000000000000000000000000007595000000000000000000000000b0e1650a9760e0f383174af042091fc544b8356f000000000000000000000000000000000000000000000000000009184e72a000000000000000000000000000000000000000000000000000000009184e72a00000000000000000000000000000000000000000000000000000000000000000e0000000000000000000000000000000000000000000000000000000000000012000000000000000000000000000000000000000000000000000000000000001400000000000000000000000000000000000000000000000000000000000000002000300000000000000000000000000000000000000000000000000000000000000000000000000000000000000000000000000000000000000000000000000000000000000000000000000000000000000000000000000000000000000000000",
        "nonce": "0x7",
        "chainId": "0x2105"
      },
      "additionalContracts": [],
      "isFixedGasLimit": false
    },
    {
      "hash": "0x3efdd7b13992cf9af61874b3cd0d2e5344d220f0e38fb4f99d9f998f77f2e7a5",
      "transactionType": "CALL",
      "contractName": null,
      "contractAddress": "0x909dbde1ebe906af95660033e478d59efe831fed",
      "function": "send((uint32,bytes32,uint256,uint256,bytes,bytes,bytes),(uint256,uint256),address)",
      "arguments": [
        "(30101, 0x000000000000000000000000b0e1650a9760e0f383174af042091fc544b8356f, 10000000000000, 10000000000000, 0x0003, 0x, 0x)",
        "(736090784940640, 0)",
        "0xb0E1650A9760e0f383174af042091fc544b8356f"
      ],
      "transaction": {
        "from": "0xb0e1650a9760e0f383174af042091fc544b8356f",
        "to": "0x909dbde1ebe906af95660033e478d59efe831fed",
        "gas": "0x5deb0",
        "value": "0x29d787dc24260",
        "input": "0xc7c7f5b3000000000000000000000000000000000000000000000000000000000000008000000000000000000000000000000000000000000000000000029d787dc242600000000000000000000000000000000000000000000000000000000000000000000000000000000000000000b0e1650a9760e0f383174af042091fc544b8356f0000000000000000000000000000000000000000000000000000000000007595000000000000000000000000b0e1650a9760e0f383174af042091fc544b8356f000000000000000000000000000000000000000000000000000009184e72a000000000000000000000000000000000000000000000000000000009184e72a00000000000000000000000000000000000000000000000000000000000000000e0000000000000000000000000000000000000000000000000000000000000012000000000000000000000000000000000000000000000000000000000000001400000000000000000000000000000000000000000000000000000000000000002000300000000000000000000000000000000000000000000000000000000000000000000000000000000000000000000000000000000000000000000000000000000000000000000000000000000000000000000000000000000000000000000",
        "nonce": "0x8",
        "chainId": "0x2105"
      },
      "additionalContracts": [],
      "isFixedGasLimit": false
    },
    {
      "hash": "0x873452014a05d5d2c208ea8719f587573e80842d0b6cd402419d4383e05aa9cb",
      "transactionType": "CALL",
      "contractName": null,
      "contractAddress": "0x23432452b720c80553458496d4d9d7c5003280d0",
      "function": "send((uint32,bytes32,uint256,uint256,bytes,bytes,bytes),(uint256,uint256),address)",
      "arguments": [
        "(30243, 0x000000000000000000000000b0e1650a9760e0f383174af042091fc544b8356f, 10000000000000, 10000000000000, 0x0003, 0x, 0x)",
        "(186213590043994, 0)",
        "0xb0E1650A9760e0f383174af042091fc544b8356f"
      ],
      "transaction": {
        "from": "0xb0e1650a9760e0f383174af042091fc544b8356f",
        "to": "0x23432452b720c80553458496d4d9d7c5003280d0",
        "gas": "0x5fc1d",
        "value": "0xa95c3ae30d5a",
        "input": "0xc7c7f5b300000000000000000000000000000000000000000000000000000000000000800000000000000000000000000000000000000000000000000000a95c3ae30d5a0000000000000000000000000000000000000000000000000000000000000000000000000000000000000000b0e1650a9760e0f383174af042091fc544b8356f0000000000000000000000000000000000000000000000000000000000007623000000000000000000000000b0e1650a9760e0f383174af042091fc544b8356f000000000000000000000000000000000000000000000000000009184e72a000000000000000000000000000000000000000000000000000000009184e72a00000000000000000000000000000000000000000000000000000000000000000e0000000000000000000000000000000000000000000000000000000000000012000000000000000000000000000000000000000000000000000000000000001400000000000000000000000000000000000000000000000000000000000000002000300000000000000000000000000000000000000000000000000000000000000000000000000000000000000000000000000000000000000000000000000000000000000000000000000000000000000000000000000000000000000000000",
        "nonce": "0x9",
        "chainId": "0x2105"
      },
      "additionalContracts": [],
      "isFixedGasLimit": false
    },
    {
      "hash": "0x157a06e83f04112056c06b13bd535cd72b0de9ed02f3862265ffd8c1f33bac55",
      "transactionType": "CALL",
      "contractName": null,
      "contractAddress": "0xe4796ccb6bb5de2290c417ac337f2b66ca2e770e",
      "function": "send((uint32,bytes32,uint256,uint256,bytes,bytes,bytes),(uint256,uint256),address)",
      "arguments": [
        "(30243, 0x000000000000000000000000b0e1650a9760e0f383174af042091fc544b8356f, 10000000000000, 10000000000000, 0x0003, 0x, 0x)",
        "(186213590043994, 0)",
        "0xb0E1650A9760e0f383174af042091fc544b8356f"
      ],
      "transaction": {
        "from": "0xb0e1650a9760e0f383174af042091fc544b8356f",
        "to": "0xe4796ccb6bb5de2290c417ac337f2b66ca2e770e",
        "gas": "0x5fc1d",
        "value": "0xa95c3ae30d5a",
        "input": "0xc7c7f5b300000000000000000000000000000000000000000000000000000000000000800000000000000000000000000000000000000000000000000000a95c3ae30d5a0000000000000000000000000000000000000000000000000000000000000000000000000000000000000000b0e1650a9760e0f383174af042091fc544b8356f0000000000000000000000000000000000000000000000000000000000007623000000000000000000000000b0e1650a9760e0f383174af042091fc544b8356f000000000000000000000000000000000000000000000000000009184e72a000000000000000000000000000000000000000000000000000000009184e72a00000000000000000000000000000000000000000000000000000000000000000e0000000000000000000000000000000000000000000000000000000000000012000000000000000000000000000000000000000000000000000000000000001400000000000000000000000000000000000000000000000000000000000000002000300000000000000000000000000000000000000000000000000000000000000000000000000000000000000000000000000000000000000000000000000000000000000000000000000000000000000000000000000000000000000000000",
        "nonce": "0xa",
        "chainId": "0x2105"
      },
      "additionalContracts": [],
      "isFixedGasLimit": false
    },
    {
      "hash": "0x74f2b90402d1d7ff8da79b47f9242ba5b3827ccf2999d1e4bb4a4ff90b5c089d",
      "transactionType": "CALL",
      "contractName": null,
      "contractAddress": "0x1f55a02a049033e3419a8e2975cf3f572f4e6e9a",
      "function": "send((uint32,bytes32,uint256,uint256,bytes,bytes,bytes),(uint256,uint256),address)",
      "arguments": [
        "(30243, 0x000000000000000000000000b0e1650a9760e0f383174af042091fc544b8356f, 10000000000000, 10000000000000, 0x0003, 0x, 0x)",
        "(186213590043994, 0)",
        "0xb0E1650A9760e0f383174af042091fc544b8356f"
      ],
      "transaction": {
        "from": "0xb0e1650a9760e0f383174af042091fc544b8356f",
        "to": "0x1f55a02a049033e3419a8e2975cf3f572f4e6e9a",
        "gas": "0x5fc1d",
        "value": "0xa95c3ae30d5a",
        "input": "0xc7c7f5b300000000000000000000000000000000000000000000000000000000000000800000000000000000000000000000000000000000000000000000a95c3ae30d5a0000000000000000000000000000000000000000000000000000000000000000000000000000000000000000b0e1650a9760e0f383174af042091fc544b8356f0000000000000000000000000000000000000000000000000000000000007623000000000000000000000000b0e1650a9760e0f383174af042091fc544b8356f000000000000000000000000000000000000000000000000000009184e72a000000000000000000000000000000000000000000000000000000009184e72a00000000000000000000000000000000000000000000000000000000000000000e0000000000000000000000000000000000000000000000000000000000000012000000000000000000000000000000000000000000000000000000000000001400000000000000000000000000000000000000000000000000000000000000002000300000000000000000000000000000000000000000000000000000000000000000000000000000000000000000000000000000000000000000000000000000000000000000000000000000000000000000000000000000000000000000000",
        "nonce": "0xb",
        "chainId": "0x2105"
      },
      "additionalContracts": [],
      "isFixedGasLimit": false
    },
    {
      "hash": "0xb5a8ef0ebccaad0b4203729b11abc4c36444ea913d09bc4904a2b1dc3f1bbc04",
      "transactionType": "CALL",
      "contractName": null,
      "contractAddress": "0x909dbde1ebe906af95660033e478d59efe831fed",
      "function": "send((uint32,bytes32,uint256,uint256,bytes,bytes,bytes),(uint256,uint256),address)",
      "arguments": [
        "(30243, 0x000000000000000000000000b0e1650a9760e0f383174af042091fc544b8356f, 10000000000000, 10000000000000, 0x0003, 0x, 0x)",
        "(186213590043994, 0)",
        "0xb0E1650A9760e0f383174af042091fc544b8356f"
      ],
      "transaction": {
        "from": "0xb0e1650a9760e0f383174af042091fc544b8356f",
        "to": "0x909dbde1ebe906af95660033e478d59efe831fed",
        "gas": "0x60342",
        "value": "0xa95c3ae30d5a",
        "input": "0xc7c7f5b300000000000000000000000000000000000000000000000000000000000000800000000000000000000000000000000000000000000000000000a95c3ae30d5a0000000000000000000000000000000000000000000000000000000000000000000000000000000000000000b0e1650a9760e0f383174af042091fc544b8356f0000000000000000000000000000000000000000000000000000000000007623000000000000000000000000b0e1650a9760e0f383174af042091fc544b8356f000000000000000000000000000000000000000000000000000009184e72a000000000000000000000000000000000000000000000000000000009184e72a00000000000000000000000000000000000000000000000000000000000000000e0000000000000000000000000000000000000000000000000000000000000012000000000000000000000000000000000000000000000000000000000000001400000000000000000000000000000000000000000000000000000000000000002000300000000000000000000000000000000000000000000000000000000000000000000000000000000000000000000000000000000000000000000000000000000000000000000000000000000000000000000000000000000000000000000",
        "nonce": "0xc",
        "chainId": "0x2105"
      },
      "additionalContracts": [],
      "isFixedGasLimit": false
    },
    {
      "hash": "0x17d2be6a3087a8888b8b395053f4f76925cac609aad00fafd8a735a557a1042c",
      "transactionType": "CALL",
      "contractName": null,
      "contractAddress": "0x23432452b720c80553458496d4d9d7c5003280d0",
      "function": "send((uint32,bytes32,uint256,uint256,bytes,bytes,bytes),(uint256,uint256),address)",
      "arguments": [
        "(30151, 0x000000000000000000000000b0e1650a9760e0f383174af042091fc544b8356f, 10000000000000, 10000000000000, 0x0003, 0x, 0x)",
        "(87846360562911, 0)",
        "0xb0E1650A9760e0f383174af042091fc544b8356f"
      ],
      "transaction": {
        "from": "0xb0e1650a9760e0f383174af042091fc544b8356f",
        "to": "0x23432452b720c80553458496d4d9d7c5003280d0",
        "gas": "0x5d5f4",
        "value": "0x4fe5531dbcdf",
        "input": "0xc7c7f5b3000000000000000000000000000000000000000000000000000000000000008000000000000000000000000000000000000000000000000000004fe5531dbcdf0000000000000000000000000000000000000000000000000000000000000000000000000000000000000000b0e1650a9760e0f383174af042091fc544b8356f00000000000000000000000000000000000000000000000000000000000075c7000000000000000000000000b0e1650a9760e0f383174af042091fc544b8356f000000000000000000000000000000000000000000000000000009184e72a000000000000000000000000000000000000000000000000000000009184e72a00000000000000000000000000000000000000000000000000000000000000000e0000000000000000000000000000000000000000000000000000000000000012000000000000000000000000000000000000000000000000000000000000001400000000000000000000000000000000000000000000000000000000000000002000300000000000000000000000000000000000000000000000000000000000000000000000000000000000000000000000000000000000000000000000000000000000000000000000000000000000000000000000000000000000000000000",
        "nonce": "0xd",
        "chainId": "0x2105"
      },
      "additionalContracts": [],
      "isFixedGasLimit": false
    },
    {
      "hash": "0x301796fb6df1636f08bcf1088c0842c39ae32f0d14678efa4e275f0321eba321",
      "transactionType": "CALL",
      "contractName": null,
      "contractAddress": "0xe4796ccb6bb5de2290c417ac337f2b66ca2e770e",
      "function": "send((uint32,bytes32,uint256,uint256,bytes,bytes,bytes),(uint256,uint256),address)",
      "arguments": [
        "(30151, 0x000000000000000000000000b0e1650a9760e0f383174af042091fc544b8356f, 10000000000000, 10000000000000, 0x0003, 0x, 0x)",
        "(87846360562911, 0)",
        "0xb0E1650A9760e0f383174af042091fc544b8356f"
      ],
      "transaction": {
        "from": "0xb0e1650a9760e0f383174af042091fc544b8356f",
        "to": "0xe4796ccb6bb5de2290c417ac337f2b66ca2e770e",
        "gas": "0x5d5f4",
        "value": "0x4fe5531dbcdf",
        "input": "0xc7c7f5b3000000000000000000000000000000000000000000000000000000000000008000000000000000000000000000000000000000000000000000004fe5531dbcdf0000000000000000000000000000000000000000000000000000000000000000000000000000000000000000b0e1650a9760e0f383174af042091fc544b8356f00000000000000000000000000000000000000000000000000000000000075c7000000000000000000000000b0e1650a9760e0f383174af042091fc544b8356f000000000000000000000000000000000000000000000000000009184e72a000000000000000000000000000000000000000000000000000000009184e72a00000000000000000000000000000000000000000000000000000000000000000e0000000000000000000000000000000000000000000000000000000000000012000000000000000000000000000000000000000000000000000000000000001400000000000000000000000000000000000000000000000000000000000000002000300000000000000000000000000000000000000000000000000000000000000000000000000000000000000000000000000000000000000000000000000000000000000000000000000000000000000000000000000000000000000000000",
        "nonce": "0xe",
        "chainId": "0x2105"
      },
      "additionalContracts": [],
      "isFixedGasLimit": false
    },
    {
      "hash": "0x4848540824e5d63822c03605a996c9f375794a246a1a5af803e5599c79ce2809",
      "transactionType": "CALL",
      "contractName": null,
      "contractAddress": "0x1f55a02a049033e3419a8e2975cf3f572f4e6e9a",
      "function": "send((uint32,bytes32,uint256,uint256,bytes,bytes,bytes),(uint256,uint256),address)",
      "arguments": [
        "(30151, 0x000000000000000000000000b0e1650a9760e0f383174af042091fc544b8356f, 10000000000000, 10000000000000, 0x0003, 0x, 0x)",
        "(87846360562911, 0)",
        "0xb0E1650A9760e0f383174af042091fc544b8356f"
      ],
      "transaction": {
        "from": "0xb0e1650a9760e0f383174af042091fc544b8356f",
        "to": "0x1f55a02a049033e3419a8e2975cf3f572f4e6e9a",
        "gas": "0x5d5f4",
        "value": "0x4fe5531dbcdf",
        "input": "0xc7c7f5b3000000000000000000000000000000000000000000000000000000000000008000000000000000000000000000000000000000000000000000004fe5531dbcdf0000000000000000000000000000000000000000000000000000000000000000000000000000000000000000b0e1650a9760e0f383174af042091fc544b8356f00000000000000000000000000000000000000000000000000000000000075c7000000000000000000000000b0e1650a9760e0f383174af042091fc544b8356f000000000000000000000000000000000000000000000000000009184e72a000000000000000000000000000000000000000000000000000000009184e72a00000000000000000000000000000000000000000000000000000000000000000e0000000000000000000000000000000000000000000000000000000000000012000000000000000000000000000000000000000000000000000000000000001400000000000000000000000000000000000000000000000000000000000000002000300000000000000000000000000000000000000000000000000000000000000000000000000000000000000000000000000000000000000000000000000000000000000000000000000000000000000000000000000000000000000000000",
        "nonce": "0xf",
        "chainId": "0x2105"
      },
      "additionalContracts": [],
      "isFixedGasLimit": false
    },
    {
      "hash": "0x3b185425555711f6757ce50e8cf8a1231bfceaf20ef95d45cc5d7facfa924995",
      "transactionType": "CALL",
      "contractName": null,
      "contractAddress": "0x909dbde1ebe906af95660033e478d59efe831fed",
      "function": "send((uint32,bytes32,uint256,uint256,bytes,bytes,bytes),(uint256,uint256),address)",
      "arguments": [
        "(30151, 0x000000000000000000000000b0e1650a9760e0f383174af042091fc544b8356f, 10000000000000, 10000000000000, 0x0003, 0x, 0x)",
        "(87846360562911, 0)",
        "0xb0E1650A9760e0f383174af042091fc544b8356f"
      ],
      "transaction": {
        "from": "0xb0e1650a9760e0f383174af042091fc544b8356f",
        "to": "0x909dbde1ebe906af95660033e478d59efe831fed",
        "gas": "0x5d5f4",
        "value": "0x4fe5531dbcdf",
        "input": "0xc7c7f5b3000000000000000000000000000000000000000000000000000000000000008000000000000000000000000000000000000000000000000000004fe5531dbcdf0000000000000000000000000000000000000000000000000000000000000000000000000000000000000000b0e1650a9760e0f383174af042091fc544b8356f00000000000000000000000000000000000000000000000000000000000075c7000000000000000000000000b0e1650a9760e0f383174af042091fc544b8356f000000000000000000000000000000000000000000000000000009184e72a000000000000000000000000000000000000000000000000000000009184e72a00000000000000000000000000000000000000000000000000000000000000000e0000000000000000000000000000000000000000000000000000000000000012000000000000000000000000000000000000000000000000000000000000001400000000000000000000000000000000000000000000000000000000000000002000300000000000000000000000000000000000000000000000000000000000000000000000000000000000000000000000000000000000000000000000000000000000000000000000000000000000000000000000000000000000000000000",
        "nonce": "0x10",
        "chainId": "0x2105"
      },
      "additionalContracts": [],
      "isFixedGasLimit": false
    },
    {
      "hash": "0x8be9ee234e0bed0592ee771abd733b00f1a1bca5e3106a1c9676ed3358bd7873",
      "transactionType": "CALL",
      "contractName": null,
      "contractAddress": "0x23432452b720c80553458496d4d9d7c5003280d0",
      "function": "send((uint32,bytes32,uint256,uint256,bytes,bytes,bytes),(uint256,uint256),address)",
      "arguments": [
        "(30260, 0x000000000000000000000000b0e1650a9760e0f383174af042091fc544b8356f, 10000000000000, 10000000000000, 0x0003, 0x, 0x)",
        "(9307274903933, 0)",
        "0xb0E1650A9760e0f383174af042091fc544b8356f"
      ],
      "transaction": {
        "from": "0xb0e1650a9760e0f383174af042091fc544b8356f",
        "to": "0x23432452b720c80553458496d4d9d7c5003280d0",
        "gas": "0x5d5f4",
        "value": "0x87704d0817d",
        "input": "0xc7c7f5b300000000000000000000000000000000000000000000000000000000000000800000000000000000000000000000000000000000000000000000087704d0817d0000000000000000000000000000000000000000000000000000000000000000000000000000000000000000b0e1650a9760e0f383174af042091fc544b8356f0000000000000000000000000000000000000000000000000000000000007634000000000000000000000000b0e1650a9760e0f383174af042091fc544b8356f000000000000000000000000000000000000000000000000000009184e72a000000000000000000000000000000000000000000000000000000009184e72a00000000000000000000000000000000000000000000000000000000000000000e0000000000000000000000000000000000000000000000000000000000000012000000000000000000000000000000000000000000000000000000000000001400000000000000000000000000000000000000000000000000000000000000002000300000000000000000000000000000000000000000000000000000000000000000000000000000000000000000000000000000000000000000000000000000000000000000000000000000000000000000000000000000000000000000000",
        "nonce": "0x11",
        "chainId": "0x2105"
      },
      "additionalContracts": [],
      "isFixedGasLimit": false
    },
    {
      "hash": "0x3533e4fdd26fdb73fc55337a8dfdcc5b3fd45cfb421126632a4473bcb57b4ca7",
      "transactionType": "CALL",
      "contractName": null,
      "contractAddress": "0xe4796ccb6bb5de2290c417ac337f2b66ca2e770e",
      "function": "send((uint32,bytes32,uint256,uint256,bytes,bytes,bytes),(uint256,uint256),address)",
      "arguments": [
        "(30260, 0x000000000000000000000000b0e1650a9760e0f383174af042091fc544b8356f, 10000000000000, 10000000000000, 0x0003, 0x, 0x)",
        "(9307274903933, 0)",
        "0xb0E1650A9760e0f383174af042091fc544b8356f"
      ],
      "transaction": {
        "from": "0xb0e1650a9760e0f383174af042091fc544b8356f",
        "to": "0xe4796ccb6bb5de2290c417ac337f2b66ca2e770e",
        "gas": "0x5d5f4",
        "value": "0x87704d0817d",
        "input": "0xc7c7f5b300000000000000000000000000000000000000000000000000000000000000800000000000000000000000000000000000000000000000000000087704d0817d0000000000000000000000000000000000000000000000000000000000000000000000000000000000000000b0e1650a9760e0f383174af042091fc544b8356f0000000000000000000000000000000000000000000000000000000000007634000000000000000000000000b0e1650a9760e0f383174af042091fc544b8356f000000000000000000000000000000000000000000000000000009184e72a000000000000000000000000000000000000000000000000000000009184e72a00000000000000000000000000000000000000000000000000000000000000000e0000000000000000000000000000000000000000000000000000000000000012000000000000000000000000000000000000000000000000000000000000001400000000000000000000000000000000000000000000000000000000000000002000300000000000000000000000000000000000000000000000000000000000000000000000000000000000000000000000000000000000000000000000000000000000000000000000000000000000000000000000000000000000000000000",
        "nonce": "0x12",
        "chainId": "0x2105"
      },
      "additionalContracts": [],
      "isFixedGasLimit": false
    },
    {
      "hash": "0x064def9e4e99138e404959aec50a9a9fcde3d6127c3df70ce6edf79bbd93dde3",
      "transactionType": "CALL",
      "contractName": null,
      "contractAddress": "0x1f55a02a049033e3419a8e2975cf3f572f4e6e9a",
      "function": "send((uint32,bytes32,uint256,uint256,bytes,bytes,bytes),(uint256,uint256),address)",
      "arguments": [
        "(30260, 0x000000000000000000000000b0e1650a9760e0f383174af042091fc544b8356f, 10000000000000, 10000000000000, 0x0003, 0x, 0x)",
        "(9307274903933, 0)",
        "0xb0E1650A9760e0f383174af042091fc544b8356f"
      ],
      "transaction": {
        "from": "0xb0e1650a9760e0f383174af042091fc544b8356f",
        "to": "0x1f55a02a049033e3419a8e2975cf3f572f4e6e9a",
        "gas": "0x5d5f4",
        "value": "0x87704d0817d",
        "input": "0xc7c7f5b300000000000000000000000000000000000000000000000000000000000000800000000000000000000000000000000000000000000000000000087704d0817d0000000000000000000000000000000000000000000000000000000000000000000000000000000000000000b0e1650a9760e0f383174af042091fc544b8356f0000000000000000000000000000000000000000000000000000000000007634000000000000000000000000b0e1650a9760e0f383174af042091fc544b8356f000000000000000000000000000000000000000000000000000009184e72a000000000000000000000000000000000000000000000000000000009184e72a00000000000000000000000000000000000000000000000000000000000000000e0000000000000000000000000000000000000000000000000000000000000012000000000000000000000000000000000000000000000000000000000000001400000000000000000000000000000000000000000000000000000000000000002000300000000000000000000000000000000000000000000000000000000000000000000000000000000000000000000000000000000000000000000000000000000000000000000000000000000000000000000000000000000000000000000",
        "nonce": "0x13",
        "chainId": "0x2105"
      },
      "additionalContracts": [],
      "isFixedGasLimit": false
    },
    {
      "hash": "0x0beb6c537d7501ee4b00755e5f247b407aa02cfffb4223725dc71d3006cb4ee3",
      "transactionType": "CALL",
      "contractName": null,
      "contractAddress": "0x909dbde1ebe906af95660033e478d59efe831fed",
      "function": "send((uint32,bytes32,uint256,uint256,bytes,bytes,bytes),(uint256,uint256),address)",
      "arguments": [
        "(30260, 0x000000000000000000000000b0e1650a9760e0f383174af042091fc544b8356f, 10000000000000, 10000000000000, 0x0003, 0x, 0x)",
        "(9307274903933, 0)",
        "0xb0E1650A9760e0f383174af042091fc544b8356f"
      ],
      "transaction": {
        "from": "0xb0e1650a9760e0f383174af042091fc544b8356f",
        "to": "0x909dbde1ebe906af95660033e478d59efe831fed",
        "gas": "0x5d5f4",
        "value": "0x87704d0817d",
        "input": "0xc7c7f5b300000000000000000000000000000000000000000000000000000000000000800000000000000000000000000000000000000000000000000000087704d0817d0000000000000000000000000000000000000000000000000000000000000000000000000000000000000000b0e1650a9760e0f383174af042091fc544b8356f0000000000000000000000000000000000000000000000000000000000007634000000000000000000000000b0e1650a9760e0f383174af042091fc544b8356f000000000000000000000000000000000000000000000000000009184e72a000000000000000000000000000000000000000000000000000000009184e72a00000000000000000000000000000000000000000000000000000000000000000e0000000000000000000000000000000000000000000000000000000000000012000000000000000000000000000000000000000000000000000000000000001400000000000000000000000000000000000000000000000000000000000000002000300000000000000000000000000000000000000000000000000000000000000000000000000000000000000000000000000000000000000000000000000000000000000000000000000000000000000000000000000000000000000000000",
        "nonce": "0x14",
        "chainId": "0x2105"
      },
      "additionalContracts": [],
      "isFixedGasLimit": false
    }
  ],
  "receipts": [
    {
      "status": "0x1",
      "cumulativeGasUsed": "0xd2a4d0",
      "logs": [
        {
          "address": "0x23432452b720c80553458496d4d9d7c5003280d0",
          "topics": [
            "0xddf252ad1be2c89b69c2b068fc378daa952ba7f163c4a11628f55a4df523b3ef",
            "0x000000000000000000000000b0e1650a9760e0f383174af042091fc544b8356f",
            "0x0000000000000000000000000000000000000000000000000000000000000000"
          ],
          "data": "0x000000000000000000000000000000000000000000000000000009184e72a000",
          "blockHash": "0x027ebf81f910110e831400c68deeda443efb01f66a31a08722d79daf1ba163ca",
          "blockNumber": "0xfa7a86",
          "transactionHash": "0xed33a69a81ab8674246f53c3ee74795d720559a9cf7fdca52a4dc26f4d0b0a06",
          "transactionIndex": "0x51",
          "logIndex": "0xf5",
          "removed": false
        },
        {
          "address": "0xb5320b0b3a13cc860893e2bd79fcd7e13484dda2",
          "topics": [
            "0x61ed099e74a97a1d7f8bb0952a88ca8b7b8ebd00c126ea04671f92a81213318a"
          ],
          "data": "0x0000000000000000000000002cca08ae69e0c44b18a57ab2a87644234daebae40000000000000000000000000000000000000000000000000001acd3eb477040",
          "blockHash": "0x027ebf81f910110e831400c68deeda443efb01f66a31a08722d79daf1ba163ca",
          "blockNumber": "0xfa7a86",
          "transactionHash": "0xed33a69a81ab8674246f53c3ee74795d720559a9cf7fdca52a4dc26f4d0b0a06",
          "transactionIndex": "0x51",
          "logIndex": "0xf6",
          "removed": false
        },
        {
          "address": "0xb5320b0b3a13cc860893e2bd79fcd7e13484dda2",
          "topics": [
            "0x07ea52d82345d6e838192107d8fd7123d9c2ec8e916cd0aad13fd2b60db24644"
          ],
          "data": "0x000000000000000000000000000000000000000000000000000000000000006000000000000000000000000000000000000000000000000000000000000000c000000000000000000000000000000000000000000000000000000000000000e000000000000000000000000000000000000000000000000000000000000000020000000000000000000000009e059a54699a285714207b43b055483e78faac25000000000000000000000000a7b5189bca84cd304d8553977c7c614329750d990000000000000000000000000000000000000000000000000000000000000000000000000000000000000000000000000000000000000000000000000000000200000000000000000000000000000000000000000000000000007852493d691000000000000000000000000000000000000000000000000000007852493d6910",
          "blockHash": "0x027ebf81f910110e831400c68deeda443efb01f66a31a08722d79daf1ba163ca",
          "blockNumber": "0xfa7a86",
          "transactionHash": "0xed33a69a81ab8674246f53c3ee74795d720559a9cf7fdca52a4dc26f4d0b0a06",
          "transactionIndex": "0x51",
          "logIndex": "0xf7",
          "removed": false
        },
        {
          "address": "0x1a44076050125825900e736c501f859c50fe728c",
          "topics": [
            "0x1ab700d4ced0c005b164c0f789fd09fcbb0156d4c2041b8a3bfbcd961cd1567f"
          ],
          "data": "0x00000000000000000000000000000000000000000000000000000000000000600000000000000000000000000000000000000000000000000000000000000120000000000000000000000000b5320b0b3a13cc860893e2bd79fcd7e13484dda20000000000000000000000000000000000000000000000000000000000000099010000000000000020000075e800000000000000000000000023432452b720c80553458496d4d9d7c5003280d00000759500000000000000000000000023432452b720c80553458496d4d9d7c5003280d0a624b945fa96dca9aecd9e395cb44a17040b61e09c212c4602ceaac057ff1572000000000000000000000000b0e1650a9760e0f383174af042091fc544b8356f000000000000000a00000000000000000000000000000000000000000000000000000000000000000000000000001600030100110100000000000000000000000000030d4000000000000000000000",
          "blockHash": "0x027ebf81f910110e831400c68deeda443efb01f66a31a08722d79daf1ba163ca",
          "blockNumber": "0xfa7a86",
          "transactionHash": "0xed33a69a81ab8674246f53c3ee74795d720559a9cf7fdca52a4dc26f4d0b0a06",
          "transactionIndex": "0x51",
          "logIndex": "0xf8",
          "removed": false
        },
        {
          "address": "0x23432452b720c80553458496d4d9d7c5003280d0",
          "topics": [
            "0x85496b760a4b7f8d66384b9df21b381f5d1b1e79f229a47aaf4c232edc2fe59a",
            "0xa624b945fa96dca9aecd9e395cb44a17040b61e09c212c4602ceaac057ff1572",
            "0x000000000000000000000000b0e1650a9760e0f383174af042091fc544b8356f"
          ],
          "data": "0x0000000000000000000000000000000000000000000000000000000000007595000000000000000000000000000000000000000000000000000009184e72a000000000000000000000000000000000000000000000000000000009184e72a000",
          "blockHash": "0x027ebf81f910110e831400c68deeda443efb01f66a31a08722d79daf1ba163ca",
          "blockNumber": "0xfa7a86",
          "transactionHash": "0xed33a69a81ab8674246f53c3ee74795d720559a9cf7fdca52a4dc26f4d0b0a06",
          "transactionIndex": "0x51",
          "logIndex": "0xf9",
          "removed": false
        }
      ],
      "logsBloom": "0x00000000000000000000000000000000000000000000000000000008001000000000000000000000000000000400000000000000000000000000000000000000000002000000000000000408000000000000000000000000000000000000000100000000020000008000000000000800000000000110080000000010000000000000000000000000000000080000000000000000000020000004000000000000000000008000000000100000000000000000000000400000000440000000000000000002000000000000000080000000000000000000000000000000000020004000040080000000000000000000002000000000018000008000000000004000",
      "type": "0x2",
      "transactionHash": "0xed33a69a81ab8674246f53c3ee74795d720559a9cf7fdca52a4dc26f4d0b0a06",
      "transactionIndex": "0x51",
      "blockHash": "0x027ebf81f910110e831400c68deeda443efb01f66a31a08722d79daf1ba163ca",
      "blockNumber": "0xfa7a86",
      "gasUsed": "0x3fd20",
      "effectiveGasPrice": "0x20ed47",
      "from": "0xb0e1650a9760e0f383174af042091fc544b8356f",
      "to": "0x23432452b720c80553458496d4d9d7c5003280d0",
      "contractAddress": null,
      "l1BaseFeeScalar": "0x58a",
      "l1BlobBaseFee": "0x1",
      "l1BlobBaseFeeScalar": "0xa118b",
      "l1Fee": "0x296b36e0a",
      "l1GasPrice": "0x638549bf",
      "l1GasUsed": "0x1258"
    },
    {
      "status": "0x1",
      "cumulativeGasUsed": "0xd6a1f0",
      "logs": [
        {
          "address": "0xe4796ccb6bb5de2290c417ac337f2b66ca2e770e",
          "topics": [
            "0xddf252ad1be2c89b69c2b068fc378daa952ba7f163c4a11628f55a4df523b3ef",
            "0x000000000000000000000000b0e1650a9760e0f383174af042091fc544b8356f",
            "0x0000000000000000000000000000000000000000000000000000000000000000"
          ],
          "data": "0x000000000000000000000000000000000000000000000000000009184e72a000",
          "blockHash": "0x027ebf81f910110e831400c68deeda443efb01f66a31a08722d79daf1ba163ca",
          "blockNumber": "0xfa7a86",
          "transactionHash": "0xb493a3e7056dfb7a328d65c15568d58df332dc0c5ca56b6648f6f68e06ac2387",
          "transactionIndex": "0x52",
          "logIndex": "0xfa",
          "removed": false
        },
        {
          "address": "0xb5320b0b3a13cc860893e2bd79fcd7e13484dda2",
          "topics": [
            "0x61ed099e74a97a1d7f8bb0952a88ca8b7b8ebd00c126ea04671f92a81213318a"
          ],
          "data": "0x0000000000000000000000002cca08ae69e0c44b18a57ab2a87644234daebae40000000000000000000000000000000000000000000000000001acd3eb477040",
          "blockHash": "0x027ebf81f910110e831400c68deeda443efb01f66a31a08722d79daf1ba163ca",
          "blockNumber": "0xfa7a86",
          "transactionHash": "0xb493a3e7056dfb7a328d65c15568d58df332dc0c5ca56b6648f6f68e06ac2387",
          "transactionIndex": "0x52",
          "logIndex": "0xfb",
          "removed": false
        },
        {
          "address": "0xb5320b0b3a13cc860893e2bd79fcd7e13484dda2",
          "topics": [
            "0x07ea52d82345d6e838192107d8fd7123d9c2ec8e916cd0aad13fd2b60db24644"
          ],
          "data": "0x000000000000000000000000000000000000000000000000000000000000006000000000000000000000000000000000000000000000000000000000000000c000000000000000000000000000000000000000000000000000000000000000e000000000000000000000000000000000000000000000000000000000000000020000000000000000000000009e059a54699a285714207b43b055483e78faac25000000000000000000000000a7b5189bca84cd304d8553977c7c614329750d990000000000000000000000000000000000000000000000000000000000000000000000000000000000000000000000000000000000000000000000000000000200000000000000000000000000000000000000000000000000007852493d691000000000000000000000000000000000000000000000000000007852493d6910",
          "blockHash": "0x027ebf81f910110e831400c68deeda443efb01f66a31a08722d79daf1ba163ca",
          "blockNumber": "0xfa7a86",
          "transactionHash": "0xb493a3e7056dfb7a328d65c15568d58df332dc0c5ca56b6648f6f68e06ac2387",
          "transactionIndex": "0x52",
          "logIndex": "0xfc",
          "removed": false
        },
        {
          "address": "0x1a44076050125825900e736c501f859c50fe728c",
          "topics": [
            "0x1ab700d4ced0c005b164c0f789fd09fcbb0156d4c2041b8a3bfbcd961cd1567f"
          ],
          "data": "0x00000000000000000000000000000000000000000000000000000000000000600000000000000000000000000000000000000000000000000000000000000120000000000000000000000000b5320b0b3a13cc860893e2bd79fcd7e13484dda20000000000000000000000000000000000000000000000000000000000000099010000000000000028000075e8000000000000000000000000e4796ccb6bb5de2290c417ac337f2b66ca2e770e00007595000000000000000000000000e4796ccb6bb5de2290c417ac337f2b66ca2e770ea6587beaa3bfeb344af9690e4084e40750bfc9e60c99a6a86affc6d737418383000000000000000000000000b0e1650a9760e0f383174af042091fc544b8356f000000000000000a00000000000000000000000000000000000000000000000000000000000000000000000000001600030100110100000000000000000000000000030d4000000000000000000000",
          "blockHash": "0x027ebf81f910110e831400c68deeda443efb01f66a31a08722d79daf1ba163ca",
          "blockNumber": "0xfa7a86",
          "transactionHash": "0xb493a3e7056dfb7a328d65c15568d58df332dc0c5ca56b6648f6f68e06ac2387",
          "transactionIndex": "0x52",
          "logIndex": "0xfd",
          "removed": false
        },
        {
          "address": "0xe4796ccb6bb5de2290c417ac337f2b66ca2e770e",
          "topics": [
            "0x85496b760a4b7f8d66384b9df21b381f5d1b1e79f229a47aaf4c232edc2fe59a",
            "0xa6587beaa3bfeb344af9690e4084e40750bfc9e60c99a6a86affc6d737418383",
            "0x000000000000000000000000b0e1650a9760e0f383174af042091fc544b8356f"
          ],
          "data": "0x0000000000000000000000000000000000000000000000000000000000007595000000000000000000000000000000000000000000000000000009184e72a000000000000000000000000000000000000000000000000000000009184e72a000",
          "blockHash": "0x027ebf81f910110e831400c68deeda443efb01f66a31a08722d79daf1ba163ca",
          "blockNumber": "0xfa7a86",
          "transactionHash": "0xb493a3e7056dfb7a328d65c15568d58df332dc0c5ca56b6648f6f68e06ac2387",
          "transactionIndex": "0x52",
          "logIndex": "0xfe",
          "removed": false
        }
      ],
      "logsBloom": "0x00000000000000000000000000000000000000000000000000000000001000000000000000000000000000000000000000000000000000000000000000000000000002000000000000000408000000000004000000000000000000000000000100400000020000008000000000000800000000000110080008000010000000000000000000000000000000080000000000000000000000000004000000000000000000008000000000100000000000000000000000400000000440000000000000000002000000000010000080000000000000000000000000000000000020000000040080000000000000000000002000000000018000000002000000001000",
      "type": "0x2",
      "transactionHash": "0xb493a3e7056dfb7a328d65c15568d58df332dc0c5ca56b6648f6f68e06ac2387",
      "transactionIndex": "0x52",
      "blockHash": "0x027ebf81f910110e831400c68deeda443efb01f66a31a08722d79daf1ba163ca",
      "blockNumber": "0xfa7a86",
      "gasUsed": "0x3fd20",
      "effectiveGasPrice": "0x20ed47",
      "from": "0xb0e1650a9760e0f383174af042091fc544b8356f",
      "to": "0xe4796ccb6bb5de2290c417ac337f2b66ca2e770e",
      "contractAddress": null,
      "l1BaseFeeScalar": "0x58a",
      "l1BlobBaseFee": "0x1",
      "l1BlobBaseFeeScalar": "0xa118b",
      "l1Fee": "0x296b36e0a",
      "l1GasPrice": "0x638549bf",
      "l1GasUsed": "0x1258"
    },
    {
      "status": "0x1",
      "cumulativeGasUsed": "0xdc25bb",
      "logs": [
        {
          "address": "0x1f55a02a049033e3419a8e2975cf3f572f4e6e9a",
          "topics": [
            "0xddf252ad1be2c89b69c2b068fc378daa952ba7f163c4a11628f55a4df523b3ef",
            "0x000000000000000000000000b0e1650a9760e0f383174af042091fc544b8356f",
            "0x0000000000000000000000000000000000000000000000000000000000000000"
          ],
          "data": "0x000000000000000000000000000000000000000000000000000009184e72a000",
          "blockHash": "0x027ebf81f910110e831400c68deeda443efb01f66a31a08722d79daf1ba163ca",
          "blockNumber": "0xfa7a86",
          "transactionHash": "0xcf6c093100354bc164c098e7f8465125097702ed969029ee0df315041a7476fb",
          "transactionIndex": "0x54",
          "logIndex": "0x101",
          "removed": false
        },
        {
          "address": "0xb5320b0b3a13cc860893e2bd79fcd7e13484dda2",
          "topics": [
            "0x61ed099e74a97a1d7f8bb0952a88ca8b7b8ebd00c126ea04671f92a81213318a"
          ],
          "data": "0x0000000000000000000000002cca08ae69e0c44b18a57ab2a87644234daebae40000000000000000000000000000000000000000000000000001acd3eb477040",
          "blockHash": "0x027ebf81f910110e831400c68deeda443efb01f66a31a08722d79daf1ba163ca",
          "blockNumber": "0xfa7a86",
          "transactionHash": "0xcf6c093100354bc164c098e7f8465125097702ed969029ee0df315041a7476fb",
          "transactionIndex": "0x54",
          "logIndex": "0x102",
          "removed": false
        },
        {
          "address": "0xb5320b0b3a13cc860893e2bd79fcd7e13484dda2",
          "topics": [
            "0x07ea52d82345d6e838192107d8fd7123d9c2ec8e916cd0aad13fd2b60db24644"
          ],
          "data": "0x000000000000000000000000000000000000000000000000000000000000006000000000000000000000000000000000000000000000000000000000000000c000000000000000000000000000000000000000000000000000000000000000e000000000000000000000000000000000000000000000000000000000000000020000000000000000000000009e059a54699a285714207b43b055483e78faac25000000000000000000000000a7b5189bca84cd304d8553977c7c614329750d990000000000000000000000000000000000000000000000000000000000000000000000000000000000000000000000000000000000000000000000000000000200000000000000000000000000000000000000000000000000007852493d691000000000000000000000000000000000000000000000000000007852493d6910",
          "blockHash": "0x027ebf81f910110e831400c68deeda443efb01f66a31a08722d79daf1ba163ca",
          "blockNumber": "0xfa7a86",
          "transactionHash": "0xcf6c093100354bc164c098e7f8465125097702ed969029ee0df315041a7476fb",
          "transactionIndex": "0x54",
          "logIndex": "0x103",
          "removed": false
        },
        {
          "address": "0x1a44076050125825900e736c501f859c50fe728c",
          "topics": [
            "0x1ab700d4ced0c005b164c0f789fd09fcbb0156d4c2041b8a3bfbcd961cd1567f"
          ],
          "data": "0x00000000000000000000000000000000000000000000000000000000000000600000000000000000000000000000000000000000000000000000000000000120000000000000000000000000b5320b0b3a13cc860893e2bd79fcd7e13484dda2000000000000000000000000000000000000000000000000000000000000009901000000000000001c000075e80000000000000000000000001f55a02a049033e3419a8e2975cf3f572f4e6e9a000075950000000000000000000000001f55a02a049033e3419a8e2975cf3f572f4e6e9a568de0d9bd015244ed5590215bd5a9b1e2166699d077da2f3374f29fc6df5b19000000000000000000000000b0e1650a9760e0f383174af042091fc544b8356f000000000000000a00000000000000000000000000000000000000000000000000000000000000000000000000001600030100110100000000000000000000000000030d4000000000000000000000",
          "blockHash": "0x027ebf81f910110e831400c68deeda443efb01f66a31a08722d79daf1ba163ca",
          "blockNumber": "0xfa7a86",
          "transactionHash": "0xcf6c093100354bc164c098e7f8465125097702ed969029ee0df315041a7476fb",
          "transactionIndex": "0x54",
          "logIndex": "0x104",
          "removed": false
        },
        {
          "address": "0x1f55a02a049033e3419a8e2975cf3f572f4e6e9a",
          "topics": [
            "0x85496b760a4b7f8d66384b9df21b381f5d1b1e79f229a47aaf4c232edc2fe59a",
            "0x568de0d9bd015244ed5590215bd5a9b1e2166699d077da2f3374f29fc6df5b19",
            "0x000000000000000000000000b0e1650a9760e0f383174af042091fc544b8356f"
          ],
          "data": "0x0000000000000000000000000000000000000000000000000000000000007595000000000000000000000000000000000000000000000000000009184e72a000000000000000000000000000000000000000000000000000000009184e72a000",
          "blockHash": "0x027ebf81f910110e831400c68deeda443efb01f66a31a08722d79daf1ba163ca",
          "blockNumber": "0xfa7a86",
          "transactionHash": "0xcf6c093100354bc164c098e7f8465125097702ed969029ee0df315041a7476fb",
          "transactionIndex": "0x54",
          "logIndex": "0x105",
          "removed": false
        }
      ],
      "logsBloom": "0x00000000100000000000000000000000000000000000000000000000001420000000000000000000000000000000000000000000000000000000000000000000000002000000000000000408000000000000000000000000000000000000000100000000020000008000000000000800000000000110080000000010000000000000000000000010000000080000000000000000000000000004000000000000000010008000000000100000000000000000000000400100000440000000000000000002000000000000000080000000000000000000000000000000000020000000040080000000000000000000002000000000018000000000000000000000",
      "type": "0x2",
      "transactionHash": "0xcf6c093100354bc164c098e7f8465125097702ed969029ee0df315041a7476fb",
      "transactionIndex": "0x54",
      "blockHash": "0x027ebf81f910110e831400c68deeda443efb01f66a31a08722d79daf1ba163ca",
      "blockNumber": "0xfa7a86",
      "gasUsed": "0x3fd20",
      "effectiveGasPrice": "0x20ed47",
      "from": "0xb0e1650a9760e0f383174af042091fc544b8356f",
      "to": "0x1f55a02a049033e3419a8e2975cf3f572f4e6e9a",
      "contractAddress": null,
      "l1BaseFeeScalar": "0x58a",
      "l1BlobBaseFee": "0x1",
      "l1BlobBaseFeeScalar": "0xa118b",
      "l1Fee": "0x29864f38e",
      "l1GasPrice": "0x638549bf",
      "l1GasUsed": "0x1264"
    },
    {
      "status": "0x1",
      "cumulativeGasUsed": "0xe065a7",
      "logs": [
        {
          "address": "0x909dbde1ebe906af95660033e478d59efe831fed",
          "topics": [
            "0xddf252ad1be2c89b69c2b068fc378daa952ba7f163c4a11628f55a4df523b3ef",
            "0x000000000000000000000000b0e1650a9760e0f383174af042091fc544b8356f",
            "0x0000000000000000000000000000000000000000000000000000000000000000"
          ],
          "data": "0x000000000000000000000000000000000000000000000000000009184e72a000",
          "blockHash": "0x027ebf81f910110e831400c68deeda443efb01f66a31a08722d79daf1ba163ca",
          "blockNumber": "0xfa7a86",
          "transactionHash": "0x3efdd7b13992cf9af61874b3cd0d2e5344d220f0e38fb4f99d9f998f77f2e7a5",
          "transactionIndex": "0x55",
          "logIndex": "0x106",
          "removed": false
        },
        {
          "address": "0xb5320b0b3a13cc860893e2bd79fcd7e13484dda2",
          "topics": [
            "0x61ed099e74a97a1d7f8bb0952a88ca8b7b8ebd00c126ea04671f92a81213318a"
          ],
          "data": "0x0000000000000000000000002cca08ae69e0c44b18a57ab2a87644234daebae40000000000000000000000000000000000000000000000000001acd3eb477040",
          "blockHash": "0x027ebf81f910110e831400c68deeda443efb01f66a31a08722d79daf1ba163ca",
          "blockNumber": "0xfa7a86",
          "transactionHash": "0x3efdd7b13992cf9af61874b3cd0d2e5344d220f0e38fb4f99d9f998f77f2e7a5",
          "transactionIndex": "0x55",
          "logIndex": "0x107",
          "removed": false
        },
        {
          "address": "0xb5320b0b3a13cc860893e2bd79fcd7e13484dda2",
          "topics": [
            "0x07ea52d82345d6e838192107d8fd7123d9c2ec8e916cd0aad13fd2b60db24644"
          ],
          "data": "0x000000000000000000000000000000000000000000000000000000000000006000000000000000000000000000000000000000000000000000000000000000c000000000000000000000000000000000000000000000000000000000000000e000000000000000000000000000000000000000000000000000000000000000020000000000000000000000009e059a54699a285714207b43b055483e78faac25000000000000000000000000a7b5189bca84cd304d8553977c7c614329750d990000000000000000000000000000000000000000000000000000000000000000000000000000000000000000000000000000000000000000000000000000000200000000000000000000000000000000000000000000000000007852493d691000000000000000000000000000000000000000000000000000007852493d6910",
          "blockHash": "0x027ebf81f910110e831400c68deeda443efb01f66a31a08722d79daf1ba163ca",
          "blockNumber": "0xfa7a86",
          "transactionHash": "0x3efdd7b13992cf9af61874b3cd0d2e5344d220f0e38fb4f99d9f998f77f2e7a5",
          "transactionIndex": "0x55",
          "logIndex": "0x108",
          "removed": false
        },
        {
          "address": "0x1a44076050125825900e736c501f859c50fe728c",
          "topics": [
            "0x1ab700d4ced0c005b164c0f789fd09fcbb0156d4c2041b8a3bfbcd961cd1567f"
          ],
          "data": "0x00000000000000000000000000000000000000000000000000000000000000600000000000000000000000000000000000000000000000000000000000000120000000000000000000000000b5320b0b3a13cc860893e2bd79fcd7e13484dda20000000000000000000000000000000000000000000000000000000000000099010000000000000001000075e8000000000000000000000000909dbde1ebe906af95660033e478d59efe831fed00007595000000000000000000000000909dbde1ebe906af95660033e478d59efe831fed3182286ae0cee0688ba2e5f076baee3818f032194ca6a5c1cfb42c28cce98e09000000000000000000000000b0e1650a9760e0f383174af042091fc544b8356f000000000000000a00000000000000000000000000000000000000000000000000000000000000000000000000001600030100110100000000000000000000000000030d4000000000000000000000",
          "blockHash": "0x027ebf81f910110e831400c68deeda443efb01f66a31a08722d79daf1ba163ca",
          "blockNumber": "0xfa7a86",
          "transactionHash": "0x3efdd7b13992cf9af61874b3cd0d2e5344d220f0e38fb4f99d9f998f77f2e7a5",
          "transactionIndex": "0x55",
          "logIndex": "0x109",
          "removed": false
        },
        {
          "address": "0x909dbde1ebe906af95660033e478d59efe831fed",
          "topics": [
            "0x85496b760a4b7f8d66384b9df21b381f5d1b1e79f229a47aaf4c232edc2fe59a",
            "0x3182286ae0cee0688ba2e5f076baee3818f032194ca6a5c1cfb42c28cce98e09",
            "0x000000000000000000000000b0e1650a9760e0f383174af042091fc544b8356f"
          ],
          "data": "0x0000000000000000000000000000000000000000000000000000000000007595000000000000000000000000000000000000000000000000000009184e72a000000000000000000000000000000000000000000000000000000009184e72a000",
          "blockHash": "0x027ebf81f910110e831400c68deeda443efb01f66a31a08722d79daf1ba163ca",
          "blockNumber": "0xfa7a86",
          "transactionHash": "0x3efdd7b13992cf9af61874b3cd0d2e5344d220f0e38fb4f99d9f998f77f2e7a5",
          "transactionIndex": "0x55",
          "logIndex": "0x10a",
          "removed": false
        }
      ],
      "logsBloom": "0x00000000000000000000000002000000000000000000000000000000001000000000000000000000000000000000000000000000002000000000000000000000000002000000000000000408000000000000000000000000000000000000000100000000020000008002000000000820000000000110080000000010000000000000000000000000000000080000000000000000000000000004000000000000000000008000000000100000000000000000000000400000000440000000000000000002000000000000000080000000000004000000000000000000800020000000040080000000000000000000002000000000018000000000000000000000",
      "type": "0x2",
      "transactionHash": "0x3efdd7b13992cf9af61874b3cd0d2e5344d220f0e38fb4f99d9f998f77f2e7a5",
      "transactionIndex": "0x55",
      "blockHash": "0x027ebf81f910110e831400c68deeda443efb01f66a31a08722d79daf1ba163ca",
      "blockNumber": "0xfa7a86",
      "gasUsed": "0x43fec",
      "effectiveGasPrice": "0x20ed47",
      "from": "0xb0e1650a9760e0f383174af042091fc544b8356f",
      "to": "0x909dbde1ebe906af95660033e478d59efe831fed",
      "contractAddress": null,
      "l1BaseFeeScalar": "0x58a",
      "l1BlobBaseFee": "0x1",
      "l1BlobBaseFeeScalar": "0xa118b",
      "l1Fee": "0x296b36e0a",
      "l1GasPrice": "0x638549bf",
      "l1GasUsed": "0x1258"
    },
    {
      "status": "0x1",
      "cumulativeGasUsed": "0xe47d41",
      "logs": [
        {
          "address": "0x23432452b720c80553458496d4d9d7c5003280d0",
          "topics": [
            "0xddf252ad1be2c89b69c2b068fc378daa952ba7f163c4a11628f55a4df523b3ef",
            "0x000000000000000000000000b0e1650a9760e0f383174af042091fc544b8356f",
            "0x0000000000000000000000000000000000000000000000000000000000000000"
          ],
          "data": "0x000000000000000000000000000000000000000000000000000009184e72a000",
          "blockHash": "0x027ebf81f910110e831400c68deeda443efb01f66a31a08722d79daf1ba163ca",
          "blockNumber": "0xfa7a86",
          "transactionHash": "0x873452014a05d5d2c208ea8719f587573e80842d0b6cd402419d4383e05aa9cb",
          "transactionIndex": "0x56",
          "logIndex": "0x10b",
          "removed": false
        },
        {
          "address": "0xb5320b0b3a13cc860893e2bd79fcd7e13484dda2",
          "topics": [
            "0x61ed099e74a97a1d7f8bb0952a88ca8b7b8ebd00c126ea04671f92a81213318a"
          ],
          "data": "0x0000000000000000000000002cca08ae69e0c44b18a57ab2a87644234daebae400000000000000000000000000000000000000000000000000008c2c0693ea02",
          "blockHash": "0x027ebf81f910110e831400c68deeda443efb01f66a31a08722d79daf1ba163ca",
          "blockNumber": "0xfa7a86",
          "transactionHash": "0x873452014a05d5d2c208ea8719f587573e80842d0b6cd402419d4383e05aa9cb",
          "transactionIndex": "0x56",
          "logIndex": "0x10c",
          "removed": false
        },
        {
          "address": "0xb5320b0b3a13cc860893e2bd79fcd7e13484dda2",
          "topics": [
            "0x07ea52d82345d6e838192107d8fd7123d9c2ec8e916cd0aad13fd2b60db24644"
          ],
          "data": "0x000000000000000000000000000000000000000000000000000000000000006000000000000000000000000000000000000000000000000000000000000000c000000000000000000000000000000000000000000000000000000000000000e000000000000000000000000000000000000000000000000000000000000000020000000000000000000000009e059a54699a285714207b43b055483e78faac25000000000000000000000000a7b5189bca84cd304d8553977c7c614329750d990000000000000000000000000000000000000000000000000000000000000000000000000000000000000000000000000000000000000000000000000000000200000000000000000000000000000000000000000000000000000e981a2791ac00000000000000000000000000000000000000000000000000000e981a2791ac",
          "blockHash": "0x027ebf81f910110e831400c68deeda443efb01f66a31a08722d79daf1ba163ca",
          "blockNumber": "0xfa7a86",
          "transactionHash": "0x873452014a05d5d2c208ea8719f587573e80842d0b6cd402419d4383e05aa9cb",
          "transactionIndex": "0x56",
          "logIndex": "0x10d",
          "removed": false
        },
        {
          "address": "0x1a44076050125825900e736c501f859c50fe728c",
          "topics": [
            "0x1ab700d4ced0c005b164c0f789fd09fcbb0156d4c2041b8a3bfbcd961cd1567f"
          ],
          "data": "0x00000000000000000000000000000000000000000000000000000000000000600000000000000000000000000000000000000000000000000000000000000120000000000000000000000000b5320b0b3a13cc860893e2bd79fcd7e13484dda2000000000000000000000000000000000000000000000000000000000000009901000000000000001f000075e800000000000000000000000023432452b720c80553458496d4d9d7c5003280d00000762300000000000000000000000023432452b720c80553458496d4d9d7c5003280d04c70bdd5d1c7427db50d5250f140eb9ab9d67c8b240d62b01abd0eb385345e3a000000000000000000000000b0e1650a9760e0f383174af042091fc544b8356f000000000000000a00000000000000000000000000000000000000000000000000000000000000000000000000001600030100110100000000000000000000000000030d4000000000000000000000",
          "blockHash": "0x027ebf81f910110e831400c68deeda443efb01f66a31a08722d79daf1ba163ca",
          "blockNumber": "0xfa7a86",
          "transactionHash": "0x873452014a05d5d2c208ea8719f587573e80842d0b6cd402419d4383e05aa9cb",
          "transactionIndex": "0x56",
          "logIndex": "0x10e",
          "removed": false
        },
        {
          "address": "0x23432452b720c80553458496d4d9d7c5003280d0",
          "topics": [
            "0x85496b760a4b7f8d66384b9df21b381f5d1b1e79f229a47aaf4c232edc2fe59a",
            "0x4c70bdd5d1c7427db50d5250f140eb9ab9d67c8b240d62b01abd0eb385345e3a",
            "0x000000000000000000000000b0e1650a9760e0f383174af042091fc544b8356f"
          ],
          "data": "0x0000000000000000000000000000000000000000000000000000000000007623000000000000000000000000000000000000000000000000000009184e72a000000000000000000000000000000000000000000000000000000009184e72a000",
          "blockHash": "0x027ebf81f910110e831400c68deeda443efb01f66a31a08722d79daf1ba163ca",
          "blockNumber": "0xfa7a86",
          "transactionHash": "0x873452014a05d5d2c208ea8719f587573e80842d0b6cd402419d4383e05aa9cb",
          "transactionIndex": "0x56",
          "logIndex": "0x10f",
          "removed": false
        }
      ],
      "logsBloom": "0x00000000000000000000000000000000000000000000000000000000001000000000000000000000000000000000000000000000000000000000000000000000000002000080000002000408000000000000000000000000000000000000000100000000022000008000000000000800000000000110080000000010000000000000000000000000000000080000000000000000000020000004000000000000000000008000000000100000000000000000000000400000000440000000000000000002000000000000000080000000000000000000000000000000000020000000040080000000000000000000002000000000018000008000000000004000",
      "type": "0x2",
      "transactionHash": "0x873452014a05d5d2c208ea8719f587573e80842d0b6cd402419d4383e05aa9cb",
      "transactionIndex": "0x56",
      "blockHash": "0x027ebf81f910110e831400c68deeda443efb01f66a31a08722d79daf1ba163ca",
      "blockNumber": "0xfa7a86",
      "gasUsed": "0x4179a",
      "effectiveGasPrice": "0x20ed47",
      "from": "0xb0e1650a9760e0f383174af042091fc544b8356f",
      "to": "0x23432452b720c80553458496d4d9d7c5003280d0",
      "contractAddress": null,
      "l1BaseFeeScalar": "0x58a",
      "l1BlobBaseFee": "0x1",
      "l1BlobBaseFeeScalar": "0xa118b",
      "l1Fee": "0x292bfe12c",
      "l1GasPrice": "0x638549bf",
      "l1GasUsed": "0x123c"
    },
    {
      "status": "0x1",
      "cumulativeGasUsed": "0xe8e6e3",
      "logs": [
        {
          "address": "0xe4796ccb6bb5de2290c417ac337f2b66ca2e770e",
          "topics": [
            "0xddf252ad1be2c89b69c2b068fc378daa952ba7f163c4a11628f55a4df523b3ef",
            "0x000000000000000000000000b0e1650a9760e0f383174af042091fc544b8356f",
            "0x0000000000000000000000000000000000000000000000000000000000000000"
          ],
          "data": "0x000000000000000000000000000000000000000000000000000009184e72a000",
          "blockHash": "0x027ebf81f910110e831400c68deeda443efb01f66a31a08722d79daf1ba163ca",
          "blockNumber": "0xfa7a86",
          "transactionHash": "0x157a06e83f04112056c06b13bd535cd72b0de9ed02f3862265ffd8c1f33bac55",
          "transactionIndex": "0x58",
          "logIndex": "0x110",
          "removed": false
        },
        {
          "address": "0xb5320b0b3a13cc860893e2bd79fcd7e13484dda2",
          "topics": [
            "0x61ed099e74a97a1d7f8bb0952a88ca8b7b8ebd00c126ea04671f92a81213318a"
          ],
          "data": "0x0000000000000000000000002cca08ae69e0c44b18a57ab2a87644234daebae400000000000000000000000000000000000000000000000000008c2c0693ea02",
          "blockHash": "0x027ebf81f910110e831400c68deeda443efb01f66a31a08722d79daf1ba163ca",
          "blockNumber": "0xfa7a86",
          "transactionHash": "0x157a06e83f04112056c06b13bd535cd72b0de9ed02f3862265ffd8c1f33bac55",
          "transactionIndex": "0x58",
          "logIndex": "0x111",
          "removed": false
        },
        {
          "address": "0xb5320b0b3a13cc860893e2bd79fcd7e13484dda2",
          "topics": [
            "0x07ea52d82345d6e838192107d8fd7123d9c2ec8e916cd0aad13fd2b60db24644"
          ],
          "data": "0x000000000000000000000000000000000000000000000000000000000000006000000000000000000000000000000000000000000000000000000000000000c000000000000000000000000000000000000000000000000000000000000000e000000000000000000000000000000000000000000000000000000000000000020000000000000000000000009e059a54699a285714207b43b055483e78faac25000000000000000000000000a7b5189bca84cd304d8553977c7c614329750d990000000000000000000000000000000000000000000000000000000000000000000000000000000000000000000000000000000000000000000000000000000200000000000000000000000000000000000000000000000000000e981a2791ac00000000000000000000000000000000000000000000000000000e981a2791ac",
          "blockHash": "0x027ebf81f910110e831400c68deeda443efb01f66a31a08722d79daf1ba163ca",
          "blockNumber": "0xfa7a86",
          "transactionHash": "0x157a06e83f04112056c06b13bd535cd72b0de9ed02f3862265ffd8c1f33bac55",
          "transactionIndex": "0x58",
          "logIndex": "0x112",
          "removed": false
        },
        {
          "address": "0x1a44076050125825900e736c501f859c50fe728c",
          "topics": [
            "0x1ab700d4ced0c005b164c0f789fd09fcbb0156d4c2041b8a3bfbcd961cd1567f"
          ],
          "data": "0x00000000000000000000000000000000000000000000000000000000000000600000000000000000000000000000000000000000000000000000000000000120000000000000000000000000b5320b0b3a13cc860893e2bd79fcd7e13484dda20000000000000000000000000000000000000000000000000000000000000099010000000000000047000075e8000000000000000000000000e4796ccb6bb5de2290c417ac337f2b66ca2e770e00007623000000000000000000000000e4796ccb6bb5de2290c417ac337f2b66ca2e770ea5b2c032be7385cb31b985f40712a0de91af25595e87022972f76e8085f67a28000000000000000000000000b0e1650a9760e0f383174af042091fc544b8356f000000000000000a00000000000000000000000000000000000000000000000000000000000000000000000000001600030100110100000000000000000000000000030d4000000000000000000000",
          "blockHash": "0x027ebf81f910110e831400c68deeda443efb01f66a31a08722d79daf1ba163ca",
          "blockNumber": "0xfa7a86",
          "transactionHash": "0x157a06e83f04112056c06b13bd535cd72b0de9ed02f3862265ffd8c1f33bac55",
          "transactionIndex": "0x58",
          "logIndex": "0x113",
          "removed": false
        },
        {
          "address": "0xe4796ccb6bb5de2290c417ac337f2b66ca2e770e",
          "topics": [
            "0x85496b760a4b7f8d66384b9df21b381f5d1b1e79f229a47aaf4c232edc2fe59a",
            "0xa5b2c032be7385cb31b985f40712a0de91af25595e87022972f76e8085f67a28",
            "0x000000000000000000000000b0e1650a9760e0f383174af042091fc544b8356f"
          ],
          "data": "0x0000000000000000000000000000000000000000000000000000000000007623000000000000000000000000000000000000000000000000000009184e72a000000000000000000000000000000000000000000000000000000009184e72a000",
          "blockHash": "0x027ebf81f910110e831400c68deeda443efb01f66a31a08722d79daf1ba163ca",
          "blockNumber": "0xfa7a86",
          "transactionHash": "0x157a06e83f04112056c06b13bd535cd72b0de9ed02f3862265ffd8c1f33bac55",
          "transactionIndex": "0x58",
          "logIndex": "0x114",
          "removed": false
        }
      ],
      "logsBloom": "0x00000000000000000000000000000000000000000000000000000000001000000000000000000000000000000000000000000000000000000000000000000000000002000000000000000408000000000004000008000000000000000000000100400000020000008000000000000800000000000110080000000010000000000000000000000000000000080000000000000000000000000004000000000000000000008000000000100000000000000000000000400000000440000000000000000002000000000000000090000000000000000000000000000000000020000000040080000000000000000000002000080000018000000000000000001000",
      "type": "0x2",
      "transactionHash": "0x157a06e83f04112056c06b13bd535cd72b0de9ed02f3862265ffd8c1f33bac55",
      "transactionIndex": "0x58",
      "blockHash": "0x027ebf81f910110e831400c68deeda443efb01f66a31a08722d79daf1ba163ca",
      "blockNumber": "0xfa7a86",
      "gasUsed": "0x4179a",
      "effectiveGasPrice": "0x20ed47",
      "from": "0xb0e1650a9760e0f383174af042091fc544b8356f",
      "to": "0xe4796ccb6bb5de2290c417ac337f2b66ca2e770e",
      "contractAddress": null,
      "l1BaseFeeScalar": "0x58a",
      "l1BlobBaseFee": "0x1",
      "l1BlobBaseFeeScalar": "0xa118b",
      "l1Fee": "0x2947166b0",
      "l1GasPrice": "0x638549bf",
      "l1GasUsed": "0x1248"
    },
    {
      "status": "0x1",
      "cumulativeGasUsed": "0xecfe7d",
      "logs": [
        {
          "address": "0x1f55a02a049033e3419a8e2975cf3f572f4e6e9a",
          "topics": [
            "0xddf252ad1be2c89b69c2b068fc378daa952ba7f163c4a11628f55a4df523b3ef",
            "0x000000000000000000000000b0e1650a9760e0f383174af042091fc544b8356f",
            "0x0000000000000000000000000000000000000000000000000000000000000000"
          ],
          "data": "0x000000000000000000000000000000000000000000000000000009184e72a000",
          "blockHash": "0x027ebf81f910110e831400c68deeda443efb01f66a31a08722d79daf1ba163ca",
          "blockNumber": "0xfa7a86",
          "transactionHash": "0x74f2b90402d1d7ff8da79b47f9242ba5b3827ccf2999d1e4bb4a4ff90b5c089d",
          "transactionIndex": "0x59",
          "logIndex": "0x115",
          "removed": false
        },
        {
          "address": "0xb5320b0b3a13cc860893e2bd79fcd7e13484dda2",
          "topics": [
            "0x61ed099e74a97a1d7f8bb0952a88ca8b7b8ebd00c126ea04671f92a81213318a"
          ],
          "data": "0x0000000000000000000000002cca08ae69e0c44b18a57ab2a87644234daebae400000000000000000000000000000000000000000000000000008c2c0693ea02",
          "blockHash": "0x027ebf81f910110e831400c68deeda443efb01f66a31a08722d79daf1ba163ca",
          "blockNumber": "0xfa7a86",
          "transactionHash": "0x74f2b90402d1d7ff8da79b47f9242ba5b3827ccf2999d1e4bb4a4ff90b5c089d",
          "transactionIndex": "0x59",
          "logIndex": "0x116",
          "removed": false
        },
        {
          "address": "0xb5320b0b3a13cc860893e2bd79fcd7e13484dda2",
          "topics": [
            "0x07ea52d82345d6e838192107d8fd7123d9c2ec8e916cd0aad13fd2b60db24644"
          ],
          "data": "0x000000000000000000000000000000000000000000000000000000000000006000000000000000000000000000000000000000000000000000000000000000c000000000000000000000000000000000000000000000000000000000000000e000000000000000000000000000000000000000000000000000000000000000020000000000000000000000009e059a54699a285714207b43b055483e78faac25000000000000000000000000a7b5189bca84cd304d8553977c7c614329750d990000000000000000000000000000000000000000000000000000000000000000000000000000000000000000000000000000000000000000000000000000000200000000000000000000000000000000000000000000000000000e981a2791ac00000000000000000000000000000000000000000000000000000e981a2791ac",
          "blockHash": "0x027ebf81f910110e831400c68deeda443efb01f66a31a08722d79daf1ba163ca",
          "blockNumber": "0xfa7a86",
          "transactionHash": "0x74f2b90402d1d7ff8da79b47f9242ba5b3827ccf2999d1e4bb4a4ff90b5c089d",
          "transactionIndex": "0x59",
          "logIndex": "0x117",
          "removed": false
        },
        {
          "address": "0x1a44076050125825900e736c501f859c50fe728c",
          "topics": [
            "0x1ab700d4ced0c005b164c0f789fd09fcbb0156d4c2041b8a3bfbcd961cd1567f"
          ],
          "data": "0x00000000000000000000000000000000000000000000000000000000000000600000000000000000000000000000000000000000000000000000000000000120000000000000000000000000b5320b0b3a13cc860893e2bd79fcd7e13484dda2000000000000000000000000000000000000000000000000000000000000009901000000000000004f000075e80000000000000000000000001f55a02a049033e3419a8e2975cf3f572f4e6e9a000076230000000000000000000000001f55a02a049033e3419a8e2975cf3f572f4e6e9af045ea748d0a9e7825d785c28bf47fcaa1ff3a3b335ff47c5305f78d3f39ca6d000000000000000000000000b0e1650a9760e0f383174af042091fc544b8356f000000000000000a00000000000000000000000000000000000000000000000000000000000000000000000000001600030100110100000000000000000000000000030d4000000000000000000000",
          "blockHash": "0x027ebf81f910110e831400c68deeda443efb01f66a31a08722d79daf1ba163ca",
          "blockNumber": "0xfa7a86",
          "transactionHash": "0x74f2b90402d1d7ff8da79b47f9242ba5b3827ccf2999d1e4bb4a4ff90b5c089d",
          "transactionIndex": "0x59",
          "logIndex": "0x118",
          "removed": false
        },
        {
          "address": "0x1f55a02a049033e3419a8e2975cf3f572f4e6e9a",
          "topics": [
            "0x85496b760a4b7f8d66384b9df21b381f5d1b1e79f229a47aaf4c232edc2fe59a",
            "0xf045ea748d0a9e7825d785c28bf47fcaa1ff3a3b335ff47c5305f78d3f39ca6d",
            "0x000000000000000000000000b0e1650a9760e0f383174af042091fc544b8356f"
          ],
          "data": "0x0000000000000000000000000000000000000000000000000000000000007623000000000000000000000000000000000000000000000000000009184e72a000000000000000000000000000000000000000000000000000000009184e72a000",
          "blockHash": "0x027ebf81f910110e831400c68deeda443efb01f66a31a08722d79daf1ba163ca",
          "blockNumber": "0xfa7a86",
          "transactionHash": "0x74f2b90402d1d7ff8da79b47f9242ba5b3827ccf2999d1e4bb4a4ff90b5c089d",
          "transactionIndex": "0x59",
          "logIndex": "0x119",
          "removed": false
        }
      ],
      "logsBloom": "0x00000000100000000000000000000000000000000000000000000000001000000000000000000000000000000000000000000000000000000000000000000000000002000000000000000408000000000000000000000000000000000000080100000000020000008000000000000800000000000110080000000010000000000000000000000010000000080000000000000000000000000004000000000000000000008000000000100000800000000000000000400100000440000000000000000002000000040000000080000000000000000000000000000000000020000000040080000000000000000000002000000000018000000000000000000000",
      "type": "0x2",
      "transactionHash": "0x74f2b90402d1d7ff8da79b47f9242ba5b3827ccf2999d1e4bb4a4ff90b5c089d",
      "transactionIndex": "0x59",
      "blockHash": "0x027ebf81f910110e831400c68deeda443efb01f66a31a08722d79daf1ba163ca",
      "blockNumber": "0xfa7a86",
      "gasUsed": "0x4179a",
      "effectiveGasPrice": "0x20ed47",
      "from": "0xb0e1650a9760e0f383174af042091fc544b8356f",
      "to": "0x1f55a02a049033e3419a8e2975cf3f572f4e6e9a",
      "contractAddress": null,
      "l1BaseFeeScalar": "0x58a",
      "l1BlobBaseFee": "0x1",
      "l1BlobBaseFeeScalar": "0xa118b",
      "l1Fee": "0x292bfe12c",
      "l1GasPrice": "0x638549bf",
      "l1GasUsed": "0x123c"
    },
    {
      "status": "0x1",
      "cumulativeGasUsed": "0xf158e3",
      "logs": [
        {
          "address": "0x909dbde1ebe906af95660033e478d59efe831fed",
          "topics": [
            "0xddf252ad1be2c89b69c2b068fc378daa952ba7f163c4a11628f55a4df523b3ef",
            "0x000000000000000000000000b0e1650a9760e0f383174af042091fc544b8356f",
            "0x0000000000000000000000000000000000000000000000000000000000000000"
          ],
          "data": "0x000000000000000000000000000000000000000000000000000009184e72a000",
          "blockHash": "0x027ebf81f910110e831400c68deeda443efb01f66a31a08722d79daf1ba163ca",
          "blockNumber": "0xfa7a86",
          "transactionHash": "0xb5a8ef0ebccaad0b4203729b11abc4c36444ea913d09bc4904a2b1dc3f1bbc04",
          "transactionIndex": "0x5a",
          "logIndex": "0x11a",
          "removed": false
        },
        {
          "address": "0xb5320b0b3a13cc860893e2bd79fcd7e13484dda2",
          "topics": [
            "0x61ed099e74a97a1d7f8bb0952a88ca8b7b8ebd00c126ea04671f92a81213318a"
          ],
          "data": "0x0000000000000000000000002cca08ae69e0c44b18a57ab2a87644234daebae400000000000000000000000000000000000000000000000000008c2c0693ea02",
          "blockHash": "0x027ebf81f910110e831400c68deeda443efb01f66a31a08722d79daf1ba163ca",
          "blockNumber": "0xfa7a86",
          "transactionHash": "0xb5a8ef0ebccaad0b4203729b11abc4c36444ea913d09bc4904a2b1dc3f1bbc04",
          "transactionIndex": "0x5a",
          "logIndex": "0x11b",
          "removed": false
        },
        {
          "address": "0xb5320b0b3a13cc860893e2bd79fcd7e13484dda2",
          "topics": [
            "0x07ea52d82345d6e838192107d8fd7123d9c2ec8e916cd0aad13fd2b60db24644"
          ],
          "data": "0x000000000000000000000000000000000000000000000000000000000000006000000000000000000000000000000000000000000000000000000000000000c000000000000000000000000000000000000000000000000000000000000000e000000000000000000000000000000000000000000000000000000000000000020000000000000000000000009e059a54699a285714207b43b055483e78faac25000000000000000000000000a7b5189bca84cd304d8553977c7c614329750d990000000000000000000000000000000000000000000000000000000000000000000000000000000000000000000000000000000000000000000000000000000200000000000000000000000000000000000000000000000000000e981a2791ac00000000000000000000000000000000000000000000000000000e981a2791ac",
          "blockHash": "0x027ebf81f910110e831400c68deeda443efb01f66a31a08722d79daf1ba163ca",
          "blockNumber": "0xfa7a86",
          "transactionHash": "0xb5a8ef0ebccaad0b4203729b11abc4c36444ea913d09bc4904a2b1dc3f1bbc04",
          "transactionIndex": "0x5a",
          "logIndex": "0x11c",
          "removed": false
        },
        {
          "address": "0x1a44076050125825900e736c501f859c50fe728c",
          "topics": [
            "0x1ab700d4ced0c005b164c0f789fd09fcbb0156d4c2041b8a3bfbcd961cd1567f"
          ],
          "data": "0x00000000000000000000000000000000000000000000000000000000000000600000000000000000000000000000000000000000000000000000000000000120000000000000000000000000b5320b0b3a13cc860893e2bd79fcd7e13484dda20000000000000000000000000000000000000000000000000000000000000099010000000000000001000075e8000000000000000000000000909dbde1ebe906af95660033e478d59efe831fed00007623000000000000000000000000909dbde1ebe906af95660033e478d59efe831fed943a1bd8e2915680bd25f6879f998b83359eac8191a77575df9ff22ca27600a1000000000000000000000000b0e1650a9760e0f383174af042091fc544b8356f000000000000000a00000000000000000000000000000000000000000000000000000000000000000000000000001600030100110100000000000000000000000000030d4000000000000000000000",
          "blockHash": "0x027ebf81f910110e831400c68deeda443efb01f66a31a08722d79daf1ba163ca",
          "blockNumber": "0xfa7a86",
          "transactionHash": "0xb5a8ef0ebccaad0b4203729b11abc4c36444ea913d09bc4904a2b1dc3f1bbc04",
          "transactionIndex": "0x5a",
          "logIndex": "0x11d",
          "removed": false
        },
        {
          "address": "0x909dbde1ebe906af95660033e478d59efe831fed",
          "topics": [
            "0x85496b760a4b7f8d66384b9df21b381f5d1b1e79f229a47aaf4c232edc2fe59a",
            "0x943a1bd8e2915680bd25f6879f998b83359eac8191a77575df9ff22ca27600a1",
            "0x000000000000000000000000b0e1650a9760e0f383174af042091fc544b8356f"
          ],
          "data": "0x0000000000000000000000000000000000000000000000000000000000007623000000000000000000000000000000000000000000000000000009184e72a000000000000000000000000000000000000000000000000000000009184e72a000",
          "blockHash": "0x027ebf81f910110e831400c68deeda443efb01f66a31a08722d79daf1ba163ca",
          "blockNumber": "0xfa7a86",
          "transactionHash": "0xb5a8ef0ebccaad0b4203729b11abc4c36444ea913d09bc4904a2b1dc3f1bbc04",
          "transactionIndex": "0x5a",
          "logIndex": "0x11e",
          "removed": false
        }
      ],
      "logsBloom": "0x00000000000000000000000002000000000000000000000040000000001000000000000000000000000000000000000000000000002000001000000000000000000002000000000000000408000000000000000000000000000000000000000100000000020000008002000000000800000000000110080000000010000000000000000000000000000000080000000000000000000000000004000000000000000000008000000000100000000000000000000000400000000440000000000000000002000000000000000080000000000000000000000000000000000020000000040080000000000000000000002000000000018000000000000000000000",
      "type": "0x2",
      "transactionHash": "0xb5a8ef0ebccaad0b4203729b11abc4c36444ea913d09bc4904a2b1dc3f1bbc04",
      "transactionIndex": "0x5a",
      "blockHash": "0x027ebf81f910110e831400c68deeda443efb01f66a31a08722d79daf1ba163ca",
      "blockNumber": "0xfa7a86",
      "gasUsed": "0x45a66",
      "effectiveGasPrice": "0x20ed47",
      "from": "0xb0e1650a9760e0f383174af042091fc544b8356f",
      "to": "0x909dbde1ebe906af95660033e478d59efe831fed",
      "contractAddress": null,
      "l1BaseFeeScalar": "0x58a",
      "l1BlobBaseFee": "0x1",
      "l1BlobBaseFeeScalar": "0xa118b",
      "l1Fee": "0x2910e5ba9",
      "l1GasPrice": "0x638549bf",
      "l1GasUsed": "0x1230"
    },
    {
      "status": "0x1",
      "cumulativeGasUsed": "0xf55665",
      "logs": [
        {
          "address": "0x23432452b720c80553458496d4d9d7c5003280d0",
          "topics": [
            "0xddf252ad1be2c89b69c2b068fc378daa952ba7f163c4a11628f55a4df523b3ef",
            "0x000000000000000000000000b0e1650a9760e0f383174af042091fc544b8356f",
            "0x0000000000000000000000000000000000000000000000000000000000000000"
          ],
          "data": "0x000000000000000000000000000000000000000000000000000009184e72a000",
          "blockHash": "0x027ebf81f910110e831400c68deeda443efb01f66a31a08722d79daf1ba163ca",
          "blockNumber": "0xfa7a86",
          "transactionHash": "0x17d2be6a3087a8888b8b395053f4f76925cac609aad00fafd8a735a557a1042c",
          "transactionIndex": "0x5b",
          "logIndex": "0x11f",
          "removed": false
        },
        {
          "address": "0xb5320b0b3a13cc860893e2bd79fcd7e13484dda2",
          "topics": [
            "0x61ed099e74a97a1d7f8bb0952a88ca8b7b8ebd00c126ea04671f92a81213318a"
          ],
          "data": "0x0000000000000000000000002cca08ae69e0c44b18a57ab2a87644234daebae400000000000000000000000000000000000000000000000000003f99ffe1314d",
          "blockHash": "0x027ebf81f910110e831400c68deeda443efb01f66a31a08722d79daf1ba163ca",
          "blockNumber": "0xfa7a86",
          "transactionHash": "0x17d2be6a3087a8888b8b395053f4f76925cac609aad00fafd8a735a557a1042c",
          "transactionIndex": "0x5b",
          "logIndex": "0x120",
          "removed": false
        },
        {
          "address": "0xb5320b0b3a13cc860893e2bd79fcd7e13484dda2",
          "topics": [
            "0x07ea52d82345d6e838192107d8fd7123d9c2ec8e916cd0aad13fd2b60db24644"
          ],
          "data": "0x000000000000000000000000000000000000000000000000000000000000006000000000000000000000000000000000000000000000000000000000000000c000000000000000000000000000000000000000000000000000000000000000e000000000000000000000000000000000000000000000000000000000000000020000000000000000000000009e059a54699a285714207b43b055483e78faac25000000000000000000000000a7b5189bca84cd304d8553977c7c614329750d990000000000000000000000000000000000000000000000000000000000000000000000000000000000000000000000000000000000000000000000000000000200000000000000000000000000000000000000000000000000000825a99e45c900000000000000000000000000000000000000000000000000000825a99e45c9",
          "blockHash": "0x027ebf81f910110e831400c68deeda443efb01f66a31a08722d79daf1ba163ca",
          "blockNumber": "0xfa7a86",
          "transactionHash": "0x17d2be6a3087a8888b8b395053f4f76925cac609aad00fafd8a735a557a1042c",
          "transactionIndex": "0x5b",
          "logIndex": "0x121",
          "removed": false
        },
        {
          "address": "0x1a44076050125825900e736c501f859c50fe728c",
          "topics": [
            "0x1ab700d4ced0c005b164c0f789fd09fcbb0156d4c2041b8a3bfbcd961cd1567f"
          ],
          "data": "0x00000000000000000000000000000000000000000000000000000000000000600000000000000000000000000000000000000000000000000000000000000120000000000000000000000000b5320b0b3a13cc860893e2bd79fcd7e13484dda20000000000000000000000000000000000000000000000000000000000000099010000000000000008000075e800000000000000000000000023432452b720c80553458496d4d9d7c5003280d0000075c700000000000000000000000023432452b720c80553458496d4d9d7c5003280d0b685e1125f367184f7027a2475f06a23e63e074304cccc5ba56811c2cbca59b8000000000000000000000000b0e1650a9760e0f383174af042091fc544b8356f000000000000000a00000000000000000000000000000000000000000000000000000000000000000000000000001600030100110100000000000000000000000000030d4000000000000000000000",
          "blockHash": "0x027ebf81f910110e831400c68deeda443efb01f66a31a08722d79daf1ba163ca",
          "blockNumber": "0xfa7a86",
          "transactionHash": "0x17d2be6a3087a8888b8b395053f4f76925cac609aad00fafd8a735a557a1042c",
          "transactionIndex": "0x5b",
          "logIndex": "0x122",
          "removed": false
        },
        {
          "address": "0x23432452b720c80553458496d4d9d7c5003280d0",
          "topics": [
            "0x85496b760a4b7f8d66384b9df21b381f5d1b1e79f229a47aaf4c232edc2fe59a",
            "0xb685e1125f367184f7027a2475f06a23e63e074304cccc5ba56811c2cbca59b8",
            "0x000000000000000000000000b0e1650a9760e0f383174af042091fc544b8356f"
          ],
          "data": "0x00000000000000000000000000000000000000000000000000000000000075c7000000000000000000000000000000000000000000000000000009184e72a000000000000000000000000000000000000000000000000000000009184e72a000",
          "blockHash": "0x027ebf81f910110e831400c68deeda443efb01f66a31a08722d79daf1ba163ca",
          "blockNumber": "0xfa7a86",
          "transactionHash": "0x17d2be6a3087a8888b8b395053f4f76925cac609aad00fafd8a735a557a1042c",
          "transactionIndex": "0x5b",
          "logIndex": "0x123",
          "removed": false
        }
      ],
      "logsBloom": "0x00004000040000000000000000000000000000000000000000000000001000000000000000000000000000000000000000000000000000000000000000000000000002000000000000000408000000000000000000000000000000000000000100000000020000008000000000000800000000000110080000000010000000000000000000000000000000080000000000000000000020000004000000000000000000008000100000100000000000000000000000400000000440000000000000000002000000000000000080000000000000000000000000000000000020000000040080000000000000000000002000000000018000008000000000004000",
      "type": "0x2",
      "transactionHash": "0x17d2be6a3087a8888b8b395053f4f76925cac609aad00fafd8a735a557a1042c",
      "transactionIndex": "0x5b",
      "blockHash": "0x027ebf81f910110e831400c68deeda443efb01f66a31a08722d79daf1ba163ca",
      "blockNumber": "0xfa7a86",
      "gasUsed": "0x3fd82",
      "effectiveGasPrice": "0x20ed47",
      "from": "0xb0e1650a9760e0f383174af042091fc544b8356f",
      "to": "0x23432452b720c80553458496d4d9d7c5003280d0",
      "contractAddress": null,
      "l1BaseFeeScalar": "0x58a",
      "l1BlobBaseFee": "0x1",
      "l1BlobBaseFeeScalar": "0xa118b",
      "l1Fee": "0x292bfe12c",
      "l1GasPrice": "0x638549bf",
      "l1GasUsed": "0x123c"
    },
    {
      "status": "0x1",
      "cumulativeGasUsed": "0xf953e7",
      "logs": [
        {
          "address": "0xe4796ccb6bb5de2290c417ac337f2b66ca2e770e",
          "topics": [
            "0xddf252ad1be2c89b69c2b068fc378daa952ba7f163c4a11628f55a4df523b3ef",
            "0x000000000000000000000000b0e1650a9760e0f383174af042091fc544b8356f",
            "0x0000000000000000000000000000000000000000000000000000000000000000"
          ],
          "data": "0x000000000000000000000000000000000000000000000000000009184e72a000",
          "blockHash": "0x027ebf81f910110e831400c68deeda443efb01f66a31a08722d79daf1ba163ca",
          "blockNumber": "0xfa7a86",
          "transactionHash": "0x301796fb6df1636f08bcf1088c0842c39ae32f0d14678efa4e275f0321eba321",
          "transactionIndex": "0x5c",
          "logIndex": "0x124",
          "removed": false
        },
        {
          "address": "0xb5320b0b3a13cc860893e2bd79fcd7e13484dda2",
          "topics": [
            "0x61ed099e74a97a1d7f8bb0952a88ca8b7b8ebd00c126ea04671f92a81213318a"
          ],
          "data": "0x0000000000000000000000002cca08ae69e0c44b18a57ab2a87644234daebae400000000000000000000000000000000000000000000000000003f99ffe1314d",
          "blockHash": "0x027ebf81f910110e831400c68deeda443efb01f66a31a08722d79daf1ba163ca",
          "blockNumber": "0xfa7a86",
          "transactionHash": "0x301796fb6df1636f08bcf1088c0842c39ae32f0d14678efa4e275f0321eba321",
          "transactionIndex": "0x5c",
          "logIndex": "0x125",
          "removed": false
        },
        {
          "address": "0xb5320b0b3a13cc860893e2bd79fcd7e13484dda2",
          "topics": [
            "0x07ea52d82345d6e838192107d8fd7123d9c2ec8e916cd0aad13fd2b60db24644"
          ],
          "data": "0x000000000000000000000000000000000000000000000000000000000000006000000000000000000000000000000000000000000000000000000000000000c000000000000000000000000000000000000000000000000000000000000000e000000000000000000000000000000000000000000000000000000000000000020000000000000000000000009e059a54699a285714207b43b055483e78faac25000000000000000000000000a7b5189bca84cd304d8553977c7c614329750d990000000000000000000000000000000000000000000000000000000000000000000000000000000000000000000000000000000000000000000000000000000200000000000000000000000000000000000000000000000000000825a99e45c900000000000000000000000000000000000000000000000000000825a99e45c9",
          "blockHash": "0x027ebf81f910110e831400c68deeda443efb01f66a31a08722d79daf1ba163ca",
          "blockNumber": "0xfa7a86",
          "transactionHash": "0x301796fb6df1636f08bcf1088c0842c39ae32f0d14678efa4e275f0321eba321",
          "transactionIndex": "0x5c",
          "logIndex": "0x126",
          "removed": false
        },
        {
          "address": "0x1a44076050125825900e736c501f859c50fe728c",
          "topics": [
            "0x1ab700d4ced0c005b164c0f789fd09fcbb0156d4c2041b8a3bfbcd961cd1567f"
          ],
          "data": "0x00000000000000000000000000000000000000000000000000000000000000600000000000000000000000000000000000000000000000000000000000000120000000000000000000000000b5320b0b3a13cc860893e2bd79fcd7e13484dda20000000000000000000000000000000000000000000000000000000000000099010000000000000009000075e8000000000000000000000000e4796ccb6bb5de2290c417ac337f2b66ca2e770e000075c7000000000000000000000000e4796ccb6bb5de2290c417ac337f2b66ca2e770eb7aeab8155f2d33b0cde443527ca7ffc5ed7cd6b9086db6d19d49bdaf3dca224000000000000000000000000b0e1650a9760e0f383174af042091fc544b8356f000000000000000a00000000000000000000000000000000000000000000000000000000000000000000000000001600030100110100000000000000000000000000030d4000000000000000000000",
          "blockHash": "0x027ebf81f910110e831400c68deeda443efb01f66a31a08722d79daf1ba163ca",
          "blockNumber": "0xfa7a86",
          "transactionHash": "0x301796fb6df1636f08bcf1088c0842c39ae32f0d14678efa4e275f0321eba321",
          "transactionIndex": "0x5c",
          "logIndex": "0x127",
          "removed": false
        },
        {
          "address": "0xe4796ccb6bb5de2290c417ac337f2b66ca2e770e",
          "topics": [
            "0x85496b760a4b7f8d66384b9df21b381f5d1b1e79f229a47aaf4c232edc2fe59a",
            "0xb7aeab8155f2d33b0cde443527ca7ffc5ed7cd6b9086db6d19d49bdaf3dca224",
            "0x000000000000000000000000b0e1650a9760e0f383174af042091fc544b8356f"
          ],
          "data": "0x00000000000000000000000000000000000000000000000000000000000075c7000000000000000000000000000000000000000000000000000009184e72a000000000000000000000000000000000000000000000000000000009184e72a000",
          "blockHash": "0x027ebf81f910110e831400c68deeda443efb01f66a31a08722d79daf1ba163ca",
          "blockNumber": "0xfa7a86",
          "transactionHash": "0x301796fb6df1636f08bcf1088c0842c39ae32f0d14678efa4e275f0321eba321",
          "transactionIndex": "0x5c",
          "logIndex": "0x128",
          "removed": false
        }
      ],
      "logsBloom": "0x00000000000000000000000000000000000000000000000000000000001000000000000000000000000000000000000000000000000000000000000000000000000002000000000000000408000000000004000000000000002000000000000100400000020000008000000000000800000000000110080000000010000000000000000000000000000000080020000000000000000000000004000000000000000000008000000000100000000000000002000000400000000440000000000000000002000000000000000080000000000000000000000000000000000020000000040080000000000000000000002000000000018000000000000000001000",
      "type": "0x2",
      "transactionHash": "0x301796fb6df1636f08bcf1088c0842c39ae32f0d14678efa4e275f0321eba321",
      "transactionIndex": "0x5c",
      "blockHash": "0x027ebf81f910110e831400c68deeda443efb01f66a31a08722d79daf1ba163ca",
      "blockNumber": "0xfa7a86",
      "gasUsed": "0x3fd82",
      "effectiveGasPrice": "0x20ed47",
      "from": "0xb0e1650a9760e0f383174af042091fc544b8356f",
      "to": "0xe4796ccb6bb5de2290c417ac337f2b66ca2e770e",
      "contractAddress": null,
      "l1BaseFeeScalar": "0x58a",
      "l1BlobBaseFee": "0x1",
      "l1BlobBaseFeeScalar": "0xa118b",
      "l1Fee": "0x2947166b0",
      "l1GasPrice": "0x638549bf",
      "l1GasUsed": "0x1248"
    },
    {
      "status": "0x1",
      "cumulativeGasUsed": "0xfd5169",
      "logs": [
        {
          "address": "0x1f55a02a049033e3419a8e2975cf3f572f4e6e9a",
          "topics": [
            "0xddf252ad1be2c89b69c2b068fc378daa952ba7f163c4a11628f55a4df523b3ef",
            "0x000000000000000000000000b0e1650a9760e0f383174af042091fc544b8356f",
            "0x0000000000000000000000000000000000000000000000000000000000000000"
          ],
          "data": "0x000000000000000000000000000000000000000000000000000009184e72a000",
          "blockHash": "0x027ebf81f910110e831400c68deeda443efb01f66a31a08722d79daf1ba163ca",
          "blockNumber": "0xfa7a86",
          "transactionHash": "0x4848540824e5d63822c03605a996c9f375794a246a1a5af803e5599c79ce2809",
          "transactionIndex": "0x5d",
          "logIndex": "0x129",
          "removed": false
        },
        {
          "address": "0xb5320b0b3a13cc860893e2bd79fcd7e13484dda2",
          "topics": [
            "0x61ed099e74a97a1d7f8bb0952a88ca8b7b8ebd00c126ea04671f92a81213318a"
          ],
          "data": "0x0000000000000000000000002cca08ae69e0c44b18a57ab2a87644234daebae400000000000000000000000000000000000000000000000000003f99ffe1314d",
          "blockHash": "0x027ebf81f910110e831400c68deeda443efb01f66a31a08722d79daf1ba163ca",
          "blockNumber": "0xfa7a86",
          "transactionHash": "0x4848540824e5d63822c03605a996c9f375794a246a1a5af803e5599c79ce2809",
          "transactionIndex": "0x5d",
          "logIndex": "0x12a",
          "removed": false
        },
        {
          "address": "0xb5320b0b3a13cc860893e2bd79fcd7e13484dda2",
          "topics": [
            "0x07ea52d82345d6e838192107d8fd7123d9c2ec8e916cd0aad13fd2b60db24644"
          ],
          "data": "0x000000000000000000000000000000000000000000000000000000000000006000000000000000000000000000000000000000000000000000000000000000c000000000000000000000000000000000000000000000000000000000000000e000000000000000000000000000000000000000000000000000000000000000020000000000000000000000009e059a54699a285714207b43b055483e78faac25000000000000000000000000a7b5189bca84cd304d8553977c7c614329750d990000000000000000000000000000000000000000000000000000000000000000000000000000000000000000000000000000000000000000000000000000000200000000000000000000000000000000000000000000000000000825a99e45c900000000000000000000000000000000000000000000000000000825a99e45c9",
          "blockHash": "0x027ebf81f910110e831400c68deeda443efb01f66a31a08722d79daf1ba163ca",
          "blockNumber": "0xfa7a86",
          "transactionHash": "0x4848540824e5d63822c03605a996c9f375794a246a1a5af803e5599c79ce2809",
          "transactionIndex": "0x5d",
          "logIndex": "0x12b",
          "removed": false
        },
        {
          "address": "0x1a44076050125825900e736c501f859c50fe728c",
          "topics": [
            "0x1ab700d4ced0c005b164c0f789fd09fcbb0156d4c2041b8a3bfbcd961cd1567f"
          ],
          "data": "0x00000000000000000000000000000000000000000000000000000000000000600000000000000000000000000000000000000000000000000000000000000120000000000000000000000000b5320b0b3a13cc860893e2bd79fcd7e13484dda2000000000000000000000000000000000000000000000000000000000000009901000000000000002a000075e80000000000000000000000001f55a02a049033e3419a8e2975cf3f572f4e6e9a000075c70000000000000000000000001f55a02a049033e3419a8e2975cf3f572f4e6e9a9d6f7451eae8c7d4bd43730541a5c328ac7203aa0ad08b4cac36e33d01271322000000000000000000000000b0e1650a9760e0f383174af042091fc544b8356f000000000000000a00000000000000000000000000000000000000000000000000000000000000000000000000001600030100110100000000000000000000000000030d4000000000000000000000",
          "blockHash": "0x027ebf81f910110e831400c68deeda443efb01f66a31a08722d79daf1ba163ca",
          "blockNumber": "0xfa7a86",
          "transactionHash": "0x4848540824e5d63822c03605a996c9f375794a246a1a5af803e5599c79ce2809",
          "transactionIndex": "0x5d",
          "logIndex": "0x12c",
          "removed": false
        },
        {
          "address": "0x1f55a02a049033e3419a8e2975cf3f572f4e6e9a",
          "topics": [
            "0x85496b760a4b7f8d66384b9df21b381f5d1b1e79f229a47aaf4c232edc2fe59a",
            "0x9d6f7451eae8c7d4bd43730541a5c328ac7203aa0ad08b4cac36e33d01271322",
            "0x000000000000000000000000b0e1650a9760e0f383174af042091fc544b8356f"
          ],
          "data": "0x00000000000000000000000000000000000000000000000000000000000075c7000000000000000000000000000000000000000000000000000009184e72a000000000000000000000000000000000000000000000000000000009184e72a000",
          "blockHash": "0x027ebf81f910110e831400c68deeda443efb01f66a31a08722d79daf1ba163ca",
          "blockNumber": "0xfa7a86",
          "transactionHash": "0x4848540824e5d63822c03605a996c9f375794a246a1a5af803e5599c79ce2809",
          "transactionIndex": "0x5d",
          "logIndex": "0x12d",
          "removed": false
        }
      ],
      "logsBloom": "0x00000000100000000000000000000000000000000000000000000000001000000000000000000000000000000000000000000000000000000000000000000000000002000000000000000408000000000000000000000000000000000000000100000000020000008000000000000800000000000110080000000010000000000000000000000010000000080000000000000000000000000004000000000000010000008000000000100000000000000000000000400100000440000000000000000002000000000000080080000000000000000000000000000000000020800000040080000000000000000000002000000000018000000000000000000000",
      "type": "0x2",
      "transactionHash": "0x4848540824e5d63822c03605a996c9f375794a246a1a5af803e5599c79ce2809",
      "transactionIndex": "0x5d",
      "blockHash": "0x027ebf81f910110e831400c68deeda443efb01f66a31a08722d79daf1ba163ca",
      "blockNumber": "0xfa7a86",
      "gasUsed": "0x3fd82",
      "effectiveGasPrice": "0x20ed47",
      "from": "0xb0e1650a9760e0f383174af042091fc544b8356f",
      "to": "0x1f55a02a049033e3419a8e2975cf3f572f4e6e9a",
      "contractAddress": null,
      "l1BaseFeeScalar": "0x58a",
      "l1BlobBaseFee": "0x1",
      "l1BlobBaseFeeScalar": "0xa118b",
      "l1Fee": "0x2947166b0",
      "l1GasPrice": "0x638549bf",
      "l1GasUsed": "0x1248"
    },
    {
      "status": "0x1",
      "cumulativeGasUsed": "0x1014eeb",
      "logs": [
        {
          "address": "0x909dbde1ebe906af95660033e478d59efe831fed",
          "topics": [
            "0xddf252ad1be2c89b69c2b068fc378daa952ba7f163c4a11628f55a4df523b3ef",
            "0x000000000000000000000000b0e1650a9760e0f383174af042091fc544b8356f",
            "0x0000000000000000000000000000000000000000000000000000000000000000"
          ],
          "data": "0x000000000000000000000000000000000000000000000000000009184e72a000",
          "blockHash": "0x027ebf81f910110e831400c68deeda443efb01f66a31a08722d79daf1ba163ca",
          "blockNumber": "0xfa7a86",
          "transactionHash": "0x3b185425555711f6757ce50e8cf8a1231bfceaf20ef95d45cc5d7facfa924995",
          "transactionIndex": "0x5e",
          "logIndex": "0x12e",
          "removed": false
        },
        {
          "address": "0xb5320b0b3a13cc860893e2bd79fcd7e13484dda2",
          "topics": [
            "0x61ed099e74a97a1d7f8bb0952a88ca8b7b8ebd00c126ea04671f92a81213318a"
          ],
          "data": "0x0000000000000000000000002cca08ae69e0c44b18a57ab2a87644234daebae400000000000000000000000000000000000000000000000000003f99ffe1314d",
          "blockHash": "0x027ebf81f910110e831400c68deeda443efb01f66a31a08722d79daf1ba163ca",
          "blockNumber": "0xfa7a86",
          "transactionHash": "0x3b185425555711f6757ce50e8cf8a1231bfceaf20ef95d45cc5d7facfa924995",
          "transactionIndex": "0x5e",
          "logIndex": "0x12f",
          "removed": false
        },
        {
          "address": "0xb5320b0b3a13cc860893e2bd79fcd7e13484dda2",
          "topics": [
            "0x07ea52d82345d6e838192107d8fd7123d9c2ec8e916cd0aad13fd2b60db24644"
          ],
          "data": "0x000000000000000000000000000000000000000000000000000000000000006000000000000000000000000000000000000000000000000000000000000000c000000000000000000000000000000000000000000000000000000000000000e000000000000000000000000000000000000000000000000000000000000000020000000000000000000000009e059a54699a285714207b43b055483e78faac25000000000000000000000000a7b5189bca84cd304d8553977c7c614329750d990000000000000000000000000000000000000000000000000000000000000000000000000000000000000000000000000000000000000000000000000000000200000000000000000000000000000000000000000000000000000825a99e45c900000000000000000000000000000000000000000000000000000825a99e45c9",
          "blockHash": "0x027ebf81f910110e831400c68deeda443efb01f66a31a08722d79daf1ba163ca",
          "blockNumber": "0xfa7a86",
          "transactionHash": "0x3b185425555711f6757ce50e8cf8a1231bfceaf20ef95d45cc5d7facfa924995",
          "transactionIndex": "0x5e",
          "logIndex": "0x130",
          "removed": false
        },
        {
          "address": "0x1a44076050125825900e736c501f859c50fe728c",
          "topics": [
            "0x1ab700d4ced0c005b164c0f789fd09fcbb0156d4c2041b8a3bfbcd961cd1567f"
          ],
          "data": "0x00000000000000000000000000000000000000000000000000000000000000600000000000000000000000000000000000000000000000000000000000000120000000000000000000000000b5320b0b3a13cc860893e2bd79fcd7e13484dda20000000000000000000000000000000000000000000000000000000000000099010000000000000002000075e8000000000000000000000000909dbde1ebe906af95660033e478d59efe831fed000075c7000000000000000000000000909dbde1ebe906af95660033e478d59efe831fed714a7f60e6095ac04f6efb7625ee3de8842d9bed203102775a717f23c9c26f0f000000000000000000000000b0e1650a9760e0f383174af042091fc544b8356f000000000000000a00000000000000000000000000000000000000000000000000000000000000000000000000001600030100110100000000000000000000000000030d4000000000000000000000",
          "blockHash": "0x027ebf81f910110e831400c68deeda443efb01f66a31a08722d79daf1ba163ca",
          "blockNumber": "0xfa7a86",
          "transactionHash": "0x3b185425555711f6757ce50e8cf8a1231bfceaf20ef95d45cc5d7facfa924995",
          "transactionIndex": "0x5e",
          "logIndex": "0x131",
          "removed": false
        },
        {
          "address": "0x909dbde1ebe906af95660033e478d59efe831fed",
          "topics": [
            "0x85496b760a4b7f8d66384b9df21b381f5d1b1e79f229a47aaf4c232edc2fe59a",
            "0x714a7f60e6095ac04f6efb7625ee3de8842d9bed203102775a717f23c9c26f0f",
            "0x000000000000000000000000b0e1650a9760e0f383174af042091fc544b8356f"
          ],
          "data": "0x00000000000000000000000000000000000000000000000000000000000075c7000000000000000000000000000000000000000000000000000009184e72a000000000000000000000000000000000000000000000000000000009184e72a000",
          "blockHash": "0x027ebf81f910110e831400c68deeda443efb01f66a31a08722d79daf1ba163ca",
          "blockNumber": "0xfa7a86",
          "transactionHash": "0x3b185425555711f6757ce50e8cf8a1231bfceaf20ef95d45cc5d7facfa924995",
          "transactionIndex": "0x5e",
          "logIndex": "0x132",
          "removed": false
        }
      ],
      "logsBloom": "0x00000000000000000000000002000000000000000000000000000000001000000000000000000000000000000000000000000000002000000000000000000000000002000000000000000408000000000000000000000000000000000000000100000000020000008002000000000800000000000110080000000010000000000000000000000000000000080000000010000000000000000004000000000000000000008000000000100000000000000000000000400000000440000000000000000002000000000000000080000000000000000000000000000000000020000200040080000000000000000000002000000000018000000008000000000000",
      "type": "0x2",
      "transactionHash": "0x3b185425555711f6757ce50e8cf8a1231bfceaf20ef95d45cc5d7facfa924995",
      "transactionIndex": "0x5e",
      "blockHash": "0x027ebf81f910110e831400c68deeda443efb01f66a31a08722d79daf1ba163ca",
      "blockNumber": "0xfa7a86",
      "gasUsed": "0x3fd82",
      "effectiveGasPrice": "0x20ed47",
      "from": "0xb0e1650a9760e0f383174af042091fc544b8356f",
      "to": "0x909dbde1ebe906af95660033e478d59efe831fed",
      "contractAddress": null,
      "l1BaseFeeScalar": "0x58a",
      "l1BlobBaseFee": "0x1",
      "l1BlobBaseFeeScalar": "0xa118b",
      "l1Fee": "0x292bfe12c",
      "l1GasPrice": "0x638549bf",
      "l1GasUsed": "0x123c"
    },
    {
      "status": "0x1",
      "cumulativeGasUsed": "0x1054c6d",
      "logs": [
        {
          "address": "0x23432452b720c80553458496d4d9d7c5003280d0",
          "topics": [
            "0xddf252ad1be2c89b69c2b068fc378daa952ba7f163c4a11628f55a4df523b3ef",
            "0x000000000000000000000000b0e1650a9760e0f383174af042091fc544b8356f",
            "0x0000000000000000000000000000000000000000000000000000000000000000"
          ],
          "data": "0x000000000000000000000000000000000000000000000000000009184e72a000",
          "blockHash": "0x027ebf81f910110e831400c68deeda443efb01f66a31a08722d79daf1ba163ca",
          "blockNumber": "0xfa7a86",
          "transactionHash": "0x8be9ee234e0bed0592ee771abd733b00f1a1bca5e3106a1c9676ed3358bd7873",
          "transactionIndex": "0x5f",
          "logIndex": "0x133",
          "removed": false
        },
        {
          "address": "0xb5320b0b3a13cc860893e2bd79fcd7e13484dda2",
          "topics": [
            "0x61ed099e74a97a1d7f8bb0952a88ca8b7b8ebd00c126ea04671f92a81213318a"
          ],
          "data": "0x0000000000000000000000002cca08ae69e0c44b18a57ab2a87644234daebae40000000000000000000000000000000000000000000000000000082a2805899d",
          "blockHash": "0x027ebf81f910110e831400c68deeda443efb01f66a31a08722d79daf1ba163ca",
          "blockNumber": "0xfa7a86",
          "transactionHash": "0x8be9ee234e0bed0592ee771abd733b00f1a1bca5e3106a1c9676ed3358bd7873",
          "transactionIndex": "0x5f",
          "logIndex": "0x134",
          "removed": false
        },
        {
          "address": "0xb5320b0b3a13cc860893e2bd79fcd7e13484dda2",
          "topics": [
            "0x07ea52d82345d6e838192107d8fd7123d9c2ec8e916cd0aad13fd2b60db24644"
          ],
          "data": "0x000000000000000000000000000000000000000000000000000000000000006000000000000000000000000000000000000000000000000000000000000000c000000000000000000000000000000000000000000000000000000000000000e000000000000000000000000000000000000000000000000000000000000000020000000000000000000000009e059a54699a285714207b43b055483e78faac25000000000000000000000000a7b5189bca84cd304d8553977c7c614329750d9900000000000000000000000000000000000000000000000000000000000000000000000000000000000000000000000000000000000000000000000000000002000000000000000000000000000000000000000000000000000000266e657bf0000000000000000000000000000000000000000000000000000000266e657bf0",
          "blockHash": "0x027ebf81f910110e831400c68deeda443efb01f66a31a08722d79daf1ba163ca",
          "blockNumber": "0xfa7a86",
          "transactionHash": "0x8be9ee234e0bed0592ee771abd733b00f1a1bca5e3106a1c9676ed3358bd7873",
          "transactionIndex": "0x5f",
          "logIndex": "0x135",
          "removed": false
        },
        {
          "address": "0x1a44076050125825900e736c501f859c50fe728c",
          "topics": [
            "0x1ab700d4ced0c005b164c0f789fd09fcbb0156d4c2041b8a3bfbcd961cd1567f"
          ],
          "data": "0x00000000000000000000000000000000000000000000000000000000000000600000000000000000000000000000000000000000000000000000000000000120000000000000000000000000b5320b0b3a13cc860893e2bd79fcd7e13484dda20000000000000000000000000000000000000000000000000000000000000099010000000000000002000075e800000000000000000000000023432452b720c80553458496d4d9d7c5003280d00000763400000000000000000000000064445f0aecc51e94ad52d8ac56b7190e764e561adbd11fcf6d4c092cec35a34ccc99cdf3ec30ef2e3d31d334e2c861b502e54bdb000000000000000000000000b0e1650a9760e0f383174af042091fc544b8356f000000000000000a00000000000000000000000000000000000000000000000000000000000000000000000000001600030100110100000000000000000000000000030d4000000000000000000000",
          "blockHash": "0x027ebf81f910110e831400c68deeda443efb01f66a31a08722d79daf1ba163ca",
          "blockNumber": "0xfa7a86",
          "transactionHash": "0x8be9ee234e0bed0592ee771abd733b00f1a1bca5e3106a1c9676ed3358bd7873",
          "transactionIndex": "0x5f",
          "logIndex": "0x136",
          "removed": false
        },
        {
          "address": "0x23432452b720c80553458496d4d9d7c5003280d0",
          "topics": [
            "0x85496b760a4b7f8d66384b9df21b381f5d1b1e79f229a47aaf4c232edc2fe59a",
            "0xdbd11fcf6d4c092cec35a34ccc99cdf3ec30ef2e3d31d334e2c861b502e54bdb",
            "0x000000000000000000000000b0e1650a9760e0f383174af042091fc544b8356f"
          ],
          "data": "0x0000000000000000000000000000000000000000000000000000000000007634000000000000000000000000000000000000000000000000000009184e72a000000000000000000000000000000000000000000000000000000009184e72a000",
          "blockHash": "0x027ebf81f910110e831400c68deeda443efb01f66a31a08722d79daf1ba163ca",
          "blockNumber": "0xfa7a86",
          "transactionHash": "0x8be9ee234e0bed0592ee771abd733b00f1a1bca5e3106a1c9676ed3358bd7873",
          "transactionIndex": "0x5f",
          "logIndex": "0x137",
          "removed": false
        }
      ],
      "logsBloom": "0x00000000000000000000000000000000000000000000000000008000001000000000000000000000000000000000000000000020000000000000000000000000000002000000000000000408000000000000000000000000000000000000000100000000020000008000000000000800000000000110080000000010000000000000000000000000000000080000000000000000000020000004000000000000000000008000000000100000000000000000000001400000000440000000000000000002000000000000000080000000000000000000000000000000000020000000040080000000000000000000002000000000018000008000000000004000",
      "type": "0x2",
      "transactionHash": "0x8be9ee234e0bed0592ee771abd733b00f1a1bca5e3106a1c9676ed3358bd7873",
      "transactionIndex": "0x5f",
      "blockHash": "0x027ebf81f910110e831400c68deeda443efb01f66a31a08722d79daf1ba163ca",
      "blockNumber": "0xfa7a86",
      "gasUsed": "0x3fd82",
      "effectiveGasPrice": "0x20ed47",
      "from": "0xb0e1650a9760e0f383174af042091fc544b8356f",
      "to": "0x23432452b720c80553458496d4d9d7c5003280d0",
      "contractAddress": null,
      "l1BaseFeeScalar": "0x58a",
      "l1BlobBaseFee": "0x1",
      "l1BlobBaseFeeScalar": "0xa118b",
      "l1Fee": "0x292bfe12c",
      "l1GasPrice": "0x638549bf",
      "l1GasUsed": "0x123c"
    },
    {
      "status": "0x1",
      "cumulativeGasUsed": "0x10949ef",
      "logs": [
        {
          "address": "0xe4796ccb6bb5de2290c417ac337f2b66ca2e770e",
          "topics": [
            "0xddf252ad1be2c89b69c2b068fc378daa952ba7f163c4a11628f55a4df523b3ef",
            "0x000000000000000000000000b0e1650a9760e0f383174af042091fc544b8356f",
            "0x0000000000000000000000000000000000000000000000000000000000000000"
          ],
          "data": "0x000000000000000000000000000000000000000000000000000009184e72a000",
          "blockHash": "0x027ebf81f910110e831400c68deeda443efb01f66a31a08722d79daf1ba163ca",
          "blockNumber": "0xfa7a86",
          "transactionHash": "0x3533e4fdd26fdb73fc55337a8dfdcc5b3fd45cfb421126632a4473bcb57b4ca7",
          "transactionIndex": "0x60",
          "logIndex": "0x138",
          "removed": false
        },
        {
          "address": "0xb5320b0b3a13cc860893e2bd79fcd7e13484dda2",
          "topics": [
            "0x61ed099e74a97a1d7f8bb0952a88ca8b7b8ebd00c126ea04671f92a81213318a"
          ],
          "data": "0x0000000000000000000000002cca08ae69e0c44b18a57ab2a87644234daebae40000000000000000000000000000000000000000000000000000082a2805899d",
          "blockHash": "0x027ebf81f910110e831400c68deeda443efb01f66a31a08722d79daf1ba163ca",
          "blockNumber": "0xfa7a86",
          "transactionHash": "0x3533e4fdd26fdb73fc55337a8dfdcc5b3fd45cfb421126632a4473bcb57b4ca7",
          "transactionIndex": "0x60",
          "logIndex": "0x139",
          "removed": false
        },
        {
          "address": "0xb5320b0b3a13cc860893e2bd79fcd7e13484dda2",
          "topics": [
            "0x07ea52d82345d6e838192107d8fd7123d9c2ec8e916cd0aad13fd2b60db24644"
          ],
          "data": "0x000000000000000000000000000000000000000000000000000000000000006000000000000000000000000000000000000000000000000000000000000000c000000000000000000000000000000000000000000000000000000000000000e000000000000000000000000000000000000000000000000000000000000000020000000000000000000000009e059a54699a285714207b43b055483e78faac25000000000000000000000000a7b5189bca84cd304d8553977c7c614329750d9900000000000000000000000000000000000000000000000000000000000000000000000000000000000000000000000000000000000000000000000000000002000000000000000000000000000000000000000000000000000000266e657bf0000000000000000000000000000000000000000000000000000000266e657bf0",
          "blockHash": "0x027ebf81f910110e831400c68deeda443efb01f66a31a08722d79daf1ba163ca",
          "blockNumber": "0xfa7a86",
          "transactionHash": "0x3533e4fdd26fdb73fc55337a8dfdcc5b3fd45cfb421126632a4473bcb57b4ca7",
          "transactionIndex": "0x60",
          "logIndex": "0x13a",
          "removed": false
        },
        {
          "address": "0x1a44076050125825900e736c501f859c50fe728c",
          "topics": [
            "0x1ab700d4ced0c005b164c0f789fd09fcbb0156d4c2041b8a3bfbcd961cd1567f"
          ],
          "data": "0x00000000000000000000000000000000000000000000000000000000000000600000000000000000000000000000000000000000000000000000000000000120000000000000000000000000b5320b0b3a13cc860893e2bd79fcd7e13484dda20000000000000000000000000000000000000000000000000000000000000099010000000000000002000075e8000000000000000000000000e4796ccb6bb5de2290c417ac337f2b66ca2e770e000076340000000000000000000000005bff88ca1442c2496f7e475e9e7786383bc070c0578b4c8cfe40e58ca063a13079967621497cb68eee7718a8a2cf0d412f6599f9000000000000000000000000b0e1650a9760e0f383174af042091fc544b8356f000000000000000a00000000000000000000000000000000000000000000000000000000000000000000000000001600030100110100000000000000000000000000030d4000000000000000000000",
          "blockHash": "0x027ebf81f910110e831400c68deeda443efb01f66a31a08722d79daf1ba163ca",
          "blockNumber": "0xfa7a86",
          "transactionHash": "0x3533e4fdd26fdb73fc55337a8dfdcc5b3fd45cfb421126632a4473bcb57b4ca7",
          "transactionIndex": "0x60",
          "logIndex": "0x13b",
          "removed": false
        },
        {
          "address": "0xe4796ccb6bb5de2290c417ac337f2b66ca2e770e",
          "topics": [
            "0x85496b760a4b7f8d66384b9df21b381f5d1b1e79f229a47aaf4c232edc2fe59a",
            "0x578b4c8cfe40e58ca063a13079967621497cb68eee7718a8a2cf0d412f6599f9",
            "0x000000000000000000000000b0e1650a9760e0f383174af042091fc544b8356f"
          ],
          "data": "0x0000000000000000000000000000000000000000000000000000000000007634000000000000000000000000000000000000000000000000000009184e72a000000000000000000000000000000000000000000000000000000009184e72a000",
          "blockHash": "0x027ebf81f910110e831400c68deeda443efb01f66a31a08722d79daf1ba163ca",
          "blockNumber": "0xfa7a86",
          "transactionHash": "0x3533e4fdd26fdb73fc55337a8dfdcc5b3fd45cfb421126632a4473bcb57b4ca7",
          "transactionIndex": "0x60",
          "logIndex": "0x13c",
          "removed": false
        }
      ],
      "logsBloom": "0x00000000000000000000000000000000000000000000000000000000001000000000000000000000000000000000000000000000000000000000000000020000000002000000000000000408000000000004000000000000000000000000000100400000020000008000000000000800000000000110080000000010000000000000000000000000000000080000000000080000000000000004000000000000000000008000000000100000000000000000000000400000000440000000000000000002000000000000000080000000000000000000000000000000000020000000040080000000000000000000202000000000018000000000000000001000",
      "type": "0x2",
      "transactionHash": "0x3533e4fdd26fdb73fc55337a8dfdcc5b3fd45cfb421126632a4473bcb57b4ca7",
      "transactionIndex": "0x60",
      "blockHash": "0x027ebf81f910110e831400c68deeda443efb01f66a31a08722d79daf1ba163ca",
      "blockNumber": "0xfa7a86",
      "gasUsed": "0x3fd82",
      "effectiveGasPrice": "0x20ed47",
      "from": "0xb0e1650a9760e0f383174af042091fc544b8356f",
      "to": "0xe4796ccb6bb5de2290c417ac337f2b66ca2e770e",
      "contractAddress": null,
      "l1BaseFeeScalar": "0x58a",
      "l1BlobBaseFee": "0x1",
      "l1BlobBaseFeeScalar": "0xa118b",
      "l1Fee": "0x2947166b0",
      "l1GasPrice": "0x638549bf",
      "l1GasUsed": "0x1248"
    },
    {
      "status": "0x1",
      "cumulativeGasUsed": "0x10d4771",
      "logs": [
        {
          "address": "0x1f55a02a049033e3419a8e2975cf3f572f4e6e9a",
          "topics": [
            "0xddf252ad1be2c89b69c2b068fc378daa952ba7f163c4a11628f55a4df523b3ef",
            "0x000000000000000000000000b0e1650a9760e0f383174af042091fc544b8356f",
            "0x0000000000000000000000000000000000000000000000000000000000000000"
          ],
          "data": "0x000000000000000000000000000000000000000000000000000009184e72a000",
          "blockHash": "0x027ebf81f910110e831400c68deeda443efb01f66a31a08722d79daf1ba163ca",
          "blockNumber": "0xfa7a86",
          "transactionHash": "0x064def9e4e99138e404959aec50a9a9fcde3d6127c3df70ce6edf79bbd93dde3",
          "transactionIndex": "0x61",
          "logIndex": "0x13d",
          "removed": false
        },
        {
          "address": "0xb5320b0b3a13cc860893e2bd79fcd7e13484dda2",
          "topics": [
            "0x61ed099e74a97a1d7f8bb0952a88ca8b7b8ebd00c126ea04671f92a81213318a"
          ],
          "data": "0x0000000000000000000000002cca08ae69e0c44b18a57ab2a87644234daebae40000000000000000000000000000000000000000000000000000082a2805899d",
          "blockHash": "0x027ebf81f910110e831400c68deeda443efb01f66a31a08722d79daf1ba163ca",
          "blockNumber": "0xfa7a86",
          "transactionHash": "0x064def9e4e99138e404959aec50a9a9fcde3d6127c3df70ce6edf79bbd93dde3",
          "transactionIndex": "0x61",
          "logIndex": "0x13e",
          "removed": false
        },
        {
          "address": "0xb5320b0b3a13cc860893e2bd79fcd7e13484dda2",
          "topics": [
            "0x07ea52d82345d6e838192107d8fd7123d9c2ec8e916cd0aad13fd2b60db24644"
          ],
          "data": "0x000000000000000000000000000000000000000000000000000000000000006000000000000000000000000000000000000000000000000000000000000000c000000000000000000000000000000000000000000000000000000000000000e000000000000000000000000000000000000000000000000000000000000000020000000000000000000000009e059a54699a285714207b43b055483e78faac25000000000000000000000000a7b5189bca84cd304d8553977c7c614329750d9900000000000000000000000000000000000000000000000000000000000000000000000000000000000000000000000000000000000000000000000000000002000000000000000000000000000000000000000000000000000000266e657bf0000000000000000000000000000000000000000000000000000000266e657bf0",
          "blockHash": "0x027ebf81f910110e831400c68deeda443efb01f66a31a08722d79daf1ba163ca",
          "blockNumber": "0xfa7a86",
          "transactionHash": "0x064def9e4e99138e404959aec50a9a9fcde3d6127c3df70ce6edf79bbd93dde3",
          "transactionIndex": "0x61",
          "logIndex": "0x13f",
          "removed": false
        },
        {
          "address": "0x1a44076050125825900e736c501f859c50fe728c",
          "topics": [
            "0x1ab700d4ced0c005b164c0f789fd09fcbb0156d4c2041b8a3bfbcd961cd1567f"
          ],
          "data": "0x00000000000000000000000000000000000000000000000000000000000000600000000000000000000000000000000000000000000000000000000000000120000000000000000000000000b5320b0b3a13cc860893e2bd79fcd7e13484dda20000000000000000000000000000000000000000000000000000000000000099010000000000000002000075e80000000000000000000000001f55a02a049033e3419a8e2975cf3f572f4e6e9a000076340000000000000000000000003ec3849c33291a9ef4c5db86de593eb4a37fde45305f303e3eb620b4a192bbb46bf2172d93537d62e31096afcb12d85a42952061000000000000000000000000b0e1650a9760e0f383174af042091fc544b8356f000000000000000a00000000000000000000000000000000000000000000000000000000000000000000000000001600030100110100000000000000000000000000030d4000000000000000000000",
          "blockHash": "0x027ebf81f910110e831400c68deeda443efb01f66a31a08722d79daf1ba163ca",
          "blockNumber": "0xfa7a86",
          "transactionHash": "0x064def9e4e99138e404959aec50a9a9fcde3d6127c3df70ce6edf79bbd93dde3",
          "transactionIndex": "0x61",
          "logIndex": "0x140",
          "removed": false
        },
        {
          "address": "0x1f55a02a049033e3419a8e2975cf3f572f4e6e9a",
          "topics": [
            "0x85496b760a4b7f8d66384b9df21b381f5d1b1e79f229a47aaf4c232edc2fe59a",
            "0x305f303e3eb620b4a192bbb46bf2172d93537d62e31096afcb12d85a42952061",
            "0x000000000000000000000000b0e1650a9760e0f383174af042091fc544b8356f"
          ],
          "data": "0x0000000000000000000000000000000000000000000000000000000000007634000000000000000000000000000000000000000000000000000009184e72a000000000000000000000000000000000000000000000000000000009184e72a000",
          "blockHash": "0x027ebf81f910110e831400c68deeda443efb01f66a31a08722d79daf1ba163ca",
          "blockNumber": "0xfa7a86",
          "transactionHash": "0x064def9e4e99138e404959aec50a9a9fcde3d6127c3df70ce6edf79bbd93dde3",
          "transactionIndex": "0x61",
          "logIndex": "0x141",
          "removed": false
        }
      ],
      "logsBloom": "0x00000000100000000000000000000000000000000000000000000000001000000000000000000000000000000000000000000000000000000000000000000000000002000000000000000408000000000000000000000000000000000000000100000000020000008000000000000800000000000110080000000010000000000000000000000010000000080000000000000000000000000004000000000001000000008000000000100000000000000000000000400100000440000000000000000002000000000000000080000000000000000000002000000000010020000000040080000000000000000000002000000000018000000000000000000000",
      "type": "0x2",
      "transactionHash": "0x064def9e4e99138e404959aec50a9a9fcde3d6127c3df70ce6edf79bbd93dde3",
      "transactionIndex": "0x61",
      "blockHash": "0x027ebf81f910110e831400c68deeda443efb01f66a31a08722d79daf1ba163ca",
      "blockNumber": "0xfa7a86",
      "gasUsed": "0x3fd82",
      "effectiveGasPrice": "0x20ed47",
      "from": "0xb0e1650a9760e0f383174af042091fc544b8356f",
      "to": "0x1f55a02a049033e3419a8e2975cf3f572f4e6e9a",
      "contractAddress": null,
      "l1BaseFeeScalar": "0x58a",
      "l1BlobBaseFee": "0x1",
      "l1BlobBaseFeeScalar": "0xa118b",
      "l1Fee": "0x2947166b0",
      "l1GasPrice": "0x638549bf",
      "l1GasUsed": "0x1248"
    },
    {
      "status": "0x1",
      "cumulativeGasUsed": "0x112cb9e",
      "logs": [
        {
          "address": "0x909dbde1ebe906af95660033e478d59efe831fed",
          "topics": [
            "0xddf252ad1be2c89b69c2b068fc378daa952ba7f163c4a11628f55a4df523b3ef",
            "0x000000000000000000000000b0e1650a9760e0f383174af042091fc544b8356f",
            "0x0000000000000000000000000000000000000000000000000000000000000000"
          ],
          "data": "0x000000000000000000000000000000000000000000000000000009184e72a000",
          "blockHash": "0x027ebf81f910110e831400c68deeda443efb01f66a31a08722d79daf1ba163ca",
          "blockNumber": "0xfa7a86",
          "transactionHash": "0x0beb6c537d7501ee4b00755e5f247b407aa02cfffb4223725dc71d3006cb4ee3",
          "transactionIndex": "0x63",
          "logIndex": "0x144",
          "removed": false
        },
        {
          "address": "0xb5320b0b3a13cc860893e2bd79fcd7e13484dda2",
          "topics": [
            "0x61ed099e74a97a1d7f8bb0952a88ca8b7b8ebd00c126ea04671f92a81213318a"
          ],
          "data": "0x0000000000000000000000002cca08ae69e0c44b18a57ab2a87644234daebae40000000000000000000000000000000000000000000000000000082a2805899d",
          "blockHash": "0x027ebf81f910110e831400c68deeda443efb01f66a31a08722d79daf1ba163ca",
          "blockNumber": "0xfa7a86",
          "transactionHash": "0x0beb6c537d7501ee4b00755e5f247b407aa02cfffb4223725dc71d3006cb4ee3",
          "transactionIndex": "0x63",
          "logIndex": "0x145",
          "removed": false
        },
        {
          "address": "0xb5320b0b3a13cc860893e2bd79fcd7e13484dda2",
          "topics": [
            "0x07ea52d82345d6e838192107d8fd7123d9c2ec8e916cd0aad13fd2b60db24644"
          ],
          "data": "0x000000000000000000000000000000000000000000000000000000000000006000000000000000000000000000000000000000000000000000000000000000c000000000000000000000000000000000000000000000000000000000000000e000000000000000000000000000000000000000000000000000000000000000020000000000000000000000009e059a54699a285714207b43b055483e78faac25000000000000000000000000a7b5189bca84cd304d8553977c7c614329750d9900000000000000000000000000000000000000000000000000000000000000000000000000000000000000000000000000000000000000000000000000000002000000000000000000000000000000000000000000000000000000266e657bf0000000000000000000000000000000000000000000000000000000266e657bf0",
          "blockHash": "0x027ebf81f910110e831400c68deeda443efb01f66a31a08722d79daf1ba163ca",
          "blockNumber": "0xfa7a86",
          "transactionHash": "0x0beb6c537d7501ee4b00755e5f247b407aa02cfffb4223725dc71d3006cb4ee3",
          "transactionIndex": "0x63",
          "logIndex": "0x146",
          "removed": false
        },
        {
          "address": "0x1a44076050125825900e736c501f859c50fe728c",
          "topics": [
            "0x1ab700d4ced0c005b164c0f789fd09fcbb0156d4c2041b8a3bfbcd961cd1567f"
          ],
          "data": "0x00000000000000000000000000000000000000000000000000000000000000600000000000000000000000000000000000000000000000000000000000000120000000000000000000000000b5320b0b3a13cc860893e2bd79fcd7e13484dda20000000000000000000000000000000000000000000000000000000000000099010000000000000003000075e8000000000000000000000000909dbde1ebe906af95660033e478d59efe831fed0000763400000000000000000000000080eede496655fb9047dd39d9f418d5483ed600df55274d9bd2589dba4883579e695fcc708a017298262fb98d8c5cdb580fdaccfe000000000000000000000000b0e1650a9760e0f383174af042091fc544b8356f000000000000000a00000000000000000000000000000000000000000000000000000000000000000000000000001600030100110100000000000000000000000000030d4000000000000000000000",
          "blockHash": "0x027ebf81f910110e831400c68deeda443efb01f66a31a08722d79daf1ba163ca",
          "blockNumber": "0xfa7a86",
          "transactionHash": "0x0beb6c537d7501ee4b00755e5f247b407aa02cfffb4223725dc71d3006cb4ee3",
          "transactionIndex": "0x63",
          "logIndex": "0x147",
          "removed": false
        },
        {
          "address": "0x909dbde1ebe906af95660033e478d59efe831fed",
          "topics": [
            "0x85496b760a4b7f8d66384b9df21b381f5d1b1e79f229a47aaf4c232edc2fe59a",
            "0x55274d9bd2589dba4883579e695fcc708a017298262fb98d8c5cdb580fdaccfe",
            "0x000000000000000000000000b0e1650a9760e0f383174af042091fc544b8356f"
          ],
          "data": "0x0000000000000000000000000000000000000000000000000000000000007634000000000000000000000000000000000000000000000000000009184e72a000000000000000000000000000000000000000000000000000000009184e72a000",
          "blockHash": "0x027ebf81f910110e831400c68deeda443efb01f66a31a08722d79daf1ba163ca",
          "blockNumber": "0xfa7a86",
          "transactionHash": "0x0beb6c537d7501ee4b00755e5f247b407aa02cfffb4223725dc71d3006cb4ee3",
          "transactionIndex": "0x63",
          "logIndex": "0x148",
          "removed": false
        }
      ],
      "logsBloom": "0x00000000000000000000000022000000000000000000000000000000001000000000000000000000000000000000000000000000802000000000000000000000000002000000000000000408000000000000000000000000000000000000000100000000020000008002000000000800000000000110080000000010000000000000000000000000000000080000000000000000000000000004000000000000000000008000000000100000000000000000000000400000000440000000000000000002000000000000000080000000000000000000000000000000000020000000040080000000000000000000002000000000418000000000000000000000",
      "type": "0x2",
      "transactionHash": "0x0beb6c537d7501ee4b00755e5f247b407aa02cfffb4223725dc71d3006cb4ee3",
      "transactionIndex": "0x63",
      "blockHash": "0x027ebf81f910110e831400c68deeda443efb01f66a31a08722d79daf1ba163ca",
      "blockNumber": "0xfa7a86",
      "gasUsed": "0x3fd82",
      "effectiveGasPrice": "0x20ed47",
      "from": "0xb0e1650a9760e0f383174af042091fc544b8356f",
      "to": "0x909dbde1ebe906af95660033e478d59efe831fed",
      "contractAddress": null,
      "l1BaseFeeScalar": "0x58a",
      "l1BlobBaseFee": "0x1",
      "l1BlobBaseFeeScalar": "0xa118b",
      "l1Fee": "0x292bfe12c",
      "l1GasPrice": "0x638549bf",
      "l1GasUsed": "0x123c"
    }
  ],
  "libraries": [],
  "pending": [],
  "returns": {},
  "timestamp": 1719620078,
  "chain": 8453,
  "commit": "0f0c90c"
}