{
  "transactions": [
    {
      "hash": "0xdedcc562adbf66464f2797f5c89d8a12fa0242735e8468b77fbce7a9d43393cc",
      "transactionType": "CALL",
      "contractName": null,
      "contractAddress": "0xf010a7c8877043681d59ad125ebf575633505942",
      "function": "approve(address,uint256)",
      "arguments": [
        "0xF010a7c8877043681D59AD125EbF575633505942",
        "100000000000000"
      ],
      "transaction": {
        "from": "0xb0e1650a9760e0f383174af042091fc544b8356f",
        "to": "0xf010a7c8877043681d59ad125ebf575633505942",
        "gas": "0xfa57",
        "value": "0x0",
        "input": "0x095ea7b3000000000000000000000000f010a7c8877043681d59ad125ebf57563350594200000000000000000000000000000000000000000000000000005af3107a4000",
        "nonce": "0x15",
        "chainId": "0x2105"
      },
      "additionalContracts": [],
      "isFixedGasLimit": false
    },
    {
      "hash": "0x6ee67423509a8f6ef66358040552dc3c6f6d81c3407b55f6c385a5e30f7505a0",
      "transactionType": "CALL",
      "contractName": null,
      "contractAddress": "0xf010a7c8877043681d59ad125ebf575633505942",
      "function": "send((uint32,bytes32,uint256,uint256,bytes,bytes,bytes),(uint256,uint256),address)",
      "arguments": [
        "(30243, 0x000000000000000000000000b0e1650a9760e0f383174af042091fc544b8356f, 100000000000000, 100000000000000, 0x0003, 0x, 0x)",
        "(259076280768380, 0)",
        "0xb0E1650A9760e0f383174af042091fc544b8356f"
      ],
      "transaction": {
        "from": "0xb0e1650a9760e0f383174af042091fc544b8356f",
        "to": "0xf010a7c8877043681d59ad125ebf575633505942",
        "gas": "0x60303",
        "value": "0xeba0e5af577c",
        "input": "0xc7c7f5b300000000000000000000000000000000000000000000000000000000000000800000000000000000000000000000000000000000000000000000eba0e5af577c0000000000000000000000000000000000000000000000000000000000000000000000000000000000000000b0e1650a9760e0f383174af042091fc544b8356f0000000000000000000000000000000000000000000000000000000000007623000000000000000000000000b0e1650a9760e0f383174af042091fc544b8356f00000000000000000000000000000000000000000000000000005af3107a400000000000000000000000000000000000000000000000000000005af3107a400000000000000000000000000000000000000000000000000000000000000000e0000000000000000000000000000000000000000000000000000000000000012000000000000000000000000000000000000000000000000000000000000001400000000000000000000000000000000000000000000000000000000000000002000300000000000000000000000000000000000000000000000000000000000000000000000000000000000000000000000000000000000000000000000000000000000000000000000000000000000000000000000000000000000000000000",
        "nonce": "0x16",
        "chainId": "0x2105"
      },
      "additionalContracts": [],
      "isFixedGasLimit": false
    },
    {
      "hash": "0x91a0fd60d5b5108e2e00c8e7ed517114a965ecfbd66cc71ceb4bffa9ed2e9799",
      "transactionType": "CALL",
      "contractName": null,
      "contractAddress": "0xe41228a455700caf09e551805a8ab37caa39d08c",
      "function": "approve(address,uint256)",
      "arguments": [
        "0xE41228a455700cAF09E551805A8aB37caa39D08c",
        "100000000000000"
      ],
      "transaction": {
        "from": "0xb0e1650a9760e0f383174af042091fc544b8356f",
        "to": "0xe41228a455700caf09e551805a8ab37caa39d08c",
        "gas": "0xfa57",
        "value": "0x0",
        "input": "0x095ea7b3000000000000000000000000e41228a455700caf09e551805a8ab37caa39d08c00000000000000000000000000000000000000000000000000005af3107a4000",
        "nonce": "0x17",
        "chainId": "0x2105"
      },
      "additionalContracts": [],
      "isFixedGasLimit": false
    },
    {
      "hash": "0xb7880cf7833c096d178677af73dce8d4821df606f266e7cca1c7f69eb60cc140",
      "transactionType": "CALL",
      "contractName": null,
      "contractAddress": "0xe41228a455700caf09e551805a8ab37caa39d08c",
      "function": "send((uint32,bytes32,uint256,uint256,bytes,bytes,bytes),(uint256,uint256),address)",
      "arguments": [
        "(30243, 0x000000000000000000000000b0e1650a9760e0f383174af042091fc544b8356f, 100000000000000, 100000000000000, 0x0003, 0x, 0x)",
        "(259076280768380, 0)",
        "0xb0E1650A9760e0f383174af042091fc544b8356f"
      ],
      "transaction": {
        "from": "0xb0e1650a9760e0f383174af042091fc544b8356f",
        "to": "0xe41228a455700caf09e551805a8ab37caa39d08c",
        "gas": "0x60303",
        "value": "0xeba0e5af577c",
        "input": "0xc7c7f5b300000000000000000000000000000000000000000000000000000000000000800000000000000000000000000000000000000000000000000000eba0e5af577c0000000000000000000000000000000000000000000000000000000000000000000000000000000000000000b0e1650a9760e0f383174af042091fc544b8356f0000000000000000000000000000000000000000000000000000000000007623000000000000000000000000b0e1650a9760e0f383174af042091fc544b8356f00000000000000000000000000000000000000000000000000005af3107a400000000000000000000000000000000000000000000000000000005af3107a400000000000000000000000000000000000000000000000000000000000000000e0000000000000000000000000000000000000000000000000000000000000012000000000000000000000000000000000000000000000000000000000000001400000000000000000000000000000000000000000000000000000000000000002000300000000000000000000000000000000000000000000000000000000000000000000000000000000000000000000000000000000000000000000000000000000000000000000000000000000000000000000000000000000000000000000",
        "nonce": "0x18",
        "chainId": "0x2105"
      },
      "additionalContracts": [],
      "isFixedGasLimit": false
    },
    {
      "hash": "0x0ee974d72e90c891d9167aafdba48d50c5d941716425e5be92baee61b1dc7a2b",
      "transactionType": "CALL",
      "contractName": null,
      "contractAddress": "0xf010a7c8877043681d59ad125ebf575633505942",
      "function": "send((uint32,bytes32,uint256,uint256,bytes,bytes,bytes),(uint256,uint256),address)",
      "arguments": [
        "(30151, 0x000000000000000000000000b0e1650a9760e0f383174af042091fc544b8356f, 100000000000000, 100000000000000, 0x0003, 0x, 0x)",
        "(59430445135038, 0)",
        "0xb0E1650A9760e0f383174af042091fc544b8356f"
      ],
      "transaction": {
        "from": "0xb0e1650a9760e0f383174af042091fc544b8356f",
        "to": "0xf010a7c8877043681d59ad125ebf575633505942",
        "gas": "0x5def9",
        "value": "0x360d3a9234be",
        "input": "0xc7c7f5b300000000000000000000000000000000000000000000000000000000000000800000000000000000000000000000000000000000000000000000360d3a9234be0000000000000000000000000000000000000000000000000000000000000000000000000000000000000000b0e1650a9760e0f383174af042091fc544b8356f00000000000000000000000000000000000000000000000000000000000075c7000000000000000000000000b0e1650a9760e0f383174af042091fc544b8356f00000000000000000000000000000000000000000000000000005af3107a400000000000000000000000000000000000000000000000000000005af3107a400000000000000000000000000000000000000000000000000000000000000000e0000000000000000000000000000000000000000000000000000000000000012000000000000000000000000000000000000000000000000000000000000001400000000000000000000000000000000000000000000000000000000000000002000300000000000000000000000000000000000000000000000000000000000000000000000000000000000000000000000000000000000000000000000000000000000000000000000000000000000000000000000000000000000000000000",
        "nonce": "0x19",
        "chainId": "0x2105"
      },
      "additionalContracts": [],
      "isFixedGasLimit": false
    },
    {
      "hash": "0x8a196636666893ff7f6cf4979186e7a0ab5b73d8802f012fbfe0fe6b4aa677fe",
      "transactionType": "CALL",
      "contractName": null,
      "contractAddress": "0xe41228a455700caf09e551805a8ab37caa39d08c",
      "function": "send((uint32,bytes32,uint256,uint256,bytes,bytes,bytes),(uint256,uint256),address)",
      "arguments": [
        "(30151, 0x000000000000000000000000b0e1650a9760e0f383174af042091fc544b8356f, 100000000000000, 100000000000000, 0x0003, 0x, 0x)",
        "(59430445135038, 0)",
        "0xb0E1650A9760e0f383174af042091fc544b8356f"
      ],
      "transaction": {
        "from": "0xb0e1650a9760e0f383174af042091fc544b8356f",
        "to": "0xe41228a455700caf09e551805a8ab37caa39d08c",
        "gas": "0x5def9",
        "value": "0x360d3a9234be",
        "input": "0xc7c7f5b300000000000000000000000000000000000000000000000000000000000000800000000000000000000000000000000000000000000000000000360d3a9234be0000000000000000000000000000000000000000000000000000000000000000000000000000000000000000b0e1650a9760e0f383174af042091fc544b8356f00000000000000000000000000000000000000000000000000000000000075c7000000000000000000000000b0e1650a9760e0f383174af042091fc544b8356f00000000000000000000000000000000000000000000000000005af3107a400000000000000000000000000000000000000000000000000000005af3107a400000000000000000000000000000000000000000000000000000000000000000e0000000000000000000000000000000000000000000000000000000000000012000000000000000000000000000000000000000000000000000000000000001400000000000000000000000000000000000000000000000000000000000000002000300000000000000000000000000000000000000000000000000000000000000000000000000000000000000000000000000000000000000000000000000000000000000000000000000000000000000000000000000000000000000000000",
        "nonce": "0x1a",
        "chainId": "0x2105"
      },
      "additionalContracts": [],
      "isFixedGasLimit": false
    },
    {
      "hash": "0x8d76ee917567bf2b09055e8c6d27682247cce3312d4fbf4fb22a17229ba21fe9",
      "transactionType": "CALL",
      "contractName": null,
      "contractAddress": "0xf010a7c8877043681d59ad125ebf575633505942",
      "function": "send((uint32,bytes32,uint256,uint256,bytes,bytes,bytes),(uint256,uint256),address)",
      "arguments": [
        "(30260, 0x000000000000000000000000b0e1650a9760e0f383174af042091fc544b8356f, 100000000000000, 100000000000000, 0x0003, 0x, 0x)",
        "(9307274903933, 0)",
        "0xb0E1650A9760e0f383174af042091fc544b8356f"
      ],
      "transaction": {
        "from": "0xb0e1650a9760e0f383174af042091fc544b8356f",
        "to": "0xf010a7c8877043681d59ad125ebf575633505942",
        "gas": "0x5def9",
        "value": "0x87704d0817d",
        "input": "0xc7c7f5b300000000000000000000000000000000000000000000000000000000000000800000000000000000000000000000000000000000000000000000087704d0817d0000000000000000000000000000000000000000000000000000000000000000000000000000000000000000b0e1650a9760e0f383174af042091fc544b8356f0000000000000000000000000000000000000000000000000000000000007634000000000000000000000000b0e1650a9760e0f383174af042091fc544b8356f00000000000000000000000000000000000000000000000000005af3107a400000000000000000000000000000000000000000000000000000005af3107a400000000000000000000000000000000000000000000000000000000000000000e0000000000000000000000000000000000000000000000000000000000000012000000000000000000000000000000000000000000000000000000000000001400000000000000000000000000000000000000000000000000000000000000002000300000000000000000000000000000000000000000000000000000000000000000000000000000000000000000000000000000000000000000000000000000000000000000000000000000000000000000000000000000000000000000000",
        "nonce": "0x1b",
        "chainId": "0x2105"
      },
      "additionalContracts": [],
      "isFixedGasLimit": false
    },
    {
      "hash": "0x1df53d4c2cf6096099694bfd7ccb6e04d273049fec7858af0b36db1cac632acc",
      "transactionType": "CALL",
      "contractName": null,
      "contractAddress": "0xe41228a455700caf09e551805a8ab37caa39d08c",
      "function": "send((uint32,bytes32,uint256,uint256,bytes,bytes,bytes),(uint256,uint256),address)",
      "arguments": [
        "(30260, 0x000000000000000000000000b0e1650a9760e0f383174af042091fc544b8356f, 100000000000000, 100000000000000, 0x0003, 0x, 0x)",
        "(9307274903933, 0)",
        "0xb0E1650A9760e0f383174af042091fc544b8356f"
      ],
      "transaction": {
        "from": "0xb0e1650a9760e0f383174af042091fc544b8356f",
        "to": "0xe41228a455700caf09e551805a8ab37caa39d08c",
        "gas": "0x5def9",
        "value": "0x87704d0817d",
        "input": "0xc7c7f5b300000000000000000000000000000000000000000000000000000000000000800000000000000000000000000000000000000000000000000000087704d0817d0000000000000000000000000000000000000000000000000000000000000000000000000000000000000000b0e1650a9760e0f383174af042091fc544b8356f0000000000000000000000000000000000000000000000000000000000007634000000000000000000000000b0e1650a9760e0f383174af042091fc544b8356f00000000000000000000000000000000000000000000000000005af3107a400000000000000000000000000000000000000000000000000000005af3107a400000000000000000000000000000000000000000000000000000000000000000e0000000000000000000000000000000000000000000000000000000000000012000000000000000000000000000000000000000000000000000000000000001400000000000000000000000000000000000000000000000000000000000000002000300000000000000000000000000000000000000000000000000000000000000000000000000000000000000000000000000000000000000000000000000000000000000000000000000000000000000000000000000000000000000000000",
        "nonce": "0x1c",
        "chainId": "0x2105"
      },
      "additionalContracts": [],
      "isFixedGasLimit": false
    }
  ],
  "receipts": [
    {
      "status": "0x1",
      "cumulativeGasUsed": "0x8e7a92",
      "logs": [
        {
          "address": "0xf010a7c8877043681d59ad125ebf575633505942",
          "topics": [
            "0x8c5be1e5ebec7d5bd14f71427d1e84f3dd0314c0f7b2291e5b200ac8c7c3b925",
            "0x000000000000000000000000b0e1650a9760e0f383174af042091fc544b8356f",
            "0x000000000000000000000000f010a7c8877043681d59ad125ebf575633505942"
          ],
          "data": "0x00000000000000000000000000000000000000000000000000005af3107a4000",
          "blockHash": "0xb6d640893dff7ec2e12f8d3320d8fcbdb670bf693317d21fb2491f509a7b3d19",
          "blockNumber": "0xfcdf04",
          "transactionHash": "0xdedcc562adbf66464f2797f5c89d8a12fa0242735e8468b77fbce7a9d43393cc",
          "transactionIndex": "0x3e",
          "logIndex": "0xe8",
          "removed": false
        }
      ],
      "logsBloom": "0x00000000000000000000000000000000000000000000000000000000000000000000000000000000000000000020000000000000000000000000000000200000000000000000000000000000000000000000000000000000000000000000000000000000000000000000040000000000000000000100080000000000000000000000000000000000000000000000000000000000000000000000000001000000020000200000000000000000000000000000000000000000000000000000000000000000000000000000000000000000000080000000000000000000000000000010000080000000000000000000000000000000000040000000000000000000",
      "type": "0x2",
      "transactionHash": "0xdedcc562adbf66464f2797f5c89d8a12fa0242735e8468b77fbce7a9d43393cc",
      "transactionIndex": "0x3e",
      "blockHash": "0xb6d640893dff7ec2e12f8d3320d8fcbdb670bf693317d21fb2491f509a7b3d19",
      "blockNumber": "0xfcdf04",
      "gasUsed": "0xb53f",
      "effectiveGasPrice": "0x7f872a",
      "from": "0xb0e1650a9760e0f383174af042091fc544b8356f",
      "to": "0xf010a7c8877043681d59ad125ebf575633505942",
      "contractAddress": null,
      "l1BaseFeeScalar": "0x58a",
      "l1BlobBaseFee": "0xa4",
      "l1BlobBaseFeeScalar": "0xa118b",
      "l1Fee": "0x5eb5c5605",
      "l1GasPrice": "0x1c1044a7f",
      "l1GasUsed": "0x94c"
    },
    {
      "status": "0x1",
      "cumulativeGasUsed": "0x8ca563",
      "logs": [
        {
          "address": "0xf010a7c8877043681d59ad125ebf575633505942",
          "topics": [
            "0xddf252ad1be2c89b69c2b068fc378daa952ba7f163c4a11628f55a4df523b3ef",
            "0x000000000000000000000000b0e1650a9760e0f383174af042091fc544b8356f",
            "0x0000000000000000000000000000000000000000000000000000000000000000"
          ],
          "data": "0x00000000000000000000000000000000000000000000000000005af3107a4000",
          "blockHash": "0x28d7c07efcb2a610fe6a82cd8618a2c601ebff011d1f0cc4ea7beb4a044597de",
          "blockNumber": "0xfcdf07",
          "transactionHash": "0x6ee67423509a8f6ef66358040552dc3c6f6d81c3407b55f6c385a5e30f7505a0",
          "transactionIndex": "0x30",
          "logIndex": "0xa1",
          "removed": false
        },
        {
          "address": "0xb5320b0b3a13cc860893e2bd79fcd7e13484dda2",
          "topics": [
            "0x61ed099e74a97a1d7f8bb0952a88ca8b7b8ebd00c126ea04671f92a81213318a"
          ],
          "data": "0x0000000000000000000000002cca08ae69e0c44b18a57ab2a87644234daebae40000000000000000000000000000000000000000000000000000930cad2bb14a",
          "blockHash": "0x28d7c07efcb2a610fe6a82cd8618a2c601ebff011d1f0cc4ea7beb4a044597de",
          "blockNumber": "0xfcdf07",
          "transactionHash": "0x6ee67423509a8f6ef66358040552dc3c6f6d81c3407b55f6c385a5e30f7505a0",
          "transactionIndex": "0x30",
          "logIndex": "0xa2",
          "removed": false
        },
        {
          "address": "0xb5320b0b3a13cc860893e2bd79fcd7e13484dda2",
          "topics": [
            "0x07ea52d82345d6e838192107d8fd7123d9c2ec8e916cd0aad13fd2b60db24644"
          ],
          "data": "0x000000000000000000000000000000000000000000000000000000000000006000000000000000000000000000000000000000000000000000000000000000c000000000000000000000000000000000000000000000000000000000000000e000000000000000000000000000000000000000000000000000000000000000020000000000000000000000009e059a54699a285714207b43b055483e78faac25000000000000000000000000a7b5189bca84cd304d8553977c7c614329750d990000000000000000000000000000000000000000000000000000000000000000000000000000000000000000000000000000000000000000000000000000000200000000000000000000000000000000000000000000000000002c4a1c41d31900000000000000000000000000000000000000000000000000002c4a1c41d319",
          "blockHash": "0x28d7c07efcb2a610fe6a82cd8618a2c601ebff011d1f0cc4ea7beb4a044597de",
          "blockNumber": "0xfcdf07",
          "transactionHash": "0x6ee67423509a8f6ef66358040552dc3c6f6d81c3407b55f6c385a5e30f7505a0",
          "transactionIndex": "0x30",
          "logIndex": "0xa3",
          "removed": false
        },
        {
          "address": "0x1a44076050125825900e736c501f859c50fe728c",
          "topics": [
            "0x1ab700d4ced0c005b164c0f789fd09fcbb0156d4c2041b8a3bfbcd961cd1567f"
          ],
          "data": "0x00000000000000000000000000000000000000000000000000000000000000600000000000000000000000000000000000000000000000000000000000000120000000000000000000000000b5320b0b3a13cc860893e2bd79fcd7e13484dda20000000000000000000000000000000000000000000000000000000000000099010000000000000001000075e8000000000000000000000000f010a7c8877043681d59ad125ebf57563350594200007623000000000000000000000000f010a7c8877043681d59ad125ebf5756335059421eb7f45b2e7b46aef834a59da391410e104d2ceb63890c6c68766a60cd29708f000000000000000000000000b0e1650a9760e0f383174af042091fc544b8356f00000000000000640000000000000000000000000000000000000000000000000000000000000000000000000000160003010011010000000000000000000000000001388000000000000000000000",
          "blockHash": "0x28d7c07efcb2a610fe6a82cd8618a2c601ebff011d1f0cc4ea7beb4a044597de",
          "blockNumber": "0xfcdf07",
          "transactionHash": "0x6ee67423509a8f6ef66358040552dc3c6f6d81c3407b55f6c385a5e30f7505a0",
          "transactionIndex": "0x30",
          "logIndex": "0xa4",
          "removed": false
        },
        {
          "address": "0xf010a7c8877043681d59ad125ebf575633505942",
          "topics": [
            "0x85496b760a4b7f8d66384b9df21b381f5d1b1e79f229a47aaf4c232edc2fe59a",
            "0x1eb7f45b2e7b46aef834a59da391410e104d2ceb63890c6c68766a60cd29708f",
            "0x000000000000000000000000b0e1650a9760e0f383174af042091fc544b8356f"
          ],
          "data": "0x000000000000000000000000000000000000000000000000000000000000762300000000000000000000000000000000000000000000000000005af3107a400000000000000000000000000000000000000000000000000000005af3107a4000",
          "blockHash": "0x28d7c07efcb2a610fe6a82cd8618a2c601ebff011d1f0cc4ea7beb4a044597de",
          "blockNumber": "0xfcdf07",
          "transactionHash": "0x6ee67423509a8f6ef66358040552dc3c6f6d81c3407b55f6c385a5e30f7505a0",
          "transactionIndex": "0x30",
          "logIndex": "0xa5",
          "removed": false
        }
      ],
      "logsBloom": "0x00008000000000000000000000000000000000000000000000000000001000000000000000000000000000000020000001000000000000000000000000000000000002000000000000000408000000000000000002000000000000000000000100000000020000008000000000000800000000000110080000000010000000000000000000000000000000080000000000000000000000000004000000000000000000008000000000100000000000000000000000400000000440000000000000000002000000000000000080000000000080000000000000000000000020000000040080000000000000000000002000000000018040000000000000000000",
      "type": "0x2",
      "transactionHash": "0x6ee67423509a8f6ef66358040552dc3c6f6d81c3407b55f6c385a5e30f7505a0",
      "transactionIndex": "0x30",
      "blockHash": "0x28d7c07efcb2a610fe6a82cd8618a2c601ebff011d1f0cc4ea7beb4a044597de",
      "blockNumber": "0xfcdf07",
      "gasUsed": "0x45a38",
      "effectiveGasPrice": "0x7f2b54",
      "from": "0xb0e1650a9760e0f383174af042091fc544b8356f",
      "to": "0xf010a7c8877043681d59ad125ebf575633505942",
      "contractAddress": null,
      "l1BaseFeeScalar": "0x58a",
      "l1BlobBaseFee": "0xb9",
      "l1BlobBaseFeeScalar": "0xa118b",
      "l1Fee": "0xbff20eacb",
      "l1GasPrice": "0x1cec7f63e",
      "l1GasUsed": "0x1248"
    },
    {
      "status": "0x1",
      "cumulativeGasUsed": "0x17cb508",
      "logs": [
        {
          "address": "0xe41228a455700caf09e551805a8ab37caa39d08c",
          "topics": [
            "0x8c5be1e5ebec7d5bd14f71427d1e84f3dd0314c0f7b2291e5b200ac8c7c3b925",
            "0x000000000000000000000000b0e1650a9760e0f383174af042091fc544b8356f",
            "0x000000000000000000000000e41228a455700caf09e551805a8ab37caa39d08c"
          ],
          "data": "0x00000000000000000000000000000000000000000000000000005af3107a4000",
          "blockHash": "0x10f8124bb085ac2ca477acaaeee450b291d8b36912d8a510a696d8da96e21356",
          "blockNumber": "0xfcdf0d",
          "transactionHash": "0x91a0fd60d5b5108e2e00c8e7ed517114a965ecfbd66cc71ceb4bffa9ed2e9799",
          "transactionIndex": "0x94",
          "logIndex": "0x1f7",
          "removed": false
        }
      ],
      "logsBloom": "0x00000000000000000000000000000000000000000010000000000000000000000000000000000000000000800000000000000000000000000000000000200000000000000000000000000000000000000000000000000000000000000000000000000000000000000000000000000000000000000100080000000000000000000000000000000000000000000000000000000000000200000000000000000000020000000000000000000000800000000002000000000000000000000000000000000040000000000000000000000000000000000000000000000000000000000010000080000000000000000000000000000000000000000000000000000000",
      "type": "0x2",
      "transactionHash": "0x91a0fd60d5b5108e2e00c8e7ed517114a965ecfbd66cc71ceb4bffa9ed2e9799",
      "transactionIndex": "0x94",
      "blockHash": "0x10f8124bb085ac2ca477acaaeee450b291d8b36912d8a510a696d8da96e21356",
      "blockNumber": "0xfcdf0d",
      "gasUsed": "0xb53f",
      "effectiveGasPrice": "0x7daf3b",
      "from": "0xb0e1650a9760e0f383174af042091fc544b8356f",
      "to": "0xe41228a455700caf09e551805a8ab37caa39d08c",
      "contractAddress": null,
      "l1BaseFeeScalar": "0x58a",
      "l1BlobBaseFee": "0xb2",
      "l1BlobBaseFeeScalar": "0xa118b",
      "l1Fee": "0x5f57ed8fe",
      "l1GasPrice": "0x1c64f7849",
      "l1GasUsed": "0x940"
    },
    {
      "status": "0x1",
      "cumulativeGasUsed": "0xcdda05",
      "logs": [
        {
          "address": "0xe41228a455700caf09e551805a8ab37caa39d08c",
          "topics": [
            "0xddf252ad1be2c89b69c2b068fc378daa952ba7f163c4a11628f55a4df523b3ef",
            "0x000000000000000000000000b0e1650a9760e0f383174af042091fc544b8356f",
            "0x0000000000000000000000000000000000000000000000000000000000000000"
          ],
          "data": "0x00000000000000000000000000000000000000000000000000005af3107a4000",
          "blockHash": "0x0feb656bd6eb32d503a3bfb14dd628dc9e2f81e7f107fc8990b2e78bbbc76a3f",
          "blockNumber": "0xfcdf0f",
          "transactionHash": "0xb7880cf7833c096d178677af73dce8d4821df606f266e7cca1c7f69eb60cc140",
          "transactionIndex": "0x42",
          "logIndex": "0xdb",
          "removed": false
        },
        {
          "address": "0xb5320b0b3a13cc860893e2bd79fcd7e13484dda2",
          "topics": [
            "0x61ed099e74a97a1d7f8bb0952a88ca8b7b8ebd00c126ea04671f92a81213318a"
          ],
          "data": "0x0000000000000000000000002cca08ae69e0c44b18a57ab2a87644234daebae40000000000000000000000000000000000000000000000000000930cad2bb14a",
          "blockHash": "0x0feb656bd6eb32d503a3bfb14dd628dc9e2f81e7f107fc8990b2e78bbbc76a3f",
          "blockNumber": "0xfcdf0f",
          "transactionHash": "0xb7880cf7833c096d178677af73dce8d4821df606f266e7cca1c7f69eb60cc140",
          "transactionIndex": "0x42",
          "logIndex": "0xdc",
          "removed": false
        },
        {
          "address": "0xb5320b0b3a13cc860893e2bd79fcd7e13484dda2",
          "topics": [
            "0x07ea52d82345d6e838192107d8fd7123d9c2ec8e916cd0aad13fd2b60db24644"
          ],
          "data": "0x000000000000000000000000000000000000000000000000000000000000006000000000000000000000000000000000000000000000000000000000000000c000000000000000000000000000000000000000000000000000000000000000e000000000000000000000000000000000000000000000000000000000000000020000000000000000000000009e059a54699a285714207b43b055483e78faac25000000000000000000000000a7b5189bca84cd304d8553977c7c614329750d990000000000000000000000000000000000000000000000000000000000000000000000000000000000000000000000000000000000000000000000000000000200000000000000000000000000000000000000000000000000002c4a1c41d31900000000000000000000000000000000000000000000000000002c4a1c41d319",
          "blockHash": "0x0feb656bd6eb32d503a3bfb14dd628dc9e2f81e7f107fc8990b2e78bbbc76a3f",
          "blockNumber": "0xfcdf0f",
          "transactionHash": "0xb7880cf7833c096d178677af73dce8d4821df606f266e7cca1c7f69eb60cc140",
          "transactionIndex": "0x42",
          "logIndex": "0xdd",
          "removed": false
        },
        {
          "address": "0x1a44076050125825900e736c501f859c50fe728c",
          "topics": [
            "0x1ab700d4ced0c005b164c0f789fd09fcbb0156d4c2041b8a3bfbcd961cd1567f"
          ],
          "data": "0x00000000000000000000000000000000000000000000000000000000000000600000000000000000000000000000000000000000000000000000000000000120000000000000000000000000b5320b0b3a13cc860893e2bd79fcd7e13484dda20000000000000000000000000000000000000000000000000000000000000099010000000000000001000075e8000000000000000000000000e41228a455700caf09e551805a8ab37caa39d08c00007623000000000000000000000000e41228a455700caf09e551805a8ab37caa39d08cdb4564ef76e2fd4e7012aad41422285f3cbbf0c9cbdc7b34bcd9bdd0a0cc1150000000000000000000000000b0e1650a9760e0f383174af042091fc544b8356f00000000000000640000000000000000000000000000000000000000000000000000000000000000000000000000160003010011010000000000000000000000000001388000000000000000000000",
          "blockHash": "0x0feb656bd6eb32d503a3bfb14dd628dc9e2f81e7f107fc8990b2e78bbbc76a3f",
          "blockNumber": "0xfcdf0f",
          "transactionHash": "0xb7880cf7833c096d178677af73dce8d4821df606f266e7cca1c7f69eb60cc140",
          "transactionIndex": "0x42",
          "logIndex": "0xde",
          "removed": false
        },
        {
          "address": "0xe41228a455700caf09e551805a8ab37caa39d08c",
          "topics": [
            "0x85496b760a4b7f8d66384b9df21b381f5d1b1e79f229a47aaf4c232edc2fe59a",
            "0xdb4564ef76e2fd4e7012aad41422285f3cbbf0c9cbdc7b34bcd9bdd0a0cc1150",
            "0x000000000000000000000000b0e1650a9760e0f383174af042091fc544b8356f"
          ],
          "data": "0x000000000000000000000000000000000000000000000000000000000000762300000000000000000000000000000000000000000000000000005af3107a400000000000000000000000000000000000000000000000000000005af3107a4000",
          "blockHash": "0x0feb656bd6eb32d503a3bfb14dd628dc9e2f81e7f107fc8990b2e78bbbc76a3f",
          "blockNumber": "0xfcdf0f",
          "transactionHash": "0xb7880cf7833c096d178677af73dce8d4821df606f266e7cca1c7f69eb60cc140",
          "transactionIndex": "0x42",
          "logIndex": "0xdf",
          "removed": false
        }
      ],
      "logsBloom": "0x00000000000000000000000000000000000080000000000000000000001000000000000000000000000000000000000000000000000000000000000000000000000002000000000000000408000000000000000000000000000000000000000100000000020000008000000000000800000000000110080000000010000000000000000000100000000000080000000000000000000200000004000000000000000000008000000000100000800000000000000000400000000440000000000000000042000000004000000080000000000000000000000000000000000020000000040080000000000000000000002000000000018000000000000000000000",
      "type": "0x2",
      "transactionHash": "0xb7880cf7833c096d178677af73dce8d4821df606f266e7cca1c7f69eb60cc140",
      "transactionIndex": "0x42",
      "blockHash": "0x0feb656bd6eb32d503a3bfb14dd628dc9e2f81e7f107fc8990b2e78bbbc76a3f",
      "blockNumber": "0xfcdf0f",
      "gasUsed": "0x45a38",
      "effectiveGasPrice": "0x7e3f30",
      "from": "0xb0e1650a9760e0f383174af042091fc544b8356f",
      "to": "0xe41228a455700caf09e551805a8ab37caa39d08c",
      "contractAddress": null,
      "l1BaseFeeScalar": "0x58a",
      "l1BlobBaseFee": "0xb2",
      "l1BlobBaseFeeScalar": "0xa118b",
      "l1Fee": "0xbc6ea4358",
      "l1GasPrice": "0x1c64f7849",
      "l1GasUsed": "0x1248"
    },
    {
      "status": "0x1",
      "cumulativeGasUsed": "0xb6ee41",
      "logs": [
        {
          "address": "0xf010a7c8877043681d59ad125ebf575633505942",
          "topics": [
            "0xddf252ad1be2c89b69c2b068fc378daa952ba7f163c4a11628f55a4df523b3ef",
            "0x000000000000000000000000b0e1650a9760e0f383174af042091fc544b8356f",
            "0x0000000000000000000000000000000000000000000000000000000000000000"
          ],
          "data": "0x00000000000000000000000000000000000000000000000000005af3107a4000",
          "blockHash": "0x6c676e88da53511ffb28578d818ea67803a214ca634a51548bd439db6e8df2c1",
          "blockNumber": "0xfcdf13",
          "transactionHash": "0x0ee974d72e90c891d9167aafdba48d50c5d941716425e5be92baee61b1dc7a2b",
          "transactionIndex": "0x50",
          "logIndex": "0x117",
          "removed": false
        },
        {
          "address": "0xb5320b0b3a13cc860893e2bd79fcd7e13484dda2",
          "topics": [
            "0x61ed099e74a97a1d7f8bb0952a88ca8b7b8ebd00c126ea04671f92a81213318a"
          ],
          "data": "0x0000000000000000000000002cca08ae69e0c44b18a57ab2a87644234daebae4000000000000000000000000000000000000000000000000000027611954b87c",
          "blockHash": "0x6c676e88da53511ffb28578d818ea67803a214ca634a51548bd439db6e8df2c1",
          "blockNumber": "0xfcdf13",
          "transactionHash": "0x0ee974d72e90c891d9167aafdba48d50c5d941716425e5be92baee61b1dc7a2b",
          "transactionIndex": "0x50",
          "logIndex": "0x118",
          "removed": false
        },
        {
          "address": "0xb5320b0b3a13cc860893e2bd79fcd7e13484dda2",
          "topics": [
            "0x07ea52d82345d6e838192107d8fd7123d9c2ec8e916cd0aad13fd2b60db24644"
          ],
          "data": "0x000000000000000000000000000000000000000000000000000000000000006000000000000000000000000000000000000000000000000000000000000000c000000000000000000000000000000000000000000000000000000000000000e000000000000000000000000000000000000000000000000000000000000000020000000000000000000000009e059a54699a285714207b43b055483e78faac25000000000000000000000000a7b5189bca84cd304d8553977c7c614329750d990000000000000000000000000000000000000000000000000000000000000000000000000000000000000000000000000000000000000000000000000000000200000000000000000000000000000000000000000000000000000756109ebe2100000000000000000000000000000000000000000000000000000756109ebe21",
          "blockHash": "0x6c676e88da53511ffb28578d818ea67803a214ca634a51548bd439db6e8df2c1",
          "blockNumber": "0xfcdf13",
          "transactionHash": "0x0ee974d72e90c891d9167aafdba48d50c5d941716425e5be92baee61b1dc7a2b",
          "transactionIndex": "0x50",
          "logIndex": "0x119",
          "removed": false
        },
        {
          "address": "0x1a44076050125825900e736c501f859c50fe728c",
          "topics": [
            "0x1ab700d4ced0c005b164c0f789fd09fcbb0156d4c2041b8a3bfbcd961cd1567f"
          ],
          "data": "0x00000000000000000000000000000000000000000000000000000000000000600000000000000000000000000000000000000000000000000000000000000120000000000000000000000000b5320b0b3a13cc860893e2bd79fcd7e13484dda20000000000000000000000000000000000000000000000000000000000000099010000000000000001000075e8000000000000000000000000f010a7c8877043681d59ad125ebf575633505942000075c7000000000000000000000000f010a7c8877043681d59ad125ebf575633505942b313c0766ac4225577052cf88df28b25ec6bd0b583d660c6a404036a9d4a760d000000000000000000000000b0e1650a9760e0f383174af042091fc544b8356f00000000000000640000000000000000000000000000000000000000000000000000000000000000000000000000160003010011010000000000000000000000000001388000000000000000000000",
          "blockHash": "0x6c676e88da53511ffb28578d818ea67803a214ca634a51548bd439db6e8df2c1",
          "blockNumber": "0xfcdf13",
          "transactionHash": "0x0ee974d72e90c891d9167aafdba48d50c5d941716425e5be92baee61b1dc7a2b",
          "transactionIndex": "0x50",
          "logIndex": "0x11a",
          "removed": false
        },
        {
          "address": "0xf010a7c8877043681d59ad125ebf575633505942",
          "topics": [
            "0x85496b760a4b7f8d66384b9df21b381f5d1b1e79f229a47aaf4c232edc2fe59a",
            "0xb313c0766ac4225577052cf88df28b25ec6bd0b583d660c6a404036a9d4a760d",
            "0x000000000000000000000000b0e1650a9760e0f383174af042091fc544b8356f"
          ],
          "data": "0x00000000000000000000000000000000000000000000000000000000000075c700000000000000000000000000000000000000000000000000005af3107a400000000000000000000000000000000000000000000000000000005af3107a4000",
          "blockHash": "0x6c676e88da53511ffb28578d818ea67803a214ca634a51548bd439db6e8df2c1",
          "blockNumber": "0xfcdf13",
          "transactionHash": "0x0ee974d72e90c891d9167aafdba48d50c5d941716425e5be92baee61b1dc7a2b",
          "transactionIndex": "0x50",
          "logIndex": "0x11b",
          "removed": false
        }
      ],
      "logsBloom": "0x00000000000000000000000000000000000000000000000000000000001000000000000000000000000000000020000000000000000000000000000000000000000002000000000000000408000000000000000000000000000010000000000100000000020000008000000000000800000000000110080000000010000000000000000000000000100000080000000000000000000000000004000000000000000000008000000000100000000000000000000000404000000440000000000000000002000000000000000080000000000080000000000000000000000020000000040080000000000000000000002000000000018040000000000000000000",
      "type": "0x2",
      "transactionHash": "0x0ee974d72e90c891d9167aafdba48d50c5d941716425e5be92baee61b1dc7a2b",
      "transactionIndex": "0x50",
      "blockHash": "0x6c676e88da53511ffb28578d818ea67803a214ca634a51548bd439db6e8df2c1",
      "blockNumber": "0xfcdf13",
      "gasUsed": "0x44020",
      "effectiveGasPrice": "0x7ddb42",
      "from": "0xb0e1650a9760e0f383174af042091fc544b8356f",
      "to": "0xf010a7c8877043681d59ad125ebf575633505942",
      "contractAddress": null,
      "l1BaseFeeScalar": "0x58a",
      "l1BlobBaseFee": "0xb9",
      "l1BlobBaseFeeScalar": "0xa118b",
      "l1Fee": "0xb74409b7c",
      "l1GasPrice": "0x1bafd72b8",
      "l1GasUsed": "0x123c"
    },
    {
      "status": "0x1",
      "cumulativeGasUsed": "0xb6873a",
      "logs": [
        {
          "address": "0xe41228a455700caf09e551805a8ab37caa39d08c",
          "topics": [
            "0xddf252ad1be2c89b69c2b068fc378daa952ba7f163c4a11628f55a4df523b3ef",
            "0x000000000000000000000000b0e1650a9760e0f383174af042091fc544b8356f",
            "0x0000000000000000000000000000000000000000000000000000000000000000"
          ],
          "data": "0x00000000000000000000000000000000000000000000000000005af3107a4000",
          "blockHash": "0x6aad080bc39541750bfb0764818bc2a5657bc0b24c25586a13fedb56a247e4f8",
          "blockNumber": "0xfcdf16",
          "transactionHash": "0x8a196636666893ff7f6cf4979186e7a0ab5b73d8802f012fbfe0fe6b4aa677fe",
          "transactionIndex": "0x3d",
          "logIndex": "0xaf",
          "removed": false
        },
        {
          "address": "0xb5320b0b3a13cc860893e2bd79fcd7e13484dda2",
          "topics": [
            "0x61ed099e74a97a1d7f8bb0952a88ca8b7b8ebd00c126ea04671f92a81213318a"
          ],
          "data": "0x0000000000000000000000002cca08ae69e0c44b18a57ab2a87644234daebae4000000000000000000000000000000000000000000000000000027611954b87c",
          "blockHash": "0x6aad080bc39541750bfb0764818bc2a5657bc0b24c25586a13fedb56a247e4f8",
          "blockNumber": "0xfcdf16",
          "transactionHash": "0x8a196636666893ff7f6cf4979186e7a0ab5b73d8802f012fbfe0fe6b4aa677fe",
          "transactionIndex": "0x3d",
          "logIndex": "0xb0",
          "removed": false
        },
        {
          "address": "0xb5320b0b3a13cc860893e2bd79fcd7e13484dda2",
          "topics": [
            "0x07ea52d82345d6e838192107d8fd7123d9c2ec8e916cd0aad13fd2b60db24644"
          ],
          "data": "0x000000000000000000000000000000000000000000000000000000000000006000000000000000000000000000000000000000000000000000000000000000c000000000000000000000000000000000000000000000000000000000000000e000000000000000000000000000000000000000000000000000000000000000020000000000000000000000009e059a54699a285714207b43b055483e78faac25000000000000000000000000a7b5189bca84cd304d8553977c7c614329750d990000000000000000000000000000000000000000000000000000000000000000000000000000000000000000000000000000000000000000000000000000000200000000000000000000000000000000000000000000000000000756109ebe2100000000000000000000000000000000000000000000000000000756109ebe21",
          "blockHash": "0x6aad080bc39541750bfb0764818bc2a5657bc0b24c25586a13fedb56a247e4f8",
          "blockNumber": "0xfcdf16",
          "transactionHash": "0x8a196636666893ff7f6cf4979186e7a0ab5b73d8802f012fbfe0fe6b4aa677fe",
          "transactionIndex": "0x3d",
          "logIndex": "0xb1",
          "removed": false
        },
        {
          "address": "0x1a44076050125825900e736c501f859c50fe728c",
          "topics": [
            "0x1ab700d4ced0c005b164c0f789fd09fcbb0156d4c2041b8a3bfbcd961cd1567f"
          ],
          "data": "0x00000000000000000000000000000000000000000000000000000000000000600000000000000000000000000000000000000000000000000000000000000120000000000000000000000000b5320b0b3a13cc860893e2bd79fcd7e13484dda20000000000000000000000000000000000000000000000000000000000000099010000000000000001000075e8000000000000000000000000e41228a455700caf09e551805a8ab37caa39d08c000075c7000000000000000000000000e41228a455700caf09e551805a8ab37caa39d08c83b76b76ff7e23bc6f2df8869b2586fe4fd402cbc7b2aeeb5d7951d6e4c06d45000000000000000000000000b0e1650a9760e0f383174af042091fc544b8356f00000000000000640000000000000000000000000000000000000000000000000000000000000000000000000000160003010011010000000000000000000000000001388000000000000000000000",
          "blockHash": "0x6aad080bc39541750bfb0764818bc2a5657bc0b24c25586a13fedb56a247e4f8",
          "blockNumber": "0xfcdf16",
          "transactionHash": "0x8a196636666893ff7f6cf4979186e7a0ab5b73d8802f012fbfe0fe6b4aa677fe",
          "transactionIndex": "0x3d",
          "logIndex": "0xb2",
          "removed": false
        },
        {
          "address": "0xe41228a455700caf09e551805a8ab37caa39d08c",
          "topics": [
            "0x85496b760a4b7f8d66384b9df21b381f5d1b1e79f229a47aaf4c232edc2fe59a",
            "0x83b76b76ff7e23bc6f2df8869b2586fe4fd402cbc7b2aeeb5d7951d6e4c06d45",
            "0x000000000000000000000000b0e1650a9760e0f383174af042091fc544b8356f"
          ],
          "data": "0x00000000000000000000000000000000000000000000000000000000000075c700000000000000000000000000000000000000000000000000005af3107a400000000000000000000000000000000000000000000000000000005af3107a4000",
          "blockHash": "0x6aad080bc39541750bfb0764818bc2a5657bc0b24c25586a13fedb56a247e4f8",
          "blockNumber": "0xfcdf16",
          "transactionHash": "0x8a196636666893ff7f6cf4979186e7a0ab5b73d8802f012fbfe0fe6b4aa677fe",
          "transactionIndex": "0x3d",
          "logIndex": "0xb3",
          "removed": false
        }
      ],
      "logsBloom": "0x00000000000000000000000000000000000000000000000000000000001000000000000000000000000000000000000000000000000000000000000000000000000002000000000000000408000000000020000000000000000000000000002100000000020000008000000000000800000000000110080000000010000000000000000000000000000000080000000000000000000200000004000000000000000000008000000000100000800000000000000000400000000440000000000000000042000000000000000080000000000000000000000000000000000020000000040080000000000000000000002000000000018000000000000000000004",
      "type": "0x2",
      "transactionHash": "0x8a196636666893ff7f6cf4979186e7a0ab5b73d8802f012fbfe0fe6b4aa677fe",
      "transactionIndex": "0x3d",
      "blockHash": "0x6aad080bc39541750bfb0764818bc2a5657bc0b24c25586a13fedb56a247e4f8",
      "blockNumber": "0xfcdf16",
      "gasUsed": "0x44020",
      "effectiveGasPrice": "0x7dd1f8",
      "from": "0xb0e1650a9760e0f383174af042091fc544b8356f",
      "to": "0xe41228a455700caf09e551805a8ab37caa39d08c",
      "contractAddress": null,
      "l1BaseFeeScalar": "0x58a",
      "l1BlobBaseFee": "0xb9",
      "l1BlobBaseFeeScalar": "0xa118b",
      "l1Fee": "0xb7bca50dc",
      "l1GasPrice": "0x1bafd72b8",
      "l1GasUsed": "0x1248"
    },
    {
      "status": "0x1",
      "cumulativeGasUsed": "0xccda9a",
      "logs": [
        {
          "address": "0xf010a7c8877043681d59ad125ebf575633505942",
          "topics": [
            "0xddf252ad1be2c89b69c2b068fc378daa952ba7f163c4a11628f55a4df523b3ef",
            "0x000000000000000000000000b0e1650a9760e0f383174af042091fc544b8356f",
            "0x0000000000000000000000000000000000000000000000000000000000000000"
          ],
          "data": "0x00000000000000000000000000000000000000000000000000005af3107a4000",
          "blockHash": "0x4d070ee59f625823e9d2fea27c461820d871124aead272fb175e6c71cd13e8b1",
          "blockNumber": "0xfcdf19",
          "transactionHash": "0x8d76ee917567bf2b09055e8c6d27682247cce3312d4fbf4fb22a17229ba21fe9",
          "transactionIndex": "0x4f",
          "logIndex": "0xcb",
          "removed": false
        },
        {
          "address": "0xb5320b0b3a13cc860893e2bd79fcd7e13484dda2",
          "topics": [
            "0x61ed099e74a97a1d7f8bb0952a88ca8b7b8ebd00c126ea04671f92a81213318a"
          ],
          "data": "0x0000000000000000000000002cca08ae69e0c44b18a57ab2a87644234daebae40000000000000000000000000000000000000000000000000000082a2805899d",
          "blockHash": "0x4d070ee59f625823e9d2fea27c461820d871124aead272fb175e6c71cd13e8b1",
          "blockNumber": "0xfcdf19",
          "transactionHash": "0x8d76ee917567bf2b09055e8c6d27682247cce3312d4fbf4fb22a17229ba21fe9",
          "transactionIndex": "0x4f",
          "logIndex": "0xcc",
          "removed": false
        },
        {
          "address": "0xb5320b0b3a13cc860893e2bd79fcd7e13484dda2",
          "topics": [
            "0x07ea52d82345d6e838192107d8fd7123d9c2ec8e916cd0aad13fd2b60db24644"
          ],
          "data": "0x000000000000000000000000000000000000000000000000000000000000006000000000000000000000000000000000000000000000000000000000000000c000000000000000000000000000000000000000000000000000000000000000e000000000000000000000000000000000000000000000000000000000000000020000000000000000000000009e059a54699a285714207b43b055483e78faac25000000000000000000000000a7b5189bca84cd304d8553977c7c614329750d9900000000000000000000000000000000000000000000000000000000000000000000000000000000000000000000000000000000000000000000000000000002000000000000000000000000000000000000000000000000000000266e657bf0000000000000000000000000000000000000000000000000000000266e657bf0",
          "blockHash": "0x4d070ee59f625823e9d2fea27c461820d871124aead272fb175e6c71cd13e8b1",
          "blockNumber": "0xfcdf19",
          "transactionHash": "0x8d76ee917567bf2b09055e8c6d27682247cce3312d4fbf4fb22a17229ba21fe9",
          "transactionIndex": "0x4f",
          "logIndex": "0xcd",
          "removed": false
        },
        {
          "address": "0x1a44076050125825900e736c501f859c50fe728c",
          "topics": [
            "0x1ab700d4ced0c005b164c0f789fd09fcbb0156d4c2041b8a3bfbcd961cd1567f"
          ],
          "data": "0x00000000000000000000000000000000000000000000000000000000000000600000000000000000000000000000000000000000000000000000000000000120000000000000000000000000b5320b0b3a13cc860893e2bd79fcd7e13484dda20000000000000000000000000000000000000000000000000000000000000099010000000000000001000075e8000000000000000000000000f010a7c8877043681d59ad125ebf5756335059420000763400000000000000000000000043edd7f3831b08fe70b7555ddd373c8bf65a9050d6c23ef4cb92acefc455ef3a107bf623fc15bfcf1105b8bc5e5b290565dcab40000000000000000000000000b0e1650a9760e0f383174af042091fc544b8356f000000000000006400000000000000000000000000000000000000000000000000000000000000000000000000001600030100110100000000000000000000000000030d4000000000000000000000",
          "blockHash": "0x4d070ee59f625823e9d2fea27c461820d871124aead272fb175e6c71cd13e8b1",
          "blockNumber": "0xfcdf19",
          "transactionHash": "0x8d76ee917567bf2b09055e8c6d27682247cce3312d4fbf4fb22a17229ba21fe9",
          "transactionIndex": "0x4f",
          "logIndex": "0xce",
          "removed": false
        },
        {
          "address": "0xf010a7c8877043681d59ad125ebf575633505942",
          "topics": [
            "0x85496b760a4b7f8d66384b9df21b381f5d1b1e79f229a47aaf4c232edc2fe59a",
            "0xd6c23ef4cb92acefc455ef3a107bf623fc15bfcf1105b8bc5e5b290565dcab40",
            "0x000000000000000000000000b0e1650a9760e0f383174af042091fc544b8356f"
          ],
          "data": "0x000000000000000000000000000000000000000000000000000000000000763400000000000000000000000000000000000000000000000000005af3107a400000000000000000000000000000000000000000000000000000005af3107a4000",
          "blockHash": "0x4d070ee59f625823e9d2fea27c461820d871124aead272fb175e6c71cd13e8b1",
          "blockNumber": "0xfcdf19",
          "transactionHash": "0x8d76ee917567bf2b09055e8c6d27682247cce3312d4fbf4fb22a17229ba21fe9",
          "transactionIndex": "0x4f",
          "logIndex": "0xcf",
          "removed": false
        }
      ],
      "logsBloom": "0x00000000000000000000000000000000000000000000000000000000001000000000000000000000000000000020000000000000000000000000000000000000000002000000000000000408000000000000000000000000000000000000000100000000020000008000000000000800000000000110080000000010000080000000000000000000000000080000000000000000000000000004000000000000000000008000000000100000000000000000000000400000000440000000000000000002000000000010000080000000000080000000000000000000000020000000040080000000000000000000002000000000018040000000000000000010",
      "type": "0x2",
      "transactionHash": "0x8d76ee917567bf2b09055e8c6d27682247cce3312d4fbf4fb22a17229ba21fe9",
      "transactionIndex": "0x4f",
      "blockHash": "0x4d070ee59f625823e9d2fea27c461820d871124aead272fb175e6c71cd13e8b1",
      "blockNumber": "0xfcdf19",
      "gasUsed": "0x44020",
      "effectiveGasPrice": "0x7d8bc4",
      "from": "0xb0e1650a9760e0f383174af042091fc544b8356f",
      "to": "0xf010a7c8877043681d59ad125ebf575633505942",
      "contractAddress": null,
      "l1BaseFeeScalar": "0x58a",
      "l1BlobBaseFee": "0xa4",
      "l1BlobBaseFeeScalar": "0xa118b",
      "l1Fee": "0xb7f5b2d98",
      "l1GasPrice": "0x1bb8703bc",
      "l1GasUsed": "0x1248"
    },
    {
      "status": "0x1",
      "cumulativeGasUsed": "0x10bb3b1",
      "logs": [
        {
          "address": "0xe41228a455700caf09e551805a8ab37caa39d08c",
          "topics": [
            "0xddf252ad1be2c89b69c2b068fc378daa952ba7f163c4a11628f55a4df523b3ef",
            "0x000000000000000000000000b0e1650a9760e0f383174af042091fc544b8356f",
            "0x0000000000000000000000000000000000000000000000000000000000000000"
          ],
          "data": "0x00000000000000000000000000000000000000000000000000005af3107a4000",
          "blockHash": "0x006ad13b666a7081c1727107d71a1b7f0181f57ed329aaf13126651e7c8fefd3",
          "blockNumber": "0xfcdf1d",
          "transactionHash": "0x1df53d4c2cf6096099694bfd7ccb6e04d273049fec7858af0b36db1cac632acc",
          "transactionIndex": "0x52",
          "logIndex": "0x13e",
          "removed": false
        },
        {
          "address": "0xb5320b0b3a13cc860893e2bd79fcd7e13484dda2",
          "topics": [
            "0x61ed099e74a97a1d7f8bb0952a88ca8b7b8ebd00c126ea04671f92a81213318a"
          ],
          "data": "0x0000000000000000000000002cca08ae69e0c44b18a57ab2a87644234daebae40000000000000000000000000000000000000000000000000000082a2805899d",
          "blockHash": "0x006ad13b666a7081c1727107d71a1b7f0181f57ed329aaf13126651e7c8fefd3",
          "blockNumber": "0xfcdf1d",
          "transactionHash": "0x1df53d4c2cf6096099694bfd7ccb6e04d273049fec7858af0b36db1cac632acc",
          "transactionIndex": "0x52",
          "logIndex": "0x13f",
          "removed": false
        },
        {
          "address": "0xb5320b0b3a13cc860893e2bd79fcd7e13484dda2",
          "topics": [
            "0x07ea52d82345d6e838192107d8fd7123d9c2ec8e916cd0aad13fd2b60db24644"
          ],
          "data": "0x000000000000000000000000000000000000000000000000000000000000006000000000000000000000000000000000000000000000000000000000000000c000000000000000000000000000000000000000000000000000000000000000e000000000000000000000000000000000000000000000000000000000000000020000000000000000000000009e059a54699a285714207b43b055483e78faac25000000000000000000000000a7b5189bca84cd304d8553977c7c614329750d9900000000000000000000000000000000000000000000000000000000000000000000000000000000000000000000000000000000000000000000000000000002000000000000000000000000000000000000000000000000000000266e657bf0000000000000000000000000000000000000000000000000000000266e657bf0",
          "blockHash": "0x006ad13b666a7081c1727107d71a1b7f0181f57ed329aaf13126651e7c8fefd3",
          "blockNumber": "0xfcdf1d",
          "transactionHash": "0x1df53d4c2cf6096099694bfd7ccb6e04d273049fec7858af0b36db1cac632acc",
          "transactionIndex": "0x52",
          "logIndex": "0x140",
          "removed": false
        },
        {
          "address": "0x1a44076050125825900e736c501f859c50fe728c",
          "topics": [
            "0x1ab700d4ced0c005b164c0f789fd09fcbb0156d4c2041b8a3bfbcd961cd1567f"
          ],
          "data": "0x00000000000000000000000000000000000000000000000000000000000000600000000000000000000000000000000000000000000000000000000000000120000000000000000000000000b5320b0b3a13cc860893e2bd79fcd7e13484dda20000000000000000000000000000000000000000000000000000000000000099010000000000000001000075e8000000000000000000000000e41228a455700caf09e551805a8ab37caa39d08c00007634000000000000000000000000eed9de5e41b53d1c8fab8aab4b0e446f828c1483c492661a8f55bdd147aca2743a463a2b0efa243de8105df5764996a0ab589e03000000000000000000000000b0e1650a9760e0f383174af042091fc544b8356f000000000000006400000000000000000000000000000000000000000000000000000000000000000000000000001600030100110100000000000000000000000000030d4000000000000000000000",
          "blockHash": "0x006ad13b666a7081c1727107d71a1b7f0181f57ed329aaf13126651e7c8fefd3",
          "blockNumber": "0xfcdf1d",
          "transactionHash": "0x1df53d4c2cf6096099694bfd7ccb6e04d273049fec7858af0b36db1cac632acc",
          "transactionIndex": "0x52",
          "logIndex": "0x141",
          "removed": false
        },
        {
          "address": "0xe41228a455700caf09e551805a8ab37caa39d08c",
          "topics": [
            "0x85496b760a4b7f8d66384b9df21b381f5d1b1e79f229a47aaf4c232edc2fe59a",
            "0xc492661a8f55bdd147aca2743a463a2b0efa243de8105df5764996a0ab589e03",
            "0x000000000000000000000000b0e1650a9760e0f383174af042091fc544b8356f"
          ],
          "data": "0x000000000000000000000000000000000000000000000000000000000000763400000000000000000000000000000000000000000000000000005af3107a400000000000000000000000000000000000000000000000000000005af3107a4000",
          "blockHash": "0x006ad13b666a7081c1727107d71a1b7f0181f57ed329aaf13126651e7c8fefd3",
          "blockNumber": "0xfcdf1d",
          "transactionHash": "0x1df53d4c2cf6096099694bfd7ccb6e04d273049fec7858af0b36db1cac632acc",
          "transactionIndex": "0x52",
          "logIndex": "0x142",
          "removed": false
        }
      ],
      "logsBloom": "0x00000000000000000000000000000000000000000000000000000000001000000000000000000000000000000000000000000000000000000400000000000000000002000000000000000408000000000000000000000000000000080000000100000000020000008000000000000800000000000110080000000010000000000000000000000000000000080000000000000000000200000004000000000000000000008000000000100000800000000000000000400000000440000000000000000042000000000000000080000000000000000000000000000000000020000000040080000000000000000000002000000000018000000000000000000000",
      "type": "0x2",
      "transactionHash": "0x1df53d4c2cf6096099694bfd7ccb6e04d273049fec7858af0b36db1cac632acc",
      "transactionIndex": "0x52",
      "blockHash": "0x006ad13b666a7081c1727107d71a1b7f0181f57ed329aaf13126651e7c8fefd3",
      "blockNumber": "0xfcdf1d",
      "gasUsed": "0x44020",
      "effectiveGasPrice": "0x7d329e",
      "from": "0xb0e1650a9760e0f383174af042091fc544b8356f",
      "to": "0xe41228a455700caf09e551805a8ab37caa39d08c",
      "contractAddress": null,
      "l1BaseFeeScalar": "0x58a",
      "l1BlobBaseFee": "0xa4",
      "l1BlobBaseFeeScalar": "0xa118b",
      "l1Fee": "0xb7f5b2d98",
      "l1GasPrice": "0x1bb8703bc",
      "l1GasUsed": "0x1248"
    }
  ],
  "libraries": [],
  "pending": [],
  "returns": {},
  "timestamp": 1719933718,
  "chain": 8453,
  "commit": "52a2592"
}