{
  "transactions": [
    {
      "hash": "0x4bcf654d063a3ebd9bca71aa0a114d5111dba44db14c200c7582910857fbf499",
      "transactionType": "CALL",
      "contractName": null,
      "contractAddress": "0x57558cb8d6005de0bae8a2789d5efaae52dba5a8",
      "function": "mint(address,uint256)",
      "arguments": [
        "0x741F0d8Bde14140f62107FC60A0EE122B37D4630",
        "1000000000000000000000"
      ],
      "transaction": {
        "from": "0x45dce8e4f2dc005a5f28206a46cb034697eeda8e",
        "to": "0x57558cb8d6005de0bae8a2789d5efaae52dba5a8",
        "gas": "0xf95f",
        "value": "0x0",
        "input": "0x40c10f19000000000000000000000000741f0d8bde14140f62107fc60a0ee122b37d463000000000000000000000000000000000000000000000003635c9adc5dea00000",
        "nonce": "0x6a",
        "chainId": "0xfc"
      },
      "additionalContracts": [],
      "isFixedGasLimit": false
    }
  ],
  "receipts": [
    {
      "status": "0x1",
      "cumulativeGasUsed": "0x15e80",
      "logs": [
        {
          "address": "0x57558cb8d6005de0bae8a2789d5efaae52dba5a8",
          "topics": [
            "0xddf252ad1be2c89b69c2b068fc378daa952ba7f163c4a11628f55a4df523b3ef",
            "0x0000000000000000000000000000000000000000000000000000000000000000",
            "0x000000000000000000000000741f0d8bde14140f62107fc60a0ee122b37d4630"
          ],
          "data": "0x00000000000000000000000000000000000000000000003635c9adc5dea00000",
          "blockHash": "0x18a27620fee9bf8eff95743fc984160b2943bfbc4e801b2ae90fdaf684ced711",
          "blockNumber": "0x14a380c",
          "transactionHash": "0x4bcf654d063a3ebd9bca71aa0a114d5111dba44db14c200c7582910857fbf499",
          "transactionIndex": "0x1",
          "logIndex": "0x0",
          "removed": false
        }
      ],
      "logsBloom": "0x00000000000000000000000000040040000000000000000000000000000000000000000000000000000000000000000400000100000000000000000000000000000000000000000000000008000000000000000000000000000000000000000000000000020000000000000000000800000000000000000000000010000000000000000000000000000000000000000000000000000000000000000000000000000000002000001000000000000000000000000000000000000000000000000000000002000000000000000000000000000000000000000000000000000020000000000000000000000000000000000000000000000000000000000000000000",
      "type": "0x2",
      "transactionHash": "0x4bcf654d063a3ebd9bca71aa0a114d5111dba44db14c200c7582910857fbf499",
      "transactionIndex": "0x1",
      "blockHash": "0x18a27620fee9bf8eff95743fc984160b2943bfbc4e801b2ae90fdaf684ced711",
      "blockNumber": "0x14a380c",
      "gasUsed": "0xaa83",
      "effectiveGasPrice": "0xfe",
      "from": "0x45dce8e4f2dc005a5f28206a46cb034697eeda8e",
      "to": "0x57558cb8d6005de0bae8a2789d5efaae52dba5a8",
      "contractAddress": null,
      "l1BaseFeeScalar": "0x2faf080",
      "l1BlobBaseFee": "0x1",
      "l1BlobBaseFeeScalar": "0x0",
      "l1Fee": "0x7c79e2dad800",
      "l1GasPrice": "0x65f888b0",
      "l1GasUsed": "0x640"
    }
  ],
  "libraries": [],
  "pending": [],
  "returns": {},
  "timestamp": 1750093168,
  "chain": 252,
  "commit": "e04209c"
}