{
  "transactions": [
    {
      "hash": "0x29ceb6779b55fe48ffc9e44bbc07ed80c2c8d94deee68b14f0317c90f0f001fa",
      "transactionType": "CALL",
      "contractName": null,
      "contractAddress": "0x57558cb8d6005de0bae8a2789d5efaae52dba5a8",
      "function": "mint(address,uint256)",
      "arguments": [
        "0x741F0d8Bde14140f62107FC60A0EE122B37D4630",
        "1000000000000000000000"
      ],
      "transaction": {
        "from": "0x45dce8e4f2dc005a5f28206a46cb034697eeda8e",
        "to": "0x57558cb8d6005de0bae8a2789d5efaae52dba5a8",
        "gas": "0x1bcc0",
        "value": "0x0",
        "input": "0x40c10f19000000000000000000000000741f0d8bde14140f62107fc60a0ee122b37d463000000000000000000000000000000000000000000000003635c9adc5dea00000",
        "nonce": "0x69",
        "chainId": "0xfc"
      },
      "additionalContracts": [],
      "isFixedGasLimit": false
    }
  ],
  "receipts": [
    {
      "status": "0x1",
      "cumulativeGasUsed": "0x1e418",
      "logs": [
        {
          "address": "0x57558cb8d6005de0bae8a2789d5efaae52dba5a8",
          "topics": [
            "0xddf252ad1be2c89b69c2b068fc378daa952ba7f163c4a11628f55a4df523b3ef",
            "0x0000000000000000000000000000000000000000000000000000000000000000",
            "0x000000000000000000000000741f0d8bde14140f62107fc60a0ee122b37d4630"
          ],
          "data": "0x00000000000000000000000000000000000000000000003635c9adc5dea00000",
          "blockHash": "0x8458aee68b1b76b782c8735695e8f5f235505e94f107859329e344fa7033c814",
          "blockNumber": "0x14a2dd3",
          "transactionHash": "0x29ceb6779b55fe48ffc9e44bbc07ed80c2c8d94deee68b14f0317c90f0f001fa",
          "transactionIndex": "0x1",
          "logIndex": "0x0",
          "removed": false
        }
      ],
      "logsBloom": "0x00000000000000000000000000040040000000000000000000000000000000000000000000000000000000000000000400000100000000000000000000000000000000000000000000000008000000000000000000000000000000000000000000000000020000000000000000000800000000000000000000000010000000000000000000000000000000000000000000000000000000000000000000000000000000002000001000000000000000000000000000000000000000000000000000000002000000000000000000000000000000000000000000000000000020000000000000000000000000000000000000000000000000000000000000000000",
      "type": "0x2",
      "transactionHash": "0x29ceb6779b55fe48ffc9e44bbc07ed80c2c8d94deee68b14f0317c90f0f001fa",
      "transactionIndex": "0x1",
      "blockHash": "0x8458aee68b1b76b782c8735695e8f5f235505e94f107859329e344fa7033c814",
      "blockNumber": "0x14a2dd3",
      "gasUsed": "0x1301b",
      "effectiveGasPrice": "0xf433d",
      "from": "0x45dce8e4f2dc005a5f28206a46cb034697eeda8e",
      "to": "0x57558cb8d6005de0bae8a2789d5efaae52dba5a8",
      "contractAddress": null,
      "l1BaseFeeScalar": "0x2faf080",
      "l1BlobBaseFee": "0x1",
      "l1BlobBaseFeeScalar": "0x0",
      "l1Fee": "0xc3a8f4796b00",
      "l1GasPrice": "0xa048df36",
      "l1GasUsed": "0x640"
    }
  ],
  "libraries": [],
  "pending": [],
  "returns": {},
  "timestamp": 1750087934,
  "chain": 252,
  "commit": "0d1f32a"
}