{
  "transactions": [
    {
      "hash": null,
      "transactionType": "CALL",
      "contractName": null,
      "contractAddress": "0xbd39033994f5324fe8d50bb524396a78ff9dfe22",
      "function": "setEnforcedOptions((uint32,uint16,bytes)[])",
      "arguments": [
        "[(30260, 1, 0x00030100110100000000000000000000000000030d40), (30260, 2, 0x0003010011010000000000000000000000000003d090), (30280, 1, 0x00030100110100000000000000000000000000030d40), (30280, 2, 0x0003010011010000000000000000000000000003d090), (30255, 1, 0x00030100110100000000000000000000000000030d40), (30255, 2, 0x0003010011010000000000000000000000000003d090), (30274, 1, 0x00030100110100000000000000000000000000030d40), (30274, 2, 0x0003010011010000000000000000000000000003d090), (30332, 1, 0x00030100110100000000000000000000000000030d40), (30332, 2, 0x0003010011010000000000000000000000000003d090), (30339, 1, 0x00030100110100000000000000000000000000030d40), (30339, 2, 0x0003010011010000000000000000000000000003d090), (30110, 1, 0x00030100110100000000000000000000000000030d40), (30110, 2, 0x0003010011010000000000000000000000000003d090), (30111, 1, 0x00030100110100000000000000000000000000030d40), (30111, 2, 0x0003010011010000000000000000000000000003d090), (30109, 1, 0x00030100110100000000000000000000000000030d40), (30109, 2, 0x0003010011010000000000000000000000000003d090), (30106, 1, 0x00030100110100000000000000000000000000030d40), (30106, 2, 0x0003010011010000000000000000000000000003d090), (30102, 1, 0x00030100110100000000000000000000000000030d40), (30102, 2, 0x0003010011010000000000000000000000000003d090), (30158, 1, 0x00030100110100000000000000000000000000030d40), (30158, 2, 0x0003010011010000000000000000000000000003d090), (30101, 1, 0x00030100110100000000000000000000000000030d40), (30101, 2, 0x0003010011010000000000000000000000000003d090), (30243, 1, 0x00030100110100000000000000000000000000030d40), (30243, 2, 0x0003010011010000000000000000000000000003d090), (30184, 1, 0x00030100110100000000000000000000000000030d40), (30184, 2, 0x0003010011010000000000000000000000000003d090), (30362, 1, 0x00030100110100000000000000000000000000030d40), (30362, 2, 0x0003010011010000000000000000000000000003d090), (30183, 1, 0x00030100110100000000000000000000000000030d40), (30183, 2, 0x0003010011010000000000000000000000000003d090), (30319, 1, 0x00030100110100000000000000000000000000030d40), (30319, 2, 0x0003010011010000000000000000000000000003d090), (30165, 1, 0x00030100110100000000000000000000000000030d40), (30165, 2, 0x0003010011010000000000000000000000000003d090)]"
      ],
      "transaction": {
        "from": "0x45dce8e4f2dc005a5f28206a46cb034697eeda8e",
        "to": "0xbd39033994f5324fe8d50bb524396a78ff9dfe22",
        "gas": "0x294e10",
        "value": "0x0",
        "input": "0xb98bd0700000000000000000000000000000000000000000000000000000000000000020000000000000000000000000000000000000000000000000000000000000002600000000000000000000000000000000000000000000000000000000000004c00000000000000000000000000000000000000000000000000000000000000560000000000000000000000000000000000000000000000000000000000000060000000000000000000000000000000000000000000000000000000000000006a0000000000000000000000000000000000000000000000000000000000000074000000000000000000000000000000000000000000000000000000000000007e00000000000000000000000000000000000000000000000000000000000000880000000000000000000000000000000000000000000000000000000000000092000000000000000000000000000000000000000000000000000000000000009c00000000000000000000000000000000000000000000000000000000000000a600000000000000000000000000000000000000000000000000000000000000b000000000000000000000000000000000000000000000000000000000000000ba00000000000000000000000000000000000000000000000000000000000000c400000000000000000000000000000000000000000000000000000000000000ce00000000000000000000000000000000000000000000000000000000000000d800000000000000000000000000000000000000000000000000000000000000e200000000000000000000000000000000000000000000000000000000000000ec00000000000000000000000000000000000000000000000000000000000000f60000000000000000000000000000000000000000000000000000000000000100000000000000000000000000000000000000000000000000000000000000010a0000000000000000000000000000000000000000000000000000000000000114000000000000000000000000000000000000000000000000000000000000011e00000000000000000000000000000000000000000000000000000000000001280000000000000000000000000000000000000000000000000000000000000132000000000000000000000000000000000000000000000000000000000000013c00000000000000000000000000000000000000000000000000000000000001460000000000000000000000000000000000000000000000000000000000000150000000000000000000000000000000000000000000000000000000000000015a0000000000000000000000000000000000000000000000000000000000000164000000000000000000000000000000000000000000000000000000000000016e00000000000000000000000000000000000000000000000000000000000001780000000000000000000000000000000000000000000000000000000000000182000000000000000000000000000000000000000000000000000000000000018c000000000000000000000000000000000000000000000000000000000000019600000000000000000000000000000000000000000000000000000000000001a000000000000000000000000000000000000000000000000000000000000001aa00000000000000000000000000000000000000000000000000000000000001b400000000000000000000000000000000000000000000000000000000000001be0000000000000000000000000000000000000000000000000000000000000763400000000000000000000000000000000000000000000000000000000000000010000000000000000000000000000000000000000000000000000000000000060000000000000000000000000000000000000000000000000000000000000001600030100110100000000000000000000000000030d400000000000000000000000000000000000000000000000000000000000000000000000000000000076340000000000000000000000000000000000000000000000000000000000000002000000000000000000000000000000000000000000000000000000000000006000000000000000000000000000000000000000000000000000000000000000160003010011010000000000000000000000000003d09000000000000000000000000000000000000000000000000000000000000000000000000000000000764800000000000000000000000000000000000000000000000000000000000000010000000000000000000000000000000000000000000000000000000000000060000000000000000000000000000000000000000000000000000000000000001600030100110100000000000000000000000000030d400000000000000000000000000000000000000000000000000000000000000000000000000000000076480000000000000000000000000000000000000000000000000000000000000002000000000000000000000000000000000000000000000000000000000000006000000000000000000000000000000000000000000000000000000000000000160003010011010000000000000000000000000003d09000000000000000000000000000000000000000000000000000000000000000000000000000000000762f00000000000000000000000000000000000000000000000000000000000000010000000000000000000000000000000000000000000000000000000000000060000000000000000000000000000000000000000000000000000000000000001600030100110100000000000000000000000000030d4000000000000000000000000000000000000000000000000000000000000000000000000000000000762f0000000000000000000000000000000000000000000000000000000000000002000000000000000000000000000000000000000000000000000000000000006000000000000000000000000000000000000000000000000000000000000000160003010011010000000000000000000000000003d09000000000000000000000000000000000000000000000000000000000000000000000000000000000764200000000000000000000000000000000000000000000000000000000000000010000000000000000000000000000000000000000000000000000000000000060000000000000000000000000000000000000000000000000000000000000001600030100110100000000000000000000000000030d400000000000000000000000000000000000000000000000000000000000000000000000000000000076420000000000000000000000000000000000000000000000000000000000000002000000000000000000000000000000000000000000000000000000000000006000000000000000000000000000000000000000000000000000000000000000160003010011010000000000000000000000000003d09000000000000000000000000000000000000000000000000000000000000000000000000000000000767c00000000000000000000000000000000000000000000000000000000000000010000000000000000000000000000000000000000000000000000000000000060000000000000000000000000000000000000000000000000000000000000001600030100110100000000000000000000000000030d4000000000000000000000000000000000000000000000000000000000000000000000000000000000767c0000000000000000000000000000000000000000000000000000000000000002000000000000000000000000000000000000000000000000000000000000006000000000000000000000000000000000000000000000000000000000000000160003010011010000000000000000000000000003d09000000000000000000000000000000000000000000000000000000000000000000000000000000000768300000000000000000000000000000000000000000000000000000000000000010000000000000000000000000000000000000000000000000000000000000060000000000000000000000000000000000000000000000000000000000000001600030100110100000000000000000000000000030d400000000000000000000000000000000000000000000000000000000000000000000000000000000076830000000000000000000000000000000000000000000000000000000000000002000000000000000000000000000000000000000000000000000000000000006000000000000000000000000000000000000000000000000000000000000000160003010011010000000000000000000000000003d09000000000000000000000000000000000000000000000000000000000000000000000000000000000759e00000000000000000000000000000000000000000000000000000000000000010000000000000000000000000000000000000000000000000000000000000060000000000000000000000000000000000000000000000000000000000000001600030100110100000000000000000000000000030d4000000000000000000000000000000000000000000000000000000000000000000000000000000000759e0000000000000000000000000000000000000000000000000000000000000002000000000000000000000000000000000000000000000000000000000000006000000000000000000000000000000000000000000000000000000000000000160003010011010000000000000000000000000003d09000000000000000000000000000000000000000000000000000000000000000000000000000000000759f00000000000000000000000000000000000000000000000000000000000000010000000000000000000000000000000000000000000000000000000000000060000000000000000000000000000000000000000000000000000000000000001600030100110100000000000000000000000000030d4000000000000000000000000000000000000000000000000000000000000000000000000000000000759f0000000000000000000000000000000000000000000000000000000000000002000000000000000000000000000000000000000000000000000000000000006000000000000000000000000000000000000000000000000000000000000000160003010011010000000000000000000000000003d09000000000000000000000000000000000000000000000000000000000000000000000000000000000759d00000000000000000000000000000000000000000000000000000000000000010000000000000000000000000000000000000000000000000000000000000060000000000000000000000000000000000000000000000000000000000000001600030100110100000000000000000000000000030d4000000000000000000000000000000000000000000000000000000000000000000000000000000000759d0000000000000000000000000000000000000000000000000000000000000002000000000000000000000000000000000000000000000000000000000000006000000000000000000000000000000000000000000000000000000000000000160003010011010000000000000000000000000003d09000000000000000000000000000000000000000000000000000000000000000000000000000000000759a00000000000000000000000000000000000000000000000000000000000000010000000000000000000000000000000000000000000000000000000000000060000000000000000000000000000000000000000000000000000000000000001600030100110100000000000000000000000000030d4000000000000000000000000000000000000000000000000000000000000000000000000000000000759a0000000000000000000000000000000000000000000000000000000000000002000000000000000000000000000000000000000000000000000000000000006000000000000000000000000000000000000000000000000000000000000000160003010011010000000000000000000000000003d09000000000000000000000000000000000000000000000000000000000000000000000000000000000759600000000000000000000000000000000000000000000000000000000000000010000000000000000000000000000000000000000000000000000000000000060000000000000000000000000000000000000000000000000000000000000001600030100110100000000000000000000000000030d400000000000000000000000000000000000000000000000000000000000000000000000000000000075960000000000000000000000000000000000000000000000000000000000000002000000000000000000000000000000000000000000000000000000000000006000000000000000000000000000000000000000000000000000000000000000160003010011010000000000000000000000000003d0900000000000000000000000000000000000000000000000000000000000000000000000000000000075ce00000000000000000000000000000000000000000000000000000000000000010000000000000000000000000000000000000000000000000000000000000060000000000000000000000000000000000000000000000000000000000000001600030100110100000000000000000000000000030d400000000000000000000000000000000000000000000000000000000000000000000000000000000075ce0000000000000000000000000000000000000000000000000000000000000002000000000000000000000000000000000000000000000000000000000000006000000000000000000000000000000000000000000000000000000000000000160003010011010000000000000000000000000003d09000000000000000000000000000000000000000000000000000000000000000000000000000000000759500000000000000000000000000000000000000000000000000000000000000010000000000000000000000000000000000000000000000000000000000000060000000000000000000000000000000000000000000000000000000000000001600030100110100000000000000000000000000030d400000000000000000000000000000000000000000000000000000000000000000000000000000000075950000000000000000000000000000000000000000000000000000000000000002000000000000000000000000000000000000000000000000000000000000006000000000000000000000000000000000000000000000000000000000000000160003010011010000000000000000000000000003d09000000000000000000000000000000000000000000000000000000000000000000000000000000000762300000000000000000000000000000000000000000000000000000000000000010000000000000000000000000000000000000000000000000000000000000060000000000000000000000000000000000000000000000000000000000000001600030100110100000000000000000000000000030d400000000000000000000000000000000000000000000000000000000000000000000000000000000076230000000000000000000000000000000000000000000000000000000000000002000000000000000000000000000000000000000000000000000000000000006000000000000000000000000000000000000000000000000000000000000000160003010011010000000000000000000000000003d0900000000000000000000000000000000000000000000000000000000000000000000000000000000075e800000000000000000000000000000000000000000000000000000000000000010000000000000000000000000000000000000000000000000000000000000060000000000000000000000000000000000000000000000000000000000000001600030100110100000000000000000000000000030d400000000000000000000000000000000000000000000000000000000000000000000000000000000075e80000000000000000000000000000000000000000000000000000000000000002000000000000000000000000000000000000000000000000000000000000006000000000000000000000000000000000000000000000000000000000000000160003010011010000000000000000000000000003d09000000000000000000000000000000000000000000000000000000000000000000000000000000000769a00000000000000000000000000000000000000000000000000000000000000010000000000000000000000000000000000000000000000000000000000000060000000000000000000000000000000000000000000000000000000000000001600030100110100000000000000000000000000030d4000000000000000000000000000000000000000000000000000000000000000000000000000000000769a0000000000000000000000000000000000000000000000000000000000000002000000000000000000000000000000000000000000000000000000000000006000000000000000000000000000000000000000000000000000000000000000160003010011010000000000000000000000000003d0900000000000000000000000000000000000000000000000000000000000000000000000000000000075e700000000000000000000000000000000000000000000000000000000000000010000000000000000000000000000000000000000000000000000000000000060000000000000000000000000000000000000000000000000000000000000001600030100110100000000000000000000000000030d400000000000000000000000000000000000000000000000000000000000000000000000000000000075e70000000000000000000000000000000000000000000000000000000000000002000000000000000000000000000000000000000000000000000000000000006000000000000000000000000000000000000000000000000000000000000000160003010011010000000000000000000000000003d09000000000000000000000000000000000000000000000000000000000000000000000000000000000766f00000000000000000000000000000000000000000000000000000000000000010000000000000000000000000000000000000000000000000000000000000060000000000000000000000000000000000000000000000000000000000000001600030100110100000000000000000000000000030d4000000000000000000000000000000000000000000000000000000000000000000000000000000000766f0000000000000000000000000000000000000000000000000000000000000002000000000000000000000000000000000000000000000000000000000000006000000000000000000000000000000000000000000000000000000000000000160003010011010000000000000000000000000003d0900000000000000000000000000000000000000000000000000000000000000000000000000000000075d500000000000000000000000000000000000000000000000000000000000000010000000000000000000000000000000000000000000000000000000000000060000000000000000000000000000000000000000000000000000000000000001600030100110100000000000000000000000000030d400000000000000000000000000000000000000000000000000000000000000000000000000000000075d50000000000000000000000000000000000000000000000000000000000000002000000000000000000000000000000000000000000000000000000000000006000000000000000000000000000000000000000000000000000000000000000160003010011010000000000000000000000000003d09000000000000000000000",
        "nonce": "0x2f",
        "chainId": "0xab5",
        "zksync": {
          "factoryDeps": [],
          "paymasterData": null
        }
      },
      "additionalContracts": [],
      "isFixedGasLimit": false
    },
    {
      "hash": null,
      "transactionType": "CALL",
      "contractName": null,
      "contractAddress": "0xbd39033994f5324fe8d50bb524396a78ff9dfe22",
      "function": "setPeer(uint32,bytes32)",
      "arguments": [
        "30260",
        "0x00000000000000000000000057558cb8d6005de0bae8a2789d5efaae52dba5a8"
      ],
      "transaction": {
        "from": "0x45dce8e4f2dc005a5f28206a46cb034697eeda8e",
        "to": "0xbd39033994f5324fe8d50bb524396a78ff9dfe22",
        "gas": "0x32bc8",
        "value": "0x0",
        "input": "0x3400288b000000000000000000000000000000000000000000000000000000000000763400000000000000000000000057558cb8d6005de0bae8a2789d5efaae52dba5a8",
        "nonce": "0x30",
        "chainId": "0xab5",
        "zksync": {
          "factoryDeps": [],
          "paymasterData": null
        }
      },
      "additionalContracts": [],
      "isFixedGasLimit": false
    },
    {
      "hash": null,
      "transactionType": "CALL",
      "contractName": null,
      "contractAddress": "0xbd39033994f5324fe8d50bb524396a78ff9dfe22",
      "function": "setPeer(uint32,bytes32)",
      "arguments": [
        "30280",
        "0x00000000000000000000000057558cb8d6005de0bae8a2789d5efaae52dba5a8"
      ],
      "transaction": {
        "from": "0x45dce8e4f2dc005a5f28206a46cb034697eeda8e",
        "to": "0xbd39033994f5324fe8d50bb524396a78ff9dfe22",
        "gas": "0x32bc8",
        "value": "0x0",
        "input": "0x3400288b000000000000000000000000000000000000000000000000000000000000764800000000000000000000000057558cb8d6005de0bae8a2789d5efaae52dba5a8",
        "nonce": "0x31",
        "chainId": "0xab5",
        "zksync": {
          "factoryDeps": [],
          "paymasterData": null
        }
      },
      "additionalContracts": [],
      "isFixedGasLimit": false
    },
    {
      "hash": null,
      "transactionType": "CALL",
      "contractName": null,
      "contractAddress": "0xbd39033994f5324fe8d50bb524396a78ff9dfe22",
      "function": "setPeer(uint32,bytes32)",
      "arguments": [
        "30255",
        "0x00000000000000000000000057558cb8d6005de0bae8a2789d5efaae52dba5a8"
      ],
      "transaction": {
        "from": "0x45dce8e4f2dc005a5f28206a46cb034697eeda8e",
        "to": "0xbd39033994f5324fe8d50bb524396a78ff9dfe22",
        "gas": "0x32bc8",
        "value": "0x0",
        "input": "0x3400288b000000000000000000000000000000000000000000000000000000000000762f00000000000000000000000057558cb8d6005de0bae8a2789d5efaae52dba5a8",
        "nonce": "0x32",
        "chainId": "0xab5",
        "zksync": {
          "factoryDeps": [],
          "paymasterData": null
        }
      },
      "additionalContracts": [],
      "isFixedGasLimit": false
    },
    {
      "hash": null,
      "transactionType": "CALL",
      "contractName": null,
      "contractAddress": "0xbd39033994f5324fe8d50bb524396a78ff9dfe22",
      "function": "setPeer(uint32,bytes32)",
      "arguments": [
        "30274",
        "0x00000000000000000000000057558cb8d6005de0bae8a2789d5efaae52dba5a8"
      ],
      "transaction": {
        "from": "0x45dce8e4f2dc005a5f28206a46cb034697eeda8e",
        "to": "0xbd39033994f5324fe8d50bb524396a78ff9dfe22",
        "gas": "0x32bc8",
        "value": "0x0",
        "input": "0x3400288b000000000000000000000000000000000000000000000000000000000000764200000000000000000000000057558cb8d6005de0bae8a2789d5efaae52dba5a8",
        "nonce": "0x33",
        "chainId": "0xab5",
        "zksync": {
          "factoryDeps": [],
          "paymasterData": null
        }
      },
      "additionalContracts": [],
      "isFixedGasLimit": false
    },
    {
      "hash": null,
      "transactionType": "CALL",
      "contractName": null,
      "contractAddress": "0xbd39033994f5324fe8d50bb524396a78ff9dfe22",
      "function": "setPeer(uint32,bytes32)",
      "arguments": [
        "30332",
        "0x00000000000000000000000057558cb8d6005de0bae8a2789d5efaae52dba5a8"
      ],
      "transaction": {
        "from": "0x45dce8e4f2dc005a5f28206a46cb034697eeda8e",
        "to": "0xbd39033994f5324fe8d50bb524396a78ff9dfe22",
        "gas": "0x32bc8",
        "value": "0x0",
        "input": "0x3400288b000000000000000000000000000000000000000000000000000000000000767c00000000000000000000000057558cb8d6005de0bae8a2789d5efaae52dba5a8",
        "nonce": "0x34",
        "chainId": "0xab5",
        "zksync": {
          "factoryDeps": [],
          "paymasterData": null
        }
      },
      "additionalContracts": [],
      "isFixedGasLimit": false
    },
    {
      "hash": null,
      "transactionType": "CALL",
      "contractName": null,
      "contractAddress": "0xbd39033994f5324fe8d50bb524396a78ff9dfe22",
      "function": "setPeer(uint32,bytes32)",
      "arguments": [
        "30339",
        "0x00000000000000000000000057558cb8d6005de0bae8a2789d5efaae52dba5a8"
      ],
      "transaction": {
        "from": "0x45dce8e4f2dc005a5f28206a46cb034697eeda8e",
        "to": "0xbd39033994f5324fe8d50bb524396a78ff9dfe22",
        "gas": "0x32bc8",
        "value": "0x0",
        "input": "0x3400288b000000000000000000000000000000000000000000000000000000000000768300000000000000000000000057558cb8d6005de0bae8a2789d5efaae52dba5a8",
        "nonce": "0x35",
        "chainId": "0xab5",
        "zksync": {
          "factoryDeps": [],
          "paymasterData": null
        }
      },
      "additionalContracts": [],
      "isFixedGasLimit": false
    },
    {
      "hash": null,
      "transactionType": "CALL",
      "contractName": null,
      "contractAddress": "0xbd39033994f5324fe8d50bb524396a78ff9dfe22",
      "function": "setPeer(uint32,bytes32)",
      "arguments": [
        "30110",
        "0x00000000000000000000000057558cb8d6005de0bae8a2789d5efaae52dba5a8"
      ],
      "transaction": {
        "from": "0x45dce8e4f2dc005a5f28206a46cb034697eeda8e",
        "to": "0xbd39033994f5324fe8d50bb524396a78ff9dfe22",
        "gas": "0x32bc8",
        "value": "0x0",
        "input": "0x3400288b000000000000000000000000000000000000000000000000000000000000759e00000000000000000000000057558cb8d6005de0bae8a2789d5efaae52dba5a8",
        "nonce": "0x36",
        "chainId": "0xab5",
        "zksync": {
          "factoryDeps": [],
          "paymasterData": null
        }
      },
      "additionalContracts": [],
      "isFixedGasLimit": false
    },
    {
      "hash": null,
      "transactionType": "CALL",
      "contractName": null,
      "contractAddress": "0xbd39033994f5324fe8d50bb524396a78ff9dfe22",
      "function": "setPeer(uint32,bytes32)",
      "arguments": [
        "30111",
        "0x00000000000000000000000057558cb8d6005de0bae8a2789d5efaae52dba5a8"
      ],
      "transaction": {
        "from": "0x45dce8e4f2dc005a5f28206a46cb034697eeda8e",
        "to": "0xbd39033994f5324fe8d50bb524396a78ff9dfe22",
        "gas": "0x32bc8",
        "value": "0x0",
        "input": "0x3400288b000000000000000000000000000000000000000000000000000000000000759f00000000000000000000000057558cb8d6005de0bae8a2789d5efaae52dba5a8",
        "nonce": "0x37",
        "chainId": "0xab5",
        "zksync": {
          "factoryDeps": [],
          "paymasterData": null
        }
      },
      "additionalContracts": [],
      "isFixedGasLimit": false
    },
    {
      "hash": null,
      "transactionType": "CALL",
      "contractName": null,
      "contractAddress": "0xbd39033994f5324fe8d50bb524396a78ff9dfe22",
      "function": "setPeer(uint32,bytes32)",
      "arguments": [
        "30109",
        "0x00000000000000000000000057558cb8d6005de0bae8a2789d5efaae52dba5a8"
      ],
      "transaction": {
        "from": "0x45dce8e4f2dc005a5f28206a46cb034697eeda8e",
        "to": "0xbd39033994f5324fe8d50bb524396a78ff9dfe22",
        "gas": "0x32bc8",
        "value": "0x0",
        "input": "0x3400288b000000000000000000000000000000000000000000000000000000000000759d00000000000000000000000057558cb8d6005de0bae8a2789d5efaae52dba5a8",
        "nonce": "0x38",
        "chainId": "0xab5",
        "zksync": {
          "factoryDeps": [],
          "paymasterData": null
        }
      },
      "additionalContracts": [],
      "isFixedGasLimit": false
    },
    {
      "hash": null,
      "transactionType": "CALL",
      "contractName": null,
      "contractAddress": "0xbd39033994f5324fe8d50bb524396a78ff9dfe22",
      "function": "setPeer(uint32,bytes32)",
      "arguments": [
        "30106",
        "0x00000000000000000000000057558cb8d6005de0bae8a2789d5efaae52dba5a8"
      ],
      "transaction": {
        "from": "0x45dce8e4f2dc005a5f28206a46cb034697eeda8e",
        "to": "0xbd39033994f5324fe8d50bb524396a78ff9dfe22",
        "gas": "0x32bc8",
        "value": "0x0",
        "input": "0x3400288b000000000000000000000000000000000000000000000000000000000000759a00000000000000000000000057558cb8d6005de0bae8a2789d5efaae52dba5a8",
        "nonce": "0x39",
        "chainId": "0xab5",
        "zksync": {
          "factoryDeps": [],
          "paymasterData": null
        }
      },
      "additionalContracts": [],
      "isFixedGasLimit": false
    },
    {
      "hash": null,
      "transactionType": "CALL",
      "contractName": null,
      "contractAddress": "0xbd39033994f5324fe8d50bb524396a78ff9dfe22",
      "function": "setPeer(uint32,bytes32)",
      "arguments": [
        "30102",
        "0x00000000000000000000000057558cb8d6005de0bae8a2789d5efaae52dba5a8"
      ],
      "transaction": {
        "from": "0x45dce8e4f2dc005a5f28206a46cb034697eeda8e",
        "to": "0xbd39033994f5324fe8d50bb524396a78ff9dfe22",
        "gas": "0x32bc8",
        "value": "0x0",
        "input": "0x3400288b000000000000000000000000000000000000000000000000000000000000759600000000000000000000000057558cb8d6005de0bae8a2789d5efaae52dba5a8",
        "nonce": "0x3a",
        "chainId": "0xab5",
        "zksync": {
          "factoryDeps": [],
          "paymasterData": null
        }
      },
      "additionalContracts": [],
      "isFixedGasLimit": false
    },
    {
      "hash": null,
      "transactionType": "CALL",
      "contractName": null,
      "contractAddress": "0xbd39033994f5324fe8d50bb524396a78ff9dfe22",
      "function": "setPeer(uint32,bytes32)",
      "arguments": [
        "30158",
        "0x00000000000000000000000057558cb8d6005de0bae8a2789d5efaae52dba5a8"
      ],
      "transaction": {
        "from": "0x45dce8e4f2dc005a5f28206a46cb034697eeda8e",
        "to": "0xbd39033994f5324fe8d50bb524396a78ff9dfe22",
        "gas": "0x32bc8",
        "value": "0x0",
        "input": "0x3400288b00000000000000000000000000000000000000000000000000000000000075ce00000000000000000000000057558cb8d6005de0bae8a2789d5efaae52dba5a8",
        "nonce": "0x3b",
        "chainId": "0xab5",
        "zksync": {
          "factoryDeps": [],
          "paymasterData": null
        }
      },
      "additionalContracts": [],
      "isFixedGasLimit": false
    },
    {
      "hash": null,
      "transactionType": "CALL",
      "contractName": null,
      "contractAddress": "0xbd39033994f5324fe8d50bb524396a78ff9dfe22",
      "function": "setPeer(uint32,bytes32)",
      "arguments": [
        "30101",
        "0x00000000000000000000000057558cb8d6005de0bae8a2789d5efaae52dba5a8"
      ],
      "transaction": {
        "from": "0x45dce8e4f2dc005a5f28206a46cb034697eeda8e",
        "to": "0xbd39033994f5324fe8d50bb524396a78ff9dfe22",
        "gas": "0x32bc8",
        "value": "0x0",
        "input": "0x3400288b000000000000000000000000000000000000000000000000000000000000759500000000000000000000000057558cb8d6005de0bae8a2789d5efaae52dba5a8",
        "nonce": "0x3c",
        "chainId": "0xab5",
        "zksync": {
          "factoryDeps": [],
          "paymasterData": null
        }
      },
      "additionalContracts": [],
      "isFixedGasLimit": false
    },
    {
      "hash": null,
      "transactionType": "CALL",
      "contractName": null,
      "contractAddress": "0xbd39033994f5324fe8d50bb524396a78ff9dfe22",
      "function": "setPeer(uint32,bytes32)",
      "arguments": [
        "30243",
        "0x00000000000000000000000057558cb8d6005de0bae8a2789d5efaae52dba5a8"
      ],
      "transaction": {
        "from": "0x45dce8e4f2dc005a5f28206a46cb034697eeda8e",
        "to": "0xbd39033994f5324fe8d50bb524396a78ff9dfe22",
        "gas": "0x32bc8",
        "value": "0x0",
        "input": "0x3400288b000000000000000000000000000000000000000000000000000000000000762300000000000000000000000057558cb8d6005de0bae8a2789d5efaae52dba5a8",
        "nonce": "0x3d",
        "chainId": "0xab5",
        "zksync": {
          "factoryDeps": [],
          "paymasterData": null
        }
      },
      "additionalContracts": [],
      "isFixedGasLimit": false
    },
    {
      "hash": null,
      "transactionType": "CALL",
      "contractName": null,
      "contractAddress": "0xbd39033994f5324fe8d50bb524396a78ff9dfe22",
      "function": "setPeer(uint32,bytes32)",
      "arguments": [
        "30184",
        "0x00000000000000000000000057558cb8d6005de0bae8a2789d5efaae52dba5a8"
      ],
      "transaction": {
        "from": "0x45dce8e4f2dc005a5f28206a46cb034697eeda8e",
        "to": "0xbd39033994f5324fe8d50bb524396a78ff9dfe22",
        "gas": "0x32bc8",
        "value": "0x0",
        "input": "0x3400288b00000000000000000000000000000000000000000000000000000000000075e800000000000000000000000057558cb8d6005de0bae8a2789d5efaae52dba5a8",
        "nonce": "0x3e",
        "chainId": "0xab5",
        "zksync": {
          "factoryDeps": [],
          "paymasterData": null
        }
      },
      "additionalContracts": [],
      "isFixedGasLimit": false
    },
    {
      "hash": null,
      "transactionType": "CALL",
      "contractName": null,
      "contractAddress": "0xbd39033994f5324fe8d50bb524396a78ff9dfe22",
      "function": "setPeer(uint32,bytes32)",
      "arguments": [
        "30362",
        "0x00000000000000000000000057558cb8d6005de0bae8a2789d5efaae52dba5a8"
      ],
      "transaction": {
        "from": "0x45dce8e4f2dc005a5f28206a46cb034697eeda8e",
        "to": "0xbd39033994f5324fe8d50bb524396a78ff9dfe22",
        "gas": "0x32bc8",
        "value": "0x0",
        "input": "0x3400288b000000000000000000000000000000000000000000000000000000000000769a00000000000000000000000057558cb8d6005de0bae8a2789d5efaae52dba5a8",
        "nonce": "0x3f",
        "chainId": "0xab5",
        "zksync": {
          "factoryDeps": [],
          "paymasterData": null
        }
      },
      "additionalContracts": [],
      "isFixedGasLimit": false
    },
    {
      "hash": null,
      "transactionType": "CALL",
      "contractName": null,
      "contractAddress": "0xbd39033994f5324fe8d50bb524396a78ff9dfe22",
      "function": "setPeer(uint32,bytes32)",
      "arguments": [
        "30183",
        "0x0000000000000000000000006185334f1542a9966cbad694577ffbede3dd1f1f"
      ],
      "transaction": {
        "from": "0x45dce8e4f2dc005a5f28206a46cb034697eeda8e",
        "to": "0xbd39033994f5324fe8d50bb524396a78ff9dfe22",
        "gas": "0x32bc8",
        "value": "0x0",
        "input": "0x3400288b00000000000000000000000000000000000000000000000000000000000075e70000000000000000000000006185334f1542a9966cbad694577ffbede3dd1f1f",
        "nonce": "0x40",
        "chainId": "0xab5",
        "zksync": {
          "factoryDeps": [],
          "paymasterData": null
        }
      },
      "additionalContracts": [],
      "isFixedGasLimit": false
    },
    {
      "hash": null,
      "transactionType": "CALL",
      "contractName": null,
      "contractAddress": "0xbd39033994f5324fe8d50bb524396a78ff9dfe22",
      "function": "setPeer(uint32,bytes32)",
      "arguments": [
        "30319",
        "0x00000000000000000000000057558cb8d6005de0bae8a2789d5efaae52dba5a8"
      ],
      "transaction": {
        "from": "0x45dce8e4f2dc005a5f28206a46cb034697eeda8e",
        "to": "0xbd39033994f5324fe8d50bb524396a78ff9dfe22",
        "gas": "0x32bc8",
        "value": "0x0",
        "input": "0x3400288b000000000000000000000000000000000000000000000000000000000000766f00000000000000000000000057558cb8d6005de0bae8a2789d5efaae52dba5a8",
        "nonce": "0x41",
        "chainId": "0xab5",
        "zksync": {
          "factoryDeps": [],
          "paymasterData": null
        }
      },
      "additionalContracts": [],
      "isFixedGasLimit": false
    },
    {
      "hash": null,
      "transactionType": "CALL",
      "contractName": null,
      "contractAddress": "0xbd39033994f5324fe8d50bb524396a78ff9dfe22",
      "function": "setPeer(uint32,bytes32)",
      "arguments": [
        "30165",
        "0x0000000000000000000000003fc877008e396fdd7f9ee3deb2e8a54d54da705a"
      ],
      "transaction": {
        "from": "0x45dce8e4f2dc005a5f28206a46cb034697eeda8e",
        "to": "0xbd39033994f5324fe8d50bb524396a78ff9dfe22",
        "gas": "0x32bc8",
        "value": "0x0",
        "input": "0x3400288b00000000000000000000000000000000000000000000000000000000000075d50000000000000000000000003fc877008e396fdd7f9ee3deb2e8a54d54da705a",
        "nonce": "0x42",
        "chainId": "0xab5",
        "zksync": {
          "factoryDeps": [],
          "paymasterData": null
        }
      },
      "additionalContracts": [],
      "isFixedGasLimit": false
    },
    {
      "hash": null,
      "transactionType": "CALL",
      "contractName": null,
      "contractAddress": "0x5c6cff4b7c49805f8295ff73c204ac83f3bc4ae7",
      "function": "setConfig(address,address,(uint32,uint32,bytes)[])",
      "arguments": [
        "0xBd39033994F5324Fe8D50bB524396A78ff9dFe22",
        "0x166CAb679EBDB0853055522D3B523621b94029a1",
        "[(30101, 2, 0x0000000000000000000000000000000000000000000000000000000000000020000000000000000000000000000000000000000000000000000000000000000000000000000000000000000000000000000000000000000000000000000000030000000000000000000000000000000000000000000000000000000000000000000000000000000000000000000000000000000000000000000000000000000000000000000000000000000000000000000000000000000000000000000000c000000000000000000000000000000000000000000000000000000000000001400000000000000000000000000000000000000000000000000000000000000003000000000000000000000000264fe346fcd0a89e3b41a6499bac80dea7e908d2000000000000000000000000a8c83febab692d6f08cfa303e5d53b3b34f9046d000000000000000000000000f4da94b4ee9d8e209e3bf9f469221ce2731a71120000000000000000000000000000000000000000000000000000000000000000)]"
      ],
      "transaction": {
        "from": "0x45dce8e4f2dc005a5f28206a46cb034697eeda8e",
        "to": "0x5c6cff4b7c49805f8295ff73c204ac83f3bc4ae7",
        "gas": "0x63e40",
        "value": "0x0",
        "input": "0x6dbd9f90000000000000000000000000bd39033994f5324fe8d50bb524396a78ff9dfe22000000000000000000000000166cab679ebdb0853055522d3b523621b94029a100000000000000000000000000000000000000000000000000000000000000600000000000000000000000000000000000000000000000000000000000000001000000000000000000000000000000000000000000000000000000000000002000000000000000000000000000000000000000000000000000000000000075950000000000000000000000000000000000000000000000000000000000000002000000000000000000000000000000000000000000000000000000000000006000000000000000000000000000000000000000000000000000000000000001800000000000000000000000000000000000000000000000000000000000000020000000000000000000000000000000000000000000000000000000000000000000000000000000000000000000000000000000000000000000000000000000030000000000000000000000000000000000000000000000000000000000000000000000000000000000000000000000000000000000000000000000000000000000000000000000000000000000000000000000000000000000000000000000c000000000000000000000000000000000000000000000000000000000000001400000000000000000000000000000000000000000000000000000000000000003000000000000000000000000264fe346fcd0a89e3b41a6499bac80dea7e908d2000000000000000000000000a8c83febab692d6f08cfa303e5d53b3b34f9046d000000000000000000000000f4da94b4ee9d8e209e3bf9f469221ce2731a71120000000000000000000000000000000000000000000000000000000000000000",
        "nonce": "0x43",
        "chainId": "0xab5",
        "zksync": {
          "factoryDeps": [],
          "paymasterData": null
        }
      },
      "additionalContracts": [],
      "isFixedGasLimit": false
    },
    {
      "hash": null,
      "transactionType": "CALL",
      "contractName": null,
      "contractAddress": "0x5c6cff4b7c49805f8295ff73c204ac83f3bc4ae7",
      "function": "setConfig(address,address,(uint32,uint32,bytes)[])",
      "arguments": [
        "0xBd39033994F5324Fe8D50bB524396A78ff9dFe22",
        "0x9d799c1935c51CA399e6465Ed9841DEbCcEc413E",
        "[(30101, 2, 0x0000000000000000000000000000000000000000000000000000000000000020000000000000000000000000000000000000000000000000000000000000000000000000000000000000000000000000000000000000000000000000000000030000000000000000000000000000000000000000000000000000000000000000000000000000000000000000000000000000000000000000000000000000000000000000000000000000000000000000000000000000000000000000000000c000000000000000000000000000000000000000000000000000000000000001400000000000000000000000000000000000000000000000000000000000000003000000000000000000000000264fe346fcd0a89e3b41a6499bac80dea7e908d2000000000000000000000000a8c83febab692d6f08cfa303e5d53b3b34f9046d000000000000000000000000f4da94b4ee9d8e209e3bf9f469221ce2731a71120000000000000000000000000000000000000000000000000000000000000000)]"
      ],
      "transaction": {
        "from": "0x45dce8e4f2dc005a5f28206a46cb034697eeda8e",
        "to": "0x5c6cff4b7c49805f8295ff73c204ac83f3bc4ae7",
        "gas": "0x61ca9",
        "value": "0x0",
        "input": "0x6dbd9f90000000000000000000000000bd39033994f5324fe8d50bb524396a78ff9dfe220000000000000000000000009d799c1935c51ca399e6465ed9841debccec413e00000000000000000000000000000000000000000000000000000000000000600000000000000000000000000000000000000000000000000000000000000001000000000000000000000000000000000000000000000000000000000000002000000000000000000000000000000000000000000000000000000000000075950000000000000000000000000000000000000000000000000000000000000002000000000000000000000000000000000000000000000000000000000000006000000000000000000000000000000000000000000000000000000000000001800000000000000000000000000000000000000000000000000000000000000020000000000000000000000000000000000000000000000000000000000000000000000000000000000000000000000000000000000000000000000000000000030000000000000000000000000000000000000000000000000000000000000000000000000000000000000000000000000000000000000000000000000000000000000000000000000000000000000000000000000000000000000000000000c000000000000000000000000000000000000000000000000000000000000001400000000000000000000000000000000000000000000000000000000000000003000000000000000000000000264fe346fcd0a89e3b41a6499bac80dea7e908d2000000000000000000000000a8c83febab692d6f08cfa303e5d53b3b34f9046d000000000000000000000000f4da94b4ee9d8e209e3bf9f469221ce2731a71120000000000000000000000000000000000000000000000000000000000000000",
        "nonce": "0x44",
        "chainId": "0xab5",
        "zksync": {
          "factoryDeps": [],
          "paymasterData": null
        }
      },
      "additionalContracts": [],
      "isFixedGasLimit": false
    },
    {
      "hash": null,
      "transactionType": "CALL",
      "contractName": null,
      "contractAddress": "0x5c6cff4b7c49805f8295ff73c204ac83f3bc4ae7",
      "function": "setConfig(address,address,(uint32,uint32,bytes)[])",
      "arguments": [
        "0xBd39033994F5324Fe8D50bB524396A78ff9dFe22",
        "0x166CAb679EBDB0853055522D3B523621b94029a1",
        "[(30243, 2, 0x0000000000000000000000000000000000000000000000000000000000000020000000000000000000000000000000000000000000000000000000000000000000000000000000000000000000000000000000000000000000000000000000030000000000000000000000000000000000000000000000000000000000000000000000000000000000000000000000000000000000000000000000000000000000000000000000000000000000000000000000000000000000000000000000c000000000000000000000000000000000000000000000000000000000000001400000000000000000000000000000000000000000000000000000000000000003000000000000000000000000264fe346fcd0a89e3b41a6499bac80dea7e908d2000000000000000000000000a8c83febab692d6f08cfa303e5d53b3b34f9046d000000000000000000000000f4da94b4ee9d8e209e3bf9f469221ce2731a71120000000000000000000000000000000000000000000000000000000000000000)]"
      ],
      "transaction": {
        "from": "0x45dce8e4f2dc005a5f28206a46cb034697eeda8e",
        "to": "0x5c6cff4b7c49805f8295ff73c204ac83f3bc4ae7",
        "gas": "0x63e40",
        "value": "0x0",
        "input": "0x6dbd9f90000000000000000000000000bd39033994f5324fe8d50bb524396a78ff9dfe22000000000000000000000000166cab679ebdb0853055522d3b523621b94029a100000000000000000000000000000000000000000000000000000000000000600000000000000000000000000000000000000000000000000000000000000001000000000000000000000000000000000000000000000000000000000000002000000000000000000000000000000000000000000000000000000000000076230000000000000000000000000000000000000000000000000000000000000002000000000000000000000000000000000000000000000000000000000000006000000000000000000000000000000000000000000000000000000000000001800000000000000000000000000000000000000000000000000000000000000020000000000000000000000000000000000000000000000000000000000000000000000000000000000000000000000000000000000000000000000000000000030000000000000000000000000000000000000000000000000000000000000000000000000000000000000000000000000000000000000000000000000000000000000000000000000000000000000000000000000000000000000000000000c000000000000000000000000000000000000000000000000000000000000001400000000000000000000000000000000000000000000000000000000000000003000000000000000000000000264fe346fcd0a89e3b41a6499bac80dea7e908d2000000000000000000000000a8c83febab692d6f08cfa303e5d53b3b34f9046d000000000000000000000000f4da94b4ee9d8e209e3bf9f469221ce2731a71120000000000000000000000000000000000000000000000000000000000000000",
        "nonce": "0x45",
        "chainId": "0xab5",
        "zksync": {
          "factoryDeps": [],
          "paymasterData": null
        }
      },
      "additionalContracts": [],
      "isFixedGasLimit": false
    },
    {
      "hash": null,
      "transactionType": "CALL",
      "contractName": null,
      "contractAddress": "0x5c6cff4b7c49805f8295ff73c204ac83f3bc4ae7",
      "function": "setConfig(address,address,(uint32,uint32,bytes)[])",
      "arguments": [
        "0xBd39033994F5324Fe8D50bB524396A78ff9dFe22",
        "0x9d799c1935c51CA399e6465Ed9841DEbCcEc413E",
        "[(30243, 2, 0x0000000000000000000000000000000000000000000000000000000000000020000000000000000000000000000000000000000000000000000000000000000000000000000000000000000000000000000000000000000000000000000000030000000000000000000000000000000000000000000000000000000000000000000000000000000000000000000000000000000000000000000000000000000000000000000000000000000000000000000000000000000000000000000000c000000000000000000000000000000000000000000000000000000000000001400000000000000000000000000000000000000000000000000000000000000003000000000000000000000000264fe346fcd0a89e3b41a6499bac80dea7e908d2000000000000000000000000a8c83febab692d6f08cfa303e5d53b3b34f9046d000000000000000000000000f4da94b4ee9d8e209e3bf9f469221ce2731a71120000000000000000000000000000000000000000000000000000000000000000)]"
      ],
      "transaction": {
        "from": "0x45dce8e4f2dc005a5f28206a46cb034697eeda8e",
        "to": "0x5c6cff4b7c49805f8295ff73c204ac83f3bc4ae7",
        "gas": "0x61ca9",
        "value": "0x0",
        "input": "0x6dbd9f90000000000000000000000000bd39033994f5324fe8d50bb524396a78ff9dfe220000000000000000000000009d799c1935c51ca399e6465ed9841debccec413e00000000000000000000000000000000000000000000000000000000000000600000000000000000000000000000000000000000000000000000000000000001000000000000000000000000000000000000000000000000000000000000002000000000000000000000000000000000000000000000000000000000000076230000000000000000000000000000000000000000000000000000000000000002000000000000000000000000000000000000000000000000000000000000006000000000000000000000000000000000000000000000000000000000000001800000000000000000000000000000000000000000000000000000000000000020000000000000000000000000000000000000000000000000000000000000000000000000000000000000000000000000000000000000000000000000000000030000000000000000000000000000000000000000000000000000000000000000000000000000000000000000000000000000000000000000000000000000000000000000000000000000000000000000000000000000000000000000000000c000000000000000000000000000000000000000000000000000000000000001400000000000000000000000000000000000000000000000000000000000000003000000000000000000000000264fe346fcd0a89e3b41a6499bac80dea7e908d2000000000000000000000000a8c83febab692d6f08cfa303e5d53b3b34f9046d000000000000000000000000f4da94b4ee9d8e209e3bf9f469221ce2731a71120000000000000000000000000000000000000000000000000000000000000000",
        "nonce": "0x46",
        "chainId": "0xab5",
        "zksync": {
          "factoryDeps": [],
          "paymasterData": null
        }
      },
      "additionalContracts": [],
      "isFixedGasLimit": false
    },
    {
      "hash": null,
      "transactionType": "CALL",
      "contractName": null,
      "contractAddress": "0x5c6cff4b7c49805f8295ff73c204ac83f3bc4ae7",
      "function": "setConfig(address,address,(uint32,uint32,bytes)[])",
      "arguments": [
        "0xBd39033994F5324Fe8D50bB524396A78ff9dFe22",
        "0x166CAb679EBDB0853055522D3B523621b94029a1",
        "[(30184, 2, 0x0000000000000000000000000000000000000000000000000000000000000020000000000000000000000000000000000000000000000000000000000000000000000000000000000000000000000000000000000000000000000000000000030000000000000000000000000000000000000000000000000000000000000000000000000000000000000000000000000000000000000000000000000000000000000000000000000000000000000000000000000000000000000000000000c000000000000000000000000000000000000000000000000000000000000001400000000000000000000000000000000000000000000000000000000000000003000000000000000000000000264fe346fcd0a89e3b41a6499bac80dea7e908d2000000000000000000000000a8c83febab692d6f08cfa303e5d53b3b34f9046d000000000000000000000000f4da94b4ee9d8e209e3bf9f469221ce2731a71120000000000000000000000000000000000000000000000000000000000000000)]"
      ],
      "transaction": {
        "from": "0x45dce8e4f2dc005a5f28206a46cb034697eeda8e",
        "to": "0x5c6cff4b7c49805f8295ff73c204ac83f3bc4ae7",
        "gas": "0x63e40",
        "value": "0x0",
        "input": "0x6dbd9f90000000000000000000000000bd39033994f5324fe8d50bb524396a78ff9dfe22000000000000000000000000166cab679ebdb0853055522d3b523621b94029a100000000000000000000000000000000000000000000000000000000000000600000000000000000000000000000000000000000000000000000000000000001000000000000000000000000000000000000000000000000000000000000002000000000000000000000000000000000000000000000000000000000000075e80000000000000000000000000000000000000000000000000000000000000002000000000000000000000000000000000000000000000000000000000000006000000000000000000000000000000000000000000000000000000000000001800000000000000000000000000000000000000000000000000000000000000020000000000000000000000000000000000000000000000000000000000000000000000000000000000000000000000000000000000000000000000000000000030000000000000000000000000000000000000000000000000000000000000000000000000000000000000000000000000000000000000000000000000000000000000000000000000000000000000000000000000000000000000000000000c000000000000000000000000000000000000000000000000000000000000001400000000000000000000000000000000000000000000000000000000000000003000000000000000000000000264fe346fcd0a89e3b41a6499bac80dea7e908d2000000000000000000000000a8c83febab692d6f08cfa303e5d53b3b34f9046d000000000000000000000000f4da94b4ee9d8e209e3bf9f469221ce2731a71120000000000000000000000000000000000000000000000000000000000000000",
        "nonce": "0x47",
        "chainId": "0xab5",
        "zksync": {
          "factoryDeps": [],
          "paymasterData": null
        }
      },
      "additionalContracts": [],
      "isFixedGasLimit": false
    },
    {
      "hash": null,
      "transactionType": "CALL",
      "contractName": null,
      "contractAddress": "0x5c6cff4b7c49805f8295ff73c204ac83f3bc4ae7",
      "function": "setConfig(address,address,(uint32,uint32,bytes)[])",
      "arguments": [
        "0xBd39033994F5324Fe8D50bB524396A78ff9dFe22",
        "0x9d799c1935c51CA399e6465Ed9841DEbCcEc413E",
        "[(30184, 2, 0x0000000000000000000000000000000000000000000000000000000000000020000000000000000000000000000000000000000000000000000000000000000000000000000000000000000000000000000000000000000000000000000000030000000000000000000000000000000000000000000000000000000000000000000000000000000000000000000000000000000000000000000000000000000000000000000000000000000000000000000000000000000000000000000000c000000000000000000000000000000000000000000000000000000000000001400000000000000000000000000000000000000000000000000000000000000003000000000000000000000000264fe346fcd0a89e3b41a6499bac80dea7e908d2000000000000000000000000a8c83febab692d6f08cfa303e5d53b3b34f9046d000000000000000000000000f4da94b4ee9d8e209e3bf9f469221ce2731a71120000000000000000000000000000000000000000000000000000000000000000)]"
      ],
      "transaction": {
        "from": "0x45dce8e4f2dc005a5f28206a46cb034697eeda8e",
        "to": "0x5c6cff4b7c49805f8295ff73c204ac83f3bc4ae7",
        "gas": "0x61ca9",
        "value": "0x0",
        "input": "0x6dbd9f90000000000000000000000000bd39033994f5324fe8d50bb524396a78ff9dfe220000000000000000000000009d799c1935c51ca399e6465ed9841debccec413e00000000000000000000000000000000000000000000000000000000000000600000000000000000000000000000000000000000000000000000000000000001000000000000000000000000000000000000000000000000000000000000002000000000000000000000000000000000000000000000000000000000000075e80000000000000000000000000000000000000000000000000000000000000002000000000000000000000000000000000000000000000000000000000000006000000000000000000000000000000000000000000000000000000000000001800000000000000000000000000000000000000000000000000000000000000020000000000000000000000000000000000000000000000000000000000000000000000000000000000000000000000000000000000000000000000000000000030000000000000000000000000000000000000000000000000000000000000000000000000000000000000000000000000000000000000000000000000000000000000000000000000000000000000000000000000000000000000000000000c000000000000000000000000000000000000000000000000000000000000001400000000000000000000000000000000000000000000000000000000000000003000000000000000000000000264fe346fcd0a89e3b41a6499bac80dea7e908d2000000000000000000000000a8c83febab692d6f08cfa303e5d53b3b34f9046d000000000000000000000000f4da94b4ee9d8e209e3bf9f469221ce2731a71120000000000000000000000000000000000000000000000000000000000000000",
        "nonce": "0x48",
        "chainId": "0xab5",
        "zksync": {
          "factoryDeps": [],
          "paymasterData": null
        }
      },
      "additionalContracts": [],
      "isFixedGasLimit": false
    },
    {
      "hash": null,
      "transactionType": "CALL",
      "contractName": null,
      "contractAddress": "0x5c6cff4b7c49805f8295ff73c204ac83f3bc4ae7",
      "function": "setConfig(address,address,(uint32,uint32,bytes)[])",
      "arguments": [
        "0xBd39033994F5324Fe8D50bB524396A78ff9dFe22",
        "0x166CAb679EBDB0853055522D3B523621b94029a1",
        "[(30260, 2, 0x0000000000000000000000000000000000000000000000000000000000000020000000000000000000000000000000000000000000000000000000000000000000000000000000000000000000000000000000000000000000000000000000030000000000000000000000000000000000000000000000000000000000000000000000000000000000000000000000000000000000000000000000000000000000000000000000000000000000000000000000000000000000000000000000c000000000000000000000000000000000000000000000000000000000000001400000000000000000000000000000000000000000000000000000000000000003000000000000000000000000264fe346fcd0a89e3b41a6499bac80dea7e908d2000000000000000000000000a8c83febab692d6f08cfa303e5d53b3b34f9046d000000000000000000000000f4da94b4ee9d8e209e3bf9f469221ce2731a71120000000000000000000000000000000000000000000000000000000000000000)]"
      ],
      "transaction": {
        "from": "0x45dce8e4f2dc005a5f28206a46cb034697eeda8e",
        "to": "0x5c6cff4b7c49805f8295ff73c204ac83f3bc4ae7",
        "gas": "0x63e40",
        "value": "0x0",
        "input": "0x6dbd9f90000000000000000000000000bd39033994f5324fe8d50bb524396a78ff9dfe22000000000000000000000000166cab679ebdb0853055522d3b523621b94029a100000000000000000000000000000000000000000000000000000000000000600000000000000000000000000000000000000000000000000000000000000001000000000000000000000000000000000000000000000000000000000000002000000000000000000000000000000000000000000000000000000000000076340000000000000000000000000000000000000000000000000000000000000002000000000000000000000000000000000000000000000000000000000000006000000000000000000000000000000000000000000000000000000000000001800000000000000000000000000000000000000000000000000000000000000020000000000000000000000000000000000000000000000000000000000000000000000000000000000000000000000000000000000000000000000000000000030000000000000000000000000000000000000000000000000000000000000000000000000000000000000000000000000000000000000000000000000000000000000000000000000000000000000000000000000000000000000000000000c000000000000000000000000000000000000000000000000000000000000001400000000000000000000000000000000000000000000000000000000000000003000000000000000000000000264fe346fcd0a89e3b41a6499bac80dea7e908d2000000000000000000000000a8c83febab692d6f08cfa303e5d53b3b34f9046d000000000000000000000000f4da94b4ee9d8e209e3bf9f469221ce2731a71120000000000000000000000000000000000000000000000000000000000000000",
        "nonce": "0x49",
        "chainId": "0xab5",
        "zksync": {
          "factoryDeps": [],
          "paymasterData": null
        }
      },
      "additionalContracts": [],
      "isFixedGasLimit": false
    },
    {
      "hash": null,
      "transactionType": "CALL",
      "contractName": null,
      "contractAddress": "0x5c6cff4b7c49805f8295ff73c204ac83f3bc4ae7",
      "function": "setConfig(address,address,(uint32,uint32,bytes)[])",
      "arguments": [
        "0xBd39033994F5324Fe8D50bB524396A78ff9dFe22",
        "0x9d799c1935c51CA399e6465Ed9841DEbCcEc413E",
        "[(30260, 2, 0x0000000000000000000000000000000000000000000000000000000000000020000000000000000000000000000000000000000000000000000000000000000000000000000000000000000000000000000000000000000000000000000000030000000000000000000000000000000000000000000000000000000000000000000000000000000000000000000000000000000000000000000000000000000000000000000000000000000000000000000000000000000000000000000000c000000000000000000000000000000000000000000000000000000000000001400000000000000000000000000000000000000000000000000000000000000003000000000000000000000000264fe346fcd0a89e3b41a6499bac80dea7e908d2000000000000000000000000a8c83febab692d6f08cfa303e5d53b3b34f9046d000000000000000000000000f4da94b4ee9d8e209e3bf9f469221ce2731a71120000000000000000000000000000000000000000000000000000000000000000)]"
      ],
      "transaction": {
        "from": "0x45dce8e4f2dc005a5f28206a46cb034697eeda8e",
        "to": "0x5c6cff4b7c49805f8295ff73c204ac83f3bc4ae7",
        "gas": "0x61ca9",
        "value": "0x0",
        "input": "0x6dbd9f90000000000000000000000000bd39033994f5324fe8d50bb524396a78ff9dfe220000000000000000000000009d799c1935c51ca399e6465ed9841debccec413e00000000000000000000000000000000000000000000000000000000000000600000000000000000000000000000000000000000000000000000000000000001000000000000000000000000000000000000000000000000000000000000002000000000000000000000000000000000000000000000000000000000000076340000000000000000000000000000000000000000000000000000000000000002000000000000000000000000000000000000000000000000000000000000006000000000000000000000000000000000000000000000000000000000000001800000000000000000000000000000000000000000000000000000000000000020000000000000000000000000000000000000000000000000000000000000000000000000000000000000000000000000000000000000000000000000000000030000000000000000000000000000000000000000000000000000000000000000000000000000000000000000000000000000000000000000000000000000000000000000000000000000000000000000000000000000000000000000000000c000000000000000000000000000000000000000000000000000000000000001400000000000000000000000000000000000000000000000000000000000000003000000000000000000000000264fe346fcd0a89e3b41a6499bac80dea7e908d2000000000000000000000000a8c83febab692d6f08cfa303e5d53b3b34f9046d000000000000000000000000f4da94b4ee9d8e209e3bf9f469221ce2731a71120000000000000000000000000000000000000000000000000000000000000000",
        "nonce": "0x4a",
        "chainId": "0xab5",
        "zksync": {
          "factoryDeps": [],
          "paymasterData": null
        }
      },
      "additionalContracts": [],
      "isFixedGasLimit": false
    },
    {
      "hash": null,
      "transactionType": "CALL",
      "contractName": null,
      "contractAddress": "0x5c6cff4b7c49805f8295ff73c204ac83f3bc4ae7",
      "function": "setConfig(address,address,(uint32,uint32,bytes)[])",
      "arguments": [
        "0xBd39033994F5324Fe8D50bB524396A78ff9dFe22",
        "0x166CAb679EBDB0853055522D3B523621b94029a1",
        "[(30280, 2, 0x0000000000000000000000000000000000000000000000000000000000000020000000000000000000000000000000000000000000000000000000000000000000000000000000000000000000000000000000000000000000000000000000030000000000000000000000000000000000000000000000000000000000000000000000000000000000000000000000000000000000000000000000000000000000000000000000000000000000000000000000000000000000000000000000c000000000000000000000000000000000000000000000000000000000000001400000000000000000000000000000000000000000000000000000000000000003000000000000000000000000264fe346fcd0a89e3b41a6499bac80dea7e908d2000000000000000000000000a8c83febab692d6f08cfa303e5d53b3b34f9046d000000000000000000000000f4da94b4ee9d8e209e3bf9f469221ce2731a71120000000000000000000000000000000000000000000000000000000000000000)]"
      ],
      "transaction": {
        "from": "0x45dce8e4f2dc005a5f28206a46cb034697eeda8e",
        "to": "0x5c6cff4b7c49805f8295ff73c204ac83f3bc4ae7",
        "gas": "0x63e40",
        "value": "0x0",
        "input": "0x6dbd9f90000000000000000000000000bd39033994f5324fe8d50bb524396a78ff9dfe22000000000000000000000000166cab679ebdb0853055522d3b523621b94029a100000000000000000000000000000000000000000000000000000000000000600000000000000000000000000000000000000000000000000000000000000001000000000000000000000000000000000000000000000000000000000000002000000000000000000000000000000000000000000000000000000000000076480000000000000000000000000000000000000000000000000000000000000002000000000000000000000000000000000000000000000000000000000000006000000000000000000000000000000000000000000000000000000000000001800000000000000000000000000000000000000000000000000000000000000020000000000000000000000000000000000000000000000000000000000000000000000000000000000000000000000000000000000000000000000000000000030000000000000000000000000000000000000000000000000000000000000000000000000000000000000000000000000000000000000000000000000000000000000000000000000000000000000000000000000000000000000000000000c000000000000000000000000000000000000000000000000000000000000001400000000000000000000000000000000000000000000000000000000000000003000000000000000000000000264fe346fcd0a89e3b41a6499bac80dea7e908d2000000000000000000000000a8c83febab692d6f08cfa303e5d53b3b34f9046d000000000000000000000000f4da94b4ee9d8e209e3bf9f469221ce2731a71120000000000000000000000000000000000000000000000000000000000000000",
        "nonce": "0x4b",
        "chainId": "0xab5",
        "zksync": {
          "factoryDeps": [],
          "paymasterData": null
        }
      },
      "additionalContracts": [],
      "isFixedGasLimit": false
    },
    {
      "hash": null,
      "transactionType": "CALL",
      "contractName": null,
      "contractAddress": "0x5c6cff4b7c49805f8295ff73c204ac83f3bc4ae7",
      "function": "setConfig(address,address,(uint32,uint32,bytes)[])",
      "arguments": [
        "0xBd39033994F5324Fe8D50bB524396A78ff9dFe22",
        "0x9d799c1935c51CA399e6465Ed9841DEbCcEc413E",
        "[(30280, 2, 0x0000000000000000000000000000000000000000000000000000000000000020000000000000000000000000000000000000000000000000000000000000000000000000000000000000000000000000000000000000000000000000000000030000000000000000000000000000000000000000000000000000000000000000000000000000000000000000000000000000000000000000000000000000000000000000000000000000000000000000000000000000000000000000000000c000000000000000000000000000000000000000000000000000000000000001400000000000000000000000000000000000000000000000000000000000000003000000000000000000000000264fe346fcd0a89e3b41a6499bac80dea7e908d2000000000000000000000000a8c83febab692d6f08cfa303e5d53b3b34f9046d000000000000000000000000f4da94b4ee9d8e209e3bf9f469221ce2731a71120000000000000000000000000000000000000000000000000000000000000000)]"
      ],
      "transaction": {
        "from": "0x45dce8e4f2dc005a5f28206a46cb034697eeda8e",
        "to": "0x5c6cff4b7c49805f8295ff73c204ac83f3bc4ae7",
        "gas": "0x61ca9",
        "value": "0x0",
        "input": "0x6dbd9f90000000000000000000000000bd39033994f5324fe8d50bb524396a78ff9dfe220000000000000000000000009d799c1935c51ca399e6465ed9841debccec413e00000000000000000000000000000000000000000000000000000000000000600000000000000000000000000000000000000000000000000000000000000001000000000000000000000000000000000000000000000000000000000000002000000000000000000000000000000000000000000000000000000000000076480000000000000000000000000000000000000000000000000000000000000002000000000000000000000000000000000000000000000000000000000000006000000000000000000000000000000000000000000000000000000000000001800000000000000000000000000000000000000000000000000000000000000020000000000000000000000000000000000000000000000000000000000000000000000000000000000000000000000000000000000000000000000000000000030000000000000000000000000000000000000000000000000000000000000000000000000000000000000000000000000000000000000000000000000000000000000000000000000000000000000000000000000000000000000000000000c000000000000000000000000000000000000000000000000000000000000001400000000000000000000000000000000000000000000000000000000000000003000000000000000000000000264fe346fcd0a89e3b41a6499bac80dea7e908d2000000000000000000000000a8c83febab692d6f08cfa303e5d53b3b34f9046d000000000000000000000000f4da94b4ee9d8e209e3bf9f469221ce2731a71120000000000000000000000000000000000000000000000000000000000000000",
        "nonce": "0x4c",
        "chainId": "0xab5",
        "zksync": {
          "factoryDeps": [],
          "paymasterData": null
        }
      },
      "additionalContracts": [],
      "isFixedGasLimit": false
    },
    {
      "hash": null,
      "transactionType": "CALL",
      "contractName": null,
      "contractAddress": "0x5c6cff4b7c49805f8295ff73c204ac83f3bc4ae7",
      "function": "setConfig(address,address,(uint32,uint32,bytes)[])",
      "arguments": [
        "0xBd39033994F5324Fe8D50bB524396A78ff9dFe22",
        "0x166CAb679EBDB0853055522D3B523621b94029a1",
        "[(30255, 2, 0x0000000000000000000000000000000000000000000000000000000000000020000000000000000000000000000000000000000000000000000000000000000000000000000000000000000000000000000000000000000000000000000000030000000000000000000000000000000000000000000000000000000000000000000000000000000000000000000000000000000000000000000000000000000000000000000000000000000000000000000000000000000000000000000000c000000000000000000000000000000000000000000000000000000000000001400000000000000000000000000000000000000000000000000000000000000003000000000000000000000000264fe346fcd0a89e3b41a6499bac80dea7e908d2000000000000000000000000a8c83febab692d6f08cfa303e5d53b3b34f9046d000000000000000000000000f4da94b4ee9d8e209e3bf9f469221ce2731a71120000000000000000000000000000000000000000000000000000000000000000)]"
      ],
      "transaction": {
        "from": "0x45dce8e4f2dc005a5f28206a46cb034697eeda8e",
        "to": "0x5c6cff4b7c49805f8295ff73c204ac83f3bc4ae7",
        "gas": "0x63e40",
        "value": "0x0",
        "input": "0x6dbd9f90000000000000000000000000bd39033994f5324fe8d50bb524396a78ff9dfe22000000000000000000000000166cab679ebdb0853055522d3b523621b94029a1000000000000000000000000000000000000000000000000000000000000006000000000000000000000000000000000000000000000000000000000000000010000000000000000000000000000000000000000000000000000000000000020000000000000000000000000000000000000000000000000000000000000762f0000000000000000000000000000000000000000000000000000000000000002000000000000000000000000000000000000000000000000000000000000006000000000000000000000000000000000000000000000000000000000000001800000000000000000000000000000000000000000000000000000000000000020000000000000000000000000000000000000000000000000000000000000000000000000000000000000000000000000000000000000000000000000000000030000000000000000000000000000000000000000000000000000000000000000000000000000000000000000000000000000000000000000000000000000000000000000000000000000000000000000000000000000000000000000000000c000000000000000000000000000000000000000000000000000000000000001400000000000000000000000000000000000000000000000000000000000000003000000000000000000000000264fe346fcd0a89e3b41a6499bac80dea7e908d2000000000000000000000000a8c83febab692d6f08cfa303e5d53b3b34f9046d000000000000000000000000f4da94b4ee9d8e209e3bf9f469221ce2731a71120000000000000000000000000000000000000000000000000000000000000000",
        "nonce": "0x4d",
        "chainId": "0xab5",
        "zksync": {
          "factoryDeps": [],
          "paymasterData": null
        }
      },
      "additionalContracts": [],
      "isFixedGasLimit": false
    },
    {
      "hash": null,
      "transactionType": "CALL",
      "contractName": null,
      "contractAddress": "0x5c6cff4b7c49805f8295ff73c204ac83f3bc4ae7",
      "function": "setConfig(address,address,(uint32,uint32,bytes)[])",
      "arguments": [
        "0xBd39033994F5324Fe8D50bB524396A78ff9dFe22",
        "0x9d799c1935c51CA399e6465Ed9841DEbCcEc413E",
        "[(30255, 2, 0x0000000000000000000000000000000000000000000000000000000000000020000000000000000000000000000000000000000000000000000000000000000000000000000000000000000000000000000000000000000000000000000000030000000000000000000000000000000000000000000000000000000000000000000000000000000000000000000000000000000000000000000000000000000000000000000000000000000000000000000000000000000000000000000000c000000000000000000000000000000000000000000000000000000000000001400000000000000000000000000000000000000000000000000000000000000003000000000000000000000000264fe346fcd0a89e3b41a6499bac80dea7e908d2000000000000000000000000a8c83febab692d6f08cfa303e5d53b3b34f9046d000000000000000000000000f4da94b4ee9d8e209e3bf9f469221ce2731a71120000000000000000000000000000000000000000000000000000000000000000)]"
      ],
      "transaction": {
        "from": "0x45dce8e4f2dc005a5f28206a46cb034697eeda8e",
        "to": "0x5c6cff4b7c49805f8295ff73c204ac83f3bc4ae7",
        "gas": "0x61ca9",
        "value": "0x0",
        "input": "0x6dbd9f90000000000000000000000000bd39033994f5324fe8d50bb524396a78ff9dfe220000000000000000000000009d799c1935c51ca399e6465ed9841debccec413e000000000000000000000000000000000000000000000000000000000000006000000000000000000000000000000000000000000000000000000000000000010000000000000000000000000000000000000000000000000000000000000020000000000000000000000000000000000000000000000000000000000000762f0000000000000000000000000000000000000000000000000000000000000002000000000000000000000000000000000000000000000000000000000000006000000000000000000000000000000000000000000000000000000000000001800000000000000000000000000000000000000000000000000000000000000020000000000000000000000000000000000000000000000000000000000000000000000000000000000000000000000000000000000000000000000000000000030000000000000000000000000000000000000000000000000000000000000000000000000000000000000000000000000000000000000000000000000000000000000000000000000000000000000000000000000000000000000000000000c000000000000000000000000000000000000000000000000000000000000001400000000000000000000000000000000000000000000000000000000000000003000000000000000000000000264fe346fcd0a89e3b41a6499bac80dea7e908d2000000000000000000000000a8c83febab692d6f08cfa303e5d53b3b34f9046d000000000000000000000000f4da94b4ee9d8e209e3bf9f469221ce2731a71120000000000000000000000000000000000000000000000000000000000000000",
        "nonce": "0x4e",
        "chainId": "0xab5",
        "zksync": {
          "factoryDeps": [],
          "paymasterData": null
        }
      },
      "additionalContracts": [],
      "isFixedGasLimit": false
    },
    {
      "hash": null,
      "transactionType": "CALL",
      "contractName": null,
      "contractAddress": "0x5c6cff4b7c49805f8295ff73c204ac83f3bc4ae7",
      "function": "setConfig(address,address,(uint32,uint32,bytes)[])",
      "arguments": [
        "0xBd39033994F5324Fe8D50bB524396A78ff9dFe22",
        "0x166CAb679EBDB0853055522D3B523621b94029a1",
        "[(30274, 2, 0x0000000000000000000000000000000000000000000000000000000000000020000000000000000000000000000000000000000000000000000000000000000000000000000000000000000000000000000000000000000000000000000000030000000000000000000000000000000000000000000000000000000000000000000000000000000000000000000000000000000000000000000000000000000000000000000000000000000000000000000000000000000000000000000000c000000000000000000000000000000000000000000000000000000000000001400000000000000000000000000000000000000000000000000000000000000003000000000000000000000000264fe346fcd0a89e3b41a6499bac80dea7e908d2000000000000000000000000a8c83febab692d6f08cfa303e5d53b3b34f9046d000000000000000000000000f4da94b4ee9d8e209e3bf9f469221ce2731a71120000000000000000000000000000000000000000000000000000000000000000)]"
      ],
      "transaction": {
        "from": "0x45dce8e4f2dc005a5f28206a46cb034697eeda8e",
        "to": "0x5c6cff4b7c49805f8295ff73c204ac83f3bc4ae7",
        "gas": "0x63e40",
        "value": "0x0",
        "input": "0x6dbd9f90000000000000000000000000bd39033994f5324fe8d50bb524396a78ff9dfe22000000000000000000000000166cab679ebdb0853055522d3b523621b94029a100000000000000000000000000000000000000000000000000000000000000600000000000000000000000000000000000000000000000000000000000000001000000000000000000000000000000000000000000000000000000000000002000000000000000000000000000000000000000000000000000000000000076420000000000000000000000000000000000000000000000000000000000000002000000000000000000000000000000000000000000000000000000000000006000000000000000000000000000000000000000000000000000000000000001800000000000000000000000000000000000000000000000000000000000000020000000000000000000000000000000000000000000000000000000000000000000000000000000000000000000000000000000000000000000000000000000030000000000000000000000000000000000000000000000000000000000000000000000000000000000000000000000000000000000000000000000000000000000000000000000000000000000000000000000000000000000000000000000c000000000000000000000000000000000000000000000000000000000000001400000000000000000000000000000000000000000000000000000000000000003000000000000000000000000264fe346fcd0a89e3b41a6499bac80dea7e908d2000000000000000000000000a8c83febab692d6f08cfa303e5d53b3b34f9046d000000000000000000000000f4da94b4ee9d8e209e3bf9f469221ce2731a71120000000000000000000000000000000000000000000000000000000000000000",
        "nonce": "0x4f",
        "chainId": "0xab5",
        "zksync": {
          "factoryDeps": [],
          "paymasterData": null
        }
      },
      "additionalContracts": [],
      "isFixedGasLimit": false
    },
    {
      "hash": null,
      "transactionType": "CALL",
      "contractName": null,
      "contractAddress": "0x5c6cff4b7c49805f8295ff73c204ac83f3bc4ae7",
      "function": "setConfig(address,address,(uint32,uint32,bytes)[])",
      "arguments": [
        "0xBd39033994F5324Fe8D50bB524396A78ff9dFe22",
        "0x9d799c1935c51CA399e6465Ed9841DEbCcEc413E",
        "[(30274, 2, 0x0000000000000000000000000000000000000000000000000000000000000020000000000000000000000000000000000000000000000000000000000000000000000000000000000000000000000000000000000000000000000000000000030000000000000000000000000000000000000000000000000000000000000000000000000000000000000000000000000000000000000000000000000000000000000000000000000000000000000000000000000000000000000000000000c000000000000000000000000000000000000000000000000000000000000001400000000000000000000000000000000000000000000000000000000000000003000000000000000000000000264fe346fcd0a89e3b41a6499bac80dea7e908d2000000000000000000000000a8c83febab692d6f08cfa303e5d53b3b34f9046d000000000000000000000000f4da94b4ee9d8e209e3bf9f469221ce2731a71120000000000000000000000000000000000000000000000000000000000000000)]"
      ],
      "transaction": {
        "from": "0x45dce8e4f2dc005a5f28206a46cb034697eeda8e",
        "to": "0x5c6cff4b7c49805f8295ff73c204ac83f3bc4ae7",
        "gas": "0x61ca9",
        "value": "0x0",
        "input": "0x6dbd9f90000000000000000000000000bd39033994f5324fe8d50bb524396a78ff9dfe220000000000000000000000009d799c1935c51ca399e6465ed9841debccec413e00000000000000000000000000000000000000000000000000000000000000600000000000000000000000000000000000000000000000000000000000000001000000000000000000000000000000000000000000000000000000000000002000000000000000000000000000000000000000000000000000000000000076420000000000000000000000000000000000000000000000000000000000000002000000000000000000000000000000000000000000000000000000000000006000000000000000000000000000000000000000000000000000000000000001800000000000000000000000000000000000000000000000000000000000000020000000000000000000000000000000000000000000000000000000000000000000000000000000000000000000000000000000000000000000000000000000030000000000000000000000000000000000000000000000000000000000000000000000000000000000000000000000000000000000000000000000000000000000000000000000000000000000000000000000000000000000000000000000c000000000000000000000000000000000000000000000000000000000000001400000000000000000000000000000000000000000000000000000000000000003000000000000000000000000264fe346fcd0a89e3b41a6499bac80dea7e908d2000000000000000000000000a8c83febab692d6f08cfa303e5d53b3b34f9046d000000000000000000000000f4da94b4ee9d8e209e3bf9f469221ce2731a71120000000000000000000000000000000000000000000000000000000000000000",
        "nonce": "0x50",
        "chainId": "0xab5",
        "zksync": {
          "factoryDeps": [],
          "paymasterData": null
        }
      },
      "additionalContracts": [],
      "isFixedGasLimit": false
    },
    {
      "hash": null,
      "transactionType": "CALL",
      "contractName": null,
      "contractAddress": "0x5c6cff4b7c49805f8295ff73c204ac83f3bc4ae7",
      "function": "setConfig(address,address,(uint32,uint32,bytes)[])",
      "arguments": [
        "0xBd39033994F5324Fe8D50bB524396A78ff9dFe22",
        "0x166CAb679EBDB0853055522D3B523621b94029a1",
        "[(30332, 2, 0x0000000000000000000000000000000000000000000000000000000000000020000000000000000000000000000000000000000000000000000000000000000000000000000000000000000000000000000000000000000000000000000000030000000000000000000000000000000000000000000000000000000000000000000000000000000000000000000000000000000000000000000000000000000000000000000000000000000000000000000000000000000000000000000000c000000000000000000000000000000000000000000000000000000000000001400000000000000000000000000000000000000000000000000000000000000003000000000000000000000000264fe346fcd0a89e3b41a6499bac80dea7e908d2000000000000000000000000a8c83febab692d6f08cfa303e5d53b3b34f9046d000000000000000000000000f4da94b4ee9d8e209e3bf9f469221ce2731a71120000000000000000000000000000000000000000000000000000000000000000)]"
      ],
      "transaction": {
        "from": "0x45dce8e4f2dc005a5f28206a46cb034697eeda8e",
        "to": "0x5c6cff4b7c49805f8295ff73c204ac83f3bc4ae7",
        "gas": "0x63e40",
        "value": "0x0",
        "input": "0x6dbd9f90000000000000000000000000bd39033994f5324fe8d50bb524396a78ff9dfe22000000000000000000000000166cab679ebdb0853055522d3b523621b94029a1000000000000000000000000000000000000000000000000000000000000006000000000000000000000000000000000000000000000000000000000000000010000000000000000000000000000000000000000000000000000000000000020000000000000000000000000000000000000000000000000000000000000767c0000000000000000000000000000000000000000000000000000000000000002000000000000000000000000000000000000000000000000000000000000006000000000000000000000000000000000000000000000000000000000000001800000000000000000000000000000000000000000000000000000000000000020000000000000000000000000000000000000000000000000000000000000000000000000000000000000000000000000000000000000000000000000000000030000000000000000000000000000000000000000000000000000000000000000000000000000000000000000000000000000000000000000000000000000000000000000000000000000000000000000000000000000000000000000000000c000000000000000000000000000000000000000000000000000000000000001400000000000000000000000000000000000000000000000000000000000000003000000000000000000000000264fe346fcd0a89e3b41a6499bac80dea7e908d2000000000000000000000000a8c83febab692d6f08cfa303e5d53b3b34f9046d000000000000000000000000f4da94b4ee9d8e209e3bf9f469221ce2731a71120000000000000000000000000000000000000000000000000000000000000000",
        "nonce": "0x51",
        "chainId": "0xab5",
        "zksync": {
          "factoryDeps": [],
          "paymasterData": null
        }
      },
      "additionalContracts": [],
      "isFixedGasLimit": false
    },
    {
      "hash": null,
      "transactionType": "CALL",
      "contractName": null,
      "contractAddress": "0x5c6cff4b7c49805f8295ff73c204ac83f3bc4ae7",
      "function": "setConfig(address,address,(uint32,uint32,bytes)[])",
      "arguments": [
        "0xBd39033994F5324Fe8D50bB524396A78ff9dFe22",
        "0x9d799c1935c51CA399e6465Ed9841DEbCcEc413E",
        "[(30332, 2, 0x0000000000000000000000000000000000000000000000000000000000000020000000000000000000000000000000000000000000000000000000000000000000000000000000000000000000000000000000000000000000000000000000030000000000000000000000000000000000000000000000000000000000000000000000000000000000000000000000000000000000000000000000000000000000000000000000000000000000000000000000000000000000000000000000c000000000000000000000000000000000000000000000000000000000000001400000000000000000000000000000000000000000000000000000000000000003000000000000000000000000264fe346fcd0a89e3b41a6499bac80dea7e908d2000000000000000000000000a8c83febab692d6f08cfa303e5d53b3b34f9046d000000000000000000000000f4da94b4ee9d8e209e3bf9f469221ce2731a71120000000000000000000000000000000000000000000000000000000000000000)]"
      ],
      "transaction": {
        "from": "0x45dce8e4f2dc005a5f28206a46cb034697eeda8e",
        "to": "0x5c6cff4b7c49805f8295ff73c204ac83f3bc4ae7",
        "gas": "0x61ca9",
        "value": "0x0",
        "input": "0x6dbd9f90000000000000000000000000bd39033994f5324fe8d50bb524396a78ff9dfe220000000000000000000000009d799c1935c51ca399e6465ed9841debccec413e000000000000000000000000000000000000000000000000000000000000006000000000000000000000000000000000000000000000000000000000000000010000000000000000000000000000000000000000000000000000000000000020000000000000000000000000000000000000000000000000000000000000767c0000000000000000000000000000000000000000000000000000000000000002000000000000000000000000000000000000000000000000000000000000006000000000000000000000000000000000000000000000000000000000000001800000000000000000000000000000000000000000000000000000000000000020000000000000000000000000000000000000000000000000000000000000000000000000000000000000000000000000000000000000000000000000000000030000000000000000000000000000000000000000000000000000000000000000000000000000000000000000000000000000000000000000000000000000000000000000000000000000000000000000000000000000000000000000000000c000000000000000000000000000000000000000000000000000000000000001400000000000000000000000000000000000000000000000000000000000000003000000000000000000000000264fe346fcd0a89e3b41a6499bac80dea7e908d2000000000000000000000000a8c83febab692d6f08cfa303e5d53b3b34f9046d000000000000000000000000f4da94b4ee9d8e209e3bf9f469221ce2731a71120000000000000000000000000000000000000000000000000000000000000000",
        "nonce": "0x52",
        "chainId": "0xab5",
        "zksync": {
          "factoryDeps": [],
          "paymasterData": null
        }
      },
      "additionalContracts": [],
      "isFixedGasLimit": false
    },
    {
      "hash": null,
      "transactionType": "CALL",
      "contractName": null,
      "contractAddress": "0x5c6cff4b7c49805f8295ff73c204ac83f3bc4ae7",
      "function": "setConfig(address,address,(uint32,uint32,bytes)[])",
      "arguments": [
        "0xBd39033994F5324Fe8D50bB524396A78ff9dFe22",
        "0x166CAb679EBDB0853055522D3B523621b94029a1",
        "[(30339, 2, 0x0000000000000000000000000000000000000000000000000000000000000020000000000000000000000000000000000000000000000000000000000000000000000000000000000000000000000000000000000000000000000000000000030000000000000000000000000000000000000000000000000000000000000000000000000000000000000000000000000000000000000000000000000000000000000000000000000000000000000000000000000000000000000000000000c000000000000000000000000000000000000000000000000000000000000001400000000000000000000000000000000000000000000000000000000000000003000000000000000000000000264fe346fcd0a89e3b41a6499bac80dea7e908d2000000000000000000000000a8c83febab692d6f08cfa303e5d53b3b34f9046d000000000000000000000000f4da94b4ee9d8e209e3bf9f469221ce2731a71120000000000000000000000000000000000000000000000000000000000000000)]"
      ],
      "transaction": {
        "from": "0x45dce8e4f2dc005a5f28206a46cb034697eeda8e",
        "to": "0x5c6cff4b7c49805f8295ff73c204ac83f3bc4ae7",
        "gas": "0x63e40",
        "value": "0x0",
        "input": "0x6dbd9f90000000000000000000000000bd39033994f5324fe8d50bb524396a78ff9dfe22000000000000000000000000166cab679ebdb0853055522d3b523621b94029a100000000000000000000000000000000000000000000000000000000000000600000000000000000000000000000000000000000000000000000000000000001000000000000000000000000000000000000000000000000000000000000002000000000000000000000000000000000000000000000000000000000000076830000000000000000000000000000000000000000000000000000000000000002000000000000000000000000000000000000000000000000000000000000006000000000000000000000000000000000000000000000000000000000000001800000000000000000000000000000000000000000000000000000000000000020000000000000000000000000000000000000000000000000000000000000000000000000000000000000000000000000000000000000000000000000000000030000000000000000000000000000000000000000000000000000000000000000000000000000000000000000000000000000000000000000000000000000000000000000000000000000000000000000000000000000000000000000000000c000000000000000000000000000000000000000000000000000000000000001400000000000000000000000000000000000000000000000000000000000000003000000000000000000000000264fe346fcd0a89e3b41a6499bac80dea7e908d2000000000000000000000000a8c83febab692d6f08cfa303e5d53b3b34f9046d000000000000000000000000f4da94b4ee9d8e209e3bf9f469221ce2731a71120000000000000000000000000000000000000000000000000000000000000000",
        "nonce": "0x53",
        "chainId": "0xab5",
        "zksync": {
          "factoryDeps": [],
          "paymasterData": null
        }
      },
      "additionalContracts": [],
      "isFixedGasLimit": false
    },
    {
      "hash": null,
      "transactionType": "CALL",
      "contractName": null,
      "contractAddress": "0x5c6cff4b7c49805f8295ff73c204ac83f3bc4ae7",
      "function": "setConfig(address,address,(uint32,uint32,bytes)[])",
      "arguments": [
        "0xBd39033994F5324Fe8D50bB524396A78ff9dFe22",
        "0x9d799c1935c51CA399e6465Ed9841DEbCcEc413E",
        "[(30339, 2, 0x0000000000000000000000000000000000000000000000000000000000000020000000000000000000000000000000000000000000000000000000000000000000000000000000000000000000000000000000000000000000000000000000030000000000000000000000000000000000000000000000000000000000000000000000000000000000000000000000000000000000000000000000000000000000000000000000000000000000000000000000000000000000000000000000c000000000000000000000000000000000000000000000000000000000000001400000000000000000000000000000000000000000000000000000000000000003000000000000000000000000264fe346fcd0a89e3b41a6499bac80dea7e908d2000000000000000000000000a8c83febab692d6f08cfa303e5d53b3b34f9046d000000000000000000000000f4da94b4ee9d8e209e3bf9f469221ce2731a71120000000000000000000000000000000000000000000000000000000000000000)]"
      ],
      "transaction": {
        "from": "0x45dce8e4f2dc005a5f28206a46cb034697eeda8e",
        "to": "0x5c6cff4b7c49805f8295ff73c204ac83f3bc4ae7",
        "gas": "0x61ca9",
        "value": "0x0",
        "input": "0x6dbd9f90000000000000000000000000bd39033994f5324fe8d50bb524396a78ff9dfe220000000000000000000000009d799c1935c51ca399e6465ed9841debccec413e00000000000000000000000000000000000000000000000000000000000000600000000000000000000000000000000000000000000000000000000000000001000000000000000000000000000000000000000000000000000000000000002000000000000000000000000000000000000000000000000000000000000076830000000000000000000000000000000000000000000000000000000000000002000000000000000000000000000000000000000000000000000000000000006000000000000000000000000000000000000000000000000000000000000001800000000000000000000000000000000000000000000000000000000000000020000000000000000000000000000000000000000000000000000000000000000000000000000000000000000000000000000000000000000000000000000000030000000000000000000000000000000000000000000000000000000000000000000000000000000000000000000000000000000000000000000000000000000000000000000000000000000000000000000000000000000000000000000000c000000000000000000000000000000000000000000000000000000000000001400000000000000000000000000000000000000000000000000000000000000003000000000000000000000000264fe346fcd0a89e3b41a6499bac80dea7e908d2000000000000000000000000a8c83febab692d6f08cfa303e5d53b3b34f9046d000000000000000000000000f4da94b4ee9d8e209e3bf9f469221ce2731a71120000000000000000000000000000000000000000000000000000000000000000",
        "nonce": "0x54",
        "chainId": "0xab5",
        "zksync": {
          "factoryDeps": [],
          "paymasterData": null
        }
      },
      "additionalContracts": [],
      "isFixedGasLimit": false
    },
    {
      "hash": null,
      "transactionType": "CALL",
      "contractName": null,
      "contractAddress": "0x5c6cff4b7c49805f8295ff73c204ac83f3bc4ae7",
      "function": "setConfig(address,address,(uint32,uint32,bytes)[])",
      "arguments": [
        "0xBd39033994F5324Fe8D50bB524396A78ff9dFe22",
        "0x166CAb679EBDB0853055522D3B523621b94029a1",
        "[(30110, 2, 0x0000000000000000000000000000000000000000000000000000000000000020000000000000000000000000000000000000000000000000000000000000000000000000000000000000000000000000000000000000000000000000000000030000000000000000000000000000000000000000000000000000000000000000000000000000000000000000000000000000000000000000000000000000000000000000000000000000000000000000000000000000000000000000000000c000000000000000000000000000000000000000000000000000000000000001400000000000000000000000000000000000000000000000000000000000000003000000000000000000000000264fe346fcd0a89e3b41a6499bac80dea7e908d2000000000000000000000000a8c83febab692d6f08cfa303e5d53b3b34f9046d000000000000000000000000f4da94b4ee9d8e209e3bf9f469221ce2731a71120000000000000000000000000000000000000000000000000000000000000000)]"
      ],
      "transaction": {
        "from": "0x45dce8e4f2dc005a5f28206a46cb034697eeda8e",
        "to": "0x5c6cff4b7c49805f8295ff73c204ac83f3bc4ae7",
        "gas": "0x63e40",
        "value": "0x0",
        "input": "0x6dbd9f90000000000000000000000000bd39033994f5324fe8d50bb524396a78ff9dfe22000000000000000000000000166cab679ebdb0853055522d3b523621b94029a1000000000000000000000000000000000000000000000000000000000000006000000000000000000000000000000000000000000000000000000000000000010000000000000000000000000000000000000000000000000000000000000020000000000000000000000000000000000000000000000000000000000000759e0000000000000000000000000000000000000000000000000000000000000002000000000000000000000000000000000000000000000000000000000000006000000000000000000000000000000000000000000000000000000000000001800000000000000000000000000000000000000000000000000000000000000020000000000000000000000000000000000000000000000000000000000000000000000000000000000000000000000000000000000000000000000000000000030000000000000000000000000000000000000000000000000000000000000000000000000000000000000000000000000000000000000000000000000000000000000000000000000000000000000000000000000000000000000000000000c000000000000000000000000000000000000000000000000000000000000001400000000000000000000000000000000000000000000000000000000000000003000000000000000000000000264fe346fcd0a89e3b41a6499bac80dea7e908d2000000000000000000000000a8c83febab692d6f08cfa303e5d53b3b34f9046d000000000000000000000000f4da94b4ee9d8e209e3bf9f469221ce2731a71120000000000000000000000000000000000000000000000000000000000000000",
        "nonce": "0x55",
        "chainId": "0xab5",
        "zksync": {
          "factoryDeps": [],
          "paymasterData": null
        }
      },
      "additionalContracts": [],
      "isFixedGasLimit": false
    },
    {
      "hash": null,
      "transactionType": "CALL",
      "contractName": null,
      "contractAddress": "0x5c6cff4b7c49805f8295ff73c204ac83f3bc4ae7",
      "function": "setConfig(address,address,(uint32,uint32,bytes)[])",
      "arguments": [
        "0xBd39033994F5324Fe8D50bB524396A78ff9dFe22",
        "0x9d799c1935c51CA399e6465Ed9841DEbCcEc413E",
        "[(30110, 2, 0x0000000000000000000000000000000000000000000000000000000000000020000000000000000000000000000000000000000000000000000000000000000000000000000000000000000000000000000000000000000000000000000000030000000000000000000000000000000000000000000000000000000000000000000000000000000000000000000000000000000000000000000000000000000000000000000000000000000000000000000000000000000000000000000000c000000000000000000000000000000000000000000000000000000000000001400000000000000000000000000000000000000000000000000000000000000003000000000000000000000000264fe346fcd0a89e3b41a6499bac80dea7e908d2000000000000000000000000a8c83febab692d6f08cfa303e5d53b3b34f9046d000000000000000000000000f4da94b4ee9d8e209e3bf9f469221ce2731a71120000000000000000000000000000000000000000000000000000000000000000)]"
      ],
      "transaction": {
        "from": "0x45dce8e4f2dc005a5f28206a46cb034697eeda8e",
        "to": "0x5c6cff4b7c49805f8295ff73c204ac83f3bc4ae7",
        "gas": "0x61ca9",
        "value": "0x0",
        "input": "0x6dbd9f90000000000000000000000000bd39033994f5324fe8d50bb524396a78ff9dfe220000000000000000000000009d799c1935c51ca399e6465ed9841debccec413e000000000000000000000000000000000000000000000000000000000000006000000000000000000000000000000000000000000000000000000000000000010000000000000000000000000000000000000000000000000000000000000020000000000000000000000000000000000000000000000000000000000000759e0000000000000000000000000000000000000000000000000000000000000002000000000000000000000000000000000000000000000000000000000000006000000000000000000000000000000000000000000000000000000000000001800000000000000000000000000000000000000000000000000000000000000020000000000000000000000000000000000000000000000000000000000000000000000000000000000000000000000000000000000000000000000000000000030000000000000000000000000000000000000000000000000000000000000000000000000000000000000000000000000000000000000000000000000000000000000000000000000000000000000000000000000000000000000000000000c000000000000000000000000000000000000000000000000000000000000001400000000000000000000000000000000000000000000000000000000000000003000000000000000000000000264fe346fcd0a89e3b41a6499bac80dea7e908d2000000000000000000000000a8c83febab692d6f08cfa303e5d53b3b34f9046d000000000000000000000000f4da94b4ee9d8e209e3bf9f469221ce2731a71120000000000000000000000000000000000000000000000000000000000000000",
        "nonce": "0x56",
        "chainId": "0xab5",
        "zksync": {
          "factoryDeps": [],
          "paymasterData": null
        }
      },
      "additionalContracts": [],
      "isFixedGasLimit": false
    },
    {
      "hash": null,
      "transactionType": "CALL",
      "contractName": null,
      "contractAddress": "0x5c6cff4b7c49805f8295ff73c204ac83f3bc4ae7",
      "function": "setConfig(address,address,(uint32,uint32,bytes)[])",
      "arguments": [
        "0xBd39033994F5324Fe8D50bB524396A78ff9dFe22",
        "0x166CAb679EBDB0853055522D3B523621b94029a1",
        "[(30111, 2, 0x0000000000000000000000000000000000000000000000000000000000000020000000000000000000000000000000000000000000000000000000000000000000000000000000000000000000000000000000000000000000000000000000030000000000000000000000000000000000000000000000000000000000000000000000000000000000000000000000000000000000000000000000000000000000000000000000000000000000000000000000000000000000000000000000c000000000000000000000000000000000000000000000000000000000000001400000000000000000000000000000000000000000000000000000000000000003000000000000000000000000264fe346fcd0a89e3b41a6499bac80dea7e908d2000000000000000000000000a8c83febab692d6f08cfa303e5d53b3b34f9046d000000000000000000000000f4da94b4ee9d8e209e3bf9f469221ce2731a71120000000000000000000000000000000000000000000000000000000000000000)]"
      ],
      "transaction": {
        "from": "0x45dce8e4f2dc005a5f28206a46cb034697eeda8e",
        "to": "0x5c6cff4b7c49805f8295ff73c204ac83f3bc4ae7",
        "gas": "0x63e40",
        "value": "0x0",
        "input": "0x6dbd9f90000000000000000000000000bd39033994f5324fe8d50bb524396a78ff9dfe22000000000000000000000000166cab679ebdb0853055522d3b523621b94029a1000000000000000000000000000000000000000000000000000000000000006000000000000000000000000000000000000000000000000000000000000000010000000000000000000000000000000000000000000000000000000000000020000000000000000000000000000000000000000000000000000000000000759f0000000000000000000000000000000000000000000000000000000000000002000000000000000000000000000000000000000000000000000000000000006000000000000000000000000000000000000000000000000000000000000001800000000000000000000000000000000000000000000000000000000000000020000000000000000000000000000000000000000000000000000000000000000000000000000000000000000000000000000000000000000000000000000000030000000000000000000000000000000000000000000000000000000000000000000000000000000000000000000000000000000000000000000000000000000000000000000000000000000000000000000000000000000000000000000000c000000000000000000000000000000000000000000000000000000000000001400000000000000000000000000000000000000000000000000000000000000003000000000000000000000000264fe346fcd0a89e3b41a6499bac80dea7e908d2000000000000000000000000a8c83febab692d6f08cfa303e5d53b3b34f9046d000000000000000000000000f4da94b4ee9d8e209e3bf9f469221ce2731a71120000000000000000000000000000000000000000000000000000000000000000",
        "nonce": "0x57",
        "chainId": "0xab5",
        "zksync": {
          "factoryDeps": [],
          "paymasterData": null
        }
      },
      "additionalContracts": [],
      "isFixedGasLimit": false
    },
    {
      "hash": null,
      "transactionType": "CALL",
      "contractName": null,
      "contractAddress": "0x5c6cff4b7c49805f8295ff73c204ac83f3bc4ae7",
      "function": "setConfig(address,address,(uint32,uint32,bytes)[])",
      "arguments": [
        "0xBd39033994F5324Fe8D50bB524396A78ff9dFe22",
        "0x9d799c1935c51CA399e6465Ed9841DEbCcEc413E",
        "[(30111, 2, 0x0000000000000000000000000000000000000000000000000000000000000020000000000000000000000000000000000000000000000000000000000000000000000000000000000000000000000000000000000000000000000000000000030000000000000000000000000000000000000000000000000000000000000000000000000000000000000000000000000000000000000000000000000000000000000000000000000000000000000000000000000000000000000000000000c000000000000000000000000000000000000000000000000000000000000001400000000000000000000000000000000000000000000000000000000000000003000000000000000000000000264fe346fcd0a89e3b41a6499bac80dea7e908d2000000000000000000000000a8c83febab692d6f08cfa303e5d53b3b34f9046d000000000000000000000000f4da94b4ee9d8e209e3bf9f469221ce2731a71120000000000000000000000000000000000000000000000000000000000000000)]"
      ],
      "transaction": {
        "from": "0x45dce8e4f2dc005a5f28206a46cb034697eeda8e",
        "to": "0x5c6cff4b7c49805f8295ff73c204ac83f3bc4ae7",
        "gas": "0x61ca9",
        "value": "0x0",
        "input": "0x6dbd9f90000000000000000000000000bd39033994f5324fe8d50bb524396a78ff9dfe220000000000000000000000009d799c1935c51ca399e6465ed9841debccec413e000000000000000000000000000000000000000000000000000000000000006000000000000000000000000000000000000000000000000000000000000000010000000000000000000000000000000000000000000000000000000000000020000000000000000000000000000000000000000000000000000000000000759f0000000000000000000000000000000000000000000000000000000000000002000000000000000000000000000000000000000000000000000000000000006000000000000000000000000000000000000000000000000000000000000001800000000000000000000000000000000000000000000000000000000000000020000000000000000000000000000000000000000000000000000000000000000000000000000000000000000000000000000000000000000000000000000000030000000000000000000000000000000000000000000000000000000000000000000000000000000000000000000000000000000000000000000000000000000000000000000000000000000000000000000000000000000000000000000000c000000000000000000000000000000000000000000000000000000000000001400000000000000000000000000000000000000000000000000000000000000003000000000000000000000000264fe346fcd0a89e3b41a6499bac80dea7e908d2000000000000000000000000a8c83febab692d6f08cfa303e5d53b3b34f9046d000000000000000000000000f4da94b4ee9d8e209e3bf9f469221ce2731a71120000000000000000000000000000000000000000000000000000000000000000",
        "nonce": "0x58",
        "chainId": "0xab5",
        "zksync": {
          "factoryDeps": [],
          "paymasterData": null
        }
      },
      "additionalContracts": [],
      "isFixedGasLimit": false
    },
    {
      "hash": null,
      "transactionType": "CALL",
      "contractName": null,
      "contractAddress": "0x5c6cff4b7c49805f8295ff73c204ac83f3bc4ae7",
      "function": "setConfig(address,address,(uint32,uint32,bytes)[])",
      "arguments": [
        "0xBd39033994F5324Fe8D50bB524396A78ff9dFe22",
        "0x166CAb679EBDB0853055522D3B523621b94029a1",
        "[(30109, 2, 0x0000000000000000000000000000000000000000000000000000000000000020000000000000000000000000000000000000000000000000000000000000000000000000000000000000000000000000000000000000000000000000000000030000000000000000000000000000000000000000000000000000000000000000000000000000000000000000000000000000000000000000000000000000000000000000000000000000000000000000000000000000000000000000000000c000000000000000000000000000000000000000000000000000000000000001400000000000000000000000000000000000000000000000000000000000000003000000000000000000000000264fe346fcd0a89e3b41a6499bac80dea7e908d2000000000000000000000000a8c83febab692d6f08cfa303e5d53b3b34f9046d000000000000000000000000f4da94b4ee9d8e209e3bf9f469221ce2731a71120000000000000000000000000000000000000000000000000000000000000000)]"
      ],
      "transaction": {
        "from": "0x45dce8e4f2dc005a5f28206a46cb034697eeda8e",
        "to": "0x5c6cff4b7c49805f8295ff73c204ac83f3bc4ae7",
        "gas": "0x63e40",
        "value": "0x0",
        "input": "0x6dbd9f90000000000000000000000000bd39033994f5324fe8d50bb524396a78ff9dfe22000000000000000000000000166cab679ebdb0853055522d3b523621b94029a1000000000000000000000000000000000000000000000000000000000000006000000000000000000000000000000000000000000000000000000000000000010000000000000000000000000000000000000000000000000000000000000020000000000000000000000000000000000000000000000000000000000000759d0000000000000000000000000000000000000000000000000000000000000002000000000000000000000000000000000000000000000000000000000000006000000000000000000000000000000000000000000000000000000000000001800000000000000000000000000000000000000000000000000000000000000020000000000000000000000000000000000000000000000000000000000000000000000000000000000000000000000000000000000000000000000000000000030000000000000000000000000000000000000000000000000000000000000000000000000000000000000000000000000000000000000000000000000000000000000000000000000000000000000000000000000000000000000000000000c000000000000000000000000000000000000000000000000000000000000001400000000000000000000000000000000000000000000000000000000000000003000000000000000000000000264fe346fcd0a89e3b41a6499bac80dea7e908d2000000000000000000000000a8c83febab692d6f08cfa303e5d53b3b34f9046d000000000000000000000000f4da94b4ee9d8e209e3bf9f469221ce2731a71120000000000000000000000000000000000000000000000000000000000000000",
        "nonce": "0x59",
        "chainId": "0xab5",
        "zksync": {
          "factoryDeps": [],
          "paymasterData": null
        }
      },
      "additionalContracts": [],
      "isFixedGasLimit": false
    },
    {
      "hash": null,
      "transactionType": "CALL",
      "contractName": null,
      "contractAddress": "0x5c6cff4b7c49805f8295ff73c204ac83f3bc4ae7",
      "function": "setConfig(address,address,(uint32,uint32,bytes)[])",
      "arguments": [
        "0xBd39033994F5324Fe8D50bB524396A78ff9dFe22",
        "0x9d799c1935c51CA399e6465Ed9841DEbCcEc413E",
        "[(30109, 2, 0x0000000000000000000000000000000000000000000000000000000000000020000000000000000000000000000000000000000000000000000000000000000000000000000000000000000000000000000000000000000000000000000000030000000000000000000000000000000000000000000000000000000000000000000000000000000000000000000000000000000000000000000000000000000000000000000000000000000000000000000000000000000000000000000000c000000000000000000000000000000000000000000000000000000000000001400000000000000000000000000000000000000000000000000000000000000003000000000000000000000000264fe346fcd0a89e3b41a6499bac80dea7e908d2000000000000000000000000a8c83febab692d6f08cfa303e5d53b3b34f9046d000000000000000000000000f4da94b4ee9d8e209e3bf9f469221ce2731a71120000000000000000000000000000000000000000000000000000000000000000)]"
      ],
      "transaction": {
        "from": "0x45dce8e4f2dc005a5f28206a46cb034697eeda8e",
        "to": "0x5c6cff4b7c49805f8295ff73c204ac83f3bc4ae7",
        "gas": "0x61ca9",
        "value": "0x0",
        "input": "0x6dbd9f90000000000000000000000000bd39033994f5324fe8d50bb524396a78ff9dfe220000000000000000000000009d799c1935c51ca399e6465ed9841debccec413e000000000000000000000000000000000000000000000000000000000000006000000000000000000000000000000000000000000000000000000000000000010000000000000000000000000000000000000000000000000000000000000020000000000000000000000000000000000000000000000000000000000000759d0000000000000000000000000000000000000000000000000000000000000002000000000000000000000000000000000000000000000000000000000000006000000000000000000000000000000000000000000000000000000000000001800000000000000000000000000000000000000000000000000000000000000020000000000000000000000000000000000000000000000000000000000000000000000000000000000000000000000000000000000000000000000000000000030000000000000000000000000000000000000000000000000000000000000000000000000000000000000000000000000000000000000000000000000000000000000000000000000000000000000000000000000000000000000000000000c000000000000000000000000000000000000000000000000000000000000001400000000000000000000000000000000000000000000000000000000000000003000000000000000000000000264fe346fcd0a89e3b41a6499bac80dea7e908d2000000000000000000000000a8c83febab692d6f08cfa303e5d53b3b34f9046d000000000000000000000000f4da94b4ee9d8e209e3bf9f469221ce2731a71120000000000000000000000000000000000000000000000000000000000000000",
        "nonce": "0x5a",
        "chainId": "0xab5",
        "zksync": {
          "factoryDeps": [],
          "paymasterData": null
        }
      },
      "additionalContracts": [],
      "isFixedGasLimit": false
    },
    {
      "hash": null,
      "transactionType": "CALL",
      "contractName": null,
      "contractAddress": "0x5c6cff4b7c49805f8295ff73c204ac83f3bc4ae7",
      "function": "setConfig(address,address,(uint32,uint32,bytes)[])",
      "arguments": [
        "0xBd39033994F5324Fe8D50bB524396A78ff9dFe22",
        "0x166CAb679EBDB0853055522D3B523621b94029a1",
        "[(30106, 2, 0x0000000000000000000000000000000000000000000000000000000000000020000000000000000000000000000000000000000000000000000000000000000000000000000000000000000000000000000000000000000000000000000000030000000000000000000000000000000000000000000000000000000000000000000000000000000000000000000000000000000000000000000000000000000000000000000000000000000000000000000000000000000000000000000000c000000000000000000000000000000000000000000000000000000000000001400000000000000000000000000000000000000000000000000000000000000003000000000000000000000000264fe346fcd0a89e3b41a6499bac80dea7e908d2000000000000000000000000a8c83febab692d6f08cfa303e5d53b3b34f9046d000000000000000000000000f4da94b4ee9d8e209e3bf9f469221ce2731a71120000000000000000000000000000000000000000000000000000000000000000)]"
      ],
      "transaction": {
        "from": "0x45dce8e4f2dc005a5f28206a46cb034697eeda8e",
        "to": "0x5c6cff4b7c49805f8295ff73c204ac83f3bc4ae7",
        "gas": "0x63e40",
        "value": "0x0",
        "input": "0x6dbd9f90000000000000000000000000bd39033994f5324fe8d50bb524396a78ff9dfe22000000000000000000000000166cab679ebdb0853055522d3b523621b94029a1000000000000000000000000000000000000000000000000000000000000006000000000000000000000000000000000000000000000000000000000000000010000000000000000000000000000000000000000000000000000000000000020000000000000000000000000000000000000000000000000000000000000759a0000000000000000000000000000000000000000000000000000000000000002000000000000000000000000000000000000000000000000000000000000006000000000000000000000000000000000000000000000000000000000000001800000000000000000000000000000000000000000000000000000000000000020000000000000000000000000000000000000000000000000000000000000000000000000000000000000000000000000000000000000000000000000000000030000000000000000000000000000000000000000000000000000000000000000000000000000000000000000000000000000000000000000000000000000000000000000000000000000000000000000000000000000000000000000000000c000000000000000000000000000000000000000000000000000000000000001400000000000000000000000000000000000000000000000000000000000000003000000000000000000000000264fe346fcd0a89e3b41a6499bac80dea7e908d2000000000000000000000000a8c83febab692d6f08cfa303e5d53b3b34f9046d000000000000000000000000f4da94b4ee9d8e209e3bf9f469221ce2731a71120000000000000000000000000000000000000000000000000000000000000000",
        "nonce": "0x5b",
        "chainId": "0xab5",
        "zksync": {
          "factoryDeps": [],
          "paymasterData": null
        }
      },
      "additionalContracts": [],
      "isFixedGasLimit": false
    },
    {
      "hash": null,
      "transactionType": "CALL",
      "contractName": null,
      "contractAddress": "0x5c6cff4b7c49805f8295ff73c204ac83f3bc4ae7",
      "function": "setConfig(address,address,(uint32,uint32,bytes)[])",
      "arguments": [
        "0xBd39033994F5324Fe8D50bB524396A78ff9dFe22",
        "0x9d799c1935c51CA399e6465Ed9841DEbCcEc413E",
        "[(30106, 2, 0x0000000000000000000000000000000000000000000000000000000000000020000000000000000000000000000000000000000000000000000000000000000000000000000000000000000000000000000000000000000000000000000000030000000000000000000000000000000000000000000000000000000000000000000000000000000000000000000000000000000000000000000000000000000000000000000000000000000000000000000000000000000000000000000000c000000000000000000000000000000000000000000000000000000000000001400000000000000000000000000000000000000000000000000000000000000003000000000000000000000000264fe346fcd0a89e3b41a6499bac80dea7e908d2000000000000000000000000a8c83febab692d6f08cfa303e5d53b3b34f9046d000000000000000000000000f4da94b4ee9d8e209e3bf9f469221ce2731a71120000000000000000000000000000000000000000000000000000000000000000)]"
      ],
      "transaction": {
        "from": "0x45dce8e4f2dc005a5f28206a46cb034697eeda8e",
        "to": "0x5c6cff4b7c49805f8295ff73c204ac83f3bc4ae7",
        "gas": "0x61ca9",
        "value": "0x0",
        "input": "0x6dbd9f90000000000000000000000000bd39033994f5324fe8d50bb524396a78ff9dfe220000000000000000000000009d799c1935c51ca399e6465ed9841debccec413e000000000000000000000000000000000000000000000000000000000000006000000000000000000000000000000000000000000000000000000000000000010000000000000000000000000000000000000000000000000000000000000020000000000000000000000000000000000000000000000000000000000000759a0000000000000000000000000000000000000000000000000000000000000002000000000000000000000000000000000000000000000000000000000000006000000000000000000000000000000000000000000000000000000000000001800000000000000000000000000000000000000000000000000000000000000020000000000000000000000000000000000000000000000000000000000000000000000000000000000000000000000000000000000000000000000000000000030000000000000000000000000000000000000000000000000000000000000000000000000000000000000000000000000000000000000000000000000000000000000000000000000000000000000000000000000000000000000000000000c000000000000000000000000000000000000000000000000000000000000001400000000000000000000000000000000000000000000000000000000000000003000000000000000000000000264fe346fcd0a89e3b41a6499bac80dea7e908d2000000000000000000000000a8c83febab692d6f08cfa303e5d53b3b34f9046d000000000000000000000000f4da94b4ee9d8e209e3bf9f469221ce2731a71120000000000000000000000000000000000000000000000000000000000000000",
        "nonce": "0x5c",
        "chainId": "0xab5",
        "zksync": {
          "factoryDeps": [],
          "paymasterData": null
        }
      },
      "additionalContracts": [],
      "isFixedGasLimit": false
    },
    {
      "hash": null,
      "transactionType": "CALL",
      "contractName": null,
      "contractAddress": "0x5c6cff4b7c49805f8295ff73c204ac83f3bc4ae7",
      "function": "setConfig(address,address,(uint32,uint32,bytes)[])",
      "arguments": [
        "0xBd39033994F5324Fe8D50bB524396A78ff9dFe22",
        "0x166CAb679EBDB0853055522D3B523621b94029a1",
        "[(30102, 2, 0x0000000000000000000000000000000000000000000000000000000000000020000000000000000000000000000000000000000000000000000000000000000000000000000000000000000000000000000000000000000000000000000000030000000000000000000000000000000000000000000000000000000000000000000000000000000000000000000000000000000000000000000000000000000000000000000000000000000000000000000000000000000000000000000000c000000000000000000000000000000000000000000000000000000000000001400000000000000000000000000000000000000000000000000000000000000003000000000000000000000000264fe346fcd0a89e3b41a6499bac80dea7e908d2000000000000000000000000a8c83febab692d6f08cfa303e5d53b3b34f9046d000000000000000000000000f4da94b4ee9d8e209e3bf9f469221ce2731a71120000000000000000000000000000000000000000000000000000000000000000)]"
      ],
      "transaction": {
        "from": "0x45dce8e4f2dc005a5f28206a46cb034697eeda8e",
        "to": "0x5c6cff4b7c49805f8295ff73c204ac83f3bc4ae7",
        "gas": "0x63e40",
        "value": "0x0",
        "input": "0x6dbd9f90000000000000000000000000bd39033994f5324fe8d50bb524396a78ff9dfe22000000000000000000000000166cab679ebdb0853055522d3b523621b94029a100000000000000000000000000000000000000000000000000000000000000600000000000000000000000000000000000000000000000000000000000000001000000000000000000000000000000000000000000000000000000000000002000000000000000000000000000000000000000000000000000000000000075960000000000000000000000000000000000000000000000000000000000000002000000000000000000000000000000000000000000000000000000000000006000000000000000000000000000000000000000000000000000000000000001800000000000000000000000000000000000000000000000000000000000000020000000000000000000000000000000000000000000000000000000000000000000000000000000000000000000000000000000000000000000000000000000030000000000000000000000000000000000000000000000000000000000000000000000000000000000000000000000000000000000000000000000000000000000000000000000000000000000000000000000000000000000000000000000c000000000000000000000000000000000000000000000000000000000000001400000000000000000000000000000000000000000000000000000000000000003000000000000000000000000264fe346fcd0a89e3b41a6499bac80dea7e908d2000000000000000000000000a8c83febab692d6f08cfa303e5d53b3b34f9046d000000000000000000000000f4da94b4ee9d8e209e3bf9f469221ce2731a71120000000000000000000000000000000000000000000000000000000000000000",
        "nonce": "0x5d",
        "chainId": "0xab5",
        "zksync": {
          "factoryDeps": [],
          "paymasterData": null
        }
      },
      "additionalContracts": [],
      "isFixedGasLimit": false
    },
    {
      "hash": null,
      "transactionType": "CALL",
      "contractName": null,
      "contractAddress": "0x5c6cff4b7c49805f8295ff73c204ac83f3bc4ae7",
      "function": "setConfig(address,address,(uint32,uint32,bytes)[])",
      "arguments": [
        "0xBd39033994F5324Fe8D50bB524396A78ff9dFe22",
        "0x9d799c1935c51CA399e6465Ed9841DEbCcEc413E",
        "[(30102, 2, 0x0000000000000000000000000000000000000000000000000000000000000020000000000000000000000000000000000000000000000000000000000000000000000000000000000000000000000000000000000000000000000000000000030000000000000000000000000000000000000000000000000000000000000000000000000000000000000000000000000000000000000000000000000000000000000000000000000000000000000000000000000000000000000000000000c000000000000000000000000000000000000000000000000000000000000001400000000000000000000000000000000000000000000000000000000000000003000000000000000000000000264fe346fcd0a89e3b41a6499bac80dea7e908d2000000000000000000000000a8c83febab692d6f08cfa303e5d53b3b34f9046d000000000000000000000000f4da94b4ee9d8e209e3bf9f469221ce2731a71120000000000000000000000000000000000000000000000000000000000000000)]"
      ],
      "transaction": {
        "from": "0x45dce8e4f2dc005a5f28206a46cb034697eeda8e",
        "to": "0x5c6cff4b7c49805f8295ff73c204ac83f3bc4ae7",
        "gas": "0x61ca9",
        "value": "0x0",
        "input": "0x6dbd9f90000000000000000000000000bd39033994f5324fe8d50bb524396a78ff9dfe220000000000000000000000009d799c1935c51ca399e6465ed9841debccec413e00000000000000000000000000000000000000000000000000000000000000600000000000000000000000000000000000000000000000000000000000000001000000000000000000000000000000000000000000000000000000000000002000000000000000000000000000000000000000000000000000000000000075960000000000000000000000000000000000000000000000000000000000000002000000000000000000000000000000000000000000000000000000000000006000000000000000000000000000000000000000000000000000000000000001800000000000000000000000000000000000000000000000000000000000000020000000000000000000000000000000000000000000000000000000000000000000000000000000000000000000000000000000000000000000000000000000030000000000000000000000000000000000000000000000000000000000000000000000000000000000000000000000000000000000000000000000000000000000000000000000000000000000000000000000000000000000000000000000c000000000000000000000000000000000000000000000000000000000000001400000000000000000000000000000000000000000000000000000000000000003000000000000000000000000264fe346fcd0a89e3b41a6499bac80dea7e908d2000000000000000000000000a8c83febab692d6f08cfa303e5d53b3b34f9046d000000000000000000000000f4da94b4ee9d8e209e3bf9f469221ce2731a71120000000000000000000000000000000000000000000000000000000000000000",
        "nonce": "0x5e",
        "chainId": "0xab5",
        "zksync": {
          "factoryDeps": [],
          "paymasterData": null
        }
      },
      "additionalContracts": [],
      "isFixedGasLimit": false
    },
    {
      "hash": null,
      "transactionType": "CALL",
      "contractName": null,
      "contractAddress": "0x5c6cff4b7c49805f8295ff73c204ac83f3bc4ae7",
      "function": "setConfig(address,address,(uint32,uint32,bytes)[])",
      "arguments": [
        "0xBd39033994F5324Fe8D50bB524396A78ff9dFe22",
        "0x166CAb679EBDB0853055522D3B523621b94029a1",
        "[(30158, 2, 0x0000000000000000000000000000000000000000000000000000000000000020000000000000000000000000000000000000000000000000000000000000000000000000000000000000000000000000000000000000000000000000000000030000000000000000000000000000000000000000000000000000000000000000000000000000000000000000000000000000000000000000000000000000000000000000000000000000000000000000000000000000000000000000000000c000000000000000000000000000000000000000000000000000000000000001400000000000000000000000000000000000000000000000000000000000000003000000000000000000000000264fe346fcd0a89e3b41a6499bac80dea7e908d2000000000000000000000000a8c83febab692d6f08cfa303e5d53b3b34f9046d000000000000000000000000f4da94b4ee9d8e209e3bf9f469221ce2731a71120000000000000000000000000000000000000000000000000000000000000000)]"
      ],
      "transaction": {
        "from": "0x45dce8e4f2dc005a5f28206a46cb034697eeda8e",
        "to": "0x5c6cff4b7c49805f8295ff73c204ac83f3bc4ae7",
        "gas": "0x63e40",
        "value": "0x0",
        "input": "0x6dbd9f90000000000000000000000000bd39033994f5324fe8d50bb524396a78ff9dfe22000000000000000000000000166cab679ebdb0853055522d3b523621b94029a100000000000000000000000000000000000000000000000000000000000000600000000000000000000000000000000000000000000000000000000000000001000000000000000000000000000000000000000000000000000000000000002000000000000000000000000000000000000000000000000000000000000075ce0000000000000000000000000000000000000000000000000000000000000002000000000000000000000000000000000000000000000000000000000000006000000000000000000000000000000000000000000000000000000000000001800000000000000000000000000000000000000000000000000000000000000020000000000000000000000000000000000000000000000000000000000000000000000000000000000000000000000000000000000000000000000000000000030000000000000000000000000000000000000000000000000000000000000000000000000000000000000000000000000000000000000000000000000000000000000000000000000000000000000000000000000000000000000000000000c000000000000000000000000000000000000000000000000000000000000001400000000000000000000000000000000000000000000000000000000000000003000000000000000000000000264fe346fcd0a89e3b41a6499bac80dea7e908d2000000000000000000000000a8c83febab692d6f08cfa303e5d53b3b34f9046d000000000000000000000000f4da94b4ee9d8e209e3bf9f469221ce2731a71120000000000000000000000000000000000000000000000000000000000000000",
        "nonce": "0x5f",
        "chainId": "0xab5",
        "zksync": {
          "factoryDeps": [],
          "paymasterData": null
        }
      },
      "additionalContracts": [],
      "isFixedGasLimit": false
    },
    {
      "hash": null,
      "transactionType": "CALL",
      "contractName": null,
      "contractAddress": "0x5c6cff4b7c49805f8295ff73c204ac83f3bc4ae7",
      "function": "setConfig(address,address,(uint32,uint32,bytes)[])",
      "arguments": [
        "0xBd39033994F5324Fe8D50bB524396A78ff9dFe22",
        "0x9d799c1935c51CA399e6465Ed9841DEbCcEc413E",
        "[(30158, 2, 0x0000000000000000000000000000000000000000000000000000000000000020000000000000000000000000000000000000000000000000000000000000000000000000000000000000000000000000000000000000000000000000000000030000000000000000000000000000000000000000000000000000000000000000000000000000000000000000000000000000000000000000000000000000000000000000000000000000000000000000000000000000000000000000000000c000000000000000000000000000000000000000000000000000000000000001400000000000000000000000000000000000000000000000000000000000000003000000000000000000000000264fe346fcd0a89e3b41a6499bac80dea7e908d2000000000000000000000000a8c83febab692d6f08cfa303e5d53b3b34f9046d000000000000000000000000f4da94b4ee9d8e209e3bf9f469221ce2731a71120000000000000000000000000000000000000000000000000000000000000000)]"
      ],
      "transaction": {
        "from": "0x45dce8e4f2dc005a5f28206a46cb034697eeda8e",
        "to": "0x5c6cff4b7c49805f8295ff73c204ac83f3bc4ae7",
        "gas": "0x61ca9",
        "value": "0x0",
        "input": "0x6dbd9f90000000000000000000000000bd39033994f5324fe8d50bb524396a78ff9dfe220000000000000000000000009d799c1935c51ca399e6465ed9841debccec413e00000000000000000000000000000000000000000000000000000000000000600000000000000000000000000000000000000000000000000000000000000001000000000000000000000000000000000000000000000000000000000000002000000000000000000000000000000000000000000000000000000000000075ce0000000000000000000000000000000000000000000000000000000000000002000000000000000000000000000000000000000000000000000000000000006000000000000000000000000000000000000000000000000000000000000001800000000000000000000000000000000000000000000000000000000000000020000000000000000000000000000000000000000000000000000000000000000000000000000000000000000000000000000000000000000000000000000000030000000000000000000000000000000000000000000000000000000000000000000000000000000000000000000000000000000000000000000000000000000000000000000000000000000000000000000000000000000000000000000000c000000000000000000000000000000000000000000000000000000000000001400000000000000000000000000000000000000000000000000000000000000003000000000000000000000000264fe346fcd0a89e3b41a6499bac80dea7e908d2000000000000000000000000a8c83febab692d6f08cfa303e5d53b3b34f9046d000000000000000000000000f4da94b4ee9d8e209e3bf9f469221ce2731a71120000000000000000000000000000000000000000000000000000000000000000",
        "nonce": "0x60",
        "chainId": "0xab5",
        "zksync": {
          "factoryDeps": [],
          "paymasterData": null
        }
      },
      "additionalContracts": [],
      "isFixedGasLimit": false
    },
    {
      "hash": null,
      "transactionType": "CALL",
      "contractName": null,
      "contractAddress": "0x5c6cff4b7c49805f8295ff73c204ac83f3bc4ae7",
      "function": "setConfig(address,address,(uint32,uint32,bytes)[])",
      "arguments": [
        "0xBd39033994F5324Fe8D50bB524396A78ff9dFe22",
        "0x166CAb679EBDB0853055522D3B523621b94029a1",
        "[(30362, 2, 0x0000000000000000000000000000000000000000000000000000000000000020000000000000000000000000000000000000000000000000000000000000000000000000000000000000000000000000000000000000000000000000000000030000000000000000000000000000000000000000000000000000000000000000000000000000000000000000000000000000000000000000000000000000000000000000000000000000000000000000000000000000000000000000000000c000000000000000000000000000000000000000000000000000000000000001400000000000000000000000000000000000000000000000000000000000000003000000000000000000000000264fe346fcd0a89e3b41a6499bac80dea7e908d2000000000000000000000000a8c83febab692d6f08cfa303e5d53b3b34f9046d000000000000000000000000f4da94b4ee9d8e209e3bf9f469221ce2731a71120000000000000000000000000000000000000000000000000000000000000000)]"
      ],
      "transaction": {
        "from": "0x45dce8e4f2dc005a5f28206a46cb034697eeda8e",
        "to": "0x5c6cff4b7c49805f8295ff73c204ac83f3bc4ae7",
        "gas": "0x63e40",
        "value": "0x0",
        "input": "0x6dbd9f90000000000000000000000000bd39033994f5324fe8d50bb524396a78ff9dfe22000000000000000000000000166cab679ebdb0853055522d3b523621b94029a1000000000000000000000000000000000000000000000000000000000000006000000000000000000000000000000000000000000000000000000000000000010000000000000000000000000000000000000000000000000000000000000020000000000000000000000000000000000000000000000000000000000000769a0000000000000000000000000000000000000000000000000000000000000002000000000000000000000000000000000000000000000000000000000000006000000000000000000000000000000000000000000000000000000000000001800000000000000000000000000000000000000000000000000000000000000020000000000000000000000000000000000000000000000000000000000000000000000000000000000000000000000000000000000000000000000000000000030000000000000000000000000000000000000000000000000000000000000000000000000000000000000000000000000000000000000000000000000000000000000000000000000000000000000000000000000000000000000000000000c000000000000000000000000000000000000000000000000000000000000001400000000000000000000000000000000000000000000000000000000000000003000000000000000000000000264fe346fcd0a89e3b41a6499bac80dea7e908d2000000000000000000000000a8c83febab692d6f08cfa303e5d53b3b34f9046d000000000000000000000000f4da94b4ee9d8e209e3bf9f469221ce2731a71120000000000000000000000000000000000000000000000000000000000000000",
        "nonce": "0x61",
        "chainId": "0xab5",
        "zksync": {
          "factoryDeps": [],
          "paymasterData": null
        }
      },
      "additionalContracts": [],
      "isFixedGasLimit": false
    },
    {
      "hash": null,
      "transactionType": "CALL",
      "contractName": null,
      "contractAddress": "0x5c6cff4b7c49805f8295ff73c204ac83f3bc4ae7",
      "function": "setConfig(address,address,(uint32,uint32,bytes)[])",
      "arguments": [
        "0xBd39033994F5324Fe8D50bB524396A78ff9dFe22",
        "0x9d799c1935c51CA399e6465Ed9841DEbCcEc413E",
        "[(30362, 2, 0x0000000000000000000000000000000000000000000000000000000000000020000000000000000000000000000000000000000000000000000000000000000000000000000000000000000000000000000000000000000000000000000000030000000000000000000000000000000000000000000000000000000000000000000000000000000000000000000000000000000000000000000000000000000000000000000000000000000000000000000000000000000000000000000000c000000000000000000000000000000000000000000000000000000000000001400000000000000000000000000000000000000000000000000000000000000003000000000000000000000000264fe346fcd0a89e3b41a6499bac80dea7e908d2000000000000000000000000a8c83febab692d6f08cfa303e5d53b3b34f9046d000000000000000000000000f4da94b4ee9d8e209e3bf9f469221ce2731a71120000000000000000000000000000000000000000000000000000000000000000)]"
      ],
      "transaction": {
        "from": "0x45dce8e4f2dc005a5f28206a46cb034697eeda8e",
        "to": "0x5c6cff4b7c49805f8295ff73c204ac83f3bc4ae7",
        "gas": "0x61ca9",
        "value": "0x0",
        "input": "0x6dbd9f90000000000000000000000000bd39033994f5324fe8d50bb524396a78ff9dfe220000000000000000000000009d799c1935c51ca399e6465ed9841debccec413e000000000000000000000000000000000000000000000000000000000000006000000000000000000000000000000000000000000000000000000000000000010000000000000000000000000000000000000000000000000000000000000020000000000000000000000000000000000000000000000000000000000000769a0000000000000000000000000000000000000000000000000000000000000002000000000000000000000000000000000000000000000000000000000000006000000000000000000000000000000000000000000000000000000000000001800000000000000000000000000000000000000000000000000000000000000020000000000000000000000000000000000000000000000000000000000000000000000000000000000000000000000000000000000000000000000000000000030000000000000000000000000000000000000000000000000000000000000000000000000000000000000000000000000000000000000000000000000000000000000000000000000000000000000000000000000000000000000000000000c000000000000000000000000000000000000000000000000000000000000001400000000000000000000000000000000000000000000000000000000000000003000000000000000000000000264fe346fcd0a89e3b41a6499bac80dea7e908d2000000000000000000000000a8c83febab692d6f08cfa303e5d53b3b34f9046d000000000000000000000000f4da94b4ee9d8e209e3bf9f469221ce2731a71120000000000000000000000000000000000000000000000000000000000000000",
        "nonce": "0x62",
        "chainId": "0xab5",
        "zksync": {
          "factoryDeps": [],
          "paymasterData": null
        }
      },
      "additionalContracts": [],
      "isFixedGasLimit": false
    },
    {
      "hash": null,
      "transactionType": "CALL",
      "contractName": null,
      "contractAddress": "0x5c6cff4b7c49805f8295ff73c204ac83f3bc4ae7",
      "function": "setConfig(address,address,(uint32,uint32,bytes)[])",
      "arguments": [
        "0xBd39033994F5324Fe8D50bB524396A78ff9dFe22",
        "0x166CAb679EBDB0853055522D3B523621b94029a1",
        "[(30183, 2, 0x0000000000000000000000000000000000000000000000000000000000000020000000000000000000000000000000000000000000000000000000000000000000000000000000000000000000000000000000000000000000000000000000030000000000000000000000000000000000000000000000000000000000000000000000000000000000000000000000000000000000000000000000000000000000000000000000000000000000000000000000000000000000000000000000c000000000000000000000000000000000000000000000000000000000000001400000000000000000000000000000000000000000000000000000000000000003000000000000000000000000264fe346fcd0a89e3b41a6499bac80dea7e908d2000000000000000000000000a8c83febab692d6f08cfa303e5d53b3b34f9046d000000000000000000000000f4da94b4ee9d8e209e3bf9f469221ce2731a71120000000000000000000000000000000000000000000000000000000000000000)]"
      ],
      "transaction": {
        "from": "0x45dce8e4f2dc005a5f28206a46cb034697eeda8e",
        "to": "0x5c6cff4b7c49805f8295ff73c204ac83f3bc4ae7",
        "gas": "0x63e40",
        "value": "0x0",
        "input": "0x6dbd9f90000000000000000000000000bd39033994f5324fe8d50bb524396a78ff9dfe22000000000000000000000000166cab679ebdb0853055522d3b523621b94029a100000000000000000000000000000000000000000000000000000000000000600000000000000000000000000000000000000000000000000000000000000001000000000000000000000000000000000000000000000000000000000000002000000000000000000000000000000000000000000000000000000000000075e70000000000000000000000000000000000000000000000000000000000000002000000000000000000000000000000000000000000000000000000000000006000000000000000000000000000000000000000000000000000000000000001800000000000000000000000000000000000000000000000000000000000000020000000000000000000000000000000000000000000000000000000000000000000000000000000000000000000000000000000000000000000000000000000030000000000000000000000000000000000000000000000000000000000000000000000000000000000000000000000000000000000000000000000000000000000000000000000000000000000000000000000000000000000000000000000c000000000000000000000000000000000000000000000000000000000000001400000000000000000000000000000000000000000000000000000000000000003000000000000000000000000264fe346fcd0a89e3b41a6499bac80dea7e908d2000000000000000000000000a8c83febab692d6f08cfa303e5d53b3b34f9046d000000000000000000000000f4da94b4ee9d8e209e3bf9f469221ce2731a71120000000000000000000000000000000000000000000000000000000000000000",
        "nonce": "0x63",
        "chainId": "0xab5",
        "zksync": {
          "factoryDeps": [],
          "paymasterData": null
        }
      },
      "additionalContracts": [],
      "isFixedGasLimit": false
    },
    {
      "hash": null,
      "transactionType": "CALL",
      "contractName": null,
      "contractAddress": "0x5c6cff4b7c49805f8295ff73c204ac83f3bc4ae7",
      "function": "setConfig(address,address,(uint32,uint32,bytes)[])",
      "arguments": [
        "0xBd39033994F5324Fe8D50bB524396A78ff9dFe22",
        "0x9d799c1935c51CA399e6465Ed9841DEbCcEc413E",
        "[(30183, 2, 0x0000000000000000000000000000000000000000000000000000000000000020000000000000000000000000000000000000000000000000000000000000000000000000000000000000000000000000000000000000000000000000000000030000000000000000000000000000000000000000000000000000000000000000000000000000000000000000000000000000000000000000000000000000000000000000000000000000000000000000000000000000000000000000000000c000000000000000000000000000000000000000000000000000000000000001400000000000000000000000000000000000000000000000000000000000000003000000000000000000000000264fe346fcd0a89e3b41a6499bac80dea7e908d2000000000000000000000000a8c83febab692d6f08cfa303e5d53b3b34f9046d000000000000000000000000f4da94b4ee9d8e209e3bf9f469221ce2731a71120000000000000000000000000000000000000000000000000000000000000000)]"
      ],
      "transaction": {
        "from": "0x45dce8e4f2dc005a5f28206a46cb034697eeda8e",
        "to": "0x5c6cff4b7c49805f8295ff73c204ac83f3bc4ae7",
        "gas": "0x61ca9",
        "value": "0x0",
        "input": "0x6dbd9f90000000000000000000000000bd39033994f5324fe8d50bb524396a78ff9dfe220000000000000000000000009d799c1935c51ca399e6465ed9841debccec413e00000000000000000000000000000000000000000000000000000000000000600000000000000000000000000000000000000000000000000000000000000001000000000000000000000000000000000000000000000000000000000000002000000000000000000000000000000000000000000000000000000000000075e70000000000000000000000000000000000000000000000000000000000000002000000000000000000000000000000000000000000000000000000000000006000000000000000000000000000000000000000000000000000000000000001800000000000000000000000000000000000000000000000000000000000000020000000000000000000000000000000000000000000000000000000000000000000000000000000000000000000000000000000000000000000000000000000030000000000000000000000000000000000000000000000000000000000000000000000000000000000000000000000000000000000000000000000000000000000000000000000000000000000000000000000000000000000000000000000c000000000000000000000000000000000000000000000000000000000000001400000000000000000000000000000000000000000000000000000000000000003000000000000000000000000264fe346fcd0a89e3b41a6499bac80dea7e908d2000000000000000000000000a8c83febab692d6f08cfa303e5d53b3b34f9046d000000000000000000000000f4da94b4ee9d8e209e3bf9f469221ce2731a71120000000000000000000000000000000000000000000000000000000000000000",
        "nonce": "0x64",
        "chainId": "0xab5",
        "zksync": {
          "factoryDeps": [],
          "paymasterData": null
        }
      },
      "additionalContracts": [],
      "isFixedGasLimit": false
    },
    {
      "hash": null,
      "transactionType": "CALL",
      "contractName": null,
      "contractAddress": "0x5c6cff4b7c49805f8295ff73c204ac83f3bc4ae7",
      "function": "setConfig(address,address,(uint32,uint32,bytes)[])",
      "arguments": [
        "0xBd39033994F5324Fe8D50bB524396A78ff9dFe22",
        "0x166CAb679EBDB0853055522D3B523621b94029a1",
        "[(30319, 2, 0x0000000000000000000000000000000000000000000000000000000000000020000000000000000000000000000000000000000000000000000000000000000000000000000000000000000000000000000000000000000000000000000000030000000000000000000000000000000000000000000000000000000000000000000000000000000000000000000000000000000000000000000000000000000000000000000000000000000000000000000000000000000000000000000000c000000000000000000000000000000000000000000000000000000000000001400000000000000000000000000000000000000000000000000000000000000003000000000000000000000000264fe346fcd0a89e3b41a6499bac80dea7e908d2000000000000000000000000a8c83febab692d6f08cfa303e5d53b3b34f9046d000000000000000000000000f4da94b4ee9d8e209e3bf9f469221ce2731a71120000000000000000000000000000000000000000000000000000000000000000)]"
      ],
      "transaction": {
        "from": "0x45dce8e4f2dc005a5f28206a46cb034697eeda8e",
        "to": "0x5c6cff4b7c49805f8295ff73c204ac83f3bc4ae7",
        "gas": "0x63e40",
        "value": "0x0",
        "input": "0x6dbd9f90000000000000000000000000bd39033994f5324fe8d50bb524396a78ff9dfe22000000000000000000000000166cab679ebdb0853055522d3b523621b94029a1000000000000000000000000000000000000000000000000000000000000006000000000000000000000000000000000000000000000000000000000000000010000000000000000000000000000000000000000000000000000000000000020000000000000000000000000000000000000000000000000000000000000766f0000000000000000000000000000000000000000000000000000000000000002000000000000000000000000000000000000000000000000000000000000006000000000000000000000000000000000000000000000000000000000000001800000000000000000000000000000000000000000000000000000000000000020000000000000000000000000000000000000000000000000000000000000000000000000000000000000000000000000000000000000000000000000000000030000000000000000000000000000000000000000000000000000000000000000000000000000000000000000000000000000000000000000000000000000000000000000000000000000000000000000000000000000000000000000000000c000000000000000000000000000000000000000000000000000000000000001400000000000000000000000000000000000000000000000000000000000000003000000000000000000000000264fe346fcd0a89e3b41a6499bac80dea7e908d2000000000000000000000000a8c83febab692d6f08cfa303e5d53b3b34f9046d000000000000000000000000f4da94b4ee9d8e209e3bf9f469221ce2731a71120000000000000000000000000000000000000000000000000000000000000000",
        "nonce": "0x65",
        "chainId": "0xab5",
        "zksync": {
          "factoryDeps": [],
          "paymasterData": null
        }
      },
      "additionalContracts": [],
      "isFixedGasLimit": false
    },
    {
      "hash": null,
      "transactionType": "CALL",
      "contractName": null,
      "contractAddress": "0x5c6cff4b7c49805f8295ff73c204ac83f3bc4ae7",
      "function": "setConfig(address,address,(uint32,uint32,bytes)[])",
      "arguments": [
        "0xBd39033994F5324Fe8D50bB524396A78ff9dFe22",
        "0x9d799c1935c51CA399e6465Ed9841DEbCcEc413E",
        "[(30319, 2, 0x0000000000000000000000000000000000000000000000000000000000000020000000000000000000000000000000000000000000000000000000000000000000000000000000000000000000000000000000000000000000000000000000030000000000000000000000000000000000000000000000000000000000000000000000000000000000000000000000000000000000000000000000000000000000000000000000000000000000000000000000000000000000000000000000c000000000000000000000000000000000000000000000000000000000000001400000000000000000000000000000000000000000000000000000000000000003000000000000000000000000264fe346fcd0a89e3b41a6499bac80dea7e908d2000000000000000000000000a8c83febab692d6f08cfa303e5d53b3b34f9046d000000000000000000000000f4da94b4ee9d8e209e3bf9f469221ce2731a71120000000000000000000000000000000000000000000000000000000000000000)]"
      ],
      "transaction": {
        "from": "0x45dce8e4f2dc005a5f28206a46cb034697eeda8e",
        "to": "0x5c6cff4b7c49805f8295ff73c204ac83f3bc4ae7",
        "gas": "0x61ca9",
        "value": "0x0",
        "input": "0x6dbd9f90000000000000000000000000bd39033994f5324fe8d50bb524396a78ff9dfe220000000000000000000000009d799c1935c51ca399e6465ed9841debccec413e000000000000000000000000000000000000000000000000000000000000006000000000000000000000000000000000000000000000000000000000000000010000000000000000000000000000000000000000000000000000000000000020000000000000000000000000000000000000000000000000000000000000766f0000000000000000000000000000000000000000000000000000000000000002000000000000000000000000000000000000000000000000000000000000006000000000000000000000000000000000000000000000000000000000000001800000000000000000000000000000000000000000000000000000000000000020000000000000000000000000000000000000000000000000000000000000000000000000000000000000000000000000000000000000000000000000000000030000000000000000000000000000000000000000000000000000000000000000000000000000000000000000000000000000000000000000000000000000000000000000000000000000000000000000000000000000000000000000000000c000000000000000000000000000000000000000000000000000000000000001400000000000000000000000000000000000000000000000000000000000000003000000000000000000000000264fe346fcd0a89e3b41a6499bac80dea7e908d2000000000000000000000000a8c83febab692d6f08cfa303e5d53b3b34f9046d000000000000000000000000f4da94b4ee9d8e209e3bf9f469221ce2731a71120000000000000000000000000000000000000000000000000000000000000000",
        "nonce": "0x66",
        "chainId": "0xab5",
        "zksync": {
          "factoryDeps": [],
          "paymasterData": null
        }
      },
      "additionalContracts": [],
      "isFixedGasLimit": false
    },
    {
      "hash": null,
      "transactionType": "CALL",
      "contractName": null,
      "contractAddress": "0x5c6cff4b7c49805f8295ff73c204ac83f3bc4ae7",
      "function": "setConfig(address,address,(uint32,uint32,bytes)[])",
      "arguments": [
        "0xBd39033994F5324Fe8D50bB524396A78ff9dFe22",
        "0x166CAb679EBDB0853055522D3B523621b94029a1",
        "[(30165, 2, 0x0000000000000000000000000000000000000000000000000000000000000020000000000000000000000000000000000000000000000000000000000000000000000000000000000000000000000000000000000000000000000000000000030000000000000000000000000000000000000000000000000000000000000000000000000000000000000000000000000000000000000000000000000000000000000000000000000000000000000000000000000000000000000000000000c000000000000000000000000000000000000000000000000000000000000001400000000000000000000000000000000000000000000000000000000000000003000000000000000000000000264fe346fcd0a89e3b41a6499bac80dea7e908d2000000000000000000000000a8c83febab692d6f08cfa303e5d53b3b34f9046d000000000000000000000000f4da94b4ee9d8e209e3bf9f469221ce2731a71120000000000000000000000000000000000000000000000000000000000000000)]"
      ],
      "transaction": {
        "from": "0x45dce8e4f2dc005a5f28206a46cb034697eeda8e",
        "to": "0x5c6cff4b7c49805f8295ff73c204ac83f3bc4ae7",
        "gas": "0x63e40",
        "value": "0x0",
        "input": "0x6dbd9f90000000000000000000000000bd39033994f5324fe8d50bb524396a78ff9dfe22000000000000000000000000166cab679ebdb0853055522d3b523621b94029a100000000000000000000000000000000000000000000000000000000000000600000000000000000000000000000000000000000000000000000000000000001000000000000000000000000000000000000000000000000000000000000002000000000000000000000000000000000000000000000000000000000000075d50000000000000000000000000000000000000000000000000000000000000002000000000000000000000000000000000000000000000000000000000000006000000000000000000000000000000000000000000000000000000000000001800000000000000000000000000000000000000000000000000000000000000020000000000000000000000000000000000000000000000000000000000000000000000000000000000000000000000000000000000000000000000000000000030000000000000000000000000000000000000000000000000000000000000000000000000000000000000000000000000000000000000000000000000000000000000000000000000000000000000000000000000000000000000000000000c000000000000000000000000000000000000000000000000000000000000001400000000000000000000000000000000000000000000000000000000000000003000000000000000000000000264fe346fcd0a89e3b41a6499bac80dea7e908d2000000000000000000000000a8c83febab692d6f08cfa303e5d53b3b34f9046d000000000000000000000000f4da94b4ee9d8e209e3bf9f469221ce2731a71120000000000000000000000000000000000000000000000000000000000000000",
        "nonce": "0x67",
        "chainId": "0xab5",
        "zksync": {
          "factoryDeps": [],
          "paymasterData": null
        }
      },
      "additionalContracts": [],
      "isFixedGasLimit": false
    },
    {
      "hash": null,
      "transactionType": "CALL",
      "contractName": null,
      "contractAddress": "0x5c6cff4b7c49805f8295ff73c204ac83f3bc4ae7",
      "function": "setConfig(address,address,(uint32,uint32,bytes)[])",
      "arguments": [
        "0xBd39033994F5324Fe8D50bB524396A78ff9dFe22",
        "0x9d799c1935c51CA399e6465Ed9841DEbCcEc413E",
        "[(30165, 2, 0x0000000000000000000000000000000000000000000000000000000000000020000000000000000000000000000000000000000000000000000000000000000000000000000000000000000000000000000000000000000000000000000000030000000000000000000000000000000000000000000000000000000000000000000000000000000000000000000000000000000000000000000000000000000000000000000000000000000000000000000000000000000000000000000000c000000000000000000000000000000000000000000000000000000000000001400000000000000000000000000000000000000000000000000000000000000003000000000000000000000000264fe346fcd0a89e3b41a6499bac80dea7e908d2000000000000000000000000a8c83febab692d6f08cfa303e5d53b3b34f9046d000000000000000000000000f4da94b4ee9d8e209e3bf9f469221ce2731a71120000000000000000000000000000000000000000000000000000000000000000)]"
      ],
      "transaction": {
        "from": "0x45dce8e4f2dc005a5f28206a46cb034697eeda8e",
        "to": "0x5c6cff4b7c49805f8295ff73c204ac83f3bc4ae7",
        "gas": "0x61ca9",
        "value": "0x0",
        "input": "0x6dbd9f90000000000000000000000000bd39033994f5324fe8d50bb524396a78ff9dfe220000000000000000000000009d799c1935c51ca399e6465ed9841debccec413e00000000000000000000000000000000000000000000000000000000000000600000000000000000000000000000000000000000000000000000000000000001000000000000000000000000000000000000000000000000000000000000002000000000000000000000000000000000000000000000000000000000000075d50000000000000000000000000000000000000000000000000000000000000002000000000000000000000000000000000000000000000000000000000000006000000000000000000000000000000000000000000000000000000000000001800000000000000000000000000000000000000000000000000000000000000020000000000000000000000000000000000000000000000000000000000000000000000000000000000000000000000000000000000000000000000000000000030000000000000000000000000000000000000000000000000000000000000000000000000000000000000000000000000000000000000000000000000000000000000000000000000000000000000000000000000000000000000000000000c000000000000000000000000000000000000000000000000000000000000001400000000000000000000000000000000000000000000000000000000000000003000000000000000000000000264fe346fcd0a89e3b41a6499bac80dea7e908d2000000000000000000000000a8c83febab692d6f08cfa303e5d53b3b34f9046d000000000000000000000000f4da94b4ee9d8e209e3bf9f469221ce2731a71120000000000000000000000000000000000000000000000000000000000000000",
        "nonce": "0x68",
        "chainId": "0xab5",
        "zksync": {
          "factoryDeps": [],
          "paymasterData": null
        }
      },
      "additionalContracts": [],
      "isFixedGasLimit": false
    },
    {
      "hash": null,
      "transactionType": "CALL",
      "contractName": null,
      "contractAddress": "0x5c6cff4b7c49805f8295ff73c204ac83f3bc4ae7",
      "function": "setSendLibrary(address,uint32,address)",
      "arguments": [
        "0xBd39033994F5324Fe8D50bB524396A78ff9dFe22",
        "30101",
        "0x166CAb679EBDB0853055522D3B523621b94029a1"
      ],
      "transaction": {
        "from": "0x45dce8e4f2dc005a5f28206a46cb034697eeda8e",
        "to": "0x5c6cff4b7c49805f8295ff73c204ac83f3bc4ae7",
        "gas": "0x38dec",
        "value": "0x0",
        "input": "0x9535ff30000000000000000000000000bd39033994f5324fe8d50bb524396a78ff9dfe220000000000000000000000000000000000000000000000000000000000007595000000000000000000000000166cab679ebdb0853055522d3b523621b94029a1",
        "nonce": "0x69",
        "chainId": "0xab5",
        "zksync": {
          "factoryDeps": [],
          "paymasterData": null
        }
      },
      "additionalContracts": [],
      "isFixedGasLimit": false
    },
    {
      "hash": null,
      "transactionType": "CALL",
      "contractName": null,
      "contractAddress": "0x5c6cff4b7c49805f8295ff73c204ac83f3bc4ae7",
      "function": "setReceiveLibrary(address,uint32,address,uint256)",
      "arguments": [
        "0xBd39033994F5324Fe8D50bB524396A78ff9dFe22",
        "30101",
        "0x9d799c1935c51CA399e6465Ed9841DEbCcEc413E",
        "0"
      ],
      "transaction": {
        "from": "0x45dce8e4f2dc005a5f28206a46cb034697eeda8e",
        "to": "0x5c6cff4b7c49805f8295ff73c204ac83f3bc4ae7",
        "gas": "0x3b373",
        "value": "0x0",
        "input": "0x6a14d715000000000000000000000000bd39033994f5324fe8d50bb524396a78ff9dfe2200000000000000000000000000000000000000000000000000000000000075950000000000000000000000009d799c1935c51ca399e6465ed9841debccec413e0000000000000000000000000000000000000000000000000000000000000000",
        "nonce": "0x6a",
        "chainId": "0xab5",
        "zksync": {
          "factoryDeps": [],
          "paymasterData": null
        }
      },
      "additionalContracts": [],
      "isFixedGasLimit": false
    },
    {
      "hash": null,
      "transactionType": "CALL",
      "contractName": null,
      "contractAddress": "0x5c6cff4b7c49805f8295ff73c204ac83f3bc4ae7",
      "function": "setSendLibrary(address,uint32,address)",
      "arguments": [
        "0xBd39033994F5324Fe8D50bB524396A78ff9dFe22",
        "30243",
        "0x166CAb679EBDB0853055522D3B523621b94029a1"
      ],
      "transaction": {
        "from": "0x45dce8e4f2dc005a5f28206a46cb034697eeda8e",
        "to": "0x5c6cff4b7c49805f8295ff73c204ac83f3bc4ae7",
        "gas": "0x38dec",
        "value": "0x0",
        "input": "0x9535ff30000000000000000000000000bd39033994f5324fe8d50bb524396a78ff9dfe220000000000000000000000000000000000000000000000000000000000007623000000000000000000000000166cab679ebdb0853055522d3b523621b94029a1",
        "nonce": "0x6b",
        "chainId": "0xab5",
        "zksync": {
          "factoryDeps": [],
          "paymasterData": null
        }
      },
      "additionalContracts": [],
      "isFixedGasLimit": false
    },
    {
      "hash": null,
      "transactionType": "CALL",
      "contractName": null,
      "contractAddress": "0x5c6cff4b7c49805f8295ff73c204ac83f3bc4ae7",
      "function": "setReceiveLibrary(address,uint32,address,uint256)",
      "arguments": [
        "0xBd39033994F5324Fe8D50bB524396A78ff9dFe22",
        "30243",
        "0x9d799c1935c51CA399e6465Ed9841DEbCcEc413E",
        "0"
      ],
      "transaction": {
        "from": "0x45dce8e4f2dc005a5f28206a46cb034697eeda8e",
        "to": "0x5c6cff4b7c49805f8295ff73c204ac83f3bc4ae7",
        "gas": "0x3b373",
        "value": "0x0",
        "input": "0x6a14d715000000000000000000000000bd39033994f5324fe8d50bb524396a78ff9dfe2200000000000000000000000000000000000000000000000000000000000076230000000000000000000000009d799c1935c51ca399e6465ed9841debccec413e0000000000000000000000000000000000000000000000000000000000000000",
        "nonce": "0x6c",
        "chainId": "0xab5",
        "zksync": {
          "factoryDeps": [],
          "paymasterData": null
        }
      },
      "additionalContracts": [],
      "isFixedGasLimit": false
    },
    {
      "hash": null,
      "transactionType": "CALL",
      "contractName": null,
      "contractAddress": "0x5c6cff4b7c49805f8295ff73c204ac83f3bc4ae7",
      "function": "setSendLibrary(address,uint32,address)",
      "arguments": [
        "0xBd39033994F5324Fe8D50bB524396A78ff9dFe22",
        "30184",
        "0x166CAb679EBDB0853055522D3B523621b94029a1"
      ],
      "transaction": {
        "from": "0x45dce8e4f2dc005a5f28206a46cb034697eeda8e",
        "to": "0x5c6cff4b7c49805f8295ff73c204ac83f3bc4ae7",
        "gas": "0x38dec",
        "value": "0x0",
        "input": "0x9535ff30000000000000000000000000bd39033994f5324fe8d50bb524396a78ff9dfe2200000000000000000000000000000000000000000000000000000000000075e8000000000000000000000000166cab679ebdb0853055522d3b523621b94029a1",
        "nonce": "0x6d",
        "chainId": "0xab5",
        "zksync": {
          "factoryDeps": [],
          "paymasterData": null
        }
      },
      "additionalContracts": [],
      "isFixedGasLimit": false
    },
    {
      "hash": null,
      "transactionType": "CALL",
      "contractName": null,
      "contractAddress": "0x5c6cff4b7c49805f8295ff73c204ac83f3bc4ae7",
      "function": "setReceiveLibrary(address,uint32,address,uint256)",
      "arguments": [
        "0xBd39033994F5324Fe8D50bB524396A78ff9dFe22",
        "30184",
        "0x9d799c1935c51CA399e6465Ed9841DEbCcEc413E",
        "0"
      ],
      "transaction": {
        "from": "0x45dce8e4f2dc005a5f28206a46cb034697eeda8e",
        "to": "0x5c6cff4b7c49805f8295ff73c204ac83f3bc4ae7",
        "gas": "0x3b373",
        "value": "0x0",
        "input": "0x6a14d715000000000000000000000000bd39033994f5324fe8d50bb524396a78ff9dfe2200000000000000000000000000000000000000000000000000000000000075e80000000000000000000000009d799c1935c51ca399e6465ed9841debccec413e0000000000000000000000000000000000000000000000000000000000000000",
        "nonce": "0x6e",
        "chainId": "0xab5",
        "zksync": {
          "factoryDeps": [],
          "paymasterData": null
        }
      },
      "additionalContracts": [],
      "isFixedGasLimit": false
    },
    {
      "hash": null,
      "transactionType": "CALL",
      "contractName": null,
      "contractAddress": "0x5c6cff4b7c49805f8295ff73c204ac83f3bc4ae7",
      "function": "setSendLibrary(address,uint32,address)",
      "arguments": [
        "0xBd39033994F5324Fe8D50bB524396A78ff9dFe22",
        "30260",
        "0x166CAb679EBDB0853055522D3B523621b94029a1"
      ],
      "transaction": {
        "from": "0x45dce8e4f2dc005a5f28206a46cb034697eeda8e",
        "to": "0x5c6cff4b7c49805f8295ff73c204ac83f3bc4ae7",
        "gas": "0x38dec",
        "value": "0x0",
        "input": "0x9535ff30000000000000000000000000bd39033994f5324fe8d50bb524396a78ff9dfe220000000000000000000000000000000000000000000000000000000000007634000000000000000000000000166cab679ebdb0853055522d3b523621b94029a1",
        "nonce": "0x6f",
        "chainId": "0xab5",
        "zksync": {
          "factoryDeps": [],
          "paymasterData": null
        }
      },
      "additionalContracts": [],
      "isFixedGasLimit": false
    },
    {
      "hash": null,
      "transactionType": "CALL",
      "contractName": null,
      "contractAddress": "0x5c6cff4b7c49805f8295ff73c204ac83f3bc4ae7",
      "function": "setReceiveLibrary(address,uint32,address,uint256)",
      "arguments": [
        "0xBd39033994F5324Fe8D50bB524396A78ff9dFe22",
        "30260",
        "0x9d799c1935c51CA399e6465Ed9841DEbCcEc413E",
        "0"
      ],
      "transaction": {
        "from": "0x45dce8e4f2dc005a5f28206a46cb034697eeda8e",
        "to": "0x5c6cff4b7c49805f8295ff73c204ac83f3bc4ae7",
        "gas": "0x3b373",
        "value": "0x0",
        "input": "0x6a14d715000000000000000000000000bd39033994f5324fe8d50bb524396a78ff9dfe2200000000000000000000000000000000000000000000000000000000000076340000000000000000000000009d799c1935c51ca399e6465ed9841debccec413e0000000000000000000000000000000000000000000000000000000000000000",
        "nonce": "0x70",
        "chainId": "0xab5",
        "zksync": {
          "factoryDeps": [],
          "paymasterData": null
        }
      },
      "additionalContracts": [],
      "isFixedGasLimit": false
    },
    {
      "hash": null,
      "transactionType": "CALL",
      "contractName": null,
      "contractAddress": "0x5c6cff4b7c49805f8295ff73c204ac83f3bc4ae7",
      "function": "setSendLibrary(address,uint32,address)",
      "arguments": [
        "0xBd39033994F5324Fe8D50bB524396A78ff9dFe22",
        "30280",
        "0x166CAb679EBDB0853055522D3B523621b94029a1"
      ],
      "transaction": {
        "from": "0x45dce8e4f2dc005a5f28206a46cb034697eeda8e",
        "to": "0x5c6cff4b7c49805f8295ff73c204ac83f3bc4ae7",
        "gas": "0x38dec",
        "value": "0x0",
        "input": "0x9535ff30000000000000000000000000bd39033994f5324fe8d50bb524396a78ff9dfe220000000000000000000000000000000000000000000000000000000000007648000000000000000000000000166cab679ebdb0853055522d3b523621b94029a1",
        "nonce": "0x71",
        "chainId": "0xab5",
        "zksync": {
          "factoryDeps": [],
          "paymasterData": null
        }
      },
      "additionalContracts": [],
      "isFixedGasLimit": false
    },
    {
      "hash": null,
      "transactionType": "CALL",
      "contractName": null,
      "contractAddress": "0x5c6cff4b7c49805f8295ff73c204ac83f3bc4ae7",
      "function": "setReceiveLibrary(address,uint32,address,uint256)",
      "arguments": [
        "0xBd39033994F5324Fe8D50bB524396A78ff9dFe22",
        "30280",
        "0x9d799c1935c51CA399e6465Ed9841DEbCcEc413E",
        "0"
      ],
      "transaction": {
        "from": "0x45dce8e4f2dc005a5f28206a46cb034697eeda8e",
        "to": "0x5c6cff4b7c49805f8295ff73c204ac83f3bc4ae7",
        "gas": "0x3b373",
        "value": "0x0",
        "input": "0x6a14d715000000000000000000000000bd39033994f5324fe8d50bb524396a78ff9dfe2200000000000000000000000000000000000000000000000000000000000076480000000000000000000000009d799c1935c51ca399e6465ed9841debccec413e0000000000000000000000000000000000000000000000000000000000000000",
        "nonce": "0x72",
        "chainId": "0xab5",
        "zksync": {
          "factoryDeps": [],
          "paymasterData": null
        }
      },
      "additionalContracts": [],
      "isFixedGasLimit": false
    },
    {
      "hash": null,
      "transactionType": "CALL",
      "contractName": null,
      "contractAddress": "0x5c6cff4b7c49805f8295ff73c204ac83f3bc4ae7",
      "function": "setSendLibrary(address,uint32,address)",
      "arguments": [
        "0xBd39033994F5324Fe8D50bB524396A78ff9dFe22",
        "30255",
        "0x166CAb679EBDB0853055522D3B523621b94029a1"
      ],
      "transaction": {
        "from": "0x45dce8e4f2dc005a5f28206a46cb034697eeda8e",
        "to": "0x5c6cff4b7c49805f8295ff73c204ac83f3bc4ae7",
        "gas": "0x38dec",
        "value": "0x0",
        "input": "0x9535ff30000000000000000000000000bd39033994f5324fe8d50bb524396a78ff9dfe22000000000000000000000000000000000000000000000000000000000000762f000000000000000000000000166cab679ebdb0853055522d3b523621b94029a1",
        "nonce": "0x73",
        "chainId": "0xab5",
        "zksync": {
          "factoryDeps": [],
          "paymasterData": null
        }
      },
      "additionalContracts": [],
      "isFixedGasLimit": false
    },
    {
      "hash": null,
      "transactionType": "CALL",
      "contractName": null,
      "contractAddress": "0x5c6cff4b7c49805f8295ff73c204ac83f3bc4ae7",
      "function": "setReceiveLibrary(address,uint32,address,uint256)",
      "arguments": [
        "0xBd39033994F5324Fe8D50bB524396A78ff9dFe22",
        "30255",
        "0x9d799c1935c51CA399e6465Ed9841DEbCcEc413E",
        "0"
      ],
      "transaction": {
        "from": "0x45dce8e4f2dc005a5f28206a46cb034697eeda8e",
        "to": "0x5c6cff4b7c49805f8295ff73c204ac83f3bc4ae7",
        "gas": "0x3b373",
        "value": "0x0",
        "input": "0x6a14d715000000000000000000000000bd39033994f5324fe8d50bb524396a78ff9dfe22000000000000000000000000000000000000000000000000000000000000762f0000000000000000000000009d799c1935c51ca399e6465ed9841debccec413e0000000000000000000000000000000000000000000000000000000000000000",
        "nonce": "0x74",
        "chainId": "0xab5",
        "zksync": {
          "factoryDeps": [],
          "paymasterData": null
        }
      },
      "additionalContracts": [],
      "isFixedGasLimit": false
    },
    {
      "hash": null,
      "transactionType": "CALL",
      "contractName": null,
      "contractAddress": "0x5c6cff4b7c49805f8295ff73c204ac83f3bc4ae7",
      "function": "setSendLibrary(address,uint32,address)",
      "arguments": [
        "0xBd39033994F5324Fe8D50bB524396A78ff9dFe22",
        "30274",
        "0x166CAb679EBDB0853055522D3B523621b94029a1"
      ],
      "transaction": {
        "from": "0x45dce8e4f2dc005a5f28206a46cb034697eeda8e",
        "to": "0x5c6cff4b7c49805f8295ff73c204ac83f3bc4ae7",
        "gas": "0x38dec",
        "value": "0x0",
        "input": "0x9535ff30000000000000000000000000bd39033994f5324fe8d50bb524396a78ff9dfe220000000000000000000000000000000000000000000000000000000000007642000000000000000000000000166cab679ebdb0853055522d3b523621b94029a1",
        "nonce": "0x75",
        "chainId": "0xab5",
        "zksync": {
          "factoryDeps": [],
          "paymasterData": null
        }
      },
      "additionalContracts": [],
      "isFixedGasLimit": false
    },
    {
      "hash": null,
      "transactionType": "CALL",
      "contractName": null,
      "contractAddress": "0x5c6cff4b7c49805f8295ff73c204ac83f3bc4ae7",
      "function": "setReceiveLibrary(address,uint32,address,uint256)",
      "arguments": [
        "0xBd39033994F5324Fe8D50bB524396A78ff9dFe22",
        "30274",
        "0x9d799c1935c51CA399e6465Ed9841DEbCcEc413E",
        "0"
      ],
      "transaction": {
        "from": "0x45dce8e4f2dc005a5f28206a46cb034697eeda8e",
        "to": "0x5c6cff4b7c49805f8295ff73c204ac83f3bc4ae7",
        "gas": "0x3b373",
        "value": "0x0",
        "input": "0x6a14d715000000000000000000000000bd39033994f5324fe8d50bb524396a78ff9dfe2200000000000000000000000000000000000000000000000000000000000076420000000000000000000000009d799c1935c51ca399e6465ed9841debccec413e0000000000000000000000000000000000000000000000000000000000000000",
        "nonce": "0x76",
        "chainId": "0xab5",
        "zksync": {
          "factoryDeps": [],
          "paymasterData": null
        }
      },
      "additionalContracts": [],
      "isFixedGasLimit": false
    },
    {
      "hash": null,
      "transactionType": "CALL",
      "contractName": null,
      "contractAddress": "0x5c6cff4b7c49805f8295ff73c204ac83f3bc4ae7",
      "function": "setSendLibrary(address,uint32,address)",
      "arguments": [
        "0xBd39033994F5324Fe8D50bB524396A78ff9dFe22",
        "30332",
        "0x166CAb679EBDB0853055522D3B523621b94029a1"
      ],
      "transaction": {
        "from": "0x45dce8e4f2dc005a5f28206a46cb034697eeda8e",
        "to": "0x5c6cff4b7c49805f8295ff73c204ac83f3bc4ae7",
        "gas": "0x38dec",
        "value": "0x0",
        "input": "0x9535ff30000000000000000000000000bd39033994f5324fe8d50bb524396a78ff9dfe22000000000000000000000000000000000000000000000000000000000000767c000000000000000000000000166cab679ebdb0853055522d3b523621b94029a1",
        "nonce": "0x77",
        "chainId": "0xab5",
        "zksync": {
          "factoryDeps": [],
          "paymasterData": null
        }
      },
      "additionalContracts": [],
      "isFixedGasLimit": false
    },
    {
      "hash": null,
      "transactionType": "CALL",
      "contractName": null,
      "contractAddress": "0x5c6cff4b7c49805f8295ff73c204ac83f3bc4ae7",
      "function": "setReceiveLibrary(address,uint32,address,uint256)",
      "arguments": [
        "0xBd39033994F5324Fe8D50bB524396A78ff9dFe22",
        "30332",
        "0x9d799c1935c51CA399e6465Ed9841DEbCcEc413E",
        "0"
      ],
      "transaction": {
        "from": "0x45dce8e4f2dc005a5f28206a46cb034697eeda8e",
        "to": "0x5c6cff4b7c49805f8295ff73c204ac83f3bc4ae7",
        "gas": "0x3b373",
        "value": "0x0",
        "input": "0x6a14d715000000000000000000000000bd39033994f5324fe8d50bb524396a78ff9dfe22000000000000000000000000000000000000000000000000000000000000767c0000000000000000000000009d799c1935c51ca399e6465ed9841debccec413e0000000000000000000000000000000000000000000000000000000000000000",
        "nonce": "0x78",
        "chainId": "0xab5",
        "zksync": {
          "factoryDeps": [],
          "paymasterData": null
        }
      },
      "additionalContracts": [],
      "isFixedGasLimit": false
    },
    {
      "hash": null,
      "transactionType": "CALL",
      "contractName": null,
      "contractAddress": "0x5c6cff4b7c49805f8295ff73c204ac83f3bc4ae7",
      "function": "setSendLibrary(address,uint32,address)",
      "arguments": [
        "0xBd39033994F5324Fe8D50bB524396A78ff9dFe22",
        "30339",
        "0x166CAb679EBDB0853055522D3B523621b94029a1"
      ],
      "transaction": {
        "from": "0x45dce8e4f2dc005a5f28206a46cb034697eeda8e",
        "to": "0x5c6cff4b7c49805f8295ff73c204ac83f3bc4ae7",
        "gas": "0x38dec",
        "value": "0x0",
        "input": "0x9535ff30000000000000000000000000bd39033994f5324fe8d50bb524396a78ff9dfe220000000000000000000000000000000000000000000000000000000000007683000000000000000000000000166cab679ebdb0853055522d3b523621b94029a1",
        "nonce": "0x79",
        "chainId": "0xab5",
        "zksync": {
          "factoryDeps": [],
          "paymasterData": null
        }
      },
      "additionalContracts": [],
      "isFixedGasLimit": false
    },
    {
      "hash": null,
      "transactionType": "CALL",
      "contractName": null,
      "contractAddress": "0x5c6cff4b7c49805f8295ff73c204ac83f3bc4ae7",
      "function": "setReceiveLibrary(address,uint32,address,uint256)",
      "arguments": [
        "0xBd39033994F5324Fe8D50bB524396A78ff9dFe22",
        "30339",
        "0x9d799c1935c51CA399e6465Ed9841DEbCcEc413E",
        "0"
      ],
      "transaction": {
        "from": "0x45dce8e4f2dc005a5f28206a46cb034697eeda8e",
        "to": "0x5c6cff4b7c49805f8295ff73c204ac83f3bc4ae7",
        "gas": "0x3b373",
        "value": "0x0",
        "input": "0x6a14d715000000000000000000000000bd39033994f5324fe8d50bb524396a78ff9dfe2200000000000000000000000000000000000000000000000000000000000076830000000000000000000000009d799c1935c51ca399e6465ed9841debccec413e0000000000000000000000000000000000000000000000000000000000000000",
        "nonce": "0x7a",
        "chainId": "0xab5",
        "zksync": {
          "factoryDeps": [],
          "paymasterData": null
        }
      },
      "additionalContracts": [],
      "isFixedGasLimit": false
    },
    {
      "hash": null,
      "transactionType": "CALL",
      "contractName": null,
      "contractAddress": "0x5c6cff4b7c49805f8295ff73c204ac83f3bc4ae7",
      "function": "setSendLibrary(address,uint32,address)",
      "arguments": [
        "0xBd39033994F5324Fe8D50bB524396A78ff9dFe22",
        "30110",
        "0x166CAb679EBDB0853055522D3B523621b94029a1"
      ],
      "transaction": {
        "from": "0x45dce8e4f2dc005a5f28206a46cb034697eeda8e",
        "to": "0x5c6cff4b7c49805f8295ff73c204ac83f3bc4ae7",
        "gas": "0x38dec",
        "value": "0x0",
        "input": "0x9535ff30000000000000000000000000bd39033994f5324fe8d50bb524396a78ff9dfe22000000000000000000000000000000000000000000000000000000000000759e000000000000000000000000166cab679ebdb0853055522d3b523621b94029a1",
        "nonce": "0x7b",
        "chainId": "0xab5",
        "zksync": {
          "factoryDeps": [],
          "paymasterData": null
        }
      },
      "additionalContracts": [],
      "isFixedGasLimit": false
    },
    {
      "hash": null,
      "transactionType": "CALL",
      "contractName": null,
      "contractAddress": "0x5c6cff4b7c49805f8295ff73c204ac83f3bc4ae7",
      "function": "setReceiveLibrary(address,uint32,address,uint256)",
      "arguments": [
        "0xBd39033994F5324Fe8D50bB524396A78ff9dFe22",
        "30110",
        "0x9d799c1935c51CA399e6465Ed9841DEbCcEc413E",
        "0"
      ],
      "transaction": {
        "from": "0x45dce8e4f2dc005a5f28206a46cb034697eeda8e",
        "to": "0x5c6cff4b7c49805f8295ff73c204ac83f3bc4ae7",
        "gas": "0x3b373",
        "value": "0x0",
        "input": "0x6a14d715000000000000000000000000bd39033994f5324fe8d50bb524396a78ff9dfe22000000000000000000000000000000000000000000000000000000000000759e0000000000000000000000009d799c1935c51ca399e6465ed9841debccec413e0000000000000000000000000000000000000000000000000000000000000000",
        "nonce": "0x7c",
        "chainId": "0xab5",
        "zksync": {
          "factoryDeps": [],
          "paymasterData": null
        }
      },
      "additionalContracts": [],
      "isFixedGasLimit": false
    },
    {
      "hash": null,
      "transactionType": "CALL",
      "contractName": null,
      "contractAddress": "0x5c6cff4b7c49805f8295ff73c204ac83f3bc4ae7",
      "function": "setSendLibrary(address,uint32,address)",
      "arguments": [
        "0xBd39033994F5324Fe8D50bB524396A78ff9dFe22",
        "30111",
        "0x166CAb679EBDB0853055522D3B523621b94029a1"
      ],
      "transaction": {
        "from": "0x45dce8e4f2dc005a5f28206a46cb034697eeda8e",
        "to": "0x5c6cff4b7c49805f8295ff73c204ac83f3bc4ae7",
        "gas": "0x38dec",
        "value": "0x0",
        "input": "0x9535ff30000000000000000000000000bd39033994f5324fe8d50bb524396a78ff9dfe22000000000000000000000000000000000000000000000000000000000000759f000000000000000000000000166cab679ebdb0853055522d3b523621b94029a1",
        "nonce": "0x7d",
        "chainId": "0xab5",
        "zksync": {
          "factoryDeps": [],
          "paymasterData": null
        }
      },
      "additionalContracts": [],
      "isFixedGasLimit": false
    },
    {
      "hash": null,
      "transactionType": "CALL",
      "contractName": null,
      "contractAddress": "0x5c6cff4b7c49805f8295ff73c204ac83f3bc4ae7",
      "function": "setReceiveLibrary(address,uint32,address,uint256)",
      "arguments": [
        "0xBd39033994F5324Fe8D50bB524396A78ff9dFe22",
        "30111",
        "0x9d799c1935c51CA399e6465Ed9841DEbCcEc413E",
        "0"
      ],
      "transaction": {
        "from": "0x45dce8e4f2dc005a5f28206a46cb034697eeda8e",
        "to": "0x5c6cff4b7c49805f8295ff73c204ac83f3bc4ae7",
        "gas": "0x3b373",
        "value": "0x0",
        "input": "0x6a14d715000000000000000000000000bd39033994f5324fe8d50bb524396a78ff9dfe22000000000000000000000000000000000000000000000000000000000000759f0000000000000000000000009d799c1935c51ca399e6465ed9841debccec413e0000000000000000000000000000000000000000000000000000000000000000",
        "nonce": "0x7e",
        "chainId": "0xab5",
        "zksync": {
          "factoryDeps": [],
          "paymasterData": null
        }
      },
      "additionalContracts": [],
      "isFixedGasLimit": false
    },
    {
      "hash": null,
      "transactionType": "CALL",
      "contractName": null,
      "contractAddress": "0x5c6cff4b7c49805f8295ff73c204ac83f3bc4ae7",
      "function": "setSendLibrary(address,uint32,address)",
      "arguments": [
        "0xBd39033994F5324Fe8D50bB524396A78ff9dFe22",
        "30109",
        "0x166CAb679EBDB0853055522D3B523621b94029a1"
      ],
      "transaction": {
        "from": "0x45dce8e4f2dc005a5f28206a46cb034697eeda8e",
        "to": "0x5c6cff4b7c49805f8295ff73c204ac83f3bc4ae7",
        "gas": "0x38dec",
        "value": "0x0",
        "input": "0x9535ff30000000000000000000000000bd39033994f5324fe8d50bb524396a78ff9dfe22000000000000000000000000000000000000000000000000000000000000759d000000000000000000000000166cab679ebdb0853055522d3b523621b94029a1",
        "nonce": "0x7f",
        "chainId": "0xab5",
        "zksync": {
          "factoryDeps": [],
          "paymasterData": null
        }
      },
      "additionalContracts": [],
      "isFixedGasLimit": false
    },
    {
      "hash": null,
      "transactionType": "CALL",
      "contractName": null,
      "contractAddress": "0x5c6cff4b7c49805f8295ff73c204ac83f3bc4ae7",
      "function": "setReceiveLibrary(address,uint32,address,uint256)",
      "arguments": [
        "0xBd39033994F5324Fe8D50bB524396A78ff9dFe22",
        "30109",
        "0x9d799c1935c51CA399e6465Ed9841DEbCcEc413E",
        "0"
      ],
      "transaction": {
        "from": "0x45dce8e4f2dc005a5f28206a46cb034697eeda8e",
        "to": "0x5c6cff4b7c49805f8295ff73c204ac83f3bc4ae7",
        "gas": "0x3b373",
        "value": "0x0",
        "input": "0x6a14d715000000000000000000000000bd39033994f5324fe8d50bb524396a78ff9dfe22000000000000000000000000000000000000000000000000000000000000759d0000000000000000000000009d799c1935c51ca399e6465ed9841debccec413e0000000000000000000000000000000000000000000000000000000000000000",
        "nonce": "0x80",
        "chainId": "0xab5",
        "zksync": {
          "factoryDeps": [],
          "paymasterData": null
        }
      },
      "additionalContracts": [],
      "isFixedGasLimit": false
    },
    {
      "hash": null,
      "transactionType": "CALL",
      "contractName": null,
      "contractAddress": "0x5c6cff4b7c49805f8295ff73c204ac83f3bc4ae7",
      "function": "setSendLibrary(address,uint32,address)",
      "arguments": [
        "0xBd39033994F5324Fe8D50bB524396A78ff9dFe22",
        "30106",
        "0x166CAb679EBDB0853055522D3B523621b94029a1"
      ],
      "transaction": {
        "from": "0x45dce8e4f2dc005a5f28206a46cb034697eeda8e",
        "to": "0x5c6cff4b7c49805f8295ff73c204ac83f3bc4ae7",
        "gas": "0x38dec",
        "value": "0x0",
        "input": "0x9535ff30000000000000000000000000bd39033994f5324fe8d50bb524396a78ff9dfe22000000000000000000000000000000000000000000000000000000000000759a000000000000000000000000166cab679ebdb0853055522d3b523621b94029a1",
        "nonce": "0x81",
        "chainId": "0xab5",
        "zksync": {
          "factoryDeps": [],
          "paymasterData": null
        }
      },
      "additionalContracts": [],
      "isFixedGasLimit": false
    },
    {
      "hash": null,
      "transactionType": "CALL",
      "contractName": null,
      "contractAddress": "0x5c6cff4b7c49805f8295ff73c204ac83f3bc4ae7",
      "function": "setReceiveLibrary(address,uint32,address,uint256)",
      "arguments": [
        "0xBd39033994F5324Fe8D50bB524396A78ff9dFe22",
        "30106",
        "0x9d799c1935c51CA399e6465Ed9841DEbCcEc413E",
        "0"
      ],
      "transaction": {
        "from": "0x45dce8e4f2dc005a5f28206a46cb034697eeda8e",
        "to": "0x5c6cff4b7c49805f8295ff73c204ac83f3bc4ae7",
        "gas": "0x3b373",
        "value": "0x0",
        "input": "0x6a14d715000000000000000000000000bd39033994f5324fe8d50bb524396a78ff9dfe22000000000000000000000000000000000000000000000000000000000000759a0000000000000000000000009d799c1935c51ca399e6465ed9841debccec413e0000000000000000000000000000000000000000000000000000000000000000",
        "nonce": "0x82",
        "chainId": "0xab5",
        "zksync": {
          "factoryDeps": [],
          "paymasterData": null
        }
      },
      "additionalContracts": [],
      "isFixedGasLimit": false
    },
    {
      "hash": null,
      "transactionType": "CALL",
      "contractName": null,
      "contractAddress": "0x5c6cff4b7c49805f8295ff73c204ac83f3bc4ae7",
      "function": "setSendLibrary(address,uint32,address)",
      "arguments": [
        "0xBd39033994F5324Fe8D50bB524396A78ff9dFe22",
        "30102",
        "0x166CAb679EBDB0853055522D3B523621b94029a1"
      ],
      "transaction": {
        "from": "0x45dce8e4f2dc005a5f28206a46cb034697eeda8e",
        "to": "0x5c6cff4b7c49805f8295ff73c204ac83f3bc4ae7",
        "gas": "0x38dec",
        "value": "0x0",
        "input": "0x9535ff30000000000000000000000000bd39033994f5324fe8d50bb524396a78ff9dfe220000000000000000000000000000000000000000000000000000000000007596000000000000000000000000166cab679ebdb0853055522d3b523621b94029a1",
        "nonce": "0x83",
        "chainId": "0xab5",
        "zksync": {
          "factoryDeps": [],
          "paymasterData": null
        }
      },
      "additionalContracts": [],
      "isFixedGasLimit": false
    },
    {
      "hash": null,
      "transactionType": "CALL",
      "contractName": null,
      "contractAddress": "0x5c6cff4b7c49805f8295ff73c204ac83f3bc4ae7",
      "function": "setReceiveLibrary(address,uint32,address,uint256)",
      "arguments": [
        "0xBd39033994F5324Fe8D50bB524396A78ff9dFe22",
        "30102",
        "0x9d799c1935c51CA399e6465Ed9841DEbCcEc413E",
        "0"
      ],
      "transaction": {
        "from": "0x45dce8e4f2dc005a5f28206a46cb034697eeda8e",
        "to": "0x5c6cff4b7c49805f8295ff73c204ac83f3bc4ae7",
        "gas": "0x3b373",
        "value": "0x0",
        "input": "0x6a14d715000000000000000000000000bd39033994f5324fe8d50bb524396a78ff9dfe2200000000000000000000000000000000000000000000000000000000000075960000000000000000000000009d799c1935c51ca399e6465ed9841debccec413e0000000000000000000000000000000000000000000000000000000000000000",
        "nonce": "0x84",
        "chainId": "0xab5",
        "zksync": {
          "factoryDeps": [],
          "paymasterData": null
        }
      },
      "additionalContracts": [],
      "isFixedGasLimit": false
    },
    {
      "hash": null,
      "transactionType": "CALL",
      "contractName": null,
      "contractAddress": "0x5c6cff4b7c49805f8295ff73c204ac83f3bc4ae7",
      "function": "setSendLibrary(address,uint32,address)",
      "arguments": [
        "0xBd39033994F5324Fe8D50bB524396A78ff9dFe22",
        "30158",
        "0x166CAb679EBDB0853055522D3B523621b94029a1"
      ],
      "transaction": {
        "from": "0x45dce8e4f2dc005a5f28206a46cb034697eeda8e",
        "to": "0x5c6cff4b7c49805f8295ff73c204ac83f3bc4ae7",
        "gas": "0x38dec",
        "value": "0x0",
        "input": "0x9535ff30000000000000000000000000bd39033994f5324fe8d50bb524396a78ff9dfe2200000000000000000000000000000000000000000000000000000000000075ce000000000000000000000000166cab679ebdb0853055522d3b523621b94029a1",
        "nonce": "0x85",
        "chainId": "0xab5",
        "zksync": {
          "factoryDeps": [],
          "paymasterData": null
        }
      },
      "additionalContracts": [],
      "isFixedGasLimit": false
    },
    {
      "hash": null,
      "transactionType": "CALL",
      "contractName": null,
      "contractAddress": "0x5c6cff4b7c49805f8295ff73c204ac83f3bc4ae7",
      "function": "setReceiveLibrary(address,uint32,address,uint256)",
      "arguments": [
        "0xBd39033994F5324Fe8D50bB524396A78ff9dFe22",
        "30158",
        "0x9d799c1935c51CA399e6465Ed9841DEbCcEc413E",
        "0"
      ],
      "transaction": {
        "from": "0x45dce8e4f2dc005a5f28206a46cb034697eeda8e",
        "to": "0x5c6cff4b7c49805f8295ff73c204ac83f3bc4ae7",
        "gas": "0x3b373",
        "value": "0x0",
        "input": "0x6a14d715000000000000000000000000bd39033994f5324fe8d50bb524396a78ff9dfe2200000000000000000000000000000000000000000000000000000000000075ce0000000000000000000000009d799c1935c51ca399e6465ed9841debccec413e0000000000000000000000000000000000000000000000000000000000000000",
        "nonce": "0x86",
        "chainId": "0xab5",
        "zksync": {
          "factoryDeps": [],
          "paymasterData": null
        }
      },
      "additionalContracts": [],
      "isFixedGasLimit": false
    },
    {
      "hash": null,
      "transactionType": "CALL",
      "contractName": null,
      "contractAddress": "0x5c6cff4b7c49805f8295ff73c204ac83f3bc4ae7",
      "function": "setSendLibrary(address,uint32,address)",
      "arguments": [
        "0xBd39033994F5324Fe8D50bB524396A78ff9dFe22",
        "30362",
        "0x166CAb679EBDB0853055522D3B523621b94029a1"
      ],
      "transaction": {
        "from": "0x45dce8e4f2dc005a5f28206a46cb034697eeda8e",
        "to": "0x5c6cff4b7c49805f8295ff73c204ac83f3bc4ae7",
        "gas": "0x38dec",
        "value": "0x0",
        "input": "0x9535ff30000000000000000000000000bd39033994f5324fe8d50bb524396a78ff9dfe22000000000000000000000000000000000000000000000000000000000000769a000000000000000000000000166cab679ebdb0853055522d3b523621b94029a1",
        "nonce": "0x87",
        "chainId": "0xab5",
        "zksync": {
          "factoryDeps": [],
          "paymasterData": null
        }
      },
      "additionalContracts": [],
      "isFixedGasLimit": false
    },
    {
      "hash": null,
      "transactionType": "CALL",
      "contractName": null,
      "contractAddress": "0x5c6cff4b7c49805f8295ff73c204ac83f3bc4ae7",
      "function": "setReceiveLibrary(address,uint32,address,uint256)",
      "arguments": [
        "0xBd39033994F5324Fe8D50bB524396A78ff9dFe22",
        "30362",
        "0x9d799c1935c51CA399e6465Ed9841DEbCcEc413E",
        "0"
      ],
      "transaction": {
        "from": "0x45dce8e4f2dc005a5f28206a46cb034697eeda8e",
        "to": "0x5c6cff4b7c49805f8295ff73c204ac83f3bc4ae7",
        "gas": "0x3b373",
        "value": "0x0",
        "input": "0x6a14d715000000000000000000000000bd39033994f5324fe8d50bb524396a78ff9dfe22000000000000000000000000000000000000000000000000000000000000769a0000000000000000000000009d799c1935c51ca399e6465ed9841debccec413e0000000000000000000000000000000000000000000000000000000000000000",
        "nonce": "0x88",
        "chainId": "0xab5",
        "zksync": {
          "factoryDeps": [],
          "paymasterData": null
        }
      },
      "additionalContracts": [],
      "isFixedGasLimit": false
    },
    {
      "hash": null,
      "transactionType": "CALL",
      "contractName": null,
      "contractAddress": "0x5c6cff4b7c49805f8295ff73c204ac83f3bc4ae7",
      "function": "setSendLibrary(address,uint32,address)",
      "arguments": [
        "0xBd39033994F5324Fe8D50bB524396A78ff9dFe22",
        "30183",
        "0x166CAb679EBDB0853055522D3B523621b94029a1"
      ],
      "transaction": {
        "from": "0x45dce8e4f2dc005a5f28206a46cb034697eeda8e",
        "to": "0x5c6cff4b7c49805f8295ff73c204ac83f3bc4ae7",
        "gas": "0x38dec",
        "value": "0x0",
        "input": "0x9535ff30000000000000000000000000bd39033994f5324fe8d50bb524396a78ff9dfe2200000000000000000000000000000000000000000000000000000000000075e7000000000000000000000000166cab679ebdb0853055522d3b523621b94029a1",
        "nonce": "0x89",
        "chainId": "0xab5",
        "zksync": {
          "factoryDeps": [],
          "paymasterData": null
        }
      },
      "additionalContracts": [],
      "isFixedGasLimit": false
    },
    {
      "hash": null,
      "transactionType": "CALL",
      "contractName": null,
      "contractAddress": "0x5c6cff4b7c49805f8295ff73c204ac83f3bc4ae7",
      "function": "setReceiveLibrary(address,uint32,address,uint256)",
      "arguments": [
        "0xBd39033994F5324Fe8D50bB524396A78ff9dFe22",
        "30183",
        "0x9d799c1935c51CA399e6465Ed9841DEbCcEc413E",
        "0"
      ],
      "transaction": {
        "from": "0x45dce8e4f2dc005a5f28206a46cb034697eeda8e",
        "to": "0x5c6cff4b7c49805f8295ff73c204ac83f3bc4ae7",
        "gas": "0x3b373",
        "value": "0x0",
        "input": "0x6a14d715000000000000000000000000bd39033994f5324fe8d50bb524396a78ff9dfe2200000000000000000000000000000000000000000000000000000000000075e70000000000000000000000009d799c1935c51ca399e6465ed9841debccec413e0000000000000000000000000000000000000000000000000000000000000000",
        "nonce": "0x8a",
        "chainId": "0xab5",
        "zksync": {
          "factoryDeps": [],
          "paymasterData": null
        }
      },
      "additionalContracts": [],
      "isFixedGasLimit": false
    },
    {
      "hash": null,
      "transactionType": "CALL",
      "contractName": null,
      "contractAddress": "0x5c6cff4b7c49805f8295ff73c204ac83f3bc4ae7",
      "function": "setSendLibrary(address,uint32,address)",
      "arguments": [
        "0xBd39033994F5324Fe8D50bB524396A78ff9dFe22",
        "30319",
        "0x166CAb679EBDB0853055522D3B523621b94029a1"
      ],
      "transaction": {
        "from": "0x45dce8e4f2dc005a5f28206a46cb034697eeda8e",
        "to": "0x5c6cff4b7c49805f8295ff73c204ac83f3bc4ae7",
        "gas": "0x38dec",
        "value": "0x0",
        "input": "0x9535ff30000000000000000000000000bd39033994f5324fe8d50bb524396a78ff9dfe22000000000000000000000000000000000000000000000000000000000000766f000000000000000000000000166cab679ebdb0853055522d3b523621b94029a1",
        "nonce": "0x8b",
        "chainId": "0xab5",
        "zksync": {
          "factoryDeps": [],
          "paymasterData": null
        }
      },
      "additionalContracts": [],
      "isFixedGasLimit": false
    },
    {
      "hash": null,
      "transactionType": "CALL",
      "contractName": null,
      "contractAddress": "0x5c6cff4b7c49805f8295ff73c204ac83f3bc4ae7",
      "function": "setReceiveLibrary(address,uint32,address,uint256)",
      "arguments": [
        "0xBd39033994F5324Fe8D50bB524396A78ff9dFe22",
        "30319",
        "0x9d799c1935c51CA399e6465Ed9841DEbCcEc413E",
        "0"
      ],
      "transaction": {
        "from": "0x45dce8e4f2dc005a5f28206a46cb034697eeda8e",
        "to": "0x5c6cff4b7c49805f8295ff73c204ac83f3bc4ae7",
        "gas": "0x3b373",
        "value": "0x0",
        "input": "0x6a14d715000000000000000000000000bd39033994f5324fe8d50bb524396a78ff9dfe22000000000000000000000000000000000000000000000000000000000000766f0000000000000000000000009d799c1935c51ca399e6465ed9841debccec413e0000000000000000000000000000000000000000000000000000000000000000",
        "nonce": "0x8c",
        "chainId": "0xab5",
        "zksync": {
          "factoryDeps": [],
          "paymasterData": null
        }
      },
      "additionalContracts": [],
      "isFixedGasLimit": false
    },
    {
      "hash": null,
      "transactionType": "CALL",
      "contractName": null,
      "contractAddress": "0x5c6cff4b7c49805f8295ff73c204ac83f3bc4ae7",
      "function": "setSendLibrary(address,uint32,address)",
      "arguments": [
        "0xBd39033994F5324Fe8D50bB524396A78ff9dFe22",
        "30165",
        "0x166CAb679EBDB0853055522D3B523621b94029a1"
      ],
      "transaction": {
        "from": "0x45dce8e4f2dc005a5f28206a46cb034697eeda8e",
        "to": "0x5c6cff4b7c49805f8295ff73c204ac83f3bc4ae7",
        "gas": "0x38dec",
        "value": "0x0",
        "input": "0x9535ff30000000000000000000000000bd39033994f5324fe8d50bb524396a78ff9dfe2200000000000000000000000000000000000000000000000000000000000075d5000000000000000000000000166cab679ebdb0853055522d3b523621b94029a1",
        "nonce": "0x8d",
        "chainId": "0xab5",
        "zksync": {
          "factoryDeps": [],
          "paymasterData": null
        }
      },
      "additionalContracts": [],
      "isFixedGasLimit": false
    },
    {
      "hash": null,
      "transactionType": "CALL",
      "contractName": null,
      "contractAddress": "0x5c6cff4b7c49805f8295ff73c204ac83f3bc4ae7",
      "function": "setReceiveLibrary(address,uint32,address,uint256)",
      "arguments": [
        "0xBd39033994F5324Fe8D50bB524396A78ff9dFe22",
        "30165",
        "0x9d799c1935c51CA399e6465Ed9841DEbCcEc413E",
        "0"
      ],
      "transaction": {
        "from": "0x45dce8e4f2dc005a5f28206a46cb034697eeda8e",
        "to": "0x5c6cff4b7c49805f8295ff73c204ac83f3bc4ae7",
        "gas": "0x3b373",
        "value": "0x0",
        "input": "0x6a14d715000000000000000000000000bd39033994f5324fe8d50bb524396a78ff9dfe2200000000000000000000000000000000000000000000000000000000000075d50000000000000000000000009d799c1935c51ca399e6465ed9841debccec413e0000000000000000000000000000000000000000000000000000000000000000",
        "nonce": "0x8e",
        "chainId": "0xab5",
        "zksync": {
          "factoryDeps": [],
          "paymasterData": null
        }
      },
      "additionalContracts": [],
      "isFixedGasLimit": false
    }
  ],
  "receipts": [],
  "libraries": [],
  "pending": [],
  "returns": {},
  "timestamp": 1750042836,
  "chain": 2741,
  "commit": "d7295cd"
}