{
  "transactions": [
    {
      "hash": "0xa530de94aa789b07847524ec5828accbbde9cfb87fe8cea98ef4e342519c4d9e",
      "transactionType": "CALL",
      "contractName": null,
      "contractAddress": "0x741f0d8bde14140f62107fc60a0ee122b37d4630",
      "function": "batchBridgeWithEthFeeFromWallet((uint32,bytes32,uint256,uint256,bytes,bytes,bytes)[],address[],address[])",
      "arguments": [
        "[(30375, 0x000000000000000000000000741f0d8bde14140f62107fc60a0ee122b37d4630, 1000000000000000000, 0, 0x, 0x, 0x)]",
        "[0x57558Cb8d6005DE0BAe8a2789d5EfaaE52dba5a8]",
        "[0x741F0d8Bde14140f62107FC60A0EE122B37D4630]"
      ],
      "transaction": {
        "from": "0x45dce8e4f2dc005a5f28206a46cb034697eeda8e",
        "to": "0x741f0d8bde14140f62107fc60a0ee122b37d4630",
        "gas": "0x906e0",
        "value": "0x56a1ebb660c",
        "input": "0xb70d4241000000000000000000000000000000000000000000000000000000000000006000000000000000000000000000000000000000000000000000000000000001e000000000000000000000000000000000000000000000000000000000000002200000000000000000000000000000000000000000000000000000000000000001000000000000000000000000000000000000000000000000000000000000002000000000000000000000000000000000000000000000000000000000000076a7000000000000000000000000741f0d8bde14140f62107fc60a0ee122b37d46300000000000000000000000000000000000000000000000000de0b6b3a7640000000000000000000000000000000000000000000000000000000000000000000000000000000000000000000000000000000000000000000000000000000000e000000000000000000000000000000000000000000000000000000000000001000000000000000000000000000000000000000000000000000000000000000120000000000000000000000000000000000000000000000000000000000000000000000000000000000000000000000000000000000000000000000000000000000000000000000000000000000000000000000000000000000000000000000000000000000000000000000000000000000000000000000000000000000000000100000000000000000000000057558cb8d6005de0bae8a2789d5efaae52dba5a80000000000000000000000000000000000000000000000000000000000000001000000000000000000000000741f0d8bde14140f62107fc60a0ee122b37d4630",
        "nonce": "0x9b",
        "chainId": "0xa4b1"
      },
      "additionalContracts": [],
      "isFixedGasLimit": false
    }
  ],
  "receipts": [
    {
      "status": "0x1",
      "cumulativeGasUsed": "0x9e81c",
      "logs": [
        {
          "address": "0x57558cb8d6005de0bae8a2789d5efaae52dba5a8",
          "topics": [
            "0xddf252ad1be2c89b69c2b068fc378daa952ba7f163c4a11628f55a4df523b3ef",
            "0x000000000000000000000000741f0d8bde14140f62107fc60a0ee122b37d4630",
            "0x0000000000000000000000000000000000000000000000000000000000000000"
          ],
          "data": "0x0000000000000000000000000000000000000000000000000de0b6b3a7640000",
          "blockHash": "0x2f9baf35676fe620fe6e7a92b1d766cc8df1c30551528c67376671945dcd39e7",
          "blockNumber": "0x15a87d0b",
          "transactionHash": "0xa530de94aa789b07847524ec5828accbbde9cfb87fe8cea98ef4e342519c4d9e",
          "transactionIndex": "0x2",
          "logIndex": "0x0",
          "removed": false
        },
        {
          "address": "0x975bcd720be66659e3eb3c0e4f1866a3020e493a",
          "topics": [
            "0x61ed099e74a97a1d7f8bb0952a88ca8b7b8ebd00c126ea04671f92a81213318a"
          ],
          "data": "0x00000000000000000000000031cae3b7fb82d847621859fb1585353c5720660d0000000000000000000000000000000000000000000000000000051c1f467e81",
          "blockHash": "0x2f9baf35676fe620fe6e7a92b1d766cc8df1c30551528c67376671945dcd39e7",
          "blockNumber": "0x15a87d0b",
          "transactionHash": "0xa530de94aa789b07847524ec5828accbbde9cfb87fe8cea98ef4e342519c4d9e",
          "transactionIndex": "0x2",
          "logIndex": "0x1",
          "removed": false
        },
        {
          "address": "0x975bcd720be66659e3eb3c0e4f1866a3020e493a",
          "topics": [
            "0x07ea52d82345d6e838192107d8fd7123d9c2ec8e916cd0aad13fd2b60db24644"
          ],
          "data": "0x000000000000000000000000000000000000000000000000000000000000006000000000000000000000000000000000000000000000000000000000000000e0000000000000000000000000000000000000000000000000000000000000010000000000000000000000000000000000000000000000000000000000000000030000000000000000000000002f55c492897526677c5b68fb199ea31e2c126416000000000000000000000000a7b5189bca84cd304d8553977c7c614329750d99000000000000000000000000b42726e41dbe96fc4ea6d73cd7921676083536980000000000000000000000000000000000000000000000000000000000000000000000000000000000000000000000000000000000000000000000000000000300000000000000000000000000000000000000000000000000000019bddc4a22000000000000000000000000000000000000000000000000000000196eb5e0130000000000000000000000000000000000000000000000000000001ad2e2bd56",
          "blockHash": "0x2f9baf35676fe620fe6e7a92b1d766cc8df1c30551528c67376671945dcd39e7",
          "blockNumber": "0x15a87d0b",
          "transactionHash": "0xa530de94aa789b07847524ec5828accbbde9cfb87fe8cea98ef4e342519c4d9e",
          "transactionIndex": "0x2",
          "logIndex": "0x2",
          "removed": false
        },
        {
          "address": "0x1a44076050125825900e736c501f859c50fe728c",
          "topics": [
            "0x1ab700d4ced0c005b164c0f789fd09fcbb0156d4c2041b8a3bfbcd961cd1567f"
          ],
          "data": "0x00000000000000000000000000000000000000000000000000000000000000600000000000000000000000000000000000000000000000000000000000000120000000000000000000000000975bcd720be66659e3eb3c0e4f1866a3020e493a00000000000000000000000000000000000000000000000000000000000000990100000000000000010000759e00000000000000000000000057558cb8d6005de0bae8a2789d5efaae52dba5a8000076a700000000000000000000000057558cb8d6005de0bae8a2789d5efaae52dba5a888b7671cc97577e91b79e553716757a8ab4346ec9116e80faa2f34f7ed92a9af000000000000000000000000741f0d8bde14140f62107fc60a0ee122b37d463000000000000f424000000000000000000000000000000000000000000000000000000000000000000000000000001600030100110100000000000000000000000000030d4000000000000000000000",
          "blockHash": "0x2f9baf35676fe620fe6e7a92b1d766cc8df1c30551528c67376671945dcd39e7",
          "blockNumber": "0x15a87d0b",
          "transactionHash": "0xa530de94aa789b07847524ec5828accbbde9cfb87fe8cea98ef4e342519c4d9e",
          "transactionIndex": "0x2",
          "logIndex": "0x3",
          "removed": false
        },
        {
          "address": "0x57558cb8d6005de0bae8a2789d5efaae52dba5a8",
          "topics": [
            "0x85496b760a4b7f8d66384b9df21b381f5d1b1e79f229a47aaf4c232edc2fe59a",
            "0x88b7671cc97577e91b79e553716757a8ab4346ec9116e80faa2f34f7ed92a9af",
            "0x000000000000000000000000741f0d8bde14140f62107fc60a0ee122b37d4630"
          ],
          "data": "0x00000000000000000000000000000000000000000000000000000000000076a70000000000000000000000000000000000000000000000000de0b6b3a76400000000000000000000000000000000000000000000000000000de0b6b3a7640000",
          "blockHash": "0x2f9baf35676fe620fe6e7a92b1d766cc8df1c30551528c67376671945dcd39e7",
          "blockNumber": "0x15a87d0b",
          "transactionHash": "0xa530de94aa789b07847524ec5828accbbde9cfb87fe8cea98ef4e342519c4d9e",
          "transactionIndex": "0x2",
          "logIndex": "0x4",
          "removed": false
        }
      ],
      "logsBloom": "0x0000000000000000000000000004004000000000000000000000000000100000000000000000000000000000000000040000010000040000000000000000000000000200000000000000000800000000000000000000000000000000000000000000000002080000800000400000080000000000001000000000001000002000000000000000000000000008000000000000000000000000000000000000000000000000a000001000100000000000000000000000400000000440000000008000000002000000000000000080000000000000000000000000008000000020000000040000000000000000000000002000000000018000000000000000000000",
      "type": "0x2",
      "transactionHash": "0xa530de94aa789b07847524ec5828accbbde9cfb87fe8cea98ef4e342519c4d9e",
      "transactionIndex": "0x2",
      "blockHash": "0x2f9baf35676fe620fe6e7a92b1d766cc8df1c30551528c67376671945dcd39e7",
      "blockNumber": "0x15a87d0b",
      "gasUsed": "0x6a6c7",
      "effectiveGasPrice": "0x989680",
      "from": "0x45dce8e4f2dc005a5f28206a46cb034697eeda8e",
      "to": "0x741f0d8bde14140f62107fc60a0ee122b37d4630",
      "contractAddress": null,
      "gasUsedForL1": "0x4876",
      "l1BlockNumber": "0x15f8217",
      "timeboosted": false
    }
  ],
  "libraries": [],
  "pending": [],
  "returns": {},
  "timestamp": 1753932885,
  "chain": 42161,
  "commit": "bc2ac99"
}