{
  "transactions": [
    {
      "hash": "0xd80f9c478ec6fc7196758ff64ee7f557e521ffeeaea5bd504e8d38af0d39bffc",
      "transactionType": "CALL",
      "contractName": null,
      "contractAddress": "0x741f0d8bde14140f62107fc60a0ee122b37d4630",
      "function": "batchBridgeWithEthFeeFromWallet((uint32,bytes32,uint256,uint256,bytes,bytes,bytes)[],address[],address[])",
      "arguments": [
        "[(30367, 0x000000000000000000000000741f0d8bde14140f62107fc60a0ee122b37d4630, 500000000000000000, 0, 0x, 0x, 0x)]",
        "[0x57558Cb8d6005DE0BAe8a2789d5EfaaE52dba5a8]",
        "[0x741F0d8Bde14140f62107FC60A0EE122B37D4630]"
      ],
      "transaction": {
        "from": "0x45dce8e4f2dc005a5f28206a46cb034697eeda8e",
        "to": "0x741f0d8bde14140f62107fc60a0ee122b37d4630",
        "gas": "0xb0c09",
        "value": "0xbe85d852306",
        "input": "0xb70d4241000000000000000000000000000000000000000000000000000000000000006000000000000000000000000000000000000000000000000000000000000001e0000000000000000000000000000000000000000000000000000000000000022000000000000000000000000000000000000000000000000000000000000000010000000000000000000000000000000000000000000000000000000000000020000000000000000000000000000000000000000000000000000000000000769f000000000000000000000000741f0d8bde14140f62107fc60a0ee122b37d463000000000000000000000000000000000000000000000000006f05b59d3b20000000000000000000000000000000000000000000000000000000000000000000000000000000000000000000000000000000000000000000000000000000000e000000000000000000000000000000000000000000000000000000000000001000000000000000000000000000000000000000000000000000000000000000120000000000000000000000000000000000000000000000000000000000000000000000000000000000000000000000000000000000000000000000000000000000000000000000000000000000000000000000000000000000000000000000000000000000000000000000000000000000000000000000000000000000000000100000000000000000000000057558cb8d6005de0bae8a2789d5efaae52dba5a80000000000000000000000000000000000000000000000000000000000000001000000000000000000000000741f0d8bde14140f62107fc60a0ee122b37d4630",
        "nonce": "0xae",
        "chainId": "0xa4b1"
      },
      "additionalContracts": [],
      "isFixedGasLimit": false
    }
  ],
  "receipts": [
    {
      "status": "0x1",
      "cumulativeGasUsed": "0x7ec92",
      "logs": [
        {
          "address": "0x57558cb8d6005de0bae8a2789d5efaae52dba5a8",
          "topics": [
            "0xddf252ad1be2c89b69c2b068fc378daa952ba7f163c4a11628f55a4df523b3ef",
            "0x000000000000000000000000741f0d8bde14140f62107fc60a0ee122b37d4630",
            "0x0000000000000000000000000000000000000000000000000000000000000000"
          ],
          "data": "0x00000000000000000000000000000000000000000000000006f05b59d3b20000",
          "blockHash": "0xfffd23f3899c9b4bcd25b7d8436e0895b1ff2a070d62c34a110c10db4ce9d3d3",
          "blockNumber": "0x169e2ff8",
          "transactionHash": "0xd80f9c478ec6fc7196758ff64ee7f557e521ffeeaea5bd504e8d38af0d39bffc",
          "transactionIndex": "0x1",
          "logIndex": "0x0",
          "removed": false
        },
        {
          "address": "0x975bcd720be66659e3eb3c0e4f1866a3020e493a",
          "topics": [
            "0x61ed099e74a97a1d7f8bb0952a88ca8b7b8ebd00c126ea04671f92a81213318a"
          ],
          "data": "0x00000000000000000000000031cae3b7fb82d847621859fb1585353c5720660d000000000000000000000000000000000000000000000000000007cb912f9833",
          "blockHash": "0xfffd23f3899c9b4bcd25b7d8436e0895b1ff2a070d62c34a110c10db4ce9d3d3",
          "blockNumber": "0x169e2ff8",
          "transactionHash": "0xd80f9c478ec6fc7196758ff64ee7f557e521ffeeaea5bd504e8d38af0d39bffc",
          "transactionIndex": "0x1",
          "logIndex": "0x1",
          "removed": false
        },
        {
          "address": "0x975bcd720be66659e3eb3c0e4f1866a3020e493a",
          "topics": [
            "0x07ea52d82345d6e838192107d8fd7123d9c2ec8e916cd0aad13fd2b60db24644"
          ],
          "data": "0x000000000000000000000000000000000000000000000000000000000000006000000000000000000000000000000000000000000000000000000000000000e00000000000000000000000000000000000000000000000000000000000000100000000000000000000000000000000000000000000000000000000000000000300000000000000000000000019670df5e16bea2ba9b9e68b48c054c5baea06b80000000000000000000000002f55c492897526677c5b68fb199ea31e2c126416000000000000000000000000b42726e41dbe96fc4ea6d73cd792167608353698000000000000000000000000000000000000000000000000000000000000000000000000000000000000000000000000000000000000000000000000000000030000000000000000000000000000000000000000000000000000015a154a77190000000000000000000000000000000000000000000000000000015a154a771900000000000000000000000000000000000000000000000000000168a1c09ca1",
          "blockHash": "0xfffd23f3899c9b4bcd25b7d8436e0895b1ff2a070d62c34a110c10db4ce9d3d3",
          "blockNumber": "0x169e2ff8",
          "transactionHash": "0xd80f9c478ec6fc7196758ff64ee7f557e521ffeeaea5bd504e8d38af0d39bffc",
          "transactionIndex": "0x1",
          "logIndex": "0x2",
          "removed": false
        },
        {
          "address": "0x1a44076050125825900e736c501f859c50fe728c",
          "topics": [
            "0x1ab700d4ced0c005b164c0f789fd09fcbb0156d4c2041b8a3bfbcd961cd1567f"
          ],
          "data": "0x00000000000000000000000000000000000000000000000000000000000000600000000000000000000000000000000000000000000000000000000000000120000000000000000000000000975bcd720be66659e3eb3c0e4f1866a3020e493a00000000000000000000000000000000000000000000000000000000000000990100000000000000010000759e00000000000000000000000057558cb8d6005de0bae8a2789d5efaae52dba5a80000769f00000000000000000000000057558cb8d6005de0bae8a2789d5efaae52dba5a8e43cac0c66e610d3a86c0c96db691540160cc97940bc32bd938012b69670b454000000000000000000000000741f0d8bde14140f62107fc60a0ee122b37d4630000000000007a12000000000000000000000000000000000000000000000000000000000000000000000000000001600030100110100000000000000000000000000030d4000000000000000000000",
          "blockHash": "0xfffd23f3899c9b4bcd25b7d8436e0895b1ff2a070d62c34a110c10db4ce9d3d3",
          "blockNumber": "0x169e2ff8",
          "transactionHash": "0xd80f9c478ec6fc7196758ff64ee7f557e521ffeeaea5bd504e8d38af0d39bffc",
          "transactionIndex": "0x1",
          "logIndex": "0x3",
          "removed": false
        },
        {
          "address": "0x57558cb8d6005de0bae8a2789d5efaae52dba5a8",
          "topics": [
            "0x85496b760a4b7f8d66384b9df21b381f5d1b1e79f229a47aaf4c232edc2fe59a",
            "0xe43cac0c66e610d3a86c0c96db691540160cc97940bc32bd938012b69670b454",
            "0x000000000000000000000000741f0d8bde14140f62107fc60a0ee122b37d4630"
          ],
          "data": "0x000000000000000000000000000000000000000000000000000000000000769f00000000000000000000000000000000000000000000000006f05b59d3b2000000000000000000000000000000000000000000000000000006f05b59d3b20000",
          "blockHash": "0xfffd23f3899c9b4bcd25b7d8436e0895b1ff2a070d62c34a110c10db4ce9d3d3",
          "blockNumber": "0x169e2ff8",
          "transactionHash": "0xd80f9c478ec6fc7196758ff64ee7f557e521ffeeaea5bd504e8d38af0d39bffc",
          "transactionIndex": "0x1",
          "logIndex": "0x4",
          "removed": false
        }
      ],
      "logsBloom": "0x0000000000000000000000000004004000000000000000000000000000100000000000000008000000000000000000040000010000040000000000000000000000000200000000000000000800000000000000000000000000000000000000000000000002080000800000000000080000000000001000000000001010000000000000000000000000002008000000000000000000000000000000000000000000000000a000001000100000000000000000000000400000000440000000008000000002000000000000000080000000000000000000000000000000000020000000040000000000000000000000002000000000018000000000000000000000",
      "type": "0x2",
      "transactionHash": "0xd80f9c478ec6fc7196758ff64ee7f557e521ffeeaea5bd504e8d38af0d39bffc",
      "transactionIndex": "0x1",
      "blockHash": "0xfffd23f3899c9b4bcd25b7d8436e0895b1ff2a070d62c34a110c10db4ce9d3d3",
      "blockNumber": "0x169e2ff8",
      "gasUsed": "0x7ec92",
      "effectiveGasPrice": "0x989680",
      "from": "0x45dce8e4f2dc005a5f28206a46cb034697eeda8e",
      "to": "0x741f0d8bde14140f62107fc60a0ee122b37d4630",
      "contractAddress": null,
      "gasUsedForL1": "0x18e41",
      "l1BlockNumber": "0x1649809",
      "timeboosted": false
    }
  ],
  "libraries": [],
  "pending": [],
  "returns": {},
  "timestamp": 1757954530421,
  "chain": 42161,
  "commit": "76d7e35"
}