{
  "transactions": [
    {
      "hash": "0x2897312cb10bde705c603f7520e3c9306dad7d1d57f08124defd986d23e63011",
      "transactionType": "CALL",
      "contractName": null,
      "contractAddress": "0x741f0d8bde14140f62107fc60a0ee122b37d4630",
      "function": "batchBridgeWithEthFeeFromWallet((uint32,bytes32,uint256,uint256,bytes,bytes,bytes)[],address[],address[])",
      "arguments": [
        "[(30211, 0x0000000000000000000000004a767e2ef83577225522ef8ed71056c6e3acb216, 1000000000000000000, 0, 0x, 0x, 0x), (30214, 0x000000000000000000000000741f0d8bde14140f62107fc60a0ee122b37d4630, 1000000000000000000, 0, 0x, 0x, 0x)]",
        "[0x57558Cb8d6005DE0BAe8a2789d5EfaaE52dba5a8, 0x57558Cb8d6005DE0BAe8a2789d5EfaaE52dba5a8]",
        "[0x741F0d8Bde14140f62107FC60A0EE122B37D4630, 0x741F0d8Bde14140f62107FC60A0EE122B37D4630]"
      ],
      "transaction": {
        "from": "0x45dce8e4f2dc005a5f28206a46cb034697eeda8e",
        "to": "0x741f0d8bde14140f62107fc60a0ee122b37d4630",
        "gas": "0xddffc",
        "value": "0x8bf5cb73675b",
        "input": "0xb70d42410000000000000000000000000000000000000000000000000000000000000060000000000000000000000000000000000000000000000000000000000000034000000000000000000000000000000000000000000000000000000000000003a000000000000000000000000000000000000000000000000000000000000000020000000000000000000000000000000000000000000000000000000000000040000000000000000000000000000000000000000000000000000000000000018000000000000000000000000000000000000000000000000000000000000076030000000000000000000000004a767e2ef83577225522ef8ed71056c6e3acb2160000000000000000000000000000000000000000000000000de0b6b3a7640000000000000000000000000000000000000000000000000000000000000000000000000000000000000000000000000000000000000000000000000000000000e0000000000000000000000000000000000000000000000000000000000000010000000000000000000000000000000000000000000000000000000000000001200000000000000000000000000000000000000000000000000000000000000000000000000000000000000000000000000000000000000000000000000000000000000000000000000000000000000000000000000000000000000000000000000000000000000000000000000000000000000000000000000000000000007606000000000000000000000000741f0d8bde14140f62107fc60a0ee122b37d46300000000000000000000000000000000000000000000000000de0b6b3a7640000000000000000000000000000000000000000000000000000000000000000000000000000000000000000000000000000000000000000000000000000000000e000000000000000000000000000000000000000000000000000000000000001000000000000000000000000000000000000000000000000000000000000000120000000000000000000000000000000000000000000000000000000000000000000000000000000000000000000000000000000000000000000000000000000000000000000000000000000000000000000000000000000000000000000000000000000000000000000000000000000000000000000000000000000000000000200000000000000000000000057558cb8d6005de0bae8a2789d5efaae52dba5a800000000000000000000000057558cb8d6005de0bae8a2789d5efaae52dba5a80000000000000000000000000000000000000000000000000000000000000002000000000000000000000000741f0d8bde14140f62107fc60a0ee122b37d4630000000000000000000000000741f0d8bde14140f62107fc60a0ee122b37d4630",
        "nonce": "0xa7",
        "chainId": "0xa4b1"
      },
      "additionalContracts": [],
      "isFixedGasLimit": false
    }
  ],
  "receipts": [
    {
      "status": "0x1",
      "cumulativeGasUsed": "0xb0bd2",
      "logs": [
        {
          "address": "0x57558cb8d6005de0bae8a2789d5efaae52dba5a8",
          "topics": [
            "0xddf252ad1be2c89b69c2b068fc378daa952ba7f163c4a11628f55a4df523b3ef",
            "0x000000000000000000000000741f0d8bde14140f62107fc60a0ee122b37d4630",
            "0x0000000000000000000000000000000000000000000000000000000000000000"
          ],
          "data": "0x0000000000000000000000000000000000000000000000000de0b6b3a7640000",
          "blockHash": "0x12005104dcbf23de11ca471b8519e84d66206ebfc615234e7a2d33ae2803c485",
          "blockNumber": "0x165a18d2",
          "transactionHash": "0x2897312cb10bde705c603f7520e3c9306dad7d1d57f08124defd986d23e63011",
          "transactionIndex": "0x2",
          "logIndex": "0x0",
          "removed": false
        },
        {
          "address": "0x975bcd720be66659e3eb3c0e4f1866a3020e493a",
          "topics": [
            "0x61ed099e74a97a1d7f8bb0952a88ca8b7b8ebd00c126ea04671f92a81213318a"
          ],
          "data": "0x00000000000000000000000031cae3b7fb82d847621859fb1585353c5720660d000000000000000000000000000000000000000000000000000027a30e382545",
          "blockHash": "0x12005104dcbf23de11ca471b8519e84d66206ebfc615234e7a2d33ae2803c485",
          "blockNumber": "0x165a18d2",
          "transactionHash": "0x2897312cb10bde705c603f7520e3c9306dad7d1d57f08124defd986d23e63011",
          "transactionIndex": "0x2",
          "logIndex": "0x1",
          "removed": false
        },
        {
          "address": "0x975bcd720be66659e3eb3c0e4f1866a3020e493a",
          "topics": [
            "0x07ea52d82345d6e838192107d8fd7123d9c2ec8e916cd0aad13fd2b60db24644"
          ],
          "data": "0x000000000000000000000000000000000000000000000000000000000000006000000000000000000000000000000000000000000000000000000000000000e00000000000000000000000000000000000000000000000000000000000000100000000000000000000000000000000000000000000000000000000000000000300000000000000000000000019670df5e16bea2ba9b9e68b48c054c5baea06b80000000000000000000000002f55c492897526677c5b68fb199ea31e2c126416000000000000000000000000b42726e41dbe96fc4ea6d73cd79216760835369800000000000000000000000000000000000000000000000000000000000000000000000000000000000000000000000000000000000000000000000000000003000000000000000000000000000000000000000000000000000006836ae6e800000000000000000000000000000000000000000000000000000006836ae6e800000000000000000000000000000000000000000000000000000006c9833ce800",
          "blockHash": "0x12005104dcbf23de11ca471b8519e84d66206ebfc615234e7a2d33ae2803c485",
          "blockNumber": "0x165a18d2",
          "transactionHash": "0x2897312cb10bde705c603f7520e3c9306dad7d1d57f08124defd986d23e63011",
          "transactionIndex": "0x2",
          "logIndex": "0x2",
          "removed": false
        },
        {
          "address": "0x1a44076050125825900e736c501f859c50fe728c",
          "topics": [
            "0x1ab700d4ced0c005b164c0f789fd09fcbb0156d4c2041b8a3bfbcd961cd1567f"
          ],
          "data": "0x00000000000000000000000000000000000000000000000000000000000000600000000000000000000000000000000000000000000000000000000000000120000000000000000000000000975bcd720be66659e3eb3c0e4f1866a3020e493a00000000000000000000000000000000000000000000000000000000000000990100000000000000010000759e00000000000000000000000057558cb8d6005de0bae8a2789d5efaae52dba5a800007603000000000000000000000000a057d8d4fc86a62801ce363c169b0a8d192f6ceef62d69bdfe227f420946237d218b70f82ee8d3dd0bfe308e47e41a59a96b572b0000000000000000000000004a767e2ef83577225522ef8ed71056c6e3acb21600000000000f424000000000000000000000000000000000000000000000000000000000000000000000000000001600030100110100000000000000000000000000030d4000000000000000000000",
          "blockHash": "0x12005104dcbf23de11ca471b8519e84d66206ebfc615234e7a2d33ae2803c485",
          "blockNumber": "0x165a18d2",
          "transactionHash": "0x2897312cb10bde705c603f7520e3c9306dad7d1d57f08124defd986d23e63011",
          "transactionIndex": "0x2",
          "logIndex": "0x3",
          "removed": false
        },
        {
          "address": "0x57558cb8d6005de0bae8a2789d5efaae52dba5a8",
          "topics": [
            "0x85496b760a4b7f8d66384b9df21b381f5d1b1e79f229a47aaf4c232edc2fe59a",
            "0xf62d69bdfe227f420946237d218b70f82ee8d3dd0bfe308e47e41a59a96b572b",
            "0x000000000000000000000000741f0d8bde14140f62107fc60a0ee122b37d4630"
          ],
          "data": "0x00000000000000000000000000000000000000000000000000000000000076030000000000000000000000000000000000000000000000000de0b6b3a76400000000000000000000000000000000000000000000000000000de0b6b3a7640000",
          "blockHash": "0x12005104dcbf23de11ca471b8519e84d66206ebfc615234e7a2d33ae2803c485",
          "blockNumber": "0x165a18d2",
          "transactionHash": "0x2897312cb10bde705c603f7520e3c9306dad7d1d57f08124defd986d23e63011",
          "transactionIndex": "0x2",
          "logIndex": "0x4",
          "removed": false
        },
        {
          "address": "0x57558cb8d6005de0bae8a2789d5efaae52dba5a8",
          "topics": [
            "0xddf252ad1be2c89b69c2b068fc378daa952ba7f163c4a11628f55a4df523b3ef",
            "0x000000000000000000000000741f0d8bde14140f62107fc60a0ee122b37d4630",
            "0x0000000000000000000000000000000000000000000000000000000000000000"
          ],
          "data": "0x0000000000000000000000000000000000000000000000000de0b6b3a7640000",
          "blockHash": "0x12005104dcbf23de11ca471b8519e84d66206ebfc615234e7a2d33ae2803c485",
          "blockNumber": "0x165a18d2",
          "transactionHash": "0x2897312cb10bde705c603f7520e3c9306dad7d1d57f08124defd986d23e63011",
          "transactionIndex": "0x2",
          "logIndex": "0x5",
          "removed": false
        },
        {
          "address": "0x975bcd720be66659e3eb3c0e4f1866a3020e493a",
          "topics": [
            "0x61ed099e74a97a1d7f8bb0952a88ca8b7b8ebd00c126ea04671f92a81213318a"
          ],
          "data": "0x00000000000000000000000031cae3b7fb82d847621859fb1585353c5720660d00000000000000000000000000000000000000000000000000005079b0266d24",
          "blockHash": "0x12005104dcbf23de11ca471b8519e84d66206ebfc615234e7a2d33ae2803c485",
          "blockNumber": "0x165a18d2",
          "transactionHash": "0x2897312cb10bde705c603f7520e3c9306dad7d1d57f08124defd986d23e63011",
          "transactionIndex": "0x2",
          "logIndex": "0x6",
          "removed": false
        },
        {
          "address": "0x975bcd720be66659e3eb3c0e4f1866a3020e493a",
          "topics": [
            "0x07ea52d82345d6e838192107d8fd7123d9c2ec8e916cd0aad13fd2b60db24644"
          ],
          "data": "0x000000000000000000000000000000000000000000000000000000000000006000000000000000000000000000000000000000000000000000000000000000e00000000000000000000000000000000000000000000000000000000000000100000000000000000000000000000000000000000000000000000000000000000300000000000000000000000019670df5e16bea2ba9b9e68b48c054c5baea06b80000000000000000000000002f55c492897526677c5b68fb199ea31e2c126416000000000000000000000000b42726e41dbe96fc4ea6d73cd7921676083536980000000000000000000000000000000000000000000000000000000000000000000000000000000000000000000000000000000000000000000000000000000300000000000000000000000000000000000000000000000000000002dc6aacd900000000000000000000000000000000000000000000000000000002dc6aacd900000000000000000000000000000000000000000000000000000002fb34c340",
          "blockHash": "0x12005104dcbf23de11ca471b8519e84d66206ebfc615234e7a2d33ae2803c485",
          "blockNumber": "0x165a18d2",
          "transactionHash": "0x2897312cb10bde705c603f7520e3c9306dad7d1d57f08124defd986d23e63011",
          "transactionIndex": "0x2",
          "logIndex": "0x7",
          "removed": false
        },
        {
          "address": "0x1a44076050125825900e736c501f859c50fe728c",
          "topics": [
            "0x1ab700d4ced0c005b164c0f789fd09fcbb0156d4c2041b8a3bfbcd961cd1567f"
          ],
          "data": "0x00000000000000000000000000000000000000000000000000000000000000600000000000000000000000000000000000000000000000000000000000000120000000000000000000000000975bcd720be66659e3eb3c0e4f1866a3020e493a00000000000000000000000000000000000000000000000000000000000000990100000000000000010000759e00000000000000000000000057558cb8d6005de0bae8a2789d5efaae52dba5a80000760600000000000000000000000057558cb8d6005de0bae8a2789d5efaae52dba5a8d40888addcd9df545211da2e906655045666de7136c11911f33e9f924a7ea3f0000000000000000000000000741f0d8bde14140f62107fc60a0ee122b37d463000000000000f424000000000000000000000000000000000000000000000000000000000000000000000000000001600030100110100000000000000000000000000030d4000000000000000000000",
          "blockHash": "0x12005104dcbf23de11ca471b8519e84d66206ebfc615234e7a2d33ae2803c485",
          "blockNumber": "0x165a18d2",
          "transactionHash": "0x2897312cb10bde705c603f7520e3c9306dad7d1d57f08124defd986d23e63011",
          "transactionIndex": "0x2",
          "logIndex": "0x8",
          "removed": false
        },
        {
          "address": "0x57558cb8d6005de0bae8a2789d5efaae52dba5a8",
          "topics": [
            "0x85496b760a4b7f8d66384b9df21b381f5d1b1e79f229a47aaf4c232edc2fe59a",
            "0xd40888addcd9df545211da2e906655045666de7136c11911f33e9f924a7ea3f0",
            "0x000000000000000000000000741f0d8bde14140f62107fc60a0ee122b37d4630"
          ],
          "data": "0x00000000000000000000000000000000000000000000000000000000000076060000000000000000000000000000000000000000000000000de0b6b3a76400000000000000000000000000000000000000000000000000000de0b6b3a7640000",
          "blockHash": "0x12005104dcbf23de11ca471b8519e84d66206ebfc615234e7a2d33ae2803c485",
          "blockNumber": "0x165a18d2",
          "transactionHash": "0x2897312cb10bde705c603f7520e3c9306dad7d1d57f08124defd986d23e63011",
          "transactionIndex": "0x2",
          "logIndex": "0x9",
          "removed": false
        }
      ],
      "logsBloom": "0x0000000000000000000000000004004000000000000000000008000000100000000000000000000000000000000000040000010000040000000000000000000000000200000000000000000800000000000000000000000000000000000000000000000002080000800000000000080000000000001000000000001000000000000000000000000000000008000000000000020000000000000000004000008000000000a000001000100000000000000000000000400001000440000000008000000002000000000000040080000000000000000000000000000000000020000000040000000000000000000000002000000000018000000000000000000000",
      "type": "0x2",
      "transactionHash": "0x2897312cb10bde705c603f7520e3c9306dad7d1d57f08124defd986d23e63011",
      "transactionIndex": "0x2",
      "blockHash": "0x12005104dcbf23de11ca471b8519e84d66206ebfc615234e7a2d33ae2803c485",
      "blockNumber": "0x165a18d2",
      "gasUsed": "0xa4765",
      "effectiveGasPrice": "0xb90730",
      "from": "0x45dce8e4f2dc005a5f28206a46cb034697eeda8e",
      "to": "0x741f0d8bde14140f62107fc60a0ee122b37d4630",
      "contractAddress": null,
      "gasUsedForL1": "0x12ae",
      "l1BlockNumber": "0x1632f2a",
      "timeboosted": false
    }
  ],
  "libraries": [],
  "pending": [],
  "returns": {},
  "timestamp": 1756839447208,
  "chain": 42161,
  "commit": "4c3f406"
}