{
  "transactions": [
    {
      "hash": "0xb878e88ed2976f5dc0ba376e144ae37f4b4cd540ca7620e90ce4e8511630f069",
      "transactionType": "CALL",
      "contractName": null,
      "contractAddress": "0x741f0d8bde14140f62107fc60a0ee122b37d4630",
      "function": "batchBridgeWithEthFeeFromWallet((uint32,bytes32,uint256,uint256,bytes,bytes,bytes)[],address[],address[])",
      "arguments": [
        "[(30370, 0x000000000000000000000000741f0d8bde14140f62107fc60a0ee122b37d4630, 1000000000000000000, 0, 0x, 0x, 0x)]",
        "[0x57558Cb8d6005DE0BAe8a2789d5EfaaE52dba5a8]",
        "[0x741F0d8Bde14140f62107FC60A0EE122B37D4630]"
      ],
      "transaction": {
        "from": "0x45dce8e4f2dc005a5f28206a46cb034697eeda8e",
        "to": "0x741f0d8bde14140f62107fc60a0ee122b37d4630",
        "gas": "0x8ebbf",
        "value": "0x168ca7d38ea7",
        "input": "0xb70d4241000000000000000000000000000000000000000000000000000000000000006000000000000000000000000000000000000000000000000000000000000001e000000000000000000000000000000000000000000000000000000000000002200000000000000000000000000000000000000000000000000000000000000001000000000000000000000000000000000000000000000000000000000000002000000000000000000000000000000000000000000000000000000000000076a2000000000000000000000000741f0d8bde14140f62107fc60a0ee122b37d46300000000000000000000000000000000000000000000000000de0b6b3a7640000000000000000000000000000000000000000000000000000000000000000000000000000000000000000000000000000000000000000000000000000000000e000000000000000000000000000000000000000000000000000000000000001000000000000000000000000000000000000000000000000000000000000000120000000000000000000000000000000000000000000000000000000000000000000000000000000000000000000000000000000000000000000000000000000000000000000000000000000000000000000000000000000000000000000000000000000000000000000000000000000000000000000000000000000000000000100000000000000000000000057558cb8d6005de0bae8a2789d5efaae52dba5a80000000000000000000000000000000000000000000000000000000000000001000000000000000000000000741f0d8bde14140f62107fc60a0ee122b37d4630",
        "nonce": "0x94",
        "chainId": "0xa4b1"
      },
      "additionalContracts": [],
      "isFixedGasLimit": false
    }
  ],
  "receipts": [
    {
      "status": "0x1",
      "cumulativeGasUsed": "0x11ae132",
      "logs": [
        {
          "address": "0x57558cb8d6005de0bae8a2789d5efaae52dba5a8",
          "topics": [
            "0xddf252ad1be2c89b69c2b068fc378daa952ba7f163c4a11628f55a4df523b3ef",
            "0x000000000000000000000000741f0d8bde14140f62107fc60a0ee122b37d4630",
            "0x0000000000000000000000000000000000000000000000000000000000000000"
          ],
          "data": "0x0000000000000000000000000000000000000000000000000de0b6b3a7640000",
          "blockHash": "0x7c8c2c3354d063a8d3c7e5e10e73c4abcef55fd1d9936c568e657f0d5a89727d",
          "blockNumber": "0x1566f3a0",
          "transactionHash": "0xb878e88ed2976f5dc0ba376e144ae37f4b4cd540ca7620e90ce4e8511630f069",
          "transactionIndex": "0x6",
          "logIndex": "0x406",
          "removed": false
        },
        {
          "address": "0x975bcd720be66659e3eb3c0e4f1866a3020e493a",
          "topics": [
            "0x61ed099e74a97a1d7f8bb0952a88ca8b7b8ebd00c126ea04671f92a81213318a"
          ],
          "data": "0x00000000000000000000000031cae3b7fb82d847621859fb1585353c5720660d00000000000000000000000000000000000000000000000000000d7389dc9b49",
          "blockHash": "0x7c8c2c3354d063a8d3c7e5e10e73c4abcef55fd1d9936c568e657f0d5a89727d",
          "blockNumber": "0x1566f3a0",
          "transactionHash": "0xb878e88ed2976f5dc0ba376e144ae37f4b4cd540ca7620e90ce4e8511630f069",
          "transactionIndex": "0x6",
          "logIndex": "0x407",
          "removed": false
        },
        {
          "address": "0x975bcd720be66659e3eb3c0e4f1866a3020e493a",
          "topics": [
            "0x07ea52d82345d6e838192107d8fd7123d9c2ec8e916cd0aad13fd2b60db24644"
          ],
          "data": "0x000000000000000000000000000000000000000000000000000000000000006000000000000000000000000000000000000000000000000000000000000000e00000000000000000000000000000000000000000000000000000000000000100000000000000000000000000000000000000000000000000000000000000000300000000000000000000000019670df5e16bea2ba9b9e68b48c054c5baea06b80000000000000000000000002f55c492897526677c5b68fb199ea31e2c126416000000000000000000000000b42726e41dbe96fc4ea6d73cd79216760835369800000000000000000000000000000000000000000000000000000000000000000000000000000000000000000000000000000000000000000000000000000003000000000000000000000000000000000000000000000000000002fda4c40913000000000000000000000000000000000000000000000000000002fda4c409130000000000000000000000000000000000000000000000000000031dd46ee138",
          "blockHash": "0x7c8c2c3354d063a8d3c7e5e10e73c4abcef55fd1d9936c568e657f0d5a89727d",
          "blockNumber": "0x1566f3a0",
          "transactionHash": "0xb878e88ed2976f5dc0ba376e144ae37f4b4cd540ca7620e90ce4e8511630f069",
          "transactionIndex": "0x6",
          "logIndex": "0x408",
          "removed": false
        },
        {
          "address": "0x1a44076050125825900e736c501f859c50fe728c",
          "topics": [
            "0x1ab700d4ced0c005b164c0f789fd09fcbb0156d4c2041b8a3bfbcd961cd1567f"
          ],
          "data": "0x00000000000000000000000000000000000000000000000000000000000000600000000000000000000000000000000000000000000000000000000000000120000000000000000000000000975bcd720be66659e3eb3c0e4f1866a3020e493a00000000000000000000000000000000000000000000000000000000000000990100000000000000010000759e00000000000000000000000057558cb8d6005de0bae8a2789d5efaae52dba5a8000076a200000000000000000000000057558cb8d6005de0bae8a2789d5efaae52dba5a8f1713c6004a04a0893aeb3acb48263a20a5c46a3bd438a69e370c79857555485000000000000000000000000741f0d8bde14140f62107fc60a0ee122b37d463000000000000f424000000000000000000000000000000000000000000000000000000000000000000000000000001600030100110100000000000000000000000000030d4000000000000000000000",
          "blockHash": "0x7c8c2c3354d063a8d3c7e5e10e73c4abcef55fd1d9936c568e657f0d5a89727d",
          "blockNumber": "0x1566f3a0",
          "transactionHash": "0xb878e88ed2976f5dc0ba376e144ae37f4b4cd540ca7620e90ce4e8511630f069",
          "transactionIndex": "0x6",
          "logIndex": "0x409",
          "removed": false
        },
        {
          "address": "0x57558cb8d6005de0bae8a2789d5efaae52dba5a8",
          "topics": [
            "0x85496b760a4b7f8d66384b9df21b381f5d1b1e79f229a47aaf4c232edc2fe59a",
            "0xf1713c6004a04a0893aeb3acb48263a20a5c46a3bd438a69e370c79857555485",
            "0x000000000000000000000000741f0d8bde14140f62107fc60a0ee122b37d4630"
          ],
          "data": "0x00000000000000000000000000000000000000000000000000000000000076a20000000000000000000000000000000000000000000000000de0b6b3a76400000000000000000000000000000000000000000000000000000de0b6b3a7640000",
          "blockHash": "0x7c8c2c3354d063a8d3c7e5e10e73c4abcef55fd1d9936c568e657f0d5a89727d",
          "blockNumber": "0x1566f3a0",
          "transactionHash": "0xb878e88ed2976f5dc0ba376e144ae37f4b4cd540ca7620e90ce4e8511630f069",
          "transactionIndex": "0x6",
          "logIndex": "0x40a",
          "removed": false
        }
      ],
      "logsBloom": "0x0000000000000000000000000004004000000000000000000000000000100000000000000000000000000000000000040000010000040000000000000000000000000200000000000000000800000000000000000000000000000000000000000000000002084000800000000000080000000000001000000800001000000000000000000000000000000008000000000000000000000000000000000000000000000000a000001000100000000000000000000000400000000440000000008000000002000000000000000080000000000000000000000000000000000020000000040000000000000000000004002000000000018000000000000000000000",
      "type": "0x2",
      "transactionHash": "0xb878e88ed2976f5dc0ba376e144ae37f4b4cd540ca7620e90ce4e8511630f069",
      "transactionIndex": "0x6",
      "blockHash": "0x7c8c2c3354d063a8d3c7e5e10e73c4abcef55fd1d9936c568e657f0d5a89727d",
      "blockNumber": "0x1566f3a0",
      "gasUsed": "0x68f4f",
      "effectiveGasPrice": "0x1e42568",
      "from": "0x45dce8e4f2dc005a5f28206a46cb034697eeda8e",
      "to": "0x741f0d8bde14140f62107fc60a0ee122b37d4630",
      "contractAddress": null,
      "gasUsedForL1": "0x30fe",
      "l1BlockNumber": "0x15e2740",
      "timeboosted": false
    }
  ],
  "libraries": [],
  "pending": [],
  "returns": {},
  "timestamp": 1752860521,
  "chain": 42161,
  "commit": "c079579"
}