{
  "transactions": [
    {
      "hash": "0x9509838c957c5dbe9d5b24584554bf7e118fbe5516953ff1b1db53ae631ed881",
      "transactionType": "CALL",
      "contractName": null,
      "contractAddress": "0x741f0d8bde14140f62107fc60a0ee122b37d4630",
      "function": "batchBridgeWithEthFeeFromWallet((uint32,bytes32,uint256,uint256,bytes,bytes,bytes)[],address[],address[])",
      "arguments": [
        "[(30383, 0x000000000000000000000000741f0d8bde14140f62107fc60a0ee122b37d4630, 500000000000000000, 0, 0x, 0x, 0x)]",
        "[0x57558Cb8d6005DE0BAe8a2789d5EfaaE52dba5a8]",
        "[0x741F0d8Bde14140f62107FC60A0EE122B37D4630]"
      ],
      "transaction": {
        "from": "0x45dce8e4f2dc005a5f28206a46cb034697eeda8e",
        "to": "0x741f0d8bde14140f62107fc60a0ee122b37d4630",
        "gas": "0x8996c",
        "value": "0x14b28402c571",
        "input": "0xb70d4241000000000000000000000000000000000000000000000000000000000000006000000000000000000000000000000000000000000000000000000000000001e000000000000000000000000000000000000000000000000000000000000002200000000000000000000000000000000000000000000000000000000000000001000000000000000000000000000000000000000000000000000000000000002000000000000000000000000000000000000000000000000000000000000076af000000000000000000000000741f0d8bde14140f62107fc60a0ee122b37d463000000000000000000000000000000000000000000000000006f05b59d3b20000000000000000000000000000000000000000000000000000000000000000000000000000000000000000000000000000000000000000000000000000000000e000000000000000000000000000000000000000000000000000000000000001000000000000000000000000000000000000000000000000000000000000000120000000000000000000000000000000000000000000000000000000000000000000000000000000000000000000000000000000000000000000000000000000000000000000000000000000000000000000000000000000000000000000000000000000000000000000000000000000000000000000000000000000000000000100000000000000000000000057558cb8d6005de0bae8a2789d5efaae52dba5a80000000000000000000000000000000000000000000000000000000000000001000000000000000000000000741f0d8bde14140f62107fc60a0ee122b37d4630",
        "nonce": "0xb5",
        "chainId": "0xa4b1"
      },
      "additionalContracts": [],
      "isFixedGasLimit": false
    }
  ],
  "receipts": [
    {
      "status": "0x1",
      "cumulativeGasUsed": "0x1128ee",
      "logs": [
        {
          "address": "0x57558cb8d6005de0bae8a2789d5efaae52dba5a8",
          "topics": [
            "0xddf252ad1be2c89b69c2b068fc378daa952ba7f163c4a11628f55a4df523b3ef",
            "0x000000000000000000000000741f0d8bde14140f62107fc60a0ee122b37d4630",
            "0x0000000000000000000000000000000000000000000000000000000000000000"
          ],
          "data": "0x00000000000000000000000000000000000000000000000006f05b59d3b20000",
          "blockHash": "0x5dbe90008265737a69589d6930136d498a8893db8933fd87841af15f6df646e3",
          "blockNumber": "0x17087b71",
          "transactionHash": "0x9509838c957c5dbe9d5b24584554bf7e118fbe5516953ff1b1db53ae631ed881",
          "transactionIndex": "0x5",
          "logIndex": "0x11",
          "removed": false
        },
        {
          "address": "0x975bcd720be66659e3eb3c0e4f1866a3020e493a",
          "topics": [
            "0x61ed099e74a97a1d7f8bb0952a88ca8b7b8ebd00c126ea04671f92a81213318a"
          ],
          "data": "0x00000000000000000000000031cae3b7fb82d847621859fb1585353c5720660d000000000000000000000000000000000000000000000000000014b283fa2dba",
          "blockHash": "0x5dbe90008265737a69589d6930136d498a8893db8933fd87841af15f6df646e3",
          "blockNumber": "0x17087b71",
          "transactionHash": "0x9509838c957c5dbe9d5b24584554bf7e118fbe5516953ff1b1db53ae631ed881",
          "transactionIndex": "0x5",
          "logIndex": "0x12",
          "removed": false
        },
        {
          "address": "0x975bcd720be66659e3eb3c0e4f1866a3020e493a",
          "topics": [
            "0x07ea52d82345d6e838192107d8fd7123d9c2ec8e916cd0aad13fd2b60db24644"
          ],
          "data": "0x000000000000000000000000000000000000000000000000000000000000006000000000000000000000000000000000000000000000000000000000000000e00000000000000000000000000000000000000000000000000000000000000100000000000000000000000000000000000000000000000000000000000000000300000000000000000000000019670df5e16bea2ba9b9e68b48c054c5baea06b80000000000000000000000002f55c492897526677c5b68fb199ea31e2c126416000000000000000000000000b42726e41dbe96fc4ea6d73cd79216760835369800000000000000000000000000000000000000000000000000000000000000000000000000000000000000000000000000000000000000000000000000000003000000000000000000000000000000000000000000000000000000000002d31b000000000000000000000000000000000000000000000000000000000002d31b000000000000000000000000000000000000000000000000000000000002f181",
          "blockHash": "0x5dbe90008265737a69589d6930136d498a8893db8933fd87841af15f6df646e3",
          "blockNumber": "0x17087b71",
          "transactionHash": "0x9509838c957c5dbe9d5b24584554bf7e118fbe5516953ff1b1db53ae631ed881",
          "transactionIndex": "0x5",
          "logIndex": "0x13",
          "removed": false
        },
        {
          "address": "0x1a44076050125825900e736c501f859c50fe728c",
          "topics": [
            "0x1ab700d4ced0c005b164c0f789fd09fcbb0156d4c2041b8a3bfbcd961cd1567f"
          ],
          "data": "0x00000000000000000000000000000000000000000000000000000000000000600000000000000000000000000000000000000000000000000000000000000120000000000000000000000000975bcd720be66659e3eb3c0e4f1866a3020e493a00000000000000000000000000000000000000000000000000000000000000990100000000000000010000759e00000000000000000000000057558cb8d6005de0bae8a2789d5efaae52dba5a8000076af00000000000000000000000057558cb8d6005de0bae8a2789d5efaae52dba5a83232f0c9a80660a4c42efad4ffcb3689e5a4f1bab162f6b65d4e809954eff671000000000000000000000000741f0d8bde14140f62107fc60a0ee122b37d4630000000000007a12000000000000000000000000000000000000000000000000000000000000000000000000000001600030100110100000000000000000000000000030d4000000000000000000000",
          "blockHash": "0x5dbe90008265737a69589d6930136d498a8893db8933fd87841af15f6df646e3",
          "blockNumber": "0x17087b71",
          "transactionHash": "0x9509838c957c5dbe9d5b24584554bf7e118fbe5516953ff1b1db53ae631ed881",
          "transactionIndex": "0x5",
          "logIndex": "0x14",
          "removed": false
        },
        {
          "address": "0x57558cb8d6005de0bae8a2789d5efaae52dba5a8",
          "topics": [
            "0x85496b760a4b7f8d66384b9df21b381f5d1b1e79f229a47aaf4c232edc2fe59a",
            "0x3232f0c9a80660a4c42efad4ffcb3689e5a4f1bab162f6b65d4e809954eff671",
            "0x000000000000000000000000741f0d8bde14140f62107fc60a0ee122b37d4630"
          ],
          "data": "0x00000000000000000000000000000000000000000000000000000000000076af00000000000000000000000000000000000000000000000006f05b59d3b2000000000000000000000000000000000000000000000000000006f05b59d3b20000",
          "blockHash": "0x5dbe90008265737a69589d6930136d498a8893db8933fd87841af15f6df646e3",
          "blockNumber": "0x17087b71",
          "transactionHash": "0x9509838c957c5dbe9d5b24584554bf7e118fbe5516953ff1b1db53ae631ed881",
          "transactionIndex": "0x5",
          "logIndex": "0x15",
          "removed": false
        }
      ],
      "logsBloom": "0x0000000000000000000000000004004000000000000000000000000000100000000000000000000000000000000000040000010000040000000000100000100000000200000000000000000800000000000000000000000000000000000000000000000002080000800000000000080000000000001020000000001000000000000000000000000000000008000000000000000000000000000000000000000000000000a000001000100000000000000000000000400000000440000000008000000002000000000000000080000000000000000000000000000000000020000000040000000000000000000000002000000000018000000000000000000000",
      "type": "0x2",
      "transactionHash": "0x9509838c957c5dbe9d5b24584554bf7e118fbe5516953ff1b1db53ae631ed881",
      "transactionIndex": "0x5",
      "blockHash": "0x5dbe90008265737a69589d6930136d498a8893db8933fd87841af15f6df646e3",
      "blockNumber": "0x17087b71",
      "gasUsed": "0x66196",
      "effectiveGasPrice": "0x989680",
      "from": "0x45dce8e4f2dc005a5f28206a46cb034697eeda8e",
      "to": "0x741f0d8bde14140f62107fc60a0ee122b37d4630",
      "contractAddress": null,
      "gasUsedForL1": "0x345",
      "l1BlockNumber": "0x166caaf",
      "timeboosted": false
    }
  ],
  "libraries": [],
  "pending": [],
  "returns": {},
  "timestamp": 1759693930965,
  "chain": 42161,
  "commit": "eed1662"
}