{
  "transactions": [
    {
      "hash": "0xc87a9676de7a70180db5a106d078624122db02f007e9a3b3e36ee2025093f1c1",
      "transactionType": "CALL",
      "contractName": null,
      "contractAddress": "0x741f0d8bde14140f62107fc60a0ee122b37d4630",
      "function": "batchBridgeWithEthFeeFromWallet((uint32,bytes32,uint256,uint256,bytes,bytes,bytes)[],address[],address[])",
      "arguments": [
        "[(30168, 0x3c1b094729102e0c095ee2417e5940ee4f1eab4763f6113fe75281ab74c62398, 1000000000000000000, 0, 0x, 0x, 0x), (30325, 0x09d0eb2763c96e085fa74ba6cf0d49136f8654c48ec7dbc59279a9066c7dd409, 1000000000000000000, 0, 0x, 0x, 0x), (30108, 0x09d0eb2763c96e085fa74ba6cf0d49136f8654c48ec7dbc59279a9066c7dd409, 1000000000000000000, 0, 0x, 0x, 0x)]",
        "[0x57558Cb8d6005DE0BAe8a2789d5EfaaE52dba5a8, 0x57558Cb8d6005DE0BAe8a2789d5EfaaE52dba5a8, 0x57558Cb8d6005DE0BAe8a2789d5EfaaE52dba5a8]",
        "[0x741F0d8Bde14140f62107FC60A0EE122B37D4630, 0x741F0d8Bde14140f62107FC60A0EE122B37D4630, 0x741F0d8Bde14140f62107FC60A0EE122B37D4630]"
      ],
      "transaction": {
        "from": "0x45dce8e4f2dc005a5f28206a46cb034697eeda8e",
        "to": "0x741f0d8bde14140f62107fc60a0ee122b37d4630",
        "gas": "0x136adc",
        "value": "0x14432cbbaf405",
        "input": "0xb70d4241000000000000000000000000000000000000000000000000000000000000006000000000000000000000000000000000000000000000000000000000000004a000000000000000000000000000000000000000000000000000000000000005200000000000000000000000000000000000000000000000000000000000000003000000000000000000000000000000000000000000000000000000000000006000000000000000000000000000000000000000000000000000000000000001a000000000000000000000000000000000000000000000000000000000000002e000000000000000000000000000000000000000000000000000000000000075d83c1b094729102e0c095ee2417e5940ee4f1eab4763f6113fe75281ab74c623980000000000000000000000000000000000000000000000000de0b6b3a7640000000000000000000000000000000000000000000000000000000000000000000000000000000000000000000000000000000000000000000000000000000000e000000000000000000000000000000000000000000000000000000000000001000000000000000000000000000000000000000000000000000000000000000120000000000000000000000000000000000000000000000000000000000000000000000000000000000000000000000000000000000000000000000000000000000000000000000000000000000000000000000000000000000000000000000000000000000000000000000000000000000000000000000000000000000000767509d0eb2763c96e085fa74ba6cf0d49136f8654c48ec7dbc59279a9066c7dd4090000000000000000000000000000000000000000000000000de0b6b3a7640000000000000000000000000000000000000000000000000000000000000000000000000000000000000000000000000000000000000000000000000000000000e000000000000000000000000000000000000000000000000000000000000001000000000000000000000000000000000000000000000000000000000000000120000000000000000000000000000000000000000000000000000000000000000000000000000000000000000000000000000000000000000000000000000000000000000000000000000000000000000000000000000000000000000000000000000000000000000000000000000000000000000000000000000000000000759c09d0eb2763c96e085fa74ba6cf0d49136f8654c48ec7dbc59279a9066c7dd4090000000000000000000000000000000000000000000000000de0b6b3a7640000000000000000000000000000000000000000000000000000000000000000000000000000000000000000000000000000000000000000000000000000000000e000000000000000000000000000000000000000000000000000000000000001000000000000000000000000000000000000000000000000000000000000000120000000000000000000000000000000000000000000000000000000000000000000000000000000000000000000000000000000000000000000000000000000000000000000000000000000000000000000000000000000000000000000000000000000000000000000000000000000000000000000000000000000000000000300000000000000000000000057558cb8d6005de0bae8a2789d5efaae52dba5a800000000000000000000000057558cb8d6005de0bae8a2789d5efaae52dba5a800000000000000000000000057558cb8d6005de0bae8a2789d5efaae52dba5a80000000000000000000000000000000000000000000000000000000000000003000000000000000000000000741f0d8bde14140f62107fc60a0ee122b37d4630000000000000000000000000741f0d8bde14140f62107fc60a0ee122b37d4630000000000000000000000000741f0d8bde14140f62107fc60a0ee122b37d4630",
        "nonce": "0x86",
        "chainId": "0x1"
      },
      "additionalContracts": [],
      "isFixedGasLimit": false
    }
  ],
  "receipts": [
    {
      "status": "0x1",
      "cumulativeGasUsed": "0x1025e9d",
      "logs": [
        {
          "address": "0x57558cb8d6005de0bae8a2789d5efaae52dba5a8",
          "topics": [
            "0xddf252ad1be2c89b69c2b068fc378daa952ba7f163c4a11628f55a4df523b3ef",
            "0x000000000000000000000000741f0d8bde14140f62107fc60a0ee122b37d4630",
            "0x0000000000000000000000000000000000000000000000000000000000000000"
          ],
          "data": "0x0000000000000000000000000000000000000000000000000de0b6b3a7640000",
          "blockHash": "0xd43c10552a5a59e1422f6890e4807af12b2a5cc88f113ce03a748babd836d998",
          "blockNumber": "0x15d2cdd",
          "transactionHash": "0xc87a9676de7a70180db5a106d078624122db02f007e9a3b3e36ee2025093f1c1",
          "transactionIndex": "0x4c",
          "logIndex": "0x20b",
          "removed": false
        },
        {
          "address": "0xbb2ea70c9e858123480642cf96acbcce1372dce1",
          "topics": [
            "0x61ed099e74a97a1d7f8bb0952a88ca8b7b8ebd00c126ea04671f92a81213318a"
          ],
          "data": "0x000000000000000000000000173272739bd7aa6e4e214714048a9fe6994530590000000000000000000000000000000000000000000000000000b095e4116a77",
          "blockHash": "0xd43c10552a5a59e1422f6890e4807af12b2a5cc88f113ce03a748babd836d998",
          "blockNumber": "0x15d2cdd",
          "transactionHash": "0xc87a9676de7a70180db5a106d078624122db02f007e9a3b3e36ee2025093f1c1",
          "transactionIndex": "0x4c",
          "logIndex": "0x20c",
          "removed": false
        },
        {
          "address": "0xbb2ea70c9e858123480642cf96acbcce1372dce1",
          "topics": [
            "0x07ea52d82345d6e838192107d8fd7123d9c2ec8e916cd0aad13fd2b60db24644"
          ],
          "data": "0x000000000000000000000000000000000000000000000000000000000000006000000000000000000000000000000000000000000000000000000000000000e000000000000000000000000000000000000000000000000000000000000001000000000000000000000000000000000000000000000000000000000000000003000000000000000000000000380275805876ff19055ea900cdb2b46a94ecf20d00000000000000000000000038654142f5e672ae86a1b21523aafc765e6a1e08000000000000000000000000589dedbd617e0cbcb916a9223f4d1300c294236b000000000000000000000000000000000000000000000000000000000000000000000000000000000000000000000000000000000000000000000000000000030000000000000000000000000000000000000000000000000000056932c7a319000000000000000000000000000000000000000000000000000005a36df1341a0000000000000000000000000000000000000000000000000000056932c7a319",
          "blockHash": "0xd43c10552a5a59e1422f6890e4807af12b2a5cc88f113ce03a748babd836d998",
          "blockNumber": "0x15d2cdd",
          "transactionHash": "0xc87a9676de7a70180db5a106d078624122db02f007e9a3b3e36ee2025093f1c1",
          "transactionIndex": "0x4c",
          "logIndex": "0x20d",
          "removed": false
        },
        {
          "address": "0x1a44076050125825900e736c501f859c50fe728c",
          "topics": [
            "0x1ab700d4ced0c005b164c0f789fd09fcbb0156d4c2041b8a3bfbcd961cd1567f"
          ],
          "data": "0x00000000000000000000000000000000000000000000000000000000000000600000000000000000000000000000000000000000000000000000000000000120000000000000000000000000bb2ea70c9e858123480642cf96acbcce1372dce100000000000000000000000000000000000000000000000000000000000000990100000000000000010000759500000000000000000000000057558cb8d6005de0bae8a2789d5efaae52dba5a8000075d8006d6ff762f7fcb768c550bae67f7a6a3a94969e469b6e0689563ace4e3759ad09f293992f693ab6667cd5050720362aa8900295c741bb6980006b268894c7973c1b094729102e0c095ee2417e5940ee4f1eab4763f6113fe75281ab74c6239800000000000f424000000000000000000000000000000000000000000000000000000000000000000000000000002600030100210100000000000000000000000000030d40000000000000000000000000002625a00000000000000000000000000000000000000000000000000000",
          "blockHash": "0xd43c10552a5a59e1422f6890e4807af12b2a5cc88f113ce03a748babd836d998",
          "blockNumber": "0x15d2cdd",
          "transactionHash": "0xc87a9676de7a70180db5a106d078624122db02f007e9a3b3e36ee2025093f1c1",
          "transactionIndex": "0x4c",
          "logIndex": "0x20e",
          "removed": false
        },
        {
          "address": "0x57558cb8d6005de0bae8a2789d5efaae52dba5a8",
          "topics": [
            "0x85496b760a4b7f8d66384b9df21b381f5d1b1e79f229a47aaf4c232edc2fe59a",
            "0x09f293992f693ab6667cd5050720362aa8900295c741bb6980006b268894c797",
            "0x000000000000000000000000741f0d8bde14140f62107fc60a0ee122b37d4630"
          ],
          "data": "0x00000000000000000000000000000000000000000000000000000000000075d80000000000000000000000000000000000000000000000000de0b6b3a76400000000000000000000000000000000000000000000000000000de0b6b3a7640000",
          "blockHash": "0xd43c10552a5a59e1422f6890e4807af12b2a5cc88f113ce03a748babd836d998",
          "blockNumber": "0x15d2cdd",
          "transactionHash": "0xc87a9676de7a70180db5a106d078624122db02f007e9a3b3e36ee2025093f1c1",
          "transactionIndex": "0x4c",
          "logIndex": "0x20f",
          "removed": false
        },
        {
          "address": "0x57558cb8d6005de0bae8a2789d5efaae52dba5a8",
          "topics": [
            "0xddf252ad1be2c89b69c2b068fc378daa952ba7f163c4a11628f55a4df523b3ef",
            "0x000000000000000000000000741f0d8bde14140f62107fc60a0ee122b37d4630",
            "0x0000000000000000000000000000000000000000000000000000000000000000"
          ],
          "data": "0x0000000000000000000000000000000000000000000000000de0b6b3a7640000",
          "blockHash": "0xd43c10552a5a59e1422f6890e4807af12b2a5cc88f113ce03a748babd836d998",
          "blockNumber": "0x15d2cdd",
          "transactionHash": "0xc87a9676de7a70180db5a106d078624122db02f007e9a3b3e36ee2025093f1c1",
          "transactionIndex": "0x4c",
          "logIndex": "0x210",
          "removed": false
        },
        {
          "address": "0xbb2ea70c9e858123480642cf96acbcce1372dce1",
          "topics": [
            "0x61ed099e74a97a1d7f8bb0952a88ca8b7b8ebd00c126ea04671f92a81213318a"
          ],
          "data": "0x000000000000000000000000173272739bd7aa6e4e214714048a9fe6994530590000000000000000000000000000000000000000000000000000038568319c29",
          "blockHash": "0xd43c10552a5a59e1422f6890e4807af12b2a5cc88f113ce03a748babd836d998",
          "blockNumber": "0x15d2cdd",
          "transactionHash": "0xc87a9676de7a70180db5a106d078624122db02f007e9a3b3e36ee2025093f1c1",
          "transactionIndex": "0x4c",
          "logIndex": "0x211",
          "removed": false
        },
        {
          "address": "0xbb2ea70c9e858123480642cf96acbcce1372dce1",
          "topics": [
            "0x07ea52d82345d6e838192107d8fd7123d9c2ec8e916cd0aad13fd2b60db24644"
          ],
          "data": "0x000000000000000000000000000000000000000000000000000000000000006000000000000000000000000000000000000000000000000000000000000000e000000000000000000000000000000000000000000000000000000000000001000000000000000000000000000000000000000000000000000000000000000003000000000000000000000000380275805876ff19055ea900cdb2b46a94ecf20d00000000000000000000000038654142f5e672ae86a1b21523aafc765e6a1e08000000000000000000000000589dedbd617e0cbcb916a9223f4d1300c294236b00000000000000000000000000000000000000000000000000000000000000000000000000000000000000000000000000000000000000000000000000000003000000000000000000000000000000000000000000000000000000000000023a00000000000000000000000000000000000000000000000000000000000002520000000000000000000000000000000000000000000000000000038568319c69",
          "blockHash": "0xd43c10552a5a59e1422f6890e4807af12b2a5cc88f113ce03a748babd836d998",
          "blockNumber": "0x15d2cdd",
          "transactionHash": "0xc87a9676de7a70180db5a106d078624122db02f007e9a3b3e36ee2025093f1c1",
          "transactionIndex": "0x4c",
          "logIndex": "0x212",
          "removed": false
        },
        {
          "address": "0x1a44076050125825900e736c501f859c50fe728c",
          "topics": [
            "0x1ab700d4ced0c005b164c0f789fd09fcbb0156d4c2041b8a3bfbcd961cd1567f"
          ],
          "data": "0x00000000000000000000000000000000000000000000000000000000000000600000000000000000000000000000000000000000000000000000000000000120000000000000000000000000bb2ea70c9e858123480642cf96acbcce1372dce100000000000000000000000000000000000000000000000000000000000000990100000000000000010000759500000000000000000000000057558cb8d6005de0bae8a2789d5efaae52dba5a800007675a1bb74f0d5770dfc905c508e6273fadc595ddc15326cc907889bdfffa50602c891ef0996003e82f6417f674d2d2836dd82b39634bb50c2a6a10eec0a95aac9e109d0eb2763c96e085fa74ba6cf0d49136f8654c48ec7dbc59279a9066c7dd40900000000000f42400000000000000000000000000000000000000000000000000000000000000000000000000000160003010011010000000000000000000000000000138800000000000000000000",
          "blockHash": "0xd43c10552a5a59e1422f6890e4807af12b2a5cc88f113ce03a748babd836d998",
          "blockNumber": "0x15d2cdd",
          "transactionHash": "0xc87a9676de7a70180db5a106d078624122db02f007e9a3b3e36ee2025093f1c1",
          "transactionIndex": "0x4c",
          "logIndex": "0x213",
          "removed": false
        },
        {
          "address": "0x57558cb8d6005de0bae8a2789d5efaae52dba5a8",
          "topics": [
            "0x85496b760a4b7f8d66384b9df21b381f5d1b1e79f229a47aaf4c232edc2fe59a",
            "0x91ef0996003e82f6417f674d2d2836dd82b39634bb50c2a6a10eec0a95aac9e1",
            "0x000000000000000000000000741f0d8bde14140f62107fc60a0ee122b37d4630"
          ],
          "data": "0x00000000000000000000000000000000000000000000000000000000000076750000000000000000000000000000000000000000000000000de0b6b3a76400000000000000000000000000000000000000000000000000000de0b6b3a7640000",
          "blockHash": "0xd43c10552a5a59e1422f6890e4807af12b2a5cc88f113ce03a748babd836d998",
          "blockNumber": "0x15d2cdd",
          "transactionHash": "0xc87a9676de7a70180db5a106d078624122db02f007e9a3b3e36ee2025093f1c1",
          "transactionIndex": "0x4c",
          "logIndex": "0x214",
          "removed": false
        },
        {
          "address": "0x57558cb8d6005de0bae8a2789d5efaae52dba5a8",
          "topics": [
            "0xddf252ad1be2c89b69c2b068fc378daa952ba7f163c4a11628f55a4df523b3ef",
            "0x000000000000000000000000741f0d8bde14140f62107fc60a0ee122b37d4630",
            "0x0000000000000000000000000000000000000000000000000000000000000000"
          ],
          "data": "0x0000000000000000000000000000000000000000000000000de0b6b3a7640000",
          "blockHash": "0xd43c10552a5a59e1422f6890e4807af12b2a5cc88f113ce03a748babd836d998",
          "blockNumber": "0x15d2cdd",
          "transactionHash": "0xc87a9676de7a70180db5a106d078624122db02f007e9a3b3e36ee2025093f1c1",
          "transactionIndex": "0x4c",
          "logIndex": "0x215",
          "removed": false
        },
        {
          "address": "0xbb2ea70c9e858123480642cf96acbcce1372dce1",
          "topics": [
            "0x61ed099e74a97a1d7f8bb0952a88ca8b7b8ebd00c126ea04671f92a81213318a"
          ],
          "data": "0x000000000000000000000000173272739bd7aa6e4e214714048a9fe69945305900000000000000000000000000000000000000000000000000000d061f015740",
          "blockHash": "0xd43c10552a5a59e1422f6890e4807af12b2a5cc88f113ce03a748babd836d998",
          "blockNumber": "0x15d2cdd",
          "transactionHash": "0xc87a9676de7a70180db5a106d078624122db02f007e9a3b3e36ee2025093f1c1",
          "transactionIndex": "0x4c",
          "logIndex": "0x216",
          "removed": false
        },
        {
          "address": "0xbb2ea70c9e858123480642cf96acbcce1372dce1",
          "topics": [
            "0x07ea52d82345d6e838192107d8fd7123d9c2ec8e916cd0aad13fd2b60db24644"
          ],
          "data": "0x000000000000000000000000000000000000000000000000000000000000006000000000000000000000000000000000000000000000000000000000000000e000000000000000000000000000000000000000000000000000000000000001000000000000000000000000000000000000000000000000000000000000000003000000000000000000000000380275805876ff19055ea900cdb2b46a94ecf20d00000000000000000000000038654142f5e672ae86a1b21523aafc765e6a1e08000000000000000000000000589dedbd617e0cbcb916a9223f4d1300c294236b00000000000000000000000000000000000000000000000000000000000000000000000000000000000000000000000000000000000000000000000000000003000000000000000000000000000000000000000000000000000022c12782c0bc00000000000000000000000000000000000000000000000000002993d5bef96c000000000000000000000000000000000000000000000000000022c12782c0bc",
          "blockHash": "0xd43c10552a5a59e1422f6890e4807af12b2a5cc88f113ce03a748babd836d998",
          "blockNumber": "0x15d2cdd",
          "transactionHash": "0xc87a9676de7a70180db5a106d078624122db02f007e9a3b3e36ee2025093f1c1",
          "transactionIndex": "0x4c",
          "logIndex": "0x217",
          "removed": false
        },
        {
          "address": "0x1a44076050125825900e736c501f859c50fe728c",
          "topics": [
            "0x1ab700d4ced0c005b164c0f789fd09fcbb0156d4c2041b8a3bfbcd961cd1567f"
          ],
          "data": "0x00000000000000000000000000000000000000000000000000000000000000600000000000000000000000000000000000000000000000000000000000000120000000000000000000000000bb2ea70c9e858123480642cf96acbcce1372dce100000000000000000000000000000000000000000000000000000000000000990100000000000000010000759500000000000000000000000057558cb8d6005de0bae8a2789d5efaae52dba5a80000759ca1bb74f0d5770dfc905c508e6273fadc595ddc15326cc907889bdfffa50602c8f402d95b43f62a1d69e4b86c9a5390c3030faf99f92d25fca47ee79532b42aa209d0eb2763c96e085fa74ba6cf0d49136f8654c48ec7dbc59279a9066c7dd40900000000000f42400000000000000000000000000000000000000000000000000000000000000000000000000000160003010011010000000000000000000000000000138800000000000000000000",
          "blockHash": "0xd43c10552a5a59e1422f6890e4807af12b2a5cc88f113ce03a748babd836d998",
          "blockNumber": "0x15d2cdd",
          "transactionHash": "0xc87a9676de7a70180db5a106d078624122db02f007e9a3b3e36ee2025093f1c1",
          "transactionIndex": "0x4c",
          "logIndex": "0x218",
          "removed": false
        },
        {
          "address": "0x57558cb8d6005de0bae8a2789d5efaae52dba5a8",
          "topics": [
            "0x85496b760a4b7f8d66384b9df21b381f5d1b1e79f229a47aaf4c232edc2fe59a",
            "0xf402d95b43f62a1d69e4b86c9a5390c3030faf99f92d25fca47ee79532b42aa2",
            "0x000000000000000000000000741f0d8bde14140f62107fc60a0ee122b37d4630"
          ],
          "data": "0x000000000000000000000000000000000000000000000000000000000000759c0000000000000000000000000000000000000000000000000de0b6b3a76400000000000000000000000000000000000000000000000000000de0b6b3a7640000",
          "blockHash": "0xd43c10552a5a59e1422f6890e4807af12b2a5cc88f113ce03a748babd836d998",
          "blockNumber": "0x15d2cdd",
          "transactionHash": "0xc87a9676de7a70180db5a106d078624122db02f007e9a3b3e36ee2025093f1c1",
          "transactionIndex": "0x4c",
          "logIndex": "0x219",
          "removed": false
        }
      ],
      "logsBloom": "0x0000000000000000000000000004004000000000000000000000000000100000040000000000000000000000000000040000010000000000000000000000000000000200000000004800000800000000000420000000000000000000000000000000000002000000800000000000080000000000001000000000001000000000000000000000000000100008100000000000000000000000000000000000000000000000a000001000100000000000000000000000400000000440000000000000000002000000000000000080000000000000000000000000000000000020020440040000000000000000008000002000000000018000000000000000000080",
      "type": "0x2",
      "transactionHash": "0xc87a9676de7a70180db5a106d078624122db02f007e9a3b3e36ee2025093f1c1",
      "transactionIndex": "0x4c",
      "blockHash": "0xd43c10552a5a59e1422f6890e4807af12b2a5cc88f113ce03a748babd836d998",
      "blockNumber": "0x15d2cdd",
      "gasUsed": "0xe0ed0",
      "effectiveGasPrice": "0xe6cb34e4",
      "from": "0x45dce8e4f2dc005a5f28206a46cb034697eeda8e",
      "to": "0x741f0d8bde14140f62107fc60a0ee122b37d4630",
      "contractAddress": null
    }
  ],
  "libraries": [],
  "pending": [],
  "returns": {},
  "timestamp": 1752087279,
  "chain": 1,
  "commit": "4a90ad4"
}