{
  "transactions": [
    {
      "hash": "0xf5fb07b20a5f129edd3051fdc66ac3f68ad19dca724e6ed18679ef0bf966767b",
      "transactionType": "CALL",
      "contractName": null,
      "contractAddress": "0x741f0d8bde14140f62107fc60a0ee122b37d4630",
      "function": "batchBridgeWithEthFeeFromWallet((uint32,bytes32,uint256,uint256,bytes,bytes,bytes)[],address[],address[])",
      "arguments": [
        "[(30211, 0x0000000000000000000000004a767e2ef83577225522ef8ed71056c6e3acb216, 1000000000000000000, 0, 0x, 0x, 0x), (30214, 0x000000000000000000000000741f0d8bde14140f62107fc60a0ee122b37d4630, 1000000000000000000, 0, 0x, 0x, 0x)]",
        "[0x57558Cb8d6005DE0BAe8a2789d5EfaaE52dba5a8, 0x57558Cb8d6005DE0BAe8a2789d5EfaaE52dba5a8]",
        "[0x741F0d8Bde14140f62107FC60A0EE122B37D4630, 0x741F0d8Bde14140f62107FC60A0EE122B37D4630]"
      ],
      "transaction": {
        "from": "0x45dce8e4f2dc005a5f28206a46cb034697eeda8e",
        "to": "0x741f0d8bde14140f62107fc60a0ee122b37d4630",
        "gas": "0xe1897",
        "value": "0x8acb5d2d2280",
        "input": "0xb70d42410000000000000000000000000000000000000000000000000000000000000060000000000000000000000000000000000000000000000000000000000000034000000000000000000000000000000000000000000000000000000000000003a000000000000000000000000000000000000000000000000000000000000000020000000000000000000000000000000000000000000000000000000000000040000000000000000000000000000000000000000000000000000000000000018000000000000000000000000000000000000000000000000000000000000076030000000000000000000000004a767e2ef83577225522ef8ed71056c6e3acb2160000000000000000000000000000000000000000000000000de0b6b3a7640000000000000000000000000000000000000000000000000000000000000000000000000000000000000000000000000000000000000000000000000000000000e0000000000000000000000000000000000000000000000000000000000000010000000000000000000000000000000000000000000000000000000000000001200000000000000000000000000000000000000000000000000000000000000000000000000000000000000000000000000000000000000000000000000000000000000000000000000000000000000000000000000000000000000000000000000000000000000000000000000000000000000000000000000000000000007606000000000000000000000000741f0d8bde14140f62107fc60a0ee122b37d46300000000000000000000000000000000000000000000000000de0b6b3a7640000000000000000000000000000000000000000000000000000000000000000000000000000000000000000000000000000000000000000000000000000000000e000000000000000000000000000000000000000000000000000000000000001000000000000000000000000000000000000000000000000000000000000000120000000000000000000000000000000000000000000000000000000000000000000000000000000000000000000000000000000000000000000000000000000000000000000000000000000000000000000000000000000000000000000000000000000000000000000000000000000000000000000000000000000000000000200000000000000000000000057558cb8d6005de0bae8a2789d5efaae52dba5a800000000000000000000000057558cb8d6005de0bae8a2789d5efaae52dba5a80000000000000000000000000000000000000000000000000000000000000002000000000000000000000000741f0d8bde14140f62107fc60a0ee122b37d4630000000000000000000000000741f0d8bde14140f62107fc60a0ee122b37d4630",
        "nonce": "0xa5",
        "chainId": "0x868b"
      },
      "additionalContracts": [],
      "isFixedGasLimit": false
    }
  ],
  "receipts": [
    {
      "status": "0x1",
      "cumulativeGasUsed": "0x301706",
      "logs": [
        {
          "address": "0x57558cb8d6005de0bae8a2789d5efaae52dba5a8",
          "topics": [
            "0xddf252ad1be2c89b69c2b068fc378daa952ba7f163c4a11628f55a4df523b3ef",
            "0x000000000000000000000000741f0d8bde14140f62107fc60a0ee122b37d4630",
            "0x0000000000000000000000000000000000000000000000000000000000000000"
          ],
          "data": "0x0000000000000000000000000000000000000000000000000de0b6b3a7640000",
          "blockHash": "0x157b3167daf7372a40783aeaba6730f8c7d0ec83d4f0b03d5c5e0d7d6fe3a99b",
          "blockNumber": "0x1add647",
          "transactionHash": "0xf5fb07b20a5f129edd3051fdc66ac3f68ad19dca724e6ed18679ef0bf966767b",
          "transactionIndex": "0x7",
          "logIndex": "0x1",
          "removed": false
        },
        {
          "address": "0x2367325334447c5e1e0f1b3a6fb947b262f58312",
          "topics": [
            "0x61ed099e74a97a1d7f8bb0952a88ca8b7b8ebd00c126ea04671f92a81213318a"
          ],
          "data": "0x0000000000000000000000004208d6e27538189bb48e603d6123a94b8abe0a0b00000000000000000000000000000000000000000000000000002b5e220370cb",
          "blockHash": "0x157b3167daf7372a40783aeaba6730f8c7d0ec83d4f0b03d5c5e0d7d6fe3a99b",
          "blockNumber": "0x1add647",
          "transactionHash": "0xf5fb07b20a5f129edd3051fdc66ac3f68ad19dca724e6ed18679ef0bf966767b",
          "transactionIndex": "0x7",
          "logIndex": "0x2",
          "removed": false
        },
        {
          "address": "0x2367325334447c5e1e0f1b3a6fb947b262f58312",
          "topics": [
            "0x07ea52d82345d6e838192107d8fd7123d9c2ec8e916cd0aad13fd2b60db24644"
          ],
          "data": "0x000000000000000000000000000000000000000000000000000000000000006000000000000000000000000000000000000000000000000000000000000000e000000000000000000000000000000000000000000000000000000000000001000000000000000000000000000000000000000000000000000000000000000003000000000000000000000000315b0e76a510607bb0f706b17716f426d5b385b8000000000000000000000000acde1f22eeab249d3ca6ba8805c8fee9f52a16e7000000000000000000000000ce8358bc28dd8296ce8caf1cd2b44787abd6588700000000000000000000000000000000000000000000000000000000000000000000000000000000000000000000000000000000000000000000000000000003000000000000000000000000000000000000000000000000000006c9833ce800000000000000000000000000000000000000000000000000000006836ae6e800000000000000000000000000000000000000000000000000000006836ae6e800",
          "blockHash": "0x157b3167daf7372a40783aeaba6730f8c7d0ec83d4f0b03d5c5e0d7d6fe3a99b",
          "blockNumber": "0x1add647",
          "transactionHash": "0xf5fb07b20a5f129edd3051fdc66ac3f68ad19dca724e6ed18679ef0bf966767b",
          "transactionIndex": "0x7",
          "logIndex": "0x3",
          "removed": false
        },
        {
          "address": "0x1a44076050125825900e736c501f859c50fe728c",
          "topics": [
            "0x1ab700d4ced0c005b164c0f789fd09fcbb0156d4c2041b8a3bfbcd961cd1567f"
          ],
          "data": "0x000000000000000000000000000000000000000000000000000000000000006000000000000000000000000000000000000000000000000000000000000001200000000000000000000000002367325334447c5e1e0f1b3a6fb947b262f5831200000000000000000000000000000000000000000000000000000000000000990100000000000000010000763400000000000000000000000057558cb8d6005de0bae8a2789d5efaae52dba5a800007603000000000000000000000000a057d8d4fc86a62801ce363c169b0a8d192f6cee075a807c68e3b55eab39c03281e4c483f5963b9be5666db71f792f46ade91e2f0000000000000000000000004a767e2ef83577225522ef8ed71056c6e3acb21600000000000f424000000000000000000000000000000000000000000000000000000000000000000000000000001600030100110100000000000000000000000000030d4000000000000000000000",
          "blockHash": "0x157b3167daf7372a40783aeaba6730f8c7d0ec83d4f0b03d5c5e0d7d6fe3a99b",
          "blockNumber": "0x1add647",
          "transactionHash": "0xf5fb07b20a5f129edd3051fdc66ac3f68ad19dca724e6ed18679ef0bf966767b",
          "transactionIndex": "0x7",
          "logIndex": "0x4",
          "removed": false
        },
        {
          "address": "0x57558cb8d6005de0bae8a2789d5efaae52dba5a8",
          "topics": [
            "0x85496b760a4b7f8d66384b9df21b381f5d1b1e79f229a47aaf4c232edc2fe59a",
            "0x075a807c68e3b55eab39c03281e4c483f5963b9be5666db71f792f46ade91e2f",
            "0x000000000000000000000000741f0d8bde14140f62107fc60a0ee122b37d4630"
          ],
          "data": "0x00000000000000000000000000000000000000000000000000000000000076030000000000000000000000000000000000000000000000000de0b6b3a76400000000000000000000000000000000000000000000000000000de0b6b3a7640000",
          "blockHash": "0x157b3167daf7372a40783aeaba6730f8c7d0ec83d4f0b03d5c5e0d7d6fe3a99b",
          "blockNumber": "0x1add647",
          "transactionHash": "0xf5fb07b20a5f129edd3051fdc66ac3f68ad19dca724e6ed18679ef0bf966767b",
          "transactionIndex": "0x7",
          "logIndex": "0x5",
          "removed": false
        },
        {
          "address": "0x57558cb8d6005de0bae8a2789d5efaae52dba5a8",
          "topics": [
            "0xddf252ad1be2c89b69c2b068fc378daa952ba7f163c4a11628f55a4df523b3ef",
            "0x000000000000000000000000741f0d8bde14140f62107fc60a0ee122b37d4630",
            "0x0000000000000000000000000000000000000000000000000000000000000000"
          ],
          "data": "0x0000000000000000000000000000000000000000000000000de0b6b3a7640000",
          "blockHash": "0x157b3167daf7372a40783aeaba6730f8c7d0ec83d4f0b03d5c5e0d7d6fe3a99b",
          "blockNumber": "0x1add647",
          "transactionHash": "0xf5fb07b20a5f129edd3051fdc66ac3f68ad19dca724e6ed18679ef0bf966767b",
          "transactionIndex": "0x7",
          "logIndex": "0x6",
          "removed": false
        },
        {
          "address": "0x2367325334447c5e1e0f1b3a6fb947b262f58312",
          "topics": [
            "0x61ed099e74a97a1d7f8bb0952a88ca8b7b8ebd00c126ea04671f92a81213318a"
          ],
          "data": "0x0000000000000000000000004208d6e27538189bb48e603d6123a94b8abe0a0b00000000000000000000000000000000000000000000000000004b942e14dcc3",
          "blockHash": "0x157b3167daf7372a40783aeaba6730f8c7d0ec83d4f0b03d5c5e0d7d6fe3a99b",
          "blockNumber": "0x1add647",
          "transactionHash": "0xf5fb07b20a5f129edd3051fdc66ac3f68ad19dca724e6ed18679ef0bf966767b",
          "transactionIndex": "0x7",
          "logIndex": "0x7",
          "removed": false
        },
        {
          "address": "0x2367325334447c5e1e0f1b3a6fb947b262f58312",
          "topics": [
            "0x07ea52d82345d6e838192107d8fd7123d9c2ec8e916cd0aad13fd2b60db24644"
          ],
          "data": "0x000000000000000000000000000000000000000000000000000000000000006000000000000000000000000000000000000000000000000000000000000000e000000000000000000000000000000000000000000000000000000000000001000000000000000000000000000000000000000000000000000000000000000003000000000000000000000000315b0e76a510607bb0f706b17716f426d5b385b8000000000000000000000000acde1f22eeab249d3ca6ba8805c8fee9f52a16e7000000000000000000000000ce8358bc28dd8296ce8caf1cd2b44787abd658870000000000000000000000000000000000000000000000000000000000000000000000000000000000000000000000000000000000000000000000000000000300000000000000000000000000000000000000000000000000000002fb34c34000000000000000000000000000000000000000000000000000000002dc6aacd900000000000000000000000000000000000000000000000000000002dc6aacd9",
          "blockHash": "0x157b3167daf7372a40783aeaba6730f8c7d0ec83d4f0b03d5c5e0d7d6fe3a99b",
          "blockNumber": "0x1add647",
          "transactionHash": "0xf5fb07b20a5f129edd3051fdc66ac3f68ad19dca724e6ed18679ef0bf966767b",
          "transactionIndex": "0x7",
          "logIndex": "0x8",
          "removed": false
        },
        {
          "address": "0x1a44076050125825900e736c501f859c50fe728c",
          "topics": [
            "0x1ab700d4ced0c005b164c0f789fd09fcbb0156d4c2041b8a3bfbcd961cd1567f"
          ],
          "data": "0x000000000000000000000000000000000000000000000000000000000000006000000000000000000000000000000000000000000000000000000000000001200000000000000000000000002367325334447c5e1e0f1b3a6fb947b262f5831200000000000000000000000000000000000000000000000000000000000000990100000000000000010000763400000000000000000000000057558cb8d6005de0bae8a2789d5efaae52dba5a80000760600000000000000000000000057558cb8d6005de0bae8a2789d5efaae52dba5a86310ce28984d6b256e27575c0f5a9249c93b01baf97701d33bdd95c0333ff169000000000000000000000000741f0d8bde14140f62107fc60a0ee122b37d463000000000000f424000000000000000000000000000000000000000000000000000000000000000000000000000001600030100110100000000000000000000000000030d4000000000000000000000",
          "blockHash": "0x157b3167daf7372a40783aeaba6730f8c7d0ec83d4f0b03d5c5e0d7d6fe3a99b",
          "blockNumber": "0x1add647",
          "transactionHash": "0xf5fb07b20a5f129edd3051fdc66ac3f68ad19dca724e6ed18679ef0bf966767b",
          "transactionIndex": "0x7",
          "logIndex": "0x9",
          "removed": false
        },
        {
          "address": "0x57558cb8d6005de0bae8a2789d5efaae52dba5a8",
          "topics": [
            "0x85496b760a4b7f8d66384b9df21b381f5d1b1e79f229a47aaf4c232edc2fe59a",
            "0x6310ce28984d6b256e27575c0f5a9249c93b01baf97701d33bdd95c0333ff169",
            "0x000000000000000000000000741f0d8bde14140f62107fc60a0ee122b37d4630"
          ],
          "data": "0x00000000000000000000000000000000000000000000000000000000000076060000000000000000000000000000000000000000000000000de0b6b3a76400000000000000000000000000000000000000000000000000000de0b6b3a7640000",
          "blockHash": "0x157b3167daf7372a40783aeaba6730f8c7d0ec83d4f0b03d5c5e0d7d6fe3a99b",
          "blockNumber": "0x1add647",
          "transactionHash": "0xf5fb07b20a5f129edd3051fdc66ac3f68ad19dca724e6ed18679ef0bf966767b",
          "transactionIndex": "0x7",
          "logIndex": "0xa",
          "removed": false
        }
      ],
      "logsBloom": "0x0000000000000000000000000004004000000000000000000000000000100000000000000000000000000000000000040000010000000000000000000000000000000200000000000000000800000000000000000000000000000000400000000000000002000000800000000000080000000000001000000001001000000000000000000000000000010008000000000000000020000000000000000000000000000000a000001000100000000000000000000000400000000440000000000000000082000000000000000080004000000000010000000000000000000020000000040000800000000000000000002000000000818000000000000000000000",
      "type": "0x2",
      "transactionHash": "0xf5fb07b20a5f129edd3051fdc66ac3f68ad19dca724e6ed18679ef0bf966767b",
      "transactionIndex": "0x7",
      "blockHash": "0x157b3167daf7372a40783aeaba6730f8c7d0ec83d4f0b03d5c5e0d7d6fe3a99b",
      "blockNumber": "0x1add647",
      "gasUsed": "0xa348f",
      "effectiveGasPrice": "0x1ee",
      "from": "0x45dce8e4f2dc005a5f28206a46cb034697eeda8e",
      "to": "0x741f0d8bde14140f62107fc60a0ee122b37d4630",
      "contractAddress": null,
      "l1BaseFeeScalar": "0x4e20",
      "l1BlobBaseFee": "0x1",
      "l1BlobBaseFeeScalar": "0x95506",
      "l1Fee": "0x388ee1404",
      "l1GasPrice": "0xdf6dffb",
      "l1GasUsed": "0xca8"
    }
  ],
  "libraries": [],
  "pending": [],
  "returns": {},
  "timestamp": 1756507182106,
  "chain": 34443,
  "commit": "63f364b"
}