{
  "transactions": [
    {
      "hash": "0xb80e930e0530ae93ae407c87853268792db5cb7fcdd08ba106f20d90b9fecca7",
      "transactionType": "CALL",
      "contractName": null,
      "contractAddress": "0x741f0d8bde14140f62107fc60a0ee122b37d4630",
      "function": "batchBridgeWithEthFeeFromWallet((uint32,bytes32,uint256,uint256,bytes,bytes,bytes)[],address[],address[])",
      "arguments": [
        "[(30383, 0x000000000000000000000000741f0d8bde14140f62107fc60a0ee122b37d4630, 500000000000000000, 0, 0x, 0x, 0x)]",
        "[0x57558Cb8d6005DE0BAe8a2789d5EfaaE52dba5a8]",
        "[0x741F0d8Bde14140f62107FC60A0EE122B37D4630]"
      ],
      "transaction": {
        "from": "0x45dce8e4f2dc005a5f28206a46cb034697eeda8e",
        "to": "0x741f0d8bde14140f62107fc60a0ee122b37d4630",
        "gas": "0x8cbc3",
        "value": "0x1422e68fc127",
        "input": "0xb70d4241000000000000000000000000000000000000000000000000000000000000006000000000000000000000000000000000000000000000000000000000000001e000000000000000000000000000000000000000000000000000000000000002200000000000000000000000000000000000000000000000000000000000000001000000000000000000000000000000000000000000000000000000000000002000000000000000000000000000000000000000000000000000000000000076af000000000000000000000000741f0d8bde14140f62107fc60a0ee122b37d463000000000000000000000000000000000000000000000000006f05b59d3b20000000000000000000000000000000000000000000000000000000000000000000000000000000000000000000000000000000000000000000000000000000000e000000000000000000000000000000000000000000000000000000000000001000000000000000000000000000000000000000000000000000000000000000120000000000000000000000000000000000000000000000000000000000000000000000000000000000000000000000000000000000000000000000000000000000000000000000000000000000000000000000000000000000000000000000000000000000000000000000000000000000000000000000000000000000000000100000000000000000000000057558cb8d6005de0bae8a2789d5efaae52dba5a80000000000000000000000000000000000000000000000000000000000000001000000000000000000000000741f0d8bde14140f62107fc60a0ee122b37d4630",
        "nonce": "0xb3",
        "chainId": "0x868b"
      },
      "additionalContracts": [],
      "isFixedGasLimit": false
    }
  ],
  "receipts": [
    {
      "status": "0x1",
      "cumulativeGasUsed": "0x28aeb9",
      "logs": [
        {
          "address": "0x57558cb8d6005de0bae8a2789d5efaae52dba5a8",
          "topics": [
            "0xddf252ad1be2c89b69c2b068fc378daa952ba7f163c4a11628f55a4df523b3ef",
            "0x000000000000000000000000741f0d8bde14140f62107fc60a0ee122b37d4630",
            "0x0000000000000000000000000000000000000000000000000000000000000000"
          ],
          "data": "0x00000000000000000000000000000000000000000000000006f05b59d3b20000",
          "blockHash": "0x6009bb91d3459fb08f4e39a6f8d76d92ed76bc37966b7b26548f731882de959a",
          "blockNumber": "0x1c625e1",
          "blockTimestamp": "0x68e2cb61",
          "transactionHash": "0xb80e930e0530ae93ae407c87853268792db5cb7fcdd08ba106f20d90b9fecca7",
          "transactionIndex": "0x5",
          "logIndex": "0x0",
          "removed": false
        },
        {
          "address": "0x2367325334447c5e1e0f1b3a6fb947b262f58312",
          "topics": [
            "0x61ed099e74a97a1d7f8bb0952a88ca8b7b8ebd00c126ea04671f92a81213318a"
          ],
          "data": "0x0000000000000000000000004208d6e27538189bb48e603d6123a94b8abe0a0b00000000000000000000000000000000000000000000000000001422e6872970",
          "blockHash": "0x6009bb91d3459fb08f4e39a6f8d76d92ed76bc37966b7b26548f731882de959a",
          "blockNumber": "0x1c625e1",
          "blockTimestamp": "0x68e2cb61",
          "transactionHash": "0xb80e930e0530ae93ae407c87853268792db5cb7fcdd08ba106f20d90b9fecca7",
          "transactionIndex": "0x5",
          "logIndex": "0x1",
          "removed": false
        },
        {
          "address": "0x2367325334447c5e1e0f1b3a6fb947b262f58312",
          "topics": [
            "0x07ea52d82345d6e838192107d8fd7123d9c2ec8e916cd0aad13fd2b60db24644"
          ],
          "data": "0x000000000000000000000000000000000000000000000000000000000000006000000000000000000000000000000000000000000000000000000000000000e000000000000000000000000000000000000000000000000000000000000001000000000000000000000000000000000000000000000000000000000000000003000000000000000000000000315b0e76a510607bb0f706b17716f426d5b385b8000000000000000000000000acde1f22eeab249d3ca6ba8805c8fee9f52a16e7000000000000000000000000ce8358bc28dd8296ce8caf1cd2b44787abd6588700000000000000000000000000000000000000000000000000000000000000000000000000000000000000000000000000000000000000000000000000000003000000000000000000000000000000000000000000000000000000000002f181000000000000000000000000000000000000000000000000000000000002d31b000000000000000000000000000000000000000000000000000000000002d31b",
          "blockHash": "0x6009bb91d3459fb08f4e39a6f8d76d92ed76bc37966b7b26548f731882de959a",
          "blockNumber": "0x1c625e1",
          "blockTimestamp": "0x68e2cb61",
          "transactionHash": "0xb80e930e0530ae93ae407c87853268792db5cb7fcdd08ba106f20d90b9fecca7",
          "transactionIndex": "0x5",
          "logIndex": "0x2",
          "removed": false
        },
        {
          "address": "0x1a44076050125825900e736c501f859c50fe728c",
          "topics": [
            "0x1ab700d4ced0c005b164c0f789fd09fcbb0156d4c2041b8a3bfbcd961cd1567f"
          ],
          "data": "0x000000000000000000000000000000000000000000000000000000000000006000000000000000000000000000000000000000000000000000000000000001200000000000000000000000002367325334447c5e1e0f1b3a6fb947b262f5831200000000000000000000000000000000000000000000000000000000000000990100000000000000010000763400000000000000000000000057558cb8d6005de0bae8a2789d5efaae52dba5a8000076af00000000000000000000000057558cb8d6005de0bae8a2789d5efaae52dba5a88fca3dd04418072d8d371fa260d4a3ebb87fc1f0f00e59171c25bf0dc62d0c04000000000000000000000000741f0d8bde14140f62107fc60a0ee122b37d4630000000000007a12000000000000000000000000000000000000000000000000000000000000000000000000000001600030100110100000000000000000000000000030d4000000000000000000000",
          "blockHash": "0x6009bb91d3459fb08f4e39a6f8d76d92ed76bc37966b7b26548f731882de959a",
          "blockNumber": "0x1c625e1",
          "blockTimestamp": "0x68e2cb61",
          "transactionHash": "0xb80e930e0530ae93ae407c87853268792db5cb7fcdd08ba106f20d90b9fecca7",
          "transactionIndex": "0x5",
          "logIndex": "0x3",
          "removed": false
        },
        {
          "address": "0x57558cb8d6005de0bae8a2789d5efaae52dba5a8",
          "topics": [
            "0x85496b760a4b7f8d66384b9df21b381f5d1b1e79f229a47aaf4c232edc2fe59a",
            "0x8fca3dd04418072d8d371fa260d4a3ebb87fc1f0f00e59171c25bf0dc62d0c04",
            "0x000000000000000000000000741f0d8bde14140f62107fc60a0ee122b37d4630"
          ],
          "data": "0x00000000000000000000000000000000000000000000000000000000000076af00000000000000000000000000000000000000000000000006f05b59d3b2000000000000000000000000000000000000000000000000000006f05b59d3b20000",
          "blockHash": "0x6009bb91d3459fb08f4e39a6f8d76d92ed76bc37966b7b26548f731882de959a",
          "blockNumber": "0x1c625e1",
          "blockTimestamp": "0x68e2cb61",
          "transactionHash": "0xb80e930e0530ae93ae407c87853268792db5cb7fcdd08ba106f20d90b9fecca7",
          "transactionIndex": "0x5",
          "logIndex": "0x4",
          "removed": false
        }
      ],
      "logsBloom": "0x0000000000000000000000000004004000000000000000000000000000100000000000000000000000000000000000040000010000000000000000000000000000000200000000000000000800000000000000000000000000000000000000000000000002000000800000000000080000000000001000000001001000000000000000000000000000000008000000000000000020010000000000000000000000000000a000001000100000000000000000000000400001000440000000000000000082000000000000000080000000000000000000000000000000000020000000040000000000000000000000202000000000018000000000000000000000",
      "type": "0x2",
      "transactionHash": "0xb80e930e0530ae93ae407c87853268792db5cb7fcdd08ba106f20d90b9fecca7",
      "transactionIndex": "0x5",
      "blockHash": "0x6009bb91d3459fb08f4e39a6f8d76d92ed76bc37966b7b26548f731882de959a",
      "blockNumber": "0x1c625e1",
      "gasUsed": "0x65e3d",
      "effectiveGasPrice": "0x1d4",
      "from": "0x45dce8e4f2dc005a5f28206a46cb034697eeda8e",
      "to": "0x741f0d8bde14140f62107fc60a0ee122b37d4630",
      "contractAddress": null,
      "l1BaseFeeScalar": "0x4e20",
      "l1BlobBaseFee": "0x1",
      "l1BlobBaseFeeScalar": "0x95506",
      "l1Fee": "0x19abef4c3",
      "l1GasPrice": "0x8793514",
      "l1GasUsed": "0x977"
    }
  ],
  "libraries": [],
  "pending": [],
  "returns": {},
  "timestamp": 1759693667198,
  "chain": 34443,
  "commit": "eed1662"
}