{
  "transactions": [
    {
      "hash": "0x2b24738cde901ed9e217a9dcef72ad2ace4d8fb2ed6e270b2984811b5c15af64",
      "transactionType": "CALL",
      "contractName": null,
      "contractAddress": "0x741f0d8bde14140f62107fc60a0ee122b37d4630",
      "function": "batchBridgeWithEthFeeFromWallet((uint32,bytes32,uint256,uint256,bytes,bytes,bytes)[],address[],address[])",
      "arguments": [
        "[(30367, 0x000000000000000000000000741f0d8bde14140f62107fc60a0ee122b37d4630, 500000000000000000, 0, 0x, 0x, 0x)]",
        "[0x57558Cb8d6005DE0BAe8a2789d5EfaaE52dba5a8]",
        "[0x741F0d8Bde14140f62107FC60A0EE122B37D4630]"
      ],
      "transaction": {
        "from": "0x45dce8e4f2dc005a5f28206a46cb034697eeda8e",
        "to": "0x741f0d8bde14140f62107fc60a0ee122b37d4630",
        "gas": "0x8cbc3",
        "value": "0x4aacecc7b90",
        "input": "0xb70d4241000000000000000000000000000000000000000000000000000000000000006000000000000000000000000000000000000000000000000000000000000001e0000000000000000000000000000000000000000000000000000000000000022000000000000000000000000000000000000000000000000000000000000000010000000000000000000000000000000000000000000000000000000000000020000000000000000000000000000000000000000000000000000000000000769f000000000000000000000000741f0d8bde14140f62107fc60a0ee122b37d463000000000000000000000000000000000000000000000000006f05b59d3b20000000000000000000000000000000000000000000000000000000000000000000000000000000000000000000000000000000000000000000000000000000000e000000000000000000000000000000000000000000000000000000000000001000000000000000000000000000000000000000000000000000000000000000120000000000000000000000000000000000000000000000000000000000000000000000000000000000000000000000000000000000000000000000000000000000000000000000000000000000000000000000000000000000000000000000000000000000000000000000000000000000000000000000000000000000000000100000000000000000000000057558cb8d6005de0bae8a2789d5efaae52dba5a80000000000000000000000000000000000000000000000000000000000000001000000000000000000000000741f0d8bde14140f62107fc60a0ee122b37d4630",
        "nonce": "0xac",
        "chainId": "0x868b"
      },
      "additionalContracts": [],
      "isFixedGasLimit": false
    }
  ],
  "receipts": [
    {
      "status": "0x1",
      "cumulativeGasUsed": "0x1feafa",
      "logs": [
        {
          "address": "0x57558cb8d6005de0bae8a2789d5efaae52dba5a8",
          "topics": [
            "0xddf252ad1be2c89b69c2b068fc378daa952ba7f163c4a11628f55a4df523b3ef",
            "0x000000000000000000000000741f0d8bde14140f62107fc60a0ee122b37d4630",
            "0x0000000000000000000000000000000000000000000000000000000000000000"
          ],
          "data": "0x00000000000000000000000000000000000000000000000006f05b59d3b20000",
          "blockHash": "0xb74afa4a972261f5954bf9b08c55ddba19a3618821b3d17fefc30bb0bb5c398b",
          "blockNumber": "0x1b7f591",
          "transactionHash": "0x2b24738cde901ed9e217a9dcef72ad2ace4d8fb2ed6e270b2984811b5c15af64",
          "transactionIndex": "0x3",
          "logIndex": "0x0",
          "removed": false
        },
        {
          "address": "0x2367325334447c5e1e0f1b3a6fb947b262f58312",
          "topics": [
            "0x61ed099e74a97a1d7f8bb0952a88ca8b7b8ebd00c126ea04671f92a81213318a"
          ],
          "data": "0x0000000000000000000000004208d6e27538189bb48e603d6123a94b8abe0a0b00000000000000000000000000000000000000000000000000000455a45e04b5",
          "blockHash": "0xb74afa4a972261f5954bf9b08c55ddba19a3618821b3d17fefc30bb0bb5c398b",
          "blockNumber": "0x1b7f591",
          "transactionHash": "0x2b24738cde901ed9e217a9dcef72ad2ace4d8fb2ed6e270b2984811b5c15af64",
          "transactionIndex": "0x3",
          "logIndex": "0x1",
          "removed": false
        },
        {
          "address": "0x2367325334447c5e1e0f1b3a6fb947b262f58312",
          "topics": [
            "0x07ea52d82345d6e838192107d8fd7123d9c2ec8e916cd0aad13fd2b60db24644"
          ],
          "data": "0x000000000000000000000000000000000000000000000000000000000000006000000000000000000000000000000000000000000000000000000000000000e000000000000000000000000000000000000000000000000000000000000001000000000000000000000000000000000000000000000000000000000000000003000000000000000000000000315b0e76a510607bb0f706b17716f426d5b385b8000000000000000000000000acde1f22eeab249d3ca6ba8805c8fee9f52a16e7000000000000000000000000ce8358bc28dd8296ce8caf1cd2b44787abd65887000000000000000000000000000000000000000000000000000000000000000000000000000000000000000000000000000000000000000000000000000000030000000000000000000000000000000000000000000000000000001d2c5626890000000000000000000000000000000000000000000000000000001bff0c28290000000000000000000000000000000000000000000000000000001bff0c2829",
          "blockHash": "0xb74afa4a972261f5954bf9b08c55ddba19a3618821b3d17fefc30bb0bb5c398b",
          "blockNumber": "0x1b7f591",
          "transactionHash": "0x2b24738cde901ed9e217a9dcef72ad2ace4d8fb2ed6e270b2984811b5c15af64",
          "transactionIndex": "0x3",
          "logIndex": "0x2",
          "removed": false
        },
        {
          "address": "0x1a44076050125825900e736c501f859c50fe728c",
          "topics": [
            "0x1ab700d4ced0c005b164c0f789fd09fcbb0156d4c2041b8a3bfbcd961cd1567f"
          ],
          "data": "0x000000000000000000000000000000000000000000000000000000000000006000000000000000000000000000000000000000000000000000000000000001200000000000000000000000002367325334447c5e1e0f1b3a6fb947b262f5831200000000000000000000000000000000000000000000000000000000000000990100000000000000010000763400000000000000000000000057558cb8d6005de0bae8a2789d5efaae52dba5a80000769f00000000000000000000000057558cb8d6005de0bae8a2789d5efaae52dba5a88e710d38eb8e882be1ecdea5062a5aae6ed1812d256a036cb29eaa9b6bb6a29c000000000000000000000000741f0d8bde14140f62107fc60a0ee122b37d4630000000000007a12000000000000000000000000000000000000000000000000000000000000000000000000000001600030100110100000000000000000000000000030d4000000000000000000000",
          "blockHash": "0xb74afa4a972261f5954bf9b08c55ddba19a3618821b3d17fefc30bb0bb5c398b",
          "blockNumber": "0x1b7f591",
          "transactionHash": "0x2b24738cde901ed9e217a9dcef72ad2ace4d8fb2ed6e270b2984811b5c15af64",
          "transactionIndex": "0x3",
          "logIndex": "0x3",
          "removed": false
        },
        {
          "address": "0x57558cb8d6005de0bae8a2789d5efaae52dba5a8",
          "topics": [
            "0x85496b760a4b7f8d66384b9df21b381f5d1b1e79f229a47aaf4c232edc2fe59a",
            "0x8e710d38eb8e882be1ecdea5062a5aae6ed1812d256a036cb29eaa9b6bb6a29c",
            "0x000000000000000000000000741f0d8bde14140f62107fc60a0ee122b37d4630"
          ],
          "data": "0x000000000000000000000000000000000000000000000000000000000000769f00000000000000000000000000000000000000000000000006f05b59d3b2000000000000000000000000000000000000000000000000000006f05b59d3b20000",
          "blockHash": "0xb74afa4a972261f5954bf9b08c55ddba19a3618821b3d17fefc30bb0bb5c398b",
          "blockNumber": "0x1b7f591",
          "transactionHash": "0x2b24738cde901ed9e217a9dcef72ad2ace4d8fb2ed6e270b2984811b5c15af64",
          "transactionIndex": "0x3",
          "logIndex": "0x4",
          "removed": false
        }
      ],
      "logsBloom": "0x0000000000000000000000000004084000000000000000040000000000100000000000000000000000000000000000040000010000000000000000000000000000000200000000000000000800000000000000000000000000000000000000000000000002000000800000000000080000000000001000000001001000000000000000000000000000000008000000000000000020000000000000000000000000000000a000001000100000000000000000000000400000000440000000000000000082000000000020000080000000000000000000000000000000000020000000040000000000000000000000002000000000018000000000000000000000",
      "type": "0x2",
      "transactionHash": "0x2b24738cde901ed9e217a9dcef72ad2ace4d8fb2ed6e270b2984811b5c15af64",
      "transactionIndex": "0x3",
      "blockHash": "0xb74afa4a972261f5954bf9b08c55ddba19a3618821b3d17fefc30bb0bb5c398b",
      "blockNumber": "0x1b7f591",
      "gasUsed": "0x65e3d",
      "effectiveGasPrice": "0x186",
      "from": "0x45dce8e4f2dc005a5f28206a46cb034697eeda8e",
      "to": "0x741f0d8bde14140f62107fc60a0ee122b37d4630",
      "contractAddress": null,
      "l1BaseFeeScalar": "0x4e20",
      "l1BlobBaseFee": "0x1",
      "l1BlobBaseFeeScalar": "0x95506",
      "l1Fee": "0x191efcef8",
      "l1GasPrice": "0x84aaf53",
      "l1GasUsed": "0x977"
    }
  ],
  "libraries": [],
  "pending": [],
  "returns": {},
  "timestamp": 1757833921650,
  "chain": 34443,
  "commit": "20bf563"
}