{
  "transactions": [
    {
      "hash": "0xe7d8e2ef22f44eff11798827e9c49702ab789ca3c4096aaf1e78430d0ab109e4",
      "transactionType": "CALL",
      "contractName": null,
      "contractAddress": "0x8d8f779e1548b0ef538f5dfe76abfa232d705c8b",
      "function": "send((uint32,bytes32,uint256,uint256,bytes,bytes,bytes),(uint256,uint256),address)",
      "arguments": [
        "(30184, 0x000000000000000000000000b1748c79709f4ba2dd82834b8c82d4a505003f27, 250000000000000000000000, 250000000000000000000000, 0x0003, 0x, 0x)",
        "(19892966950358, 0)",
        "0x0990be6dB8c785FBbF9deD8bAEc612A10CaE814b"
      ],
      "transaction": {
        "from": "0x0990be6db8c785fbbf9ded8baec612a10cae814b",
        "to": "0x8d8f779e1548b0ef538f5dfe76abfa232d705c8b",
        "gas": "0x637ac",
        "value": "0x1217b13a85d6",
        "input": "0xc7c7f5b3000000000000000000000000000000000000000000000000000000000000008000000000000000000000000000000000000000000000000000001217b13a85d600000000000000000000000000000000000000000000000000000000000000000000000000000000000000000990be6db8c785fbbf9ded8baec612a10cae814b00000000000000000000000000000000000000000000000000000000000075e8000000000000000000000000b1748c79709f4ba2dd82834b8c82d4a505003f270000000000000000000000000000000000000000000034f086f3b33b684000000000000000000000000000000000000000000000000034f086f3b33b6840000000000000000000000000000000000000000000000000000000000000000000e0000000000000000000000000000000000000000000000000000000000000012000000000000000000000000000000000000000000000000000000000000001400000000000000000000000000000000000000000000000000000000000000002000300000000000000000000000000000000000000000000000000000000000000000000000000000000000000000000000000000000000000000000000000000000000000000000000000000000000000000000000000000000000000000000",
        "nonce": "0xcc",
        "chainId": "0xfc"
      },
      "additionalContracts": [],
      "isFixedGasLimit": false
    }
  ],
  "receipts": [
    {
      "status": "0x1",
      "cumulativeGasUsed": "0x4f430",
      "logs": [
        {
          "address": "0x8d8f779e1548b0ef538f5dfe76abfa232d705c8b",
          "topics": [
            "0xddf252ad1be2c89b69c2b068fc378daa952ba7f163c4a11628f55a4df523b3ef",
            "0x0000000000000000000000000990be6db8c785fbbf9ded8baec612a10cae814b",
            "0x0000000000000000000000000000000000000000000000000000000000000000"
          ],
          "data": "0x0000000000000000000000000000000000000000000034f086f3b33b68400000",
          "blockHash": "0x62d731162bca4c2cd65f4309679e9158162e405ca11100115b9121e48ca64177",
          "blockNumber": "0xd30652",
          "transactionHash": "0xe7d8e2ef22f44eff11798827e9c49702ab789ca3c4096aaf1e78430d0ab109e4",
          "transactionIndex": "0x1",
          "logIndex": "0x0",
          "removed": false
        },
        {
          "address": "0x377530cda84dfb2673bf4d145dcf0c4d7fdcb5b6",
          "topics": [
            "0x61ed099e74a97a1d7f8bb0952a88ca8b7b8ebd00c126ea04671f92a81213318a"
          ],
          "data": "0x00000000000000000000000041bdb4aa4a63a5b2efc531858d3118392b1a1c3d00000000000000000000000000000000000000000000000000000f676316009c",
          "blockHash": "0x62d731162bca4c2cd65f4309679e9158162e405ca11100115b9121e48ca64177",
          "blockNumber": "0xd30652",
          "transactionHash": "0xe7d8e2ef22f44eff11798827e9c49702ab789ca3c4096aaf1e78430d0ab109e4",
          "transactionIndex": "0x1",
          "logIndex": "0x1",
          "removed": false
        },
        {
          "address": "0x377530cda84dfb2673bf4d145dcf0c4d7fdcb5b6",
          "topics": [
            "0x07ea52d82345d6e838192107d8fd7123d9c2ec8e916cd0aad13fd2b60db24644"
          ],
          "data": "0x000000000000000000000000000000000000000000000000000000000000006000000000000000000000000000000000000000000000000000000000000000c000000000000000000000000000000000000000000000000000000000000000e00000000000000000000000000000000000000000000000000000000000000002000000000000000000000000cce466a522984415bc91338c232d98869193d46e000000000000000000000000dd7b5e1db4aafd5c8ec3b764efb8ed265aa5445b00000000000000000000000000000000000000000000000000000000000000000000000000000000000000000000000000000000000000000000000000000002000000000000000000000000000000000000000000000000000001582712429d000000000000000000000000000000000000000000000000000001582712429d",
          "blockHash": "0x62d731162bca4c2cd65f4309679e9158162e405ca11100115b9121e48ca64177",
          "blockNumber": "0xd30652",
          "transactionHash": "0xe7d8e2ef22f44eff11798827e9c49702ab789ca3c4096aaf1e78430d0ab109e4",
          "transactionIndex": "0x1",
          "logIndex": "0x2",
          "removed": false
        },
        {
          "address": "0x1a44076050125825900e736c501f859c50fe728c",
          "topics": [
            "0x1ab700d4ced0c005b164c0f789fd09fcbb0156d4c2041b8a3bfbcd961cd1567f"
          ],
          "data": "0x00000000000000000000000000000000000000000000000000000000000000600000000000000000000000000000000000000000000000000000000000000120000000000000000000000000377530cda84dfb2673bf4d145dcf0c4d7fdcb5b600000000000000000000000000000000000000000000000000000000000000990100000000000000010000762f0000000000000000000000008d8f779e1548b0ef538f5dfe76abfa232d705c8b000075e8000000000000000000000000a536976c9ca36e74af76037af555eefa632ce4692debe8e3658d5a35c81b1ba1150fdd62a33535654b8d4ca7f8231a416c5be75d000000000000000000000000b1748c79709f4ba2dd82834b8c82d4a505003f270000003a3529440000000000000000000000000000000000000000000000000000000000000000000000000000001600030100110100000000000000000000000000030d4000000000000000000000",
          "blockHash": "0x62d731162bca4c2cd65f4309679e9158162e405ca11100115b9121e48ca64177",
          "blockNumber": "0xd30652",
          "transactionHash": "0xe7d8e2ef22f44eff11798827e9c49702ab789ca3c4096aaf1e78430d0ab109e4",
          "transactionIndex": "0x1",
          "logIndex": "0x3",
          "removed": false
        },
        {
          "address": "0x8d8f779e1548b0ef538f5dfe76abfa232d705c8b",
          "topics": [
            "0x85496b760a4b7f8d66384b9df21b381f5d1b1e79f229a47aaf4c232edc2fe59a",
            "0x2debe8e3658d5a35c81b1ba1150fdd62a33535654b8d4ca7f8231a416c5be75d",
            "0x0000000000000000000000000990be6db8c785fbbf9ded8baec612a10cae814b"
          ],
          "data": "0x00000000000000000000000000000000000000000000000000000000000075e80000000000000000000000000000000000000000000034f086f3b33b684000000000000000000000000000000000000000000000000034f086f3b33b68400000",
          "blockHash": "0x62d731162bca4c2cd65f4309679e9158162e405ca11100115b9121e48ca64177",
          "blockNumber": "0xd30652",
          "transactionHash": "0xe7d8e2ef22f44eff11798827e9c49702ab789ca3c4096aaf1e78430d0ab109e4",
          "transactionIndex": "0x1",
          "logIndex": "0x4",
          "removed": false
        }
      ],
      "logsBloom": "0x00000000000000000000000000000000000000802000000000000000001000000000000000000000000000000000100000040000000000000000000000000000000002000000000000000008400000000000000000000000000000000000000000000000020000008000000000000800000000000010000000000410000000000000000000000000000000080000000000000000000000000000000000000000000000008000000000100010000000000000000000400000000440100000000000000002000800000000000080000000000000000000000000000000000020000001040000000000000000000000802000000000018000000000400000000000",
      "type": "0x2",
      "transactionHash": "0xe7d8e2ef22f44eff11798827e9c49702ab789ca3c4096aaf1e78430d0ab109e4",
      "transactionIndex": "0x1",
      "blockHash": "0x62d731162bca4c2cd65f4309679e9158162e405ca11100115b9121e48ca64177",
      "blockNumber": "0xd30652",
      "gasUsed": "0x44053",
      "effectiveGasPrice": "0xfe",
      "from": "0x0990be6db8c785fbbf9ded8baec612a10cae814b",
      "to": "0x8d8f779e1548b0ef538f5dfe76abfa232d705c8b",
      "contractAddress": null,
      "l1BaseFeeScalar": "0xc350",
      "l1BlobBaseFee": "0x323c",
      "l1BlobBaseFeeScalar": "0x0",
      "l1Fee": "0x1f4f3565c4b",
      "l1GasPrice": "0x3aafa7692",
      "l1GasUsed": "0xaab"
    }
  ],
  "libraries": [],
  "pending": [],
  "returns": {},
  "timestamp": 1734470119,
  "chain": 252,
  "commit": "495ce9f"
}