{
  "transactions": [
    {
      "hash": "0x7c48a4eb5dd353b85d2c84f619b6c177a62fe25d9b8475c8cea79bfc00e59422",
      "transactionType": "CALL",
      "contractName": null,
      "contractAddress": "0x741f0d8bde14140f62107fc60a0ee122b37d4630",
      "function": "batchBridgeWithEthFeeFromWallet((uint32,bytes32,uint256,uint256,bytes,bytes,bytes)[],address[],address[])",
      "arguments": [
        "[(30168, 0x3c1b094729102e0c095ee2417e5940ee4f1eab4763f6113fe75281ab74c62398, 1000000000000000000, 0, 0x, 0x, 0x), (30325, 0x09d0eb2763c96e085fa74ba6cf0d49136f8654c48ec7dbc59279a9066c7dd409, 1000000000000000000, 0, 0x, 0x, 0x)]",
        "[0x57558Cb8d6005DE0BAe8a2789d5EfaaE52dba5a8, 0x57558Cb8d6005DE0BAe8a2789d5EfaaE52dba5a8]",
        "[0x741F0d8Bde14140f62107FC60A0EE122B37D4630, 0x741F0d8Bde14140f62107FC60A0EE122B37D4630]"
      ],
      "transaction": {
        "from": "0x45dce8e4f2dc005a5f28206a46cb034697eeda8e",
        "to": "0x741f0d8bde14140f62107fc60a0ee122b37d4630",
        "gas": "0xf0aba",
        "value": "0xc57e11d59dc6",
        "input": "0xb70d42410000000000000000000000000000000000000000000000000000000000000060000000000000000000000000000000000000000000000000000000000000034000000000000000000000000000000000000000000000000000000000000003a000000000000000000000000000000000000000000000000000000000000000020000000000000000000000000000000000000000000000000000000000000040000000000000000000000000000000000000000000000000000000000000018000000000000000000000000000000000000000000000000000000000000075d83c1b094729102e0c095ee2417e5940ee4f1eab4763f6113fe75281ab74c623980000000000000000000000000000000000000000000000000de0b6b3a7640000000000000000000000000000000000000000000000000000000000000000000000000000000000000000000000000000000000000000000000000000000000e000000000000000000000000000000000000000000000000000000000000001000000000000000000000000000000000000000000000000000000000000000120000000000000000000000000000000000000000000000000000000000000000000000000000000000000000000000000000000000000000000000000000000000000000000000000000000000000000000000000000000000000000000000000000000000000000000000000000000000000000000000000000000000000767509d0eb2763c96e085fa74ba6cf0d49136f8654c48ec7dbc59279a9066c7dd4090000000000000000000000000000000000000000000000000de0b6b3a7640000000000000000000000000000000000000000000000000000000000000000000000000000000000000000000000000000000000000000000000000000000000e000000000000000000000000000000000000000000000000000000000000001000000000000000000000000000000000000000000000000000000000000000120000000000000000000000000000000000000000000000000000000000000000000000000000000000000000000000000000000000000000000000000000000000000000000000000000000000000000000000000000000000000000000000000000000000000000000000000000000000000000000000000000000000000000200000000000000000000000057558cb8d6005de0bae8a2789d5efaae52dba5a800000000000000000000000057558cb8d6005de0bae8a2789d5efaae52dba5a80000000000000000000000000000000000000000000000000000000000000002000000000000000000000000741f0d8bde14140f62107fc60a0ee122b37d4630000000000000000000000000741f0d8bde14140f62107fc60a0ee122b37d4630",
        "nonce": "0x92",
        "chainId": "0xdef1"
      },
      "additionalContracts": [],
      "isFixedGasLimit": false
    }
  ],
  "receipts": [
    {
      "status": "0x1",
      "cumulativeGasUsed": "0x535614",
      "logs": [
        {
          "address": "0x57558cb8d6005de0bae8a2789d5efaae52dba5a8",
          "topics": [
            "0xddf252ad1be2c89b69c2b068fc378daa952ba7f163c4a11628f55a4df523b3ef",
            "0x000000000000000000000000741f0d8bde14140f62107fc60a0ee122b37d4630",
            "0x0000000000000000000000000000000000000000000000000000000000000000"
          ],
          "data": "0x0000000000000000000000000000000000000000000000000de0b6b3a7640000",
          "blockHash": "0x2f80c16050b638140d7cce307faf5067e17b6164c14b398248b6e19238cbdafb",
          "blockNumber": "0x11c0b54",
          "transactionHash": "0x7c48a4eb5dd353b85d2c84f619b6c177a62fe25d9b8475c8cea79bfc00e59422",
          "transactionIndex": "0x5",
          "logIndex": "0x0",
          "removed": false
        },
        {
          "address": "0x76111de813f83aaadbd62773bf41247634e2319a",
          "topics": [
            "0x61ed099e74a97a1d7f8bb0952a88ca8b7b8ebd00c126ea04671f92a81213318a"
          ],
          "data": "0x000000000000000000000000febcf17b11376c724ab5a5229803c6e838b6eae50000000000000000000000000000000000000000000000000000adc2a97806e5",
          "blockHash": "0x2f80c16050b638140d7cce307faf5067e17b6164c14b398248b6e19238cbdafb",
          "blockNumber": "0x11c0b54",
          "transactionHash": "0x7c48a4eb5dd353b85d2c84f619b6c177a62fe25d9b8475c8cea79bfc00e59422",
          "transactionIndex": "0x5",
          "logIndex": "0x1",
          "removed": false
        },
        {
          "address": "0x76111de813f83aaadbd62773bf41247634e2319a",
          "topics": [
            "0x07ea52d82345d6e838192107d8fd7123d9c2ec8e916cd0aad13fd2b60db24644"
          ],
          "data": "0x000000000000000000000000000000000000000000000000000000000000006000000000000000000000000000000000000000000000000000000000000000e000000000000000000000000000000000000000000000000000000000000001000000000000000000000000000000000000000000000000000000000000000003000000000000000000000000174f2ba26f8adeafa82663bcf908288d5dbca649000000000000000000000000395b14700812cccc38b8e64f0a06ce2045fe9ba3000000000000000000000000f007f1fef50c0acaf4418741454bcaeaecb96b87000000000000000000000000000000000000000000000000000000000000000000000000000000000000000000000000000000000000000000000000000000030000000000000000000000000000000000000000000000000000058ad7df93610000000000000000000000000000000000000000000000000000058ad7df93610000000000000000000000000000000000000000000000000000058ad7df9361",
          "blockHash": "0x2f80c16050b638140d7cce307faf5067e17b6164c14b398248b6e19238cbdafb",
          "blockNumber": "0x11c0b54",
          "transactionHash": "0x7c48a4eb5dd353b85d2c84f619b6c177a62fe25d9b8475c8cea79bfc00e59422",
          "transactionIndex": "0x5",
          "logIndex": "0x2",
          "removed": false
        },
        {
          "address": "0xca29f3a6f966cb2fc0de625f8f325c0c46dbe958",
          "topics": [
            "0x1ab700d4ced0c005b164c0f789fd09fcbb0156d4c2041b8a3bfbcd961cd1567f"
          ],
          "data": "0x0000000000000000000000000000000000000000000000000000000000000060000000000000000000000000000000000000000000000000000000000000012000000000000000000000000076111de813f83aaadbd62773bf41247634e2319a00000000000000000000000000000000000000000000000000000000000000990100000000000000010000768300000000000000000000000057558cb8d6005de0bae8a2789d5efaae52dba5a8000075d8006d6ff762f7fcb768c550bae67f7a6a3a94969e469b6e0689563ace4e3759ad4999e47656c68bb7b5871fef21388c117e17ac8ccb604cfea3158722a17f2f7c3c1b094729102e0c095ee2417e5940ee4f1eab4763f6113fe75281ab74c6239800000000000f424000000000000000000000000000000000000000000000000000000000000000000000000000002600030100210100000000000000000000000000030d40000000000000000000000000002625a00000000000000000000000000000000000000000000000000000",
          "blockHash": "0x2f80c16050b638140d7cce307faf5067e17b6164c14b398248b6e19238cbdafb",
          "blockNumber": "0x11c0b54",
          "transactionHash": "0x7c48a4eb5dd353b85d2c84f619b6c177a62fe25d9b8475c8cea79bfc00e59422",
          "transactionIndex": "0x5",
          "logIndex": "0x3",
          "removed": false
        },
        {
          "address": "0x57558cb8d6005de0bae8a2789d5efaae52dba5a8",
          "topics": [
            "0x85496b760a4b7f8d66384b9df21b381f5d1b1e79f229a47aaf4c232edc2fe59a",
            "0x4999e47656c68bb7b5871fef21388c117e17ac8ccb604cfea3158722a17f2f7c",
            "0x000000000000000000000000741f0d8bde14140f62107fc60a0ee122b37d4630"
          ],
          "data": "0x00000000000000000000000000000000000000000000000000000000000075d80000000000000000000000000000000000000000000000000de0b6b3a76400000000000000000000000000000000000000000000000000000de0b6b3a7640000",
          "blockHash": "0x2f80c16050b638140d7cce307faf5067e17b6164c14b398248b6e19238cbdafb",
          "blockNumber": "0x11c0b54",
          "transactionHash": "0x7c48a4eb5dd353b85d2c84f619b6c177a62fe25d9b8475c8cea79bfc00e59422",
          "transactionIndex": "0x5",
          "logIndex": "0x4",
          "removed": false
        },
        {
          "address": "0x57558cb8d6005de0bae8a2789d5efaae52dba5a8",
          "topics": [
            "0xddf252ad1be2c89b69c2b068fc378daa952ba7f163c4a11628f55a4df523b3ef",
            "0x000000000000000000000000741f0d8bde14140f62107fc60a0ee122b37d4630",
            "0x0000000000000000000000000000000000000000000000000000000000000000"
          ],
          "data": "0x0000000000000000000000000000000000000000000000000de0b6b3a7640000",
          "blockHash": "0x2f80c16050b638140d7cce307faf5067e17b6164c14b398248b6e19238cbdafb",
          "blockNumber": "0x11c0b54",
          "transactionHash": "0x7c48a4eb5dd353b85d2c84f619b6c177a62fe25d9b8475c8cea79bfc00e59422",
          "transactionIndex": "0x5",
          "logIndex": "0x5",
          "removed": false
        },
        {
          "address": "0x76111de813f83aaadbd62773bf41247634e2319a",
          "topics": [
            "0x61ed099e74a97a1d7f8bb0952a88ca8b7b8ebd00c126ea04671f92a81213318a"
          ],
          "data": "0x000000000000000000000000febcf17b11376c724ab5a5229803c6e838b6eae50000000000000000000000000000000000000000000000000000038d705f6be3",
          "blockHash": "0x2f80c16050b638140d7cce307faf5067e17b6164c14b398248b6e19238cbdafb",
          "blockNumber": "0x11c0b54",
          "transactionHash": "0x7c48a4eb5dd353b85d2c84f619b6c177a62fe25d9b8475c8cea79bfc00e59422",
          "transactionIndex": "0x5",
          "logIndex": "0x6",
          "removed": false
        },
        {
          "address": "0x76111de813f83aaadbd62773bf41247634e2319a",
          "topics": [
            "0x07ea52d82345d6e838192107d8fd7123d9c2ec8e916cd0aad13fd2b60db24644"
          ],
          "data": "0x000000000000000000000000000000000000000000000000000000000000006000000000000000000000000000000000000000000000000000000000000000e000000000000000000000000000000000000000000000000000000000000001000000000000000000000000000000000000000000000000000000000000000003000000000000000000000000174f2ba26f8adeafa82663bcf908288d5dbca649000000000000000000000000395b14700812cccc38b8e64f0a06ce2045fe9ba3000000000000000000000000f007f1fef50c0acaf4418741454bcaeaecb96b87000000000000000000000000000000000000000000000000000000000000000000000000000000000000000000000000000000000000000000000000000000030000000000000000000000000000000000000000000000000000038d705f6c3700000000000000000000000000000000000000000000000000000000000002520000000000000000000000000000000000000000000000000000000000000252",
          "blockHash": "0x2f80c16050b638140d7cce307faf5067e17b6164c14b398248b6e19238cbdafb",
          "blockNumber": "0x11c0b54",
          "transactionHash": "0x7c48a4eb5dd353b85d2c84f619b6c177a62fe25d9b8475c8cea79bfc00e59422",
          "transactionIndex": "0x5",
          "logIndex": "0x7",
          "removed": false
        },
        {
          "address": "0xca29f3a6f966cb2fc0de625f8f325c0c46dbe958",
          "topics": [
            "0x1ab700d4ced0c005b164c0f789fd09fcbb0156d4c2041b8a3bfbcd961cd1567f"
          ],
          "data": "0x0000000000000000000000000000000000000000000000000000000000000060000000000000000000000000000000000000000000000000000000000000012000000000000000000000000076111de813f83aaadbd62773bf41247634e2319a00000000000000000000000000000000000000000000000000000000000000990100000000000000010000768300000000000000000000000057558cb8d6005de0bae8a2789d5efaae52dba5a800007675a1bb74f0d5770dfc905c508e6273fadc595ddc15326cc907889bdfffa50602c803acd8838994cf1d4868274c655d8d6643f7ca0087d45ed48a986c179480665909d0eb2763c96e085fa74ba6cf0d49136f8654c48ec7dbc59279a9066c7dd40900000000000f42400000000000000000000000000000000000000000000000000000000000000000000000000000160003010011010000000000000000000000000000138800000000000000000000",
          "blockHash": "0x2f80c16050b638140d7cce307faf5067e17b6164c14b398248b6e19238cbdafb",
          "blockNumber": "0x11c0b54",
          "transactionHash": "0x7c48a4eb5dd353b85d2c84f619b6c177a62fe25d9b8475c8cea79bfc00e59422",
          "transactionIndex": "0x5",
          "logIndex": "0x8",
          "removed": false
        },
        {
          "address": "0x57558cb8d6005de0bae8a2789d5efaae52dba5a8",
          "topics": [
            "0x85496b760a4b7f8d66384b9df21b381f5d1b1e79f229a47aaf4c232edc2fe59a",
            "0x03acd8838994cf1d4868274c655d8d6643f7ca0087d45ed48a986c1794806659",
            "0x000000000000000000000000741f0d8bde14140f62107fc60a0ee122b37d4630"
          ],
          "data": "0x00000000000000000000000000000000000000000000000000000000000076750000000000000000000000000000000000000000000000000de0b6b3a76400000000000000000000000000000000000000000000000000000de0b6b3a7640000",
          "blockHash": "0x2f80c16050b638140d7cce307faf5067e17b6164c14b398248b6e19238cbdafb",
          "blockNumber": "0x11c0b54",
          "transactionHash": "0x7c48a4eb5dd353b85d2c84f619b6c177a62fe25d9b8475c8cea79bfc00e59422",
          "transactionIndex": "0x5",
          "logIndex": "0x9",
          "removed": false
        }
      ],
      "logsBloom": "0x0000000000000000000000000004004000010000000000000000000000000020000000000000000000000000000000040000010000000000000000000000000000000200000000020000000800000000000000000000000004000000000000000004000002000000800000000000080000000000000200000001001000000000000000000000000000004008000000000000000000000000000000000000000000000000a000001000100000000000000000000000400001000440000000000000000002000000000000000080000000000000000000000000000000000020000000040000000000000000200000002020000000008000000000000000000000",
      "type": "0x2",
      "transactionHash": "0x7c48a4eb5dd353b85d2c84f619b6c177a62fe25d9b8475c8cea79bfc00e59422",
      "transactionIndex": "0x5",
      "blockHash": "0x2f80c16050b638140d7cce307faf5067e17b6164c14b398248b6e19238cbdafb",
      "blockNumber": "0x11c0b54",
      "gasUsed": "0xa48fa",
      "effectiveGasPrice": "0xa199",
      "from": "0x45dce8e4f2dc005a5f28206a46cb034697eeda8e",
      "to": "0x741f0d8bde14140f62107fc60a0ee122b37d4630",
      "contractAddress": null,
      "l1BaseFeeScalar": "0x558",
      "l1BlobBaseFee": "0x1",
      "l1BlobBaseFeeScalar": "0xc5fc5",
      "l1Fee": "0x188961d46",
      "l1GasPrice": "0x4d1a9d06",
      "l1GasUsed": "0xe89"
    }
  ],
  "libraries": [],
  "pending": [],
  "returns": {},
  "timestamp": 1752113535,
  "chain": 57073,
  "commit": "4a90ad4"
}