{
  "transactions": [
    {
      "hash": "0x5eb55537dd20c446ef1c52d7687c685400d5cfd3e99821c5d302ff5cc6bfe83f",
      "transactionType": "CALL",
      "contractName": null,
      "contractAddress": "0x57558cb8d6005de0bae8a2789d5efaae52dba5a8",
      "function": "setEnforcedOptions((uint32,uint16,bytes)[])",
      "arguments": [
        "[(30260, 1, 0x00030100110100000000000000000000000000030d40), (30260, 2, 0x0003010011010000000000000000000000000003d090), (30280, 1, 0x00030100110100000000000000000000000000030d40), (30280, 2, 0x0003010011010000000000000000000000000003d090), (30255, 1, 0x00030100110100000000000000000000000000030d40), (30255, 2, 0x0003010011010000000000000000000000000003d090), (30332, 1, 0x00030100110100000000000000000000000000030d40), (30332, 2, 0x0003010011010000000000000000000000000003d090), (30339, 1, 0x00030100110100000000000000000000000000030d40), (30339, 2, 0x0003010011010000000000000000000000000003d090), (30110, 1, 0x00030100110100000000000000000000000000030d40), (30110, 2, 0x0003010011010000000000000000000000000003d090), (30111, 1, 0x00030100110100000000000000000000000000030d40), (30111, 2, 0x0003010011010000000000000000000000000003d090), (30109, 1, 0x00030100110100000000000000000000000000030d40), (30109, 2, 0x0003010011010000000000000000000000000003d090), (30106, 1, 0x00030100110100000000000000000000000000030d40), (30106, 2, 0x0003010011010000000000000000000000000003d090), (30102, 1, 0x00030100110100000000000000000000000000030d40), (30102, 2, 0x0003010011010000000000000000000000000003d090), (30158, 1, 0x00030100110100000000000000000000000000030d40), (30158, 2, 0x0003010011010000000000000000000000000003d090), (30101, 1, 0x00030100110100000000000000000000000000030d40), (30101, 2, 0x0003010011010000000000000000000000000003d090), (30243, 1, 0x00030100110100000000000000000000000000030d40), (30243, 2, 0x0003010011010000000000000000000000000003d090), (30184, 1, 0x00030100110100000000000000000000000000030d40), (30184, 2, 0x0003010011010000000000000000000000000003d090), (30362, 1, 0x00030100110100000000000000000000000000030d40), (30362, 2, 0x0003010011010000000000000000000000000003d090), (30183, 1, 0x00030100110100000000000000000000000000030d40), (30183, 2, 0x0003010011010000000000000000000000000003d090), (30319, 1, 0x00030100110100000000000000000000000000030d40), (30319, 2, 0x0003010011010000000000000000000000000003d090), (30320, 1, 0x00030100110100000000000000000000000000030d40), (30320, 2, 0x0003010011010000000000000000000000000003d090), (30370, 1, 0x00030100110100000000000000000000000000030d40), (30370, 2, 0x0003010011010000000000000000000000000003d090), (30376, 1, 0x00030100110100000000000000000000000000030d40), (30376, 2, 0x0003010011010000000000000000000000000003d090), (30375, 1, 0x00030100110100000000000000000000000000030d40), (30375, 2, 0x0003010011010000000000000000000000000003d090), (30211, 1, 0x00030100110100000000000000000000000000030d40), (30211, 2, 0x0003010011010000000000000000000000000003d090), (30214, 1, 0x00030100110100000000000000000000000000030d40), (30214, 2, 0x0003010011010000000000000000000000000003d090), (30324, 1, 0x00030100110100000000000000000000000000030d40), (30324, 2, 0x0003010011010000000000000000000000000003d090), (30165, 1, 0x00030100110100000000000000000000000000030d40), (30165, 2, 0x0003010011010000000000000000000000000003d090)]"
      ],
      "transaction": {
        "from": "0x45dce8e4f2dc005a5f28206a46cb034697eeda8e",
        "to": "0x57558cb8d6005de0bae8a2789d5efaae52dba5a8",
        "gas": "0xa5d7e",
        "value": "0x0",
        "input": "0xb98bd07000000000000000000000000000000000000000000000000000000000000000200000000000000000000000000000000000000000000000000000000000000032000000000000000000000000000000000000000000000000000000000000064000000000000000000000000000000000000000000000000000000000000006e00000000000000000000000000000000000000000000000000000000000000780000000000000000000000000000000000000000000000000000000000000082000000000000000000000000000000000000000000000000000000000000008c000000000000000000000000000000000000000000000000000000000000009600000000000000000000000000000000000000000000000000000000000000a000000000000000000000000000000000000000000000000000000000000000aa00000000000000000000000000000000000000000000000000000000000000b400000000000000000000000000000000000000000000000000000000000000be00000000000000000000000000000000000000000000000000000000000000c800000000000000000000000000000000000000000000000000000000000000d200000000000000000000000000000000000000000000000000000000000000dc00000000000000000000000000000000000000000000000000000000000000e600000000000000000000000000000000000000000000000000000000000000f000000000000000000000000000000000000000000000000000000000000000fa0000000000000000000000000000000000000000000000000000000000000104000000000000000000000000000000000000000000000000000000000000010e00000000000000000000000000000000000000000000000000000000000001180000000000000000000000000000000000000000000000000000000000000122000000000000000000000000000000000000000000000000000000000000012c00000000000000000000000000000000000000000000000000000000000001360000000000000000000000000000000000000000000000000000000000000140000000000000000000000000000000000000000000000000000000000000014a0000000000000000000000000000000000000000000000000000000000000154000000000000000000000000000000000000000000000000000000000000015e00000000000000000000000000000000000000000000000000000000000001680000000000000000000000000000000000000000000000000000000000000172000000000000000000000000000000000000000000000000000000000000017c00000000000000000000000000000000000000000000000000000000000001860000000000000000000000000000000000000000000000000000000000000190000000000000000000000000000000000000000000000000000000000000019a00000000000000000000000000000000000000000000000000000000000001a400000000000000000000000000000000000000000000000000000000000001ae00000000000000000000000000000000000000000000000000000000000001b800000000000000000000000000000000000000000000000000000000000001c200000000000000000000000000000000000000000000000000000000000001cc00000000000000000000000000000000000000000000000000000000000001d600000000000000000000000000000000000000000000000000000000000001e000000000000000000000000000000000000000000000000000000000000001ea00000000000000000000000000000000000000000000000000000000000001f400000000000000000000000000000000000000000000000000000000000001fe00000000000000000000000000000000000000000000000000000000000002080000000000000000000000000000000000000000000000000000000000000212000000000000000000000000000000000000000000000000000000000000021c00000000000000000000000000000000000000000000000000000000000002260000000000000000000000000000000000000000000000000000000000000230000000000000000000000000000000000000000000000000000000000000023a0000000000000000000000000000000000000000000000000000000000000244000000000000000000000000000000000000000000000000000000000000024e0000000000000000000000000000000000000000000000000000000000000763400000000000000000000000000000000000000000000000000000000000000010000000000000000000000000000000000000000000000000000000000000060000000000000000000000000000000000000000000000000000000000000001600030100110100000000000000000000000000030d400000000000000000000000000000000000000000000000000000000000000000000000000000000076340000000000000000000000000000000000000000000000000000000000000002000000000000000000000000000000000000000000000000000000000000006000000000000000000000000000000000000000000000000000000000000000160003010011010000000000000000000000000003d09000000000000000000000000000000000000000000000000000000000000000000000000000000000764800000000000000000000000000000000000000000000000000000000000000010000000000000000000000000000000000000000000000000000000000000060000000000000000000000000000000000000000000000000000000000000001600030100110100000000000000000000000000030d400000000000000000000000000000000000000000000000000000000000000000000000000000000076480000000000000000000000000000000000000000000000000000000000000002000000000000000000000000000000000000000000000000000000000000006000000000000000000000000000000000000000000000000000000000000000160003010011010000000000000000000000000003d09000000000000000000000000000000000000000000000000000000000000000000000000000000000762f00000000000000000000000000000000000000000000000000000000000000010000000000000000000000000000000000000000000000000000000000000060000000000000000000000000000000000000000000000000000000000000001600030100110100000000000000000000000000030d4000000000000000000000000000000000000000000000000000000000000000000000000000000000762f0000000000000000000000000000000000000000000000000000000000000002000000000000000000000000000000000000000000000000000000000000006000000000000000000000000000000000000000000000000000000000000000160003010011010000000000000000000000000003d09000000000000000000000000000000000000000000000000000000000000000000000000000000000767c00000000000000000000000000000000000000000000000000000000000000010000000000000000000000000000000000000000000000000000000000000060000000000000000000000000000000000000000000000000000000000000001600030100110100000000000000000000000000030d4000000000000000000000000000000000000000000000000000000000000000000000000000000000767c0000000000000000000000000000000000000000000000000000000000000002000000000000000000000000000000000000000000000000000000000000006000000000000000000000000000000000000000000000000000000000000000160003010011010000000000000000000000000003d09000000000000000000000000000000000000000000000000000000000000000000000000000000000768300000000000000000000000000000000000000000000000000000000000000010000000000000000000000000000000000000000000000000000000000000060000000000000000000000000000000000000000000000000000000000000001600030100110100000000000000000000000000030d400000000000000000000000000000000000000000000000000000000000000000000000000000000076830000000000000000000000000000000000000000000000000000000000000002000000000000000000000000000000000000000000000000000000000000006000000000000000000000000000000000000000000000000000000000000000160003010011010000000000000000000000000003d09000000000000000000000000000000000000000000000000000000000000000000000000000000000759e00000000000000000000000000000000000000000000000000000000000000010000000000000000000000000000000000000000000000000000000000000060000000000000000000000000000000000000000000000000000000000000001600030100110100000000000000000000000000030d4000000000000000000000000000000000000000000000000000000000000000000000000000000000759e0000000000000000000000000000000000000000000000000000000000000002000000000000000000000000000000000000000000000000000000000000006000000000000000000000000000000000000000000000000000000000000000160003010011010000000000000000000000000003d09000000000000000000000000000000000000000000000000000000000000000000000000000000000759f00000000000000000000000000000000000000000000000000000000000000010000000000000000000000000000000000000000000000000000000000000060000000000000000000000000000000000000000000000000000000000000001600030100110100000000000000000000000000030d4000000000000000000000000000000000000000000000000000000000000000000000000000000000759f0000000000000000000000000000000000000000000000000000000000000002000000000000000000000000000000000000000000000000000000000000006000000000000000000000000000000000000000000000000000000000000000160003010011010000000000000000000000000003d09000000000000000000000000000000000000000000000000000000000000000000000000000000000759d00000000000000000000000000000000000000000000000000000000000000010000000000000000000000000000000000000000000000000000000000000060000000000000000000000000000000000000000000000000000000000000001600030100110100000000000000000000000000030d4000000000000000000000000000000000000000000000000000000000000000000000000000000000759d0000000000000000000000000000000000000000000000000000000000000002000000000000000000000000000000000000000000000000000000000000006000000000000000000000000000000000000000000000000000000000000000160003010011010000000000000000000000000003d09000000000000000000000000000000000000000000000000000000000000000000000000000000000759a00000000000000000000000000000000000000000000000000000000000000010000000000000000000000000000000000000000000000000000000000000060000000000000000000000000000000000000000000000000000000000000001600030100110100000000000000000000000000030d4000000000000000000000000000000000000000000000000000000000000000000000000000000000759a0000000000000000000000000000000000000000000000000000000000000002000000000000000000000000000000000000000000000000000000000000006000000000000000000000000000000000000000000000000000000000000000160003010011010000000000000000000000000003d09000000000000000000000000000000000000000000000000000000000000000000000000000000000759600000000000000000000000000000000000000000000000000000000000000010000000000000000000000000000000000000000000000000000000000000060000000000000000000000000000000000000000000000000000000000000001600030100110100000000000000000000000000030d400000000000000000000000000000000000000000000000000000000000000000000000000000000075960000000000000000000000000000000000000000000000000000000000000002000000000000000000000000000000000000000000000000000000000000006000000000000000000000000000000000000000000000000000000000000000160003010011010000000000000000000000000003d0900000000000000000000000000000000000000000000000000000000000000000000000000000000075ce00000000000000000000000000000000000000000000000000000000000000010000000000000000000000000000000000000000000000000000000000000060000000000000000000000000000000000000000000000000000000000000001600030100110100000000000000000000000000030d400000000000000000000000000000000000000000000000000000000000000000000000000000000075ce0000000000000000000000000000000000000000000000000000000000000002000000000000000000000000000000000000000000000000000000000000006000000000000000000000000000000000000000000000000000000000000000160003010011010000000000000000000000000003d09000000000000000000000000000000000000000000000000000000000000000000000000000000000759500000000000000000000000000000000000000000000000000000000000000010000000000000000000000000000000000000000000000000000000000000060000000000000000000000000000000000000000000000000000000000000001600030100110100000000000000000000000000030d400000000000000000000000000000000000000000000000000000000000000000000000000000000075950000000000000000000000000000000000000000000000000000000000000002000000000000000000000000000000000000000000000000000000000000006000000000000000000000000000000000000000000000000000000000000000160003010011010000000000000000000000000003d09000000000000000000000000000000000000000000000000000000000000000000000000000000000762300000000000000000000000000000000000000000000000000000000000000010000000000000000000000000000000000000000000000000000000000000060000000000000000000000000000000000000000000000000000000000000001600030100110100000000000000000000000000030d400000000000000000000000000000000000000000000000000000000000000000000000000000000076230000000000000000000000000000000000000000000000000000000000000002000000000000000000000000000000000000000000000000000000000000006000000000000000000000000000000000000000000000000000000000000000160003010011010000000000000000000000000003d0900000000000000000000000000000000000000000000000000000000000000000000000000000000075e800000000000000000000000000000000000000000000000000000000000000010000000000000000000000000000000000000000000000000000000000000060000000000000000000000000000000000000000000000000000000000000001600030100110100000000000000000000000000030d400000000000000000000000000000000000000000000000000000000000000000000000000000000075e80000000000000000000000000000000000000000000000000000000000000002000000000000000000000000000000000000000000000000000000000000006000000000000000000000000000000000000000000000000000000000000000160003010011010000000000000000000000000003d09000000000000000000000000000000000000000000000000000000000000000000000000000000000769a00000000000000000000000000000000000000000000000000000000000000010000000000000000000000000000000000000000000000000000000000000060000000000000000000000000000000000000000000000000000000000000001600030100110100000000000000000000000000030d4000000000000000000000000000000000000000000000000000000000000000000000000000000000769a0000000000000000000000000000000000000000000000000000000000000002000000000000000000000000000000000000000000000000000000000000006000000000000000000000000000000000000000000000000000000000000000160003010011010000000000000000000000000003d0900000000000000000000000000000000000000000000000000000000000000000000000000000000075e700000000000000000000000000000000000000000000000000000000000000010000000000000000000000000000000000000000000000000000000000000060000000000000000000000000000000000000000000000000000000000000001600030100110100000000000000000000000000030d400000000000000000000000000000000000000000000000000000000000000000000000000000000075e70000000000000000000000000000000000000000000000000000000000000002000000000000000000000000000000000000000000000000000000000000006000000000000000000000000000000000000000000000000000000000000000160003010011010000000000000000000000000003d09000000000000000000000000000000000000000000000000000000000000000000000000000000000766f00000000000000000000000000000000000000000000000000000000000000010000000000000000000000000000000000000000000000000000000000000060000000000000000000000000000000000000000000000000000000000000001600030100110100000000000000000000000000030d4000000000000000000000000000000000000000000000000000000000000000000000000000000000766f0000000000000000000000000000000000000000000000000000000000000002000000000000000000000000000000000000000000000000000000000000006000000000000000000000000000000000000000000000000000000000000000160003010011010000000000000000000000000003d09000000000000000000000000000000000000000000000000000000000000000000000000000000000767000000000000000000000000000000000000000000000000000000000000000010000000000000000000000000000000000000000000000000000000000000060000000000000000000000000000000000000000000000000000000000000001600030100110100000000000000000000000000030d400000000000000000000000000000000000000000000000000000000000000000000000000000000076700000000000000000000000000000000000000000000000000000000000000002000000000000000000000000000000000000000000000000000000000000006000000000000000000000000000000000000000000000000000000000000000160003010011010000000000000000000000000003d0900000000000000000000000000000000000000000000000000000000000000000000000000000000076a200000000000000000000000000000000000000000000000000000000000000010000000000000000000000000000000000000000000000000000000000000060000000000000000000000000000000000000000000000000000000000000001600030100110100000000000000000000000000030d400000000000000000000000000000000000000000000000000000000000000000000000000000000076a20000000000000000000000000000000000000000000000000000000000000002000000000000000000000000000000000000000000000000000000000000006000000000000000000000000000000000000000000000000000000000000000160003010011010000000000000000000000000003d0900000000000000000000000000000000000000000000000000000000000000000000000000000000076a800000000000000000000000000000000000000000000000000000000000000010000000000000000000000000000000000000000000000000000000000000060000000000000000000000000000000000000000000000000000000000000001600030100110100000000000000000000000000030d400000000000000000000000000000000000000000000000000000000000000000000000000000000076a80000000000000000000000000000000000000000000000000000000000000002000000000000000000000000000000000000000000000000000000000000006000000000000000000000000000000000000000000000000000000000000000160003010011010000000000000000000000000003d0900000000000000000000000000000000000000000000000000000000000000000000000000000000076a700000000000000000000000000000000000000000000000000000000000000010000000000000000000000000000000000000000000000000000000000000060000000000000000000000000000000000000000000000000000000000000001600030100110100000000000000000000000000030d400000000000000000000000000000000000000000000000000000000000000000000000000000000076a70000000000000000000000000000000000000000000000000000000000000002000000000000000000000000000000000000000000000000000000000000006000000000000000000000000000000000000000000000000000000000000000160003010011010000000000000000000000000003d09000000000000000000000000000000000000000000000000000000000000000000000000000000000760300000000000000000000000000000000000000000000000000000000000000010000000000000000000000000000000000000000000000000000000000000060000000000000000000000000000000000000000000000000000000000000001600030100110100000000000000000000000000030d400000000000000000000000000000000000000000000000000000000000000000000000000000000076030000000000000000000000000000000000000000000000000000000000000002000000000000000000000000000000000000000000000000000000000000006000000000000000000000000000000000000000000000000000000000000000160003010011010000000000000000000000000003d09000000000000000000000000000000000000000000000000000000000000000000000000000000000760600000000000000000000000000000000000000000000000000000000000000010000000000000000000000000000000000000000000000000000000000000060000000000000000000000000000000000000000000000000000000000000001600030100110100000000000000000000000000030d400000000000000000000000000000000000000000000000000000000000000000000000000000000076060000000000000000000000000000000000000000000000000000000000000002000000000000000000000000000000000000000000000000000000000000006000000000000000000000000000000000000000000000000000000000000000160003010011010000000000000000000000000003d09000000000000000000000000000000000000000000000000000000000000000000000000000000000767400000000000000000000000000000000000000000000000000000000000000010000000000000000000000000000000000000000000000000000000000000060000000000000000000000000000000000000000000000000000000000000001600030100110100000000000000000000000000030d400000000000000000000000000000000000000000000000000000000000000000000000000000000076740000000000000000000000000000000000000000000000000000000000000002000000000000000000000000000000000000000000000000000000000000006000000000000000000000000000000000000000000000000000000000000000160003010011010000000000000000000000000003d0900000000000000000000000000000000000000000000000000000000000000000000000000000000075d500000000000000000000000000000000000000000000000000000000000000010000000000000000000000000000000000000000000000000000000000000060000000000000000000000000000000000000000000000000000000000000001600030100110100000000000000000000000000030d400000000000000000000000000000000000000000000000000000000000000000000000000000000075d50000000000000000000000000000000000000000000000000000000000000002000000000000000000000000000000000000000000000000000000000000006000000000000000000000000000000000000000000000000000000000000000160003010011010000000000000000000000000003d09000000000000000000000",
        "nonce": "0x89",
        "chainId": "0xc4"
      },
      "additionalContracts": [],
      "isFixedGasLimit": false
    },
    {
      "hash": "0xe1849ddf20592fc155561f84a4f686027664c5897dc90e62dbc7ebd122bf8d0a",
      "transactionType": "CALL",
      "contractName": null,
      "contractAddress": "0x57558cb8d6005de0bae8a2789d5efaae52dba5a8",
      "function": "setPeer(uint32,bytes32)",
      "arguments": [
        "30211",
        "0x000000000000000000000000a057d8d4fc86a62801ce363c169b0a8d192f6cee"
      ],
      "transaction": {
        "from": "0x45dce8e4f2dc005a5f28206a46cb034697eeda8e",
        "to": "0x57558cb8d6005de0bae8a2789d5efaae52dba5a8",
        "gas": "0x13a45",
        "value": "0x0",
        "input": "0x3400288b0000000000000000000000000000000000000000000000000000000000007603000000000000000000000000a057d8d4fc86a62801ce363c169b0a8d192f6cee",
        "nonce": "0x8a",
        "chainId": "0xc4"
      },
      "additionalContracts": [],
      "isFixedGasLimit": false
    },
    {
      "hash": "0x6ee234c80d42b904db2127d8fe5f3cfd97bc500a08841b32049b0027d750814f",
      "transactionType": "CALL",
      "contractName": null,
      "contractAddress": "0x57558cb8d6005de0bae8a2789d5efaae52dba5a8",
      "function": "setPeer(uint32,bytes32)",
      "arguments": [
        "30214",
        "0x00000000000000000000000057558cb8d6005de0bae8a2789d5efaae52dba5a8"
      ],
      "transaction": {
        "from": "0x45dce8e4f2dc005a5f28206a46cb034697eeda8e",
        "to": "0x57558cb8d6005de0bae8a2789d5efaae52dba5a8",
        "gas": "0x128be",
        "value": "0x0",
        "input": "0x3400288b000000000000000000000000000000000000000000000000000000000000760600000000000000000000000057558cb8d6005de0bae8a2789d5efaae52dba5a8",
        "nonce": "0x8b",
        "chainId": "0xc4"
      },
      "additionalContracts": [],
      "isFixedGasLimit": false
    },
    {
      "hash": "0x494e0be0b5bf14f3667bf3536b04f5ca3336c0af582a2c634769f9cd64e25091",
      "transactionType": "CALL",
      "contractName": null,
      "contractAddress": "0x1a44076050125825900e736c501f859c50fe728c",
      "function": "setConfig(address,address,(uint32,uint32,bytes)[])",
      "arguments": [
        "0x57558Cb8d6005DE0BAe8a2789d5EfaaE52dba5a8",
        "0xe1844c5D63a9543023008D332Bd3d2e6f1FE1043",
        "[(30211, 2, 0x0000000000000000000000000000000000000000000000000000000000000020000000000000000000000000000000000000000000000000000000000000000000000000000000000000000000000000000000000000000000000000000000030000000000000000000000000000000000000000000000000000000000000000000000000000000000000000000000000000000000000000000000000000000000000000000000000000000000000000000000000000000000000000000000c0000000000000000000000000000000000000000000000000000000000000014000000000000000000000000000000000000000000000000000000000000000030000000000000000000000002ae36a544b904f2f2960f6fd1a6084b4b11ba3340000000000000000000000009c061c9a4782294eef65ef28cb88233a987f4bdd000000000000000000000000dd7b5e1db4aafd5c8ec3b764efb8ed265aa5445b0000000000000000000000000000000000000000000000000000000000000000)]"
      ],
      "transaction": {
        "from": "0x45dce8e4f2dc005a5f28206a46cb034697eeda8e",
        "to": "0x1a44076050125825900e736c501f859c50fe728c",
        "gas": "0x36d12",
        "value": "0x0",
        "input": "0x6dbd9f9000000000000000000000000057558cb8d6005de0bae8a2789d5efaae52dba5a8000000000000000000000000e1844c5d63a9543023008d332bd3d2e6f1fe104300000000000000000000000000000000000000000000000000000000000000600000000000000000000000000000000000000000000000000000000000000001000000000000000000000000000000000000000000000000000000000000002000000000000000000000000000000000000000000000000000000000000076030000000000000000000000000000000000000000000000000000000000000002000000000000000000000000000000000000000000000000000000000000006000000000000000000000000000000000000000000000000000000000000001800000000000000000000000000000000000000000000000000000000000000020000000000000000000000000000000000000000000000000000000000000000000000000000000000000000000000000000000000000000000000000000000030000000000000000000000000000000000000000000000000000000000000000000000000000000000000000000000000000000000000000000000000000000000000000000000000000000000000000000000000000000000000000000000c0000000000000000000000000000000000000000000000000000000000000014000000000000000000000000000000000000000000000000000000000000000030000000000000000000000002ae36a544b904f2f2960f6fd1a6084b4b11ba3340000000000000000000000009c061c9a4782294eef65ef28cb88233a987f4bdd000000000000000000000000dd7b5e1db4aafd5c8ec3b764efb8ed265aa5445b0000000000000000000000000000000000000000000000000000000000000000",
        "nonce": "0x8c",
        "chainId": "0xc4"
      },
      "additionalContracts": [],
      "isFixedGasLimit": false
    },
    {
      "hash": "0xb41b8a5453befab8c5f19d8fb1ea43a5a6be0459ecc870a01d0cc58027517bc5",
      "transactionType": "CALL",
      "contractName": null,
      "contractAddress": "0x1a44076050125825900e736c501f859c50fe728c",
      "function": "setConfig(address,address,(uint32,uint32,bytes)[])",
      "arguments": [
        "0x57558Cb8d6005DE0BAe8a2789d5EfaaE52dba5a8",
        "0x2367325334447C5E1E0f1b3a6fB947b262F58312",
        "[(30211, 2, 0x0000000000000000000000000000000000000000000000000000000000000020000000000000000000000000000000000000000000000000000000000000000000000000000000000000000000000000000000000000000000000000000000030000000000000000000000000000000000000000000000000000000000000000000000000000000000000000000000000000000000000000000000000000000000000000000000000000000000000000000000000000000000000000000000c0000000000000000000000000000000000000000000000000000000000000014000000000000000000000000000000000000000000000000000000000000000030000000000000000000000002ae36a544b904f2f2960f6fd1a6084b4b11ba3340000000000000000000000009c061c9a4782294eef65ef28cb88233a987f4bdd000000000000000000000000dd7b5e1db4aafd5c8ec3b764efb8ed265aa5445b0000000000000000000000000000000000000000000000000000000000000000)]"
      ],
      "transaction": {
        "from": "0x45dce8e4f2dc005a5f28206a46cb034697eeda8e",
        "to": "0x1a44076050125825900e736c501f859c50fe728c",
        "gas": "0x39f54",
        "value": "0x0",
        "input": "0x6dbd9f9000000000000000000000000057558cb8d6005de0bae8a2789d5efaae52dba5a80000000000000000000000002367325334447c5e1e0f1b3a6fb947b262f5831200000000000000000000000000000000000000000000000000000000000000600000000000000000000000000000000000000000000000000000000000000001000000000000000000000000000000000000000000000000000000000000002000000000000000000000000000000000000000000000000000000000000076030000000000000000000000000000000000000000000000000000000000000002000000000000000000000000000000000000000000000000000000000000006000000000000000000000000000000000000000000000000000000000000001800000000000000000000000000000000000000000000000000000000000000020000000000000000000000000000000000000000000000000000000000000000000000000000000000000000000000000000000000000000000000000000000030000000000000000000000000000000000000000000000000000000000000000000000000000000000000000000000000000000000000000000000000000000000000000000000000000000000000000000000000000000000000000000000c0000000000000000000000000000000000000000000000000000000000000014000000000000000000000000000000000000000000000000000000000000000030000000000000000000000002ae36a544b904f2f2960f6fd1a6084b4b11ba3340000000000000000000000009c061c9a4782294eef65ef28cb88233a987f4bdd000000000000000000000000dd7b5e1db4aafd5c8ec3b764efb8ed265aa5445b0000000000000000000000000000000000000000000000000000000000000000",
        "nonce": "0x8d",
        "chainId": "0xc4"
      },
      "additionalContracts": [],
      "isFixedGasLimit": false
    },
    {
      "hash": "0x1bcf6bd99b93d313dd3d7f60821c5f7a85095ac96dc363e38d3dff9260f360b6",
      "transactionType": "CALL",
      "contractName": null,
      "contractAddress": "0x1a44076050125825900e736c501f859c50fe728c",
      "function": "setConfig(address,address,(uint32,uint32,bytes)[])",
      "arguments": [
        "0x57558Cb8d6005DE0BAe8a2789d5EfaaE52dba5a8",
        "0xe1844c5D63a9543023008D332Bd3d2e6f1FE1043",
        "[(30214, 2, 0x0000000000000000000000000000000000000000000000000000000000000020000000000000000000000000000000000000000000000000000000000000000000000000000000000000000000000000000000000000000000000000000000030000000000000000000000000000000000000000000000000000000000000000000000000000000000000000000000000000000000000000000000000000000000000000000000000000000000000000000000000000000000000000000000c0000000000000000000000000000000000000000000000000000000000000014000000000000000000000000000000000000000000000000000000000000000030000000000000000000000002ae36a544b904f2f2960f6fd1a6084b4b11ba3340000000000000000000000009c061c9a4782294eef65ef28cb88233a987f4bdd000000000000000000000000dd7b5e1db4aafd5c8ec3b764efb8ed265aa5445b0000000000000000000000000000000000000000000000000000000000000000)]"
      ],
      "transaction": {
        "from": "0x45dce8e4f2dc005a5f28206a46cb034697eeda8e",
        "to": "0x1a44076050125825900e736c501f859c50fe728c",
        "gas": "0x36d12",
        "value": "0x0",
        "input": "0x6dbd9f9000000000000000000000000057558cb8d6005de0bae8a2789d5efaae52dba5a8000000000000000000000000e1844c5d63a9543023008d332bd3d2e6f1fe104300000000000000000000000000000000000000000000000000000000000000600000000000000000000000000000000000000000000000000000000000000001000000000000000000000000000000000000000000000000000000000000002000000000000000000000000000000000000000000000000000000000000076060000000000000000000000000000000000000000000000000000000000000002000000000000000000000000000000000000000000000000000000000000006000000000000000000000000000000000000000000000000000000000000001800000000000000000000000000000000000000000000000000000000000000020000000000000000000000000000000000000000000000000000000000000000000000000000000000000000000000000000000000000000000000000000000030000000000000000000000000000000000000000000000000000000000000000000000000000000000000000000000000000000000000000000000000000000000000000000000000000000000000000000000000000000000000000000000c0000000000000000000000000000000000000000000000000000000000000014000000000000000000000000000000000000000000000000000000000000000030000000000000000000000002ae36a544b904f2f2960f6fd1a6084b4b11ba3340000000000000000000000009c061c9a4782294eef65ef28cb88233a987f4bdd000000000000000000000000dd7b5e1db4aafd5c8ec3b764efb8ed265aa5445b0000000000000000000000000000000000000000000000000000000000000000",
        "nonce": "0x8e",
        "chainId": "0xc4"
      },
      "additionalContracts": [],
      "isFixedGasLimit": false
    },
    {
      "hash": "0xd535a6ce25a787ec9c70e774763ff4421ad7ed0b02e82be4849de3c0d31ae57a",
      "transactionType": "CALL",
      "contractName": null,
      "contractAddress": "0x1a44076050125825900e736c501f859c50fe728c",
      "function": "setConfig(address,address,(uint32,uint32,bytes)[])",
      "arguments": [
        "0x57558Cb8d6005DE0BAe8a2789d5EfaaE52dba5a8",
        "0x2367325334447C5E1E0f1b3a6fB947b262F58312",
        "[(30214, 2, 0x0000000000000000000000000000000000000000000000000000000000000020000000000000000000000000000000000000000000000000000000000000000000000000000000000000000000000000000000000000000000000000000000030000000000000000000000000000000000000000000000000000000000000000000000000000000000000000000000000000000000000000000000000000000000000000000000000000000000000000000000000000000000000000000000c0000000000000000000000000000000000000000000000000000000000000014000000000000000000000000000000000000000000000000000000000000000030000000000000000000000002ae36a544b904f2f2960f6fd1a6084b4b11ba3340000000000000000000000009c061c9a4782294eef65ef28cb88233a987f4bdd000000000000000000000000dd7b5e1db4aafd5c8ec3b764efb8ed265aa5445b0000000000000000000000000000000000000000000000000000000000000000)]"
      ],
      "transaction": {
        "from": "0x45dce8e4f2dc005a5f28206a46cb034697eeda8e",
        "to": "0x1a44076050125825900e736c501f859c50fe728c",
        "gas": "0x39f54",
        "value": "0x0",
        "input": "0x6dbd9f9000000000000000000000000057558cb8d6005de0bae8a2789d5efaae52dba5a80000000000000000000000002367325334447c5e1e0f1b3a6fb947b262f5831200000000000000000000000000000000000000000000000000000000000000600000000000000000000000000000000000000000000000000000000000000001000000000000000000000000000000000000000000000000000000000000002000000000000000000000000000000000000000000000000000000000000076060000000000000000000000000000000000000000000000000000000000000002000000000000000000000000000000000000000000000000000000000000006000000000000000000000000000000000000000000000000000000000000001800000000000000000000000000000000000000000000000000000000000000020000000000000000000000000000000000000000000000000000000000000000000000000000000000000000000000000000000000000000000000000000000030000000000000000000000000000000000000000000000000000000000000000000000000000000000000000000000000000000000000000000000000000000000000000000000000000000000000000000000000000000000000000000000c0000000000000000000000000000000000000000000000000000000000000014000000000000000000000000000000000000000000000000000000000000000030000000000000000000000002ae36a544b904f2f2960f6fd1a6084b4b11ba3340000000000000000000000009c061c9a4782294eef65ef28cb88233a987f4bdd000000000000000000000000dd7b5e1db4aafd5c8ec3b764efb8ed265aa5445b0000000000000000000000000000000000000000000000000000000000000000",
        "nonce": "0x8f",
        "chainId": "0xc4"
      },
      "additionalContracts": [],
      "isFixedGasLimit": false
    },
    {
      "hash": "0xe501ea1bd072ee6876db8cddb1c75960081f92544f7a94654c4a3ec9611611e3",
      "transactionType": "CALL",
      "contractName": null,
      "contractAddress": "0x1a44076050125825900e736c501f859c50fe728c",
      "function": "setSendLibrary(address,uint32,address)",
      "arguments": [
        "0x57558Cb8d6005DE0BAe8a2789d5EfaaE52dba5a8",
        "30211",
        "0xe1844c5D63a9543023008D332Bd3d2e6f1FE1043"
      ],
      "transaction": {
        "from": "0x45dce8e4f2dc005a5f28206a46cb034697eeda8e",
        "to": "0x1a44076050125825900e736c501f859c50fe728c",
        "gas": "0x1376a",
        "value": "0x0",
        "input": "0x9535ff3000000000000000000000000057558cb8d6005de0bae8a2789d5efaae52dba5a80000000000000000000000000000000000000000000000000000000000007603000000000000000000000000e1844c5d63a9543023008d332bd3d2e6f1fe1043",
        "nonce": "0x90",
        "chainId": "0xc4"
      },
      "additionalContracts": [],
      "isFixedGasLimit": false
    },
    {
      "hash": "0xd9ba1760fe9d5d01d2d23c4ab907b14ac4c5ec95c5d35385021e0e8bc949bbdd",
      "transactionType": "CALL",
      "contractName": null,
      "contractAddress": "0x1a44076050125825900e736c501f859c50fe728c",
      "function": "setReceiveLibrary(address,uint32,address,uint256)",
      "arguments": [
        "0x57558Cb8d6005DE0BAe8a2789d5EfaaE52dba5a8",
        "30211",
        "0x2367325334447C5E1E0f1b3a6fB947b262F58312",
        "0"
      ],
      "transaction": {
        "from": "0x45dce8e4f2dc005a5f28206a46cb034697eeda8e",
        "to": "0x1a44076050125825900e736c501f859c50fe728c",
        "gas": "0x15b7f",
        "value": "0x0",
        "input": "0x6a14d71500000000000000000000000057558cb8d6005de0bae8a2789d5efaae52dba5a800000000000000000000000000000000000000000000000000000000000076030000000000000000000000002367325334447c5e1e0f1b3a6fb947b262f583120000000000000000000000000000000000000000000000000000000000000000",
        "nonce": "0x91",
        "chainId": "0xc4"
      },
      "additionalContracts": [],
      "isFixedGasLimit": false
    },
    {
      "hash": "0xb0cbabf92f3df729ee7610c57ea27cfe2ff053ed17f985a78c25db78c5b96b1c",
      "transactionType": "CALL",
      "contractName": null,
      "contractAddress": "0x1a44076050125825900e736c501f859c50fe728c",
      "function": "setSendLibrary(address,uint32,address)",
      "arguments": [
        "0x57558Cb8d6005DE0BAe8a2789d5EfaaE52dba5a8",
        "30214",
        "0xe1844c5D63a9543023008D332Bd3d2e6f1FE1043"
      ],
      "transaction": {
        "from": "0x45dce8e4f2dc005a5f28206a46cb034697eeda8e",
        "to": "0x1a44076050125825900e736c501f859c50fe728c",
        "gas": "0x1376a",
        "value": "0x0",
        "input": "0x9535ff3000000000000000000000000057558cb8d6005de0bae8a2789d5efaae52dba5a80000000000000000000000000000000000000000000000000000000000007606000000000000000000000000e1844c5d63a9543023008d332bd3d2e6f1fe1043",
        "nonce": "0x92",
        "chainId": "0xc4"
      },
      "additionalContracts": [],
      "isFixedGasLimit": false
    },
    {
      "hash": "0x7d2caa0b928f1fa6a4f16017db83f4a65e0c3418a3f9fbd6ebe0a8528ec7f3b7",
      "transactionType": "CALL",
      "contractName": null,
      "contractAddress": "0x1a44076050125825900e736c501f859c50fe728c",
      "function": "setReceiveLibrary(address,uint32,address,uint256)",
      "arguments": [
        "0x57558Cb8d6005DE0BAe8a2789d5EfaaE52dba5a8",
        "30214",
        "0x2367325334447C5E1E0f1b3a6fB947b262F58312",
        "0"
      ],
      "transaction": {
        "from": "0x45dce8e4f2dc005a5f28206a46cb034697eeda8e",
        "to": "0x1a44076050125825900e736c501f859c50fe728c",
        "gas": "0x15b7f",
        "value": "0x0",
        "input": "0x6a14d71500000000000000000000000057558cb8d6005de0bae8a2789d5efaae52dba5a800000000000000000000000000000000000000000000000000000000000076060000000000000000000000002367325334447c5e1e0f1b3a6fb947b262f583120000000000000000000000000000000000000000000000000000000000000000",
        "nonce": "0x93",
        "chainId": "0xc4"
      },
      "additionalContracts": [],
      "isFixedGasLimit": false
    }
  ],
  "receipts": [
    {
      "status": "0x1",
      "cumulativeGasUsed": "0x78115",
      "logs": [
        {
          "address": "0x57558cb8d6005de0bae8a2789d5efaae52dba5a8",
          "topics": [
            "0xbe4864a8e820971c0247f5992e2da559595f7bf076a21cb5928d443d2a13b674"
          ],
          "data": "0x00000000000000000000000000000000000000000000000000000000000000200000000000000000000000000000000000000000000000000000000000000032000000000000000000000000000000000000000000000000000000000000064000000000000000000000000000000000000000000000000000000000000006e00000000000000000000000000000000000000000000000000000000000000780000000000000000000000000000000000000000000000000000000000000082000000000000000000000000000000000000000000000000000000000000008c000000000000000000000000000000000000000000000000000000000000009600000000000000000000000000000000000000000000000000000000000000a000000000000000000000000000000000000000000000000000000000000000aa00000000000000000000000000000000000000000000000000000000000000b400000000000000000000000000000000000000000000000000000000000000be00000000000000000000000000000000000000000000000000000000000000c800000000000000000000000000000000000000000000000000000000000000d200000000000000000000000000000000000000000000000000000000000000dc00000000000000000000000000000000000000000000000000000000000000e600000000000000000000000000000000000000000000000000000000000000f000000000000000000000000000000000000000000000000000000000000000fa0000000000000000000000000000000000000000000000000000000000000104000000000000000000000000000000000000000000000000000000000000010e00000000000000000000000000000000000000000000000000000000000001180000000000000000000000000000000000000000000000000000000000000122000000000000000000000000000000000000000000000000000000000000012c00000000000000000000000000000000000000000000000000000000000001360000000000000000000000000000000000000000000000000000000000000140000000000000000000000000000000000000000000000000000000000000014a0000000000000000000000000000000000000000000000000000000000000154000000000000000000000000000000000000000000000000000000000000015e00000000000000000000000000000000000000000000000000000000000001680000000000000000000000000000000000000000000000000000000000000172000000000000000000000000000000000000000000000000000000000000017c00000000000000000000000000000000000000000000000000000000000001860000000000000000000000000000000000000000000000000000000000000190000000000000000000000000000000000000000000000000000000000000019a00000000000000000000000000000000000000000000000000000000000001a400000000000000000000000000000000000000000000000000000000000001ae00000000000000000000000000000000000000000000000000000000000001b800000000000000000000000000000000000000000000000000000000000001c200000000000000000000000000000000000000000000000000000000000001cc00000000000000000000000000000000000000000000000000000000000001d600000000000000000000000000000000000000000000000000000000000001e000000000000000000000000000000000000000000000000000000000000001ea00000000000000000000000000000000000000000000000000000000000001f400000000000000000000000000000000000000000000000000000000000001fe00000000000000000000000000000000000000000000000000000000000002080000000000000000000000000000000000000000000000000000000000000212000000000000000000000000000000000000000000000000000000000000021c00000000000000000000000000000000000000000000000000000000000002260000000000000000000000000000000000000000000000000000000000000230000000000000000000000000000000000000000000000000000000000000023a0000000000000000000000000000000000000000000000000000000000000244000000000000000000000000000000000000000000000000000000000000024e0000000000000000000000000000000000000000000000000000000000000763400000000000000000000000000000000000000000000000000000000000000010000000000000000000000000000000000000000000000000000000000000060000000000000000000000000000000000000000000000000000000000000001600030100110100000000000000000000000000030d400000000000000000000000000000000000000000000000000000000000000000000000000000000076340000000000000000000000000000000000000000000000000000000000000002000000000000000000000000000000000000000000000000000000000000006000000000000000000000000000000000000000000000000000000000000000160003010011010000000000000000000000000003d09000000000000000000000000000000000000000000000000000000000000000000000000000000000764800000000000000000000000000000000000000000000000000000000000000010000000000000000000000000000000000000000000000000000000000000060000000000000000000000000000000000000000000000000000000000000001600030100110100000000000000000000000000030d400000000000000000000000000000000000000000000000000000000000000000000000000000000076480000000000000000000000000000000000000000000000000000000000000002000000000000000000000000000000000000000000000000000000000000006000000000000000000000000000000000000000000000000000000000000000160003010011010000000000000000000000000003d09000000000000000000000000000000000000000000000000000000000000000000000000000000000762f00000000000000000000000000000000000000000000000000000000000000010000000000000000000000000000000000000000000000000000000000000060000000000000000000000000000000000000000000000000000000000000001600030100110100000000000000000000000000030d4000000000000000000000000000000000000000000000000000000000000000000000000000000000762f0000000000000000000000000000000000000000000000000000000000000002000000000000000000000000000000000000000000000000000000000000006000000000000000000000000000000000000000000000000000000000000000160003010011010000000000000000000000000003d09000000000000000000000000000000000000000000000000000000000000000000000000000000000767c00000000000000000000000000000000000000000000000000000000000000010000000000000000000000000000000000000000000000000000000000000060000000000000000000000000000000000000000000000000000000000000001600030100110100000000000000000000000000030d4000000000000000000000000000000000000000000000000000000000000000000000000000000000767c0000000000000000000000000000000000000000000000000000000000000002000000000000000000000000000000000000000000000000000000000000006000000000000000000000000000000000000000000000000000000000000000160003010011010000000000000000000000000003d09000000000000000000000000000000000000000000000000000000000000000000000000000000000768300000000000000000000000000000000000000000000000000000000000000010000000000000000000000000000000000000000000000000000000000000060000000000000000000000000000000000000000000000000000000000000001600030100110100000000000000000000000000030d400000000000000000000000000000000000000000000000000000000000000000000000000000000076830000000000000000000000000000000000000000000000000000000000000002000000000000000000000000000000000000000000000000000000000000006000000000000000000000000000000000000000000000000000000000000000160003010011010000000000000000000000000003d09000000000000000000000000000000000000000000000000000000000000000000000000000000000759e00000000000000000000000000000000000000000000000000000000000000010000000000000000000000000000000000000000000000000000000000000060000000000000000000000000000000000000000000000000000000000000001600030100110100000000000000000000000000030d4000000000000000000000000000000000000000000000000000000000000000000000000000000000759e0000000000000000000000000000000000000000000000000000000000000002000000000000000000000000000000000000000000000000000000000000006000000000000000000000000000000000000000000000000000000000000000160003010011010000000000000000000000000003d09000000000000000000000000000000000000000000000000000000000000000000000000000000000759f00000000000000000000000000000000000000000000000000000000000000010000000000000000000000000000000000000000000000000000000000000060000000000000000000000000000000000000000000000000000000000000001600030100110100000000000000000000000000030d4000000000000000000000000000000000000000000000000000000000000000000000000000000000759f0000000000000000000000000000000000000000000000000000000000000002000000000000000000000000000000000000000000000000000000000000006000000000000000000000000000000000000000000000000000000000000000160003010011010000000000000000000000000003d09000000000000000000000000000000000000000000000000000000000000000000000000000000000759d00000000000000000000000000000000000000000000000000000000000000010000000000000000000000000000000000000000000000000000000000000060000000000000000000000000000000000000000000000000000000000000001600030100110100000000000000000000000000030d4000000000000000000000000000000000000000000000000000000000000000000000000000000000759d0000000000000000000000000000000000000000000000000000000000000002000000000000000000000000000000000000000000000000000000000000006000000000000000000000000000000000000000000000000000000000000000160003010011010000000000000000000000000003d09000000000000000000000000000000000000000000000000000000000000000000000000000000000759a00000000000000000000000000000000000000000000000000000000000000010000000000000000000000000000000000000000000000000000000000000060000000000000000000000000000000000000000000000000000000000000001600030100110100000000000000000000000000030d4000000000000000000000000000000000000000000000000000000000000000000000000000000000759a0000000000000000000000000000000000000000000000000000000000000002000000000000000000000000000000000000000000000000000000000000006000000000000000000000000000000000000000000000000000000000000000160003010011010000000000000000000000000003d09000000000000000000000000000000000000000000000000000000000000000000000000000000000759600000000000000000000000000000000000000000000000000000000000000010000000000000000000000000000000000000000000000000000000000000060000000000000000000000000000000000000000000000000000000000000001600030100110100000000000000000000000000030d400000000000000000000000000000000000000000000000000000000000000000000000000000000075960000000000000000000000000000000000000000000000000000000000000002000000000000000000000000000000000000000000000000000000000000006000000000000000000000000000000000000000000000000000000000000000160003010011010000000000000000000000000003d0900000000000000000000000000000000000000000000000000000000000000000000000000000000075ce00000000000000000000000000000000000000000000000000000000000000010000000000000000000000000000000000000000000000000000000000000060000000000000000000000000000000000000000000000000000000000000001600030100110100000000000000000000000000030d400000000000000000000000000000000000000000000000000000000000000000000000000000000075ce0000000000000000000000000000000000000000000000000000000000000002000000000000000000000000000000000000000000000000000000000000006000000000000000000000000000000000000000000000000000000000000000160003010011010000000000000000000000000003d09000000000000000000000000000000000000000000000000000000000000000000000000000000000759500000000000000000000000000000000000000000000000000000000000000010000000000000000000000000000000000000000000000000000000000000060000000000000000000000000000000000000000000000000000000000000001600030100110100000000000000000000000000030d400000000000000000000000000000000000000000000000000000000000000000000000000000000075950000000000000000000000000000000000000000000000000000000000000002000000000000000000000000000000000000000000000000000000000000006000000000000000000000000000000000000000000000000000000000000000160003010011010000000000000000000000000003d09000000000000000000000000000000000000000000000000000000000000000000000000000000000762300000000000000000000000000000000000000000000000000000000000000010000000000000000000000000000000000000000000000000000000000000060000000000000000000000000000000000000000000000000000000000000001600030100110100000000000000000000000000030d400000000000000000000000000000000000000000000000000000000000000000000000000000000076230000000000000000000000000000000000000000000000000000000000000002000000000000000000000000000000000000000000000000000000000000006000000000000000000000000000000000000000000000000000000000000000160003010011010000000000000000000000000003d0900000000000000000000000000000000000000000000000000000000000000000000000000000000075e800000000000000000000000000000000000000000000000000000000000000010000000000000000000000000000000000000000000000000000000000000060000000000000000000000000000000000000000000000000000000000000001600030100110100000000000000000000000000030d400000000000000000000000000000000000000000000000000000000000000000000000000000000075e80000000000000000000000000000000000000000000000000000000000000002000000000000000000000000000000000000000000000000000000000000006000000000000000000000000000000000000000000000000000000000000000160003010011010000000000000000000000000003d09000000000000000000000000000000000000000000000000000000000000000000000000000000000769a00000000000000000000000000000000000000000000000000000000000000010000000000000000000000000000000000000000000000000000000000000060000000000000000000000000000000000000000000000000000000000000001600030100110100000000000000000000000000030d4000000000000000000000000000000000000000000000000000000000000000000000000000000000769a0000000000000000000000000000000000000000000000000000000000000002000000000000000000000000000000000000000000000000000000000000006000000000000000000000000000000000000000000000000000000000000000160003010011010000000000000000000000000003d0900000000000000000000000000000000000000000000000000000000000000000000000000000000075e700000000000000000000000000000000000000000000000000000000000000010000000000000000000000000000000000000000000000000000000000000060000000000000000000000000000000000000000000000000000000000000001600030100110100000000000000000000000000030d400000000000000000000000000000000000000000000000000000000000000000000000000000000075e70000000000000000000000000000000000000000000000000000000000000002000000000000000000000000000000000000000000000000000000000000006000000000000000000000000000000000000000000000000000000000000000160003010011010000000000000000000000000003d09000000000000000000000000000000000000000000000000000000000000000000000000000000000766f00000000000000000000000000000000000000000000000000000000000000010000000000000000000000000000000000000000000000000000000000000060000000000000000000000000000000000000000000000000000000000000001600030100110100000000000000000000000000030d4000000000000000000000000000000000000000000000000000000000000000000000000000000000766f0000000000000000000000000000000000000000000000000000000000000002000000000000000000000000000000000000000000000000000000000000006000000000000000000000000000000000000000000000000000000000000000160003010011010000000000000000000000000003d09000000000000000000000000000000000000000000000000000000000000000000000000000000000767000000000000000000000000000000000000000000000000000000000000000010000000000000000000000000000000000000000000000000000000000000060000000000000000000000000000000000000000000000000000000000000001600030100110100000000000000000000000000030d400000000000000000000000000000000000000000000000000000000000000000000000000000000076700000000000000000000000000000000000000000000000000000000000000002000000000000000000000000000000000000000000000000000000000000006000000000000000000000000000000000000000000000000000000000000000160003010011010000000000000000000000000003d0900000000000000000000000000000000000000000000000000000000000000000000000000000000076a200000000000000000000000000000000000000000000000000000000000000010000000000000000000000000000000000000000000000000000000000000060000000000000000000000000000000000000000000000000000000000000001600030100110100000000000000000000000000030d400000000000000000000000000000000000000000000000000000000000000000000000000000000076a20000000000000000000000000000000000000000000000000000000000000002000000000000000000000000000000000000000000000000000000000000006000000000000000000000000000000000000000000000000000000000000000160003010011010000000000000000000000000003d0900000000000000000000000000000000000000000000000000000000000000000000000000000000076a800000000000000000000000000000000000000000000000000000000000000010000000000000000000000000000000000000000000000000000000000000060000000000000000000000000000000000000000000000000000000000000001600030100110100000000000000000000000000030d400000000000000000000000000000000000000000000000000000000000000000000000000000000076a80000000000000000000000000000000000000000000000000000000000000002000000000000000000000000000000000000000000000000000000000000006000000000000000000000000000000000000000000000000000000000000000160003010011010000000000000000000000000003d0900000000000000000000000000000000000000000000000000000000000000000000000000000000076a700000000000000000000000000000000000000000000000000000000000000010000000000000000000000000000000000000000000000000000000000000060000000000000000000000000000000000000000000000000000000000000001600030100110100000000000000000000000000030d400000000000000000000000000000000000000000000000000000000000000000000000000000000076a70000000000000000000000000000000000000000000000000000000000000002000000000000000000000000000000000000000000000000000000000000006000000000000000000000000000000000000000000000000000000000000000160003010011010000000000000000000000000003d09000000000000000000000000000000000000000000000000000000000000000000000000000000000760300000000000000000000000000000000000000000000000000000000000000010000000000000000000000000000000000000000000000000000000000000060000000000000000000000000000000000000000000000000000000000000001600030100110100000000000000000000000000030d400000000000000000000000000000000000000000000000000000000000000000000000000000000076030000000000000000000000000000000000000000000000000000000000000002000000000000000000000000000000000000000000000000000000000000006000000000000000000000000000000000000000000000000000000000000000160003010011010000000000000000000000000003d09000000000000000000000000000000000000000000000000000000000000000000000000000000000760600000000000000000000000000000000000000000000000000000000000000010000000000000000000000000000000000000000000000000000000000000060000000000000000000000000000000000000000000000000000000000000001600030100110100000000000000000000000000030d400000000000000000000000000000000000000000000000000000000000000000000000000000000076060000000000000000000000000000000000000000000000000000000000000002000000000000000000000000000000000000000000000000000000000000006000000000000000000000000000000000000000000000000000000000000000160003010011010000000000000000000000000003d09000000000000000000000000000000000000000000000000000000000000000000000000000000000767400000000000000000000000000000000000000000000000000000000000000010000000000000000000000000000000000000000000000000000000000000060000000000000000000000000000000000000000000000000000000000000001600030100110100000000000000000000000000030d400000000000000000000000000000000000000000000000000000000000000000000000000000000076740000000000000000000000000000000000000000000000000000000000000002000000000000000000000000000000000000000000000000000000000000006000000000000000000000000000000000000000000000000000000000000000160003010011010000000000000000000000000003d0900000000000000000000000000000000000000000000000000000000000000000000000000000000075d500000000000000000000000000000000000000000000000000000000000000010000000000000000000000000000000000000000000000000000000000000060000000000000000000000000000000000000000000000000000000000000001600030100110100000000000000000000000000030d400000000000000000000000000000000000000000000000000000000000000000000000000000000075d50000000000000000000000000000000000000000000000000000000000000002000000000000000000000000000000000000000000000000000000000000006000000000000000000000000000000000000000000000000000000000000000160003010011010000000000000000000000000003d09000000000000000000000",
          "blockHash": "0x5adbdd1a1ddd3b589c5e3fcd9f5658c5cf83bb474488e8d455dd151328367dca",
          "blockNumber": "0x20453fe",
          "transactionHash": "0x5eb55537dd20c446ef1c52d7687c685400d5cfd3e99821c5d302ff5cc6bfe83f",
          "transactionIndex": "0x0",
          "logIndex": "0x0",
          "removed": false
        }
      ],
      "logsBloom": "0x00000000000000000000000000040000000000000000000000000000000000000000000000000000000000000000000400000000000000000000400000000000000000000000000000000000000000000000000000000000000000000000000000000000000000000000000000000000000000000000000000000000000000000000000000000000000000000000000000000000000000000000000000080000000000002000000000000000000000000000000000000000000000000000000000000000000000000000000002000000000000000000000000000000000000000000000000000000000000000000000000000000000000000000000000000000",
      "type": "0x0",
      "transactionHash": "0x5eb55537dd20c446ef1c52d7687c685400d5cfd3e99821c5d302ff5cc6bfe83f",
      "transactionIndex": "0x0",
      "blockHash": "0x5adbdd1a1ddd3b589c5e3fcd9f5658c5cf83bb474488e8d455dd151328367dca",
      "blockNumber": "0x20453fe",
      "gasUsed": "0x78115",
      "effectiveGasPrice": "0x5f5e101",
      "from": "0x45dce8e4f2dc005a5f28206a46cb034697eeda8e",
      "to": "0x57558cb8d6005de0bae8a2789d5efaae52dba5a8",
      "contractAddress": null
    },
    {
      "status": "0x1",
      "cumulativeGasUsed": "0x857f8",
      "logs": [
        {
          "address": "0x57558cb8d6005de0bae8a2789d5efaae52dba5a8",
          "topics": [
            "0x238399d427b947898edb290f5ff0f9109849b1c3ba196a42e35f00c50a54b98b"
          ],
          "data": "0x0000000000000000000000000000000000000000000000000000000000007603000000000000000000000000a057d8d4fc86a62801ce363c169b0a8d192f6cee",
          "blockHash": "0x5adbdd1a1ddd3b589c5e3fcd9f5658c5cf83bb474488e8d455dd151328367dca",
          "blockNumber": "0x20453fe",
          "transactionHash": "0xe1849ddf20592fc155561f84a4f686027664c5897dc90e62dbc7ebd122bf8d0a",
          "transactionIndex": "0x1",
          "logIndex": "0x1",
          "removed": false
        }
      ],
      "logsBloom": "0x00000000000000000000000000040000000000000000000000000000000000000000000000000000000000000000000400000000000000000800000000000000000000000000000000000000000000000000000000000000000000000000000000000000000000000000000000000000000000000000000000000000000000000000000000000000000000000000000000000000000000000000000000000000000000002000000000000000000000000000000000000000000002000000000000000000000000000000000000000000000000000000000000040000000000000000000000000000000000000000000000000000000000000000000000000000",
      "type": "0x0",
      "transactionHash": "0xe1849ddf20592fc155561f84a4f686027664c5897dc90e62dbc7ebd122bf8d0a",
      "transactionIndex": "0x1",
      "blockHash": "0x5adbdd1a1ddd3b589c5e3fcd9f5658c5cf83bb474488e8d455dd151328367dca",
      "blockNumber": "0x20453fe",
      "gasUsed": "0xd6e3",
      "effectiveGasPrice": "0x5f5e101",
      "from": "0x45dce8e4f2dc005a5f28206a46cb034697eeda8e",
      "to": "0x57558cb8d6005de0bae8a2789d5efaae52dba5a8",
      "contractAddress": null
    },
    {
      "status": "0x1",
      "cumulativeGasUsed": "0x92ecf",
      "logs": [
        {
          "address": "0x57558cb8d6005de0bae8a2789d5efaae52dba5a8",
          "topics": [
            "0x238399d427b947898edb290f5ff0f9109849b1c3ba196a42e35f00c50a54b98b"
          ],
          "data": "0x000000000000000000000000000000000000000000000000000000000000760600000000000000000000000057558cb8d6005de0bae8a2789d5efaae52dba5a8",
          "blockHash": "0x5adbdd1a1ddd3b589c5e3fcd9f5658c5cf83bb474488e8d455dd151328367dca",
          "blockNumber": "0x20453fe",
          "transactionHash": "0x6ee234c80d42b904db2127d8fe5f3cfd97bc500a08841b32049b0027d750814f",
          "transactionIndex": "0x2",
          "logIndex": "0x2",
          "removed": false
        }
      ],
      "logsBloom": "0x00000000000000000000000000040000000000000000000000000000000000000000000000000000000000000000000400000000000000000800000000000000000000000000000000000000000000000000000000000000000000000000000000000000000000000000000000000000000000000000000000000000000000000000000000000000000000000000000000000000000000000000000000000000000000002000000000000000000000000000000000000000000002000000000000000000000000000000000000000000000000000000000000040000000000000000000000000000000000000000000000000000000000000000000000000000",
      "type": "0x0",
      "transactionHash": "0x6ee234c80d42b904db2127d8fe5f3cfd97bc500a08841b32049b0027d750814f",
      "transactionIndex": "0x2",
      "blockHash": "0x5adbdd1a1ddd3b589c5e3fcd9f5658c5cf83bb474488e8d455dd151328367dca",
      "blockNumber": "0x20453fe",
      "gasUsed": "0xd6d7",
      "effectiveGasPrice": "0x5f5e101",
      "from": "0x45dce8e4f2dc005a5f28206a46cb034697eeda8e",
      "to": "0x57558cb8d6005de0bae8a2789d5efaae52dba5a8",
      "contractAddress": null
    },
    {
      "status": "0x1",
      "cumulativeGasUsed": "0xba9cc",
      "logs": [
        {
          "address": "0xe1844c5d63a9543023008d332bd3d2e6f1fe1043",
          "topics": [
            "0x82118522aa536ac0e96cc5c689407ae42b89d592aa133890a01f1509842f5081"
          ],
          "data": "0x00000000000000000000000057558cb8d6005de0bae8a2789d5efaae52dba5a800000000000000000000000000000000000000000000000000000000000076030000000000000000000000000000000000000000000000000000000000000060000000000000000000000000000000000000000000000000000000000000000000000000000000000000000000000000000000000000000000000000000000030000000000000000000000000000000000000000000000000000000000000000000000000000000000000000000000000000000000000000000000000000000000000000000000000000000000000000000000000000000000000000000000c0000000000000000000000000000000000000000000000000000000000000014000000000000000000000000000000000000000000000000000000000000000030000000000000000000000002ae36a544b904f2f2960f6fd1a6084b4b11ba3340000000000000000000000009c061c9a4782294eef65ef28cb88233a987f4bdd000000000000000000000000dd7b5e1db4aafd5c8ec3b764efb8ed265aa5445b0000000000000000000000000000000000000000000000000000000000000000",
          "blockHash": "0x5adbdd1a1ddd3b589c5e3fcd9f5658c5cf83bb474488e8d455dd151328367dca",
          "blockNumber": "0x20453fe",
          "transactionHash": "0x494e0be0b5bf14f3667bf3536b04f5ca3336c0af582a2c634769f9cd64e25091",
          "transactionIndex": "0x3",
          "logIndex": "0x3",
          "removed": false
        }
      ],
      "logsBloom": "0x00000000000000000000000000000000020000000000000000000000000000000000000000000000000000000000000000000000000000000000000000000000000000000000000000000000000000000000000000000000002000000000000000000000000000000000000000000000000000000000000000000000000000000000000000000000000000000000000000000000000000000000000000000000000000000000000000000002000000000000000000000000000000000000000000000000000000000000000000000000000000008000000000000000000000000000000000000002000000000000000000000000000000000000000000000010",
      "type": "0x0",
      "transactionHash": "0x494e0be0b5bf14f3667bf3536b04f5ca3336c0af582a2c634769f9cd64e25091",
      "transactionIndex": "0x3",
      "blockHash": "0x5adbdd1a1ddd3b589c5e3fcd9f5658c5cf83bb474488e8d455dd151328367dca",
      "blockNumber": "0x20453fe",
      "gasUsed": "0x27afd",
      "effectiveGasPrice": "0x5f5e101",
      "from": "0x45dce8e4f2dc005a5f28206a46cb034697eeda8e",
      "to": "0x1a44076050125825900e736c501f859c50fe728c",
      "contractAddress": null
    },
    {
      "status": "0x1",
      "cumulativeGasUsed": "0xe23df",
      "logs": [
        {
          "address": "0x2367325334447c5e1e0f1b3a6fb947b262f58312",
          "topics": [
            "0x82118522aa536ac0e96cc5c689407ae42b89d592aa133890a01f1509842f5081"
          ],
          "data": "0x00000000000000000000000057558cb8d6005de0bae8a2789d5efaae52dba5a800000000000000000000000000000000000000000000000000000000000076030000000000000000000000000000000000000000000000000000000000000060000000000000000000000000000000000000000000000000000000000000000000000000000000000000000000000000000000000000000000000000000000030000000000000000000000000000000000000000000000000000000000000000000000000000000000000000000000000000000000000000000000000000000000000000000000000000000000000000000000000000000000000000000000c0000000000000000000000000000000000000000000000000000000000000014000000000000000000000000000000000000000000000000000000000000000030000000000000000000000002ae36a544b904f2f2960f6fd1a6084b4b11ba3340000000000000000000000009c061c9a4782294eef65ef28cb88233a987f4bdd000000000000000000000000dd7b5e1db4aafd5c8ec3b764efb8ed265aa5445b0000000000000000000000000000000000000000000000000000000000000000",
          "blockHash": "0x5adbdd1a1ddd3b589c5e3fcd9f5658c5cf83bb474488e8d455dd151328367dca",
          "blockNumber": "0x20453fe",
          "transactionHash": "0xb41b8a5453befab8c5f19d8fb1ea43a5a6be0459ecc870a01d0cc58027517bc5",
          "transactionIndex": "0x4",
          "logIndex": "0x4",
          "removed": false
        }
      ],
      "logsBloom": "0x00000000000000000000000000000000000000000000000000000000000000000000000000000000000000000000000000000000000000000000000000000000000000000000000000000000000000000000000000000000002000000000000000000000000000000000000000000000000000000000000000010000000000000000000000000000000000000000000000000000200000000000000000000000000000000000000000000002000000000000000000000000000000000000000000000080000000000000000000000000000000000000000000000000000000000000000000000000000000000000000000000000000000000000000000000010",
      "type": "0x0",
      "transactionHash": "0xb41b8a5453befab8c5f19d8fb1ea43a5a6be0459ecc870a01d0cc58027517bc5",
      "transactionIndex": "0x4",
      "blockHash": "0x5adbdd1a1ddd3b589c5e3fcd9f5658c5cf83bb474488e8d455dd151328367dca",
      "blockNumber": "0x20453fe",
      "gasUsed": "0x27a13",
      "effectiveGasPrice": "0x5f5e101",
      "from": "0x45dce8e4f2dc005a5f28206a46cb034697eeda8e",
      "to": "0x1a44076050125825900e736c501f859c50fe728c",
      "contractAddress": null
    },
    {
      "status": "0x1",
      "cumulativeGasUsed": "0x109edc",
      "logs": [
        {
          "address": "0xe1844c5d63a9543023008d332bd3d2e6f1fe1043",
          "topics": [
            "0x82118522aa536ac0e96cc5c689407ae42b89d592aa133890a01f1509842f5081"
          ],
          "data": "0x00000000000000000000000057558cb8d6005de0bae8a2789d5efaae52dba5a800000000000000000000000000000000000000000000000000000000000076060000000000000000000000000000000000000000000000000000000000000060000000000000000000000000000000000000000000000000000000000000000000000000000000000000000000000000000000000000000000000000000000030000000000000000000000000000000000000000000000000000000000000000000000000000000000000000000000000000000000000000000000000000000000000000000000000000000000000000000000000000000000000000000000c0000000000000000000000000000000000000000000000000000000000000014000000000000000000000000000000000000000000000000000000000000000030000000000000000000000002ae36a544b904f2f2960f6fd1a6084b4b11ba3340000000000000000000000009c061c9a4782294eef65ef28cb88233a987f4bdd000000000000000000000000dd7b5e1db4aafd5c8ec3b764efb8ed265aa5445b0000000000000000000000000000000000000000000000000000000000000000",
          "blockHash": "0x5adbdd1a1ddd3b589c5e3fcd9f5658c5cf83bb474488e8d455dd151328367dca",
          "blockNumber": "0x20453fe",
          "transactionHash": "0x1bcf6bd99b93d313dd3d7f60821c5f7a85095ac96dc363e38d3dff9260f360b6",
          "transactionIndex": "0x5",
          "logIndex": "0x5",
          "removed": false
        }
      ],
      "logsBloom": "0x00000000000000000000000000000000020000000000000000000000000000000000000000000000000000000000000000000000000000000000000000000000000000000000000000000000000000000000000000000000002000000000000000000000000000000000000000000000000000000000000000000000000000000000000000000000000000000000000000000000000000000000000000000000000000000000000000000002000000000000000000000000000000000000000000000000000000000000000000000000000000008000000000000000000000000000000000000002000000000000000000000000000000000000000000000010",
      "type": "0x0",
      "transactionHash": "0x1bcf6bd99b93d313dd3d7f60821c5f7a85095ac96dc363e38d3dff9260f360b6",
      "transactionIndex": "0x5",
      "blockHash": "0x5adbdd1a1ddd3b589c5e3fcd9f5658c5cf83bb474488e8d455dd151328367dca",
      "blockNumber": "0x20453fe",
      "gasUsed": "0x27afd",
      "effectiveGasPrice": "0x5f5e101",
      "from": "0x45dce8e4f2dc005a5f28206a46cb034697eeda8e",
      "to": "0x1a44076050125825900e736c501f859c50fe728c",
      "contractAddress": null
    },
    {
      "status": "0x1",
      "cumulativeGasUsed": "0x1318ef",
      "logs": [
        {
          "address": "0x2367325334447c5e1e0f1b3a6fb947b262f58312",
          "topics": [
            "0x82118522aa536ac0e96cc5c689407ae42b89d592aa133890a01f1509842f5081"
          ],
          "data": "0x00000000000000000000000057558cb8d6005de0bae8a2789d5efaae52dba5a800000000000000000000000000000000000000000000000000000000000076060000000000000000000000000000000000000000000000000000000000000060000000000000000000000000000000000000000000000000000000000000000000000000000000000000000000000000000000000000000000000000000000030000000000000000000000000000000000000000000000000000000000000000000000000000000000000000000000000000000000000000000000000000000000000000000000000000000000000000000000000000000000000000000000c0000000000000000000000000000000000000000000000000000000000000014000000000000000000000000000000000000000000000000000000000000000030000000000000000000000002ae36a544b904f2f2960f6fd1a6084b4b11ba3340000000000000000000000009c061c9a4782294eef65ef28cb88233a987f4bdd000000000000000000000000dd7b5e1db4aafd5c8ec3b764efb8ed265aa5445b0000000000000000000000000000000000000000000000000000000000000000",
          "blockHash": "0x5adbdd1a1ddd3b589c5e3fcd9f5658c5cf83bb474488e8d455dd151328367dca",
          "blockNumber": "0x20453fe",
          "transactionHash": "0xd535a6ce25a787ec9c70e774763ff4421ad7ed0b02e82be4849de3c0d31ae57a",
          "transactionIndex": "0x6",
          "logIndex": "0x6",
          "removed": false
        }
      ],
      "logsBloom": "0x00000000000000000000000000000000000000000000000000000000000000000000000000000000000000000000000000000000000000000000000000000000000000000000000000000000000000000000000000000000002000000000000000000000000000000000000000000000000000000000000000010000000000000000000000000000000000000000000000000000200000000000000000000000000000000000000000000002000000000000000000000000000000000000000000000080000000000000000000000000000000000000000000000000000000000000000000000000000000000000000000000000000000000000000000000010",
      "type": "0x0",
      "transactionHash": "0xd535a6ce25a787ec9c70e774763ff4421ad7ed0b02e82be4849de3c0d31ae57a",
      "transactionIndex": "0x6",
      "blockHash": "0x5adbdd1a1ddd3b589c5e3fcd9f5658c5cf83bb474488e8d455dd151328367dca",
      "blockNumber": "0x20453fe",
      "gasUsed": "0x27a13",
      "effectiveGasPrice": "0x5f5e101",
      "from": "0x45dce8e4f2dc005a5f28206a46cb034697eeda8e",
      "to": "0x1a44076050125825900e736c501f859c50fe728c",
      "contractAddress": null
    },
    {
      "status": "0x1",
      "cumulativeGasUsed": "0x159ead",
      "logs": [
        {
          "address": "0x1a44076050125825900e736c501f859c50fe728c",
          "topics": [
            "0x4cff966ebee29a156dcb34cf72c1d06231fb1777f6bdf6e8089819232f002b1c"
          ],
          "data": "0x00000000000000000000000057558cb8d6005de0bae8a2789d5efaae52dba5a80000000000000000000000000000000000000000000000000000000000007603000000000000000000000000e1844c5d63a9543023008d332bd3d2e6f1fe1043",
          "blockHash": "0x5adbdd1a1ddd3b589c5e3fcd9f5658c5cf83bb474488e8d455dd151328367dca",
          "blockNumber": "0x20453fe",
          "transactionHash": "0xe501ea1bd072ee6876db8cddb1c75960081f92544f7a94654c4a3ec9611611e3",
          "transactionIndex": "0x8",
          "logIndex": "0x7",
          "removed": false
        }
      ],
      "logsBloom": "0x00000000000000000000000000000000000200000000000000000000001000000000000000000000000000000000000000000000000000000000000001000000000000000000000000000000000000000000000000000000000000000000000000000000000000000000000000000000000000000010000000000000000000000000000000000000000000000000000000000000000000000000000000000000000000000000000000000000000000000000000000000000000000000000000000000000000000000000000000000000000000000000000000000000000000000040000000000000000000000000000000000000010000000000000000000000",
      "type": "0x0",
      "transactionHash": "0xe501ea1bd072ee6876db8cddb1c75960081f92544f7a94654c4a3ec9611611e3",
      "transactionIndex": "0x8",
      "blockHash": "0x5adbdd1a1ddd3b589c5e3fcd9f5658c5cf83bb474488e8d455dd151328367dca",
      "blockNumber": "0x20453fe",
      "gasUsed": "0xe176",
      "effectiveGasPrice": "0x5f5e101",
      "from": "0x45dce8e4f2dc005a5f28206a46cb034697eeda8e",
      "to": "0x1a44076050125825900e736c501f859c50fe728c",
      "contractAddress": null
    },
    {
      "status": "0x1",
      "cumulativeGasUsed": "0x169a42",
      "logs": [
        {
          "address": "0x1a44076050125825900e736c501f859c50fe728c",
          "topics": [
            "0xcd6f92f5ac6185a5acfa02c92090746cec64d777269cbcd0ed031e396657a1c2"
          ],
          "data": "0x00000000000000000000000057558cb8d6005de0bae8a2789d5efaae52dba5a800000000000000000000000000000000000000000000000000000000000076030000000000000000000000002367325334447c5e1e0f1b3a6fb947b262f58312",
          "blockHash": "0x5adbdd1a1ddd3b589c5e3fcd9f5658c5cf83bb474488e8d455dd151328367dca",
          "blockNumber": "0x20453fe",
          "transactionHash": "0xd9ba1760fe9d5d01d2d23c4ab907b14ac4c5ec95c5d35385021e0e8bc949bbdd",
          "transactionIndex": "0x9",
          "logIndex": "0x8",
          "removed": false
        },
        {
          "address": "0x1a44076050125825900e736c501f859c50fe728c",
          "topics": [
            "0x4e0a5bbfa0c11a64effb1ada324b5437a17272e1aed9320398715ef71bb20928"
          ],
          "data": "0x00000000000000000000000057558cb8d6005de0bae8a2789d5efaae52dba5a8000000000000000000000000000000000000000000000000000000000000760300000000000000000000000000000000000000000000000000000000000000000000000000000000000000000000000000000000000000000000000000000000",
          "blockHash": "0x5adbdd1a1ddd3b589c5e3fcd9f5658c5cf83bb474488e8d455dd151328367dca",
          "blockNumber": "0x20453fe",
          "transactionHash": "0xd9ba1760fe9d5d01d2d23c4ab907b14ac4c5ec95c5d35385021e0e8bc949bbdd",
          "transactionIndex": "0x9",
          "logIndex": "0x9",
          "removed": false
        }
      ],
      "logsBloom": "0x00000000000000000000020800000000000000000000000000000000001000020400000000000000000000000000000000000000000000000000000000000000000000000000000000000000000000000000000000800000000000000000000000000000000000000000000000000000000000000010000000000000000000100000000000000000000000000000000000000000000000000000000000000000000000000000000000000000000000000000000000000000000000000000000000000000000000000000000000000000000000000000000000000000000000000000000000000000000000000000000000000000010000000000000000000000",
      "type": "0x0",
      "transactionHash": "0xd9ba1760fe9d5d01d2d23c4ab907b14ac4c5ec95c5d35385021e0e8bc949bbdd",
      "transactionIndex": "0x9",
      "blockHash": "0x5adbdd1a1ddd3b589c5e3fcd9f5658c5cf83bb474488e8d455dd151328367dca",
      "blockNumber": "0x20453fe",
      "gasUsed": "0xfb95",
      "effectiveGasPrice": "0x5f5e101",
      "from": "0x45dce8e4f2dc005a5f28206a46cb034697eeda8e",
      "to": "0x1a44076050125825900e736c501f859c50fe728c",
      "contractAddress": null
    },
    {
      "status": "0x1",
      "cumulativeGasUsed": "0x177bb8",
      "logs": [
        {
          "address": "0x1a44076050125825900e736c501f859c50fe728c",
          "topics": [
            "0x4cff966ebee29a156dcb34cf72c1d06231fb1777f6bdf6e8089819232f002b1c"
          ],
          "data": "0x00000000000000000000000057558cb8d6005de0bae8a2789d5efaae52dba5a80000000000000000000000000000000000000000000000000000000000007606000000000000000000000000e1844c5d63a9543023008d332bd3d2e6f1fe1043",
          "blockHash": "0x5adbdd1a1ddd3b589c5e3fcd9f5658c5cf83bb474488e8d455dd151328367dca",
          "blockNumber": "0x20453fe",
          "transactionHash": "0xb0cbabf92f3df729ee7610c57ea27cfe2ff053ed17f985a78c25db78c5b96b1c",
          "transactionIndex": "0xa",
          "logIndex": "0xa",
          "removed": false
        }
      ],
      "logsBloom": "0x00000000000000000000000000000000000200000000000000000000001000000000000000000000000000000000000000000000000000000000000001000000000000000000000000000000000000000000000000000000000000000000000000000000000000000000000000000000000000000010000000000000000000000000000000000000000000000000000000000000000000000000000000000000000000000000000000000000000000000000000000000000000000000000000000000000000000000000000000000000000000000000000000000000000000000040000000000000000000000000000000000000010000000000000000000000",
      "type": "0x0",
      "transactionHash": "0xb0cbabf92f3df729ee7610c57ea27cfe2ff053ed17f985a78c25db78c5b96b1c",
      "transactionIndex": "0xa",
      "blockHash": "0x5adbdd1a1ddd3b589c5e3fcd9f5658c5cf83bb474488e8d455dd151328367dca",
      "blockNumber": "0x20453fe",
      "gasUsed": "0xe176",
      "effectiveGasPrice": "0x5f5e101",
      "from": "0x45dce8e4f2dc005a5f28206a46cb034697eeda8e",
      "to": "0x1a44076050125825900e736c501f859c50fe728c",
      "contractAddress": null
    },
    {
      "status": "0x1",
      "cumulativeGasUsed": "0x18774d",
      "logs": [
        {
          "address": "0x1a44076050125825900e736c501f859c50fe728c",
          "topics": [
            "0xcd6f92f5ac6185a5acfa02c92090746cec64d777269cbcd0ed031e396657a1c2"
          ],
          "data": "0x00000000000000000000000057558cb8d6005de0bae8a2789d5efaae52dba5a800000000000000000000000000000000000000000000000000000000000076060000000000000000000000002367325334447c5e1e0f1b3a6fb947b262f58312",
          "blockHash": "0x5adbdd1a1ddd3b589c5e3fcd9f5658c5cf83bb474488e8d455dd151328367dca",
          "blockNumber": "0x20453fe",
          "transactionHash": "0x7d2caa0b928f1fa6a4f16017db83f4a65e0c3418a3f9fbd6ebe0a8528ec7f3b7",
          "transactionIndex": "0xb",
          "logIndex": "0xb",
          "removed": false
        },
        {
          "address": "0x1a44076050125825900e736c501f859c50fe728c",
          "topics": [
            "0x4e0a5bbfa0c11a64effb1ada324b5437a17272e1aed9320398715ef71bb20928"
          ],
          "data": "0x00000000000000000000000057558cb8d6005de0bae8a2789d5efaae52dba5a8000000000000000000000000000000000000000000000000000000000000760600000000000000000000000000000000000000000000000000000000000000000000000000000000000000000000000000000000000000000000000000000000",
          "blockHash": "0x5adbdd1a1ddd3b589c5e3fcd9f5658c5cf83bb474488e8d455dd151328367dca",
          "blockNumber": "0x20453fe",
          "transactionHash": "0x7d2caa0b928f1fa6a4f16017db83f4a65e0c3418a3f9fbd6ebe0a8528ec7f3b7",
          "transactionIndex": "0xb",
          "logIndex": "0xc",
          "removed": false
        }
      ],
      "logsBloom": "0x00000000000000000000020800000000000000000000000000000000001000020400000000000000000000000000000000000000000000000000000000000000000000000000000000000000000000000000000000800000000000000000000000000000000000000000000000000000000000000010000000000000000000100000000000000000000000000000000000000000000000000000000000000000000000000000000000000000000000000000000000000000000000000000000000000000000000000000000000000000000000000000000000000000000000000000000000000000000000000000000000000000010000000000000000000000",
      "type": "0x0",
      "transactionHash": "0x7d2caa0b928f1fa6a4f16017db83f4a65e0c3418a3f9fbd6ebe0a8528ec7f3b7",
      "transactionIndex": "0xb",
      "blockHash": "0x5adbdd1a1ddd3b589c5e3fcd9f5658c5cf83bb474488e8d455dd151328367dca",
      "blockNumber": "0x20453fe",
      "gasUsed": "0xfb95",
      "effectiveGasPrice": "0x5f5e101",
      "from": "0x45dce8e4f2dc005a5f28206a46cb034697eeda8e",
      "to": "0x1a44076050125825900e736c501f859c50fe728c",
      "contractAddress": null
    }
  ],
  "libraries": [],
  "pending": [],
  "returns": {},
  "timestamp": 1756838421151,
  "chain": 196,
  "commit": "15622a9"
}