{
  "transactions": [
    {
      "hash": "0xb0979ca60ec85e5f7e5743e0bc2b76929f19ece12420fffb439418ccaa37e67e",
      "transactionType": "CALL",
      "contractName": null,
      "contractAddress": "0xd555d90a6b23b285575cd6192d972e35f70b5b89",
      "function": "batchBridgeWithEthFeeFromWallet((uint32,bytes32,uint256,uint256,bytes,bytes,bytes)[],address[],address[])",
      "arguments": [
        "[(30320, 0x000000000000000000000000741f0d8bde14140f62107fc60a0ee122b37d4630, 5000000000000000000, 0, 0x, 0x, 0x)]",
        "[0x6185334f1542a9966CbaD694577fFbede3DD1f1F]",
        "[0xD555D90A6b23B285575cd6192D972e35F70b5B89]"
      ],
      "transaction": {
        "from": "0x45dce8e4f2dc005a5f28206a46cb034697eeda8e",
        "to": "0xd555d90a6b23b285575cd6192d972e35f70b5b89",
        "gas": "0x8c459",
        "value": "0x80fb7de6185",
        "input": "0xb70d4241000000000000000000000000000000000000000000000000000000000000006000000000000000000000000000000000000000000000000000000000000001e00000000000000000000000000000000000000000000000000000000000000220000000000000000000000000000000000000000000000000000000000000000100000000000000000000000000000000000000000000000000000000000000200000000000000000000000000000000000000000000000000000000000007670000000000000000000000000741f0d8bde14140f62107fc60a0ee122b37d46300000000000000000000000000000000000000000000000004563918244f40000000000000000000000000000000000000000000000000000000000000000000000000000000000000000000000000000000000000000000000000000000000e00000000000000000000000000000000000000000000000000000000000000100000000000000000000000000000000000000000000000000000000000000012000000000000000000000000000000000000000000000000000000000000000000000000000000000000000000000000000000000000000000000000000000000000000000000000000000000000000000000000000000000000000000000000000000000000000000000000000000000000000000000000000000000000000010000000000000000000000006185334f1542a9966cbad694577ffbede3dd1f1f0000000000000000000000000000000000000000000000000000000000000001000000000000000000000000d555d90a6b23b285575cd6192d972e35f70b5b89",
        "nonce": "0x9d",
        "chainId": "0xe708"
      },
      "additionalContracts": [],
      "isFixedGasLimit": false
    }
  ],
  "receipts": [
    {
      "status": "0x1",
      "cumulativeGasUsed": "0x658df",
      "logs": [
        {
          "address": "0x6185334f1542a9966cbad694577ffbede3dd1f1f",
          "topics": [
            "0xddf252ad1be2c89b69c2b068fc378daa952ba7f163c4a11628f55a4df523b3ef",
            "0x000000000000000000000000d555d90a6b23b285575cd6192d972e35f70b5b89",
            "0x0000000000000000000000000000000000000000000000000000000000000000"
          ],
          "data": "0x0000000000000000000000000000000000000000000000004563918244f40000",
          "blockHash": "0x8478cb4e07af7e84898ca10584b7a779f7717c9e3a645f90c6a5ffb25d7b7d66",
          "blockNumber": "0x133bd53",
          "transactionHash": "0xb0979ca60ec85e5f7e5743e0bc2b76929f19ece12420fffb439418ccaa37e67e",
          "transactionIndex": "0x0",
          "logIndex": "0x0",
          "removed": false
        },
        {
          "address": "0x32042142dd551b4ebe17b6fed53131dd4b4eea06",
          "topics": [
            "0x61ed099e74a97a1d7f8bb0952a88ca8b7b8ebd00c126ea04671f92a81213318a"
          ],
          "data": "0x0000000000000000000000000408804c5dcd9796f22558464e6fe5bddf16a7c7000000000000000000000000000000000000000000000000000007b54cd277bd",
          "blockHash": "0x8478cb4e07af7e84898ca10584b7a779f7717c9e3a645f90c6a5ffb25d7b7d66",
          "blockNumber": "0x133bd53",
          "transactionHash": "0xb0979ca60ec85e5f7e5743e0bc2b76929f19ece12420fffb439418ccaa37e67e",
          "transactionIndex": "0x0",
          "logIndex": "0x1",
          "removed": false
        },
        {
          "address": "0x32042142dd551b4ebe17b6fed53131dd4b4eea06",
          "topics": [
            "0x07ea52d82345d6e838192107d8fd7123d9c2ec8e916cd0aad13fd2b60db24644"
          ],
          "data": "0x000000000000000000000000000000000000000000000000000000000000006000000000000000000000000000000000000000000000000000000000000000e000000000000000000000000000000000000000000000000000000000000001000000000000000000000000000000000000000000000000000000000000000003000000000000000000000000129ee430cb2ff2708ccaddbdb408a88fe4ffd4800000000000000000000000007fe673201724925b5c477d4e1a4bd3e954688cf5000000000000000000000000f4064220871e3b94ca6ab3b0cee8e29178bf47de000000000000000000000000000000000000000000000000000000000000000000000000000000000000000000000000000000000000000000000000000000030000000000000000000000000000000000000000000000000000001db90f08dc0000000000000000000000000000000000000000000000000000001db90f08dc0000000000000000000000000000000000000000000000000000001ef8edd810",
          "blockHash": "0x8478cb4e07af7e84898ca10584b7a779f7717c9e3a645f90c6a5ffb25d7b7d66",
          "blockNumber": "0x133bd53",
          "transactionHash": "0xb0979ca60ec85e5f7e5743e0bc2b76929f19ece12420fffb439418ccaa37e67e",
          "transactionIndex": "0x0",
          "logIndex": "0x2",
          "removed": false
        },
        {
          "address": "0x1a44076050125825900e736c501f859c50fe728c",
          "topics": [
            "0x1ab700d4ced0c005b164c0f789fd09fcbb0156d4c2041b8a3bfbcd961cd1567f"
          ],
          "data": "0x0000000000000000000000000000000000000000000000000000000000000060000000000000000000000000000000000000000000000000000000000000012000000000000000000000000032042142dd551b4ebe17b6fed53131dd4b4eea060000000000000000000000000000000000000000000000000000000000000099010000000000000001000075e70000000000000000000000006185334f1542a9966cbad694577ffbede3dd1f1f0000767000000000000000000000000057558cb8d6005de0bae8a2789d5efaae52dba5a8c1fddffa9a932ccccec837ac78a835515730563051957b15b35c4073756e5052000000000000000000000000741f0d8bde14140f62107fc60a0ee122b37d463000000000004c4b4000000000000000000000000000000000000000000000000000000000000000000000000000001600030100110100000000000000000000000000030d4000000000000000000000",
          "blockHash": "0x8478cb4e07af7e84898ca10584b7a779f7717c9e3a645f90c6a5ffb25d7b7d66",
          "blockNumber": "0x133bd53",
          "transactionHash": "0xb0979ca60ec85e5f7e5743e0bc2b76929f19ece12420fffb439418ccaa37e67e",
          "transactionIndex": "0x0",
          "logIndex": "0x3",
          "removed": false
        },
        {
          "address": "0x6185334f1542a9966cbad694577ffbede3dd1f1f",
          "topics": [
            "0x85496b760a4b7f8d66384b9df21b381f5d1b1e79f229a47aaf4c232edc2fe59a",
            "0xc1fddffa9a932ccccec837ac78a835515730563051957b15b35c4073756e5052",
            "0x000000000000000000000000d555d90a6b23b285575cd6192d972e35f70b5b89"
          ],
          "data": "0x00000000000000000000000000000000000000000000000000000000000076700000000000000000000000000000000000000000000000004563918244f400000000000000000000000000000000000000000000000000004563918244f40000",
          "blockHash": "0x8478cb4e07af7e84898ca10584b7a779f7717c9e3a645f90c6a5ffb25d7b7d66",
          "blockNumber": "0x133bd53",
          "transactionHash": "0xb0979ca60ec85e5f7e5743e0bc2b76929f19ece12420fffb439418ccaa37e67e",
          "transactionIndex": "0x0",
          "logIndex": "0x4",
          "removed": false
        }
      ],
      "logsBloom": "0x00000000000000000000000000002000000000000000010000000000001000000000000000000000000000000000000000000000000000000000000000000000000002000000000000000208000000000020008000000000000000000000020000000000020000008000000000000800010000000010000000000010000000000000000000000800000000080000000000000000000000000000000000000000000000008002000000100008000000000000000000400000000640000000000000000002000000000000000080000000000000000000000000000000000020000000040000000000000000000000002000000000018010000000000000000000",
      "type": "0x2",
      "transactionHash": "0xb0979ca60ec85e5f7e5743e0bc2b76929f19ece12420fffb439418ccaa37e67e",
      "transactionIndex": "0x0",
      "blockHash": "0x8478cb4e07af7e84898ca10584b7a779f7717c9e3a645f90c6a5ffb25d7b7d66",
      "blockNumber": "0x133bd53",
      "gasUsed": "0x658df",
      "effectiveGasPrice": "0x5560338",
      "from": "0x45dce8e4f2dc005a5f28206a46cb034697eeda8e",
      "to": "0xd555d90a6b23b285575cd6192d972e35f70b5b89",
      "contractAddress": null
    }
  ],
  "libraries": [],
  "pending": [],
  "returns": {},
  "timestamp": 1750390317,
  "chain": 59144,
  "commit": "2171fc2"
}