{
  "transactions": [
    {
      "hash": "0xd3b145251d01b9ccded4838d9e14157522e83156574198489aa27d879c8207c5",
      "transactionType": "CALL",
      "contractName": null,
      "contractAddress": "0xd555d90a6b23b285575cd6192d972e35f70b5b89",
      "function": "batchBridgeWithEthFeeFromWallet((uint32,bytes32,uint256,uint256,bytes,bytes,bytes)[],address[],address[])",
      "arguments": [
        "[(30383, 0x000000000000000000000000741f0d8bde14140f62107fc60a0ee122b37d4630, 500000000000000000, 0, 0x, 0x, 0x)]",
        "[0x6185334f1542a9966CbaD694577fFbede3DD1f1F]",
        "[0xD555D90A6b23B285575cd6192D972e35F70b5B89]"
      ],
      "transaction": {
        "from": "0x45dce8e4f2dc005a5f28206a46cb034697eeda8e",
        "to": "0xd555d90a6b23b285575cd6192d972e35f70b5b89",
        "gas": "0x8c459",
        "value": "0x14b28402c571",
        "input": "0xb70d4241000000000000000000000000000000000000000000000000000000000000006000000000000000000000000000000000000000000000000000000000000001e000000000000000000000000000000000000000000000000000000000000002200000000000000000000000000000000000000000000000000000000000000001000000000000000000000000000000000000000000000000000000000000002000000000000000000000000000000000000000000000000000000000000076af000000000000000000000000741f0d8bde14140f62107fc60a0ee122b37d463000000000000000000000000000000000000000000000000006f05b59d3b20000000000000000000000000000000000000000000000000000000000000000000000000000000000000000000000000000000000000000000000000000000000e00000000000000000000000000000000000000000000000000000000000000100000000000000000000000000000000000000000000000000000000000000012000000000000000000000000000000000000000000000000000000000000000000000000000000000000000000000000000000000000000000000000000000000000000000000000000000000000000000000000000000000000000000000000000000000000000000000000000000000000000000000000000000000000000010000000000000000000000006185334f1542a9966cbad694577ffbede3dd1f1f0000000000000000000000000000000000000000000000000000000000000001000000000000000000000000d555d90a6b23b285575cd6192d972e35f70b5b89",
        "nonce": "0xe1",
        "chainId": "0xe708"
      },
      "additionalContracts": [],
      "isFixedGasLimit": false
    }
  ],
  "receipts": [
    {
      "status": "0x1",
      "cumulativeGasUsed": "0x74796",
      "logs": [
        {
          "address": "0x6185334f1542a9966cbad694577ffbede3dd1f1f",
          "topics": [
            "0xddf252ad1be2c89b69c2b068fc378daa952ba7f163c4a11628f55a4df523b3ef",
            "0x000000000000000000000000d555d90a6b23b285575cd6192d972e35f70b5b89",
            "0x0000000000000000000000000000000000000000000000000000000000000000"
          ],
          "data": "0x00000000000000000000000000000000000000000000000006f05b59d3b20000",
          "blockHash": "0x640e2ef384d5c657769835e0f9e7eb05a663820e250bbeee170a765e2d6de56f",
          "blockNumber": "0x17113e3",
          "transactionHash": "0xd3b145251d01b9ccded4838d9e14157522e83156574198489aa27d879c8207c5",
          "transactionIndex": "0x1",
          "logIndex": "0x1",
          "removed": false
        },
        {
          "address": "0x32042142dd551b4ebe17b6fed53131dd4b4eea06",
          "topics": [
            "0x61ed099e74a97a1d7f8bb0952a88ca8b7b8ebd00c126ea04671f92a81213318a"
          ],
          "data": "0x0000000000000000000000000408804c5dcd9796f22558464e6fe5bddf16a7c7000000000000000000000000000000000000000000000000000014b283fa2dba",
          "blockHash": "0x640e2ef384d5c657769835e0f9e7eb05a663820e250bbeee170a765e2d6de56f",
          "blockNumber": "0x17113e3",
          "transactionHash": "0xd3b145251d01b9ccded4838d9e14157522e83156574198489aa27d879c8207c5",
          "transactionIndex": "0x1",
          "logIndex": "0x2",
          "removed": false
        },
        {
          "address": "0x32042142dd551b4ebe17b6fed53131dd4b4eea06",
          "topics": [
            "0x07ea52d82345d6e838192107d8fd7123d9c2ec8e916cd0aad13fd2b60db24644"
          ],
          "data": "0x000000000000000000000000000000000000000000000000000000000000006000000000000000000000000000000000000000000000000000000000000000e000000000000000000000000000000000000000000000000000000000000001000000000000000000000000000000000000000000000000000000000000000003000000000000000000000000129ee430cb2ff2708ccaddbdb408a88fe4ffd4800000000000000000000000007fe673201724925b5c477d4e1a4bd3e954688cf5000000000000000000000000f4064220871e3b94ca6ab3b0cee8e29178bf47de00000000000000000000000000000000000000000000000000000000000000000000000000000000000000000000000000000000000000000000000000000003000000000000000000000000000000000000000000000000000000000002d31b000000000000000000000000000000000000000000000000000000000002d31b000000000000000000000000000000000000000000000000000000000002f181",
          "blockHash": "0x640e2ef384d5c657769835e0f9e7eb05a663820e250bbeee170a765e2d6de56f",
          "blockNumber": "0x17113e3",
          "transactionHash": "0xd3b145251d01b9ccded4838d9e14157522e83156574198489aa27d879c8207c5",
          "transactionIndex": "0x1",
          "logIndex": "0x3",
          "removed": false
        },
        {
          "address": "0x1a44076050125825900e736c501f859c50fe728c",
          "topics": [
            "0x1ab700d4ced0c005b164c0f789fd09fcbb0156d4c2041b8a3bfbcd961cd1567f"
          ],
          "data": "0x0000000000000000000000000000000000000000000000000000000000000060000000000000000000000000000000000000000000000000000000000000012000000000000000000000000032042142dd551b4ebe17b6fed53131dd4b4eea060000000000000000000000000000000000000000000000000000000000000099010000000000000001000075e70000000000000000000000006185334f1542a9966cbad694577ffbede3dd1f1f000076af00000000000000000000000057558cb8d6005de0bae8a2789d5efaae52dba5a817d6de52dbf5d6fe383828e185e430d7fa37da7ec1e8669ee823c91f47c12155000000000000000000000000741f0d8bde14140f62107fc60a0ee122b37d4630000000000007a12000000000000000000000000000000000000000000000000000000000000000000000000000001600030100110100000000000000000000000000030d4000000000000000000000",
          "blockHash": "0x640e2ef384d5c657769835e0f9e7eb05a663820e250bbeee170a765e2d6de56f",
          "blockNumber": "0x17113e3",
          "transactionHash": "0xd3b145251d01b9ccded4838d9e14157522e83156574198489aa27d879c8207c5",
          "transactionIndex": "0x1",
          "logIndex": "0x4",
          "removed": false
        },
        {
          "address": "0x6185334f1542a9966cbad694577ffbede3dd1f1f",
          "topics": [
            "0x85496b760a4b7f8d66384b9df21b381f5d1b1e79f229a47aaf4c232edc2fe59a",
            "0x17d6de52dbf5d6fe383828e185e430d7fa37da7ec1e8669ee823c91f47c12155",
            "0x000000000000000000000000d555d90a6b23b285575cd6192d972e35f70b5b89"
          ],
          "data": "0x00000000000000000000000000000000000000000000000000000000000076af00000000000000000000000000000000000000000000000006f05b59d3b2000000000000000000000000000000000000000000000000000006f05b59d3b20000",
          "blockHash": "0x640e2ef384d5c657769835e0f9e7eb05a663820e250bbeee170a765e2d6de56f",
          "blockNumber": "0x17113e3",
          "transactionHash": "0xd3b145251d01b9ccded4838d9e14157522e83156574198489aa27d879c8207c5",
          "transactionIndex": "0x1",
          "logIndex": "0x5",
          "removed": false
        }
      ],
      "logsBloom": "0x00000000000000000000000000002000000000000000010000000000001000000000000000000000000000000000000000000000000000000000000000000000000002000000000000000008000000000020000000000000000000000000020000000000020000008000000000000800010000000010000000000010000000000000000000000800000000080000000000000000040000000000000000000000000000008000000000100008000000000000000000400000000640000000000000000002000000000000000080000000000000000000080000000000000020000000040000000000000000000000002020000000018010000000000000000000",
      "type": "0x2",
      "transactionHash": "0xd3b145251d01b9ccded4838d9e14157522e83156574198489aa27d879c8207c5",
      "transactionIndex": "0x1",
      "blockHash": "0x640e2ef384d5c657769835e0f9e7eb05a663820e250bbeee170a765e2d6de56f",
      "blockNumber": "0x17113e3",
      "gasUsed": "0x658df",
      "effectiveGasPrice": "0x3350f68",
      "from": "0x45dce8e4f2dc005a5f28206a46cb034697eeda8e",
      "to": "0xd555d90a6b23b285575cd6192d972e35f70b5b89",
      "contractAddress": null
    }
  ],
  "libraries": [],
  "pending": [],
  "returns": {},
  "timestamp": 1759694205695,
  "chain": 59144,
  "commit": "eed1662"
}