{
  "transactions": [
    {
      "hash": "0x4931758beeb0980d0425e132e77c0bff3d0d65a3774b110268ef8fa61d9d7d80",
      "transactionType": "CALL",
      "contractName": null,
      "contractAddress": "0xd555d90a6b23b285575cd6192d972e35f70b5b89",
      "function": "batchBridgeWithEthFeeFromWallet((uint32,bytes32,uint256,uint256,bytes,bytes,bytes)[],address[],address[])",
      "arguments": [
        "[(30370, 0x000000000000000000000000741f0d8bde14140f62107fc60a0ee122b37d4630, 1000000000000000000, 0, 0x, 0x, 0x)]",
        "[0x6185334f1542a9966CbaD694577fFbede3DD1f1F]",
        "[0xD555D90A6b23B285575cd6192D972e35F70b5B89]"
      ],
      "transaction": {
        "from": "0x45dce8e4f2dc005a5f28206a46cb034697eeda8e",
        "to": "0xd555d90a6b23b285575cd6192d972e35f70b5b89",
        "gas": "0x8c459",
        "value": "0x155a95d69bb3",
        "input": "0xb70d4241000000000000000000000000000000000000000000000000000000000000006000000000000000000000000000000000000000000000000000000000000001e000000000000000000000000000000000000000000000000000000000000002200000000000000000000000000000000000000000000000000000000000000001000000000000000000000000000000000000000000000000000000000000002000000000000000000000000000000000000000000000000000000000000076a2000000000000000000000000741f0d8bde14140f62107fc60a0ee122b37d46300000000000000000000000000000000000000000000000000de0b6b3a7640000000000000000000000000000000000000000000000000000000000000000000000000000000000000000000000000000000000000000000000000000000000e00000000000000000000000000000000000000000000000000000000000000100000000000000000000000000000000000000000000000000000000000000012000000000000000000000000000000000000000000000000000000000000000000000000000000000000000000000000000000000000000000000000000000000000000000000000000000000000000000000000000000000000000000000000000000000000000000000000000000000000000000000000000000000000000010000000000000000000000006185334f1542a9966cbad694577ffbede3dd1f1f0000000000000000000000000000000000000000000000000000000000000001000000000000000000000000d555d90a6b23b285575cd6192d972e35f70b5b89",
        "nonce": "0xc0",
        "chainId": "0xe708"
      },
      "additionalContracts": [],
      "isFixedGasLimit": false
    }
  ],
  "receipts": [
    {
      "status": "0x1",
      "cumulativeGasUsed": "0x658df",
      "logs": [
        {
          "address": "0x6185334f1542a9966cbad694577ffbede3dd1f1f",
          "topics": [
            "0xddf252ad1be2c89b69c2b068fc378daa952ba7f163c4a11628f55a4df523b3ef",
            "0x000000000000000000000000d555d90a6b23b285575cd6192d972e35f70b5b89",
            "0x0000000000000000000000000000000000000000000000000000000000000000"
          ],
          "data": "0x0000000000000000000000000000000000000000000000000de0b6b3a7640000",
          "blockHash": "0x7956cff43276c1449e0f8a5cc83d2db233132bdf704e0d1411acfcfd0794e35d",
          "blockNumber": "0x140a56b",
          "transactionHash": "0x4931758beeb0980d0425e132e77c0bff3d0d65a3774b110268ef8fa61d9d7d80",
          "transactionIndex": "0x0",
          "logIndex": "0x0",
          "removed": false
        },
        {
          "address": "0x32042142dd551b4ebe17b6fed53131dd4b4eea06",
          "topics": [
            "0x61ed099e74a97a1d7f8bb0952a88ca8b7b8ebd00c126ea04671f92a81213318a"
          ],
          "data": "0x0000000000000000000000000408804c5dcd9796f22558464e6fe5bddf16a7c700000000000000000000000000000000000000000000000000000ce1100d1fe4",
          "blockHash": "0x7956cff43276c1449e0f8a5cc83d2db233132bdf704e0d1411acfcfd0794e35d",
          "blockNumber": "0x140a56b",
          "transactionHash": "0x4931758beeb0980d0425e132e77c0bff3d0d65a3774b110268ef8fa61d9d7d80",
          "transactionIndex": "0x0",
          "logIndex": "0x1",
          "removed": false
        },
        {
          "address": "0x32042142dd551b4ebe17b6fed53131dd4b4eea06",
          "topics": [
            "0x07ea52d82345d6e838192107d8fd7123d9c2ec8e916cd0aad13fd2b60db24644"
          ],
          "data": "0x000000000000000000000000000000000000000000000000000000000000006000000000000000000000000000000000000000000000000000000000000000e000000000000000000000000000000000000000000000000000000000000001000000000000000000000000000000000000000000000000000000000000000003000000000000000000000000129ee430cb2ff2708ccaddbdb408a88fe4ffd4800000000000000000000000007fe673201724925b5c477d4e1a4bd3e954688cf5000000000000000000000000f4064220871e3b94ca6ab3b0cee8e29178bf47de00000000000000000000000000000000000000000000000000000000000000000000000000000000000000000000000000000000000000000000000000000003000000000000000000000000000000000000000000000000000002c92e3ce319000000000000000000000000000000000000000000000000000002c92e3ce319000000000000000000000000000000000000000000000000000002e7294fb59d",
          "blockHash": "0x7956cff43276c1449e0f8a5cc83d2db233132bdf704e0d1411acfcfd0794e35d",
          "blockNumber": "0x140a56b",
          "transactionHash": "0x4931758beeb0980d0425e132e77c0bff3d0d65a3774b110268ef8fa61d9d7d80",
          "transactionIndex": "0x0",
          "logIndex": "0x2",
          "removed": false
        },
        {
          "address": "0x1a44076050125825900e736c501f859c50fe728c",
          "topics": [
            "0x1ab700d4ced0c005b164c0f789fd09fcbb0156d4c2041b8a3bfbcd961cd1567f"
          ],
          "data": "0x0000000000000000000000000000000000000000000000000000000000000060000000000000000000000000000000000000000000000000000000000000012000000000000000000000000032042142dd551b4ebe17b6fed53131dd4b4eea060000000000000000000000000000000000000000000000000000000000000099010000000000000001000075e70000000000000000000000006185334f1542a9966cbad694577ffbede3dd1f1f000076a200000000000000000000000057558cb8d6005de0bae8a2789d5efaae52dba5a8d9a88f208d6a41b0ad71c67433849d77804aec92eeb8cce332752e3f370382bd000000000000000000000000741f0d8bde14140f62107fc60a0ee122b37d463000000000000f424000000000000000000000000000000000000000000000000000000000000000000000000000001600030100110100000000000000000000000000030d4000000000000000000000",
          "blockHash": "0x7956cff43276c1449e0f8a5cc83d2db233132bdf704e0d1411acfcfd0794e35d",
          "blockNumber": "0x140a56b",
          "transactionHash": "0x4931758beeb0980d0425e132e77c0bff3d0d65a3774b110268ef8fa61d9d7d80",
          "transactionIndex": "0x0",
          "logIndex": "0x3",
          "removed": false
        },
        {
          "address": "0x6185334f1542a9966cbad694577ffbede3dd1f1f",
          "topics": [
            "0x85496b760a4b7f8d66384b9df21b381f5d1b1e79f229a47aaf4c232edc2fe59a",
            "0xd9a88f208d6a41b0ad71c67433849d77804aec92eeb8cce332752e3f370382bd",
            "0x000000000000000000000000d555d90a6b23b285575cd6192d972e35f70b5b89"
          ],
          "data": "0x00000000000000000000000000000000000000000000000000000000000076a20000000000000000000000000000000000000000000000000de0b6b3a76400000000000000000000000000000000000000000000000000000de0b6b3a7640000",
          "blockHash": "0x7956cff43276c1449e0f8a5cc83d2db233132bdf704e0d1411acfcfd0794e35d",
          "blockNumber": "0x140a56b",
          "transactionHash": "0x4931758beeb0980d0425e132e77c0bff3d0d65a3774b110268ef8fa61d9d7d80",
          "transactionIndex": "0x0",
          "logIndex": "0x4",
          "removed": false
        }
      ],
      "logsBloom": "0x00008000000000000000000000002000000000000000010000000000001000000000000002000000010000000000000000000000000000000000000000000000000002000000000000000008000000000020000000000000000000000000020000000000020000008000000000000800010000000010000000000010000000000000000000000800000000080000000000000000000000000000000000000000000000008000000000100008000000000000000000400000000640000000000000000002000000000000000080000000000000000000000000000000000020000000040000000000000000000000002000000000018010000000000000000000",
      "type": "0x2",
      "transactionHash": "0x4931758beeb0980d0425e132e77c0bff3d0d65a3774b110268ef8fa61d9d7d80",
      "transactionIndex": "0x0",
      "blockHash": "0x7956cff43276c1449e0f8a5cc83d2db233132bdf704e0d1411acfcfd0794e35d",
      "blockNumber": "0x140a56b",
      "gasUsed": "0x658df",
      "effectiveGasPrice": "0x5560338",
      "from": "0x45dce8e4f2dc005a5f28206a46cb034697eeda8e",
      "to": "0xd555d90a6b23b285575cd6192d972e35f70b5b89",
      "contractAddress": null
    }
  ],
  "libraries": [],
  "pending": [],
  "returns": {},
  "timestamp": 1752875133,
  "chain": 59144,
  "commit": "c079579"
}