{
  "transactions": [
    {
      "hash": "0xb6f01473d2ae098763949d379c50f7c57f4e34d36309d555b314feead46ed6f0",
      "transactionType": "CALL",
      "contractName": null,
      "contractAddress": "0xd555d90a6b23b285575cd6192d972e35f70b5b89",
      "function": "batchBridgeWithEthFeeFromWallet((uint32,bytes32,uint256,uint256,bytes,bytes,bytes)[],address[],address[])",
      "arguments": [
        "[(30211, 0x0000000000000000000000004a767e2ef83577225522ef8ed71056c6e3acb216, 1000000000000000000, 0, 0x, 0x, 0x), (30214, 0x000000000000000000000000741f0d8bde14140f62107fc60a0ee122b37d4630, 1000000000000000000, 0, 0x, 0x, 0x)]",
        "[0x6185334f1542a9966CbaD694577fFbede3DD1f1F, 0x6185334f1542a9966CbaD694577fFbede3DD1f1F]",
        "[0xD555D90A6b23B285575cd6192D972e35F70b5B89, 0xD555D90A6b23B285575cd6192D972e35F70b5B89]"
      ],
      "transaction": {
        "from": "0x45dce8e4f2dc005a5f28206a46cb034697eeda8e",
        "to": "0xd555d90a6b23b285575cd6192d972e35f70b5b89",
        "gas": "0xe09aa",
        "value": "0x8bf5cb73675b",
        "input": "0xb70d42410000000000000000000000000000000000000000000000000000000000000060000000000000000000000000000000000000000000000000000000000000034000000000000000000000000000000000000000000000000000000000000003a000000000000000000000000000000000000000000000000000000000000000020000000000000000000000000000000000000000000000000000000000000040000000000000000000000000000000000000000000000000000000000000018000000000000000000000000000000000000000000000000000000000000076030000000000000000000000004a767e2ef83577225522ef8ed71056c6e3acb2160000000000000000000000000000000000000000000000000de0b6b3a7640000000000000000000000000000000000000000000000000000000000000000000000000000000000000000000000000000000000000000000000000000000000e0000000000000000000000000000000000000000000000000000000000000010000000000000000000000000000000000000000000000000000000000000001200000000000000000000000000000000000000000000000000000000000000000000000000000000000000000000000000000000000000000000000000000000000000000000000000000000000000000000000000000000000000000000000000000000000000000000000000000000000000000000000000000000000007606000000000000000000000000741f0d8bde14140f62107fc60a0ee122b37d46300000000000000000000000000000000000000000000000000de0b6b3a7640000000000000000000000000000000000000000000000000000000000000000000000000000000000000000000000000000000000000000000000000000000000e00000000000000000000000000000000000000000000000000000000000000100000000000000000000000000000000000000000000000000000000000000012000000000000000000000000000000000000000000000000000000000000000000000000000000000000000000000000000000000000000000000000000000000000000000000000000000000000000000000000000000000000000000000000000000000000000000000000000000000000000000000000000000000000000020000000000000000000000006185334f1542a9966cbad694577ffbede3dd1f1f0000000000000000000000006185334f1542a9966cbad694577ffbede3dd1f1f0000000000000000000000000000000000000000000000000000000000000002000000000000000000000000d555d90a6b23b285575cd6192d972e35f70b5b89000000000000000000000000d555d90a6b23b285575cd6192d972e35f70b5b89",
        "nonce": "0xd3",
        "chainId": "0xe708"
      },
      "additionalContracts": [],
      "isFixedGasLimit": false
    }
  ],
  "receipts": [
    {
      "status": "0x1",
      "cumulativeGasUsed": "0xa29c0",
      "logs": [
        {
          "address": "0x6185334f1542a9966cbad694577ffbede3dd1f1f",
          "topics": [
            "0xddf252ad1be2c89b69c2b068fc378daa952ba7f163c4a11628f55a4df523b3ef",
            "0x000000000000000000000000d555d90a6b23b285575cd6192d972e35f70b5b89",
            "0x0000000000000000000000000000000000000000000000000000000000000000"
          ],
          "data": "0x0000000000000000000000000000000000000000000000000de0b6b3a7640000",
          "blockHash": "0xe6bd2fbd3f0798d167fc33b8968c16f7e6b0eabf8026b9533f1f0a05afde67da",
          "blockNumber": "0x15cc2d3",
          "transactionHash": "0xb6f01473d2ae098763949d379c50f7c57f4e34d36309d555b314feead46ed6f0",
          "transactionIndex": "0x0",
          "logIndex": "0x0",
          "removed": false
        },
        {
          "address": "0x32042142dd551b4ebe17b6fed53131dd4b4eea06",
          "topics": [
            "0x61ed099e74a97a1d7f8bb0952a88ca8b7b8ebd00c126ea04671f92a81213318a"
          ],
          "data": "0x0000000000000000000000000408804c5dcd9796f22558464e6fe5bddf16a7c7000000000000000000000000000000000000000000000000000027a30e382545",
          "blockHash": "0xe6bd2fbd3f0798d167fc33b8968c16f7e6b0eabf8026b9533f1f0a05afde67da",
          "blockNumber": "0x15cc2d3",
          "transactionHash": "0xb6f01473d2ae098763949d379c50f7c57f4e34d36309d555b314feead46ed6f0",
          "transactionIndex": "0x0",
          "logIndex": "0x1",
          "removed": false
        },
        {
          "address": "0x32042142dd551b4ebe17b6fed53131dd4b4eea06",
          "topics": [
            "0x07ea52d82345d6e838192107d8fd7123d9c2ec8e916cd0aad13fd2b60db24644"
          ],
          "data": "0x000000000000000000000000000000000000000000000000000000000000006000000000000000000000000000000000000000000000000000000000000000e000000000000000000000000000000000000000000000000000000000000001000000000000000000000000000000000000000000000000000000000000000003000000000000000000000000129ee430cb2ff2708ccaddbdb408a88fe4ffd4800000000000000000000000007fe673201724925b5c477d4e1a4bd3e954688cf5000000000000000000000000f4064220871e3b94ca6ab3b0cee8e29178bf47de00000000000000000000000000000000000000000000000000000000000000000000000000000000000000000000000000000000000000000000000000000003000000000000000000000000000000000000000000000000000006836ae6e800000000000000000000000000000000000000000000000000000006836ae6e800000000000000000000000000000000000000000000000000000006c9833ce800",
          "blockHash": "0xe6bd2fbd3f0798d167fc33b8968c16f7e6b0eabf8026b9533f1f0a05afde67da",
          "blockNumber": "0x15cc2d3",
          "transactionHash": "0xb6f01473d2ae098763949d379c50f7c57f4e34d36309d555b314feead46ed6f0",
          "transactionIndex": "0x0",
          "logIndex": "0x2",
          "removed": false
        },
        {
          "address": "0x1a44076050125825900e736c501f859c50fe728c",
          "topics": [
            "0x1ab700d4ced0c005b164c0f789fd09fcbb0156d4c2041b8a3bfbcd961cd1567f"
          ],
          "data": "0x0000000000000000000000000000000000000000000000000000000000000060000000000000000000000000000000000000000000000000000000000000012000000000000000000000000032042142dd551b4ebe17b6fed53131dd4b4eea060000000000000000000000000000000000000000000000000000000000000099010000000000000001000075e70000000000000000000000006185334f1542a9966cbad694577ffbede3dd1f1f00007603000000000000000000000000a057d8d4fc86a62801ce363c169b0a8d192f6cee02dd64dff7b184a3f74aa58e27b1572578cd78fc8b0ff6f4252e914ea4721d050000000000000000000000004a767e2ef83577225522ef8ed71056c6e3acb21600000000000f424000000000000000000000000000000000000000000000000000000000000000000000000000001600030100110100000000000000000000000000030d4000000000000000000000",
          "blockHash": "0xe6bd2fbd3f0798d167fc33b8968c16f7e6b0eabf8026b9533f1f0a05afde67da",
          "blockNumber": "0x15cc2d3",
          "transactionHash": "0xb6f01473d2ae098763949d379c50f7c57f4e34d36309d555b314feead46ed6f0",
          "transactionIndex": "0x0",
          "logIndex": "0x3",
          "removed": false
        },
        {
          "address": "0x6185334f1542a9966cbad694577ffbede3dd1f1f",
          "topics": [
            "0x85496b760a4b7f8d66384b9df21b381f5d1b1e79f229a47aaf4c232edc2fe59a",
            "0x02dd64dff7b184a3f74aa58e27b1572578cd78fc8b0ff6f4252e914ea4721d05",
            "0x000000000000000000000000d555d90a6b23b285575cd6192d972e35f70b5b89"
          ],
          "data": "0x00000000000000000000000000000000000000000000000000000000000076030000000000000000000000000000000000000000000000000de0b6b3a76400000000000000000000000000000000000000000000000000000de0b6b3a7640000",
          "blockHash": "0xe6bd2fbd3f0798d167fc33b8968c16f7e6b0eabf8026b9533f1f0a05afde67da",
          "blockNumber": "0x15cc2d3",
          "transactionHash": "0xb6f01473d2ae098763949d379c50f7c57f4e34d36309d555b314feead46ed6f0",
          "transactionIndex": "0x0",
          "logIndex": "0x4",
          "removed": false
        },
        {
          "address": "0x6185334f1542a9966cbad694577ffbede3dd1f1f",
          "topics": [
            "0xddf252ad1be2c89b69c2b068fc378daa952ba7f163c4a11628f55a4df523b3ef",
            "0x000000000000000000000000d555d90a6b23b285575cd6192d972e35f70b5b89",
            "0x0000000000000000000000000000000000000000000000000000000000000000"
          ],
          "data": "0x0000000000000000000000000000000000000000000000000de0b6b3a7640000",
          "blockHash": "0xe6bd2fbd3f0798d167fc33b8968c16f7e6b0eabf8026b9533f1f0a05afde67da",
          "blockNumber": "0x15cc2d3",
          "transactionHash": "0xb6f01473d2ae098763949d379c50f7c57f4e34d36309d555b314feead46ed6f0",
          "transactionIndex": "0x0",
          "logIndex": "0x5",
          "removed": false
        },
        {
          "address": "0x32042142dd551b4ebe17b6fed53131dd4b4eea06",
          "topics": [
            "0x61ed099e74a97a1d7f8bb0952a88ca8b7b8ebd00c126ea04671f92a81213318a"
          ],
          "data": "0x0000000000000000000000000408804c5dcd9796f22558464e6fe5bddf16a7c700000000000000000000000000000000000000000000000000005079b0266d24",
          "blockHash": "0xe6bd2fbd3f0798d167fc33b8968c16f7e6b0eabf8026b9533f1f0a05afde67da",
          "blockNumber": "0x15cc2d3",
          "transactionHash": "0xb6f01473d2ae098763949d379c50f7c57f4e34d36309d555b314feead46ed6f0",
          "transactionIndex": "0x0",
          "logIndex": "0x6",
          "removed": false
        },
        {
          "address": "0x32042142dd551b4ebe17b6fed53131dd4b4eea06",
          "topics": [
            "0x07ea52d82345d6e838192107d8fd7123d9c2ec8e916cd0aad13fd2b60db24644"
          ],
          "data": "0x000000000000000000000000000000000000000000000000000000000000006000000000000000000000000000000000000000000000000000000000000000e000000000000000000000000000000000000000000000000000000000000001000000000000000000000000000000000000000000000000000000000000000003000000000000000000000000129ee430cb2ff2708ccaddbdb408a88fe4ffd4800000000000000000000000007fe673201724925b5c477d4e1a4bd3e954688cf5000000000000000000000000f4064220871e3b94ca6ab3b0cee8e29178bf47de0000000000000000000000000000000000000000000000000000000000000000000000000000000000000000000000000000000000000000000000000000000300000000000000000000000000000000000000000000000000000002dc6aacd900000000000000000000000000000000000000000000000000000002dc6aacd900000000000000000000000000000000000000000000000000000002fb34c340",
          "blockHash": "0xe6bd2fbd3f0798d167fc33b8968c16f7e6b0eabf8026b9533f1f0a05afde67da",
          "blockNumber": "0x15cc2d3",
          "transactionHash": "0xb6f01473d2ae098763949d379c50f7c57f4e34d36309d555b314feead46ed6f0",
          "transactionIndex": "0x0",
          "logIndex": "0x7",
          "removed": false
        },
        {
          "address": "0x1a44076050125825900e736c501f859c50fe728c",
          "topics": [
            "0x1ab700d4ced0c005b164c0f789fd09fcbb0156d4c2041b8a3bfbcd961cd1567f"
          ],
          "data": "0x0000000000000000000000000000000000000000000000000000000000000060000000000000000000000000000000000000000000000000000000000000012000000000000000000000000032042142dd551b4ebe17b6fed53131dd4b4eea060000000000000000000000000000000000000000000000000000000000000099010000000000000001000075e70000000000000000000000006185334f1542a9966cbad694577ffbede3dd1f1f0000760600000000000000000000000057558cb8d6005de0bae8a2789d5efaae52dba5a820a56c71d55f27e8e9bd56818104e4323bdb59ff003f58ca5fb2f833aa051b1a000000000000000000000000741f0d8bde14140f62107fc60a0ee122b37d463000000000000f424000000000000000000000000000000000000000000000000000000000000000000000000000001600030100110100000000000000000000000000030d4000000000000000000000",
          "blockHash": "0xe6bd2fbd3f0798d167fc33b8968c16f7e6b0eabf8026b9533f1f0a05afde67da",
          "blockNumber": "0x15cc2d3",
          "transactionHash": "0xb6f01473d2ae098763949d379c50f7c57f4e34d36309d555b314feead46ed6f0",
          "transactionIndex": "0x0",
          "logIndex": "0x8",
          "removed": false
        },
        {
          "address": "0x6185334f1542a9966cbad694577ffbede3dd1f1f",
          "topics": [
            "0x85496b760a4b7f8d66384b9df21b381f5d1b1e79f229a47aaf4c232edc2fe59a",
            "0x20a56c71d55f27e8e9bd56818104e4323bdb59ff003f58ca5fb2f833aa051b1a",
            "0x000000000000000000000000d555d90a6b23b285575cd6192d972e35f70b5b89"
          ],
          "data": "0x00000000000000000000000000000000000000000000000000000000000076060000000000000000000000000000000000000000000000000de0b6b3a76400000000000000000000000000000000000000000000000000000de0b6b3a7640000",
          "blockHash": "0xe6bd2fbd3f0798d167fc33b8968c16f7e6b0eabf8026b9533f1f0a05afde67da",
          "blockNumber": "0x15cc2d3",
          "transactionHash": "0xb6f01473d2ae098763949d379c50f7c57f4e34d36309d555b314feead46ed6f0",
          "transactionIndex": "0x0",
          "logIndex": "0x9",
          "removed": false
        }
      ],
      "logsBloom": "0x00000000000000000000000000002000000000000000010000000000001000000000000000000000000000000000080000000000000000000000000000000000000002000000001000000008000000000020000000000000040000000000020000000000020000008000000000000800010000000010000000000010000000000000000000000800000100080000000000000000000000010000000000000000000000808000000000100008000000000000000000400000000640000000000000000002000000000000000080000000000000000000000000000000000020000000040000000000000000000000002000000000018010000000000000000000",
      "type": "0x2",
      "transactionHash": "0xb6f01473d2ae098763949d379c50f7c57f4e34d36309d555b314feead46ed6f0",
      "transactionIndex": "0x0",
      "blockHash": "0xe6bd2fbd3f0798d167fc33b8968c16f7e6b0eabf8026b9533f1f0a05afde67da",
      "blockNumber": "0x15cc2d3",
      "gasUsed": "0xa29c0",
      "effectiveGasPrice": "0x3350f68",
      "from": "0x45dce8e4f2dc005a5f28206a46cb034697eeda8e",
      "to": "0xd555d90a6b23b285575cd6192d972e35f70b5b89",
      "contractAddress": null
    }
  ],
  "libraries": [],
  "pending": [],
  "returns": {},
  "timestamp": 1756883611585,
  "chain": 59144,
  "commit": "487ed68"
}