{
  "transactions": [
    {
      "hash": "0xa02eb84015c609769ef38fdf9f014aacc057d4c3b32bf64895c3df22c563e688",
      "transactionType": "CALL",
      "contractName": null,
      "contractAddress": "0xfeec000000000000000000000000000000000000",
      "function": "setUserToken(address)",
      "arguments": [
        "0x20C0000000000000000000003554d28269E0f3c2"
      ],
      "transaction": {
        "from": "0x45dce8e4f2dc005a5f28206a46cb034697eeda8e",
        "to": "0xfeec000000000000000000000000000000000000",
        "gas": "0x6bb1",
        "value": "0x0",
        "input": "0xe789744400000000000000000000000020c0000000000000000000003554d28269e0f3c2",
        "nonce": "0xfa",
        "chainId": "0x1079",
        "feeToken": null,
        "calls": [],
        "keyType": null,
        "keyData": null
      },
      "additionalContracts": [],
      "isFixedGasLimit": false
    },
    {
      "hash": "0x9081c1b44e9a8cc81648e242ede9868eb3c19e083546642332804d0039c488bf",
      "transactionType": "CALL",
      "contractName": null,
      "contractAddress": "0x741f0d8bde14140f62107fc60a0ee122b37d4630",
      "function": "batchBridgeWithTIP20FeeFromWallet((uint32,bytes32,uint256,uint256,bytes,bytes,bytes)[],address[],address[])",
      "arguments": [
        "[(30255, 0x000000000000000000000000741f0d8bde14140f62107fc60a0ee122b37d4630, 100000000000000, 0, 0x, 0x, 0x), (30255, 0x000000000000000000000000741f0d8bde14140f62107fc60a0ee122b37d4630, 100000000000000, 0, 0x, 0x, 0x), (30255, 0x000000000000000000000000741f0d8bde14140f62107fc60a0ee122b37d4630, 100000000000000, 0, 0x, 0x, 0x), (30255, 0x000000000000000000000000741f0d8bde14140f62107fc60a0ee122b37d4630, 100, 0, 0x, 0x, 0x), (30255, 0x000000000000000000000000741f0d8bde14140f62107fc60a0ee122b37d4630, 100000000000000, 0, 0x, 0x, 0x), (30255, 0x000000000000000000000000741f0d8bde14140f62107fc60a0ee122b37d4630, 100000000000000, 0, 0x, 0x, 0x)]",
        "[0x00000000E9CE0f293D1Ce552768b187eBA8a56D4, 0x00000000fD8C4B8A413A06821456801295921a71, 0x00000000883279097A49dB1f2af954EAd0C77E3c, 0x00000000D61733e7A393A10A5B48c311AbE8f1E5, 0x000000008c3930dCA540bB9B3A5D0ee78FcA9A4c, 0x00000000bC4aEF4bA6363a437455Cb1af19e2aEb]",
        "[0x741F0d8Bde14140f62107FC60A0EE122B37D4630, 0x741F0d8Bde14140f62107FC60A0EE122B37D4630, 0x741F0d8Bde14140f62107FC60A0EE122B37D4630, 0x741F0d8Bde14140f62107FC60A0EE122B37D4630, 0x741F0d8Bde14140f62107FC60A0EE122B37D4630, 0x741F0d8Bde14140f62107FC60A0EE122B37D4630]"
      ],
      "transaction": {
        "from": "0x45dce8e4f2dc005a5f28206a46cb034697eeda8e",
        "to": "0x741f0d8bde14140f62107fc60a0ee122b37d4630",
        "gas": "0xa85e32",
        "value": "0x0",
        "input": "0xddfe224e000000000000000000000000000000000000000000000000000000000000006000000000000000000000000000000000000000000000000000000000000008c000000000000000000000000000000000000000000000000000000000000009a0000000000000000000000000000000000000000000000000000000000000000600000000000000000000000000000000000000000000000000000000000000c000000000000000000000000000000000000000000000000000000000000002000000000000000000000000000000000000000000000000000000000000000340000000000000000000000000000000000000000000000000000000000000048000000000000000000000000000000000000000000000000000000000000005c00000000000000000000000000000000000000000000000000000000000000700000000000000000000000000000000000000000000000000000000000000762f000000000000000000000000741f0d8bde14140f62107fc60a0ee122b37d463000000000000000000000000000000000000000000000000000005af3107a4000000000000000000000000000000000000000000000000000000000000000000000000000000000000000000000000000000000000000000000000000000000e000000000000000000000000000000000000000000000000000000000000001000000000000000000000000000000000000000000000000000000000000000120000000000000000000000000000000000000000000000000000000000000000000000000000000000000000000000000000000000000000000000000000000000000000000000000000000000000000000000000000000000000000000000000000000000000000000000000000000000000000000000000000000000000762f000000000000000000000000741f0d8bde14140f62107fc60a0ee122b37d463000000000000000000000000000000000000000000000000000005af3107a4000000000000000000000000000000000000000000000000000000000000000000000000000000000000000000000000000000000000000000000000000000000e000000000000000000000000000000000000000000000000000000000000001000000000000000000000000000000000000000000000000000000000000000120000000000000000000000000000000000000000000000000000000000000000000000000000000000000000000000000000000000000000000000000000000000000000000000000000000000000000000000000000000000000000000000000000000000000000000000000000000000000000000000000000000000000762f000000000000000000000000741f0d8bde14140f62107fc60a0ee122b37d463000000000000000000000000000000000000000000000000000005af3107a4000000000000000000000000000000000000000000000000000000000000000000000000000000000000000000000000000000000000000000000000000000000e000000000000000000000000000000000000000000000000000000000000001000000000000000000000000000000000000000000000000000000000000000120000000000000000000000000000000000000000000000000000000000000000000000000000000000000000000000000000000000000000000000000000000000000000000000000000000000000000000000000000000000000000000000000000000000000000000000000000000000000000000000000000000000000762f000000000000000000000000741f0d8bde14140f62107fc60a0ee122b37d46300000000000000000000000000000000000000000000000000000000000000064000000000000000000000000000000000000000000000000000000000000000000000000000000000000000000000000000000000000000000000000000000e000000000000000000000000000000000000000000000000000000000000001000000000000000000000000000000000000000000000000000000000000000120000000000000000000000000000000000000000000000000000000000000000000000000000000000000000000000000000000000000000000000000000000000000000000000000000000000000000000000000000000000000000000000000000000000000000000000000000000000000000000000000000000000000762f000000000000000000000000741f0d8bde14140f62107fc60a0ee122b37d463000000000000000000000000000000000000000000000000000005af3107a4000000000000000000000000000000000000000000000000000000000000000000000000000000000000000000000000000000000000000000000000000000000e000000000000000000000000000000000000000000000000000000000000001000000000000000000000000000000000000000000000000000000000000000120000000000000000000000000000000000000000000000000000000000000000000000000000000000000000000000000000000000000000000000000000000000000000000000000000000000000000000000000000000000000000000000000000000000000000000000000000000000000000000000000000000000000762f000000000000000000000000741f0d8bde14140f62107fc60a0ee122b37d463000000000000000000000000000000000000000000000000000005af3107a4000000000000000000000000000000000000000000000000000000000000000000000000000000000000000000000000000000000000000000000000000000000e000000000000000000000000000000000000000000000000000000000000001000000000000000000000000000000000000000000000000000000000000000120000000000000000000000000000000000000000000000000000000000000000000000000000000000000000000000000000000000000000000000000000000000000000000000000000000000000000000000000000000000000000000000000000000000000000000000000000000000000000000000000000000000000000600000000000000000000000000000000e9ce0f293d1ce552768b187eba8a56d400000000000000000000000000000000fd8c4b8a413a06821456801295921a7100000000000000000000000000000000883279097a49db1f2af954ead0c77e3c00000000000000000000000000000000d61733e7a393a10a5b48c311abe8f1e5000000000000000000000000000000008c3930dca540bb9b3a5d0ee78fca9a4c00000000000000000000000000000000bc4aef4ba6363a437455cb1af19e2aeb0000000000000000000000000000000000000000000000000000000000000006000000000000000000000000741f0d8bde14140f62107fc60a0ee122b37d4630000000000000000000000000741f0d8bde14140f62107fc60a0ee122b37d4630000000000000000000000000741f0d8bde14140f62107fc60a0ee122b37d4630000000000000000000000000741f0d8bde14140f62107fc60a0ee122b37d4630000000000000000000000000741f0d8bde14140f62107fc60a0ee122b37d4630000000000000000000000000741f0d8bde14140f62107fc60a0ee122b37d4630",
        "nonce": "0xfb",
        "chainId": "0x1079",
        "feeToken": null,
        "calls": [],
        "keyType": null,
        "keyData": null
      },
      "additionalContracts": [],
      "isFixedGasLimit": false
    }
  ],
  "receipts": [
    {
      "type": "0x2",
      "status": "0x1",
      "cumulativeGasUsed": "0x6288",
      "logs": [
        {
          "address": "0xfeec000000000000000000000000000000000000",
          "topics": [
            "0xabc7758d4ca817ce0d125eb731121a1304c36077b791253be835b95472368856",
            "0x00000000000000000000000045dce8e4f2dc005a5f28206a46cb034697eeda8e",
            "0x00000000000000000000000020c0000000000000000000003554d28269e0f3c2"
          ],
          "data": "0x",
          "blockHash": "0xd2c4668ad585c8758d85688caa908d95fca73e7d494ab4f33d2d7a26d89e2d8c",
          "blockNumber": "0x834050",
          "blockTimestamp": "0x69afcc99",
          "transactionHash": "0xa02eb84015c609769ef38fdf9f014aacc057d4c3b32bf64895c3df22c563e688",
          "transactionIndex": "0x0",
          "logIndex": "0x0",
          "removed": false
        },
        {
          "address": "0x20c0000000000000000000003554d28269e0f3c2",
          "topics": [
            "0xddf252ad1be2c89b69c2b068fc378daa952ba7f163c4a11628f55a4df523b3ef",
            "0x00000000000000000000000045dce8e4f2dc005a5f28206a46cb034697eeda8e",
            "0x000000000000000000000000feec000000000000000000000000000000000000"
          ],
          "data": "0x00000000000000000000000000000000000000000000000000000000000001f9",
          "blockHash": "0xd2c4668ad585c8758d85688caa908d95fca73e7d494ab4f33d2d7a26d89e2d8c",
          "blockNumber": "0x834050",
          "blockTimestamp": "0x69afcc99",
          "transactionHash": "0xa02eb84015c609769ef38fdf9f014aacc057d4c3b32bf64895c3df22c563e688",
          "transactionIndex": "0x0",
          "logIndex": "0x1",
          "removed": false
        }
      ],
      "logsBloom": "0x00000000000000000000000200000000000000000000000000000000000000000000000000000000000000000000020000000000000000000000000000000000000004000000000000000008000000001000000000000000000000000000000000000004000000000080000000000000000000000000000000000010000000000000000000000000000000000020000000000000000000000000000000000000000020000000000000000000000400000000000000000000000000000000000000000002000000040000000000000000001000002080000000000000000000000000000000000000000100000000800002000800000000000000000000200000",
      "transactionHash": "0xa02eb84015c609769ef38fdf9f014aacc057d4c3b32bf64895c3df22c563e688",
      "transactionIndex": "0x0",
      "blockHash": "0xd2c4668ad585c8758d85688caa908d95fca73e7d494ab4f33d2d7a26d89e2d8c",
      "blockNumber": "0x834050",
      "gasUsed": "0x6288",
      "effectiveGasPrice": "0x4a817c801",
      "from": "0x45dce8e4f2dc005a5f28206a46cb034697eeda8e",
      "to": "0xfeec000000000000000000000000000000000000",
      "contractAddress": null,
      "feeToken": "0x20c0000000000000000000003554d28269e0f3c2",
      "feePayer": "0x45dce8e4f2dc005a5f28206a46cb034697eeda8e"
    },
    {
      "type": "0x2",
      "status": "0x1",
      "cumulativeGasUsed": "0xa054ba",
      "logs": [
        {
          "address": "0xfeec000000000000000000000000000000000000",
          "topics": [
            "0xabc7758d4ca817ce0d125eb731121a1304c36077b791253be835b95472368856",
            "0x000000000000000000000000741f0d8bde14140f62107fc60a0ee122b37d4630",
            "0x00000000000000000000000020c0000000000000000000003554d28269e0f3c2"
          ],
          "data": "0x",
          "blockHash": "0xe6bc7d566081dde5c4a82415fe9b9226d709ec04b2fbff43e161612ccf7a8271",
          "blockNumber": "0x834054",
          "blockTimestamp": "0x69afcc9b",
          "transactionHash": "0x9081c1b44e9a8cc81648e242ede9868eb3c19e083546642332804d0039c488bf",
          "transactionIndex": "0x0",
          "logIndex": "0x0",
          "removed": false
        },
        {
          "address": "0x20c0000000000000000000003554d28269e0f3c2",
          "topics": [
            "0xddf252ad1be2c89b69c2b068fc378daa952ba7f163c4a11628f55a4df523b3ef",
            "0x00000000000000000000000045dce8e4f2dc005a5f28206a46cb034697eeda8e",
            "0x000000000000000000000000741f0d8bde14140f62107fc60a0ee122b37d4630"
          ],
          "data": "0x0000000000000000000000000000000000000000000000000000000000024d98",
          "blockHash": "0xe6bc7d566081dde5c4a82415fe9b9226d709ec04b2fbff43e161612ccf7a8271",
          "blockNumber": "0x834054",
          "blockTimestamp": "0x69afcc9b",
          "transactionHash": "0x9081c1b44e9a8cc81648e242ede9868eb3c19e083546642332804d0039c488bf",
          "transactionIndex": "0x0",
          "logIndex": "0x1",
          "removed": false
        },
        {
          "address": "0x00000000e9ce0f293d1ce552768b187eba8a56d4",
          "topics": [
            "0xddf252ad1be2c89b69c2b068fc378daa952ba7f163c4a11628f55a4df523b3ef",
            "0x000000000000000000000000741f0d8bde14140f62107fc60a0ee122b37d4630",
            "0x0000000000000000000000000000000000000000000000000000000000000000"
          ],
          "data": "0x00000000000000000000000000000000000000000000000000005af3107a4000",
          "blockHash": "0xe6bc7d566081dde5c4a82415fe9b9226d709ec04b2fbff43e161612ccf7a8271",
          "blockNumber": "0x834054",
          "blockTimestamp": "0x69afcc9b",
          "transactionHash": "0x9081c1b44e9a8cc81648e242ede9868eb3c19e083546642332804d0039c488bf",
          "transactionIndex": "0x0",
          "logIndex": "0x2",
          "removed": false
        },
        {
          "address": "0x20c0000000000000000000003554d28269e0f3c2",
          "topics": [
            "0xddf252ad1be2c89b69c2b068fc378daa952ba7f163c4a11628f55a4df523b3ef",
            "0x000000000000000000000000741f0d8bde14140f62107fc60a0ee122b37d4630",
            "0x00000000000000000000000000000000e9ce0f293d1ce552768b187eba8a56d4"
          ],
          "data": "0x0000000000000000000000000000000000000000000000000000000000006244",
          "blockHash": "0xe6bc7d566081dde5c4a82415fe9b9226d709ec04b2fbff43e161612ccf7a8271",
          "blockNumber": "0x834054",
          "blockTimestamp": "0x69afcc9b",
          "transactionHash": "0x9081c1b44e9a8cc81648e242ede9868eb3c19e083546642332804d0039c488bf",
          "transactionIndex": "0x0",
          "logIndex": "0x3",
          "removed": false
        },
        {
          "address": "0x20c0000000000000000000003554d28269e0f3c2",
          "topics": [
            "0x8c5be1e5ebec7d5bd14f71427d1e84f3dd0314c0f7b2291e5b200ac8c7c3b925",
            "0x00000000000000000000000000000000e9ce0f293d1ce552768b187eba8a56d4",
            "0x000000000000000000000000dec0000000000000000000000000000000000000"
          ],
          "data": "0x0000000000000000000000000000000000000000000000000000000000006244",
          "blockHash": "0xe6bc7d566081dde5c4a82415fe9b9226d709ec04b2fbff43e161612ccf7a8271",
          "blockNumber": "0x834054",
          "blockTimestamp": "0x69afcc9b",
          "transactionHash": "0x9081c1b44e9a8cc81648e242ede9868eb3c19e083546642332804d0039c488bf",
          "transactionIndex": "0x0",
          "logIndex": "0x4",
          "removed": false
        },
        {
          "address": "0xdec0000000000000000000000000000000000000",
          "topics": [
            "0x16c08f8f2c17b3c8879b3e3cf5efdbdcdfdbd0fcb3890f9d3086f470cd601ddd",
            "0x0000000000000000000000000000000000000000000000000000000000000005",
            "0x0000000000000000000000008d8290d49e88d16d81c6adf6c8774ed88762274a",
            "0x00000000000000000000000000000000e9ce0f293d1ce552768b187eba8a56d4"
          ],
          "data": "0x00000000000000000000000000000000000000000000000000000000000062440000000000000000000000000000000000000000000000000000000000000001",
          "blockHash": "0xe6bc7d566081dde5c4a82415fe9b9226d709ec04b2fbff43e161612ccf7a8271",
          "blockNumber": "0x834054",
          "blockTimestamp": "0x69afcc9b",
          "transactionHash": "0x9081c1b44e9a8cc81648e242ede9868eb3c19e083546642332804d0039c488bf",
          "transactionIndex": "0x0",
          "logIndex": "0x5",
          "removed": false
        },
        {
          "address": "0x20c0000000000000000000003554d28269e0f3c2",
          "topics": [
            "0xddf252ad1be2c89b69c2b068fc378daa952ba7f163c4a11628f55a4df523b3ef",
            "0x00000000000000000000000000000000e9ce0f293d1ce552768b187eba8a56d4",
            "0x000000000000000000000000dec0000000000000000000000000000000000000"
          ],
          "data": "0x0000000000000000000000000000000000000000000000000000000000006244",
          "blockHash": "0xe6bc7d566081dde5c4a82415fe9b9226d709ec04b2fbff43e161612ccf7a8271",
          "blockNumber": "0x834054",
          "blockTimestamp": "0x69afcc9b",
          "transactionHash": "0x9081c1b44e9a8cc81648e242ede9868eb3c19e083546642332804d0039c488bf",
          "transactionIndex": "0x0",
          "logIndex": "0x6",
          "removed": false
        },
        {
          "address": "0x20c0000000000000000000000000000000000000",
          "topics": [
            "0xddf252ad1be2c89b69c2b068fc378daa952ba7f163c4a11628f55a4df523b3ef",
            "0x000000000000000000000000dec0000000000000000000000000000000000000",
            "0x00000000000000000000000000000000e9ce0f293d1ce552768b187eba8a56d4"
          ],
          "data": "0x0000000000000000000000000000000000000000000000000000000000006244",
          "blockHash": "0xe6bc7d566081dde5c4a82415fe9b9226d709ec04b2fbff43e161612ccf7a8271",
          "blockNumber": "0x834054",
          "blockTimestamp": "0x69afcc9b",
          "transactionHash": "0x9081c1b44e9a8cc81648e242ede9868eb3c19e083546642332804d0039c488bf",
          "transactionIndex": "0x0",
          "logIndex": "0x7",
          "removed": false
        },
        {
          "address": "0x20c0000000000000000000000000000000000000",
          "topics": [
            "0x8c5be1e5ebec7d5bd14f71427d1e84f3dd0314c0f7b2291e5b200ac8c7c3b925",
            "0x00000000000000000000000000000000e9ce0f293d1ce552768b187eba8a56d4",
            "0x0000000000000000000000000ceb237e109ee22374a567c6b09f373c73fa4cbb"
          ],
          "data": "0x0000000000000000000000000000000000000000000000000000000000006244",
          "blockHash": "0xe6bc7d566081dde5c4a82415fe9b9226d709ec04b2fbff43e161612ccf7a8271",
          "blockNumber": "0x834054",
          "blockTimestamp": "0x69afcc9b",
          "transactionHash": "0x9081c1b44e9a8cc81648e242ede9868eb3c19e083546642332804d0039c488bf",
          "transactionIndex": "0x0",
          "logIndex": "0x8",
          "removed": false
        },
        {
          "address": "0x20c0000000000000000000000000000000000000",
          "topics": [
            "0xddf252ad1be2c89b69c2b068fc378daa952ba7f163c4a11628f55a4df523b3ef",
            "0x00000000000000000000000000000000e9ce0f293d1ce552768b187eba8a56d4",
            "0x0000000000000000000000000ceb237e109ee22374a567c6b09f373c73fa4cbb"
          ],
          "data": "0x0000000000000000000000000000000000000000000000000000000000006244",
          "blockHash": "0xe6bc7d566081dde5c4a82415fe9b9226d709ec04b2fbff43e161612ccf7a8271",
          "blockNumber": "0x834054",
          "blockTimestamp": "0x69afcc9b",
          "transactionHash": "0x9081c1b44e9a8cc81648e242ede9868eb3c19e083546642332804d0039c488bf",
          "transactionIndex": "0x0",
          "logIndex": "0x9",
          "removed": false
        },
        {
          "address": "0x0ceb237e109ee22374a567c6b09f373c73fa4cbb",
          "topics": [
            "0xddf252ad1be2c89b69c2b068fc378daa952ba7f163c4a11628f55a4df523b3ef",
            "0x0000000000000000000000000000000000000000000000000000000000000000",
            "0x00000000000000000000000020bb7c2e2f4e5ca2b4c57060d1ae2615245dcc9c"
          ],
          "data": "0x0000000000000000000000000000000000000000000000000000000000006244",
          "blockHash": "0xe6bc7d566081dde5c4a82415fe9b9226d709ec04b2fbff43e161612ccf7a8271",
          "blockNumber": "0x834054",
          "blockTimestamp": "0x69afcc9b",
          "transactionHash": "0x9081c1b44e9a8cc81648e242ede9868eb3c19e083546642332804d0039c488bf",
          "transactionIndex": "0x0",
          "logIndex": "0xa",
          "removed": false
        },
        {
          "address": "0x0ceb237e109ee22374a567c6b09f373c73fa4cbb",
          "topics": [
            "0x8ed59ebee7004468a5666f7566d43343b5917817e35765800064b665b66d070f",
            "0x00000000000000000000000020c0000000000000000000000000000000000000",
            "0x00000000000000000000000000000000e9ce0f293d1ce552768b187eba8a56d4",
            "0x00000000000000000000000020bb7c2e2f4e5ca2b4c57060d1ae2615245dcc9c"
          ],
          "data": "0x0000000000000000000000000000000000000000000000000000000000006244",
          "blockHash": "0xe6bc7d566081dde5c4a82415fe9b9226d709ec04b2fbff43e161612ccf7a8271",
          "blockNumber": "0x834054",
          "blockTimestamp": "0x69afcc9b",
          "transactionHash": "0x9081c1b44e9a8cc81648e242ede9868eb3c19e083546642332804d0039c488bf",
          "transactionIndex": "0x0",
          "logIndex": "0xb",
          "removed": false
        },
        {
          "address": "0x572863d9247e52026e0892d9cd2e519b41edb73c",
          "topics": [
            "0x61ed099e74a97a1d7f8bb0952a88ca8b7b8ebd00c126ea04671f92a81213318a"
          ],
          "data": "0x000000000000000000000000f851abca1d0fd1df8eaba6de466a102996b7d7b20000000000000000000000000000000000000000000000000000000000004fc0",
          "blockHash": "0xe6bc7d566081dde5c4a82415fe9b9226d709ec04b2fbff43e161612ccf7a8271",
          "blockNumber": "0x834054",
          "blockTimestamp": "0x69afcc9b",
          "transactionHash": "0x9081c1b44e9a8cc81648e242ede9868eb3c19e083546642332804d0039c488bf",
          "transactionIndex": "0x0",
          "logIndex": "0xc",
          "removed": false
        },
        {
          "address": "0x572863d9247e52026e0892d9cd2e519b41edb73c",
          "topics": [
            "0x07ea52d82345d6e838192107d8fd7123d9c2ec8e916cd0aad13fd2b60db24644"
          ],
          "data": "0x000000000000000000000000000000000000000000000000000000000000006000000000000000000000000000000000000000000000000000000000000000e00000000000000000000000000000000000000000000000000000000000000100000000000000000000000000000000000000000000000000000000000000000300000000000000000000000076faff60799021b301b45dc1bbede53f261f996100000000000000000000000097faa2a9c9bf8b4082b175a5b894ce6bac6697a8000000000000000000000000f5771acc42f3321d7193748fa0f656470bf737f200000000000000000000000000000000000000000000000000000000000000000000000000000000000000000000000000000000000000000000000000000003000000000000000000000000000000000000000000000000000000000000062c000000000000000000000000000000000000000000000000000000000000062c000000000000000000000000000000000000000000000000000000000000062c",
          "blockHash": "0xe6bc7d566081dde5c4a82415fe9b9226d709ec04b2fbff43e161612ccf7a8271",
          "blockNumber": "0x834054",
          "blockTimestamp": "0x69afcc9b",
          "transactionHash": "0x9081c1b44e9a8cc81648e242ede9868eb3c19e083546642332804d0039c488bf",
          "transactionIndex": "0x0",
          "logIndex": "0xd",
          "removed": false
        },
        {
          "address": "0x20bb7c2e2f4e5ca2b4c57060d1ae2615245dcc9c",
          "topics": [
            "0x1ab700d4ced0c005b164c0f789fd09fcbb0156d4c2041b8a3bfbcd961cd1567f"
          ],
          "data": "0x00000000000000000000000000000000000000000000000000000000000000600000000000000000000000000000000000000000000000000000000000000120000000000000000000000000572863d9247e52026e0892d9cd2e519b41edb73c0000000000000000000000000000000000000000000000000000000000000099010000000000000002000076ca00000000000000000000000000000000e9ce0f293d1ce552768b187eba8a56d40000762f000000000000000000000000d86fbbd0c8715d2c1f40e451e5c3514e65e7576a104d2e5e420a5fcefbc5bb759f1c65737f1fccbb46b2bb4c29beb4bb351a2da2000000000000000000000000741f0d8bde14140f62107fc60a0ee122b37d4630000000000000006400000000000000000000000000000000000000000000000000000000000000000000000000001600030100110100000000000000000000000000030d4000000000000000000000",
          "blockHash": "0xe6bc7d566081dde5c4a82415fe9b9226d709ec04b2fbff43e161612ccf7a8271",
          "blockNumber": "0x834054",
          "blockTimestamp": "0x69afcc9b",
          "transactionHash": "0x9081c1b44e9a8cc81648e242ede9868eb3c19e083546642332804d0039c488bf",
          "transactionIndex": "0x0",
          "logIndex": "0xe",
          "removed": false
        },
        {
          "address": "0x0ceb237e109ee22374a567c6b09f373c73fa4cbb",
          "topics": [
            "0xddf252ad1be2c89b69c2b068fc378daa952ba7f163c4a11628f55a4df523b3ef",
            "0x00000000000000000000000020bb7c2e2f4e5ca2b4c57060d1ae2615245dcc9c",
            "0x000000000000000000000000572863d9247e52026e0892d9cd2e519b41edb73c"
          ],
          "data": "0x0000000000000000000000000000000000000000000000000000000000006244",
          "blockHash": "0xe6bc7d566081dde5c4a82415fe9b9226d709ec04b2fbff43e161612ccf7a8271",
          "blockNumber": "0x834054",
          "blockTimestamp": "0x69afcc9b",
          "transactionHash": "0x9081c1b44e9a8cc81648e242ede9868eb3c19e083546642332804d0039c488bf",
          "transactionIndex": "0x0",
          "logIndex": "0xf",
          "removed": false
        },
        {
          "address": "0x00000000e9ce0f293d1ce552768b187eba8a56d4",
          "topics": [
            "0x85496b760a4b7f8d66384b9df21b381f5d1b1e79f229a47aaf4c232edc2fe59a",
            "0x104d2e5e420a5fcefbc5bb759f1c65737f1fccbb46b2bb4c29beb4bb351a2da2",
            "0x000000000000000000000000741f0d8bde14140f62107fc60a0ee122b37d4630"
          ],
          "data": "0x000000000000000000000000000000000000000000000000000000000000762f00000000000000000000000000000000000000000000000000005af3107a400000000000000000000000000000000000000000000000000000005af3107a4000",
          "blockHash": "0xe6bc7d566081dde5c4a82415fe9b9226d709ec04b2fbff43e161612ccf7a8271",
          "blockNumber": "0x834054",
          "blockTimestamp": "0x69afcc9b",
          "transactionHash": "0x9081c1b44e9a8cc81648e242ede9868eb3c19e083546642332804d0039c488bf",
          "transactionIndex": "0x0",
          "logIndex": "0x10",
          "removed": false
        },
        {
          "address": "0x00000000fd8c4b8a413a06821456801295921a71",
          "topics": [
            "0xddf252ad1be2c89b69c2b068fc378daa952ba7f163c4a11628f55a4df523b3ef",
            "0x000000000000000000000000741f0d8bde14140f62107fc60a0ee122b37d4630",
            "0x0000000000000000000000000000000000000000000000000000000000000000"
          ],
          "data": "0x00000000000000000000000000000000000000000000000000005af3107a4000",
          "blockHash": "0xe6bc7d566081dde5c4a82415fe9b9226d709ec04b2fbff43e161612ccf7a8271",
          "blockNumber": "0x834054",
          "blockTimestamp": "0x69afcc9b",
          "transactionHash": "0x9081c1b44e9a8cc81648e242ede9868eb3c19e083546642332804d0039c488bf",
          "transactionIndex": "0x0",
          "logIndex": "0x11",
          "removed": false
        },
        {
          "address": "0x20c0000000000000000000003554d28269e0f3c2",
          "topics": [
            "0xddf252ad1be2c89b69c2b068fc378daa952ba7f163c4a11628f55a4df523b3ef",
            "0x000000000000000000000000741f0d8bde14140f62107fc60a0ee122b37d4630",
            "0x00000000000000000000000000000000fd8c4b8a413a06821456801295921a71"
          ],
          "data": "0x0000000000000000000000000000000000000000000000000000000000006244",
          "blockHash": "0xe6bc7d566081dde5c4a82415fe9b9226d709ec04b2fbff43e161612ccf7a8271",
          "blockNumber": "0x834054",
          "blockTimestamp": "0x69afcc9b",
          "transactionHash": "0x9081c1b44e9a8cc81648e242ede9868eb3c19e083546642332804d0039c488bf",
          "transactionIndex": "0x0",
          "logIndex": "0x12",
          "removed": false
        },
        {
          "address": "0x20c0000000000000000000003554d28269e0f3c2",
          "topics": [
            "0x8c5be1e5ebec7d5bd14f71427d1e84f3dd0314c0f7b2291e5b200ac8c7c3b925",
            "0x00000000000000000000000000000000fd8c4b8a413a06821456801295921a71",
            "0x000000000000000000000000dec0000000000000000000000000000000000000"
          ],
          "data": "0x0000000000000000000000000000000000000000000000000000000000006244",
          "blockHash": "0xe6bc7d566081dde5c4a82415fe9b9226d709ec04b2fbff43e161612ccf7a8271",
          "blockNumber": "0x834054",
          "blockTimestamp": "0x69afcc9b",
          "transactionHash": "0x9081c1b44e9a8cc81648e242ede9868eb3c19e083546642332804d0039c488bf",
          "transactionIndex": "0x0",
          "logIndex": "0x13",
          "removed": false
        },
        {
          "address": "0xdec0000000000000000000000000000000000000",
          "topics": [
            "0x16c08f8f2c17b3c8879b3e3cf5efdbdcdfdbd0fcb3890f9d3086f470cd601ddd",
            "0x0000000000000000000000000000000000000000000000000000000000000005",
            "0x0000000000000000000000008d8290d49e88d16d81c6adf6c8774ed88762274a",
            "0x00000000000000000000000000000000fd8c4b8a413a06821456801295921a71"
          ],
          "data": "0x00000000000000000000000000000000000000000000000000000000000062440000000000000000000000000000000000000000000000000000000000000001",
          "blockHash": "0xe6bc7d566081dde5c4a82415fe9b9226d709ec04b2fbff43e161612ccf7a8271",
          "blockNumber": "0x834054",
          "blockTimestamp": "0x69afcc9b",
          "transactionHash": "0x9081c1b44e9a8cc81648e242ede9868eb3c19e083546642332804d0039c488bf",
          "transactionIndex": "0x0",
          "logIndex": "0x14",
          "removed": false
        },
        {
          "address": "0x20c0000000000000000000003554d28269e0f3c2",
          "topics": [
            "0xddf252ad1be2c89b69c2b068fc378daa952ba7f163c4a11628f55a4df523b3ef",
            "0x00000000000000000000000000000000fd8c4b8a413a06821456801295921a71",
            "0x000000000000000000000000dec0000000000000000000000000000000000000"
          ],
          "data": "0x0000000000000000000000000000000000000000000000000000000000006244",
          "blockHash": "0xe6bc7d566081dde5c4a82415fe9b9226d709ec04b2fbff43e161612ccf7a8271",
          "blockNumber": "0x834054",
          "blockTimestamp": "0x69afcc9b",
          "transactionHash": "0x9081c1b44e9a8cc81648e242ede9868eb3c19e083546642332804d0039c488bf",
          "transactionIndex": "0x0",
          "logIndex": "0x15",
          "removed": false
        },
        {
          "address": "0x20c0000000000000000000000000000000000000",
          "topics": [
            "0xddf252ad1be2c89b69c2b068fc378daa952ba7f163c4a11628f55a4df523b3ef",
            "0x000000000000000000000000dec0000000000000000000000000000000000000",
            "0x00000000000000000000000000000000fd8c4b8a413a06821456801295921a71"
          ],
          "data": "0x0000000000000000000000000000000000000000000000000000000000006244",
          "blockHash": "0xe6bc7d566081dde5c4a82415fe9b9226d709ec04b2fbff43e161612ccf7a8271",
          "blockNumber": "0x834054",
          "blockTimestamp": "0x69afcc9b",
          "transactionHash": "0x9081c1b44e9a8cc81648e242ede9868eb3c19e083546642332804d0039c488bf",
          "transactionIndex": "0x0",
          "logIndex": "0x16",
          "removed": false
        },
        {
          "address": "0x20c0000000000000000000000000000000000000",
          "topics": [
            "0x8c5be1e5ebec7d5bd14f71427d1e84f3dd0314c0f7b2291e5b200ac8c7c3b925",
            "0x00000000000000000000000000000000fd8c4b8a413a06821456801295921a71",
            "0x0000000000000000000000000ceb237e109ee22374a567c6b09f373c73fa4cbb"
          ],
          "data": "0x0000000000000000000000000000000000000000000000000000000000006244",
          "blockHash": "0xe6bc7d566081dde5c4a82415fe9b9226d709ec04b2fbff43e161612ccf7a8271",
          "blockNumber": "0x834054",
          "blockTimestamp": "0x69afcc9b",
          "transactionHash": "0x9081c1b44e9a8cc81648e242ede9868eb3c19e083546642332804d0039c488bf",
          "transactionIndex": "0x0",
          "logIndex": "0x17",
          "removed": false
        },
        {
          "address": "0x20c0000000000000000000000000000000000000",
          "topics": [
            "0xddf252ad1be2c89b69c2b068fc378daa952ba7f163c4a11628f55a4df523b3ef",
            "0x00000000000000000000000000000000fd8c4b8a413a06821456801295921a71",
            "0x0000000000000000000000000ceb237e109ee22374a567c6b09f373c73fa4cbb"
          ],
          "data": "0x0000000000000000000000000000000000000000000000000000000000006244",
          "blockHash": "0xe6bc7d566081dde5c4a82415fe9b9226d709ec04b2fbff43e161612ccf7a8271",
          "blockNumber": "0x834054",
          "blockTimestamp": "0x69afcc9b",
          "transactionHash": "0x9081c1b44e9a8cc81648e242ede9868eb3c19e083546642332804d0039c488bf",
          "transactionIndex": "0x0",
          "logIndex": "0x18",
          "removed": false
        },
        {
          "address": "0x0ceb237e109ee22374a567c6b09f373c73fa4cbb",
          "topics": [
            "0xddf252ad1be2c89b69c2b068fc378daa952ba7f163c4a11628f55a4df523b3ef",
            "0x0000000000000000000000000000000000000000000000000000000000000000",
            "0x00000000000000000000000020bb7c2e2f4e5ca2b4c57060d1ae2615245dcc9c"
          ],
          "data": "0x0000000000000000000000000000000000000000000000000000000000006244",
          "blockHash": "0xe6bc7d566081dde5c4a82415fe9b9226d709ec04b2fbff43e161612ccf7a8271",
          "blockNumber": "0x834054",
          "blockTimestamp": "0x69afcc9b",
          "transactionHash": "0x9081c1b44e9a8cc81648e242ede9868eb3c19e083546642332804d0039c488bf",
          "transactionIndex": "0x0",
          "logIndex": "0x19",
          "removed": false
        },
        {
          "address": "0x0ceb237e109ee22374a567c6b09f373c73fa4cbb",
          "topics": [
            "0x8ed59ebee7004468a5666f7566d43343b5917817e35765800064b665b66d070f",
            "0x00000000000000000000000020c0000000000000000000000000000000000000",
            "0x00000000000000000000000000000000fd8c4b8a413a06821456801295921a71",
            "0x00000000000000000000000020bb7c2e2f4e5ca2b4c57060d1ae2615245dcc9c"
          ],
          "data": "0x0000000000000000000000000000000000000000000000000000000000006244",
          "blockHash": "0xe6bc7d566081dde5c4a82415fe9b9226d709ec04b2fbff43e161612ccf7a8271",
          "blockNumber": "0x834054",
          "blockTimestamp": "0x69afcc9b",
          "transactionHash": "0x9081c1b44e9a8cc81648e242ede9868eb3c19e083546642332804d0039c488bf",
          "transactionIndex": "0x0",
          "logIndex": "0x1a",
          "removed": false
        },
        {
          "address": "0x572863d9247e52026e0892d9cd2e519b41edb73c",
          "topics": [
            "0x61ed099e74a97a1d7f8bb0952a88ca8b7b8ebd00c126ea04671f92a81213318a"
          ],
          "data": "0x000000000000000000000000f851abca1d0fd1df8eaba6de466a102996b7d7b20000000000000000000000000000000000000000000000000000000000004fc0",
          "blockHash": "0xe6bc7d566081dde5c4a82415fe9b9226d709ec04b2fbff43e161612ccf7a8271",
          "blockNumber": "0x834054",
          "blockTimestamp": "0x69afcc9b",
          "transactionHash": "0x9081c1b44e9a8cc81648e242ede9868eb3c19e083546642332804d0039c488bf",
          "transactionIndex": "0x0",
          "logIndex": "0x1b",
          "removed": false
        },
        {
          "address": "0x572863d9247e52026e0892d9cd2e519b41edb73c",
          "topics": [
            "0x07ea52d82345d6e838192107d8fd7123d9c2ec8e916cd0aad13fd2b60db24644"
          ],
          "data": "0x000000000000000000000000000000000000000000000000000000000000006000000000000000000000000000000000000000000000000000000000000000e00000000000000000000000000000000000000000000000000000000000000100000000000000000000000000000000000000000000000000000000000000000300000000000000000000000076faff60799021b301b45dc1bbede53f261f996100000000000000000000000097faa2a9c9bf8b4082b175a5b894ce6bac6697a8000000000000000000000000f5771acc42f3321d7193748fa0f656470bf737f200000000000000000000000000000000000000000000000000000000000000000000000000000000000000000000000000000000000000000000000000000003000000000000000000000000000000000000000000000000000000000000062c000000000000000000000000000000000000000000000000000000000000062c000000000000000000000000000000000000000000000000000000000000062c",
          "blockHash": "0xe6bc7d566081dde5c4a82415fe9b9226d709ec04b2fbff43e161612ccf7a8271",
          "blockNumber": "0x834054",
          "blockTimestamp": "0x69afcc9b",
          "transactionHash": "0x9081c1b44e9a8cc81648e242ede9868eb3c19e083546642332804d0039c488bf",
          "transactionIndex": "0x0",
          "logIndex": "0x1c",
          "removed": false
        },
        {
          "address": "0x20bb7c2e2f4e5ca2b4c57060d1ae2615245dcc9c",
          "topics": [
            "0x1ab700d4ced0c005b164c0f789fd09fcbb0156d4c2041b8a3bfbcd961cd1567f"
          ],
          "data": "0x00000000000000000000000000000000000000000000000000000000000000600000000000000000000000000000000000000000000000000000000000000120000000000000000000000000572863d9247e52026e0892d9cd2e519b41edb73c0000000000000000000000000000000000000000000000000000000000000099010000000000000002000076ca00000000000000000000000000000000fd8c4b8a413a06821456801295921a710000762f00000000000000000000000088aa7854d3b2daa5e37e7ce73a1f39669623a36116542e5c49f194ce94eb79b0b6755f6d5d412b81a7fecf6afe6e1e5a9bbf1f9a000000000000000000000000741f0d8bde14140f62107fc60a0ee122b37d4630000000000000006400000000000000000000000000000000000000000000000000000000000000000000000000001600030100110100000000000000000000000000030d4000000000000000000000",
          "blockHash": "0xe6bc7d566081dde5c4a82415fe9b9226d709ec04b2fbff43e161612ccf7a8271",
          "blockNumber": "0x834054",
          "blockTimestamp": "0x69afcc9b",
          "transactionHash": "0x9081c1b44e9a8cc81648e242ede9868eb3c19e083546642332804d0039c488bf",
          "transactionIndex": "0x0",
          "logIndex": "0x1d",
          "removed": false
        },
        {
          "address": "0x0ceb237e109ee22374a567c6b09f373c73fa4cbb",
          "topics": [
            "0xddf252ad1be2c89b69c2b068fc378daa952ba7f163c4a11628f55a4df523b3ef",
            "0x00000000000000000000000020bb7c2e2f4e5ca2b4c57060d1ae2615245dcc9c",
            "0x000000000000000000000000572863d9247e52026e0892d9cd2e519b41edb73c"
          ],
          "data": "0x0000000000000000000000000000000000000000000000000000000000006244",
          "blockHash": "0xe6bc7d566081dde5c4a82415fe9b9226d709ec04b2fbff43e161612ccf7a8271",
          "blockNumber": "0x834054",
          "blockTimestamp": "0x69afcc9b",
          "transactionHash": "0x9081c1b44e9a8cc81648e242ede9868eb3c19e083546642332804d0039c488bf",
          "transactionIndex": "0x0",
          "logIndex": "0x1e",
          "removed": false
        },
        {
          "address": "0x00000000fd8c4b8a413a06821456801295921a71",
          "topics": [
            "0x85496b760a4b7f8d66384b9df21b381f5d1b1e79f229a47aaf4c232edc2fe59a",
            "0x16542e5c49f194ce94eb79b0b6755f6d5d412b81a7fecf6afe6e1e5a9bbf1f9a",
            "0x000000000000000000000000741f0d8bde14140f62107fc60a0ee122b37d4630"
          ],
          "data": "0x000000000000000000000000000000000000000000000000000000000000762f00000000000000000000000000000000000000000000000000005af3107a400000000000000000000000000000000000000000000000000000005af3107a4000",
          "blockHash": "0xe6bc7d566081dde5c4a82415fe9b9226d709ec04b2fbff43e161612ccf7a8271",
          "blockNumber": "0x834054",
          "blockTimestamp": "0x69afcc9b",
          "transactionHash": "0x9081c1b44e9a8cc81648e242ede9868eb3c19e083546642332804d0039c488bf",
          "transactionIndex": "0x0",
          "logIndex": "0x1f",
          "removed": false
        },
        {
          "address": "0x00000000883279097a49db1f2af954ead0c77e3c",
          "topics": [
            "0xddf252ad1be2c89b69c2b068fc378daa952ba7f163c4a11628f55a4df523b3ef",
            "0x000000000000000000000000741f0d8bde14140f62107fc60a0ee122b37d4630",
            "0x0000000000000000000000000000000000000000000000000000000000000000"
          ],
          "data": "0x00000000000000000000000000000000000000000000000000005af3107a4000",
          "blockHash": "0xe6bc7d566081dde5c4a82415fe9b9226d709ec04b2fbff43e161612ccf7a8271",
          "blockNumber": "0x834054",
          "blockTimestamp": "0x69afcc9b",
          "transactionHash": "0x9081c1b44e9a8cc81648e242ede9868eb3c19e083546642332804d0039c488bf",
          "transactionIndex": "0x0",
          "logIndex": "0x20",
          "removed": false
        },
        {
          "address": "0x20c0000000000000000000003554d28269e0f3c2",
          "topics": [
            "0xddf252ad1be2c89b69c2b068fc378daa952ba7f163c4a11628f55a4df523b3ef",
            "0x000000000000000000000000741f0d8bde14140f62107fc60a0ee122b37d4630",
            "0x00000000000000000000000000000000883279097a49db1f2af954ead0c77e3c"
          ],
          "data": "0x0000000000000000000000000000000000000000000000000000000000006244",
          "blockHash": "0xe6bc7d566081dde5c4a82415fe9b9226d709ec04b2fbff43e161612ccf7a8271",
          "blockNumber": "0x834054",
          "blockTimestamp": "0x69afcc9b",
          "transactionHash": "0x9081c1b44e9a8cc81648e242ede9868eb3c19e083546642332804d0039c488bf",
          "transactionIndex": "0x0",
          "logIndex": "0x21",
          "removed": false
        },
        {
          "address": "0x20c0000000000000000000003554d28269e0f3c2",
          "topics": [
            "0x8c5be1e5ebec7d5bd14f71427d1e84f3dd0314c0f7b2291e5b200ac8c7c3b925",
            "0x00000000000000000000000000000000883279097a49db1f2af954ead0c77e3c",
            "0x000000000000000000000000dec0000000000000000000000000000000000000"
          ],
          "data": "0x0000000000000000000000000000000000000000000000000000000000006244",
          "blockHash": "0xe6bc7d566081dde5c4a82415fe9b9226d709ec04b2fbff43e161612ccf7a8271",
          "blockNumber": "0x834054",
          "blockTimestamp": "0x69afcc9b",
          "transactionHash": "0x9081c1b44e9a8cc81648e242ede9868eb3c19e083546642332804d0039c488bf",
          "transactionIndex": "0x0",
          "logIndex": "0x22",
          "removed": false
        },
        {
          "address": "0xdec0000000000000000000000000000000000000",
          "topics": [
            "0x16c08f8f2c17b3c8879b3e3cf5efdbdcdfdbd0fcb3890f9d3086f470cd601ddd",
            "0x0000000000000000000000000000000000000000000000000000000000000005",
            "0x0000000000000000000000008d8290d49e88d16d81c6adf6c8774ed88762274a",
            "0x00000000000000000000000000000000883279097a49db1f2af954ead0c77e3c"
          ],
          "data": "0x00000000000000000000000000000000000000000000000000000000000062440000000000000000000000000000000000000000000000000000000000000001",
          "blockHash": "0xe6bc7d566081dde5c4a82415fe9b9226d709ec04b2fbff43e161612ccf7a8271",
          "blockNumber": "0x834054",
          "blockTimestamp": "0x69afcc9b",
          "transactionHash": "0x9081c1b44e9a8cc81648e242ede9868eb3c19e083546642332804d0039c488bf",
          "transactionIndex": "0x0",
          "logIndex": "0x23",
          "removed": false
        },
        {
          "address": "0x20c0000000000000000000003554d28269e0f3c2",
          "topics": [
            "0xddf252ad1be2c89b69c2b068fc378daa952ba7f163c4a11628f55a4df523b3ef",
            "0x00000000000000000000000000000000883279097a49db1f2af954ead0c77e3c",
            "0x000000000000000000000000dec0000000000000000000000000000000000000"
          ],
          "data": "0x0000000000000000000000000000000000000000000000000000000000006244",
          "blockHash": "0xe6bc7d566081dde5c4a82415fe9b9226d709ec04b2fbff43e161612ccf7a8271",
          "blockNumber": "0x834054",
          "blockTimestamp": "0x69afcc9b",
          "transactionHash": "0x9081c1b44e9a8cc81648e242ede9868eb3c19e083546642332804d0039c488bf",
          "transactionIndex": "0x0",
          "logIndex": "0x24",
          "removed": false
        },
        {
          "address": "0x20c0000000000000000000000000000000000000",
          "topics": [
            "0xddf252ad1be2c89b69c2b068fc378daa952ba7f163c4a11628f55a4df523b3ef",
            "0x000000000000000000000000dec0000000000000000000000000000000000000",
            "0x00000000000000000000000000000000883279097a49db1f2af954ead0c77e3c"
          ],
          "data": "0x0000000000000000000000000000000000000000000000000000000000006244",
          "blockHash": "0xe6bc7d566081dde5c4a82415fe9b9226d709ec04b2fbff43e161612ccf7a8271",
          "blockNumber": "0x834054",
          "blockTimestamp": "0x69afcc9b",
          "transactionHash": "0x9081c1b44e9a8cc81648e242ede9868eb3c19e083546642332804d0039c488bf",
          "transactionIndex": "0x0",
          "logIndex": "0x25",
          "removed": false
        },
        {
          "address": "0x20c0000000000000000000000000000000000000",
          "topics": [
            "0x8c5be1e5ebec7d5bd14f71427d1e84f3dd0314c0f7b2291e5b200ac8c7c3b925",
            "0x00000000000000000000000000000000883279097a49db1f2af954ead0c77e3c",
            "0x0000000000000000000000000ceb237e109ee22374a567c6b09f373c73fa4cbb"
          ],
          "data": "0x0000000000000000000000000000000000000000000000000000000000006244",
          "blockHash": "0xe6bc7d566081dde5c4a82415fe9b9226d709ec04b2fbff43e161612ccf7a8271",
          "blockNumber": "0x834054",
          "blockTimestamp": "0x69afcc9b",
          "transactionHash": "0x9081c1b44e9a8cc81648e242ede9868eb3c19e083546642332804d0039c488bf",
          "transactionIndex": "0x0",
          "logIndex": "0x26",
          "removed": false
        },
        {
          "address": "0x20c0000000000000000000000000000000000000",
          "topics": [
            "0xddf252ad1be2c89b69c2b068fc378daa952ba7f163c4a11628f55a4df523b3ef",
            "0x00000000000000000000000000000000883279097a49db1f2af954ead0c77e3c",
            "0x0000000000000000000000000ceb237e109ee22374a567c6b09f373c73fa4cbb"
          ],
          "data": "0x0000000000000000000000000000000000000000000000000000000000006244",
          "blockHash": "0xe6bc7d566081dde5c4a82415fe9b9226d709ec04b2fbff43e161612ccf7a8271",
          "blockNumber": "0x834054",
          "blockTimestamp": "0x69afcc9b",
          "transactionHash": "0x9081c1b44e9a8cc81648e242ede9868eb3c19e083546642332804d0039c488bf",
          "transactionIndex": "0x0",
          "logIndex": "0x27",
          "removed": false
        },
        {
          "address": "0x0ceb237e109ee22374a567c6b09f373c73fa4cbb",
          "topics": [
            "0xddf252ad1be2c89b69c2b068fc378daa952ba7f163c4a11628f55a4df523b3ef",
            "0x0000000000000000000000000000000000000000000000000000000000000000",
            "0x00000000000000000000000020bb7c2e2f4e5ca2b4c57060d1ae2615245dcc9c"
          ],
          "data": "0x0000000000000000000000000000000000000000000000000000000000006244",
          "blockHash": "0xe6bc7d566081dde5c4a82415fe9b9226d709ec04b2fbff43e161612ccf7a8271",
          "blockNumber": "0x834054",
          "blockTimestamp": "0x69afcc9b",
          "transactionHash": "0x9081c1b44e9a8cc81648e242ede9868eb3c19e083546642332804d0039c488bf",
          "transactionIndex": "0x0",
          "logIndex": "0x28",
          "removed": false
        },
        {
          "address": "0x0ceb237e109ee22374a567c6b09f373c73fa4cbb",
          "topics": [
            "0x8ed59ebee7004468a5666f7566d43343b5917817e35765800064b665b66d070f",
            "0x00000000000000000000000020c0000000000000000000000000000000000000",
            "0x00000000000000000000000000000000883279097a49db1f2af954ead0c77e3c",
            "0x00000000000000000000000020bb7c2e2f4e5ca2b4c57060d1ae2615245dcc9c"
          ],
          "data": "0x0000000000000000000000000000000000000000000000000000000000006244",
          "blockHash": "0xe6bc7d566081dde5c4a82415fe9b9226d709ec04b2fbff43e161612ccf7a8271",
          "blockNumber": "0x834054",
          "blockTimestamp": "0x69afcc9b",
          "transactionHash": "0x9081c1b44e9a8cc81648e242ede9868eb3c19e083546642332804d0039c488bf",
          "transactionIndex": "0x0",
          "logIndex": "0x29",
          "removed": false
        },
        {
          "address": "0x572863d9247e52026e0892d9cd2e519b41edb73c",
          "topics": [
            "0x61ed099e74a97a1d7f8bb0952a88ca8b7b8ebd00c126ea04671f92a81213318a"
          ],
          "data": "0x000000000000000000000000f851abca1d0fd1df8eaba6de466a102996b7d7b20000000000000000000000000000000000000000000000000000000000004fc0",
          "blockHash": "0xe6bc7d566081dde5c4a82415fe9b9226d709ec04b2fbff43e161612ccf7a8271",
          "blockNumber": "0x834054",
          "blockTimestamp": "0x69afcc9b",
          "transactionHash": "0x9081c1b44e9a8cc81648e242ede9868eb3c19e083546642332804d0039c488bf",
          "transactionIndex": "0x0",
          "logIndex": "0x2a",
          "removed": false
        },
        {
          "address": "0x572863d9247e52026e0892d9cd2e519b41edb73c",
          "topics": [
            "0x07ea52d82345d6e838192107d8fd7123d9c2ec8e916cd0aad13fd2b60db24644"
          ],
          "data": "0x000000000000000000000000000000000000000000000000000000000000006000000000000000000000000000000000000000000000000000000000000000e00000000000000000000000000000000000000000000000000000000000000100000000000000000000000000000000000000000000000000000000000000000300000000000000000000000076faff60799021b301b45dc1bbede53f261f996100000000000000000000000097faa2a9c9bf8b4082b175a5b894ce6bac6697a8000000000000000000000000f5771acc42f3321d7193748fa0f656470bf737f200000000000000000000000000000000000000000000000000000000000000000000000000000000000000000000000000000000000000000000000000000003000000000000000000000000000000000000000000000000000000000000062c000000000000000000000000000000000000000000000000000000000000062c000000000000000000000000000000000000000000000000000000000000062c",
          "blockHash": "0xe6bc7d566081dde5c4a82415fe9b9226d709ec04b2fbff43e161612ccf7a8271",
          "blockNumber": "0x834054",
          "blockTimestamp": "0x69afcc9b",
          "transactionHash": "0x9081c1b44e9a8cc81648e242ede9868eb3c19e083546642332804d0039c488bf",
          "transactionIndex": "0x0",
          "logIndex": "0x2b",
          "removed": false
        },
        {
          "address": "0x20bb7c2e2f4e5ca2b4c57060d1ae2615245dcc9c",
          "topics": [
            "0x1ab700d4ced0c005b164c0f789fd09fcbb0156d4c2041b8a3bfbcd961cd1567f"
          ],
          "data": "0x00000000000000000000000000000000000000000000000000000000000000600000000000000000000000000000000000000000000000000000000000000120000000000000000000000000572863d9247e52026e0892d9cd2e519b41edb73c0000000000000000000000000000000000000000000000000000000000000099010000000000000002000076ca00000000000000000000000000000000883279097a49db1f2af954ead0c77e3c0000762f000000000000000000000000999dfabe3b1cc2ef66eb032eea42fea329bba168137e3069f6c8c99b302e17277064292be3fb1b9d9c4926c4e726194185f1ccf1000000000000000000000000741f0d8bde14140f62107fc60a0ee122b37d4630000000000000006400000000000000000000000000000000000000000000000000000000000000000000000000001600030100110100000000000000000000000000030d4000000000000000000000",
          "blockHash": "0xe6bc7d566081dde5c4a82415fe9b9226d709ec04b2fbff43e161612ccf7a8271",
          "blockNumber": "0x834054",
          "blockTimestamp": "0x69afcc9b",
          "transactionHash": "0x9081c1b44e9a8cc81648e242ede9868eb3c19e083546642332804d0039c488bf",
          "transactionIndex": "0x0",
          "logIndex": "0x2c",
          "removed": false
        },
        {
          "address": "0x0ceb237e109ee22374a567c6b09f373c73fa4cbb",
          "topics": [
            "0xddf252ad1be2c89b69c2b068fc378daa952ba7f163c4a11628f55a4df523b3ef",
            "0x00000000000000000000000020bb7c2e2f4e5ca2b4c57060d1ae2615245dcc9c",
            "0x000000000000000000000000572863d9247e52026e0892d9cd2e519b41edb73c"
          ],
          "data": "0x0000000000000000000000000000000000000000000000000000000000006244",
          "blockHash": "0xe6bc7d566081dde5c4a82415fe9b9226d709ec04b2fbff43e161612ccf7a8271",
          "blockNumber": "0x834054",
          "blockTimestamp": "0x69afcc9b",
          "transactionHash": "0x9081c1b44e9a8cc81648e242ede9868eb3c19e083546642332804d0039c488bf",
          "transactionIndex": "0x0",
          "logIndex": "0x2d",
          "removed": false
        },
        {
          "address": "0x00000000883279097a49db1f2af954ead0c77e3c",
          "topics": [
            "0x85496b760a4b7f8d66384b9df21b381f5d1b1e79f229a47aaf4c232edc2fe59a",
            "0x137e3069f6c8c99b302e17277064292be3fb1b9d9c4926c4e726194185f1ccf1",
            "0x000000000000000000000000741f0d8bde14140f62107fc60a0ee122b37d4630"
          ],
          "data": "0x000000000000000000000000000000000000000000000000000000000000762f00000000000000000000000000000000000000000000000000005af3107a400000000000000000000000000000000000000000000000000000005af3107a4000",
          "blockHash": "0xe6bc7d566081dde5c4a82415fe9b9226d709ec04b2fbff43e161612ccf7a8271",
          "blockNumber": "0x834054",
          "blockTimestamp": "0x69afcc9b",
          "transactionHash": "0x9081c1b44e9a8cc81648e242ede9868eb3c19e083546642332804d0039c488bf",
          "transactionIndex": "0x0",
          "logIndex": "0x2e",
          "removed": false
        },
        {
          "address": "0x00000000d61733e7a393a10a5b48c311abe8f1e5",
          "topics": [
            "0x603e191ccb1fad1c0004c9c1f37101358f84c3cf059031e9ec9b0c17cad34188",
            "0x000000000000000000000000000000000000000000000000000000000000762f"
          ],
          "data": "0x00000000000000000000000000000000000000000000000000000000000000640000000000000000000000000000000000000000000000000000000000000064",
          "blockHash": "0xe6bc7d566081dde5c4a82415fe9b9226d709ec04b2fbff43e161612ccf7a8271",
          "blockNumber": "0x834054",
          "blockTimestamp": "0x69afcc9b",
          "transactionHash": "0x9081c1b44e9a8cc81648e242ede9868eb3c19e083546642332804d0039c488bf",
          "transactionIndex": "0x0",
          "logIndex": "0x2f",
          "removed": false
        },
        {
          "address": "0x00000000d61733e7a393a10a5b48c311abe8f1e5",
          "topics": [
            "0xd2ff7607bbad14e866630d67da40c9a9cedd964cce5ce4c3dc4176133954ef98"
          ],
          "data": "0x00000000000000000000000000000000000000000000000000000000000000640000000000000000000000000000000000000000000000000000000000000064",
          "blockHash": "0xe6bc7d566081dde5c4a82415fe9b9226d709ec04b2fbff43e161612ccf7a8271",
          "blockNumber": "0x834054",
          "blockTimestamp": "0x69afcc9b",
          "transactionHash": "0x9081c1b44e9a8cc81648e242ede9868eb3c19e083546642332804d0039c488bf",
          "transactionIndex": "0x0",
          "logIndex": "0x30",
          "removed": false
        },
        {
          "address": "0x20c0000000000000000000003554d28269e0f3c2",
          "topics": [
            "0xddf252ad1be2c89b69c2b068fc378daa952ba7f163c4a11628f55a4df523b3ef",
            "0x000000000000000000000000741f0d8bde14140f62107fc60a0ee122b37d4630",
            "0x00000000000000000000000000000000d61733e7a393a10a5b48c311abe8f1e5"
          ],
          "data": "0x0000000000000000000000000000000000000000000000000000000000000064",
          "blockHash": "0xe6bc7d566081dde5c4a82415fe9b9226d709ec04b2fbff43e161612ccf7a8271",
          "blockNumber": "0x834054",
          "blockTimestamp": "0x69afcc9b",
          "transactionHash": "0x9081c1b44e9a8cc81648e242ede9868eb3c19e083546642332804d0039c488bf",
          "transactionIndex": "0x0",
          "logIndex": "0x31",
          "removed": false
        },
        {
          "address": "0x20c0000000000000000000003554d28269e0f3c2",
          "topics": [
            "0xddf252ad1be2c89b69c2b068fc378daa952ba7f163c4a11628f55a4df523b3ef",
            "0x00000000000000000000000000000000d61733e7a393a10a5b48c311abe8f1e5",
            "0x0000000000000000000000000000000000000000000000000000000000000000"
          ],
          "data": "0x0000000000000000000000000000000000000000000000000000000000000064",
          "blockHash": "0xe6bc7d566081dde5c4a82415fe9b9226d709ec04b2fbff43e161612ccf7a8271",
          "blockNumber": "0x834054",
          "blockTimestamp": "0x69afcc9b",
          "transactionHash": "0x9081c1b44e9a8cc81648e242ede9868eb3c19e083546642332804d0039c488bf",
          "transactionIndex": "0x0",
          "logIndex": "0x32",
          "removed": false
        },
        {
          "address": "0x20c0000000000000000000003554d28269e0f3c2",
          "topics": [
            "0xcc16f5dbb4873280815c1ee09dbd06736cffcc184412cf7a71a0fdb75d397ca5",
            "0x00000000000000000000000000000000d61733e7a393a10a5b48c311abe8f1e5"
          ],
          "data": "0x0000000000000000000000000000000000000000000000000000000000000064",
          "blockHash": "0xe6bc7d566081dde5c4a82415fe9b9226d709ec04b2fbff43e161612ccf7a8271",
          "blockNumber": "0x834054",
          "blockTimestamp": "0x69afcc9b",
          "transactionHash": "0x9081c1b44e9a8cc81648e242ede9868eb3c19e083546642332804d0039c488bf",
          "transactionIndex": "0x0",
          "logIndex": "0x33",
          "removed": false
        },
        {
          "address": "0x20c0000000000000000000003554d28269e0f3c2",
          "topics": [
            "0xddf252ad1be2c89b69c2b068fc378daa952ba7f163c4a11628f55a4df523b3ef",
            "0x000000000000000000000000741f0d8bde14140f62107fc60a0ee122b37d4630",
            "0x00000000000000000000000000000000d61733e7a393a10a5b48c311abe8f1e5"
          ],
          "data": "0x0000000000000000000000000000000000000000000000000000000000006244",
          "blockHash": "0xe6bc7d566081dde5c4a82415fe9b9226d709ec04b2fbff43e161612ccf7a8271",
          "blockNumber": "0x834054",
          "blockTimestamp": "0x69afcc9b",
          "transactionHash": "0x9081c1b44e9a8cc81648e242ede9868eb3c19e083546642332804d0039c488bf",
          "transactionIndex": "0x0",
          "logIndex": "0x34",
          "removed": false
        },
        {
          "address": "0x20c0000000000000000000003554d28269e0f3c2",
          "topics": [
            "0x8c5be1e5ebec7d5bd14f71427d1e84f3dd0314c0f7b2291e5b200ac8c7c3b925",
            "0x00000000000000000000000000000000d61733e7a393a10a5b48c311abe8f1e5",
            "0x000000000000000000000000dec0000000000000000000000000000000000000"
          ],
          "data": "0x0000000000000000000000000000000000000000000000000000000000006244",
          "blockHash": "0xe6bc7d566081dde5c4a82415fe9b9226d709ec04b2fbff43e161612ccf7a8271",
          "blockNumber": "0x834054",
          "blockTimestamp": "0x69afcc9b",
          "transactionHash": "0x9081c1b44e9a8cc81648e242ede9868eb3c19e083546642332804d0039c488bf",
          "transactionIndex": "0x0",
          "logIndex": "0x35",
          "removed": false
        },
        {
          "address": "0xdec0000000000000000000000000000000000000",
          "topics": [
            "0x16c08f8f2c17b3c8879b3e3cf5efdbdcdfdbd0fcb3890f9d3086f470cd601ddd",
            "0x0000000000000000000000000000000000000000000000000000000000000005",
            "0x0000000000000000000000008d8290d49e88d16d81c6adf6c8774ed88762274a",
            "0x00000000000000000000000000000000d61733e7a393a10a5b48c311abe8f1e5"
          ],
          "data": "0x00000000000000000000000000000000000000000000000000000000000062440000000000000000000000000000000000000000000000000000000000000001",
          "blockHash": "0xe6bc7d566081dde5c4a82415fe9b9226d709ec04b2fbff43e161612ccf7a8271",
          "blockNumber": "0x834054",
          "blockTimestamp": "0x69afcc9b",
          "transactionHash": "0x9081c1b44e9a8cc81648e242ede9868eb3c19e083546642332804d0039c488bf",
          "transactionIndex": "0x0",
          "logIndex": "0x36",
          "removed": false
        },
        {
          "address": "0x20c0000000000000000000003554d28269e0f3c2",
          "topics": [
            "0xddf252ad1be2c89b69c2b068fc378daa952ba7f163c4a11628f55a4df523b3ef",
            "0x00000000000000000000000000000000d61733e7a393a10a5b48c311abe8f1e5",
            "0x000000000000000000000000dec0000000000000000000000000000000000000"
          ],
          "data": "0x0000000000000000000000000000000000000000000000000000000000006244",
          "blockHash": "0xe6bc7d566081dde5c4a82415fe9b9226d709ec04b2fbff43e161612ccf7a8271",
          "blockNumber": "0x834054",
          "blockTimestamp": "0x69afcc9b",
          "transactionHash": "0x9081c1b44e9a8cc81648e242ede9868eb3c19e083546642332804d0039c488bf",
          "transactionIndex": "0x0",
          "logIndex": "0x37",
          "removed": false
        },
        {
          "address": "0x20c0000000000000000000000000000000000000",
          "topics": [
            "0xddf252ad1be2c89b69c2b068fc378daa952ba7f163c4a11628f55a4df523b3ef",
            "0x000000000000000000000000dec0000000000000000000000000000000000000",
            "0x00000000000000000000000000000000d61733e7a393a10a5b48c311abe8f1e5"
          ],
          "data": "0x0000000000000000000000000000000000000000000000000000000000006244",
          "blockHash": "0xe6bc7d566081dde5c4a82415fe9b9226d709ec04b2fbff43e161612ccf7a8271",
          "blockNumber": "0x834054",
          "blockTimestamp": "0x69afcc9b",
          "transactionHash": "0x9081c1b44e9a8cc81648e242ede9868eb3c19e083546642332804d0039c488bf",
          "transactionIndex": "0x0",
          "logIndex": "0x38",
          "removed": false
        },
        {
          "address": "0x20c0000000000000000000000000000000000000",
          "topics": [
            "0x8c5be1e5ebec7d5bd14f71427d1e84f3dd0314c0f7b2291e5b200ac8c7c3b925",
            "0x00000000000000000000000000000000d61733e7a393a10a5b48c311abe8f1e5",
            "0x0000000000000000000000000ceb237e109ee22374a567c6b09f373c73fa4cbb"
          ],
          "data": "0x0000000000000000000000000000000000000000000000000000000000006244",
          "blockHash": "0xe6bc7d566081dde5c4a82415fe9b9226d709ec04b2fbff43e161612ccf7a8271",
          "blockNumber": "0x834054",
          "blockTimestamp": "0x69afcc9b",
          "transactionHash": "0x9081c1b44e9a8cc81648e242ede9868eb3c19e083546642332804d0039c488bf",
          "transactionIndex": "0x0",
          "logIndex": "0x39",
          "removed": false
        },
        {
          "address": "0x20c0000000000000000000000000000000000000",
          "topics": [
            "0xddf252ad1be2c89b69c2b068fc378daa952ba7f163c4a11628f55a4df523b3ef",
            "0x00000000000000000000000000000000d61733e7a393a10a5b48c311abe8f1e5",
            "0x0000000000000000000000000ceb237e109ee22374a567c6b09f373c73fa4cbb"
          ],
          "data": "0x0000000000000000000000000000000000000000000000000000000000006244",
          "blockHash": "0xe6bc7d566081dde5c4a82415fe9b9226d709ec04b2fbff43e161612ccf7a8271",
          "blockNumber": "0x834054",
          "blockTimestamp": "0x69afcc9b",
          "transactionHash": "0x9081c1b44e9a8cc81648e242ede9868eb3c19e083546642332804d0039c488bf",
          "transactionIndex": "0x0",
          "logIndex": "0x3a",
          "removed": false
        },
        {
          "address": "0x0ceb237e109ee22374a567c6b09f373c73fa4cbb",
          "topics": [
            "0xddf252ad1be2c89b69c2b068fc378daa952ba7f163c4a11628f55a4df523b3ef",
            "0x0000000000000000000000000000000000000000000000000000000000000000",
            "0x00000000000000000000000020bb7c2e2f4e5ca2b4c57060d1ae2615245dcc9c"
          ],
          "data": "0x0000000000000000000000000000000000000000000000000000000000006244",
          "blockHash": "0xe6bc7d566081dde5c4a82415fe9b9226d709ec04b2fbff43e161612ccf7a8271",
          "blockNumber": "0x834054",
          "blockTimestamp": "0x69afcc9b",
          "transactionHash": "0x9081c1b44e9a8cc81648e242ede9868eb3c19e083546642332804d0039c488bf",
          "transactionIndex": "0x0",
          "logIndex": "0x3b",
          "removed": false
        },
        {
          "address": "0x0ceb237e109ee22374a567c6b09f373c73fa4cbb",
          "topics": [
            "0x8ed59ebee7004468a5666f7566d43343b5917817e35765800064b665b66d070f",
            "0x00000000000000000000000020c0000000000000000000000000000000000000",
            "0x00000000000000000000000000000000d61733e7a393a10a5b48c311abe8f1e5",
            "0x00000000000000000000000020bb7c2e2f4e5ca2b4c57060d1ae2615245dcc9c"
          ],
          "data": "0x0000000000000000000000000000000000000000000000000000000000006244",
          "blockHash": "0xe6bc7d566081dde5c4a82415fe9b9226d709ec04b2fbff43e161612ccf7a8271",
          "blockNumber": "0x834054",
          "blockTimestamp": "0x69afcc9b",
          "transactionHash": "0x9081c1b44e9a8cc81648e242ede9868eb3c19e083546642332804d0039c488bf",
          "transactionIndex": "0x0",
          "logIndex": "0x3c",
          "removed": false
        },
        {
          "address": "0x572863d9247e52026e0892d9cd2e519b41edb73c",
          "topics": [
            "0x61ed099e74a97a1d7f8bb0952a88ca8b7b8ebd00c126ea04671f92a81213318a"
          ],
          "data": "0x000000000000000000000000f851abca1d0fd1df8eaba6de466a102996b7d7b20000000000000000000000000000000000000000000000000000000000004fc0",
          "blockHash": "0xe6bc7d566081dde5c4a82415fe9b9226d709ec04b2fbff43e161612ccf7a8271",
          "blockNumber": "0x834054",
          "blockTimestamp": "0x69afcc9b",
          "transactionHash": "0x9081c1b44e9a8cc81648e242ede9868eb3c19e083546642332804d0039c488bf",
          "transactionIndex": "0x0",
          "logIndex": "0x3d",
          "removed": false
        },
        {
          "address": "0x572863d9247e52026e0892d9cd2e519b41edb73c",
          "topics": [
            "0x07ea52d82345d6e838192107d8fd7123d9c2ec8e916cd0aad13fd2b60db24644"
          ],
          "data": "0x000000000000000000000000000000000000000000000000000000000000006000000000000000000000000000000000000000000000000000000000000000e00000000000000000000000000000000000000000000000000000000000000100000000000000000000000000000000000000000000000000000000000000000300000000000000000000000076faff60799021b301b45dc1bbede53f261f996100000000000000000000000097faa2a9c9bf8b4082b175a5b894ce6bac6697a8000000000000000000000000f5771acc42f3321d7193748fa0f656470bf737f200000000000000000000000000000000000000000000000000000000000000000000000000000000000000000000000000000000000000000000000000000003000000000000000000000000000000000000000000000000000000000000062c000000000000000000000000000000000000000000000000000000000000062c000000000000000000000000000000000000000000000000000000000000062c",
          "blockHash": "0xe6bc7d566081dde5c4a82415fe9b9226d709ec04b2fbff43e161612ccf7a8271",
          "blockNumber": "0x834054",
          "blockTimestamp": "0x69afcc9b",
          "transactionHash": "0x9081c1b44e9a8cc81648e242ede9868eb3c19e083546642332804d0039c488bf",
          "transactionIndex": "0x0",
          "logIndex": "0x3e",
          "removed": false
        },
        {
          "address": "0x20bb7c2e2f4e5ca2b4c57060d1ae2615245dcc9c",
          "topics": [
            "0x1ab700d4ced0c005b164c0f789fd09fcbb0156d4c2041b8a3bfbcd961cd1567f"
          ],
          "data": "0x00000000000000000000000000000000000000000000000000000000000000600000000000000000000000000000000000000000000000000000000000000120000000000000000000000000572863d9247e52026e0892d9cd2e519b41edb73c0000000000000000000000000000000000000000000000000000000000000099010000000000000002000076ca00000000000000000000000000000000d61733e7a393a10a5b48c311abe8f1e50000762f00000000000000000000000096a394058e2b84a89bac9667b19661ed003cf5d499870e5a8e96352d0a72ce7907d51d4638176bbb31781b60b2222e9be11a950e000000000000000000000000741f0d8bde14140f62107fc60a0ee122b37d4630000000000000006400000000000000000000000000000000000000000000000000000000000000000000000000001600030100110100000000000000000000000000030d4000000000000000000000",
          "blockHash": "0xe6bc7d566081dde5c4a82415fe9b9226d709ec04b2fbff43e161612ccf7a8271",
          "blockNumber": "0x834054",
          "blockTimestamp": "0x69afcc9b",
          "transactionHash": "0x9081c1b44e9a8cc81648e242ede9868eb3c19e083546642332804d0039c488bf",
          "transactionIndex": "0x0",
          "logIndex": "0x3f",
          "removed": false
        },
        {
          "address": "0x0ceb237e109ee22374a567c6b09f373c73fa4cbb",
          "topics": [
            "0xddf252ad1be2c89b69c2b068fc378daa952ba7f163c4a11628f55a4df523b3ef",
            "0x00000000000000000000000020bb7c2e2f4e5ca2b4c57060d1ae2615245dcc9c",
            "0x000000000000000000000000572863d9247e52026e0892d9cd2e519b41edb73c"
          ],
          "data": "0x0000000000000000000000000000000000000000000000000000000000006244",
          "blockHash": "0xe6bc7d566081dde5c4a82415fe9b9226d709ec04b2fbff43e161612ccf7a8271",
          "blockNumber": "0x834054",
          "blockTimestamp": "0x69afcc9b",
          "transactionHash": "0x9081c1b44e9a8cc81648e242ede9868eb3c19e083546642332804d0039c488bf",
          "transactionIndex": "0x0",
          "logIndex": "0x40",
          "removed": false
        },
        {
          "address": "0x00000000d61733e7a393a10a5b48c311abe8f1e5",
          "topics": [
            "0x85496b760a4b7f8d66384b9df21b381f5d1b1e79f229a47aaf4c232edc2fe59a",
            "0x99870e5a8e96352d0a72ce7907d51d4638176bbb31781b60b2222e9be11a950e",
            "0x000000000000000000000000741f0d8bde14140f62107fc60a0ee122b37d4630"
          ],
          "data": "0x000000000000000000000000000000000000000000000000000000000000762f00000000000000000000000000000000000000000000000000000000000000640000000000000000000000000000000000000000000000000000000000000064",
          "blockHash": "0xe6bc7d566081dde5c4a82415fe9b9226d709ec04b2fbff43e161612ccf7a8271",
          "blockNumber": "0x834054",
          "blockTimestamp": "0x69afcc9b",
          "transactionHash": "0x9081c1b44e9a8cc81648e242ede9868eb3c19e083546642332804d0039c488bf",
          "transactionIndex": "0x0",
          "logIndex": "0x41",
          "removed": false
        },
        {
          "address": "0x000000008c3930dca540bb9b3a5d0ee78fca9a4c",
          "topics": [
            "0xddf252ad1be2c89b69c2b068fc378daa952ba7f163c4a11628f55a4df523b3ef",
            "0x000000000000000000000000741f0d8bde14140f62107fc60a0ee122b37d4630",
            "0x0000000000000000000000000000000000000000000000000000000000000000"
          ],
          "data": "0x00000000000000000000000000000000000000000000000000005af3107a4000",
          "blockHash": "0xe6bc7d566081dde5c4a82415fe9b9226d709ec04b2fbff43e161612ccf7a8271",
          "blockNumber": "0x834054",
          "blockTimestamp": "0x69afcc9b",
          "transactionHash": "0x9081c1b44e9a8cc81648e242ede9868eb3c19e083546642332804d0039c488bf",
          "transactionIndex": "0x0",
          "logIndex": "0x42",
          "removed": false
        },
        {
          "address": "0x20c0000000000000000000003554d28269e0f3c2",
          "topics": [
            "0xddf252ad1be2c89b69c2b068fc378daa952ba7f163c4a11628f55a4df523b3ef",
            "0x000000000000000000000000741f0d8bde14140f62107fc60a0ee122b37d4630",
            "0x000000000000000000000000000000008c3930dca540bb9b3a5d0ee78fca9a4c"
          ],
          "data": "0x0000000000000000000000000000000000000000000000000000000000006244",
          "blockHash": "0xe6bc7d566081dde5c4a82415fe9b9226d709ec04b2fbff43e161612ccf7a8271",
          "blockNumber": "0x834054",
          "blockTimestamp": "0x69afcc9b",
          "transactionHash": "0x9081c1b44e9a8cc81648e242ede9868eb3c19e083546642332804d0039c488bf",
          "transactionIndex": "0x0",
          "logIndex": "0x43",
          "removed": false
        },
        {
          "address": "0x20c0000000000000000000003554d28269e0f3c2",
          "topics": [
            "0x8c5be1e5ebec7d5bd14f71427d1e84f3dd0314c0f7b2291e5b200ac8c7c3b925",
            "0x000000000000000000000000000000008c3930dca540bb9b3a5d0ee78fca9a4c",
            "0x000000000000000000000000dec0000000000000000000000000000000000000"
          ],
          "data": "0x0000000000000000000000000000000000000000000000000000000000006244",
          "blockHash": "0xe6bc7d566081dde5c4a82415fe9b9226d709ec04b2fbff43e161612ccf7a8271",
          "blockNumber": "0x834054",
          "blockTimestamp": "0x69afcc9b",
          "transactionHash": "0x9081c1b44e9a8cc81648e242ede9868eb3c19e083546642332804d0039c488bf",
          "transactionIndex": "0x0",
          "logIndex": "0x44",
          "removed": false
        },
        {
          "address": "0xdec0000000000000000000000000000000000000",
          "topics": [
            "0x16c08f8f2c17b3c8879b3e3cf5efdbdcdfdbd0fcb3890f9d3086f470cd601ddd",
            "0x0000000000000000000000000000000000000000000000000000000000000005",
            "0x0000000000000000000000008d8290d49e88d16d81c6adf6c8774ed88762274a",
            "0x000000000000000000000000000000008c3930dca540bb9b3a5d0ee78fca9a4c"
          ],
          "data": "0x00000000000000000000000000000000000000000000000000000000000062440000000000000000000000000000000000000000000000000000000000000001",
          "blockHash": "0xe6bc7d566081dde5c4a82415fe9b9226d709ec04b2fbff43e161612ccf7a8271",
          "blockNumber": "0x834054",
          "blockTimestamp": "0x69afcc9b",
          "transactionHash": "0x9081c1b44e9a8cc81648e242ede9868eb3c19e083546642332804d0039c488bf",
          "transactionIndex": "0x0",
          "logIndex": "0x45",
          "removed": false
        },
        {
          "address": "0x20c0000000000000000000003554d28269e0f3c2",
          "topics": [
            "0xddf252ad1be2c89b69c2b068fc378daa952ba7f163c4a11628f55a4df523b3ef",
            "0x000000000000000000000000000000008c3930dca540bb9b3a5d0ee78fca9a4c",
            "0x000000000000000000000000dec0000000000000000000000000000000000000"
          ],
          "data": "0x0000000000000000000000000000000000000000000000000000000000006244",
          "blockHash": "0xe6bc7d566081dde5c4a82415fe9b9226d709ec04b2fbff43e161612ccf7a8271",
          "blockNumber": "0x834054",
          "blockTimestamp": "0x69afcc9b",
          "transactionHash": "0x9081c1b44e9a8cc81648e242ede9868eb3c19e083546642332804d0039c488bf",
          "transactionIndex": "0x0",
          "logIndex": "0x46",
          "removed": false
        },
        {
          "address": "0x20c0000000000000000000000000000000000000",
          "topics": [
            "0xddf252ad1be2c89b69c2b068fc378daa952ba7f163c4a11628f55a4df523b3ef",
            "0x000000000000000000000000dec0000000000000000000000000000000000000",
            "0x000000000000000000000000000000008c3930dca540bb9b3a5d0ee78fca9a4c"
          ],
          "data": "0x0000000000000000000000000000000000000000000000000000000000006244",
          "blockHash": "0xe6bc7d566081dde5c4a82415fe9b9226d709ec04b2fbff43e161612ccf7a8271",
          "blockNumber": "0x834054",
          "blockTimestamp": "0x69afcc9b",
          "transactionHash": "0x9081c1b44e9a8cc81648e242ede9868eb3c19e083546642332804d0039c488bf",
          "transactionIndex": "0x0",
          "logIndex": "0x47",
          "removed": false
        },
        {
          "address": "0x20c0000000000000000000000000000000000000",
          "topics": [
            "0x8c5be1e5ebec7d5bd14f71427d1e84f3dd0314c0f7b2291e5b200ac8c7c3b925",
            "0x000000000000000000000000000000008c3930dca540bb9b3a5d0ee78fca9a4c",
            "0x0000000000000000000000000ceb237e109ee22374a567c6b09f373c73fa4cbb"
          ],
          "data": "0x0000000000000000000000000000000000000000000000000000000000006244",
          "blockHash": "0xe6bc7d566081dde5c4a82415fe9b9226d709ec04b2fbff43e161612ccf7a8271",
          "blockNumber": "0x834054",
          "blockTimestamp": "0x69afcc9b",
          "transactionHash": "0x9081c1b44e9a8cc81648e242ede9868eb3c19e083546642332804d0039c488bf",
          "transactionIndex": "0x0",
          "logIndex": "0x48",
          "removed": false
        },
        {
          "address": "0x20c0000000000000000000000000000000000000",
          "topics": [
            "0xddf252ad1be2c89b69c2b068fc378daa952ba7f163c4a11628f55a4df523b3ef",
            "0x000000000000000000000000000000008c3930dca540bb9b3a5d0ee78fca9a4c",
            "0x0000000000000000000000000ceb237e109ee22374a567c6b09f373c73fa4cbb"
          ],
          "data": "0x0000000000000000000000000000000000000000000000000000000000006244",
          "blockHash": "0xe6bc7d566081dde5c4a82415fe9b9226d709ec04b2fbff43e161612ccf7a8271",
          "blockNumber": "0x834054",
          "blockTimestamp": "0x69afcc9b",
          "transactionHash": "0x9081c1b44e9a8cc81648e242ede9868eb3c19e083546642332804d0039c488bf",
          "transactionIndex": "0x0",
          "logIndex": "0x49",
          "removed": false
        },
        {
          "address": "0x0ceb237e109ee22374a567c6b09f373c73fa4cbb",
          "topics": [
            "0xddf252ad1be2c89b69c2b068fc378daa952ba7f163c4a11628f55a4df523b3ef",
            "0x0000000000000000000000000000000000000000000000000000000000000000",
            "0x00000000000000000000000020bb7c2e2f4e5ca2b4c57060d1ae2615245dcc9c"
          ],
          "data": "0x0000000000000000000000000000000000000000000000000000000000006244",
          "blockHash": "0xe6bc7d566081dde5c4a82415fe9b9226d709ec04b2fbff43e161612ccf7a8271",
          "blockNumber": "0x834054",
          "blockTimestamp": "0x69afcc9b",
          "transactionHash": "0x9081c1b44e9a8cc81648e242ede9868eb3c19e083546642332804d0039c488bf",
          "transactionIndex": "0x0",
          "logIndex": "0x4a",
          "removed": false
        },
        {
          "address": "0x0ceb237e109ee22374a567c6b09f373c73fa4cbb",
          "topics": [
            "0x8ed59ebee7004468a5666f7566d43343b5917817e35765800064b665b66d070f",
            "0x00000000000000000000000020c0000000000000000000000000000000000000",
            "0x000000000000000000000000000000008c3930dca540bb9b3a5d0ee78fca9a4c",
            "0x00000000000000000000000020bb7c2e2f4e5ca2b4c57060d1ae2615245dcc9c"
          ],
          "data": "0x0000000000000000000000000000000000000000000000000000000000006244",
          "blockHash": "0xe6bc7d566081dde5c4a82415fe9b9226d709ec04b2fbff43e161612ccf7a8271",
          "blockNumber": "0x834054",
          "blockTimestamp": "0x69afcc9b",
          "transactionHash": "0x9081c1b44e9a8cc81648e242ede9868eb3c19e083546642332804d0039c488bf",
          "transactionIndex": "0x0",
          "logIndex": "0x4b",
          "removed": false
        },
        {
          "address": "0x572863d9247e52026e0892d9cd2e519b41edb73c",
          "topics": [
            "0x61ed099e74a97a1d7f8bb0952a88ca8b7b8ebd00c126ea04671f92a81213318a"
          ],
          "data": "0x000000000000000000000000f851abca1d0fd1df8eaba6de466a102996b7d7b20000000000000000000000000000000000000000000000000000000000004fc0",
          "blockHash": "0xe6bc7d566081dde5c4a82415fe9b9226d709ec04b2fbff43e161612ccf7a8271",
          "blockNumber": "0x834054",
          "blockTimestamp": "0x69afcc9b",
          "transactionHash": "0x9081c1b44e9a8cc81648e242ede9868eb3c19e083546642332804d0039c488bf",
          "transactionIndex": "0x0",
          "logIndex": "0x4c",
          "removed": false
        },
        {
          "address": "0x572863d9247e52026e0892d9cd2e519b41edb73c",
          "topics": [
            "0x07ea52d82345d6e838192107d8fd7123d9c2ec8e916cd0aad13fd2b60db24644"
          ],
          "data": "0x000000000000000000000000000000000000000000000000000000000000006000000000000000000000000000000000000000000000000000000000000000e00000000000000000000000000000000000000000000000000000000000000100000000000000000000000000000000000000000000000000000000000000000300000000000000000000000076faff60799021b301b45dc1bbede53f261f996100000000000000000000000097faa2a9c9bf8b4082b175a5b894ce6bac6697a8000000000000000000000000f5771acc42f3321d7193748fa0f656470bf737f200000000000000000000000000000000000000000000000000000000000000000000000000000000000000000000000000000000000000000000000000000003000000000000000000000000000000000000000000000000000000000000062c000000000000000000000000000000000000000000000000000000000000062c000000000000000000000000000000000000000000000000000000000000062c",
          "blockHash": "0xe6bc7d566081dde5c4a82415fe9b9226d709ec04b2fbff43e161612ccf7a8271",
          "blockNumber": "0x834054",
          "blockTimestamp": "0x69afcc9b",
          "transactionHash": "0x9081c1b44e9a8cc81648e242ede9868eb3c19e083546642332804d0039c488bf",
          "transactionIndex": "0x0",
          "logIndex": "0x4d",
          "removed": false
        },
        {
          "address": "0x20bb7c2e2f4e5ca2b4c57060d1ae2615245dcc9c",
          "topics": [
            "0x1ab700d4ced0c005b164c0f789fd09fcbb0156d4c2041b8a3bfbcd961cd1567f"
          ],
          "data": "0x00000000000000000000000000000000000000000000000000000000000000600000000000000000000000000000000000000000000000000000000000000120000000000000000000000000572863d9247e52026e0892d9cd2e519b41edb73c0000000000000000000000000000000000000000000000000000000000000099010000000000000002000076ca000000000000000000000000000000008c3930dca540bb9b3a5d0ee78fca9a4c0000762f0000000000000000000000009abfe1f8a999b0011ecd6116649aee8d575f5604e54454353fe4dfb64cd3e7d6478d038b30bb18790482e642ba999be815dfdaf8000000000000000000000000741f0d8bde14140f62107fc60a0ee122b37d4630000000000000006400000000000000000000000000000000000000000000000000000000000000000000000000001600030100110100000000000000000000000000030d4000000000000000000000",
          "blockHash": "0xe6bc7d566081dde5c4a82415fe9b9226d709ec04b2fbff43e161612ccf7a8271",
          "blockNumber": "0x834054",
          "blockTimestamp": "0x69afcc9b",
          "transactionHash": "0x9081c1b44e9a8cc81648e242ede9868eb3c19e083546642332804d0039c488bf",
          "transactionIndex": "0x0",
          "logIndex": "0x4e",
          "removed": false
        },
        {
          "address": "0x0ceb237e109ee22374a567c6b09f373c73fa4cbb",
          "topics": [
            "0xddf252ad1be2c89b69c2b068fc378daa952ba7f163c4a11628f55a4df523b3ef",
            "0x00000000000000000000000020bb7c2e2f4e5ca2b4c57060d1ae2615245dcc9c",
            "0x000000000000000000000000572863d9247e52026e0892d9cd2e519b41edb73c"
          ],
          "data": "0x0000000000000000000000000000000000000000000000000000000000006244",
          "blockHash": "0xe6bc7d566081dde5c4a82415fe9b9226d709ec04b2fbff43e161612ccf7a8271",
          "blockNumber": "0x834054",
          "blockTimestamp": "0x69afcc9b",
          "transactionHash": "0x9081c1b44e9a8cc81648e242ede9868eb3c19e083546642332804d0039c488bf",
          "transactionIndex": "0x0",
          "logIndex": "0x4f",
          "removed": false
        },
        {
          "address": "0x000000008c3930dca540bb9b3a5d0ee78fca9a4c",
          "topics": [
            "0x85496b760a4b7f8d66384b9df21b381f5d1b1e79f229a47aaf4c232edc2fe59a",
            "0xe54454353fe4dfb64cd3e7d6478d038b30bb18790482e642ba999be815dfdaf8",
            "0x000000000000000000000000741f0d8bde14140f62107fc60a0ee122b37d4630"
          ],
          "data": "0x000000000000000000000000000000000000000000000000000000000000762f00000000000000000000000000000000000000000000000000005af3107a400000000000000000000000000000000000000000000000000000005af3107a4000",
          "blockHash": "0xe6bc7d566081dde5c4a82415fe9b9226d709ec04b2fbff43e161612ccf7a8271",
          "blockNumber": "0x834054",
          "blockTimestamp": "0x69afcc9b",
          "transactionHash": "0x9081c1b44e9a8cc81648e242ede9868eb3c19e083546642332804d0039c488bf",
          "transactionIndex": "0x0",
          "logIndex": "0x50",
          "removed": false
        },
        {
          "address": "0x00000000bc4aef4ba6363a437455cb1af19e2aeb",
          "topics": [
            "0xddf252ad1be2c89b69c2b068fc378daa952ba7f163c4a11628f55a4df523b3ef",
            "0x000000000000000000000000741f0d8bde14140f62107fc60a0ee122b37d4630",
            "0x0000000000000000000000000000000000000000000000000000000000000000"
          ],
          "data": "0x00000000000000000000000000000000000000000000000000005af3107a4000",
          "blockHash": "0xe6bc7d566081dde5c4a82415fe9b9226d709ec04b2fbff43e161612ccf7a8271",
          "blockNumber": "0x834054",
          "blockTimestamp": "0x69afcc9b",
          "transactionHash": "0x9081c1b44e9a8cc81648e242ede9868eb3c19e083546642332804d0039c488bf",
          "transactionIndex": "0x0",
          "logIndex": "0x51",
          "removed": false
        },
        {
          "address": "0x20c0000000000000000000003554d28269e0f3c2",
          "topics": [
            "0xddf252ad1be2c89b69c2b068fc378daa952ba7f163c4a11628f55a4df523b3ef",
            "0x000000000000000000000000741f0d8bde14140f62107fc60a0ee122b37d4630",
            "0x00000000000000000000000000000000bc4aef4ba6363a437455cb1af19e2aeb"
          ],
          "data": "0x0000000000000000000000000000000000000000000000000000000000006244",
          "blockHash": "0xe6bc7d566081dde5c4a82415fe9b9226d709ec04b2fbff43e161612ccf7a8271",
          "blockNumber": "0x834054",
          "blockTimestamp": "0x69afcc9b",
          "transactionHash": "0x9081c1b44e9a8cc81648e242ede9868eb3c19e083546642332804d0039c488bf",
          "transactionIndex": "0x0",
          "logIndex": "0x52",
          "removed": false
        },
        {
          "address": "0x20c0000000000000000000003554d28269e0f3c2",
          "topics": [
            "0x8c5be1e5ebec7d5bd14f71427d1e84f3dd0314c0f7b2291e5b200ac8c7c3b925",
            "0x00000000000000000000000000000000bc4aef4ba6363a437455cb1af19e2aeb",
            "0x000000000000000000000000dec0000000000000000000000000000000000000"
          ],
          "data": "0x0000000000000000000000000000000000000000000000000000000000006244",
          "blockHash": "0xe6bc7d566081dde5c4a82415fe9b9226d709ec04b2fbff43e161612ccf7a8271",
          "blockNumber": "0x834054",
          "blockTimestamp": "0x69afcc9b",
          "transactionHash": "0x9081c1b44e9a8cc81648e242ede9868eb3c19e083546642332804d0039c488bf",
          "transactionIndex": "0x0",
          "logIndex": "0x53",
          "removed": false
        },
        {
          "address": "0xdec0000000000000000000000000000000000000",
          "topics": [
            "0x16c08f8f2c17b3c8879b3e3cf5efdbdcdfdbd0fcb3890f9d3086f470cd601ddd",
            "0x0000000000000000000000000000000000000000000000000000000000000005",
            "0x0000000000000000000000008d8290d49e88d16d81c6adf6c8774ed88762274a",
            "0x00000000000000000000000000000000bc4aef4ba6363a437455cb1af19e2aeb"
          ],
          "data": "0x00000000000000000000000000000000000000000000000000000000000062440000000000000000000000000000000000000000000000000000000000000001",
          "blockHash": "0xe6bc7d566081dde5c4a82415fe9b9226d709ec04b2fbff43e161612ccf7a8271",
          "blockNumber": "0x834054",
          "blockTimestamp": "0x69afcc9b",
          "transactionHash": "0x9081c1b44e9a8cc81648e242ede9868eb3c19e083546642332804d0039c488bf",
          "transactionIndex": "0x0",
          "logIndex": "0x54",
          "removed": false
        },
        {
          "address": "0x20c0000000000000000000003554d28269e0f3c2",
          "topics": [
            "0xddf252ad1be2c89b69c2b068fc378daa952ba7f163c4a11628f55a4df523b3ef",
            "0x00000000000000000000000000000000bc4aef4ba6363a437455cb1af19e2aeb",
            "0x000000000000000000000000dec0000000000000000000000000000000000000"
          ],
          "data": "0x0000000000000000000000000000000000000000000000000000000000006244",
          "blockHash": "0xe6bc7d566081dde5c4a82415fe9b9226d709ec04b2fbff43e161612ccf7a8271",
          "blockNumber": "0x834054",
          "blockTimestamp": "0x69afcc9b",
          "transactionHash": "0x9081c1b44e9a8cc81648e242ede9868eb3c19e083546642332804d0039c488bf",
          "transactionIndex": "0x0",
          "logIndex": "0x55",
          "removed": false
        },
        {
          "address": "0x20c0000000000000000000000000000000000000",
          "topics": [
            "0xddf252ad1be2c89b69c2b068fc378daa952ba7f163c4a11628f55a4df523b3ef",
            "0x000000000000000000000000dec0000000000000000000000000000000000000",
            "0x00000000000000000000000000000000bc4aef4ba6363a437455cb1af19e2aeb"
          ],
          "data": "0x0000000000000000000000000000000000000000000000000000000000006244",
          "blockHash": "0xe6bc7d566081dde5c4a82415fe9b9226d709ec04b2fbff43e161612ccf7a8271",
          "blockNumber": "0x834054",
          "blockTimestamp": "0x69afcc9b",
          "transactionHash": "0x9081c1b44e9a8cc81648e242ede9868eb3c19e083546642332804d0039c488bf",
          "transactionIndex": "0x0",
          "logIndex": "0x56",
          "removed": false
        },
        {
          "address": "0x20c0000000000000000000000000000000000000",
          "topics": [
            "0x8c5be1e5ebec7d5bd14f71427d1e84f3dd0314c0f7b2291e5b200ac8c7c3b925",
            "0x00000000000000000000000000000000bc4aef4ba6363a437455cb1af19e2aeb",
            "0x0000000000000000000000000ceb237e109ee22374a567c6b09f373c73fa4cbb"
          ],
          "data": "0x0000000000000000000000000000000000000000000000000000000000006244",
          "blockHash": "0xe6bc7d566081dde5c4a82415fe9b9226d709ec04b2fbff43e161612ccf7a8271",
          "blockNumber": "0x834054",
          "blockTimestamp": "0x69afcc9b",
          "transactionHash": "0x9081c1b44e9a8cc81648e242ede9868eb3c19e083546642332804d0039c488bf",
          "transactionIndex": "0x0",
          "logIndex": "0x57",
          "removed": false
        },
        {
          "address": "0x20c0000000000000000000000000000000000000",
          "topics": [
            "0xddf252ad1be2c89b69c2b068fc378daa952ba7f163c4a11628f55a4df523b3ef",
            "0x00000000000000000000000000000000bc4aef4ba6363a437455cb1af19e2aeb",
            "0x0000000000000000000000000ceb237e109ee22374a567c6b09f373c73fa4cbb"
          ],
          "data": "0x0000000000000000000000000000000000000000000000000000000000006244",
          "blockHash": "0xe6bc7d566081dde5c4a82415fe9b9226d709ec04b2fbff43e161612ccf7a8271",
          "blockNumber": "0x834054",
          "blockTimestamp": "0x69afcc9b",
          "transactionHash": "0x9081c1b44e9a8cc81648e242ede9868eb3c19e083546642332804d0039c488bf",
          "transactionIndex": "0x0",
          "logIndex": "0x58",
          "removed": false
        },
        {
          "address": "0x0ceb237e109ee22374a567c6b09f373c73fa4cbb",
          "topics": [
            "0xddf252ad1be2c89b69c2b068fc378daa952ba7f163c4a11628f55a4df523b3ef",
            "0x0000000000000000000000000000000000000000000000000000000000000000",
            "0x00000000000000000000000020bb7c2e2f4e5ca2b4c57060d1ae2615245dcc9c"
          ],
          "data": "0x0000000000000000000000000000000000000000000000000000000000006244",
          "blockHash": "0xe6bc7d566081dde5c4a82415fe9b9226d709ec04b2fbff43e161612ccf7a8271",
          "blockNumber": "0x834054",
          "blockTimestamp": "0x69afcc9b",
          "transactionHash": "0x9081c1b44e9a8cc81648e242ede9868eb3c19e083546642332804d0039c488bf",
          "transactionIndex": "0x0",
          "logIndex": "0x59",
          "removed": false
        },
        {
          "address": "0x0ceb237e109ee22374a567c6b09f373c73fa4cbb",
          "topics": [
            "0x8ed59ebee7004468a5666f7566d43343b5917817e35765800064b665b66d070f",
            "0x00000000000000000000000020c0000000000000000000000000000000000000",
            "0x00000000000000000000000000000000bc4aef4ba6363a437455cb1af19e2aeb",
            "0x00000000000000000000000020bb7c2e2f4e5ca2b4c57060d1ae2615245dcc9c"
          ],
          "data": "0x0000000000000000000000000000000000000000000000000000000000006244",
          "blockHash": "0xe6bc7d566081dde5c4a82415fe9b9226d709ec04b2fbff43e161612ccf7a8271",
          "blockNumber": "0x834054",
          "blockTimestamp": "0x69afcc9b",
          "transactionHash": "0x9081c1b44e9a8cc81648e242ede9868eb3c19e083546642332804d0039c488bf",
          "transactionIndex": "0x0",
          "logIndex": "0x5a",
          "removed": false
        },
        {
          "address": "0x572863d9247e52026e0892d9cd2e519b41edb73c",
          "topics": [
            "0x61ed099e74a97a1d7f8bb0952a88ca8b7b8ebd00c126ea04671f92a81213318a"
          ],
          "data": "0x000000000000000000000000f851abca1d0fd1df8eaba6de466a102996b7d7b20000000000000000000000000000000000000000000000000000000000004fc0",
          "blockHash": "0xe6bc7d566081dde5c4a82415fe9b9226d709ec04b2fbff43e161612ccf7a8271",
          "blockNumber": "0x834054",
          "blockTimestamp": "0x69afcc9b",
          "transactionHash": "0x9081c1b44e9a8cc81648e242ede9868eb3c19e083546642332804d0039c488bf",
          "transactionIndex": "0x0",
          "logIndex": "0x5b",
          "removed": false
        },
        {
          "address": "0x572863d9247e52026e0892d9cd2e519b41edb73c",
          "topics": [
            "0x07ea52d82345d6e838192107d8fd7123d9c2ec8e916cd0aad13fd2b60db24644"
          ],
          "data": "0x000000000000000000000000000000000000000000000000000000000000006000000000000000000000000000000000000000000000000000000000000000e00000000000000000000000000000000000000000000000000000000000000100000000000000000000000000000000000000000000000000000000000000000300000000000000000000000076faff60799021b301b45dc1bbede53f261f996100000000000000000000000097faa2a9c9bf8b4082b175a5b894ce6bac6697a8000000000000000000000000f5771acc42f3321d7193748fa0f656470bf737f200000000000000000000000000000000000000000000000000000000000000000000000000000000000000000000000000000000000000000000000000000003000000000000000000000000000000000000000000000000000000000000062c000000000000000000000000000000000000000000000000000000000000062c000000000000000000000000000000000000000000000000000000000000062c",
          "blockHash": "0xe6bc7d566081dde5c4a82415fe9b9226d709ec04b2fbff43e161612ccf7a8271",
          "blockNumber": "0x834054",
          "blockTimestamp": "0x69afcc9b",
          "transactionHash": "0x9081c1b44e9a8cc81648e242ede9868eb3c19e083546642332804d0039c488bf",
          "transactionIndex": "0x0",
          "logIndex": "0x5c",
          "removed": false
        },
        {
          "address": "0x20bb7c2e2f4e5ca2b4c57060d1ae2615245dcc9c",
          "topics": [
            "0x1ab700d4ced0c005b164c0f789fd09fcbb0156d4c2041b8a3bfbcd961cd1567f"
          ],
          "data": "0x00000000000000000000000000000000000000000000000000000000000000600000000000000000000000000000000000000000000000000000000000000120000000000000000000000000572863d9247e52026e0892d9cd2e519b41edb73c0000000000000000000000000000000000000000000000000000000000000099010000000000000002000076ca00000000000000000000000000000000bc4aef4ba6363a437455cb1af19e2aeb0000762f00000000000000000000000075c38d46001b0f8108c4136216bd2694982c20fc8712888db329a14aeb45c8325ad78a5d0dba9e9170fe7ae8012afe65c53ef134000000000000000000000000741f0d8bde14140f62107fc60a0ee122b37d4630000000000000006400000000000000000000000000000000000000000000000000000000000000000000000000001600030100110100000000000000000000000000030d4000000000000000000000",
          "blockHash": "0xe6bc7d566081dde5c4a82415fe9b9226d709ec04b2fbff43e161612ccf7a8271",
          "blockNumber": "0x834054",
          "blockTimestamp": "0x69afcc9b",
          "transactionHash": "0x9081c1b44e9a8cc81648e242ede9868eb3c19e083546642332804d0039c488bf",
          "transactionIndex": "0x0",
          "logIndex": "0x5d",
          "removed": false
        },
        {
          "address": "0x0ceb237e109ee22374a567c6b09f373c73fa4cbb",
          "topics": [
            "0xddf252ad1be2c89b69c2b068fc378daa952ba7f163c4a11628f55a4df523b3ef",
            "0x00000000000000000000000020bb7c2e2f4e5ca2b4c57060d1ae2615245dcc9c",
            "0x000000000000000000000000572863d9247e52026e0892d9cd2e519b41edb73c"
          ],
          "data": "0x0000000000000000000000000000000000000000000000000000000000006244",
          "blockHash": "0xe6bc7d566081dde5c4a82415fe9b9226d709ec04b2fbff43e161612ccf7a8271",
          "blockNumber": "0x834054",
          "blockTimestamp": "0x69afcc9b",
          "transactionHash": "0x9081c1b44e9a8cc81648e242ede9868eb3c19e083546642332804d0039c488bf",
          "transactionIndex": "0x0",
          "logIndex": "0x5e",
          "removed": false
        },
        {
          "address": "0x00000000bc4aef4ba6363a437455cb1af19e2aeb",
          "topics": [
            "0x85496b760a4b7f8d66384b9df21b381f5d1b1e79f229a47aaf4c232edc2fe59a",
            "0x8712888db329a14aeb45c8325ad78a5d0dba9e9170fe7ae8012afe65c53ef134",
            "0x000000000000000000000000741f0d8bde14140f62107fc60a0ee122b37d4630"
          ],
          "data": "0x000000000000000000000000000000000000000000000000000000000000762f00000000000000000000000000000000000000000000000000005af3107a400000000000000000000000000000000000000000000000000000005af3107a4000",
          "blockHash": "0xe6bc7d566081dde5c4a82415fe9b9226d709ec04b2fbff43e161612ccf7a8271",
          "blockNumber": "0x834054",
          "blockTimestamp": "0x69afcc9b",
          "transactionHash": "0x9081c1b44e9a8cc81648e242ede9868eb3c19e083546642332804d0039c488bf",
          "transactionIndex": "0x0",
          "logIndex": "0x5f",
          "removed": false
        },
        {
          "address": "0x20c0000000000000000000003554d28269e0f3c2",
          "topics": [
            "0xddf252ad1be2c89b69c2b068fc378daa952ba7f163c4a11628f55a4df523b3ef",
            "0x00000000000000000000000045dce8e4f2dc005a5f28206a46cb034697eeda8e",
            "0x000000000000000000000000feec000000000000000000000000000000000000"
          ],
          "data": "0x00000000000000000000000000000000000000000000000000000000000334e6",
          "blockHash": "0xe6bc7d566081dde5c4a82415fe9b9226d709ec04b2fbff43e161612ccf7a8271",
          "blockNumber": "0x834054",
          "blockTimestamp": "0x69afcc9b",
          "transactionHash": "0x9081c1b44e9a8cc81648e242ede9868eb3c19e083546642332804d0039c488bf",
          "transactionIndex": "0x0",
          "logIndex": "0x60",
          "removed": false
        }
      ],
      "logsBloom": "0x0002102000000000002002020000004000000440002100101202020020000000000004002848000080000084010002000000010000000202024000400020001000001600000020000808000900100000104000002000400000000200041000000000000402000400c080000000000800080004000000100000000011118820000020000000400800002002080020001800004888800100200000000002b000000200200080808411001000000004001000008000004000000004c0040000100000000012000008040100200084080008001100002880000801000000010020020010040000041000080100000000822002104800008800010001008020200000",
      "transactionHash": "0x9081c1b44e9a8cc81648e242ede9868eb3c19e083546642332804d0039c488bf",
      "transactionIndex": "0x0",
      "blockHash": "0xe6bc7d566081dde5c4a82415fe9b9226d709ec04b2fbff43e161612ccf7a8271",
      "blockNumber": "0x834054",
      "gasUsed": "0xa054ba",
      "effectiveGasPrice": "0x4a817c801",
      "from": "0x45dce8e4f2dc005a5f28206a46cb034697eeda8e",
      "to": "0x741f0d8bde14140f62107fc60a0ee122b37d4630",
      "contractAddress": null,
      "feeToken": "0x20c0000000000000000000003554d28269e0f3c2",
      "feePayer": "0x45dce8e4f2dc005a5f28206a46cb034697eeda8e"
    }
  ],
  "libraries": [],
  "pending": [],
  "returns": {},
  "timestamp": 1773128861835,
  "chain": 4217,
  "commit": "abf8802"
}