{
  "transactions": [
    {
      "hash": "0x1b0ae41f3429f4ebe9e4996f9abd85bcfc004c6eb70d06be5fbd95ce8cc98f97",
      "transactionType": "CALL",
      "contractName": null,
      "contractAddress": "0x741f0d8bde14140f62107fc60a0ee122b37d4630",
      "function": "approveToken(address,address,uint256)",
      "arguments": [
        "0x20C0000000000000000000003554d28269E0f3c2",
        "0x00000000E9CE0f293D1Ce552768b187eBA8a56D4",
        "115792089237316195423570985008687907853269984665640564039457584007913129639935"
      ],
      "transaction": {
        "from": "0x45dce8e4f2dc005a5f28206a46cb034697eeda8e",
        "to": "0x741f0d8bde14140f62107fc60a0ee122b37d4630",
        "gas": "0x90cf",
        "value": "0x0",
        "input": "0xda3e339700000000000000000000000020c0000000000000000000003554d28269e0f3c200000000000000000000000000000000e9ce0f293d1ce552768b187eba8a56d4ffffffffffffffffffffffffffffffffffffffffffffffffffffffffffffffff",
        "nonce": "0xf0",
        "chainId": "0x1079",
        "feeToken": null,
        "calls": [],
        "keyType": null,
        "keyData": null
      },
      "additionalContracts": [],
      "isFixedGasLimit": false
    },
    {
      "hash": "0x5453827c6946e40c87a244bf15b9f4331bf38fce7ced2695db8a9dd4f45fbe89",
      "transactionType": "CALL",
      "contractName": null,
      "contractAddress": "0x741f0d8bde14140f62107fc60a0ee122b37d4630",
      "function": "approveToken(address,address,uint256)",
      "arguments": [
        "0x20C0000000000000000000003554d28269E0f3c2",
        "0x00000000fD8C4B8A413A06821456801295921a71",
        "115792089237316195423570985008687907853269984665640564039457584007913129639935"
      ],
      "transaction": {
        "from": "0x45dce8e4f2dc005a5f28206a46cb034697eeda8e",
        "to": "0x741f0d8bde14140f62107fc60a0ee122b37d4630",
        "gas": "0x90cf",
        "value": "0x0",
        "input": "0xda3e339700000000000000000000000020c0000000000000000000003554d28269e0f3c200000000000000000000000000000000fd8c4b8a413a06821456801295921a71ffffffffffffffffffffffffffffffffffffffffffffffffffffffffffffffff",
        "nonce": "0xf1",
        "chainId": "0x1079",
        "feeToken": null,
        "calls": [],
        "keyType": null,
        "keyData": null
      },
      "additionalContracts": [],
      "isFixedGasLimit": false
    },
    {
      "hash": "0x491a7861a0763d61a811688b20804dfdf1f117606a3b6f09d658cd9aa277998c",
      "transactionType": "CALL",
      "contractName": null,
      "contractAddress": "0x741f0d8bde14140f62107fc60a0ee122b37d4630",
      "function": "approveToken(address,address,uint256)",
      "arguments": [
        "0x20C0000000000000000000003554d28269E0f3c2",
        "0x00000000883279097A49dB1f2af954EAd0C77E3c",
        "115792089237316195423570985008687907853269984665640564039457584007913129639935"
      ],
      "transaction": {
        "from": "0x45dce8e4f2dc005a5f28206a46cb034697eeda8e",
        "to": "0x741f0d8bde14140f62107fc60a0ee122b37d4630",
        "gas": "0x90cf",
        "value": "0x0",
        "input": "0xda3e339700000000000000000000000020c0000000000000000000003554d28269e0f3c200000000000000000000000000000000883279097a49db1f2af954ead0c77e3cffffffffffffffffffffffffffffffffffffffffffffffffffffffffffffffff",
        "nonce": "0xf2",
        "chainId": "0x1079",
        "feeToken": null,
        "calls": [],
        "keyType": null,
        "keyData": null
      },
      "additionalContracts": [],
      "isFixedGasLimit": false
    },
    {
      "hash": "0x4b20fbfa7ac1188fb8ce159565f962c1b00b85755d0804f229c3ff02ffff6450",
      "transactionType": "CALL",
      "contractName": null,
      "contractAddress": "0x741f0d8bde14140f62107fc60a0ee122b37d4630",
      "function": "approveToken(address,address,uint256)",
      "arguments": [
        "0x20C0000000000000000000003554d28269E0f3c2",
        "0x00000000D61733e7A393A10A5B48c311AbE8f1E5",
        "115792089237316195423570985008687907853269984665640564039457584007913129639935"
      ],
      "transaction": {
        "from": "0x45dce8e4f2dc005a5f28206a46cb034697eeda8e",
        "to": "0x741f0d8bde14140f62107fc60a0ee122b37d4630",
        "gas": "0x90cf",
        "value": "0x0",
        "input": "0xda3e339700000000000000000000000020c0000000000000000000003554d28269e0f3c200000000000000000000000000000000d61733e7a393a10a5b48c311abe8f1e5ffffffffffffffffffffffffffffffffffffffffffffffffffffffffffffffff",
        "nonce": "0xf3",
        "chainId": "0x1079",
        "feeToken": null,
        "calls": [],
        "keyType": null,
        "keyData": null
      },
      "additionalContracts": [],
      "isFixedGasLimit": false
    },
    {
      "hash": "0x85ba371a2bc30f0ec59eb46cd0ce52c1d8898c2597d761c84ef8dce4685a3ef4",
      "transactionType": "CALL",
      "contractName": null,
      "contractAddress": "0x741f0d8bde14140f62107fc60a0ee122b37d4630",
      "function": "approveToken(address,address,uint256)",
      "arguments": [
        "0x20C0000000000000000000003554d28269E0f3c2",
        "0x000000008c3930dCA540bB9B3A5D0ee78FcA9A4c",
        "115792089237316195423570985008687907853269984665640564039457584007913129639935"
      ],
      "transaction": {
        "from": "0x45dce8e4f2dc005a5f28206a46cb034697eeda8e",
        "to": "0x741f0d8bde14140f62107fc60a0ee122b37d4630",
        "gas": "0x90cf",
        "value": "0x0",
        "input": "0xda3e339700000000000000000000000020c0000000000000000000003554d28269e0f3c2000000000000000000000000000000008c3930dca540bb9b3a5d0ee78fca9a4cffffffffffffffffffffffffffffffffffffffffffffffffffffffffffffffff",
        "nonce": "0xf4",
        "chainId": "0x1079",
        "feeToken": null,
        "calls": [],
        "keyType": null,
        "keyData": null
      },
      "additionalContracts": [],
      "isFixedGasLimit": false
    },
    {
      "hash": "0x0efd967394397a20291257cee9630346b41e40419fbe177b02d7260b7bccd7df",
      "transactionType": "CALL",
      "contractName": null,
      "contractAddress": "0x741f0d8bde14140f62107fc60a0ee122b37d4630",
      "function": "approveToken(address,address,uint256)",
      "arguments": [
        "0x20C0000000000000000000003554d28269E0f3c2",
        "0x00000000bC4aEF4bA6363a437455Cb1af19e2aEb",
        "115792089237316195423570985008687907853269984665640564039457584007913129639935"
      ],
      "transaction": {
        "from": "0x45dce8e4f2dc005a5f28206a46cb034697eeda8e",
        "to": "0x741f0d8bde14140f62107fc60a0ee122b37d4630",
        "gas": "0x90cf",
        "value": "0x0",
        "input": "0xda3e339700000000000000000000000020c0000000000000000000003554d28269e0f3c200000000000000000000000000000000bc4aef4ba6363a437455cb1af19e2aebffffffffffffffffffffffffffffffffffffffffffffffffffffffffffffffff",
        "nonce": "0xf5",
        "chainId": "0x1079",
        "feeToken": null,
        "calls": [],
        "keyType": null,
        "keyData": null
      },
      "additionalContracts": [],
      "isFixedGasLimit": false
    },
    {
      "hash": "0xeced437a6d5337f8e47f3c048091ef45aa560d169ca2b6f5f20cbfcb9647de9f",
      "transactionType": "CALL",
      "contractName": null,
      "contractAddress": "0xfeec000000000000000000000000000000000000",
      "function": "setUserToken(address)",
      "arguments": [
        "0x20C0000000000000000000003554d28269E0f3c2"
      ],
      "transaction": {
        "from": "0x45dce8e4f2dc005a5f28206a46cb034697eeda8e",
        "to": "0xfeec000000000000000000000000000000000000",
        "gas": "0x6bb1",
        "value": "0x0",
        "input": "0xe789744400000000000000000000000020c0000000000000000000003554d28269e0f3c2",
        "nonce": "0xf6",
        "chainId": "0x1079",
        "feeToken": null,
        "calls": [],
        "keyType": null,
        "keyData": null
      },
      "additionalContracts": [],
      "isFixedGasLimit": false
    },
    {
      "hash": "0xfb662d11d6262be0311d06f9b7aa370aa0fee3314bf6506761790cf191cc7dac",
      "transactionType": "CALL",
      "contractName": null,
      "contractAddress": "0x20c0000000000000000000003554d28269e0f3c2",
      "function": "approve(address,uint256)",
      "arguments": [
        "0x741F0d8Bde14140f62107FC60A0EE122B37D4630",
        "115792089237316195423570985008687907853269984665640564039457584007913129639935"
      ],
      "transaction": {
        "from": "0x45dce8e4f2dc005a5f28206a46cb034697eeda8e",
        "to": "0x20c0000000000000000000003554d28269e0f3c2",
        "gas": "0x675d",
        "value": "0x0",
        "input": "0x095ea7b3000000000000000000000000741f0d8bde14140f62107fc60a0ee122b37d4630ffffffffffffffffffffffffffffffffffffffffffffffffffffffffffffffff",
        "nonce": "0xf7",
        "chainId": "0x1079",
        "feeToken": null,
        "calls": [],
        "keyType": null,
        "keyData": null
      },
      "additionalContracts": [],
      "isFixedGasLimit": false
    },
    {
      "hash": null,
      "transactionType": "CALL",
      "contractName": null,
      "contractAddress": "0x741f0d8bde14140f62107fc60a0ee122b37d4630",
      "function": "batchBridgeWithTIP20FeeFromWallet((uint32,bytes32,uint256,uint256,bytes,bytes,bytes)[],address[],address[])",
      "arguments": [
        "[(30255, 0x000000000000000000000000741f0d8bde14140f62107fc60a0ee122b37d4630, 100000000000000, 0, 0x, 0x, 0x), (30255, 0x000000000000000000000000741f0d8bde14140f62107fc60a0ee122b37d4630, 100000000000000, 0, 0x, 0x, 0x), (30255, 0x000000000000000000000000741f0d8bde14140f62107fc60a0ee122b37d4630, 100000000000000, 0, 0x, 0x, 0x), (30255, 0x000000000000000000000000741f0d8bde14140f62107fc60a0ee122b37d4630, 100, 0, 0x, 0x, 0x), (30255, 0x000000000000000000000000741f0d8bde14140f62107fc60a0ee122b37d4630, 100000000000000, 0, 0x, 0x, 0x), (30255, 0x000000000000000000000000741f0d8bde14140f62107fc60a0ee122b37d4630, 100000000000000, 0, 0x, 0x, 0x)]",
        "[0x00000000E9CE0f293D1Ce552768b187eBA8a56D4, 0x00000000fD8C4B8A413A06821456801295921a71, 0x00000000883279097A49dB1f2af954EAd0C77E3c, 0x00000000D61733e7A393A10A5B48c311AbE8f1E5, 0x000000008c3930dCA540bB9B3A5D0ee78FcA9A4c, 0x00000000bC4aEF4bA6363a437455Cb1af19e2aEb]",
        "[0x741F0d8Bde14140f62107FC60A0EE122B37D4630, 0x741F0d8Bde14140f62107FC60A0EE122B37D4630, 0x741F0d8Bde14140f62107FC60A0EE122B37D4630, 0x741F0d8Bde14140f62107FC60A0EE122B37D4630, 0x741F0d8Bde14140f62107FC60A0EE122B37D4630, 0x741F0d8Bde14140f62107FC60A0EE122B37D4630]"
      ],
      "transaction": {
        "from": "0x45dce8e4f2dc005a5f28206a46cb034697eeda8e",
        "to": "0x741f0d8bde14140f62107fc60a0ee122b37d4630",
        "gas": "0xa85e32",
        "value": "0x0",
        "input": "0xddfe224e000000000000000000000000000000000000000000000000000000000000006000000000000000000000000000000000000000000000000000000000000008c000000000000000000000000000000000000000000000000000000000000009a0000000000000000000000000000000000000000000000000000000000000000600000000000000000000000000000000000000000000000000000000000000c000000000000000000000000000000000000000000000000000000000000002000000000000000000000000000000000000000000000000000000000000000340000000000000000000000000000000000000000000000000000000000000048000000000000000000000000000000000000000000000000000000000000005c00000000000000000000000000000000000000000000000000000000000000700000000000000000000000000000000000000000000000000000000000000762f000000000000000000000000741f0d8bde14140f62107fc60a0ee122b37d463000000000000000000000000000000000000000000000000000005af3107a4000000000000000000000000000000000000000000000000000000000000000000000000000000000000000000000000000000000000000000000000000000000e000000000000000000000000000000000000000000000000000000000000001000000000000000000000000000000000000000000000000000000000000000120000000000000000000000000000000000000000000000000000000000000000000000000000000000000000000000000000000000000000000000000000000000000000000000000000000000000000000000000000000000000000000000000000000000000000000000000000000000000000000000000000000000000762f000000000000000000000000741f0d8bde14140f62107fc60a0ee122b37d463000000000000000000000000000000000000000000000000000005af3107a4000000000000000000000000000000000000000000000000000000000000000000000000000000000000000000000000000000000000000000000000000000000e000000000000000000000000000000000000000000000000000000000000001000000000000000000000000000000000000000000000000000000000000000120000000000000000000000000000000000000000000000000000000000000000000000000000000000000000000000000000000000000000000000000000000000000000000000000000000000000000000000000000000000000000000000000000000000000000000000000000000000000000000000000000000000000762f000000000000000000000000741f0d8bde14140f62107fc60a0ee122b37d463000000000000000000000000000000000000000000000000000005af3107a4000000000000000000000000000000000000000000000000000000000000000000000000000000000000000000000000000000000000000000000000000000000e000000000000000000000000000000000000000000000000000000000000001000000000000000000000000000000000000000000000000000000000000000120000000000000000000000000000000000000000000000000000000000000000000000000000000000000000000000000000000000000000000000000000000000000000000000000000000000000000000000000000000000000000000000000000000000000000000000000000000000000000000000000000000000000762f000000000000000000000000741f0d8bde14140f62107fc60a0ee122b37d46300000000000000000000000000000000000000000000000000000000000000064000000000000000000000000000000000000000000000000000000000000000000000000000000000000000000000000000000000000000000000000000000e000000000000000000000000000000000000000000000000000000000000001000000000000000000000000000000000000000000000000000000000000000120000000000000000000000000000000000000000000000000000000000000000000000000000000000000000000000000000000000000000000000000000000000000000000000000000000000000000000000000000000000000000000000000000000000000000000000000000000000000000000000000000000000000762f000000000000000000000000741f0d8bde14140f62107fc60a0ee122b37d463000000000000000000000000000000000000000000000000000005af3107a4000000000000000000000000000000000000000000000000000000000000000000000000000000000000000000000000000000000000000000000000000000000e000000000000000000000000000000000000000000000000000000000000001000000000000000000000000000000000000000000000000000000000000000120000000000000000000000000000000000000000000000000000000000000000000000000000000000000000000000000000000000000000000000000000000000000000000000000000000000000000000000000000000000000000000000000000000000000000000000000000000000000000000000000000000000000762f000000000000000000000000741f0d8bde14140f62107fc60a0ee122b37d463000000000000000000000000000000000000000000000000000005af3107a4000000000000000000000000000000000000000000000000000000000000000000000000000000000000000000000000000000000000000000000000000000000e000000000000000000000000000000000000000000000000000000000000001000000000000000000000000000000000000000000000000000000000000000120000000000000000000000000000000000000000000000000000000000000000000000000000000000000000000000000000000000000000000000000000000000000000000000000000000000000000000000000000000000000000000000000000000000000000000000000000000000000000000000000000000000000000600000000000000000000000000000000e9ce0f293d1ce552768b187eba8a56d400000000000000000000000000000000fd8c4b8a413a06821456801295921a7100000000000000000000000000000000883279097a49db1f2af954ead0c77e3c00000000000000000000000000000000d61733e7a393a10a5b48c311abe8f1e5000000000000000000000000000000008c3930dca540bb9b3a5d0ee78fca9a4c00000000000000000000000000000000bc4aef4ba6363a437455cb1af19e2aeb0000000000000000000000000000000000000000000000000000000000000006000000000000000000000000741f0d8bde14140f62107fc60a0ee122b37d4630000000000000000000000000741f0d8bde14140f62107fc60a0ee122b37d4630000000000000000000000000741f0d8bde14140f62107fc60a0ee122b37d4630000000000000000000000000741f0d8bde14140f62107fc60a0ee122b37d4630000000000000000000000000741f0d8bde14140f62107fc60a0ee122b37d4630000000000000000000000000741f0d8bde14140f62107fc60a0ee122b37d4630",
        "nonce": "0xf8",
        "chainId": "0x1079",
        "feeToken": null,
        "calls": [],
        "keyType": null,
        "keyData": null
      },
      "additionalContracts": [],
      "isFixedGasLimit": false
    }
  ],
  "receipts": [
    {
      "type": "0x2",
      "status": "0x1",
      "cumulativeGasUsed": "0x8f63",
      "logs": [
        {
          "address": "0x20c0000000000000000000003554d28269e0f3c2",
          "topics": [
            "0x8c5be1e5ebec7d5bd14f71427d1e84f3dd0314c0f7b2291e5b200ac8c7c3b925",
            "0x000000000000000000000000741f0d8bde14140f62107fc60a0ee122b37d4630",
            "0x00000000000000000000000000000000e9ce0f293d1ce552768b187eba8a56d4"
          ],
          "data": "0xffffffffffffffffffffffffffffffffffffffffffffffffffffffffffffffff",
          "blockHash": "0xc8ea89651d0905945340a72a5d96341d25307c21652951d8bd3b10baf5888d11",
          "blockNumber": "0x833baa",
          "blockTimestamp": "0x69afca15",
          "transactionHash": "0x1b0ae41f3429f4ebe9e4996f9abd85bcfc004c6eb70d06be5fbd95ce8cc98f97",
          "transactionIndex": "0x0",
          "logIndex": "0x0",
          "removed": false
        },
        {
          "address": "0x20c0000000000000000000003554d28269e0f3c2",
          "topics": [
            "0xddf252ad1be2c89b69c2b068fc378daa952ba7f163c4a11628f55a4df523b3ef",
            "0x00000000000000000000000045dce8e4f2dc005a5f28206a46cb034697eeda8e",
            "0x000000000000000000000000feec000000000000000000000000000000000000"
          ],
          "data": "0x00000000000000000000000000000000000000000000000000000000000002df",
          "blockHash": "0xc8ea89651d0905945340a72a5d96341d25307c21652951d8bd3b10baf5888d11",
          "blockNumber": "0x833baa",
          "blockTimestamp": "0x69afca15",
          "transactionHash": "0x1b0ae41f3429f4ebe9e4996f9abd85bcfc004c6eb70d06be5fbd95ce8cc98f97",
          "transactionIndex": "0x0",
          "logIndex": "0x1",
          "removed": false
        }
      ],
      "logsBloom": "0x00000000000000000000000200000040000000000000000000000000000000000000000000000000000000000000000000000100000000000000000000200000000004000000000008000008000000000000000000000000000000000000000000000004000000000000000000000000000000000000000000000010000000000000000000000000000002000020000000000000000000000000000000000000020020000000001000000000000000000000000000000000000000000000000000000002000000040000000000000000001000000000000000000000000000000010000000000000000000000000800000000000000000010000000000200000",
      "transactionHash": "0x1b0ae41f3429f4ebe9e4996f9abd85bcfc004c6eb70d06be5fbd95ce8cc98f97",
      "transactionIndex": "0x0",
      "blockHash": "0xc8ea89651d0905945340a72a5d96341d25307c21652951d8bd3b10baf5888d11",
      "blockNumber": "0x833baa",
      "gasUsed": "0x8f63",
      "effectiveGasPrice": "0x4a817c801",
      "from": "0x45dce8e4f2dc005a5f28206a46cb034697eeda8e",
      "to": "0x741f0d8bde14140f62107fc60a0ee122b37d4630",
      "contractAddress": null,
      "feeToken": "0x20c0000000000000000000003554d28269e0f3c2",
      "feePayer": "0x45dce8e4f2dc005a5f28206a46cb034697eeda8e"
    },
    {
      "type": "0x2",
      "status": "0x1",
      "cumulativeGasUsed": "0x8f63",
      "logs": [
        {
          "address": "0x20c0000000000000000000003554d28269e0f3c2",
          "topics": [
            "0x8c5be1e5ebec7d5bd14f71427d1e84f3dd0314c0f7b2291e5b200ac8c7c3b925",
            "0x000000000000000000000000741f0d8bde14140f62107fc60a0ee122b37d4630",
            "0x00000000000000000000000000000000fd8c4b8a413a06821456801295921a71"
          ],
          "data": "0xffffffffffffffffffffffffffffffffffffffffffffffffffffffffffffffff",
          "blockHash": "0x74b19cd2e6a905444b88fa06d588c1ad9e2eabdd1f873096eba52f89cbcb540f",
          "blockNumber": "0x833bae",
          "blockTimestamp": "0x69afca17",
          "transactionHash": "0x5453827c6946e40c87a244bf15b9f4331bf38fce7ced2695db8a9dd4f45fbe89",
          "transactionIndex": "0x0",
          "logIndex": "0x0",
          "removed": false
        },
        {
          "address": "0x20c0000000000000000000003554d28269e0f3c2",
          "topics": [
            "0xddf252ad1be2c89b69c2b068fc378daa952ba7f163c4a11628f55a4df523b3ef",
            "0x00000000000000000000000045dce8e4f2dc005a5f28206a46cb034697eeda8e",
            "0x000000000000000000000000feec000000000000000000000000000000000000"
          ],
          "data": "0x00000000000000000000000000000000000000000000000000000000000002df",
          "blockHash": "0x74b19cd2e6a905444b88fa06d588c1ad9e2eabdd1f873096eba52f89cbcb540f",
          "blockNumber": "0x833bae",
          "blockTimestamp": "0x69afca17",
          "transactionHash": "0x5453827c6946e40c87a244bf15b9f4331bf38fce7ced2695db8a9dd4f45fbe89",
          "transactionIndex": "0x0",
          "logIndex": "0x1",
          "removed": false
        }
      ],
      "logsBloom": "0x00000000000000000000000200000040000000000000000000000200000000000000000000000000000000000000000000000100000000000000000000200000000004000000000000000008000000000000000000000000000000000000000000000004000000000000000000000000000000000000000000000010000000000020000000000000000000000020000000000000000000000000000000000000020020000000001000000000000000000000000000000000000000000000000000000002000000040000000000000008001000000000000000000000000000000010000000000000000000000000800000000000000000000000000000200000",
      "transactionHash": "0x5453827c6946e40c87a244bf15b9f4331bf38fce7ced2695db8a9dd4f45fbe89",
      "transactionIndex": "0x0",
      "blockHash": "0x74b19cd2e6a905444b88fa06d588c1ad9e2eabdd1f873096eba52f89cbcb540f",
      "blockNumber": "0x833bae",
      "gasUsed": "0x8f63",
      "effectiveGasPrice": "0x4a817c801",
      "from": "0x45dce8e4f2dc005a5f28206a46cb034697eeda8e",
      "to": "0x741f0d8bde14140f62107fc60a0ee122b37d4630",
      "contractAddress": null,
      "feeToken": "0x20c0000000000000000000003554d28269e0f3c2",
      "feePayer": "0x45dce8e4f2dc005a5f28206a46cb034697eeda8e"
    },
    {
      "type": "0x2",
      "status": "0x1",
      "cumulativeGasUsed": "0x8f63",
      "logs": [
        {
          "address": "0x20c0000000000000000000003554d28269e0f3c2",
          "topics": [
            "0x8c5be1e5ebec7d5bd14f71427d1e84f3dd0314c0f7b2291e5b200ac8c7c3b925",
            "0x000000000000000000000000741f0d8bde14140f62107fc60a0ee122b37d4630",
            "0x00000000000000000000000000000000883279097a49db1f2af954ead0c77e3c"
          ],
          "data": "0xffffffffffffffffffffffffffffffffffffffffffffffffffffffffffffffff",
          "blockHash": "0x4619ed46e0d5ac42d59a9edebc5bd7a1ca0c7dbdf2e35adda9e81b411d571c9a",
          "blockNumber": "0x833bb4",
          "blockTimestamp": "0x69afca1a",
          "transactionHash": "0x491a7861a0763d61a811688b20804dfdf1f117606a3b6f09d658cd9aa277998c",
          "transactionIndex": "0x0",
          "logIndex": "0x0",
          "removed": false
        },
        {
          "address": "0x20c0000000000000000000003554d28269e0f3c2",
          "topics": [
            "0xddf252ad1be2c89b69c2b068fc378daa952ba7f163c4a11628f55a4df523b3ef",
            "0x00000000000000000000000045dce8e4f2dc005a5f28206a46cb034697eeda8e",
            "0x000000000000000000000000feec000000000000000000000000000000000000"
          ],
          "data": "0x00000000000000000000000000000000000000000000000000000000000002df",
          "blockHash": "0x4619ed46e0d5ac42d59a9edebc5bd7a1ca0c7dbdf2e35adda9e81b411d571c9a",
          "blockNumber": "0x833bb4",
          "blockTimestamp": "0x69afca1a",
          "transactionHash": "0x491a7861a0763d61a811688b20804dfdf1f117606a3b6f09d658cd9aa277998c",
          "transactionIndex": "0x0",
          "logIndex": "0x1",
          "removed": false
        }
      ],
      "logsBloom": "0x00000000000000000000000200000040000000000000000000000000000000000000000000000000000000000000000000000100000000000000000000200000000004000000000000000008000000000000000000000000000000000000000000000004000000000000000000000000000000000000100000000010000000000000000000000000000000000020000000000000000000000000000000000000020020000000001000000000000000000000000000000000000000000000000000000002000000040000000000000000001000000000000000000000000000000010000000000000000000000000800000004000008000000000000000200000",
      "transactionHash": "0x491a7861a0763d61a811688b20804dfdf1f117606a3b6f09d658cd9aa277998c",
      "transactionIndex": "0x0",
      "blockHash": "0x4619ed46e0d5ac42d59a9edebc5bd7a1ca0c7dbdf2e35adda9e81b411d571c9a",
      "blockNumber": "0x833bb4",
      "gasUsed": "0x8f63",
      "effectiveGasPrice": "0x4a817c801",
      "from": "0x45dce8e4f2dc005a5f28206a46cb034697eeda8e",
      "to": "0x741f0d8bde14140f62107fc60a0ee122b37d4630",
      "contractAddress": null,
      "feeToken": "0x20c0000000000000000000003554d28269e0f3c2",
      "feePayer": "0x45dce8e4f2dc005a5f28206a46cb034697eeda8e"
    },
    {
      "type": "0x2",
      "status": "0x1",
      "cumulativeGasUsed": "0x8f63",
      "logs": [
        {
          "address": "0x20c0000000000000000000003554d28269e0f3c2",
          "topics": [
            "0x8c5be1e5ebec7d5bd14f71427d1e84f3dd0314c0f7b2291e5b200ac8c7c3b925",
            "0x000000000000000000000000741f0d8bde14140f62107fc60a0ee122b37d4630",
            "0x00000000000000000000000000000000d61733e7a393a10a5b48c311abe8f1e5"
          ],
          "data": "0xffffffffffffffffffffffffffffffffffffffffffffffffffffffffffffffff",
          "blockHash": "0xc559197eb16abf1078fb7a3dce457c9be13a20d25dd1965c3bd07cb05fa0e37d",
          "blockNumber": "0x833bb8",
          "blockTimestamp": "0x69afca1d",
          "transactionHash": "0x4b20fbfa7ac1188fb8ce159565f962c1b00b85755d0804f229c3ff02ffff6450",
          "transactionIndex": "0x0",
          "logIndex": "0x0",
          "removed": false
        },
        {
          "address": "0x20c0000000000000000000003554d28269e0f3c2",
          "topics": [
            "0xddf252ad1be2c89b69c2b068fc378daa952ba7f163c4a11628f55a4df523b3ef",
            "0x00000000000000000000000045dce8e4f2dc005a5f28206a46cb034697eeda8e",
            "0x000000000000000000000000feec000000000000000000000000000000000000"
          ],
          "data": "0x00000000000000000000000000000000000000000000000000000000000002df",
          "blockHash": "0xc559197eb16abf1078fb7a3dce457c9be13a20d25dd1965c3bd07cb05fa0e37d",
          "blockNumber": "0x833bb8",
          "blockTimestamp": "0x69afca1d",
          "transactionHash": "0x4b20fbfa7ac1188fb8ce159565f962c1b00b85755d0804f229c3ff02ffff6450",
          "transactionIndex": "0x0",
          "logIndex": "0x1",
          "removed": false
        }
      ],
      "logsBloom": "0x00000000000000000000000200000040000000000000000000000000000000000000000000000000000000000000000000000100000000000000000000200000000004000000000000000008000000000000000000000000000002000000000000000004000000000000000000000000000000000000000000000010000000000000000000000000000000000020000000000000000000000000000000800000020020000000001000000000000000000000000000000000000000000000000000000002000000040000000000000000001000000000000001000000000000000010000000000000000000000000800000000000000000000000000000200000",
      "transactionHash": "0x4b20fbfa7ac1188fb8ce159565f962c1b00b85755d0804f229c3ff02ffff6450",
      "transactionIndex": "0x0",
      "blockHash": "0xc559197eb16abf1078fb7a3dce457c9be13a20d25dd1965c3bd07cb05fa0e37d",
      "blockNumber": "0x833bb8",
      "gasUsed": "0x8f63",
      "effectiveGasPrice": "0x4a817c801",
      "from": "0x45dce8e4f2dc005a5f28206a46cb034697eeda8e",
      "to": "0x741f0d8bde14140f62107fc60a0ee122b37d4630",
      "contractAddress": null,
      "feeToken": "0x20c0000000000000000000003554d28269e0f3c2",
      "feePayer": "0x45dce8e4f2dc005a5f28206a46cb034697eeda8e"
    },
    {
      "type": "0x2",
      "status": "0x1",
      "cumulativeGasUsed": "0x8f63",
      "logs": [
        {
          "address": "0x20c0000000000000000000003554d28269e0f3c2",
          "topics": [
            "0x8c5be1e5ebec7d5bd14f71427d1e84f3dd0314c0f7b2291e5b200ac8c7c3b925",
            "0x000000000000000000000000741f0d8bde14140f62107fc60a0ee122b37d4630",
            "0x000000000000000000000000000000008c3930dca540bb9b3a5d0ee78fca9a4c"
          ],
          "data": "0xffffffffffffffffffffffffffffffffffffffffffffffffffffffffffffffff",
          "blockHash": "0x03accd63be56b9300c0ed491d33df95d7e3a891961b5889b088681ec6ce80537",
          "blockNumber": "0x833bbc",
          "blockTimestamp": "0x69afca1f",
          "transactionHash": "0x85ba371a2bc30f0ec59eb46cd0ce52c1d8898c2597d761c84ef8dce4685a3ef4",
          "transactionIndex": "0x0",
          "logIndex": "0x0",
          "removed": false
        },
        {
          "address": "0x20c0000000000000000000003554d28269e0f3c2",
          "topics": [
            "0xddf252ad1be2c89b69c2b068fc378daa952ba7f163c4a11628f55a4df523b3ef",
            "0x00000000000000000000000045dce8e4f2dc005a5f28206a46cb034697eeda8e",
            "0x000000000000000000000000feec000000000000000000000000000000000000"
          ],
          "data": "0x00000000000000000000000000000000000000000000000000000000000002df",
          "blockHash": "0x03accd63be56b9300c0ed491d33df95d7e3a891961b5889b088681ec6ce80537",
          "blockNumber": "0x833bbc",
          "blockTimestamp": "0x69afca1f",
          "transactionHash": "0x85ba371a2bc30f0ec59eb46cd0ce52c1d8898c2597d761c84ef8dce4685a3ef4",
          "transactionIndex": "0x0",
          "logIndex": "0x1",
          "removed": false
        }
      ],
      "logsBloom": "0x00001000000000000000000200000040000000000000000000000000000000000000000000000000000000000000000000000100000000000000000000200000000004000000000000000008000000000000000000000000000000000000000000000004000000000000000000000000000000000000000000000010000000000000000000000000000000000020000000000000000000000000000000000000020020000000001000000000000000000000000000000000000080000000000000000002000000040000000000000000001000000000000800000000000000000010000000000000000000000000800000000000000000000000000000200000",
      "transactionHash": "0x85ba371a2bc30f0ec59eb46cd0ce52c1d8898c2597d761c84ef8dce4685a3ef4",
      "transactionIndex": "0x0",
      "blockHash": "0x03accd63be56b9300c0ed491d33df95d7e3a891961b5889b088681ec6ce80537",
      "blockNumber": "0x833bbc",
      "gasUsed": "0x8f63",
      "effectiveGasPrice": "0x4a817c801",
      "from": "0x45dce8e4f2dc005a5f28206a46cb034697eeda8e",
      "to": "0x741f0d8bde14140f62107fc60a0ee122b37d4630",
      "contractAddress": null,
      "feeToken": "0x20c0000000000000000000003554d28269e0f3c2",
      "feePayer": "0x45dce8e4f2dc005a5f28206a46cb034697eeda8e"
    },
    {
      "type": "0x2",
      "status": "0x1",
      "cumulativeGasUsed": "0x8f63",
      "logs": [
        {
          "address": "0x20c0000000000000000000003554d28269e0f3c2",
          "topics": [
            "0x8c5be1e5ebec7d5bd14f71427d1e84f3dd0314c0f7b2291e5b200ac8c7c3b925",
            "0x000000000000000000000000741f0d8bde14140f62107fc60a0ee122b37d4630",
            "0x00000000000000000000000000000000bc4aef4ba6363a437455cb1af19e2aeb"
          ],
          "data": "0xffffffffffffffffffffffffffffffffffffffffffffffffffffffffffffffff",
          "blockHash": "0x8546117bdf4a8fb54a4456d2d64a1a2e1afd716d15f4fb7431c4a1795ad262a5",
          "blockNumber": "0x833bc2",
          "blockTimestamp": "0x69afca22",
          "transactionHash": "0x0efd967394397a20291257cee9630346b41e40419fbe177b02d7260b7bccd7df",
          "transactionIndex": "0x0",
          "logIndex": "0x0",
          "removed": false
        },
        {
          "address": "0x20c0000000000000000000003554d28269e0f3c2",
          "topics": [
            "0xddf252ad1be2c89b69c2b068fc378daa952ba7f163c4a11628f55a4df523b3ef",
            "0x00000000000000000000000045dce8e4f2dc005a5f28206a46cb034697eeda8e",
            "0x000000000000000000000000feec000000000000000000000000000000000000"
          ],
          "data": "0x00000000000000000000000000000000000000000000000000000000000002df",
          "blockHash": "0x8546117bdf4a8fb54a4456d2d64a1a2e1afd716d15f4fb7431c4a1795ad262a5",
          "blockNumber": "0x833bc2",
          "blockTimestamp": "0x69afca22",
          "transactionHash": "0x0efd967394397a20291257cee9630346b41e40419fbe177b02d7260b7bccd7df",
          "transactionIndex": "0x0",
          "logIndex": "0x1",
          "removed": false
        }
      ],
      "logsBloom": "0x00000000000000000000000200000040000000000000000000000000000000000000000000000000800000040000000000000100000000000000000000200000000004000000000000000008000000000000000020000000000000000000000000000004000000000000000000000000000000000000000000000010000000000000000000000000000000000020000000000000000000000000000000000000020020000000001000000000000000000000000000000000000000000000000000000002000000040000000000000000001000000000000000000000000000000010000000000000000000000000800000000000000000000000000000200000",
      "transactionHash": "0x0efd967394397a20291257cee9630346b41e40419fbe177b02d7260b7bccd7df",
      "transactionIndex": "0x0",
      "blockHash": "0x8546117bdf4a8fb54a4456d2d64a1a2e1afd716d15f4fb7431c4a1795ad262a5",
      "blockNumber": "0x833bc2",
      "gasUsed": "0x8f63",
      "effectiveGasPrice": "0x4a817c801",
      "from": "0x45dce8e4f2dc005a5f28206a46cb034697eeda8e",
      "to": "0x741f0d8bde14140f62107fc60a0ee122b37d4630",
      "contractAddress": null,
      "feeToken": "0x20c0000000000000000000003554d28269e0f3c2",
      "feePayer": "0x45dce8e4f2dc005a5f28206a46cb034697eeda8e"
    },
    {
      "type": "0x2",
      "status": "0x1",
      "cumulativeGasUsed": "0x6288",
      "logs": [
        {
          "address": "0xfeec000000000000000000000000000000000000",
          "topics": [
            "0xabc7758d4ca817ce0d125eb731121a1304c36077b791253be835b95472368856",
            "0x00000000000000000000000045dce8e4f2dc005a5f28206a46cb034697eeda8e",
            "0x00000000000000000000000020c0000000000000000000003554d28269e0f3c2"
          ],
          "data": "0x",
          "blockHash": "0xe73db2b3ae630595439275c2a0b3c68f883050238eab83d034f618f78257d6a7",
          "blockNumber": "0x833bc6",
          "blockTimestamp": "0x69afca24",
          "transactionHash": "0xeced437a6d5337f8e47f3c048091ef45aa560d169ca2b6f5f20cbfcb9647de9f",
          "transactionIndex": "0x0",
          "logIndex": "0x0",
          "removed": false
        },
        {
          "address": "0x20c0000000000000000000003554d28269e0f3c2",
          "topics": [
            "0xddf252ad1be2c89b69c2b068fc378daa952ba7f163c4a11628f55a4df523b3ef",
            "0x00000000000000000000000045dce8e4f2dc005a5f28206a46cb034697eeda8e",
            "0x000000000000000000000000feec000000000000000000000000000000000000"
          ],
          "data": "0x00000000000000000000000000000000000000000000000000000000000001f9",
          "blockHash": "0xe73db2b3ae630595439275c2a0b3c68f883050238eab83d034f618f78257d6a7",
          "blockNumber": "0x833bc6",
          "blockTimestamp": "0x69afca24",
          "transactionHash": "0xeced437a6d5337f8e47f3c048091ef45aa560d169ca2b6f5f20cbfcb9647de9f",
          "transactionIndex": "0x0",
          "logIndex": "0x1",
          "removed": false
        }
      ],
      "logsBloom": "0x00000000000000000000000200000000000000000000000000000000000000000000000000000000000000000000020000000000000000000000000000000000000004000000000000000008000000001000000000000000000000000000000000000004000000000080000000000000000000000000000000000010000000000000000000000000000000000020000000000000000000000000000000000000000020000000000000000000000400000000000000000000000000000000000000000002000000040000000000000000001000002080000000000000000000000000000000000000000100000000800002000800000000000000000000200000",
      "transactionHash": "0xeced437a6d5337f8e47f3c048091ef45aa560d169ca2b6f5f20cbfcb9647de9f",
      "transactionIndex": "0x0",
      "blockHash": "0xe73db2b3ae630595439275c2a0b3c68f883050238eab83d034f618f78257d6a7",
      "blockNumber": "0x833bc6",
      "gasUsed": "0x6288",
      "effectiveGasPrice": "0x4a817c801",
      "from": "0x45dce8e4f2dc005a5f28206a46cb034697eeda8e",
      "to": "0xfeec000000000000000000000000000000000000",
      "contractAddress": null,
      "feeToken": "0x20c0000000000000000000003554d28269e0f3c2",
      "feePayer": "0x45dce8e4f2dc005a5f28206a46cb034697eeda8e"
    },
    {
      "type": "0x2",
      "status": "0x1",
      "cumulativeGasUsed": "0x6606",
      "logs": [
        {
          "address": "0x20c0000000000000000000003554d28269e0f3c2",
          "topics": [
            "0x8c5be1e5ebec7d5bd14f71427d1e84f3dd0314c0f7b2291e5b200ac8c7c3b925",
            "0x00000000000000000000000045dce8e4f2dc005a5f28206a46cb034697eeda8e",
            "0x000000000000000000000000741f0d8bde14140f62107fc60a0ee122b37d4630"
          ],
          "data": "0xffffffffffffffffffffffffffffffffffffffffffffffffffffffffffffffff",
          "blockHash": "0x32f7f20f2d93defd0d5e7f04e54566ef9324950a4bf70eff799d90f895051e1b",
          "blockNumber": "0x833bca",
          "blockTimestamp": "0x69afca26",
          "transactionHash": "0xfb662d11d6262be0311d06f9b7aa370aa0fee3314bf6506761790cf191cc7dac",
          "transactionIndex": "0x0",
          "logIndex": "0x0",
          "removed": false
        },
        {
          "address": "0x20c0000000000000000000003554d28269e0f3c2",
          "topics": [
            "0xddf252ad1be2c89b69c2b068fc378daa952ba7f163c4a11628f55a4df523b3ef",
            "0x00000000000000000000000045dce8e4f2dc005a5f28206a46cb034697eeda8e",
            "0x000000000000000000000000feec000000000000000000000000000000000000"
          ],
          "data": "0x000000000000000000000000000000000000000000000000000000000000020b",
          "blockHash": "0x32f7f20f2d93defd0d5e7f04e54566ef9324950a4bf70eff799d90f895051e1b",
          "blockNumber": "0x833bca",
          "blockTimestamp": "0x69afca26",
          "transactionHash": "0xfb662d11d6262be0311d06f9b7aa370aa0fee3314bf6506761790cf191cc7dac",
          "transactionIndex": "0x0",
          "logIndex": "0x1",
          "removed": false
        }
      ],
      "logsBloom": "0x00000000000000000000000200000040000000000000000000000000000000000000000000000000000000000000000000000100000000000000000000200000000004000000000000000008000000000000000000000000000000000000000000000004000000000000000000000000000000000000000000000010000000000000000000000000000000000020000000000000000000000000000000000000020020000000001000000000000000000000000000000000000000000000000000000002000000040000000000000000001000000000000000000000000000000010000000000000000000000000800000000000000000000000000000200000",
      "transactionHash": "0xfb662d11d6262be0311d06f9b7aa370aa0fee3314bf6506761790cf191cc7dac",
      "transactionIndex": "0x0",
      "blockHash": "0x32f7f20f2d93defd0d5e7f04e54566ef9324950a4bf70eff799d90f895051e1b",
      "blockNumber": "0x833bca",
      "gasUsed": "0x6606",
      "effectiveGasPrice": "0x4a817c801",
      "from": "0x45dce8e4f2dc005a5f28206a46cb034697eeda8e",
      "to": "0x20c0000000000000000000003554d28269e0f3c2",
      "contractAddress": null,
      "feeToken": "0x20c0000000000000000000003554d28269e0f3c2",
      "feePayer": "0x45dce8e4f2dc005a5f28206a46cb034697eeda8e"
    }
  ],
  "libraries": [],
  "pending": [],
  "returns": {},
  "timestamp": 1773128244118,
  "chain": 4217,
  "commit": "abf8802"
}