{
  "transactions": [
    {
      "hash": "0x08f038bb0fd337c99775c3941cbbc5372824999d2d5a1f45bbf16a985a2ed051",
      "transactionType": "CALL",
      "contractName": null,
      "contractAddress": "0x741f0d8bde14140f62107fc60a0ee122b37d4630",
      "function": "approveToken(address,address,uint256)",
      "arguments": [
        "0x20C0000000000000000000003554d28269E0f3c2",
        "0x00000000D61733e7A393A10A5B48c311AbE8f1E5",
        "115792089237316195423570985008687907853269984665640564039457584007913129639935"
      ],
      "transaction": {
        "from": "0x45dce8e4f2dc005a5f28206a46cb034697eeda8e",
        "to": "0x741f0d8bde14140f62107fc60a0ee122b37d4630",
        "gas": "0x5f655",
        "value": "0x0",
        "input": "0xda3e339700000000000000000000000020c0000000000000000000003554d28269e0f3c200000000000000000000000000000000d61733e7a393a10a5b48c311abe8f1e5ffffffffffffffffffffffffffffffffffffffffffffffffffffffffffffffff",
        "nonce": "0xdb",
        "chainId": "0x1079",
        "feeToken": null,
        "calls": [],
        "keyType": null,
        "keyData": null
      },
      "additionalContracts": [],
      "isFixedGasLimit": false
    },
    {
      "hash": "0xb79ac1546ecaf3f8640d4c095b5ea0b3ffe0e6fa9e2b85da31356f5125668926",
      "transactionType": "CALL",
      "contractName": null,
      "contractAddress": "0x741f0d8bde14140f62107fc60a0ee122b37d4630",
      "function": "approveToken(address,address,uint256)",
      "arguments": [
        "0x20C0000000000000000000000000000000000000",
        "0x00000000E9CE0f293D1Ce552768b187eBA8a56D4",
        "115792089237316195423570985008687907853269984665640564039457584007913129639935"
      ],
      "transaction": {
        "from": "0x45dce8e4f2dc005a5f28206a46cb034697eeda8e",
        "to": "0x741f0d8bde14140f62107fc60a0ee122b37d4630",
        "gas": "0x5f5d4",
        "value": "0x0",
        "input": "0xda3e339700000000000000000000000020c000000000000000000000000000000000000000000000000000000000000000000000e9ce0f293d1ce552768b187eba8a56d4ffffffffffffffffffffffffffffffffffffffffffffffffffffffffffffffff",
        "nonce": "0xdc",
        "chainId": "0x1079",
        "feeToken": null,
        "calls": [],
        "keyType": null,
        "keyData": null
      },
      "additionalContracts": [],
      "isFixedGasLimit": false
    },
    {
      "hash": "0x4ebf5a2651c55ac2542ce9089917a0b2bd3b4fa3676ff823ee6fd402d6fecb09",
      "transactionType": "CALL",
      "contractName": null,
      "contractAddress": "0x741f0d8bde14140f62107fc60a0ee122b37d4630",
      "function": "approveToken(address,address,uint256)",
      "arguments": [
        "0x20C0000000000000000000000000000000000000",
        "0x00000000fD8C4B8A413A06821456801295921a71",
        "115792089237316195423570985008687907853269984665640564039457584007913129639935"
      ],
      "transaction": {
        "from": "0x45dce8e4f2dc005a5f28206a46cb034697eeda8e",
        "to": "0x741f0d8bde14140f62107fc60a0ee122b37d4630",
        "gas": "0x5f5d4",
        "value": "0x0",
        "input": "0xda3e339700000000000000000000000020c000000000000000000000000000000000000000000000000000000000000000000000fd8c4b8a413a06821456801295921a71ffffffffffffffffffffffffffffffffffffffffffffffffffffffffffffffff",
        "nonce": "0xdd",
        "chainId": "0x1079",
        "feeToken": null,
        "calls": [],
        "keyType": null,
        "keyData": null
      },
      "additionalContracts": [],
      "isFixedGasLimit": false
    },
    {
      "hash": "0x89b7cf391e5bfc01c7ba90931b52b459ff04ca039fc43ac0adc87e387fcfbb57",
      "transactionType": "CALL",
      "contractName": null,
      "contractAddress": "0x741f0d8bde14140f62107fc60a0ee122b37d4630",
      "function": "approveToken(address,address,uint256)",
      "arguments": [
        "0x20C0000000000000000000000000000000000000",
        "0x00000000883279097A49dB1f2af954EAd0C77E3c",
        "115792089237316195423570985008687907853269984665640564039457584007913129639935"
      ],
      "transaction": {
        "from": "0x45dce8e4f2dc005a5f28206a46cb034697eeda8e",
        "to": "0x741f0d8bde14140f62107fc60a0ee122b37d4630",
        "gas": "0x5f5d4",
        "value": "0x0",
        "input": "0xda3e339700000000000000000000000020c000000000000000000000000000000000000000000000000000000000000000000000883279097a49db1f2af954ead0c77e3cffffffffffffffffffffffffffffffffffffffffffffffffffffffffffffffff",
        "nonce": "0xde",
        "chainId": "0x1079",
        "feeToken": null,
        "calls": [],
        "keyType": null,
        "keyData": null
      },
      "additionalContracts": [],
      "isFixedGasLimit": false
    },
    {
      "hash": "0xbb1ab48b35a16f8fbb7222e250e72945d0a8a13b3bb4bd65670c91ae772bb691",
      "transactionType": "CALL",
      "contractName": null,
      "contractAddress": "0x741f0d8bde14140f62107fc60a0ee122b37d4630",
      "function": "approveToken(address,address,uint256)",
      "arguments": [
        "0x20C0000000000000000000000000000000000000",
        "0x00000000D61733e7A393A10A5B48c311AbE8f1E5",
        "115792089237316195423570985008687907853269984665640564039457584007913129639935"
      ],
      "transaction": {
        "from": "0x45dce8e4f2dc005a5f28206a46cb034697eeda8e",
        "to": "0x741f0d8bde14140f62107fc60a0ee122b37d4630",
        "gas": "0x5f5d4",
        "value": "0x0",
        "input": "0xda3e339700000000000000000000000020c000000000000000000000000000000000000000000000000000000000000000000000d61733e7a393a10a5b48c311abe8f1e5ffffffffffffffffffffffffffffffffffffffffffffffffffffffffffffffff",
        "nonce": "0xdf",
        "chainId": "0x1079",
        "feeToken": null,
        "calls": [],
        "keyType": null,
        "keyData": null
      },
      "additionalContracts": [],
      "isFixedGasLimit": false
    },
    {
      "hash": "0x89f7c9272697979e3d964fa41b857e6d3b0c131e4560a8556fa13187741e0e6d",
      "transactionType": "CALL",
      "contractName": null,
      "contractAddress": "0x741f0d8bde14140f62107fc60a0ee122b37d4630",
      "function": "approveToken(address,address,uint256)",
      "arguments": [
        "0x20C0000000000000000000000000000000000000",
        "0x000000008c3930dCA540bB9B3A5D0ee78FcA9A4c",
        "115792089237316195423570985008687907853269984665640564039457584007913129639935"
      ],
      "transaction": {
        "from": "0x45dce8e4f2dc005a5f28206a46cb034697eeda8e",
        "to": "0x741f0d8bde14140f62107fc60a0ee122b37d4630",
        "gas": "0x5f5d4",
        "value": "0x0",
        "input": "0xda3e339700000000000000000000000020c0000000000000000000000000000000000000000000000000000000000000000000008c3930dca540bb9b3a5d0ee78fca9a4cffffffffffffffffffffffffffffffffffffffffffffffffffffffffffffffff",
        "nonce": "0xe0",
        "chainId": "0x1079",
        "feeToken": null,
        "calls": [],
        "keyType": null,
        "keyData": null
      },
      "additionalContracts": [],
      "isFixedGasLimit": false
    },
    {
      "hash": "0x00286d7912714f356f5cae6d59139fce2eadd06659ff0673afdca0599c2d13ac",
      "transactionType": "CALL",
      "contractName": null,
      "contractAddress": "0x741f0d8bde14140f62107fc60a0ee122b37d4630",
      "function": "approveToken(address,address,uint256)",
      "arguments": [
        "0x20C0000000000000000000000000000000000000",
        "0x00000000bC4aEF4bA6363a437455Cb1af19e2aEb",
        "115792089237316195423570985008687907853269984665640564039457584007913129639935"
      ],
      "transaction": {
        "from": "0x45dce8e4f2dc005a5f28206a46cb034697eeda8e",
        "to": "0x741f0d8bde14140f62107fc60a0ee122b37d4630",
        "gas": "0x5f5d4",
        "value": "0x0",
        "input": "0xda3e339700000000000000000000000020c000000000000000000000000000000000000000000000000000000000000000000000bc4aef4ba6363a437455cb1af19e2aebffffffffffffffffffffffffffffffffffffffffffffffffffffffffffffffff",
        "nonce": "0xe1",
        "chainId": "0x1079",
        "feeToken": null,
        "calls": [],
        "keyType": null,
        "keyData": null
      },
      "additionalContracts": [],
      "isFixedGasLimit": false
    },
    {
      "hash": "0x986a4db3b6a9a102c8ed7c18b49f55ba778d50f09dd952355b21b94f9bd96176",
      "transactionType": "CALL",
      "contractName": null,
      "contractAddress": "0xfeec000000000000000000000000000000000000",
      "function": "setUserToken(address)",
      "arguments": [
        "0x20C0000000000000000000000000000000000000"
      ],
      "transaction": {
        "from": "0x45dce8e4f2dc005a5f28206a46cb034697eeda8e",
        "to": "0xfeec000000000000000000000000000000000000",
        "gas": "0x99c1",
        "value": "0x0",
        "input": "0xe789744400000000000000000000000020c0000000000000000000000000000000000000",
        "nonce": "0xe2",
        "chainId": "0x1079",
        "feeToken": null,
        "calls": [],
        "keyType": null,
        "keyData": null
      },
      "additionalContracts": [],
      "isFixedGasLimit": false
    },
    {
      "hash": "0x0da249edc8b688996a2624f21af6deea0a667c8b726d34b01002614231ef2305",
      "transactionType": "CALL",
      "contractName": null,
      "contractAddress": "0x20c0000000000000000000000000000000000000",
      "function": "approve(address,uint256)",
      "arguments": [
        "0x741F0d8Bde14140f62107FC60A0EE122B37D4630",
        "144456"
      ],
      "transaction": {
        "from": "0x45dce8e4f2dc005a5f28206a46cb034697eeda8e",
        "to": "0x20c0000000000000000000000000000000000000",
        "gas": "0x5896f",
        "value": "0x0",
        "input": "0x095ea7b3000000000000000000000000741f0d8bde14140f62107fc60a0ee122b37d46300000000000000000000000000000000000000000000000000000000000023448",
        "nonce": "0xe3",
        "chainId": "0x1079",
        "feeToken": null,
        "calls": [],
        "keyType": null,
        "keyData": null
      },
      "additionalContracts": [],
      "isFixedGasLimit": false
    },
    {
      "hash": "0xfca62446152d8084e6c90dbb53f9cfabbc5def4e82198b61a978d34b980add37",
      "transactionType": "CALL",
      "contractName": null,
      "contractAddress": "0x741f0d8bde14140f62107fc60a0ee122b37d4630",
      "function": "batchBridgeWithTIP20FeeFromWallet((uint32,bytes32,uint256,uint256,bytes,bytes,bytes)[],address[],address[])",
      "arguments": [
        "[(30255, 0x000000000000000000000000741f0d8bde14140f62107fc60a0ee122b37d4630, 100000000000000, 0, 0x, 0x, 0x), (30255, 0x000000000000000000000000741f0d8bde14140f62107fc60a0ee122b37d4630, 100000000000000, 0, 0x, 0x, 0x), (30255, 0x000000000000000000000000741f0d8bde14140f62107fc60a0ee122b37d4630, 100000000000000, 0, 0x, 0x, 0x), (30255, 0x000000000000000000000000741f0d8bde14140f62107fc60a0ee122b37d4630, 100, 0, 0x, 0x, 0x), (30255, 0x000000000000000000000000741f0d8bde14140f62107fc60a0ee122b37d4630, 100000000000000, 0, 0x, 0x, 0x), (30255, 0x000000000000000000000000741f0d8bde14140f62107fc60a0ee122b37d4630, 100000000000000, 0, 0x, 0x, 0x)]",
        "[0x00000000E9CE0f293D1Ce552768b187eBA8a56D4, 0x00000000fD8C4B8A413A06821456801295921a71, 0x00000000883279097A49dB1f2af954EAd0C77E3c, 0x00000000D61733e7A393A10A5B48c311AbE8f1E5, 0x000000008c3930dCA540bB9B3A5D0ee78FcA9A4c, 0x00000000bC4aEF4bA6363a437455Cb1af19e2aEb]",
        "[0x741F0d8Bde14140f62107FC60A0EE122B37D4630, 0x741F0d8Bde14140f62107FC60A0EE122B37D4630, 0x741F0d8Bde14140f62107FC60A0EE122B37D4630, 0x741F0d8Bde14140f62107FC60A0EE122B37D4630, 0x741F0d8Bde14140f62107FC60A0EE122B37D4630, 0x741F0d8Bde14140f62107FC60A0EE122B37D4630]"
      ],
      "transaction": {
        "from": "0x45dce8e4f2dc005a5f28206a46cb034697eeda8e",
        "to": "0x741f0d8bde14140f62107fc60a0ee122b37d4630",
        "gas": "0x319bc5",
        "value": "0x0",
        "input": "0xddfe224e000000000000000000000000000000000000000000000000000000000000006000000000000000000000000000000000000000000000000000000000000008c000000000000000000000000000000000000000000000000000000000000009a0000000000000000000000000000000000000000000000000000000000000000600000000000000000000000000000000000000000000000000000000000000c000000000000000000000000000000000000000000000000000000000000002000000000000000000000000000000000000000000000000000000000000000340000000000000000000000000000000000000000000000000000000000000048000000000000000000000000000000000000000000000000000000000000005c00000000000000000000000000000000000000000000000000000000000000700000000000000000000000000000000000000000000000000000000000000762f000000000000000000000000741f0d8bde14140f62107fc60a0ee122b37d463000000000000000000000000000000000000000000000000000005af3107a4000000000000000000000000000000000000000000000000000000000000000000000000000000000000000000000000000000000000000000000000000000000e000000000000000000000000000000000000000000000000000000000000001000000000000000000000000000000000000000000000000000000000000000120000000000000000000000000000000000000000000000000000000000000000000000000000000000000000000000000000000000000000000000000000000000000000000000000000000000000000000000000000000000000000000000000000000000000000000000000000000000000000000000000000000000000762f000000000000000000000000741f0d8bde14140f62107fc60a0ee122b37d463000000000000000000000000000000000000000000000000000005af3107a4000000000000000000000000000000000000000000000000000000000000000000000000000000000000000000000000000000000000000000000000000000000e000000000000000000000000000000000000000000000000000000000000001000000000000000000000000000000000000000000000000000000000000000120000000000000000000000000000000000000000000000000000000000000000000000000000000000000000000000000000000000000000000000000000000000000000000000000000000000000000000000000000000000000000000000000000000000000000000000000000000000000000000000000000000000000762f000000000000000000000000741f0d8bde14140f62107fc60a0ee122b37d463000000000000000000000000000000000000000000000000000005af3107a4000000000000000000000000000000000000000000000000000000000000000000000000000000000000000000000000000000000000000000000000000000000e000000000000000000000000000000000000000000000000000000000000001000000000000000000000000000000000000000000000000000000000000000120000000000000000000000000000000000000000000000000000000000000000000000000000000000000000000000000000000000000000000000000000000000000000000000000000000000000000000000000000000000000000000000000000000000000000000000000000000000000000000000000000000000000762f000000000000000000000000741f0d8bde14140f62107fc60a0ee122b37d46300000000000000000000000000000000000000000000000000000000000000064000000000000000000000000000000000000000000000000000000000000000000000000000000000000000000000000000000000000000000000000000000e000000000000000000000000000000000000000000000000000000000000001000000000000000000000000000000000000000000000000000000000000000120000000000000000000000000000000000000000000000000000000000000000000000000000000000000000000000000000000000000000000000000000000000000000000000000000000000000000000000000000000000000000000000000000000000000000000000000000000000000000000000000000000000000762f000000000000000000000000741f0d8bde14140f62107fc60a0ee122b37d463000000000000000000000000000000000000000000000000000005af3107a4000000000000000000000000000000000000000000000000000000000000000000000000000000000000000000000000000000000000000000000000000000000e000000000000000000000000000000000000000000000000000000000000001000000000000000000000000000000000000000000000000000000000000000120000000000000000000000000000000000000000000000000000000000000000000000000000000000000000000000000000000000000000000000000000000000000000000000000000000000000000000000000000000000000000000000000000000000000000000000000000000000000000000000000000000000000762f000000000000000000000000741f0d8bde14140f62107fc60a0ee122b37d463000000000000000000000000000000000000000000000000000005af3107a4000000000000000000000000000000000000000000000000000000000000000000000000000000000000000000000000000000000000000000000000000000000e000000000000000000000000000000000000000000000000000000000000001000000000000000000000000000000000000000000000000000000000000000120000000000000000000000000000000000000000000000000000000000000000000000000000000000000000000000000000000000000000000000000000000000000000000000000000000000000000000000000000000000000000000000000000000000000000000000000000000000000000000000000000000000000000600000000000000000000000000000000e9ce0f293d1ce552768b187eba8a56d400000000000000000000000000000000fd8c4b8a413a06821456801295921a7100000000000000000000000000000000883279097a49db1f2af954ead0c77e3c00000000000000000000000000000000d61733e7a393a10a5b48c311abe8f1e5000000000000000000000000000000008c3930dca540bb9b3a5d0ee78fca9a4c00000000000000000000000000000000bc4aef4ba6363a437455cb1af19e2aeb0000000000000000000000000000000000000000000000000000000000000006000000000000000000000000741f0d8bde14140f62107fc60a0ee122b37d4630000000000000000000000000741f0d8bde14140f62107fc60a0ee122b37d4630000000000000000000000000741f0d8bde14140f62107fc60a0ee122b37d4630000000000000000000000000741f0d8bde14140f62107fc60a0ee122b37d4630000000000000000000000000741f0d8bde14140f62107fc60a0ee122b37d4630000000000000000000000000741f0d8bde14140f62107fc60a0ee122b37d4630",
        "nonce": "0xe4",
        "chainId": "0x1079",
        "feeToken": null,
        "calls": [],
        "keyType": null,
        "keyData": null
      },
      "additionalContracts": [],
      "isFixedGasLimit": false
    }
  ],
  "receipts": [
    {
      "type": "0x2",
      "status": "0x1",
      "cumulativeGasUsed": "0x469b7",
      "logs": [
        {
          "address": "0x20c0000000000000000000003554d28269e0f3c2",
          "topics": [
            "0x8c5be1e5ebec7d5bd14f71427d1e84f3dd0314c0f7b2291e5b200ac8c7c3b925",
            "0x000000000000000000000000741f0d8bde14140f62107fc60a0ee122b37d4630",
            "0x00000000000000000000000000000000d61733e7a393a10a5b48c311abe8f1e5"
          ],
          "data": "0xffffffffffffffffffffffffffffffffffffffffffffffffffffffffffffffff",
          "blockHash": "0x3404a594cf9c460e94a28c50f4a468c66efbda2dee5287d86695746566153b11",
          "blockNumber": "0x8304d6",
          "blockTimestamp": "0x69afac6f",
          "transactionHash": "0x08f038bb0fd337c99775c3941cbbc5372824999d2d5a1f45bbf16a985a2ed051",
          "transactionIndex": "0x0",
          "logIndex": "0x0",
          "removed": false
        },
        {
          "address": "0x20c000000000000000000000cfd2e14f4cdf1380",
          "topics": [
            "0xddf252ad1be2c89b69c2b068fc378daa952ba7f163c4a11628f55a4df523b3ef",
            "0x00000000000000000000000045dce8e4f2dc005a5f28206a46cb034697eeda8e",
            "0x000000000000000000000000feec000000000000000000000000000000000000"
          ],
          "data": "0x0000000000000000000000000000000000000000000000000000000000001699",
          "blockHash": "0x3404a594cf9c460e94a28c50f4a468c66efbda2dee5287d86695746566153b11",
          "blockNumber": "0x8304d6",
          "blockTimestamp": "0x69afac6f",
          "transactionHash": "0x08f038bb0fd337c99775c3941cbbc5372824999d2d5a1f45bbf16a985a2ed051",
          "transactionIndex": "0x0",
          "logIndex": "0x1",
          "removed": false
        }
      ],
      "logsBloom": "0x00000000000000000000000200000040000000000000000000000000000000000000000000000000000000000000000000000100000000000000000000200000000004000000000000000008000000000000000000000000000002000000000000000004000000000000000000000000000000000000000000000010000000000000000040000000000000000020000000000000000000000000000001800000020020000000001000000000000000000000000000000000000000000000000000000002000000040000000000000000001000000000000001000000000000000010000000000000000000000000800000000000000000000000000000201000",
      "transactionHash": "0x08f038bb0fd337c99775c3941cbbc5372824999d2d5a1f45bbf16a985a2ed051",
      "transactionIndex": "0x0",
      "blockHash": "0x3404a594cf9c460e94a28c50f4a468c66efbda2dee5287d86695746566153b11",
      "blockNumber": "0x8304d6",
      "gasUsed": "0x469b7",
      "effectiveGasPrice": "0x4a817c801",
      "from": "0x45dce8e4f2dc005a5f28206a46cb034697eeda8e",
      "to": "0x741f0d8bde14140f62107fc60a0ee122b37d4630",
      "contractAddress": null,
      "feeToken": "0x20c000000000000000000000cfd2e14f4cdf1380",
      "feePayer": "0x45dce8e4f2dc005a5f28206a46cb034697eeda8e"
    },
    {
      "type": "0x2",
      "status": "0x1",
      "cumulativeGasUsed": "0x46957",
      "logs": [
        {
          "address": "0x20c0000000000000000000000000000000000000",
          "topics": [
            "0x8c5be1e5ebec7d5bd14f71427d1e84f3dd0314c0f7b2291e5b200ac8c7c3b925",
            "0x000000000000000000000000741f0d8bde14140f62107fc60a0ee122b37d4630",
            "0x00000000000000000000000000000000e9ce0f293d1ce552768b187eba8a56d4"
          ],
          "data": "0xffffffffffffffffffffffffffffffffffffffffffffffffffffffffffffffff",
          "blockHash": "0xd0e2ad33be85e8d2b0e5c6723218c5668a332fe580cad74a7fec7538547ee137",
          "blockNumber": "0x8304da",
          "blockTimestamp": "0x69afac71",
          "transactionHash": "0xb79ac1546ecaf3f8640d4c095b5ea0b3ffe0e6fa9e2b85da31356f5125668926",
          "transactionIndex": "0x0",
          "logIndex": "0x0",
          "removed": false
        },
        {
          "address": "0x20c000000000000000000000cfd2e14f4cdf1380",
          "topics": [
            "0xddf252ad1be2c89b69c2b068fc378daa952ba7f163c4a11628f55a4df523b3ef",
            "0x00000000000000000000000045dce8e4f2dc005a5f28206a46cb034697eeda8e",
            "0x000000000000000000000000feec000000000000000000000000000000000000"
          ],
          "data": "0x0000000000000000000000000000000000000000000000000000000000001697",
          "blockHash": "0xd0e2ad33be85e8d2b0e5c6723218c5668a332fe580cad74a7fec7538547ee137",
          "blockNumber": "0x8304da",
          "blockTimestamp": "0x69afac71",
          "transactionHash": "0xb79ac1546ecaf3f8640d4c095b5ea0b3ffe0e6fa9e2b85da31356f5125668926",
          "transactionIndex": "0x0",
          "logIndex": "0x1",
          "removed": false
        }
      ],
      "logsBloom": "0x00000000000000000000000200000040000000000000000000000000000000000000000000000000000000000100000000000100000000000000000000200000000004000000000008000008000000000000000000000000000000000400000000000000000000000000000000000000000000000000000000000010000000000000000040000000000002000020000000000000800000000000000001000000020020000000001000000000000000000000000000000000000000000000000000000002000000000000000000000000001000000000000000000000000000000010000000000000000000000000800000000000000000010000000000001000",
      "transactionHash": "0xb79ac1546ecaf3f8640d4c095b5ea0b3ffe0e6fa9e2b85da31356f5125668926",
      "transactionIndex": "0x0",
      "blockHash": "0xd0e2ad33be85e8d2b0e5c6723218c5668a332fe580cad74a7fec7538547ee137",
      "blockNumber": "0x8304da",
      "gasUsed": "0x46957",
      "effectiveGasPrice": "0x4a817c801",
      "from": "0x45dce8e4f2dc005a5f28206a46cb034697eeda8e",
      "to": "0x741f0d8bde14140f62107fc60a0ee122b37d4630",
      "contractAddress": null,
      "feeToken": "0x20c000000000000000000000cfd2e14f4cdf1380",
      "feePayer": "0x45dce8e4f2dc005a5f28206a46cb034697eeda8e"
    },
    {
      "type": "0x2",
      "status": "0x1",
      "cumulativeGasUsed": "0x46957",
      "logs": [
        {
          "address": "0x20c0000000000000000000000000000000000000",
          "topics": [
            "0x8c5be1e5ebec7d5bd14f71427d1e84f3dd0314c0f7b2291e5b200ac8c7c3b925",
            "0x000000000000000000000000741f0d8bde14140f62107fc60a0ee122b37d4630",
            "0x00000000000000000000000000000000fd8c4b8a413a06821456801295921a71"
          ],
          "data": "0xffffffffffffffffffffffffffffffffffffffffffffffffffffffffffffffff",
          "blockHash": "0x55be714f598189ae31fdbf97cf4940a9aabc5faa5f4766f80cc2dbe9f40a6058",
          "blockNumber": "0x8304de",
          "blockTimestamp": "0x69afac74",
          "transactionHash": "0x4ebf5a2651c55ac2542ce9089917a0b2bd3b4fa3676ff823ee6fd402d6fecb09",
          "transactionIndex": "0x0",
          "logIndex": "0x0",
          "removed": false
        },
        {
          "address": "0x20c000000000000000000000cfd2e14f4cdf1380",
          "topics": [
            "0xddf252ad1be2c89b69c2b068fc378daa952ba7f163c4a11628f55a4df523b3ef",
            "0x00000000000000000000000045dce8e4f2dc005a5f28206a46cb034697eeda8e",
            "0x000000000000000000000000feec000000000000000000000000000000000000"
          ],
          "data": "0x0000000000000000000000000000000000000000000000000000000000001697",
          "blockHash": "0x55be714f598189ae31fdbf97cf4940a9aabc5faa5f4766f80cc2dbe9f40a6058",
          "blockNumber": "0x8304de",
          "blockTimestamp": "0x69afac74",
          "transactionHash": "0x4ebf5a2651c55ac2542ce9089917a0b2bd3b4fa3676ff823ee6fd402d6fecb09",
          "transactionIndex": "0x0",
          "logIndex": "0x1",
          "removed": false
        }
      ],
      "logsBloom": "0x00000000000000000000000200000040000000000000000000000200000000000000000000000000000000000100000000000100000000000000000000200000000004000000000000000008000000000000000000000000000000000400000000000000000000000000000000000000000000000000000000000010000000000020000040000000000000000020000000000000800000000000000001000000020020000000001000000000000000000000000000000000000000000000000000000002000000000000000000000008001000000000000000000000000000000010000000000000000000000000800000000000000000000000000000001000",
      "transactionHash": "0x4ebf5a2651c55ac2542ce9089917a0b2bd3b4fa3676ff823ee6fd402d6fecb09",
      "transactionIndex": "0x0",
      "blockHash": "0x55be714f598189ae31fdbf97cf4940a9aabc5faa5f4766f80cc2dbe9f40a6058",
      "blockNumber": "0x8304de",
      "gasUsed": "0x46957",
      "effectiveGasPrice": "0x4a817c801",
      "from": "0x45dce8e4f2dc005a5f28206a46cb034697eeda8e",
      "to": "0x741f0d8bde14140f62107fc60a0ee122b37d4630",
      "contractAddress": null,
      "feeToken": "0x20c000000000000000000000cfd2e14f4cdf1380",
      "feePayer": "0x45dce8e4f2dc005a5f28206a46cb034697eeda8e"
    },
    {
      "type": "0x2",
      "status": "0x1",
      "cumulativeGasUsed": "0x46957",
      "logs": [
        {
          "address": "0x20c0000000000000000000000000000000000000",
          "topics": [
            "0x8c5be1e5ebec7d5bd14f71427d1e84f3dd0314c0f7b2291e5b200ac8c7c3b925",
            "0x000000000000000000000000741f0d8bde14140f62107fc60a0ee122b37d4630",
            "0x00000000000000000000000000000000883279097a49db1f2af954ead0c77e3c"
          ],
          "data": "0xffffffffffffffffffffffffffffffffffffffffffffffffffffffffffffffff",
          "blockHash": "0x4d39a08843f5bdbf56c7eedb9ea0c24574166bd7998eea9a4f13cd6bd738188c",
          "blockNumber": "0x8304e1",
          "blockTimestamp": "0x69afac75",
          "transactionHash": "0x89b7cf391e5bfc01c7ba90931b52b459ff04ca039fc43ac0adc87e387fcfbb57",
          "transactionIndex": "0x0",
          "logIndex": "0x0",
          "removed": false
        },
        {
          "address": "0x20c000000000000000000000cfd2e14f4cdf1380",
          "topics": [
            "0xddf252ad1be2c89b69c2b068fc378daa952ba7f163c4a11628f55a4df523b3ef",
            "0x00000000000000000000000045dce8e4f2dc005a5f28206a46cb034697eeda8e",
            "0x000000000000000000000000feec000000000000000000000000000000000000"
          ],
          "data": "0x0000000000000000000000000000000000000000000000000000000000001697",
          "blockHash": "0x4d39a08843f5bdbf56c7eedb9ea0c24574166bd7998eea9a4f13cd6bd738188c",
          "blockNumber": "0x8304e1",
          "blockTimestamp": "0x69afac75",
          "transactionHash": "0x89b7cf391e5bfc01c7ba90931b52b459ff04ca039fc43ac0adc87e387fcfbb57",
          "transactionIndex": "0x0",
          "logIndex": "0x1",
          "removed": false
        }
      ],
      "logsBloom": "0x00000000000000000000000200000040000000000000000000000000000000000000000000000000000000000100000000000100000000000000000000200000000004000000000000000008000000000000000000000000000000000400000000000000000000000000000000000000000000000000100000000010000000000000000040000000000000000020000000000000800000000000000001000000020020000000001000000000000000000000000000000000000000000000000000000002000000000000000000000000001000000000000000000000000000000010000000000000000000000000800000004000008000000000000000001000",
      "transactionHash": "0x89b7cf391e5bfc01c7ba90931b52b459ff04ca039fc43ac0adc87e387fcfbb57",
      "transactionIndex": "0x0",
      "blockHash": "0x4d39a08843f5bdbf56c7eedb9ea0c24574166bd7998eea9a4f13cd6bd738188c",
      "blockNumber": "0x8304e1",
      "gasUsed": "0x46957",
      "effectiveGasPrice": "0x4a817c801",
      "from": "0x45dce8e4f2dc005a5f28206a46cb034697eeda8e",
      "to": "0x741f0d8bde14140f62107fc60a0ee122b37d4630",
      "contractAddress": null,
      "feeToken": "0x20c000000000000000000000cfd2e14f4cdf1380",
      "feePayer": "0x45dce8e4f2dc005a5f28206a46cb034697eeda8e"
    },
    {
      "type": "0x2",
      "status": "0x1",
      "cumulativeGasUsed": "0x46957",
      "logs": [
        {
          "address": "0x20c0000000000000000000000000000000000000",
          "topics": [
            "0x8c5be1e5ebec7d5bd14f71427d1e84f3dd0314c0f7b2291e5b200ac8c7c3b925",
            "0x000000000000000000000000741f0d8bde14140f62107fc60a0ee122b37d4630",
            "0x00000000000000000000000000000000d61733e7a393a10a5b48c311abe8f1e5"
          ],
          "data": "0xffffffffffffffffffffffffffffffffffffffffffffffffffffffffffffffff",
          "blockHash": "0xe155f0a3656e0c197acd31857a17997bf1cd97cbae747534e0ca14bb19088c9e",
          "blockNumber": "0x8304e4",
          "blockTimestamp": "0x69afac77",
          "transactionHash": "0xbb1ab48b35a16f8fbb7222e250e72945d0a8a13b3bb4bd65670c91ae772bb691",
          "transactionIndex": "0x0",
          "logIndex": "0x0",
          "removed": false
        },
        {
          "address": "0x20c000000000000000000000cfd2e14f4cdf1380",
          "topics": [
            "0xddf252ad1be2c89b69c2b068fc378daa952ba7f163c4a11628f55a4df523b3ef",
            "0x00000000000000000000000045dce8e4f2dc005a5f28206a46cb034697eeda8e",
            "0x000000000000000000000000feec000000000000000000000000000000000000"
          ],
          "data": "0x0000000000000000000000000000000000000000000000000000000000001697",
          "blockHash": "0xe155f0a3656e0c197acd31857a17997bf1cd97cbae747534e0ca14bb19088c9e",
          "blockNumber": "0x8304e4",
          "blockTimestamp": "0x69afac77",
          "transactionHash": "0xbb1ab48b35a16f8fbb7222e250e72945d0a8a13b3bb4bd65670c91ae772bb691",
          "transactionIndex": "0x0",
          "logIndex": "0x1",
          "removed": false
        }
      ],
      "logsBloom": "0x00000000000000000000000200000040000000000000000000000000000000000000000000000000000000000100000000000100000000000000000000200000000004000000000000000008000000000000000000000000000002000400000000000000000000000000000000000000000000000000000000000010000000000000000040000000000000000020000000000000800000000000000001800000020020000000001000000000000000000000000000000000000000000000000000000002000000000000000000000000001000000000000001000000000000000010000000000000000000000000800000000000000000000000000000001000",
      "transactionHash": "0xbb1ab48b35a16f8fbb7222e250e72945d0a8a13b3bb4bd65670c91ae772bb691",
      "transactionIndex": "0x0",
      "blockHash": "0xe155f0a3656e0c197acd31857a17997bf1cd97cbae747534e0ca14bb19088c9e",
      "blockNumber": "0x8304e4",
      "gasUsed": "0x46957",
      "effectiveGasPrice": "0x4a817c801",
      "from": "0x45dce8e4f2dc005a5f28206a46cb034697eeda8e",
      "to": "0x741f0d8bde14140f62107fc60a0ee122b37d4630",
      "contractAddress": null,
      "feeToken": "0x20c000000000000000000000cfd2e14f4cdf1380",
      "feePayer": "0x45dce8e4f2dc005a5f28206a46cb034697eeda8e"
    },
    {
      "type": "0x2",
      "status": "0x1",
      "cumulativeGasUsed": "0x46957",
      "logs": [
        {
          "address": "0x20c0000000000000000000000000000000000000",
          "topics": [
            "0x8c5be1e5ebec7d5bd14f71427d1e84f3dd0314c0f7b2291e5b200ac8c7c3b925",
            "0x000000000000000000000000741f0d8bde14140f62107fc60a0ee122b37d4630",
            "0x000000000000000000000000000000008c3930dca540bb9b3a5d0ee78fca9a4c"
          ],
          "data": "0xffffffffffffffffffffffffffffffffffffffffffffffffffffffffffffffff",
          "blockHash": "0xe9036ad49242382d95dc76dac8f7bb03305f0b1991041affc408b1b5aec6814f",
          "blockNumber": "0x8304e8",
          "blockTimestamp": "0x69afac79",
          "transactionHash": "0x89f7c9272697979e3d964fa41b857e6d3b0c131e4560a8556fa13187741e0e6d",
          "transactionIndex": "0x0",
          "logIndex": "0x0",
          "removed": false
        },
        {
          "address": "0x20c000000000000000000000cfd2e14f4cdf1380",
          "topics": [
            "0xddf252ad1be2c89b69c2b068fc378daa952ba7f163c4a11628f55a4df523b3ef",
            "0x00000000000000000000000045dce8e4f2dc005a5f28206a46cb034697eeda8e",
            "0x000000000000000000000000feec000000000000000000000000000000000000"
          ],
          "data": "0x0000000000000000000000000000000000000000000000000000000000001697",
          "blockHash": "0xe9036ad49242382d95dc76dac8f7bb03305f0b1991041affc408b1b5aec6814f",
          "blockNumber": "0x8304e8",
          "blockTimestamp": "0x69afac79",
          "transactionHash": "0x89f7c9272697979e3d964fa41b857e6d3b0c131e4560a8556fa13187741e0e6d",
          "transactionIndex": "0x0",
          "logIndex": "0x1",
          "removed": false
        }
      ],
      "logsBloom": "0x00001000000000000000000200000040000000000000000000000000000000000000000000000000000000000100000000000100000000000000000000200000000004000000000000000008000000000000000000000000000000000400000000000000000000000000000000000000000000000000000000000010000000000000000040000000000000000020000000000000800000000000000001000000020020000000001000000000000000000000000000000000000080000000000000000002000000000000000000000000001000000000000800000000000000000010000000000000000000000000800000000000000000000000000000001000",
      "transactionHash": "0x89f7c9272697979e3d964fa41b857e6d3b0c131e4560a8556fa13187741e0e6d",
      "transactionIndex": "0x0",
      "blockHash": "0xe9036ad49242382d95dc76dac8f7bb03305f0b1991041affc408b1b5aec6814f",
      "blockNumber": "0x8304e8",
      "gasUsed": "0x46957",
      "effectiveGasPrice": "0x4a817c801",
      "from": "0x45dce8e4f2dc005a5f28206a46cb034697eeda8e",
      "to": "0x741f0d8bde14140f62107fc60a0ee122b37d4630",
      "contractAddress": null,
      "feeToken": "0x20c000000000000000000000cfd2e14f4cdf1380",
      "feePayer": "0x45dce8e4f2dc005a5f28206a46cb034697eeda8e"
    },
    {
      "type": "0x2",
      "status": "0x1",
      "cumulativeGasUsed": "0x46957",
      "logs": [
        {
          "address": "0x20c0000000000000000000000000000000000000",
          "topics": [
            "0x8c5be1e5ebec7d5bd14f71427d1e84f3dd0314c0f7b2291e5b200ac8c7c3b925",
            "0x000000000000000000000000741f0d8bde14140f62107fc60a0ee122b37d4630",
            "0x00000000000000000000000000000000bc4aef4ba6363a437455cb1af19e2aeb"
          ],
          "data": "0xffffffffffffffffffffffffffffffffffffffffffffffffffffffffffffffff",
          "blockHash": "0xcf6734bf646737a9088def987f290ab0e910fac619de98e812e8a399b3517043",
          "blockNumber": "0x8304eb",
          "blockTimestamp": "0x69afac7b",
          "transactionHash": "0x00286d7912714f356f5cae6d59139fce2eadd06659ff0673afdca0599c2d13ac",
          "transactionIndex": "0x0",
          "logIndex": "0x0",
          "removed": false
        },
        {
          "address": "0x20c000000000000000000000cfd2e14f4cdf1380",
          "topics": [
            "0xddf252ad1be2c89b69c2b068fc378daa952ba7f163c4a11628f55a4df523b3ef",
            "0x00000000000000000000000045dce8e4f2dc005a5f28206a46cb034697eeda8e",
            "0x000000000000000000000000feec000000000000000000000000000000000000"
          ],
          "data": "0x0000000000000000000000000000000000000000000000000000000000001697",
          "blockHash": "0xcf6734bf646737a9088def987f290ab0e910fac619de98e812e8a399b3517043",
          "blockNumber": "0x8304eb",
          "blockTimestamp": "0x69afac7b",
          "transactionHash": "0x00286d7912714f356f5cae6d59139fce2eadd06659ff0673afdca0599c2d13ac",
          "transactionIndex": "0x0",
          "logIndex": "0x1",
          "removed": false
        }
      ],
      "logsBloom": "0x00000000000000000000000200000040000000000000000000000000000000000000000000000000800000040100000000000100000000000000000000200000000004000000000000000008000000000000000020000000000000000400000000000000000000000000000000000000000000000000000000000010000000000000000040000000000000000020000000000000800000000000000001000000020020000000001000000000000000000000000000000000000000000000000000000002000000000000000000000000001000000000000000000000000000000010000000000000000000000000800000000000000000000000000000001000",
      "transactionHash": "0x00286d7912714f356f5cae6d59139fce2eadd06659ff0673afdca0599c2d13ac",
      "transactionIndex": "0x0",
      "blockHash": "0xcf6734bf646737a9088def987f290ab0e910fac619de98e812e8a399b3517043",
      "blockNumber": "0x8304eb",
      "gasUsed": "0x46957",
      "effectiveGasPrice": "0x4a817c801",
      "from": "0x45dce8e4f2dc005a5f28206a46cb034697eeda8e",
      "to": "0x741f0d8bde14140f62107fc60a0ee122b37d4630",
      "contractAddress": null,
      "feeToken": "0x20c000000000000000000000cfd2e14f4cdf1380",
      "feePayer": "0x45dce8e4f2dc005a5f28206a46cb034697eeda8e"
    },
    {
      "type": "0x2",
      "status": "0x1",
      "cumulativeGasUsed": "0x6d18",
      "logs": [
        {
          "address": "0xfeec000000000000000000000000000000000000",
          "topics": [
            "0xabc7758d4ca817ce0d125eb731121a1304c36077b791253be835b95472368856",
            "0x00000000000000000000000045dce8e4f2dc005a5f28206a46cb034697eeda8e",
            "0x00000000000000000000000020c0000000000000000000000000000000000000"
          ],
          "data": "0x",
          "blockHash": "0xccbeabc1ab89907a32f22f3c1d283d2ad1a66593922d8108bbc2a0b05c6ed230",
          "blockNumber": "0x8304ef",
          "blockTimestamp": "0x69afac7d",
          "transactionHash": "0x986a4db3b6a9a102c8ed7c18b49f55ba778d50f09dd952355b21b94f9bd96176",
          "transactionIndex": "0x0",
          "logIndex": "0x0",
          "removed": false
        },
        {
          "address": "0x20c0000000000000000000000000000000000000",
          "topics": [
            "0xddf252ad1be2c89b69c2b068fc378daa952ba7f163c4a11628f55a4df523b3ef",
            "0x00000000000000000000000045dce8e4f2dc005a5f28206a46cb034697eeda8e",
            "0x000000000000000000000000feec000000000000000000000000000000000000"
          ],
          "data": "0x000000000000000000000000000000000000000000000000000000000000022f",
          "blockHash": "0xccbeabc1ab89907a32f22f3c1d283d2ad1a66593922d8108bbc2a0b05c6ed230",
          "blockNumber": "0x8304ef",
          "blockTimestamp": "0x69afac7d",
          "transactionHash": "0x986a4db3b6a9a102c8ed7c18b49f55ba778d50f09dd952355b21b94f9bd96176",
          "transactionIndex": "0x0",
          "logIndex": "0x1",
          "removed": false
        }
      ],
      "logsBloom": "0x00000000000000000000000200000000000000000000000000000000000000000000040000000000000000000100000000000000000000000000000000000000000004000000000000000008000000000000000000000000000000000400000000000000000000000080000000000000000000000000000000000010100000000000000000000000000000000020000000000000800000000000000000000000000020000000000000000000000400000000000000000000000000040000000000000002000000000000000000000000001000000080000000000000000000000000000000000000000100000000800002000800000000000000000000000000",
      "transactionHash": "0x986a4db3b6a9a102c8ed7c18b49f55ba778d50f09dd952355b21b94f9bd96176",
      "transactionIndex": "0x0",
      "blockHash": "0xccbeabc1ab89907a32f22f3c1d283d2ad1a66593922d8108bbc2a0b05c6ed230",
      "blockNumber": "0x8304ef",
      "gasUsed": "0x6d18",
      "effectiveGasPrice": "0x4a817c801",
      "from": "0x45dce8e4f2dc005a5f28206a46cb034697eeda8e",
      "to": "0xfeec000000000000000000000000000000000000",
      "contractAddress": null,
      "feeToken": "0x20c0000000000000000000000000000000000000",
      "feePayer": "0x45dce8e4f2dc005a5f28206a46cb034697eeda8e"
    },
    {
      "type": "0x2",
      "status": "0x1",
      "cumulativeGasUsed": "0x4353a",
      "logs": [
        {
          "address": "0x20c0000000000000000000000000000000000000",
          "topics": [
            "0x8c5be1e5ebec7d5bd14f71427d1e84f3dd0314c0f7b2291e5b200ac8c7c3b925",
            "0x00000000000000000000000045dce8e4f2dc005a5f28206a46cb034697eeda8e",
            "0x000000000000000000000000741f0d8bde14140f62107fc60a0ee122b37d4630"
          ],
          "data": "0x0000000000000000000000000000000000000000000000000000000000023448",
          "blockHash": "0x38cb1db2902f5068b6447c83ef90ae9b330a86fb91ae10ba9640e645e28a6efc",
          "blockNumber": "0x8304f2",
          "blockTimestamp": "0x69afac7e",
          "transactionHash": "0x0da249edc8b688996a2624f21af6deea0a667c8b726d34b01002614231ef2305",
          "transactionIndex": "0x0",
          "logIndex": "0x0",
          "removed": false
        },
        {
          "address": "0x20c0000000000000000000000000000000000000",
          "topics": [
            "0xddf252ad1be2c89b69c2b068fc378daa952ba7f163c4a11628f55a4df523b3ef",
            "0x00000000000000000000000045dce8e4f2dc005a5f28206a46cb034697eeda8e",
            "0x000000000000000000000000feec000000000000000000000000000000000000"
          ],
          "data": "0x000000000000000000000000000000000000000000000000000000000000158c",
          "blockHash": "0x38cb1db2902f5068b6447c83ef90ae9b330a86fb91ae10ba9640e645e28a6efc",
          "blockNumber": "0x8304f2",
          "blockTimestamp": "0x69afac7e",
          "transactionHash": "0x0da249edc8b688996a2624f21af6deea0a667c8b726d34b01002614231ef2305",
          "transactionIndex": "0x0",
          "logIndex": "0x1",
          "removed": false
        }
      ],
      "logsBloom": "0x00000000000000000000000200000040000000000000000000000000000000000000000000000000000000000100000000000100000000000000000000200000000004000000000000000008000000000000000000000000000000000400000000000000000000000000000000000000000000000000000000000010000000000000000000000000000000000020000000000000800000000000000000000000020020000000001000000000000000000000000000000000000000000000000000000002000000000000000000000000001000000000000000000000000000000010000000000000000000000000800000000000000000000000000000000000",
      "transactionHash": "0x0da249edc8b688996a2624f21af6deea0a667c8b726d34b01002614231ef2305",
      "transactionIndex": "0x0",
      "blockHash": "0x38cb1db2902f5068b6447c83ef90ae9b330a86fb91ae10ba9640e645e28a6efc",
      "blockNumber": "0x8304f2",
      "gasUsed": "0x4353a",
      "effectiveGasPrice": "0x4a817c801",
      "from": "0x45dce8e4f2dc005a5f28206a46cb034697eeda8e",
      "to": "0x20c0000000000000000000000000000000000000",
      "contractAddress": null,
      "feeToken": "0x20c0000000000000000000000000000000000000",
      "feePayer": "0x45dce8e4f2dc005a5f28206a46cb034697eeda8e"
    },
    {
      "type": "0x2",
      "status": "0x1",
      "cumulativeGasUsed": "0x85e858",
      "logs": [
        {
          "address": "0xfeec000000000000000000000000000000000000",
          "topics": [
            "0xabc7758d4ca817ce0d125eb731121a1304c36077b791253be835b95472368856",
            "0x000000000000000000000000741f0d8bde14140f62107fc60a0ee122b37d4630",
            "0x00000000000000000000000020c0000000000000000000000000000000000000"
          ],
          "data": "0x",
          "blockHash": "0xcabeb4a722bdcee1c2861957b4f995d3b57a8139e074e344fe5590914a426456",
          "blockNumber": "0x8304f6",
          "blockTimestamp": "0x69afac81",
          "transactionHash": "0xfca62446152d8084e6c90dbb53f9cfabbc5def4e82198b61a978d34b980add37",
          "transactionIndex": "0x0",
          "logIndex": "0x0",
          "removed": false
        },
        {
          "address": "0x20c0000000000000000000000000000000000000",
          "topics": [
            "0xddf252ad1be2c89b69c2b068fc378daa952ba7f163c4a11628f55a4df523b3ef",
            "0x00000000000000000000000045dce8e4f2dc005a5f28206a46cb034697eeda8e",
            "0x000000000000000000000000741f0d8bde14140f62107fc60a0ee122b37d4630"
          ],
          "data": "0x0000000000000000000000000000000000000000000000000000000000023448",
          "blockHash": "0xcabeb4a722bdcee1c2861957b4f995d3b57a8139e074e344fe5590914a426456",
          "blockNumber": "0x8304f6",
          "blockTimestamp": "0x69afac81",
          "transactionHash": "0xfca62446152d8084e6c90dbb53f9cfabbc5def4e82198b61a978d34b980add37",
          "transactionIndex": "0x0",
          "logIndex": "0x1",
          "removed": false
        },
        {
          "address": "0x00000000e9ce0f293d1ce552768b187eba8a56d4",
          "topics": [
            "0xddf252ad1be2c89b69c2b068fc378daa952ba7f163c4a11628f55a4df523b3ef",
            "0x000000000000000000000000741f0d8bde14140f62107fc60a0ee122b37d4630",
            "0x0000000000000000000000000000000000000000000000000000000000000000"
          ],
          "data": "0x00000000000000000000000000000000000000000000000000005af3107a4000",
          "blockHash": "0xcabeb4a722bdcee1c2861957b4f995d3b57a8139e074e344fe5590914a426456",
          "blockNumber": "0x8304f6",
          "blockTimestamp": "0x69afac81",
          "transactionHash": "0xfca62446152d8084e6c90dbb53f9cfabbc5def4e82198b61a978d34b980add37",
          "transactionIndex": "0x0",
          "logIndex": "0x2",
          "removed": false
        },
        {
          "address": "0x20c0000000000000000000000000000000000000",
          "topics": [
            "0xddf252ad1be2c89b69c2b068fc378daa952ba7f163c4a11628f55a4df523b3ef",
            "0x000000000000000000000000741f0d8bde14140f62107fc60a0ee122b37d4630",
            "0x00000000000000000000000000000000e9ce0f293d1ce552768b187eba8a56d4"
          ],
          "data": "0x0000000000000000000000000000000000000000000000000000000000005e0c",
          "blockHash": "0xcabeb4a722bdcee1c2861957b4f995d3b57a8139e074e344fe5590914a426456",
          "blockNumber": "0x8304f6",
          "blockTimestamp": "0x69afac81",
          "transactionHash": "0xfca62446152d8084e6c90dbb53f9cfabbc5def4e82198b61a978d34b980add37",
          "transactionIndex": "0x0",
          "logIndex": "0x3",
          "removed": false
        },
        {
          "address": "0x20c0000000000000000000000000000000000000",
          "topics": [
            "0x8c5be1e5ebec7d5bd14f71427d1e84f3dd0314c0f7b2291e5b200ac8c7c3b925",
            "0x00000000000000000000000000000000e9ce0f293d1ce552768b187eba8a56d4",
            "0x0000000000000000000000000ceb237e109ee22374a567c6b09f373c73fa4cbb"
          ],
          "data": "0x0000000000000000000000000000000000000000000000000000000000005e0c",
          "blockHash": "0xcabeb4a722bdcee1c2861957b4f995d3b57a8139e074e344fe5590914a426456",
          "blockNumber": "0x8304f6",
          "blockTimestamp": "0x69afac81",
          "transactionHash": "0xfca62446152d8084e6c90dbb53f9cfabbc5def4e82198b61a978d34b980add37",
          "transactionIndex": "0x0",
          "logIndex": "0x4",
          "removed": false
        },
        {
          "address": "0x20c0000000000000000000000000000000000000",
          "topics": [
            "0xddf252ad1be2c89b69c2b068fc378daa952ba7f163c4a11628f55a4df523b3ef",
            "0x00000000000000000000000000000000e9ce0f293d1ce552768b187eba8a56d4",
            "0x0000000000000000000000000ceb237e109ee22374a567c6b09f373c73fa4cbb"
          ],
          "data": "0x0000000000000000000000000000000000000000000000000000000000005e0c",
          "blockHash": "0xcabeb4a722bdcee1c2861957b4f995d3b57a8139e074e344fe5590914a426456",
          "blockNumber": "0x8304f6",
          "blockTimestamp": "0x69afac81",
          "transactionHash": "0xfca62446152d8084e6c90dbb53f9cfabbc5def4e82198b61a978d34b980add37",
          "transactionIndex": "0x0",
          "logIndex": "0x5",
          "removed": false
        },
        {
          "address": "0x0ceb237e109ee22374a567c6b09f373c73fa4cbb",
          "topics": [
            "0xddf252ad1be2c89b69c2b068fc378daa952ba7f163c4a11628f55a4df523b3ef",
            "0x0000000000000000000000000000000000000000000000000000000000000000",
            "0x00000000000000000000000020bb7c2e2f4e5ca2b4c57060d1ae2615245dcc9c"
          ],
          "data": "0x0000000000000000000000000000000000000000000000000000000000005e0c",
          "blockHash": "0xcabeb4a722bdcee1c2861957b4f995d3b57a8139e074e344fe5590914a426456",
          "blockNumber": "0x8304f6",
          "blockTimestamp": "0x69afac81",
          "transactionHash": "0xfca62446152d8084e6c90dbb53f9cfabbc5def4e82198b61a978d34b980add37",
          "transactionIndex": "0x0",
          "logIndex": "0x6",
          "removed": false
        },
        {
          "address": "0x0ceb237e109ee22374a567c6b09f373c73fa4cbb",
          "topics": [
            "0x8ed59ebee7004468a5666f7566d43343b5917817e35765800064b665b66d070f",
            "0x00000000000000000000000020c0000000000000000000000000000000000000",
            "0x00000000000000000000000000000000e9ce0f293d1ce552768b187eba8a56d4",
            "0x00000000000000000000000020bb7c2e2f4e5ca2b4c57060d1ae2615245dcc9c"
          ],
          "data": "0x0000000000000000000000000000000000000000000000000000000000005e0c",
          "blockHash": "0xcabeb4a722bdcee1c2861957b4f995d3b57a8139e074e344fe5590914a426456",
          "blockNumber": "0x8304f6",
          "blockTimestamp": "0x69afac81",
          "transactionHash": "0xfca62446152d8084e6c90dbb53f9cfabbc5def4e82198b61a978d34b980add37",
          "transactionIndex": "0x0",
          "logIndex": "0x7",
          "removed": false
        },
        {
          "address": "0x572863d9247e52026e0892d9cd2e519b41edb73c",
          "topics": [
            "0x61ed099e74a97a1d7f8bb0952a88ca8b7b8ebd00c126ea04671f92a81213318a"
          ],
          "data": "0x000000000000000000000000f851abca1d0fd1df8eaba6de466a102996b7d7b20000000000000000000000000000000000000000000000000000000000004f6c",
          "blockHash": "0xcabeb4a722bdcee1c2861957b4f995d3b57a8139e074e344fe5590914a426456",
          "blockNumber": "0x8304f6",
          "blockTimestamp": "0x69afac81",
          "transactionHash": "0xfca62446152d8084e6c90dbb53f9cfabbc5def4e82198b61a978d34b980add37",
          "transactionIndex": "0x0",
          "logIndex": "0x8",
          "removed": false
        },
        {
          "address": "0x572863d9247e52026e0892d9cd2e519b41edb73c",
          "topics": [
            "0x07ea52d82345d6e838192107d8fd7123d9c2ec8e916cd0aad13fd2b60db24644"
          ],
          "data": "0x000000000000000000000000000000000000000000000000000000000000006000000000000000000000000000000000000000000000000000000000000000e00000000000000000000000000000000000000000000000000000000000000100000000000000000000000000000000000000000000000000000000000000000300000000000000000000000076faff60799021b301b45dc1bbede53f261f996100000000000000000000000097faa2a9c9bf8b4082b175a5b894ce6bac6697a8000000000000000000000000f5771acc42f3321d7193748fa0f656470bf737f20000000000000000000000000000000000000000000000000000000000000000000000000000000000000000000000000000000000000000000000000000000300000000000000000000000000000000000000000000000000000000000004e000000000000000000000000000000000000000000000000000000000000004e000000000000000000000000000000000000000000000000000000000000004e0",
          "blockHash": "0xcabeb4a722bdcee1c2861957b4f995d3b57a8139e074e344fe5590914a426456",
          "blockNumber": "0x8304f6",
          "blockTimestamp": "0x69afac81",
          "transactionHash": "0xfca62446152d8084e6c90dbb53f9cfabbc5def4e82198b61a978d34b980add37",
          "transactionIndex": "0x0",
          "logIndex": "0x9",
          "removed": false
        },
        {
          "address": "0x20bb7c2e2f4e5ca2b4c57060d1ae2615245dcc9c",
          "topics": [
            "0x1ab700d4ced0c005b164c0f789fd09fcbb0156d4c2041b8a3bfbcd961cd1567f"
          ],
          "data": "0x00000000000000000000000000000000000000000000000000000000000000600000000000000000000000000000000000000000000000000000000000000120000000000000000000000000572863d9247e52026e0892d9cd2e519b41edb73c0000000000000000000000000000000000000000000000000000000000000099010000000000000001000076ca00000000000000000000000000000000e9ce0f293d1ce552768b187eba8a56d40000762f000000000000000000000000d86fbbd0c8715d2c1f40e451e5c3514e65e7576a69131895897769d894e11182596c61c189e8c6fc31c21a6243f027a60a9cea50000000000000000000000000741f0d8bde14140f62107fc60a0ee122b37d4630000000000000006400000000000000000000000000000000000000000000000000000000000000000000000000001600030100110100000000000000000000000000030d4000000000000000000000",
          "blockHash": "0xcabeb4a722bdcee1c2861957b4f995d3b57a8139e074e344fe5590914a426456",
          "blockNumber": "0x8304f6",
          "blockTimestamp": "0x69afac81",
          "transactionHash": "0xfca62446152d8084e6c90dbb53f9cfabbc5def4e82198b61a978d34b980add37",
          "transactionIndex": "0x0",
          "logIndex": "0xa",
          "removed": false
        },
        {
          "address": "0x0ceb237e109ee22374a567c6b09f373c73fa4cbb",
          "topics": [
            "0xddf252ad1be2c89b69c2b068fc378daa952ba7f163c4a11628f55a4df523b3ef",
            "0x00000000000000000000000020bb7c2e2f4e5ca2b4c57060d1ae2615245dcc9c",
            "0x000000000000000000000000572863d9247e52026e0892d9cd2e519b41edb73c"
          ],
          "data": "0x0000000000000000000000000000000000000000000000000000000000005e0c",
          "blockHash": "0xcabeb4a722bdcee1c2861957b4f995d3b57a8139e074e344fe5590914a426456",
          "blockNumber": "0x8304f6",
          "blockTimestamp": "0x69afac81",
          "transactionHash": "0xfca62446152d8084e6c90dbb53f9cfabbc5def4e82198b61a978d34b980add37",
          "transactionIndex": "0x0",
          "logIndex": "0xb",
          "removed": false
        },
        {
          "address": "0x00000000e9ce0f293d1ce552768b187eba8a56d4",
          "topics": [
            "0x85496b760a4b7f8d66384b9df21b381f5d1b1e79f229a47aaf4c232edc2fe59a",
            "0x69131895897769d894e11182596c61c189e8c6fc31c21a6243f027a60a9cea50",
            "0x000000000000000000000000741f0d8bde14140f62107fc60a0ee122b37d4630"
          ],
          "data": "0x000000000000000000000000000000000000000000000000000000000000762f00000000000000000000000000000000000000000000000000005af3107a400000000000000000000000000000000000000000000000000000005af3107a4000",
          "blockHash": "0xcabeb4a722bdcee1c2861957b4f995d3b57a8139e074e344fe5590914a426456",
          "blockNumber": "0x8304f6",
          "blockTimestamp": "0x69afac81",
          "transactionHash": "0xfca62446152d8084e6c90dbb53f9cfabbc5def4e82198b61a978d34b980add37",
          "transactionIndex": "0x0",
          "logIndex": "0xc",
          "removed": false
        },
        {
          "address": "0x00000000fd8c4b8a413a06821456801295921a71",
          "topics": [
            "0xddf252ad1be2c89b69c2b068fc378daa952ba7f163c4a11628f55a4df523b3ef",
            "0x000000000000000000000000741f0d8bde14140f62107fc60a0ee122b37d4630",
            "0x0000000000000000000000000000000000000000000000000000000000000000"
          ],
          "data": "0x00000000000000000000000000000000000000000000000000005af3107a4000",
          "blockHash": "0xcabeb4a722bdcee1c2861957b4f995d3b57a8139e074e344fe5590914a426456",
          "blockNumber": "0x8304f6",
          "blockTimestamp": "0x69afac81",
          "transactionHash": "0xfca62446152d8084e6c90dbb53f9cfabbc5def4e82198b61a978d34b980add37",
          "transactionIndex": "0x0",
          "logIndex": "0xd",
          "removed": false
        },
        {
          "address": "0x20c0000000000000000000000000000000000000",
          "topics": [
            "0xddf252ad1be2c89b69c2b068fc378daa952ba7f163c4a11628f55a4df523b3ef",
            "0x000000000000000000000000741f0d8bde14140f62107fc60a0ee122b37d4630",
            "0x00000000000000000000000000000000fd8c4b8a413a06821456801295921a71"
          ],
          "data": "0x0000000000000000000000000000000000000000000000000000000000005e0c",
          "blockHash": "0xcabeb4a722bdcee1c2861957b4f995d3b57a8139e074e344fe5590914a426456",
          "blockNumber": "0x8304f6",
          "blockTimestamp": "0x69afac81",
          "transactionHash": "0xfca62446152d8084e6c90dbb53f9cfabbc5def4e82198b61a978d34b980add37",
          "transactionIndex": "0x0",
          "logIndex": "0xe",
          "removed": false
        },
        {
          "address": "0x20c0000000000000000000000000000000000000",
          "topics": [
            "0x8c5be1e5ebec7d5bd14f71427d1e84f3dd0314c0f7b2291e5b200ac8c7c3b925",
            "0x00000000000000000000000000000000fd8c4b8a413a06821456801295921a71",
            "0x0000000000000000000000000ceb237e109ee22374a567c6b09f373c73fa4cbb"
          ],
          "data": "0x0000000000000000000000000000000000000000000000000000000000005e0c",
          "blockHash": "0xcabeb4a722bdcee1c2861957b4f995d3b57a8139e074e344fe5590914a426456",
          "blockNumber": "0x8304f6",
          "blockTimestamp": "0x69afac81",
          "transactionHash": "0xfca62446152d8084e6c90dbb53f9cfabbc5def4e82198b61a978d34b980add37",
          "transactionIndex": "0x0",
          "logIndex": "0xf",
          "removed": false
        },
        {
          "address": "0x20c0000000000000000000000000000000000000",
          "topics": [
            "0xddf252ad1be2c89b69c2b068fc378daa952ba7f163c4a11628f55a4df523b3ef",
            "0x00000000000000000000000000000000fd8c4b8a413a06821456801295921a71",
            "0x0000000000000000000000000ceb237e109ee22374a567c6b09f373c73fa4cbb"
          ],
          "data": "0x0000000000000000000000000000000000000000000000000000000000005e0c",
          "blockHash": "0xcabeb4a722bdcee1c2861957b4f995d3b57a8139e074e344fe5590914a426456",
          "blockNumber": "0x8304f6",
          "blockTimestamp": "0x69afac81",
          "transactionHash": "0xfca62446152d8084e6c90dbb53f9cfabbc5def4e82198b61a978d34b980add37",
          "transactionIndex": "0x0",
          "logIndex": "0x10",
          "removed": false
        },
        {
          "address": "0x0ceb237e109ee22374a567c6b09f373c73fa4cbb",
          "topics": [
            "0xddf252ad1be2c89b69c2b068fc378daa952ba7f163c4a11628f55a4df523b3ef",
            "0x0000000000000000000000000000000000000000000000000000000000000000",
            "0x00000000000000000000000020bb7c2e2f4e5ca2b4c57060d1ae2615245dcc9c"
          ],
          "data": "0x0000000000000000000000000000000000000000000000000000000000005e0c",
          "blockHash": "0xcabeb4a722bdcee1c2861957b4f995d3b57a8139e074e344fe5590914a426456",
          "blockNumber": "0x8304f6",
          "blockTimestamp": "0x69afac81",
          "transactionHash": "0xfca62446152d8084e6c90dbb53f9cfabbc5def4e82198b61a978d34b980add37",
          "transactionIndex": "0x0",
          "logIndex": "0x11",
          "removed": false
        },
        {
          "address": "0x0ceb237e109ee22374a567c6b09f373c73fa4cbb",
          "topics": [
            "0x8ed59ebee7004468a5666f7566d43343b5917817e35765800064b665b66d070f",
            "0x00000000000000000000000020c0000000000000000000000000000000000000",
            "0x00000000000000000000000000000000fd8c4b8a413a06821456801295921a71",
            "0x00000000000000000000000020bb7c2e2f4e5ca2b4c57060d1ae2615245dcc9c"
          ],
          "data": "0x0000000000000000000000000000000000000000000000000000000000005e0c",
          "blockHash": "0xcabeb4a722bdcee1c2861957b4f995d3b57a8139e074e344fe5590914a426456",
          "blockNumber": "0x8304f6",
          "blockTimestamp": "0x69afac81",
          "transactionHash": "0xfca62446152d8084e6c90dbb53f9cfabbc5def4e82198b61a978d34b980add37",
          "transactionIndex": "0x0",
          "logIndex": "0x12",
          "removed": false
        },
        {
          "address": "0x572863d9247e52026e0892d9cd2e519b41edb73c",
          "topics": [
            "0x61ed099e74a97a1d7f8bb0952a88ca8b7b8ebd00c126ea04671f92a81213318a"
          ],
          "data": "0x000000000000000000000000f851abca1d0fd1df8eaba6de466a102996b7d7b20000000000000000000000000000000000000000000000000000000000004f6c",
          "blockHash": "0xcabeb4a722bdcee1c2861957b4f995d3b57a8139e074e344fe5590914a426456",
          "blockNumber": "0x8304f6",
          "blockTimestamp": "0x69afac81",
          "transactionHash": "0xfca62446152d8084e6c90dbb53f9cfabbc5def4e82198b61a978d34b980add37",
          "transactionIndex": "0x0",
          "logIndex": "0x13",
          "removed": false
        },
        {
          "address": "0x572863d9247e52026e0892d9cd2e519b41edb73c",
          "topics": [
            "0x07ea52d82345d6e838192107d8fd7123d9c2ec8e916cd0aad13fd2b60db24644"
          ],
          "data": "0x000000000000000000000000000000000000000000000000000000000000006000000000000000000000000000000000000000000000000000000000000000e00000000000000000000000000000000000000000000000000000000000000100000000000000000000000000000000000000000000000000000000000000000300000000000000000000000076faff60799021b301b45dc1bbede53f261f996100000000000000000000000097faa2a9c9bf8b4082b175a5b894ce6bac6697a8000000000000000000000000f5771acc42f3321d7193748fa0f656470bf737f20000000000000000000000000000000000000000000000000000000000000000000000000000000000000000000000000000000000000000000000000000000300000000000000000000000000000000000000000000000000000000000004e000000000000000000000000000000000000000000000000000000000000004e000000000000000000000000000000000000000000000000000000000000004e0",
          "blockHash": "0xcabeb4a722bdcee1c2861957b4f995d3b57a8139e074e344fe5590914a426456",
          "blockNumber": "0x8304f6",
          "blockTimestamp": "0x69afac81",
          "transactionHash": "0xfca62446152d8084e6c90dbb53f9cfabbc5def4e82198b61a978d34b980add37",
          "transactionIndex": "0x0",
          "logIndex": "0x14",
          "removed": false
        },
        {
          "address": "0x20bb7c2e2f4e5ca2b4c57060d1ae2615245dcc9c",
          "topics": [
            "0x1ab700d4ced0c005b164c0f789fd09fcbb0156d4c2041b8a3bfbcd961cd1567f"
          ],
          "data": "0x00000000000000000000000000000000000000000000000000000000000000600000000000000000000000000000000000000000000000000000000000000120000000000000000000000000572863d9247e52026e0892d9cd2e519b41edb73c0000000000000000000000000000000000000000000000000000000000000099010000000000000001000076ca00000000000000000000000000000000fd8c4b8a413a06821456801295921a710000762f00000000000000000000000088aa7854d3b2daa5e37e7ce73a1f39669623a361ffaf360484d06a90b741992cd15631d89350216cc3e60b9177631d5848a8c6cb000000000000000000000000741f0d8bde14140f62107fc60a0ee122b37d4630000000000000006400000000000000000000000000000000000000000000000000000000000000000000000000001600030100110100000000000000000000000000030d4000000000000000000000",
          "blockHash": "0xcabeb4a722bdcee1c2861957b4f995d3b57a8139e074e344fe5590914a426456",
          "blockNumber": "0x8304f6",
          "blockTimestamp": "0x69afac81",
          "transactionHash": "0xfca62446152d8084e6c90dbb53f9cfabbc5def4e82198b61a978d34b980add37",
          "transactionIndex": "0x0",
          "logIndex": "0x15",
          "removed": false
        },
        {
          "address": "0x0ceb237e109ee22374a567c6b09f373c73fa4cbb",
          "topics": [
            "0xddf252ad1be2c89b69c2b068fc378daa952ba7f163c4a11628f55a4df523b3ef",
            "0x00000000000000000000000020bb7c2e2f4e5ca2b4c57060d1ae2615245dcc9c",
            "0x000000000000000000000000572863d9247e52026e0892d9cd2e519b41edb73c"
          ],
          "data": "0x0000000000000000000000000000000000000000000000000000000000005e0c",
          "blockHash": "0xcabeb4a722bdcee1c2861957b4f995d3b57a8139e074e344fe5590914a426456",
          "blockNumber": "0x8304f6",
          "blockTimestamp": "0x69afac81",
          "transactionHash": "0xfca62446152d8084e6c90dbb53f9cfabbc5def4e82198b61a978d34b980add37",
          "transactionIndex": "0x0",
          "logIndex": "0x16",
          "removed": false
        },
        {
          "address": "0x00000000fd8c4b8a413a06821456801295921a71",
          "topics": [
            "0x85496b760a4b7f8d66384b9df21b381f5d1b1e79f229a47aaf4c232edc2fe59a",
            "0xffaf360484d06a90b741992cd15631d89350216cc3e60b9177631d5848a8c6cb",
            "0x000000000000000000000000741f0d8bde14140f62107fc60a0ee122b37d4630"
          ],
          "data": "0x000000000000000000000000000000000000000000000000000000000000762f00000000000000000000000000000000000000000000000000005af3107a400000000000000000000000000000000000000000000000000000005af3107a4000",
          "blockHash": "0xcabeb4a722bdcee1c2861957b4f995d3b57a8139e074e344fe5590914a426456",
          "blockNumber": "0x8304f6",
          "blockTimestamp": "0x69afac81",
          "transactionHash": "0xfca62446152d8084e6c90dbb53f9cfabbc5def4e82198b61a978d34b980add37",
          "transactionIndex": "0x0",
          "logIndex": "0x17",
          "removed": false
        },
        {
          "address": "0x00000000883279097a49db1f2af954ead0c77e3c",
          "topics": [
            "0xddf252ad1be2c89b69c2b068fc378daa952ba7f163c4a11628f55a4df523b3ef",
            "0x000000000000000000000000741f0d8bde14140f62107fc60a0ee122b37d4630",
            "0x0000000000000000000000000000000000000000000000000000000000000000"
          ],
          "data": "0x00000000000000000000000000000000000000000000000000005af3107a4000",
          "blockHash": "0xcabeb4a722bdcee1c2861957b4f995d3b57a8139e074e344fe5590914a426456",
          "blockNumber": "0x8304f6",
          "blockTimestamp": "0x69afac81",
          "transactionHash": "0xfca62446152d8084e6c90dbb53f9cfabbc5def4e82198b61a978d34b980add37",
          "transactionIndex": "0x0",
          "logIndex": "0x18",
          "removed": false
        },
        {
          "address": "0x20c0000000000000000000000000000000000000",
          "topics": [
            "0xddf252ad1be2c89b69c2b068fc378daa952ba7f163c4a11628f55a4df523b3ef",
            "0x000000000000000000000000741f0d8bde14140f62107fc60a0ee122b37d4630",
            "0x00000000000000000000000000000000883279097a49db1f2af954ead0c77e3c"
          ],
          "data": "0x0000000000000000000000000000000000000000000000000000000000005e0c",
          "blockHash": "0xcabeb4a722bdcee1c2861957b4f995d3b57a8139e074e344fe5590914a426456",
          "blockNumber": "0x8304f6",
          "blockTimestamp": "0x69afac81",
          "transactionHash": "0xfca62446152d8084e6c90dbb53f9cfabbc5def4e82198b61a978d34b980add37",
          "transactionIndex": "0x0",
          "logIndex": "0x19",
          "removed": false
        },
        {
          "address": "0x20c0000000000000000000000000000000000000",
          "topics": [
            "0x8c5be1e5ebec7d5bd14f71427d1e84f3dd0314c0f7b2291e5b200ac8c7c3b925",
            "0x00000000000000000000000000000000883279097a49db1f2af954ead0c77e3c",
            "0x0000000000000000000000000ceb237e109ee22374a567c6b09f373c73fa4cbb"
          ],
          "data": "0x0000000000000000000000000000000000000000000000000000000000005e0c",
          "blockHash": "0xcabeb4a722bdcee1c2861957b4f995d3b57a8139e074e344fe5590914a426456",
          "blockNumber": "0x8304f6",
          "blockTimestamp": "0x69afac81",
          "transactionHash": "0xfca62446152d8084e6c90dbb53f9cfabbc5def4e82198b61a978d34b980add37",
          "transactionIndex": "0x0",
          "logIndex": "0x1a",
          "removed": false
        },
        {
          "address": "0x20c0000000000000000000000000000000000000",
          "topics": [
            "0xddf252ad1be2c89b69c2b068fc378daa952ba7f163c4a11628f55a4df523b3ef",
            "0x00000000000000000000000000000000883279097a49db1f2af954ead0c77e3c",
            "0x0000000000000000000000000ceb237e109ee22374a567c6b09f373c73fa4cbb"
          ],
          "data": "0x0000000000000000000000000000000000000000000000000000000000005e0c",
          "blockHash": "0xcabeb4a722bdcee1c2861957b4f995d3b57a8139e074e344fe5590914a426456",
          "blockNumber": "0x8304f6",
          "blockTimestamp": "0x69afac81",
          "transactionHash": "0xfca62446152d8084e6c90dbb53f9cfabbc5def4e82198b61a978d34b980add37",
          "transactionIndex": "0x0",
          "logIndex": "0x1b",
          "removed": false
        },
        {
          "address": "0x0ceb237e109ee22374a567c6b09f373c73fa4cbb",
          "topics": [
            "0xddf252ad1be2c89b69c2b068fc378daa952ba7f163c4a11628f55a4df523b3ef",
            "0x0000000000000000000000000000000000000000000000000000000000000000",
            "0x00000000000000000000000020bb7c2e2f4e5ca2b4c57060d1ae2615245dcc9c"
          ],
          "data": "0x0000000000000000000000000000000000000000000000000000000000005e0c",
          "blockHash": "0xcabeb4a722bdcee1c2861957b4f995d3b57a8139e074e344fe5590914a426456",
          "blockNumber": "0x8304f6",
          "blockTimestamp": "0x69afac81",
          "transactionHash": "0xfca62446152d8084e6c90dbb53f9cfabbc5def4e82198b61a978d34b980add37",
          "transactionIndex": "0x0",
          "logIndex": "0x1c",
          "removed": false
        },
        {
          "address": "0x0ceb237e109ee22374a567c6b09f373c73fa4cbb",
          "topics": [
            "0x8ed59ebee7004468a5666f7566d43343b5917817e35765800064b665b66d070f",
            "0x00000000000000000000000020c0000000000000000000000000000000000000",
            "0x00000000000000000000000000000000883279097a49db1f2af954ead0c77e3c",
            "0x00000000000000000000000020bb7c2e2f4e5ca2b4c57060d1ae2615245dcc9c"
          ],
          "data": "0x0000000000000000000000000000000000000000000000000000000000005e0c",
          "blockHash": "0xcabeb4a722bdcee1c2861957b4f995d3b57a8139e074e344fe5590914a426456",
          "blockNumber": "0x8304f6",
          "blockTimestamp": "0x69afac81",
          "transactionHash": "0xfca62446152d8084e6c90dbb53f9cfabbc5def4e82198b61a978d34b980add37",
          "transactionIndex": "0x0",
          "logIndex": "0x1d",
          "removed": false
        },
        {
          "address": "0x572863d9247e52026e0892d9cd2e519b41edb73c",
          "topics": [
            "0x61ed099e74a97a1d7f8bb0952a88ca8b7b8ebd00c126ea04671f92a81213318a"
          ],
          "data": "0x000000000000000000000000f851abca1d0fd1df8eaba6de466a102996b7d7b20000000000000000000000000000000000000000000000000000000000004f6c",
          "blockHash": "0xcabeb4a722bdcee1c2861957b4f995d3b57a8139e074e344fe5590914a426456",
          "blockNumber": "0x8304f6",
          "blockTimestamp": "0x69afac81",
          "transactionHash": "0xfca62446152d8084e6c90dbb53f9cfabbc5def4e82198b61a978d34b980add37",
          "transactionIndex": "0x0",
          "logIndex": "0x1e",
          "removed": false
        },
        {
          "address": "0x572863d9247e52026e0892d9cd2e519b41edb73c",
          "topics": [
            "0x07ea52d82345d6e838192107d8fd7123d9c2ec8e916cd0aad13fd2b60db24644"
          ],
          "data": "0x000000000000000000000000000000000000000000000000000000000000006000000000000000000000000000000000000000000000000000000000000000e00000000000000000000000000000000000000000000000000000000000000100000000000000000000000000000000000000000000000000000000000000000300000000000000000000000076faff60799021b301b45dc1bbede53f261f996100000000000000000000000097faa2a9c9bf8b4082b175a5b894ce6bac6697a8000000000000000000000000f5771acc42f3321d7193748fa0f656470bf737f20000000000000000000000000000000000000000000000000000000000000000000000000000000000000000000000000000000000000000000000000000000300000000000000000000000000000000000000000000000000000000000004e000000000000000000000000000000000000000000000000000000000000004e000000000000000000000000000000000000000000000000000000000000004e0",
          "blockHash": "0xcabeb4a722bdcee1c2861957b4f995d3b57a8139e074e344fe5590914a426456",
          "blockNumber": "0x8304f6",
          "blockTimestamp": "0x69afac81",
          "transactionHash": "0xfca62446152d8084e6c90dbb53f9cfabbc5def4e82198b61a978d34b980add37",
          "transactionIndex": "0x0",
          "logIndex": "0x1f",
          "removed": false
        },
        {
          "address": "0x20bb7c2e2f4e5ca2b4c57060d1ae2615245dcc9c",
          "topics": [
            "0x1ab700d4ced0c005b164c0f789fd09fcbb0156d4c2041b8a3bfbcd961cd1567f"
          ],
          "data": "0x00000000000000000000000000000000000000000000000000000000000000600000000000000000000000000000000000000000000000000000000000000120000000000000000000000000572863d9247e52026e0892d9cd2e519b41edb73c0000000000000000000000000000000000000000000000000000000000000099010000000000000001000076ca00000000000000000000000000000000883279097a49db1f2af954ead0c77e3c0000762f000000000000000000000000999dfabe3b1cc2ef66eb032eea42fea329bba16845467782c55f4e12b8c24e10d21329b2d94c8e98840541486eab972981577080000000000000000000000000741f0d8bde14140f62107fc60a0ee122b37d4630000000000000006400000000000000000000000000000000000000000000000000000000000000000000000000001600030100110100000000000000000000000000030d4000000000000000000000",
          "blockHash": "0xcabeb4a722bdcee1c2861957b4f995d3b57a8139e074e344fe5590914a426456",
          "blockNumber": "0x8304f6",
          "blockTimestamp": "0x69afac81",
          "transactionHash": "0xfca62446152d8084e6c90dbb53f9cfabbc5def4e82198b61a978d34b980add37",
          "transactionIndex": "0x0",
          "logIndex": "0x20",
          "removed": false
        },
        {
          "address": "0x0ceb237e109ee22374a567c6b09f373c73fa4cbb",
          "topics": [
            "0xddf252ad1be2c89b69c2b068fc378daa952ba7f163c4a11628f55a4df523b3ef",
            "0x00000000000000000000000020bb7c2e2f4e5ca2b4c57060d1ae2615245dcc9c",
            "0x000000000000000000000000572863d9247e52026e0892d9cd2e519b41edb73c"
          ],
          "data": "0x0000000000000000000000000000000000000000000000000000000000005e0c",
          "blockHash": "0xcabeb4a722bdcee1c2861957b4f995d3b57a8139e074e344fe5590914a426456",
          "blockNumber": "0x8304f6",
          "blockTimestamp": "0x69afac81",
          "transactionHash": "0xfca62446152d8084e6c90dbb53f9cfabbc5def4e82198b61a978d34b980add37",
          "transactionIndex": "0x0",
          "logIndex": "0x21",
          "removed": false
        },
        {
          "address": "0x00000000883279097a49db1f2af954ead0c77e3c",
          "topics": [
            "0x85496b760a4b7f8d66384b9df21b381f5d1b1e79f229a47aaf4c232edc2fe59a",
            "0x45467782c55f4e12b8c24e10d21329b2d94c8e98840541486eab972981577080",
            "0x000000000000000000000000741f0d8bde14140f62107fc60a0ee122b37d4630"
          ],
          "data": "0x000000000000000000000000000000000000000000000000000000000000762f00000000000000000000000000000000000000000000000000005af3107a400000000000000000000000000000000000000000000000000000005af3107a4000",
          "blockHash": "0xcabeb4a722bdcee1c2861957b4f995d3b57a8139e074e344fe5590914a426456",
          "blockNumber": "0x8304f6",
          "blockTimestamp": "0x69afac81",
          "transactionHash": "0xfca62446152d8084e6c90dbb53f9cfabbc5def4e82198b61a978d34b980add37",
          "transactionIndex": "0x0",
          "logIndex": "0x22",
          "removed": false
        },
        {
          "address": "0x00000000d61733e7a393a10a5b48c311abe8f1e5",
          "topics": [
            "0x603e191ccb1fad1c0004c9c1f37101358f84c3cf059031e9ec9b0c17cad34188",
            "0x000000000000000000000000000000000000000000000000000000000000762f"
          ],
          "data": "0x00000000000000000000000000000000000000000000000000000000000000000000000000000000000000000000000000000000000000000000000000000064",
          "blockHash": "0xcabeb4a722bdcee1c2861957b4f995d3b57a8139e074e344fe5590914a426456",
          "blockNumber": "0x8304f6",
          "blockTimestamp": "0x69afac81",
          "transactionHash": "0xfca62446152d8084e6c90dbb53f9cfabbc5def4e82198b61a978d34b980add37",
          "transactionIndex": "0x0",
          "logIndex": "0x23",
          "removed": false
        },
        {
          "address": "0x00000000d61733e7a393a10a5b48c311abe8f1e5",
          "topics": [
            "0xd2ff7607bbad14e866630d67da40c9a9cedd964cce5ce4c3dc4176133954ef98"
          ],
          "data": "0x00000000000000000000000000000000000000000000000000000000000000000000000000000000000000000000000000000000000000000000000000000064",
          "blockHash": "0xcabeb4a722bdcee1c2861957b4f995d3b57a8139e074e344fe5590914a426456",
          "blockNumber": "0x8304f6",
          "blockTimestamp": "0x69afac81",
          "transactionHash": "0xfca62446152d8084e6c90dbb53f9cfabbc5def4e82198b61a978d34b980add37",
          "transactionIndex": "0x0",
          "logIndex": "0x24",
          "removed": false
        },
        {
          "address": "0x20c0000000000000000000003554d28269e0f3c2",
          "topics": [
            "0xddf252ad1be2c89b69c2b068fc378daa952ba7f163c4a11628f55a4df523b3ef",
            "0x000000000000000000000000741f0d8bde14140f62107fc60a0ee122b37d4630",
            "0x00000000000000000000000000000000d61733e7a393a10a5b48c311abe8f1e5"
          ],
          "data": "0x0000000000000000000000000000000000000000000000000000000000000064",
          "blockHash": "0xcabeb4a722bdcee1c2861957b4f995d3b57a8139e074e344fe5590914a426456",
          "blockNumber": "0x8304f6",
          "blockTimestamp": "0x69afac81",
          "transactionHash": "0xfca62446152d8084e6c90dbb53f9cfabbc5def4e82198b61a978d34b980add37",
          "transactionIndex": "0x0",
          "logIndex": "0x25",
          "removed": false
        },
        {
          "address": "0x20c0000000000000000000003554d28269e0f3c2",
          "topics": [
            "0xddf252ad1be2c89b69c2b068fc378daa952ba7f163c4a11628f55a4df523b3ef",
            "0x00000000000000000000000000000000d61733e7a393a10a5b48c311abe8f1e5",
            "0x0000000000000000000000000000000000000000000000000000000000000000"
          ],
          "data": "0x0000000000000000000000000000000000000000000000000000000000000064",
          "blockHash": "0xcabeb4a722bdcee1c2861957b4f995d3b57a8139e074e344fe5590914a426456",
          "blockNumber": "0x8304f6",
          "blockTimestamp": "0x69afac81",
          "transactionHash": "0xfca62446152d8084e6c90dbb53f9cfabbc5def4e82198b61a978d34b980add37",
          "transactionIndex": "0x0",
          "logIndex": "0x26",
          "removed": false
        },
        {
          "address": "0x20c0000000000000000000003554d28269e0f3c2",
          "topics": [
            "0xcc16f5dbb4873280815c1ee09dbd06736cffcc184412cf7a71a0fdb75d397ca5",
            "0x00000000000000000000000000000000d61733e7a393a10a5b48c311abe8f1e5"
          ],
          "data": "0x0000000000000000000000000000000000000000000000000000000000000064",
          "blockHash": "0xcabeb4a722bdcee1c2861957b4f995d3b57a8139e074e344fe5590914a426456",
          "blockNumber": "0x8304f6",
          "blockTimestamp": "0x69afac81",
          "transactionHash": "0xfca62446152d8084e6c90dbb53f9cfabbc5def4e82198b61a978d34b980add37",
          "transactionIndex": "0x0",
          "logIndex": "0x27",
          "removed": false
        },
        {
          "address": "0x20c0000000000000000000000000000000000000",
          "topics": [
            "0xddf252ad1be2c89b69c2b068fc378daa952ba7f163c4a11628f55a4df523b3ef",
            "0x000000000000000000000000741f0d8bde14140f62107fc60a0ee122b37d4630",
            "0x00000000000000000000000000000000d61733e7a393a10a5b48c311abe8f1e5"
          ],
          "data": "0x0000000000000000000000000000000000000000000000000000000000005e0c",
          "blockHash": "0xcabeb4a722bdcee1c2861957b4f995d3b57a8139e074e344fe5590914a426456",
          "blockNumber": "0x8304f6",
          "blockTimestamp": "0x69afac81",
          "transactionHash": "0xfca62446152d8084e6c90dbb53f9cfabbc5def4e82198b61a978d34b980add37",
          "transactionIndex": "0x0",
          "logIndex": "0x28",
          "removed": false
        },
        {
          "address": "0x20c0000000000000000000000000000000000000",
          "topics": [
            "0x8c5be1e5ebec7d5bd14f71427d1e84f3dd0314c0f7b2291e5b200ac8c7c3b925",
            "0x00000000000000000000000000000000d61733e7a393a10a5b48c311abe8f1e5",
            "0x0000000000000000000000000ceb237e109ee22374a567c6b09f373c73fa4cbb"
          ],
          "data": "0x0000000000000000000000000000000000000000000000000000000000005e0c",
          "blockHash": "0xcabeb4a722bdcee1c2861957b4f995d3b57a8139e074e344fe5590914a426456",
          "blockNumber": "0x8304f6",
          "blockTimestamp": "0x69afac81",
          "transactionHash": "0xfca62446152d8084e6c90dbb53f9cfabbc5def4e82198b61a978d34b980add37",
          "transactionIndex": "0x0",
          "logIndex": "0x29",
          "removed": false
        },
        {
          "address": "0x20c0000000000000000000000000000000000000",
          "topics": [
            "0xddf252ad1be2c89b69c2b068fc378daa952ba7f163c4a11628f55a4df523b3ef",
            "0x00000000000000000000000000000000d61733e7a393a10a5b48c311abe8f1e5",
            "0x0000000000000000000000000ceb237e109ee22374a567c6b09f373c73fa4cbb"
          ],
          "data": "0x0000000000000000000000000000000000000000000000000000000000005e0c",
          "blockHash": "0xcabeb4a722bdcee1c2861957b4f995d3b57a8139e074e344fe5590914a426456",
          "blockNumber": "0x8304f6",
          "blockTimestamp": "0x69afac81",
          "transactionHash": "0xfca62446152d8084e6c90dbb53f9cfabbc5def4e82198b61a978d34b980add37",
          "transactionIndex": "0x0",
          "logIndex": "0x2a",
          "removed": false
        },
        {
          "address": "0x0ceb237e109ee22374a567c6b09f373c73fa4cbb",
          "topics": [
            "0xddf252ad1be2c89b69c2b068fc378daa952ba7f163c4a11628f55a4df523b3ef",
            "0x0000000000000000000000000000000000000000000000000000000000000000",
            "0x00000000000000000000000020bb7c2e2f4e5ca2b4c57060d1ae2615245dcc9c"
          ],
          "data": "0x0000000000000000000000000000000000000000000000000000000000005e0c",
          "blockHash": "0xcabeb4a722bdcee1c2861957b4f995d3b57a8139e074e344fe5590914a426456",
          "blockNumber": "0x8304f6",
          "blockTimestamp": "0x69afac81",
          "transactionHash": "0xfca62446152d8084e6c90dbb53f9cfabbc5def4e82198b61a978d34b980add37",
          "transactionIndex": "0x0",
          "logIndex": "0x2b",
          "removed": false
        },
        {
          "address": "0x0ceb237e109ee22374a567c6b09f373c73fa4cbb",
          "topics": [
            "0x8ed59ebee7004468a5666f7566d43343b5917817e35765800064b665b66d070f",
            "0x00000000000000000000000020c0000000000000000000000000000000000000",
            "0x00000000000000000000000000000000d61733e7a393a10a5b48c311abe8f1e5",
            "0x00000000000000000000000020bb7c2e2f4e5ca2b4c57060d1ae2615245dcc9c"
          ],
          "data": "0x0000000000000000000000000000000000000000000000000000000000005e0c",
          "blockHash": "0xcabeb4a722bdcee1c2861957b4f995d3b57a8139e074e344fe5590914a426456",
          "blockNumber": "0x8304f6",
          "blockTimestamp": "0x69afac81",
          "transactionHash": "0xfca62446152d8084e6c90dbb53f9cfabbc5def4e82198b61a978d34b980add37",
          "transactionIndex": "0x0",
          "logIndex": "0x2c",
          "removed": false
        },
        {
          "address": "0x572863d9247e52026e0892d9cd2e519b41edb73c",
          "topics": [
            "0x61ed099e74a97a1d7f8bb0952a88ca8b7b8ebd00c126ea04671f92a81213318a"
          ],
          "data": "0x000000000000000000000000f851abca1d0fd1df8eaba6de466a102996b7d7b20000000000000000000000000000000000000000000000000000000000004f6c",
          "blockHash": "0xcabeb4a722bdcee1c2861957b4f995d3b57a8139e074e344fe5590914a426456",
          "blockNumber": "0x8304f6",
          "blockTimestamp": "0x69afac81",
          "transactionHash": "0xfca62446152d8084e6c90dbb53f9cfabbc5def4e82198b61a978d34b980add37",
          "transactionIndex": "0x0",
          "logIndex": "0x2d",
          "removed": false
        },
        {
          "address": "0x572863d9247e52026e0892d9cd2e519b41edb73c",
          "topics": [
            "0x07ea52d82345d6e838192107d8fd7123d9c2ec8e916cd0aad13fd2b60db24644"
          ],
          "data": "0x000000000000000000000000000000000000000000000000000000000000006000000000000000000000000000000000000000000000000000000000000000e00000000000000000000000000000000000000000000000000000000000000100000000000000000000000000000000000000000000000000000000000000000300000000000000000000000076faff60799021b301b45dc1bbede53f261f996100000000000000000000000097faa2a9c9bf8b4082b175a5b894ce6bac6697a8000000000000000000000000f5771acc42f3321d7193748fa0f656470bf737f20000000000000000000000000000000000000000000000000000000000000000000000000000000000000000000000000000000000000000000000000000000300000000000000000000000000000000000000000000000000000000000004e000000000000000000000000000000000000000000000000000000000000004e000000000000000000000000000000000000000000000000000000000000004e0",
          "blockHash": "0xcabeb4a722bdcee1c2861957b4f995d3b57a8139e074e344fe5590914a426456",
          "blockNumber": "0x8304f6",
          "blockTimestamp": "0x69afac81",
          "transactionHash": "0xfca62446152d8084e6c90dbb53f9cfabbc5def4e82198b61a978d34b980add37",
          "transactionIndex": "0x0",
          "logIndex": "0x2e",
          "removed": false
        },
        {
          "address": "0x20bb7c2e2f4e5ca2b4c57060d1ae2615245dcc9c",
          "topics": [
            "0x1ab700d4ced0c005b164c0f789fd09fcbb0156d4c2041b8a3bfbcd961cd1567f"
          ],
          "data": "0x00000000000000000000000000000000000000000000000000000000000000600000000000000000000000000000000000000000000000000000000000000120000000000000000000000000572863d9247e52026e0892d9cd2e519b41edb73c0000000000000000000000000000000000000000000000000000000000000099010000000000000001000076ca00000000000000000000000000000000d61733e7a393a10a5b48c311abe8f1e50000762f00000000000000000000000096a394058e2b84a89bac9667b19661ed003cf5d4dc0a26828a7ab6bc4bd131de257fc11c6d370aecedd9f23f428a9b2688c4ab0e000000000000000000000000741f0d8bde14140f62107fc60a0ee122b37d4630000000000000006400000000000000000000000000000000000000000000000000000000000000000000000000001600030100110100000000000000000000000000030d4000000000000000000000",
          "blockHash": "0xcabeb4a722bdcee1c2861957b4f995d3b57a8139e074e344fe5590914a426456",
          "blockNumber": "0x8304f6",
          "blockTimestamp": "0x69afac81",
          "transactionHash": "0xfca62446152d8084e6c90dbb53f9cfabbc5def4e82198b61a978d34b980add37",
          "transactionIndex": "0x0",
          "logIndex": "0x2f",
          "removed": false
        },
        {
          "address": "0x0ceb237e109ee22374a567c6b09f373c73fa4cbb",
          "topics": [
            "0xddf252ad1be2c89b69c2b068fc378daa952ba7f163c4a11628f55a4df523b3ef",
            "0x00000000000000000000000020bb7c2e2f4e5ca2b4c57060d1ae2615245dcc9c",
            "0x000000000000000000000000572863d9247e52026e0892d9cd2e519b41edb73c"
          ],
          "data": "0x0000000000000000000000000000000000000000000000000000000000005e0c",
          "blockHash": "0xcabeb4a722bdcee1c2861957b4f995d3b57a8139e074e344fe5590914a426456",
          "blockNumber": "0x8304f6",
          "blockTimestamp": "0x69afac81",
          "transactionHash": "0xfca62446152d8084e6c90dbb53f9cfabbc5def4e82198b61a978d34b980add37",
          "transactionIndex": "0x0",
          "logIndex": "0x30",
          "removed": false
        },
        {
          "address": "0x00000000d61733e7a393a10a5b48c311abe8f1e5",
          "topics": [
            "0x85496b760a4b7f8d66384b9df21b381f5d1b1e79f229a47aaf4c232edc2fe59a",
            "0xdc0a26828a7ab6bc4bd131de257fc11c6d370aecedd9f23f428a9b2688c4ab0e",
            "0x000000000000000000000000741f0d8bde14140f62107fc60a0ee122b37d4630"
          ],
          "data": "0x000000000000000000000000000000000000000000000000000000000000762f00000000000000000000000000000000000000000000000000000000000000640000000000000000000000000000000000000000000000000000000000000064",
          "blockHash": "0xcabeb4a722bdcee1c2861957b4f995d3b57a8139e074e344fe5590914a426456",
          "blockNumber": "0x8304f6",
          "blockTimestamp": "0x69afac81",
          "transactionHash": "0xfca62446152d8084e6c90dbb53f9cfabbc5def4e82198b61a978d34b980add37",
          "transactionIndex": "0x0",
          "logIndex": "0x31",
          "removed": false
        },
        {
          "address": "0x000000008c3930dca540bb9b3a5d0ee78fca9a4c",
          "topics": [
            "0xddf252ad1be2c89b69c2b068fc378daa952ba7f163c4a11628f55a4df523b3ef",
            "0x000000000000000000000000741f0d8bde14140f62107fc60a0ee122b37d4630",
            "0x0000000000000000000000000000000000000000000000000000000000000000"
          ],
          "data": "0x00000000000000000000000000000000000000000000000000005af3107a4000",
          "blockHash": "0xcabeb4a722bdcee1c2861957b4f995d3b57a8139e074e344fe5590914a426456",
          "blockNumber": "0x8304f6",
          "blockTimestamp": "0x69afac81",
          "transactionHash": "0xfca62446152d8084e6c90dbb53f9cfabbc5def4e82198b61a978d34b980add37",
          "transactionIndex": "0x0",
          "logIndex": "0x32",
          "removed": false
        },
        {
          "address": "0x20c0000000000000000000000000000000000000",
          "topics": [
            "0xddf252ad1be2c89b69c2b068fc378daa952ba7f163c4a11628f55a4df523b3ef",
            "0x000000000000000000000000741f0d8bde14140f62107fc60a0ee122b37d4630",
            "0x000000000000000000000000000000008c3930dca540bb9b3a5d0ee78fca9a4c"
          ],
          "data": "0x0000000000000000000000000000000000000000000000000000000000005e0c",
          "blockHash": "0xcabeb4a722bdcee1c2861957b4f995d3b57a8139e074e344fe5590914a426456",
          "blockNumber": "0x8304f6",
          "blockTimestamp": "0x69afac81",
          "transactionHash": "0xfca62446152d8084e6c90dbb53f9cfabbc5def4e82198b61a978d34b980add37",
          "transactionIndex": "0x0",
          "logIndex": "0x33",
          "removed": false
        },
        {
          "address": "0x20c0000000000000000000000000000000000000",
          "topics": [
            "0x8c5be1e5ebec7d5bd14f71427d1e84f3dd0314c0f7b2291e5b200ac8c7c3b925",
            "0x000000000000000000000000000000008c3930dca540bb9b3a5d0ee78fca9a4c",
            "0x0000000000000000000000000ceb237e109ee22374a567c6b09f373c73fa4cbb"
          ],
          "data": "0x0000000000000000000000000000000000000000000000000000000000005e0c",
          "blockHash": "0xcabeb4a722bdcee1c2861957b4f995d3b57a8139e074e344fe5590914a426456",
          "blockNumber": "0x8304f6",
          "blockTimestamp": "0x69afac81",
          "transactionHash": "0xfca62446152d8084e6c90dbb53f9cfabbc5def4e82198b61a978d34b980add37",
          "transactionIndex": "0x0",
          "logIndex": "0x34",
          "removed": false
        },
        {
          "address": "0x20c0000000000000000000000000000000000000",
          "topics": [
            "0xddf252ad1be2c89b69c2b068fc378daa952ba7f163c4a11628f55a4df523b3ef",
            "0x000000000000000000000000000000008c3930dca540bb9b3a5d0ee78fca9a4c",
            "0x0000000000000000000000000ceb237e109ee22374a567c6b09f373c73fa4cbb"
          ],
          "data": "0x0000000000000000000000000000000000000000000000000000000000005e0c",
          "blockHash": "0xcabeb4a722bdcee1c2861957b4f995d3b57a8139e074e344fe5590914a426456",
          "blockNumber": "0x8304f6",
          "blockTimestamp": "0x69afac81",
          "transactionHash": "0xfca62446152d8084e6c90dbb53f9cfabbc5def4e82198b61a978d34b980add37",
          "transactionIndex": "0x0",
          "logIndex": "0x35",
          "removed": false
        },
        {
          "address": "0x0ceb237e109ee22374a567c6b09f373c73fa4cbb",
          "topics": [
            "0xddf252ad1be2c89b69c2b068fc378daa952ba7f163c4a11628f55a4df523b3ef",
            "0x0000000000000000000000000000000000000000000000000000000000000000",
            "0x00000000000000000000000020bb7c2e2f4e5ca2b4c57060d1ae2615245dcc9c"
          ],
          "data": "0x0000000000000000000000000000000000000000000000000000000000005e0c",
          "blockHash": "0xcabeb4a722bdcee1c2861957b4f995d3b57a8139e074e344fe5590914a426456",
          "blockNumber": "0x8304f6",
          "blockTimestamp": "0x69afac81",
          "transactionHash": "0xfca62446152d8084e6c90dbb53f9cfabbc5def4e82198b61a978d34b980add37",
          "transactionIndex": "0x0",
          "logIndex": "0x36",
          "removed": false
        },
        {
          "address": "0x0ceb237e109ee22374a567c6b09f373c73fa4cbb",
          "topics": [
            "0x8ed59ebee7004468a5666f7566d43343b5917817e35765800064b665b66d070f",
            "0x00000000000000000000000020c0000000000000000000000000000000000000",
            "0x000000000000000000000000000000008c3930dca540bb9b3a5d0ee78fca9a4c",
            "0x00000000000000000000000020bb7c2e2f4e5ca2b4c57060d1ae2615245dcc9c"
          ],
          "data": "0x0000000000000000000000000000000000000000000000000000000000005e0c",
          "blockHash": "0xcabeb4a722bdcee1c2861957b4f995d3b57a8139e074e344fe5590914a426456",
          "blockNumber": "0x8304f6",
          "blockTimestamp": "0x69afac81",
          "transactionHash": "0xfca62446152d8084e6c90dbb53f9cfabbc5def4e82198b61a978d34b980add37",
          "transactionIndex": "0x0",
          "logIndex": "0x37",
          "removed": false
        },
        {
          "address": "0x572863d9247e52026e0892d9cd2e519b41edb73c",
          "topics": [
            "0x61ed099e74a97a1d7f8bb0952a88ca8b7b8ebd00c126ea04671f92a81213318a"
          ],
          "data": "0x000000000000000000000000f851abca1d0fd1df8eaba6de466a102996b7d7b20000000000000000000000000000000000000000000000000000000000004f6c",
          "blockHash": "0xcabeb4a722bdcee1c2861957b4f995d3b57a8139e074e344fe5590914a426456",
          "blockNumber": "0x8304f6",
          "blockTimestamp": "0x69afac81",
          "transactionHash": "0xfca62446152d8084e6c90dbb53f9cfabbc5def4e82198b61a978d34b980add37",
          "transactionIndex": "0x0",
          "logIndex": "0x38",
          "removed": false
        },
        {
          "address": "0x572863d9247e52026e0892d9cd2e519b41edb73c",
          "topics": [
            "0x07ea52d82345d6e838192107d8fd7123d9c2ec8e916cd0aad13fd2b60db24644"
          ],
          "data": "0x000000000000000000000000000000000000000000000000000000000000006000000000000000000000000000000000000000000000000000000000000000e00000000000000000000000000000000000000000000000000000000000000100000000000000000000000000000000000000000000000000000000000000000300000000000000000000000076faff60799021b301b45dc1bbede53f261f996100000000000000000000000097faa2a9c9bf8b4082b175a5b894ce6bac6697a8000000000000000000000000f5771acc42f3321d7193748fa0f656470bf737f20000000000000000000000000000000000000000000000000000000000000000000000000000000000000000000000000000000000000000000000000000000300000000000000000000000000000000000000000000000000000000000004e000000000000000000000000000000000000000000000000000000000000004e000000000000000000000000000000000000000000000000000000000000004e0",
          "blockHash": "0xcabeb4a722bdcee1c2861957b4f995d3b57a8139e074e344fe5590914a426456",
          "blockNumber": "0x8304f6",
          "blockTimestamp": "0x69afac81",
          "transactionHash": "0xfca62446152d8084e6c90dbb53f9cfabbc5def4e82198b61a978d34b980add37",
          "transactionIndex": "0x0",
          "logIndex": "0x39",
          "removed": false
        },
        {
          "address": "0x20bb7c2e2f4e5ca2b4c57060d1ae2615245dcc9c",
          "topics": [
            "0x1ab700d4ced0c005b164c0f789fd09fcbb0156d4c2041b8a3bfbcd961cd1567f"
          ],
          "data": "0x00000000000000000000000000000000000000000000000000000000000000600000000000000000000000000000000000000000000000000000000000000120000000000000000000000000572863d9247e52026e0892d9cd2e519b41edb73c0000000000000000000000000000000000000000000000000000000000000099010000000000000001000076ca000000000000000000000000000000008c3930dca540bb9b3a5d0ee78fca9a4c0000762f0000000000000000000000009abfe1f8a999b0011ecd6116649aee8d575f560418ffe9631317c8e5f81d8253440b44563f7143b54990d3b12f3f1333d7133ac8000000000000000000000000741f0d8bde14140f62107fc60a0ee122b37d4630000000000000006400000000000000000000000000000000000000000000000000000000000000000000000000001600030100110100000000000000000000000000030d4000000000000000000000",
          "blockHash": "0xcabeb4a722bdcee1c2861957b4f995d3b57a8139e074e344fe5590914a426456",
          "blockNumber": "0x8304f6",
          "blockTimestamp": "0x69afac81",
          "transactionHash": "0xfca62446152d8084e6c90dbb53f9cfabbc5def4e82198b61a978d34b980add37",
          "transactionIndex": "0x0",
          "logIndex": "0x3a",
          "removed": false
        },
        {
          "address": "0x0ceb237e109ee22374a567c6b09f373c73fa4cbb",
          "topics": [
            "0xddf252ad1be2c89b69c2b068fc378daa952ba7f163c4a11628f55a4df523b3ef",
            "0x00000000000000000000000020bb7c2e2f4e5ca2b4c57060d1ae2615245dcc9c",
            "0x000000000000000000000000572863d9247e52026e0892d9cd2e519b41edb73c"
          ],
          "data": "0x0000000000000000000000000000000000000000000000000000000000005e0c",
          "blockHash": "0xcabeb4a722bdcee1c2861957b4f995d3b57a8139e074e344fe5590914a426456",
          "blockNumber": "0x8304f6",
          "blockTimestamp": "0x69afac81",
          "transactionHash": "0xfca62446152d8084e6c90dbb53f9cfabbc5def4e82198b61a978d34b980add37",
          "transactionIndex": "0x0",
          "logIndex": "0x3b",
          "removed": false
        },
        {
          "address": "0x000000008c3930dca540bb9b3a5d0ee78fca9a4c",
          "topics": [
            "0x85496b760a4b7f8d66384b9df21b381f5d1b1e79f229a47aaf4c232edc2fe59a",
            "0x18ffe9631317c8e5f81d8253440b44563f7143b54990d3b12f3f1333d7133ac8",
            "0x000000000000000000000000741f0d8bde14140f62107fc60a0ee122b37d4630"
          ],
          "data": "0x000000000000000000000000000000000000000000000000000000000000762f00000000000000000000000000000000000000000000000000005af3107a400000000000000000000000000000000000000000000000000000005af3107a4000",
          "blockHash": "0xcabeb4a722bdcee1c2861957b4f995d3b57a8139e074e344fe5590914a426456",
          "blockNumber": "0x8304f6",
          "blockTimestamp": "0x69afac81",
          "transactionHash": "0xfca62446152d8084e6c90dbb53f9cfabbc5def4e82198b61a978d34b980add37",
          "transactionIndex": "0x0",
          "logIndex": "0x3c",
          "removed": false
        },
        {
          "address": "0x00000000bc4aef4ba6363a437455cb1af19e2aeb",
          "topics": [
            "0xddf252ad1be2c89b69c2b068fc378daa952ba7f163c4a11628f55a4df523b3ef",
            "0x000000000000000000000000741f0d8bde14140f62107fc60a0ee122b37d4630",
            "0x0000000000000000000000000000000000000000000000000000000000000000"
          ],
          "data": "0x00000000000000000000000000000000000000000000000000005af3107a4000",
          "blockHash": "0xcabeb4a722bdcee1c2861957b4f995d3b57a8139e074e344fe5590914a426456",
          "blockNumber": "0x8304f6",
          "blockTimestamp": "0x69afac81",
          "transactionHash": "0xfca62446152d8084e6c90dbb53f9cfabbc5def4e82198b61a978d34b980add37",
          "transactionIndex": "0x0",
          "logIndex": "0x3d",
          "removed": false
        },
        {
          "address": "0x20c0000000000000000000000000000000000000",
          "topics": [
            "0xddf252ad1be2c89b69c2b068fc378daa952ba7f163c4a11628f55a4df523b3ef",
            "0x000000000000000000000000741f0d8bde14140f62107fc60a0ee122b37d4630",
            "0x00000000000000000000000000000000bc4aef4ba6363a437455cb1af19e2aeb"
          ],
          "data": "0x0000000000000000000000000000000000000000000000000000000000005e0c",
          "blockHash": "0xcabeb4a722bdcee1c2861957b4f995d3b57a8139e074e344fe5590914a426456",
          "blockNumber": "0x8304f6",
          "blockTimestamp": "0x69afac81",
          "transactionHash": "0xfca62446152d8084e6c90dbb53f9cfabbc5def4e82198b61a978d34b980add37",
          "transactionIndex": "0x0",
          "logIndex": "0x3e",
          "removed": false
        },
        {
          "address": "0x20c0000000000000000000000000000000000000",
          "topics": [
            "0x8c5be1e5ebec7d5bd14f71427d1e84f3dd0314c0f7b2291e5b200ac8c7c3b925",
            "0x00000000000000000000000000000000bc4aef4ba6363a437455cb1af19e2aeb",
            "0x0000000000000000000000000ceb237e109ee22374a567c6b09f373c73fa4cbb"
          ],
          "data": "0x0000000000000000000000000000000000000000000000000000000000005e0c",
          "blockHash": "0xcabeb4a722bdcee1c2861957b4f995d3b57a8139e074e344fe5590914a426456",
          "blockNumber": "0x8304f6",
          "blockTimestamp": "0x69afac81",
          "transactionHash": "0xfca62446152d8084e6c90dbb53f9cfabbc5def4e82198b61a978d34b980add37",
          "transactionIndex": "0x0",
          "logIndex": "0x3f",
          "removed": false
        },
        {
          "address": "0x20c0000000000000000000000000000000000000",
          "topics": [
            "0xddf252ad1be2c89b69c2b068fc378daa952ba7f163c4a11628f55a4df523b3ef",
            "0x00000000000000000000000000000000bc4aef4ba6363a437455cb1af19e2aeb",
            "0x0000000000000000000000000ceb237e109ee22374a567c6b09f373c73fa4cbb"
          ],
          "data": "0x0000000000000000000000000000000000000000000000000000000000005e0c",
          "blockHash": "0xcabeb4a722bdcee1c2861957b4f995d3b57a8139e074e344fe5590914a426456",
          "blockNumber": "0x8304f6",
          "blockTimestamp": "0x69afac81",
          "transactionHash": "0xfca62446152d8084e6c90dbb53f9cfabbc5def4e82198b61a978d34b980add37",
          "transactionIndex": "0x0",
          "logIndex": "0x40",
          "removed": false
        },
        {
          "address": "0x0ceb237e109ee22374a567c6b09f373c73fa4cbb",
          "topics": [
            "0xddf252ad1be2c89b69c2b068fc378daa952ba7f163c4a11628f55a4df523b3ef",
            "0x0000000000000000000000000000000000000000000000000000000000000000",
            "0x00000000000000000000000020bb7c2e2f4e5ca2b4c57060d1ae2615245dcc9c"
          ],
          "data": "0x0000000000000000000000000000000000000000000000000000000000005e0c",
          "blockHash": "0xcabeb4a722bdcee1c2861957b4f995d3b57a8139e074e344fe5590914a426456",
          "blockNumber": "0x8304f6",
          "blockTimestamp": "0x69afac81",
          "transactionHash": "0xfca62446152d8084e6c90dbb53f9cfabbc5def4e82198b61a978d34b980add37",
          "transactionIndex": "0x0",
          "logIndex": "0x41",
          "removed": false
        },
        {
          "address": "0x0ceb237e109ee22374a567c6b09f373c73fa4cbb",
          "topics": [
            "0x8ed59ebee7004468a5666f7566d43343b5917817e35765800064b665b66d070f",
            "0x00000000000000000000000020c0000000000000000000000000000000000000",
            "0x00000000000000000000000000000000bc4aef4ba6363a437455cb1af19e2aeb",
            "0x00000000000000000000000020bb7c2e2f4e5ca2b4c57060d1ae2615245dcc9c"
          ],
          "data": "0x0000000000000000000000000000000000000000000000000000000000005e0c",
          "blockHash": "0xcabeb4a722bdcee1c2861957b4f995d3b57a8139e074e344fe5590914a426456",
          "blockNumber": "0x8304f6",
          "blockTimestamp": "0x69afac81",
          "transactionHash": "0xfca62446152d8084e6c90dbb53f9cfabbc5def4e82198b61a978d34b980add37",
          "transactionIndex": "0x0",
          "logIndex": "0x42",
          "removed": false
        },
        {
          "address": "0x572863d9247e52026e0892d9cd2e519b41edb73c",
          "topics": [
            "0x61ed099e74a97a1d7f8bb0952a88ca8b7b8ebd00c126ea04671f92a81213318a"
          ],
          "data": "0x000000000000000000000000f851abca1d0fd1df8eaba6de466a102996b7d7b20000000000000000000000000000000000000000000000000000000000004f6c",
          "blockHash": "0xcabeb4a722bdcee1c2861957b4f995d3b57a8139e074e344fe5590914a426456",
          "blockNumber": "0x8304f6",
          "blockTimestamp": "0x69afac81",
          "transactionHash": "0xfca62446152d8084e6c90dbb53f9cfabbc5def4e82198b61a978d34b980add37",
          "transactionIndex": "0x0",
          "logIndex": "0x43",
          "removed": false
        },
        {
          "address": "0x572863d9247e52026e0892d9cd2e519b41edb73c",
          "topics": [
            "0x07ea52d82345d6e838192107d8fd7123d9c2ec8e916cd0aad13fd2b60db24644"
          ],
          "data": "0x000000000000000000000000000000000000000000000000000000000000006000000000000000000000000000000000000000000000000000000000000000e00000000000000000000000000000000000000000000000000000000000000100000000000000000000000000000000000000000000000000000000000000000300000000000000000000000076faff60799021b301b45dc1bbede53f261f996100000000000000000000000097faa2a9c9bf8b4082b175a5b894ce6bac6697a8000000000000000000000000f5771acc42f3321d7193748fa0f656470bf737f20000000000000000000000000000000000000000000000000000000000000000000000000000000000000000000000000000000000000000000000000000000300000000000000000000000000000000000000000000000000000000000004e000000000000000000000000000000000000000000000000000000000000004e000000000000000000000000000000000000000000000000000000000000004e0",
          "blockHash": "0xcabeb4a722bdcee1c2861957b4f995d3b57a8139e074e344fe5590914a426456",
          "blockNumber": "0x8304f6",
          "blockTimestamp": "0x69afac81",
          "transactionHash": "0xfca62446152d8084e6c90dbb53f9cfabbc5def4e82198b61a978d34b980add37",
          "transactionIndex": "0x0",
          "logIndex": "0x44",
          "removed": false
        },
        {
          "address": "0x20bb7c2e2f4e5ca2b4c57060d1ae2615245dcc9c",
          "topics": [
            "0x1ab700d4ced0c005b164c0f789fd09fcbb0156d4c2041b8a3bfbcd961cd1567f"
          ],
          "data": "0x00000000000000000000000000000000000000000000000000000000000000600000000000000000000000000000000000000000000000000000000000000120000000000000000000000000572863d9247e52026e0892d9cd2e519b41edb73c0000000000000000000000000000000000000000000000000000000000000099010000000000000001000076ca00000000000000000000000000000000bc4aef4ba6363a437455cb1af19e2aeb0000762f00000000000000000000000075c38d46001b0f8108c4136216bd2694982c20fc696007c93eb9f7d6ad760d196fae93a3240018ad032a34ac6d8640243681c756000000000000000000000000741f0d8bde14140f62107fc60a0ee122b37d4630000000000000006400000000000000000000000000000000000000000000000000000000000000000000000000001600030100110100000000000000000000000000030d4000000000000000000000",
          "blockHash": "0xcabeb4a722bdcee1c2861957b4f995d3b57a8139e074e344fe5590914a426456",
          "blockNumber": "0x8304f6",
          "blockTimestamp": "0x69afac81",
          "transactionHash": "0xfca62446152d8084e6c90dbb53f9cfabbc5def4e82198b61a978d34b980add37",
          "transactionIndex": "0x0",
          "logIndex": "0x45",
          "removed": false
        },
        {
          "address": "0x0ceb237e109ee22374a567c6b09f373c73fa4cbb",
          "topics": [
            "0xddf252ad1be2c89b69c2b068fc378daa952ba7f163c4a11628f55a4df523b3ef",
            "0x00000000000000000000000020bb7c2e2f4e5ca2b4c57060d1ae2615245dcc9c",
            "0x000000000000000000000000572863d9247e52026e0892d9cd2e519b41edb73c"
          ],
          "data": "0x0000000000000000000000000000000000000000000000000000000000005e0c",
          "blockHash": "0xcabeb4a722bdcee1c2861957b4f995d3b57a8139e074e344fe5590914a426456",
          "blockNumber": "0x8304f6",
          "blockTimestamp": "0x69afac81",
          "transactionHash": "0xfca62446152d8084e6c90dbb53f9cfabbc5def4e82198b61a978d34b980add37",
          "transactionIndex": "0x0",
          "logIndex": "0x46",
          "removed": false
        },
        {
          "address": "0x00000000bc4aef4ba6363a437455cb1af19e2aeb",
          "topics": [
            "0x85496b760a4b7f8d66384b9df21b381f5d1b1e79f229a47aaf4c232edc2fe59a",
            "0x696007c93eb9f7d6ad760d196fae93a3240018ad032a34ac6d8640243681c756",
            "0x000000000000000000000000741f0d8bde14140f62107fc60a0ee122b37d4630"
          ],
          "data": "0x000000000000000000000000000000000000000000000000000000000000762f00000000000000000000000000000000000000000000000000005af3107a400000000000000000000000000000000000000000000000000000005af3107a4000",
          "blockHash": "0xcabeb4a722bdcee1c2861957b4f995d3b57a8139e074e344fe5590914a426456",
          "blockNumber": "0x8304f6",
          "blockTimestamp": "0x69afac81",
          "transactionHash": "0xfca62446152d8084e6c90dbb53f9cfabbc5def4e82198b61a978d34b980add37",
          "transactionIndex": "0x0",
          "logIndex": "0x47",
          "removed": false
        },
        {
          "address": "0x20c0000000000000000000000000000000000000",
          "topics": [
            "0xddf252ad1be2c89b69c2b068fc378daa952ba7f163c4a11628f55a4df523b3ef",
            "0x00000000000000000000000045dce8e4f2dc005a5f28206a46cb034697eeda8e",
            "0x000000000000000000000000feec000000000000000000000000000000000000"
          ],
          "data": "0x000000000000000000000000000000000000000000000000000000000002ad9c",
          "blockHash": "0xcabeb4a722bdcee1c2861957b4f995d3b57a8139e074e344fe5590914a426456",
          "blockNumber": "0x8304f6",
          "blockTimestamp": "0x69afac81",
          "transactionHash": "0xfca62446152d8084e6c90dbb53f9cfabbc5def4e82198b61a978d34b980add37",
          "transactionIndex": "0x0",
          "logIndex": "0x48",
          "removed": false
        }
      ],
      "logsBloom": "0x0000102000000000002002020000004000800400002100101202020020000000000044002000000080000084010000000000010000000200004000100020001010000600000000000800000900100000002000802000080000000200040000000000000402000480c08000000000080088000400000010000000001111000000002080000000080000a002080020400800004088808000200000000002b000000200200080808010001000000004001000000000004000000004c0040000100000000012000008040000000080080008001100000080000801000000010020020010040000041000080100000000802002414800028800010001000000201000",
      "transactionHash": "0xfca62446152d8084e6c90dbb53f9cfabbc5def4e82198b61a978d34b980add37",
      "transactionIndex": "0x0",
      "blockHash": "0xcabeb4a722bdcee1c2861957b4f995d3b57a8139e074e344fe5590914a426456",
      "blockNumber": "0x8304f6",
      "gasUsed": "0x85e858",
      "effectiveGasPrice": "0x4a817c801",
      "from": "0x45dce8e4f2dc005a5f28206a46cb034697eeda8e",
      "to": "0x741f0d8bde14140f62107fc60a0ee122b37d4630",
      "contractAddress": null,
      "feeToken": "0x20c0000000000000000000000000000000000000",
      "feePayer": "0x45dce8e4f2dc005a5f28206a46cb034697eeda8e"
    }
  ],
  "libraries": [],
  "pending": [],
  "returns": {},
  "timestamp": 1773120643079,
  "chain": 4217,
  "commit": "98e8de3"
}