{
  "transactions": [
    {
      "hash": "0x70ba6bcfc3c7b584a9d6a64ed5dd23d503e616f08baa0a0969d8af54f9b48a6c",
      "transactionType": "CALL",
      "contractName": null,
      "contractAddress": "0x741f0d8bde14140f62107fc60a0ee122b37d4630",
      "function": "approveToken(address,address,uint256)",
      "arguments": [
        "0x20C0000000000000000000003554d28269E0f3c2",
        "0x00000000E9CE0f293D1Ce552768b187eBA8a56D4",
        "115792089237316195423570985008687907853269984665640564039457584007913129639935"
      ],
      "transaction": {
        "from": "0x45dce8e4f2dc005a5f28206a46cb034697eeda8e",
        "to": "0x741f0d8bde14140f62107fc60a0ee122b37d4630",
        "gas": "0x5f655",
        "value": "0x0",
        "input": "0xda3e339700000000000000000000000020c0000000000000000000003554d28269e0f3c200000000000000000000000000000000e9ce0f293d1ce552768b187eba8a56d4ffffffffffffffffffffffffffffffffffffffffffffffffffffffffffffffff",
        "nonce": "0xe7",
        "chainId": "0x1079",
        "feeToken": null,
        "calls": [],
        "keyType": null,
        "keyData": null
      },
      "additionalContracts": [],
      "isFixedGasLimit": false
    },
    {
      "hash": "0x455faa52c447e74f2e6f586bf265ac144928603113bb43cec52b1ed5a6773f71",
      "transactionType": "CALL",
      "contractName": null,
      "contractAddress": "0x741f0d8bde14140f62107fc60a0ee122b37d4630",
      "function": "approveToken(address,address,uint256)",
      "arguments": [
        "0x20C0000000000000000000003554d28269E0f3c2",
        "0x00000000fD8C4B8A413A06821456801295921a71",
        "115792089237316195423570985008687907853269984665640564039457584007913129639935"
      ],
      "transaction": {
        "from": "0x45dce8e4f2dc005a5f28206a46cb034697eeda8e",
        "to": "0x741f0d8bde14140f62107fc60a0ee122b37d4630",
        "gas": "0x5f655",
        "value": "0x0",
        "input": "0xda3e339700000000000000000000000020c0000000000000000000003554d28269e0f3c200000000000000000000000000000000fd8c4b8a413a06821456801295921a71ffffffffffffffffffffffffffffffffffffffffffffffffffffffffffffffff",
        "nonce": "0xe8",
        "chainId": "0x1079",
        "feeToken": null,
        "calls": [],
        "keyType": null,
        "keyData": null
      },
      "additionalContracts": [],
      "isFixedGasLimit": false
    },
    {
      "hash": "0x4d59f847f3dd1d65ace6922bf532be0e559300d2b24e6189991c60118ed78964",
      "transactionType": "CALL",
      "contractName": null,
      "contractAddress": "0x741f0d8bde14140f62107fc60a0ee122b37d4630",
      "function": "approveToken(address,address,uint256)",
      "arguments": [
        "0x20C0000000000000000000003554d28269E0f3c2",
        "0x00000000883279097A49dB1f2af954EAd0C77E3c",
        "115792089237316195423570985008687907853269984665640564039457584007913129639935"
      ],
      "transaction": {
        "from": "0x45dce8e4f2dc005a5f28206a46cb034697eeda8e",
        "to": "0x741f0d8bde14140f62107fc60a0ee122b37d4630",
        "gas": "0x5f655",
        "value": "0x0",
        "input": "0xda3e339700000000000000000000000020c0000000000000000000003554d28269e0f3c200000000000000000000000000000000883279097a49db1f2af954ead0c77e3cffffffffffffffffffffffffffffffffffffffffffffffffffffffffffffffff",
        "nonce": "0xe9",
        "chainId": "0x1079",
        "feeToken": null,
        "calls": [],
        "keyType": null,
        "keyData": null
      },
      "additionalContracts": [],
      "isFixedGasLimit": false
    },
    {
      "hash": "0x8ce9804afe4bfdeaa0928fea9917f40279f17c320eabf372bf4ad5b2a4757434",
      "transactionType": "CALL",
      "contractName": null,
      "contractAddress": "0x741f0d8bde14140f62107fc60a0ee122b37d4630",
      "function": "approveToken(address,address,uint256)",
      "arguments": [
        "0x20C0000000000000000000003554d28269E0f3c2",
        "0x00000000D61733e7A393A10A5B48c311AbE8f1E5",
        "115792089237316195423570985008687907853269984665640564039457584007913129639935"
      ],
      "transaction": {
        "from": "0x45dce8e4f2dc005a5f28206a46cb034697eeda8e",
        "to": "0x741f0d8bde14140f62107fc60a0ee122b37d4630",
        "gas": "0xc8f7",
        "value": "0x0",
        "input": "0xda3e339700000000000000000000000020c0000000000000000000003554d28269e0f3c200000000000000000000000000000000d61733e7a393a10a5b48c311abe8f1e5ffffffffffffffffffffffffffffffffffffffffffffffffffffffffffffffff",
        "nonce": "0xea",
        "chainId": "0x1079",
        "feeToken": null,
        "calls": [],
        "keyType": null,
        "keyData": null
      },
      "additionalContracts": [],
      "isFixedGasLimit": false
    },
    {
      "hash": "0xa1bf14f53221b8178bdfd38b87c8fb66e8b3025e12cb5bb71f6c9f137ddaaccf",
      "transactionType": "CALL",
      "contractName": null,
      "contractAddress": "0x741f0d8bde14140f62107fc60a0ee122b37d4630",
      "function": "approveToken(address,address,uint256)",
      "arguments": [
        "0x20C0000000000000000000003554d28269E0f3c2",
        "0x000000008c3930dCA540bB9B3A5D0ee78FcA9A4c",
        "115792089237316195423570985008687907853269984665640564039457584007913129639935"
      ],
      "transaction": {
        "from": "0x45dce8e4f2dc005a5f28206a46cb034697eeda8e",
        "to": "0x741f0d8bde14140f62107fc60a0ee122b37d4630",
        "gas": "0x5f655",
        "value": "0x0",
        "input": "0xda3e339700000000000000000000000020c0000000000000000000003554d28269e0f3c2000000000000000000000000000000008c3930dca540bb9b3a5d0ee78fca9a4cffffffffffffffffffffffffffffffffffffffffffffffffffffffffffffffff",
        "nonce": "0xeb",
        "chainId": "0x1079",
        "feeToken": null,
        "calls": [],
        "keyType": null,
        "keyData": null
      },
      "additionalContracts": [],
      "isFixedGasLimit": false
    },
    {
      "hash": "0x16b826569cbe438113b3bb81cb4727ba68edacc05fddc3049b512398925b97ae",
      "transactionType": "CALL",
      "contractName": null,
      "contractAddress": "0x741f0d8bde14140f62107fc60a0ee122b37d4630",
      "function": "approveToken(address,address,uint256)",
      "arguments": [
        "0x20C0000000000000000000003554d28269E0f3c2",
        "0x00000000bC4aEF4bA6363a437455Cb1af19e2aEb",
        "115792089237316195423570985008687907853269984665640564039457584007913129639935"
      ],
      "transaction": {
        "from": "0x45dce8e4f2dc005a5f28206a46cb034697eeda8e",
        "to": "0x741f0d8bde14140f62107fc60a0ee122b37d4630",
        "gas": "0x5f655",
        "value": "0x0",
        "input": "0xda3e339700000000000000000000000020c0000000000000000000003554d28269e0f3c200000000000000000000000000000000bc4aef4ba6363a437455cb1af19e2aebffffffffffffffffffffffffffffffffffffffffffffffffffffffffffffffff",
        "nonce": "0xec",
        "chainId": "0x1079",
        "feeToken": null,
        "calls": [],
        "keyType": null,
        "keyData": null
      },
      "additionalContracts": [],
      "isFixedGasLimit": false
    },
    {
      "hash": "0x6cf73faa5196fa591a1ea9588373c0bd5472f93adb1864c48bfed33470ad7d62",
      "transactionType": "CALL",
      "contractName": null,
      "contractAddress": "0xfeec000000000000000000000000000000000000",
      "function": "setUserToken(address)",
      "arguments": [
        "0x20C0000000000000000000003554d28269E0f3c2"
      ],
      "transaction": {
        "from": "0x45dce8e4f2dc005a5f28206a46cb034697eeda8e",
        "to": "0xfeec000000000000000000000000000000000000",
        "gas": "0x9a3e",
        "value": "0x0",
        "input": "0xe789744400000000000000000000000020c0000000000000000000003554d28269e0f3c2",
        "nonce": "0xed",
        "chainId": "0x1079",
        "feeToken": null,
        "calls": [],
        "keyType": null,
        "keyData": null
      },
      "additionalContracts": [],
      "isFixedGasLimit": false
    },
    {
      "hash": "0xe1a8b6420538ac3753435abf052164a7f53304176959c50b4fd14a4d5f0fb2d6",
      "transactionType": "CALL",
      "contractName": null,
      "contractAddress": "0x20c0000000000000000000003554d28269e0f3c2",
      "function": "approve(address,uint256)",
      "arguments": [
        "0x741F0d8Bde14140f62107FC60A0EE122B37D4630",
        "115792089237316195423570985008687907853269984665640564039457584007913129639935"
      ],
      "transaction": {
        "from": "0x45dce8e4f2dc005a5f28206a46cb034697eeda8e",
        "to": "0x20c0000000000000000000003554d28269e0f3c2",
        "gas": "0x58b38",
        "value": "0x0",
        "input": "0x095ea7b3000000000000000000000000741f0d8bde14140f62107fc60a0ee122b37d4630ffffffffffffffffffffffffffffffffffffffffffffffffffffffffffffffff",
        "nonce": "0xee",
        "chainId": "0x1079",
        "feeToken": null,
        "calls": [],
        "keyType": null,
        "keyData": null
      },
      "additionalContracts": [],
      "isFixedGasLimit": false
    },
    {
      "hash": "0x6d582e49e27e94edc1357ac8359a68a8ced982d2fa4158e3b311ce7df6bb4c01",
      "transactionType": "CALL",
      "contractName": null,
      "contractAddress": "0x741f0d8bde14140f62107fc60a0ee122b37d4630",
      "function": "batchBridgeWithTIP20FeeFromWallet((uint32,bytes32,uint256,uint256,bytes,bytes,bytes)[],address[],address[])",
      "arguments": [
        "[(30255, 0x000000000000000000000000741f0d8bde14140f62107fc60a0ee122b37d4630, 100000000000000, 0, 0x, 0x, 0x), (30255, 0x000000000000000000000000741f0d8bde14140f62107fc60a0ee122b37d4630, 100000000000000, 0, 0x, 0x, 0x), (30255, 0x000000000000000000000000741f0d8bde14140f62107fc60a0ee122b37d4630, 100000000000000, 0, 0x, 0x, 0x), (30255, 0x000000000000000000000000741f0d8bde14140f62107fc60a0ee122b37d4630, 100, 0, 0x, 0x, 0x), (30255, 0x000000000000000000000000741f0d8bde14140f62107fc60a0ee122b37d4630, 100000000000000, 0, 0x, 0x, 0x), (30255, 0x000000000000000000000000741f0d8bde14140f62107fc60a0ee122b37d4630, 100000000000000, 0, 0x, 0x, 0x)]",
        "[0x00000000E9CE0f293D1Ce552768b187eBA8a56D4, 0x00000000fD8C4B8A413A06821456801295921a71, 0x00000000883279097A49dB1f2af954EAd0C77E3c, 0x00000000D61733e7A393A10A5B48c311AbE8f1E5, 0x000000008c3930dCA540bB9B3A5D0ee78FcA9A4c, 0x00000000bC4aEF4bA6363a437455Cb1af19e2aEb]",
        "[0x741F0d8Bde14140f62107FC60A0EE122B37D4630, 0x741F0d8Bde14140f62107FC60A0EE122B37D4630, 0x741F0d8Bde14140f62107FC60A0EE122B37D4630, 0x741F0d8Bde14140f62107FC60A0EE122B37D4630, 0x741F0d8Bde14140f62107FC60A0EE122B37D4630, 0x741F0d8Bde14140f62107FC60A0EE122B37D4630]"
      ],
      "transaction": {
        "from": "0x45dce8e4f2dc005a5f28206a46cb034697eeda8e",
        "to": "0x741f0d8bde14140f62107fc60a0ee122b37d4630",
        "gas": "0x3ddb8b",
        "value": "0x0",
        "input": "0xddfe224e000000000000000000000000000000000000000000000000000000000000006000000000000000000000000000000000000000000000000000000000000008c000000000000000000000000000000000000000000000000000000000000009a0000000000000000000000000000000000000000000000000000000000000000600000000000000000000000000000000000000000000000000000000000000c000000000000000000000000000000000000000000000000000000000000002000000000000000000000000000000000000000000000000000000000000000340000000000000000000000000000000000000000000000000000000000000048000000000000000000000000000000000000000000000000000000000000005c00000000000000000000000000000000000000000000000000000000000000700000000000000000000000000000000000000000000000000000000000000762f000000000000000000000000741f0d8bde14140f62107fc60a0ee122b37d463000000000000000000000000000000000000000000000000000005af3107a4000000000000000000000000000000000000000000000000000000000000000000000000000000000000000000000000000000000000000000000000000000000e000000000000000000000000000000000000000000000000000000000000001000000000000000000000000000000000000000000000000000000000000000120000000000000000000000000000000000000000000000000000000000000000000000000000000000000000000000000000000000000000000000000000000000000000000000000000000000000000000000000000000000000000000000000000000000000000000000000000000000000000000000000000000000000762f000000000000000000000000741f0d8bde14140f62107fc60a0ee122b37d463000000000000000000000000000000000000000000000000000005af3107a4000000000000000000000000000000000000000000000000000000000000000000000000000000000000000000000000000000000000000000000000000000000e000000000000000000000000000000000000000000000000000000000000001000000000000000000000000000000000000000000000000000000000000000120000000000000000000000000000000000000000000000000000000000000000000000000000000000000000000000000000000000000000000000000000000000000000000000000000000000000000000000000000000000000000000000000000000000000000000000000000000000000000000000000000000000000762f000000000000000000000000741f0d8bde14140f62107fc60a0ee122b37d463000000000000000000000000000000000000000000000000000005af3107a4000000000000000000000000000000000000000000000000000000000000000000000000000000000000000000000000000000000000000000000000000000000e000000000000000000000000000000000000000000000000000000000000001000000000000000000000000000000000000000000000000000000000000000120000000000000000000000000000000000000000000000000000000000000000000000000000000000000000000000000000000000000000000000000000000000000000000000000000000000000000000000000000000000000000000000000000000000000000000000000000000000000000000000000000000000000762f000000000000000000000000741f0d8bde14140f62107fc60a0ee122b37d46300000000000000000000000000000000000000000000000000000000000000064000000000000000000000000000000000000000000000000000000000000000000000000000000000000000000000000000000000000000000000000000000e000000000000000000000000000000000000000000000000000000000000001000000000000000000000000000000000000000000000000000000000000000120000000000000000000000000000000000000000000000000000000000000000000000000000000000000000000000000000000000000000000000000000000000000000000000000000000000000000000000000000000000000000000000000000000000000000000000000000000000000000000000000000000000000762f000000000000000000000000741f0d8bde14140f62107fc60a0ee122b37d463000000000000000000000000000000000000000000000000000005af3107a4000000000000000000000000000000000000000000000000000000000000000000000000000000000000000000000000000000000000000000000000000000000e000000000000000000000000000000000000000000000000000000000000001000000000000000000000000000000000000000000000000000000000000000120000000000000000000000000000000000000000000000000000000000000000000000000000000000000000000000000000000000000000000000000000000000000000000000000000000000000000000000000000000000000000000000000000000000000000000000000000000000000000000000000000000000000762f000000000000000000000000741f0d8bde14140f62107fc60a0ee122b37d463000000000000000000000000000000000000000000000000000005af3107a4000000000000000000000000000000000000000000000000000000000000000000000000000000000000000000000000000000000000000000000000000000000e000000000000000000000000000000000000000000000000000000000000001000000000000000000000000000000000000000000000000000000000000000120000000000000000000000000000000000000000000000000000000000000000000000000000000000000000000000000000000000000000000000000000000000000000000000000000000000000000000000000000000000000000000000000000000000000000000000000000000000000000000000000000000000000000600000000000000000000000000000000e9ce0f293d1ce552768b187eba8a56d400000000000000000000000000000000fd8c4b8a413a06821456801295921a7100000000000000000000000000000000883279097a49db1f2af954ead0c77e3c00000000000000000000000000000000d61733e7a393a10a5b48c311abe8f1e5000000000000000000000000000000008c3930dca540bb9b3a5d0ee78fca9a4c00000000000000000000000000000000bc4aef4ba6363a437455cb1af19e2aeb0000000000000000000000000000000000000000000000000000000000000006000000000000000000000000741f0d8bde14140f62107fc60a0ee122b37d4630000000000000000000000000741f0d8bde14140f62107fc60a0ee122b37d4630000000000000000000000000741f0d8bde14140f62107fc60a0ee122b37d4630000000000000000000000000741f0d8bde14140f62107fc60a0ee122b37d4630000000000000000000000000741f0d8bde14140f62107fc60a0ee122b37d4630000000000000000000000000741f0d8bde14140f62107fc60a0ee122b37d4630",
        "nonce": "0xef",
        "chainId": "0x1079",
        "feeToken": null,
        "calls": [],
        "keyType": null,
        "keyData": null
      },
      "additionalContracts": [],
      "isFixedGasLimit": false
    }
  ],
  "receipts": [
    {
      "type": "0x2",
      "status": "0x1",
      "cumulativeGasUsed": "0x469b7",
      "logs": [
        {
          "address": "0x20c0000000000000000000003554d28269e0f3c2",
          "topics": [
            "0x8c5be1e5ebec7d5bd14f71427d1e84f3dd0314c0f7b2291e5b200ac8c7c3b925",
            "0x000000000000000000000000741f0d8bde14140f62107fc60a0ee122b37d4630",
            "0x00000000000000000000000000000000e9ce0f293d1ce552768b187eba8a56d4"
          ],
          "data": "0xffffffffffffffffffffffffffffffffffffffffffffffffffffffffffffffff",
          "blockHash": "0x1ba1181c302ca54468500ac4579fae2e8fe2a5cb4d04fa4c13787f2c72d1be03",
          "blockNumber": "0x833865",
          "blockTimestamp": "0x69afc850",
          "transactionHash": "0x70ba6bcfc3c7b584a9d6a64ed5dd23d503e616f08baa0a0969d8af54f9b48a6c",
          "transactionIndex": "0x0",
          "logIndex": "0x0",
          "removed": false
        },
        {
          "address": "0x20c0000000000000000000000000000000000000",
          "topics": [
            "0xddf252ad1be2c89b69c2b068fc378daa952ba7f163c4a11628f55a4df523b3ef",
            "0x00000000000000000000000045dce8e4f2dc005a5f28206a46cb034697eeda8e",
            "0x000000000000000000000000feec000000000000000000000000000000000000"
          ],
          "data": "0x0000000000000000000000000000000000000000000000000000000000001699",
          "blockHash": "0x1ba1181c302ca54468500ac4579fae2e8fe2a5cb4d04fa4c13787f2c72d1be03",
          "blockNumber": "0x833865",
          "blockTimestamp": "0x69afc850",
          "transactionHash": "0x70ba6bcfc3c7b584a9d6a64ed5dd23d503e616f08baa0a0969d8af54f9b48a6c",
          "transactionIndex": "0x0",
          "logIndex": "0x1",
          "removed": false
        }
      ],
      "logsBloom": "0x00000000000000000000000200000040000000000000000000000000000000000000000000000000000000000100000000000100000000000000000000200000000004000000000008000008000000000000000000000000000000000400000000000004000000000000000000000000000000000000000000000010000000000000000000000000000002000020000000000000800000000000000000000000020020000000001000000000000000000000000000000000000000000000000000000002000000040000000000000000001000000000000000000000000000000010000000000000000000000000800000000000000000010000000000200000",
      "transactionHash": "0x70ba6bcfc3c7b584a9d6a64ed5dd23d503e616f08baa0a0969d8af54f9b48a6c",
      "transactionIndex": "0x0",
      "blockHash": "0x1ba1181c302ca54468500ac4579fae2e8fe2a5cb4d04fa4c13787f2c72d1be03",
      "blockNumber": "0x833865",
      "gasUsed": "0x469b7",
      "effectiveGasPrice": "0x4a817c801",
      "from": "0x45dce8e4f2dc005a5f28206a46cb034697eeda8e",
      "to": "0x741f0d8bde14140f62107fc60a0ee122b37d4630",
      "contractAddress": null,
      "feeToken": "0x20c0000000000000000000000000000000000000",
      "feePayer": "0x45dce8e4f2dc005a5f28206a46cb034697eeda8e"
    },
    {
      "type": "0x2",
      "status": "0x1",
      "cumulativeGasUsed": "0x469b7",
      "logs": [
        {
          "address": "0x20c0000000000000000000003554d28269e0f3c2",
          "topics": [
            "0x8c5be1e5ebec7d5bd14f71427d1e84f3dd0314c0f7b2291e5b200ac8c7c3b925",
            "0x000000000000000000000000741f0d8bde14140f62107fc60a0ee122b37d4630",
            "0x00000000000000000000000000000000fd8c4b8a413a06821456801295921a71"
          ],
          "data": "0xffffffffffffffffffffffffffffffffffffffffffffffffffffffffffffffff",
          "blockHash": "0x7ab46575deaf19c590d630d59d0e1a073e0bd0b3365f337fb240423094088595",
          "blockNumber": "0x833869",
          "blockTimestamp": "0x69afc852",
          "transactionHash": "0x455faa52c447e74f2e6f586bf265ac144928603113bb43cec52b1ed5a6773f71",
          "transactionIndex": "0x0",
          "logIndex": "0x0",
          "removed": false
        },
        {
          "address": "0x20c0000000000000000000000000000000000000",
          "topics": [
            "0xddf252ad1be2c89b69c2b068fc378daa952ba7f163c4a11628f55a4df523b3ef",
            "0x00000000000000000000000045dce8e4f2dc005a5f28206a46cb034697eeda8e",
            "0x000000000000000000000000feec000000000000000000000000000000000000"
          ],
          "data": "0x0000000000000000000000000000000000000000000000000000000000001699",
          "blockHash": "0x7ab46575deaf19c590d630d59d0e1a073e0bd0b3365f337fb240423094088595",
          "blockNumber": "0x833869",
          "blockTimestamp": "0x69afc852",
          "transactionHash": "0x455faa52c447e74f2e6f586bf265ac144928603113bb43cec52b1ed5a6773f71",
          "transactionIndex": "0x0",
          "logIndex": "0x1",
          "removed": false
        }
      ],
      "logsBloom": "0x00000000000000000000000200000040000000000000000000000200000000000000000000000000000000000100000000000100000000000000000000200000000004000000000000000008000000000000000000000000000000000400000000000004000000000000000000000000000000000000000000000010000000000020000000000000000000000020000000000000800000000000000000000000020020000000001000000000000000000000000000000000000000000000000000000002000000040000000000000008001000000000000000000000000000000010000000000000000000000000800000000000000000000000000000200000",
      "transactionHash": "0x455faa52c447e74f2e6f586bf265ac144928603113bb43cec52b1ed5a6773f71",
      "transactionIndex": "0x0",
      "blockHash": "0x7ab46575deaf19c590d630d59d0e1a073e0bd0b3365f337fb240423094088595",
      "blockNumber": "0x833869",
      "gasUsed": "0x469b7",
      "effectiveGasPrice": "0x4a817c801",
      "from": "0x45dce8e4f2dc005a5f28206a46cb034697eeda8e",
      "to": "0x741f0d8bde14140f62107fc60a0ee122b37d4630",
      "contractAddress": null,
      "feeToken": "0x20c0000000000000000000000000000000000000",
      "feePayer": "0x45dce8e4f2dc005a5f28206a46cb034697eeda8e"
    },
    {
      "type": "0x2",
      "status": "0x1",
      "cumulativeGasUsed": "0x469b7",
      "logs": [
        {
          "address": "0x20c0000000000000000000003554d28269e0f3c2",
          "topics": [
            "0x8c5be1e5ebec7d5bd14f71427d1e84f3dd0314c0f7b2291e5b200ac8c7c3b925",
            "0x000000000000000000000000741f0d8bde14140f62107fc60a0ee122b37d4630",
            "0x00000000000000000000000000000000883279097a49db1f2af954ead0c77e3c"
          ],
          "data": "0xffffffffffffffffffffffffffffffffffffffffffffffffffffffffffffffff",
          "blockHash": "0xfb013aa08708b10f953043ab99eda1391e75df6d03a0b0d7829ccd5bdeeb9b0c",
          "blockNumber": "0x83386d",
          "blockTimestamp": "0x69afc854",
          "transactionHash": "0x4d59f847f3dd1d65ace6922bf532be0e559300d2b24e6189991c60118ed78964",
          "transactionIndex": "0x0",
          "logIndex": "0x0",
          "removed": false
        },
        {
          "address": "0x20c0000000000000000000000000000000000000",
          "topics": [
            "0xddf252ad1be2c89b69c2b068fc378daa952ba7f163c4a11628f55a4df523b3ef",
            "0x00000000000000000000000045dce8e4f2dc005a5f28206a46cb034697eeda8e",
            "0x000000000000000000000000feec000000000000000000000000000000000000"
          ],
          "data": "0x0000000000000000000000000000000000000000000000000000000000001699",
          "blockHash": "0xfb013aa08708b10f953043ab99eda1391e75df6d03a0b0d7829ccd5bdeeb9b0c",
          "blockNumber": "0x83386d",
          "blockTimestamp": "0x69afc854",
          "transactionHash": "0x4d59f847f3dd1d65ace6922bf532be0e559300d2b24e6189991c60118ed78964",
          "transactionIndex": "0x0",
          "logIndex": "0x1",
          "removed": false
        }
      ],
      "logsBloom": "0x00000000000000000000000200000040000000000000000000000000000000000000000000000000000000000100000000000100000000000000000000200000000004000000000000000008000000000000000000000000000000000400000000000004000000000000000000000000000000000000100000000010000000000000000000000000000000000020000000000000800000000000000000000000020020000000001000000000000000000000000000000000000000000000000000000002000000040000000000000000001000000000000000000000000000000010000000000000000000000000800000004000008000000000000000200000",
      "transactionHash": "0x4d59f847f3dd1d65ace6922bf532be0e559300d2b24e6189991c60118ed78964",
      "transactionIndex": "0x0",
      "blockHash": "0xfb013aa08708b10f953043ab99eda1391e75df6d03a0b0d7829ccd5bdeeb9b0c",
      "blockNumber": "0x83386d",
      "gasUsed": "0x469b7",
      "effectiveGasPrice": "0x4a817c801",
      "from": "0x45dce8e4f2dc005a5f28206a46cb034697eeda8e",
      "to": "0x741f0d8bde14140f62107fc60a0ee122b37d4630",
      "contractAddress": null,
      "feeToken": "0x20c0000000000000000000000000000000000000",
      "feePayer": "0x45dce8e4f2dc005a5f28206a46cb034697eeda8e"
    },
    {
      "type": "0x2",
      "status": "0x1",
      "cumulativeGasUsed": "0x9927",
      "logs": [
        {
          "address": "0x20c0000000000000000000003554d28269e0f3c2",
          "topics": [
            "0x8c5be1e5ebec7d5bd14f71427d1e84f3dd0314c0f7b2291e5b200ac8c7c3b925",
            "0x000000000000000000000000741f0d8bde14140f62107fc60a0ee122b37d4630",
            "0x00000000000000000000000000000000d61733e7a393a10a5b48c311abe8f1e5"
          ],
          "data": "0xffffffffffffffffffffffffffffffffffffffffffffffffffffffffffffffff",
          "blockHash": "0x267fe6916fa0485ca8019c10b67814d4bee57bcdb8168149850e402d0a33d1f6",
          "blockNumber": "0x833870",
          "blockTimestamp": "0x69afc856",
          "transactionHash": "0x8ce9804afe4bfdeaa0928fea9917f40279f17c320eabf372bf4ad5b2a4757434",
          "transactionIndex": "0x0",
          "logIndex": "0x0",
          "removed": false
        },
        {
          "address": "0x20c0000000000000000000000000000000000000",
          "topics": [
            "0xddf252ad1be2c89b69c2b068fc378daa952ba7f163c4a11628f55a4df523b3ef",
            "0x00000000000000000000000045dce8e4f2dc005a5f28206a46cb034697eeda8e",
            "0x000000000000000000000000feec000000000000000000000000000000000000"
          ],
          "data": "0x0000000000000000000000000000000000000000000000000000000000000311",
          "blockHash": "0x267fe6916fa0485ca8019c10b67814d4bee57bcdb8168149850e402d0a33d1f6",
          "blockNumber": "0x833870",
          "blockTimestamp": "0x69afc856",
          "transactionHash": "0x8ce9804afe4bfdeaa0928fea9917f40279f17c320eabf372bf4ad5b2a4757434",
          "transactionIndex": "0x0",
          "logIndex": "0x1",
          "removed": false
        }
      ],
      "logsBloom": "0x00000000000000000000000200000040000000000000000000000000000000000000000000000000000000000100000000000100000000000000000000200000000004000000000000000008000000000000000000000000000002000400000000000004000000000000000000000000000000000000000000000010000000000000000000000000000000000020000000000000800000000000000000800000020020000000001000000000000000000000000000000000000000000000000000000002000000040000000000000000001000000000000001000000000000000010000000000000000000000000800000000000000000000000000000200000",
      "transactionHash": "0x8ce9804afe4bfdeaa0928fea9917f40279f17c320eabf372bf4ad5b2a4757434",
      "transactionIndex": "0x0",
      "blockHash": "0x267fe6916fa0485ca8019c10b67814d4bee57bcdb8168149850e402d0a33d1f6",
      "blockNumber": "0x833870",
      "gasUsed": "0x9927",
      "effectiveGasPrice": "0x4a817c801",
      "from": "0x45dce8e4f2dc005a5f28206a46cb034697eeda8e",
      "to": "0x741f0d8bde14140f62107fc60a0ee122b37d4630",
      "contractAddress": null,
      "feeToken": "0x20c0000000000000000000000000000000000000",
      "feePayer": "0x45dce8e4f2dc005a5f28206a46cb034697eeda8e"
    },
    {
      "type": "0x2",
      "status": "0x1",
      "cumulativeGasUsed": "0x469b7",
      "logs": [
        {
          "address": "0x20c0000000000000000000003554d28269e0f3c2",
          "topics": [
            "0x8c5be1e5ebec7d5bd14f71427d1e84f3dd0314c0f7b2291e5b200ac8c7c3b925",
            "0x000000000000000000000000741f0d8bde14140f62107fc60a0ee122b37d4630",
            "0x000000000000000000000000000000008c3930dca540bb9b3a5d0ee78fca9a4c"
          ],
          "data": "0xffffffffffffffffffffffffffffffffffffffffffffffffffffffffffffffff",
          "blockHash": "0xc5b600d4f049ea21699c69f0d8d87f2929048720ee40655add3c40f6fb38e5bd",
          "blockNumber": "0x833874",
          "blockTimestamp": "0x69afc858",
          "transactionHash": "0xa1bf14f53221b8178bdfd38b87c8fb66e8b3025e12cb5bb71f6c9f137ddaaccf",
          "transactionIndex": "0x0",
          "logIndex": "0x0",
          "removed": false
        },
        {
          "address": "0x20c0000000000000000000000000000000000000",
          "topics": [
            "0xddf252ad1be2c89b69c2b068fc378daa952ba7f163c4a11628f55a4df523b3ef",
            "0x00000000000000000000000045dce8e4f2dc005a5f28206a46cb034697eeda8e",
            "0x000000000000000000000000feec000000000000000000000000000000000000"
          ],
          "data": "0x0000000000000000000000000000000000000000000000000000000000001699",
          "blockHash": "0xc5b600d4f049ea21699c69f0d8d87f2929048720ee40655add3c40f6fb38e5bd",
          "blockNumber": "0x833874",
          "blockTimestamp": "0x69afc858",
          "transactionHash": "0xa1bf14f53221b8178bdfd38b87c8fb66e8b3025e12cb5bb71f6c9f137ddaaccf",
          "transactionIndex": "0x0",
          "logIndex": "0x1",
          "removed": false
        }
      ],
      "logsBloom": "0x00001000000000000000000200000040000000000000000000000000000000000000000000000000000000000100000000000100000000000000000000200000000004000000000000000008000000000000000000000000000000000400000000000004000000000000000000000000000000000000000000000010000000000000000000000000000000000020000000000000800000000000000000000000020020000000001000000000000000000000000000000000000080000000000000000002000000040000000000000000001000000000000800000000000000000010000000000000000000000000800000000000000000000000000000200000",
      "transactionHash": "0xa1bf14f53221b8178bdfd38b87c8fb66e8b3025e12cb5bb71f6c9f137ddaaccf",
      "transactionIndex": "0x0",
      "blockHash": "0xc5b600d4f049ea21699c69f0d8d87f2929048720ee40655add3c40f6fb38e5bd",
      "blockNumber": "0x833874",
      "gasUsed": "0x469b7",
      "effectiveGasPrice": "0x4a817c801",
      "from": "0x45dce8e4f2dc005a5f28206a46cb034697eeda8e",
      "to": "0x741f0d8bde14140f62107fc60a0ee122b37d4630",
      "contractAddress": null,
      "feeToken": "0x20c0000000000000000000000000000000000000",
      "feePayer": "0x45dce8e4f2dc005a5f28206a46cb034697eeda8e"
    },
    {
      "type": "0x2",
      "status": "0x1",
      "cumulativeGasUsed": "0x469b7",
      "logs": [
        {
          "address": "0x20c0000000000000000000003554d28269e0f3c2",
          "topics": [
            "0x8c5be1e5ebec7d5bd14f71427d1e84f3dd0314c0f7b2291e5b200ac8c7c3b925",
            "0x000000000000000000000000741f0d8bde14140f62107fc60a0ee122b37d4630",
            "0x00000000000000000000000000000000bc4aef4ba6363a437455cb1af19e2aeb"
          ],
          "data": "0xffffffffffffffffffffffffffffffffffffffffffffffffffffffffffffffff",
          "blockHash": "0xaf4dd6be6e7d60d51da01aecb0f290b92f7ef8ae27c43e5b6cfadf7d8fbe2bbf",
          "blockNumber": "0x833878",
          "blockTimestamp": "0x69afc85a",
          "transactionHash": "0x16b826569cbe438113b3bb81cb4727ba68edacc05fddc3049b512398925b97ae",
          "transactionIndex": "0x0",
          "logIndex": "0x0",
          "removed": false
        },
        {
          "address": "0x20c0000000000000000000000000000000000000",
          "topics": [
            "0xddf252ad1be2c89b69c2b068fc378daa952ba7f163c4a11628f55a4df523b3ef",
            "0x00000000000000000000000045dce8e4f2dc005a5f28206a46cb034697eeda8e",
            "0x000000000000000000000000feec000000000000000000000000000000000000"
          ],
          "data": "0x0000000000000000000000000000000000000000000000000000000000001699",
          "blockHash": "0xaf4dd6be6e7d60d51da01aecb0f290b92f7ef8ae27c43e5b6cfadf7d8fbe2bbf",
          "blockNumber": "0x833878",
          "blockTimestamp": "0x69afc85a",
          "transactionHash": "0x16b826569cbe438113b3bb81cb4727ba68edacc05fddc3049b512398925b97ae",
          "transactionIndex": "0x0",
          "logIndex": "0x1",
          "removed": false
        }
      ],
      "logsBloom": "0x00000000000000000000000200000040000000000000000000000000000000000000000000000000800000040100000000000100000000000000000000200000000004000000000000000008000000000000000020000000000000000400000000000004000000000000000000000000000000000000000000000010000000000000000000000000000000000020000000000000800000000000000000000000020020000000001000000000000000000000000000000000000000000000000000000002000000040000000000000000001000000000000000000000000000000010000000000000000000000000800000000000000000000000000000200000",
      "transactionHash": "0x16b826569cbe438113b3bb81cb4727ba68edacc05fddc3049b512398925b97ae",
      "transactionIndex": "0x0",
      "blockHash": "0xaf4dd6be6e7d60d51da01aecb0f290b92f7ef8ae27c43e5b6cfadf7d8fbe2bbf",
      "blockNumber": "0x833878",
      "gasUsed": "0x469b7",
      "effectiveGasPrice": "0x4a817c801",
      "from": "0x45dce8e4f2dc005a5f28206a46cb034697eeda8e",
      "to": "0x741f0d8bde14140f62107fc60a0ee122b37d4630",
      "contractAddress": null,
      "feeToken": "0x20c0000000000000000000000000000000000000",
      "feePayer": "0x45dce8e4f2dc005a5f28206a46cb034697eeda8e"
    },
    {
      "type": "0x2",
      "status": "0x1",
      "cumulativeGasUsed": "0x6d78",
      "logs": [
        {
          "address": "0xfeec000000000000000000000000000000000000",
          "topics": [
            "0xabc7758d4ca817ce0d125eb731121a1304c36077b791253be835b95472368856",
            "0x00000000000000000000000045dce8e4f2dc005a5f28206a46cb034697eeda8e",
            "0x00000000000000000000000020c0000000000000000000003554d28269e0f3c2"
          ],
          "data": "0x",
          "blockHash": "0x7af0190ba1991dd1ba3bc0faefefaf2ca358d81d52b1e46d542bdda7faaf8e5a",
          "blockNumber": "0x83387d",
          "blockTimestamp": "0x69afc85d",
          "transactionHash": "0x6cf73faa5196fa591a1ea9588373c0bd5472f93adb1864c48bfed33470ad7d62",
          "transactionIndex": "0x0",
          "logIndex": "0x0",
          "removed": false
        },
        {
          "address": "0x20c0000000000000000000003554d28269e0f3c2",
          "topics": [
            "0xddf252ad1be2c89b69c2b068fc378daa952ba7f163c4a11628f55a4df523b3ef",
            "0x00000000000000000000000045dce8e4f2dc005a5f28206a46cb034697eeda8e",
            "0x000000000000000000000000feec000000000000000000000000000000000000"
          ],
          "data": "0x0000000000000000000000000000000000000000000000000000000000000231",
          "blockHash": "0x7af0190ba1991dd1ba3bc0faefefaf2ca358d81d52b1e46d542bdda7faaf8e5a",
          "blockNumber": "0x83387d",
          "blockTimestamp": "0x69afc85d",
          "transactionHash": "0x6cf73faa5196fa591a1ea9588373c0bd5472f93adb1864c48bfed33470ad7d62",
          "transactionIndex": "0x0",
          "logIndex": "0x1",
          "removed": false
        }
      ],
      "logsBloom": "0x00000000000000000000000200000000000000000000000000000000000000000000000000000000000000000000020000000000000000000000000000000000000004000000000000000008000000001000000000000000000000000000000000000004000000000080000000000000000000000000000000000010000000000000000000000000000000000020000000000000000000000000000000000000000020000000000000000000000400000000000000000000000000000000000000000002000000040000000000000000001000002080000000000000000000000000000000000000000100000000800002000800000000000000000000200000",
      "transactionHash": "0x6cf73faa5196fa591a1ea9588373c0bd5472f93adb1864c48bfed33470ad7d62",
      "transactionIndex": "0x0",
      "blockHash": "0x7af0190ba1991dd1ba3bc0faefefaf2ca358d81d52b1e46d542bdda7faaf8e5a",
      "blockNumber": "0x83387d",
      "gasUsed": "0x6d78",
      "effectiveGasPrice": "0x4a817c801",
      "from": "0x45dce8e4f2dc005a5f28206a46cb034697eeda8e",
      "to": "0xfeec000000000000000000000000000000000000",
      "contractAddress": null,
      "feeToken": "0x20c0000000000000000000003554d28269e0f3c2",
      "feePayer": "0x45dce8e4f2dc005a5f28206a46cb034697eeda8e"
    },
    {
      "type": "0x2",
      "status": "0x1",
      "cumulativeGasUsed": "0x43696",
      "logs": [
        {
          "address": "0x20c0000000000000000000003554d28269e0f3c2",
          "topics": [
            "0x8c5be1e5ebec7d5bd14f71427d1e84f3dd0314c0f7b2291e5b200ac8c7c3b925",
            "0x00000000000000000000000045dce8e4f2dc005a5f28206a46cb034697eeda8e",
            "0x000000000000000000000000741f0d8bde14140f62107fc60a0ee122b37d4630"
          ],
          "data": "0xffffffffffffffffffffffffffffffffffffffffffffffffffffffffffffffff",
          "blockHash": "0x97dafa96683ae8368895b426004041fa2a6ddb77792e76e45bc03af8b0944c7e",
          "blockNumber": "0x833882",
          "blockTimestamp": "0x69afc860",
          "transactionHash": "0xe1a8b6420538ac3753435abf052164a7f53304176959c50b4fd14a4d5f0fb2d6",
          "transactionIndex": "0x0",
          "logIndex": "0x0",
          "removed": false
        },
        {
          "address": "0x20c0000000000000000000003554d28269e0f3c2",
          "topics": [
            "0xddf252ad1be2c89b69c2b068fc378daa952ba7f163c4a11628f55a4df523b3ef",
            "0x00000000000000000000000045dce8e4f2dc005a5f28206a46cb034697eeda8e",
            "0x000000000000000000000000feec000000000000000000000000000000000000"
          ],
          "data": "0x0000000000000000000000000000000000000000000000000000000000001593",
          "blockHash": "0x97dafa96683ae8368895b426004041fa2a6ddb77792e76e45bc03af8b0944c7e",
          "blockNumber": "0x833882",
          "blockTimestamp": "0x69afc860",
          "transactionHash": "0xe1a8b6420538ac3753435abf052164a7f53304176959c50b4fd14a4d5f0fb2d6",
          "transactionIndex": "0x0",
          "logIndex": "0x1",
          "removed": false
        }
      ],
      "logsBloom": "0x00000000000000000000000200000040000000000000000000000000000000000000000000000000000000000000000000000100000000000000000000200000000004000000000000000008000000000000000000000000000000000000000000000004000000000000000000000000000000000000000000000010000000000000000000000000000000000020000000000000000000000000000000000000020020000000001000000000000000000000000000000000000000000000000000000002000000040000000000000000001000000000000000000000000000000010000000000000000000000000800000000000000000000000000000200000",
      "transactionHash": "0xe1a8b6420538ac3753435abf052164a7f53304176959c50b4fd14a4d5f0fb2d6",
      "transactionIndex": "0x0",
      "blockHash": "0x97dafa96683ae8368895b426004041fa2a6ddb77792e76e45bc03af8b0944c7e",
      "blockNumber": "0x833882",
      "gasUsed": "0x43696",
      "effectiveGasPrice": "0x4a817c801",
      "from": "0x45dce8e4f2dc005a5f28206a46cb034697eeda8e",
      "to": "0x20c0000000000000000000003554d28269e0f3c2",
      "contractAddress": null,
      "feeToken": "0x20c0000000000000000000003554d28269e0f3c2",
      "feePayer": "0x45dce8e4f2dc005a5f28206a46cb034697eeda8e"
    }
  ],
  "libraries": [],
  "pending": [],
  "returns": {},
  "timestamp": 1773127781544,
  "chain": 4217,
  "commit": "abf8802"
}