{
  "transactions": [
    {
      "hash": "0x4801902ee812c1171e0d96674bf9ae7847723fd07ab894ecb06fec5f2ae493e3",
      "transactionType": "CALL",
      "contractName": null,
      "contractAddress": "0x741f0d8bde14140f62107fc60a0ee122b37d4630",
      "function": "batchBridgeWithEthFeeFromWallet((uint32,bytes32,uint256,uint256,bytes,bytes,bytes)[],address[],address[])",
      "arguments": [
        "[(30211, 0x0000000000000000000000004a767e2ef83577225522ef8ed71056c6e3acb216, 1000000000000000000, 0, 0x, 0x, 0x), (30214, 0x000000000000000000000000741f0d8bde14140f62107fc60a0ee122b37d4630, 1000000000000000000, 0, 0x, 0x, 0x)]",
        "[0x57558Cb8d6005DE0BAe8a2789d5EfaaE52dba5a8, 0x57558Cb8d6005DE0BAe8a2789d5EfaaE52dba5a8]",
        "[0x741F0d8Bde14140f62107FC60A0EE122B37D4630, 0x741F0d8Bde14140f62107FC60A0EE122B37D4630]"
      ],
      "transaction": {
        "from": "0x45dce8e4f2dc005a5f28206a46cb034697eeda8e",
        "to": "0x741f0d8bde14140f62107fc60a0ee122b37d4630",
        "gas": "0xf00b9",
        "value": "0x883e23e1f2d5",
        "input": "0xb70d42410000000000000000000000000000000000000000000000000000000000000060000000000000000000000000000000000000000000000000000000000000034000000000000000000000000000000000000000000000000000000000000003a000000000000000000000000000000000000000000000000000000000000000020000000000000000000000000000000000000000000000000000000000000040000000000000000000000000000000000000000000000000000000000000018000000000000000000000000000000000000000000000000000000000000076030000000000000000000000004a767e2ef83577225522ef8ed71056c6e3acb2160000000000000000000000000000000000000000000000000de0b6b3a7640000000000000000000000000000000000000000000000000000000000000000000000000000000000000000000000000000000000000000000000000000000000e0000000000000000000000000000000000000000000000000000000000000010000000000000000000000000000000000000000000000000000000000000001200000000000000000000000000000000000000000000000000000000000000000000000000000000000000000000000000000000000000000000000000000000000000000000000000000000000000000000000000000000000000000000000000000000000000000000000000000000000000000000000000000000000007606000000000000000000000000741f0d8bde14140f62107fc60a0ee122b37d46300000000000000000000000000000000000000000000000000de0b6b3a7640000000000000000000000000000000000000000000000000000000000000000000000000000000000000000000000000000000000000000000000000000000000e000000000000000000000000000000000000000000000000000000000000001000000000000000000000000000000000000000000000000000000000000000120000000000000000000000000000000000000000000000000000000000000000000000000000000000000000000000000000000000000000000000000000000000000000000000000000000000000000000000000000000000000000000000000000000000000000000000000000000000000000000000000000000000000000200000000000000000000000057558cb8d6005de0bae8a2789d5efaae52dba5a800000000000000000000000057558cb8d6005de0bae8a2789d5efaae52dba5a80000000000000000000000000000000000000000000000000000000000000002000000000000000000000000741f0d8bde14140f62107fc60a0ee122b37d4630000000000000000000000000741f0d8bde14140f62107fc60a0ee122b37d4630",
        "nonce": "0xd2",
        "chainId": "0x82"
      },
      "additionalContracts": [],
      "isFixedGasLimit": false
    }
  ],
  "receipts": [
    {
      "status": "0x1",
      "cumulativeGasUsed": "0x1a2f4a",
      "logs": [
        {
          "address": "0x57558cb8d6005de0bae8a2789d5efaae52dba5a8",
          "topics": [
            "0xddf252ad1be2c89b69c2b068fc378daa952ba7f163c4a11628f55a4df523b3ef",
            "0x000000000000000000000000741f0d8bde14140f62107fc60a0ee122b37d4630",
            "0x0000000000000000000000000000000000000000000000000000000000000000"
          ],
          "data": "0x0000000000000000000000000000000000000000000000000de0b6b3a7640000",
          "blockHash": "0x6f2cf38f14f737b8b9c464ee756f200a9a4c649cc53bcb322264f8f2464e3b42",
          "blockNumber": "0x18f6c68",
          "transactionHash": "0x4801902ee812c1171e0d96674bf9ae7847723fd07ab894ecb06fec5f2ae493e3",
          "transactionIndex": "0x4",
          "logIndex": "0x0",
          "removed": false
        },
        {
          "address": "0xc39161c743d0307eb9bcc9fef03eeb9dc4802de7",
          "topics": [
            "0x61ed099e74a97a1d7f8bb0952a88ca8b7b8ebd00c126ea04671f92a81213318a"
          ],
          "data": "0x0000000000000000000000004208d6e27538189bb48e603d6123a94b8abe0a0b000000000000000000000000000000000000000000000000000026bd2492bff0",
          "blockHash": "0x6f2cf38f14f737b8b9c464ee756f200a9a4c649cc53bcb322264f8f2464e3b42",
          "blockNumber": "0x18f6c68",
          "transactionHash": "0x4801902ee812c1171e0d96674bf9ae7847723fd07ab894ecb06fec5f2ae493e3",
          "transactionIndex": "0x4",
          "logIndex": "0x1",
          "removed": false
        },
        {
          "address": "0xc39161c743d0307eb9bcc9fef03eeb9dc4802de7",
          "topics": [
            "0x07ea52d82345d6e838192107d8fd7123d9c2ec8e916cd0aad13fd2b60db24644"
          ],
          "data": "0x000000000000000000000000000000000000000000000000000000000000006000000000000000000000000000000000000000000000000000000000000000e000000000000000000000000000000000000000000000000000000000000001000000000000000000000000000000000000000000000000000000000000000003000000000000000000000000282b3386571f7f794450d5789911a9804fa346b400000000000000000000000097faa2a9c9bf8b4082b175a5b894ce6bac6697a8000000000000000000000000c6a6324932b399d6a673b7ed0af671f28033e04600000000000000000000000000000000000000000000000000000000000000000000000000000000000000000000000000000000000000000000000000000003000000000000000000000000000000000000000000000000000006c9833ce800000000000000000000000000000000000000000000000000000006c9833ce800000000000000000000000000000000000000000000000000000006c9833ce800",
          "blockHash": "0x6f2cf38f14f737b8b9c464ee756f200a9a4c649cc53bcb322264f8f2464e3b42",
          "blockNumber": "0x18f6c68",
          "transactionHash": "0x4801902ee812c1171e0d96674bf9ae7847723fd07ab894ecb06fec5f2ae493e3",
          "transactionIndex": "0x4",
          "logIndex": "0x2",
          "removed": false
        },
        {
          "address": "0x6f475642a6e85809b1c36fa62763669b1b48dd5b",
          "topics": [
            "0x1ab700d4ced0c005b164c0f789fd09fcbb0156d4c2041b8a3bfbcd961cd1567f"
          ],
          "data": "0x00000000000000000000000000000000000000000000000000000000000000600000000000000000000000000000000000000000000000000000000000000120000000000000000000000000c39161c743d0307eb9bcc9fef03eeb9dc4802de700000000000000000000000000000000000000000000000000000000000000990100000000000000010000767000000000000000000000000057558cb8d6005de0bae8a2789d5efaae52dba5a800007603000000000000000000000000a057d8d4fc86a62801ce363c169b0a8d192f6ceeb9144881ce05e2c4d4eda08027e472ae31a2f22fc992174dd92b1cfe69a7f1380000000000000000000000004a767e2ef83577225522ef8ed71056c6e3acb21600000000000f424000000000000000000000000000000000000000000000000000000000000000000000000000001600030100110100000000000000000000000000030d4000000000000000000000",
          "blockHash": "0x6f2cf38f14f737b8b9c464ee756f200a9a4c649cc53bcb322264f8f2464e3b42",
          "blockNumber": "0x18f6c68",
          "transactionHash": "0x4801902ee812c1171e0d96674bf9ae7847723fd07ab894ecb06fec5f2ae493e3",
          "transactionIndex": "0x4",
          "logIndex": "0x3",
          "removed": false
        },
        {
          "address": "0x57558cb8d6005de0bae8a2789d5efaae52dba5a8",
          "topics": [
            "0x85496b760a4b7f8d66384b9df21b381f5d1b1e79f229a47aaf4c232edc2fe59a",
            "0xb9144881ce05e2c4d4eda08027e472ae31a2f22fc992174dd92b1cfe69a7f138",
            "0x000000000000000000000000741f0d8bde14140f62107fc60a0ee122b37d4630"
          ],
          "data": "0x00000000000000000000000000000000000000000000000000000000000076030000000000000000000000000000000000000000000000000de0b6b3a76400000000000000000000000000000000000000000000000000000de0b6b3a7640000",
          "blockHash": "0x6f2cf38f14f737b8b9c464ee756f200a9a4c649cc53bcb322264f8f2464e3b42",
          "blockNumber": "0x18f6c68",
          "transactionHash": "0x4801902ee812c1171e0d96674bf9ae7847723fd07ab894ecb06fec5f2ae493e3",
          "transactionIndex": "0x4",
          "logIndex": "0x4",
          "removed": false
        },
        {
          "address": "0x57558cb8d6005de0bae8a2789d5efaae52dba5a8",
          "topics": [
            "0xddf252ad1be2c89b69c2b068fc378daa952ba7f163c4a11628f55a4df523b3ef",
            "0x000000000000000000000000741f0d8bde14140f62107fc60a0ee122b37d4630",
            "0x0000000000000000000000000000000000000000000000000000000000000000"
          ],
          "data": "0x0000000000000000000000000000000000000000000000000de0b6b3a7640000",
          "blockHash": "0x6f2cf38f14f737b8b9c464ee756f200a9a4c649cc53bcb322264f8f2464e3b42",
          "blockNumber": "0x18f6c68",
          "transactionHash": "0x4801902ee812c1171e0d96674bf9ae7847723fd07ab894ecb06fec5f2ae493e3",
          "transactionIndex": "0x4",
          "logIndex": "0x5",
          "removed": false
        },
        {
          "address": "0xc39161c743d0307eb9bcc9fef03eeb9dc4802de7",
          "topics": [
            "0x61ed099e74a97a1d7f8bb0952a88ca8b7b8ebd00c126ea04671f92a81213318a"
          ],
          "data": "0x0000000000000000000000004208d6e27538189bb48e603d6123a94b8abe0a0b00000000000000000000000000000000000000000000000000004d1b83fa3125",
          "blockHash": "0x6f2cf38f14f737b8b9c464ee756f200a9a4c649cc53bcb322264f8f2464e3b42",
          "blockNumber": "0x18f6c68",
          "transactionHash": "0x4801902ee812c1171e0d96674bf9ae7847723fd07ab894ecb06fec5f2ae493e3",
          "transactionIndex": "0x4",
          "logIndex": "0x6",
          "removed": false
        },
        {
          "address": "0xc39161c743d0307eb9bcc9fef03eeb9dc4802de7",
          "topics": [
            "0x07ea52d82345d6e838192107d8fd7123d9c2ec8e916cd0aad13fd2b60db24644"
          ],
          "data": "0x000000000000000000000000000000000000000000000000000000000000006000000000000000000000000000000000000000000000000000000000000000e000000000000000000000000000000000000000000000000000000000000001000000000000000000000000000000000000000000000000000000000000000003000000000000000000000000282b3386571f7f794450d5789911a9804fa346b400000000000000000000000097faa2a9c9bf8b4082b175a5b894ce6bac6697a8000000000000000000000000c6a6324932b399d6a673b7ed0af671f28033e0460000000000000000000000000000000000000000000000000000000000000000000000000000000000000000000000000000000000000000000000000000000300000000000000000000000000000000000000000000000000000002fb34c34000000000000000000000000000000000000000000000000000000002fb34c34000000000000000000000000000000000000000000000000000000002fb34c340",
          "blockHash": "0x6f2cf38f14f737b8b9c464ee756f200a9a4c649cc53bcb322264f8f2464e3b42",
          "blockNumber": "0x18f6c68",
          "transactionHash": "0x4801902ee812c1171e0d96674bf9ae7847723fd07ab894ecb06fec5f2ae493e3",
          "transactionIndex": "0x4",
          "logIndex": "0x7",
          "removed": false
        },
        {
          "address": "0x6f475642a6e85809b1c36fa62763669b1b48dd5b",
          "topics": [
            "0x1ab700d4ced0c005b164c0f789fd09fcbb0156d4c2041b8a3bfbcd961cd1567f"
          ],
          "data": "0x00000000000000000000000000000000000000000000000000000000000000600000000000000000000000000000000000000000000000000000000000000120000000000000000000000000c39161c743d0307eb9bcc9fef03eeb9dc4802de700000000000000000000000000000000000000000000000000000000000000990100000000000000010000767000000000000000000000000057558cb8d6005de0bae8a2789d5efaae52dba5a80000760600000000000000000000000057558cb8d6005de0bae8a2789d5efaae52dba5a8443e7a114cfcf35520084ee46f8df9c59718b86cfe9c973d3f960b62d24a7e4f000000000000000000000000741f0d8bde14140f62107fc60a0ee122b37d463000000000000f424000000000000000000000000000000000000000000000000000000000000000000000000000001600030100110100000000000000000000000000030d4000000000000000000000",
          "blockHash": "0x6f2cf38f14f737b8b9c464ee756f200a9a4c649cc53bcb322264f8f2464e3b42",
          "blockNumber": "0x18f6c68",
          "transactionHash": "0x4801902ee812c1171e0d96674bf9ae7847723fd07ab894ecb06fec5f2ae493e3",
          "transactionIndex": "0x4",
          "logIndex": "0x8",
          "removed": false
        },
        {
          "address": "0x57558cb8d6005de0bae8a2789d5efaae52dba5a8",
          "topics": [
            "0x85496b760a4b7f8d66384b9df21b381f5d1b1e79f229a47aaf4c232edc2fe59a",
            "0x443e7a114cfcf35520084ee46f8df9c59718b86cfe9c973d3f960b62d24a7e4f",
            "0x000000000000000000000000741f0d8bde14140f62107fc60a0ee122b37d4630"
          ],
          "data": "0x00000000000000000000000000000000000000000000000000000000000076060000000000000000000000000000000000000000000000000de0b6b3a76400000000000000000000000000000000000000000000000000000de0b6b3a7640000",
          "blockHash": "0x6f2cf38f14f737b8b9c464ee756f200a9a4c649cc53bcb322264f8f2464e3b42",
          "blockNumber": "0x18f6c68",
          "transactionHash": "0x4801902ee812c1171e0d96674bf9ae7847723fd07ab894ecb06fec5f2ae493e3",
          "transactionIndex": "0x4",
          "logIndex": "0x9",
          "removed": false
        }
      ],
      "logsBloom": "0x001040000000000000000000000400400000000000000000000000000000000000000000000000000000000000000004000001000000000000000000000000000000020000000000000000080000000001c000000000004000000000000000000000000002000000802000000000080000000000100000000000001000000000000000000080000008000008000000000000000000000000000000000000000000000000a000001000100000000000000000000000400000000440000000000000000002000000000000000080000000000000000000000000000000000020004000040008000000000000000000002000000000008000000000000000000000",
      "type": "0x2",
      "transactionHash": "0x4801902ee812c1171e0d96674bf9ae7847723fd07ab894ecb06fec5f2ae493e3",
      "transactionIndex": "0x4",
      "blockHash": "0x6f2cf38f14f737b8b9c464ee756f200a9a4c649cc53bcb322264f8f2464e3b42",
      "blockNumber": "0x18f6c68",
      "gasUsed": "0xa4223",
      "effectiveGasPrice": "0x1d9c",
      "from": "0x45dce8e4f2dc005a5f28206a46cb034697eeda8e",
      "to": "0x741f0d8bde14140f62107fc60a0ee122b37d4630",
      "contractAddress": null,
      "l1BaseFeeScalar": "0x7d0",
      "l1BlobBaseFee": "0x1",
      "l1BlobBaseFeeScalar": "0xdbba0",
      "l1Fee": "0x22116d193",
      "l1GasPrice": "0x53c4db5b",
      "l1GasUsed": "0xcb5"
    }
  ],
  "libraries": [],
  "pending": [],
  "returns": {},
  "timestamp": 1756924976714,
  "chain": 130,
  "commit": "487ed68"
}