{
  "transactions": [
    {
      "hash": "0x1afad8b5b18fe4853b4aa162d1d6e6c5043f9f2bd145537766943b057764479d",
      "transactionType": "CALL",
      "contractName": null,
      "contractAddress": "0x741f0d8bde14140f62107fc60a0ee122b37d4630",
      "function": "batchBridgeWithEthFeeFromWallet((uint32,bytes32,uint256,uint256,bytes,bytes,bytes)[],address[],address[])",
      "arguments": [
        "[(30370, 0x000000000000000000000000741f0d8bde14140f62107fc60a0ee122b37d4630, 1000000000000000000, 0, 0x, 0x, 0x)]",
        "[0x57558Cb8d6005DE0BAe8a2789d5EfaaE52dba5a8]",
        "[0x741F0d8Bde14140f62107FC60A0EE122B37D4630]"
      ],
      "transaction": {
        "from": "0x45dce8e4f2dc005a5f28206a46cb034697eeda8e",
        "to": "0x741f0d8bde14140f62107fc60a0ee122b37d4630",
        "gas": "0x8d524",
        "value": "0x16d9962d0cd0",
        "input": "0xb70d4241000000000000000000000000000000000000000000000000000000000000006000000000000000000000000000000000000000000000000000000000000001e000000000000000000000000000000000000000000000000000000000000002200000000000000000000000000000000000000000000000000000000000000001000000000000000000000000000000000000000000000000000000000000002000000000000000000000000000000000000000000000000000000000000076a2000000000000000000000000741f0d8bde14140f62107fc60a0ee122b37d46300000000000000000000000000000000000000000000000000de0b6b3a7640000000000000000000000000000000000000000000000000000000000000000000000000000000000000000000000000000000000000000000000000000000000e000000000000000000000000000000000000000000000000000000000000001000000000000000000000000000000000000000000000000000000000000000120000000000000000000000000000000000000000000000000000000000000000000000000000000000000000000000000000000000000000000000000000000000000000000000000000000000000000000000000000000000000000000000000000000000000000000000000000000000000000000000000000000000000000100000000000000000000000057558cb8d6005de0bae8a2789d5efaae52dba5a80000000000000000000000000000000000000000000000000000000000000001000000000000000000000000741f0d8bde14140f62107fc60a0ee122b37d4630",
        "nonce": "0xc5",
        "chainId": "0x82"
      },
      "additionalContracts": [],
      "isFixedGasLimit": false
    }
  ],
  "receipts": [
    {
      "status": "0x1",
      "cumulativeGasUsed": "0x2a57d9",
      "logs": [
        {
          "address": "0x57558cb8d6005de0bae8a2789d5efaae52dba5a8",
          "topics": [
            "0xddf252ad1be2c89b69c2b068fc378daa952ba7f163c4a11628f55a4df523b3ef",
            "0x000000000000000000000000741f0d8bde14140f62107fc60a0ee122b37d4630",
            "0x0000000000000000000000000000000000000000000000000000000000000000"
          ],
          "data": "0x0000000000000000000000000000000000000000000000000de0b6b3a7640000",
          "blockHash": "0x76136025e01bff2295f515a95389c187af5db56a0e61a89266fcc1d4577bbcd4",
          "blockNumber": "0x151c893",
          "transactionHash": "0x1afad8b5b18fe4853b4aa162d1d6e6c5043f9f2bd145537766943b057764479d",
          "transactionIndex": "0x8",
          "logIndex": "0x5",
          "removed": false
        },
        {
          "address": "0xc39161c743d0307eb9bcc9fef03eeb9dc4802de7",
          "topics": [
            "0x61ed099e74a97a1d7f8bb0952a88ca8b7b8ebd00c126ea04671f92a81213318a"
          ],
          "data": "0x0000000000000000000000004208d6e27538189bb48e603d6123a94b8abe0a0b00000000000000000000000000000000000000000000000000000d8018e06928",
          "blockHash": "0x76136025e01bff2295f515a95389c187af5db56a0e61a89266fcc1d4577bbcd4",
          "blockNumber": "0x151c893",
          "transactionHash": "0x1afad8b5b18fe4853b4aa162d1d6e6c5043f9f2bd145537766943b057764479d",
          "transactionIndex": "0x8",
          "logIndex": "0x6",
          "removed": false
        },
        {
          "address": "0xc39161c743d0307eb9bcc9fef03eeb9dc4802de7",
          "topics": [
            "0x07ea52d82345d6e838192107d8fd7123d9c2ec8e916cd0aad13fd2b60db24644"
          ],
          "data": "0x000000000000000000000000000000000000000000000000000000000000006000000000000000000000000000000000000000000000000000000000000000e000000000000000000000000000000000000000000000000000000000000001000000000000000000000000000000000000000000000000000000000000000003000000000000000000000000282b3386571f7f794450d5789911a9804fa346b400000000000000000000000097faa2a9c9bf8b4082b175a5b894ce6bac6697a8000000000000000000000000c6a6324932b399d6a673b7ed0af671f28033e046000000000000000000000000000000000000000000000000000000000000000000000000000000000000000000000000000000000000000000000000000000030000000000000000000000000000000000000000000000000000031dd46ee1380000000000000000000000000000000000000000000000000000031dd46ee1380000000000000000000000000000000000000000000000000000031dd46ee138",
          "blockHash": "0x76136025e01bff2295f515a95389c187af5db56a0e61a89266fcc1d4577bbcd4",
          "blockNumber": "0x151c893",
          "transactionHash": "0x1afad8b5b18fe4853b4aa162d1d6e6c5043f9f2bd145537766943b057764479d",
          "transactionIndex": "0x8",
          "logIndex": "0x7",
          "removed": false
        },
        {
          "address": "0x6f475642a6e85809b1c36fa62763669b1b48dd5b",
          "topics": [
            "0x1ab700d4ced0c005b164c0f789fd09fcbb0156d4c2041b8a3bfbcd961cd1567f"
          ],
          "data": "0x00000000000000000000000000000000000000000000000000000000000000600000000000000000000000000000000000000000000000000000000000000120000000000000000000000000c39161c743d0307eb9bcc9fef03eeb9dc4802de700000000000000000000000000000000000000000000000000000000000000990100000000000000010000767000000000000000000000000057558cb8d6005de0bae8a2789d5efaae52dba5a8000076a200000000000000000000000057558cb8d6005de0bae8a2789d5efaae52dba5a84eb7972821ed0773de0729cf4bc7fb59589755b7e783546776f365ff5b5c4b1f000000000000000000000000741f0d8bde14140f62107fc60a0ee122b37d463000000000000f424000000000000000000000000000000000000000000000000000000000000000000000000000001600030100110100000000000000000000000000030d4000000000000000000000",
          "blockHash": "0x76136025e01bff2295f515a95389c187af5db56a0e61a89266fcc1d4577bbcd4",
          "blockNumber": "0x151c893",
          "transactionHash": "0x1afad8b5b18fe4853b4aa162d1d6e6c5043f9f2bd145537766943b057764479d",
          "transactionIndex": "0x8",
          "logIndex": "0x8",
          "removed": false
        },
        {
          "address": "0x57558cb8d6005de0bae8a2789d5efaae52dba5a8",
          "topics": [
            "0x85496b760a4b7f8d66384b9df21b381f5d1b1e79f229a47aaf4c232edc2fe59a",
            "0x4eb7972821ed0773de0729cf4bc7fb59589755b7e783546776f365ff5b5c4b1f",
            "0x000000000000000000000000741f0d8bde14140f62107fc60a0ee122b37d4630"
          ],
          "data": "0x00000000000000000000000000000000000000000000000000000000000076a20000000000000000000000000000000000000000000000000de0b6b3a76400000000000000000000000000000000000000000000000000000de0b6b3a7640000",
          "blockHash": "0x76136025e01bff2295f515a95389c187af5db56a0e61a89266fcc1d4577bbcd4",
          "blockNumber": "0x151c893",
          "transactionHash": "0x1afad8b5b18fe4853b4aa162d1d6e6c5043f9f2bd145537766943b057764479d",
          "transactionIndex": "0x8",
          "logIndex": "0x9",
          "removed": false
        }
      ],
      "logsBloom": "0x0010000000000000000000000004004000000000000000000000000000000000000000000001000000000000000000040000010000000000000000000000000000000200000000000000000800000000014000000000000000000000000000000000000002000000802000000000080000000000000000000000005000000000000000000080000000000008000000000000000000000000000000000020000000000000a000001000100000000000000000000000400000000440000000000000000002000000000000000080000000000000000000000000000000000020004000040000000000000000000000002000000000008000000000000000000000",
      "type": "0x2",
      "transactionHash": "0x1afad8b5b18fe4853b4aa162d1d6e6c5043f9f2bd145537766943b057764479d",
      "transactionIndex": "0x8",
      "blockHash": "0x76136025e01bff2295f515a95389c187af5db56a0e61a89266fcc1d4577bbcd4",
      "blockNumber": "0x151c893",
      "gasUsed": "0x66507",
      "effectiveGasPrice": "0x3885b",
      "from": "0x45dce8e4f2dc005a5f28206a46cb034697eeda8e",
      "to": "0x741f0d8bde14140f62107fc60a0ee122b37d4630",
      "contractAddress": null,
      "l1BaseFeeScalar": "0x7d0",
      "l1BlobBaseFee": "0x1",
      "l1BlobBaseFeeScalar": "0xdbba0",
      "l1Fee": "0x1933ac642",
      "l1GasPrice": "0x524681b6",
      "l1GasUsed": "0x992"
    }
  ],
  "libraries": [],
  "pending": [],
  "returns": {},
  "timestamp": 1752885338,
  "chain": 130,
  "commit": "c079579"
}