{
  "transactions": [
    {
      "hash": "0xe9d9860021a20c55f51311dfa84020031e9495f390caa59350fe0cbc35786f39",
      "transactionType": "CALL",
      "contractName": null,
      "contractAddress": "0x64445f0aecc51e94ad52d8ac56b7190e764e561a",
      "function": "send((uint32,bytes32,uint256,uint256,bytes,bytes,bytes),(uint256,uint256),address)",
      "arguments": [
        "(30101, 0x000000000000000000000000b0e1650a9760e0f383174af042091fc544b8356f, 1000000000000, 1000000000000, 0x0003, 0x, 0x)",
        "(3093301847106296, 0)",
        "0xb0E1650A9760e0f383174af042091fc544b8356f"
      ],
      "transaction": {
        "from": "0xb0e1650a9760e0f383174af042091fc544b8356f",
        "to": "0x64445f0aecc51e94ad52d8ac56b7190e764e561a",
        "gas": "0x5a990",
        "value": "0xafd5775c7a2f8",
        "input": "0xc7c7f5b30000000000000000000000000000000000000000000000000000000000000080000000000000000000000000000000000000000000000000000afd5775c7a2f80000000000000000000000000000000000000000000000000000000000000000000000000000000000000000b0e1650a9760e0f383174af042091fc544b8356f0000000000000000000000000000000000000000000000000000000000007595000000000000000000000000b0e1650a9760e0f383174af042091fc544b8356f000000000000000000000000000000000000000000000000000000e8d4a51000000000000000000000000000000000000000000000000000000000e8d4a5100000000000000000000000000000000000000000000000000000000000000000e0000000000000000000000000000000000000000000000000000000000000012000000000000000000000000000000000000000000000000000000000000001400000000000000000000000000000000000000000000000000000000000000002000300000000000000000000000000000000000000000000000000000000000000000000000000000000000000000000000000000000000000000000000000000000000000000000000000000000000000000000000000000000000000000000",
        "nonce": "0x7",
        "chainId": "0x868b"
      },
      "additionalContracts": [],
      "isFixedGasLimit": false
    },
    {
      "hash": "0xd5be1958739abeeb45be2f6069a1d5fb69c0103e7727c200acf7a9a0a7b4e7d9",
      "transactionType": "CALL",
      "contractName": null,
      "contractAddress": "0x5bff88ca1442c2496f7e475e9e7786383bc070c0",
      "function": "send((uint32,bytes32,uint256,uint256,bytes,bytes,bytes),(uint256,uint256),address)",
      "arguments": [
        "(30101, 0x000000000000000000000000b0e1650a9760e0f383174af042091fc544b8356f, 1000000000000, 1000000000000, 0x0003, 0x, 0x)",
        "(3093301847106296, 0)",
        "0xb0E1650A9760e0f383174af042091fc544b8356f"
      ],
      "transaction": {
        "from": "0xb0e1650a9760e0f383174af042091fc544b8356f",
        "to": "0x5bff88ca1442c2496f7e475e9e7786383bc070c0",
        "gas": "0x5a990",
        "value": "0xafd5775c7a2f8",
        "input": "0xc7c7f5b30000000000000000000000000000000000000000000000000000000000000080000000000000000000000000000000000000000000000000000afd5775c7a2f80000000000000000000000000000000000000000000000000000000000000000000000000000000000000000b0e1650a9760e0f383174af042091fc544b8356f0000000000000000000000000000000000000000000000000000000000007595000000000000000000000000b0e1650a9760e0f383174af042091fc544b8356f000000000000000000000000000000000000000000000000000000e8d4a51000000000000000000000000000000000000000000000000000000000e8d4a5100000000000000000000000000000000000000000000000000000000000000000e0000000000000000000000000000000000000000000000000000000000000012000000000000000000000000000000000000000000000000000000000000001400000000000000000000000000000000000000000000000000000000000000002000300000000000000000000000000000000000000000000000000000000000000000000000000000000000000000000000000000000000000000000000000000000000000000000000000000000000000000000000000000000000000000000",
        "nonce": "0x8",
        "chainId": "0x868b"
      },
      "additionalContracts": [],
      "isFixedGasLimit": false
    },
    {
      "hash": "0x1124df2443397c14296546cd0c84526dab1e244a3c3fadff053f7d98d3456ea1",
      "transactionType": "CALL",
      "contractName": null,
      "contractAddress": "0x3ec3849c33291a9ef4c5db86de593eb4a37fde45",
      "function": "send((uint32,bytes32,uint256,uint256,bytes,bytes,bytes),(uint256,uint256),address)",
      "arguments": [
        "(30101, 0x000000000000000000000000b0e1650a9760e0f383174af042091fc544b8356f, 1000000000000, 1000000000000, 0x0003, 0x, 0x)",
        "(3093301847106296, 0)",
        "0xb0E1650A9760e0f383174af042091fc544b8356f"
      ],
      "transaction": {
        "from": "0xb0e1650a9760e0f383174af042091fc544b8356f",
        "to": "0x3ec3849c33291a9ef4c5db86de593eb4a37fde45",
        "gas": "0x5a990",
        "value": "0xafd5775c7a2f8",
        "input": "0xc7c7f5b30000000000000000000000000000000000000000000000000000000000000080000000000000000000000000000000000000000000000000000afd5775c7a2f80000000000000000000000000000000000000000000000000000000000000000000000000000000000000000b0e1650a9760e0f383174af042091fc544b8356f0000000000000000000000000000000000000000000000000000000000007595000000000000000000000000b0e1650a9760e0f383174af042091fc544b8356f000000000000000000000000000000000000000000000000000000e8d4a51000000000000000000000000000000000000000000000000000000000e8d4a5100000000000000000000000000000000000000000000000000000000000000000e0000000000000000000000000000000000000000000000000000000000000012000000000000000000000000000000000000000000000000000000000000001400000000000000000000000000000000000000000000000000000000000000002000300000000000000000000000000000000000000000000000000000000000000000000000000000000000000000000000000000000000000000000000000000000000000000000000000000000000000000000000000000000000000000000",
        "nonce": "0x9",
        "chainId": "0x868b"
      },
      "additionalContracts": [],
      "isFixedGasLimit": false
    },
    {
      "hash": "0x92ab4b3c85da10dd9d9cdb2da1ce5495cc08812cff9af94798b486d692aabee4",
      "transactionType": "CALL",
      "contractName": null,
      "contractAddress": "0x80eede496655fb9047dd39d9f418d5483ed600df",
      "function": "send((uint32,bytes32,uint256,uint256,bytes,bytes,bytes),(uint256,uint256),address)",
      "arguments": [
        "(30101, 0x000000000000000000000000b0e1650a9760e0f383174af042091fc544b8356f, 1000000000000, 1000000000000, 0x0003, 0x, 0x)",
        "(3093301847106296, 0)",
        "0xb0E1650A9760e0f383174af042091fc544b8356f"
      ],
      "transaction": {
        "from": "0xb0e1650a9760e0f383174af042091fc544b8356f",
        "to": "0x80eede496655fb9047dd39d9f418d5483ed600df",
        "gas": "0x5a990",
        "value": "0xafd5775c7a2f8",
        "input": "0xc7c7f5b30000000000000000000000000000000000000000000000000000000000000080000000000000000000000000000000000000000000000000000afd5775c7a2f80000000000000000000000000000000000000000000000000000000000000000000000000000000000000000b0e1650a9760e0f383174af042091fc544b8356f0000000000000000000000000000000000000000000000000000000000007595000000000000000000000000b0e1650a9760e0f383174af042091fc544b8356f000000000000000000000000000000000000000000000000000000e8d4a51000000000000000000000000000000000000000000000000000000000e8d4a5100000000000000000000000000000000000000000000000000000000000000000e0000000000000000000000000000000000000000000000000000000000000012000000000000000000000000000000000000000000000000000000000000001400000000000000000000000000000000000000000000000000000000000000002000300000000000000000000000000000000000000000000000000000000000000000000000000000000000000000000000000000000000000000000000000000000000000000000000000000000000000000000000000000000000000000000",
        "nonce": "0xa",
        "chainId": "0x868b"
      },
      "additionalContracts": [],
      "isFixedGasLimit": false
    },
    {
      "hash": "0xcd09f0dcfeb5c2e366cc65f6b1e132428cd7a365e8a8c950e0866d9f814b19fb",
      "transactionType": "CALL",
      "contractName": null,
      "contractAddress": "0x64445f0aecc51e94ad52d8ac56b7190e764e561a",
      "function": "send((uint32,bytes32,uint256,uint256,bytes,bytes,bytes),(uint256,uint256),address)",
      "arguments": [
        "(30243, 0x000000000000000000000000b0e1650a9760e0f383174af042091fc544b8356f, 1000000000000, 1000000000000, 0x0003, 0x, 0x)",
        "(258439868315123, 0)",
        "0xb0E1650A9760e0f383174af042091fc544b8356f"
      ],
      "transaction": {
        "from": "0xb0e1650a9760e0f383174af042091fc544b8356f",
        "to": "0x64445f0aecc51e94ad52d8ac56b7190e764e561a",
        "gas": "0x62a65",
        "value": "0xeb0cb88bf5f3",
        "input": "0xc7c7f5b300000000000000000000000000000000000000000000000000000000000000800000000000000000000000000000000000000000000000000000eb0cb88bf5f30000000000000000000000000000000000000000000000000000000000000000000000000000000000000000b0e1650a9760e0f383174af042091fc544b8356f0000000000000000000000000000000000000000000000000000000000007623000000000000000000000000b0e1650a9760e0f383174af042091fc544b8356f000000000000000000000000000000000000000000000000000000e8d4a51000000000000000000000000000000000000000000000000000000000e8d4a5100000000000000000000000000000000000000000000000000000000000000000e0000000000000000000000000000000000000000000000000000000000000012000000000000000000000000000000000000000000000000000000000000001400000000000000000000000000000000000000000000000000000000000000002000300000000000000000000000000000000000000000000000000000000000000000000000000000000000000000000000000000000000000000000000000000000000000000000000000000000000000000000000000000000000000000000",
        "nonce": "0xb",
        "chainId": "0x868b"
      },
      "additionalContracts": [],
      "isFixedGasLimit": false
    },
    {
      "hash": "0xcba265cd60279c3c4c9dac1963272f3f67662190fad41d79be248227dca34912",
      "transactionType": "CALL",
      "contractName": null,
      "contractAddress": "0x5bff88ca1442c2496f7e475e9e7786383bc070c0",
      "function": "send((uint32,bytes32,uint256,uint256,bytes,bytes,bytes),(uint256,uint256),address)",
      "arguments": [
        "(30243, 0x000000000000000000000000b0e1650a9760e0f383174af042091fc544b8356f, 1000000000000, 1000000000000, 0x0003, 0x, 0x)",
        "(258439868315123, 0)",
        "0xb0E1650A9760e0f383174af042091fc544b8356f"
      ],
      "transaction": {
        "from": "0xb0e1650a9760e0f383174af042091fc544b8356f",
        "to": "0x5bff88ca1442c2496f7e475e9e7786383bc070c0",
        "gas": "0x62a65",
        "value": "0xeb0cb88bf5f3",
        "input": "0xc7c7f5b300000000000000000000000000000000000000000000000000000000000000800000000000000000000000000000000000000000000000000000eb0cb88bf5f30000000000000000000000000000000000000000000000000000000000000000000000000000000000000000b0e1650a9760e0f383174af042091fc544b8356f0000000000000000000000000000000000000000000000000000000000007623000000000000000000000000b0e1650a9760e0f383174af042091fc544b8356f000000000000000000000000000000000000000000000000000000e8d4a51000000000000000000000000000000000000000000000000000000000e8d4a5100000000000000000000000000000000000000000000000000000000000000000e0000000000000000000000000000000000000000000000000000000000000012000000000000000000000000000000000000000000000000000000000000001400000000000000000000000000000000000000000000000000000000000000002000300000000000000000000000000000000000000000000000000000000000000000000000000000000000000000000000000000000000000000000000000000000000000000000000000000000000000000000000000000000000000000000",
        "nonce": "0xc",
        "chainId": "0x868b"
      },
      "additionalContracts": [],
      "isFixedGasLimit": false
    },
    {
      "hash": "0x697f5e6f608932560920346a8097dda5368b29533afe014ec35ab2d4cd0cee2f",
      "transactionType": "CALL",
      "contractName": null,
      "contractAddress": "0x3ec3849c33291a9ef4c5db86de593eb4a37fde45",
      "function": "send((uint32,bytes32,uint256,uint256,bytes,bytes,bytes),(uint256,uint256),address)",
      "arguments": [
        "(30243, 0x000000000000000000000000b0e1650a9760e0f383174af042091fc544b8356f, 1000000000000, 1000000000000, 0x0003, 0x, 0x)",
        "(258439868315123, 0)",
        "0xb0E1650A9760e0f383174af042091fc544b8356f"
      ],
      "transaction": {
        "from": "0xb0e1650a9760e0f383174af042091fc544b8356f",
        "to": "0x3ec3849c33291a9ef4c5db86de593eb4a37fde45",
        "gas": "0x62a65",
        "value": "0xeb0cb88bf5f3",
        "input": "0xc7c7f5b300000000000000000000000000000000000000000000000000000000000000800000000000000000000000000000000000000000000000000000eb0cb88bf5f30000000000000000000000000000000000000000000000000000000000000000000000000000000000000000b0e1650a9760e0f383174af042091fc544b8356f0000000000000000000000000000000000000000000000000000000000007623000000000000000000000000b0e1650a9760e0f383174af042091fc544b8356f000000000000000000000000000000000000000000000000000000e8d4a51000000000000000000000000000000000000000000000000000000000e8d4a5100000000000000000000000000000000000000000000000000000000000000000e0000000000000000000000000000000000000000000000000000000000000012000000000000000000000000000000000000000000000000000000000000001400000000000000000000000000000000000000000000000000000000000000002000300000000000000000000000000000000000000000000000000000000000000000000000000000000000000000000000000000000000000000000000000000000000000000000000000000000000000000000000000000000000000000000",
        "nonce": "0xd",
        "chainId": "0x868b"
      },
      "additionalContracts": [],
      "isFixedGasLimit": false
    },
    {
      "hash": "0x0ab6bdf70142cf4ebba82b6ddedbdba089dfb8eaf2d991ddb8831cb097ee3073",
      "transactionType": "CALL",
      "contractName": null,
      "contractAddress": "0x80eede496655fb9047dd39d9f418d5483ed600df",
      "function": "send((uint32,bytes32,uint256,uint256,bytes,bytes,bytes),(uint256,uint256),address)",
      "arguments": [
        "(30243, 0x000000000000000000000000b0e1650a9760e0f383174af042091fc544b8356f, 1000000000000, 1000000000000, 0x0003, 0x, 0x)",
        "(258439868315123, 0)",
        "0xb0E1650A9760e0f383174af042091fc544b8356f"
      ],
      "transaction": {
        "from": "0xb0e1650a9760e0f383174af042091fc544b8356f",
        "to": "0x80eede496655fb9047dd39d9f418d5483ed600df",
        "gas": "0x62a65",
        "value": "0xeb0cb88bf5f3",
        "input": "0xc7c7f5b300000000000000000000000000000000000000000000000000000000000000800000000000000000000000000000000000000000000000000000eb0cb88bf5f30000000000000000000000000000000000000000000000000000000000000000000000000000000000000000b0e1650a9760e0f383174af042091fc544b8356f0000000000000000000000000000000000000000000000000000000000007623000000000000000000000000b0e1650a9760e0f383174af042091fc544b8356f000000000000000000000000000000000000000000000000000000e8d4a51000000000000000000000000000000000000000000000000000000000e8d4a5100000000000000000000000000000000000000000000000000000000000000000e0000000000000000000000000000000000000000000000000000000000000012000000000000000000000000000000000000000000000000000000000000001400000000000000000000000000000000000000000000000000000000000000002000300000000000000000000000000000000000000000000000000000000000000000000000000000000000000000000000000000000000000000000000000000000000000000000000000000000000000000000000000000000000000000000",
        "nonce": "0xe",
        "chainId": "0x868b"
      },
      "additionalContracts": [],
      "isFixedGasLimit": false
    },
    {
      "hash": "0xb921ac2f7bf22df5cb30ea865fd91f7437f0811abcc2fd7d490afc3e0ebb7739",
      "transactionType": "CALL",
      "contractName": null,
      "contractAddress": "0x64445f0aecc51e94ad52d8ac56b7190e764e561a",
      "function": "send((uint32,bytes32,uint256,uint256,bytes,bytes,bytes),(uint256,uint256),address)",
      "arguments": [
        "(30151, 0x000000000000000000000000b0e1650a9760e0f383174af042091fc544b8356f, 1000000000000, 1000000000000, 0x0003, 0x, 0x)",
        "(175115161998292, 0)",
        "0xb0E1650A9760e0f383174af042091fc544b8356f"
      ],
      "transaction": {
        "from": "0xb0e1650a9760e0f383174af042091fc544b8356f",
        "to": "0x64445f0aecc51e94ad52d8ac56b7190e764e561a",
        "gas": "0x6065b",
        "value": "0x9f442d0693d4",
        "input": "0xc7c7f5b3000000000000000000000000000000000000000000000000000000000000008000000000000000000000000000000000000000000000000000009f442d0693d40000000000000000000000000000000000000000000000000000000000000000000000000000000000000000b0e1650a9760e0f383174af042091fc544b8356f00000000000000000000000000000000000000000000000000000000000075c7000000000000000000000000b0e1650a9760e0f383174af042091fc544b8356f000000000000000000000000000000000000000000000000000000e8d4a51000000000000000000000000000000000000000000000000000000000e8d4a5100000000000000000000000000000000000000000000000000000000000000000e0000000000000000000000000000000000000000000000000000000000000012000000000000000000000000000000000000000000000000000000000000001400000000000000000000000000000000000000000000000000000000000000002000300000000000000000000000000000000000000000000000000000000000000000000000000000000000000000000000000000000000000000000000000000000000000000000000000000000000000000000000000000000000000000000",
        "nonce": "0xf",
        "chainId": "0x868b"
      },
      "additionalContracts": [],
      "isFixedGasLimit": false
    },
    {
      "hash": "0xebe6819f32ff094a2be6b148c6030bfd6d7aa7b41e0f825addc2aba4edf0f6ad",
      "transactionType": "CALL",
      "contractName": null,
      "contractAddress": "0x5bff88ca1442c2496f7e475e9e7786383bc070c0",
      "function": "send((uint32,bytes32,uint256,uint256,bytes,bytes,bytes),(uint256,uint256),address)",
      "arguments": [
        "(30151, 0x000000000000000000000000b0e1650a9760e0f383174af042091fc544b8356f, 1000000000000, 1000000000000, 0x0003, 0x, 0x)",
        "(175115161998292, 0)",
        "0xb0E1650A9760e0f383174af042091fc544b8356f"
      ],
      "transaction": {
        "from": "0xb0e1650a9760e0f383174af042091fc544b8356f",
        "to": "0x5bff88ca1442c2496f7e475e9e7786383bc070c0",
        "gas": "0x6065b",
        "value": "0x9f442d0693d4",
        "input": "0xc7c7f5b3000000000000000000000000000000000000000000000000000000000000008000000000000000000000000000000000000000000000000000009f442d0693d40000000000000000000000000000000000000000000000000000000000000000000000000000000000000000b0e1650a9760e0f383174af042091fc544b8356f00000000000000000000000000000000000000000000000000000000000075c7000000000000000000000000b0e1650a9760e0f383174af042091fc544b8356f000000000000000000000000000000000000000000000000000000e8d4a51000000000000000000000000000000000000000000000000000000000e8d4a5100000000000000000000000000000000000000000000000000000000000000000e0000000000000000000000000000000000000000000000000000000000000012000000000000000000000000000000000000000000000000000000000000001400000000000000000000000000000000000000000000000000000000000000002000300000000000000000000000000000000000000000000000000000000000000000000000000000000000000000000000000000000000000000000000000000000000000000000000000000000000000000000000000000000000000000000",
        "nonce": "0x10",
        "chainId": "0x868b"
      },
      "additionalContracts": [],
      "isFixedGasLimit": false
    },
    {
      "hash": "0x58b988e8b261c7da810f94f49d7569928c1afdcc66008ed3d7144e26afb2a729",
      "transactionType": "CALL",
      "contractName": null,
      "contractAddress": "0x3ec3849c33291a9ef4c5db86de593eb4a37fde45",
      "function": "send((uint32,bytes32,uint256,uint256,bytes,bytes,bytes),(uint256,uint256),address)",
      "arguments": [
        "(30151, 0x000000000000000000000000b0e1650a9760e0f383174af042091fc544b8356f, 1000000000000, 1000000000000, 0x0003, 0x, 0x)",
        "(175115161998292, 0)",
        "0xb0E1650A9760e0f383174af042091fc544b8356f"
      ],
      "transaction": {
        "from": "0xb0e1650a9760e0f383174af042091fc544b8356f",
        "to": "0x3ec3849c33291a9ef4c5db86de593eb4a37fde45",
        "gas": "0x6065b",
        "value": "0x9f442d0693d4",
        "input": "0xc7c7f5b3000000000000000000000000000000000000000000000000000000000000008000000000000000000000000000000000000000000000000000009f442d0693d40000000000000000000000000000000000000000000000000000000000000000000000000000000000000000b0e1650a9760e0f383174af042091fc544b8356f00000000000000000000000000000000000000000000000000000000000075c7000000000000000000000000b0e1650a9760e0f383174af042091fc544b8356f000000000000000000000000000000000000000000000000000000e8d4a51000000000000000000000000000000000000000000000000000000000e8d4a5100000000000000000000000000000000000000000000000000000000000000000e0000000000000000000000000000000000000000000000000000000000000012000000000000000000000000000000000000000000000000000000000000001400000000000000000000000000000000000000000000000000000000000000002000300000000000000000000000000000000000000000000000000000000000000000000000000000000000000000000000000000000000000000000000000000000000000000000000000000000000000000000000000000000000000000000",
        "nonce": "0x11",
        "chainId": "0x868b"
      },
      "additionalContracts": [],
      "isFixedGasLimit": false
    },
    {
      "hash": "0xaf8d0e9c59b21bea80067eb8ddcdbccb8160df743ee2a014b598e3ee7e4526b6",
      "transactionType": "CALL",
      "contractName": null,
      "contractAddress": "0x80eede496655fb9047dd39d9f418d5483ed600df",
      "function": "send((uint32,bytes32,uint256,uint256,bytes,bytes,bytes),(uint256,uint256),address)",
      "arguments": [
        "(30151, 0x000000000000000000000000b0e1650a9760e0f383174af042091fc544b8356f, 1000000000000, 1000000000000, 0x0003, 0x, 0x)",
        "(175115161998292, 0)",
        "0xb0E1650A9760e0f383174af042091fc544b8356f"
      ],
      "transaction": {
        "from": "0xb0e1650a9760e0f383174af042091fc544b8356f",
        "to": "0x80eede496655fb9047dd39d9f418d5483ed600df",
        "gas": "0x6065b",
        "value": "0x9f442d0693d4",
        "input": "0xc7c7f5b3000000000000000000000000000000000000000000000000000000000000008000000000000000000000000000000000000000000000000000009f442d0693d40000000000000000000000000000000000000000000000000000000000000000000000000000000000000000b0e1650a9760e0f383174af042091fc544b8356f00000000000000000000000000000000000000000000000000000000000075c7000000000000000000000000b0e1650a9760e0f383174af042091fc544b8356f000000000000000000000000000000000000000000000000000000e8d4a51000000000000000000000000000000000000000000000000000000000e8d4a5100000000000000000000000000000000000000000000000000000000000000000e0000000000000000000000000000000000000000000000000000000000000012000000000000000000000000000000000000000000000000000000000000001400000000000000000000000000000000000000000000000000000000000000002000300000000000000000000000000000000000000000000000000000000000000000000000000000000000000000000000000000000000000000000000000000000000000000000000000000000000000000000000000000000000000000000",
        "nonce": "0x12",
        "chainId": "0x868b"
      },
      "additionalContracts": [],
      "isFixedGasLimit": false
    },
    {
      "hash": "0x853f0ec5463f5869d115fdbb3cdbf30366c1dc4923c6a3e6b568b0ad87ba7ba2",
      "transactionType": "CALL",
      "contractName": null,
      "contractAddress": "0x64445f0aecc51e94ad52d8ac56b7190e764e561a",
      "function": "send((uint32,bytes32,uint256,uint256,bytes,bytes,bytes),(uint256,uint256),address)",
      "arguments": [
        "(30184, 0x000000000000000000000000b0e1650a9760e0f383174af042091fc544b8356f, 1000000000000, 1000000000000, 0x0003, 0x, 0x)",
        "(12772080634252, 0)",
        "0xb0E1650A9760e0f383174af042091fc544b8356f"
      ],
      "transaction": {
        "from": "0xb0e1650a9760e0f383174af042091fc544b8356f",
        "to": "0x64445f0aecc51e94ad52d8ac56b7190e764e561a",
        "gas": "0x6065b",
        "value": "0xb9dbb54498c",
        "input": "0xc7c7f5b3000000000000000000000000000000000000000000000000000000000000008000000000000000000000000000000000000000000000000000000b9dbb54498c0000000000000000000000000000000000000000000000000000000000000000000000000000000000000000b0e1650a9760e0f383174af042091fc544b8356f00000000000000000000000000000000000000000000000000000000000075e8000000000000000000000000b0e1650a9760e0f383174af042091fc544b8356f000000000000000000000000000000000000000000000000000000e8d4a51000000000000000000000000000000000000000000000000000000000e8d4a5100000000000000000000000000000000000000000000000000000000000000000e0000000000000000000000000000000000000000000000000000000000000012000000000000000000000000000000000000000000000000000000000000001400000000000000000000000000000000000000000000000000000000000000002000300000000000000000000000000000000000000000000000000000000000000000000000000000000000000000000000000000000000000000000000000000000000000000000000000000000000000000000000000000000000000000000",
        "nonce": "0x13",
        "chainId": "0x868b"
      },
      "additionalContracts": [],
      "isFixedGasLimit": false
    },
    {
      "hash": "0xc6d1cbc95726758303aaf408bc4611f9857ca63d1a0da88bfb48a36400b53209",
      "transactionType": "CALL",
      "contractName": null,
      "contractAddress": "0x5bff88ca1442c2496f7e475e9e7786383bc070c0",
      "function": "send((uint32,bytes32,uint256,uint256,bytes,bytes,bytes),(uint256,uint256),address)",
      "arguments": [
        "(30184, 0x000000000000000000000000b0e1650a9760e0f383174af042091fc544b8356f, 1000000000000, 1000000000000, 0x0003, 0x, 0x)",
        "(12772080634252, 0)",
        "0xb0E1650A9760e0f383174af042091fc544b8356f"
      ],
      "transaction": {
        "from": "0xb0e1650a9760e0f383174af042091fc544b8356f",
        "to": "0x5bff88ca1442c2496f7e475e9e7786383bc070c0",
        "gas": "0x6065b",
        "value": "0xb9dbb54498c",
        "input": "0xc7c7f5b3000000000000000000000000000000000000000000000000000000000000008000000000000000000000000000000000000000000000000000000b9dbb54498c0000000000000000000000000000000000000000000000000000000000000000000000000000000000000000b0e1650a9760e0f383174af042091fc544b8356f00000000000000000000000000000000000000000000000000000000000075e8000000000000000000000000b0e1650a9760e0f383174af042091fc544b8356f000000000000000000000000000000000000000000000000000000e8d4a51000000000000000000000000000000000000000000000000000000000e8d4a5100000000000000000000000000000000000000000000000000000000000000000e0000000000000000000000000000000000000000000000000000000000000012000000000000000000000000000000000000000000000000000000000000001400000000000000000000000000000000000000000000000000000000000000002000300000000000000000000000000000000000000000000000000000000000000000000000000000000000000000000000000000000000000000000000000000000000000000000000000000000000000000000000000000000000000000000",
        "nonce": "0x14",
        "chainId": "0x868b"
      },
      "additionalContracts": [],
      "isFixedGasLimit": false
    },
    {
      "hash": "0xe0620682be992cfe38a2537fe8fe40f4314dc400b824e635de637a981df35864",
      "transactionType": "CALL",
      "contractName": null,
      "contractAddress": "0x3ec3849c33291a9ef4c5db86de593eb4a37fde45",
      "function": "send((uint32,bytes32,uint256,uint256,bytes,bytes,bytes),(uint256,uint256),address)",
      "arguments": [
        "(30184, 0x000000000000000000000000b0e1650a9760e0f383174af042091fc544b8356f, 1000000000000, 1000000000000, 0x0003, 0x, 0x)",
        "(12772080634252, 0)",
        "0xb0E1650A9760e0f383174af042091fc544b8356f"
      ],
      "transaction": {
        "from": "0xb0e1650a9760e0f383174af042091fc544b8356f",
        "to": "0x3ec3849c33291a9ef4c5db86de593eb4a37fde45",
        "gas": "0x6065b",
        "value": "0xb9dbb54498c",
        "input": "0xc7c7f5b3000000000000000000000000000000000000000000000000000000000000008000000000000000000000000000000000000000000000000000000b9dbb54498c0000000000000000000000000000000000000000000000000000000000000000000000000000000000000000b0e1650a9760e0f383174af042091fc544b8356f00000000000000000000000000000000000000000000000000000000000075e8000000000000000000000000b0e1650a9760e0f383174af042091fc544b8356f000000000000000000000000000000000000000000000000000000e8d4a51000000000000000000000000000000000000000000000000000000000e8d4a5100000000000000000000000000000000000000000000000000000000000000000e0000000000000000000000000000000000000000000000000000000000000012000000000000000000000000000000000000000000000000000000000000001400000000000000000000000000000000000000000000000000000000000000002000300000000000000000000000000000000000000000000000000000000000000000000000000000000000000000000000000000000000000000000000000000000000000000000000000000000000000000000000000000000000000000000",
        "nonce": "0x15",
        "chainId": "0x868b"
      },
      "additionalContracts": [],
      "isFixedGasLimit": false
    },
    {
      "hash": "0x29d360e7d25227589abce35d8f9cf81672a5cde5147720dca0fbbc80860084da",
      "transactionType": "CALL",
      "contractName": null,
      "contractAddress": "0x80eede496655fb9047dd39d9f418d5483ed600df",
      "function": "send((uint32,bytes32,uint256,uint256,bytes,bytes,bytes),(uint256,uint256),address)",
      "arguments": [
        "(30184, 0x000000000000000000000000b0e1650a9760e0f383174af042091fc544b8356f, 1000000000000, 1000000000000, 0x0003, 0x, 0x)",
        "(12772080634252, 0)",
        "0xb0E1650A9760e0f383174af042091fc544b8356f"
      ],
      "transaction": {
        "from": "0xb0e1650a9760e0f383174af042091fc544b8356f",
        "to": "0x80eede496655fb9047dd39d9f418d5483ed600df",
        "gas": "0x6065b",
        "value": "0xb9dbb54498c",
        "input": "0xc7c7f5b3000000000000000000000000000000000000000000000000000000000000008000000000000000000000000000000000000000000000000000000b9dbb54498c0000000000000000000000000000000000000000000000000000000000000000000000000000000000000000b0e1650a9760e0f383174af042091fc544b8356f00000000000000000000000000000000000000000000000000000000000075e8000000000000000000000000b0e1650a9760e0f383174af042091fc544b8356f000000000000000000000000000000000000000000000000000000e8d4a51000000000000000000000000000000000000000000000000000000000e8d4a5100000000000000000000000000000000000000000000000000000000000000000e0000000000000000000000000000000000000000000000000000000000000012000000000000000000000000000000000000000000000000000000000000001400000000000000000000000000000000000000000000000000000000000000002000300000000000000000000000000000000000000000000000000000000000000000000000000000000000000000000000000000000000000000000000000000000000000000000000000000000000000000000000000000000000000000000",
        "nonce": "0x16",
        "chainId": "0x868b"
      },
      "additionalContracts": [],
      "isFixedGasLimit": false
    }
  ],
  "receipts": [
    {
      "status": "0x1",
      "cumulativeGasUsed": "0x8019be",
      "logs": [
        {
          "address": "0x64445f0aecc51e94ad52d8ac56b7190e764e561a",
          "topics": [
            "0xddf252ad1be2c89b69c2b068fc378daa952ba7f163c4a11628f55a4df523b3ef",
            "0x000000000000000000000000b0e1650a9760e0f383174af042091fc544b8356f",
            "0x0000000000000000000000000000000000000000000000000000000000000000"
          ],
          "data": "0x000000000000000000000000000000000000000000000000000000e8d4a51000",
          "blockHash": "0xd9f8f2c6cfd98c2d0bf31b76e9536756366b699d6321fe14e3ea1486c5b8530a",
          "blockNumber": "0x93ae2f",
          "transactionHash": "0xe9d9860021a20c55f51311dfa84020031e9495f390caa59350fe0cbc35786f39",
          "transactionIndex": "0x6",
          "logIndex": "0x0",
          "removed": false
        },
        {
          "address": "0x2367325334447c5e1e0f1b3a6fb947b262f58312",
          "topics": [
            "0x61ed099e74a97a1d7f8bb0952a88ca8b7b8ebd00c126ea04671f92a81213318a"
          ],
          "data": "0x0000000000000000000000004208d6e27538189bb48e603d6123a94b8abe0a0b000000000000000000000000000000000000000000000000000799a58215b46c",
          "blockHash": "0xd9f8f2c6cfd98c2d0bf31b76e9536756366b699d6321fe14e3ea1486c5b8530a",
          "blockNumber": "0x93ae2f",
          "transactionHash": "0xe9d9860021a20c55f51311dfa84020031e9495f390caa59350fe0cbc35786f39",
          "transactionIndex": "0x6",
          "logIndex": "0x1",
          "removed": false
        },
        {
          "address": "0x2367325334447c5e1e0f1b3a6fb947b262f58312",
          "topics": [
            "0x07ea52d82345d6e838192107d8fd7123d9c2ec8e916cd0aad13fd2b60db24644"
          ],
          "data": "0x000000000000000000000000000000000000000000000000000000000000006000000000000000000000000000000000000000000000000000000000000000c000000000000000000000000000000000000000000000000000000000000000e00000000000000000000000000000000000000000000000000000000000000002000000000000000000000000acde1f22eeab249d3ca6ba8805c8fee9f52a16e7000000000000000000000000ce8358bc28dd8296ce8caf1cd2b44787abd65887000000000000000000000000000000000000000000000000000000000000000000000000000000000000000000000000000000000000000000000000000000020000000000000000000000000000000000000000000000000001b1d8f9d8f7460000000000000000000000000000000000000000000000000001b1d8f9d8f746",
          "blockHash": "0xd9f8f2c6cfd98c2d0bf31b76e9536756366b699d6321fe14e3ea1486c5b8530a",
          "blockNumber": "0x93ae2f",
          "transactionHash": "0xe9d9860021a20c55f51311dfa84020031e9495f390caa59350fe0cbc35786f39",
          "transactionIndex": "0x6",
          "logIndex": "0x2",
          "removed": false
        },
        {
          "address": "0x1a44076050125825900e736c501f859c50fe728c",
          "topics": [
            "0x1ab700d4ced0c005b164c0f789fd09fcbb0156d4c2041b8a3bfbcd961cd1567f"
          ],
          "data": "0x000000000000000000000000000000000000000000000000000000000000006000000000000000000000000000000000000000000000000000000000000001200000000000000000000000002367325334447c5e1e0f1b3a6fb947b262f5831200000000000000000000000000000000000000000000000000000000000000990100000000000000020000763400000000000000000000000064445f0aecc51e94ad52d8ac56b7190e764e561a0000759500000000000000000000000023432452b720c80553458496d4d9d7c5003280d06850837f536827ab1e0bcecc41db5a95ca04f52b88b13195f8fbbab7a573f2d5000000000000000000000000b0e1650a9760e0f383174af042091fc544b8356f000000000000000100000000000000000000000000000000000000000000000000000000000000000000000000001600030100110100000000000000000000000000030d4000000000000000000000",
          "blockHash": "0xd9f8f2c6cfd98c2d0bf31b76e9536756366b699d6321fe14e3ea1486c5b8530a",
          "blockNumber": "0x93ae2f",
          "transactionHash": "0xe9d9860021a20c55f51311dfa84020031e9495f390caa59350fe0cbc35786f39",
          "transactionIndex": "0x6",
          "logIndex": "0x3",
          "removed": false
        },
        {
          "address": "0x64445f0aecc51e94ad52d8ac56b7190e764e561a",
          "topics": [
            "0x85496b760a4b7f8d66384b9df21b381f5d1b1e79f229a47aaf4c232edc2fe59a",
            "0x6850837f536827ab1e0bcecc41db5a95ca04f52b88b13195f8fbbab7a573f2d5",
            "0x000000000000000000000000b0e1650a9760e0f383174af042091fc544b8356f"
          ],
          "data": "0x0000000000000000000000000000000000000000000000000000000000007595000000000000000000000000000000000000000000000000000000e8d4a51000000000000000000000000000000000000000000000000000000000e8d4a51000",
          "blockHash": "0xd9f8f2c6cfd98c2d0bf31b76e9536756366b699d6321fe14e3ea1486c5b8530a",
          "blockNumber": "0x93ae2f",
          "transactionHash": "0xe9d9860021a20c55f51311dfa84020031e9495f390caa59350fe0cbc35786f39",
          "transactionIndex": "0x6",
          "logIndex": "0x4",
          "removed": false
        }
      ],
      "logsBloom": "0x00000020000000000000000000000000000000000000000000000000001000000000000000000000000000000000000000000000000000000000000000000000002002000000000000000008000000000000000000000000000000000000000000000000020000008000000000000800000000000110080000010010000000000000000000000000000000080000000000000000200000000000000000000000000000008000000000100008000000000000000000400000000440020000000000000082000000000000000080000000000000000000000000000000000020000000040080000200000000000000002000000008018000000000000000000000",
      "type": "0x2",
      "transactionHash": "0xe9d9860021a20c55f51311dfa84020031e9495f390caa59350fe0cbc35786f39",
      "transactionIndex": "0x6",
      "blockHash": "0xd9f8f2c6cfd98c2d0bf31b76e9536756366b699d6321fe14e3ea1486c5b8530a",
      "blockNumber": "0x93ae2f",
      "gasUsed": "0x41976",
      "effectiveGasPrice": "0x374",
      "from": "0xb0e1650a9760e0f383174af042091fc544b8356f",
      "to": "0x64445f0aecc51e94ad52d8ac56b7190e764e561a",
      "contractAddress": null,
      "l1BaseFeeScalar": "0x4e20",
      "l1BlobBaseFee": "0x1",
      "l1BlobBaseFeeScalar": "0x95506",
      "l1Fee": "0x7b2187f237",
      "l1GasPrice": "0x15524615e",
      "l1GasUsed": "0x120c"
    },
    {
      "status": "0x1",
      "cumulativeGasUsed": "0xc4bab1",
      "logs": [
        {
          "address": "0x5bff88ca1442c2496f7e475e9e7786383bc070c0",
          "topics": [
            "0xddf252ad1be2c89b69c2b068fc378daa952ba7f163c4a11628f55a4df523b3ef",
            "0x000000000000000000000000b0e1650a9760e0f383174af042091fc544b8356f",
            "0x0000000000000000000000000000000000000000000000000000000000000000"
          ],
          "data": "0x000000000000000000000000000000000000000000000000000000e8d4a51000",
          "blockHash": "0xa26e5298fd5ae88b5fa96af6ab1b4c16b282e4405dbd67fdafd62c205e8b2802",
          "blockNumber": "0x93ae33",
          "transactionHash": "0xd5be1958739abeeb45be2f6069a1d5fb69c0103e7727c200acf7a9a0a7b4e7d9",
          "transactionIndex": "0x4",
          "logIndex": "0x1ac",
          "removed": false
        },
        {
          "address": "0x2367325334447c5e1e0f1b3a6fb947b262f58312",
          "topics": [
            "0x61ed099e74a97a1d7f8bb0952a88ca8b7b8ebd00c126ea04671f92a81213318a"
          ],
          "data": "0x0000000000000000000000004208d6e27538189bb48e603d6123a94b8abe0a0b000000000000000000000000000000000000000000000000000799a58215b46c",
          "blockHash": "0xa26e5298fd5ae88b5fa96af6ab1b4c16b282e4405dbd67fdafd62c205e8b2802",
          "blockNumber": "0x93ae33",
          "transactionHash": "0xd5be1958739abeeb45be2f6069a1d5fb69c0103e7727c200acf7a9a0a7b4e7d9",
          "transactionIndex": "0x4",
          "logIndex": "0x1ad",
          "removed": false
        },
        {
          "address": "0x2367325334447c5e1e0f1b3a6fb947b262f58312",
          "topics": [
            "0x07ea52d82345d6e838192107d8fd7123d9c2ec8e916cd0aad13fd2b60db24644"
          ],
          "data": "0x000000000000000000000000000000000000000000000000000000000000006000000000000000000000000000000000000000000000000000000000000000c000000000000000000000000000000000000000000000000000000000000000e00000000000000000000000000000000000000000000000000000000000000002000000000000000000000000acde1f22eeab249d3ca6ba8805c8fee9f52a16e7000000000000000000000000ce8358bc28dd8296ce8caf1cd2b44787abd65887000000000000000000000000000000000000000000000000000000000000000000000000000000000000000000000000000000000000000000000000000000020000000000000000000000000000000000000000000000000001b1d8f9d8f7460000000000000000000000000000000000000000000000000001b1d8f9d8f746",
          "blockHash": "0xa26e5298fd5ae88b5fa96af6ab1b4c16b282e4405dbd67fdafd62c205e8b2802",
          "blockNumber": "0x93ae33",
          "transactionHash": "0xd5be1958739abeeb45be2f6069a1d5fb69c0103e7727c200acf7a9a0a7b4e7d9",
          "transactionIndex": "0x4",
          "logIndex": "0x1ae",
          "removed": false
        },
        {
          "address": "0x1a44076050125825900e736c501f859c50fe728c",
          "topics": [
            "0x1ab700d4ced0c005b164c0f789fd09fcbb0156d4c2041b8a3bfbcd961cd1567f"
          ],
          "data": "0x000000000000000000000000000000000000000000000000000000000000006000000000000000000000000000000000000000000000000000000000000001200000000000000000000000002367325334447c5e1e0f1b3a6fb947b262f583120000000000000000000000000000000000000000000000000000000000000099010000000000000002000076340000000000000000000000005bff88ca1442c2496f7e475e9e7786383bc070c000007595000000000000000000000000e4796ccb6bb5de2290c417ac337f2b66ca2e770e915fc1cbdc4028e7e5ee84e844fb2d52296fce0a2e709dc694e1827a7f55d6b6000000000000000000000000b0e1650a9760e0f383174af042091fc544b8356f000000000000000100000000000000000000000000000000000000000000000000000000000000000000000000001600030100110100000000000000000000000000030d4000000000000000000000",
          "blockHash": "0xa26e5298fd5ae88b5fa96af6ab1b4c16b282e4405dbd67fdafd62c205e8b2802",
          "blockNumber": "0x93ae33",
          "transactionHash": "0xd5be1958739abeeb45be2f6069a1d5fb69c0103e7727c200acf7a9a0a7b4e7d9",
          "transactionIndex": "0x4",
          "logIndex": "0x1af",
          "removed": false
        },
        {
          "address": "0x5bff88ca1442c2496f7e475e9e7786383bc070c0",
          "topics": [
            "0x85496b760a4b7f8d66384b9df21b381f5d1b1e79f229a47aaf4c232edc2fe59a",
            "0x915fc1cbdc4028e7e5ee84e844fb2d52296fce0a2e709dc694e1827a7f55d6b6",
            "0x000000000000000000000000b0e1650a9760e0f383174af042091fc544b8356f"
          ],
          "data": "0x0000000000000000000000000000000000000000000000000000000000007595000000000000000000000000000000000000000000000000000000e8d4a51000000000000000000000000000000000000000000000000000000000e8d4a51000",
          "blockHash": "0xa26e5298fd5ae88b5fa96af6ab1b4c16b282e4405dbd67fdafd62c205e8b2802",
          "blockNumber": "0x93ae33",
          "transactionHash": "0xd5be1958739abeeb45be2f6069a1d5fb69c0103e7727c200acf7a9a0a7b4e7d9",
          "transactionIndex": "0x4",
          "logIndex": "0x1b0",
          "removed": false
        }
      ],
      "logsBloom": "0x00000000000000000000000000000000000000000000000000000000001000000000000000000000000000000000000000000000000000000000000000000000000002000000000000000008000000000000000000000000000000000000000000000000020000008000000000000800000000800110080000010010000000004000000000000000000000080000000000000000200000000000000000000000000000008000000000100000000000000000000000400000000440000010004000000082000000000000000080000000000000800000000000000000000020000000040080000000000000000000002000000000018000000000000000000800",
      "type": "0x2",
      "transactionHash": "0xd5be1958739abeeb45be2f6069a1d5fb69c0103e7727c200acf7a9a0a7b4e7d9",
      "transactionIndex": "0x4",
      "blockHash": "0xa26e5298fd5ae88b5fa96af6ab1b4c16b282e4405dbd67fdafd62c205e8b2802",
      "blockNumber": "0x93ae33",
      "gasUsed": "0x41976",
      "effectiveGasPrice": "0x376",
      "from": "0xb0e1650a9760e0f383174af042091fc544b8356f",
      "to": "0x5bff88ca1442c2496f7e475e9e7786383bc070c0",
      "contractAddress": null,
      "l1BaseFeeScalar": "0x4e20",
      "l1BlobBaseFee": "0x1",
      "l1BlobBaseFeeScalar": "0x95506",
      "l1Fee": "0x7acfa82cc4",
      "l1GasPrice": "0x15524615e",
      "l1GasUsed": "0x1200"
    },
    {
      "status": "0x1",
      "cumulativeGasUsed": "0x7dc6f3",
      "logs": [
        {
          "address": "0x3ec3849c33291a9ef4c5db86de593eb4a37fde45",
          "topics": [
            "0xddf252ad1be2c89b69c2b068fc378daa952ba7f163c4a11628f55a4df523b3ef",
            "0x000000000000000000000000b0e1650a9760e0f383174af042091fc544b8356f",
            "0x0000000000000000000000000000000000000000000000000000000000000000"
          ],
          "data": "0x000000000000000000000000000000000000000000000000000000e8d4a51000",
          "blockHash": "0x8d1d2776105c69ce7b3027db212d7626a4878649b70102fda36054ffab30f827",
          "blockNumber": "0x93ae36",
          "transactionHash": "0x1124df2443397c14296546cd0c84526dab1e244a3c3fadff053f7d98d3456ea1",
          "transactionIndex": "0x3",
          "logIndex": "0xc",
          "removed": false
        },
        {
          "address": "0x2367325334447c5e1e0f1b3a6fb947b262f58312",
          "topics": [
            "0x61ed099e74a97a1d7f8bb0952a88ca8b7b8ebd00c126ea04671f92a81213318a"
          ],
          "data": "0x0000000000000000000000004208d6e27538189bb48e603d6123a94b8abe0a0b000000000000000000000000000000000000000000000000000799a58215b46c",
          "blockHash": "0x8d1d2776105c69ce7b3027db212d7626a4878649b70102fda36054ffab30f827",
          "blockNumber": "0x93ae36",
          "transactionHash": "0x1124df2443397c14296546cd0c84526dab1e244a3c3fadff053f7d98d3456ea1",
          "transactionIndex": "0x3",
          "logIndex": "0xd",
          "removed": false
        },
        {
          "address": "0x2367325334447c5e1e0f1b3a6fb947b262f58312",
          "topics": [
            "0x07ea52d82345d6e838192107d8fd7123d9c2ec8e916cd0aad13fd2b60db24644"
          ],
          "data": "0x000000000000000000000000000000000000000000000000000000000000006000000000000000000000000000000000000000000000000000000000000000c000000000000000000000000000000000000000000000000000000000000000e00000000000000000000000000000000000000000000000000000000000000002000000000000000000000000acde1f22eeab249d3ca6ba8805c8fee9f52a16e7000000000000000000000000ce8358bc28dd8296ce8caf1cd2b44787abd65887000000000000000000000000000000000000000000000000000000000000000000000000000000000000000000000000000000000000000000000000000000020000000000000000000000000000000000000000000000000001b1d8f9d8f7460000000000000000000000000000000000000000000000000001b1d8f9d8f746",
          "blockHash": "0x8d1d2776105c69ce7b3027db212d7626a4878649b70102fda36054ffab30f827",
          "blockNumber": "0x93ae36",
          "transactionHash": "0x1124df2443397c14296546cd0c84526dab1e244a3c3fadff053f7d98d3456ea1",
          "transactionIndex": "0x3",
          "logIndex": "0xe",
          "removed": false
        },
        {
          "address": "0x1a44076050125825900e736c501f859c50fe728c",
          "topics": [
            "0x1ab700d4ced0c005b164c0f789fd09fcbb0156d4c2041b8a3bfbcd961cd1567f"
          ],
          "data": "0x000000000000000000000000000000000000000000000000000000000000006000000000000000000000000000000000000000000000000000000000000001200000000000000000000000002367325334447c5e1e0f1b3a6fb947b262f583120000000000000000000000000000000000000000000000000000000000000099010000000000000002000076340000000000000000000000003ec3849c33291a9ef4c5db86de593eb4a37fde45000075950000000000000000000000001f55a02a049033e3419a8e2975cf3f572f4e6e9a35e32edf75a72deb2f8c93d88f27cd8ff60255c9ef848652767608bb63809d74000000000000000000000000b0e1650a9760e0f383174af042091fc544b8356f000000000000000100000000000000000000000000000000000000000000000000000000000000000000000000001600030100110100000000000000000000000000030d4000000000000000000000",
          "blockHash": "0x8d1d2776105c69ce7b3027db212d7626a4878649b70102fda36054ffab30f827",
          "blockNumber": "0x93ae36",
          "transactionHash": "0x1124df2443397c14296546cd0c84526dab1e244a3c3fadff053f7d98d3456ea1",
          "transactionIndex": "0x3",
          "logIndex": "0xf",
          "removed": false
        },
        {
          "address": "0x3ec3849c33291a9ef4c5db86de593eb4a37fde45",
          "topics": [
            "0x85496b760a4b7f8d66384b9df21b381f5d1b1e79f229a47aaf4c232edc2fe59a",
            "0x35e32edf75a72deb2f8c93d88f27cd8ff60255c9ef848652767608bb63809d74",
            "0x000000000000000000000000b0e1650a9760e0f383174af042091fc544b8356f"
          ],
          "data": "0x0000000000000000000000000000000000000000000000000000000000007595000000000000000000000000000000000000000000000000000000e8d4a51000000000000000000000000000000000000000000000000000000000e8d4a51000",
          "blockHash": "0x8d1d2776105c69ce7b3027db212d7626a4878649b70102fda36054ffab30f827",
          "blockNumber": "0x93ae36",
          "transactionHash": "0x1124df2443397c14296546cd0c84526dab1e244a3c3fadff053f7d98d3456ea1",
          "transactionIndex": "0x3",
          "logIndex": "0x10",
          "removed": false
        }
      ],
      "logsBloom": "0x00000000000000000000000000002000000000000000000000000000001000000000000000000000000000000000000010000000000000000000000000000000000002000000000000000008000000000000080000000000000000000000000000000000020000008000000000000800000000000110080000010010000000000000000000000000000000080000000000000000200020000040000000000000000000008000000000100000000000000000000000400000000440000000000000000082000000000000000080000000000000000000000000040000000020000000040080000000000000000000002000000000018000000000000000000000",
      "type": "0x2",
      "transactionHash": "0x1124df2443397c14296546cd0c84526dab1e244a3c3fadff053f7d98d3456ea1",
      "transactionIndex": "0x3",
      "blockHash": "0x8d1d2776105c69ce7b3027db212d7626a4878649b70102fda36054ffab30f827",
      "blockNumber": "0x93ae36",
      "gasUsed": "0x41976",
      "effectiveGasPrice": "0x377",
      "from": "0xb0e1650a9760e0f383174af042091fc544b8356f",
      "to": "0x3ec3849c33291a9ef4c5db86de593eb4a37fde45",
      "contractAddress": null,
      "l1BaseFeeScalar": "0x4e20",
      "l1BlobBaseFee": "0x1",
      "l1BlobBaseFeeScalar": "0x95506",
      "l1Fee": "0x7dd495e113",
      "l1GasPrice": "0x15c9efd71",
      "l1GasUsed": "0x120c"
    },
    {
      "status": "0x1",
      "cumulativeGasUsed": "0x89766",
      "logs": [
        {
          "address": "0x80eede496655fb9047dd39d9f418d5483ed600df",
          "topics": [
            "0xddf252ad1be2c89b69c2b068fc378daa952ba7f163c4a11628f55a4df523b3ef",
            "0x000000000000000000000000b0e1650a9760e0f383174af042091fc544b8356f",
            "0x0000000000000000000000000000000000000000000000000000000000000000"
          ],
          "data": "0x000000000000000000000000000000000000000000000000000000e8d4a51000",
          "blockHash": "0xcbd28d2ff6b38fcda60b4ae6858685e36c009e5218f735e6367e0393cfdeacd0",
          "blockNumber": "0x93ae3a",
          "transactionHash": "0x92ab4b3c85da10dd9d9cdb2da1ce5495cc08812cff9af94798b486d692aabee4",
          "transactionIndex": "0x2",
          "logIndex": "0xb",
          "removed": false
        },
        {
          "address": "0x2367325334447c5e1e0f1b3a6fb947b262f58312",
          "topics": [
            "0x61ed099e74a97a1d7f8bb0952a88ca8b7b8ebd00c126ea04671f92a81213318a"
          ],
          "data": "0x0000000000000000000000004208d6e27538189bb48e603d6123a94b8abe0a0b000000000000000000000000000000000000000000000000000799a58215b46c",
          "blockHash": "0xcbd28d2ff6b38fcda60b4ae6858685e36c009e5218f735e6367e0393cfdeacd0",
          "blockNumber": "0x93ae3a",
          "transactionHash": "0x92ab4b3c85da10dd9d9cdb2da1ce5495cc08812cff9af94798b486d692aabee4",
          "transactionIndex": "0x2",
          "logIndex": "0xc",
          "removed": false
        },
        {
          "address": "0x2367325334447c5e1e0f1b3a6fb947b262f58312",
          "topics": [
            "0x07ea52d82345d6e838192107d8fd7123d9c2ec8e916cd0aad13fd2b60db24644"
          ],
          "data": "0x000000000000000000000000000000000000000000000000000000000000006000000000000000000000000000000000000000000000000000000000000000c000000000000000000000000000000000000000000000000000000000000000e00000000000000000000000000000000000000000000000000000000000000002000000000000000000000000acde1f22eeab249d3ca6ba8805c8fee9f52a16e7000000000000000000000000ce8358bc28dd8296ce8caf1cd2b44787abd65887000000000000000000000000000000000000000000000000000000000000000000000000000000000000000000000000000000000000000000000000000000020000000000000000000000000000000000000000000000000001b1d8f9d8f7460000000000000000000000000000000000000000000000000001b1d8f9d8f746",
          "blockHash": "0xcbd28d2ff6b38fcda60b4ae6858685e36c009e5218f735e6367e0393cfdeacd0",
          "blockNumber": "0x93ae3a",
          "transactionHash": "0x92ab4b3c85da10dd9d9cdb2da1ce5495cc08812cff9af94798b486d692aabee4",
          "transactionIndex": "0x2",
          "logIndex": "0xd",
          "removed": false
        },
        {
          "address": "0x1a44076050125825900e736c501f859c50fe728c",
          "topics": [
            "0x1ab700d4ced0c005b164c0f789fd09fcbb0156d4c2041b8a3bfbcd961cd1567f"
          ],
          "data": "0x000000000000000000000000000000000000000000000000000000000000006000000000000000000000000000000000000000000000000000000000000001200000000000000000000000002367325334447c5e1e0f1b3a6fb947b262f5831200000000000000000000000000000000000000000000000000000000000000990100000000000000020000763400000000000000000000000080eede496655fb9047dd39d9f418d5483ed600df00007595000000000000000000000000909dbde1ebe906af95660033e478d59efe831fed14bf08d7939e1f2633f925f7e94e5bb89887c29d25bd06449345d523efc5716d000000000000000000000000b0e1650a9760e0f383174af042091fc544b8356f000000000000000100000000000000000000000000000000000000000000000000000000000000000000000000001600030100110100000000000000000000000000030d4000000000000000000000",
          "blockHash": "0xcbd28d2ff6b38fcda60b4ae6858685e36c009e5218f735e6367e0393cfdeacd0",
          "blockNumber": "0x93ae3a",
          "transactionHash": "0x92ab4b3c85da10dd9d9cdb2da1ce5495cc08812cff9af94798b486d692aabee4",
          "transactionIndex": "0x2",
          "logIndex": "0xe",
          "removed": false
        },
        {
          "address": "0x80eede496655fb9047dd39d9f418d5483ed600df",
          "topics": [
            "0x85496b760a4b7f8d66384b9df21b381f5d1b1e79f229a47aaf4c232edc2fe59a",
            "0x14bf08d7939e1f2633f925f7e94e5bb89887c29d25bd06449345d523efc5716d",
            "0x000000000000000000000000b0e1650a9760e0f383174af042091fc544b8356f"
          ],
          "data": "0x0000000000000000000000000000000000000000000000000000000000007595000000000000000000000000000000000000000000000000000000e8d4a51000000000000000000000000000000000000000000000000000000000e8d4a51000",
          "blockHash": "0xcbd28d2ff6b38fcda60b4ae6858685e36c009e5218f735e6367e0393cfdeacd0",
          "blockNumber": "0x93ae3a",
          "transactionHash": "0x92ab4b3c85da10dd9d9cdb2da1ce5495cc08812cff9af94798b486d692aabee4",
          "transactionIndex": "0x2",
          "logIndex": "0xf",
          "removed": false
        }
      ],
      "logsBloom": "0x00000000000000000000000000000000000000000000000000000000001000000000000000000000000000000800000000000000000000000000000200000000000002000000000000000008000000000000000000000000000000000000000000000000020000008000000000000800000000000110080000012010010000000000000000000000000000080000000000000000200000000000000000000000000000008000000000100000000000000000000000400000008440000000000000000082000000000000000080000000004000000000000000000000000020000000040080000000000000000000002000000000018000000000000000000000",
      "type": "0x2",
      "transactionHash": "0x92ab4b3c85da10dd9d9cdb2da1ce5495cc08812cff9af94798b486d692aabee4",
      "transactionIndex": "0x2",
      "blockHash": "0xcbd28d2ff6b38fcda60b4ae6858685e36c009e5218f735e6367e0393cfdeacd0",
      "blockNumber": "0x93ae3a",
      "gasUsed": "0x41976",
      "effectiveGasPrice": "0x37e",
      "from": "0xb0e1650a9760e0f383174af042091fc544b8356f",
      "to": "0x80eede496655fb9047dd39d9f418d5483ed600df",
      "contractAddress": null,
      "l1BaseFeeScalar": "0x4e20",
      "l1BlobBaseFee": "0x1",
      "l1BlobBaseFeeScalar": "0x95506",
      "l1Fee": "0x823da800c9",
      "l1GasPrice": "0x16ab9873e",
      "l1GasUsed": "0x11f4"
    },
    {
      "status": "0x1",
      "cumulativeGasUsed": "0x17a13c",
      "logs": [
        {
          "address": "0x64445f0aecc51e94ad52d8ac56b7190e764e561a",
          "topics": [
            "0xddf252ad1be2c89b69c2b068fc378daa952ba7f163c4a11628f55a4df523b3ef",
            "0x000000000000000000000000b0e1650a9760e0f383174af042091fc544b8356f",
            "0x0000000000000000000000000000000000000000000000000000000000000000"
          ],
          "data": "0x000000000000000000000000000000000000000000000000000000e8d4a51000",
          "blockHash": "0xb80b66208e1138314d5f5d3db7f6f11045e52ca56f13fb29f99c724dbe804984",
          "blockNumber": "0x93ae3d",
          "transactionHash": "0xcd09f0dcfeb5c2e366cc65f6b1e132428cd7a365e8a8c950e0866d9f814b19fb",
          "transactionIndex": "0x5",
          "logIndex": "0x5",
          "removed": false
        },
        {
          "address": "0x2367325334447c5e1e0f1b3a6fb947b262f58312",
          "topics": [
            "0x61ed099e74a97a1d7f8bb0952a88ca8b7b8ebd00c126ea04671f92a81213318a"
          ],
          "data": "0x0000000000000000000000004208d6e27538189bb48e603d6123a94b8abe0a0b00000000000000000000000000000000000000000000000000008fb0c9e9ce45",
          "blockHash": "0xb80b66208e1138314d5f5d3db7f6f11045e52ca56f13fb29f99c724dbe804984",
          "blockNumber": "0x93ae3d",
          "transactionHash": "0xcd09f0dcfeb5c2e366cc65f6b1e132428cd7a365e8a8c950e0866d9f814b19fb",
          "transactionIndex": "0x5",
          "logIndex": "0x6",
          "removed": false
        },
        {
          "address": "0x2367325334447c5e1e0f1b3a6fb947b262f58312",
          "topics": [
            "0x07ea52d82345d6e838192107d8fd7123d9c2ec8e916cd0aad13fd2b60db24644"
          ],
          "data": "0x000000000000000000000000000000000000000000000000000000000000006000000000000000000000000000000000000000000000000000000000000000c000000000000000000000000000000000000000000000000000000000000000e00000000000000000000000000000000000000000000000000000000000000002000000000000000000000000acde1f22eeab249d3ca6ba8805c8fee9f52a16e7000000000000000000000000ce8358bc28dd8296ce8caf1cd2b44787abd658870000000000000000000000000000000000000000000000000000000000000000000000000000000000000000000000000000000000000000000000000000000200000000000000000000000000000000000000000000000000002dadf75113d700000000000000000000000000000000000000000000000000002dadf75113d7",
          "blockHash": "0xb80b66208e1138314d5f5d3db7f6f11045e52ca56f13fb29f99c724dbe804984",
          "blockNumber": "0x93ae3d",
          "transactionHash": "0xcd09f0dcfeb5c2e366cc65f6b1e132428cd7a365e8a8c950e0866d9f814b19fb",
          "transactionIndex": "0x5",
          "logIndex": "0x7",
          "removed": false
        },
        {
          "address": "0x1a44076050125825900e736c501f859c50fe728c",
          "topics": [
            "0x1ab700d4ced0c005b164c0f789fd09fcbb0156d4c2041b8a3bfbcd961cd1567f"
          ],
          "data": "0x000000000000000000000000000000000000000000000000000000000000006000000000000000000000000000000000000000000000000000000000000001200000000000000000000000002367325334447c5e1e0f1b3a6fb947b262f5831200000000000000000000000000000000000000000000000000000000000000990100000000000000010000763400000000000000000000000064445f0aecc51e94ad52d8ac56b7190e764e561a0000762300000000000000000000000023432452b720c80553458496d4d9d7c5003280d06aeb0bb42a70c508f7674c7ec855602678d7e1b59f24738c56ce20d46a8c8260000000000000000000000000b0e1650a9760e0f383174af042091fc544b8356f000000000000000100000000000000000000000000000000000000000000000000000000000000000000000000001600030100110100000000000000000000000000030d4000000000000000000000",
          "blockHash": "0xb80b66208e1138314d5f5d3db7f6f11045e52ca56f13fb29f99c724dbe804984",
          "blockNumber": "0x93ae3d",
          "transactionHash": "0xcd09f0dcfeb5c2e366cc65f6b1e132428cd7a365e8a8c950e0866d9f814b19fb",
          "transactionIndex": "0x5",
          "logIndex": "0x8",
          "removed": false
        },
        {
          "address": "0x64445f0aecc51e94ad52d8ac56b7190e764e561a",
          "topics": [
            "0x85496b760a4b7f8d66384b9df21b381f5d1b1e79f229a47aaf4c232edc2fe59a",
            "0x6aeb0bb42a70c508f7674c7ec855602678d7e1b59f24738c56ce20d46a8c8260",
            "0x000000000000000000000000b0e1650a9760e0f383174af042091fc544b8356f"
          ],
          "data": "0x0000000000000000000000000000000000000000000000000000000000007623000000000000000000000000000000000000000000000000000000e8d4a51000000000000000000000000000000000000000000000000000000000e8d4a51000",
          "blockHash": "0xb80b66208e1138314d5f5d3db7f6f11045e52ca56f13fb29f99c724dbe804984",
          "blockNumber": "0x93ae3d",
          "transactionHash": "0xcd09f0dcfeb5c2e366cc65f6b1e132428cd7a365e8a8c950e0866d9f814b19fb",
          "transactionIndex": "0x5",
          "logIndex": "0x9",
          "removed": false
        }
      ],
      "logsBloom": "0x00000000000000000000000000000000000000000000000000000000001000000000000000000000000000000000000000000000000000000000000000000000002002000000000000000008000000000000000000000000000000000000000000000000020000008040000000000800000000000110080000010010000000000000000000000000000000080000000000000000200000000000000000000100000000008000000000100008000000000000000000400000000440000000000000000082000000000000000080000000000000000000000000000000000020000000040080000000000000000000002000000008018000000000000000100000",
      "type": "0x2",
      "transactionHash": "0xcd09f0dcfeb5c2e366cc65f6b1e132428cd7a365e8a8c950e0866d9f814b19fb",
      "transactionIndex": "0x5",
      "blockHash": "0xb80b66208e1138314d5f5d3db7f6f11045e52ca56f13fb29f99c724dbe804984",
      "blockNumber": "0x93ae3d",
      "gasUsed": "0x476bc",
      "effectiveGasPrice": "0x380",
      "from": "0xb0e1650a9760e0f383174af042091fc544b8356f",
      "to": "0x64445f0aecc51e94ad52d8ac56b7190e764e561a",
      "contractAddress": null,
      "l1BaseFeeScalar": "0x4e20",
      "l1BlobBaseFee": "0x1",
      "l1BlobBaseFeeScalar": "0x95506",
      "l1Fee": "0x8220a3669b",
      "l1GasPrice": "0x16ab9873e",
      "l1GasUsed": "0x11f0"
    },
    {
      "status": "0x1",
      "cumulativeGasUsed": "0x18b419",
      "logs": [
        {
          "address": "0x5bff88ca1442c2496f7e475e9e7786383bc070c0",
          "topics": [
            "0xddf252ad1be2c89b69c2b068fc378daa952ba7f163c4a11628f55a4df523b3ef",
            "0x000000000000000000000000b0e1650a9760e0f383174af042091fc544b8356f",
            "0x0000000000000000000000000000000000000000000000000000000000000000"
          ],
          "data": "0x000000000000000000000000000000000000000000000000000000e8d4a51000",
          "blockHash": "0x4df68485c18cf672f5ebce0aa3ae618ba252784c0c1ab6876d6cbd748d42beae",
          "blockNumber": "0x93ae41",
          "transactionHash": "0xcba265cd60279c3c4c9dac1963272f3f67662190fad41d79be248227dca34912",
          "transactionIndex": "0x4",
          "logIndex": "0x0",
          "removed": false
        },
        {
          "address": "0x2367325334447c5e1e0f1b3a6fb947b262f58312",
          "topics": [
            "0x61ed099e74a97a1d7f8bb0952a88ca8b7b8ebd00c126ea04671f92a81213318a"
          ],
          "data": "0x0000000000000000000000004208d6e27538189bb48e603d6123a94b8abe0a0b00000000000000000000000000000000000000000000000000008fb0c9e9ce45",
          "blockHash": "0x4df68485c18cf672f5ebce0aa3ae618ba252784c0c1ab6876d6cbd748d42beae",
          "blockNumber": "0x93ae41",
          "transactionHash": "0xcba265cd60279c3c4c9dac1963272f3f67662190fad41d79be248227dca34912",
          "transactionIndex": "0x4",
          "logIndex": "0x1",
          "removed": false
        },
        {
          "address": "0x2367325334447c5e1e0f1b3a6fb947b262f58312",
          "topics": [
            "0x07ea52d82345d6e838192107d8fd7123d9c2ec8e916cd0aad13fd2b60db24644"
          ],
          "data": "0x000000000000000000000000000000000000000000000000000000000000006000000000000000000000000000000000000000000000000000000000000000c000000000000000000000000000000000000000000000000000000000000000e00000000000000000000000000000000000000000000000000000000000000002000000000000000000000000acde1f22eeab249d3ca6ba8805c8fee9f52a16e7000000000000000000000000ce8358bc28dd8296ce8caf1cd2b44787abd658870000000000000000000000000000000000000000000000000000000000000000000000000000000000000000000000000000000000000000000000000000000200000000000000000000000000000000000000000000000000002dadf75113d700000000000000000000000000000000000000000000000000002dadf75113d7",
          "blockHash": "0x4df68485c18cf672f5ebce0aa3ae618ba252784c0c1ab6876d6cbd748d42beae",
          "blockNumber": "0x93ae41",
          "transactionHash": "0xcba265cd60279c3c4c9dac1963272f3f67662190fad41d79be248227dca34912",
          "transactionIndex": "0x4",
          "logIndex": "0x2",
          "removed": false
        },
        {
          "address": "0x1a44076050125825900e736c501f859c50fe728c",
          "topics": [
            "0x1ab700d4ced0c005b164c0f789fd09fcbb0156d4c2041b8a3bfbcd961cd1567f"
          ],
          "data": "0x000000000000000000000000000000000000000000000000000000000000006000000000000000000000000000000000000000000000000000000000000001200000000000000000000000002367325334447c5e1e0f1b3a6fb947b262f583120000000000000000000000000000000000000000000000000000000000000099010000000000000001000076340000000000000000000000005bff88ca1442c2496f7e475e9e7786383bc070c000007623000000000000000000000000e4796ccb6bb5de2290c417ac337f2b66ca2e770e22acb72b2e618d210f77e92b89720be058a6ae71c69c882bb61b49bd73c5dabe000000000000000000000000b0e1650a9760e0f383174af042091fc544b8356f000000000000000100000000000000000000000000000000000000000000000000000000000000000000000000001600030100110100000000000000000000000000030d4000000000000000000000",
          "blockHash": "0x4df68485c18cf672f5ebce0aa3ae618ba252784c0c1ab6876d6cbd748d42beae",
          "blockNumber": "0x93ae41",
          "transactionHash": "0xcba265cd60279c3c4c9dac1963272f3f67662190fad41d79be248227dca34912",
          "transactionIndex": "0x4",
          "logIndex": "0x3",
          "removed": false
        },
        {
          "address": "0x5bff88ca1442c2496f7e475e9e7786383bc070c0",
          "topics": [
            "0x85496b760a4b7f8d66384b9df21b381f5d1b1e79f229a47aaf4c232edc2fe59a",
            "0x22acb72b2e618d210f77e92b89720be058a6ae71c69c882bb61b49bd73c5dabe",
            "0x000000000000000000000000b0e1650a9760e0f383174af042091fc544b8356f"
          ],
          "data": "0x0000000000000000000000000000000000000000000000000000000000007623000000000000000000000000000000000000000000000000000000e8d4a51000000000000000000000000000000000000000000000000000000000e8d4a51000",
          "blockHash": "0x4df68485c18cf672f5ebce0aa3ae618ba252784c0c1ab6876d6cbd748d42beae",
          "blockNumber": "0x93ae41",
          "transactionHash": "0xcba265cd60279c3c4c9dac1963272f3f67662190fad41d79be248227dca34912",
          "transactionIndex": "0x4",
          "logIndex": "0x4",
          "removed": false
        }
      ],
      "logsBloom": "0x00000000000000000000000000000000000000000000000000000000001000000000000000000000000000000000000000000000000000000000000000000000000002000000000000000008000000000000000000000000000000000000000000000000020000008000000000000800000000000110080000010010000000000000000000000000040000080000000000000000200000000000000000000000000000008000000000100000000000000000000000400080000440000010000000000082000000000000000080000800000000800000000000000000000020000000040080000000000000000000002000000000018000000000000000000800",
      "type": "0x2",
      "transactionHash": "0xcba265cd60279c3c4c9dac1963272f3f67662190fad41d79be248227dca34912",
      "transactionIndex": "0x4",
      "blockHash": "0x4df68485c18cf672f5ebce0aa3ae618ba252784c0c1ab6876d6cbd748d42beae",
      "blockNumber": "0x93ae41",
      "gasUsed": "0x476bc",
      "effectiveGasPrice": "0x37e",
      "from": "0xb0e1650a9760e0f383174af042091fc544b8356f",
      "to": "0x5bff88ca1442c2496f7e475e9e7786383bc070c0",
      "contractAddress": null,
      "l1BaseFeeScalar": "0x4e20",
      "l1BlobBaseFee": "0x1",
      "l1BlobBaseFeeScalar": "0x95506",
      "l1Fee": "0x81c9959811",
      "l1GasPrice": "0x16ab9873e",
      "l1GasUsed": "0x11e4"
    },
    {
      "status": "0x1",
      "cumulativeGasUsed": "0x195039",
      "logs": [
        {
          "address": "0x3ec3849c33291a9ef4c5db86de593eb4a37fde45",
          "topics": [
            "0xddf252ad1be2c89b69c2b068fc378daa952ba7f163c4a11628f55a4df523b3ef",
            "0x000000000000000000000000b0e1650a9760e0f383174af042091fc544b8356f",
            "0x0000000000000000000000000000000000000000000000000000000000000000"
          ],
          "data": "0x000000000000000000000000000000000000000000000000000000e8d4a51000",
          "blockHash": "0x9d2025499be6bbf4e8b1736526afdc06b047a04b7e0068d4e116cf13afc191bf",
          "blockNumber": "0x93ae44",
          "transactionHash": "0x697f5e6f608932560920346a8097dda5368b29533afe014ec35ab2d4cd0cee2f",
          "transactionIndex": "0x5",
          "logIndex": "0x1",
          "removed": false
        },
        {
          "address": "0x2367325334447c5e1e0f1b3a6fb947b262f58312",
          "topics": [
            "0x61ed099e74a97a1d7f8bb0952a88ca8b7b8ebd00c126ea04671f92a81213318a"
          ],
          "data": "0x0000000000000000000000004208d6e27538189bb48e603d6123a94b8abe0a0b00000000000000000000000000000000000000000000000000008fb0c9e9ce45",
          "blockHash": "0x9d2025499be6bbf4e8b1736526afdc06b047a04b7e0068d4e116cf13afc191bf",
          "blockNumber": "0x93ae44",
          "transactionHash": "0x697f5e6f608932560920346a8097dda5368b29533afe014ec35ab2d4cd0cee2f",
          "transactionIndex": "0x5",
          "logIndex": "0x2",
          "removed": false
        },
        {
          "address": "0x2367325334447c5e1e0f1b3a6fb947b262f58312",
          "topics": [
            "0x07ea52d82345d6e838192107d8fd7123d9c2ec8e916cd0aad13fd2b60db24644"
          ],
          "data": "0x000000000000000000000000000000000000000000000000000000000000006000000000000000000000000000000000000000000000000000000000000000c000000000000000000000000000000000000000000000000000000000000000e00000000000000000000000000000000000000000000000000000000000000002000000000000000000000000acde1f22eeab249d3ca6ba8805c8fee9f52a16e7000000000000000000000000ce8358bc28dd8296ce8caf1cd2b44787abd658870000000000000000000000000000000000000000000000000000000000000000000000000000000000000000000000000000000000000000000000000000000200000000000000000000000000000000000000000000000000002dadf75113d700000000000000000000000000000000000000000000000000002dadf75113d7",
          "blockHash": "0x9d2025499be6bbf4e8b1736526afdc06b047a04b7e0068d4e116cf13afc191bf",
          "blockNumber": "0x93ae44",
          "transactionHash": "0x697f5e6f608932560920346a8097dda5368b29533afe014ec35ab2d4cd0cee2f",
          "transactionIndex": "0x5",
          "logIndex": "0x3",
          "removed": false
        },
        {
          "address": "0x1a44076050125825900e736c501f859c50fe728c",
          "topics": [
            "0x1ab700d4ced0c005b164c0f789fd09fcbb0156d4c2041b8a3bfbcd961cd1567f"
          ],
          "data": "0x000000000000000000000000000000000000000000000000000000000000006000000000000000000000000000000000000000000000000000000000000001200000000000000000000000002367325334447c5e1e0f1b3a6fb947b262f583120000000000000000000000000000000000000000000000000000000000000099010000000000000001000076340000000000000000000000003ec3849c33291a9ef4c5db86de593eb4a37fde45000076230000000000000000000000001f55a02a049033e3419a8e2975cf3f572f4e6e9a1789b8bff87b1ac4b318e227f75a91bd6b1fbf7a773544c2d181a9338f76d1c6000000000000000000000000b0e1650a9760e0f383174af042091fc544b8356f000000000000000100000000000000000000000000000000000000000000000000000000000000000000000000001600030100110100000000000000000000000000030d4000000000000000000000",
          "blockHash": "0x9d2025499be6bbf4e8b1736526afdc06b047a04b7e0068d4e116cf13afc191bf",
          "blockNumber": "0x93ae44",
          "transactionHash": "0x697f5e6f608932560920346a8097dda5368b29533afe014ec35ab2d4cd0cee2f",
          "transactionIndex": "0x5",
          "logIndex": "0x4",
          "removed": false
        },
        {
          "address": "0x3ec3849c33291a9ef4c5db86de593eb4a37fde45",
          "topics": [
            "0x85496b760a4b7f8d66384b9df21b381f5d1b1e79f229a47aaf4c232edc2fe59a",
            "0x1789b8bff87b1ac4b318e227f75a91bd6b1fbf7a773544c2d181a9338f76d1c6",
            "0x000000000000000000000000b0e1650a9760e0f383174af042091fc544b8356f"
          ],
          "data": "0x0000000000000000000000000000000000000000000000000000000000007623000000000000000000000000000000000000000000000000000000e8d4a51000000000000000000000000000000000000000000000000000000000e8d4a51000",
          "blockHash": "0x9d2025499be6bbf4e8b1736526afdc06b047a04b7e0068d4e116cf13afc191bf",
          "blockNumber": "0x93ae44",
          "transactionHash": "0x697f5e6f608932560920346a8097dda5368b29533afe014ec35ab2d4cd0cee2f",
          "transactionIndex": "0x5",
          "logIndex": "0x5",
          "removed": false
        }
      ],
      "logsBloom": "0x00000000000000000000000000002000000000000000000000000000001000000000000000000000000000000000000000000000000000000000000000000000000002000000000000000008000000000000000000000000000000000000000000000000020000008000000000000800000000000110080000110010000000000000000000000000000000080000000000000000200020000040000000000000000000008000000000100000000000000000000000400000000441000000000000000082000000000000000081000000000000000000000000000000000020000000040080000000000000000000002000000000018000000000000000000000",
      "type": "0x2",
      "transactionHash": "0x697f5e6f608932560920346a8097dda5368b29533afe014ec35ab2d4cd0cee2f",
      "transactionIndex": "0x5",
      "blockHash": "0x9d2025499be6bbf4e8b1736526afdc06b047a04b7e0068d4e116cf13afc191bf",
      "blockNumber": "0x93ae44",
      "gasUsed": "0x476bc",
      "effectiveGasPrice": "0x37e",
      "from": "0xb0e1650a9760e0f383174af042091fc544b8356f",
      "to": "0x3ec3849c33291a9ef4c5db86de593eb4a37fde45",
      "contractAddress": null,
      "l1BaseFeeScalar": "0x4e20",
      "l1BlobBaseFee": "0x1",
      "l1BlobBaseFeeScalar": "0x95506",
      "l1Fee": "0x8220a3669b",
      "l1GasPrice": "0x16ab9873e",
      "l1GasUsed": "0x11f0"
    },
    {
      "status": "0x1",
      "cumulativeGasUsed": "0x521fb",
      "logs": [
        {
          "address": "0x80eede496655fb9047dd39d9f418d5483ed600df",
          "topics": [
            "0xddf252ad1be2c89b69c2b068fc378daa952ba7f163c4a11628f55a4df523b3ef",
            "0x000000000000000000000000b0e1650a9760e0f383174af042091fc544b8356f",
            "0x0000000000000000000000000000000000000000000000000000000000000000"
          ],
          "data": "0x000000000000000000000000000000000000000000000000000000e8d4a51000",
          "blockHash": "0x20fafa0daa8d239eaa049af3f2f306040290d2a8a03f402566999e38c55d6eaa",
          "blockNumber": "0x93ae48",
          "transactionHash": "0x0ab6bdf70142cf4ebba82b6ddedbdba089dfb8eaf2d991ddb8831cb097ee3073",
          "transactionIndex": "0x1",
          "logIndex": "0x0",
          "removed": false
        },
        {
          "address": "0x2367325334447c5e1e0f1b3a6fb947b262f58312",
          "topics": [
            "0x61ed099e74a97a1d7f8bb0952a88ca8b7b8ebd00c126ea04671f92a81213318a"
          ],
          "data": "0x0000000000000000000000004208d6e27538189bb48e603d6123a94b8abe0a0b00000000000000000000000000000000000000000000000000008fb0c9e9ce45",
          "blockHash": "0x20fafa0daa8d239eaa049af3f2f306040290d2a8a03f402566999e38c55d6eaa",
          "blockNumber": "0x93ae48",
          "transactionHash": "0x0ab6bdf70142cf4ebba82b6ddedbdba089dfb8eaf2d991ddb8831cb097ee3073",
          "transactionIndex": "0x1",
          "logIndex": "0x1",
          "removed": false
        },
        {
          "address": "0x2367325334447c5e1e0f1b3a6fb947b262f58312",
          "topics": [
            "0x07ea52d82345d6e838192107d8fd7123d9c2ec8e916cd0aad13fd2b60db24644"
          ],
          "data": "0x000000000000000000000000000000000000000000000000000000000000006000000000000000000000000000000000000000000000000000000000000000c000000000000000000000000000000000000000000000000000000000000000e00000000000000000000000000000000000000000000000000000000000000002000000000000000000000000acde1f22eeab249d3ca6ba8805c8fee9f52a16e7000000000000000000000000ce8358bc28dd8296ce8caf1cd2b44787abd658870000000000000000000000000000000000000000000000000000000000000000000000000000000000000000000000000000000000000000000000000000000200000000000000000000000000000000000000000000000000002dadf75113d700000000000000000000000000000000000000000000000000002dadf75113d7",
          "blockHash": "0x20fafa0daa8d239eaa049af3f2f306040290d2a8a03f402566999e38c55d6eaa",
          "blockNumber": "0x93ae48",
          "transactionHash": "0x0ab6bdf70142cf4ebba82b6ddedbdba089dfb8eaf2d991ddb8831cb097ee3073",
          "transactionIndex": "0x1",
          "logIndex": "0x2",
          "removed": false
        },
        {
          "address": "0x1a44076050125825900e736c501f859c50fe728c",
          "topics": [
            "0x1ab700d4ced0c005b164c0f789fd09fcbb0156d4c2041b8a3bfbcd961cd1567f"
          ],
          "data": "0x000000000000000000000000000000000000000000000000000000000000006000000000000000000000000000000000000000000000000000000000000001200000000000000000000000002367325334447c5e1e0f1b3a6fb947b262f5831200000000000000000000000000000000000000000000000000000000000000990100000000000000010000763400000000000000000000000080eede496655fb9047dd39d9f418d5483ed600df00007623000000000000000000000000909dbde1ebe906af95660033e478d59efe831fed7a84c052b9e60c6ad5ad9f69be4b5a24b0baae3aa29e0f3d424c32b0e6fda641000000000000000000000000b0e1650a9760e0f383174af042091fc544b8356f000000000000000100000000000000000000000000000000000000000000000000000000000000000000000000001600030100110100000000000000000000000000030d4000000000000000000000",
          "blockHash": "0x20fafa0daa8d239eaa049af3f2f306040290d2a8a03f402566999e38c55d6eaa",
          "blockNumber": "0x93ae48",
          "transactionHash": "0x0ab6bdf70142cf4ebba82b6ddedbdba089dfb8eaf2d991ddb8831cb097ee3073",
          "transactionIndex": "0x1",
          "logIndex": "0x3",
          "removed": false
        },
        {
          "address": "0x80eede496655fb9047dd39d9f418d5483ed600df",
          "topics": [
            "0x85496b760a4b7f8d66384b9df21b381f5d1b1e79f229a47aaf4c232edc2fe59a",
            "0x7a84c052b9e60c6ad5ad9f69be4b5a24b0baae3aa29e0f3d424c32b0e6fda641",
            "0x000000000000000000000000b0e1650a9760e0f383174af042091fc544b8356f"
          ],
          "data": "0x0000000000000000000000000000000000000000000000000000000000007623000000000000000000000000000000000000000000000000000000e8d4a51000000000000000000000000000000000000000000000000000000000e8d4a51000",
          "blockHash": "0x20fafa0daa8d239eaa049af3f2f306040290d2a8a03f402566999e38c55d6eaa",
          "blockNumber": "0x93ae48",
          "transactionHash": "0x0ab6bdf70142cf4ebba82b6ddedbdba089dfb8eaf2d991ddb8831cb097ee3073",
          "transactionIndex": "0x1",
          "logIndex": "0x4",
          "removed": false
        }
      ],
      "logsBloom": "0x00000000000000000000000000000000000000000000000000000000001000000000000000000000000000000800000000000000000000000000000200000000000002010000000000000008800000000000000000000000000000000000000000000000020000008000000000000800000000000110080000010010010000000000000000000000000000080000000000000000200000000000000000000000000000008000000000100000000000000000000000400000000440000000000000000082000000000000000080000000000000000000000000000000000020000000040080000000000000000000002000000000018000000000000000000000",
      "type": "0x2",
      "transactionHash": "0x0ab6bdf70142cf4ebba82b6ddedbdba089dfb8eaf2d991ddb8831cb097ee3073",
      "transactionIndex": "0x1",
      "blockHash": "0x20fafa0daa8d239eaa049af3f2f306040290d2a8a03f402566999e38c55d6eaa",
      "blockNumber": "0x93ae48",
      "gasUsed": "0x476bc",
      "effectiveGasPrice": "0x37c",
      "from": "0xb0e1650a9760e0f383174af042091fc544b8356f",
      "to": "0x80eede496655fb9047dd39d9f418d5483ed600df",
      "contractAddress": null,
      "l1BaseFeeScalar": "0x4e20",
      "l1BlobBaseFee": "0x1",
      "l1BlobBaseFeeScalar": "0x95506",
      "l1Fee": "0x7a17756715",
      "l1GasPrice": "0x155378000",
      "l1GasUsed": "0x11e4"
    },
    {
      "status": "0x1",
      "cumulativeGasUsed": "0x20fe78",
      "logs": [
        {
          "address": "0x64445f0aecc51e94ad52d8ac56b7190e764e561a",
          "topics": [
            "0xddf252ad1be2c89b69c2b068fc378daa952ba7f163c4a11628f55a4df523b3ef",
            "0x000000000000000000000000b0e1650a9760e0f383174af042091fc544b8356f",
            "0x0000000000000000000000000000000000000000000000000000000000000000"
          ],
          "data": "0x000000000000000000000000000000000000000000000000000000e8d4a51000",
          "blockHash": "0x704a5928561ad06a0958cd809e4c329c91cf107583e7de352b944d5b91c06fef",
          "blockNumber": "0x93ae4b",
          "transactionHash": "0xb921ac2f7bf22df5cb30ea865fd91f7437f0811abcc2fd7d490afc3e0ebb7739",
          "transactionIndex": "0x6",
          "logIndex": "0xa",
          "removed": false
        },
        {
          "address": "0x2367325334447c5e1e0f1b3a6fb947b262f58312",
          "topics": [
            "0x61ed099e74a97a1d7f8bb0952a88ca8b7b8ebd00c126ea04671f92a81213318a"
          ],
          "data": "0x0000000000000000000000004208d6e27538189bb48e603d6123a94b8abe0a0b00000000000000000000000000000000000000000000000000008efcd7347ce6",
          "blockHash": "0x704a5928561ad06a0958cd809e4c329c91cf107583e7de352b944d5b91c06fef",
          "blockNumber": "0x93ae4b",
          "transactionHash": "0xb921ac2f7bf22df5cb30ea865fd91f7437f0811abcc2fd7d490afc3e0ebb7739",
          "transactionIndex": "0x6",
          "logIndex": "0xb",
          "removed": false
        },
        {
          "address": "0x2367325334447c5e1e0f1b3a6fb947b262f58312",
          "topics": [
            "0x07ea52d82345d6e838192107d8fd7123d9c2ec8e916cd0aad13fd2b60db24644"
          ],
          "data": "0x000000000000000000000000000000000000000000000000000000000000006000000000000000000000000000000000000000000000000000000000000000c000000000000000000000000000000000000000000000000000000000000000e00000000000000000000000000000000000000000000000000000000000000002000000000000000000000000acde1f22eeab249d3ca6ba8805c8fee9f52a16e7000000000000000000000000ce8358bc28dd8296ce8caf1cd2b44787abd658870000000000000000000000000000000000000000000000000000000000000000000000000000000000000000000000000000000000000000000000000000000200000000000000000000000000000000000000000000000000000823aae90b7700000000000000000000000000000000000000000000000000000823aae90b77",
          "blockHash": "0x704a5928561ad06a0958cd809e4c329c91cf107583e7de352b944d5b91c06fef",
          "blockNumber": "0x93ae4b",
          "transactionHash": "0xb921ac2f7bf22df5cb30ea865fd91f7437f0811abcc2fd7d490afc3e0ebb7739",
          "transactionIndex": "0x6",
          "logIndex": "0xc",
          "removed": false
        },
        {
          "address": "0x1a44076050125825900e736c501f859c50fe728c",
          "topics": [
            "0x1ab700d4ced0c005b164c0f789fd09fcbb0156d4c2041b8a3bfbcd961cd1567f"
          ],
          "data": "0x000000000000000000000000000000000000000000000000000000000000006000000000000000000000000000000000000000000000000000000000000001200000000000000000000000002367325334447c5e1e0f1b3a6fb947b262f5831200000000000000000000000000000000000000000000000000000000000000990100000000000000010000763400000000000000000000000064445f0aecc51e94ad52d8ac56b7190e764e561a000075c700000000000000000000000023432452b720c80553458496d4d9d7c5003280d0d166c404e4797a506a4bea239e41cec56ba9da00f3ddf8fb6b0c90392a6cd102000000000000000000000000b0e1650a9760e0f383174af042091fc544b8356f000000000000000100000000000000000000000000000000000000000000000000000000000000000000000000001600030100110100000000000000000000000000030d4000000000000000000000",
          "blockHash": "0x704a5928561ad06a0958cd809e4c329c91cf107583e7de352b944d5b91c06fef",
          "blockNumber": "0x93ae4b",
          "transactionHash": "0xb921ac2f7bf22df5cb30ea865fd91f7437f0811abcc2fd7d490afc3e0ebb7739",
          "transactionIndex": "0x6",
          "logIndex": "0xd",
          "removed": false
        },
        {
          "address": "0x64445f0aecc51e94ad52d8ac56b7190e764e561a",
          "topics": [
            "0x85496b760a4b7f8d66384b9df21b381f5d1b1e79f229a47aaf4c232edc2fe59a",
            "0xd166c404e4797a506a4bea239e41cec56ba9da00f3ddf8fb6b0c90392a6cd102",
            "0x000000000000000000000000b0e1650a9760e0f383174af042091fc544b8356f"
          ],
          "data": "0x00000000000000000000000000000000000000000000000000000000000075c7000000000000000000000000000000000000000000000000000000e8d4a51000000000000000000000000000000000000000000000000000000000e8d4a51000",
          "blockHash": "0x704a5928561ad06a0958cd809e4c329c91cf107583e7de352b944d5b91c06fef",
          "blockNumber": "0x93ae4b",
          "transactionHash": "0xb921ac2f7bf22df5cb30ea865fd91f7437f0811abcc2fd7d490afc3e0ebb7739",
          "transactionIndex": "0x6",
          "logIndex": "0xe",
          "removed": false
        }
      ],
      "logsBloom": "0x00000000000000000000000000000000000000000000000000000000001000000000000000000000000000000000000000000000000000000000000000000020002002000000000200000008000000000000000000000000000000000000000000000000020000008000000000000800000000000110080000010010000000000000000000000000000000080000000000000000200000000000000000000000000000008000000000100008000000000000000000400000000440000000000000000082000000000000000080000000000000000000000000000000000020000000040080000000000000000000002000000008018000000000080000000000",
      "type": "0x2",
      "transactionHash": "0xb921ac2f7bf22df5cb30ea865fd91f7437f0811abcc2fd7d490afc3e0ebb7739",
      "transactionIndex": "0x6",
      "blockHash": "0x704a5928561ad06a0958cd809e4c329c91cf107583e7de352b944d5b91c06fef",
      "blockNumber": "0x93ae4b",
      "gasUsed": "0x45ca4",
      "effectiveGasPrice": "0x37c",
      "from": "0xb0e1650a9760e0f383174af042091fc544b8356f",
      "to": "0x64445f0aecc51e94ad52d8ac56b7190e764e561a",
      "contractAddress": null,
      "l1BaseFeeScalar": "0x4e20",
      "l1BlobBaseFee": "0x1",
      "l1BlobBaseFeeScalar": "0x95506",
      "l1Fee": "0x7a6959c33e",
      "l1GasPrice": "0x155378000",
      "l1GasUsed": "0x11f0"
    },
    {
      "status": "0x1",
      "cumulativeGasUsed": "0x189a01",
      "logs": [
        {
          "address": "0x5bff88ca1442c2496f7e475e9e7786383bc070c0",
          "topics": [
            "0xddf252ad1be2c89b69c2b068fc378daa952ba7f163c4a11628f55a4df523b3ef",
            "0x000000000000000000000000b0e1650a9760e0f383174af042091fc544b8356f",
            "0x0000000000000000000000000000000000000000000000000000000000000000"
          ],
          "data": "0x000000000000000000000000000000000000000000000000000000e8d4a51000",
          "blockHash": "0xdd6b78d31ccc8ae9ab787c2cb7c0248d156b9fb0bf9cb9259576538351740ac9",
          "blockNumber": "0x93ae4f",
          "transactionHash": "0xebe6819f32ff094a2be6b148c6030bfd6d7aa7b41e0f825addc2aba4edf0f6ad",
          "transactionIndex": "0x4",
          "logIndex": "0x0",
          "removed": false
        },
        {
          "address": "0x2367325334447c5e1e0f1b3a6fb947b262f58312",
          "topics": [
            "0x61ed099e74a97a1d7f8bb0952a88ca8b7b8ebd00c126ea04671f92a81213318a"
          ],
          "data": "0x0000000000000000000000004208d6e27538189bb48e603d6123a94b8abe0a0b00000000000000000000000000000000000000000000000000008efcd7347ce6",
          "blockHash": "0xdd6b78d31ccc8ae9ab787c2cb7c0248d156b9fb0bf9cb9259576538351740ac9",
          "blockNumber": "0x93ae4f",
          "transactionHash": "0xebe6819f32ff094a2be6b148c6030bfd6d7aa7b41e0f825addc2aba4edf0f6ad",
          "transactionIndex": "0x4",
          "logIndex": "0x1",
          "removed": false
        },
        {
          "address": "0x2367325334447c5e1e0f1b3a6fb947b262f58312",
          "topics": [
            "0x07ea52d82345d6e838192107d8fd7123d9c2ec8e916cd0aad13fd2b60db24644"
          ],
          "data": "0x000000000000000000000000000000000000000000000000000000000000006000000000000000000000000000000000000000000000000000000000000000c000000000000000000000000000000000000000000000000000000000000000e00000000000000000000000000000000000000000000000000000000000000002000000000000000000000000acde1f22eeab249d3ca6ba8805c8fee9f52a16e7000000000000000000000000ce8358bc28dd8296ce8caf1cd2b44787abd658870000000000000000000000000000000000000000000000000000000000000000000000000000000000000000000000000000000000000000000000000000000200000000000000000000000000000000000000000000000000000823aae90b7700000000000000000000000000000000000000000000000000000823aae90b77",
          "blockHash": "0xdd6b78d31ccc8ae9ab787c2cb7c0248d156b9fb0bf9cb9259576538351740ac9",
          "blockNumber": "0x93ae4f",
          "transactionHash": "0xebe6819f32ff094a2be6b148c6030bfd6d7aa7b41e0f825addc2aba4edf0f6ad",
          "transactionIndex": "0x4",
          "logIndex": "0x2",
          "removed": false
        },
        {
          "address": "0x1a44076050125825900e736c501f859c50fe728c",
          "topics": [
            "0x1ab700d4ced0c005b164c0f789fd09fcbb0156d4c2041b8a3bfbcd961cd1567f"
          ],
          "data": "0x000000000000000000000000000000000000000000000000000000000000006000000000000000000000000000000000000000000000000000000000000001200000000000000000000000002367325334447c5e1e0f1b3a6fb947b262f583120000000000000000000000000000000000000000000000000000000000000099010000000000000001000076340000000000000000000000005bff88ca1442c2496f7e475e9e7786383bc070c0000075c7000000000000000000000000e4796ccb6bb5de2290c417ac337f2b66ca2e770e98a2aaa1a0587cced4b42d963e41f91612b2ee720966dbeadf9ecd6c1fb8a4c4000000000000000000000000b0e1650a9760e0f383174af042091fc544b8356f000000000000000100000000000000000000000000000000000000000000000000000000000000000000000000001600030100110100000000000000000000000000030d4000000000000000000000",
          "blockHash": "0xdd6b78d31ccc8ae9ab787c2cb7c0248d156b9fb0bf9cb9259576538351740ac9",
          "blockNumber": "0x93ae4f",
          "transactionHash": "0xebe6819f32ff094a2be6b148c6030bfd6d7aa7b41e0f825addc2aba4edf0f6ad",
          "transactionIndex": "0x4",
          "logIndex": "0x3",
          "removed": false
        },
        {
          "address": "0x5bff88ca1442c2496f7e475e9e7786383bc070c0",
          "topics": [
            "0x85496b760a4b7f8d66384b9df21b381f5d1b1e79f229a47aaf4c232edc2fe59a",
            "0x98a2aaa1a0587cced4b42d963e41f91612b2ee720966dbeadf9ecd6c1fb8a4c4",
            "0x000000000000000000000000b0e1650a9760e0f383174af042091fc544b8356f"
          ],
          "data": "0x00000000000000000000000000000000000000000000000000000000000075c7000000000000000000000000000000000000000000000000000000e8d4a51000000000000000000000000000000000000000000000000000000000e8d4a51000",
          "blockHash": "0xdd6b78d31ccc8ae9ab787c2cb7c0248d156b9fb0bf9cb9259576538351740ac9",
          "blockNumber": "0x93ae4f",
          "transactionHash": "0xebe6819f32ff094a2be6b148c6030bfd6d7aa7b41e0f825addc2aba4edf0f6ad",
          "transactionIndex": "0x4",
          "logIndex": "0x4",
          "removed": false
        }
      ],
      "logsBloom": "0x00000000000000000000000000000000000000000000000000000000001000000000000000000000000000000000000000000000000000000000000000004004000002000000000000000008000000000000000000000000000000000000000000000000020000008000000000000800000000000110080000010010000000000000000000000000000000080000000000000000200000000000000000000000000000008000000000100000000000000000010000400000000440000010000000000082000000000000000080000000000000800000000000000000000020000000040080000000000000000000002000000000018000000000000000000800",
      "type": "0x2",
      "transactionHash": "0xebe6819f32ff094a2be6b148c6030bfd6d7aa7b41e0f825addc2aba4edf0f6ad",
      "transactionIndex": "0x4",
      "blockHash": "0xdd6b78d31ccc8ae9ab787c2cb7c0248d156b9fb0bf9cb9259576538351740ac9",
      "blockNumber": "0x93ae4f",
      "gasUsed": "0x45ca4",
      "effectiveGasPrice": "0x384",
      "from": "0xb0e1650a9760e0f383174af042091fc544b8356f",
      "to": "0x5bff88ca1442c2496f7e475e9e7786383bc070c0",
      "contractAddress": null,
      "l1BaseFeeScalar": "0x4e20",
      "l1BlobBaseFee": "0x1",
      "l1BlobBaseFeeScalar": "0x95506",
      "l1Fee": "0x7a6959c33e",
      "l1GasPrice": "0x155378000",
      "l1GasUsed": "0x11f0"
    },
    {
      "status": "0x1",
      "cumulativeGasUsed": "0x97a55",
      "logs": [
        {
          "address": "0x3ec3849c33291a9ef4c5db86de593eb4a37fde45",
          "topics": [
            "0xddf252ad1be2c89b69c2b068fc378daa952ba7f163c4a11628f55a4df523b3ef",
            "0x000000000000000000000000b0e1650a9760e0f383174af042091fc544b8356f",
            "0x0000000000000000000000000000000000000000000000000000000000000000"
          ],
          "data": "0x000000000000000000000000000000000000000000000000000000e8d4a51000",
          "blockHash": "0x859cb92b65faf6737c512ee67789db5bdee534ad54da30ffa3da1861b91519dc",
          "blockNumber": "0x93ae52",
          "transactionHash": "0x58b988e8b261c7da810f94f49d7569928c1afdcc66008ed3d7144e26afb2a729",
          "transactionIndex": "0x2",
          "logIndex": "0x0",
          "removed": false
        },
        {
          "address": "0x2367325334447c5e1e0f1b3a6fb947b262f58312",
          "topics": [
            "0x61ed099e74a97a1d7f8bb0952a88ca8b7b8ebd00c126ea04671f92a81213318a"
          ],
          "data": "0x0000000000000000000000004208d6e27538189bb48e603d6123a94b8abe0a0b00000000000000000000000000000000000000000000000000008efcd7347ce6",
          "blockHash": "0x859cb92b65faf6737c512ee67789db5bdee534ad54da30ffa3da1861b91519dc",
          "blockNumber": "0x93ae52",
          "transactionHash": "0x58b988e8b261c7da810f94f49d7569928c1afdcc66008ed3d7144e26afb2a729",
          "transactionIndex": "0x2",
          "logIndex": "0x1",
          "removed": false
        },
        {
          "address": "0x2367325334447c5e1e0f1b3a6fb947b262f58312",
          "topics": [
            "0x07ea52d82345d6e838192107d8fd7123d9c2ec8e916cd0aad13fd2b60db24644"
          ],
          "data": "0x000000000000000000000000000000000000000000000000000000000000006000000000000000000000000000000000000000000000000000000000000000c000000000000000000000000000000000000000000000000000000000000000e00000000000000000000000000000000000000000000000000000000000000002000000000000000000000000acde1f22eeab249d3ca6ba8805c8fee9f52a16e7000000000000000000000000ce8358bc28dd8296ce8caf1cd2b44787abd658870000000000000000000000000000000000000000000000000000000000000000000000000000000000000000000000000000000000000000000000000000000200000000000000000000000000000000000000000000000000000823aae90b7700000000000000000000000000000000000000000000000000000823aae90b77",
          "blockHash": "0x859cb92b65faf6737c512ee67789db5bdee534ad54da30ffa3da1861b91519dc",
          "blockNumber": "0x93ae52",
          "transactionHash": "0x58b988e8b261c7da810f94f49d7569928c1afdcc66008ed3d7144e26afb2a729",
          "transactionIndex": "0x2",
          "logIndex": "0x2",
          "removed": false
        },
        {
          "address": "0x1a44076050125825900e736c501f859c50fe728c",
          "topics": [
            "0x1ab700d4ced0c005b164c0f789fd09fcbb0156d4c2041b8a3bfbcd961cd1567f"
          ],
          "data": "0x000000000000000000000000000000000000000000000000000000000000006000000000000000000000000000000000000000000000000000000000000001200000000000000000000000002367325334447c5e1e0f1b3a6fb947b262f583120000000000000000000000000000000000000000000000000000000000000099010000000000000001000076340000000000000000000000003ec3849c33291a9ef4c5db86de593eb4a37fde45000075c70000000000000000000000001f55a02a049033e3419a8e2975cf3f572f4e6e9a7ba9750eda84918331cddb8348bea358b303f9c58ccf57bfadbfea018e80affd000000000000000000000000b0e1650a9760e0f383174af042091fc544b8356f000000000000000100000000000000000000000000000000000000000000000000000000000000000000000000001600030100110100000000000000000000000000030d4000000000000000000000",
          "blockHash": "0x859cb92b65faf6737c512ee67789db5bdee534ad54da30ffa3da1861b91519dc",
          "blockNumber": "0x93ae52",
          "transactionHash": "0x58b988e8b261c7da810f94f49d7569928c1afdcc66008ed3d7144e26afb2a729",
          "transactionIndex": "0x2",
          "logIndex": "0x3",
          "removed": false
        },
        {
          "address": "0x3ec3849c33291a9ef4c5db86de593eb4a37fde45",
          "topics": [
            "0x85496b760a4b7f8d66384b9df21b381f5d1b1e79f229a47aaf4c232edc2fe59a",
            "0x7ba9750eda84918331cddb8348bea358b303f9c58ccf57bfadbfea018e80affd",
            "0x000000000000000000000000b0e1650a9760e0f383174af042091fc544b8356f"
          ],
          "data": "0x00000000000000000000000000000000000000000000000000000000000075c7000000000000000000000000000000000000000000000000000000e8d4a51000000000000000000000000000000000000000000000000000000000e8d4a51000",
          "blockHash": "0x859cb92b65faf6737c512ee67789db5bdee534ad54da30ffa3da1861b91519dc",
          "blockNumber": "0x93ae52",
          "transactionHash": "0x58b988e8b261c7da810f94f49d7569928c1afdcc66008ed3d7144e26afb2a729",
          "transactionIndex": "0x2",
          "logIndex": "0x4",
          "removed": false
        }
      ],
      "logsBloom": "0x00000000000000000000000000002002000000000000020000000000001000000000000000000000000000000000000000000000000000000400000000000000000002000000000000000008000000000000000000000000000000000000000000000000020000008000000000000800000000000110080000010010000000000000000000000000000000080000000000000000200020000040000000000000000000008000000000100000000000000000000000400000000440000000000000000082000000000000000080000000000000000000000000000000000020000000040080000000000000000000002000000000018000000000000000000000",
      "type": "0x2",
      "transactionHash": "0x58b988e8b261c7da810f94f49d7569928c1afdcc66008ed3d7144e26afb2a729",
      "transactionIndex": "0x2",
      "blockHash": "0x859cb92b65faf6737c512ee67789db5bdee534ad54da30ffa3da1861b91519dc",
      "blockNumber": "0x93ae52",
      "gasUsed": "0x45ca4",
      "effectiveGasPrice": "0x37e",
      "from": "0xb0e1650a9760e0f383174af042091fc544b8356f",
      "to": "0x3ec3849c33291a9ef4c5db86de593eb4a37fde45",
      "contractAddress": null,
      "l1BaseFeeScalar": "0x4e20",
      "l1BlobBaseFee": "0x1",
      "l1BlobBaseFeeScalar": "0x95506",
      "l1Fee": "0x7a07750ab3",
      "l1GasPrice": "0x15426a055",
      "l1GasUsed": "0x11f0"
    },
    {
      "status": "0x1",
      "cumulativeGasUsed": "0x13cbf6",
      "logs": [
        {
          "address": "0x80eede496655fb9047dd39d9f418d5483ed600df",
          "topics": [
            "0xddf252ad1be2c89b69c2b068fc378daa952ba7f163c4a11628f55a4df523b3ef",
            "0x000000000000000000000000b0e1650a9760e0f383174af042091fc544b8356f",
            "0x0000000000000000000000000000000000000000000000000000000000000000"
          ],
          "data": "0x000000000000000000000000000000000000000000000000000000e8d4a51000",
          "blockHash": "0x11f4aff0cf84d6a7b9b58941abada79b733804049c9c4810fa11c17e51f0124f",
          "blockNumber": "0x93ae56",
          "transactionHash": "0xaf8d0e9c59b21bea80067eb8ddcdbccb8160df743ee2a014b598e3ee7e4526b6",
          "transactionIndex": "0x2",
          "logIndex": "0x0",
          "removed": false
        },
        {
          "address": "0x2367325334447c5e1e0f1b3a6fb947b262f58312",
          "topics": [
            "0x61ed099e74a97a1d7f8bb0952a88ca8b7b8ebd00c126ea04671f92a81213318a"
          ],
          "data": "0x0000000000000000000000004208d6e27538189bb48e603d6123a94b8abe0a0b00000000000000000000000000000000000000000000000000008efcd7347ce6",
          "blockHash": "0x11f4aff0cf84d6a7b9b58941abada79b733804049c9c4810fa11c17e51f0124f",
          "blockNumber": "0x93ae56",
          "transactionHash": "0xaf8d0e9c59b21bea80067eb8ddcdbccb8160df743ee2a014b598e3ee7e4526b6",
          "transactionIndex": "0x2",
          "logIndex": "0x1",
          "removed": false
        },
        {
          "address": "0x2367325334447c5e1e0f1b3a6fb947b262f58312",
          "topics": [
            "0x07ea52d82345d6e838192107d8fd7123d9c2ec8e916cd0aad13fd2b60db24644"
          ],
          "data": "0x000000000000000000000000000000000000000000000000000000000000006000000000000000000000000000000000000000000000000000000000000000c000000000000000000000000000000000000000000000000000000000000000e00000000000000000000000000000000000000000000000000000000000000002000000000000000000000000acde1f22eeab249d3ca6ba8805c8fee9f52a16e7000000000000000000000000ce8358bc28dd8296ce8caf1cd2b44787abd658870000000000000000000000000000000000000000000000000000000000000000000000000000000000000000000000000000000000000000000000000000000200000000000000000000000000000000000000000000000000000823aae90b7700000000000000000000000000000000000000000000000000000823aae90b77",
          "blockHash": "0x11f4aff0cf84d6a7b9b58941abada79b733804049c9c4810fa11c17e51f0124f",
          "blockNumber": "0x93ae56",
          "transactionHash": "0xaf8d0e9c59b21bea80067eb8ddcdbccb8160df743ee2a014b598e3ee7e4526b6",
          "transactionIndex": "0x2",
          "logIndex": "0x2",
          "removed": false
        },
        {
          "address": "0x1a44076050125825900e736c501f859c50fe728c",
          "topics": [
            "0x1ab700d4ced0c005b164c0f789fd09fcbb0156d4c2041b8a3bfbcd961cd1567f"
          ],
          "data": "0x000000000000000000000000000000000000000000000000000000000000006000000000000000000000000000000000000000000000000000000000000001200000000000000000000000002367325334447c5e1e0f1b3a6fb947b262f5831200000000000000000000000000000000000000000000000000000000000000990100000000000000010000763400000000000000000000000080eede496655fb9047dd39d9f418d5483ed600df000075c7000000000000000000000000909dbde1ebe906af95660033e478d59efe831feda7da2a1c9e0030689e1256b75ac3932bd0b5448b0858eb53828fe8ba47eb0653000000000000000000000000b0e1650a9760e0f383174af042091fc544b8356f000000000000000100000000000000000000000000000000000000000000000000000000000000000000000000001600030100110100000000000000000000000000030d4000000000000000000000",
          "blockHash": "0x11f4aff0cf84d6a7b9b58941abada79b733804049c9c4810fa11c17e51f0124f",
          "blockNumber": "0x93ae56",
          "transactionHash": "0xaf8d0e9c59b21bea80067eb8ddcdbccb8160df743ee2a014b598e3ee7e4526b6",
          "transactionIndex": "0x2",
          "logIndex": "0x3",
          "removed": false
        },
        {
          "address": "0x80eede496655fb9047dd39d9f418d5483ed600df",
          "topics": [
            "0x85496b760a4b7f8d66384b9df21b381f5d1b1e79f229a47aaf4c232edc2fe59a",
            "0xa7da2a1c9e0030689e1256b75ac3932bd0b5448b0858eb53828fe8ba47eb0653",
            "0x000000000000000000000000b0e1650a9760e0f383174af042091fc544b8356f"
          ],
          "data": "0x00000000000000000000000000000000000000000000000000000000000075c7000000000000000000000000000000000000000000000000000000e8d4a51000000000000000000000000000000000000000000000000000000000e8d4a51000",
          "blockHash": "0x11f4aff0cf84d6a7b9b58941abada79b733804049c9c4810fa11c17e51f0124f",
          "blockNumber": "0x93ae56",
          "transactionHash": "0xaf8d0e9c59b21bea80067eb8ddcdbccb8160df743ee2a014b598e3ee7e4526b6",
          "transactionIndex": "0x2",
          "logIndex": "0x4",
          "removed": false
        }
      ],
      "logsBloom": "0x00000000000000002000000000000000000000000000000000000000001000000000000000000000000000000800000000000000000000000000000200000000000002000000000000000008000000000000000000000000000000000000000000000000020000008000000000000800000000000110080000010010010000000000000000000000000000080000001000000000200000000000000002000000000000008000000000100000000000000000000000400000000440000000000000000082000000000000000080000000000000000000000000000000000020000000040080000000000000000000002000000000018000000000000000000000",
      "type": "0x2",
      "transactionHash": "0xaf8d0e9c59b21bea80067eb8ddcdbccb8160df743ee2a014b598e3ee7e4526b6",
      "transactionIndex": "0x2",
      "blockHash": "0x11f4aff0cf84d6a7b9b58941abada79b733804049c9c4810fa11c17e51f0124f",
      "blockNumber": "0x93ae56",
      "gasUsed": "0x45ca4",
      "effectiveGasPrice": "0x37c",
      "from": "0xb0e1650a9760e0f383174af042091fc544b8356f",
      "to": "0x80eede496655fb9047dd39d9f418d5483ed600df",
      "contractAddress": null,
      "l1BaseFeeScalar": "0x4e20",
      "l1BlobBaseFee": "0x1",
      "l1BlobBaseFeeScalar": "0x95506",
      "l1Fee": "0x75ced12ec1",
      "l1GasPrice": "0x1493ea683",
      "l1GasUsed": "0x11e4"
    },
    {
      "status": "0x1",
      "cumulativeGasUsed": "0x188160",
      "logs": [
        {
          "address": "0x64445f0aecc51e94ad52d8ac56b7190e764e561a",
          "topics": [
            "0xddf252ad1be2c89b69c2b068fc378daa952ba7f163c4a11628f55a4df523b3ef",
            "0x000000000000000000000000b0e1650a9760e0f383174af042091fc544b8356f",
            "0x0000000000000000000000000000000000000000000000000000000000000000"
          ],
          "data": "0x000000000000000000000000000000000000000000000000000000e8d4a51000",
          "blockHash": "0x1c9ce69360da21b6816291bbc2083052f29ac361168342d6c0931d33fec08e3b",
          "blockNumber": "0x93ae5a",
          "transactionHash": "0x853f0ec5463f5869d115fdbb3cdbf30366c1dc4923c6a3e6b568b0ad87ba7ba2",
          "transactionIndex": "0x4",
          "logIndex": "0x1",
          "removed": false
        },
        {
          "address": "0x2367325334447c5e1e0f1b3a6fb947b262f58312",
          "topics": [
            "0x61ed099e74a97a1d7f8bb0952a88ca8b7b8ebd00c126ea04671f92a81213318a"
          ],
          "data": "0x0000000000000000000000004208d6e27538189bb48e603d6123a94b8abe0a0b000000000000000000000000000000000000000000000000000009d9ec3c3cf0",
          "blockHash": "0x1c9ce69360da21b6816291bbc2083052f29ac361168342d6c0931d33fec08e3b",
          "blockNumber": "0x93ae5a",
          "transactionHash": "0x853f0ec5463f5869d115fdbb3cdbf30366c1dc4923c6a3e6b568b0ad87ba7ba2",
          "transactionIndex": "0x4",
          "logIndex": "0x2",
          "removed": false
        },
        {
          "address": "0x2367325334447c5e1e0f1b3a6fb947b262f58312",
          "topics": [
            "0x07ea52d82345d6e838192107d8fd7123d9c2ec8e916cd0aad13fd2b60db24644"
          ],
          "data": "0x000000000000000000000000000000000000000000000000000000000000006000000000000000000000000000000000000000000000000000000000000000c000000000000000000000000000000000000000000000000000000000000000e00000000000000000000000000000000000000000000000000000000000000002000000000000000000000000acde1f22eeab249d3ca6ba8805c8fee9f52a16e7000000000000000000000000ce8358bc28dd8296ce8caf1cd2b44787abd6588700000000000000000000000000000000000000000000000000000000000000000000000000000000000000000000000000000000000000000000000000000002000000000000000000000000000000000000000000000000000000e1e78c064e000000000000000000000000000000000000000000000000000000e1e78c064e",
          "blockHash": "0x1c9ce69360da21b6816291bbc2083052f29ac361168342d6c0931d33fec08e3b",
          "blockNumber": "0x93ae5a",
          "transactionHash": "0x853f0ec5463f5869d115fdbb3cdbf30366c1dc4923c6a3e6b568b0ad87ba7ba2",
          "transactionIndex": "0x4",
          "logIndex": "0x3",
          "removed": false
        },
        {
          "address": "0x1a44076050125825900e736c501f859c50fe728c",
          "topics": [
            "0x1ab700d4ced0c005b164c0f789fd09fcbb0156d4c2041b8a3bfbcd961cd1567f"
          ],
          "data": "0x000000000000000000000000000000000000000000000000000000000000006000000000000000000000000000000000000000000000000000000000000001200000000000000000000000002367325334447c5e1e0f1b3a6fb947b262f5831200000000000000000000000000000000000000000000000000000000000000990100000000000000010000763400000000000000000000000064445f0aecc51e94ad52d8ac56b7190e764e561a000075e800000000000000000000000023432452b720c80553458496d4d9d7c5003280d0d807a4a1ae798ef950ccbf4f8597e8447a301025b10db965433a5fd257976c57000000000000000000000000b0e1650a9760e0f383174af042091fc544b8356f000000000000000100000000000000000000000000000000000000000000000000000000000000000000000000001600030100110100000000000000000000000000030d4000000000000000000000",
          "blockHash": "0x1c9ce69360da21b6816291bbc2083052f29ac361168342d6c0931d33fec08e3b",
          "blockNumber": "0x93ae5a",
          "transactionHash": "0x853f0ec5463f5869d115fdbb3cdbf30366c1dc4923c6a3e6b568b0ad87ba7ba2",
          "transactionIndex": "0x4",
          "logIndex": "0x4",
          "removed": false
        },
        {
          "address": "0x64445f0aecc51e94ad52d8ac56b7190e764e561a",
          "topics": [
            "0x85496b760a4b7f8d66384b9df21b381f5d1b1e79f229a47aaf4c232edc2fe59a",
            "0xd807a4a1ae798ef950ccbf4f8597e8447a301025b10db965433a5fd257976c57",
            "0x000000000000000000000000b0e1650a9760e0f383174af042091fc544b8356f"
          ],
          "data": "0x00000000000000000000000000000000000000000000000000000000000075e8000000000000000000000000000000000000000000000000000000e8d4a51000000000000000000000000000000000000000000000000000000000e8d4a51000",
          "blockHash": "0x1c9ce69360da21b6816291bbc2083052f29ac361168342d6c0931d33fec08e3b",
          "blockNumber": "0x93ae5a",
          "transactionHash": "0x853f0ec5463f5869d115fdbb3cdbf30366c1dc4923c6a3e6b568b0ad87ba7ba2",
          "transactionIndex": "0x4",
          "logIndex": "0x5",
          "removed": false
        }
      ],
      "logsBloom": "0x00000000000000000000000000000000000000000000000000000000001000000000000000000000000000000000000000000000000000000000000000000000002002000000000000000008000000000000000000000000000000000000000000000000020000008000000000000800000000000110080000010010000000000000000000000000000000280000000000000000200000000000000000000000000000008000000000100008000000000000000000400000000440000000000000000082000000800000000080000000000080000000000000000000000020000000040080000000000000000000002000000008018000000000000000000000",
      "type": "0x2",
      "transactionHash": "0x853f0ec5463f5869d115fdbb3cdbf30366c1dc4923c6a3e6b568b0ad87ba7ba2",
      "transactionIndex": "0x4",
      "blockHash": "0x1c9ce69360da21b6816291bbc2083052f29ac361168342d6c0931d33fec08e3b",
      "blockNumber": "0x93ae5a",
      "gasUsed": "0x45ca4",
      "effectiveGasPrice": "0x37a",
      "from": "0xb0e1650a9760e0f383174af042091fc544b8356f",
      "to": "0x64445f0aecc51e94ad52d8ac56b7190e764e561a",
      "contractAddress": null,
      "l1BaseFeeScalar": "0x4e20",
      "l1BlobBaseFee": "0x1",
      "l1BlobBaseFeeScalar": "0x95506",
      "l1Fee": "0x6ed860f5fe",
      "l1GasPrice": "0x135c929ce",
      "l1GasUsed": "0x11e4"
    },
    {
      "status": "0x1",
      "cumulativeGasUsed": "0x18f569",
      "logs": [
        {
          "address": "0x5bff88ca1442c2496f7e475e9e7786383bc070c0",
          "topics": [
            "0xddf252ad1be2c89b69c2b068fc378daa952ba7f163c4a11628f55a4df523b3ef",
            "0x000000000000000000000000b0e1650a9760e0f383174af042091fc544b8356f",
            "0x0000000000000000000000000000000000000000000000000000000000000000"
          ],
          "data": "0x000000000000000000000000000000000000000000000000000000e8d4a51000",
          "blockHash": "0xdf9a095ea81270dd91215bc8a4db647904f6ff6a0ce98ff0e9a8b99a5e9609ce",
          "blockNumber": "0x93ae5d",
          "transactionHash": "0xc6d1cbc95726758303aaf408bc4611f9857ca63d1a0da88bfb48a36400b53209",
          "transactionIndex": "0x5",
          "logIndex": "0x0",
          "removed": false
        },
        {
          "address": "0x2367325334447c5e1e0f1b3a6fb947b262f58312",
          "topics": [
            "0x61ed099e74a97a1d7f8bb0952a88ca8b7b8ebd00c126ea04671f92a81213318a"
          ],
          "data": "0x0000000000000000000000004208d6e27538189bb48e603d6123a94b8abe0a0b000000000000000000000000000000000000000000000000000009d9ec3c3cf0",
          "blockHash": "0xdf9a095ea81270dd91215bc8a4db647904f6ff6a0ce98ff0e9a8b99a5e9609ce",
          "blockNumber": "0x93ae5d",
          "transactionHash": "0xc6d1cbc95726758303aaf408bc4611f9857ca63d1a0da88bfb48a36400b53209",
          "transactionIndex": "0x5",
          "logIndex": "0x1",
          "removed": false
        },
        {
          "address": "0x2367325334447c5e1e0f1b3a6fb947b262f58312",
          "topics": [
            "0x07ea52d82345d6e838192107d8fd7123d9c2ec8e916cd0aad13fd2b60db24644"
          ],
          "data": "0x000000000000000000000000000000000000000000000000000000000000006000000000000000000000000000000000000000000000000000000000000000c000000000000000000000000000000000000000000000000000000000000000e00000000000000000000000000000000000000000000000000000000000000002000000000000000000000000acde1f22eeab249d3ca6ba8805c8fee9f52a16e7000000000000000000000000ce8358bc28dd8296ce8caf1cd2b44787abd6588700000000000000000000000000000000000000000000000000000000000000000000000000000000000000000000000000000000000000000000000000000002000000000000000000000000000000000000000000000000000000e1e78c064e000000000000000000000000000000000000000000000000000000e1e78c064e",
          "blockHash": "0xdf9a095ea81270dd91215bc8a4db647904f6ff6a0ce98ff0e9a8b99a5e9609ce",
          "blockNumber": "0x93ae5d",
          "transactionHash": "0xc6d1cbc95726758303aaf408bc4611f9857ca63d1a0da88bfb48a36400b53209",
          "transactionIndex": "0x5",
          "logIndex": "0x2",
          "removed": false
        },
        {
          "address": "0x1a44076050125825900e736c501f859c50fe728c",
          "topics": [
            "0x1ab700d4ced0c005b164c0f789fd09fcbb0156d4c2041b8a3bfbcd961cd1567f"
          ],
          "data": "0x000000000000000000000000000000000000000000000000000000000000006000000000000000000000000000000000000000000000000000000000000001200000000000000000000000002367325334447c5e1e0f1b3a6fb947b262f583120000000000000000000000000000000000000000000000000000000000000099010000000000000001000076340000000000000000000000005bff88ca1442c2496f7e475e9e7786383bc070c0000075e8000000000000000000000000e4796ccb6bb5de2290c417ac337f2b66ca2e770e5e07849670382fd2e2b184238c45dcdff8da9db91f2277d9234d734849ac61b6000000000000000000000000b0e1650a9760e0f383174af042091fc544b8356f000000000000000100000000000000000000000000000000000000000000000000000000000000000000000000001600030100110100000000000000000000000000030d4000000000000000000000",
          "blockHash": "0xdf9a095ea81270dd91215bc8a4db647904f6ff6a0ce98ff0e9a8b99a5e9609ce",
          "blockNumber": "0x93ae5d",
          "transactionHash": "0xc6d1cbc95726758303aaf408bc4611f9857ca63d1a0da88bfb48a36400b53209",
          "transactionIndex": "0x5",
          "logIndex": "0x3",
          "removed": false
        },
        {
          "address": "0x5bff88ca1442c2496f7e475e9e7786383bc070c0",
          "topics": [
            "0x85496b760a4b7f8d66384b9df21b381f5d1b1e79f229a47aaf4c232edc2fe59a",
            "0x5e07849670382fd2e2b184238c45dcdff8da9db91f2277d9234d734849ac61b6",
            "0x000000000000000000000000b0e1650a9760e0f383174af042091fc544b8356f"
          ],
          "data": "0x00000000000000000000000000000000000000000000000000000000000075e8000000000000000000000000000000000000000000000000000000e8d4a51000000000000000000000000000000000000000000000000000000000e8d4a51000",
          "blockHash": "0xdf9a095ea81270dd91215bc8a4db647904f6ff6a0ce98ff0e9a8b99a5e9609ce",
          "blockNumber": "0x93ae5d",
          "transactionHash": "0xc6d1cbc95726758303aaf408bc4611f9857ca63d1a0da88bfb48a36400b53209",
          "transactionIndex": "0x5",
          "logIndex": "0x4",
          "removed": false
        }
      ],
      "logsBloom": "0x04000000000000000000000000000000000000000000000000000000001000000000100000000000000000000000000000000000000000000000000000000000000002000000000000000008000000000000000000000000000000000000000000000000020008008000000000000800000000000110080000010010000000000000000000000000000000080000000000000000200000000000000000000000000000008000000000100000000000000000000000400000000440000010000000000082000000000000000080000000000000800000000000000000000020000000040080000000000000000000002000000000018000000000000000000800",
      "type": "0x2",
      "transactionHash": "0xc6d1cbc95726758303aaf408bc4611f9857ca63d1a0da88bfb48a36400b53209",
      "transactionIndex": "0x5",
      "blockHash": "0xdf9a095ea81270dd91215bc8a4db647904f6ff6a0ce98ff0e9a8b99a5e9609ce",
      "blockNumber": "0x93ae5d",
      "gasUsed": "0x45ca4",
      "effectiveGasPrice": "0x37a",
      "from": "0xb0e1650a9760e0f383174af042091fc544b8356f",
      "to": "0x5bff88ca1442c2496f7e475e9e7786383bc070c0",
      "contractAddress": null,
      "l1BaseFeeScalar": "0x4e20",
      "l1BlobBaseFee": "0x1",
      "l1BlobBaseFeeScalar": "0x95506",
      "l1Fee": "0x6ed860f5fe",
      "l1GasPrice": "0x135c929ce",
      "l1GasUsed": "0x11e4"
    },
    {
      "status": "0x1",
      "cumulativeGasUsed": "0x58464",
      "logs": [
        {
          "address": "0x3ec3849c33291a9ef4c5db86de593eb4a37fde45",
          "topics": [
            "0xddf252ad1be2c89b69c2b068fc378daa952ba7f163c4a11628f55a4df523b3ef",
            "0x000000000000000000000000b0e1650a9760e0f383174af042091fc544b8356f",
            "0x0000000000000000000000000000000000000000000000000000000000000000"
          ],
          "data": "0x000000000000000000000000000000000000000000000000000000e8d4a51000",
          "blockHash": "0x3789c80df2cfd893887f577e00af2753a4618c8c1b8aca1c3218fd24f09b5354",
          "blockNumber": "0x93ae61",
          "transactionHash": "0xe0620682be992cfe38a2537fe8fe40f4314dc400b824e635de637a981df35864",
          "transactionIndex": "0x2",
          "logIndex": "0x0",
          "removed": false
        },
        {
          "address": "0x2367325334447c5e1e0f1b3a6fb947b262f58312",
          "topics": [
            "0x61ed099e74a97a1d7f8bb0952a88ca8b7b8ebd00c126ea04671f92a81213318a"
          ],
          "data": "0x0000000000000000000000004208d6e27538189bb48e603d6123a94b8abe0a0b000000000000000000000000000000000000000000000000000009d9ec3c3cf0",
          "blockHash": "0x3789c80df2cfd893887f577e00af2753a4618c8c1b8aca1c3218fd24f09b5354",
          "blockNumber": "0x93ae61",
          "transactionHash": "0xe0620682be992cfe38a2537fe8fe40f4314dc400b824e635de637a981df35864",
          "transactionIndex": "0x2",
          "logIndex": "0x1",
          "removed": false
        },
        {
          "address": "0x2367325334447c5e1e0f1b3a6fb947b262f58312",
          "topics": [
            "0x07ea52d82345d6e838192107d8fd7123d9c2ec8e916cd0aad13fd2b60db24644"
          ],
          "data": "0x000000000000000000000000000000000000000000000000000000000000006000000000000000000000000000000000000000000000000000000000000000c000000000000000000000000000000000000000000000000000000000000000e00000000000000000000000000000000000000000000000000000000000000002000000000000000000000000acde1f22eeab249d3ca6ba8805c8fee9f52a16e7000000000000000000000000ce8358bc28dd8296ce8caf1cd2b44787abd6588700000000000000000000000000000000000000000000000000000000000000000000000000000000000000000000000000000000000000000000000000000002000000000000000000000000000000000000000000000000000000e1e78c064e000000000000000000000000000000000000000000000000000000e1e78c064e",
          "blockHash": "0x3789c80df2cfd893887f577e00af2753a4618c8c1b8aca1c3218fd24f09b5354",
          "blockNumber": "0x93ae61",
          "transactionHash": "0xe0620682be992cfe38a2537fe8fe40f4314dc400b824e635de637a981df35864",
          "transactionIndex": "0x2",
          "logIndex": "0x2",
          "removed": false
        },
        {
          "address": "0x1a44076050125825900e736c501f859c50fe728c",
          "topics": [
            "0x1ab700d4ced0c005b164c0f789fd09fcbb0156d4c2041b8a3bfbcd961cd1567f"
          ],
          "data": "0x000000000000000000000000000000000000000000000000000000000000006000000000000000000000000000000000000000000000000000000000000001200000000000000000000000002367325334447c5e1e0f1b3a6fb947b262f583120000000000000000000000000000000000000000000000000000000000000099010000000000000001000076340000000000000000000000003ec3849c33291a9ef4c5db86de593eb4a37fde45000075e80000000000000000000000001f55a02a049033e3419a8e2975cf3f572f4e6e9a1626afc2986fc7f79d69914079eb43e293437a5dd4de853645b9c9d77c9eeaf2000000000000000000000000b0e1650a9760e0f383174af042091fc544b8356f000000000000000100000000000000000000000000000000000000000000000000000000000000000000000000001600030100110100000000000000000000000000030d4000000000000000000000",
          "blockHash": "0x3789c80df2cfd893887f577e00af2753a4618c8c1b8aca1c3218fd24f09b5354",
          "blockNumber": "0x93ae61",
          "transactionHash": "0xe0620682be992cfe38a2537fe8fe40f4314dc400b824e635de637a981df35864",
          "transactionIndex": "0x2",
          "logIndex": "0x3",
          "removed": false
        },
        {
          "address": "0x3ec3849c33291a9ef4c5db86de593eb4a37fde45",
          "topics": [
            "0x85496b760a4b7f8d66384b9df21b381f5d1b1e79f229a47aaf4c232edc2fe59a",
            "0x1626afc2986fc7f79d69914079eb43e293437a5dd4de853645b9c9d77c9eeaf2",
            "0x000000000000000000000000b0e1650a9760e0f383174af042091fc544b8356f"
          ],
          "data": "0x00000000000000000000000000000000000000000000000000000000000075e8000000000000000000000000000000000000000000000000000000e8d4a51000000000000000000000000000000000000000000000000000000000e8d4a51000",
          "blockHash": "0x3789c80df2cfd893887f577e00af2753a4618c8c1b8aca1c3218fd24f09b5354",
          "blockNumber": "0x93ae61",
          "transactionHash": "0xe0620682be992cfe38a2537fe8fe40f4314dc400b824e635de637a981df35864",
          "transactionIndex": "0x2",
          "logIndex": "0x4",
          "removed": false
        }
      ],
      "logsBloom": "0x00000000000000000000000000002000000000000000000000000000001000000000000000000000000000000000000000000000000000000000000000000000000002000100000000000008000000000000000000000000000000020000000000000000020000008000000000000800000000000110080000010010000000000000000000000000000000080000000000000000200020000060000000000000000000008000000000100000000000000000000000400000000440000000000000000082000000000000000080000000000000000000000000000000000020000000040080000000000000000000002000000000018000000000000000000000",
      "type": "0x2",
      "transactionHash": "0xe0620682be992cfe38a2537fe8fe40f4314dc400b824e635de637a981df35864",
      "transactionIndex": "0x2",
      "blockHash": "0x3789c80df2cfd893887f577e00af2753a4618c8c1b8aca1c3218fd24f09b5354",
      "blockNumber": "0x93ae61",
      "gasUsed": "0x45ca4",
      "effectiveGasPrice": "0x378",
      "from": "0xb0e1650a9760e0f383174af042091fc544b8356f",
      "to": "0x3ec3849c33291a9ef4c5db86de593eb4a37fde45",
      "contractAddress": null,
      "l1BaseFeeScalar": "0x4e20",
      "l1BlobBaseFee": "0x1",
      "l1BlobBaseFeeScalar": "0x95506",
      "l1Fee": "0x74f7018431",
      "l1GasPrice": "0x14608d329",
      "l1GasUsed": "0x11f0"
    },
    {
      "status": "0x1",
      "cumulativeGasUsed": "0xb48cb3",
      "logs": [
        {
          "address": "0x80eede496655fb9047dd39d9f418d5483ed600df",
          "topics": [
            "0xddf252ad1be2c89b69c2b068fc378daa952ba7f163c4a11628f55a4df523b3ef",
            "0x000000000000000000000000b0e1650a9760e0f383174af042091fc544b8356f",
            "0x0000000000000000000000000000000000000000000000000000000000000000"
          ],
          "data": "0x000000000000000000000000000000000000000000000000000000e8d4a51000",
          "blockHash": "0x854231b37087a614360a5e570c1fee082268c142431a4da5b836c7395018a39b",
          "blockNumber": "0x93ae64",
          "transactionHash": "0x29d360e7d25227589abce35d8f9cf81672a5cde5147720dca0fbbc80860084da",
          "transactionIndex": "0x2",
          "logIndex": "0x19f",
          "removed": false
        },
        {
          "address": "0x2367325334447c5e1e0f1b3a6fb947b262f58312",
          "topics": [
            "0x61ed099e74a97a1d7f8bb0952a88ca8b7b8ebd00c126ea04671f92a81213318a"
          ],
          "data": "0x0000000000000000000000004208d6e27538189bb48e603d6123a94b8abe0a0b000000000000000000000000000000000000000000000000000009d9ec3c3cf0",
          "blockHash": "0x854231b37087a614360a5e570c1fee082268c142431a4da5b836c7395018a39b",
          "blockNumber": "0x93ae64",
          "transactionHash": "0x29d360e7d25227589abce35d8f9cf81672a5cde5147720dca0fbbc80860084da",
          "transactionIndex": "0x2",
          "logIndex": "0x1a0",
          "removed": false
        },
        {
          "address": "0x2367325334447c5e1e0f1b3a6fb947b262f58312",
          "topics": [
            "0x07ea52d82345d6e838192107d8fd7123d9c2ec8e916cd0aad13fd2b60db24644"
          ],
          "data": "0x000000000000000000000000000000000000000000000000000000000000006000000000000000000000000000000000000000000000000000000000000000c000000000000000000000000000000000000000000000000000000000000000e00000000000000000000000000000000000000000000000000000000000000002000000000000000000000000acde1f22eeab249d3ca6ba8805c8fee9f52a16e7000000000000000000000000ce8358bc28dd8296ce8caf1cd2b44787abd6588700000000000000000000000000000000000000000000000000000000000000000000000000000000000000000000000000000000000000000000000000000002000000000000000000000000000000000000000000000000000000e1e78c064e000000000000000000000000000000000000000000000000000000e1e78c064e",
          "blockHash": "0x854231b37087a614360a5e570c1fee082268c142431a4da5b836c7395018a39b",
          "blockNumber": "0x93ae64",
          "transactionHash": "0x29d360e7d25227589abce35d8f9cf81672a5cde5147720dca0fbbc80860084da",
          "transactionIndex": "0x2",
          "logIndex": "0x1a1",
          "removed": false
        },
        {
          "address": "0x1a44076050125825900e736c501f859c50fe728c",
          "topics": [
            "0x1ab700d4ced0c005b164c0f789fd09fcbb0156d4c2041b8a3bfbcd961cd1567f"
          ],
          "data": "0x000000000000000000000000000000000000000000000000000000000000006000000000000000000000000000000000000000000000000000000000000001200000000000000000000000002367325334447c5e1e0f1b3a6fb947b262f5831200000000000000000000000000000000000000000000000000000000000000990100000000000000010000763400000000000000000000000080eede496655fb9047dd39d9f418d5483ed600df000075e8000000000000000000000000909dbde1ebe906af95660033e478d59efe831fedafb57389f7cea8c5ce8033ed72bf36a5f81c6abfdff3d092224b759a68305005000000000000000000000000b0e1650a9760e0f383174af042091fc544b8356f000000000000000100000000000000000000000000000000000000000000000000000000000000000000000000001600030100110100000000000000000000000000030d4000000000000000000000",
          "blockHash": "0x854231b37087a614360a5e570c1fee082268c142431a4da5b836c7395018a39b",
          "blockNumber": "0x93ae64",
          "transactionHash": "0x29d360e7d25227589abce35d8f9cf81672a5cde5147720dca0fbbc80860084da",
          "transactionIndex": "0x2",
          "logIndex": "0x1a2",
          "removed": false
        },
        {
          "address": "0x80eede496655fb9047dd39d9f418d5483ed600df",
          "topics": [
            "0x85496b760a4b7f8d66384b9df21b381f5d1b1e79f229a47aaf4c232edc2fe59a",
            "0xafb57389f7cea8c5ce8033ed72bf36a5f81c6abfdff3d092224b759a68305005",
            "0x000000000000000000000000b0e1650a9760e0f383174af042091fc544b8356f"
          ],
          "data": "0x00000000000000000000000000000000000000000000000000000000000075e8000000000000000000000000000000000000000000000000000000e8d4a51000000000000000000000000000000000000000000000000000000000e8d4a51000",
          "blockHash": "0x854231b37087a614360a5e570c1fee082268c142431a4da5b836c7395018a39b",
          "blockNumber": "0x93ae64",
          "transactionHash": "0x29d360e7d25227589abce35d8f9cf81672a5cde5147720dca0fbbc80860084da",
          "transactionIndex": "0x2",
          "logIndex": "0x1a3",
          "removed": false
        }
      ],
      "logsBloom": "0x00000000000000002000000000000000000000000000000000000000001000000000000002000000000000000800000000000000000000000000000200000000000002000000000000000008000000000000000000000000000000000000000000000000020000008000000000000800000000000110080000010010010000000000000000000000000000080000000000000000200000000000000000000000000000008000000000100000000000000000000000400000000440000000000000000082000000000000000084000000000000000000000000000000000020000000040080000000000000000000002000000000018000000000000000000000",
      "type": "0x2",
      "transactionHash": "0x29d360e7d25227589abce35d8f9cf81672a5cde5147720dca0fbbc80860084da",
      "transactionIndex": "0x2",
      "blockHash": "0x854231b37087a614360a5e570c1fee082268c142431a4da5b836c7395018a39b",
      "blockNumber": "0x93ae64",
      "gasUsed": "0x45ca4",
      "effectiveGasPrice": "0x372",
      "from": "0xb0e1650a9760e0f383174af042091fc544b8356f",
      "to": "0x80eede496655fb9047dd39d9f418d5483ed600df",
      "contractAddress": null,
      "l1BaseFeeScalar": "0x4e20",
      "l1BlobBaseFee": "0x2",
      "l1BlobBaseFeeScalar": "0x95506",
      "l1Fee": "0x6e530b6985",
      "l1GasPrice": "0x1345486ba",
      "l1GasUsed": "0x11e4"
    }
  ],
  "libraries": [],
  "pending": [],
  "returns": {},
  "timestamp": 1719524454,
  "chain": 34443,
  "commit": "8c3a4d2"
}