{
  "transactions": [
    {
      "hash": "0x46db48969e3a791eb52026109580b466deb4f3a91ffe5e637009f8a0946583c1",
      "transactionType": "CALL",
      "contractName": null,
      "contractAddress": "0x5bff88ca1442c2496f7e475e9e7786383bc070c0",
      "function": "send((uint32,bytes32,uint256,uint256,bytes,bytes,bytes),(uint256,uint256),address)",
      "arguments": [
        "(30274, 0x000000000000000000000000b0e1650a9760e0f383174af042091fc544b8356f, 100000000000000, 100000000000000, 0x0003, 0x, 0x)",
        "(67716436328702, 0)",
        "0xb0E1650A9760e0f383174af042091fc544b8356f"
      ],
      "transaction": {
        "from": "0xb0e1650a9760e0f383174af042091fc544b8356f",
        "to": "0x5bff88ca1442c2496f7e475e9e7786383bc070c0",
        "gas": "0x612b5",
        "value": "0x3d96762200fe",
        "input": "0xc7c7f5b3000000000000000000000000000000000000000000000000000000000000008000000000000000000000000000000000000000000000000000003d96762200fe0000000000000000000000000000000000000000000000000000000000000000000000000000000000000000b0e1650a9760e0f383174af042091fc544b8356f0000000000000000000000000000000000000000000000000000000000007642000000000000000000000000b0e1650a9760e0f383174af042091fc544b8356f00000000000000000000000000000000000000000000000000005af3107a400000000000000000000000000000000000000000000000000000005af3107a400000000000000000000000000000000000000000000000000000000000000000e0000000000000000000000000000000000000000000000000000000000000012000000000000000000000000000000000000000000000000000000000000001400000000000000000000000000000000000000000000000000000000000000002000300000000000000000000000000000000000000000000000000000000000000000000000000000000000000000000000000000000000000000000000000000000000000000000000000000000000000000000000000000000000000000000",
        "nonce": "0x3d",
        "chainId": "0x868b"
      },
      "additionalContracts": [],
      "isFixedGasLimit": false
    },
    {
      "hash": "0xfa9523df8b1e0b368bd015eae60775fe152de161de6ae7a09ec2aa82d56c02b7",
      "transactionType": "CALL",
      "contractName": null,
      "contractAddress": "0x80eede496655fb9047dd39d9f418d5483ed600df",
      "function": "send((uint32,bytes32,uint256,uint256,bytes,bytes,bytes),(uint256,uint256),address)",
      "arguments": [
        "(30274, 0x000000000000000000000000b0e1650a9760e0f383174af042091fc544b8356f, 100000000000000, 100000000000000, 0x0003, 0x, 0x)",
        "(67716436328702, 0)",
        "0xb0E1650A9760e0f383174af042091fc544b8356f"
      ],
      "transaction": {
        "from": "0xb0e1650a9760e0f383174af042091fc544b8356f",
        "to": "0x80eede496655fb9047dd39d9f418d5483ed600df",
        "gas": "0x612b5",
        "value": "0x3d96762200fe",
        "input": "0xc7c7f5b3000000000000000000000000000000000000000000000000000000000000008000000000000000000000000000000000000000000000000000003d96762200fe0000000000000000000000000000000000000000000000000000000000000000000000000000000000000000b0e1650a9760e0f383174af042091fc544b8356f0000000000000000000000000000000000000000000000000000000000007642000000000000000000000000b0e1650a9760e0f383174af042091fc544b8356f00000000000000000000000000000000000000000000000000005af3107a400000000000000000000000000000000000000000000000000000005af3107a400000000000000000000000000000000000000000000000000000000000000000e0000000000000000000000000000000000000000000000000000000000000012000000000000000000000000000000000000000000000000000000000000001400000000000000000000000000000000000000000000000000000000000000002000300000000000000000000000000000000000000000000000000000000000000000000000000000000000000000000000000000000000000000000000000000000000000000000000000000000000000000000000000000000000000000000",
        "nonce": "0x3e",
        "chainId": "0x868b"
      },
      "additionalContracts": [],
      "isFixedGasLimit": false
    }
  ],
  "receipts": [
    {
      "status": "0x1",
      "cumulativeGasUsed": "0x582ab",
      "logs": [
        {
          "address": "0x5bff88ca1442c2496f7e475e9e7786383bc070c0",
          "topics": [
            "0xddf252ad1be2c89b69c2b068fc378daa952ba7f163c4a11628f55a4df523b3ef",
            "0x000000000000000000000000b0e1650a9760e0f383174af042091fc544b8356f",
            "0x0000000000000000000000000000000000000000000000000000000000000000"
          ],
          "data": "0x00000000000000000000000000000000000000000000000000005af3107a4000",
          "blockHash": "0x87b22cef9ebe65aa47e64f22a826716ceed42550b6084f8279e2eb362a5527d5",
          "blockNumber": "0xf2a90e",
          "transactionHash": "0x46db48969e3a791eb52026109580b466deb4f3a91ffe5e637009f8a0946583c1",
          "transactionIndex": "0x2",
          "logIndex": "0x1",
          "removed": false
        },
        {
          "address": "0x2367325334447c5e1e0f1b3a6fb947b262f58312",
          "topics": [
            "0x61ed099e74a97a1d7f8bb0952a88ca8b7b8ebd00c126ea04671f92a81213318a"
          ],
          "data": "0x0000000000000000000000004208d6e27538189bb48e603d6123a94b8abe0a0b00000000000000000000000000000000000000000000000000002690e035a566",
          "blockHash": "0x87b22cef9ebe65aa47e64f22a826716ceed42550b6084f8279e2eb362a5527d5",
          "blockNumber": "0xf2a90e",
          "transactionHash": "0x46db48969e3a791eb52026109580b466deb4f3a91ffe5e637009f8a0946583c1",
          "transactionIndex": "0x2",
          "logIndex": "0x2",
          "removed": false
        },
        {
          "address": "0x2367325334447c5e1e0f1b3a6fb947b262f58312",
          "topics": [
            "0x07ea52d82345d6e838192107d8fd7123d9c2ec8e916cd0aad13fd2b60db24644"
          ],
          "data": "0x000000000000000000000000000000000000000000000000000000000000006000000000000000000000000000000000000000000000000000000000000000c000000000000000000000000000000000000000000000000000000000000000e00000000000000000000000000000000000000000000000000000000000000002000000000000000000000000acde1f22eeab249d3ca6ba8805c8fee9f52a16e7000000000000000000000000ce8358bc28dd8296ce8caf1cd2b44787abd658870000000000000000000000000000000000000000000000000000000000000000000000000000000000000000000000000000000000000000000000000000000200000000000000000000000000000000000000000000000000000b82caf62dcc00000000000000000000000000000000000000000000000000000b82caf62dcc",
          "blockHash": "0x87b22cef9ebe65aa47e64f22a826716ceed42550b6084f8279e2eb362a5527d5",
          "blockNumber": "0xf2a90e",
          "transactionHash": "0x46db48969e3a791eb52026109580b466deb4f3a91ffe5e637009f8a0946583c1",
          "transactionIndex": "0x2",
          "logIndex": "0x3",
          "removed": false
        },
        {
          "address": "0x1a44076050125825900e736c501f859c50fe728c",
          "topics": [
            "0x1ab700d4ced0c005b164c0f789fd09fcbb0156d4c2041b8a3bfbcd961cd1567f"
          ],
          "data": "0x000000000000000000000000000000000000000000000000000000000000006000000000000000000000000000000000000000000000000000000000000001200000000000000000000000002367325334447c5e1e0f1b3a6fb947b262f583120000000000000000000000000000000000000000000000000000000000000099010000000000000001000076340000000000000000000000005bff88ca1442c2496f7e475e9e7786383bc070c0000076420000000000000000000000005bff88ca1442c2496f7e475e9e7786383bc070c0575a7ea3db79a33a77c3bdc95746129062a785fc0ef8664cee72fc13d488ecc1000000000000000000000000b0e1650a9760e0f383174af042091fc544b8356f000000000000006400000000000000000000000000000000000000000000000000000000000000000000000000001600030100110100000000000000000000000000030d4000000000000000000000",
          "blockHash": "0x87b22cef9ebe65aa47e64f22a826716ceed42550b6084f8279e2eb362a5527d5",
          "blockNumber": "0xf2a90e",
          "transactionHash": "0x46db48969e3a791eb52026109580b466deb4f3a91ffe5e637009f8a0946583c1",
          "transactionIndex": "0x2",
          "logIndex": "0x4",
          "removed": false
        },
        {
          "address": "0x5bff88ca1442c2496f7e475e9e7786383bc070c0",
          "topics": [
            "0x85496b760a4b7f8d66384b9df21b381f5d1b1e79f229a47aaf4c232edc2fe59a",
            "0x575a7ea3db79a33a77c3bdc95746129062a785fc0ef8664cee72fc13d488ecc1",
            "0x000000000000000000000000b0e1650a9760e0f383174af042091fc544b8356f"
          ],
          "data": "0x000000000000000000000000000000000000000000000000000000000000764200000000000000000000000000000000000000000000000000005af3107a400000000000000000000000000000000000000000000000000000005af3107a4000",
          "blockHash": "0x87b22cef9ebe65aa47e64f22a826716ceed42550b6084f8279e2eb362a5527d5",
          "blockNumber": "0xf2a90e",
          "transactionHash": "0x46db48969e3a791eb52026109580b466deb4f3a91ffe5e637009f8a0946583c1",
          "transactionIndex": "0x2",
          "logIndex": "0x5",
          "removed": false
        }
      ],
      "logsBloom": "0x00000000000000000000000000000000000000000000000000000000001000000000000000000000000000000000000000000000000000000000000000000000000002000000000000000008000000000000000004000000000000000000000000000000020000008000000001000800000000000110080000010010000000000000000000000000000000080000000000000000200000000000000000000000000000008000000000100000000000000000000000600000000440000010000000000082000000000000000080000000000000800000000000000000000020000000040080000000000000000000002000000000018000000000000000000800",
      "type": "0x2",
      "transactionHash": "0x46db48969e3a791eb52026109580b466deb4f3a91ffe5e637009f8a0946583c1",
      "transactionIndex": "0x2",
      "blockHash": "0x87b22cef9ebe65aa47e64f22a826716ceed42550b6084f8279e2eb362a5527d5",
      "blockNumber": "0xf2a90e",
      "gasUsed": "0x46595",
      "effectiveGasPrice": "0xf432b",
      "from": "0xb0e1650a9760e0f383174af042091fc544b8356f",
      "to": "0x5bff88ca1442c2496f7e475e9e7786383bc070c0",
      "contractAddress": null,
      "l1BaseFeeScalar": "0x4e20",
      "l1BlobBaseFee": "0xa5967",
      "l1BlobBaseFeeScalar": "0x95506",
      "l1Fee": "0x7e5388f41b",
      "l1GasPrice": "0x2a64ee4d2",
      "l1GasUsed": "0x94f"
    },
    {
      "status": "0x1",
      "cumulativeGasUsed": "0x9e840",
      "logs": [
        {
          "address": "0x80eede496655fb9047dd39d9f418d5483ed600df",
          "topics": [
            "0xddf252ad1be2c89b69c2b068fc378daa952ba7f163c4a11628f55a4df523b3ef",
            "0x000000000000000000000000b0e1650a9760e0f383174af042091fc544b8356f",
            "0x0000000000000000000000000000000000000000000000000000000000000000"
          ],
          "data": "0x00000000000000000000000000000000000000000000000000005af3107a4000",
          "blockHash": "0x87b22cef9ebe65aa47e64f22a826716ceed42550b6084f8279e2eb362a5527d5",
          "blockNumber": "0xf2a90e",
          "transactionHash": "0xfa9523df8b1e0b368bd015eae60775fe152de161de6ae7a09ec2aa82d56c02b7",
          "transactionIndex": "0x3",
          "logIndex": "0x6",
          "removed": false
        },
        {
          "address": "0x2367325334447c5e1e0f1b3a6fb947b262f58312",
          "topics": [
            "0x61ed099e74a97a1d7f8bb0952a88ca8b7b8ebd00c126ea04671f92a81213318a"
          ],
          "data": "0x0000000000000000000000004208d6e27538189bb48e603d6123a94b8abe0a0b00000000000000000000000000000000000000000000000000002690e035a566",
          "blockHash": "0x87b22cef9ebe65aa47e64f22a826716ceed42550b6084f8279e2eb362a5527d5",
          "blockNumber": "0xf2a90e",
          "transactionHash": "0xfa9523df8b1e0b368bd015eae60775fe152de161de6ae7a09ec2aa82d56c02b7",
          "transactionIndex": "0x3",
          "logIndex": "0x7",
          "removed": false
        },
        {
          "address": "0x2367325334447c5e1e0f1b3a6fb947b262f58312",
          "topics": [
            "0x07ea52d82345d6e838192107d8fd7123d9c2ec8e916cd0aad13fd2b60db24644"
          ],
          "data": "0x000000000000000000000000000000000000000000000000000000000000006000000000000000000000000000000000000000000000000000000000000000c000000000000000000000000000000000000000000000000000000000000000e00000000000000000000000000000000000000000000000000000000000000002000000000000000000000000acde1f22eeab249d3ca6ba8805c8fee9f52a16e7000000000000000000000000ce8358bc28dd8296ce8caf1cd2b44787abd658870000000000000000000000000000000000000000000000000000000000000000000000000000000000000000000000000000000000000000000000000000000200000000000000000000000000000000000000000000000000000b82caf62dcc00000000000000000000000000000000000000000000000000000b82caf62dcc",
          "blockHash": "0x87b22cef9ebe65aa47e64f22a826716ceed42550b6084f8279e2eb362a5527d5",
          "blockNumber": "0xf2a90e",
          "transactionHash": "0xfa9523df8b1e0b368bd015eae60775fe152de161de6ae7a09ec2aa82d56c02b7",
          "transactionIndex": "0x3",
          "logIndex": "0x8",
          "removed": false
        },
        {
          "address": "0x1a44076050125825900e736c501f859c50fe728c",
          "topics": [
            "0x1ab700d4ced0c005b164c0f789fd09fcbb0156d4c2041b8a3bfbcd961cd1567f"
          ],
          "data": "0x000000000000000000000000000000000000000000000000000000000000006000000000000000000000000000000000000000000000000000000000000001200000000000000000000000002367325334447c5e1e0f1b3a6fb947b262f5831200000000000000000000000000000000000000000000000000000000000000990100000000000000010000763400000000000000000000000080eede496655fb9047dd39d9f418d5483ed600df0000764200000000000000000000000080eede496655fb9047dd39d9f418d5483ed600dfd8eb01dc3341405156fcd6375cfb0a7acd4ad7733d08517248f557d9a9c31c29000000000000000000000000b0e1650a9760e0f383174af042091fc544b8356f000000000000006400000000000000000000000000000000000000000000000000000000000000000000000000001600030100110100000000000000000000000000030d4000000000000000000000",
          "blockHash": "0x87b22cef9ebe65aa47e64f22a826716ceed42550b6084f8279e2eb362a5527d5",
          "blockNumber": "0xf2a90e",
          "transactionHash": "0xfa9523df8b1e0b368bd015eae60775fe152de161de6ae7a09ec2aa82d56c02b7",
          "transactionIndex": "0x3",
          "logIndex": "0x9",
          "removed": false
        },
        {
          "address": "0x80eede496655fb9047dd39d9f418d5483ed600df",
          "topics": [
            "0x85496b760a4b7f8d66384b9df21b381f5d1b1e79f229a47aaf4c232edc2fe59a",
            "0xd8eb01dc3341405156fcd6375cfb0a7acd4ad7733d08517248f557d9a9c31c29",
            "0x000000000000000000000000b0e1650a9760e0f383174af042091fc544b8356f"
          ],
          "data": "0x000000000000000000000000000000000000000000000000000000000000764200000000000000000000000000000000000000000000000000005af3107a400000000000000000000000000000000000000000000000000000005af3107a4000",
          "blockHash": "0x87b22cef9ebe65aa47e64f22a826716ceed42550b6084f8279e2eb362a5527d5",
          "blockNumber": "0xf2a90e",
          "transactionHash": "0xfa9523df8b1e0b368bd015eae60775fe152de161de6ae7a09ec2aa82d56c02b7",
          "transactionIndex": "0x3",
          "logIndex": "0xa",
          "removed": false
        }
      ],
      "logsBloom": "0x00000000000000000000000000000000000001000000000000000000001000000000000000000000000000000802000000000000000000000000000200000000000002000000000000000008000000000000000000000000000000000000001000000000020000008000000000000800000000000110080000010010010000000000000000000000000000080000000000000000200000000000000000000000000000008000000000100000000000000000000000400000000440000000000000000082000000000000000080000000000000000000000000000000000020000000040080000000000000000000002000000000018000000000000000000000",
      "type": "0x2",
      "transactionHash": "0xfa9523df8b1e0b368bd015eae60775fe152de161de6ae7a09ec2aa82d56c02b7",
      "transactionIndex": "0x3",
      "blockHash": "0x87b22cef9ebe65aa47e64f22a826716ceed42550b6084f8279e2eb362a5527d5",
      "blockNumber": "0xf2a90e",
      "gasUsed": "0x46595",
      "effectiveGasPrice": "0xf432b",
      "from": "0xb0e1650a9760e0f383174af042091fc544b8356f",
      "to": "0x80eede496655fb9047dd39d9f418d5483ed600df",
      "contractAddress": null,
      "l1BaseFeeScalar": "0x4e20",
      "l1BlobBaseFee": "0xa5967",
      "l1BlobBaseFeeScalar": "0x95506",
      "l1Fee": "0x7e5388f41b",
      "l1GasPrice": "0x2a64ee4d2",
      "l1GasUsed": "0x94f"
    }
  ],
  "libraries": [],
  "pending": [],
  "returns": {},
  "timestamp": 1731973541,
  "chain": 34443,
  "commit": "89c05d5"
}