{
  "transactions": [
    {
      "hash": "0xb502d18ba1be52c2fbe5db9a0db4952cfffda05d4fbd126586cfb5ee85ec8cb6",
      "transactionType": "CALL",
      "contractName": null,
      "contractAddress": "0x43edd7f3831b08fe70b7555ddd373c8bf65a9050",
      "function": "approve(address,uint256)",
      "arguments": [
        "0x43eDD7f3831b08FE70B7555ddD373C8bF65a9050",
        "100000000000000"
      ],
      "transaction": {
        "from": "0xb0e1650a9760e0f383174af042091fc544b8356f",
        "to": "0x43edd7f3831b08fe70b7555ddd373c8bf65a9050",
        "gas": "0x13266",
        "value": "0x0",
        "input": "0x095ea7b300000000000000000000000043edd7f3831b08fe70b7555ddd373c8bf65a905000000000000000000000000000000000000000000000000000005af3107a4000",
        "nonce": "0x27",
        "chainId": "0x868b"
      },
      "additionalContracts": [],
      "isFixedGasLimit": false
    },
    {
      "hash": "0xd2219051f2d49e7dae64a69f40175d5ab2b0f71a9c028490a538c0736757d584",
      "transactionType": "CALL",
      "contractName": null,
      "contractAddress": "0x43edd7f3831b08fe70b7555ddd373c8bf65a9050",
      "function": "send((uint32,bytes32,uint256,uint256,bytes,bytes,bytes),(uint256,uint256),address)",
      "arguments": [
        "(30243, 0x000000000000000000000000b0e1650a9760e0f383174af042091fc544b8356f, 100000000000000, 100000000000000, 0x0003, 0x, 0x)",
        "(296255882682515, 0)",
        "0xb0E1650A9760e0f383174af042091fc544b8356f"
      ],
      "transaction": {
        "from": "0xb0e1650a9760e0f383174af042091fc544b8356f",
        "to": "0x43edd7f3831b08fe70b7555ddd373c8bf65a9050",
        "gas": "0x62a98",
        "value": "0x10d7172a66093",
        "input": "0xc7c7f5b3000000000000000000000000000000000000000000000000000000000000008000000000000000000000000000000000000000000000000000010d7172a660930000000000000000000000000000000000000000000000000000000000000000000000000000000000000000b0e1650a9760e0f383174af042091fc544b8356f0000000000000000000000000000000000000000000000000000000000007623000000000000000000000000b0e1650a9760e0f383174af042091fc544b8356f00000000000000000000000000000000000000000000000000005af3107a400000000000000000000000000000000000000000000000000000005af3107a400000000000000000000000000000000000000000000000000000000000000000e0000000000000000000000000000000000000000000000000000000000000012000000000000000000000000000000000000000000000000000000000000001400000000000000000000000000000000000000000000000000000000000000002000300000000000000000000000000000000000000000000000000000000000000000000000000000000000000000000000000000000000000000000000000000000000000000000000000000000000000000000000000000000000000000000",
        "nonce": "0x28",
        "chainId": "0x868b"
      },
      "additionalContracts": [],
      "isFixedGasLimit": false
    },
    {
      "hash": "0xde84815ccd2701d6299bc68d037eeeade3ff442a2db9af2776c88c29f9bee145",
      "transactionType": "CALL",
      "contractName": null,
      "contractAddress": "0xeed9de5e41b53d1c8fab8aab4b0e446f828c1483",
      "function": "approve(address,uint256)",
      "arguments": [
        "0xEed9DE5E41b53D1C8fAB8AAB4b0e446F828c1483",
        "100000000000000"
      ],
      "transaction": {
        "from": "0xb0e1650a9760e0f383174af042091fc544b8356f",
        "to": "0xeed9de5e41b53d1c8fab8aab4b0e446f828c1483",
        "gas": "0x13266",
        "value": "0x0",
        "input": "0x095ea7b3000000000000000000000000eed9de5e41b53d1c8fab8aab4b0e446f828c148300000000000000000000000000000000000000000000000000005af3107a4000",
        "nonce": "0x29",
        "chainId": "0x868b"
      },
      "additionalContracts": [],
      "isFixedGasLimit": false
    },
    {
      "hash": "0x904a24a199af9a17c5077f4a18a46f64cf067c2c37b27c842ea346179837a589",
      "transactionType": "CALL",
      "contractName": null,
      "contractAddress": "0xeed9de5e41b53d1c8fab8aab4b0e446f828c1483",
      "function": "send((uint32,bytes32,uint256,uint256,bytes,bytes,bytes),(uint256,uint256),address)",
      "arguments": [
        "(30243, 0x000000000000000000000000b0e1650a9760e0f383174af042091fc544b8356f, 100000000000000, 100000000000000, 0x0003, 0x, 0x)",
        "(296255882682515, 0)",
        "0xb0E1650A9760e0f383174af042091fc544b8356f"
      ],
      "transaction": {
        "from": "0xb0e1650a9760e0f383174af042091fc544b8356f",
        "to": "0xeed9de5e41b53d1c8fab8aab4b0e446f828c1483",
        "gas": "0x62a98",
        "value": "0x10d7172a66093",
        "input": "0xc7c7f5b3000000000000000000000000000000000000000000000000000000000000008000000000000000000000000000000000000000000000000000010d7172a660930000000000000000000000000000000000000000000000000000000000000000000000000000000000000000b0e1650a9760e0f383174af042091fc544b8356f0000000000000000000000000000000000000000000000000000000000007623000000000000000000000000b0e1650a9760e0f383174af042091fc544b8356f00000000000000000000000000000000000000000000000000005af3107a400000000000000000000000000000000000000000000000000000005af3107a400000000000000000000000000000000000000000000000000000000000000000e0000000000000000000000000000000000000000000000000000000000000012000000000000000000000000000000000000000000000000000000000000001400000000000000000000000000000000000000000000000000000000000000002000300000000000000000000000000000000000000000000000000000000000000000000000000000000000000000000000000000000000000000000000000000000000000000000000000000000000000000000000000000000000000000000",
        "nonce": "0x2a",
        "chainId": "0x868b"
      },
      "additionalContracts": [],
      "isFixedGasLimit": false
    },
    {
      "hash": "0x5ccf6d81acfe25aa332a173d0b6c81512f29c45c9946338ad670e3e7bb39dcf1",
      "transactionType": "CALL",
      "contractName": null,
      "contractAddress": "0x43edd7f3831b08fe70b7555ddd373c8bf65a9050",
      "function": "send((uint32,bytes32,uint256,uint256,bytes,bytes,bytes),(uint256,uint256),address)",
      "arguments": [
        "(30151, 0x000000000000000000000000b0e1650a9760e0f383174af042091fc544b8356f, 100000000000000, 100000000000000, 0x0003, 0x, 0x)",
        "(175115161998292, 0)",
        "0xb0E1650A9760e0f383174af042091fc544b8356f"
      ],
      "transaction": {
        "from": "0xb0e1650a9760e0f383174af042091fc544b8356f",
        "to": "0x43edd7f3831b08fe70b7555ddd373c8bf65a9050",
        "gas": "0x6067c",
        "value": "0x9f442d0693d4",
        "input": "0xc7c7f5b3000000000000000000000000000000000000000000000000000000000000008000000000000000000000000000000000000000000000000000009f442d0693d40000000000000000000000000000000000000000000000000000000000000000000000000000000000000000b0e1650a9760e0f383174af042091fc544b8356f00000000000000000000000000000000000000000000000000000000000075c7000000000000000000000000b0e1650a9760e0f383174af042091fc544b8356f00000000000000000000000000000000000000000000000000005af3107a400000000000000000000000000000000000000000000000000000005af3107a400000000000000000000000000000000000000000000000000000000000000000e0000000000000000000000000000000000000000000000000000000000000012000000000000000000000000000000000000000000000000000000000000001400000000000000000000000000000000000000000000000000000000000000002000300000000000000000000000000000000000000000000000000000000000000000000000000000000000000000000000000000000000000000000000000000000000000000000000000000000000000000000000000000000000000000000",
        "nonce": "0x2b",
        "chainId": "0x868b"
      },
      "additionalContracts": [],
      "isFixedGasLimit": false
    },
    {
      "hash": "0x92aa0d053e8b41a576e6e489249403b0f056a7035401ed55906b4247e03206a7",
      "transactionType": "CALL",
      "contractName": null,
      "contractAddress": "0xeed9de5e41b53d1c8fab8aab4b0e446f828c1483",
      "function": "send((uint32,bytes32,uint256,uint256,bytes,bytes,bytes),(uint256,uint256),address)",
      "arguments": [
        "(30151, 0x000000000000000000000000b0e1650a9760e0f383174af042091fc544b8356f, 100000000000000, 100000000000000, 0x0003, 0x, 0x)",
        "(175115161998292, 0)",
        "0xb0E1650A9760e0f383174af042091fc544b8356f"
      ],
      "transaction": {
        "from": "0xb0e1650a9760e0f383174af042091fc544b8356f",
        "to": "0xeed9de5e41b53d1c8fab8aab4b0e446f828c1483",
        "gas": "0x6067c",
        "value": "0x9f442d0693d4",
        "input": "0xc7c7f5b3000000000000000000000000000000000000000000000000000000000000008000000000000000000000000000000000000000000000000000009f442d0693d40000000000000000000000000000000000000000000000000000000000000000000000000000000000000000b0e1650a9760e0f383174af042091fc544b8356f00000000000000000000000000000000000000000000000000000000000075c7000000000000000000000000b0e1650a9760e0f383174af042091fc544b8356f00000000000000000000000000000000000000000000000000005af3107a400000000000000000000000000000000000000000000000000000005af3107a400000000000000000000000000000000000000000000000000000000000000000e0000000000000000000000000000000000000000000000000000000000000012000000000000000000000000000000000000000000000000000000000000001400000000000000000000000000000000000000000000000000000000000000002000300000000000000000000000000000000000000000000000000000000000000000000000000000000000000000000000000000000000000000000000000000000000000000000000000000000000000000000000000000000000000000000",
        "nonce": "0x2c",
        "chainId": "0x868b"
      },
      "additionalContracts": [],
      "isFixedGasLimit": false
    },
    {
      "hash": "0xdb582a19aa244da994bfc36b338147459fc48e1f48d7fad9933959afa27e9837",
      "transactionType": "CALL",
      "contractName": null,
      "contractAddress": "0x43edd7f3831b08fe70b7555ddd373c8bf65a9050",
      "function": "send((uint32,bytes32,uint256,uint256,bytes,bytes,bytes),(uint256,uint256),address)",
      "arguments": [
        "(30184, 0x000000000000000000000000b0e1650a9760e0f383174af042091fc544b8356f, 100000000000000, 100000000000000, 0x0003, 0x, 0x)",
        "(12775990413094, 0)",
        "0xb0E1650A9760e0f383174af042091fc544b8356f"
      ],
      "transaction": {
        "from": "0xb0e1650a9760e0f383174af042091fc544b8356f",
        "to": "0x43edd7f3831b08fe70b7555ddd373c8bf65a9050",
        "gas": "0x6067c",
        "value": "0xb9ea45ec726",
        "input": "0xc7c7f5b3000000000000000000000000000000000000000000000000000000000000008000000000000000000000000000000000000000000000000000000b9ea45ec7260000000000000000000000000000000000000000000000000000000000000000000000000000000000000000b0e1650a9760e0f383174af042091fc544b8356f00000000000000000000000000000000000000000000000000000000000075e8000000000000000000000000b0e1650a9760e0f383174af042091fc544b8356f00000000000000000000000000000000000000000000000000005af3107a400000000000000000000000000000000000000000000000000000005af3107a400000000000000000000000000000000000000000000000000000000000000000e0000000000000000000000000000000000000000000000000000000000000012000000000000000000000000000000000000000000000000000000000000001400000000000000000000000000000000000000000000000000000000000000002000300000000000000000000000000000000000000000000000000000000000000000000000000000000000000000000000000000000000000000000000000000000000000000000000000000000000000000000000000000000000000000000",
        "nonce": "0x2d",
        "chainId": "0x868b"
      },
      "additionalContracts": [],
      "isFixedGasLimit": false
    },
    {
      "hash": "0x3d8349777b92c795c1648f01f253894d8f69bbcdab0a526fd9542f76d456a4ea",
      "transactionType": "CALL",
      "contractName": null,
      "contractAddress": "0xeed9de5e41b53d1c8fab8aab4b0e446f828c1483",
      "function": "send((uint32,bytes32,uint256,uint256,bytes,bytes,bytes),(uint256,uint256),address)",
      "arguments": [
        "(30184, 0x000000000000000000000000b0e1650a9760e0f383174af042091fc544b8356f, 100000000000000, 100000000000000, 0x0003, 0x, 0x)",
        "(12775990413094, 0)",
        "0xb0E1650A9760e0f383174af042091fc544b8356f"
      ],
      "transaction": {
        "from": "0xb0e1650a9760e0f383174af042091fc544b8356f",
        "to": "0xeed9de5e41b53d1c8fab8aab4b0e446f828c1483",
        "gas": "0x6067c",
        "value": "0xb9ea45ec726",
        "input": "0xc7c7f5b3000000000000000000000000000000000000000000000000000000000000008000000000000000000000000000000000000000000000000000000b9ea45ec7260000000000000000000000000000000000000000000000000000000000000000000000000000000000000000b0e1650a9760e0f383174af042091fc544b8356f00000000000000000000000000000000000000000000000000000000000075e8000000000000000000000000b0e1650a9760e0f383174af042091fc544b8356f00000000000000000000000000000000000000000000000000005af3107a400000000000000000000000000000000000000000000000000000005af3107a400000000000000000000000000000000000000000000000000000000000000000e0000000000000000000000000000000000000000000000000000000000000012000000000000000000000000000000000000000000000000000000000000001400000000000000000000000000000000000000000000000000000000000000002000300000000000000000000000000000000000000000000000000000000000000000000000000000000000000000000000000000000000000000000000000000000000000000000000000000000000000000000000000000000000000000000",
        "nonce": "0x2e",
        "chainId": "0x868b"
      },
      "additionalContracts": [],
      "isFixedGasLimit": false
    }
  ],
  "receipts": [
    {
      "status": "0x1",
      "cumulativeGasUsed": "0x5407c0",
      "logs": [
        {
          "address": "0x43edd7f3831b08fe70b7555ddd373c8bf65a9050",
          "topics": [
            "0x8c5be1e5ebec7d5bd14f71427d1e84f3dd0314c0f7b2291e5b200ac8c7c3b925",
            "0x000000000000000000000000b0e1650a9760e0f383174af042091fc544b8356f",
            "0x00000000000000000000000043edd7f3831b08fe70b7555ddd373c8bf65a9050"
          ],
          "data": "0x00000000000000000000000000000000000000000000000000005af3107a4000",
          "blockHash": "0x2bea945f0594b33f6d3f7c0c5d62d153cce6e613352b74af1df0e48e1edb07a4",
          "blockNumber": "0x96cdde",
          "transactionHash": "0xb502d18ba1be52c2fbe5db9a0db4952cfffda05d4fbd126586cfb5ee85ec8cb6",
          "transactionIndex": "0x3",
          "logIndex": "0x0",
          "removed": false
        }
      ],
      "logsBloom": "0x00000000000000000000000000000000000000000000000000000000000000010000000000000000000000000000000000000000000000000000000000200000000000000000000000000000000000000000000000000000000000000000000000000000000000000000000000000000000000000100080000000000000000000000000000000000000000000000000000000000000000000000000100000000020000000000000002000000000000000000000000000000000000000000020000000000000000000000000000000000000000000000000000000000000000000010000080000000000000040000000000000000000000000000000000080000",
      "type": "0x2",
      "transactionHash": "0xb502d18ba1be52c2fbe5db9a0db4952cfffda05d4fbd126586cfb5ee85ec8cb6",
      "transactionIndex": "0x3",
      "blockHash": "0x2bea945f0594b33f6d3f7c0c5d62d153cce6e613352b74af1df0e48e1edb07a4",
      "blockNumber": "0x96cdde",
      "gasUsed": "0xd181",
      "effectiveGasPrice": "0x1328",
      "from": "0xb0e1650a9760e0f383174af042091fc544b8356f",
      "to": "0x43edd7f3831b08fe70b7555ddd373c8bf65a9050",
      "contractAddress": null,
      "l1BaseFeeScalar": "0x4e20",
      "l1BlobBaseFee": "0xa4",
      "l1BlobBaseFeeScalar": "0x95506",
      "l1Fee": "0x55733f535f",
      "l1GasPrice": "0x1d77303e2",
      "l1GasUsed": "0x910"
    },
    {
      "status": "0x1",
      "cumulativeGasUsed": "0x1961b9",
      "logs": [
        {
          "address": "0x43edd7f3831b08fe70b7555ddd373c8bf65a9050",
          "topics": [
            "0xddf252ad1be2c89b69c2b068fc378daa952ba7f163c4a11628f55a4df523b3ef",
            "0x000000000000000000000000b0e1650a9760e0f383174af042091fc544b8356f",
            "0x0000000000000000000000000000000000000000000000000000000000000000"
          ],
          "data": "0x00000000000000000000000000000000000000000000000000005af3107a4000",
          "blockHash": "0x901062b53d5c2bad9c45980b7d7d12261658f851231ccfd5434f603050f2dca6",
          "blockNumber": "0x96cde1",
          "transactionHash": "0xd2219051f2d49e7dae64a69f40175d5ab2b0f71a9c028490a538c0736757d584",
          "transactionIndex": "0x6",
          "logIndex": "0x0",
          "removed": false
        },
        {
          "address": "0x2367325334447c5e1e0f1b3a6fb947b262f58312",
          "topics": [
            "0x61ed099e74a97a1d7f8bb0952a88ca8b7b8ebd00c126ea04671f92a81213318a"
          ],
          "data": "0x0000000000000000000000004208d6e27538189bb48e603d6123a94b8abe0a0b000000000000000000000000000000000000000000000000000093d420f5d881",
          "blockHash": "0x901062b53d5c2bad9c45980b7d7d12261658f851231ccfd5434f603050f2dca6",
          "blockNumber": "0x96cde1",
          "transactionHash": "0xd2219051f2d49e7dae64a69f40175d5ab2b0f71a9c028490a538c0736757d584",
          "transactionIndex": "0x6",
          "logIndex": "0x1",
          "removed": false
        },
        {
          "address": "0x2367325334447c5e1e0f1b3a6fb947b262f58312",
          "topics": [
            "0x07ea52d82345d6e838192107d8fd7123d9c2ec8e916cd0aad13fd2b60db24644"
          ],
          "data": "0x000000000000000000000000000000000000000000000000000000000000006000000000000000000000000000000000000000000000000000000000000000c000000000000000000000000000000000000000000000000000000000000000e00000000000000000000000000000000000000000000000000000000000000002000000000000000000000000acde1f22eeab249d3ca6ba8805c8fee9f52a16e7000000000000000000000000ce8358bc28dd8296ce8caf1cd2b44787abd658870000000000000000000000000000000000000000000000000000000000000000000000000000000000000000000000000000000000000000000000000000000200000000000000000000000000000000000000000000000000003ccea8d8440900000000000000000000000000000000000000000000000000003ccea8d84409",
          "blockHash": "0x901062b53d5c2bad9c45980b7d7d12261658f851231ccfd5434f603050f2dca6",
          "blockNumber": "0x96cde1",
          "transactionHash": "0xd2219051f2d49e7dae64a69f40175d5ab2b0f71a9c028490a538c0736757d584",
          "transactionIndex": "0x6",
          "logIndex": "0x2",
          "removed": false
        },
        {
          "address": "0x1a44076050125825900e736c501f859c50fe728c",
          "topics": [
            "0x1ab700d4ced0c005b164c0f789fd09fcbb0156d4c2041b8a3bfbcd961cd1567f"
          ],
          "data": "0x000000000000000000000000000000000000000000000000000000000000006000000000000000000000000000000000000000000000000000000000000001200000000000000000000000002367325334447c5e1e0f1b3a6fb947b262f5831200000000000000000000000000000000000000000000000000000000000000990100000000000000010000763400000000000000000000000043edd7f3831b08fe70b7555ddd373c8bf65a905000007623000000000000000000000000f010a7c8877043681d59ad125ebf5756335059422e4da65d9fc7f10387f118b93996ec162fc6d98383c8d9129831bc5704741e38000000000000000000000000b0e1650a9760e0f383174af042091fc544b8356f000000000000006400000000000000000000000000000000000000000000000000000000000000000000000000001600030100110100000000000000000000000000030d4000000000000000000000",
          "blockHash": "0x901062b53d5c2bad9c45980b7d7d12261658f851231ccfd5434f603050f2dca6",
          "blockNumber": "0x96cde1",
          "transactionHash": "0xd2219051f2d49e7dae64a69f40175d5ab2b0f71a9c028490a538c0736757d584",
          "transactionIndex": "0x6",
          "logIndex": "0x3",
          "removed": false
        },
        {
          "address": "0x43edd7f3831b08fe70b7555ddd373c8bf65a9050",
          "topics": [
            "0x85496b760a4b7f8d66384b9df21b381f5d1b1e79f229a47aaf4c232edc2fe59a",
            "0x2e4da65d9fc7f10387f118b93996ec162fc6d98383c8d9129831bc5704741e38",
            "0x000000000000000000000000b0e1650a9760e0f383174af042091fc544b8356f"
          ],
          "data": "0x000000000000000000000000000000000000000000000000000000000000762300000000000000000000000000000000000000000000000000005af3107a400000000000000000000000000000000000000000000000000000005af3107a4000",
          "blockHash": "0x901062b53d5c2bad9c45980b7d7d12261658f851231ccfd5434f603050f2dca6",
          "blockNumber": "0x96cde1",
          "transactionHash": "0xd2219051f2d49e7dae64a69f40175d5ab2b0f71a9c028490a538c0736757d584",
          "transactionIndex": "0x6",
          "logIndex": "0x4",
          "removed": false
        }
      ],
      "logsBloom": "0x00000000000000000000000000000000000000000000000000000000001000000000000010040000000000000000000000000000000000000000000000000000000002000000000000000008000000000000000000000000000000000000000000000000020000008000000000000800000000000110082000010010000000000000000000000000000000080000000000000000200000000000000000000000000000008000000002100000000000000000000000400000000440000000000000000082000000000000000080000000000000000000000000000000000020000000040080000000000000040000002000000000018000000000000000080000",
      "type": "0x2",
      "transactionHash": "0xd2219051f2d49e7dae64a69f40175d5ab2b0f71a9c028490a538c0736757d584",
      "transactionIndex": "0x6",
      "blockHash": "0x901062b53d5c2bad9c45980b7d7d12261658f851231ccfd5434f603050f2dca6",
      "blockNumber": "0x96cde1",
      "gasUsed": "0x476e0",
      "effectiveGasPrice": "0x1335",
      "from": "0xb0e1650a9760e0f383174af042091fc544b8356f",
      "to": "0x43edd7f3831b08fe70b7555ddd373c8bf65a9050",
      "contractAddress": null,
      "l1BaseFeeScalar": "0x4e20",
      "l1BlobBaseFee": "0x9e",
      "l1BlobBaseFeeScalar": "0x95506",
      "l1Fee": "0xa9bbbc5e72",
      "l1GasPrice": "0x1d3d39bbb",
      "l1GasUsed": "0x1224"
    },
    {
      "status": "0x1",
      "cumulativeGasUsed": "0x10bd48",
      "logs": [
        {
          "address": "0xeed9de5e41b53d1c8fab8aab4b0e446f828c1483",
          "topics": [
            "0x8c5be1e5ebec7d5bd14f71427d1e84f3dd0314c0f7b2291e5b200ac8c7c3b925",
            "0x000000000000000000000000b0e1650a9760e0f383174af042091fc544b8356f",
            "0x000000000000000000000000eed9de5e41b53d1c8fab8aab4b0e446f828c1483"
          ],
          "data": "0x00000000000000000000000000000000000000000000000000005af3107a4000",
          "blockHash": "0x476e254a2401f1000288b0ae6c04a69bf2d7b5c67969dddd5ad72c26cc660235",
          "blockNumber": "0x96cde5",
          "transactionHash": "0xde84815ccd2701d6299bc68d037eeeade3ff442a2db9af2776c88c29f9bee145",
          "transactionIndex": "0x3",
          "logIndex": "0x0",
          "removed": false
        }
      ],
      "logsBloom": "0x00000000000000000000000000000000000000000000000000000000000000000000000000000000000000000000000000000000000000001000000000200000000000000000000000000000000000000000400000000000000000000000000000000000000000000000000000000000000000000100080000000000000000000000000000000004000000000000000000000000000000000000000000000001020000000000000000000000000000000000000000000004000000000000000000000000000000000000000000000000000000000000000000000000000000000010000080000008000000000000000000000000000000000000000000000000",
      "type": "0x2",
      "transactionHash": "0xde84815ccd2701d6299bc68d037eeeade3ff442a2db9af2776c88c29f9bee145",
      "transactionIndex": "0x3",
      "blockHash": "0x476e254a2401f1000288b0ae6c04a69bf2d7b5c67969dddd5ad72c26cc660235",
      "blockNumber": "0x96cde5",
      "gasUsed": "0xd181",
      "effectiveGasPrice": "0x1325",
      "from": "0xb0e1650a9760e0f383174af042091fc544b8356f",
      "to": "0xeed9de5e41b53d1c8fab8aab4b0e446f828c1483",
      "contractAddress": null,
      "l1BaseFeeScalar": "0x4e20",
      "l1BlobBaseFee": "0x8c",
      "l1BlobBaseFeeScalar": "0x95506",
      "l1Fee": "0x560ebabb96",
      "l1GasPrice": "0x1d85b61d3",
      "l1GasUsed": "0x91c"
    },
    {
      "status": "0x1",
      "cumulativeGasUsed": "0xb4f7b0",
      "logs": [
        {
          "address": "0xeed9de5e41b53d1c8fab8aab4b0e446f828c1483",
          "topics": [
            "0xddf252ad1be2c89b69c2b068fc378daa952ba7f163c4a11628f55a4df523b3ef",
            "0x000000000000000000000000b0e1650a9760e0f383174af042091fc544b8356f",
            "0x0000000000000000000000000000000000000000000000000000000000000000"
          ],
          "data": "0x00000000000000000000000000000000000000000000000000005af3107a4000",
          "blockHash": "0xa40481d5a3af37175bd96f95449a7d09d935e14ce9a2ee5e909c6262669b028f",
          "blockNumber": "0x96cde9",
          "transactionHash": "0x904a24a199af9a17c5077f4a18a46f64cf067c2c37b27c842ea346179837a589",
          "transactionIndex": "0x3",
          "logIndex": "0x19f",
          "removed": false
        },
        {
          "address": "0x2367325334447c5e1e0f1b3a6fb947b262f58312",
          "topics": [
            "0x61ed099e74a97a1d7f8bb0952a88ca8b7b8ebd00c126ea04671f92a81213318a"
          ],
          "data": "0x0000000000000000000000004208d6e27538189bb48e603d6123a94b8abe0a0b000000000000000000000000000000000000000000000000000093d420f5d881",
          "blockHash": "0xa40481d5a3af37175bd96f95449a7d09d935e14ce9a2ee5e909c6262669b028f",
          "blockNumber": "0x96cde9",
          "transactionHash": "0x904a24a199af9a17c5077f4a18a46f64cf067c2c37b27c842ea346179837a589",
          "transactionIndex": "0x3",
          "logIndex": "0x1a0",
          "removed": false
        },
        {
          "address": "0x2367325334447c5e1e0f1b3a6fb947b262f58312",
          "topics": [
            "0x07ea52d82345d6e838192107d8fd7123d9c2ec8e916cd0aad13fd2b60db24644"
          ],
          "data": "0x000000000000000000000000000000000000000000000000000000000000006000000000000000000000000000000000000000000000000000000000000000c000000000000000000000000000000000000000000000000000000000000000e00000000000000000000000000000000000000000000000000000000000000002000000000000000000000000acde1f22eeab249d3ca6ba8805c8fee9f52a16e7000000000000000000000000ce8358bc28dd8296ce8caf1cd2b44787abd658870000000000000000000000000000000000000000000000000000000000000000000000000000000000000000000000000000000000000000000000000000000200000000000000000000000000000000000000000000000000003ccea8d8440900000000000000000000000000000000000000000000000000003ccea8d84409",
          "blockHash": "0xa40481d5a3af37175bd96f95449a7d09d935e14ce9a2ee5e909c6262669b028f",
          "blockNumber": "0x96cde9",
          "transactionHash": "0x904a24a199af9a17c5077f4a18a46f64cf067c2c37b27c842ea346179837a589",
          "transactionIndex": "0x3",
          "logIndex": "0x1a1",
          "removed": false
        },
        {
          "address": "0x1a44076050125825900e736c501f859c50fe728c",
          "topics": [
            "0x1ab700d4ced0c005b164c0f789fd09fcbb0156d4c2041b8a3bfbcd961cd1567f"
          ],
          "data": "0x000000000000000000000000000000000000000000000000000000000000006000000000000000000000000000000000000000000000000000000000000001200000000000000000000000002367325334447c5e1e0f1b3a6fb947b262f58312000000000000000000000000000000000000000000000000000000000000009901000000000000000100007634000000000000000000000000eed9de5e41b53d1c8fab8aab4b0e446f828c148300007623000000000000000000000000e41228a455700caf09e551805a8ab37caa39d08cf6608a5e6a878cbd49de4806d2fbf7ac7b7a2d0c2f31ed12b4bd0554ad6558be000000000000000000000000b0e1650a9760e0f383174af042091fc544b8356f000000000000006400000000000000000000000000000000000000000000000000000000000000000000000000001600030100110100000000000000000000000000030d4000000000000000000000",
          "blockHash": "0xa40481d5a3af37175bd96f95449a7d09d935e14ce9a2ee5e909c6262669b028f",
          "blockNumber": "0x96cde9",
          "transactionHash": "0x904a24a199af9a17c5077f4a18a46f64cf067c2c37b27c842ea346179837a589",
          "transactionIndex": "0x3",
          "logIndex": "0x1a2",
          "removed": false
        },
        {
          "address": "0xeed9de5e41b53d1c8fab8aab4b0e446f828c1483",
          "topics": [
            "0x85496b760a4b7f8d66384b9df21b381f5d1b1e79f229a47aaf4c232edc2fe59a",
            "0xf6608a5e6a878cbd49de4806d2fbf7ac7b7a2d0c2f31ed12b4bd0554ad6558be",
            "0x000000000000000000000000b0e1650a9760e0f383174af042091fc544b8356f"
          ],
          "data": "0x000000000000000000000000000000000000000000000000000000000000762300000000000000000000000000000000000000000000000000005af3107a400000000000000000000000000000000000000000000000000000005af3107a4000",
          "blockHash": "0xa40481d5a3af37175bd96f95449a7d09d935e14ce9a2ee5e909c6262669b028f",
          "blockNumber": "0x96cde9",
          "transactionHash": "0x904a24a199af9a17c5077f4a18a46f64cf067c2c37b27c842ea346179837a589",
          "transactionIndex": "0x3",
          "logIndex": "0x1a3",
          "removed": false
        }
      ],
      "logsBloom": "0x00000000000000000000000000000000000000000000000000000000001000000000000000000000000000004000000000000000000000000000000000000000000002000000000000000008000000000000000000000000000000000000000000000000020000008000000000000800000000000110080000010010000000000000000000000004000000080000000000000000200000000000000000000001000000008000000000100000000000000000000000400004000440000000000000000082000000000004000080000000000000000000000000000000000020000000040080000000000000000000002000000000018000000000000000008000",
      "type": "0x2",
      "transactionHash": "0x904a24a199af9a17c5077f4a18a46f64cf067c2c37b27c842ea346179837a589",
      "transactionIndex": "0x3",
      "blockHash": "0xa40481d5a3af37175bd96f95449a7d09d935e14ce9a2ee5e909c6262669b028f",
      "blockNumber": "0x96cde9",
      "gasUsed": "0x476e0",
      "effectiveGasPrice": "0x1313",
      "from": "0xb0e1650a9760e0f383174af042091fc544b8356f",
      "to": "0xeed9de5e41b53d1c8fab8aab4b0e446f828c1483",
      "contractAddress": null,
      "l1BaseFeeScalar": "0x4e20",
      "l1BlobBaseFee": "0x8c",
      "l1BlobBaseFeeScalar": "0x95506",
      "l1Fee": "0xab60841c6e",
      "l1GasPrice": "0x1d85b61d3",
      "l1GasUsed": "0x1224"
    },
    {
      "status": "0x1",
      "cumulativeGasUsed": "0xb46117",
      "logs": [
        {
          "address": "0x43edd7f3831b08fe70b7555ddd373c8bf65a9050",
          "topics": [
            "0xddf252ad1be2c89b69c2b068fc378daa952ba7f163c4a11628f55a4df523b3ef",
            "0x000000000000000000000000b0e1650a9760e0f383174af042091fc544b8356f",
            "0x0000000000000000000000000000000000000000000000000000000000000000"
          ],
          "data": "0x00000000000000000000000000000000000000000000000000005af3107a4000",
          "blockHash": "0x5435d30ef3124bf1faccddead825609e0c7ae0cf191a5c19f9ab9886400128c3",
          "blockNumber": "0x96cdec",
          "transactionHash": "0x5ccf6d81acfe25aa332a173d0b6c81512f29c45c9946338ad670e3e7bb39dcf1",
          "transactionIndex": "0x2",
          "logIndex": "0x19f",
          "removed": false
        },
        {
          "address": "0x2367325334447c5e1e0f1b3a6fb947b262f58312",
          "topics": [
            "0x61ed099e74a97a1d7f8bb0952a88ca8b7b8ebd00c126ea04671f92a81213318a"
          ],
          "data": "0x0000000000000000000000004208d6e27538189bb48e603d6123a94b8abe0a0b00000000000000000000000000000000000000000000000000008efcd7347ce6",
          "blockHash": "0x5435d30ef3124bf1faccddead825609e0c7ae0cf191a5c19f9ab9886400128c3",
          "blockNumber": "0x96cdec",
          "transactionHash": "0x5ccf6d81acfe25aa332a173d0b6c81512f29c45c9946338ad670e3e7bb39dcf1",
          "transactionIndex": "0x2",
          "logIndex": "0x1a0",
          "removed": false
        },
        {
          "address": "0x2367325334447c5e1e0f1b3a6fb947b262f58312",
          "topics": [
            "0x07ea52d82345d6e838192107d8fd7123d9c2ec8e916cd0aad13fd2b60db24644"
          ],
          "data": "0x000000000000000000000000000000000000000000000000000000000000006000000000000000000000000000000000000000000000000000000000000000c000000000000000000000000000000000000000000000000000000000000000e00000000000000000000000000000000000000000000000000000000000000002000000000000000000000000acde1f22eeab249d3ca6ba8805c8fee9f52a16e7000000000000000000000000ce8358bc28dd8296ce8caf1cd2b44787abd658870000000000000000000000000000000000000000000000000000000000000000000000000000000000000000000000000000000000000000000000000000000200000000000000000000000000000000000000000000000000000823aae90b7700000000000000000000000000000000000000000000000000000823aae90b77",
          "blockHash": "0x5435d30ef3124bf1faccddead825609e0c7ae0cf191a5c19f9ab9886400128c3",
          "blockNumber": "0x96cdec",
          "transactionHash": "0x5ccf6d81acfe25aa332a173d0b6c81512f29c45c9946338ad670e3e7bb39dcf1",
          "transactionIndex": "0x2",
          "logIndex": "0x1a1",
          "removed": false
        },
        {
          "address": "0x1a44076050125825900e736c501f859c50fe728c",
          "topics": [
            "0x1ab700d4ced0c005b164c0f789fd09fcbb0156d4c2041b8a3bfbcd961cd1567f"
          ],
          "data": "0x000000000000000000000000000000000000000000000000000000000000006000000000000000000000000000000000000000000000000000000000000001200000000000000000000000002367325334447c5e1e0f1b3a6fb947b262f5831200000000000000000000000000000000000000000000000000000000000000990100000000000000010000763400000000000000000000000043edd7f3831b08fe70b7555ddd373c8bf65a9050000075c7000000000000000000000000f010a7c8877043681d59ad125ebf575633505942e00c251ba4c5e7be49255788642716b76625f1e1edeec04121b0e903e166a51e000000000000000000000000b0e1650a9760e0f383174af042091fc544b8356f000000000000006400000000000000000000000000000000000000000000000000000000000000000000000000001600030100110100000000000000000000000000030d4000000000000000000000",
          "blockHash": "0x5435d30ef3124bf1faccddead825609e0c7ae0cf191a5c19f9ab9886400128c3",
          "blockNumber": "0x96cdec",
          "transactionHash": "0x5ccf6d81acfe25aa332a173d0b6c81512f29c45c9946338ad670e3e7bb39dcf1",
          "transactionIndex": "0x2",
          "logIndex": "0x1a2",
          "removed": false
        },
        {
          "address": "0x43edd7f3831b08fe70b7555ddd373c8bf65a9050",
          "topics": [
            "0x85496b760a4b7f8d66384b9df21b381f5d1b1e79f229a47aaf4c232edc2fe59a",
            "0xe00c251ba4c5e7be49255788642716b76625f1e1edeec04121b0e903e166a51e",
            "0x000000000000000000000000b0e1650a9760e0f383174af042091fc544b8356f"
          ],
          "data": "0x00000000000000000000000000000000000000000000000000000000000075c700000000000000000000000000000000000000000000000000005af3107a400000000000000000000000000000000000000000000000000000005af3107a4000",
          "blockHash": "0x5435d30ef3124bf1faccddead825609e0c7ae0cf191a5c19f9ab9886400128c3",
          "blockNumber": "0x96cdec",
          "transactionHash": "0x5ccf6d81acfe25aa332a173d0b6c81512f29c45c9946338ad670e3e7bb39dcf1",
          "transactionIndex": "0x2",
          "logIndex": "0x1a3",
          "removed": false
        }
      ],
      "logsBloom": "0x00000000000000000000000000000000000000008000000000000000001000000000000000000000000000000000000000000000000000000000000000000000000002000000000000000008400000000000000000000000000000000000000000000000020000008000000000000800000000000110080000010010000000000000000000000000000000080000000000000000200000000000000000000000000000008000000002100000000000000000000000400000000440000000000000000082000000010000000080000000000000000000000000000000000020000000040080000000000000040000002000000000018000000000000000080000",
      "type": "0x2",
      "transactionHash": "0x5ccf6d81acfe25aa332a173d0b6c81512f29c45c9946338ad670e3e7bb39dcf1",
      "transactionIndex": "0x2",
      "blockHash": "0x5435d30ef3124bf1faccddead825609e0c7ae0cf191a5c19f9ab9886400128c3",
      "blockNumber": "0x96cdec",
      "gasUsed": "0x45cbc",
      "effectiveGasPrice": "0x1316",
      "from": "0xb0e1650a9760e0f383174af042091fc544b8356f",
      "to": "0x43edd7f3831b08fe70b7555ddd373c8bf65a9050",
      "contractAddress": null,
      "l1BaseFeeScalar": "0x4e20",
      "l1BlobBaseFee": "0x92",
      "l1BlobBaseFeeScalar": "0x95506",
      "l1Fee": "0xa82ea0a292",
      "l1GasPrice": "0x1d25ce928",
      "l1GasUsed": "0x1208"
    },
    {
      "status": "0x1",
      "cumulativeGasUsed": "0x4b5787",
      "logs": [
        {
          "address": "0xeed9de5e41b53d1c8fab8aab4b0e446f828c1483",
          "topics": [
            "0xddf252ad1be2c89b69c2b068fc378daa952ba7f163c4a11628f55a4df523b3ef",
            "0x000000000000000000000000b0e1650a9760e0f383174af042091fc544b8356f",
            "0x0000000000000000000000000000000000000000000000000000000000000000"
          ],
          "data": "0x00000000000000000000000000000000000000000000000000005af3107a4000",
          "blockHash": "0xbcaba2ce311fcbf7177c85105d0dfa183287d4a32dcd00357a252cc69196caee",
          "blockNumber": "0x96cdf0",
          "transactionHash": "0x92aa0d053e8b41a576e6e489249403b0f056a7035401ed55906b4247e03206a7",
          "transactionIndex": "0x5",
          "logIndex": "0xb",
          "removed": false
        },
        {
          "address": "0x2367325334447c5e1e0f1b3a6fb947b262f58312",
          "topics": [
            "0x61ed099e74a97a1d7f8bb0952a88ca8b7b8ebd00c126ea04671f92a81213318a"
          ],
          "data": "0x0000000000000000000000004208d6e27538189bb48e603d6123a94b8abe0a0b00000000000000000000000000000000000000000000000000008efcd7347ce6",
          "blockHash": "0xbcaba2ce311fcbf7177c85105d0dfa183287d4a32dcd00357a252cc69196caee",
          "blockNumber": "0x96cdf0",
          "transactionHash": "0x92aa0d053e8b41a576e6e489249403b0f056a7035401ed55906b4247e03206a7",
          "transactionIndex": "0x5",
          "logIndex": "0xc",
          "removed": false
        },
        {
          "address": "0x2367325334447c5e1e0f1b3a6fb947b262f58312",
          "topics": [
            "0x07ea52d82345d6e838192107d8fd7123d9c2ec8e916cd0aad13fd2b60db24644"
          ],
          "data": "0x000000000000000000000000000000000000000000000000000000000000006000000000000000000000000000000000000000000000000000000000000000c000000000000000000000000000000000000000000000000000000000000000e00000000000000000000000000000000000000000000000000000000000000002000000000000000000000000acde1f22eeab249d3ca6ba8805c8fee9f52a16e7000000000000000000000000ce8358bc28dd8296ce8caf1cd2b44787abd658870000000000000000000000000000000000000000000000000000000000000000000000000000000000000000000000000000000000000000000000000000000200000000000000000000000000000000000000000000000000000823aae90b7700000000000000000000000000000000000000000000000000000823aae90b77",
          "blockHash": "0xbcaba2ce311fcbf7177c85105d0dfa183287d4a32dcd00357a252cc69196caee",
          "blockNumber": "0x96cdf0",
          "transactionHash": "0x92aa0d053e8b41a576e6e489249403b0f056a7035401ed55906b4247e03206a7",
          "transactionIndex": "0x5",
          "logIndex": "0xd",
          "removed": false
        },
        {
          "address": "0x1a44076050125825900e736c501f859c50fe728c",
          "topics": [
            "0x1ab700d4ced0c005b164c0f789fd09fcbb0156d4c2041b8a3bfbcd961cd1567f"
          ],
          "data": "0x000000000000000000000000000000000000000000000000000000000000006000000000000000000000000000000000000000000000000000000000000001200000000000000000000000002367325334447c5e1e0f1b3a6fb947b262f58312000000000000000000000000000000000000000000000000000000000000009901000000000000000100007634000000000000000000000000eed9de5e41b53d1c8fab8aab4b0e446f828c1483000075c7000000000000000000000000e41228a455700caf09e551805a8ab37caa39d08c09bed99a96f67875154d98ed39be9109264c804cb13b0b030a07974b68f18be7000000000000000000000000b0e1650a9760e0f383174af042091fc544b8356f000000000000006400000000000000000000000000000000000000000000000000000000000000000000000000001600030100110100000000000000000000000000030d4000000000000000000000",
          "blockHash": "0xbcaba2ce311fcbf7177c85105d0dfa183287d4a32dcd00357a252cc69196caee",
          "blockNumber": "0x96cdf0",
          "transactionHash": "0x92aa0d053e8b41a576e6e489249403b0f056a7035401ed55906b4247e03206a7",
          "transactionIndex": "0x5",
          "logIndex": "0xe",
          "removed": false
        },
        {
          "address": "0xeed9de5e41b53d1c8fab8aab4b0e446f828c1483",
          "topics": [
            "0x85496b760a4b7f8d66384b9df21b381f5d1b1e79f229a47aaf4c232edc2fe59a",
            "0x09bed99a96f67875154d98ed39be9109264c804cb13b0b030a07974b68f18be7",
            "0x000000000000000000000000b0e1650a9760e0f383174af042091fc544b8356f"
          ],
          "data": "0x00000000000000000000000000000000000000000000000000000000000075c700000000000000000000000000000000000000000000000000005af3107a400000000000000000000000000000000000000000000000000000005af3107a4000",
          "blockHash": "0xbcaba2ce311fcbf7177c85105d0dfa183287d4a32dcd00357a252cc69196caee",
          "blockNumber": "0x96cdf0",
          "transactionHash": "0x92aa0d053e8b41a576e6e489249403b0f056a7035401ed55906b4247e03206a7",
          "transactionIndex": "0x5",
          "logIndex": "0xf",
          "removed": false
        }
      ],
      "logsBloom": "0x00000000000000000000000000000000000000000000000000000000001000000000000000000000000000000000000000000000000000000000000000000000000002000000000000000008000000000000000000000000000000000000000000000000020000088000000000000800000004000110080000010010000000000000000000000004000000080000000000000000200000000000000000000001000000008000000000100000000000000000000000400004000440000000000000000082000040000000000080000000000000000000000000000000000020000000040080000000000000000000002000000000018000000000000000000000",
      "type": "0x2",
      "transactionHash": "0x92aa0d053e8b41a576e6e489249403b0f056a7035401ed55906b4247e03206a7",
      "transactionIndex": "0x5",
      "blockHash": "0xbcaba2ce311fcbf7177c85105d0dfa183287d4a32dcd00357a252cc69196caee",
      "blockNumber": "0x96cdf0",
      "gasUsed": "0x45cbc",
      "effectiveGasPrice": "0x1346",
      "from": "0xb0e1650a9760e0f383174af042091fc544b8356f",
      "to": "0xeed9de5e41b53d1c8fab8aab4b0e446f828c1483",
      "contractAddress": null,
      "l1BaseFeeScalar": "0x4e20",
      "l1BlobBaseFee": "0x92",
      "l1BlobBaseFeeScalar": "0x95506",
      "l1Fee": "0xa82ea0a292",
      "l1GasPrice": "0x1d25ce928",
      "l1GasUsed": "0x1208"
    },
    {
      "status": "0x1",
      "cumulativeGasUsed": "0x18f58d",
      "logs": [
        {
          "address": "0x43edd7f3831b08fe70b7555ddd373c8bf65a9050",
          "topics": [
            "0xddf252ad1be2c89b69c2b068fc378daa952ba7f163c4a11628f55a4df523b3ef",
            "0x000000000000000000000000b0e1650a9760e0f383174af042091fc544b8356f",
            "0x0000000000000000000000000000000000000000000000000000000000000000"
          ],
          "data": "0x00000000000000000000000000000000000000000000000000005af3107a4000",
          "blockHash": "0xa92005dcc7a404eb466d2b7873a5fc0ce335897921d287c004027d2a9cf8a01a",
          "blockNumber": "0x96cdf3",
          "transactionHash": "0xdb582a19aa244da994bfc36b338147459fc48e1f48d7fad9933959afa27e9837",
          "transactionIndex": "0x5",
          "logIndex": "0x0",
          "removed": false
        },
        {
          "address": "0x2367325334447c5e1e0f1b3a6fb947b262f58312",
          "topics": [
            "0x61ed099e74a97a1d7f8bb0952a88ca8b7b8ebd00c126ea04671f92a81213318a"
          ],
          "data": "0x0000000000000000000000004208d6e27538189bb48e603d6123a94b8abe0a0b000000000000000000000000000000000000000000000000000009da7403706a",
          "blockHash": "0xa92005dcc7a404eb466d2b7873a5fc0ce335897921d287c004027d2a9cf8a01a",
          "blockNumber": "0x96cdf3",
          "transactionHash": "0xdb582a19aa244da994bfc36b338147459fc48e1f48d7fad9933959afa27e9837",
          "transactionIndex": "0x5",
          "logIndex": "0x1",
          "removed": false
        },
        {
          "address": "0x2367325334447c5e1e0f1b3a6fb947b262f58312",
          "topics": [
            "0x07ea52d82345d6e838192107d8fd7123d9c2ec8e916cd0aad13fd2b60db24644"
          ],
          "data": "0x000000000000000000000000000000000000000000000000000000000000006000000000000000000000000000000000000000000000000000000000000000c000000000000000000000000000000000000000000000000000000000000000e00000000000000000000000000000000000000000000000000000000000000002000000000000000000000000acde1f22eeab249d3ca6ba8805c8fee9f52a16e7000000000000000000000000ce8358bc28dd8296ce8caf1cd2b44787abd6588700000000000000000000000000000000000000000000000000000000000000000000000000000000000000000000000000000000000000000000000000000002000000000000000000000000000000000000000000000000000000e2182dab5e000000000000000000000000000000000000000000000000000000e2182dab5e",
          "blockHash": "0xa92005dcc7a404eb466d2b7873a5fc0ce335897921d287c004027d2a9cf8a01a",
          "blockNumber": "0x96cdf3",
          "transactionHash": "0xdb582a19aa244da994bfc36b338147459fc48e1f48d7fad9933959afa27e9837",
          "transactionIndex": "0x5",
          "logIndex": "0x2",
          "removed": false
        },
        {
          "address": "0x1a44076050125825900e736c501f859c50fe728c",
          "topics": [
            "0x1ab700d4ced0c005b164c0f789fd09fcbb0156d4c2041b8a3bfbcd961cd1567f"
          ],
          "data": "0x000000000000000000000000000000000000000000000000000000000000006000000000000000000000000000000000000000000000000000000000000001200000000000000000000000002367325334447c5e1e0f1b3a6fb947b262f5831200000000000000000000000000000000000000000000000000000000000000990100000000000000010000763400000000000000000000000043edd7f3831b08fe70b7555ddd373c8bf65a9050000075e8000000000000000000000000f010a7c8877043681d59ad125ebf575633505942213698b44ad3167ecf693b96f3c6bff1c764aa2a00255b65b0b31ce663167bd9000000000000000000000000b0e1650a9760e0f383174af042091fc544b8356f000000000000006400000000000000000000000000000000000000000000000000000000000000000000000000001600030100110100000000000000000000000000030d4000000000000000000000",
          "blockHash": "0xa92005dcc7a404eb466d2b7873a5fc0ce335897921d287c004027d2a9cf8a01a",
          "blockNumber": "0x96cdf3",
          "transactionHash": "0xdb582a19aa244da994bfc36b338147459fc48e1f48d7fad9933959afa27e9837",
          "transactionIndex": "0x5",
          "logIndex": "0x3",
          "removed": false
        },
        {
          "address": "0x43edd7f3831b08fe70b7555ddd373c8bf65a9050",
          "topics": [
            "0x85496b760a4b7f8d66384b9df21b381f5d1b1e79f229a47aaf4c232edc2fe59a",
            "0x213698b44ad3167ecf693b96f3c6bff1c764aa2a00255b65b0b31ce663167bd9",
            "0x000000000000000000000000b0e1650a9760e0f383174af042091fc544b8356f"
          ],
          "data": "0x00000000000000000000000000000000000000000000000000000000000075e800000000000000000000000000000000000000000000000000005af3107a400000000000000000000000000000000000000000000000000000005af3107a4000",
          "blockHash": "0xa92005dcc7a404eb466d2b7873a5fc0ce335897921d287c004027d2a9cf8a01a",
          "blockNumber": "0x96cdf3",
          "transactionHash": "0xdb582a19aa244da994bfc36b338147459fc48e1f48d7fad9933959afa27e9837",
          "transactionIndex": "0x5",
          "logIndex": "0x4",
          "removed": false
        }
      ],
      "logsBloom": "0x00000000000000000000000000000000000000000000000000000000001000000000000000000000000000000000000000000000000000000000000000000000000002000000000000000008000000000000000000000000000000000000000000000000020000008000000000000800000000000110080000010010000000000000000000000000000000080000000000000000200000000000000000000000000000008000000002100000000000000000000000400000000440000000000000000082100000000000000080000000000000000000020000000000000020000000040080000400000000040000002000000000018000000000000000080000",
      "type": "0x2",
      "transactionHash": "0xdb582a19aa244da994bfc36b338147459fc48e1f48d7fad9933959afa27e9837",
      "transactionIndex": "0x5",
      "blockHash": "0xa92005dcc7a404eb466d2b7873a5fc0ce335897921d287c004027d2a9cf8a01a",
      "blockNumber": "0x96cdf3",
      "gasUsed": "0x45cbc",
      "effectiveGasPrice": "0x1350",
      "from": "0xb0e1650a9760e0f383174af042091fc544b8356f",
      "to": "0x43edd7f3831b08fe70b7555ddd373c8bf65a9050",
      "contractAddress": null,
      "l1BaseFeeScalar": "0x4e20",
      "l1BlobBaseFee": "0x92",
      "l1BlobBaseFeeScalar": "0x95506",
      "l1Fee": "0xa82ea0a292",
      "l1GasPrice": "0x1d25ce928",
      "l1GasUsed": "0x1208"
    },
    {
      "status": "0x1",
      "cumulativeGasUsed": "0xb6f914",
      "logs": [
        {
          "address": "0xeed9de5e41b53d1c8fab8aab4b0e446f828c1483",
          "topics": [
            "0xddf252ad1be2c89b69c2b068fc378daa952ba7f163c4a11628f55a4df523b3ef",
            "0x000000000000000000000000b0e1650a9760e0f383174af042091fc544b8356f",
            "0x0000000000000000000000000000000000000000000000000000000000000000"
          ],
          "data": "0x00000000000000000000000000000000000000000000000000005af3107a4000",
          "blockHash": "0x2af4ee7d8d454a7900e7fc12296827a1ded103b35d6cda8c78f469b80de0b1ce",
          "blockNumber": "0x96cdf7",
          "transactionHash": "0x3d8349777b92c795c1648f01f253894d8f69bbcdab0a526fd9542f76d456a4ea",
          "transactionIndex": "0x4",
          "logIndex": "0x1a2",
          "removed": false
        },
        {
          "address": "0x2367325334447c5e1e0f1b3a6fb947b262f58312",
          "topics": [
            "0x61ed099e74a97a1d7f8bb0952a88ca8b7b8ebd00c126ea04671f92a81213318a"
          ],
          "data": "0x0000000000000000000000004208d6e27538189bb48e603d6123a94b8abe0a0b000000000000000000000000000000000000000000000000000009da7403706a",
          "blockHash": "0x2af4ee7d8d454a7900e7fc12296827a1ded103b35d6cda8c78f469b80de0b1ce",
          "blockNumber": "0x96cdf7",
          "transactionHash": "0x3d8349777b92c795c1648f01f253894d8f69bbcdab0a526fd9542f76d456a4ea",
          "transactionIndex": "0x4",
          "logIndex": "0x1a3",
          "removed": false
        },
        {
          "address": "0x2367325334447c5e1e0f1b3a6fb947b262f58312",
          "topics": [
            "0x07ea52d82345d6e838192107d8fd7123d9c2ec8e916cd0aad13fd2b60db24644"
          ],
          "data": "0x000000000000000000000000000000000000000000000000000000000000006000000000000000000000000000000000000000000000000000000000000000c000000000000000000000000000000000000000000000000000000000000000e00000000000000000000000000000000000000000000000000000000000000002000000000000000000000000acde1f22eeab249d3ca6ba8805c8fee9f52a16e7000000000000000000000000ce8358bc28dd8296ce8caf1cd2b44787abd6588700000000000000000000000000000000000000000000000000000000000000000000000000000000000000000000000000000000000000000000000000000002000000000000000000000000000000000000000000000000000000e2182dab5e000000000000000000000000000000000000000000000000000000e2182dab5e",
          "blockHash": "0x2af4ee7d8d454a7900e7fc12296827a1ded103b35d6cda8c78f469b80de0b1ce",
          "blockNumber": "0x96cdf7",
          "transactionHash": "0x3d8349777b92c795c1648f01f253894d8f69bbcdab0a526fd9542f76d456a4ea",
          "transactionIndex": "0x4",
          "logIndex": "0x1a4",
          "removed": false
        },
        {
          "address": "0x1a44076050125825900e736c501f859c50fe728c",
          "topics": [
            "0x1ab700d4ced0c005b164c0f789fd09fcbb0156d4c2041b8a3bfbcd961cd1567f"
          ],
          "data": "0x000000000000000000000000000000000000000000000000000000000000006000000000000000000000000000000000000000000000000000000000000001200000000000000000000000002367325334447c5e1e0f1b3a6fb947b262f58312000000000000000000000000000000000000000000000000000000000000009901000000000000000100007634000000000000000000000000eed9de5e41b53d1c8fab8aab4b0e446f828c1483000075e8000000000000000000000000e41228a455700caf09e551805a8ab37caa39d08c40666b9794a1b8f754fdbf5693f747925d8a307a460f85503e5fde9a08c39396000000000000000000000000b0e1650a9760e0f383174af042091fc544b8356f000000000000006400000000000000000000000000000000000000000000000000000000000000000000000000001600030100110100000000000000000000000000030d4000000000000000000000",
          "blockHash": "0x2af4ee7d8d454a7900e7fc12296827a1ded103b35d6cda8c78f469b80de0b1ce",
          "blockNumber": "0x96cdf7",
          "transactionHash": "0x3d8349777b92c795c1648f01f253894d8f69bbcdab0a526fd9542f76d456a4ea",
          "transactionIndex": "0x4",
          "logIndex": "0x1a5",
          "removed": false
        },
        {
          "address": "0xeed9de5e41b53d1c8fab8aab4b0e446f828c1483",
          "topics": [
            "0x85496b760a4b7f8d66384b9df21b381f5d1b1e79f229a47aaf4c232edc2fe59a",
            "0x40666b9794a1b8f754fdbf5693f747925d8a307a460f85503e5fde9a08c39396",
            "0x000000000000000000000000b0e1650a9760e0f383174af042091fc544b8356f"
          ],
          "data": "0x00000000000000000000000000000000000000000000000000000000000075e800000000000000000000000000000000000000000000000000005af3107a400000000000000000000000000000000000000000000000000000005af3107a4000",
          "blockHash": "0x2af4ee7d8d454a7900e7fc12296827a1ded103b35d6cda8c78f469b80de0b1ce",
          "blockNumber": "0x96cdf7",
          "transactionHash": "0x3d8349777b92c795c1648f01f253894d8f69bbcdab0a526fd9542f76d456a4ea",
          "transactionIndex": "0x4",
          "logIndex": "0x1a6",
          "removed": false
        }
      ],
      "logsBloom": "0x00000000000000000000000000000000000000000000000000000000001000000000000000000000000000000000000000000000000000000000000000000000000002000000000000000008000000000000000200000000000000000000000000000000020000008000000000000800000000000110080000010010000000000000000000000004000000080000000000000000200000000000000000000001000000008000000040100000000004000000000000400004000440000000000000000082000000000000000080000000000000000000000000000000000020000000040080000000000000000000002000000000018000000000000000000000",
      "type": "0x2",
      "transactionHash": "0x3d8349777b92c795c1648f01f253894d8f69bbcdab0a526fd9542f76d456a4ea",
      "transactionIndex": "0x4",
      "blockHash": "0x2af4ee7d8d454a7900e7fc12296827a1ded103b35d6cda8c78f469b80de0b1ce",
      "blockNumber": "0x96cdf7",
      "gasUsed": "0x45cbc",
      "effectiveGasPrice": "0x1325",
      "from": "0xb0e1650a9760e0f383174af042091fc544b8356f",
      "to": "0xeed9de5e41b53d1c8fab8aab4b0e446f828c1483",
      "contractAddress": null,
      "l1BaseFeeScalar": "0x4e20",
      "l1BlobBaseFee": "0x92",
      "l1BlobBaseFeeScalar": "0x95506",
      "l1Fee": "0xa27dffd9d1",
      "l1GasPrice": "0x1c295bbf2",
      "l1GasUsed": "0x1208"
    }
  ],
  "libraries": [],
  "pending": [],
  "returns": {},
  "timestamp": 1719933827,
  "chain": 34443,
  "commit": "52a2592"
}