{
  "transactions": [
    {
      "hash": "0x0299ba6e97ef5e95253492590de07bae13538018f5de1eb2cd70d661630446c2",
      "transactionType": "CALL",
      "contractName": null,
      "contractAddress": "0x64445f0aecc51e94ad52d8ac56b7190e764e561a",
      "function": "send((uint32,bytes32,uint256,uint256,bytes,bytes,bytes),(uint256,uint256),address)",
      "arguments": [
        "(30101, 0x000000000000000000000000b0e1650a9760e0f383174af042091fc544b8356f, 10000000000000, 10000000000000, 0x0003, 0x, 0x)",
        "(1355712406919636, 0)",
        "0xb0E1650A9760e0f383174af042091fc544b8356f"
      ],
      "transaction": {
        "from": "0xb0e1650a9760e0f383174af042091fc544b8356f",
        "to": "0x64445f0aecc51e94ad52d8ac56b7190e764e561a",
        "gas": "0x5a9b1",
        "value": "0x4d103646e99d4",
        "input": "0xc7c7f5b300000000000000000000000000000000000000000000000000000000000000800000000000000000000000000000000000000000000000000004d103646e99d40000000000000000000000000000000000000000000000000000000000000000000000000000000000000000b0e1650a9760e0f383174af042091fc544b8356f0000000000000000000000000000000000000000000000000000000000007595000000000000000000000000b0e1650a9760e0f383174af042091fc544b8356f000000000000000000000000000000000000000000000000000009184e72a000000000000000000000000000000000000000000000000000000009184e72a00000000000000000000000000000000000000000000000000000000000000000e0000000000000000000000000000000000000000000000000000000000000012000000000000000000000000000000000000000000000000000000000000001400000000000000000000000000000000000000000000000000000000000000002000300000000000000000000000000000000000000000000000000000000000000000000000000000000000000000000000000000000000000000000000000000000000000000000000000000000000000000000000000000000000000000000",
        "nonce": "0x17",
        "chainId": "0x868b"
      },
      "additionalContracts": [],
      "isFixedGasLimit": false
    },
    {
      "hash": "0x2dc7c878ec4d9304834ef39be8b525924b9ff80b9b75c9f0c6b2c1d552b46687",
      "transactionType": "CALL",
      "contractName": null,
      "contractAddress": "0x5bff88ca1442c2496f7e475e9e7786383bc070c0",
      "function": "send((uint32,bytes32,uint256,uint256,bytes,bytes,bytes),(uint256,uint256),address)",
      "arguments": [
        "(30101, 0x000000000000000000000000b0e1650a9760e0f383174af042091fc544b8356f, 10000000000000, 10000000000000, 0x0003, 0x, 0x)",
        "(1355712406919636, 0)",
        "0xb0E1650A9760e0f383174af042091fc544b8356f"
      ],
      "transaction": {
        "from": "0xb0e1650a9760e0f383174af042091fc544b8356f",
        "to": "0x5bff88ca1442c2496f7e475e9e7786383bc070c0",
        "gas": "0x5a9b1",
        "value": "0x4d103646e99d4",
        "input": "0xc7c7f5b300000000000000000000000000000000000000000000000000000000000000800000000000000000000000000000000000000000000000000004d103646e99d40000000000000000000000000000000000000000000000000000000000000000000000000000000000000000b0e1650a9760e0f383174af042091fc544b8356f0000000000000000000000000000000000000000000000000000000000007595000000000000000000000000b0e1650a9760e0f383174af042091fc544b8356f000000000000000000000000000000000000000000000000000009184e72a000000000000000000000000000000000000000000000000000000009184e72a00000000000000000000000000000000000000000000000000000000000000000e0000000000000000000000000000000000000000000000000000000000000012000000000000000000000000000000000000000000000000000000000000001400000000000000000000000000000000000000000000000000000000000000002000300000000000000000000000000000000000000000000000000000000000000000000000000000000000000000000000000000000000000000000000000000000000000000000000000000000000000000000000000000000000000000000",
        "nonce": "0x18",
        "chainId": "0x868b"
      },
      "additionalContracts": [],
      "isFixedGasLimit": false
    },
    {
      "hash": "0x3fa06dd99e7265532d1240932e464fbeca58859e05ddf2d84efda04b9677260b",
      "transactionType": "CALL",
      "contractName": null,
      "contractAddress": "0x3ec3849c33291a9ef4c5db86de593eb4a37fde45",
      "function": "send((uint32,bytes32,uint256,uint256,bytes,bytes,bytes),(uint256,uint256),address)",
      "arguments": [
        "(30101, 0x000000000000000000000000b0e1650a9760e0f383174af042091fc544b8356f, 10000000000000, 10000000000000, 0x0003, 0x, 0x)",
        "(1355712406919636, 0)",
        "0xb0E1650A9760e0f383174af042091fc544b8356f"
      ],
      "transaction": {
        "from": "0xb0e1650a9760e0f383174af042091fc544b8356f",
        "to": "0x3ec3849c33291a9ef4c5db86de593eb4a37fde45",
        "gas": "0x5a9b1",
        "value": "0x4d103646e99d4",
        "input": "0xc7c7f5b300000000000000000000000000000000000000000000000000000000000000800000000000000000000000000000000000000000000000000004d103646e99d40000000000000000000000000000000000000000000000000000000000000000000000000000000000000000b0e1650a9760e0f383174af042091fc544b8356f0000000000000000000000000000000000000000000000000000000000007595000000000000000000000000b0e1650a9760e0f383174af042091fc544b8356f000000000000000000000000000000000000000000000000000009184e72a000000000000000000000000000000000000000000000000000000009184e72a00000000000000000000000000000000000000000000000000000000000000000e0000000000000000000000000000000000000000000000000000000000000012000000000000000000000000000000000000000000000000000000000000001400000000000000000000000000000000000000000000000000000000000000002000300000000000000000000000000000000000000000000000000000000000000000000000000000000000000000000000000000000000000000000000000000000000000000000000000000000000000000000000000000000000000000000",
        "nonce": "0x19",
        "chainId": "0x868b"
      },
      "additionalContracts": [],
      "isFixedGasLimit": false
    },
    {
      "hash": "0x181eee2c8d28775b8e031a7ec9a0d59f3c039fabd2abbc0417f5dd7dfbc6f4f9",
      "transactionType": "CALL",
      "contractName": null,
      "contractAddress": "0x80eede496655fb9047dd39d9f418d5483ed600df",
      "function": "send((uint32,bytes32,uint256,uint256,bytes,bytes,bytes),(uint256,uint256),address)",
      "arguments": [
        "(30101, 0x000000000000000000000000b0e1650a9760e0f383174af042091fc544b8356f, 10000000000000, 10000000000000, 0x0003, 0x, 0x)",
        "(1355712406919636, 0)",
        "0xb0E1650A9760e0f383174af042091fc544b8356f"
      ],
      "transaction": {
        "from": "0xb0e1650a9760e0f383174af042091fc544b8356f",
        "to": "0x80eede496655fb9047dd39d9f418d5483ed600df",
        "gas": "0x5a9b1",
        "value": "0x4d103646e99d4",
        "input": "0xc7c7f5b300000000000000000000000000000000000000000000000000000000000000800000000000000000000000000000000000000000000000000004d103646e99d40000000000000000000000000000000000000000000000000000000000000000000000000000000000000000b0e1650a9760e0f383174af042091fc544b8356f0000000000000000000000000000000000000000000000000000000000007595000000000000000000000000b0e1650a9760e0f383174af042091fc544b8356f000000000000000000000000000000000000000000000000000009184e72a000000000000000000000000000000000000000000000000000000009184e72a00000000000000000000000000000000000000000000000000000000000000000e0000000000000000000000000000000000000000000000000000000000000012000000000000000000000000000000000000000000000000000000000000001400000000000000000000000000000000000000000000000000000000000000002000300000000000000000000000000000000000000000000000000000000000000000000000000000000000000000000000000000000000000000000000000000000000000000000000000000000000000000000000000000000000000000000",
        "nonce": "0x1a",
        "chainId": "0x868b"
      },
      "additionalContracts": [],
      "isFixedGasLimit": false
    },
    {
      "hash": "0xf1f39a6cf72abff9190eabfc07024394fe4514dfc17dc8d59683d5e69c399d42",
      "transactionType": "CALL",
      "contractName": null,
      "contractAddress": "0x64445f0aecc51e94ad52d8ac56b7190e764e561a",
      "function": "send((uint32,bytes32,uint256,uint256,bytes,bytes,bytes),(uint256,uint256),address)",
      "arguments": [
        "(30243, 0x000000000000000000000000b0e1650a9760e0f383174af042091fc544b8356f, 10000000000000, 10000000000000, 0x0003, 0x, 0x)",
        "(178718194969607, 0)",
        "0xb0E1650A9760e0f383174af042091fc544b8356f"
      ],
      "transaction": {
        "from": "0xb0e1650a9760e0f383174af042091fc544b8356f",
        "to": "0x64445f0aecc51e94ad52d8ac56b7190e764e561a",
        "gas": "0x5ce44",
        "value": "0xa28b1286ac07",
        "input": "0xc7c7f5b300000000000000000000000000000000000000000000000000000000000000800000000000000000000000000000000000000000000000000000a28b1286ac070000000000000000000000000000000000000000000000000000000000000000000000000000000000000000b0e1650a9760e0f383174af042091fc544b8356f0000000000000000000000000000000000000000000000000000000000007623000000000000000000000000b0e1650a9760e0f383174af042091fc544b8356f000000000000000000000000000000000000000000000000000009184e72a000000000000000000000000000000000000000000000000000000009184e72a00000000000000000000000000000000000000000000000000000000000000000e0000000000000000000000000000000000000000000000000000000000000012000000000000000000000000000000000000000000000000000000000000001400000000000000000000000000000000000000000000000000000000000000002000300000000000000000000000000000000000000000000000000000000000000000000000000000000000000000000000000000000000000000000000000000000000000000000000000000000000000000000000000000000000000000000",
        "nonce": "0x1b",
        "chainId": "0x868b"
      },
      "additionalContracts": [],
      "isFixedGasLimit": false
    },
    {
      "hash": "0xaef02f6bb91f1242d0323137e183b122285102891acbb8a2c40d6beb9738f8dd",
      "transactionType": "CALL",
      "contractName": null,
      "contractAddress": "0x5bff88ca1442c2496f7e475e9e7786383bc070c0",
      "function": "send((uint32,bytes32,uint256,uint256,bytes,bytes,bytes),(uint256,uint256),address)",
      "arguments": [
        "(30243, 0x000000000000000000000000b0e1650a9760e0f383174af042091fc544b8356f, 10000000000000, 10000000000000, 0x0003, 0x, 0x)",
        "(178718194969607, 0)",
        "0xb0E1650A9760e0f383174af042091fc544b8356f"
      ],
      "transaction": {
        "from": "0xb0e1650a9760e0f383174af042091fc544b8356f",
        "to": "0x5bff88ca1442c2496f7e475e9e7786383bc070c0",
        "gas": "0x5ce44",
        "value": "0xa28b1286ac07",
        "input": "0xc7c7f5b300000000000000000000000000000000000000000000000000000000000000800000000000000000000000000000000000000000000000000000a28b1286ac070000000000000000000000000000000000000000000000000000000000000000000000000000000000000000b0e1650a9760e0f383174af042091fc544b8356f0000000000000000000000000000000000000000000000000000000000007623000000000000000000000000b0e1650a9760e0f383174af042091fc544b8356f000000000000000000000000000000000000000000000000000009184e72a000000000000000000000000000000000000000000000000000000009184e72a00000000000000000000000000000000000000000000000000000000000000000e0000000000000000000000000000000000000000000000000000000000000012000000000000000000000000000000000000000000000000000000000000001400000000000000000000000000000000000000000000000000000000000000002000300000000000000000000000000000000000000000000000000000000000000000000000000000000000000000000000000000000000000000000000000000000000000000000000000000000000000000000000000000000000000000000",
        "nonce": "0x1c",
        "chainId": "0x868b"
      },
      "additionalContracts": [],
      "isFixedGasLimit": false
    },
    {
      "hash": "0xd48ee94511694593d6e090712dde3c6a3123b4217957059f8ca000f3bdc9ceef",
      "transactionType": "CALL",
      "contractName": null,
      "contractAddress": "0x3ec3849c33291a9ef4c5db86de593eb4a37fde45",
      "function": "send((uint32,bytes32,uint256,uint256,bytes,bytes,bytes),(uint256,uint256),address)",
      "arguments": [
        "(30243, 0x000000000000000000000000b0e1650a9760e0f383174af042091fc544b8356f, 10000000000000, 10000000000000, 0x0003, 0x, 0x)",
        "(178718194969607, 0)",
        "0xb0E1650A9760e0f383174af042091fc544b8356f"
      ],
      "transaction": {
        "from": "0xb0e1650a9760e0f383174af042091fc544b8356f",
        "to": "0x3ec3849c33291a9ef4c5db86de593eb4a37fde45",
        "gas": "0x5ce44",
        "value": "0xa28b1286ac07",
        "input": "0xc7c7f5b300000000000000000000000000000000000000000000000000000000000000800000000000000000000000000000000000000000000000000000a28b1286ac070000000000000000000000000000000000000000000000000000000000000000000000000000000000000000b0e1650a9760e0f383174af042091fc544b8356f0000000000000000000000000000000000000000000000000000000000007623000000000000000000000000b0e1650a9760e0f383174af042091fc544b8356f000000000000000000000000000000000000000000000000000009184e72a000000000000000000000000000000000000000000000000000000009184e72a00000000000000000000000000000000000000000000000000000000000000000e0000000000000000000000000000000000000000000000000000000000000012000000000000000000000000000000000000000000000000000000000000001400000000000000000000000000000000000000000000000000000000000000002000300000000000000000000000000000000000000000000000000000000000000000000000000000000000000000000000000000000000000000000000000000000000000000000000000000000000000000000000000000000000000000000",
        "nonce": "0x1d",
        "chainId": "0x868b"
      },
      "additionalContracts": [],
      "isFixedGasLimit": false
    },
    {
      "hash": "0x04d1d7861adc6b9de079f1424f7d4f055397cb0e0745d95061bfd529527b7ba0",
      "transactionType": "CALL",
      "contractName": null,
      "contractAddress": "0x80eede496655fb9047dd39d9f418d5483ed600df",
      "function": "send((uint32,bytes32,uint256,uint256,bytes,bytes,bytes),(uint256,uint256),address)",
      "arguments": [
        "(30243, 0x000000000000000000000000b0e1650a9760e0f383174af042091fc544b8356f, 10000000000000, 10000000000000, 0x0003, 0x, 0x)",
        "(178718194969607, 0)",
        "0xb0E1650A9760e0f383174af042091fc544b8356f"
      ],
      "transaction": {
        "from": "0xb0e1650a9760e0f383174af042091fc544b8356f",
        "to": "0x80eede496655fb9047dd39d9f418d5483ed600df",
        "gas": "0x5ce44",
        "value": "0xa28b1286ac07",
        "input": "0xc7c7f5b300000000000000000000000000000000000000000000000000000000000000800000000000000000000000000000000000000000000000000000a28b1286ac070000000000000000000000000000000000000000000000000000000000000000000000000000000000000000b0e1650a9760e0f383174af042091fc544b8356f0000000000000000000000000000000000000000000000000000000000007623000000000000000000000000b0e1650a9760e0f383174af042091fc544b8356f000000000000000000000000000000000000000000000000000009184e72a000000000000000000000000000000000000000000000000000000009184e72a00000000000000000000000000000000000000000000000000000000000000000e0000000000000000000000000000000000000000000000000000000000000012000000000000000000000000000000000000000000000000000000000000001400000000000000000000000000000000000000000000000000000000000000002000300000000000000000000000000000000000000000000000000000000000000000000000000000000000000000000000000000000000000000000000000000000000000000000000000000000000000000000000000000000000000000000",
        "nonce": "0x1e",
        "chainId": "0x868b"
      },
      "additionalContracts": [],
      "isFixedGasLimit": false
    },
    {
      "hash": "0x58afe488f20cfedd1425b6016d169681cdea320628fa62df2aefc84f5c5e4b44",
      "transactionType": "CALL",
      "contractName": null,
      "contractAddress": "0x64445f0aecc51e94ad52d8ac56b7190e764e561a",
      "function": "send((uint32,bytes32,uint256,uint256,bytes,bytes,bytes),(uint256,uint256),address)",
      "arguments": [
        "(30151, 0x000000000000000000000000b0e1650a9760e0f383174af042091fc544b8356f, 10000000000000, 10000000000000, 0x0003, 0x, 0x)",
        "(175115161998292, 0)",
        "0xb0E1650A9760e0f383174af042091fc544b8356f"
      ],
      "transaction": {
        "from": "0xb0e1650a9760e0f383174af042091fc544b8356f",
        "to": "0x64445f0aecc51e94ad52d8ac56b7190e764e561a",
        "gas": "0x5aa39",
        "value": "0x9f442d0693d4",
        "input": "0xc7c7f5b3000000000000000000000000000000000000000000000000000000000000008000000000000000000000000000000000000000000000000000009f442d0693d40000000000000000000000000000000000000000000000000000000000000000000000000000000000000000b0e1650a9760e0f383174af042091fc544b8356f00000000000000000000000000000000000000000000000000000000000075c7000000000000000000000000b0e1650a9760e0f383174af042091fc544b8356f000000000000000000000000000000000000000000000000000009184e72a000000000000000000000000000000000000000000000000000000009184e72a00000000000000000000000000000000000000000000000000000000000000000e0000000000000000000000000000000000000000000000000000000000000012000000000000000000000000000000000000000000000000000000000000001400000000000000000000000000000000000000000000000000000000000000002000300000000000000000000000000000000000000000000000000000000000000000000000000000000000000000000000000000000000000000000000000000000000000000000000000000000000000000000000000000000000000000000",
        "nonce": "0x1f",
        "chainId": "0x868b"
      },
      "additionalContracts": [],
      "isFixedGasLimit": false
    },
    {
      "hash": "0xb42332ac99648cab164060b5ffb5e5c239d5f8a0f9ee0327ca396b5322c34370",
      "transactionType": "CALL",
      "contractName": null,
      "contractAddress": "0x5bff88ca1442c2496f7e475e9e7786383bc070c0",
      "function": "send((uint32,bytes32,uint256,uint256,bytes,bytes,bytes),(uint256,uint256),address)",
      "arguments": [
        "(30151, 0x000000000000000000000000b0e1650a9760e0f383174af042091fc544b8356f, 10000000000000, 10000000000000, 0x0003, 0x, 0x)",
        "(175115161998292, 0)",
        "0xb0E1650A9760e0f383174af042091fc544b8356f"
      ],
      "transaction": {
        "from": "0xb0e1650a9760e0f383174af042091fc544b8356f",
        "to": "0x5bff88ca1442c2496f7e475e9e7786383bc070c0",
        "gas": "0x5aa39",
        "value": "0x9f442d0693d4",
        "input": "0xc7c7f5b3000000000000000000000000000000000000000000000000000000000000008000000000000000000000000000000000000000000000000000009f442d0693d40000000000000000000000000000000000000000000000000000000000000000000000000000000000000000b0e1650a9760e0f383174af042091fc544b8356f00000000000000000000000000000000000000000000000000000000000075c7000000000000000000000000b0e1650a9760e0f383174af042091fc544b8356f000000000000000000000000000000000000000000000000000009184e72a000000000000000000000000000000000000000000000000000000009184e72a00000000000000000000000000000000000000000000000000000000000000000e0000000000000000000000000000000000000000000000000000000000000012000000000000000000000000000000000000000000000000000000000000001400000000000000000000000000000000000000000000000000000000000000002000300000000000000000000000000000000000000000000000000000000000000000000000000000000000000000000000000000000000000000000000000000000000000000000000000000000000000000000000000000000000000000000",
        "nonce": "0x20",
        "chainId": "0x868b"
      },
      "additionalContracts": [],
      "isFixedGasLimit": false
    },
    {
      "hash": "0xac0ed56040119e13ac5c4edef2643815626077914f2ab2d4a687a89692b23e97",
      "transactionType": "CALL",
      "contractName": null,
      "contractAddress": "0x3ec3849c33291a9ef4c5db86de593eb4a37fde45",
      "function": "send((uint32,bytes32,uint256,uint256,bytes,bytes,bytes),(uint256,uint256),address)",
      "arguments": [
        "(30151, 0x000000000000000000000000b0e1650a9760e0f383174af042091fc544b8356f, 10000000000000, 10000000000000, 0x0003, 0x, 0x)",
        "(175115161998292, 0)",
        "0xb0E1650A9760e0f383174af042091fc544b8356f"
      ],
      "transaction": {
        "from": "0xb0e1650a9760e0f383174af042091fc544b8356f",
        "to": "0x3ec3849c33291a9ef4c5db86de593eb4a37fde45",
        "gas": "0x5aa39",
        "value": "0x9f442d0693d4",
        "input": "0xc7c7f5b3000000000000000000000000000000000000000000000000000000000000008000000000000000000000000000000000000000000000000000009f442d0693d40000000000000000000000000000000000000000000000000000000000000000000000000000000000000000b0e1650a9760e0f383174af042091fc544b8356f00000000000000000000000000000000000000000000000000000000000075c7000000000000000000000000b0e1650a9760e0f383174af042091fc544b8356f000000000000000000000000000000000000000000000000000009184e72a000000000000000000000000000000000000000000000000000000009184e72a00000000000000000000000000000000000000000000000000000000000000000e0000000000000000000000000000000000000000000000000000000000000012000000000000000000000000000000000000000000000000000000000000001400000000000000000000000000000000000000000000000000000000000000002000300000000000000000000000000000000000000000000000000000000000000000000000000000000000000000000000000000000000000000000000000000000000000000000000000000000000000000000000000000000000000000000",
        "nonce": "0x21",
        "chainId": "0x868b"
      },
      "additionalContracts": [],
      "isFixedGasLimit": false
    },
    {
      "hash": "0x437eae7f37604c2aef89d05a899c11dba80d812ac6f69724c16643c345b8f5f9",
      "transactionType": "CALL",
      "contractName": null,
      "contractAddress": "0x80eede496655fb9047dd39d9f418d5483ed600df",
      "function": "send((uint32,bytes32,uint256,uint256,bytes,bytes,bytes),(uint256,uint256),address)",
      "arguments": [
        "(30151, 0x000000000000000000000000b0e1650a9760e0f383174af042091fc544b8356f, 10000000000000, 10000000000000, 0x0003, 0x, 0x)",
        "(175115161998292, 0)",
        "0xb0E1650A9760e0f383174af042091fc544b8356f"
      ],
      "transaction": {
        "from": "0xb0e1650a9760e0f383174af042091fc544b8356f",
        "to": "0x80eede496655fb9047dd39d9f418d5483ed600df",
        "gas": "0x5aa39",
        "value": "0x9f442d0693d4",
        "input": "0xc7c7f5b3000000000000000000000000000000000000000000000000000000000000008000000000000000000000000000000000000000000000000000009f442d0693d40000000000000000000000000000000000000000000000000000000000000000000000000000000000000000b0e1650a9760e0f383174af042091fc544b8356f00000000000000000000000000000000000000000000000000000000000075c7000000000000000000000000b0e1650a9760e0f383174af042091fc544b8356f000000000000000000000000000000000000000000000000000009184e72a000000000000000000000000000000000000000000000000000000009184e72a00000000000000000000000000000000000000000000000000000000000000000e0000000000000000000000000000000000000000000000000000000000000012000000000000000000000000000000000000000000000000000000000000001400000000000000000000000000000000000000000000000000000000000000002000300000000000000000000000000000000000000000000000000000000000000000000000000000000000000000000000000000000000000000000000000000000000000000000000000000000000000000000000000000000000000000000",
        "nonce": "0x22",
        "chainId": "0x868b"
      },
      "additionalContracts": [],
      "isFixedGasLimit": false
    },
    {
      "hash": "0xb9d7f7e0094dd1592b7e6eee737df26e74034b9b3eea1d85c18045ded1d62221",
      "transactionType": "CALL",
      "contractName": null,
      "contractAddress": "0x64445f0aecc51e94ad52d8ac56b7190e764e561a",
      "function": "send((uint32,bytes32,uint256,uint256,bytes,bytes,bytes),(uint256,uint256),address)",
      "arguments": [
        "(30184, 0x000000000000000000000000b0e1650a9760e0f383174af042091fc544b8356f, 10000000000000, 10000000000000, 0x0003, 0x, 0x)",
        "(9553414268733, 0)",
        "0xb0E1650A9760e0f383174af042091fc544b8356f"
      ],
      "transaction": {
        "from": "0xb0e1650a9760e0f383174af042091fc544b8356f",
        "to": "0x64445f0aecc51e94ad52d8ac56b7190e764e561a",
        "gas": "0x5aa39",
        "value": "0x8b053dd273d",
        "input": "0xc7c7f5b30000000000000000000000000000000000000000000000000000000000000080000000000000000000000000000000000000000000000000000008b053dd273d0000000000000000000000000000000000000000000000000000000000000000000000000000000000000000b0e1650a9760e0f383174af042091fc544b8356f00000000000000000000000000000000000000000000000000000000000075e8000000000000000000000000b0e1650a9760e0f383174af042091fc544b8356f000000000000000000000000000000000000000000000000000009184e72a000000000000000000000000000000000000000000000000000000009184e72a00000000000000000000000000000000000000000000000000000000000000000e0000000000000000000000000000000000000000000000000000000000000012000000000000000000000000000000000000000000000000000000000000001400000000000000000000000000000000000000000000000000000000000000002000300000000000000000000000000000000000000000000000000000000000000000000000000000000000000000000000000000000000000000000000000000000000000000000000000000000000000000000000000000000000000000000",
        "nonce": "0x23",
        "chainId": "0x868b"
      },
      "additionalContracts": [],
      "isFixedGasLimit": false
    },
    {
      "hash": "0x83e692299ab90a5acd49fb0d3c2ab46b5baecf4da02b5d016d040bbfbd445117",
      "transactionType": "CALL",
      "contractName": null,
      "contractAddress": "0x5bff88ca1442c2496f7e475e9e7786383bc070c0",
      "function": "send((uint32,bytes32,uint256,uint256,bytes,bytes,bytes),(uint256,uint256),address)",
      "arguments": [
        "(30184, 0x000000000000000000000000b0e1650a9760e0f383174af042091fc544b8356f, 10000000000000, 10000000000000, 0x0003, 0x, 0x)",
        "(9553414268733, 0)",
        "0xb0E1650A9760e0f383174af042091fc544b8356f"
      ],
      "transaction": {
        "from": "0xb0e1650a9760e0f383174af042091fc544b8356f",
        "to": "0x5bff88ca1442c2496f7e475e9e7786383bc070c0",
        "gas": "0x5aa39",
        "value": "0x8b053dd273d",
        "input": "0xc7c7f5b30000000000000000000000000000000000000000000000000000000000000080000000000000000000000000000000000000000000000000000008b053dd273d0000000000000000000000000000000000000000000000000000000000000000000000000000000000000000b0e1650a9760e0f383174af042091fc544b8356f00000000000000000000000000000000000000000000000000000000000075e8000000000000000000000000b0e1650a9760e0f383174af042091fc544b8356f000000000000000000000000000000000000000000000000000009184e72a000000000000000000000000000000000000000000000000000000009184e72a00000000000000000000000000000000000000000000000000000000000000000e0000000000000000000000000000000000000000000000000000000000000012000000000000000000000000000000000000000000000000000000000000001400000000000000000000000000000000000000000000000000000000000000002000300000000000000000000000000000000000000000000000000000000000000000000000000000000000000000000000000000000000000000000000000000000000000000000000000000000000000000000000000000000000000000000",
        "nonce": "0x24",
        "chainId": "0x868b"
      },
      "additionalContracts": [],
      "isFixedGasLimit": false
    },
    {
      "hash": "0xc9eb0012d1c5b2dfe986e9d088432303d325c25d1de71f8d070d1332ee4aa4b2",
      "transactionType": "CALL",
      "contractName": null,
      "contractAddress": "0x3ec3849c33291a9ef4c5db86de593eb4a37fde45",
      "function": "send((uint32,bytes32,uint256,uint256,bytes,bytes,bytes),(uint256,uint256),address)",
      "arguments": [
        "(30184, 0x000000000000000000000000b0e1650a9760e0f383174af042091fc544b8356f, 10000000000000, 10000000000000, 0x0003, 0x, 0x)",
        "(9553414268733, 0)",
        "0xb0E1650A9760e0f383174af042091fc544b8356f"
      ],
      "transaction": {
        "from": "0xb0e1650a9760e0f383174af042091fc544b8356f",
        "to": "0x3ec3849c33291a9ef4c5db86de593eb4a37fde45",
        "gas": "0x5aa39",
        "value": "0x8b053dd273d",
        "input": "0xc7c7f5b30000000000000000000000000000000000000000000000000000000000000080000000000000000000000000000000000000000000000000000008b053dd273d0000000000000000000000000000000000000000000000000000000000000000000000000000000000000000b0e1650a9760e0f383174af042091fc544b8356f00000000000000000000000000000000000000000000000000000000000075e8000000000000000000000000b0e1650a9760e0f383174af042091fc544b8356f000000000000000000000000000000000000000000000000000009184e72a000000000000000000000000000000000000000000000000000000009184e72a00000000000000000000000000000000000000000000000000000000000000000e0000000000000000000000000000000000000000000000000000000000000012000000000000000000000000000000000000000000000000000000000000001400000000000000000000000000000000000000000000000000000000000000002000300000000000000000000000000000000000000000000000000000000000000000000000000000000000000000000000000000000000000000000000000000000000000000000000000000000000000000000000000000000000000000000",
        "nonce": "0x25",
        "chainId": "0x868b"
      },
      "additionalContracts": [],
      "isFixedGasLimit": false
    },
    {
      "hash": "0x8d10feae537d118174044368f51f34b995f55634890a6e60df08438d29bb11df",
      "transactionType": "CALL",
      "contractName": null,
      "contractAddress": "0x80eede496655fb9047dd39d9f418d5483ed600df",
      "function": "send((uint32,bytes32,uint256,uint256,bytes,bytes,bytes),(uint256,uint256),address)",
      "arguments": [
        "(30184, 0x000000000000000000000000b0e1650a9760e0f383174af042091fc544b8356f, 10000000000000, 10000000000000, 0x0003, 0x, 0x)",
        "(9553414268733, 0)",
        "0xb0E1650A9760e0f383174af042091fc544b8356f"
      ],
      "transaction": {
        "from": "0xb0e1650a9760e0f383174af042091fc544b8356f",
        "to": "0x80eede496655fb9047dd39d9f418d5483ed600df",
        "gas": "0x5aa39",
        "value": "0x8b053dd273d",
        "input": "0xc7c7f5b30000000000000000000000000000000000000000000000000000000000000080000000000000000000000000000000000000000000000000000008b053dd273d0000000000000000000000000000000000000000000000000000000000000000000000000000000000000000b0e1650a9760e0f383174af042091fc544b8356f00000000000000000000000000000000000000000000000000000000000075e8000000000000000000000000b0e1650a9760e0f383174af042091fc544b8356f000000000000000000000000000000000000000000000000000009184e72a000000000000000000000000000000000000000000000000000000009184e72a00000000000000000000000000000000000000000000000000000000000000000e0000000000000000000000000000000000000000000000000000000000000012000000000000000000000000000000000000000000000000000000000000001400000000000000000000000000000000000000000000000000000000000000002000300000000000000000000000000000000000000000000000000000000000000000000000000000000000000000000000000000000000000000000000000000000000000000000000000000000000000000000000000000000000000000000",
        "nonce": "0x26",
        "chainId": "0x868b"
      },
      "additionalContracts": [],
      "isFixedGasLimit": false
    }
  ],
  "receipts": [
    {
      "status": "0x1",
      "cumulativeGasUsed": "0xcfb39",
      "logs": [
        {
          "address": "0x64445f0aecc51e94ad52d8ac56b7190e764e561a",
          "topics": [
            "0xddf252ad1be2c89b69c2b068fc378daa952ba7f163c4a11628f55a4df523b3ef",
            "0x000000000000000000000000b0e1650a9760e0f383174af042091fc544b8356f",
            "0x0000000000000000000000000000000000000000000000000000000000000000"
          ],
          "data": "0x000000000000000000000000000000000000000000000000000009184e72a000",
          "blockHash": "0x27ddec01acf3c5802d65f119a0f4a73588fb78ec2d05ec26a3be2fe6c7f424e4",
          "blockNumber": "0x94689d",
          "transactionHash": "0x0299ba6e97ef5e95253492590de07bae13538018f5de1eb2cd70d661630446c2",
          "transactionIndex": "0x7",
          "logIndex": "0xe",
          "removed": false
        },
        {
          "address": "0x2367325334447c5e1e0f1b3a6fb947b262f58312",
          "topics": [
            "0x61ed099e74a97a1d7f8bb0952a88ca8b7b8ebd00c126ea04671f92a81213318a"
          ],
          "data": "0x0000000000000000000000004208d6e27538189bb48e603d6123a94b8abe0a0b0000000000000000000000000000000000000000000000000003bc28304d69e4",
          "blockHash": "0x27ddec01acf3c5802d65f119a0f4a73588fb78ec2d05ec26a3be2fe6c7f424e4",
          "blockNumber": "0x94689d",
          "transactionHash": "0x0299ba6e97ef5e95253492590de07bae13538018f5de1eb2cd70d661630446c2",
          "transactionIndex": "0x7",
          "logIndex": "0xf",
          "removed": false
        },
        {
          "address": "0x2367325334447c5e1e0f1b3a6fb947b262f58312",
          "topics": [
            "0x07ea52d82345d6e838192107d8fd7123d9c2ec8e916cd0aad13fd2b60db24644"
          ],
          "data": "0x000000000000000000000000000000000000000000000000000000000000006000000000000000000000000000000000000000000000000000000000000000c000000000000000000000000000000000000000000000000000000000000000e00000000000000000000000000000000000000000000000000000000000000002000000000000000000000000acde1f22eeab249d3ca6ba8805c8fee9f52a16e7000000000000000000000000ce8358bc28dd8296ce8caf1cd2b44787abd658870000000000000000000000000000000000000000000000000000000000000000000000000000000000000000000000000000000000000000000000000000000200000000000000000000000000000000000000000000000000008a6d9a1097f800000000000000000000000000000000000000000000000000008a6d9a1097f8",
          "blockHash": "0x27ddec01acf3c5802d65f119a0f4a73588fb78ec2d05ec26a3be2fe6c7f424e4",
          "blockNumber": "0x94689d",
          "transactionHash": "0x0299ba6e97ef5e95253492590de07bae13538018f5de1eb2cd70d661630446c2",
          "transactionIndex": "0x7",
          "logIndex": "0x10",
          "removed": false
        },
        {
          "address": "0x1a44076050125825900e736c501f859c50fe728c",
          "topics": [
            "0x1ab700d4ced0c005b164c0f789fd09fcbb0156d4c2041b8a3bfbcd961cd1567f"
          ],
          "data": "0x000000000000000000000000000000000000000000000000000000000000006000000000000000000000000000000000000000000000000000000000000001200000000000000000000000002367325334447c5e1e0f1b3a6fb947b262f5831200000000000000000000000000000000000000000000000000000000000000990100000000000000030000763400000000000000000000000064445f0aecc51e94ad52d8ac56b7190e764e561a0000759500000000000000000000000023432452b720c80553458496d4d9d7c5003280d01a80a9e6e517026c35a83b9e6e009545e9490af84003bead61953979c753864f000000000000000000000000b0e1650a9760e0f383174af042091fc544b8356f000000000000000a00000000000000000000000000000000000000000000000000000000000000000000000000001600030100110100000000000000000000000000030d4000000000000000000000",
          "blockHash": "0x27ddec01acf3c5802d65f119a0f4a73588fb78ec2d05ec26a3be2fe6c7f424e4",
          "blockNumber": "0x94689d",
          "transactionHash": "0x0299ba6e97ef5e95253492590de07bae13538018f5de1eb2cd70d661630446c2",
          "transactionIndex": "0x7",
          "logIndex": "0x11",
          "removed": false
        },
        {
          "address": "0x64445f0aecc51e94ad52d8ac56b7190e764e561a",
          "topics": [
            "0x85496b760a4b7f8d66384b9df21b381f5d1b1e79f229a47aaf4c232edc2fe59a",
            "0x1a80a9e6e517026c35a83b9e6e009545e9490af84003bead61953979c753864f",
            "0x000000000000000000000000b0e1650a9760e0f383174af042091fc544b8356f"
          ],
          "data": "0x0000000000000000000000000000000000000000000000000000000000007595000000000000000000000000000000000000000000000000000009184e72a000000000000000000000000000000000000000000000000000000009184e72a000",
          "blockHash": "0x27ddec01acf3c5802d65f119a0f4a73588fb78ec2d05ec26a3be2fe6c7f424e4",
          "blockNumber": "0x94689d",
          "transactionHash": "0x0299ba6e97ef5e95253492590de07bae13538018f5de1eb2cd70d661630446c2",
          "transactionIndex": "0x7",
          "logIndex": "0x12",
          "removed": false
        }
      ],
      "logsBloom": "0x00000002000000000000000000000000000000000000000000000000001000000000000000000000000000000000000000000000000000000000000000000000002002000000000000000008000000000000000000000000000000000000000000000000020000008000000000000800000000000110080000010010000000000000000000000000000000080000000000000000210000200000000000000000000000008000000000100008000000000000000000400000000440000000000000000082000000000000000080000000000000000000000000000000000020000000040080000000000000000000002000000008018000000000000000000000",
      "type": "0x2",
      "transactionHash": "0x0299ba6e97ef5e95253492590de07bae13538018f5de1eb2cd70d661630446c2",
      "transactionIndex": "0x7",
      "blockHash": "0x27ddec01acf3c5802d65f119a0f4a73588fb78ec2d05ec26a3be2fe6c7f424e4",
      "blockNumber": "0x94689d",
      "gasUsed": "0x4198e",
      "effectiveGasPrice": "0x6fe",
      "from": "0xb0e1650a9760e0f383174af042091fc544b8356f",
      "to": "0x64445f0aecc51e94ad52d8ac56b7190e764e561a",
      "contractAddress": null,
      "l1BaseFeeScalar": "0x4e20",
      "l1BlobBaseFee": "0x1",
      "l1BlobBaseFeeScalar": "0x95506",
      "l1Fee": "0x24946d79db",
      "l1GasPrice": "0x64d2a73b",
      "l1GasUsed": "0x1224"
    },
    {
      "status": "0x1",
      "cumulativeGasUsed": "0x2c29b5",
      "logs": [
        {
          "address": "0x5bff88ca1442c2496f7e475e9e7786383bc070c0",
          "topics": [
            "0xddf252ad1be2c89b69c2b068fc378daa952ba7f163c4a11628f55a4df523b3ef",
            "0x000000000000000000000000b0e1650a9760e0f383174af042091fc544b8356f",
            "0x0000000000000000000000000000000000000000000000000000000000000000"
          ],
          "data": "0x000000000000000000000000000000000000000000000000000009184e72a000",
          "blockHash": "0x27ddec01acf3c5802d65f119a0f4a73588fb78ec2d05ec26a3be2fe6c7f424e4",
          "blockNumber": "0x94689d",
          "transactionHash": "0x2dc7c878ec4d9304834ef39be8b525924b9ff80b9b75c9f0c6b2c1d552b46687",
          "transactionIndex": "0x9",
          "logIndex": "0x13",
          "removed": false
        },
        {
          "address": "0x2367325334447c5e1e0f1b3a6fb947b262f58312",
          "topics": [
            "0x61ed099e74a97a1d7f8bb0952a88ca8b7b8ebd00c126ea04671f92a81213318a"
          ],
          "data": "0x0000000000000000000000004208d6e27538189bb48e603d6123a94b8abe0a0b0000000000000000000000000000000000000000000000000003bc28304d69e4",
          "blockHash": "0x27ddec01acf3c5802d65f119a0f4a73588fb78ec2d05ec26a3be2fe6c7f424e4",
          "blockNumber": "0x94689d",
          "transactionHash": "0x2dc7c878ec4d9304834ef39be8b525924b9ff80b9b75c9f0c6b2c1d552b46687",
          "transactionIndex": "0x9",
          "logIndex": "0x14",
          "removed": false
        },
        {
          "address": "0x2367325334447c5e1e0f1b3a6fb947b262f58312",
          "topics": [
            "0x07ea52d82345d6e838192107d8fd7123d9c2ec8e916cd0aad13fd2b60db24644"
          ],
          "data": "0x000000000000000000000000000000000000000000000000000000000000006000000000000000000000000000000000000000000000000000000000000000c000000000000000000000000000000000000000000000000000000000000000e00000000000000000000000000000000000000000000000000000000000000002000000000000000000000000acde1f22eeab249d3ca6ba8805c8fee9f52a16e7000000000000000000000000ce8358bc28dd8296ce8caf1cd2b44787abd658870000000000000000000000000000000000000000000000000000000000000000000000000000000000000000000000000000000000000000000000000000000200000000000000000000000000000000000000000000000000008a6d9a1097f800000000000000000000000000000000000000000000000000008a6d9a1097f8",
          "blockHash": "0x27ddec01acf3c5802d65f119a0f4a73588fb78ec2d05ec26a3be2fe6c7f424e4",
          "blockNumber": "0x94689d",
          "transactionHash": "0x2dc7c878ec4d9304834ef39be8b525924b9ff80b9b75c9f0c6b2c1d552b46687",
          "transactionIndex": "0x9",
          "logIndex": "0x15",
          "removed": false
        },
        {
          "address": "0x1a44076050125825900e736c501f859c50fe728c",
          "topics": [
            "0x1ab700d4ced0c005b164c0f789fd09fcbb0156d4c2041b8a3bfbcd961cd1567f"
          ],
          "data": "0x000000000000000000000000000000000000000000000000000000000000006000000000000000000000000000000000000000000000000000000000000001200000000000000000000000002367325334447c5e1e0f1b3a6fb947b262f583120000000000000000000000000000000000000000000000000000000000000099010000000000000003000076340000000000000000000000005bff88ca1442c2496f7e475e9e7786383bc070c000007595000000000000000000000000e4796ccb6bb5de2290c417ac337f2b66ca2e770ec9a0ad1a8ced08cf09a0391c8106af09758d9411923f7211d53b1a71fdf3c258000000000000000000000000b0e1650a9760e0f383174af042091fc544b8356f000000000000000a00000000000000000000000000000000000000000000000000000000000000000000000000001600030100110100000000000000000000000000030d4000000000000000000000",
          "blockHash": "0x27ddec01acf3c5802d65f119a0f4a73588fb78ec2d05ec26a3be2fe6c7f424e4",
          "blockNumber": "0x94689d",
          "transactionHash": "0x2dc7c878ec4d9304834ef39be8b525924b9ff80b9b75c9f0c6b2c1d552b46687",
          "transactionIndex": "0x9",
          "logIndex": "0x16",
          "removed": false
        },
        {
          "address": "0x5bff88ca1442c2496f7e475e9e7786383bc070c0",
          "topics": [
            "0x85496b760a4b7f8d66384b9df21b381f5d1b1e79f229a47aaf4c232edc2fe59a",
            "0xc9a0ad1a8ced08cf09a0391c8106af09758d9411923f7211d53b1a71fdf3c258",
            "0x000000000000000000000000b0e1650a9760e0f383174af042091fc544b8356f"
          ],
          "data": "0x0000000000000000000000000000000000000000000000000000000000007595000000000000000000000000000000000000000000000000000009184e72a000000000000000000000000000000000000000000000000000000009184e72a000",
          "blockHash": "0x27ddec01acf3c5802d65f119a0f4a73588fb78ec2d05ec26a3be2fe6c7f424e4",
          "blockNumber": "0x94689d",
          "transactionHash": "0x2dc7c878ec4d9304834ef39be8b525924b9ff80b9b75c9f0c6b2c1d552b46687",
          "transactionIndex": "0x9",
          "logIndex": "0x17",
          "removed": false
        }
      ],
      "logsBloom": "0x00000000000000000000000000000000000000000000000000000000001000000000000000000000000000000000000000000000000000000000000000000000000002000000000000000008000000000000000000000000000000000000000000000000020000008000000000000800000000000110080000010010000000000000000000000000000000080000000000000000200000000000000000000000000000008000000000100000000000000000000000400000000440000010000000000082000000000000000080000000000000800000000000000000004020000000040084000000000000000000002000000000018000020000000000000800",
      "type": "0x2",
      "transactionHash": "0x2dc7c878ec4d9304834ef39be8b525924b9ff80b9b75c9f0c6b2c1d552b46687",
      "transactionIndex": "0x9",
      "blockHash": "0x27ddec01acf3c5802d65f119a0f4a73588fb78ec2d05ec26a3be2fe6c7f424e4",
      "blockNumber": "0x94689d",
      "gasUsed": "0x4198e",
      "effectiveGasPrice": "0x6fe",
      "from": "0xb0e1650a9760e0f383174af042091fc544b8356f",
      "to": "0x5bff88ca1442c2496f7e475e9e7786383bc070c0",
      "contractAddress": null,
      "l1BaseFeeScalar": "0x4e20",
      "l1BlobBaseFee": "0x1",
      "l1BlobBaseFeeScalar": "0x95506",
      "l1Fee": "0x24946d79db",
      "l1GasPrice": "0x64d2a73b",
      "l1GasUsed": "0x1224"
    },
    {
      "status": "0x1",
      "cumulativeGasUsed": "0x304343",
      "logs": [
        {
          "address": "0x3ec3849c33291a9ef4c5db86de593eb4a37fde45",
          "topics": [
            "0xddf252ad1be2c89b69c2b068fc378daa952ba7f163c4a11628f55a4df523b3ef",
            "0x000000000000000000000000b0e1650a9760e0f383174af042091fc544b8356f",
            "0x0000000000000000000000000000000000000000000000000000000000000000"
          ],
          "data": "0x000000000000000000000000000000000000000000000000000009184e72a000",
          "blockHash": "0x27ddec01acf3c5802d65f119a0f4a73588fb78ec2d05ec26a3be2fe6c7f424e4",
          "blockNumber": "0x94689d",
          "transactionHash": "0x3fa06dd99e7265532d1240932e464fbeca58859e05ddf2d84efda04b9677260b",
          "transactionIndex": "0xa",
          "logIndex": "0x18",
          "removed": false
        },
        {
          "address": "0x2367325334447c5e1e0f1b3a6fb947b262f58312",
          "topics": [
            "0x61ed099e74a97a1d7f8bb0952a88ca8b7b8ebd00c126ea04671f92a81213318a"
          ],
          "data": "0x0000000000000000000000004208d6e27538189bb48e603d6123a94b8abe0a0b0000000000000000000000000000000000000000000000000003bc28304d69e4",
          "blockHash": "0x27ddec01acf3c5802d65f119a0f4a73588fb78ec2d05ec26a3be2fe6c7f424e4",
          "blockNumber": "0x94689d",
          "transactionHash": "0x3fa06dd99e7265532d1240932e464fbeca58859e05ddf2d84efda04b9677260b",
          "transactionIndex": "0xa",
          "logIndex": "0x19",
          "removed": false
        },
        {
          "address": "0x2367325334447c5e1e0f1b3a6fb947b262f58312",
          "topics": [
            "0x07ea52d82345d6e838192107d8fd7123d9c2ec8e916cd0aad13fd2b60db24644"
          ],
          "data": "0x000000000000000000000000000000000000000000000000000000000000006000000000000000000000000000000000000000000000000000000000000000c000000000000000000000000000000000000000000000000000000000000000e00000000000000000000000000000000000000000000000000000000000000002000000000000000000000000acde1f22eeab249d3ca6ba8805c8fee9f52a16e7000000000000000000000000ce8358bc28dd8296ce8caf1cd2b44787abd658870000000000000000000000000000000000000000000000000000000000000000000000000000000000000000000000000000000000000000000000000000000200000000000000000000000000000000000000000000000000008a6d9a1097f800000000000000000000000000000000000000000000000000008a6d9a1097f8",
          "blockHash": "0x27ddec01acf3c5802d65f119a0f4a73588fb78ec2d05ec26a3be2fe6c7f424e4",
          "blockNumber": "0x94689d",
          "transactionHash": "0x3fa06dd99e7265532d1240932e464fbeca58859e05ddf2d84efda04b9677260b",
          "transactionIndex": "0xa",
          "logIndex": "0x1a",
          "removed": false
        },
        {
          "address": "0x1a44076050125825900e736c501f859c50fe728c",
          "topics": [
            "0x1ab700d4ced0c005b164c0f789fd09fcbb0156d4c2041b8a3bfbcd961cd1567f"
          ],
          "data": "0x000000000000000000000000000000000000000000000000000000000000006000000000000000000000000000000000000000000000000000000000000001200000000000000000000000002367325334447c5e1e0f1b3a6fb947b262f583120000000000000000000000000000000000000000000000000000000000000099010000000000000003000076340000000000000000000000003ec3849c33291a9ef4c5db86de593eb4a37fde45000075950000000000000000000000001f55a02a049033e3419a8e2975cf3f572f4e6e9a7d9ae9f03924777bcbbf072ea217f5e50721269dfe5208ad67c36ad5cb804e4d000000000000000000000000b0e1650a9760e0f383174af042091fc544b8356f000000000000000a00000000000000000000000000000000000000000000000000000000000000000000000000001600030100110100000000000000000000000000030d4000000000000000000000",
          "blockHash": "0x27ddec01acf3c5802d65f119a0f4a73588fb78ec2d05ec26a3be2fe6c7f424e4",
          "blockNumber": "0x94689d",
          "transactionHash": "0x3fa06dd99e7265532d1240932e464fbeca58859e05ddf2d84efda04b9677260b",
          "transactionIndex": "0xa",
          "logIndex": "0x1b",
          "removed": false
        },
        {
          "address": "0x3ec3849c33291a9ef4c5db86de593eb4a37fde45",
          "topics": [
            "0x85496b760a4b7f8d66384b9df21b381f5d1b1e79f229a47aaf4c232edc2fe59a",
            "0x7d9ae9f03924777bcbbf072ea217f5e50721269dfe5208ad67c36ad5cb804e4d",
            "0x000000000000000000000000b0e1650a9760e0f383174af042091fc544b8356f"
          ],
          "data": "0x0000000000000000000000000000000000000000000000000000000000007595000000000000000000000000000000000000000000000000000009184e72a000000000000000000000000000000000000000000000000000000009184e72a000",
          "blockHash": "0x27ddec01acf3c5802d65f119a0f4a73588fb78ec2d05ec26a3be2fe6c7f424e4",
          "blockNumber": "0x94689d",
          "transactionHash": "0x3fa06dd99e7265532d1240932e464fbeca58859e05ddf2d84efda04b9677260b",
          "transactionIndex": "0xa",
          "logIndex": "0x1c",
          "removed": false
        }
      ],
      "logsBloom": "0x00000000000000000000000000002000000000000000000000000000001000000000000000000000000000000000000000000000000000000000000000000010000002000000000000000008000000000000000000000000000000000000000000000000020000008000000000000800000000000110280000010010000000000000000000000000000000080000000000000000200020000040000000000000000000008000000000100000000000000000000000400000000440000000000000000082000000000000000080000000000000000000000000000000000020002000040080000000000000000000002000000000018000000000000000000000",
      "type": "0x2",
      "transactionHash": "0x3fa06dd99e7265532d1240932e464fbeca58859e05ddf2d84efda04b9677260b",
      "transactionIndex": "0xa",
      "blockHash": "0x27ddec01acf3c5802d65f119a0f4a73588fb78ec2d05ec26a3be2fe6c7f424e4",
      "blockNumber": "0x94689d",
      "gasUsed": "0x4198e",
      "effectiveGasPrice": "0x6fe",
      "from": "0xb0e1650a9760e0f383174af042091fc544b8356f",
      "to": "0x3ec3849c33291a9ef4c5db86de593eb4a37fde45",
      "contractAddress": null,
      "l1BaseFeeScalar": "0x4e20",
      "l1BlobBaseFee": "0x1",
      "l1BlobBaseFeeScalar": "0x95506",
      "l1Fee": "0x24946d79db",
      "l1GasPrice": "0x64d2a73b",
      "l1GasUsed": "0x1224"
    },
    {
      "status": "0x1",
      "cumulativeGasUsed": "0x345cd1",
      "logs": [
        {
          "address": "0x80eede496655fb9047dd39d9f418d5483ed600df",
          "topics": [
            "0xddf252ad1be2c89b69c2b068fc378daa952ba7f163c4a11628f55a4df523b3ef",
            "0x000000000000000000000000b0e1650a9760e0f383174af042091fc544b8356f",
            "0x0000000000000000000000000000000000000000000000000000000000000000"
          ],
          "data": "0x000000000000000000000000000000000000000000000000000009184e72a000",
          "blockHash": "0x27ddec01acf3c5802d65f119a0f4a73588fb78ec2d05ec26a3be2fe6c7f424e4",
          "blockNumber": "0x94689d",
          "transactionHash": "0x181eee2c8d28775b8e031a7ec9a0d59f3c039fabd2abbc0417f5dd7dfbc6f4f9",
          "transactionIndex": "0xb",
          "logIndex": "0x1d",
          "removed": false
        },
        {
          "address": "0x2367325334447c5e1e0f1b3a6fb947b262f58312",
          "topics": [
            "0x61ed099e74a97a1d7f8bb0952a88ca8b7b8ebd00c126ea04671f92a81213318a"
          ],
          "data": "0x0000000000000000000000004208d6e27538189bb48e603d6123a94b8abe0a0b0000000000000000000000000000000000000000000000000003bc28304d69e4",
          "blockHash": "0x27ddec01acf3c5802d65f119a0f4a73588fb78ec2d05ec26a3be2fe6c7f424e4",
          "blockNumber": "0x94689d",
          "transactionHash": "0x181eee2c8d28775b8e031a7ec9a0d59f3c039fabd2abbc0417f5dd7dfbc6f4f9",
          "transactionIndex": "0xb",
          "logIndex": "0x1e",
          "removed": false
        },
        {
          "address": "0x2367325334447c5e1e0f1b3a6fb947b262f58312",
          "topics": [
            "0x07ea52d82345d6e838192107d8fd7123d9c2ec8e916cd0aad13fd2b60db24644"
          ],
          "data": "0x000000000000000000000000000000000000000000000000000000000000006000000000000000000000000000000000000000000000000000000000000000c000000000000000000000000000000000000000000000000000000000000000e00000000000000000000000000000000000000000000000000000000000000002000000000000000000000000acde1f22eeab249d3ca6ba8805c8fee9f52a16e7000000000000000000000000ce8358bc28dd8296ce8caf1cd2b44787abd658870000000000000000000000000000000000000000000000000000000000000000000000000000000000000000000000000000000000000000000000000000000200000000000000000000000000000000000000000000000000008a6d9a1097f800000000000000000000000000000000000000000000000000008a6d9a1097f8",
          "blockHash": "0x27ddec01acf3c5802d65f119a0f4a73588fb78ec2d05ec26a3be2fe6c7f424e4",
          "blockNumber": "0x94689d",
          "transactionHash": "0x181eee2c8d28775b8e031a7ec9a0d59f3c039fabd2abbc0417f5dd7dfbc6f4f9",
          "transactionIndex": "0xb",
          "logIndex": "0x1f",
          "removed": false
        },
        {
          "address": "0x1a44076050125825900e736c501f859c50fe728c",
          "topics": [
            "0x1ab700d4ced0c005b164c0f789fd09fcbb0156d4c2041b8a3bfbcd961cd1567f"
          ],
          "data": "0x000000000000000000000000000000000000000000000000000000000000006000000000000000000000000000000000000000000000000000000000000001200000000000000000000000002367325334447c5e1e0f1b3a6fb947b262f5831200000000000000000000000000000000000000000000000000000000000000990100000000000000030000763400000000000000000000000080eede496655fb9047dd39d9f418d5483ed600df00007595000000000000000000000000909dbde1ebe906af95660033e478d59efe831fed039bcad2e8597bf1731366ce52995428aa1399a153aac213de1ac4ee24d86020000000000000000000000000b0e1650a9760e0f383174af042091fc544b8356f000000000000000a00000000000000000000000000000000000000000000000000000000000000000000000000001600030100110100000000000000000000000000030d4000000000000000000000",
          "blockHash": "0x27ddec01acf3c5802d65f119a0f4a73588fb78ec2d05ec26a3be2fe6c7f424e4",
          "blockNumber": "0x94689d",
          "transactionHash": "0x181eee2c8d28775b8e031a7ec9a0d59f3c039fabd2abbc0417f5dd7dfbc6f4f9",
          "transactionIndex": "0xb",
          "logIndex": "0x20",
          "removed": false
        },
        {
          "address": "0x80eede496655fb9047dd39d9f418d5483ed600df",
          "topics": [
            "0x85496b760a4b7f8d66384b9df21b381f5d1b1e79f229a47aaf4c232edc2fe59a",
            "0x039bcad2e8597bf1731366ce52995428aa1399a153aac213de1ac4ee24d86020",
            "0x000000000000000000000000b0e1650a9760e0f383174af042091fc544b8356f"
          ],
          "data": "0x0000000000000000000000000000000000000000000000000000000000007595000000000000000000000000000000000000000000000000000009184e72a000000000000000000000000000000000000000000000000000000009184e72a000",
          "blockHash": "0x27ddec01acf3c5802d65f119a0f4a73588fb78ec2d05ec26a3be2fe6c7f424e4",
          "blockNumber": "0x94689d",
          "transactionHash": "0x181eee2c8d28775b8e031a7ec9a0d59f3c039fabd2abbc0417f5dd7dfbc6f4f9",
          "transactionIndex": "0xb",
          "logIndex": "0x21",
          "removed": false
        }
      ],
      "logsBloom": "0x00000000000000000000000000000000000000000000000000000000001000000000000000000000000000000800000000000000000000000040000200800000000002000000000000000008000000000000000000000000000000000000000000000000020000008000000000000800000000000110080000010010010000000000000000000000000000080000000000000000200000000000000000000000000000008000000000100000000000000000000000400000000440000000000000000082000000000000008080000000000000000000000000000000000020000000040080000000000000000000002000000000018000000000000000000000",
      "type": "0x2",
      "transactionHash": "0x181eee2c8d28775b8e031a7ec9a0d59f3c039fabd2abbc0417f5dd7dfbc6f4f9",
      "transactionIndex": "0xb",
      "blockHash": "0x27ddec01acf3c5802d65f119a0f4a73588fb78ec2d05ec26a3be2fe6c7f424e4",
      "blockNumber": "0x94689d",
      "gasUsed": "0x4198e",
      "effectiveGasPrice": "0x6fe",
      "from": "0xb0e1650a9760e0f383174af042091fc544b8356f",
      "to": "0x80eede496655fb9047dd39d9f418d5483ed600df",
      "contractAddress": null,
      "l1BaseFeeScalar": "0x4e20",
      "l1BlobBaseFee": "0x1",
      "l1BlobBaseFeeScalar": "0x95506",
      "l1Fee": "0x247c3aeb52",
      "l1GasPrice": "0x64d2a73b",
      "l1GasUsed": "0x1218"
    },
    {
      "status": "0x1",
      "cumulativeGasUsed": "0x3890d9",
      "logs": [
        {
          "address": "0x64445f0aecc51e94ad52d8ac56b7190e764e561a",
          "topics": [
            "0xddf252ad1be2c89b69c2b068fc378daa952ba7f163c4a11628f55a4df523b3ef",
            "0x000000000000000000000000b0e1650a9760e0f383174af042091fc544b8356f",
            "0x0000000000000000000000000000000000000000000000000000000000000000"
          ],
          "data": "0x000000000000000000000000000000000000000000000000000009184e72a000",
          "blockHash": "0x27ddec01acf3c5802d65f119a0f4a73588fb78ec2d05ec26a3be2fe6c7f424e4",
          "blockNumber": "0x94689d",
          "transactionHash": "0xf1f39a6cf72abff9190eabfc07024394fe4514dfc17dc8d59683d5e69c399d42",
          "transactionIndex": "0xc",
          "logIndex": "0x22",
          "removed": false
        },
        {
          "address": "0x2367325334447c5e1e0f1b3a6fb947b262f58312",
          "topics": [
            "0x61ed099e74a97a1d7f8bb0952a88ca8b7b8ebd00c126ea04671f92a81213318a"
          ],
          "data": "0x0000000000000000000000004208d6e27538189bb48e603d6123a94b8abe0a0b000000000000000000000000000000000000000000000000000083d8aa59c7a1",
          "blockHash": "0x27ddec01acf3c5802d65f119a0f4a73588fb78ec2d05ec26a3be2fe6c7f424e4",
          "blockNumber": "0x94689d",
          "transactionHash": "0xf1f39a6cf72abff9190eabfc07024394fe4514dfc17dc8d59683d5e69c399d42",
          "transactionIndex": "0xc",
          "logIndex": "0x23",
          "removed": false
        },
        {
          "address": "0x2367325334447c5e1e0f1b3a6fb947b262f58312",
          "topics": [
            "0x07ea52d82345d6e838192107d8fd7123d9c2ec8e916cd0aad13fd2b60db24644"
          ],
          "data": "0x000000000000000000000000000000000000000000000000000000000000006000000000000000000000000000000000000000000000000000000000000000c000000000000000000000000000000000000000000000000000000000000000e00000000000000000000000000000000000000000000000000000000000000002000000000000000000000000acde1f22eeab249d3ca6ba8805c8fee9f52a16e7000000000000000000000000ce8358bc28dd8296ce8caf1cd2b44787abd658870000000000000000000000000000000000000000000000000000000000000000000000000000000000000000000000000000000000000000000000000000000200000000000000000000000000000000000000000000000000000f593416723300000000000000000000000000000000000000000000000000000f5934167233",
          "blockHash": "0x27ddec01acf3c5802d65f119a0f4a73588fb78ec2d05ec26a3be2fe6c7f424e4",
          "blockNumber": "0x94689d",
          "transactionHash": "0xf1f39a6cf72abff9190eabfc07024394fe4514dfc17dc8d59683d5e69c399d42",
          "transactionIndex": "0xc",
          "logIndex": "0x24",
          "removed": false
        },
        {
          "address": "0x1a44076050125825900e736c501f859c50fe728c",
          "topics": [
            "0x1ab700d4ced0c005b164c0f789fd09fcbb0156d4c2041b8a3bfbcd961cd1567f"
          ],
          "data": "0x000000000000000000000000000000000000000000000000000000000000006000000000000000000000000000000000000000000000000000000000000001200000000000000000000000002367325334447c5e1e0f1b3a6fb947b262f5831200000000000000000000000000000000000000000000000000000000000000990100000000000000020000763400000000000000000000000064445f0aecc51e94ad52d8ac56b7190e764e561a0000762300000000000000000000000023432452b720c80553458496d4d9d7c5003280d0c69a507c3f5ab3a059b3b3a7eb7ee67067a794ea92032da291916bb5d100159d000000000000000000000000b0e1650a9760e0f383174af042091fc544b8356f000000000000000a00000000000000000000000000000000000000000000000000000000000000000000000000001600030100110100000000000000000000000000030d4000000000000000000000",
          "blockHash": "0x27ddec01acf3c5802d65f119a0f4a73588fb78ec2d05ec26a3be2fe6c7f424e4",
          "blockNumber": "0x94689d",
          "transactionHash": "0xf1f39a6cf72abff9190eabfc07024394fe4514dfc17dc8d59683d5e69c399d42",
          "transactionIndex": "0xc",
          "logIndex": "0x25",
          "removed": false
        },
        {
          "address": "0x64445f0aecc51e94ad52d8ac56b7190e764e561a",
          "topics": [
            "0x85496b760a4b7f8d66384b9df21b381f5d1b1e79f229a47aaf4c232edc2fe59a",
            "0xc69a507c3f5ab3a059b3b3a7eb7ee67067a794ea92032da291916bb5d100159d",
            "0x000000000000000000000000b0e1650a9760e0f383174af042091fc544b8356f"
          ],
          "data": "0x0000000000000000000000000000000000000000000000000000000000007623000000000000000000000000000000000000000000000000000009184e72a000000000000000000000000000000000000000000000000000000009184e72a000",
          "blockHash": "0x27ddec01acf3c5802d65f119a0f4a73588fb78ec2d05ec26a3be2fe6c7f424e4",
          "blockNumber": "0x94689d",
          "transactionHash": "0xf1f39a6cf72abff9190eabfc07024394fe4514dfc17dc8d59683d5e69c399d42",
          "transactionIndex": "0xc",
          "logIndex": "0x26",
          "removed": false
        }
      ],
      "logsBloom": "0x00000000000000000000000000000000000000000000000000000000001000000000000000000000000000000000000000010000000000000000000000000000002002000000000000000008000000800000000000000000000000000000000000000000020000008000000000000800000000000110080000010010000000000000000000000000000000080000000000000000200000000000000000000000000000008000000000100008000000000000000000400000000440000000000000000082000000000000000080000000000000000000400000000000000020000000040080000000000000000000002000000008018000000000000000000000",
      "type": "0x2",
      "transactionHash": "0xf1f39a6cf72abff9190eabfc07024394fe4514dfc17dc8d59683d5e69c399d42",
      "transactionIndex": "0xc",
      "blockHash": "0x27ddec01acf3c5802d65f119a0f4a73588fb78ec2d05ec26a3be2fe6c7f424e4",
      "blockNumber": "0x94689d",
      "gasUsed": "0x43408",
      "effectiveGasPrice": "0x6fe",
      "from": "0xb0e1650a9760e0f383174af042091fc544b8356f",
      "to": "0x64445f0aecc51e94ad52d8ac56b7190e764e561a",
      "contractAddress": null,
      "l1BaseFeeScalar": "0x4e20",
      "l1BlobBaseFee": "0x1",
      "l1BlobBaseFeeScalar": "0x95506",
      "l1Fee": "0x2443c4f411",
      "l1GasPrice": "0x64d2a73b",
      "l1GasUsed": "0x11fc"
    },
    {
      "status": "0x1",
      "cumulativeGasUsed": "0x3cc4e1",
      "logs": [
        {
          "address": "0x5bff88ca1442c2496f7e475e9e7786383bc070c0",
          "topics": [
            "0xddf252ad1be2c89b69c2b068fc378daa952ba7f163c4a11628f55a4df523b3ef",
            "0x000000000000000000000000b0e1650a9760e0f383174af042091fc544b8356f",
            "0x0000000000000000000000000000000000000000000000000000000000000000"
          ],
          "data": "0x000000000000000000000000000000000000000000000000000009184e72a000",
          "blockHash": "0x27ddec01acf3c5802d65f119a0f4a73588fb78ec2d05ec26a3be2fe6c7f424e4",
          "blockNumber": "0x94689d",
          "transactionHash": "0xaef02f6bb91f1242d0323137e183b122285102891acbb8a2c40d6beb9738f8dd",
          "transactionIndex": "0xd",
          "logIndex": "0x27",
          "removed": false
        },
        {
          "address": "0x2367325334447c5e1e0f1b3a6fb947b262f58312",
          "topics": [
            "0x61ed099e74a97a1d7f8bb0952a88ca8b7b8ebd00c126ea04671f92a81213318a"
          ],
          "data": "0x0000000000000000000000004208d6e27538189bb48e603d6123a94b8abe0a0b000000000000000000000000000000000000000000000000000083d8aa59c7a1",
          "blockHash": "0x27ddec01acf3c5802d65f119a0f4a73588fb78ec2d05ec26a3be2fe6c7f424e4",
          "blockNumber": "0x94689d",
          "transactionHash": "0xaef02f6bb91f1242d0323137e183b122285102891acbb8a2c40d6beb9738f8dd",
          "transactionIndex": "0xd",
          "logIndex": "0x28",
          "removed": false
        },
        {
          "address": "0x2367325334447c5e1e0f1b3a6fb947b262f58312",
          "topics": [
            "0x07ea52d82345d6e838192107d8fd7123d9c2ec8e916cd0aad13fd2b60db24644"
          ],
          "data": "0x000000000000000000000000000000000000000000000000000000000000006000000000000000000000000000000000000000000000000000000000000000c000000000000000000000000000000000000000000000000000000000000000e00000000000000000000000000000000000000000000000000000000000000002000000000000000000000000acde1f22eeab249d3ca6ba8805c8fee9f52a16e7000000000000000000000000ce8358bc28dd8296ce8caf1cd2b44787abd658870000000000000000000000000000000000000000000000000000000000000000000000000000000000000000000000000000000000000000000000000000000200000000000000000000000000000000000000000000000000000f593416723300000000000000000000000000000000000000000000000000000f5934167233",
          "blockHash": "0x27ddec01acf3c5802d65f119a0f4a73588fb78ec2d05ec26a3be2fe6c7f424e4",
          "blockNumber": "0x94689d",
          "transactionHash": "0xaef02f6bb91f1242d0323137e183b122285102891acbb8a2c40d6beb9738f8dd",
          "transactionIndex": "0xd",
          "logIndex": "0x29",
          "removed": false
        },
        {
          "address": "0x1a44076050125825900e736c501f859c50fe728c",
          "topics": [
            "0x1ab700d4ced0c005b164c0f789fd09fcbb0156d4c2041b8a3bfbcd961cd1567f"
          ],
          "data": "0x000000000000000000000000000000000000000000000000000000000000006000000000000000000000000000000000000000000000000000000000000001200000000000000000000000002367325334447c5e1e0f1b3a6fb947b262f583120000000000000000000000000000000000000000000000000000000000000099010000000000000002000076340000000000000000000000005bff88ca1442c2496f7e475e9e7786383bc070c000007623000000000000000000000000e4796ccb6bb5de2290c417ac337f2b66ca2e770ece181fe43ddd6e909bb3bc2f85fb4d0f70898c54b6c895fbd55e136099c43d2a000000000000000000000000b0e1650a9760e0f383174af042091fc544b8356f000000000000000a00000000000000000000000000000000000000000000000000000000000000000000000000001600030100110100000000000000000000000000030d4000000000000000000000",
          "blockHash": "0x27ddec01acf3c5802d65f119a0f4a73588fb78ec2d05ec26a3be2fe6c7f424e4",
          "blockNumber": "0x94689d",
          "transactionHash": "0xaef02f6bb91f1242d0323137e183b122285102891acbb8a2c40d6beb9738f8dd",
          "transactionIndex": "0xd",
          "logIndex": "0x2a",
          "removed": false
        },
        {
          "address": "0x5bff88ca1442c2496f7e475e9e7786383bc070c0",
          "topics": [
            "0x85496b760a4b7f8d66384b9df21b381f5d1b1e79f229a47aaf4c232edc2fe59a",
            "0xce181fe43ddd6e909bb3bc2f85fb4d0f70898c54b6c895fbd55e136099c43d2a",
            "0x000000000000000000000000b0e1650a9760e0f383174af042091fc544b8356f"
          ],
          "data": "0x0000000000000000000000000000000000000000000000000000000000007623000000000000000000000000000000000000000000000000000009184e72a000000000000000000000000000000000000000000000000000000009184e72a000",
          "blockHash": "0x27ddec01acf3c5802d65f119a0f4a73588fb78ec2d05ec26a3be2fe6c7f424e4",
          "blockNumber": "0x94689d",
          "transactionHash": "0xaef02f6bb91f1242d0323137e183b122285102891acbb8a2c40d6beb9738f8dd",
          "transactionIndex": "0xd",
          "logIndex": "0x2b",
          "removed": false
        }
      ],
      "logsBloom": "0x00004000000000000000000000000000000000000000000000000000001000000000000000000000000000000000000000000000000000000000000000000000004002000000000000000008000000000000000000000000000000000000000000000000020000008000000000000800000000000110080000010010000000000000000000000000000000080000000000000000200000000000000000000000000000008000000000100000000000000000000000400000000440000010000000000082000000000000000080000000000000800000000000000000000020000000040080000000000000000000002000000000018000000000000000000800",
      "type": "0x2",
      "transactionHash": "0xaef02f6bb91f1242d0323137e183b122285102891acbb8a2c40d6beb9738f8dd",
      "transactionIndex": "0xd",
      "blockHash": "0x27ddec01acf3c5802d65f119a0f4a73588fb78ec2d05ec26a3be2fe6c7f424e4",
      "blockNumber": "0x94689d",
      "gasUsed": "0x43408",
      "effectiveGasPrice": "0x6fe",
      "from": "0xb0e1650a9760e0f383174af042091fc544b8356f",
      "to": "0x5bff88ca1442c2496f7e475e9e7786383bc070c0",
      "contractAddress": null,
      "l1BaseFeeScalar": "0x4e20",
      "l1BlobBaseFee": "0x1",
      "l1BlobBaseFeeScalar": "0x95506",
      "l1Fee": "0x245bf7829b",
      "l1GasPrice": "0x64d2a73b",
      "l1GasUsed": "0x1208"
    },
    {
      "status": "0x1",
      "cumulativeGasUsed": "0x40f8e9",
      "logs": [
        {
          "address": "0x3ec3849c33291a9ef4c5db86de593eb4a37fde45",
          "topics": [
            "0xddf252ad1be2c89b69c2b068fc378daa952ba7f163c4a11628f55a4df523b3ef",
            "0x000000000000000000000000b0e1650a9760e0f383174af042091fc544b8356f",
            "0x0000000000000000000000000000000000000000000000000000000000000000"
          ],
          "data": "0x000000000000000000000000000000000000000000000000000009184e72a000",
          "blockHash": "0x27ddec01acf3c5802d65f119a0f4a73588fb78ec2d05ec26a3be2fe6c7f424e4",
          "blockNumber": "0x94689d",
          "transactionHash": "0xd48ee94511694593d6e090712dde3c6a3123b4217957059f8ca000f3bdc9ceef",
          "transactionIndex": "0xe",
          "logIndex": "0x2c",
          "removed": false
        },
        {
          "address": "0x2367325334447c5e1e0f1b3a6fb947b262f58312",
          "topics": [
            "0x61ed099e74a97a1d7f8bb0952a88ca8b7b8ebd00c126ea04671f92a81213318a"
          ],
          "data": "0x0000000000000000000000004208d6e27538189bb48e603d6123a94b8abe0a0b000000000000000000000000000000000000000000000000000083d8aa59c7a1",
          "blockHash": "0x27ddec01acf3c5802d65f119a0f4a73588fb78ec2d05ec26a3be2fe6c7f424e4",
          "blockNumber": "0x94689d",
          "transactionHash": "0xd48ee94511694593d6e090712dde3c6a3123b4217957059f8ca000f3bdc9ceef",
          "transactionIndex": "0xe",
          "logIndex": "0x2d",
          "removed": false
        },
        {
          "address": "0x2367325334447c5e1e0f1b3a6fb947b262f58312",
          "topics": [
            "0x07ea52d82345d6e838192107d8fd7123d9c2ec8e916cd0aad13fd2b60db24644"
          ],
          "data": "0x000000000000000000000000000000000000000000000000000000000000006000000000000000000000000000000000000000000000000000000000000000c000000000000000000000000000000000000000000000000000000000000000e00000000000000000000000000000000000000000000000000000000000000002000000000000000000000000acde1f22eeab249d3ca6ba8805c8fee9f52a16e7000000000000000000000000ce8358bc28dd8296ce8caf1cd2b44787abd658870000000000000000000000000000000000000000000000000000000000000000000000000000000000000000000000000000000000000000000000000000000200000000000000000000000000000000000000000000000000000f593416723300000000000000000000000000000000000000000000000000000f5934167233",
          "blockHash": "0x27ddec01acf3c5802d65f119a0f4a73588fb78ec2d05ec26a3be2fe6c7f424e4",
          "blockNumber": "0x94689d",
          "transactionHash": "0xd48ee94511694593d6e090712dde3c6a3123b4217957059f8ca000f3bdc9ceef",
          "transactionIndex": "0xe",
          "logIndex": "0x2e",
          "removed": false
        },
        {
          "address": "0x1a44076050125825900e736c501f859c50fe728c",
          "topics": [
            "0x1ab700d4ced0c005b164c0f789fd09fcbb0156d4c2041b8a3bfbcd961cd1567f"
          ],
          "data": "0x000000000000000000000000000000000000000000000000000000000000006000000000000000000000000000000000000000000000000000000000000001200000000000000000000000002367325334447c5e1e0f1b3a6fb947b262f583120000000000000000000000000000000000000000000000000000000000000099010000000000000002000076340000000000000000000000003ec3849c33291a9ef4c5db86de593eb4a37fde45000076230000000000000000000000001f55a02a049033e3419a8e2975cf3f572f4e6e9abdad7ddb22314285eb200788e0e3695251da0b3ba06af8a0f7c82c369f602e9a000000000000000000000000b0e1650a9760e0f383174af042091fc544b8356f000000000000000a00000000000000000000000000000000000000000000000000000000000000000000000000001600030100110100000000000000000000000000030d4000000000000000000000",
          "blockHash": "0x27ddec01acf3c5802d65f119a0f4a73588fb78ec2d05ec26a3be2fe6c7f424e4",
          "blockNumber": "0x94689d",
          "transactionHash": "0xd48ee94511694593d6e090712dde3c6a3123b4217957059f8ca000f3bdc9ceef",
          "transactionIndex": "0xe",
          "logIndex": "0x2f",
          "removed": false
        },
        {
          "address": "0x3ec3849c33291a9ef4c5db86de593eb4a37fde45",
          "topics": [
            "0x85496b760a4b7f8d66384b9df21b381f5d1b1e79f229a47aaf4c232edc2fe59a",
            "0xbdad7ddb22314285eb200788e0e3695251da0b3ba06af8a0f7c82c369f602e9a",
            "0x000000000000000000000000b0e1650a9760e0f383174af042091fc544b8356f"
          ],
          "data": "0x0000000000000000000000000000000000000000000000000000000000007623000000000000000000000000000000000000000000000000000009184e72a000000000000000000000000000000000000000000000000000000009184e72a000",
          "blockHash": "0x27ddec01acf3c5802d65f119a0f4a73588fb78ec2d05ec26a3be2fe6c7f424e4",
          "blockNumber": "0x94689d",
          "transactionHash": "0xd48ee94511694593d6e090712dde3c6a3123b4217957059f8ca000f3bdc9ceef",
          "transactionIndex": "0xe",
          "logIndex": "0x30",
          "removed": false
        }
      ],
      "logsBloom": "0x00000000000000000000000000002000000000000000000000000000001000000000000000010000000000000000000000000000000000000000800000000000000002000000000000000008000000000000000000000000000000000000000000000000020000008002000000000800000000000110080000010010000000000000000000000000000000080000000000000000200020000040000000000000000000008000000000100000000000000000000000400000000440000000000000000082000000000000000080000000000000000000000000000000000020000000040080000000000000000000002000000000018000000000000000000000",
      "type": "0x2",
      "transactionHash": "0xd48ee94511694593d6e090712dde3c6a3123b4217957059f8ca000f3bdc9ceef",
      "transactionIndex": "0xe",
      "blockHash": "0x27ddec01acf3c5802d65f119a0f4a73588fb78ec2d05ec26a3be2fe6c7f424e4",
      "blockNumber": "0x94689d",
      "gasUsed": "0x43408",
      "effectiveGasPrice": "0x6fe",
      "from": "0xb0e1650a9760e0f383174af042091fc544b8356f",
      "to": "0x3ec3849c33291a9ef4c5db86de593eb4a37fde45",
      "contractAddress": null,
      "l1BaseFeeScalar": "0x4e20",
      "l1BlobBaseFee": "0x1",
      "l1BlobBaseFeeScalar": "0x95506",
      "l1Fee": "0x245bf7829b",
      "l1GasPrice": "0x64d2a73b",
      "l1GasUsed": "0x1208"
    },
    {
      "status": "0x1",
      "cumulativeGasUsed": "0x452cf1",
      "logs": [
        {
          "address": "0x80eede496655fb9047dd39d9f418d5483ed600df",
          "topics": [
            "0xddf252ad1be2c89b69c2b068fc378daa952ba7f163c4a11628f55a4df523b3ef",
            "0x000000000000000000000000b0e1650a9760e0f383174af042091fc544b8356f",
            "0x0000000000000000000000000000000000000000000000000000000000000000"
          ],
          "data": "0x000000000000000000000000000000000000000000000000000009184e72a000",
          "blockHash": "0x27ddec01acf3c5802d65f119a0f4a73588fb78ec2d05ec26a3be2fe6c7f424e4",
          "blockNumber": "0x94689d",
          "transactionHash": "0x04d1d7861adc6b9de079f1424f7d4f055397cb0e0745d95061bfd529527b7ba0",
          "transactionIndex": "0xf",
          "logIndex": "0x31",
          "removed": false
        },
        {
          "address": "0x2367325334447c5e1e0f1b3a6fb947b262f58312",
          "topics": [
            "0x61ed099e74a97a1d7f8bb0952a88ca8b7b8ebd00c126ea04671f92a81213318a"
          ],
          "data": "0x0000000000000000000000004208d6e27538189bb48e603d6123a94b8abe0a0b000000000000000000000000000000000000000000000000000083d8aa59c7a1",
          "blockHash": "0x27ddec01acf3c5802d65f119a0f4a73588fb78ec2d05ec26a3be2fe6c7f424e4",
          "blockNumber": "0x94689d",
          "transactionHash": "0x04d1d7861adc6b9de079f1424f7d4f055397cb0e0745d95061bfd529527b7ba0",
          "transactionIndex": "0xf",
          "logIndex": "0x32",
          "removed": false
        },
        {
          "address": "0x2367325334447c5e1e0f1b3a6fb947b262f58312",
          "topics": [
            "0x07ea52d82345d6e838192107d8fd7123d9c2ec8e916cd0aad13fd2b60db24644"
          ],
          "data": "0x000000000000000000000000000000000000000000000000000000000000006000000000000000000000000000000000000000000000000000000000000000c000000000000000000000000000000000000000000000000000000000000000e00000000000000000000000000000000000000000000000000000000000000002000000000000000000000000acde1f22eeab249d3ca6ba8805c8fee9f52a16e7000000000000000000000000ce8358bc28dd8296ce8caf1cd2b44787abd658870000000000000000000000000000000000000000000000000000000000000000000000000000000000000000000000000000000000000000000000000000000200000000000000000000000000000000000000000000000000000f593416723300000000000000000000000000000000000000000000000000000f5934167233",
          "blockHash": "0x27ddec01acf3c5802d65f119a0f4a73588fb78ec2d05ec26a3be2fe6c7f424e4",
          "blockNumber": "0x94689d",
          "transactionHash": "0x04d1d7861adc6b9de079f1424f7d4f055397cb0e0745d95061bfd529527b7ba0",
          "transactionIndex": "0xf",
          "logIndex": "0x33",
          "removed": false
        },
        {
          "address": "0x1a44076050125825900e736c501f859c50fe728c",
          "topics": [
            "0x1ab700d4ced0c005b164c0f789fd09fcbb0156d4c2041b8a3bfbcd961cd1567f"
          ],
          "data": "0x000000000000000000000000000000000000000000000000000000000000006000000000000000000000000000000000000000000000000000000000000001200000000000000000000000002367325334447c5e1e0f1b3a6fb947b262f5831200000000000000000000000000000000000000000000000000000000000000990100000000000000020000763400000000000000000000000080eede496655fb9047dd39d9f418d5483ed600df00007623000000000000000000000000909dbde1ebe906af95660033e478d59efe831fed626923fe095312a84dae4f672ef83a33b630f369a682605b6256a274068c173d000000000000000000000000b0e1650a9760e0f383174af042091fc544b8356f000000000000000a00000000000000000000000000000000000000000000000000000000000000000000000000001600030100110100000000000000000000000000030d4000000000000000000000",
          "blockHash": "0x27ddec01acf3c5802d65f119a0f4a73588fb78ec2d05ec26a3be2fe6c7f424e4",
          "blockNumber": "0x94689d",
          "transactionHash": "0x04d1d7861adc6b9de079f1424f7d4f055397cb0e0745d95061bfd529527b7ba0",
          "transactionIndex": "0xf",
          "logIndex": "0x34",
          "removed": false
        },
        {
          "address": "0x80eede496655fb9047dd39d9f418d5483ed600df",
          "topics": [
            "0x85496b760a4b7f8d66384b9df21b381f5d1b1e79f229a47aaf4c232edc2fe59a",
            "0x626923fe095312a84dae4f672ef83a33b630f369a682605b6256a274068c173d",
            "0x000000000000000000000000b0e1650a9760e0f383174af042091fc544b8356f"
          ],
          "data": "0x0000000000000000000000000000000000000000000000000000000000007623000000000000000000000000000000000000000000000000000009184e72a000000000000000000000000000000000000000000000000000000009184e72a000",
          "blockHash": "0x27ddec01acf3c5802d65f119a0f4a73588fb78ec2d05ec26a3be2fe6c7f424e4",
          "blockNumber": "0x94689d",
          "transactionHash": "0x04d1d7861adc6b9de079f1424f7d4f055397cb0e0745d95061bfd529527b7ba0",
          "transactionIndex": "0xf",
          "logIndex": "0x35",
          "removed": false
        }
      ],
      "logsBloom": "0x00000000000000000000000000000000000000000000000000000000001000000000000000000000000000000800000000000000000000000000000200000400000002000000000000000008000000000000000000000800000000000000000000000000020000008000000000000800000000000110080000010010010000000008000000000000000000080000000000000000200000000000000000000000000000008000000000100000000000000000000000400000000440000000000000000082000000000000000080000000000000000000000000000000000020000000040080000000000000000000002000000000018000000000000000000000",
      "type": "0x2",
      "transactionHash": "0x04d1d7861adc6b9de079f1424f7d4f055397cb0e0745d95061bfd529527b7ba0",
      "transactionIndex": "0xf",
      "blockHash": "0x27ddec01acf3c5802d65f119a0f4a73588fb78ec2d05ec26a3be2fe6c7f424e4",
      "blockNumber": "0x94689d",
      "gasUsed": "0x43408",
      "effectiveGasPrice": "0x6fe",
      "from": "0xb0e1650a9760e0f383174af042091fc544b8356f",
      "to": "0x80eede496655fb9047dd39d9f418d5483ed600df",
      "contractAddress": null,
      "l1BaseFeeScalar": "0x4e20",
      "l1BlobBaseFee": "0x1",
      "l1BlobBaseFeeScalar": "0x95506",
      "l1Fee": "0x242b926588",
      "l1GasPrice": "0x64d2a73b",
      "l1GasUsed": "0x11f0"
    },
    {
      "status": "0x1",
      "cumulativeGasUsed": "0x4946e1",
      "logs": [
        {
          "address": "0x64445f0aecc51e94ad52d8ac56b7190e764e561a",
          "topics": [
            "0xddf252ad1be2c89b69c2b068fc378daa952ba7f163c4a11628f55a4df523b3ef",
            "0x000000000000000000000000b0e1650a9760e0f383174af042091fc544b8356f",
            "0x0000000000000000000000000000000000000000000000000000000000000000"
          ],
          "data": "0x000000000000000000000000000000000000000000000000000009184e72a000",
          "blockHash": "0x27ddec01acf3c5802d65f119a0f4a73588fb78ec2d05ec26a3be2fe6c7f424e4",
          "blockNumber": "0x94689d",
          "transactionHash": "0x58afe488f20cfedd1425b6016d169681cdea320628fa62df2aefc84f5c5e4b44",
          "transactionIndex": "0x10",
          "logIndex": "0x36",
          "removed": false
        },
        {
          "address": "0x2367325334447c5e1e0f1b3a6fb947b262f58312",
          "topics": [
            "0x61ed099e74a97a1d7f8bb0952a88ca8b7b8ebd00c126ea04671f92a81213318a"
          ],
          "data": "0x0000000000000000000000004208d6e27538189bb48e603d6123a94b8abe0a0b00000000000000000000000000000000000000000000000000008efcd7347ce6",
          "blockHash": "0x27ddec01acf3c5802d65f119a0f4a73588fb78ec2d05ec26a3be2fe6c7f424e4",
          "blockNumber": "0x94689d",
          "transactionHash": "0x58afe488f20cfedd1425b6016d169681cdea320628fa62df2aefc84f5c5e4b44",
          "transactionIndex": "0x10",
          "logIndex": "0x37",
          "removed": false
        },
        {
          "address": "0x2367325334447c5e1e0f1b3a6fb947b262f58312",
          "topics": [
            "0x07ea52d82345d6e838192107d8fd7123d9c2ec8e916cd0aad13fd2b60db24644"
          ],
          "data": "0x000000000000000000000000000000000000000000000000000000000000006000000000000000000000000000000000000000000000000000000000000000c000000000000000000000000000000000000000000000000000000000000000e00000000000000000000000000000000000000000000000000000000000000002000000000000000000000000acde1f22eeab249d3ca6ba8805c8fee9f52a16e7000000000000000000000000ce8358bc28dd8296ce8caf1cd2b44787abd658870000000000000000000000000000000000000000000000000000000000000000000000000000000000000000000000000000000000000000000000000000000200000000000000000000000000000000000000000000000000000823aae90b7700000000000000000000000000000000000000000000000000000823aae90b77",
          "blockHash": "0x27ddec01acf3c5802d65f119a0f4a73588fb78ec2d05ec26a3be2fe6c7f424e4",
          "blockNumber": "0x94689d",
          "transactionHash": "0x58afe488f20cfedd1425b6016d169681cdea320628fa62df2aefc84f5c5e4b44",
          "transactionIndex": "0x10",
          "logIndex": "0x38",
          "removed": false
        },
        {
          "address": "0x1a44076050125825900e736c501f859c50fe728c",
          "topics": [
            "0x1ab700d4ced0c005b164c0f789fd09fcbb0156d4c2041b8a3bfbcd961cd1567f"
          ],
          "data": "0x000000000000000000000000000000000000000000000000000000000000006000000000000000000000000000000000000000000000000000000000000001200000000000000000000000002367325334447c5e1e0f1b3a6fb947b262f5831200000000000000000000000000000000000000000000000000000000000000990100000000000000020000763400000000000000000000000064445f0aecc51e94ad52d8ac56b7190e764e561a000075c700000000000000000000000023432452b720c80553458496d4d9d7c5003280d0d5757d5a7dce7ff63a7d2d52b74ca14ab817e407dc392943f7063271042ed236000000000000000000000000b0e1650a9760e0f383174af042091fc544b8356f000000000000000a00000000000000000000000000000000000000000000000000000000000000000000000000001600030100110100000000000000000000000000030d4000000000000000000000",
          "blockHash": "0x27ddec01acf3c5802d65f119a0f4a73588fb78ec2d05ec26a3be2fe6c7f424e4",
          "blockNumber": "0x94689d",
          "transactionHash": "0x58afe488f20cfedd1425b6016d169681cdea320628fa62df2aefc84f5c5e4b44",
          "transactionIndex": "0x10",
          "logIndex": "0x39",
          "removed": false
        },
        {
          "address": "0x64445f0aecc51e94ad52d8ac56b7190e764e561a",
          "topics": [
            "0x85496b760a4b7f8d66384b9df21b381f5d1b1e79f229a47aaf4c232edc2fe59a",
            "0xd5757d5a7dce7ff63a7d2d52b74ca14ab817e407dc392943f7063271042ed236",
            "0x000000000000000000000000b0e1650a9760e0f383174af042091fc544b8356f"
          ],
          "data": "0x00000000000000000000000000000000000000000000000000000000000075c7000000000000000000000000000000000000000000000000000009184e72a000000000000000000000000000000000000000000000000000000009184e72a000",
          "blockHash": "0x27ddec01acf3c5802d65f119a0f4a73588fb78ec2d05ec26a3be2fe6c7f424e4",
          "blockNumber": "0x94689d",
          "transactionHash": "0x58afe488f20cfedd1425b6016d169681cdea320628fa62df2aefc84f5c5e4b44",
          "transactionIndex": "0x10",
          "logIndex": "0x3a",
          "removed": false
        }
      ],
      "logsBloom": "0x00000000000000000000000000000000000000000000000000000000001000000000000000080000000000000000000000000000000000000000000000000000002002000000000000000008000000000000000000000000000000000000000000000000020000008000000000000800000400000110080000010010000000000000000000000000000000080000000000000000200000000000000000000000000000008000000000100008000000000000000000400000000440000000000000010082000000000000000080000000000000000000000000000000000020000000040080000000000000000000002000000008018000000000000000000000",
      "type": "0x2",
      "transactionHash": "0x58afe488f20cfedd1425b6016d169681cdea320628fa62df2aefc84f5c5e4b44",
      "transactionIndex": "0x10",
      "blockHash": "0x27ddec01acf3c5802d65f119a0f4a73588fb78ec2d05ec26a3be2fe6c7f424e4",
      "blockNumber": "0x94689d",
      "gasUsed": "0x419f0",
      "effectiveGasPrice": "0x6fe",
      "from": "0xb0e1650a9760e0f383174af042091fc544b8356f",
      "to": "0x64445f0aecc51e94ad52d8ac56b7190e764e561a",
      "contractAddress": null,
      "l1BaseFeeScalar": "0x4e20",
      "l1BlobBaseFee": "0x1",
      "l1BlobBaseFeeScalar": "0x95506",
      "l1Fee": "0x245bf7829b",
      "l1GasPrice": "0x64d2a73b",
      "l1GasUsed": "0x1208"
    },
    {
      "status": "0x1",
      "cumulativeGasUsed": "0x4d60d1",
      "logs": [
        {
          "address": "0x5bff88ca1442c2496f7e475e9e7786383bc070c0",
          "topics": [
            "0xddf252ad1be2c89b69c2b068fc378daa952ba7f163c4a11628f55a4df523b3ef",
            "0x000000000000000000000000b0e1650a9760e0f383174af042091fc544b8356f",
            "0x0000000000000000000000000000000000000000000000000000000000000000"
          ],
          "data": "0x000000000000000000000000000000000000000000000000000009184e72a000",
          "blockHash": "0x27ddec01acf3c5802d65f119a0f4a73588fb78ec2d05ec26a3be2fe6c7f424e4",
          "blockNumber": "0x94689d",
          "transactionHash": "0xb42332ac99648cab164060b5ffb5e5c239d5f8a0f9ee0327ca396b5322c34370",
          "transactionIndex": "0x11",
          "logIndex": "0x3b",
          "removed": false
        },
        {
          "address": "0x2367325334447c5e1e0f1b3a6fb947b262f58312",
          "topics": [
            "0x61ed099e74a97a1d7f8bb0952a88ca8b7b8ebd00c126ea04671f92a81213318a"
          ],
          "data": "0x0000000000000000000000004208d6e27538189bb48e603d6123a94b8abe0a0b00000000000000000000000000000000000000000000000000008efcd7347ce6",
          "blockHash": "0x27ddec01acf3c5802d65f119a0f4a73588fb78ec2d05ec26a3be2fe6c7f424e4",
          "blockNumber": "0x94689d",
          "transactionHash": "0xb42332ac99648cab164060b5ffb5e5c239d5f8a0f9ee0327ca396b5322c34370",
          "transactionIndex": "0x11",
          "logIndex": "0x3c",
          "removed": false
        },
        {
          "address": "0x2367325334447c5e1e0f1b3a6fb947b262f58312",
          "topics": [
            "0x07ea52d82345d6e838192107d8fd7123d9c2ec8e916cd0aad13fd2b60db24644"
          ],
          "data": "0x000000000000000000000000000000000000000000000000000000000000006000000000000000000000000000000000000000000000000000000000000000c000000000000000000000000000000000000000000000000000000000000000e00000000000000000000000000000000000000000000000000000000000000002000000000000000000000000acde1f22eeab249d3ca6ba8805c8fee9f52a16e7000000000000000000000000ce8358bc28dd8296ce8caf1cd2b44787abd658870000000000000000000000000000000000000000000000000000000000000000000000000000000000000000000000000000000000000000000000000000000200000000000000000000000000000000000000000000000000000823aae90b7700000000000000000000000000000000000000000000000000000823aae90b77",
          "blockHash": "0x27ddec01acf3c5802d65f119a0f4a73588fb78ec2d05ec26a3be2fe6c7f424e4",
          "blockNumber": "0x94689d",
          "transactionHash": "0xb42332ac99648cab164060b5ffb5e5c239d5f8a0f9ee0327ca396b5322c34370",
          "transactionIndex": "0x11",
          "logIndex": "0x3d",
          "removed": false
        },
        {
          "address": "0x1a44076050125825900e736c501f859c50fe728c",
          "topics": [
            "0x1ab700d4ced0c005b164c0f789fd09fcbb0156d4c2041b8a3bfbcd961cd1567f"
          ],
          "data": "0x000000000000000000000000000000000000000000000000000000000000006000000000000000000000000000000000000000000000000000000000000001200000000000000000000000002367325334447c5e1e0f1b3a6fb947b262f583120000000000000000000000000000000000000000000000000000000000000099010000000000000002000076340000000000000000000000005bff88ca1442c2496f7e475e9e7786383bc070c0000075c7000000000000000000000000e4796ccb6bb5de2290c417ac337f2b66ca2e770e2ebed71fc9eaf3931d7eb77e58313c21ea094d83e916705150ad27f591e0b1be000000000000000000000000b0e1650a9760e0f383174af042091fc544b8356f000000000000000a00000000000000000000000000000000000000000000000000000000000000000000000000001600030100110100000000000000000000000000030d4000000000000000000000",
          "blockHash": "0x27ddec01acf3c5802d65f119a0f4a73588fb78ec2d05ec26a3be2fe6c7f424e4",
          "blockNumber": "0x94689d",
          "transactionHash": "0xb42332ac99648cab164060b5ffb5e5c239d5f8a0f9ee0327ca396b5322c34370",
          "transactionIndex": "0x11",
          "logIndex": "0x3e",
          "removed": false
        },
        {
          "address": "0x5bff88ca1442c2496f7e475e9e7786383bc070c0",
          "topics": [
            "0x85496b760a4b7f8d66384b9df21b381f5d1b1e79f229a47aaf4c232edc2fe59a",
            "0x2ebed71fc9eaf3931d7eb77e58313c21ea094d83e916705150ad27f591e0b1be",
            "0x000000000000000000000000b0e1650a9760e0f383174af042091fc544b8356f"
          ],
          "data": "0x00000000000000000000000000000000000000000000000000000000000075c7000000000000000000000000000000000000000000000000000009184e72a000000000000000000000000000000000000000000000000000000009184e72a000",
          "blockHash": "0x27ddec01acf3c5802d65f119a0f4a73588fb78ec2d05ec26a3be2fe6c7f424e4",
          "blockNumber": "0x94689d",
          "transactionHash": "0xb42332ac99648cab164060b5ffb5e5c239d5f8a0f9ee0327ca396b5322c34370",
          "transactionIndex": "0x11",
          "logIndex": "0x3f",
          "removed": false
        }
      ],
      "logsBloom": "0x00000000000000000000000000000000000000000000000000000000001000000000000000000000000000000000000000000000000000000000000000000000000002000000000000000008000000000000000000000000000000000000000000000000020400008000080000000800000000000110080000010010000000000000000000000000000000080000000000000000200000000000000000000000000000008000000000100000000000000000000000400000000440000010000000000082000000000000000080000000000000800000000080000000000020000000040080000000000000000000002000000000018000000000000000000800",
      "type": "0x2",
      "transactionHash": "0xb42332ac99648cab164060b5ffb5e5c239d5f8a0f9ee0327ca396b5322c34370",
      "transactionIndex": "0x11",
      "blockHash": "0x27ddec01acf3c5802d65f119a0f4a73588fb78ec2d05ec26a3be2fe6c7f424e4",
      "blockNumber": "0x94689d",
      "gasUsed": "0x419f0",
      "effectiveGasPrice": "0x6fe",
      "from": "0xb0e1650a9760e0f383174af042091fc544b8356f",
      "to": "0x5bff88ca1442c2496f7e475e9e7786383bc070c0",
      "contractAddress": null,
      "l1BaseFeeScalar": "0x4e20",
      "l1BlobBaseFee": "0x1",
      "l1BlobBaseFeeScalar": "0x95506",
      "l1Fee": "0x245bf7829b",
      "l1GasPrice": "0x64d2a73b",
      "l1GasUsed": "0x1208"
    },
    {
      "status": "0x1",
      "cumulativeGasUsed": "0x517ac1",
      "logs": [
        {
          "address": "0x3ec3849c33291a9ef4c5db86de593eb4a37fde45",
          "topics": [
            "0xddf252ad1be2c89b69c2b068fc378daa952ba7f163c4a11628f55a4df523b3ef",
            "0x000000000000000000000000b0e1650a9760e0f383174af042091fc544b8356f",
            "0x0000000000000000000000000000000000000000000000000000000000000000"
          ],
          "data": "0x000000000000000000000000000000000000000000000000000009184e72a000",
          "blockHash": "0x27ddec01acf3c5802d65f119a0f4a73588fb78ec2d05ec26a3be2fe6c7f424e4",
          "blockNumber": "0x94689d",
          "transactionHash": "0xac0ed56040119e13ac5c4edef2643815626077914f2ab2d4a687a89692b23e97",
          "transactionIndex": "0x12",
          "logIndex": "0x40",
          "removed": false
        },
        {
          "address": "0x2367325334447c5e1e0f1b3a6fb947b262f58312",
          "topics": [
            "0x61ed099e74a97a1d7f8bb0952a88ca8b7b8ebd00c126ea04671f92a81213318a"
          ],
          "data": "0x0000000000000000000000004208d6e27538189bb48e603d6123a94b8abe0a0b00000000000000000000000000000000000000000000000000008efcd7347ce6",
          "blockHash": "0x27ddec01acf3c5802d65f119a0f4a73588fb78ec2d05ec26a3be2fe6c7f424e4",
          "blockNumber": "0x94689d",
          "transactionHash": "0xac0ed56040119e13ac5c4edef2643815626077914f2ab2d4a687a89692b23e97",
          "transactionIndex": "0x12",
          "logIndex": "0x41",
          "removed": false
        },
        {
          "address": "0x2367325334447c5e1e0f1b3a6fb947b262f58312",
          "topics": [
            "0x07ea52d82345d6e838192107d8fd7123d9c2ec8e916cd0aad13fd2b60db24644"
          ],
          "data": "0x000000000000000000000000000000000000000000000000000000000000006000000000000000000000000000000000000000000000000000000000000000c000000000000000000000000000000000000000000000000000000000000000e00000000000000000000000000000000000000000000000000000000000000002000000000000000000000000acde1f22eeab249d3ca6ba8805c8fee9f52a16e7000000000000000000000000ce8358bc28dd8296ce8caf1cd2b44787abd658870000000000000000000000000000000000000000000000000000000000000000000000000000000000000000000000000000000000000000000000000000000200000000000000000000000000000000000000000000000000000823aae90b7700000000000000000000000000000000000000000000000000000823aae90b77",
          "blockHash": "0x27ddec01acf3c5802d65f119a0f4a73588fb78ec2d05ec26a3be2fe6c7f424e4",
          "blockNumber": "0x94689d",
          "transactionHash": "0xac0ed56040119e13ac5c4edef2643815626077914f2ab2d4a687a89692b23e97",
          "transactionIndex": "0x12",
          "logIndex": "0x42",
          "removed": false
        },
        {
          "address": "0x1a44076050125825900e736c501f859c50fe728c",
          "topics": [
            "0x1ab700d4ced0c005b164c0f789fd09fcbb0156d4c2041b8a3bfbcd961cd1567f"
          ],
          "data": "0x000000000000000000000000000000000000000000000000000000000000006000000000000000000000000000000000000000000000000000000000000001200000000000000000000000002367325334447c5e1e0f1b3a6fb947b262f583120000000000000000000000000000000000000000000000000000000000000099010000000000000002000076340000000000000000000000003ec3849c33291a9ef4c5db86de593eb4a37fde45000075c70000000000000000000000001f55a02a049033e3419a8e2975cf3f572f4e6e9af18dd5f85b3fd19d568dc3f9038fbfc0436b2e4e53c3b83dee3eaa2a6d2eac1b000000000000000000000000b0e1650a9760e0f383174af042091fc544b8356f000000000000000a00000000000000000000000000000000000000000000000000000000000000000000000000001600030100110100000000000000000000000000030d4000000000000000000000",
          "blockHash": "0x27ddec01acf3c5802d65f119a0f4a73588fb78ec2d05ec26a3be2fe6c7f424e4",
          "blockNumber": "0x94689d",
          "transactionHash": "0xac0ed56040119e13ac5c4edef2643815626077914f2ab2d4a687a89692b23e97",
          "transactionIndex": "0x12",
          "logIndex": "0x43",
          "removed": false
        },
        {
          "address": "0x3ec3849c33291a9ef4c5db86de593eb4a37fde45",
          "topics": [
            "0x85496b760a4b7f8d66384b9df21b381f5d1b1e79f229a47aaf4c232edc2fe59a",
            "0xf18dd5f85b3fd19d568dc3f9038fbfc0436b2e4e53c3b83dee3eaa2a6d2eac1b",
            "0x000000000000000000000000b0e1650a9760e0f383174af042091fc544b8356f"
          ],
          "data": "0x00000000000000000000000000000000000000000000000000000000000075c7000000000000000000000000000000000000000000000000000009184e72a000000000000000000000000000000000000000000000000000000009184e72a000",
          "blockHash": "0x27ddec01acf3c5802d65f119a0f4a73588fb78ec2d05ec26a3be2fe6c7f424e4",
          "blockNumber": "0x94689d",
          "transactionHash": "0xac0ed56040119e13ac5c4edef2643815626077914f2ab2d4a687a89692b23e97",
          "transactionIndex": "0x12",
          "logIndex": "0x44",
          "removed": false
        }
      ],
      "logsBloom": "0x00000000000000000000000000002000000000000000000000000000001000000000000000000000000000000000000000000000000000000000000000000000000002000100000000000008000000000000000000000000000000000000000000000000020000008000000000000800000000000110080000010010000000000000000000000000000000080000000000000000200020000040000000000000000000008000000000100000000000000000000000400000000c40000000000000000082000000000000000080000000000000000000000000000000000020000000040080000000000000000002002000000000018000000000000000000000",
      "type": "0x2",
      "transactionHash": "0xac0ed56040119e13ac5c4edef2643815626077914f2ab2d4a687a89692b23e97",
      "transactionIndex": "0x12",
      "blockHash": "0x27ddec01acf3c5802d65f119a0f4a73588fb78ec2d05ec26a3be2fe6c7f424e4",
      "blockNumber": "0x94689d",
      "gasUsed": "0x419f0",
      "effectiveGasPrice": "0x6fe",
      "from": "0xb0e1650a9760e0f383174af042091fc544b8356f",
      "to": "0x3ec3849c33291a9ef4c5db86de593eb4a37fde45",
      "contractAddress": null,
      "l1BaseFeeScalar": "0x4e20",
      "l1BlobBaseFee": "0x1",
      "l1BlobBaseFeeScalar": "0x95506",
      "l1Fee": "0x245bf7829b",
      "l1GasPrice": "0x64d2a73b",
      "l1GasUsed": "0x1208"
    },
    {
      "status": "0x1",
      "cumulativeGasUsed": "0x5594b1",
      "logs": [
        {
          "address": "0x80eede496655fb9047dd39d9f418d5483ed600df",
          "topics": [
            "0xddf252ad1be2c89b69c2b068fc378daa952ba7f163c4a11628f55a4df523b3ef",
            "0x000000000000000000000000b0e1650a9760e0f383174af042091fc544b8356f",
            "0x0000000000000000000000000000000000000000000000000000000000000000"
          ],
          "data": "0x000000000000000000000000000000000000000000000000000009184e72a000",
          "blockHash": "0x27ddec01acf3c5802d65f119a0f4a73588fb78ec2d05ec26a3be2fe6c7f424e4",
          "blockNumber": "0x94689d",
          "transactionHash": "0x437eae7f37604c2aef89d05a899c11dba80d812ac6f69724c16643c345b8f5f9",
          "transactionIndex": "0x13",
          "logIndex": "0x45",
          "removed": false
        },
        {
          "address": "0x2367325334447c5e1e0f1b3a6fb947b262f58312",
          "topics": [
            "0x61ed099e74a97a1d7f8bb0952a88ca8b7b8ebd00c126ea04671f92a81213318a"
          ],
          "data": "0x0000000000000000000000004208d6e27538189bb48e603d6123a94b8abe0a0b00000000000000000000000000000000000000000000000000008efcd7347ce6",
          "blockHash": "0x27ddec01acf3c5802d65f119a0f4a73588fb78ec2d05ec26a3be2fe6c7f424e4",
          "blockNumber": "0x94689d",
          "transactionHash": "0x437eae7f37604c2aef89d05a899c11dba80d812ac6f69724c16643c345b8f5f9",
          "transactionIndex": "0x13",
          "logIndex": "0x46",
          "removed": false
        },
        {
          "address": "0x2367325334447c5e1e0f1b3a6fb947b262f58312",
          "topics": [
            "0x07ea52d82345d6e838192107d8fd7123d9c2ec8e916cd0aad13fd2b60db24644"
          ],
          "data": "0x000000000000000000000000000000000000000000000000000000000000006000000000000000000000000000000000000000000000000000000000000000c000000000000000000000000000000000000000000000000000000000000000e00000000000000000000000000000000000000000000000000000000000000002000000000000000000000000acde1f22eeab249d3ca6ba8805c8fee9f52a16e7000000000000000000000000ce8358bc28dd8296ce8caf1cd2b44787abd658870000000000000000000000000000000000000000000000000000000000000000000000000000000000000000000000000000000000000000000000000000000200000000000000000000000000000000000000000000000000000823aae90b7700000000000000000000000000000000000000000000000000000823aae90b77",
          "blockHash": "0x27ddec01acf3c5802d65f119a0f4a73588fb78ec2d05ec26a3be2fe6c7f424e4",
          "blockNumber": "0x94689d",
          "transactionHash": "0x437eae7f37604c2aef89d05a899c11dba80d812ac6f69724c16643c345b8f5f9",
          "transactionIndex": "0x13",
          "logIndex": "0x47",
          "removed": false
        },
        {
          "address": "0x1a44076050125825900e736c501f859c50fe728c",
          "topics": [
            "0x1ab700d4ced0c005b164c0f789fd09fcbb0156d4c2041b8a3bfbcd961cd1567f"
          ],
          "data": "0x000000000000000000000000000000000000000000000000000000000000006000000000000000000000000000000000000000000000000000000000000001200000000000000000000000002367325334447c5e1e0f1b3a6fb947b262f5831200000000000000000000000000000000000000000000000000000000000000990100000000000000020000763400000000000000000000000080eede496655fb9047dd39d9f418d5483ed600df000075c7000000000000000000000000909dbde1ebe906af95660033e478d59efe831fed11c0969649bab0fe3ef5d293c2c4bd04bfb200a308cf170a8127c5e688f176a0000000000000000000000000b0e1650a9760e0f383174af042091fc544b8356f000000000000000a00000000000000000000000000000000000000000000000000000000000000000000000000001600030100110100000000000000000000000000030d4000000000000000000000",
          "blockHash": "0x27ddec01acf3c5802d65f119a0f4a73588fb78ec2d05ec26a3be2fe6c7f424e4",
          "blockNumber": "0x94689d",
          "transactionHash": "0x437eae7f37604c2aef89d05a899c11dba80d812ac6f69724c16643c345b8f5f9",
          "transactionIndex": "0x13",
          "logIndex": "0x48",
          "removed": false
        },
        {
          "address": "0x80eede496655fb9047dd39d9f418d5483ed600df",
          "topics": [
            "0x85496b760a4b7f8d66384b9df21b381f5d1b1e79f229a47aaf4c232edc2fe59a",
            "0x11c0969649bab0fe3ef5d293c2c4bd04bfb200a308cf170a8127c5e688f176a0",
            "0x000000000000000000000000b0e1650a9760e0f383174af042091fc544b8356f"
          ],
          "data": "0x00000000000000000000000000000000000000000000000000000000000075c7000000000000000000000000000000000000000000000000000009184e72a000000000000000000000000000000000000000000000000000000009184e72a000",
          "blockHash": "0x27ddec01acf3c5802d65f119a0f4a73588fb78ec2d05ec26a3be2fe6c7f424e4",
          "blockNumber": "0x94689d",
          "transactionHash": "0x437eae7f37604c2aef89d05a899c11dba80d812ac6f69724c16643c345b8f5f9",
          "transactionIndex": "0x13",
          "logIndex": "0x49",
          "removed": false
        }
      ],
      "logsBloom": "0x00000000000000000000000000000000000008000000000000000000001000000000000000000000000000000800000000000000000000000000000200000000000002000000000000100008000000000000000000000000000000000000000000000000020000008000000000000800000000000110080000010010010000000000000000000000000000080000000000000000200040000000000000000000000000008000000000100000000000000000000000400000000440000000000000000082000000000000000080000000000000000000000000000000000020000000040080000000000000000000002000000000018000000000000000000000",
      "type": "0x2",
      "transactionHash": "0x437eae7f37604c2aef89d05a899c11dba80d812ac6f69724c16643c345b8f5f9",
      "transactionIndex": "0x13",
      "blockHash": "0x27ddec01acf3c5802d65f119a0f4a73588fb78ec2d05ec26a3be2fe6c7f424e4",
      "blockNumber": "0x94689d",
      "gasUsed": "0x419f0",
      "effectiveGasPrice": "0x6fe",
      "from": "0xb0e1650a9760e0f383174af042091fc544b8356f",
      "to": "0x80eede496655fb9047dd39d9f418d5483ed600df",
      "contractAddress": null,
      "l1BaseFeeScalar": "0x4e20",
      "l1BlobBaseFee": "0x1",
      "l1BlobBaseFeeScalar": "0x95506",
      "l1Fee": "0x2443c4f411",
      "l1GasPrice": "0x64d2a73b",
      "l1GasUsed": "0x11fc"
    },
    {
      "status": "0x1",
      "cumulativeGasUsed": "0x59aea1",
      "logs": [
        {
          "address": "0x64445f0aecc51e94ad52d8ac56b7190e764e561a",
          "topics": [
            "0xddf252ad1be2c89b69c2b068fc378daa952ba7f163c4a11628f55a4df523b3ef",
            "0x000000000000000000000000b0e1650a9760e0f383174af042091fc544b8356f",
            "0x0000000000000000000000000000000000000000000000000000000000000000"
          ],
          "data": "0x000000000000000000000000000000000000000000000000000009184e72a000",
          "blockHash": "0x27ddec01acf3c5802d65f119a0f4a73588fb78ec2d05ec26a3be2fe6c7f424e4",
          "blockNumber": "0x94689d",
          "transactionHash": "0xb9d7f7e0094dd1592b7e6eee737df26e74034b9b3eea1d85c18045ded1d62221",
          "transactionIndex": "0x14",
          "logIndex": "0x4a",
          "removed": false
        },
        {
          "address": "0x2367325334447c5e1e0f1b3a6fb947b262f58312",
          "topics": [
            "0x61ed099e74a97a1d7f8bb0952a88ca8b7b8ebd00c126ea04671f92a81213318a"
          ],
          "data": "0x0000000000000000000000004208d6e27538189bb48e603d6123a94b8abe0a0b000000000000000000000000000000000000000000000000000008254af11391",
          "blockHash": "0x27ddec01acf3c5802d65f119a0f4a73588fb78ec2d05ec26a3be2fe6c7f424e4",
          "blockNumber": "0x94689d",
          "transactionHash": "0xb9d7f7e0094dd1592b7e6eee737df26e74034b9b3eea1d85c18045ded1d62221",
          "transactionIndex": "0x14",
          "logIndex": "0x4b",
          "removed": false
        },
        {
          "address": "0x2367325334447c5e1e0f1b3a6fb947b262f58312",
          "topics": [
            "0x07ea52d82345d6e838192107d8fd7123d9c2ec8e916cd0aad13fd2b60db24644"
          ],
          "data": "0x000000000000000000000000000000000000000000000000000000000000006000000000000000000000000000000000000000000000000000000000000000c000000000000000000000000000000000000000000000000000000000000000e00000000000000000000000000000000000000000000000000000000000000002000000000000000000000000acde1f22eeab249d3ca6ba8805c8fee9f52a16e7000000000000000000000000ce8358bc28dd8296ce8caf1cd2b44787abd658870000000000000000000000000000000000000000000000000000000000000000000000000000000000000000000000000000000000000000000000000000000200000000000000000000000000000000000000000000000000000045847609d600000000000000000000000000000000000000000000000000000045847609d6",
          "blockHash": "0x27ddec01acf3c5802d65f119a0f4a73588fb78ec2d05ec26a3be2fe6c7f424e4",
          "blockNumber": "0x94689d",
          "transactionHash": "0xb9d7f7e0094dd1592b7e6eee737df26e74034b9b3eea1d85c18045ded1d62221",
          "transactionIndex": "0x14",
          "logIndex": "0x4c",
          "removed": false
        },
        {
          "address": "0x1a44076050125825900e736c501f859c50fe728c",
          "topics": [
            "0x1ab700d4ced0c005b164c0f789fd09fcbb0156d4c2041b8a3bfbcd961cd1567f"
          ],
          "data": "0x000000000000000000000000000000000000000000000000000000000000006000000000000000000000000000000000000000000000000000000000000001200000000000000000000000002367325334447c5e1e0f1b3a6fb947b262f5831200000000000000000000000000000000000000000000000000000000000000990100000000000000020000763400000000000000000000000064445f0aecc51e94ad52d8ac56b7190e764e561a000075e800000000000000000000000023432452b720c80553458496d4d9d7c5003280d0af8289a5b77cd22fa5e7c77b96dfe23f26be7dee7b1108f9217393e8b972d5d5000000000000000000000000b0e1650a9760e0f383174af042091fc544b8356f000000000000000a00000000000000000000000000000000000000000000000000000000000000000000000000001600030100110100000000000000000000000000030d4000000000000000000000",
          "blockHash": "0x27ddec01acf3c5802d65f119a0f4a73588fb78ec2d05ec26a3be2fe6c7f424e4",
          "blockNumber": "0x94689d",
          "transactionHash": "0xb9d7f7e0094dd1592b7e6eee737df26e74034b9b3eea1d85c18045ded1d62221",
          "transactionIndex": "0x14",
          "logIndex": "0x4d",
          "removed": false
        },
        {
          "address": "0x64445f0aecc51e94ad52d8ac56b7190e764e561a",
          "topics": [
            "0x85496b760a4b7f8d66384b9df21b381f5d1b1e79f229a47aaf4c232edc2fe59a",
            "0xaf8289a5b77cd22fa5e7c77b96dfe23f26be7dee7b1108f9217393e8b972d5d5",
            "0x000000000000000000000000b0e1650a9760e0f383174af042091fc544b8356f"
          ],
          "data": "0x00000000000000000000000000000000000000000000000000000000000075e8000000000000000000000000000000000000000000000000000009184e72a000000000000000000000000000000000000000000000000000000009184e72a000",
          "blockHash": "0x27ddec01acf3c5802d65f119a0f4a73588fb78ec2d05ec26a3be2fe6c7f424e4",
          "blockNumber": "0x94689d",
          "transactionHash": "0xb9d7f7e0094dd1592b7e6eee737df26e74034b9b3eea1d85c18045ded1d62221",
          "transactionIndex": "0x14",
          "logIndex": "0x4e",
          "removed": false
        }
      ],
      "logsBloom": "0x00000000000000000000000000000000040000000000000000000000001000000000000000000000000000000000000000000000000000000000000000000000002002000000000000000008000000000000000000000000000000000000000000000000020000008000000000000800000000000110080000010010000000000000000000000000000000080000000000000000200000000000000000000000000000008000000000100008000000000000000000400000000440000000000000000082000000000000000080000000000000000000000000000000020020000000040080000020000000000000002000000008018000000000000000000000",
      "type": "0x2",
      "transactionHash": "0xb9d7f7e0094dd1592b7e6eee737df26e74034b9b3eea1d85c18045ded1d62221",
      "transactionIndex": "0x14",
      "blockHash": "0x27ddec01acf3c5802d65f119a0f4a73588fb78ec2d05ec26a3be2fe6c7f424e4",
      "blockNumber": "0x94689d",
      "gasUsed": "0x419f0",
      "effectiveGasPrice": "0x6fe",
      "from": "0xb0e1650a9760e0f383174af042091fc544b8356f",
      "to": "0x64445f0aecc51e94ad52d8ac56b7190e764e561a",
      "contractAddress": null,
      "l1BaseFeeScalar": "0x4e20",
      "l1BlobBaseFee": "0x1",
      "l1BlobBaseFeeScalar": "0x95506",
      "l1Fee": "0x245bf7829b",
      "l1GasPrice": "0x64d2a73b",
      "l1GasUsed": "0x1208"
    },
    {
      "status": "0x1",
      "cumulativeGasUsed": "0x5dc891",
      "logs": [
        {
          "address": "0x5bff88ca1442c2496f7e475e9e7786383bc070c0",
          "topics": [
            "0xddf252ad1be2c89b69c2b068fc378daa952ba7f163c4a11628f55a4df523b3ef",
            "0x000000000000000000000000b0e1650a9760e0f383174af042091fc544b8356f",
            "0x0000000000000000000000000000000000000000000000000000000000000000"
          ],
          "data": "0x000000000000000000000000000000000000000000000000000009184e72a000",
          "blockHash": "0x27ddec01acf3c5802d65f119a0f4a73588fb78ec2d05ec26a3be2fe6c7f424e4",
          "blockNumber": "0x94689d",
          "transactionHash": "0x83e692299ab90a5acd49fb0d3c2ab46b5baecf4da02b5d016d040bbfbd445117",
          "transactionIndex": "0x15",
          "logIndex": "0x4f",
          "removed": false
        },
        {
          "address": "0x2367325334447c5e1e0f1b3a6fb947b262f58312",
          "topics": [
            "0x61ed099e74a97a1d7f8bb0952a88ca8b7b8ebd00c126ea04671f92a81213318a"
          ],
          "data": "0x0000000000000000000000004208d6e27538189bb48e603d6123a94b8abe0a0b000000000000000000000000000000000000000000000000000008254af11391",
          "blockHash": "0x27ddec01acf3c5802d65f119a0f4a73588fb78ec2d05ec26a3be2fe6c7f424e4",
          "blockNumber": "0x94689d",
          "transactionHash": "0x83e692299ab90a5acd49fb0d3c2ab46b5baecf4da02b5d016d040bbfbd445117",
          "transactionIndex": "0x15",
          "logIndex": "0x50",
          "removed": false
        },
        {
          "address": "0x2367325334447c5e1e0f1b3a6fb947b262f58312",
          "topics": [
            "0x07ea52d82345d6e838192107d8fd7123d9c2ec8e916cd0aad13fd2b60db24644"
          ],
          "data": "0x000000000000000000000000000000000000000000000000000000000000006000000000000000000000000000000000000000000000000000000000000000c000000000000000000000000000000000000000000000000000000000000000e00000000000000000000000000000000000000000000000000000000000000002000000000000000000000000acde1f22eeab249d3ca6ba8805c8fee9f52a16e7000000000000000000000000ce8358bc28dd8296ce8caf1cd2b44787abd658870000000000000000000000000000000000000000000000000000000000000000000000000000000000000000000000000000000000000000000000000000000200000000000000000000000000000000000000000000000000000045847609d600000000000000000000000000000000000000000000000000000045847609d6",
          "blockHash": "0x27ddec01acf3c5802d65f119a0f4a73588fb78ec2d05ec26a3be2fe6c7f424e4",
          "blockNumber": "0x94689d",
          "transactionHash": "0x83e692299ab90a5acd49fb0d3c2ab46b5baecf4da02b5d016d040bbfbd445117",
          "transactionIndex": "0x15",
          "logIndex": "0x51",
          "removed": false
        },
        {
          "address": "0x1a44076050125825900e736c501f859c50fe728c",
          "topics": [
            "0x1ab700d4ced0c005b164c0f789fd09fcbb0156d4c2041b8a3bfbcd961cd1567f"
          ],
          "data": "0x000000000000000000000000000000000000000000000000000000000000006000000000000000000000000000000000000000000000000000000000000001200000000000000000000000002367325334447c5e1e0f1b3a6fb947b262f583120000000000000000000000000000000000000000000000000000000000000099010000000000000002000076340000000000000000000000005bff88ca1442c2496f7e475e9e7786383bc070c0000075e8000000000000000000000000e4796ccb6bb5de2290c417ac337f2b66ca2e770ec9e7093dd1ff0c36efd7caf7a5f10d6ae1f44418c81eb7a9d5a1b4d2a15f4a0e000000000000000000000000b0e1650a9760e0f383174af042091fc544b8356f000000000000000a00000000000000000000000000000000000000000000000000000000000000000000000000001600030100110100000000000000000000000000030d4000000000000000000000",
          "blockHash": "0x27ddec01acf3c5802d65f119a0f4a73588fb78ec2d05ec26a3be2fe6c7f424e4",
          "blockNumber": "0x94689d",
          "transactionHash": "0x83e692299ab90a5acd49fb0d3c2ab46b5baecf4da02b5d016d040bbfbd445117",
          "transactionIndex": "0x15",
          "logIndex": "0x52",
          "removed": false
        },
        {
          "address": "0x5bff88ca1442c2496f7e475e9e7786383bc070c0",
          "topics": [
            "0x85496b760a4b7f8d66384b9df21b381f5d1b1e79f229a47aaf4c232edc2fe59a",
            "0xc9e7093dd1ff0c36efd7caf7a5f10d6ae1f44418c81eb7a9d5a1b4d2a15f4a0e",
            "0x000000000000000000000000b0e1650a9760e0f383174af042091fc544b8356f"
          ],
          "data": "0x00000000000000000000000000000000000000000000000000000000000075e8000000000000000000000000000000000000000000000000000009184e72a000000000000000000000000000000000000000000000000000000009184e72a000",
          "blockHash": "0x27ddec01acf3c5802d65f119a0f4a73588fb78ec2d05ec26a3be2fe6c7f424e4",
          "blockNumber": "0x94689d",
          "transactionHash": "0x83e692299ab90a5acd49fb0d3c2ab46b5baecf4da02b5d016d040bbfbd445117",
          "transactionIndex": "0x15",
          "logIndex": "0x53",
          "removed": false
        }
      ],
      "logsBloom": "0x00000000000000000000040000000000000000000000000000000000001000000000000000000000000000000000000000000000000000000000000000000000000002000000000000000008000000000000000000000000000000000000000000000000020000008000000000000800000000000110080000010010000020000000000000000000000000080000000000000000200000000000000000000000000000008000000000100000000000000000000000400000000440000010000000000082000000000000000080000000000000800000000000000000000020000000040080000000000000000000002000000000018000000000000000010800",
      "type": "0x2",
      "transactionHash": "0x83e692299ab90a5acd49fb0d3c2ab46b5baecf4da02b5d016d040bbfbd445117",
      "transactionIndex": "0x15",
      "blockHash": "0x27ddec01acf3c5802d65f119a0f4a73588fb78ec2d05ec26a3be2fe6c7f424e4",
      "blockNumber": "0x94689d",
      "gasUsed": "0x419f0",
      "effectiveGasPrice": "0x6fe",
      "from": "0xb0e1650a9760e0f383174af042091fc544b8356f",
      "to": "0x5bff88ca1442c2496f7e475e9e7786383bc070c0",
      "contractAddress": null,
      "l1BaseFeeScalar": "0x4e20",
      "l1BlobBaseFee": "0x1",
      "l1BlobBaseFeeScalar": "0x95506",
      "l1Fee": "0x245bf7829b",
      "l1GasPrice": "0x64d2a73b",
      "l1GasUsed": "0x1208"
    },
    {
      "status": "0x1",
      "cumulativeGasUsed": "0x61e281",
      "logs": [
        {
          "address": "0x3ec3849c33291a9ef4c5db86de593eb4a37fde45",
          "topics": [
            "0xddf252ad1be2c89b69c2b068fc378daa952ba7f163c4a11628f55a4df523b3ef",
            "0x000000000000000000000000b0e1650a9760e0f383174af042091fc544b8356f",
            "0x0000000000000000000000000000000000000000000000000000000000000000"
          ],
          "data": "0x000000000000000000000000000000000000000000000000000009184e72a000",
          "blockHash": "0x27ddec01acf3c5802d65f119a0f4a73588fb78ec2d05ec26a3be2fe6c7f424e4",
          "blockNumber": "0x94689d",
          "transactionHash": "0xc9eb0012d1c5b2dfe986e9d088432303d325c25d1de71f8d070d1332ee4aa4b2",
          "transactionIndex": "0x16",
          "logIndex": "0x54",
          "removed": false
        },
        {
          "address": "0x2367325334447c5e1e0f1b3a6fb947b262f58312",
          "topics": [
            "0x61ed099e74a97a1d7f8bb0952a88ca8b7b8ebd00c126ea04671f92a81213318a"
          ],
          "data": "0x0000000000000000000000004208d6e27538189bb48e603d6123a94b8abe0a0b000000000000000000000000000000000000000000000000000008254af11391",
          "blockHash": "0x27ddec01acf3c5802d65f119a0f4a73588fb78ec2d05ec26a3be2fe6c7f424e4",
          "blockNumber": "0x94689d",
          "transactionHash": "0xc9eb0012d1c5b2dfe986e9d088432303d325c25d1de71f8d070d1332ee4aa4b2",
          "transactionIndex": "0x16",
          "logIndex": "0x55",
          "removed": false
        },
        {
          "address": "0x2367325334447c5e1e0f1b3a6fb947b262f58312",
          "topics": [
            "0x07ea52d82345d6e838192107d8fd7123d9c2ec8e916cd0aad13fd2b60db24644"
          ],
          "data": "0x000000000000000000000000000000000000000000000000000000000000006000000000000000000000000000000000000000000000000000000000000000c000000000000000000000000000000000000000000000000000000000000000e00000000000000000000000000000000000000000000000000000000000000002000000000000000000000000acde1f22eeab249d3ca6ba8805c8fee9f52a16e7000000000000000000000000ce8358bc28dd8296ce8caf1cd2b44787abd658870000000000000000000000000000000000000000000000000000000000000000000000000000000000000000000000000000000000000000000000000000000200000000000000000000000000000000000000000000000000000045847609d600000000000000000000000000000000000000000000000000000045847609d6",
          "blockHash": "0x27ddec01acf3c5802d65f119a0f4a73588fb78ec2d05ec26a3be2fe6c7f424e4",
          "blockNumber": "0x94689d",
          "transactionHash": "0xc9eb0012d1c5b2dfe986e9d088432303d325c25d1de71f8d070d1332ee4aa4b2",
          "transactionIndex": "0x16",
          "logIndex": "0x56",
          "removed": false
        },
        {
          "address": "0x1a44076050125825900e736c501f859c50fe728c",
          "topics": [
            "0x1ab700d4ced0c005b164c0f789fd09fcbb0156d4c2041b8a3bfbcd961cd1567f"
          ],
          "data": "0x000000000000000000000000000000000000000000000000000000000000006000000000000000000000000000000000000000000000000000000000000001200000000000000000000000002367325334447c5e1e0f1b3a6fb947b262f583120000000000000000000000000000000000000000000000000000000000000099010000000000000002000076340000000000000000000000003ec3849c33291a9ef4c5db86de593eb4a37fde45000075e80000000000000000000000001f55a02a049033e3419a8e2975cf3f572f4e6e9aa33d7d87841690df1eea881592f8fdae021e3a9a8fe8ee585fa708af880f9265000000000000000000000000b0e1650a9760e0f383174af042091fc544b8356f000000000000000a00000000000000000000000000000000000000000000000000000000000000000000000000001600030100110100000000000000000000000000030d4000000000000000000000",
          "blockHash": "0x27ddec01acf3c5802d65f119a0f4a73588fb78ec2d05ec26a3be2fe6c7f424e4",
          "blockNumber": "0x94689d",
          "transactionHash": "0xc9eb0012d1c5b2dfe986e9d088432303d325c25d1de71f8d070d1332ee4aa4b2",
          "transactionIndex": "0x16",
          "logIndex": "0x57",
          "removed": false
        },
        {
          "address": "0x3ec3849c33291a9ef4c5db86de593eb4a37fde45",
          "topics": [
            "0x85496b760a4b7f8d66384b9df21b381f5d1b1e79f229a47aaf4c232edc2fe59a",
            "0xa33d7d87841690df1eea881592f8fdae021e3a9a8fe8ee585fa708af880f9265",
            "0x000000000000000000000000b0e1650a9760e0f383174af042091fc544b8356f"
          ],
          "data": "0x00000000000000000000000000000000000000000000000000000000000075e8000000000000000000000000000000000000000000000000000009184e72a000000000000000000000000000000000000000000000000000000009184e72a000",
          "blockHash": "0x27ddec01acf3c5802d65f119a0f4a73588fb78ec2d05ec26a3be2fe6c7f424e4",
          "blockNumber": "0x94689d",
          "transactionHash": "0xc9eb0012d1c5b2dfe986e9d088432303d325c25d1de71f8d070d1332ee4aa4b2",
          "transactionIndex": "0x16",
          "logIndex": "0x58",
          "removed": false
        }
      ],
      "logsBloom": "0x00000000000000000000000000002000000000000000000000000000001000000000000000000000000000000000000000000000000000000000000000000000000002000000000400000008000000000000000000000000000000000000000000000000020000008000000000000800000000000110080000010010000000000000000000000000000000080000000000000000200020000040000000000000000000008000000000100000000000000000000000400000000c40000000000000000082000000000000000080000000000000000000000000000080000020000000040080000000000000000000002000000000018000000000000000000000",
      "type": "0x2",
      "transactionHash": "0xc9eb0012d1c5b2dfe986e9d088432303d325c25d1de71f8d070d1332ee4aa4b2",
      "transactionIndex": "0x16",
      "blockHash": "0x27ddec01acf3c5802d65f119a0f4a73588fb78ec2d05ec26a3be2fe6c7f424e4",
      "blockNumber": "0x94689d",
      "gasUsed": "0x419f0",
      "effectiveGasPrice": "0x6fe",
      "from": "0xb0e1650a9760e0f383174af042091fc544b8356f",
      "to": "0x3ec3849c33291a9ef4c5db86de593eb4a37fde45",
      "contractAddress": null,
      "l1BaseFeeScalar": "0x4e20",
      "l1BlobBaseFee": "0x1",
      "l1BlobBaseFeeScalar": "0x95506",
      "l1Fee": "0x245bf7829b",
      "l1GasPrice": "0x64d2a73b",
      "l1GasUsed": "0x1208"
    },
    {
      "status": "0x1",
      "cumulativeGasUsed": "0x65fc71",
      "logs": [
        {
          "address": "0x80eede496655fb9047dd39d9f418d5483ed600df",
          "topics": [
            "0xddf252ad1be2c89b69c2b068fc378daa952ba7f163c4a11628f55a4df523b3ef",
            "0x000000000000000000000000b0e1650a9760e0f383174af042091fc544b8356f",
            "0x0000000000000000000000000000000000000000000000000000000000000000"
          ],
          "data": "0x000000000000000000000000000000000000000000000000000009184e72a000",
          "blockHash": "0x27ddec01acf3c5802d65f119a0f4a73588fb78ec2d05ec26a3be2fe6c7f424e4",
          "blockNumber": "0x94689d",
          "transactionHash": "0x8d10feae537d118174044368f51f34b995f55634890a6e60df08438d29bb11df",
          "transactionIndex": "0x17",
          "logIndex": "0x59",
          "removed": false
        },
        {
          "address": "0x2367325334447c5e1e0f1b3a6fb947b262f58312",
          "topics": [
            "0x61ed099e74a97a1d7f8bb0952a88ca8b7b8ebd00c126ea04671f92a81213318a"
          ],
          "data": "0x0000000000000000000000004208d6e27538189bb48e603d6123a94b8abe0a0b000000000000000000000000000000000000000000000000000008254af11391",
          "blockHash": "0x27ddec01acf3c5802d65f119a0f4a73588fb78ec2d05ec26a3be2fe6c7f424e4",
          "blockNumber": "0x94689d",
          "transactionHash": "0x8d10feae537d118174044368f51f34b995f55634890a6e60df08438d29bb11df",
          "transactionIndex": "0x17",
          "logIndex": "0x5a",
          "removed": false
        },
        {
          "address": "0x2367325334447c5e1e0f1b3a6fb947b262f58312",
          "topics": [
            "0x07ea52d82345d6e838192107d8fd7123d9c2ec8e916cd0aad13fd2b60db24644"
          ],
          "data": "0x000000000000000000000000000000000000000000000000000000000000006000000000000000000000000000000000000000000000000000000000000000c000000000000000000000000000000000000000000000000000000000000000e00000000000000000000000000000000000000000000000000000000000000002000000000000000000000000acde1f22eeab249d3ca6ba8805c8fee9f52a16e7000000000000000000000000ce8358bc28dd8296ce8caf1cd2b44787abd658870000000000000000000000000000000000000000000000000000000000000000000000000000000000000000000000000000000000000000000000000000000200000000000000000000000000000000000000000000000000000045847609d600000000000000000000000000000000000000000000000000000045847609d6",
          "blockHash": "0x27ddec01acf3c5802d65f119a0f4a73588fb78ec2d05ec26a3be2fe6c7f424e4",
          "blockNumber": "0x94689d",
          "transactionHash": "0x8d10feae537d118174044368f51f34b995f55634890a6e60df08438d29bb11df",
          "transactionIndex": "0x17",
          "logIndex": "0x5b",
          "removed": false
        },
        {
          "address": "0x1a44076050125825900e736c501f859c50fe728c",
          "topics": [
            "0x1ab700d4ced0c005b164c0f789fd09fcbb0156d4c2041b8a3bfbcd961cd1567f"
          ],
          "data": "0x000000000000000000000000000000000000000000000000000000000000006000000000000000000000000000000000000000000000000000000000000001200000000000000000000000002367325334447c5e1e0f1b3a6fb947b262f5831200000000000000000000000000000000000000000000000000000000000000990100000000000000020000763400000000000000000000000080eede496655fb9047dd39d9f418d5483ed600df000075e8000000000000000000000000909dbde1ebe906af95660033e478d59efe831fedc7b85c24d1ca348c2e0d0fa360a05ce211743fd6309ca541cd0ccfd3275511fb000000000000000000000000b0e1650a9760e0f383174af042091fc544b8356f000000000000000a00000000000000000000000000000000000000000000000000000000000000000000000000001600030100110100000000000000000000000000030d4000000000000000000000",
          "blockHash": "0x27ddec01acf3c5802d65f119a0f4a73588fb78ec2d05ec26a3be2fe6c7f424e4",
          "blockNumber": "0x94689d",
          "transactionHash": "0x8d10feae537d118174044368f51f34b995f55634890a6e60df08438d29bb11df",
          "transactionIndex": "0x17",
          "logIndex": "0x5c",
          "removed": false
        },
        {
          "address": "0x80eede496655fb9047dd39d9f418d5483ed600df",
          "topics": [
            "0x85496b760a4b7f8d66384b9df21b381f5d1b1e79f229a47aaf4c232edc2fe59a",
            "0xc7b85c24d1ca348c2e0d0fa360a05ce211743fd6309ca541cd0ccfd3275511fb",
            "0x000000000000000000000000b0e1650a9760e0f383174af042091fc544b8356f"
          ],
          "data": "0x00000000000000000000000000000000000000000000000000000000000075e8000000000000000000000000000000000000000000000000000009184e72a000000000000000000000000000000000000000000000000000000009184e72a000",
          "blockHash": "0x27ddec01acf3c5802d65f119a0f4a73588fb78ec2d05ec26a3be2fe6c7f424e4",
          "blockNumber": "0x94689d",
          "transactionHash": "0x8d10feae537d118174044368f51f34b995f55634890a6e60df08438d29bb11df",
          "transactionIndex": "0x17",
          "logIndex": "0x5d",
          "removed": false
        }
      ],
      "logsBloom": "0x00000000000000000000000000000000000000000000000000000000001000000000000000000000000000000800000000000000000000000000000200000000000002000000000000000008000000000000000000000000000000000000000000000000020000008000000000000800000000000110080000010010010000000004000000000000000000080000000000000000200000000000000000000000000000008000000000100000000000000000000000400000000440000000000000000082000000000000000080000000000000000000000000000000000020000000040080004000000000000000002000000000018000000000400000000000",
      "type": "0x2",
      "transactionHash": "0x8d10feae537d118174044368f51f34b995f55634890a6e60df08438d29bb11df",
      "transactionIndex": "0x17",
      "blockHash": "0x27ddec01acf3c5802d65f119a0f4a73588fb78ec2d05ec26a3be2fe6c7f424e4",
      "blockNumber": "0x94689d",
      "gasUsed": "0x419f0",
      "effectiveGasPrice": "0x6fe",
      "from": "0xb0e1650a9760e0f383174af042091fc544b8356f",
      "to": "0x80eede496655fb9047dd39d9f418d5483ed600df",
      "contractAddress": null,
      "l1BaseFeeScalar": "0x4e20",
      "l1BlobBaseFee": "0x1",
      "l1BlobBaseFeeScalar": "0x95506",
      "l1Fee": "0x242b926588",
      "l1GasPrice": "0x64d2a73b",
      "l1GasUsed": "0x11f0"
    }
  ],
  "libraries": [],
  "pending": [],
  "returns": {},
  "timestamp": 1719619797,
  "chain": 34443,
  "commit": "0f0c90c"
}