{
  "transactions": [
    {
      "hash": "0x00c363533db9f6a9d68db7dd42e11aaddda9f2cce9a09aa8eb83a180e7b892bb",
      "transactionType": "CALL",
      "contractName": null,
      "contractAddress": "0x741f0d8bde14140f62107fc60a0ee122b37d4630",
      "function": "batchBridgeWithEthFeeFromWallet((uint32,bytes32,uint256,uint256,bytes,bytes,bytes)[],address[],address[])",
      "arguments": [
        "[(30211, 0x0000000000000000000000004a767e2ef83577225522ef8ed71056c6e3acb216, 1000000000000000000, 0, 0x, 0x, 0x), (30214, 0x000000000000000000000000741f0d8bde14140f62107fc60a0ee122b37d4630, 1000000000000000000, 0, 0x, 0x, 0x)]",
        "[0x57558Cb8d6005DE0BAe8a2789d5EfaaE52dba5a8, 0x57558Cb8d6005DE0BAe8a2789d5EfaaE52dba5a8]",
        "[0x741F0d8Bde14140f62107FC60A0EE122B37D4630, 0x741F0d8Bde14140f62107FC60A0EE122B37D4630]"
      ],
      "transaction": {
        "from": "0x45dce8e4f2dc005a5f28206a46cb034697eeda8e",
        "to": "0x741f0d8bde14140f62107fc60a0ee122b37d4630",
        "gas": "0xe21dd",
        "value": "0x8803ec707603",
        "input": "0xb70d42410000000000000000000000000000000000000000000000000000000000000060000000000000000000000000000000000000000000000000000000000000034000000000000000000000000000000000000000000000000000000000000003a000000000000000000000000000000000000000000000000000000000000000020000000000000000000000000000000000000000000000000000000000000040000000000000000000000000000000000000000000000000000000000000018000000000000000000000000000000000000000000000000000000000000076030000000000000000000000004a767e2ef83577225522ef8ed71056c6e3acb2160000000000000000000000000000000000000000000000000de0b6b3a7640000000000000000000000000000000000000000000000000000000000000000000000000000000000000000000000000000000000000000000000000000000000e0000000000000000000000000000000000000000000000000000000000000010000000000000000000000000000000000000000000000000000000000000001200000000000000000000000000000000000000000000000000000000000000000000000000000000000000000000000000000000000000000000000000000000000000000000000000000000000000000000000000000000000000000000000000000000000000000000000000000000000000000000000000000000000007606000000000000000000000000741f0d8bde14140f62107fc60a0ee122b37d46300000000000000000000000000000000000000000000000000de0b6b3a7640000000000000000000000000000000000000000000000000000000000000000000000000000000000000000000000000000000000000000000000000000000000e000000000000000000000000000000000000000000000000000000000000001000000000000000000000000000000000000000000000000000000000000000120000000000000000000000000000000000000000000000000000000000000000000000000000000000000000000000000000000000000000000000000000000000000000000000000000000000000000000000000000000000000000000000000000000000000000000000000000000000000000000000000000000000000000200000000000000000000000057558cb8d6005de0bae8a2789d5efaae52dba5a800000000000000000000000057558cb8d6005de0bae8a2789d5efaae52dba5a80000000000000000000000000000000000000000000000000000000000000002000000000000000000000000741f0d8bde14140f62107fc60a0ee122b37d4630000000000000000000000000741f0d8bde14140f62107fc60a0ee122b37d4630",
        "nonce": "0x8d",
        "chainId": "0x1e0"
      },
      "additionalContracts": [],
      "isFixedGasLimit": false
    }
  ],
  "receipts": [
    {
      "status": "0x1",
      "cumulativeGasUsed": "0xbd4b75",
      "logs": [
        {
          "address": "0x57558cb8d6005de0bae8a2789d5efaae52dba5a8",
          "topics": [
            "0xddf252ad1be2c89b69c2b068fc378daa952ba7f163c4a11628f55a4df523b3ef",
            "0x000000000000000000000000741f0d8bde14140f62107fc60a0ee122b37d4630",
            "0x0000000000000000000000000000000000000000000000000000000000000000"
          ],
          "data": "0x0000000000000000000000000000000000000000000000000de0b6b3a7640000",
          "blockHash": "0x74b52c08b40675a794ae9e05babc0e963b80fe4fad4eb27eee1c3f97f7bdad26",
          "blockNumber": "0x11ec7af",
          "transactionHash": "0x00c363533db9f6a9d68db7dd42e11aaddda9f2cce9a09aa8eb83a180e7b892bb",
          "transactionIndex": "0x1a",
          "logIndex": "0x111",
          "removed": false
        },
        {
          "address": "0xc39161c743d0307eb9bcc9fef03eeb9dc4802de7",
          "topics": [
            "0x61ed099e74a97a1d7f8bb0952a88ca8b7b8ebd00c126ea04671f92a81213318a"
          ],
          "data": "0x000000000000000000000000cce466a522984415bc91338c232d98869193d46e000000000000000000000000000000000000000000000000000026c2d811b67b",
          "blockHash": "0x74b52c08b40675a794ae9e05babc0e963b80fe4fad4eb27eee1c3f97f7bdad26",
          "blockNumber": "0x11ec7af",
          "transactionHash": "0x00c363533db9f6a9d68db7dd42e11aaddda9f2cce9a09aa8eb83a180e7b892bb",
          "transactionIndex": "0x1a",
          "logIndex": "0x112",
          "removed": false
        },
        {
          "address": "0xc39161c743d0307eb9bcc9fef03eeb9dc4802de7",
          "topics": [
            "0x07ea52d82345d6e838192107d8fd7123d9c2ec8e916cd0aad13fd2b60db24644"
          ],
          "data": "0x000000000000000000000000000000000000000000000000000000000000006000000000000000000000000000000000000000000000000000000000000000e0000000000000000000000000000000000000000000000000000000000000010000000000000000000000000000000000000000000000000000000000000000030000000000000000000000006788f52439aca6bff597d3eec2dc9a44b8fee84200000000000000000000000095729ea44326f8add8a9b1d987279dbdc1dd3dff000000000000000000000000e16561b56bdf003b785347d237905bae24f5f973000000000000000000000000000000000000000000000000000000000000000000000000000000000000000000000000000000000000000000000000000000030000000000000000000000000000000000000000000000000000068575a5ae96000000000000000000000000000000000000000000000000000006cba3f5563a000000000000000000000000000000000000000000000000000006cba3f5563a",
          "blockHash": "0x74b52c08b40675a794ae9e05babc0e963b80fe4fad4eb27eee1c3f97f7bdad26",
          "blockNumber": "0x11ec7af",
          "transactionHash": "0x00c363533db9f6a9d68db7dd42e11aaddda9f2cce9a09aa8eb83a180e7b892bb",
          "transactionIndex": "0x1a",
          "logIndex": "0x113",
          "removed": false
        },
        {
          "address": "0x6f475642a6e85809b1c36fa62763669b1b48dd5b",
          "topics": [
            "0x1ab700d4ced0c005b164c0f789fd09fcbb0156d4c2041b8a3bfbcd961cd1567f"
          ],
          "data": "0x00000000000000000000000000000000000000000000000000000000000000600000000000000000000000000000000000000000000000000000000000000120000000000000000000000000c39161c743d0307eb9bcc9fef03eeb9dc4802de700000000000000000000000000000000000000000000000000000000000000990100000000000000010000766f00000000000000000000000057558cb8d6005de0bae8a2789d5efaae52dba5a800007603000000000000000000000000a057d8d4fc86a62801ce363c169b0a8d192f6ceee8a5ed7b2e0ff5ece2df76e0b24704128dffc0488986e52c9c48b4a18bb03fda0000000000000000000000004a767e2ef83577225522ef8ed71056c6e3acb21600000000000f424000000000000000000000000000000000000000000000000000000000000000000000000000001600030100110100000000000000000000000000030d4000000000000000000000",
          "blockHash": "0x74b52c08b40675a794ae9e05babc0e963b80fe4fad4eb27eee1c3f97f7bdad26",
          "blockNumber": "0x11ec7af",
          "transactionHash": "0x00c363533db9f6a9d68db7dd42e11aaddda9f2cce9a09aa8eb83a180e7b892bb",
          "transactionIndex": "0x1a",
          "logIndex": "0x114",
          "removed": false
        },
        {
          "address": "0x57558cb8d6005de0bae8a2789d5efaae52dba5a8",
          "topics": [
            "0x85496b760a4b7f8d66384b9df21b381f5d1b1e79f229a47aaf4c232edc2fe59a",
            "0xe8a5ed7b2e0ff5ece2df76e0b24704128dffc0488986e52c9c48b4a18bb03fda",
            "0x000000000000000000000000741f0d8bde14140f62107fc60a0ee122b37d4630"
          ],
          "data": "0x00000000000000000000000000000000000000000000000000000000000076030000000000000000000000000000000000000000000000000de0b6b3a76400000000000000000000000000000000000000000000000000000de0b6b3a7640000",
          "blockHash": "0x74b52c08b40675a794ae9e05babc0e963b80fe4fad4eb27eee1c3f97f7bdad26",
          "blockNumber": "0x11ec7af",
          "transactionHash": "0x00c363533db9f6a9d68db7dd42e11aaddda9f2cce9a09aa8eb83a180e7b892bb",
          "transactionIndex": "0x1a",
          "logIndex": "0x115",
          "removed": false
        },
        {
          "address": "0x57558cb8d6005de0bae8a2789d5efaae52dba5a8",
          "topics": [
            "0xddf252ad1be2c89b69c2b068fc378daa952ba7f163c4a11628f55a4df523b3ef",
            "0x000000000000000000000000741f0d8bde14140f62107fc60a0ee122b37d4630",
            "0x0000000000000000000000000000000000000000000000000000000000000000"
          ],
          "data": "0x0000000000000000000000000000000000000000000000000de0b6b3a7640000",
          "blockHash": "0x74b52c08b40675a794ae9e05babc0e963b80fe4fad4eb27eee1c3f97f7bdad26",
          "blockNumber": "0x11ec7af",
          "transactionHash": "0x00c363533db9f6a9d68db7dd42e11aaddda9f2cce9a09aa8eb83a180e7b892bb",
          "transactionIndex": "0x1a",
          "logIndex": "0x116",
          "removed": false
        },
        {
          "address": "0xc39161c743d0307eb9bcc9fef03eeb9dc4802de7",
          "topics": [
            "0x61ed099e74a97a1d7f8bb0952a88ca8b7b8ebd00c126ea04671f92a81213318a"
          ],
          "data": "0x000000000000000000000000cce466a522984415bc91338c232d98869193d46e00000000000000000000000000000000000000000000000000004d1b83fa3125",
          "blockHash": "0x74b52c08b40675a794ae9e05babc0e963b80fe4fad4eb27eee1c3f97f7bdad26",
          "blockNumber": "0x11ec7af",
          "transactionHash": "0x00c363533db9f6a9d68db7dd42e11aaddda9f2cce9a09aa8eb83a180e7b892bb",
          "transactionIndex": "0x1a",
          "logIndex": "0x117",
          "removed": false
        },
        {
          "address": "0xc39161c743d0307eb9bcc9fef03eeb9dc4802de7",
          "topics": [
            "0x07ea52d82345d6e838192107d8fd7123d9c2ec8e916cd0aad13fd2b60db24644"
          ],
          "data": "0x000000000000000000000000000000000000000000000000000000000000006000000000000000000000000000000000000000000000000000000000000000e0000000000000000000000000000000000000000000000000000000000000010000000000000000000000000000000000000000000000000000000000000000030000000000000000000000006788f52439aca6bff597d3eec2dc9a44b8fee84200000000000000000000000095729ea44326f8add8a9b1d987279dbdc1dd3dff000000000000000000000000e16561b56bdf003b785347d237905bae24f5f9730000000000000000000000000000000000000000000000000000000000000000000000000000000000000000000000000000000000000000000000000000000300000000000000000000000000000000000000000000000000000002dc6aacd900000000000000000000000000000000000000000000000000000002fb34c34000000000000000000000000000000000000000000000000000000002fb34c340",
          "blockHash": "0x74b52c08b40675a794ae9e05babc0e963b80fe4fad4eb27eee1c3f97f7bdad26",
          "blockNumber": "0x11ec7af",
          "transactionHash": "0x00c363533db9f6a9d68db7dd42e11aaddda9f2cce9a09aa8eb83a180e7b892bb",
          "transactionIndex": "0x1a",
          "logIndex": "0x118",
          "removed": false
        },
        {
          "address": "0x6f475642a6e85809b1c36fa62763669b1b48dd5b",
          "topics": [
            "0x1ab700d4ced0c005b164c0f789fd09fcbb0156d4c2041b8a3bfbcd961cd1567f"
          ],
          "data": "0x00000000000000000000000000000000000000000000000000000000000000600000000000000000000000000000000000000000000000000000000000000120000000000000000000000000c39161c743d0307eb9bcc9fef03eeb9dc4802de700000000000000000000000000000000000000000000000000000000000000990100000000000000010000766f00000000000000000000000057558cb8d6005de0bae8a2789d5efaae52dba5a80000760600000000000000000000000057558cb8d6005de0bae8a2789d5efaae52dba5a8a0dcac979fcd5c607323a3625183fc24980352390aea9214d6015e8a501d1c5d000000000000000000000000741f0d8bde14140f62107fc60a0ee122b37d463000000000000f424000000000000000000000000000000000000000000000000000000000000000000000000000001600030100110100000000000000000000000000030d4000000000000000000000",
          "blockHash": "0x74b52c08b40675a794ae9e05babc0e963b80fe4fad4eb27eee1c3f97f7bdad26",
          "blockNumber": "0x11ec7af",
          "transactionHash": "0x00c363533db9f6a9d68db7dd42e11aaddda9f2cce9a09aa8eb83a180e7b892bb",
          "transactionIndex": "0x1a",
          "logIndex": "0x119",
          "removed": false
        },
        {
          "address": "0x57558cb8d6005de0bae8a2789d5efaae52dba5a8",
          "topics": [
            "0x85496b760a4b7f8d66384b9df21b381f5d1b1e79f229a47aaf4c232edc2fe59a",
            "0xa0dcac979fcd5c607323a3625183fc24980352390aea9214d6015e8a501d1c5d",
            "0x000000000000000000000000741f0d8bde14140f62107fc60a0ee122b37d4630"
          ],
          "data": "0x00000000000000000000000000000000000000000000000000000000000076060000000000000000000000000000000000000000000000000de0b6b3a76400000000000000000000000000000000000000000000000000000de0b6b3a7640000",
          "blockHash": "0x74b52c08b40675a794ae9e05babc0e963b80fe4fad4eb27eee1c3f97f7bdad26",
          "blockNumber": "0x11ec7af",
          "transactionHash": "0x00c363533db9f6a9d68db7dd42e11aaddda9f2cce9a09aa8eb83a180e7b892bb",
          "transactionIndex": "0x1a",
          "logIndex": "0x11a",
          "removed": false
        }
      ],
      "logsBloom": "0x0010000000000000000008000004004000000000000000000000000000000000000000000000000000000000000000040000010000000000000000800000020000000200000000000000000800000000014000000000000000000000000000000000000002000000802000000000080000000000000000000000001000000000000000000080000000000008000000000000000000000000000000000000000100000000a000001000100000000000000000000000400000000440000000000000000002000000200000000080000000000000000000000000000000000020004000040000000000000000000000102000000000008000000000000000000000",
      "type": "0x2",
      "transactionHash": "0x00c363533db9f6a9d68db7dd42e11aaddda9f2cce9a09aa8eb83a180e7b892bb",
      "transactionIndex": "0x1a",
      "blockHash": "0x74b52c08b40675a794ae9e05babc0e963b80fe4fad4eb27eee1c3f97f7bdad26",
      "blockNumber": "0x11ec7af",
      "gasUsed": "0xa3b45",
      "effectiveGasPrice": "0x1884c",
      "from": "0x45dce8e4f2dc005a5f28206a46cb034697eeda8e",
      "to": "0x741f0d8bde14140f62107fc60a0ee122b37d4630",
      "contractAddress": null,
      "l1BaseFeeScalar": "0x21f9",
      "l1BlobBaseFee": "0x1",
      "l1BlobBaseFeeScalar": "0xdd3ef",
      "l1Fee": "0x6d02bc591",
      "l1GasPrice": "0x3ce39161",
      "l1GasUsed": "0xcdd"
    }
  ],
  "libraries": [],
  "pending": [],
  "returns": {},
  "timestamp": 1756924471859,
  "chain": 480,
  "commit": "487ed68"
}