{
  "transactions": [
    {
      "hash": "0x406cb0ce7eb509cd64d220a4b6d9323497c377d095721bb3918e77b997870de0",
      "transactionType": "CALL",
      "contractName": null,
      "contractAddress": "0x741f0d8bde14140f62107fc60a0ee122b37d4630",
      "function": "batchBridgeWithEthFeeFromWallet((uint32,bytes32,uint256,uint256,bytes,bytes,bytes)[],address[],address[])",
      "arguments": [
        "[(30375, 0x000000000000000000000000741f0d8bde14140f62107fc60a0ee122b37d4630, 1000000000000000000, 0, 0x, 0x, 0x)]",
        "[0x57558Cb8d6005DE0BAe8a2789d5EfaaE52dba5a8]",
        "[0x741F0d8Bde14140f62107FC60A0EE122B37D4630]"
      ],
      "transaction": {
        "from": "0x45dce8e4f2dc005a5f28206a46cb034697eeda8e",
        "to": "0x741f0d8bde14140f62107fc60a0ee122b37d4630",
        "gas": "0x94763",
        "value": "0x536e25b5824",
        "input": "0xb70d4241000000000000000000000000000000000000000000000000000000000000006000000000000000000000000000000000000000000000000000000000000001e000000000000000000000000000000000000000000000000000000000000002200000000000000000000000000000000000000000000000000000000000000001000000000000000000000000000000000000000000000000000000000000002000000000000000000000000000000000000000000000000000000000000076a7000000000000000000000000741f0d8bde14140f62107fc60a0ee122b37d46300000000000000000000000000000000000000000000000000de0b6b3a7640000000000000000000000000000000000000000000000000000000000000000000000000000000000000000000000000000000000000000000000000000000000e000000000000000000000000000000000000000000000000000000000000001000000000000000000000000000000000000000000000000000000000000000120000000000000000000000000000000000000000000000000000000000000000000000000000000000000000000000000000000000000000000000000000000000000000000000000000000000000000000000000000000000000000000000000000000000000000000000000000000000000000000000000000000000000000100000000000000000000000057558cb8d6005de0bae8a2789d5efaae52dba5a80000000000000000000000000000000000000000000000000000000000000001000000000000000000000000741f0d8bde14140f62107fc60a0ee122b37d4630",
        "nonce": "0x81",
        "chainId": "0x1e0"
      },
      "additionalContracts": [],
      "isFixedGasLimit": false
    }
  ],
  "receipts": [
    {
      "status": "0x1",
      "cumulativeGasUsed": "0x5f87e1",
      "logs": [
        {
          "address": "0x57558cb8d6005de0bae8a2789d5efaae52dba5a8",
          "topics": [
            "0xddf252ad1be2c89b69c2b068fc378daa952ba7f163c4a11628f55a4df523b3ef",
            "0x000000000000000000000000741f0d8bde14140f62107fc60a0ee122b37d4630",
            "0x0000000000000000000000000000000000000000000000000000000000000000"
          ],
          "data": "0x0000000000000000000000000000000000000000000000000de0b6b3a7640000",
          "blockHash": "0xd383ef2b7a4b522e9a98e973726c8ee1de4397148fa8b2df1ca2411d36fc0e7f",
          "blockNumber": "0x107f704",
          "transactionHash": "0x406cb0ce7eb509cd64d220a4b6d9323497c377d095721bb3918e77b997870de0",
          "transactionIndex": "0xd",
          "logIndex": "0xa1",
          "removed": false
        },
        {
          "address": "0xc39161c743d0307eb9bcc9fef03eeb9dc4802de7",
          "topics": [
            "0x61ed099e74a97a1d7f8bb0952a88ca8b7b8ebd00c126ea04671f92a81213318a"
          ],
          "data": "0x000000000000000000000000cce466a522984415bc91338c232d98869193d46e000000000000000000000000000000000000000000000000000004e8fba20496",
          "blockHash": "0xd383ef2b7a4b522e9a98e973726c8ee1de4397148fa8b2df1ca2411d36fc0e7f",
          "blockNumber": "0x107f704",
          "transactionHash": "0x406cb0ce7eb509cd64d220a4b6d9323497c377d095721bb3918e77b997870de0",
          "transactionIndex": "0xd",
          "logIndex": "0xa2",
          "removed": false
        },
        {
          "address": "0xc39161c743d0307eb9bcc9fef03eeb9dc4802de7",
          "topics": [
            "0x07ea52d82345d6e838192107d8fd7123d9c2ec8e916cd0aad13fd2b60db24644"
          ],
          "data": "0x000000000000000000000000000000000000000000000000000000000000006000000000000000000000000000000000000000000000000000000000000000e0000000000000000000000000000000000000000000000000000000000000010000000000000000000000000000000000000000000000000000000000000000030000000000000000000000006788f52439aca6bff597d3eec2dc9a44b8fee842000000000000000000000000dd7b5e1db4aafd5c8ec3b764efb8ed265aa5445b000000000000000000000000e16561b56bdf003b785347d237905bae24f5f9730000000000000000000000000000000000000000000000000000000000000000000000000000000000000000000000000000000000000000000000000000000300000000000000000000000000000000000000000000000000000019b5b2adba0000000000000000000000000000000000000000000000000000001966a55cc70000000000000000000000000000000000000000000000000000001aca61490d",
          "blockHash": "0xd383ef2b7a4b522e9a98e973726c8ee1de4397148fa8b2df1ca2411d36fc0e7f",
          "blockNumber": "0x107f704",
          "transactionHash": "0x406cb0ce7eb509cd64d220a4b6d9323497c377d095721bb3918e77b997870de0",
          "transactionIndex": "0xd",
          "logIndex": "0xa3",
          "removed": false
        },
        {
          "address": "0x6f475642a6e85809b1c36fa62763669b1b48dd5b",
          "topics": [
            "0x1ab700d4ced0c005b164c0f789fd09fcbb0156d4c2041b8a3bfbcd961cd1567f"
          ],
          "data": "0x00000000000000000000000000000000000000000000000000000000000000600000000000000000000000000000000000000000000000000000000000000120000000000000000000000000c39161c743d0307eb9bcc9fef03eeb9dc4802de700000000000000000000000000000000000000000000000000000000000000990100000000000000010000766f00000000000000000000000057558cb8d6005de0bae8a2789d5efaae52dba5a8000076a700000000000000000000000057558cb8d6005de0bae8a2789d5efaae52dba5a80ac59091c27963977680304ddd2af0f486a6e7965246dd54948d43f83f4a3c2b000000000000000000000000741f0d8bde14140f62107fc60a0ee122b37d463000000000000f424000000000000000000000000000000000000000000000000000000000000000000000000000001600030100110100000000000000000000000000030d4000000000000000000000",
          "blockHash": "0xd383ef2b7a4b522e9a98e973726c8ee1de4397148fa8b2df1ca2411d36fc0e7f",
          "blockNumber": "0x107f704",
          "transactionHash": "0x406cb0ce7eb509cd64d220a4b6d9323497c377d095721bb3918e77b997870de0",
          "transactionIndex": "0xd",
          "logIndex": "0xa4",
          "removed": false
        },
        {
          "address": "0x57558cb8d6005de0bae8a2789d5efaae52dba5a8",
          "topics": [
            "0x85496b760a4b7f8d66384b9df21b381f5d1b1e79f229a47aaf4c232edc2fe59a",
            "0x0ac59091c27963977680304ddd2af0f486a6e7965246dd54948d43f83f4a3c2b",
            "0x000000000000000000000000741f0d8bde14140f62107fc60a0ee122b37d4630"
          ],
          "data": "0x00000000000000000000000000000000000000000000000000000000000076a70000000000000000000000000000000000000000000000000de0b6b3a76400000000000000000000000000000000000000000000000000000de0b6b3a7640000",
          "blockHash": "0xd383ef2b7a4b522e9a98e973726c8ee1de4397148fa8b2df1ca2411d36fc0e7f",
          "blockNumber": "0x107f704",
          "transactionHash": "0x406cb0ce7eb509cd64d220a4b6d9323497c377d095721bb3918e77b997870de0",
          "transactionIndex": "0xd",
          "logIndex": "0xa5",
          "removed": false
        }
      ],
      "logsBloom": "0x0010000000000000000000000004004000000000000000000000000000000000000000000000000040000000000000040000010000000000000000000000000000000200000000000000000800000000014000000000000000000000000080000000000002000000802000000100080000000000000000000000001000000000000000000080000000000008000000000000000000000000000000000000000000000000a000001000100000000000000000000000400000000440000000000000000002000000000000000080000000000000000000000000000000000020004000040000000000000000000000002000000000008000000000000000000000",
      "type": "0x2",
      "transactionHash": "0x406cb0ce7eb509cd64d220a4b6d9323497c377d095721bb3918e77b997870de0",
      "transactionIndex": "0xd",
      "blockHash": "0xd383ef2b7a4b522e9a98e973726c8ee1de4397148fa8b2df1ca2411d36fc0e7f",
      "blockNumber": "0x107f704",
      "gasUsed": "0x65833",
      "effectiveGasPrice": "0x18aa2",
      "from": "0x45dce8e4f2dc005a5f28206a46cb034697eeda8e",
      "to": "0x741f0d8bde14140f62107fc60a0ee122b37d4630",
      "contractAddress": null,
      "l1BaseFeeScalar": "0x21f9",
      "l1BlobBaseFee": "0x1",
      "l1BlobBaseFeeScalar": "0xdd3ef",
      "l1Fee": "0xcfded8b35",
      "l1GasPrice": "0x9a5f9db6",
      "l1GasUsed": "0x9ad"
    }
  ],
  "libraries": [],
  "pending": [],
  "returns": {},
  "timestamp": 1753934049,
  "chain": 480,
  "commit": "bc2ac99"
}