{
  "transactions": [
    {
      "hash": "0x817fc6d0e4899767f7658678657fa956c3e7e045630c8a03ccc5bc48be48f682",
      "transactionType": "CALL",
      "contractName": null,
      "contractAddress": "0x741f0d8bde14140f62107fc60a0ee122b37d4630",
      "function": "batchBridgeWithEthFeeFromWallet((uint32,bytes32,uint256,uint256,bytes,bytes,bytes)[],address[],address[])",
      "arguments": [
        "[(30320, 0x000000000000000000000000741f0d8bde14140f62107fc60a0ee122b37d4630, 5000000000000000000, 0, 0x, 0x, 0x)]",
        "[0x57558Cb8d6005DE0BAe8a2789d5EfaaE52dba5a8]",
        "[0x741F0d8Bde14140f62107FC60A0EE122B37D4630]"
      ],
      "transaction": {
        "from": "0x45dce8e4f2dc005a5f28206a46cb034697eeda8e",
        "to": "0x741f0d8bde14140f62107fc60a0ee122b37d4630",
        "gas": "0x8c80e",
        "value": "0x7a63f28e8ef",
        "input": "0xb70d4241000000000000000000000000000000000000000000000000000000000000006000000000000000000000000000000000000000000000000000000000000001e00000000000000000000000000000000000000000000000000000000000000220000000000000000000000000000000000000000000000000000000000000000100000000000000000000000000000000000000000000000000000000000000200000000000000000000000000000000000000000000000000000000000007670000000000000000000000000741f0d8bde14140f62107fc60a0ee122b37d46300000000000000000000000000000000000000000000000004563918244f40000000000000000000000000000000000000000000000000000000000000000000000000000000000000000000000000000000000000000000000000000000000e000000000000000000000000000000000000000000000000000000000000001000000000000000000000000000000000000000000000000000000000000000120000000000000000000000000000000000000000000000000000000000000000000000000000000000000000000000000000000000000000000000000000000000000000000000000000000000000000000000000000000000000000000000000000000000000000000000000000000000000000000000000000000000000000100000000000000000000000057558cb8d6005de0bae8a2789d5efaae52dba5a80000000000000000000000000000000000000000000000000000000000000001000000000000000000000000741f0d8bde14140f62107fc60a0ee122b37d4630",
        "nonce": "0x70",
        "chainId": "0x1e0"
      },
      "additionalContracts": [],
      "isFixedGasLimit": false
    }
  ],
  "receipts": [
    {
      "status": "0x1",
      "cumulativeGasUsed": "0xa9e8a6",
      "logs": [
        {
          "address": "0x57558cb8d6005de0bae8a2789d5efaae52dba5a8",
          "topics": [
            "0xddf252ad1be2c89b69c2b068fc378daa952ba7f163c4a11628f55a4df523b3ef",
            "0x000000000000000000000000741f0d8bde14140f62107fc60a0ee122b37d4630",
            "0x0000000000000000000000000000000000000000000000000000000000000000"
          ],
          "data": "0x0000000000000000000000000000000000000000000000004563918244f40000",
          "blockHash": "0xf9b6cae1c597d8421c3d1df43be29bd89b7a34ec82b83889bf1055afe8c2159c",
          "blockNumber": "0xecedec",
          "transactionHash": "0x817fc6d0e4899767f7658678657fa956c3e7e045630c8a03ccc5bc48be48f682",
          "transactionIndex": "0x1c",
          "logIndex": "0xc0",
          "removed": false
        },
        {
          "address": "0xc39161c743d0307eb9bcc9fef03eeb9dc4802de7",
          "topics": [
            "0x61ed099e74a97a1d7f8bb0952a88ca8b7b8ebd00c126ea04671f92a81213318a"
          ],
          "data": "0x000000000000000000000000cce466a522984415bc91338c232d98869193d46e0000000000000000000000000000000000000000000000000000075ada7756b4",
          "blockHash": "0xf9b6cae1c597d8421c3d1df43be29bd89b7a34ec82b83889bf1055afe8c2159c",
          "blockNumber": "0xecedec",
          "transactionHash": "0x817fc6d0e4899767f7658678657fa956c3e7e045630c8a03ccc5bc48be48f682",
          "transactionIndex": "0x1c",
          "logIndex": "0xc1",
          "removed": false
        },
        {
          "address": "0xc39161c743d0307eb9bcc9fef03eeb9dc4802de7",
          "topics": [
            "0x07ea52d82345d6e838192107d8fd7123d9c2ec8e916cd0aad13fd2b60db24644"
          ],
          "data": "0x000000000000000000000000000000000000000000000000000000000000006000000000000000000000000000000000000000000000000000000000000000e0000000000000000000000000000000000000000000000000000000000000010000000000000000000000000000000000000000000000000000000000000000030000000000000000000000006788f52439aca6bff597d3eec2dc9a44b8fee84200000000000000000000000095729ea44326f8add8a9b1d987279dbdc1dd3dff000000000000000000000000e16561b56bdf003b785347d237905bae24f5f9730000000000000000000000000000000000000000000000000000000000000000000000000000000000000000000000000000000000000000000000000000000300000000000000000000000000000000000000000000000000000018722d39370000000000000000000000000000000000000000000000000000001979422c820000000000000000000000000000000000000000000000000000001979422c82",
          "blockHash": "0xf9b6cae1c597d8421c3d1df43be29bd89b7a34ec82b83889bf1055afe8c2159c",
          "blockNumber": "0xecedec",
          "transactionHash": "0x817fc6d0e4899767f7658678657fa956c3e7e045630c8a03ccc5bc48be48f682",
          "transactionIndex": "0x1c",
          "logIndex": "0xc2",
          "removed": false
        },
        {
          "address": "0x6f475642a6e85809b1c36fa62763669b1b48dd5b",
          "topics": [
            "0x1ab700d4ced0c005b164c0f789fd09fcbb0156d4c2041b8a3bfbcd961cd1567f"
          ],
          "data": "0x00000000000000000000000000000000000000000000000000000000000000600000000000000000000000000000000000000000000000000000000000000120000000000000000000000000c39161c743d0307eb9bcc9fef03eeb9dc4802de700000000000000000000000000000000000000000000000000000000000000990100000000000000010000766f00000000000000000000000057558cb8d6005de0bae8a2789d5efaae52dba5a80000767000000000000000000000000057558cb8d6005de0bae8a2789d5efaae52dba5a86b05f2f1caa912234f0f545c8b1d93f716d70db3ca6805261bb8b1eec19e598d000000000000000000000000741f0d8bde14140f62107fc60a0ee122b37d463000000000004c4b4000000000000000000000000000000000000000000000000000000000000000000000000000001600030100110100000000000000000000000000030d4000000000000000000000",
          "blockHash": "0xf9b6cae1c597d8421c3d1df43be29bd89b7a34ec82b83889bf1055afe8c2159c",
          "blockNumber": "0xecedec",
          "transactionHash": "0x817fc6d0e4899767f7658678657fa956c3e7e045630c8a03ccc5bc48be48f682",
          "transactionIndex": "0x1c",
          "logIndex": "0xc3",
          "removed": false
        },
        {
          "address": "0x57558cb8d6005de0bae8a2789d5efaae52dba5a8",
          "topics": [
            "0x85496b760a4b7f8d66384b9df21b381f5d1b1e79f229a47aaf4c232edc2fe59a",
            "0x6b05f2f1caa912234f0f545c8b1d93f716d70db3ca6805261bb8b1eec19e598d",
            "0x000000000000000000000000741f0d8bde14140f62107fc60a0ee122b37d4630"
          ],
          "data": "0x00000000000000000000000000000000000000000000000000000000000076700000000000000000000000000000000000000000000000004563918244f400000000000000000000000000000000000000000000000000004563918244f40000",
          "blockHash": "0xf9b6cae1c597d8421c3d1df43be29bd89b7a34ec82b83889bf1055afe8c2159c",
          "blockNumber": "0xecedec",
          "transactionHash": "0x817fc6d0e4899767f7658678657fa956c3e7e045630c8a03ccc5bc48be48f682",
          "transactionIndex": "0x1c",
          "logIndex": "0xc4",
          "removed": false
        }
      ],
      "logsBloom": "0x0010000000000000000000000004004000000000000000000000000000000000000000000000000000000000000000040000010000000000040000000000000000000200000000000000100800000000014000000000000000000000000000000000000002000000802000000000080000000000000000000000001000000000000000000080000000000008000000000000000000000000000000000000000000000000a000001000100000000000000000000000400000000440000000000000000102000000000000000080000000000000000000000000000000000020004000040000000000000000000000002000000000008000000000000000000000",
      "type": "0x2",
      "transactionHash": "0x817fc6d0e4899767f7658678657fa956c3e7e045630c8a03ccc5bc48be48f682",
      "transactionIndex": "0x1c",
      "blockHash": "0xf9b6cae1c597d8421c3d1df43be29bd89b7a34ec82b83889bf1055afe8c2159c",
      "blockNumber": "0xecedec",
      "gasUsed": "0x65b8e",
      "effectiveGasPrice": "0x18bab",
      "from": "0x45dce8e4f2dc005a5f28206a46cb034697eeda8e",
      "to": "0x741f0d8bde14140f62107fc60a0ee122b37d4630",
      "contractAddress": null,
      "l1BaseFeeScalar": "0x21f9",
      "l1BlobBaseFee": "0x1",
      "l1BlobBaseFeeScalar": "0xdd3ef",
      "l1Fee": "0x19771c821",
      "l1GasPrice": "0x1303ab47",
      "l1GasUsed": "0x99f"
    }
  ],
  "libraries": [],
  "pending": [],
  "returns": {},
  "timestamp": 1750390449,
  "chain": 480,
  "commit": "2171fc2"
}