{
  "transactions": [
    {
      "hash": "0x7b1ac6e44e72361a8011f12a9aa476ed16cab992a64886c068d0bf18390ca32d",
      "transactionType": "CALL",
      "contractName": "TransparentUpgradeableProxy",
      "contractAddress": "0x65c042454005de49106a6b0129f4af56939457da",
      "function": null,
      "arguments": null,
      "transaction": {
        "from": "0x1d434906aa520e592fab2b82406beff859be8e82",
        "to": "0x65c042454005de49106a6b0129f4af56939457da",
        "gas": "0x1f5d4",
        "value": "0x0",
        "input": "0xb98bd07000000000000000000000000000000000000000000000000000000000000000200000000000000000000000000000000000000000000000000000000000000002000000000000000000000000000000000000000000000000000000000000004000000000000000000000000000000000000000000000000000000000000000e0000000000000000000000000000000000000000000000000000000000000762f00000000000000000000000000000000000000000000000000000000000000010000000000000000000000000000000000000000000000000000000000000060000000000000000000000000000000000000000000000000000000000000001600030100110100000000000000000000000000030d4000000000000000000000000000000000000000000000000000000000000000000000000000000000762f0000000000000000000000000000000000000000000000000000000000000002000000000000000000000000000000000000000000000000000000000000006000000000000000000000000000000000000000000000000000000000000000160003010011010000000000000000000000000003d09000000000000000000000",
        "nonce": "0x1",
        "chainId": "0x3e7"
      },
      "additionalContracts": [],
      "isFixedGasLimit": false
    },
    {
      "hash": "0x848f59a53ef6cfe73f7d4ed502276b1e52da036a99a5039dc39f4c48564a7654",
      "transactionType": "CALL",
      "contractName": null,
      "contractAddress": "0xe1851f6ac161d1911104b19918fb866ef6fee577",
      "function": "setEnforcedOptions((uint32,uint16,bytes)[])",
      "arguments": [
        "[(30255, 1, 0x00030100110100000000000000000000000000030d40), (30255, 2, 0x0003010011010000000000000000000000000003d090)]"
      ],
      "transaction": {
        "from": "0x1d434906aa520e592fab2b82406beff859be8e82",
        "to": "0xe1851f6ac161d1911104b19918fb866ef6fee577",
        "gas": "0x1f5d4",
        "value": "0x0",
        "input": "0xb98bd07000000000000000000000000000000000000000000000000000000000000000200000000000000000000000000000000000000000000000000000000000000002000000000000000000000000000000000000000000000000000000000000004000000000000000000000000000000000000000000000000000000000000000e0000000000000000000000000000000000000000000000000000000000000762f00000000000000000000000000000000000000000000000000000000000000010000000000000000000000000000000000000000000000000000000000000060000000000000000000000000000000000000000000000000000000000000001600030100110100000000000000000000000000030d4000000000000000000000000000000000000000000000000000000000000000000000000000000000762f0000000000000000000000000000000000000000000000000000000000000002000000000000000000000000000000000000000000000000000000000000006000000000000000000000000000000000000000000000000000000000000000160003010011010000000000000000000000000003d09000000000000000000000",
        "nonce": "0x2",
        "chainId": "0x3e7"
      },
      "additionalContracts": [],
      "isFixedGasLimit": false
    },
    {
      "hash": "0xb892e3431702e6e68799ebaac8557a73016938b0d4eba96d5be103ca8adde96f",
      "transactionType": "CALL",
      "contractName": null,
      "contractAddress": "0xb7583b07c12286bb9026a7053b0c44e8f5fa8624",
      "function": "setEnforcedOptions((uint32,uint16,bytes)[])",
      "arguments": [
        "[(30255, 1, 0x00030100110100000000000000000000000000030d40), (30255, 2, 0x0003010011010000000000000000000000000003d090)]"
      ],
      "transaction": {
        "from": "0x1d434906aa520e592fab2b82406beff859be8e82",
        "to": "0xb7583b07c12286bb9026a7053b0c44e8f5fa8624",
        "gas": "0x1f5d4",
        "value": "0x0",
        "input": "0xb98bd07000000000000000000000000000000000000000000000000000000000000000200000000000000000000000000000000000000000000000000000000000000002000000000000000000000000000000000000000000000000000000000000004000000000000000000000000000000000000000000000000000000000000000e0000000000000000000000000000000000000000000000000000000000000762f00000000000000000000000000000000000000000000000000000000000000010000000000000000000000000000000000000000000000000000000000000060000000000000000000000000000000000000000000000000000000000000001600030100110100000000000000000000000000030d4000000000000000000000000000000000000000000000000000000000000000000000000000000000762f0000000000000000000000000000000000000000000000000000000000000002000000000000000000000000000000000000000000000000000000000000006000000000000000000000000000000000000000000000000000000000000000160003010011010000000000000000000000000003d09000000000000000000000",
        "nonce": "0x3",
        "chainId": "0x3e7"
      },
      "additionalContracts": [],
      "isFixedGasLimit": false
    },
    {
      "hash": "0x60d2a0c67faa492583dabcb2b05e0cec56d4cf59a67d9faf3179246bbae8ec4e",
      "transactionType": "CALL",
      "contractName": "TransparentUpgradeableProxy",
      "contractAddress": "0xa444f92734be29e71b8a4762595c9733ab2c9c47",
      "function": null,
      "arguments": null,
      "transaction": {
        "from": "0x1d434906aa520e592fab2b82406beff859be8e82",
        "to": "0xa444f92734be29e71b8a4762595c9733ab2c9c47",
        "gas": "0x1f5d4",
        "value": "0x0",
        "input": "0xb98bd07000000000000000000000000000000000000000000000000000000000000000200000000000000000000000000000000000000000000000000000000000000002000000000000000000000000000000000000000000000000000000000000004000000000000000000000000000000000000000000000000000000000000000e0000000000000000000000000000000000000000000000000000000000000762f00000000000000000000000000000000000000000000000000000000000000010000000000000000000000000000000000000000000000000000000000000060000000000000000000000000000000000000000000000000000000000000001600030100110100000000000000000000000000030d4000000000000000000000000000000000000000000000000000000000000000000000000000000000762f0000000000000000000000000000000000000000000000000000000000000002000000000000000000000000000000000000000000000000000000000000006000000000000000000000000000000000000000000000000000000000000000160003010011010000000000000000000000000003d09000000000000000000000",
        "nonce": "0x4",
        "chainId": "0x3e7"
      },
      "additionalContracts": [],
      "isFixedGasLimit": false
    },
    {
      "hash": "0xd0b77ab4959baef9212fa6b72637198e2211eb029f84b9d26030c9841d781429",
      "transactionType": "CALL",
      "contractName": "TransparentUpgradeableProxy",
      "contractAddress": "0xa5c2889f0e3da388df3bf87f8f0b8e56bb863c41",
      "function": null,
      "arguments": null,
      "transaction": {
        "from": "0x1d434906aa520e592fab2b82406beff859be8e82",
        "to": "0xa5c2889f0e3da388df3bf87f8f0b8e56bb863c41",
        "gas": "0x1f5d4",
        "value": "0x0",
        "input": "0xb98bd07000000000000000000000000000000000000000000000000000000000000000200000000000000000000000000000000000000000000000000000000000000002000000000000000000000000000000000000000000000000000000000000004000000000000000000000000000000000000000000000000000000000000000e0000000000000000000000000000000000000000000000000000000000000762f00000000000000000000000000000000000000000000000000000000000000010000000000000000000000000000000000000000000000000000000000000060000000000000000000000000000000000000000000000000000000000000001600030100110100000000000000000000000000030d4000000000000000000000000000000000000000000000000000000000000000000000000000000000762f0000000000000000000000000000000000000000000000000000000000000002000000000000000000000000000000000000000000000000000000000000006000000000000000000000000000000000000000000000000000000000000000160003010011010000000000000000000000000003d09000000000000000000000",
        "nonce": "0x5",
        "chainId": "0x3e7"
      },
      "additionalContracts": [],
      "isFixedGasLimit": false
    },
    {
      "hash": "0x2c7c9feff744205ee8e3a85b964af48990da64a503613966c4d49e3cfa6aac84",
      "transactionType": "CALL",
      "contractName": "TransparentUpgradeableProxy",
      "contractAddress": "0xc6563942d1ae02dd6e450847de3753011ca3eee1",
      "function": null,
      "arguments": null,
      "transaction": {
        "from": "0x1d434906aa520e592fab2b82406beff859be8e82",
        "to": "0xc6563942d1ae02dd6e450847de3753011ca3eee1",
        "gas": "0x1f5d4",
        "value": "0x0",
        "input": "0xb98bd07000000000000000000000000000000000000000000000000000000000000000200000000000000000000000000000000000000000000000000000000000000002000000000000000000000000000000000000000000000000000000000000004000000000000000000000000000000000000000000000000000000000000000e0000000000000000000000000000000000000000000000000000000000000762f00000000000000000000000000000000000000000000000000000000000000010000000000000000000000000000000000000000000000000000000000000060000000000000000000000000000000000000000000000000000000000000001600030100110100000000000000000000000000030d4000000000000000000000000000000000000000000000000000000000000000000000000000000000762f0000000000000000000000000000000000000000000000000000000000000002000000000000000000000000000000000000000000000000000000000000006000000000000000000000000000000000000000000000000000000000000000160003010011010000000000000000000000000003d09000000000000000000000",
        "nonce": "0x6",
        "chainId": "0x3e7"
      },
      "additionalContracts": [],
      "isFixedGasLimit": false
    },
    {
      "hash": "0xc171b0556c1323c227f9323ea31ef6f426bad50b91edb0386c4398df2c459995",
      "transactionType": "CALL",
      "contractName": "TransparentUpgradeableProxy",
      "contractAddress": "0x65c042454005de49106a6b0129f4af56939457da",
      "function": null,
      "arguments": null,
      "transaction": {
        "from": "0x1d434906aa520e592fab2b82406beff859be8e82",
        "to": "0x65c042454005de49106a6b0129f4af56939457da",
        "gas": "0x13a45",
        "value": "0x0",
        "input": "0x3400288b000000000000000000000000000000000000000000000000000000000000762f000000000000000000000000bc54454844815ffd8229d1f617efa554d2d68f63",
        "nonce": "0x7",
        "chainId": "0x3e7"
      },
      "additionalContracts": [],
      "isFixedGasLimit": false
    },
    {
      "hash": "0xb5adbba12368920686a0e87435ef0a7061e6ea2a85f2ad94a959b79eee34b3a3",
      "transactionType": "CALL",
      "contractName": null,
      "contractAddress": "0xe1851f6ac161d1911104b19918fb866ef6fee577",
      "function": "setPeer(uint32,bytes32)",
      "arguments": [
        "30255",
        "0x0000000000000000000000006ff6b416b574ebc51c8dddf0b32b82af3bd08888"
      ],
      "transaction": {
        "from": "0x1d434906aa520e592fab2b82406beff859be8e82",
        "to": "0xe1851f6ac161d1911104b19918fb866ef6fee577",
        "gas": "0x13a45",
        "value": "0x0",
        "input": "0x3400288b000000000000000000000000000000000000000000000000000000000000762f0000000000000000000000006ff6b416b574ebc51c8dddf0b32b82af3bd08888",
        "nonce": "0x8",
        "chainId": "0x3e7"
      },
      "additionalContracts": [],
      "isFixedGasLimit": false
    },
    {
      "hash": "0x0bd410aa91e9e566e03a2b40787684a1e719c6bac02f65f3c222910c8aa0bdb9",
      "transactionType": "CALL",
      "contractName": null,
      "contractAddress": "0xb7583b07c12286bb9026a7053b0c44e8f5fa8624",
      "function": "setPeer(uint32,bytes32)",
      "arguments": [
        "30255",
        "0x00000000000000000000000016cea656b1ad3caaef01894794373e48b77faaef"
      ],
      "transaction": {
        "from": "0x1d434906aa520e592fab2b82406beff859be8e82",
        "to": "0xb7583b07c12286bb9026a7053b0c44e8f5fa8624",
        "gas": "0x13a45",
        "value": "0x0",
        "input": "0x3400288b000000000000000000000000000000000000000000000000000000000000762f00000000000000000000000016cea656b1ad3caaef01894794373e48b77faaef",
        "nonce": "0x9",
        "chainId": "0x3e7"
      },
      "additionalContracts": [],
      "isFixedGasLimit": false
    },
    {
      "hash": "0x683d6d3635aa27f79f0ff695832af205ab9241b1b9c9bcbf9146acaa5ec11b7d",
      "transactionType": "CALL",
      "contractName": "TransparentUpgradeableProxy",
      "contractAddress": "0xa444f92734be29e71b8a4762595c9733ab2c9c47",
      "function": null,
      "arguments": null,
      "transaction": {
        "from": "0x1d434906aa520e592fab2b82406beff859be8e82",
        "to": "0xa444f92734be29e71b8a4762595c9733ab2c9c47",
        "gas": "0x13a45",
        "value": "0x0",
        "input": "0x3400288b000000000000000000000000000000000000000000000000000000000000762f0000000000000000000000001c3fe45704d8b5b09c145356a6dfd570ab264cdb",
        "nonce": "0xa",
        "chainId": "0x3e7"
      },
      "additionalContracts": [],
      "isFixedGasLimit": false
    },
    {
      "hash": "0x635fa466fe432dadb4d49de754dc578a59ec95be0b028554c9db688ce6ef4032",
      "transactionType": "CALL",
      "contractName": "TransparentUpgradeableProxy",
      "contractAddress": "0xa5c2889f0e3da388df3bf87f8f0b8e56bb863c41",
      "function": null,
      "arguments": null,
      "transaction": {
        "from": "0x1d434906aa520e592fab2b82406beff859be8e82",
        "to": "0xa5c2889f0e3da388df3bf87f8f0b8e56bb863c41",
        "gas": "0x13a45",
        "value": "0x0",
        "input": "0x3400288b000000000000000000000000000000000000000000000000000000000000762f000000000000000000000000fd34516a516c4f76a5d5b3f9da562f5731ac42af",
        "nonce": "0xb",
        "chainId": "0x3e7"
      },
      "additionalContracts": [],
      "isFixedGasLimit": false
    },
    {
      "hash": "0xa52a17341101282855155c20fbb71f5a6a20d11882a6eb4e60b7fa34e62aa01e",
      "transactionType": "CALL",
      "contractName": "TransparentUpgradeableProxy",
      "contractAddress": "0xc6563942d1ae02dd6e450847de3753011ca3eee1",
      "function": null,
      "arguments": null,
      "transaction": {
        "from": "0x1d434906aa520e592fab2b82406beff859be8e82",
        "to": "0xc6563942d1ae02dd6e450847de3753011ca3eee1",
        "gas": "0x13a45",
        "value": "0x0",
        "input": "0x3400288b000000000000000000000000000000000000000000000000000000000000762f000000000000000000000000c149f946e3ee35766a7250b6ff619d9cf198ebf0",
        "nonce": "0xc",
        "chainId": "0x3e7"
      },
      "additionalContracts": [],
      "isFixedGasLimit": false
    },
    {
      "hash": "0x2530233d1bce90f9fa601f58286ad8531c3ea2779df0b79b8928c3087c88ecba",
      "transactionType": "CALL",
      "contractName": "EndpointV2",
      "contractAddress": "0x3a73033c0b1407574c76bdbac67f126f6b4a9aa9",
      "function": "setConfig(address,address,(uint32,uint32,bytes)[])",
      "arguments": [
        "0x65C042454005de49106a6B0129F4Af56939457da",
        "0xfd76d9CB0Bac839725aB79127E7411fe71b1e3CA",
        "[(30255, 2, 0x0000000000000000000000000000000000000000000000000000000000000020000000000000000000000000000000000000000000000000000000000000000000000000000000000000000000000000000000000000000000000000000000030000000000000000000000000000000000000000000000000000000000000000000000000000000000000000000000000000000000000000000000000000000000000000000000000000000000000000000000000000000000000000000000c000000000000000000000000000000000000000000000000000000000000001400000000000000000000000000000000000000000000000000000000000000003000000000000000000000000082a08f524c043ec7f6b9a42bae79a1990d8499a000000000000000000000000bb83ecf372cbb6daa629ea9a9a53bec6d601f229000000000000000000000000c097ab8cd7b053326dfe9fb3e3a31a0cce3b526f0000000000000000000000000000000000000000000000000000000000000000)]"
      ],
      "transaction": {
        "from": "0x1d434906aa520e592fab2b82406beff859be8e82",
        "to": "0x3a73033c0b1407574c76bdbac67f126f6b4a9aa9",
        "gas": "0x36d34",
        "value": "0x0",
        "input": "0x6dbd9f9000000000000000000000000065c042454005de49106a6b0129f4af56939457da000000000000000000000000fd76d9cb0bac839725ab79127e7411fe71b1e3ca000000000000000000000000000000000000000000000000000000000000006000000000000000000000000000000000000000000000000000000000000000010000000000000000000000000000000000000000000000000000000000000020000000000000000000000000000000000000000000000000000000000000762f0000000000000000000000000000000000000000000000000000000000000002000000000000000000000000000000000000000000000000000000000000006000000000000000000000000000000000000000000000000000000000000001800000000000000000000000000000000000000000000000000000000000000020000000000000000000000000000000000000000000000000000000000000000000000000000000000000000000000000000000000000000000000000000000030000000000000000000000000000000000000000000000000000000000000000000000000000000000000000000000000000000000000000000000000000000000000000000000000000000000000000000000000000000000000000000000c000000000000000000000000000000000000000000000000000000000000001400000000000000000000000000000000000000000000000000000000000000003000000000000000000000000082a08f524c043ec7f6b9a42bae79a1990d8499a000000000000000000000000bb83ecf372cbb6daa629ea9a9a53bec6d601f229000000000000000000000000c097ab8cd7b053326dfe9fb3e3a31a0cce3b526f0000000000000000000000000000000000000000000000000000000000000000",
        "nonce": "0xd",
        "chainId": "0x3e7"
      },
      "additionalContracts": [],
      "isFixedGasLimit": false
    },
    {
      "hash": "0x585db6e0cc097c43f02acb98c94187311cf412867cb5fb65cd33924fa81b547e",
      "transactionType": "CALL",
      "contractName": "EndpointV2",
      "contractAddress": "0x3a73033c0b1407574c76bdbac67f126f6b4a9aa9",
      "function": "setConfig(address,address,(uint32,uint32,bytes)[])",
      "arguments": [
        "0x65C042454005de49106a6B0129F4Af56939457da",
        "0x7cacBe439EaD55fa1c22790330b12835c6884a91",
        "[(30255, 2, 0x0000000000000000000000000000000000000000000000000000000000000020000000000000000000000000000000000000000000000000000000000000000000000000000000000000000000000000000000000000000000000000000000030000000000000000000000000000000000000000000000000000000000000000000000000000000000000000000000000000000000000000000000000000000000000000000000000000000000000000000000000000000000000000000000c000000000000000000000000000000000000000000000000000000000000001400000000000000000000000000000000000000000000000000000000000000003000000000000000000000000082a08f524c043ec7f6b9a42bae79a1990d8499a000000000000000000000000bb83ecf372cbb6daa629ea9a9a53bec6d601f229000000000000000000000000c097ab8cd7b053326dfe9fb3e3a31a0cce3b526f0000000000000000000000000000000000000000000000000000000000000000)]"
      ],
      "transaction": {
        "from": "0x1d434906aa520e592fab2b82406beff859be8e82",
        "to": "0x3a73033c0b1407574c76bdbac67f126f6b4a9aa9",
        "gas": "0x36be0",
        "value": "0x0",
        "input": "0x6dbd9f9000000000000000000000000065c042454005de49106a6b0129f4af56939457da0000000000000000000000007cacbe439ead55fa1c22790330b12835c6884a91000000000000000000000000000000000000000000000000000000000000006000000000000000000000000000000000000000000000000000000000000000010000000000000000000000000000000000000000000000000000000000000020000000000000000000000000000000000000000000000000000000000000762f0000000000000000000000000000000000000000000000000000000000000002000000000000000000000000000000000000000000000000000000000000006000000000000000000000000000000000000000000000000000000000000001800000000000000000000000000000000000000000000000000000000000000020000000000000000000000000000000000000000000000000000000000000000000000000000000000000000000000000000000000000000000000000000000030000000000000000000000000000000000000000000000000000000000000000000000000000000000000000000000000000000000000000000000000000000000000000000000000000000000000000000000000000000000000000000000c000000000000000000000000000000000000000000000000000000000000001400000000000000000000000000000000000000000000000000000000000000003000000000000000000000000082a08f524c043ec7f6b9a42bae79a1990d8499a000000000000000000000000bb83ecf372cbb6daa629ea9a9a53bec6d601f229000000000000000000000000c097ab8cd7b053326dfe9fb3e3a31a0cce3b526f0000000000000000000000000000000000000000000000000000000000000000",
        "nonce": "0xe",
        "chainId": "0x3e7"
      },
      "additionalContracts": [],
      "isFixedGasLimit": false
    },
    {
      "hash": "0xdb42ccf6adde7ff1d774ee761f767bb6f332dd9ab27987320ee4af78d11e118c",
      "transactionType": "CALL",
      "contractName": "EndpointV2",
      "contractAddress": "0x3a73033c0b1407574c76bdbac67f126f6b4a9aa9",
      "function": "setConfig(address,address,(uint32,uint32,bytes)[])",
      "arguments": [
        "0xE1851f6ac161d1911104b19918FB866eF6FEE577",
        "0xfd76d9CB0Bac839725aB79127E7411fe71b1e3CA",
        "[(30255, 2, 0x0000000000000000000000000000000000000000000000000000000000000020000000000000000000000000000000000000000000000000000000000000000000000000000000000000000000000000000000000000000000000000000000030000000000000000000000000000000000000000000000000000000000000000000000000000000000000000000000000000000000000000000000000000000000000000000000000000000000000000000000000000000000000000000000c000000000000000000000000000000000000000000000000000000000000001400000000000000000000000000000000000000000000000000000000000000003000000000000000000000000082a08f524c043ec7f6b9a42bae79a1990d8499a000000000000000000000000bb83ecf372cbb6daa629ea9a9a53bec6d601f229000000000000000000000000c097ab8cd7b053326dfe9fb3e3a31a0cce3b526f0000000000000000000000000000000000000000000000000000000000000000)]"
      ],
      "transaction": {
        "from": "0x1d434906aa520e592fab2b82406beff859be8e82",
        "to": "0x3a73033c0b1407574c76bdbac67f126f6b4a9aa9",
        "gas": "0x36d34",
        "value": "0x0",
        "input": "0x6dbd9f90000000000000000000000000e1851f6ac161d1911104b19918fb866ef6fee577000000000000000000000000fd76d9cb0bac839725ab79127e7411fe71b1e3ca000000000000000000000000000000000000000000000000000000000000006000000000000000000000000000000000000000000000000000000000000000010000000000000000000000000000000000000000000000000000000000000020000000000000000000000000000000000000000000000000000000000000762f0000000000000000000000000000000000000000000000000000000000000002000000000000000000000000000000000000000000000000000000000000006000000000000000000000000000000000000000000000000000000000000001800000000000000000000000000000000000000000000000000000000000000020000000000000000000000000000000000000000000000000000000000000000000000000000000000000000000000000000000000000000000000000000000030000000000000000000000000000000000000000000000000000000000000000000000000000000000000000000000000000000000000000000000000000000000000000000000000000000000000000000000000000000000000000000000c000000000000000000000000000000000000000000000000000000000000001400000000000000000000000000000000000000000000000000000000000000003000000000000000000000000082a08f524c043ec7f6b9a42bae79a1990d8499a000000000000000000000000bb83ecf372cbb6daa629ea9a9a53bec6d601f229000000000000000000000000c097ab8cd7b053326dfe9fb3e3a31a0cce3b526f0000000000000000000000000000000000000000000000000000000000000000",
        "nonce": "0xf",
        "chainId": "0x3e7"
      },
      "additionalContracts": [],
      "isFixedGasLimit": false
    },
    {
      "hash": "0x85500ce15ffebc1fb0fabf8c8df491417e65c2936b389a141fb7b6fa4d57a269",
      "transactionType": "CALL",
      "contractName": "EndpointV2",
      "contractAddress": "0x3a73033c0b1407574c76bdbac67f126f6b4a9aa9",
      "function": "setConfig(address,address,(uint32,uint32,bytes)[])",
      "arguments": [
        "0xE1851f6ac161d1911104b19918FB866eF6FEE577",
        "0x7cacBe439EaD55fa1c22790330b12835c6884a91",
        "[(30255, 2, 0x0000000000000000000000000000000000000000000000000000000000000020000000000000000000000000000000000000000000000000000000000000000000000000000000000000000000000000000000000000000000000000000000030000000000000000000000000000000000000000000000000000000000000000000000000000000000000000000000000000000000000000000000000000000000000000000000000000000000000000000000000000000000000000000000c000000000000000000000000000000000000000000000000000000000000001400000000000000000000000000000000000000000000000000000000000000003000000000000000000000000082a08f524c043ec7f6b9a42bae79a1990d8499a000000000000000000000000bb83ecf372cbb6daa629ea9a9a53bec6d601f229000000000000000000000000c097ab8cd7b053326dfe9fb3e3a31a0cce3b526f0000000000000000000000000000000000000000000000000000000000000000)]"
      ],
      "transaction": {
        "from": "0x1d434906aa520e592fab2b82406beff859be8e82",
        "to": "0x3a73033c0b1407574c76bdbac67f126f6b4a9aa9",
        "gas": "0x36be0",
        "value": "0x0",
        "input": "0x6dbd9f90000000000000000000000000e1851f6ac161d1911104b19918fb866ef6fee5770000000000000000000000007cacbe439ead55fa1c22790330b12835c6884a91000000000000000000000000000000000000000000000000000000000000006000000000000000000000000000000000000000000000000000000000000000010000000000000000000000000000000000000000000000000000000000000020000000000000000000000000000000000000000000000000000000000000762f0000000000000000000000000000000000000000000000000000000000000002000000000000000000000000000000000000000000000000000000000000006000000000000000000000000000000000000000000000000000000000000001800000000000000000000000000000000000000000000000000000000000000020000000000000000000000000000000000000000000000000000000000000000000000000000000000000000000000000000000000000000000000000000000030000000000000000000000000000000000000000000000000000000000000000000000000000000000000000000000000000000000000000000000000000000000000000000000000000000000000000000000000000000000000000000000c000000000000000000000000000000000000000000000000000000000000001400000000000000000000000000000000000000000000000000000000000000003000000000000000000000000082a08f524c043ec7f6b9a42bae79a1990d8499a000000000000000000000000bb83ecf372cbb6daa629ea9a9a53bec6d601f229000000000000000000000000c097ab8cd7b053326dfe9fb3e3a31a0cce3b526f0000000000000000000000000000000000000000000000000000000000000000",
        "nonce": "0x10",
        "chainId": "0x3e7"
      },
      "additionalContracts": [],
      "isFixedGasLimit": false
    },
    {
      "hash": "0x580b8ae09eb1fc441bdd1847a7367e5bac158164f6076e715cc77eff75abb803",
      "transactionType": "CALL",
      "contractName": "EndpointV2",
      "contractAddress": "0x3a73033c0b1407574c76bdbac67f126f6b4a9aa9",
      "function": "setConfig(address,address,(uint32,uint32,bytes)[])",
      "arguments": [
        "0xb7583B07C12286bb9026A7053B0C44e8f5fa8624",
        "0xfd76d9CB0Bac839725aB79127E7411fe71b1e3CA",
        "[(30255, 2, 0x0000000000000000000000000000000000000000000000000000000000000020000000000000000000000000000000000000000000000000000000000000000000000000000000000000000000000000000000000000000000000000000000030000000000000000000000000000000000000000000000000000000000000000000000000000000000000000000000000000000000000000000000000000000000000000000000000000000000000000000000000000000000000000000000c000000000000000000000000000000000000000000000000000000000000001400000000000000000000000000000000000000000000000000000000000000003000000000000000000000000082a08f524c043ec7f6b9a42bae79a1990d8499a000000000000000000000000bb83ecf372cbb6daa629ea9a9a53bec6d601f229000000000000000000000000c097ab8cd7b053326dfe9fb3e3a31a0cce3b526f0000000000000000000000000000000000000000000000000000000000000000)]"
      ],
      "transaction": {
        "from": "0x1d434906aa520e592fab2b82406beff859be8e82",
        "to": "0x3a73033c0b1407574c76bdbac67f126f6b4a9aa9",
        "gas": "0x36d34",
        "value": "0x0",
        "input": "0x6dbd9f90000000000000000000000000b7583b07c12286bb9026a7053b0c44e8f5fa8624000000000000000000000000fd76d9cb0bac839725ab79127e7411fe71b1e3ca000000000000000000000000000000000000000000000000000000000000006000000000000000000000000000000000000000000000000000000000000000010000000000000000000000000000000000000000000000000000000000000020000000000000000000000000000000000000000000000000000000000000762f0000000000000000000000000000000000000000000000000000000000000002000000000000000000000000000000000000000000000000000000000000006000000000000000000000000000000000000000000000000000000000000001800000000000000000000000000000000000000000000000000000000000000020000000000000000000000000000000000000000000000000000000000000000000000000000000000000000000000000000000000000000000000000000000030000000000000000000000000000000000000000000000000000000000000000000000000000000000000000000000000000000000000000000000000000000000000000000000000000000000000000000000000000000000000000000000c000000000000000000000000000000000000000000000000000000000000001400000000000000000000000000000000000000000000000000000000000000003000000000000000000000000082a08f524c043ec7f6b9a42bae79a1990d8499a000000000000000000000000bb83ecf372cbb6daa629ea9a9a53bec6d601f229000000000000000000000000c097ab8cd7b053326dfe9fb3e3a31a0cce3b526f0000000000000000000000000000000000000000000000000000000000000000",
        "nonce": "0x11",
        "chainId": "0x3e7"
      },
      "additionalContracts": [],
      "isFixedGasLimit": false
    },
    {
      "hash": "0xfa0c1aa024d119879a532e4a94c853ec22576b1b2861c18b05734d1a208d1c3e",
      "transactionType": "CALL",
      "contractName": "EndpointV2",
      "contractAddress": "0x3a73033c0b1407574c76bdbac67f126f6b4a9aa9",
      "function": "setConfig(address,address,(uint32,uint32,bytes)[])",
      "arguments": [
        "0xb7583B07C12286bb9026A7053B0C44e8f5fa8624",
        "0x7cacBe439EaD55fa1c22790330b12835c6884a91",
        "[(30255, 2, 0x0000000000000000000000000000000000000000000000000000000000000020000000000000000000000000000000000000000000000000000000000000000000000000000000000000000000000000000000000000000000000000000000030000000000000000000000000000000000000000000000000000000000000000000000000000000000000000000000000000000000000000000000000000000000000000000000000000000000000000000000000000000000000000000000c000000000000000000000000000000000000000000000000000000000000001400000000000000000000000000000000000000000000000000000000000000003000000000000000000000000082a08f524c043ec7f6b9a42bae79a1990d8499a000000000000000000000000bb83ecf372cbb6daa629ea9a9a53bec6d601f229000000000000000000000000c097ab8cd7b053326dfe9fb3e3a31a0cce3b526f0000000000000000000000000000000000000000000000000000000000000000)]"
      ],
      "transaction": {
        "from": "0x1d434906aa520e592fab2b82406beff859be8e82",
        "to": "0x3a73033c0b1407574c76bdbac67f126f6b4a9aa9",
        "gas": "0x36be0",
        "value": "0x0",
        "input": "0x6dbd9f90000000000000000000000000b7583b07c12286bb9026a7053b0c44e8f5fa86240000000000000000000000007cacbe439ead55fa1c22790330b12835c6884a91000000000000000000000000000000000000000000000000000000000000006000000000000000000000000000000000000000000000000000000000000000010000000000000000000000000000000000000000000000000000000000000020000000000000000000000000000000000000000000000000000000000000762f0000000000000000000000000000000000000000000000000000000000000002000000000000000000000000000000000000000000000000000000000000006000000000000000000000000000000000000000000000000000000000000001800000000000000000000000000000000000000000000000000000000000000020000000000000000000000000000000000000000000000000000000000000000000000000000000000000000000000000000000000000000000000000000000030000000000000000000000000000000000000000000000000000000000000000000000000000000000000000000000000000000000000000000000000000000000000000000000000000000000000000000000000000000000000000000000c000000000000000000000000000000000000000000000000000000000000001400000000000000000000000000000000000000000000000000000000000000003000000000000000000000000082a08f524c043ec7f6b9a42bae79a1990d8499a000000000000000000000000bb83ecf372cbb6daa629ea9a9a53bec6d601f229000000000000000000000000c097ab8cd7b053326dfe9fb3e3a31a0cce3b526f0000000000000000000000000000000000000000000000000000000000000000",
        "nonce": "0x12",
        "chainId": "0x3e7"
      },
      "additionalContracts": [],
      "isFixedGasLimit": false
    },
    {
      "hash": "0x38f96b7462e65e3e41fcfb86e9a05e20fbdce48733a2afe09526a72eb363db50",
      "transactionType": "CALL",
      "contractName": "EndpointV2",
      "contractAddress": "0x3a73033c0b1407574c76bdbac67f126f6b4a9aa9",
      "function": "setConfig(address,address,(uint32,uint32,bytes)[])",
      "arguments": [
        "0xA444F92734be29E71b8A4762595C9733Ab2C9c47",
        "0xfd76d9CB0Bac839725aB79127E7411fe71b1e3CA",
        "[(30255, 2, 0x0000000000000000000000000000000000000000000000000000000000000020000000000000000000000000000000000000000000000000000000000000000000000000000000000000000000000000000000000000000000000000000000030000000000000000000000000000000000000000000000000000000000000000000000000000000000000000000000000000000000000000000000000000000000000000000000000000000000000000000000000000000000000000000000c000000000000000000000000000000000000000000000000000000000000001400000000000000000000000000000000000000000000000000000000000000003000000000000000000000000082a08f524c043ec7f6b9a42bae79a1990d8499a000000000000000000000000bb83ecf372cbb6daa629ea9a9a53bec6d601f229000000000000000000000000c097ab8cd7b053326dfe9fb3e3a31a0cce3b526f0000000000000000000000000000000000000000000000000000000000000000)]"
      ],
      "transaction": {
        "from": "0x1d434906aa520e592fab2b82406beff859be8e82",
        "to": "0x3a73033c0b1407574c76bdbac67f126f6b4a9aa9",
        "gas": "0x36d34",
        "value": "0x0",
        "input": "0x6dbd9f90000000000000000000000000a444f92734be29e71b8a4762595c9733ab2c9c47000000000000000000000000fd76d9cb0bac839725ab79127e7411fe71b1e3ca000000000000000000000000000000000000000000000000000000000000006000000000000000000000000000000000000000000000000000000000000000010000000000000000000000000000000000000000000000000000000000000020000000000000000000000000000000000000000000000000000000000000762f0000000000000000000000000000000000000000000000000000000000000002000000000000000000000000000000000000000000000000000000000000006000000000000000000000000000000000000000000000000000000000000001800000000000000000000000000000000000000000000000000000000000000020000000000000000000000000000000000000000000000000000000000000000000000000000000000000000000000000000000000000000000000000000000030000000000000000000000000000000000000000000000000000000000000000000000000000000000000000000000000000000000000000000000000000000000000000000000000000000000000000000000000000000000000000000000c000000000000000000000000000000000000000000000000000000000000001400000000000000000000000000000000000000000000000000000000000000003000000000000000000000000082a08f524c043ec7f6b9a42bae79a1990d8499a000000000000000000000000bb83ecf372cbb6daa629ea9a9a53bec6d601f229000000000000000000000000c097ab8cd7b053326dfe9fb3e3a31a0cce3b526f0000000000000000000000000000000000000000000000000000000000000000",
        "nonce": "0x13",
        "chainId": "0x3e7"
      },
      "additionalContracts": [],
      "isFixedGasLimit": false
    },
    {
      "hash": "0x2dc1f915896259e3ed753cd14955b9b62815f9d93c624db7f5d32b4a38119cdf",
      "transactionType": "CALL",
      "contractName": "EndpointV2",
      "contractAddress": "0x3a73033c0b1407574c76bdbac67f126f6b4a9aa9",
      "function": "setConfig(address,address,(uint32,uint32,bytes)[])",
      "arguments": [
        "0xA444F92734be29E71b8A4762595C9733Ab2C9c47",
        "0x7cacBe439EaD55fa1c22790330b12835c6884a91",
        "[(30255, 2, 0x0000000000000000000000000000000000000000000000000000000000000020000000000000000000000000000000000000000000000000000000000000000000000000000000000000000000000000000000000000000000000000000000030000000000000000000000000000000000000000000000000000000000000000000000000000000000000000000000000000000000000000000000000000000000000000000000000000000000000000000000000000000000000000000000c000000000000000000000000000000000000000000000000000000000000001400000000000000000000000000000000000000000000000000000000000000003000000000000000000000000082a08f524c043ec7f6b9a42bae79a1990d8499a000000000000000000000000bb83ecf372cbb6daa629ea9a9a53bec6d601f229000000000000000000000000c097ab8cd7b053326dfe9fb3e3a31a0cce3b526f0000000000000000000000000000000000000000000000000000000000000000)]"
      ],
      "transaction": {
        "from": "0x1d434906aa520e592fab2b82406beff859be8e82",
        "to": "0x3a73033c0b1407574c76bdbac67f126f6b4a9aa9",
        "gas": "0x36be0",
        "value": "0x0",
        "input": "0x6dbd9f90000000000000000000000000a444f92734be29e71b8a4762595c9733ab2c9c470000000000000000000000007cacbe439ead55fa1c22790330b12835c6884a91000000000000000000000000000000000000000000000000000000000000006000000000000000000000000000000000000000000000000000000000000000010000000000000000000000000000000000000000000000000000000000000020000000000000000000000000000000000000000000000000000000000000762f0000000000000000000000000000000000000000000000000000000000000002000000000000000000000000000000000000000000000000000000000000006000000000000000000000000000000000000000000000000000000000000001800000000000000000000000000000000000000000000000000000000000000020000000000000000000000000000000000000000000000000000000000000000000000000000000000000000000000000000000000000000000000000000000030000000000000000000000000000000000000000000000000000000000000000000000000000000000000000000000000000000000000000000000000000000000000000000000000000000000000000000000000000000000000000000000c000000000000000000000000000000000000000000000000000000000000001400000000000000000000000000000000000000000000000000000000000000003000000000000000000000000082a08f524c043ec7f6b9a42bae79a1990d8499a000000000000000000000000bb83ecf372cbb6daa629ea9a9a53bec6d601f229000000000000000000000000c097ab8cd7b053326dfe9fb3e3a31a0cce3b526f0000000000000000000000000000000000000000000000000000000000000000",
        "nonce": "0x14",
        "chainId": "0x3e7"
      },
      "additionalContracts": [],
      "isFixedGasLimit": false
    },
    {
      "hash": "0x18504a684daed94028066031e3a7997fb69bc8f4f4c96caed3319d5a93c5dd69",
      "transactionType": "CALL",
      "contractName": "EndpointV2",
      "contractAddress": "0x3a73033c0b1407574c76bdbac67f126f6b4a9aa9",
      "function": "setConfig(address,address,(uint32,uint32,bytes)[])",
      "arguments": [
        "0xa5C2889F0E3DA388DF3BF87f8f0B8E56bB863C41",
        "0xfd76d9CB0Bac839725aB79127E7411fe71b1e3CA",
        "[(30255, 2, 0x0000000000000000000000000000000000000000000000000000000000000020000000000000000000000000000000000000000000000000000000000000000000000000000000000000000000000000000000000000000000000000000000030000000000000000000000000000000000000000000000000000000000000000000000000000000000000000000000000000000000000000000000000000000000000000000000000000000000000000000000000000000000000000000000c000000000000000000000000000000000000000000000000000000000000001400000000000000000000000000000000000000000000000000000000000000003000000000000000000000000082a08f524c043ec7f6b9a42bae79a1990d8499a000000000000000000000000bb83ecf372cbb6daa629ea9a9a53bec6d601f229000000000000000000000000c097ab8cd7b053326dfe9fb3e3a31a0cce3b526f0000000000000000000000000000000000000000000000000000000000000000)]"
      ],
      "transaction": {
        "from": "0x1d434906aa520e592fab2b82406beff859be8e82",
        "to": "0x3a73033c0b1407574c76bdbac67f126f6b4a9aa9",
        "gas": "0x36d34",
        "value": "0x0",
        "input": "0x6dbd9f90000000000000000000000000a5c2889f0e3da388df3bf87f8f0b8e56bb863c41000000000000000000000000fd76d9cb0bac839725ab79127e7411fe71b1e3ca000000000000000000000000000000000000000000000000000000000000006000000000000000000000000000000000000000000000000000000000000000010000000000000000000000000000000000000000000000000000000000000020000000000000000000000000000000000000000000000000000000000000762f0000000000000000000000000000000000000000000000000000000000000002000000000000000000000000000000000000000000000000000000000000006000000000000000000000000000000000000000000000000000000000000001800000000000000000000000000000000000000000000000000000000000000020000000000000000000000000000000000000000000000000000000000000000000000000000000000000000000000000000000000000000000000000000000030000000000000000000000000000000000000000000000000000000000000000000000000000000000000000000000000000000000000000000000000000000000000000000000000000000000000000000000000000000000000000000000c000000000000000000000000000000000000000000000000000000000000001400000000000000000000000000000000000000000000000000000000000000003000000000000000000000000082a08f524c043ec7f6b9a42bae79a1990d8499a000000000000000000000000bb83ecf372cbb6daa629ea9a9a53bec6d601f229000000000000000000000000c097ab8cd7b053326dfe9fb3e3a31a0cce3b526f0000000000000000000000000000000000000000000000000000000000000000",
        "nonce": "0x15",
        "chainId": "0x3e7"
      },
      "additionalContracts": [],
      "isFixedGasLimit": false
    },
    {
      "hash": "0x53185b3c67eaab612f6cde9f3cfd02e69d0f21007962e4d774437d4b0efc4d94",
      "transactionType": "CALL",
      "contractName": "EndpointV2",
      "contractAddress": "0x3a73033c0b1407574c76bdbac67f126f6b4a9aa9",
      "function": "setConfig(address,address,(uint32,uint32,bytes)[])",
      "arguments": [
        "0xa5C2889F0E3DA388DF3BF87f8f0B8E56bB863C41",
        "0x7cacBe439EaD55fa1c22790330b12835c6884a91",
        "[(30255, 2, 0x0000000000000000000000000000000000000000000000000000000000000020000000000000000000000000000000000000000000000000000000000000000000000000000000000000000000000000000000000000000000000000000000030000000000000000000000000000000000000000000000000000000000000000000000000000000000000000000000000000000000000000000000000000000000000000000000000000000000000000000000000000000000000000000000c000000000000000000000000000000000000000000000000000000000000001400000000000000000000000000000000000000000000000000000000000000003000000000000000000000000082a08f524c043ec7f6b9a42bae79a1990d8499a000000000000000000000000bb83ecf372cbb6daa629ea9a9a53bec6d601f229000000000000000000000000c097ab8cd7b053326dfe9fb3e3a31a0cce3b526f0000000000000000000000000000000000000000000000000000000000000000)]"
      ],
      "transaction": {
        "from": "0x1d434906aa520e592fab2b82406beff859be8e82",
        "to": "0x3a73033c0b1407574c76bdbac67f126f6b4a9aa9",
        "gas": "0x36be0",
        "value": "0x0",
        "input": "0x6dbd9f90000000000000000000000000a5c2889f0e3da388df3bf87f8f0b8e56bb863c410000000000000000000000007cacbe439ead55fa1c22790330b12835c6884a91000000000000000000000000000000000000000000000000000000000000006000000000000000000000000000000000000000000000000000000000000000010000000000000000000000000000000000000000000000000000000000000020000000000000000000000000000000000000000000000000000000000000762f0000000000000000000000000000000000000000000000000000000000000002000000000000000000000000000000000000000000000000000000000000006000000000000000000000000000000000000000000000000000000000000001800000000000000000000000000000000000000000000000000000000000000020000000000000000000000000000000000000000000000000000000000000000000000000000000000000000000000000000000000000000000000000000000030000000000000000000000000000000000000000000000000000000000000000000000000000000000000000000000000000000000000000000000000000000000000000000000000000000000000000000000000000000000000000000000c000000000000000000000000000000000000000000000000000000000000001400000000000000000000000000000000000000000000000000000000000000003000000000000000000000000082a08f524c043ec7f6b9a42bae79a1990d8499a000000000000000000000000bb83ecf372cbb6daa629ea9a9a53bec6d601f229000000000000000000000000c097ab8cd7b053326dfe9fb3e3a31a0cce3b526f0000000000000000000000000000000000000000000000000000000000000000",
        "nonce": "0x16",
        "chainId": "0x3e7"
      },
      "additionalContracts": [],
      "isFixedGasLimit": false
    },
    {
      "hash": "0x513307848feb1b17e098f817657b57758e41cd9174eecffe38e97f9e87903bc7",
      "transactionType": "CALL",
      "contractName": "EndpointV2",
      "contractAddress": "0x3a73033c0b1407574c76bdbac67f126f6b4a9aa9",
      "function": "setConfig(address,address,(uint32,uint32,bytes)[])",
      "arguments": [
        "0xC6563942D1AE02Dd6e450847de3753011cA3eee1",
        "0xfd76d9CB0Bac839725aB79127E7411fe71b1e3CA",
        "[(30255, 2, 0x0000000000000000000000000000000000000000000000000000000000000020000000000000000000000000000000000000000000000000000000000000000000000000000000000000000000000000000000000000000000000000000000030000000000000000000000000000000000000000000000000000000000000000000000000000000000000000000000000000000000000000000000000000000000000000000000000000000000000000000000000000000000000000000000c000000000000000000000000000000000000000000000000000000000000001400000000000000000000000000000000000000000000000000000000000000003000000000000000000000000082a08f524c043ec7f6b9a42bae79a1990d8499a000000000000000000000000bb83ecf372cbb6daa629ea9a9a53bec6d601f229000000000000000000000000c097ab8cd7b053326dfe9fb3e3a31a0cce3b526f0000000000000000000000000000000000000000000000000000000000000000)]"
      ],
      "transaction": {
        "from": "0x1d434906aa520e592fab2b82406beff859be8e82",
        "to": "0x3a73033c0b1407574c76bdbac67f126f6b4a9aa9",
        "gas": "0x36d34",
        "value": "0x0",
        "input": "0x6dbd9f90000000000000000000000000c6563942d1ae02dd6e450847de3753011ca3eee1000000000000000000000000fd76d9cb0bac839725ab79127e7411fe71b1e3ca000000000000000000000000000000000000000000000000000000000000006000000000000000000000000000000000000000000000000000000000000000010000000000000000000000000000000000000000000000000000000000000020000000000000000000000000000000000000000000000000000000000000762f0000000000000000000000000000000000000000000000000000000000000002000000000000000000000000000000000000000000000000000000000000006000000000000000000000000000000000000000000000000000000000000001800000000000000000000000000000000000000000000000000000000000000020000000000000000000000000000000000000000000000000000000000000000000000000000000000000000000000000000000000000000000000000000000030000000000000000000000000000000000000000000000000000000000000000000000000000000000000000000000000000000000000000000000000000000000000000000000000000000000000000000000000000000000000000000000c000000000000000000000000000000000000000000000000000000000000001400000000000000000000000000000000000000000000000000000000000000003000000000000000000000000082a08f524c043ec7f6b9a42bae79a1990d8499a000000000000000000000000bb83ecf372cbb6daa629ea9a9a53bec6d601f229000000000000000000000000c097ab8cd7b053326dfe9fb3e3a31a0cce3b526f0000000000000000000000000000000000000000000000000000000000000000",
        "nonce": "0x17",
        "chainId": "0x3e7"
      },
      "additionalContracts": [],
      "isFixedGasLimit": false
    },
    {
      "hash": "0x35d42ae0c1c13acf3528dd3b6ff040a1728db89677c1ff28d44e537b4cac203d",
      "transactionType": "CALL",
      "contractName": "EndpointV2",
      "contractAddress": "0x3a73033c0b1407574c76bdbac67f126f6b4a9aa9",
      "function": "setConfig(address,address,(uint32,uint32,bytes)[])",
      "arguments": [
        "0xC6563942D1AE02Dd6e450847de3753011cA3eee1",
        "0x7cacBe439EaD55fa1c22790330b12835c6884a91",
        "[(30255, 2, 0x0000000000000000000000000000000000000000000000000000000000000020000000000000000000000000000000000000000000000000000000000000000000000000000000000000000000000000000000000000000000000000000000030000000000000000000000000000000000000000000000000000000000000000000000000000000000000000000000000000000000000000000000000000000000000000000000000000000000000000000000000000000000000000000000c000000000000000000000000000000000000000000000000000000000000001400000000000000000000000000000000000000000000000000000000000000003000000000000000000000000082a08f524c043ec7f6b9a42bae79a1990d8499a000000000000000000000000bb83ecf372cbb6daa629ea9a9a53bec6d601f229000000000000000000000000c097ab8cd7b053326dfe9fb3e3a31a0cce3b526f0000000000000000000000000000000000000000000000000000000000000000)]"
      ],
      "transaction": {
        "from": "0x1d434906aa520e592fab2b82406beff859be8e82",
        "to": "0x3a73033c0b1407574c76bdbac67f126f6b4a9aa9",
        "gas": "0x36be0",
        "value": "0x0",
        "input": "0x6dbd9f90000000000000000000000000c6563942d1ae02dd6e450847de3753011ca3eee10000000000000000000000007cacbe439ead55fa1c22790330b12835c6884a91000000000000000000000000000000000000000000000000000000000000006000000000000000000000000000000000000000000000000000000000000000010000000000000000000000000000000000000000000000000000000000000020000000000000000000000000000000000000000000000000000000000000762f0000000000000000000000000000000000000000000000000000000000000002000000000000000000000000000000000000000000000000000000000000006000000000000000000000000000000000000000000000000000000000000001800000000000000000000000000000000000000000000000000000000000000020000000000000000000000000000000000000000000000000000000000000000000000000000000000000000000000000000000000000000000000000000000030000000000000000000000000000000000000000000000000000000000000000000000000000000000000000000000000000000000000000000000000000000000000000000000000000000000000000000000000000000000000000000000c000000000000000000000000000000000000000000000000000000000000001400000000000000000000000000000000000000000000000000000000000000003000000000000000000000000082a08f524c043ec7f6b9a42bae79a1990d8499a000000000000000000000000bb83ecf372cbb6daa629ea9a9a53bec6d601f229000000000000000000000000c097ab8cd7b053326dfe9fb3e3a31a0cce3b526f0000000000000000000000000000000000000000000000000000000000000000",
        "nonce": "0x18",
        "chainId": "0x3e7"
      },
      "additionalContracts": [],
      "isFixedGasLimit": false
    },
    {
      "hash": "0xdf32e224f3b1cb34fc19060b1c782109794cb1af619725f12d4e11c39d5b8069",
      "transactionType": "CALL",
      "contractName": "EndpointV2",
      "contractAddress": "0x3a73033c0b1407574c76bdbac67f126f6b4a9aa9",
      "function": "setSendLibrary(address,uint32,address)",
      "arguments": [
        "0x65C042454005de49106a6B0129F4Af56939457da",
        "30255",
        "0xfd76d9CB0Bac839725aB79127E7411fe71b1e3CA"
      ],
      "transaction": {
        "from": "0x1d434906aa520e592fab2b82406beff859be8e82",
        "to": "0x3a73033c0b1407574c76bdbac67f126f6b4a9aa9",
        "gas": "0x1378b",
        "value": "0x0",
        "input": "0x9535ff3000000000000000000000000065c042454005de49106a6b0129f4af56939457da000000000000000000000000000000000000000000000000000000000000762f000000000000000000000000fd76d9cb0bac839725ab79127e7411fe71b1e3ca",
        "nonce": "0x19",
        "chainId": "0x3e7"
      },
      "additionalContracts": [],
      "isFixedGasLimit": false
    },
    {
      "hash": "0x711e5efb41d5e9ee2f3722b39a1beed46ead8cf68237eb9d64a5d0c0a14e4aa8",
      "transactionType": "CALL",
      "contractName": "EndpointV2",
      "contractAddress": "0x3a73033c0b1407574c76bdbac67f126f6b4a9aa9",
      "function": "setReceiveLibrary(address,uint32,address,uint256)",
      "arguments": [
        "0x65C042454005de49106a6B0129F4Af56939457da",
        "30255",
        "0x7cacBe439EaD55fa1c22790330b12835c6884a91",
        "0"
      ],
      "transaction": {
        "from": "0x1d434906aa520e592fab2b82406beff859be8e82",
        "to": "0x3a73033c0b1407574c76bdbac67f126f6b4a9aa9",
        "gas": "0x17001",
        "value": "0x0",
        "input": "0x6a14d71500000000000000000000000065c042454005de49106a6b0129f4af56939457da000000000000000000000000000000000000000000000000000000000000762f0000000000000000000000007cacbe439ead55fa1c22790330b12835c6884a910000000000000000000000000000000000000000000000000000000000000000",
        "nonce": "0x1a",
        "chainId": "0x3e7"
      },
      "additionalContracts": [],
      "isFixedGasLimit": false
    },
    {
      "hash": "0x5c5a8edac9d2174245ccd7edba09109565e4e53058a5136034a53daf643d20e6",
      "transactionType": "CALL",
      "contractName": "EndpointV2",
      "contractAddress": "0x3a73033c0b1407574c76bdbac67f126f6b4a9aa9",
      "function": "setSendLibrary(address,uint32,address)",
      "arguments": [
        "0xE1851f6ac161d1911104b19918FB866eF6FEE577",
        "30255",
        "0xfd76d9CB0Bac839725aB79127E7411fe71b1e3CA"
      ],
      "transaction": {
        "from": "0x1d434906aa520e592fab2b82406beff859be8e82",
        "to": "0x3a73033c0b1407574c76bdbac67f126f6b4a9aa9",
        "gas": "0x1378b",
        "value": "0x0",
        "input": "0x9535ff30000000000000000000000000e1851f6ac161d1911104b19918fb866ef6fee577000000000000000000000000000000000000000000000000000000000000762f000000000000000000000000fd76d9cb0bac839725ab79127e7411fe71b1e3ca",
        "nonce": "0x1b",
        "chainId": "0x3e7"
      },
      "additionalContracts": [],
      "isFixedGasLimit": false
    },
    {
      "hash": "0xed95767f723d39dcf0783d5d3906682260fc918bd44e99ba8a22436ed8ebef77",
      "transactionType": "CALL",
      "contractName": "EndpointV2",
      "contractAddress": "0x3a73033c0b1407574c76bdbac67f126f6b4a9aa9",
      "function": "setReceiveLibrary(address,uint32,address,uint256)",
      "arguments": [
        "0xE1851f6ac161d1911104b19918FB866eF6FEE577",
        "30255",
        "0x7cacBe439EaD55fa1c22790330b12835c6884a91",
        "0"
      ],
      "transaction": {
        "from": "0x1d434906aa520e592fab2b82406beff859be8e82",
        "to": "0x3a73033c0b1407574c76bdbac67f126f6b4a9aa9",
        "gas": "0x17001",
        "value": "0x0",
        "input": "0x6a14d715000000000000000000000000e1851f6ac161d1911104b19918fb866ef6fee577000000000000000000000000000000000000000000000000000000000000762f0000000000000000000000007cacbe439ead55fa1c22790330b12835c6884a910000000000000000000000000000000000000000000000000000000000000000",
        "nonce": "0x1c",
        "chainId": "0x3e7"
      },
      "additionalContracts": [],
      "isFixedGasLimit": false
    },
    {
      "hash": "0x69d0b810775aabb275eeb6da03cc7c1796eea00e2eaec132c76c54edf0d05376",
      "transactionType": "CALL",
      "contractName": "EndpointV2",
      "contractAddress": "0x3a73033c0b1407574c76bdbac67f126f6b4a9aa9",
      "function": "setSendLibrary(address,uint32,address)",
      "arguments": [
        "0xb7583B07C12286bb9026A7053B0C44e8f5fa8624",
        "30255",
        "0xfd76d9CB0Bac839725aB79127E7411fe71b1e3CA"
      ],
      "transaction": {
        "from": "0x1d434906aa520e592fab2b82406beff859be8e82",
        "to": "0x3a73033c0b1407574c76bdbac67f126f6b4a9aa9",
        "gas": "0x1378b",
        "value": "0x0",
        "input": "0x9535ff30000000000000000000000000b7583b07c12286bb9026a7053b0c44e8f5fa8624000000000000000000000000000000000000000000000000000000000000762f000000000000000000000000fd76d9cb0bac839725ab79127e7411fe71b1e3ca",
        "nonce": "0x1d",
        "chainId": "0x3e7"
      },
      "additionalContracts": [],
      "isFixedGasLimit": false
    },
    {
      "hash": "0xbade6fc0882addb26bb97c8d9a05f7138e24448a0e82f541ca060bc2b1b905d9",
      "transactionType": "CALL",
      "contractName": "EndpointV2",
      "contractAddress": "0x3a73033c0b1407574c76bdbac67f126f6b4a9aa9",
      "function": "setReceiveLibrary(address,uint32,address,uint256)",
      "arguments": [
        "0xb7583B07C12286bb9026A7053B0C44e8f5fa8624",
        "30255",
        "0x7cacBe439EaD55fa1c22790330b12835c6884a91",
        "0"
      ],
      "transaction": {
        "from": "0x1d434906aa520e592fab2b82406beff859be8e82",
        "to": "0x3a73033c0b1407574c76bdbac67f126f6b4a9aa9",
        "gas": "0x17001",
        "value": "0x0",
        "input": "0x6a14d715000000000000000000000000b7583b07c12286bb9026a7053b0c44e8f5fa8624000000000000000000000000000000000000000000000000000000000000762f0000000000000000000000007cacbe439ead55fa1c22790330b12835c6884a910000000000000000000000000000000000000000000000000000000000000000",
        "nonce": "0x1e",
        "chainId": "0x3e7"
      },
      "additionalContracts": [],
      "isFixedGasLimit": false
    },
    {
      "hash": "0xe94b5eb9e4e0468a6b9c7abdc6fb42a0b608914616d3a698732abed5cc8ca7e5",
      "transactionType": "CALL",
      "contractName": "EndpointV2",
      "contractAddress": "0x3a73033c0b1407574c76bdbac67f126f6b4a9aa9",
      "function": "setSendLibrary(address,uint32,address)",
      "arguments": [
        "0xA444F92734be29E71b8A4762595C9733Ab2C9c47",
        "30255",
        "0xfd76d9CB0Bac839725aB79127E7411fe71b1e3CA"
      ],
      "transaction": {
        "from": "0x1d434906aa520e592fab2b82406beff859be8e82",
        "to": "0x3a73033c0b1407574c76bdbac67f126f6b4a9aa9",
        "gas": "0x1378b",
        "value": "0x0",
        "input": "0x9535ff30000000000000000000000000a444f92734be29e71b8a4762595c9733ab2c9c47000000000000000000000000000000000000000000000000000000000000762f000000000000000000000000fd76d9cb0bac839725ab79127e7411fe71b1e3ca",
        "nonce": "0x1f",
        "chainId": "0x3e7"
      },
      "additionalContracts": [],
      "isFixedGasLimit": false
    },
    {
      "hash": "0x1cd94179f7a62b6e9d1ef2099589faccba756c3fe95f7584bcb91bee03ae8b72",
      "transactionType": "CALL",
      "contractName": "EndpointV2",
      "contractAddress": "0x3a73033c0b1407574c76bdbac67f126f6b4a9aa9",
      "function": "setReceiveLibrary(address,uint32,address,uint256)",
      "arguments": [
        "0xA444F92734be29E71b8A4762595C9733Ab2C9c47",
        "30255",
        "0x7cacBe439EaD55fa1c22790330b12835c6884a91",
        "0"
      ],
      "transaction": {
        "from": "0x1d434906aa520e592fab2b82406beff859be8e82",
        "to": "0x3a73033c0b1407574c76bdbac67f126f6b4a9aa9",
        "gas": "0x17001",
        "value": "0x0",
        "input": "0x6a14d715000000000000000000000000a444f92734be29e71b8a4762595c9733ab2c9c47000000000000000000000000000000000000000000000000000000000000762f0000000000000000000000007cacbe439ead55fa1c22790330b12835c6884a910000000000000000000000000000000000000000000000000000000000000000",
        "nonce": "0x20",
        "chainId": "0x3e7"
      },
      "additionalContracts": [],
      "isFixedGasLimit": false
    },
    {
      "hash": "0x426c4625aabe495405926872e2e8ee1705df3bd06abf83128fa987c2d281428b",
      "transactionType": "CALL",
      "contractName": "EndpointV2",
      "contractAddress": "0x3a73033c0b1407574c76bdbac67f126f6b4a9aa9",
      "function": "setSendLibrary(address,uint32,address)",
      "arguments": [
        "0xa5C2889F0E3DA388DF3BF87f8f0B8E56bB863C41",
        "30255",
        "0xfd76d9CB0Bac839725aB79127E7411fe71b1e3CA"
      ],
      "transaction": {
        "from": "0x1d434906aa520e592fab2b82406beff859be8e82",
        "to": "0x3a73033c0b1407574c76bdbac67f126f6b4a9aa9",
        "gas": "0x1378b",
        "value": "0x0",
        "input": "0x9535ff30000000000000000000000000a5c2889f0e3da388df3bf87f8f0b8e56bb863c41000000000000000000000000000000000000000000000000000000000000762f000000000000000000000000fd76d9cb0bac839725ab79127e7411fe71b1e3ca",
        "nonce": "0x21",
        "chainId": "0x3e7"
      },
      "additionalContracts": [],
      "isFixedGasLimit": false
    },
    {
      "hash": "0x65d08a4413253ad77857ef709da2294b9b80192804360af06207a65a37a844cf",
      "transactionType": "CALL",
      "contractName": "EndpointV2",
      "contractAddress": "0x3a73033c0b1407574c76bdbac67f126f6b4a9aa9",
      "function": "setReceiveLibrary(address,uint32,address,uint256)",
      "arguments": [
        "0xa5C2889F0E3DA388DF3BF87f8f0B8E56bB863C41",
        "30255",
        "0x7cacBe439EaD55fa1c22790330b12835c6884a91",
        "0"
      ],
      "transaction": {
        "from": "0x1d434906aa520e592fab2b82406beff859be8e82",
        "to": "0x3a73033c0b1407574c76bdbac67f126f6b4a9aa9",
        "gas": "0x17001",
        "value": "0x0",
        "input": "0x6a14d715000000000000000000000000a5c2889f0e3da388df3bf87f8f0b8e56bb863c41000000000000000000000000000000000000000000000000000000000000762f0000000000000000000000007cacbe439ead55fa1c22790330b12835c6884a910000000000000000000000000000000000000000000000000000000000000000",
        "nonce": "0x22",
        "chainId": "0x3e7"
      },
      "additionalContracts": [],
      "isFixedGasLimit": false
    },
    {
      "hash": "0xa30cdd4d48d23ef433783eda14496b9f54e4212dbf83b687ac6f721946bc234b",
      "transactionType": "CALL",
      "contractName": "EndpointV2",
      "contractAddress": "0x3a73033c0b1407574c76bdbac67f126f6b4a9aa9",
      "function": "setSendLibrary(address,uint32,address)",
      "arguments": [
        "0xC6563942D1AE02Dd6e450847de3753011cA3eee1",
        "30255",
        "0xfd76d9CB0Bac839725aB79127E7411fe71b1e3CA"
      ],
      "transaction": {
        "from": "0x1d434906aa520e592fab2b82406beff859be8e82",
        "to": "0x3a73033c0b1407574c76bdbac67f126f6b4a9aa9",
        "gas": "0x1378b",
        "value": "0x0",
        "input": "0x9535ff30000000000000000000000000c6563942d1ae02dd6e450847de3753011ca3eee1000000000000000000000000000000000000000000000000000000000000762f000000000000000000000000fd76d9cb0bac839725ab79127e7411fe71b1e3ca",
        "nonce": "0x23",
        "chainId": "0x3e7"
      },
      "additionalContracts": [],
      "isFixedGasLimit": false
    },
    {
      "hash": "0xed69ecc6f877a445f8f21ecc327b61bca4451272f963173e4d3800dc98253862",
      "transactionType": "CALL",
      "contractName": "EndpointV2",
      "contractAddress": "0x3a73033c0b1407574c76bdbac67f126f6b4a9aa9",
      "function": "setReceiveLibrary(address,uint32,address,uint256)",
      "arguments": [
        "0xC6563942D1AE02Dd6e450847de3753011cA3eee1",
        "30255",
        "0x7cacBe439EaD55fa1c22790330b12835c6884a91",
        "0"
      ],
      "transaction": {
        "from": "0x1d434906aa520e592fab2b82406beff859be8e82",
        "to": "0x3a73033c0b1407574c76bdbac67f126f6b4a9aa9",
        "gas": "0x17001",
        "value": "0x0",
        "input": "0x6a14d715000000000000000000000000c6563942d1ae02dd6e450847de3753011ca3eee1000000000000000000000000000000000000000000000000000000000000762f0000000000000000000000007cacbe439ead55fa1c22790330b12835c6884a910000000000000000000000000000000000000000000000000000000000000000",
        "nonce": "0x24",
        "chainId": "0x3e7"
      },
      "additionalContracts": [],
      "isFixedGasLimit": false
    },
    {
      "hash": "0x2abe3af41900b3e0620bc4e44eb71abbf627b1c850fd47464afd35d42d145be1",
      "transactionType": "CALL",
      "contractName": "TransparentUpgradeableProxy",
      "contractAddress": "0x65c042454005de49106a6b0129f4af56939457da",
      "function": null,
      "arguments": null,
      "transaction": {
        "from": "0x1d434906aa520e592fab2b82406beff859be8e82",
        "to": "0x65c042454005de49106a6b0129f4af56939457da",
        "gas": "0xea99",
        "value": "0x0",
        "input": "0xca5eb5e10000000000000000000000008d8290d49e88d16d81c6adf6c8774ed88762274a",
        "nonce": "0x25",
        "chainId": "0x3e7"
      },
      "additionalContracts": [],
      "isFixedGasLimit": false
    },
    {
      "hash": "0x3360f8a54defe91e26cc45b19fd5dea4d90a8eb8a91adfbe6a45e3ad027400cd",
      "transactionType": "CALL",
      "contractName": "TransparentUpgradeableProxy",
      "contractAddress": "0x65c042454005de49106a6b0129f4af56939457da",
      "function": null,
      "arguments": null,
      "transaction": {
        "from": "0x1d434906aa520e592fab2b82406beff859be8e82",
        "to": "0x65c042454005de49106a6b0129f4af56939457da",
        "gas": "0xc1df",
        "value": "0x0",
        "input": "0xf2fde38b0000000000000000000000008d8290d49e88d16d81c6adf6c8774ed88762274a",
        "nonce": "0x26",
        "chainId": "0x3e7"
      },
      "additionalContracts": [],
      "isFixedGasLimit": false
    },
    {
      "hash": "0x54d1e8d1ae5129ce20518215ab683527d9e359a59e461945fbede9bf20de670b",
      "transactionType": "CALL",
      "contractName": null,
      "contractAddress": "0xe1851f6ac161d1911104b19918fb866ef6fee577",
      "function": "setDelegate(address)",
      "arguments": [
        "0x8d8290d49e88D16d81C6aDf6C8774eD88762274A"
      ],
      "transaction": {
        "from": "0x1d434906aa520e592fab2b82406beff859be8e82",
        "to": "0xe1851f6ac161d1911104b19918fb866ef6fee577",
        "gas": "0xea99",
        "value": "0x0",
        "input": "0xca5eb5e10000000000000000000000008d8290d49e88d16d81c6adf6c8774ed88762274a",
        "nonce": "0x27",
        "chainId": "0x3e7"
      },
      "additionalContracts": [],
      "isFixedGasLimit": false
    },
    {
      "hash": "0x114c5abf8e774767102cf1a314ea0d3cf93e41fb17f0f97784e7ce85c1eb3a8b",
      "transactionType": "CALL",
      "contractName": null,
      "contractAddress": "0xe1851f6ac161d1911104b19918fb866ef6fee577",
      "function": "transferOwnership(address)",
      "arguments": [
        "0x8d8290d49e88D16d81C6aDf6C8774eD88762274A"
      ],
      "transaction": {
        "from": "0x1d434906aa520e592fab2b82406beff859be8e82",
        "to": "0xe1851f6ac161d1911104b19918fb866ef6fee577",
        "gas": "0xc1df",
        "value": "0x0",
        "input": "0xf2fde38b0000000000000000000000008d8290d49e88d16d81c6adf6c8774ed88762274a",
        "nonce": "0x28",
        "chainId": "0x3e7"
      },
      "additionalContracts": [],
      "isFixedGasLimit": false
    },
    {
      "hash": "0xbf9b162acb1df960aed783ac234a219289ff6ee4d93b3f1309708b7134c2f481",
      "transactionType": "CALL",
      "contractName": null,
      "contractAddress": "0xb7583b07c12286bb9026a7053b0c44e8f5fa8624",
      "function": "setDelegate(address)",
      "arguments": [
        "0x8d8290d49e88D16d81C6aDf6C8774eD88762274A"
      ],
      "transaction": {
        "from": "0x1d434906aa520e592fab2b82406beff859be8e82",
        "to": "0xb7583b07c12286bb9026a7053b0c44e8f5fa8624",
        "gas": "0xea99",
        "value": "0x0",
        "input": "0xca5eb5e10000000000000000000000008d8290d49e88d16d81c6adf6c8774ed88762274a",
        "nonce": "0x29",
        "chainId": "0x3e7"
      },
      "additionalContracts": [],
      "isFixedGasLimit": false
    },
    {
      "hash": "0xf53b39a0dd96b7004d8c8c2bd3e19a1ee901f6515433740bf0ad648eae9e5ead",
      "transactionType": "CALL",
      "contractName": null,
      "contractAddress": "0xb7583b07c12286bb9026a7053b0c44e8f5fa8624",
      "function": "transferOwnership(address)",
      "arguments": [
        "0x8d8290d49e88D16d81C6aDf6C8774eD88762274A"
      ],
      "transaction": {
        "from": "0x1d434906aa520e592fab2b82406beff859be8e82",
        "to": "0xb7583b07c12286bb9026a7053b0c44e8f5fa8624",
        "gas": "0xc1df",
        "value": "0x0",
        "input": "0xf2fde38b0000000000000000000000008d8290d49e88d16d81c6adf6c8774ed88762274a",
        "nonce": "0x2a",
        "chainId": "0x3e7"
      },
      "additionalContracts": [],
      "isFixedGasLimit": false
    },
    {
      "hash": "0x6fb60517118fc6ddd50b2f83afaedd2a874de2aaee86fc6ecfeb838451ecb54e",
      "transactionType": "CALL",
      "contractName": "TransparentUpgradeableProxy",
      "contractAddress": "0xa444f92734be29e71b8a4762595c9733ab2c9c47",
      "function": null,
      "arguments": null,
      "transaction": {
        "from": "0x1d434906aa520e592fab2b82406beff859be8e82",
        "to": "0xa444f92734be29e71b8a4762595c9733ab2c9c47",
        "gas": "0xea99",
        "value": "0x0",
        "input": "0xca5eb5e10000000000000000000000008d8290d49e88d16d81c6adf6c8774ed88762274a",
        "nonce": "0x2b",
        "chainId": "0x3e7"
      },
      "additionalContracts": [],
      "isFixedGasLimit": false
    },
    {
      "hash": "0x866d6cbc7da5dc4eb81aab9220019d49881d8a57baa1140ae5cb87ab83c07d70",
      "transactionType": "CALL",
      "contractName": "TransparentUpgradeableProxy",
      "contractAddress": "0xa444f92734be29e71b8a4762595c9733ab2c9c47",
      "function": null,
      "arguments": null,
      "transaction": {
        "from": "0x1d434906aa520e592fab2b82406beff859be8e82",
        "to": "0xa444f92734be29e71b8a4762595c9733ab2c9c47",
        "gas": "0xc1df",
        "value": "0x0",
        "input": "0xf2fde38b0000000000000000000000008d8290d49e88d16d81c6adf6c8774ed88762274a",
        "nonce": "0x2c",
        "chainId": "0x3e7"
      },
      "additionalContracts": [],
      "isFixedGasLimit": false
    },
    {
      "hash": "0x021b680be6cb1203985a0bc52e4a9130585e98259a1193b82c80fc9313e5cd06",
      "transactionType": "CALL",
      "contractName": "TransparentUpgradeableProxy",
      "contractAddress": "0xa5c2889f0e3da388df3bf87f8f0b8e56bb863c41",
      "function": null,
      "arguments": null,
      "transaction": {
        "from": "0x1d434906aa520e592fab2b82406beff859be8e82",
        "to": "0xa5c2889f0e3da388df3bf87f8f0b8e56bb863c41",
        "gas": "0xea99",
        "value": "0x0",
        "input": "0xca5eb5e10000000000000000000000008d8290d49e88d16d81c6adf6c8774ed88762274a",
        "nonce": "0x2d",
        "chainId": "0x3e7"
      },
      "additionalContracts": [],
      "isFixedGasLimit": false
    },
    {
      "hash": "0x9ba11f1f47d462d6e1cb03c56546e26d0bca7faf4760f9f63282bab8dbcfe224",
      "transactionType": "CALL",
      "contractName": "TransparentUpgradeableProxy",
      "contractAddress": "0xa5c2889f0e3da388df3bf87f8f0b8e56bb863c41",
      "function": null,
      "arguments": null,
      "transaction": {
        "from": "0x1d434906aa520e592fab2b82406beff859be8e82",
        "to": "0xa5c2889f0e3da388df3bf87f8f0b8e56bb863c41",
        "gas": "0xc1df",
        "value": "0x0",
        "input": "0xf2fde38b0000000000000000000000008d8290d49e88d16d81c6adf6c8774ed88762274a",
        "nonce": "0x2e",
        "chainId": "0x3e7"
      },
      "additionalContracts": [],
      "isFixedGasLimit": false
    },
    {
      "hash": "0xf044c52b5de3c05b20e2b9a3bd0384980836f475a46c9d3559910d5d03cf5ef5",
      "transactionType": "CALL",
      "contractName": "TransparentUpgradeableProxy",
      "contractAddress": "0xc6563942d1ae02dd6e450847de3753011ca3eee1",
      "function": null,
      "arguments": null,
      "transaction": {
        "from": "0x1d434906aa520e592fab2b82406beff859be8e82",
        "to": "0xc6563942d1ae02dd6e450847de3753011ca3eee1",
        "gas": "0xea99",
        "value": "0x0",
        "input": "0xca5eb5e10000000000000000000000008d8290d49e88d16d81c6adf6c8774ed88762274a",
        "nonce": "0x2f",
        "chainId": "0x3e7"
      },
      "additionalContracts": [],
      "isFixedGasLimit": false
    },
    {
      "hash": "0x662db8f8bfbeb29a7e42860a4709aa8682b47ab2d8e9ba902b383226aa5bec33",
      "transactionType": "CALL",
      "contractName": "TransparentUpgradeableProxy",
      "contractAddress": "0xc6563942d1ae02dd6e450847de3753011ca3eee1",
      "function": null,
      "arguments": null,
      "transaction": {
        "from": "0x1d434906aa520e592fab2b82406beff859be8e82",
        "to": "0xc6563942d1ae02dd6e450847de3753011ca3eee1",
        "gas": "0xc1df",
        "value": "0x0",
        "input": "0xf2fde38b0000000000000000000000008d8290d49e88d16d81c6adf6c8774ed88762274a",
        "nonce": "0x30",
        "chainId": "0x3e7"
      },
      "additionalContracts": [],
      "isFixedGasLimit": false
    },
    {
      "hash": "0x90279d89d460d0de1072641294ab126bb760d64cf92184e58d8007a8c85289fe",
      "transactionType": "CALL",
      "contractName": "FraxProxyAdmin",
      "contractAddress": "0xb4d6a05f58e1671c4ecd5d6544c83954b44fb8d5",
      "function": "transferOwnership(address)",
      "arguments": [
        "0x8d8290d49e88D16d81C6aDf6C8774eD88762274A"
      ],
      "transaction": {
        "from": "0x1d434906aa520e592fab2b82406beff859be8e82",
        "to": "0xb4d6a05f58e1671c4ecd5d6544c83954b44fb8d5",
        "gas": "0x9a4d",
        "value": "0x0",
        "input": "0xf2fde38b0000000000000000000000008d8290d49e88d16d81c6adf6c8774ed88762274a",
        "nonce": "0x31",
        "chainId": "0x3e7"
      },
      "additionalContracts": [],
      "isFixedGasLimit": false
    }
  ],
  "receipts": [
    {
      "status": "0x1",
      "cumulativeGasUsed": "0x3f3ee",
      "logs": [
        {
          "address": "0x65c042454005de49106a6b0129f4af56939457da",
          "topics": [
            "0xbe4864a8e820971c0247f5992e2da559595f7bf076a21cb5928d443d2a13b674"
          ],
          "data": "0x00000000000000000000000000000000000000000000000000000000000000200000000000000000000000000000000000000000000000000000000000000002000000000000000000000000000000000000000000000000000000000000004000000000000000000000000000000000000000000000000000000000000000e0000000000000000000000000000000000000000000000000000000000000762f00000000000000000000000000000000000000000000000000000000000000010000000000000000000000000000000000000000000000000000000000000060000000000000000000000000000000000000000000000000000000000000001600030100110100000000000000000000000000030d4000000000000000000000000000000000000000000000000000000000000000000000000000000000762f0000000000000000000000000000000000000000000000000000000000000002000000000000000000000000000000000000000000000000000000000000006000000000000000000000000000000000000000000000000000000000000000160003010011010000000000000000000000000003d09000000000000000000000",
          "blockHash": "0x946dff05270a0ab68d36abd7d26ddb18bdeb31266481e01100f2ac942fab3523",
          "blockNumber": "0xd01fa0",
          "blockTimestamp": "0x68c3e4cc",
          "transactionHash": "0x7b1ac6e44e72361a8011f12a9aa476ed16cab992a64886c068d0bf18390ca32d",
          "transactionIndex": "0x1",
          "logIndex": "0x5",
          "removed": false
        }
      ],
      "logsBloom": "0x00000000000000000000000000000000000000000000000000000000000000000000000000000000000000000000000000000000000000008001400000000000000000000000000000000000000000000000000000000000000000000000000000000000000000000000000000000000000000000000000000000000000000000000000000000000000000000000000000000000000000000000000000080000000000000000000000000000000000000000000000000000000000000000000000000000000000000000000002000000000000000000000000000000000000000000000000000000000000000000000000000000000004000000000000000000",
      "type": "0x2",
      "transactionHash": "0x7b1ac6e44e72361a8011f12a9aa476ed16cab992a64886c068d0bf18390ca32d",
      "transactionIndex": "0x1",
      "blockHash": "0x946dff05270a0ab68d36abd7d26ddb18bdeb31266481e01100f2ac942fab3523",
      "blockNumber": "0xd01fa0",
      "gasUsed": "0x15722",
      "effectiveGasPrice": "0x1c00bebb",
      "from": "0x1d434906aa520e592fab2b82406beff859be8e82",
      "to": "0x65c042454005de49106a6b0129f4af56939457da",
      "contractAddress": null
    },
    {
      "status": "0x1",
      "cumulativeGasUsed": "0x54b10",
      "logs": [
        {
          "address": "0xe1851f6ac161d1911104b19918fb866ef6fee577",
          "topics": [
            "0xbe4864a8e820971c0247f5992e2da559595f7bf076a21cb5928d443d2a13b674"
          ],
          "data": "0x00000000000000000000000000000000000000000000000000000000000000200000000000000000000000000000000000000000000000000000000000000002000000000000000000000000000000000000000000000000000000000000004000000000000000000000000000000000000000000000000000000000000000e0000000000000000000000000000000000000000000000000000000000000762f00000000000000000000000000000000000000000000000000000000000000010000000000000000000000000000000000000000000000000000000000000060000000000000000000000000000000000000000000000000000000000000001600030100110100000000000000000000000000030d4000000000000000000000000000000000000000000000000000000000000000000000000000000000762f0000000000000000000000000000000000000000000000000000000000000002000000000000000000000000000000000000000000000000000000000000006000000000000000000000000000000000000000000000000000000000000000160003010011010000000000000000000000000003d09000000000000000000000",
          "blockHash": "0x946dff05270a0ab68d36abd7d26ddb18bdeb31266481e01100f2ac942fab3523",
          "blockNumber": "0xd01fa0",
          "blockTimestamp": "0x68c3e4cc",
          "transactionHash": "0x848f59a53ef6cfe73f7d4ed502276b1e52da036a99a5039dc39f4c48564a7654",
          "transactionIndex": "0x2",
          "logIndex": "0x6",
          "removed": false
        }
      ],
      "logsBloom": "0x04000000000000000000000000000000000000000000000000000000000000000000000000000000000000000000000000000000000000000000400000000000000000000004000000000000000000000000000000000000000000000000000000000000000000000000000000000000000000000000000000000000000000000000000000000000000000000000000000000000000000000000000000080000000000000000000000000000000000000000000000000000000000000000000000000000000000000000000002000000000000000000000000000000000000000000000000000000000000000000000040000000000000000000000000000000",
      "type": "0x2",
      "transactionHash": "0x848f59a53ef6cfe73f7d4ed502276b1e52da036a99a5039dc39f4c48564a7654",
      "transactionIndex": "0x2",
      "blockHash": "0x946dff05270a0ab68d36abd7d26ddb18bdeb31266481e01100f2ac942fab3523",
      "blockNumber": "0xd01fa0",
      "gasUsed": "0x15722",
      "effectiveGasPrice": "0x1c00bebb",
      "from": "0x1d434906aa520e592fab2b82406beff859be8e82",
      "to": "0xe1851f6ac161d1911104b19918fb866ef6fee577",
      "contractAddress": null
    },
    {
      "status": "0x1",
      "cumulativeGasUsed": "0x6a232",
      "logs": [
        {
          "address": "0xb7583b07c12286bb9026a7053b0c44e8f5fa8624",
          "topics": [
            "0xbe4864a8e820971c0247f5992e2da559595f7bf076a21cb5928d443d2a13b674"
          ],
          "data": "0x00000000000000000000000000000000000000000000000000000000000000200000000000000000000000000000000000000000000000000000000000000002000000000000000000000000000000000000000000000000000000000000004000000000000000000000000000000000000000000000000000000000000000e0000000000000000000000000000000000000000000000000000000000000762f00000000000000000000000000000000000000000000000000000000000000010000000000000000000000000000000000000000000000000000000000000060000000000000000000000000000000000000000000000000000000000000001600030100110100000000000000000000000000030d4000000000000000000000000000000000000000000000000000000000000000000000000000000000762f0000000000000000000000000000000000000000000000000000000000000002000000000000000000000000000000000000000000000000000000000000006000000000000000000000000000000000000000000000000000000000000000160003010011010000000000000000000000000003d09000000000000000000000",
          "blockHash": "0x946dff05270a0ab68d36abd7d26ddb18bdeb31266481e01100f2ac942fab3523",
          "blockNumber": "0xd01fa0",
          "blockTimestamp": "0x68c3e4cc",
          "transactionHash": "0xb892e3431702e6e68799ebaac8557a73016938b0d4eba96d5be103ca8adde96f",
          "transactionIndex": "0x3",
          "logIndex": "0x7",
          "removed": false
        }
      ],
      "logsBloom": "0x00000000000000000000000000000000000000000000000000000000000000000000000000000000000000000000000000000000000000000000400000000000000000000000000000000000000000000000000000000000000000000000000000000000400000000000000000000000000000000000000000000000000000000000000000000000000000000000000000000000000000000000000000080000000000000000000000000000000000000000000000000000000000000040000000000000000000000000000002000000000000000000000000000000000000001000000000000000000000000000000000000000000000000000000000000000",
      "type": "0x2",
      "transactionHash": "0xb892e3431702e6e68799ebaac8557a73016938b0d4eba96d5be103ca8adde96f",
      "transactionIndex": "0x3",
      "blockHash": "0x946dff05270a0ab68d36abd7d26ddb18bdeb31266481e01100f2ac942fab3523",
      "blockNumber": "0xd01fa0",
      "gasUsed": "0x15722",
      "effectiveGasPrice": "0x1c00bebb",
      "from": "0x1d434906aa520e592fab2b82406beff859be8e82",
      "to": "0xb7583b07c12286bb9026a7053b0c44e8f5fa8624",
      "contractAddress": null
    },
    {
      "status": "0x1",
      "cumulativeGasUsed": "0x324ae",
      "logs": [
        {
          "address": "0xa444f92734be29e71b8a4762595c9733ab2c9c47",
          "topics": [
            "0xbe4864a8e820971c0247f5992e2da559595f7bf076a21cb5928d443d2a13b674"
          ],
          "data": "0x00000000000000000000000000000000000000000000000000000000000000200000000000000000000000000000000000000000000000000000000000000002000000000000000000000000000000000000000000000000000000000000004000000000000000000000000000000000000000000000000000000000000000e0000000000000000000000000000000000000000000000000000000000000762f00000000000000000000000000000000000000000000000000000000000000010000000000000000000000000000000000000000000000000000000000000060000000000000000000000000000000000000000000000000000000000000001600030100110100000000000000000000000000030d4000000000000000000000000000000000000000000000000000000000000000000000000000000000762f0000000000000000000000000000000000000000000000000000000000000002000000000000000000000000000000000000000000000000000000000000006000000000000000000000000000000000000000000000000000000000000000160003010011010000000000000000000000000003d09000000000000000000000",
          "blockHash": "0x8ca038ce89715b028d52798640ed6679446989aaf73db39e25ab2c810858e7b7",
          "blockNumber": "0xd01fa1",
          "blockTimestamp": "0x68c3e4cd",
          "transactionHash": "0x60d2a0c67faa492583dabcb2b05e0cec56d4cf59a67d9faf3179246bbae8ec4e",
          "transactionIndex": "0x2",
          "logIndex": "0x2",
          "removed": false
        }
      ],
      "logsBloom": "0x00000000000000000000000000000000000000000000000000000000000000000000000000000000000000000000000000000000000000000000400000000000000000000000000000000000000000000000000000000000000000000000000000000000000000000000000000000000000000000000000000000000000000000000000000000000000000000000000000000000000000000000000000080000000000000000000000000000000000000000000000000000000000000000000000000000000000000000000002000000000000000000000000000000200000000000000000000000000000000000000000100000080000000000000000000000",
      "type": "0x2",
      "transactionHash": "0x60d2a0c67faa492583dabcb2b05e0cec56d4cf59a67d9faf3179246bbae8ec4e",
      "transactionIndex": "0x2",
      "blockHash": "0x8ca038ce89715b028d52798640ed6679446989aaf73db39e25ab2c810858e7b7",
      "blockNumber": "0xd01fa1",
      "gasUsed": "0x15722",
      "effectiveGasPrice": "0x1ba0bd5f",
      "from": "0x1d434906aa520e592fab2b82406beff859be8e82",
      "to": "0xa444f92734be29e71b8a4762595c9733ab2c9c47",
      "contractAddress": null
    },
    {
      "status": "0x1",
      "cumulativeGasUsed": "0x47bd0",
      "logs": [
        {
          "address": "0xa5c2889f0e3da388df3bf87f8f0b8e56bb863c41",
          "topics": [
            "0xbe4864a8e820971c0247f5992e2da559595f7bf076a21cb5928d443d2a13b674"
          ],
          "data": "0x00000000000000000000000000000000000000000000000000000000000000200000000000000000000000000000000000000000000000000000000000000002000000000000000000000000000000000000000000000000000000000000004000000000000000000000000000000000000000000000000000000000000000e0000000000000000000000000000000000000000000000000000000000000762f00000000000000000000000000000000000000000000000000000000000000010000000000000000000000000000000000000000000000000000000000000060000000000000000000000000000000000000000000000000000000000000001600030100110100000000000000000000000000030d4000000000000000000000000000000000000000000000000000000000000000000000000000000000762f0000000000000000000000000000000000000000000000000000000000000002000000000000000000000000000000000000000000000000000000000000006000000000000000000000000000000000000000000000000000000000000000160003010011010000000000000000000000000003d09000000000000000000000",
          "blockHash": "0x8ca038ce89715b028d52798640ed6679446989aaf73db39e25ab2c810858e7b7",
          "blockNumber": "0xd01fa1",
          "blockTimestamp": "0x68c3e4cd",
          "transactionHash": "0xd0b77ab4959baef9212fa6b72637198e2211eb029f84b9d26030c9841d781429",
          "transactionIndex": "0x3",
          "logIndex": "0x3",
          "removed": false
        }
      ],
      "logsBloom": "0x00000000000000400000000000000000000000000000000000000000000000000000000000000000000000000000000000000000000000000000400000000000000000000000000000000000000000000000000000040000000000000000000000000000000000000000000000000000000000000000000000000000000000000000000000000000000000000000000000000000000000000000000000080000000000000000000000000000000000000000000000000000000000000000000000000000000000000000000002200000000000000000000000000000000000000000000000000000000000000000000000000000000000000000000000000000",
      "type": "0x2",
      "transactionHash": "0xd0b77ab4959baef9212fa6b72637198e2211eb029f84b9d26030c9841d781429",
      "transactionIndex": "0x3",
      "blockHash": "0x8ca038ce89715b028d52798640ed6679446989aaf73db39e25ab2c810858e7b7",
      "blockNumber": "0xd01fa1",
      "gasUsed": "0x15722",
      "effectiveGasPrice": "0x1ba0bd5f",
      "from": "0x1d434906aa520e592fab2b82406beff859be8e82",
      "to": "0xa5c2889f0e3da388df3bf87f8f0b8e56bb863c41",
      "contractAddress": null
    },
    {
      "status": "0x1",
      "cumulativeGasUsed": "0x5d2f2",
      "logs": [
        {
          "address": "0xc6563942d1ae02dd6e450847de3753011ca3eee1",
          "topics": [
            "0xbe4864a8e820971c0247f5992e2da559595f7bf076a21cb5928d443d2a13b674"
          ],
          "data": "0x00000000000000000000000000000000000000000000000000000000000000200000000000000000000000000000000000000000000000000000000000000002000000000000000000000000000000000000000000000000000000000000004000000000000000000000000000000000000000000000000000000000000000e0000000000000000000000000000000000000000000000000000000000000762f00000000000000000000000000000000000000000000000000000000000000010000000000000000000000000000000000000000000000000000000000000060000000000000000000000000000000000000000000000000000000000000001600030100110100000000000000000000000000030d4000000000000000000000000000000000000000000000000000000000000000000000000000000000762f0000000000000000000000000000000000000000000000000000000000000002000000000000000000000000000000000000000000000000000000000000006000000000000000000000000000000000000000000000000000000000000000160003010011010000000000000000000000000003d09000000000000000000000",
          "blockHash": "0x8ca038ce89715b028d52798640ed6679446989aaf73db39e25ab2c810858e7b7",
          "blockNumber": "0xd01fa1",
          "blockTimestamp": "0x68c3e4cd",
          "transactionHash": "0x2c7c9feff744205ee8e3a85b964af48990da64a503613966c4d49e3cfa6aac84",
          "transactionIndex": "0x4",
          "logIndex": "0x4",
          "removed": false
        }
      ],
      "logsBloom": "0x000000000000000000000000000000000000000000000000000000000000000000000000010000000000000000000000000000000000000000004000000000000000000000000000000000000000002000000000000000000000000000000000000000000000000000000000000000000000000000000000000000000000000000000000000000000000000000000000000000000000000000000000000a0000000000000000000000000000000000000000000000000000000000000000000000000000000000000000000002000000000000000000000000000000000000000000000000000000000000000000000000000000000000000000000000000000",
      "type": "0x2",
      "transactionHash": "0x2c7c9feff744205ee8e3a85b964af48990da64a503613966c4d49e3cfa6aac84",
      "transactionIndex": "0x4",
      "blockHash": "0x8ca038ce89715b028d52798640ed6679446989aaf73db39e25ab2c810858e7b7",
      "blockNumber": "0xd01fa1",
      "gasUsed": "0x15722",
      "effectiveGasPrice": "0x1ba0bd5f",
      "from": "0x1d434906aa520e592fab2b82406beff859be8e82",
      "to": "0xc6563942d1ae02dd6e450847de3753011ca3eee1",
      "contractAddress": null
    },
    {
      "status": "0x1",
      "cumulativeGasUsed": "0x6a9d5",
      "logs": [
        {
          "address": "0x65c042454005de49106a6b0129f4af56939457da",
          "topics": [
            "0x238399d427b947898edb290f5ff0f9109849b1c3ba196a42e35f00c50a54b98b"
          ],
          "data": "0x000000000000000000000000000000000000000000000000000000000000762f000000000000000000000000bc54454844815ffd8229d1f617efa554d2d68f63",
          "blockHash": "0x8ca038ce89715b028d52798640ed6679446989aaf73db39e25ab2c810858e7b7",
          "blockNumber": "0xd01fa1",
          "blockTimestamp": "0x68c3e4cd",
          "transactionHash": "0xc171b0556c1323c227f9323ea31ef6f426bad50b91edb0386c4398df2c459995",
          "transactionIndex": "0x5",
          "logIndex": "0x5",
          "removed": false
        }
      ],
      "logsBloom": "0x00000000000000000000000000000000000000000000000000000000000000000000000000000000000000000000000000000000000000008801000000000000000000000000000000000000000000000000000000000000000000000000000000000000000000000000000000000000000000000000000000000000000000000000000000000000000000000000000000000000000000000000000000000000000000000000000000000000000000000000000000000000000002000000000000000000000000000000000000000000000000000000000000040000000000000000000000000000000000000000000000000000000004000000000000000000",
      "type": "0x2",
      "transactionHash": "0xc171b0556c1323c227f9323ea31ef6f426bad50b91edb0386c4398df2c459995",
      "transactionIndex": "0x5",
      "blockHash": "0x8ca038ce89715b028d52798640ed6679446989aaf73db39e25ab2c810858e7b7",
      "blockNumber": "0xd01fa1",
      "gasUsed": "0xd6e3",
      "effectiveGasPrice": "0x1ba0bd5f",
      "from": "0x1d434906aa520e592fab2b82406beff859be8e82",
      "to": "0x65c042454005de49106a6b0129f4af56939457da",
      "contractAddress": null
    },
    {
      "status": "0x1",
      "cumulativeGasUsed": "0x780b8",
      "logs": [
        {
          "address": "0xe1851f6ac161d1911104b19918fb866ef6fee577",
          "topics": [
            "0x238399d427b947898edb290f5ff0f9109849b1c3ba196a42e35f00c50a54b98b"
          ],
          "data": "0x000000000000000000000000000000000000000000000000000000000000762f0000000000000000000000006ff6b416b574ebc51c8dddf0b32b82af3bd08888",
          "blockHash": "0x8ca038ce89715b028d52798640ed6679446989aaf73db39e25ab2c810858e7b7",
          "blockNumber": "0xd01fa1",
          "blockTimestamp": "0x68c3e4cd",
          "transactionHash": "0xb5adbba12368920686a0e87435ef0a7061e6ea2a85f2ad94a959b79eee34b3a3",
          "transactionIndex": "0x6",
          "logIndex": "0x6",
          "removed": false
        }
      ],
      "logsBloom": "0x04000000000000000000000000000000000000000000000000000000000000000000000000000000000000000000000000000000000000000800000000000000000000000004000000000000000000000000000000000000000000000000000000000000000000000000000000000000000000000000000000000000000000000000000000000000000000000000000000000000000000000000000000000000000000000000000000000000000000000000000000000000000002000000000000000000000000000000000000000000000000000000000000040000000000000000000000000000000000000000000040000000000000000000000000000000",
      "type": "0x2",
      "transactionHash": "0xb5adbba12368920686a0e87435ef0a7061e6ea2a85f2ad94a959b79eee34b3a3",
      "transactionIndex": "0x6",
      "blockHash": "0x8ca038ce89715b028d52798640ed6679446989aaf73db39e25ab2c810858e7b7",
      "blockNumber": "0xd01fa1",
      "gasUsed": "0xd6e3",
      "effectiveGasPrice": "0x1ba0bd5f",
      "from": "0x1d434906aa520e592fab2b82406beff859be8e82",
      "to": "0xe1851f6ac161d1911104b19918fb866ef6fee577",
      "contractAddress": null
    },
    {
      "status": "0x1",
      "cumulativeGasUsed": "0x8579b",
      "logs": [
        {
          "address": "0xb7583b07c12286bb9026a7053b0c44e8f5fa8624",
          "topics": [
            "0x238399d427b947898edb290f5ff0f9109849b1c3ba196a42e35f00c50a54b98b"
          ],
          "data": "0x000000000000000000000000000000000000000000000000000000000000762f00000000000000000000000016cea656b1ad3caaef01894794373e48b77faaef",
          "blockHash": "0x8ca038ce89715b028d52798640ed6679446989aaf73db39e25ab2c810858e7b7",
          "blockNumber": "0xd01fa1",
          "blockTimestamp": "0x68c3e4cd",
          "transactionHash": "0x0bd410aa91e9e566e03a2b40787684a1e719c6bac02f65f3c222910c8aa0bdb9",
          "transactionIndex": "0x7",
          "logIndex": "0x7",
          "removed": false
        }
      ],
      "logsBloom": "0x00000000000000000000000000000000000000000000000000000000000000000000000000000000000000000000000000000000000000000800000000000000000000000000000000000000000000000000000000000000000000000000000000000000400000000000000000000000000000000000000000000000000000000000000000000000000000000000000000000000000000000000000000000000000000000000000000000000000000000000000000000000000002000040000000000000000000000000000000000000000000000000000000040000000000001000000000000000000000000000000000000000000000000000000000000000",
      "type": "0x2",
      "transactionHash": "0x0bd410aa91e9e566e03a2b40787684a1e719c6bac02f65f3c222910c8aa0bdb9",
      "transactionIndex": "0x7",
      "blockHash": "0x8ca038ce89715b028d52798640ed6679446989aaf73db39e25ab2c810858e7b7",
      "blockNumber": "0xd01fa1",
      "gasUsed": "0xd6e3",
      "effectiveGasPrice": "0x1ba0bd5f",
      "from": "0x1d434906aa520e592fab2b82406beff859be8e82",
      "to": "0xb7583b07c12286bb9026a7053b0c44e8f5fa8624",
      "contractAddress": null
    },
    {
      "status": "0x1",
      "cumulativeGasUsed": "0x92e7e",
      "logs": [
        {
          "address": "0xa444f92734be29e71b8a4762595c9733ab2c9c47",
          "topics": [
            "0x238399d427b947898edb290f5ff0f9109849b1c3ba196a42e35f00c50a54b98b"
          ],
          "data": "0x000000000000000000000000000000000000000000000000000000000000762f0000000000000000000000001c3fe45704d8b5b09c145356a6dfd570ab264cdb",
          "blockHash": "0x8ca038ce89715b028d52798640ed6679446989aaf73db39e25ab2c810858e7b7",
          "blockNumber": "0xd01fa1",
          "blockTimestamp": "0x68c3e4cd",
          "transactionHash": "0x683d6d3635aa27f79f0ff695832af205ab9241b1b9c9bcbf9146acaa5ec11b7d",
          "transactionIndex": "0x8",
          "logIndex": "0x8",
          "removed": false
        }
      ],
      "logsBloom": "0x00000000000000000000000000000000000000000000000000000000000000000000000000000000000000000000000000000000000000000800000000000000000000000000000000000000000000000000000000000000000000000000000000000000000000000000000000000000000000000000000000000000000000000000000000000000000000000000000000000000000000000000000000000000000000000000000000000000000000000000000000000000000002000000000000000000000000000000000000000000000000000000000000040000200000000000000000000000000000000000000000100000080000000000000000000000",
      "type": "0x2",
      "transactionHash": "0x683d6d3635aa27f79f0ff695832af205ab9241b1b9c9bcbf9146acaa5ec11b7d",
      "transactionIndex": "0x8",
      "blockHash": "0x8ca038ce89715b028d52798640ed6679446989aaf73db39e25ab2c810858e7b7",
      "blockNumber": "0xd01fa1",
      "gasUsed": "0xd6e3",
      "effectiveGasPrice": "0x1ba0bd5f",
      "from": "0x1d434906aa520e592fab2b82406beff859be8e82",
      "to": "0xa444f92734be29e71b8a4762595c9733ab2c9c47",
      "contractAddress": null
    },
    {
      "status": "0x1",
      "cumulativeGasUsed": "0xa0561",
      "logs": [
        {
          "address": "0xa5c2889f0e3da388df3bf87f8f0b8e56bb863c41",
          "topics": [
            "0x238399d427b947898edb290f5ff0f9109849b1c3ba196a42e35f00c50a54b98b"
          ],
          "data": "0x000000000000000000000000000000000000000000000000000000000000762f000000000000000000000000fd34516a516c4f76a5d5b3f9da562f5731ac42af",
          "blockHash": "0x8ca038ce89715b028d52798640ed6679446989aaf73db39e25ab2c810858e7b7",
          "blockNumber": "0xd01fa1",
          "blockTimestamp": "0x68c3e4cd",
          "transactionHash": "0x635fa466fe432dadb4d49de754dc578a59ec95be0b028554c9db688ce6ef4032",
          "transactionIndex": "0x9",
          "logIndex": "0x9",
          "removed": false
        }
      ],
      "logsBloom": "0x00000000000000400000000000000000000000000000000000000000000000000000000000000000000000000000000000000000000000000800000000000000000000000000000000000000000000000000000000040000000000000000000000000000000000000000000000000000000000000000000000000000000000000000000000000000000000000000000000000000000000000000000000000000000000000000000000000000000000000000000000000000000002000000000000000000000000000000000000200000000000000000000000040000000000000000000000000000000000000000000000000000000000000000000000000000",
      "type": "0x2",
      "transactionHash": "0x635fa466fe432dadb4d49de754dc578a59ec95be0b028554c9db688ce6ef4032",
      "transactionIndex": "0x9",
      "blockHash": "0x8ca038ce89715b028d52798640ed6679446989aaf73db39e25ab2c810858e7b7",
      "blockNumber": "0xd01fa1",
      "gasUsed": "0xd6e3",
      "effectiveGasPrice": "0x1ba0bd5f",
      "from": "0x1d434906aa520e592fab2b82406beff859be8e82",
      "to": "0xa5c2889f0e3da388df3bf87f8f0b8e56bb863c41",
      "contractAddress": null
    },
    {
      "status": "0x1",
      "cumulativeGasUsed": "0x199b0",
      "logs": [
        {
          "address": "0xc6563942d1ae02dd6e450847de3753011ca3eee1",
          "topics": [
            "0x238399d427b947898edb290f5ff0f9109849b1c3ba196a42e35f00c50a54b98b"
          ],
          "data": "0x000000000000000000000000000000000000000000000000000000000000762f000000000000000000000000c149f946e3ee35766a7250b6ff619d9cf198ebf0",
          "blockHash": "0x7d284b4ef72e510134e789c69ba0d5284ce6ad5efce0f81f6147cedf024b636f",
          "blockNumber": "0xd01fe1",
          "blockTimestamp": "0x68c3e50c",
          "transactionHash": "0xa52a17341101282855155c20fbb71f5a6a20d11882a6eb4e60b7fa34e62aa01e",
          "transactionIndex": "0x1",
          "logIndex": "0x0",
          "removed": false
        }
      ],
      "logsBloom": "0x00000000000000000000000000000000000000000000000000000000000000000000000001000000000000000000000000000000000000000800000000000000000000000000000000000000000000200000000000000000000000000000000000000000000000000000000000000000000000000000000000000000000000000000000000000000000000000000000000000000000000000000000000020000000000000000000000000000000000000000000000000000000002000000000000000000000000000000000000000000000000000000000000040000000000000000000000000000000000000000000000000000000000000000000000000000",
      "type": "0x2",
      "transactionHash": "0xa52a17341101282855155c20fbb71f5a6a20d11882a6eb4e60b7fa34e62aa01e",
      "transactionIndex": "0x1",
      "blockHash": "0x7d284b4ef72e510134e789c69ba0d5284ce6ad5efce0f81f6147cedf024b636f",
      "blockNumber": "0xd01fe1",
      "gasUsed": "0xd6e3",
      "effectiveGasPrice": "0x176fe85a",
      "from": "0x1d434906aa520e592fab2b82406beff859be8e82",
      "to": "0xc6563942d1ae02dd6e450847de3753011ca3eee1",
      "contractAddress": null
    },
    {
      "status": "0x1",
      "cumulativeGasUsed": "0x27b15",
      "logs": [
        {
          "address": "0xfd76d9cb0bac839725ab79127e7411fe71b1e3ca",
          "topics": [
            "0x82118522aa536ac0e96cc5c689407ae42b89d592aa133890a01f1509842f5081"
          ],
          "data": "0x00000000000000000000000065c042454005de49106a6b0129f4af56939457da000000000000000000000000000000000000000000000000000000000000762f0000000000000000000000000000000000000000000000000000000000000060000000000000000000000000000000000000000000000000000000000000000000000000000000000000000000000000000000000000000000000000000000030000000000000000000000000000000000000000000000000000000000000000000000000000000000000000000000000000000000000000000000000000000000000000000000000000000000000000000000000000000000000000000000c000000000000000000000000000000000000000000000000000000000000001400000000000000000000000000000000000000000000000000000000000000003000000000000000000000000082a08f524c043ec7f6b9a42bae79a1990d8499a000000000000000000000000bb83ecf372cbb6daa629ea9a9a53bec6d601f229000000000000000000000000c097ab8cd7b053326dfe9fb3e3a31a0cce3b526f0000000000000000000000000000000000000000000000000000000000000000",
          "blockHash": "0xd4b846c7d75dd74c67634d9372eabd44a14cd50aa4ff3ad3b6f6e5598e85d1f5",
          "blockNumber": "0xd01fe4",
          "blockTimestamp": "0x68c3e50e",
          "transactionHash": "0x2530233d1bce90f9fa601f58286ad8531c3ea2779df0b79b8928c3087c88ecba",
          "transactionIndex": "0x0",
          "logIndex": "0x0",
          "removed": false
        }
      ],
      "logsBloom": "0x00000000000000000000000000000000000000000000000000000000000000000000000000000000000000000000000000000000000000000000000000000000000000000000000000000000000004000000000000000000002000000000000000000000000000010000000000000000000000000000000000000000000000000000000000000000000000000000000000000000000000000000000000000000000000000000000000000002000000000000000000000000000000000000000000000000000000000000000000000000000000000000000800000000000000000000000000000000000000000000000000000000000000000000000000000010",
      "type": "0x2",
      "transactionHash": "0x2530233d1bce90f9fa601f58286ad8531c3ea2779df0b79b8928c3087c88ecba",
      "transactionIndex": "0x0",
      "blockHash": "0xd4b846c7d75dd74c67634d9372eabd44a14cd50aa4ff3ad3b6f6e5598e85d1f5",
      "blockNumber": "0xd01fe4",
      "gasUsed": "0x27b15",
      "effectiveGasPrice": "0x1751000a",
      "from": "0x1d434906aa520e592fab2b82406beff859be8e82",
      "to": "0x3a73033c0b1407574c76bdbac67f126f6b4a9aa9",
      "contractAddress": null
    },
    {
      "status": "0x1",
      "cumulativeGasUsed": "0xd78b6",
      "logs": [
        {
          "address": "0x7cacbe439ead55fa1c22790330b12835c6884a91",
          "topics": [
            "0x82118522aa536ac0e96cc5c689407ae42b89d592aa133890a01f1509842f5081"
          ],
          "data": "0x00000000000000000000000065c042454005de49106a6b0129f4af56939457da000000000000000000000000000000000000000000000000000000000000762f0000000000000000000000000000000000000000000000000000000000000060000000000000000000000000000000000000000000000000000000000000000000000000000000000000000000000000000000000000000000000000000000030000000000000000000000000000000000000000000000000000000000000000000000000000000000000000000000000000000000000000000000000000000000000000000000000000000000000000000000000000000000000000000000c000000000000000000000000000000000000000000000000000000000000001400000000000000000000000000000000000000000000000000000000000000003000000000000000000000000082a08f524c043ec7f6b9a42bae79a1990d8499a000000000000000000000000bb83ecf372cbb6daa629ea9a9a53bec6d601f229000000000000000000000000c097ab8cd7b053326dfe9fb3e3a31a0cce3b526f0000000000000000000000000000000000000000000000000000000000000000",
          "blockHash": "0xcd762eb67a7986c4e608677b6234c0a5468d3b916138b7d377aa7d3a44850aed",
          "blockNumber": "0xd01fe7",
          "blockTimestamp": "0x68c3e511",
          "transactionHash": "0x585db6e0cc097c43f02acb98c94187311cf412867cb5fb65cd33924fa81b547e",
          "transactionIndex": "0x3",
          "logIndex": "0x5",
          "removed": false
        }
      ],
      "logsBloom": "0x00000000000000000000000000000000000000000000000000000000000000000000000000000000000000000000000000000000000000000000000000000000000000000000000000000000000000000000000000000000002000000000000000000000000000000000000000000000000000000000000000000000000000000000000000000000000000000000000000000000000000000000000000040000000000000000000000000002000000000000000000000000000000000000000000000000000000000000000000000000000000000000000000000000000000000000000000000400000000000000000000000000000000000000000000000018",
      "type": "0x2",
      "transactionHash": "0x585db6e0cc097c43f02acb98c94187311cf412867cb5fb65cd33924fa81b547e",
      "transactionIndex": "0x3",
      "blockHash": "0xcd762eb67a7986c4e608677b6234c0a5468d3b916138b7d377aa7d3a44850aed",
      "blockNumber": "0xd01fe7",
      "gasUsed": "0x27a1f",
      "effectiveGasPrice": "0x146ddb3c",
      "from": "0x1d434906aa520e592fab2b82406beff859be8e82",
      "to": "0x3a73033c0b1407574c76bdbac67f126f6b4a9aa9",
      "contractAddress": null
    },
    {
      "status": "0x1",
      "cumulativeGasUsed": "0x5973c",
      "logs": [
        {
          "address": "0xfd76d9cb0bac839725ab79127e7411fe71b1e3ca",
          "topics": [
            "0x82118522aa536ac0e96cc5c689407ae42b89d592aa133890a01f1509842f5081"
          ],
          "data": "0x000000000000000000000000e1851f6ac161d1911104b19918fb866ef6fee577000000000000000000000000000000000000000000000000000000000000762f0000000000000000000000000000000000000000000000000000000000000060000000000000000000000000000000000000000000000000000000000000000000000000000000000000000000000000000000000000000000000000000000030000000000000000000000000000000000000000000000000000000000000000000000000000000000000000000000000000000000000000000000000000000000000000000000000000000000000000000000000000000000000000000000c000000000000000000000000000000000000000000000000000000000000001400000000000000000000000000000000000000000000000000000000000000003000000000000000000000000082a08f524c043ec7f6b9a42bae79a1990d8499a000000000000000000000000bb83ecf372cbb6daa629ea9a9a53bec6d601f229000000000000000000000000c097ab8cd7b053326dfe9fb3e3a31a0cce3b526f0000000000000000000000000000000000000000000000000000000000000000",
          "blockHash": "0x52a2abad48c0ac01ef71504ffa2c05f0e85fc68a9a631dac9c6ef13bebba7ef5",
          "blockNumber": "0xd01fe9",
          "blockTimestamp": "0x68c3e513",
          "transactionHash": "0xdb42ccf6adde7ff1d774ee761f767bb6f332dd9ab27987320ee4af78d11e118c",
          "transactionIndex": "0x1",
          "logIndex": "0x5",
          "removed": false
        }
      ],
      "logsBloom": "0x00000000000000000000000000000000000000000000000000000000000000000000000000000000000000000000000000000000000000000000000000000000000000000000000000000000000004000000000000000000002000000000000000000000000000010000000000000000000000000000000000000000000000000000000000000000000000000000000000000000000000000000000000000000000000000000000000000002000000000000000000000000000000000000000000000000000000000000000000000000000000000000000800000000000000000000000000000000000000000000000000000000000000000000000000000010",
      "type": "0x2",
      "transactionHash": "0xdb42ccf6adde7ff1d774ee761f767bb6f332dd9ab27987320ee4af78d11e118c",
      "transactionIndex": "0x1",
      "blockHash": "0x52a2abad48c0ac01ef71504ffa2c05f0e85fc68a9a631dac9c6ef13bebba7ef5",
      "blockNumber": "0xd01fe9",
      "gasUsed": "0x27b15",
      "effectiveGasPrice": "0x13dc7023",
      "from": "0x1d434906aa520e592fab2b82406beff859be8e82",
      "to": "0x3a73033c0b1407574c76bdbac67f126f6b4a9aa9",
      "contractAddress": null
    },
    {
      "status": "0x1",
      "cumulativeGasUsed": "0xc8aaa",
      "logs": [
        {
          "address": "0x7cacbe439ead55fa1c22790330b12835c6884a91",
          "topics": [
            "0x82118522aa536ac0e96cc5c689407ae42b89d592aa133890a01f1509842f5081"
          ],
          "data": "0x000000000000000000000000e1851f6ac161d1911104b19918fb866ef6fee577000000000000000000000000000000000000000000000000000000000000762f0000000000000000000000000000000000000000000000000000000000000060000000000000000000000000000000000000000000000000000000000000000000000000000000000000000000000000000000000000000000000000000000030000000000000000000000000000000000000000000000000000000000000000000000000000000000000000000000000000000000000000000000000000000000000000000000000000000000000000000000000000000000000000000000c000000000000000000000000000000000000000000000000000000000000001400000000000000000000000000000000000000000000000000000000000000003000000000000000000000000082a08f524c043ec7f6b9a42bae79a1990d8499a000000000000000000000000bb83ecf372cbb6daa629ea9a9a53bec6d601f229000000000000000000000000c097ab8cd7b053326dfe9fb3e3a31a0cce3b526f0000000000000000000000000000000000000000000000000000000000000000",
          "blockHash": "0x6ab8364c0d4f89976227969fc76539b26fe1a4fa60b69873b80059aec1608673",
          "blockNumber": "0xd01feb",
          "blockTimestamp": "0x68c3e515",
          "transactionHash": "0x85500ce15ffebc1fb0fabf8c8df491417e65c2936b389a141fb7b6fa4d57a269",
          "transactionIndex": "0x8",
          "logIndex": "0x4",
          "removed": false
        }
      ],
      "logsBloom": "0x00000000000000000000000000000000000000000000000000000000000000000000000000000000000000000000000000000000000000000000000000000000000000000000000000000000000000000000000000000000002000000000000000000000000000000000000000000000000000000000000000000000000000000000000000000000000000000000000000000000000000000000000000040000000000000000000000000002000000000000000000000000000000000000000000000000000000000000000000000000000000000000000000000000000000000000000000000400000000000000000000000000000000000000000000000018",
      "type": "0x2",
      "transactionHash": "0x85500ce15ffebc1fb0fabf8c8df491417e65c2936b389a141fb7b6fa4d57a269",
      "transactionIndex": "0x8",
      "blockHash": "0x6ab8364c0d4f89976227969fc76539b26fe1a4fa60b69873b80059aec1608673",
      "blockNumber": "0xd01feb",
      "gasUsed": "0x27a1f",
      "effectiveGasPrice": "0x13b377d1",
      "from": "0x1d434906aa520e592fab2b82406beff859be8e82",
      "to": "0x3a73033c0b1407574c76bdbac67f126f6b4a9aa9",
      "contractAddress": null
    },
    {
      "status": "0x1",
      "cumulativeGasUsed": "0x157c29",
      "logs": [
        {
          "address": "0xfd76d9cb0bac839725ab79127e7411fe71b1e3ca",
          "topics": [
            "0x82118522aa536ac0e96cc5c689407ae42b89d592aa133890a01f1509842f5081"
          ],
          "data": "0x000000000000000000000000b7583b07c12286bb9026a7053b0c44e8f5fa8624000000000000000000000000000000000000000000000000000000000000762f0000000000000000000000000000000000000000000000000000000000000060000000000000000000000000000000000000000000000000000000000000000000000000000000000000000000000000000000000000000000000000000000030000000000000000000000000000000000000000000000000000000000000000000000000000000000000000000000000000000000000000000000000000000000000000000000000000000000000000000000000000000000000000000000c000000000000000000000000000000000000000000000000000000000000001400000000000000000000000000000000000000000000000000000000000000003000000000000000000000000082a08f524c043ec7f6b9a42bae79a1990d8499a000000000000000000000000bb83ecf372cbb6daa629ea9a9a53bec6d601f229000000000000000000000000c097ab8cd7b053326dfe9fb3e3a31a0cce3b526f0000000000000000000000000000000000000000000000000000000000000000",
          "blockHash": "0x47b9b2a425a25613a8a6f9c04db3cdc3978947acc613dcb2248a6e78eda40859",
          "blockNumber": "0xd01fed",
          "blockTimestamp": "0x68c3e517",
          "transactionHash": "0x580b8ae09eb1fc441bdd1847a7367e5bac158164f6076e715cc77eff75abb803",
          "transactionIndex": "0x2",
          "logIndex": "0x27",
          "removed": false
        }
      ],
      "logsBloom": "0x00000000000000000000000000000000000000000000000000000000000000000000000000000000000000000000000000000000000000000000000000000000000000000000000000000000000004000000000000000000002000000000000000000000000000010000000000000000000000000000000000000000000000000000000000000000000000000000000000000000000000000000000000000000000000000000000000000002000000000000000000000000000000000000000000000000000000000000000000000000000000000000000800000000000000000000000000000000000000000000000000000000000000000000000000000010",
      "type": "0x2",
      "transactionHash": "0x580b8ae09eb1fc441bdd1847a7367e5bac158164f6076e715cc77eff75abb803",
      "transactionIndex": "0x2",
      "blockHash": "0x47b9b2a425a25613a8a6f9c04db3cdc3978947acc613dcb2248a6e78eda40859",
      "blockNumber": "0xd01fed",
      "gasUsed": "0x27b15",
      "effectiveGasPrice": "0x13f504c5",
      "from": "0x1d434906aa520e592fab2b82406beff859be8e82",
      "to": "0x3a73033c0b1407574c76bdbac67f126f6b4a9aa9",
      "contractAddress": null
    },
    {
      "status": "0x1",
      "cumulativeGasUsed": "0xf0c4d",
      "logs": [
        {
          "address": "0x7cacbe439ead55fa1c22790330b12835c6884a91",
          "topics": [
            "0x82118522aa536ac0e96cc5c689407ae42b89d592aa133890a01f1509842f5081"
          ],
          "data": "0x000000000000000000000000b7583b07c12286bb9026a7053b0c44e8f5fa8624000000000000000000000000000000000000000000000000000000000000762f0000000000000000000000000000000000000000000000000000000000000060000000000000000000000000000000000000000000000000000000000000000000000000000000000000000000000000000000000000000000000000000000030000000000000000000000000000000000000000000000000000000000000000000000000000000000000000000000000000000000000000000000000000000000000000000000000000000000000000000000000000000000000000000000c000000000000000000000000000000000000000000000000000000000000001400000000000000000000000000000000000000000000000000000000000000003000000000000000000000000082a08f524c043ec7f6b9a42bae79a1990d8499a000000000000000000000000bb83ecf372cbb6daa629ea9a9a53bec6d601f229000000000000000000000000c097ab8cd7b053326dfe9fb3e3a31a0cce3b526f0000000000000000000000000000000000000000000000000000000000000000",
          "blockHash": "0x9c601870d90aa5d3d601199b390783b73a3c21c3f600a52c0a20f07fb39cb14a",
          "blockNumber": "0xd01fee",
          "blockTimestamp": "0x68c3e518",
          "transactionHash": "0xfa0c1aa024d119879a532e4a94c853ec22576b1b2861c18b05734d1a208d1c3e",
          "transactionIndex": "0x2",
          "logIndex": "0x1e",
          "removed": false
        }
      ],
      "logsBloom": "0x00000000000000000000000000000000000000000000000000000000000000000000000000000000000000000000000000000000000000000000000000000000000000000000000000000000000000000000000000000000002000000000000000000000000000000000000000000000000000000000000000000000000000000000000000000000000000000000000000000000000000000000000000040000000000000000000000000002000000000000000000000000000000000000000000000000000000000000000000000000000000000000000000000000000000000000000000000400000000000000000000000000000000000000000000000018",
      "type": "0x2",
      "transactionHash": "0xfa0c1aa024d119879a532e4a94c853ec22576b1b2861c18b05734d1a208d1c3e",
      "transactionIndex": "0x2",
      "blockHash": "0x9c601870d90aa5d3d601199b390783b73a3c21c3f600a52c0a20f07fb39cb14a",
      "blockNumber": "0xd01fee",
      "gasUsed": "0x27a1f",
      "effectiveGasPrice": "0x14ecab6f",
      "from": "0x1d434906aa520e592fab2b82406beff859be8e82",
      "to": "0x3a73033c0b1407574c76bdbac67f126f6b4a9aa9",
      "contractAddress": null
    },
    {
      "status": "0x1",
      "cumulativeGasUsed": "0x70dc0",
      "logs": [
        {
          "address": "0xfd76d9cb0bac839725ab79127e7411fe71b1e3ca",
          "topics": [
            "0x82118522aa536ac0e96cc5c689407ae42b89d592aa133890a01f1509842f5081"
          ],
          "data": "0x000000000000000000000000a444f92734be29e71b8a4762595c9733ab2c9c47000000000000000000000000000000000000000000000000000000000000762f0000000000000000000000000000000000000000000000000000000000000060000000000000000000000000000000000000000000000000000000000000000000000000000000000000000000000000000000000000000000000000000000030000000000000000000000000000000000000000000000000000000000000000000000000000000000000000000000000000000000000000000000000000000000000000000000000000000000000000000000000000000000000000000000c000000000000000000000000000000000000000000000000000000000000001400000000000000000000000000000000000000000000000000000000000000003000000000000000000000000082a08f524c043ec7f6b9a42bae79a1990d8499a000000000000000000000000bb83ecf372cbb6daa629ea9a9a53bec6d601f229000000000000000000000000c097ab8cd7b053326dfe9fb3e3a31a0cce3b526f0000000000000000000000000000000000000000000000000000000000000000",
          "blockHash": "0x9bc60fcc538a969477f489b0f3eb54daa1e12d358e99b4e144a3ae081b176c18",
          "blockNumber": "0xd01fef",
          "blockTimestamp": "0x68c3e519",
          "transactionHash": "0x38f96b7462e65e3e41fcfb86e9a05e20fbdce48733a2afe09526a72eb363db50",
          "transactionIndex": "0x2",
          "logIndex": "0x6",
          "removed": false
        }
      ],
      "logsBloom": "0x00000000000000000000000000000000000000000000000000000000000000000000000000000000000000000000000000000000000000000000000000000000000000000000000000000000000004000000000000000000002000000000000000000000000000010000000000000000000000000000000000000000000000000000000000000000000000000000000000000000000000000000000000000000000000000000000000000002000000000000000000000000000000000000000000000000000000000000000000000000000000000000000800000000000000000000000000000000000000000000000000000000000000000000000000000010",
      "type": "0x2",
      "transactionHash": "0x38f96b7462e65e3e41fcfb86e9a05e20fbdce48733a2afe09526a72eb363db50",
      "transactionIndex": "0x2",
      "blockHash": "0x9bc60fcc538a969477f489b0f3eb54daa1e12d358e99b4e144a3ae081b176c18",
      "blockNumber": "0xd01fef",
      "gasUsed": "0x27b15",
      "effectiveGasPrice": "0x14e3dc20",
      "from": "0x1d434906aa520e592fab2b82406beff859be8e82",
      "to": "0x3a73033c0b1407574c76bdbac67f126f6b4a9aa9",
      "contractAddress": null
    },
    {
      "status": "0x1",
      "cumulativeGasUsed": "0x850fa",
      "logs": [
        {
          "address": "0x7cacbe439ead55fa1c22790330b12835c6884a91",
          "topics": [
            "0x82118522aa536ac0e96cc5c689407ae42b89d592aa133890a01f1509842f5081"
          ],
          "data": "0x000000000000000000000000a444f92734be29e71b8a4762595c9733ab2c9c47000000000000000000000000000000000000000000000000000000000000762f0000000000000000000000000000000000000000000000000000000000000060000000000000000000000000000000000000000000000000000000000000000000000000000000000000000000000000000000000000000000000000000000030000000000000000000000000000000000000000000000000000000000000000000000000000000000000000000000000000000000000000000000000000000000000000000000000000000000000000000000000000000000000000000000c000000000000000000000000000000000000000000000000000000000000001400000000000000000000000000000000000000000000000000000000000000003000000000000000000000000082a08f524c043ec7f6b9a42bae79a1990d8499a000000000000000000000000bb83ecf372cbb6daa629ea9a9a53bec6d601f229000000000000000000000000c097ab8cd7b053326dfe9fb3e3a31a0cce3b526f0000000000000000000000000000000000000000000000000000000000000000",
          "blockHash": "0xb4e6d28c38cd3410b782bb51937c9ff0b3c8c637d25c5c23a81238d61cf25961",
          "blockNumber": "0xd01ff2",
          "blockTimestamp": "0x68c3e51c",
          "transactionHash": "0x2dc1f915896259e3ed753cd14955b9b62815f9d93c624db7f5d32b4a38119cdf",
          "transactionIndex": "0x2",
          "logIndex": "0x6",
          "removed": false
        }
      ],
      "logsBloom": "0x00000000000000000000000000000000000000000000000000000000000000000000000000000000000000000000000000000000000000000000000000000000000000000000000000000000000000000000000000000000002000000000000000000000000000000000000000000000000000000000000000000000000000000000000000000000000000000000000000000000000000000000000000040000000000000000000000000002000000000000000000000000000000000000000000000000000000000000000000000000000000000000000000000000000000000000000000000400000000000000000000000000000000000000000000000018",
      "type": "0x2",
      "transactionHash": "0x2dc1f915896259e3ed753cd14955b9b62815f9d93c624db7f5d32b4a38119cdf",
      "transactionIndex": "0x2",
      "blockHash": "0xb4e6d28c38cd3410b782bb51937c9ff0b3c8c637d25c5c23a81238d61cf25961",
      "blockNumber": "0xd01ff2",
      "gasUsed": "0x27a1f",
      "effectiveGasPrice": "0x15bc42ac",
      "from": "0x1d434906aa520e592fab2b82406beff859be8e82",
      "to": "0x3a73033c0b1407574c76bdbac67f126f6b4a9aa9",
      "contractAddress": null
    },
    {
      "status": "0x1",
      "cumulativeGasUsed": "0x5916a",
      "logs": [
        {
          "address": "0xfd76d9cb0bac839725ab79127e7411fe71b1e3ca",
          "topics": [
            "0x82118522aa536ac0e96cc5c689407ae42b89d592aa133890a01f1509842f5081"
          ],
          "data": "0x000000000000000000000000a5c2889f0e3da388df3bf87f8f0b8e56bb863c41000000000000000000000000000000000000000000000000000000000000762f0000000000000000000000000000000000000000000000000000000000000060000000000000000000000000000000000000000000000000000000000000000000000000000000000000000000000000000000000000000000000000000000030000000000000000000000000000000000000000000000000000000000000000000000000000000000000000000000000000000000000000000000000000000000000000000000000000000000000000000000000000000000000000000000c000000000000000000000000000000000000000000000000000000000000001400000000000000000000000000000000000000000000000000000000000000003000000000000000000000000082a08f524c043ec7f6b9a42bae79a1990d8499a000000000000000000000000bb83ecf372cbb6daa629ea9a9a53bec6d601f229000000000000000000000000c097ab8cd7b053326dfe9fb3e3a31a0cce3b526f0000000000000000000000000000000000000000000000000000000000000000",
          "blockHash": "0xf6478b34d9ceaea2c999d1accd0b6382a309703252d54f920ac617b06e6ee61b",
          "blockNumber": "0xd01ff4",
          "blockTimestamp": "0x68c3e51e",
          "transactionHash": "0x18504a684daed94028066031e3a7997fb69bc8f4f4c96caed3319d5a93c5dd69",
          "transactionIndex": "0x2",
          "logIndex": "0x6",
          "removed": false
        }
      ],
      "logsBloom": "0x00000000000000000000000000000000000000000000000000000000000000000000000000000000000000000000000000000000000000000000000000000000000000000000000000000000000004000000000000000000002000000000000000000000000000010000000000000000000000000000000000000000000000000000000000000000000000000000000000000000000000000000000000000000000000000000000000000002000000000000000000000000000000000000000000000000000000000000000000000000000000000000000800000000000000000000000000000000000000000000000000000000000000000000000000000010",
      "type": "0x2",
      "transactionHash": "0x18504a684daed94028066031e3a7997fb69bc8f4f4c96caed3319d5a93c5dd69",
      "transactionIndex": "0x2",
      "blockHash": "0xf6478b34d9ceaea2c999d1accd0b6382a309703252d54f920ac617b06e6ee61b",
      "blockNumber": "0xd01ff4",
      "gasUsed": "0x27b15",
      "effectiveGasPrice": "0x157191aa",
      "from": "0x1d434906aa520e592fab2b82406beff859be8e82",
      "to": "0x3a73033c0b1407574c76bdbac67f126f6b4a9aa9",
      "contractAddress": null
    },
    {
      "status": "0x1",
      "cumulativeGasUsed": "0x63592",
      "logs": [
        {
          "address": "0x7cacbe439ead55fa1c22790330b12835c6884a91",
          "topics": [
            "0x82118522aa536ac0e96cc5c689407ae42b89d592aa133890a01f1509842f5081"
          ],
          "data": "0x000000000000000000000000a5c2889f0e3da388df3bf87f8f0b8e56bb863c41000000000000000000000000000000000000000000000000000000000000762f0000000000000000000000000000000000000000000000000000000000000060000000000000000000000000000000000000000000000000000000000000000000000000000000000000000000000000000000000000000000000000000000030000000000000000000000000000000000000000000000000000000000000000000000000000000000000000000000000000000000000000000000000000000000000000000000000000000000000000000000000000000000000000000000c000000000000000000000000000000000000000000000000000000000000001400000000000000000000000000000000000000000000000000000000000000003000000000000000000000000082a08f524c043ec7f6b9a42bae79a1990d8499a000000000000000000000000bb83ecf372cbb6daa629ea9a9a53bec6d601f229000000000000000000000000c097ab8cd7b053326dfe9fb3e3a31a0cce3b526f0000000000000000000000000000000000000000000000000000000000000000",
          "blockHash": "0x22edb52692a27c8b58ca7bdeeb27e4d39c063c948740fdf16ef3761802773458",
          "blockNumber": "0xd01ff5",
          "blockTimestamp": "0x68c3e51f",
          "transactionHash": "0x53185b3c67eaab612f6cde9f3cfd02e69d0f21007962e4d774437d4b0efc4d94",
          "transactionIndex": "0x3",
          "logIndex": "0x2",
          "removed": false
        }
      ],
      "logsBloom": "0x00000000000000000000000000000000000000000000000000000000000000000000000000000000000000000000000000000000000000000000000000000000000000000000000000000000000000000000000000000000002000000000000000000000000000000000000000000000000000000000000000000000000000000000000000000000000000000000000000000000000000000000000000040000000000000000000000000002000000000000000000000000000000000000000000000000000000000000000000000000000000000000000000000000000000000000000000000400000000000000000000000000000000000000000000000018",
      "type": "0x2",
      "transactionHash": "0x53185b3c67eaab612f6cde9f3cfd02e69d0f21007962e4d774437d4b0efc4d94",
      "transactionIndex": "0x3",
      "blockHash": "0x22edb52692a27c8b58ca7bdeeb27e4d39c063c948740fdf16ef3761802773458",
      "blockNumber": "0xd01ff5",
      "gasUsed": "0x27a1f",
      "effectiveGasPrice": "0x13d1e71b",
      "from": "0x1d434906aa520e592fab2b82406beff859be8e82",
      "to": "0x3a73033c0b1407574c76bdbac67f126f6b4a9aa9",
      "contractAddress": null
    },
    {
      "status": "0x1",
      "cumulativeGasUsed": "0xdb7d9",
      "logs": [
        {
          "address": "0xfd76d9cb0bac839725ab79127e7411fe71b1e3ca",
          "topics": [
            "0x82118522aa536ac0e96cc5c689407ae42b89d592aa133890a01f1509842f5081"
          ],
          "data": "0x000000000000000000000000c6563942d1ae02dd6e450847de3753011ca3eee1000000000000000000000000000000000000000000000000000000000000762f0000000000000000000000000000000000000000000000000000000000000060000000000000000000000000000000000000000000000000000000000000000000000000000000000000000000000000000000000000000000000000000000030000000000000000000000000000000000000000000000000000000000000000000000000000000000000000000000000000000000000000000000000000000000000000000000000000000000000000000000000000000000000000000000c000000000000000000000000000000000000000000000000000000000000001400000000000000000000000000000000000000000000000000000000000000003000000000000000000000000082a08f524c043ec7f6b9a42bae79a1990d8499a000000000000000000000000bb83ecf372cbb6daa629ea9a9a53bec6d601f229000000000000000000000000c097ab8cd7b053326dfe9fb3e3a31a0cce3b526f0000000000000000000000000000000000000000000000000000000000000000",
          "blockHash": "0xea53532a57684048a98439130ccaae58630d59ec6d80a66a83c7e59df00bb968",
          "blockNumber": "0xd01ff6",
          "blockTimestamp": "0x68c3e520",
          "transactionHash": "0x513307848feb1b17e098f817657b57758e41cd9174eecffe38e97f9e87903bc7",
          "transactionIndex": "0x4",
          "logIndex": "0xc",
          "removed": false
        }
      ],
      "logsBloom": "0x00000000000000000000000000000000000000000000000000000000000000000000000000000000000000000000000000000000000000000000000000000000000000000000000000000000000004000000000000000000002000000000000000000000000000010000000000000000000000000000000000000000000000000000000000000000000000000000000000000000000000000000000000000000000000000000000000000002000000000000000000000000000000000000000000000000000000000000000000000000000000000000000800000000000000000000000000000000000000000000000000000000000000000000000000000010",
      "type": "0x2",
      "transactionHash": "0x513307848feb1b17e098f817657b57758e41cd9174eecffe38e97f9e87903bc7",
      "transactionIndex": "0x4",
      "blockHash": "0xea53532a57684048a98439130ccaae58630d59ec6d80a66a83c7e59df00bb968",
      "blockNumber": "0xd01ff6",
      "gasUsed": "0x27b15",
      "effectiveGasPrice": "0x1282a2a4",
      "from": "0x1d434906aa520e592fab2b82406beff859be8e82",
      "to": "0x3a73033c0b1407574c76bdbac67f126f6b4a9aa9",
      "contractAddress": null
    },
    {
      "status": "0x1",
      "cumulativeGasUsed": "0xc2ed4",
      "logs": [
        {
          "address": "0x7cacbe439ead55fa1c22790330b12835c6884a91",
          "topics": [
            "0x82118522aa536ac0e96cc5c689407ae42b89d592aa133890a01f1509842f5081"
          ],
          "data": "0x000000000000000000000000c6563942d1ae02dd6e450847de3753011ca3eee1000000000000000000000000000000000000000000000000000000000000762f0000000000000000000000000000000000000000000000000000000000000060000000000000000000000000000000000000000000000000000000000000000000000000000000000000000000000000000000000000000000000000000000030000000000000000000000000000000000000000000000000000000000000000000000000000000000000000000000000000000000000000000000000000000000000000000000000000000000000000000000000000000000000000000000c000000000000000000000000000000000000000000000000000000000000001400000000000000000000000000000000000000000000000000000000000000003000000000000000000000000082a08f524c043ec7f6b9a42bae79a1990d8499a000000000000000000000000bb83ecf372cbb6daa629ea9a9a53bec6d601f229000000000000000000000000c097ab8cd7b053326dfe9fb3e3a31a0cce3b526f0000000000000000000000000000000000000000000000000000000000000000",
          "blockHash": "0x262b69fe2081d00e3b1f8c6a69e626b915f7b68451471375b4dc5d3ac5b6c591",
          "blockNumber": "0xd01ff7",
          "blockTimestamp": "0x68c3e521",
          "transactionHash": "0x35d42ae0c1c13acf3528dd3b6ff040a1728db89677c1ff28d44e537b4cac203d",
          "transactionIndex": "0x4",
          "logIndex": "0xc",
          "removed": false
        }
      ],
      "logsBloom": "0x00000000000000000000000000000000000000000000000000000000000000000000000000000000000000000000000000000000000000000000000000000000000000000000000000000000000000000000000000000000002000000000000000000000000000000000000000000000000000000000000000000000000000000000000000000000000000000000000000000000000000000000000000040000000000000000000000000002000000000000000000000000000000000000000000000000000000000000000000000000000000000000000000000000000000000000000000000400000000000000000000000000000000000000000000000018",
      "type": "0x2",
      "transactionHash": "0x35d42ae0c1c13acf3528dd3b6ff040a1728db89677c1ff28d44e537b4cac203d",
      "transactionIndex": "0x4",
      "blockHash": "0x262b69fe2081d00e3b1f8c6a69e626b915f7b68451471375b4dc5d3ac5b6c591",
      "blockNumber": "0xd01ff7",
      "gasUsed": "0x27a1f",
      "effectiveGasPrice": "0x14a9f2c2",
      "from": "0x1d434906aa520e592fab2b82406beff859be8e82",
      "to": "0x3a73033c0b1407574c76bdbac67f126f6b4a9aa9",
      "contractAddress": null
    },
    {
      "status": "0x1",
      "cumulativeGasUsed": "0x16df7",
      "logs": [
        {
          "address": "0x3a73033c0b1407574c76bdbac67f126f6b4a9aa9",
          "topics": [
            "0x4cff966ebee29a156dcb34cf72c1d06231fb1777f6bdf6e8089819232f002b1c"
          ],
          "data": "0x00000000000000000000000065c042454005de49106a6b0129f4af56939457da000000000000000000000000000000000000000000000000000000000000762f000000000000000000000000fd76d9cb0bac839725ab79127e7411fe71b1e3ca",
          "blockHash": "0x549a44773489ffda6b4571d7d6256ec562e514777724661375d7260b9473e77d",
          "blockNumber": "0xd01ffa",
          "blockTimestamp": "0x68c3e524",
          "transactionHash": "0xdf32e224f3b1cb34fc19060b1c782109794cb1af619725f12d4e11c39d5b8069",
          "transactionIndex": "0x1",
          "logIndex": "0x1",
          "removed": false
        }
      ],
      "logsBloom": "0x00000000000000000000000000000000000200000000000000000000000000000000000000000000000000000000000000000000000000000000000001000000000000000000000000000100000000000000000000000000000000000000000000000000000000000000000000000000000010000000000000000000000000000000000000000000000000000000000000000000000000000000000000000000000000000000000000000000000000000000000000000000000000000000000000000001000000000000000000000000000000000000000000000000000000000040000000000000000000000000000000000000000000000000000000000000",
      "type": "0x2",
      "transactionHash": "0xdf32e224f3b1cb34fc19060b1c782109794cb1af619725f12d4e11c39d5b8069",
      "transactionIndex": "0x1",
      "blockHash": "0x549a44773489ffda6b4571d7d6256ec562e514777724661375d7260b9473e77d",
      "blockNumber": "0xd01ffa",
      "gasUsed": "0xe18e",
      "effectiveGasPrice": "0x15731c30",
      "from": "0x1d434906aa520e592fab2b82406beff859be8e82",
      "to": "0x3a73033c0b1407574c76bdbac67f126f6b4a9aa9",
      "contractAddress": null
    },
    {
      "status": "0x1",
      "cumulativeGasUsed": "0x19345",
      "logs": [
        {
          "address": "0x3a73033c0b1407574c76bdbac67f126f6b4a9aa9",
          "topics": [
            "0xcd6f92f5ac6185a5acfa02c92090746cec64d777269cbcd0ed031e396657a1c2"
          ],
          "data": "0x00000000000000000000000065c042454005de49106a6b0129f4af56939457da000000000000000000000000000000000000000000000000000000000000762f0000000000000000000000007cacbe439ead55fa1c22790330b12835c6884a91",
          "blockHash": "0x7ac567854ccaec7df7669662a8d96e110fe741565eeb3e716b03559a42299cb0",
          "blockNumber": "0xd01ffc",
          "blockTimestamp": "0x68c3e526",
          "transactionHash": "0x711e5efb41d5e9ee2f3722b39a1beed46ead8cf68237eb9d64a5d0c0a14e4aa8",
          "transactionIndex": "0x1",
          "logIndex": "0x1",
          "removed": false
        },
        {
          "address": "0x3a73033c0b1407574c76bdbac67f126f6b4a9aa9",
          "topics": [
            "0x4e0a5bbfa0c11a64effb1ada324b5437a17272e1aed9320398715ef71bb20928"
          ],
          "data": "0x00000000000000000000000065c042454005de49106a6b0129f4af56939457da000000000000000000000000000000000000000000000000000000000000762f00000000000000000000000000000000000000000000000000000000000000000000000000000000000000000000000000000000000000000000000000000000",
          "blockHash": "0x7ac567854ccaec7df7669662a8d96e110fe741565eeb3e716b03559a42299cb0",
          "blockNumber": "0xd01ffc",
          "blockTimestamp": "0x68c3e526",
          "transactionHash": "0x711e5efb41d5e9ee2f3722b39a1beed46ead8cf68237eb9d64a5d0c0a14e4aa8",
          "transactionIndex": "0x1",
          "logIndex": "0x2",
          "removed": false
        }
      ],
      "logsBloom": "0x00000000000000000000020800000000000000000000000000000000000000020400000000000000000000000000000000000000000000000000000000000000000000000000000000000100000000000000000000800000000000000000000000000000000000000000000000000000000010000000000000000000000000100000000000000000000000000000000000000000000000000000000000000000000000000000000000000000000000000000000000000000000000000000000000000001000000000000000000000000000000000000000000000000000000000000000000000000000000000000000000000000000000000000000000000000",
      "type": "0x2",
      "transactionHash": "0x711e5efb41d5e9ee2f3722b39a1beed46ead8cf68237eb9d64a5d0c0a14e4aa8",
      "transactionIndex": "0x1",
      "blockHash": "0x7ac567854ccaec7df7669662a8d96e110fe741565eeb3e716b03559a42299cb0",
      "blockNumber": "0xd01ffc",
      "gasUsed": "0xfba1",
      "effectiveGasPrice": "0x14c1a73c",
      "from": "0x1d434906aa520e592fab2b82406beff859be8e82",
      "to": "0x3a73033c0b1407574c76bdbac67f126f6b4a9aa9",
      "contractAddress": null
    },
    {
      "status": "0x1",
      "cumulativeGasUsed": "0x5904c",
      "logs": [
        {
          "address": "0x3a73033c0b1407574c76bdbac67f126f6b4a9aa9",
          "topics": [
            "0x4cff966ebee29a156dcb34cf72c1d06231fb1777f6bdf6e8089819232f002b1c"
          ],
          "data": "0x000000000000000000000000e1851f6ac161d1911104b19918fb866ef6fee577000000000000000000000000000000000000000000000000000000000000762f000000000000000000000000fd76d9cb0bac839725ab79127e7411fe71b1e3ca",
          "blockHash": "0x2b03e6d1c34bffee22f67f16ff6e93a3722e001a07db71bcca558fc0b15c7740",
          "blockNumber": "0xd01ffe",
          "blockTimestamp": "0x68c3e528",
          "transactionHash": "0x5c5a8edac9d2174245ccd7edba09109565e4e53058a5136034a53daf643d20e6",
          "transactionIndex": "0x1",
          "logIndex": "0x0",
          "removed": false
        }
      ],
      "logsBloom": "0x00000000000000000000000000000000000200000000000000000000000000000000000000000000000000000000000000000000000000000000000001000000000000000000000000000100000000000000000000000000000000000000000000000000000000000000000000000000000010000000000000000000000000000000000000000000000000000000000000000000000000000000000000000000000000000000000000000000000000000000000000000000000000000000000000000001000000000000000000000000000000000000000000000000000000000040000000000000000000000000000000000000000000000000000000000000",
      "type": "0x2",
      "transactionHash": "0x5c5a8edac9d2174245ccd7edba09109565e4e53058a5136034a53daf643d20e6",
      "transactionIndex": "0x1",
      "blockHash": "0x2b03e6d1c34bffee22f67f16ff6e93a3722e001a07db71bcca558fc0b15c7740",
      "blockNumber": "0xd01ffe",
      "gasUsed": "0xe18e",
      "effectiveGasPrice": "0x15ff3b10",
      "from": "0x1d434906aa520e592fab2b82406beff859be8e82",
      "to": "0x3a73033c0b1407574c76bdbac67f126f6b4a9aa9",
      "contractAddress": null
    },
    {
      "status": "0x1",
      "cumulativeGasUsed": "0xf0ed5",
      "logs": [
        {
          "address": "0x3a73033c0b1407574c76bdbac67f126f6b4a9aa9",
          "topics": [
            "0xcd6f92f5ac6185a5acfa02c92090746cec64d777269cbcd0ed031e396657a1c2"
          ],
          "data": "0x000000000000000000000000e1851f6ac161d1911104b19918fb866ef6fee577000000000000000000000000000000000000000000000000000000000000762f0000000000000000000000007cacbe439ead55fa1c22790330b12835c6884a91",
          "blockHash": "0x50483b43e8802495978893d3cc15b5b309a8d03599f17c7adbce1190a74edb95",
          "blockNumber": "0xd02000",
          "blockTimestamp": "0x68c3e52a",
          "transactionHash": "0xed95767f723d39dcf0783d5d3906682260fc918bd44e99ba8a22436ed8ebef77",
          "transactionIndex": "0x6",
          "logIndex": "0x22",
          "removed": false
        },
        {
          "address": "0x3a73033c0b1407574c76bdbac67f126f6b4a9aa9",
          "topics": [
            "0x4e0a5bbfa0c11a64effb1ada324b5437a17272e1aed9320398715ef71bb20928"
          ],
          "data": "0x000000000000000000000000e1851f6ac161d1911104b19918fb866ef6fee577000000000000000000000000000000000000000000000000000000000000762f00000000000000000000000000000000000000000000000000000000000000000000000000000000000000000000000000000000000000000000000000000000",
          "blockHash": "0x50483b43e8802495978893d3cc15b5b309a8d03599f17c7adbce1190a74edb95",
          "blockNumber": "0xd02000",
          "blockTimestamp": "0x68c3e52a",
          "transactionHash": "0xed95767f723d39dcf0783d5d3906682260fc918bd44e99ba8a22436ed8ebef77",
          "transactionIndex": "0x6",
          "logIndex": "0x23",
          "removed": false
        }
      ],
      "logsBloom": "0x00000000000000000000020800000000000000000000000000000000000000020400000000000000000000000000000000000000000000000000000000000000000000000000000000000100000000000000000000800000000000000000000000000000000000000000000000000000000010000000000000000000000000100000000000000000000000000000000000000000000000000000000000000000000000000000000000000000000000000000000000000000000000000000000000000001000000000000000000000000000000000000000000000000000000000000000000000000000000000000000000000000000000000000000000000000",
      "type": "0x2",
      "transactionHash": "0xed95767f723d39dcf0783d5d3906682260fc918bd44e99ba8a22436ed8ebef77",
      "transactionIndex": "0x6",
      "blockHash": "0x50483b43e8802495978893d3cc15b5b309a8d03599f17c7adbce1190a74edb95",
      "blockNumber": "0xd02000",
      "gasUsed": "0xfba1",
      "effectiveGasPrice": "0x1386cf59",
      "from": "0x1d434906aa520e592fab2b82406beff859be8e82",
      "to": "0x3a73033c0b1407574c76bdbac67f126f6b4a9aa9",
      "contractAddress": null
    },
    {
      "status": "0x1",
      "cumulativeGasUsed": "0xe67d4",
      "logs": [
        {
          "address": "0x3a73033c0b1407574c76bdbac67f126f6b4a9aa9",
          "topics": [
            "0x4cff966ebee29a156dcb34cf72c1d06231fb1777f6bdf6e8089819232f002b1c"
          ],
          "data": "0x000000000000000000000000b7583b07c12286bb9026a7053b0c44e8f5fa8624000000000000000000000000000000000000000000000000000000000000762f000000000000000000000000fd76d9cb0bac839725ab79127e7411fe71b1e3ca",
          "blockHash": "0xdc9b98af90680fc7cb249acad4047eff7778a84dc2014ee750398dc9085313a7",
          "blockNumber": "0xd02001",
          "blockTimestamp": "0x68c3e52b",
          "transactionHash": "0x69d0b810775aabb275eeb6da03cc7c1796eea00e2eaec132c76c54edf0d05376",
          "transactionIndex": "0x4",
          "logIndex": "0x23",
          "removed": false
        }
      ],
      "logsBloom": "0x00000000000000000000000000000000000200000000000000000000000000000000000000000000000000000000000000000000000000000000000001000000000000000000000000000100000000000000000000000000000000000000000000000000000000000000000000000000000010000000000000000000000000000000000000000000000000000000000000000000000000000000000000000000000000000000000000000000000000000000000000000000000000000000000000000001000000000000000000000000000000000000000000000000000000000040000000000000000000000000000000000000000000000000000000000000",
      "type": "0x2",
      "transactionHash": "0x69d0b810775aabb275eeb6da03cc7c1796eea00e2eaec132c76c54edf0d05376",
      "transactionIndex": "0x4",
      "blockHash": "0xdc9b98af90680fc7cb249acad4047eff7778a84dc2014ee750398dc9085313a7",
      "blockNumber": "0xd02001",
      "gasUsed": "0xe18e",
      "effectiveGasPrice": "0x141d4bbd",
      "from": "0x1d434906aa520e592fab2b82406beff859be8e82",
      "to": "0x3a73033c0b1407574c76bdbac67f126f6b4a9aa9",
      "contractAddress": null
    },
    {
      "status": "0x1",
      "cumulativeGasUsed": "0x846f6",
      "logs": [
        {
          "address": "0x3a73033c0b1407574c76bdbac67f126f6b4a9aa9",
          "topics": [
            "0xcd6f92f5ac6185a5acfa02c92090746cec64d777269cbcd0ed031e396657a1c2"
          ],
          "data": "0x000000000000000000000000b7583b07c12286bb9026a7053b0c44e8f5fa8624000000000000000000000000000000000000000000000000000000000000762f0000000000000000000000007cacbe439ead55fa1c22790330b12835c6884a91",
          "blockHash": "0xa3d6b6b9fedfe01fbe94fa39895de840e69f76f8cdf6364aaaaee645e0584f5d",
          "blockNumber": "0xd02002",
          "blockTimestamp": "0x68c3e52c",
          "transactionHash": "0xbade6fc0882addb26bb97c8d9a05f7138e24448a0e82f541ca060bc2b1b905d9",
          "transactionIndex": "0x2",
          "logIndex": "0x0",
          "removed": false
        },
        {
          "address": "0x3a73033c0b1407574c76bdbac67f126f6b4a9aa9",
          "topics": [
            "0x4e0a5bbfa0c11a64effb1ada324b5437a17272e1aed9320398715ef71bb20928"
          ],
          "data": "0x000000000000000000000000b7583b07c12286bb9026a7053b0c44e8f5fa8624000000000000000000000000000000000000000000000000000000000000762f00000000000000000000000000000000000000000000000000000000000000000000000000000000000000000000000000000000000000000000000000000000",
          "blockHash": "0xa3d6b6b9fedfe01fbe94fa39895de840e69f76f8cdf6364aaaaee645e0584f5d",
          "blockNumber": "0xd02002",
          "blockTimestamp": "0x68c3e52c",
          "transactionHash": "0xbade6fc0882addb26bb97c8d9a05f7138e24448a0e82f541ca060bc2b1b905d9",
          "transactionIndex": "0x2",
          "logIndex": "0x1",
          "removed": false
        }
      ],
      "logsBloom": "0x00000000000000000000020800000000000000000000000000000000000000020400000000000000000000000000000000000000000000000000000000000000000000000000000000000100000000000000000000800000000000000000000000000000000000000000000000000000000010000000000000000000000000100000000000000000000000000000000000000000000000000000000000000000000000000000000000000000000000000000000000000000000000000000000000000001000000000000000000000000000000000000000000000000000000000000000000000000000000000000000000000000000000000000000000000000",
      "type": "0x2",
      "transactionHash": "0xbade6fc0882addb26bb97c8d9a05f7138e24448a0e82f541ca060bc2b1b905d9",
      "transactionIndex": "0x2",
      "blockHash": "0xa3d6b6b9fedfe01fbe94fa39895de840e69f76f8cdf6364aaaaee645e0584f5d",
      "blockNumber": "0xd02002",
      "gasUsed": "0xfba1",
      "effectiveGasPrice": "0x14179d22",
      "from": "0x1d434906aa520e592fab2b82406beff859be8e82",
      "to": "0x3a73033c0b1407574c76bdbac67f126f6b4a9aa9",
      "contractAddress": null
    },
    {
      "status": "0x1",
      "cumulativeGasUsed": "0x92705",
      "logs": [
        {
          "address": "0x3a73033c0b1407574c76bdbac67f126f6b4a9aa9",
          "topics": [
            "0x4cff966ebee29a156dcb34cf72c1d06231fb1777f6bdf6e8089819232f002b1c"
          ],
          "data": "0x000000000000000000000000a444f92734be29e71b8a4762595c9733ab2c9c47000000000000000000000000000000000000000000000000000000000000762f000000000000000000000000fd76d9cb0bac839725ab79127e7411fe71b1e3ca",
          "blockHash": "0x0a05251a4520f65486b65468fb923c2ce2d99818fb233aa9b18d999cb3b5b058",
          "blockNumber": "0xd02003",
          "blockTimestamp": "0x68c3e52d",
          "transactionHash": "0xe94b5eb9e4e0468a6b9c7abdc6fb42a0b608914616d3a698732abed5cc8ca7e5",
          "transactionIndex": "0x2",
          "logIndex": "0xa",
          "removed": false
        }
      ],
      "logsBloom": "0x00000000000000000000000000000000000200000000000000000000000000000000000000000000000000000000000000000000000000000000000001000000000000000000000000000100000000000000000000000000000000000000000000000000000000000000000000000000000010000000000000000000000000000000000000000000000000000000000000000000000000000000000000000000000000000000000000000000000000000000000000000000000000000000000000000001000000000000000000000000000000000000000000000000000000000040000000000000000000000000000000000000000000000000000000000000",
      "type": "0x2",
      "transactionHash": "0xe94b5eb9e4e0468a6b9c7abdc6fb42a0b608914616d3a698732abed5cc8ca7e5",
      "transactionIndex": "0x2",
      "blockHash": "0x0a05251a4520f65486b65468fb923c2ce2d99818fb233aa9b18d999cb3b5b058",
      "blockNumber": "0xd02003",
      "gasUsed": "0xe18e",
      "effectiveGasPrice": "0x14787951",
      "from": "0x1d434906aa520e592fab2b82406beff859be8e82",
      "to": "0x3a73033c0b1407574c76bdbac67f126f6b4a9aa9",
      "contractAddress": null
    },
    {
      "status": "0x1",
      "cumulativeGasUsed": "0x412f6",
      "logs": [
        {
          "address": "0x3a73033c0b1407574c76bdbac67f126f6b4a9aa9",
          "topics": [
            "0xcd6f92f5ac6185a5acfa02c92090746cec64d777269cbcd0ed031e396657a1c2"
          ],
          "data": "0x000000000000000000000000a444f92734be29e71b8a4762595c9733ab2c9c47000000000000000000000000000000000000000000000000000000000000762f0000000000000000000000007cacbe439ead55fa1c22790330b12835c6884a91",
          "blockHash": "0x20e35d68bdaef93312458d8de6d342bda1024eec22cb1736098eaf5f6f8de97a",
          "blockNumber": "0xd02006",
          "blockTimestamp": "0x68c3e530",
          "transactionHash": "0x1cd94179f7a62b6e9d1ef2099589faccba756c3fe95f7584bcb91bee03ae8b72",
          "transactionIndex": "0x2",
          "logIndex": "0x0",
          "removed": false
        },
        {
          "address": "0x3a73033c0b1407574c76bdbac67f126f6b4a9aa9",
          "topics": [
            "0x4e0a5bbfa0c11a64effb1ada324b5437a17272e1aed9320398715ef71bb20928"
          ],
          "data": "0x000000000000000000000000a444f92734be29e71b8a4762595c9733ab2c9c47000000000000000000000000000000000000000000000000000000000000762f00000000000000000000000000000000000000000000000000000000000000000000000000000000000000000000000000000000000000000000000000000000",
          "blockHash": "0x20e35d68bdaef93312458d8de6d342bda1024eec22cb1736098eaf5f6f8de97a",
          "blockNumber": "0xd02006",
          "blockTimestamp": "0x68c3e530",
          "transactionHash": "0x1cd94179f7a62b6e9d1ef2099589faccba756c3fe95f7584bcb91bee03ae8b72",
          "transactionIndex": "0x2",
          "logIndex": "0x1",
          "removed": false
        }
      ],
      "logsBloom": "0x00000000000000000000020800000000000000000000000000000000000000020400000000000000000000000000000000000000000000000000000000000000000000000000000000000100000000000000000000800000000000000000000000000000000000000000000000000000000010000000000000000000000000100000000000000000000000000000000000000000000000000000000000000000000000000000000000000000000000000000000000000000000000000000000000000001000000000000000000000000000000000000000000000000000000000000000000000000000000000000000000000000000000000000000000000000",
      "type": "0x2",
      "transactionHash": "0x1cd94179f7a62b6e9d1ef2099589faccba756c3fe95f7584bcb91bee03ae8b72",
      "transactionIndex": "0x2",
      "blockHash": "0x20e35d68bdaef93312458d8de6d342bda1024eec22cb1736098eaf5f6f8de97a",
      "blockNumber": "0xd02006",
      "gasUsed": "0xfba1",
      "effectiveGasPrice": "0x14fd3e1d",
      "from": "0x1d434906aa520e592fab2b82406beff859be8e82",
      "to": "0x3a73033c0b1407574c76bdbac67f126f6b4a9aa9",
      "contractAddress": null
    },
    {
      "status": "0x1",
      "cumulativeGasUsed": "0xf777e",
      "logs": [
        {
          "address": "0x3a73033c0b1407574c76bdbac67f126f6b4a9aa9",
          "topics": [
            "0x4cff966ebee29a156dcb34cf72c1d06231fb1777f6bdf6e8089819232f002b1c"
          ],
          "data": "0x000000000000000000000000a5c2889f0e3da388df3bf87f8f0b8e56bb863c41000000000000000000000000000000000000000000000000000000000000762f000000000000000000000000fd76d9cb0bac839725ab79127e7411fe71b1e3ca",
          "blockHash": "0xcbef7fdc973ea5d785b4ef40f88652b4dcc85cf73af3276ac5a517e4b5f96e72",
          "blockNumber": "0xd02007",
          "blockTimestamp": "0x68c3e531",
          "transactionHash": "0x426c4625aabe495405926872e2e8ee1705df3bd06abf83128fa987c2d281428b",
          "transactionIndex": "0x3",
          "logIndex": "0x18",
          "removed": false
        }
      ],
      "logsBloom": "0x00000000000000000000000000000000000200000000000000000000000000000000000000000000000000000000000000000000000000000000000001000000000000000000000000000100000000000000000000000000000000000000000000000000000000000000000000000000000010000000000000000000000000000000000000000000000000000000000000000000000000000000000000000000000000000000000000000000000000000000000000000000000000000000000000000001000000000000000000000000000000000000000000000000000000000040000000000000000000000000000000000000000000000000000000000000",
      "type": "0x2",
      "transactionHash": "0x426c4625aabe495405926872e2e8ee1705df3bd06abf83128fa987c2d281428b",
      "transactionIndex": "0x3",
      "blockHash": "0xcbef7fdc973ea5d785b4ef40f88652b4dcc85cf73af3276ac5a517e4b5f96e72",
      "blockNumber": "0xd02007",
      "gasUsed": "0xe18e",
      "effectiveGasPrice": "0x16734cd1",
      "from": "0x1d434906aa520e592fab2b82406beff859be8e82",
      "to": "0x3a73033c0b1407574c76bdbac67f126f6b4a9aa9",
      "contractAddress": null
    },
    {
      "status": "0x1",
      "cumulativeGasUsed": "0xfba1",
      "logs": [
        {
          "address": "0x3a73033c0b1407574c76bdbac67f126f6b4a9aa9",
          "topics": [
            "0xcd6f92f5ac6185a5acfa02c92090746cec64d777269cbcd0ed031e396657a1c2"
          ],
          "data": "0x000000000000000000000000a5c2889f0e3da388df3bf87f8f0b8e56bb863c41000000000000000000000000000000000000000000000000000000000000762f0000000000000000000000007cacbe439ead55fa1c22790330b12835c6884a91",
          "blockHash": "0xc57404a92624a06c12523dc39c4317ab5bc010f67b0581839000db43abede31a",
          "blockNumber": "0xd02008",
          "blockTimestamp": "0x68c3e532",
          "transactionHash": "0x65d08a4413253ad77857ef709da2294b9b80192804360af06207a65a37a844cf",
          "transactionIndex": "0x0",
          "logIndex": "0x0",
          "removed": false
        },
        {
          "address": "0x3a73033c0b1407574c76bdbac67f126f6b4a9aa9",
          "topics": [
            "0x4e0a5bbfa0c11a64effb1ada324b5437a17272e1aed9320398715ef71bb20928"
          ],
          "data": "0x000000000000000000000000a5c2889f0e3da388df3bf87f8f0b8e56bb863c41000000000000000000000000000000000000000000000000000000000000762f00000000000000000000000000000000000000000000000000000000000000000000000000000000000000000000000000000000000000000000000000000000",
          "blockHash": "0xc57404a92624a06c12523dc39c4317ab5bc010f67b0581839000db43abede31a",
          "blockNumber": "0xd02008",
          "blockTimestamp": "0x68c3e532",
          "transactionHash": "0x65d08a4413253ad77857ef709da2294b9b80192804360af06207a65a37a844cf",
          "transactionIndex": "0x0",
          "logIndex": "0x1",
          "removed": false
        }
      ],
      "logsBloom": "0x00000000000000000000020800000000000000000000000000000000000000020400000000000000000000000000000000000000000000000000000000000000000000000000000000000100000000000000000000800000000000000000000000000000000000000000000000000000000010000000000000000000000000100000000000000000000000000000000000000000000000000000000000000000000000000000000000000000000000000000000000000000000000000000000000000001000000000000000000000000000000000000000000000000000000000000000000000000000000000000000000000000000000000000000000000000",
      "type": "0x2",
      "transactionHash": "0x65d08a4413253ad77857ef709da2294b9b80192804360af06207a65a37a844cf",
      "transactionIndex": "0x0",
      "blockHash": "0xc57404a92624a06c12523dc39c4317ab5bc010f67b0581839000db43abede31a",
      "blockNumber": "0xd02008",
      "gasUsed": "0xfba1",
      "effectiveGasPrice": "0x167ca8f2",
      "from": "0x1d434906aa520e592fab2b82406beff859be8e82",
      "to": "0x3a73033c0b1407574c76bdbac67f126f6b4a9aa9",
      "contractAddress": null
    },
    {
      "status": "0x1",
      "cumulativeGasUsed": "0x3b595",
      "logs": [
        {
          "address": "0x3a73033c0b1407574c76bdbac67f126f6b4a9aa9",
          "topics": [
            "0x4cff966ebee29a156dcb34cf72c1d06231fb1777f6bdf6e8089819232f002b1c"
          ],
          "data": "0x000000000000000000000000c6563942d1ae02dd6e450847de3753011ca3eee1000000000000000000000000000000000000000000000000000000000000762f000000000000000000000000fd76d9cb0bac839725ab79127e7411fe71b1e3ca",
          "blockHash": "0x04a25e5802b05d36afb9f9a21782518ce17c8c431afb58d237fcc308974f9340",
          "blockNumber": "0xd02009",
          "blockTimestamp": "0x68c3e533",
          "transactionHash": "0xa30cdd4d48d23ef433783eda14496b9f54e4212dbf83b687ac6f721946bc234b",
          "transactionIndex": "0x2",
          "logIndex": "0x6",
          "removed": false
        }
      ],
      "logsBloom": "0x00000000000000000000000000000000000200000000000000000000000000000000000000000000000000000000000000000000000000000000000001000000000000000000000000000100000000000000000000000000000000000000000000000000000000000000000000000000000010000000000000000000000000000000000000000000000000000000000000000000000000000000000000000000000000000000000000000000000000000000000000000000000000000000000000000001000000000000000000000000000000000000000000000000000000000040000000000000000000000000000000000000000000000000000000000000",
      "type": "0x2",
      "transactionHash": "0xa30cdd4d48d23ef433783eda14496b9f54e4212dbf83b687ac6f721946bc234b",
      "transactionIndex": "0x2",
      "blockHash": "0x04a25e5802b05d36afb9f9a21782518ce17c8c431afb58d237fcc308974f9340",
      "blockNumber": "0xd02009",
      "gasUsed": "0xe18e",
      "effectiveGasPrice": "0x1752d4a4",
      "from": "0x1d434906aa520e592fab2b82406beff859be8e82",
      "to": "0x3a73033c0b1407574c76bdbac67f126f6b4a9aa9",
      "contractAddress": null
    },
    {
      "status": "0x1",
      "cumulativeGasUsed": "0xf5b50",
      "logs": [
        {
          "address": "0x3a73033c0b1407574c76bdbac67f126f6b4a9aa9",
          "topics": [
            "0xcd6f92f5ac6185a5acfa02c92090746cec64d777269cbcd0ed031e396657a1c2"
          ],
          "data": "0x000000000000000000000000c6563942d1ae02dd6e450847de3753011ca3eee1000000000000000000000000000000000000000000000000000000000000762f0000000000000000000000007cacbe439ead55fa1c22790330b12835c6884a91",
          "blockHash": "0x42774b56b2f4ab10506886cbc5ee91d97ed8a1abae77a7309a254db53ecc6e16",
          "blockNumber": "0xd0200b",
          "blockTimestamp": "0x68c3e535",
          "transactionHash": "0xed69ecc6f877a445f8f21ecc327b61bca4451272f963173e4d3800dc98253862",
          "transactionIndex": "0x9",
          "logIndex": "0xa",
          "removed": false
        },
        {
          "address": "0x3a73033c0b1407574c76bdbac67f126f6b4a9aa9",
          "topics": [
            "0x4e0a5bbfa0c11a64effb1ada324b5437a17272e1aed9320398715ef71bb20928"
          ],
          "data": "0x000000000000000000000000c6563942d1ae02dd6e450847de3753011ca3eee1000000000000000000000000000000000000000000000000000000000000762f00000000000000000000000000000000000000000000000000000000000000000000000000000000000000000000000000000000000000000000000000000000",
          "blockHash": "0x42774b56b2f4ab10506886cbc5ee91d97ed8a1abae77a7309a254db53ecc6e16",
          "blockNumber": "0xd0200b",
          "blockTimestamp": "0x68c3e535",
          "transactionHash": "0xed69ecc6f877a445f8f21ecc327b61bca4451272f963173e4d3800dc98253862",
          "transactionIndex": "0x9",
          "logIndex": "0xb",
          "removed": false
        }
      ],
      "logsBloom": "0x00000000000000000000020800000000000000000000000000000000000000020400000000000000000000000000000000000000000000000000000000000000000000000000000000000100000000000000000000800000000000000000000000000000000000000000000000000000000010000000000000000000000000100000000000000000000000000000000000000000000000000000000000000000000000000000000000000000000000000000000000000000000000000000000000000001000000000000000000000000000000000000000000000000000000000000000000000000000000000000000000000000000000000000000000000000",
      "type": "0x2",
      "transactionHash": "0xed69ecc6f877a445f8f21ecc327b61bca4451272f963173e4d3800dc98253862",
      "transactionIndex": "0x9",
      "blockHash": "0x42774b56b2f4ab10506886cbc5ee91d97ed8a1abae77a7309a254db53ecc6e16",
      "blockNumber": "0xd0200b",
      "gasUsed": "0xfba1",
      "effectiveGasPrice": "0x15686b86",
      "from": "0x1d434906aa520e592fab2b82406beff859be8e82",
      "to": "0x3a73033c0b1407574c76bdbac67f126f6b4a9aa9",
      "contractAddress": null
    },
    {
      "status": "0x1",
      "cumulativeGasUsed": "0xadf51",
      "logs": [
        {
          "address": "0x3a73033c0b1407574c76bdbac67f126f6b4a9aa9",
          "topics": [
            "0x6ee10e9ed4d6ce9742703a498707862f4b00f1396a87195eb93267b3d7983981"
          ],
          "data": "0x00000000000000000000000065c042454005de49106a6b0129f4af56939457da0000000000000000000000008d8290d49e88d16d81c6adf6c8774ed88762274a",
          "blockHash": "0xb077a132b79ee897fd86612250f374f5d0e9346452cddaa5dd6541a2c1376ec5",
          "blockNumber": "0xd0200c",
          "blockTimestamp": "0x68c3e536",
          "transactionHash": "0x2abe3af41900b3e0620bc4e44eb71abbf627b1c850fd47464afd35d42d145be1",
          "transactionIndex": "0x6",
          "logIndex": "0xe",
          "removed": false
        }
      ],
      "logsBloom": "0x00000000000000000000000000000000000000000000000000800000000000000000000000000000000000000000000000000002000000000000000000000000000000000000000000000100000000000000000000000000000000000000000000000000000000000000000000000000000010000000000000000000000000000000000000000000000000000000000000000000000000000000000000000000000000000000000000000000000000000000000000000000000000000000000400000001000000000000000000000000000000000000000000000000000000000000000000000000000000000000000000000000000000000000000000000000",
      "type": "0x2",
      "transactionHash": "0x2abe3af41900b3e0620bc4e44eb71abbf627b1c850fd47464afd35d42d145be1",
      "transactionIndex": "0x6",
      "blockHash": "0xb077a132b79ee897fd86612250f374f5d0e9346452cddaa5dd6541a2c1376ec5",
      "blockNumber": "0xd0200c",
      "gasUsed": "0xa069",
      "effectiveGasPrice": "0x156c9ca6",
      "from": "0x1d434906aa520e592fab2b82406beff859be8e82",
      "to": "0x65c042454005de49106a6b0129f4af56939457da",
      "contractAddress": null
    },
    {
      "status": "0x1",
      "cumulativeGasUsed": "0x8f99b",
      "logs": [
        {
          "address": "0x65c042454005de49106a6b0129f4af56939457da",
          "topics": [
            "0x8be0079c531659141344cd1fd0a4f28419497f9722a3daafe3b4186f6b6457e0",
            "0x0000000000000000000000001d434906aa520e592fab2b82406beff859be8e82",
            "0x0000000000000000000000008d8290d49e88d16d81c6adf6c8774ed88762274a"
          ],
          "data": "0x",
          "blockHash": "0xff782fafcd28c8dd0425cf85a59b2d6c8dd5f6d0cf72d4030323275f0feb049d",
          "blockNumber": "0xd0200d",
          "blockTimestamp": "0x68c3e537",
          "transactionHash": "0x3360f8a54defe91e26cc45b19fd5dea4d90a8eb8a91adfbe6a45e3ad027400cd",
          "transactionIndex": "0x2",
          "logIndex": "0x0",
          "removed": false
        }
      ],
      "logsBloom": "0x00020000000000000000000000000000000000400000000000800000000000000040000000000000000100000000000000000000000000008001000000000000000000000000000000000000000000000001000000000000000000000000000000000000000000000000000000000000000000000000000000000000000000400000000000000000000000000000000000000000000000000000000000000000080000000000000000000000000000000000000000000000000000000000000000000000000000000000000000000000000000000800000000000000000000000000000000000000000000000000000000000000000004000000000000000000",
      "type": "0x2",
      "transactionHash": "0x3360f8a54defe91e26cc45b19fd5dea4d90a8eb8a91adfbe6a45e3ad027400cd",
      "transactionIndex": "0x2",
      "blockHash": "0xff782fafcd28c8dd0425cf85a59b2d6c8dd5f6d0cf72d4030323275f0feb049d",
      "blockNumber": "0xd0200d",
      "gasUsed": "0x8c5d",
      "effectiveGasPrice": "0x14f15808",
      "from": "0x1d434906aa520e592fab2b82406beff859be8e82",
      "to": "0x65c042454005de49106a6b0129f4af56939457da",
      "contractAddress": null
    },
    {
      "status": "0x1",
      "cumulativeGasUsed": "0x33d00",
      "logs": [
        {
          "address": "0x3a73033c0b1407574c76bdbac67f126f6b4a9aa9",
          "topics": [
            "0x6ee10e9ed4d6ce9742703a498707862f4b00f1396a87195eb93267b3d7983981"
          ],
          "data": "0x000000000000000000000000e1851f6ac161d1911104b19918fb866ef6fee5770000000000000000000000008d8290d49e88d16d81c6adf6c8774ed88762274a",
          "blockHash": "0x7706d2299eab59a43b2c4eb88777d6577b5b13b96c66d4f9adcf883bcb189d57",
          "blockNumber": "0xd0200f",
          "blockTimestamp": "0x68c3e539",
          "transactionHash": "0x54d1e8d1ae5129ce20518215ab683527d9e359a59e461945fbede9bf20de670b",
          "transactionIndex": "0x1",
          "logIndex": "0x0",
          "removed": false
        }
      ],
      "logsBloom": "0x00000000000000000000000000000000000000000000000000800000000000000000000000000000000000000000000000000002000000000000000000000000000000000000000000000100000000000000000000000000000000000000000000000000000000000000000000000000000010000000000000000000000000000000000000000000000000000000000000000000000000000000000000000000000000000000000000000000000000000000000000000000000000000000000400000001000000000000000000000000000000000000000000000000000000000000000000000000000000000000000000000000000000000000000000000000",
      "type": "0x2",
      "transactionHash": "0x54d1e8d1ae5129ce20518215ab683527d9e359a59e461945fbede9bf20de670b",
      "transactionIndex": "0x1",
      "blockHash": "0x7706d2299eab59a43b2c4eb88777d6577b5b13b96c66d4f9adcf883bcb189d57",
      "blockNumber": "0xd0200f",
      "gasUsed": "0xa069",
      "effectiveGasPrice": "0x1540a1ef",
      "from": "0x1d434906aa520e592fab2b82406beff859be8e82",
      "to": "0xe1851f6ac161d1911104b19918fb866ef6fee577",
      "contractAddress": null
    },
    {
      "status": "0x1",
      "cumulativeGasUsed": "0x53b01",
      "logs": [
        {
          "address": "0xe1851f6ac161d1911104b19918fb866ef6fee577",
          "topics": [
            "0x8be0079c531659141344cd1fd0a4f28419497f9722a3daafe3b4186f6b6457e0",
            "0x0000000000000000000000001d434906aa520e592fab2b82406beff859be8e82",
            "0x0000000000000000000000008d8290d49e88d16d81c6adf6c8774ed88762274a"
          ],
          "data": "0x",
          "blockHash": "0x3ce47ce67793e0ae4afaaafdd0f7b0caa591a9175416ec043653874a09c0edfd",
          "blockNumber": "0xd02011",
          "blockTimestamp": "0x68c3e53b",
          "transactionHash": "0x114c5abf8e774767102cf1a314ea0d3cf93e41fb17f0f97784e7ce85c1eb3a8b",
          "transactionIndex": "0x1",
          "logIndex": "0x0",
          "removed": false
        }
      ],
      "logsBloom": "0x04020000000000000000000000000000000000400000000000800000000000000040000000000000000100000000000000000000000000000000000000000000000000000004000000000000000000000001000000000000000000000000000000000000000000000000000000000000000000000000000000000000000000400000000000000000000000000000000000000000000000000000000000000000080000000000000000000000000000000000000000000000000000000000000000000000000000000000000000000000000000000800000000000000000000000000000000000000000000000000000040000000000000000000000000000000",
      "type": "0x2",
      "transactionHash": "0x114c5abf8e774767102cf1a314ea0d3cf93e41fb17f0f97784e7ce85c1eb3a8b",
      "transactionIndex": "0x1",
      "blockHash": "0x3ce47ce67793e0ae4afaaafdd0f7b0caa591a9175416ec043653874a09c0edfd",
      "blockNumber": "0xd02011",
      "gasUsed": "0x8c5d",
      "effectiveGasPrice": "0x158b238b",
      "from": "0x1d434906aa520e592fab2b82406beff859be8e82",
      "to": "0xe1851f6ac161d1911104b19918fb866ef6fee577",
      "contractAddress": null
    },
    {
      "status": "0x1",
      "cumulativeGasUsed": "0x33d00",
      "logs": [
        {
          "address": "0x3a73033c0b1407574c76bdbac67f126f6b4a9aa9",
          "topics": [
            "0x6ee10e9ed4d6ce9742703a498707862f4b00f1396a87195eb93267b3d7983981"
          ],
          "data": "0x000000000000000000000000b7583b07c12286bb9026a7053b0c44e8f5fa86240000000000000000000000008d8290d49e88d16d81c6adf6c8774ed88762274a",
          "blockHash": "0xe3659a5049f1d4ea40a7ee2df39b86400a3e4706e0fb9eb226e2bf35df2e7fbc",
          "blockNumber": "0xd02013",
          "blockTimestamp": "0x68c3e53d",
          "transactionHash": "0xbf9b162acb1df960aed783ac234a219289ff6ee4d93b3f1309708b7134c2f481",
          "transactionIndex": "0x1",
          "logIndex": "0x0",
          "removed": false
        }
      ],
      "logsBloom": "0x00000000000000000000000000000000000000000000000000800000000000000000000000000000000000000000000000000002000000000000000000000000000000000000000000000100000000000000000000000000000000000000000000000000000000000000000000000000000010000000000000000000000000000000000000000000000000000000000000000000000000000000000000000000000000000000000000000000000000000000000000000000000000000000000400000001000000000000000000000000000000000000000000000000000000000000000000000000000000000000000000000000000000000000000000000000",
      "type": "0x2",
      "transactionHash": "0xbf9b162acb1df960aed783ac234a219289ff6ee4d93b3f1309708b7134c2f481",
      "transactionIndex": "0x1",
      "blockHash": "0xe3659a5049f1d4ea40a7ee2df39b86400a3e4706e0fb9eb226e2bf35df2e7fbc",
      "blockNumber": "0xd02013",
      "gasUsed": "0xa069",
      "effectiveGasPrice": "0x159e24cf",
      "from": "0x1d434906aa520e592fab2b82406beff859be8e82",
      "to": "0xb7583b07c12286bb9026a7053b0c44e8f5fa8624",
      "contractAddress": null
    },
    {
      "status": "0x1",
      "cumulativeGasUsed": "0x7ec99",
      "logs": [
        {
          "address": "0xb7583b07c12286bb9026a7053b0c44e8f5fa8624",
          "topics": [
            "0x8be0079c531659141344cd1fd0a4f28419497f9722a3daafe3b4186f6b6457e0",
            "0x0000000000000000000000001d434906aa520e592fab2b82406beff859be8e82",
            "0x0000000000000000000000008d8290d49e88d16d81c6adf6c8774ed88762274a"
          ],
          "data": "0x",
          "blockHash": "0xa5189face804c329ebed9a4ac23f69c1fd3744ac2ca69ce98321b9edf350434a",
          "blockNumber": "0xd02015",
          "blockTimestamp": "0x68c3e53f",
          "transactionHash": "0xf53b39a0dd96b7004d8c8c2bd3e19a1ee901f6515433740bf0ad648eae9e5ead",
          "transactionIndex": "0x1",
          "logIndex": "0x8",
          "removed": false
        }
      ],
      "logsBloom": "0x00020000000000000000000000000000000000400000000000800000000000000040000000000000000100000000000000000000000000000000000000000000000000000000000000000000000000000001000000000000000000000000000000000000400000000000000000000000000000000000000000000000000000400000000000000000000000000000000000000000000000000000000000000000080000000000000000000000000000000000000000000000000000000040000000000000000000000000000000000000000000000800000000000000000000001000000000000000000000000000000000000000000000000000000000000000",
      "type": "0x2",
      "transactionHash": "0xf53b39a0dd96b7004d8c8c2bd3e19a1ee901f6515433740bf0ad648eae9e5ead",
      "transactionIndex": "0x1",
      "blockHash": "0xa5189face804c329ebed9a4ac23f69c1fd3744ac2ca69ce98321b9edf350434a",
      "blockNumber": "0xd02015",
      "gasUsed": "0x8c5d",
      "effectiveGasPrice": "0x151f8eb3",
      "from": "0x1d434906aa520e592fab2b82406beff859be8e82",
      "to": "0xb7583b07c12286bb9026a7053b0c44e8f5fa8624",
      "contractAddress": null
    },
    {
      "status": "0x1",
      "cumulativeGasUsed": "0xa069",
      "logs": [
        {
          "address": "0x3a73033c0b1407574c76bdbac67f126f6b4a9aa9",
          "topics": [
            "0x6ee10e9ed4d6ce9742703a498707862f4b00f1396a87195eb93267b3d7983981"
          ],
          "data": "0x000000000000000000000000a444f92734be29e71b8a4762595c9733ab2c9c470000000000000000000000008d8290d49e88d16d81c6adf6c8774ed88762274a",
          "blockHash": "0xb40871af7c6b6df6ed9779ced254a7686d455a7ad3d1ef4028caf36bde711248",
          "blockNumber": "0xd02017",
          "blockTimestamp": "0x68c3e541",
          "transactionHash": "0x6fb60517118fc6ddd50b2f83afaedd2a874de2aaee86fc6ecfeb838451ecb54e",
          "transactionIndex": "0x0",
          "logIndex": "0x0",
          "removed": false
        }
      ],
      "logsBloom": "0x00000000000000000000000000000000000000000000000000800000000000000000000000000000000000000000000000000002000000000000000000000000000000000000000000000100000000000000000000000000000000000000000000000000000000000000000000000000000010000000000000000000000000000000000000000000000000000000000000000000000000000000000000000000000000000000000000000000000000000000000000000000000000000000000400000001000000000000000000000000000000000000000000000000000000000000000000000000000000000000000000000000000000000000000000000000",
      "type": "0x2",
      "transactionHash": "0x6fb60517118fc6ddd50b2f83afaedd2a874de2aaee86fc6ecfeb838451ecb54e",
      "transactionIndex": "0x0",
      "blockHash": "0xb40871af7c6b6df6ed9779ced254a7686d455a7ad3d1ef4028caf36bde711248",
      "blockNumber": "0xd02017",
      "gasUsed": "0xa069",
      "effectiveGasPrice": "0x1467fda5",
      "from": "0x1d434906aa520e592fab2b82406beff859be8e82",
      "to": "0xa444f92734be29e71b8a4762595c9733ab2c9c47",
      "contractAddress": null
    },
    {
      "status": "0x1",
      "cumulativeGasUsed": "0x79225",
      "logs": [
        {
          "address": "0xa444f92734be29e71b8a4762595c9733ab2c9c47",
          "topics": [
            "0x8be0079c531659141344cd1fd0a4f28419497f9722a3daafe3b4186f6b6457e0",
            "0x0000000000000000000000001d434906aa520e592fab2b82406beff859be8e82",
            "0x0000000000000000000000008d8290d49e88d16d81c6adf6c8774ed88762274a"
          ],
          "data": "0x",
          "blockHash": "0xc0df35c879abcfd8d1007e9468b1ee610c40907840a7fc2148578a6cb70f903a",
          "blockNumber": "0xd02019",
          "blockTimestamp": "0x68c3e543",
          "transactionHash": "0x866d6cbc7da5dc4eb81aab9220019d49881d8a57baa1140ae5cb87ab83c07d70",
          "transactionIndex": "0x3",
          "logIndex": "0x5",
          "removed": false
        }
      ],
      "logsBloom": "0x00020000000000000000000000000000000000400000000000800000000000000040000000000000000100000000000000000000000000000000000000000000000000000000000000000000000000000001000000000000000000000000000000000000000000000000000000000000000000000000000000000000000000400000000000000000000000000000000000000000000000000000000000000000080000000000000000000000000000000000000000000000000000000000000000000000000000000000000000000000000000000800000000000000200000000000000000000000000000000000000000100000080000000000000000000000",
      "type": "0x2",
      "transactionHash": "0x866d6cbc7da5dc4eb81aab9220019d49881d8a57baa1140ae5cb87ab83c07d70",
      "transactionIndex": "0x3",
      "blockHash": "0xc0df35c879abcfd8d1007e9468b1ee610c40907840a7fc2148578a6cb70f903a",
      "blockNumber": "0xd02019",
      "gasUsed": "0x8c5d",
      "effectiveGasPrice": "0x13aa29cf",
      "from": "0x1d434906aa520e592fab2b82406beff859be8e82",
      "to": "0xa444f92734be29e71b8a4762595c9733ab2c9c47",
      "contractAddress": null
    },
    {
      "status": "0x1",
      "cumulativeGasUsed": "0x2d1f6",
      "logs": [
        {
          "address": "0x3a73033c0b1407574c76bdbac67f126f6b4a9aa9",
          "topics": [
            "0x6ee10e9ed4d6ce9742703a498707862f4b00f1396a87195eb93267b3d7983981"
          ],
          "data": "0x000000000000000000000000a5c2889f0e3da388df3bf87f8f0b8e56bb863c410000000000000000000000008d8290d49e88d16d81c6adf6c8774ed88762274a",
          "blockHash": "0x9ae6799a24f77470a114004cd54378aeb9edbeedd7f7640b3d3b7814464035c7",
          "blockNumber": "0xd0201a",
          "blockTimestamp": "0x68c3e544",
          "transactionHash": "0x021b680be6cb1203985a0bc52e4a9130585e98259a1193b82c80fc9313e5cd06",
          "transactionIndex": "0x1",
          "logIndex": "0x5",
          "removed": false
        }
      ],
      "logsBloom": "0x00000000000000000000000000000000000000000000000000800000000000000000000000000000000000000000000000000002000000000000000000000000000000000000000000000100000000000000000000000000000000000000000000000000000000000000000000000000000010000000000000000000000000000000000000000000000000000000000000000000000000000000000000000000000000000000000000000000000000000000000000000000000000000000000400000001000000000000000000000000000000000000000000000000000000000000000000000000000000000000000000000000000000000000000000000000",
      "type": "0x2",
      "transactionHash": "0x021b680be6cb1203985a0bc52e4a9130585e98259a1193b82c80fc9313e5cd06",
      "transactionIndex": "0x1",
      "blockHash": "0x9ae6799a24f77470a114004cd54378aeb9edbeedd7f7640b3d3b7814464035c7",
      "blockNumber": "0xd0201a",
      "gasUsed": "0xa069",
      "effectiveGasPrice": "0x1452256d",
      "from": "0x1d434906aa520e592fab2b82406beff859be8e82",
      "to": "0xa5c2889f0e3da388df3bf87f8f0b8e56bb863c41",
      "contractAddress": null
    },
    {
      "status": "0x1",
      "cumulativeGasUsed": "0x8c5d",
      "logs": [
        {
          "address": "0xa5c2889f0e3da388df3bf87f8f0b8e56bb863c41",
          "topics": [
            "0x8be0079c531659141344cd1fd0a4f28419497f9722a3daafe3b4186f6b6457e0",
            "0x0000000000000000000000001d434906aa520e592fab2b82406beff859be8e82",
            "0x0000000000000000000000008d8290d49e88d16d81c6adf6c8774ed88762274a"
          ],
          "data": "0x",
          "blockHash": "0xd4045fb0d0067c71c4049dcf49416bb92885c0e8991460da218422a76ade15f1",
          "blockNumber": "0xd0201b",
          "blockTimestamp": "0x68c3e545",
          "transactionHash": "0x9ba11f1f47d462d6e1cb03c56546e26d0bca7faf4760f9f63282bab8dbcfe224",
          "transactionIndex": "0x0",
          "logIndex": "0x0",
          "removed": false
        }
      ],
      "logsBloom": "0x00020000000000400000000000000000000000400000000000800000000000000040000000000000000100000000000000000000000000000000000000000000000000000000000000000000000000000001000000040000000000000000000000000000000000000000000000000000000000000000000000000000000000400000000000000000000000000000000000000000000000000000000000000000080000000000000000000000000000000000000000000000000000000000000000000000000000000000000000200000000000000800000000000000000000000000000000000000000000000000000000000000000000000000000000000000",
      "type": "0x2",
      "transactionHash": "0x9ba11f1f47d462d6e1cb03c56546e26d0bca7faf4760f9f63282bab8dbcfe224",
      "transactionIndex": "0x0",
      "blockHash": "0xd4045fb0d0067c71c4049dcf49416bb92885c0e8991460da218422a76ade15f1",
      "blockNumber": "0xd0201b",
      "gasUsed": "0x8c5d",
      "effectiveGasPrice": "0x13a658d8",
      "from": "0x1d434906aa520e592fab2b82406beff859be8e82",
      "to": "0xa5c2889f0e3da388df3bf87f8f0b8e56bb863c41",
      "contractAddress": null
    },
    {
      "status": "0x1",
      "cumulativeGasUsed": "0x5aa62",
      "logs": [
        {
          "address": "0x3a73033c0b1407574c76bdbac67f126f6b4a9aa9",
          "topics": [
            "0x6ee10e9ed4d6ce9742703a498707862f4b00f1396a87195eb93267b3d7983981"
          ],
          "data": "0x000000000000000000000000c6563942d1ae02dd6e450847de3753011ca3eee10000000000000000000000008d8290d49e88d16d81c6adf6c8774ed88762274a",
          "blockHash": "0x047dc88be1cff3246b3971cde78d06fbddd85f3bd8efde95e9179a5ef49ce631",
          "blockNumber": "0xd0201d",
          "blockTimestamp": "0x68c3e547",
          "transactionHash": "0xf044c52b5de3c05b20e2b9a3bd0384980836f475a46c9d3559910d5d03cf5ef5",
          "transactionIndex": "0x3",
          "logIndex": "0x9",
          "removed": false
        }
      ],
      "logsBloom": "0x00000000000000000000000000000000000000000000000000800000000000000000000000000000000000000000000000000002000000000000000000000000000000000000000000000100000000000000000000000000000000000000000000000000000000000000000000000000000010000000000000000000000000000000000000000000000000000000000000000000000000000000000000000000000000000000000000000000000000000000000000000000000000000000000400000001000000000000000000000000000000000000000000000000000000000000000000000000000000000000000000000000000000000000000000000000",
      "type": "0x2",
      "transactionHash": "0xf044c52b5de3c05b20e2b9a3bd0384980836f475a46c9d3559910d5d03cf5ef5",
      "transactionIndex": "0x3",
      "blockHash": "0x047dc88be1cff3246b3971cde78d06fbddd85f3bd8efde95e9179a5ef49ce631",
      "blockNumber": "0xd0201d",
      "gasUsed": "0xa069",
      "effectiveGasPrice": "0x12cdf27a",
      "from": "0x1d434906aa520e592fab2b82406beff859be8e82",
      "to": "0xc6563942d1ae02dd6e450847de3753011ca3eee1",
      "contractAddress": null
    },
    {
      "status": "0x1",
      "cumulativeGasUsed": "0xf1bdf",
      "logs": [
        {
          "address": "0xc6563942d1ae02dd6e450847de3753011ca3eee1",
          "topics": [
            "0x8be0079c531659141344cd1fd0a4f28419497f9722a3daafe3b4186f6b6457e0",
            "0x0000000000000000000000001d434906aa520e592fab2b82406beff859be8e82",
            "0x0000000000000000000000008d8290d49e88d16d81c6adf6c8774ed88762274a"
          ],
          "data": "0x",
          "blockHash": "0x7b916b9261ccab3e44fea5fec9d69ac954c191543cccbf2595651153c53e367e",
          "blockNumber": "0xd02021",
          "blockTimestamp": "0x68c3e54a",
          "transactionHash": "0x662db8f8bfbeb29a7e42860a4709aa8682b47ab2d8e9ba902b383226aa5bec33",
          "transactionIndex": "0x7",
          "logIndex": "0xe",
          "removed": false
        }
      ],
      "logsBloom": "0x00020000000000000000000000000000000000400000000000800000000000000040000001000000000100000000000000000000000000000000000000000000000000000000000000000000000000200001000000000000000000000000000000000000000000000000000000000000000000000000000000000000000000400000000000000000000000000000000000000000000000000000000000020000080000000000000000000000000000000000000000000000000000000000000000000000000000000000000000000000000000000800000000000000000000000000000000000000000000000000000000000000000000000000000000000000",
      "type": "0x2",
      "transactionHash": "0x662db8f8bfbeb29a7e42860a4709aa8682b47ab2d8e9ba902b383226aa5bec33",
      "transactionIndex": "0x7",
      "blockHash": "0x7b916b9261ccab3e44fea5fec9d69ac954c191543cccbf2595651153c53e367e",
      "blockNumber": "0xd02021",
      "gasUsed": "0x8c5d",
      "effectiveGasPrice": "0x1469a8b3",
      "from": "0x1d434906aa520e592fab2b82406beff859be8e82",
      "to": "0xc6563942d1ae02dd6e450847de3753011ca3eee1",
      "contractAddress": null
    },
    {
      "status": "0x1",
      "cumulativeGasUsed": "0x7a97e",
      "logs": [
        {
          "address": "0xb4d6a05f58e1671c4ecd5d6544c83954b44fb8d5",
          "topics": [
            "0x8be0079c531659141344cd1fd0a4f28419497f9722a3daafe3b4186f6b6457e0",
            "0x0000000000000000000000001d434906aa520e592fab2b82406beff859be8e82",
            "0x0000000000000000000000008d8290d49e88d16d81c6adf6c8774ed88762274a"
          ],
          "data": "0x",
          "blockHash": "0x865f23b75e809b2ffcae13e1988e9a45bc49a25ac7da189e8d6630c5d93253bf",
          "blockNumber": "0xd02024",
          "blockTimestamp": "0x68c3e54d",
          "transactionHash": "0x90279d89d460d0de1072641294ab126bb760d64cf92184e58d8007a8c85289fe",
          "transactionIndex": "0x4",
          "logIndex": "0x10",
          "removed": false
        }
      ],
      "logsBloom": "0x00020000000000000000000000000000000000400000000000800000000000000040000000000000000100000000000000000000000000000000000000000000000000000000000000000000000400000001000000000000000000000000000000000000002000000000000000000080000000000000000000000000000000400000000000000000000000000000000000000000000000000000000000000000080000000000000000000000000000000000000000000000000000000000000000000000000000000000000000000000000000000800000000000000000000000000000000000000000000000000000000000000000000000000000000000000",
      "type": "0x2",
      "transactionHash": "0x90279d89d460d0de1072641294ab126bb760d64cf92184e58d8007a8c85289fe",
      "transactionIndex": "0x4",
      "blockHash": "0x865f23b75e809b2ffcae13e1988e9a45bc49a25ac7da189e8d6630c5d93253bf",
      "blockNumber": "0xd02024",
      "gasUsed": "0x6fb7",
      "effectiveGasPrice": "0x1512ff9b",
      "from": "0x1d434906aa520e592fab2b82406beff859be8e82",
      "to": "0xb4d6a05f58e1671c4ecd5d6544c83954b44fb8d5",
      "contractAddress": null
    }
  ],
  "libraries": [],
  "pending": [],
  "returns": {},
  "timestamp": 1757668686377,
  "chain": 999,
  "commit": "6b1c17f"
}