{
  "transactions": [
    {
      "hash": "0x34391e60de136dcb19c2df1e6c9552e68c574d52b59f119ab47ae0a5726fda40",
      "transactionType": "CALL",
      "contractName": null,
      "contractAddress": "0x741f0d8bde14140f62107fc60a0ee122b37d4630",
      "function": "batchBridgeWithEthFeeFromWallet((uint32,bytes32,uint256,uint256,bytes,bytes,bytes)[],address[],address[])",
      "arguments": [
        "[(30168, 0x3c1b094729102e0c095ee2417e5940ee4f1eab4763f6113fe75281ab74c62398, 1000000000000000000, 0, 0x, 0x, 0x), (30325, 0x09d0eb2763c96e085fa74ba6cf0d49136f8654c48ec7dbc59279a9066c7dd409, 1000000000000000000, 0, 0x, 0x, 0x), (30108, 0x09d0eb2763c96e085fa74ba6cf0d49136f8654c48ec7dbc59279a9066c7dd409, 1000000000000000000, 0, 0x, 0x, 0x)]",
        "[0x57558Cb8d6005DE0BAe8a2789d5EfaaE52dba5a8, 0x57558Cb8d6005DE0BAe8a2789d5EfaaE52dba5a8, 0x57558Cb8d6005DE0BAe8a2789d5EfaaE52dba5a8]",
        "[0x741F0d8Bde14140f62107FC60A0EE122B37D4630, 0x741F0d8Bde14140f62107FC60A0EE122B37D4630, 0x741F0d8Bde14140f62107FC60A0EE122B37D4630]"
      ],
      "transaction": {
        "from": "0x45dce8e4f2dc005a5f28206a46cb034697eeda8e",
        "to": "0x741f0d8bde14140f62107fc60a0ee122b37d4630",
        "gas": "0x1382f9",
        "value": "0x7c72387dd281fe3",
        "input": "0xb70d4241000000000000000000000000000000000000000000000000000000000000006000000000000000000000000000000000000000000000000000000000000004a000000000000000000000000000000000000000000000000000000000000005200000000000000000000000000000000000000000000000000000000000000003000000000000000000000000000000000000000000000000000000000000006000000000000000000000000000000000000000000000000000000000000001a000000000000000000000000000000000000000000000000000000000000002e000000000000000000000000000000000000000000000000000000000000075d83c1b094729102e0c095ee2417e5940ee4f1eab4763f6113fe75281ab74c623980000000000000000000000000000000000000000000000000de0b6b3a7640000000000000000000000000000000000000000000000000000000000000000000000000000000000000000000000000000000000000000000000000000000000e000000000000000000000000000000000000000000000000000000000000001000000000000000000000000000000000000000000000000000000000000000120000000000000000000000000000000000000000000000000000000000000000000000000000000000000000000000000000000000000000000000000000000000000000000000000000000000000000000000000000000000000000000000000000000000000000000000000000000000000000000000000000000000000767509d0eb2763c96e085fa74ba6cf0d49136f8654c48ec7dbc59279a9066c7dd4090000000000000000000000000000000000000000000000000de0b6b3a7640000000000000000000000000000000000000000000000000000000000000000000000000000000000000000000000000000000000000000000000000000000000e000000000000000000000000000000000000000000000000000000000000001000000000000000000000000000000000000000000000000000000000000000120000000000000000000000000000000000000000000000000000000000000000000000000000000000000000000000000000000000000000000000000000000000000000000000000000000000000000000000000000000000000000000000000000000000000000000000000000000000000000000000000000000000000759c09d0eb2763c96e085fa74ba6cf0d49136f8654c48ec7dbc59279a9066c7dd4090000000000000000000000000000000000000000000000000de0b6b3a7640000000000000000000000000000000000000000000000000000000000000000000000000000000000000000000000000000000000000000000000000000000000e000000000000000000000000000000000000000000000000000000000000001000000000000000000000000000000000000000000000000000000000000000120000000000000000000000000000000000000000000000000000000000000000000000000000000000000000000000000000000000000000000000000000000000000000000000000000000000000000000000000000000000000000000000000000000000000000000000000000000000000000000000000000000000000000300000000000000000000000057558cb8d6005de0bae8a2789d5efaae52dba5a800000000000000000000000057558cb8d6005de0bae8a2789d5efaae52dba5a800000000000000000000000057558cb8d6005de0bae8a2789d5efaae52dba5a80000000000000000000000000000000000000000000000000000000000000003000000000000000000000000741f0d8bde14140f62107fc60a0ee122b37d4630000000000000000000000000741f0d8bde14140f62107fc60a0ee122b37d4630000000000000000000000000741f0d8bde14140f62107fc60a0ee122b37d4630",
        "nonce": "0x9d",
        "chainId": "0x138de"
      },
      "additionalContracts": [],
      "isFixedGasLimit": false
    }
  ],
  "receipts": [
    {
      "status": "0x1",
      "cumulativeGasUsed": "0x176869c",
      "logs": [
        {
          "address": "0x57558cb8d6005de0bae8a2789d5efaae52dba5a8",
          "topics": [
            "0xddf252ad1be2c89b69c2b068fc378daa952ba7f163c4a11628f55a4df523b3ef",
            "0x000000000000000000000000741f0d8bde14140f62107fc60a0ee122b37d4630",
            "0x0000000000000000000000000000000000000000000000000000000000000000"
          ],
          "data": "0x0000000000000000000000000000000000000000000000000de0b6b3a7640000",
          "blockHash": "0xf03df8753168f7875c439257f7cc8c95dc81d5a5ce6455bdbb612e7c876b4541",
          "blockNumber": "0x72bca7",
          "blockTimestamp": "0x686f2570",
          "transactionHash": "0x34391e60de136dcb19c2df1e6c9552e68c574d52b59f119ab47ae0a5726fda40",
          "transactionIndex": "0x6",
          "logIndex": "0x25",
          "removed": false
        },
        {
          "address": "0xc39161c743d0307eb9bcc9fef03eeb9dc4802de7",
          "topics": [
            "0x61ed099e74a97a1d7f8bb0952a88ca8b7b8ebd00c126ea04671f92a81213318a"
          ],
          "data": "0x0000000000000000000000004208d6e27538189bb48e603d6123a94b8abe0a0b00000000000000000000000000000000000000000000000004110f93a1b47ae1",
          "blockHash": "0xf03df8753168f7875c439257f7cc8c95dc81d5a5ce6455bdbb612e7c876b4541",
          "blockNumber": "0x72bca7",
          "blockTimestamp": "0x686f2570",
          "transactionHash": "0x34391e60de136dcb19c2df1e6c9552e68c574d52b59f119ab47ae0a5726fda40",
          "transactionIndex": "0x6",
          "logIndex": "0x26",
          "removed": false
        },
        {
          "address": "0xc39161c743d0307eb9bcc9fef03eeb9dc4802de7",
          "topics": [
            "0x07ea52d82345d6e838192107d8fd7123d9c2ec8e916cd0aad13fd2b60db24644"
          ],
          "data": "0x000000000000000000000000000000000000000000000000000000000000006000000000000000000000000000000000000000000000000000000000000000e000000000000000000000000000000000000000000000000000000000000001000000000000000000000000000000000000000000000000000000000000000003000000000000000000000000282b3386571f7f794450d5789911a9804fa346b4000000000000000000000000559a194dae0508342e7ce1ad96e7e90a77f8bc4c000000000000000000000000ecbaa45c33ce6fa284995e5f8314f5bc7f1c20080000000000000000000000000000000000000000000000000000000000000000000000000000000000000000000000000000000000000000000000000000000300000000000000000000000000000000000000000000000000212cc67b3127cf00000000000000000000000000000000000000000000000000212cc67b3127cf00000000000000000000000000000000000000000000000000212cc67b3127cf",
          "blockHash": "0xf03df8753168f7875c439257f7cc8c95dc81d5a5ce6455bdbb612e7c876b4541",
          "blockNumber": "0x72bca7",
          "blockTimestamp": "0x686f2570",
          "transactionHash": "0x34391e60de136dcb19c2df1e6c9552e68c574d52b59f119ab47ae0a5726fda40",
          "transactionIndex": "0x6",
          "logIndex": "0x27",
          "removed": false
        },
        {
          "address": "0x6f475642a6e85809b1c36fa62763669b1b48dd5b",
          "topics": [
            "0x1ab700d4ced0c005b164c0f789fd09fcbb0156d4c2041b8a3bfbcd961cd1567f"
          ],
          "data": "0x00000000000000000000000000000000000000000000000000000000000000600000000000000000000000000000000000000000000000000000000000000120000000000000000000000000c39161c743d0307eb9bcc9fef03eeb9dc4802de700000000000000000000000000000000000000000000000000000000000000990100000000000000010000769a00000000000000000000000057558cb8d6005de0bae8a2789d5efaae52dba5a8000075d8006d6ff762f7fcb768c550bae67f7a6a3a94969e469b6e0689563ace4e3759ad2f7ff25e1dff879735400ed1dbcf57d096b2a41a7279b515743744da2ef5654a3c1b094729102e0c095ee2417e5940ee4f1eab4763f6113fe75281ab74c6239800000000000f424000000000000000000000000000000000000000000000000000000000000000000000000000002600030100210100000000000000000000000000030d40000000000000000000000000002625a00000000000000000000000000000000000000000000000000000",
          "blockHash": "0xf03df8753168f7875c439257f7cc8c95dc81d5a5ce6455bdbb612e7c876b4541",
          "blockNumber": "0x72bca7",
          "blockTimestamp": "0x686f2570",
          "transactionHash": "0x34391e60de136dcb19c2df1e6c9552e68c574d52b59f119ab47ae0a5726fda40",
          "transactionIndex": "0x6",
          "logIndex": "0x28",
          "removed": false
        },
        {
          "address": "0x57558cb8d6005de0bae8a2789d5efaae52dba5a8",
          "topics": [
            "0x85496b760a4b7f8d66384b9df21b381f5d1b1e79f229a47aaf4c232edc2fe59a",
            "0x2f7ff25e1dff879735400ed1dbcf57d096b2a41a7279b515743744da2ef5654a",
            "0x000000000000000000000000741f0d8bde14140f62107fc60a0ee122b37d4630"
          ],
          "data": "0x00000000000000000000000000000000000000000000000000000000000075d80000000000000000000000000000000000000000000000000de0b6b3a76400000000000000000000000000000000000000000000000000000de0b6b3a7640000",
          "blockHash": "0xf03df8753168f7875c439257f7cc8c95dc81d5a5ce6455bdbb612e7c876b4541",
          "blockNumber": "0x72bca7",
          "blockTimestamp": "0x686f2570",
          "transactionHash": "0x34391e60de136dcb19c2df1e6c9552e68c574d52b59f119ab47ae0a5726fda40",
          "transactionIndex": "0x6",
          "logIndex": "0x29",
          "removed": false
        },
        {
          "address": "0x57558cb8d6005de0bae8a2789d5efaae52dba5a8",
          "topics": [
            "0xddf252ad1be2c89b69c2b068fc378daa952ba7f163c4a11628f55a4df523b3ef",
            "0x000000000000000000000000741f0d8bde14140f62107fc60a0ee122b37d4630",
            "0x0000000000000000000000000000000000000000000000000000000000000000"
          ],
          "data": "0x0000000000000000000000000000000000000000000000000de0b6b3a7640000",
          "blockHash": "0xf03df8753168f7875c439257f7cc8c95dc81d5a5ce6455bdbb612e7c876b4541",
          "blockNumber": "0x72bca7",
          "blockTimestamp": "0x686f2570",
          "transactionHash": "0x34391e60de136dcb19c2df1e6c9552e68c574d52b59f119ab47ae0a5726fda40",
          "transactionIndex": "0x6",
          "logIndex": "0x2a",
          "removed": false
        },
        {
          "address": "0xc39161c743d0307eb9bcc9fef03eeb9dc4802de7",
          "topics": [
            "0x61ed099e74a97a1d7f8bb0952a88ca8b7b8ebd00c126ea04671f92a81213318a"
          ],
          "data": "0x0000000000000000000000004208d6e27538189bb48e603d6123a94b8abe0a0b0000000000000000000000000000000000000000000000000015c167404ed7a4",
          "blockHash": "0xf03df8753168f7875c439257f7cc8c95dc81d5a5ce6455bdbb612e7c876b4541",
          "blockNumber": "0x72bca7",
          "blockTimestamp": "0x686f2570",
          "transactionHash": "0x34391e60de136dcb19c2df1e6c9552e68c574d52b59f119ab47ae0a5726fda40",
          "transactionIndex": "0x6",
          "logIndex": "0x2b",
          "removed": false
        },
        {
          "address": "0xc39161c743d0307eb9bcc9fef03eeb9dc4802de7",
          "topics": [
            "0x07ea52d82345d6e838192107d8fd7123d9c2ec8e916cd0aad13fd2b60db24644"
          ],
          "data": "0x000000000000000000000000000000000000000000000000000000000000006000000000000000000000000000000000000000000000000000000000000000e000000000000000000000000000000000000000000000000000000000000001000000000000000000000000000000000000000000000000000000000000000003000000000000000000000000282b3386571f7f794450d5789911a9804fa346b4000000000000000000000000559a194dae0508342e7ce1ad96e7e90a77f8bc4c000000000000000000000000ecbaa45c33ce6fa284995e5f8314f5bc7f1c2008000000000000000000000000000000000000000000000000000000000000000000000000000000000000000000000000000000000000000000000000000000030000000000000000000000000000000000000000000000000015c1674050c2f400000000000000000000000000000000000000000000000000000000000d75e400000000000000000000000000000000000000000000000000000000000d75e4",
          "blockHash": "0xf03df8753168f7875c439257f7cc8c95dc81d5a5ce6455bdbb612e7c876b4541",
          "blockNumber": "0x72bca7",
          "blockTimestamp": "0x686f2570",
          "transactionHash": "0x34391e60de136dcb19c2df1e6c9552e68c574d52b59f119ab47ae0a5726fda40",
          "transactionIndex": "0x6",
          "logIndex": "0x2c",
          "removed": false
        },
        {
          "address": "0x6f475642a6e85809b1c36fa62763669b1b48dd5b",
          "topics": [
            "0x1ab700d4ced0c005b164c0f789fd09fcbb0156d4c2041b8a3bfbcd961cd1567f"
          ],
          "data": "0x00000000000000000000000000000000000000000000000000000000000000600000000000000000000000000000000000000000000000000000000000000120000000000000000000000000c39161c743d0307eb9bcc9fef03eeb9dc4802de700000000000000000000000000000000000000000000000000000000000000990100000000000000010000769a00000000000000000000000057558cb8d6005de0bae8a2789d5efaae52dba5a800007675a1bb74f0d5770dfc905c508e6273fadc595ddc15326cc907889bdfffa50602c8131a8c913a2c70a0c322954ba9c6aaa282452fbdd42b9d2e920bbf4c5710fbb409d0eb2763c96e085fa74ba6cf0d49136f8654c48ec7dbc59279a9066c7dd40900000000000f42400000000000000000000000000000000000000000000000000000000000000000000000000000160003010011010000000000000000000000000000138800000000000000000000",
          "blockHash": "0xf03df8753168f7875c439257f7cc8c95dc81d5a5ce6455bdbb612e7c876b4541",
          "blockNumber": "0x72bca7",
          "blockTimestamp": "0x686f2570",
          "transactionHash": "0x34391e60de136dcb19c2df1e6c9552e68c574d52b59f119ab47ae0a5726fda40",
          "transactionIndex": "0x6",
          "logIndex": "0x2d",
          "removed": false
        },
        {
          "address": "0x57558cb8d6005de0bae8a2789d5efaae52dba5a8",
          "topics": [
            "0x85496b760a4b7f8d66384b9df21b381f5d1b1e79f229a47aaf4c232edc2fe59a",
            "0x131a8c913a2c70a0c322954ba9c6aaa282452fbdd42b9d2e920bbf4c5710fbb4",
            "0x000000000000000000000000741f0d8bde14140f62107fc60a0ee122b37d4630"
          ],
          "data": "0x00000000000000000000000000000000000000000000000000000000000076750000000000000000000000000000000000000000000000000de0b6b3a76400000000000000000000000000000000000000000000000000000de0b6b3a7640000",
          "blockHash": "0xf03df8753168f7875c439257f7cc8c95dc81d5a5ce6455bdbb612e7c876b4541",
          "blockNumber": "0x72bca7",
          "blockTimestamp": "0x686f2570",
          "transactionHash": "0x34391e60de136dcb19c2df1e6c9552e68c574d52b59f119ab47ae0a5726fda40",
          "transactionIndex": "0x6",
          "logIndex": "0x2e",
          "removed": false
        },
        {
          "address": "0x57558cb8d6005de0bae8a2789d5efaae52dba5a8",
          "topics": [
            "0xddf252ad1be2c89b69c2b068fc378daa952ba7f163c4a11628f55a4df523b3ef",
            "0x000000000000000000000000741f0d8bde14140f62107fc60a0ee122b37d4630",
            "0x0000000000000000000000000000000000000000000000000000000000000000"
          ],
          "data": "0x0000000000000000000000000000000000000000000000000de0b6b3a7640000",
          "blockHash": "0xf03df8753168f7875c439257f7cc8c95dc81d5a5ce6455bdbb612e7c876b4541",
          "blockNumber": "0x72bca7",
          "blockTimestamp": "0x686f2570",
          "transactionHash": "0x34391e60de136dcb19c2df1e6c9552e68c574d52b59f119ab47ae0a5726fda40",
          "transactionIndex": "0x6",
          "logIndex": "0x2f",
          "removed": false
        },
        {
          "address": "0xc39161c743d0307eb9bcc9fef03eeb9dc4802de7",
          "topics": [
            "0x61ed099e74a97a1d7f8bb0952a88ca8b7b8ebd00c126ea04671f92a81213318a"
          ],
          "data": "0x0000000000000000000000004208d6e27538189bb48e603d6123a94b8abe0a0b000000000000000000000000000000000000000000000000004d58f98161451b",
          "blockHash": "0xf03df8753168f7875c439257f7cc8c95dc81d5a5ce6455bdbb612e7c876b4541",
          "blockNumber": "0x72bca7",
          "blockTimestamp": "0x686f2570",
          "transactionHash": "0x34391e60de136dcb19c2df1e6c9552e68c574d52b59f119ab47ae0a5726fda40",
          "transactionIndex": "0x6",
          "logIndex": "0x30",
          "removed": false
        },
        {
          "address": "0xc39161c743d0307eb9bcc9fef03eeb9dc4802de7",
          "topics": [
            "0x07ea52d82345d6e838192107d8fd7123d9c2ec8e916cd0aad13fd2b60db24644"
          ],
          "data": "0x000000000000000000000000000000000000000000000000000000000000006000000000000000000000000000000000000000000000000000000000000000e000000000000000000000000000000000000000000000000000000000000001000000000000000000000000000000000000000000000000000000000000000003000000000000000000000000282b3386571f7f794450d5789911a9804fa346b4000000000000000000000000559a194dae0508342e7ce1ad96e7e90a77f8bc4c000000000000000000000000ecbaa45c33ce6fa284995e5f8314f5bc7f1c20080000000000000000000000000000000000000000000000000000000000000000000000000000000000000000000000000000000000000000000000000000000300000000000000000000000000000000000000000000000000f33b484296cb5e00000000000000000000000000000000000000000000000000f33b484296cb5e00000000000000000000000000000000000000000000000000f33b484296cb5e",
          "blockHash": "0xf03df8753168f7875c439257f7cc8c95dc81d5a5ce6455bdbb612e7c876b4541",
          "blockNumber": "0x72bca7",
          "blockTimestamp": "0x686f2570",
          "transactionHash": "0x34391e60de136dcb19c2df1e6c9552e68c574d52b59f119ab47ae0a5726fda40",
          "transactionIndex": "0x6",
          "logIndex": "0x31",
          "removed": false
        },
        {
          "address": "0x6f475642a6e85809b1c36fa62763669b1b48dd5b",
          "topics": [
            "0x1ab700d4ced0c005b164c0f789fd09fcbb0156d4c2041b8a3bfbcd961cd1567f"
          ],
          "data": "0x00000000000000000000000000000000000000000000000000000000000000600000000000000000000000000000000000000000000000000000000000000120000000000000000000000000c39161c743d0307eb9bcc9fef03eeb9dc4802de700000000000000000000000000000000000000000000000000000000000000990100000000000000010000769a00000000000000000000000057558cb8d6005de0bae8a2789d5efaae52dba5a80000759ca1bb74f0d5770dfc905c508e6273fadc595ddc15326cc907889bdfffa50602c87bb31dcef075887c35d8f36874b1df88db162b0279a58b0a36a1479e28d846d009d0eb2763c96e085fa74ba6cf0d49136f8654c48ec7dbc59279a9066c7dd40900000000000f42400000000000000000000000000000000000000000000000000000000000000000000000000000160003010011010000000000000000000000000000138800000000000000000000",
          "blockHash": "0xf03df8753168f7875c439257f7cc8c95dc81d5a5ce6455bdbb612e7c876b4541",
          "blockNumber": "0x72bca7",
          "blockTimestamp": "0x686f2570",
          "transactionHash": "0x34391e60de136dcb19c2df1e6c9552e68c574d52b59f119ab47ae0a5726fda40",
          "transactionIndex": "0x6",
          "logIndex": "0x32",
          "removed": false
        },
        {
          "address": "0x57558cb8d6005de0bae8a2789d5efaae52dba5a8",
          "topics": [
            "0x85496b760a4b7f8d66384b9df21b381f5d1b1e79f229a47aaf4c232edc2fe59a",
            "0x7bb31dcef075887c35d8f36874b1df88db162b0279a58b0a36a1479e28d846d0",
            "0x000000000000000000000000741f0d8bde14140f62107fc60a0ee122b37d4630"
          ],
          "data": "0x000000000000000000000000000000000000000000000000000000000000759c0000000000000000000000000000000000000000000000000de0b6b3a76400000000000000000000000000000000000000000000000000000de0b6b3a7640000",
          "blockHash": "0xf03df8753168f7875c439257f7cc8c95dc81d5a5ce6455bdbb612e7c876b4541",
          "blockNumber": "0x72bca7",
          "blockTimestamp": "0x686f2570",
          "transactionHash": "0x34391e60de136dcb19c2df1e6c9552e68c574d52b59f119ab47ae0a5726fda40",
          "transactionIndex": "0x6",
          "logIndex": "0x33",
          "removed": false
        }
      ],
      "logsBloom": "0x0010000000000000000000000004004000000000000000000000000000000000002000000000000000000000000000040001010000000000000000000000000000000200000000000000000800000000014000000000000000000000000000000000000002000000802000000000080001000000000000000000001000000000000000000080000000000008000000000000000000000000000000000000000200000000a000001000100000000000000000000000400000000440000000000000000002000000000000000080400000000000000000000000000000000020004000840000000000000000000000002000000000008000000000000000000000",
      "type": "0x2",
      "transactionHash": "0x34391e60de136dcb19c2df1e6c9552e68c574d52b59f119ab47ae0a5726fda40",
      "transactionIndex": "0x6",
      "blockHash": "0xf03df8753168f7875c439257f7cc8c95dc81d5a5ce6455bdbb612e7c876b4541",
      "blockNumber": "0x72bca7",
      "gasUsed": "0xe2046",
      "effectiveGasPrice": "0x420",
      "from": "0x45dce8e4f2dc005a5f28206a46cb034697eeda8e",
      "to": "0x741f0d8bde14140f62107fc60a0ee122b37d4630",
      "contractAddress": null
    }
  ],
  "libraries": [],
  "pending": [],
  "returns": {},
  "timestamp": 1752114546,
  "chain": 80094,
  "commit": "4a90ad4"
}