{
  "transactions": [
    {
      "hash": "0x83328eee48550c5dca3701dfb841cb7d6f0315e843893143a73cc945b0a93516",
      "transactionType": "CALL",
      "contractName": null,
      "contractAddress": "0x741f0d8bde14140f62107fc60a0ee122b37d4630",
      "function": "batchBridgeWithEthFeeFromWallet((uint32,bytes32,uint256,uint256,bytes,bytes,bytes)[],address[],address[])",
      "arguments": [
        "[(30211, 0x0000000000000000000000004a767e2ef83577225522ef8ed71056c6e3acb216, 1000000000000000000, 0, 0x, 0x, 0x), (30214, 0x000000000000000000000000741f0d8bde14140f62107fc60a0ee122b37d4630, 1000000000000000000, 0, 0x, 0x, 0x)]",
        "[0x57558Cb8d6005DE0BAe8a2789d5EfaaE52dba5a8, 0x57558Cb8d6005DE0BAe8a2789d5EfaaE52dba5a8]",
        "[0x741F0d8Bde14140f62107FC60A0EE122B37D4630, 0x741F0d8Bde14140f62107FC60A0EE122B37D4630]"
      ],
      "transaction": {
        "from": "0x45dce8e4f2dc005a5f28206a46cb034697eeda8e",
        "to": "0x741f0d8bde14140f62107fc60a0ee122b37d4630",
        "gas": "0xe1897",
        "value": "0x1f4646164a5a8c18",
        "input": "0xb70d42410000000000000000000000000000000000000000000000000000000000000060000000000000000000000000000000000000000000000000000000000000034000000000000000000000000000000000000000000000000000000000000003a000000000000000000000000000000000000000000000000000000000000000020000000000000000000000000000000000000000000000000000000000000040000000000000000000000000000000000000000000000000000000000000018000000000000000000000000000000000000000000000000000000000000076030000000000000000000000004a767e2ef83577225522ef8ed71056c6e3acb2160000000000000000000000000000000000000000000000000de0b6b3a7640000000000000000000000000000000000000000000000000000000000000000000000000000000000000000000000000000000000000000000000000000000000e0000000000000000000000000000000000000000000000000000000000000010000000000000000000000000000000000000000000000000000000000000001200000000000000000000000000000000000000000000000000000000000000000000000000000000000000000000000000000000000000000000000000000000000000000000000000000000000000000000000000000000000000000000000000000000000000000000000000000000000000000000000000000000000007606000000000000000000000000741f0d8bde14140f62107fc60a0ee122b37d46300000000000000000000000000000000000000000000000000de0b6b3a7640000000000000000000000000000000000000000000000000000000000000000000000000000000000000000000000000000000000000000000000000000000000e000000000000000000000000000000000000000000000000000000000000001000000000000000000000000000000000000000000000000000000000000000120000000000000000000000000000000000000000000000000000000000000000000000000000000000000000000000000000000000000000000000000000000000000000000000000000000000000000000000000000000000000000000000000000000000000000000000000000000000000000000000000000000000000000200000000000000000000000057558cb8d6005de0bae8a2789d5efaae52dba5a800000000000000000000000057558cb8d6005de0bae8a2789d5efaae52dba5a80000000000000000000000000000000000000000000000000000000000000002000000000000000000000000741f0d8bde14140f62107fc60a0ee122b37d4630000000000000000000000000741f0d8bde14140f62107fc60a0ee122b37d4630",
        "nonce": "0xc6",
        "chainId": "0x531"
      },
      "additionalContracts": [],
      "isFixedGasLimit": false
    }
  ],
  "receipts": [
    {
      "status": "0x1",
      "cumulativeGasUsed": "0x0",
      "logs": [
        {
          "address": "0x57558cb8d6005de0bae8a2789d5efaae52dba5a8",
          "topics": [
            "0xddf252ad1be2c89b69c2b068fc378daa952ba7f163c4a11628f55a4df523b3ef",
            "0x000000000000000000000000741f0d8bde14140f62107fc60a0ee122b37d4630",
            "0x0000000000000000000000000000000000000000000000000000000000000000"
          ],
          "data": "0x0000000000000000000000000000000000000000000000000de0b6b3a7640000",
          "blockHash": "0xda1ccec3c99d017c0e3dea2428eb846db060dbfb05494dd4431e400d7b3f6ba7",
          "blockNumber": "0x9d9bfec",
          "transactionHash": "0x83328eee48550c5dca3701dfb841cb7d6f0315e843893143a73cc945b0a93516",
          "transactionIndex": "0x13",
          "logIndex": "0x29",
          "removed": false
        },
        {
          "address": "0xc39161c743d0307eb9bcc9fef03eeb9dc4802de7",
          "topics": [
            "0x61ed099e74a97a1d7f8bb0952a88ca8b7b8ebd00c126ea04671f92a81213318a"
          ],
          "data": "0x000000000000000000000000c097ab8cd7b053326dfe9fb3e3a31a0cce3b526f00000000000000000000000000000000000000000000000008fd79f6c58de379",
          "blockHash": "0xda1ccec3c99d017c0e3dea2428eb846db060dbfb05494dd4431e400d7b3f6ba7",
          "blockNumber": "0x9d9bfec",
          "transactionHash": "0x83328eee48550c5dca3701dfb841cb7d6f0315e843893143a73cc945b0a93516",
          "transactionIndex": "0x13",
          "logIndex": "0x2a",
          "removed": false
        },
        {
          "address": "0xc39161c743d0307eb9bcc9fef03eeb9dc4802de7",
          "topics": [
            "0x07ea52d82345d6e838192107d8fd7123d9c2ec8e916cd0aad13fd2b60db24644"
          ],
          "data": "0x000000000000000000000000000000000000000000000000000000000000006000000000000000000000000000000000000000000000000000000000000000e0000000000000000000000000000000000000000000000000000000000000010000000000000000000000000000000000000000000000000000000000000000030000000000000000000000006788f52439aca6bff597d3eec2dc9a44b8fee84200000000000000000000000087048402c32632b7c4d0a892d82bc1160e8b2393000000000000000000000000e016f0f39fb7dcf14e9412d92f2049668d4d261200000000000000000000000000000000000000000000000000000000000000000000000000000000000000000000000000000000000000000000000000000003000000000000000000000000000000000000000000000000018a6607e5c62fbc000000000000000000000000000000000000000000000000018a6607e5c62fbc000000000000000000000000000000000000000000000000019afa735ddc8bec",
          "blockHash": "0xda1ccec3c99d017c0e3dea2428eb846db060dbfb05494dd4431e400d7b3f6ba7",
          "blockNumber": "0x9d9bfec",
          "transactionHash": "0x83328eee48550c5dca3701dfb841cb7d6f0315e843893143a73cc945b0a93516",
          "transactionIndex": "0x13",
          "logIndex": "0x2b",
          "removed": false
        },
        {
          "address": "0x1a44076050125825900e736c501f859c50fe728c",
          "topics": [
            "0x1ab700d4ced0c005b164c0f789fd09fcbb0156d4c2041b8a3bfbcd961cd1567f"
          ],
          "data": "0x00000000000000000000000000000000000000000000000000000000000000600000000000000000000000000000000000000000000000000000000000000120000000000000000000000000c39161c743d0307eb9bcc9fef03eeb9dc4802de700000000000000000000000000000000000000000000000000000000000000990100000000000000010000764800000000000000000000000057558cb8d6005de0bae8a2789d5efaae52dba5a800007603000000000000000000000000a057d8d4fc86a62801ce363c169b0a8d192f6cee34ae0c60d414ea7f339b21636a646f8c2e1387b9415d3a1bd473b64649a3aabe0000000000000000000000004a767e2ef83577225522ef8ed71056c6e3acb21600000000000f424000000000000000000000000000000000000000000000000000000000000000000000000000001600030100110100000000000000000000000000030d4000000000000000000000",
          "blockHash": "0xda1ccec3c99d017c0e3dea2428eb846db060dbfb05494dd4431e400d7b3f6ba7",
          "blockNumber": "0x9d9bfec",
          "transactionHash": "0x83328eee48550c5dca3701dfb841cb7d6f0315e843893143a73cc945b0a93516",
          "transactionIndex": "0x13",
          "logIndex": "0x2c",
          "removed": false
        },
        {
          "address": "0x57558cb8d6005de0bae8a2789d5efaae52dba5a8",
          "topics": [
            "0x85496b760a4b7f8d66384b9df21b381f5d1b1e79f229a47aaf4c232edc2fe59a",
            "0x34ae0c60d414ea7f339b21636a646f8c2e1387b9415d3a1bd473b64649a3aabe",
            "0x000000000000000000000000741f0d8bde14140f62107fc60a0ee122b37d4630"
          ],
          "data": "0x00000000000000000000000000000000000000000000000000000000000076030000000000000000000000000000000000000000000000000de0b6b3a76400000000000000000000000000000000000000000000000000000de0b6b3a7640000",
          "blockHash": "0xda1ccec3c99d017c0e3dea2428eb846db060dbfb05494dd4431e400d7b3f6ba7",
          "blockNumber": "0x9d9bfec",
          "transactionHash": "0x83328eee48550c5dca3701dfb841cb7d6f0315e843893143a73cc945b0a93516",
          "transactionIndex": "0x13",
          "logIndex": "0x2d",
          "removed": false
        },
        {
          "address": "0x57558cb8d6005de0bae8a2789d5efaae52dba5a8",
          "topics": [
            "0xddf252ad1be2c89b69c2b068fc378daa952ba7f163c4a11628f55a4df523b3ef",
            "0x000000000000000000000000741f0d8bde14140f62107fc60a0ee122b37d4630",
            "0x0000000000000000000000000000000000000000000000000000000000000000"
          ],
          "data": "0x0000000000000000000000000000000000000000000000000de0b6b3a7640000",
          "blockHash": "0xda1ccec3c99d017c0e3dea2428eb846db060dbfb05494dd4431e400d7b3f6ba7",
          "blockNumber": "0x9d9bfec",
          "transactionHash": "0x83328eee48550c5dca3701dfb841cb7d6f0315e843893143a73cc945b0a93516",
          "transactionIndex": "0x13",
          "logIndex": "0x2e",
          "removed": false
        },
        {
          "address": "0xc39161c743d0307eb9bcc9fef03eeb9dc4802de7",
          "topics": [
            "0x61ed099e74a97a1d7f8bb0952a88ca8b7b8ebd00c126ea04671f92a81213318a"
          ],
          "data": "0x000000000000000000000000c097ab8cd7b053326dfe9fb3e3a31a0cce3b526f0000000000000000000000000000000000000000000000001197088b3aedde16",
          "blockHash": "0xda1ccec3c99d017c0e3dea2428eb846db060dbfb05494dd4431e400d7b3f6ba7",
          "blockNumber": "0x9d9bfec",
          "transactionHash": "0x83328eee48550c5dca3701dfb841cb7d6f0315e843893143a73cc945b0a93516",
          "transactionIndex": "0x13",
          "logIndex": "0x2f",
          "removed": false
        },
        {
          "address": "0xc39161c743d0307eb9bcc9fef03eeb9dc4802de7",
          "topics": [
            "0x07ea52d82345d6e838192107d8fd7123d9c2ec8e916cd0aad13fd2b60db24644"
          ],
          "data": "0x000000000000000000000000000000000000000000000000000000000000006000000000000000000000000000000000000000000000000000000000000000e0000000000000000000000000000000000000000000000000000000000000010000000000000000000000000000000000000000000000000000000000000000030000000000000000000000006788f52439aca6bff597d3eec2dc9a44b8fee84200000000000000000000000087048402c32632b7c4d0a892d82bc1160e8b2393000000000000000000000000e016f0f39fb7dcf14e9412d92f2049668d4d2612000000000000000000000000000000000000000000000000000000000000000000000000000000000000000000000000000000000000000000000000000000030000000000000000000000000000000000000000000000000000a7581211da6a0000000000000000000000000000000000000000000000000000a7581211da6a0000000000000000000000000000000000000000000000000000ae60fc522a51",
          "blockHash": "0xda1ccec3c99d017c0e3dea2428eb846db060dbfb05494dd4431e400d7b3f6ba7",
          "blockNumber": "0x9d9bfec",
          "transactionHash": "0x83328eee48550c5dca3701dfb841cb7d6f0315e843893143a73cc945b0a93516",
          "transactionIndex": "0x13",
          "logIndex": "0x30",
          "removed": false
        },
        {
          "address": "0x1a44076050125825900e736c501f859c50fe728c",
          "topics": [
            "0x1ab700d4ced0c005b164c0f789fd09fcbb0156d4c2041b8a3bfbcd961cd1567f"
          ],
          "data": "0x00000000000000000000000000000000000000000000000000000000000000600000000000000000000000000000000000000000000000000000000000000120000000000000000000000000c39161c743d0307eb9bcc9fef03eeb9dc4802de700000000000000000000000000000000000000000000000000000000000000990100000000000000010000764800000000000000000000000057558cb8d6005de0bae8a2789d5efaae52dba5a80000760600000000000000000000000057558cb8d6005de0bae8a2789d5efaae52dba5a868489d1f3e2c3c33e0986a00c8bbb554c536e22f921c96c294466039832e47c5000000000000000000000000741f0d8bde14140f62107fc60a0ee122b37d463000000000000f424000000000000000000000000000000000000000000000000000000000000000000000000000001600030100110100000000000000000000000000030d4000000000000000000000",
          "blockHash": "0xda1ccec3c99d017c0e3dea2428eb846db060dbfb05494dd4431e400d7b3f6ba7",
          "blockNumber": "0x9d9bfec",
          "transactionHash": "0x83328eee48550c5dca3701dfb841cb7d6f0315e843893143a73cc945b0a93516",
          "transactionIndex": "0x13",
          "logIndex": "0x31",
          "removed": false
        },
        {
          "address": "0x57558cb8d6005de0bae8a2789d5efaae52dba5a8",
          "topics": [
            "0x85496b760a4b7f8d66384b9df21b381f5d1b1e79f229a47aaf4c232edc2fe59a",
            "0x68489d1f3e2c3c33e0986a00c8bbb554c536e22f921c96c294466039832e47c5",
            "0x000000000000000000000000741f0d8bde14140f62107fc60a0ee122b37d4630"
          ],
          "data": "0x00000000000000000000000000000000000000000000000000000000000076060000000000000000000000000000000000000000000000000de0b6b3a76400000000000000000000000000000000000000000000000000000de0b6b3a7640000",
          "blockHash": "0xda1ccec3c99d017c0e3dea2428eb846db060dbfb05494dd4431e400d7b3f6ba7",
          "blockNumber": "0x9d9bfec",
          "transactionHash": "0x83328eee48550c5dca3701dfb841cb7d6f0315e843893143a73cc945b0a93516",
          "transactionIndex": "0x13",
          "logIndex": "0x32",
          "removed": false
        }
      ],
      "logsBloom": "0x0010000000000000000000000004004000000000000004008000000000100000000000000000000000000000000000040000010000000000000000000000000000000200000000000000000800000000000000000000000000000000000000000000000002000000802000000000080000000000001000200000001000000000000000000080100000000008000000000000000000000000000000000000000000000000a000001000100000000000000000000000400000000448000000000000000002000000000000000080000000000000000000000000000000000020000000040000000000000000000000002000000000018000000000000000000400",
      "type": "0x2",
      "transactionHash": "0x83328eee48550c5dca3701dfb841cb7d6f0315e843893143a73cc945b0a93516",
      "transactionIndex": "0x13",
      "blockHash": "0xda1ccec3c99d017c0e3dea2428eb846db060dbfb05494dd4431e400d7b3f6ba7",
      "blockNumber": "0x9d9bfec",
      "gasUsed": "0xa348f",
      "effectiveGasPrice": "0x9debd960",
      "from": "0x45dce8e4f2dc005a5f28206a46cb034697eeda8e",
      "to": "0x741f0d8bde14140f62107fc60a0ee122b37d4630",
      "contractAddress": null
    }
  ],
  "libraries": [],
  "pending": [],
  "returns": {},
  "timestamp": 1756507425440,
  "chain": 1329,
  "commit": "2f312ff"
}