{
  "transactions": [
    {
      "hash": "0x9811a11fb04e5fde4ac6259a362c2a1fa8f59f609f2f82929c430e78a53f10dd",
      "transactionType": "CALL",
      "contractName": null,
      "contractAddress": "0x741f0d8bde14140f62107fc60a0ee122b37d4630",
      "function": "batchBridgeWithEthFeeFromWallet((uint32,bytes32,uint256,uint256,bytes,bytes,bytes)[],address[],address[])",
      "arguments": [
        "[(30375, 0x000000000000000000000000741f0d8bde14140f62107fc60a0ee122b37d4630, 1000000000000000000, 0, 0x, 0x, 0x)]",
        "[0x57558Cb8d6005DE0BAe8a2789d5EfaaE52dba5a8]",
        "[0x741F0d8Bde14140f62107FC60A0EE122B37D4630]"
      ],
      "transaction": {
        "from": "0x45dce8e4f2dc005a5f28206a46cb034697eeda8e",
        "to": "0x741f0d8bde14140f62107fc60a0ee122b37d4630",
        "gas": "0x94763",
        "value": "0xf49c8c9597df76",
        "input": "0xb70d4241000000000000000000000000000000000000000000000000000000000000006000000000000000000000000000000000000000000000000000000000000001e000000000000000000000000000000000000000000000000000000000000002200000000000000000000000000000000000000000000000000000000000000001000000000000000000000000000000000000000000000000000000000000002000000000000000000000000000000000000000000000000000000000000076a7000000000000000000000000741f0d8bde14140f62107fc60a0ee122b37d46300000000000000000000000000000000000000000000000000de0b6b3a7640000000000000000000000000000000000000000000000000000000000000000000000000000000000000000000000000000000000000000000000000000000000e000000000000000000000000000000000000000000000000000000000000001000000000000000000000000000000000000000000000000000000000000000120000000000000000000000000000000000000000000000000000000000000000000000000000000000000000000000000000000000000000000000000000000000000000000000000000000000000000000000000000000000000000000000000000000000000000000000000000000000000000000000000000000000000000100000000000000000000000057558cb8d6005de0bae8a2789d5efaae52dba5a80000000000000000000000000000000000000000000000000000000000000001000000000000000000000000741f0d8bde14140f62107fc60a0ee122b37d4630",
        "nonce": "0xba",
        "chainId": "0x531"
      },
      "additionalContracts": [],
      "isFixedGasLimit": false
    }
  ],
  "receipts": [
    {
      "status": "0x1",
      "cumulativeGasUsed": "0x0",
      "logs": [
        {
          "address": "0x57558cb8d6005de0bae8a2789d5efaae52dba5a8",
          "topics": [
            "0xddf252ad1be2c89b69c2b068fc378daa952ba7f163c4a11628f55a4df523b3ef",
            "0x000000000000000000000000741f0d8bde14140f62107fc60a0ee122b37d4630",
            "0x0000000000000000000000000000000000000000000000000000000000000000"
          ],
          "data": "0x0000000000000000000000000000000000000000000000000de0b6b3a7640000",
          "blockHash": "0x0cea94b3bd0401307523a2606cca8dfae6ac31a60d2d7c3cf996088cfdf0a21b",
          "blockNumber": "0x98c0c16",
          "transactionHash": "0x9811a11fb04e5fde4ac6259a362c2a1fa8f59f609f2f82929c430e78a53f10dd",
          "transactionIndex": "0x8",
          "logIndex": "0x0",
          "removed": false
        },
        {
          "address": "0xc39161c743d0307eb9bcc9fef03eeb9dc4802de7",
          "topics": [
            "0x61ed099e74a97a1d7f8bb0952a88ca8b7b8ebd00c126ea04671f92a81213318a"
          ],
          "data": "0x000000000000000000000000c097ab8cd7b053326dfe9fb3e3a31a0cce3b526f00000000000000000000000000000000000000000000000000e6d576b19ab60a",
          "blockHash": "0x0cea94b3bd0401307523a2606cca8dfae6ac31a60d2d7c3cf996088cfdf0a21b",
          "blockNumber": "0x98c0c16",
          "transactionHash": "0x9811a11fb04e5fde4ac6259a362c2a1fa8f59f609f2f82929c430e78a53f10dd",
          "transactionIndex": "0x8",
          "logIndex": "0x1",
          "removed": false
        },
        {
          "address": "0xc39161c743d0307eb9bcc9fef03eeb9dc4802de7",
          "topics": [
            "0x07ea52d82345d6e838192107d8fd7123d9c2ec8e916cd0aad13fd2b60db24644"
          ],
          "data": "0x000000000000000000000000000000000000000000000000000000000000006000000000000000000000000000000000000000000000000000000000000000e0000000000000000000000000000000000000000000000000000000000000010000000000000000000000000000000000000000000000000000000000000000030000000000000000000000006788f52439aca6bff597d3eec2dc9a44b8fee842000000000000000000000000d24972c11f91c1bb9eaee97ec96bb9c33cf7af24000000000000000000000000e016f0f39fb7dcf14e9412d92f2049668d4d26120000000000000000000000000000000000000000000000000000000000000000000000000000000000000000000000000000000000000000000000000000000300000000000000000000000000000000000000000000000000048c0b4eb3234400000000000000000000000000000000000000000000000000047e101ebe70380000000000000000000000000000000000000000000000000004bcfa768b95f0",
          "blockHash": "0x0cea94b3bd0401307523a2606cca8dfae6ac31a60d2d7c3cf996088cfdf0a21b",
          "blockNumber": "0x98c0c16",
          "transactionHash": "0x9811a11fb04e5fde4ac6259a362c2a1fa8f59f609f2f82929c430e78a53f10dd",
          "transactionIndex": "0x8",
          "logIndex": "0x2",
          "removed": false
        },
        {
          "address": "0x1a44076050125825900e736c501f859c50fe728c",
          "topics": [
            "0x1ab700d4ced0c005b164c0f789fd09fcbb0156d4c2041b8a3bfbcd961cd1567f"
          ],
          "data": "0x00000000000000000000000000000000000000000000000000000000000000600000000000000000000000000000000000000000000000000000000000000120000000000000000000000000c39161c743d0307eb9bcc9fef03eeb9dc4802de700000000000000000000000000000000000000000000000000000000000000990100000000000000010000764800000000000000000000000057558cb8d6005de0bae8a2789d5efaae52dba5a8000076a700000000000000000000000057558cb8d6005de0bae8a2789d5efaae52dba5a836bf56566ffe5b8c93971ad0392d0793de7ed6f94450a9142bb184a97946ef1d000000000000000000000000741f0d8bde14140f62107fc60a0ee122b37d463000000000000f424000000000000000000000000000000000000000000000000000000000000000000000000000001600030100110100000000000000000000000000030d4000000000000000000000",
          "blockHash": "0x0cea94b3bd0401307523a2606cca8dfae6ac31a60d2d7c3cf996088cfdf0a21b",
          "blockNumber": "0x98c0c16",
          "transactionHash": "0x9811a11fb04e5fde4ac6259a362c2a1fa8f59f609f2f82929c430e78a53f10dd",
          "transactionIndex": "0x8",
          "logIndex": "0x3",
          "removed": false
        },
        {
          "address": "0x57558cb8d6005de0bae8a2789d5efaae52dba5a8",
          "topics": [
            "0x85496b760a4b7f8d66384b9df21b381f5d1b1e79f229a47aaf4c232edc2fe59a",
            "0x36bf56566ffe5b8c93971ad0392d0793de7ed6f94450a9142bb184a97946ef1d",
            "0x000000000000000000000000741f0d8bde14140f62107fc60a0ee122b37d4630"
          ],
          "data": "0x00000000000000000000000000000000000000000000000000000000000076a70000000000000000000000000000000000000000000000000de0b6b3a76400000000000000000000000000000000000000000000000000000de0b6b3a7640000",
          "blockHash": "0x0cea94b3bd0401307523a2606cca8dfae6ac31a60d2d7c3cf996088cfdf0a21b",
          "blockNumber": "0x98c0c16",
          "transactionHash": "0x9811a11fb04e5fde4ac6259a362c2a1fa8f59f609f2f82929c430e78a53f10dd",
          "transactionIndex": "0x8",
          "logIndex": "0x4",
          "removed": false
        }
      ],
      "logsBloom": "0x0010000000000000000000000004004000000000000000000000000000100000000000001000000000000000000000040000010000000000000000000000000000000200000000000000000800000000000000000000000000000000000000000000000002000000802000000000080000000000001000000000001000000800000000000080000000000008000000000000000000000000000000000000000000000000a000001000100000000020000000000000400000000440000000000000000002000000000000000080000000000000000000000000000000000020000000040000000000000000000000002000000000018000000000000000000000",
      "type": "0x2",
      "transactionHash": "0x9811a11fb04e5fde4ac6259a362c2a1fa8f59f609f2f82929c430e78a53f10dd",
      "transactionIndex": "0x8",
      "blockHash": "0x0cea94b3bd0401307523a2606cca8dfae6ac31a60d2d7c3cf996088cfdf0a21b",
      "blockNumber": "0x98c0c16",
      "gasUsed": "0x65833",
      "effectiveGasPrice": "0x98974600",
      "from": "0x45dce8e4f2dc005a5f28206a46cb034697eeda8e",
      "to": "0x741f0d8bde14140f62107fc60a0ee122b37d4630",
      "contractAddress": null
    }
  ],
  "libraries": [],
  "pending": [],
  "returns": {},
  "timestamp": 1753932496,
  "chain": 1329,
  "commit": "bc2ac99"
}