{
  "transactions": [
    {
      "hash": "0x3955314d894d53ef26a1718aafc2b172ce910464dde31f35acc4c5d090c37cb1",
      "transactionType": "CALL",
      "contractName": null,
      "contractAddress": "0x741f0d8bde14140f62107fc60a0ee122b37d4630",
      "function": "batchBridgeWithEthFeeFromWallet((uint32,bytes32,uint256,uint256,bytes,bytes,bytes)[],address[],address[])",
      "arguments": [
        "[(30370, 0x000000000000000000000000741f0d8bde14140f62107fc60a0ee122b37d4630, 1000000000000000000, 0, 0x, 0x, 0x)]",
        "[0x57558Cb8d6005DE0BAe8a2789d5EfaaE52dba5a8]",
        "[0x741F0d8Bde14140f62107FC60A0EE122B37D4630]"
      ],
      "transaction": {
        "from": "0x45dce8e4f2dc005a5f28206a46cb034697eeda8e",
        "to": "0x741f0d8bde14140f62107fc60a0ee122b37d4630",
        "gas": "0x94763",
        "value": "0x3736e05da657f2b",
        "input": "0xb70d4241000000000000000000000000000000000000000000000000000000000000006000000000000000000000000000000000000000000000000000000000000001e000000000000000000000000000000000000000000000000000000000000002200000000000000000000000000000000000000000000000000000000000000001000000000000000000000000000000000000000000000000000000000000002000000000000000000000000000000000000000000000000000000000000076a2000000000000000000000000741f0d8bde14140f62107fc60a0ee122b37d46300000000000000000000000000000000000000000000000000de0b6b3a7640000000000000000000000000000000000000000000000000000000000000000000000000000000000000000000000000000000000000000000000000000000000e000000000000000000000000000000000000000000000000000000000000001000000000000000000000000000000000000000000000000000000000000000120000000000000000000000000000000000000000000000000000000000000000000000000000000000000000000000000000000000000000000000000000000000000000000000000000000000000000000000000000000000000000000000000000000000000000000000000000000000000000000000000000000000000000100000000000000000000000057558cb8d6005de0bae8a2789d5efaae52dba5a80000000000000000000000000000000000000000000000000000000000000001000000000000000000000000741f0d8bde14140f62107fc60a0ee122b37d4630",
        "nonce": "0xb3",
        "chainId": "0x531"
      },
      "additionalContracts": [],
      "isFixedGasLimit": false
    }
  ],
  "receipts": [
    {
      "status": "0x1",
      "cumulativeGasUsed": "0x0",
      "logs": [
        {
          "address": "0x57558cb8d6005de0bae8a2789d5efaae52dba5a8",
          "topics": [
            "0xddf252ad1be2c89b69c2b068fc378daa952ba7f163c4a11628f55a4df523b3ef",
            "0x000000000000000000000000741f0d8bde14140f62107fc60a0ee122b37d4630",
            "0x0000000000000000000000000000000000000000000000000000000000000000"
          ],
          "data": "0x0000000000000000000000000000000000000000000000000de0b6b3a7640000",
          "blockHash": "0xe23f5a35185bd35636f6c80ca183c9f2db64ed12cbd854925389618c07e8d2fd",
          "blockNumber": "0x9691d54",
          "transactionHash": "0x3955314d894d53ef26a1718aafc2b172ce910464dde31f35acc4c5d090c37cb1",
          "transactionIndex": "0x6",
          "logIndex": "0x0",
          "removed": false
        },
        {
          "address": "0xc39161c743d0307eb9bcc9fef03eeb9dc4802de7",
          "topics": [
            "0x61ed099e74a97a1d7f8bb0952a88ca8b7b8ebd00c126ea04671f92a81213318a"
          ],
          "data": "0x000000000000000000000000c097ab8cd7b053326dfe9fb3e3a31a0cce3b526f000000000000000000000000000000000000000000000000020cec9203825b4b",
          "blockHash": "0xe23f5a35185bd35636f6c80ca183c9f2db64ed12cbd854925389618c07e8d2fd",
          "blockNumber": "0x9691d54",
          "transactionHash": "0x3955314d894d53ef26a1718aafc2b172ce910464dde31f35acc4c5d090c37cb1",
          "transactionIndex": "0x6",
          "logIndex": "0x1",
          "removed": false
        },
        {
          "address": "0xc39161c743d0307eb9bcc9fef03eeb9dc4802de7",
          "topics": [
            "0x07ea52d82345d6e838192107d8fd7123d9c2ec8e916cd0aad13fd2b60db24644"
          ],
          "data": "0x000000000000000000000000000000000000000000000000000000000000006000000000000000000000000000000000000000000000000000000000000000e0000000000000000000000000000000000000000000000000000000000000010000000000000000000000000000000000000000000000000000000000000000030000000000000000000000006788f52439aca6bff597d3eec2dc9a44b8fee84200000000000000000000000087048402c32632b7c4d0a892d82bc1160e8b2393000000000000000000000000e016f0f39fb7dcf14e9412d92f2049668d4d2612000000000000000000000000000000000000000000000000000000000000000000000000000000000000000000000000000000000000000000000000000000030000000000000000000000000000000000000000000000000075d9b99282830a0000000000000000000000000000000000000000000000000075d9b99282830a000000000000000000000000000000000000000000000000007ace00b1de1dcc",
          "blockHash": "0xe23f5a35185bd35636f6c80ca183c9f2db64ed12cbd854925389618c07e8d2fd",
          "blockNumber": "0x9691d54",
          "transactionHash": "0x3955314d894d53ef26a1718aafc2b172ce910464dde31f35acc4c5d090c37cb1",
          "transactionIndex": "0x6",
          "logIndex": "0x2",
          "removed": false
        },
        {
          "address": "0x1a44076050125825900e736c501f859c50fe728c",
          "topics": [
            "0x1ab700d4ced0c005b164c0f789fd09fcbb0156d4c2041b8a3bfbcd961cd1567f"
          ],
          "data": "0x00000000000000000000000000000000000000000000000000000000000000600000000000000000000000000000000000000000000000000000000000000120000000000000000000000000c39161c743d0307eb9bcc9fef03eeb9dc4802de700000000000000000000000000000000000000000000000000000000000000990100000000000000010000764800000000000000000000000057558cb8d6005de0bae8a2789d5efaae52dba5a8000076a200000000000000000000000057558cb8d6005de0bae8a2789d5efaae52dba5a8df9ac9b1d36a6e3fa7df724e8db8f2c7ed95d9d1648ac40af561c6b5809f2c8e000000000000000000000000741f0d8bde14140f62107fc60a0ee122b37d463000000000000f424000000000000000000000000000000000000000000000000000000000000000000000000000001600030100110100000000000000000000000000030d4000000000000000000000",
          "blockHash": "0xe23f5a35185bd35636f6c80ca183c9f2db64ed12cbd854925389618c07e8d2fd",
          "blockNumber": "0x9691d54",
          "transactionHash": "0x3955314d894d53ef26a1718aafc2b172ce910464dde31f35acc4c5d090c37cb1",
          "transactionIndex": "0x6",
          "logIndex": "0x3",
          "removed": false
        },
        {
          "address": "0x57558cb8d6005de0bae8a2789d5efaae52dba5a8",
          "topics": [
            "0x85496b760a4b7f8d66384b9df21b381f5d1b1e79f229a47aaf4c232edc2fe59a",
            "0xdf9ac9b1d36a6e3fa7df724e8db8f2c7ed95d9d1648ac40af561c6b5809f2c8e",
            "0x000000000000000000000000741f0d8bde14140f62107fc60a0ee122b37d4630"
          ],
          "data": "0x00000000000000000000000000000000000000000000000000000000000076a20000000000000000000000000000000000000000000000000de0b6b3a76400000000000000000000000000000000000000000000000000000de0b6b3a7640000",
          "blockHash": "0xe23f5a35185bd35636f6c80ca183c9f2db64ed12cbd854925389618c07e8d2fd",
          "blockNumber": "0x9691d54",
          "transactionHash": "0x3955314d894d53ef26a1718aafc2b172ce910464dde31f35acc4c5d090c37cb1",
          "transactionIndex": "0x6",
          "logIndex": "0x4",
          "removed": false
        }
      ],
      "logsBloom": "0x0010000000000000000000000804004000000000000000000000000000100000000000000000000000000000000000040000010000000000000000000000000000000200000000000000000800000000000000400000000000000000000000000000000002000000802000000000080000000000001000000000001000000000000000000080000000000008000000000000000000000000000000000000000000000000a000001000100000000000000000000000400000000440000000200000000002000000000000000080000000000000000000000000000000000020000000040000000000000000000000002000000000018000000000000000000000",
      "type": "0x2",
      "transactionHash": "0x3955314d894d53ef26a1718aafc2b172ce910464dde31f35acc4c5d090c37cb1",
      "transactionIndex": "0x6",
      "blockHash": "0xe23f5a35185bd35636f6c80ca183c9f2db64ed12cbd854925389618c07e8d2fd",
      "blockNumber": "0x9691d54",
      "gasUsed": "0x65833",
      "effectiveGasPrice": "0xf059c65e",
      "from": "0x45dce8e4f2dc005a5f28206a46cb034697eeda8e",
      "to": "0x741f0d8bde14140f62107fc60a0ee122b37d4630",
      "contractAddress": null
    }
  ],
  "libraries": [],
  "pending": [],
  "returns": {},
  "timestamp": 1752809326,
  "chain": 1329,
  "commit": "c079579"
}