{
  "transactions": [
    {
      "hash": "0x24d77a27fca218d85db8959e7581c457ccf86fa9f1f74567f8f59e62a3f1a1e6",
      "transactionType": "CALL",
      "contractName": null,
      "contractAddress": "0x741f0d8bde14140f62107fc60a0ee122b37d4630",
      "function": "batchBridgeWithEthFeeFromWallet((uint32,bytes32,uint256,uint256,bytes,bytes,bytes)[],address[],address[])",
      "arguments": [
        "[(30367, 0x000000000000000000000000741f0d8bde14140f62107fc60a0ee122b37d4630, 500000000000000000, 0, 0x, 0x, 0x)]",
        "[0x57558Cb8d6005DE0BAe8a2789d5EfaaE52dba5a8]",
        "[0x741F0d8Bde14140f62107FC60A0EE122B37D4630]"
      ],
      "transaction": {
        "from": "0x45dce8e4f2dc005a5f28206a46cb034697eeda8e",
        "to": "0x741f0d8bde14140f62107fc60a0ee122b37d4630",
        "gas": "0x8cbc3",
        "value": "0xf9fef287d12174",
        "input": "0xb70d4241000000000000000000000000000000000000000000000000000000000000006000000000000000000000000000000000000000000000000000000000000001e0000000000000000000000000000000000000000000000000000000000000022000000000000000000000000000000000000000000000000000000000000000010000000000000000000000000000000000000000000000000000000000000020000000000000000000000000000000000000000000000000000000000000769f000000000000000000000000741f0d8bde14140f62107fc60a0ee122b37d463000000000000000000000000000000000000000000000000006f05b59d3b20000000000000000000000000000000000000000000000000000000000000000000000000000000000000000000000000000000000000000000000000000000000e000000000000000000000000000000000000000000000000000000000000001000000000000000000000000000000000000000000000000000000000000000120000000000000000000000000000000000000000000000000000000000000000000000000000000000000000000000000000000000000000000000000000000000000000000000000000000000000000000000000000000000000000000000000000000000000000000000000000000000000000000000000000000000000000100000000000000000000000057558cb8d6005de0bae8a2789d5efaae52dba5a80000000000000000000000000000000000000000000000000000000000000001000000000000000000000000741f0d8bde14140f62107fc60a0ee122b37d4630",
        "nonce": "0xcd",
        "chainId": "0x531"
      },
      "additionalContracts": [],
      "isFixedGasLimit": false
    }
  ],
  "receipts": [
    {
      "status": "0x1",
      "cumulativeGasUsed": "0x0",
      "logs": [
        {
          "address": "0x57558cb8d6005de0bae8a2789d5efaae52dba5a8",
          "topics": [
            "0xddf252ad1be2c89b69c2b068fc378daa952ba7f163c4a11628f55a4df523b3ef",
            "0x000000000000000000000000741f0d8bde14140f62107fc60a0ee122b37d4630",
            "0x0000000000000000000000000000000000000000000000000000000000000000"
          ],
          "data": "0x00000000000000000000000000000000000000000000000006f05b59d3b20000",
          "blockHash": "0x1f40fb677a403d5b01f9ee5ac18ffcb99b4d0c9435920a0f53a998b15616274b",
          "blockNumber": "0xa031371",
          "transactionHash": "0x24d77a27fca218d85db8959e7581c457ccf86fa9f1f74567f8f59e62a3f1a1e6",
          "transactionIndex": "0x18",
          "logIndex": "0x1e",
          "removed": false
        },
        {
          "address": "0xc39161c743d0307eb9bcc9fef03eeb9dc4802de7",
          "topics": [
            "0x61ed099e74a97a1d7f8bb0952a88ca8b7b8ebd00c126ea04671f92a81213318a"
          ],
          "data": "0x000000000000000000000000c097ab8cd7b053326dfe9fb3e3a31a0cce3b526f00000000000000000000000000000000000000000000000000e83ca2da4841fa",
          "blockHash": "0x1f40fb677a403d5b01f9ee5ac18ffcb99b4d0c9435920a0f53a998b15616274b",
          "blockNumber": "0xa031371",
          "transactionHash": "0x24d77a27fca218d85db8959e7581c457ccf86fa9f1f74567f8f59e62a3f1a1e6",
          "transactionIndex": "0x18",
          "logIndex": "0x1f",
          "removed": false
        },
        {
          "address": "0xc39161c743d0307eb9bcc9fef03eeb9dc4802de7",
          "topics": [
            "0x07ea52d82345d6e838192107d8fd7123d9c2ec8e916cd0aad13fd2b60db24644"
          ],
          "data": "0x000000000000000000000000000000000000000000000000000000000000006000000000000000000000000000000000000000000000000000000000000000e0000000000000000000000000000000000000000000000000000000000000010000000000000000000000000000000000000000000000000000000000000000030000000000000000000000006788f52439aca6bff597d3eec2dc9a44b8fee84200000000000000000000000087048402c32632b7c4d0a892d82bc1160e8b2393000000000000000000000000e016f0f39fb7dcf14e9412d92f2049668d4d2612000000000000000000000000000000000000000000000000000000000000000000000000000000000000000000000000000000000000000000000000000000030000000000000000000000000000000000000000000000000005d67ec36efa550000000000000000000000000000000000000000000000000005d67ec36efa550000000000000000000000000000000000000000000000000006155226aaead0",
          "blockHash": "0x1f40fb677a403d5b01f9ee5ac18ffcb99b4d0c9435920a0f53a998b15616274b",
          "blockNumber": "0xa031371",
          "transactionHash": "0x24d77a27fca218d85db8959e7581c457ccf86fa9f1f74567f8f59e62a3f1a1e6",
          "transactionIndex": "0x18",
          "logIndex": "0x20",
          "removed": false
        },
        {
          "address": "0x1a44076050125825900e736c501f859c50fe728c",
          "topics": [
            "0x1ab700d4ced0c005b164c0f789fd09fcbb0156d4c2041b8a3bfbcd961cd1567f"
          ],
          "data": "0x00000000000000000000000000000000000000000000000000000000000000600000000000000000000000000000000000000000000000000000000000000120000000000000000000000000c39161c743d0307eb9bcc9fef03eeb9dc4802de700000000000000000000000000000000000000000000000000000000000000990100000000000000010000764800000000000000000000000057558cb8d6005de0bae8a2789d5efaae52dba5a80000769f00000000000000000000000057558cb8d6005de0bae8a2789d5efaae52dba5a87ea8e0cdd48b5e0073881e788b56ec6f63e6e017d579f1e76abd55a135c6e981000000000000000000000000741f0d8bde14140f62107fc60a0ee122b37d4630000000000007a12000000000000000000000000000000000000000000000000000000000000000000000000000001600030100110100000000000000000000000000030d4000000000000000000000",
          "blockHash": "0x1f40fb677a403d5b01f9ee5ac18ffcb99b4d0c9435920a0f53a998b15616274b",
          "blockNumber": "0xa031371",
          "transactionHash": "0x24d77a27fca218d85db8959e7581c457ccf86fa9f1f74567f8f59e62a3f1a1e6",
          "transactionIndex": "0x18",
          "logIndex": "0x21",
          "removed": false
        },
        {
          "address": "0x57558cb8d6005de0bae8a2789d5efaae52dba5a8",
          "topics": [
            "0x85496b760a4b7f8d66384b9df21b381f5d1b1e79f229a47aaf4c232edc2fe59a",
            "0x7ea8e0cdd48b5e0073881e788b56ec6f63e6e017d579f1e76abd55a135c6e981",
            "0x000000000000000000000000741f0d8bde14140f62107fc60a0ee122b37d4630"
          ],
          "data": "0x000000000000000000000000000000000000000000000000000000000000769f00000000000000000000000000000000000000000000000006f05b59d3b2000000000000000000000000000000000000000000000000000006f05b59d3b20000",
          "blockHash": "0x1f40fb677a403d5b01f9ee5ac18ffcb99b4d0c9435920a0f53a998b15616274b",
          "blockNumber": "0xa031371",
          "transactionHash": "0x24d77a27fca218d85db8959e7581c457ccf86fa9f1f74567f8f59e62a3f1a1e6",
          "transactionIndex": "0x18",
          "logIndex": "0x22",
          "removed": false
        }
      ],
      "logsBloom": "0x0010000000000000000000000004004000000000000000000000000000100000000000000000000000000000000000040000010000000000000000000000000000000200004000000000000800000000000000000000000000000000000000000000000002000000802000000000080000000000001000000000001000000000000400000080000000000008000000000000000000000000000000000000000000000000a000001000100000000000000000000000400000000440000000000000000002000000000000000080000000000000000000000000000000000020000000040004000000000000000000002000000000018000000000000000000000",
      "type": "0x2",
      "transactionHash": "0x24d77a27fca218d85db8959e7581c457ccf86fa9f1f74567f8f59e62a3f1a1e6",
      "transactionIndex": "0x18",
      "blockHash": "0x1f40fb677a403d5b01f9ee5ac18ffcb99b4d0c9435920a0f53a998b15616274b",
      "blockNumber": "0xa031371",
      "gasUsed": "0x65e3d",
      "effectiveGasPrice": "0x7d35484b",
      "from": "0x45dce8e4f2dc005a5f28206a46cb034697eeda8e",
      "to": "0x741f0d8bde14140f62107fc60a0ee122b37d4630",
      "contractAddress": null
    }
  ],
  "libraries": [],
  "pending": [],
  "returns": {},
  "timestamp": 1757836400544,
  "chain": 1329,
  "commit": "4ef70f5"
}