{
  "transactions": [
    {
      "hash": "0x3bbbbb5d1311ee876f9d958976db948b58b5977e132c3d5fde5af2aa17c1e9da",
      "transactionType": "CALL",
      "contractName": null,
      "contractAddress": "0xfeec000000000000000000000000000000000000",
      "function": "setUserToken(address)",
      "arguments": [
        "0x20C0000000000000000000000000000000000000"
      ],
      "transaction": {
        "from": "0x1d434906aa520e592fab2b82406beff859be8e82",
        "to": "0xfeec000000000000000000000000000000000000",
        "gas": "0x925d",
        "value": "0x0",
        "input": "0xe789744400000000000000000000000020c0000000000000000000000000000000000000",
        "nonce": "0xf",
        "chainId": "0xa5bf",
        "feeToken": null,
        "calls": [],
        "keyType": null,
        "keyData": null
      },
      "additionalContracts": [],
      "isFixedGasLimit": false
    },
    {
      "hash": "0xd90db7fc77c005f6ed5b08be13399464cb14fb5e6173ebda2cdb58190d224b94",
      "transactionType": "CALL",
      "contractName": null,
      "contractAddress": "0x20c0000000000000000000000000000000000000",
      "function": "approve(address,uint256)",
      "arguments": [
        "0xfeEC000000000000000000000000000000000000",
        "10000000"
      ],
      "transaction": {
        "from": "0x1d434906aa520e592fab2b82406beff859be8e82",
        "to": "0x20c0000000000000000000000000000000000000",
        "gas": "0xf53e",
        "value": "0x0",
        "input": "0x095ea7b3000000000000000000000000feec0000000000000000000000000000000000000000000000000000000000000000000000000000000000000000000000989680",
        "nonce": "0x10",
        "chainId": "0xa5bf",
        "feeToken": null,
        "calls": [],
        "keyType": null,
        "keyData": null
      },
      "additionalContracts": [],
      "isFixedGasLimit": false
    },
    {
      "hash": "0xd172c749a884450259241e456d949bf9ccd54dad1af2b51f08900ea11600f5d6",
      "transactionType": "CALL",
      "contractName": null,
      "contractAddress": "0xfeec000000000000000000000000000000000000",
      "function": "mint(address,address,uint256,address)",
      "arguments": [
        "0x20c000000000000000000000cf5b0F48F7fEDC7F",
        "0x20C0000000000000000000000000000000000000",
        "10000000",
        "0x1d434906Aa520E592fAB2b82406BEfF859be8e82"
      ],
      "transaction": {
        "from": "0x1d434906aa520e592fab2b82406beff859be8e82",
        "to": "0xfeec000000000000000000000000000000000000",
        "gas": "0x2c5ae",
        "value": "0x0",
        "input": "0xf1aa8cb800000000000000000000000020c000000000000000000000cf5b0f48f7fedc7f00000000000000000000000020c000000000000000000000000000000000000000000000000000000000000000000000000000000000000000000000009896800000000000000000000000001d434906aa520e592fab2b82406beff859be8e82",
        "nonce": "0x11",
        "chainId": "0xa5bf",
        "feeToken": null,
        "calls": [],
        "keyType": null,
        "keyData": null
      },
      "additionalContracts": [],
      "isFixedGasLimit": false
    }
  ],
  "receipts": [
    {
      "type": "0x2",
      "status": "0x1",
      "cumulativeGasUsed": "0x15c29e",
      "logs": [
        {
          "address": "0xfeec000000000000000000000000000000000000",
          "topics": [
            "0xabc7758d4ca817ce0d125eb731121a1304c36077b791253be835b95472368856",
            "0x0000000000000000000000001d434906aa520e592fab2b82406beff859be8e82",
            "0x00000000000000000000000020c0000000000000000000000000000000000000"
          ],
          "data": "0x",
          "blockHash": "0x4a5e27801f4be81977b173d1c2602ef4eacffdce6b03d2950d14bd353950938c",
          "blockNumber": "0x35ed46",
          "blockTimestamp": "0x6982702a",
          "transactionHash": "0xd90db7fc77c005f6ed5b08be13399464cb14fb5e6173ebda2cdb58190d224b94",
          "transactionIndex": "0x1b",
          "logIndex": "0x32",
          "removed": false
        },
        {
          "address": "0x20c0000000000000000000000000000000000000",
          "topics": [
            "0xddf252ad1be2c89b69c2b068fc378daa952ba7f163c4a11628f55a4df523b3ef",
            "0x0000000000000000000000001d434906aa520e592fab2b82406beff859be8e82",
            "0x000000000000000000000000feec000000000000000000000000000000000000"
          ],
          "data": "0x00000000000000000000000000000000000000000000000000000000000000fc",
          "blockHash": "0x4a5e27801f4be81977b173d1c2602ef4eacffdce6b03d2950d14bd353950938c",
          "blockNumber": "0x35ed46",
          "blockTimestamp": "0x6982702a",
          "transactionHash": "0xd90db7fc77c005f6ed5b08be13399464cb14fb5e6173ebda2cdb58190d224b94",
          "transactionIndex": "0x1b",
          "logIndex": "0x33",
          "removed": false
        }
      ],
      "logsBloom": "0x00000000000000000000000000000000000000000000000000000000000000000040040000000000000100000100000000000000000000000000000000000000000004000000000000000008000000000000000000000000000000000400000000000000000000000080000000000000000000000000000000000010100000000000000000000000000000000020000000000000800000000000000000000000080020000000000000000000000400000000000000000000000000040000000000000002000000000000000000000000000000000080000000000000000000000000000000000000000100000000000002000800000000000000000000000000",
      "transactionHash": "0xd90db7fc77c005f6ed5b08be13399464cb14fb5e6173ebda2cdb58190d224b94",
      "transactionIndex": "0x1b",
      "blockHash": "0x4a5e27801f4be81977b173d1c2602ef4eacffdce6b03d2950d14bd353950938c",
      "blockNumber": "0x35ed46",
      "gasUsed": "0x6228",
      "effectiveGasPrice": "0x2540c48b5",
      "from": "0x1d434906aa520e592fab2b82406beff859be8e82",
      "to": "0xfeec000000000000000000000000000000000000",
      "contractAddress": null,
      "feeToken": "0x20c0000000000000000000000000000000000000",
      "feePayer": "0x1d434906aa520e592fab2b82406beff859be8e82"
    },
    {
      "type": "0x2",
      "status": "0x1",
      "cumulativeGasUsed": "0x16742c",
      "logs": [
        {
          "address": "0x20c0000000000000000000000000000000000000",
          "topics": [
            "0x8c5be1e5ebec7d5bd14f71427d1e84f3dd0314c0f7b2291e5b200ac8c7c3b925",
            "0x0000000000000000000000001d434906aa520e592fab2b82406beff859be8e82",
            "0x000000000000000000000000feec000000000000000000000000000000000000"
          ],
          "data": "0x0000000000000000000000000000000000000000000000000000000000989680",
          "blockHash": "0x4a5e27801f4be81977b173d1c2602ef4eacffdce6b03d2950d14bd353950938c",
          "blockNumber": "0x35ed46",
          "blockTimestamp": "0x6982702a",
          "transactionHash": "0xd172c749a884450259241e456d949bf9ccd54dad1af2b51f08900ea11600f5d6",
          "transactionIndex": "0x1c",
          "logIndex": "0x34",
          "removed": false
        },
        {
          "address": "0x20c0000000000000000000000000000000000000",
          "topics": [
            "0xddf252ad1be2c89b69c2b068fc378daa952ba7f163c4a11628f55a4df523b3ef",
            "0x0000000000000000000000001d434906aa520e592fab2b82406beff859be8e82",
            "0x000000000000000000000000feec000000000000000000000000000000000000"
          ],
          "data": "0x00000000000000000000000000000000000000000000000000000000000001c7",
          "blockHash": "0x4a5e27801f4be81977b173d1c2602ef4eacffdce6b03d2950d14bd353950938c",
          "blockNumber": "0x35ed46",
          "blockTimestamp": "0x6982702a",
          "transactionHash": "0xd172c749a884450259241e456d949bf9ccd54dad1af2b51f08900ea11600f5d6",
          "transactionIndex": "0x1c",
          "logIndex": "0x35",
          "removed": false
        }
      ],
      "logsBloom": "0x000000000000000000000000000000000000000000000000000000000000000000400000000000000001000001000000000000000000000000000000002000000000040000000000000000080000000000000000000000000000000004000000000000000000000000000000000000000000000000000000000000100000000000000000000000000000000000200000000000008000000000000000000000000a0020000000000000000000000000000000000000000000000000000000000000000002000000000000000000000000000000000000000000000000000000000010000000000000000000000000000000000000000000000000000000000000",
      "transactionHash": "0xd172c749a884450259241e456d949bf9ccd54dad1af2b51f08900ea11600f5d6",
      "transactionIndex": "0x1c",
      "blockHash": "0x4a5e27801f4be81977b173d1c2602ef4eacffdce6b03d2950d14bd353950938c",
      "blockNumber": "0x35ed46",
      "gasUsed": "0xb18e",
      "effectiveGasPrice": "0x2540c48b5",
      "from": "0x1d434906aa520e592fab2b82406beff859be8e82",
      "to": "0x20c0000000000000000000000000000000000000",
      "contractAddress": null,
      "feeToken": "0x20c0000000000000000000000000000000000000",
      "feePayer": "0x1d434906aa520e592fab2b82406beff859be8e82"
    },
    {
      "type": "0x2",
      "status": "0x1",
      "cumulativeGasUsed": "0x18050d",
      "logs": [
        {
          "address": "0x20c0000000000000000000000000000000000000",
          "topics": [
            "0xddf252ad1be2c89b69c2b068fc378daa952ba7f163c4a11628f55a4df523b3ef",
            "0x0000000000000000000000001d434906aa520e592fab2b82406beff859be8e82",
            "0x000000000000000000000000feec000000000000000000000000000000000000"
          ],
          "data": "0x0000000000000000000000000000000000000000000000000000000000989680",
          "blockHash": "0x4a5e27801f4be81977b173d1c2602ef4eacffdce6b03d2950d14bd353950938c",
          "blockNumber": "0x35ed46",
          "blockTimestamp": "0x6982702a",
          "transactionHash": "0x3bbbbb5d1311ee876f9d958976db948b58b5977e132c3d5fde5af2aa17c1e9da",
          "transactionIndex": "0x1d",
          "logIndex": "0x36",
          "removed": false
        },
        {
          "address": "0xfeec000000000000000000000000000000000000",
          "topics": [
            "0xf114ca9eb82947af39f957fa726280fd3d5d81c3d7635a4aeb5c302962856eba",
            "0x0000000000000000000000001d434906aa520e592fab2b82406beff859be8e82",
            "0x00000000000000000000000020c000000000000000000000cf5b0f48f7fedc7f",
            "0x00000000000000000000000020c0000000000000000000000000000000000000"
          ],
          "data": "0x0000000000000000000000001d434906aa520e592fab2b82406beff859be8e82000000000000000000000000000000000000000000000000000000000098968000000000000000000000000000000000000000000000000000000000004c4758",
          "blockHash": "0x4a5e27801f4be81977b173d1c2602ef4eacffdce6b03d2950d14bd353950938c",
          "blockNumber": "0x35ed46",
          "blockTimestamp": "0x6982702a",
          "transactionHash": "0x3bbbbb5d1311ee876f9d958976db948b58b5977e132c3d5fde5af2aa17c1e9da",
          "transactionIndex": "0x1d",
          "logIndex": "0x37",
          "removed": false
        },
        {
          "address": "0x20c0000000000000000000000000000000000000",
          "topics": [
            "0xddf252ad1be2c89b69c2b068fc378daa952ba7f163c4a11628f55a4df523b3ef",
            "0x0000000000000000000000001d434906aa520e592fab2b82406beff859be8e82",
            "0x000000000000000000000000feec000000000000000000000000000000000000"
          ],
          "data": "0x0000000000000000000000000000000000000000000000000000000000000403",
          "blockHash": "0x4a5e27801f4be81977b173d1c2602ef4eacffdce6b03d2950d14bd353950938c",
          "blockNumber": "0x35ed46",
          "blockTimestamp": "0x6982702a",
          "transactionHash": "0x3bbbbb5d1311ee876f9d958976db948b58b5977e132c3d5fde5af2aa17c1e9da",
          "transactionIndex": "0x1d",
          "logIndex": "0x38",
          "removed": false
        }
      ],
      "logsBloom": "0x00004000000000000000000000000000000000000000000000000000000000000040040000000000000100100100000000000000000000000000000000000000000004000000000000000008000000000000000000000000000000000400000000000000000000000000000000000000000000008000000000000010100040000000000000000000000000000020004000000000800000000000000000000040080020000000000000000000000400000000000000000000000000040000000000000002000000000000000000000000000000000080000000000000000000000000000000000000000100000000000000000000000000000000000000000000",
      "transactionHash": "0x3bbbbb5d1311ee876f9d958976db948b58b5977e132c3d5fde5af2aa17c1e9da",
      "transactionIndex": "0x1d",
      "blockHash": "0x4a5e27801f4be81977b173d1c2602ef4eacffdce6b03d2950d14bd353950938c",
      "blockNumber": "0x35ed46",
      "gasUsed": "0x190e1",
      "effectiveGasPrice": "0x2540c48b5",
      "from": "0x1d434906aa520e592fab2b82406beff859be8e82",
      "to": "0xfeec000000000000000000000000000000000000",
      "contractAddress": null,
      "feeToken": "0x20c0000000000000000000000000000000000000",
      "feePayer": "0x1d434906aa520e592fab2b82406beff859be8e82"
    }
  ],
  "libraries": [],
  "pending": [],
  "returns": {},
  "timestamp": 1770156076789,
  "chain": 42431,
  "commit": "47b8acf"
}