{
  "transactions": [
    {
      "hash": "0x1baa1298f8a6940a45b556282937eea901198c2d7d8cd2fcfee07c9d610cf149",
      "transactionType": "CALL",
      "contractName": null,
      "contractAddress": "0x741f0d8bde14140f62107fc60a0ee122b37d4630",
      "function": "batchBridgeWithEthFeeFromWallet((uint32,bytes32,uint256,uint256,bytes,bytes,bytes)[],address[],address[])",
      "arguments": [
        "[(30320, 0x000000000000000000000000741f0d8bde14140f62107fc60a0ee122b37d4630, 5000000000000000000, 0, 0x, 0x, 0x)]",
        "[0x57558Cb8d6005DE0BAe8a2789d5EfaaE52dba5a8]",
        "[0x741F0d8Bde14140f62107FC60A0EE122B37D4630]"
      ],
      "transaction": {
        "from": "0x45dce8e4f2dc005a5f28206a46cb034697eeda8e",
        "to": "0x741f0d8bde14140f62107fc60a0ee122b37d4630",
        "gas": "0x95056",
        "value": "0x18d6a52196d2f84",
        "input": "0xb70d4241000000000000000000000000000000000000000000000000000000000000006000000000000000000000000000000000000000000000000000000000000001e00000000000000000000000000000000000000000000000000000000000000220000000000000000000000000000000000000000000000000000000000000000100000000000000000000000000000000000000000000000000000000000000200000000000000000000000000000000000000000000000000000000000007670000000000000000000000000741f0d8bde14140f62107fc60a0ee122b37d46300000000000000000000000000000000000000000000000004563918244f40000000000000000000000000000000000000000000000000000000000000000000000000000000000000000000000000000000000000000000000000000000000e000000000000000000000000000000000000000000000000000000000000001000000000000000000000000000000000000000000000000000000000000000120000000000000000000000000000000000000000000000000000000000000000000000000000000000000000000000000000000000000000000000000000000000000000000000000000000000000000000000000000000000000000000000000000000000000000000000000000000000000000000000000000000000000000100000000000000000000000057558cb8d6005de0bae8a2789d5efaae52dba5a80000000000000000000000000000000000000000000000000000000000000001000000000000000000000000741f0d8bde14140f62107fc60a0ee122b37d4630",
        "nonce": "0x71",
        "chainId": "0x89"
      },
      "additionalContracts": [],
      "isFixedGasLimit": false
    }
  ],
  "receipts": [
    {
      "status": "0x1",
      "cumulativeGasUsed": "0x1242cd5",
      "logs": [
        {
          "address": "0x0000000000000000000000000000000000001010",
          "topics": [
            "0xe6497e3ee548a3372136af2fcb0696db31fc6cf20260707645068bd3fe97f3c4",
            "0x0000000000000000000000000000000000000000000000000000000000001010",
            "0x00000000000000000000000045dce8e4f2dc005a5f28206a46cb034697eeda8e",
            "0x000000000000000000000000741f0d8bde14140f62107fc60a0ee122b37d4630"
          ],
          "data": "0x000000000000000000000000000000000000000000000000018d6a52196d2f8400000000000000000000000000000000000000000000000056641dccbaa5c1bb000000000000000000000000000000000000000000000000000000000000000000000000000000000000000000000000000000000000000054d6b37aa1389237000000000000000000000000000000000000000000000000018d6a52196d2f84",
          "blockHash": "0x0c83cdfee5be48feb0a63d4cd1dbdf882c1ca69e899d8684827f51ba54246372",
          "blockNumber": "0x459ab6f",
          "transactionHash": "0x1baa1298f8a6940a45b556282937eea901198c2d7d8cd2fcfee07c9d610cf149",
          "transactionIndex": "0x8b",
          "logIndex": "0x25f",
          "removed": false
        },
        {
          "address": "0x0000000000000000000000000000000000001010",
          "topics": [
            "0xe6497e3ee548a3372136af2fcb0696db31fc6cf20260707645068bd3fe97f3c4",
            "0x0000000000000000000000000000000000000000000000000000000000001010",
            "0x000000000000000000000000741f0d8bde14140f62107fc60a0ee122b37d4630",
            "0x00000000000000000000000057558cb8d6005de0bae8a2789d5efaae52dba5a8"
          ],
          "data": "0x000000000000000000000000000000000000000000000000018d6a52196d2f84000000000000000000000000000000000000000000000000018d6a52196d2f8400000000000000000000000000000000000000000000000000000000000000000000000000000000000000000000000000000000000000000000000000000000000000000000000000000000000000000000000000000000018d6a52196d2f84",
          "blockHash": "0x0c83cdfee5be48feb0a63d4cd1dbdf882c1ca69e899d8684827f51ba54246372",
          "blockNumber": "0x459ab6f",
          "transactionHash": "0x1baa1298f8a6940a45b556282937eea901198c2d7d8cd2fcfee07c9d610cf149",
          "transactionIndex": "0x8b",
          "logIndex": "0x260",
          "removed": false
        },
        {
          "address": "0x57558cb8d6005de0bae8a2789d5efaae52dba5a8",
          "topics": [
            "0xddf252ad1be2c89b69c2b068fc378daa952ba7f163c4a11628f55a4df523b3ef",
            "0x000000000000000000000000741f0d8bde14140f62107fc60a0ee122b37d4630",
            "0x0000000000000000000000000000000000000000000000000000000000000000"
          ],
          "data": "0x0000000000000000000000000000000000000000000000004563918244f40000",
          "blockHash": "0x0c83cdfee5be48feb0a63d4cd1dbdf882c1ca69e899d8684827f51ba54246372",
          "blockNumber": "0x459ab6f",
          "transactionHash": "0x1baa1298f8a6940a45b556282937eea901198c2d7d8cd2fcfee07c9d610cf149",
          "transactionIndex": "0x8b",
          "logIndex": "0x261",
          "removed": false
        },
        {
          "address": "0x0000000000000000000000000000000000001010",
          "topics": [
            "0xe6497e3ee548a3372136af2fcb0696db31fc6cf20260707645068bd3fe97f3c4",
            "0x0000000000000000000000000000000000000000000000000000000000001010",
            "0x00000000000000000000000057558cb8d6005de0bae8a2789d5efaae52dba5a8",
            "0x0000000000000000000000001a44076050125825900e736c501f859c50fe728c"
          ],
          "data": "0x000000000000000000000000000000000000000000000000018d6a52196d2f84000000000000000000000000000000000000000000000000018d6a52196d2f8400000000000000000000000000000000000000000000000000000000000000000000000000000000000000000000000000000000000000000000000000000000000000000000000000000000000000000000000000000000018d6a52196d2f84",
          "blockHash": "0x0c83cdfee5be48feb0a63d4cd1dbdf882c1ca69e899d8684827f51ba54246372",
          "blockNumber": "0x459ab6f",
          "transactionHash": "0x1baa1298f8a6940a45b556282937eea901198c2d7d8cd2fcfee07c9d610cf149",
          "transactionIndex": "0x8b",
          "logIndex": "0x262",
          "removed": false
        },
        {
          "address": "0x6c26c61a97006888ea9e4fa36584c7df57cd9da3",
          "topics": [
            "0x61ed099e74a97a1d7f8bb0952a88ca8b7b8ebd00c126ea04671f92a81213318a"
          ],
          "data": "0x000000000000000000000000cd3f213ad101472e1713c72b1697e727c803885b000000000000000000000000000000000000000000000000017e32e7e1ec0ccf",
          "blockHash": "0x0c83cdfee5be48feb0a63d4cd1dbdf882c1ca69e899d8684827f51ba54246372",
          "blockNumber": "0x459ab6f",
          "transactionHash": "0x1baa1298f8a6940a45b556282937eea901198c2d7d8cd2fcfee07c9d610cf149",
          "transactionIndex": "0x8b",
          "logIndex": "0x263",
          "removed": false
        },
        {
          "address": "0x6c26c61a97006888ea9e4fa36584c7df57cd9da3",
          "topics": [
            "0x07ea52d82345d6e838192107d8fd7123d9c2ec8e916cd0aad13fd2b60db24644"
          ],
          "data": "0x000000000000000000000000000000000000000000000000000000000000006000000000000000000000000000000000000000000000000000000000000000e00000000000000000000000000000000000000000000000000000000000000100000000000000000000000000000000000000000000000000000000000000000300000000000000000000000023de2fe932d9043291f870324b74f820e11dc81a00000000000000000000000025e0e650a78e6304a3983fc4b7ffc6544b1beea6000000000000000000000000dab6e6ecb3513a8d2614ad75199b4b264a731050000000000000000000000000000000000000000000000000000000000000000000000000000000000000000000000000000000000000000000000000000000030000000000000000000000000000000000000000000000000005008729e974120000000000000000000000000000000000000000000000000005008729e974120000000000000000000000000000000000000000000000000005365be3ae3a91",
          "blockHash": "0x0c83cdfee5be48feb0a63d4cd1dbdf882c1ca69e899d8684827f51ba54246372",
          "blockNumber": "0x459ab6f",
          "transactionHash": "0x1baa1298f8a6940a45b556282937eea901198c2d7d8cd2fcfee07c9d610cf149",
          "transactionIndex": "0x8b",
          "logIndex": "0x264",
          "removed": false
        },
        {
          "address": "0x1a44076050125825900e736c501f859c50fe728c",
          "topics": [
            "0x1ab700d4ced0c005b164c0f789fd09fcbb0156d4c2041b8a3bfbcd961cd1567f"
          ],
          "data": "0x000000000000000000000000000000000000000000000000000000000000006000000000000000000000000000000000000000000000000000000000000001200000000000000000000000006c26c61a97006888ea9e4fa36584c7df57cd9da300000000000000000000000000000000000000000000000000000000000000990100000000000000010000759d00000000000000000000000057558cb8d6005de0bae8a2789d5efaae52dba5a80000767000000000000000000000000057558cb8d6005de0bae8a2789d5efaae52dba5a8a535c098ed181c7640b5357e93961f4fce365d1a3c27af72f95315c30b4917e2000000000000000000000000741f0d8bde14140f62107fc60a0ee122b37d463000000000004c4b4000000000000000000000000000000000000000000000000000000000000000000000000000001600030100110100000000000000000000000000030d4000000000000000000000",
          "blockHash": "0x0c83cdfee5be48feb0a63d4cd1dbdf882c1ca69e899d8684827f51ba54246372",
          "blockNumber": "0x459ab6f",
          "transactionHash": "0x1baa1298f8a6940a45b556282937eea901198c2d7d8cd2fcfee07c9d610cf149",
          "transactionIndex": "0x8b",
          "logIndex": "0x265",
          "removed": false
        },
        {
          "address": "0x0000000000000000000000000000000000001010",
          "topics": [
            "0xe6497e3ee548a3372136af2fcb0696db31fc6cf20260707645068bd3fe97f3c4",
            "0x0000000000000000000000000000000000000000000000000000000000001010",
            "0x0000000000000000000000001a44076050125825900e736c501f859c50fe728c",
            "0x0000000000000000000000006c26c61a97006888ea9e4fa36584c7df57cd9da3"
          ],
          "data": "0x000000000000000000000000000000000000000000000000018d6a52196d2f84000000000000000000000000000000000000000000000000018d6a52196d2f84000000000000000000000000000000000000000000001447be2d36b52367c6850000000000000000000000000000000000000000000000000000000000000000000000000000000000000000000000000000000000001447bfbaa1073cd4f609",
          "blockHash": "0x0c83cdfee5be48feb0a63d4cd1dbdf882c1ca69e899d8684827f51ba54246372",
          "blockNumber": "0x459ab6f",
          "transactionHash": "0x1baa1298f8a6940a45b556282937eea901198c2d7d8cd2fcfee07c9d610cf149",
          "transactionIndex": "0x8b",
          "logIndex": "0x266",
          "removed": false
        },
        {
          "address": "0x57558cb8d6005de0bae8a2789d5efaae52dba5a8",
          "topics": [
            "0x85496b760a4b7f8d66384b9df21b381f5d1b1e79f229a47aaf4c232edc2fe59a",
            "0xa535c098ed181c7640b5357e93961f4fce365d1a3c27af72f95315c30b4917e2",
            "0x000000000000000000000000741f0d8bde14140f62107fc60a0ee122b37d4630"
          ],
          "data": "0x00000000000000000000000000000000000000000000000000000000000076700000000000000000000000000000000000000000000000004563918244f400000000000000000000000000000000000000000000000000004563918244f40000",
          "blockHash": "0x0c83cdfee5be48feb0a63d4cd1dbdf882c1ca69e899d8684827f51ba54246372",
          "blockNumber": "0x459ab6f",
          "transactionHash": "0x1baa1298f8a6940a45b556282937eea901198c2d7d8cd2fcfee07c9d610cf149",
          "transactionIndex": "0x8b",
          "logIndex": "0x267",
          "removed": false
        },
        {
          "address": "0x0000000000000000000000000000000000001010",
          "topics": [
            "0x4dfe1bbbcf077ddc3e01291eea2d5c70c2b422b415d95645b9adcfd678cb1d63",
            "0x0000000000000000000000000000000000000000000000000000000000001010",
            "0x00000000000000000000000045dce8e4f2dc005a5f28206a46cb034697eeda8e",
            "0x000000000000000000000000bc6044f4a1688d8b8596a9f7d4659e09985eebe6"
          ],
          "data": "0x000000000000000000000000000000000000000000000000002c7ba0e8716c0000000000000000000000000000000000000000000000000056a52c31a19e352700000000000000000000000000000000000000000000000c9f6c4f90d8c954e30000000000000000000000000000000000000000000000005678b090b92cc92700000000000000000000000000000000000000000000000c9f98cb31c13ac0e3",
          "blockHash": "0x0c83cdfee5be48feb0a63d4cd1dbdf882c1ca69e899d8684827f51ba54246372",
          "blockNumber": "0x459ab6f",
          "transactionHash": "0x1baa1298f8a6940a45b556282937eea901198c2d7d8cd2fcfee07c9d610cf149",
          "transactionIndex": "0x8b",
          "logIndex": "0x268",
          "removed": false
        }
      ],
      "logsBloom": "0x0000000000000000000100820004004000000000000000000000000400100000000000400000000000000010000200040000810000000000000000000000000000008200000000000000000800000080000000000000000000010000020000000000000002000000840000000000080000000080001000008020001000000000000000000000000000000008000000000000000080000000000101000000000820000000a000001400100000000000000000000000400000000440000000004000000002000000000001000080000008001000000000801000188000000020000000040000000000000000000000802000000000018000000000000000100000",
      "type": "0x2",
      "transactionHash": "0x1baa1298f8a6940a45b556282937eea901198c2d7d8cd2fcfee07c9d610cf149",
      "transactionIndex": "0x8b",
      "blockHash": "0x0c83cdfee5be48feb0a63d4cd1dbdf882c1ca69e899d8684827f51ba54246372",
      "blockNumber": "0x459ab6f",
      "gasUsed": "0x65e51",
      "effectiveGasPrice": "0x6fc23ac22",
      "from": "0x45dce8e4f2dc005a5f28206a46cb034697eeda8e",
      "to": "0x741f0d8bde14140f62107fc60a0ee122b37d4630",
      "contractAddress": null
    }
  ],
  "libraries": [],
  "pending": [],
  "returns": {},
  "timestamp": 1750389598,
  "chain": 137,
  "commit": "2171fc2"
}