{
  "transactions": [
    {
      "hash": "0x70ecf9ec52a28f935bbff469de67bf45f6ee348a483de3c639749a6ea28fa688",
      "transactionType": "CALL",
      "contractName": null,
      "contractAddress": "0x741f0d8bde14140f62107fc60a0ee122b37d4630",
      "function": "batchBridgeWithEthFeeFromWallet((uint32,bytes32,uint256,uint256,bytes,bytes,bytes)[],address[],address[])",
      "arguments": [
        "[(30375, 0x000000000000000000000000741f0d8bde14140f62107fc60a0ee122b37d4630, 1000000000000000000, 0, 0x, 0x, 0x)]",
        "[0x57558Cb8d6005DE0BAe8a2789d5EfaaE52dba5a8]",
        "[0x741F0d8Bde14140f62107FC60A0EE122B37D4630]"
      ],
      "transaction": {
        "from": "0x45dce8e4f2dc005a5f28206a46cb034697eeda8e",
        "to": "0x741f0d8bde14140f62107fc60a0ee122b37d4630",
        "gas": "0x95056",
        "value": "0x16f547d43222ad6",
        "input": "0xb70d4241000000000000000000000000000000000000000000000000000000000000006000000000000000000000000000000000000000000000000000000000000001e000000000000000000000000000000000000000000000000000000000000002200000000000000000000000000000000000000000000000000000000000000001000000000000000000000000000000000000000000000000000000000000002000000000000000000000000000000000000000000000000000000000000076a7000000000000000000000000741f0d8bde14140f62107fc60a0ee122b37d46300000000000000000000000000000000000000000000000000de0b6b3a7640000000000000000000000000000000000000000000000000000000000000000000000000000000000000000000000000000000000000000000000000000000000e000000000000000000000000000000000000000000000000000000000000001000000000000000000000000000000000000000000000000000000000000000120000000000000000000000000000000000000000000000000000000000000000000000000000000000000000000000000000000000000000000000000000000000000000000000000000000000000000000000000000000000000000000000000000000000000000000000000000000000000000000000000000000000000000100000000000000000000000057558cb8d6005de0bae8a2789d5efaae52dba5a80000000000000000000000000000000000000000000000000000000000000001000000000000000000000000741f0d8bde14140f62107fc60a0ee122b37d4630",
        "nonce": "0x9b",
        "chainId": "0x89"
      },
      "additionalContracts": [],
      "isFixedGasLimit": false
    }
  ],
  "receipts": [
    {
      "status": "0x1",
      "cumulativeGasUsed": "0x6f4531",
      "logs": [
        {
          "address": "0x0000000000000000000000000000000000001010",
          "topics": [
            "0xe6497e3ee548a3372136af2fcb0696db31fc6cf20260707645068bd3fe97f3c4",
            "0x0000000000000000000000000000000000000000000000000000000000001010",
            "0x00000000000000000000000045dce8e4f2dc005a5f28206a46cb034697eeda8e",
            "0x000000000000000000000000741f0d8bde14140f62107fc60a0ee122b37d4630"
          ],
          "data": "0x000000000000000000000000000000000000000000000000016f547d43222ad60000000000000000000000000000000000000000000000000b4dc349efbe26e3000000000000000000000000000000000000000000000000000000000000000000000000000000000000000000000000000000000000000009de6eccac9bfc0d000000000000000000000000000000000000000000000000016f547d43222ad6",
          "blockHash": "0x7c6d211f32fe5afa34ace5b9862980e3755edba9947dcad59814a050e1cecfd1",
          "blockNumber": "0x4728778",
          "transactionHash": "0x70ecf9ec52a28f935bbff469de67bf45f6ee348a483de3c639749a6ea28fa688",
          "transactionIndex": "0x2b",
          "logIndex": "0xf0",
          "removed": false
        },
        {
          "address": "0x0000000000000000000000000000000000001010",
          "topics": [
            "0xe6497e3ee548a3372136af2fcb0696db31fc6cf20260707645068bd3fe97f3c4",
            "0x0000000000000000000000000000000000000000000000000000000000001010",
            "0x000000000000000000000000741f0d8bde14140f62107fc60a0ee122b37d4630",
            "0x00000000000000000000000057558cb8d6005de0bae8a2789d5efaae52dba5a8"
          ],
          "data": "0x000000000000000000000000000000000000000000000000016f547d43222ad6000000000000000000000000000000000000000000000000016f547d43222ad600000000000000000000000000000000000000000000000000000000000000000000000000000000000000000000000000000000000000000000000000000000000000000000000000000000000000000000000000000000016f547d43222ad6",
          "blockHash": "0x7c6d211f32fe5afa34ace5b9862980e3755edba9947dcad59814a050e1cecfd1",
          "blockNumber": "0x4728778",
          "transactionHash": "0x70ecf9ec52a28f935bbff469de67bf45f6ee348a483de3c639749a6ea28fa688",
          "transactionIndex": "0x2b",
          "logIndex": "0xf1",
          "removed": false
        },
        {
          "address": "0x57558cb8d6005de0bae8a2789d5efaae52dba5a8",
          "topics": [
            "0xddf252ad1be2c89b69c2b068fc378daa952ba7f163c4a11628f55a4df523b3ef",
            "0x000000000000000000000000741f0d8bde14140f62107fc60a0ee122b37d4630",
            "0x0000000000000000000000000000000000000000000000000000000000000000"
          ],
          "data": "0x0000000000000000000000000000000000000000000000000de0b6b3a7640000",
          "blockHash": "0x7c6d211f32fe5afa34ace5b9862980e3755edba9947dcad59814a050e1cecfd1",
          "blockNumber": "0x4728778",
          "transactionHash": "0x70ecf9ec52a28f935bbff469de67bf45f6ee348a483de3c639749a6ea28fa688",
          "transactionIndex": "0x2b",
          "logIndex": "0xf2",
          "removed": false
        },
        {
          "address": "0x0000000000000000000000000000000000001010",
          "topics": [
            "0xe6497e3ee548a3372136af2fcb0696db31fc6cf20260707645068bd3fe97f3c4",
            "0x0000000000000000000000000000000000000000000000000000000000001010",
            "0x00000000000000000000000057558cb8d6005de0bae8a2789d5efaae52dba5a8",
            "0x0000000000000000000000001a44076050125825900e736c501f859c50fe728c"
          ],
          "data": "0x000000000000000000000000000000000000000000000000016f547d43222ad6000000000000000000000000000000000000000000000000016f547d43222ad600000000000000000000000000000000000000000000000000000000000000000000000000000000000000000000000000000000000000000000000000000000000000000000000000000000000000000000000000000000016f547d43222ad6",
          "blockHash": "0x7c6d211f32fe5afa34ace5b9862980e3755edba9947dcad59814a050e1cecfd1",
          "blockNumber": "0x4728778",
          "transactionHash": "0x70ecf9ec52a28f935bbff469de67bf45f6ee348a483de3c639749a6ea28fa688",
          "transactionIndex": "0x2b",
          "logIndex": "0xf3",
          "removed": false
        },
        {
          "address": "0x6c26c61a97006888ea9e4fa36584c7df57cd9da3",
          "topics": [
            "0x61ed099e74a97a1d7f8bb0952a88ca8b7b8ebd00c126ea04671f92a81213318a"
          ],
          "data": "0x000000000000000000000000cd3f213ad101472e1713c72b1697e727c803885b000000000000000000000000000000000000000000000000015bf044ad063e6b",
          "blockHash": "0x7c6d211f32fe5afa34ace5b9862980e3755edba9947dcad59814a050e1cecfd1",
          "blockNumber": "0x4728778",
          "transactionHash": "0x70ecf9ec52a28f935bbff469de67bf45f6ee348a483de3c639749a6ea28fa688",
          "transactionIndex": "0x2b",
          "logIndex": "0xf4",
          "removed": false
        },
        {
          "address": "0x6c26c61a97006888ea9e4fa36584c7df57cd9da3",
          "topics": [
            "0x07ea52d82345d6e838192107d8fd7123d9c2ec8e916cd0aad13fd2b60db24644"
          ],
          "data": "0x000000000000000000000000000000000000000000000000000000000000006000000000000000000000000000000000000000000000000000000000000000e00000000000000000000000000000000000000000000000000000000000000100000000000000000000000000000000000000000000000000000000000000000300000000000000000000000023de2fe932d9043291f870324b74f820e11dc81a00000000000000000000000031f748a368a893bdb5abb67ec95f232507601a73000000000000000000000000dab6e6ecb3513a8d2614ad75199b4b264a731050000000000000000000000000000000000000000000000000000000000000000000000000000000000000000000000000000000000000000000000000000000030000000000000000000000000000000000000000000000000006665791964aed000000000000000000000000000000000000000000000000000652aa043f79780000000000000000000000000000000000000000000000000006ab3700462806",
          "blockHash": "0x7c6d211f32fe5afa34ace5b9862980e3755edba9947dcad59814a050e1cecfd1",
          "blockNumber": "0x4728778",
          "transactionHash": "0x70ecf9ec52a28f935bbff469de67bf45f6ee348a483de3c639749a6ea28fa688",
          "transactionIndex": "0x2b",
          "logIndex": "0xf5",
          "removed": false
        },
        {
          "address": "0x1a44076050125825900e736c501f859c50fe728c",
          "topics": [
            "0x1ab700d4ced0c005b164c0f789fd09fcbb0156d4c2041b8a3bfbcd961cd1567f"
          ],
          "data": "0x000000000000000000000000000000000000000000000000000000000000006000000000000000000000000000000000000000000000000000000000000001200000000000000000000000006c26c61a97006888ea9e4fa36584c7df57cd9da300000000000000000000000000000000000000000000000000000000000000990100000000000000010000759d00000000000000000000000057558cb8d6005de0bae8a2789d5efaae52dba5a8000076a700000000000000000000000057558cb8d6005de0bae8a2789d5efaae52dba5a8d007ccfd060cba20ab541908076886b0f6c8c7861daa873c933aa32f32020e13000000000000000000000000741f0d8bde14140f62107fc60a0ee122b37d463000000000000f424000000000000000000000000000000000000000000000000000000000000000000000000000001600030100110100000000000000000000000000030d4000000000000000000000",
          "blockHash": "0x7c6d211f32fe5afa34ace5b9862980e3755edba9947dcad59814a050e1cecfd1",
          "blockNumber": "0x4728778",
          "transactionHash": "0x70ecf9ec52a28f935bbff469de67bf45f6ee348a483de3c639749a6ea28fa688",
          "transactionIndex": "0x2b",
          "logIndex": "0xf6",
          "removed": false
        },
        {
          "address": "0x0000000000000000000000000000000000001010",
          "topics": [
            "0xe6497e3ee548a3372136af2fcb0696db31fc6cf20260707645068bd3fe97f3c4",
            "0x0000000000000000000000000000000000000000000000000000000000001010",
            "0x0000000000000000000000001a44076050125825900e736c501f859c50fe728c",
            "0x0000000000000000000000006c26c61a97006888ea9e4fa36584c7df57cd9da3"
          ],
          "data": "0x000000000000000000000000000000000000000000000000016f547d43222ad6000000000000000000000000000000000000000000000000016f547d43222ad6000000000000000000000000000000000000000000001acf9f310e83572936090000000000000000000000000000000000000000000000000000000000000000000000000000000000000000000000000000000000001acfa0a063009a4b60df",
          "blockHash": "0x7c6d211f32fe5afa34ace5b9862980e3755edba9947dcad59814a050e1cecfd1",
          "blockNumber": "0x4728778",
          "transactionHash": "0x70ecf9ec52a28f935bbff469de67bf45f6ee348a483de3c639749a6ea28fa688",
          "transactionIndex": "0x2b",
          "logIndex": "0xf7",
          "removed": false
        },
        {
          "address": "0x57558cb8d6005de0bae8a2789d5efaae52dba5a8",
          "topics": [
            "0x85496b760a4b7f8d66384b9df21b381f5d1b1e79f229a47aaf4c232edc2fe59a",
            "0xd007ccfd060cba20ab541908076886b0f6c8c7861daa873c933aa32f32020e13",
            "0x000000000000000000000000741f0d8bde14140f62107fc60a0ee122b37d4630"
          ],
          "data": "0x00000000000000000000000000000000000000000000000000000000000076a70000000000000000000000000000000000000000000000000de0b6b3a76400000000000000000000000000000000000000000000000000000de0b6b3a7640000",
          "blockHash": "0x7c6d211f32fe5afa34ace5b9862980e3755edba9947dcad59814a050e1cecfd1",
          "blockNumber": "0x4728778",
          "transactionHash": "0x70ecf9ec52a28f935bbff469de67bf45f6ee348a483de3c639749a6ea28fa688",
          "transactionIndex": "0x2b",
          "logIndex": "0xf8",
          "removed": false
        },
        {
          "address": "0x0000000000000000000000000000000000001010",
          "topics": [
            "0x4dfe1bbbcf077ddc3e01291eea2d5c70c2b422b415d95645b9adcfd678cb1d63",
            "0x0000000000000000000000000000000000000000000000000000000000001010",
            "0x00000000000000000000000045dce8e4f2dc005a5f28206a46cb034697eeda8e",
            "0x00000000000000000000000083d69448f88bf9c701c1b93f43e1f753d39b2632"
          ],
          "data": "0x0000000000000000000000000000000000000000000000000026925b0dff41c40000000000000000000000000000000000000000000000000b862c85eaa0c3d100000000000000000000000000000000000000000000297862e2f57061a3bd140000000000000000000000000000000000000000000000000b5f9a2adca1820d000000000000000000000000000000000000000000002978630987cb6fa2fed8",
          "blockHash": "0x7c6d211f32fe5afa34ace5b9862980e3755edba9947dcad59814a050e1cecfd1",
          "blockNumber": "0x4728778",
          "transactionHash": "0x70ecf9ec52a28f935bbff469de67bf45f6ee348a483de3c639749a6ea28fa688",
          "transactionIndex": "0x2b",
          "logIndex": "0xf9",
          "removed": false
        }
      ],
      "logsBloom": "0x0000000000000000000100820004004000000000000000000000000400100000000000400000000000000010000200040000810000000000000000000000000000008200000000800000000800000080000000000000000000012000000000000000000002000000800000000000080000000000081010008020001000000000000000000000000000000048000000000000000080000000000001000000000020000000a000001400100000000000000000000000400000000440000000004000008002000000000001000080000000001000000000801000188000000020000000040000000000000000000000802000000000018000000000000000100000",
      "type": "0x2",
      "transactionHash": "0x70ecf9ec52a28f935bbff469de67bf45f6ee348a483de3c639749a6ea28fa688",
      "transactionIndex": "0x2b",
      "blockHash": "0x7c6d211f32fe5afa34ace5b9862980e3755edba9947dcad59814a050e1cecfd1",
      "blockNumber": "0x4728778",
      "gasUsed": "0x65e51",
      "effectiveGasPrice": "0x60e84a0e5",
      "from": "0x45dce8e4f2dc005a5f28206a46cb034697eeda8e",
      "to": "0x741f0d8bde14140f62107fc60a0ee122b37d4630",
      "contractAddress": null
    }
  ],
  "libraries": [],
  "pending": [],
  "returns": {},
  "timestamp": 1753933201,
  "chain": 137,
  "commit": "bc2ac99"
}