{
  "transactions": [
    {
      "hash": "0x6486fa17a2f69dc8c49084cacf68003133ee31b36dea1842184a88067f24807e",
      "transactionType": "CALL",
      "contractName": null,
      "contractAddress": "0x741f0d8bde14140f62107fc60a0ee122b37d4630",
      "function": "batchBridgeWithEthFeeFromWallet((uint32,bytes32,uint256,uint256,bytes,bytes,bytes)[],address[],address[])",
      "arguments": [
        "[(30370, 0x000000000000000000000000741f0d8bde14140f62107fc60a0ee122b37d4630, 1000000000000000000, 0, 0x, 0x, 0x)]",
        "[0x57558Cb8d6005DE0BAe8a2789d5EfaaE52dba5a8]",
        "[0x741F0d8Bde14140f62107FC60A0EE122B37D4630]"
      ],
      "transaction": {
        "from": "0x45dce8e4f2dc005a5f28206a46cb034697eeda8e",
        "to": "0x741f0d8bde14140f62107fc60a0ee122b37d4630",
        "gas": "0x95056",
        "value": "0x5194e8e857c6b02",
        "input": "0xb70d4241000000000000000000000000000000000000000000000000000000000000006000000000000000000000000000000000000000000000000000000000000001e000000000000000000000000000000000000000000000000000000000000002200000000000000000000000000000000000000000000000000000000000000001000000000000000000000000000000000000000000000000000000000000002000000000000000000000000000000000000000000000000000000000000076a2000000000000000000000000741f0d8bde14140f62107fc60a0ee122b37d46300000000000000000000000000000000000000000000000000de0b6b3a7640000000000000000000000000000000000000000000000000000000000000000000000000000000000000000000000000000000000000000000000000000000000e000000000000000000000000000000000000000000000000000000000000001000000000000000000000000000000000000000000000000000000000000000120000000000000000000000000000000000000000000000000000000000000000000000000000000000000000000000000000000000000000000000000000000000000000000000000000000000000000000000000000000000000000000000000000000000000000000000000000000000000000000000000000000000000000100000000000000000000000057558cb8d6005de0bae8a2789d5efaae52dba5a80000000000000000000000000000000000000000000000000000000000000001000000000000000000000000741f0d8bde14140f62107fc60a0ee122b37d4630",
        "nonce": "0x94",
        "chainId": "0x89"
      },
      "additionalContracts": [],
      "isFixedGasLimit": false
    }
  ],
  "receipts": [
    {
      "status": "0x1",
      "cumulativeGasUsed": "0xaab25a",
      "logs": [
        {
          "address": "0x0000000000000000000000000000000000001010",
          "topics": [
            "0xe6497e3ee548a3372136af2fcb0696db31fc6cf20260707645068bd3fe97f3c4",
            "0x0000000000000000000000000000000000000000000000000000000000001010",
            "0x00000000000000000000000045dce8e4f2dc005a5f28206a46cb034697eeda8e",
            "0x000000000000000000000000741f0d8bde14140f62107fc60a0ee122b37d4630"
          ],
          "data": "0x00000000000000000000000000000000000000000000000005194e8e857c6b0200000000000000000000000000000000000000000000000010ebdc80eda2ee5b00000000000000000000000000000000000000000000000000000000000000000000000000000000000000000000000000000000000000000bd28df26826835900000000000000000000000000000000000000000000000005194e8e857c6b02",
          "blockHash": "0x62b3bf74652428df039fe0469bc4c9e3e2f6d09341ae7a1494573a2a7d834a18",
          "blockNumber": "0x46b08f2",
          "transactionHash": "0x6486fa17a2f69dc8c49084cacf68003133ee31b36dea1842184a88067f24807e",
          "transactionIndex": "0x39",
          "logIndex": "0x1c0",
          "removed": false
        },
        {
          "address": "0x0000000000000000000000000000000000001010",
          "topics": [
            "0xe6497e3ee548a3372136af2fcb0696db31fc6cf20260707645068bd3fe97f3c4",
            "0x0000000000000000000000000000000000000000000000000000000000001010",
            "0x000000000000000000000000741f0d8bde14140f62107fc60a0ee122b37d4630",
            "0x00000000000000000000000057558cb8d6005de0bae8a2789d5efaae52dba5a8"
          ],
          "data": "0x00000000000000000000000000000000000000000000000005194e8e857c6b0200000000000000000000000000000000000000000000000005194e8e857c6b020000000000000000000000000000000000000000000000000000000000000000000000000000000000000000000000000000000000000000000000000000000000000000000000000000000000000000000000000000000005194e8e857c6b02",
          "blockHash": "0x62b3bf74652428df039fe0469bc4c9e3e2f6d09341ae7a1494573a2a7d834a18",
          "blockNumber": "0x46b08f2",
          "transactionHash": "0x6486fa17a2f69dc8c49084cacf68003133ee31b36dea1842184a88067f24807e",
          "transactionIndex": "0x39",
          "logIndex": "0x1c1",
          "removed": false
        },
        {
          "address": "0x57558cb8d6005de0bae8a2789d5efaae52dba5a8",
          "topics": [
            "0xddf252ad1be2c89b69c2b068fc378daa952ba7f163c4a11628f55a4df523b3ef",
            "0x000000000000000000000000741f0d8bde14140f62107fc60a0ee122b37d4630",
            "0x0000000000000000000000000000000000000000000000000000000000000000"
          ],
          "data": "0x0000000000000000000000000000000000000000000000000de0b6b3a7640000",
          "blockHash": "0x62b3bf74652428df039fe0469bc4c9e3e2f6d09341ae7a1494573a2a7d834a18",
          "blockNumber": "0x46b08f2",
          "transactionHash": "0x6486fa17a2f69dc8c49084cacf68003133ee31b36dea1842184a88067f24807e",
          "transactionIndex": "0x39",
          "logIndex": "0x1c2",
          "removed": false
        },
        {
          "address": "0x0000000000000000000000000000000000001010",
          "topics": [
            "0xe6497e3ee548a3372136af2fcb0696db31fc6cf20260707645068bd3fe97f3c4",
            "0x0000000000000000000000000000000000000000000000000000000000001010",
            "0x00000000000000000000000057558cb8d6005de0bae8a2789d5efaae52dba5a8",
            "0x0000000000000000000000001a44076050125825900e736c501f859c50fe728c"
          ],
          "data": "0x00000000000000000000000000000000000000000000000005194e8e857c6b0200000000000000000000000000000000000000000000000005194e8e857c6b020000000000000000000000000000000000000000000000000000000000000000000000000000000000000000000000000000000000000000000000000000000000000000000000000000000000000000000000000000000005194e8e857c6b02",
          "blockHash": "0x62b3bf74652428df039fe0469bc4c9e3e2f6d09341ae7a1494573a2a7d834a18",
          "blockNumber": "0x46b08f2",
          "transactionHash": "0x6486fa17a2f69dc8c49084cacf68003133ee31b36dea1842184a88067f24807e",
          "transactionIndex": "0x39",
          "logIndex": "0x1c3",
          "removed": false
        },
        {
          "address": "0x6c26c61a97006888ea9e4fa36584c7df57cd9da3",
          "topics": [
            "0x61ed099e74a97a1d7f8bb0952a88ca8b7b8ebd00c126ea04671f92a81213318a"
          ],
          "data": "0x000000000000000000000000cd3f213ad101472e1713c72b1697e727c803885b000000000000000000000000000000000000000000000000030baaf18fa236ce",
          "blockHash": "0x62b3bf74652428df039fe0469bc4c9e3e2f6d09341ae7a1494573a2a7d834a18",
          "blockNumber": "0x46b08f2",
          "transactionHash": "0x6486fa17a2f69dc8c49084cacf68003133ee31b36dea1842184a88067f24807e",
          "transactionIndex": "0x39",
          "logIndex": "0x1c4",
          "removed": false
        },
        {
          "address": "0x6c26c61a97006888ea9e4fa36584c7df57cd9da3",
          "topics": [
            "0x07ea52d82345d6e838192107d8fd7123d9c2ec8e916cd0aad13fd2b60db24644"
          ],
          "data": "0x000000000000000000000000000000000000000000000000000000000000006000000000000000000000000000000000000000000000000000000000000000e00000000000000000000000000000000000000000000000000000000000000100000000000000000000000000000000000000000000000000000000000000000300000000000000000000000023de2fe932d9043291f870324b74f820e11dc81a00000000000000000000000025e0e650a78e6304a3983fc4b7ffc6544b1beea6000000000000000000000000dab6e6ecb3513a8d2614ad75199b4b264a7310500000000000000000000000000000000000000000000000000000000000000000000000000000000000000000000000000000000000000000000000000000000300000000000000000000000000000000000000000000000000accab0b802d8f200000000000000000000000000000000000000000000000000accab0b802d8f200000000000000000000000000000000000000000000000000b40e3b85d48250",
          "blockHash": "0x62b3bf74652428df039fe0469bc4c9e3e2f6d09341ae7a1494573a2a7d834a18",
          "blockNumber": "0x46b08f2",
          "transactionHash": "0x6486fa17a2f69dc8c49084cacf68003133ee31b36dea1842184a88067f24807e",
          "transactionIndex": "0x39",
          "logIndex": "0x1c5",
          "removed": false
        },
        {
          "address": "0x1a44076050125825900e736c501f859c50fe728c",
          "topics": [
            "0x1ab700d4ced0c005b164c0f789fd09fcbb0156d4c2041b8a3bfbcd961cd1567f"
          ],
          "data": "0x000000000000000000000000000000000000000000000000000000000000006000000000000000000000000000000000000000000000000000000000000001200000000000000000000000006c26c61a97006888ea9e4fa36584c7df57cd9da300000000000000000000000000000000000000000000000000000000000000990100000000000000010000759d00000000000000000000000057558cb8d6005de0bae8a2789d5efaae52dba5a8000076a200000000000000000000000057558cb8d6005de0bae8a2789d5efaae52dba5a8cc4dee58f2ad8b2a0a9e574ab66a57398e528be0f56febc1ea3d43a6eb581b41000000000000000000000000741f0d8bde14140f62107fc60a0ee122b37d463000000000000f424000000000000000000000000000000000000000000000000000000000000000000000000000001600030100110100000000000000000000000000030d4000000000000000000000",
          "blockHash": "0x62b3bf74652428df039fe0469bc4c9e3e2f6d09341ae7a1494573a2a7d834a18",
          "blockNumber": "0x46b08f2",
          "transactionHash": "0x6486fa17a2f69dc8c49084cacf68003133ee31b36dea1842184a88067f24807e",
          "transactionIndex": "0x39",
          "logIndex": "0x1c6",
          "removed": false
        },
        {
          "address": "0x0000000000000000000000000000000000001010",
          "topics": [
            "0xe6497e3ee548a3372136af2fcb0696db31fc6cf20260707645068bd3fe97f3c4",
            "0x0000000000000000000000000000000000000000000000000000000000001010",
            "0x0000000000000000000000001a44076050125825900e736c501f859c50fe728c",
            "0x0000000000000000000000006c26c61a97006888ea9e4fa36584c7df57cd9da3"
          ],
          "data": "0x00000000000000000000000000000000000000000000000005194e8e857c6b0200000000000000000000000000000000000000000000000005194e8e857c6b02000000000000000000000000000000000000000000001960c9fca51f8fdcc8090000000000000000000000000000000000000000000000000000000000000000000000000000000000000000000000000000000000001960cf15f3ae1559330b",
          "blockHash": "0x62b3bf74652428df039fe0469bc4c9e3e2f6d09341ae7a1494573a2a7d834a18",
          "blockNumber": "0x46b08f2",
          "transactionHash": "0x6486fa17a2f69dc8c49084cacf68003133ee31b36dea1842184a88067f24807e",
          "transactionIndex": "0x39",
          "logIndex": "0x1c7",
          "removed": false
        },
        {
          "address": "0x57558cb8d6005de0bae8a2789d5efaae52dba5a8",
          "topics": [
            "0x85496b760a4b7f8d66384b9df21b381f5d1b1e79f229a47aaf4c232edc2fe59a",
            "0xcc4dee58f2ad8b2a0a9e574ab66a57398e528be0f56febc1ea3d43a6eb581b41",
            "0x000000000000000000000000741f0d8bde14140f62107fc60a0ee122b37d4630"
          ],
          "data": "0x00000000000000000000000000000000000000000000000000000000000076a20000000000000000000000000000000000000000000000000de0b6b3a76400000000000000000000000000000000000000000000000000000de0b6b3a7640000",
          "blockHash": "0x62b3bf74652428df039fe0469bc4c9e3e2f6d09341ae7a1494573a2a7d834a18",
          "blockNumber": "0x46b08f2",
          "transactionHash": "0x6486fa17a2f69dc8c49084cacf68003133ee31b36dea1842184a88067f24807e",
          "transactionIndex": "0x39",
          "logIndex": "0x1c8",
          "removed": false
        },
        {
          "address": "0x0000000000000000000000000000000000001010",
          "topics": [
            "0x4dfe1bbbcf077ddc3e01291eea2d5c70c2b422b415d95645b9adcfd678cb1d63",
            "0x0000000000000000000000000000000000000000000000000000000000001010",
            "0x00000000000000000000000045dce8e4f2dc005a5f28206a46cb034697eeda8e",
            "0x000000000000000000000000c84c1e8dffe81c8f69f2b655557ef57d5b46beb5"
          ],
          "data": "0x00000000000000000000000000000000000000000000000000268d472fd9c40000000000000000000000000000000000000000000000000011243e4fdaa7e94b00000000000000000000000000000000000000000000018897fa7e6b7f423a3b00000000000000000000000000000000000000000000000010fdb108aace254b00000000000000000000000000000000000000000000018898210bb2af1bfe3b",
          "blockHash": "0x62b3bf74652428df039fe0469bc4c9e3e2f6d09341ae7a1494573a2a7d834a18",
          "blockNumber": "0x46b08f2",
          "transactionHash": "0x6486fa17a2f69dc8c49084cacf68003133ee31b36dea1842184a88067f24807e",
          "transactionIndex": "0x39",
          "logIndex": "0x1c9",
          "removed": false
        }
      ],
      "logsBloom": "0x0000000000000000000100820004004000000000000000000000000400100000000000400000000000000010000200040000810000000400000000000000000000008200000000000000000800000080000080000000000000010000000000000000000002000000800000000000080000000000001000008020001000000000000000000000000000000008000000000000000080000000000001000000000020010000a0000014001000000000000000040000004000000004400000000040000000020000000000010000a0000000001000000000801000188000000020000000840000000000000000000000802000000000018000000000000000100000",
      "type": "0x2",
      "transactionHash": "0x6486fa17a2f69dc8c49084cacf68003133ee31b36dea1842184a88067f24807e",
      "transactionIndex": "0x39",
      "blockHash": "0x62b3bf74652428df039fe0469bc4c9e3e2f6d09341ae7a1494573a2a7d834a18",
      "blockNumber": "0x46b08f2",
      "gasUsed": "0x65e51",
      "effectiveGasPrice": "0x60db88468",
      "from": "0x45dce8e4f2dc005a5f28206a46cb034697eeda8e",
      "to": "0x741f0d8bde14140f62107fc60a0ee122b37d4630",
      "contractAddress": null
    }
  ],
  "libraries": [],
  "pending": [],
  "returns": {},
  "timestamp": 1752872299,
  "chain": 137,
  "commit": "c079579"
}