{
  "transactions": [
    {
      "hash": "0x38e56af493ffef25988a691c63da2e73fefb6e0f63e57a0d05d53c517d31799a",
      "transactionType": "CALL",
      "contractName": null,
      "contractAddress": "0x741f0d8bde14140f62107fc60a0ee122b37d4630",
      "function": "batchBridgeWithEthFeeFromWallet((uint32,bytes32,uint256,uint256,bytes,bytes,bytes)[],address[],address[])",
      "arguments": [
        "[(30383, 0x000000000000000000000000741f0d8bde14140f62107fc60a0ee122b37d4630, 500000000000000000, 0, 0x, 0x, 0x)]",
        "[0x57558Cb8d6005DE0BAe8a2789d5EfaaE52dba5a8]",
        "[0x741F0d8Bde14140f62107FC60A0EE122B37D4630]"
      ],
      "transaction": {
        "from": "0x45dce8e4f2dc005a5f28206a46cb034697eeda8e",
        "to": "0x741f0d8bde14140f62107fc60a0ee122b37d4630",
        "gas": "0x95056",
        "value": "0x5ccc06f0546db85",
        "input": "0xb70d4241000000000000000000000000000000000000000000000000000000000000006000000000000000000000000000000000000000000000000000000000000001e000000000000000000000000000000000000000000000000000000000000002200000000000000000000000000000000000000000000000000000000000000001000000000000000000000000000000000000000000000000000000000000002000000000000000000000000000000000000000000000000000000000000076af000000000000000000000000741f0d8bde14140f62107fc60a0ee122b37d463000000000000000000000000000000000000000000000000006f05b59d3b20000000000000000000000000000000000000000000000000000000000000000000000000000000000000000000000000000000000000000000000000000000000e000000000000000000000000000000000000000000000000000000000000001000000000000000000000000000000000000000000000000000000000000000120000000000000000000000000000000000000000000000000000000000000000000000000000000000000000000000000000000000000000000000000000000000000000000000000000000000000000000000000000000000000000000000000000000000000000000000000000000000000000000000000000000000000000100000000000000000000000057558cb8d6005de0bae8a2789d5efaae52dba5a80000000000000000000000000000000000000000000000000000000000000001000000000000000000000000741f0d8bde14140f62107fc60a0ee122b37d4630",
        "nonce": "0xb5",
        "chainId": "0x89"
      },
      "additionalContracts": [],
      "isFixedGasLimit": false
    }
  ],
  "receipts": [
    {
      "status": "0x1",
      "cumulativeGasUsed": "0xa984f5",
      "logs": [
        {
          "address": "0x0000000000000000000000000000000000001010",
          "topics": [
            "0xe6497e3ee548a3372136af2fcb0696db31fc6cf20260707645068bd3fe97f3c4",
            "0x0000000000000000000000000000000000000000000000000000000000001010",
            "0x00000000000000000000000045dce8e4f2dc005a5f28206a46cb034697eeda8e",
            "0x000000000000000000000000741f0d8bde14140f62107fc60a0ee122b37d4630"
          ],
          "data": "0x00000000000000000000000000000000000000000000000005ccc06f0546db85000000000000000000000000000000000000000000000000b1587d4777eadbbf0000000000000000000000000000000000000000000000000000000000000000000000000000000000000000000000000000000000000000ab8bbcd872a4003a00000000000000000000000000000000000000000000000005ccc06f0546db85",
          "blockHash": "0x6ff0f8bcaeb23ff489d0694cbedcddfd8176a8da756973a1b2efdab5475c892a",
          "blockNumber": "0x49b8991",
          "transactionHash": "0x38e56af493ffef25988a691c63da2e73fefb6e0f63e57a0d05d53c517d31799a",
          "transactionIndex": "0x37",
          "logIndex": "0x162",
          "removed": false
        },
        {
          "address": "0x0000000000000000000000000000000000001010",
          "topics": [
            "0xe6497e3ee548a3372136af2fcb0696db31fc6cf20260707645068bd3fe97f3c4",
            "0x0000000000000000000000000000000000000000000000000000000000001010",
            "0x000000000000000000000000741f0d8bde14140f62107fc60a0ee122b37d4630",
            "0x00000000000000000000000057558cb8d6005de0bae8a2789d5efaae52dba5a8"
          ],
          "data": "0x00000000000000000000000000000000000000000000000005ccc06f0546db8500000000000000000000000000000000000000000000000005ccc06f0546db850000000000000000000000000000000000000000000000000000000000000000000000000000000000000000000000000000000000000000000000000000000000000000000000000000000000000000000000000000000005ccc06f0546db85",
          "blockHash": "0x6ff0f8bcaeb23ff489d0694cbedcddfd8176a8da756973a1b2efdab5475c892a",
          "blockNumber": "0x49b8991",
          "transactionHash": "0x38e56af493ffef25988a691c63da2e73fefb6e0f63e57a0d05d53c517d31799a",
          "transactionIndex": "0x37",
          "logIndex": "0x163",
          "removed": false
        },
        {
          "address": "0x57558cb8d6005de0bae8a2789d5efaae52dba5a8",
          "topics": [
            "0xddf252ad1be2c89b69c2b068fc378daa952ba7f163c4a11628f55a4df523b3ef",
            "0x000000000000000000000000741f0d8bde14140f62107fc60a0ee122b37d4630",
            "0x0000000000000000000000000000000000000000000000000000000000000000"
          ],
          "data": "0x00000000000000000000000000000000000000000000000006f05b59d3b20000",
          "blockHash": "0x6ff0f8bcaeb23ff489d0694cbedcddfd8176a8da756973a1b2efdab5475c892a",
          "blockNumber": "0x49b8991",
          "transactionHash": "0x38e56af493ffef25988a691c63da2e73fefb6e0f63e57a0d05d53c517d31799a",
          "transactionIndex": "0x37",
          "logIndex": "0x164",
          "removed": false
        },
        {
          "address": "0x0000000000000000000000000000000000001010",
          "topics": [
            "0xe6497e3ee548a3372136af2fcb0696db31fc6cf20260707645068bd3fe97f3c4",
            "0x0000000000000000000000000000000000000000000000000000000000001010",
            "0x00000000000000000000000057558cb8d6005de0bae8a2789d5efaae52dba5a8",
            "0x0000000000000000000000001a44076050125825900e736c501f859c50fe728c"
          ],
          "data": "0x00000000000000000000000000000000000000000000000005ccc06f0546db8500000000000000000000000000000000000000000000000005ccc06f0546db850000000000000000000000000000000000000000000000000000000000000000000000000000000000000000000000000000000000000000000000000000000000000000000000000000000000000000000000000000000005ccc06f0546db85",
          "blockHash": "0x6ff0f8bcaeb23ff489d0694cbedcddfd8176a8da756973a1b2efdab5475c892a",
          "blockNumber": "0x49b8991",
          "transactionHash": "0x38e56af493ffef25988a691c63da2e73fefb6e0f63e57a0d05d53c517d31799a",
          "transactionIndex": "0x37",
          "logIndex": "0x165",
          "removed": false
        },
        {
          "address": "0x6c26c61a97006888ea9e4fa36584c7df57cd9da3",
          "topics": [
            "0x61ed099e74a97a1d7f8bb0952a88ca8b7b8ebd00c126ea04671f92a81213318a"
          ],
          "data": "0x000000000000000000000000cd3f213ad101472e1713c72b1697e727c803885b00000000000000000000000000000000000000000000000005ccc06c86929ab2",
          "blockHash": "0x6ff0f8bcaeb23ff489d0694cbedcddfd8176a8da756973a1b2efdab5475c892a",
          "blockNumber": "0x49b8991",
          "transactionHash": "0x38e56af493ffef25988a691c63da2e73fefb6e0f63e57a0d05d53c517d31799a",
          "transactionIndex": "0x37",
          "logIndex": "0x166",
          "removed": false
        },
        {
          "address": "0x6c26c61a97006888ea9e4fa36584c7df57cd9da3",
          "topics": [
            "0x07ea52d82345d6e838192107d8fd7123d9c2ec8e916cd0aad13fd2b60db24644"
          ],
          "data": "0x000000000000000000000000000000000000000000000000000000000000006000000000000000000000000000000000000000000000000000000000000000e00000000000000000000000000000000000000000000000000000000000000100000000000000000000000000000000000000000000000000000000000000000300000000000000000000000023de2fe932d9043291f870324b74f820e11dc81a00000000000000000000000025e0e650a78e6304a3983fc4b7ffc6544b1beea6000000000000000000000000dab6e6ecb3513a8d2614ad75199b4b264a7310500000000000000000000000000000000000000000000000000000000000000000000000000000000000000000000000000000000000000000000000000000000300000000000000000000000000000000000000000000000000000000d1f5931000000000000000000000000000000000000000000000000000000000d1f5931000000000000000000000000000000000000000000000000000000000dac91ab3",
          "blockHash": "0x6ff0f8bcaeb23ff489d0694cbedcddfd8176a8da756973a1b2efdab5475c892a",
          "blockNumber": "0x49b8991",
          "transactionHash": "0x38e56af493ffef25988a691c63da2e73fefb6e0f63e57a0d05d53c517d31799a",
          "transactionIndex": "0x37",
          "logIndex": "0x167",
          "removed": false
        },
        {
          "address": "0x1a44076050125825900e736c501f859c50fe728c",
          "topics": [
            "0x1ab700d4ced0c005b164c0f789fd09fcbb0156d4c2041b8a3bfbcd961cd1567f"
          ],
          "data": "0x000000000000000000000000000000000000000000000000000000000000006000000000000000000000000000000000000000000000000000000000000001200000000000000000000000006c26c61a97006888ea9e4fa36584c7df57cd9da300000000000000000000000000000000000000000000000000000000000000990100000000000000010000759d00000000000000000000000057558cb8d6005de0bae8a2789d5efaae52dba5a8000076af00000000000000000000000057558cb8d6005de0bae8a2789d5efaae52dba5a8f682979971846666efe0bedd9d451dcfec80d1f281277fa977d1ceae8f4ed84d000000000000000000000000741f0d8bde14140f62107fc60a0ee122b37d4630000000000007a12000000000000000000000000000000000000000000000000000000000000000000000000000001600030100110100000000000000000000000000030d4000000000000000000000",
          "blockHash": "0x6ff0f8bcaeb23ff489d0694cbedcddfd8176a8da756973a1b2efdab5475c892a",
          "blockNumber": "0x49b8991",
          "transactionHash": "0x38e56af493ffef25988a691c63da2e73fefb6e0f63e57a0d05d53c517d31799a",
          "transactionIndex": "0x37",
          "logIndex": "0x168",
          "removed": false
        },
        {
          "address": "0x0000000000000000000000000000000000001010",
          "topics": [
            "0xe6497e3ee548a3372136af2fcb0696db31fc6cf20260707645068bd3fe97f3c4",
            "0x0000000000000000000000000000000000000000000000000000000000001010",
            "0x0000000000000000000000001a44076050125825900e736c501f859c50fe728c",
            "0x0000000000000000000000006c26c61a97006888ea9e4fa36584c7df57cd9da3"
          ],
          "data": "0x00000000000000000000000000000000000000000000000005ccc06f0546db8500000000000000000000000000000000000000000000000005ccc06f0546db8500000000000000000000000000000000000000000000226b1041f0df0631a495000000000000000000000000000000000000000000000000000000000000000000000000000000000000000000000000000000000000226b160eb14e0b78801a",
          "blockHash": "0x6ff0f8bcaeb23ff489d0694cbedcddfd8176a8da756973a1b2efdab5475c892a",
          "blockNumber": "0x49b8991",
          "transactionHash": "0x38e56af493ffef25988a691c63da2e73fefb6e0f63e57a0d05d53c517d31799a",
          "transactionIndex": "0x37",
          "logIndex": "0x169",
          "removed": false
        },
        {
          "address": "0x57558cb8d6005de0bae8a2789d5efaae52dba5a8",
          "topics": [
            "0x85496b760a4b7f8d66384b9df21b381f5d1b1e79f229a47aaf4c232edc2fe59a",
            "0xf682979971846666efe0bedd9d451dcfec80d1f281277fa977d1ceae8f4ed84d",
            "0x000000000000000000000000741f0d8bde14140f62107fc60a0ee122b37d4630"
          ],
          "data": "0x00000000000000000000000000000000000000000000000000000000000076af00000000000000000000000000000000000000000000000006f05b59d3b2000000000000000000000000000000000000000000000000000006f05b59d3b20000",
          "blockHash": "0x6ff0f8bcaeb23ff489d0694cbedcddfd8176a8da756973a1b2efdab5475c892a",
          "blockNumber": "0x49b8991",
          "transactionHash": "0x38e56af493ffef25988a691c63da2e73fefb6e0f63e57a0d05d53c517d31799a",
          "transactionIndex": "0x37",
          "logIndex": "0x16a",
          "removed": false
        },
        {
          "address": "0x0000000000000000000000000000000000001010",
          "topics": [
            "0x4dfe1bbbcf077ddc3e01291eea2d5c70c2b422b415d95645b9adcfd678cb1d63",
            "0x0000000000000000000000000000000000000000000000000000000000001010",
            "0x00000000000000000000000045dce8e4f2dc005a5f28206a46cb034697eeda8e",
            "0x0000000000000000000000009ead03f7136fc6b4bdb0780b00a1c14ae5a8b6d0"
          ],
          "data": "0x000000000000000000000000000000000000000000000000002aa6fe436e3516000000000000000000000000000000000000000000000000b1b7cfc03f44dcd1000000000000000000000000000000000000000000000826f9a12aa8f2d79639000000000000000000000000000000000000000000000000b18d28c1fbd6a7bb000000000000000000000000000000000000000000000826f9cbd1a73645cb4f",
          "blockHash": "0x6ff0f8bcaeb23ff489d0694cbedcddfd8176a8da756973a1b2efdab5475c892a",
          "blockNumber": "0x49b8991",
          "transactionHash": "0x38e56af493ffef25988a691c63da2e73fefb6e0f63e57a0d05d53c517d31799a",
          "transactionIndex": "0x37",
          "logIndex": "0x16b",
          "removed": false
        }
      ],
      "logsBloom": "0x0000000000000000000100820004004000000000000000000000000400100000000000400000000000000010000200040000810000000000000000000000000000008200000000000000000800000080000000000000000000010000000000000000000002000000800000000000080000000000001000008020001000000000004000000004000002000008000000000000000080000000000001000000000020000000a0000014001000000000000000000000004000000004400008000040000000020000000000010000800000000010000000008010001a8000000020000000040000000000000000000000802000000000018000000000000000100080",
      "type": "0x2",
      "transactionHash": "0x38e56af493ffef25988a691c63da2e73fefb6e0f63e57a0d05d53c517d31799a",
      "transactionIndex": "0x37",
      "blockHash": "0x6ff0f8bcaeb23ff489d0694cbedcddfd8176a8da756973a1b2efdab5475c892a",
      "blockNumber": "0x49b8991",
      "gasUsed": "0x65e51",
      "effectiveGasPrice": "0xa3c07cc1b",
      "from": "0x45dce8e4f2dc005a5f28206a46cb034697eeda8e",
      "to": "0x741f0d8bde14140f62107fc60a0ee122b37d4630",
      "contractAddress": null
    }
  ],
  "libraries": [],
  "pending": [],
  "returns": {},
  "timestamp": 1759693981740,
  "chain": 137,
  "commit": "eed1662"
}