{
  "transactions": [
    {
      "hash": "0xd759c27c101ee552ef78f8762dbcaacd39b95d12a954bc0a2e634504d7d65054",
      "transactionType": "CALL",
      "contractName": null,
      "contractAddress": "0x741f0d8bde14140f62107fc60a0ee122b37d4630",
      "function": "batchBridgeWithEthFeeFromWallet((uint32,bytes32,uint256,uint256,bytes,bytes,bytes)[],address[],address[])",
      "arguments": [
        "[(30101, 0x000000000000000000000000741f0d8bde14140f62107fc60a0ee122b37d4630, 600000000000000000, 0, 0x, 0x, 0x)]",
        "[0x57558Cb8d6005DE0BAe8a2789d5EfaaE52dba5a8]",
        "[0x741F0d8Bde14140f62107FC60A0EE122B37D4630]"
      ],
      "transaction": {
        "from": "0x45dce8e4f2dc005a5f28206a46cb034697eeda8e",
        "to": "0x741f0d8bde14140f62107fc60a0ee122b37d4630",
        "gas": "0x8d524",
        "value": "0x16d181f16e2bf",
        "input": "0xb70d4241000000000000000000000000000000000000000000000000000000000000006000000000000000000000000000000000000000000000000000000000000001e00000000000000000000000000000000000000000000000000000000000000220000000000000000000000000000000000000000000000000000000000000000100000000000000000000000000000000000000000000000000000000000000200000000000000000000000000000000000000000000000000000000000007595000000000000000000000000741f0d8bde14140f62107fc60a0ee122b37d46300000000000000000000000000000000000000000000000000853a0d2313c0000000000000000000000000000000000000000000000000000000000000000000000000000000000000000000000000000000000000000000000000000000000e000000000000000000000000000000000000000000000000000000000000001000000000000000000000000000000000000000000000000000000000000000120000000000000000000000000000000000000000000000000000000000000000000000000000000000000000000000000000000000000000000000000000000000000000000000000000000000000000000000000000000000000000000000000000000000000000000000000000000000000000000000000000000000000000100000000000000000000000057558cb8d6005de0bae8a2789d5efaae52dba5a80000000000000000000000000000000000000000000000000000000000000001000000000000000000000000741f0d8bde14140f62107fc60a0ee122b37d4630",
        "nonce": "0x7f",
        "chainId": "0xb67d2"
      },
      "additionalContracts": [],
      "isFixedGasLimit": false
    }
  ],
  "receipts": [
    {
      "status": "0x1",
      "cumulativeGasUsed": "0x73a5f",
      "logs": [
        {
          "address": "0x57558cb8d6005de0bae8a2789d5efaae52dba5a8",
          "topics": [
            "0xddf252ad1be2c89b69c2b068fc378daa952ba7f163c4a11628f55a4df523b3ef",
            "0x000000000000000000000000741f0d8bde14140f62107fc60a0ee122b37d4630",
            "0x0000000000000000000000000000000000000000000000000000000000000000"
          ],
          "data": "0x0000000000000000000000000000000000000000000000000853a0d2313c0000",
          "blockHash": "0x535aac314c9d883301d4a01fa3358ad30f1295c22185db952cc39474f477107e",
          "blockNumber": "0x6fcdcf",
          "transactionHash": "0xd759c27c101ee552ef78f8762dbcaacd39b95d12a954bc0a2e634504d7d65054",
          "transactionIndex": "0x1",
          "logIndex": "0x0",
          "removed": false
        },
        {
          "address": "0xc39161c743d0307eb9bcc9fef03eeb9dc4802de7",
          "topics": [
            "0x61ed099e74a97a1d7f8bb0952a88ca8b7b8ebd00c126ea04671f92a81213318a"
          ],
          "data": "0x0000000000000000000000004208d6e27538189bb48e603d6123a94b8abe0a0b0000000000000000000000000000000000000000000000000000e8fe2e8f918a",
          "blockHash": "0x535aac314c9d883301d4a01fa3358ad30f1295c22185db952cc39474f477107e",
          "blockNumber": "0x6fcdcf",
          "transactionHash": "0xd759c27c101ee552ef78f8762dbcaacd39b95d12a954bc0a2e634504d7d65054",
          "transactionIndex": "0x1",
          "logIndex": "0x1",
          "removed": false
        },
        {
          "address": "0xc39161c743d0307eb9bcc9fef03eeb9dc4802de7",
          "topics": [
            "0x07ea52d82345d6e838192107d8fd7123d9c2ec8e916cd0aad13fd2b60db24644"
          ],
          "data": "0x000000000000000000000000000000000000000000000000000000000000006000000000000000000000000000000000000000000000000000000000000000e000000000000000000000000000000000000000000000000000000000000001000000000000000000000000000000000000000000000000000000000000000003000000000000000000000000282b3386571f7f794450d5789911a9804fa346b40000000000000000000000005fa12ebc08e183c1f5d44678cf897edefe68738b000000000000000000000000acde1f22eeab249d3ca6ba8805c8fee9f52a16e70000000000000000000000000000000000000000000000000000000000000000000000000000000000000000000000000000000000000000000000000000000300000000000000000000000000000000000000000000000000002c2a59834eb400000000000000000000000000000000000000000000000000002c2a59834eb400000000000000000000000000000000000000000000000000002bc53d80b3cd",
          "blockHash": "0x535aac314c9d883301d4a01fa3358ad30f1295c22185db952cc39474f477107e",
          "blockNumber": "0x6fcdcf",
          "transactionHash": "0xd759c27c101ee552ef78f8762dbcaacd39b95d12a954bc0a2e634504d7d65054",
          "transactionIndex": "0x1",
          "logIndex": "0x2",
          "removed": false
        },
        {
          "address": "0x6f475642a6e85809b1c36fa62763669b1b48dd5b",
          "topics": [
            "0x1ab700d4ced0c005b164c0f789fd09fcbb0156d4c2041b8a3bfbcd961cd1567f"
          ],
          "data": "0x00000000000000000000000000000000000000000000000000000000000000600000000000000000000000000000000000000000000000000000000000000120000000000000000000000000c39161c743d0307eb9bcc9fef03eeb9dc4802de70000000000000000000000000000000000000000000000000000000000000099010000000000000001000076a700000000000000000000000057558cb8d6005de0bae8a2789d5efaae52dba5a80000759500000000000000000000000057558cb8d6005de0bae8a2789d5efaae52dba5a86a39f92b3b58139a6875dc7487757dd7b8f5418aa919c3e3b8efb0305e2b6b3d000000000000000000000000741f0d8bde14140f62107fc60a0ee122b37d463000000000000927c000000000000000000000000000000000000000000000000000000000000000000000000000001600030100110100000000000000000000000000030d4000000000000000000000",
          "blockHash": "0x535aac314c9d883301d4a01fa3358ad30f1295c22185db952cc39474f477107e",
          "blockNumber": "0x6fcdcf",
          "transactionHash": "0xd759c27c101ee552ef78f8762dbcaacd39b95d12a954bc0a2e634504d7d65054",
          "transactionIndex": "0x1",
          "logIndex": "0x3",
          "removed": false
        },
        {
          "address": "0x57558cb8d6005de0bae8a2789d5efaae52dba5a8",
          "topics": [
            "0x85496b760a4b7f8d66384b9df21b381f5d1b1e79f229a47aaf4c232edc2fe59a",
            "0x6a39f92b3b58139a6875dc7487757dd7b8f5418aa919c3e3b8efb0305e2b6b3d",
            "0x000000000000000000000000741f0d8bde14140f62107fc60a0ee122b37d4630"
          ],
          "data": "0x00000000000000000000000000000000000000000000000000000000000075950000000000000000000000000000000000000000000000000853a0d2313c00000000000000000000000000000000000000000000000000000853a0d2313c0000",
          "blockHash": "0x535aac314c9d883301d4a01fa3358ad30f1295c22185db952cc39474f477107e",
          "blockNumber": "0x6fcdcf",
          "transactionHash": "0xd759c27c101ee552ef78f8762dbcaacd39b95d12a954bc0a2e634504d7d65054",
          "transactionIndex": "0x1",
          "logIndex": "0x4",
          "removed": false
        }
      ],
      "logsBloom": "0x0010000000000000000000000004004000000000000000000000000000000000000000000000000000000000000000040000010000000000000000000000000000000200000000000000000800000000014000000000000000000000000000000000000006000000802000000000080000000000000000000000001000000000000000000080000000000008000000000000000000000000000000000000800000000000a000001000100000000000000000000000400000000440000000000000000002000000000000000080000000000000000000200000000000000020004000040000000000000000000000002000000000008000000000000000000000",
      "type": "0x2",
      "transactionHash": "0xd759c27c101ee552ef78f8762dbcaacd39b95d12a954bc0a2e634504d7d65054",
      "transactionIndex": "0x1",
      "blockHash": "0x535aac314c9d883301d4a01fa3358ad30f1295c22185db952cc39474f477107e",
      "blockNumber": "0x6fcdcf",
      "gasUsed": "0x66507",
      "effectiveGasPrice": "0x54b4ce",
      "blobGasUsed": "0x0",
      "from": "0x45dce8e4f2dc005a5f28206a46cb034697eeda8e",
      "to": "0x741f0d8bde14140f62107fc60a0ee122b37d4630",
      "contractAddress": null,
      "l1BaseFeeScalar": "0x558",
      "l1BlobBaseFee": "0x1",
      "l1BlobBaseFeeScalar": "0xc5fc5",
      "l1Fee": "0x7c74bb21",
      "l1GasPrice": "0x248704d3",
      "l1GasUsed": "0x9ba",
      "operatorFeeConstant": "0x13aa2d13837",
      "operatorFeeScalar": "0x0"
    }
  ],
  "libraries": [],
  "pending": [],
  "returns": {},
  "timestamp": 1754069996,
  "chain": 747474,
  "commit": "6804cbf"
}