{
  "transactions": [
    {
      "hash": "0xdd1ceaa0bab3d663be1171394e9dd60d76b5f9d34aa42cdf20fe87a0ec33bc48",
      "transactionType": "CALL",
      "contractName": null,
      "contractAddress": "0x741f0d8bde14140f62107fc60a0ee122b37d4630",
      "function": "batchBridgeWithEthFeeFromWallet((uint32,bytes32,uint256,uint256,bytes,bytes,bytes)[],address[],address[])",
      "arguments": [
        "[(30367, 0x000000000000000000000000741f0d8bde14140f62107fc60a0ee122b37d4630, 500000000000000000, 0, 0x, 0x, 0x)]",
        "[0x57558Cb8d6005DE0BAe8a2789d5EfaaE52dba5a8]",
        "[0x741F0d8Bde14140f62107FC60A0EE122B37D4630]"
      ],
      "transaction": {
        "from": "0x45dce8e4f2dc005a5f28206a46cb034697eeda8e",
        "to": "0x741f0d8bde14140f62107fc60a0ee122b37d4630",
        "gas": "0x8426b",
        "value": "0x4ada0b55372",
        "input": "0xb70d4241000000000000000000000000000000000000000000000000000000000000006000000000000000000000000000000000000000000000000000000000000001e0000000000000000000000000000000000000000000000000000000000000022000000000000000000000000000000000000000000000000000000000000000010000000000000000000000000000000000000000000000000000000000000020000000000000000000000000000000000000000000000000000000000000769f000000000000000000000000741f0d8bde14140f62107fc60a0ee122b37d463000000000000000000000000000000000000000000000000006f05b59d3b20000000000000000000000000000000000000000000000000000000000000000000000000000000000000000000000000000000000000000000000000000000000e000000000000000000000000000000000000000000000000000000000000001000000000000000000000000000000000000000000000000000000000000000120000000000000000000000000000000000000000000000000000000000000000000000000000000000000000000000000000000000000000000000000000000000000000000000000000000000000000000000000000000000000000000000000000000000000000000000000000000000000000000000000000000000000000100000000000000000000000057558cb8d6005de0bae8a2789d5efaae52dba5a80000000000000000000000000000000000000000000000000000000000000001000000000000000000000000741f0d8bde14140f62107fc60a0ee122b37d4630",
        "nonce": "0x92",
        "chainId": "0xb67d2"
      },
      "additionalContracts": [],
      "isFixedGasLimit": false
    }
  ],
  "receipts": [
    {
      "status": "0x1",
      "cumulativeGasUsed": "0x747fe",
      "logs": [
        {
          "address": "0x57558cb8d6005de0bae8a2789d5efaae52dba5a8",
          "topics": [
            "0xddf252ad1be2c89b69c2b068fc378daa952ba7f163c4a11628f55a4df523b3ef",
            "0x000000000000000000000000741f0d8bde14140f62107fc60a0ee122b37d4630",
            "0x0000000000000000000000000000000000000000000000000000000000000000"
          ],
          "data": "0x00000000000000000000000000000000000000000000000006f05b59d3b20000",
          "blockHash": "0xb903557949fbceb9911606b0050992db6b1f4e263d47da8fe0b3c1c8c09cb9d8",
          "blockNumber": "0xabb97d",
          "transactionHash": "0xdd1ceaa0bab3d663be1171394e9dd60d76b5f9d34aa42cdf20fe87a0ec33bc48",
          "transactionIndex": "0x2",
          "logIndex": "0x1",
          "removed": false
        },
        {
          "address": "0xc39161c743d0307eb9bcc9fef03eeb9dc4802de7",
          "topics": [
            "0x61ed099e74a97a1d7f8bb0952a88ca8b7b8ebd00c126ea04671f92a81213318a"
          ],
          "data": "0x0000000000000000000000004208d6e27538189bb48e603d6123a94b8abe0a0b0000000000000000000000000000000000000000000000000000046b391299d0",
          "blockHash": "0xb903557949fbceb9911606b0050992db6b1f4e263d47da8fe0b3c1c8c09cb9d8",
          "blockNumber": "0xabb97d",
          "transactionHash": "0xdd1ceaa0bab3d663be1171394e9dd60d76b5f9d34aa42cdf20fe87a0ec33bc48",
          "transactionIndex": "0x2",
          "logIndex": "0x2",
          "removed": false
        },
        {
          "address": "0xc39161c743d0307eb9bcc9fef03eeb9dc4802de7",
          "topics": [
            "0x07ea52d82345d6e838192107d8fd7123d9c2ec8e916cd0aad13fd2b60db24644"
          ],
          "data": "0x000000000000000000000000000000000000000000000000000000000000006000000000000000000000000000000000000000000000000000000000000000c000000000000000000000000000000000000000000000000000000000000000e00000000000000000000000000000000000000000000000000000000000000002000000000000000000000000282b3386571f7f794450d5789911a9804fa346b40000000000000000000000005fa12ebc08e183c1f5d44678cf897edefe68738b000000000000000000000000000000000000000000000000000000000000000000000000000000000000000000000000000000000000000000000000000000020000000000000000000000000000000000000000000000000000002133d15cd10000000000000000000000000000000000000000000000000000002133d15cd1",
          "blockHash": "0xb903557949fbceb9911606b0050992db6b1f4e263d47da8fe0b3c1c8c09cb9d8",
          "blockNumber": "0xabb97d",
          "transactionHash": "0xdd1ceaa0bab3d663be1171394e9dd60d76b5f9d34aa42cdf20fe87a0ec33bc48",
          "transactionIndex": "0x2",
          "logIndex": "0x3",
          "removed": false
        },
        {
          "address": "0x6f475642a6e85809b1c36fa62763669b1b48dd5b",
          "topics": [
            "0x1ab700d4ced0c005b164c0f789fd09fcbb0156d4c2041b8a3bfbcd961cd1567f"
          ],
          "data": "0x00000000000000000000000000000000000000000000000000000000000000600000000000000000000000000000000000000000000000000000000000000120000000000000000000000000c39161c743d0307eb9bcc9fef03eeb9dc4802de70000000000000000000000000000000000000000000000000000000000000099010000000000000001000076a700000000000000000000000057558cb8d6005de0bae8a2789d5efaae52dba5a80000769f00000000000000000000000057558cb8d6005de0bae8a2789d5efaae52dba5a8a7191733a114f7d5fed4adbdb2c9ada6e77d9bf28ff618fd1858f5d6f1c4c8c3000000000000000000000000741f0d8bde14140f62107fc60a0ee122b37d4630000000000007a12000000000000000000000000000000000000000000000000000000000000000000000000000001600030100110100000000000000000000000000030d4000000000000000000000",
          "blockHash": "0xb903557949fbceb9911606b0050992db6b1f4e263d47da8fe0b3c1c8c09cb9d8",
          "blockNumber": "0xabb97d",
          "transactionHash": "0xdd1ceaa0bab3d663be1171394e9dd60d76b5f9d34aa42cdf20fe87a0ec33bc48",
          "transactionIndex": "0x2",
          "logIndex": "0x4",
          "removed": false
        },
        {
          "address": "0x57558cb8d6005de0bae8a2789d5efaae52dba5a8",
          "topics": [
            "0x85496b760a4b7f8d66384b9df21b381f5d1b1e79f229a47aaf4c232edc2fe59a",
            "0xa7191733a114f7d5fed4adbdb2c9ada6e77d9bf28ff618fd1858f5d6f1c4c8c3",
            "0x000000000000000000000000741f0d8bde14140f62107fc60a0ee122b37d4630"
          ],
          "data": "0x000000000000000000000000000000000000000000000000000000000000769f00000000000000000000000000000000000000000000000006f05b59d3b2000000000000000000000000000000000000000000000000000006f05b59d3b20000",
          "blockHash": "0xb903557949fbceb9911606b0050992db6b1f4e263d47da8fe0b3c1c8c09cb9d8",
          "blockNumber": "0xabb97d",
          "transactionHash": "0xdd1ceaa0bab3d663be1171394e9dd60d76b5f9d34aa42cdf20fe87a0ec33bc48",
          "transactionIndex": "0x2",
          "logIndex": "0x5",
          "removed": false
        }
      ],
      "logsBloom": "0x0010000000000000000000000004004000000000000000000000000000000000000000000000000000000000000000040001010000000000000000000000000000000200000000000000000800000000014020000000800000000000000000000000000002000000802000000000080000000000000000000000001000000000000000000080000000000008000000000000000000000000000000000000000000000000a000001000100000000000000000000000400000000440000000000000000002000000000000000080000000000000000000000000000000000020004000040000000000000000000000002000000000008000000000000000000000",
      "type": "0x2",
      "transactionHash": "0xdd1ceaa0bab3d663be1171394e9dd60d76b5f9d34aa42cdf20fe87a0ec33bc48",
      "transactionIndex": "0x2",
      "blockHash": "0xb903557949fbceb9911606b0050992db6b1f4e263d47da8fe0b3c1c8c09cb9d8",
      "blockNumber": "0xabb97d",
      "gasUsed": "0x5a5c2",
      "effectiveGasPrice": "0xf4346",
      "blobGasUsed": "0x0",
      "from": "0x45dce8e4f2dc005a5f28206a46cb034697eeda8e",
      "to": "0x741f0d8bde14140f62107fc60a0ee122b37d4630",
      "contractAddress": null,
      "l1BaseFeeScalar": "0x558",
      "l1BlobBaseFee": "0x1",
      "l1BlobBaseFeeScalar": "0xc5fc5",
      "l1Fee": "0x40b3749f",
      "l1GasPrice": "0x12fd51a9",
      "l1GasUsed": "0x9ba",
      "operatorFeeConstant": "0x13aa2d13837",
      "operatorFeeScalar": "0x0"
    }
  ],
  "libraries": [],
  "pending": [],
  "returns": {},
  "timestamp": 1757996956060,
  "chain": 747474,
  "commit": "2724ada"
}