{
  "transactions": [
    {
      "hash": "0x8dea2b07e1fef89846323dbb85cad5c894c5068a34daaa8d0b763f0282773be8",
      "transactionType": "CALL",
      "contractName": null,
      "contractAddress": "0x741f0d8bde14140f62107fc60a0ee122b37d4630",
      "function": "batchBridgeWithEthFeeFromWallet((uint32,bytes32,uint256,uint256,bytes,bytes,bytes)[],address[],address[])",
      "arguments": [
        "[(30211, 0x0000000000000000000000004a767e2ef83577225522ef8ed71056c6e3acb216, 1000000000000000000, 0, 0x, 0x, 0x), (30214, 0x000000000000000000000000741f0d8bde14140f62107fc60a0ee122b37d4630, 1000000000000000000, 0, 0x, 0x, 0x)]",
        "[0x57558Cb8d6005DE0BAe8a2789d5EfaaE52dba5a8, 0x57558Cb8d6005DE0BAe8a2789d5EfaaE52dba5a8]",
        "[0x741F0d8Bde14140f62107FC60A0EE122B37D4630, 0x741F0d8Bde14140f62107FC60A0EE122B37D4630]"
      ],
      "transaction": {
        "from": "0x45dce8e4f2dc005a5f28206a46cb034697eeda8e",
        "to": "0x741f0d8bde14140f62107fc60a0ee122b37d4630",
        "gas": "0xd4260",
        "value": "0x80868a620022",
        "input": "0xb70d42410000000000000000000000000000000000000000000000000000000000000060000000000000000000000000000000000000000000000000000000000000034000000000000000000000000000000000000000000000000000000000000003a000000000000000000000000000000000000000000000000000000000000000020000000000000000000000000000000000000000000000000000000000000040000000000000000000000000000000000000000000000000000000000000018000000000000000000000000000000000000000000000000000000000000076030000000000000000000000004a767e2ef83577225522ef8ed71056c6e3acb2160000000000000000000000000000000000000000000000000de0b6b3a7640000000000000000000000000000000000000000000000000000000000000000000000000000000000000000000000000000000000000000000000000000000000e0000000000000000000000000000000000000000000000000000000000000010000000000000000000000000000000000000000000000000000000000000001200000000000000000000000000000000000000000000000000000000000000000000000000000000000000000000000000000000000000000000000000000000000000000000000000000000000000000000000000000000000000000000000000000000000000000000000000000000000000000000000000000000000007606000000000000000000000000741f0d8bde14140f62107fc60a0ee122b37d46300000000000000000000000000000000000000000000000000de0b6b3a7640000000000000000000000000000000000000000000000000000000000000000000000000000000000000000000000000000000000000000000000000000000000e000000000000000000000000000000000000000000000000000000000000001000000000000000000000000000000000000000000000000000000000000000120000000000000000000000000000000000000000000000000000000000000000000000000000000000000000000000000000000000000000000000000000000000000000000000000000000000000000000000000000000000000000000000000000000000000000000000000000000000000000000000000000000000000000200000000000000000000000057558cb8d6005de0bae8a2789d5efaae52dba5a800000000000000000000000057558cb8d6005de0bae8a2789d5efaae52dba5a80000000000000000000000000000000000000000000000000000000000000002000000000000000000000000741f0d8bde14140f62107fc60a0ee122b37d4630000000000000000000000000741f0d8bde14140f62107fc60a0ee122b37d4630",
        "nonce": "0x8b",
        "chainId": "0xb67d2"
      },
      "additionalContracts": [],
      "isFixedGasLimit": false
    }
  ],
  "receipts": [
    {
      "status": "0x1",
      "cumulativeGasUsed": "0x9c585",
      "logs": [
        {
          "address": "0x57558cb8d6005de0bae8a2789d5efaae52dba5a8",
          "topics": [
            "0xddf252ad1be2c89b69c2b068fc378daa952ba7f163c4a11628f55a4df523b3ef",
            "0x000000000000000000000000741f0d8bde14140f62107fc60a0ee122b37d4630",
            "0x0000000000000000000000000000000000000000000000000000000000000000"
          ],
          "data": "0x0000000000000000000000000000000000000000000000000de0b6b3a7640000",
          "blockHash": "0x12bc98b2d502a2721b5fb294e4e2f199304c918c232f66da9856e483754ed642",
          "blockNumber": "0x9b6614",
          "transactionHash": "0x8dea2b07e1fef89846323dbb85cad5c894c5068a34daaa8d0b763f0282773be8",
          "transactionIndex": "0x1",
          "logIndex": "0x0",
          "removed": false
        },
        {
          "address": "0xc39161c743d0307eb9bcc9fef03eeb9dc4802de7",
          "topics": [
            "0x61ed099e74a97a1d7f8bb0952a88ca8b7b8ebd00c126ea04671f92a81213318a"
          ],
          "data": "0x0000000000000000000000004208d6e27538189bb48e603d6123a94b8abe0a0b0000000000000000000000000000000000000000000000000000268d40f3332a",
          "blockHash": "0x12bc98b2d502a2721b5fb294e4e2f199304c918c232f66da9856e483754ed642",
          "blockNumber": "0x9b6614",
          "transactionHash": "0x8dea2b07e1fef89846323dbb85cad5c894c5068a34daaa8d0b763f0282773be8",
          "transactionIndex": "0x1",
          "logIndex": "0x1",
          "removed": false
        },
        {
          "address": "0xc39161c743d0307eb9bcc9fef03eeb9dc4802de7",
          "topics": [
            "0x07ea52d82345d6e838192107d8fd7123d9c2ec8e916cd0aad13fd2b60db24644"
          ],
          "data": "0x000000000000000000000000000000000000000000000000000000000000006000000000000000000000000000000000000000000000000000000000000000c000000000000000000000000000000000000000000000000000000000000000e00000000000000000000000000000000000000000000000000000000000000002000000000000000000000000282b3386571f7f794450d5789911a9804fa346b40000000000000000000000005fa12ebc08e183c1f5d44678cf897edefe68738b00000000000000000000000000000000000000000000000000000000000000000000000000000000000000000000000000000000000000000000000000000002000000000000000000000000000000000000000000000000000006ca760679bd000000000000000000000000000000000000000000000000000006ca760679bd",
          "blockHash": "0x12bc98b2d502a2721b5fb294e4e2f199304c918c232f66da9856e483754ed642",
          "blockNumber": "0x9b6614",
          "transactionHash": "0x8dea2b07e1fef89846323dbb85cad5c894c5068a34daaa8d0b763f0282773be8",
          "transactionIndex": "0x1",
          "logIndex": "0x2",
          "removed": false
        },
        {
          "address": "0x6f475642a6e85809b1c36fa62763669b1b48dd5b",
          "topics": [
            "0x1ab700d4ced0c005b164c0f789fd09fcbb0156d4c2041b8a3bfbcd961cd1567f"
          ],
          "data": "0x00000000000000000000000000000000000000000000000000000000000000600000000000000000000000000000000000000000000000000000000000000120000000000000000000000000c39161c743d0307eb9bcc9fef03eeb9dc4802de70000000000000000000000000000000000000000000000000000000000000099010000000000000001000076a700000000000000000000000057558cb8d6005de0bae8a2789d5efaae52dba5a800007603000000000000000000000000a057d8d4fc86a62801ce363c169b0a8d192f6cee459aeced023740bbe36b9f3d41f44aaea0cbd9fb5c2f082d8d9a1ef30d10fb510000000000000000000000004a767e2ef83577225522ef8ed71056c6e3acb21600000000000f424000000000000000000000000000000000000000000000000000000000000000000000000000001600030100110100000000000000000000000000030d4000000000000000000000",
          "blockHash": "0x12bc98b2d502a2721b5fb294e4e2f199304c918c232f66da9856e483754ed642",
          "blockNumber": "0x9b6614",
          "transactionHash": "0x8dea2b07e1fef89846323dbb85cad5c894c5068a34daaa8d0b763f0282773be8",
          "transactionIndex": "0x1",
          "logIndex": "0x3",
          "removed": false
        },
        {
          "address": "0x57558cb8d6005de0bae8a2789d5efaae52dba5a8",
          "topics": [
            "0x85496b760a4b7f8d66384b9df21b381f5d1b1e79f229a47aaf4c232edc2fe59a",
            "0x459aeced023740bbe36b9f3d41f44aaea0cbd9fb5c2f082d8d9a1ef30d10fb51",
            "0x000000000000000000000000741f0d8bde14140f62107fc60a0ee122b37d4630"
          ],
          "data": "0x00000000000000000000000000000000000000000000000000000000000076030000000000000000000000000000000000000000000000000de0b6b3a76400000000000000000000000000000000000000000000000000000de0b6b3a7640000",
          "blockHash": "0x12bc98b2d502a2721b5fb294e4e2f199304c918c232f66da9856e483754ed642",
          "blockNumber": "0x9b6614",
          "transactionHash": "0x8dea2b07e1fef89846323dbb85cad5c894c5068a34daaa8d0b763f0282773be8",
          "transactionIndex": "0x1",
          "logIndex": "0x4",
          "removed": false
        },
        {
          "address": "0x57558cb8d6005de0bae8a2789d5efaae52dba5a8",
          "topics": [
            "0xddf252ad1be2c89b69c2b068fc378daa952ba7f163c4a11628f55a4df523b3ef",
            "0x000000000000000000000000741f0d8bde14140f62107fc60a0ee122b37d4630",
            "0x0000000000000000000000000000000000000000000000000000000000000000"
          ],
          "data": "0x0000000000000000000000000000000000000000000000000de0b6b3a7640000",
          "blockHash": "0x12bc98b2d502a2721b5fb294e4e2f199304c918c232f66da9856e483754ed642",
          "blockNumber": "0x9b6614",
          "transactionHash": "0x8dea2b07e1fef89846323dbb85cad5c894c5068a34daaa8d0b763f0282773be8",
          "transactionIndex": "0x1",
          "logIndex": "0x5",
          "removed": false
        },
        {
          "address": "0xc39161c743d0307eb9bcc9fef03eeb9dc4802de7",
          "topics": [
            "0x61ed099e74a97a1d7f8bb0952a88ca8b7b8ebd00c126ea04671f92a81213318a"
          ],
          "data": "0x0000000000000000000000004208d6e27538189bb48e603d6123a94b8abe0a0b00000000000000000000000000000000000000000000000000004c5e66f852fe",
          "blockHash": "0x12bc98b2d502a2721b5fb294e4e2f199304c918c232f66da9856e483754ed642",
          "blockNumber": "0x9b6614",
          "transactionHash": "0x8dea2b07e1fef89846323dbb85cad5c894c5068a34daaa8d0b763f0282773be8",
          "transactionIndex": "0x1",
          "logIndex": "0x6",
          "removed": false
        },
        {
          "address": "0xc39161c743d0307eb9bcc9fef03eeb9dc4802de7",
          "topics": [
            "0x07ea52d82345d6e838192107d8fd7123d9c2ec8e916cd0aad13fd2b60db24644"
          ],
          "data": "0x000000000000000000000000000000000000000000000000000000000000006000000000000000000000000000000000000000000000000000000000000000c000000000000000000000000000000000000000000000000000000000000000e00000000000000000000000000000000000000000000000000000000000000002000000000000000000000000282b3386571f7f794450d5789911a9804fa346b40000000000000000000000005fa12ebc08e183c1f5d44678cf897edefe68738b0000000000000000000000000000000000000000000000000000000000000000000000000000000000000000000000000000000000000000000000000000000200000000000000000000000000000000000000000000000000000002fb34c34000000000000000000000000000000000000000000000000000000002fb34c340",
          "blockHash": "0x12bc98b2d502a2721b5fb294e4e2f199304c918c232f66da9856e483754ed642",
          "blockNumber": "0x9b6614",
          "transactionHash": "0x8dea2b07e1fef89846323dbb85cad5c894c5068a34daaa8d0b763f0282773be8",
          "transactionIndex": "0x1",
          "logIndex": "0x7",
          "removed": false
        },
        {
          "address": "0x6f475642a6e85809b1c36fa62763669b1b48dd5b",
          "topics": [
            "0x1ab700d4ced0c005b164c0f789fd09fcbb0156d4c2041b8a3bfbcd961cd1567f"
          ],
          "data": "0x00000000000000000000000000000000000000000000000000000000000000600000000000000000000000000000000000000000000000000000000000000120000000000000000000000000c39161c743d0307eb9bcc9fef03eeb9dc4802de70000000000000000000000000000000000000000000000000000000000000099010000000000000001000076a700000000000000000000000057558cb8d6005de0bae8a2789d5efaae52dba5a80000760600000000000000000000000057558cb8d6005de0bae8a2789d5efaae52dba5a8546b46ed74e416b1cec05e44b15789e17f6a969d7cd42694d35cf3389c25e250000000000000000000000000741f0d8bde14140f62107fc60a0ee122b37d463000000000000f424000000000000000000000000000000000000000000000000000000000000000000000000000001600030100110100000000000000000000000000030d4000000000000000000000",
          "blockHash": "0x12bc98b2d502a2721b5fb294e4e2f199304c918c232f66da9856e483754ed642",
          "blockNumber": "0x9b6614",
          "transactionHash": "0x8dea2b07e1fef89846323dbb85cad5c894c5068a34daaa8d0b763f0282773be8",
          "transactionIndex": "0x1",
          "logIndex": "0x8",
          "removed": false
        },
        {
          "address": "0x57558cb8d6005de0bae8a2789d5efaae52dba5a8",
          "topics": [
            "0x85496b760a4b7f8d66384b9df21b381f5d1b1e79f229a47aaf4c232edc2fe59a",
            "0x546b46ed74e416b1cec05e44b15789e17f6a969d7cd42694d35cf3389c25e250",
            "0x000000000000000000000000741f0d8bde14140f62107fc60a0ee122b37d4630"
          ],
          "data": "0x00000000000000000000000000000000000000000000000000000000000076060000000000000000000000000000000000000000000000000de0b6b3a76400000000000000000000000000000000000000000000000000000de0b6b3a7640000",
          "blockHash": "0x12bc98b2d502a2721b5fb294e4e2f199304c918c232f66da9856e483754ed642",
          "blockNumber": "0x9b6614",
          "transactionHash": "0x8dea2b07e1fef89846323dbb85cad5c894c5068a34daaa8d0b763f0282773be8",
          "transactionIndex": "0x1",
          "logIndex": "0x9",
          "removed": false
        }
      ],
      "logsBloom": "0x0210000000000000000000000004004000000000000000000000000000000000000000000000000000000000000000040200010000000000000000000000000000000200000000000000000800000000014000000000000000000000000000000000000002000000802000000000080000000000000000000800001000000000040000000080000000000008000000000000000000000000000000000000000000000000a000001000100200000000000000000000400000000440000000000000000002000000000000000080000000000000000000000000000000000020004000040000000000000000000004002000000000008000000000000000000000",
      "type": "0x2",
      "transactionHash": "0x8dea2b07e1fef89846323dbb85cad5c894c5068a34daaa8d0b763f0282773be8",
      "transactionIndex": "0x1",
      "blockHash": "0x12bc98b2d502a2721b5fb294e4e2f199304c918c232f66da9856e483754ed642",
      "blockNumber": "0x9b6614",
      "gasUsed": "0x910f1",
      "effectiveGasPrice": "0x107",
      "blobGasUsed": "0x0",
      "from": "0x45dce8e4f2dc005a5f28206a46cb034697eeda8e",
      "to": "0x741f0d8bde14140f62107fc60a0ee122b37d4630",
      "contractAddress": null,
      "l1BaseFeeScalar": "0x558",
      "l1BlobBaseFee": "0x1",
      "l1BlobBaseFeeScalar": "0xc5fc5",
      "l1Fee": "0xa0a27b84",
      "l1GasPrice": "0x24174bb1",
      "l1GasUsed": "0xcb5",
      "operatorFeeConstant": "0x13aa2d13837",
      "operatorFeeScalar": "0x0"
    }
  ],
  "libraries": [],
  "pending": [],
  "returns": {},
  "timestamp": 1756927026883,
  "chain": 747474,
  "commit": "487ed68"
}