{
  "transactions": [
    {
      "hash": null,
      "transactionType": "CALL",
      "contractName": null,
      "contractAddress": "0x00000000e9ce0f293d1ce552768b187eba8a56d4",
      "function": "setEnforcedOptions((uint32,uint16,bytes)[])",
      "arguments": [
        "[(30255, 1, 0x00030100110100000000000000000000000000030d40), (30255, 2, 0x0003010011010000000000000000000000000003d090)]"
      ],
      "transaction": {
        "from": "0x54f9b12743a7deec0ea48721683cbebedc6e17bc",
        "to": "0x00000000e9ce0f293d1ce552768b187eba8a56d4",
        "gas": "0xb16d5",
        "value": "0x0",
        "input": "0xb98bd07000000000000000000000000000000000000000000000000000000000000000200000000000000000000000000000000000000000000000000000000000000002000000000000000000000000000000000000000000000000000000000000004000000000000000000000000000000000000000000000000000000000000000e0000000000000000000000000000000000000000000000000000000000000762f00000000000000000000000000000000000000000000000000000000000000010000000000000000000000000000000000000000000000000000000000000060000000000000000000000000000000000000000000000000000000000000001600030100110100000000000000000000000000030d4000000000000000000000000000000000000000000000000000000000000000000000000000000000762f0000000000000000000000000000000000000000000000000000000000000002000000000000000000000000000000000000000000000000000000000000006000000000000000000000000000000000000000000000000000000000000000160003010011010000000000000000000000000003d09000000000000000000000",
        "nonce": "0x23",
        "chainId": "0x1079",
        "feeToken": null,
        "calls": [],
        "keyType": null,
        "keyData": null
      },
      "additionalContracts": [],
      "isFixedGasLimit": false
    },
    {
      "hash": null,
      "transactionType": "CALL",
      "contractName": null,
      "contractAddress": "0x00000000fd8c4b8a413a06821456801295921a71",
      "function": "setEnforcedOptions((uint32,uint16,bytes)[])",
      "arguments": [
        "[(30255, 1, 0x00030100110100000000000000000000000000030d40), (30255, 2, 0x0003010011010000000000000000000000000003d090)]"
      ],
      "transaction": {
        "from": "0x54f9b12743a7deec0ea48721683cbebedc6e17bc",
        "to": "0x00000000fd8c4b8a413a06821456801295921a71",
        "gas": "0xb16d5",
        "value": "0x0",
        "input": "0xb98bd07000000000000000000000000000000000000000000000000000000000000000200000000000000000000000000000000000000000000000000000000000000002000000000000000000000000000000000000000000000000000000000000004000000000000000000000000000000000000000000000000000000000000000e0000000000000000000000000000000000000000000000000000000000000762f00000000000000000000000000000000000000000000000000000000000000010000000000000000000000000000000000000000000000000000000000000060000000000000000000000000000000000000000000000000000000000000001600030100110100000000000000000000000000030d4000000000000000000000000000000000000000000000000000000000000000000000000000000000762f0000000000000000000000000000000000000000000000000000000000000002000000000000000000000000000000000000000000000000000000000000006000000000000000000000000000000000000000000000000000000000000000160003010011010000000000000000000000000003d09000000000000000000000",
        "nonce": "0x24",
        "chainId": "0x1079",
        "feeToken": null,
        "calls": [],
        "keyType": null,
        "keyData": null
      },
      "additionalContracts": [],
      "isFixedGasLimit": false
    },
    {
      "hash": null,
      "transactionType": "CALL",
      "contractName": null,
      "contractAddress": "0x00000000883279097a49db1f2af954ead0c77e3c",
      "function": "setEnforcedOptions((uint32,uint16,bytes)[])",
      "arguments": [
        "[(30255, 1, 0x00030100110100000000000000000000000000030d40), (30255, 2, 0x0003010011010000000000000000000000000003d090)]"
      ],
      "transaction": {
        "from": "0x54f9b12743a7deec0ea48721683cbebedc6e17bc",
        "to": "0x00000000883279097a49db1f2af954ead0c77e3c",
        "gas": "0xb16d5",
        "value": "0x0",
        "input": "0xb98bd07000000000000000000000000000000000000000000000000000000000000000200000000000000000000000000000000000000000000000000000000000000002000000000000000000000000000000000000000000000000000000000000004000000000000000000000000000000000000000000000000000000000000000e0000000000000000000000000000000000000000000000000000000000000762f00000000000000000000000000000000000000000000000000000000000000010000000000000000000000000000000000000000000000000000000000000060000000000000000000000000000000000000000000000000000000000000001600030100110100000000000000000000000000030d4000000000000000000000000000000000000000000000000000000000000000000000000000000000762f0000000000000000000000000000000000000000000000000000000000000002000000000000000000000000000000000000000000000000000000000000006000000000000000000000000000000000000000000000000000000000000000160003010011010000000000000000000000000003d09000000000000000000000",
        "nonce": "0x25",
        "chainId": "0x1079",
        "feeToken": null,
        "calls": [],
        "keyType": null,
        "keyData": null
      },
      "additionalContracts": [],
      "isFixedGasLimit": false
    },
    {
      "hash": null,
      "transactionType": "CALL",
      "contractName": null,
      "contractAddress": "0x00000000d61733e7a393a10a5b48c311abe8f1e5",
      "function": "setEnforcedOptions((uint32,uint16,bytes)[])",
      "arguments": [
        "[(30255, 1, 0x00030100110100000000000000000000000000030d40), (30255, 2, 0x0003010011010000000000000000000000000003d090)]"
      ],
      "transaction": {
        "from": "0x54f9b12743a7deec0ea48721683cbebedc6e17bc",
        "to": "0x00000000d61733e7a393a10a5b48c311abe8f1e5",
        "gas": "0xb16f3",
        "value": "0x0",
        "input": "0xb98bd07000000000000000000000000000000000000000000000000000000000000000200000000000000000000000000000000000000000000000000000000000000002000000000000000000000000000000000000000000000000000000000000004000000000000000000000000000000000000000000000000000000000000000e0000000000000000000000000000000000000000000000000000000000000762f00000000000000000000000000000000000000000000000000000000000000010000000000000000000000000000000000000000000000000000000000000060000000000000000000000000000000000000000000000000000000000000001600030100110100000000000000000000000000030d4000000000000000000000000000000000000000000000000000000000000000000000000000000000762f0000000000000000000000000000000000000000000000000000000000000002000000000000000000000000000000000000000000000000000000000000006000000000000000000000000000000000000000000000000000000000000000160003010011010000000000000000000000000003d09000000000000000000000",
        "nonce": "0x26",
        "chainId": "0x1079",
        "feeToken": null,
        "calls": [],
        "keyType": null,
        "keyData": null
      },
      "additionalContracts": [],
      "isFixedGasLimit": false
    },
    {
      "hash": null,
      "transactionType": "CALL",
      "contractName": null,
      "contractAddress": "0x000000008c3930dca540bb9b3a5d0ee78fca9a4c",
      "function": "setEnforcedOptions((uint32,uint16,bytes)[])",
      "arguments": [
        "[(30255, 1, 0x00030100110100000000000000000000000000030d40), (30255, 2, 0x0003010011010000000000000000000000000003d090)]"
      ],
      "transaction": {
        "from": "0x54f9b12743a7deec0ea48721683cbebedc6e17bc",
        "to": "0x000000008c3930dca540bb9b3a5d0ee78fca9a4c",
        "gas": "0xb16d5",
        "value": "0x0",
        "input": "0xb98bd07000000000000000000000000000000000000000000000000000000000000000200000000000000000000000000000000000000000000000000000000000000002000000000000000000000000000000000000000000000000000000000000004000000000000000000000000000000000000000000000000000000000000000e0000000000000000000000000000000000000000000000000000000000000762f00000000000000000000000000000000000000000000000000000000000000010000000000000000000000000000000000000000000000000000000000000060000000000000000000000000000000000000000000000000000000000000001600030100110100000000000000000000000000030d4000000000000000000000000000000000000000000000000000000000000000000000000000000000762f0000000000000000000000000000000000000000000000000000000000000002000000000000000000000000000000000000000000000000000000000000006000000000000000000000000000000000000000000000000000000000000000160003010011010000000000000000000000000003d09000000000000000000000",
        "nonce": "0x27",
        "chainId": "0x1079",
        "feeToken": null,
        "calls": [],
        "keyType": null,
        "keyData": null
      },
      "additionalContracts": [],
      "isFixedGasLimit": false
    },
    {
      "hash": null,
      "transactionType": "CALL",
      "contractName": null,
      "contractAddress": "0x00000000bc4aef4ba6363a437455cb1af19e2aeb",
      "function": "setEnforcedOptions((uint32,uint16,bytes)[])",
      "arguments": [
        "[(30255, 1, 0x00030100110100000000000000000000000000030d40), (30255, 2, 0x0003010011010000000000000000000000000003d090)]"
      ],
      "transaction": {
        "from": "0x54f9b12743a7deec0ea48721683cbebedc6e17bc",
        "to": "0x00000000bc4aef4ba6363a437455cb1af19e2aeb",
        "gas": "0xb16d5",
        "value": "0x0",
        "input": "0xb98bd07000000000000000000000000000000000000000000000000000000000000000200000000000000000000000000000000000000000000000000000000000000002000000000000000000000000000000000000000000000000000000000000004000000000000000000000000000000000000000000000000000000000000000e0000000000000000000000000000000000000000000000000000000000000762f00000000000000000000000000000000000000000000000000000000000000010000000000000000000000000000000000000000000000000000000000000060000000000000000000000000000000000000000000000000000000000000001600030100110100000000000000000000000000030d4000000000000000000000000000000000000000000000000000000000000000000000000000000000762f0000000000000000000000000000000000000000000000000000000000000002000000000000000000000000000000000000000000000000000000000000006000000000000000000000000000000000000000000000000000000000000000160003010011010000000000000000000000000003d09000000000000000000000",
        "nonce": "0x28",
        "chainId": "0x1079",
        "feeToken": null,
        "calls": [],
        "keyType": null,
        "keyData": null
      },
      "additionalContracts": [],
      "isFixedGasLimit": false
    },
    {
      "hash": null,
      "transactionType": "CALL",
      "contractName": null,
      "contractAddress": "0x00000000e9ce0f293d1ce552768b187eba8a56d4",
      "function": "setPeer(uint32,bytes32)",
      "arguments": [
        "30255",
        "0x000000000000000000000000d86fbbd0c8715d2c1f40e451e5c3514e65e7576a"
      ],
      "transaction": {
        "from": "0x54f9b12743a7deec0ea48721683cbebedc6e17bc",
        "to": "0x00000000e9ce0f293d1ce552768b187eba8a56d4",
        "gas": "0x5cac9",
        "value": "0x0",
        "input": "0x3400288b000000000000000000000000000000000000000000000000000000000000762f000000000000000000000000d86fbbd0c8715d2c1f40e451e5c3514e65e7576a",
        "nonce": "0x29",
        "chainId": "0x1079",
        "feeToken": null,
        "calls": [],
        "keyType": null,
        "keyData": null
      },
      "additionalContracts": [],
      "isFixedGasLimit": false
    },
    {
      "hash": null,
      "transactionType": "CALL",
      "contractName": null,
      "contractAddress": "0x00000000fd8c4b8a413a06821456801295921a71",
      "function": "setPeer(uint32,bytes32)",
      "arguments": [
        "30255",
        "0x00000000000000000000000088aa7854d3b2daa5e37e7ce73a1f39669623a361"
      ],
      "transaction": {
        "from": "0x54f9b12743a7deec0ea48721683cbebedc6e17bc",
        "to": "0x00000000fd8c4b8a413a06821456801295921a71",
        "gas": "0x5cac9",
        "value": "0x0",
        "input": "0x3400288b000000000000000000000000000000000000000000000000000000000000762f00000000000000000000000088aa7854d3b2daa5e37e7ce73a1f39669623a361",
        "nonce": "0x2a",
        "chainId": "0x1079",
        "feeToken": null,
        "calls": [],
        "keyType": null,
        "keyData": null
      },
      "additionalContracts": [],
      "isFixedGasLimit": false
    },
    {
      "hash": null,
      "transactionType": "CALL",
      "contractName": null,
      "contractAddress": "0x00000000883279097a49db1f2af954ead0c77e3c",
      "function": "setPeer(uint32,bytes32)",
      "arguments": [
        "30255",
        "0x000000000000000000000000999dfabe3b1cc2ef66eb032eea42fea329bba168"
      ],
      "transaction": {
        "from": "0x54f9b12743a7deec0ea48721683cbebedc6e17bc",
        "to": "0x00000000883279097a49db1f2af954ead0c77e3c",
        "gas": "0x5cac9",
        "value": "0x0",
        "input": "0x3400288b000000000000000000000000000000000000000000000000000000000000762f000000000000000000000000999dfabe3b1cc2ef66eb032eea42fea329bba168",
        "nonce": "0x2b",
        "chainId": "0x1079",
        "feeToken": null,
        "calls": [],
        "keyType": null,
        "keyData": null
      },
      "additionalContracts": [],
      "isFixedGasLimit": false
    },
    {
      "hash": null,
      "transactionType": "CALL",
      "contractName": null,
      "contractAddress": "0x00000000d61733e7a393a10a5b48c311abe8f1e5",
      "function": "setPeer(uint32,bytes32)",
      "arguments": [
        "30255",
        "0x00000000000000000000000096a394058e2b84a89bac9667b19661ed003cf5d4"
      ],
      "transaction": {
        "from": "0x54f9b12743a7deec0ea48721683cbebedc6e17bc",
        "to": "0x00000000d61733e7a393a10a5b48c311abe8f1e5",
        "gas": "0x5ca44",
        "value": "0x0",
        "input": "0x3400288b000000000000000000000000000000000000000000000000000000000000762f00000000000000000000000096a394058e2b84a89bac9667b19661ed003cf5d4",
        "nonce": "0x2c",
        "chainId": "0x1079",
        "feeToken": null,
        "calls": [],
        "keyType": null,
        "keyData": null
      },
      "additionalContracts": [],
      "isFixedGasLimit": false
    },
    {
      "hash": null,
      "transactionType": "CALL",
      "contractName": null,
      "contractAddress": "0x000000008c3930dca540bb9b3a5d0ee78fca9a4c",
      "function": "setPeer(uint32,bytes32)",
      "arguments": [
        "30255",
        "0x0000000000000000000000009abfe1f8a999b0011ecd6116649aee8d575f5604"
      ],
      "transaction": {
        "from": "0x54f9b12743a7deec0ea48721683cbebedc6e17bc",
        "to": "0x000000008c3930dca540bb9b3a5d0ee78fca9a4c",
        "gas": "0x5cac9",
        "value": "0x0",
        "input": "0x3400288b000000000000000000000000000000000000000000000000000000000000762f0000000000000000000000009abfe1f8a999b0011ecd6116649aee8d575f5604",
        "nonce": "0x2d",
        "chainId": "0x1079",
        "feeToken": null,
        "calls": [],
        "keyType": null,
        "keyData": null
      },
      "additionalContracts": [],
      "isFixedGasLimit": false
    },
    {
      "hash": null,
      "transactionType": "CALL",
      "contractName": null,
      "contractAddress": "0x00000000bc4aef4ba6363a437455cb1af19e2aeb",
      "function": "setPeer(uint32,bytes32)",
      "arguments": [
        "30255",
        "0x00000000000000000000000075c38d46001b0f8108c4136216bd2694982c20fc"
      ],
      "transaction": {
        "from": "0x54f9b12743a7deec0ea48721683cbebedc6e17bc",
        "to": "0x00000000bc4aef4ba6363a437455cb1af19e2aeb",
        "gas": "0x5cab9",
        "value": "0x0",
        "input": "0x3400288b000000000000000000000000000000000000000000000000000000000000762f00000000000000000000000075c38d46001b0f8108c4136216bd2694982c20fc",
        "nonce": "0x2e",
        "chainId": "0x1079",
        "feeToken": null,
        "calls": [],
        "keyType": null,
        "keyData": null
      },
      "additionalContracts": [],
      "isFixedGasLimit": false
    },
    {
      "hash": null,
      "transactionType": "CALL",
      "contractName": null,
      "contractAddress": "0x20bb7c2e2f4e5ca2b4c57060d1ae2615245dcc9c",
      "function": "setConfig(address,address,(uint32,uint32,bytes)[])",
      "arguments": [
        "0x00000000E9CE0f293D1Ce552768b187eBA8a56D4",
        "0x572863d9247E52026E0892d9Cd2E519B41EdB73C",
        "[(30255, 2, 0x0000000000000000000000000000000000000000000000000000000000000020000000000000000000000000000000000000000000000000000000000000000000000000000000000000000000000000000000000000000000000000000000030000000000000000000000000000000000000000000000000000000000000000000000000000000000000000000000000000000000000000000000000000000000000000000000000000000000000000000000000000000000000000000000c00000000000000000000000000000000000000000000000000000000000000140000000000000000000000000000000000000000000000000000000000000000300000000000000000000000076faff60799021b301b45dc1bbede53f261f996100000000000000000000000097faa2a9c9bf8b4082b175a5b894ce6bac6697a8000000000000000000000000f5771acc42f3321d7193748fa0f656470bf737f20000000000000000000000000000000000000000000000000000000000000000)]"
      ],
      "transaction": {
        "from": "0x54f9b12743a7deec0ea48721683cbebedc6e17bc",
        "to": "0x20bb7c2e2f4e5ca2b4c57060d1ae2615245dcc9c",
        "gas": "0x1a8172",
        "value": "0x0",
        "input": "0x6dbd9f9000000000000000000000000000000000e9ce0f293d1ce552768b187eba8a56d4000000000000000000000000572863d9247e52026e0892d9cd2e519b41edb73c000000000000000000000000000000000000000000000000000000000000006000000000000000000000000000000000000000000000000000000000000000010000000000000000000000000000000000000000000000000000000000000020000000000000000000000000000000000000000000000000000000000000762f0000000000000000000000000000000000000000000000000000000000000002000000000000000000000000000000000000000000000000000000000000006000000000000000000000000000000000000000000000000000000000000001800000000000000000000000000000000000000000000000000000000000000020000000000000000000000000000000000000000000000000000000000000000000000000000000000000000000000000000000000000000000000000000000030000000000000000000000000000000000000000000000000000000000000000000000000000000000000000000000000000000000000000000000000000000000000000000000000000000000000000000000000000000000000000000000c00000000000000000000000000000000000000000000000000000000000000140000000000000000000000000000000000000000000000000000000000000000300000000000000000000000076faff60799021b301b45dc1bbede53f261f996100000000000000000000000097faa2a9c9bf8b4082b175a5b894ce6bac6697a8000000000000000000000000f5771acc42f3321d7193748fa0f656470bf737f20000000000000000000000000000000000000000000000000000000000000000",
        "nonce": "0x2f",
        "chainId": "0x1079",
        "feeToken": null,
        "calls": [],
        "keyType": null,
        "keyData": null
      },
      "additionalContracts": [],
      "isFixedGasLimit": false
    },
    {
      "hash": null,
      "transactionType": "CALL",
      "contractName": null,
      "contractAddress": "0x20bb7c2e2f4e5ca2b4c57060d1ae2615245dcc9c",
      "function": "setConfig(address,address,(uint32,uint32,bytes)[])",
      "arguments": [
        "0x00000000E9CE0f293D1Ce552768b187eBA8a56D4",
        "0x0B6F08C2D39421Acb49c99abCe82050e356171e5",
        "[(30255, 2, 0x0000000000000000000000000000000000000000000000000000000000000020000000000000000000000000000000000000000000000000000000000000000000000000000000000000000000000000000000000000000000000000000000030000000000000000000000000000000000000000000000000000000000000000000000000000000000000000000000000000000000000000000000000000000000000000000000000000000000000000000000000000000000000000000000c00000000000000000000000000000000000000000000000000000000000000140000000000000000000000000000000000000000000000000000000000000000300000000000000000000000076faff60799021b301b45dc1bbede53f261f996100000000000000000000000097faa2a9c9bf8b4082b175a5b894ce6bac6697a8000000000000000000000000f5771acc42f3321d7193748fa0f656470bf737f20000000000000000000000000000000000000000000000000000000000000000)]"
      ],
      "transaction": {
        "from": "0x54f9b12743a7deec0ea48721683cbebedc6e17bc",
        "to": "0x20bb7c2e2f4e5ca2b4c57060d1ae2615245dcc9c",
        "gas": "0x1a802d",
        "value": "0x0",
        "input": "0x6dbd9f9000000000000000000000000000000000e9ce0f293d1ce552768b187eba8a56d40000000000000000000000000b6f08c2d39421acb49c99abce82050e356171e5000000000000000000000000000000000000000000000000000000000000006000000000000000000000000000000000000000000000000000000000000000010000000000000000000000000000000000000000000000000000000000000020000000000000000000000000000000000000000000000000000000000000762f0000000000000000000000000000000000000000000000000000000000000002000000000000000000000000000000000000000000000000000000000000006000000000000000000000000000000000000000000000000000000000000001800000000000000000000000000000000000000000000000000000000000000020000000000000000000000000000000000000000000000000000000000000000000000000000000000000000000000000000000000000000000000000000000030000000000000000000000000000000000000000000000000000000000000000000000000000000000000000000000000000000000000000000000000000000000000000000000000000000000000000000000000000000000000000000000c00000000000000000000000000000000000000000000000000000000000000140000000000000000000000000000000000000000000000000000000000000000300000000000000000000000076faff60799021b301b45dc1bbede53f261f996100000000000000000000000097faa2a9c9bf8b4082b175a5b894ce6bac6697a8000000000000000000000000f5771acc42f3321d7193748fa0f656470bf737f20000000000000000000000000000000000000000000000000000000000000000",
        "nonce": "0x30",
        "chainId": "0x1079",
        "feeToken": null,
        "calls": [],
        "keyType": null,
        "keyData": null
      },
      "additionalContracts": [],
      "isFixedGasLimit": false
    },
    {
      "hash": null,
      "transactionType": "CALL",
      "contractName": null,
      "contractAddress": "0x20bb7c2e2f4e5ca2b4c57060d1ae2615245dcc9c",
      "function": "setConfig(address,address,(uint32,uint32,bytes)[])",
      "arguments": [
        "0x00000000fD8C4B8A413A06821456801295921a71",
        "0x572863d9247E52026E0892d9Cd2E519B41EdB73C",
        "[(30255, 2, 0x0000000000000000000000000000000000000000000000000000000000000020000000000000000000000000000000000000000000000000000000000000000000000000000000000000000000000000000000000000000000000000000000030000000000000000000000000000000000000000000000000000000000000000000000000000000000000000000000000000000000000000000000000000000000000000000000000000000000000000000000000000000000000000000000c00000000000000000000000000000000000000000000000000000000000000140000000000000000000000000000000000000000000000000000000000000000300000000000000000000000076faff60799021b301b45dc1bbede53f261f996100000000000000000000000097faa2a9c9bf8b4082b175a5b894ce6bac6697a8000000000000000000000000f5771acc42f3321d7193748fa0f656470bf737f20000000000000000000000000000000000000000000000000000000000000000)]"
      ],
      "transaction": {
        "from": "0x54f9b12743a7deec0ea48721683cbebedc6e17bc",
        "to": "0x20bb7c2e2f4e5ca2b4c57060d1ae2615245dcc9c",
        "gas": "0x1a8172",
        "value": "0x0",
        "input": "0x6dbd9f9000000000000000000000000000000000fd8c4b8a413a06821456801295921a71000000000000000000000000572863d9247e52026e0892d9cd2e519b41edb73c000000000000000000000000000000000000000000000000000000000000006000000000000000000000000000000000000000000000000000000000000000010000000000000000000000000000000000000000000000000000000000000020000000000000000000000000000000000000000000000000000000000000762f0000000000000000000000000000000000000000000000000000000000000002000000000000000000000000000000000000000000000000000000000000006000000000000000000000000000000000000000000000000000000000000001800000000000000000000000000000000000000000000000000000000000000020000000000000000000000000000000000000000000000000000000000000000000000000000000000000000000000000000000000000000000000000000000030000000000000000000000000000000000000000000000000000000000000000000000000000000000000000000000000000000000000000000000000000000000000000000000000000000000000000000000000000000000000000000000c00000000000000000000000000000000000000000000000000000000000000140000000000000000000000000000000000000000000000000000000000000000300000000000000000000000076faff60799021b301b45dc1bbede53f261f996100000000000000000000000097faa2a9c9bf8b4082b175a5b894ce6bac6697a8000000000000000000000000f5771acc42f3321d7193748fa0f656470bf737f20000000000000000000000000000000000000000000000000000000000000000",
        "nonce": "0x31",
        "chainId": "0x1079",
        "feeToken": null,
        "calls": [],
        "keyType": null,
        "keyData": null
      },
      "additionalContracts": [],
      "isFixedGasLimit": false
    },
    {
      "hash": null,
      "transactionType": "CALL",
      "contractName": null,
      "contractAddress": "0x20bb7c2e2f4e5ca2b4c57060d1ae2615245dcc9c",
      "function": "setConfig(address,address,(uint32,uint32,bytes)[])",
      "arguments": [
        "0x00000000fD8C4B8A413A06821456801295921a71",
        "0x0B6F08C2D39421Acb49c99abCe82050e356171e5",
        "[(30255, 2, 0x0000000000000000000000000000000000000000000000000000000000000020000000000000000000000000000000000000000000000000000000000000000000000000000000000000000000000000000000000000000000000000000000030000000000000000000000000000000000000000000000000000000000000000000000000000000000000000000000000000000000000000000000000000000000000000000000000000000000000000000000000000000000000000000000c00000000000000000000000000000000000000000000000000000000000000140000000000000000000000000000000000000000000000000000000000000000300000000000000000000000076faff60799021b301b45dc1bbede53f261f996100000000000000000000000097faa2a9c9bf8b4082b175a5b894ce6bac6697a8000000000000000000000000f5771acc42f3321d7193748fa0f656470bf737f20000000000000000000000000000000000000000000000000000000000000000)]"
      ],
      "transaction": {
        "from": "0x54f9b12743a7deec0ea48721683cbebedc6e17bc",
        "to": "0x20bb7c2e2f4e5ca2b4c57060d1ae2615245dcc9c",
        "gas": "0x1a802d",
        "value": "0x0",
        "input": "0x6dbd9f9000000000000000000000000000000000fd8c4b8a413a06821456801295921a710000000000000000000000000b6f08c2d39421acb49c99abce82050e356171e5000000000000000000000000000000000000000000000000000000000000006000000000000000000000000000000000000000000000000000000000000000010000000000000000000000000000000000000000000000000000000000000020000000000000000000000000000000000000000000000000000000000000762f0000000000000000000000000000000000000000000000000000000000000002000000000000000000000000000000000000000000000000000000000000006000000000000000000000000000000000000000000000000000000000000001800000000000000000000000000000000000000000000000000000000000000020000000000000000000000000000000000000000000000000000000000000000000000000000000000000000000000000000000000000000000000000000000030000000000000000000000000000000000000000000000000000000000000000000000000000000000000000000000000000000000000000000000000000000000000000000000000000000000000000000000000000000000000000000000c00000000000000000000000000000000000000000000000000000000000000140000000000000000000000000000000000000000000000000000000000000000300000000000000000000000076faff60799021b301b45dc1bbede53f261f996100000000000000000000000097faa2a9c9bf8b4082b175a5b894ce6bac6697a8000000000000000000000000f5771acc42f3321d7193748fa0f656470bf737f20000000000000000000000000000000000000000000000000000000000000000",
        "nonce": "0x32",
        "chainId": "0x1079",
        "feeToken": null,
        "calls": [],
        "keyType": null,
        "keyData": null
      },
      "additionalContracts": [],
      "isFixedGasLimit": false
    },
    {
      "hash": null,
      "transactionType": "CALL",
      "contractName": null,
      "contractAddress": "0x20bb7c2e2f4e5ca2b4c57060d1ae2615245dcc9c",
      "function": "setConfig(address,address,(uint32,uint32,bytes)[])",
      "arguments": [
        "0x00000000883279097A49dB1f2af954EAd0C77E3c",
        "0x572863d9247E52026E0892d9Cd2E519B41EdB73C",
        "[(30255, 2, 0x0000000000000000000000000000000000000000000000000000000000000020000000000000000000000000000000000000000000000000000000000000000000000000000000000000000000000000000000000000000000000000000000030000000000000000000000000000000000000000000000000000000000000000000000000000000000000000000000000000000000000000000000000000000000000000000000000000000000000000000000000000000000000000000000c00000000000000000000000000000000000000000000000000000000000000140000000000000000000000000000000000000000000000000000000000000000300000000000000000000000076faff60799021b301b45dc1bbede53f261f996100000000000000000000000097faa2a9c9bf8b4082b175a5b894ce6bac6697a8000000000000000000000000f5771acc42f3321d7193748fa0f656470bf737f20000000000000000000000000000000000000000000000000000000000000000)]"
      ],
      "transaction": {
        "from": "0x54f9b12743a7deec0ea48721683cbebedc6e17bc",
        "to": "0x20bb7c2e2f4e5ca2b4c57060d1ae2615245dcc9c",
        "gas": "0x1a8172",
        "value": "0x0",
        "input": "0x6dbd9f9000000000000000000000000000000000883279097a49db1f2af954ead0c77e3c000000000000000000000000572863d9247e52026e0892d9cd2e519b41edb73c000000000000000000000000000000000000000000000000000000000000006000000000000000000000000000000000000000000000000000000000000000010000000000000000000000000000000000000000000000000000000000000020000000000000000000000000000000000000000000000000000000000000762f0000000000000000000000000000000000000000000000000000000000000002000000000000000000000000000000000000000000000000000000000000006000000000000000000000000000000000000000000000000000000000000001800000000000000000000000000000000000000000000000000000000000000020000000000000000000000000000000000000000000000000000000000000000000000000000000000000000000000000000000000000000000000000000000030000000000000000000000000000000000000000000000000000000000000000000000000000000000000000000000000000000000000000000000000000000000000000000000000000000000000000000000000000000000000000000000c00000000000000000000000000000000000000000000000000000000000000140000000000000000000000000000000000000000000000000000000000000000300000000000000000000000076faff60799021b301b45dc1bbede53f261f996100000000000000000000000097faa2a9c9bf8b4082b175a5b894ce6bac6697a8000000000000000000000000f5771acc42f3321d7193748fa0f656470bf737f20000000000000000000000000000000000000000000000000000000000000000",
        "nonce": "0x33",
        "chainId": "0x1079",
        "feeToken": null,
        "calls": [],
        "keyType": null,
        "keyData": null
      },
      "additionalContracts": [],
      "isFixedGasLimit": false
    },
    {
      "hash": null,
      "transactionType": "CALL",
      "contractName": null,
      "contractAddress": "0x20bb7c2e2f4e5ca2b4c57060d1ae2615245dcc9c",
      "function": "setConfig(address,address,(uint32,uint32,bytes)[])",
      "arguments": [
        "0x00000000883279097A49dB1f2af954EAd0C77E3c",
        "0x0B6F08C2D39421Acb49c99abCe82050e356171e5",
        "[(30255, 2, 0x0000000000000000000000000000000000000000000000000000000000000020000000000000000000000000000000000000000000000000000000000000000000000000000000000000000000000000000000000000000000000000000000030000000000000000000000000000000000000000000000000000000000000000000000000000000000000000000000000000000000000000000000000000000000000000000000000000000000000000000000000000000000000000000000c00000000000000000000000000000000000000000000000000000000000000140000000000000000000000000000000000000000000000000000000000000000300000000000000000000000076faff60799021b301b45dc1bbede53f261f996100000000000000000000000097faa2a9c9bf8b4082b175a5b894ce6bac6697a8000000000000000000000000f5771acc42f3321d7193748fa0f656470bf737f20000000000000000000000000000000000000000000000000000000000000000)]"
      ],
      "transaction": {
        "from": "0x54f9b12743a7deec0ea48721683cbebedc6e17bc",
        "to": "0x20bb7c2e2f4e5ca2b4c57060d1ae2615245dcc9c",
        "gas": "0x1a802d",
        "value": "0x0",
        "input": "0x6dbd9f9000000000000000000000000000000000883279097a49db1f2af954ead0c77e3c0000000000000000000000000b6f08c2d39421acb49c99abce82050e356171e5000000000000000000000000000000000000000000000000000000000000006000000000000000000000000000000000000000000000000000000000000000010000000000000000000000000000000000000000000000000000000000000020000000000000000000000000000000000000000000000000000000000000762f0000000000000000000000000000000000000000000000000000000000000002000000000000000000000000000000000000000000000000000000000000006000000000000000000000000000000000000000000000000000000000000001800000000000000000000000000000000000000000000000000000000000000020000000000000000000000000000000000000000000000000000000000000000000000000000000000000000000000000000000000000000000000000000000030000000000000000000000000000000000000000000000000000000000000000000000000000000000000000000000000000000000000000000000000000000000000000000000000000000000000000000000000000000000000000000000c00000000000000000000000000000000000000000000000000000000000000140000000000000000000000000000000000000000000000000000000000000000300000000000000000000000076faff60799021b301b45dc1bbede53f261f996100000000000000000000000097faa2a9c9bf8b4082b175a5b894ce6bac6697a8000000000000000000000000f5771acc42f3321d7193748fa0f656470bf737f20000000000000000000000000000000000000000000000000000000000000000",
        "nonce": "0x34",
        "chainId": "0x1079",
        "feeToken": null,
        "calls": [],
        "keyType": null,
        "keyData": null
      },
      "additionalContracts": [],
      "isFixedGasLimit": false
    },
    {
      "hash": null,
      "transactionType": "CALL",
      "contractName": null,
      "contractAddress": "0x20bb7c2e2f4e5ca2b4c57060d1ae2615245dcc9c",
      "function": "setConfig(address,address,(uint32,uint32,bytes)[])",
      "arguments": [
        "0x00000000D61733e7A393A10A5B48c311AbE8f1E5",
        "0x572863d9247E52026E0892d9Cd2E519B41EdB73C",
        "[(30255, 2, 0x0000000000000000000000000000000000000000000000000000000000000020000000000000000000000000000000000000000000000000000000000000000000000000000000000000000000000000000000000000000000000000000000030000000000000000000000000000000000000000000000000000000000000000000000000000000000000000000000000000000000000000000000000000000000000000000000000000000000000000000000000000000000000000000000c00000000000000000000000000000000000000000000000000000000000000140000000000000000000000000000000000000000000000000000000000000000300000000000000000000000076faff60799021b301b45dc1bbede53f261f996100000000000000000000000097faa2a9c9bf8b4082b175a5b894ce6bac6697a8000000000000000000000000f5771acc42f3321d7193748fa0f656470bf737f20000000000000000000000000000000000000000000000000000000000000000)]"
      ],
      "transaction": {
        "from": "0x54f9b12743a7deec0ea48721683cbebedc6e17bc",
        "to": "0x20bb7c2e2f4e5ca2b4c57060d1ae2615245dcc9c",
        "gas": "0x1a8172",
        "value": "0x0",
        "input": "0x6dbd9f9000000000000000000000000000000000d61733e7a393a10a5b48c311abe8f1e5000000000000000000000000572863d9247e52026e0892d9cd2e519b41edb73c000000000000000000000000000000000000000000000000000000000000006000000000000000000000000000000000000000000000000000000000000000010000000000000000000000000000000000000000000000000000000000000020000000000000000000000000000000000000000000000000000000000000762f0000000000000000000000000000000000000000000000000000000000000002000000000000000000000000000000000000000000000000000000000000006000000000000000000000000000000000000000000000000000000000000001800000000000000000000000000000000000000000000000000000000000000020000000000000000000000000000000000000000000000000000000000000000000000000000000000000000000000000000000000000000000000000000000030000000000000000000000000000000000000000000000000000000000000000000000000000000000000000000000000000000000000000000000000000000000000000000000000000000000000000000000000000000000000000000000c00000000000000000000000000000000000000000000000000000000000000140000000000000000000000000000000000000000000000000000000000000000300000000000000000000000076faff60799021b301b45dc1bbede53f261f996100000000000000000000000097faa2a9c9bf8b4082b175a5b894ce6bac6697a8000000000000000000000000f5771acc42f3321d7193748fa0f656470bf737f20000000000000000000000000000000000000000000000000000000000000000",
        "nonce": "0x35",
        "chainId": "0x1079",
        "feeToken": null,
        "calls": [],
        "keyType": null,
        "keyData": null
      },
      "additionalContracts": [],
      "isFixedGasLimit": false
    },
    {
      "hash": null,
      "transactionType": "CALL",
      "contractName": null,
      "contractAddress": "0x20bb7c2e2f4e5ca2b4c57060d1ae2615245dcc9c",
      "function": "setConfig(address,address,(uint32,uint32,bytes)[])",
      "arguments": [
        "0x00000000D61733e7A393A10A5B48c311AbE8f1E5",
        "0x0B6F08C2D39421Acb49c99abCe82050e356171e5",
        "[(30255, 2, 0x0000000000000000000000000000000000000000000000000000000000000020000000000000000000000000000000000000000000000000000000000000000000000000000000000000000000000000000000000000000000000000000000030000000000000000000000000000000000000000000000000000000000000000000000000000000000000000000000000000000000000000000000000000000000000000000000000000000000000000000000000000000000000000000000c00000000000000000000000000000000000000000000000000000000000000140000000000000000000000000000000000000000000000000000000000000000300000000000000000000000076faff60799021b301b45dc1bbede53f261f996100000000000000000000000097faa2a9c9bf8b4082b175a5b894ce6bac6697a8000000000000000000000000f5771acc42f3321d7193748fa0f656470bf737f20000000000000000000000000000000000000000000000000000000000000000)]"
      ],
      "transaction": {
        "from": "0x54f9b12743a7deec0ea48721683cbebedc6e17bc",
        "to": "0x20bb7c2e2f4e5ca2b4c57060d1ae2615245dcc9c",
        "gas": "0x1a802d",
        "value": "0x0",
        "input": "0x6dbd9f9000000000000000000000000000000000d61733e7a393a10a5b48c311abe8f1e50000000000000000000000000b6f08c2d39421acb49c99abce82050e356171e5000000000000000000000000000000000000000000000000000000000000006000000000000000000000000000000000000000000000000000000000000000010000000000000000000000000000000000000000000000000000000000000020000000000000000000000000000000000000000000000000000000000000762f0000000000000000000000000000000000000000000000000000000000000002000000000000000000000000000000000000000000000000000000000000006000000000000000000000000000000000000000000000000000000000000001800000000000000000000000000000000000000000000000000000000000000020000000000000000000000000000000000000000000000000000000000000000000000000000000000000000000000000000000000000000000000000000000030000000000000000000000000000000000000000000000000000000000000000000000000000000000000000000000000000000000000000000000000000000000000000000000000000000000000000000000000000000000000000000000c00000000000000000000000000000000000000000000000000000000000000140000000000000000000000000000000000000000000000000000000000000000300000000000000000000000076faff60799021b301b45dc1bbede53f261f996100000000000000000000000097faa2a9c9bf8b4082b175a5b894ce6bac6697a8000000000000000000000000f5771acc42f3321d7193748fa0f656470bf737f20000000000000000000000000000000000000000000000000000000000000000",
        "nonce": "0x36",
        "chainId": "0x1079",
        "feeToken": null,
        "calls": [],
        "keyType": null,
        "keyData": null
      },
      "additionalContracts": [],
      "isFixedGasLimit": false
    },
    {
      "hash": null,
      "transactionType": "CALL",
      "contractName": null,
      "contractAddress": "0x20bb7c2e2f4e5ca2b4c57060d1ae2615245dcc9c",
      "function": "setConfig(address,address,(uint32,uint32,bytes)[])",
      "arguments": [
        "0x000000008c3930dCA540bB9B3A5D0ee78FcA9A4c",
        "0x572863d9247E52026E0892d9Cd2E519B41EdB73C",
        "[(30255, 2, 0x0000000000000000000000000000000000000000000000000000000000000020000000000000000000000000000000000000000000000000000000000000000000000000000000000000000000000000000000000000000000000000000000030000000000000000000000000000000000000000000000000000000000000000000000000000000000000000000000000000000000000000000000000000000000000000000000000000000000000000000000000000000000000000000000c00000000000000000000000000000000000000000000000000000000000000140000000000000000000000000000000000000000000000000000000000000000300000000000000000000000076faff60799021b301b45dc1bbede53f261f996100000000000000000000000097faa2a9c9bf8b4082b175a5b894ce6bac6697a8000000000000000000000000f5771acc42f3321d7193748fa0f656470bf737f20000000000000000000000000000000000000000000000000000000000000000)]"
      ],
      "transaction": {
        "from": "0x54f9b12743a7deec0ea48721683cbebedc6e17bc",
        "to": "0x20bb7c2e2f4e5ca2b4c57060d1ae2615245dcc9c",
        "gas": "0x1a8172",
        "value": "0x0",
        "input": "0x6dbd9f90000000000000000000000000000000008c3930dca540bb9b3a5d0ee78fca9a4c000000000000000000000000572863d9247e52026e0892d9cd2e519b41edb73c000000000000000000000000000000000000000000000000000000000000006000000000000000000000000000000000000000000000000000000000000000010000000000000000000000000000000000000000000000000000000000000020000000000000000000000000000000000000000000000000000000000000762f0000000000000000000000000000000000000000000000000000000000000002000000000000000000000000000000000000000000000000000000000000006000000000000000000000000000000000000000000000000000000000000001800000000000000000000000000000000000000000000000000000000000000020000000000000000000000000000000000000000000000000000000000000000000000000000000000000000000000000000000000000000000000000000000030000000000000000000000000000000000000000000000000000000000000000000000000000000000000000000000000000000000000000000000000000000000000000000000000000000000000000000000000000000000000000000000c00000000000000000000000000000000000000000000000000000000000000140000000000000000000000000000000000000000000000000000000000000000300000000000000000000000076faff60799021b301b45dc1bbede53f261f996100000000000000000000000097faa2a9c9bf8b4082b175a5b894ce6bac6697a8000000000000000000000000f5771acc42f3321d7193748fa0f656470bf737f20000000000000000000000000000000000000000000000000000000000000000",
        "nonce": "0x37",
        "chainId": "0x1079",
        "feeToken": null,
        "calls": [],
        "keyType": null,
        "keyData": null
      },
      "additionalContracts": [],
      "isFixedGasLimit": false
    },
    {
      "hash": null,
      "transactionType": "CALL",
      "contractName": null,
      "contractAddress": "0x20bb7c2e2f4e5ca2b4c57060d1ae2615245dcc9c",
      "function": "setConfig(address,address,(uint32,uint32,bytes)[])",
      "arguments": [
        "0x000000008c3930dCA540bB9B3A5D0ee78FcA9A4c",
        "0x0B6F08C2D39421Acb49c99abCe82050e356171e5",
        "[(30255, 2, 0x0000000000000000000000000000000000000000000000000000000000000020000000000000000000000000000000000000000000000000000000000000000000000000000000000000000000000000000000000000000000000000000000030000000000000000000000000000000000000000000000000000000000000000000000000000000000000000000000000000000000000000000000000000000000000000000000000000000000000000000000000000000000000000000000c00000000000000000000000000000000000000000000000000000000000000140000000000000000000000000000000000000000000000000000000000000000300000000000000000000000076faff60799021b301b45dc1bbede53f261f996100000000000000000000000097faa2a9c9bf8b4082b175a5b894ce6bac6697a8000000000000000000000000f5771acc42f3321d7193748fa0f656470bf737f20000000000000000000000000000000000000000000000000000000000000000)]"
      ],
      "transaction": {
        "from": "0x54f9b12743a7deec0ea48721683cbebedc6e17bc",
        "to": "0x20bb7c2e2f4e5ca2b4c57060d1ae2615245dcc9c",
        "gas": "0x1a802d",
        "value": "0x0",
        "input": "0x6dbd9f90000000000000000000000000000000008c3930dca540bb9b3a5d0ee78fca9a4c0000000000000000000000000b6f08c2d39421acb49c99abce82050e356171e5000000000000000000000000000000000000000000000000000000000000006000000000000000000000000000000000000000000000000000000000000000010000000000000000000000000000000000000000000000000000000000000020000000000000000000000000000000000000000000000000000000000000762f0000000000000000000000000000000000000000000000000000000000000002000000000000000000000000000000000000000000000000000000000000006000000000000000000000000000000000000000000000000000000000000001800000000000000000000000000000000000000000000000000000000000000020000000000000000000000000000000000000000000000000000000000000000000000000000000000000000000000000000000000000000000000000000000030000000000000000000000000000000000000000000000000000000000000000000000000000000000000000000000000000000000000000000000000000000000000000000000000000000000000000000000000000000000000000000000c00000000000000000000000000000000000000000000000000000000000000140000000000000000000000000000000000000000000000000000000000000000300000000000000000000000076faff60799021b301b45dc1bbede53f261f996100000000000000000000000097faa2a9c9bf8b4082b175a5b894ce6bac6697a8000000000000000000000000f5771acc42f3321d7193748fa0f656470bf737f20000000000000000000000000000000000000000000000000000000000000000",
        "nonce": "0x38",
        "chainId": "0x1079",
        "feeToken": null,
        "calls": [],
        "keyType": null,
        "keyData": null
      },
      "additionalContracts": [],
      "isFixedGasLimit": false
    },
    {
      "hash": null,
      "transactionType": "CALL",
      "contractName": null,
      "contractAddress": "0x20bb7c2e2f4e5ca2b4c57060d1ae2615245dcc9c",
      "function": "setConfig(address,address,(uint32,uint32,bytes)[])",
      "arguments": [
        "0x00000000bC4aEF4bA6363a437455Cb1af19e2aEb",
        "0x572863d9247E52026E0892d9Cd2E519B41EdB73C",
        "[(30255, 2, 0x0000000000000000000000000000000000000000000000000000000000000020000000000000000000000000000000000000000000000000000000000000000000000000000000000000000000000000000000000000000000000000000000030000000000000000000000000000000000000000000000000000000000000000000000000000000000000000000000000000000000000000000000000000000000000000000000000000000000000000000000000000000000000000000000c00000000000000000000000000000000000000000000000000000000000000140000000000000000000000000000000000000000000000000000000000000000300000000000000000000000076faff60799021b301b45dc1bbede53f261f996100000000000000000000000097faa2a9c9bf8b4082b175a5b894ce6bac6697a8000000000000000000000000f5771acc42f3321d7193748fa0f656470bf737f20000000000000000000000000000000000000000000000000000000000000000)]"
      ],
      "transaction": {
        "from": "0x54f9b12743a7deec0ea48721683cbebedc6e17bc",
        "to": "0x20bb7c2e2f4e5ca2b4c57060d1ae2615245dcc9c",
        "gas": "0x1a8172",
        "value": "0x0",
        "input": "0x6dbd9f9000000000000000000000000000000000bc4aef4ba6363a437455cb1af19e2aeb000000000000000000000000572863d9247e52026e0892d9cd2e519b41edb73c000000000000000000000000000000000000000000000000000000000000006000000000000000000000000000000000000000000000000000000000000000010000000000000000000000000000000000000000000000000000000000000020000000000000000000000000000000000000000000000000000000000000762f0000000000000000000000000000000000000000000000000000000000000002000000000000000000000000000000000000000000000000000000000000006000000000000000000000000000000000000000000000000000000000000001800000000000000000000000000000000000000000000000000000000000000020000000000000000000000000000000000000000000000000000000000000000000000000000000000000000000000000000000000000000000000000000000030000000000000000000000000000000000000000000000000000000000000000000000000000000000000000000000000000000000000000000000000000000000000000000000000000000000000000000000000000000000000000000000c00000000000000000000000000000000000000000000000000000000000000140000000000000000000000000000000000000000000000000000000000000000300000000000000000000000076faff60799021b301b45dc1bbede53f261f996100000000000000000000000097faa2a9c9bf8b4082b175a5b894ce6bac6697a8000000000000000000000000f5771acc42f3321d7193748fa0f656470bf737f20000000000000000000000000000000000000000000000000000000000000000",
        "nonce": "0x39",
        "chainId": "0x1079",
        "feeToken": null,
        "calls": [],
        "keyType": null,
        "keyData": null
      },
      "additionalContracts": [],
      "isFixedGasLimit": false
    },
    {
      "hash": null,
      "transactionType": "CALL",
      "contractName": null,
      "contractAddress": "0x20bb7c2e2f4e5ca2b4c57060d1ae2615245dcc9c",
      "function": "setConfig(address,address,(uint32,uint32,bytes)[])",
      "arguments": [
        "0x00000000bC4aEF4bA6363a437455Cb1af19e2aEb",
        "0x0B6F08C2D39421Acb49c99abCe82050e356171e5",
        "[(30255, 2, 0x0000000000000000000000000000000000000000000000000000000000000020000000000000000000000000000000000000000000000000000000000000000000000000000000000000000000000000000000000000000000000000000000030000000000000000000000000000000000000000000000000000000000000000000000000000000000000000000000000000000000000000000000000000000000000000000000000000000000000000000000000000000000000000000000c00000000000000000000000000000000000000000000000000000000000000140000000000000000000000000000000000000000000000000000000000000000300000000000000000000000076faff60799021b301b45dc1bbede53f261f996100000000000000000000000097faa2a9c9bf8b4082b175a5b894ce6bac6697a8000000000000000000000000f5771acc42f3321d7193748fa0f656470bf737f20000000000000000000000000000000000000000000000000000000000000000)]"
      ],
      "transaction": {
        "from": "0x54f9b12743a7deec0ea48721683cbebedc6e17bc",
        "to": "0x20bb7c2e2f4e5ca2b4c57060d1ae2615245dcc9c",
        "gas": "0x1a802d",
        "value": "0x0",
        "input": "0x6dbd9f9000000000000000000000000000000000bc4aef4ba6363a437455cb1af19e2aeb0000000000000000000000000b6f08c2d39421acb49c99abce82050e356171e5000000000000000000000000000000000000000000000000000000000000006000000000000000000000000000000000000000000000000000000000000000010000000000000000000000000000000000000000000000000000000000000020000000000000000000000000000000000000000000000000000000000000762f0000000000000000000000000000000000000000000000000000000000000002000000000000000000000000000000000000000000000000000000000000006000000000000000000000000000000000000000000000000000000000000001800000000000000000000000000000000000000000000000000000000000000020000000000000000000000000000000000000000000000000000000000000000000000000000000000000000000000000000000000000000000000000000000030000000000000000000000000000000000000000000000000000000000000000000000000000000000000000000000000000000000000000000000000000000000000000000000000000000000000000000000000000000000000000000000c00000000000000000000000000000000000000000000000000000000000000140000000000000000000000000000000000000000000000000000000000000000300000000000000000000000076faff60799021b301b45dc1bbede53f261f996100000000000000000000000097faa2a9c9bf8b4082b175a5b894ce6bac6697a8000000000000000000000000f5771acc42f3321d7193748fa0f656470bf737f20000000000000000000000000000000000000000000000000000000000000000",
        "nonce": "0x3a",
        "chainId": "0x1079",
        "feeToken": null,
        "calls": [],
        "keyType": null,
        "keyData": null
      },
      "additionalContracts": [],
      "isFixedGasLimit": false
    },
    {
      "hash": null,
      "transactionType": "CALL",
      "contractName": null,
      "contractAddress": "0x20bb7c2e2f4e5ca2b4c57060d1ae2615245dcc9c",
      "function": "setSendLibrary(address,uint32,address)",
      "arguments": [
        "0x00000000E9CE0f293D1Ce552768b187eBA8a56D4",
        "30255",
        "0x572863d9247E52026E0892d9Cd2E519B41EdB73C"
      ],
      "transaction": {
        "from": "0x54f9b12743a7deec0ea48721683cbebedc6e17bc",
        "to": "0x20bb7c2e2f4e5ca2b4c57060d1ae2615245dcc9c",
        "gas": "0x5c6fa",
        "value": "0x0",
        "input": "0x9535ff3000000000000000000000000000000000e9ce0f293d1ce552768b187eba8a56d4000000000000000000000000000000000000000000000000000000000000762f000000000000000000000000572863d9247e52026e0892d9cd2e519b41edb73c",
        "nonce": "0x3b",
        "chainId": "0x1079",
        "feeToken": null,
        "calls": [],
        "keyType": null,
        "keyData": null
      },
      "additionalContracts": [],
      "isFixedGasLimit": false
    },
    {
      "hash": null,
      "transactionType": "CALL",
      "contractName": null,
      "contractAddress": "0x20bb7c2e2f4e5ca2b4c57060d1ae2615245dcc9c",
      "function": "setReceiveLibrary(address,uint32,address,uint256)",
      "arguments": [
        "0x00000000E9CE0f293D1Ce552768b187eBA8a56D4",
        "30255",
        "0x0B6F08C2D39421Acb49c99abCe82050e356171e5",
        "0"
      ],
      "transaction": {
        "from": "0x54f9b12743a7deec0ea48721683cbebedc6e17bc",
        "to": "0x20bb7c2e2f4e5ca2b4c57060d1ae2615245dcc9c",
        "gas": "0x5e924",
        "value": "0x0",
        "input": "0x6a14d71500000000000000000000000000000000e9ce0f293d1ce552768b187eba8a56d4000000000000000000000000000000000000000000000000000000000000762f0000000000000000000000000b6f08c2d39421acb49c99abce82050e356171e50000000000000000000000000000000000000000000000000000000000000000",
        "nonce": "0x3c",
        "chainId": "0x1079",
        "feeToken": null,
        "calls": [],
        "keyType": null,
        "keyData": null
      },
      "additionalContracts": [],
      "isFixedGasLimit": false
    },
    {
      "hash": null,
      "transactionType": "CALL",
      "contractName": null,
      "contractAddress": "0x20bb7c2e2f4e5ca2b4c57060d1ae2615245dcc9c",
      "function": "setSendLibrary(address,uint32,address)",
      "arguments": [
        "0x00000000fD8C4B8A413A06821456801295921a71",
        "30255",
        "0x572863d9247E52026E0892d9Cd2E519B41EdB73C"
      ],
      "transaction": {
        "from": "0x54f9b12743a7deec0ea48721683cbebedc6e17bc",
        "to": "0x20bb7c2e2f4e5ca2b4c57060d1ae2615245dcc9c",
        "gas": "0x5c6fa",
        "value": "0x0",
        "input": "0x9535ff3000000000000000000000000000000000fd8c4b8a413a06821456801295921a71000000000000000000000000000000000000000000000000000000000000762f000000000000000000000000572863d9247e52026e0892d9cd2e519b41edb73c",
        "nonce": "0x3d",
        "chainId": "0x1079",
        "feeToken": null,
        "calls": [],
        "keyType": null,
        "keyData": null
      },
      "additionalContracts": [],
      "isFixedGasLimit": false
    },
    {
      "hash": null,
      "transactionType": "CALL",
      "contractName": null,
      "contractAddress": "0x20bb7c2e2f4e5ca2b4c57060d1ae2615245dcc9c",
      "function": "setReceiveLibrary(address,uint32,address,uint256)",
      "arguments": [
        "0x00000000fD8C4B8A413A06821456801295921a71",
        "30255",
        "0x0B6F08C2D39421Acb49c99abCe82050e356171e5",
        "0"
      ],
      "transaction": {
        "from": "0x54f9b12743a7deec0ea48721683cbebedc6e17bc",
        "to": "0x20bb7c2e2f4e5ca2b4c57060d1ae2615245dcc9c",
        "gas": "0x5e924",
        "value": "0x0",
        "input": "0x6a14d71500000000000000000000000000000000fd8c4b8a413a06821456801295921a71000000000000000000000000000000000000000000000000000000000000762f0000000000000000000000000b6f08c2d39421acb49c99abce82050e356171e50000000000000000000000000000000000000000000000000000000000000000",
        "nonce": "0x3e",
        "chainId": "0x1079",
        "feeToken": null,
        "calls": [],
        "keyType": null,
        "keyData": null
      },
      "additionalContracts": [],
      "isFixedGasLimit": false
    },
    {
      "hash": null,
      "transactionType": "CALL",
      "contractName": null,
      "contractAddress": "0x20bb7c2e2f4e5ca2b4c57060d1ae2615245dcc9c",
      "function": "setSendLibrary(address,uint32,address)",
      "arguments": [
        "0x00000000883279097A49dB1f2af954EAd0C77E3c",
        "30255",
        "0x572863d9247E52026E0892d9Cd2E519B41EdB73C"
      ],
      "transaction": {
        "from": "0x54f9b12743a7deec0ea48721683cbebedc6e17bc",
        "to": "0x20bb7c2e2f4e5ca2b4c57060d1ae2615245dcc9c",
        "gas": "0x5c6fa",
        "value": "0x0",
        "input": "0x9535ff3000000000000000000000000000000000883279097a49db1f2af954ead0c77e3c000000000000000000000000000000000000000000000000000000000000762f000000000000000000000000572863d9247e52026e0892d9cd2e519b41edb73c",
        "nonce": "0x3f",
        "chainId": "0x1079",
        "feeToken": null,
        "calls": [],
        "keyType": null,
        "keyData": null
      },
      "additionalContracts": [],
      "isFixedGasLimit": false
    },
    {
      "hash": null,
      "transactionType": "CALL",
      "contractName": null,
      "contractAddress": "0x20bb7c2e2f4e5ca2b4c57060d1ae2615245dcc9c",
      "function": "setReceiveLibrary(address,uint32,address,uint256)",
      "arguments": [
        "0x00000000883279097A49dB1f2af954EAd0C77E3c",
        "30255",
        "0x0B6F08C2D39421Acb49c99abCe82050e356171e5",
        "0"
      ],
      "transaction": {
        "from": "0x54f9b12743a7deec0ea48721683cbebedc6e17bc",
        "to": "0x20bb7c2e2f4e5ca2b4c57060d1ae2615245dcc9c",
        "gas": "0x5e924",
        "value": "0x0",
        "input": "0x6a14d71500000000000000000000000000000000883279097a49db1f2af954ead0c77e3c000000000000000000000000000000000000000000000000000000000000762f0000000000000000000000000b6f08c2d39421acb49c99abce82050e356171e50000000000000000000000000000000000000000000000000000000000000000",
        "nonce": "0x40",
        "chainId": "0x1079",
        "feeToken": null,
        "calls": [],
        "keyType": null,
        "keyData": null
      },
      "additionalContracts": [],
      "isFixedGasLimit": false
    },
    {
      "hash": null,
      "transactionType": "CALL",
      "contractName": null,
      "contractAddress": "0x20bb7c2e2f4e5ca2b4c57060d1ae2615245dcc9c",
      "function": "setSendLibrary(address,uint32,address)",
      "arguments": [
        "0x00000000D61733e7A393A10A5B48c311AbE8f1E5",
        "30255",
        "0x572863d9247E52026E0892d9Cd2E519B41EdB73C"
      ],
      "transaction": {
        "from": "0x54f9b12743a7deec0ea48721683cbebedc6e17bc",
        "to": "0x20bb7c2e2f4e5ca2b4c57060d1ae2615245dcc9c",
        "gas": "0x5c6fa",
        "value": "0x0",
        "input": "0x9535ff3000000000000000000000000000000000d61733e7a393a10a5b48c311abe8f1e5000000000000000000000000000000000000000000000000000000000000762f000000000000000000000000572863d9247e52026e0892d9cd2e519b41edb73c",
        "nonce": "0x41",
        "chainId": "0x1079",
        "feeToken": null,
        "calls": [],
        "keyType": null,
        "keyData": null
      },
      "additionalContracts": [],
      "isFixedGasLimit": false
    },
    {
      "hash": null,
      "transactionType": "CALL",
      "contractName": null,
      "contractAddress": "0x20bb7c2e2f4e5ca2b4c57060d1ae2615245dcc9c",
      "function": "setReceiveLibrary(address,uint32,address,uint256)",
      "arguments": [
        "0x00000000D61733e7A393A10A5B48c311AbE8f1E5",
        "30255",
        "0x0B6F08C2D39421Acb49c99abCe82050e356171e5",
        "0"
      ],
      "transaction": {
        "from": "0x54f9b12743a7deec0ea48721683cbebedc6e17bc",
        "to": "0x20bb7c2e2f4e5ca2b4c57060d1ae2615245dcc9c",
        "gas": "0x5e924",
        "value": "0x0",
        "input": "0x6a14d71500000000000000000000000000000000d61733e7a393a10a5b48c311abe8f1e5000000000000000000000000000000000000000000000000000000000000762f0000000000000000000000000b6f08c2d39421acb49c99abce82050e356171e50000000000000000000000000000000000000000000000000000000000000000",
        "nonce": "0x42",
        "chainId": "0x1079",
        "feeToken": null,
        "calls": [],
        "keyType": null,
        "keyData": null
      },
      "additionalContracts": [],
      "isFixedGasLimit": false
    },
    {
      "hash": null,
      "transactionType": "CALL",
      "contractName": null,
      "contractAddress": "0x20bb7c2e2f4e5ca2b4c57060d1ae2615245dcc9c",
      "function": "setSendLibrary(address,uint32,address)",
      "arguments": [
        "0x000000008c3930dCA540bB9B3A5D0ee78FcA9A4c",
        "30255",
        "0x572863d9247E52026E0892d9Cd2E519B41EdB73C"
      ],
      "transaction": {
        "from": "0x54f9b12743a7deec0ea48721683cbebedc6e17bc",
        "to": "0x20bb7c2e2f4e5ca2b4c57060d1ae2615245dcc9c",
        "gas": "0x5c6fa",
        "value": "0x0",
        "input": "0x9535ff30000000000000000000000000000000008c3930dca540bb9b3a5d0ee78fca9a4c000000000000000000000000000000000000000000000000000000000000762f000000000000000000000000572863d9247e52026e0892d9cd2e519b41edb73c",
        "nonce": "0x43",
        "chainId": "0x1079",
        "feeToken": null,
        "calls": [],
        "keyType": null,
        "keyData": null
      },
      "additionalContracts": [],
      "isFixedGasLimit": false
    },
    {
      "hash": null,
      "transactionType": "CALL",
      "contractName": null,
      "contractAddress": "0x20bb7c2e2f4e5ca2b4c57060d1ae2615245dcc9c",
      "function": "setReceiveLibrary(address,uint32,address,uint256)",
      "arguments": [
        "0x000000008c3930dCA540bB9B3A5D0ee78FcA9A4c",
        "30255",
        "0x0B6F08C2D39421Acb49c99abCe82050e356171e5",
        "0"
      ],
      "transaction": {
        "from": "0x54f9b12743a7deec0ea48721683cbebedc6e17bc",
        "to": "0x20bb7c2e2f4e5ca2b4c57060d1ae2615245dcc9c",
        "gas": "0x5e924",
        "value": "0x0",
        "input": "0x6a14d715000000000000000000000000000000008c3930dca540bb9b3a5d0ee78fca9a4c000000000000000000000000000000000000000000000000000000000000762f0000000000000000000000000b6f08c2d39421acb49c99abce82050e356171e50000000000000000000000000000000000000000000000000000000000000000",
        "nonce": "0x44",
        "chainId": "0x1079",
        "feeToken": null,
        "calls": [],
        "keyType": null,
        "keyData": null
      },
      "additionalContracts": [],
      "isFixedGasLimit": false
    },
    {
      "hash": null,
      "transactionType": "CALL",
      "contractName": null,
      "contractAddress": "0x20bb7c2e2f4e5ca2b4c57060d1ae2615245dcc9c",
      "function": "setSendLibrary(address,uint32,address)",
      "arguments": [
        "0x00000000bC4aEF4bA6363a437455Cb1af19e2aEb",
        "30255",
        "0x572863d9247E52026E0892d9Cd2E519B41EdB73C"
      ],
      "transaction": {
        "from": "0x54f9b12743a7deec0ea48721683cbebedc6e17bc",
        "to": "0x20bb7c2e2f4e5ca2b4c57060d1ae2615245dcc9c",
        "gas": "0x5c6fa",
        "value": "0x0",
        "input": "0x9535ff3000000000000000000000000000000000bc4aef4ba6363a437455cb1af19e2aeb000000000000000000000000000000000000000000000000000000000000762f000000000000000000000000572863d9247e52026e0892d9cd2e519b41edb73c",
        "nonce": "0x45",
        "chainId": "0x1079",
        "feeToken": null,
        "calls": [],
        "keyType": null,
        "keyData": null
      },
      "additionalContracts": [],
      "isFixedGasLimit": false
    },
    {
      "hash": null,
      "transactionType": "CALL",
      "contractName": null,
      "contractAddress": "0x20bb7c2e2f4e5ca2b4c57060d1ae2615245dcc9c",
      "function": "setReceiveLibrary(address,uint32,address,uint256)",
      "arguments": [
        "0x00000000bC4aEF4bA6363a437455Cb1af19e2aEb",
        "30255",
        "0x0B6F08C2D39421Acb49c99abCe82050e356171e5",
        "0"
      ],
      "transaction": {
        "from": "0x54f9b12743a7deec0ea48721683cbebedc6e17bc",
        "to": "0x20bb7c2e2f4e5ca2b4c57060d1ae2615245dcc9c",
        "gas": "0x5e924",
        "value": "0x0",
        "input": "0x6a14d71500000000000000000000000000000000bc4aef4ba6363a437455cb1af19e2aeb000000000000000000000000000000000000000000000000000000000000762f0000000000000000000000000b6f08c2d39421acb49c99abce82050e356171e50000000000000000000000000000000000000000000000000000000000000000",
        "nonce": "0x46",
        "chainId": "0x1079",
        "feeToken": null,
        "calls": [],
        "keyType": null,
        "keyData": null
      },
      "additionalContracts": [],
      "isFixedGasLimit": false
    },
    {
      "hash": null,
      "transactionType": "CALL",
      "contractName": null,
      "contractAddress": "0x00000000e9ce0f293d1ce552768b187eba8a56d4",
      "function": "setDelegate(address)",
      "arguments": [
        "0x1Ba19a54a01AE967f5E3895764Caaa6919FD2bEe"
      ],
      "transaction": {
        "from": "0x54f9b12743a7deec0ea48721683cbebedc6e17bc",
        "to": "0x00000000e9ce0f293d1ce552768b187eba8a56d4",
        "gas": "0xd242",
        "value": "0x0",
        "input": "0xca5eb5e10000000000000000000000001ba19a54a01ae967f5e3895764caaa6919fd2bee",
        "nonce": "0x47",
        "chainId": "0x1079",
        "feeToken": null,
        "calls": [],
        "keyType": null,
        "keyData": null
      },
      "additionalContracts": [],
      "isFixedGasLimit": false
    },
    {
      "hash": null,
      "transactionType": "CALL",
      "contractName": null,
      "contractAddress": "0x00000000e9ce0f293d1ce552768b187eba8a56d4",
      "function": "transferOwnership(address)",
      "arguments": [
        "0x1Ba19a54a01AE967f5E3895764Caaa6919FD2bEe"
      ],
      "transaction": {
        "from": "0x54f9b12743a7deec0ea48721683cbebedc6e17bc",
        "to": "0x00000000e9ce0f293d1ce552768b187eba8a56d4",
        "gas": "0xb86c",
        "value": "0x0",
        "input": "0xf2fde38b0000000000000000000000001ba19a54a01ae967f5e3895764caaa6919fd2bee",
        "nonce": "0x48",
        "chainId": "0x1079",
        "feeToken": null,
        "calls": [],
        "keyType": null,
        "keyData": null
      },
      "additionalContracts": [],
      "isFixedGasLimit": false
    },
    {
      "hash": null,
      "transactionType": "CALL",
      "contractName": null,
      "contractAddress": "0x00000000fd8c4b8a413a06821456801295921a71",
      "function": "setDelegate(address)",
      "arguments": [
        "0x1Ba19a54a01AE967f5E3895764Caaa6919FD2bEe"
      ],
      "transaction": {
        "from": "0x54f9b12743a7deec0ea48721683cbebedc6e17bc",
        "to": "0x00000000fd8c4b8a413a06821456801295921a71",
        "gas": "0xd242",
        "value": "0x0",
        "input": "0xca5eb5e10000000000000000000000001ba19a54a01ae967f5e3895764caaa6919fd2bee",
        "nonce": "0x49",
        "chainId": "0x1079",
        "feeToken": null,
        "calls": [],
        "keyType": null,
        "keyData": null
      },
      "additionalContracts": [],
      "isFixedGasLimit": false
    },
    {
      "hash": null,
      "transactionType": "CALL",
      "contractName": null,
      "contractAddress": "0x00000000fd8c4b8a413a06821456801295921a71",
      "function": "transferOwnership(address)",
      "arguments": [
        "0x1Ba19a54a01AE967f5E3895764Caaa6919FD2bEe"
      ],
      "transaction": {
        "from": "0x54f9b12743a7deec0ea48721683cbebedc6e17bc",
        "to": "0x00000000fd8c4b8a413a06821456801295921a71",
        "gas": "0xb86c",
        "value": "0x0",
        "input": "0xf2fde38b0000000000000000000000001ba19a54a01ae967f5e3895764caaa6919fd2bee",
        "nonce": "0x4a",
        "chainId": "0x1079",
        "feeToken": null,
        "calls": [],
        "keyType": null,
        "keyData": null
      },
      "additionalContracts": [],
      "isFixedGasLimit": false
    },
    {
      "hash": null,
      "transactionType": "CALL",
      "contractName": null,
      "contractAddress": "0x00000000883279097a49db1f2af954ead0c77e3c",
      "function": "setDelegate(address)",
      "arguments": [
        "0x1Ba19a54a01AE967f5E3895764Caaa6919FD2bEe"
      ],
      "transaction": {
        "from": "0x54f9b12743a7deec0ea48721683cbebedc6e17bc",
        "to": "0x00000000883279097a49db1f2af954ead0c77e3c",
        "gas": "0xd242",
        "value": "0x0",
        "input": "0xca5eb5e10000000000000000000000001ba19a54a01ae967f5e3895764caaa6919fd2bee",
        "nonce": "0x4b",
        "chainId": "0x1079",
        "feeToken": null,
        "calls": [],
        "keyType": null,
        "keyData": null
      },
      "additionalContracts": [],
      "isFixedGasLimit": false
    },
    {
      "hash": null,
      "transactionType": "CALL",
      "contractName": null,
      "contractAddress": "0x00000000883279097a49db1f2af954ead0c77e3c",
      "function": "transferOwnership(address)",
      "arguments": [
        "0x1Ba19a54a01AE967f5E3895764Caaa6919FD2bEe"
      ],
      "transaction": {
        "from": "0x54f9b12743a7deec0ea48721683cbebedc6e17bc",
        "to": "0x00000000883279097a49db1f2af954ead0c77e3c",
        "gas": "0xb86c",
        "value": "0x0",
        "input": "0xf2fde38b0000000000000000000000001ba19a54a01ae967f5e3895764caaa6919fd2bee",
        "nonce": "0x4c",
        "chainId": "0x1079",
        "feeToken": null,
        "calls": [],
        "keyType": null,
        "keyData": null
      },
      "additionalContracts": [],
      "isFixedGasLimit": false
    },
    {
      "hash": null,
      "transactionType": "CALL",
      "contractName": null,
      "contractAddress": "0x00000000d61733e7a393a10a5b48c311abe8f1e5",
      "function": "setDelegate(address)",
      "arguments": [
        "0x1Ba19a54a01AE967f5E3895764Caaa6919FD2bEe"
      ],
      "transaction": {
        "from": "0x54f9b12743a7deec0ea48721683cbebedc6e17bc",
        "to": "0x00000000d61733e7a393a10a5b48c311abe8f1e5",
        "gas": "0xd224",
        "value": "0x0",
        "input": "0xca5eb5e10000000000000000000000001ba19a54a01ae967f5e3895764caaa6919fd2bee",
        "nonce": "0x4d",
        "chainId": "0x1079",
        "feeToken": null,
        "calls": [],
        "keyType": null,
        "keyData": null
      },
      "additionalContracts": [],
      "isFixedGasLimit": false
    },
    {
      "hash": null,
      "transactionType": "CALL",
      "contractName": null,
      "contractAddress": "0x00000000d61733e7a393a10a5b48c311abe8f1e5",
      "function": "transferOwnership(address)",
      "arguments": [
        "0x1Ba19a54a01AE967f5E3895764Caaa6919FD2bEe"
      ],
      "transaction": {
        "from": "0x54f9b12743a7deec0ea48721683cbebedc6e17bc",
        "to": "0x00000000d61733e7a393a10a5b48c311abe8f1e5",
        "gas": "0xb832",
        "value": "0x0",
        "input": "0xf2fde38b0000000000000000000000001ba19a54a01ae967f5e3895764caaa6919fd2bee",
        "nonce": "0x4e",
        "chainId": "0x1079",
        "feeToken": null,
        "calls": [],
        "keyType": null,
        "keyData": null
      },
      "additionalContracts": [],
      "isFixedGasLimit": false
    },
    {
      "hash": null,
      "transactionType": "CALL",
      "contractName": null,
      "contractAddress": "0x000000008c3930dca540bb9b3a5d0ee78fca9a4c",
      "function": "setDelegate(address)",
      "arguments": [
        "0x1Ba19a54a01AE967f5E3895764Caaa6919FD2bEe"
      ],
      "transaction": {
        "from": "0x54f9b12743a7deec0ea48721683cbebedc6e17bc",
        "to": "0x000000008c3930dca540bb9b3a5d0ee78fca9a4c",
        "gas": "0xd242",
        "value": "0x0",
        "input": "0xca5eb5e10000000000000000000000001ba19a54a01ae967f5e3895764caaa6919fd2bee",
        "nonce": "0x4f",
        "chainId": "0x1079",
        "feeToken": null,
        "calls": [],
        "keyType": null,
        "keyData": null
      },
      "additionalContracts": [],
      "isFixedGasLimit": false
    },
    {
      "hash": null,
      "transactionType": "CALL",
      "contractName": null,
      "contractAddress": "0x000000008c3930dca540bb9b3a5d0ee78fca9a4c",
      "function": "transferOwnership(address)",
      "arguments": [
        "0x1Ba19a54a01AE967f5E3895764Caaa6919FD2bEe"
      ],
      "transaction": {
        "from": "0x54f9b12743a7deec0ea48721683cbebedc6e17bc",
        "to": "0x000000008c3930dca540bb9b3a5d0ee78fca9a4c",
        "gas": "0xb86c",
        "value": "0x0",
        "input": "0xf2fde38b0000000000000000000000001ba19a54a01ae967f5e3895764caaa6919fd2bee",
        "nonce": "0x50",
        "chainId": "0x1079",
        "feeToken": null,
        "calls": [],
        "keyType": null,
        "keyData": null
      },
      "additionalContracts": [],
      "isFixedGasLimit": false
    },
    {
      "hash": null,
      "transactionType": "CALL",
      "contractName": null,
      "contractAddress": "0x00000000bc4aef4ba6363a437455cb1af19e2aeb",
      "function": "setDelegate(address)",
      "arguments": [
        "0x1Ba19a54a01AE967f5E3895764Caaa6919FD2bEe"
      ],
      "transaction": {
        "from": "0x54f9b12743a7deec0ea48721683cbebedc6e17bc",
        "to": "0x00000000bc4aef4ba6363a437455cb1af19e2aeb",
        "gas": "0xd242",
        "value": "0x0",
        "input": "0xca5eb5e10000000000000000000000001ba19a54a01ae967f5e3895764caaa6919fd2bee",
        "nonce": "0x51",
        "chainId": "0x1079",
        "feeToken": null,
        "calls": [],
        "keyType": null,
        "keyData": null
      },
      "additionalContracts": [],
      "isFixedGasLimit": false
    },
    {
      "hash": null,
      "transactionType": "CALL",
      "contractName": null,
      "contractAddress": "0x00000000bc4aef4ba6363a437455cb1af19e2aeb",
      "function": "transferOwnership(address)",
      "arguments": [
        "0x1Ba19a54a01AE967f5E3895764Caaa6919FD2bEe"
      ],
      "transaction": {
        "from": "0x54f9b12743a7deec0ea48721683cbebedc6e17bc",
        "to": "0x00000000bc4aef4ba6363a437455cb1af19e2aeb",
        "gas": "0xb86c",
        "value": "0x0",
        "input": "0xf2fde38b0000000000000000000000001ba19a54a01ae967f5e3895764caaa6919fd2bee",
        "nonce": "0x52",
        "chainId": "0x1079",
        "feeToken": null,
        "calls": [],
        "keyType": null,
        "keyData": null
      },
      "additionalContracts": [],
      "isFixedGasLimit": false
    },
    {
      "hash": null,
      "transactionType": "CALL",
      "contractName": null,
      "contractAddress": "0x000000dbfaa1fb91ca46867ce6d41ab6da4f7428",
      "function": "transferOwnership(address)",
      "arguments": [
        "0x1Ba19a54a01AE967f5E3895764Caaa6919FD2bEe"
      ],
      "transaction": {
        "from": "0x54f9b12743a7deec0ea48721683cbebedc6e17bc",
        "to": "0x000000dbfaa1fb91ca46867ce6d41ab6da4f7428",
        "gas": "0x92fd",
        "value": "0x0",
        "input": "0xf2fde38b0000000000000000000000001ba19a54a01ae967f5e3895764caaa6919fd2bee",
        "nonce": "0x53",
        "chainId": "0x1079",
        "feeToken": null,
        "calls": [],
        "keyType": null,
        "keyData": null
      },
      "additionalContracts": [],
      "isFixedGasLimit": false
    }
  ],
  "receipts": [],
  "libraries": [],
  "pending": [],
  "returns": {},
  "timestamp": 1772692037872,
  "chain": 4217,
  "commit": "61b7ff9"
}