{
  "transactions": [
    {
      "hash": null,
      "transactionType": "CALL",
      "contractName": null,
      "contractAddress": "0x20fc000000000000000000000000000000000000",
      "function": "createToken(string,string,string,address,address)",
      "arguments": [
        "Frax USD",
        "frxUSD",
        "USD",
        "0x20C0000000000000000000000000000000000000",
        "0x0990be6dB8c785FBbF9deD8bAEc612A10CaE814b"
      ],
      "transaction": {
        "from": "0x9c9dd956b413cdbd81690c9394a6b4d22afe6745",
        "to": "0x20fc000000000000000000000000000000000000",
        "gas": "0x482b3",
        "value": "0x0",
        "input": "0xb395b9ac00000000000000000000000000000000000000000000000000000000000000a000000000000000000000000000000000000000000000000000000000000000e0000000000000000000000000000000000000000000000000000000000000012000000000000000000000000020c00000000000000000000000000000000000000000000000000000000000000990be6db8c785fbbf9ded8baec612a10cae814b000000000000000000000000000000000000000000000000000000000000000846726178205553440000000000000000000000000000000000000000000000000000000000000000000000000000000000000000000000000000000000000006667278555344000000000000000000000000000000000000000000000000000000000000000000000000000000000000000000000000000000000000000000035553440000000000000000000000000000000000000000000000000000000000",
        "nonce": "0xb",
        "chainId": "0xa5bd",
        "feeToken": null,
        "calls": [],
        "keyType": null,
        "keyData": null
      },
      "additionalContracts": [],
      "isFixedGasLimit": false
    }
  ],
  "receipts": [],
  "libraries": [],
  "pending": [],
  "returns": {},
  "timestamp": 1767111701371,
  "chain": 42429,
  "commit": "02ede4a"
}