{
  "transactions": [
    {
      "hash": "0xb7a64fd8dbf2063907cb01a58ef414f22276bb716fbd2b922571552190666a8c",
      "transactionType": "CALL",
      "contractName": null,
      "contractAddress": "0x64445f0aecc51e94ad52d8ac56b7190e764e561a",
      "function": "setEnforcedOptions((uint32,uint16,bytes)[])",
      "arguments": [
        "[(30255, 1, 0x00030100110100000000000000000000000000030d40), (30255, 2, 0x0003010011010000000000000000000000000003d090)]"
      ],
      "transaction": {
        "from": "0x0990be6db8c785fbbf9ded8baec612a10cae814b",
        "to": "0x64445f0aecc51e94ad52d8ac56b7190e764e561a",
        "gas": "0x1d9b6",
        "value": "0x0",
        "input": "0xb98bd07000000000000000000000000000000000000000000000000000000000000000200000000000000000000000000000000000000000000000000000000000000002000000000000000000000000000000000000000000000000000000000000004000000000000000000000000000000000000000000000000000000000000000e0000000000000000000000000000000000000000000000000000000000000762f00000000000000000000000000000000000000000000000000000000000000010000000000000000000000000000000000000000000000000000000000000060000000000000000000000000000000000000000000000000000000000000001600030100110100000000000000000000000000030d4000000000000000000000000000000000000000000000000000000000000000000000000000000000762f0000000000000000000000000000000000000000000000000000000000000002000000000000000000000000000000000000000000000000000000000000006000000000000000000000000000000000000000000000000000000000000000160003010011010000000000000000000000000003d09000000000000000000000",
        "nonce": "0x0",
        "chainId": "0x3dc"
      },
      "additionalContracts": [],
      "isFixedGasLimit": false
    },
    {
      "hash": "0xf6e6b74debf15424c849fa06abb3a79a0a43926095f51be1ba6b636d069db299",
      "transactionType": "CALL",
      "contractName": null,
      "contractAddress": "0x5bff88ca1442c2496f7e475e9e7786383bc070c0",
      "function": "setEnforcedOptions((uint32,uint16,bytes)[])",
      "arguments": [
        "[(30255, 1, 0x00030100110100000000000000000000000000030d40), (30255, 2, 0x0003010011010000000000000000000000000003d090)]"
      ],
      "transaction": {
        "from": "0x0990be6db8c785fbbf9ded8baec612a10cae814b",
        "to": "0x5bff88ca1442c2496f7e475e9e7786383bc070c0",
        "gas": "0x1d9b6",
        "value": "0x0",
        "input": "0xb98bd07000000000000000000000000000000000000000000000000000000000000000200000000000000000000000000000000000000000000000000000000000000002000000000000000000000000000000000000000000000000000000000000004000000000000000000000000000000000000000000000000000000000000000e0000000000000000000000000000000000000000000000000000000000000762f00000000000000000000000000000000000000000000000000000000000000010000000000000000000000000000000000000000000000000000000000000060000000000000000000000000000000000000000000000000000000000000001600030100110100000000000000000000000000030d4000000000000000000000000000000000000000000000000000000000000000000000000000000000762f0000000000000000000000000000000000000000000000000000000000000002000000000000000000000000000000000000000000000000000000000000006000000000000000000000000000000000000000000000000000000000000000160003010011010000000000000000000000000003d09000000000000000000000",
        "nonce": "0x1",
        "chainId": "0x3dc"
      },
      "additionalContracts": [],
      "isFixedGasLimit": false
    },
    {
      "hash": "0x51dd30b722b914ee34d28be63b5b181df5a505d91f5b80b4ce3363b0a40bb912",
      "transactionType": "CALL",
      "contractName": null,
      "contractAddress": "0x3ec3849c33291a9ef4c5db86de593eb4a37fde45",
      "function": "setEnforcedOptions((uint32,uint16,bytes)[])",
      "arguments": [
        "[(30255, 1, 0x00030100110100000000000000000000000000030d40), (30255, 2, 0x0003010011010000000000000000000000000003d090)]"
      ],
      "transaction": {
        "from": "0x0990be6db8c785fbbf9ded8baec612a10cae814b",
        "to": "0x3ec3849c33291a9ef4c5db86de593eb4a37fde45",
        "gas": "0x1d9b6",
        "value": "0x0",
        "input": "0xb98bd07000000000000000000000000000000000000000000000000000000000000000200000000000000000000000000000000000000000000000000000000000000002000000000000000000000000000000000000000000000000000000000000004000000000000000000000000000000000000000000000000000000000000000e0000000000000000000000000000000000000000000000000000000000000762f00000000000000000000000000000000000000000000000000000000000000010000000000000000000000000000000000000000000000000000000000000060000000000000000000000000000000000000000000000000000000000000001600030100110100000000000000000000000000030d4000000000000000000000000000000000000000000000000000000000000000000000000000000000762f0000000000000000000000000000000000000000000000000000000000000002000000000000000000000000000000000000000000000000000000000000006000000000000000000000000000000000000000000000000000000000000000160003010011010000000000000000000000000003d09000000000000000000000",
        "nonce": "0x2",
        "chainId": "0x3dc"
      },
      "additionalContracts": [],
      "isFixedGasLimit": false
    },
    {
      "hash": "0x15b66f45f0fe50ab31696795a0f1c0250a450c188c69bd5b667e84408b985c15",
      "transactionType": "CALL",
      "contractName": null,
      "contractAddress": "0x80eede496655fb9047dd39d9f418d5483ed600df",
      "function": "setEnforcedOptions((uint32,uint16,bytes)[])",
      "arguments": [
        "[(30255, 1, 0x00030100110100000000000000000000000000030d40), (30255, 2, 0x0003010011010000000000000000000000000003d090)]"
      ],
      "transaction": {
        "from": "0x0990be6db8c785fbbf9ded8baec612a10cae814b",
        "to": "0x80eede496655fb9047dd39d9f418d5483ed600df",
        "gas": "0x1da11",
        "value": "0x0",
        "input": "0xb98bd07000000000000000000000000000000000000000000000000000000000000000200000000000000000000000000000000000000000000000000000000000000002000000000000000000000000000000000000000000000000000000000000004000000000000000000000000000000000000000000000000000000000000000e0000000000000000000000000000000000000000000000000000000000000762f00000000000000000000000000000000000000000000000000000000000000010000000000000000000000000000000000000000000000000000000000000060000000000000000000000000000000000000000000000000000000000000001600030100110100000000000000000000000000030d4000000000000000000000000000000000000000000000000000000000000000000000000000000000762f0000000000000000000000000000000000000000000000000000000000000002000000000000000000000000000000000000000000000000000000000000006000000000000000000000000000000000000000000000000000000000000000160003010011010000000000000000000000000003d09000000000000000000000",
        "nonce": "0x3",
        "chainId": "0x3dc"
      },
      "additionalContracts": [],
      "isFixedGasLimit": false
    },
    {
      "hash": "0x3e5ffabfab18f32792649c0119f4a6767d0ec6e454fe213e0865d8718c3bed02",
      "transactionType": "CALL",
      "contractName": null,
      "contractAddress": "0x43edd7f3831b08fe70b7555ddd373c8bf65a9050",
      "function": "setEnforcedOptions((uint32,uint16,bytes)[])",
      "arguments": [
        "[(30255, 1, 0x00030100110100000000000000000000000000030d40), (30255, 2, 0x0003010011010000000000000000000000000003d090)]"
      ],
      "transaction": {
        "from": "0x0990be6db8c785fbbf9ded8baec612a10cae814b",
        "to": "0x43edd7f3831b08fe70b7555ddd373c8bf65a9050",
        "gas": "0x1d9b6",
        "value": "0x0",
        "input": "0xb98bd07000000000000000000000000000000000000000000000000000000000000000200000000000000000000000000000000000000000000000000000000000000002000000000000000000000000000000000000000000000000000000000000004000000000000000000000000000000000000000000000000000000000000000e0000000000000000000000000000000000000000000000000000000000000762f00000000000000000000000000000000000000000000000000000000000000010000000000000000000000000000000000000000000000000000000000000060000000000000000000000000000000000000000000000000000000000000001600030100110100000000000000000000000000030d4000000000000000000000000000000000000000000000000000000000000000000000000000000000762f0000000000000000000000000000000000000000000000000000000000000002000000000000000000000000000000000000000000000000000000000000006000000000000000000000000000000000000000000000000000000000000000160003010011010000000000000000000000000003d09000000000000000000000",
        "nonce": "0x4",
        "chainId": "0x3dc"
      },
      "additionalContracts": [],
      "isFixedGasLimit": false
    },
    {
      "hash": "0xe0358200783a8b786e180f6d7a365afb1d715fd96b92fb69ec67a04e4338a6ca",
      "transactionType": "CALL",
      "contractName": null,
      "contractAddress": "0x90581eca9469d8d7f5d3b60f4715027adfcf7927",
      "function": "setEnforcedOptions((uint32,uint16,bytes)[])",
      "arguments": [
        "[(30255, 1, 0x00030100110100000000000000000000000000030d40), (30255, 2, 0x0003010011010000000000000000000000000003d090)]"
      ],
      "transaction": {
        "from": "0x0990be6db8c785fbbf9ded8baec612a10cae814b",
        "to": "0x90581eca9469d8d7f5d3b60f4715027adfcf7927",
        "gas": "0x1d9b6",
        "value": "0x0",
        "input": "0xb98bd07000000000000000000000000000000000000000000000000000000000000000200000000000000000000000000000000000000000000000000000000000000002000000000000000000000000000000000000000000000000000000000000004000000000000000000000000000000000000000000000000000000000000000e0000000000000000000000000000000000000000000000000000000000000762f00000000000000000000000000000000000000000000000000000000000000010000000000000000000000000000000000000000000000000000000000000060000000000000000000000000000000000000000000000000000000000000001600030100110100000000000000000000000000030d4000000000000000000000000000000000000000000000000000000000000000000000000000000000762f0000000000000000000000000000000000000000000000000000000000000002000000000000000000000000000000000000000000000000000000000000006000000000000000000000000000000000000000000000000000000000000000160003010011010000000000000000000000000003d09000000000000000000000",
        "nonce": "0x5",
        "chainId": "0x3dc"
      },
      "additionalContracts": [],
      "isFixedGasLimit": false
    },
    {
      "hash": "0x8a2ebe06ce259673f716f8023c4ce8ba8f0fb7052fd63e3be58b5c20ec0cfa13",
      "transactionType": "CALL",
      "contractName": null,
      "contractAddress": "0x64445f0aecc51e94ad52d8ac56b7190e764e561a",
      "function": "setPeer(uint32,bytes32)",
      "arguments": [
        "30255",
        "0x000000000000000000000000d86fbbd0c8715d2c1f40e451e5c3514e65e7576a"
      ],
      "transaction": {
        "from": "0x0990be6db8c785fbbf9ded8baec612a10cae814b",
        "to": "0x64445f0aecc51e94ad52d8ac56b7190e764e561a",
        "gas": "0x13a65",
        "value": "0x0",
        "input": "0x3400288b000000000000000000000000000000000000000000000000000000000000762f000000000000000000000000d86fbbd0c8715d2c1f40e451e5c3514e65e7576a",
        "nonce": "0x6",
        "chainId": "0x3dc"
      },
      "additionalContracts": [],
      "isFixedGasLimit": false
    },
    {
      "hash": "0xd8aad3956fb04c5edfa25097f9294ba3b75e6349513fca8243e5b02b12618056",
      "transactionType": "CALL",
      "contractName": null,
      "contractAddress": "0x5bff88ca1442c2496f7e475e9e7786383bc070c0",
      "function": "setPeer(uint32,bytes32)",
      "arguments": [
        "30255",
        "0x00000000000000000000000088aa7854d3b2daa5e37e7ce73a1f39669623a361"
      ],
      "transaction": {
        "from": "0x0990be6db8c785fbbf9ded8baec612a10cae814b",
        "to": "0x5bff88ca1442c2496f7e475e9e7786383bc070c0",
        "gas": "0x13a65",
        "value": "0x0",
        "input": "0x3400288b000000000000000000000000000000000000000000000000000000000000762f00000000000000000000000088aa7854d3b2daa5e37e7ce73a1f39669623a361",
        "nonce": "0x7",
        "chainId": "0x3dc"
      },
      "additionalContracts": [],
      "isFixedGasLimit": false
    },
    {
      "hash": "0xd74346a73ab74b602b047ee8a0f75b404600f6581cee1d8e8812732341bb354b",
      "transactionType": "CALL",
      "contractName": null,
      "contractAddress": "0x3ec3849c33291a9ef4c5db86de593eb4a37fde45",
      "function": "setPeer(uint32,bytes32)",
      "arguments": [
        "30255",
        "0x000000000000000000000000999dfabe3b1cc2ef66eb032eea42fea329bba168"
      ],
      "transaction": {
        "from": "0x0990be6db8c785fbbf9ded8baec612a10cae814b",
        "to": "0x3ec3849c33291a9ef4c5db86de593eb4a37fde45",
        "gas": "0x13a65",
        "value": "0x0",
        "input": "0x3400288b000000000000000000000000000000000000000000000000000000000000762f000000000000000000000000999dfabe3b1cc2ef66eb032eea42fea329bba168",
        "nonce": "0x8",
        "chainId": "0x3dc"
      },
      "additionalContracts": [],
      "isFixedGasLimit": false
    },
    {
      "hash": "0x08b76c708b1234f2fc87dfb3d467230fbc80804c7118fec7061aeb6cb582a22d",
      "transactionType": "CALL",
      "contractName": null,
      "contractAddress": "0x80eede496655fb9047dd39d9f418d5483ed600df",
      "function": "setPeer(uint32,bytes32)",
      "arguments": [
        "30255",
        "0x00000000000000000000000096a394058e2b84a89bac9667b19661ed003cf5d4"
      ],
      "transaction": {
        "from": "0x0990be6db8c785fbbf9ded8baec612a10cae814b",
        "to": "0x80eede496655fb9047dd39d9f418d5483ed600df",
        "gas": "0x128be",
        "value": "0x0",
        "input": "0x3400288b000000000000000000000000000000000000000000000000000000000000762f00000000000000000000000096a394058e2b84a89bac9667b19661ed003cf5d4",
        "nonce": "0x9",
        "chainId": "0x3dc"
      },
      "additionalContracts": [],
      "isFixedGasLimit": false
    },
    {
      "hash": "0x5ed493992d4898211fa8e81baeda5c0334cc858de5a3b5fcfe110b476c0c9d07",
      "transactionType": "CALL",
      "contractName": null,
      "contractAddress": "0x43edd7f3831b08fe70b7555ddd373c8bf65a9050",
      "function": "setPeer(uint32,bytes32)",
      "arguments": [
        "30255",
        "0x0000000000000000000000009abfe1f8a999b0011ecd6116649aee8d575f5604"
      ],
      "transaction": {
        "from": "0x0990be6db8c785fbbf9ded8baec612a10cae814b",
        "to": "0x43edd7f3831b08fe70b7555ddd373c8bf65a9050",
        "gas": "0x13a65",
        "value": "0x0",
        "input": "0x3400288b000000000000000000000000000000000000000000000000000000000000762f0000000000000000000000009abfe1f8a999b0011ecd6116649aee8d575f5604",
        "nonce": "0xa",
        "chainId": "0x3dc"
      },
      "additionalContracts": [],
      "isFixedGasLimit": false
    },
    {
      "hash": "0x04eb5a2274f02595405e645a6e646a29a243110857429244f3600392ed9ca5e7",
      "transactionType": "CALL",
      "contractName": null,
      "contractAddress": "0x90581eca9469d8d7f5d3b60f4715027adfcf7927",
      "function": "setPeer(uint32,bytes32)",
      "arguments": [
        "30255",
        "0x00000000000000000000000075c38d46001b0f8108c4136216bd2694982c20fc"
      ],
      "transaction": {
        "from": "0x0990be6db8c785fbbf9ded8baec612a10cae814b",
        "to": "0x90581eca9469d8d7f5d3b60f4715027adfcf7927",
        "gas": "0x128dc",
        "value": "0x0",
        "input": "0x3400288b000000000000000000000000000000000000000000000000000000000000762f00000000000000000000000075c38d46001b0f8108c4136216bd2694982c20fc",
        "nonce": "0xb",
        "chainId": "0x3dc"
      },
      "additionalContracts": [],
      "isFixedGasLimit": false
    },
    {
      "hash": "0x5be3debce9fa1d9037c262bd6bd434d3884c968bf0e64cc93e3079fa204d9a10",
      "transactionType": "CALL",
      "contractName": null,
      "contractAddress": "0x6f475642a6e85809b1c36fa62763669b1b48dd5b",
      "function": "setConfig(address,address,(uint32,uint32,bytes)[])",
      "arguments": [
        "0x64445f0aecC51E94aD52d8AC56b7190e764E561a",
        "0x37aaaf95887624a363effB7762D489E3C05c2a02",
        "[(30255, 2, 0x0000000000000000000000000000000000000000000000000000000000000020000000000000000000000000000000000000000000000000000000000000000000000000000000000000000000000000000000000000000000000000000000030000000000000000000000000000000000000000000000000000000000000000000000000000000000000000000000000000000000000000000000000000000000000000000000000000000000000000000000000000000000000000000000c00000000000000000000000000000000000000000000000000000000000000140000000000000000000000000000000000000000000000000000000000000000300000000000000000000000045a7305c65aad28384f20a80f87a5183772e4f70000000000000000000000000965a80dc87cec5848310e612dead84b543aef8740000000000000000000000009c061c9a4782294eef65ef28cb88233a987f4bdd0000000000000000000000000000000000000000000000000000000000000000)]"
      ],
      "transaction": {
        "from": "0x0990be6db8c785fbbf9ded8baec612a10cae814b",
        "to": "0x6f475642a6e85809b1c36fa62763669b1b48dd5b",
        "gas": "0x36d34",
        "value": "0x0",
        "input": "0x6dbd9f9000000000000000000000000064445f0aecc51e94ad52d8ac56b7190e764e561a00000000000000000000000037aaaf95887624a363effb7762d489e3c05c2a02000000000000000000000000000000000000000000000000000000000000006000000000000000000000000000000000000000000000000000000000000000010000000000000000000000000000000000000000000000000000000000000020000000000000000000000000000000000000000000000000000000000000762f0000000000000000000000000000000000000000000000000000000000000002000000000000000000000000000000000000000000000000000000000000006000000000000000000000000000000000000000000000000000000000000001800000000000000000000000000000000000000000000000000000000000000020000000000000000000000000000000000000000000000000000000000000000000000000000000000000000000000000000000000000000000000000000000030000000000000000000000000000000000000000000000000000000000000000000000000000000000000000000000000000000000000000000000000000000000000000000000000000000000000000000000000000000000000000000000c00000000000000000000000000000000000000000000000000000000000000140000000000000000000000000000000000000000000000000000000000000000300000000000000000000000045a7305c65aad28384f20a80f87a5183772e4f70000000000000000000000000965a80dc87cec5848310e612dead84b543aef8740000000000000000000000009c061c9a4782294eef65ef28cb88233a987f4bdd0000000000000000000000000000000000000000000000000000000000000000",
        "nonce": "0xc",
        "chainId": "0x3dc"
      },
      "additionalContracts": [],
      "isFixedGasLimit": false
    },
    {
      "hash": "0xe9b55b089d63acf23e3315ad78d04106bd25bcb27927786a5c5fe43198f3cbe5",
      "transactionType": "CALL",
      "contractName": null,
      "contractAddress": "0x6f475642a6e85809b1c36fa62763669b1b48dd5b",
      "function": "setConfig(address,address,(uint32,uint32,bytes)[])",
      "arguments": [
        "0x64445f0aecC51E94aD52d8AC56b7190e764E561a",
        "0x15e51701F245F6D5bd0FEE87bCAf55B0841451B3",
        "[(30255, 2, 0x0000000000000000000000000000000000000000000000000000000000000020000000000000000000000000000000000000000000000000000000000000000000000000000000000000000000000000000000000000000000000000000000030000000000000000000000000000000000000000000000000000000000000000000000000000000000000000000000000000000000000000000000000000000000000000000000000000000000000000000000000000000000000000000000c00000000000000000000000000000000000000000000000000000000000000140000000000000000000000000000000000000000000000000000000000000000300000000000000000000000045a7305c65aad28384f20a80f87a5183772e4f70000000000000000000000000965a80dc87cec5848310e612dead84b543aef8740000000000000000000000009c061c9a4782294eef65ef28cb88233a987f4bdd0000000000000000000000000000000000000000000000000000000000000000)]"
      ],
      "transaction": {
        "from": "0x0990be6db8c785fbbf9ded8baec612a10cae814b",
        "to": "0x6f475642a6e85809b1c36fa62763669b1b48dd5b",
        "gas": "0x36be0",
        "value": "0x0",
        "input": "0x6dbd9f9000000000000000000000000064445f0aecc51e94ad52d8ac56b7190e764e561a00000000000000000000000015e51701f245f6d5bd0fee87bcaf55b0841451b3000000000000000000000000000000000000000000000000000000000000006000000000000000000000000000000000000000000000000000000000000000010000000000000000000000000000000000000000000000000000000000000020000000000000000000000000000000000000000000000000000000000000762f0000000000000000000000000000000000000000000000000000000000000002000000000000000000000000000000000000000000000000000000000000006000000000000000000000000000000000000000000000000000000000000001800000000000000000000000000000000000000000000000000000000000000020000000000000000000000000000000000000000000000000000000000000000000000000000000000000000000000000000000000000000000000000000000030000000000000000000000000000000000000000000000000000000000000000000000000000000000000000000000000000000000000000000000000000000000000000000000000000000000000000000000000000000000000000000000c00000000000000000000000000000000000000000000000000000000000000140000000000000000000000000000000000000000000000000000000000000000300000000000000000000000045a7305c65aad28384f20a80f87a5183772e4f70000000000000000000000000965a80dc87cec5848310e612dead84b543aef8740000000000000000000000009c061c9a4782294eef65ef28cb88233a987f4bdd0000000000000000000000000000000000000000000000000000000000000000",
        "nonce": "0xd",
        "chainId": "0x3dc"
      },
      "additionalContracts": [],
      "isFixedGasLimit": false
    },
    {
      "hash": "0x5cc2ee76d027f89dde896f1a5bed42e15722009870d628a07928e70667eae5e3",
      "transactionType": "CALL",
      "contractName": null,
      "contractAddress": "0x6f475642a6e85809b1c36fa62763669b1b48dd5b",
      "function": "setConfig(address,address,(uint32,uint32,bytes)[])",
      "arguments": [
        "0x5Bff88cA1442c2496f7E475E9e7786383Bc070c0",
        "0x37aaaf95887624a363effB7762D489E3C05c2a02",
        "[(30255, 2, 0x0000000000000000000000000000000000000000000000000000000000000020000000000000000000000000000000000000000000000000000000000000000000000000000000000000000000000000000000000000000000000000000000030000000000000000000000000000000000000000000000000000000000000000000000000000000000000000000000000000000000000000000000000000000000000000000000000000000000000000000000000000000000000000000000c00000000000000000000000000000000000000000000000000000000000000140000000000000000000000000000000000000000000000000000000000000000300000000000000000000000045a7305c65aad28384f20a80f87a5183772e4f70000000000000000000000000965a80dc87cec5848310e612dead84b543aef8740000000000000000000000009c061c9a4782294eef65ef28cb88233a987f4bdd0000000000000000000000000000000000000000000000000000000000000000)]"
      ],
      "transaction": {
        "from": "0x0990be6db8c785fbbf9ded8baec612a10cae814b",
        "to": "0x6f475642a6e85809b1c36fa62763669b1b48dd5b",
        "gas": "0x36d34",
        "value": "0x0",
        "input": "0x6dbd9f900000000000000000000000005bff88ca1442c2496f7e475e9e7786383bc070c000000000000000000000000037aaaf95887624a363effb7762d489e3c05c2a02000000000000000000000000000000000000000000000000000000000000006000000000000000000000000000000000000000000000000000000000000000010000000000000000000000000000000000000000000000000000000000000020000000000000000000000000000000000000000000000000000000000000762f0000000000000000000000000000000000000000000000000000000000000002000000000000000000000000000000000000000000000000000000000000006000000000000000000000000000000000000000000000000000000000000001800000000000000000000000000000000000000000000000000000000000000020000000000000000000000000000000000000000000000000000000000000000000000000000000000000000000000000000000000000000000000000000000030000000000000000000000000000000000000000000000000000000000000000000000000000000000000000000000000000000000000000000000000000000000000000000000000000000000000000000000000000000000000000000000c00000000000000000000000000000000000000000000000000000000000000140000000000000000000000000000000000000000000000000000000000000000300000000000000000000000045a7305c65aad28384f20a80f87a5183772e4f70000000000000000000000000965a80dc87cec5848310e612dead84b543aef8740000000000000000000000009c061c9a4782294eef65ef28cb88233a987f4bdd0000000000000000000000000000000000000000000000000000000000000000",
        "nonce": "0xe",
        "chainId": "0x3dc"
      },
      "additionalContracts": [],
      "isFixedGasLimit": false
    },
    {
      "hash": "0x60500ce717b1fbd90a47790c5a77bb372ae0f7eebd8c4838c2fd4808b4936b20",
      "transactionType": "CALL",
      "contractName": null,
      "contractAddress": "0x6f475642a6e85809b1c36fa62763669b1b48dd5b",
      "function": "setConfig(address,address,(uint32,uint32,bytes)[])",
      "arguments": [
        "0x5Bff88cA1442c2496f7E475E9e7786383Bc070c0",
        "0x15e51701F245F6D5bd0FEE87bCAf55B0841451B3",
        "[(30255, 2, 0x0000000000000000000000000000000000000000000000000000000000000020000000000000000000000000000000000000000000000000000000000000000000000000000000000000000000000000000000000000000000000000000000030000000000000000000000000000000000000000000000000000000000000000000000000000000000000000000000000000000000000000000000000000000000000000000000000000000000000000000000000000000000000000000000c00000000000000000000000000000000000000000000000000000000000000140000000000000000000000000000000000000000000000000000000000000000300000000000000000000000045a7305c65aad28384f20a80f87a5183772e4f70000000000000000000000000965a80dc87cec5848310e612dead84b543aef8740000000000000000000000009c061c9a4782294eef65ef28cb88233a987f4bdd0000000000000000000000000000000000000000000000000000000000000000)]"
      ],
      "transaction": {
        "from": "0x0990be6db8c785fbbf9ded8baec612a10cae814b",
        "to": "0x6f475642a6e85809b1c36fa62763669b1b48dd5b",
        "gas": "0x36be0",
        "value": "0x0",
        "input": "0x6dbd9f900000000000000000000000005bff88ca1442c2496f7e475e9e7786383bc070c000000000000000000000000015e51701f245f6d5bd0fee87bcaf55b0841451b3000000000000000000000000000000000000000000000000000000000000006000000000000000000000000000000000000000000000000000000000000000010000000000000000000000000000000000000000000000000000000000000020000000000000000000000000000000000000000000000000000000000000762f0000000000000000000000000000000000000000000000000000000000000002000000000000000000000000000000000000000000000000000000000000006000000000000000000000000000000000000000000000000000000000000001800000000000000000000000000000000000000000000000000000000000000020000000000000000000000000000000000000000000000000000000000000000000000000000000000000000000000000000000000000000000000000000000030000000000000000000000000000000000000000000000000000000000000000000000000000000000000000000000000000000000000000000000000000000000000000000000000000000000000000000000000000000000000000000000c00000000000000000000000000000000000000000000000000000000000000140000000000000000000000000000000000000000000000000000000000000000300000000000000000000000045a7305c65aad28384f20a80f87a5183772e4f70000000000000000000000000965a80dc87cec5848310e612dead84b543aef8740000000000000000000000009c061c9a4782294eef65ef28cb88233a987f4bdd0000000000000000000000000000000000000000000000000000000000000000",
        "nonce": "0xf",
        "chainId": "0x3dc"
      },
      "additionalContracts": [],
      "isFixedGasLimit": false
    },
    {
      "hash": "0xc53fa022b3d5a43344659671fe6f12677b51988cdf218aa3fc17113b144bc5e3",
      "transactionType": "CALL",
      "contractName": null,
      "contractAddress": "0x6f475642a6e85809b1c36fa62763669b1b48dd5b",
      "function": "setConfig(address,address,(uint32,uint32,bytes)[])",
      "arguments": [
        "0x3Ec3849C33291a9eF4c5dB86De593EB4A37fDe45",
        "0x37aaaf95887624a363effB7762D489E3C05c2a02",
        "[(30255, 2, 0x0000000000000000000000000000000000000000000000000000000000000020000000000000000000000000000000000000000000000000000000000000000000000000000000000000000000000000000000000000000000000000000000030000000000000000000000000000000000000000000000000000000000000000000000000000000000000000000000000000000000000000000000000000000000000000000000000000000000000000000000000000000000000000000000c00000000000000000000000000000000000000000000000000000000000000140000000000000000000000000000000000000000000000000000000000000000300000000000000000000000045a7305c65aad28384f20a80f87a5183772e4f70000000000000000000000000965a80dc87cec5848310e612dead84b543aef8740000000000000000000000009c061c9a4782294eef65ef28cb88233a987f4bdd0000000000000000000000000000000000000000000000000000000000000000)]"
      ],
      "transaction": {
        "from": "0x0990be6db8c785fbbf9ded8baec612a10cae814b",
        "to": "0x6f475642a6e85809b1c36fa62763669b1b48dd5b",
        "gas": "0x36d34",
        "value": "0x0",
        "input": "0x6dbd9f900000000000000000000000003ec3849c33291a9ef4c5db86de593eb4a37fde4500000000000000000000000037aaaf95887624a363effb7762d489e3c05c2a02000000000000000000000000000000000000000000000000000000000000006000000000000000000000000000000000000000000000000000000000000000010000000000000000000000000000000000000000000000000000000000000020000000000000000000000000000000000000000000000000000000000000762f0000000000000000000000000000000000000000000000000000000000000002000000000000000000000000000000000000000000000000000000000000006000000000000000000000000000000000000000000000000000000000000001800000000000000000000000000000000000000000000000000000000000000020000000000000000000000000000000000000000000000000000000000000000000000000000000000000000000000000000000000000000000000000000000030000000000000000000000000000000000000000000000000000000000000000000000000000000000000000000000000000000000000000000000000000000000000000000000000000000000000000000000000000000000000000000000c00000000000000000000000000000000000000000000000000000000000000140000000000000000000000000000000000000000000000000000000000000000300000000000000000000000045a7305c65aad28384f20a80f87a5183772e4f70000000000000000000000000965a80dc87cec5848310e612dead84b543aef8740000000000000000000000009c061c9a4782294eef65ef28cb88233a987f4bdd0000000000000000000000000000000000000000000000000000000000000000",
        "nonce": "0x10",
        "chainId": "0x3dc"
      },
      "additionalContracts": [],
      "isFixedGasLimit": false
    },
    {
      "hash": "0xf2612677591475abb7e7f80d34fd2eb9179405d8d26b8a88884d73c9b4e9bc3e",
      "transactionType": "CALL",
      "contractName": null,
      "contractAddress": "0x6f475642a6e85809b1c36fa62763669b1b48dd5b",
      "function": "setConfig(address,address,(uint32,uint32,bytes)[])",
      "arguments": [
        "0x3Ec3849C33291a9eF4c5dB86De593EB4A37fDe45",
        "0x15e51701F245F6D5bd0FEE87bCAf55B0841451B3",
        "[(30255, 2, 0x0000000000000000000000000000000000000000000000000000000000000020000000000000000000000000000000000000000000000000000000000000000000000000000000000000000000000000000000000000000000000000000000030000000000000000000000000000000000000000000000000000000000000000000000000000000000000000000000000000000000000000000000000000000000000000000000000000000000000000000000000000000000000000000000c00000000000000000000000000000000000000000000000000000000000000140000000000000000000000000000000000000000000000000000000000000000300000000000000000000000045a7305c65aad28384f20a80f87a5183772e4f70000000000000000000000000965a80dc87cec5848310e612dead84b543aef8740000000000000000000000009c061c9a4782294eef65ef28cb88233a987f4bdd0000000000000000000000000000000000000000000000000000000000000000)]"
      ],
      "transaction": {
        "from": "0x0990be6db8c785fbbf9ded8baec612a10cae814b",
        "to": "0x6f475642a6e85809b1c36fa62763669b1b48dd5b",
        "gas": "0x36be0",
        "value": "0x0",
        "input": "0x6dbd9f900000000000000000000000003ec3849c33291a9ef4c5db86de593eb4a37fde4500000000000000000000000015e51701f245f6d5bd0fee87bcaf55b0841451b3000000000000000000000000000000000000000000000000000000000000006000000000000000000000000000000000000000000000000000000000000000010000000000000000000000000000000000000000000000000000000000000020000000000000000000000000000000000000000000000000000000000000762f0000000000000000000000000000000000000000000000000000000000000002000000000000000000000000000000000000000000000000000000000000006000000000000000000000000000000000000000000000000000000000000001800000000000000000000000000000000000000000000000000000000000000020000000000000000000000000000000000000000000000000000000000000000000000000000000000000000000000000000000000000000000000000000000030000000000000000000000000000000000000000000000000000000000000000000000000000000000000000000000000000000000000000000000000000000000000000000000000000000000000000000000000000000000000000000000c00000000000000000000000000000000000000000000000000000000000000140000000000000000000000000000000000000000000000000000000000000000300000000000000000000000045a7305c65aad28384f20a80f87a5183772e4f70000000000000000000000000965a80dc87cec5848310e612dead84b543aef8740000000000000000000000009c061c9a4782294eef65ef28cb88233a987f4bdd0000000000000000000000000000000000000000000000000000000000000000",
        "nonce": "0x11",
        "chainId": "0x3dc"
      },
      "additionalContracts": [],
      "isFixedGasLimit": false
    },
    {
      "hash": "0x43a68e30bbfa7224f75968139af29cea510176d581020917fb4f83f2ab5eba91",
      "transactionType": "CALL",
      "contractName": null,
      "contractAddress": "0x6f475642a6e85809b1c36fa62763669b1b48dd5b",
      "function": "setConfig(address,address,(uint32,uint32,bytes)[])",
      "arguments": [
        "0x80Eede496655FB9047dd39d9f418d5483ED600df",
        "0x37aaaf95887624a363effB7762D489E3C05c2a02",
        "[(30255, 2, 0x0000000000000000000000000000000000000000000000000000000000000020000000000000000000000000000000000000000000000000000000000000000000000000000000000000000000000000000000000000000000000000000000030000000000000000000000000000000000000000000000000000000000000000000000000000000000000000000000000000000000000000000000000000000000000000000000000000000000000000000000000000000000000000000000c00000000000000000000000000000000000000000000000000000000000000140000000000000000000000000000000000000000000000000000000000000000300000000000000000000000045a7305c65aad28384f20a80f87a5183772e4f70000000000000000000000000965a80dc87cec5848310e612dead84b543aef8740000000000000000000000009c061c9a4782294eef65ef28cb88233a987f4bdd0000000000000000000000000000000000000000000000000000000000000000)]"
      ],
      "transaction": {
        "from": "0x0990be6db8c785fbbf9ded8baec612a10cae814b",
        "to": "0x6f475642a6e85809b1c36fa62763669b1b48dd5b",
        "gas": "0x3a0bd",
        "value": "0x0",
        "input": "0x6dbd9f9000000000000000000000000080eede496655fb9047dd39d9f418d5483ed600df00000000000000000000000037aaaf95887624a363effb7762d489e3c05c2a02000000000000000000000000000000000000000000000000000000000000006000000000000000000000000000000000000000000000000000000000000000010000000000000000000000000000000000000000000000000000000000000020000000000000000000000000000000000000000000000000000000000000762f0000000000000000000000000000000000000000000000000000000000000002000000000000000000000000000000000000000000000000000000000000006000000000000000000000000000000000000000000000000000000000000001800000000000000000000000000000000000000000000000000000000000000020000000000000000000000000000000000000000000000000000000000000000000000000000000000000000000000000000000000000000000000000000000030000000000000000000000000000000000000000000000000000000000000000000000000000000000000000000000000000000000000000000000000000000000000000000000000000000000000000000000000000000000000000000000c00000000000000000000000000000000000000000000000000000000000000140000000000000000000000000000000000000000000000000000000000000000300000000000000000000000045a7305c65aad28384f20a80f87a5183772e4f70000000000000000000000000965a80dc87cec5848310e612dead84b543aef8740000000000000000000000009c061c9a4782294eef65ef28cb88233a987f4bdd0000000000000000000000000000000000000000000000000000000000000000",
        "nonce": "0x12",
        "chainId": "0x3dc"
      },
      "additionalContracts": [],
      "isFixedGasLimit": false
    },
    {
      "hash": "0x297ed42cec2adafdf23ad6d6725bb6b5e802d0d33644983410a0bb03f3f503b5",
      "transactionType": "CALL",
      "contractName": null,
      "contractAddress": "0x6f475642a6e85809b1c36fa62763669b1b48dd5b",
      "function": "setConfig(address,address,(uint32,uint32,bytes)[])",
      "arguments": [
        "0x80Eede496655FB9047dd39d9f418d5483ED600df",
        "0x15e51701F245F6D5bd0FEE87bCAf55B0841451B3",
        "[(30255, 2, 0x0000000000000000000000000000000000000000000000000000000000000020000000000000000000000000000000000000000000000000000000000000000000000000000000000000000000000000000000000000000000000000000000030000000000000000000000000000000000000000000000000000000000000000000000000000000000000000000000000000000000000000000000000000000000000000000000000000000000000000000000000000000000000000000000c00000000000000000000000000000000000000000000000000000000000000140000000000000000000000000000000000000000000000000000000000000000300000000000000000000000045a7305c65aad28384f20a80f87a5183772e4f70000000000000000000000000965a80dc87cec5848310e612dead84b543aef8740000000000000000000000009c061c9a4782294eef65ef28cb88233a987f4bdd0000000000000000000000000000000000000000000000000000000000000000)]"
      ],
      "transaction": {
        "from": "0x0990be6db8c785fbbf9ded8baec612a10cae814b",
        "to": "0x6f475642a6e85809b1c36fa62763669b1b48dd5b",
        "gas": "0x39f54",
        "value": "0x0",
        "input": "0x6dbd9f9000000000000000000000000080eede496655fb9047dd39d9f418d5483ed600df00000000000000000000000015e51701f245f6d5bd0fee87bcaf55b0841451b3000000000000000000000000000000000000000000000000000000000000006000000000000000000000000000000000000000000000000000000000000000010000000000000000000000000000000000000000000000000000000000000020000000000000000000000000000000000000000000000000000000000000762f0000000000000000000000000000000000000000000000000000000000000002000000000000000000000000000000000000000000000000000000000000006000000000000000000000000000000000000000000000000000000000000001800000000000000000000000000000000000000000000000000000000000000020000000000000000000000000000000000000000000000000000000000000000000000000000000000000000000000000000000000000000000000000000000030000000000000000000000000000000000000000000000000000000000000000000000000000000000000000000000000000000000000000000000000000000000000000000000000000000000000000000000000000000000000000000000c00000000000000000000000000000000000000000000000000000000000000140000000000000000000000000000000000000000000000000000000000000000300000000000000000000000045a7305c65aad28384f20a80f87a5183772e4f70000000000000000000000000965a80dc87cec5848310e612dead84b543aef8740000000000000000000000009c061c9a4782294eef65ef28cb88233a987f4bdd0000000000000000000000000000000000000000000000000000000000000000",
        "nonce": "0x13",
        "chainId": "0x3dc"
      },
      "additionalContracts": [],
      "isFixedGasLimit": false
    },
    {
      "hash": "0xf60c9416839a57447ed5ecae6ebaa71d2ed56f2b85efcb0853793967bbea7e1f",
      "transactionType": "CALL",
      "contractName": null,
      "contractAddress": "0x6f475642a6e85809b1c36fa62763669b1b48dd5b",
      "function": "setConfig(address,address,(uint32,uint32,bytes)[])",
      "arguments": [
        "0x43eDD7f3831b08FE70B7555ddD373C8bF65a9050",
        "0x37aaaf95887624a363effB7762D489E3C05c2a02",
        "[(30255, 2, 0x0000000000000000000000000000000000000000000000000000000000000020000000000000000000000000000000000000000000000000000000000000000000000000000000000000000000000000000000000000000000000000000000030000000000000000000000000000000000000000000000000000000000000000000000000000000000000000000000000000000000000000000000000000000000000000000000000000000000000000000000000000000000000000000000c00000000000000000000000000000000000000000000000000000000000000140000000000000000000000000000000000000000000000000000000000000000300000000000000000000000045a7305c65aad28384f20a80f87a5183772e4f70000000000000000000000000965a80dc87cec5848310e612dead84b543aef8740000000000000000000000009c061c9a4782294eef65ef28cb88233a987f4bdd0000000000000000000000000000000000000000000000000000000000000000)]"
      ],
      "transaction": {
        "from": "0x0990be6db8c785fbbf9ded8baec612a10cae814b",
        "to": "0x6f475642a6e85809b1c36fa62763669b1b48dd5b",
        "gas": "0x36d34",
        "value": "0x0",
        "input": "0x6dbd9f9000000000000000000000000043edd7f3831b08fe70b7555ddd373c8bf65a905000000000000000000000000037aaaf95887624a363effb7762d489e3c05c2a02000000000000000000000000000000000000000000000000000000000000006000000000000000000000000000000000000000000000000000000000000000010000000000000000000000000000000000000000000000000000000000000020000000000000000000000000000000000000000000000000000000000000762f0000000000000000000000000000000000000000000000000000000000000002000000000000000000000000000000000000000000000000000000000000006000000000000000000000000000000000000000000000000000000000000001800000000000000000000000000000000000000000000000000000000000000020000000000000000000000000000000000000000000000000000000000000000000000000000000000000000000000000000000000000000000000000000000030000000000000000000000000000000000000000000000000000000000000000000000000000000000000000000000000000000000000000000000000000000000000000000000000000000000000000000000000000000000000000000000c00000000000000000000000000000000000000000000000000000000000000140000000000000000000000000000000000000000000000000000000000000000300000000000000000000000045a7305c65aad28384f20a80f87a5183772e4f70000000000000000000000000965a80dc87cec5848310e612dead84b543aef8740000000000000000000000009c061c9a4782294eef65ef28cb88233a987f4bdd0000000000000000000000000000000000000000000000000000000000000000",
        "nonce": "0x14",
        "chainId": "0x3dc"
      },
      "additionalContracts": [],
      "isFixedGasLimit": false
    },
    {
      "hash": "0x42f6aa90824a6a7f189a0414cb93d33534bf8acdf1ab8737cfb74b7b93b77870",
      "transactionType": "CALL",
      "contractName": null,
      "contractAddress": "0x6f475642a6e85809b1c36fa62763669b1b48dd5b",
      "function": "setConfig(address,address,(uint32,uint32,bytes)[])",
      "arguments": [
        "0x43eDD7f3831b08FE70B7555ddD373C8bF65a9050",
        "0x15e51701F245F6D5bd0FEE87bCAf55B0841451B3",
        "[(30255, 2, 0x0000000000000000000000000000000000000000000000000000000000000020000000000000000000000000000000000000000000000000000000000000000000000000000000000000000000000000000000000000000000000000000000030000000000000000000000000000000000000000000000000000000000000000000000000000000000000000000000000000000000000000000000000000000000000000000000000000000000000000000000000000000000000000000000c00000000000000000000000000000000000000000000000000000000000000140000000000000000000000000000000000000000000000000000000000000000300000000000000000000000045a7305c65aad28384f20a80f87a5183772e4f70000000000000000000000000965a80dc87cec5848310e612dead84b543aef8740000000000000000000000009c061c9a4782294eef65ef28cb88233a987f4bdd0000000000000000000000000000000000000000000000000000000000000000)]"
      ],
      "transaction": {
        "from": "0x0990be6db8c785fbbf9ded8baec612a10cae814b",
        "to": "0x6f475642a6e85809b1c36fa62763669b1b48dd5b",
        "gas": "0x36be0",
        "value": "0x0",
        "input": "0x6dbd9f9000000000000000000000000043edd7f3831b08fe70b7555ddd373c8bf65a905000000000000000000000000015e51701f245f6d5bd0fee87bcaf55b0841451b3000000000000000000000000000000000000000000000000000000000000006000000000000000000000000000000000000000000000000000000000000000010000000000000000000000000000000000000000000000000000000000000020000000000000000000000000000000000000000000000000000000000000762f0000000000000000000000000000000000000000000000000000000000000002000000000000000000000000000000000000000000000000000000000000006000000000000000000000000000000000000000000000000000000000000001800000000000000000000000000000000000000000000000000000000000000020000000000000000000000000000000000000000000000000000000000000000000000000000000000000000000000000000000000000000000000000000000030000000000000000000000000000000000000000000000000000000000000000000000000000000000000000000000000000000000000000000000000000000000000000000000000000000000000000000000000000000000000000000000c00000000000000000000000000000000000000000000000000000000000000140000000000000000000000000000000000000000000000000000000000000000300000000000000000000000045a7305c65aad28384f20a80f87a5183772e4f70000000000000000000000000965a80dc87cec5848310e612dead84b543aef8740000000000000000000000009c061c9a4782294eef65ef28cb88233a987f4bdd0000000000000000000000000000000000000000000000000000000000000000",
        "nonce": "0x15",
        "chainId": "0x3dc"
      },
      "additionalContracts": [],
      "isFixedGasLimit": false
    },
    {
      "hash": "0xe5adc9ff1b86127099db78e9b87ba4158e99a1e4384f8761a20cd654315a2e18",
      "transactionType": "CALL",
      "contractName": null,
      "contractAddress": "0x6f475642a6e85809b1c36fa62763669b1b48dd5b",
      "function": "setConfig(address,address,(uint32,uint32,bytes)[])",
      "arguments": [
        "0x90581eCa9469D8D7F5D3B60f4715027aDFCf7927",
        "0x37aaaf95887624a363effB7762D489E3C05c2a02",
        "[(30255, 2, 0x0000000000000000000000000000000000000000000000000000000000000020000000000000000000000000000000000000000000000000000000000000000000000000000000000000000000000000000000000000000000000000000000030000000000000000000000000000000000000000000000000000000000000000000000000000000000000000000000000000000000000000000000000000000000000000000000000000000000000000000000000000000000000000000000c00000000000000000000000000000000000000000000000000000000000000140000000000000000000000000000000000000000000000000000000000000000300000000000000000000000045a7305c65aad28384f20a80f87a5183772e4f70000000000000000000000000965a80dc87cec5848310e612dead84b543aef8740000000000000000000000009c061c9a4782294eef65ef28cb88233a987f4bdd0000000000000000000000000000000000000000000000000000000000000000)]"
      ],
      "transaction": {
        "from": "0x0990be6db8c785fbbf9ded8baec612a10cae814b",
        "to": "0x6f475642a6e85809b1c36fa62763669b1b48dd5b",
        "gas": "0x36d34",
        "value": "0x0",
        "input": "0x6dbd9f9000000000000000000000000090581eca9469d8d7f5d3b60f4715027adfcf792700000000000000000000000037aaaf95887624a363effb7762d489e3c05c2a02000000000000000000000000000000000000000000000000000000000000006000000000000000000000000000000000000000000000000000000000000000010000000000000000000000000000000000000000000000000000000000000020000000000000000000000000000000000000000000000000000000000000762f0000000000000000000000000000000000000000000000000000000000000002000000000000000000000000000000000000000000000000000000000000006000000000000000000000000000000000000000000000000000000000000001800000000000000000000000000000000000000000000000000000000000000020000000000000000000000000000000000000000000000000000000000000000000000000000000000000000000000000000000000000000000000000000000030000000000000000000000000000000000000000000000000000000000000000000000000000000000000000000000000000000000000000000000000000000000000000000000000000000000000000000000000000000000000000000000c00000000000000000000000000000000000000000000000000000000000000140000000000000000000000000000000000000000000000000000000000000000300000000000000000000000045a7305c65aad28384f20a80f87a5183772e4f70000000000000000000000000965a80dc87cec5848310e612dead84b543aef8740000000000000000000000009c061c9a4782294eef65ef28cb88233a987f4bdd0000000000000000000000000000000000000000000000000000000000000000",
        "nonce": "0x16",
        "chainId": "0x3dc"
      },
      "additionalContracts": [],
      "isFixedGasLimit": false
    },
    {
      "hash": "0x45ee1d5957e7065de3832527cada447bc9e2b4697ff2273c10682c4965e87d90",
      "transactionType": "CALL",
      "contractName": null,
      "contractAddress": "0x6f475642a6e85809b1c36fa62763669b1b48dd5b",
      "function": "setConfig(address,address,(uint32,uint32,bytes)[])",
      "arguments": [
        "0x90581eCa9469D8D7F5D3B60f4715027aDFCf7927",
        "0x15e51701F245F6D5bd0FEE87bCAf55B0841451B3",
        "[(30255, 2, 0x0000000000000000000000000000000000000000000000000000000000000020000000000000000000000000000000000000000000000000000000000000000000000000000000000000000000000000000000000000000000000000000000030000000000000000000000000000000000000000000000000000000000000000000000000000000000000000000000000000000000000000000000000000000000000000000000000000000000000000000000000000000000000000000000c00000000000000000000000000000000000000000000000000000000000000140000000000000000000000000000000000000000000000000000000000000000300000000000000000000000045a7305c65aad28384f20a80f87a5183772e4f70000000000000000000000000965a80dc87cec5848310e612dead84b543aef8740000000000000000000000009c061c9a4782294eef65ef28cb88233a987f4bdd0000000000000000000000000000000000000000000000000000000000000000)]"
      ],
      "transaction": {
        "from": "0x0990be6db8c785fbbf9ded8baec612a10cae814b",
        "to": "0x6f475642a6e85809b1c36fa62763669b1b48dd5b",
        "gas": "0x36be0",
        "value": "0x0",
        "input": "0x6dbd9f9000000000000000000000000090581eca9469d8d7f5d3b60f4715027adfcf792700000000000000000000000015e51701f245f6d5bd0fee87bcaf55b0841451b3000000000000000000000000000000000000000000000000000000000000006000000000000000000000000000000000000000000000000000000000000000010000000000000000000000000000000000000000000000000000000000000020000000000000000000000000000000000000000000000000000000000000762f0000000000000000000000000000000000000000000000000000000000000002000000000000000000000000000000000000000000000000000000000000006000000000000000000000000000000000000000000000000000000000000001800000000000000000000000000000000000000000000000000000000000000020000000000000000000000000000000000000000000000000000000000000000000000000000000000000000000000000000000000000000000000000000000030000000000000000000000000000000000000000000000000000000000000000000000000000000000000000000000000000000000000000000000000000000000000000000000000000000000000000000000000000000000000000000000c00000000000000000000000000000000000000000000000000000000000000140000000000000000000000000000000000000000000000000000000000000000300000000000000000000000045a7305c65aad28384f20a80f87a5183772e4f70000000000000000000000000965a80dc87cec5848310e612dead84b543aef8740000000000000000000000009c061c9a4782294eef65ef28cb88233a987f4bdd0000000000000000000000000000000000000000000000000000000000000000",
        "nonce": "0x17",
        "chainId": "0x3dc"
      },
      "additionalContracts": [],
      "isFixedGasLimit": false
    },
    {
      "hash": "0xe8f56b55566d3b10fa191e7ff72dd27e04b337a072e2d56258918622d9ecc2e8",
      "transactionType": "CALL",
      "contractName": null,
      "contractAddress": "0x6f475642a6e85809b1c36fa62763669b1b48dd5b",
      "function": "setSendLibrary(address,uint32,address)",
      "arguments": [
        "0x64445f0aecC51E94aD52d8AC56b7190e764E561a",
        "30255",
        "0x37aaaf95887624a363effB7762D489E3C05c2a02"
      ],
      "transaction": {
        "from": "0x0990be6db8c785fbbf9ded8baec612a10cae814b",
        "to": "0x6f475642a6e85809b1c36fa62763669b1b48dd5b",
        "gas": "0x1378b",
        "value": "0x0",
        "input": "0x9535ff3000000000000000000000000064445f0aecc51e94ad52d8ac56b7190e764e561a000000000000000000000000000000000000000000000000000000000000762f00000000000000000000000037aaaf95887624a363effb7762d489e3c05c2a02",
        "nonce": "0x18",
        "chainId": "0x3dc"
      },
      "additionalContracts": [],
      "isFixedGasLimit": false
    },
    {
      "hash": "0xb5f62d6aa0d5eaaa46f00422b091c0ed8213b5bdfa8d1ee9084d250fc50aae2d",
      "transactionType": "CALL",
      "contractName": null,
      "contractAddress": "0x6f475642a6e85809b1c36fa62763669b1b48dd5b",
      "function": "setReceiveLibrary(address,uint32,address,uint256)",
      "arguments": [
        "0x64445f0aecC51E94aD52d8AC56b7190e764E561a",
        "30255",
        "0x15e51701F245F6D5bd0FEE87bCAf55B0841451B3",
        "0"
      ],
      "transaction": {
        "from": "0x0990be6db8c785fbbf9ded8baec612a10cae814b",
        "to": "0x6f475642a6e85809b1c36fa62763669b1b48dd5b",
        "gas": "0x17001",
        "value": "0x0",
        "input": "0x6a14d71500000000000000000000000064445f0aecc51e94ad52d8ac56b7190e764e561a000000000000000000000000000000000000000000000000000000000000762f00000000000000000000000015e51701f245f6d5bd0fee87bcaf55b0841451b30000000000000000000000000000000000000000000000000000000000000000",
        "nonce": "0x19",
        "chainId": "0x3dc"
      },
      "additionalContracts": [],
      "isFixedGasLimit": false
    },
    {
      "hash": "0x7914733b1c877d33c8b862024c5c4613bff37b4de50859c95f872cbd9a0fb82b",
      "transactionType": "CALL",
      "contractName": null,
      "contractAddress": "0x6f475642a6e85809b1c36fa62763669b1b48dd5b",
      "function": "setSendLibrary(address,uint32,address)",
      "arguments": [
        "0x5Bff88cA1442c2496f7E475E9e7786383Bc070c0",
        "30255",
        "0x37aaaf95887624a363effB7762D489E3C05c2a02"
      ],
      "transaction": {
        "from": "0x0990be6db8c785fbbf9ded8baec612a10cae814b",
        "to": "0x6f475642a6e85809b1c36fa62763669b1b48dd5b",
        "gas": "0x1378b",
        "value": "0x0",
        "input": "0x9535ff300000000000000000000000005bff88ca1442c2496f7e475e9e7786383bc070c0000000000000000000000000000000000000000000000000000000000000762f00000000000000000000000037aaaf95887624a363effb7762d489e3c05c2a02",
        "nonce": "0x1a",
        "chainId": "0x3dc"
      },
      "additionalContracts": [],
      "isFixedGasLimit": false
    },
    {
      "hash": "0xc374f3583e589fd29cb091b6d3abfb2345cb0c05d40dad73a9dac5a630e24782",
      "transactionType": "CALL",
      "contractName": null,
      "contractAddress": "0x6f475642a6e85809b1c36fa62763669b1b48dd5b",
      "function": "setReceiveLibrary(address,uint32,address,uint256)",
      "arguments": [
        "0x5Bff88cA1442c2496f7E475E9e7786383Bc070c0",
        "30255",
        "0x15e51701F245F6D5bd0FEE87bCAf55B0841451B3",
        "0"
      ],
      "transaction": {
        "from": "0x0990be6db8c785fbbf9ded8baec612a10cae814b",
        "to": "0x6f475642a6e85809b1c36fa62763669b1b48dd5b",
        "gas": "0x17001",
        "value": "0x0",
        "input": "0x6a14d7150000000000000000000000005bff88ca1442c2496f7e475e9e7786383bc070c0000000000000000000000000000000000000000000000000000000000000762f00000000000000000000000015e51701f245f6d5bd0fee87bcaf55b0841451b30000000000000000000000000000000000000000000000000000000000000000",
        "nonce": "0x1b",
        "chainId": "0x3dc"
      },
      "additionalContracts": [],
      "isFixedGasLimit": false
    },
    {
      "hash": "0xf482f1be79f3ea1b7579129a526656c6edda85876500319430b4db894f33d5a9",
      "transactionType": "CALL",
      "contractName": null,
      "contractAddress": "0x6f475642a6e85809b1c36fa62763669b1b48dd5b",
      "function": "setSendLibrary(address,uint32,address)",
      "arguments": [
        "0x3Ec3849C33291a9eF4c5dB86De593EB4A37fDe45",
        "30255",
        "0x37aaaf95887624a363effB7762D489E3C05c2a02"
      ],
      "transaction": {
        "from": "0x0990be6db8c785fbbf9ded8baec612a10cae814b",
        "to": "0x6f475642a6e85809b1c36fa62763669b1b48dd5b",
        "gas": "0x1378b",
        "value": "0x0",
        "input": "0x9535ff300000000000000000000000003ec3849c33291a9ef4c5db86de593eb4a37fde45000000000000000000000000000000000000000000000000000000000000762f00000000000000000000000037aaaf95887624a363effb7762d489e3c05c2a02",
        "nonce": "0x1c",
        "chainId": "0x3dc"
      },
      "additionalContracts": [],
      "isFixedGasLimit": false
    },
    {
      "hash": "0x987c91fe04b8812a4fe177bf0d8539a7725651015f06392c1bfd69f649bec85a",
      "transactionType": "CALL",
      "contractName": null,
      "contractAddress": "0x6f475642a6e85809b1c36fa62763669b1b48dd5b",
      "function": "setReceiveLibrary(address,uint32,address,uint256)",
      "arguments": [
        "0x3Ec3849C33291a9eF4c5dB86De593EB4A37fDe45",
        "30255",
        "0x15e51701F245F6D5bd0FEE87bCAf55B0841451B3",
        "0"
      ],
      "transaction": {
        "from": "0x0990be6db8c785fbbf9ded8baec612a10cae814b",
        "to": "0x6f475642a6e85809b1c36fa62763669b1b48dd5b",
        "gas": "0x17001",
        "value": "0x0",
        "input": "0x6a14d7150000000000000000000000003ec3849c33291a9ef4c5db86de593eb4a37fde45000000000000000000000000000000000000000000000000000000000000762f00000000000000000000000015e51701f245f6d5bd0fee87bcaf55b0841451b30000000000000000000000000000000000000000000000000000000000000000",
        "nonce": "0x1d",
        "chainId": "0x3dc"
      },
      "additionalContracts": [],
      "isFixedGasLimit": false
    },
    {
      "hash": "0xe30156fe5d391ec2acc779ad8b909fbde5c42f720198df4fe4ddcb4577595e64",
      "transactionType": "CALL",
      "contractName": null,
      "contractAddress": "0x6f475642a6e85809b1c36fa62763669b1b48dd5b",
      "function": "setSendLibrary(address,uint32,address)",
      "arguments": [
        "0x80Eede496655FB9047dd39d9f418d5483ED600df",
        "30255",
        "0x37aaaf95887624a363effB7762D489E3C05c2a02"
      ],
      "transaction": {
        "from": "0x0990be6db8c785fbbf9ded8baec612a10cae814b",
        "to": "0x6f475642a6e85809b1c36fa62763669b1b48dd5b",
        "gas": "0x149cd",
        "value": "0x0",
        "input": "0x9535ff3000000000000000000000000080eede496655fb9047dd39d9f418d5483ed600df000000000000000000000000000000000000000000000000000000000000762f00000000000000000000000037aaaf95887624a363effb7762d489e3c05c2a02",
        "nonce": "0x1e",
        "chainId": "0x3dc"
      },
      "additionalContracts": [],
      "isFixedGasLimit": false
    },
    {
      "hash": "0xb810487234dee4b83d382fc4a0659935cbdd55431af29c639ae77064bb4f8e98",
      "transactionType": "CALL",
      "contractName": null,
      "contractAddress": "0x6f475642a6e85809b1c36fa62763669b1b48dd5b",
      "function": "setReceiveLibrary(address,uint32,address,uint256)",
      "arguments": [
        "0x80Eede496655FB9047dd39d9f418d5483ED600df",
        "30255",
        "0x15e51701F245F6D5bd0FEE87bCAf55B0841451B3",
        "0"
      ],
      "transaction": {
        "from": "0x0990be6db8c785fbbf9ded8baec612a10cae814b",
        "to": "0x6f475642a6e85809b1c36fa62763669b1b48dd5b",
        "gas": "0x15b7f",
        "value": "0x0",
        "input": "0x6a14d71500000000000000000000000080eede496655fb9047dd39d9f418d5483ed600df000000000000000000000000000000000000000000000000000000000000762f00000000000000000000000015e51701f245f6d5bd0fee87bcaf55b0841451b30000000000000000000000000000000000000000000000000000000000000000",
        "nonce": "0x1f",
        "chainId": "0x3dc"
      },
      "additionalContracts": [],
      "isFixedGasLimit": false
    },
    {
      "hash": "0x27ae142206127fc7d7d5868ebfbfb8adbcf494784f30e326f676210cd1604470",
      "transactionType": "CALL",
      "contractName": null,
      "contractAddress": "0x6f475642a6e85809b1c36fa62763669b1b48dd5b",
      "function": "setSendLibrary(address,uint32,address)",
      "arguments": [
        "0x43eDD7f3831b08FE70B7555ddD373C8bF65a9050",
        "30255",
        "0x37aaaf95887624a363effB7762D489E3C05c2a02"
      ],
      "transaction": {
        "from": "0x0990be6db8c785fbbf9ded8baec612a10cae814b",
        "to": "0x6f475642a6e85809b1c36fa62763669b1b48dd5b",
        "gas": "0x1378b",
        "value": "0x0",
        "input": "0x9535ff3000000000000000000000000043edd7f3831b08fe70b7555ddd373c8bf65a9050000000000000000000000000000000000000000000000000000000000000762f00000000000000000000000037aaaf95887624a363effb7762d489e3c05c2a02",
        "nonce": "0x20",
        "chainId": "0x3dc"
      },
      "additionalContracts": [],
      "isFixedGasLimit": false
    },
    {
      "hash": "0x8f3c676f9f7209c9bb05d5eee64264cce9af8b5c365859189b35f453018745f7",
      "transactionType": "CALL",
      "contractName": null,
      "contractAddress": "0x6f475642a6e85809b1c36fa62763669b1b48dd5b",
      "function": "setReceiveLibrary(address,uint32,address,uint256)",
      "arguments": [
        "0x43eDD7f3831b08FE70B7555ddD373C8bF65a9050",
        "30255",
        "0x15e51701F245F6D5bd0FEE87bCAf55B0841451B3",
        "0"
      ],
      "transaction": {
        "from": "0x0990be6db8c785fbbf9ded8baec612a10cae814b",
        "to": "0x6f475642a6e85809b1c36fa62763669b1b48dd5b",
        "gas": "0x17001",
        "value": "0x0",
        "input": "0x6a14d71500000000000000000000000043edd7f3831b08fe70b7555ddd373c8bf65a9050000000000000000000000000000000000000000000000000000000000000762f00000000000000000000000015e51701f245f6d5bd0fee87bcaf55b0841451b30000000000000000000000000000000000000000000000000000000000000000",
        "nonce": "0x21",
        "chainId": "0x3dc"
      },
      "additionalContracts": [],
      "isFixedGasLimit": false
    },
    {
      "hash": "0x2d701d8f28e20d68a74d569bf8e7a04c762ff15f0186d4c46878d5717968378b",
      "transactionType": "CALL",
      "contractName": null,
      "contractAddress": "0x6f475642a6e85809b1c36fa62763669b1b48dd5b",
      "function": "setSendLibrary(address,uint32,address)",
      "arguments": [
        "0x90581eCa9469D8D7F5D3B60f4715027aDFCf7927",
        "30255",
        "0x37aaaf95887624a363effB7762D489E3C05c2a02"
      ],
      "transaction": {
        "from": "0x0990be6db8c785fbbf9ded8baec612a10cae814b",
        "to": "0x6f475642a6e85809b1c36fa62763669b1b48dd5b",
        "gas": "0x1378b",
        "value": "0x0",
        "input": "0x9535ff3000000000000000000000000090581eca9469d8d7f5d3b60f4715027adfcf7927000000000000000000000000000000000000000000000000000000000000762f00000000000000000000000037aaaf95887624a363effb7762d489e3c05c2a02",
        "nonce": "0x22",
        "chainId": "0x3dc"
      },
      "additionalContracts": [],
      "isFixedGasLimit": false
    },
    {
      "hash": "0xeb682425e0cf99bb00c4cb77b8186e3d76aa422351f3b3fc1537d9134380bbba",
      "transactionType": "CALL",
      "contractName": null,
      "contractAddress": "0x6f475642a6e85809b1c36fa62763669b1b48dd5b",
      "function": "setReceiveLibrary(address,uint32,address,uint256)",
      "arguments": [
        "0x90581eCa9469D8D7F5D3B60f4715027aDFCf7927",
        "30255",
        "0x15e51701F245F6D5bd0FEE87bCAf55B0841451B3",
        "0"
      ],
      "transaction": {
        "from": "0x0990be6db8c785fbbf9ded8baec612a10cae814b",
        "to": "0x6f475642a6e85809b1c36fa62763669b1b48dd5b",
        "gas": "0x17001",
        "value": "0x0",
        "input": "0x6a14d71500000000000000000000000090581eca9469d8d7f5d3b60f4715027adfcf7927000000000000000000000000000000000000000000000000000000000000762f00000000000000000000000015e51701f245f6d5bd0fee87bcaf55b0841451b30000000000000000000000000000000000000000000000000000000000000000",
        "nonce": "0x23",
        "chainId": "0x3dc"
      },
      "additionalContracts": [],
      "isFixedGasLimit": false
    },
    {
      "hash": "0x161b1636044e385cf2a30c959f4d82e14bfddbda549a5a019414ccd4a99895d0",
      "transactionType": "CALL",
      "contractName": null,
      "contractAddress": "0x64445f0aecc51e94ad52d8ac56b7190e764e561a",
      "function": "setDelegate(address)",
      "arguments": [
        "0x0C46f54BF9EF8fd58e2D294b8cEA488204EcB3D8"
      ],
      "transaction": {
        "from": "0x0990be6db8c785fbbf9ded8baec612a10cae814b",
        "to": "0x64445f0aecc51e94ad52d8ac56b7190e764e561a",
        "gas": "0xdd73",
        "value": "0x0",
        "input": "0xca5eb5e10000000000000000000000000c46f54bf9ef8fd58e2d294b8cea488204ecb3d8",
        "nonce": "0x24",
        "chainId": "0x3dc"
      },
      "additionalContracts": [],
      "isFixedGasLimit": false
    },
    {
      "hash": "0x4d03571eafb479433f0cefa3f53e9e7aa0525370bad503375c525bb1ee151879",
      "transactionType": "CALL",
      "contractName": null,
      "contractAddress": "0x64445f0aecc51e94ad52d8ac56b7190e764e561a",
      "function": "transferOwnership(address)",
      "arguments": [
        "0x0C46f54BF9EF8fd58e2D294b8cEA488204EcB3D8"
      ],
      "transaction": {
        "from": "0x0990be6db8c785fbbf9ded8baec612a10cae814b",
        "to": "0x64445f0aecc51e94ad52d8ac56b7190e764e561a",
        "gas": "0xc1df",
        "value": "0x0",
        "input": "0xf2fde38b0000000000000000000000000c46f54bf9ef8fd58e2d294b8cea488204ecb3d8",
        "nonce": "0x25",
        "chainId": "0x3dc"
      },
      "additionalContracts": [],
      "isFixedGasLimit": false
    },
    {
      "hash": "0x83b1a2c3541c9aa76ea5ec9b5f845ebf3b3a74e1cf203bb26abe5a950ada34fc",
      "transactionType": "CALL",
      "contractName": null,
      "contractAddress": "0x5bff88ca1442c2496f7e475e9e7786383bc070c0",
      "function": "setDelegate(address)",
      "arguments": [
        "0x0C46f54BF9EF8fd58e2D294b8cEA488204EcB3D8"
      ],
      "transaction": {
        "from": "0x0990be6db8c785fbbf9ded8baec612a10cae814b",
        "to": "0x5bff88ca1442c2496f7e475e9e7786383bc070c0",
        "gas": "0xdd73",
        "value": "0x0",
        "input": "0xca5eb5e10000000000000000000000000c46f54bf9ef8fd58e2d294b8cea488204ecb3d8",
        "nonce": "0x26",
        "chainId": "0x3dc"
      },
      "additionalContracts": [],
      "isFixedGasLimit": false
    },
    {
      "hash": "0xd90eb6f3e60f4d48c8d88a792dbdc9d3d2f2a548c2e1494e24cafbadaebaeadb",
      "transactionType": "CALL",
      "contractName": null,
      "contractAddress": "0x5bff88ca1442c2496f7e475e9e7786383bc070c0",
      "function": "transferOwnership(address)",
      "arguments": [
        "0x0C46f54BF9EF8fd58e2D294b8cEA488204EcB3D8"
      ],
      "transaction": {
        "from": "0x0990be6db8c785fbbf9ded8baec612a10cae814b",
        "to": "0x5bff88ca1442c2496f7e475e9e7786383bc070c0",
        "gas": "0xc1df",
        "value": "0x0",
        "input": "0xf2fde38b0000000000000000000000000c46f54bf9ef8fd58e2d294b8cea488204ecb3d8",
        "nonce": "0x27",
        "chainId": "0x3dc"
      },
      "additionalContracts": [],
      "isFixedGasLimit": false
    },
    {
      "hash": "0xa6a53b76e217ef90c05f8bf040e14fb7f5b21fa2c6deeae8966e1937691827fa",
      "transactionType": "CALL",
      "contractName": null,
      "contractAddress": "0x3ec3849c33291a9ef4c5db86de593eb4a37fde45",
      "function": "setDelegate(address)",
      "arguments": [
        "0x0C46f54BF9EF8fd58e2D294b8cEA488204EcB3D8"
      ],
      "transaction": {
        "from": "0x0990be6db8c785fbbf9ded8baec612a10cae814b",
        "to": "0x3ec3849c33291a9ef4c5db86de593eb4a37fde45",
        "gas": "0xdd73",
        "value": "0x0",
        "input": "0xca5eb5e10000000000000000000000000c46f54bf9ef8fd58e2d294b8cea488204ecb3d8",
        "nonce": "0x28",
        "chainId": "0x3dc"
      },
      "additionalContracts": [],
      "isFixedGasLimit": false
    },
    {
      "hash": "0xa63c5074fa7f07cc17d137a70f97894ca5a1a45898fb40165a9d2899fa89fc17",
      "transactionType": "CALL",
      "contractName": null,
      "contractAddress": "0x3ec3849c33291a9ef4c5db86de593eb4a37fde45",
      "function": "transferOwnership(address)",
      "arguments": [
        "0x0C46f54BF9EF8fd58e2D294b8cEA488204EcB3D8"
      ],
      "transaction": {
        "from": "0x0990be6db8c785fbbf9ded8baec612a10cae814b",
        "to": "0x3ec3849c33291a9ef4c5db86de593eb4a37fde45",
        "gas": "0xc1df",
        "value": "0x0",
        "input": "0xf2fde38b0000000000000000000000000c46f54bf9ef8fd58e2d294b8cea488204ecb3d8",
        "nonce": "0x29",
        "chainId": "0x3dc"
      },
      "additionalContracts": [],
      "isFixedGasLimit": false
    },
    {
      "hash": "0xa821e98bdf7d8e8fe0f19cb10c4191990b3d6aa6ea62dcb3c29d9ce578dd6107",
      "transactionType": "CALL",
      "contractName": null,
      "contractAddress": "0x80eede496655fb9047dd39d9f418d5483ed600df",
      "function": "setDelegate(address)",
      "arguments": [
        "0x0C46f54BF9EF8fd58e2D294b8cEA488204EcB3D8"
      ],
      "transaction": {
        "from": "0x0990be6db8c785fbbf9ded8baec612a10cae814b",
        "to": "0x80eede496655fb9047dd39d9f418d5483ed600df",
        "gas": "0xdd35",
        "value": "0x0",
        "input": "0xca5eb5e10000000000000000000000000c46f54bf9ef8fd58e2d294b8cea488204ecb3d8",
        "nonce": "0x2a",
        "chainId": "0x3dc"
      },
      "additionalContracts": [],
      "isFixedGasLimit": false
    },
    {
      "hash": "0x7e0b2ec39512683f22b6fb4d85f624d8a54d8b71f4c920059c363bf160c510e0",
      "transactionType": "CALL",
      "contractName": null,
      "contractAddress": "0x80eede496655fb9047dd39d9f418d5483ed600df",
      "function": "transferOwnership(address)",
      "arguments": [
        "0x0C46f54BF9EF8fd58e2D294b8cEA488204EcB3D8"
      ],
      "transaction": {
        "from": "0x0990be6db8c785fbbf9ded8baec612a10cae814b",
        "to": "0x80eede496655fb9047dd39d9f418d5483ed600df",
        "gas": "0xcd67",
        "value": "0x0",
        "input": "0xf2fde38b0000000000000000000000000c46f54bf9ef8fd58e2d294b8cea488204ecb3d8",
        "nonce": "0x2b",
        "chainId": "0x3dc"
      },
      "additionalContracts": [],
      "isFixedGasLimit": false
    },
    {
      "hash": "0x5581230837d883c61e42c4bcda3ad2da51c965ad713d002db30ede8776963828",
      "transactionType": "CALL",
      "contractName": null,
      "contractAddress": "0x43edd7f3831b08fe70b7555ddd373c8bf65a9050",
      "function": "setDelegate(address)",
      "arguments": [
        "0x0C46f54BF9EF8fd58e2D294b8cEA488204EcB3D8"
      ],
      "transaction": {
        "from": "0x0990be6db8c785fbbf9ded8baec612a10cae814b",
        "to": "0x43edd7f3831b08fe70b7555ddd373c8bf65a9050",
        "gas": "0xdd73",
        "value": "0x0",
        "input": "0xca5eb5e10000000000000000000000000c46f54bf9ef8fd58e2d294b8cea488204ecb3d8",
        "nonce": "0x2c",
        "chainId": "0x3dc"
      },
      "additionalContracts": [],
      "isFixedGasLimit": false
    },
    {
      "hash": "0xea9a6962ce3af821ad44a06de943b52766c281eb56e404d11660c4eaf4ed15ce",
      "transactionType": "CALL",
      "contractName": null,
      "contractAddress": "0x43edd7f3831b08fe70b7555ddd373c8bf65a9050",
      "function": "transferOwnership(address)",
      "arguments": [
        "0x0C46f54BF9EF8fd58e2D294b8cEA488204EcB3D8"
      ],
      "transaction": {
        "from": "0x0990be6db8c785fbbf9ded8baec612a10cae814b",
        "to": "0x43edd7f3831b08fe70b7555ddd373c8bf65a9050",
        "gas": "0xc1df",
        "value": "0x0",
        "input": "0xf2fde38b0000000000000000000000000c46f54bf9ef8fd58e2d294b8cea488204ecb3d8",
        "nonce": "0x2d",
        "chainId": "0x3dc"
      },
      "additionalContracts": [],
      "isFixedGasLimit": false
    },
    {
      "hash": "0x1bfd6cc0a752cabe95a0d8ff3e1eb8c6a7445cd01e5dd759bba3b0c1f23aee2e",
      "transactionType": "CALL",
      "contractName": null,
      "contractAddress": "0x90581eca9469d8d7f5d3b60f4715027adfcf7927",
      "function": "setDelegate(address)",
      "arguments": [
        "0x0C46f54BF9EF8fd58e2D294b8cEA488204EcB3D8"
      ],
      "transaction": {
        "from": "0x0990be6db8c785fbbf9ded8baec612a10cae814b",
        "to": "0x90581eca9469d8d7f5d3b60f4715027adfcf7927",
        "gas": "0xdd73",
        "value": "0x0",
        "input": "0xca5eb5e10000000000000000000000000c46f54bf9ef8fd58e2d294b8cea488204ecb3d8",
        "nonce": "0x2e",
        "chainId": "0x3dc"
      },
      "additionalContracts": [],
      "isFixedGasLimit": false
    },
    {
      "hash": "0x7eb3d67d427ca3b22440a19faa7751d555f1d7c60c625ab3f9b2239b8bcf0c98",
      "transactionType": "CALL",
      "contractName": null,
      "contractAddress": "0x90581eca9469d8d7f5d3b60f4715027adfcf7927",
      "function": "transferOwnership(address)",
      "arguments": [
        "0x0C46f54BF9EF8fd58e2D294b8cEA488204EcB3D8"
      ],
      "transaction": {
        "from": "0x0990be6db8c785fbbf9ded8baec612a10cae814b",
        "to": "0x90581eca9469d8d7f5d3b60f4715027adfcf7927",
        "gas": "0xc1df",
        "value": "0x0",
        "input": "0xf2fde38b0000000000000000000000000c46f54bf9ef8fd58e2d294b8cea488204ecb3d8",
        "nonce": "0x2f",
        "chainId": "0x3dc"
      },
      "additionalContracts": [],
      "isFixedGasLimit": false
    },
    {
      "hash": "0x9084f4ab274eb6c3f9afd00384ca9b154b2e2bc282960340808f6f537584a6e3",
      "transactionType": "CALL",
      "contractName": null,
      "contractAddress": "0x223a681fc5c5522c85c96157c0efa18cd6c5405c",
      "function": "transferOwnership(address)",
      "arguments": [
        "0x0C46f54BF9EF8fd58e2D294b8cEA488204EcB3D8"
      ],
      "transaction": {
        "from": "0x0990be6db8c785fbbf9ded8baec612a10cae814b",
        "to": "0x223a681fc5c5522c85c96157c0efa18cd6c5405c",
        "gas": "0x9a4d",
        "value": "0x0",
        "input": "0xf2fde38b0000000000000000000000000c46f54bf9ef8fd58e2d294b8cea488204ecb3d8",
        "nonce": "0x30",
        "chainId": "0x3dc"
      },
      "additionalContracts": [],
      "isFixedGasLimit": false
    }
  ],
  "receipts": [
    {
      "status": "0x1",
      "cumulativeGasUsed": "0x156f6",
      "logs": [
        {
          "address": "0x64445f0aecc51e94ad52d8ac56b7190e764e561a",
          "topics": [
            "0xbe4864a8e820971c0247f5992e2da559595f7bf076a21cb5928d443d2a13b674"
          ],
          "data": "0x00000000000000000000000000000000000000000000000000000000000000200000000000000000000000000000000000000000000000000000000000000002000000000000000000000000000000000000000000000000000000000000004000000000000000000000000000000000000000000000000000000000000000e0000000000000000000000000000000000000000000000000000000000000762f00000000000000000000000000000000000000000000000000000000000000010000000000000000000000000000000000000000000000000000000000000060000000000000000000000000000000000000000000000000000000000000001600030100110100000000000000000000000000030d4000000000000000000000000000000000000000000000000000000000000000000000000000000000762f0000000000000000000000000000000000000000000000000000000000000002000000000000000000000000000000000000000000000000000000000000006000000000000000000000000000000000000000000000000000000000000000160003010011010000000000000000000000000003d09000000000000000000000",
          "blockHash": "0x2bf3a2ad8693ccdb04eb1b233fb62e5c112f89f3f6ea6e1e196eb5a7d74be418",
          "blockNumber": "0x1eb7e3",
          "transactionHash": "0xb7a64fd8dbf2063907cb01a58ef414f22276bb716fbd2b922571552190666a8c",
          "transactionIndex": "0x0",
          "logIndex": "0x0",
          "removed": false
        }
      ],
      "logsBloom": "0x00000000000000000000000000000000000000000000000000000000000000000000000000000000000000000000000000000000000000000000400000000000002000000000000000000000000000000000000000000000000000000000000000000000000000000000000000000000000000000000000000000000000000000000000000000000000000000000000000000000000000000000000000080000000000000000000000000008000000000000000000000000000000000000000000000000000000000000000002000000000000000000000000000000000000000000000000000000000000000000000000000008000000000000000000000000",
      "type": "0x2",
      "transactionHash": "0xb7a64fd8dbf2063907cb01a58ef414f22276bb716fbd2b922571552190666a8c",
      "transactionIndex": "0x0",
      "blockHash": "0x2bf3a2ad8693ccdb04eb1b233fb62e5c112f89f3f6ea6e1e196eb5a7d74be418",
      "blockNumber": "0x1eb7e3",
      "gasUsed": "0x156f6",
      "effectiveGasPrice": "0x0",
      "from": "0x0990be6db8c785fbbf9ded8baec612a10cae814b",
      "to": "0x64445f0aecc51e94ad52d8ac56b7190e764e561a",
      "contractAddress": null
    },
    {
      "status": "0x1",
      "cumulativeGasUsed": "0x156f6",
      "logs": [
        {
          "address": "0x5bff88ca1442c2496f7e475e9e7786383bc070c0",
          "topics": [
            "0xbe4864a8e820971c0247f5992e2da559595f7bf076a21cb5928d443d2a13b674"
          ],
          "data": "0x00000000000000000000000000000000000000000000000000000000000000200000000000000000000000000000000000000000000000000000000000000002000000000000000000000000000000000000000000000000000000000000004000000000000000000000000000000000000000000000000000000000000000e0000000000000000000000000000000000000000000000000000000000000762f00000000000000000000000000000000000000000000000000000000000000010000000000000000000000000000000000000000000000000000000000000060000000000000000000000000000000000000000000000000000000000000001600030100110100000000000000000000000000030d4000000000000000000000000000000000000000000000000000000000000000000000000000000000762f0000000000000000000000000000000000000000000000000000000000000002000000000000000000000000000000000000000000000000000000000000006000000000000000000000000000000000000000000000000000000000000000160003010011010000000000000000000000000003d09000000000000000000000",
          "blockHash": "0xbeb4db52a5c39e9e2fc21e672fa1273946b673f1660c8258eb2b9ab94873e678",
          "blockNumber": "0x1eb7e8",
          "transactionHash": "0xf6e6b74debf15424c849fa06abb3a79a0a43926095f51be1ba6b636d069db299",
          "transactionIndex": "0x0",
          "logIndex": "0x0",
          "removed": false
        }
      ],
      "logsBloom": "0x00000000000000000000000000000000000000000000000000000000000000000000000000000000000000000000000000000000000000000000400000000000000000000000000000000000000000000000000000000000000000000000000000000000000000000000000000000000000000000000000000000000000000000000000000000000000000000000000000000000000000000000000000080000000000000000000000000000000000000000000000000000000000000010000000000000000000000000000002000000000000800000000000000000000000000000000000000000000000000000000000000000000000000000000000000800",
      "type": "0x2",
      "transactionHash": "0xf6e6b74debf15424c849fa06abb3a79a0a43926095f51be1ba6b636d069db299",
      "transactionIndex": "0x0",
      "blockHash": "0xbeb4db52a5c39e9e2fc21e672fa1273946b673f1660c8258eb2b9ab94873e678",
      "blockNumber": "0x1eb7e8",
      "gasUsed": "0x156f6",
      "effectiveGasPrice": "0x0",
      "from": "0x0990be6db8c785fbbf9ded8baec612a10cae814b",
      "to": "0x5bff88ca1442c2496f7e475e9e7786383bc070c0",
      "contractAddress": null
    },
    {
      "status": "0x1",
      "cumulativeGasUsed": "0x156f6",
      "logs": [
        {
          "address": "0x3ec3849c33291a9ef4c5db86de593eb4a37fde45",
          "topics": [
            "0xbe4864a8e820971c0247f5992e2da559595f7bf076a21cb5928d443d2a13b674"
          ],
          "data": "0x00000000000000000000000000000000000000000000000000000000000000200000000000000000000000000000000000000000000000000000000000000002000000000000000000000000000000000000000000000000000000000000004000000000000000000000000000000000000000000000000000000000000000e0000000000000000000000000000000000000000000000000000000000000762f00000000000000000000000000000000000000000000000000000000000000010000000000000000000000000000000000000000000000000000000000000060000000000000000000000000000000000000000000000000000000000000001600030100110100000000000000000000000000030d4000000000000000000000000000000000000000000000000000000000000000000000000000000000762f0000000000000000000000000000000000000000000000000000000000000002000000000000000000000000000000000000000000000000000000000000006000000000000000000000000000000000000000000000000000000000000000160003010011010000000000000000000000000003d09000000000000000000000",
          "blockHash": "0x68110da61694935e4a90b86bd3b877d7ad06637619a745cfbbf8cff90987553c",
          "blockNumber": "0x1eb7ec",
          "transactionHash": "0x51dd30b722b914ee34d28be63b5b181df5a505d91f5b80b4ce3363b0a40bb912",
          "transactionIndex": "0x0",
          "logIndex": "0x0",
          "removed": false
        }
      ],
      "logsBloom": "0x00000000000000000000000000002000000000000000000000000000000000000000000000000000000000000000000000000000000000000000400000000000000000000000000000000000000000000000000000000000000000000000000000000000000000000000000000000000000000000000000000000000000000000000000000000000000000000000000000000000000020000040000000080000000000000000000000000000000000000000000000000000000000000000000000000000000000000000000002000000000000000000000000000000000000000000000000000000000000000000000000000000000000000000000000000000",
      "type": "0x2",
      "transactionHash": "0x51dd30b722b914ee34d28be63b5b181df5a505d91f5b80b4ce3363b0a40bb912",
      "transactionIndex": "0x0",
      "blockHash": "0x68110da61694935e4a90b86bd3b877d7ad06637619a745cfbbf8cff90987553c",
      "blockNumber": "0x1eb7ec",
      "gasUsed": "0x156f6",
      "effectiveGasPrice": "0x0",
      "from": "0x0990be6db8c785fbbf9ded8baec612a10cae814b",
      "to": "0x3ec3849c33291a9ef4c5db86de593eb4a37fde45",
      "contractAddress": null
    },
    {
      "status": "0x1",
      "cumulativeGasUsed": "0x15738",
      "logs": [
        {
          "address": "0x80eede496655fb9047dd39d9f418d5483ed600df",
          "topics": [
            "0xbe4864a8e820971c0247f5992e2da559595f7bf076a21cb5928d443d2a13b674"
          ],
          "data": "0x00000000000000000000000000000000000000000000000000000000000000200000000000000000000000000000000000000000000000000000000000000002000000000000000000000000000000000000000000000000000000000000004000000000000000000000000000000000000000000000000000000000000000e0000000000000000000000000000000000000000000000000000000000000762f00000000000000000000000000000000000000000000000000000000000000010000000000000000000000000000000000000000000000000000000000000060000000000000000000000000000000000000000000000000000000000000001600030100110100000000000000000000000000030d4000000000000000000000000000000000000000000000000000000000000000000000000000000000762f0000000000000000000000000000000000000000000000000000000000000002000000000000000000000000000000000000000000000000000000000000006000000000000000000000000000000000000000000000000000000000000000160003010011010000000000000000000000000003d09000000000000000000000",
          "blockHash": "0xfacafdb1f07e2da6d818afbf111c8fd00ca6716312dd2dec38102f1eb3a657e1",
          "blockNumber": "0x1eb7ef",
          "transactionHash": "0x15b66f45f0fe50ab31696795a0f1c0250a450c188c69bd5b667e84408b985c15",
          "transactionIndex": "0x0",
          "logIndex": "0x0",
          "removed": false
        }
      ],
      "logsBloom": "0x00000000000000000000000000000000000000000000000000000000000000000000000000000000000000000800000000000000000000000000400200000000000000000000000000000000000000000000000000000000000000000000000000000000000000000000000000000000000000000000000000000000010000000000000000000000000000000000000000000000000000000000000000080000000000000000000000000000000000000000000000000000000000000000000000000000000000000000000002000000000000000000000000000000000000000000000000000000000000000000000000000000000000000000000000000000",
      "type": "0x2",
      "transactionHash": "0x15b66f45f0fe50ab31696795a0f1c0250a450c188c69bd5b667e84408b985c15",
      "transactionIndex": "0x0",
      "blockHash": "0xfacafdb1f07e2da6d818afbf111c8fd00ca6716312dd2dec38102f1eb3a657e1",
      "blockNumber": "0x1eb7ef",
      "gasUsed": "0x15738",
      "effectiveGasPrice": "0x0",
      "from": "0x0990be6db8c785fbbf9ded8baec612a10cae814b",
      "to": "0x80eede496655fb9047dd39d9f418d5483ed600df",
      "contractAddress": null
    },
    {
      "status": "0x1",
      "cumulativeGasUsed": "0x156f6",
      "logs": [
        {
          "address": "0x43edd7f3831b08fe70b7555ddd373c8bf65a9050",
          "topics": [
            "0xbe4864a8e820971c0247f5992e2da559595f7bf076a21cb5928d443d2a13b674"
          ],
          "data": "0x00000000000000000000000000000000000000000000000000000000000000200000000000000000000000000000000000000000000000000000000000000002000000000000000000000000000000000000000000000000000000000000004000000000000000000000000000000000000000000000000000000000000000e0000000000000000000000000000000000000000000000000000000000000762f00000000000000000000000000000000000000000000000000000000000000010000000000000000000000000000000000000000000000000000000000000060000000000000000000000000000000000000000000000000000000000000001600030100110100000000000000000000000000030d4000000000000000000000000000000000000000000000000000000000000000000000000000000000762f0000000000000000000000000000000000000000000000000000000000000002000000000000000000000000000000000000000000000000000000000000006000000000000000000000000000000000000000000000000000000000000000160003010011010000000000000000000000000003d09000000000000000000000",
          "blockHash": "0xeb31efc9addcf97d92bc4300547ef26d9f88ef1b4ab114cdd57036c05840f7ba",
          "blockNumber": "0x1eb7f2",
          "transactionHash": "0x3e5ffabfab18f32792649c0119f4a6767d0ec6e454fe213e0865d8718c3bed02",
          "transactionIndex": "0x0",
          "logIndex": "0x0",
          "removed": false
        }
      ],
      "logsBloom": "0x00000000000000000000000000000000000000000000000000000000000000000000000000000000000000000000000000000000000000000000400000000000000000000000000000000000000000000000000000000000000000000000000000000000000000000000000000000000000000000000000000000000000000000000000000000000000000000000000000000000000000000000000000080000000000000000000002000000000000000000000000000000000000000000000000000000000000000000000002000000000000000000000000000000000000000000000000000000000000040000000000000000000000000000000000080000",
      "type": "0x2",
      "transactionHash": "0x3e5ffabfab18f32792649c0119f4a6767d0ec6e454fe213e0865d8718c3bed02",
      "transactionIndex": "0x0",
      "blockHash": "0xeb31efc9addcf97d92bc4300547ef26d9f88ef1b4ab114cdd57036c05840f7ba",
      "blockNumber": "0x1eb7f2",
      "gasUsed": "0x156f6",
      "effectiveGasPrice": "0x0",
      "from": "0x0990be6db8c785fbbf9ded8baec612a10cae814b",
      "to": "0x43edd7f3831b08fe70b7555ddd373c8bf65a9050",
      "contractAddress": null
    },
    {
      "status": "0x1",
      "cumulativeGasUsed": "0x156f6",
      "logs": [
        {
          "address": "0x90581eca9469d8d7f5d3b60f4715027adfcf7927",
          "topics": [
            "0xbe4864a8e820971c0247f5992e2da559595f7bf076a21cb5928d443d2a13b674"
          ],
          "data": "0x00000000000000000000000000000000000000000000000000000000000000200000000000000000000000000000000000000000000000000000000000000002000000000000000000000000000000000000000000000000000000000000004000000000000000000000000000000000000000000000000000000000000000e0000000000000000000000000000000000000000000000000000000000000762f00000000000000000000000000000000000000000000000000000000000000010000000000000000000000000000000000000000000000000000000000000060000000000000000000000000000000000000000000000000000000000000001600030100110100000000000000000000000000030d4000000000000000000000000000000000000000000000000000000000000000000000000000000000762f0000000000000000000000000000000000000000000000000000000000000002000000000000000000000000000000000000000000000000000000000000006000000000000000000000000000000000000000000000000000000000000000160003010011010000000000000000000000000003d09000000000000000000000",
          "blockHash": "0x87bf757a89bca97c473b8b1e494de96708490c4858cc821ce7d965f0a79500d7",
          "blockNumber": "0x1eb7f5",
          "transactionHash": "0xe0358200783a8b786e180f6d7a365afb1d715fd96b92fb69ec67a04e4338a6ca",
          "transactionIndex": "0x0",
          "logIndex": "0x0",
          "removed": false
        }
      ],
      "logsBloom": "0x00000000000000000000000000000000000000000000000000000000000000000000000000000000000000000000000000000000000000000000400000000000000000000000000000000000000000000000000000000000000000000000000000000000000000000000000000000000000000000000000000000000000000000000000000000004000010000000000000000000000000000000000000080000000000000000000000000000000000000000000000000000000000000000000000000000000000000000000002000000000000000000000000000000000000000000000000000000000000000000000000400000000000000000000000000000",
      "type": "0x2",
      "transactionHash": "0xe0358200783a8b786e180f6d7a365afb1d715fd96b92fb69ec67a04e4338a6ca",
      "transactionIndex": "0x0",
      "blockHash": "0x87bf757a89bca97c473b8b1e494de96708490c4858cc821ce7d965f0a79500d7",
      "blockNumber": "0x1eb7f5",
      "gasUsed": "0x156f6",
      "effectiveGasPrice": "0x0",
      "from": "0x0990be6db8c785fbbf9ded8baec612a10cae814b",
      "to": "0x90581eca9469d8d7f5d3b60f4715027adfcf7927",
      "contractAddress": null
    },
    {
      "status": "0x1",
      "cumulativeGasUsed": "0xd6f9",
      "logs": [
        {
          "address": "0x64445f0aecc51e94ad52d8ac56b7190e764e561a",
          "topics": [
            "0x238399d427b947898edb290f5ff0f9109849b1c3ba196a42e35f00c50a54b98b"
          ],
          "data": "0x000000000000000000000000000000000000000000000000000000000000762f000000000000000000000000d86fbbd0c8715d2c1f40e451e5c3514e65e7576a",
          "blockHash": "0x9dc7bc4b8d26ecc6ccc0f9125d0842a5b1995c671e7f0eabc443aa428deba9ec",
          "blockNumber": "0x1eb7f8",
          "transactionHash": "0x8a2ebe06ce259673f716f8023c4ce8ba8f0fb7052fd63e3be58b5c20ec0cfa13",
          "transactionIndex": "0x0",
          "logIndex": "0x0",
          "removed": false
        }
      ],
      "logsBloom": "0x00000000000000000000000000000000000000000000000000000000000000000000000000000000000000000000000000000000000000000800000000000000002000000000000000000000000000000000000000000000000000000000000000000000000000000000000000000000000000000000000000000000000000000000000000000000000000000000000000000000000000000000000000000000000000000000000000000008000000000000000000000000000002000000000000000000000000000000000000000000000000000000000000040000000000000000000000000000000000000000000000000008000000000000000000000000",
      "type": "0x2",
      "transactionHash": "0x8a2ebe06ce259673f716f8023c4ce8ba8f0fb7052fd63e3be58b5c20ec0cfa13",
      "transactionIndex": "0x0",
      "blockHash": "0x9dc7bc4b8d26ecc6ccc0f9125d0842a5b1995c671e7f0eabc443aa428deba9ec",
      "blockNumber": "0x1eb7f8",
      "gasUsed": "0xd6f9",
      "effectiveGasPrice": "0x0",
      "from": "0x0990be6db8c785fbbf9ded8baec612a10cae814b",
      "to": "0x64445f0aecc51e94ad52d8ac56b7190e764e561a",
      "contractAddress": null
    },
    {
      "status": "0x1",
      "cumulativeGasUsed": "0xd6f9",
      "logs": [
        {
          "address": "0x5bff88ca1442c2496f7e475e9e7786383bc070c0",
          "topics": [
            "0x238399d427b947898edb290f5ff0f9109849b1c3ba196a42e35f00c50a54b98b"
          ],
          "data": "0x000000000000000000000000000000000000000000000000000000000000762f00000000000000000000000088aa7854d3b2daa5e37e7ce73a1f39669623a361",
          "blockHash": "0x6a92c52588380e45bd70a5253f392f85e16f4f01dd0abe03347fc991400b2d17",
          "blockNumber": "0x1eb7fb",
          "transactionHash": "0xd8aad3956fb04c5edfa25097f9294ba3b75e6349513fca8243e5b02b12618056",
          "transactionIndex": "0x0",
          "logIndex": "0x0",
          "removed": false
        }
      ],
      "logsBloom": "0x00000000000000000000000000000000000000000000000000000000000000000000000000000000000000000000000000000000000000000800000000000000000000000000000000000000000000000000000000000000000000000000000000000000000000000000000000000000000000000000000000000000000000000000000000000000000000000000000000000000000000000000000000000000000000000000000000000000000000000000000000000000000002000010000000000000000000000000000000000000000000800000000000040000000000000000000000000000000000000000000000000000000000000000000000000800",
      "type": "0x2",
      "transactionHash": "0xd8aad3956fb04c5edfa25097f9294ba3b75e6349513fca8243e5b02b12618056",
      "transactionIndex": "0x0",
      "blockHash": "0x6a92c52588380e45bd70a5253f392f85e16f4f01dd0abe03347fc991400b2d17",
      "blockNumber": "0x1eb7fb",
      "gasUsed": "0xd6f9",
      "effectiveGasPrice": "0x0",
      "from": "0x0990be6db8c785fbbf9ded8baec612a10cae814b",
      "to": "0x5bff88ca1442c2496f7e475e9e7786383bc070c0",
      "contractAddress": null
    },
    {
      "status": "0x1",
      "cumulativeGasUsed": "0xd6f9",
      "logs": [
        {
          "address": "0x3ec3849c33291a9ef4c5db86de593eb4a37fde45",
          "topics": [
            "0x238399d427b947898edb290f5ff0f9109849b1c3ba196a42e35f00c50a54b98b"
          ],
          "data": "0x000000000000000000000000000000000000000000000000000000000000762f000000000000000000000000999dfabe3b1cc2ef66eb032eea42fea329bba168",
          "blockHash": "0x72f4cc400f49778e8447ba54ea37d4f319e9ee1ad1b9366654c367f2265b25b6",
          "blockNumber": "0x1eb7fe",
          "transactionHash": "0xd74346a73ab74b602b047ee8a0f75b404600f6581cee1d8e8812732341bb354b",
          "transactionIndex": "0x0",
          "logIndex": "0x0",
          "removed": false
        }
      ],
      "logsBloom": "0x00000000000000000000000000002000000000000000000000000000000000000000000000000000000000000000000000000000000000000800000000000000000000000000000000000000000000000000000000000000000000000000000000000000000000000000000000000000000000000000000000000000000000000000000000000000000000000000000000000000000020000040000000000000000000000000000000000000000000000000000000000000000002000000000000000000000000000000000000000000000000000000000000040000000000000000000000000000000000000000000000000000000000000000000000000000",
      "type": "0x2",
      "transactionHash": "0xd74346a73ab74b602b047ee8a0f75b404600f6581cee1d8e8812732341bb354b",
      "transactionIndex": "0x0",
      "blockHash": "0x72f4cc400f49778e8447ba54ea37d4f319e9ee1ad1b9366654c367f2265b25b6",
      "blockNumber": "0x1eb7fe",
      "gasUsed": "0xd6f9",
      "effectiveGasPrice": "0x0",
      "from": "0x0990be6db8c785fbbf9ded8baec612a10cae814b",
      "to": "0x3ec3849c33291a9ef4c5db86de593eb4a37fde45",
      "contractAddress": null
    },
    {
      "status": "0x1",
      "cumulativeGasUsed": "0xd6d7",
      "logs": [
        {
          "address": "0x80eede496655fb9047dd39d9f418d5483ed600df",
          "topics": [
            "0x238399d427b947898edb290f5ff0f9109849b1c3ba196a42e35f00c50a54b98b"
          ],
          "data": "0x000000000000000000000000000000000000000000000000000000000000762f00000000000000000000000096a394058e2b84a89bac9667b19661ed003cf5d4",
          "blockHash": "0x640f93a24581239ede5c80e9d1ffff7c0e898fde568f87f4288f2820fbf5953f",
          "blockNumber": "0x1eb801",
          "transactionHash": "0x08b76c708b1234f2fc87dfb3d467230fbc80804c7118fec7061aeb6cb582a22d",
          "transactionIndex": "0x0",
          "logIndex": "0x0",
          "removed": false
        }
      ],
      "logsBloom": "0x00000000000000000000000000000000000000000000000000000000000000000000000000000000000000000800000000000000000000000800000200000000000000000000000000000000000000000000000000000000000000000000000000000000000000000000000000000000000000000000000000000000010000000000000000000000000000000000000000000000000000000000000000000000000000000000000000000000000000000000000000000000000002000000000000000000000000000000000000000000000000000000000000040000000000000000000000000000000000000000000000000000000000000000000000000000",
      "type": "0x2",
      "transactionHash": "0x08b76c708b1234f2fc87dfb3d467230fbc80804c7118fec7061aeb6cb582a22d",
      "transactionIndex": "0x0",
      "blockHash": "0x640f93a24581239ede5c80e9d1ffff7c0e898fde568f87f4288f2820fbf5953f",
      "blockNumber": "0x1eb801",
      "gasUsed": "0xd6d7",
      "effectiveGasPrice": "0x0",
      "from": "0x0990be6db8c785fbbf9ded8baec612a10cae814b",
      "to": "0x80eede496655fb9047dd39d9f418d5483ed600df",
      "contractAddress": null
    },
    {
      "status": "0x1",
      "cumulativeGasUsed": "0xd6f9",
      "logs": [
        {
          "address": "0x43edd7f3831b08fe70b7555ddd373c8bf65a9050",
          "topics": [
            "0x238399d427b947898edb290f5ff0f9109849b1c3ba196a42e35f00c50a54b98b"
          ],
          "data": "0x000000000000000000000000000000000000000000000000000000000000762f0000000000000000000000009abfe1f8a999b0011ecd6116649aee8d575f5604",
          "blockHash": "0x74d3196e111bc41fee79e4b68e7984870ee513d80aaf47c44217c48d2eab1d54",
          "blockNumber": "0x1eb804",
          "transactionHash": "0x5ed493992d4898211fa8e81baeda5c0334cc858de5a3b5fcfe110b476c0c9d07",
          "transactionIndex": "0x0",
          "logIndex": "0x0",
          "removed": false
        }
      ],
      "logsBloom": "0x00000000000000000000000000000000000000000000000000000000000000000000000000000000000000000000000000000000000000000800000000000000000000000000000000000000000000000000000000000000000000000000000000000000000000000000000000000000000000000000000000000000000000000000000000000000000000000000000000000000000000000000000000000000000000000000000002000000000000000000000000000000000002000000000000000000000000000000000000000000000000000000000000040000000000000000000000000000000000040000000000000000000000000000000000080000",
      "type": "0x2",
      "transactionHash": "0x5ed493992d4898211fa8e81baeda5c0334cc858de5a3b5fcfe110b476c0c9d07",
      "transactionIndex": "0x0",
      "blockHash": "0x74d3196e111bc41fee79e4b68e7984870ee513d80aaf47c44217c48d2eab1d54",
      "blockNumber": "0x1eb804",
      "gasUsed": "0xd6f9",
      "effectiveGasPrice": "0x0",
      "from": "0x0990be6db8c785fbbf9ded8baec612a10cae814b",
      "to": "0x43edd7f3831b08fe70b7555ddd373c8bf65a9050",
      "contractAddress": null
    },
    {
      "status": "0x1",
      "cumulativeGasUsed": "0xd6ed",
      "logs": [
        {
          "address": "0x90581eca9469d8d7f5d3b60f4715027adfcf7927",
          "topics": [
            "0x238399d427b947898edb290f5ff0f9109849b1c3ba196a42e35f00c50a54b98b"
          ],
          "data": "0x000000000000000000000000000000000000000000000000000000000000762f00000000000000000000000075c38d46001b0f8108c4136216bd2694982c20fc",
          "blockHash": "0x0c98ce055d420c0ff41d42119f10adae1ad4345b6136dcec9a8968d15160a0b0",
          "blockNumber": "0x1eb806",
          "transactionHash": "0x04eb5a2274f02595405e645a6e646a29a243110857429244f3600392ed9ca5e7",
          "transactionIndex": "0x0",
          "logIndex": "0x0",
          "removed": false
        }
      ],
      "logsBloom": "0x00000000000000000000000000000000000000000000000000000000000000000000000000000000000000000000000000000000000000000800000000000000000000000000000000000000000000000000000000000000000000000000000000000000000000000000000000000000000000000000000000000000000000000000000000000004000010000000000000000000000000000000000000000000000000000000000000000000000000000000000000000000000002000000000000000000000000000000000000000000000000000000000000040000000000000000000000000000000000000000000000400000000000000000000000000000",
      "type": "0x2",
      "transactionHash": "0x04eb5a2274f02595405e645a6e646a29a243110857429244f3600392ed9ca5e7",
      "transactionIndex": "0x0",
      "blockHash": "0x0c98ce055d420c0ff41d42119f10adae1ad4345b6136dcec9a8968d15160a0b0",
      "blockNumber": "0x1eb806",
      "gasUsed": "0xd6ed",
      "effectiveGasPrice": "0x0",
      "from": "0x0990be6db8c785fbbf9ded8baec612a10cae814b",
      "to": "0x90581eca9469d8d7f5d3b60f4715027adfcf7927",
      "contractAddress": null
    },
    {
      "status": "0x1",
      "cumulativeGasUsed": "0x27b15",
      "logs": [
        {
          "address": "0x37aaaf95887624a363effb7762d489e3c05c2a02",
          "topics": [
            "0x82118522aa536ac0e96cc5c689407ae42b89d592aa133890a01f1509842f5081"
          ],
          "data": "0x00000000000000000000000064445f0aecc51e94ad52d8ac56b7190e764e561a000000000000000000000000000000000000000000000000000000000000762f0000000000000000000000000000000000000000000000000000000000000060000000000000000000000000000000000000000000000000000000000000000000000000000000000000000000000000000000000000000000000000000000030000000000000000000000000000000000000000000000000000000000000000000000000000000000000000000000000000000000000000000000000000000000000000000000000000000000000000000000000000000000000000000000c00000000000000000000000000000000000000000000000000000000000000140000000000000000000000000000000000000000000000000000000000000000300000000000000000000000045a7305c65aad28384f20a80f87a5183772e4f70000000000000000000000000965a80dc87cec5848310e612dead84b543aef8740000000000000000000000009c061c9a4782294eef65ef28cb88233a987f4bdd0000000000000000000000000000000000000000000000000000000000000000",
          "blockHash": "0xfb3c584908fd7a307257dc5dc4f8641ab6c356be8daec6d2caba62b27a5cbc25",
          "blockNumber": "0x1eb809",
          "transactionHash": "0x5be3debce9fa1d9037c262bd6bd434d3884c968bf0e64cc93e3079fa204d9a10",
          "transactionIndex": "0x0",
          "logIndex": "0x0",
          "removed": false
        }
      ],
      "logsBloom": "0x00000000000000000000000000000000000000000000000000000000000000000000000000000000000000000000000000000000000000000000000000000000000000000000000000000000000000000000000000000000002000000000000000000000000000000000000000000000000000000000000000000000000000000000000000000000000000000000000000000000000000000000000000000000000000000000000000001002000000000000000000000000000000000000000000000000000000000000000000000000008000000000000000000000000000000000000000000000000000000001000000000000000000000000000000000010",
      "type": "0x2",
      "transactionHash": "0x5be3debce9fa1d9037c262bd6bd434d3884c968bf0e64cc93e3079fa204d9a10",
      "transactionIndex": "0x0",
      "blockHash": "0xfb3c584908fd7a307257dc5dc4f8641ab6c356be8daec6d2caba62b27a5cbc25",
      "blockNumber": "0x1eb809",
      "gasUsed": "0x27b15",
      "effectiveGasPrice": "0x0",
      "from": "0x0990be6db8c785fbbf9ded8baec612a10cae814b",
      "to": "0x6f475642a6e85809b1c36fa62763669b1b48dd5b",
      "contractAddress": null
    },
    {
      "status": "0x1",
      "cumulativeGasUsed": "0x27a1f",
      "logs": [
        {
          "address": "0x15e51701f245f6d5bd0fee87bcaf55b0841451b3",
          "topics": [
            "0x82118522aa536ac0e96cc5c689407ae42b89d592aa133890a01f1509842f5081"
          ],
          "data": "0x00000000000000000000000064445f0aecc51e94ad52d8ac56b7190e764e561a000000000000000000000000000000000000000000000000000000000000762f0000000000000000000000000000000000000000000000000000000000000060000000000000000000000000000000000000000000000000000000000000000000000000000000000000000000000000000000000000000000000000000000030000000000000000000000000000000000000000000000000000000000000000000000000000000000000000000000000000000000000000000000000000000000000000000000000000000000000000000000000000000000000000000000c00000000000000000000000000000000000000000000000000000000000000140000000000000000000000000000000000000000000000000000000000000000300000000000000000000000045a7305c65aad28384f20a80f87a5183772e4f70000000000000000000000000965a80dc87cec5848310e612dead84b543aef8740000000000000000000000009c061c9a4782294eef65ef28cb88233a987f4bdd0000000000000000000000000000000000000000000000000000000000000000",
          "blockHash": "0xc29e5861397d533d4ee714adbadd10bcf089451c3b547edcb4b5005aead36e00",
          "blockNumber": "0x1eb80b",
          "transactionHash": "0xe9b55b089d63acf23e3315ad78d04106bd25bcb27927786a5c5fe43198f3cbe5",
          "transactionIndex": "0x0",
          "logIndex": "0x0",
          "removed": false
        }
      ],
      "logsBloom": "0x00000000000000000000000000000000000000000000000000000000000000000000000000000000000000000000000000000000000000000001000000000000000000000000000000000000000000000000000100000000002000000000000000000000000000000000000000000000000000000000000000000000000000000004000000000000000000000000000000000000000000000000000000000000000000000000000000000002000000000000000000000000000000000000000000000000000000000000000000000000000000000000000000000000000000000000000000000000000000000000000000000000000000000000000000000010",
      "type": "0x2",
      "transactionHash": "0xe9b55b089d63acf23e3315ad78d04106bd25bcb27927786a5c5fe43198f3cbe5",
      "transactionIndex": "0x0",
      "blockHash": "0xc29e5861397d533d4ee714adbadd10bcf089451c3b547edcb4b5005aead36e00",
      "blockNumber": "0x1eb80b",
      "gasUsed": "0x27a1f",
      "effectiveGasPrice": "0x0",
      "from": "0x0990be6db8c785fbbf9ded8baec612a10cae814b",
      "to": "0x6f475642a6e85809b1c36fa62763669b1b48dd5b",
      "contractAddress": null
    },
    {
      "status": "0x1",
      "cumulativeGasUsed": "0x27b15",
      "logs": [
        {
          "address": "0x37aaaf95887624a363effb7762d489e3c05c2a02",
          "topics": [
            "0x82118522aa536ac0e96cc5c689407ae42b89d592aa133890a01f1509842f5081"
          ],
          "data": "0x0000000000000000000000005bff88ca1442c2496f7e475e9e7786383bc070c0000000000000000000000000000000000000000000000000000000000000762f0000000000000000000000000000000000000000000000000000000000000060000000000000000000000000000000000000000000000000000000000000000000000000000000000000000000000000000000000000000000000000000000030000000000000000000000000000000000000000000000000000000000000000000000000000000000000000000000000000000000000000000000000000000000000000000000000000000000000000000000000000000000000000000000c00000000000000000000000000000000000000000000000000000000000000140000000000000000000000000000000000000000000000000000000000000000300000000000000000000000045a7305c65aad28384f20a80f87a5183772e4f70000000000000000000000000965a80dc87cec5848310e612dead84b543aef8740000000000000000000000009c061c9a4782294eef65ef28cb88233a987f4bdd0000000000000000000000000000000000000000000000000000000000000000",
          "blockHash": "0x40bf9a69079c21a8c99a0b5ff21e008402ecf71059e728091c3228e84f2c3b21",
          "blockNumber": "0x1eb80d",
          "transactionHash": "0x5cc2ee76d027f89dde896f1a5bed42e15722009870d628a07928e70667eae5e3",
          "transactionIndex": "0x0",
          "logIndex": "0x0",
          "removed": false
        }
      ],
      "logsBloom": "0x00000000000000000000000000000000000000000000000000000000000000000000000000000000000000000000000000000000000000000000000000000000000000000000000000000000000000000000000000000000002000000000000000000000000000000000000000000000000000000000000000000000000000000000000000000000000000000000000000000000000000000000000000000000000000000000000000001002000000000000000000000000000000000000000000000000000000000000000000000000008000000000000000000000000000000000000000000000000000000001000000000000000000000000000000000010",
      "type": "0x2",
      "transactionHash": "0x5cc2ee76d027f89dde896f1a5bed42e15722009870d628a07928e70667eae5e3",
      "transactionIndex": "0x0",
      "blockHash": "0x40bf9a69079c21a8c99a0b5ff21e008402ecf71059e728091c3228e84f2c3b21",
      "blockNumber": "0x1eb80d",
      "gasUsed": "0x27b15",
      "effectiveGasPrice": "0x0",
      "from": "0x0990be6db8c785fbbf9ded8baec612a10cae814b",
      "to": "0x6f475642a6e85809b1c36fa62763669b1b48dd5b",
      "contractAddress": null
    },
    {
      "status": "0x1",
      "cumulativeGasUsed": "0x27a1f",
      "logs": [
        {
          "address": "0x15e51701f245f6d5bd0fee87bcaf55b0841451b3",
          "topics": [
            "0x82118522aa536ac0e96cc5c689407ae42b89d592aa133890a01f1509842f5081"
          ],
          "data": "0x0000000000000000000000005bff88ca1442c2496f7e475e9e7786383bc070c0000000000000000000000000000000000000000000000000000000000000762f0000000000000000000000000000000000000000000000000000000000000060000000000000000000000000000000000000000000000000000000000000000000000000000000000000000000000000000000000000000000000000000000030000000000000000000000000000000000000000000000000000000000000000000000000000000000000000000000000000000000000000000000000000000000000000000000000000000000000000000000000000000000000000000000c00000000000000000000000000000000000000000000000000000000000000140000000000000000000000000000000000000000000000000000000000000000300000000000000000000000045a7305c65aad28384f20a80f87a5183772e4f70000000000000000000000000965a80dc87cec5848310e612dead84b543aef8740000000000000000000000009c061c9a4782294eef65ef28cb88233a987f4bdd0000000000000000000000000000000000000000000000000000000000000000",
          "blockHash": "0xe8af22c1535dfcc198f9b264146bdaef097fbb4e9a2f6f448a4f3549836b6757",
          "blockNumber": "0x1eb80f",
          "transactionHash": "0x60500ce717b1fbd90a47790c5a77bb372ae0f7eebd8c4838c2fd4808b4936b20",
          "transactionIndex": "0x0",
          "logIndex": "0x0",
          "removed": false
        }
      ],
      "logsBloom": "0x00000000000000000000000000000000000000000000000000000000000000000000000000000000000000000000000000000000000000000001000000000000000000000000000000000000000000000000000100000000002000000000000000000000000000000000000000000000000000000000000000000000000000000004000000000000000000000000000000000000000000000000000000000000000000000000000000000002000000000000000000000000000000000000000000000000000000000000000000000000000000000000000000000000000000000000000000000000000000000000000000000000000000000000000000000010",
      "type": "0x2",
      "transactionHash": "0x60500ce717b1fbd90a47790c5a77bb372ae0f7eebd8c4838c2fd4808b4936b20",
      "transactionIndex": "0x0",
      "blockHash": "0xe8af22c1535dfcc198f9b264146bdaef097fbb4e9a2f6f448a4f3549836b6757",
      "blockNumber": "0x1eb80f",
      "gasUsed": "0x27a1f",
      "effectiveGasPrice": "0x0",
      "from": "0x0990be6db8c785fbbf9ded8baec612a10cae814b",
      "to": "0x6f475642a6e85809b1c36fa62763669b1b48dd5b",
      "contractAddress": null
    },
    {
      "status": "0x1",
      "cumulativeGasUsed": "0x27b15",
      "logs": [
        {
          "address": "0x37aaaf95887624a363effb7762d489e3c05c2a02",
          "topics": [
            "0x82118522aa536ac0e96cc5c689407ae42b89d592aa133890a01f1509842f5081"
          ],
          "data": "0x0000000000000000000000003ec3849c33291a9ef4c5db86de593eb4a37fde45000000000000000000000000000000000000000000000000000000000000762f0000000000000000000000000000000000000000000000000000000000000060000000000000000000000000000000000000000000000000000000000000000000000000000000000000000000000000000000000000000000000000000000030000000000000000000000000000000000000000000000000000000000000000000000000000000000000000000000000000000000000000000000000000000000000000000000000000000000000000000000000000000000000000000000c00000000000000000000000000000000000000000000000000000000000000140000000000000000000000000000000000000000000000000000000000000000300000000000000000000000045a7305c65aad28384f20a80f87a5183772e4f70000000000000000000000000965a80dc87cec5848310e612dead84b543aef8740000000000000000000000009c061c9a4782294eef65ef28cb88233a987f4bdd0000000000000000000000000000000000000000000000000000000000000000",
          "blockHash": "0xe1a50287d21992302fe1c9fa25fcd5743a8a451409b1c87c2b61ad1404050bc0",
          "blockNumber": "0x1eb811",
          "transactionHash": "0xc53fa022b3d5a43344659671fe6f12677b51988cdf218aa3fc17113b144bc5e3",
          "transactionIndex": "0x0",
          "logIndex": "0x0",
          "removed": false
        }
      ],
      "logsBloom": "0x00000000000000000000000000000000000000000000000000000000000000000000000000000000000000000000000000000000000000000000000000000000000000000000000000000000000000000000000000000000002000000000000000000000000000000000000000000000000000000000000000000000000000000000000000000000000000000000000000000000000000000000000000000000000000000000000000001002000000000000000000000000000000000000000000000000000000000000000000000000008000000000000000000000000000000000000000000000000000000001000000000000000000000000000000000010",
      "type": "0x2",
      "transactionHash": "0xc53fa022b3d5a43344659671fe6f12677b51988cdf218aa3fc17113b144bc5e3",
      "transactionIndex": "0x0",
      "blockHash": "0xe1a50287d21992302fe1c9fa25fcd5743a8a451409b1c87c2b61ad1404050bc0",
      "blockNumber": "0x1eb811",
      "gasUsed": "0x27b15",
      "effectiveGasPrice": "0x0",
      "from": "0x0990be6db8c785fbbf9ded8baec612a10cae814b",
      "to": "0x6f475642a6e85809b1c36fa62763669b1b48dd5b",
      "contractAddress": null
    },
    {
      "status": "0x1",
      "cumulativeGasUsed": "0x27a1f",
      "logs": [
        {
          "address": "0x15e51701f245f6d5bd0fee87bcaf55b0841451b3",
          "topics": [
            "0x82118522aa536ac0e96cc5c689407ae42b89d592aa133890a01f1509842f5081"
          ],
          "data": "0x0000000000000000000000003ec3849c33291a9ef4c5db86de593eb4a37fde45000000000000000000000000000000000000000000000000000000000000762f0000000000000000000000000000000000000000000000000000000000000060000000000000000000000000000000000000000000000000000000000000000000000000000000000000000000000000000000000000000000000000000000030000000000000000000000000000000000000000000000000000000000000000000000000000000000000000000000000000000000000000000000000000000000000000000000000000000000000000000000000000000000000000000000c00000000000000000000000000000000000000000000000000000000000000140000000000000000000000000000000000000000000000000000000000000000300000000000000000000000045a7305c65aad28384f20a80f87a5183772e4f70000000000000000000000000965a80dc87cec5848310e612dead84b543aef8740000000000000000000000009c061c9a4782294eef65ef28cb88233a987f4bdd0000000000000000000000000000000000000000000000000000000000000000",
          "blockHash": "0xf9233724d7a073cc27e4245d87b3805dca269438c7fa3bc1b04c6e9103216ad0",
          "blockNumber": "0x1eb813",
          "transactionHash": "0xf2612677591475abb7e7f80d34fd2eb9179405d8d26b8a88884d73c9b4e9bc3e",
          "transactionIndex": "0x0",
          "logIndex": "0x0",
          "removed": false
        }
      ],
      "logsBloom": "0x00000000000000000000000000000000000000000000000000000000000000000000000000000000000000000000000000000000000000000001000000000000000000000000000000000000000000000000000100000000002000000000000000000000000000000000000000000000000000000000000000000000000000000004000000000000000000000000000000000000000000000000000000000000000000000000000000000002000000000000000000000000000000000000000000000000000000000000000000000000000000000000000000000000000000000000000000000000000000000000000000000000000000000000000000000010",
      "type": "0x2",
      "transactionHash": "0xf2612677591475abb7e7f80d34fd2eb9179405d8d26b8a88884d73c9b4e9bc3e",
      "transactionIndex": "0x0",
      "blockHash": "0xf9233724d7a073cc27e4245d87b3805dca269438c7fa3bc1b04c6e9103216ad0",
      "blockNumber": "0x1eb813",
      "gasUsed": "0x27a1f",
      "effectiveGasPrice": "0x0",
      "from": "0x0990be6db8c785fbbf9ded8baec612a10cae814b",
      "to": "0x6f475642a6e85809b1c36fa62763669b1b48dd5b",
      "contractAddress": null
    },
    {
      "status": "0x1",
      "cumulativeGasUsed": "0x27b09",
      "logs": [
        {
          "address": "0x37aaaf95887624a363effb7762d489e3c05c2a02",
          "topics": [
            "0x82118522aa536ac0e96cc5c689407ae42b89d592aa133890a01f1509842f5081"
          ],
          "data": "0x00000000000000000000000080eede496655fb9047dd39d9f418d5483ed600df000000000000000000000000000000000000000000000000000000000000762f0000000000000000000000000000000000000000000000000000000000000060000000000000000000000000000000000000000000000000000000000000000000000000000000000000000000000000000000000000000000000000000000030000000000000000000000000000000000000000000000000000000000000000000000000000000000000000000000000000000000000000000000000000000000000000000000000000000000000000000000000000000000000000000000c00000000000000000000000000000000000000000000000000000000000000140000000000000000000000000000000000000000000000000000000000000000300000000000000000000000045a7305c65aad28384f20a80f87a5183772e4f70000000000000000000000000965a80dc87cec5848310e612dead84b543aef8740000000000000000000000009c061c9a4782294eef65ef28cb88233a987f4bdd0000000000000000000000000000000000000000000000000000000000000000",
          "blockHash": "0x44b8af5e96ea682dac6b76428ea282ae5490e48805e29cb385a36dbe91066721",
          "blockNumber": "0x1eb815",
          "transactionHash": "0x43a68e30bbfa7224f75968139af29cea510176d581020917fb4f83f2ab5eba91",
          "transactionIndex": "0x0",
          "logIndex": "0x0",
          "removed": false
        }
      ],
      "logsBloom": "0x00000000000000000000000000000000000000000000000000000000000000000000000000000000000000000000000000000000000000000000000000000000000000000000000000000000000000000000000000000000002000000000000000000000000000000000000000000000000000000000000000000000000000000000000000000000000000000000000000000000000000000000000000000000000000000000000000001002000000000000000000000000000000000000000000000000000000000000000000000000008000000000000000000000000000000000000000000000000000000001000000000000000000000000000000000010",
      "type": "0x2",
      "transactionHash": "0x43a68e30bbfa7224f75968139af29cea510176d581020917fb4f83f2ab5eba91",
      "transactionIndex": "0x0",
      "blockHash": "0x44b8af5e96ea682dac6b76428ea282ae5490e48805e29cb385a36dbe91066721",
      "blockNumber": "0x1eb815",
      "gasUsed": "0x27b09",
      "effectiveGasPrice": "0x0",
      "from": "0x0990be6db8c785fbbf9ded8baec612a10cae814b",
      "to": "0x6f475642a6e85809b1c36fa62763669b1b48dd5b",
      "contractAddress": null
    },
    {
      "status": "0x1",
      "cumulativeGasUsed": "0x27a13",
      "logs": [
        {
          "address": "0x15e51701f245f6d5bd0fee87bcaf55b0841451b3",
          "topics": [
            "0x82118522aa536ac0e96cc5c689407ae42b89d592aa133890a01f1509842f5081"
          ],
          "data": "0x00000000000000000000000080eede496655fb9047dd39d9f418d5483ed600df000000000000000000000000000000000000000000000000000000000000762f0000000000000000000000000000000000000000000000000000000000000060000000000000000000000000000000000000000000000000000000000000000000000000000000000000000000000000000000000000000000000000000000030000000000000000000000000000000000000000000000000000000000000000000000000000000000000000000000000000000000000000000000000000000000000000000000000000000000000000000000000000000000000000000000c00000000000000000000000000000000000000000000000000000000000000140000000000000000000000000000000000000000000000000000000000000000300000000000000000000000045a7305c65aad28384f20a80f87a5183772e4f70000000000000000000000000965a80dc87cec5848310e612dead84b543aef8740000000000000000000000009c061c9a4782294eef65ef28cb88233a987f4bdd0000000000000000000000000000000000000000000000000000000000000000",
          "blockHash": "0xd3d233404ba30dbff62cf581101d31abdd0e0eea3967a067f0e25fe3e62c110e",
          "blockNumber": "0x1eb818",
          "transactionHash": "0x297ed42cec2adafdf23ad6d6725bb6b5e802d0d33644983410a0bb03f3f503b5",
          "transactionIndex": "0x0",
          "logIndex": "0x0",
          "removed": false
        }
      ],
      "logsBloom": "0x00000000000000000000000000000000000000000000000000000000000000000000000000000000000000000000000000000000000000000001000000000000000000000000000000000000000000000000000100000000002000000000000000000000000000000000000000000000000000000000000000000000000000000004000000000000000000000000000000000000000000000000000000000000000000000000000000000002000000000000000000000000000000000000000000000000000000000000000000000000000000000000000000000000000000000000000000000000000000000000000000000000000000000000000000000010",
      "type": "0x2",
      "transactionHash": "0x297ed42cec2adafdf23ad6d6725bb6b5e802d0d33644983410a0bb03f3f503b5",
      "transactionIndex": "0x0",
      "blockHash": "0xd3d233404ba30dbff62cf581101d31abdd0e0eea3967a067f0e25fe3e62c110e",
      "blockNumber": "0x1eb818",
      "gasUsed": "0x27a13",
      "effectiveGasPrice": "0x0",
      "from": "0x0990be6db8c785fbbf9ded8baec612a10cae814b",
      "to": "0x6f475642a6e85809b1c36fa62763669b1b48dd5b",
      "contractAddress": null
    },
    {
      "status": "0x1",
      "cumulativeGasUsed": "0x27b15",
      "logs": [
        {
          "address": "0x37aaaf95887624a363effb7762d489e3c05c2a02",
          "topics": [
            "0x82118522aa536ac0e96cc5c689407ae42b89d592aa133890a01f1509842f5081"
          ],
          "data": "0x00000000000000000000000043edd7f3831b08fe70b7555ddd373c8bf65a9050000000000000000000000000000000000000000000000000000000000000762f0000000000000000000000000000000000000000000000000000000000000060000000000000000000000000000000000000000000000000000000000000000000000000000000000000000000000000000000000000000000000000000000030000000000000000000000000000000000000000000000000000000000000000000000000000000000000000000000000000000000000000000000000000000000000000000000000000000000000000000000000000000000000000000000c00000000000000000000000000000000000000000000000000000000000000140000000000000000000000000000000000000000000000000000000000000000300000000000000000000000045a7305c65aad28384f20a80f87a5183772e4f70000000000000000000000000965a80dc87cec5848310e612dead84b543aef8740000000000000000000000009c061c9a4782294eef65ef28cb88233a987f4bdd0000000000000000000000000000000000000000000000000000000000000000",
          "blockHash": "0x5a639a83c7a34ea6399ccc10566aba3161fa2fa4232c2d1aabf4c9d4721d01a1",
          "blockNumber": "0x1eb81a",
          "transactionHash": "0xf60c9416839a57447ed5ecae6ebaa71d2ed56f2b85efcb0853793967bbea7e1f",
          "transactionIndex": "0x0",
          "logIndex": "0x0",
          "removed": false
        }
      ],
      "logsBloom": "0x00000000000000000000000000000000000000000000000000000000000000000000000000000000000000000000000000000000000000000000000000000000000000000000000000000000000000000000000000000000002000000000000000000000000000000000000000000000000000000000000000000000000000000000000000000000000000000000000000000000000000000000000000000000000000000000000000001002000000000000000000000000000000000000000000000000000000000000000000000000008000000000000000000000000000000000000000000000000000000001000000000000000000000000000000000010",
      "type": "0x2",
      "transactionHash": "0xf60c9416839a57447ed5ecae6ebaa71d2ed56f2b85efcb0853793967bbea7e1f",
      "transactionIndex": "0x0",
      "blockHash": "0x5a639a83c7a34ea6399ccc10566aba3161fa2fa4232c2d1aabf4c9d4721d01a1",
      "blockNumber": "0x1eb81a",
      "gasUsed": "0x27b15",
      "effectiveGasPrice": "0x0",
      "from": "0x0990be6db8c785fbbf9ded8baec612a10cae814b",
      "to": "0x6f475642a6e85809b1c36fa62763669b1b48dd5b",
      "contractAddress": null
    },
    {
      "status": "0x1",
      "cumulativeGasUsed": "0x27a1f",
      "logs": [
        {
          "address": "0x15e51701f245f6d5bd0fee87bcaf55b0841451b3",
          "topics": [
            "0x82118522aa536ac0e96cc5c689407ae42b89d592aa133890a01f1509842f5081"
          ],
          "data": "0x00000000000000000000000043edd7f3831b08fe70b7555ddd373c8bf65a9050000000000000000000000000000000000000000000000000000000000000762f0000000000000000000000000000000000000000000000000000000000000060000000000000000000000000000000000000000000000000000000000000000000000000000000000000000000000000000000000000000000000000000000030000000000000000000000000000000000000000000000000000000000000000000000000000000000000000000000000000000000000000000000000000000000000000000000000000000000000000000000000000000000000000000000c00000000000000000000000000000000000000000000000000000000000000140000000000000000000000000000000000000000000000000000000000000000300000000000000000000000045a7305c65aad28384f20a80f87a5183772e4f70000000000000000000000000965a80dc87cec5848310e612dead84b543aef8740000000000000000000000009c061c9a4782294eef65ef28cb88233a987f4bdd0000000000000000000000000000000000000000000000000000000000000000",
          "blockHash": "0xca79358c0281d9bc0035a893ed069b46cc9042262efe1488c0a339bf2f934a83",
          "blockNumber": "0x1eb81c",
          "transactionHash": "0x42f6aa90824a6a7f189a0414cb93d33534bf8acdf1ab8737cfb74b7b93b77870",
          "transactionIndex": "0x0",
          "logIndex": "0x0",
          "removed": false
        }
      ],
      "logsBloom": "0x00000000000000000000000000000000000000000000000000000000000000000000000000000000000000000000000000000000000000000001000000000000000000000000000000000000000000000000000100000000002000000000000000000000000000000000000000000000000000000000000000000000000000000004000000000000000000000000000000000000000000000000000000000000000000000000000000000002000000000000000000000000000000000000000000000000000000000000000000000000000000000000000000000000000000000000000000000000000000000000000000000000000000000000000000000010",
      "type": "0x2",
      "transactionHash": "0x42f6aa90824a6a7f189a0414cb93d33534bf8acdf1ab8737cfb74b7b93b77870",
      "transactionIndex": "0x0",
      "blockHash": "0xca79358c0281d9bc0035a893ed069b46cc9042262efe1488c0a339bf2f934a83",
      "blockNumber": "0x1eb81c",
      "gasUsed": "0x27a1f",
      "effectiveGasPrice": "0x0",
      "from": "0x0990be6db8c785fbbf9ded8baec612a10cae814b",
      "to": "0x6f475642a6e85809b1c36fa62763669b1b48dd5b",
      "contractAddress": null
    },
    {
      "status": "0x1",
      "cumulativeGasUsed": "0x27b15",
      "logs": [
        {
          "address": "0x37aaaf95887624a363effb7762d489e3c05c2a02",
          "topics": [
            "0x82118522aa536ac0e96cc5c689407ae42b89d592aa133890a01f1509842f5081"
          ],
          "data": "0x00000000000000000000000090581eca9469d8d7f5d3b60f4715027adfcf7927000000000000000000000000000000000000000000000000000000000000762f0000000000000000000000000000000000000000000000000000000000000060000000000000000000000000000000000000000000000000000000000000000000000000000000000000000000000000000000000000000000000000000000030000000000000000000000000000000000000000000000000000000000000000000000000000000000000000000000000000000000000000000000000000000000000000000000000000000000000000000000000000000000000000000000c00000000000000000000000000000000000000000000000000000000000000140000000000000000000000000000000000000000000000000000000000000000300000000000000000000000045a7305c65aad28384f20a80f87a5183772e4f70000000000000000000000000965a80dc87cec5848310e612dead84b543aef8740000000000000000000000009c061c9a4782294eef65ef28cb88233a987f4bdd0000000000000000000000000000000000000000000000000000000000000000",
          "blockHash": "0x9dfa4761d33e9c43336d350f2e36718a36053a7c8800f2e56b271e6027a7c8a8",
          "blockNumber": "0x1eb81e",
          "transactionHash": "0xe5adc9ff1b86127099db78e9b87ba4158e99a1e4384f8761a20cd654315a2e18",
          "transactionIndex": "0x0",
          "logIndex": "0x0",
          "removed": false
        }
      ],
      "logsBloom": "0x00000000000000000000000000000000000000000000000000000000000000000000000000000000000000000000000000000000000000000000000000000000000000000000000000000000000000000000000000000000002000000000000000000000000000000000000000000000000000000000000000000000000000000000000000000000000000000000000000000000000000000000000000000000000000000000000000001002000000000000000000000000000000000000000000000000000000000000000000000000008000000000000000000000000000000000000000000000000000000001000000000000000000000000000000000010",
      "type": "0x2",
      "transactionHash": "0xe5adc9ff1b86127099db78e9b87ba4158e99a1e4384f8761a20cd654315a2e18",
      "transactionIndex": "0x0",
      "blockHash": "0x9dfa4761d33e9c43336d350f2e36718a36053a7c8800f2e56b271e6027a7c8a8",
      "blockNumber": "0x1eb81e",
      "gasUsed": "0x27b15",
      "effectiveGasPrice": "0x0",
      "from": "0x0990be6db8c785fbbf9ded8baec612a10cae814b",
      "to": "0x6f475642a6e85809b1c36fa62763669b1b48dd5b",
      "contractAddress": null
    },
    {
      "status": "0x1",
      "cumulativeGasUsed": "0x27a1f",
      "logs": [
        {
          "address": "0x15e51701f245f6d5bd0fee87bcaf55b0841451b3",
          "topics": [
            "0x82118522aa536ac0e96cc5c689407ae42b89d592aa133890a01f1509842f5081"
          ],
          "data": "0x00000000000000000000000090581eca9469d8d7f5d3b60f4715027adfcf7927000000000000000000000000000000000000000000000000000000000000762f0000000000000000000000000000000000000000000000000000000000000060000000000000000000000000000000000000000000000000000000000000000000000000000000000000000000000000000000000000000000000000000000030000000000000000000000000000000000000000000000000000000000000000000000000000000000000000000000000000000000000000000000000000000000000000000000000000000000000000000000000000000000000000000000c00000000000000000000000000000000000000000000000000000000000000140000000000000000000000000000000000000000000000000000000000000000300000000000000000000000045a7305c65aad28384f20a80f87a5183772e4f70000000000000000000000000965a80dc87cec5848310e612dead84b543aef8740000000000000000000000009c061c9a4782294eef65ef28cb88233a987f4bdd0000000000000000000000000000000000000000000000000000000000000000",
          "blockHash": "0x885a143b71db331f3fdf8ed7ef302276c2397f5bc001795ecf37d44b74a38fd3",
          "blockNumber": "0x1eb820",
          "transactionHash": "0x45ee1d5957e7065de3832527cada447bc9e2b4697ff2273c10682c4965e87d90",
          "transactionIndex": "0x0",
          "logIndex": "0x0",
          "removed": false
        }
      ],
      "logsBloom": "0x00000000000000000000000000000000000000000000000000000000000000000000000000000000000000000000000000000000000000000001000000000000000000000000000000000000000000000000000100000000002000000000000000000000000000000000000000000000000000000000000000000000000000000004000000000000000000000000000000000000000000000000000000000000000000000000000000000002000000000000000000000000000000000000000000000000000000000000000000000000000000000000000000000000000000000000000000000000000000000000000000000000000000000000000000000010",
      "type": "0x2",
      "transactionHash": "0x45ee1d5957e7065de3832527cada447bc9e2b4697ff2273c10682c4965e87d90",
      "transactionIndex": "0x0",
      "blockHash": "0x885a143b71db331f3fdf8ed7ef302276c2397f5bc001795ecf37d44b74a38fd3",
      "blockNumber": "0x1eb820",
      "gasUsed": "0x27a1f",
      "effectiveGasPrice": "0x0",
      "from": "0x0990be6db8c785fbbf9ded8baec612a10cae814b",
      "to": "0x6f475642a6e85809b1c36fa62763669b1b48dd5b",
      "contractAddress": null
    },
    {
      "status": "0x1",
      "cumulativeGasUsed": "0xe18e",
      "logs": [
        {
          "address": "0x6f475642a6e85809b1c36fa62763669b1b48dd5b",
          "topics": [
            "0x4cff966ebee29a156dcb34cf72c1d06231fb1777f6bdf6e8089819232f002b1c"
          ],
          "data": "0x00000000000000000000000064445f0aecc51e94ad52d8ac56b7190e764e561a000000000000000000000000000000000000000000000000000000000000762f00000000000000000000000037aaaf95887624a363effb7762d489e3c05c2a02",
          "blockHash": "0xda2f8e9901bad9b78533c63da527250cbaa73c0e08bd82910fcb4656f00e1cd5",
          "blockNumber": "0x1eb822",
          "transactionHash": "0xe8f56b55566d3b10fa191e7ff72dd27e04b337a072e2d56258918622d9ecc2e8",
          "transactionIndex": "0x0",
          "logIndex": "0x0",
          "removed": false
        }
      ],
      "logsBloom": "0x00000000000000000000000000000000000200000000000000000000000000000000000000000000000000000000000000000000000000000000000001000000000000000000000000000000000000000140000000000000000000000000000000000000000000000000000000000000000000000000000000000000000000000000000000000000000000000000000000000000000000000000000000000000000000000000000000000000000000000000000000000000000000000000000000000000000000000000000000000000000000000000000000000000000000004040000000000000000000000000000000000000000000000000000000000000",
      "type": "0x2",
      "transactionHash": "0xe8f56b55566d3b10fa191e7ff72dd27e04b337a072e2d56258918622d9ecc2e8",
      "transactionIndex": "0x0",
      "blockHash": "0xda2f8e9901bad9b78533c63da527250cbaa73c0e08bd82910fcb4656f00e1cd5",
      "blockNumber": "0x1eb822",
      "gasUsed": "0xe18e",
      "effectiveGasPrice": "0x0",
      "from": "0x0990be6db8c785fbbf9ded8baec612a10cae814b",
      "to": "0x6f475642a6e85809b1c36fa62763669b1b48dd5b",
      "contractAddress": null
    },
    {
      "status": "0x1",
      "cumulativeGasUsed": "0xfba1",
      "logs": [
        {
          "address": "0x6f475642a6e85809b1c36fa62763669b1b48dd5b",
          "topics": [
            "0xcd6f92f5ac6185a5acfa02c92090746cec64d777269cbcd0ed031e396657a1c2"
          ],
          "data": "0x00000000000000000000000064445f0aecc51e94ad52d8ac56b7190e764e561a000000000000000000000000000000000000000000000000000000000000762f00000000000000000000000015e51701f245f6d5bd0fee87bcaf55b0841451b3",
          "blockHash": "0xcf7f99f7ab20d3904406f03a93a69165a7f38d4325e5d1575df584ef1ef078c3",
          "blockNumber": "0x1eb824",
          "transactionHash": "0xb5f62d6aa0d5eaaa46f00422b091c0ed8213b5bdfa8d1ee9084d250fc50aae2d",
          "transactionIndex": "0x0",
          "logIndex": "0x0",
          "removed": false
        },
        {
          "address": "0x6f475642a6e85809b1c36fa62763669b1b48dd5b",
          "topics": [
            "0x4e0a5bbfa0c11a64effb1ada324b5437a17272e1aed9320398715ef71bb20928"
          ],
          "data": "0x00000000000000000000000064445f0aecc51e94ad52d8ac56b7190e764e561a000000000000000000000000000000000000000000000000000000000000762f00000000000000000000000000000000000000000000000000000000000000000000000000000000000000000000000000000000000000000000000000000000",
          "blockHash": "0xcf7f99f7ab20d3904406f03a93a69165a7f38d4325e5d1575df584ef1ef078c3",
          "blockNumber": "0x1eb824",
          "transactionHash": "0xb5f62d6aa0d5eaaa46f00422b091c0ed8213b5bdfa8d1ee9084d250fc50aae2d",
          "transactionIndex": "0x0",
          "logIndex": "0x1",
          "removed": false
        }
      ],
      "logsBloom": "0x00000000000000000000020800000000000000000000000000000000000000020400000000000000000000000000000000000000000000000000000000000000000000000000000000000000000000000140000000800000000000000000000000000000000000000000000000000000000000000000000000000000000000100000000000000000000000000000000000000000000000000000000000000000000000000000000000000000000000000000000000000000000000000000000000000000000000000000000000000000000000000000000000000000000000004000000000000000000000000000000000000000000000000000000000000000",
      "type": "0x2",
      "transactionHash": "0xb5f62d6aa0d5eaaa46f00422b091c0ed8213b5bdfa8d1ee9084d250fc50aae2d",
      "transactionIndex": "0x0",
      "blockHash": "0xcf7f99f7ab20d3904406f03a93a69165a7f38d4325e5d1575df584ef1ef078c3",
      "blockNumber": "0x1eb824",
      "gasUsed": "0xfba1",
      "effectiveGasPrice": "0x0",
      "from": "0x0990be6db8c785fbbf9ded8baec612a10cae814b",
      "to": "0x6f475642a6e85809b1c36fa62763669b1b48dd5b",
      "contractAddress": null
    },
    {
      "status": "0x1",
      "cumulativeGasUsed": "0xe18e",
      "logs": [
        {
          "address": "0x6f475642a6e85809b1c36fa62763669b1b48dd5b",
          "topics": [
            "0x4cff966ebee29a156dcb34cf72c1d06231fb1777f6bdf6e8089819232f002b1c"
          ],
          "data": "0x0000000000000000000000005bff88ca1442c2496f7e475e9e7786383bc070c0000000000000000000000000000000000000000000000000000000000000762f00000000000000000000000037aaaf95887624a363effb7762d489e3c05c2a02",
          "blockHash": "0xb32c78cd2915a71da332d93745394d3f10e4f9e93cf1f4ef464414f93f4b302d",
          "blockNumber": "0x1eb826",
          "transactionHash": "0x7914733b1c877d33c8b862024c5c4613bff37b4de50859c95f872cbd9a0fb82b",
          "transactionIndex": "0x0",
          "logIndex": "0x0",
          "removed": false
        }
      ],
      "logsBloom": "0x00000000000000000000000000000000000200000000000000000000000000000000000000000000000000000000000000000000000000000000000001000000000000000000000000000000000000000140000000000000000000000000000000000000000000000000000000000000000000000000000000000000000000000000000000000000000000000000000000000000000000000000000000000000000000000000000000000000000000000000000000000000000000000000000000000000000000000000000000000000000000000000000000000000000000004040000000000000000000000000000000000000000000000000000000000000",
      "type": "0x2",
      "transactionHash": "0x7914733b1c877d33c8b862024c5c4613bff37b4de50859c95f872cbd9a0fb82b",
      "transactionIndex": "0x0",
      "blockHash": "0xb32c78cd2915a71da332d93745394d3f10e4f9e93cf1f4ef464414f93f4b302d",
      "blockNumber": "0x1eb826",
      "gasUsed": "0xe18e",
      "effectiveGasPrice": "0x0",
      "from": "0x0990be6db8c785fbbf9ded8baec612a10cae814b",
      "to": "0x6f475642a6e85809b1c36fa62763669b1b48dd5b",
      "contractAddress": null
    },
    {
      "status": "0x1",
      "cumulativeGasUsed": "0xfba1",
      "logs": [
        {
          "address": "0x6f475642a6e85809b1c36fa62763669b1b48dd5b",
          "topics": [
            "0xcd6f92f5ac6185a5acfa02c92090746cec64d777269cbcd0ed031e396657a1c2"
          ],
          "data": "0x0000000000000000000000005bff88ca1442c2496f7e475e9e7786383bc070c0000000000000000000000000000000000000000000000000000000000000762f00000000000000000000000015e51701f245f6d5bd0fee87bcaf55b0841451b3",
          "blockHash": "0x7017393a509152f3e9ec6bfa804888901e10188076ebf04b739cbd8e30512be7",
          "blockNumber": "0x1eb828",
          "transactionHash": "0xc374f3583e589fd29cb091b6d3abfb2345cb0c05d40dad73a9dac5a630e24782",
          "transactionIndex": "0x0",
          "logIndex": "0x0",
          "removed": false
        },
        {
          "address": "0x6f475642a6e85809b1c36fa62763669b1b48dd5b",
          "topics": [
            "0x4e0a5bbfa0c11a64effb1ada324b5437a17272e1aed9320398715ef71bb20928"
          ],
          "data": "0x0000000000000000000000005bff88ca1442c2496f7e475e9e7786383bc070c0000000000000000000000000000000000000000000000000000000000000762f00000000000000000000000000000000000000000000000000000000000000000000000000000000000000000000000000000000000000000000000000000000",
          "blockHash": "0x7017393a509152f3e9ec6bfa804888901e10188076ebf04b739cbd8e30512be7",
          "blockNumber": "0x1eb828",
          "transactionHash": "0xc374f3583e589fd29cb091b6d3abfb2345cb0c05d40dad73a9dac5a630e24782",
          "transactionIndex": "0x0",
          "logIndex": "0x1",
          "removed": false
        }
      ],
      "logsBloom": "0x00000000000000000000020800000000000000000000000000000000000000020400000000000000000000000000000000000000000000000000000000000000000000000000000000000000000000000140000000800000000000000000000000000000000000000000000000000000000000000000000000000000000000100000000000000000000000000000000000000000000000000000000000000000000000000000000000000000000000000000000000000000000000000000000000000000000000000000000000000000000000000000000000000000000000004000000000000000000000000000000000000000000000000000000000000000",
      "type": "0x2",
      "transactionHash": "0xc374f3583e589fd29cb091b6d3abfb2345cb0c05d40dad73a9dac5a630e24782",
      "transactionIndex": "0x0",
      "blockHash": "0x7017393a509152f3e9ec6bfa804888901e10188076ebf04b739cbd8e30512be7",
      "blockNumber": "0x1eb828",
      "gasUsed": "0xfba1",
      "effectiveGasPrice": "0x0",
      "from": "0x0990be6db8c785fbbf9ded8baec612a10cae814b",
      "to": "0x6f475642a6e85809b1c36fa62763669b1b48dd5b",
      "contractAddress": null
    },
    {
      "status": "0x1",
      "cumulativeGasUsed": "0xe18e",
      "logs": [
        {
          "address": "0x6f475642a6e85809b1c36fa62763669b1b48dd5b",
          "topics": [
            "0x4cff966ebee29a156dcb34cf72c1d06231fb1777f6bdf6e8089819232f002b1c"
          ],
          "data": "0x0000000000000000000000003ec3849c33291a9ef4c5db86de593eb4a37fde45000000000000000000000000000000000000000000000000000000000000762f00000000000000000000000037aaaf95887624a363effb7762d489e3c05c2a02",
          "blockHash": "0x60479855f4f756c7c474a683f9ad8f922909cf490f011f9dd8c047fedddf44b3",
          "blockNumber": "0x1eb82a",
          "transactionHash": "0xf482f1be79f3ea1b7579129a526656c6edda85876500319430b4db894f33d5a9",
          "transactionIndex": "0x0",
          "logIndex": "0x0",
          "removed": false
        }
      ],
      "logsBloom": "0x00000000000000000000000000000000000200000000000000000000000000000000000000000000000000000000000000000000000000000000000001000000000000000000000000000000000000000140000000000000000000000000000000000000000000000000000000000000000000000000000000000000000000000000000000000000000000000000000000000000000000000000000000000000000000000000000000000000000000000000000000000000000000000000000000000000000000000000000000000000000000000000000000000000000000004040000000000000000000000000000000000000000000000000000000000000",
      "type": "0x2",
      "transactionHash": "0xf482f1be79f3ea1b7579129a526656c6edda85876500319430b4db894f33d5a9",
      "transactionIndex": "0x0",
      "blockHash": "0x60479855f4f756c7c474a683f9ad8f922909cf490f011f9dd8c047fedddf44b3",
      "blockNumber": "0x1eb82a",
      "gasUsed": "0xe18e",
      "effectiveGasPrice": "0x0",
      "from": "0x0990be6db8c785fbbf9ded8baec612a10cae814b",
      "to": "0x6f475642a6e85809b1c36fa62763669b1b48dd5b",
      "contractAddress": null
    },
    {
      "status": "0x1",
      "cumulativeGasUsed": "0xfba1",
      "logs": [
        {
          "address": "0x6f475642a6e85809b1c36fa62763669b1b48dd5b",
          "topics": [
            "0xcd6f92f5ac6185a5acfa02c92090746cec64d777269cbcd0ed031e396657a1c2"
          ],
          "data": "0x0000000000000000000000003ec3849c33291a9ef4c5db86de593eb4a37fde45000000000000000000000000000000000000000000000000000000000000762f00000000000000000000000015e51701f245f6d5bd0fee87bcaf55b0841451b3",
          "blockHash": "0x6afdbd746d5f0ed75a1222d8e739f4b1f2ef0b0a35c8959184e313199ddd7bbb",
          "blockNumber": "0x1eb82c",
          "transactionHash": "0x987c91fe04b8812a4fe177bf0d8539a7725651015f06392c1bfd69f649bec85a",
          "transactionIndex": "0x0",
          "logIndex": "0x0",
          "removed": false
        },
        {
          "address": "0x6f475642a6e85809b1c36fa62763669b1b48dd5b",
          "topics": [
            "0x4e0a5bbfa0c11a64effb1ada324b5437a17272e1aed9320398715ef71bb20928"
          ],
          "data": "0x0000000000000000000000003ec3849c33291a9ef4c5db86de593eb4a37fde45000000000000000000000000000000000000000000000000000000000000762f00000000000000000000000000000000000000000000000000000000000000000000000000000000000000000000000000000000000000000000000000000000",
          "blockHash": "0x6afdbd746d5f0ed75a1222d8e739f4b1f2ef0b0a35c8959184e313199ddd7bbb",
          "blockNumber": "0x1eb82c",
          "transactionHash": "0x987c91fe04b8812a4fe177bf0d8539a7725651015f06392c1bfd69f649bec85a",
          "transactionIndex": "0x0",
          "logIndex": "0x1",
          "removed": false
        }
      ],
      "logsBloom": "0x00000000000000000000020800000000000000000000000000000000000000020400000000000000000000000000000000000000000000000000000000000000000000000000000000000000000000000140000000800000000000000000000000000000000000000000000000000000000000000000000000000000000000100000000000000000000000000000000000000000000000000000000000000000000000000000000000000000000000000000000000000000000000000000000000000000000000000000000000000000000000000000000000000000000000004000000000000000000000000000000000000000000000000000000000000000",
      "type": "0x2",
      "transactionHash": "0x987c91fe04b8812a4fe177bf0d8539a7725651015f06392c1bfd69f649bec85a",
      "transactionIndex": "0x0",
      "blockHash": "0x6afdbd746d5f0ed75a1222d8e739f4b1f2ef0b0a35c8959184e313199ddd7bbb",
      "blockNumber": "0x1eb82c",
      "gasUsed": "0xfba1",
      "effectiveGasPrice": "0x0",
      "from": "0x0990be6db8c785fbbf9ded8baec612a10cae814b",
      "to": "0x6f475642a6e85809b1c36fa62763669b1b48dd5b",
      "contractAddress": null
    },
    {
      "status": "0x1",
      "cumulativeGasUsed": "0xe182",
      "logs": [
        {
          "address": "0x6f475642a6e85809b1c36fa62763669b1b48dd5b",
          "topics": [
            "0x4cff966ebee29a156dcb34cf72c1d06231fb1777f6bdf6e8089819232f002b1c"
          ],
          "data": "0x00000000000000000000000080eede496655fb9047dd39d9f418d5483ed600df000000000000000000000000000000000000000000000000000000000000762f00000000000000000000000037aaaf95887624a363effb7762d489e3c05c2a02",
          "blockHash": "0x750acadb9144cb9c17191e6ffabdc365ce8d7a64833355a606d0caf62bdf3d32",
          "blockNumber": "0x1eb82e",
          "transactionHash": "0xe30156fe5d391ec2acc779ad8b909fbde5c42f720198df4fe4ddcb4577595e64",
          "transactionIndex": "0x0",
          "logIndex": "0x0",
          "removed": false
        }
      ],
      "logsBloom": "0x00000000000000000000000000000000000200000000000000000000000000000000000000000000000000000000000000000000000000000000000001000000000000000000000000000000000000000140000000000000000000000000000000000000000000000000000000000000000000000000000000000000000000000000000000000000000000000000000000000000000000000000000000000000000000000000000000000000000000000000000000000000000000000000000000000000000000000000000000000000000000000000000000000000000000004040000000000000000000000000000000000000000000000000000000000000",
      "type": "0x2",
      "transactionHash": "0xe30156fe5d391ec2acc779ad8b909fbde5c42f720198df4fe4ddcb4577595e64",
      "transactionIndex": "0x0",
      "blockHash": "0x750acadb9144cb9c17191e6ffabdc365ce8d7a64833355a606d0caf62bdf3d32",
      "blockNumber": "0x1eb82e",
      "gasUsed": "0xe182",
      "effectiveGasPrice": "0x0",
      "from": "0x0990be6db8c785fbbf9ded8baec612a10cae814b",
      "to": "0x6f475642a6e85809b1c36fa62763669b1b48dd5b",
      "contractAddress": null
    },
    {
      "status": "0x1",
      "cumulativeGasUsed": "0xfb95",
      "logs": [
        {
          "address": "0x6f475642a6e85809b1c36fa62763669b1b48dd5b",
          "topics": [
            "0xcd6f92f5ac6185a5acfa02c92090746cec64d777269cbcd0ed031e396657a1c2"
          ],
          "data": "0x00000000000000000000000080eede496655fb9047dd39d9f418d5483ed600df000000000000000000000000000000000000000000000000000000000000762f00000000000000000000000015e51701f245f6d5bd0fee87bcaf55b0841451b3",
          "blockHash": "0x8351993789ba8257853757b25646a520ab716a16585c4c31f68633a63e1eb1e1",
          "blockNumber": "0x1eb830",
          "transactionHash": "0xb810487234dee4b83d382fc4a0659935cbdd55431af29c639ae77064bb4f8e98",
          "transactionIndex": "0x0",
          "logIndex": "0x0",
          "removed": false
        },
        {
          "address": "0x6f475642a6e85809b1c36fa62763669b1b48dd5b",
          "topics": [
            "0x4e0a5bbfa0c11a64effb1ada324b5437a17272e1aed9320398715ef71bb20928"
          ],
          "data": "0x00000000000000000000000080eede496655fb9047dd39d9f418d5483ed600df000000000000000000000000000000000000000000000000000000000000762f00000000000000000000000000000000000000000000000000000000000000000000000000000000000000000000000000000000000000000000000000000000",
          "blockHash": "0x8351993789ba8257853757b25646a520ab716a16585c4c31f68633a63e1eb1e1",
          "blockNumber": "0x1eb830",
          "transactionHash": "0xb810487234dee4b83d382fc4a0659935cbdd55431af29c639ae77064bb4f8e98",
          "transactionIndex": "0x0",
          "logIndex": "0x1",
          "removed": false
        }
      ],
      "logsBloom": "0x00000000000000000000020800000000000000000000000000000000000000020400000000000000000000000000000000000000000000000000000000000000000000000000000000000000000000000140000000800000000000000000000000000000000000000000000000000000000000000000000000000000000000100000000000000000000000000000000000000000000000000000000000000000000000000000000000000000000000000000000000000000000000000000000000000000000000000000000000000000000000000000000000000000000000004000000000000000000000000000000000000000000000000000000000000000",
      "type": "0x2",
      "transactionHash": "0xb810487234dee4b83d382fc4a0659935cbdd55431af29c639ae77064bb4f8e98",
      "transactionIndex": "0x0",
      "blockHash": "0x8351993789ba8257853757b25646a520ab716a16585c4c31f68633a63e1eb1e1",
      "blockNumber": "0x1eb830",
      "gasUsed": "0xfb95",
      "effectiveGasPrice": "0x0",
      "from": "0x0990be6db8c785fbbf9ded8baec612a10cae814b",
      "to": "0x6f475642a6e85809b1c36fa62763669b1b48dd5b",
      "contractAddress": null
    },
    {
      "status": "0x1",
      "cumulativeGasUsed": "0xe18e",
      "logs": [
        {
          "address": "0x6f475642a6e85809b1c36fa62763669b1b48dd5b",
          "topics": [
            "0x4cff966ebee29a156dcb34cf72c1d06231fb1777f6bdf6e8089819232f002b1c"
          ],
          "data": "0x00000000000000000000000043edd7f3831b08fe70b7555ddd373c8bf65a9050000000000000000000000000000000000000000000000000000000000000762f00000000000000000000000037aaaf95887624a363effb7762d489e3c05c2a02",
          "blockHash": "0x32bf163321afba0fdcd9c304c256a1c733293e48a0c3268c3f62fbc6f6400aa5",
          "blockNumber": "0x1eb832",
          "transactionHash": "0x27ae142206127fc7d7d5868ebfbfb8adbcf494784f30e326f676210cd1604470",
          "transactionIndex": "0x0",
          "logIndex": "0x0",
          "removed": false
        }
      ],
      "logsBloom": "0x00000000000000000000000000000000000200000000000000000000000000000000000000000000000000000000000000000000000000000000000001000000000000000000000000000000000000000140000000000000000000000000000000000000000000000000000000000000000000000000000000000000000000000000000000000000000000000000000000000000000000000000000000000000000000000000000000000000000000000000000000000000000000000000000000000000000000000000000000000000000000000000000000000000000000004040000000000000000000000000000000000000000000000000000000000000",
      "type": "0x2",
      "transactionHash": "0x27ae142206127fc7d7d5868ebfbfb8adbcf494784f30e326f676210cd1604470",
      "transactionIndex": "0x0",
      "blockHash": "0x32bf163321afba0fdcd9c304c256a1c733293e48a0c3268c3f62fbc6f6400aa5",
      "blockNumber": "0x1eb832",
      "gasUsed": "0xe18e",
      "effectiveGasPrice": "0x0",
      "from": "0x0990be6db8c785fbbf9ded8baec612a10cae814b",
      "to": "0x6f475642a6e85809b1c36fa62763669b1b48dd5b",
      "contractAddress": null
    },
    {
      "status": "0x1",
      "cumulativeGasUsed": "0xfba1",
      "logs": [
        {
          "address": "0x6f475642a6e85809b1c36fa62763669b1b48dd5b",
          "topics": [
            "0xcd6f92f5ac6185a5acfa02c92090746cec64d777269cbcd0ed031e396657a1c2"
          ],
          "data": "0x00000000000000000000000043edd7f3831b08fe70b7555ddd373c8bf65a9050000000000000000000000000000000000000000000000000000000000000762f00000000000000000000000015e51701f245f6d5bd0fee87bcaf55b0841451b3",
          "blockHash": "0x9ff221a5c55d3e3f65bab394be589b99cac2eed5ea89e9578b7ae7fda3c31d98",
          "blockNumber": "0x1eb834",
          "transactionHash": "0x8f3c676f9f7209c9bb05d5eee64264cce9af8b5c365859189b35f453018745f7",
          "transactionIndex": "0x0",
          "logIndex": "0x0",
          "removed": false
        },
        {
          "address": "0x6f475642a6e85809b1c36fa62763669b1b48dd5b",
          "topics": [
            "0x4e0a5bbfa0c11a64effb1ada324b5437a17272e1aed9320398715ef71bb20928"
          ],
          "data": "0x00000000000000000000000043edd7f3831b08fe70b7555ddd373c8bf65a9050000000000000000000000000000000000000000000000000000000000000762f00000000000000000000000000000000000000000000000000000000000000000000000000000000000000000000000000000000000000000000000000000000",
          "blockHash": "0x9ff221a5c55d3e3f65bab394be589b99cac2eed5ea89e9578b7ae7fda3c31d98",
          "blockNumber": "0x1eb834",
          "transactionHash": "0x8f3c676f9f7209c9bb05d5eee64264cce9af8b5c365859189b35f453018745f7",
          "transactionIndex": "0x0",
          "logIndex": "0x1",
          "removed": false
        }
      ],
      "logsBloom": "0x00000000000000000000020800000000000000000000000000000000000000020400000000000000000000000000000000000000000000000000000000000000000000000000000000000000000000000140000000800000000000000000000000000000000000000000000000000000000000000000000000000000000000100000000000000000000000000000000000000000000000000000000000000000000000000000000000000000000000000000000000000000000000000000000000000000000000000000000000000000000000000000000000000000000000004000000000000000000000000000000000000000000000000000000000000000",
      "type": "0x2",
      "transactionHash": "0x8f3c676f9f7209c9bb05d5eee64264cce9af8b5c365859189b35f453018745f7",
      "transactionIndex": "0x0",
      "blockHash": "0x9ff221a5c55d3e3f65bab394be589b99cac2eed5ea89e9578b7ae7fda3c31d98",
      "blockNumber": "0x1eb834",
      "gasUsed": "0xfba1",
      "effectiveGasPrice": "0x0",
      "from": "0x0990be6db8c785fbbf9ded8baec612a10cae814b",
      "to": "0x6f475642a6e85809b1c36fa62763669b1b48dd5b",
      "contractAddress": null
    },
    {
      "status": "0x1",
      "cumulativeGasUsed": "0xe18e",
      "logs": [
        {
          "address": "0x6f475642a6e85809b1c36fa62763669b1b48dd5b",
          "topics": [
            "0x4cff966ebee29a156dcb34cf72c1d06231fb1777f6bdf6e8089819232f002b1c"
          ],
          "data": "0x00000000000000000000000090581eca9469d8d7f5d3b60f4715027adfcf7927000000000000000000000000000000000000000000000000000000000000762f00000000000000000000000037aaaf95887624a363effb7762d489e3c05c2a02",
          "blockHash": "0xb11741f3fd8d511f8bcb627410b4f8e8e591b652ac5f4102c59059028e97bb0e",
          "blockNumber": "0x1eb836",
          "transactionHash": "0x2d701d8f28e20d68a74d569bf8e7a04c762ff15f0186d4c46878d5717968378b",
          "transactionIndex": "0x0",
          "logIndex": "0x0",
          "removed": false
        }
      ],
      "logsBloom": "0x00000000000000000000000000000000000200000000000000000000000000000000000000000000000000000000000000000000000000000000000001000000000000000000000000000000000000000140000000000000000000000000000000000000000000000000000000000000000000000000000000000000000000000000000000000000000000000000000000000000000000000000000000000000000000000000000000000000000000000000000000000000000000000000000000000000000000000000000000000000000000000000000000000000000000004040000000000000000000000000000000000000000000000000000000000000",
      "type": "0x2",
      "transactionHash": "0x2d701d8f28e20d68a74d569bf8e7a04c762ff15f0186d4c46878d5717968378b",
      "transactionIndex": "0x0",
      "blockHash": "0xb11741f3fd8d511f8bcb627410b4f8e8e591b652ac5f4102c59059028e97bb0e",
      "blockNumber": "0x1eb836",
      "gasUsed": "0xe18e",
      "effectiveGasPrice": "0x0",
      "from": "0x0990be6db8c785fbbf9ded8baec612a10cae814b",
      "to": "0x6f475642a6e85809b1c36fa62763669b1b48dd5b",
      "contractAddress": null
    },
    {
      "status": "0x1",
      "cumulativeGasUsed": "0xfba1",
      "logs": [
        {
          "address": "0x6f475642a6e85809b1c36fa62763669b1b48dd5b",
          "topics": [
            "0xcd6f92f5ac6185a5acfa02c92090746cec64d777269cbcd0ed031e396657a1c2"
          ],
          "data": "0x00000000000000000000000090581eca9469d8d7f5d3b60f4715027adfcf7927000000000000000000000000000000000000000000000000000000000000762f00000000000000000000000015e51701f245f6d5bd0fee87bcaf55b0841451b3",
          "blockHash": "0xd229414db6510ee242466ec4167ebf246f51cb6f0ff1ffd642812270edf3f341",
          "blockNumber": "0x1eb838",
          "transactionHash": "0xeb682425e0cf99bb00c4cb77b8186e3d76aa422351f3b3fc1537d9134380bbba",
          "transactionIndex": "0x0",
          "logIndex": "0x0",
          "removed": false
        },
        {
          "address": "0x6f475642a6e85809b1c36fa62763669b1b48dd5b",
          "topics": [
            "0x4e0a5bbfa0c11a64effb1ada324b5437a17272e1aed9320398715ef71bb20928"
          ],
          "data": "0x00000000000000000000000090581eca9469d8d7f5d3b60f4715027adfcf7927000000000000000000000000000000000000000000000000000000000000762f00000000000000000000000000000000000000000000000000000000000000000000000000000000000000000000000000000000000000000000000000000000",
          "blockHash": "0xd229414db6510ee242466ec4167ebf246f51cb6f0ff1ffd642812270edf3f341",
          "blockNumber": "0x1eb838",
          "transactionHash": "0xeb682425e0cf99bb00c4cb77b8186e3d76aa422351f3b3fc1537d9134380bbba",
          "transactionIndex": "0x0",
          "logIndex": "0x1",
          "removed": false
        }
      ],
      "logsBloom": "0x00000000000000000000020800000000000000000000000000000000000000020400000000000000000000000000000000000000000000000000000000000000000000000000000000000000000000000140000000800000000000000000000000000000000000000000000000000000000000000000000000000000000000100000000000000000000000000000000000000000000000000000000000000000000000000000000000000000000000000000000000000000000000000000000000000000000000000000000000000000000000000000000000000000000000004000000000000000000000000000000000000000000000000000000000000000",
      "type": "0x2",
      "transactionHash": "0xeb682425e0cf99bb00c4cb77b8186e3d76aa422351f3b3fc1537d9134380bbba",
      "transactionIndex": "0x0",
      "blockHash": "0xd229414db6510ee242466ec4167ebf246f51cb6f0ff1ffd642812270edf3f341",
      "blockNumber": "0x1eb838",
      "gasUsed": "0xfba1",
      "effectiveGasPrice": "0x0",
      "from": "0x0990be6db8c785fbbf9ded8baec612a10cae814b",
      "to": "0x6f475642a6e85809b1c36fa62763669b1b48dd5b",
      "contractAddress": null
    },
    {
      "status": "0x1",
      "cumulativeGasUsed": "0xa054",
      "logs": [
        {
          "address": "0x6f475642a6e85809b1c36fa62763669b1b48dd5b",
          "topics": [
            "0x6ee10e9ed4d6ce9742703a498707862f4b00f1396a87195eb93267b3d7983981"
          ],
          "data": "0x00000000000000000000000064445f0aecc51e94ad52d8ac56b7190e764e561a0000000000000000000000000c46f54bf9ef8fd58e2d294b8cea488204ecb3d8",
          "blockHash": "0x99a2f59b98c2175fff87bd3ce18046818958f199dd03cf1b88401e82eb4585a1",
          "blockNumber": "0x1eb83a",
          "transactionHash": "0x161b1636044e385cf2a30c959f4d82e14bfddbda549a5a019414ccd4a99895d0",
          "transactionIndex": "0x0",
          "logIndex": "0x0",
          "removed": false
        }
      ],
      "logsBloom": "0x00000000000000000000000000000000000000000000000000800000000000000000000000000000000000000000000000000002000000000000000000000000000000000000000000000000000000000140000000000000000000000000000000000000000000000000000000000000000000000000000000000000000000000000000000000000000000000000000000000000000000000000000000000000000000000000000000000000000000000000000000000000000000000000000400000000000000000000000000000000000000000000000000000000000000004000000000000000000000000000000000000000000000000000000000000000",
      "type": "0x2",
      "transactionHash": "0x161b1636044e385cf2a30c959f4d82e14bfddbda549a5a019414ccd4a99895d0",
      "transactionIndex": "0x0",
      "blockHash": "0x99a2f59b98c2175fff87bd3ce18046818958f199dd03cf1b88401e82eb4585a1",
      "blockNumber": "0x1eb83a",
      "gasUsed": "0xa054",
      "effectiveGasPrice": "0x0",
      "from": "0x0990be6db8c785fbbf9ded8baec612a10cae814b",
      "to": "0x64445f0aecc51e94ad52d8ac56b7190e764e561a",
      "contractAddress": null
    },
    {
      "status": "0x1",
      "cumulativeGasUsed": "0x8c5d",
      "logs": [
        {
          "address": "0x64445f0aecc51e94ad52d8ac56b7190e764e561a",
          "topics": [
            "0x8be0079c531659141344cd1fd0a4f28419497f9722a3daafe3b4186f6b6457e0",
            "0x0000000000000000000000000990be6db8c785fbbf9ded8baec612a10cae814b",
            "0x0000000000000000000000000c46f54bf9ef8fd58e2d294b8cea488204ecb3d8"
          ],
          "data": "0x",
          "blockHash": "0x40a8a8d6c28bfd007c0fe4e8bf109855fe3a5ece654189b937c4ddbedaa6cb5d",
          "blockNumber": "0x1eb83c",
          "transactionHash": "0x4d03571eafb479433f0cefa3f53e9e7aa0525370bad503375c525bb1ee151879",
          "transactionIndex": "0x0",
          "logIndex": "0x0",
          "removed": false
        }
      ],
      "logsBloom": "0x00000000000000000000000000000000000000002000000000800000000000000000000000000000000000000000000000800000000000000000000000000001002000000000000000000000400000000001000000000000000000000000000000000000000000000000000000000000000000000000000000000000000000400000000000000000000000000000000000004000000000000000000000000000000000000000000000000008000000000000000000000000000000000000000000000000000000000000000000000000000000000000000000000000000000000000000000000000000000000000000000000008000000000000400000000000",
      "type": "0x2",
      "transactionHash": "0x4d03571eafb479433f0cefa3f53e9e7aa0525370bad503375c525bb1ee151879",
      "transactionIndex": "0x0",
      "blockHash": "0x40a8a8d6c28bfd007c0fe4e8bf109855fe3a5ece654189b937c4ddbedaa6cb5d",
      "blockNumber": "0x1eb83c",
      "gasUsed": "0x8c5d",
      "effectiveGasPrice": "0x0",
      "from": "0x0990be6db8c785fbbf9ded8baec612a10cae814b",
      "to": "0x64445f0aecc51e94ad52d8ac56b7190e764e561a",
      "contractAddress": null
    },
    {
      "status": "0x1",
      "cumulativeGasUsed": "0xa054",
      "logs": [
        {
          "address": "0x6f475642a6e85809b1c36fa62763669b1b48dd5b",
          "topics": [
            "0x6ee10e9ed4d6ce9742703a498707862f4b00f1396a87195eb93267b3d7983981"
          ],
          "data": "0x0000000000000000000000005bff88ca1442c2496f7e475e9e7786383bc070c00000000000000000000000000c46f54bf9ef8fd58e2d294b8cea488204ecb3d8",
          "blockHash": "0xf844d4ae05f69918626f747fb5da6d4a45830635a3e959aca83f3d40e130a3af",
          "blockNumber": "0x1eb83e",
          "transactionHash": "0x83b1a2c3541c9aa76ea5ec9b5f845ebf3b3a74e1cf203bb26abe5a950ada34fc",
          "transactionIndex": "0x0",
          "logIndex": "0x0",
          "removed": false
        }
      ],
      "logsBloom": "0x00000000000000000000000000000000000000000000000000800000000000000000000000000000000000000000000000000002000000000000000000000000000000000000000000000000000000000140000000000000000000000000000000000000000000000000000000000000000000000000000000000000000000000000000000000000000000000000000000000000000000000000000000000000000000000000000000000000000000000000000000000000000000000000000400000000000000000000000000000000000000000000000000000000000000004000000000000000000000000000000000000000000000000000000000000000",
      "type": "0x2",
      "transactionHash": "0x83b1a2c3541c9aa76ea5ec9b5f845ebf3b3a74e1cf203bb26abe5a950ada34fc",
      "transactionIndex": "0x0",
      "blockHash": "0xf844d4ae05f69918626f747fb5da6d4a45830635a3e959aca83f3d40e130a3af",
      "blockNumber": "0x1eb83e",
      "gasUsed": "0xa054",
      "effectiveGasPrice": "0x0",
      "from": "0x0990be6db8c785fbbf9ded8baec612a10cae814b",
      "to": "0x5bff88ca1442c2496f7e475e9e7786383bc070c0",
      "contractAddress": null
    },
    {
      "status": "0x1",
      "cumulativeGasUsed": "0x8c5d",
      "logs": [
        {
          "address": "0x5bff88ca1442c2496f7e475e9e7786383bc070c0",
          "topics": [
            "0x8be0079c531659141344cd1fd0a4f28419497f9722a3daafe3b4186f6b6457e0",
            "0x0000000000000000000000000990be6db8c785fbbf9ded8baec612a10cae814b",
            "0x0000000000000000000000000c46f54bf9ef8fd58e2d294b8cea488204ecb3d8"
          ],
          "data": "0x",
          "blockHash": "0x2e26ea7d47504882c75f05cf1cd1a7ebafa64cd82f0cfbd542095c4c41656c03",
          "blockNumber": "0x1eb841",
          "transactionHash": "0xd90eb6f3e60f4d48c8d88a792dbdc9d3d2f2a548c2e1494e24cafbadaebaeadb",
          "transactionIndex": "0x0",
          "logIndex": "0x0",
          "removed": false
        }
      ],
      "logsBloom": "0x00000000000000000000000000000000000000002000000000800000000000000000000000000000000000000000000000800000000000000000000000000001000000000000000000000000400000000001000000000000000000000000000000000000000000000000000000000000000000000000000000000000000000400000000000000000000000000000000000004000000000000000000000000000000000000000000000000000000000000000000000000000000000000010000000000000000000000000000000000000000000800000000000000000000000000000000000000000000000000000000000000000000000000000400000000800",
      "type": "0x2",
      "transactionHash": "0xd90eb6f3e60f4d48c8d88a792dbdc9d3d2f2a548c2e1494e24cafbadaebaeadb",
      "transactionIndex": "0x0",
      "blockHash": "0x2e26ea7d47504882c75f05cf1cd1a7ebafa64cd82f0cfbd542095c4c41656c03",
      "blockNumber": "0x1eb841",
      "gasUsed": "0x8c5d",
      "effectiveGasPrice": "0x0",
      "from": "0x0990be6db8c785fbbf9ded8baec612a10cae814b",
      "to": "0x5bff88ca1442c2496f7e475e9e7786383bc070c0",
      "contractAddress": null
    },
    {
      "status": "0x1",
      "cumulativeGasUsed": "0xa054",
      "logs": [
        {
          "address": "0x6f475642a6e85809b1c36fa62763669b1b48dd5b",
          "topics": [
            "0x6ee10e9ed4d6ce9742703a498707862f4b00f1396a87195eb93267b3d7983981"
          ],
          "data": "0x0000000000000000000000003ec3849c33291a9ef4c5db86de593eb4a37fde450000000000000000000000000c46f54bf9ef8fd58e2d294b8cea488204ecb3d8",
          "blockHash": "0x98897d4515d5f074c9427d1677cd627474598f4986a5ede15be0740ff8074410",
          "blockNumber": "0x1eb844",
          "transactionHash": "0xa6a53b76e217ef90c05f8bf040e14fb7f5b21fa2c6deeae8966e1937691827fa",
          "transactionIndex": "0x0",
          "logIndex": "0x0",
          "removed": false
        }
      ],
      "logsBloom": "0x00000000000000000000000000000000000000000000000000800000000000000000000000000000000000000000000000000002000000000000000000000000000000000000000000000000000000000140000000000000000000000000000000000000000000000000000000000000000000000000000000000000000000000000000000000000000000000000000000000000000000000000000000000000000000000000000000000000000000000000000000000000000000000000000400000000000000000000000000000000000000000000000000000000000000004000000000000000000000000000000000000000000000000000000000000000",
      "type": "0x2",
      "transactionHash": "0xa6a53b76e217ef90c05f8bf040e14fb7f5b21fa2c6deeae8966e1937691827fa",
      "transactionIndex": "0x0",
      "blockHash": "0x98897d4515d5f074c9427d1677cd627474598f4986a5ede15be0740ff8074410",
      "blockNumber": "0x1eb844",
      "gasUsed": "0xa054",
      "effectiveGasPrice": "0x0",
      "from": "0x0990be6db8c785fbbf9ded8baec612a10cae814b",
      "to": "0x3ec3849c33291a9ef4c5db86de593eb4a37fde45",
      "contractAddress": null
    },
    {
      "status": "0x1",
      "cumulativeGasUsed": "0x8c5d",
      "logs": [
        {
          "address": "0x3ec3849c33291a9ef4c5db86de593eb4a37fde45",
          "topics": [
            "0x8be0079c531659141344cd1fd0a4f28419497f9722a3daafe3b4186f6b6457e0",
            "0x0000000000000000000000000990be6db8c785fbbf9ded8baec612a10cae814b",
            "0x0000000000000000000000000c46f54bf9ef8fd58e2d294b8cea488204ecb3d8"
          ],
          "data": "0x",
          "blockHash": "0x0a9211c1b3d0c5d57df121afe8e1de0eb2b57184b349319fff4163a4f15530ea",
          "blockNumber": "0x1eb846",
          "transactionHash": "0xa63c5074fa7f07cc17d137a70f97894ca5a1a45898fb40165a9d2899fa89fc17",
          "transactionIndex": "0x0",
          "logIndex": "0x0",
          "removed": false
        }
      ],
      "logsBloom": "0x00000000000000000000000000002000000000002000000000800000000000000000000000000000000000000000000000800000000000000000000000000001000000000000000000000000400000000001000000000000000000000000000000000000000000000000000000000000000000000000000000000000000000400000000000000000000000000000000000004000000020000040000000000000000000000000000000000000000000000000000000000000000000000000000000000000000000000000000000000000000000000000000000000000000000000000000000000000000000000000000000000000000000000000400000000000",
      "type": "0x2",
      "transactionHash": "0xa63c5074fa7f07cc17d137a70f97894ca5a1a45898fb40165a9d2899fa89fc17",
      "transactionIndex": "0x0",
      "blockHash": "0x0a9211c1b3d0c5d57df121afe8e1de0eb2b57184b349319fff4163a4f15530ea",
      "blockNumber": "0x1eb846",
      "gasUsed": "0x8c5d",
      "effectiveGasPrice": "0x0",
      "from": "0x0990be6db8c785fbbf9ded8baec612a10cae814b",
      "to": "0x3ec3849c33291a9ef4c5db86de593eb4a37fde45",
      "contractAddress": null
    },
    {
      "status": "0x1",
      "cumulativeGasUsed": "0xa027",
      "logs": [
        {
          "address": "0x6f475642a6e85809b1c36fa62763669b1b48dd5b",
          "topics": [
            "0x6ee10e9ed4d6ce9742703a498707862f4b00f1396a87195eb93267b3d7983981"
          ],
          "data": "0x00000000000000000000000080eede496655fb9047dd39d9f418d5483ed600df0000000000000000000000000c46f54bf9ef8fd58e2d294b8cea488204ecb3d8",
          "blockHash": "0x29d3a479f72b92a7bd82c8e6ccc5106e25e535147cde738ff0acbb02a50a8f5b",
          "blockNumber": "0x1eb848",
          "transactionHash": "0xa821e98bdf7d8e8fe0f19cb10c4191990b3d6aa6ea62dcb3c29d9ce578dd6107",
          "transactionIndex": "0x0",
          "logIndex": "0x0",
          "removed": false
        }
      ],
      "logsBloom": "0x00000000000000000000000000000000000000000000000000800000000000000000000000000000000000000000000000000002000000000000000000000000000000000000000000000000000000000140000000000000000000000000000000000000000000000000000000000000000000000000000000000000000000000000000000000000000000000000000000000000000000000000000000000000000000000000000000000000000000000000000000000000000000000000000400000000000000000000000000000000000000000000000000000000000000004000000000000000000000000000000000000000000000000000000000000000",
      "type": "0x2",
      "transactionHash": "0xa821e98bdf7d8e8fe0f19cb10c4191990b3d6aa6ea62dcb3c29d9ce578dd6107",
      "transactionIndex": "0x0",
      "blockHash": "0x29d3a479f72b92a7bd82c8e6ccc5106e25e535147cde738ff0acbb02a50a8f5b",
      "blockNumber": "0x1eb848",
      "gasUsed": "0xa027",
      "effectiveGasPrice": "0x0",
      "from": "0x0990be6db8c785fbbf9ded8baec612a10cae814b",
      "to": "0x80eede496655fb9047dd39d9f418d5483ed600df",
      "contractAddress": null
    },
    {
      "status": "0x1",
      "cumulativeGasUsed": "0x8c73",
      "logs": [
        {
          "address": "0x80eede496655fb9047dd39d9f418d5483ed600df",
          "topics": [
            "0x8be0079c531659141344cd1fd0a4f28419497f9722a3daafe3b4186f6b6457e0",
            "0x0000000000000000000000000990be6db8c785fbbf9ded8baec612a10cae814b",
            "0x0000000000000000000000000c46f54bf9ef8fd58e2d294b8cea488204ecb3d8"
          ],
          "data": "0x",
          "blockHash": "0x43019b145de79ccb3a33ee14d47284996db0c3cb432d3a3dca528ef4c69e4e39",
          "blockNumber": "0x1eb84a",
          "transactionHash": "0x7e0b2ec39512683f22b6fb4d85f624d8a54d8b71f4c920059c363bf160c510e0",
          "transactionIndex": "0x0",
          "logIndex": "0x0",
          "removed": false
        }
      ],
      "logsBloom": "0x00000000000000000000000000000000000000002000000000800000000000000000000000000000000000000800000000800000000000000000000200000001000000000000000000000000400000000001000000000000000000000000000000000000000000000000000000000000000000000000000000000000010000400000000000000000000000000000000000004000000000000000000000000000000000000000000000000000000000000000000000000000000000000000000000000000000000000000000000000000000000000000000000000000000000000000000000000000000000000000000000000000000000000000400000000000",
      "type": "0x2",
      "transactionHash": "0x7e0b2ec39512683f22b6fb4d85f624d8a54d8b71f4c920059c363bf160c510e0",
      "transactionIndex": "0x0",
      "blockHash": "0x43019b145de79ccb3a33ee14d47284996db0c3cb432d3a3dca528ef4c69e4e39",
      "blockNumber": "0x1eb84a",
      "gasUsed": "0x8c73",
      "effectiveGasPrice": "0x0",
      "from": "0x0990be6db8c785fbbf9ded8baec612a10cae814b",
      "to": "0x80eede496655fb9047dd39d9f418d5483ed600df",
      "contractAddress": null
    },
    {
      "status": "0x1",
      "cumulativeGasUsed": "0xa054",
      "logs": [
        {
          "address": "0x6f475642a6e85809b1c36fa62763669b1b48dd5b",
          "topics": [
            "0x6ee10e9ed4d6ce9742703a498707862f4b00f1396a87195eb93267b3d7983981"
          ],
          "data": "0x00000000000000000000000043edd7f3831b08fe70b7555ddd373c8bf65a90500000000000000000000000000c46f54bf9ef8fd58e2d294b8cea488204ecb3d8",
          "blockHash": "0x37e987ed1dfc1d1f353d596dda522624cf9ae8ce3ccd7b2bcbbd07ad6bc4db88",
          "blockNumber": "0x1eb84c",
          "transactionHash": "0x5581230837d883c61e42c4bcda3ad2da51c965ad713d002db30ede8776963828",
          "transactionIndex": "0x0",
          "logIndex": "0x0",
          "removed": false
        }
      ],
      "logsBloom": "0x00000000000000000000000000000000000000000000000000800000000000000000000000000000000000000000000000000002000000000000000000000000000000000000000000000000000000000140000000000000000000000000000000000000000000000000000000000000000000000000000000000000000000000000000000000000000000000000000000000000000000000000000000000000000000000000000000000000000000000000000000000000000000000000000400000000000000000000000000000000000000000000000000000000000000004000000000000000000000000000000000000000000000000000000000000000",
      "type": "0x2",
      "transactionHash": "0x5581230837d883c61e42c4bcda3ad2da51c965ad713d002db30ede8776963828",
      "transactionIndex": "0x0",
      "blockHash": "0x37e987ed1dfc1d1f353d596dda522624cf9ae8ce3ccd7b2bcbbd07ad6bc4db88",
      "blockNumber": "0x1eb84c",
      "gasUsed": "0xa054",
      "effectiveGasPrice": "0x0",
      "from": "0x0990be6db8c785fbbf9ded8baec612a10cae814b",
      "to": "0x43edd7f3831b08fe70b7555ddd373c8bf65a9050",
      "contractAddress": null
    },
    {
      "status": "0x1",
      "cumulativeGasUsed": "0x8c5d",
      "logs": [
        {
          "address": "0x43edd7f3831b08fe70b7555ddd373c8bf65a9050",
          "topics": [
            "0x8be0079c531659141344cd1fd0a4f28419497f9722a3daafe3b4186f6b6457e0",
            "0x0000000000000000000000000990be6db8c785fbbf9ded8baec612a10cae814b",
            "0x0000000000000000000000000c46f54bf9ef8fd58e2d294b8cea488204ecb3d8"
          ],
          "data": "0x",
          "blockHash": "0xd6186e3b600d1e67b3da640ffece6029aed1e3c2a2dd22466eb9e1e757838cef",
          "blockNumber": "0x1eb84e",
          "transactionHash": "0xea9a6962ce3af821ad44a06de943b52766c281eb56e404d11660c4eaf4ed15ce",
          "transactionIndex": "0x0",
          "logIndex": "0x0",
          "removed": false
        }
      ],
      "logsBloom": "0x00000000000000000000000000000000000000002000000000800000000000000000000000000000000000000000000000800000000000000000000000000001000000000000000000000000400000000001000000000000000000000000000000000000000000000000000000000000000000000000000000000000000000400000000000000000000000000000000000004000000000000000000000000000000000000000000002000000000000000000000000000000000000000000000000000000000000000000000000000000000000000000000000000000000000000000000000000000000000040000000000000000000000000000400000080000",
      "type": "0x2",
      "transactionHash": "0xea9a6962ce3af821ad44a06de943b52766c281eb56e404d11660c4eaf4ed15ce",
      "transactionIndex": "0x0",
      "blockHash": "0xd6186e3b600d1e67b3da640ffece6029aed1e3c2a2dd22466eb9e1e757838cef",
      "blockNumber": "0x1eb84e",
      "gasUsed": "0x8c5d",
      "effectiveGasPrice": "0x0",
      "from": "0x0990be6db8c785fbbf9ded8baec612a10cae814b",
      "to": "0x43edd7f3831b08fe70b7555ddd373c8bf65a9050",
      "contractAddress": null
    },
    {
      "status": "0x1",
      "cumulativeGasUsed": "0xa054",
      "logs": [
        {
          "address": "0x6f475642a6e85809b1c36fa62763669b1b48dd5b",
          "topics": [
            "0x6ee10e9ed4d6ce9742703a498707862f4b00f1396a87195eb93267b3d7983981"
          ],
          "data": "0x00000000000000000000000090581eca9469d8d7f5d3b60f4715027adfcf79270000000000000000000000000c46f54bf9ef8fd58e2d294b8cea488204ecb3d8",
          "blockHash": "0xd496f4a8207a0b595ecdb203e45b425022129a60784367185cb69024044c6c9d",
          "blockNumber": "0x1eb850",
          "transactionHash": "0x1bfd6cc0a752cabe95a0d8ff3e1eb8c6a7445cd01e5dd759bba3b0c1f23aee2e",
          "transactionIndex": "0x0",
          "logIndex": "0x0",
          "removed": false
        }
      ],
      "logsBloom": "0x00000000000000000000000000000000000000000000000000800000000000000000000000000000000000000000000000000002000000000000000000000000000000000000000000000000000000000140000000000000000000000000000000000000000000000000000000000000000000000000000000000000000000000000000000000000000000000000000000000000000000000000000000000000000000000000000000000000000000000000000000000000000000000000000400000000000000000000000000000000000000000000000000000000000000004000000000000000000000000000000000000000000000000000000000000000",
      "type": "0x2",
      "transactionHash": "0x1bfd6cc0a752cabe95a0d8ff3e1eb8c6a7445cd01e5dd759bba3b0c1f23aee2e",
      "transactionIndex": "0x0",
      "blockHash": "0xd496f4a8207a0b595ecdb203e45b425022129a60784367185cb69024044c6c9d",
      "blockNumber": "0x1eb850",
      "gasUsed": "0xa054",
      "effectiveGasPrice": "0x0",
      "from": "0x0990be6db8c785fbbf9ded8baec612a10cae814b",
      "to": "0x90581eca9469d8d7f5d3b60f4715027adfcf7927",
      "contractAddress": null
    },
    {
      "status": "0x1",
      "cumulativeGasUsed": "0x8c5d",
      "logs": [
        {
          "address": "0x90581eca9469d8d7f5d3b60f4715027adfcf7927",
          "topics": [
            "0x8be0079c531659141344cd1fd0a4f28419497f9722a3daafe3b4186f6b6457e0",
            "0x0000000000000000000000000990be6db8c785fbbf9ded8baec612a10cae814b",
            "0x0000000000000000000000000c46f54bf9ef8fd58e2d294b8cea488204ecb3d8"
          ],
          "data": "0x",
          "blockHash": "0x5d740b5af361a638360ced04368421108365619d8467e7acd2891a2e5d82cc94",
          "blockNumber": "0x1eb852",
          "transactionHash": "0x7eb3d67d427ca3b22440a19faa7751d555f1d7c60c625ab3f9b2239b8bcf0c98",
          "transactionIndex": "0x0",
          "logIndex": "0x0",
          "removed": false
        }
      ],
      "logsBloom": "0x00000000000000000000000000000000000000002000000000800000000000000000000000000000000000000000000000800000000000000000000000000001000000000000000000000000400000000001000000000000000000000000000000000000000000000000000000000000000000000000000000000000000000400000000000000004000010000000000000004000000000000000000000000000000000000000000000000000000000000000000000000000000000000000000000000000000000000000000000000000000000000000000000000000000000000000000000000000000000000000000000400000000000000000400000000000",
      "type": "0x2",
      "transactionHash": "0x7eb3d67d427ca3b22440a19faa7751d555f1d7c60c625ab3f9b2239b8bcf0c98",
      "transactionIndex": "0x0",
      "blockHash": "0x5d740b5af361a638360ced04368421108365619d8467e7acd2891a2e5d82cc94",
      "blockNumber": "0x1eb852",
      "gasUsed": "0x8c5d",
      "effectiveGasPrice": "0x0",
      "from": "0x0990be6db8c785fbbf9ded8baec612a10cae814b",
      "to": "0x90581eca9469d8d7f5d3b60f4715027adfcf7927",
      "contractAddress": null
    },
    {
      "status": "0x1",
      "cumulativeGasUsed": "0x6fb7",
      "logs": [
        {
          "address": "0x223a681fc5c5522c85c96157c0efa18cd6c5405c",
          "topics": [
            "0x8be0079c531659141344cd1fd0a4f28419497f9722a3daafe3b4186f6b6457e0",
            "0x0000000000000000000000000990be6db8c785fbbf9ded8baec612a10cae814b",
            "0x0000000000000000000000000c46f54bf9ef8fd58e2d294b8cea488204ecb3d8"
          ],
          "data": "0x",
          "blockHash": "0xb16e6d3d031d8e2b3ab33cd612ef78ef4e5c6a6e64c559f8f516fb2a9e2e077a",
          "blockNumber": "0x1eb854",
          "transactionHash": "0x9084f4ab274eb6c3f9afd00384ca9b154b2e2bc282960340808f6f537584a6e3",
          "transactionIndex": "0x0",
          "logIndex": "0x0",
          "removed": false
        }
      ],
      "logsBloom": "0x00000000000000000000000000000000000000002000000000800000000000000000000000000000000000000000000000800000000000000000000000200001000000000000000000000000400000000001000000000000000000020000000000000000000000000000000000000000000000000000000000000000000000400000000000000000000000000000000000004000000000000000000000000000000000000000000000000000000000000000000000000000000000000000000000000000000000000000000000000000000000000000000000000000000000000000000000000000000000000000000200000000000000000000400000000000",
      "type": "0x2",
      "transactionHash": "0x9084f4ab274eb6c3f9afd00384ca9b154b2e2bc282960340808f6f537584a6e3",
      "transactionIndex": "0x0",
      "blockHash": "0xb16e6d3d031d8e2b3ab33cd612ef78ef4e5c6a6e64c559f8f516fb2a9e2e077a",
      "blockNumber": "0x1eb854",
      "gasUsed": "0x6fb7",
      "effectiveGasPrice": "0x0",
      "from": "0x0990be6db8c785fbbf9ded8baec612a10cae814b",
      "to": "0x223a681fc5c5522c85c96157c0efa18cd6c5405c",
      "contractAddress": null
    }
  ],
  "libraries": [],
  "pending": [],
  "returns": {},
  "timestamp": 1763157699649,
  "chain": 988,
  "commit": "3a3d71d"
}