{
  "transactions": [
    {
      "hash": "0x482fed74e15e3e0162b2c49d6e9fc19132dfc8b057ade9fb8a1833ac966971a0",
      "transactionType": "CALL",
      "contractName": null,
      "contractAddress": "0x0768c16445b41137f98ab68ca545c0afd65a7513",
      "function": "setEnforcedOptions((uint32,uint16,bytes)[])",
      "arguments": [
        "[(40161, 1, 0x00030100110100000000000000000000000000030d40), (40161, 2, 0x0003010011010000000000000000000000000003d090)]"
      ],
      "transaction": {
        "from": "0x009ff4940727c274424c16999f9632223d820b0b",
        "to": "0x0768c16445b41137f98ab68ca545c0afd65a7513",
        "gas": "0xf5ec",
        "value": "0x0",
        "input": "0xb98bd07000000000000000000000000000000000000000000000000000000000000000200000000000000000000000000000000000000000000000000000000000000002000000000000000000000000000000000000000000000000000000000000004000000000000000000000000000000000000000000000000000000000000000e00000000000000000000000000000000000000000000000000000000000009ce100000000000000000000000000000000000000000000000000000000000000010000000000000000000000000000000000000000000000000000000000000060000000000000000000000000000000000000000000000000000000000000001600030100110100000000000000000000000000030d40000000000000000000000000000000000000000000000000000000000000000000000000000000009ce10000000000000000000000000000000000000000000000000000000000000002000000000000000000000000000000000000000000000000000000000000006000000000000000000000000000000000000000000000000000000000000000160003010011010000000000000000000000000003d09000000000000000000000",
        "nonce": "0x18",
        "chainId": "0x66eee"
      },
      "additionalContracts": [],
      "isFixedGasLimit": false
    },
    {
      "hash": "0xffaca3edb935720f7c6200992886e7219688c95980af1be194d957cc60fd7933",
      "transactionType": "CALL",
      "contractName": null,
      "contractAddress": "0x0768c16445b41137f98ab68ca545c0afd65a7513",
      "function": "setPeer(uint32,bytes32)",
      "arguments": [
        "40161",
        "0x00000000000000000000000029a5134d3b22f47ad52e0a22a63247363e9f35c2"
      ],
      "transaction": {
        "from": "0x009ff4940727c274424c16999f9632223d820b0b",
        "to": "0x0768c16445b41137f98ab68ca545c0afd65a7513",
        "gas": "0xb420",
        "value": "0x0",
        "input": "0x3400288b0000000000000000000000000000000000000000000000000000000000009ce100000000000000000000000029a5134d3b22f47ad52e0a22a63247363e9f35c2",
        "nonce": "0x19",
        "chainId": "0x66eee"
      },
      "additionalContracts": [],
      "isFixedGasLimit": false
    },
    {
      "hash": "0x7fb745da84488941b8100e3fbc547caeed2295f562e1aa97344094bfff3df60e",
      "transactionType": "CALL",
      "contractName": null,
      "contractAddress": "0x6edce65403992e310a62460808c4b910d972f10f",
      "function": "setConfig(address,address,(uint32,uint32,bytes)[])",
      "arguments": [
        "0x0768C16445B41137F98Ab68CA545C0afD65A7513",
        "0x75Db67CDab2824970131D5aa9CECfC9F69c69636",
        "[(40161, 2, 0x0000000000000000000000000000000000000000000000000000000000000020000000000000000000000000000000000000000000000000000000000000000000000000000000000000000000000000000000000000000000000000000000020000000000000000000000000000000000000000000000000000000000000000000000000000000000000000000000000000000000000000000000000000000000000000000000000000000000000000000000000000000000000000000000c00000000000000000000000000000000000000000000000000000000000000120000000000000000000000000000000000000000000000000000000000000000200000000000000000000000053f488e93b4f1b60e8e83aa374dbe1780a1ee8a8000000000000000000000000c7e652a4ac4f3a872024ba10b13ea0c53731af830000000000000000000000000000000000000000000000000000000000000000)]"
      ],
      "transaction": {
        "from": "0x009ff4940727c274424c16999f9632223d820b0b",
        "to": "0x6edce65403992e310a62460808c4b910d972f10f",
        "gas": "0x13fea",
        "value": "0x0",
        "input": "0x6dbd9f900000000000000000000000000768c16445b41137f98ab68ca545c0afd65a751300000000000000000000000075db67cdab2824970131d5aa9cecfc9f69c696360000000000000000000000000000000000000000000000000000000000000060000000000000000000000000000000000000000000000000000000000000000100000000000000000000000000000000000000000000000000000000000000200000000000000000000000000000000000000000000000000000000000009ce10000000000000000000000000000000000000000000000000000000000000002000000000000000000000000000000000000000000000000000000000000006000000000000000000000000000000000000000000000000000000000000001600000000000000000000000000000000000000000000000000000000000000020000000000000000000000000000000000000000000000000000000000000000000000000000000000000000000000000000000000000000000000000000000020000000000000000000000000000000000000000000000000000000000000000000000000000000000000000000000000000000000000000000000000000000000000000000000000000000000000000000000000000000000000000000000c00000000000000000000000000000000000000000000000000000000000000120000000000000000000000000000000000000000000000000000000000000000200000000000000000000000053f488e93b4f1b60e8e83aa374dbe1780a1ee8a8000000000000000000000000c7e652a4ac4f3a872024ba10b13ea0c53731af830000000000000000000000000000000000000000000000000000000000000000",
        "nonce": "0x1a",
        "chainId": "0x66eee"
      },
      "additionalContracts": [],
      "isFixedGasLimit": false
    },
    {
      "hash": "0x4415d0ab4019a9c75e5b185192768aef28107879423f379e1948a1b855120fd2",
      "transactionType": "CALL",
      "contractName": null,
      "contractAddress": "0x6edce65403992e310a62460808c4b910d972f10f",
      "function": "setConfig(address,address,(uint32,uint32,bytes)[])",
      "arguments": [
        "0x0768C16445B41137F98Ab68CA545C0afD65A7513",
        "0x4f7cd4DA19ABB31b0eC98b9066B9e857B1bf9C0E",
        "[(40161, 2, 0x0000000000000000000000000000000000000000000000000000000000000020000000000000000000000000000000000000000000000000000000000000000000000000000000000000000000000000000000000000000000000000000000020000000000000000000000000000000000000000000000000000000000000000000000000000000000000000000000000000000000000000000000000000000000000000000000000000000000000000000000000000000000000000000000c00000000000000000000000000000000000000000000000000000000000000120000000000000000000000000000000000000000000000000000000000000000200000000000000000000000053f488e93b4f1b60e8e83aa374dbe1780a1ee8a8000000000000000000000000c7e652a4ac4f3a872024ba10b13ea0c53731af830000000000000000000000000000000000000000000000000000000000000000)]"
      ],
      "transaction": {
        "from": "0x009ff4940727c274424c16999f9632223d820b0b",
        "to": "0x6edce65403992e310a62460808c4b910d972f10f",
        "gas": "0x14133",
        "value": "0x0",
        "input": "0x6dbd9f900000000000000000000000000768c16445b41137f98ab68ca545c0afd65a75130000000000000000000000004f7cd4da19abb31b0ec98b9066b9e857b1bf9c0e0000000000000000000000000000000000000000000000000000000000000060000000000000000000000000000000000000000000000000000000000000000100000000000000000000000000000000000000000000000000000000000000200000000000000000000000000000000000000000000000000000000000009ce10000000000000000000000000000000000000000000000000000000000000002000000000000000000000000000000000000000000000000000000000000006000000000000000000000000000000000000000000000000000000000000001600000000000000000000000000000000000000000000000000000000000000020000000000000000000000000000000000000000000000000000000000000000000000000000000000000000000000000000000000000000000000000000000020000000000000000000000000000000000000000000000000000000000000000000000000000000000000000000000000000000000000000000000000000000000000000000000000000000000000000000000000000000000000000000000c00000000000000000000000000000000000000000000000000000000000000120000000000000000000000000000000000000000000000000000000000000000200000000000000000000000053f488e93b4f1b60e8e83aa374dbe1780a1ee8a8000000000000000000000000c7e652a4ac4f3a872024ba10b13ea0c53731af830000000000000000000000000000000000000000000000000000000000000000",
        "nonce": "0x1b",
        "chainId": "0x66eee"
      },
      "additionalContracts": [],
      "isFixedGasLimit": false
    }
  ],
  "receipts": [
    {
      "status": "0x1",
      "cumulativeGasUsed": "0x82545",
      "logs": [
        {
          "address": "0x0768c16445b41137f98ab68ca545c0afd65a7513",
          "topics": [
            "0xbe4864a8e820971c0247f5992e2da559595f7bf076a21cb5928d443d2a13b674"
          ],
          "data": "0x00000000000000000000000000000000000000000000000000000000000000200000000000000000000000000000000000000000000000000000000000000002000000000000000000000000000000000000000000000000000000000000004000000000000000000000000000000000000000000000000000000000000000e00000000000000000000000000000000000000000000000000000000000009ce100000000000000000000000000000000000000000000000000000000000000010000000000000000000000000000000000000000000000000000000000000060000000000000000000000000000000000000000000000000000000000000001600030100110100000000000000000000000000030d40000000000000000000000000000000000000000000000000000000000000000000000000000000009ce10000000000000000000000000000000000000000000000000000000000000002000000000000000000000000000000000000000000000000000000000000006000000000000000000000000000000000000000000000000000000000000000160003010011010000000000000000000000000003d09000000000000000000000",
          "blockHash": "0xa244d0cfb940175e0e428e218c783cbf3ee982f7aac5cf6e86dcb1458d0d6091",
          "blockNumber": "0x8b09dd6",
          "transactionHash": "0x482fed74e15e3e0162b2c49d6e9fc19132dfc8b057ade9fb8a1833ac966971a0",
          "transactionIndex": "0x7",
          "logIndex": "0x7",
          "removed": false
        }
      ],
      "logsBloom": "0x00000000000000000000000000000000000000000000000000000000000000000000000000000000000000000000000000000000000000000000400000000000000000000000000000000000000000000000000000000000000000000000000000000000000000000000000100000000000000000000000000000000000000000000000000000000000000000000000000000000000000000000000000080000000000000000000000000000000000000000000000000000000000000020000000000000000000000000000002000000000000000000000100000000000000000000000000000000000000000000000000000000000000000000000000000000",
      "type": "0x2",
      "transactionHash": "0x482fed74e15e3e0162b2c49d6e9fc19132dfc8b057ade9fb8a1833ac966971a0",
      "transactionIndex": "0x7",
      "blockHash": "0xa244d0cfb940175e0e428e218c783cbf3ee982f7aac5cf6e86dcb1458d0d6091",
      "blockNumber": "0x8b09dd6",
      "gasUsed": "0xbbaa",
      "effectiveGasPrice": "0x5f5e100",
      "from": "0x009ff4940727c274424c16999f9632223d820b0b",
      "to": "0x0768c16445b41137f98ab68ca545c0afd65a7513",
      "contractAddress": null,
      "gasUsedForL1": "0x0",
      "l1BlockNumber": "0x7cd808",
      "timeboosted": false
    },
    {
      "status": "0x1",
      "cumulativeGasUsed": "0x8927",
      "logs": [
        {
          "address": "0x0768c16445b41137f98ab68ca545c0afd65a7513",
          "topics": [
            "0x238399d427b947898edb290f5ff0f9109849b1c3ba196a42e35f00c50a54b98b"
          ],
          "data": "0x0000000000000000000000000000000000000000000000000000000000009ce100000000000000000000000029a5134d3b22f47ad52e0a22a63247363e9f35c2",
          "blockHash": "0x6832962bd80786dd7379ed3e5ad857eea60f66a4727c8d8b55667419ed042cc3",
          "blockNumber": "0x8b09dda",
          "transactionHash": "0xffaca3edb935720f7c6200992886e7219688c95980af1be194d957cc60fd7933",
          "transactionIndex": "0x1",
          "logIndex": "0x0",
          "removed": false
        }
      ],
      "logsBloom": "0x00000000000000000000000000000000000000000000000000000000000000000000000000000000000000000000000000000000000000000800000000000000000000000000000000000000000000000000000000000000000000000000000000000000000000000000000100000000000000000000000000000000000000000000000000000000000000000000000000000000000000000000000000000000000000000000000000000000000000000000000000000000000002000020000000000000000000000000000000000000000000000000000100040000000000000000000000000000000000000000000000000000000000000000000000000000",
      "type": "0x2",
      "transactionHash": "0xffaca3edb935720f7c6200992886e7219688c95980af1be194d957cc60fd7933",
      "transactionIndex": "0x1",
      "blockHash": "0x6832962bd80786dd7379ed3e5ad857eea60f66a4727c8d8b55667419ed042cc3",
      "blockNumber": "0x8b09dda",
      "gasUsed": "0x8927",
      "effectiveGasPrice": "0x5f5e100",
      "from": "0x009ff4940727c274424c16999f9632223d820b0b",
      "to": "0x0768c16445b41137f98ab68ca545c0afd65a7513",
      "contractAddress": null,
      "gasUsedForL1": "0x0",
      "l1BlockNumber": "0x7cd809",
      "timeboosted": false
    },
    {
      "status": "0x1",
      "cumulativeGasUsed": "0x106294",
      "logs": [
        {
          "address": "0x75db67cdab2824970131d5aa9cecfc9f69c69636",
          "topics": [
            "0x82118522aa536ac0e96cc5c689407ae42b89d592aa133890a01f1509842f5081"
          ],
          "data": "0x0000000000000000000000000768c16445b41137f98ab68ca545c0afd65a75130000000000000000000000000000000000000000000000000000000000009ce10000000000000000000000000000000000000000000000000000000000000060000000000000000000000000000000000000000000000000000000000000000000000000000000000000000000000000000000000000000000000000000000020000000000000000000000000000000000000000000000000000000000000000000000000000000000000000000000000000000000000000000000000000000000000000000000000000000000000000000000000000000000000000000000c00000000000000000000000000000000000000000000000000000000000000120000000000000000000000000000000000000000000000000000000000000000200000000000000000000000053f488e93b4f1b60e8e83aa374dbe1780a1ee8a8000000000000000000000000c7e652a4ac4f3a872024ba10b13ea0c53731af830000000000000000000000000000000000000000000000000000000000000000",
          "blockHash": "0x9d107603dcd3dbbbcc015b74e7ead49f2e06185ed9876350f5ab23f6ef95888f",
          "blockNumber": "0x8b09dde",
          "transactionHash": "0x7fb745da84488941b8100e3fbc547caeed2295f562e1aa97344094bfff3df60e",
          "transactionIndex": "0xc",
          "logIndex": "0xd",
          "removed": false
        }
      ],
      "logsBloom": "0x00000000000000000000000000000000000000000000000000000000000000000000000000000000000000000000000000000000000000000000000000000000000000000000000000000000000000000000000000000000002000000000000000000000000000000000000000000000000000000000000000000000000000000000000000000000000000000000000000000000000000000000000000000000000000000000000000000002000000000000000000000000000000000000000000000000000000000000000000000000020000000000000000000040000000000000000000000000000000000000000000000000000000000000000000020010",
      "type": "0x2",
      "transactionHash": "0x7fb745da84488941b8100e3fbc547caeed2295f562e1aa97344094bfff3df60e",
      "transactionIndex": "0xc",
      "blockHash": "0x9d107603dcd3dbbbcc015b74e7ead49f2e06185ed9876350f5ab23f6ef95888f",
      "blockNumber": "0x8b09dde",
      "gasUsed": "0xf2d9",
      "effectiveGasPrice": "0x5f5e100",
      "from": "0x009ff4940727c274424c16999f9632223d820b0b",
      "to": "0x6edce65403992e310a62460808c4b910d972f10f",
      "contractAddress": null,
      "gasUsedForL1": "0x0",
      "l1BlockNumber": "0x7cd809",
      "timeboosted": false
    },
    {
      "status": "0x1",
      "cumulativeGasUsed": "0x1aa37",
      "logs": [
        {
          "address": "0x4f7cd4da19abb31b0ec98b9066b9e857b1bf9c0e",
          "topics": [
            "0x82118522aa536ac0e96cc5c689407ae42b89d592aa133890a01f1509842f5081"
          ],
          "data": "0x0000000000000000000000000768c16445b41137f98ab68ca545c0afd65a75130000000000000000000000000000000000000000000000000000000000009ce10000000000000000000000000000000000000000000000000000000000000060000000000000000000000000000000000000000000000000000000000000000000000000000000000000000000000000000000000000000000000000000000020000000000000000000000000000000000000000000000000000000000000000000000000000000000000000000000000000000000000000000000000000000000000000000000000000000000000000000000000000000000000000000000c00000000000000000000000000000000000000000000000000000000000000120000000000000000000000000000000000000000000000000000000000000000200000000000000000000000053f488e93b4f1b60e8e83aa374dbe1780a1ee8a8000000000000000000000000c7e652a4ac4f3a872024ba10b13ea0c53731af830000000000000000000000000000000000000000000000000000000000000000",
          "blockHash": "0xabe779873c8bd130c6b36f4c753b9d97329c230626528259b69c0556939a0391",
          "blockNumber": "0x8b09de2",
          "transactionHash": "0x4415d0ab4019a9c75e5b185192768aef28107879423f379e1948a1b855120fd2",
          "transactionIndex": "0x2",
          "logIndex": "0x0",
          "removed": false
        }
      ],
      "logsBloom": "0x00000000000000000000000000000000000000000000000000000000000000000000000000000000000000000000000000000000008000000000000000000000000000000000000000000000000000000000000000000000002000000000000000000000000000000000000000000000000000000000000000000000000000000000000000000000000000000000000000000000000000010000000000000000000000000000000000002002000000000000000000000000000000000000000000000000000000000000000000000000000000000000000000000000000000000000000000000000000000000000000000000000000000000000000000000010",
      "type": "0x2",
      "transactionHash": "0x4415d0ab4019a9c75e5b185192768aef28107879423f379e1948a1b855120fd2",
      "transactionIndex": "0x2",
      "blockHash": "0xabe779873c8bd130c6b36f4c753b9d97329c230626528259b69c0556939a0391",
      "blockNumber": "0x8b09de2",
      "gasUsed": "0xf3d5",
      "effectiveGasPrice": "0x5f5e100",
      "from": "0x009ff4940727c274424c16999f9632223d820b0b",
      "to": "0x6edce65403992e310a62460808c4b910d972f10f",
      "contractAddress": null,
      "gasUsedForL1": "0x0",
      "l1BlockNumber": "0x7cd809",
      "timeboosted": false
    }
  ],
  "libraries": [],
  "pending": [],
  "returns": {},
  "timestamp": 1745445525,
  "chain": 421614,
  "commit": "de9cdcd"
}