{
  "transactions": [
    {
      "hash": "0x53bf1da520c1757eab8f1c75a159285890031cebe1539c0aa2a2410b2256741a",
      "transactionType": "CALL",
      "contractName": null,
      "contractAddress": "0x0768c16445b41137f98ab68ca545c0afd65a7513",
      "function": "setEnforcedOptions((uint32,uint16,bytes)[])",
      "arguments": [
        "[(40161, 1, 0x00030100110100000000000000000000000000030d40), (40161, 2, 0x0003010011010000000000000000000000000003d090)]"
      ],
      "transaction": {
        "from": "0x009ff4940727c274424c16999f9632223d820b0b",
        "to": "0x0768c16445b41137f98ab68ca545c0afd65a7513",
        "gas": "0x1c2cc",
        "value": "0x0",
        "input": "0xb98bd07000000000000000000000000000000000000000000000000000000000000000200000000000000000000000000000000000000000000000000000000000000002000000000000000000000000000000000000000000000000000000000000004000000000000000000000000000000000000000000000000000000000000000e00000000000000000000000000000000000000000000000000000000000009ce100000000000000000000000000000000000000000000000000000000000000010000000000000000000000000000000000000000000000000000000000000060000000000000000000000000000000000000000000000000000000000000001600030100110100000000000000000000000000030d40000000000000000000000000000000000000000000000000000000000000000000000000000000009ce10000000000000000000000000000000000000000000000000000000000000002000000000000000000000000000000000000000000000000000000000000006000000000000000000000000000000000000000000000000000000000000000160003010011010000000000000000000000000003d09000000000000000000000",
        "nonce": "0x10",
        "chainId": "0x66eee"
      },
      "additionalContracts": [],
      "isFixedGasLimit": false
    },
    {
      "hash": "0xa0ec3b764702b259a0f701f4a41ae312a129f6484d419d7251869b61dbb2708a",
      "transactionType": "CALL",
      "contractName": null,
      "contractAddress": "0x0768c16445b41137f98ab68ca545c0afd65a7513",
      "function": "setPeer(uint32,bytes32)",
      "arguments": [
        "40161",
        "0x00000000000000000000000029a5134d3b22f47ad52e0a22a63247363e9f35c2"
      ],
      "transaction": {
        "from": "0x009ff4940727c274424c16999f9632223d820b0b",
        "to": "0x0768c16445b41137f98ab68ca545c0afd65a7513",
        "gas": "0x11b6b",
        "value": "0x0",
        "input": "0x3400288b0000000000000000000000000000000000000000000000000000000000009ce100000000000000000000000029a5134d3b22f47ad52e0a22a63247363e9f35c2",
        "nonce": "0x11",
        "chainId": "0x66eee"
      },
      "additionalContracts": [],
      "isFixedGasLimit": false
    },
    {
      "hash": "0xfd40369487e8cac4ac08a4724df6a3b1f763e79eb0af10739f00897c30896aaa",
      "transactionType": "CALL",
      "contractName": null,
      "contractAddress": "0x6edce65403992e310a62460808c4b910d972f10f",
      "function": "setConfig(address,address,(uint32,uint32,bytes)[])",
      "arguments": [
        "0x0768C16445B41137F98Ab68CA545C0afD65A7513",
        "0x75Db67CDab2824970131D5aa9CECfC9F69c69636",
        "[(40161, 2, 0x0000000000000000000000000000000000000000000000000000000000000020000000000000000000000000000000000000000000000000000000000000000000000000000000000000000000000000000000000000000000000000000000020000000000000000000000000000000000000000000000000000000000000000000000000000000000000000000000000000000000000000000000000000000000000000000000000000000000000000000000000000000000000000000000c00000000000000000000000000000000000000000000000000000000000000120000000000000000000000000000000000000000000000000000000000000000200000000000000000000000053f488e93b4f1b60e8e83aa374dbe1780a1ee8a80000000000000000000000005669628ce106599d88ff8019312c715b36c79c750000000000000000000000000000000000000000000000000000000000000000)]"
      ],
      "transaction": {
        "from": "0x009ff4940727c274424c16999f9632223d820b0b",
        "to": "0x6edce65403992e310a62460808c4b910d972f10f",
        "gas": "0x2cd3a",
        "value": "0x0",
        "input": "0x6dbd9f900000000000000000000000000768c16445b41137f98ab68ca545c0afd65a751300000000000000000000000075db67cdab2824970131d5aa9cecfc9f69c696360000000000000000000000000000000000000000000000000000000000000060000000000000000000000000000000000000000000000000000000000000000100000000000000000000000000000000000000000000000000000000000000200000000000000000000000000000000000000000000000000000000000009ce10000000000000000000000000000000000000000000000000000000000000002000000000000000000000000000000000000000000000000000000000000006000000000000000000000000000000000000000000000000000000000000001600000000000000000000000000000000000000000000000000000000000000020000000000000000000000000000000000000000000000000000000000000000000000000000000000000000000000000000000000000000000000000000000020000000000000000000000000000000000000000000000000000000000000000000000000000000000000000000000000000000000000000000000000000000000000000000000000000000000000000000000000000000000000000000000c00000000000000000000000000000000000000000000000000000000000000120000000000000000000000000000000000000000000000000000000000000000200000000000000000000000053f488e93b4f1b60e8e83aa374dbe1780a1ee8a80000000000000000000000005669628ce106599d88ff8019312c715b36c79c750000000000000000000000000000000000000000000000000000000000000000",
        "nonce": "0x12",
        "chainId": "0x66eee"
      },
      "additionalContracts": [],
      "isFixedGasLimit": false
    },
    {
      "hash": "0xb28ed321a3c314de5d60a2481caa2077095f033d8e2c09f61f69dc4c7d9db345",
      "transactionType": "CALL",
      "contractName": null,
      "contractAddress": "0x6edce65403992e310a62460808c4b910d972f10f",
      "function": "setConfig(address,address,(uint32,uint32,bytes)[])",
      "arguments": [
        "0x0768C16445B41137F98Ab68CA545C0afD65A7513",
        "0x4f7cd4DA19ABB31b0eC98b9066B9e857B1bf9C0E",
        "[(40161, 2, 0x0000000000000000000000000000000000000000000000000000000000000020000000000000000000000000000000000000000000000000000000000000000000000000000000000000000000000000000000000000000000000000000000020000000000000000000000000000000000000000000000000000000000000000000000000000000000000000000000000000000000000000000000000000000000000000000000000000000000000000000000000000000000000000000000c00000000000000000000000000000000000000000000000000000000000000120000000000000000000000000000000000000000000000000000000000000000200000000000000000000000053f488e93b4f1b60e8e83aa374dbe1780a1ee8a80000000000000000000000005669628ce106599d88ff8019312c715b36c79c750000000000000000000000000000000000000000000000000000000000000000)]"
      ],
      "transaction": {
        "from": "0x009ff4940727c274424c16999f9632223d820b0b",
        "to": "0x6edce65403992e310a62460808c4b910d972f10f",
        "gas": "0x2ce84",
        "value": "0x0",
        "input": "0x6dbd9f900000000000000000000000000768c16445b41137f98ab68ca545c0afd65a75130000000000000000000000004f7cd4da19abb31b0ec98b9066b9e857b1bf9c0e0000000000000000000000000000000000000000000000000000000000000060000000000000000000000000000000000000000000000000000000000000000100000000000000000000000000000000000000000000000000000000000000200000000000000000000000000000000000000000000000000000000000009ce10000000000000000000000000000000000000000000000000000000000000002000000000000000000000000000000000000000000000000000000000000006000000000000000000000000000000000000000000000000000000000000001600000000000000000000000000000000000000000000000000000000000000020000000000000000000000000000000000000000000000000000000000000000000000000000000000000000000000000000000000000000000000000000000020000000000000000000000000000000000000000000000000000000000000000000000000000000000000000000000000000000000000000000000000000000000000000000000000000000000000000000000000000000000000000000000c00000000000000000000000000000000000000000000000000000000000000120000000000000000000000000000000000000000000000000000000000000000200000000000000000000000053f488e93b4f1b60e8e83aa374dbe1780a1ee8a80000000000000000000000005669628ce106599d88ff8019312c715b36c79c750000000000000000000000000000000000000000000000000000000000000000",
        "nonce": "0x13",
        "chainId": "0x66eee"
      },
      "additionalContracts": [],
      "isFixedGasLimit": false
    },
    {
      "hash": "0x516c5b6750bf7dfb909969357e3a2ba943689fead07b85691af6cbf19de0e282",
      "transactionType": "CALL",
      "contractName": null,
      "contractAddress": "0x6edce65403992e310a62460808c4b910d972f10f",
      "function": "setSendLibrary(address,uint32,address)",
      "arguments": [
        "0x0768C16445B41137F98Ab68CA545C0afD65A7513",
        "40161",
        "0x4f7cd4DA19ABB31b0eC98b9066B9e857B1bf9C0E"
      ],
      "transaction": {
        "from": "0x009ff4940727c274424c16999f9632223d820b0b",
        "to": "0x6edce65403992e310a62460808c4b910d972f10f",
        "gas": "0x12958",
        "value": "0x0",
        "input": "0x9535ff300000000000000000000000000768c16445b41137f98ab68ca545c0afd65a75130000000000000000000000000000000000000000000000000000000000009ce10000000000000000000000004f7cd4da19abb31b0ec98b9066b9e857b1bf9c0e",
        "nonce": "0x14",
        "chainId": "0x66eee"
      },
      "additionalContracts": [],
      "isFixedGasLimit": false
    },
    {
      "hash": "0x7ba3470d0534dd96c11d3f13b5931bc105d2626434f855f4160cd02b6ed68d90",
      "transactionType": "CALL",
      "contractName": null,
      "contractAddress": "0x6edce65403992e310a62460808c4b910d972f10f",
      "function": "setReceiveLibrary(address,uint32,address,uint256)",
      "arguments": [
        "0x0768C16445B41137F98Ab68CA545C0afD65A7513",
        "40161",
        "0x75Db67CDab2824970131D5aa9CECfC9F69c69636",
        "0"
      ],
      "transaction": {
        "from": "0x009ff4940727c274424c16999f9632223d820b0b",
        "to": "0x6edce65403992e310a62460808c4b910d972f10f",
        "gas": "0x14b60",
        "value": "0x0",
        "input": "0x6a14d7150000000000000000000000000768c16445b41137f98ab68ca545c0afd65a75130000000000000000000000000000000000000000000000000000000000009ce100000000000000000000000075db67cdab2824970131d5aa9cecfc9f69c696360000000000000000000000000000000000000000000000000000000000000000",
        "nonce": "0x15",
        "chainId": "0x66eee"
      },
      "additionalContracts": [],
      "isFixedGasLimit": false
    }
  ],
  "receipts": [
    {
      "status": "0x1",
      "cumulativeGasUsed": "0x540e1",
      "logs": [
        {
          "address": "0x0768c16445b41137f98ab68ca545c0afd65a7513",
          "topics": [
            "0xbe4864a8e820971c0247f5992e2da559595f7bf076a21cb5928d443d2a13b674"
          ],
          "data": "0x00000000000000000000000000000000000000000000000000000000000000200000000000000000000000000000000000000000000000000000000000000002000000000000000000000000000000000000000000000000000000000000004000000000000000000000000000000000000000000000000000000000000000e00000000000000000000000000000000000000000000000000000000000009ce100000000000000000000000000000000000000000000000000000000000000010000000000000000000000000000000000000000000000000000000000000060000000000000000000000000000000000000000000000000000000000000001600030100110100000000000000000000000000030d40000000000000000000000000000000000000000000000000000000000000000000000000000000009ce10000000000000000000000000000000000000000000000000000000000000002000000000000000000000000000000000000000000000000000000000000006000000000000000000000000000000000000000000000000000000000000000160003010011010000000000000000000000000003d09000000000000000000000",
          "blockHash": "0x06a16cba3cc10fe7c36334c443c13a5b8330974b9685e6a7cd12ed0e50d388f3",
          "blockNumber": "0x8aac0f8",
          "transactionHash": "0x53bf1da520c1757eab8f1c75a159285890031cebe1539c0aa2a2410b2256741a",
          "transactionIndex": "0x5",
          "logIndex": "0x4",
          "removed": false
        }
      ],
      "logsBloom": "0x00000000000000000000000000000000000000000000000000000000000000000000000000000000000000000000000000000000000000000000400000000000000000000000000000000000000000000000000000000000000000000000000000000000000000000000000100000000000000000000000000000000000000000000000000000000000000000000000000000000000000000000000000080000000000000000000000000000000000000000000000000000000000000020000000000000000000000000000002000000000000000000000100000000000000000000000000000000000000000000000000000000000000000000000000000000",
      "type": "0x2",
      "transactionHash": "0x53bf1da520c1757eab8f1c75a159285890031cebe1539c0aa2a2410b2256741a",
      "transactionIndex": "0x5",
      "blockHash": "0x06a16cba3cc10fe7c36334c443c13a5b8330974b9685e6a7cd12ed0e50d388f3",
      "blockNumber": "0x8aac0f8",
      "gasUsed": "0x15722",
      "effectiveGasPrice": "0x5f5e100",
      "from": "0x009ff4940727c274424c16999f9632223d820b0b",
      "to": "0x0768c16445b41137f98ab68ca545c0afd65a7513",
      "contractAddress": null,
      "gasUsedForL1": "0x0",
      "l1BlockNumber": "0x7cba85",
      "timeboosted": false
    },
    {
      "status": "0x1",
      "cumulativeGasUsed": "0x4b8bd",
      "logs": [
        {
          "address": "0x0768c16445b41137f98ab68ca545c0afd65a7513",
          "topics": [
            "0x238399d427b947898edb290f5ff0f9109849b1c3ba196a42e35f00c50a54b98b"
          ],
          "data": "0x0000000000000000000000000000000000000000000000000000000000009ce100000000000000000000000029a5134d3b22f47ad52e0a22a63247363e9f35c2",
          "blockHash": "0x8263cb1c03648de749eb690da114eea707590fbf6595f645b4eb8fe11b94e732",
          "blockNumber": "0x8aac0fc",
          "transactionHash": "0xa0ec3b764702b259a0f701f4a41ae312a129f6484d419d7251869b61dbb2708a",
          "transactionIndex": "0x7",
          "logIndex": "0x0",
          "removed": false
        }
      ],
      "logsBloom": "0x00000000000000000000000000000000000000000000000000000000000000000000000000000000000000000000000000000000000000000800000000000000000000000000000000000000000000000000000000000000000000000000000000000000000000000000000100000000000000000000000000000000000000000000000000000000000000000000000000000000000000000000000000000000000000000000000000000000000000000000000000000000000002000020000000000000000000000000000000000000000000000000000100040000000000000000000000000000000000000000000000000000000000000000000000000000",
      "type": "0x2",
      "transactionHash": "0xa0ec3b764702b259a0f701f4a41ae312a129f6484d419d7251869b61dbb2708a",
      "transactionIndex": "0x7",
      "blockHash": "0x8263cb1c03648de749eb690da114eea707590fbf6595f645b4eb8fe11b94e732",
      "blockNumber": "0x8aac0fc",
      "gasUsed": "0xd6e3",
      "effectiveGasPrice": "0x5f5e100",
      "from": "0x009ff4940727c274424c16999f9632223d820b0b",
      "to": "0x0768c16445b41137f98ab68ca545c0afd65a7513",
      "contractAddress": null,
      "gasUsedForL1": "0x0",
      "l1BlockNumber": "0x7cba85",
      "timeboosted": false
    },
    {
      "status": "0x1",
      "cumulativeGasUsed": "0x12cd02",
      "logs": [
        {
          "address": "0x75db67cdab2824970131d5aa9cecfc9f69c69636",
          "topics": [
            "0x82118522aa536ac0e96cc5c689407ae42b89d592aa133890a01f1509842f5081"
          ],
          "data": "0x0000000000000000000000000768c16445b41137f98ab68ca545c0afd65a75130000000000000000000000000000000000000000000000000000000000009ce10000000000000000000000000000000000000000000000000000000000000060000000000000000000000000000000000000000000000000000000000000000000000000000000000000000000000000000000000000000000000000000000020000000000000000000000000000000000000000000000000000000000000000000000000000000000000000000000000000000000000000000000000000000000000000000000000000000000000000000000000000000000000000000000c00000000000000000000000000000000000000000000000000000000000000120000000000000000000000000000000000000000000000000000000000000000200000000000000000000000053f488e93b4f1b60e8e83aa374dbe1780a1ee8a80000000000000000000000005669628ce106599d88ff8019312c715b36c79c750000000000000000000000000000000000000000000000000000000000000000",
          "blockHash": "0xf2d4cd1e643ee0555a5dbc62ae48fd6421f48130d6c68189e9da32822e2f5d09",
          "blockNumber": "0x8aac0ff",
          "transactionHash": "0xfd40369487e8cac4ac08a4724df6a3b1f763e79eb0af10739f00897c30896aaa",
          "transactionIndex": "0x16",
          "logIndex": "0x5",
          "removed": false
        }
      ],
      "logsBloom": "0x00000000000000000000000000000000000000000000000000000000000000000000000000000000000000000000000000000000000000000000000000000000000000000000000000000000000000000000000000000000002000000000000000000000000000000000000000000000000000000000000000000000000000000000000000000000000000000000000000000000000000000000000000000000000000000000000000000002000000000000000000000000000000000000000000000000000000000000000000000000020000000000000000000040000000000000000000000000000000000000000000000000000000000000000000020010",
      "type": "0x2",
      "transactionHash": "0xfd40369487e8cac4ac08a4724df6a3b1f763e79eb0af10739f00897c30896aaa",
      "transactionIndex": "0x16",
      "blockHash": "0xf2d4cd1e643ee0555a5dbc62ae48fd6421f48130d6c68189e9da32822e2f5d09",
      "blockNumber": "0x8aac0ff",
      "gasUsed": "0x21ed9",
      "effectiveGasPrice": "0x5f5e100",
      "from": "0x009ff4940727c274424c16999f9632223d820b0b",
      "to": "0x6edce65403992e310a62460808c4b910d972f10f",
      "contractAddress": null,
      "gasUsedForL1": "0x0",
      "l1BlockNumber": "0x7cba85",
      "timeboosted": false
    },
    {
      "status": "0x1",
      "cumulativeGasUsed": "0x71c83",
      "logs": [
        {
          "address": "0x4f7cd4da19abb31b0ec98b9066b9e857b1bf9c0e",
          "topics": [
            "0x82118522aa536ac0e96cc5c689407ae42b89d592aa133890a01f1509842f5081"
          ],
          "data": "0x0000000000000000000000000768c16445b41137f98ab68ca545c0afd65a75130000000000000000000000000000000000000000000000000000000000009ce10000000000000000000000000000000000000000000000000000000000000060000000000000000000000000000000000000000000000000000000000000000000000000000000000000000000000000000000000000000000000000000000020000000000000000000000000000000000000000000000000000000000000000000000000000000000000000000000000000000000000000000000000000000000000000000000000000000000000000000000000000000000000000000000c00000000000000000000000000000000000000000000000000000000000000120000000000000000000000000000000000000000000000000000000000000000200000000000000000000000053f488e93b4f1b60e8e83aa374dbe1780a1ee8a80000000000000000000000005669628ce106599d88ff8019312c715b36c79c750000000000000000000000000000000000000000000000000000000000000000",
          "blockHash": "0xb29355a4850b03a849a8ce1e79371af28e4a4ea0ec0f619099764cf88df3dd8d",
          "blockNumber": "0x8aac103",
          "transactionHash": "0xb28ed321a3c314de5d60a2481caa2077095f033d8e2c09f61f69dc4c7d9db345",
          "transactionIndex": "0x8",
          "logIndex": "0x0",
          "removed": false
        }
      ],
      "logsBloom": "0x00000000000000000000000000000000000000000000000000000000000000000000000000000000000000000000000000000000008000000000000000000000000000000000000000000000000000000000000000000000002000000000000000000000000000000000000000000000000000000000000000000000000000000000000000000000000000000000000000000000000000010000000000000000000000000000000000002002000000000000000000000000000000000000000000000000000000000000000000000000000000000000000000000000000000000000000000000000000000000000000000000000000000000000000000000010",
      "type": "0x2",
      "transactionHash": "0xb28ed321a3c314de5d60a2481caa2077095f033d8e2c09f61f69dc4c7d9db345",
      "transactionIndex": "0x8",
      "blockHash": "0xb29355a4850b03a849a8ce1e79371af28e4a4ea0ec0f619099764cf88df3dd8d",
      "blockNumber": "0x8aac103",
      "gasUsed": "0x21fd5",
      "effectiveGasPrice": "0x5f5e100",
      "from": "0x009ff4940727c274424c16999f9632223d820b0b",
      "to": "0x6edce65403992e310a62460808c4b910d972f10f",
      "contractAddress": null,
      "gasUsedForL1": "0x0",
      "l1BlockNumber": "0x7cba85",
      "timeboosted": false
    },
    {
      "status": "0x1",
      "cumulativeGasUsed": "0x197f0",
      "logs": [
        {
          "address": "0x6edce65403992e310a62460808c4b910d972f10f",
          "topics": [
            "0x4cff966ebee29a156dcb34cf72c1d06231fb1777f6bdf6e8089819232f002b1c"
          ],
          "data": "0x0000000000000000000000000768c16445b41137f98ab68ca545c0afd65a75130000000000000000000000000000000000000000000000000000000000009ce10000000000000000000000004f7cd4da19abb31b0ec98b9066b9e857b1bf9c0e",
          "blockHash": "0xc709773584d763276719ec920d0398356e19c38fd96ca0e29291d1c59021925d",
          "blockNumber": "0x8aac108",
          "transactionHash": "0x516c5b6750bf7dfb909969357e3a2ba943689fead07b85691af6cbf19de0e282",
          "transactionIndex": "0x2",
          "logIndex": "0x0",
          "removed": false
        }
      ],
      "logsBloom": "0x00000000000000000000000000000000000200000000000000000000000000000000000000000000200000000000000000000000000000000000000001000000000000000000000000000000000000000000000000000000000000000000000000000000000000000200000000000000000000000000000000000000000000000000000000000020000000000000000000000000000000000000000000000000000000000000000000000000000000000000000000000000000000000000000000000000000000000000000000000000000000000000000000000000000000000040000000000000000000000000000000000000000000000000000000000000",
      "type": "0x2",
      "transactionHash": "0x516c5b6750bf7dfb909969357e3a2ba943689fead07b85691af6cbf19de0e282",
      "transactionIndex": "0x2",
      "blockHash": "0xc709773584d763276719ec920d0398356e19c38fd96ca0e29291d1c59021925d",
      "blockNumber": "0x8aac108",
      "gasUsed": "0xe18e",
      "effectiveGasPrice": "0x5f5e100",
      "from": "0x009ff4940727c274424c16999f9632223d820b0b",
      "to": "0x6edce65403992e310a62460808c4b910d972f10f",
      "contractAddress": null,
      "gasUsedForL1": "0x0",
      "l1BlockNumber": "0x7cba85",
      "timeboosted": false
    },
    {
      "status": "0x1",
      "cumulativeGasUsed": "0x1b1f7",
      "logs": [
        {
          "address": "0x6edce65403992e310a62460808c4b910d972f10f",
          "topics": [
            "0xcd6f92f5ac6185a5acfa02c92090746cec64d777269cbcd0ed031e396657a1c2"
          ],
          "data": "0x0000000000000000000000000768c16445b41137f98ab68ca545c0afd65a75130000000000000000000000000000000000000000000000000000000000009ce100000000000000000000000075db67cdab2824970131d5aa9cecfc9f69c69636",
          "blockHash": "0x65bdf14543815f9b61971b566a955215b0692e5ba5cffbd24343cd0564400ec8",
          "blockNumber": "0x8aac10c",
          "transactionHash": "0x7ba3470d0534dd96c11d3f13b5931bc105d2626434f855f4160cd02b6ed68d90",
          "transactionIndex": "0x2",
          "logIndex": "0x0",
          "removed": false
        },
        {
          "address": "0x6edce65403992e310a62460808c4b910d972f10f",
          "topics": [
            "0x4e0a5bbfa0c11a64effb1ada324b5437a17272e1aed9320398715ef71bb20928"
          ],
          "data": "0x0000000000000000000000000768c16445b41137f98ab68ca545c0afd65a75130000000000000000000000000000000000000000000000000000000000009ce100000000000000000000000000000000000000000000000000000000000000000000000000000000000000000000000000000000000000000000000000000000",
          "blockHash": "0x65bdf14543815f9b61971b566a955215b0692e5ba5cffbd24343cd0564400ec8",
          "blockNumber": "0x8aac10c",
          "transactionHash": "0x7ba3470d0534dd96c11d3f13b5931bc105d2626434f855f4160cd02b6ed68d90",
          "transactionIndex": "0x2",
          "logIndex": "0x1",
          "removed": false
        }
      ],
      "logsBloom": "0x00000000000000000000020800000000000000000000000000000000000000020400000000000000200000000000000000000000000000000000000000000000000000000000000000000000000000000000000000800000000000000000000000000000000000000200000000000000000000000000000000000000000000100000000000000020000000000000000000000000000000000000000000000000000000000000000000000000000000000000000000000000000000000000000000000000000000000000000000000000000000000000000000000000000000000000000000000000000000000000000000000000000000000000000000000000",
      "type": "0x2",
      "transactionHash": "0x7ba3470d0534dd96c11d3f13b5931bc105d2626434f855f4160cd02b6ed68d90",
      "transactionIndex": "0x2",
      "blockHash": "0x65bdf14543815f9b61971b566a955215b0692e5ba5cffbd24343cd0564400ec8",
      "blockNumber": "0x8aac10c",
      "gasUsed": "0xfba1",
      "effectiveGasPrice": "0x5f5e100",
      "from": "0x009ff4940727c274424c16999f9632223d820b0b",
      "to": "0x6edce65403992e310a62460808c4b910d972f10f",
      "contractAddress": null,
      "gasUsedForL1": "0x0",
      "l1BlockNumber": "0x7cba85",
      "timeboosted": false
    }
  ],
  "libraries": [],
  "pending": [],
  "returns": {},
  "timestamp": 1745348379,
  "chain": 421614,
  "commit": "3236159"
}