{
  "transactions": [
    {
      "hash": "0x085c3a80ddd24a23768f79679e07373fa904efc9df469746094e5e56fadd0058",
      "transactionType": "CALL",
      "contractName": null,
      "contractAddress": "0x0768c16445b41137f98ab68ca545c0afd65a7513",
      "function": "setEnforcedOptions((uint32,uint16,bytes)[])",
      "arguments": [
        "[(40161, 1, 0x00030100110100000000000000000000000000030d40), (40161, 2, 0x0003010011010000000000000000000000000003d090)]"
      ],
      "transaction": {
        "from": "0x009ff4940727c274424c16999f9632223d820b0b",
        "to": "0x0768c16445b41137f98ab68ca545c0afd65a7513",
        "gas": "0xf5ec",
        "value": "0x0",
        "input": "0xb98bd07000000000000000000000000000000000000000000000000000000000000000200000000000000000000000000000000000000000000000000000000000000002000000000000000000000000000000000000000000000000000000000000004000000000000000000000000000000000000000000000000000000000000000e00000000000000000000000000000000000000000000000000000000000009ce100000000000000000000000000000000000000000000000000000000000000010000000000000000000000000000000000000000000000000000000000000060000000000000000000000000000000000000000000000000000000000000001600030100110100000000000000000000000000030d40000000000000000000000000000000000000000000000000000000000000000000000000000000009ce10000000000000000000000000000000000000000000000000000000000000002000000000000000000000000000000000000000000000000000000000000006000000000000000000000000000000000000000000000000000000000000000160003010011010000000000000000000000000003d09000000000000000000000",
        "nonce": "0x1c",
        "chainId": "0x66eee"
      },
      "additionalContracts": [],
      "isFixedGasLimit": false
    },
    {
      "hash": "0x39c6ea8d43c7e4502dbee3667d3c8a74af4a9d7671e0c5e4e4785df28b061b7e",
      "transactionType": "CALL",
      "contractName": null,
      "contractAddress": "0x0768c16445b41137f98ab68ca545c0afd65a7513",
      "function": "setPeer(uint32,bytes32)",
      "arguments": [
        "40161",
        "0x00000000000000000000000029a5134d3b22f47ad52e0a22a63247363e9f35c2"
      ],
      "transaction": {
        "from": "0x009ff4940727c274424c16999f9632223d820b0b",
        "to": "0x0768c16445b41137f98ab68ca545c0afd65a7513",
        "gas": "0xb420",
        "value": "0x0",
        "input": "0x3400288b0000000000000000000000000000000000000000000000000000000000009ce100000000000000000000000029a5134d3b22f47ad52e0a22a63247363e9f35c2",
        "nonce": "0x1d",
        "chainId": "0x66eee"
      },
      "additionalContracts": [],
      "isFixedGasLimit": false
    },
    {
      "hash": "0x1de7c87a3fee538bdaf9c2a0a04bc33301ac525b238ed3bef9c91e475fa7641b",
      "transactionType": "CALL",
      "contractName": null,
      "contractAddress": "0x6edce65403992e310a62460808c4b910d972f10f",
      "function": "setConfig(address,address,(uint32,uint32,bytes)[])",
      "arguments": [
        "0x0768C16445B41137F98Ab68CA545C0afD65A7513",
        "0x75Db67CDab2824970131D5aa9CECfC9F69c69636",
        "[(40161, 2, 0x0000000000000000000000000000000000000000000000000000000000000020000000000000000000000000000000000000000000000000000000000000000000000000000000000000000000000000000000000000000000000000000000020000000000000000000000000000000000000000000000000000000000000000000000000000000000000000000000000000000000000000000000000000000000000000000000000000000000000000000000000000000000000000000000c00000000000000000000000000000000000000000000000000000000000000120000000000000000000000000000000000000000000000000000000000000000200000000000000000000000053f488e93b4f1b60e8e83aa374dbe1780a1ee8a8000000000000000000000000cdb4933d7f37560186aca8fdadfd5a3b3e27b0880000000000000000000000000000000000000000000000000000000000000000)]"
      ],
      "transaction": {
        "from": "0x009ff4940727c274424c16999f9632223d820b0b",
        "to": "0x6edce65403992e310a62460808c4b910d972f10f",
        "gas": "0x13fea",
        "value": "0x0",
        "input": "0x6dbd9f900000000000000000000000000768c16445b41137f98ab68ca545c0afd65a751300000000000000000000000075db67cdab2824970131d5aa9cecfc9f69c696360000000000000000000000000000000000000000000000000000000000000060000000000000000000000000000000000000000000000000000000000000000100000000000000000000000000000000000000000000000000000000000000200000000000000000000000000000000000000000000000000000000000009ce10000000000000000000000000000000000000000000000000000000000000002000000000000000000000000000000000000000000000000000000000000006000000000000000000000000000000000000000000000000000000000000001600000000000000000000000000000000000000000000000000000000000000020000000000000000000000000000000000000000000000000000000000000000000000000000000000000000000000000000000000000000000000000000000020000000000000000000000000000000000000000000000000000000000000000000000000000000000000000000000000000000000000000000000000000000000000000000000000000000000000000000000000000000000000000000000c00000000000000000000000000000000000000000000000000000000000000120000000000000000000000000000000000000000000000000000000000000000200000000000000000000000053f488e93b4f1b60e8e83aa374dbe1780a1ee8a8000000000000000000000000cdb4933d7f37560186aca8fdadfd5a3b3e27b0880000000000000000000000000000000000000000000000000000000000000000",
        "nonce": "0x1e",
        "chainId": "0x66eee"
      },
      "additionalContracts": [],
      "isFixedGasLimit": false
    },
    {
      "hash": "0x66508e0283de276290fb9c39bb19b2da1a76bc6116b4149bea107aae2b0f1a94",
      "transactionType": "CALL",
      "contractName": null,
      "contractAddress": "0x6edce65403992e310a62460808c4b910d972f10f",
      "function": "setConfig(address,address,(uint32,uint32,bytes)[])",
      "arguments": [
        "0x0768C16445B41137F98Ab68CA545C0afD65A7513",
        "0x4f7cd4DA19ABB31b0eC98b9066B9e857B1bf9C0E",
        "[(40161, 2, 0x0000000000000000000000000000000000000000000000000000000000000020000000000000000000000000000000000000000000000000000000000000000000000000000000000000000000000000000000000000000000000000000000020000000000000000000000000000000000000000000000000000000000000000000000000000000000000000000000000000000000000000000000000000000000000000000000000000000000000000000000000000000000000000000000c00000000000000000000000000000000000000000000000000000000000000120000000000000000000000000000000000000000000000000000000000000000200000000000000000000000053f488e93b4f1b60e8e83aa374dbe1780a1ee8a8000000000000000000000000cdb4933d7f37560186aca8fdadfd5a3b3e27b0880000000000000000000000000000000000000000000000000000000000000000)]"
      ],
      "transaction": {
        "from": "0x009ff4940727c274424c16999f9632223d820b0b",
        "to": "0x6edce65403992e310a62460808c4b910d972f10f",
        "gas": "0x14133",
        "value": "0x0",
        "input": "0x6dbd9f900000000000000000000000000768c16445b41137f98ab68ca545c0afd65a75130000000000000000000000004f7cd4da19abb31b0ec98b9066b9e857b1bf9c0e0000000000000000000000000000000000000000000000000000000000000060000000000000000000000000000000000000000000000000000000000000000100000000000000000000000000000000000000000000000000000000000000200000000000000000000000000000000000000000000000000000000000009ce10000000000000000000000000000000000000000000000000000000000000002000000000000000000000000000000000000000000000000000000000000006000000000000000000000000000000000000000000000000000000000000001600000000000000000000000000000000000000000000000000000000000000020000000000000000000000000000000000000000000000000000000000000000000000000000000000000000000000000000000000000000000000000000000020000000000000000000000000000000000000000000000000000000000000000000000000000000000000000000000000000000000000000000000000000000000000000000000000000000000000000000000000000000000000000000000c00000000000000000000000000000000000000000000000000000000000000120000000000000000000000000000000000000000000000000000000000000000200000000000000000000000053f488e93b4f1b60e8e83aa374dbe1780a1ee8a8000000000000000000000000cdb4933d7f37560186aca8fdadfd5a3b3e27b0880000000000000000000000000000000000000000000000000000000000000000",
        "nonce": "0x1f",
        "chainId": "0x66eee"
      },
      "additionalContracts": [],
      "isFixedGasLimit": false
    }
  ],
  "receipts": [
    {
      "status": "0x1",
      "cumulativeGasUsed": "0xbbaa",
      "logs": [
        {
          "address": "0x0768c16445b41137f98ab68ca545c0afd65a7513",
          "topics": [
            "0xbe4864a8e820971c0247f5992e2da559595f7bf076a21cb5928d443d2a13b674"
          ],
          "data": "0x00000000000000000000000000000000000000000000000000000000000000200000000000000000000000000000000000000000000000000000000000000002000000000000000000000000000000000000000000000000000000000000004000000000000000000000000000000000000000000000000000000000000000e00000000000000000000000000000000000000000000000000000000000009ce100000000000000000000000000000000000000000000000000000000000000010000000000000000000000000000000000000000000000000000000000000060000000000000000000000000000000000000000000000000000000000000001600030100110100000000000000000000000000030d40000000000000000000000000000000000000000000000000000000000000000000000000000000009ce10000000000000000000000000000000000000000000000000000000000000002000000000000000000000000000000000000000000000000000000000000006000000000000000000000000000000000000000000000000000000000000000160003010011010000000000000000000000000003d09000000000000000000000",
          "blockHash": "0x17560323959070932a023bdcb257014a9a6f12cc63b5d35879cb7db8fada7dbe",
          "blockNumber": "0x8b600cf",
          "transactionHash": "0x085c3a80ddd24a23768f79679e07373fa904efc9df469746094e5e56fadd0058",
          "transactionIndex": "0x1",
          "logIndex": "0x0",
          "removed": false
        }
      ],
      "logsBloom": "0x00000000000000000000000000000000000000000000000000000000000000000000000000000000000000000000000000000000000000000000400000000000000000000000000000000000000000000000000000000000000000000000000000000000000000000000000100000000000000000000000000000000000000000000000000000000000000000000000000000000000000000000000000080000000000000000000000000000000000000000000000000000000000000020000000000000000000000000000002000000000000000000000100000000000000000000000000000000000000000000000000000000000000000000000000000000",
      "type": "0x2",
      "transactionHash": "0x085c3a80ddd24a23768f79679e07373fa904efc9df469746094e5e56fadd0058",
      "transactionIndex": "0x1",
      "blockHash": "0x17560323959070932a023bdcb257014a9a6f12cc63b5d35879cb7db8fada7dbe",
      "blockNumber": "0x8b600cf",
      "gasUsed": "0xbbaa",
      "effectiveGasPrice": "0x5f5e100",
      "from": "0x009ff4940727c274424c16999f9632223d820b0b",
      "to": "0x0768c16445b41137f98ab68ca545c0afd65a7513",
      "contractAddress": null,
      "gasUsedForL1": "0x0",
      "l1BlockNumber": "0x7cf39c",
      "timeboosted": false
    },
    {
      "status": "0x1",
      "cumulativeGasUsed": "0x45818",
      "logs": [
        {
          "address": "0x0768c16445b41137f98ab68ca545c0afd65a7513",
          "topics": [
            "0x238399d427b947898edb290f5ff0f9109849b1c3ba196a42e35f00c50a54b98b"
          ],
          "data": "0x0000000000000000000000000000000000000000000000000000000000009ce100000000000000000000000029a5134d3b22f47ad52e0a22a63247363e9f35c2",
          "blockHash": "0xde1c24107c1b2aeff2cc60d3e3d64482c246b5a2253e05d1f005e26dd5a4caa8",
          "blockNumber": "0x8b600d2",
          "transactionHash": "0x39c6ea8d43c7e4502dbee3667d3c8a74af4a9d7671e0c5e4e4785df28b061b7e",
          "transactionIndex": "0x3",
          "logIndex": "0x6",
          "removed": false
        }
      ],
      "logsBloom": "0x00000000000000000000000000000000000000000000000000000000000000000000000000000000000000000000000000000000000000000800000000000000000000000000000000000000000000000000000000000000000000000000000000000000000000000000000100000000000000000000000000000000000000000000000000000000000000000000000000000000000000000000000000000000000000000000000000000000000000000000000000000000000002000020000000000000000000000000000000000000000000000000000100040000000000000000000000000000000000000000000000000000000000000000000000000000",
      "type": "0x2",
      "transactionHash": "0x39c6ea8d43c7e4502dbee3667d3c8a74af4a9d7671e0c5e4e4785df28b061b7e",
      "transactionIndex": "0x3",
      "blockHash": "0xde1c24107c1b2aeff2cc60d3e3d64482c246b5a2253e05d1f005e26dd5a4caa8",
      "blockNumber": "0x8b600d2",
      "gasUsed": "0x8927",
      "effectiveGasPrice": "0x5f5e100",
      "from": "0x009ff4940727c274424c16999f9632223d820b0b",
      "to": "0x0768c16445b41137f98ab68ca545c0afd65a7513",
      "contractAddress": null,
      "gasUsedForL1": "0x0",
      "l1BlockNumber": "0x7cf39c",
      "timeboosted": false
    },
    {
      "status": "0x1",
      "cumulativeGasUsed": "0x2abc9",
      "logs": [
        {
          "address": "0x75db67cdab2824970131d5aa9cecfc9f69c69636",
          "topics": [
            "0x82118522aa536ac0e96cc5c689407ae42b89d592aa133890a01f1509842f5081"
          ],
          "data": "0x0000000000000000000000000768c16445b41137f98ab68ca545c0afd65a75130000000000000000000000000000000000000000000000000000000000009ce10000000000000000000000000000000000000000000000000000000000000060000000000000000000000000000000000000000000000000000000000000000000000000000000000000000000000000000000000000000000000000000000020000000000000000000000000000000000000000000000000000000000000000000000000000000000000000000000000000000000000000000000000000000000000000000000000000000000000000000000000000000000000000000000c00000000000000000000000000000000000000000000000000000000000000120000000000000000000000000000000000000000000000000000000000000000200000000000000000000000053f488e93b4f1b60e8e83aa374dbe1780a1ee8a8000000000000000000000000cdb4933d7f37560186aca8fdadfd5a3b3e27b0880000000000000000000000000000000000000000000000000000000000000000",
          "blockHash": "0xd48b851fda415d2848ca553dce9235adf97d66a38cfa8bb9c3931c6a3d889e0d",
          "blockNumber": "0x8b600d5",
          "transactionHash": "0x1de7c87a3fee538bdaf9c2a0a04bc33301ac525b238ed3bef9c91e475fa7641b",
          "transactionIndex": "0x2",
          "logIndex": "0x4",
          "removed": false
        }
      ],
      "logsBloom": "0x00000000000000000000000000000000000000000000000000000000000000000000000000000000000000000000000000000000000000000000000000000000000000000000000000000000000000000000000000000000002000000000000000000000000000000000000000000000000000000000000000000000000000000000000000000000000000000000000000000000000000000000000000000000000000000000000000000002000000000000000000000000000000000000000000000000000000000000000000000000020000000000000000000040000000000000000000000000000000000000000000000000000000000000000000020010",
      "type": "0x2",
      "transactionHash": "0x1de7c87a3fee538bdaf9c2a0a04bc33301ac525b238ed3bef9c91e475fa7641b",
      "transactionIndex": "0x2",
      "blockHash": "0xd48b851fda415d2848ca553dce9235adf97d66a38cfa8bb9c3931c6a3d889e0d",
      "blockNumber": "0x8b600d5",
      "gasUsed": "0xf2d9",
      "effectiveGasPrice": "0x5f5e100",
      "from": "0x009ff4940727c274424c16999f9632223d820b0b",
      "to": "0x6edce65403992e310a62460808c4b910d972f10f",
      "contractAddress": null,
      "gasUsedForL1": "0x0",
      "l1BlockNumber": "0x7cf39c",
      "timeboosted": false
    },
    {
      "status": "0x1",
      "cumulativeGasUsed": "0x2694c",
      "logs": [
        {
          "address": "0x4f7cd4da19abb31b0ec98b9066b9e857b1bf9c0e",
          "topics": [
            "0x82118522aa536ac0e96cc5c689407ae42b89d592aa133890a01f1509842f5081"
          ],
          "data": "0x0000000000000000000000000768c16445b41137f98ab68ca545c0afd65a75130000000000000000000000000000000000000000000000000000000000009ce10000000000000000000000000000000000000000000000000000000000000060000000000000000000000000000000000000000000000000000000000000000000000000000000000000000000000000000000000000000000000000000000020000000000000000000000000000000000000000000000000000000000000000000000000000000000000000000000000000000000000000000000000000000000000000000000000000000000000000000000000000000000000000000000c00000000000000000000000000000000000000000000000000000000000000120000000000000000000000000000000000000000000000000000000000000000200000000000000000000000053f488e93b4f1b60e8e83aa374dbe1780a1ee8a8000000000000000000000000cdb4933d7f37560186aca8fdadfd5a3b3e27b0880000000000000000000000000000000000000000000000000000000000000000",
          "blockHash": "0x3b8644797d7b7c795996b609071f7b54428c74fe2c6a4e663f6528c4bb8410f3",
          "blockNumber": "0x8b600d9",
          "transactionHash": "0x66508e0283de276290fb9c39bb19b2da1a76bc6116b4149bea107aae2b0f1a94",
          "transactionIndex": "0x2",
          "logIndex": "0x1",
          "removed": false
        }
      ],
      "logsBloom": "0x00000000000000000000000000000000000000000000000000000000000000000000000000000000000000000000000000000000008000000000000000000000000000000000000000000000000000000000000000000000002000000000000000000000000000000000000000000000000000000000000000000000000000000000000000000000000000000000000000000000000000010000000000000000000000000000000000002002000000000000000000000000000000000000000000000000000000000000000000000000000000000000000000000000000000000000000000000000000000000000000000000000000000000000000000000010",
      "type": "0x2",
      "transactionHash": "0x66508e0283de276290fb9c39bb19b2da1a76bc6116b4149bea107aae2b0f1a94",
      "transactionIndex": "0x2",
      "blockHash": "0x3b8644797d7b7c795996b609071f7b54428c74fe2c6a4e663f6528c4bb8410f3",
      "blockNumber": "0x8b600d9",
      "gasUsed": "0xf3d5",
      "effectiveGasPrice": "0x5f5e100",
      "from": "0x009ff4940727c274424c16999f9632223d820b0b",
      "to": "0x6edce65403992e310a62460808c4b910d972f10f",
      "contractAddress": null,
      "gasUsedForL1": "0x0",
      "l1BlockNumber": "0x7cf39c",
      "timeboosted": false
    }
  ],
  "libraries": [],
  "pending": [],
  "returns": {},
  "timestamp": 1745534622,
  "chain": 421614,
  "commit": "0123d99"
}