{
  "transactions": [
    {
      "hash": "0x0ae91ddba42e5bfc54e044a5166bcfe533d17455ddbfcd352328cb3395490e88",
      "transactionType": "CALL",
      "contractName": null,
      "contractAddress": "0x1a44076050125825900e736c501f859c50fe728c",
      "function": "setSendLibrary(address,uint32,address)",
      "arguments": [
        "0xa536976c9cA36e74Af76037af555eefa632ce469",
        "30101",
        "0xB5320B0B3a13cC860893E2Bd79FCd7e13484Dda2"
      ],
      "transaction": {
        "from": "0x0990be6db8c785fbbf9ded8baec612a10cae814b",
        "to": "0x1a44076050125825900e736c501f859c50fe728c",
        "gas": "0x1378b",
        "value": "0x0",
        "input": "0x9535ff30000000000000000000000000a536976c9ca36e74af76037af555eefa632ce4690000000000000000000000000000000000000000000000000000000000007595000000000000000000000000b5320b0b3a13cc860893e2bd79fcd7e13484dda2",
        "nonce": "0x24",
        "chainId": "0x2105"
      },
      "additionalContracts": [],
      "isFixedGasLimit": false
    },
    {
      "hash": "0xb817e39d3baa51278219e368c71244527a6165d75a838b1a822e03a1127516d4",
      "transactionType": "CALL",
      "contractName": null,
      "contractAddress": "0x1a44076050125825900e736c501f859c50fe728c",
      "function": "setReceiveLibrary(address,uint32,address,uint256)",
      "arguments": [
        "0xa536976c9cA36e74Af76037af555eefa632ce469",
        "30101",
        "0xc70AB6f32772f59fBfc23889Caf4Ba3376C84bAf",
        "0"
      ],
      "transaction": {
        "from": "0x0990be6db8c785fbbf9ded8baec612a10cae814b",
        "to": "0x1a44076050125825900e736c501f859c50fe728c",
        "gas": "0x17001",
        "value": "0x0",
        "input": "0x6a14d715000000000000000000000000a536976c9ca36e74af76037af555eefa632ce4690000000000000000000000000000000000000000000000000000000000007595000000000000000000000000c70ab6f32772f59fbfc23889caf4ba3376c84baf0000000000000000000000000000000000000000000000000000000000000000",
        "nonce": "0x25",
        "chainId": "0x2105"
      },
      "additionalContracts": [],
      "isFixedGasLimit": false
    },
    {
      "hash": "0x1fd3f4c431386b2093054a6227b7f33e0d55ccd078cbad3d6c212c1bac2df0b3",
      "transactionType": "CALL",
      "contractName": null,
      "contractAddress": "0x1a44076050125825900e736c501f859c50fe728c",
      "function": "setSendLibrary(address,uint32,address)",
      "arguments": [
        "0xa536976c9cA36e74Af76037af555eefa632ce469",
        "30243",
        "0xB5320B0B3a13cC860893E2Bd79FCd7e13484Dda2"
      ],
      "transaction": {
        "from": "0x0990be6db8c785fbbf9ded8baec612a10cae814b",
        "to": "0x1a44076050125825900e736c501f859c50fe728c",
        "gas": "0x1378b",
        "value": "0x0",
        "input": "0x9535ff30000000000000000000000000a536976c9ca36e74af76037af555eefa632ce4690000000000000000000000000000000000000000000000000000000000007623000000000000000000000000b5320b0b3a13cc860893e2bd79fcd7e13484dda2",
        "nonce": "0x26",
        "chainId": "0x2105"
      },
      "additionalContracts": [],
      "isFixedGasLimit": false
    },
    {
      "hash": "0xb81d629fbb2850b0d51e55678aad0fdd72c637919278a1ce56c7fe1c443b9661",
      "transactionType": "CALL",
      "contractName": null,
      "contractAddress": "0x1a44076050125825900e736c501f859c50fe728c",
      "function": "setReceiveLibrary(address,uint32,address,uint256)",
      "arguments": [
        "0xa536976c9cA36e74Af76037af555eefa632ce469",
        "30243",
        "0xc70AB6f32772f59fBfc23889Caf4Ba3376C84bAf",
        "0"
      ],
      "transaction": {
        "from": "0x0990be6db8c785fbbf9ded8baec612a10cae814b",
        "to": "0x1a44076050125825900e736c501f859c50fe728c",
        "gas": "0x17001",
        "value": "0x0",
        "input": "0x6a14d715000000000000000000000000a536976c9ca36e74af76037af555eefa632ce4690000000000000000000000000000000000000000000000000000000000007623000000000000000000000000c70ab6f32772f59fbfc23889caf4ba3376c84baf0000000000000000000000000000000000000000000000000000000000000000",
        "nonce": "0x27",
        "chainId": "0x2105"
      },
      "additionalContracts": [],
      "isFixedGasLimit": false
    },
    {
      "hash": "0x5190aefe162ead9d92355b7defcc787c2953314cd04f34a9268e89aedc719990",
      "transactionType": "CALL",
      "contractName": null,
      "contractAddress": "0x1a44076050125825900e736c501f859c50fe728c",
      "function": "setSendLibrary(address,uint32,address)",
      "arguments": [
        "0xa536976c9cA36e74Af76037af555eefa632ce469",
        "30151",
        "0xB5320B0B3a13cC860893E2Bd79FCd7e13484Dda2"
      ],
      "transaction": {
        "from": "0x0990be6db8c785fbbf9ded8baec612a10cae814b",
        "to": "0x1a44076050125825900e736c501f859c50fe728c",
        "gas": "0x1378b",
        "value": "0x0",
        "input": "0x9535ff30000000000000000000000000a536976c9ca36e74af76037af555eefa632ce46900000000000000000000000000000000000000000000000000000000000075c7000000000000000000000000b5320b0b3a13cc860893e2bd79fcd7e13484dda2",
        "nonce": "0x28",
        "chainId": "0x2105"
      },
      "additionalContracts": [],
      "isFixedGasLimit": false
    },
    {
      "hash": "0x1e05598d6a2f9b56c18336b96fd5f81840377ebdb6939c7044c83894166f25ac",
      "transactionType": "CALL",
      "contractName": null,
      "contractAddress": "0x1a44076050125825900e736c501f859c50fe728c",
      "function": "setReceiveLibrary(address,uint32,address,uint256)",
      "arguments": [
        "0xa536976c9cA36e74Af76037af555eefa632ce469",
        "30151",
        "0xc70AB6f32772f59fBfc23889Caf4Ba3376C84bAf",
        "0"
      ],
      "transaction": {
        "from": "0x0990be6db8c785fbbf9ded8baec612a10cae814b",
        "to": "0x1a44076050125825900e736c501f859c50fe728c",
        "gas": "0x17001",
        "value": "0x0",
        "input": "0x6a14d715000000000000000000000000a536976c9ca36e74af76037af555eefa632ce46900000000000000000000000000000000000000000000000000000000000075c7000000000000000000000000c70ab6f32772f59fbfc23889caf4ba3376c84baf0000000000000000000000000000000000000000000000000000000000000000",
        "nonce": "0x29",
        "chainId": "0x2105"
      },
      "additionalContracts": [],
      "isFixedGasLimit": false
    }
  ],
  "receipts": [
    {
      "status": "0x1",
      "cumulativeGasUsed": "0x1c51c49",
      "logs": [
        {
          "address": "0x1a44076050125825900e736c501f859c50fe728c",
          "topics": [
            "0x4cff966ebee29a156dcb34cf72c1d06231fb1777f6bdf6e8089819232f002b1c"
          ],
          "data": "0x000000000000000000000000a536976c9ca36e74af76037af555eefa632ce4690000000000000000000000000000000000000000000000000000000000007595000000000000000000000000b5320b0b3a13cc860893e2bd79fcd7e13484dda2",
          "blockHash": "0xa1833620796cb7afd348af2b251c53676ac956f37ab72f27f3241cd5da4c666d",
          "blockNumber": "0x16c68ff",
          "transactionHash": "0x0ae91ddba42e5bfc54e044a5166bcfe533d17455ddbfcd352328cb3395490e88",
          "transactionIndex": "0x98",
          "logIndex": "0x1d6",
          "removed": false
        }
      ],
      "logsBloom": "0x00000000000000000000000000000000000200000000000000000000001000000000000000000000000000000000000000000000000000000000000001000000000000000000000000000000000000000000000000000000000000000000000000000000000000000000000000000000000000000010000000000000000000000000000000000000000000000000000000000000000000000000000000000000000000000000000000000000000000000000000000000000000000000000000000000000000000000000000000000000000000000000000000000000000000000040000000000000000000000000000000000000010000000000000000000000",
      "type": "0x2",
      "transactionHash": "0x0ae91ddba42e5bfc54e044a5166bcfe533d17455ddbfcd352328cb3395490e88",
      "transactionIndex": "0x98",
      "blockHash": "0xa1833620796cb7afd348af2b251c53676ac956f37ab72f27f3241cd5da4c666d",
      "blockNumber": "0x16c68ff",
      "gasUsed": "0xe18e",
      "effectiveGasPrice": "0x3effe9d",
      "from": "0x0990be6db8c785fbbf9ded8baec612a10cae814b",
      "to": "0x1a44076050125825900e736c501f859c50fe728c",
      "contractAddress": null,
      "l1BaseFeeScalar": "0x8dd",
      "l1BlobBaseFee": "0x2a88c3",
      "l1BlobBaseFeeScalar": "0x101c12",
      "l1Fee": "0x4b59ffd4f2",
      "l1GasPrice": "0x13812fe71d",
      "l1GasUsed": "0x6a4"
    },
    {
      "status": "0x1",
      "cumulativeGasUsed": "0x1c617ea",
      "logs": [
        {
          "address": "0x1a44076050125825900e736c501f859c50fe728c",
          "topics": [
            "0xcd6f92f5ac6185a5acfa02c92090746cec64d777269cbcd0ed031e396657a1c2"
          ],
          "data": "0x000000000000000000000000a536976c9ca36e74af76037af555eefa632ce4690000000000000000000000000000000000000000000000000000000000007595000000000000000000000000c70ab6f32772f59fbfc23889caf4ba3376c84baf",
          "blockHash": "0xa1833620796cb7afd348af2b251c53676ac956f37ab72f27f3241cd5da4c666d",
          "blockNumber": "0x16c68ff",
          "transactionHash": "0xb817e39d3baa51278219e368c71244527a6165d75a838b1a822e03a1127516d4",
          "transactionIndex": "0x99",
          "logIndex": "0x1d7",
          "removed": false
        },
        {
          "address": "0x1a44076050125825900e736c501f859c50fe728c",
          "topics": [
            "0x4e0a5bbfa0c11a64effb1ada324b5437a17272e1aed9320398715ef71bb20928"
          ],
          "data": "0x000000000000000000000000a536976c9ca36e74af76037af555eefa632ce469000000000000000000000000000000000000000000000000000000000000759500000000000000000000000000000000000000000000000000000000000000000000000000000000000000000000000000000000000000000000000000000000",
          "blockHash": "0xa1833620796cb7afd348af2b251c53676ac956f37ab72f27f3241cd5da4c666d",
          "blockNumber": "0x16c68ff",
          "transactionHash": "0xb817e39d3baa51278219e368c71244527a6165d75a838b1a822e03a1127516d4",
          "transactionIndex": "0x99",
          "logIndex": "0x1d8",
          "removed": false
        }
      ],
      "logsBloom": "0x00000000000000000000020800000000000000000000000000000000001000020400000000000000000000000000000000000000000000000000000000000000000000000000000000000000000000000000000000800000000000000000000000000000000000000000000000000000000000000010000000000000000000100000000000000000000000000000000000000000000000000000000000000000000000000000000000000000000000000000000000000000000000000000000000000000000000000000000000000000000000000000000000000000000000000000000000000000000000000000000000000000010000000000000000000000",
      "type": "0x2",
      "transactionHash": "0xb817e39d3baa51278219e368c71244527a6165d75a838b1a822e03a1127516d4",
      "transactionIndex": "0x99",
      "blockHash": "0xa1833620796cb7afd348af2b251c53676ac956f37ab72f27f3241cd5da4c666d",
      "blockNumber": "0x16c68ff",
      "gasUsed": "0xfba1",
      "effectiveGasPrice": "0x3effe9d",
      "from": "0x0990be6db8c785fbbf9ded8baec612a10cae814b",
      "to": "0x1a44076050125825900e736c501f859c50fe728c",
      "contractAddress": null,
      "l1BaseFeeScalar": "0x8dd",
      "l1BlobBaseFee": "0x2a88c3",
      "l1BlobBaseFeeScalar": "0x101c12",
      "l1Fee": "0x4f8077f450",
      "l1GasPrice": "0x13812fe71d",
      "l1GasUsed": "0x702"
    },
    {
      "status": "0x1",
      "cumulativeGasUsed": "0x1943c54",
      "logs": [
        {
          "address": "0x1a44076050125825900e736c501f859c50fe728c",
          "topics": [
            "0x4cff966ebee29a156dcb34cf72c1d06231fb1777f6bdf6e8089819232f002b1c"
          ],
          "data": "0x000000000000000000000000a536976c9ca36e74af76037af555eefa632ce4690000000000000000000000000000000000000000000000000000000000007623000000000000000000000000b5320b0b3a13cc860893e2bd79fcd7e13484dda2",
          "blockHash": "0x1c94d44c2e86a44c6610c09772ef43517bef70ca7a164afa7832800c3e965ec4",
          "blockNumber": "0x16c6900",
          "transactionHash": "0x1fd3f4c431386b2093054a6227b7f33e0d55ccd078cbad3d6c212c1bac2df0b3",
          "transactionIndex": "0x6a",
          "logIndex": "0x162",
          "removed": false
        }
      ],
      "logsBloom": "0x00000000000000000000000000000000000200000000000000000000001000000000000000000000000000000000000000000000000000000000000001000000000000000000000000000000000000000000000000000000000000000000000000000000000000000000000000000000000000000010000000000000000000000000000000000000000000000000000000000000000000000000000000000000000000000000000000000000000000000000000000000000000000000000000000000000000000000000000000000000000000000000000000000000000000000040000000000000000000000000000000000000010000000000000000000000",
      "type": "0x2",
      "transactionHash": "0x1fd3f4c431386b2093054a6227b7f33e0d55ccd078cbad3d6c212c1bac2df0b3",
      "transactionIndex": "0x6a",
      "blockHash": "0x1c94d44c2e86a44c6610c09772ef43517bef70ca7a164afa7832800c3e965ec4",
      "blockNumber": "0x16c6900",
      "gasUsed": "0xe18e",
      "effectiveGasPrice": "0x3ef9cd5",
      "from": "0x0990be6db8c785fbbf9ded8baec612a10cae814b",
      "to": "0x1a44076050125825900e736c501f859c50fe728c",
      "contractAddress": null,
      "l1BaseFeeScalar": "0x8dd",
      "l1BlobBaseFee": "0x2a88c3",
      "l1BlobBaseFeeScalar": "0x101c12",
      "l1Fee": "0x4b59ffd4f2",
      "l1GasPrice": "0x13812fe71d",
      "l1GasUsed": "0x6a4"
    },
    {
      "status": "0x1",
      "cumulativeGasUsed": "0x19537f5",
      "logs": [
        {
          "address": "0x1a44076050125825900e736c501f859c50fe728c",
          "topics": [
            "0xcd6f92f5ac6185a5acfa02c92090746cec64d777269cbcd0ed031e396657a1c2"
          ],
          "data": "0x000000000000000000000000a536976c9ca36e74af76037af555eefa632ce4690000000000000000000000000000000000000000000000000000000000007623000000000000000000000000c70ab6f32772f59fbfc23889caf4ba3376c84baf",
          "blockHash": "0x1c94d44c2e86a44c6610c09772ef43517bef70ca7a164afa7832800c3e965ec4",
          "blockNumber": "0x16c6900",
          "transactionHash": "0xb81d629fbb2850b0d51e55678aad0fdd72c637919278a1ce56c7fe1c443b9661",
          "transactionIndex": "0x6b",
          "logIndex": "0x163",
          "removed": false
        },
        {
          "address": "0x1a44076050125825900e736c501f859c50fe728c",
          "topics": [
            "0x4e0a5bbfa0c11a64effb1ada324b5437a17272e1aed9320398715ef71bb20928"
          ],
          "data": "0x000000000000000000000000a536976c9ca36e74af76037af555eefa632ce469000000000000000000000000000000000000000000000000000000000000762300000000000000000000000000000000000000000000000000000000000000000000000000000000000000000000000000000000000000000000000000000000",
          "blockHash": "0x1c94d44c2e86a44c6610c09772ef43517bef70ca7a164afa7832800c3e965ec4",
          "blockNumber": "0x16c6900",
          "transactionHash": "0xb81d629fbb2850b0d51e55678aad0fdd72c637919278a1ce56c7fe1c443b9661",
          "transactionIndex": "0x6b",
          "logIndex": "0x164",
          "removed": false
        }
      ],
      "logsBloom": "0x00000000000000000000020800000000000000000000000000000000001000020400000000000000000000000000000000000000000000000000000000000000000000000000000000000000000000000000000000800000000000000000000000000000000000000000000000000000000000000010000000000000000000100000000000000000000000000000000000000000000000000000000000000000000000000000000000000000000000000000000000000000000000000000000000000000000000000000000000000000000000000000000000000000000000000000000000000000000000000000000000000000010000000000000000000000",
      "type": "0x2",
      "transactionHash": "0xb81d629fbb2850b0d51e55678aad0fdd72c637919278a1ce56c7fe1c443b9661",
      "transactionIndex": "0x6b",
      "blockHash": "0x1c94d44c2e86a44c6610c09772ef43517bef70ca7a164afa7832800c3e965ec4",
      "blockNumber": "0x16c6900",
      "gasUsed": "0xfba1",
      "effectiveGasPrice": "0x3ef9cd5",
      "from": "0x0990be6db8c785fbbf9ded8baec612a10cae814b",
      "to": "0x1a44076050125825900e736c501f859c50fe728c",
      "contractAddress": null,
      "l1BaseFeeScalar": "0x8dd",
      "l1BlobBaseFee": "0x2a88c3",
      "l1BlobBaseFeeScalar": "0x101c12",
      "l1Fee": "0x4f8077f450",
      "l1GasPrice": "0x13812fe71d",
      "l1GasUsed": "0x702"
    },
    {
      "status": "0x1",
      "cumulativeGasUsed": "0x1961983",
      "logs": [
        {
          "address": "0x1a44076050125825900e736c501f859c50fe728c",
          "topics": [
            "0x4cff966ebee29a156dcb34cf72c1d06231fb1777f6bdf6e8089819232f002b1c"
          ],
          "data": "0x000000000000000000000000a536976c9ca36e74af76037af555eefa632ce46900000000000000000000000000000000000000000000000000000000000075c7000000000000000000000000b5320b0b3a13cc860893e2bd79fcd7e13484dda2",
          "blockHash": "0x1c94d44c2e86a44c6610c09772ef43517bef70ca7a164afa7832800c3e965ec4",
          "blockNumber": "0x16c6900",
          "transactionHash": "0x5190aefe162ead9d92355b7defcc787c2953314cd04f34a9268e89aedc719990",
          "transactionIndex": "0x6c",
          "logIndex": "0x165",
          "removed": false
        }
      ],
      "logsBloom": "0x00000000000000000000000000000000000200000000000000000000001000000000000000000000000000000000000000000000000000000000000001000000000000000000000000000000000000000000000000000000000000000000000000000000000000000000000000000000000000000010000000000000000000000000000000000000000000000000000000000000000000000000000000000000000000000000000000000000000000000000000000000000000000000000000000000000000000000000000000000000000000000000000000000000000000000040000000000000000000000000000000000000010000000000000000000000",
      "type": "0x2",
      "transactionHash": "0x5190aefe162ead9d92355b7defcc787c2953314cd04f34a9268e89aedc719990",
      "transactionIndex": "0x6c",
      "blockHash": "0x1c94d44c2e86a44c6610c09772ef43517bef70ca7a164afa7832800c3e965ec4",
      "blockNumber": "0x16c6900",
      "gasUsed": "0xe18e",
      "effectiveGasPrice": "0x3ef9cd5",
      "from": "0x0990be6db8c785fbbf9ded8baec612a10cae814b",
      "to": "0x1a44076050125825900e736c501f859c50fe728c",
      "contractAddress": null,
      "l1BaseFeeScalar": "0x8dd",
      "l1BlobBaseFee": "0x2a88c3",
      "l1BlobBaseFeeScalar": "0x101c12",
      "l1Fee": "0x4b59ffd4f2",
      "l1GasPrice": "0x13812fe71d",
      "l1GasUsed": "0x6a4"
    },
    {
      "status": "0x1",
      "cumulativeGasUsed": "0x1971524",
      "logs": [
        {
          "address": "0x1a44076050125825900e736c501f859c50fe728c",
          "topics": [
            "0xcd6f92f5ac6185a5acfa02c92090746cec64d777269cbcd0ed031e396657a1c2"
          ],
          "data": "0x000000000000000000000000a536976c9ca36e74af76037af555eefa632ce46900000000000000000000000000000000000000000000000000000000000075c7000000000000000000000000c70ab6f32772f59fbfc23889caf4ba3376c84baf",
          "blockHash": "0x1c94d44c2e86a44c6610c09772ef43517bef70ca7a164afa7832800c3e965ec4",
          "blockNumber": "0x16c6900",
          "transactionHash": "0x1e05598d6a2f9b56c18336b96fd5f81840377ebdb6939c7044c83894166f25ac",
          "transactionIndex": "0x6d",
          "logIndex": "0x166",
          "removed": false
        },
        {
          "address": "0x1a44076050125825900e736c501f859c50fe728c",
          "topics": [
            "0x4e0a5bbfa0c11a64effb1ada324b5437a17272e1aed9320398715ef71bb20928"
          ],
          "data": "0x000000000000000000000000a536976c9ca36e74af76037af555eefa632ce46900000000000000000000000000000000000000000000000000000000000075c700000000000000000000000000000000000000000000000000000000000000000000000000000000000000000000000000000000000000000000000000000000",
          "blockHash": "0x1c94d44c2e86a44c6610c09772ef43517bef70ca7a164afa7832800c3e965ec4",
          "blockNumber": "0x16c6900",
          "transactionHash": "0x1e05598d6a2f9b56c18336b96fd5f81840377ebdb6939c7044c83894166f25ac",
          "transactionIndex": "0x6d",
          "logIndex": "0x167",
          "removed": false
        }
      ],
      "logsBloom": "0x00000000000000000000020800000000000000000000000000000000001000020400000000000000000000000000000000000000000000000000000000000000000000000000000000000000000000000000000000800000000000000000000000000000000000000000000000000000000000000010000000000000000000100000000000000000000000000000000000000000000000000000000000000000000000000000000000000000000000000000000000000000000000000000000000000000000000000000000000000000000000000000000000000000000000000000000000000000000000000000000000000000010000000000000000000000",
      "type": "0x2",
      "transactionHash": "0x1e05598d6a2f9b56c18336b96fd5f81840377ebdb6939c7044c83894166f25ac",
      "transactionIndex": "0x6d",
      "blockHash": "0x1c94d44c2e86a44c6610c09772ef43517bef70ca7a164afa7832800c3e965ec4",
      "blockNumber": "0x16c6900",
      "gasUsed": "0xfba1",
      "effectiveGasPrice": "0x3ef9cd5",
      "from": "0x0990be6db8c785fbbf9ded8baec612a10cae814b",
      "to": "0x1a44076050125825900e736c501f859c50fe728c",
      "contractAddress": null,
      "l1BaseFeeScalar": "0x8dd",
      "l1BlobBaseFee": "0x2a88c3",
      "l1BlobBaseFeeScalar": "0x101c12",
      "l1Fee": "0x4f8077f450",
      "l1GasPrice": "0x13812fe71d",
      "l1GasUsed": "0x702"
    }
  ],
  "libraries": [],
  "pending": [],
  "returns": {},
  "timestamp": 1734553296,
  "chain": 8453,
  "commit": "cb8ebc4"
}