{
  "transactions": [
    {
      "hash": "0xa3dfa9b6ddf5321cf0cd8f4f3de939f2dc65ec882e70baa9d5350f80f7fb1c85",
      "transactionType": "CALL",
      "contractName": null,
      "contractAddress": "0x57558cb8d6005de0bae8a2789d5efaae52dba5a8",
      "function": "setEnforcedOptions((uint32,uint16,bytes)[])",
      "arguments": [
        "[(30260, 1, 0x00030100110100000000000000000000000000030d40), (30260, 2, 0x0003010011010000000000000000000000000003d090), (30255, 1, 0x00030100110100000000000000000000000000030d40), (30255, 2, 0x0003010011010000000000000000000000000003d090), (30274, 1, 0x00030100110100000000000000000000000000030d40), (30274, 2, 0x0003010011010000000000000000000000000003d090), (30332, 1, 0x00030100110100000000000000000000000000030d40), (30332, 2, 0x0003010011010000000000000000000000000003d090), (30339, 1, 0x00030100110100000000000000000000000000030d40), (30339, 2, 0x0003010011010000000000000000000000000003d090), (30110, 1, 0x00030100110100000000000000000000000000030d40), (30110, 2, 0x0003010011010000000000000000000000000003d090), (30111, 1, 0x00030100110100000000000000000000000000030d40), (30111, 2, 0x0003010011010000000000000000000000000003d090), (30109, 1, 0x00030100110100000000000000000000000000030d40), (30109, 2, 0x0003010011010000000000000000000000000003d090), (30106, 1, 0x00030100110100000000000000000000000000030d40), (30106, 2, 0x0003010011010000000000000000000000000003d090), (30102, 1, 0x00030100110100000000000000000000000000030d40), (30102, 2, 0x0003010011010000000000000000000000000003d090), (30158, 1, 0x00030100110100000000000000000000000000030d40), (30158, 2, 0x0003010011010000000000000000000000000003d090), (30101, 1, 0x00030100110100000000000000000000000000030d40), (30101, 2, 0x0003010011010000000000000000000000000003d090), (30243, 1, 0x00030100110100000000000000000000000000030d40), (30243, 2, 0x0003010011010000000000000000000000000003d090), (30184, 1, 0x00030100110100000000000000000000000000030d40), (30184, 2, 0x0003010011010000000000000000000000000003d090), (30362, 1, 0x00030100110100000000000000000000000000030d40), (30362, 2, 0x0003010011010000000000000000000000000003d090), (30183, 1, 0x00030100110100000000000000000000000000030d40), (30183, 2, 0x0003010011010000000000000000000000000003d090), (30319, 1, 0x00030100110100000000000000000000000000030d40), (30319, 2, 0x0003010011010000000000000000000000000003d090), (30324, 1, 0x00030100110100000000000000000000000000030d40), (30324, 2, 0x0003010011010000000000000000000000000003d090), (30165, 1, 0x00030100110100000000000000000000000000030d40), (30165, 2, 0x0003010011010000000000000000000000000003d090)]"
      ],
      "transaction": {
        "from": "0x45dce8e4f2dc005a5f28206a46cb034697eeda8e",
        "to": "0x57558cb8d6005de0bae8a2789d5efaae52dba5a8",
        "gas": "0x72a64",
        "value": "0x0",
        "input": "0xb98bd0700000000000000000000000000000000000000000000000000000000000000020000000000000000000000000000000000000000000000000000000000000002600000000000000000000000000000000000000000000000000000000000004c00000000000000000000000000000000000000000000000000000000000000560000000000000000000000000000000000000000000000000000000000000060000000000000000000000000000000000000000000000000000000000000006a0000000000000000000000000000000000000000000000000000000000000074000000000000000000000000000000000000000000000000000000000000007e00000000000000000000000000000000000000000000000000000000000000880000000000000000000000000000000000000000000000000000000000000092000000000000000000000000000000000000000000000000000000000000009c00000000000000000000000000000000000000000000000000000000000000a600000000000000000000000000000000000000000000000000000000000000b000000000000000000000000000000000000000000000000000000000000000ba00000000000000000000000000000000000000000000000000000000000000c400000000000000000000000000000000000000000000000000000000000000ce00000000000000000000000000000000000000000000000000000000000000d800000000000000000000000000000000000000000000000000000000000000e200000000000000000000000000000000000000000000000000000000000000ec00000000000000000000000000000000000000000000000000000000000000f60000000000000000000000000000000000000000000000000000000000000100000000000000000000000000000000000000000000000000000000000000010a0000000000000000000000000000000000000000000000000000000000000114000000000000000000000000000000000000000000000000000000000000011e00000000000000000000000000000000000000000000000000000000000001280000000000000000000000000000000000000000000000000000000000000132000000000000000000000000000000000000000000000000000000000000013c00000000000000000000000000000000000000000000000000000000000001460000000000000000000000000000000000000000000000000000000000000150000000000000000000000000000000000000000000000000000000000000015a0000000000000000000000000000000000000000000000000000000000000164000000000000000000000000000000000000000000000000000000000000016e00000000000000000000000000000000000000000000000000000000000001780000000000000000000000000000000000000000000000000000000000000182000000000000000000000000000000000000000000000000000000000000018c000000000000000000000000000000000000000000000000000000000000019600000000000000000000000000000000000000000000000000000000000001a000000000000000000000000000000000000000000000000000000000000001aa00000000000000000000000000000000000000000000000000000000000001b400000000000000000000000000000000000000000000000000000000000001be0000000000000000000000000000000000000000000000000000000000000763400000000000000000000000000000000000000000000000000000000000000010000000000000000000000000000000000000000000000000000000000000060000000000000000000000000000000000000000000000000000000000000001600030100110100000000000000000000000000030d400000000000000000000000000000000000000000000000000000000000000000000000000000000076340000000000000000000000000000000000000000000000000000000000000002000000000000000000000000000000000000000000000000000000000000006000000000000000000000000000000000000000000000000000000000000000160003010011010000000000000000000000000003d09000000000000000000000000000000000000000000000000000000000000000000000000000000000762f00000000000000000000000000000000000000000000000000000000000000010000000000000000000000000000000000000000000000000000000000000060000000000000000000000000000000000000000000000000000000000000001600030100110100000000000000000000000000030d4000000000000000000000000000000000000000000000000000000000000000000000000000000000762f0000000000000000000000000000000000000000000000000000000000000002000000000000000000000000000000000000000000000000000000000000006000000000000000000000000000000000000000000000000000000000000000160003010011010000000000000000000000000003d09000000000000000000000000000000000000000000000000000000000000000000000000000000000764200000000000000000000000000000000000000000000000000000000000000010000000000000000000000000000000000000000000000000000000000000060000000000000000000000000000000000000000000000000000000000000001600030100110100000000000000000000000000030d400000000000000000000000000000000000000000000000000000000000000000000000000000000076420000000000000000000000000000000000000000000000000000000000000002000000000000000000000000000000000000000000000000000000000000006000000000000000000000000000000000000000000000000000000000000000160003010011010000000000000000000000000003d09000000000000000000000000000000000000000000000000000000000000000000000000000000000767c00000000000000000000000000000000000000000000000000000000000000010000000000000000000000000000000000000000000000000000000000000060000000000000000000000000000000000000000000000000000000000000001600030100110100000000000000000000000000030d4000000000000000000000000000000000000000000000000000000000000000000000000000000000767c0000000000000000000000000000000000000000000000000000000000000002000000000000000000000000000000000000000000000000000000000000006000000000000000000000000000000000000000000000000000000000000000160003010011010000000000000000000000000003d09000000000000000000000000000000000000000000000000000000000000000000000000000000000768300000000000000000000000000000000000000000000000000000000000000010000000000000000000000000000000000000000000000000000000000000060000000000000000000000000000000000000000000000000000000000000001600030100110100000000000000000000000000030d400000000000000000000000000000000000000000000000000000000000000000000000000000000076830000000000000000000000000000000000000000000000000000000000000002000000000000000000000000000000000000000000000000000000000000006000000000000000000000000000000000000000000000000000000000000000160003010011010000000000000000000000000003d09000000000000000000000000000000000000000000000000000000000000000000000000000000000759e00000000000000000000000000000000000000000000000000000000000000010000000000000000000000000000000000000000000000000000000000000060000000000000000000000000000000000000000000000000000000000000001600030100110100000000000000000000000000030d4000000000000000000000000000000000000000000000000000000000000000000000000000000000759e0000000000000000000000000000000000000000000000000000000000000002000000000000000000000000000000000000000000000000000000000000006000000000000000000000000000000000000000000000000000000000000000160003010011010000000000000000000000000003d09000000000000000000000000000000000000000000000000000000000000000000000000000000000759f00000000000000000000000000000000000000000000000000000000000000010000000000000000000000000000000000000000000000000000000000000060000000000000000000000000000000000000000000000000000000000000001600030100110100000000000000000000000000030d4000000000000000000000000000000000000000000000000000000000000000000000000000000000759f0000000000000000000000000000000000000000000000000000000000000002000000000000000000000000000000000000000000000000000000000000006000000000000000000000000000000000000000000000000000000000000000160003010011010000000000000000000000000003d09000000000000000000000000000000000000000000000000000000000000000000000000000000000759d00000000000000000000000000000000000000000000000000000000000000010000000000000000000000000000000000000000000000000000000000000060000000000000000000000000000000000000000000000000000000000000001600030100110100000000000000000000000000030d4000000000000000000000000000000000000000000000000000000000000000000000000000000000759d0000000000000000000000000000000000000000000000000000000000000002000000000000000000000000000000000000000000000000000000000000006000000000000000000000000000000000000000000000000000000000000000160003010011010000000000000000000000000003d09000000000000000000000000000000000000000000000000000000000000000000000000000000000759a00000000000000000000000000000000000000000000000000000000000000010000000000000000000000000000000000000000000000000000000000000060000000000000000000000000000000000000000000000000000000000000001600030100110100000000000000000000000000030d4000000000000000000000000000000000000000000000000000000000000000000000000000000000759a0000000000000000000000000000000000000000000000000000000000000002000000000000000000000000000000000000000000000000000000000000006000000000000000000000000000000000000000000000000000000000000000160003010011010000000000000000000000000003d09000000000000000000000000000000000000000000000000000000000000000000000000000000000759600000000000000000000000000000000000000000000000000000000000000010000000000000000000000000000000000000000000000000000000000000060000000000000000000000000000000000000000000000000000000000000001600030100110100000000000000000000000000030d400000000000000000000000000000000000000000000000000000000000000000000000000000000075960000000000000000000000000000000000000000000000000000000000000002000000000000000000000000000000000000000000000000000000000000006000000000000000000000000000000000000000000000000000000000000000160003010011010000000000000000000000000003d0900000000000000000000000000000000000000000000000000000000000000000000000000000000075ce00000000000000000000000000000000000000000000000000000000000000010000000000000000000000000000000000000000000000000000000000000060000000000000000000000000000000000000000000000000000000000000001600030100110100000000000000000000000000030d400000000000000000000000000000000000000000000000000000000000000000000000000000000075ce0000000000000000000000000000000000000000000000000000000000000002000000000000000000000000000000000000000000000000000000000000006000000000000000000000000000000000000000000000000000000000000000160003010011010000000000000000000000000003d09000000000000000000000000000000000000000000000000000000000000000000000000000000000759500000000000000000000000000000000000000000000000000000000000000010000000000000000000000000000000000000000000000000000000000000060000000000000000000000000000000000000000000000000000000000000001600030100110100000000000000000000000000030d400000000000000000000000000000000000000000000000000000000000000000000000000000000075950000000000000000000000000000000000000000000000000000000000000002000000000000000000000000000000000000000000000000000000000000006000000000000000000000000000000000000000000000000000000000000000160003010011010000000000000000000000000003d09000000000000000000000000000000000000000000000000000000000000000000000000000000000762300000000000000000000000000000000000000000000000000000000000000010000000000000000000000000000000000000000000000000000000000000060000000000000000000000000000000000000000000000000000000000000001600030100110100000000000000000000000000030d400000000000000000000000000000000000000000000000000000000000000000000000000000000076230000000000000000000000000000000000000000000000000000000000000002000000000000000000000000000000000000000000000000000000000000006000000000000000000000000000000000000000000000000000000000000000160003010011010000000000000000000000000003d0900000000000000000000000000000000000000000000000000000000000000000000000000000000075e800000000000000000000000000000000000000000000000000000000000000010000000000000000000000000000000000000000000000000000000000000060000000000000000000000000000000000000000000000000000000000000001600030100110100000000000000000000000000030d400000000000000000000000000000000000000000000000000000000000000000000000000000000075e80000000000000000000000000000000000000000000000000000000000000002000000000000000000000000000000000000000000000000000000000000006000000000000000000000000000000000000000000000000000000000000000160003010011010000000000000000000000000003d09000000000000000000000000000000000000000000000000000000000000000000000000000000000769a00000000000000000000000000000000000000000000000000000000000000010000000000000000000000000000000000000000000000000000000000000060000000000000000000000000000000000000000000000000000000000000001600030100110100000000000000000000000000030d4000000000000000000000000000000000000000000000000000000000000000000000000000000000769a0000000000000000000000000000000000000000000000000000000000000002000000000000000000000000000000000000000000000000000000000000006000000000000000000000000000000000000000000000000000000000000000160003010011010000000000000000000000000003d0900000000000000000000000000000000000000000000000000000000000000000000000000000000075e700000000000000000000000000000000000000000000000000000000000000010000000000000000000000000000000000000000000000000000000000000060000000000000000000000000000000000000000000000000000000000000001600030100110100000000000000000000000000030d400000000000000000000000000000000000000000000000000000000000000000000000000000000075e70000000000000000000000000000000000000000000000000000000000000002000000000000000000000000000000000000000000000000000000000000006000000000000000000000000000000000000000000000000000000000000000160003010011010000000000000000000000000003d09000000000000000000000000000000000000000000000000000000000000000000000000000000000766f00000000000000000000000000000000000000000000000000000000000000010000000000000000000000000000000000000000000000000000000000000060000000000000000000000000000000000000000000000000000000000000001600030100110100000000000000000000000000030d4000000000000000000000000000000000000000000000000000000000000000000000000000000000766f0000000000000000000000000000000000000000000000000000000000000002000000000000000000000000000000000000000000000000000000000000006000000000000000000000000000000000000000000000000000000000000000160003010011010000000000000000000000000003d09000000000000000000000000000000000000000000000000000000000000000000000000000000000767400000000000000000000000000000000000000000000000000000000000000010000000000000000000000000000000000000000000000000000000000000060000000000000000000000000000000000000000000000000000000000000001600030100110100000000000000000000000000030d400000000000000000000000000000000000000000000000000000000000000000000000000000000076740000000000000000000000000000000000000000000000000000000000000002000000000000000000000000000000000000000000000000000000000000006000000000000000000000000000000000000000000000000000000000000000160003010011010000000000000000000000000003d0900000000000000000000000000000000000000000000000000000000000000000000000000000000075d500000000000000000000000000000000000000000000000000000000000000010000000000000000000000000000000000000000000000000000000000000060000000000000000000000000000000000000000000000000000000000000001600030100110100000000000000000000000000030d400000000000000000000000000000000000000000000000000000000000000000000000000000000075d50000000000000000000000000000000000000000000000000000000000000002000000000000000000000000000000000000000000000000000000000000006000000000000000000000000000000000000000000000000000000000000000160003010011010000000000000000000000000003d09000000000000000000000",
        "nonce": "0x6f",
        "chainId": "0x531"
      },
      "additionalContracts": [],
      "isFixedGasLimit": false
    },
    {
      "hash": "0x4141de1a352338319b7cafc6049856bc602e62359fc4018697994de97a90ee30",
      "transactionType": "CALL",
      "contractName": null,
      "contractAddress": "0x57558cb8d6005de0bae8a2789d5efaae52dba5a8",
      "function": "setPeer(uint32,bytes32)",
      "arguments": [
        "30260",
        "0x00000000000000000000000057558cb8d6005de0bae8a2789d5efaae52dba5a8"
      ],
      "transaction": {
        "from": "0x45dce8e4f2dc005a5f28206a46cb034697eeda8e",
        "to": "0x57558cb8d6005de0bae8a2789d5efaae52dba5a8",
        "gas": "0xc883",
        "value": "0x0",
        "input": "0x3400288b000000000000000000000000000000000000000000000000000000000000763400000000000000000000000057558cb8d6005de0bae8a2789d5efaae52dba5a8",
        "nonce": "0x70",
        "chainId": "0x531"
      },
      "additionalContracts": [],
      "isFixedGasLimit": false
    },
    {
      "hash": "0x6a8ddfea5121916a49ac6efe148fee3ef78d057c196283784ce0d928fd75c1da",
      "transactionType": "CALL",
      "contractName": null,
      "contractAddress": "0x57558cb8d6005de0bae8a2789d5efaae52dba5a8",
      "function": "setPeer(uint32,bytes32)",
      "arguments": [
        "30255",
        "0x00000000000000000000000057558cb8d6005de0bae8a2789d5efaae52dba5a8"
      ],
      "transaction": {
        "from": "0x45dce8e4f2dc005a5f28206a46cb034697eeda8e",
        "to": "0x57558cb8d6005de0bae8a2789d5efaae52dba5a8",
        "gas": "0xc883",
        "value": "0x0",
        "input": "0x3400288b000000000000000000000000000000000000000000000000000000000000762f00000000000000000000000057558cb8d6005de0bae8a2789d5efaae52dba5a8",
        "nonce": "0x71",
        "chainId": "0x531"
      },
      "additionalContracts": [],
      "isFixedGasLimit": false
    },
    {
      "hash": "0xcff256c878a15d786b822f36cf5d71c080001d659fe10bad6b4da546847eab31",
      "transactionType": "CALL",
      "contractName": null,
      "contractAddress": "0x57558cb8d6005de0bae8a2789d5efaae52dba5a8",
      "function": "setPeer(uint32,bytes32)",
      "arguments": [
        "30274",
        "0x00000000000000000000000057558cb8d6005de0bae8a2789d5efaae52dba5a8"
      ],
      "transaction": {
        "from": "0x45dce8e4f2dc005a5f28206a46cb034697eeda8e",
        "to": "0x57558cb8d6005de0bae8a2789d5efaae52dba5a8",
        "gas": "0xc883",
        "value": "0x0",
        "input": "0x3400288b000000000000000000000000000000000000000000000000000000000000764200000000000000000000000057558cb8d6005de0bae8a2789d5efaae52dba5a8",
        "nonce": "0x72",
        "chainId": "0x531"
      },
      "additionalContracts": [],
      "isFixedGasLimit": false
    },
    {
      "hash": "0x129ac77427791fc4303e260ae41b53a55ff80ea3fc5769f7ce80eb28ad2b250b",
      "transactionType": "CALL",
      "contractName": null,
      "contractAddress": "0x57558cb8d6005de0bae8a2789d5efaae52dba5a8",
      "function": "setPeer(uint32,bytes32)",
      "arguments": [
        "30332",
        "0x00000000000000000000000057558cb8d6005de0bae8a2789d5efaae52dba5a8"
      ],
      "transaction": {
        "from": "0x45dce8e4f2dc005a5f28206a46cb034697eeda8e",
        "to": "0x57558cb8d6005de0bae8a2789d5efaae52dba5a8",
        "gas": "0xc883",
        "value": "0x0",
        "input": "0x3400288b000000000000000000000000000000000000000000000000000000000000767c00000000000000000000000057558cb8d6005de0bae8a2789d5efaae52dba5a8",
        "nonce": "0x73",
        "chainId": "0x531"
      },
      "additionalContracts": [],
      "isFixedGasLimit": false
    },
    {
      "hash": "0x0a28557d9dd6edf699e7c4055f3788cc3d9de8bfe24092c501a9f220afb71c6c",
      "transactionType": "CALL",
      "contractName": null,
      "contractAddress": "0x57558cb8d6005de0bae8a2789d5efaae52dba5a8",
      "function": "setPeer(uint32,bytes32)",
      "arguments": [
        "30339",
        "0x00000000000000000000000057558cb8d6005de0bae8a2789d5efaae52dba5a8"
      ],
      "transaction": {
        "from": "0x45dce8e4f2dc005a5f28206a46cb034697eeda8e",
        "to": "0x57558cb8d6005de0bae8a2789d5efaae52dba5a8",
        "gas": "0xc883",
        "value": "0x0",
        "input": "0x3400288b000000000000000000000000000000000000000000000000000000000000768300000000000000000000000057558cb8d6005de0bae8a2789d5efaae52dba5a8",
        "nonce": "0x74",
        "chainId": "0x531"
      },
      "additionalContracts": [],
      "isFixedGasLimit": false
    },
    {
      "hash": "0x21ca1e4430f55c5703952622835f3db5e35f8b5246eceb198a396329123166dc",
      "transactionType": "CALL",
      "contractName": null,
      "contractAddress": "0x57558cb8d6005de0bae8a2789d5efaae52dba5a8",
      "function": "setPeer(uint32,bytes32)",
      "arguments": [
        "30110",
        "0x00000000000000000000000057558cb8d6005de0bae8a2789d5efaae52dba5a8"
      ],
      "transaction": {
        "from": "0x45dce8e4f2dc005a5f28206a46cb034697eeda8e",
        "to": "0x57558cb8d6005de0bae8a2789d5efaae52dba5a8",
        "gas": "0xc883",
        "value": "0x0",
        "input": "0x3400288b000000000000000000000000000000000000000000000000000000000000759e00000000000000000000000057558cb8d6005de0bae8a2789d5efaae52dba5a8",
        "nonce": "0x75",
        "chainId": "0x531"
      },
      "additionalContracts": [],
      "isFixedGasLimit": false
    },
    {
      "hash": "0xb1c9ed0891202842689b5a7afc43e13947f3f4a9454b22b207d6fcccedb4e5ac",
      "transactionType": "CALL",
      "contractName": null,
      "contractAddress": "0x57558cb8d6005de0bae8a2789d5efaae52dba5a8",
      "function": "setPeer(uint32,bytes32)",
      "arguments": [
        "30111",
        "0x00000000000000000000000057558cb8d6005de0bae8a2789d5efaae52dba5a8"
      ],
      "transaction": {
        "from": "0x45dce8e4f2dc005a5f28206a46cb034697eeda8e",
        "to": "0x57558cb8d6005de0bae8a2789d5efaae52dba5a8",
        "gas": "0xc883",
        "value": "0x0",
        "input": "0x3400288b000000000000000000000000000000000000000000000000000000000000759f00000000000000000000000057558cb8d6005de0bae8a2789d5efaae52dba5a8",
        "nonce": "0x76",
        "chainId": "0x531"
      },
      "additionalContracts": [],
      "isFixedGasLimit": false
    },
    {
      "hash": "0x43eaf49ba5083185ec898339f2f956f162661bf3091ad5a5527c8e674587ff21",
      "transactionType": "CALL",
      "contractName": null,
      "contractAddress": "0x57558cb8d6005de0bae8a2789d5efaae52dba5a8",
      "function": "setPeer(uint32,bytes32)",
      "arguments": [
        "30109",
        "0x00000000000000000000000057558cb8d6005de0bae8a2789d5efaae52dba5a8"
      ],
      "transaction": {
        "from": "0x45dce8e4f2dc005a5f28206a46cb034697eeda8e",
        "to": "0x57558cb8d6005de0bae8a2789d5efaae52dba5a8",
        "gas": "0xc883",
        "value": "0x0",
        "input": "0x3400288b000000000000000000000000000000000000000000000000000000000000759d00000000000000000000000057558cb8d6005de0bae8a2789d5efaae52dba5a8",
        "nonce": "0x77",
        "chainId": "0x531"
      },
      "additionalContracts": [],
      "isFixedGasLimit": false
    },
    {
      "hash": "0x0e5e41ce2390652b5dddf87ab26492cacda29634db69d32d1258daf2edb8b620",
      "transactionType": "CALL",
      "contractName": null,
      "contractAddress": "0x57558cb8d6005de0bae8a2789d5efaae52dba5a8",
      "function": "setPeer(uint32,bytes32)",
      "arguments": [
        "30106",
        "0x00000000000000000000000057558cb8d6005de0bae8a2789d5efaae52dba5a8"
      ],
      "transaction": {
        "from": "0x45dce8e4f2dc005a5f28206a46cb034697eeda8e",
        "to": "0x57558cb8d6005de0bae8a2789d5efaae52dba5a8",
        "gas": "0xc883",
        "value": "0x0",
        "input": "0x3400288b000000000000000000000000000000000000000000000000000000000000759a00000000000000000000000057558cb8d6005de0bae8a2789d5efaae52dba5a8",
        "nonce": "0x78",
        "chainId": "0x531"
      },
      "additionalContracts": [],
      "isFixedGasLimit": false
    },
    {
      "hash": "0xc36fd882bdb82456ff01366f2f2d3ea75935d1e8bb8fb8d6b1f5787be8d840a6",
      "transactionType": "CALL",
      "contractName": null,
      "contractAddress": "0x57558cb8d6005de0bae8a2789d5efaae52dba5a8",
      "function": "setPeer(uint32,bytes32)",
      "arguments": [
        "30102",
        "0x00000000000000000000000057558cb8d6005de0bae8a2789d5efaae52dba5a8"
      ],
      "transaction": {
        "from": "0x45dce8e4f2dc005a5f28206a46cb034697eeda8e",
        "to": "0x57558cb8d6005de0bae8a2789d5efaae52dba5a8",
        "gas": "0xc883",
        "value": "0x0",
        "input": "0x3400288b000000000000000000000000000000000000000000000000000000000000759600000000000000000000000057558cb8d6005de0bae8a2789d5efaae52dba5a8",
        "nonce": "0x79",
        "chainId": "0x531"
      },
      "additionalContracts": [],
      "isFixedGasLimit": false
    },
    {
      "hash": "0x858b2aa26185d5107fdc1141ba1624556e2513290aabf8a6ac64b8e573c6ff05",
      "transactionType": "CALL",
      "contractName": null,
      "contractAddress": "0x57558cb8d6005de0bae8a2789d5efaae52dba5a8",
      "function": "setPeer(uint32,bytes32)",
      "arguments": [
        "30158",
        "0x00000000000000000000000057558cb8d6005de0bae8a2789d5efaae52dba5a8"
      ],
      "transaction": {
        "from": "0x45dce8e4f2dc005a5f28206a46cb034697eeda8e",
        "to": "0x57558cb8d6005de0bae8a2789d5efaae52dba5a8",
        "gas": "0xc883",
        "value": "0x0",
        "input": "0x3400288b00000000000000000000000000000000000000000000000000000000000075ce00000000000000000000000057558cb8d6005de0bae8a2789d5efaae52dba5a8",
        "nonce": "0x7a",
        "chainId": "0x531"
      },
      "additionalContracts": [],
      "isFixedGasLimit": false
    },
    {
      "hash": "0x62721e3a3e4af276266ce463242148aa2169ed518c700366dbae56677416d017",
      "transactionType": "CALL",
      "contractName": null,
      "contractAddress": "0x57558cb8d6005de0bae8a2789d5efaae52dba5a8",
      "function": "setPeer(uint32,bytes32)",
      "arguments": [
        "30101",
        "0x00000000000000000000000057558cb8d6005de0bae8a2789d5efaae52dba5a8"
      ],
      "transaction": {
        "from": "0x45dce8e4f2dc005a5f28206a46cb034697eeda8e",
        "to": "0x57558cb8d6005de0bae8a2789d5efaae52dba5a8",
        "gas": "0xc883",
        "value": "0x0",
        "input": "0x3400288b000000000000000000000000000000000000000000000000000000000000759500000000000000000000000057558cb8d6005de0bae8a2789d5efaae52dba5a8",
        "nonce": "0x7b",
        "chainId": "0x531"
      },
      "additionalContracts": [],
      "isFixedGasLimit": false
    },
    {
      "hash": "0xd6e93c1ddda5d93573be5f475326bab843029343bbecfa8f24184fc1ad731093",
      "transactionType": "CALL",
      "contractName": null,
      "contractAddress": "0x57558cb8d6005de0bae8a2789d5efaae52dba5a8",
      "function": "setPeer(uint32,bytes32)",
      "arguments": [
        "30243",
        "0x00000000000000000000000057558cb8d6005de0bae8a2789d5efaae52dba5a8"
      ],
      "transaction": {
        "from": "0x45dce8e4f2dc005a5f28206a46cb034697eeda8e",
        "to": "0x57558cb8d6005de0bae8a2789d5efaae52dba5a8",
        "gas": "0xc883",
        "value": "0x0",
        "input": "0x3400288b000000000000000000000000000000000000000000000000000000000000762300000000000000000000000057558cb8d6005de0bae8a2789d5efaae52dba5a8",
        "nonce": "0x7c",
        "chainId": "0x531"
      },
      "additionalContracts": [],
      "isFixedGasLimit": false
    },
    {
      "hash": "0xfd348cc8907e36856cfb59e291e247168b9fa5fc5e76836177926f215e1d402c",
      "transactionType": "CALL",
      "contractName": null,
      "contractAddress": "0x57558cb8d6005de0bae8a2789d5efaae52dba5a8",
      "function": "setPeer(uint32,bytes32)",
      "arguments": [
        "30184",
        "0x00000000000000000000000057558cb8d6005de0bae8a2789d5efaae52dba5a8"
      ],
      "transaction": {
        "from": "0x45dce8e4f2dc005a5f28206a46cb034697eeda8e",
        "to": "0x57558cb8d6005de0bae8a2789d5efaae52dba5a8",
        "gas": "0xc883",
        "value": "0x0",
        "input": "0x3400288b00000000000000000000000000000000000000000000000000000000000075e800000000000000000000000057558cb8d6005de0bae8a2789d5efaae52dba5a8",
        "nonce": "0x7d",
        "chainId": "0x531"
      },
      "additionalContracts": [],
      "isFixedGasLimit": false
    },
    {
      "hash": "0x5087229b5d346a040a097a8e4b6f4f83b747dde78256cb4ba97e25d337670e5a",
      "transactionType": "CALL",
      "contractName": null,
      "contractAddress": "0x57558cb8d6005de0bae8a2789d5efaae52dba5a8",
      "function": "setPeer(uint32,bytes32)",
      "arguments": [
        "30362",
        "0x00000000000000000000000057558cb8d6005de0bae8a2789d5efaae52dba5a8"
      ],
      "transaction": {
        "from": "0x45dce8e4f2dc005a5f28206a46cb034697eeda8e",
        "to": "0x57558cb8d6005de0bae8a2789d5efaae52dba5a8",
        "gas": "0xc883",
        "value": "0x0",
        "input": "0x3400288b000000000000000000000000000000000000000000000000000000000000769a00000000000000000000000057558cb8d6005de0bae8a2789d5efaae52dba5a8",
        "nonce": "0x7e",
        "chainId": "0x531"
      },
      "additionalContracts": [],
      "isFixedGasLimit": false
    },
    {
      "hash": "0x7f358ae36188b935d8dd072e4b8cb1bb7e8bbca0622b5693ae537b6da33fba60",
      "transactionType": "CALL",
      "contractName": null,
      "contractAddress": "0x57558cb8d6005de0bae8a2789d5efaae52dba5a8",
      "function": "setPeer(uint32,bytes32)",
      "arguments": [
        "30183",
        "0x0000000000000000000000006185334f1542a9966cbad694577ffbede3dd1f1f"
      ],
      "transaction": {
        "from": "0x45dce8e4f2dc005a5f28206a46cb034697eeda8e",
        "to": "0x57558cb8d6005de0bae8a2789d5efaae52dba5a8",
        "gas": "0xbd70",
        "value": "0x0",
        "input": "0x3400288b00000000000000000000000000000000000000000000000000000000000075e70000000000000000000000006185334f1542a9966cbad694577ffbede3dd1f1f",
        "nonce": "0x7f",
        "chainId": "0x531"
      },
      "additionalContracts": [],
      "isFixedGasLimit": false
    },
    {
      "hash": "0x79aa2ae5b2e7890a998b7874684c43e9703b264a3bdea88ac51da349b74580da",
      "transactionType": "CALL",
      "contractName": null,
      "contractAddress": "0x57558cb8d6005de0bae8a2789d5efaae52dba5a8",
      "function": "setPeer(uint32,bytes32)",
      "arguments": [
        "30319",
        "0x00000000000000000000000057558cb8d6005de0bae8a2789d5efaae52dba5a8"
      ],
      "transaction": {
        "from": "0x45dce8e4f2dc005a5f28206a46cb034697eeda8e",
        "to": "0x57558cb8d6005de0bae8a2789d5efaae52dba5a8",
        "gas": "0xc883",
        "value": "0x0",
        "input": "0x3400288b000000000000000000000000000000000000000000000000000000000000766f00000000000000000000000057558cb8d6005de0bae8a2789d5efaae52dba5a8",
        "nonce": "0x80",
        "chainId": "0x531"
      },
      "additionalContracts": [],
      "isFixedGasLimit": false
    },
    {
      "hash": "0x7d492fb4633d0a041db290271af4771dc04ef67d4b6b2d4b6ebd5e4b40e8c16d",
      "transactionType": "CALL",
      "contractName": null,
      "contractAddress": "0x57558cb8d6005de0bae8a2789d5efaae52dba5a8",
      "function": "setPeer(uint32,bytes32)",
      "arguments": [
        "30324",
        "0x000000000000000000000000bd39033994f5324fe8d50bb524396a78ff9dfe22"
      ],
      "transaction": {
        "from": "0x45dce8e4f2dc005a5f28206a46cb034697eeda8e",
        "to": "0x57558cb8d6005de0bae8a2789d5efaae52dba5a8",
        "gas": "0xbd70",
        "value": "0x0",
        "input": "0x3400288b0000000000000000000000000000000000000000000000000000000000007674000000000000000000000000bd39033994f5324fe8d50bb524396a78ff9dfe22",
        "nonce": "0x81",
        "chainId": "0x531"
      },
      "additionalContracts": [],
      "isFixedGasLimit": false
    },
    {
      "hash": "0xe94dd8c721856ef7e94fed6e280352a17e0925ececd002ac52ceaa75f4b65e03",
      "transactionType": "CALL",
      "contractName": null,
      "contractAddress": "0x57558cb8d6005de0bae8a2789d5efaae52dba5a8",
      "function": "setPeer(uint32,bytes32)",
      "arguments": [
        "30165",
        "0x0000000000000000000000003fc877008e396fdd7f9ee3deb2e8a54d54da705a"
      ],
      "transaction": {
        "from": "0x45dce8e4f2dc005a5f28206a46cb034697eeda8e",
        "to": "0x57558cb8d6005de0bae8a2789d5efaae52dba5a8",
        "gas": "0xc883",
        "value": "0x0",
        "input": "0x3400288b00000000000000000000000000000000000000000000000000000000000075d50000000000000000000000003fc877008e396fdd7f9ee3deb2e8a54d54da705a",
        "nonce": "0x82",
        "chainId": "0x531"
      },
      "additionalContracts": [],
      "isFixedGasLimit": false
    },
    {
      "hash": "0xc6466a2e21d82c540158f4105dd9db80acf3b2d14ff24852e8b92c0f667abe2c",
      "transactionType": "CALL",
      "contractName": null,
      "contractAddress": "0x1a44076050125825900e736c501f859c50fe728c",
      "function": "setSendLibrary(address,uint32,address)",
      "arguments": [
        "0x57558Cb8d6005DE0BAe8a2789d5EfaaE52dba5a8",
        "30102",
        "0xC39161c743D0307EB9BCc9FEF03eeb9Dc4802de7"
      ],
      "transaction": {
        "from": "0x45dce8e4f2dc005a5f28206a46cb034697eeda8e",
        "to": "0x1a44076050125825900e736c501f859c50fe728c",
        "gas": "0x149cd",
        "value": "0x0",
        "input": "0x9535ff3000000000000000000000000057558cb8d6005de0bae8a2789d5efaae52dba5a80000000000000000000000000000000000000000000000000000000000007596000000000000000000000000c39161c743d0307eb9bcc9fef03eeb9dc4802de7",
        "nonce": "0x83",
        "chainId": "0x531"
      },
      "additionalContracts": [],
      "isFixedGasLimit": false
    },
    {
      "hash": "0xc238d6e89a03b5bb2e1fff9fe0233d1d7745f6bab87709f824828fee0b405a79",
      "transactionType": "CALL",
      "contractName": null,
      "contractAddress": "0x1a44076050125825900e736c501f859c50fe728c",
      "function": "setReceiveLibrary(address,uint32,address,uint256)",
      "arguments": [
        "0x57558Cb8d6005DE0BAe8a2789d5EfaaE52dba5a8",
        "30102",
        "0xe1844c5D63a9543023008D332Bd3d2e6f1FE1043",
        "0"
      ],
      "transaction": {
        "from": "0x45dce8e4f2dc005a5f28206a46cb034697eeda8e",
        "to": "0x1a44076050125825900e736c501f859c50fe728c",
        "gas": "0x16fde",
        "value": "0x0",
        "input": "0x6a14d71500000000000000000000000057558cb8d6005de0bae8a2789d5efaae52dba5a80000000000000000000000000000000000000000000000000000000000007596000000000000000000000000e1844c5d63a9543023008d332bd3d2e6f1fe10430000000000000000000000000000000000000000000000000000000000000000",
        "nonce": "0x84",
        "chainId": "0x531"
      },
      "additionalContracts": [],
      "isFixedGasLimit": false
    },
    {
      "hash": "0xb7e3fb2564ea83cf6daece07731f51fb79111fcf09152adf677bfc8f60fbd3da",
      "transactionType": "CALL",
      "contractName": null,
      "contractAddress": "0x1a44076050125825900e736c501f859c50fe728c",
      "function": "setSendLibrary(address,uint32,address)",
      "arguments": [
        "0x57558Cb8d6005DE0BAe8a2789d5EfaaE52dba5a8",
        "30158",
        "0xC39161c743D0307EB9BCc9FEF03eeb9Dc4802de7"
      ],
      "transaction": {
        "from": "0x45dce8e4f2dc005a5f28206a46cb034697eeda8e",
        "to": "0x1a44076050125825900e736c501f859c50fe728c",
        "gas": "0x149cd",
        "value": "0x0",
        "input": "0x9535ff3000000000000000000000000057558cb8d6005de0bae8a2789d5efaae52dba5a800000000000000000000000000000000000000000000000000000000000075ce000000000000000000000000c39161c743d0307eb9bcc9fef03eeb9dc4802de7",
        "nonce": "0x85",
        "chainId": "0x531"
      },
      "additionalContracts": [],
      "isFixedGasLimit": false
    },
    {
      "hash": "0x6a23bc08501477068ea64b100d85af5ec159aa3f47aa7d13e9118a580e00dcd9",
      "transactionType": "CALL",
      "contractName": null,
      "contractAddress": "0x1a44076050125825900e736c501f859c50fe728c",
      "function": "setReceiveLibrary(address,uint32,address,uint256)",
      "arguments": [
        "0x57558Cb8d6005DE0BAe8a2789d5EfaaE52dba5a8",
        "30158",
        "0xe1844c5D63a9543023008D332Bd3d2e6f1FE1043",
        "0"
      ],
      "transaction": {
        "from": "0x45dce8e4f2dc005a5f28206a46cb034697eeda8e",
        "to": "0x1a44076050125825900e736c501f859c50fe728c",
        "gas": "0x16fde",
        "value": "0x0",
        "input": "0x6a14d71500000000000000000000000057558cb8d6005de0bae8a2789d5efaae52dba5a800000000000000000000000000000000000000000000000000000000000075ce000000000000000000000000e1844c5d63a9543023008d332bd3d2e6f1fe10430000000000000000000000000000000000000000000000000000000000000000",
        "nonce": "0x86",
        "chainId": "0x531"
      },
      "additionalContracts": [],
      "isFixedGasLimit": false
    },
    {
      "hash": "0x3882044b401c798c9c3a5d9a4367e8c92b88b0d129e52d9b9d747d964f403ea3",
      "transactionType": "CALL",
      "contractName": null,
      "contractAddress": "0x1a44076050125825900e736c501f859c50fe728c",
      "function": "setSendLibrary(address,uint32,address)",
      "arguments": [
        "0x57558Cb8d6005DE0BAe8a2789d5EfaaE52dba5a8",
        "30362",
        "0xC39161c743D0307EB9BCc9FEF03eeb9Dc4802de7"
      ],
      "transaction": {
        "from": "0x45dce8e4f2dc005a5f28206a46cb034697eeda8e",
        "to": "0x1a44076050125825900e736c501f859c50fe728c",
        "gas": "0x149cd",
        "value": "0x0",
        "input": "0x9535ff3000000000000000000000000057558cb8d6005de0bae8a2789d5efaae52dba5a8000000000000000000000000000000000000000000000000000000000000769a000000000000000000000000c39161c743d0307eb9bcc9fef03eeb9dc4802de7",
        "nonce": "0x87",
        "chainId": "0x531"
      },
      "additionalContracts": [],
      "isFixedGasLimit": false
    },
    {
      "hash": "0x854a0be18025e7758a4e30bc68c3cb608324299c34a8789163306bc6936b7ab7",
      "transactionType": "CALL",
      "contractName": null,
      "contractAddress": "0x1a44076050125825900e736c501f859c50fe728c",
      "function": "setReceiveLibrary(address,uint32,address,uint256)",
      "arguments": [
        "0x57558Cb8d6005DE0BAe8a2789d5EfaaE52dba5a8",
        "30362",
        "0xe1844c5D63a9543023008D332Bd3d2e6f1FE1043",
        "0"
      ],
      "transaction": {
        "from": "0x45dce8e4f2dc005a5f28206a46cb034697eeda8e",
        "to": "0x1a44076050125825900e736c501f859c50fe728c",
        "gas": "0x16fde",
        "value": "0x0",
        "input": "0x6a14d71500000000000000000000000057558cb8d6005de0bae8a2789d5efaae52dba5a8000000000000000000000000000000000000000000000000000000000000769a000000000000000000000000e1844c5d63a9543023008d332bd3d2e6f1fe10430000000000000000000000000000000000000000000000000000000000000000",
        "nonce": "0x88",
        "chainId": "0x531"
      },
      "additionalContracts": [],
      "isFixedGasLimit": false
    },
    {
      "hash": "0x102b816f4cf782923f9dde1e8da583e4f6c7ad95f71278ce1b4b92d9df05a7a4",
      "transactionType": "CALL",
      "contractName": null,
      "contractAddress": "0x1a44076050125825900e736c501f859c50fe728c",
      "function": "setSendLibrary(address,uint32,address)",
      "arguments": [
        "0x57558Cb8d6005DE0BAe8a2789d5EfaaE52dba5a8",
        "30183",
        "0xC39161c743D0307EB9BCc9FEF03eeb9Dc4802de7"
      ],
      "transaction": {
        "from": "0x45dce8e4f2dc005a5f28206a46cb034697eeda8e",
        "to": "0x1a44076050125825900e736c501f859c50fe728c",
        "gas": "0x149cd",
        "value": "0x0",
        "input": "0x9535ff3000000000000000000000000057558cb8d6005de0bae8a2789d5efaae52dba5a800000000000000000000000000000000000000000000000000000000000075e7000000000000000000000000c39161c743d0307eb9bcc9fef03eeb9dc4802de7",
        "nonce": "0x89",
        "chainId": "0x531"
      },
      "additionalContracts": [],
      "isFixedGasLimit": false
    },
    {
      "hash": "0xc1e0bf9f02e9386e6e632ec44bf0677a28eddcc121ba3c24fbdab3206eab92b5",
      "transactionType": "CALL",
      "contractName": null,
      "contractAddress": "0x1a44076050125825900e736c501f859c50fe728c",
      "function": "setReceiveLibrary(address,uint32,address,uint256)",
      "arguments": [
        "0x57558Cb8d6005DE0BAe8a2789d5EfaaE52dba5a8",
        "30183",
        "0xe1844c5D63a9543023008D332Bd3d2e6f1FE1043",
        "0"
      ],
      "transaction": {
        "from": "0x45dce8e4f2dc005a5f28206a46cb034697eeda8e",
        "to": "0x1a44076050125825900e736c501f859c50fe728c",
        "gas": "0x16fde",
        "value": "0x0",
        "input": "0x6a14d71500000000000000000000000057558cb8d6005de0bae8a2789d5efaae52dba5a800000000000000000000000000000000000000000000000000000000000075e7000000000000000000000000e1844c5d63a9543023008d332bd3d2e6f1fe10430000000000000000000000000000000000000000000000000000000000000000",
        "nonce": "0x8a",
        "chainId": "0x531"
      },
      "additionalContracts": [],
      "isFixedGasLimit": false
    },
    {
      "hash": "0xb6df340b2c3b1d4cba0236f341d7689d3cd7154e9431bea7cfa7fb18297f0435",
      "transactionType": "CALL",
      "contractName": null,
      "contractAddress": "0x1a44076050125825900e736c501f859c50fe728c",
      "function": "setSendLibrary(address,uint32,address)",
      "arguments": [
        "0x57558Cb8d6005DE0BAe8a2789d5EfaaE52dba5a8",
        "30319",
        "0xC39161c743D0307EB9BCc9FEF03eeb9Dc4802de7"
      ],
      "transaction": {
        "from": "0x45dce8e4f2dc005a5f28206a46cb034697eeda8e",
        "to": "0x1a44076050125825900e736c501f859c50fe728c",
        "gas": "0x149cd",
        "value": "0x0",
        "input": "0x9535ff3000000000000000000000000057558cb8d6005de0bae8a2789d5efaae52dba5a8000000000000000000000000000000000000000000000000000000000000766f000000000000000000000000c39161c743d0307eb9bcc9fef03eeb9dc4802de7",
        "nonce": "0x8b",
        "chainId": "0x531"
      },
      "additionalContracts": [],
      "isFixedGasLimit": false
    },
    {
      "hash": "0x74e2128c776666c397aeb2a551cfe6a2f6c9eafee35320110c1c17eff9cd6851",
      "transactionType": "CALL",
      "contractName": null,
      "contractAddress": "0x1a44076050125825900e736c501f859c50fe728c",
      "function": "setReceiveLibrary(address,uint32,address,uint256)",
      "arguments": [
        "0x57558Cb8d6005DE0BAe8a2789d5EfaaE52dba5a8",
        "30319",
        "0xe1844c5D63a9543023008D332Bd3d2e6f1FE1043",
        "0"
      ],
      "transaction": {
        "from": "0x45dce8e4f2dc005a5f28206a46cb034697eeda8e",
        "to": "0x1a44076050125825900e736c501f859c50fe728c",
        "gas": "0x16fde",
        "value": "0x0",
        "input": "0x6a14d71500000000000000000000000057558cb8d6005de0bae8a2789d5efaae52dba5a8000000000000000000000000000000000000000000000000000000000000766f000000000000000000000000e1844c5d63a9543023008d332bd3d2e6f1fe10430000000000000000000000000000000000000000000000000000000000000000",
        "nonce": "0x8c",
        "chainId": "0x531"
      },
      "additionalContracts": [],
      "isFixedGasLimit": false
    },
    {
      "hash": "0xca5b45aba2c26ab301a58264ac1691353f357e1640967e09311b96415dfa046a",
      "transactionType": "CALL",
      "contractName": null,
      "contractAddress": "0x1a44076050125825900e736c501f859c50fe728c",
      "function": "setSendLibrary(address,uint32,address)",
      "arguments": [
        "0x57558Cb8d6005DE0BAe8a2789d5EfaaE52dba5a8",
        "30324",
        "0xC39161c743D0307EB9BCc9FEF03eeb9Dc4802de7"
      ],
      "transaction": {
        "from": "0x45dce8e4f2dc005a5f28206a46cb034697eeda8e",
        "to": "0x1a44076050125825900e736c501f859c50fe728c",
        "gas": "0x149cd",
        "value": "0x0",
        "input": "0x9535ff3000000000000000000000000057558cb8d6005de0bae8a2789d5efaae52dba5a80000000000000000000000000000000000000000000000000000000000007674000000000000000000000000c39161c743d0307eb9bcc9fef03eeb9dc4802de7",
        "nonce": "0x8d",
        "chainId": "0x531"
      },
      "additionalContracts": [],
      "isFixedGasLimit": false
    },
    {
      "hash": "0xc684ff1dee1dff38d959a247b4d29ac68e56a61c8f3c49c7c84031bc41e1c58f",
      "transactionType": "CALL",
      "contractName": null,
      "contractAddress": "0x1a44076050125825900e736c501f859c50fe728c",
      "function": "setReceiveLibrary(address,uint32,address,uint256)",
      "arguments": [
        "0x57558Cb8d6005DE0BAe8a2789d5EfaaE52dba5a8",
        "30324",
        "0xe1844c5D63a9543023008D332Bd3d2e6f1FE1043",
        "0"
      ],
      "transaction": {
        "from": "0x45dce8e4f2dc005a5f28206a46cb034697eeda8e",
        "to": "0x1a44076050125825900e736c501f859c50fe728c",
        "gas": "0x16fde",
        "value": "0x0",
        "input": "0x6a14d71500000000000000000000000057558cb8d6005de0bae8a2789d5efaae52dba5a80000000000000000000000000000000000000000000000000000000000007674000000000000000000000000e1844c5d63a9543023008d332bd3d2e6f1fe10430000000000000000000000000000000000000000000000000000000000000000",
        "nonce": "0x8e",
        "chainId": "0x531"
      },
      "additionalContracts": [],
      "isFixedGasLimit": false
    },
    {
      "hash": "0xec070171cd7412eac571e01abc807e93d6e35ce5254320d13970858e031711ed",
      "transactionType": "CALL",
      "contractName": null,
      "contractAddress": "0x1a44076050125825900e736c501f859c50fe728c",
      "function": "setSendLibrary(address,uint32,address)",
      "arguments": [
        "0x57558Cb8d6005DE0BAe8a2789d5EfaaE52dba5a8",
        "30165",
        "0xC39161c743D0307EB9BCc9FEF03eeb9Dc4802de7"
      ],
      "transaction": {
        "from": "0x45dce8e4f2dc005a5f28206a46cb034697eeda8e",
        "to": "0x1a44076050125825900e736c501f859c50fe728c",
        "gas": "0x149cd",
        "value": "0x0",
        "input": "0x9535ff3000000000000000000000000057558cb8d6005de0bae8a2789d5efaae52dba5a800000000000000000000000000000000000000000000000000000000000075d5000000000000000000000000c39161c743d0307eb9bcc9fef03eeb9dc4802de7",
        "nonce": "0x8f",
        "chainId": "0x531"
      },
      "additionalContracts": [],
      "isFixedGasLimit": false
    },
    {
      "hash": "0x4143aa3b09455a9b9066ed05f0f8d70403731891944414a72d9c3d89f617ee93",
      "transactionType": "CALL",
      "contractName": null,
      "contractAddress": "0x1a44076050125825900e736c501f859c50fe728c",
      "function": "setReceiveLibrary(address,uint32,address,uint256)",
      "arguments": [
        "0x57558Cb8d6005DE0BAe8a2789d5EfaaE52dba5a8",
        "30165",
        "0xe1844c5D63a9543023008D332Bd3d2e6f1FE1043",
        "0"
      ],
      "transaction": {
        "from": "0x45dce8e4f2dc005a5f28206a46cb034697eeda8e",
        "to": "0x1a44076050125825900e736c501f859c50fe728c",
        "gas": "0x16fde",
        "value": "0x0",
        "input": "0x6a14d71500000000000000000000000057558cb8d6005de0bae8a2789d5efaae52dba5a800000000000000000000000000000000000000000000000000000000000075d5000000000000000000000000e1844c5d63a9543023008d332bd3d2e6f1fe10430000000000000000000000000000000000000000000000000000000000000000",
        "nonce": "0x90",
        "chainId": "0x531"
      },
      "additionalContracts": [],
      "isFixedGasLimit": false
    }
  ],
  "receipts": [
    {
      "status": "0x1",
      "cumulativeGasUsed": "0x0",
      "logs": [
        {
          "address": "0x57558cb8d6005de0bae8a2789d5efaae52dba5a8",
          "topics": [
            "0xbe4864a8e820971c0247f5992e2da559595f7bf076a21cb5928d443d2a13b674"
          ],
          "data": "0x0000000000000000000000000000000000000000000000000000000000000020000000000000000000000000000000000000000000000000000000000000002600000000000000000000000000000000000000000000000000000000000004c00000000000000000000000000000000000000000000000000000000000000560000000000000000000000000000000000000000000000000000000000000060000000000000000000000000000000000000000000000000000000000000006a0000000000000000000000000000000000000000000000000000000000000074000000000000000000000000000000000000000000000000000000000000007e00000000000000000000000000000000000000000000000000000000000000880000000000000000000000000000000000000000000000000000000000000092000000000000000000000000000000000000000000000000000000000000009c00000000000000000000000000000000000000000000000000000000000000a600000000000000000000000000000000000000000000000000000000000000b000000000000000000000000000000000000000000000000000000000000000ba00000000000000000000000000000000000000000000000000000000000000c400000000000000000000000000000000000000000000000000000000000000ce00000000000000000000000000000000000000000000000000000000000000d800000000000000000000000000000000000000000000000000000000000000e200000000000000000000000000000000000000000000000000000000000000ec00000000000000000000000000000000000000000000000000000000000000f60000000000000000000000000000000000000000000000000000000000000100000000000000000000000000000000000000000000000000000000000000010a0000000000000000000000000000000000000000000000000000000000000114000000000000000000000000000000000000000000000000000000000000011e00000000000000000000000000000000000000000000000000000000000001280000000000000000000000000000000000000000000000000000000000000132000000000000000000000000000000000000000000000000000000000000013c00000000000000000000000000000000000000000000000000000000000001460000000000000000000000000000000000000000000000000000000000000150000000000000000000000000000000000000000000000000000000000000015a0000000000000000000000000000000000000000000000000000000000000164000000000000000000000000000000000000000000000000000000000000016e00000000000000000000000000000000000000000000000000000000000001780000000000000000000000000000000000000000000000000000000000000182000000000000000000000000000000000000000000000000000000000000018c000000000000000000000000000000000000000000000000000000000000019600000000000000000000000000000000000000000000000000000000000001a000000000000000000000000000000000000000000000000000000000000001aa00000000000000000000000000000000000000000000000000000000000001b400000000000000000000000000000000000000000000000000000000000001be0000000000000000000000000000000000000000000000000000000000000763400000000000000000000000000000000000000000000000000000000000000010000000000000000000000000000000000000000000000000000000000000060000000000000000000000000000000000000000000000000000000000000001600030100110100000000000000000000000000030d400000000000000000000000000000000000000000000000000000000000000000000000000000000076340000000000000000000000000000000000000000000000000000000000000002000000000000000000000000000000000000000000000000000000000000006000000000000000000000000000000000000000000000000000000000000000160003010011010000000000000000000000000003d09000000000000000000000000000000000000000000000000000000000000000000000000000000000762f00000000000000000000000000000000000000000000000000000000000000010000000000000000000000000000000000000000000000000000000000000060000000000000000000000000000000000000000000000000000000000000001600030100110100000000000000000000000000030d4000000000000000000000000000000000000000000000000000000000000000000000000000000000762f0000000000000000000000000000000000000000000000000000000000000002000000000000000000000000000000000000000000000000000000000000006000000000000000000000000000000000000000000000000000000000000000160003010011010000000000000000000000000003d09000000000000000000000000000000000000000000000000000000000000000000000000000000000764200000000000000000000000000000000000000000000000000000000000000010000000000000000000000000000000000000000000000000000000000000060000000000000000000000000000000000000000000000000000000000000001600030100110100000000000000000000000000030d400000000000000000000000000000000000000000000000000000000000000000000000000000000076420000000000000000000000000000000000000000000000000000000000000002000000000000000000000000000000000000000000000000000000000000006000000000000000000000000000000000000000000000000000000000000000160003010011010000000000000000000000000003d09000000000000000000000000000000000000000000000000000000000000000000000000000000000767c00000000000000000000000000000000000000000000000000000000000000010000000000000000000000000000000000000000000000000000000000000060000000000000000000000000000000000000000000000000000000000000001600030100110100000000000000000000000000030d4000000000000000000000000000000000000000000000000000000000000000000000000000000000767c0000000000000000000000000000000000000000000000000000000000000002000000000000000000000000000000000000000000000000000000000000006000000000000000000000000000000000000000000000000000000000000000160003010011010000000000000000000000000003d09000000000000000000000000000000000000000000000000000000000000000000000000000000000768300000000000000000000000000000000000000000000000000000000000000010000000000000000000000000000000000000000000000000000000000000060000000000000000000000000000000000000000000000000000000000000001600030100110100000000000000000000000000030d400000000000000000000000000000000000000000000000000000000000000000000000000000000076830000000000000000000000000000000000000000000000000000000000000002000000000000000000000000000000000000000000000000000000000000006000000000000000000000000000000000000000000000000000000000000000160003010011010000000000000000000000000003d09000000000000000000000000000000000000000000000000000000000000000000000000000000000759e00000000000000000000000000000000000000000000000000000000000000010000000000000000000000000000000000000000000000000000000000000060000000000000000000000000000000000000000000000000000000000000001600030100110100000000000000000000000000030d4000000000000000000000000000000000000000000000000000000000000000000000000000000000759e0000000000000000000000000000000000000000000000000000000000000002000000000000000000000000000000000000000000000000000000000000006000000000000000000000000000000000000000000000000000000000000000160003010011010000000000000000000000000003d09000000000000000000000000000000000000000000000000000000000000000000000000000000000759f00000000000000000000000000000000000000000000000000000000000000010000000000000000000000000000000000000000000000000000000000000060000000000000000000000000000000000000000000000000000000000000001600030100110100000000000000000000000000030d4000000000000000000000000000000000000000000000000000000000000000000000000000000000759f0000000000000000000000000000000000000000000000000000000000000002000000000000000000000000000000000000000000000000000000000000006000000000000000000000000000000000000000000000000000000000000000160003010011010000000000000000000000000003d09000000000000000000000000000000000000000000000000000000000000000000000000000000000759d00000000000000000000000000000000000000000000000000000000000000010000000000000000000000000000000000000000000000000000000000000060000000000000000000000000000000000000000000000000000000000000001600030100110100000000000000000000000000030d4000000000000000000000000000000000000000000000000000000000000000000000000000000000759d0000000000000000000000000000000000000000000000000000000000000002000000000000000000000000000000000000000000000000000000000000006000000000000000000000000000000000000000000000000000000000000000160003010011010000000000000000000000000003d09000000000000000000000000000000000000000000000000000000000000000000000000000000000759a00000000000000000000000000000000000000000000000000000000000000010000000000000000000000000000000000000000000000000000000000000060000000000000000000000000000000000000000000000000000000000000001600030100110100000000000000000000000000030d4000000000000000000000000000000000000000000000000000000000000000000000000000000000759a0000000000000000000000000000000000000000000000000000000000000002000000000000000000000000000000000000000000000000000000000000006000000000000000000000000000000000000000000000000000000000000000160003010011010000000000000000000000000003d09000000000000000000000000000000000000000000000000000000000000000000000000000000000759600000000000000000000000000000000000000000000000000000000000000010000000000000000000000000000000000000000000000000000000000000060000000000000000000000000000000000000000000000000000000000000001600030100110100000000000000000000000000030d400000000000000000000000000000000000000000000000000000000000000000000000000000000075960000000000000000000000000000000000000000000000000000000000000002000000000000000000000000000000000000000000000000000000000000006000000000000000000000000000000000000000000000000000000000000000160003010011010000000000000000000000000003d0900000000000000000000000000000000000000000000000000000000000000000000000000000000075ce00000000000000000000000000000000000000000000000000000000000000010000000000000000000000000000000000000000000000000000000000000060000000000000000000000000000000000000000000000000000000000000001600030100110100000000000000000000000000030d400000000000000000000000000000000000000000000000000000000000000000000000000000000075ce0000000000000000000000000000000000000000000000000000000000000002000000000000000000000000000000000000000000000000000000000000006000000000000000000000000000000000000000000000000000000000000000160003010011010000000000000000000000000003d09000000000000000000000000000000000000000000000000000000000000000000000000000000000759500000000000000000000000000000000000000000000000000000000000000010000000000000000000000000000000000000000000000000000000000000060000000000000000000000000000000000000000000000000000000000000001600030100110100000000000000000000000000030d400000000000000000000000000000000000000000000000000000000000000000000000000000000075950000000000000000000000000000000000000000000000000000000000000002000000000000000000000000000000000000000000000000000000000000006000000000000000000000000000000000000000000000000000000000000000160003010011010000000000000000000000000003d09000000000000000000000000000000000000000000000000000000000000000000000000000000000762300000000000000000000000000000000000000000000000000000000000000010000000000000000000000000000000000000000000000000000000000000060000000000000000000000000000000000000000000000000000000000000001600030100110100000000000000000000000000030d400000000000000000000000000000000000000000000000000000000000000000000000000000000076230000000000000000000000000000000000000000000000000000000000000002000000000000000000000000000000000000000000000000000000000000006000000000000000000000000000000000000000000000000000000000000000160003010011010000000000000000000000000003d0900000000000000000000000000000000000000000000000000000000000000000000000000000000075e800000000000000000000000000000000000000000000000000000000000000010000000000000000000000000000000000000000000000000000000000000060000000000000000000000000000000000000000000000000000000000000001600030100110100000000000000000000000000030d400000000000000000000000000000000000000000000000000000000000000000000000000000000075e80000000000000000000000000000000000000000000000000000000000000002000000000000000000000000000000000000000000000000000000000000006000000000000000000000000000000000000000000000000000000000000000160003010011010000000000000000000000000003d09000000000000000000000000000000000000000000000000000000000000000000000000000000000769a00000000000000000000000000000000000000000000000000000000000000010000000000000000000000000000000000000000000000000000000000000060000000000000000000000000000000000000000000000000000000000000001600030100110100000000000000000000000000030d4000000000000000000000000000000000000000000000000000000000000000000000000000000000769a0000000000000000000000000000000000000000000000000000000000000002000000000000000000000000000000000000000000000000000000000000006000000000000000000000000000000000000000000000000000000000000000160003010011010000000000000000000000000003d0900000000000000000000000000000000000000000000000000000000000000000000000000000000075e700000000000000000000000000000000000000000000000000000000000000010000000000000000000000000000000000000000000000000000000000000060000000000000000000000000000000000000000000000000000000000000001600030100110100000000000000000000000000030d400000000000000000000000000000000000000000000000000000000000000000000000000000000075e70000000000000000000000000000000000000000000000000000000000000002000000000000000000000000000000000000000000000000000000000000006000000000000000000000000000000000000000000000000000000000000000160003010011010000000000000000000000000003d09000000000000000000000000000000000000000000000000000000000000000000000000000000000766f00000000000000000000000000000000000000000000000000000000000000010000000000000000000000000000000000000000000000000000000000000060000000000000000000000000000000000000000000000000000000000000001600030100110100000000000000000000000000030d4000000000000000000000000000000000000000000000000000000000000000000000000000000000766f0000000000000000000000000000000000000000000000000000000000000002000000000000000000000000000000000000000000000000000000000000006000000000000000000000000000000000000000000000000000000000000000160003010011010000000000000000000000000003d09000000000000000000000000000000000000000000000000000000000000000000000000000000000767400000000000000000000000000000000000000000000000000000000000000010000000000000000000000000000000000000000000000000000000000000060000000000000000000000000000000000000000000000000000000000000001600030100110100000000000000000000000000030d400000000000000000000000000000000000000000000000000000000000000000000000000000000076740000000000000000000000000000000000000000000000000000000000000002000000000000000000000000000000000000000000000000000000000000006000000000000000000000000000000000000000000000000000000000000000160003010011010000000000000000000000000003d0900000000000000000000000000000000000000000000000000000000000000000000000000000000075d500000000000000000000000000000000000000000000000000000000000000010000000000000000000000000000000000000000000000000000000000000060000000000000000000000000000000000000000000000000000000000000001600030100110100000000000000000000000000030d400000000000000000000000000000000000000000000000000000000000000000000000000000000075d50000000000000000000000000000000000000000000000000000000000000002000000000000000000000000000000000000000000000000000000000000006000000000000000000000000000000000000000000000000000000000000000160003010011010000000000000000000000000003d09000000000000000000000",
          "blockHash": "0x15eff8d4674b1139a58c92dd306489382683025d0311798b000dc9e5256cf592",
          "blockNumber": "0x916adfd",
          "transactionHash": "0xa3dfa9b6ddf5321cf0cd8f4f3de939f2dc65ec882e70baa9d5350f80f7fb1c85",
          "transactionIndex": "0x11",
          "logIndex": "0x0",
          "removed": false
        }
      ],
      "logsBloom": "0x00000000000000000000000000040000000000000000000000000000000000000000000000000000000000000000000400000000000000000000400000000000000000000000000000000000000000000000000000000000000000000000000000000000000000000000000000000000000000000000000000000000000000000000000000000000000000000000000000000000000000000000000000080000000000002000000000000000000000000000000000000000000000000000000000000000000000000000000002000000000000000000000000000000000000000000000000000000000000000000000000000000000000000000000000000000",
      "type": "0x2",
      "transactionHash": "0xa3dfa9b6ddf5321cf0cd8f4f3de939f2dc65ec882e70baa9d5350f80f7fb1c85",
      "transactionIndex": "0x11",
      "blockHash": "0x15eff8d4674b1139a58c92dd306489382683025d0311798b000dc9e5256cf592",
      "blockNumber": "0x916adfd",
      "gasUsed": "0x4e649",
      "effectiveGasPrice": "0x7d2b7500",
      "from": "0x45dce8e4f2dc005a5f28206a46cb034697eeda8e",
      "to": "0x57558cb8d6005de0bae8a2789d5efaae52dba5a8",
      "contractAddress": null
    },
    {
      "status": "0x1",
      "cumulativeGasUsed": "0x0",
      "logs": [
        {
          "address": "0x57558cb8d6005de0bae8a2789d5efaae52dba5a8",
          "topics": [
            "0x238399d427b947898edb290f5ff0f9109849b1c3ba196a42e35f00c50a54b98b"
          ],
          "data": "0x000000000000000000000000000000000000000000000000000000000000763400000000000000000000000057558cb8d6005de0bae8a2789d5efaae52dba5a8",
          "blockHash": "0x0c5c82308941b7575d10f964f3e6814ddef5af619e7610ce7e0d31f9464f9022",
          "blockNumber": "0x916adfe",
          "transactionHash": "0x4141de1a352338319b7cafc6049856bc602e62359fc4018697994de97a90ee30",
          "transactionIndex": "0x2",
          "logIndex": "0x0",
          "removed": false
        }
      ],
      "logsBloom": "0x00000000000000000000000000040000000000000000000000000000000000000000000000000000000000000000000400000000000000000800000000000000000000000000000000000000000000000000000000000000000000000000000000000000000000000000000000000000000000000000000000000000000000000000000000000000000000000000000000000000000000000000000000000000000000002000000000000000000000000000000000000000000002000000000000000000000000000000000000000000000000000000000000040000000000000000000000000000000000000000000000000000000000000000000000000000",
      "type": "0x2",
      "transactionHash": "0x4141de1a352338319b7cafc6049856bc602e62359fc4018697994de97a90ee30",
      "transactionIndex": "0x2",
      "blockHash": "0x0c5c82308941b7575d10f964f3e6814ddef5af619e7610ce7e0d31f9464f9022",
      "blockNumber": "0x916adfe",
      "gasUsed": "0x891b",
      "effectiveGasPrice": "0x7d2b7500",
      "from": "0x45dce8e4f2dc005a5f28206a46cb034697eeda8e",
      "to": "0x57558cb8d6005de0bae8a2789d5efaae52dba5a8",
      "contractAddress": null
    },
    {
      "status": "0x1",
      "cumulativeGasUsed": "0x0",
      "logs": [
        {
          "address": "0x57558cb8d6005de0bae8a2789d5efaae52dba5a8",
          "topics": [
            "0x238399d427b947898edb290f5ff0f9109849b1c3ba196a42e35f00c50a54b98b"
          ],
          "data": "0x000000000000000000000000000000000000000000000000000000000000762f00000000000000000000000057558cb8d6005de0bae8a2789d5efaae52dba5a8",
          "blockHash": "0x0c5c82308941b7575d10f964f3e6814ddef5af619e7610ce7e0d31f9464f9022",
          "blockNumber": "0x916adfe",
          "transactionHash": "0x6a8ddfea5121916a49ac6efe148fee3ef78d057c196283784ce0d928fd75c1da",
          "transactionIndex": "0x3",
          "logIndex": "0x0",
          "removed": false
        }
      ],
      "logsBloom": "0x00000000000000000000000000040000000000000000000000000000000000000000000000000000000000000000000400000000000000000800000000000000000000000000000000000000000000000000000000000000000000000000000000000000000000000000000000000000000000000000000000000000000000000000000000000000000000000000000000000000000000000000000000000000000000002000000000000000000000000000000000000000000002000000000000000000000000000000000000000000000000000000000000040000000000000000000000000000000000000000000000000000000000000000000000000000",
      "type": "0x2",
      "transactionHash": "0x6a8ddfea5121916a49ac6efe148fee3ef78d057c196283784ce0d928fd75c1da",
      "transactionIndex": "0x3",
      "blockHash": "0x0c5c82308941b7575d10f964f3e6814ddef5af619e7610ce7e0d31f9464f9022",
      "blockNumber": "0x916adfe",
      "gasUsed": "0x891b",
      "effectiveGasPrice": "0x7d2b7500",
      "from": "0x45dce8e4f2dc005a5f28206a46cb034697eeda8e",
      "to": "0x57558cb8d6005de0bae8a2789d5efaae52dba5a8",
      "contractAddress": null
    },
    {
      "status": "0x1",
      "cumulativeGasUsed": "0x0",
      "logs": [
        {
          "address": "0x57558cb8d6005de0bae8a2789d5efaae52dba5a8",
          "topics": [
            "0x238399d427b947898edb290f5ff0f9109849b1c3ba196a42e35f00c50a54b98b"
          ],
          "data": "0x000000000000000000000000000000000000000000000000000000000000764200000000000000000000000057558cb8d6005de0bae8a2789d5efaae52dba5a8",
          "blockHash": "0x0c5c82308941b7575d10f964f3e6814ddef5af619e7610ce7e0d31f9464f9022",
          "blockNumber": "0x916adfe",
          "transactionHash": "0xcff256c878a15d786b822f36cf5d71c080001d659fe10bad6b4da546847eab31",
          "transactionIndex": "0x4",
          "logIndex": "0x0",
          "removed": false
        }
      ],
      "logsBloom": "0x00000000000000000000000000040000000000000000000000000000000000000000000000000000000000000000000400000000000000000800000000000000000000000000000000000000000000000000000000000000000000000000000000000000000000000000000000000000000000000000000000000000000000000000000000000000000000000000000000000000000000000000000000000000000000002000000000000000000000000000000000000000000002000000000000000000000000000000000000000000000000000000000000040000000000000000000000000000000000000000000000000000000000000000000000000000",
      "type": "0x2",
      "transactionHash": "0xcff256c878a15d786b822f36cf5d71c080001d659fe10bad6b4da546847eab31",
      "transactionIndex": "0x4",
      "blockHash": "0x0c5c82308941b7575d10f964f3e6814ddef5af619e7610ce7e0d31f9464f9022",
      "blockNumber": "0x916adfe",
      "gasUsed": "0x891b",
      "effectiveGasPrice": "0x7d2b7500",
      "from": "0x45dce8e4f2dc005a5f28206a46cb034697eeda8e",
      "to": "0x57558cb8d6005de0bae8a2789d5efaae52dba5a8",
      "contractAddress": null
    },
    {
      "status": "0x1",
      "cumulativeGasUsed": "0x0",
      "logs": [
        {
          "address": "0x57558cb8d6005de0bae8a2789d5efaae52dba5a8",
          "topics": [
            "0x238399d427b947898edb290f5ff0f9109849b1c3ba196a42e35f00c50a54b98b"
          ],
          "data": "0x000000000000000000000000000000000000000000000000000000000000767c00000000000000000000000057558cb8d6005de0bae8a2789d5efaae52dba5a8",
          "blockHash": "0x0c5c82308941b7575d10f964f3e6814ddef5af619e7610ce7e0d31f9464f9022",
          "blockNumber": "0x916adfe",
          "transactionHash": "0x129ac77427791fc4303e260ae41b53a55ff80ea3fc5769f7ce80eb28ad2b250b",
          "transactionIndex": "0x5",
          "logIndex": "0x0",
          "removed": false
        }
      ],
      "logsBloom": "0x00000000000000000000000000040000000000000000000000000000000000000000000000000000000000000000000400000000000000000800000000000000000000000000000000000000000000000000000000000000000000000000000000000000000000000000000000000000000000000000000000000000000000000000000000000000000000000000000000000000000000000000000000000000000000002000000000000000000000000000000000000000000002000000000000000000000000000000000000000000000000000000000000040000000000000000000000000000000000000000000000000000000000000000000000000000",
      "type": "0x2",
      "transactionHash": "0x129ac77427791fc4303e260ae41b53a55ff80ea3fc5769f7ce80eb28ad2b250b",
      "transactionIndex": "0x5",
      "blockHash": "0x0c5c82308941b7575d10f964f3e6814ddef5af619e7610ce7e0d31f9464f9022",
      "blockNumber": "0x916adfe",
      "gasUsed": "0x891b",
      "effectiveGasPrice": "0x7d2b7500",
      "from": "0x45dce8e4f2dc005a5f28206a46cb034697eeda8e",
      "to": "0x57558cb8d6005de0bae8a2789d5efaae52dba5a8",
      "contractAddress": null
    },
    {
      "status": "0x1",
      "cumulativeGasUsed": "0x0",
      "logs": [
        {
          "address": "0x57558cb8d6005de0bae8a2789d5efaae52dba5a8",
          "topics": [
            "0x238399d427b947898edb290f5ff0f9109849b1c3ba196a42e35f00c50a54b98b"
          ],
          "data": "0x000000000000000000000000000000000000000000000000000000000000768300000000000000000000000057558cb8d6005de0bae8a2789d5efaae52dba5a8",
          "blockHash": "0x0c5c82308941b7575d10f964f3e6814ddef5af619e7610ce7e0d31f9464f9022",
          "blockNumber": "0x916adfe",
          "transactionHash": "0x0a28557d9dd6edf699e7c4055f3788cc3d9de8bfe24092c501a9f220afb71c6c",
          "transactionIndex": "0x6",
          "logIndex": "0x0",
          "removed": false
        }
      ],
      "logsBloom": "0x00000000000000000000000000040000000000000000000000000000000000000000000000000000000000000000000400000000000000000800000000000000000000000000000000000000000000000000000000000000000000000000000000000000000000000000000000000000000000000000000000000000000000000000000000000000000000000000000000000000000000000000000000000000000000002000000000000000000000000000000000000000000002000000000000000000000000000000000000000000000000000000000000040000000000000000000000000000000000000000000000000000000000000000000000000000",
      "type": "0x2",
      "transactionHash": "0x0a28557d9dd6edf699e7c4055f3788cc3d9de8bfe24092c501a9f220afb71c6c",
      "transactionIndex": "0x6",
      "blockHash": "0x0c5c82308941b7575d10f964f3e6814ddef5af619e7610ce7e0d31f9464f9022",
      "blockNumber": "0x916adfe",
      "gasUsed": "0x891b",
      "effectiveGasPrice": "0x7d2b7500",
      "from": "0x45dce8e4f2dc005a5f28206a46cb034697eeda8e",
      "to": "0x57558cb8d6005de0bae8a2789d5efaae52dba5a8",
      "contractAddress": null
    },
    {
      "status": "0x1",
      "cumulativeGasUsed": "0x0",
      "logs": [
        {
          "address": "0x57558cb8d6005de0bae8a2789d5efaae52dba5a8",
          "topics": [
            "0x238399d427b947898edb290f5ff0f9109849b1c3ba196a42e35f00c50a54b98b"
          ],
          "data": "0x000000000000000000000000000000000000000000000000000000000000759e00000000000000000000000057558cb8d6005de0bae8a2789d5efaae52dba5a8",
          "blockHash": "0x0c5c82308941b7575d10f964f3e6814ddef5af619e7610ce7e0d31f9464f9022",
          "blockNumber": "0x916adfe",
          "transactionHash": "0x21ca1e4430f55c5703952622835f3db5e35f8b5246eceb198a396329123166dc",
          "transactionIndex": "0x7",
          "logIndex": "0x0",
          "removed": false
        }
      ],
      "logsBloom": "0x00000000000000000000000000040000000000000000000000000000000000000000000000000000000000000000000400000000000000000800000000000000000000000000000000000000000000000000000000000000000000000000000000000000000000000000000000000000000000000000000000000000000000000000000000000000000000000000000000000000000000000000000000000000000000002000000000000000000000000000000000000000000002000000000000000000000000000000000000000000000000000000000000040000000000000000000000000000000000000000000000000000000000000000000000000000",
      "type": "0x2",
      "transactionHash": "0x21ca1e4430f55c5703952622835f3db5e35f8b5246eceb198a396329123166dc",
      "transactionIndex": "0x7",
      "blockHash": "0x0c5c82308941b7575d10f964f3e6814ddef5af619e7610ce7e0d31f9464f9022",
      "blockNumber": "0x916adfe",
      "gasUsed": "0x891b",
      "effectiveGasPrice": "0x7d2b7500",
      "from": "0x45dce8e4f2dc005a5f28206a46cb034697eeda8e",
      "to": "0x57558cb8d6005de0bae8a2789d5efaae52dba5a8",
      "contractAddress": null
    },
    {
      "status": "0x1",
      "cumulativeGasUsed": "0x0",
      "logs": [
        {
          "address": "0x57558cb8d6005de0bae8a2789d5efaae52dba5a8",
          "topics": [
            "0x238399d427b947898edb290f5ff0f9109849b1c3ba196a42e35f00c50a54b98b"
          ],
          "data": "0x000000000000000000000000000000000000000000000000000000000000759f00000000000000000000000057558cb8d6005de0bae8a2789d5efaae52dba5a8",
          "blockHash": "0x0c5c82308941b7575d10f964f3e6814ddef5af619e7610ce7e0d31f9464f9022",
          "blockNumber": "0x916adfe",
          "transactionHash": "0xb1c9ed0891202842689b5a7afc43e13947f3f4a9454b22b207d6fcccedb4e5ac",
          "transactionIndex": "0x8",
          "logIndex": "0x0",
          "removed": false
        }
      ],
      "logsBloom": "0x00000000000000000000000000040000000000000000000000000000000000000000000000000000000000000000000400000000000000000800000000000000000000000000000000000000000000000000000000000000000000000000000000000000000000000000000000000000000000000000000000000000000000000000000000000000000000000000000000000000000000000000000000000000000000002000000000000000000000000000000000000000000002000000000000000000000000000000000000000000000000000000000000040000000000000000000000000000000000000000000000000000000000000000000000000000",
      "type": "0x2",
      "transactionHash": "0xb1c9ed0891202842689b5a7afc43e13947f3f4a9454b22b207d6fcccedb4e5ac",
      "transactionIndex": "0x8",
      "blockHash": "0x0c5c82308941b7575d10f964f3e6814ddef5af619e7610ce7e0d31f9464f9022",
      "blockNumber": "0x916adfe",
      "gasUsed": "0x891b",
      "effectiveGasPrice": "0x7d2b7500",
      "from": "0x45dce8e4f2dc005a5f28206a46cb034697eeda8e",
      "to": "0x57558cb8d6005de0bae8a2789d5efaae52dba5a8",
      "contractAddress": null
    },
    {
      "status": "0x1",
      "cumulativeGasUsed": "0x0",
      "logs": [
        {
          "address": "0x57558cb8d6005de0bae8a2789d5efaae52dba5a8",
          "topics": [
            "0x238399d427b947898edb290f5ff0f9109849b1c3ba196a42e35f00c50a54b98b"
          ],
          "data": "0x000000000000000000000000000000000000000000000000000000000000759d00000000000000000000000057558cb8d6005de0bae8a2789d5efaae52dba5a8",
          "blockHash": "0x0c5c82308941b7575d10f964f3e6814ddef5af619e7610ce7e0d31f9464f9022",
          "blockNumber": "0x916adfe",
          "transactionHash": "0x43eaf49ba5083185ec898339f2f956f162661bf3091ad5a5527c8e674587ff21",
          "transactionIndex": "0x9",
          "logIndex": "0x0",
          "removed": false
        }
      ],
      "logsBloom": "0x00000000000000000000000000040000000000000000000000000000000000000000000000000000000000000000000400000000000000000800000000000000000000000000000000000000000000000000000000000000000000000000000000000000000000000000000000000000000000000000000000000000000000000000000000000000000000000000000000000000000000000000000000000000000000002000000000000000000000000000000000000000000002000000000000000000000000000000000000000000000000000000000000040000000000000000000000000000000000000000000000000000000000000000000000000000",
      "type": "0x2",
      "transactionHash": "0x43eaf49ba5083185ec898339f2f956f162661bf3091ad5a5527c8e674587ff21",
      "transactionIndex": "0x9",
      "blockHash": "0x0c5c82308941b7575d10f964f3e6814ddef5af619e7610ce7e0d31f9464f9022",
      "blockNumber": "0x916adfe",
      "gasUsed": "0x891b",
      "effectiveGasPrice": "0x7d2b7500",
      "from": "0x45dce8e4f2dc005a5f28206a46cb034697eeda8e",
      "to": "0x57558cb8d6005de0bae8a2789d5efaae52dba5a8",
      "contractAddress": null
    },
    {
      "status": "0x1",
      "cumulativeGasUsed": "0x0",
      "logs": [
        {
          "address": "0x57558cb8d6005de0bae8a2789d5efaae52dba5a8",
          "topics": [
            "0x238399d427b947898edb290f5ff0f9109849b1c3ba196a42e35f00c50a54b98b"
          ],
          "data": "0x000000000000000000000000000000000000000000000000000000000000759a00000000000000000000000057558cb8d6005de0bae8a2789d5efaae52dba5a8",
          "blockHash": "0x0c5c82308941b7575d10f964f3e6814ddef5af619e7610ce7e0d31f9464f9022",
          "blockNumber": "0x916adfe",
          "transactionHash": "0x0e5e41ce2390652b5dddf87ab26492cacda29634db69d32d1258daf2edb8b620",
          "transactionIndex": "0xa",
          "logIndex": "0x0",
          "removed": false
        }
      ],
      "logsBloom": "0x00000000000000000000000000040000000000000000000000000000000000000000000000000000000000000000000400000000000000000800000000000000000000000000000000000000000000000000000000000000000000000000000000000000000000000000000000000000000000000000000000000000000000000000000000000000000000000000000000000000000000000000000000000000000000002000000000000000000000000000000000000000000002000000000000000000000000000000000000000000000000000000000000040000000000000000000000000000000000000000000000000000000000000000000000000000",
      "type": "0x2",
      "transactionHash": "0x0e5e41ce2390652b5dddf87ab26492cacda29634db69d32d1258daf2edb8b620",
      "transactionIndex": "0xa",
      "blockHash": "0x0c5c82308941b7575d10f964f3e6814ddef5af619e7610ce7e0d31f9464f9022",
      "blockNumber": "0x916adfe",
      "gasUsed": "0x891b",
      "effectiveGasPrice": "0x7d2b7500",
      "from": "0x45dce8e4f2dc005a5f28206a46cb034697eeda8e",
      "to": "0x57558cb8d6005de0bae8a2789d5efaae52dba5a8",
      "contractAddress": null
    },
    {
      "status": "0x1",
      "cumulativeGasUsed": "0x0",
      "logs": [
        {
          "address": "0x57558cb8d6005de0bae8a2789d5efaae52dba5a8",
          "topics": [
            "0x238399d427b947898edb290f5ff0f9109849b1c3ba196a42e35f00c50a54b98b"
          ],
          "data": "0x000000000000000000000000000000000000000000000000000000000000759600000000000000000000000057558cb8d6005de0bae8a2789d5efaae52dba5a8",
          "blockHash": "0x0c5c82308941b7575d10f964f3e6814ddef5af619e7610ce7e0d31f9464f9022",
          "blockNumber": "0x916adfe",
          "transactionHash": "0xc36fd882bdb82456ff01366f2f2d3ea75935d1e8bb8fb8d6b1f5787be8d840a6",
          "transactionIndex": "0xb",
          "logIndex": "0x0",
          "removed": false
        }
      ],
      "logsBloom": "0x00000000000000000000000000040000000000000000000000000000000000000000000000000000000000000000000400000000000000000800000000000000000000000000000000000000000000000000000000000000000000000000000000000000000000000000000000000000000000000000000000000000000000000000000000000000000000000000000000000000000000000000000000000000000000002000000000000000000000000000000000000000000002000000000000000000000000000000000000000000000000000000000000040000000000000000000000000000000000000000000000000000000000000000000000000000",
      "type": "0x2",
      "transactionHash": "0xc36fd882bdb82456ff01366f2f2d3ea75935d1e8bb8fb8d6b1f5787be8d840a6",
      "transactionIndex": "0xb",
      "blockHash": "0x0c5c82308941b7575d10f964f3e6814ddef5af619e7610ce7e0d31f9464f9022",
      "blockNumber": "0x916adfe",
      "gasUsed": "0x891b",
      "effectiveGasPrice": "0x7d2b7500",
      "from": "0x45dce8e4f2dc005a5f28206a46cb034697eeda8e",
      "to": "0x57558cb8d6005de0bae8a2789d5efaae52dba5a8",
      "contractAddress": null
    },
    {
      "status": "0x1",
      "cumulativeGasUsed": "0x0",
      "logs": [
        {
          "address": "0x57558cb8d6005de0bae8a2789d5efaae52dba5a8",
          "topics": [
            "0x238399d427b947898edb290f5ff0f9109849b1c3ba196a42e35f00c50a54b98b"
          ],
          "data": "0x00000000000000000000000000000000000000000000000000000000000075ce00000000000000000000000057558cb8d6005de0bae8a2789d5efaae52dba5a8",
          "blockHash": "0x0c5c82308941b7575d10f964f3e6814ddef5af619e7610ce7e0d31f9464f9022",
          "blockNumber": "0x916adfe",
          "transactionHash": "0x858b2aa26185d5107fdc1141ba1624556e2513290aabf8a6ac64b8e573c6ff05",
          "transactionIndex": "0xc",
          "logIndex": "0x0",
          "removed": false
        }
      ],
      "logsBloom": "0x00000000000000000000000000040000000000000000000000000000000000000000000000000000000000000000000400000000000000000800000000000000000000000000000000000000000000000000000000000000000000000000000000000000000000000000000000000000000000000000000000000000000000000000000000000000000000000000000000000000000000000000000000000000000000002000000000000000000000000000000000000000000002000000000000000000000000000000000000000000000000000000000000040000000000000000000000000000000000000000000000000000000000000000000000000000",
      "type": "0x2",
      "transactionHash": "0x858b2aa26185d5107fdc1141ba1624556e2513290aabf8a6ac64b8e573c6ff05",
      "transactionIndex": "0xc",
      "blockHash": "0x0c5c82308941b7575d10f964f3e6814ddef5af619e7610ce7e0d31f9464f9022",
      "blockNumber": "0x916adfe",
      "gasUsed": "0x891b",
      "effectiveGasPrice": "0x7d2b7500",
      "from": "0x45dce8e4f2dc005a5f28206a46cb034697eeda8e",
      "to": "0x57558cb8d6005de0bae8a2789d5efaae52dba5a8",
      "contractAddress": null
    },
    {
      "status": "0x1",
      "cumulativeGasUsed": "0x0",
      "logs": [
        {
          "address": "0x57558cb8d6005de0bae8a2789d5efaae52dba5a8",
          "topics": [
            "0x238399d427b947898edb290f5ff0f9109849b1c3ba196a42e35f00c50a54b98b"
          ],
          "data": "0x000000000000000000000000000000000000000000000000000000000000759500000000000000000000000057558cb8d6005de0bae8a2789d5efaae52dba5a8",
          "blockHash": "0x0c5c82308941b7575d10f964f3e6814ddef5af619e7610ce7e0d31f9464f9022",
          "blockNumber": "0x916adfe",
          "transactionHash": "0x62721e3a3e4af276266ce463242148aa2169ed518c700366dbae56677416d017",
          "transactionIndex": "0xd",
          "logIndex": "0x0",
          "removed": false
        }
      ],
      "logsBloom": "0x00000000000000000000000000040000000000000000000000000000000000000000000000000000000000000000000400000000000000000800000000000000000000000000000000000000000000000000000000000000000000000000000000000000000000000000000000000000000000000000000000000000000000000000000000000000000000000000000000000000000000000000000000000000000000002000000000000000000000000000000000000000000002000000000000000000000000000000000000000000000000000000000000040000000000000000000000000000000000000000000000000000000000000000000000000000",
      "type": "0x2",
      "transactionHash": "0x62721e3a3e4af276266ce463242148aa2169ed518c700366dbae56677416d017",
      "transactionIndex": "0xd",
      "blockHash": "0x0c5c82308941b7575d10f964f3e6814ddef5af619e7610ce7e0d31f9464f9022",
      "blockNumber": "0x916adfe",
      "gasUsed": "0x891b",
      "effectiveGasPrice": "0x7d2b7500",
      "from": "0x45dce8e4f2dc005a5f28206a46cb034697eeda8e",
      "to": "0x57558cb8d6005de0bae8a2789d5efaae52dba5a8",
      "contractAddress": null
    },
    {
      "status": "0x1",
      "cumulativeGasUsed": "0x0",
      "logs": [
        {
          "address": "0x57558cb8d6005de0bae8a2789d5efaae52dba5a8",
          "topics": [
            "0x238399d427b947898edb290f5ff0f9109849b1c3ba196a42e35f00c50a54b98b"
          ],
          "data": "0x000000000000000000000000000000000000000000000000000000000000762300000000000000000000000057558cb8d6005de0bae8a2789d5efaae52dba5a8",
          "blockHash": "0x0c5c82308941b7575d10f964f3e6814ddef5af619e7610ce7e0d31f9464f9022",
          "blockNumber": "0x916adfe",
          "transactionHash": "0xd6e93c1ddda5d93573be5f475326bab843029343bbecfa8f24184fc1ad731093",
          "transactionIndex": "0xe",
          "logIndex": "0x0",
          "removed": false
        }
      ],
      "logsBloom": "0x00000000000000000000000000040000000000000000000000000000000000000000000000000000000000000000000400000000000000000800000000000000000000000000000000000000000000000000000000000000000000000000000000000000000000000000000000000000000000000000000000000000000000000000000000000000000000000000000000000000000000000000000000000000000000002000000000000000000000000000000000000000000002000000000000000000000000000000000000000000000000000000000000040000000000000000000000000000000000000000000000000000000000000000000000000000",
      "type": "0x2",
      "transactionHash": "0xd6e93c1ddda5d93573be5f475326bab843029343bbecfa8f24184fc1ad731093",
      "transactionIndex": "0xe",
      "blockHash": "0x0c5c82308941b7575d10f964f3e6814ddef5af619e7610ce7e0d31f9464f9022",
      "blockNumber": "0x916adfe",
      "gasUsed": "0x891b",
      "effectiveGasPrice": "0x7d2b7500",
      "from": "0x45dce8e4f2dc005a5f28206a46cb034697eeda8e",
      "to": "0x57558cb8d6005de0bae8a2789d5efaae52dba5a8",
      "contractAddress": null
    },
    {
      "status": "0x1",
      "cumulativeGasUsed": "0x0",
      "logs": [
        {
          "address": "0x57558cb8d6005de0bae8a2789d5efaae52dba5a8",
          "topics": [
            "0x238399d427b947898edb290f5ff0f9109849b1c3ba196a42e35f00c50a54b98b"
          ],
          "data": "0x00000000000000000000000000000000000000000000000000000000000075e800000000000000000000000057558cb8d6005de0bae8a2789d5efaae52dba5a8",
          "blockHash": "0x0c5c82308941b7575d10f964f3e6814ddef5af619e7610ce7e0d31f9464f9022",
          "blockNumber": "0x916adfe",
          "transactionHash": "0xfd348cc8907e36856cfb59e291e247168b9fa5fc5e76836177926f215e1d402c",
          "transactionIndex": "0xf",
          "logIndex": "0x0",
          "removed": false
        }
      ],
      "logsBloom": "0x00000000000000000000000000040000000000000000000000000000000000000000000000000000000000000000000400000000000000000800000000000000000000000000000000000000000000000000000000000000000000000000000000000000000000000000000000000000000000000000000000000000000000000000000000000000000000000000000000000000000000000000000000000000000000002000000000000000000000000000000000000000000002000000000000000000000000000000000000000000000000000000000000040000000000000000000000000000000000000000000000000000000000000000000000000000",
      "type": "0x2",
      "transactionHash": "0xfd348cc8907e36856cfb59e291e247168b9fa5fc5e76836177926f215e1d402c",
      "transactionIndex": "0xf",
      "blockHash": "0x0c5c82308941b7575d10f964f3e6814ddef5af619e7610ce7e0d31f9464f9022",
      "blockNumber": "0x916adfe",
      "gasUsed": "0x891b",
      "effectiveGasPrice": "0x7d2b7500",
      "from": "0x45dce8e4f2dc005a5f28206a46cb034697eeda8e",
      "to": "0x57558cb8d6005de0bae8a2789d5efaae52dba5a8",
      "contractAddress": null
    },
    {
      "status": "0x1",
      "cumulativeGasUsed": "0x0",
      "logs": [
        {
          "address": "0x57558cb8d6005de0bae8a2789d5efaae52dba5a8",
          "topics": [
            "0x238399d427b947898edb290f5ff0f9109849b1c3ba196a42e35f00c50a54b98b"
          ],
          "data": "0x000000000000000000000000000000000000000000000000000000000000769a00000000000000000000000057558cb8d6005de0bae8a2789d5efaae52dba5a8",
          "blockHash": "0x0c5c82308941b7575d10f964f3e6814ddef5af619e7610ce7e0d31f9464f9022",
          "blockNumber": "0x916adfe",
          "transactionHash": "0x5087229b5d346a040a097a8e4b6f4f83b747dde78256cb4ba97e25d337670e5a",
          "transactionIndex": "0x10",
          "logIndex": "0x0",
          "removed": false
        }
      ],
      "logsBloom": "0x00000000000000000000000000040000000000000000000000000000000000000000000000000000000000000000000400000000000000000800000000000000000000000000000000000000000000000000000000000000000000000000000000000000000000000000000000000000000000000000000000000000000000000000000000000000000000000000000000000000000000000000000000000000000000002000000000000000000000000000000000000000000002000000000000000000000000000000000000000000000000000000000000040000000000000000000000000000000000000000000000000000000000000000000000000000",
      "type": "0x2",
      "transactionHash": "0x5087229b5d346a040a097a8e4b6f4f83b747dde78256cb4ba97e25d337670e5a",
      "transactionIndex": "0x10",
      "blockHash": "0x0c5c82308941b7575d10f964f3e6814ddef5af619e7610ce7e0d31f9464f9022",
      "blockNumber": "0x916adfe",
      "gasUsed": "0x891b",
      "effectiveGasPrice": "0x7d2b7500",
      "from": "0x45dce8e4f2dc005a5f28206a46cb034697eeda8e",
      "to": "0x57558cb8d6005de0bae8a2789d5efaae52dba5a8",
      "contractAddress": null
    },
    {
      "status": "0x1",
      "cumulativeGasUsed": "0x0",
      "logs": [
        {
          "address": "0x57558cb8d6005de0bae8a2789d5efaae52dba5a8",
          "topics": [
            "0x238399d427b947898edb290f5ff0f9109849b1c3ba196a42e35f00c50a54b98b"
          ],
          "data": "0x00000000000000000000000000000000000000000000000000000000000075e70000000000000000000000006185334f1542a9966cbad694577ffbede3dd1f1f",
          "blockHash": "0x0c5c82308941b7575d10f964f3e6814ddef5af619e7610ce7e0d31f9464f9022",
          "blockNumber": "0x916adfe",
          "transactionHash": "0x7f358ae36188b935d8dd072e4b8cb1bb7e8bbca0622b5693ae537b6da33fba60",
          "transactionIndex": "0x11",
          "logIndex": "0x0",
          "removed": false
        }
      ],
      "logsBloom": "0x00000000000000000000000000040000000000000000000000000000000000000000000000000000000000000000000400000000000000000800000000000000000000000000000000000000000000000000000000000000000000000000000000000000000000000000000000000000000000000000000000000000000000000000000000000000000000000000000000000000000000000000000000000000000000002000000000000000000000000000000000000000000002000000000000000000000000000000000000000000000000000000000000040000000000000000000000000000000000000000000000000000000000000000000000000000",
      "type": "0x2",
      "transactionHash": "0x7f358ae36188b935d8dd072e4b8cb1bb7e8bbca0622b5693ae537b6da33fba60",
      "transactionIndex": "0x11",
      "blockHash": "0x0c5c82308941b7575d10f964f3e6814ddef5af619e7610ce7e0d31f9464f9022",
      "blockNumber": "0x916adfe",
      "gasUsed": "0x8927",
      "effectiveGasPrice": "0x7d2b7500",
      "from": "0x45dce8e4f2dc005a5f28206a46cb034697eeda8e",
      "to": "0x57558cb8d6005de0bae8a2789d5efaae52dba5a8",
      "contractAddress": null
    },
    {
      "status": "0x1",
      "cumulativeGasUsed": "0x0",
      "logs": [
        {
          "address": "0x57558cb8d6005de0bae8a2789d5efaae52dba5a8",
          "topics": [
            "0x238399d427b947898edb290f5ff0f9109849b1c3ba196a42e35f00c50a54b98b"
          ],
          "data": "0x000000000000000000000000000000000000000000000000000000000000766f00000000000000000000000057558cb8d6005de0bae8a2789d5efaae52dba5a8",
          "blockHash": "0xac38066c793427464ffcac44accfef89a4f3e719d1ee7edd536568d8076e183b",
          "blockNumber": "0x916adff",
          "transactionHash": "0x79aa2ae5b2e7890a998b7874684c43e9703b264a3bdea88ac51da349b74580da",
          "transactionIndex": "0xc",
          "logIndex": "0x0",
          "removed": false
        }
      ],
      "logsBloom": "0x00000000000000000000000000040000000000000000000000000000000000000000000000000000000000000000000400000000000000000800000000000000000000000000000000000000000000000000000000000000000000000000000000000000000000000000000000000000000000000000000000000000000000000000000000000000000000000000000000000000000000000000000000000000000000002000000000000000000000000000000000000000000002000000000000000000000000000000000000000000000000000000000000040000000000000000000000000000000000000000000000000000000000000000000000000000",
      "type": "0x2",
      "transactionHash": "0x79aa2ae5b2e7890a998b7874684c43e9703b264a3bdea88ac51da349b74580da",
      "transactionIndex": "0xc",
      "blockHash": "0xac38066c793427464ffcac44accfef89a4f3e719d1ee7edd536568d8076e183b",
      "blockNumber": "0x916adff",
      "gasUsed": "0x891b",
      "effectiveGasPrice": "0x7d2b7500",
      "from": "0x45dce8e4f2dc005a5f28206a46cb034697eeda8e",
      "to": "0x57558cb8d6005de0bae8a2789d5efaae52dba5a8",
      "contractAddress": null
    },
    {
      "status": "0x1",
      "cumulativeGasUsed": "0x0",
      "logs": [
        {
          "address": "0x57558cb8d6005de0bae8a2789d5efaae52dba5a8",
          "topics": [
            "0x238399d427b947898edb290f5ff0f9109849b1c3ba196a42e35f00c50a54b98b"
          ],
          "data": "0x0000000000000000000000000000000000000000000000000000000000007674000000000000000000000000bd39033994f5324fe8d50bb524396a78ff9dfe22",
          "blockHash": "0xac38066c793427464ffcac44accfef89a4f3e719d1ee7edd536568d8076e183b",
          "blockNumber": "0x916adff",
          "transactionHash": "0x7d492fb4633d0a041db290271af4771dc04ef67d4b6b2d4b6ebd5e4b40e8c16d",
          "transactionIndex": "0xd",
          "logIndex": "0x0",
          "removed": false
        }
      ],
      "logsBloom": "0x00000000000000000000000000040000000000000000000000000000000000000000000000000000000000000000000400000000000000000800000000000000000000000000000000000000000000000000000000000000000000000000000000000000000000000000000000000000000000000000000000000000000000000000000000000000000000000000000000000000000000000000000000000000000000002000000000000000000000000000000000000000000002000000000000000000000000000000000000000000000000000000000000040000000000000000000000000000000000000000000000000000000000000000000000000000",
      "type": "0x2",
      "transactionHash": "0x7d492fb4633d0a041db290271af4771dc04ef67d4b6b2d4b6ebd5e4b40e8c16d",
      "transactionIndex": "0xd",
      "blockHash": "0xac38066c793427464ffcac44accfef89a4f3e719d1ee7edd536568d8076e183b",
      "blockNumber": "0x916adff",
      "gasUsed": "0x8927",
      "effectiveGasPrice": "0x7d2b7500",
      "from": "0x45dce8e4f2dc005a5f28206a46cb034697eeda8e",
      "to": "0x57558cb8d6005de0bae8a2789d5efaae52dba5a8",
      "contractAddress": null
    },
    {
      "status": "0x1",
      "cumulativeGasUsed": "0x0",
      "logs": [
        {
          "address": "0x57558cb8d6005de0bae8a2789d5efaae52dba5a8",
          "topics": [
            "0x238399d427b947898edb290f5ff0f9109849b1c3ba196a42e35f00c50a54b98b"
          ],
          "data": "0x00000000000000000000000000000000000000000000000000000000000075d50000000000000000000000003fc877008e396fdd7f9ee3deb2e8a54d54da705a",
          "blockHash": "0xac38066c793427464ffcac44accfef89a4f3e719d1ee7edd536568d8076e183b",
          "blockNumber": "0x916adff",
          "transactionHash": "0xe94dd8c721856ef7e94fed6e280352a17e0925ececd002ac52ceaa75f4b65e03",
          "transactionIndex": "0xe",
          "logIndex": "0x0",
          "removed": false
        }
      ],
      "logsBloom": "0x00000000000000000000000000040000000000000000000000000000000000000000000000000000000000000000000400000000000000000800000000000000000000000000000000000000000000000000000000000000000000000000000000000000000000000000000000000000000000000000000000000000000000000000000000000000000000000000000000000000000000000000000000000000000000002000000000000000000000000000000000000000000002000000000000000000000000000000000000000000000000000000000000040000000000000000000000000000000000000000000000000000000000000000000000000000",
      "type": "0x2",
      "transactionHash": "0xe94dd8c721856ef7e94fed6e280352a17e0925ececd002ac52ceaa75f4b65e03",
      "transactionIndex": "0xe",
      "blockHash": "0xac38066c793427464ffcac44accfef89a4f3e719d1ee7edd536568d8076e183b",
      "blockNumber": "0x916adff",
      "gasUsed": "0x891b",
      "effectiveGasPrice": "0x7d2b7500",
      "from": "0x45dce8e4f2dc005a5f28206a46cb034697eeda8e",
      "to": "0x57558cb8d6005de0bae8a2789d5efaae52dba5a8",
      "contractAddress": null
    },
    {
      "status": "0x1",
      "cumulativeGasUsed": "0x0",
      "logs": [
        {
          "address": "0x1a44076050125825900e736c501f859c50fe728c",
          "topics": [
            "0x4cff966ebee29a156dcb34cf72c1d06231fb1777f6bdf6e8089819232f002b1c"
          ],
          "data": "0x00000000000000000000000057558cb8d6005de0bae8a2789d5efaae52dba5a80000000000000000000000000000000000000000000000000000000000007596000000000000000000000000c39161c743d0307eb9bcc9fef03eeb9dc4802de7",
          "blockHash": "0xac38066c793427464ffcac44accfef89a4f3e719d1ee7edd536568d8076e183b",
          "blockNumber": "0x916adff",
          "transactionHash": "0xc6466a2e21d82c540158f4105dd9db80acf3b2d14ff24852e8b92c0f667abe2c",
          "transactionIndex": "0xf",
          "logIndex": "0x0",
          "removed": false
        }
      ],
      "logsBloom": "0x00000000000000000000000000000000000200000000000000000000001000000000000000000000000000000000000000000000000000000000000001000000000000000000000000000000000000000000000000000000000000000000000000000000000000000000000000000000000000000010000000000000000000000000000000000000000000000000000000000000000000000000000000000000000000000000000000000000000000000000000000000000000000000000000000000000000000000000000000000000000000000000000000000000000000000040000000000000000000000000000000000000010000000000000000000000",
      "type": "0x2",
      "transactionHash": "0xc6466a2e21d82c540158f4105dd9db80acf3b2d14ff24852e8b92c0f667abe2c",
      "transactionIndex": "0xf",
      "blockHash": "0xac38066c793427464ffcac44accfef89a4f3e719d1ee7edd536568d8076e183b",
      "blockNumber": "0x916adff",
      "gasUsed": "0xe182",
      "effectiveGasPrice": "0x7d2b7500",
      "from": "0x45dce8e4f2dc005a5f28206a46cb034697eeda8e",
      "to": "0x1a44076050125825900e736c501f859c50fe728c",
      "contractAddress": null
    },
    {
      "status": "0x1",
      "cumulativeGasUsed": "0x0",
      "logs": [
        {
          "address": "0x1a44076050125825900e736c501f859c50fe728c",
          "topics": [
            "0xcd6f92f5ac6185a5acfa02c92090746cec64d777269cbcd0ed031e396657a1c2"
          ],
          "data": "0x00000000000000000000000057558cb8d6005de0bae8a2789d5efaae52dba5a80000000000000000000000000000000000000000000000000000000000007596000000000000000000000000e1844c5d63a9543023008d332bd3d2e6f1fe1043",
          "blockHash": "0xac38066c793427464ffcac44accfef89a4f3e719d1ee7edd536568d8076e183b",
          "blockNumber": "0x916adff",
          "transactionHash": "0xc238d6e89a03b5bb2e1fff9fe0233d1d7745f6bab87709f824828fee0b405a79",
          "transactionIndex": "0x10",
          "logIndex": "0x0",
          "removed": false
        },
        {
          "address": "0x1a44076050125825900e736c501f859c50fe728c",
          "topics": [
            "0x4e0a5bbfa0c11a64effb1ada324b5437a17272e1aed9320398715ef71bb20928"
          ],
          "data": "0x00000000000000000000000057558cb8d6005de0bae8a2789d5efaae52dba5a8000000000000000000000000000000000000000000000000000000000000759600000000000000000000000000000000000000000000000000000000000000000000000000000000000000000000000000000000000000000000000000000000",
          "blockHash": "0xac38066c793427464ffcac44accfef89a4f3e719d1ee7edd536568d8076e183b",
          "blockNumber": "0x916adff",
          "transactionHash": "0xc238d6e89a03b5bb2e1fff9fe0233d1d7745f6bab87709f824828fee0b405a79",
          "transactionIndex": "0x10",
          "logIndex": "0x1",
          "removed": false
        }
      ],
      "logsBloom": "0x00000000000000000000020800000000000000000000000000000000001000020400000000000000000000000000000000000000000000000000000000000000000000000000000000000000000000000000000000800000000000000000000000000000000000000000000000000000000000000010000000000000000000100000000000000000000000000000000000000000000000000000000000000000000000000000000000000000000000000000000000000000000000000000000000000000000000000000000000000000000000000000000000000000000000000000000000000000000000000000000000000000010000000000000000000000",
      "type": "0x2",
      "transactionHash": "0xc238d6e89a03b5bb2e1fff9fe0233d1d7745f6bab87709f824828fee0b405a79",
      "transactionIndex": "0x10",
      "blockHash": "0xac38066c793427464ffcac44accfef89a4f3e719d1ee7edd536568d8076e183b",
      "blockNumber": "0x916adff",
      "gasUsed": "0xfb89",
      "effectiveGasPrice": "0x7d2b7500",
      "from": "0x45dce8e4f2dc005a5f28206a46cb034697eeda8e",
      "to": "0x1a44076050125825900e736c501f859c50fe728c",
      "contractAddress": null
    },
    {
      "status": "0x1",
      "cumulativeGasUsed": "0x0",
      "logs": [
        {
          "address": "0x1a44076050125825900e736c501f859c50fe728c",
          "topics": [
            "0x4cff966ebee29a156dcb34cf72c1d06231fb1777f6bdf6e8089819232f002b1c"
          ],
          "data": "0x00000000000000000000000057558cb8d6005de0bae8a2789d5efaae52dba5a800000000000000000000000000000000000000000000000000000000000075ce000000000000000000000000c39161c743d0307eb9bcc9fef03eeb9dc4802de7",
          "blockHash": "0xac38066c793427464ffcac44accfef89a4f3e719d1ee7edd536568d8076e183b",
          "blockNumber": "0x916adff",
          "transactionHash": "0xb7e3fb2564ea83cf6daece07731f51fb79111fcf09152adf677bfc8f60fbd3da",
          "transactionIndex": "0x11",
          "logIndex": "0x0",
          "removed": false
        }
      ],
      "logsBloom": "0x00000000000000000000000000000000000200000000000000000000001000000000000000000000000000000000000000000000000000000000000001000000000000000000000000000000000000000000000000000000000000000000000000000000000000000000000000000000000000000010000000000000000000000000000000000000000000000000000000000000000000000000000000000000000000000000000000000000000000000000000000000000000000000000000000000000000000000000000000000000000000000000000000000000000000000040000000000000000000000000000000000000010000000000000000000000",
      "type": "0x2",
      "transactionHash": "0xb7e3fb2564ea83cf6daece07731f51fb79111fcf09152adf677bfc8f60fbd3da",
      "transactionIndex": "0x11",
      "blockHash": "0xac38066c793427464ffcac44accfef89a4f3e719d1ee7edd536568d8076e183b",
      "blockNumber": "0x916adff",
      "gasUsed": "0xe182",
      "effectiveGasPrice": "0x7d2b7500",
      "from": "0x45dce8e4f2dc005a5f28206a46cb034697eeda8e",
      "to": "0x1a44076050125825900e736c501f859c50fe728c",
      "contractAddress": null
    },
    {
      "status": "0x1",
      "cumulativeGasUsed": "0x0",
      "logs": [
        {
          "address": "0x1a44076050125825900e736c501f859c50fe728c",
          "topics": [
            "0xcd6f92f5ac6185a5acfa02c92090746cec64d777269cbcd0ed031e396657a1c2"
          ],
          "data": "0x00000000000000000000000057558cb8d6005de0bae8a2789d5efaae52dba5a800000000000000000000000000000000000000000000000000000000000075ce000000000000000000000000e1844c5d63a9543023008d332bd3d2e6f1fe1043",
          "blockHash": "0xac38066c793427464ffcac44accfef89a4f3e719d1ee7edd536568d8076e183b",
          "blockNumber": "0x916adff",
          "transactionHash": "0x6a23bc08501477068ea64b100d85af5ec159aa3f47aa7d13e9118a580e00dcd9",
          "transactionIndex": "0x12",
          "logIndex": "0x0",
          "removed": false
        },
        {
          "address": "0x1a44076050125825900e736c501f859c50fe728c",
          "topics": [
            "0x4e0a5bbfa0c11a64effb1ada324b5437a17272e1aed9320398715ef71bb20928"
          ],
          "data": "0x00000000000000000000000057558cb8d6005de0bae8a2789d5efaae52dba5a800000000000000000000000000000000000000000000000000000000000075ce00000000000000000000000000000000000000000000000000000000000000000000000000000000000000000000000000000000000000000000000000000000",
          "blockHash": "0xac38066c793427464ffcac44accfef89a4f3e719d1ee7edd536568d8076e183b",
          "blockNumber": "0x916adff",
          "transactionHash": "0x6a23bc08501477068ea64b100d85af5ec159aa3f47aa7d13e9118a580e00dcd9",
          "transactionIndex": "0x12",
          "logIndex": "0x1",
          "removed": false
        }
      ],
      "logsBloom": "0x00000000000000000000020800000000000000000000000000000000001000020400000000000000000000000000000000000000000000000000000000000000000000000000000000000000000000000000000000800000000000000000000000000000000000000000000000000000000000000010000000000000000000100000000000000000000000000000000000000000000000000000000000000000000000000000000000000000000000000000000000000000000000000000000000000000000000000000000000000000000000000000000000000000000000000000000000000000000000000000000000000000010000000000000000000000",
      "type": "0x2",
      "transactionHash": "0x6a23bc08501477068ea64b100d85af5ec159aa3f47aa7d13e9118a580e00dcd9",
      "transactionIndex": "0x12",
      "blockHash": "0xac38066c793427464ffcac44accfef89a4f3e719d1ee7edd536568d8076e183b",
      "blockNumber": "0x916adff",
      "gasUsed": "0xfb89",
      "effectiveGasPrice": "0x7d2b7500",
      "from": "0x45dce8e4f2dc005a5f28206a46cb034697eeda8e",
      "to": "0x1a44076050125825900e736c501f859c50fe728c",
      "contractAddress": null
    },
    {
      "status": "0x1",
      "cumulativeGasUsed": "0x0",
      "logs": [
        {
          "address": "0x1a44076050125825900e736c501f859c50fe728c",
          "topics": [
            "0x4cff966ebee29a156dcb34cf72c1d06231fb1777f6bdf6e8089819232f002b1c"
          ],
          "data": "0x00000000000000000000000057558cb8d6005de0bae8a2789d5efaae52dba5a8000000000000000000000000000000000000000000000000000000000000769a000000000000000000000000c39161c743d0307eb9bcc9fef03eeb9dc4802de7",
          "blockHash": "0xac38066c793427464ffcac44accfef89a4f3e719d1ee7edd536568d8076e183b",
          "blockNumber": "0x916adff",
          "transactionHash": "0x3882044b401c798c9c3a5d9a4367e8c92b88b0d129e52d9b9d747d964f403ea3",
          "transactionIndex": "0x13",
          "logIndex": "0x0",
          "removed": false
        }
      ],
      "logsBloom": "0x00000000000000000000000000000000000200000000000000000000001000000000000000000000000000000000000000000000000000000000000001000000000000000000000000000000000000000000000000000000000000000000000000000000000000000000000000000000000000000010000000000000000000000000000000000000000000000000000000000000000000000000000000000000000000000000000000000000000000000000000000000000000000000000000000000000000000000000000000000000000000000000000000000000000000000040000000000000000000000000000000000000010000000000000000000000",
      "type": "0x2",
      "transactionHash": "0x3882044b401c798c9c3a5d9a4367e8c92b88b0d129e52d9b9d747d964f403ea3",
      "transactionIndex": "0x13",
      "blockHash": "0xac38066c793427464ffcac44accfef89a4f3e719d1ee7edd536568d8076e183b",
      "blockNumber": "0x916adff",
      "gasUsed": "0xe182",
      "effectiveGasPrice": "0x7d2b7500",
      "from": "0x45dce8e4f2dc005a5f28206a46cb034697eeda8e",
      "to": "0x1a44076050125825900e736c501f859c50fe728c",
      "contractAddress": null
    },
    {
      "status": "0x1",
      "cumulativeGasUsed": "0x0",
      "logs": [
        {
          "address": "0x1a44076050125825900e736c501f859c50fe728c",
          "topics": [
            "0xcd6f92f5ac6185a5acfa02c92090746cec64d777269cbcd0ed031e396657a1c2"
          ],
          "data": "0x00000000000000000000000057558cb8d6005de0bae8a2789d5efaae52dba5a8000000000000000000000000000000000000000000000000000000000000769a000000000000000000000000e1844c5d63a9543023008d332bd3d2e6f1fe1043",
          "blockHash": "0xac38066c793427464ffcac44accfef89a4f3e719d1ee7edd536568d8076e183b",
          "blockNumber": "0x916adff",
          "transactionHash": "0x854a0be18025e7758a4e30bc68c3cb608324299c34a8789163306bc6936b7ab7",
          "transactionIndex": "0x14",
          "logIndex": "0x0",
          "removed": false
        },
        {
          "address": "0x1a44076050125825900e736c501f859c50fe728c",
          "topics": [
            "0x4e0a5bbfa0c11a64effb1ada324b5437a17272e1aed9320398715ef71bb20928"
          ],
          "data": "0x00000000000000000000000057558cb8d6005de0bae8a2789d5efaae52dba5a8000000000000000000000000000000000000000000000000000000000000769a00000000000000000000000000000000000000000000000000000000000000000000000000000000000000000000000000000000000000000000000000000000",
          "blockHash": "0xac38066c793427464ffcac44accfef89a4f3e719d1ee7edd536568d8076e183b",
          "blockNumber": "0x916adff",
          "transactionHash": "0x854a0be18025e7758a4e30bc68c3cb608324299c34a8789163306bc6936b7ab7",
          "transactionIndex": "0x14",
          "logIndex": "0x1",
          "removed": false
        }
      ],
      "logsBloom": "0x00000000000000000000020800000000000000000000000000000000001000020400000000000000000000000000000000000000000000000000000000000000000000000000000000000000000000000000000000800000000000000000000000000000000000000000000000000000000000000010000000000000000000100000000000000000000000000000000000000000000000000000000000000000000000000000000000000000000000000000000000000000000000000000000000000000000000000000000000000000000000000000000000000000000000000000000000000000000000000000000000000000010000000000000000000000",
      "type": "0x2",
      "transactionHash": "0x854a0be18025e7758a4e30bc68c3cb608324299c34a8789163306bc6936b7ab7",
      "transactionIndex": "0x14",
      "blockHash": "0xac38066c793427464ffcac44accfef89a4f3e719d1ee7edd536568d8076e183b",
      "blockNumber": "0x916adff",
      "gasUsed": "0xfb89",
      "effectiveGasPrice": "0x7d2b7500",
      "from": "0x45dce8e4f2dc005a5f28206a46cb034697eeda8e",
      "to": "0x1a44076050125825900e736c501f859c50fe728c",
      "contractAddress": null
    },
    {
      "status": "0x1",
      "cumulativeGasUsed": "0x0",
      "logs": [
        {
          "address": "0x1a44076050125825900e736c501f859c50fe728c",
          "topics": [
            "0x4cff966ebee29a156dcb34cf72c1d06231fb1777f6bdf6e8089819232f002b1c"
          ],
          "data": "0x00000000000000000000000057558cb8d6005de0bae8a2789d5efaae52dba5a800000000000000000000000000000000000000000000000000000000000075e7000000000000000000000000c39161c743d0307eb9bcc9fef03eeb9dc4802de7",
          "blockHash": "0xac38066c793427464ffcac44accfef89a4f3e719d1ee7edd536568d8076e183b",
          "blockNumber": "0x916adff",
          "transactionHash": "0x102b816f4cf782923f9dde1e8da583e4f6c7ad95f71278ce1b4b92d9df05a7a4",
          "transactionIndex": "0x15",
          "logIndex": "0x0",
          "removed": false
        }
      ],
      "logsBloom": "0x00000000000000000000000000000000000200000000000000000000001000000000000000000000000000000000000000000000000000000000000001000000000000000000000000000000000000000000000000000000000000000000000000000000000000000000000000000000000000000010000000000000000000000000000000000000000000000000000000000000000000000000000000000000000000000000000000000000000000000000000000000000000000000000000000000000000000000000000000000000000000000000000000000000000000000040000000000000000000000000000000000000010000000000000000000000",
      "type": "0x2",
      "transactionHash": "0x102b816f4cf782923f9dde1e8da583e4f6c7ad95f71278ce1b4b92d9df05a7a4",
      "transactionIndex": "0x15",
      "blockHash": "0xac38066c793427464ffcac44accfef89a4f3e719d1ee7edd536568d8076e183b",
      "blockNumber": "0x916adff",
      "gasUsed": "0xe182",
      "effectiveGasPrice": "0x7d2b7500",
      "from": "0x45dce8e4f2dc005a5f28206a46cb034697eeda8e",
      "to": "0x1a44076050125825900e736c501f859c50fe728c",
      "contractAddress": null
    },
    {
      "status": "0x1",
      "cumulativeGasUsed": "0x0",
      "logs": [
        {
          "address": "0x1a44076050125825900e736c501f859c50fe728c",
          "topics": [
            "0xcd6f92f5ac6185a5acfa02c92090746cec64d777269cbcd0ed031e396657a1c2"
          ],
          "data": "0x00000000000000000000000057558cb8d6005de0bae8a2789d5efaae52dba5a800000000000000000000000000000000000000000000000000000000000075e7000000000000000000000000e1844c5d63a9543023008d332bd3d2e6f1fe1043",
          "blockHash": "0xac38066c793427464ffcac44accfef89a4f3e719d1ee7edd536568d8076e183b",
          "blockNumber": "0x916adff",
          "transactionHash": "0xc1e0bf9f02e9386e6e632ec44bf0677a28eddcc121ba3c24fbdab3206eab92b5",
          "transactionIndex": "0x16",
          "logIndex": "0x0",
          "removed": false
        },
        {
          "address": "0x1a44076050125825900e736c501f859c50fe728c",
          "topics": [
            "0x4e0a5bbfa0c11a64effb1ada324b5437a17272e1aed9320398715ef71bb20928"
          ],
          "data": "0x00000000000000000000000057558cb8d6005de0bae8a2789d5efaae52dba5a800000000000000000000000000000000000000000000000000000000000075e700000000000000000000000000000000000000000000000000000000000000000000000000000000000000000000000000000000000000000000000000000000",
          "blockHash": "0xac38066c793427464ffcac44accfef89a4f3e719d1ee7edd536568d8076e183b",
          "blockNumber": "0x916adff",
          "transactionHash": "0xc1e0bf9f02e9386e6e632ec44bf0677a28eddcc121ba3c24fbdab3206eab92b5",
          "transactionIndex": "0x16",
          "logIndex": "0x1",
          "removed": false
        }
      ],
      "logsBloom": "0x00000000000000000000020800000000000000000000000000000000001000020400000000000000000000000000000000000000000000000000000000000000000000000000000000000000000000000000000000800000000000000000000000000000000000000000000000000000000000000010000000000000000000100000000000000000000000000000000000000000000000000000000000000000000000000000000000000000000000000000000000000000000000000000000000000000000000000000000000000000000000000000000000000000000000000000000000000000000000000000000000000000010000000000000000000000",
      "type": "0x2",
      "transactionHash": "0xc1e0bf9f02e9386e6e632ec44bf0677a28eddcc121ba3c24fbdab3206eab92b5",
      "transactionIndex": "0x16",
      "blockHash": "0xac38066c793427464ffcac44accfef89a4f3e719d1ee7edd536568d8076e183b",
      "blockNumber": "0x916adff",
      "gasUsed": "0xfb89",
      "effectiveGasPrice": "0x7d2b7500",
      "from": "0x45dce8e4f2dc005a5f28206a46cb034697eeda8e",
      "to": "0x1a44076050125825900e736c501f859c50fe728c",
      "contractAddress": null
    },
    {
      "status": "0x1",
      "cumulativeGasUsed": "0x0",
      "logs": [
        {
          "address": "0x1a44076050125825900e736c501f859c50fe728c",
          "topics": [
            "0x4cff966ebee29a156dcb34cf72c1d06231fb1777f6bdf6e8089819232f002b1c"
          ],
          "data": "0x00000000000000000000000057558cb8d6005de0bae8a2789d5efaae52dba5a8000000000000000000000000000000000000000000000000000000000000766f000000000000000000000000c39161c743d0307eb9bcc9fef03eeb9dc4802de7",
          "blockHash": "0xac38066c793427464ffcac44accfef89a4f3e719d1ee7edd536568d8076e183b",
          "blockNumber": "0x916adff",
          "transactionHash": "0xb6df340b2c3b1d4cba0236f341d7689d3cd7154e9431bea7cfa7fb18297f0435",
          "transactionIndex": "0x17",
          "logIndex": "0x0",
          "removed": false
        }
      ],
      "logsBloom": "0x00000000000000000000000000000000000200000000000000000000001000000000000000000000000000000000000000000000000000000000000001000000000000000000000000000000000000000000000000000000000000000000000000000000000000000000000000000000000000000010000000000000000000000000000000000000000000000000000000000000000000000000000000000000000000000000000000000000000000000000000000000000000000000000000000000000000000000000000000000000000000000000000000000000000000000040000000000000000000000000000000000000010000000000000000000000",
      "type": "0x2",
      "transactionHash": "0xb6df340b2c3b1d4cba0236f341d7689d3cd7154e9431bea7cfa7fb18297f0435",
      "transactionIndex": "0x17",
      "blockHash": "0xac38066c793427464ffcac44accfef89a4f3e719d1ee7edd536568d8076e183b",
      "blockNumber": "0x916adff",
      "gasUsed": "0xe182",
      "effectiveGasPrice": "0x7d2b7500",
      "from": "0x45dce8e4f2dc005a5f28206a46cb034697eeda8e",
      "to": "0x1a44076050125825900e736c501f859c50fe728c",
      "contractAddress": null
    },
    {
      "status": "0x1",
      "cumulativeGasUsed": "0x0",
      "logs": [
        {
          "address": "0x1a44076050125825900e736c501f859c50fe728c",
          "topics": [
            "0xcd6f92f5ac6185a5acfa02c92090746cec64d777269cbcd0ed031e396657a1c2"
          ],
          "data": "0x00000000000000000000000057558cb8d6005de0bae8a2789d5efaae52dba5a8000000000000000000000000000000000000000000000000000000000000766f000000000000000000000000e1844c5d63a9543023008d332bd3d2e6f1fe1043",
          "blockHash": "0xcafe75d4adf9057193397b8628ca0873d2279d0d64c939ad997d92d98bda38c9",
          "blockNumber": "0x916ae00",
          "transactionHash": "0x74e2128c776666c397aeb2a551cfe6a2f6c9eafee35320110c1c17eff9cd6851",
          "transactionIndex": "0xa",
          "logIndex": "0x0",
          "removed": false
        },
        {
          "address": "0x1a44076050125825900e736c501f859c50fe728c",
          "topics": [
            "0x4e0a5bbfa0c11a64effb1ada324b5437a17272e1aed9320398715ef71bb20928"
          ],
          "data": "0x00000000000000000000000057558cb8d6005de0bae8a2789d5efaae52dba5a8000000000000000000000000000000000000000000000000000000000000766f00000000000000000000000000000000000000000000000000000000000000000000000000000000000000000000000000000000000000000000000000000000",
          "blockHash": "0xcafe75d4adf9057193397b8628ca0873d2279d0d64c939ad997d92d98bda38c9",
          "blockNumber": "0x916ae00",
          "transactionHash": "0x74e2128c776666c397aeb2a551cfe6a2f6c9eafee35320110c1c17eff9cd6851",
          "transactionIndex": "0xa",
          "logIndex": "0x1",
          "removed": false
        }
      ],
      "logsBloom": "0x00000000000000000000020800000000000000000000000000000000001000020400000000000000000000000000000000000000000000000000000000000000000000000000000000000000000000000000000000800000000000000000000000000000000000000000000000000000000000000010000000000000000000100000000000000000000000000000000000000000000000000000000000000000000000000000000000000000000000000000000000000000000000000000000000000000000000000000000000000000000000000000000000000000000000000000000000000000000000000000000000000000010000000000000000000000",
      "type": "0x2",
      "transactionHash": "0x74e2128c776666c397aeb2a551cfe6a2f6c9eafee35320110c1c17eff9cd6851",
      "transactionIndex": "0xa",
      "blockHash": "0xcafe75d4adf9057193397b8628ca0873d2279d0d64c939ad997d92d98bda38c9",
      "blockNumber": "0x916ae00",
      "gasUsed": "0xfb89",
      "effectiveGasPrice": "0x7d2b7500",
      "from": "0x45dce8e4f2dc005a5f28206a46cb034697eeda8e",
      "to": "0x1a44076050125825900e736c501f859c50fe728c",
      "contractAddress": null
    },
    {
      "status": "0x1",
      "cumulativeGasUsed": "0x0",
      "logs": [
        {
          "address": "0x1a44076050125825900e736c501f859c50fe728c",
          "topics": [
            "0x4cff966ebee29a156dcb34cf72c1d06231fb1777f6bdf6e8089819232f002b1c"
          ],
          "data": "0x00000000000000000000000057558cb8d6005de0bae8a2789d5efaae52dba5a80000000000000000000000000000000000000000000000000000000000007674000000000000000000000000c39161c743d0307eb9bcc9fef03eeb9dc4802de7",
          "blockHash": "0xcafe75d4adf9057193397b8628ca0873d2279d0d64c939ad997d92d98bda38c9",
          "blockNumber": "0x916ae00",
          "transactionHash": "0xca5b45aba2c26ab301a58264ac1691353f357e1640967e09311b96415dfa046a",
          "transactionIndex": "0xb",
          "logIndex": "0x0",
          "removed": false
        }
      ],
      "logsBloom": "0x00000000000000000000000000000000000200000000000000000000001000000000000000000000000000000000000000000000000000000000000001000000000000000000000000000000000000000000000000000000000000000000000000000000000000000000000000000000000000000010000000000000000000000000000000000000000000000000000000000000000000000000000000000000000000000000000000000000000000000000000000000000000000000000000000000000000000000000000000000000000000000000000000000000000000000040000000000000000000000000000000000000010000000000000000000000",
      "type": "0x2",
      "transactionHash": "0xca5b45aba2c26ab301a58264ac1691353f357e1640967e09311b96415dfa046a",
      "transactionIndex": "0xb",
      "blockHash": "0xcafe75d4adf9057193397b8628ca0873d2279d0d64c939ad997d92d98bda38c9",
      "blockNumber": "0x916ae00",
      "gasUsed": "0xe182",
      "effectiveGasPrice": "0x7d2b7500",
      "from": "0x45dce8e4f2dc005a5f28206a46cb034697eeda8e",
      "to": "0x1a44076050125825900e736c501f859c50fe728c",
      "contractAddress": null
    },
    {
      "status": "0x1",
      "cumulativeGasUsed": "0x0",
      "logs": [
        {
          "address": "0x1a44076050125825900e736c501f859c50fe728c",
          "topics": [
            "0xcd6f92f5ac6185a5acfa02c92090746cec64d777269cbcd0ed031e396657a1c2"
          ],
          "data": "0x00000000000000000000000057558cb8d6005de0bae8a2789d5efaae52dba5a80000000000000000000000000000000000000000000000000000000000007674000000000000000000000000e1844c5d63a9543023008d332bd3d2e6f1fe1043",
          "blockHash": "0x8c8dace6f42125d726036742daf8f60b25fcff82fb8fa1028173692c5ffaffbc",
          "blockNumber": "0x916ae01",
          "transactionHash": "0xc684ff1dee1dff38d959a247b4d29ac68e56a61c8f3c49c7c84031bc41e1c58f",
          "transactionIndex": "0x9",
          "logIndex": "0x0",
          "removed": false
        },
        {
          "address": "0x1a44076050125825900e736c501f859c50fe728c",
          "topics": [
            "0x4e0a5bbfa0c11a64effb1ada324b5437a17272e1aed9320398715ef71bb20928"
          ],
          "data": "0x00000000000000000000000057558cb8d6005de0bae8a2789d5efaae52dba5a8000000000000000000000000000000000000000000000000000000000000767400000000000000000000000000000000000000000000000000000000000000000000000000000000000000000000000000000000000000000000000000000000",
          "blockHash": "0x8c8dace6f42125d726036742daf8f60b25fcff82fb8fa1028173692c5ffaffbc",
          "blockNumber": "0x916ae01",
          "transactionHash": "0xc684ff1dee1dff38d959a247b4d29ac68e56a61c8f3c49c7c84031bc41e1c58f",
          "transactionIndex": "0x9",
          "logIndex": "0x1",
          "removed": false
        }
      ],
      "logsBloom": "0x00000000000000000000020800000000000000000000000000000000001000020400000000000000000000000000000000000000000000000000000000000000000000000000000000000000000000000000000000800000000000000000000000000000000000000000000000000000000000000010000000000000000000100000000000000000000000000000000000000000000000000000000000000000000000000000000000000000000000000000000000000000000000000000000000000000000000000000000000000000000000000000000000000000000000000000000000000000000000000000000000000000010000000000000000000000",
      "type": "0x2",
      "transactionHash": "0xc684ff1dee1dff38d959a247b4d29ac68e56a61c8f3c49c7c84031bc41e1c58f",
      "transactionIndex": "0x9",
      "blockHash": "0x8c8dace6f42125d726036742daf8f60b25fcff82fb8fa1028173692c5ffaffbc",
      "blockNumber": "0x916ae01",
      "gasUsed": "0xfb89",
      "effectiveGasPrice": "0x7d2b7500",
      "from": "0x45dce8e4f2dc005a5f28206a46cb034697eeda8e",
      "to": "0x1a44076050125825900e736c501f859c50fe728c",
      "contractAddress": null
    },
    {
      "status": "0x1",
      "cumulativeGasUsed": "0x0",
      "logs": [
        {
          "address": "0x1a44076050125825900e736c501f859c50fe728c",
          "topics": [
            "0x4cff966ebee29a156dcb34cf72c1d06231fb1777f6bdf6e8089819232f002b1c"
          ],
          "data": "0x00000000000000000000000057558cb8d6005de0bae8a2789d5efaae52dba5a800000000000000000000000000000000000000000000000000000000000075d5000000000000000000000000c39161c743d0307eb9bcc9fef03eeb9dc4802de7",
          "blockHash": "0x0e244b8c7c320c65e31abb01f40bf5835092b6474746df4862ddbac51982053a",
          "blockNumber": "0x916ae02",
          "transactionHash": "0xec070171cd7412eac571e01abc807e93d6e35ce5254320d13970858e031711ed",
          "transactionIndex": "0x15",
          "logIndex": "0x0",
          "removed": false
        }
      ],
      "logsBloom": "0x00000000000000000000000000000000000200000000000000000000001000000000000000000000000000000000000000000000000000000000000001000000000000000000000000000000000000000000000000000000000000000000000000000000000000000000000000000000000000000010000000000000000000000000000000000000000000000000000000000000000000000000000000000000000000000000000000000000000000000000000000000000000000000000000000000000000000000000000000000000000000000000000000000000000000000040000000000000000000000000000000000000010000000000000000000000",
      "type": "0x2",
      "transactionHash": "0xec070171cd7412eac571e01abc807e93d6e35ce5254320d13970858e031711ed",
      "transactionIndex": "0x15",
      "blockHash": "0x0e244b8c7c320c65e31abb01f40bf5835092b6474746df4862ddbac51982053a",
      "blockNumber": "0x916ae02",
      "gasUsed": "0xe182",
      "effectiveGasPrice": "0x7d2b7500",
      "from": "0x45dce8e4f2dc005a5f28206a46cb034697eeda8e",
      "to": "0x1a44076050125825900e736c501f859c50fe728c",
      "contractAddress": null
    },
    {
      "status": "0x1",
      "cumulativeGasUsed": "0x0",
      "logs": [
        {
          "address": "0x1a44076050125825900e736c501f859c50fe728c",
          "topics": [
            "0xcd6f92f5ac6185a5acfa02c92090746cec64d777269cbcd0ed031e396657a1c2"
          ],
          "data": "0x00000000000000000000000057558cb8d6005de0bae8a2789d5efaae52dba5a800000000000000000000000000000000000000000000000000000000000075d5000000000000000000000000e1844c5d63a9543023008d332bd3d2e6f1fe1043",
          "blockHash": "0x785e6757bf755156201041872ab9b55105743f4b08d37402504be4ea29b76e80",
          "blockNumber": "0x916ae03",
          "transactionHash": "0x4143aa3b09455a9b9066ed05f0f8d70403731891944414a72d9c3d89f617ee93",
          "transactionIndex": "0xb",
          "logIndex": "0x0",
          "removed": false
        },
        {
          "address": "0x1a44076050125825900e736c501f859c50fe728c",
          "topics": [
            "0x4e0a5bbfa0c11a64effb1ada324b5437a17272e1aed9320398715ef71bb20928"
          ],
          "data": "0x00000000000000000000000057558cb8d6005de0bae8a2789d5efaae52dba5a800000000000000000000000000000000000000000000000000000000000075d500000000000000000000000000000000000000000000000000000000000000000000000000000000000000000000000000000000000000000000000000000000",
          "blockHash": "0x785e6757bf755156201041872ab9b55105743f4b08d37402504be4ea29b76e80",
          "blockNumber": "0x916ae03",
          "transactionHash": "0x4143aa3b09455a9b9066ed05f0f8d70403731891944414a72d9c3d89f617ee93",
          "transactionIndex": "0xb",
          "logIndex": "0x1",
          "removed": false
        }
      ],
      "logsBloom": "0x00000000000000000000020800000000000000000000000000000000001000020400000000000000000000000000000000000000000000000000000000000000000000000000000000000000000000000000000000800000000000000000000000000000000000000000000000000000000000000010000000000000000000100000000000000000000000000000000000000000000000000000000000000000000000000000000000000000000000000000000000000000000000000000000000000000000000000000000000000000000000000000000000000000000000000000000000000000000000000000000000000000010000000000000000000000",
      "type": "0x2",
      "transactionHash": "0x4143aa3b09455a9b9066ed05f0f8d70403731891944414a72d9c3d89f617ee93",
      "transactionIndex": "0xb",
      "blockHash": "0x785e6757bf755156201041872ab9b55105743f4b08d37402504be4ea29b76e80",
      "blockNumber": "0x916ae03",
      "gasUsed": "0xfb89",
      "effectiveGasPrice": "0x7d2b7500",
      "from": "0x45dce8e4f2dc005a5f28206a46cb034697eeda8e",
      "to": "0x1a44076050125825900e736c501f859c50fe728c",
      "contractAddress": null
    }
  ],
  "libraries": [],
  "pending": [],
  "returns": {},
  "timestamp": 1750049352,
  "chain": 1329,
  "commit": "e96079a"
}