{
  "transactions": [
    {
      "hash": "0xbb323cb81aa61510a81578cd4c8188a918dc0ca86e8435d95fec34b1e0759735",
      "transactionType": "CALL",
      "contractName": null,
      "contractAddress": "0x23432452b720c80553458496d4d9d7c5003280d0",
      "function": "send((uint32,bytes32,uint256,uint256,bytes,bytes,bytes),(uint256,uint256),address)",
      "arguments": [
        "(30243, 0x000000000000000000000000b0e1650a9760e0f383174af042091fc544b8356f, 100000000000000, 100000000000000, 0x0003, 0x, 0x)",
        "(21127289911833521, 0)",
        "0xb0E1650A9760e0f383174af042091fc544b8356f"
      ],
      "transaction": {
        "from": "0xb0e1650a9760e0f383174af042091fc544b8356f",
        "to": "0x23432452b720c80553458496d4d9d7c5003280d0",
        "gas": "0x5a677",
        "value": "0x4b0f288242f3b1",
        "input": "0xc7c7f5b30000000000000000000000000000000000000000000000000000000000000080000000000000000000000000000000000000000000000000004b0f288242f3b10000000000000000000000000000000000000000000000000000000000000000000000000000000000000000b0e1650a9760e0f383174af042091fc544b8356f0000000000000000000000000000000000000000000000000000000000007623000000000000000000000000b0e1650a9760e0f383174af042091fc544b8356f00000000000000000000000000000000000000000000000000005af3107a400000000000000000000000000000000000000000000000000000005af3107a400000000000000000000000000000000000000000000000000000000000000000e0000000000000000000000000000000000000000000000000000000000000012000000000000000000000000000000000000000000000000000000000000001400000000000000000000000000000000000000000000000000000000000000002000300000000000000000000000000000000000000000000000000000000000000000000000000000000000000000000000000000000000000000000000000000000000000000000000000000000000000000000000000000000000000000000",
        "nonce": "0x0",
        "chainId": "0x440"
      },
      "additionalContracts": [],
      "isFixedGasLimit": false
    },
    {
      "hash": null,
      "transactionType": "CALL",
      "contractName": null,
      "contractAddress": "0xe4796ccb6bb5de2290c417ac337f2b66ca2e770e",
      "function": "send((uint32,bytes32,uint256,uint256,bytes,bytes,bytes),(uint256,uint256),address)",
      "arguments": [
        "(30243, 0x000000000000000000000000b0e1650a9760e0f383174af042091fc544b8356f, 100000000000000, 100000000000000, 0x0003, 0x, 0x)",
        "(21127289911833521, 0)",
        "0xb0E1650A9760e0f383174af042091fc544b8356f"
      ],
      "transaction": {
        "from": "0xb0e1650a9760e0f383174af042091fc544b8356f",
        "to": "0xe4796ccb6bb5de2290c417ac337f2b66ca2e770e",
        "gas": "0x5a677",
        "value": "0x4b0f288242f3b1",
        "input": "0xc7c7f5b30000000000000000000000000000000000000000000000000000000000000080000000000000000000000000000000000000000000000000004b0f288242f3b10000000000000000000000000000000000000000000000000000000000000000000000000000000000000000b0e1650a9760e0f383174af042091fc544b8356f0000000000000000000000000000000000000000000000000000000000007623000000000000000000000000b0e1650a9760e0f383174af042091fc544b8356f00000000000000000000000000000000000000000000000000005af3107a400000000000000000000000000000000000000000000000000000005af3107a400000000000000000000000000000000000000000000000000000000000000000e0000000000000000000000000000000000000000000000000000000000000012000000000000000000000000000000000000000000000000000000000000001400000000000000000000000000000000000000000000000000000000000000002000300000000000000000000000000000000000000000000000000000000000000000000000000000000000000000000000000000000000000000000000000000000000000000000000000000000000000000000000000000000000000000000",
        "nonce": "0x1",
        "chainId": "0x440"
      },
      "additionalContracts": [],
      "isFixedGasLimit": false
    },
    {
      "hash": null,
      "transactionType": "CALL",
      "contractName": null,
      "contractAddress": "0x1f55a02a049033e3419a8e2975cf3f572f4e6e9a",
      "function": "send((uint32,bytes32,uint256,uint256,bytes,bytes,bytes),(uint256,uint256),address)",
      "arguments": [
        "(30243, 0x000000000000000000000000b0e1650a9760e0f383174af042091fc544b8356f, 100000000000000, 100000000000000, 0x0003, 0x, 0x)",
        "(21127289911833521, 0)",
        "0xb0E1650A9760e0f383174af042091fc544b8356f"
      ],
      "transaction": {
        "from": "0xb0e1650a9760e0f383174af042091fc544b8356f",
        "to": "0x1f55a02a049033e3419a8e2975cf3f572f4e6e9a",
        "gas": "0x5a677",
        "value": "0x4b0f288242f3b1",
        "input": "0xc7c7f5b30000000000000000000000000000000000000000000000000000000000000080000000000000000000000000000000000000000000000000004b0f288242f3b10000000000000000000000000000000000000000000000000000000000000000000000000000000000000000b0e1650a9760e0f383174af042091fc544b8356f0000000000000000000000000000000000000000000000000000000000007623000000000000000000000000b0e1650a9760e0f383174af042091fc544b8356f00000000000000000000000000000000000000000000000000005af3107a400000000000000000000000000000000000000000000000000000005af3107a400000000000000000000000000000000000000000000000000000000000000000e0000000000000000000000000000000000000000000000000000000000000012000000000000000000000000000000000000000000000000000000000000001400000000000000000000000000000000000000000000000000000000000000002000300000000000000000000000000000000000000000000000000000000000000000000000000000000000000000000000000000000000000000000000000000000000000000000000000000000000000000000000000000000000000000000",
        "nonce": "0x2",
        "chainId": "0x440"
      },
      "additionalContracts": [],
      "isFixedGasLimit": false
    },
    {
      "hash": null,
      "transactionType": "CALL",
      "contractName": null,
      "contractAddress": "0x909dbde1ebe906af95660033e478d59efe831fed",
      "function": "send((uint32,bytes32,uint256,uint256,bytes,bytes,bytes),(uint256,uint256),address)",
      "arguments": [
        "(30243, 0x000000000000000000000000b0e1650a9760e0f383174af042091fc544b8356f, 100000000000000, 100000000000000, 0x0003, 0x, 0x)",
        "(21127289911833521, 0)",
        "0xb0E1650A9760e0f383174af042091fc544b8356f"
      ],
      "transaction": {
        "from": "0xb0e1650a9760e0f383174af042091fc544b8356f",
        "to": "0x909dbde1ebe906af95660033e478d59efe831fed",
        "gas": "0x602bb",
        "value": "0x4b0f288242f3b1",
        "input": "0xc7c7f5b30000000000000000000000000000000000000000000000000000000000000080000000000000000000000000000000000000000000000000004b0f288242f3b10000000000000000000000000000000000000000000000000000000000000000000000000000000000000000b0e1650a9760e0f383174af042091fc544b8356f0000000000000000000000000000000000000000000000000000000000007623000000000000000000000000b0e1650a9760e0f383174af042091fc544b8356f00000000000000000000000000000000000000000000000000005af3107a400000000000000000000000000000000000000000000000000000005af3107a400000000000000000000000000000000000000000000000000000000000000000e0000000000000000000000000000000000000000000000000000000000000012000000000000000000000000000000000000000000000000000000000000001400000000000000000000000000000000000000000000000000000000000000002000300000000000000000000000000000000000000000000000000000000000000000000000000000000000000000000000000000000000000000000000000000000000000000000000000000000000000000000000000000000000000000000",
        "nonce": "0x3",
        "chainId": "0x440"
      },
      "additionalContracts": [],
      "isFixedGasLimit": false
    },
    {
      "hash": null,
      "transactionType": "CALL",
      "contractName": null,
      "contractAddress": "0x23432452b720c80553458496d4d9d7c5003280d0",
      "function": "send((uint32,bytes32,uint256,uint256,bytes,bytes,bytes),(uint256,uint256),address)",
      "arguments": [
        "(30260, 0x000000000000000000000000b0e1650a9760e0f383174af042091fc544b8356f, 100000000000000, 100000000000000, 0x0003, 0x, 0x)",
        "(10837928206729772, 0)",
        "0xb0E1650A9760e0f383174af042091fc544b8356f"
      ],
      "transaction": {
        "from": "0xb0e1650a9760e0f383174af042091fc544b8356f",
        "to": "0x23432452b720c80553458496d4d9d7c5003280d0",
        "gas": "0x65de0",
        "value": "0x268109ccdd022c",
        "input": "0xc7c7f5b3000000000000000000000000000000000000000000000000000000000000008000000000000000000000000000000000000000000000000000268109ccdd022c0000000000000000000000000000000000000000000000000000000000000000000000000000000000000000b0e1650a9760e0f383174af042091fc544b8356f0000000000000000000000000000000000000000000000000000000000007634000000000000000000000000b0e1650a9760e0f383174af042091fc544b8356f00000000000000000000000000000000000000000000000000005af3107a400000000000000000000000000000000000000000000000000000005af3107a400000000000000000000000000000000000000000000000000000000000000000e0000000000000000000000000000000000000000000000000000000000000012000000000000000000000000000000000000000000000000000000000000001400000000000000000000000000000000000000000000000000000000000000002000300000000000000000000000000000000000000000000000000000000000000000000000000000000000000000000000000000000000000000000000000000000000000000000000000000000000000000000000000000000000000000000",
        "nonce": "0x4",
        "chainId": "0x440"
      },
      "additionalContracts": [],
      "isFixedGasLimit": false
    },
    {
      "hash": null,
      "transactionType": "CALL",
      "contractName": null,
      "contractAddress": "0xe4796ccb6bb5de2290c417ac337f2b66ca2e770e",
      "function": "send((uint32,bytes32,uint256,uint256,bytes,bytes,bytes),(uint256,uint256),address)",
      "arguments": [
        "(30260, 0x000000000000000000000000b0e1650a9760e0f383174af042091fc544b8356f, 100000000000000, 100000000000000, 0x0003, 0x, 0x)",
        "(10837928206729772, 0)",
        "0xb0E1650A9760e0f383174af042091fc544b8356f"
      ],
      "transaction": {
        "from": "0xb0e1650a9760e0f383174af042091fc544b8356f",
        "to": "0xe4796ccb6bb5de2290c417ac337f2b66ca2e770e",
        "gas": "0x65de0",
        "value": "0x268109ccdd022c",
        "input": "0xc7c7f5b3000000000000000000000000000000000000000000000000000000000000008000000000000000000000000000000000000000000000000000268109ccdd022c0000000000000000000000000000000000000000000000000000000000000000000000000000000000000000b0e1650a9760e0f383174af042091fc544b8356f0000000000000000000000000000000000000000000000000000000000007634000000000000000000000000b0e1650a9760e0f383174af042091fc544b8356f00000000000000000000000000000000000000000000000000005af3107a400000000000000000000000000000000000000000000000000000005af3107a400000000000000000000000000000000000000000000000000000000000000000e0000000000000000000000000000000000000000000000000000000000000012000000000000000000000000000000000000000000000000000000000000001400000000000000000000000000000000000000000000000000000000000000002000300000000000000000000000000000000000000000000000000000000000000000000000000000000000000000000000000000000000000000000000000000000000000000000000000000000000000000000000000000000000000000000",
        "nonce": "0x5",
        "chainId": "0x440"
      },
      "additionalContracts": [],
      "isFixedGasLimit": false
    },
    {
      "hash": null,
      "transactionType": "CALL",
      "contractName": null,
      "contractAddress": "0x1f55a02a049033e3419a8e2975cf3f572f4e6e9a",
      "function": "send((uint32,bytes32,uint256,uint256,bytes,bytes,bytes),(uint256,uint256),address)",
      "arguments": [
        "(30260, 0x000000000000000000000000b0e1650a9760e0f383174af042091fc544b8356f, 100000000000000, 100000000000000, 0x0003, 0x, 0x)",
        "(10837928206729772, 0)",
        "0xb0E1650A9760e0f383174af042091fc544b8356f"
      ],
      "transaction": {
        "from": "0xb0e1650a9760e0f383174af042091fc544b8356f",
        "to": "0x1f55a02a049033e3419a8e2975cf3f572f4e6e9a",
        "gas": "0x65de0",
        "value": "0x268109ccdd022c",
        "input": "0xc7c7f5b3000000000000000000000000000000000000000000000000000000000000008000000000000000000000000000000000000000000000000000268109ccdd022c0000000000000000000000000000000000000000000000000000000000000000000000000000000000000000b0e1650a9760e0f383174af042091fc544b8356f0000000000000000000000000000000000000000000000000000000000007634000000000000000000000000b0e1650a9760e0f383174af042091fc544b8356f00000000000000000000000000000000000000000000000000005af3107a400000000000000000000000000000000000000000000000000000005af3107a400000000000000000000000000000000000000000000000000000000000000000e0000000000000000000000000000000000000000000000000000000000000012000000000000000000000000000000000000000000000000000000000000001400000000000000000000000000000000000000000000000000000000000000002000300000000000000000000000000000000000000000000000000000000000000000000000000000000000000000000000000000000000000000000000000000000000000000000000000000000000000000000000000000000000000000000",
        "nonce": "0x6",
        "chainId": "0x440"
      },
      "additionalContracts": [],
      "isFixedGasLimit": false
    },
    {
      "hash": null,
      "transactionType": "CALL",
      "contractName": null,
      "contractAddress": "0x909dbde1ebe906af95660033e478d59efe831fed",
      "function": "send((uint32,bytes32,uint256,uint256,bytes,bytes,bytes),(uint256,uint256),address)",
      "arguments": [
        "(30260, 0x000000000000000000000000b0e1650a9760e0f383174af042091fc544b8356f, 100000000000000, 100000000000000, 0x0003, 0x, 0x)",
        "(10837928206729772, 0)",
        "0xb0E1650A9760e0f383174af042091fc544b8356f"
      ],
      "transaction": {
        "from": "0xb0e1650a9760e0f383174af042091fc544b8356f",
        "to": "0x909dbde1ebe906af95660033e478d59efe831fed",
        "gas": "0x65de0",
        "value": "0x268109ccdd022c",
        "input": "0xc7c7f5b3000000000000000000000000000000000000000000000000000000000000008000000000000000000000000000000000000000000000000000268109ccdd022c0000000000000000000000000000000000000000000000000000000000000000000000000000000000000000b0e1650a9760e0f383174af042091fc544b8356f0000000000000000000000000000000000000000000000000000000000007634000000000000000000000000b0e1650a9760e0f383174af042091fc544b8356f00000000000000000000000000000000000000000000000000005af3107a400000000000000000000000000000000000000000000000000000005af3107a400000000000000000000000000000000000000000000000000000000000000000e0000000000000000000000000000000000000000000000000000000000000012000000000000000000000000000000000000000000000000000000000000001400000000000000000000000000000000000000000000000000000000000000002000300000000000000000000000000000000000000000000000000000000000000000000000000000000000000000000000000000000000000000000000000000000000000000000000000000000000000000000000000000000000000000000",
        "nonce": "0x7",
        "chainId": "0x440"
      },
      "additionalContracts": [],
      "isFixedGasLimit": false
    }
  ],
  "receipts": [],
  "libraries": [],
  "pending": [],
  "returns": {},
  "timestamp": 1719526128,
  "chain": 1088,
  "commit": "8c3a4d2"
}