{
  "transactions": [
    {
      "hash": "0xd64854c29181ef7a6687a2442b238c313c2207f9c7e54505bfbc5d28cdeda3ba",
      "transactionType": "CALL",
      "contractName": null,
      "contractAddress": "0xf010a7c8877043681d59ad125ebf575633505942",
      "function": "approve(address,uint256)",
      "arguments": [
        "0xF010a7c8877043681D59AD125EbF575633505942",
        "100000000000000"
      ],
      "transaction": {
        "from": "0xb0e1650a9760e0f383174af042091fc544b8356f",
        "to": "0xf010a7c8877043681d59ad125ebf575633505942",
        "gas": "0xfa57",
        "value": "0x0",
        "input": "0x095ea7b3000000000000000000000000f010a7c8877043681d59ad125ebf57563350594200000000000000000000000000000000000000000000000000005af3107a4000",
        "nonce": "0x9",
        "chainId": "0x440"
      },
      "additionalContracts": [],
      "isFixedGasLimit": false
    },
    {
      "hash": null,
      "transactionType": "CALL",
      "contractName": null,
      "contractAddress": "0xf010a7c8877043681d59ad125ebf575633505942",
      "function": "send((uint32,bytes32,uint256,uint256,bytes,bytes,bytes),(uint256,uint256),address)",
      "arguments": [
        "(30243, 0x000000000000000000000000b0e1650a9760e0f383174af042091fc544b8356f, 100000000000000, 100000000000000, 0x0003, 0x, 0x)",
        "(22069590194562921, 0)",
        "0xb0E1650A9760e0f383174af042091fc544b8356f"
      ],
      "transaction": {
        "from": "0xb0e1650a9760e0f383174af042091fc544b8356f",
        "to": "0xf010a7c8877043681d59ad125ebf575633505942",
        "gas": "0x6027b",
        "value": "0x4e682ce3e2a769",
        "input": "0xc7c7f5b30000000000000000000000000000000000000000000000000000000000000080000000000000000000000000000000000000000000000000004e682ce3e2a7690000000000000000000000000000000000000000000000000000000000000000000000000000000000000000b0e1650a9760e0f383174af042091fc544b8356f0000000000000000000000000000000000000000000000000000000000007623000000000000000000000000b0e1650a9760e0f383174af042091fc544b8356f00000000000000000000000000000000000000000000000000005af3107a400000000000000000000000000000000000000000000000000000005af3107a400000000000000000000000000000000000000000000000000000000000000000e0000000000000000000000000000000000000000000000000000000000000012000000000000000000000000000000000000000000000000000000000000001400000000000000000000000000000000000000000000000000000000000000002000300000000000000000000000000000000000000000000000000000000000000000000000000000000000000000000000000000000000000000000000000000000000000000000000000000000000000000000000000000000000000000000",
        "nonce": "0xa",
        "chainId": "0x440"
      },
      "additionalContracts": [],
      "isFixedGasLimit": false
    },
    {
      "hash": null,
      "transactionType": "CALL",
      "contractName": null,
      "contractAddress": "0xe41228a455700caf09e551805a8ab37caa39d08c",
      "function": "approve(address,uint256)",
      "arguments": [
        "0xE41228a455700cAF09E551805A8aB37caa39D08c",
        "100000000000000"
      ],
      "transaction": {
        "from": "0xb0e1650a9760e0f383174af042091fc544b8356f",
        "to": "0xe41228a455700caf09e551805a8ab37caa39d08c",
        "gas": "0xfa57",
        "value": "0x0",
        "input": "0x095ea7b3000000000000000000000000e41228a455700caf09e551805a8ab37caa39d08c00000000000000000000000000000000000000000000000000005af3107a4000",
        "nonce": "0xb",
        "chainId": "0x440"
      },
      "additionalContracts": [],
      "isFixedGasLimit": false
    },
    {
      "hash": null,
      "transactionType": "CALL",
      "contractName": null,
      "contractAddress": "0xe41228a455700caf09e551805a8ab37caa39d08c",
      "function": "send((uint32,bytes32,uint256,uint256,bytes,bytes,bytes),(uint256,uint256),address)",
      "arguments": [
        "(30243, 0x000000000000000000000000b0e1650a9760e0f383174af042091fc544b8356f, 100000000000000, 100000000000000, 0x0003, 0x, 0x)",
        "(22069590194562921, 0)",
        "0xb0E1650A9760e0f383174af042091fc544b8356f"
      ],
      "transaction": {
        "from": "0xb0e1650a9760e0f383174af042091fc544b8356f",
        "to": "0xe41228a455700caf09e551805a8ab37caa39d08c",
        "gas": "0x6027b",
        "value": "0x4e682ce3e2a769",
        "input": "0xc7c7f5b30000000000000000000000000000000000000000000000000000000000000080000000000000000000000000000000000000000000000000004e682ce3e2a7690000000000000000000000000000000000000000000000000000000000000000000000000000000000000000b0e1650a9760e0f383174af042091fc544b8356f0000000000000000000000000000000000000000000000000000000000007623000000000000000000000000b0e1650a9760e0f383174af042091fc544b8356f00000000000000000000000000000000000000000000000000005af3107a400000000000000000000000000000000000000000000000000000005af3107a400000000000000000000000000000000000000000000000000000000000000000e0000000000000000000000000000000000000000000000000000000000000012000000000000000000000000000000000000000000000000000000000000001400000000000000000000000000000000000000000000000000000000000000002000300000000000000000000000000000000000000000000000000000000000000000000000000000000000000000000000000000000000000000000000000000000000000000000000000000000000000000000000000000000000000000000",
        "nonce": "0xc",
        "chainId": "0x440"
      },
      "additionalContracts": [],
      "isFixedGasLimit": false
    },
    {
      "hash": null,
      "transactionType": "CALL",
      "contractName": null,
      "contractAddress": "0xf010a7c8877043681d59ad125ebf575633505942",
      "function": "send((uint32,bytes32,uint256,uint256,bytes,bytes,bytes),(uint256,uint256),address)",
      "arguments": [
        "(30184, 0x000000000000000000000000b0e1650a9760e0f383174af042091fc544b8356f, 100000000000000, 100000000000000, 0x0003, 0x, 0x)",
        "(12776316959435776, 0)",
        "0xb0E1650A9760e0f383174af042091fc544b8356f"
      ],
      "transaction": {
        "from": "0xb0e1650a9760e0f383174af042091fc544b8356f",
        "to": "0xf010a7c8877043681d59ad125ebf575633505942",
        "gas": "0x65cea",
        "value": "0x2d63fe19e7ac00",
        "input": "0xc7c7f5b30000000000000000000000000000000000000000000000000000000000000080000000000000000000000000000000000000000000000000002d63fe19e7ac000000000000000000000000000000000000000000000000000000000000000000000000000000000000000000b0e1650a9760e0f383174af042091fc544b8356f00000000000000000000000000000000000000000000000000000000000075e8000000000000000000000000b0e1650a9760e0f383174af042091fc544b8356f00000000000000000000000000000000000000000000000000005af3107a400000000000000000000000000000000000000000000000000000005af3107a400000000000000000000000000000000000000000000000000000000000000000e0000000000000000000000000000000000000000000000000000000000000012000000000000000000000000000000000000000000000000000000000000001400000000000000000000000000000000000000000000000000000000000000002000300000000000000000000000000000000000000000000000000000000000000000000000000000000000000000000000000000000000000000000000000000000000000000000000000000000000000000000000000000000000000000000",
        "nonce": "0xd",
        "chainId": "0x440"
      },
      "additionalContracts": [],
      "isFixedGasLimit": false
    },
    {
      "hash": null,
      "transactionType": "CALL",
      "contractName": null,
      "contractAddress": "0xe41228a455700caf09e551805a8ab37caa39d08c",
      "function": "send((uint32,bytes32,uint256,uint256,bytes,bytes,bytes),(uint256,uint256),address)",
      "arguments": [
        "(30184, 0x000000000000000000000000b0e1650a9760e0f383174af042091fc544b8356f, 100000000000000, 100000000000000, 0x0003, 0x, 0x)",
        "(12776316959435776, 0)",
        "0xb0E1650A9760e0f383174af042091fc544b8356f"
      ],
      "transaction": {
        "from": "0xb0e1650a9760e0f383174af042091fc544b8356f",
        "to": "0xe41228a455700caf09e551805a8ab37caa39d08c",
        "gas": "0x65cea",
        "value": "0x2d63fe19e7ac00",
        "input": "0xc7c7f5b30000000000000000000000000000000000000000000000000000000000000080000000000000000000000000000000000000000000000000002d63fe19e7ac000000000000000000000000000000000000000000000000000000000000000000000000000000000000000000b0e1650a9760e0f383174af042091fc544b8356f00000000000000000000000000000000000000000000000000000000000075e8000000000000000000000000b0e1650a9760e0f383174af042091fc544b8356f00000000000000000000000000000000000000000000000000005af3107a400000000000000000000000000000000000000000000000000000005af3107a400000000000000000000000000000000000000000000000000000000000000000e0000000000000000000000000000000000000000000000000000000000000012000000000000000000000000000000000000000000000000000000000000001400000000000000000000000000000000000000000000000000000000000000002000300000000000000000000000000000000000000000000000000000000000000000000000000000000000000000000000000000000000000000000000000000000000000000000000000000000000000000000000000000000000000000000",
        "nonce": "0xe",
        "chainId": "0x440"
      },
      "additionalContracts": [],
      "isFixedGasLimit": false
    },
    {
      "hash": null,
      "transactionType": "CALL",
      "contractName": null,
      "contractAddress": "0xf010a7c8877043681d59ad125ebf575633505942",
      "function": "send((uint32,bytes32,uint256,uint256,bytes,bytes,bytes),(uint256,uint256),address)",
      "arguments": [
        "(30260, 0x000000000000000000000000b0e1650a9760e0f383174af042091fc544b8356f, 100000000000000, 100000000000000, 0x0003, 0x, 0x)",
        "(12136651249978959, 0)",
        "0xb0E1650A9760e0f383174af042091fc544b8356f"
      ],
      "transaction": {
        "from": "0xb0e1650a9760e0f383174af042091fc544b8356f",
        "to": "0xf010a7c8877043681d59ad125ebf575633505942",
        "gas": "0x6027b",
        "value": "0x2b1e3852848e4f",
        "input": "0xc7c7f5b30000000000000000000000000000000000000000000000000000000000000080000000000000000000000000000000000000000000000000002b1e3852848e4f0000000000000000000000000000000000000000000000000000000000000000000000000000000000000000b0e1650a9760e0f383174af042091fc544b8356f0000000000000000000000000000000000000000000000000000000000007634000000000000000000000000b0e1650a9760e0f383174af042091fc544b8356f00000000000000000000000000000000000000000000000000005af3107a400000000000000000000000000000000000000000000000000000005af3107a400000000000000000000000000000000000000000000000000000000000000000e0000000000000000000000000000000000000000000000000000000000000012000000000000000000000000000000000000000000000000000000000000001400000000000000000000000000000000000000000000000000000000000000002000300000000000000000000000000000000000000000000000000000000000000000000000000000000000000000000000000000000000000000000000000000000000000000000000000000000000000000000000000000000000000000000",
        "nonce": "0xf",
        "chainId": "0x440"
      },
      "additionalContracts": [],
      "isFixedGasLimit": false
    },
    {
      "hash": null,
      "transactionType": "CALL",
      "contractName": null,
      "contractAddress": "0xe41228a455700caf09e551805a8ab37caa39d08c",
      "function": "send((uint32,bytes32,uint256,uint256,bytes,bytes,bytes),(uint256,uint256),address)",
      "arguments": [
        "(30260, 0x000000000000000000000000b0e1650a9760e0f383174af042091fc544b8356f, 100000000000000, 100000000000000, 0x0003, 0x, 0x)",
        "(12136651249978959, 0)",
        "0xb0E1650A9760e0f383174af042091fc544b8356f"
      ],
      "transaction": {
        "from": "0xb0e1650a9760e0f383174af042091fc544b8356f",
        "to": "0xe41228a455700caf09e551805a8ab37caa39d08c",
        "gas": "0x6027b",
        "value": "0x2b1e3852848e4f",
        "input": "0xc7c7f5b30000000000000000000000000000000000000000000000000000000000000080000000000000000000000000000000000000000000000000002b1e3852848e4f0000000000000000000000000000000000000000000000000000000000000000000000000000000000000000b0e1650a9760e0f383174af042091fc544b8356f0000000000000000000000000000000000000000000000000000000000007634000000000000000000000000b0e1650a9760e0f383174af042091fc544b8356f00000000000000000000000000000000000000000000000000005af3107a400000000000000000000000000000000000000000000000000000005af3107a400000000000000000000000000000000000000000000000000000000000000000e0000000000000000000000000000000000000000000000000000000000000012000000000000000000000000000000000000000000000000000000000000001400000000000000000000000000000000000000000000000000000000000000002000300000000000000000000000000000000000000000000000000000000000000000000000000000000000000000000000000000000000000000000000000000000000000000000000000000000000000000000000000000000000000000000",
        "nonce": "0x10",
        "chainId": "0x440"
      },
      "additionalContracts": [],
      "isFixedGasLimit": false
    }
  ],
  "receipts": [],
  "libraries": [],
  "pending": [],
  "returns": {},
  "timestamp": 1719933881,
  "chain": 1088,
  "commit": "52a2592"
}