{
  "transactions": [
    {
      "hash": "0x825b82011e7763f827b1e78e112def5f4dd780ddbd8cbff534e5ab45392a905c",
      "transactionType": "CALL",
      "contractName": null,
      "contractAddress": "0xf010a7c8877043681d59ad125ebf575633505942",
      "function": "send((uint32,bytes32,uint256,uint256,bytes,bytes,bytes),(uint256,uint256),address)",
      "arguments": [
        "(30243, 0x000000000000000000000000b0e1650a9760e0f383174af042091fc544b8356f, 100000000000000, 100000000000000, 0x0003, 0x, 0x)",
        "(22062610166111849, 0)",
        "0xb0E1650A9760e0f383174af042091fc544b8356f"
      ],
      "transaction": {
        "from": "0xb0e1650a9760e0f383174af042091fc544b8356f",
        "to": "0xf010a7c8877043681d59ad125ebf575633505942",
        "gas": "0x5fb4b",
        "value": "0x4e61d3b9c4de69",
        "input": "0xc7c7f5b30000000000000000000000000000000000000000000000000000000000000080000000000000000000000000000000000000000000000000004e61d3b9c4de690000000000000000000000000000000000000000000000000000000000000000000000000000000000000000b0e1650a9760e0f383174af042091fc544b8356f0000000000000000000000000000000000000000000000000000000000007623000000000000000000000000b0e1650a9760e0f383174af042091fc544b8356f00000000000000000000000000000000000000000000000000005af3107a400000000000000000000000000000000000000000000000000000005af3107a400000000000000000000000000000000000000000000000000000000000000000e0000000000000000000000000000000000000000000000000000000000000012000000000000000000000000000000000000000000000000000000000000001400000000000000000000000000000000000000000000000000000000000000002000300000000000000000000000000000000000000000000000000000000000000000000000000000000000000000000000000000000000000000000000000000000000000000000000000000000000000000000000000000000000000000000",
        "nonce": "0xc",
        "chainId": "0x440"
      },
      "additionalContracts": [],
      "isFixedGasLimit": false
    },
    {
      "hash": "0x4d45f7eae505b5ccf7d88d8c88edf183fdd84b804438c61bcbedb6b3b54d8bc7",
      "transactionType": "CALL",
      "contractName": null,
      "contractAddress": "0xe41228a455700caf09e551805a8ab37caa39d08c",
      "function": "approve(address,uint256)",
      "arguments": [
        "0xE41228a455700cAF09E551805A8aB37caa39D08c",
        "115792089237316195423570985008687907853269984665640564039457584007913129639935"
      ],
      "transaction": {
        "from": "0xb0e1650a9760e0f383174af042091fc544b8356f",
        "to": "0xe41228a455700caf09e551805a8ab37caa39d08c",
        "gas": "0x10aeb",
        "value": "0x0",
        "input": "0x095ea7b3000000000000000000000000e41228a455700caf09e551805a8ab37caa39d08cffffffffffffffffffffffffffffffffffffffffffffffffffffffffffffffff",
        "nonce": "0xd",
        "chainId": "0x440"
      },
      "additionalContracts": [],
      "isFixedGasLimit": false
    },
    {
      "hash": "0xc6897d44e9c17f39658cff343f8244e61c1951d972312ffffcbac254b6263b2c",
      "transactionType": "CALL",
      "contractName": null,
      "contractAddress": "0xe41228a455700caf09e551805a8ab37caa39d08c",
      "function": "send((uint32,bytes32,uint256,uint256,bytes,bytes,bytes),(uint256,uint256),address)",
      "arguments": [
        "(30243, 0x000000000000000000000000b0e1650a9760e0f383174af042091fc544b8356f, 100000000000000, 100000000000000, 0x0003, 0x, 0x)",
        "(22062610166111849, 0)",
        "0xb0E1650A9760e0f383174af042091fc544b8356f"
      ],
      "transaction": {
        "from": "0xb0e1650a9760e0f383174af042091fc544b8356f",
        "to": "0xe41228a455700caf09e551805a8ab37caa39d08c",
        "gas": "0x6027b",
        "value": "0x4e61d3b9c4de69",
        "input": "0xc7c7f5b30000000000000000000000000000000000000000000000000000000000000080000000000000000000000000000000000000000000000000004e61d3b9c4de690000000000000000000000000000000000000000000000000000000000000000000000000000000000000000b0e1650a9760e0f383174af042091fc544b8356f0000000000000000000000000000000000000000000000000000000000007623000000000000000000000000b0e1650a9760e0f383174af042091fc544b8356f00000000000000000000000000000000000000000000000000005af3107a400000000000000000000000000000000000000000000000000000005af3107a400000000000000000000000000000000000000000000000000000000000000000e0000000000000000000000000000000000000000000000000000000000000012000000000000000000000000000000000000000000000000000000000000001400000000000000000000000000000000000000000000000000000000000000002000300000000000000000000000000000000000000000000000000000000000000000000000000000000000000000000000000000000000000000000000000000000000000000000000000000000000000000000000000000000000000000000",
        "nonce": "0xe",
        "chainId": "0x440"
      },
      "additionalContracts": [],
      "isFixedGasLimit": false
    },
    {
      "hash": "0xf3f84a9bb4e56c52a23cf69b9cae4f5fc85b3630d6cf88d3f6a74d2156607fa7",
      "transactionType": "CALL",
      "contractName": null,
      "contractAddress": "0xf010a7c8877043681d59ad125ebf575633505942",
      "function": "send((uint32,bytes32,uint256,uint256,bytes,bytes,bytes),(uint256,uint256),address)",
      "arguments": [
        "(30184, 0x000000000000000000000000b0e1650a9760e0f383174af042091fc544b8356f, 100000000000000, 100000000000000, 0x0003, 0x, 0x)",
        "(12757550679746139, 0)",
        "0xb0E1650A9760e0f383174af042091fc544b8356f"
      ],
      "transaction": {
        "from": "0xb0e1650a9760e0f383174af042091fc544b8356f",
        "to": "0xf010a7c8877043681d59ad125ebf575633505942",
        "gas": "0x6027b",
        "value": "0x2d52ecbc78665b",
        "input": "0xc7c7f5b30000000000000000000000000000000000000000000000000000000000000080000000000000000000000000000000000000000000000000002d52ecbc78665b0000000000000000000000000000000000000000000000000000000000000000000000000000000000000000b0e1650a9760e0f383174af042091fc544b8356f00000000000000000000000000000000000000000000000000000000000075e8000000000000000000000000b0e1650a9760e0f383174af042091fc544b8356f00000000000000000000000000000000000000000000000000005af3107a400000000000000000000000000000000000000000000000000000005af3107a400000000000000000000000000000000000000000000000000000000000000000e0000000000000000000000000000000000000000000000000000000000000012000000000000000000000000000000000000000000000000000000000000001400000000000000000000000000000000000000000000000000000000000000002000300000000000000000000000000000000000000000000000000000000000000000000000000000000000000000000000000000000000000000000000000000000000000000000000000000000000000000000000000000000000000000000",
        "nonce": "0xf",
        "chainId": "0x440"
      },
      "additionalContracts": [],
      "isFixedGasLimit": false
    },
    {
      "hash": "0x3a20043b68fd7459c91d5e99a0f99c497f6578e08519e4c8ffd229af4752b5a2",
      "transactionType": "CALL",
      "contractName": null,
      "contractAddress": "0xe41228a455700caf09e551805a8ab37caa39d08c",
      "function": "send((uint32,bytes32,uint256,uint256,bytes,bytes,bytes),(uint256,uint256),address)",
      "arguments": [
        "(30184, 0x000000000000000000000000b0e1650a9760e0f383174af042091fc544b8356f, 100000000000000, 100000000000000, 0x0003, 0x, 0x)",
        "(12757550679746139, 0)",
        "0xb0E1650A9760e0f383174af042091fc544b8356f"
      ],
      "transaction": {
        "from": "0xb0e1650a9760e0f383174af042091fc544b8356f",
        "to": "0xe41228a455700caf09e551805a8ab37caa39d08c",
        "gas": "0x6027b",
        "value": "0x2d52ecbc78665b",
        "input": "0xc7c7f5b30000000000000000000000000000000000000000000000000000000000000080000000000000000000000000000000000000000000000000002d52ecbc78665b0000000000000000000000000000000000000000000000000000000000000000000000000000000000000000b0e1650a9760e0f383174af042091fc544b8356f00000000000000000000000000000000000000000000000000000000000075e8000000000000000000000000b0e1650a9760e0f383174af042091fc544b8356f00000000000000000000000000000000000000000000000000005af3107a400000000000000000000000000000000000000000000000000000005af3107a400000000000000000000000000000000000000000000000000000000000000000e0000000000000000000000000000000000000000000000000000000000000012000000000000000000000000000000000000000000000000000000000000001400000000000000000000000000000000000000000000000000000000000000002000300000000000000000000000000000000000000000000000000000000000000000000000000000000000000000000000000000000000000000000000000000000000000000000000000000000000000000000000000000000000000000000",
        "nonce": "0x10",
        "chainId": "0x440"
      },
      "additionalContracts": [],
      "isFixedGasLimit": false
    },
    {
      "hash": "0xd6878d3eb025f383977aa5a4ad0521801b02f4d784a50590447a524b8b1d7f8f",
      "transactionType": "CALL",
      "contractName": null,
      "contractAddress": "0xf010a7c8877043681d59ad125ebf575633505942",
      "function": "send((uint32,bytes32,uint256,uint256,bytes,bytes,bytes),(uint256,uint256),address)",
      "arguments": [
        "(30260, 0x000000000000000000000000b0e1650a9760e0f383174af042091fc544b8356f, 100000000000000, 100000000000000, 0x0003, 0x, 0x)",
        "(12136651249978959, 0)",
        "0xb0E1650A9760e0f383174af042091fc544b8356f"
      ],
      "transaction": {
        "from": "0xb0e1650a9760e0f383174af042091fc544b8356f",
        "to": "0xf010a7c8877043681d59ad125ebf575633505942",
        "gas": "0x6027b",
        "value": "0x2b1e3852848e4f",
        "input": "0xc7c7f5b30000000000000000000000000000000000000000000000000000000000000080000000000000000000000000000000000000000000000000002b1e3852848e4f0000000000000000000000000000000000000000000000000000000000000000000000000000000000000000b0e1650a9760e0f383174af042091fc544b8356f0000000000000000000000000000000000000000000000000000000000007634000000000000000000000000b0e1650a9760e0f383174af042091fc544b8356f00000000000000000000000000000000000000000000000000005af3107a400000000000000000000000000000000000000000000000000000005af3107a400000000000000000000000000000000000000000000000000000000000000000e0000000000000000000000000000000000000000000000000000000000000012000000000000000000000000000000000000000000000000000000000000001400000000000000000000000000000000000000000000000000000000000000002000300000000000000000000000000000000000000000000000000000000000000000000000000000000000000000000000000000000000000000000000000000000000000000000000000000000000000000000000000000000000000000000",
        "nonce": "0x11",
        "chainId": "0x440"
      },
      "additionalContracts": [],
      "isFixedGasLimit": false
    },
    {
      "hash": "0x35404753fa6324aa6f88a1d82e2e56ccddbaa2515c5c795dfc4f27402067db1a",
      "transactionType": "CALL",
      "contractName": null,
      "contractAddress": "0xe41228a455700caf09e551805a8ab37caa39d08c",
      "function": "send((uint32,bytes32,uint256,uint256,bytes,bytes,bytes),(uint256,uint256),address)",
      "arguments": [
        "(30260, 0x000000000000000000000000b0e1650a9760e0f383174af042091fc544b8356f, 100000000000000, 100000000000000, 0x0003, 0x, 0x)",
        "(12136651249978959, 0)",
        "0xb0E1650A9760e0f383174af042091fc544b8356f"
      ],
      "transaction": {
        "from": "0xb0e1650a9760e0f383174af042091fc544b8356f",
        "to": "0xe41228a455700caf09e551805a8ab37caa39d08c",
        "gas": "0x6027b",
        "value": "0x2b1e3852848e4f",
        "input": "0xc7c7f5b30000000000000000000000000000000000000000000000000000000000000080000000000000000000000000000000000000000000000000002b1e3852848e4f0000000000000000000000000000000000000000000000000000000000000000000000000000000000000000b0e1650a9760e0f383174af042091fc544b8356f0000000000000000000000000000000000000000000000000000000000007634000000000000000000000000b0e1650a9760e0f383174af042091fc544b8356f00000000000000000000000000000000000000000000000000005af3107a400000000000000000000000000000000000000000000000000000005af3107a400000000000000000000000000000000000000000000000000000000000000000e0000000000000000000000000000000000000000000000000000000000000012000000000000000000000000000000000000000000000000000000000000001400000000000000000000000000000000000000000000000000000000000000002000300000000000000000000000000000000000000000000000000000000000000000000000000000000000000000000000000000000000000000000000000000000000000000000000000000000000000000000000000000000000000000000",
        "nonce": "0x12",
        "chainId": "0x440"
      },
      "additionalContracts": [],
      "isFixedGasLimit": false
    }
  ],
  "receipts": [],
  "libraries": [],
  "pending": [],
  "returns": {},
  "timestamp": 1719934014,
  "chain": 1088,
  "commit": "52a2592"
}