{
  "transactions": [
    {
      "hash": "0xd4c7e2741ba2d1a3d5094ba1093d9253242b050486b326141345e0fdb565b8ed",
      "transactionType": "CALL",
      "contractName": null,
      "contractAddress": "0xe93cb38f97469eac2f284a87813d0d701b28e58e",
      "function": "setExecutorOptions(uint32,bytes)",
      "arguments": [
        "30168",
        "0x0100210100000000000000000000000000030d40000000000000000000000000002dc6c0"
      ],
      "transaction": {
        "from": "0xb0e1650a9760e0f383174af042091fc544b8356f",
        "to": "0xe93cb38f97469eac2f284a87813d0d701b28e58e",
        "gas": "0x1f32f",
        "value": "0x0",
        "input": "0x5135db4600000000000000000000000000000000000000000000000000000000000075d8000000000000000000000000000000000000000000000000000000000000004000000000000000000000000000000000000000000000000000000000000000240100210100000000000000000000000000030d40000000000000000000000000002dc6c000000000000000000000000000000000000000000000000000000000",
        "nonce": "0x3d",
        "chainId": "0x13e31"
      },
      "additionalContracts": [],
      "isFixedGasLimit": false
    }
  ],
  "receipts": [
    {
      "status": "0x1",
      "cumulativeGasUsed": "0x135261",
      "logs": [],
      "logsBloom": "0x00000000000000000000000000000000000000000000000000000000000000000000000000000000000000000000000000000000000000000000000000000000000000000000000000000000000000000000000000000000000000000000000000000000000000000000000000000000000000000000000000000000000000000000000000000000000000000000000000000000000000000000000000000000000000000000000000000000000000000000000000000000000000000000000000000000000000000000000000000000000000000000000000000000000000000000000000000000000000000000000000000000000000000000000000000000",
      "type": "0x2",
      "transactionHash": "0xd4c7e2741ba2d1a3d5094ba1093d9253242b050486b326141345e0fdb565b8ed",
      "transactionIndex": "0x5",
      "blockHash": "0xb5eecfb8700fb9442c9753309d9593443dfdefac170df9cb439d4e45dbd4752a",
      "blockNumber": "0x18e1922",
      "gasUsed": "0x16967",
      "effectiveGasPrice": "0x161",
      "from": "0xb0e1650a9760e0f383174af042091fc544b8356f",
      "to": "0xe93cb38f97469eac2f284a87813d0d701b28e58e",
      "contractAddress": null,
      "l1Fee": "0x1282f3a4",
      "l1GasPrice": "0x6766e1e",
      "l1GasUsed": "0xa2c"
    }
  ],
  "libraries": [],
  "pending": [],
  "returns": {},
  "timestamp": 1760989309072,
  "chain": 81457,
  "commit": "65ffb7b"
}