{
  "transactions": [
    {
      "hash": "0x02c30a734b620398ed56304cb9751f36bba3fdb152775ae8772c47ceeb641d3a",
      "transactionType": "CALL",
      "contractName": null,
      "contractAddress": "0x29acc7c504665a5ea95344796f784095f0cfcc58",
      "function": "setEnforcedOptions((uint32,uint16,bytes)[])",
      "arguments": [
        "[(30255, 1, 0x00030100110100000000000000000000000000030d40), (30255, 2, 0x0003010011010000000000000000000000000003d090)]"
      ],
      "transaction": {
        "from": "0x0990be6db8c785fbbf9ded8baec612a10cae814b",
        "to": "0x29acc7c504665a5ea95344796f784095f0cfcc58",
        "gas": "0xf4240",
        "value": "0x0",
        "input": "0xb98bd07000000000000000000000000000000000000000000000000000000000000000200000000000000000000000000000000000000000000000000000000000000002000000000000000000000000000000000000000000000000000000000000004000000000000000000000000000000000000000000000000000000000000000e0000000000000000000000000000000000000000000000000000000000000762f00000000000000000000000000000000000000000000000000000000000000010000000000000000000000000000000000000000000000000000000000000060000000000000000000000000000000000000000000000000000000000000001600030100110100000000000000000000000000030d4000000000000000000000000000000000000000000000000000000000000000000000000000000000762f0000000000000000000000000000000000000000000000000000000000000002000000000000000000000000000000000000000000000000000000000000006000000000000000000000000000000000000000000000000000000000000000160003010011010000000000000000000000000003d09000000000000000000000",
        "nonce": "0x1",
        "chainId": "0x8f"
      },
      "additionalContracts": [],
      "isFixedGasLimit": true
    },
    {
      "hash": "0x7f945e73878ec257630b54aec32a50e1ef3c82c03cb2140e3acb66e5d436876f",
      "transactionType": "CALL",
      "contractName": null,
      "contractAddress": "0x137643f7b2c189173867b3391f6629cab46f0f1a",
      "function": "setEnforcedOptions((uint32,uint16,bytes)[])",
      "arguments": [
        "[(30255, 1, 0x00030100110100000000000000000000000000030d40), (30255, 2, 0x0003010011010000000000000000000000000003d090)]"
      ],
      "transaction": {
        "from": "0x0990be6db8c785fbbf9ded8baec612a10cae814b",
        "to": "0x137643f7b2c189173867b3391f6629cab46f0f1a",
        "gas": "0xf4240",
        "value": "0x0",
        "input": "0xb98bd07000000000000000000000000000000000000000000000000000000000000000200000000000000000000000000000000000000000000000000000000000000002000000000000000000000000000000000000000000000000000000000000004000000000000000000000000000000000000000000000000000000000000000e0000000000000000000000000000000000000000000000000000000000000762f00000000000000000000000000000000000000000000000000000000000000010000000000000000000000000000000000000000000000000000000000000060000000000000000000000000000000000000000000000000000000000000001600030100110100000000000000000000000000030d4000000000000000000000000000000000000000000000000000000000000000000000000000000000762f0000000000000000000000000000000000000000000000000000000000000002000000000000000000000000000000000000000000000000000000000000006000000000000000000000000000000000000000000000000000000000000000160003010011010000000000000000000000000003d09000000000000000000000",
        "nonce": "0x2",
        "chainId": "0x8f"
      },
      "additionalContracts": [],
      "isFixedGasLimit": true
    },
    {
      "hash": "0xc97163f9e08d5fb3064b4ec07e15d124092f1b79da1e08b4d9ca710954805264",
      "transactionType": "CALL",
      "contractName": null,
      "contractAddress": "0x3b4cf37a3335f21c945a40088404c715525fcb29",
      "function": "setEnforcedOptions((uint32,uint16,bytes)[])",
      "arguments": [
        "[(30255, 1, 0x00030100110100000000000000000000000000030d40), (30255, 2, 0x0003010011010000000000000000000000000003d090)]"
      ],
      "transaction": {
        "from": "0x0990be6db8c785fbbf9ded8baec612a10cae814b",
        "to": "0x3b4cf37a3335f21c945a40088404c715525fcb29",
        "gas": "0xf4240",
        "value": "0x0",
        "input": "0xb98bd07000000000000000000000000000000000000000000000000000000000000000200000000000000000000000000000000000000000000000000000000000000002000000000000000000000000000000000000000000000000000000000000004000000000000000000000000000000000000000000000000000000000000000e0000000000000000000000000000000000000000000000000000000000000762f00000000000000000000000000000000000000000000000000000000000000010000000000000000000000000000000000000000000000000000000000000060000000000000000000000000000000000000000000000000000000000000001600030100110100000000000000000000000000030d4000000000000000000000000000000000000000000000000000000000000000000000000000000000762f0000000000000000000000000000000000000000000000000000000000000002000000000000000000000000000000000000000000000000000000000000006000000000000000000000000000000000000000000000000000000000000000160003010011010000000000000000000000000003d09000000000000000000000",
        "nonce": "0x3",
        "chainId": "0x8f"
      },
      "additionalContracts": [],
      "isFixedGasLimit": true
    },
    {
      "hash": "0x483cbd926cd76e09c70d6354e22772c074abce33aedfca64421efb1d52d801b1",
      "transactionType": "CALL",
      "contractName": null,
      "contractAddress": "0x58e3ee6accd124642ddb5d3f91928816be8d8ed3",
      "function": "setEnforcedOptions((uint32,uint16,bytes)[])",
      "arguments": [
        "[(30255, 1, 0x00030100110100000000000000000000000000030d40), (30255, 2, 0x0003010011010000000000000000000000000003d090)]"
      ],
      "transaction": {
        "from": "0x0990be6db8c785fbbf9ded8baec612a10cae814b",
        "to": "0x58e3ee6accd124642ddb5d3f91928816be8d8ed3",
        "gas": "0xf4240",
        "value": "0x0",
        "input": "0xb98bd07000000000000000000000000000000000000000000000000000000000000000200000000000000000000000000000000000000000000000000000000000000002000000000000000000000000000000000000000000000000000000000000004000000000000000000000000000000000000000000000000000000000000000e0000000000000000000000000000000000000000000000000000000000000762f00000000000000000000000000000000000000000000000000000000000000010000000000000000000000000000000000000000000000000000000000000060000000000000000000000000000000000000000000000000000000000000001600030100110100000000000000000000000000030d4000000000000000000000000000000000000000000000000000000000000000000000000000000000762f0000000000000000000000000000000000000000000000000000000000000002000000000000000000000000000000000000000000000000000000000000006000000000000000000000000000000000000000000000000000000000000000160003010011010000000000000000000000000003d09000000000000000000000",
        "nonce": "0x4",
        "chainId": "0x8f"
      },
      "additionalContracts": [],
      "isFixedGasLimit": true
    },
    {
      "hash": "0x01f9c996930a8efc23f0545530045a36d1a989c2e274c82a04fe79286c58021a",
      "transactionType": "CALL",
      "contractName": null,
      "contractAddress": "0x288f9d76019469bfeb56bb77d86afa2bf563b75b",
      "function": "setEnforcedOptions((uint32,uint16,bytes)[])",
      "arguments": [
        "[(30255, 1, 0x00030100110100000000000000000000000000030d40), (30255, 2, 0x0003010011010000000000000000000000000003d090)]"
      ],
      "transaction": {
        "from": "0x0990be6db8c785fbbf9ded8baec612a10cae814b",
        "to": "0x288f9d76019469bfeb56bb77d86afa2bf563b75b",
        "gas": "0xf4240",
        "value": "0x0",
        "input": "0xb98bd07000000000000000000000000000000000000000000000000000000000000000200000000000000000000000000000000000000000000000000000000000000002000000000000000000000000000000000000000000000000000000000000004000000000000000000000000000000000000000000000000000000000000000e0000000000000000000000000000000000000000000000000000000000000762f00000000000000000000000000000000000000000000000000000000000000010000000000000000000000000000000000000000000000000000000000000060000000000000000000000000000000000000000000000000000000000000001600030100110100000000000000000000000000030d4000000000000000000000000000000000000000000000000000000000000000000000000000000000762f0000000000000000000000000000000000000000000000000000000000000002000000000000000000000000000000000000000000000000000000000000006000000000000000000000000000000000000000000000000000000000000000160003010011010000000000000000000000000003d09000000000000000000000",
        "nonce": "0x5",
        "chainId": "0x8f"
      },
      "additionalContracts": [],
      "isFixedGasLimit": true
    },
    {
      "hash": "0x99868514a4971786c72ab9e9b032115338cfcc4b7193a40f6793fa2bce3cfed8",
      "transactionType": "CALL",
      "contractName": null,
      "contractAddress": "0xba554f7a47f0792b9fa41a1256d4cf628bb1d028",
      "function": "setEnforcedOptions((uint32,uint16,bytes)[])",
      "arguments": [
        "[(30255, 1, 0x00030100110100000000000000000000000000030d40), (30255, 2, 0x0003010011010000000000000000000000000003d090)]"
      ],
      "transaction": {
        "from": "0x0990be6db8c785fbbf9ded8baec612a10cae814b",
        "to": "0xba554f7a47f0792b9fa41a1256d4cf628bb1d028",
        "gas": "0xf4240",
        "value": "0x0",
        "input": "0xb98bd07000000000000000000000000000000000000000000000000000000000000000200000000000000000000000000000000000000000000000000000000000000002000000000000000000000000000000000000000000000000000000000000004000000000000000000000000000000000000000000000000000000000000000e0000000000000000000000000000000000000000000000000000000000000762f00000000000000000000000000000000000000000000000000000000000000010000000000000000000000000000000000000000000000000000000000000060000000000000000000000000000000000000000000000000000000000000001600030100110100000000000000000000000000030d4000000000000000000000000000000000000000000000000000000000000000000000000000000000762f0000000000000000000000000000000000000000000000000000000000000002000000000000000000000000000000000000000000000000000000000000006000000000000000000000000000000000000000000000000000000000000000160003010011010000000000000000000000000003d09000000000000000000000",
        "nonce": "0x6",
        "chainId": "0x8f"
      },
      "additionalContracts": [],
      "isFixedGasLimit": true
    },
    {
      "hash": "0x6fc27a16ef9e810778e9a67cab4fd1805f79ec64397ebef86835e98dbaf1f952",
      "transactionType": "CALL",
      "contractName": null,
      "contractAddress": "0x29acc7c504665a5ea95344796f784095f0cfcc58",
      "function": "setPeer(uint32,bytes32)",
      "arguments": [
        "30255",
        "0x000000000000000000000000d86fbbd0c8715d2c1f40e451e5c3514e65e7576a"
      ],
      "transaction": {
        "from": "0x0990be6db8c785fbbf9ded8baec612a10cae814b",
        "to": "0x29acc7c504665a5ea95344796f784095f0cfcc58",
        "gas": "0xf4240",
        "value": "0x0",
        "input": "0x3400288b000000000000000000000000000000000000000000000000000000000000762f000000000000000000000000d86fbbd0c8715d2c1f40e451e5c3514e65e7576a",
        "nonce": "0x7",
        "chainId": "0x8f"
      },
      "additionalContracts": [],
      "isFixedGasLimit": true
    },
    {
      "hash": "0xede6d23e5987677504db00c9fff24f8bce52dac421cbeef6be21da4861ca03ec",
      "transactionType": "CALL",
      "contractName": null,
      "contractAddress": "0x137643f7b2c189173867b3391f6629cab46f0f1a",
      "function": "setPeer(uint32,bytes32)",
      "arguments": [
        "30255",
        "0x00000000000000000000000088aa7854d3b2daa5e37e7ce73a1f39669623a361"
      ],
      "transaction": {
        "from": "0x0990be6db8c785fbbf9ded8baec612a10cae814b",
        "to": "0x137643f7b2c189173867b3391f6629cab46f0f1a",
        "gas": "0xf4240",
        "value": "0x0",
        "input": "0x3400288b000000000000000000000000000000000000000000000000000000000000762f00000000000000000000000088aa7854d3b2daa5e37e7ce73a1f39669623a361",
        "nonce": "0x8",
        "chainId": "0x8f"
      },
      "additionalContracts": [],
      "isFixedGasLimit": true
    },
    {
      "hash": "0xdcf73ad44a1ed2351a12684f75448ec47d6aac5868e033c76e360d923edaf959",
      "transactionType": "CALL",
      "contractName": null,
      "contractAddress": "0x3b4cf37a3335f21c945a40088404c715525fcb29",
      "function": "setPeer(uint32,bytes32)",
      "arguments": [
        "30255",
        "0x000000000000000000000000999dfabe3b1cc2ef66eb032eea42fea329bba168"
      ],
      "transaction": {
        "from": "0x0990be6db8c785fbbf9ded8baec612a10cae814b",
        "to": "0x3b4cf37a3335f21c945a40088404c715525fcb29",
        "gas": "0xf4240",
        "value": "0x0",
        "input": "0x3400288b000000000000000000000000000000000000000000000000000000000000762f000000000000000000000000999dfabe3b1cc2ef66eb032eea42fea329bba168",
        "nonce": "0x9",
        "chainId": "0x8f"
      },
      "additionalContracts": [],
      "isFixedGasLimit": true
    },
    {
      "hash": "0xf083040fbb012d2574d43b6ff8d191f1151b3099dd5365ae89c0181826645a54",
      "transactionType": "CALL",
      "contractName": null,
      "contractAddress": "0x58e3ee6accd124642ddb5d3f91928816be8d8ed3",
      "function": "setPeer(uint32,bytes32)",
      "arguments": [
        "30255",
        "0x00000000000000000000000096a394058e2b84a89bac9667b19661ed003cf5d4"
      ],
      "transaction": {
        "from": "0x0990be6db8c785fbbf9ded8baec612a10cae814b",
        "to": "0x58e3ee6accd124642ddb5d3f91928816be8d8ed3",
        "gas": "0xf4240",
        "value": "0x0",
        "input": "0x3400288b000000000000000000000000000000000000000000000000000000000000762f00000000000000000000000096a394058e2b84a89bac9667b19661ed003cf5d4",
        "nonce": "0xa",
        "chainId": "0x8f"
      },
      "additionalContracts": [],
      "isFixedGasLimit": true
    },
    {
      "hash": "0x5f116aaf838ecb6a3494722f1d01427040ba8c0c396eb548ae31347f305a5e67",
      "transactionType": "CALL",
      "contractName": null,
      "contractAddress": "0x288f9d76019469bfeb56bb77d86afa2bf563b75b",
      "function": "setPeer(uint32,bytes32)",
      "arguments": [
        "30255",
        "0x0000000000000000000000009abfe1f8a999b0011ecd6116649aee8d575f5604"
      ],
      "transaction": {
        "from": "0x0990be6db8c785fbbf9ded8baec612a10cae814b",
        "to": "0x288f9d76019469bfeb56bb77d86afa2bf563b75b",
        "gas": "0xf4240",
        "value": "0x0",
        "input": "0x3400288b000000000000000000000000000000000000000000000000000000000000762f0000000000000000000000009abfe1f8a999b0011ecd6116649aee8d575f5604",
        "nonce": "0xb",
        "chainId": "0x8f"
      },
      "additionalContracts": [],
      "isFixedGasLimit": true
    },
    {
      "hash": "0xe995665cb90e8b4bb83da8c6bfacf41926899a47340aa73947f0e8fc4f8334fd",
      "transactionType": "CALL",
      "contractName": null,
      "contractAddress": "0xba554f7a47f0792b9fa41a1256d4cf628bb1d028",
      "function": "setPeer(uint32,bytes32)",
      "arguments": [
        "30255",
        "0x00000000000000000000000075c38d46001b0f8108c4136216bd2694982c20fc"
      ],
      "transaction": {
        "from": "0x0990be6db8c785fbbf9ded8baec612a10cae814b",
        "to": "0xba554f7a47f0792b9fa41a1256d4cf628bb1d028",
        "gas": "0xf4240",
        "value": "0x0",
        "input": "0x3400288b000000000000000000000000000000000000000000000000000000000000762f00000000000000000000000075c38d46001b0f8108c4136216bd2694982c20fc",
        "nonce": "0xc",
        "chainId": "0x8f"
      },
      "additionalContracts": [],
      "isFixedGasLimit": true
    },
    {
      "hash": "0x357ca69813b39e8d4d67692b0c37cf33bc386bd7c60413e9a8ef65f101d99a25",
      "transactionType": "CALL",
      "contractName": null,
      "contractAddress": "0x6f475642a6e85809b1c36fa62763669b1b48dd5b",
      "function": "setConfig(address,address,(uint32,uint32,bytes)[])",
      "arguments": [
        "0x29aCC7c504665A5EA95344796f784095f0cfcC58",
        "0xC39161c743D0307EB9BCc9FEF03eeb9Dc4802de7",
        "[(30255, 2, 0x0000000000000000000000000000000000000000000000000000000000000020000000000000000000000000000000000000000000000000000000000000000000000000000000000000000000000000000000000000000000000000000000030000000000000000000000000000000000000000000000000000000000000000000000000000000000000000000000000000000000000000000000000000000000000000000000000000000000000000000000000000000000000000000000c000000000000000000000000000000000000000000000000000000000000001400000000000000000000000000000000000000000000000000000000000000003000000000000000000000000282b3386571f7f794450d5789911a9804fa346b40000000000000000000000005ec52fb644072247c3264f0ac3db981cdebe3eca000000000000000000000000dcdd4628f858b45260c31d6ad076bd2c3d3c2f730000000000000000000000000000000000000000000000000000000000000000)]"
      ],
      "transaction": {
        "from": "0x0990be6db8c785fbbf9ded8baec612a10cae814b",
        "to": "0x6f475642a6e85809b1c36fa62763669b1b48dd5b",
        "gas": "0x36d34",
        "value": "0x0",
        "input": "0x6dbd9f9000000000000000000000000029acc7c504665a5ea95344796f784095f0cfcc58000000000000000000000000c39161c743d0307eb9bcc9fef03eeb9dc4802de7000000000000000000000000000000000000000000000000000000000000006000000000000000000000000000000000000000000000000000000000000000010000000000000000000000000000000000000000000000000000000000000020000000000000000000000000000000000000000000000000000000000000762f0000000000000000000000000000000000000000000000000000000000000002000000000000000000000000000000000000000000000000000000000000006000000000000000000000000000000000000000000000000000000000000001800000000000000000000000000000000000000000000000000000000000000020000000000000000000000000000000000000000000000000000000000000000000000000000000000000000000000000000000000000000000000000000000030000000000000000000000000000000000000000000000000000000000000000000000000000000000000000000000000000000000000000000000000000000000000000000000000000000000000000000000000000000000000000000000c000000000000000000000000000000000000000000000000000000000000001400000000000000000000000000000000000000000000000000000000000000003000000000000000000000000282b3386571f7f794450d5789911a9804fa346b40000000000000000000000005ec52fb644072247c3264f0ac3db981cdebe3eca000000000000000000000000dcdd4628f858b45260c31d6ad076bd2c3d3c2f730000000000000000000000000000000000000000000000000000000000000000",
        "nonce": "0xd",
        "chainId": "0x8f"
      },
      "additionalContracts": [],
      "isFixedGasLimit": false
    },
    {
      "hash": null,
      "transactionType": "CALL",
      "contractName": null,
      "contractAddress": "0x6f475642a6e85809b1c36fa62763669b1b48dd5b",
      "function": "setConfig(address,address,(uint32,uint32,bytes)[])",
      "arguments": [
        "0x29aCC7c504665A5EA95344796f784095f0cfcC58",
        "0xe1844c5D63a9543023008D332Bd3d2e6f1FE1043",
        "[(30255, 2, 0x0000000000000000000000000000000000000000000000000000000000000020000000000000000000000000000000000000000000000000000000000000000000000000000000000000000000000000000000000000000000000000000000030000000000000000000000000000000000000000000000000000000000000000000000000000000000000000000000000000000000000000000000000000000000000000000000000000000000000000000000000000000000000000000000c000000000000000000000000000000000000000000000000000000000000001400000000000000000000000000000000000000000000000000000000000000003000000000000000000000000282b3386571f7f794450d5789911a9804fa346b40000000000000000000000005ec52fb644072247c3264f0ac3db981cdebe3eca000000000000000000000000dcdd4628f858b45260c31d6ad076bd2c3d3c2f730000000000000000000000000000000000000000000000000000000000000000)]"
      ],
      "transaction": {
        "from": "0x0990be6db8c785fbbf9ded8baec612a10cae814b",
        "to": "0x6f475642a6e85809b1c36fa62763669b1b48dd5b",
        "gas": "0x39f54",
        "value": "0x0",
        "input": "0x6dbd9f9000000000000000000000000029acc7c504665a5ea95344796f784095f0cfcc58000000000000000000000000e1844c5d63a9543023008d332bd3d2e6f1fe1043000000000000000000000000000000000000000000000000000000000000006000000000000000000000000000000000000000000000000000000000000000010000000000000000000000000000000000000000000000000000000000000020000000000000000000000000000000000000000000000000000000000000762f0000000000000000000000000000000000000000000000000000000000000002000000000000000000000000000000000000000000000000000000000000006000000000000000000000000000000000000000000000000000000000000001800000000000000000000000000000000000000000000000000000000000000020000000000000000000000000000000000000000000000000000000000000000000000000000000000000000000000000000000000000000000000000000000030000000000000000000000000000000000000000000000000000000000000000000000000000000000000000000000000000000000000000000000000000000000000000000000000000000000000000000000000000000000000000000000c000000000000000000000000000000000000000000000000000000000000001400000000000000000000000000000000000000000000000000000000000000003000000000000000000000000282b3386571f7f794450d5789911a9804fa346b40000000000000000000000005ec52fb644072247c3264f0ac3db981cdebe3eca000000000000000000000000dcdd4628f858b45260c31d6ad076bd2c3d3c2f730000000000000000000000000000000000000000000000000000000000000000",
        "nonce": "0xe",
        "chainId": "0x8f"
      },
      "additionalContracts": [],
      "isFixedGasLimit": false
    },
    {
      "hash": null,
      "transactionType": "CALL",
      "contractName": null,
      "contractAddress": "0x6f475642a6e85809b1c36fa62763669b1b48dd5b",
      "function": "setConfig(address,address,(uint32,uint32,bytes)[])",
      "arguments": [
        "0x137643F7b2C189173867b3391f6629caB46F0F1a",
        "0xC39161c743D0307EB9BCc9FEF03eeb9Dc4802de7",
        "[(30255, 2, 0x0000000000000000000000000000000000000000000000000000000000000020000000000000000000000000000000000000000000000000000000000000000000000000000000000000000000000000000000000000000000000000000000030000000000000000000000000000000000000000000000000000000000000000000000000000000000000000000000000000000000000000000000000000000000000000000000000000000000000000000000000000000000000000000000c000000000000000000000000000000000000000000000000000000000000001400000000000000000000000000000000000000000000000000000000000000003000000000000000000000000282b3386571f7f794450d5789911a9804fa346b40000000000000000000000005ec52fb644072247c3264f0ac3db981cdebe3eca000000000000000000000000dcdd4628f858b45260c31d6ad076bd2c3d3c2f730000000000000000000000000000000000000000000000000000000000000000)]"
      ],
      "transaction": {
        "from": "0x0990be6db8c785fbbf9ded8baec612a10cae814b",
        "to": "0x6f475642a6e85809b1c36fa62763669b1b48dd5b",
        "gas": "0x36d34",
        "value": "0x0",
        "input": "0x6dbd9f90000000000000000000000000137643f7b2c189173867b3391f6629cab46f0f1a000000000000000000000000c39161c743d0307eb9bcc9fef03eeb9dc4802de7000000000000000000000000000000000000000000000000000000000000006000000000000000000000000000000000000000000000000000000000000000010000000000000000000000000000000000000000000000000000000000000020000000000000000000000000000000000000000000000000000000000000762f0000000000000000000000000000000000000000000000000000000000000002000000000000000000000000000000000000000000000000000000000000006000000000000000000000000000000000000000000000000000000000000001800000000000000000000000000000000000000000000000000000000000000020000000000000000000000000000000000000000000000000000000000000000000000000000000000000000000000000000000000000000000000000000000030000000000000000000000000000000000000000000000000000000000000000000000000000000000000000000000000000000000000000000000000000000000000000000000000000000000000000000000000000000000000000000000c000000000000000000000000000000000000000000000000000000000000001400000000000000000000000000000000000000000000000000000000000000003000000000000000000000000282b3386571f7f794450d5789911a9804fa346b40000000000000000000000005ec52fb644072247c3264f0ac3db981cdebe3eca000000000000000000000000dcdd4628f858b45260c31d6ad076bd2c3d3c2f730000000000000000000000000000000000000000000000000000000000000000",
        "nonce": "0xf",
        "chainId": "0x8f"
      },
      "additionalContracts": [],
      "isFixedGasLimit": false
    },
    {
      "hash": null,
      "transactionType": "CALL",
      "contractName": null,
      "contractAddress": "0x6f475642a6e85809b1c36fa62763669b1b48dd5b",
      "function": "setConfig(address,address,(uint32,uint32,bytes)[])",
      "arguments": [
        "0x137643F7b2C189173867b3391f6629caB46F0F1a",
        "0xe1844c5D63a9543023008D332Bd3d2e6f1FE1043",
        "[(30255, 2, 0x0000000000000000000000000000000000000000000000000000000000000020000000000000000000000000000000000000000000000000000000000000000000000000000000000000000000000000000000000000000000000000000000030000000000000000000000000000000000000000000000000000000000000000000000000000000000000000000000000000000000000000000000000000000000000000000000000000000000000000000000000000000000000000000000c000000000000000000000000000000000000000000000000000000000000001400000000000000000000000000000000000000000000000000000000000000003000000000000000000000000282b3386571f7f794450d5789911a9804fa346b40000000000000000000000005ec52fb644072247c3264f0ac3db981cdebe3eca000000000000000000000000dcdd4628f858b45260c31d6ad076bd2c3d3c2f730000000000000000000000000000000000000000000000000000000000000000)]"
      ],
      "transaction": {
        "from": "0x0990be6db8c785fbbf9ded8baec612a10cae814b",
        "to": "0x6f475642a6e85809b1c36fa62763669b1b48dd5b",
        "gas": "0x39f54",
        "value": "0x0",
        "input": "0x6dbd9f90000000000000000000000000137643f7b2c189173867b3391f6629cab46f0f1a000000000000000000000000e1844c5d63a9543023008d332bd3d2e6f1fe1043000000000000000000000000000000000000000000000000000000000000006000000000000000000000000000000000000000000000000000000000000000010000000000000000000000000000000000000000000000000000000000000020000000000000000000000000000000000000000000000000000000000000762f0000000000000000000000000000000000000000000000000000000000000002000000000000000000000000000000000000000000000000000000000000006000000000000000000000000000000000000000000000000000000000000001800000000000000000000000000000000000000000000000000000000000000020000000000000000000000000000000000000000000000000000000000000000000000000000000000000000000000000000000000000000000000000000000030000000000000000000000000000000000000000000000000000000000000000000000000000000000000000000000000000000000000000000000000000000000000000000000000000000000000000000000000000000000000000000000c000000000000000000000000000000000000000000000000000000000000001400000000000000000000000000000000000000000000000000000000000000003000000000000000000000000282b3386571f7f794450d5789911a9804fa346b40000000000000000000000005ec52fb644072247c3264f0ac3db981cdebe3eca000000000000000000000000dcdd4628f858b45260c31d6ad076bd2c3d3c2f730000000000000000000000000000000000000000000000000000000000000000",
        "nonce": "0x10",
        "chainId": "0x8f"
      },
      "additionalContracts": [],
      "isFixedGasLimit": false
    },
    {
      "hash": null,
      "transactionType": "CALL",
      "contractName": null,
      "contractAddress": "0x6f475642a6e85809b1c36fa62763669b1b48dd5b",
      "function": "setConfig(address,address,(uint32,uint32,bytes)[])",
      "arguments": [
        "0x3B4cf37A3335F21c945a40088404c715525fCb29",
        "0xC39161c743D0307EB9BCc9FEF03eeb9Dc4802de7",
        "[(30255, 2, 0x0000000000000000000000000000000000000000000000000000000000000020000000000000000000000000000000000000000000000000000000000000000000000000000000000000000000000000000000000000000000000000000000030000000000000000000000000000000000000000000000000000000000000000000000000000000000000000000000000000000000000000000000000000000000000000000000000000000000000000000000000000000000000000000000c000000000000000000000000000000000000000000000000000000000000001400000000000000000000000000000000000000000000000000000000000000003000000000000000000000000282b3386571f7f794450d5789911a9804fa346b40000000000000000000000005ec52fb644072247c3264f0ac3db981cdebe3eca000000000000000000000000dcdd4628f858b45260c31d6ad076bd2c3d3c2f730000000000000000000000000000000000000000000000000000000000000000)]"
      ],
      "transaction": {
        "from": "0x0990be6db8c785fbbf9ded8baec612a10cae814b",
        "to": "0x6f475642a6e85809b1c36fa62763669b1b48dd5b",
        "gas": "0x36d34",
        "value": "0x0",
        "input": "0x6dbd9f900000000000000000000000003b4cf37a3335f21c945a40088404c715525fcb29000000000000000000000000c39161c743d0307eb9bcc9fef03eeb9dc4802de7000000000000000000000000000000000000000000000000000000000000006000000000000000000000000000000000000000000000000000000000000000010000000000000000000000000000000000000000000000000000000000000020000000000000000000000000000000000000000000000000000000000000762f0000000000000000000000000000000000000000000000000000000000000002000000000000000000000000000000000000000000000000000000000000006000000000000000000000000000000000000000000000000000000000000001800000000000000000000000000000000000000000000000000000000000000020000000000000000000000000000000000000000000000000000000000000000000000000000000000000000000000000000000000000000000000000000000030000000000000000000000000000000000000000000000000000000000000000000000000000000000000000000000000000000000000000000000000000000000000000000000000000000000000000000000000000000000000000000000c000000000000000000000000000000000000000000000000000000000000001400000000000000000000000000000000000000000000000000000000000000003000000000000000000000000282b3386571f7f794450d5789911a9804fa346b40000000000000000000000005ec52fb644072247c3264f0ac3db981cdebe3eca000000000000000000000000dcdd4628f858b45260c31d6ad076bd2c3d3c2f730000000000000000000000000000000000000000000000000000000000000000",
        "nonce": "0x11",
        "chainId": "0x8f"
      },
      "additionalContracts": [],
      "isFixedGasLimit": false
    },
    {
      "hash": null,
      "transactionType": "CALL",
      "contractName": null,
      "contractAddress": "0x6f475642a6e85809b1c36fa62763669b1b48dd5b",
      "function": "setConfig(address,address,(uint32,uint32,bytes)[])",
      "arguments": [
        "0x3B4cf37A3335F21c945a40088404c715525fCb29",
        "0xe1844c5D63a9543023008D332Bd3d2e6f1FE1043",
        "[(30255, 2, 0x0000000000000000000000000000000000000000000000000000000000000020000000000000000000000000000000000000000000000000000000000000000000000000000000000000000000000000000000000000000000000000000000030000000000000000000000000000000000000000000000000000000000000000000000000000000000000000000000000000000000000000000000000000000000000000000000000000000000000000000000000000000000000000000000c000000000000000000000000000000000000000000000000000000000000001400000000000000000000000000000000000000000000000000000000000000003000000000000000000000000282b3386571f7f794450d5789911a9804fa346b40000000000000000000000005ec52fb644072247c3264f0ac3db981cdebe3eca000000000000000000000000dcdd4628f858b45260c31d6ad076bd2c3d3c2f730000000000000000000000000000000000000000000000000000000000000000)]"
      ],
      "transaction": {
        "from": "0x0990be6db8c785fbbf9ded8baec612a10cae814b",
        "to": "0x6f475642a6e85809b1c36fa62763669b1b48dd5b",
        "gas": "0x39f54",
        "value": "0x0",
        "input": "0x6dbd9f900000000000000000000000003b4cf37a3335f21c945a40088404c715525fcb29000000000000000000000000e1844c5d63a9543023008d332bd3d2e6f1fe1043000000000000000000000000000000000000000000000000000000000000006000000000000000000000000000000000000000000000000000000000000000010000000000000000000000000000000000000000000000000000000000000020000000000000000000000000000000000000000000000000000000000000762f0000000000000000000000000000000000000000000000000000000000000002000000000000000000000000000000000000000000000000000000000000006000000000000000000000000000000000000000000000000000000000000001800000000000000000000000000000000000000000000000000000000000000020000000000000000000000000000000000000000000000000000000000000000000000000000000000000000000000000000000000000000000000000000000030000000000000000000000000000000000000000000000000000000000000000000000000000000000000000000000000000000000000000000000000000000000000000000000000000000000000000000000000000000000000000000000c000000000000000000000000000000000000000000000000000000000000001400000000000000000000000000000000000000000000000000000000000000003000000000000000000000000282b3386571f7f794450d5789911a9804fa346b40000000000000000000000005ec52fb644072247c3264f0ac3db981cdebe3eca000000000000000000000000dcdd4628f858b45260c31d6ad076bd2c3d3c2f730000000000000000000000000000000000000000000000000000000000000000",
        "nonce": "0x12",
        "chainId": "0x8f"
      },
      "additionalContracts": [],
      "isFixedGasLimit": false
    },
    {
      "hash": null,
      "transactionType": "CALL",
      "contractName": null,
      "contractAddress": "0x6f475642a6e85809b1c36fa62763669b1b48dd5b",
      "function": "setConfig(address,address,(uint32,uint32,bytes)[])",
      "arguments": [
        "0x58E3ee6accd124642dDB5d3f91928816Be8D8ed3",
        "0xC39161c743D0307EB9BCc9FEF03eeb9Dc4802de7",
        "[(30255, 2, 0x0000000000000000000000000000000000000000000000000000000000000020000000000000000000000000000000000000000000000000000000000000000000000000000000000000000000000000000000000000000000000000000000030000000000000000000000000000000000000000000000000000000000000000000000000000000000000000000000000000000000000000000000000000000000000000000000000000000000000000000000000000000000000000000000c000000000000000000000000000000000000000000000000000000000000001400000000000000000000000000000000000000000000000000000000000000003000000000000000000000000282b3386571f7f794450d5789911a9804fa346b40000000000000000000000005ec52fb644072247c3264f0ac3db981cdebe3eca000000000000000000000000dcdd4628f858b45260c31d6ad076bd2c3d3c2f730000000000000000000000000000000000000000000000000000000000000000)]"
      ],
      "transaction": {
        "from": "0x0990be6db8c785fbbf9ded8baec612a10cae814b",
        "to": "0x6f475642a6e85809b1c36fa62763669b1b48dd5b",
        "gas": "0x36d34",
        "value": "0x0",
        "input": "0x6dbd9f9000000000000000000000000058e3ee6accd124642ddb5d3f91928816be8d8ed3000000000000000000000000c39161c743d0307eb9bcc9fef03eeb9dc4802de7000000000000000000000000000000000000000000000000000000000000006000000000000000000000000000000000000000000000000000000000000000010000000000000000000000000000000000000000000000000000000000000020000000000000000000000000000000000000000000000000000000000000762f0000000000000000000000000000000000000000000000000000000000000002000000000000000000000000000000000000000000000000000000000000006000000000000000000000000000000000000000000000000000000000000001800000000000000000000000000000000000000000000000000000000000000020000000000000000000000000000000000000000000000000000000000000000000000000000000000000000000000000000000000000000000000000000000030000000000000000000000000000000000000000000000000000000000000000000000000000000000000000000000000000000000000000000000000000000000000000000000000000000000000000000000000000000000000000000000c000000000000000000000000000000000000000000000000000000000000001400000000000000000000000000000000000000000000000000000000000000003000000000000000000000000282b3386571f7f794450d5789911a9804fa346b40000000000000000000000005ec52fb644072247c3264f0ac3db981cdebe3eca000000000000000000000000dcdd4628f858b45260c31d6ad076bd2c3d3c2f730000000000000000000000000000000000000000000000000000000000000000",
        "nonce": "0x13",
        "chainId": "0x8f"
      },
      "additionalContracts": [],
      "isFixedGasLimit": false
    },
    {
      "hash": null,
      "transactionType": "CALL",
      "contractName": null,
      "contractAddress": "0x6f475642a6e85809b1c36fa62763669b1b48dd5b",
      "function": "setConfig(address,address,(uint32,uint32,bytes)[])",
      "arguments": [
        "0x58E3ee6accd124642dDB5d3f91928816Be8D8ed3",
        "0xe1844c5D63a9543023008D332Bd3d2e6f1FE1043",
        "[(30255, 2, 0x0000000000000000000000000000000000000000000000000000000000000020000000000000000000000000000000000000000000000000000000000000000000000000000000000000000000000000000000000000000000000000000000030000000000000000000000000000000000000000000000000000000000000000000000000000000000000000000000000000000000000000000000000000000000000000000000000000000000000000000000000000000000000000000000c000000000000000000000000000000000000000000000000000000000000001400000000000000000000000000000000000000000000000000000000000000003000000000000000000000000282b3386571f7f794450d5789911a9804fa346b40000000000000000000000005ec52fb644072247c3264f0ac3db981cdebe3eca000000000000000000000000dcdd4628f858b45260c31d6ad076bd2c3d3c2f730000000000000000000000000000000000000000000000000000000000000000)]"
      ],
      "transaction": {
        "from": "0x0990be6db8c785fbbf9ded8baec612a10cae814b",
        "to": "0x6f475642a6e85809b1c36fa62763669b1b48dd5b",
        "gas": "0x39f54",
        "value": "0x0",
        "input": "0x6dbd9f9000000000000000000000000058e3ee6accd124642ddb5d3f91928816be8d8ed3000000000000000000000000e1844c5d63a9543023008d332bd3d2e6f1fe1043000000000000000000000000000000000000000000000000000000000000006000000000000000000000000000000000000000000000000000000000000000010000000000000000000000000000000000000000000000000000000000000020000000000000000000000000000000000000000000000000000000000000762f0000000000000000000000000000000000000000000000000000000000000002000000000000000000000000000000000000000000000000000000000000006000000000000000000000000000000000000000000000000000000000000001800000000000000000000000000000000000000000000000000000000000000020000000000000000000000000000000000000000000000000000000000000000000000000000000000000000000000000000000000000000000000000000000030000000000000000000000000000000000000000000000000000000000000000000000000000000000000000000000000000000000000000000000000000000000000000000000000000000000000000000000000000000000000000000000c000000000000000000000000000000000000000000000000000000000000001400000000000000000000000000000000000000000000000000000000000000003000000000000000000000000282b3386571f7f794450d5789911a9804fa346b40000000000000000000000005ec52fb644072247c3264f0ac3db981cdebe3eca000000000000000000000000dcdd4628f858b45260c31d6ad076bd2c3d3c2f730000000000000000000000000000000000000000000000000000000000000000",
        "nonce": "0x14",
        "chainId": "0x8f"
      },
      "additionalContracts": [],
      "isFixedGasLimit": false
    },
    {
      "hash": null,
      "transactionType": "CALL",
      "contractName": null,
      "contractAddress": "0x6f475642a6e85809b1c36fa62763669b1b48dd5b",
      "function": "setConfig(address,address,(uint32,uint32,bytes)[])",
      "arguments": [
        "0x288F9D76019469bfEb56BB77d86aFa2bF563B75B",
        "0xC39161c743D0307EB9BCc9FEF03eeb9Dc4802de7",
        "[(30255, 2, 0x0000000000000000000000000000000000000000000000000000000000000020000000000000000000000000000000000000000000000000000000000000000000000000000000000000000000000000000000000000000000000000000000030000000000000000000000000000000000000000000000000000000000000000000000000000000000000000000000000000000000000000000000000000000000000000000000000000000000000000000000000000000000000000000000c000000000000000000000000000000000000000000000000000000000000001400000000000000000000000000000000000000000000000000000000000000003000000000000000000000000282b3386571f7f794450d5789911a9804fa346b40000000000000000000000005ec52fb644072247c3264f0ac3db981cdebe3eca000000000000000000000000dcdd4628f858b45260c31d6ad076bd2c3d3c2f730000000000000000000000000000000000000000000000000000000000000000)]"
      ],
      "transaction": {
        "from": "0x0990be6db8c785fbbf9ded8baec612a10cae814b",
        "to": "0x6f475642a6e85809b1c36fa62763669b1b48dd5b",
        "gas": "0x36d34",
        "value": "0x0",
        "input": "0x6dbd9f90000000000000000000000000288f9d76019469bfeb56bb77d86afa2bf563b75b000000000000000000000000c39161c743d0307eb9bcc9fef03eeb9dc4802de7000000000000000000000000000000000000000000000000000000000000006000000000000000000000000000000000000000000000000000000000000000010000000000000000000000000000000000000000000000000000000000000020000000000000000000000000000000000000000000000000000000000000762f0000000000000000000000000000000000000000000000000000000000000002000000000000000000000000000000000000000000000000000000000000006000000000000000000000000000000000000000000000000000000000000001800000000000000000000000000000000000000000000000000000000000000020000000000000000000000000000000000000000000000000000000000000000000000000000000000000000000000000000000000000000000000000000000030000000000000000000000000000000000000000000000000000000000000000000000000000000000000000000000000000000000000000000000000000000000000000000000000000000000000000000000000000000000000000000000c000000000000000000000000000000000000000000000000000000000000001400000000000000000000000000000000000000000000000000000000000000003000000000000000000000000282b3386571f7f794450d5789911a9804fa346b40000000000000000000000005ec52fb644072247c3264f0ac3db981cdebe3eca000000000000000000000000dcdd4628f858b45260c31d6ad076bd2c3d3c2f730000000000000000000000000000000000000000000000000000000000000000",
        "nonce": "0x15",
        "chainId": "0x8f"
      },
      "additionalContracts": [],
      "isFixedGasLimit": false
    },
    {
      "hash": null,
      "transactionType": "CALL",
      "contractName": null,
      "contractAddress": "0x6f475642a6e85809b1c36fa62763669b1b48dd5b",
      "function": "setConfig(address,address,(uint32,uint32,bytes)[])",
      "arguments": [
        "0x288F9D76019469bfEb56BB77d86aFa2bF563B75B",
        "0xe1844c5D63a9543023008D332Bd3d2e6f1FE1043",
        "[(30255, 2, 0x0000000000000000000000000000000000000000000000000000000000000020000000000000000000000000000000000000000000000000000000000000000000000000000000000000000000000000000000000000000000000000000000030000000000000000000000000000000000000000000000000000000000000000000000000000000000000000000000000000000000000000000000000000000000000000000000000000000000000000000000000000000000000000000000c000000000000000000000000000000000000000000000000000000000000001400000000000000000000000000000000000000000000000000000000000000003000000000000000000000000282b3386571f7f794450d5789911a9804fa346b40000000000000000000000005ec52fb644072247c3264f0ac3db981cdebe3eca000000000000000000000000dcdd4628f858b45260c31d6ad076bd2c3d3c2f730000000000000000000000000000000000000000000000000000000000000000)]"
      ],
      "transaction": {
        "from": "0x0990be6db8c785fbbf9ded8baec612a10cae814b",
        "to": "0x6f475642a6e85809b1c36fa62763669b1b48dd5b",
        "gas": "0x39f54",
        "value": "0x0",
        "input": "0x6dbd9f90000000000000000000000000288f9d76019469bfeb56bb77d86afa2bf563b75b000000000000000000000000e1844c5d63a9543023008d332bd3d2e6f1fe1043000000000000000000000000000000000000000000000000000000000000006000000000000000000000000000000000000000000000000000000000000000010000000000000000000000000000000000000000000000000000000000000020000000000000000000000000000000000000000000000000000000000000762f0000000000000000000000000000000000000000000000000000000000000002000000000000000000000000000000000000000000000000000000000000006000000000000000000000000000000000000000000000000000000000000001800000000000000000000000000000000000000000000000000000000000000020000000000000000000000000000000000000000000000000000000000000000000000000000000000000000000000000000000000000000000000000000000030000000000000000000000000000000000000000000000000000000000000000000000000000000000000000000000000000000000000000000000000000000000000000000000000000000000000000000000000000000000000000000000c000000000000000000000000000000000000000000000000000000000000001400000000000000000000000000000000000000000000000000000000000000003000000000000000000000000282b3386571f7f794450d5789911a9804fa346b40000000000000000000000005ec52fb644072247c3264f0ac3db981cdebe3eca000000000000000000000000dcdd4628f858b45260c31d6ad076bd2c3d3c2f730000000000000000000000000000000000000000000000000000000000000000",
        "nonce": "0x16",
        "chainId": "0x8f"
      },
      "additionalContracts": [],
      "isFixedGasLimit": false
    },
    {
      "hash": null,
      "transactionType": "CALL",
      "contractName": null,
      "contractAddress": "0x6f475642a6e85809b1c36fa62763669b1b48dd5b",
      "function": "setConfig(address,address,(uint32,uint32,bytes)[])",
      "arguments": [
        "0xBa554F7A47f0792b9fa41A1256d4cf628Bb1D028",
        "0xC39161c743D0307EB9BCc9FEF03eeb9Dc4802de7",
        "[(30255, 2, 0x0000000000000000000000000000000000000000000000000000000000000020000000000000000000000000000000000000000000000000000000000000000000000000000000000000000000000000000000000000000000000000000000030000000000000000000000000000000000000000000000000000000000000000000000000000000000000000000000000000000000000000000000000000000000000000000000000000000000000000000000000000000000000000000000c000000000000000000000000000000000000000000000000000000000000001400000000000000000000000000000000000000000000000000000000000000003000000000000000000000000282b3386571f7f794450d5789911a9804fa346b40000000000000000000000005ec52fb644072247c3264f0ac3db981cdebe3eca000000000000000000000000dcdd4628f858b45260c31d6ad076bd2c3d3c2f730000000000000000000000000000000000000000000000000000000000000000)]"
      ],
      "transaction": {
        "from": "0x0990be6db8c785fbbf9ded8baec612a10cae814b",
        "to": "0x6f475642a6e85809b1c36fa62763669b1b48dd5b",
        "gas": "0x36d34",
        "value": "0x0",
        "input": "0x6dbd9f90000000000000000000000000ba554f7a47f0792b9fa41a1256d4cf628bb1d028000000000000000000000000c39161c743d0307eb9bcc9fef03eeb9dc4802de7000000000000000000000000000000000000000000000000000000000000006000000000000000000000000000000000000000000000000000000000000000010000000000000000000000000000000000000000000000000000000000000020000000000000000000000000000000000000000000000000000000000000762f0000000000000000000000000000000000000000000000000000000000000002000000000000000000000000000000000000000000000000000000000000006000000000000000000000000000000000000000000000000000000000000001800000000000000000000000000000000000000000000000000000000000000020000000000000000000000000000000000000000000000000000000000000000000000000000000000000000000000000000000000000000000000000000000030000000000000000000000000000000000000000000000000000000000000000000000000000000000000000000000000000000000000000000000000000000000000000000000000000000000000000000000000000000000000000000000c000000000000000000000000000000000000000000000000000000000000001400000000000000000000000000000000000000000000000000000000000000003000000000000000000000000282b3386571f7f794450d5789911a9804fa346b40000000000000000000000005ec52fb644072247c3264f0ac3db981cdebe3eca000000000000000000000000dcdd4628f858b45260c31d6ad076bd2c3d3c2f730000000000000000000000000000000000000000000000000000000000000000",
        "nonce": "0x17",
        "chainId": "0x8f"
      },
      "additionalContracts": [],
      "isFixedGasLimit": false
    },
    {
      "hash": null,
      "transactionType": "CALL",
      "contractName": null,
      "contractAddress": "0x6f475642a6e85809b1c36fa62763669b1b48dd5b",
      "function": "setConfig(address,address,(uint32,uint32,bytes)[])",
      "arguments": [
        "0xBa554F7A47f0792b9fa41A1256d4cf628Bb1D028",
        "0xe1844c5D63a9543023008D332Bd3d2e6f1FE1043",
        "[(30255, 2, 0x0000000000000000000000000000000000000000000000000000000000000020000000000000000000000000000000000000000000000000000000000000000000000000000000000000000000000000000000000000000000000000000000030000000000000000000000000000000000000000000000000000000000000000000000000000000000000000000000000000000000000000000000000000000000000000000000000000000000000000000000000000000000000000000000c000000000000000000000000000000000000000000000000000000000000001400000000000000000000000000000000000000000000000000000000000000003000000000000000000000000282b3386571f7f794450d5789911a9804fa346b40000000000000000000000005ec52fb644072247c3264f0ac3db981cdebe3eca000000000000000000000000dcdd4628f858b45260c31d6ad076bd2c3d3c2f730000000000000000000000000000000000000000000000000000000000000000)]"
      ],
      "transaction": {
        "from": "0x0990be6db8c785fbbf9ded8baec612a10cae814b",
        "to": "0x6f475642a6e85809b1c36fa62763669b1b48dd5b",
        "gas": "0x39f54",
        "value": "0x0",
        "input": "0x6dbd9f90000000000000000000000000ba554f7a47f0792b9fa41a1256d4cf628bb1d028000000000000000000000000e1844c5d63a9543023008d332bd3d2e6f1fe1043000000000000000000000000000000000000000000000000000000000000006000000000000000000000000000000000000000000000000000000000000000010000000000000000000000000000000000000000000000000000000000000020000000000000000000000000000000000000000000000000000000000000762f0000000000000000000000000000000000000000000000000000000000000002000000000000000000000000000000000000000000000000000000000000006000000000000000000000000000000000000000000000000000000000000001800000000000000000000000000000000000000000000000000000000000000020000000000000000000000000000000000000000000000000000000000000000000000000000000000000000000000000000000000000000000000000000000030000000000000000000000000000000000000000000000000000000000000000000000000000000000000000000000000000000000000000000000000000000000000000000000000000000000000000000000000000000000000000000000c000000000000000000000000000000000000000000000000000000000000001400000000000000000000000000000000000000000000000000000000000000003000000000000000000000000282b3386571f7f794450d5789911a9804fa346b40000000000000000000000005ec52fb644072247c3264f0ac3db981cdebe3eca000000000000000000000000dcdd4628f858b45260c31d6ad076bd2c3d3c2f730000000000000000000000000000000000000000000000000000000000000000",
        "nonce": "0x18",
        "chainId": "0x8f"
      },
      "additionalContracts": [],
      "isFixedGasLimit": false
    },
    {
      "hash": null,
      "transactionType": "CALL",
      "contractName": null,
      "contractAddress": "0x6f475642a6e85809b1c36fa62763669b1b48dd5b",
      "function": "setSendLibrary(address,uint32,address)",
      "arguments": [
        "0x29aCC7c504665A5EA95344796f784095f0cfcC58",
        "30255",
        "0xC39161c743D0307EB9BCc9FEF03eeb9Dc4802de7"
      ],
      "transaction": {
        "from": "0x0990be6db8c785fbbf9ded8baec612a10cae814b",
        "to": "0x6f475642a6e85809b1c36fa62763669b1b48dd5b",
        "gas": "0xf4240",
        "value": "0x0",
        "input": "0x9535ff3000000000000000000000000029acc7c504665a5ea95344796f784095f0cfcc58000000000000000000000000000000000000000000000000000000000000762f000000000000000000000000c39161c743d0307eb9bcc9fef03eeb9dc4802de7",
        "nonce": "0x19",
        "chainId": "0x8f"
      },
      "additionalContracts": [],
      "isFixedGasLimit": true
    },
    {
      "hash": null,
      "transactionType": "CALL",
      "contractName": null,
      "contractAddress": "0x6f475642a6e85809b1c36fa62763669b1b48dd5b",
      "function": "setReceiveLibrary(address,uint32,address,uint256)",
      "arguments": [
        "0x29aCC7c504665A5EA95344796f784095f0cfcC58",
        "30255",
        "0xe1844c5D63a9543023008D332Bd3d2e6f1FE1043",
        "0"
      ],
      "transaction": {
        "from": "0x0990be6db8c785fbbf9ded8baec612a10cae814b",
        "to": "0x6f475642a6e85809b1c36fa62763669b1b48dd5b",
        "gas": "0xf4240",
        "value": "0x0",
        "input": "0x6a14d71500000000000000000000000029acc7c504665a5ea95344796f784095f0cfcc58000000000000000000000000000000000000000000000000000000000000762f000000000000000000000000e1844c5d63a9543023008d332bd3d2e6f1fe10430000000000000000000000000000000000000000000000000000000000000000",
        "nonce": "0x1a",
        "chainId": "0x8f"
      },
      "additionalContracts": [],
      "isFixedGasLimit": true
    },
    {
      "hash": null,
      "transactionType": "CALL",
      "contractName": null,
      "contractAddress": "0x6f475642a6e85809b1c36fa62763669b1b48dd5b",
      "function": "setSendLibrary(address,uint32,address)",
      "arguments": [
        "0x137643F7b2C189173867b3391f6629caB46F0F1a",
        "30255",
        "0xC39161c743D0307EB9BCc9FEF03eeb9Dc4802de7"
      ],
      "transaction": {
        "from": "0x0990be6db8c785fbbf9ded8baec612a10cae814b",
        "to": "0x6f475642a6e85809b1c36fa62763669b1b48dd5b",
        "gas": "0xf4240",
        "value": "0x0",
        "input": "0x9535ff30000000000000000000000000137643f7b2c189173867b3391f6629cab46f0f1a000000000000000000000000000000000000000000000000000000000000762f000000000000000000000000c39161c743d0307eb9bcc9fef03eeb9dc4802de7",
        "nonce": "0x1b",
        "chainId": "0x8f"
      },
      "additionalContracts": [],
      "isFixedGasLimit": true
    },
    {
      "hash": null,
      "transactionType": "CALL",
      "contractName": null,
      "contractAddress": "0x6f475642a6e85809b1c36fa62763669b1b48dd5b",
      "function": "setReceiveLibrary(address,uint32,address,uint256)",
      "arguments": [
        "0x137643F7b2C189173867b3391f6629caB46F0F1a",
        "30255",
        "0xe1844c5D63a9543023008D332Bd3d2e6f1FE1043",
        "0"
      ],
      "transaction": {
        "from": "0x0990be6db8c785fbbf9ded8baec612a10cae814b",
        "to": "0x6f475642a6e85809b1c36fa62763669b1b48dd5b",
        "gas": "0xf4240",
        "value": "0x0",
        "input": "0x6a14d715000000000000000000000000137643f7b2c189173867b3391f6629cab46f0f1a000000000000000000000000000000000000000000000000000000000000762f000000000000000000000000e1844c5d63a9543023008d332bd3d2e6f1fe10430000000000000000000000000000000000000000000000000000000000000000",
        "nonce": "0x1c",
        "chainId": "0x8f"
      },
      "additionalContracts": [],
      "isFixedGasLimit": true
    },
    {
      "hash": null,
      "transactionType": "CALL",
      "contractName": null,
      "contractAddress": "0x6f475642a6e85809b1c36fa62763669b1b48dd5b",
      "function": "setSendLibrary(address,uint32,address)",
      "arguments": [
        "0x3B4cf37A3335F21c945a40088404c715525fCb29",
        "30255",
        "0xC39161c743D0307EB9BCc9FEF03eeb9Dc4802de7"
      ],
      "transaction": {
        "from": "0x0990be6db8c785fbbf9ded8baec612a10cae814b",
        "to": "0x6f475642a6e85809b1c36fa62763669b1b48dd5b",
        "gas": "0xf4240",
        "value": "0x0",
        "input": "0x9535ff300000000000000000000000003b4cf37a3335f21c945a40088404c715525fcb29000000000000000000000000000000000000000000000000000000000000762f000000000000000000000000c39161c743d0307eb9bcc9fef03eeb9dc4802de7",
        "nonce": "0x1d",
        "chainId": "0x8f"
      },
      "additionalContracts": [],
      "isFixedGasLimit": true
    },
    {
      "hash": null,
      "transactionType": "CALL",
      "contractName": null,
      "contractAddress": "0x6f475642a6e85809b1c36fa62763669b1b48dd5b",
      "function": "setReceiveLibrary(address,uint32,address,uint256)",
      "arguments": [
        "0x3B4cf37A3335F21c945a40088404c715525fCb29",
        "30255",
        "0xe1844c5D63a9543023008D332Bd3d2e6f1FE1043",
        "0"
      ],
      "transaction": {
        "from": "0x0990be6db8c785fbbf9ded8baec612a10cae814b",
        "to": "0x6f475642a6e85809b1c36fa62763669b1b48dd5b",
        "gas": "0xf4240",
        "value": "0x0",
        "input": "0x6a14d7150000000000000000000000003b4cf37a3335f21c945a40088404c715525fcb29000000000000000000000000000000000000000000000000000000000000762f000000000000000000000000e1844c5d63a9543023008d332bd3d2e6f1fe10430000000000000000000000000000000000000000000000000000000000000000",
        "nonce": "0x1e",
        "chainId": "0x8f"
      },
      "additionalContracts": [],
      "isFixedGasLimit": true
    },
    {
      "hash": null,
      "transactionType": "CALL",
      "contractName": null,
      "contractAddress": "0x6f475642a6e85809b1c36fa62763669b1b48dd5b",
      "function": "setSendLibrary(address,uint32,address)",
      "arguments": [
        "0x58E3ee6accd124642dDB5d3f91928816Be8D8ed3",
        "30255",
        "0xC39161c743D0307EB9BCc9FEF03eeb9Dc4802de7"
      ],
      "transaction": {
        "from": "0x0990be6db8c785fbbf9ded8baec612a10cae814b",
        "to": "0x6f475642a6e85809b1c36fa62763669b1b48dd5b",
        "gas": "0xf4240",
        "value": "0x0",
        "input": "0x9535ff3000000000000000000000000058e3ee6accd124642ddb5d3f91928816be8d8ed3000000000000000000000000000000000000000000000000000000000000762f000000000000000000000000c39161c743d0307eb9bcc9fef03eeb9dc4802de7",
        "nonce": "0x1f",
        "chainId": "0x8f"
      },
      "additionalContracts": [],
      "isFixedGasLimit": true
    },
    {
      "hash": null,
      "transactionType": "CALL",
      "contractName": null,
      "contractAddress": "0x6f475642a6e85809b1c36fa62763669b1b48dd5b",
      "function": "setReceiveLibrary(address,uint32,address,uint256)",
      "arguments": [
        "0x58E3ee6accd124642dDB5d3f91928816Be8D8ed3",
        "30255",
        "0xe1844c5D63a9543023008D332Bd3d2e6f1FE1043",
        "0"
      ],
      "transaction": {
        "from": "0x0990be6db8c785fbbf9ded8baec612a10cae814b",
        "to": "0x6f475642a6e85809b1c36fa62763669b1b48dd5b",
        "gas": "0xf4240",
        "value": "0x0",
        "input": "0x6a14d71500000000000000000000000058e3ee6accd124642ddb5d3f91928816be8d8ed3000000000000000000000000000000000000000000000000000000000000762f000000000000000000000000e1844c5d63a9543023008d332bd3d2e6f1fe10430000000000000000000000000000000000000000000000000000000000000000",
        "nonce": "0x20",
        "chainId": "0x8f"
      },
      "additionalContracts": [],
      "isFixedGasLimit": true
    },
    {
      "hash": null,
      "transactionType": "CALL",
      "contractName": null,
      "contractAddress": "0x6f475642a6e85809b1c36fa62763669b1b48dd5b",
      "function": "setSendLibrary(address,uint32,address)",
      "arguments": [
        "0x288F9D76019469bfEb56BB77d86aFa2bF563B75B",
        "30255",
        "0xC39161c743D0307EB9BCc9FEF03eeb9Dc4802de7"
      ],
      "transaction": {
        "from": "0x0990be6db8c785fbbf9ded8baec612a10cae814b",
        "to": "0x6f475642a6e85809b1c36fa62763669b1b48dd5b",
        "gas": "0xf4240",
        "value": "0x0",
        "input": "0x9535ff30000000000000000000000000288f9d76019469bfeb56bb77d86afa2bf563b75b000000000000000000000000000000000000000000000000000000000000762f000000000000000000000000c39161c743d0307eb9bcc9fef03eeb9dc4802de7",
        "nonce": "0x21",
        "chainId": "0x8f"
      },
      "additionalContracts": [],
      "isFixedGasLimit": true
    },
    {
      "hash": null,
      "transactionType": "CALL",
      "contractName": null,
      "contractAddress": "0x6f475642a6e85809b1c36fa62763669b1b48dd5b",
      "function": "setReceiveLibrary(address,uint32,address,uint256)",
      "arguments": [
        "0x288F9D76019469bfEb56BB77d86aFa2bF563B75B",
        "30255",
        "0xe1844c5D63a9543023008D332Bd3d2e6f1FE1043",
        "0"
      ],
      "transaction": {
        "from": "0x0990be6db8c785fbbf9ded8baec612a10cae814b",
        "to": "0x6f475642a6e85809b1c36fa62763669b1b48dd5b",
        "gas": "0xf4240",
        "value": "0x0",
        "input": "0x6a14d715000000000000000000000000288f9d76019469bfeb56bb77d86afa2bf563b75b000000000000000000000000000000000000000000000000000000000000762f000000000000000000000000e1844c5d63a9543023008d332bd3d2e6f1fe10430000000000000000000000000000000000000000000000000000000000000000",
        "nonce": "0x22",
        "chainId": "0x8f"
      },
      "additionalContracts": [],
      "isFixedGasLimit": true
    },
    {
      "hash": null,
      "transactionType": "CALL",
      "contractName": null,
      "contractAddress": "0x6f475642a6e85809b1c36fa62763669b1b48dd5b",
      "function": "setSendLibrary(address,uint32,address)",
      "arguments": [
        "0xBa554F7A47f0792b9fa41A1256d4cf628Bb1D028",
        "30255",
        "0xC39161c743D0307EB9BCc9FEF03eeb9Dc4802de7"
      ],
      "transaction": {
        "from": "0x0990be6db8c785fbbf9ded8baec612a10cae814b",
        "to": "0x6f475642a6e85809b1c36fa62763669b1b48dd5b",
        "gas": "0xf4240",
        "value": "0x0",
        "input": "0x9535ff30000000000000000000000000ba554f7a47f0792b9fa41a1256d4cf628bb1d028000000000000000000000000000000000000000000000000000000000000762f000000000000000000000000c39161c743d0307eb9bcc9fef03eeb9dc4802de7",
        "nonce": "0x23",
        "chainId": "0x8f"
      },
      "additionalContracts": [],
      "isFixedGasLimit": true
    },
    {
      "hash": null,
      "transactionType": "CALL",
      "contractName": null,
      "contractAddress": "0x6f475642a6e85809b1c36fa62763669b1b48dd5b",
      "function": "setReceiveLibrary(address,uint32,address,uint256)",
      "arguments": [
        "0xBa554F7A47f0792b9fa41A1256d4cf628Bb1D028",
        "30255",
        "0xe1844c5D63a9543023008D332Bd3d2e6f1FE1043",
        "0"
      ],
      "transaction": {
        "from": "0x0990be6db8c785fbbf9ded8baec612a10cae814b",
        "to": "0x6f475642a6e85809b1c36fa62763669b1b48dd5b",
        "gas": "0xf4240",
        "value": "0x0",
        "input": "0x6a14d715000000000000000000000000ba554f7a47f0792b9fa41a1256d4cf628bb1d028000000000000000000000000000000000000000000000000000000000000762f000000000000000000000000e1844c5d63a9543023008d332bd3d2e6f1fe10430000000000000000000000000000000000000000000000000000000000000000",
        "nonce": "0x24",
        "chainId": "0x8f"
      },
      "additionalContracts": [],
      "isFixedGasLimit": true
    },
    {
      "hash": null,
      "transactionType": "CALL",
      "contractName": null,
      "contractAddress": "0x29acc7c504665a5ea95344796f784095f0cfcc58",
      "function": "setDelegate(address)",
      "arguments": [
        "0x47FF5bBAB981Ff022743AA4281D4d6Dd7Fb1a4D0"
      ],
      "transaction": {
        "from": "0x0990be6db8c785fbbf9ded8baec612a10cae814b",
        "to": "0x29acc7c504665a5ea95344796f784095f0cfcc58",
        "gas": "0xf4240",
        "value": "0x0",
        "input": "0xca5eb5e100000000000000000000000047ff5bbab981ff022743aa4281d4d6dd7fb1a4d0",
        "nonce": "0x25",
        "chainId": "0x8f"
      },
      "additionalContracts": [],
      "isFixedGasLimit": true
    },
    {
      "hash": null,
      "transactionType": "CALL",
      "contractName": null,
      "contractAddress": "0x29acc7c504665a5ea95344796f784095f0cfcc58",
      "function": "transferOwnership(address)",
      "arguments": [
        "0x47FF5bBAB981Ff022743AA4281D4d6Dd7Fb1a4D0"
      ],
      "transaction": {
        "from": "0x0990be6db8c785fbbf9ded8baec612a10cae814b",
        "to": "0x29acc7c504665a5ea95344796f784095f0cfcc58",
        "gas": "0xf4240",
        "value": "0x0",
        "input": "0xf2fde38b00000000000000000000000047ff5bbab981ff022743aa4281d4d6dd7fb1a4d0",
        "nonce": "0x26",
        "chainId": "0x8f"
      },
      "additionalContracts": [],
      "isFixedGasLimit": true
    },
    {
      "hash": null,
      "transactionType": "CALL",
      "contractName": null,
      "contractAddress": "0x137643f7b2c189173867b3391f6629cab46f0f1a",
      "function": "setDelegate(address)",
      "arguments": [
        "0x47FF5bBAB981Ff022743AA4281D4d6Dd7Fb1a4D0"
      ],
      "transaction": {
        "from": "0x0990be6db8c785fbbf9ded8baec612a10cae814b",
        "to": "0x137643f7b2c189173867b3391f6629cab46f0f1a",
        "gas": "0xf4240",
        "value": "0x0",
        "input": "0xca5eb5e100000000000000000000000047ff5bbab981ff022743aa4281d4d6dd7fb1a4d0",
        "nonce": "0x27",
        "chainId": "0x8f"
      },
      "additionalContracts": [],
      "isFixedGasLimit": true
    },
    {
      "hash": null,
      "transactionType": "CALL",
      "contractName": null,
      "contractAddress": "0x137643f7b2c189173867b3391f6629cab46f0f1a",
      "function": "transferOwnership(address)",
      "arguments": [
        "0x47FF5bBAB981Ff022743AA4281D4d6Dd7Fb1a4D0"
      ],
      "transaction": {
        "from": "0x0990be6db8c785fbbf9ded8baec612a10cae814b",
        "to": "0x137643f7b2c189173867b3391f6629cab46f0f1a",
        "gas": "0xf4240",
        "value": "0x0",
        "input": "0xf2fde38b00000000000000000000000047ff5bbab981ff022743aa4281d4d6dd7fb1a4d0",
        "nonce": "0x28",
        "chainId": "0x8f"
      },
      "additionalContracts": [],
      "isFixedGasLimit": true
    },
    {
      "hash": null,
      "transactionType": "CALL",
      "contractName": null,
      "contractAddress": "0x3b4cf37a3335f21c945a40088404c715525fcb29",
      "function": "setDelegate(address)",
      "arguments": [
        "0x47FF5bBAB981Ff022743AA4281D4d6Dd7Fb1a4D0"
      ],
      "transaction": {
        "from": "0x0990be6db8c785fbbf9ded8baec612a10cae814b",
        "to": "0x3b4cf37a3335f21c945a40088404c715525fcb29",
        "gas": "0xf4240",
        "value": "0x0",
        "input": "0xca5eb5e100000000000000000000000047ff5bbab981ff022743aa4281d4d6dd7fb1a4d0",
        "nonce": "0x29",
        "chainId": "0x8f"
      },
      "additionalContracts": [],
      "isFixedGasLimit": true
    },
    {
      "hash": null,
      "transactionType": "CALL",
      "contractName": null,
      "contractAddress": "0x3b4cf37a3335f21c945a40088404c715525fcb29",
      "function": "transferOwnership(address)",
      "arguments": [
        "0x47FF5bBAB981Ff022743AA4281D4d6Dd7Fb1a4D0"
      ],
      "transaction": {
        "from": "0x0990be6db8c785fbbf9ded8baec612a10cae814b",
        "to": "0x3b4cf37a3335f21c945a40088404c715525fcb29",
        "gas": "0xf4240",
        "value": "0x0",
        "input": "0xf2fde38b00000000000000000000000047ff5bbab981ff022743aa4281d4d6dd7fb1a4d0",
        "nonce": "0x2a",
        "chainId": "0x8f"
      },
      "additionalContracts": [],
      "isFixedGasLimit": true
    },
    {
      "hash": null,
      "transactionType": "CALL",
      "contractName": null,
      "contractAddress": "0x58e3ee6accd124642ddb5d3f91928816be8d8ed3",
      "function": "setDelegate(address)",
      "arguments": [
        "0x47FF5bBAB981Ff022743AA4281D4d6Dd7Fb1a4D0"
      ],
      "transaction": {
        "from": "0x0990be6db8c785fbbf9ded8baec612a10cae814b",
        "to": "0x58e3ee6accd124642ddb5d3f91928816be8d8ed3",
        "gas": "0xf4240",
        "value": "0x0",
        "input": "0xca5eb5e100000000000000000000000047ff5bbab981ff022743aa4281d4d6dd7fb1a4d0",
        "nonce": "0x2b",
        "chainId": "0x8f"
      },
      "additionalContracts": [],
      "isFixedGasLimit": true
    },
    {
      "hash": null,
      "transactionType": "CALL",
      "contractName": null,
      "contractAddress": "0x58e3ee6accd124642ddb5d3f91928816be8d8ed3",
      "function": "transferOwnership(address)",
      "arguments": [
        "0x47FF5bBAB981Ff022743AA4281D4d6Dd7Fb1a4D0"
      ],
      "transaction": {
        "from": "0x0990be6db8c785fbbf9ded8baec612a10cae814b",
        "to": "0x58e3ee6accd124642ddb5d3f91928816be8d8ed3",
        "gas": "0xf4240",
        "value": "0x0",
        "input": "0xf2fde38b00000000000000000000000047ff5bbab981ff022743aa4281d4d6dd7fb1a4d0",
        "nonce": "0x2c",
        "chainId": "0x8f"
      },
      "additionalContracts": [],
      "isFixedGasLimit": true
    },
    {
      "hash": null,
      "transactionType": "CALL",
      "contractName": null,
      "contractAddress": "0x288f9d76019469bfeb56bb77d86afa2bf563b75b",
      "function": "setDelegate(address)",
      "arguments": [
        "0x47FF5bBAB981Ff022743AA4281D4d6Dd7Fb1a4D0"
      ],
      "transaction": {
        "from": "0x0990be6db8c785fbbf9ded8baec612a10cae814b",
        "to": "0x288f9d76019469bfeb56bb77d86afa2bf563b75b",
        "gas": "0xf4240",
        "value": "0x0",
        "input": "0xca5eb5e100000000000000000000000047ff5bbab981ff022743aa4281d4d6dd7fb1a4d0",
        "nonce": "0x2d",
        "chainId": "0x8f"
      },
      "additionalContracts": [],
      "isFixedGasLimit": true
    },
    {
      "hash": null,
      "transactionType": "CALL",
      "contractName": null,
      "contractAddress": "0x288f9d76019469bfeb56bb77d86afa2bf563b75b",
      "function": "transferOwnership(address)",
      "arguments": [
        "0x47FF5bBAB981Ff022743AA4281D4d6Dd7Fb1a4D0"
      ],
      "transaction": {
        "from": "0x0990be6db8c785fbbf9ded8baec612a10cae814b",
        "to": "0x288f9d76019469bfeb56bb77d86afa2bf563b75b",
        "gas": "0xf4240",
        "value": "0x0",
        "input": "0xf2fde38b00000000000000000000000047ff5bbab981ff022743aa4281d4d6dd7fb1a4d0",
        "nonce": "0x2e",
        "chainId": "0x8f"
      },
      "additionalContracts": [],
      "isFixedGasLimit": true
    },
    {
      "hash": null,
      "transactionType": "CALL",
      "contractName": null,
      "contractAddress": "0xba554f7a47f0792b9fa41a1256d4cf628bb1d028",
      "function": "setDelegate(address)",
      "arguments": [
        "0x47FF5bBAB981Ff022743AA4281D4d6Dd7Fb1a4D0"
      ],
      "transaction": {
        "from": "0x0990be6db8c785fbbf9ded8baec612a10cae814b",
        "to": "0xba554f7a47f0792b9fa41a1256d4cf628bb1d028",
        "gas": "0xf4240",
        "value": "0x0",
        "input": "0xca5eb5e100000000000000000000000047ff5bbab981ff022743aa4281d4d6dd7fb1a4d0",
        "nonce": "0x2f",
        "chainId": "0x8f"
      },
      "additionalContracts": [],
      "isFixedGasLimit": true
    },
    {
      "hash": null,
      "transactionType": "CALL",
      "contractName": null,
      "contractAddress": "0xba554f7a47f0792b9fa41a1256d4cf628bb1d028",
      "function": "transferOwnership(address)",
      "arguments": [
        "0x47FF5bBAB981Ff022743AA4281D4d6Dd7Fb1a4D0"
      ],
      "transaction": {
        "from": "0x0990be6db8c785fbbf9ded8baec612a10cae814b",
        "to": "0xba554f7a47f0792b9fa41a1256d4cf628bb1d028",
        "gas": "0xf4240",
        "value": "0x0",
        "input": "0xf2fde38b00000000000000000000000047ff5bbab981ff022743aa4281d4d6dd7fb1a4d0",
        "nonce": "0x30",
        "chainId": "0x8f"
      },
      "additionalContracts": [],
      "isFixedGasLimit": true
    },
    {
      "hash": null,
      "transactionType": "CALL",
      "contractName": null,
      "contractAddress": "0xc2871eae630640ce1a16b39a17c498f22d76c21a",
      "function": "transferOwnership(address)",
      "arguments": [
        "0x47FF5bBAB981Ff022743AA4281D4d6Dd7Fb1a4D0"
      ],
      "transaction": {
        "from": "0x0990be6db8c785fbbf9ded8baec612a10cae814b",
        "to": "0xc2871eae630640ce1a16b39a17c498f22d76c21a",
        "gas": "0xf4240",
        "value": "0x0",
        "input": "0xf2fde38b00000000000000000000000047ff5bbab981ff022743aa4281d4d6dd7fb1a4d0",
        "nonce": "0x31",
        "chainId": "0x8f"
      },
      "additionalContracts": [],
      "isFixedGasLimit": true
    }
  ],
  "receipts": [
    {
      "status": "0x1",
      "cumulativeGasUsed": "0x38a387",
      "logs": [
        {
          "address": "0x29acc7c504665a5ea95344796f784095f0cfcc58",
          "topics": [
            "0xbe4864a8e820971c0247f5992e2da559595f7bf076a21cb5928d443d2a13b674"
          ],
          "data": "0x00000000000000000000000000000000000000000000000000000000000000200000000000000000000000000000000000000000000000000000000000000002000000000000000000000000000000000000000000000000000000000000004000000000000000000000000000000000000000000000000000000000000000e0000000000000000000000000000000000000000000000000000000000000762f00000000000000000000000000000000000000000000000000000000000000010000000000000000000000000000000000000000000000000000000000000060000000000000000000000000000000000000000000000000000000000000001600030100110100000000000000000000000000030d4000000000000000000000000000000000000000000000000000000000000000000000000000000000762f0000000000000000000000000000000000000000000000000000000000000002000000000000000000000000000000000000000000000000000000000000006000000000000000000000000000000000000000000000000000000000000000160003010011010000000000000000000000000003d09000000000000000000000",
          "blockHash": "0x48744c12f203a79409c89d11e0daf98eda3fd6166d00c3440d362c3087eaf6b5",
          "blockNumber": "0x2609fa5",
          "blockTimestamp": "0x6931d226",
          "transactionHash": "0x02c30a734b620398ed56304cb9751f36bba3fdb152775ae8772c47ceeb641d3a",
          "transactionIndex": "0x6",
          "logIndex": "0x21",
          "removed": false
        }
      ],
      "logsBloom": "0x00000000000000000000000000000000000000000000000000000000000000000000000400000000000000000000000000000000001000000000400000000000000000000000000000000000000000000000000000000000000000000000000000000000000000000000000000000000000000000000000000000000000000000000000000000000000000000000000000000000000000002000000000080000000000000000000000000000000000000000000000000000000000000000000000000000000000000000000002000000000000000000000000000000000000000000000000000000000000000000000000000000000000000000000000000000",
      "type": "0x2",
      "transactionHash": "0x02c30a734b620398ed56304cb9751f36bba3fdb152775ae8772c47ceeb641d3a",
      "transactionIndex": "0x6",
      "blockHash": "0x48744c12f203a79409c89d11e0daf98eda3fd6166d00c3440d362c3087eaf6b5",
      "blockNumber": "0x2609fa5",
      "gasUsed": "0xf4240",
      "effectiveGasPrice": "0x17c9b09d58",
      "from": "0x0990be6db8c785fbbf9ded8baec612a10cae814b",
      "to": "0x29acc7c504665a5ea95344796f784095f0cfcc58",
      "contractAddress": null
    },
    {
      "status": "0x1",
      "cumulativeGasUsed": "0x2e525b",
      "logs": [
        {
          "address": "0x137643f7b2c189173867b3391f6629cab46f0f1a",
          "topics": [
            "0xbe4864a8e820971c0247f5992e2da559595f7bf076a21cb5928d443d2a13b674"
          ],
          "data": "0x00000000000000000000000000000000000000000000000000000000000000200000000000000000000000000000000000000000000000000000000000000002000000000000000000000000000000000000000000000000000000000000004000000000000000000000000000000000000000000000000000000000000000e0000000000000000000000000000000000000000000000000000000000000762f00000000000000000000000000000000000000000000000000000000000000010000000000000000000000000000000000000000000000000000000000000060000000000000000000000000000000000000000000000000000000000000001600030100110100000000000000000000000000030d4000000000000000000000000000000000000000000000000000000000000000000000000000000000762f0000000000000000000000000000000000000000000000000000000000000002000000000000000000000000000000000000000000000000000000000000006000000000000000000000000000000000000000000000000000000000000000160003010011010000000000000000000000000003d09000000000000000000000",
          "blockHash": "0x0506aef1cddfaa7292470e21810be1dc701a51470944073e670e3e80b589b1ad",
          "blockNumber": "0x2609faa",
          "blockTimestamp": "0x6931d228",
          "transactionHash": "0x7f945e73878ec257630b54aec32a50e1ef3c82c03cb2140e3acb66e5d436876f",
          "transactionIndex": "0x7",
          "logIndex": "0x5",
          "removed": false
        }
      ],
      "logsBloom": "0x00000000000000000000000000000000000000000000000000000000000000000000000000000000000000000000000000000000000000000000400000000000000000000000000000000000000000000000000000000000000000000000000000000000000000000000000000000000000080000000000000000000000000000000000000000000000000000000000000000000000000000000000000080000000000000000000000000000000000000000000000000000000000000000000000000000000000000000000002000000000000000000000000000000000000000000000020000000000000000000000020000000000000000000000000000000",
      "type": "0x2",
      "transactionHash": "0x7f945e73878ec257630b54aec32a50e1ef3c82c03cb2140e3acb66e5d436876f",
      "transactionIndex": "0x7",
      "blockHash": "0x0506aef1cddfaa7292470e21810be1dc701a51470944073e670e3e80b589b1ad",
      "blockNumber": "0x2609faa",
      "gasUsed": "0xf4240",
      "effectiveGasPrice": "0x17c9b09d58",
      "from": "0x0990be6db8c785fbbf9ded8baec612a10cae814b",
      "to": "0x137643f7b2c189173867b3391f6629cab46f0f1a",
      "contractAddress": null
    },
    {
      "status": "0x1",
      "cumulativeGasUsed": "0x173180",
      "logs": [
        {
          "address": "0x3b4cf37a3335f21c945a40088404c715525fcb29",
          "topics": [
            "0xbe4864a8e820971c0247f5992e2da559595f7bf076a21cb5928d443d2a13b674"
          ],
          "data": "0x00000000000000000000000000000000000000000000000000000000000000200000000000000000000000000000000000000000000000000000000000000002000000000000000000000000000000000000000000000000000000000000004000000000000000000000000000000000000000000000000000000000000000e0000000000000000000000000000000000000000000000000000000000000762f00000000000000000000000000000000000000000000000000000000000000010000000000000000000000000000000000000000000000000000000000000060000000000000000000000000000000000000000000000000000000000000001600030100110100000000000000000000000000030d4000000000000000000000000000000000000000000000000000000000000000000000000000000000762f0000000000000000000000000000000000000000000000000000000000000002000000000000000000000000000000000000000000000000000000000000006000000000000000000000000000000000000000000000000000000000000000160003010011010000000000000000000000000003d09000000000000000000000",
          "blockHash": "0x6839fbd0a9719c982d26f1975c23c5d51a8d4407932150db80b7798742f0e7f9",
          "blockNumber": "0x2609faf",
          "blockTimestamp": "0x6931d22a",
          "transactionHash": "0xc97163f9e08d5fb3064b4ec07e15d124092f1b79da1e08b4d9ca710954805264",
          "transactionIndex": "0x3",
          "logIndex": "0x4",
          "removed": false
        }
      ],
      "logsBloom": "0x00000000000000000000000000000000000000000000000000000000000000000000000000000000000000000000000000000000000000000000400000000000000000000000000080000000000000000000000000000000000000000000000000000000000000000000000000000000000000000000000000000000000000000000000000000000000000000000000000000000000000000000000000080000000000000000000000010000000000000000000000000000000000000000000000000000000000000000400002000000000000000000000000000000000000000000000000000000000000000000000000000000000000000000000000000000",
      "type": "0x2",
      "transactionHash": "0xc97163f9e08d5fb3064b4ec07e15d124092f1b79da1e08b4d9ca710954805264",
      "transactionIndex": "0x3",
      "blockHash": "0x6839fbd0a9719c982d26f1975c23c5d51a8d4407932150db80b7798742f0e7f9",
      "blockNumber": "0x2609faf",
      "gasUsed": "0xf4240",
      "effectiveGasPrice": "0x17c9b09d58",
      "from": "0x0990be6db8c785fbbf9ded8baec612a10cae814b",
      "to": "0x3b4cf37a3335f21c945a40088404c715525fcb29",
      "contractAddress": null
    },
    {
      "status": "0x1",
      "cumulativeGasUsed": "0x2122f3",
      "logs": [
        {
          "address": "0x58e3ee6accd124642ddb5d3f91928816be8d8ed3",
          "topics": [
            "0xbe4864a8e820971c0247f5992e2da559595f7bf076a21cb5928d443d2a13b674"
          ],
          "data": "0x00000000000000000000000000000000000000000000000000000000000000200000000000000000000000000000000000000000000000000000000000000002000000000000000000000000000000000000000000000000000000000000004000000000000000000000000000000000000000000000000000000000000000e0000000000000000000000000000000000000000000000000000000000000762f00000000000000000000000000000000000000000000000000000000000000010000000000000000000000000000000000000000000000000000000000000060000000000000000000000000000000000000000000000000000000000000001600030100110100000000000000000000000000030d4000000000000000000000000000000000000000000000000000000000000000000000000000000000762f0000000000000000000000000000000000000000000000000000000000000002000000000000000000000000000000000000000000000000000000000000006000000000000000000000000000000000000000000000000000000000000000160003010011010000000000000000000000000003d09000000000000000000000",
          "blockHash": "0x9395069a6dfd24b813d24baacd60b3929e0807eccb186359c93fd694f34697dc",
          "blockNumber": "0x2609fb4",
          "blockTimestamp": "0x6931d22c",
          "transactionHash": "0x483cbd926cd76e09c70d6354e22772c074abce33aedfca64421efb1d52d801b1",
          "transactionIndex": "0x5",
          "logIndex": "0xf",
          "removed": false
        }
      ],
      "logsBloom": "0x00000000000000000000000000000000000000000000000000000000100000000000000000000000000000000000000000000000000000000000400000000000000000000000000000000000000000000000000000000000000000000000000000000000000000000000000000000000000000000000000000000000000000000000000000000000000000000000000000000000000000000000000000080000000000000000000000000000000000000000000000000000000000000000000000000000000000000000000002000000100000000000000000000000000000000000000000000000000000000080000000000000000000000000000000000000",
      "type": "0x2",
      "transactionHash": "0x483cbd926cd76e09c70d6354e22772c074abce33aedfca64421efb1d52d801b1",
      "transactionIndex": "0x5",
      "blockHash": "0x9395069a6dfd24b813d24baacd60b3929e0807eccb186359c93fd694f34697dc",
      "blockNumber": "0x2609fb4",
      "gasUsed": "0xf4240",
      "effectiveGasPrice": "0x17c9b09d58",
      "from": "0x0990be6db8c785fbbf9ded8baec612a10cae814b",
      "to": "0x58e3ee6accd124642ddb5d3f91928816be8d8ed3",
      "contractAddress": null
    },
    {
      "status": "0x1",
      "cumulativeGasUsed": "0x139e83",
      "logs": [
        {
          "address": "0x288f9d76019469bfeb56bb77d86afa2bf563b75b",
          "topics": [
            "0xbe4864a8e820971c0247f5992e2da559595f7bf076a21cb5928d443d2a13b674"
          ],
          "data": "0x00000000000000000000000000000000000000000000000000000000000000200000000000000000000000000000000000000000000000000000000000000002000000000000000000000000000000000000000000000000000000000000004000000000000000000000000000000000000000000000000000000000000000e0000000000000000000000000000000000000000000000000000000000000762f00000000000000000000000000000000000000000000000000000000000000010000000000000000000000000000000000000000000000000000000000000060000000000000000000000000000000000000000000000000000000000000001600030100110100000000000000000000000000030d4000000000000000000000000000000000000000000000000000000000000000000000000000000000762f0000000000000000000000000000000000000000000000000000000000000002000000000000000000000000000000000000000000000000000000000000006000000000000000000000000000000000000000000000000000000000000000160003010011010000000000000000000000000003d09000000000000000000000",
          "blockHash": "0xb8d027c441dce92022eb6e3cb631c2f6e9b823972cda5d44611614c98a2f3e2c",
          "blockNumber": "0x2609fb9",
          "blockTimestamp": "0x6931d22e",
          "transactionHash": "0x01f9c996930a8efc23f0545530045a36d1a989c2e274c82a04fe79286c58021a",
          "transactionIndex": "0x2",
          "logIndex": "0x5",
          "removed": false
        }
      ],
      "logsBloom": "0x00000000000000000000000000000000000000000000000000000000000000000000000000000000000000000000000000000000000000010000400000000000000000000000000000000000000000000000000000000000000000000000000000000000000000000000000001000000000000000000000000000000000000000000000000000000000008000000000000000000000000000000000000080000000000000000000000000000000000000000000000000000000000000000000000000000000000000000000002000000000000000000000000000000000000000000000000000000000000000000000000000000000000000000000000000000",
      "type": "0x2",
      "transactionHash": "0x01f9c996930a8efc23f0545530045a36d1a989c2e274c82a04fe79286c58021a",
      "transactionIndex": "0x2",
      "blockHash": "0xb8d027c441dce92022eb6e3cb631c2f6e9b823972cda5d44611614c98a2f3e2c",
      "blockNumber": "0x2609fb9",
      "gasUsed": "0xf4240",
      "effectiveGasPrice": "0x17c9b09d58",
      "from": "0x0990be6db8c785fbbf9ded8baec612a10cae814b",
      "to": "0x288f9d76019469bfeb56bb77d86afa2bf563b75b",
      "contractAddress": null
    },
    {
      "status": "0x1",
      "cumulativeGasUsed": "0x161e5c",
      "logs": [
        {
          "address": "0xba554f7a47f0792b9fa41a1256d4cf628bb1d028",
          "topics": [
            "0xbe4864a8e820971c0247f5992e2da559595f7bf076a21cb5928d443d2a13b674"
          ],
          "data": "0x00000000000000000000000000000000000000000000000000000000000000200000000000000000000000000000000000000000000000000000000000000002000000000000000000000000000000000000000000000000000000000000004000000000000000000000000000000000000000000000000000000000000000e0000000000000000000000000000000000000000000000000000000000000762f00000000000000000000000000000000000000000000000000000000000000010000000000000000000000000000000000000000000000000000000000000060000000000000000000000000000000000000000000000000000000000000001600030100110100000000000000000000000000030d4000000000000000000000000000000000000000000000000000000000000000000000000000000000762f0000000000000000000000000000000000000000000000000000000000000002000000000000000000000000000000000000000000000000000000000000006000000000000000000000000000000000000000000000000000000000000000160003010011010000000000000000000000000003d09000000000000000000000",
          "blockHash": "0xae9984cf496752834224904492f5ff76bba8aab77d47f74b5107773824fc516e",
          "blockNumber": "0x2609fbd",
          "blockTimestamp": "0x6931d22f",
          "transactionHash": "0x99868514a4971786c72ab9e9b032115338cfcc4b7193a40f6793fa2bce3cfed8",
          "transactionIndex": "0x4",
          "logIndex": "0x5",
          "removed": false
        }
      ],
      "logsBloom": "0x00000000000000000000000000000000000000000000000000000000000000000000000000000000000000000000000000000000000000000000400000000000000000000000000000000000000000000000000000000000000000000000000000000000000000000000000004000000000000000000000000000000000000000000000000000000000000000000000000000000000000000000000000080000000000000000000000000000000000000000000000000000000020000000000000000000000000000000000002000000000000000000000000000000000000000000000000000000000000000000000001000000000000000000000000000000",
      "type": "0x2",
      "transactionHash": "0x99868514a4971786c72ab9e9b032115338cfcc4b7193a40f6793fa2bce3cfed8",
      "transactionIndex": "0x4",
      "blockHash": "0xae9984cf496752834224904492f5ff76bba8aab77d47f74b5107773824fc516e",
      "blockNumber": "0x2609fbd",
      "gasUsed": "0xf4240",
      "effectiveGasPrice": "0x17c9b09d58",
      "from": "0x0990be6db8c785fbbf9ded8baec612a10cae814b",
      "to": "0xba554f7a47f0792b9fa41a1256d4cf628bb1d028",
      "contractAddress": null
    },
    {
      "status": "0x1",
      "cumulativeGasUsed": "0x989680",
      "logs": [
        {
          "address": "0x29acc7c504665a5ea95344796f784095f0cfcc58",
          "topics": [
            "0x238399d427b947898edb290f5ff0f9109849b1c3ba196a42e35f00c50a54b98b"
          ],
          "data": "0x000000000000000000000000000000000000000000000000000000000000762f000000000000000000000000d86fbbd0c8715d2c1f40e451e5c3514e65e7576a",
          "blockHash": "0x5eb02f4c7d58e09048cf78f255916870ec984ef15a87cf9a0599ff90f71f28eb",
          "blockNumber": "0x2609fc3",
          "blockTimestamp": "0x6931d232",
          "transactionHash": "0x6fc27a16ef9e810778e9a67cab4fd1805f79ec64397ebef86835e98dbaf1f952",
          "transactionIndex": "0x7",
          "logIndex": "0x33",
          "removed": false
        }
      ],
      "logsBloom": "0x00000000000000000000000000000000000000000000000000000000000000000000000400000000000000000000000000000000001000000800000000000000000000000000000000000000000000000000000000000000000000000000000000000000000000000000000000000000000000000000000000000000000000000000000000000000000000000000000000000000000000002000000000000000000000000000000000000000000000000000000000000000000002000000000000000000000000000000000000000000000000000000000000040000000000000000000000000000000000000000000000000000000000000000000000000000",
      "type": "0x2",
      "transactionHash": "0x6fc27a16ef9e810778e9a67cab4fd1805f79ec64397ebef86835e98dbaf1f952",
      "transactionIndex": "0x7",
      "blockHash": "0x5eb02f4c7d58e09048cf78f255916870ec984ef15a87cf9a0599ff90f71f28eb",
      "blockNumber": "0x2609fc3",
      "gasUsed": "0xf4240",
      "effectiveGasPrice": "0x17c9b09d58",
      "from": "0x0990be6db8c785fbbf9ded8baec612a10cae814b",
      "to": "0x29acc7c504665a5ea95344796f784095f0cfcc58",
      "contractAddress": null
    },
    {
      "status": "0x1",
      "cumulativeGasUsed": "0x139ea1",
      "logs": [
        {
          "address": "0x137643f7b2c189173867b3391f6629cab46f0f1a",
          "topics": [
            "0x238399d427b947898edb290f5ff0f9109849b1c3ba196a42e35f00c50a54b98b"
          ],
          "data": "0x000000000000000000000000000000000000000000000000000000000000762f00000000000000000000000088aa7854d3b2daa5e37e7ce73a1f39669623a361",
          "blockHash": "0xc1d54b9d381a10f28a832f40f7a5736443b77d3c85d6e8815563a66e52ea6cdd",
          "blockNumber": "0x2609fc7",
          "blockTimestamp": "0x6931d233",
          "transactionHash": "0xede6d23e5987677504db00c9fff24f8bce52dac421cbeef6be21da4861ca03ec",
          "transactionIndex": "0x2",
          "logIndex": "0x5",
          "removed": false
        }
      ],
      "logsBloom": "0x00000000000000000000000000000000000000000000000000000000000000000000000000000000000000000000000000000000000000000800000000000000000000000000000000000000000000000000000000000000000000000000000000000000000000000000000000000000000080000000000000000000000000000000000000000000000000000000000000000000000000000000000000000000000000000000000000000000000000000000000000000000000002000000000000000000000000000000000000000000000000000000000000040000000000000000000020000000000000000000000020000000000000000000000000000000",
      "type": "0x2",
      "transactionHash": "0xede6d23e5987677504db00c9fff24f8bce52dac421cbeef6be21da4861ca03ec",
      "transactionIndex": "0x2",
      "blockHash": "0xc1d54b9d381a10f28a832f40f7a5736443b77d3c85d6e8815563a66e52ea6cdd",
      "blockNumber": "0x2609fc7",
      "gasUsed": "0xf4240",
      "effectiveGasPrice": "0x17c9b09d58",
      "from": "0x0990be6db8c785fbbf9ded8baec612a10cae814b",
      "to": "0x137643f7b2c189173867b3391f6629cab46f0f1a",
      "contractAddress": null
    },
    {
      "status": "0x1",
      "cumulativeGasUsed": "0x2625a0",
      "logs": [
        {
          "address": "0x3b4cf37a3335f21c945a40088404c715525fcb29",
          "topics": [
            "0x238399d427b947898edb290f5ff0f9109849b1c3ba196a42e35f00c50a54b98b"
          ],
          "data": "0x000000000000000000000000000000000000000000000000000000000000762f000000000000000000000000999dfabe3b1cc2ef66eb032eea42fea329bba168",
          "blockHash": "0x8f2368b87cd83863ff46b22c1661dbb0c45241d918145aedde2e650ed523cab4",
          "blockNumber": "0x2609fcc",
          "blockTimestamp": "0x6931d235",
          "transactionHash": "0xdcf73ad44a1ed2351a12684f75448ec47d6aac5868e033c76e360d923edaf959",
          "transactionIndex": "0x2",
          "logIndex": "0x15",
          "removed": false
        }
      ],
      "logsBloom": "0x00000000000000000000000000000000000000000000000000000000000000000000000000000000000000000000000000000000000000000800000000000000000000000000000080000000000000000000000000000000000000000000000000000000000000000000000000000000000000000000000000000000000000000000000000000000000000000000000000000000000000000000000000000000000000000000000000010000000000000000000000000000000002000000000000000000000000000000400000000000000000000000000000040000000000000000000000000000000000000000000000000000000000000000000000000000",
      "type": "0x2",
      "transactionHash": "0xdcf73ad44a1ed2351a12684f75448ec47d6aac5868e033c76e360d923edaf959",
      "transactionIndex": "0x2",
      "blockHash": "0x8f2368b87cd83863ff46b22c1661dbb0c45241d918145aedde2e650ed523cab4",
      "blockNumber": "0x2609fcc",
      "gasUsed": "0xf4240",
      "effectiveGasPrice": "0x17c9b09d58",
      "from": "0x0990be6db8c785fbbf9ded8baec612a10cae814b",
      "to": "0x3b4cf37a3335f21c945a40088404c715525fcb29",
      "contractAddress": null
    },
    {
      "status": "0x1",
      "cumulativeGasUsed": "0x17faac",
      "logs": [
        {
          "address": "0x58e3ee6accd124642ddb5d3f91928816be8d8ed3",
          "topics": [
            "0x238399d427b947898edb290f5ff0f9109849b1c3ba196a42e35f00c50a54b98b"
          ],
          "data": "0x000000000000000000000000000000000000000000000000000000000000762f00000000000000000000000096a394058e2b84a89bac9667b19661ed003cf5d4",
          "blockHash": "0xc8de27653393c09eed99d26f14d9d1b651beb2a83df6befebd4fcfbe0727af5b",
          "blockNumber": "0x2609fd1",
          "blockTimestamp": "0x6931d237",
          "transactionHash": "0xf083040fbb012d2574d43b6ff8d191f1151b3099dd5365ae89c0181826645a54",
          "transactionIndex": "0x3",
          "logIndex": "0x9",
          "removed": false
        }
      ],
      "logsBloom": "0x00000000000000000000000000000000000000000000000000000000100000000000000000000000000000000000000000000000000000000800000000000000000000000000000000000000000000000000000000000000000000000000000000000000000000000000000000000000000000000000000000000000000000000000000000000000000000000000000000000000000000000000000000000000000000000000000000000000000000000000000000000000000002000000000000000000000000000000000000000000100000000000000000040000000000000000000000000000000000000080000000000000000000000000000000000000",
      "type": "0x2",
      "transactionHash": "0xf083040fbb012d2574d43b6ff8d191f1151b3099dd5365ae89c0181826645a54",
      "transactionIndex": "0x3",
      "blockHash": "0xc8de27653393c09eed99d26f14d9d1b651beb2a83df6befebd4fcfbe0727af5b",
      "blockNumber": "0x2609fd1",
      "gasUsed": "0xf4240",
      "effectiveGasPrice": "0x17c9b09d58",
      "from": "0x0990be6db8c785fbbf9ded8baec612a10cae814b",
      "to": "0x58e3ee6accd124642ddb5d3f91928816be8d8ed3",
      "contractAddress": null
    },
    {
      "status": "0x1",
      "cumulativeGasUsed": "0x124f80",
      "logs": [
        {
          "address": "0x288f9d76019469bfeb56bb77d86afa2bf563b75b",
          "topics": [
            "0x238399d427b947898edb290f5ff0f9109849b1c3ba196a42e35f00c50a54b98b"
          ],
          "data": "0x000000000000000000000000000000000000000000000000000000000000762f0000000000000000000000009abfe1f8a999b0011ecd6116649aee8d575f5604",
          "blockHash": "0x03e6e0660baaa1dd8788c1662695d695db70d7ac7df38f1bdf5e427de545d970",
          "blockNumber": "0x2609fd5",
          "blockTimestamp": "0x6931d239",
          "transactionHash": "0x5f116aaf838ecb6a3494722f1d01427040ba8c0c396eb548ae31347f305a5e67",
          "transactionIndex": "0x3",
          "logIndex": "0x1",
          "removed": false
        }
      ],
      "logsBloom": "0x00000000000000000000000000000000000000000000000000000000000000000000000000000000000000000000000000000000000000010800000000000000000000000000000000000000000000000000000000000000000000000000000000000000000000000000000001000000000000000000000000000000000000000000000000000000000008000000000000000000000000000000000000000000000000000000000000000000000000000000000000000000000002000000000000000000000000000000000000000000000000000000000000040000000000000000000000000000000000000000000000000000000000000000000000000000",
      "type": "0x2",
      "transactionHash": "0x5f116aaf838ecb6a3494722f1d01427040ba8c0c396eb548ae31347f305a5e67",
      "transactionIndex": "0x3",
      "blockHash": "0x03e6e0660baaa1dd8788c1662695d695db70d7ac7df38f1bdf5e427de545d970",
      "blockNumber": "0x2609fd5",
      "gasUsed": "0xf4240",
      "effectiveGasPrice": "0x17c9b09d58",
      "from": "0x0990be6db8c785fbbf9ded8baec612a10cae814b",
      "to": "0x288f9d76019469bfeb56bb77d86afa2bf563b75b",
      "contractAddress": null
    },
    {
      "status": "0x1",
      "cumulativeGasUsed": "0x32e508",
      "logs": [
        {
          "address": "0xba554f7a47f0792b9fa41a1256d4cf628bb1d028",
          "topics": [
            "0x238399d427b947898edb290f5ff0f9109849b1c3ba196a42e35f00c50a54b98b"
          ],
          "data": "0x000000000000000000000000000000000000000000000000000000000000762f00000000000000000000000075c38d46001b0f8108c4136216bd2694982c20fc",
          "blockHash": "0x73200b54c53a8a43744319942649b2d633c6814f29abffb79f55255c5a7e723e",
          "blockNumber": "0x2609fda",
          "blockTimestamp": "0x6931d23b",
          "transactionHash": "0xe995665cb90e8b4bb83da8c6bfacf41926899a47340aa73947f0e8fc4f8334fd",
          "transactionIndex": "0x5",
          "logIndex": "0x14",
          "removed": false
        }
      ],
      "logsBloom": "0x00000000000000000000000000000000000000000000000000000000000000000000000000000000000000000000000000000000000000000800000000000000000000000000000000000000000000000000000000000000000000000000000000000000000000000000000004000000000000000000000000000000000000000000000000000000000000000000000000000000000000000000000000000000000000000000000000000000000000000000000000000000000022000000000000000000000000000000000000000000000000000000000000040000000000000000000000000000000000000000000001000000000000000000000000000000",
      "type": "0x2",
      "transactionHash": "0xe995665cb90e8b4bb83da8c6bfacf41926899a47340aa73947f0e8fc4f8334fd",
      "transactionIndex": "0x5",
      "blockHash": "0x73200b54c53a8a43744319942649b2d633c6814f29abffb79f55255c5a7e723e",
      "blockNumber": "0x2609fda",
      "gasUsed": "0xf4240",
      "effectiveGasPrice": "0x17c9b09d58",
      "from": "0x0990be6db8c785fbbf9ded8baec612a10cae814b",
      "to": "0xba554f7a47f0792b9fa41a1256d4cf628bb1d028",
      "contractAddress": null
    }
  ],
  "libraries": [],
  "pending": [],
  "returns": {},
  "timestamp": 1764872766968,
  "chain": 143,
  "commit": "e74521b"
}