{
  "transactions": [
    {
      "hash": "0x139e91305fbb4751a3f29e7d6f6c9e602592ed21cc07bc18d5be4ff0e7f0bf8e",
      "transactionType": "CALL",
      "contractName": null,
      "contractAddress": "0x6f475642a6e85809b1c36fa62763669b1b48dd5b",
      "function": "setConfig(address,address,(uint32,uint32,bytes)[])",
      "arguments": [
        "0x29aCC7c504665A5EA95344796f784095f0cfcC58",
        "0xC39161c743D0307EB9BCc9FEF03eeb9Dc4802de7",
        "[(30255, 2, 0x0000000000000000000000000000000000000000000000000000000000000020000000000000000000000000000000000000000000000000000000000000000000000000000000000000000000000000000000000000000000000000000000030000000000000000000000000000000000000000000000000000000000000000000000000000000000000000000000000000000000000000000000000000000000000000000000000000000000000000000000000000000000000000000000c000000000000000000000000000000000000000000000000000000000000001400000000000000000000000000000000000000000000000000000000000000003000000000000000000000000282b3386571f7f794450d5789911a9804fa346b40000000000000000000000005ec52fb644072247c3264f0ac3db981cdebe3eca000000000000000000000000dcdd4628f858b45260c31d6ad076bd2c3d3c2f730000000000000000000000000000000000000000000000000000000000000000)]"
      ],
      "transaction": {
        "from": "0x0990be6db8c785fbbf9ded8baec612a10cae814b",
        "to": "0x6f475642a6e85809b1c36fa62763669b1b48dd5b",
        "gas": "0xf4240",
        "value": "0x0",
        "input": "0x6dbd9f9000000000000000000000000029acc7c504665a5ea95344796f784095f0cfcc58000000000000000000000000c39161c743d0307eb9bcc9fef03eeb9dc4802de7000000000000000000000000000000000000000000000000000000000000006000000000000000000000000000000000000000000000000000000000000000010000000000000000000000000000000000000000000000000000000000000020000000000000000000000000000000000000000000000000000000000000762f0000000000000000000000000000000000000000000000000000000000000002000000000000000000000000000000000000000000000000000000000000006000000000000000000000000000000000000000000000000000000000000001800000000000000000000000000000000000000000000000000000000000000020000000000000000000000000000000000000000000000000000000000000000000000000000000000000000000000000000000000000000000000000000000030000000000000000000000000000000000000000000000000000000000000000000000000000000000000000000000000000000000000000000000000000000000000000000000000000000000000000000000000000000000000000000000c000000000000000000000000000000000000000000000000000000000000001400000000000000000000000000000000000000000000000000000000000000003000000000000000000000000282b3386571f7f794450d5789911a9804fa346b40000000000000000000000005ec52fb644072247c3264f0ac3db981cdebe3eca000000000000000000000000dcdd4628f858b45260c31d6ad076bd2c3d3c2f730000000000000000000000000000000000000000000000000000000000000000",
        "nonce": "0xe",
        "chainId": "0x8f"
      },
      "additionalContracts": [],
      "isFixedGasLimit": true
    },
    {
      "hash": "0x7fb243537ff9f0400928f3936e03c91c817d7828441ec1fbbf592b8b49accdb0",
      "transactionType": "CALL",
      "contractName": null,
      "contractAddress": "0x6f475642a6e85809b1c36fa62763669b1b48dd5b",
      "function": "setConfig(address,address,(uint32,uint32,bytes)[])",
      "arguments": [
        "0x29aCC7c504665A5EA95344796f784095f0cfcC58",
        "0xe1844c5D63a9543023008D332Bd3d2e6f1FE1043",
        "[(30255, 2, 0x0000000000000000000000000000000000000000000000000000000000000020000000000000000000000000000000000000000000000000000000000000000000000000000000000000000000000000000000000000000000000000000000030000000000000000000000000000000000000000000000000000000000000000000000000000000000000000000000000000000000000000000000000000000000000000000000000000000000000000000000000000000000000000000000c000000000000000000000000000000000000000000000000000000000000001400000000000000000000000000000000000000000000000000000000000000003000000000000000000000000282b3386571f7f794450d5789911a9804fa346b40000000000000000000000005ec52fb644072247c3264f0ac3db981cdebe3eca000000000000000000000000dcdd4628f858b45260c31d6ad076bd2c3d3c2f730000000000000000000000000000000000000000000000000000000000000000)]"
      ],
      "transaction": {
        "from": "0x0990be6db8c785fbbf9ded8baec612a10cae814b",
        "to": "0x6f475642a6e85809b1c36fa62763669b1b48dd5b",
        "gas": "0xf4240",
        "value": "0x0",
        "input": "0x6dbd9f9000000000000000000000000029acc7c504665a5ea95344796f784095f0cfcc58000000000000000000000000e1844c5d63a9543023008d332bd3d2e6f1fe1043000000000000000000000000000000000000000000000000000000000000006000000000000000000000000000000000000000000000000000000000000000010000000000000000000000000000000000000000000000000000000000000020000000000000000000000000000000000000000000000000000000000000762f0000000000000000000000000000000000000000000000000000000000000002000000000000000000000000000000000000000000000000000000000000006000000000000000000000000000000000000000000000000000000000000001800000000000000000000000000000000000000000000000000000000000000020000000000000000000000000000000000000000000000000000000000000000000000000000000000000000000000000000000000000000000000000000000030000000000000000000000000000000000000000000000000000000000000000000000000000000000000000000000000000000000000000000000000000000000000000000000000000000000000000000000000000000000000000000000c000000000000000000000000000000000000000000000000000000000000001400000000000000000000000000000000000000000000000000000000000000003000000000000000000000000282b3386571f7f794450d5789911a9804fa346b40000000000000000000000005ec52fb644072247c3264f0ac3db981cdebe3eca000000000000000000000000dcdd4628f858b45260c31d6ad076bd2c3d3c2f730000000000000000000000000000000000000000000000000000000000000000",
        "nonce": "0xf",
        "chainId": "0x8f"
      },
      "additionalContracts": [],
      "isFixedGasLimit": true
    },
    {
      "hash": "0x6b25532529053ff7318a36bd885c49f3b548a1734cb6ef3b89f3c89d99db2aca",
      "transactionType": "CALL",
      "contractName": null,
      "contractAddress": "0x6f475642a6e85809b1c36fa62763669b1b48dd5b",
      "function": "setConfig(address,address,(uint32,uint32,bytes)[])",
      "arguments": [
        "0x137643F7b2C189173867b3391f6629caB46F0F1a",
        "0xC39161c743D0307EB9BCc9FEF03eeb9Dc4802de7",
        "[(30255, 2, 0x0000000000000000000000000000000000000000000000000000000000000020000000000000000000000000000000000000000000000000000000000000000000000000000000000000000000000000000000000000000000000000000000030000000000000000000000000000000000000000000000000000000000000000000000000000000000000000000000000000000000000000000000000000000000000000000000000000000000000000000000000000000000000000000000c000000000000000000000000000000000000000000000000000000000000001400000000000000000000000000000000000000000000000000000000000000003000000000000000000000000282b3386571f7f794450d5789911a9804fa346b40000000000000000000000005ec52fb644072247c3264f0ac3db981cdebe3eca000000000000000000000000dcdd4628f858b45260c31d6ad076bd2c3d3c2f730000000000000000000000000000000000000000000000000000000000000000)]"
      ],
      "transaction": {
        "from": "0x0990be6db8c785fbbf9ded8baec612a10cae814b",
        "to": "0x6f475642a6e85809b1c36fa62763669b1b48dd5b",
        "gas": "0xf4240",
        "value": "0x0",
        "input": "0x6dbd9f90000000000000000000000000137643f7b2c189173867b3391f6629cab46f0f1a000000000000000000000000c39161c743d0307eb9bcc9fef03eeb9dc4802de7000000000000000000000000000000000000000000000000000000000000006000000000000000000000000000000000000000000000000000000000000000010000000000000000000000000000000000000000000000000000000000000020000000000000000000000000000000000000000000000000000000000000762f0000000000000000000000000000000000000000000000000000000000000002000000000000000000000000000000000000000000000000000000000000006000000000000000000000000000000000000000000000000000000000000001800000000000000000000000000000000000000000000000000000000000000020000000000000000000000000000000000000000000000000000000000000000000000000000000000000000000000000000000000000000000000000000000030000000000000000000000000000000000000000000000000000000000000000000000000000000000000000000000000000000000000000000000000000000000000000000000000000000000000000000000000000000000000000000000c000000000000000000000000000000000000000000000000000000000000001400000000000000000000000000000000000000000000000000000000000000003000000000000000000000000282b3386571f7f794450d5789911a9804fa346b40000000000000000000000005ec52fb644072247c3264f0ac3db981cdebe3eca000000000000000000000000dcdd4628f858b45260c31d6ad076bd2c3d3c2f730000000000000000000000000000000000000000000000000000000000000000",
        "nonce": "0x10",
        "chainId": "0x8f"
      },
      "additionalContracts": [],
      "isFixedGasLimit": true
    },
    {
      "hash": "0x2962ffca9646a3580f0f0de436c745ca8b60c30a5098b58e6028382adc2c7ea7",
      "transactionType": "CALL",
      "contractName": null,
      "contractAddress": "0x6f475642a6e85809b1c36fa62763669b1b48dd5b",
      "function": "setConfig(address,address,(uint32,uint32,bytes)[])",
      "arguments": [
        "0x137643F7b2C189173867b3391f6629caB46F0F1a",
        "0xe1844c5D63a9543023008D332Bd3d2e6f1FE1043",
        "[(30255, 2, 0x0000000000000000000000000000000000000000000000000000000000000020000000000000000000000000000000000000000000000000000000000000000000000000000000000000000000000000000000000000000000000000000000030000000000000000000000000000000000000000000000000000000000000000000000000000000000000000000000000000000000000000000000000000000000000000000000000000000000000000000000000000000000000000000000c000000000000000000000000000000000000000000000000000000000000001400000000000000000000000000000000000000000000000000000000000000003000000000000000000000000282b3386571f7f794450d5789911a9804fa346b40000000000000000000000005ec52fb644072247c3264f0ac3db981cdebe3eca000000000000000000000000dcdd4628f858b45260c31d6ad076bd2c3d3c2f730000000000000000000000000000000000000000000000000000000000000000)]"
      ],
      "transaction": {
        "from": "0x0990be6db8c785fbbf9ded8baec612a10cae814b",
        "to": "0x6f475642a6e85809b1c36fa62763669b1b48dd5b",
        "gas": "0xf4240",
        "value": "0x0",
        "input": "0x6dbd9f90000000000000000000000000137643f7b2c189173867b3391f6629cab46f0f1a000000000000000000000000e1844c5d63a9543023008d332bd3d2e6f1fe1043000000000000000000000000000000000000000000000000000000000000006000000000000000000000000000000000000000000000000000000000000000010000000000000000000000000000000000000000000000000000000000000020000000000000000000000000000000000000000000000000000000000000762f0000000000000000000000000000000000000000000000000000000000000002000000000000000000000000000000000000000000000000000000000000006000000000000000000000000000000000000000000000000000000000000001800000000000000000000000000000000000000000000000000000000000000020000000000000000000000000000000000000000000000000000000000000000000000000000000000000000000000000000000000000000000000000000000030000000000000000000000000000000000000000000000000000000000000000000000000000000000000000000000000000000000000000000000000000000000000000000000000000000000000000000000000000000000000000000000c000000000000000000000000000000000000000000000000000000000000001400000000000000000000000000000000000000000000000000000000000000003000000000000000000000000282b3386571f7f794450d5789911a9804fa346b40000000000000000000000005ec52fb644072247c3264f0ac3db981cdebe3eca000000000000000000000000dcdd4628f858b45260c31d6ad076bd2c3d3c2f730000000000000000000000000000000000000000000000000000000000000000",
        "nonce": "0x11",
        "chainId": "0x8f"
      },
      "additionalContracts": [],
      "isFixedGasLimit": true
    },
    {
      "hash": "0x68ac764826ad2c62a710e276c092b77179c549d3abd710e87859a31a593001c1",
      "transactionType": "CALL",
      "contractName": null,
      "contractAddress": "0x6f475642a6e85809b1c36fa62763669b1b48dd5b",
      "function": "setConfig(address,address,(uint32,uint32,bytes)[])",
      "arguments": [
        "0x3B4cf37A3335F21c945a40088404c715525fCb29",
        "0xC39161c743D0307EB9BCc9FEF03eeb9Dc4802de7",
        "[(30255, 2, 0x0000000000000000000000000000000000000000000000000000000000000020000000000000000000000000000000000000000000000000000000000000000000000000000000000000000000000000000000000000000000000000000000030000000000000000000000000000000000000000000000000000000000000000000000000000000000000000000000000000000000000000000000000000000000000000000000000000000000000000000000000000000000000000000000c000000000000000000000000000000000000000000000000000000000000001400000000000000000000000000000000000000000000000000000000000000003000000000000000000000000282b3386571f7f794450d5789911a9804fa346b40000000000000000000000005ec52fb644072247c3264f0ac3db981cdebe3eca000000000000000000000000dcdd4628f858b45260c31d6ad076bd2c3d3c2f730000000000000000000000000000000000000000000000000000000000000000)]"
      ],
      "transaction": {
        "from": "0x0990be6db8c785fbbf9ded8baec612a10cae814b",
        "to": "0x6f475642a6e85809b1c36fa62763669b1b48dd5b",
        "gas": "0xf4240",
        "value": "0x0",
        "input": "0x6dbd9f900000000000000000000000003b4cf37a3335f21c945a40088404c715525fcb29000000000000000000000000c39161c743d0307eb9bcc9fef03eeb9dc4802de7000000000000000000000000000000000000000000000000000000000000006000000000000000000000000000000000000000000000000000000000000000010000000000000000000000000000000000000000000000000000000000000020000000000000000000000000000000000000000000000000000000000000762f0000000000000000000000000000000000000000000000000000000000000002000000000000000000000000000000000000000000000000000000000000006000000000000000000000000000000000000000000000000000000000000001800000000000000000000000000000000000000000000000000000000000000020000000000000000000000000000000000000000000000000000000000000000000000000000000000000000000000000000000000000000000000000000000030000000000000000000000000000000000000000000000000000000000000000000000000000000000000000000000000000000000000000000000000000000000000000000000000000000000000000000000000000000000000000000000c000000000000000000000000000000000000000000000000000000000000001400000000000000000000000000000000000000000000000000000000000000003000000000000000000000000282b3386571f7f794450d5789911a9804fa346b40000000000000000000000005ec52fb644072247c3264f0ac3db981cdebe3eca000000000000000000000000dcdd4628f858b45260c31d6ad076bd2c3d3c2f730000000000000000000000000000000000000000000000000000000000000000",
        "nonce": "0x12",
        "chainId": "0x8f"
      },
      "additionalContracts": [],
      "isFixedGasLimit": true
    },
    {
      "hash": "0x1e841d01336b8c7f60ac365c7b3f8446252ef595dcefcca610d1207a20959daf",
      "transactionType": "CALL",
      "contractName": null,
      "contractAddress": "0x6f475642a6e85809b1c36fa62763669b1b48dd5b",
      "function": "setConfig(address,address,(uint32,uint32,bytes)[])",
      "arguments": [
        "0x3B4cf37A3335F21c945a40088404c715525fCb29",
        "0xe1844c5D63a9543023008D332Bd3d2e6f1FE1043",
        "[(30255, 2, 0x0000000000000000000000000000000000000000000000000000000000000020000000000000000000000000000000000000000000000000000000000000000000000000000000000000000000000000000000000000000000000000000000030000000000000000000000000000000000000000000000000000000000000000000000000000000000000000000000000000000000000000000000000000000000000000000000000000000000000000000000000000000000000000000000c000000000000000000000000000000000000000000000000000000000000001400000000000000000000000000000000000000000000000000000000000000003000000000000000000000000282b3386571f7f794450d5789911a9804fa346b40000000000000000000000005ec52fb644072247c3264f0ac3db981cdebe3eca000000000000000000000000dcdd4628f858b45260c31d6ad076bd2c3d3c2f730000000000000000000000000000000000000000000000000000000000000000)]"
      ],
      "transaction": {
        "from": "0x0990be6db8c785fbbf9ded8baec612a10cae814b",
        "to": "0x6f475642a6e85809b1c36fa62763669b1b48dd5b",
        "gas": "0xf4240",
        "value": "0x0",
        "input": "0x6dbd9f900000000000000000000000003b4cf37a3335f21c945a40088404c715525fcb29000000000000000000000000e1844c5d63a9543023008d332bd3d2e6f1fe1043000000000000000000000000000000000000000000000000000000000000006000000000000000000000000000000000000000000000000000000000000000010000000000000000000000000000000000000000000000000000000000000020000000000000000000000000000000000000000000000000000000000000762f0000000000000000000000000000000000000000000000000000000000000002000000000000000000000000000000000000000000000000000000000000006000000000000000000000000000000000000000000000000000000000000001800000000000000000000000000000000000000000000000000000000000000020000000000000000000000000000000000000000000000000000000000000000000000000000000000000000000000000000000000000000000000000000000030000000000000000000000000000000000000000000000000000000000000000000000000000000000000000000000000000000000000000000000000000000000000000000000000000000000000000000000000000000000000000000000c000000000000000000000000000000000000000000000000000000000000001400000000000000000000000000000000000000000000000000000000000000003000000000000000000000000282b3386571f7f794450d5789911a9804fa346b40000000000000000000000005ec52fb644072247c3264f0ac3db981cdebe3eca000000000000000000000000dcdd4628f858b45260c31d6ad076bd2c3d3c2f730000000000000000000000000000000000000000000000000000000000000000",
        "nonce": "0x13",
        "chainId": "0x8f"
      },
      "additionalContracts": [],
      "isFixedGasLimit": true
    },
    {
      "hash": "0x95960b1220ab7ade961d923489cbe6abc241bc8179766f42e5922b78e73e4742",
      "transactionType": "CALL",
      "contractName": null,
      "contractAddress": "0x6f475642a6e85809b1c36fa62763669b1b48dd5b",
      "function": "setConfig(address,address,(uint32,uint32,bytes)[])",
      "arguments": [
        "0x58E3ee6accd124642dDB5d3f91928816Be8D8ed3",
        "0xC39161c743D0307EB9BCc9FEF03eeb9Dc4802de7",
        "[(30255, 2, 0x0000000000000000000000000000000000000000000000000000000000000020000000000000000000000000000000000000000000000000000000000000000000000000000000000000000000000000000000000000000000000000000000030000000000000000000000000000000000000000000000000000000000000000000000000000000000000000000000000000000000000000000000000000000000000000000000000000000000000000000000000000000000000000000000c000000000000000000000000000000000000000000000000000000000000001400000000000000000000000000000000000000000000000000000000000000003000000000000000000000000282b3386571f7f794450d5789911a9804fa346b40000000000000000000000005ec52fb644072247c3264f0ac3db981cdebe3eca000000000000000000000000dcdd4628f858b45260c31d6ad076bd2c3d3c2f730000000000000000000000000000000000000000000000000000000000000000)]"
      ],
      "transaction": {
        "from": "0x0990be6db8c785fbbf9ded8baec612a10cae814b",
        "to": "0x6f475642a6e85809b1c36fa62763669b1b48dd5b",
        "gas": "0xf4240",
        "value": "0x0",
        "input": "0x6dbd9f9000000000000000000000000058e3ee6accd124642ddb5d3f91928816be8d8ed3000000000000000000000000c39161c743d0307eb9bcc9fef03eeb9dc4802de7000000000000000000000000000000000000000000000000000000000000006000000000000000000000000000000000000000000000000000000000000000010000000000000000000000000000000000000000000000000000000000000020000000000000000000000000000000000000000000000000000000000000762f0000000000000000000000000000000000000000000000000000000000000002000000000000000000000000000000000000000000000000000000000000006000000000000000000000000000000000000000000000000000000000000001800000000000000000000000000000000000000000000000000000000000000020000000000000000000000000000000000000000000000000000000000000000000000000000000000000000000000000000000000000000000000000000000030000000000000000000000000000000000000000000000000000000000000000000000000000000000000000000000000000000000000000000000000000000000000000000000000000000000000000000000000000000000000000000000c000000000000000000000000000000000000000000000000000000000000001400000000000000000000000000000000000000000000000000000000000000003000000000000000000000000282b3386571f7f794450d5789911a9804fa346b40000000000000000000000005ec52fb644072247c3264f0ac3db981cdebe3eca000000000000000000000000dcdd4628f858b45260c31d6ad076bd2c3d3c2f730000000000000000000000000000000000000000000000000000000000000000",
        "nonce": "0x14",
        "chainId": "0x8f"
      },
      "additionalContracts": [],
      "isFixedGasLimit": true
    },
    {
      "hash": "0x007d4c24f0f3f286c5f8d6e0ec80110890e1a42bca100f1e3d08b62d1ab0ac6b",
      "transactionType": "CALL",
      "contractName": null,
      "contractAddress": "0x6f475642a6e85809b1c36fa62763669b1b48dd5b",
      "function": "setConfig(address,address,(uint32,uint32,bytes)[])",
      "arguments": [
        "0x58E3ee6accd124642dDB5d3f91928816Be8D8ed3",
        "0xe1844c5D63a9543023008D332Bd3d2e6f1FE1043",
        "[(30255, 2, 0x0000000000000000000000000000000000000000000000000000000000000020000000000000000000000000000000000000000000000000000000000000000000000000000000000000000000000000000000000000000000000000000000030000000000000000000000000000000000000000000000000000000000000000000000000000000000000000000000000000000000000000000000000000000000000000000000000000000000000000000000000000000000000000000000c000000000000000000000000000000000000000000000000000000000000001400000000000000000000000000000000000000000000000000000000000000003000000000000000000000000282b3386571f7f794450d5789911a9804fa346b40000000000000000000000005ec52fb644072247c3264f0ac3db981cdebe3eca000000000000000000000000dcdd4628f858b45260c31d6ad076bd2c3d3c2f730000000000000000000000000000000000000000000000000000000000000000)]"
      ],
      "transaction": {
        "from": "0x0990be6db8c785fbbf9ded8baec612a10cae814b",
        "to": "0x6f475642a6e85809b1c36fa62763669b1b48dd5b",
        "gas": "0xf4240",
        "value": "0x0",
        "input": "0x6dbd9f9000000000000000000000000058e3ee6accd124642ddb5d3f91928816be8d8ed3000000000000000000000000e1844c5d63a9543023008d332bd3d2e6f1fe1043000000000000000000000000000000000000000000000000000000000000006000000000000000000000000000000000000000000000000000000000000000010000000000000000000000000000000000000000000000000000000000000020000000000000000000000000000000000000000000000000000000000000762f0000000000000000000000000000000000000000000000000000000000000002000000000000000000000000000000000000000000000000000000000000006000000000000000000000000000000000000000000000000000000000000001800000000000000000000000000000000000000000000000000000000000000020000000000000000000000000000000000000000000000000000000000000000000000000000000000000000000000000000000000000000000000000000000030000000000000000000000000000000000000000000000000000000000000000000000000000000000000000000000000000000000000000000000000000000000000000000000000000000000000000000000000000000000000000000000c000000000000000000000000000000000000000000000000000000000000001400000000000000000000000000000000000000000000000000000000000000003000000000000000000000000282b3386571f7f794450d5789911a9804fa346b40000000000000000000000005ec52fb644072247c3264f0ac3db981cdebe3eca000000000000000000000000dcdd4628f858b45260c31d6ad076bd2c3d3c2f730000000000000000000000000000000000000000000000000000000000000000",
        "nonce": "0x15",
        "chainId": "0x8f"
      },
      "additionalContracts": [],
      "isFixedGasLimit": true
    },
    {
      "hash": "0x39b59a16e23aae615013c82443fed9b242f4e5726e1c43ef682352e12b55169c",
      "transactionType": "CALL",
      "contractName": null,
      "contractAddress": "0x6f475642a6e85809b1c36fa62763669b1b48dd5b",
      "function": "setConfig(address,address,(uint32,uint32,bytes)[])",
      "arguments": [
        "0x288F9D76019469bfEb56BB77d86aFa2bF563B75B",
        "0xC39161c743D0307EB9BCc9FEF03eeb9Dc4802de7",
        "[(30255, 2, 0x0000000000000000000000000000000000000000000000000000000000000020000000000000000000000000000000000000000000000000000000000000000000000000000000000000000000000000000000000000000000000000000000030000000000000000000000000000000000000000000000000000000000000000000000000000000000000000000000000000000000000000000000000000000000000000000000000000000000000000000000000000000000000000000000c000000000000000000000000000000000000000000000000000000000000001400000000000000000000000000000000000000000000000000000000000000003000000000000000000000000282b3386571f7f794450d5789911a9804fa346b40000000000000000000000005ec52fb644072247c3264f0ac3db981cdebe3eca000000000000000000000000dcdd4628f858b45260c31d6ad076bd2c3d3c2f730000000000000000000000000000000000000000000000000000000000000000)]"
      ],
      "transaction": {
        "from": "0x0990be6db8c785fbbf9ded8baec612a10cae814b",
        "to": "0x6f475642a6e85809b1c36fa62763669b1b48dd5b",
        "gas": "0xf4240",
        "value": "0x0",
        "input": "0x6dbd9f90000000000000000000000000288f9d76019469bfeb56bb77d86afa2bf563b75b000000000000000000000000c39161c743d0307eb9bcc9fef03eeb9dc4802de7000000000000000000000000000000000000000000000000000000000000006000000000000000000000000000000000000000000000000000000000000000010000000000000000000000000000000000000000000000000000000000000020000000000000000000000000000000000000000000000000000000000000762f0000000000000000000000000000000000000000000000000000000000000002000000000000000000000000000000000000000000000000000000000000006000000000000000000000000000000000000000000000000000000000000001800000000000000000000000000000000000000000000000000000000000000020000000000000000000000000000000000000000000000000000000000000000000000000000000000000000000000000000000000000000000000000000000030000000000000000000000000000000000000000000000000000000000000000000000000000000000000000000000000000000000000000000000000000000000000000000000000000000000000000000000000000000000000000000000c000000000000000000000000000000000000000000000000000000000000001400000000000000000000000000000000000000000000000000000000000000003000000000000000000000000282b3386571f7f794450d5789911a9804fa346b40000000000000000000000005ec52fb644072247c3264f0ac3db981cdebe3eca000000000000000000000000dcdd4628f858b45260c31d6ad076bd2c3d3c2f730000000000000000000000000000000000000000000000000000000000000000",
        "nonce": "0x16",
        "chainId": "0x8f"
      },
      "additionalContracts": [],
      "isFixedGasLimit": true
    },
    {
      "hash": "0x9b82407991df92e5efc1a31bcef38042e15ba7be76b0f14a0b1b239c4914c707",
      "transactionType": "CALL",
      "contractName": null,
      "contractAddress": "0x6f475642a6e85809b1c36fa62763669b1b48dd5b",
      "function": "setConfig(address,address,(uint32,uint32,bytes)[])",
      "arguments": [
        "0x288F9D76019469bfEb56BB77d86aFa2bF563B75B",
        "0xe1844c5D63a9543023008D332Bd3d2e6f1FE1043",
        "[(30255, 2, 0x0000000000000000000000000000000000000000000000000000000000000020000000000000000000000000000000000000000000000000000000000000000000000000000000000000000000000000000000000000000000000000000000030000000000000000000000000000000000000000000000000000000000000000000000000000000000000000000000000000000000000000000000000000000000000000000000000000000000000000000000000000000000000000000000c000000000000000000000000000000000000000000000000000000000000001400000000000000000000000000000000000000000000000000000000000000003000000000000000000000000282b3386571f7f794450d5789911a9804fa346b40000000000000000000000005ec52fb644072247c3264f0ac3db981cdebe3eca000000000000000000000000dcdd4628f858b45260c31d6ad076bd2c3d3c2f730000000000000000000000000000000000000000000000000000000000000000)]"
      ],
      "transaction": {
        "from": "0x0990be6db8c785fbbf9ded8baec612a10cae814b",
        "to": "0x6f475642a6e85809b1c36fa62763669b1b48dd5b",
        "gas": "0xf4240",
        "value": "0x0",
        "input": "0x6dbd9f90000000000000000000000000288f9d76019469bfeb56bb77d86afa2bf563b75b000000000000000000000000e1844c5d63a9543023008d332bd3d2e6f1fe1043000000000000000000000000000000000000000000000000000000000000006000000000000000000000000000000000000000000000000000000000000000010000000000000000000000000000000000000000000000000000000000000020000000000000000000000000000000000000000000000000000000000000762f0000000000000000000000000000000000000000000000000000000000000002000000000000000000000000000000000000000000000000000000000000006000000000000000000000000000000000000000000000000000000000000001800000000000000000000000000000000000000000000000000000000000000020000000000000000000000000000000000000000000000000000000000000000000000000000000000000000000000000000000000000000000000000000000030000000000000000000000000000000000000000000000000000000000000000000000000000000000000000000000000000000000000000000000000000000000000000000000000000000000000000000000000000000000000000000000c000000000000000000000000000000000000000000000000000000000000001400000000000000000000000000000000000000000000000000000000000000003000000000000000000000000282b3386571f7f794450d5789911a9804fa346b40000000000000000000000005ec52fb644072247c3264f0ac3db981cdebe3eca000000000000000000000000dcdd4628f858b45260c31d6ad076bd2c3d3c2f730000000000000000000000000000000000000000000000000000000000000000",
        "nonce": "0x17",
        "chainId": "0x8f"
      },
      "additionalContracts": [],
      "isFixedGasLimit": true
    },
    {
      "hash": "0xd545899c41d1a36324b3ecbd3f4d1b677b2cf5a10b4ab400ae4ded8cc113c9bf",
      "transactionType": "CALL",
      "contractName": null,
      "contractAddress": "0x6f475642a6e85809b1c36fa62763669b1b48dd5b",
      "function": "setConfig(address,address,(uint32,uint32,bytes)[])",
      "arguments": [
        "0xBa554F7A47f0792b9fa41A1256d4cf628Bb1D028",
        "0xC39161c743D0307EB9BCc9FEF03eeb9Dc4802de7",
        "[(30255, 2, 0x0000000000000000000000000000000000000000000000000000000000000020000000000000000000000000000000000000000000000000000000000000000000000000000000000000000000000000000000000000000000000000000000030000000000000000000000000000000000000000000000000000000000000000000000000000000000000000000000000000000000000000000000000000000000000000000000000000000000000000000000000000000000000000000000c000000000000000000000000000000000000000000000000000000000000001400000000000000000000000000000000000000000000000000000000000000003000000000000000000000000282b3386571f7f794450d5789911a9804fa346b40000000000000000000000005ec52fb644072247c3264f0ac3db981cdebe3eca000000000000000000000000dcdd4628f858b45260c31d6ad076bd2c3d3c2f730000000000000000000000000000000000000000000000000000000000000000)]"
      ],
      "transaction": {
        "from": "0x0990be6db8c785fbbf9ded8baec612a10cae814b",
        "to": "0x6f475642a6e85809b1c36fa62763669b1b48dd5b",
        "gas": "0xf4240",
        "value": "0x0",
        "input": "0x6dbd9f90000000000000000000000000ba554f7a47f0792b9fa41a1256d4cf628bb1d028000000000000000000000000c39161c743d0307eb9bcc9fef03eeb9dc4802de7000000000000000000000000000000000000000000000000000000000000006000000000000000000000000000000000000000000000000000000000000000010000000000000000000000000000000000000000000000000000000000000020000000000000000000000000000000000000000000000000000000000000762f0000000000000000000000000000000000000000000000000000000000000002000000000000000000000000000000000000000000000000000000000000006000000000000000000000000000000000000000000000000000000000000001800000000000000000000000000000000000000000000000000000000000000020000000000000000000000000000000000000000000000000000000000000000000000000000000000000000000000000000000000000000000000000000000030000000000000000000000000000000000000000000000000000000000000000000000000000000000000000000000000000000000000000000000000000000000000000000000000000000000000000000000000000000000000000000000c000000000000000000000000000000000000000000000000000000000000001400000000000000000000000000000000000000000000000000000000000000003000000000000000000000000282b3386571f7f794450d5789911a9804fa346b40000000000000000000000005ec52fb644072247c3264f0ac3db981cdebe3eca000000000000000000000000dcdd4628f858b45260c31d6ad076bd2c3d3c2f730000000000000000000000000000000000000000000000000000000000000000",
        "nonce": "0x18",
        "chainId": "0x8f"
      },
      "additionalContracts": [],
      "isFixedGasLimit": true
    },
    {
      "hash": "0xb9d21d10941a1492141836affcdfaa040c99c88ce1df18959625c11acff0158d",
      "transactionType": "CALL",
      "contractName": null,
      "contractAddress": "0x6f475642a6e85809b1c36fa62763669b1b48dd5b",
      "function": "setConfig(address,address,(uint32,uint32,bytes)[])",
      "arguments": [
        "0xBa554F7A47f0792b9fa41A1256d4cf628Bb1D028",
        "0xe1844c5D63a9543023008D332Bd3d2e6f1FE1043",
        "[(30255, 2, 0x0000000000000000000000000000000000000000000000000000000000000020000000000000000000000000000000000000000000000000000000000000000000000000000000000000000000000000000000000000000000000000000000030000000000000000000000000000000000000000000000000000000000000000000000000000000000000000000000000000000000000000000000000000000000000000000000000000000000000000000000000000000000000000000000c000000000000000000000000000000000000000000000000000000000000001400000000000000000000000000000000000000000000000000000000000000003000000000000000000000000282b3386571f7f794450d5789911a9804fa346b40000000000000000000000005ec52fb644072247c3264f0ac3db981cdebe3eca000000000000000000000000dcdd4628f858b45260c31d6ad076bd2c3d3c2f730000000000000000000000000000000000000000000000000000000000000000)]"
      ],
      "transaction": {
        "from": "0x0990be6db8c785fbbf9ded8baec612a10cae814b",
        "to": "0x6f475642a6e85809b1c36fa62763669b1b48dd5b",
        "gas": "0xf4240",
        "value": "0x0",
        "input": "0x6dbd9f90000000000000000000000000ba554f7a47f0792b9fa41a1256d4cf628bb1d028000000000000000000000000e1844c5d63a9543023008d332bd3d2e6f1fe1043000000000000000000000000000000000000000000000000000000000000006000000000000000000000000000000000000000000000000000000000000000010000000000000000000000000000000000000000000000000000000000000020000000000000000000000000000000000000000000000000000000000000762f0000000000000000000000000000000000000000000000000000000000000002000000000000000000000000000000000000000000000000000000000000006000000000000000000000000000000000000000000000000000000000000001800000000000000000000000000000000000000000000000000000000000000020000000000000000000000000000000000000000000000000000000000000000000000000000000000000000000000000000000000000000000000000000000030000000000000000000000000000000000000000000000000000000000000000000000000000000000000000000000000000000000000000000000000000000000000000000000000000000000000000000000000000000000000000000000c000000000000000000000000000000000000000000000000000000000000001400000000000000000000000000000000000000000000000000000000000000003000000000000000000000000282b3386571f7f794450d5789911a9804fa346b40000000000000000000000005ec52fb644072247c3264f0ac3db981cdebe3eca000000000000000000000000dcdd4628f858b45260c31d6ad076bd2c3d3c2f730000000000000000000000000000000000000000000000000000000000000000",
        "nonce": "0x19",
        "chainId": "0x8f"
      },
      "additionalContracts": [],
      "isFixedGasLimit": true
    },
    {
      "hash": "0x0fab41e9264edfb9fa7f03534ede9d2448e408e8c8cf48ea8d21ca5059dd33fc",
      "transactionType": "CALL",
      "contractName": null,
      "contractAddress": "0x6f475642a6e85809b1c36fa62763669b1b48dd5b",
      "function": "setSendLibrary(address,uint32,address)",
      "arguments": [
        "0x29aCC7c504665A5EA95344796f784095f0cfcC58",
        "30255",
        "0xC39161c743D0307EB9BCc9FEF03eeb9Dc4802de7"
      ],
      "transaction": {
        "from": "0x0990be6db8c785fbbf9ded8baec612a10cae814b",
        "to": "0x6f475642a6e85809b1c36fa62763669b1b48dd5b",
        "gas": "0xf4240",
        "value": "0x0",
        "input": "0x9535ff3000000000000000000000000029acc7c504665a5ea95344796f784095f0cfcc58000000000000000000000000000000000000000000000000000000000000762f000000000000000000000000c39161c743d0307eb9bcc9fef03eeb9dc4802de7",
        "nonce": "0x1a",
        "chainId": "0x8f"
      },
      "additionalContracts": [],
      "isFixedGasLimit": true
    },
    {
      "hash": "0x6b0e83c049115bbb72132ad37e5d9227f02ae593709388178f5c202aadacccf3",
      "transactionType": "CALL",
      "contractName": null,
      "contractAddress": "0x6f475642a6e85809b1c36fa62763669b1b48dd5b",
      "function": "setReceiveLibrary(address,uint32,address,uint256)",
      "arguments": [
        "0x29aCC7c504665A5EA95344796f784095f0cfcC58",
        "30255",
        "0xe1844c5D63a9543023008D332Bd3d2e6f1FE1043",
        "0"
      ],
      "transaction": {
        "from": "0x0990be6db8c785fbbf9ded8baec612a10cae814b",
        "to": "0x6f475642a6e85809b1c36fa62763669b1b48dd5b",
        "gas": "0xf4240",
        "value": "0x0",
        "input": "0x6a14d71500000000000000000000000029acc7c504665a5ea95344796f784095f0cfcc58000000000000000000000000000000000000000000000000000000000000762f000000000000000000000000e1844c5d63a9543023008d332bd3d2e6f1fe10430000000000000000000000000000000000000000000000000000000000000000",
        "nonce": "0x1b",
        "chainId": "0x8f"
      },
      "additionalContracts": [],
      "isFixedGasLimit": true
    },
    {
      "hash": "0x18373be1b15f74982181dfa83e97139d3578f534721274a89c3a1cb01b34fa16",
      "transactionType": "CALL",
      "contractName": null,
      "contractAddress": "0x6f475642a6e85809b1c36fa62763669b1b48dd5b",
      "function": "setSendLibrary(address,uint32,address)",
      "arguments": [
        "0x137643F7b2C189173867b3391f6629caB46F0F1a",
        "30255",
        "0xC39161c743D0307EB9BCc9FEF03eeb9Dc4802de7"
      ],
      "transaction": {
        "from": "0x0990be6db8c785fbbf9ded8baec612a10cae814b",
        "to": "0x6f475642a6e85809b1c36fa62763669b1b48dd5b",
        "gas": "0xf4240",
        "value": "0x0",
        "input": "0x9535ff30000000000000000000000000137643f7b2c189173867b3391f6629cab46f0f1a000000000000000000000000000000000000000000000000000000000000762f000000000000000000000000c39161c743d0307eb9bcc9fef03eeb9dc4802de7",
        "nonce": "0x1c",
        "chainId": "0x8f"
      },
      "additionalContracts": [],
      "isFixedGasLimit": true
    },
    {
      "hash": "0x7b0a10a399791852b119e6da94ae233835ab68d4e16157eda3b077d853d29ed2",
      "transactionType": "CALL",
      "contractName": null,
      "contractAddress": "0x6f475642a6e85809b1c36fa62763669b1b48dd5b",
      "function": "setReceiveLibrary(address,uint32,address,uint256)",
      "arguments": [
        "0x137643F7b2C189173867b3391f6629caB46F0F1a",
        "30255",
        "0xe1844c5D63a9543023008D332Bd3d2e6f1FE1043",
        "0"
      ],
      "transaction": {
        "from": "0x0990be6db8c785fbbf9ded8baec612a10cae814b",
        "to": "0x6f475642a6e85809b1c36fa62763669b1b48dd5b",
        "gas": "0xf4240",
        "value": "0x0",
        "input": "0x6a14d715000000000000000000000000137643f7b2c189173867b3391f6629cab46f0f1a000000000000000000000000000000000000000000000000000000000000762f000000000000000000000000e1844c5d63a9543023008d332bd3d2e6f1fe10430000000000000000000000000000000000000000000000000000000000000000",
        "nonce": "0x1d",
        "chainId": "0x8f"
      },
      "additionalContracts": [],
      "isFixedGasLimit": true
    },
    {
      "hash": "0x4720cb3719603ee5c89ed062c8ffbc1d4769f94d65462ae4e59c1509b6d06419",
      "transactionType": "CALL",
      "contractName": null,
      "contractAddress": "0x6f475642a6e85809b1c36fa62763669b1b48dd5b",
      "function": "setSendLibrary(address,uint32,address)",
      "arguments": [
        "0x3B4cf37A3335F21c945a40088404c715525fCb29",
        "30255",
        "0xC39161c743D0307EB9BCc9FEF03eeb9Dc4802de7"
      ],
      "transaction": {
        "from": "0x0990be6db8c785fbbf9ded8baec612a10cae814b",
        "to": "0x6f475642a6e85809b1c36fa62763669b1b48dd5b",
        "gas": "0xf4240",
        "value": "0x0",
        "input": "0x9535ff300000000000000000000000003b4cf37a3335f21c945a40088404c715525fcb29000000000000000000000000000000000000000000000000000000000000762f000000000000000000000000c39161c743d0307eb9bcc9fef03eeb9dc4802de7",
        "nonce": "0x1e",
        "chainId": "0x8f"
      },
      "additionalContracts": [],
      "isFixedGasLimit": true
    },
    {
      "hash": "0x891f46af496f06862115047c0b539b04b0521db1f71907b2e900ed1c9c68dd67",
      "transactionType": "CALL",
      "contractName": null,
      "contractAddress": "0x6f475642a6e85809b1c36fa62763669b1b48dd5b",
      "function": "setReceiveLibrary(address,uint32,address,uint256)",
      "arguments": [
        "0x3B4cf37A3335F21c945a40088404c715525fCb29",
        "30255",
        "0xe1844c5D63a9543023008D332Bd3d2e6f1FE1043",
        "0"
      ],
      "transaction": {
        "from": "0x0990be6db8c785fbbf9ded8baec612a10cae814b",
        "to": "0x6f475642a6e85809b1c36fa62763669b1b48dd5b",
        "gas": "0xf4240",
        "value": "0x0",
        "input": "0x6a14d7150000000000000000000000003b4cf37a3335f21c945a40088404c715525fcb29000000000000000000000000000000000000000000000000000000000000762f000000000000000000000000e1844c5d63a9543023008d332bd3d2e6f1fe10430000000000000000000000000000000000000000000000000000000000000000",
        "nonce": "0x1f",
        "chainId": "0x8f"
      },
      "additionalContracts": [],
      "isFixedGasLimit": true
    },
    {
      "hash": "0xed58c8fd81e81c41be9ab4e3f0bcb4220ee75448ec72a4a896f7f5ad72d5836d",
      "transactionType": "CALL",
      "contractName": null,
      "contractAddress": "0x6f475642a6e85809b1c36fa62763669b1b48dd5b",
      "function": "setSendLibrary(address,uint32,address)",
      "arguments": [
        "0x58E3ee6accd124642dDB5d3f91928816Be8D8ed3",
        "30255",
        "0xC39161c743D0307EB9BCc9FEF03eeb9Dc4802de7"
      ],
      "transaction": {
        "from": "0x0990be6db8c785fbbf9ded8baec612a10cae814b",
        "to": "0x6f475642a6e85809b1c36fa62763669b1b48dd5b",
        "gas": "0xf4240",
        "value": "0x0",
        "input": "0x9535ff3000000000000000000000000058e3ee6accd124642ddb5d3f91928816be8d8ed3000000000000000000000000000000000000000000000000000000000000762f000000000000000000000000c39161c743d0307eb9bcc9fef03eeb9dc4802de7",
        "nonce": "0x20",
        "chainId": "0x8f"
      },
      "additionalContracts": [],
      "isFixedGasLimit": true
    },
    {
      "hash": "0x5a1000403a79a98abd8cf6e2e34844b9d82b4ee26d935bce8a222073ee47afbf",
      "transactionType": "CALL",
      "contractName": null,
      "contractAddress": "0x6f475642a6e85809b1c36fa62763669b1b48dd5b",
      "function": "setReceiveLibrary(address,uint32,address,uint256)",
      "arguments": [
        "0x58E3ee6accd124642dDB5d3f91928816Be8D8ed3",
        "30255",
        "0xe1844c5D63a9543023008D332Bd3d2e6f1FE1043",
        "0"
      ],
      "transaction": {
        "from": "0x0990be6db8c785fbbf9ded8baec612a10cae814b",
        "to": "0x6f475642a6e85809b1c36fa62763669b1b48dd5b",
        "gas": "0xf4240",
        "value": "0x0",
        "input": "0x6a14d71500000000000000000000000058e3ee6accd124642ddb5d3f91928816be8d8ed3000000000000000000000000000000000000000000000000000000000000762f000000000000000000000000e1844c5d63a9543023008d332bd3d2e6f1fe10430000000000000000000000000000000000000000000000000000000000000000",
        "nonce": "0x21",
        "chainId": "0x8f"
      },
      "additionalContracts": [],
      "isFixedGasLimit": true
    },
    {
      "hash": "0x35ebc5136b20ec364f2c18bbdbd325ab0d54b67b41f2392e08f0d4c6ed9e9b80",
      "transactionType": "CALL",
      "contractName": null,
      "contractAddress": "0x6f475642a6e85809b1c36fa62763669b1b48dd5b",
      "function": "setSendLibrary(address,uint32,address)",
      "arguments": [
        "0x288F9D76019469bfEb56BB77d86aFa2bF563B75B",
        "30255",
        "0xC39161c743D0307EB9BCc9FEF03eeb9Dc4802de7"
      ],
      "transaction": {
        "from": "0x0990be6db8c785fbbf9ded8baec612a10cae814b",
        "to": "0x6f475642a6e85809b1c36fa62763669b1b48dd5b",
        "gas": "0xf4240",
        "value": "0x0",
        "input": "0x9535ff30000000000000000000000000288f9d76019469bfeb56bb77d86afa2bf563b75b000000000000000000000000000000000000000000000000000000000000762f000000000000000000000000c39161c743d0307eb9bcc9fef03eeb9dc4802de7",
        "nonce": "0x22",
        "chainId": "0x8f"
      },
      "additionalContracts": [],
      "isFixedGasLimit": true
    },
    {
      "hash": "0x09fe6e553faa5ca5eb5404a2b052011eb7636d5177f35288450a356123e0138c",
      "transactionType": "CALL",
      "contractName": null,
      "contractAddress": "0x6f475642a6e85809b1c36fa62763669b1b48dd5b",
      "function": "setReceiveLibrary(address,uint32,address,uint256)",
      "arguments": [
        "0x288F9D76019469bfEb56BB77d86aFa2bF563B75B",
        "30255",
        "0xe1844c5D63a9543023008D332Bd3d2e6f1FE1043",
        "0"
      ],
      "transaction": {
        "from": "0x0990be6db8c785fbbf9ded8baec612a10cae814b",
        "to": "0x6f475642a6e85809b1c36fa62763669b1b48dd5b",
        "gas": "0xf4240",
        "value": "0x0",
        "input": "0x6a14d715000000000000000000000000288f9d76019469bfeb56bb77d86afa2bf563b75b000000000000000000000000000000000000000000000000000000000000762f000000000000000000000000e1844c5d63a9543023008d332bd3d2e6f1fe10430000000000000000000000000000000000000000000000000000000000000000",
        "nonce": "0x23",
        "chainId": "0x8f"
      },
      "additionalContracts": [],
      "isFixedGasLimit": true
    },
    {
      "hash": "0xf812034393fe01e0947ccafc41612297929d643d7e6d621a8fda4b6764b18571",
      "transactionType": "CALL",
      "contractName": null,
      "contractAddress": "0x6f475642a6e85809b1c36fa62763669b1b48dd5b",
      "function": "setSendLibrary(address,uint32,address)",
      "arguments": [
        "0xBa554F7A47f0792b9fa41A1256d4cf628Bb1D028",
        "30255",
        "0xC39161c743D0307EB9BCc9FEF03eeb9Dc4802de7"
      ],
      "transaction": {
        "from": "0x0990be6db8c785fbbf9ded8baec612a10cae814b",
        "to": "0x6f475642a6e85809b1c36fa62763669b1b48dd5b",
        "gas": "0xf4240",
        "value": "0x0",
        "input": "0x9535ff30000000000000000000000000ba554f7a47f0792b9fa41a1256d4cf628bb1d028000000000000000000000000000000000000000000000000000000000000762f000000000000000000000000c39161c743d0307eb9bcc9fef03eeb9dc4802de7",
        "nonce": "0x24",
        "chainId": "0x8f"
      },
      "additionalContracts": [],
      "isFixedGasLimit": true
    },
    {
      "hash": "0x5aa718696a12ed6c21a0ab8af3fdbf482e41f6c6f7bcb9a2e99ac64415e78bdd",
      "transactionType": "CALL",
      "contractName": null,
      "contractAddress": "0x6f475642a6e85809b1c36fa62763669b1b48dd5b",
      "function": "setReceiveLibrary(address,uint32,address,uint256)",
      "arguments": [
        "0xBa554F7A47f0792b9fa41A1256d4cf628Bb1D028",
        "30255",
        "0xe1844c5D63a9543023008D332Bd3d2e6f1FE1043",
        "0"
      ],
      "transaction": {
        "from": "0x0990be6db8c785fbbf9ded8baec612a10cae814b",
        "to": "0x6f475642a6e85809b1c36fa62763669b1b48dd5b",
        "gas": "0xf4240",
        "value": "0x0",
        "input": "0x6a14d715000000000000000000000000ba554f7a47f0792b9fa41a1256d4cf628bb1d028000000000000000000000000000000000000000000000000000000000000762f000000000000000000000000e1844c5d63a9543023008d332bd3d2e6f1fe10430000000000000000000000000000000000000000000000000000000000000000",
        "nonce": "0x25",
        "chainId": "0x8f"
      },
      "additionalContracts": [],
      "isFixedGasLimit": true
    },
    {
      "hash": "0x000f4b186179245aa817569ef05aef06251f259b7ea6ec214476cbcbad80596b",
      "transactionType": "CALL",
      "contractName": null,
      "contractAddress": "0x29acc7c504665a5ea95344796f784095f0cfcc58",
      "function": "setDelegate(address)",
      "arguments": [
        "0x47FF5bBAB981Ff022743AA4281D4d6Dd7Fb1a4D0"
      ],
      "transaction": {
        "from": "0x0990be6db8c785fbbf9ded8baec612a10cae814b",
        "to": "0x29acc7c504665a5ea95344796f784095f0cfcc58",
        "gas": "0xf4240",
        "value": "0x0",
        "input": "0xca5eb5e100000000000000000000000047ff5bbab981ff022743aa4281d4d6dd7fb1a4d0",
        "nonce": "0x26",
        "chainId": "0x8f"
      },
      "additionalContracts": [],
      "isFixedGasLimit": true
    },
    {
      "hash": "0x6b2e61944868e732a3720e3e37f65188e2ae76ef1566071c48f6b5a5290b40d5",
      "transactionType": "CALL",
      "contractName": null,
      "contractAddress": "0x29acc7c504665a5ea95344796f784095f0cfcc58",
      "function": "transferOwnership(address)",
      "arguments": [
        "0x47FF5bBAB981Ff022743AA4281D4d6Dd7Fb1a4D0"
      ],
      "transaction": {
        "from": "0x0990be6db8c785fbbf9ded8baec612a10cae814b",
        "to": "0x29acc7c504665a5ea95344796f784095f0cfcc58",
        "gas": "0xf4240",
        "value": "0x0",
        "input": "0xf2fde38b00000000000000000000000047ff5bbab981ff022743aa4281d4d6dd7fb1a4d0",
        "nonce": "0x27",
        "chainId": "0x8f"
      },
      "additionalContracts": [],
      "isFixedGasLimit": true
    },
    {
      "hash": "0xe01f8b41255a1d2df241175b06d8482ad92178c77102be84e959afcc2a6aae03",
      "transactionType": "CALL",
      "contractName": null,
      "contractAddress": "0x137643f7b2c189173867b3391f6629cab46f0f1a",
      "function": "setDelegate(address)",
      "arguments": [
        "0x47FF5bBAB981Ff022743AA4281D4d6Dd7Fb1a4D0"
      ],
      "transaction": {
        "from": "0x0990be6db8c785fbbf9ded8baec612a10cae814b",
        "to": "0x137643f7b2c189173867b3391f6629cab46f0f1a",
        "gas": "0xf4240",
        "value": "0x0",
        "input": "0xca5eb5e100000000000000000000000047ff5bbab981ff022743aa4281d4d6dd7fb1a4d0",
        "nonce": "0x28",
        "chainId": "0x8f"
      },
      "additionalContracts": [],
      "isFixedGasLimit": true
    },
    {
      "hash": "0xcba159967dec3e718eaf0dabad1632178b8d83ec5b4843e25f5abe7c93e7b7f5",
      "transactionType": "CALL",
      "contractName": null,
      "contractAddress": "0x137643f7b2c189173867b3391f6629cab46f0f1a",
      "function": "transferOwnership(address)",
      "arguments": [
        "0x47FF5bBAB981Ff022743AA4281D4d6Dd7Fb1a4D0"
      ],
      "transaction": {
        "from": "0x0990be6db8c785fbbf9ded8baec612a10cae814b",
        "to": "0x137643f7b2c189173867b3391f6629cab46f0f1a",
        "gas": "0xf4240",
        "value": "0x0",
        "input": "0xf2fde38b00000000000000000000000047ff5bbab981ff022743aa4281d4d6dd7fb1a4d0",
        "nonce": "0x29",
        "chainId": "0x8f"
      },
      "additionalContracts": [],
      "isFixedGasLimit": true
    },
    {
      "hash": "0x67a9651eedac71fe5600577b518d67fed354d31161289f6bdd210514f71f8a48",
      "transactionType": "CALL",
      "contractName": null,
      "contractAddress": "0x3b4cf37a3335f21c945a40088404c715525fcb29",
      "function": "setDelegate(address)",
      "arguments": [
        "0x47FF5bBAB981Ff022743AA4281D4d6Dd7Fb1a4D0"
      ],
      "transaction": {
        "from": "0x0990be6db8c785fbbf9ded8baec612a10cae814b",
        "to": "0x3b4cf37a3335f21c945a40088404c715525fcb29",
        "gas": "0xf4240",
        "value": "0x0",
        "input": "0xca5eb5e100000000000000000000000047ff5bbab981ff022743aa4281d4d6dd7fb1a4d0",
        "nonce": "0x2a",
        "chainId": "0x8f"
      },
      "additionalContracts": [],
      "isFixedGasLimit": true
    },
    {
      "hash": "0xb4139d00ec479132e778fad01dd934c564404cf149390b61fac05d158b8227dc",
      "transactionType": "CALL",
      "contractName": null,
      "contractAddress": "0x3b4cf37a3335f21c945a40088404c715525fcb29",
      "function": "transferOwnership(address)",
      "arguments": [
        "0x47FF5bBAB981Ff022743AA4281D4d6Dd7Fb1a4D0"
      ],
      "transaction": {
        "from": "0x0990be6db8c785fbbf9ded8baec612a10cae814b",
        "to": "0x3b4cf37a3335f21c945a40088404c715525fcb29",
        "gas": "0xf4240",
        "value": "0x0",
        "input": "0xf2fde38b00000000000000000000000047ff5bbab981ff022743aa4281d4d6dd7fb1a4d0",
        "nonce": "0x2b",
        "chainId": "0x8f"
      },
      "additionalContracts": [],
      "isFixedGasLimit": true
    },
    {
      "hash": "0x996125a841b5e62ac2d39a3421318d4102fb4f92e6812a35110feed977e50aca",
      "transactionType": "CALL",
      "contractName": null,
      "contractAddress": "0x58e3ee6accd124642ddb5d3f91928816be8d8ed3",
      "function": "setDelegate(address)",
      "arguments": [
        "0x47FF5bBAB981Ff022743AA4281D4d6Dd7Fb1a4D0"
      ],
      "transaction": {
        "from": "0x0990be6db8c785fbbf9ded8baec612a10cae814b",
        "to": "0x58e3ee6accd124642ddb5d3f91928816be8d8ed3",
        "gas": "0xf4240",
        "value": "0x0",
        "input": "0xca5eb5e100000000000000000000000047ff5bbab981ff022743aa4281d4d6dd7fb1a4d0",
        "nonce": "0x2c",
        "chainId": "0x8f"
      },
      "additionalContracts": [],
      "isFixedGasLimit": true
    },
    {
      "hash": "0x9bea922fba822d119adc23a5720b0bde1a669f48a7157ebc39396d56b7375fb7",
      "transactionType": "CALL",
      "contractName": null,
      "contractAddress": "0x58e3ee6accd124642ddb5d3f91928816be8d8ed3",
      "function": "transferOwnership(address)",
      "arguments": [
        "0x47FF5bBAB981Ff022743AA4281D4d6Dd7Fb1a4D0"
      ],
      "transaction": {
        "from": "0x0990be6db8c785fbbf9ded8baec612a10cae814b",
        "to": "0x58e3ee6accd124642ddb5d3f91928816be8d8ed3",
        "gas": "0xf4240",
        "value": "0x0",
        "input": "0xf2fde38b00000000000000000000000047ff5bbab981ff022743aa4281d4d6dd7fb1a4d0",
        "nonce": "0x2d",
        "chainId": "0x8f"
      },
      "additionalContracts": [],
      "isFixedGasLimit": true
    },
    {
      "hash": "0x4195fd8d70e45b31e31cb718ba31b10040be5c49c626a2744cc422f28454746e",
      "transactionType": "CALL",
      "contractName": null,
      "contractAddress": "0x288f9d76019469bfeb56bb77d86afa2bf563b75b",
      "function": "setDelegate(address)",
      "arguments": [
        "0x47FF5bBAB981Ff022743AA4281D4d6Dd7Fb1a4D0"
      ],
      "transaction": {
        "from": "0x0990be6db8c785fbbf9ded8baec612a10cae814b",
        "to": "0x288f9d76019469bfeb56bb77d86afa2bf563b75b",
        "gas": "0xf4240",
        "value": "0x0",
        "input": "0xca5eb5e100000000000000000000000047ff5bbab981ff022743aa4281d4d6dd7fb1a4d0",
        "nonce": "0x2e",
        "chainId": "0x8f"
      },
      "additionalContracts": [],
      "isFixedGasLimit": true
    },
    {
      "hash": "0x58fa2a56e0f43489fe05d5bc02549a5800b10749202a38a9c0cfeb89f54fd79e",
      "transactionType": "CALL",
      "contractName": null,
      "contractAddress": "0x288f9d76019469bfeb56bb77d86afa2bf563b75b",
      "function": "transferOwnership(address)",
      "arguments": [
        "0x47FF5bBAB981Ff022743AA4281D4d6Dd7Fb1a4D0"
      ],
      "transaction": {
        "from": "0x0990be6db8c785fbbf9ded8baec612a10cae814b",
        "to": "0x288f9d76019469bfeb56bb77d86afa2bf563b75b",
        "gas": "0xf4240",
        "value": "0x0",
        "input": "0xf2fde38b00000000000000000000000047ff5bbab981ff022743aa4281d4d6dd7fb1a4d0",
        "nonce": "0x2f",
        "chainId": "0x8f"
      },
      "additionalContracts": [],
      "isFixedGasLimit": true
    },
    {
      "hash": "0x25e1b25b55c1d797884771a6307a754f89f478f8e9e0708547d9f749dd0558ce",
      "transactionType": "CALL",
      "contractName": null,
      "contractAddress": "0xba554f7a47f0792b9fa41a1256d4cf628bb1d028",
      "function": "setDelegate(address)",
      "arguments": [
        "0x47FF5bBAB981Ff022743AA4281D4d6Dd7Fb1a4D0"
      ],
      "transaction": {
        "from": "0x0990be6db8c785fbbf9ded8baec612a10cae814b",
        "to": "0xba554f7a47f0792b9fa41a1256d4cf628bb1d028",
        "gas": "0xf4240",
        "value": "0x0",
        "input": "0xca5eb5e100000000000000000000000047ff5bbab981ff022743aa4281d4d6dd7fb1a4d0",
        "nonce": "0x30",
        "chainId": "0x8f"
      },
      "additionalContracts": [],
      "isFixedGasLimit": true
    },
    {
      "hash": "0x7b8fd9675a85f082b09bf8ef726d3a8c7e52d7b3605bc0466663817a95c90a84",
      "transactionType": "CALL",
      "contractName": null,
      "contractAddress": "0xba554f7a47f0792b9fa41a1256d4cf628bb1d028",
      "function": "transferOwnership(address)",
      "arguments": [
        "0x47FF5bBAB981Ff022743AA4281D4d6Dd7Fb1a4D0"
      ],
      "transaction": {
        "from": "0x0990be6db8c785fbbf9ded8baec612a10cae814b",
        "to": "0xba554f7a47f0792b9fa41a1256d4cf628bb1d028",
        "gas": "0xf4240",
        "value": "0x0",
        "input": "0xf2fde38b00000000000000000000000047ff5bbab981ff022743aa4281d4d6dd7fb1a4d0",
        "nonce": "0x31",
        "chainId": "0x8f"
      },
      "additionalContracts": [],
      "isFixedGasLimit": true
    },
    {
      "hash": "0x72c9ab7960b7c0ddca650ec6a847783827b7803f6f6d14870a1d0167831c4b09",
      "transactionType": "CALL",
      "contractName": null,
      "contractAddress": "0xc2871eae630640ce1a16b39a17c498f22d76c21a",
      "function": "transferOwnership(address)",
      "arguments": [
        "0x47FF5bBAB981Ff022743AA4281D4d6Dd7Fb1a4D0"
      ],
      "transaction": {
        "from": "0x0990be6db8c785fbbf9ded8baec612a10cae814b",
        "to": "0xc2871eae630640ce1a16b39a17c498f22d76c21a",
        "gas": "0xf4240",
        "value": "0x0",
        "input": "0xf2fde38b00000000000000000000000047ff5bbab981ff022743aa4281d4d6dd7fb1a4d0",
        "nonce": "0x32",
        "chainId": "0x8f"
      },
      "additionalContracts": [],
      "isFixedGasLimit": true
    }
  ],
  "receipts": [
    {
      "status": "0x1",
      "cumulativeGasUsed": "0x7ebd86",
      "logs": [
        {
          "address": "0xc39161c743d0307eb9bcc9fef03eeb9dc4802de7",
          "topics": [
            "0x82118522aa536ac0e96cc5c689407ae42b89d592aa133890a01f1509842f5081"
          ],
          "data": "0x00000000000000000000000029acc7c504665a5ea95344796f784095f0cfcc58000000000000000000000000000000000000000000000000000000000000762f0000000000000000000000000000000000000000000000000000000000000060000000000000000000000000000000000000000000000000000000000000000000000000000000000000000000000000000000000000000000000000000000030000000000000000000000000000000000000000000000000000000000000000000000000000000000000000000000000000000000000000000000000000000000000000000000000000000000000000000000000000000000000000000000c000000000000000000000000000000000000000000000000000000000000001400000000000000000000000000000000000000000000000000000000000000003000000000000000000000000282b3386571f7f794450d5789911a9804fa346b40000000000000000000000005ec52fb644072247c3264f0ac3db981cdebe3eca000000000000000000000000dcdd4628f858b45260c31d6ad076bd2c3d3c2f730000000000000000000000000000000000000000000000000000000000000000",
          "blockHash": "0xbbd4389812ccb5463bf520b6d013c396d3db730b13932d087ee51740f7765cc9",
          "blockNumber": "0x260b135",
          "blockTimestamp": "0x6931d934",
          "transactionHash": "0x139e91305fbb4751a3f29e7d6f6c9e602592ed21cc07bc18d5be4ff0e7f0bf8e",
          "transactionIndex": "0x6",
          "logIndex": "0x38",
          "removed": false
        }
      ],
      "logsBloom": "0x00100000000000000000000000000000000000000000000000000000000000000000000000000000000000000000000000000000000000000000000000000000000000000000000000000000000000000000000000000000002000000000000000000000000000000020000000000000000000000000000000000000000000000000000000800000000000000000000000000000000000000000000000000000000000000000000000000002000000000000000000000000000000000000000000000000000000000000000000000000000000000000000000000000000000000000000000000000000000000000000000000000000000000000000000000010",
      "type": "0x2",
      "transactionHash": "0x139e91305fbb4751a3f29e7d6f6c9e602592ed21cc07bc18d5be4ff0e7f0bf8e",
      "transactionIndex": "0x6",
      "blockHash": "0xbbd4389812ccb5463bf520b6d013c396d3db730b13932d087ee51740f7765cc9",
      "blockNumber": "0x260b135",
      "gasUsed": "0xf4240",
      "effectiveGasPrice": "0x17bfac7c00",
      "from": "0x0990be6db8c785fbbf9ded8baec612a10cae814b",
      "to": "0x6f475642a6e85809b1c36fa62763669b1b48dd5b",
      "contractAddress": null
    },
    {
      "status": "0x1",
      "cumulativeGasUsed": "0x3c5957",
      "logs": [
        {
          "address": "0xe1844c5d63a9543023008d332bd3d2e6f1fe1043",
          "topics": [
            "0x82118522aa536ac0e96cc5c689407ae42b89d592aa133890a01f1509842f5081"
          ],
          "data": "0x00000000000000000000000029acc7c504665a5ea95344796f784095f0cfcc58000000000000000000000000000000000000000000000000000000000000762f0000000000000000000000000000000000000000000000000000000000000060000000000000000000000000000000000000000000000000000000000000000000000000000000000000000000000000000000000000000000000000000000030000000000000000000000000000000000000000000000000000000000000000000000000000000000000000000000000000000000000000000000000000000000000000000000000000000000000000000000000000000000000000000000c000000000000000000000000000000000000000000000000000000000000001400000000000000000000000000000000000000000000000000000000000000003000000000000000000000000282b3386571f7f794450d5789911a9804fa346b40000000000000000000000005ec52fb644072247c3264f0ac3db981cdebe3eca000000000000000000000000dcdd4628f858b45260c31d6ad076bd2c3d3c2f730000000000000000000000000000000000000000000000000000000000000000",
          "blockHash": "0xd4fba1af364042ab435affd871e681224a1aa38a97d6e958f015ccdd2a400225",
          "blockNumber": "0x260b13a",
          "blockTimestamp": "0x6931d936",
          "transactionHash": "0x7fb243537ff9f0400928f3936e03c91c817d7828441ec1fbbf592b8b49accdb0",
          "transactionIndex": "0x5",
          "logIndex": "0x2a",
          "removed": false
        }
      ],
      "logsBloom": "0x00000000000000000000000000000000020000000000000000000000000000000000000000000000000000000000000000000000000000000000000000000000000000000000000000000000000000000000000000000000002000000000000000000000000000000000000000000000000000000000000000000000000000000000000000000000000000000000000000000000000000000000000000000000000000000000000000000002000000000000000000000000000000000000000000000000000000000000000000000000000000008000000000000000000000000000000000000002000000000000000000000000000000000000000000000010",
      "type": "0x2",
      "transactionHash": "0x7fb243537ff9f0400928f3936e03c91c817d7828441ec1fbbf592b8b49accdb0",
      "transactionIndex": "0x5",
      "blockHash": "0xd4fba1af364042ab435affd871e681224a1aa38a97d6e958f015ccdd2a400225",
      "blockNumber": "0x260b13a",
      "gasUsed": "0xf4240",
      "effectiveGasPrice": "0x17bfac7c00",
      "from": "0x0990be6db8c785fbbf9ded8baec612a10cae814b",
      "to": "0x6f475642a6e85809b1c36fa62763669b1b48dd5b",
      "contractAddress": null
    },
    {
      "status": "0x1",
      "cumulativeGasUsed": "0x17fa52",
      "logs": [
        {
          "address": "0xc39161c743d0307eb9bcc9fef03eeb9dc4802de7",
          "topics": [
            "0x82118522aa536ac0e96cc5c689407ae42b89d592aa133890a01f1509842f5081"
          ],
          "data": "0x000000000000000000000000137643f7b2c189173867b3391f6629cab46f0f1a000000000000000000000000000000000000000000000000000000000000762f0000000000000000000000000000000000000000000000000000000000000060000000000000000000000000000000000000000000000000000000000000000000000000000000000000000000000000000000000000000000000000000000030000000000000000000000000000000000000000000000000000000000000000000000000000000000000000000000000000000000000000000000000000000000000000000000000000000000000000000000000000000000000000000000c000000000000000000000000000000000000000000000000000000000000001400000000000000000000000000000000000000000000000000000000000000003000000000000000000000000282b3386571f7f794450d5789911a9804fa346b40000000000000000000000005ec52fb644072247c3264f0ac3db981cdebe3eca000000000000000000000000dcdd4628f858b45260c31d6ad076bd2c3d3c2f730000000000000000000000000000000000000000000000000000000000000000",
          "blockHash": "0xa8b29f19753f0499760442c7a6162cc101dc476bc06c22118d457c7fcd711aee",
          "blockNumber": "0x260b13f",
          "blockTimestamp": "0x6931d938",
          "transactionHash": "0x6b25532529053ff7318a36bd885c49f3b548a1734cb6ef3b89f3c89d99db2aca",
          "transactionIndex": "0x3",
          "logIndex": "0x9",
          "removed": false
        }
      ],
      "logsBloom": "0x00100000000000000000000000000000000000000000000000000000000000000000000000000000000000000000000000000000000000000000000000000000000000000000000000000000000000000000000000000000002000000000000000000000000000000020000000000000000000000000000000000000000000000000000000800000000000000000000000000000000000000000000000000000000000000000000000000002000000000000000000000000000000000000000000000000000000000000000000000000000000000000000000000000000000000000000000000000000000000000000000000000000000000000000000000010",
      "type": "0x2",
      "transactionHash": "0x6b25532529053ff7318a36bd885c49f3b548a1734cb6ef3b89f3c89d99db2aca",
      "transactionIndex": "0x3",
      "blockHash": "0xa8b29f19753f0499760442c7a6162cc101dc476bc06c22118d457c7fcd711aee",
      "blockNumber": "0x260b13f",
      "gasUsed": "0xf4240",
      "effectiveGasPrice": "0x17bfac7c00",
      "from": "0x0990be6db8c785fbbf9ded8baec612a10cae814b",
      "to": "0x6f475642a6e85809b1c36fa62763669b1b48dd5b",
      "contractAddress": null
    },
    {
      "status": "0x1",
      "cumulativeGasUsed": "0x103de7",
      "logs": [
        {
          "address": "0xe1844c5d63a9543023008d332bd3d2e6f1fe1043",
          "topics": [
            "0x82118522aa536ac0e96cc5c689407ae42b89d592aa133890a01f1509842f5081"
          ],
          "data": "0x000000000000000000000000137643f7b2c189173867b3391f6629cab46f0f1a000000000000000000000000000000000000000000000000000000000000762f0000000000000000000000000000000000000000000000000000000000000060000000000000000000000000000000000000000000000000000000000000000000000000000000000000000000000000000000000000000000000000000000030000000000000000000000000000000000000000000000000000000000000000000000000000000000000000000000000000000000000000000000000000000000000000000000000000000000000000000000000000000000000000000000c000000000000000000000000000000000000000000000000000000000000001400000000000000000000000000000000000000000000000000000000000000003000000000000000000000000282b3386571f7f794450d5789911a9804fa346b40000000000000000000000005ec52fb644072247c3264f0ac3db981cdebe3eca000000000000000000000000dcdd4628f858b45260c31d6ad076bd2c3d3c2f730000000000000000000000000000000000000000000000000000000000000000",
          "blockHash": "0x1d6a7fcf2ed029e19556b93bd33341b42be259ff23ab7c0e9711a418d514830e",
          "blockNumber": "0x260b144",
          "blockTimestamp": "0x6931d93a",
          "transactionHash": "0x2962ffca9646a3580f0f0de436c745ca8b60c30a5098b58e6028382adc2c7ea7",
          "transactionIndex": "0x2",
          "logIndex": "0x2",
          "removed": false
        }
      ],
      "logsBloom": "0x00000000000000000000000000000000020000000000000000000000000000000000000000000000000000000000000000000000000000000000000000000000000000000000000000000000000000000000000000000000002000000000000000000000000000000000000000000000000000000000000000000000000000000000000000000000000000000000000000000000000000000000000000000000000000000000000000000002000000000000000000000000000000000000000000000000000000000000000000000000000000008000000000000000000000000000000000000002000000000000000000000000000000000000000000000010",
      "type": "0x2",
      "transactionHash": "0x2962ffca9646a3580f0f0de436c745ca8b60c30a5098b58e6028382adc2c7ea7",
      "transactionIndex": "0x2",
      "blockHash": "0x1d6a7fcf2ed029e19556b93bd33341b42be259ff23ab7c0e9711a418d514830e",
      "blockNumber": "0x260b144",
      "gasUsed": "0xf4240",
      "effectiveGasPrice": "0x17bfac7c00",
      "from": "0x0990be6db8c785fbbf9ded8baec612a10cae814b",
      "to": "0x6f475642a6e85809b1c36fa62763669b1b48dd5b",
      "contractAddress": null
    },
    {
      "status": "0x1",
      "cumulativeGasUsed": "0x18bc08",
      "logs": [
        {
          "address": "0xc39161c743d0307eb9bcc9fef03eeb9dc4802de7",
          "topics": [
            "0x82118522aa536ac0e96cc5c689407ae42b89d592aa133890a01f1509842f5081"
          ],
          "data": "0x0000000000000000000000003b4cf37a3335f21c945a40088404c715525fcb29000000000000000000000000000000000000000000000000000000000000762f0000000000000000000000000000000000000000000000000000000000000060000000000000000000000000000000000000000000000000000000000000000000000000000000000000000000000000000000000000000000000000000000030000000000000000000000000000000000000000000000000000000000000000000000000000000000000000000000000000000000000000000000000000000000000000000000000000000000000000000000000000000000000000000000c000000000000000000000000000000000000000000000000000000000000001400000000000000000000000000000000000000000000000000000000000000003000000000000000000000000282b3386571f7f794450d5789911a9804fa346b40000000000000000000000005ec52fb644072247c3264f0ac3db981cdebe3eca000000000000000000000000dcdd4628f858b45260c31d6ad076bd2c3d3c2f730000000000000000000000000000000000000000000000000000000000000000",
          "blockHash": "0x622d9748d667d69267296cda54e8d8ff9a958df04fc2d520c8655fb0afbf1804",
          "blockNumber": "0x260b149",
          "blockTimestamp": "0x6931d93c",
          "transactionHash": "0x68ac764826ad2c62a710e276c092b77179c549d3abd710e87859a31a593001c1",
          "transactionIndex": "0x4",
          "logIndex": "0x6",
          "removed": false
        }
      ],
      "logsBloom": "0x00100000000000000000000000000000000000000000000000000000000000000000000000000000000000000000000000000000000000000000000000000000000000000000000000000000000000000000000000000000002000000000000000000000000000000020000000000000000000000000000000000000000000000000000000800000000000000000000000000000000000000000000000000000000000000000000000000002000000000000000000000000000000000000000000000000000000000000000000000000000000000000000000000000000000000000000000000000000000000000000000000000000000000000000000000010",
      "type": "0x2",
      "transactionHash": "0x68ac764826ad2c62a710e276c092b77179c549d3abd710e87859a31a593001c1",
      "transactionIndex": "0x4",
      "blockHash": "0x622d9748d667d69267296cda54e8d8ff9a958df04fc2d520c8655fb0afbf1804",
      "blockNumber": "0x260b149",
      "gasUsed": "0xf4240",
      "effectiveGasPrice": "0x17bfac7c00",
      "from": "0x0990be6db8c785fbbf9ded8baec612a10cae814b",
      "to": "0x6f475642a6e85809b1c36fa62763669b1b48dd5b",
      "contractAddress": null
    },
    {
      "status": "0x1",
      "cumulativeGasUsed": "0x124f80",
      "logs": [
        {
          "address": "0xe1844c5d63a9543023008d332bd3d2e6f1fe1043",
          "topics": [
            "0x82118522aa536ac0e96cc5c689407ae42b89d592aa133890a01f1509842f5081"
          ],
          "data": "0x0000000000000000000000003b4cf37a3335f21c945a40088404c715525fcb29000000000000000000000000000000000000000000000000000000000000762f0000000000000000000000000000000000000000000000000000000000000060000000000000000000000000000000000000000000000000000000000000000000000000000000000000000000000000000000000000000000000000000000030000000000000000000000000000000000000000000000000000000000000000000000000000000000000000000000000000000000000000000000000000000000000000000000000000000000000000000000000000000000000000000000c000000000000000000000000000000000000000000000000000000000000001400000000000000000000000000000000000000000000000000000000000000003000000000000000000000000282b3386571f7f794450d5789911a9804fa346b40000000000000000000000005ec52fb644072247c3264f0ac3db981cdebe3eca000000000000000000000000dcdd4628f858b45260c31d6ad076bd2c3d3c2f730000000000000000000000000000000000000000000000000000000000000000",
          "blockHash": "0x70ed447fe0b6b2da2ae2c4a10a20c14b01fcb80d7c9d8e7c26164214d0d85b09",
          "blockNumber": "0x260b14e",
          "blockTimestamp": "0x6931d93e",
          "transactionHash": "0x1e841d01336b8c7f60ac365c7b3f8446252ef595dcefcca610d1207a20959daf",
          "transactionIndex": "0x3",
          "logIndex": "0x1",
          "removed": false
        }
      ],
      "logsBloom": "0x00000000000000000000000000000000020000000000000000000000000000000000000000000000000000000000000000000000000000000000000000000000000000000000000000000000000000000000000000000000002000000000000000000000000000000000000000000000000000000000000000000000000000000000000000000000000000000000000000000000000000000000000000000000000000000000000000000002000000000000000000000000000000000000000000000000000000000000000000000000000000008000000000000000000000000000000000000002000000000000000000000000000000000000000000000010",
      "type": "0x2",
      "transactionHash": "0x1e841d01336b8c7f60ac365c7b3f8446252ef595dcefcca610d1207a20959daf",
      "transactionIndex": "0x3",
      "blockHash": "0x70ed447fe0b6b2da2ae2c4a10a20c14b01fcb80d7c9d8e7c26164214d0d85b09",
      "blockNumber": "0x260b14e",
      "gasUsed": "0xf4240",
      "effectiveGasPrice": "0x17bfac7c00",
      "from": "0x0990be6db8c785fbbf9ded8baec612a10cae814b",
      "to": "0x6f475642a6e85809b1c36fa62763669b1b48dd5b",
      "contractAddress": null
    },
    {
      "status": "0x1",
      "cumulativeGasUsed": "0x142469",
      "logs": [
        {
          "address": "0xc39161c743d0307eb9bcc9fef03eeb9dc4802de7",
          "topics": [
            "0x82118522aa536ac0e96cc5c689407ae42b89d592aa133890a01f1509842f5081"
          ],
          "data": "0x00000000000000000000000058e3ee6accd124642ddb5d3f91928816be8d8ed3000000000000000000000000000000000000000000000000000000000000762f0000000000000000000000000000000000000000000000000000000000000060000000000000000000000000000000000000000000000000000000000000000000000000000000000000000000000000000000000000000000000000000000030000000000000000000000000000000000000000000000000000000000000000000000000000000000000000000000000000000000000000000000000000000000000000000000000000000000000000000000000000000000000000000000c000000000000000000000000000000000000000000000000000000000000001400000000000000000000000000000000000000000000000000000000000000003000000000000000000000000282b3386571f7f794450d5789911a9804fa346b40000000000000000000000005ec52fb644072247c3264f0ac3db981cdebe3eca000000000000000000000000dcdd4628f858b45260c31d6ad076bd2c3d3c2f730000000000000000000000000000000000000000000000000000000000000000",
          "blockHash": "0xc0155e387f41e0ce000fd82e152bb79498e41cb50284ba56118752973a749c6f",
          "blockNumber": "0x260b152",
          "blockTimestamp": "0x6931d940",
          "transactionHash": "0x95960b1220ab7ade961d923489cbe6abc241bc8179766f42e5922b78e73e4742",
          "transactionIndex": "0x5",
          "logIndex": "0x1",
          "removed": false
        }
      ],
      "logsBloom": "0x00100000000000000000000000000000000000000000000000000000000000000000000000000000000000000000000000000000000000000000000000000000000000000000000000000000000000000000000000000000002000000000000000000000000000000020000000000000000000000000000000000000000000000000000000800000000000000000000000000000000000000000000000000000000000000000000000000002000000000000000000000000000000000000000000000000000000000000000000000000000000000000000000000000000000000000000000000000000000000000000000000000000000000000000000000010",
      "type": "0x2",
      "transactionHash": "0x95960b1220ab7ade961d923489cbe6abc241bc8179766f42e5922b78e73e4742",
      "transactionIndex": "0x5",
      "blockHash": "0xc0155e387f41e0ce000fd82e152bb79498e41cb50284ba56118752973a749c6f",
      "blockNumber": "0x260b152",
      "gasUsed": "0xf4240",
      "effectiveGasPrice": "0x17bfac7c00",
      "from": "0x0990be6db8c785fbbf9ded8baec612a10cae814b",
      "to": "0x6f475642a6e85809b1c36fa62763669b1b48dd5b",
      "contractAddress": null
    },
    {
      "status": "0x1",
      "cumulativeGasUsed": "0x276734",
      "logs": [
        {
          "address": "0xe1844c5d63a9543023008d332bd3d2e6f1fe1043",
          "topics": [
            "0x82118522aa536ac0e96cc5c689407ae42b89d592aa133890a01f1509842f5081"
          ],
          "data": "0x00000000000000000000000058e3ee6accd124642ddb5d3f91928816be8d8ed3000000000000000000000000000000000000000000000000000000000000762f0000000000000000000000000000000000000000000000000000000000000060000000000000000000000000000000000000000000000000000000000000000000000000000000000000000000000000000000000000000000000000000000030000000000000000000000000000000000000000000000000000000000000000000000000000000000000000000000000000000000000000000000000000000000000000000000000000000000000000000000000000000000000000000000c000000000000000000000000000000000000000000000000000000000000001400000000000000000000000000000000000000000000000000000000000000003000000000000000000000000282b3386571f7f794450d5789911a9804fa346b40000000000000000000000005ec52fb644072247c3264f0ac3db981cdebe3eca000000000000000000000000dcdd4628f858b45260c31d6ad076bd2c3d3c2f730000000000000000000000000000000000000000000000000000000000000000",
          "blockHash": "0x31c9d75da5a4409110a94d7fe687ecaab0873205781ac24e375aa6228d2d7da3",
          "blockNumber": "0x260b157",
          "blockTimestamp": "0x6931d942",
          "transactionHash": "0x007d4c24f0f3f286c5f8d6e0ec80110890e1a42bca100f1e3d08b62d1ab0ac6b",
          "transactionIndex": "0x5",
          "logIndex": "0xd",
          "removed": false
        }
      ],
      "logsBloom": "0x00000000000000000000000000000000020000000000000000000000000000000000000000000000000000000000000000000000000000000000000000000000000000000000000000000000000000000000000000000000002000000000000000000000000000000000000000000000000000000000000000000000000000000000000000000000000000000000000000000000000000000000000000000000000000000000000000000002000000000000000000000000000000000000000000000000000000000000000000000000000000008000000000000000000000000000000000000002000000000000000000000000000000000000000000000010",
      "type": "0x2",
      "transactionHash": "0x007d4c24f0f3f286c5f8d6e0ec80110890e1a42bca100f1e3d08b62d1ab0ac6b",
      "transactionIndex": "0x5",
      "blockHash": "0x31c9d75da5a4409110a94d7fe687ecaab0873205781ac24e375aa6228d2d7da3",
      "blockNumber": "0x260b157",
      "gasUsed": "0xf4240",
      "effectiveGasPrice": "0x17bfac7c00",
      "from": "0x0990be6db8c785fbbf9ded8baec612a10cae814b",
      "to": "0x6f475642a6e85809b1c36fa62763669b1b48dd5b",
      "contractAddress": null
    },
    {
      "status": "0x1",
      "cumulativeGasUsed": "0x721fad",
      "logs": [
        {
          "address": "0xc39161c743d0307eb9bcc9fef03eeb9dc4802de7",
          "topics": [
            "0x82118522aa536ac0e96cc5c689407ae42b89d592aa133890a01f1509842f5081"
          ],
          "data": "0x000000000000000000000000288f9d76019469bfeb56bb77d86afa2bf563b75b000000000000000000000000000000000000000000000000000000000000762f0000000000000000000000000000000000000000000000000000000000000060000000000000000000000000000000000000000000000000000000000000000000000000000000000000000000000000000000000000000000000000000000030000000000000000000000000000000000000000000000000000000000000000000000000000000000000000000000000000000000000000000000000000000000000000000000000000000000000000000000000000000000000000000000c000000000000000000000000000000000000000000000000000000000000001400000000000000000000000000000000000000000000000000000000000000003000000000000000000000000282b3386571f7f794450d5789911a9804fa346b40000000000000000000000005ec52fb644072247c3264f0ac3db981cdebe3eca000000000000000000000000dcdd4628f858b45260c31d6ad076bd2c3d3c2f730000000000000000000000000000000000000000000000000000000000000000",
          "blockHash": "0x1faf390a266e2def677010b388ce9fa438fd2fd28dd821dae4f4c60955cfa07c",
          "blockNumber": "0x260b15c",
          "blockTimestamp": "0x6931d944",
          "transactionHash": "0x39b59a16e23aae615013c82443fed9b242f4e5726e1c43ef682352e12b55169c",
          "transactionIndex": "0xa",
          "logIndex": "0x58",
          "removed": false
        }
      ],
      "logsBloom": "0x00100000000000000000000000000000000000000000000000000000000000000000000000000000000000000000000000000000000000000000000000000000000000000000000000000000000000000000000000000000002000000000000000000000000000000020000000000000000000000000000000000000000000000000000000800000000000000000000000000000000000000000000000000000000000000000000000000002000000000000000000000000000000000000000000000000000000000000000000000000000000000000000000000000000000000000000000000000000000000000000000000000000000000000000000000010",
      "type": "0x2",
      "transactionHash": "0x39b59a16e23aae615013c82443fed9b242f4e5726e1c43ef682352e12b55169c",
      "transactionIndex": "0xa",
      "blockHash": "0x1faf390a266e2def677010b388ce9fa438fd2fd28dd821dae4f4c60955cfa07c",
      "blockNumber": "0x260b15c",
      "gasUsed": "0xf4240",
      "effectiveGasPrice": "0x17bfac7c00",
      "from": "0x0990be6db8c785fbbf9ded8baec612a10cae814b",
      "to": "0x6f475642a6e85809b1c36fa62763669b1b48dd5b",
      "contractAddress": null
    },
    {
      "status": "0x1",
      "cumulativeGasUsed": "0xcbebaf",
      "logs": [
        {
          "address": "0xe1844c5d63a9543023008d332bd3d2e6f1fe1043",
          "topics": [
            "0x82118522aa536ac0e96cc5c689407ae42b89d592aa133890a01f1509842f5081"
          ],
          "data": "0x000000000000000000000000288f9d76019469bfeb56bb77d86afa2bf563b75b000000000000000000000000000000000000000000000000000000000000762f0000000000000000000000000000000000000000000000000000000000000060000000000000000000000000000000000000000000000000000000000000000000000000000000000000000000000000000000000000000000000000000000030000000000000000000000000000000000000000000000000000000000000000000000000000000000000000000000000000000000000000000000000000000000000000000000000000000000000000000000000000000000000000000000c000000000000000000000000000000000000000000000000000000000000001400000000000000000000000000000000000000000000000000000000000000003000000000000000000000000282b3386571f7f794450d5789911a9804fa346b40000000000000000000000005ec52fb644072247c3264f0ac3db981cdebe3eca000000000000000000000000dcdd4628f858b45260c31d6ad076bd2c3d3c2f730000000000000000000000000000000000000000000000000000000000000000",
          "blockHash": "0x99277dae1489f6979d3bc01b9a6b176345c72223d5436b2be22e80edc73f361e",
          "blockNumber": "0x260b160",
          "blockTimestamp": "0x6931d945",
          "transactionHash": "0x9b82407991df92e5efc1a31bcef38042e15ba7be76b0f14a0b1b239c4914c707",
          "transactionIndex": "0x16",
          "logIndex": "0x3a",
          "removed": false
        }
      ],
      "logsBloom": "0x00000000000000000000000000000000020000000000000000000000000000000000000000000000000000000000000000000000000000000000000000000000000000000000000000000000000000000000000000000000002000000000000000000000000000000000000000000000000000000000000000000000000000000000000000000000000000000000000000000000000000000000000000000000000000000000000000000002000000000000000000000000000000000000000000000000000000000000000000000000000000008000000000000000000000000000000000000002000000000000000000000000000000000000000000000010",
      "type": "0x2",
      "transactionHash": "0x9b82407991df92e5efc1a31bcef38042e15ba7be76b0f14a0b1b239c4914c707",
      "transactionIndex": "0x16",
      "blockHash": "0x99277dae1489f6979d3bc01b9a6b176345c72223d5436b2be22e80edc73f361e",
      "blockNumber": "0x260b160",
      "gasUsed": "0xf4240",
      "effectiveGasPrice": "0x17bfac7c00",
      "from": "0x0990be6db8c785fbbf9ded8baec612a10cae814b",
      "to": "0x6f475642a6e85809b1c36fa62763669b1b48dd5b",
      "contractAddress": null
    },
    {
      "status": "0x1",
      "cumulativeGasUsed": "0x52caf1",
      "logs": [
        {
          "address": "0xc39161c743d0307eb9bcc9fef03eeb9dc4802de7",
          "topics": [
            "0x82118522aa536ac0e96cc5c689407ae42b89d592aa133890a01f1509842f5081"
          ],
          "data": "0x000000000000000000000000ba554f7a47f0792b9fa41a1256d4cf628bb1d028000000000000000000000000000000000000000000000000000000000000762f0000000000000000000000000000000000000000000000000000000000000060000000000000000000000000000000000000000000000000000000000000000000000000000000000000000000000000000000000000000000000000000000030000000000000000000000000000000000000000000000000000000000000000000000000000000000000000000000000000000000000000000000000000000000000000000000000000000000000000000000000000000000000000000000c000000000000000000000000000000000000000000000000000000000000001400000000000000000000000000000000000000000000000000000000000000003000000000000000000000000282b3386571f7f794450d5789911a9804fa346b40000000000000000000000005ec52fb644072247c3264f0ac3db981cdebe3eca000000000000000000000000dcdd4628f858b45260c31d6ad076bd2c3d3c2f730000000000000000000000000000000000000000000000000000000000000000",
          "blockHash": "0xcc208cace51afe26e534fe53a954b04551cd8c37935cb043cb0fa3dc1ee805e8",
          "blockNumber": "0x260b165",
          "blockTimestamp": "0x6931d947",
          "transactionHash": "0xd545899c41d1a36324b3ecbd3f4d1b677b2cf5a10b4ab400ae4ded8cc113c9bf",
          "transactionIndex": "0x5",
          "logIndex": "0x2b",
          "removed": false
        }
      ],
      "logsBloom": "0x00100000000000000000000000000000000000000000000000000000000000000000000000000000000000000000000000000000000000000000000000000000000000000000000000000000000000000000000000000000002000000000000000000000000000000020000000000000000000000000000000000000000000000000000000800000000000000000000000000000000000000000000000000000000000000000000000000002000000000000000000000000000000000000000000000000000000000000000000000000000000000000000000000000000000000000000000000000000000000000000000000000000000000000000000000010",
      "type": "0x2",
      "transactionHash": "0xd545899c41d1a36324b3ecbd3f4d1b677b2cf5a10b4ab400ae4ded8cc113c9bf",
      "transactionIndex": "0x5",
      "blockHash": "0xcc208cace51afe26e534fe53a954b04551cd8c37935cb043cb0fa3dc1ee805e8",
      "blockNumber": "0x260b165",
      "gasUsed": "0xf4240",
      "effectiveGasPrice": "0x17bfac7c00",
      "from": "0x0990be6db8c785fbbf9ded8baec612a10cae814b",
      "to": "0x6f475642a6e85809b1c36fa62763669b1b48dd5b",
      "contractAddress": null
    },
    {
      "status": "0x1",
      "cumulativeGasUsed": "0x23f1ab",
      "logs": [
        {
          "address": "0xe1844c5d63a9543023008d332bd3d2e6f1fe1043",
          "topics": [
            "0x82118522aa536ac0e96cc5c689407ae42b89d592aa133890a01f1509842f5081"
          ],
          "data": "0x000000000000000000000000ba554f7a47f0792b9fa41a1256d4cf628bb1d028000000000000000000000000000000000000000000000000000000000000762f0000000000000000000000000000000000000000000000000000000000000060000000000000000000000000000000000000000000000000000000000000000000000000000000000000000000000000000000000000000000000000000000030000000000000000000000000000000000000000000000000000000000000000000000000000000000000000000000000000000000000000000000000000000000000000000000000000000000000000000000000000000000000000000000c000000000000000000000000000000000000000000000000000000000000001400000000000000000000000000000000000000000000000000000000000000003000000000000000000000000282b3386571f7f794450d5789911a9804fa346b40000000000000000000000005ec52fb644072247c3264f0ac3db981cdebe3eca000000000000000000000000dcdd4628f858b45260c31d6ad076bd2c3d3c2f730000000000000000000000000000000000000000000000000000000000000000",
          "blockHash": "0x559053d10f981e43e75e3f2fae5b0d34e728e35af0a782941bff21f5870f294f",
          "blockNumber": "0x260b16a",
          "blockTimestamp": "0x6931d949",
          "transactionHash": "0xb9d21d10941a1492141836affcdfaa040c99c88ce1df18959625c11acff0158d",
          "transactionIndex": "0x5",
          "logIndex": "0x11",
          "removed": false
        }
      ],
      "logsBloom": "0x00000000000000000000000000000000020000000000000000000000000000000000000000000000000000000000000000000000000000000000000000000000000000000000000000000000000000000000000000000000002000000000000000000000000000000000000000000000000000000000000000000000000000000000000000000000000000000000000000000000000000000000000000000000000000000000000000000002000000000000000000000000000000000000000000000000000000000000000000000000000000008000000000000000000000000000000000000002000000000000000000000000000000000000000000000010",
      "type": "0x2",
      "transactionHash": "0xb9d21d10941a1492141836affcdfaa040c99c88ce1df18959625c11acff0158d",
      "transactionIndex": "0x5",
      "blockHash": "0x559053d10f981e43e75e3f2fae5b0d34e728e35af0a782941bff21f5870f294f",
      "blockNumber": "0x260b16a",
      "gasUsed": "0xf4240",
      "effectiveGasPrice": "0x17bfac7c00",
      "from": "0x0990be6db8c785fbbf9ded8baec612a10cae814b",
      "to": "0x6f475642a6e85809b1c36fa62763669b1b48dd5b",
      "contractAddress": null
    },
    {
      "status": "0x1",
      "cumulativeGasUsed": "0xf4240",
      "logs": [
        {
          "address": "0x6f475642a6e85809b1c36fa62763669b1b48dd5b",
          "topics": [
            "0x4cff966ebee29a156dcb34cf72c1d06231fb1777f6bdf6e8089819232f002b1c"
          ],
          "data": "0x00000000000000000000000029acc7c504665a5ea95344796f784095f0cfcc58000000000000000000000000000000000000000000000000000000000000762f000000000000000000000000c39161c743d0307eb9bcc9fef03eeb9dc4802de7",
          "blockHash": "0x2e4f14e5ef38a0140039cdd74c082823a31f64aea46bb29de9cafb34ade23311",
          "blockNumber": "0x260b16e",
          "blockTimestamp": "0x6931d94b",
          "transactionHash": "0x0fab41e9264edfb9fa7f03534ede9d2448e408e8c8cf48ea8d21ca5059dd33fc",
          "transactionIndex": "0x1",
          "logIndex": "0x1",
          "removed": false
        }
      ],
      "logsBloom": "0x00000000000000000000000000000000000200000000000000000000000000000000000000000000000000000000000000000000000000000000000001000000000000000000000000000000000000000140000000000000000000000000000000000000000000000000000000000000000000000000000000000000000000000000000000000000000000000000000000000000000000000000000000000000000000000000000000000000000000000000000000000000000000000000000000000000000000000000000000000000000000000000000000000000000000004040000000000000000000000000000000000000000000000000000000000000",
      "type": "0x2",
      "transactionHash": "0x0fab41e9264edfb9fa7f03534ede9d2448e408e8c8cf48ea8d21ca5059dd33fc",
      "transactionIndex": "0x1",
      "blockHash": "0x2e4f14e5ef38a0140039cdd74c082823a31f64aea46bb29de9cafb34ade23311",
      "blockNumber": "0x260b16e",
      "gasUsed": "0xf4240",
      "effectiveGasPrice": "0x17bfac7c00",
      "from": "0x0990be6db8c785fbbf9ded8baec612a10cae814b",
      "to": "0x6f475642a6e85809b1c36fa62763669b1b48dd5b",
      "contractAddress": null
    },
    {
      "status": "0x1",
      "cumulativeGasUsed": "0x3e6864",
      "logs": [
        {
          "address": "0x6f475642a6e85809b1c36fa62763669b1b48dd5b",
          "topics": [
            "0xcd6f92f5ac6185a5acfa02c92090746cec64d777269cbcd0ed031e396657a1c2"
          ],
          "data": "0x00000000000000000000000029acc7c504665a5ea95344796f784095f0cfcc58000000000000000000000000000000000000000000000000000000000000762f000000000000000000000000e1844c5d63a9543023008d332bd3d2e6f1fe1043",
          "blockHash": "0xbc798f7ceac6ade820111a579a50b9999dfe7f14da6114a9c827d723fa9fc937",
          "blockNumber": "0x260b173",
          "blockTimestamp": "0x6931d94d",
          "transactionHash": "0x6b0e83c049115bbb72132ad37e5d9227f02ae593709388178f5c202aadacccf3",
          "transactionIndex": "0x7",
          "logIndex": "0x1e",
          "removed": false
        },
        {
          "address": "0x6f475642a6e85809b1c36fa62763669b1b48dd5b",
          "topics": [
            "0x4e0a5bbfa0c11a64effb1ada324b5437a17272e1aed9320398715ef71bb20928"
          ],
          "data": "0x00000000000000000000000029acc7c504665a5ea95344796f784095f0cfcc58000000000000000000000000000000000000000000000000000000000000762f00000000000000000000000000000000000000000000000000000000000000000000000000000000000000000000000000000000000000000000000000000000",
          "blockHash": "0xbc798f7ceac6ade820111a579a50b9999dfe7f14da6114a9c827d723fa9fc937",
          "blockNumber": "0x260b173",
          "blockTimestamp": "0x6931d94d",
          "transactionHash": "0x6b0e83c049115bbb72132ad37e5d9227f02ae593709388178f5c202aadacccf3",
          "transactionIndex": "0x7",
          "logIndex": "0x1f",
          "removed": false
        }
      ],
      "logsBloom": "0x00000000000000000000020800000000000000000000000000000000000000020400000000000000000000000000000000000000000000000000000000000000000000000000000000000000000000000140000000800000000000000000000000000000000000000000000000000000000000000000000000000000000000100000000000000000000000000000000000000000000000000000000000000000000000000000000000000000000000000000000000000000000000000000000000000000000000000000000000000000000000000000000000000000000000004000000000000000000000000000000000000000000000000000000000000000",
      "type": "0x2",
      "transactionHash": "0x6b0e83c049115bbb72132ad37e5d9227f02ae593709388178f5c202aadacccf3",
      "transactionIndex": "0x7",
      "blockHash": "0xbc798f7ceac6ade820111a579a50b9999dfe7f14da6114a9c827d723fa9fc937",
      "blockNumber": "0x260b173",
      "gasUsed": "0xf4240",
      "effectiveGasPrice": "0x17bfac7c00",
      "from": "0x0990be6db8c785fbbf9ded8baec612a10cae814b",
      "to": "0x6f475642a6e85809b1c36fa62763669b1b48dd5b",
      "contractAddress": null
    },
    {
      "status": "0x1",
      "cumulativeGasUsed": "0x82041c",
      "logs": [
        {
          "address": "0x6f475642a6e85809b1c36fa62763669b1b48dd5b",
          "topics": [
            "0x4cff966ebee29a156dcb34cf72c1d06231fb1777f6bdf6e8089819232f002b1c"
          ],
          "data": "0x000000000000000000000000137643f7b2c189173867b3391f6629cab46f0f1a000000000000000000000000000000000000000000000000000000000000762f000000000000000000000000c39161c743d0307eb9bcc9fef03eeb9dc4802de7",
          "blockHash": "0xb53cd872b12a10052154ab593452e52d6fd51c959beb058b18fa39d094734204",
          "blockNumber": "0x260b178",
          "blockTimestamp": "0x6931d94f",
          "transactionHash": "0x18373be1b15f74982181dfa83e97139d3578f534721274a89c3a1cb01b34fa16",
          "transactionIndex": "0x6",
          "logIndex": "0x2c",
          "removed": false
        }
      ],
      "logsBloom": "0x00000000000000000000000000000000000200000000000000000000000000000000000000000000000000000000000000000000000000000000000001000000000000000000000000000000000000000140000000000000000000000000000000000000000000000000000000000000000000000000000000000000000000000000000000000000000000000000000000000000000000000000000000000000000000000000000000000000000000000000000000000000000000000000000000000000000000000000000000000000000000000000000000000000000000004040000000000000000000000000000000000000000000000000000000000000",
      "type": "0x2",
      "transactionHash": "0x18373be1b15f74982181dfa83e97139d3578f534721274a89c3a1cb01b34fa16",
      "transactionIndex": "0x6",
      "blockHash": "0xb53cd872b12a10052154ab593452e52d6fd51c959beb058b18fa39d094734204",
      "blockNumber": "0x260b178",
      "gasUsed": "0xf4240",
      "effectiveGasPrice": "0x17bfac7c00",
      "from": "0x0990be6db8c785fbbf9ded8baec612a10cae814b",
      "to": "0x6f475642a6e85809b1c36fa62763669b1b48dd5b",
      "contractAddress": null
    },
    {
      "status": "0x1",
      "cumulativeGasUsed": "0x407b7c",
      "logs": [
        {
          "address": "0x6f475642a6e85809b1c36fa62763669b1b48dd5b",
          "topics": [
            "0xcd6f92f5ac6185a5acfa02c92090746cec64d777269cbcd0ed031e396657a1c2"
          ],
          "data": "0x000000000000000000000000137643f7b2c189173867b3391f6629cab46f0f1a000000000000000000000000000000000000000000000000000000000000762f000000000000000000000000e1844c5d63a9543023008d332bd3d2e6f1fe1043",
          "blockHash": "0x90138a6a2464b3a2e3dce3c5ee393d84c6f48260aaa1b4282b6b772b78717d4d",
          "blockNumber": "0x260b17d",
          "blockTimestamp": "0x6931d951",
          "transactionHash": "0x7b0a10a399791852b119e6da94ae233835ab68d4e16157eda3b077d853d29ed2",
          "transactionIndex": "0x6",
          "logIndex": "0x1a",
          "removed": false
        },
        {
          "address": "0x6f475642a6e85809b1c36fa62763669b1b48dd5b",
          "topics": [
            "0x4e0a5bbfa0c11a64effb1ada324b5437a17272e1aed9320398715ef71bb20928"
          ],
          "data": "0x000000000000000000000000137643f7b2c189173867b3391f6629cab46f0f1a000000000000000000000000000000000000000000000000000000000000762f00000000000000000000000000000000000000000000000000000000000000000000000000000000000000000000000000000000000000000000000000000000",
          "blockHash": "0x90138a6a2464b3a2e3dce3c5ee393d84c6f48260aaa1b4282b6b772b78717d4d",
          "blockNumber": "0x260b17d",
          "blockTimestamp": "0x6931d951",
          "transactionHash": "0x7b0a10a399791852b119e6da94ae233835ab68d4e16157eda3b077d853d29ed2",
          "transactionIndex": "0x6",
          "logIndex": "0x1b",
          "removed": false
        }
      ],
      "logsBloom": "0x00000000000000000000020800000000000000000000000000000000000000020400000000000000000000000000000000000000000000000000000000000000000000000000000000000000000000000140000000800000000000000000000000000000000000000000000000000000000000000000000000000000000000100000000000000000000000000000000000000000000000000000000000000000000000000000000000000000000000000000000000000000000000000000000000000000000000000000000000000000000000000000000000000000000000004000000000000000000000000000000000000000000000000000000000000000",
      "type": "0x2",
      "transactionHash": "0x7b0a10a399791852b119e6da94ae233835ab68d4e16157eda3b077d853d29ed2",
      "transactionIndex": "0x6",
      "blockHash": "0x90138a6a2464b3a2e3dce3c5ee393d84c6f48260aaa1b4282b6b772b78717d4d",
      "blockNumber": "0x260b17d",
      "gasUsed": "0xf4240",
      "effectiveGasPrice": "0x17bfac7c00",
      "from": "0x0990be6db8c785fbbf9ded8baec612a10cae814b",
      "to": "0x6f475642a6e85809b1c36fa62763669b1b48dd5b",
      "contractAddress": null
    },
    {
      "status": "0x1",
      "cumulativeGasUsed": "0x2a81ed",
      "logs": [
        {
          "address": "0x6f475642a6e85809b1c36fa62763669b1b48dd5b",
          "topics": [
            "0x4cff966ebee29a156dcb34cf72c1d06231fb1777f6bdf6e8089819232f002b1c"
          ],
          "data": "0x0000000000000000000000003b4cf37a3335f21c945a40088404c715525fcb29000000000000000000000000000000000000000000000000000000000000762f000000000000000000000000c39161c743d0307eb9bcc9fef03eeb9dc4802de7",
          "blockHash": "0xd888ca6a9e2b3387c631e8bd01d1382ed5ddf73a9a2d9d0d1f102ebd43aed34c",
          "blockNumber": "0x260b181",
          "blockTimestamp": "0x6931d952",
          "transactionHash": "0x4720cb3719603ee5c89ed062c8ffbc1d4769f94d65462ae4e59c1509b6d06419",
          "transactionIndex": "0x3",
          "logIndex": "0x19",
          "removed": false
        }
      ],
      "logsBloom": "0x00000000000000000000000000000000000200000000000000000000000000000000000000000000000000000000000000000000000000000000000001000000000000000000000000000000000000000140000000000000000000000000000000000000000000000000000000000000000000000000000000000000000000000000000000000000000000000000000000000000000000000000000000000000000000000000000000000000000000000000000000000000000000000000000000000000000000000000000000000000000000000000000000000000000000004040000000000000000000000000000000000000000000000000000000000000",
      "type": "0x2",
      "transactionHash": "0x4720cb3719603ee5c89ed062c8ffbc1d4769f94d65462ae4e59c1509b6d06419",
      "transactionIndex": "0x3",
      "blockHash": "0xd888ca6a9e2b3387c631e8bd01d1382ed5ddf73a9a2d9d0d1f102ebd43aed34c",
      "blockNumber": "0x260b181",
      "gasUsed": "0xf4240",
      "effectiveGasPrice": "0x17bfac7c00",
      "from": "0x0990be6db8c785fbbf9ded8baec612a10cae814b",
      "to": "0x6f475642a6e85809b1c36fa62763669b1b48dd5b",
      "contractAddress": null
    },
    {
      "status": "0x1",
      "cumulativeGasUsed": "0x1a2cd8",
      "logs": [
        {
          "address": "0x6f475642a6e85809b1c36fa62763669b1b48dd5b",
          "topics": [
            "0xcd6f92f5ac6185a5acfa02c92090746cec64d777269cbcd0ed031e396657a1c2"
          ],
          "data": "0x0000000000000000000000003b4cf37a3335f21c945a40088404c715525fcb29000000000000000000000000000000000000000000000000000000000000762f000000000000000000000000e1844c5d63a9543023008d332bd3d2e6f1fe1043",
          "blockHash": "0x6050f3d535ff745dde5adc5c89a438d94d453957a01b3303d44d5fe5746a2d71",
          "blockNumber": "0x260b186",
          "blockTimestamp": "0x6931d954",
          "transactionHash": "0x891f46af496f06862115047c0b539b04b0521db1f71907b2e900ed1c9c68dd67",
          "transactionIndex": "0x3",
          "logIndex": "0xb",
          "removed": false
        },
        {
          "address": "0x6f475642a6e85809b1c36fa62763669b1b48dd5b",
          "topics": [
            "0x4e0a5bbfa0c11a64effb1ada324b5437a17272e1aed9320398715ef71bb20928"
          ],
          "data": "0x0000000000000000000000003b4cf37a3335f21c945a40088404c715525fcb29000000000000000000000000000000000000000000000000000000000000762f00000000000000000000000000000000000000000000000000000000000000000000000000000000000000000000000000000000000000000000000000000000",
          "blockHash": "0x6050f3d535ff745dde5adc5c89a438d94d453957a01b3303d44d5fe5746a2d71",
          "blockNumber": "0x260b186",
          "blockTimestamp": "0x6931d954",
          "transactionHash": "0x891f46af496f06862115047c0b539b04b0521db1f71907b2e900ed1c9c68dd67",
          "transactionIndex": "0x3",
          "logIndex": "0xc",
          "removed": false
        }
      ],
      "logsBloom": "0x00000000000000000000020800000000000000000000000000000000000000020400000000000000000000000000000000000000000000000000000000000000000000000000000000000000000000000140000000800000000000000000000000000000000000000000000000000000000000000000000000000000000000100000000000000000000000000000000000000000000000000000000000000000000000000000000000000000000000000000000000000000000000000000000000000000000000000000000000000000000000000000000000000000000000004000000000000000000000000000000000000000000000000000000000000000",
      "type": "0x2",
      "transactionHash": "0x891f46af496f06862115047c0b539b04b0521db1f71907b2e900ed1c9c68dd67",
      "transactionIndex": "0x3",
      "blockHash": "0x6050f3d535ff745dde5adc5c89a438d94d453957a01b3303d44d5fe5746a2d71",
      "blockNumber": "0x260b186",
      "gasUsed": "0xf4240",
      "effectiveGasPrice": "0x17bfac7c00",
      "from": "0x0990be6db8c785fbbf9ded8baec612a10cae814b",
      "to": "0x6f475642a6e85809b1c36fa62763669b1b48dd5b",
      "contractAddress": null
    },
    {
      "status": "0x1",
      "cumulativeGasUsed": "0x25d98e",
      "logs": [
        {
          "address": "0x6f475642a6e85809b1c36fa62763669b1b48dd5b",
          "topics": [
            "0x4cff966ebee29a156dcb34cf72c1d06231fb1777f6bdf6e8089819232f002b1c"
          ],
          "data": "0x00000000000000000000000058e3ee6accd124642ddb5d3f91928816be8d8ed3000000000000000000000000000000000000000000000000000000000000762f000000000000000000000000c39161c743d0307eb9bcc9fef03eeb9dc4802de7",
          "blockHash": "0x71fc50d1f35d53ebfeb93194bda15cb907e628f4afe2d7bab04c98cad901dfc3",
          "blockNumber": "0x260b18b",
          "blockTimestamp": "0x6931d956",
          "transactionHash": "0xed58c8fd81e81c41be9ab4e3f0bcb4220ee75448ec72a4a896f7f5ad72d5836d",
          "transactionIndex": "0x5",
          "logIndex": "0x12",
          "removed": false
        }
      ],
      "logsBloom": "0x00000000000000000000000000000000000200000000000000000000000000000000000000000000000000000000000000000000000000000000000001000000000000000000000000000000000000000140000000000000000000000000000000000000000000000000000000000000000000000000000000000000000000000000000000000000000000000000000000000000000000000000000000000000000000000000000000000000000000000000000000000000000000000000000000000000000000000000000000000000000000000000000000000000000000004040000000000000000000000000000000000000000000000000000000000000",
      "type": "0x2",
      "transactionHash": "0xed58c8fd81e81c41be9ab4e3f0bcb4220ee75448ec72a4a896f7f5ad72d5836d",
      "transactionIndex": "0x5",
      "blockHash": "0x71fc50d1f35d53ebfeb93194bda15cb907e628f4afe2d7bab04c98cad901dfc3",
      "blockNumber": "0x260b18b",
      "gasUsed": "0xf4240",
      "effectiveGasPrice": "0x17bfac7c00",
      "from": "0x0990be6db8c785fbbf9ded8baec612a10cae814b",
      "to": "0x6f475642a6e85809b1c36fa62763669b1b48dd5b",
      "contractAddress": null
    },
    {
      "status": "0x1",
      "cumulativeGasUsed": "0x1e8480",
      "logs": [
        {
          "address": "0x6f475642a6e85809b1c36fa62763669b1b48dd5b",
          "topics": [
            "0xcd6f92f5ac6185a5acfa02c92090746cec64d777269cbcd0ed031e396657a1c2"
          ],
          "data": "0x00000000000000000000000058e3ee6accd124642ddb5d3f91928816be8d8ed3000000000000000000000000000000000000000000000000000000000000762f000000000000000000000000e1844c5d63a9543023008d332bd3d2e6f1fe1043",
          "blockHash": "0x8be8ccc076bcb9608d6ab578a8ffc504cc9d407ac043223e3ae58057fa2c6c60",
          "blockNumber": "0x260b18f",
          "blockTimestamp": "0x6931d958",
          "transactionHash": "0x5a1000403a79a98abd8cf6e2e34844b9d82b4ee26d935bce8a222073ee47afbf",
          "transactionIndex": "0x3",
          "logIndex": "0x6",
          "removed": false
        },
        {
          "address": "0x6f475642a6e85809b1c36fa62763669b1b48dd5b",
          "topics": [
            "0x4e0a5bbfa0c11a64effb1ada324b5437a17272e1aed9320398715ef71bb20928"
          ],
          "data": "0x00000000000000000000000058e3ee6accd124642ddb5d3f91928816be8d8ed3000000000000000000000000000000000000000000000000000000000000762f00000000000000000000000000000000000000000000000000000000000000000000000000000000000000000000000000000000000000000000000000000000",
          "blockHash": "0x8be8ccc076bcb9608d6ab578a8ffc504cc9d407ac043223e3ae58057fa2c6c60",
          "blockNumber": "0x260b18f",
          "blockTimestamp": "0x6931d958",
          "transactionHash": "0x5a1000403a79a98abd8cf6e2e34844b9d82b4ee26d935bce8a222073ee47afbf",
          "transactionIndex": "0x3",
          "logIndex": "0x7",
          "removed": false
        }
      ],
      "logsBloom": "0x00000000000000000000020800000000000000000000000000000000000000020400000000000000000000000000000000000000000000000000000000000000000000000000000000000000000000000140000000800000000000000000000000000000000000000000000000000000000000000000000000000000000000100000000000000000000000000000000000000000000000000000000000000000000000000000000000000000000000000000000000000000000000000000000000000000000000000000000000000000000000000000000000000000000000004000000000000000000000000000000000000000000000000000000000000000",
      "type": "0x2",
      "transactionHash": "0x5a1000403a79a98abd8cf6e2e34844b9d82b4ee26d935bce8a222073ee47afbf",
      "transactionIndex": "0x3",
      "blockHash": "0x8be8ccc076bcb9608d6ab578a8ffc504cc9d407ac043223e3ae58057fa2c6c60",
      "blockNumber": "0x260b18f",
      "gasUsed": "0xf4240",
      "effectiveGasPrice": "0x17bfac7c00",
      "from": "0x0990be6db8c785fbbf9ded8baec612a10cae814b",
      "to": "0x6f475642a6e85809b1c36fa62763669b1b48dd5b",
      "contractAddress": null
    },
    {
      "status": "0x1",
      "cumulativeGasUsed": "0x1980fb",
      "logs": [
        {
          "address": "0x6f475642a6e85809b1c36fa62763669b1b48dd5b",
          "topics": [
            "0x4cff966ebee29a156dcb34cf72c1d06231fb1777f6bdf6e8089819232f002b1c"
          ],
          "data": "0x000000000000000000000000288f9d76019469bfeb56bb77d86afa2bf563b75b000000000000000000000000000000000000000000000000000000000000762f000000000000000000000000c39161c743d0307eb9bcc9fef03eeb9dc4802de7",
          "blockHash": "0x2441db52b5cc8703c3f880956e70eba82077cffe1bcce42e48e4c0106269c136",
          "blockNumber": "0x260b194",
          "blockTimestamp": "0x6931d95a",
          "transactionHash": "0x35ebc5136b20ec364f2c18bbdbd325ab0d54b67b41f2392e08f0d4c6ed9e9b80",
          "transactionIndex": "0x4",
          "logIndex": "0x9",
          "removed": false
        }
      ],
      "logsBloom": "0x00000000000000000000000000000000000200000000000000000000000000000000000000000000000000000000000000000000000000000000000001000000000000000000000000000000000000000140000000000000000000000000000000000000000000000000000000000000000000000000000000000000000000000000000000000000000000000000000000000000000000000000000000000000000000000000000000000000000000000000000000000000000000000000000000000000000000000000000000000000000000000000000000000000000000004040000000000000000000000000000000000000000000000000000000000000",
      "type": "0x2",
      "transactionHash": "0x35ebc5136b20ec364f2c18bbdbd325ab0d54b67b41f2392e08f0d4c6ed9e9b80",
      "transactionIndex": "0x4",
      "blockHash": "0x2441db52b5cc8703c3f880956e70eba82077cffe1bcce42e48e4c0106269c136",
      "blockNumber": "0x260b194",
      "gasUsed": "0xf4240",
      "effectiveGasPrice": "0x17bfac7c00",
      "from": "0x0990be6db8c785fbbf9ded8baec612a10cae814b",
      "to": "0x6f475642a6e85809b1c36fa62763669b1b48dd5b",
      "contractAddress": null
    },
    {
      "status": "0x1",
      "cumulativeGasUsed": "0x29707f",
      "logs": [
        {
          "address": "0x6f475642a6e85809b1c36fa62763669b1b48dd5b",
          "topics": [
            "0xcd6f92f5ac6185a5acfa02c92090746cec64d777269cbcd0ed031e396657a1c2"
          ],
          "data": "0x000000000000000000000000288f9d76019469bfeb56bb77d86afa2bf563b75b000000000000000000000000000000000000000000000000000000000000762f000000000000000000000000e1844c5d63a9543023008d332bd3d2e6f1fe1043",
          "blockHash": "0x509039f91354eef79b764951d43629642769381f91918bc4e479c09764322808",
          "blockNumber": "0x260b199",
          "blockTimestamp": "0x6931d95c",
          "transactionHash": "0x09fe6e553faa5ca5eb5404a2b052011eb7636d5177f35288450a356123e0138c",
          "transactionIndex": "0x4",
          "logIndex": "0xf",
          "removed": false
        },
        {
          "address": "0x6f475642a6e85809b1c36fa62763669b1b48dd5b",
          "topics": [
            "0x4e0a5bbfa0c11a64effb1ada324b5437a17272e1aed9320398715ef71bb20928"
          ],
          "data": "0x000000000000000000000000288f9d76019469bfeb56bb77d86afa2bf563b75b000000000000000000000000000000000000000000000000000000000000762f00000000000000000000000000000000000000000000000000000000000000000000000000000000000000000000000000000000000000000000000000000000",
          "blockHash": "0x509039f91354eef79b764951d43629642769381f91918bc4e479c09764322808",
          "blockNumber": "0x260b199",
          "blockTimestamp": "0x6931d95c",
          "transactionHash": "0x09fe6e553faa5ca5eb5404a2b052011eb7636d5177f35288450a356123e0138c",
          "transactionIndex": "0x4",
          "logIndex": "0x10",
          "removed": false
        }
      ],
      "logsBloom": "0x00000000000000000000020800000000000000000000000000000000000000020400000000000000000000000000000000000000000000000000000000000000000000000000000000000000000000000140000000800000000000000000000000000000000000000000000000000000000000000000000000000000000000100000000000000000000000000000000000000000000000000000000000000000000000000000000000000000000000000000000000000000000000000000000000000000000000000000000000000000000000000000000000000000000000004000000000000000000000000000000000000000000000000000000000000000",
      "type": "0x2",
      "transactionHash": "0x09fe6e553faa5ca5eb5404a2b052011eb7636d5177f35288450a356123e0138c",
      "transactionIndex": "0x4",
      "blockHash": "0x509039f91354eef79b764951d43629642769381f91918bc4e479c09764322808",
      "blockNumber": "0x260b199",
      "gasUsed": "0xf4240",
      "effectiveGasPrice": "0x17bfac7c00",
      "from": "0x0990be6db8c785fbbf9ded8baec612a10cae814b",
      "to": "0x6f475642a6e85809b1c36fa62763669b1b48dd5b",
      "contractAddress": null
    },
    {
      "status": "0x1",
      "cumulativeGasUsed": "0x1e6ede",
      "logs": [
        {
          "address": "0x6f475642a6e85809b1c36fa62763669b1b48dd5b",
          "topics": [
            "0x4cff966ebee29a156dcb34cf72c1d06231fb1777f6bdf6e8089819232f002b1c"
          ],
          "data": "0x000000000000000000000000ba554f7a47f0792b9fa41a1256d4cf628bb1d028000000000000000000000000000000000000000000000000000000000000762f000000000000000000000000c39161c743d0307eb9bcc9fef03eeb9dc4802de7",
          "blockHash": "0x1596d0fd34ce31f80dffaf6735c464f800fac1ee9dc09d258ec27f2268d5be69",
          "blockNumber": "0x260b19d",
          "blockTimestamp": "0x6931d95e",
          "transactionHash": "0xf812034393fe01e0947ccafc41612297929d643d7e6d621a8fda4b6764b18571",
          "transactionIndex": "0x3",
          "logIndex": "0x2",
          "removed": false
        }
      ],
      "logsBloom": "0x00000000000000000000000000000000000200000000000000000000000000000000000000000000000000000000000000000000000000000000000001000000000000000000000000000000000000000140000000000000000000000000000000000000000000000000000000000000000000000000000000000000000000000000000000000000000000000000000000000000000000000000000000000000000000000000000000000000000000000000000000000000000000000000000000000000000000000000000000000000000000000000000000000000000000004040000000000000000000000000000000000000000000000000000000000000",
      "type": "0x2",
      "transactionHash": "0xf812034393fe01e0947ccafc41612297929d643d7e6d621a8fda4b6764b18571",
      "transactionIndex": "0x3",
      "blockHash": "0x1596d0fd34ce31f80dffaf6735c464f800fac1ee9dc09d258ec27f2268d5be69",
      "blockNumber": "0x260b19d",
      "gasUsed": "0xf4240",
      "effectiveGasPrice": "0x17bfac7c00",
      "from": "0x0990be6db8c785fbbf9ded8baec612a10cae814b",
      "to": "0x6f475642a6e85809b1c36fa62763669b1b48dd5b",
      "contractAddress": null
    },
    {
      "status": "0x1",
      "cumulativeGasUsed": "0x1b7740",
      "logs": [
        {
          "address": "0x6f475642a6e85809b1c36fa62763669b1b48dd5b",
          "topics": [
            "0xcd6f92f5ac6185a5acfa02c92090746cec64d777269cbcd0ed031e396657a1c2"
          ],
          "data": "0x000000000000000000000000ba554f7a47f0792b9fa41a1256d4cf628bb1d028000000000000000000000000000000000000000000000000000000000000762f000000000000000000000000e1844c5d63a9543023008d332bd3d2e6f1fe1043",
          "blockHash": "0x69bab19d2ef65a9e601f76ae209391db31f72a0b4653118436a0aa3adba802c9",
          "blockNumber": "0x260b1a2",
          "blockTimestamp": "0x6931d960",
          "transactionHash": "0x5aa718696a12ed6c21a0ab8af3fdbf482e41f6c6f7bcb9a2e99ac64415e78bdd",
          "transactionIndex": "0x2",
          "logIndex": "0x1",
          "removed": false
        },
        {
          "address": "0x6f475642a6e85809b1c36fa62763669b1b48dd5b",
          "topics": [
            "0x4e0a5bbfa0c11a64effb1ada324b5437a17272e1aed9320398715ef71bb20928"
          ],
          "data": "0x000000000000000000000000ba554f7a47f0792b9fa41a1256d4cf628bb1d028000000000000000000000000000000000000000000000000000000000000762f00000000000000000000000000000000000000000000000000000000000000000000000000000000000000000000000000000000000000000000000000000000",
          "blockHash": "0x69bab19d2ef65a9e601f76ae209391db31f72a0b4653118436a0aa3adba802c9",
          "blockNumber": "0x260b1a2",
          "blockTimestamp": "0x6931d960",
          "transactionHash": "0x5aa718696a12ed6c21a0ab8af3fdbf482e41f6c6f7bcb9a2e99ac64415e78bdd",
          "transactionIndex": "0x2",
          "logIndex": "0x2",
          "removed": false
        }
      ],
      "logsBloom": "0x00000000000000000000020800000000000000000000000000000000000000020400000000000000000000000000000000000000000000000000000000000000000000000000000000000000000000000140000000800000000000000000000000000000000000000000000000000000000000000000000000000000000000100000000000000000000000000000000000000000000000000000000000000000000000000000000000000000000000000000000000000000000000000000000000000000000000000000000000000000000000000000000000000000000000004000000000000000000000000000000000000000000000000000000000000000",
      "type": "0x2",
      "transactionHash": "0x5aa718696a12ed6c21a0ab8af3fdbf482e41f6c6f7bcb9a2e99ac64415e78bdd",
      "transactionIndex": "0x2",
      "blockHash": "0x69bab19d2ef65a9e601f76ae209391db31f72a0b4653118436a0aa3adba802c9",
      "blockNumber": "0x260b1a2",
      "gasUsed": "0xf4240",
      "effectiveGasPrice": "0x17bfac7c00",
      "from": "0x0990be6db8c785fbbf9ded8baec612a10cae814b",
      "to": "0x6f475642a6e85809b1c36fa62763669b1b48dd5b",
      "contractAddress": null
    },
    {
      "status": "0x1",
      "cumulativeGasUsed": "0x21448f",
      "logs": [
        {
          "address": "0x6f475642a6e85809b1c36fa62763669b1b48dd5b",
          "topics": [
            "0x6ee10e9ed4d6ce9742703a498707862f4b00f1396a87195eb93267b3d7983981"
          ],
          "data": "0x00000000000000000000000029acc7c504665a5ea95344796f784095f0cfcc5800000000000000000000000047ff5bbab981ff022743aa4281d4d6dd7fb1a4d0",
          "blockHash": "0xb2d4a1689fce16ca53055ecdcf8db645b7f341292df1d3307ab3386ccc280198",
          "blockNumber": "0x260b1a7",
          "blockTimestamp": "0x6931d962",
          "transactionHash": "0x000f4b186179245aa817569ef05aef06251f259b7ea6ec214476cbcbad80596b",
          "transactionIndex": "0x6",
          "logIndex": "0xc",
          "removed": false
        }
      ],
      "logsBloom": "0x00000000000000000000000000000000000000000000000000800000000000000000000000000000000000000000000000000002000000000000000000000000000000000000000000000000000000000140000000000000000000000000000000000000000000000000000000000000000000000000000000000000000000000000000000000000000000000000000000000000000000000000000000000000000000000000000000000000000000000000000000000000000000000000000400000000000000000000000000000000000000000000000000000000000000004000000000000000000000000000000000000000000000000000000000000000",
      "type": "0x2",
      "transactionHash": "0x000f4b186179245aa817569ef05aef06251f259b7ea6ec214476cbcbad80596b",
      "transactionIndex": "0x6",
      "blockHash": "0xb2d4a1689fce16ca53055ecdcf8db645b7f341292df1d3307ab3386ccc280198",
      "blockNumber": "0x260b1a7",
      "gasUsed": "0xf4240",
      "effectiveGasPrice": "0x17bfac7c00",
      "from": "0x0990be6db8c785fbbf9ded8baec612a10cae814b",
      "to": "0x29acc7c504665a5ea95344796f784095f0cfcc58",
      "contractAddress": null
    },
    {
      "status": "0x1",
      "cumulativeGasUsed": "0x5cbb6a",
      "logs": [
        {
          "address": "0x29acc7c504665a5ea95344796f784095f0cfcc58",
          "topics": [
            "0x8be0079c531659141344cd1fd0a4f28419497f9722a3daafe3b4186f6b6457e0",
            "0x0000000000000000000000000990be6db8c785fbbf9ded8baec612a10cae814b",
            "0x00000000000000000000000047ff5bbab981ff022743aa4281d4d6dd7fb1a4d0"
          ],
          "data": "0x",
          "blockHash": "0xb37aab79817d7b7a318ffe44035c551523b108552b312b6dd793a303de0435b0",
          "blockNumber": "0x260b1ab",
          "blockTimestamp": "0x6931d963",
          "transactionHash": "0x6b2e61944868e732a3720e3e37f65188e2ae76ef1566071c48f6b5a5290b40d5",
          "transactionIndex": "0x5",
          "logIndex": "0x13",
          "removed": false
        }
      ],
      "logsBloom": "0x00000000000000000000000000000000000000002000000000800000000000000000000400000000000000000000000000000000001000000000000000080000000000000000000000000000400000000001000000000000000000000000000000000000000000000000000000000000000000000000000000000000000000400000000000000000000000000800000000000000000000002000000000000000000000000000000000000000000000000000000000000000020000000000000000000000000000000000000000000000000000000000000000000000000000000000000000000000000000000000000000000000000000000000400000000000",
      "type": "0x2",
      "transactionHash": "0x6b2e61944868e732a3720e3e37f65188e2ae76ef1566071c48f6b5a5290b40d5",
      "transactionIndex": "0x5",
      "blockHash": "0xb37aab79817d7b7a318ffe44035c551523b108552b312b6dd793a303de0435b0",
      "blockNumber": "0x260b1ab",
      "gasUsed": "0xf4240",
      "effectiveGasPrice": "0x17bfac7c00",
      "from": "0x0990be6db8c785fbbf9ded8baec612a10cae814b",
      "to": "0x29acc7c504665a5ea95344796f784095f0cfcc58",
      "contractAddress": null
    },
    {
      "status": "0x1",
      "cumulativeGasUsed": "0x36f3cc",
      "logs": [
        {
          "address": "0x6f475642a6e85809b1c36fa62763669b1b48dd5b",
          "topics": [
            "0x6ee10e9ed4d6ce9742703a498707862f4b00f1396a87195eb93267b3d7983981"
          ],
          "data": "0x000000000000000000000000137643f7b2c189173867b3391f6629cab46f0f1a00000000000000000000000047ff5bbab981ff022743aa4281d4d6dd7fb1a4d0",
          "blockHash": "0x49d50b4a12d7182d5d191bb10591173e20a21fdb6e66cd6c7c74fcd42eb8b822",
          "blockNumber": "0x260b1b0",
          "blockTimestamp": "0x6931d965",
          "transactionHash": "0xe01f8b41255a1d2df241175b06d8482ad92178c77102be84e959afcc2a6aae03",
          "transactionIndex": "0x5",
          "logIndex": "0x19",
          "removed": false
        }
      ],
      "logsBloom": "0x00000000000000000000000000000000000000000000000000800000000000000000000000000000000000000000000000000002000000000000000000000000000000000000000000000000000000000140000000000000000000000000000000000000000000000000000000000000000000000000000000000000000000000000000000000000000000000000000000000000000000000000000000000000000000000000000000000000000000000000000000000000000000000000000400000000000000000000000000000000000000000000000000000000000000004000000000000000000000000000000000000000000000000000000000000000",
      "type": "0x2",
      "transactionHash": "0xe01f8b41255a1d2df241175b06d8482ad92178c77102be84e959afcc2a6aae03",
      "transactionIndex": "0x5",
      "blockHash": "0x49d50b4a12d7182d5d191bb10591173e20a21fdb6e66cd6c7c74fcd42eb8b822",
      "blockNumber": "0x260b1b0",
      "gasUsed": "0xf4240",
      "effectiveGasPrice": "0x17bfac7c00",
      "from": "0x0990be6db8c785fbbf9ded8baec612a10cae814b",
      "to": "0x137643f7b2c189173867b3391f6629cab46f0f1a",
      "contractAddress": null
    },
    {
      "status": "0x1",
      "cumulativeGasUsed": "0x210b86",
      "logs": [
        {
          "address": "0x137643f7b2c189173867b3391f6629cab46f0f1a",
          "topics": [
            "0x8be0079c531659141344cd1fd0a4f28419497f9722a3daafe3b4186f6b6457e0",
            "0x0000000000000000000000000990be6db8c785fbbf9ded8baec612a10cae814b",
            "0x00000000000000000000000047ff5bbab981ff022743aa4281d4d6dd7fb1a4d0"
          ],
          "data": "0x",
          "blockHash": "0xea86005d7c001befb5263040e4de05fc0d349f14a60a2b7328a0882f4b0b56b0",
          "blockNumber": "0x260b1b5",
          "blockTimestamp": "0x6931d967",
          "transactionHash": "0xcba159967dec3e718eaf0dabad1632178b8d83ec5b4843e25f5abe7c93e7b7f5",
          "transactionIndex": "0x5",
          "logIndex": "0xe",
          "removed": false
        }
      ],
      "logsBloom": "0x00000000000000000000000000000000000000002000000000800000000000000000000000000000000000000000000000000000000000000000000000080000000000000000000000000000400000000001000000000000000000000000000000000000000000000000000000000000000080000000000000000000000000400000000000000000000000000800000000000000000000000000000000000000000000000000000000000000000000000000000000000000020000000000000000000000000000000000000000000000000000000000000000000000000000000000000020000000000000000000000020000000000000000000400000000000",
      "type": "0x2",
      "transactionHash": "0xcba159967dec3e718eaf0dabad1632178b8d83ec5b4843e25f5abe7c93e7b7f5",
      "transactionIndex": "0x5",
      "blockHash": "0xea86005d7c001befb5263040e4de05fc0d349f14a60a2b7328a0882f4b0b56b0",
      "blockNumber": "0x260b1b5",
      "gasUsed": "0xf4240",
      "effectiveGasPrice": "0x17bfac7c00",
      "from": "0x0990be6db8c785fbbf9ded8baec612a10cae814b",
      "to": "0x137643f7b2c189173867b3391f6629cab46f0f1a",
      "contractAddress": null
    },
    {
      "status": "0x1",
      "cumulativeGasUsed": "0x139eab",
      "logs": [
        {
          "address": "0x6f475642a6e85809b1c36fa62763669b1b48dd5b",
          "topics": [
            "0x6ee10e9ed4d6ce9742703a498707862f4b00f1396a87195eb93267b3d7983981"
          ],
          "data": "0x0000000000000000000000003b4cf37a3335f21c945a40088404c715525fcb2900000000000000000000000047ff5bbab981ff022743aa4281d4d6dd7fb1a4d0",
          "blockHash": "0xa2465ec7973c25379fe0dc7bda2b458d398df09386dff4c4bbbfa40604a27af4",
          "blockNumber": "0x260b1b9",
          "blockTimestamp": "0x6931d969",
          "transactionHash": "0x67a9651eedac71fe5600577b518d67fed354d31161289f6bdd210514f71f8a48",
          "transactionIndex": "0x2",
          "logIndex": "0x5",
          "removed": false
        }
      ],
      "logsBloom": "0x00000000000000000000000000000000000000000000000000800000000000000000000000000000000000000000000000000002000000000000000000000000000000000000000000000000000000000140000000000000000000000000000000000000000000000000000000000000000000000000000000000000000000000000000000000000000000000000000000000000000000000000000000000000000000000000000000000000000000000000000000000000000000000000000400000000000000000000000000000000000000000000000000000000000000004000000000000000000000000000000000000000000000000000000000000000",
      "type": "0x2",
      "transactionHash": "0x67a9651eedac71fe5600577b518d67fed354d31161289f6bdd210514f71f8a48",
      "transactionIndex": "0x2",
      "blockHash": "0xa2465ec7973c25379fe0dc7bda2b458d398df09386dff4c4bbbfa40604a27af4",
      "blockNumber": "0x260b1b9",
      "gasUsed": "0xf4240",
      "effectiveGasPrice": "0x17bfac7c00",
      "from": "0x0990be6db8c785fbbf9ded8baec612a10cae814b",
      "to": "0x3b4cf37a3335f21c945a40088404c715525fcb29",
      "contractAddress": null
    },
    {
      "status": "0x1",
      "cumulativeGasUsed": "0x26a4d7",
      "logs": [
        {
          "address": "0x3b4cf37a3335f21c945a40088404c715525fcb29",
          "topics": [
            "0x8be0079c531659141344cd1fd0a4f28419497f9722a3daafe3b4186f6b6457e0",
            "0x0000000000000000000000000990be6db8c785fbbf9ded8baec612a10cae814b",
            "0x00000000000000000000000047ff5bbab981ff022743aa4281d4d6dd7fb1a4d0"
          ],
          "data": "0x",
          "blockHash": "0xf59cab59d6ef7e89d404fc1339126db677ff308fcfd4c42cb3f3d997d1ea541f",
          "blockNumber": "0x260b1bf",
          "blockTimestamp": "0x6931d96b",
          "transactionHash": "0xb4139d00ec479132e778fad01dd934c564404cf149390b61fac05d158b8227dc",
          "transactionIndex": "0x5",
          "logIndex": "0x7",
          "removed": false
        }
      ],
      "logsBloom": "0x00000000000000000000000000000000000000002000000000800000000000000000000000000000000000000000000000000000000000000000000000080000000000000000000080000000400000000001000000000000000000000000000000000000000000000000000000000000000000000000000000000000000000400000000000000000000000000800000000000000000000000000000000000000000000000000000000010000000000000000000000000000020000000000000000000000000000000000400000000000000000000000000000000000000000000000000000000000000000000000000000000000000000000000400000000000",
      "type": "0x2",
      "transactionHash": "0xb4139d00ec479132e778fad01dd934c564404cf149390b61fac05d158b8227dc",
      "transactionIndex": "0x5",
      "blockHash": "0xf59cab59d6ef7e89d404fc1339126db677ff308fcfd4c42cb3f3d997d1ea541f",
      "blockNumber": "0x260b1bf",
      "gasUsed": "0xf4240",
      "effectiveGasPrice": "0x17bfac7c00",
      "from": "0x0990be6db8c785fbbf9ded8baec612a10cae814b",
      "to": "0x3b4cf37a3335f21c945a40088404c715525fcb29",
      "contractAddress": null
    },
    {
      "status": "0x1",
      "cumulativeGasUsed": "0x152578",
      "logs": [
        {
          "address": "0x6f475642a6e85809b1c36fa62763669b1b48dd5b",
          "topics": [
            "0x6ee10e9ed4d6ce9742703a498707862f4b00f1396a87195eb93267b3d7983981"
          ],
          "data": "0x00000000000000000000000058e3ee6accd124642ddb5d3f91928816be8d8ed300000000000000000000000047ff5bbab981ff022743aa4281d4d6dd7fb1a4d0",
          "blockHash": "0x27f76325cb5e928f51194e15ffb7d4fdb3711ef6ad13e5c410e39543e8588114",
          "blockNumber": "0x260b1c3",
          "blockTimestamp": "0x6931d96d",
          "transactionHash": "0x996125a841b5e62ac2d39a3421318d4102fb4f92e6812a35110feed977e50aca",
          "transactionIndex": "0x3",
          "logIndex": "0x5",
          "removed": false
        }
      ],
      "logsBloom": "0x00000000000000000000000000000000000000000000000000800000000000000000000000000000000000000000000000000002000000000000000000000000000000000000000000000000000000000140000000000000000000000000000000000000000000000000000000000000000000000000000000000000000000000000000000000000000000000000000000000000000000000000000000000000000000000000000000000000000000000000000000000000000000000000000400000000000000000000000000000000000000000000000000000000000000004000000000000000000000000000000000000000000000000000000000000000",
      "type": "0x2",
      "transactionHash": "0x996125a841b5e62ac2d39a3421318d4102fb4f92e6812a35110feed977e50aca",
      "transactionIndex": "0x3",
      "blockHash": "0x27f76325cb5e928f51194e15ffb7d4fdb3711ef6ad13e5c410e39543e8588114",
      "blockNumber": "0x260b1c3",
      "gasUsed": "0xf4240",
      "effectiveGasPrice": "0x17bfac7c00",
      "from": "0x0990be6db8c785fbbf9ded8baec612a10cae814b",
      "to": "0x58e3ee6accd124642ddb5d3f91928816be8d8ed3",
      "contractAddress": null
    },
    {
      "status": "0x1",
      "cumulativeGasUsed": "0x1ea47f",
      "logs": [
        {
          "address": "0x58e3ee6accd124642ddb5d3f91928816be8d8ed3",
          "topics": [
            "0x8be0079c531659141344cd1fd0a4f28419497f9722a3daafe3b4186f6b6457e0",
            "0x0000000000000000000000000990be6db8c785fbbf9ded8baec612a10cae814b",
            "0x00000000000000000000000047ff5bbab981ff022743aa4281d4d6dd7fb1a4d0"
          ],
          "data": "0x",
          "blockHash": "0x40beb31005a2009beceec0825bd1b2aeafa985f11edd951d6a6c5e584505fd0d",
          "blockNumber": "0x260b1c8",
          "blockTimestamp": "0x6931d96f",
          "transactionHash": "0x9bea922fba822d119adc23a5720b0bde1a669f48a7157ebc39396d56b7375fb7",
          "transactionIndex": "0x3",
          "logIndex": "0x1",
          "removed": false
        }
      ],
      "logsBloom": "0x00000000000000000000000000000000000000002000000000800000100000000000000000000000000000000000000000000000000000000000000000080000000000000000000000000000400000000001000000000000000000000000000000000000000000000000000000000000000000000000000000000000000000400000000000000000000000000800000000000000000000000000000000000000000000000000000000000000000000000000000000000000020000000000000000000000000000000000000000000000100000000000000000000000000000000000000000000000000000000080000000000000000000000000400000000000",
      "type": "0x2",
      "transactionHash": "0x9bea922fba822d119adc23a5720b0bde1a669f48a7157ebc39396d56b7375fb7",
      "transactionIndex": "0x3",
      "blockHash": "0x40beb31005a2009beceec0825bd1b2aeafa985f11edd951d6a6c5e584505fd0d",
      "blockNumber": "0x260b1c8",
      "gasUsed": "0xf4240",
      "effectiveGasPrice": "0x17bfac7c00",
      "from": "0x0990be6db8c785fbbf9ded8baec612a10cae814b",
      "to": "0x58e3ee6accd124642ddb5d3f91928816be8d8ed3",
      "contractAddress": null
    },
    {
      "status": "0x1",
      "cumulativeGasUsed": "0x30e4ea",
      "logs": [
        {
          "address": "0x6f475642a6e85809b1c36fa62763669b1b48dd5b",
          "topics": [
            "0x6ee10e9ed4d6ce9742703a498707862f4b00f1396a87195eb93267b3d7983981"
          ],
          "data": "0x000000000000000000000000288f9d76019469bfeb56bb77d86afa2bf563b75b00000000000000000000000047ff5bbab981ff022743aa4281d4d6dd7fb1a4d0",
          "blockHash": "0x7c86d48e1a9074c965d3072254ea0880b55a3aaed895d97b956916caa3ebfe3f",
          "blockNumber": "0x260b1cd",
          "blockTimestamp": "0x6931d971",
          "transactionHash": "0x4195fd8d70e45b31e31cb718ba31b10040be5c49c626a2744cc422f28454746e",
          "transactionIndex": "0x5",
          "logIndex": "0x17",
          "removed": false
        }
      ],
      "logsBloom": "0x00000000000000000000000000000000000000000000000000800000000000000000000000000000000000000000000000000002000000000000000000000000000000000000000000000000000000000140000000000000000000000000000000000000000000000000000000000000000000000000000000000000000000000000000000000000000000000000000000000000000000000000000000000000000000000000000000000000000000000000000000000000000000000000000400000000000000000000000000000000000000000000000000000000000000004000000000000000000000000000000000000000000000000000000000000000",
      "type": "0x2",
      "transactionHash": "0x4195fd8d70e45b31e31cb718ba31b10040be5c49c626a2744cc422f28454746e",
      "transactionIndex": "0x5",
      "blockHash": "0x7c86d48e1a9074c965d3072254ea0880b55a3aaed895d97b956916caa3ebfe3f",
      "blockNumber": "0x260b1cd",
      "gasUsed": "0xf4240",
      "effectiveGasPrice": "0x17bfac7c00",
      "from": "0x0990be6db8c785fbbf9ded8baec612a10cae814b",
      "to": "0x288f9d76019469bfeb56bb77d86afa2bf563b75b",
      "contractAddress": null
    },
    {
      "status": "0x1",
      "cumulativeGasUsed": "0x309c5b",
      "logs": [
        {
          "address": "0x288f9d76019469bfeb56bb77d86afa2bf563b75b",
          "topics": [
            "0x8be0079c531659141344cd1fd0a4f28419497f9722a3daafe3b4186f6b6457e0",
            "0x0000000000000000000000000990be6db8c785fbbf9ded8baec612a10cae814b",
            "0x00000000000000000000000047ff5bbab981ff022743aa4281d4d6dd7fb1a4d0"
          ],
          "data": "0x",
          "blockHash": "0xb5366de6df20f77b482e76147c7e1a80e1f3c0ad343b9beafdef34481138a3b8",
          "blockNumber": "0x260b1d1",
          "blockTimestamp": "0x6931d973",
          "transactionHash": "0x58fa2a56e0f43489fe05d5bc02549a5800b10749202a38a9c0cfeb89f54fd79e",
          "transactionIndex": "0x5",
          "logIndex": "0x7",
          "removed": false
        }
      ],
      "logsBloom": "0x00000000000000000000000000000000000000002000000000800000000000000000000000000000000000000000000000000000000000010000000000080000000000000000000000000000400000000001000000000000000000000000000000000000000000000000000001000000000000000000000000000000000000400000000000000000000008000800000000000000000000000000000000000000000000000000000000000000000000000000000000000000020000000000000000000000000000000000000000000000000000000000000000000000000000000000000000000000000000000000000000000000000000000000400000000000",
      "type": "0x2",
      "transactionHash": "0x58fa2a56e0f43489fe05d5bc02549a5800b10749202a38a9c0cfeb89f54fd79e",
      "transactionIndex": "0x5",
      "blockHash": "0xb5366de6df20f77b482e76147c7e1a80e1f3c0ad343b9beafdef34481138a3b8",
      "blockNumber": "0x260b1d1",
      "gasUsed": "0xf4240",
      "effectiveGasPrice": "0x17bfac7c00",
      "from": "0x0990be6db8c785fbbf9ded8baec612a10cae814b",
      "to": "0x288f9d76019469bfeb56bb77d86afa2bf563b75b",
      "contractAddress": null
    },
    {
      "status": "0x1",
      "cumulativeGasUsed": "0x317fa4",
      "logs": [
        {
          "address": "0x6f475642a6e85809b1c36fa62763669b1b48dd5b",
          "topics": [
            "0x6ee10e9ed4d6ce9742703a498707862f4b00f1396a87195eb93267b3d7983981"
          ],
          "data": "0x000000000000000000000000ba554f7a47f0792b9fa41a1256d4cf628bb1d02800000000000000000000000047ff5bbab981ff022743aa4281d4d6dd7fb1a4d0",
          "blockHash": "0xc3610aaef525133c19a97132c6591394c3667dc0ceffb766a10d8b15cbf810ff",
          "blockNumber": "0x260b1d7",
          "blockTimestamp": "0x6931d975",
          "transactionHash": "0x25e1b25b55c1d797884771a6307a754f89f478f8e9e0708547d9f749dd0558ce",
          "transactionIndex": "0x6",
          "logIndex": "0x17",
          "removed": false
        }
      ],
      "logsBloom": "0x00000000000000000000000000000000000000000000000000800000000000000000000000000000000000000000000000000002000000000000000000000000000000000000000000000000000000000140000000000000000000000000000000000000000000000000000000000000000000000000000000000000000000000000000000000000000000000000000000000000000000000000000000000000000000000000000000000000000000000000000000000000000000000000000400000000000000000000000000000000000000000000000000000000000000004000000000000000000000000000000000000000000000000000000000000000",
      "type": "0x2",
      "transactionHash": "0x25e1b25b55c1d797884771a6307a754f89f478f8e9e0708547d9f749dd0558ce",
      "transactionIndex": "0x6",
      "blockHash": "0xc3610aaef525133c19a97132c6591394c3667dc0ceffb766a10d8b15cbf810ff",
      "blockNumber": "0x260b1d7",
      "gasUsed": "0xf4240",
      "effectiveGasPrice": "0x17bfac7c00",
      "from": "0x0990be6db8c785fbbf9ded8baec612a10cae814b",
      "to": "0xba554f7a47f0792b9fa41a1256d4cf628bb1d028",
      "contractAddress": null
    },
    {
      "status": "0x1",
      "cumulativeGasUsed": "0x463ce1",
      "logs": [
        {
          "address": "0xba554f7a47f0792b9fa41a1256d4cf628bb1d028",
          "topics": [
            "0x8be0079c531659141344cd1fd0a4f28419497f9722a3daafe3b4186f6b6457e0",
            "0x0000000000000000000000000990be6db8c785fbbf9ded8baec612a10cae814b",
            "0x00000000000000000000000047ff5bbab981ff022743aa4281d4d6dd7fb1a4d0"
          ],
          "data": "0x",
          "blockHash": "0x40ceb84358fef0de37f19a918f83b70dff0a185a27a210bb0bdd8deebaf0f11a",
          "blockNumber": "0x260b1db",
          "blockTimestamp": "0x6931d977",
          "transactionHash": "0x7b8fd9675a85f082b09bf8ef726d3a8c7e52d7b3605bc0466663817a95c90a84",
          "transactionIndex": "0x7",
          "logIndex": "0x9",
          "removed": false
        }
      ],
      "logsBloom": "0x00000000000000000000000000000000000000002000000000800000000000000000000000000000000000000000000000000000000000000000000000080000000000000000000000000000400000000001000000000000000000000000000000000000000000000000000004000000000000000000000000000000000000400000000000000000000000000800000000000000000000000000000000000000000000000000000000000000000000000000000000000000020020000000000000000000000000000000000000000000000000000000000000000000000000000000000000000000000000000000000001000000000000000000400000000000",
      "type": "0x2",
      "transactionHash": "0x7b8fd9675a85f082b09bf8ef726d3a8c7e52d7b3605bc0466663817a95c90a84",
      "transactionIndex": "0x7",
      "blockHash": "0x40ceb84358fef0de37f19a918f83b70dff0a185a27a210bb0bdd8deebaf0f11a",
      "blockNumber": "0x260b1db",
      "gasUsed": "0xf4240",
      "effectiveGasPrice": "0x17bfac7c00",
      "from": "0x0990be6db8c785fbbf9ded8baec612a10cae814b",
      "to": "0xba554f7a47f0792b9fa41a1256d4cf628bb1d028",
      "contractAddress": null
    },
    {
      "status": "0x1",
      "cumulativeGasUsed": "0x11a8f39",
      "logs": [
        {
          "address": "0xc2871eae630640ce1a16b39a17c498f22d76c21a",
          "topics": [
            "0x8be0079c531659141344cd1fd0a4f28419497f9722a3daafe3b4186f6b6457e0",
            "0x0000000000000000000000000990be6db8c785fbbf9ded8baec612a10cae814b",
            "0x00000000000000000000000047ff5bbab981ff022743aa4281d4d6dd7fb1a4d0"
          ],
          "data": "0x",
          "blockHash": "0x31e0148ad8bd4baf2794ea5080661f2ff38a8daaa637d7318ca2c39f718bd1fc",
          "blockNumber": "0x260b1df",
          "blockTimestamp": "0x6931d978",
          "transactionHash": "0x72c9ab7960b7c0ddca650ec6a847783827b7803f6f6d14870a1d0167831c4b09",
          "transactionIndex": "0x15",
          "logIndex": "0x3a",
          "removed": false
        }
      ],
      "logsBloom": "0x00000000000000000000000000000000000000002000000000800000000000000000000000000000000000000000000000000000000000000000000000080000000000000080000000000200400000000001000000000000000000000000000100000000000000000000000000000000000000000000000000000000000000400000000000000000000000000800000000000000000000000000000000000000000000000000000000000000000000000000000000000000020000000000000000000000000000000000000000000000000000000000000000000000000000000000000000000000000000000000000000000000000000000000400000000000",
      "type": "0x2",
      "transactionHash": "0x72c9ab7960b7c0ddca650ec6a847783827b7803f6f6d14870a1d0167831c4b09",
      "transactionIndex": "0x15",
      "blockHash": "0x31e0148ad8bd4baf2794ea5080661f2ff38a8daaa637d7318ca2c39f718bd1fc",
      "blockNumber": "0x260b1df",
      "gasUsed": "0xf4240",
      "effectiveGasPrice": "0x17bfac7c00",
      "from": "0x0990be6db8c785fbbf9ded8baec612a10cae814b",
      "to": "0xc2871eae630640ce1a16b39a17c498f22d76c21a",
      "contractAddress": null
    }
  ],
  "libraries": [],
  "pending": [],
  "returns": {},
  "timestamp": 1764874618500,
  "chain": 143,
  "commit": "e74521b"
}