{
  "transactions": [
    {
      "hash": "0x77ea30da5f1f1f2771a92e03346eb9c75008cbdc0371f57a4530180ee936a6e5",
      "transactionType": "CALL",
      "contractName": null,
      "contractAddress": "0x29acc7c504665a5ea95344796f784095f0cfcc58",
      "function": "setEnforcedOptions((uint32,uint16,bytes)[])",
      "arguments": [
        "[(30255, 1, 0x00030100110100000000000000000000000000030d40), (30255, 2, 0x0003010011010000000000000000000000000003d090)]"
      ],
      "transaction": {
        "from": "0x0990be6db8c785fbbf9ded8baec612a10cae814b",
        "to": "0x29acc7c504665a5ea95344796f784095f0cfcc58",
        "gas": "0x1d9b6",
        "value": "0x0",
        "input": "0xb98bd07000000000000000000000000000000000000000000000000000000000000000200000000000000000000000000000000000000000000000000000000000000002000000000000000000000000000000000000000000000000000000000000004000000000000000000000000000000000000000000000000000000000000000e0000000000000000000000000000000000000000000000000000000000000762f00000000000000000000000000000000000000000000000000000000000000010000000000000000000000000000000000000000000000000000000000000060000000000000000000000000000000000000000000000000000000000000001600030100110100000000000000000000000000030d4000000000000000000000000000000000000000000000000000000000000000000000000000000000762f0000000000000000000000000000000000000000000000000000000000000002000000000000000000000000000000000000000000000000000000000000006000000000000000000000000000000000000000000000000000000000000000160003010011010000000000000000000000000003d09000000000000000000000",
        "nonce": "0x0",
        "chainId": "0x8f"
      },
      "additionalContracts": [],
      "isFixedGasLimit": false
    },
    {
      "hash": null,
      "transactionType": "CALL",
      "contractName": null,
      "contractAddress": "0x137643f7b2c189173867b3391f6629cab46f0f1a",
      "function": "setEnforcedOptions((uint32,uint16,bytes)[])",
      "arguments": [
        "[(30255, 1, 0x00030100110100000000000000000000000000030d40), (30255, 2, 0x0003010011010000000000000000000000000003d090)]"
      ],
      "transaction": {
        "from": "0x0990be6db8c785fbbf9ded8baec612a10cae814b",
        "to": "0x137643f7b2c189173867b3391f6629cab46f0f1a",
        "gas": "0x1d9b6",
        "value": "0x0",
        "input": "0xb98bd07000000000000000000000000000000000000000000000000000000000000000200000000000000000000000000000000000000000000000000000000000000002000000000000000000000000000000000000000000000000000000000000004000000000000000000000000000000000000000000000000000000000000000e0000000000000000000000000000000000000000000000000000000000000762f00000000000000000000000000000000000000000000000000000000000000010000000000000000000000000000000000000000000000000000000000000060000000000000000000000000000000000000000000000000000000000000001600030100110100000000000000000000000000030d4000000000000000000000000000000000000000000000000000000000000000000000000000000000762f0000000000000000000000000000000000000000000000000000000000000002000000000000000000000000000000000000000000000000000000000000006000000000000000000000000000000000000000000000000000000000000000160003010011010000000000000000000000000003d09000000000000000000000",
        "nonce": "0x1",
        "chainId": "0x8f"
      },
      "additionalContracts": [],
      "isFixedGasLimit": false
    },
    {
      "hash": null,
      "transactionType": "CALL",
      "contractName": null,
      "contractAddress": "0x3b4cf37a3335f21c945a40088404c715525fcb29",
      "function": "setEnforcedOptions((uint32,uint16,bytes)[])",
      "arguments": [
        "[(30255, 1, 0x00030100110100000000000000000000000000030d40), (30255, 2, 0x0003010011010000000000000000000000000003d090)]"
      ],
      "transaction": {
        "from": "0x0990be6db8c785fbbf9ded8baec612a10cae814b",
        "to": "0x3b4cf37a3335f21c945a40088404c715525fcb29",
        "gas": "0x1d9b6",
        "value": "0x0",
        "input": "0xb98bd07000000000000000000000000000000000000000000000000000000000000000200000000000000000000000000000000000000000000000000000000000000002000000000000000000000000000000000000000000000000000000000000004000000000000000000000000000000000000000000000000000000000000000e0000000000000000000000000000000000000000000000000000000000000762f00000000000000000000000000000000000000000000000000000000000000010000000000000000000000000000000000000000000000000000000000000060000000000000000000000000000000000000000000000000000000000000001600030100110100000000000000000000000000030d4000000000000000000000000000000000000000000000000000000000000000000000000000000000762f0000000000000000000000000000000000000000000000000000000000000002000000000000000000000000000000000000000000000000000000000000006000000000000000000000000000000000000000000000000000000000000000160003010011010000000000000000000000000003d09000000000000000000000",
        "nonce": "0x2",
        "chainId": "0x8f"
      },
      "additionalContracts": [],
      "isFixedGasLimit": false
    },
    {
      "hash": null,
      "transactionType": "CALL",
      "contractName": null,
      "contractAddress": "0x58e3ee6accd124642ddb5d3f91928816be8d8ed3",
      "function": "setEnforcedOptions((uint32,uint16,bytes)[])",
      "arguments": [
        "[(30255, 1, 0x00030100110100000000000000000000000000030d40), (30255, 2, 0x0003010011010000000000000000000000000003d090)]"
      ],
      "transaction": {
        "from": "0x0990be6db8c785fbbf9ded8baec612a10cae814b",
        "to": "0x58e3ee6accd124642ddb5d3f91928816be8d8ed3",
        "gas": "0x1da11",
        "value": "0x0",
        "input": "0xb98bd07000000000000000000000000000000000000000000000000000000000000000200000000000000000000000000000000000000000000000000000000000000002000000000000000000000000000000000000000000000000000000000000004000000000000000000000000000000000000000000000000000000000000000e0000000000000000000000000000000000000000000000000000000000000762f00000000000000000000000000000000000000000000000000000000000000010000000000000000000000000000000000000000000000000000000000000060000000000000000000000000000000000000000000000000000000000000001600030100110100000000000000000000000000030d4000000000000000000000000000000000000000000000000000000000000000000000000000000000762f0000000000000000000000000000000000000000000000000000000000000002000000000000000000000000000000000000000000000000000000000000006000000000000000000000000000000000000000000000000000000000000000160003010011010000000000000000000000000003d09000000000000000000000",
        "nonce": "0x3",
        "chainId": "0x8f"
      },
      "additionalContracts": [],
      "isFixedGasLimit": false
    },
    {
      "hash": null,
      "transactionType": "CALL",
      "contractName": null,
      "contractAddress": "0x288f9d76019469bfeb56bb77d86afa2bf563b75b",
      "function": "setEnforcedOptions((uint32,uint16,bytes)[])",
      "arguments": [
        "[(30255, 1, 0x00030100110100000000000000000000000000030d40), (30255, 2, 0x0003010011010000000000000000000000000003d090)]"
      ],
      "transaction": {
        "from": "0x0990be6db8c785fbbf9ded8baec612a10cae814b",
        "to": "0x288f9d76019469bfeb56bb77d86afa2bf563b75b",
        "gas": "0x1d9b6",
        "value": "0x0",
        "input": "0xb98bd07000000000000000000000000000000000000000000000000000000000000000200000000000000000000000000000000000000000000000000000000000000002000000000000000000000000000000000000000000000000000000000000004000000000000000000000000000000000000000000000000000000000000000e0000000000000000000000000000000000000000000000000000000000000762f00000000000000000000000000000000000000000000000000000000000000010000000000000000000000000000000000000000000000000000000000000060000000000000000000000000000000000000000000000000000000000000001600030100110100000000000000000000000000030d4000000000000000000000000000000000000000000000000000000000000000000000000000000000762f0000000000000000000000000000000000000000000000000000000000000002000000000000000000000000000000000000000000000000000000000000006000000000000000000000000000000000000000000000000000000000000000160003010011010000000000000000000000000003d09000000000000000000000",
        "nonce": "0x4",
        "chainId": "0x8f"
      },
      "additionalContracts": [],
      "isFixedGasLimit": false
    },
    {
      "hash": null,
      "transactionType": "CALL",
      "contractName": null,
      "contractAddress": "0xba554f7a47f0792b9fa41a1256d4cf628bb1d028",
      "function": "setEnforcedOptions((uint32,uint16,bytes)[])",
      "arguments": [
        "[(30255, 1, 0x00030100110100000000000000000000000000030d40), (30255, 2, 0x0003010011010000000000000000000000000003d090)]"
      ],
      "transaction": {
        "from": "0x0990be6db8c785fbbf9ded8baec612a10cae814b",
        "to": "0xba554f7a47f0792b9fa41a1256d4cf628bb1d028",
        "gas": "0x1d9b6",
        "value": "0x0",
        "input": "0xb98bd07000000000000000000000000000000000000000000000000000000000000000200000000000000000000000000000000000000000000000000000000000000002000000000000000000000000000000000000000000000000000000000000004000000000000000000000000000000000000000000000000000000000000000e0000000000000000000000000000000000000000000000000000000000000762f00000000000000000000000000000000000000000000000000000000000000010000000000000000000000000000000000000000000000000000000000000060000000000000000000000000000000000000000000000000000000000000001600030100110100000000000000000000000000030d4000000000000000000000000000000000000000000000000000000000000000000000000000000000762f0000000000000000000000000000000000000000000000000000000000000002000000000000000000000000000000000000000000000000000000000000006000000000000000000000000000000000000000000000000000000000000000160003010011010000000000000000000000000003d09000000000000000000000",
        "nonce": "0x5",
        "chainId": "0x8f"
      },
      "additionalContracts": [],
      "isFixedGasLimit": false
    },
    {
      "hash": null,
      "transactionType": "CALL",
      "contractName": null,
      "contractAddress": "0x29acc7c504665a5ea95344796f784095f0cfcc58",
      "function": "setPeer(uint32,bytes32)",
      "arguments": [
        "30255",
        "0x000000000000000000000000d86fbbd0c8715d2c1f40e451e5c3514e65e7576a"
      ],
      "transaction": {
        "from": "0x0990be6db8c785fbbf9ded8baec612a10cae814b",
        "to": "0x29acc7c504665a5ea95344796f784095f0cfcc58",
        "gas": "0x13a65",
        "value": "0x0",
        "input": "0x3400288b000000000000000000000000000000000000000000000000000000000000762f000000000000000000000000d86fbbd0c8715d2c1f40e451e5c3514e65e7576a",
        "nonce": "0x6",
        "chainId": "0x8f"
      },
      "additionalContracts": [],
      "isFixedGasLimit": false
    },
    {
      "hash": null,
      "transactionType": "CALL",
      "contractName": null,
      "contractAddress": "0x137643f7b2c189173867b3391f6629cab46f0f1a",
      "function": "setPeer(uint32,bytes32)",
      "arguments": [
        "30255",
        "0x00000000000000000000000088aa7854d3b2daa5e37e7ce73a1f39669623a361"
      ],
      "transaction": {
        "from": "0x0990be6db8c785fbbf9ded8baec612a10cae814b",
        "to": "0x137643f7b2c189173867b3391f6629cab46f0f1a",
        "gas": "0x13a65",
        "value": "0x0",
        "input": "0x3400288b000000000000000000000000000000000000000000000000000000000000762f00000000000000000000000088aa7854d3b2daa5e37e7ce73a1f39669623a361",
        "nonce": "0x7",
        "chainId": "0x8f"
      },
      "additionalContracts": [],
      "isFixedGasLimit": false
    },
    {
      "hash": null,
      "transactionType": "CALL",
      "contractName": null,
      "contractAddress": "0x3b4cf37a3335f21c945a40088404c715525fcb29",
      "function": "setPeer(uint32,bytes32)",
      "arguments": [
        "30255",
        "0x000000000000000000000000999dfabe3b1cc2ef66eb032eea42fea329bba168"
      ],
      "transaction": {
        "from": "0x0990be6db8c785fbbf9ded8baec612a10cae814b",
        "to": "0x3b4cf37a3335f21c945a40088404c715525fcb29",
        "gas": "0x13a65",
        "value": "0x0",
        "input": "0x3400288b000000000000000000000000000000000000000000000000000000000000762f000000000000000000000000999dfabe3b1cc2ef66eb032eea42fea329bba168",
        "nonce": "0x8",
        "chainId": "0x8f"
      },
      "additionalContracts": [],
      "isFixedGasLimit": false
    },
    {
      "hash": null,
      "transactionType": "CALL",
      "contractName": null,
      "contractAddress": "0x58e3ee6accd124642ddb5d3f91928816be8d8ed3",
      "function": "setPeer(uint32,bytes32)",
      "arguments": [
        "30255",
        "0x00000000000000000000000096a394058e2b84a89bac9667b19661ed003cf5d4"
      ],
      "transaction": {
        "from": "0x0990be6db8c785fbbf9ded8baec612a10cae814b",
        "to": "0x58e3ee6accd124642ddb5d3f91928816be8d8ed3",
        "gas": "0x128be",
        "value": "0x0",
        "input": "0x3400288b000000000000000000000000000000000000000000000000000000000000762f00000000000000000000000096a394058e2b84a89bac9667b19661ed003cf5d4",
        "nonce": "0x9",
        "chainId": "0x8f"
      },
      "additionalContracts": [],
      "isFixedGasLimit": false
    },
    {
      "hash": null,
      "transactionType": "CALL",
      "contractName": null,
      "contractAddress": "0x288f9d76019469bfeb56bb77d86afa2bf563b75b",
      "function": "setPeer(uint32,bytes32)",
      "arguments": [
        "30255",
        "0x0000000000000000000000009abfe1f8a999b0011ecd6116649aee8d575f5604"
      ],
      "transaction": {
        "from": "0x0990be6db8c785fbbf9ded8baec612a10cae814b",
        "to": "0x288f9d76019469bfeb56bb77d86afa2bf563b75b",
        "gas": "0x13a65",
        "value": "0x0",
        "input": "0x3400288b000000000000000000000000000000000000000000000000000000000000762f0000000000000000000000009abfe1f8a999b0011ecd6116649aee8d575f5604",
        "nonce": "0xa",
        "chainId": "0x8f"
      },
      "additionalContracts": [],
      "isFixedGasLimit": false
    },
    {
      "hash": null,
      "transactionType": "CALL",
      "contractName": null,
      "contractAddress": "0xba554f7a47f0792b9fa41a1256d4cf628bb1d028",
      "function": "setPeer(uint32,bytes32)",
      "arguments": [
        "30255",
        "0x00000000000000000000000075c38d46001b0f8108c4136216bd2694982c20fc"
      ],
      "transaction": {
        "from": "0x0990be6db8c785fbbf9ded8baec612a10cae814b",
        "to": "0xba554f7a47f0792b9fa41a1256d4cf628bb1d028",
        "gas": "0x128dc",
        "value": "0x0",
        "input": "0x3400288b000000000000000000000000000000000000000000000000000000000000762f00000000000000000000000075c38d46001b0f8108c4136216bd2694982c20fc",
        "nonce": "0xb",
        "chainId": "0x8f"
      },
      "additionalContracts": [],
      "isFixedGasLimit": false
    },
    {
      "hash": null,
      "transactionType": "CALL",
      "contractName": null,
      "contractAddress": "0x6f475642a6e85809b1c36fa62763669b1b48dd5b",
      "function": "setConfig(address,address,(uint32,uint32,bytes)[])",
      "arguments": [
        "0x29aCC7c504665A5EA95344796f784095f0cfcC58",
        "0xC39161c743D0307EB9BCc9FEF03eeb9Dc4802de7",
        "[(30255, 2, 0x0000000000000000000000000000000000000000000000000000000000000020000000000000000000000000000000000000000000000000000000000000000000000000000000000000000000000000000000000000000000000000000000030000000000000000000000000000000000000000000000000000000000000000000000000000000000000000000000000000000000000000000000000000000000000000000000000000000000000000000000000000000000000000000000c000000000000000000000000000000000000000000000000000000000000001400000000000000000000000000000000000000000000000000000000000000003000000000000000000000000282b3386571f7f794450d5789911a9804fa346b40000000000000000000000005ec52fb644072247c3264f0ac3db981cdebe3eca000000000000000000000000dcdd4628f858b45260c31d6ad076bd2c3d3c2f730000000000000000000000000000000000000000000000000000000000000000)]"
      ],
      "transaction": {
        "from": "0x0990be6db8c785fbbf9ded8baec612a10cae814b",
        "to": "0x6f475642a6e85809b1c36fa62763669b1b48dd5b",
        "gas": "0x36d34",
        "value": "0x0",
        "input": "0x6dbd9f9000000000000000000000000029acc7c504665a5ea95344796f784095f0cfcc58000000000000000000000000c39161c743d0307eb9bcc9fef03eeb9dc4802de7000000000000000000000000000000000000000000000000000000000000006000000000000000000000000000000000000000000000000000000000000000010000000000000000000000000000000000000000000000000000000000000020000000000000000000000000000000000000000000000000000000000000762f0000000000000000000000000000000000000000000000000000000000000002000000000000000000000000000000000000000000000000000000000000006000000000000000000000000000000000000000000000000000000000000001800000000000000000000000000000000000000000000000000000000000000020000000000000000000000000000000000000000000000000000000000000000000000000000000000000000000000000000000000000000000000000000000030000000000000000000000000000000000000000000000000000000000000000000000000000000000000000000000000000000000000000000000000000000000000000000000000000000000000000000000000000000000000000000000c000000000000000000000000000000000000000000000000000000000000001400000000000000000000000000000000000000000000000000000000000000003000000000000000000000000282b3386571f7f794450d5789911a9804fa346b40000000000000000000000005ec52fb644072247c3264f0ac3db981cdebe3eca000000000000000000000000dcdd4628f858b45260c31d6ad076bd2c3d3c2f730000000000000000000000000000000000000000000000000000000000000000",
        "nonce": "0xc",
        "chainId": "0x8f"
      },
      "additionalContracts": [],
      "isFixedGasLimit": false
    },
    {
      "hash": null,
      "transactionType": "CALL",
      "contractName": null,
      "contractAddress": "0x6f475642a6e85809b1c36fa62763669b1b48dd5b",
      "function": "setConfig(address,address,(uint32,uint32,bytes)[])",
      "arguments": [
        "0x29aCC7c504665A5EA95344796f784095f0cfcC58",
        "0xe1844c5D63a9543023008D332Bd3d2e6f1FE1043",
        "[(30255, 2, 0x0000000000000000000000000000000000000000000000000000000000000020000000000000000000000000000000000000000000000000000000000000000000000000000000000000000000000000000000000000000000000000000000030000000000000000000000000000000000000000000000000000000000000000000000000000000000000000000000000000000000000000000000000000000000000000000000000000000000000000000000000000000000000000000000c000000000000000000000000000000000000000000000000000000000000001400000000000000000000000000000000000000000000000000000000000000003000000000000000000000000282b3386571f7f794450d5789911a9804fa346b40000000000000000000000005ec52fb644072247c3264f0ac3db981cdebe3eca000000000000000000000000dcdd4628f858b45260c31d6ad076bd2c3d3c2f730000000000000000000000000000000000000000000000000000000000000000)]"
      ],
      "transaction": {
        "from": "0x0990be6db8c785fbbf9ded8baec612a10cae814b",
        "to": "0x6f475642a6e85809b1c36fa62763669b1b48dd5b",
        "gas": "0x39f54",
        "value": "0x0",
        "input": "0x6dbd9f9000000000000000000000000029acc7c504665a5ea95344796f784095f0cfcc58000000000000000000000000e1844c5d63a9543023008d332bd3d2e6f1fe1043000000000000000000000000000000000000000000000000000000000000006000000000000000000000000000000000000000000000000000000000000000010000000000000000000000000000000000000000000000000000000000000020000000000000000000000000000000000000000000000000000000000000762f0000000000000000000000000000000000000000000000000000000000000002000000000000000000000000000000000000000000000000000000000000006000000000000000000000000000000000000000000000000000000000000001800000000000000000000000000000000000000000000000000000000000000020000000000000000000000000000000000000000000000000000000000000000000000000000000000000000000000000000000000000000000000000000000030000000000000000000000000000000000000000000000000000000000000000000000000000000000000000000000000000000000000000000000000000000000000000000000000000000000000000000000000000000000000000000000c000000000000000000000000000000000000000000000000000000000000001400000000000000000000000000000000000000000000000000000000000000003000000000000000000000000282b3386571f7f794450d5789911a9804fa346b40000000000000000000000005ec52fb644072247c3264f0ac3db981cdebe3eca000000000000000000000000dcdd4628f858b45260c31d6ad076bd2c3d3c2f730000000000000000000000000000000000000000000000000000000000000000",
        "nonce": "0xd",
        "chainId": "0x8f"
      },
      "additionalContracts": [],
      "isFixedGasLimit": false
    },
    {
      "hash": null,
      "transactionType": "CALL",
      "contractName": null,
      "contractAddress": "0x6f475642a6e85809b1c36fa62763669b1b48dd5b",
      "function": "setConfig(address,address,(uint32,uint32,bytes)[])",
      "arguments": [
        "0x137643F7b2C189173867b3391f6629caB46F0F1a",
        "0xC39161c743D0307EB9BCc9FEF03eeb9Dc4802de7",
        "[(30255, 2, 0x0000000000000000000000000000000000000000000000000000000000000020000000000000000000000000000000000000000000000000000000000000000000000000000000000000000000000000000000000000000000000000000000030000000000000000000000000000000000000000000000000000000000000000000000000000000000000000000000000000000000000000000000000000000000000000000000000000000000000000000000000000000000000000000000c000000000000000000000000000000000000000000000000000000000000001400000000000000000000000000000000000000000000000000000000000000003000000000000000000000000282b3386571f7f794450d5789911a9804fa346b40000000000000000000000005ec52fb644072247c3264f0ac3db981cdebe3eca000000000000000000000000dcdd4628f858b45260c31d6ad076bd2c3d3c2f730000000000000000000000000000000000000000000000000000000000000000)]"
      ],
      "transaction": {
        "from": "0x0990be6db8c785fbbf9ded8baec612a10cae814b",
        "to": "0x6f475642a6e85809b1c36fa62763669b1b48dd5b",
        "gas": "0x36d34",
        "value": "0x0",
        "input": "0x6dbd9f90000000000000000000000000137643f7b2c189173867b3391f6629cab46f0f1a000000000000000000000000c39161c743d0307eb9bcc9fef03eeb9dc4802de7000000000000000000000000000000000000000000000000000000000000006000000000000000000000000000000000000000000000000000000000000000010000000000000000000000000000000000000000000000000000000000000020000000000000000000000000000000000000000000000000000000000000762f0000000000000000000000000000000000000000000000000000000000000002000000000000000000000000000000000000000000000000000000000000006000000000000000000000000000000000000000000000000000000000000001800000000000000000000000000000000000000000000000000000000000000020000000000000000000000000000000000000000000000000000000000000000000000000000000000000000000000000000000000000000000000000000000030000000000000000000000000000000000000000000000000000000000000000000000000000000000000000000000000000000000000000000000000000000000000000000000000000000000000000000000000000000000000000000000c000000000000000000000000000000000000000000000000000000000000001400000000000000000000000000000000000000000000000000000000000000003000000000000000000000000282b3386571f7f794450d5789911a9804fa346b40000000000000000000000005ec52fb644072247c3264f0ac3db981cdebe3eca000000000000000000000000dcdd4628f858b45260c31d6ad076bd2c3d3c2f730000000000000000000000000000000000000000000000000000000000000000",
        "nonce": "0xe",
        "chainId": "0x8f"
      },
      "additionalContracts": [],
      "isFixedGasLimit": false
    },
    {
      "hash": null,
      "transactionType": "CALL",
      "contractName": null,
      "contractAddress": "0x6f475642a6e85809b1c36fa62763669b1b48dd5b",
      "function": "setConfig(address,address,(uint32,uint32,bytes)[])",
      "arguments": [
        "0x137643F7b2C189173867b3391f6629caB46F0F1a",
        "0xe1844c5D63a9543023008D332Bd3d2e6f1FE1043",
        "[(30255, 2, 0x0000000000000000000000000000000000000000000000000000000000000020000000000000000000000000000000000000000000000000000000000000000000000000000000000000000000000000000000000000000000000000000000030000000000000000000000000000000000000000000000000000000000000000000000000000000000000000000000000000000000000000000000000000000000000000000000000000000000000000000000000000000000000000000000c000000000000000000000000000000000000000000000000000000000000001400000000000000000000000000000000000000000000000000000000000000003000000000000000000000000282b3386571f7f794450d5789911a9804fa346b40000000000000000000000005ec52fb644072247c3264f0ac3db981cdebe3eca000000000000000000000000dcdd4628f858b45260c31d6ad076bd2c3d3c2f730000000000000000000000000000000000000000000000000000000000000000)]"
      ],
      "transaction": {
        "from": "0x0990be6db8c785fbbf9ded8baec612a10cae814b",
        "to": "0x6f475642a6e85809b1c36fa62763669b1b48dd5b",
        "gas": "0x39f54",
        "value": "0x0",
        "input": "0x6dbd9f90000000000000000000000000137643f7b2c189173867b3391f6629cab46f0f1a000000000000000000000000e1844c5d63a9543023008d332bd3d2e6f1fe1043000000000000000000000000000000000000000000000000000000000000006000000000000000000000000000000000000000000000000000000000000000010000000000000000000000000000000000000000000000000000000000000020000000000000000000000000000000000000000000000000000000000000762f0000000000000000000000000000000000000000000000000000000000000002000000000000000000000000000000000000000000000000000000000000006000000000000000000000000000000000000000000000000000000000000001800000000000000000000000000000000000000000000000000000000000000020000000000000000000000000000000000000000000000000000000000000000000000000000000000000000000000000000000000000000000000000000000030000000000000000000000000000000000000000000000000000000000000000000000000000000000000000000000000000000000000000000000000000000000000000000000000000000000000000000000000000000000000000000000c000000000000000000000000000000000000000000000000000000000000001400000000000000000000000000000000000000000000000000000000000000003000000000000000000000000282b3386571f7f794450d5789911a9804fa346b40000000000000000000000005ec52fb644072247c3264f0ac3db981cdebe3eca000000000000000000000000dcdd4628f858b45260c31d6ad076bd2c3d3c2f730000000000000000000000000000000000000000000000000000000000000000",
        "nonce": "0xf",
        "chainId": "0x8f"
      },
      "additionalContracts": [],
      "isFixedGasLimit": false
    },
    {
      "hash": null,
      "transactionType": "CALL",
      "contractName": null,
      "contractAddress": "0x6f475642a6e85809b1c36fa62763669b1b48dd5b",
      "function": "setConfig(address,address,(uint32,uint32,bytes)[])",
      "arguments": [
        "0x3B4cf37A3335F21c945a40088404c715525fCb29",
        "0xC39161c743D0307EB9BCc9FEF03eeb9Dc4802de7",
        "[(30255, 2, 0x0000000000000000000000000000000000000000000000000000000000000020000000000000000000000000000000000000000000000000000000000000000000000000000000000000000000000000000000000000000000000000000000030000000000000000000000000000000000000000000000000000000000000000000000000000000000000000000000000000000000000000000000000000000000000000000000000000000000000000000000000000000000000000000000c000000000000000000000000000000000000000000000000000000000000001400000000000000000000000000000000000000000000000000000000000000003000000000000000000000000282b3386571f7f794450d5789911a9804fa346b40000000000000000000000005ec52fb644072247c3264f0ac3db981cdebe3eca000000000000000000000000dcdd4628f858b45260c31d6ad076bd2c3d3c2f730000000000000000000000000000000000000000000000000000000000000000)]"
      ],
      "transaction": {
        "from": "0x0990be6db8c785fbbf9ded8baec612a10cae814b",
        "to": "0x6f475642a6e85809b1c36fa62763669b1b48dd5b",
        "gas": "0x36d34",
        "value": "0x0",
        "input": "0x6dbd9f900000000000000000000000003b4cf37a3335f21c945a40088404c715525fcb29000000000000000000000000c39161c743d0307eb9bcc9fef03eeb9dc4802de7000000000000000000000000000000000000000000000000000000000000006000000000000000000000000000000000000000000000000000000000000000010000000000000000000000000000000000000000000000000000000000000020000000000000000000000000000000000000000000000000000000000000762f0000000000000000000000000000000000000000000000000000000000000002000000000000000000000000000000000000000000000000000000000000006000000000000000000000000000000000000000000000000000000000000001800000000000000000000000000000000000000000000000000000000000000020000000000000000000000000000000000000000000000000000000000000000000000000000000000000000000000000000000000000000000000000000000030000000000000000000000000000000000000000000000000000000000000000000000000000000000000000000000000000000000000000000000000000000000000000000000000000000000000000000000000000000000000000000000c000000000000000000000000000000000000000000000000000000000000001400000000000000000000000000000000000000000000000000000000000000003000000000000000000000000282b3386571f7f794450d5789911a9804fa346b40000000000000000000000005ec52fb644072247c3264f0ac3db981cdebe3eca000000000000000000000000dcdd4628f858b45260c31d6ad076bd2c3d3c2f730000000000000000000000000000000000000000000000000000000000000000",
        "nonce": "0x10",
        "chainId": "0x8f"
      },
      "additionalContracts": [],
      "isFixedGasLimit": false
    },
    {
      "hash": null,
      "transactionType": "CALL",
      "contractName": null,
      "contractAddress": "0x6f475642a6e85809b1c36fa62763669b1b48dd5b",
      "function": "setConfig(address,address,(uint32,uint32,bytes)[])",
      "arguments": [
        "0x3B4cf37A3335F21c945a40088404c715525fCb29",
        "0xe1844c5D63a9543023008D332Bd3d2e6f1FE1043",
        "[(30255, 2, 0x0000000000000000000000000000000000000000000000000000000000000020000000000000000000000000000000000000000000000000000000000000000000000000000000000000000000000000000000000000000000000000000000030000000000000000000000000000000000000000000000000000000000000000000000000000000000000000000000000000000000000000000000000000000000000000000000000000000000000000000000000000000000000000000000c000000000000000000000000000000000000000000000000000000000000001400000000000000000000000000000000000000000000000000000000000000003000000000000000000000000282b3386571f7f794450d5789911a9804fa346b40000000000000000000000005ec52fb644072247c3264f0ac3db981cdebe3eca000000000000000000000000dcdd4628f858b45260c31d6ad076bd2c3d3c2f730000000000000000000000000000000000000000000000000000000000000000)]"
      ],
      "transaction": {
        "from": "0x0990be6db8c785fbbf9ded8baec612a10cae814b",
        "to": "0x6f475642a6e85809b1c36fa62763669b1b48dd5b",
        "gas": "0x39f54",
        "value": "0x0",
        "input": "0x6dbd9f900000000000000000000000003b4cf37a3335f21c945a40088404c715525fcb29000000000000000000000000e1844c5d63a9543023008d332bd3d2e6f1fe1043000000000000000000000000000000000000000000000000000000000000006000000000000000000000000000000000000000000000000000000000000000010000000000000000000000000000000000000000000000000000000000000020000000000000000000000000000000000000000000000000000000000000762f0000000000000000000000000000000000000000000000000000000000000002000000000000000000000000000000000000000000000000000000000000006000000000000000000000000000000000000000000000000000000000000001800000000000000000000000000000000000000000000000000000000000000020000000000000000000000000000000000000000000000000000000000000000000000000000000000000000000000000000000000000000000000000000000030000000000000000000000000000000000000000000000000000000000000000000000000000000000000000000000000000000000000000000000000000000000000000000000000000000000000000000000000000000000000000000000c000000000000000000000000000000000000000000000000000000000000001400000000000000000000000000000000000000000000000000000000000000003000000000000000000000000282b3386571f7f794450d5789911a9804fa346b40000000000000000000000005ec52fb644072247c3264f0ac3db981cdebe3eca000000000000000000000000dcdd4628f858b45260c31d6ad076bd2c3d3c2f730000000000000000000000000000000000000000000000000000000000000000",
        "nonce": "0x11",
        "chainId": "0x8f"
      },
      "additionalContracts": [],
      "isFixedGasLimit": false
    },
    {
      "hash": null,
      "transactionType": "CALL",
      "contractName": null,
      "contractAddress": "0x6f475642a6e85809b1c36fa62763669b1b48dd5b",
      "function": "setConfig(address,address,(uint32,uint32,bytes)[])",
      "arguments": [
        "0x58E3ee6accd124642dDB5d3f91928816Be8D8ed3",
        "0xC39161c743D0307EB9BCc9FEF03eeb9Dc4802de7",
        "[(30255, 2, 0x0000000000000000000000000000000000000000000000000000000000000020000000000000000000000000000000000000000000000000000000000000000000000000000000000000000000000000000000000000000000000000000000030000000000000000000000000000000000000000000000000000000000000000000000000000000000000000000000000000000000000000000000000000000000000000000000000000000000000000000000000000000000000000000000c000000000000000000000000000000000000000000000000000000000000001400000000000000000000000000000000000000000000000000000000000000003000000000000000000000000282b3386571f7f794450d5789911a9804fa346b40000000000000000000000005ec52fb644072247c3264f0ac3db981cdebe3eca000000000000000000000000dcdd4628f858b45260c31d6ad076bd2c3d3c2f730000000000000000000000000000000000000000000000000000000000000000)]"
      ],
      "transaction": {
        "from": "0x0990be6db8c785fbbf9ded8baec612a10cae814b",
        "to": "0x6f475642a6e85809b1c36fa62763669b1b48dd5b",
        "gas": "0x36d34",
        "value": "0x0",
        "input": "0x6dbd9f9000000000000000000000000058e3ee6accd124642ddb5d3f91928816be8d8ed3000000000000000000000000c39161c743d0307eb9bcc9fef03eeb9dc4802de7000000000000000000000000000000000000000000000000000000000000006000000000000000000000000000000000000000000000000000000000000000010000000000000000000000000000000000000000000000000000000000000020000000000000000000000000000000000000000000000000000000000000762f0000000000000000000000000000000000000000000000000000000000000002000000000000000000000000000000000000000000000000000000000000006000000000000000000000000000000000000000000000000000000000000001800000000000000000000000000000000000000000000000000000000000000020000000000000000000000000000000000000000000000000000000000000000000000000000000000000000000000000000000000000000000000000000000030000000000000000000000000000000000000000000000000000000000000000000000000000000000000000000000000000000000000000000000000000000000000000000000000000000000000000000000000000000000000000000000c000000000000000000000000000000000000000000000000000000000000001400000000000000000000000000000000000000000000000000000000000000003000000000000000000000000282b3386571f7f794450d5789911a9804fa346b40000000000000000000000005ec52fb644072247c3264f0ac3db981cdebe3eca000000000000000000000000dcdd4628f858b45260c31d6ad076bd2c3d3c2f730000000000000000000000000000000000000000000000000000000000000000",
        "nonce": "0x12",
        "chainId": "0x8f"
      },
      "additionalContracts": [],
      "isFixedGasLimit": false
    },
    {
      "hash": null,
      "transactionType": "CALL",
      "contractName": null,
      "contractAddress": "0x6f475642a6e85809b1c36fa62763669b1b48dd5b",
      "function": "setConfig(address,address,(uint32,uint32,bytes)[])",
      "arguments": [
        "0x58E3ee6accd124642dDB5d3f91928816Be8D8ed3",
        "0xe1844c5D63a9543023008D332Bd3d2e6f1FE1043",
        "[(30255, 2, 0x0000000000000000000000000000000000000000000000000000000000000020000000000000000000000000000000000000000000000000000000000000000000000000000000000000000000000000000000000000000000000000000000030000000000000000000000000000000000000000000000000000000000000000000000000000000000000000000000000000000000000000000000000000000000000000000000000000000000000000000000000000000000000000000000c000000000000000000000000000000000000000000000000000000000000001400000000000000000000000000000000000000000000000000000000000000003000000000000000000000000282b3386571f7f794450d5789911a9804fa346b40000000000000000000000005ec52fb644072247c3264f0ac3db981cdebe3eca000000000000000000000000dcdd4628f858b45260c31d6ad076bd2c3d3c2f730000000000000000000000000000000000000000000000000000000000000000)]"
      ],
      "transaction": {
        "from": "0x0990be6db8c785fbbf9ded8baec612a10cae814b",
        "to": "0x6f475642a6e85809b1c36fa62763669b1b48dd5b",
        "gas": "0x39f54",
        "value": "0x0",
        "input": "0x6dbd9f9000000000000000000000000058e3ee6accd124642ddb5d3f91928816be8d8ed3000000000000000000000000e1844c5d63a9543023008d332bd3d2e6f1fe1043000000000000000000000000000000000000000000000000000000000000006000000000000000000000000000000000000000000000000000000000000000010000000000000000000000000000000000000000000000000000000000000020000000000000000000000000000000000000000000000000000000000000762f0000000000000000000000000000000000000000000000000000000000000002000000000000000000000000000000000000000000000000000000000000006000000000000000000000000000000000000000000000000000000000000001800000000000000000000000000000000000000000000000000000000000000020000000000000000000000000000000000000000000000000000000000000000000000000000000000000000000000000000000000000000000000000000000030000000000000000000000000000000000000000000000000000000000000000000000000000000000000000000000000000000000000000000000000000000000000000000000000000000000000000000000000000000000000000000000c000000000000000000000000000000000000000000000000000000000000001400000000000000000000000000000000000000000000000000000000000000003000000000000000000000000282b3386571f7f794450d5789911a9804fa346b40000000000000000000000005ec52fb644072247c3264f0ac3db981cdebe3eca000000000000000000000000dcdd4628f858b45260c31d6ad076bd2c3d3c2f730000000000000000000000000000000000000000000000000000000000000000",
        "nonce": "0x13",
        "chainId": "0x8f"
      },
      "additionalContracts": [],
      "isFixedGasLimit": false
    },
    {
      "hash": null,
      "transactionType": "CALL",
      "contractName": null,
      "contractAddress": "0x6f475642a6e85809b1c36fa62763669b1b48dd5b",
      "function": "setConfig(address,address,(uint32,uint32,bytes)[])",
      "arguments": [
        "0x288F9D76019469bfEb56BB77d86aFa2bF563B75B",
        "0xC39161c743D0307EB9BCc9FEF03eeb9Dc4802de7",
        "[(30255, 2, 0x0000000000000000000000000000000000000000000000000000000000000020000000000000000000000000000000000000000000000000000000000000000000000000000000000000000000000000000000000000000000000000000000030000000000000000000000000000000000000000000000000000000000000000000000000000000000000000000000000000000000000000000000000000000000000000000000000000000000000000000000000000000000000000000000c000000000000000000000000000000000000000000000000000000000000001400000000000000000000000000000000000000000000000000000000000000003000000000000000000000000282b3386571f7f794450d5789911a9804fa346b40000000000000000000000005ec52fb644072247c3264f0ac3db981cdebe3eca000000000000000000000000dcdd4628f858b45260c31d6ad076bd2c3d3c2f730000000000000000000000000000000000000000000000000000000000000000)]"
      ],
      "transaction": {
        "from": "0x0990be6db8c785fbbf9ded8baec612a10cae814b",
        "to": "0x6f475642a6e85809b1c36fa62763669b1b48dd5b",
        "gas": "0x36d34",
        "value": "0x0",
        "input": "0x6dbd9f90000000000000000000000000288f9d76019469bfeb56bb77d86afa2bf563b75b000000000000000000000000c39161c743d0307eb9bcc9fef03eeb9dc4802de7000000000000000000000000000000000000000000000000000000000000006000000000000000000000000000000000000000000000000000000000000000010000000000000000000000000000000000000000000000000000000000000020000000000000000000000000000000000000000000000000000000000000762f0000000000000000000000000000000000000000000000000000000000000002000000000000000000000000000000000000000000000000000000000000006000000000000000000000000000000000000000000000000000000000000001800000000000000000000000000000000000000000000000000000000000000020000000000000000000000000000000000000000000000000000000000000000000000000000000000000000000000000000000000000000000000000000000030000000000000000000000000000000000000000000000000000000000000000000000000000000000000000000000000000000000000000000000000000000000000000000000000000000000000000000000000000000000000000000000c000000000000000000000000000000000000000000000000000000000000001400000000000000000000000000000000000000000000000000000000000000003000000000000000000000000282b3386571f7f794450d5789911a9804fa346b40000000000000000000000005ec52fb644072247c3264f0ac3db981cdebe3eca000000000000000000000000dcdd4628f858b45260c31d6ad076bd2c3d3c2f730000000000000000000000000000000000000000000000000000000000000000",
        "nonce": "0x14",
        "chainId": "0x8f"
      },
      "additionalContracts": [],
      "isFixedGasLimit": false
    },
    {
      "hash": null,
      "transactionType": "CALL",
      "contractName": null,
      "contractAddress": "0x6f475642a6e85809b1c36fa62763669b1b48dd5b",
      "function": "setConfig(address,address,(uint32,uint32,bytes)[])",
      "arguments": [
        "0x288F9D76019469bfEb56BB77d86aFa2bF563B75B",
        "0xe1844c5D63a9543023008D332Bd3d2e6f1FE1043",
        "[(30255, 2, 0x0000000000000000000000000000000000000000000000000000000000000020000000000000000000000000000000000000000000000000000000000000000000000000000000000000000000000000000000000000000000000000000000030000000000000000000000000000000000000000000000000000000000000000000000000000000000000000000000000000000000000000000000000000000000000000000000000000000000000000000000000000000000000000000000c000000000000000000000000000000000000000000000000000000000000001400000000000000000000000000000000000000000000000000000000000000003000000000000000000000000282b3386571f7f794450d5789911a9804fa346b40000000000000000000000005ec52fb644072247c3264f0ac3db981cdebe3eca000000000000000000000000dcdd4628f858b45260c31d6ad076bd2c3d3c2f730000000000000000000000000000000000000000000000000000000000000000)]"
      ],
      "transaction": {
        "from": "0x0990be6db8c785fbbf9ded8baec612a10cae814b",
        "to": "0x6f475642a6e85809b1c36fa62763669b1b48dd5b",
        "gas": "0x39f54",
        "value": "0x0",
        "input": "0x6dbd9f90000000000000000000000000288f9d76019469bfeb56bb77d86afa2bf563b75b000000000000000000000000e1844c5d63a9543023008d332bd3d2e6f1fe1043000000000000000000000000000000000000000000000000000000000000006000000000000000000000000000000000000000000000000000000000000000010000000000000000000000000000000000000000000000000000000000000020000000000000000000000000000000000000000000000000000000000000762f0000000000000000000000000000000000000000000000000000000000000002000000000000000000000000000000000000000000000000000000000000006000000000000000000000000000000000000000000000000000000000000001800000000000000000000000000000000000000000000000000000000000000020000000000000000000000000000000000000000000000000000000000000000000000000000000000000000000000000000000000000000000000000000000030000000000000000000000000000000000000000000000000000000000000000000000000000000000000000000000000000000000000000000000000000000000000000000000000000000000000000000000000000000000000000000000c000000000000000000000000000000000000000000000000000000000000001400000000000000000000000000000000000000000000000000000000000000003000000000000000000000000282b3386571f7f794450d5789911a9804fa346b40000000000000000000000005ec52fb644072247c3264f0ac3db981cdebe3eca000000000000000000000000dcdd4628f858b45260c31d6ad076bd2c3d3c2f730000000000000000000000000000000000000000000000000000000000000000",
        "nonce": "0x15",
        "chainId": "0x8f"
      },
      "additionalContracts": [],
      "isFixedGasLimit": false
    },
    {
      "hash": null,
      "transactionType": "CALL",
      "contractName": null,
      "contractAddress": "0x6f475642a6e85809b1c36fa62763669b1b48dd5b",
      "function": "setConfig(address,address,(uint32,uint32,bytes)[])",
      "arguments": [
        "0xBa554F7A47f0792b9fa41A1256d4cf628Bb1D028",
        "0xC39161c743D0307EB9BCc9FEF03eeb9Dc4802de7",
        "[(30255, 2, 0x0000000000000000000000000000000000000000000000000000000000000020000000000000000000000000000000000000000000000000000000000000000000000000000000000000000000000000000000000000000000000000000000030000000000000000000000000000000000000000000000000000000000000000000000000000000000000000000000000000000000000000000000000000000000000000000000000000000000000000000000000000000000000000000000c000000000000000000000000000000000000000000000000000000000000001400000000000000000000000000000000000000000000000000000000000000003000000000000000000000000282b3386571f7f794450d5789911a9804fa346b40000000000000000000000005ec52fb644072247c3264f0ac3db981cdebe3eca000000000000000000000000dcdd4628f858b45260c31d6ad076bd2c3d3c2f730000000000000000000000000000000000000000000000000000000000000000)]"
      ],
      "transaction": {
        "from": "0x0990be6db8c785fbbf9ded8baec612a10cae814b",
        "to": "0x6f475642a6e85809b1c36fa62763669b1b48dd5b",
        "gas": "0x36d34",
        "value": "0x0",
        "input": "0x6dbd9f90000000000000000000000000ba554f7a47f0792b9fa41a1256d4cf628bb1d028000000000000000000000000c39161c743d0307eb9bcc9fef03eeb9dc4802de7000000000000000000000000000000000000000000000000000000000000006000000000000000000000000000000000000000000000000000000000000000010000000000000000000000000000000000000000000000000000000000000020000000000000000000000000000000000000000000000000000000000000762f0000000000000000000000000000000000000000000000000000000000000002000000000000000000000000000000000000000000000000000000000000006000000000000000000000000000000000000000000000000000000000000001800000000000000000000000000000000000000000000000000000000000000020000000000000000000000000000000000000000000000000000000000000000000000000000000000000000000000000000000000000000000000000000000030000000000000000000000000000000000000000000000000000000000000000000000000000000000000000000000000000000000000000000000000000000000000000000000000000000000000000000000000000000000000000000000c000000000000000000000000000000000000000000000000000000000000001400000000000000000000000000000000000000000000000000000000000000003000000000000000000000000282b3386571f7f794450d5789911a9804fa346b40000000000000000000000005ec52fb644072247c3264f0ac3db981cdebe3eca000000000000000000000000dcdd4628f858b45260c31d6ad076bd2c3d3c2f730000000000000000000000000000000000000000000000000000000000000000",
        "nonce": "0x16",
        "chainId": "0x8f"
      },
      "additionalContracts": [],
      "isFixedGasLimit": false
    },
    {
      "hash": null,
      "transactionType": "CALL",
      "contractName": null,
      "contractAddress": "0x6f475642a6e85809b1c36fa62763669b1b48dd5b",
      "function": "setConfig(address,address,(uint32,uint32,bytes)[])",
      "arguments": [
        "0xBa554F7A47f0792b9fa41A1256d4cf628Bb1D028",
        "0xe1844c5D63a9543023008D332Bd3d2e6f1FE1043",
        "[(30255, 2, 0x0000000000000000000000000000000000000000000000000000000000000020000000000000000000000000000000000000000000000000000000000000000000000000000000000000000000000000000000000000000000000000000000030000000000000000000000000000000000000000000000000000000000000000000000000000000000000000000000000000000000000000000000000000000000000000000000000000000000000000000000000000000000000000000000c000000000000000000000000000000000000000000000000000000000000001400000000000000000000000000000000000000000000000000000000000000003000000000000000000000000282b3386571f7f794450d5789911a9804fa346b40000000000000000000000005ec52fb644072247c3264f0ac3db981cdebe3eca000000000000000000000000dcdd4628f858b45260c31d6ad076bd2c3d3c2f730000000000000000000000000000000000000000000000000000000000000000)]"
      ],
      "transaction": {
        "from": "0x0990be6db8c785fbbf9ded8baec612a10cae814b",
        "to": "0x6f475642a6e85809b1c36fa62763669b1b48dd5b",
        "gas": "0x39f54",
        "value": "0x0",
        "input": "0x6dbd9f90000000000000000000000000ba554f7a47f0792b9fa41a1256d4cf628bb1d028000000000000000000000000e1844c5d63a9543023008d332bd3d2e6f1fe1043000000000000000000000000000000000000000000000000000000000000006000000000000000000000000000000000000000000000000000000000000000010000000000000000000000000000000000000000000000000000000000000020000000000000000000000000000000000000000000000000000000000000762f0000000000000000000000000000000000000000000000000000000000000002000000000000000000000000000000000000000000000000000000000000006000000000000000000000000000000000000000000000000000000000000001800000000000000000000000000000000000000000000000000000000000000020000000000000000000000000000000000000000000000000000000000000000000000000000000000000000000000000000000000000000000000000000000030000000000000000000000000000000000000000000000000000000000000000000000000000000000000000000000000000000000000000000000000000000000000000000000000000000000000000000000000000000000000000000000c000000000000000000000000000000000000000000000000000000000000001400000000000000000000000000000000000000000000000000000000000000003000000000000000000000000282b3386571f7f794450d5789911a9804fa346b40000000000000000000000005ec52fb644072247c3264f0ac3db981cdebe3eca000000000000000000000000dcdd4628f858b45260c31d6ad076bd2c3d3c2f730000000000000000000000000000000000000000000000000000000000000000",
        "nonce": "0x17",
        "chainId": "0x8f"
      },
      "additionalContracts": [],
      "isFixedGasLimit": false
    },
    {
      "hash": null,
      "transactionType": "CALL",
      "contractName": null,
      "contractAddress": "0x6f475642a6e85809b1c36fa62763669b1b48dd5b",
      "function": "setSendLibrary(address,uint32,address)",
      "arguments": [
        "0x29aCC7c504665A5EA95344796f784095f0cfcC58",
        "30255",
        "0xC39161c743D0307EB9BCc9FEF03eeb9Dc4802de7"
      ],
      "transaction": {
        "from": "0x0990be6db8c785fbbf9ded8baec612a10cae814b",
        "to": "0x6f475642a6e85809b1c36fa62763669b1b48dd5b",
        "gas": "0x1378b",
        "value": "0x0",
        "input": "0x9535ff3000000000000000000000000029acc7c504665a5ea95344796f784095f0cfcc58000000000000000000000000000000000000000000000000000000000000762f000000000000000000000000c39161c743d0307eb9bcc9fef03eeb9dc4802de7",
        "nonce": "0x18",
        "chainId": "0x8f"
      },
      "additionalContracts": [],
      "isFixedGasLimit": false
    },
    {
      "hash": null,
      "transactionType": "CALL",
      "contractName": null,
      "contractAddress": "0x6f475642a6e85809b1c36fa62763669b1b48dd5b",
      "function": "setReceiveLibrary(address,uint32,address,uint256)",
      "arguments": [
        "0x29aCC7c504665A5EA95344796f784095f0cfcC58",
        "30255",
        "0xe1844c5D63a9543023008D332Bd3d2e6f1FE1043",
        "0"
      ],
      "transaction": {
        "from": "0x0990be6db8c785fbbf9ded8baec612a10cae814b",
        "to": "0x6f475642a6e85809b1c36fa62763669b1b48dd5b",
        "gas": "0x15b7f",
        "value": "0x0",
        "input": "0x6a14d71500000000000000000000000029acc7c504665a5ea95344796f784095f0cfcc58000000000000000000000000000000000000000000000000000000000000762f000000000000000000000000e1844c5d63a9543023008d332bd3d2e6f1fe10430000000000000000000000000000000000000000000000000000000000000000",
        "nonce": "0x19",
        "chainId": "0x8f"
      },
      "additionalContracts": [],
      "isFixedGasLimit": false
    },
    {
      "hash": null,
      "transactionType": "CALL",
      "contractName": null,
      "contractAddress": "0x6f475642a6e85809b1c36fa62763669b1b48dd5b",
      "function": "setSendLibrary(address,uint32,address)",
      "arguments": [
        "0x137643F7b2C189173867b3391f6629caB46F0F1a",
        "30255",
        "0xC39161c743D0307EB9BCc9FEF03eeb9Dc4802de7"
      ],
      "transaction": {
        "from": "0x0990be6db8c785fbbf9ded8baec612a10cae814b",
        "to": "0x6f475642a6e85809b1c36fa62763669b1b48dd5b",
        "gas": "0x1378b",
        "value": "0x0",
        "input": "0x9535ff30000000000000000000000000137643f7b2c189173867b3391f6629cab46f0f1a000000000000000000000000000000000000000000000000000000000000762f000000000000000000000000c39161c743d0307eb9bcc9fef03eeb9dc4802de7",
        "nonce": "0x1a",
        "chainId": "0x8f"
      },
      "additionalContracts": [],
      "isFixedGasLimit": false
    },
    {
      "hash": null,
      "transactionType": "CALL",
      "contractName": null,
      "contractAddress": "0x6f475642a6e85809b1c36fa62763669b1b48dd5b",
      "function": "setReceiveLibrary(address,uint32,address,uint256)",
      "arguments": [
        "0x137643F7b2C189173867b3391f6629caB46F0F1a",
        "30255",
        "0xe1844c5D63a9543023008D332Bd3d2e6f1FE1043",
        "0"
      ],
      "transaction": {
        "from": "0x0990be6db8c785fbbf9ded8baec612a10cae814b",
        "to": "0x6f475642a6e85809b1c36fa62763669b1b48dd5b",
        "gas": "0x15b7f",
        "value": "0x0",
        "input": "0x6a14d715000000000000000000000000137643f7b2c189173867b3391f6629cab46f0f1a000000000000000000000000000000000000000000000000000000000000762f000000000000000000000000e1844c5d63a9543023008d332bd3d2e6f1fe10430000000000000000000000000000000000000000000000000000000000000000",
        "nonce": "0x1b",
        "chainId": "0x8f"
      },
      "additionalContracts": [],
      "isFixedGasLimit": false
    },
    {
      "hash": null,
      "transactionType": "CALL",
      "contractName": null,
      "contractAddress": "0x6f475642a6e85809b1c36fa62763669b1b48dd5b",
      "function": "setSendLibrary(address,uint32,address)",
      "arguments": [
        "0x3B4cf37A3335F21c945a40088404c715525fCb29",
        "30255",
        "0xC39161c743D0307EB9BCc9FEF03eeb9Dc4802de7"
      ],
      "transaction": {
        "from": "0x0990be6db8c785fbbf9ded8baec612a10cae814b",
        "to": "0x6f475642a6e85809b1c36fa62763669b1b48dd5b",
        "gas": "0x1378b",
        "value": "0x0",
        "input": "0x9535ff300000000000000000000000003b4cf37a3335f21c945a40088404c715525fcb29000000000000000000000000000000000000000000000000000000000000762f000000000000000000000000c39161c743d0307eb9bcc9fef03eeb9dc4802de7",
        "nonce": "0x1c",
        "chainId": "0x8f"
      },
      "additionalContracts": [],
      "isFixedGasLimit": false
    },
    {
      "hash": null,
      "transactionType": "CALL",
      "contractName": null,
      "contractAddress": "0x6f475642a6e85809b1c36fa62763669b1b48dd5b",
      "function": "setReceiveLibrary(address,uint32,address,uint256)",
      "arguments": [
        "0x3B4cf37A3335F21c945a40088404c715525fCb29",
        "30255",
        "0xe1844c5D63a9543023008D332Bd3d2e6f1FE1043",
        "0"
      ],
      "transaction": {
        "from": "0x0990be6db8c785fbbf9ded8baec612a10cae814b",
        "to": "0x6f475642a6e85809b1c36fa62763669b1b48dd5b",
        "gas": "0x15b7f",
        "value": "0x0",
        "input": "0x6a14d7150000000000000000000000003b4cf37a3335f21c945a40088404c715525fcb29000000000000000000000000000000000000000000000000000000000000762f000000000000000000000000e1844c5d63a9543023008d332bd3d2e6f1fe10430000000000000000000000000000000000000000000000000000000000000000",
        "nonce": "0x1d",
        "chainId": "0x8f"
      },
      "additionalContracts": [],
      "isFixedGasLimit": false
    },
    {
      "hash": null,
      "transactionType": "CALL",
      "contractName": null,
      "contractAddress": "0x6f475642a6e85809b1c36fa62763669b1b48dd5b",
      "function": "setSendLibrary(address,uint32,address)",
      "arguments": [
        "0x58E3ee6accd124642dDB5d3f91928816Be8D8ed3",
        "30255",
        "0xC39161c743D0307EB9BCc9FEF03eeb9Dc4802de7"
      ],
      "transaction": {
        "from": "0x0990be6db8c785fbbf9ded8baec612a10cae814b",
        "to": "0x6f475642a6e85809b1c36fa62763669b1b48dd5b",
        "gas": "0x1378b",
        "value": "0x0",
        "input": "0x9535ff3000000000000000000000000058e3ee6accd124642ddb5d3f91928816be8d8ed3000000000000000000000000000000000000000000000000000000000000762f000000000000000000000000c39161c743d0307eb9bcc9fef03eeb9dc4802de7",
        "nonce": "0x1e",
        "chainId": "0x8f"
      },
      "additionalContracts": [],
      "isFixedGasLimit": false
    },
    {
      "hash": null,
      "transactionType": "CALL",
      "contractName": null,
      "contractAddress": "0x6f475642a6e85809b1c36fa62763669b1b48dd5b",
      "function": "setReceiveLibrary(address,uint32,address,uint256)",
      "arguments": [
        "0x58E3ee6accd124642dDB5d3f91928816Be8D8ed3",
        "30255",
        "0xe1844c5D63a9543023008D332Bd3d2e6f1FE1043",
        "0"
      ],
      "transaction": {
        "from": "0x0990be6db8c785fbbf9ded8baec612a10cae814b",
        "to": "0x6f475642a6e85809b1c36fa62763669b1b48dd5b",
        "gas": "0x15b7f",
        "value": "0x0",
        "input": "0x6a14d71500000000000000000000000058e3ee6accd124642ddb5d3f91928816be8d8ed3000000000000000000000000000000000000000000000000000000000000762f000000000000000000000000e1844c5d63a9543023008d332bd3d2e6f1fe10430000000000000000000000000000000000000000000000000000000000000000",
        "nonce": "0x1f",
        "chainId": "0x8f"
      },
      "additionalContracts": [],
      "isFixedGasLimit": false
    },
    {
      "hash": null,
      "transactionType": "CALL",
      "contractName": null,
      "contractAddress": "0x6f475642a6e85809b1c36fa62763669b1b48dd5b",
      "function": "setSendLibrary(address,uint32,address)",
      "arguments": [
        "0x288F9D76019469bfEb56BB77d86aFa2bF563B75B",
        "30255",
        "0xC39161c743D0307EB9BCc9FEF03eeb9Dc4802de7"
      ],
      "transaction": {
        "from": "0x0990be6db8c785fbbf9ded8baec612a10cae814b",
        "to": "0x6f475642a6e85809b1c36fa62763669b1b48dd5b",
        "gas": "0x1378b",
        "value": "0x0",
        "input": "0x9535ff30000000000000000000000000288f9d76019469bfeb56bb77d86afa2bf563b75b000000000000000000000000000000000000000000000000000000000000762f000000000000000000000000c39161c743d0307eb9bcc9fef03eeb9dc4802de7",
        "nonce": "0x20",
        "chainId": "0x8f"
      },
      "additionalContracts": [],
      "isFixedGasLimit": false
    },
    {
      "hash": null,
      "transactionType": "CALL",
      "contractName": null,
      "contractAddress": "0x6f475642a6e85809b1c36fa62763669b1b48dd5b",
      "function": "setReceiveLibrary(address,uint32,address,uint256)",
      "arguments": [
        "0x288F9D76019469bfEb56BB77d86aFa2bF563B75B",
        "30255",
        "0xe1844c5D63a9543023008D332Bd3d2e6f1FE1043",
        "0"
      ],
      "transaction": {
        "from": "0x0990be6db8c785fbbf9ded8baec612a10cae814b",
        "to": "0x6f475642a6e85809b1c36fa62763669b1b48dd5b",
        "gas": "0x15b7f",
        "value": "0x0",
        "input": "0x6a14d715000000000000000000000000288f9d76019469bfeb56bb77d86afa2bf563b75b000000000000000000000000000000000000000000000000000000000000762f000000000000000000000000e1844c5d63a9543023008d332bd3d2e6f1fe10430000000000000000000000000000000000000000000000000000000000000000",
        "nonce": "0x21",
        "chainId": "0x8f"
      },
      "additionalContracts": [],
      "isFixedGasLimit": false
    },
    {
      "hash": null,
      "transactionType": "CALL",
      "contractName": null,
      "contractAddress": "0x6f475642a6e85809b1c36fa62763669b1b48dd5b",
      "function": "setSendLibrary(address,uint32,address)",
      "arguments": [
        "0xBa554F7A47f0792b9fa41A1256d4cf628Bb1D028",
        "30255",
        "0xC39161c743D0307EB9BCc9FEF03eeb9Dc4802de7"
      ],
      "transaction": {
        "from": "0x0990be6db8c785fbbf9ded8baec612a10cae814b",
        "to": "0x6f475642a6e85809b1c36fa62763669b1b48dd5b",
        "gas": "0x1378b",
        "value": "0x0",
        "input": "0x9535ff30000000000000000000000000ba554f7a47f0792b9fa41a1256d4cf628bb1d028000000000000000000000000000000000000000000000000000000000000762f000000000000000000000000c39161c743d0307eb9bcc9fef03eeb9dc4802de7",
        "nonce": "0x22",
        "chainId": "0x8f"
      },
      "additionalContracts": [],
      "isFixedGasLimit": false
    },
    {
      "hash": null,
      "transactionType": "CALL",
      "contractName": null,
      "contractAddress": "0x6f475642a6e85809b1c36fa62763669b1b48dd5b",
      "function": "setReceiveLibrary(address,uint32,address,uint256)",
      "arguments": [
        "0xBa554F7A47f0792b9fa41A1256d4cf628Bb1D028",
        "30255",
        "0xe1844c5D63a9543023008D332Bd3d2e6f1FE1043",
        "0"
      ],
      "transaction": {
        "from": "0x0990be6db8c785fbbf9ded8baec612a10cae814b",
        "to": "0x6f475642a6e85809b1c36fa62763669b1b48dd5b",
        "gas": "0x15b7f",
        "value": "0x0",
        "input": "0x6a14d715000000000000000000000000ba554f7a47f0792b9fa41a1256d4cf628bb1d028000000000000000000000000000000000000000000000000000000000000762f000000000000000000000000e1844c5d63a9543023008d332bd3d2e6f1fe10430000000000000000000000000000000000000000000000000000000000000000",
        "nonce": "0x23",
        "chainId": "0x8f"
      },
      "additionalContracts": [],
      "isFixedGasLimit": false
    },
    {
      "hash": null,
      "transactionType": "CALL",
      "contractName": null,
      "contractAddress": "0x29acc7c504665a5ea95344796f784095f0cfcc58",
      "function": "setDelegate(address)",
      "arguments": [
        "0x47FF5bBAB981Ff022743AA4281D4d6Dd7Fb1a4D0"
      ],
      "transaction": {
        "from": "0x0990be6db8c785fbbf9ded8baec612a10cae814b",
        "to": "0x29acc7c504665a5ea95344796f784095f0cfcc58",
        "gas": "0xdd73",
        "value": "0x0",
        "input": "0xca5eb5e100000000000000000000000047ff5bbab981ff022743aa4281d4d6dd7fb1a4d0",
        "nonce": "0x24",
        "chainId": "0x8f"
      },
      "additionalContracts": [],
      "isFixedGasLimit": false
    },
    {
      "hash": null,
      "transactionType": "CALL",
      "contractName": null,
      "contractAddress": "0x29acc7c504665a5ea95344796f784095f0cfcc58",
      "function": "transferOwnership(address)",
      "arguments": [
        "0x47FF5bBAB981Ff022743AA4281D4d6Dd7Fb1a4D0"
      ],
      "transaction": {
        "from": "0x0990be6db8c785fbbf9ded8baec612a10cae814b",
        "to": "0x29acc7c504665a5ea95344796f784095f0cfcc58",
        "gas": "0xc1df",
        "value": "0x0",
        "input": "0xf2fde38b00000000000000000000000047ff5bbab981ff022743aa4281d4d6dd7fb1a4d0",
        "nonce": "0x25",
        "chainId": "0x8f"
      },
      "additionalContracts": [],
      "isFixedGasLimit": false
    },
    {
      "hash": null,
      "transactionType": "CALL",
      "contractName": null,
      "contractAddress": "0x137643f7b2c189173867b3391f6629cab46f0f1a",
      "function": "setDelegate(address)",
      "arguments": [
        "0x47FF5bBAB981Ff022743AA4281D4d6Dd7Fb1a4D0"
      ],
      "transaction": {
        "from": "0x0990be6db8c785fbbf9ded8baec612a10cae814b",
        "to": "0x137643f7b2c189173867b3391f6629cab46f0f1a",
        "gas": "0xdd73",
        "value": "0x0",
        "input": "0xca5eb5e100000000000000000000000047ff5bbab981ff022743aa4281d4d6dd7fb1a4d0",
        "nonce": "0x26",
        "chainId": "0x8f"
      },
      "additionalContracts": [],
      "isFixedGasLimit": false
    },
    {
      "hash": null,
      "transactionType": "CALL",
      "contractName": null,
      "contractAddress": "0x137643f7b2c189173867b3391f6629cab46f0f1a",
      "function": "transferOwnership(address)",
      "arguments": [
        "0x47FF5bBAB981Ff022743AA4281D4d6Dd7Fb1a4D0"
      ],
      "transaction": {
        "from": "0x0990be6db8c785fbbf9ded8baec612a10cae814b",
        "to": "0x137643f7b2c189173867b3391f6629cab46f0f1a",
        "gas": "0xc1df",
        "value": "0x0",
        "input": "0xf2fde38b00000000000000000000000047ff5bbab981ff022743aa4281d4d6dd7fb1a4d0",
        "nonce": "0x27",
        "chainId": "0x8f"
      },
      "additionalContracts": [],
      "isFixedGasLimit": false
    },
    {
      "hash": null,
      "transactionType": "CALL",
      "contractName": null,
      "contractAddress": "0x3b4cf37a3335f21c945a40088404c715525fcb29",
      "function": "setDelegate(address)",
      "arguments": [
        "0x47FF5bBAB981Ff022743AA4281D4d6Dd7Fb1a4D0"
      ],
      "transaction": {
        "from": "0x0990be6db8c785fbbf9ded8baec612a10cae814b",
        "to": "0x3b4cf37a3335f21c945a40088404c715525fcb29",
        "gas": "0xdd73",
        "value": "0x0",
        "input": "0xca5eb5e100000000000000000000000047ff5bbab981ff022743aa4281d4d6dd7fb1a4d0",
        "nonce": "0x28",
        "chainId": "0x8f"
      },
      "additionalContracts": [],
      "isFixedGasLimit": false
    },
    {
      "hash": null,
      "transactionType": "CALL",
      "contractName": null,
      "contractAddress": "0x3b4cf37a3335f21c945a40088404c715525fcb29",
      "function": "transferOwnership(address)",
      "arguments": [
        "0x47FF5bBAB981Ff022743AA4281D4d6Dd7Fb1a4D0"
      ],
      "transaction": {
        "from": "0x0990be6db8c785fbbf9ded8baec612a10cae814b",
        "to": "0x3b4cf37a3335f21c945a40088404c715525fcb29",
        "gas": "0xc1df",
        "value": "0x0",
        "input": "0xf2fde38b00000000000000000000000047ff5bbab981ff022743aa4281d4d6dd7fb1a4d0",
        "nonce": "0x29",
        "chainId": "0x8f"
      },
      "additionalContracts": [],
      "isFixedGasLimit": false
    },
    {
      "hash": null,
      "transactionType": "CALL",
      "contractName": null,
      "contractAddress": "0x58e3ee6accd124642ddb5d3f91928816be8d8ed3",
      "function": "setDelegate(address)",
      "arguments": [
        "0x47FF5bBAB981Ff022743AA4281D4d6Dd7Fb1a4D0"
      ],
      "transaction": {
        "from": "0x0990be6db8c785fbbf9ded8baec612a10cae814b",
        "to": "0x58e3ee6accd124642ddb5d3f91928816be8d8ed3",
        "gas": "0xdd35",
        "value": "0x0",
        "input": "0xca5eb5e100000000000000000000000047ff5bbab981ff022743aa4281d4d6dd7fb1a4d0",
        "nonce": "0x2a",
        "chainId": "0x8f"
      },
      "additionalContracts": [],
      "isFixedGasLimit": false
    },
    {
      "hash": null,
      "transactionType": "CALL",
      "contractName": null,
      "contractAddress": "0x58e3ee6accd124642ddb5d3f91928816be8d8ed3",
      "function": "transferOwnership(address)",
      "arguments": [
        "0x47FF5bBAB981Ff022743AA4281D4d6Dd7Fb1a4D0"
      ],
      "transaction": {
        "from": "0x0990be6db8c785fbbf9ded8baec612a10cae814b",
        "to": "0x58e3ee6accd124642ddb5d3f91928816be8d8ed3",
        "gas": "0xcd67",
        "value": "0x0",
        "input": "0xf2fde38b00000000000000000000000047ff5bbab981ff022743aa4281d4d6dd7fb1a4d0",
        "nonce": "0x2b",
        "chainId": "0x8f"
      },
      "additionalContracts": [],
      "isFixedGasLimit": false
    },
    {
      "hash": null,
      "transactionType": "CALL",
      "contractName": null,
      "contractAddress": "0x288f9d76019469bfeb56bb77d86afa2bf563b75b",
      "function": "setDelegate(address)",
      "arguments": [
        "0x47FF5bBAB981Ff022743AA4281D4d6Dd7Fb1a4D0"
      ],
      "transaction": {
        "from": "0x0990be6db8c785fbbf9ded8baec612a10cae814b",
        "to": "0x288f9d76019469bfeb56bb77d86afa2bf563b75b",
        "gas": "0xdd73",
        "value": "0x0",
        "input": "0xca5eb5e100000000000000000000000047ff5bbab981ff022743aa4281d4d6dd7fb1a4d0",
        "nonce": "0x2c",
        "chainId": "0x8f"
      },
      "additionalContracts": [],
      "isFixedGasLimit": false
    },
    {
      "hash": null,
      "transactionType": "CALL",
      "contractName": null,
      "contractAddress": "0x288f9d76019469bfeb56bb77d86afa2bf563b75b",
      "function": "transferOwnership(address)",
      "arguments": [
        "0x47FF5bBAB981Ff022743AA4281D4d6Dd7Fb1a4D0"
      ],
      "transaction": {
        "from": "0x0990be6db8c785fbbf9ded8baec612a10cae814b",
        "to": "0x288f9d76019469bfeb56bb77d86afa2bf563b75b",
        "gas": "0xc1df",
        "value": "0x0",
        "input": "0xf2fde38b00000000000000000000000047ff5bbab981ff022743aa4281d4d6dd7fb1a4d0",
        "nonce": "0x2d",
        "chainId": "0x8f"
      },
      "additionalContracts": [],
      "isFixedGasLimit": false
    },
    {
      "hash": null,
      "transactionType": "CALL",
      "contractName": null,
      "contractAddress": "0xba554f7a47f0792b9fa41a1256d4cf628bb1d028",
      "function": "setDelegate(address)",
      "arguments": [
        "0x47FF5bBAB981Ff022743AA4281D4d6Dd7Fb1a4D0"
      ],
      "transaction": {
        "from": "0x0990be6db8c785fbbf9ded8baec612a10cae814b",
        "to": "0xba554f7a47f0792b9fa41a1256d4cf628bb1d028",
        "gas": "0xdd73",
        "value": "0x0",
        "input": "0xca5eb5e100000000000000000000000047ff5bbab981ff022743aa4281d4d6dd7fb1a4d0",
        "nonce": "0x2e",
        "chainId": "0x8f"
      },
      "additionalContracts": [],
      "isFixedGasLimit": false
    },
    {
      "hash": null,
      "transactionType": "CALL",
      "contractName": null,
      "contractAddress": "0xba554f7a47f0792b9fa41a1256d4cf628bb1d028",
      "function": "transferOwnership(address)",
      "arguments": [
        "0x47FF5bBAB981Ff022743AA4281D4d6Dd7Fb1a4D0"
      ],
      "transaction": {
        "from": "0x0990be6db8c785fbbf9ded8baec612a10cae814b",
        "to": "0xba554f7a47f0792b9fa41a1256d4cf628bb1d028",
        "gas": "0xc1df",
        "value": "0x0",
        "input": "0xf2fde38b00000000000000000000000047ff5bbab981ff022743aa4281d4d6dd7fb1a4d0",
        "nonce": "0x2f",
        "chainId": "0x8f"
      },
      "additionalContracts": [],
      "isFixedGasLimit": false
    },
    {
      "hash": null,
      "transactionType": "CALL",
      "contractName": null,
      "contractAddress": "0xc2871eae630640ce1a16b39a17c498f22d76c21a",
      "function": "transferOwnership(address)",
      "arguments": [
        "0x47FF5bBAB981Ff022743AA4281D4d6Dd7Fb1a4D0"
      ],
      "transaction": {
        "from": "0x0990be6db8c785fbbf9ded8baec612a10cae814b",
        "to": "0xc2871eae630640ce1a16b39a17c498f22d76c21a",
        "gas": "0x9a4d",
        "value": "0x0",
        "input": "0xf2fde38b00000000000000000000000047ff5bbab981ff022743aa4281d4d6dd7fb1a4d0",
        "nonce": "0x30",
        "chainId": "0x8f"
      },
      "additionalContracts": [],
      "isFixedGasLimit": false
    }
  ],
  "receipts": [],
  "libraries": [],
  "pending": [],
  "returns": {},
  "timestamp": 1764871301606,
  "chain": 143,
  "commit": "e74521b"
}