{
  "transactions": [
    {
      "hash": null,
      "transactionType": "CALL",
      "contractName": null,
      "contractAddress": "0x8d8f779e1548b0ef538f5dfe76abfa232d705c8b",
      "function": "send((uint32,bytes32,uint256,uint256,bytes,bytes,bytes),(uint256,uint256),address)",
      "arguments": [
        "(30184, 0x000000000000000000000000b1748c79709f4ba2dd82834b8c82d4a505003f27, 250000000000000000000000, 250000000000000000000000, 0x0003, 0x, 0x)",
        "(19413314298728, 0)",
        "0x0990be6dB8c785FBbF9deD8bAEc612A10CaE814b"
      ],
      "transaction": {
        "from": "0x0990be6db8c785fbbf9ded8baec612a10cae814b",
        "to": "0x8d8f779e1548b0ef538f5dfe76abfa232d705c8b",
        "gas": "0x637ac",
        "value": "0x11a803b3e368",
        "input": "0xc7c7f5b30000000000000000000000000000000000000000000000000000000000000080000000000000000000000000000000000000000000000000000011a803b3e36800000000000000000000000000000000000000000000000000000000000000000000000000000000000000000990be6db8c785fbbf9ded8baec612a10cae814b00000000000000000000000000000000000000000000000000000000000075e8000000000000000000000000b1748c79709f4ba2dd82834b8c82d4a505003f270000000000000000000000000000000000000000000034f086f3b33b684000000000000000000000000000000000000000000000000034f086f3b33b6840000000000000000000000000000000000000000000000000000000000000000000e0000000000000000000000000000000000000000000000000000000000000012000000000000000000000000000000000000000000000000000000000000001400000000000000000000000000000000000000000000000000000000000000002000300000000000000000000000000000000000000000000000000000000000000000000000000000000000000000000000000000000000000000000000000000000000000000000000000000000000000000000000000000000000000000000",
        "nonce": "0xcc",
        "chainId": "0xfc"
      },
      "additionalContracts": [],
      "isFixedGasLimit": false
    }
  ],
  "receipts": [],
  "libraries": [],
  "pending": [],
  "returns": {},
  "timestamp": 1734469155,
  "chain": 252,
  "commit": "b552015"
}