{
  "transactions": [
    {
      "hash": "0xbfe51793cc9b8df015d7853518e9b69ec2cef48c43de3c3ff3ff65c4624e70f6",
      "transactionType": "CALL",
      "contractName": null,
      "contractAddress": "0xa536976c9ca36e74af76037af555eefa632ce469",
      "function": "setPeer(uint32,bytes32)",
      "arguments": [
        "30260",
        "0x0000000000000000000000000000000000000000000000000000000000000000"
      ],
      "transaction": {
        "from": "0x0990be6db8c785fbbf9ded8baec612a10cae814b",
        "to": "0xa536976c9ca36e74af76037af555eefa632ce469",
        "gas": "0x922b",
        "value": "0x0",
        "input": "0x3400288b00000000000000000000000000000000000000000000000000000000000076340000000000000000000000000000000000000000000000000000000000000000",
        "nonce": "0x14",
        "chainId": "0x2105"
      },
      "additionalContracts": [],
      "isFixedGasLimit": false
    },
    {
      "hash": "0x7d0f1712e25e6d5bb05e6c727e5b3a1cfd11dc4f2f551c7b31b666e7f8957147",
      "transactionType": "CALL",
      "contractName": null,
      "contractAddress": "0xa536976c9ca36e74af76037af555eefa632ce469",
      "function": "setPeer(uint32,bytes32)",
      "arguments": [
        "30280",
        "0x0000000000000000000000000000000000000000000000000000000000000000"
      ],
      "transaction": {
        "from": "0x0990be6db8c785fbbf9ded8baec612a10cae814b",
        "to": "0xa536976c9ca36e74af76037af555eefa632ce469",
        "gas": "0x922b",
        "value": "0x0",
        "input": "0x3400288b00000000000000000000000000000000000000000000000000000000000076480000000000000000000000000000000000000000000000000000000000000000",
        "nonce": "0x15",
        "chainId": "0x2105"
      },
      "additionalContracts": [],
      "isFixedGasLimit": false
    },
    {
      "hash": "0x02a27c9d9c902461d4ce2af4d6410a555c784245fb1aecc4a39b8c0f7376558f",
      "transactionType": "CALL",
      "contractName": null,
      "contractAddress": "0xa536976c9ca36e74af76037af555eefa632ce469",
      "function": "setPeer(uint32,bytes32)",
      "arguments": [
        "30255",
        "0x0000000000000000000000000000000000000000000000000000000000000000"
      ],
      "transaction": {
        "from": "0x0990be6db8c785fbbf9ded8baec612a10cae814b",
        "to": "0xa536976c9ca36e74af76037af555eefa632ce469",
        "gas": "0x922b",
        "value": "0x0",
        "input": "0x3400288b000000000000000000000000000000000000000000000000000000000000762f0000000000000000000000000000000000000000000000000000000000000000",
        "nonce": "0x16",
        "chainId": "0x2105"
      },
      "additionalContracts": [],
      "isFixedGasLimit": false
    },
    {
      "hash": "0x2b226f31d64384cb11539ab064f6005b6302f690c018c8408691cd0605def60f",
      "transactionType": "CALL",
      "contractName": null,
      "contractAddress": "0xa536976c9ca36e74af76037af555eefa632ce469",
      "function": "setPeer(uint32,bytes32)",
      "arguments": [
        "30274",
        "0x0000000000000000000000000000000000000000000000000000000000000000"
      ],
      "transaction": {
        "from": "0x0990be6db8c785fbbf9ded8baec612a10cae814b",
        "to": "0xa536976c9ca36e74af76037af555eefa632ce469",
        "gas": "0x922b",
        "value": "0x0",
        "input": "0x3400288b00000000000000000000000000000000000000000000000000000000000076420000000000000000000000000000000000000000000000000000000000000000",
        "nonce": "0x17",
        "chainId": "0x2105"
      },
      "additionalContracts": [],
      "isFixedGasLimit": false
    },
    {
      "hash": "0x04aaab494ee0b236438b9f57e54ff03f4231f9002ead82e8d149eb9f1810a5b7",
      "transactionType": "CALL",
      "contractName": null,
      "contractAddress": "0xa536976c9ca36e74af76037af555eefa632ce469",
      "function": "setPeer(uint32,bytes32)",
      "arguments": [
        "30260",
        "0x0000000000000000000000000000000000000000000000000000000000000000"
      ],
      "transaction": {
        "from": "0x0990be6db8c785fbbf9ded8baec612a10cae814b",
        "to": "0xa536976c9ca36e74af76037af555eefa632ce469",
        "gas": "0x9d98",
        "value": "0x0",
        "input": "0x3400288b00000000000000000000000000000000000000000000000000000000000076340000000000000000000000000000000000000000000000000000000000000000",
        "nonce": "0x18",
        "chainId": "0x2105"
      },
      "additionalContracts": [],
      "isFixedGasLimit": false
    },
    {
      "hash": "0x71e1fc70aba8e57850a52f488d4fec1fb0554bac14fab9888d284b9077c61477",
      "transactionType": "CALL",
      "contractName": null,
      "contractAddress": "0xa536976c9ca36e74af76037af555eefa632ce469",
      "function": "setPeer(uint32,bytes32)",
      "arguments": [
        "30280",
        "0x0000000000000000000000000000000000000000000000000000000000000000"
      ],
      "transaction": {
        "from": "0x0990be6db8c785fbbf9ded8baec612a10cae814b",
        "to": "0xa536976c9ca36e74af76037af555eefa632ce469",
        "gas": "0x9d98",
        "value": "0x0",
        "input": "0x3400288b00000000000000000000000000000000000000000000000000000000000076480000000000000000000000000000000000000000000000000000000000000000",
        "nonce": "0x19",
        "chainId": "0x2105"
      },
      "additionalContracts": [],
      "isFixedGasLimit": false
    },
    {
      "hash": "0x2a32173459b38111fad81222f06995992d02f429998549f9c796941962c51b05",
      "transactionType": "CALL",
      "contractName": null,
      "contractAddress": "0xa536976c9ca36e74af76037af555eefa632ce469",
      "function": "setPeer(uint32,bytes32)",
      "arguments": [
        "30255",
        "0x0000000000000000000000000000000000000000000000000000000000000000"
      ],
      "transaction": {
        "from": "0x0990be6db8c785fbbf9ded8baec612a10cae814b",
        "to": "0xa536976c9ca36e74af76037af555eefa632ce469",
        "gas": "0x9d98",
        "value": "0x0",
        "input": "0x3400288b000000000000000000000000000000000000000000000000000000000000762f0000000000000000000000000000000000000000000000000000000000000000",
        "nonce": "0x1a",
        "chainId": "0x2105"
      },
      "additionalContracts": [],
      "isFixedGasLimit": false
    },
    {
      "hash": "0x77cc4f593fd4e0509f90f40aa25161b8fff1560ba9777f92ae4626add926666d",
      "transactionType": "CALL",
      "contractName": null,
      "contractAddress": "0xa536976c9ca36e74af76037af555eefa632ce469",
      "function": "setPeer(uint32,bytes32)",
      "arguments": [
        "30274",
        "0x0000000000000000000000000000000000000000000000000000000000000000"
      ],
      "transaction": {
        "from": "0x0990be6db8c785fbbf9ded8baec612a10cae814b",
        "to": "0xa536976c9ca36e74af76037af555eefa632ce469",
        "gas": "0x9d98",
        "value": "0x0",
        "input": "0x3400288b00000000000000000000000000000000000000000000000000000000000076420000000000000000000000000000000000000000000000000000000000000000",
        "nonce": "0x1b",
        "chainId": "0x2105"
      },
      "additionalContracts": [],
      "isFixedGasLimit": false
    },
    {
      "hash": "0x70b3e9cf39f9b36b889ca0156b97bfb292b18e74e7a4a013c28a87200d7ce6ce",
      "transactionType": "CALL",
      "contractName": null,
      "contractAddress": "0xa536976c9ca36e74af76037af555eefa632ce469",
      "function": "setPeer(uint32,bytes32)",
      "arguments": [
        "30260",
        "0x0000000000000000000000000000000000000000000000000000000000000000"
      ],
      "transaction": {
        "from": "0x0990be6db8c785fbbf9ded8baec612a10cae814b",
        "to": "0xa536976c9ca36e74af76037af555eefa632ce469",
        "gas": "0x9d98",
        "value": "0x0",
        "input": "0x3400288b00000000000000000000000000000000000000000000000000000000000076340000000000000000000000000000000000000000000000000000000000000000",
        "nonce": "0x1c",
        "chainId": "0x2105"
      },
      "additionalContracts": [],
      "isFixedGasLimit": false
    },
    {
      "hash": "0xbf4627aee7882e2c09652ee7f6c1f921224c8b9689501a7c6cccbf7df7aef19f",
      "transactionType": "CALL",
      "contractName": null,
      "contractAddress": "0xa536976c9ca36e74af76037af555eefa632ce469",
      "function": "setPeer(uint32,bytes32)",
      "arguments": [
        "30280",
        "0x0000000000000000000000000000000000000000000000000000000000000000"
      ],
      "transaction": {
        "from": "0x0990be6db8c785fbbf9ded8baec612a10cae814b",
        "to": "0xa536976c9ca36e74af76037af555eefa632ce469",
        "gas": "0x9d98",
        "value": "0x0",
        "input": "0x3400288b00000000000000000000000000000000000000000000000000000000000076480000000000000000000000000000000000000000000000000000000000000000",
        "nonce": "0x1d",
        "chainId": "0x2105"
      },
      "additionalContracts": [],
      "isFixedGasLimit": false
    },
    {
      "hash": "0x17d53ba73442a57a60ec63fbea26ccfc3b636265998b1cd92a91653c4db18cf7",
      "transactionType": "CALL",
      "contractName": null,
      "contractAddress": "0xa536976c9ca36e74af76037af555eefa632ce469",
      "function": "setPeer(uint32,bytes32)",
      "arguments": [
        "30255",
        "0x0000000000000000000000000000000000000000000000000000000000000000"
      ],
      "transaction": {
        "from": "0x0990be6db8c785fbbf9ded8baec612a10cae814b",
        "to": "0xa536976c9ca36e74af76037af555eefa632ce469",
        "gas": "0x9d98",
        "value": "0x0",
        "input": "0x3400288b000000000000000000000000000000000000000000000000000000000000762f0000000000000000000000000000000000000000000000000000000000000000",
        "nonce": "0x1e",
        "chainId": "0x2105"
      },
      "additionalContracts": [],
      "isFixedGasLimit": false
    },
    {
      "hash": "0x135d9a583dd6d8f1e12bc261073403b77a496469cb0ea72f3a0bf2164576c027",
      "transactionType": "CALL",
      "contractName": null,
      "contractAddress": "0xa536976c9ca36e74af76037af555eefa632ce469",
      "function": "setPeer(uint32,bytes32)",
      "arguments": [
        "30274",
        "0x0000000000000000000000000000000000000000000000000000000000000000"
      ],
      "transaction": {
        "from": "0x0990be6db8c785fbbf9ded8baec612a10cae814b",
        "to": "0xa536976c9ca36e74af76037af555eefa632ce469",
        "gas": "0x9d98",
        "value": "0x0",
        "input": "0x3400288b00000000000000000000000000000000000000000000000000000000000076420000000000000000000000000000000000000000000000000000000000000000",
        "nonce": "0x1f",
        "chainId": "0x2105"
      },
      "additionalContracts": [],
      "isFixedGasLimit": false
    },
    {
      "hash": "0x962f098eeca266eef71ab7487ecf8ddfd3628b3ab95e9b3f213a008c29c49e3e",
      "transactionType": "CALL",
      "contractName": null,
      "contractAddress": "0xa536976c9ca36e74af76037af555eefa632ce469",
      "function": "setPeer(uint32,bytes32)",
      "arguments": [
        "30260",
        "0x0000000000000000000000000000000000000000000000000000000000000000"
      ],
      "transaction": {
        "from": "0x0990be6db8c785fbbf9ded8baec612a10cae814b",
        "to": "0xa536976c9ca36e74af76037af555eefa632ce469",
        "gas": "0x9d98",
        "value": "0x0",
        "input": "0x3400288b00000000000000000000000000000000000000000000000000000000000076340000000000000000000000000000000000000000000000000000000000000000",
        "nonce": "0x20",
        "chainId": "0x2105"
      },
      "additionalContracts": [],
      "isFixedGasLimit": false
    },
    {
      "hash": "0x42801c9a496b13715f0223512bb7ea16ea982d1ae0152c05407d3d96c707c87e",
      "transactionType": "CALL",
      "contractName": null,
      "contractAddress": "0xa536976c9ca36e74af76037af555eefa632ce469",
      "function": "setPeer(uint32,bytes32)",
      "arguments": [
        "30280",
        "0x0000000000000000000000000000000000000000000000000000000000000000"
      ],
      "transaction": {
        "from": "0x0990be6db8c785fbbf9ded8baec612a10cae814b",
        "to": "0xa536976c9ca36e74af76037af555eefa632ce469",
        "gas": "0x9d98",
        "value": "0x0",
        "input": "0x3400288b00000000000000000000000000000000000000000000000000000000000076480000000000000000000000000000000000000000000000000000000000000000",
        "nonce": "0x21",
        "chainId": "0x2105"
      },
      "additionalContracts": [],
      "isFixedGasLimit": false
    },
    {
      "hash": "0xa83e8220d5e23ce25c6e51bf20dab61c9954223208946b39695e7af8e43055b8",
      "transactionType": "CALL",
      "contractName": null,
      "contractAddress": "0xa536976c9ca36e74af76037af555eefa632ce469",
      "function": "setPeer(uint32,bytes32)",
      "arguments": [
        "30255",
        "0x0000000000000000000000000000000000000000000000000000000000000000"
      ],
      "transaction": {
        "from": "0x0990be6db8c785fbbf9ded8baec612a10cae814b",
        "to": "0xa536976c9ca36e74af76037af555eefa632ce469",
        "gas": "0x9d98",
        "value": "0x0",
        "input": "0x3400288b000000000000000000000000000000000000000000000000000000000000762f0000000000000000000000000000000000000000000000000000000000000000",
        "nonce": "0x22",
        "chainId": "0x2105"
      },
      "additionalContracts": [],
      "isFixedGasLimit": false
    },
    {
      "hash": "0x78a901df2cb3dfe5b6afac30ac7636c895e91e708b1cdd2aa3c9d845176f5e63",
      "transactionType": "CALL",
      "contractName": null,
      "contractAddress": "0xa536976c9ca36e74af76037af555eefa632ce469",
      "function": "setPeer(uint32,bytes32)",
      "arguments": [
        "30274",
        "0x0000000000000000000000000000000000000000000000000000000000000000"
      ],
      "transaction": {
        "from": "0x0990be6db8c785fbbf9ded8baec612a10cae814b",
        "to": "0xa536976c9ca36e74af76037af555eefa632ce469",
        "gas": "0x9d98",
        "value": "0x0",
        "input": "0x3400288b00000000000000000000000000000000000000000000000000000000000076420000000000000000000000000000000000000000000000000000000000000000",
        "nonce": "0x23",
        "chainId": "0x2105"
      },
      "additionalContracts": [],
      "isFixedGasLimit": false
    }
  ],
  "receipts": [
    {
      "status": "0x1",
      "cumulativeGasUsed": "0x16f842c",
      "logs": [
        {
          "address": "0xa536976c9ca36e74af76037af555eefa632ce469",
          "topics": [
            "0x238399d427b947898edb290f5ff0f9109849b1c3ba196a42e35f00c50a54b98b"
          ],
          "data": "0x00000000000000000000000000000000000000000000000000000000000076340000000000000000000000000000000000000000000000000000000000000000",
          "blockHash": "0xb24b87061307e88891ec2a9a62e770121de591ba64bcd3b1a742a6c66c82a1aa",
          "blockNumber": "0x16c6624",
          "transactionHash": "0xbfe51793cc9b8df015d7853518e9b69ec2cef48c43de3c3ff3ff65c4624e70f6",
          "transactionIndex": "0x76",
          "logIndex": "0x14b",
          "removed": false
        }
      ],
      "logsBloom": "0x00000000000000000000000000000000000000000000000000000000000000000000000000000000000000000000000004000000000000000800000000000000000000000000000000000000000000000000000000000000000000000000000000000000000000000000000000000000000000000000000000800000000000000000000000000000000000000000000000000000000000000000000000000000000000000000000000000000000000000000000000000000000002000000000000000000000000000000000000000000000000000004000000040000000000000000000000000000000000000000000000000000000000000000000000000000",
      "type": "0x2",
      "transactionHash": "0xbfe51793cc9b8df015d7853518e9b69ec2cef48c43de3c3ff3ff65c4624e70f6",
      "transactionIndex": "0x76",
      "blockHash": "0xb24b87061307e88891ec2a9a62e770121de591ba64bcd3b1a742a6c66c82a1aa",
      "blockNumber": "0x16c6624",
      "gasUsed": "0x63f2",
      "effectiveGasPrice": "0x1ff0c69",
      "from": "0x0990be6db8c785fbbf9ded8baec612a10cae814b",
      "to": "0xa536976c9ca36e74af76037af555eefa632ce469",
      "contractAddress": null,
      "l1BaseFeeScalar": "0x8dd",
      "l1BlobBaseFee": "0x67602",
      "l1BlobBaseFeeScalar": "0x101c12",
      "l1Fee": "0x1053163789",
      "l1GasPrice": "0x47e671c4c",
      "l1GasUsed": "0x640"
    },
    {
      "status": "0x1",
      "cumulativeGasUsed": "0x16fe81e",
      "logs": [
        {
          "address": "0xa536976c9ca36e74af76037af555eefa632ce469",
          "topics": [
            "0x238399d427b947898edb290f5ff0f9109849b1c3ba196a42e35f00c50a54b98b"
          ],
          "data": "0x00000000000000000000000000000000000000000000000000000000000076480000000000000000000000000000000000000000000000000000000000000000",
          "blockHash": "0xb24b87061307e88891ec2a9a62e770121de591ba64bcd3b1a742a6c66c82a1aa",
          "blockNumber": "0x16c6624",
          "transactionHash": "0x7d0f1712e25e6d5bb05e6c727e5b3a1cfd11dc4f2f551c7b31b666e7f8957147",
          "transactionIndex": "0x77",
          "logIndex": "0x14c",
          "removed": false
        }
      ],
      "logsBloom": "0x00000000000000000000000000000000000000000000000000000000000000000000000000000000000000000000000004000000000000000800000000000000000000000000000000000000000000000000000000000000000000000000000000000000000000000000000000000000000000000000000000800000000000000000000000000000000000000000000000000000000000000000000000000000000000000000000000000000000000000000000000000000000002000000000000000000000000000000000000000000000000000004000000040000000000000000000000000000000000000000000000000000000000000000000000000000",
      "type": "0x2",
      "transactionHash": "0x7d0f1712e25e6d5bb05e6c727e5b3a1cfd11dc4f2f551c7b31b666e7f8957147",
      "transactionIndex": "0x77",
      "blockHash": "0xb24b87061307e88891ec2a9a62e770121de591ba64bcd3b1a742a6c66c82a1aa",
      "blockNumber": "0x16c6624",
      "gasUsed": "0x63f2",
      "effectiveGasPrice": "0x1ff0c69",
      "from": "0x0990be6db8c785fbbf9ded8baec612a10cae814b",
      "to": "0xa536976c9ca36e74af76037af555eefa632ce469",
      "contractAddress": null,
      "l1BaseFeeScalar": "0x8dd",
      "l1BlobBaseFee": "0x67602",
      "l1BlobBaseFeeScalar": "0x101c12",
      "l1Fee": "0x1053163789",
      "l1GasPrice": "0x47e671c4c",
      "l1GasUsed": "0x640"
    },
    {
      "status": "0x1",
      "cumulativeGasUsed": "0x18884db",
      "logs": [
        {
          "address": "0xa536976c9ca36e74af76037af555eefa632ce469",
          "topics": [
            "0x238399d427b947898edb290f5ff0f9109849b1c3ba196a42e35f00c50a54b98b"
          ],
          "data": "0x000000000000000000000000000000000000000000000000000000000000762f0000000000000000000000000000000000000000000000000000000000000000",
          "blockHash": "0xb24b87061307e88891ec2a9a62e770121de591ba64bcd3b1a742a6c66c82a1aa",
          "blockNumber": "0x16c6624",
          "transactionHash": "0x02a27c9d9c902461d4ce2af4d6410a555c784245fb1aecc4a39b8c0f7376558f",
          "transactionIndex": "0x82",
          "logIndex": "0x16a",
          "removed": false
        }
      ],
      "logsBloom": "0x00000000000000000000000000000000000000000000000000000000000000000000000000000000000000000000000004000000000000000800000000000000000000000000000000000000000000000000000000000000000000000000000000000000000000000000000000000000000000000000000000800000000000000000000000000000000000000000000000000000000000000000000000000000000000000000000000000000000000000000000000000000000002000000000000000000000000000000000000000000000000000004000000040000000000000000000000000000000000000000000000000000000000000000000000000000",
      "type": "0x2",
      "transactionHash": "0x02a27c9d9c902461d4ce2af4d6410a555c784245fb1aecc4a39b8c0f7376558f",
      "transactionIndex": "0x82",
      "blockHash": "0xb24b87061307e88891ec2a9a62e770121de591ba64bcd3b1a742a6c66c82a1aa",
      "blockNumber": "0x16c6624",
      "gasUsed": "0x63f2",
      "effectiveGasPrice": "0x1ff0c69",
      "from": "0x0990be6db8c785fbbf9ded8baec612a10cae814b",
      "to": "0xa536976c9ca36e74af76037af555eefa632ce469",
      "contractAddress": null,
      "l1BaseFeeScalar": "0x8dd",
      "l1BlobBaseFee": "0x67602",
      "l1BlobBaseFeeScalar": "0x101c12",
      "l1Fee": "0x1053163789",
      "l1GasPrice": "0x47e671c4c",
      "l1GasUsed": "0x640"
    },
    {
      "status": "0x1",
      "cumulativeGasUsed": "0x188e8cd",
      "logs": [
        {
          "address": "0xa536976c9ca36e74af76037af555eefa632ce469",
          "topics": [
            "0x238399d427b947898edb290f5ff0f9109849b1c3ba196a42e35f00c50a54b98b"
          ],
          "data": "0x00000000000000000000000000000000000000000000000000000000000076420000000000000000000000000000000000000000000000000000000000000000",
          "blockHash": "0xb24b87061307e88891ec2a9a62e770121de591ba64bcd3b1a742a6c66c82a1aa",
          "blockNumber": "0x16c6624",
          "transactionHash": "0x2b226f31d64384cb11539ab064f6005b6302f690c018c8408691cd0605def60f",
          "transactionIndex": "0x83",
          "logIndex": "0x16b",
          "removed": false
        }
      ],
      "logsBloom": "0x00000000000000000000000000000000000000000000000000000000000000000000000000000000000000000000000004000000000000000800000000000000000000000000000000000000000000000000000000000000000000000000000000000000000000000000000000000000000000000000000000800000000000000000000000000000000000000000000000000000000000000000000000000000000000000000000000000000000000000000000000000000000002000000000000000000000000000000000000000000000000000004000000040000000000000000000000000000000000000000000000000000000000000000000000000000",
      "type": "0x2",
      "transactionHash": "0x2b226f31d64384cb11539ab064f6005b6302f690c018c8408691cd0605def60f",
      "transactionIndex": "0x83",
      "blockHash": "0xb24b87061307e88891ec2a9a62e770121de591ba64bcd3b1a742a6c66c82a1aa",
      "blockNumber": "0x16c6624",
      "gasUsed": "0x63f2",
      "effectiveGasPrice": "0x1ff0c69",
      "from": "0x0990be6db8c785fbbf9ded8baec612a10cae814b",
      "to": "0xa536976c9ca36e74af76037af555eefa632ce469",
      "contractAddress": null,
      "l1BaseFeeScalar": "0x8dd",
      "l1BlobBaseFee": "0x67602",
      "l1BlobBaseFeeScalar": "0x101c12",
      "l1Fee": "0x1053163789",
      "l1GasPrice": "0x47e671c4c",
      "l1GasUsed": "0x640"
    },
    {
      "status": "0x1",
      "cumulativeGasUsed": "0x189548f",
      "logs": [
        {
          "address": "0xa536976c9ca36e74af76037af555eefa632ce469",
          "topics": [
            "0x238399d427b947898edb290f5ff0f9109849b1c3ba196a42e35f00c50a54b98b"
          ],
          "data": "0x00000000000000000000000000000000000000000000000000000000000076340000000000000000000000000000000000000000000000000000000000000000",
          "blockHash": "0xb24b87061307e88891ec2a9a62e770121de591ba64bcd3b1a742a6c66c82a1aa",
          "blockNumber": "0x16c6624",
          "transactionHash": "0x04aaab494ee0b236438b9f57e54ff03f4231f9002ead82e8d149eb9f1810a5b7",
          "transactionIndex": "0x84",
          "logIndex": "0x16c",
          "removed": false
        }
      ],
      "logsBloom": "0x00000000000000000000000000000000000000000000000000000000000000000000000000000000000000000000000004000000000000000800000000000000000000000000000000000000000000000000000000000000000000000000000000000000000000000000000000000000000000000000000000800000000000000000000000000000000000000000000000000000000000000000000000000000000000000000000000000000000000000000000000000000000002000000000000000000000000000000000000000000000000000004000000040000000000000000000000000000000000000000000000000000000000000000000000000000",
      "type": "0x2",
      "transactionHash": "0x04aaab494ee0b236438b9f57e54ff03f4231f9002ead82e8d149eb9f1810a5b7",
      "transactionIndex": "0x84",
      "blockHash": "0xb24b87061307e88891ec2a9a62e770121de591ba64bcd3b1a742a6c66c82a1aa",
      "blockNumber": "0x16c6624",
      "gasUsed": "0x6bc2",
      "effectiveGasPrice": "0x1ff0c69",
      "from": "0x0990be6db8c785fbbf9ded8baec612a10cae814b",
      "to": "0xa536976c9ca36e74af76037af555eefa632ce469",
      "contractAddress": null,
      "l1BaseFeeScalar": "0x8dd",
      "l1BlobBaseFee": "0x67602",
      "l1BlobBaseFeeScalar": "0x101c12",
      "l1Fee": "0x1053163789",
      "l1GasPrice": "0x47e671c4c",
      "l1GasUsed": "0x640"
    },
    {
      "status": "0x1",
      "cumulativeGasUsed": "0x189c051",
      "logs": [
        {
          "address": "0xa536976c9ca36e74af76037af555eefa632ce469",
          "topics": [
            "0x238399d427b947898edb290f5ff0f9109849b1c3ba196a42e35f00c50a54b98b"
          ],
          "data": "0x00000000000000000000000000000000000000000000000000000000000076480000000000000000000000000000000000000000000000000000000000000000",
          "blockHash": "0xb24b87061307e88891ec2a9a62e770121de591ba64bcd3b1a742a6c66c82a1aa",
          "blockNumber": "0x16c6624",
          "transactionHash": "0x71e1fc70aba8e57850a52f488d4fec1fb0554bac14fab9888d284b9077c61477",
          "transactionIndex": "0x85",
          "logIndex": "0x16d",
          "removed": false
        }
      ],
      "logsBloom": "0x00000000000000000000000000000000000000000000000000000000000000000000000000000000000000000000000004000000000000000800000000000000000000000000000000000000000000000000000000000000000000000000000000000000000000000000000000000000000000000000000000800000000000000000000000000000000000000000000000000000000000000000000000000000000000000000000000000000000000000000000000000000000002000000000000000000000000000000000000000000000000000004000000040000000000000000000000000000000000000000000000000000000000000000000000000000",
      "type": "0x2",
      "transactionHash": "0x71e1fc70aba8e57850a52f488d4fec1fb0554bac14fab9888d284b9077c61477",
      "transactionIndex": "0x85",
      "blockHash": "0xb24b87061307e88891ec2a9a62e770121de591ba64bcd3b1a742a6c66c82a1aa",
      "blockNumber": "0x16c6624",
      "gasUsed": "0x6bc2",
      "effectiveGasPrice": "0x1ff0c69",
      "from": "0x0990be6db8c785fbbf9ded8baec612a10cae814b",
      "to": "0xa536976c9ca36e74af76037af555eefa632ce469",
      "contractAddress": null,
      "l1BaseFeeScalar": "0x8dd",
      "l1BlobBaseFee": "0x67602",
      "l1BlobBaseFeeScalar": "0x101c12",
      "l1Fee": "0x1053163789",
      "l1GasPrice": "0x47e671c4c",
      "l1GasUsed": "0x640"
    },
    {
      "status": "0x1",
      "cumulativeGasUsed": "0x18ccaa2",
      "logs": [
        {
          "address": "0xa536976c9ca36e74af76037af555eefa632ce469",
          "topics": [
            "0x238399d427b947898edb290f5ff0f9109849b1c3ba196a42e35f00c50a54b98b"
          ],
          "data": "0x000000000000000000000000000000000000000000000000000000000000762f0000000000000000000000000000000000000000000000000000000000000000",
          "blockHash": "0xb24b87061307e88891ec2a9a62e770121de591ba64bcd3b1a742a6c66c82a1aa",
          "blockNumber": "0x16c6624",
          "transactionHash": "0x2a32173459b38111fad81222f06995992d02f429998549f9c796941962c51b05",
          "transactionIndex": "0x87",
          "logIndex": "0x172",
          "removed": false
        }
      ],
      "logsBloom": "0x00000000000000000000000000000000000000000000000000000000000000000000000000000000000000000000000004000000000000000800000000000000000000000000000000000000000000000000000000000000000000000000000000000000000000000000000000000000000000000000000000800000000000000000000000000000000000000000000000000000000000000000000000000000000000000000000000000000000000000000000000000000000002000000000000000000000000000000000000000000000000000004000000040000000000000000000000000000000000000000000000000000000000000000000000000000",
      "type": "0x2",
      "transactionHash": "0x2a32173459b38111fad81222f06995992d02f429998549f9c796941962c51b05",
      "transactionIndex": "0x87",
      "blockHash": "0xb24b87061307e88891ec2a9a62e770121de591ba64bcd3b1a742a6c66c82a1aa",
      "blockNumber": "0x16c6624",
      "gasUsed": "0x6bc2",
      "effectiveGasPrice": "0x1ff0c69",
      "from": "0x0990be6db8c785fbbf9ded8baec612a10cae814b",
      "to": "0xa536976c9ca36e74af76037af555eefa632ce469",
      "contractAddress": null,
      "l1BaseFeeScalar": "0x8dd",
      "l1BlobBaseFee": "0x67602",
      "l1BlobBaseFeeScalar": "0x101c12",
      "l1Fee": "0x1053163789",
      "l1GasPrice": "0x47e671c4c",
      "l1GasUsed": "0x640"
    },
    {
      "status": "0x1",
      "cumulativeGasUsed": "0x18d3664",
      "logs": [
        {
          "address": "0xa536976c9ca36e74af76037af555eefa632ce469",
          "topics": [
            "0x238399d427b947898edb290f5ff0f9109849b1c3ba196a42e35f00c50a54b98b"
          ],
          "data": "0x00000000000000000000000000000000000000000000000000000000000076420000000000000000000000000000000000000000000000000000000000000000",
          "blockHash": "0xb24b87061307e88891ec2a9a62e770121de591ba64bcd3b1a742a6c66c82a1aa",
          "blockNumber": "0x16c6624",
          "transactionHash": "0x77cc4f593fd4e0509f90f40aa25161b8fff1560ba9777f92ae4626add926666d",
          "transactionIndex": "0x88",
          "logIndex": "0x173",
          "removed": false
        }
      ],
      "logsBloom": "0x00000000000000000000000000000000000000000000000000000000000000000000000000000000000000000000000004000000000000000800000000000000000000000000000000000000000000000000000000000000000000000000000000000000000000000000000000000000000000000000000000800000000000000000000000000000000000000000000000000000000000000000000000000000000000000000000000000000000000000000000000000000000002000000000000000000000000000000000000000000000000000004000000040000000000000000000000000000000000000000000000000000000000000000000000000000",
      "type": "0x2",
      "transactionHash": "0x77cc4f593fd4e0509f90f40aa25161b8fff1560ba9777f92ae4626add926666d",
      "transactionIndex": "0x88",
      "blockHash": "0xb24b87061307e88891ec2a9a62e770121de591ba64bcd3b1a742a6c66c82a1aa",
      "blockNumber": "0x16c6624",
      "gasUsed": "0x6bc2",
      "effectiveGasPrice": "0x1ff0c69",
      "from": "0x0990be6db8c785fbbf9ded8baec612a10cae814b",
      "to": "0xa536976c9ca36e74af76037af555eefa632ce469",
      "contractAddress": null,
      "l1BaseFeeScalar": "0x8dd",
      "l1BlobBaseFee": "0x67602",
      "l1BlobBaseFeeScalar": "0x101c12",
      "l1Fee": "0x1053163789",
      "l1GasPrice": "0x47e671c4c",
      "l1GasUsed": "0x640"
    },
    {
      "status": "0x1",
      "cumulativeGasUsed": "0x18da226",
      "logs": [
        {
          "address": "0xa536976c9ca36e74af76037af555eefa632ce469",
          "topics": [
            "0x238399d427b947898edb290f5ff0f9109849b1c3ba196a42e35f00c50a54b98b"
          ],
          "data": "0x00000000000000000000000000000000000000000000000000000000000076340000000000000000000000000000000000000000000000000000000000000000",
          "blockHash": "0xb24b87061307e88891ec2a9a62e770121de591ba64bcd3b1a742a6c66c82a1aa",
          "blockNumber": "0x16c6624",
          "transactionHash": "0x70b3e9cf39f9b36b889ca0156b97bfb292b18e74e7a4a013c28a87200d7ce6ce",
          "transactionIndex": "0x89",
          "logIndex": "0x174",
          "removed": false
        }
      ],
      "logsBloom": "0x00000000000000000000000000000000000000000000000000000000000000000000000000000000000000000000000004000000000000000800000000000000000000000000000000000000000000000000000000000000000000000000000000000000000000000000000000000000000000000000000000800000000000000000000000000000000000000000000000000000000000000000000000000000000000000000000000000000000000000000000000000000000002000000000000000000000000000000000000000000000000000004000000040000000000000000000000000000000000000000000000000000000000000000000000000000",
      "type": "0x2",
      "transactionHash": "0x70b3e9cf39f9b36b889ca0156b97bfb292b18e74e7a4a013c28a87200d7ce6ce",
      "transactionIndex": "0x89",
      "blockHash": "0xb24b87061307e88891ec2a9a62e770121de591ba64bcd3b1a742a6c66c82a1aa",
      "blockNumber": "0x16c6624",
      "gasUsed": "0x6bc2",
      "effectiveGasPrice": "0x1ff0c69",
      "from": "0x0990be6db8c785fbbf9ded8baec612a10cae814b",
      "to": "0xa536976c9ca36e74af76037af555eefa632ce469",
      "contractAddress": null,
      "l1BaseFeeScalar": "0x8dd",
      "l1BlobBaseFee": "0x67602",
      "l1BlobBaseFeeScalar": "0x101c12",
      "l1Fee": "0x1053163789",
      "l1GasPrice": "0x47e671c4c",
      "l1GasUsed": "0x640"
    },
    {
      "status": "0x1",
      "cumulativeGasUsed": "0x18f8bd2",
      "logs": [
        {
          "address": "0xa536976c9ca36e74af76037af555eefa632ce469",
          "topics": [
            "0x238399d427b947898edb290f5ff0f9109849b1c3ba196a42e35f00c50a54b98b"
          ],
          "data": "0x00000000000000000000000000000000000000000000000000000000000076480000000000000000000000000000000000000000000000000000000000000000",
          "blockHash": "0xb24b87061307e88891ec2a9a62e770121de591ba64bcd3b1a742a6c66c82a1aa",
          "blockNumber": "0x16c6624",
          "transactionHash": "0xbf4627aee7882e2c09652ee7f6c1f921224c8b9689501a7c6cccbf7df7aef19f",
          "transactionIndex": "0x8c",
          "logIndex": "0x177",
          "removed": false
        }
      ],
      "logsBloom": "0x00000000000000000000000000000000000000000000000000000000000000000000000000000000000000000000000004000000000000000800000000000000000000000000000000000000000000000000000000000000000000000000000000000000000000000000000000000000000000000000000000800000000000000000000000000000000000000000000000000000000000000000000000000000000000000000000000000000000000000000000000000000000002000000000000000000000000000000000000000000000000000004000000040000000000000000000000000000000000000000000000000000000000000000000000000000",
      "type": "0x2",
      "transactionHash": "0xbf4627aee7882e2c09652ee7f6c1f921224c8b9689501a7c6cccbf7df7aef19f",
      "transactionIndex": "0x8c",
      "blockHash": "0xb24b87061307e88891ec2a9a62e770121de591ba64bcd3b1a742a6c66c82a1aa",
      "blockNumber": "0x16c6624",
      "gasUsed": "0x6bc2",
      "effectiveGasPrice": "0x1ff0c69",
      "from": "0x0990be6db8c785fbbf9ded8baec612a10cae814b",
      "to": "0xa536976c9ca36e74af76037af555eefa632ce469",
      "contractAddress": null,
      "l1BaseFeeScalar": "0x8dd",
      "l1BlobBaseFee": "0x67602",
      "l1BlobBaseFeeScalar": "0x101c12",
      "l1Fee": "0x1053163789",
      "l1GasPrice": "0x47e671c4c",
      "l1GasUsed": "0x640"
    },
    {
      "status": "0x1",
      "cumulativeGasUsed": "0x18ff794",
      "logs": [
        {
          "address": "0xa536976c9ca36e74af76037af555eefa632ce469",
          "topics": [
            "0x238399d427b947898edb290f5ff0f9109849b1c3ba196a42e35f00c50a54b98b"
          ],
          "data": "0x000000000000000000000000000000000000000000000000000000000000762f0000000000000000000000000000000000000000000000000000000000000000",
          "blockHash": "0xb24b87061307e88891ec2a9a62e770121de591ba64bcd3b1a742a6c66c82a1aa",
          "blockNumber": "0x16c6624",
          "transactionHash": "0x17d53ba73442a57a60ec63fbea26ccfc3b636265998b1cd92a91653c4db18cf7",
          "transactionIndex": "0x8d",
          "logIndex": "0x178",
          "removed": false
        }
      ],
      "logsBloom": "0x00000000000000000000000000000000000000000000000000000000000000000000000000000000000000000000000004000000000000000800000000000000000000000000000000000000000000000000000000000000000000000000000000000000000000000000000000000000000000000000000000800000000000000000000000000000000000000000000000000000000000000000000000000000000000000000000000000000000000000000000000000000000002000000000000000000000000000000000000000000000000000004000000040000000000000000000000000000000000000000000000000000000000000000000000000000",
      "type": "0x2",
      "transactionHash": "0x17d53ba73442a57a60ec63fbea26ccfc3b636265998b1cd92a91653c4db18cf7",
      "transactionIndex": "0x8d",
      "blockHash": "0xb24b87061307e88891ec2a9a62e770121de591ba64bcd3b1a742a6c66c82a1aa",
      "blockNumber": "0x16c6624",
      "gasUsed": "0x6bc2",
      "effectiveGasPrice": "0x1ff0c69",
      "from": "0x0990be6db8c785fbbf9ded8baec612a10cae814b",
      "to": "0xa536976c9ca36e74af76037af555eefa632ce469",
      "contractAddress": null,
      "l1BaseFeeScalar": "0x8dd",
      "l1BlobBaseFee": "0x67602",
      "l1BlobBaseFeeScalar": "0x101c12",
      "l1Fee": "0x1053163789",
      "l1GasPrice": "0x47e671c4c",
      "l1GasUsed": "0x640"
    },
    {
      "status": "0x1",
      "cumulativeGasUsed": "0x1906356",
      "logs": [
        {
          "address": "0xa536976c9ca36e74af76037af555eefa632ce469",
          "topics": [
            "0x238399d427b947898edb290f5ff0f9109849b1c3ba196a42e35f00c50a54b98b"
          ],
          "data": "0x00000000000000000000000000000000000000000000000000000000000076420000000000000000000000000000000000000000000000000000000000000000",
          "blockHash": "0xb24b87061307e88891ec2a9a62e770121de591ba64bcd3b1a742a6c66c82a1aa",
          "blockNumber": "0x16c6624",
          "transactionHash": "0x135d9a583dd6d8f1e12bc261073403b77a496469cb0ea72f3a0bf2164576c027",
          "transactionIndex": "0x8e",
          "logIndex": "0x179",
          "removed": false
        }
      ],
      "logsBloom": "0x00000000000000000000000000000000000000000000000000000000000000000000000000000000000000000000000004000000000000000800000000000000000000000000000000000000000000000000000000000000000000000000000000000000000000000000000000000000000000000000000000800000000000000000000000000000000000000000000000000000000000000000000000000000000000000000000000000000000000000000000000000000000002000000000000000000000000000000000000000000000000000004000000040000000000000000000000000000000000000000000000000000000000000000000000000000",
      "type": "0x2",
      "transactionHash": "0x135d9a583dd6d8f1e12bc261073403b77a496469cb0ea72f3a0bf2164576c027",
      "transactionIndex": "0x8e",
      "blockHash": "0xb24b87061307e88891ec2a9a62e770121de591ba64bcd3b1a742a6c66c82a1aa",
      "blockNumber": "0x16c6624",
      "gasUsed": "0x6bc2",
      "effectiveGasPrice": "0x1ff0c69",
      "from": "0x0990be6db8c785fbbf9ded8baec612a10cae814b",
      "to": "0xa536976c9ca36e74af76037af555eefa632ce469",
      "contractAddress": null,
      "l1BaseFeeScalar": "0x8dd",
      "l1BlobBaseFee": "0x67602",
      "l1BlobBaseFeeScalar": "0x101c12",
      "l1Fee": "0x1053163789",
      "l1GasPrice": "0x47e671c4c",
      "l1GasUsed": "0x640"
    },
    {
      "status": "0x1",
      "cumulativeGasUsed": "0x19d7cc9",
      "logs": [
        {
          "address": "0xa536976c9ca36e74af76037af555eefa632ce469",
          "topics": [
            "0x238399d427b947898edb290f5ff0f9109849b1c3ba196a42e35f00c50a54b98b"
          ],
          "data": "0x00000000000000000000000000000000000000000000000000000000000076340000000000000000000000000000000000000000000000000000000000000000",
          "blockHash": "0xb24b87061307e88891ec2a9a62e770121de591ba64bcd3b1a742a6c66c82a1aa",
          "blockNumber": "0x16c6624",
          "transactionHash": "0x962f098eeca266eef71ab7487ecf8ddfd3628b3ab95e9b3f213a008c29c49e3e",
          "transactionIndex": "0x95",
          "logIndex": "0x184",
          "removed": false
        }
      ],
      "logsBloom": "0x00000000000000000000000000000000000000000000000000000000000000000000000000000000000000000000000004000000000000000800000000000000000000000000000000000000000000000000000000000000000000000000000000000000000000000000000000000000000000000000000000800000000000000000000000000000000000000000000000000000000000000000000000000000000000000000000000000000000000000000000000000000000002000000000000000000000000000000000000000000000000000004000000040000000000000000000000000000000000000000000000000000000000000000000000000000",
      "type": "0x2",
      "transactionHash": "0x962f098eeca266eef71ab7487ecf8ddfd3628b3ab95e9b3f213a008c29c49e3e",
      "transactionIndex": "0x95",
      "blockHash": "0xb24b87061307e88891ec2a9a62e770121de591ba64bcd3b1a742a6c66c82a1aa",
      "blockNumber": "0x16c6624",
      "gasUsed": "0x6bc2",
      "effectiveGasPrice": "0x1ff0c69",
      "from": "0x0990be6db8c785fbbf9ded8baec612a10cae814b",
      "to": "0xa536976c9ca36e74af76037af555eefa632ce469",
      "contractAddress": null,
      "l1BaseFeeScalar": "0x8dd",
      "l1BlobBaseFee": "0x67602",
      "l1BlobBaseFeeScalar": "0x101c12",
      "l1Fee": "0x1053163789",
      "l1GasPrice": "0x47e671c4c",
      "l1GasUsed": "0x640"
    },
    {
      "status": "0x1",
      "cumulativeGasUsed": "0x19de88b",
      "logs": [
        {
          "address": "0xa536976c9ca36e74af76037af555eefa632ce469",
          "topics": [
            "0x238399d427b947898edb290f5ff0f9109849b1c3ba196a42e35f00c50a54b98b"
          ],
          "data": "0x00000000000000000000000000000000000000000000000000000000000076480000000000000000000000000000000000000000000000000000000000000000",
          "blockHash": "0xb24b87061307e88891ec2a9a62e770121de591ba64bcd3b1a742a6c66c82a1aa",
          "blockNumber": "0x16c6624",
          "transactionHash": "0x42801c9a496b13715f0223512bb7ea16ea982d1ae0152c05407d3d96c707c87e",
          "transactionIndex": "0x96",
          "logIndex": "0x185",
          "removed": false
        }
      ],
      "logsBloom": "0x00000000000000000000000000000000000000000000000000000000000000000000000000000000000000000000000004000000000000000800000000000000000000000000000000000000000000000000000000000000000000000000000000000000000000000000000000000000000000000000000000800000000000000000000000000000000000000000000000000000000000000000000000000000000000000000000000000000000000000000000000000000000002000000000000000000000000000000000000000000000000000004000000040000000000000000000000000000000000000000000000000000000000000000000000000000",
      "type": "0x2",
      "transactionHash": "0x42801c9a496b13715f0223512bb7ea16ea982d1ae0152c05407d3d96c707c87e",
      "transactionIndex": "0x96",
      "blockHash": "0xb24b87061307e88891ec2a9a62e770121de591ba64bcd3b1a742a6c66c82a1aa",
      "blockNumber": "0x16c6624",
      "gasUsed": "0x6bc2",
      "effectiveGasPrice": "0x1ff0c69",
      "from": "0x0990be6db8c785fbbf9ded8baec612a10cae814b",
      "to": "0xa536976c9ca36e74af76037af555eefa632ce469",
      "contractAddress": null,
      "l1BaseFeeScalar": "0x8dd",
      "l1BlobBaseFee": "0x67602",
      "l1BlobBaseFeeScalar": "0x101c12",
      "l1Fee": "0x1053163789",
      "l1GasPrice": "0x47e671c4c",
      "l1GasUsed": "0x640"
    },
    {
      "status": "0x1",
      "cumulativeGasUsed": "0x19e544d",
      "logs": [
        {
          "address": "0xa536976c9ca36e74af76037af555eefa632ce469",
          "topics": [
            "0x238399d427b947898edb290f5ff0f9109849b1c3ba196a42e35f00c50a54b98b"
          ],
          "data": "0x000000000000000000000000000000000000000000000000000000000000762f0000000000000000000000000000000000000000000000000000000000000000",
          "blockHash": "0xb24b87061307e88891ec2a9a62e770121de591ba64bcd3b1a742a6c66c82a1aa",
          "blockNumber": "0x16c6624",
          "transactionHash": "0xa83e8220d5e23ce25c6e51bf20dab61c9954223208946b39695e7af8e43055b8",
          "transactionIndex": "0x97",
          "logIndex": "0x186",
          "removed": false
        }
      ],
      "logsBloom": "0x00000000000000000000000000000000000000000000000000000000000000000000000000000000000000000000000004000000000000000800000000000000000000000000000000000000000000000000000000000000000000000000000000000000000000000000000000000000000000000000000000800000000000000000000000000000000000000000000000000000000000000000000000000000000000000000000000000000000000000000000000000000000002000000000000000000000000000000000000000000000000000004000000040000000000000000000000000000000000000000000000000000000000000000000000000000",
      "type": "0x2",
      "transactionHash": "0xa83e8220d5e23ce25c6e51bf20dab61c9954223208946b39695e7af8e43055b8",
      "transactionIndex": "0x97",
      "blockHash": "0xb24b87061307e88891ec2a9a62e770121de591ba64bcd3b1a742a6c66c82a1aa",
      "blockNumber": "0x16c6624",
      "gasUsed": "0x6bc2",
      "effectiveGasPrice": "0x1ff0c69",
      "from": "0x0990be6db8c785fbbf9ded8baec612a10cae814b",
      "to": "0xa536976c9ca36e74af76037af555eefa632ce469",
      "contractAddress": null,
      "l1BaseFeeScalar": "0x8dd",
      "l1BlobBaseFee": "0x67602",
      "l1BlobBaseFeeScalar": "0x101c12",
      "l1Fee": "0x1053163789",
      "l1GasPrice": "0x47e671c4c",
      "l1GasUsed": "0x640"
    },
    {
      "status": "0x1",
      "cumulativeGasUsed": "0x1a92906",
      "logs": [
        {
          "address": "0xa536976c9ca36e74af76037af555eefa632ce469",
          "topics": [
            "0x238399d427b947898edb290f5ff0f9109849b1c3ba196a42e35f00c50a54b98b"
          ],
          "data": "0x00000000000000000000000000000000000000000000000000000000000076420000000000000000000000000000000000000000000000000000000000000000",
          "blockHash": "0xb24b87061307e88891ec2a9a62e770121de591ba64bcd3b1a742a6c66c82a1aa",
          "blockNumber": "0x16c6624",
          "transactionHash": "0x78a901df2cb3dfe5b6afac30ac7636c895e91e708b1cdd2aa3c9d845176f5e63",
          "transactionIndex": "0x9d",
          "logIndex": "0x190",
          "removed": false
        }
      ],
      "logsBloom": "0x00000000000000000000000000000000000000000000000000000000000000000000000000000000000000000000000004000000000000000800000000000000000000000000000000000000000000000000000000000000000000000000000000000000000000000000000000000000000000000000000000800000000000000000000000000000000000000000000000000000000000000000000000000000000000000000000000000000000000000000000000000000000002000000000000000000000000000000000000000000000000000004000000040000000000000000000000000000000000000000000000000000000000000000000000000000",
      "type": "0x2",
      "transactionHash": "0x78a901df2cb3dfe5b6afac30ac7636c895e91e708b1cdd2aa3c9d845176f5e63",
      "transactionIndex": "0x9d",
      "blockHash": "0xb24b87061307e88891ec2a9a62e770121de591ba64bcd3b1a742a6c66c82a1aa",
      "blockNumber": "0x16c6624",
      "gasUsed": "0x6bc2",
      "effectiveGasPrice": "0x1ff0c69",
      "from": "0x0990be6db8c785fbbf9ded8baec612a10cae814b",
      "to": "0xa536976c9ca36e74af76037af555eefa632ce469",
      "contractAddress": null,
      "l1BaseFeeScalar": "0x8dd",
      "l1BlobBaseFee": "0x67602",
      "l1BlobBaseFeeScalar": "0x101c12",
      "l1Fee": "0x1053163789",
      "l1GasPrice": "0x47e671c4c",
      "l1GasUsed": "0x640"
    }
  ],
  "libraries": [],
  "pending": [],
  "returns": {},
  "timestamp": 1734551833,
  "chain": 8453,
  "commit": "cb8ebc4"
}