{
  "transactions": [
    {
      "hash": "0x18933cf0db6dae6626cf3a60ef8fa25310c7c0e568cb9fd2bcd190f434bac060",
      "transactionType": "CALL",
      "contractName": null,
      "contractAddress": "0x741f0d8bde14140f62107fc60a0ee122b37d4630",
      "function": "batchBridgeWithEthFeeFromWallet((uint32,bytes32,uint256,uint256,bytes,bytes,bytes)[],address[],address[])",
      "arguments": [
        "[(30255, 0x000000000000000000000000741f0d8bde14140f62107fc60a0ee122b37d4630, 10000000000000, 0, 0x, 0x, 0x), (30255, 0x000000000000000000000000741f0d8bde14140f62107fc60a0ee122b37d4630, 10000000000000, 0, 0x, 0x, 0x), (30255, 0x000000000000000000000000741f0d8bde14140f62107fc60a0ee122b37d4630, 10000000000000, 0, 0x, 0x, 0x), (30255, 0x000000000000000000000000741f0d8bde14140f62107fc60a0ee122b37d4630, 10000000000000, 0, 0x, 0x, 0x), (30255, 0x000000000000000000000000741f0d8bde14140f62107fc60a0ee122b37d4630, 10000000000000, 0, 0x, 0x, 0x), (30255, 0x000000000000000000000000741f0d8bde14140f62107fc60a0ee122b37d4630, 10000000000000, 0, 0x, 0x, 0x)]",
        "[0x879BA0EFE1AB0119FefA745A21585Fa205B07907, 0xC6B2BE25d65760B826D0C852FD35F364250619c2, 0x73382eb28F35d80Df8C3fe04A3EED71b1aFce5dE, 0x397F939C3b91A74C321ea7129396492bA9Cdce82, 0x0097Cf8Ee15800d4f80da8A6cE4dF360D9449Ed5, 0x93cDc5d29293Cb6983f059Fec6e4FFEb656b6a62]",
        "[0x741F0d8Bde14140f62107FC60A0EE122B37D4630, 0x741F0d8Bde14140f62107FC60A0EE122B37D4630, 0x741F0d8Bde14140f62107FC60A0EE122B37D4630, 0x741F0d8Bde14140f62107FC60A0EE122B37D4630, 0x741F0d8Bde14140f62107FC60A0EE122B37D4630, 0x741F0d8Bde14140f62107FC60A0EE122B37D4630]"
      ],
      "transaction": {
        "from": "0x45dce8e4f2dc005a5f28206a46cb034697eeda8e",
        "to": "0x741f0d8bde14140f62107fc60a0ee122b37d4630",
        "gas": "0x252e20",
        "value": "0x10f745ee498fc",
        "input": "0xb70d4241000000000000000000000000000000000000000000000000000000000000006000000000000000000000000000000000000000000000000000000000000008c000000000000000000000000000000000000000000000000000000000000009a0000000000000000000000000000000000000000000000000000000000000000600000000000000000000000000000000000000000000000000000000000000c000000000000000000000000000000000000000000000000000000000000002000000000000000000000000000000000000000000000000000000000000000340000000000000000000000000000000000000000000000000000000000000048000000000000000000000000000000000000000000000000000000000000005c00000000000000000000000000000000000000000000000000000000000000700000000000000000000000000000000000000000000000000000000000000762f000000000000000000000000741f0d8bde14140f62107fc60a0ee122b37d4630000000000000000000000000000000000000000000000000000009184e72a000000000000000000000000000000000000000000000000000000000000000000000000000000000000000000000000000000000000000000000000000000000e000000000000000000000000000000000000000000000000000000000000001000000000000000000000000000000000000000000000000000000000000000120000000000000000000000000000000000000000000000000000000000000000000000000000000000000000000000000000000000000000000000000000000000000000000000000000000000000000000000000000000000000000000000000000000000000000000000000000000000000000000000000000000000000762f000000000000000000000000741f0d8bde14140f62107fc60a0ee122b37d4630000000000000000000000000000000000000000000000000000009184e72a000000000000000000000000000000000000000000000000000000000000000000000000000000000000000000000000000000000000000000000000000000000e000000000000000000000000000000000000000000000000000000000000001000000000000000000000000000000000000000000000000000000000000000120000000000000000000000000000000000000000000000000000000000000000000000000000000000000000000000000000000000000000000000000000000000000000000000000000000000000000000000000000000000000000000000000000000000000000000000000000000000000000000000000000000000000762f000000000000000000000000741f0d8bde14140f62107fc60a0ee122b37d4630000000000000000000000000000000000000000000000000000009184e72a000000000000000000000000000000000000000000000000000000000000000000000000000000000000000000000000000000000000000000000000000000000e000000000000000000000000000000000000000000000000000000000000001000000000000000000000000000000000000000000000000000000000000000120000000000000000000000000000000000000000000000000000000000000000000000000000000000000000000000000000000000000000000000000000000000000000000000000000000000000000000000000000000000000000000000000000000000000000000000000000000000000000000000000000000000000762f000000000000000000000000741f0d8bde14140f62107fc60a0ee122b37d4630000000000000000000000000000000000000000000000000000009184e72a000000000000000000000000000000000000000000000000000000000000000000000000000000000000000000000000000000000000000000000000000000000e000000000000000000000000000000000000000000000000000000000000001000000000000000000000000000000000000000000000000000000000000000120000000000000000000000000000000000000000000000000000000000000000000000000000000000000000000000000000000000000000000000000000000000000000000000000000000000000000000000000000000000000000000000000000000000000000000000000000000000000000000000000000000000000762f000000000000000000000000741f0d8bde14140f62107fc60a0ee122b37d4630000000000000000000000000000000000000000000000000000009184e72a000000000000000000000000000000000000000000000000000000000000000000000000000000000000000000000000000000000000000000000000000000000e000000000000000000000000000000000000000000000000000000000000001000000000000000000000000000000000000000000000000000000000000000120000000000000000000000000000000000000000000000000000000000000000000000000000000000000000000000000000000000000000000000000000000000000000000000000000000000000000000000000000000000000000000000000000000000000000000000000000000000000000000000000000000000000762f000000000000000000000000741f0d8bde14140f62107fc60a0ee122b37d4630000000000000000000000000000000000000000000000000000009184e72a000000000000000000000000000000000000000000000000000000000000000000000000000000000000000000000000000000000000000000000000000000000e0000000000000000000000000000000000000000000000000000000000000010000000000000000000000000000000000000000000000000000000000000001200000000000000000000000000000000000000000000000000000000000000000000000000000000000000000000000000000000000000000000000000000000000000000000000000000000000000000000000000000000000000000000000000000000000000000000000000000000000000000000000000000000000000006000000000000000000000000879ba0efe1ab0119fefa745a21585fa205b07907000000000000000000000000c6b2be25d65760b826d0c852fd35f364250619c200000000000000000000000073382eb28f35d80df8c3fe04a3eed71b1afce5de000000000000000000000000397f939c3b91a74c321ea7129396492ba9cdce820000000000000000000000000097cf8ee15800d4f80da8a6ce4df360d9449ed500000000000000000000000093cdc5d29293cb6983f059fec6e4ffeb656b6a620000000000000000000000000000000000000000000000000000000000000006000000000000000000000000741f0d8bde14140f62107fc60a0ee122b37d4630000000000000000000000000741f0d8bde14140f62107fc60a0ee122b37d4630000000000000000000000000741f0d8bde14140f62107fc60a0ee122b37d4630000000000000000000000000741f0d8bde14140f62107fc60a0ee122b37d4630000000000000000000000000741f0d8bde14140f62107fc60a0ee122b37d4630000000000000000000000000741f0d8bde14140f62107fc60a0ee122b37d4630",
        "nonce": "0x91",
        "chainId": "0x82750"
      },
      "additionalContracts": [],
      "isFixedGasLimit": false
    }
  ],
  "receipts": [
    {
      "status": "0x1",
      "cumulativeGasUsed": "0x1aeaf4",
      "logs": [
        {
          "address": "0x879ba0efe1ab0119fefa745a21585fa205b07907",
          "topics": [
            "0xddf252ad1be2c89b69c2b068fc378daa952ba7f163c4a11628f55a4df523b3ef",
            "0x000000000000000000000000741f0d8bde14140f62107fc60a0ee122b37d4630",
            "0x0000000000000000000000000000000000000000000000000000000000000000"
          ],
          "data": "0x000000000000000000000000000000000000000000000000000009184e72a000",
          "blockHash": "0x2dbfb665d065154326635db3bf0e1e2ec85e8e56b85a33059b65fb71fa41e551",
          "blockNumber": "0x1347cab",
          "transactionHash": "0x18933cf0db6dae6626cf3a60ef8fa25310c7c0e568cb9fd2bcd190f434bac060",
          "transactionIndex": "0x0",
          "logIndex": "0x0",
          "removed": false
        },
        {
          "address": "0x9bbeb2b2184b9313cf5ed4a4ddfea2ef62a2a03b",
          "topics": [
            "0x61ed099e74a97a1d7f8bb0952a88ca8b7b8ebd00c126ea04671f92a81213318a"
          ],
          "data": "0x000000000000000000000000581b26f362ad383f7b51ef8a165efa13dde398a4000000000000000000000000000000000000000000000000000007ab927696a6",
          "blockHash": "0x2dbfb665d065154326635db3bf0e1e2ec85e8e56b85a33059b65fb71fa41e551",
          "blockNumber": "0x1347cab",
          "transactionHash": "0x18933cf0db6dae6626cf3a60ef8fa25310c7c0e568cb9fd2bcd190f434bac060",
          "transactionIndex": "0x0",
          "logIndex": "0x1",
          "removed": false
        },
        {
          "address": "0x9bbeb2b2184b9313cf5ed4a4ddfea2ef62a2a03b",
          "topics": [
            "0x07ea52d82345d6e838192107d8fd7123d9c2ec8e916cd0aad13fd2b60db24644"
          ],
          "data": "0x000000000000000000000000000000000000000000000000000000000000006000000000000000000000000000000000000000000000000000000000000000e0000000000000000000000000000000000000000000000000000000000000010000000000000000000000000000000000000000000000000000000000000000030000000000000000000000007fe673201724925b5c477d4e1a4bd3e954688cf500000000000000000000000093bb6f93fa90a18e88a27bcfbcb048f7e14733c6000000000000000000000000be0d08a85eebfcc6eda0a843521f7cbb1180d2e20000000000000000000000000000000000000000000000000000000000000000000000000000000000000000000000000000000000000000000000000000000300000000000000000000000000000000000000000000000000000b6e9b9b646d00000000000000000000000000000000000000000000000000000eb5462364aa00000000000000000000000000000000000000000000000000000b6e9b9b646d",
          "blockHash": "0x2dbfb665d065154326635db3bf0e1e2ec85e8e56b85a33059b65fb71fa41e551",
          "blockNumber": "0x1347cab",
          "transactionHash": "0x18933cf0db6dae6626cf3a60ef8fa25310c7c0e568cb9fd2bcd190f434bac060",
          "transactionIndex": "0x0",
          "logIndex": "0x2",
          "removed": false
        },
        {
          "address": "0x1a44076050125825900e736c501f859c50fe728c",
          "topics": [
            "0x1ab700d4ced0c005b164c0f789fd09fcbb0156d4c2041b8a3bfbcd961cd1567f"
          ],
          "data": "0x000000000000000000000000000000000000000000000000000000000000006000000000000000000000000000000000000000000000000000000000000001200000000000000000000000009bbeb2b2184b9313cf5ed4a4ddfea2ef62a2a03b000000000000000000000000000000000000000000000000000000000000009901000000000000000100007606000000000000000000000000879ba0efe1ab0119fefa745a21585fa205b079070000762f000000000000000000000000d86fbbd0c8715d2c1f40e451e5c3514e65e7576a078502df781fed548b6aab77c084571da2c560173e10515d46a055aee0b48b97000000000000000000000000741f0d8bde14140f62107fc60a0ee122b37d4630000000000000000a00000000000000000000000000000000000000000000000000000000000000000000000000001600030100110100000000000000000000000000030d4000000000000000000000",
          "blockHash": "0x2dbfb665d065154326635db3bf0e1e2ec85e8e56b85a33059b65fb71fa41e551",
          "blockNumber": "0x1347cab",
          "transactionHash": "0x18933cf0db6dae6626cf3a60ef8fa25310c7c0e568cb9fd2bcd190f434bac060",
          "transactionIndex": "0x0",
          "logIndex": "0x3",
          "removed": false
        },
        {
          "address": "0x879ba0efe1ab0119fefa745a21585fa205b07907",
          "topics": [
            "0x85496b760a4b7f8d66384b9df21b381f5d1b1e79f229a47aaf4c232edc2fe59a",
            "0x078502df781fed548b6aab77c084571da2c560173e10515d46a055aee0b48b97",
            "0x000000000000000000000000741f0d8bde14140f62107fc60a0ee122b37d4630"
          ],
          "data": "0x000000000000000000000000000000000000000000000000000000000000762f000000000000000000000000000000000000000000000000000009184e72a000000000000000000000000000000000000000000000000000000009184e72a000",
          "blockHash": "0x2dbfb665d065154326635db3bf0e1e2ec85e8e56b85a33059b65fb71fa41e551",
          "blockNumber": "0x1347cab",
          "transactionHash": "0x18933cf0db6dae6626cf3a60ef8fa25310c7c0e568cb9fd2bcd190f434bac060",
          "transactionIndex": "0x0",
          "logIndex": "0x4",
          "removed": false
        },
        {
          "address": "0xc6b2be25d65760b826d0c852fd35f364250619c2",
          "topics": [
            "0xddf252ad1be2c89b69c2b068fc378daa952ba7f163c4a11628f55a4df523b3ef",
            "0x000000000000000000000000741f0d8bde14140f62107fc60a0ee122b37d4630",
            "0x0000000000000000000000000000000000000000000000000000000000000000"
          ],
          "data": "0x000000000000000000000000000000000000000000000000000009184e72a000",
          "blockHash": "0x2dbfb665d065154326635db3bf0e1e2ec85e8e56b85a33059b65fb71fa41e551",
          "blockNumber": "0x1347cab",
          "transactionHash": "0x18933cf0db6dae6626cf3a60ef8fa25310c7c0e568cb9fd2bcd190f434bac060",
          "transactionIndex": "0x0",
          "logIndex": "0x5",
          "removed": false
        },
        {
          "address": "0x9bbeb2b2184b9313cf5ed4a4ddfea2ef62a2a03b",
          "topics": [
            "0x61ed099e74a97a1d7f8bb0952a88ca8b7b8ebd00c126ea04671f92a81213318a"
          ],
          "data": "0x000000000000000000000000581b26f362ad383f7b51ef8a165efa13dde398a4000000000000000000000000000000000000000000000000000007ab927696a6",
          "blockHash": "0x2dbfb665d065154326635db3bf0e1e2ec85e8e56b85a33059b65fb71fa41e551",
          "blockNumber": "0x1347cab",
          "transactionHash": "0x18933cf0db6dae6626cf3a60ef8fa25310c7c0e568cb9fd2bcd190f434bac060",
          "transactionIndex": "0x0",
          "logIndex": "0x6",
          "removed": false
        },
        {
          "address": "0x9bbeb2b2184b9313cf5ed4a4ddfea2ef62a2a03b",
          "topics": [
            "0x07ea52d82345d6e838192107d8fd7123d9c2ec8e916cd0aad13fd2b60db24644"
          ],
          "data": "0x000000000000000000000000000000000000000000000000000000000000006000000000000000000000000000000000000000000000000000000000000000e0000000000000000000000000000000000000000000000000000000000000010000000000000000000000000000000000000000000000000000000000000000030000000000000000000000007fe673201724925b5c477d4e1a4bd3e954688cf500000000000000000000000093bb6f93fa90a18e88a27bcfbcb048f7e14733c6000000000000000000000000be0d08a85eebfcc6eda0a843521f7cbb1180d2e20000000000000000000000000000000000000000000000000000000000000000000000000000000000000000000000000000000000000000000000000000000300000000000000000000000000000000000000000000000000000b6e9b9b646d00000000000000000000000000000000000000000000000000000eb5462364aa00000000000000000000000000000000000000000000000000000b6e9b9b646d",
          "blockHash": "0x2dbfb665d065154326635db3bf0e1e2ec85e8e56b85a33059b65fb71fa41e551",
          "blockNumber": "0x1347cab",
          "transactionHash": "0x18933cf0db6dae6626cf3a60ef8fa25310c7c0e568cb9fd2bcd190f434bac060",
          "transactionIndex": "0x0",
          "logIndex": "0x7",
          "removed": false
        },
        {
          "address": "0x1a44076050125825900e736c501f859c50fe728c",
          "topics": [
            "0x1ab700d4ced0c005b164c0f789fd09fcbb0156d4c2041b8a3bfbcd961cd1567f"
          ],
          "data": "0x000000000000000000000000000000000000000000000000000000000000006000000000000000000000000000000000000000000000000000000000000001200000000000000000000000009bbeb2b2184b9313cf5ed4a4ddfea2ef62a2a03b000000000000000000000000000000000000000000000000000000000000009901000000000000000100007606000000000000000000000000c6b2be25d65760b826d0c852fd35f364250619c20000762f00000000000000000000000088aa7854d3b2daa5e37e7ce73a1f39669623a361018929e9788de41a80926676a8e8343cd57384f25d8d1564442e5a46ababd42e000000000000000000000000741f0d8bde14140f62107fc60a0ee122b37d4630000000000000000a00000000000000000000000000000000000000000000000000000000000000000000000000001600030100110100000000000000000000000000030d4000000000000000000000",
          "blockHash": "0x2dbfb665d065154326635db3bf0e1e2ec85e8e56b85a33059b65fb71fa41e551",
          "blockNumber": "0x1347cab",
          "transactionHash": "0x18933cf0db6dae6626cf3a60ef8fa25310c7c0e568cb9fd2bcd190f434bac060",
          "transactionIndex": "0x0",
          "logIndex": "0x8",
          "removed": false
        },
        {
          "address": "0xc6b2be25d65760b826d0c852fd35f364250619c2",
          "topics": [
            "0x85496b760a4b7f8d66384b9df21b381f5d1b1e79f229a47aaf4c232edc2fe59a",
            "0x018929e9788de41a80926676a8e8343cd57384f25d8d1564442e5a46ababd42e",
            "0x000000000000000000000000741f0d8bde14140f62107fc60a0ee122b37d4630"
          ],
          "data": "0x000000000000000000000000000000000000000000000000000000000000762f000000000000000000000000000000000000000000000000000009184e72a000000000000000000000000000000000000000000000000000000009184e72a000",
          "blockHash": "0x2dbfb665d065154326635db3bf0e1e2ec85e8e56b85a33059b65fb71fa41e551",
          "blockNumber": "0x1347cab",
          "transactionHash": "0x18933cf0db6dae6626cf3a60ef8fa25310c7c0e568cb9fd2bcd190f434bac060",
          "transactionIndex": "0x0",
          "logIndex": "0x9",
          "removed": false
        },
        {
          "address": "0x73382eb28f35d80df8c3fe04a3eed71b1afce5de",
          "topics": [
            "0xddf252ad1be2c89b69c2b068fc378daa952ba7f163c4a11628f55a4df523b3ef",
            "0x000000000000000000000000741f0d8bde14140f62107fc60a0ee122b37d4630",
            "0x0000000000000000000000000000000000000000000000000000000000000000"
          ],
          "data": "0x000000000000000000000000000000000000000000000000000009184e72a000",
          "blockHash": "0x2dbfb665d065154326635db3bf0e1e2ec85e8e56b85a33059b65fb71fa41e551",
          "blockNumber": "0x1347cab",
          "transactionHash": "0x18933cf0db6dae6626cf3a60ef8fa25310c7c0e568cb9fd2bcd190f434bac060",
          "transactionIndex": "0x0",
          "logIndex": "0xa",
          "removed": false
        },
        {
          "address": "0x9bbeb2b2184b9313cf5ed4a4ddfea2ef62a2a03b",
          "topics": [
            "0x61ed099e74a97a1d7f8bb0952a88ca8b7b8ebd00c126ea04671f92a81213318a"
          ],
          "data": "0x000000000000000000000000581b26f362ad383f7b51ef8a165efa13dde398a4000000000000000000000000000000000000000000000000000007ab927696a6",
          "blockHash": "0x2dbfb665d065154326635db3bf0e1e2ec85e8e56b85a33059b65fb71fa41e551",
          "blockNumber": "0x1347cab",
          "transactionHash": "0x18933cf0db6dae6626cf3a60ef8fa25310c7c0e568cb9fd2bcd190f434bac060",
          "transactionIndex": "0x0",
          "logIndex": "0xb",
          "removed": false
        },
        {
          "address": "0x9bbeb2b2184b9313cf5ed4a4ddfea2ef62a2a03b",
          "topics": [
            "0x07ea52d82345d6e838192107d8fd7123d9c2ec8e916cd0aad13fd2b60db24644"
          ],
          "data": "0x000000000000000000000000000000000000000000000000000000000000006000000000000000000000000000000000000000000000000000000000000000e0000000000000000000000000000000000000000000000000000000000000010000000000000000000000000000000000000000000000000000000000000000030000000000000000000000007fe673201724925b5c477d4e1a4bd3e954688cf500000000000000000000000093bb6f93fa90a18e88a27bcfbcb048f7e14733c6000000000000000000000000be0d08a85eebfcc6eda0a843521f7cbb1180d2e20000000000000000000000000000000000000000000000000000000000000000000000000000000000000000000000000000000000000000000000000000000300000000000000000000000000000000000000000000000000000b6e9b9b646d00000000000000000000000000000000000000000000000000000eb5462364aa00000000000000000000000000000000000000000000000000000b6e9b9b646d",
          "blockHash": "0x2dbfb665d065154326635db3bf0e1e2ec85e8e56b85a33059b65fb71fa41e551",
          "blockNumber": "0x1347cab",
          "transactionHash": "0x18933cf0db6dae6626cf3a60ef8fa25310c7c0e568cb9fd2bcd190f434bac060",
          "transactionIndex": "0x0",
          "logIndex": "0xc",
          "removed": false
        },
        {
          "address": "0x1a44076050125825900e736c501f859c50fe728c",
          "topics": [
            "0x1ab700d4ced0c005b164c0f789fd09fcbb0156d4c2041b8a3bfbcd961cd1567f"
          ],
          "data": "0x000000000000000000000000000000000000000000000000000000000000006000000000000000000000000000000000000000000000000000000000000001200000000000000000000000009bbeb2b2184b9313cf5ed4a4ddfea2ef62a2a03b00000000000000000000000000000000000000000000000000000000000000990100000000000000010000760600000000000000000000000073382eb28f35d80df8c3fe04a3eed71b1afce5de0000762f000000000000000000000000999dfabe3b1cc2ef66eb032eea42fea329bba16829a7d6d8e44bcb1a5a49231e9c39842e14d7826002738d6c1fdef7233aa0d80f000000000000000000000000741f0d8bde14140f62107fc60a0ee122b37d4630000000000000000a00000000000000000000000000000000000000000000000000000000000000000000000000001600030100110100000000000000000000000000030d4000000000000000000000",
          "blockHash": "0x2dbfb665d065154326635db3bf0e1e2ec85e8e56b85a33059b65fb71fa41e551",
          "blockNumber": "0x1347cab",
          "transactionHash": "0x18933cf0db6dae6626cf3a60ef8fa25310c7c0e568cb9fd2bcd190f434bac060",
          "transactionIndex": "0x0",
          "logIndex": "0xd",
          "removed": false
        },
        {
          "address": "0x73382eb28f35d80df8c3fe04a3eed71b1afce5de",
          "topics": [
            "0x85496b760a4b7f8d66384b9df21b381f5d1b1e79f229a47aaf4c232edc2fe59a",
            "0x29a7d6d8e44bcb1a5a49231e9c39842e14d7826002738d6c1fdef7233aa0d80f",
            "0x000000000000000000000000741f0d8bde14140f62107fc60a0ee122b37d4630"
          ],
          "data": "0x000000000000000000000000000000000000000000000000000000000000762f000000000000000000000000000000000000000000000000000009184e72a000000000000000000000000000000000000000000000000000000009184e72a000",
          "blockHash": "0x2dbfb665d065154326635db3bf0e1e2ec85e8e56b85a33059b65fb71fa41e551",
          "blockNumber": "0x1347cab",
          "transactionHash": "0x18933cf0db6dae6626cf3a60ef8fa25310c7c0e568cb9fd2bcd190f434bac060",
          "transactionIndex": "0x0",
          "logIndex": "0xe",
          "removed": false
        },
        {
          "address": "0x397f939c3b91a74c321ea7129396492ba9cdce82",
          "topics": [
            "0xddf252ad1be2c89b69c2b068fc378daa952ba7f163c4a11628f55a4df523b3ef",
            "0x000000000000000000000000741f0d8bde14140f62107fc60a0ee122b37d4630",
            "0x0000000000000000000000000000000000000000000000000000000000000000"
          ],
          "data": "0x000000000000000000000000000000000000000000000000000009184e72a000",
          "blockHash": "0x2dbfb665d065154326635db3bf0e1e2ec85e8e56b85a33059b65fb71fa41e551",
          "blockNumber": "0x1347cab",
          "transactionHash": "0x18933cf0db6dae6626cf3a60ef8fa25310c7c0e568cb9fd2bcd190f434bac060",
          "transactionIndex": "0x0",
          "logIndex": "0xf",
          "removed": false
        },
        {
          "address": "0x9bbeb2b2184b9313cf5ed4a4ddfea2ef62a2a03b",
          "topics": [
            "0x61ed099e74a97a1d7f8bb0952a88ca8b7b8ebd00c126ea04671f92a81213318a"
          ],
          "data": "0x000000000000000000000000581b26f362ad383f7b51ef8a165efa13dde398a4000000000000000000000000000000000000000000000000000007ab927696a6",
          "blockHash": "0x2dbfb665d065154326635db3bf0e1e2ec85e8e56b85a33059b65fb71fa41e551",
          "blockNumber": "0x1347cab",
          "transactionHash": "0x18933cf0db6dae6626cf3a60ef8fa25310c7c0e568cb9fd2bcd190f434bac060",
          "transactionIndex": "0x0",
          "logIndex": "0x10",
          "removed": false
        },
        {
          "address": "0x9bbeb2b2184b9313cf5ed4a4ddfea2ef62a2a03b",
          "topics": [
            "0x07ea52d82345d6e838192107d8fd7123d9c2ec8e916cd0aad13fd2b60db24644"
          ],
          "data": "0x000000000000000000000000000000000000000000000000000000000000006000000000000000000000000000000000000000000000000000000000000000e0000000000000000000000000000000000000000000000000000000000000010000000000000000000000000000000000000000000000000000000000000000030000000000000000000000007fe673201724925b5c477d4e1a4bd3e954688cf500000000000000000000000093bb6f93fa90a18e88a27bcfbcb048f7e14733c6000000000000000000000000be0d08a85eebfcc6eda0a843521f7cbb1180d2e20000000000000000000000000000000000000000000000000000000000000000000000000000000000000000000000000000000000000000000000000000000300000000000000000000000000000000000000000000000000000b6e9b9b646d00000000000000000000000000000000000000000000000000000eb5462364aa00000000000000000000000000000000000000000000000000000b6e9b9b646d",
          "blockHash": "0x2dbfb665d065154326635db3bf0e1e2ec85e8e56b85a33059b65fb71fa41e551",
          "blockNumber": "0x1347cab",
          "transactionHash": "0x18933cf0db6dae6626cf3a60ef8fa25310c7c0e568cb9fd2bcd190f434bac060",
          "transactionIndex": "0x0",
          "logIndex": "0x11",
          "removed": false
        },
        {
          "address": "0x1a44076050125825900e736c501f859c50fe728c",
          "topics": [
            "0x1ab700d4ced0c005b164c0f789fd09fcbb0156d4c2041b8a3bfbcd961cd1567f"
          ],
          "data": "0x000000000000000000000000000000000000000000000000000000000000006000000000000000000000000000000000000000000000000000000000000001200000000000000000000000009bbeb2b2184b9313cf5ed4a4ddfea2ef62a2a03b000000000000000000000000000000000000000000000000000000000000009901000000000000000100007606000000000000000000000000397f939c3b91a74c321ea7129396492ba9cdce820000762f00000000000000000000000096a394058e2b84a89bac9667b19661ed003cf5d4ebbef88ce8d7e0511b4a9aa8e40eb997d7b3ab3832dca99ad6777bd880421ce1000000000000000000000000741f0d8bde14140f62107fc60a0ee122b37d4630000000000000000a00000000000000000000000000000000000000000000000000000000000000000000000000001600030100110100000000000000000000000000030d4000000000000000000000",
          "blockHash": "0x2dbfb665d065154326635db3bf0e1e2ec85e8e56b85a33059b65fb71fa41e551",
          "blockNumber": "0x1347cab",
          "transactionHash": "0x18933cf0db6dae6626cf3a60ef8fa25310c7c0e568cb9fd2bcd190f434bac060",
          "transactionIndex": "0x0",
          "logIndex": "0x12",
          "removed": false
        },
        {
          "address": "0x397f939c3b91a74c321ea7129396492ba9cdce82",
          "topics": [
            "0x85496b760a4b7f8d66384b9df21b381f5d1b1e79f229a47aaf4c232edc2fe59a",
            "0xebbef88ce8d7e0511b4a9aa8e40eb997d7b3ab3832dca99ad6777bd880421ce1",
            "0x000000000000000000000000741f0d8bde14140f62107fc60a0ee122b37d4630"
          ],
          "data": "0x000000000000000000000000000000000000000000000000000000000000762f000000000000000000000000000000000000000000000000000009184e72a000000000000000000000000000000000000000000000000000000009184e72a000",
          "blockHash": "0x2dbfb665d065154326635db3bf0e1e2ec85e8e56b85a33059b65fb71fa41e551",
          "blockNumber": "0x1347cab",
          "transactionHash": "0x18933cf0db6dae6626cf3a60ef8fa25310c7c0e568cb9fd2bcd190f434bac060",
          "transactionIndex": "0x0",
          "logIndex": "0x13",
          "removed": false
        },
        {
          "address": "0x0097cf8ee15800d4f80da8a6ce4df360d9449ed5",
          "topics": [
            "0xddf252ad1be2c89b69c2b068fc378daa952ba7f163c4a11628f55a4df523b3ef",
            "0x000000000000000000000000741f0d8bde14140f62107fc60a0ee122b37d4630",
            "0x0000000000000000000000000000000000000000000000000000000000000000"
          ],
          "data": "0x000000000000000000000000000000000000000000000000000009184e72a000",
          "blockHash": "0x2dbfb665d065154326635db3bf0e1e2ec85e8e56b85a33059b65fb71fa41e551",
          "blockNumber": "0x1347cab",
          "transactionHash": "0x18933cf0db6dae6626cf3a60ef8fa25310c7c0e568cb9fd2bcd190f434bac060",
          "transactionIndex": "0x0",
          "logIndex": "0x14",
          "removed": false
        },
        {
          "address": "0x9bbeb2b2184b9313cf5ed4a4ddfea2ef62a2a03b",
          "topics": [
            "0x61ed099e74a97a1d7f8bb0952a88ca8b7b8ebd00c126ea04671f92a81213318a"
          ],
          "data": "0x000000000000000000000000581b26f362ad383f7b51ef8a165efa13dde398a4000000000000000000000000000000000000000000000000000007ab927696a6",
          "blockHash": "0x2dbfb665d065154326635db3bf0e1e2ec85e8e56b85a33059b65fb71fa41e551",
          "blockNumber": "0x1347cab",
          "transactionHash": "0x18933cf0db6dae6626cf3a60ef8fa25310c7c0e568cb9fd2bcd190f434bac060",
          "transactionIndex": "0x0",
          "logIndex": "0x15",
          "removed": false
        },
        {
          "address": "0x9bbeb2b2184b9313cf5ed4a4ddfea2ef62a2a03b",
          "topics": [
            "0x07ea52d82345d6e838192107d8fd7123d9c2ec8e916cd0aad13fd2b60db24644"
          ],
          "data": "0x000000000000000000000000000000000000000000000000000000000000006000000000000000000000000000000000000000000000000000000000000000e0000000000000000000000000000000000000000000000000000000000000010000000000000000000000000000000000000000000000000000000000000000030000000000000000000000007fe673201724925b5c477d4e1a4bd3e954688cf500000000000000000000000093bb6f93fa90a18e88a27bcfbcb048f7e14733c6000000000000000000000000be0d08a85eebfcc6eda0a843521f7cbb1180d2e20000000000000000000000000000000000000000000000000000000000000000000000000000000000000000000000000000000000000000000000000000000300000000000000000000000000000000000000000000000000000b6e9b9b646d00000000000000000000000000000000000000000000000000000eb5462364aa00000000000000000000000000000000000000000000000000000b6e9b9b646d",
          "blockHash": "0x2dbfb665d065154326635db3bf0e1e2ec85e8e56b85a33059b65fb71fa41e551",
          "blockNumber": "0x1347cab",
          "transactionHash": "0x18933cf0db6dae6626cf3a60ef8fa25310c7c0e568cb9fd2bcd190f434bac060",
          "transactionIndex": "0x0",
          "logIndex": "0x16",
          "removed": false
        },
        {
          "address": "0x1a44076050125825900e736c501f859c50fe728c",
          "topics": [
            "0x1ab700d4ced0c005b164c0f789fd09fcbb0156d4c2041b8a3bfbcd961cd1567f"
          ],
          "data": "0x000000000000000000000000000000000000000000000000000000000000006000000000000000000000000000000000000000000000000000000000000001200000000000000000000000009bbeb2b2184b9313cf5ed4a4ddfea2ef62a2a03b0000000000000000000000000000000000000000000000000000000000000099010000000000000001000076060000000000000000000000000097cf8ee15800d4f80da8a6ce4df360d9449ed50000762f0000000000000000000000009abfe1f8a999b0011ecd6116649aee8d575f56047d872ce0d401b18ee4d06cd7d4fa904c85c6e7ae5effd51963f86047f957dc12000000000000000000000000741f0d8bde14140f62107fc60a0ee122b37d4630000000000000000a00000000000000000000000000000000000000000000000000000000000000000000000000001600030100110100000000000000000000000000030d4000000000000000000000",
          "blockHash": "0x2dbfb665d065154326635db3bf0e1e2ec85e8e56b85a33059b65fb71fa41e551",
          "blockNumber": "0x1347cab",
          "transactionHash": "0x18933cf0db6dae6626cf3a60ef8fa25310c7c0e568cb9fd2bcd190f434bac060",
          "transactionIndex": "0x0",
          "logIndex": "0x17",
          "removed": false
        },
        {
          "address": "0x0097cf8ee15800d4f80da8a6ce4df360d9449ed5",
          "topics": [
            "0x85496b760a4b7f8d66384b9df21b381f5d1b1e79f229a47aaf4c232edc2fe59a",
            "0x7d872ce0d401b18ee4d06cd7d4fa904c85c6e7ae5effd51963f86047f957dc12",
            "0x000000000000000000000000741f0d8bde14140f62107fc60a0ee122b37d4630"
          ],
          "data": "0x000000000000000000000000000000000000000000000000000000000000762f000000000000000000000000000000000000000000000000000009184e72a000000000000000000000000000000000000000000000000000000009184e72a000",
          "blockHash": "0x2dbfb665d065154326635db3bf0e1e2ec85e8e56b85a33059b65fb71fa41e551",
          "blockNumber": "0x1347cab",
          "transactionHash": "0x18933cf0db6dae6626cf3a60ef8fa25310c7c0e568cb9fd2bcd190f434bac060",
          "transactionIndex": "0x0",
          "logIndex": "0x18",
          "removed": false
        },
        {
          "address": "0x93cdc5d29293cb6983f059fec6e4ffeb656b6a62",
          "topics": [
            "0xddf252ad1be2c89b69c2b068fc378daa952ba7f163c4a11628f55a4df523b3ef",
            "0x000000000000000000000000741f0d8bde14140f62107fc60a0ee122b37d4630",
            "0x0000000000000000000000000000000000000000000000000000000000000000"
          ],
          "data": "0x000000000000000000000000000000000000000000000000000009184e72a000",
          "blockHash": "0x2dbfb665d065154326635db3bf0e1e2ec85e8e56b85a33059b65fb71fa41e551",
          "blockNumber": "0x1347cab",
          "transactionHash": "0x18933cf0db6dae6626cf3a60ef8fa25310c7c0e568cb9fd2bcd190f434bac060",
          "transactionIndex": "0x0",
          "logIndex": "0x19",
          "removed": false
        },
        {
          "address": "0x9bbeb2b2184b9313cf5ed4a4ddfea2ef62a2a03b",
          "topics": [
            "0x61ed099e74a97a1d7f8bb0952a88ca8b7b8ebd00c126ea04671f92a81213318a"
          ],
          "data": "0x000000000000000000000000581b26f362ad383f7b51ef8a165efa13dde398a4000000000000000000000000000000000000000000000000000007ab927696a6",
          "blockHash": "0x2dbfb665d065154326635db3bf0e1e2ec85e8e56b85a33059b65fb71fa41e551",
          "blockNumber": "0x1347cab",
          "transactionHash": "0x18933cf0db6dae6626cf3a60ef8fa25310c7c0e568cb9fd2bcd190f434bac060",
          "transactionIndex": "0x0",
          "logIndex": "0x1a",
          "removed": false
        },
        {
          "address": "0x9bbeb2b2184b9313cf5ed4a4ddfea2ef62a2a03b",
          "topics": [
            "0x07ea52d82345d6e838192107d8fd7123d9c2ec8e916cd0aad13fd2b60db24644"
          ],
          "data": "0x000000000000000000000000000000000000000000000000000000000000006000000000000000000000000000000000000000000000000000000000000000e0000000000000000000000000000000000000000000000000000000000000010000000000000000000000000000000000000000000000000000000000000000030000000000000000000000007fe673201724925b5c477d4e1a4bd3e954688cf500000000000000000000000093bb6f93fa90a18e88a27bcfbcb048f7e14733c6000000000000000000000000be0d08a85eebfcc6eda0a843521f7cbb1180d2e20000000000000000000000000000000000000000000000000000000000000000000000000000000000000000000000000000000000000000000000000000000300000000000000000000000000000000000000000000000000000b6e9b9b646d00000000000000000000000000000000000000000000000000000eb5462364aa00000000000000000000000000000000000000000000000000000b6e9b9b646d",
          "blockHash": "0x2dbfb665d065154326635db3bf0e1e2ec85e8e56b85a33059b65fb71fa41e551",
          "blockNumber": "0x1347cab",
          "transactionHash": "0x18933cf0db6dae6626cf3a60ef8fa25310c7c0e568cb9fd2bcd190f434bac060",
          "transactionIndex": "0x0",
          "logIndex": "0x1b",
          "removed": false
        },
        {
          "address": "0x1a44076050125825900e736c501f859c50fe728c",
          "topics": [
            "0x1ab700d4ced0c005b164c0f789fd09fcbb0156d4c2041b8a3bfbcd961cd1567f"
          ],
          "data": "0x000000000000000000000000000000000000000000000000000000000000006000000000000000000000000000000000000000000000000000000000000001200000000000000000000000009bbeb2b2184b9313cf5ed4a4ddfea2ef62a2a03b00000000000000000000000000000000000000000000000000000000000000990100000000000000010000760600000000000000000000000093cdc5d29293cb6983f059fec6e4ffeb656b6a620000762f00000000000000000000000075c38d46001b0f8108c4136216bd2694982c20fc0c1c3dd54dea9920b2a7642d0f17a93273b44cc640b925ee4becc5cc29112a2b000000000000000000000000741f0d8bde14140f62107fc60a0ee122b37d4630000000000000000a00000000000000000000000000000000000000000000000000000000000000000000000000001600030100110100000000000000000000000000030d4000000000000000000000",
          "blockHash": "0x2dbfb665d065154326635db3bf0e1e2ec85e8e56b85a33059b65fb71fa41e551",
          "blockNumber": "0x1347cab",
          "transactionHash": "0x18933cf0db6dae6626cf3a60ef8fa25310c7c0e568cb9fd2bcd190f434bac060",
          "transactionIndex": "0x0",
          "logIndex": "0x1c",
          "removed": false
        },
        {
          "address": "0x93cdc5d29293cb6983f059fec6e4ffeb656b6a62",
          "topics": [
            "0x85496b760a4b7f8d66384b9df21b381f5d1b1e79f229a47aaf4c232edc2fe59a",
            "0x0c1c3dd54dea9920b2a7642d0f17a93273b44cc640b925ee4becc5cc29112a2b",
            "0x000000000000000000000000741f0d8bde14140f62107fc60a0ee122b37d4630"
          ],
          "data": "0x000000000000000000000000000000000000000000000000000000000000762f000000000000000000000000000000000000000000000000000009184e72a000000000000000000000000000000000000000000000000000000009184e72a000",
          "blockHash": "0x2dbfb665d065154326635db3bf0e1e2ec85e8e56b85a33059b65fb71fa41e551",
          "blockNumber": "0x1347cab",
          "transactionHash": "0x18933cf0db6dae6626cf3a60ef8fa25310c7c0e568cb9fd2bcd190f434bac060",
          "transactionIndex": "0x0",
          "logIndex": "0x1d",
          "removed": false
        }
      ],
      "logsBloom": "0x00000000004000000000008000000040000000000000000000000000001000000000000000000000000000000000000000000104000800020000000000000000001002000000000000000008000000000000200000000000000000000080000000000010020000008408000000004808000200001010101000000010001000002000000000000000000200280040000000000000001000000008000000000000000006088000001000140000000000000000000000400080400440000000000000000402000010000000000080000000000000001000000000000000002020400000040000000100008000000000002200400000018000000000000000000000",
      "type": "0x2",
      "transactionHash": "0x18933cf0db6dae6626cf3a60ef8fa25310c7c0e568cb9fd2bcd190f434bac060",
      "transactionIndex": "0x0",
      "blockHash": "0x2dbfb665d065154326635db3bf0e1e2ec85e8e56b85a33059b65fb71fa41e551",
      "blockNumber": "0x1347cab",
      "gasUsed": "0x1aeaf4",
      "effectiveGasPrice": "0x1d52c",
      "from": "0x45dce8e4f2dc005a5f28206a46cb034697eeda8e",
      "to": "0x741f0d8bde14140f62107fc60a0ee122b37d4630",
      "contractAddress": null,
      "l1Fee": "0x4663f624ed"
    }
  ],
  "libraries": [],
  "pending": [],
  "returns": {},
  "timestamp": 1756332137164,
  "chain": 534352,
  "commit": "e8120d8"
}