{
  "transactions": [
    {
      "hash": "0x99164b5b512a59dd29ec0667f4e7a77e4b334e458a6f5150de09f456e522f27d",
      "transactionType": "CALL",
      "contractName": null,
      "contractAddress": "0x741f0d8bde14140f62107fc60a0ee122b37d4630",
      "function": "batchBridgeWithEthFeeFromWallet((uint32,bytes32,uint256,uint256,bytes,bytes,bytes)[],address[],address[])",
      "arguments": [
        "[(30367, 0x000000000000000000000000741f0d8bde14140f62107fc60a0ee122b37d4630, 100000000000000, 0, 0x, 0x, 0x), (30367, 0x000000000000000000000000741f0d8bde14140f62107fc60a0ee122b37d4630, 100000000000000, 0, 0x, 0x, 0x), (30367, 0x000000000000000000000000741f0d8bde14140f62107fc60a0ee122b37d4630, 100000000000000, 0, 0x, 0x, 0x), (30367, 0x000000000000000000000000741f0d8bde14140f62107fc60a0ee122b37d4630, 100000000000000, 0, 0x, 0x, 0x), (30367, 0x000000000000000000000000741f0d8bde14140f62107fc60a0ee122b37d4630, 100000000000000, 0, 0x, 0x, 0x), (30367, 0x000000000000000000000000741f0d8bde14140f62107fc60a0ee122b37d4630, 100000000000000, 0, 0x, 0x, 0x)]",
        "[0xd86fBBd0c8715d2C1f40e451e5C3514e65E7576A, 0x88Aa7854D3b2dAA5e37E7Ce73A1F39669623a361, 0x999dfAbe3b1cc2EF66eB032Eea42FeA329bBa168, 0x96A394058E2b84A89bac9667B19661Ed003cF5D4, 0x9aBFE1F8a999B0011ecD6116649AEe8D575F5604, 0x75c38D46001b0F8108c4136216bd2694982C20FC]",
        "[0x741F0d8Bde14140f62107FC60A0EE122B37D4630, 0x741F0d8Bde14140f62107FC60A0EE122B37D4630, 0x741F0d8Bde14140f62107FC60A0EE122B37D4630, 0x741F0d8Bde14140f62107FC60A0EE122B37D4630, 0x741F0d8Bde14140f62107FC60A0EE122B37D4630, 0x741F0d8Bde14140f62107FC60A0EE122B37D4630]"
      ],
      "transaction": {
        "from": "0x45dce8e4f2dc005a5f28206a46cb034697eeda8e",
        "to": "0x741f0d8bde14140f62107fc60a0ee122b37d4630",
        "gas": "0x261911",
        "value": "0xb7e3ff7315666c",
        "input": "0xb70d4241000000000000000000000000000000000000000000000000000000000000006000000000000000000000000000000000000000000000000000000000000008c000000000000000000000000000000000000000000000000000000000000009a0000000000000000000000000000000000000000000000000000000000000000600000000000000000000000000000000000000000000000000000000000000c000000000000000000000000000000000000000000000000000000000000002000000000000000000000000000000000000000000000000000000000000000340000000000000000000000000000000000000000000000000000000000000048000000000000000000000000000000000000000000000000000000000000005c00000000000000000000000000000000000000000000000000000000000000700000000000000000000000000000000000000000000000000000000000000769f000000000000000000000000741f0d8bde14140f62107fc60a0ee122b37d463000000000000000000000000000000000000000000000000000005af3107a4000000000000000000000000000000000000000000000000000000000000000000000000000000000000000000000000000000000000000000000000000000000e000000000000000000000000000000000000000000000000000000000000001000000000000000000000000000000000000000000000000000000000000000120000000000000000000000000000000000000000000000000000000000000000000000000000000000000000000000000000000000000000000000000000000000000000000000000000000000000000000000000000000000000000000000000000000000000000000000000000000000000000000000000000000000000769f000000000000000000000000741f0d8bde14140f62107fc60a0ee122b37d463000000000000000000000000000000000000000000000000000005af3107a4000000000000000000000000000000000000000000000000000000000000000000000000000000000000000000000000000000000000000000000000000000000e000000000000000000000000000000000000000000000000000000000000001000000000000000000000000000000000000000000000000000000000000000120000000000000000000000000000000000000000000000000000000000000000000000000000000000000000000000000000000000000000000000000000000000000000000000000000000000000000000000000000000000000000000000000000000000000000000000000000000000000000000000000000000000000769f000000000000000000000000741f0d8bde14140f62107fc60a0ee122b37d463000000000000000000000000000000000000000000000000000005af3107a4000000000000000000000000000000000000000000000000000000000000000000000000000000000000000000000000000000000000000000000000000000000e000000000000000000000000000000000000000000000000000000000000001000000000000000000000000000000000000000000000000000000000000000120000000000000000000000000000000000000000000000000000000000000000000000000000000000000000000000000000000000000000000000000000000000000000000000000000000000000000000000000000000000000000000000000000000000000000000000000000000000000000000000000000000000000769f000000000000000000000000741f0d8bde14140f62107fc60a0ee122b37d463000000000000000000000000000000000000000000000000000005af3107a4000000000000000000000000000000000000000000000000000000000000000000000000000000000000000000000000000000000000000000000000000000000e000000000000000000000000000000000000000000000000000000000000001000000000000000000000000000000000000000000000000000000000000000120000000000000000000000000000000000000000000000000000000000000000000000000000000000000000000000000000000000000000000000000000000000000000000000000000000000000000000000000000000000000000000000000000000000000000000000000000000000000000000000000000000000000769f000000000000000000000000741f0d8bde14140f62107fc60a0ee122b37d463000000000000000000000000000000000000000000000000000005af3107a4000000000000000000000000000000000000000000000000000000000000000000000000000000000000000000000000000000000000000000000000000000000e000000000000000000000000000000000000000000000000000000000000001000000000000000000000000000000000000000000000000000000000000000120000000000000000000000000000000000000000000000000000000000000000000000000000000000000000000000000000000000000000000000000000000000000000000000000000000000000000000000000000000000000000000000000000000000000000000000000000000000000000000000000000000000000769f000000000000000000000000741f0d8bde14140f62107fc60a0ee122b37d463000000000000000000000000000000000000000000000000000005af3107a4000000000000000000000000000000000000000000000000000000000000000000000000000000000000000000000000000000000000000000000000000000000e0000000000000000000000000000000000000000000000000000000000000010000000000000000000000000000000000000000000000000000000000000001200000000000000000000000000000000000000000000000000000000000000000000000000000000000000000000000000000000000000000000000000000000000000000000000000000000000000000000000000000000000000000000000000000000000000000000000000000000000000000000000000000000000000006000000000000000000000000d86fbbd0c8715d2c1f40e451e5c3514e65e7576a00000000000000000000000088aa7854d3b2daa5e37e7ce73a1f39669623a361000000000000000000000000999dfabe3b1cc2ef66eb032eea42fea329bba16800000000000000000000000096a394058e2b84a89bac9667b19661ed003cf5d40000000000000000000000009abfe1f8a999b0011ecd6116649aee8d575f560400000000000000000000000075c38d46001b0f8108c4136216bd2694982c20fc0000000000000000000000000000000000000000000000000000000000000006000000000000000000000000741f0d8bde14140f62107fc60a0ee122b37d4630000000000000000000000000741f0d8bde14140f62107fc60a0ee122b37d4630000000000000000000000000741f0d8bde14140f62107fc60a0ee122b37d4630000000000000000000000000741f0d8bde14140f62107fc60a0ee122b37d4630000000000000000000000000741f0d8bde14140f62107fc60a0ee122b37d4630000000000000000000000000741f0d8bde14140f62107fc60a0ee122b37d4630",
        "nonce": "0xda",
        "chainId": "0xfc"
      },
      "additionalContracts": [],
      "isFixedGasLimit": false
    }
  ],
  "receipts": [
    {
      "status": "0x1",
      "cumulativeGasUsed": "0x1c51e3",
      "logs": [
        {
          "address": "0xfc00000000000000000000000000000000000002",
          "topics": [
            "0xddf252ad1be2c89b69c2b068fc378daa952ba7f163c4a11628f55a4df523b3ef",
            "0x000000000000000000000000741f0d8bde14140f62107fc60a0ee122b37d4630",
            "0x000000000000000000000000d86fbbd0c8715d2c1f40e451e5c3514e65e7576a"
          ],
          "data": "0x00000000000000000000000000000000000000000000000000005af3107a4000",
          "blockHash": "0x64c8ef13a0de1f645cc6da65e1ff642016c3a19adc52a44aa0c66ef20264b706",
          "blockNumber": "0x1893cac",
          "transactionHash": "0x99164b5b512a59dd29ec0667f4e7a77e4b334e458a6f5150de09f456e522f27d",
          "transactionIndex": "0x1",
          "logIndex": "0x0",
          "removed": false
        },
        {
          "address": "0x377530cda84dfb2673bf4d145dcf0c4d7fdcb5b6",
          "topics": [
            "0x61ed099e74a97a1d7f8bb0952a88ca8b7b8ebd00c126ea04671f92a81213318a"
          ],
          "data": "0x00000000000000000000000041bdb4aa4a63a5b2efc531858d3118392b1a1c3d000000000000000000000000000000000000000000000000001bf84f0ed12162",
          "blockHash": "0x64c8ef13a0de1f645cc6da65e1ff642016c3a19adc52a44aa0c66ef20264b706",
          "blockNumber": "0x1893cac",
          "transactionHash": "0x99164b5b512a59dd29ec0667f4e7a77e4b334e458a6f5150de09f456e522f27d",
          "transactionIndex": "0x1",
          "logIndex": "0x1",
          "removed": false
        },
        {
          "address": "0x377530cda84dfb2673bf4d145dcf0c4d7fdcb5b6",
          "topics": [
            "0x07ea52d82345d6e838192107d8fd7123d9c2ec8e916cd0aad13fd2b60db24644"
          ],
          "data": "0x000000000000000000000000000000000000000000000000000000000000006000000000000000000000000000000000000000000000000000000000000000e00000000000000000000000000000000000000000000000000000000000000100000000000000000000000000000000000000000000000000000000000000000300000000000000000000000026cd5abadf7ec3f0f02b48314bfca6b2342cddd4000000000000000000000000cce466a522984415bc91338c232d98869193d46e000000000000000000000000dd7b5e1db4aafd5c8ec3b764efb8ed265aa5445b000000000000000000000000000000000000000000000000000000000000000000000000000000000000000000000000000000000000000000000000000000030000000000000000000000000000000000000000000000000000eae173dcd2d40000000000000000000000000000000000000000000000000000e167b2eace6e0000000000000000000000000000000000000000000000000000e167b2eace6e",
          "blockHash": "0x64c8ef13a0de1f645cc6da65e1ff642016c3a19adc52a44aa0c66ef20264b706",
          "blockNumber": "0x1893cac",
          "transactionHash": "0x99164b5b512a59dd29ec0667f4e7a77e4b334e458a6f5150de09f456e522f27d",
          "transactionIndex": "0x1",
          "logIndex": "0x2",
          "removed": false
        },
        {
          "address": "0x1a44076050125825900e736c501f859c50fe728c",
          "topics": [
            "0x1ab700d4ced0c005b164c0f789fd09fcbb0156d4c2041b8a3bfbcd961cd1567f"
          ],
          "data": "0x00000000000000000000000000000000000000000000000000000000000000600000000000000000000000000000000000000000000000000000000000000120000000000000000000000000377530cda84dfb2673bf4d145dcf0c4d7fdcb5b600000000000000000000000000000000000000000000000000000000000000990100000000000000010000762f000000000000000000000000d86fbbd0c8715d2c1f40e451e5c3514e65e7576a0000769f00000000000000000000000064445f0aecc51e94ad52d8ac56b7190e764e561a9e5dcd8cdbc6d4763a1151821da0103bd70f0c1c1a7a073f8c8f48a374982e75000000000000000000000000741f0d8bde14140f62107fc60a0ee122b37d4630000000000000006400000000000000000000000000000000000000000000000000000000000000000000000000001600030100110100000000000000000000000000030d4000000000000000000000",
          "blockHash": "0x64c8ef13a0de1f645cc6da65e1ff642016c3a19adc52a44aa0c66ef20264b706",
          "blockNumber": "0x1893cac",
          "transactionHash": "0x99164b5b512a59dd29ec0667f4e7a77e4b334e458a6f5150de09f456e522f27d",
          "transactionIndex": "0x1",
          "logIndex": "0x3",
          "removed": false
        },
        {
          "address": "0xd86fbbd0c8715d2c1f40e451e5c3514e65e7576a",
          "topics": [
            "0x85496b760a4b7f8d66384b9df21b381f5d1b1e79f229a47aaf4c232edc2fe59a",
            "0x9e5dcd8cdbc6d4763a1151821da0103bd70f0c1c1a7a073f8c8f48a374982e75",
            "0x000000000000000000000000741f0d8bde14140f62107fc60a0ee122b37d4630"
          ],
          "data": "0x000000000000000000000000000000000000000000000000000000000000769f00000000000000000000000000000000000000000000000000005af3107a400000000000000000000000000000000000000000000000000000005af3107a4000",
          "blockHash": "0x64c8ef13a0de1f645cc6da65e1ff642016c3a19adc52a44aa0c66ef20264b706",
          "blockNumber": "0x1893cac",
          "transactionHash": "0x99164b5b512a59dd29ec0667f4e7a77e4b334e458a6f5150de09f456e522f27d",
          "transactionIndex": "0x1",
          "logIndex": "0x4",
          "removed": false
        },
        {
          "address": "0xfc00000000000000000000000000000000000008",
          "topics": [
            "0xddf252ad1be2c89b69c2b068fc378daa952ba7f163c4a11628f55a4df523b3ef",
            "0x000000000000000000000000741f0d8bde14140f62107fc60a0ee122b37d4630",
            "0x00000000000000000000000088aa7854d3b2daa5e37e7ce73a1f39669623a361"
          ],
          "data": "0x00000000000000000000000000000000000000000000000000005af3107a4000",
          "blockHash": "0x64c8ef13a0de1f645cc6da65e1ff642016c3a19adc52a44aa0c66ef20264b706",
          "blockNumber": "0x1893cac",
          "transactionHash": "0x99164b5b512a59dd29ec0667f4e7a77e4b334e458a6f5150de09f456e522f27d",
          "transactionIndex": "0x1",
          "logIndex": "0x5",
          "removed": false
        },
        {
          "address": "0x377530cda84dfb2673bf4d145dcf0c4d7fdcb5b6",
          "topics": [
            "0x61ed099e74a97a1d7f8bb0952a88ca8b7b8ebd00c126ea04671f92a81213318a"
          ],
          "data": "0x00000000000000000000000041bdb4aa4a63a5b2efc531858d3118392b1a1c3d000000000000000000000000000000000000000000000000001bf84f0ed12162",
          "blockHash": "0x64c8ef13a0de1f645cc6da65e1ff642016c3a19adc52a44aa0c66ef20264b706",
          "blockNumber": "0x1893cac",
          "transactionHash": "0x99164b5b512a59dd29ec0667f4e7a77e4b334e458a6f5150de09f456e522f27d",
          "transactionIndex": "0x1",
          "logIndex": "0x6",
          "removed": false
        },
        {
          "address": "0x377530cda84dfb2673bf4d145dcf0c4d7fdcb5b6",
          "topics": [
            "0x07ea52d82345d6e838192107d8fd7123d9c2ec8e916cd0aad13fd2b60db24644"
          ],
          "data": "0x000000000000000000000000000000000000000000000000000000000000006000000000000000000000000000000000000000000000000000000000000000e00000000000000000000000000000000000000000000000000000000000000100000000000000000000000000000000000000000000000000000000000000000300000000000000000000000026cd5abadf7ec3f0f02b48314bfca6b2342cddd4000000000000000000000000cce466a522984415bc91338c232d98869193d46e000000000000000000000000dd7b5e1db4aafd5c8ec3b764efb8ed265aa5445b000000000000000000000000000000000000000000000000000000000000000000000000000000000000000000000000000000000000000000000000000000030000000000000000000000000000000000000000000000000000eae173dcd2d40000000000000000000000000000000000000000000000000000e167b2eace6e0000000000000000000000000000000000000000000000000000e167b2eace6e",
          "blockHash": "0x64c8ef13a0de1f645cc6da65e1ff642016c3a19adc52a44aa0c66ef20264b706",
          "blockNumber": "0x1893cac",
          "transactionHash": "0x99164b5b512a59dd29ec0667f4e7a77e4b334e458a6f5150de09f456e522f27d",
          "transactionIndex": "0x1",
          "logIndex": "0x7",
          "removed": false
        },
        {
          "address": "0x1a44076050125825900e736c501f859c50fe728c",
          "topics": [
            "0x1ab700d4ced0c005b164c0f789fd09fcbb0156d4c2041b8a3bfbcd961cd1567f"
          ],
          "data": "0x00000000000000000000000000000000000000000000000000000000000000600000000000000000000000000000000000000000000000000000000000000120000000000000000000000000377530cda84dfb2673bf4d145dcf0c4d7fdcb5b600000000000000000000000000000000000000000000000000000000000000990100000000000000010000762f00000000000000000000000088aa7854d3b2daa5e37e7ce73a1f39669623a3610000769f0000000000000000000000005bff88ca1442c2496f7e475e9e7786383bc070c071cb9cff86f59dcaea526937621b7c171e2c7f664a872a40d278ce4e37de377e000000000000000000000000741f0d8bde14140f62107fc60a0ee122b37d4630000000000000006400000000000000000000000000000000000000000000000000000000000000000000000000001600030100110100000000000000000000000000030d4000000000000000000000",
          "blockHash": "0x64c8ef13a0de1f645cc6da65e1ff642016c3a19adc52a44aa0c66ef20264b706",
          "blockNumber": "0x1893cac",
          "transactionHash": "0x99164b5b512a59dd29ec0667f4e7a77e4b334e458a6f5150de09f456e522f27d",
          "transactionIndex": "0x1",
          "logIndex": "0x8",
          "removed": false
        },
        {
          "address": "0x88aa7854d3b2daa5e37e7ce73a1f39669623a361",
          "topics": [
            "0x85496b760a4b7f8d66384b9df21b381f5d1b1e79f229a47aaf4c232edc2fe59a",
            "0x71cb9cff86f59dcaea526937621b7c171e2c7f664a872a40d278ce4e37de377e",
            "0x000000000000000000000000741f0d8bde14140f62107fc60a0ee122b37d4630"
          ],
          "data": "0x000000000000000000000000000000000000000000000000000000000000769f00000000000000000000000000000000000000000000000000005af3107a400000000000000000000000000000000000000000000000000000005af3107a4000",
          "blockHash": "0x64c8ef13a0de1f645cc6da65e1ff642016c3a19adc52a44aa0c66ef20264b706",
          "blockNumber": "0x1893cac",
          "transactionHash": "0x99164b5b512a59dd29ec0667f4e7a77e4b334e458a6f5150de09f456e522f27d",
          "transactionIndex": "0x1",
          "logIndex": "0x9",
          "removed": false
        },
        {
          "address": "0xfc00000000000000000000000000000000000005",
          "topics": [
            "0xddf252ad1be2c89b69c2b068fc378daa952ba7f163c4a11628f55a4df523b3ef",
            "0x000000000000000000000000741f0d8bde14140f62107fc60a0ee122b37d4630",
            "0x000000000000000000000000999dfabe3b1cc2ef66eb032eea42fea329bba168"
          ],
          "data": "0x00000000000000000000000000000000000000000000000000005af3107a4000",
          "blockHash": "0x64c8ef13a0de1f645cc6da65e1ff642016c3a19adc52a44aa0c66ef20264b706",
          "blockNumber": "0x1893cac",
          "transactionHash": "0x99164b5b512a59dd29ec0667f4e7a77e4b334e458a6f5150de09f456e522f27d",
          "transactionIndex": "0x1",
          "logIndex": "0xa",
          "removed": false
        },
        {
          "address": "0x377530cda84dfb2673bf4d145dcf0c4d7fdcb5b6",
          "topics": [
            "0x61ed099e74a97a1d7f8bb0952a88ca8b7b8ebd00c126ea04671f92a81213318a"
          ],
          "data": "0x00000000000000000000000041bdb4aa4a63a5b2efc531858d3118392b1a1c3d000000000000000000000000000000000000000000000000001bf84f0ed12162",
          "blockHash": "0x64c8ef13a0de1f645cc6da65e1ff642016c3a19adc52a44aa0c66ef20264b706",
          "blockNumber": "0x1893cac",
          "transactionHash": "0x99164b5b512a59dd29ec0667f4e7a77e4b334e458a6f5150de09f456e522f27d",
          "transactionIndex": "0x1",
          "logIndex": "0xb",
          "removed": false
        },
        {
          "address": "0x377530cda84dfb2673bf4d145dcf0c4d7fdcb5b6",
          "topics": [
            "0x07ea52d82345d6e838192107d8fd7123d9c2ec8e916cd0aad13fd2b60db24644"
          ],
          "data": "0x000000000000000000000000000000000000000000000000000000000000006000000000000000000000000000000000000000000000000000000000000000e00000000000000000000000000000000000000000000000000000000000000100000000000000000000000000000000000000000000000000000000000000000300000000000000000000000026cd5abadf7ec3f0f02b48314bfca6b2342cddd4000000000000000000000000cce466a522984415bc91338c232d98869193d46e000000000000000000000000dd7b5e1db4aafd5c8ec3b764efb8ed265aa5445b000000000000000000000000000000000000000000000000000000000000000000000000000000000000000000000000000000000000000000000000000000030000000000000000000000000000000000000000000000000000eae173dcd2d40000000000000000000000000000000000000000000000000000e167b2eace6e0000000000000000000000000000000000000000000000000000e167b2eace6e",
          "blockHash": "0x64c8ef13a0de1f645cc6da65e1ff642016c3a19adc52a44aa0c66ef20264b706",
          "blockNumber": "0x1893cac",
          "transactionHash": "0x99164b5b512a59dd29ec0667f4e7a77e4b334e458a6f5150de09f456e522f27d",
          "transactionIndex": "0x1",
          "logIndex": "0xc",
          "removed": false
        },
        {
          "address": "0x1a44076050125825900e736c501f859c50fe728c",
          "topics": [
            "0x1ab700d4ced0c005b164c0f789fd09fcbb0156d4c2041b8a3bfbcd961cd1567f"
          ],
          "data": "0x00000000000000000000000000000000000000000000000000000000000000600000000000000000000000000000000000000000000000000000000000000120000000000000000000000000377530cda84dfb2673bf4d145dcf0c4d7fdcb5b600000000000000000000000000000000000000000000000000000000000000990100000000000000010000762f000000000000000000000000999dfabe3b1cc2ef66eb032eea42fea329bba1680000769f0000000000000000000000003ec3849c33291a9ef4c5db86de593eb4a37fde45dd1a3015ece900159632c4e58e7907dd5cc6353819d7b3119b293204303661c7000000000000000000000000741f0d8bde14140f62107fc60a0ee122b37d4630000000000000006400000000000000000000000000000000000000000000000000000000000000000000000000001600030100110100000000000000000000000000030d4000000000000000000000",
          "blockHash": "0x64c8ef13a0de1f645cc6da65e1ff642016c3a19adc52a44aa0c66ef20264b706",
          "blockNumber": "0x1893cac",
          "transactionHash": "0x99164b5b512a59dd29ec0667f4e7a77e4b334e458a6f5150de09f456e522f27d",
          "transactionIndex": "0x1",
          "logIndex": "0xd",
          "removed": false
        },
        {
          "address": "0x999dfabe3b1cc2ef66eb032eea42fea329bba168",
          "topics": [
            "0x85496b760a4b7f8d66384b9df21b381f5d1b1e79f229a47aaf4c232edc2fe59a",
            "0xdd1a3015ece900159632c4e58e7907dd5cc6353819d7b3119b293204303661c7",
            "0x000000000000000000000000741f0d8bde14140f62107fc60a0ee122b37d4630"
          ],
          "data": "0x000000000000000000000000000000000000000000000000000000000000769f00000000000000000000000000000000000000000000000000005af3107a400000000000000000000000000000000000000000000000000000005af3107a4000",
          "blockHash": "0x64c8ef13a0de1f645cc6da65e1ff642016c3a19adc52a44aa0c66ef20264b706",
          "blockNumber": "0x1893cac",
          "transactionHash": "0x99164b5b512a59dd29ec0667f4e7a77e4b334e458a6f5150de09f456e522f27d",
          "transactionIndex": "0x1",
          "logIndex": "0xe",
          "removed": false
        },
        {
          "address": "0xfc00000000000000000000000000000000000001",
          "topics": [
            "0xddf252ad1be2c89b69c2b068fc378daa952ba7f163c4a11628f55a4df523b3ef",
            "0x000000000000000000000000741f0d8bde14140f62107fc60a0ee122b37d4630",
            "0x00000000000000000000000096a394058e2b84a89bac9667b19661ed003cf5d4"
          ],
          "data": "0x00000000000000000000000000000000000000000000000000005af3107a4000",
          "blockHash": "0x64c8ef13a0de1f645cc6da65e1ff642016c3a19adc52a44aa0c66ef20264b706",
          "blockNumber": "0x1893cac",
          "transactionHash": "0x99164b5b512a59dd29ec0667f4e7a77e4b334e458a6f5150de09f456e522f27d",
          "transactionIndex": "0x1",
          "logIndex": "0xf",
          "removed": false
        },
        {
          "address": "0x377530cda84dfb2673bf4d145dcf0c4d7fdcb5b6",
          "topics": [
            "0x61ed099e74a97a1d7f8bb0952a88ca8b7b8ebd00c126ea04671f92a81213318a"
          ],
          "data": "0x00000000000000000000000041bdb4aa4a63a5b2efc531858d3118392b1a1c3d000000000000000000000000000000000000000000000000001bf84f0ed12162",
          "blockHash": "0x64c8ef13a0de1f645cc6da65e1ff642016c3a19adc52a44aa0c66ef20264b706",
          "blockNumber": "0x1893cac",
          "transactionHash": "0x99164b5b512a59dd29ec0667f4e7a77e4b334e458a6f5150de09f456e522f27d",
          "transactionIndex": "0x1",
          "logIndex": "0x10",
          "removed": false
        },
        {
          "address": "0x377530cda84dfb2673bf4d145dcf0c4d7fdcb5b6",
          "topics": [
            "0x07ea52d82345d6e838192107d8fd7123d9c2ec8e916cd0aad13fd2b60db24644"
          ],
          "data": "0x000000000000000000000000000000000000000000000000000000000000006000000000000000000000000000000000000000000000000000000000000000e00000000000000000000000000000000000000000000000000000000000000100000000000000000000000000000000000000000000000000000000000000000300000000000000000000000026cd5abadf7ec3f0f02b48314bfca6b2342cddd4000000000000000000000000cce466a522984415bc91338c232d98869193d46e000000000000000000000000dd7b5e1db4aafd5c8ec3b764efb8ed265aa5445b000000000000000000000000000000000000000000000000000000000000000000000000000000000000000000000000000000000000000000000000000000030000000000000000000000000000000000000000000000000000eae173dcd2d40000000000000000000000000000000000000000000000000000e167b2eace6e0000000000000000000000000000000000000000000000000000e167b2eace6e",
          "blockHash": "0x64c8ef13a0de1f645cc6da65e1ff642016c3a19adc52a44aa0c66ef20264b706",
          "blockNumber": "0x1893cac",
          "transactionHash": "0x99164b5b512a59dd29ec0667f4e7a77e4b334e458a6f5150de09f456e522f27d",
          "transactionIndex": "0x1",
          "logIndex": "0x11",
          "removed": false
        },
        {
          "address": "0x1a44076050125825900e736c501f859c50fe728c",
          "topics": [
            "0x1ab700d4ced0c005b164c0f789fd09fcbb0156d4c2041b8a3bfbcd961cd1567f"
          ],
          "data": "0x00000000000000000000000000000000000000000000000000000000000000600000000000000000000000000000000000000000000000000000000000000120000000000000000000000000377530cda84dfb2673bf4d145dcf0c4d7fdcb5b600000000000000000000000000000000000000000000000000000000000000990100000000000000010000762f00000000000000000000000096a394058e2b84a89bac9667b19661ed003cf5d40000769f00000000000000000000000080eede496655fb9047dd39d9f418d5483ed600dff409ad5372d4e6598e34f9da8490c860a936d32e16d8e0bf98f06e12dac7e642000000000000000000000000741f0d8bde14140f62107fc60a0ee122b37d4630000000000000006400000000000000000000000000000000000000000000000000000000000000000000000000001600030100110100000000000000000000000000030d4000000000000000000000",
          "blockHash": "0x64c8ef13a0de1f645cc6da65e1ff642016c3a19adc52a44aa0c66ef20264b706",
          "blockNumber": "0x1893cac",
          "transactionHash": "0x99164b5b512a59dd29ec0667f4e7a77e4b334e458a6f5150de09f456e522f27d",
          "transactionIndex": "0x1",
          "logIndex": "0x12",
          "removed": false
        },
        {
          "address": "0x96a394058e2b84a89bac9667b19661ed003cf5d4",
          "topics": [
            "0x85496b760a4b7f8d66384b9df21b381f5d1b1e79f229a47aaf4c232edc2fe59a",
            "0xf409ad5372d4e6598e34f9da8490c860a936d32e16d8e0bf98f06e12dac7e642",
            "0x000000000000000000000000741f0d8bde14140f62107fc60a0ee122b37d4630"
          ],
          "data": "0x000000000000000000000000000000000000000000000000000000000000769f00000000000000000000000000000000000000000000000000005af3107a400000000000000000000000000000000000000000000000000000005af3107a4000",
          "blockHash": "0x64c8ef13a0de1f645cc6da65e1ff642016c3a19adc52a44aa0c66ef20264b706",
          "blockNumber": "0x1893cac",
          "transactionHash": "0x99164b5b512a59dd29ec0667f4e7a77e4b334e458a6f5150de09f456e522f27d",
          "transactionIndex": "0x1",
          "logIndex": "0x13",
          "removed": false
        },
        {
          "address": "0xfc00000000000000000000000000000000000006",
          "topics": [
            "0xddf252ad1be2c89b69c2b068fc378daa952ba7f163c4a11628f55a4df523b3ef",
            "0x000000000000000000000000741f0d8bde14140f62107fc60a0ee122b37d4630",
            "0x0000000000000000000000009abfe1f8a999b0011ecd6116649aee8d575f5604"
          ],
          "data": "0x00000000000000000000000000000000000000000000000000005af3107a4000",
          "blockHash": "0x64c8ef13a0de1f645cc6da65e1ff642016c3a19adc52a44aa0c66ef20264b706",
          "blockNumber": "0x1893cac",
          "transactionHash": "0x99164b5b512a59dd29ec0667f4e7a77e4b334e458a6f5150de09f456e522f27d",
          "transactionIndex": "0x1",
          "logIndex": "0x14",
          "removed": false
        },
        {
          "address": "0x377530cda84dfb2673bf4d145dcf0c4d7fdcb5b6",
          "topics": [
            "0x61ed099e74a97a1d7f8bb0952a88ca8b7b8ebd00c126ea04671f92a81213318a"
          ],
          "data": "0x00000000000000000000000041bdb4aa4a63a5b2efc531858d3118392b1a1c3d000000000000000000000000000000000000000000000000001bf84f0ed12162",
          "blockHash": "0x64c8ef13a0de1f645cc6da65e1ff642016c3a19adc52a44aa0c66ef20264b706",
          "blockNumber": "0x1893cac",
          "transactionHash": "0x99164b5b512a59dd29ec0667f4e7a77e4b334e458a6f5150de09f456e522f27d",
          "transactionIndex": "0x1",
          "logIndex": "0x15",
          "removed": false
        },
        {
          "address": "0x377530cda84dfb2673bf4d145dcf0c4d7fdcb5b6",
          "topics": [
            "0x07ea52d82345d6e838192107d8fd7123d9c2ec8e916cd0aad13fd2b60db24644"
          ],
          "data": "0x000000000000000000000000000000000000000000000000000000000000006000000000000000000000000000000000000000000000000000000000000000e00000000000000000000000000000000000000000000000000000000000000100000000000000000000000000000000000000000000000000000000000000000300000000000000000000000026cd5abadf7ec3f0f02b48314bfca6b2342cddd4000000000000000000000000cce466a522984415bc91338c232d98869193d46e000000000000000000000000dd7b5e1db4aafd5c8ec3b764efb8ed265aa5445b000000000000000000000000000000000000000000000000000000000000000000000000000000000000000000000000000000000000000000000000000000030000000000000000000000000000000000000000000000000000eae173dcd2d40000000000000000000000000000000000000000000000000000e167b2eace6e0000000000000000000000000000000000000000000000000000e167b2eace6e",
          "blockHash": "0x64c8ef13a0de1f645cc6da65e1ff642016c3a19adc52a44aa0c66ef20264b706",
          "blockNumber": "0x1893cac",
          "transactionHash": "0x99164b5b512a59dd29ec0667f4e7a77e4b334e458a6f5150de09f456e522f27d",
          "transactionIndex": "0x1",
          "logIndex": "0x16",
          "removed": false
        },
        {
          "address": "0x1a44076050125825900e736c501f859c50fe728c",
          "topics": [
            "0x1ab700d4ced0c005b164c0f789fd09fcbb0156d4c2041b8a3bfbcd961cd1567f"
          ],
          "data": "0x00000000000000000000000000000000000000000000000000000000000000600000000000000000000000000000000000000000000000000000000000000120000000000000000000000000377530cda84dfb2673bf4d145dcf0c4d7fdcb5b600000000000000000000000000000000000000000000000000000000000000990100000000000000010000762f0000000000000000000000009abfe1f8a999b0011ecd6116649aee8d575f56040000769f00000000000000000000000043edd7f3831b08fe70b7555ddd373c8bf65a90503ee8082af1ab0cb89f991061f89e8f8a18622e1ee261cdf019004fe0041cf6b0000000000000000000000000741f0d8bde14140f62107fc60a0ee122b37d4630000000000000006400000000000000000000000000000000000000000000000000000000000000000000000000001600030100110100000000000000000000000000030d4000000000000000000000",
          "blockHash": "0x64c8ef13a0de1f645cc6da65e1ff642016c3a19adc52a44aa0c66ef20264b706",
          "blockNumber": "0x1893cac",
          "transactionHash": "0x99164b5b512a59dd29ec0667f4e7a77e4b334e458a6f5150de09f456e522f27d",
          "transactionIndex": "0x1",
          "logIndex": "0x17",
          "removed": false
        },
        {
          "address": "0x9abfe1f8a999b0011ecd6116649aee8d575f5604",
          "topics": [
            "0x85496b760a4b7f8d66384b9df21b381f5d1b1e79f229a47aaf4c232edc2fe59a",
            "0x3ee8082af1ab0cb89f991061f89e8f8a18622e1ee261cdf019004fe0041cf6b0",
            "0x000000000000000000000000741f0d8bde14140f62107fc60a0ee122b37d4630"
          ],
          "data": "0x000000000000000000000000000000000000000000000000000000000000769f00000000000000000000000000000000000000000000000000005af3107a400000000000000000000000000000000000000000000000000000005af3107a4000",
          "blockHash": "0x64c8ef13a0de1f645cc6da65e1ff642016c3a19adc52a44aa0c66ef20264b706",
          "blockNumber": "0x1893cac",
          "transactionHash": "0x99164b5b512a59dd29ec0667f4e7a77e4b334e458a6f5150de09f456e522f27d",
          "transactionIndex": "0x1",
          "logIndex": "0x18",
          "removed": false
        },
        {
          "address": "0xfc00000000000000000000000000000000000003",
          "topics": [
            "0xddf252ad1be2c89b69c2b068fc378daa952ba7f163c4a11628f55a4df523b3ef",
            "0x000000000000000000000000741f0d8bde14140f62107fc60a0ee122b37d4630",
            "0x00000000000000000000000075c38d46001b0f8108c4136216bd2694982c20fc"
          ],
          "data": "0x00000000000000000000000000000000000000000000000000005af3107a4000",
          "blockHash": "0x64c8ef13a0de1f645cc6da65e1ff642016c3a19adc52a44aa0c66ef20264b706",
          "blockNumber": "0x1893cac",
          "transactionHash": "0x99164b5b512a59dd29ec0667f4e7a77e4b334e458a6f5150de09f456e522f27d",
          "transactionIndex": "0x1",
          "logIndex": "0x19",
          "removed": false
        },
        {
          "address": "0x377530cda84dfb2673bf4d145dcf0c4d7fdcb5b6",
          "topics": [
            "0x61ed099e74a97a1d7f8bb0952a88ca8b7b8ebd00c126ea04671f92a81213318a"
          ],
          "data": "0x00000000000000000000000041bdb4aa4a63a5b2efc531858d3118392b1a1c3d000000000000000000000000000000000000000000000000001bf84f0ed12162",
          "blockHash": "0x64c8ef13a0de1f645cc6da65e1ff642016c3a19adc52a44aa0c66ef20264b706",
          "blockNumber": "0x1893cac",
          "transactionHash": "0x99164b5b512a59dd29ec0667f4e7a77e4b334e458a6f5150de09f456e522f27d",
          "transactionIndex": "0x1",
          "logIndex": "0x1a",
          "removed": false
        },
        {
          "address": "0x377530cda84dfb2673bf4d145dcf0c4d7fdcb5b6",
          "topics": [
            "0x07ea52d82345d6e838192107d8fd7123d9c2ec8e916cd0aad13fd2b60db24644"
          ],
          "data": "0x000000000000000000000000000000000000000000000000000000000000006000000000000000000000000000000000000000000000000000000000000000e00000000000000000000000000000000000000000000000000000000000000100000000000000000000000000000000000000000000000000000000000000000300000000000000000000000026cd5abadf7ec3f0f02b48314bfca6b2342cddd4000000000000000000000000cce466a522984415bc91338c232d98869193d46e000000000000000000000000dd7b5e1db4aafd5c8ec3b764efb8ed265aa5445b000000000000000000000000000000000000000000000000000000000000000000000000000000000000000000000000000000000000000000000000000000030000000000000000000000000000000000000000000000000000eae173dcd2d40000000000000000000000000000000000000000000000000000e167b2eace6e0000000000000000000000000000000000000000000000000000e167b2eace6e",
          "blockHash": "0x64c8ef13a0de1f645cc6da65e1ff642016c3a19adc52a44aa0c66ef20264b706",
          "blockNumber": "0x1893cac",
          "transactionHash": "0x99164b5b512a59dd29ec0667f4e7a77e4b334e458a6f5150de09f456e522f27d",
          "transactionIndex": "0x1",
          "logIndex": "0x1b",
          "removed": false
        },
        {
          "address": "0x1a44076050125825900e736c501f859c50fe728c",
          "topics": [
            "0x1ab700d4ced0c005b164c0f789fd09fcbb0156d4c2041b8a3bfbcd961cd1567f"
          ],
          "data": "0x00000000000000000000000000000000000000000000000000000000000000600000000000000000000000000000000000000000000000000000000000000120000000000000000000000000377530cda84dfb2673bf4d145dcf0c4d7fdcb5b600000000000000000000000000000000000000000000000000000000000000990100000000000000010000762f00000000000000000000000075c38d46001b0f8108c4136216bd2694982c20fc0000769f00000000000000000000000090581eca9469d8d7f5d3b60f4715027adfcf792773d4574b15b4d4687c259c81f7106aa4c7b0dece75c32b0ac0ab00ebdf7becd9000000000000000000000000741f0d8bde14140f62107fc60a0ee122b37d4630000000000000006400000000000000000000000000000000000000000000000000000000000000000000000000001600030100110100000000000000000000000000030d4000000000000000000000",
          "blockHash": "0x64c8ef13a0de1f645cc6da65e1ff642016c3a19adc52a44aa0c66ef20264b706",
          "blockNumber": "0x1893cac",
          "transactionHash": "0x99164b5b512a59dd29ec0667f4e7a77e4b334e458a6f5150de09f456e522f27d",
          "transactionIndex": "0x1",
          "logIndex": "0x1c",
          "removed": false
        },
        {
          "address": "0x75c38d46001b0f8108c4136216bd2694982c20fc",
          "topics": [
            "0x85496b760a4b7f8d66384b9df21b381f5d1b1e79f229a47aaf4c232edc2fe59a",
            "0x73d4574b15b4d4687c259c81f7106aa4c7b0dece75c32b0ac0ab00ebdf7becd9",
            "0x000000000000000000000000741f0d8bde14140f62107fc60a0ee122b37d4630"
          ],
          "data": "0x000000000000000000000000000000000000000000000000000000000000769f00000000000000000000000000000000000000000000000000005af3107a400000000000000000000000000000000000000000000000000000005af3107a4000",
          "blockHash": "0x64c8ef13a0de1f645cc6da65e1ff642016c3a19adc52a44aa0c66ef20264b706",
          "blockNumber": "0x1893cac",
          "transactionHash": "0x99164b5b512a59dd29ec0667f4e7a77e4b334e458a6f5150de09f456e522f27d",
          "transactionIndex": "0x1",
          "logIndex": "0x1d",
          "removed": false
        }
      ],
      "logsBloom": "0x04004000000000200000040000000140100000000040000028042000005000000200000001100000000000000080400000040100000080080000080000000000000002204000000000000008400000000000000000000000090800001000000000000000000400008000100000a80000000000040010000008000510008100000000000000000000050000080080002000004008000000248000000000100000000100008014001000100100000000000000000400400000100440040000000000000002000000000a400000800000000000100000000000000000000008000028010c0000000000000000000121002000000000018000400000000000000000",
      "type": "0x2",
      "transactionHash": "0x99164b5b512a59dd29ec0667f4e7a77e4b334e458a6f5150de09f456e522f27d",
      "transactionIndex": "0x1",
      "blockHash": "0x64c8ef13a0de1f645cc6da65e1ff642016c3a19adc52a44aa0c66ef20264b706",
      "blockNumber": "0x1893cac",
      "gasUsed": "0x1b950c",
      "effectiveGasPrice": "0x695",
      "from": "0x45dce8e4f2dc005a5f28206a46cb034697eeda8e",
      "to": "0x741f0d8bde14140f62107fc60a0ee122b37d4630",
      "contractAddress": null,
      "l1BaseFeeScalar": "0x2faf080",
      "l1BlobBaseFee": "0x1",
      "l1BlobBaseFeeScalar": "0x0",
      "l1Fee": "0x2807bf5fee4d",
      "l1GasPrice": "0xa6c7452",
      "l1GasUsed": "0x13a9"
    }
  ],
  "libraries": [],
  "pending": [],
  "returns": {},
  "timestamp": 1758353072768,
  "chain": 252,
  "commit": "c4e631b"
}