{
  "transactions": [
    {
      "hash": "0x9dcba83e9191ae0f75396780e57e83fce53b85c2c45e32e55682695c05deeb5b",
      "transactionType": "CALL",
      "contractName": null,
      "contractAddress": "0x3fc877008e396fdd7f9ee3deb2e8a54d54da705a",
      "function": "setEnforcedOptions((uint32,uint16,bytes)[])",
      "arguments": [
        "[(30260, 1, 0x00030100110100000000000000000000000000030d40), (30260, 2, 0x0003010011010000000000000000000000000003d090), (30280, 1, 0x00030100110100000000000000000000000000030d40), (30280, 2, 0x0003010011010000000000000000000000000003d090), (30255, 1, 0x00030100110100000000000000000000000000030d40), (30255, 2, 0x0003010011010000000000000000000000000003d090), (30274, 1, 0x00030100110100000000000000000000000000030d40), (30274, 2, 0x0003010011010000000000000000000000000003d090), (30332, 1, 0x00030100110100000000000000000000000000030d40), (30332, 2, 0x0003010011010000000000000000000000000003d090), (30339, 1, 0x00030100110100000000000000000000000000030d40), (30339, 2, 0x0003010011010000000000000000000000000003d090), (30110, 1, 0x00030100110100000000000000000000000000030d40), (30110, 2, 0x0003010011010000000000000000000000000003d090), (30111, 1, 0x00030100110100000000000000000000000000030d40), (30111, 2, 0x0003010011010000000000000000000000000003d090), (30109, 1, 0x00030100110100000000000000000000000000030d40), (30109, 2, 0x0003010011010000000000000000000000000003d090), (30106, 1, 0x00030100110100000000000000000000000000030d40), (30106, 2, 0x0003010011010000000000000000000000000003d090), (30102, 1, 0x00030100110100000000000000000000000000030d40), (30102, 2, 0x0003010011010000000000000000000000000003d090), (30158, 1, 0x00030100110100000000000000000000000000030d40), (30158, 2, 0x0003010011010000000000000000000000000003d090), (30101, 1, 0x00030100110100000000000000000000000000030d40), (30101, 2, 0x0003010011010000000000000000000000000003d090), (30243, 1, 0x00030100110100000000000000000000000000030d40), (30243, 2, 0x0003010011010000000000000000000000000003d090), (30184, 1, 0x00030100110100000000000000000000000000030d40), (30184, 2, 0x0003010011010000000000000000000000000003d090), (30362, 1, 0x00030100110100000000000000000000000000030d40), (30362, 2, 0x0003010011010000000000000000000000000003d090), (30183, 1, 0x00030100110100000000000000000000000000030d40), (30183, 2, 0x0003010011010000000000000000000000000003d090), (30319, 1, 0x00030100110100000000000000000000000000030d40), (30319, 2, 0x0003010011010000000000000000000000000003d090), (30320, 1, 0x00030100110100000000000000000000000000030d40), (30320, 2, 0x0003010011010000000000000000000000000003d090), (30324, 1, 0x00030100110100000000000000000000000000030d40), (30324, 2, 0x0003010011010000000000000000000000000003d090)]"
      ],
      "transaction": {
        "from": "0x45dce8e4f2dc005a5f28206a46cb034697eeda8e",
        "to": "0x3fc877008e396fdd7f9ee3deb2e8a54d54da705a",
        "gas": "0xb4e2f",
        "value": "0x0",
        "input": "0xb98bd07000000000000000000000000000000000000000000000000000000000000000200000000000000000000000000000000000000000000000000000000000000028000000000000000000000000000000000000000000000000000000000000050000000000000000000000000000000000000000000000000000000000000005a0000000000000000000000000000000000000000000000000000000000000064000000000000000000000000000000000000000000000000000000000000006e00000000000000000000000000000000000000000000000000000000000000780000000000000000000000000000000000000000000000000000000000000082000000000000000000000000000000000000000000000000000000000000008c000000000000000000000000000000000000000000000000000000000000009600000000000000000000000000000000000000000000000000000000000000a000000000000000000000000000000000000000000000000000000000000000aa00000000000000000000000000000000000000000000000000000000000000b400000000000000000000000000000000000000000000000000000000000000be00000000000000000000000000000000000000000000000000000000000000c800000000000000000000000000000000000000000000000000000000000000d200000000000000000000000000000000000000000000000000000000000000dc00000000000000000000000000000000000000000000000000000000000000e600000000000000000000000000000000000000000000000000000000000000f000000000000000000000000000000000000000000000000000000000000000fa0000000000000000000000000000000000000000000000000000000000000104000000000000000000000000000000000000000000000000000000000000010e00000000000000000000000000000000000000000000000000000000000001180000000000000000000000000000000000000000000000000000000000000122000000000000000000000000000000000000000000000000000000000000012c00000000000000000000000000000000000000000000000000000000000001360000000000000000000000000000000000000000000000000000000000000140000000000000000000000000000000000000000000000000000000000000014a0000000000000000000000000000000000000000000000000000000000000154000000000000000000000000000000000000000000000000000000000000015e00000000000000000000000000000000000000000000000000000000000001680000000000000000000000000000000000000000000000000000000000000172000000000000000000000000000000000000000000000000000000000000017c00000000000000000000000000000000000000000000000000000000000001860000000000000000000000000000000000000000000000000000000000000190000000000000000000000000000000000000000000000000000000000000019a00000000000000000000000000000000000000000000000000000000000001a400000000000000000000000000000000000000000000000000000000000001ae00000000000000000000000000000000000000000000000000000000000001b800000000000000000000000000000000000000000000000000000000000001c200000000000000000000000000000000000000000000000000000000000001cc00000000000000000000000000000000000000000000000000000000000001d60000000000000000000000000000000000000000000000000000000000000763400000000000000000000000000000000000000000000000000000000000000010000000000000000000000000000000000000000000000000000000000000060000000000000000000000000000000000000000000000000000000000000001600030100110100000000000000000000000000030d400000000000000000000000000000000000000000000000000000000000000000000000000000000076340000000000000000000000000000000000000000000000000000000000000002000000000000000000000000000000000000000000000000000000000000006000000000000000000000000000000000000000000000000000000000000000160003010011010000000000000000000000000003d09000000000000000000000000000000000000000000000000000000000000000000000000000000000764800000000000000000000000000000000000000000000000000000000000000010000000000000000000000000000000000000000000000000000000000000060000000000000000000000000000000000000000000000000000000000000001600030100110100000000000000000000000000030d400000000000000000000000000000000000000000000000000000000000000000000000000000000076480000000000000000000000000000000000000000000000000000000000000002000000000000000000000000000000000000000000000000000000000000006000000000000000000000000000000000000000000000000000000000000000160003010011010000000000000000000000000003d09000000000000000000000000000000000000000000000000000000000000000000000000000000000762f00000000000000000000000000000000000000000000000000000000000000010000000000000000000000000000000000000000000000000000000000000060000000000000000000000000000000000000000000000000000000000000001600030100110100000000000000000000000000030d4000000000000000000000000000000000000000000000000000000000000000000000000000000000762f0000000000000000000000000000000000000000000000000000000000000002000000000000000000000000000000000000000000000000000000000000006000000000000000000000000000000000000000000000000000000000000000160003010011010000000000000000000000000003d09000000000000000000000000000000000000000000000000000000000000000000000000000000000764200000000000000000000000000000000000000000000000000000000000000010000000000000000000000000000000000000000000000000000000000000060000000000000000000000000000000000000000000000000000000000000001600030100110100000000000000000000000000030d400000000000000000000000000000000000000000000000000000000000000000000000000000000076420000000000000000000000000000000000000000000000000000000000000002000000000000000000000000000000000000000000000000000000000000006000000000000000000000000000000000000000000000000000000000000000160003010011010000000000000000000000000003d09000000000000000000000000000000000000000000000000000000000000000000000000000000000767c00000000000000000000000000000000000000000000000000000000000000010000000000000000000000000000000000000000000000000000000000000060000000000000000000000000000000000000000000000000000000000000001600030100110100000000000000000000000000030d4000000000000000000000000000000000000000000000000000000000000000000000000000000000767c0000000000000000000000000000000000000000000000000000000000000002000000000000000000000000000000000000000000000000000000000000006000000000000000000000000000000000000000000000000000000000000000160003010011010000000000000000000000000003d09000000000000000000000000000000000000000000000000000000000000000000000000000000000768300000000000000000000000000000000000000000000000000000000000000010000000000000000000000000000000000000000000000000000000000000060000000000000000000000000000000000000000000000000000000000000001600030100110100000000000000000000000000030d400000000000000000000000000000000000000000000000000000000000000000000000000000000076830000000000000000000000000000000000000000000000000000000000000002000000000000000000000000000000000000000000000000000000000000006000000000000000000000000000000000000000000000000000000000000000160003010011010000000000000000000000000003d09000000000000000000000000000000000000000000000000000000000000000000000000000000000759e00000000000000000000000000000000000000000000000000000000000000010000000000000000000000000000000000000000000000000000000000000060000000000000000000000000000000000000000000000000000000000000001600030100110100000000000000000000000000030d4000000000000000000000000000000000000000000000000000000000000000000000000000000000759e0000000000000000000000000000000000000000000000000000000000000002000000000000000000000000000000000000000000000000000000000000006000000000000000000000000000000000000000000000000000000000000000160003010011010000000000000000000000000003d09000000000000000000000000000000000000000000000000000000000000000000000000000000000759f00000000000000000000000000000000000000000000000000000000000000010000000000000000000000000000000000000000000000000000000000000060000000000000000000000000000000000000000000000000000000000000001600030100110100000000000000000000000000030d4000000000000000000000000000000000000000000000000000000000000000000000000000000000759f0000000000000000000000000000000000000000000000000000000000000002000000000000000000000000000000000000000000000000000000000000006000000000000000000000000000000000000000000000000000000000000000160003010011010000000000000000000000000003d09000000000000000000000000000000000000000000000000000000000000000000000000000000000759d00000000000000000000000000000000000000000000000000000000000000010000000000000000000000000000000000000000000000000000000000000060000000000000000000000000000000000000000000000000000000000000001600030100110100000000000000000000000000030d4000000000000000000000000000000000000000000000000000000000000000000000000000000000759d0000000000000000000000000000000000000000000000000000000000000002000000000000000000000000000000000000000000000000000000000000006000000000000000000000000000000000000000000000000000000000000000160003010011010000000000000000000000000003d09000000000000000000000000000000000000000000000000000000000000000000000000000000000759a00000000000000000000000000000000000000000000000000000000000000010000000000000000000000000000000000000000000000000000000000000060000000000000000000000000000000000000000000000000000000000000001600030100110100000000000000000000000000030d4000000000000000000000000000000000000000000000000000000000000000000000000000000000759a0000000000000000000000000000000000000000000000000000000000000002000000000000000000000000000000000000000000000000000000000000006000000000000000000000000000000000000000000000000000000000000000160003010011010000000000000000000000000003d09000000000000000000000000000000000000000000000000000000000000000000000000000000000759600000000000000000000000000000000000000000000000000000000000000010000000000000000000000000000000000000000000000000000000000000060000000000000000000000000000000000000000000000000000000000000001600030100110100000000000000000000000000030d400000000000000000000000000000000000000000000000000000000000000000000000000000000075960000000000000000000000000000000000000000000000000000000000000002000000000000000000000000000000000000000000000000000000000000006000000000000000000000000000000000000000000000000000000000000000160003010011010000000000000000000000000003d0900000000000000000000000000000000000000000000000000000000000000000000000000000000075ce00000000000000000000000000000000000000000000000000000000000000010000000000000000000000000000000000000000000000000000000000000060000000000000000000000000000000000000000000000000000000000000001600030100110100000000000000000000000000030d400000000000000000000000000000000000000000000000000000000000000000000000000000000075ce0000000000000000000000000000000000000000000000000000000000000002000000000000000000000000000000000000000000000000000000000000006000000000000000000000000000000000000000000000000000000000000000160003010011010000000000000000000000000003d09000000000000000000000000000000000000000000000000000000000000000000000000000000000759500000000000000000000000000000000000000000000000000000000000000010000000000000000000000000000000000000000000000000000000000000060000000000000000000000000000000000000000000000000000000000000001600030100110100000000000000000000000000030d400000000000000000000000000000000000000000000000000000000000000000000000000000000075950000000000000000000000000000000000000000000000000000000000000002000000000000000000000000000000000000000000000000000000000000006000000000000000000000000000000000000000000000000000000000000000160003010011010000000000000000000000000003d09000000000000000000000000000000000000000000000000000000000000000000000000000000000762300000000000000000000000000000000000000000000000000000000000000010000000000000000000000000000000000000000000000000000000000000060000000000000000000000000000000000000000000000000000000000000001600030100110100000000000000000000000000030d400000000000000000000000000000000000000000000000000000000000000000000000000000000076230000000000000000000000000000000000000000000000000000000000000002000000000000000000000000000000000000000000000000000000000000006000000000000000000000000000000000000000000000000000000000000000160003010011010000000000000000000000000003d0900000000000000000000000000000000000000000000000000000000000000000000000000000000075e800000000000000000000000000000000000000000000000000000000000000010000000000000000000000000000000000000000000000000000000000000060000000000000000000000000000000000000000000000000000000000000001600030100110100000000000000000000000000030d400000000000000000000000000000000000000000000000000000000000000000000000000000000075e80000000000000000000000000000000000000000000000000000000000000002000000000000000000000000000000000000000000000000000000000000006000000000000000000000000000000000000000000000000000000000000000160003010011010000000000000000000000000003d09000000000000000000000000000000000000000000000000000000000000000000000000000000000769a00000000000000000000000000000000000000000000000000000000000000010000000000000000000000000000000000000000000000000000000000000060000000000000000000000000000000000000000000000000000000000000001600030100110100000000000000000000000000030d4000000000000000000000000000000000000000000000000000000000000000000000000000000000769a0000000000000000000000000000000000000000000000000000000000000002000000000000000000000000000000000000000000000000000000000000006000000000000000000000000000000000000000000000000000000000000000160003010011010000000000000000000000000003d0900000000000000000000000000000000000000000000000000000000000000000000000000000000075e700000000000000000000000000000000000000000000000000000000000000010000000000000000000000000000000000000000000000000000000000000060000000000000000000000000000000000000000000000000000000000000001600030100110100000000000000000000000000030d400000000000000000000000000000000000000000000000000000000000000000000000000000000075e70000000000000000000000000000000000000000000000000000000000000002000000000000000000000000000000000000000000000000000000000000006000000000000000000000000000000000000000000000000000000000000000160003010011010000000000000000000000000003d09000000000000000000000000000000000000000000000000000000000000000000000000000000000766f00000000000000000000000000000000000000000000000000000000000000010000000000000000000000000000000000000000000000000000000000000060000000000000000000000000000000000000000000000000000000000000001600030100110100000000000000000000000000030d4000000000000000000000000000000000000000000000000000000000000000000000000000000000766f0000000000000000000000000000000000000000000000000000000000000002000000000000000000000000000000000000000000000000000000000000006000000000000000000000000000000000000000000000000000000000000000160003010011010000000000000000000000000003d09000000000000000000000000000000000000000000000000000000000000000000000000000000000767000000000000000000000000000000000000000000000000000000000000000010000000000000000000000000000000000000000000000000000000000000060000000000000000000000000000000000000000000000000000000000000001600030100110100000000000000000000000000030d400000000000000000000000000000000000000000000000000000000000000000000000000000000076700000000000000000000000000000000000000000000000000000000000000002000000000000000000000000000000000000000000000000000000000000006000000000000000000000000000000000000000000000000000000000000000160003010011010000000000000000000000000003d09000000000000000000000000000000000000000000000000000000000000000000000000000000000767400000000000000000000000000000000000000000000000000000000000000010000000000000000000000000000000000000000000000000000000000000060000000000000000000000000000000000000000000000000000000000000001600030100110100000000000000000000000000030d400000000000000000000000000000000000000000000000000000000000000000000000000000000076740000000000000000000000000000000000000000000000000000000000000002000000000000000000000000000000000000000000000000000000000000006000000000000000000000000000000000000000000000000000000000000000160003010011010000000000000000000000000003d09000000000000000000000",
        "nonce": "0x6b",
        "chainId": "0x144",
        "zksync": {
          "factoryDeps": [],
          "paymasterData": null
        }
      },
      "additionalContracts": [],
      "isFixedGasLimit": false
    },
    {
      "hash": "0x1708b4d99cf71486f58e35ba5a71605799826db6d63bf5a34d4a7cca486ea2a4",
      "transactionType": "CALL",
      "contractName": null,
      "contractAddress": "0x3fc877008e396fdd7f9ee3deb2e8a54d54da705a",
      "function": "setPeer(uint32,bytes32)",
      "arguments": [
        "30320",
        "0x00000000000000000000000057558cb8d6005de0bae8a2789d5efaae52dba5a8"
      ],
      "transaction": {
        "from": "0x45dce8e4f2dc005a5f28206a46cb034697eeda8e",
        "to": "0x3fc877008e396fdd7f9ee3deb2e8a54d54da705a",
        "gas": "0x32bc8",
        "value": "0x0",
        "input": "0x3400288b000000000000000000000000000000000000000000000000000000000000767000000000000000000000000057558cb8d6005de0bae8a2789d5efaae52dba5a8",
        "nonce": "0x6c",
        "chainId": "0x144",
        "zksync": {
          "factoryDeps": [],
          "paymasterData": null
        }
      },
      "additionalContracts": [],
      "isFixedGasLimit": false
    },
    {
      "hash": "0x547ea9a49132fdb2880014909d6e35ce0829ca20398f114642f04e917920ebf1",
      "transactionType": "CALL",
      "contractName": null,
      "contractAddress": "0xd07c30af3ff30d96bdc9c6044958230eb797ddbf",
      "function": "setConfig(address,address,(uint32,uint32,bytes)[])",
      "arguments": [
        "0x3Fc877008e396FdD7f9Ee3Deb2e8A54d54da705A",
        "0x07fD0e370B49919cA8dA0CE842B8177263c0E12c",
        "[(30320, 2, 0x0000000000000000000000000000000000000000000000000000000000000020000000000000000000000000000000000000000000000000000000000000000000000000000000000000000000000000000000000000000000000000000000030000000000000000000000000000000000000000000000000000000000000000000000000000000000000000000000000000000000000000000000000000000000000000000000000000000000000000000000000000000000000000000000c0000000000000000000000000000000000000000000000000000000000000014000000000000000000000000000000000000000000000000000000000000000030000000000000000000000001253e268bc04bb43cb96d2f7ee858b8a1433cf6d0000000000000000000000002eb85384cad49a67ebd8e2afb0f72b3f586baf03000000000000000000000000620a9df73d2f1015ea75aea1067227f9013f5c510000000000000000000000000000000000000000000000000000000000000000)]"
      ],
      "transaction": {
        "from": "0x45dce8e4f2dc005a5f28206a46cb034697eeda8e",
        "to": "0xd07c30af3ff30d96bdc9c6044958230eb797ddbf",
        "gas": "0x63e40",
        "value": "0x0",
        "input": "0x6dbd9f900000000000000000000000003fc877008e396fdd7f9ee3deb2e8a54d54da705a00000000000000000000000007fd0e370b49919ca8da0ce842b8177263c0e12c00000000000000000000000000000000000000000000000000000000000000600000000000000000000000000000000000000000000000000000000000000001000000000000000000000000000000000000000000000000000000000000002000000000000000000000000000000000000000000000000000000000000076700000000000000000000000000000000000000000000000000000000000000002000000000000000000000000000000000000000000000000000000000000006000000000000000000000000000000000000000000000000000000000000001800000000000000000000000000000000000000000000000000000000000000020000000000000000000000000000000000000000000000000000000000000000000000000000000000000000000000000000000000000000000000000000000030000000000000000000000000000000000000000000000000000000000000000000000000000000000000000000000000000000000000000000000000000000000000000000000000000000000000000000000000000000000000000000000c0000000000000000000000000000000000000000000000000000000000000014000000000000000000000000000000000000000000000000000000000000000030000000000000000000000001253e268bc04bb43cb96d2f7ee858b8a1433cf6d0000000000000000000000002eb85384cad49a67ebd8e2afb0f72b3f586baf03000000000000000000000000620a9df73d2f1015ea75aea1067227f9013f5c510000000000000000000000000000000000000000000000000000000000000000",
        "nonce": "0x6d",
        "chainId": "0x144",
        "zksync": {
          "factoryDeps": [],
          "paymasterData": null
        }
      },
      "additionalContracts": [],
      "isFixedGasLimit": false
    },
    {
      "hash": "0xfd3ea9ca419ebd58d6eb7c19df6adb262032cf987e63fc15826f101cf5908896",
      "transactionType": "CALL",
      "contractName": null,
      "contractAddress": "0xd07c30af3ff30d96bdc9c6044958230eb797ddbf",
      "function": "setConfig(address,address,(uint32,uint32,bytes)[])",
      "arguments": [
        "0x3Fc877008e396FdD7f9Ee3Deb2e8A54d54da705A",
        "0x04830f6deCF08Dec9eD6C3fCAD215245B78A59e1",
        "[(30320, 2, 0x0000000000000000000000000000000000000000000000000000000000000020000000000000000000000000000000000000000000000000000000000000000000000000000000000000000000000000000000000000000000000000000000030000000000000000000000000000000000000000000000000000000000000000000000000000000000000000000000000000000000000000000000000000000000000000000000000000000000000000000000000000000000000000000000c0000000000000000000000000000000000000000000000000000000000000014000000000000000000000000000000000000000000000000000000000000000030000000000000000000000001253e268bc04bb43cb96d2f7ee858b8a1433cf6d0000000000000000000000002eb85384cad49a67ebd8e2afb0f72b3f586baf03000000000000000000000000620a9df73d2f1015ea75aea1067227f9013f5c510000000000000000000000000000000000000000000000000000000000000000)]"
      ],
      "transaction": {
        "from": "0x45dce8e4f2dc005a5f28206a46cb034697eeda8e",
        "to": "0xd07c30af3ff30d96bdc9c6044958230eb797ddbf",
        "gas": "0x61ca9",
        "value": "0x0",
        "input": "0x6dbd9f900000000000000000000000003fc877008e396fdd7f9ee3deb2e8a54d54da705a00000000000000000000000004830f6decf08dec9ed6c3fcad215245b78a59e100000000000000000000000000000000000000000000000000000000000000600000000000000000000000000000000000000000000000000000000000000001000000000000000000000000000000000000000000000000000000000000002000000000000000000000000000000000000000000000000000000000000076700000000000000000000000000000000000000000000000000000000000000002000000000000000000000000000000000000000000000000000000000000006000000000000000000000000000000000000000000000000000000000000001800000000000000000000000000000000000000000000000000000000000000020000000000000000000000000000000000000000000000000000000000000000000000000000000000000000000000000000000000000000000000000000000030000000000000000000000000000000000000000000000000000000000000000000000000000000000000000000000000000000000000000000000000000000000000000000000000000000000000000000000000000000000000000000000c0000000000000000000000000000000000000000000000000000000000000014000000000000000000000000000000000000000000000000000000000000000030000000000000000000000001253e268bc04bb43cb96d2f7ee858b8a1433cf6d0000000000000000000000002eb85384cad49a67ebd8e2afb0f72b3f586baf03000000000000000000000000620a9df73d2f1015ea75aea1067227f9013f5c510000000000000000000000000000000000000000000000000000000000000000",
        "nonce": "0x6e",
        "chainId": "0x144",
        "zksync": {
          "factoryDeps": [],
          "paymasterData": null
        }
      },
      "additionalContracts": [],
      "isFixedGasLimit": false
    },
    {
      "hash": "0xdfea5f163260f592bb841748b238c80846c0536ec9d2b2cca80391fff3d56703",
      "transactionType": "CALL",
      "contractName": null,
      "contractAddress": "0xd07c30af3ff30d96bdc9c6044958230eb797ddbf",
      "function": "setSendLibrary(address,uint32,address)",
      "arguments": [
        "0x3Fc877008e396FdD7f9Ee3Deb2e8A54d54da705A",
        "30320",
        "0x07fD0e370B49919cA8dA0CE842B8177263c0E12c"
      ],
      "transaction": {
        "from": "0x45dce8e4f2dc005a5f28206a46cb034697eeda8e",
        "to": "0xd07c30af3ff30d96bdc9c6044958230eb797ddbf",
        "gas": "0x38dec",
        "value": "0x0",
        "input": "0x9535ff300000000000000000000000003fc877008e396fdd7f9ee3deb2e8a54d54da705a000000000000000000000000000000000000000000000000000000000000767000000000000000000000000007fd0e370b49919ca8da0ce842b8177263c0e12c",
        "nonce": "0x6f",
        "chainId": "0x144",
        "zksync": {
          "factoryDeps": [],
          "paymasterData": null
        }
      },
      "additionalContracts": [],
      "isFixedGasLimit": false
    },
    {
      "hash": "0x96eac0be5b5123aa229882528a58e934904c05dc29f6760a4d3c9247c62280ed",
      "transactionType": "CALL",
      "contractName": null,
      "contractAddress": "0xd07c30af3ff30d96bdc9c6044958230eb797ddbf",
      "function": "setReceiveLibrary(address,uint32,address,uint256)",
      "arguments": [
        "0x3Fc877008e396FdD7f9Ee3Deb2e8A54d54da705A",
        "30320",
        "0x04830f6deCF08Dec9eD6C3fCAD215245B78A59e1",
        "0"
      ],
      "transaction": {
        "from": "0x45dce8e4f2dc005a5f28206a46cb034697eeda8e",
        "to": "0xd07c30af3ff30d96bdc9c6044958230eb797ddbf",
        "gas": "0x3b373",
        "value": "0x0",
        "input": "0x6a14d7150000000000000000000000003fc877008e396fdd7f9ee3deb2e8a54d54da705a000000000000000000000000000000000000000000000000000000000000767000000000000000000000000004830f6decf08dec9ed6c3fcad215245b78a59e10000000000000000000000000000000000000000000000000000000000000000",
        "nonce": "0x70",
        "chainId": "0x144",
        "zksync": {
          "factoryDeps": [],
          "paymasterData": null
        }
      },
      "additionalContracts": [],
      "isFixedGasLimit": false
    }
  ],
  "receipts": [
    {
      "status": "0x1",
      "cumulativeGasUsed": "0x0",
      "logs": [
        {
          "address": "0x000000000000000000000000000000000000800a",
          "topics": [
            "0xddf252ad1be2c89b69c2b068fc378daa952ba7f163c4a11628f55a4df523b3ef",
            "0x00000000000000000000000045dce8e4f2dc005a5f28206a46cb034697eeda8e",
            "0x0000000000000000000000000000000000000000000000000000000000008001"
          ],
          "data": "0x00000000000000000000000000000000000000000000000000002163857c6140",
          "blockHash": "0xb943f09fb7ebaa07b3bc27cb2c2424698c1da20f33af4368981679539210c1b1",
          "blockNumber": "0x3b0ec80",
          "blockTimestamp": "0x6854b971",
          "transactionHash": "0x9dcba83e9191ae0f75396780e57e83fce53b85c2c45e32e55682695c05deeb5b",
          "transactionIndex": "0x0",
          "logIndex": "0x0",
          "removed": false
        },
        {
          "address": "0x3fc877008e396fdd7f9ee3deb2e8a54d54da705a",
          "topics": [
            "0xbe4864a8e820971c0247f5992e2da559595f7bf076a21cb5928d443d2a13b674"
          ],
          "data": "0x00000000000000000000000000000000000000000000000000000000000000200000000000000000000000000000000000000000000000000000000000000028000000000000000000000000000000000000000000000000000000000000050000000000000000000000000000000000000000000000000000000000000005a0000000000000000000000000000000000000000000000000000000000000064000000000000000000000000000000000000000000000000000000000000006e00000000000000000000000000000000000000000000000000000000000000780000000000000000000000000000000000000000000000000000000000000082000000000000000000000000000000000000000000000000000000000000008c000000000000000000000000000000000000000000000000000000000000009600000000000000000000000000000000000000000000000000000000000000a000000000000000000000000000000000000000000000000000000000000000aa00000000000000000000000000000000000000000000000000000000000000b400000000000000000000000000000000000000000000000000000000000000be00000000000000000000000000000000000000000000000000000000000000c800000000000000000000000000000000000000000000000000000000000000d200000000000000000000000000000000000000000000000000000000000000dc00000000000000000000000000000000000000000000000000000000000000e600000000000000000000000000000000000000000000000000000000000000f000000000000000000000000000000000000000000000000000000000000000fa0000000000000000000000000000000000000000000000000000000000000104000000000000000000000000000000000000000000000000000000000000010e00000000000000000000000000000000000000000000000000000000000001180000000000000000000000000000000000000000000000000000000000000122000000000000000000000000000000000000000000000000000000000000012c00000000000000000000000000000000000000000000000000000000000001360000000000000000000000000000000000000000000000000000000000000140000000000000000000000000000000000000000000000000000000000000014a0000000000000000000000000000000000000000000000000000000000000154000000000000000000000000000000000000000000000000000000000000015e00000000000000000000000000000000000000000000000000000000000001680000000000000000000000000000000000000000000000000000000000000172000000000000000000000000000000000000000000000000000000000000017c00000000000000000000000000000000000000000000000000000000000001860000000000000000000000000000000000000000000000000000000000000190000000000000000000000000000000000000000000000000000000000000019a00000000000000000000000000000000000000000000000000000000000001a400000000000000000000000000000000000000000000000000000000000001ae00000000000000000000000000000000000000000000000000000000000001b800000000000000000000000000000000000000000000000000000000000001c200000000000000000000000000000000000000000000000000000000000001cc00000000000000000000000000000000000000000000000000000000000001d60000000000000000000000000000000000000000000000000000000000000763400000000000000000000000000000000000000000000000000000000000000010000000000000000000000000000000000000000000000000000000000000060000000000000000000000000000000000000000000000000000000000000001600030100110100000000000000000000000000030d400000000000000000000000000000000000000000000000000000000000000000000000000000000076340000000000000000000000000000000000000000000000000000000000000002000000000000000000000000000000000000000000000000000000000000006000000000000000000000000000000000000000000000000000000000000000160003010011010000000000000000000000000003d09000000000000000000000000000000000000000000000000000000000000000000000000000000000764800000000000000000000000000000000000000000000000000000000000000010000000000000000000000000000000000000000000000000000000000000060000000000000000000000000000000000000000000000000000000000000001600030100110100000000000000000000000000030d400000000000000000000000000000000000000000000000000000000000000000000000000000000076480000000000000000000000000000000000000000000000000000000000000002000000000000000000000000000000000000000000000000000000000000006000000000000000000000000000000000000000000000000000000000000000160003010011010000000000000000000000000003d09000000000000000000000000000000000000000000000000000000000000000000000000000000000762f00000000000000000000000000000000000000000000000000000000000000010000000000000000000000000000000000000000000000000000000000000060000000000000000000000000000000000000000000000000000000000000001600030100110100000000000000000000000000030d4000000000000000000000000000000000000000000000000000000000000000000000000000000000762f0000000000000000000000000000000000000000000000000000000000000002000000000000000000000000000000000000000000000000000000000000006000000000000000000000000000000000000000000000000000000000000000160003010011010000000000000000000000000003d09000000000000000000000000000000000000000000000000000000000000000000000000000000000764200000000000000000000000000000000000000000000000000000000000000010000000000000000000000000000000000000000000000000000000000000060000000000000000000000000000000000000000000000000000000000000001600030100110100000000000000000000000000030d400000000000000000000000000000000000000000000000000000000000000000000000000000000076420000000000000000000000000000000000000000000000000000000000000002000000000000000000000000000000000000000000000000000000000000006000000000000000000000000000000000000000000000000000000000000000160003010011010000000000000000000000000003d09000000000000000000000000000000000000000000000000000000000000000000000000000000000767c00000000000000000000000000000000000000000000000000000000000000010000000000000000000000000000000000000000000000000000000000000060000000000000000000000000000000000000000000000000000000000000001600030100110100000000000000000000000000030d4000000000000000000000000000000000000000000000000000000000000000000000000000000000767c0000000000000000000000000000000000000000000000000000000000000002000000000000000000000000000000000000000000000000000000000000006000000000000000000000000000000000000000000000000000000000000000160003010011010000000000000000000000000003d09000000000000000000000000000000000000000000000000000000000000000000000000000000000768300000000000000000000000000000000000000000000000000000000000000010000000000000000000000000000000000000000000000000000000000000060000000000000000000000000000000000000000000000000000000000000001600030100110100000000000000000000000000030d400000000000000000000000000000000000000000000000000000000000000000000000000000000076830000000000000000000000000000000000000000000000000000000000000002000000000000000000000000000000000000000000000000000000000000006000000000000000000000000000000000000000000000000000000000000000160003010011010000000000000000000000000003d09000000000000000000000000000000000000000000000000000000000000000000000000000000000759e00000000000000000000000000000000000000000000000000000000000000010000000000000000000000000000000000000000000000000000000000000060000000000000000000000000000000000000000000000000000000000000001600030100110100000000000000000000000000030d4000000000000000000000000000000000000000000000000000000000000000000000000000000000759e0000000000000000000000000000000000000000000000000000000000000002000000000000000000000000000000000000000000000000000000000000006000000000000000000000000000000000000000000000000000000000000000160003010011010000000000000000000000000003d09000000000000000000000000000000000000000000000000000000000000000000000000000000000759f00000000000000000000000000000000000000000000000000000000000000010000000000000000000000000000000000000000000000000000000000000060000000000000000000000000000000000000000000000000000000000000001600030100110100000000000000000000000000030d4000000000000000000000000000000000000000000000000000000000000000000000000000000000759f0000000000000000000000000000000000000000000000000000000000000002000000000000000000000000000000000000000000000000000000000000006000000000000000000000000000000000000000000000000000000000000000160003010011010000000000000000000000000003d09000000000000000000000000000000000000000000000000000000000000000000000000000000000759d00000000000000000000000000000000000000000000000000000000000000010000000000000000000000000000000000000000000000000000000000000060000000000000000000000000000000000000000000000000000000000000001600030100110100000000000000000000000000030d4000000000000000000000000000000000000000000000000000000000000000000000000000000000759d0000000000000000000000000000000000000000000000000000000000000002000000000000000000000000000000000000000000000000000000000000006000000000000000000000000000000000000000000000000000000000000000160003010011010000000000000000000000000003d09000000000000000000000000000000000000000000000000000000000000000000000000000000000759a00000000000000000000000000000000000000000000000000000000000000010000000000000000000000000000000000000000000000000000000000000060000000000000000000000000000000000000000000000000000000000000001600030100110100000000000000000000000000030d4000000000000000000000000000000000000000000000000000000000000000000000000000000000759a0000000000000000000000000000000000000000000000000000000000000002000000000000000000000000000000000000000000000000000000000000006000000000000000000000000000000000000000000000000000000000000000160003010011010000000000000000000000000003d09000000000000000000000000000000000000000000000000000000000000000000000000000000000759600000000000000000000000000000000000000000000000000000000000000010000000000000000000000000000000000000000000000000000000000000060000000000000000000000000000000000000000000000000000000000000001600030100110100000000000000000000000000030d400000000000000000000000000000000000000000000000000000000000000000000000000000000075960000000000000000000000000000000000000000000000000000000000000002000000000000000000000000000000000000000000000000000000000000006000000000000000000000000000000000000000000000000000000000000000160003010011010000000000000000000000000003d0900000000000000000000000000000000000000000000000000000000000000000000000000000000075ce00000000000000000000000000000000000000000000000000000000000000010000000000000000000000000000000000000000000000000000000000000060000000000000000000000000000000000000000000000000000000000000001600030100110100000000000000000000000000030d400000000000000000000000000000000000000000000000000000000000000000000000000000000075ce0000000000000000000000000000000000000000000000000000000000000002000000000000000000000000000000000000000000000000000000000000006000000000000000000000000000000000000000000000000000000000000000160003010011010000000000000000000000000003d09000000000000000000000000000000000000000000000000000000000000000000000000000000000759500000000000000000000000000000000000000000000000000000000000000010000000000000000000000000000000000000000000000000000000000000060000000000000000000000000000000000000000000000000000000000000001600030100110100000000000000000000000000030d400000000000000000000000000000000000000000000000000000000000000000000000000000000075950000000000000000000000000000000000000000000000000000000000000002000000000000000000000000000000000000000000000000000000000000006000000000000000000000000000000000000000000000000000000000000000160003010011010000000000000000000000000003d09000000000000000000000000000000000000000000000000000000000000000000000000000000000762300000000000000000000000000000000000000000000000000000000000000010000000000000000000000000000000000000000000000000000000000000060000000000000000000000000000000000000000000000000000000000000001600030100110100000000000000000000000000030d400000000000000000000000000000000000000000000000000000000000000000000000000000000076230000000000000000000000000000000000000000000000000000000000000002000000000000000000000000000000000000000000000000000000000000006000000000000000000000000000000000000000000000000000000000000000160003010011010000000000000000000000000003d0900000000000000000000000000000000000000000000000000000000000000000000000000000000075e800000000000000000000000000000000000000000000000000000000000000010000000000000000000000000000000000000000000000000000000000000060000000000000000000000000000000000000000000000000000000000000001600030100110100000000000000000000000000030d400000000000000000000000000000000000000000000000000000000000000000000000000000000075e80000000000000000000000000000000000000000000000000000000000000002000000000000000000000000000000000000000000000000000000000000006000000000000000000000000000000000000000000000000000000000000000160003010011010000000000000000000000000003d09000000000000000000000000000000000000000000000000000000000000000000000000000000000769a00000000000000000000000000000000000000000000000000000000000000010000000000000000000000000000000000000000000000000000000000000060000000000000000000000000000000000000000000000000000000000000001600030100110100000000000000000000000000030d4000000000000000000000000000000000000000000000000000000000000000000000000000000000769a0000000000000000000000000000000000000000000000000000000000000002000000000000000000000000000000000000000000000000000000000000006000000000000000000000000000000000000000000000000000000000000000160003010011010000000000000000000000000003d0900000000000000000000000000000000000000000000000000000000000000000000000000000000075e700000000000000000000000000000000000000000000000000000000000000010000000000000000000000000000000000000000000000000000000000000060000000000000000000000000000000000000000000000000000000000000001600030100110100000000000000000000000000030d400000000000000000000000000000000000000000000000000000000000000000000000000000000075e70000000000000000000000000000000000000000000000000000000000000002000000000000000000000000000000000000000000000000000000000000006000000000000000000000000000000000000000000000000000000000000000160003010011010000000000000000000000000003d09000000000000000000000000000000000000000000000000000000000000000000000000000000000766f00000000000000000000000000000000000000000000000000000000000000010000000000000000000000000000000000000000000000000000000000000060000000000000000000000000000000000000000000000000000000000000001600030100110100000000000000000000000000030d4000000000000000000000000000000000000000000000000000000000000000000000000000000000766f0000000000000000000000000000000000000000000000000000000000000002000000000000000000000000000000000000000000000000000000000000006000000000000000000000000000000000000000000000000000000000000000160003010011010000000000000000000000000003d09000000000000000000000000000000000000000000000000000000000000000000000000000000000767000000000000000000000000000000000000000000000000000000000000000010000000000000000000000000000000000000000000000000000000000000060000000000000000000000000000000000000000000000000000000000000001600030100110100000000000000000000000000030d400000000000000000000000000000000000000000000000000000000000000000000000000000000076700000000000000000000000000000000000000000000000000000000000000002000000000000000000000000000000000000000000000000000000000000006000000000000000000000000000000000000000000000000000000000000000160003010011010000000000000000000000000003d09000000000000000000000000000000000000000000000000000000000000000000000000000000000767400000000000000000000000000000000000000000000000000000000000000010000000000000000000000000000000000000000000000000000000000000060000000000000000000000000000000000000000000000000000000000000001600030100110100000000000000000000000000030d400000000000000000000000000000000000000000000000000000000000000000000000000000000076740000000000000000000000000000000000000000000000000000000000000002000000000000000000000000000000000000000000000000000000000000006000000000000000000000000000000000000000000000000000000000000000160003010011010000000000000000000000000003d09000000000000000000000",
          "blockHash": "0xb943f09fb7ebaa07b3bc27cb2c2424698c1da20f33af4368981679539210c1b1",
          "blockNumber": "0x3b0ec80",
          "blockTimestamp": "0x6854b971",
          "transactionHash": "0x9dcba83e9191ae0f75396780e57e83fce53b85c2c45e32e55682695c05deeb5b",
          "transactionIndex": "0x0",
          "logIndex": "0x1",
          "removed": false
        },
        {
          "address": "0x000000000000000000000000000000000000800a",
          "topics": [
            "0xddf252ad1be2c89b69c2b068fc378daa952ba7f163c4a11628f55a4df523b3ef",
            "0x0000000000000000000000000000000000000000000000000000000000008001",
            "0x00000000000000000000000045dce8e4f2dc005a5f28206a46cb034697eeda8e"
          ],
          "data": "0x00000000000000000000000000000000000000000000000000000edff8ce1030",
          "blockHash": "0xb943f09fb7ebaa07b3bc27cb2c2424698c1da20f33af4368981679539210c1b1",
          "blockNumber": "0x3b0ec80",
          "blockTimestamp": "0x6854b971",
          "transactionHash": "0x9dcba83e9191ae0f75396780e57e83fce53b85c2c45e32e55682695c05deeb5b",
          "transactionIndex": "0x0",
          "logIndex": "0x2",
          "removed": false
        }
      ],
      "logsBloom": "0x00000000000400000000000200000000000000000000000000000000000000000000000000000000000000000000000000000000000000000000401000000000000000000000040000000008000000000000000000000000000000000000080000000000000000000000000000000000000000000000000000000010000000000000000000000000000004000000000000000000000000000000000000080000000000000000101000000000000000000000000000000000000000000000000000000002008000000000000002000000001000000000000000000000000000000000000000000000000000000000800000000000000000000000001000000000",
      "type": "0x71",
      "transactionHash": "0x9dcba83e9191ae0f75396780e57e83fce53b85c2c45e32e55682695c05deeb5b",
      "transactionIndex": "0x0",
      "blockHash": "0xb943f09fb7ebaa07b3bc27cb2c2424698c1da20f33af4368981679539210c1b1",
      "blockNumber": "0x3b0ec80",
      "gasUsed": "0x6dd45",
      "effectiveGasPrice": "0x2b275d0",
      "from": "0x45dce8e4f2dc005a5f28206a46cb034697eeda8e",
      "to": "0x3fc877008e396fdd7f9ee3deb2e8a54d54da705a",
      "contractAddress": null,
      "l1BatchNumber": null,
      "l1BatchTxIndex": null,
      "l2ToL1Logs": []
    },
    {
      "status": "0x1",
      "cumulativeGasUsed": "0x0",
      "logs": [
        {
          "address": "0x000000000000000000000000000000000000800a",
          "topics": [
            "0xddf252ad1be2c89b69c2b068fc378daa952ba7f163c4a11628f55a4df523b3ef",
            "0x00000000000000000000000045dce8e4f2dc005a5f28206a46cb034697eeda8e",
            "0x0000000000000000000000000000000000000000000000000000000000008001"
          ],
          "data": "0x000000000000000000000000000000000000000000000000000008c963cfa000",
          "blockHash": "0x175253ef36cdcad518832af16242215130899a6743a16f1b491b4c670c5998a2",
          "blockNumber": "0x3b0ec81",
          "blockTimestamp": "0x6854b974",
          "transactionHash": "0x1708b4d99cf71486f58e35ba5a71605799826db6d63bf5a34d4a7cca486ea2a4",
          "transactionIndex": "0x0",
          "logIndex": "0x0",
          "removed": false
        },
        {
          "address": "0x3fc877008e396fdd7f9ee3deb2e8a54d54da705a",
          "topics": [
            "0x238399d427b947898edb290f5ff0f9109849b1c3ba196a42e35f00c50a54b98b"
          ],
          "data": "0x000000000000000000000000000000000000000000000000000000000000767000000000000000000000000057558cb8d6005de0bae8a2789d5efaae52dba5a8",
          "blockHash": "0x175253ef36cdcad518832af16242215130899a6743a16f1b491b4c670c5998a2",
          "blockNumber": "0x3b0ec81",
          "blockTimestamp": "0x6854b974",
          "transactionHash": "0x1708b4d99cf71486f58e35ba5a71605799826db6d63bf5a34d4a7cca486ea2a4",
          "transactionIndex": "0x0",
          "logIndex": "0x1",
          "removed": false
        },
        {
          "address": "0x000000000000000000000000000000000000800a",
          "topics": [
            "0xddf252ad1be2c89b69c2b068fc378daa952ba7f163c4a11628f55a4df523b3ef",
            "0x0000000000000000000000000000000000000000000000000000000000008001",
            "0x00000000000000000000000045dce8e4f2dc005a5f28206a46cb034697eeda8e"
          ],
          "data": "0x0000000000000000000000000000000000000000000000000000056567b12b60",
          "blockHash": "0x175253ef36cdcad518832af16242215130899a6743a16f1b491b4c670c5998a2",
          "blockNumber": "0x3b0ec81",
          "blockTimestamp": "0x6854b974",
          "transactionHash": "0x1708b4d99cf71486f58e35ba5a71605799826db6d63bf5a34d4a7cca486ea2a4",
          "transactionIndex": "0x0",
          "logIndex": "0x2",
          "removed": false
        }
      ],
      "logsBloom": "0x00000000000400000000000200000000000000000000000000000000000000000000000000000000000000000000000000000000000000000800001000000000000000000000040000000008000000000000000000000000000000000000080000000000000000000000000000000000000000000000000000000010000000000000000000000000000004000000000000000000000000000000000000000000000000000000101000000000000000000000000000000000000002000000000000000002008000000000000000000000001000000000000000040000000000000000000000000000000000000000800000000000000000000000001000000000",
      "type": "0x71",
      "transactionHash": "0x1708b4d99cf71486f58e35ba5a71605799826db6d63bf5a34d4a7cca486ea2a4",
      "transactionIndex": "0x0",
      "blockHash": "0x175253ef36cdcad518832af16242215130899a6743a16f1b491b4c670c5998a2",
      "blockNumber": "0x3b0ec81",
      "gasUsed": "0x141d2",
      "effectiveGasPrice": "0x2b275d0",
      "from": "0x45dce8e4f2dc005a5f28206a46cb034697eeda8e",
      "to": "0x3fc877008e396fdd7f9ee3deb2e8a54d54da705a",
      "contractAddress": null,
      "l1BatchNumber": null,
      "l1BatchTxIndex": null,
      "l2ToL1Logs": []
    },
    {
      "status": "0x1",
      "cumulativeGasUsed": "0x0",
      "logs": [
        {
          "address": "0x000000000000000000000000000000000000800a",
          "topics": [
            "0xddf252ad1be2c89b69c2b068fc378daa952ba7f163c4a11628f55a4df523b3ef",
            "0x00000000000000000000000045dce8e4f2dc005a5f28206a46cb034697eeda8e",
            "0x0000000000000000000000000000000000000000000000000000000000008001"
          ],
          "data": "0x00000000000000000000000000000000000000000000000000000d33e6857880",
          "blockHash": "0xe177cd5e189a4aa2e7498c3cdcd200f447372f08a2aa1ca178559ddb9f07b8e4",
          "blockNumber": "0x3b0ec83",
          "blockTimestamp": "0x6854b976",
          "transactionHash": "0x547ea9a49132fdb2880014909d6e35ce0829ca20398f114642f04e917920ebf1",
          "transactionIndex": "0x0",
          "logIndex": "0x0",
          "removed": false
        },
        {
          "address": "0x07fd0e370b49919ca8da0ce842b8177263c0e12c",
          "topics": [
            "0x82118522aa536ac0e96cc5c689407ae42b89d592aa133890a01f1509842f5081"
          ],
          "data": "0x0000000000000000000000003fc877008e396fdd7f9ee3deb2e8a54d54da705a00000000000000000000000000000000000000000000000000000000000076700000000000000000000000000000000000000000000000000000000000000060000000000000000000000000000000000000000000000000000000000000000000000000000000000000000000000000000000000000000000000000000000030000000000000000000000000000000000000000000000000000000000000000000000000000000000000000000000000000000000000000000000000000000000000000000000000000000000000000000000000000000000000000000000c0000000000000000000000000000000000000000000000000000000000000014000000000000000000000000000000000000000000000000000000000000000030000000000000000000000001253e268bc04bb43cb96d2f7ee858b8a1433cf6d0000000000000000000000002eb85384cad49a67ebd8e2afb0f72b3f586baf03000000000000000000000000620a9df73d2f1015ea75aea1067227f9013f5c510000000000000000000000000000000000000000000000000000000000000000",
          "blockHash": "0xe177cd5e189a4aa2e7498c3cdcd200f447372f08a2aa1ca178559ddb9f07b8e4",
          "blockNumber": "0x3b0ec83",
          "blockTimestamp": "0x6854b976",
          "transactionHash": "0x547ea9a49132fdb2880014909d6e35ce0829ca20398f114642f04e917920ebf1",
          "transactionIndex": "0x0",
          "logIndex": "0x1",
          "removed": false
        },
        {
          "address": "0x000000000000000000000000000000000000800a",
          "topics": [
            "0xddf252ad1be2c89b69c2b068fc378daa952ba7f163c4a11628f55a4df523b3ef",
            "0x0000000000000000000000000000000000000000000000000000000000008001",
            "0x00000000000000000000000045dce8e4f2dc005a5f28206a46cb034697eeda8e"
          ],
          "data": "0x000000000000000000000000000000000000000000000000000006ae331b3fe0",
          "blockHash": "0xe177cd5e189a4aa2e7498c3cdcd200f447372f08a2aa1ca178559ddb9f07b8e4",
          "blockNumber": "0x3b0ec83",
          "blockTimestamp": "0x6854b976",
          "transactionHash": "0x547ea9a49132fdb2880014909d6e35ce0829ca20398f114642f04e917920ebf1",
          "transactionIndex": "0x0",
          "logIndex": "0x2",
          "removed": false
        }
      ],
      "logsBloom": "0x00000000000400000000000200000000000000000000000000000000000000000000000000000000000000000000000000000000000000000000000000000000000000000000040000000008000000000008000000000000002000000000084000000000000000000000000000000000000000000000000000000014000000000000000000000000000004000000000000000000000000000000000000000000000000000000100000000002000000000000000000000000000000000000000000000002008000000000000000000000001000000000000000000000000000000000000000000000000000000000800000000000000000000000000000000010",
      "type": "0x71",
      "transactionHash": "0x547ea9a49132fdb2880014909d6e35ce0829ca20398f114642f04e917920ebf1",
      "transactionIndex": "0x0",
      "blockHash": "0xe177cd5e189a4aa2e7498c3cdcd200f447372f08a2aa1ca178559ddb9f07b8e4",
      "blockNumber": "0x3b0ec83",
      "gasUsed": "0x26b12",
      "effectiveGasPrice": "0x2b275d0",
      "from": "0x45dce8e4f2dc005a5f28206a46cb034697eeda8e",
      "to": "0xd07c30af3ff30d96bdc9c6044958230eb797ddbf",
      "contractAddress": null,
      "l1BatchNumber": null,
      "l1BatchTxIndex": null,
      "l2ToL1Logs": []
    },
    {
      "status": "0x1",
      "cumulativeGasUsed": "0x0",
      "logs": [
        {
          "address": "0x000000000000000000000000000000000000800a",
          "topics": [
            "0xddf252ad1be2c89b69c2b068fc378daa952ba7f163c4a11628f55a4df523b3ef",
            "0x00000000000000000000000045dce8e4f2dc005a5f28206a46cb034697eeda8e",
            "0x0000000000000000000000000000000000000000000000000000000000008001"
          ],
          "data": "0x00000000000000000000000000000000000000000000000000000cc898744830",
          "blockHash": "0x19c8a015ca3baaa55c74b64632cd7b258a900028380c474c0d9495a1e8309e87",
          "blockNumber": "0x3b0ec84",
          "blockTimestamp": "0x6854b978",
          "transactionHash": "0xfd3ea9ca419ebd58d6eb7c19df6adb262032cf987e63fc15826f101cf5908896",
          "transactionIndex": "0x0",
          "logIndex": "0x0",
          "removed": false
        },
        {
          "address": "0x04830f6decf08dec9ed6c3fcad215245b78a59e1",
          "topics": [
            "0x82118522aa536ac0e96cc5c689407ae42b89d592aa133890a01f1509842f5081"
          ],
          "data": "0x0000000000000000000000003fc877008e396fdd7f9ee3deb2e8a54d54da705a00000000000000000000000000000000000000000000000000000000000076700000000000000000000000000000000000000000000000000000000000000060000000000000000000000000000000000000000000000000000000000000000000000000000000000000000000000000000000000000000000000000000000030000000000000000000000000000000000000000000000000000000000000000000000000000000000000000000000000000000000000000000000000000000000000000000000000000000000000000000000000000000000000000000000c0000000000000000000000000000000000000000000000000000000000000014000000000000000000000000000000000000000000000000000000000000000030000000000000000000000001253e268bc04bb43cb96d2f7ee858b8a1433cf6d0000000000000000000000002eb85384cad49a67ebd8e2afb0f72b3f586baf03000000000000000000000000620a9df73d2f1015ea75aea1067227f9013f5c510000000000000000000000000000000000000000000000000000000000000000",
          "blockHash": "0x19c8a015ca3baaa55c74b64632cd7b258a900028380c474c0d9495a1e8309e87",
          "blockNumber": "0x3b0ec84",
          "blockTimestamp": "0x6854b978",
          "transactionHash": "0xfd3ea9ca419ebd58d6eb7c19df6adb262032cf987e63fc15826f101cf5908896",
          "transactionIndex": "0x0",
          "logIndex": "0x1",
          "removed": false
        },
        {
          "address": "0x000000000000000000000000000000000000800a",
          "topics": [
            "0xddf252ad1be2c89b69c2b068fc378daa952ba7f163c4a11628f55a4df523b3ef",
            "0x0000000000000000000000000000000000000000000000000000000000008001",
            "0x00000000000000000000000045dce8e4f2dc005a5f28206a46cb034697eeda8e"
          ],
          "data": "0x000000000000000000000000000000000000000000000000000007105c14faf0",
          "blockHash": "0x19c8a015ca3baaa55c74b64632cd7b258a900028380c474c0d9495a1e8309e87",
          "blockNumber": "0x3b0ec84",
          "blockTimestamp": "0x6854b978",
          "transactionHash": "0xfd3ea9ca419ebd58d6eb7c19df6adb262032cf987e63fc15826f101cf5908896",
          "transactionIndex": "0x0",
          "logIndex": "0x2",
          "removed": false
        }
      ],
      "logsBloom": "0x00000000080400000000000200000000000000000000000000080000000000000000000000000000000000000000000000000000000000000000000000000000000000000000040000000008000000000000000000000000002000000000080000000000000000000000000000000000000000000000000000000010000000000000000000000000000004000000000000000000000000000000000000000000000000000000100000000002000000000000000000080000000000000000000000000002008000000000000000000000001000000000000000000000000000000000000000000000000000000000800000000000000000000000000000000010",
      "type": "0x71",
      "transactionHash": "0xfd3ea9ca419ebd58d6eb7c19df6adb262032cf987e63fc15826f101cf5908896",
      "transactionIndex": "0x0",
      "blockHash": "0x19c8a015ca3baaa55c74b64632cd7b258a900028380c474c0d9495a1e8309e87",
      "blockNumber": "0x3b0ec84",
      "gasUsed": "0x21ee4",
      "effectiveGasPrice": "0x2b275d0",
      "from": "0x45dce8e4f2dc005a5f28206a46cb034697eeda8e",
      "to": "0xd07c30af3ff30d96bdc9c6044958230eb797ddbf",
      "contractAddress": null,
      "l1BatchNumber": null,
      "l1BatchTxIndex": null,
      "l2ToL1Logs": []
    },
    {
      "status": "0x1",
      "cumulativeGasUsed": "0x0",
      "logs": [
        {
          "address": "0x000000000000000000000000000000000000800a",
          "topics": [
            "0xddf252ad1be2c89b69c2b068fc378daa952ba7f163c4a11628f55a4df523b3ef",
            "0x00000000000000000000000045dce8e4f2dc005a5f28206a46cb034697eeda8e",
            "0x0000000000000000000000000000000000000000000000000000000000008001"
          ],
          "data": "0x00000000000000000000000000000000000000000000000000000a15585bc440",
          "blockHash": "0x372370733ed0e1970a2a62dadc458ee63aa4654dbf0922f2f303c21818acd309",
          "blockNumber": "0x3b0ec85",
          "blockTimestamp": "0x6854b979",
          "transactionHash": "0xdfea5f163260f592bb841748b238c80846c0536ec9d2b2cca80391fff3d56703",
          "transactionIndex": "0x0",
          "logIndex": "0x0",
          "removed": false
        },
        {
          "address": "0xd07c30af3ff30d96bdc9c6044958230eb797ddbf",
          "topics": [
            "0x4cff966ebee29a156dcb34cf72c1d06231fb1777f6bdf6e8089819232f002b1c"
          ],
          "data": "0x0000000000000000000000003fc877008e396fdd7f9ee3deb2e8a54d54da705a000000000000000000000000000000000000000000000000000000000000767000000000000000000000000007fd0e370b49919ca8da0ce842b8177263c0e12c",
          "blockHash": "0x372370733ed0e1970a2a62dadc458ee63aa4654dbf0922f2f303c21818acd309",
          "blockNumber": "0x3b0ec85",
          "blockTimestamp": "0x6854b979",
          "transactionHash": "0xdfea5f163260f592bb841748b238c80846c0536ec9d2b2cca80391fff3d56703",
          "transactionIndex": "0x0",
          "logIndex": "0x1",
          "removed": false
        },
        {
          "address": "0x000000000000000000000000000000000000800a",
          "topics": [
            "0xddf252ad1be2c89b69c2b068fc378daa952ba7f163c4a11628f55a4df523b3ef",
            "0x0000000000000000000000000000000000000000000000000000000000008001",
            "0x00000000000000000000000045dce8e4f2dc005a5f28206a46cb034697eeda8e"
          ],
          "data": "0x00000000000000000000000000000000000000000000000000000684ce291a90",
          "blockHash": "0x372370733ed0e1970a2a62dadc458ee63aa4654dbf0922f2f303c21818acd309",
          "blockNumber": "0x3b0ec85",
          "blockTimestamp": "0x6854b979",
          "transactionHash": "0xdfea5f163260f592bb841748b238c80846c0536ec9d2b2cca80391fff3d56703",
          "transactionIndex": "0x0",
          "logIndex": "0x2",
          "removed": false
        }
      ],
      "logsBloom": "0x00000000000400000000000200000000000200000000000000000000000000000000000000000000800000000000000000000000000000000000000001000000000000000000040000000008000000000000000000000000000000000000080000000008000000000000000000000000000000000000000000000010000000000000000000000100000004000000000000000000000000000000000000000000000000000000100000000000000000000000000000000000000000000000000000000002008000000000000000000000001000000000000000000000000000000040000000000000000000000000800000000000000000000000000000000000",
      "type": "0x71",
      "transactionHash": "0xdfea5f163260f592bb841748b238c80846c0536ec9d2b2cca80391fff3d56703",
      "transactionIndex": "0x0",
      "blockHash": "0x372370733ed0e1970a2a62dadc458ee63aa4654dbf0922f2f303c21818acd309",
      "blockNumber": "0x3b0ec85",
      "gasUsed": "0x15257",
      "effectiveGasPrice": "0x2b275d0",
      "from": "0x45dce8e4f2dc005a5f28206a46cb034697eeda8e",
      "to": "0xd07c30af3ff30d96bdc9c6044958230eb797ddbf",
      "contractAddress": null,
      "l1BatchNumber": null,
      "l1BatchTxIndex": null,
      "l2ToL1Logs": []
    },
    {
      "status": "0x1",
      "cumulativeGasUsed": "0x0",
      "logs": [
        {
          "address": "0x000000000000000000000000000000000000800a",
          "topics": [
            "0xddf252ad1be2c89b69c2b068fc378daa952ba7f163c4a11628f55a4df523b3ef",
            "0x00000000000000000000000045dce8e4f2dc005a5f28206a46cb034697eeda8e",
            "0x0000000000000000000000000000000000000000000000000000000000008001"
          ],
          "data": "0x00000000000000000000000000000000000000000000000000000a9447245140",
          "blockHash": "0x3d90a83faf6e0b5019046eee5dc081dfe209766441be7fbd43ab0b10fcc0862d",
          "blockNumber": "0x3b0ec86",
          "blockTimestamp": "0x6854b97b",
          "transactionHash": "0x96eac0be5b5123aa229882528a58e934904c05dc29f6760a4d3c9247c62280ed",
          "transactionIndex": "0x0",
          "logIndex": "0x0",
          "removed": false
        },
        {
          "address": "0xd07c30af3ff30d96bdc9c6044958230eb797ddbf",
          "topics": [
            "0xcd6f92f5ac6185a5acfa02c92090746cec64d777269cbcd0ed031e396657a1c2"
          ],
          "data": "0x0000000000000000000000003fc877008e396fdd7f9ee3deb2e8a54d54da705a000000000000000000000000000000000000000000000000000000000000767000000000000000000000000004830f6decf08dec9ed6c3fcad215245b78a59e1",
          "blockHash": "0x3d90a83faf6e0b5019046eee5dc081dfe209766441be7fbd43ab0b10fcc0862d",
          "blockNumber": "0x3b0ec86",
          "blockTimestamp": "0x6854b97b",
          "transactionHash": "0x96eac0be5b5123aa229882528a58e934904c05dc29f6760a4d3c9247c62280ed",
          "transactionIndex": "0x0",
          "logIndex": "0x1",
          "removed": false
        },
        {
          "address": "0xd07c30af3ff30d96bdc9c6044958230eb797ddbf",
          "topics": [
            "0x4e0a5bbfa0c11a64effb1ada324b5437a17272e1aed9320398715ef71bb20928"
          ],
          "data": "0x0000000000000000000000003fc877008e396fdd7f9ee3deb2e8a54d54da705a000000000000000000000000000000000000000000000000000000000000767000000000000000000000000000000000000000000000000000000000000000000000000000000000000000000000000000000000000000000000000000000000",
          "blockHash": "0x3d90a83faf6e0b5019046eee5dc081dfe209766441be7fbd43ab0b10fcc0862d",
          "blockNumber": "0x3b0ec86",
          "blockTimestamp": "0x6854b97b",
          "transactionHash": "0x96eac0be5b5123aa229882528a58e934904c05dc29f6760a4d3c9247c62280ed",
          "transactionIndex": "0x0",
          "logIndex": "0x2",
          "removed": false
        },
        {
          "address": "0x000000000000000000000000000000000000800a",
          "topics": [
            "0xddf252ad1be2c89b69c2b068fc378daa952ba7f163c4a11628f55a4df523b3ef",
            "0x0000000000000000000000000000000000000000000000000000000000008001",
            "0x00000000000000000000000045dce8e4f2dc005a5f28206a46cb034697eeda8e"
          ],
          "data": "0x0000000000000000000000000000000000000000000000000000067cc443f7a0",
          "blockHash": "0x3d90a83faf6e0b5019046eee5dc081dfe209766441be7fbd43ab0b10fcc0862d",
          "blockNumber": "0x3b0ec86",
          "blockTimestamp": "0x6854b97b",
          "transactionHash": "0x96eac0be5b5123aa229882528a58e934904c05dc29f6760a4d3c9247c62280ed",
          "transactionIndex": "0x0",
          "logIndex": "0x3",
          "removed": false
        }
      ],
      "logsBloom": "0x00000000000400000000020a00000000000000000000000000000000000000020400000000000000800000000000000000000000000000000000000000000000000000000000040000000008000000000000000000800000000000000000080000000008000000000000000000000000000000000000000000000010000000100000000000000100000004000000000000000000000000000000000000000000000000000000100000000000000000000000000000000000000000000000000000000002008000000000000000000000001000000000000000000000000000000000000000000000000000000000800000000000000000000000000000000000",
      "type": "0x71",
      "transactionHash": "0x96eac0be5b5123aa229882528a58e934904c05dc29f6760a4d3c9247c62280ed",
      "transactionIndex": "0x0",
      "blockHash": "0x3d90a83faf6e0b5019046eee5dc081dfe209766441be7fbd43ab0b10fcc0862d",
      "blockNumber": "0x3b0ec86",
      "gasUsed": "0x18462",
      "effectiveGasPrice": "0x2b275d0",
      "from": "0x45dce8e4f2dc005a5f28206a46cb034697eeda8e",
      "to": "0xd07c30af3ff30d96bdc9c6044958230eb797ddbf",
      "contractAddress": null,
      "l1BatchNumber": null,
      "l1BatchTxIndex": null,
      "l2ToL1Logs": []
    }
  ],
  "libraries": [],
  "pending": [],
  "returns": {},
  "timestamp": 1750382973,
  "chain": 324,
  "commit": "015494f"
}