{
  "transactions": [
    {
      "hash": "0x2436dc3ec1e9fd1f05701f947d8e6a4a1d0d569305b178bd158283714ca11f7f",
      "transactionType": "CALL",
      "contractName": null,
      "contractAddress": "0x3fc877008e396fdd7f9ee3deb2e8a54d54da705a",
      "function": "setEnforcedOptions((uint32,uint16,bytes)[])",
      "arguments": [
        "[(30260, 1, 0x00030100110100000000000000000000000000030d40), (30260, 2, 0x0003010011010000000000000000000000000003d090), (30280, 1, 0x00030100110100000000000000000000000000030d40), (30280, 2, 0x0003010011010000000000000000000000000003d090), (30255, 1, 0x00030100110100000000000000000000000000030d40), (30255, 2, 0x0003010011010000000000000000000000000003d090), (30274, 1, 0x00030100110100000000000000000000000000030d40), (30274, 2, 0x0003010011010000000000000000000000000003d090), (30332, 1, 0x00030100110100000000000000000000000000030d40), (30332, 2, 0x0003010011010000000000000000000000000003d090), (30339, 1, 0x00030100110100000000000000000000000000030d40), (30339, 2, 0x0003010011010000000000000000000000000003d090), (30110, 1, 0x00030100110100000000000000000000000000030d40), (30110, 2, 0x0003010011010000000000000000000000000003d090), (30111, 1, 0x00030100110100000000000000000000000000030d40), (30111, 2, 0x0003010011010000000000000000000000000003d090), (30109, 1, 0x00030100110100000000000000000000000000030d40), (30109, 2, 0x0003010011010000000000000000000000000003d090), (30106, 1, 0x00030100110100000000000000000000000000030d40), (30106, 2, 0x0003010011010000000000000000000000000003d090), (30102, 1, 0x00030100110100000000000000000000000000030d40), (30102, 2, 0x0003010011010000000000000000000000000003d090), (30158, 1, 0x00030100110100000000000000000000000000030d40), (30158, 2, 0x0003010011010000000000000000000000000003d090), (30101, 1, 0x00030100110100000000000000000000000000030d40), (30101, 2, 0x0003010011010000000000000000000000000003d090), (30243, 1, 0x00030100110100000000000000000000000000030d40), (30243, 2, 0x0003010011010000000000000000000000000003d090), (30184, 1, 0x00030100110100000000000000000000000000030d40), (30184, 2, 0x0003010011010000000000000000000000000003d090), (30362, 1, 0x00030100110100000000000000000000000000030d40), (30362, 2, 0x0003010011010000000000000000000000000003d090), (30183, 1, 0x00030100110100000000000000000000000000030d40), (30183, 2, 0x0003010011010000000000000000000000000003d090), (30319, 1, 0x00030100110100000000000000000000000000030d40), (30319, 2, 0x0003010011010000000000000000000000000003d090), (30320, 1, 0x00030100110100000000000000000000000000030d40), (30320, 2, 0x0003010011010000000000000000000000000003d090), (30370, 1, 0x00030100110100000000000000000000000000030d40), (30370, 2, 0x0003010011010000000000000000000000000003d090), (30376, 1, 0x00030100110100000000000000000000000000030d40), (30376, 2, 0x0003010011010000000000000000000000000003d090), (30375, 1, 0x00030100110100000000000000000000000000030d40), (30375, 2, 0x0003010011010000000000000000000000000003d090), (30324, 1, 0x00030100110100000000000000000000000000030d40), (30324, 2, 0x0003010011010000000000000000000000000003d090)]"
      ],
      "transaction": {
        "from": "0x45dce8e4f2dc005a5f28206a46cb034697eeda8e",
        "to": "0x3fc877008e396fdd7f9ee3deb2e8a54d54da705a",
        "gas": "0x107273",
        "value": "0x0",
        "input": "0xb98bd0700000000000000000000000000000000000000000000000000000000000000020000000000000000000000000000000000000000000000000000000000000002e00000000000000000000000000000000000000000000000000000000000005c00000000000000000000000000000000000000000000000000000000000000660000000000000000000000000000000000000000000000000000000000000070000000000000000000000000000000000000000000000000000000000000007a0000000000000000000000000000000000000000000000000000000000000084000000000000000000000000000000000000000000000000000000000000008e000000000000000000000000000000000000000000000000000000000000009800000000000000000000000000000000000000000000000000000000000000a200000000000000000000000000000000000000000000000000000000000000ac00000000000000000000000000000000000000000000000000000000000000b600000000000000000000000000000000000000000000000000000000000000c000000000000000000000000000000000000000000000000000000000000000ca00000000000000000000000000000000000000000000000000000000000000d400000000000000000000000000000000000000000000000000000000000000de00000000000000000000000000000000000000000000000000000000000000e800000000000000000000000000000000000000000000000000000000000000f200000000000000000000000000000000000000000000000000000000000000fc00000000000000000000000000000000000000000000000000000000000001060000000000000000000000000000000000000000000000000000000000000110000000000000000000000000000000000000000000000000000000000000011a0000000000000000000000000000000000000000000000000000000000000124000000000000000000000000000000000000000000000000000000000000012e00000000000000000000000000000000000000000000000000000000000001380000000000000000000000000000000000000000000000000000000000000142000000000000000000000000000000000000000000000000000000000000014c00000000000000000000000000000000000000000000000000000000000001560000000000000000000000000000000000000000000000000000000000000160000000000000000000000000000000000000000000000000000000000000016a0000000000000000000000000000000000000000000000000000000000000174000000000000000000000000000000000000000000000000000000000000017e00000000000000000000000000000000000000000000000000000000000001880000000000000000000000000000000000000000000000000000000000000192000000000000000000000000000000000000000000000000000000000000019c00000000000000000000000000000000000000000000000000000000000001a600000000000000000000000000000000000000000000000000000000000001b000000000000000000000000000000000000000000000000000000000000001ba00000000000000000000000000000000000000000000000000000000000001c400000000000000000000000000000000000000000000000000000000000001ce00000000000000000000000000000000000000000000000000000000000001d800000000000000000000000000000000000000000000000000000000000001e200000000000000000000000000000000000000000000000000000000000001ec00000000000000000000000000000000000000000000000000000000000001f60000000000000000000000000000000000000000000000000000000000000200000000000000000000000000000000000000000000000000000000000000020a0000000000000000000000000000000000000000000000000000000000000214000000000000000000000000000000000000000000000000000000000000021e0000000000000000000000000000000000000000000000000000000000000763400000000000000000000000000000000000000000000000000000000000000010000000000000000000000000000000000000000000000000000000000000060000000000000000000000000000000000000000000000000000000000000001600030100110100000000000000000000000000030d400000000000000000000000000000000000000000000000000000000000000000000000000000000076340000000000000000000000000000000000000000000000000000000000000002000000000000000000000000000000000000000000000000000000000000006000000000000000000000000000000000000000000000000000000000000000160003010011010000000000000000000000000003d09000000000000000000000000000000000000000000000000000000000000000000000000000000000764800000000000000000000000000000000000000000000000000000000000000010000000000000000000000000000000000000000000000000000000000000060000000000000000000000000000000000000000000000000000000000000001600030100110100000000000000000000000000030d400000000000000000000000000000000000000000000000000000000000000000000000000000000076480000000000000000000000000000000000000000000000000000000000000002000000000000000000000000000000000000000000000000000000000000006000000000000000000000000000000000000000000000000000000000000000160003010011010000000000000000000000000003d09000000000000000000000000000000000000000000000000000000000000000000000000000000000762f00000000000000000000000000000000000000000000000000000000000000010000000000000000000000000000000000000000000000000000000000000060000000000000000000000000000000000000000000000000000000000000001600030100110100000000000000000000000000030d4000000000000000000000000000000000000000000000000000000000000000000000000000000000762f0000000000000000000000000000000000000000000000000000000000000002000000000000000000000000000000000000000000000000000000000000006000000000000000000000000000000000000000000000000000000000000000160003010011010000000000000000000000000003d09000000000000000000000000000000000000000000000000000000000000000000000000000000000764200000000000000000000000000000000000000000000000000000000000000010000000000000000000000000000000000000000000000000000000000000060000000000000000000000000000000000000000000000000000000000000001600030100110100000000000000000000000000030d400000000000000000000000000000000000000000000000000000000000000000000000000000000076420000000000000000000000000000000000000000000000000000000000000002000000000000000000000000000000000000000000000000000000000000006000000000000000000000000000000000000000000000000000000000000000160003010011010000000000000000000000000003d09000000000000000000000000000000000000000000000000000000000000000000000000000000000767c00000000000000000000000000000000000000000000000000000000000000010000000000000000000000000000000000000000000000000000000000000060000000000000000000000000000000000000000000000000000000000000001600030100110100000000000000000000000000030d4000000000000000000000000000000000000000000000000000000000000000000000000000000000767c0000000000000000000000000000000000000000000000000000000000000002000000000000000000000000000000000000000000000000000000000000006000000000000000000000000000000000000000000000000000000000000000160003010011010000000000000000000000000003d09000000000000000000000000000000000000000000000000000000000000000000000000000000000768300000000000000000000000000000000000000000000000000000000000000010000000000000000000000000000000000000000000000000000000000000060000000000000000000000000000000000000000000000000000000000000001600030100110100000000000000000000000000030d400000000000000000000000000000000000000000000000000000000000000000000000000000000076830000000000000000000000000000000000000000000000000000000000000002000000000000000000000000000000000000000000000000000000000000006000000000000000000000000000000000000000000000000000000000000000160003010011010000000000000000000000000003d09000000000000000000000000000000000000000000000000000000000000000000000000000000000759e00000000000000000000000000000000000000000000000000000000000000010000000000000000000000000000000000000000000000000000000000000060000000000000000000000000000000000000000000000000000000000000001600030100110100000000000000000000000000030d4000000000000000000000000000000000000000000000000000000000000000000000000000000000759e0000000000000000000000000000000000000000000000000000000000000002000000000000000000000000000000000000000000000000000000000000006000000000000000000000000000000000000000000000000000000000000000160003010011010000000000000000000000000003d09000000000000000000000000000000000000000000000000000000000000000000000000000000000759f00000000000000000000000000000000000000000000000000000000000000010000000000000000000000000000000000000000000000000000000000000060000000000000000000000000000000000000000000000000000000000000001600030100110100000000000000000000000000030d4000000000000000000000000000000000000000000000000000000000000000000000000000000000759f0000000000000000000000000000000000000000000000000000000000000002000000000000000000000000000000000000000000000000000000000000006000000000000000000000000000000000000000000000000000000000000000160003010011010000000000000000000000000003d09000000000000000000000000000000000000000000000000000000000000000000000000000000000759d00000000000000000000000000000000000000000000000000000000000000010000000000000000000000000000000000000000000000000000000000000060000000000000000000000000000000000000000000000000000000000000001600030100110100000000000000000000000000030d4000000000000000000000000000000000000000000000000000000000000000000000000000000000759d0000000000000000000000000000000000000000000000000000000000000002000000000000000000000000000000000000000000000000000000000000006000000000000000000000000000000000000000000000000000000000000000160003010011010000000000000000000000000003d09000000000000000000000000000000000000000000000000000000000000000000000000000000000759a00000000000000000000000000000000000000000000000000000000000000010000000000000000000000000000000000000000000000000000000000000060000000000000000000000000000000000000000000000000000000000000001600030100110100000000000000000000000000030d4000000000000000000000000000000000000000000000000000000000000000000000000000000000759a0000000000000000000000000000000000000000000000000000000000000002000000000000000000000000000000000000000000000000000000000000006000000000000000000000000000000000000000000000000000000000000000160003010011010000000000000000000000000003d09000000000000000000000000000000000000000000000000000000000000000000000000000000000759600000000000000000000000000000000000000000000000000000000000000010000000000000000000000000000000000000000000000000000000000000060000000000000000000000000000000000000000000000000000000000000001600030100110100000000000000000000000000030d400000000000000000000000000000000000000000000000000000000000000000000000000000000075960000000000000000000000000000000000000000000000000000000000000002000000000000000000000000000000000000000000000000000000000000006000000000000000000000000000000000000000000000000000000000000000160003010011010000000000000000000000000003d0900000000000000000000000000000000000000000000000000000000000000000000000000000000075ce00000000000000000000000000000000000000000000000000000000000000010000000000000000000000000000000000000000000000000000000000000060000000000000000000000000000000000000000000000000000000000000001600030100110100000000000000000000000000030d400000000000000000000000000000000000000000000000000000000000000000000000000000000075ce0000000000000000000000000000000000000000000000000000000000000002000000000000000000000000000000000000000000000000000000000000006000000000000000000000000000000000000000000000000000000000000000160003010011010000000000000000000000000003d09000000000000000000000000000000000000000000000000000000000000000000000000000000000759500000000000000000000000000000000000000000000000000000000000000010000000000000000000000000000000000000000000000000000000000000060000000000000000000000000000000000000000000000000000000000000001600030100110100000000000000000000000000030d400000000000000000000000000000000000000000000000000000000000000000000000000000000075950000000000000000000000000000000000000000000000000000000000000002000000000000000000000000000000000000000000000000000000000000006000000000000000000000000000000000000000000000000000000000000000160003010011010000000000000000000000000003d09000000000000000000000000000000000000000000000000000000000000000000000000000000000762300000000000000000000000000000000000000000000000000000000000000010000000000000000000000000000000000000000000000000000000000000060000000000000000000000000000000000000000000000000000000000000001600030100110100000000000000000000000000030d400000000000000000000000000000000000000000000000000000000000000000000000000000000076230000000000000000000000000000000000000000000000000000000000000002000000000000000000000000000000000000000000000000000000000000006000000000000000000000000000000000000000000000000000000000000000160003010011010000000000000000000000000003d0900000000000000000000000000000000000000000000000000000000000000000000000000000000075e800000000000000000000000000000000000000000000000000000000000000010000000000000000000000000000000000000000000000000000000000000060000000000000000000000000000000000000000000000000000000000000001600030100110100000000000000000000000000030d400000000000000000000000000000000000000000000000000000000000000000000000000000000075e80000000000000000000000000000000000000000000000000000000000000002000000000000000000000000000000000000000000000000000000000000006000000000000000000000000000000000000000000000000000000000000000160003010011010000000000000000000000000003d09000000000000000000000000000000000000000000000000000000000000000000000000000000000769a00000000000000000000000000000000000000000000000000000000000000010000000000000000000000000000000000000000000000000000000000000060000000000000000000000000000000000000000000000000000000000000001600030100110100000000000000000000000000030d4000000000000000000000000000000000000000000000000000000000000000000000000000000000769a0000000000000000000000000000000000000000000000000000000000000002000000000000000000000000000000000000000000000000000000000000006000000000000000000000000000000000000000000000000000000000000000160003010011010000000000000000000000000003d0900000000000000000000000000000000000000000000000000000000000000000000000000000000075e700000000000000000000000000000000000000000000000000000000000000010000000000000000000000000000000000000000000000000000000000000060000000000000000000000000000000000000000000000000000000000000001600030100110100000000000000000000000000030d400000000000000000000000000000000000000000000000000000000000000000000000000000000075e70000000000000000000000000000000000000000000000000000000000000002000000000000000000000000000000000000000000000000000000000000006000000000000000000000000000000000000000000000000000000000000000160003010011010000000000000000000000000003d09000000000000000000000000000000000000000000000000000000000000000000000000000000000766f00000000000000000000000000000000000000000000000000000000000000010000000000000000000000000000000000000000000000000000000000000060000000000000000000000000000000000000000000000000000000000000001600030100110100000000000000000000000000030d4000000000000000000000000000000000000000000000000000000000000000000000000000000000766f0000000000000000000000000000000000000000000000000000000000000002000000000000000000000000000000000000000000000000000000000000006000000000000000000000000000000000000000000000000000000000000000160003010011010000000000000000000000000003d09000000000000000000000000000000000000000000000000000000000000000000000000000000000767000000000000000000000000000000000000000000000000000000000000000010000000000000000000000000000000000000000000000000000000000000060000000000000000000000000000000000000000000000000000000000000001600030100110100000000000000000000000000030d400000000000000000000000000000000000000000000000000000000000000000000000000000000076700000000000000000000000000000000000000000000000000000000000000002000000000000000000000000000000000000000000000000000000000000006000000000000000000000000000000000000000000000000000000000000000160003010011010000000000000000000000000003d0900000000000000000000000000000000000000000000000000000000000000000000000000000000076a200000000000000000000000000000000000000000000000000000000000000010000000000000000000000000000000000000000000000000000000000000060000000000000000000000000000000000000000000000000000000000000001600030100110100000000000000000000000000030d400000000000000000000000000000000000000000000000000000000000000000000000000000000076a20000000000000000000000000000000000000000000000000000000000000002000000000000000000000000000000000000000000000000000000000000006000000000000000000000000000000000000000000000000000000000000000160003010011010000000000000000000000000003d0900000000000000000000000000000000000000000000000000000000000000000000000000000000076a800000000000000000000000000000000000000000000000000000000000000010000000000000000000000000000000000000000000000000000000000000060000000000000000000000000000000000000000000000000000000000000001600030100110100000000000000000000000000030d400000000000000000000000000000000000000000000000000000000000000000000000000000000076a80000000000000000000000000000000000000000000000000000000000000002000000000000000000000000000000000000000000000000000000000000006000000000000000000000000000000000000000000000000000000000000000160003010011010000000000000000000000000003d0900000000000000000000000000000000000000000000000000000000000000000000000000000000076a700000000000000000000000000000000000000000000000000000000000000010000000000000000000000000000000000000000000000000000000000000060000000000000000000000000000000000000000000000000000000000000001600030100110100000000000000000000000000030d400000000000000000000000000000000000000000000000000000000000000000000000000000000076a70000000000000000000000000000000000000000000000000000000000000002000000000000000000000000000000000000000000000000000000000000006000000000000000000000000000000000000000000000000000000000000000160003010011010000000000000000000000000003d09000000000000000000000000000000000000000000000000000000000000000000000000000000000767400000000000000000000000000000000000000000000000000000000000000010000000000000000000000000000000000000000000000000000000000000060000000000000000000000000000000000000000000000000000000000000001600030100110100000000000000000000000000030d400000000000000000000000000000000000000000000000000000000000000000000000000000000076740000000000000000000000000000000000000000000000000000000000000002000000000000000000000000000000000000000000000000000000000000006000000000000000000000000000000000000000000000000000000000000000160003010011010000000000000000000000000003d09000000000000000000000",
        "nonce": "0x8a",
        "chainId": "0x144",
        "zksync": {
          "factoryDeps": [],
          "paymasterData": null
        }
      },
      "additionalContracts": [],
      "isFixedGasLimit": false
    },
    {
      "hash": "0x58b841dab82833c17d11ea8e8dd355022714adcec1c5ccb083bca9dbfdc02e39",
      "transactionType": "CALL",
      "contractName": null,
      "contractAddress": "0x3fc877008e396fdd7f9ee3deb2e8a54d54da705a",
      "function": "setPeer(uint32,bytes32)",
      "arguments": [
        "30370",
        "0x00000000000000000000000057558cb8d6005de0bae8a2789d5efaae52dba5a8"
      ],
      "transaction": {
        "from": "0x45dce8e4f2dc005a5f28206a46cb034697eeda8e",
        "to": "0x3fc877008e396fdd7f9ee3deb2e8a54d54da705a",
        "gas": "0x32bc8",
        "value": "0x0",
        "input": "0x3400288b00000000000000000000000000000000000000000000000000000000000076a200000000000000000000000057558cb8d6005de0bae8a2789d5efaae52dba5a8",
        "nonce": "0x8b",
        "chainId": "0x144",
        "zksync": {
          "factoryDeps": [],
          "paymasterData": null
        }
      },
      "additionalContracts": [],
      "isFixedGasLimit": false
    },
    {
      "hash": "0xef2ca91aa1e86d1436497887216146c03dba35cf61388527262826d5893aa7a4",
      "transactionType": "CALL",
      "contractName": null,
      "contractAddress": "0x3fc877008e396fdd7f9ee3deb2e8a54d54da705a",
      "function": "setPeer(uint32,bytes32)",
      "arguments": [
        "30376",
        "0x00000000000000000000000057558cb8d6005de0bae8a2789d5efaae52dba5a8"
      ],
      "transaction": {
        "from": "0x45dce8e4f2dc005a5f28206a46cb034697eeda8e",
        "to": "0x3fc877008e396fdd7f9ee3deb2e8a54d54da705a",
        "gas": "0x32bc8",
        "value": "0x0",
        "input": "0x3400288b00000000000000000000000000000000000000000000000000000000000076a800000000000000000000000057558cb8d6005de0bae8a2789d5efaae52dba5a8",
        "nonce": "0x8c",
        "chainId": "0x144",
        "zksync": {
          "factoryDeps": [],
          "paymasterData": null
        }
      },
      "additionalContracts": [],
      "isFixedGasLimit": false
    },
    {
      "hash": "0xc1759201e2a9f928510e23fe70602556d1af128403c94fff20bc4edf197ee4a6",
      "transactionType": "CALL",
      "contractName": null,
      "contractAddress": "0x3fc877008e396fdd7f9ee3deb2e8a54d54da705a",
      "function": "setPeer(uint32,bytes32)",
      "arguments": [
        "30375",
        "0x00000000000000000000000057558cb8d6005de0bae8a2789d5efaae52dba5a8"
      ],
      "transaction": {
        "from": "0x45dce8e4f2dc005a5f28206a46cb034697eeda8e",
        "to": "0x3fc877008e396fdd7f9ee3deb2e8a54d54da705a",
        "gas": "0x32bc8",
        "value": "0x0",
        "input": "0x3400288b00000000000000000000000000000000000000000000000000000000000076a700000000000000000000000057558cb8d6005de0bae8a2789d5efaae52dba5a8",
        "nonce": "0x8d",
        "chainId": "0x144",
        "zksync": {
          "factoryDeps": [],
          "paymasterData": null
        }
      },
      "additionalContracts": [],
      "isFixedGasLimit": false
    },
    {
      "hash": "0x5812bacc32796e9a5ea290b6746866dd885f9b6002969f39bf5aba4d52208f9a",
      "transactionType": "CALL",
      "contractName": null,
      "contractAddress": "0xd07c30af3ff30d96bdc9c6044958230eb797ddbf",
      "function": "setConfig(address,address,(uint32,uint32,bytes)[])",
      "arguments": [
        "0x3Fc877008e396FdD7f9Ee3Deb2e8A54d54da705A",
        "0x07fD0e370B49919cA8dA0CE842B8177263c0E12c",
        "[(30375, 2, 0x0000000000000000000000000000000000000000000000000000000000000020000000000000000000000000000000000000000000000000000000000000000000000000000000000000000000000000000000000000000000000000000000030000000000000000000000000000000000000000000000000000000000000000000000000000000000000000000000000000000000000000000000000000000000000000000000000000000000000000000000000000000000000000000000c0000000000000000000000000000000000000000000000000000000000000014000000000000000000000000000000000000000000000000000000000000000030000000000000000000000002eb85384cad49a67ebd8e2afb0f72b3f586baf03000000000000000000000000620a9df73d2f1015ea75aea1067227f9013f5c51000000000000000000000000b183c2b91cf76cad13602b32ada2fd273f19009c0000000000000000000000000000000000000000000000000000000000000000)]"
      ],
      "transaction": {
        "from": "0x45dce8e4f2dc005a5f28206a46cb034697eeda8e",
        "to": "0xd07c30af3ff30d96bdc9c6044958230eb797ddbf",
        "gas": "0x63e40",
        "value": "0x0",
        "input": "0x6dbd9f900000000000000000000000003fc877008e396fdd7f9ee3deb2e8a54d54da705a00000000000000000000000007fd0e370b49919ca8da0ce842b8177263c0e12c00000000000000000000000000000000000000000000000000000000000000600000000000000000000000000000000000000000000000000000000000000001000000000000000000000000000000000000000000000000000000000000002000000000000000000000000000000000000000000000000000000000000076a70000000000000000000000000000000000000000000000000000000000000002000000000000000000000000000000000000000000000000000000000000006000000000000000000000000000000000000000000000000000000000000001800000000000000000000000000000000000000000000000000000000000000020000000000000000000000000000000000000000000000000000000000000000000000000000000000000000000000000000000000000000000000000000000030000000000000000000000000000000000000000000000000000000000000000000000000000000000000000000000000000000000000000000000000000000000000000000000000000000000000000000000000000000000000000000000c0000000000000000000000000000000000000000000000000000000000000014000000000000000000000000000000000000000000000000000000000000000030000000000000000000000002eb85384cad49a67ebd8e2afb0f72b3f586baf03000000000000000000000000620a9df73d2f1015ea75aea1067227f9013f5c51000000000000000000000000b183c2b91cf76cad13602b32ada2fd273f19009c0000000000000000000000000000000000000000000000000000000000000000",
        "nonce": "0x8e",
        "chainId": "0x144",
        "zksync": {
          "factoryDeps": [],
          "paymasterData": null
        }
      },
      "additionalContracts": [],
      "isFixedGasLimit": false
    },
    {
      "hash": "0x95f249330ba431010b3a521bd6dcafec9e99da8868d8b230d074605f6509106e",
      "transactionType": "CALL",
      "contractName": null,
      "contractAddress": "0xd07c30af3ff30d96bdc9c6044958230eb797ddbf",
      "function": "setConfig(address,address,(uint32,uint32,bytes)[])",
      "arguments": [
        "0x3Fc877008e396FdD7f9Ee3Deb2e8A54d54da705A",
        "0x04830f6deCF08Dec9eD6C3fCAD215245B78A59e1",
        "[(30375, 2, 0x0000000000000000000000000000000000000000000000000000000000000020000000000000000000000000000000000000000000000000000000000000000000000000000000000000000000000000000000000000000000000000000000030000000000000000000000000000000000000000000000000000000000000000000000000000000000000000000000000000000000000000000000000000000000000000000000000000000000000000000000000000000000000000000000c0000000000000000000000000000000000000000000000000000000000000014000000000000000000000000000000000000000000000000000000000000000030000000000000000000000002eb85384cad49a67ebd8e2afb0f72b3f586baf03000000000000000000000000620a9df73d2f1015ea75aea1067227f9013f5c51000000000000000000000000b183c2b91cf76cad13602b32ada2fd273f19009c0000000000000000000000000000000000000000000000000000000000000000)]"
      ],
      "transaction": {
        "from": "0x45dce8e4f2dc005a5f28206a46cb034697eeda8e",
        "to": "0xd07c30af3ff30d96bdc9c6044958230eb797ddbf",
        "gas": "0x61ca9",
        "value": "0x0",
        "input": "0x6dbd9f900000000000000000000000003fc877008e396fdd7f9ee3deb2e8a54d54da705a00000000000000000000000004830f6decf08dec9ed6c3fcad215245b78a59e100000000000000000000000000000000000000000000000000000000000000600000000000000000000000000000000000000000000000000000000000000001000000000000000000000000000000000000000000000000000000000000002000000000000000000000000000000000000000000000000000000000000076a70000000000000000000000000000000000000000000000000000000000000002000000000000000000000000000000000000000000000000000000000000006000000000000000000000000000000000000000000000000000000000000001800000000000000000000000000000000000000000000000000000000000000020000000000000000000000000000000000000000000000000000000000000000000000000000000000000000000000000000000000000000000000000000000030000000000000000000000000000000000000000000000000000000000000000000000000000000000000000000000000000000000000000000000000000000000000000000000000000000000000000000000000000000000000000000000c0000000000000000000000000000000000000000000000000000000000000014000000000000000000000000000000000000000000000000000000000000000030000000000000000000000002eb85384cad49a67ebd8e2afb0f72b3f586baf03000000000000000000000000620a9df73d2f1015ea75aea1067227f9013f5c51000000000000000000000000b183c2b91cf76cad13602b32ada2fd273f19009c0000000000000000000000000000000000000000000000000000000000000000",
        "nonce": "0x8f",
        "chainId": "0x144",
        "zksync": {
          "factoryDeps": [],
          "paymasterData": null
        }
      },
      "additionalContracts": [],
      "isFixedGasLimit": false
    },
    {
      "hash": "0x969e2b59227db7850a26aa83f4b06105811cf4120a1cb2fed4f1b07cb36720c4",
      "transactionType": "CALL",
      "contractName": null,
      "contractAddress": "0xd07c30af3ff30d96bdc9c6044958230eb797ddbf",
      "function": "setSendLibrary(address,uint32,address)",
      "arguments": [
        "0x3Fc877008e396FdD7f9Ee3Deb2e8A54d54da705A",
        "30375",
        "0x07fD0e370B49919cA8dA0CE842B8177263c0E12c"
      ],
      "transaction": {
        "from": "0x45dce8e4f2dc005a5f28206a46cb034697eeda8e",
        "to": "0xd07c30af3ff30d96bdc9c6044958230eb797ddbf",
        "gas": "0x38dec",
        "value": "0x0",
        "input": "0x9535ff300000000000000000000000003fc877008e396fdd7f9ee3deb2e8a54d54da705a00000000000000000000000000000000000000000000000000000000000076a700000000000000000000000007fd0e370b49919ca8da0ce842b8177263c0e12c",
        "nonce": "0x90",
        "chainId": "0x144",
        "zksync": {
          "factoryDeps": [],
          "paymasterData": null
        }
      },
      "additionalContracts": [],
      "isFixedGasLimit": false
    },
    {
      "hash": "0x1a5a379a86bf3c86f7570bc065da89d3d4a488e7dacc58994a15af05dbf03987",
      "transactionType": "CALL",
      "contractName": null,
      "contractAddress": "0xd07c30af3ff30d96bdc9c6044958230eb797ddbf",
      "function": "setReceiveLibrary(address,uint32,address,uint256)",
      "arguments": [
        "0x3Fc877008e396FdD7f9Ee3Deb2e8A54d54da705A",
        "30375",
        "0x04830f6deCF08Dec9eD6C3fCAD215245B78A59e1",
        "0"
      ],
      "transaction": {
        "from": "0x45dce8e4f2dc005a5f28206a46cb034697eeda8e",
        "to": "0xd07c30af3ff30d96bdc9c6044958230eb797ddbf",
        "gas": "0x3b373",
        "value": "0x0",
        "input": "0x6a14d7150000000000000000000000003fc877008e396fdd7f9ee3deb2e8a54d54da705a00000000000000000000000000000000000000000000000000000000000076a700000000000000000000000004830f6decf08dec9ed6c3fcad215245b78a59e10000000000000000000000000000000000000000000000000000000000000000",
        "nonce": "0x91",
        "chainId": "0x144",
        "zksync": {
          "factoryDeps": [],
          "paymasterData": null
        }
      },
      "additionalContracts": [],
      "isFixedGasLimit": false
    }
  ],
  "receipts": [
    {
      "status": "0x1",
      "cumulativeGasUsed": "0x0",
      "logs": [
        {
          "address": "0x000000000000000000000000000000000000800a",
          "topics": [
            "0xddf252ad1be2c89b69c2b068fc378daa952ba7f163c4a11628f55a4df523b3ef",
            "0x00000000000000000000000045dce8e4f2dc005a5f28206a46cb034697eeda8e",
            "0x0000000000000000000000000000000000000000000000000000000000008001"
          ],
          "data": "0x000000000000000000000000000000000000000000000000000025d5dc262870",
          "blockHash": "0xdd03bb359a574f694cb60b198731109c54a1cca81f49209c67cfaba53b976917",
          "blockNumber": "0x3c9dcda",
          "blockTimestamp": "0x688aedac",
          "transactionHash": "0x2436dc3ec1e9fd1f05701f947d8e6a4a1d0d569305b178bd158283714ca11f7f",
          "transactionIndex": "0x0",
          "logIndex": "0x0",
          "removed": false
        },
        {
          "address": "0x3fc877008e396fdd7f9ee3deb2e8a54d54da705a",
          "topics": [
            "0xbe4864a8e820971c0247f5992e2da559595f7bf076a21cb5928d443d2a13b674"
          ],
          "data": "0x0000000000000000000000000000000000000000000000000000000000000020000000000000000000000000000000000000000000000000000000000000002e00000000000000000000000000000000000000000000000000000000000005c00000000000000000000000000000000000000000000000000000000000000660000000000000000000000000000000000000000000000000000000000000070000000000000000000000000000000000000000000000000000000000000007a0000000000000000000000000000000000000000000000000000000000000084000000000000000000000000000000000000000000000000000000000000008e000000000000000000000000000000000000000000000000000000000000009800000000000000000000000000000000000000000000000000000000000000a200000000000000000000000000000000000000000000000000000000000000ac00000000000000000000000000000000000000000000000000000000000000b600000000000000000000000000000000000000000000000000000000000000c000000000000000000000000000000000000000000000000000000000000000ca00000000000000000000000000000000000000000000000000000000000000d400000000000000000000000000000000000000000000000000000000000000de00000000000000000000000000000000000000000000000000000000000000e800000000000000000000000000000000000000000000000000000000000000f200000000000000000000000000000000000000000000000000000000000000fc00000000000000000000000000000000000000000000000000000000000001060000000000000000000000000000000000000000000000000000000000000110000000000000000000000000000000000000000000000000000000000000011a0000000000000000000000000000000000000000000000000000000000000124000000000000000000000000000000000000000000000000000000000000012e00000000000000000000000000000000000000000000000000000000000001380000000000000000000000000000000000000000000000000000000000000142000000000000000000000000000000000000000000000000000000000000014c00000000000000000000000000000000000000000000000000000000000001560000000000000000000000000000000000000000000000000000000000000160000000000000000000000000000000000000000000000000000000000000016a0000000000000000000000000000000000000000000000000000000000000174000000000000000000000000000000000000000000000000000000000000017e00000000000000000000000000000000000000000000000000000000000001880000000000000000000000000000000000000000000000000000000000000192000000000000000000000000000000000000000000000000000000000000019c00000000000000000000000000000000000000000000000000000000000001a600000000000000000000000000000000000000000000000000000000000001b000000000000000000000000000000000000000000000000000000000000001ba00000000000000000000000000000000000000000000000000000000000001c400000000000000000000000000000000000000000000000000000000000001ce00000000000000000000000000000000000000000000000000000000000001d800000000000000000000000000000000000000000000000000000000000001e200000000000000000000000000000000000000000000000000000000000001ec00000000000000000000000000000000000000000000000000000000000001f60000000000000000000000000000000000000000000000000000000000000200000000000000000000000000000000000000000000000000000000000000020a0000000000000000000000000000000000000000000000000000000000000214000000000000000000000000000000000000000000000000000000000000021e0000000000000000000000000000000000000000000000000000000000000763400000000000000000000000000000000000000000000000000000000000000010000000000000000000000000000000000000000000000000000000000000060000000000000000000000000000000000000000000000000000000000000001600030100110100000000000000000000000000030d400000000000000000000000000000000000000000000000000000000000000000000000000000000076340000000000000000000000000000000000000000000000000000000000000002000000000000000000000000000000000000000000000000000000000000006000000000000000000000000000000000000000000000000000000000000000160003010011010000000000000000000000000003d09000000000000000000000000000000000000000000000000000000000000000000000000000000000764800000000000000000000000000000000000000000000000000000000000000010000000000000000000000000000000000000000000000000000000000000060000000000000000000000000000000000000000000000000000000000000001600030100110100000000000000000000000000030d400000000000000000000000000000000000000000000000000000000000000000000000000000000076480000000000000000000000000000000000000000000000000000000000000002000000000000000000000000000000000000000000000000000000000000006000000000000000000000000000000000000000000000000000000000000000160003010011010000000000000000000000000003d09000000000000000000000000000000000000000000000000000000000000000000000000000000000762f00000000000000000000000000000000000000000000000000000000000000010000000000000000000000000000000000000000000000000000000000000060000000000000000000000000000000000000000000000000000000000000001600030100110100000000000000000000000000030d4000000000000000000000000000000000000000000000000000000000000000000000000000000000762f0000000000000000000000000000000000000000000000000000000000000002000000000000000000000000000000000000000000000000000000000000006000000000000000000000000000000000000000000000000000000000000000160003010011010000000000000000000000000003d09000000000000000000000000000000000000000000000000000000000000000000000000000000000764200000000000000000000000000000000000000000000000000000000000000010000000000000000000000000000000000000000000000000000000000000060000000000000000000000000000000000000000000000000000000000000001600030100110100000000000000000000000000030d400000000000000000000000000000000000000000000000000000000000000000000000000000000076420000000000000000000000000000000000000000000000000000000000000002000000000000000000000000000000000000000000000000000000000000006000000000000000000000000000000000000000000000000000000000000000160003010011010000000000000000000000000003d09000000000000000000000000000000000000000000000000000000000000000000000000000000000767c00000000000000000000000000000000000000000000000000000000000000010000000000000000000000000000000000000000000000000000000000000060000000000000000000000000000000000000000000000000000000000000001600030100110100000000000000000000000000030d4000000000000000000000000000000000000000000000000000000000000000000000000000000000767c0000000000000000000000000000000000000000000000000000000000000002000000000000000000000000000000000000000000000000000000000000006000000000000000000000000000000000000000000000000000000000000000160003010011010000000000000000000000000003d09000000000000000000000000000000000000000000000000000000000000000000000000000000000768300000000000000000000000000000000000000000000000000000000000000010000000000000000000000000000000000000000000000000000000000000060000000000000000000000000000000000000000000000000000000000000001600030100110100000000000000000000000000030d400000000000000000000000000000000000000000000000000000000000000000000000000000000076830000000000000000000000000000000000000000000000000000000000000002000000000000000000000000000000000000000000000000000000000000006000000000000000000000000000000000000000000000000000000000000000160003010011010000000000000000000000000003d09000000000000000000000000000000000000000000000000000000000000000000000000000000000759e00000000000000000000000000000000000000000000000000000000000000010000000000000000000000000000000000000000000000000000000000000060000000000000000000000000000000000000000000000000000000000000001600030100110100000000000000000000000000030d4000000000000000000000000000000000000000000000000000000000000000000000000000000000759e0000000000000000000000000000000000000000000000000000000000000002000000000000000000000000000000000000000000000000000000000000006000000000000000000000000000000000000000000000000000000000000000160003010011010000000000000000000000000003d09000000000000000000000000000000000000000000000000000000000000000000000000000000000759f00000000000000000000000000000000000000000000000000000000000000010000000000000000000000000000000000000000000000000000000000000060000000000000000000000000000000000000000000000000000000000000001600030100110100000000000000000000000000030d4000000000000000000000000000000000000000000000000000000000000000000000000000000000759f0000000000000000000000000000000000000000000000000000000000000002000000000000000000000000000000000000000000000000000000000000006000000000000000000000000000000000000000000000000000000000000000160003010011010000000000000000000000000003d09000000000000000000000000000000000000000000000000000000000000000000000000000000000759d00000000000000000000000000000000000000000000000000000000000000010000000000000000000000000000000000000000000000000000000000000060000000000000000000000000000000000000000000000000000000000000001600030100110100000000000000000000000000030d4000000000000000000000000000000000000000000000000000000000000000000000000000000000759d0000000000000000000000000000000000000000000000000000000000000002000000000000000000000000000000000000000000000000000000000000006000000000000000000000000000000000000000000000000000000000000000160003010011010000000000000000000000000003d09000000000000000000000000000000000000000000000000000000000000000000000000000000000759a00000000000000000000000000000000000000000000000000000000000000010000000000000000000000000000000000000000000000000000000000000060000000000000000000000000000000000000000000000000000000000000001600030100110100000000000000000000000000030d4000000000000000000000000000000000000000000000000000000000000000000000000000000000759a0000000000000000000000000000000000000000000000000000000000000002000000000000000000000000000000000000000000000000000000000000006000000000000000000000000000000000000000000000000000000000000000160003010011010000000000000000000000000003d09000000000000000000000000000000000000000000000000000000000000000000000000000000000759600000000000000000000000000000000000000000000000000000000000000010000000000000000000000000000000000000000000000000000000000000060000000000000000000000000000000000000000000000000000000000000001600030100110100000000000000000000000000030d400000000000000000000000000000000000000000000000000000000000000000000000000000000075960000000000000000000000000000000000000000000000000000000000000002000000000000000000000000000000000000000000000000000000000000006000000000000000000000000000000000000000000000000000000000000000160003010011010000000000000000000000000003d0900000000000000000000000000000000000000000000000000000000000000000000000000000000075ce00000000000000000000000000000000000000000000000000000000000000010000000000000000000000000000000000000000000000000000000000000060000000000000000000000000000000000000000000000000000000000000001600030100110100000000000000000000000000030d400000000000000000000000000000000000000000000000000000000000000000000000000000000075ce0000000000000000000000000000000000000000000000000000000000000002000000000000000000000000000000000000000000000000000000000000006000000000000000000000000000000000000000000000000000000000000000160003010011010000000000000000000000000003d09000000000000000000000000000000000000000000000000000000000000000000000000000000000759500000000000000000000000000000000000000000000000000000000000000010000000000000000000000000000000000000000000000000000000000000060000000000000000000000000000000000000000000000000000000000000001600030100110100000000000000000000000000030d400000000000000000000000000000000000000000000000000000000000000000000000000000000075950000000000000000000000000000000000000000000000000000000000000002000000000000000000000000000000000000000000000000000000000000006000000000000000000000000000000000000000000000000000000000000000160003010011010000000000000000000000000003d09000000000000000000000000000000000000000000000000000000000000000000000000000000000762300000000000000000000000000000000000000000000000000000000000000010000000000000000000000000000000000000000000000000000000000000060000000000000000000000000000000000000000000000000000000000000001600030100110100000000000000000000000000030d400000000000000000000000000000000000000000000000000000000000000000000000000000000076230000000000000000000000000000000000000000000000000000000000000002000000000000000000000000000000000000000000000000000000000000006000000000000000000000000000000000000000000000000000000000000000160003010011010000000000000000000000000003d0900000000000000000000000000000000000000000000000000000000000000000000000000000000075e800000000000000000000000000000000000000000000000000000000000000010000000000000000000000000000000000000000000000000000000000000060000000000000000000000000000000000000000000000000000000000000001600030100110100000000000000000000000000030d400000000000000000000000000000000000000000000000000000000000000000000000000000000075e80000000000000000000000000000000000000000000000000000000000000002000000000000000000000000000000000000000000000000000000000000006000000000000000000000000000000000000000000000000000000000000000160003010011010000000000000000000000000003d09000000000000000000000000000000000000000000000000000000000000000000000000000000000769a00000000000000000000000000000000000000000000000000000000000000010000000000000000000000000000000000000000000000000000000000000060000000000000000000000000000000000000000000000000000000000000001600030100110100000000000000000000000000030d4000000000000000000000000000000000000000000000000000000000000000000000000000000000769a0000000000000000000000000000000000000000000000000000000000000002000000000000000000000000000000000000000000000000000000000000006000000000000000000000000000000000000000000000000000000000000000160003010011010000000000000000000000000003d0900000000000000000000000000000000000000000000000000000000000000000000000000000000075e700000000000000000000000000000000000000000000000000000000000000010000000000000000000000000000000000000000000000000000000000000060000000000000000000000000000000000000000000000000000000000000001600030100110100000000000000000000000000030d400000000000000000000000000000000000000000000000000000000000000000000000000000000075e70000000000000000000000000000000000000000000000000000000000000002000000000000000000000000000000000000000000000000000000000000006000000000000000000000000000000000000000000000000000000000000000160003010011010000000000000000000000000003d09000000000000000000000000000000000000000000000000000000000000000000000000000000000766f00000000000000000000000000000000000000000000000000000000000000010000000000000000000000000000000000000000000000000000000000000060000000000000000000000000000000000000000000000000000000000000001600030100110100000000000000000000000000030d4000000000000000000000000000000000000000000000000000000000000000000000000000000000766f0000000000000000000000000000000000000000000000000000000000000002000000000000000000000000000000000000000000000000000000000000006000000000000000000000000000000000000000000000000000000000000000160003010011010000000000000000000000000003d09000000000000000000000000000000000000000000000000000000000000000000000000000000000767000000000000000000000000000000000000000000000000000000000000000010000000000000000000000000000000000000000000000000000000000000060000000000000000000000000000000000000000000000000000000000000001600030100110100000000000000000000000000030d400000000000000000000000000000000000000000000000000000000000000000000000000000000076700000000000000000000000000000000000000000000000000000000000000002000000000000000000000000000000000000000000000000000000000000006000000000000000000000000000000000000000000000000000000000000000160003010011010000000000000000000000000003d0900000000000000000000000000000000000000000000000000000000000000000000000000000000076a200000000000000000000000000000000000000000000000000000000000000010000000000000000000000000000000000000000000000000000000000000060000000000000000000000000000000000000000000000000000000000000001600030100110100000000000000000000000000030d400000000000000000000000000000000000000000000000000000000000000000000000000000000076a20000000000000000000000000000000000000000000000000000000000000002000000000000000000000000000000000000000000000000000000000000006000000000000000000000000000000000000000000000000000000000000000160003010011010000000000000000000000000003d0900000000000000000000000000000000000000000000000000000000000000000000000000000000076a800000000000000000000000000000000000000000000000000000000000000010000000000000000000000000000000000000000000000000000000000000060000000000000000000000000000000000000000000000000000000000000001600030100110100000000000000000000000000030d400000000000000000000000000000000000000000000000000000000000000000000000000000000076a80000000000000000000000000000000000000000000000000000000000000002000000000000000000000000000000000000000000000000000000000000006000000000000000000000000000000000000000000000000000000000000000160003010011010000000000000000000000000003d0900000000000000000000000000000000000000000000000000000000000000000000000000000000076a700000000000000000000000000000000000000000000000000000000000000010000000000000000000000000000000000000000000000000000000000000060000000000000000000000000000000000000000000000000000000000000001600030100110100000000000000000000000000030d400000000000000000000000000000000000000000000000000000000000000000000000000000000076a70000000000000000000000000000000000000000000000000000000000000002000000000000000000000000000000000000000000000000000000000000006000000000000000000000000000000000000000000000000000000000000000160003010011010000000000000000000000000003d09000000000000000000000000000000000000000000000000000000000000000000000000000000000767400000000000000000000000000000000000000000000000000000000000000010000000000000000000000000000000000000000000000000000000000000060000000000000000000000000000000000000000000000000000000000000001600030100110100000000000000000000000000030d400000000000000000000000000000000000000000000000000000000000000000000000000000000076740000000000000000000000000000000000000000000000000000000000000002000000000000000000000000000000000000000000000000000000000000006000000000000000000000000000000000000000000000000000000000000000160003010011010000000000000000000000000003d09000000000000000000000",
          "blockHash": "0xdd03bb359a574f694cb60b198731109c54a1cca81f49209c67cfaba53b976917",
          "blockNumber": "0x3c9dcda",
          "blockTimestamp": "0x688aedac",
          "transactionHash": "0x2436dc3ec1e9fd1f05701f947d8e6a4a1d0d569305b178bd158283714ca11f7f",
          "transactionIndex": "0x0",
          "logIndex": "0x1",
          "removed": false
        },
        {
          "address": "0x000000000000000000000000000000000000800a",
          "topics": [
            "0xddf252ad1be2c89b69c2b068fc378daa952ba7f163c4a11628f55a4df523b3ef",
            "0x0000000000000000000000000000000000000000000000000000000000008001",
            "0x00000000000000000000000045dce8e4f2dc005a5f28206a46cb034697eeda8e"
          ],
          "data": "0x0000000000000000000000000000000000000000000000000000103861562ad0",
          "blockHash": "0xdd03bb359a574f694cb60b198731109c54a1cca81f49209c67cfaba53b976917",
          "blockNumber": "0x3c9dcda",
          "blockTimestamp": "0x688aedac",
          "transactionHash": "0x2436dc3ec1e9fd1f05701f947d8e6a4a1d0d569305b178bd158283714ca11f7f",
          "transactionIndex": "0x0",
          "logIndex": "0x2",
          "removed": false
        }
      ],
      "logsBloom": "0x00000000000400000000000200000000000000000000000000000000000000000000000000000000000000000000000000000000000000000000401000000000000000000000040000000008000000000000000000000000000000000000080000000000000000000000000000000000000000000000000000000010000000000000000000000000000004000000000000000000000000000000000000080000000000000000101000000000000000000000000000000000000000000000000000000002008000000000000002000000001000000000000000000000000000000000000000000000000000000000800000000000000000000000001000000000",
      "type": "0x71",
      "transactionHash": "0x2436dc3ec1e9fd1f05701f947d8e6a4a1d0d569305b178bd158283714ca11f7f",
      "transactionIndex": "0x0",
      "blockHash": "0xdd03bb359a574f694cb60b198731109c54a1cca81f49209c67cfaba53b976917",
      "blockNumber": "0x3c9dcda",
      "gasUsed": "0x803a2",
      "effectiveGasPrice": "0x2b275d0",
      "from": "0x45dce8e4f2dc005a5f28206a46cb034697eeda8e",
      "to": "0x3fc877008e396fdd7f9ee3deb2e8a54d54da705a",
      "contractAddress": null,
      "l1BatchNumber": null,
      "l1BatchTxIndex": null,
      "l2ToL1Logs": []
    },
    {
      "status": "0x1",
      "cumulativeGasUsed": "0x0",
      "logs": [
        {
          "address": "0x000000000000000000000000000000000000800a",
          "topics": [
            "0xddf252ad1be2c89b69c2b068fc378daa952ba7f163c4a11628f55a4df523b3ef",
            "0x00000000000000000000000045dce8e4f2dc005a5f28206a46cb034697eeda8e",
            "0x0000000000000000000000000000000000000000000000000000000000008001"
          ],
          "data": "0x000000000000000000000000000000000000000000000000000009247db904b0",
          "blockHash": "0x40292a9076dc0ab760ac05fb64f79844c64413bc11a9ffe1838c76f30a74910d",
          "blockNumber": "0x3c9dcdb",
          "blockTimestamp": "0x688aedae",
          "transactionHash": "0x58b841dab82833c17d11ea8e8dd355022714adcec1c5ccb083bca9dbfdc02e39",
          "transactionIndex": "0x1",
          "logIndex": "0x4",
          "removed": false
        },
        {
          "address": "0x3fc877008e396fdd7f9ee3deb2e8a54d54da705a",
          "topics": [
            "0x238399d427b947898edb290f5ff0f9109849b1c3ba196a42e35f00c50a54b98b"
          ],
          "data": "0x00000000000000000000000000000000000000000000000000000000000076a200000000000000000000000057558cb8d6005de0bae8a2789d5efaae52dba5a8",
          "blockHash": "0x40292a9076dc0ab760ac05fb64f79844c64413bc11a9ffe1838c76f30a74910d",
          "blockNumber": "0x3c9dcdb",
          "blockTimestamp": "0x688aedae",
          "transactionHash": "0x58b841dab82833c17d11ea8e8dd355022714adcec1c5ccb083bca9dbfdc02e39",
          "transactionIndex": "0x1",
          "logIndex": "0x5",
          "removed": false
        },
        {
          "address": "0x000000000000000000000000000000000000800a",
          "topics": [
            "0xddf252ad1be2c89b69c2b068fc378daa952ba7f163c4a11628f55a4df523b3ef",
            "0x0000000000000000000000000000000000000000000000000000000000008001",
            "0x00000000000000000000000045dce8e4f2dc005a5f28206a46cb034697eeda8e"
          ],
          "data": "0x000000000000000000000000000000000000000000000000000005a8c7b62e50",
          "blockHash": "0x40292a9076dc0ab760ac05fb64f79844c64413bc11a9ffe1838c76f30a74910d",
          "blockNumber": "0x3c9dcdb",
          "blockTimestamp": "0x688aedae",
          "transactionHash": "0x58b841dab82833c17d11ea8e8dd355022714adcec1c5ccb083bca9dbfdc02e39",
          "transactionIndex": "0x1",
          "logIndex": "0x6",
          "removed": false
        }
      ],
      "logsBloom": "0x00000000000400000000000200000000000000000000000000000000000000000000000000000000000000000000000000000000000000000800001000000000000000000000040000000008000000000000000000000000000000000000080000000000000000000000000000000000000000000000000000000010000000000000000000000000000004000000000000000000000000000000000000000000000000000000101000000000000000000000000000000000000002000000000000000002008000000000000000000000001000000000000000040000000000000000000000000000000000000000800000000000000000000000001000000000",
      "type": "0x71",
      "transactionHash": "0x58b841dab82833c17d11ea8e8dd355022714adcec1c5ccb083bca9dbfdc02e39",
      "transactionIndex": "0x1",
      "blockHash": "0x40292a9076dc0ab760ac05fb64f79844c64413bc11a9ffe1838c76f30a74910d",
      "blockNumber": "0x3c9dcdb",
      "gasUsed": "0x14a9e",
      "effectiveGasPrice": "0x2b275d0",
      "from": "0x45dce8e4f2dc005a5f28206a46cb034697eeda8e",
      "to": "0x3fc877008e396fdd7f9ee3deb2e8a54d54da705a",
      "contractAddress": null,
      "l1BatchNumber": null,
      "l1BatchTxIndex": null,
      "l2ToL1Logs": []
    },
    {
      "status": "0x1",
      "cumulativeGasUsed": "0x0",
      "logs": [
        {
          "address": "0x000000000000000000000000000000000000800a",
          "topics": [
            "0xddf252ad1be2c89b69c2b068fc378daa952ba7f163c4a11628f55a4df523b3ef",
            "0x00000000000000000000000045dce8e4f2dc005a5f28206a46cb034697eeda8e",
            "0x0000000000000000000000000000000000000000000000000000000000008001"
          ],
          "data": "0x000000000000000000000000000000000000000000000000000009247db904b0",
          "blockHash": "0xc896dc246d93f98e4e4de71dfabf1fd7ede56af1673551d7ec801a100c658179",
          "blockNumber": "0x3c9dcdc",
          "blockTimestamp": "0x688aedb1",
          "transactionHash": "0xef2ca91aa1e86d1436497887216146c03dba35cf61388527262826d5893aa7a4",
          "transactionIndex": "0x0",
          "logIndex": "0x0",
          "removed": false
        },
        {
          "address": "0x3fc877008e396fdd7f9ee3deb2e8a54d54da705a",
          "topics": [
            "0x238399d427b947898edb290f5ff0f9109849b1c3ba196a42e35f00c50a54b98b"
          ],
          "data": "0x00000000000000000000000000000000000000000000000000000000000076a800000000000000000000000057558cb8d6005de0bae8a2789d5efaae52dba5a8",
          "blockHash": "0xc896dc246d93f98e4e4de71dfabf1fd7ede56af1673551d7ec801a100c658179",
          "blockNumber": "0x3c9dcdc",
          "blockTimestamp": "0x688aedb1",
          "transactionHash": "0xef2ca91aa1e86d1436497887216146c03dba35cf61388527262826d5893aa7a4",
          "transactionIndex": "0x0",
          "logIndex": "0x1",
          "removed": false
        },
        {
          "address": "0x000000000000000000000000000000000000800a",
          "topics": [
            "0xddf252ad1be2c89b69c2b068fc378daa952ba7f163c4a11628f55a4df523b3ef",
            "0x0000000000000000000000000000000000000000000000000000000000008001",
            "0x00000000000000000000000045dce8e4f2dc005a5f28206a46cb034697eeda8e"
          ],
          "data": "0x000000000000000000000000000000000000000000000000000005a8c7b62e50",
          "blockHash": "0xc896dc246d93f98e4e4de71dfabf1fd7ede56af1673551d7ec801a100c658179",
          "blockNumber": "0x3c9dcdc",
          "blockTimestamp": "0x688aedb1",
          "transactionHash": "0xef2ca91aa1e86d1436497887216146c03dba35cf61388527262826d5893aa7a4",
          "transactionIndex": "0x0",
          "logIndex": "0x2",
          "removed": false
        }
      ],
      "logsBloom": "0x00000000000400000000000200000000000000000000000000000000000000000000000000000000000000000000000000000000000000000800001000000000000000000000040000000008000000000000000000000000000000000000080000000000000000000000000000000000000000000000000000000010000000000000000000000000000004000000000000000000000000000000000000000000000000000000101000000000000000000000000000000000000002000000000000000002008000000000000000000000001000000000000000040000000000000000000000000000000000000000800000000000000000000000001000000000",
      "type": "0x71",
      "transactionHash": "0xef2ca91aa1e86d1436497887216146c03dba35cf61388527262826d5893aa7a4",
      "transactionIndex": "0x0",
      "blockHash": "0xc896dc246d93f98e4e4de71dfabf1fd7ede56af1673551d7ec801a100c658179",
      "blockNumber": "0x3c9dcdc",
      "gasUsed": "0x14a9e",
      "effectiveGasPrice": "0x2b275d0",
      "from": "0x45dce8e4f2dc005a5f28206a46cb034697eeda8e",
      "to": "0x3fc877008e396fdd7f9ee3deb2e8a54d54da705a",
      "contractAddress": null,
      "l1BatchNumber": null,
      "l1BatchTxIndex": null,
      "l2ToL1Logs": []
    },
    {
      "status": "0x1",
      "cumulativeGasUsed": "0x0",
      "logs": [
        {
          "address": "0x000000000000000000000000000000000000800a",
          "topics": [
            "0xddf252ad1be2c89b69c2b068fc378daa952ba7f163c4a11628f55a4df523b3ef",
            "0x00000000000000000000000045dce8e4f2dc005a5f28206a46cb034697eeda8e",
            "0x0000000000000000000000000000000000000000000000000000000000008001"
          ],
          "data": "0x000000000000000000000000000000000000000000000000000009247db904b0",
          "blockHash": "0x7423fbd31c99c9280e30fe18a1d88efcf4a584dee81491b7fb28043d17c0ed5d",
          "blockNumber": "0x3c9dcdd",
          "blockTimestamp": "0x688aedb2",
          "transactionHash": "0xc1759201e2a9f928510e23fe70602556d1af128403c94fff20bc4edf197ee4a6",
          "transactionIndex": "0x1",
          "logIndex": "0x4",
          "removed": false
        },
        {
          "address": "0x3fc877008e396fdd7f9ee3deb2e8a54d54da705a",
          "topics": [
            "0x238399d427b947898edb290f5ff0f9109849b1c3ba196a42e35f00c50a54b98b"
          ],
          "data": "0x00000000000000000000000000000000000000000000000000000000000076a700000000000000000000000057558cb8d6005de0bae8a2789d5efaae52dba5a8",
          "blockHash": "0x7423fbd31c99c9280e30fe18a1d88efcf4a584dee81491b7fb28043d17c0ed5d",
          "blockNumber": "0x3c9dcdd",
          "blockTimestamp": "0x688aedb2",
          "transactionHash": "0xc1759201e2a9f928510e23fe70602556d1af128403c94fff20bc4edf197ee4a6",
          "transactionIndex": "0x1",
          "logIndex": "0x5",
          "removed": false
        },
        {
          "address": "0x000000000000000000000000000000000000800a",
          "topics": [
            "0xddf252ad1be2c89b69c2b068fc378daa952ba7f163c4a11628f55a4df523b3ef",
            "0x0000000000000000000000000000000000000000000000000000000000008001",
            "0x00000000000000000000000045dce8e4f2dc005a5f28206a46cb034697eeda8e"
          ],
          "data": "0x000000000000000000000000000000000000000000000000000005a8c7b62e50",
          "blockHash": "0x7423fbd31c99c9280e30fe18a1d88efcf4a584dee81491b7fb28043d17c0ed5d",
          "blockNumber": "0x3c9dcdd",
          "blockTimestamp": "0x688aedb2",
          "transactionHash": "0xc1759201e2a9f928510e23fe70602556d1af128403c94fff20bc4edf197ee4a6",
          "transactionIndex": "0x1",
          "logIndex": "0x6",
          "removed": false
        }
      ],
      "logsBloom": "0x00000000000400000000000200000000000000000000000000000000000000000000000000000000000000000000000000000000000000000800001000000000000000000000040000000008000000000000000000000000000000000000080000000000000000000000000000000000000000000000000000000010000000000000000000000000000004000000000000000000000000000000000000000000000000000000101000000000000000000000000000000000000002000000000000000002008000000000000000000000001000000000000000040000000000000000000000000000000000000000800000000000000000000000001000000000",
      "type": "0x71",
      "transactionHash": "0xc1759201e2a9f928510e23fe70602556d1af128403c94fff20bc4edf197ee4a6",
      "transactionIndex": "0x1",
      "blockHash": "0x7423fbd31c99c9280e30fe18a1d88efcf4a584dee81491b7fb28043d17c0ed5d",
      "blockNumber": "0x3c9dcdd",
      "gasUsed": "0x14a9e",
      "effectiveGasPrice": "0x2b275d0",
      "from": "0x45dce8e4f2dc005a5f28206a46cb034697eeda8e",
      "to": "0x3fc877008e396fdd7f9ee3deb2e8a54d54da705a",
      "contractAddress": null,
      "l1BatchNumber": null,
      "l1BatchTxIndex": null,
      "l2ToL1Logs": []
    },
    {
      "status": "0x1",
      "cumulativeGasUsed": "0x0",
      "logs": [
        {
          "address": "0x000000000000000000000000000000000000800a",
          "topics": [
            "0xddf252ad1be2c89b69c2b068fc378daa952ba7f163c4a11628f55a4df523b3ef",
            "0x00000000000000000000000045dce8e4f2dc005a5f28206a46cb034697eeda8e",
            "0x0000000000000000000000000000000000000000000000000000000000008001"
          ],
          "data": "0x00000000000000000000000000000000000000000000000000000e2b1e362ed0",
          "blockHash": "0xf8ad322cbb0ebf08fa84da79f8e8bfda0a720fca1503e9fe94c36f629108e240",
          "blockNumber": "0x3c9dcde",
          "blockTimestamp": "0x688aedb4",
          "transactionHash": "0x5812bacc32796e9a5ea290b6746866dd885f9b6002969f39bf5aba4d52208f9a",
          "transactionIndex": "0x1",
          "logIndex": "0x3",
          "removed": false
        },
        {
          "address": "0x07fd0e370b49919ca8da0ce842b8177263c0e12c",
          "topics": [
            "0x82118522aa536ac0e96cc5c689407ae42b89d592aa133890a01f1509842f5081"
          ],
          "data": "0x0000000000000000000000003fc877008e396fdd7f9ee3deb2e8a54d54da705a00000000000000000000000000000000000000000000000000000000000076a70000000000000000000000000000000000000000000000000000000000000060000000000000000000000000000000000000000000000000000000000000000000000000000000000000000000000000000000000000000000000000000000030000000000000000000000000000000000000000000000000000000000000000000000000000000000000000000000000000000000000000000000000000000000000000000000000000000000000000000000000000000000000000000000c0000000000000000000000000000000000000000000000000000000000000014000000000000000000000000000000000000000000000000000000000000000030000000000000000000000002eb85384cad49a67ebd8e2afb0f72b3f586baf03000000000000000000000000620a9df73d2f1015ea75aea1067227f9013f5c51000000000000000000000000b183c2b91cf76cad13602b32ada2fd273f19009c0000000000000000000000000000000000000000000000000000000000000000",
          "blockHash": "0xf8ad322cbb0ebf08fa84da79f8e8bfda0a720fca1503e9fe94c36f629108e240",
          "blockNumber": "0x3c9dcde",
          "blockTimestamp": "0x688aedb4",
          "transactionHash": "0x5812bacc32796e9a5ea290b6746866dd885f9b6002969f39bf5aba4d52208f9a",
          "transactionIndex": "0x1",
          "logIndex": "0x4",
          "removed": false
        },
        {
          "address": "0x000000000000000000000000000000000000800a",
          "topics": [
            "0xddf252ad1be2c89b69c2b068fc378daa952ba7f163c4a11628f55a4df523b3ef",
            "0x0000000000000000000000000000000000000000000000000000000000008001",
            "0x00000000000000000000000045dce8e4f2dc005a5f28206a46cb034697eeda8e"
          ],
          "data": "0x0000000000000000000000000000000000000000000000000000073394857220",
          "blockHash": "0xf8ad322cbb0ebf08fa84da79f8e8bfda0a720fca1503e9fe94c36f629108e240",
          "blockNumber": "0x3c9dcde",
          "blockTimestamp": "0x688aedb4",
          "transactionHash": "0x5812bacc32796e9a5ea290b6746866dd885f9b6002969f39bf5aba4d52208f9a",
          "transactionIndex": "0x1",
          "logIndex": "0x5",
          "removed": false
        }
      ],
      "logsBloom": "0x00000000000400000000000200000000000000000000000000000000000000000000000000000000000000000000000000000000000000000000000000000000000000000000040000000008000000000008000000000000002000000000084000000000000000000000000000000000000000000000000000000014000000000000000000000000000004000000000000000000000000000000000000000000000000000000100000000002000000000000000000000000000000000000000000000002008000000000000000000000001000000000000000000000000000000000000000000000000000000000800000000000000000000000000000000010",
      "type": "0x71",
      "transactionHash": "0x5812bacc32796e9a5ea290b6746866dd885f9b6002969f39bf5aba4d52208f9a",
      "transactionIndex": "0x1",
      "blockHash": "0xf8ad322cbb0ebf08fa84da79f8e8bfda0a720fca1503e9fe94c36f629108e240",
      "blockNumber": "0x3c9dcde",
      "gasUsed": "0x29547",
      "effectiveGasPrice": "0x2b275d0",
      "from": "0x45dce8e4f2dc005a5f28206a46cb034697eeda8e",
      "to": "0xd07c30af3ff30d96bdc9c6044958230eb797ddbf",
      "contractAddress": null,
      "l1BatchNumber": null,
      "l1BatchTxIndex": null,
      "l2ToL1Logs": []
    },
    {
      "status": "0x1",
      "cumulativeGasUsed": "0x0",
      "logs": [
        {
          "address": "0x000000000000000000000000000000000000800a",
          "topics": [
            "0xddf252ad1be2c89b69c2b068fc378daa952ba7f163c4a11628f55a4df523b3ef",
            "0x00000000000000000000000045dce8e4f2dc005a5f28206a46cb034697eeda8e",
            "0x0000000000000000000000000000000000000000000000000000000000008001"
          ],
          "data": "0x00000000000000000000000000000000000000000000000000000dbfcd7288b0",
          "blockHash": "0x8d4f609488f86b6eb9d3b1d6865342fd41b751bb08911f8516cfe973fc1535bf",
          "blockNumber": "0x3c9dcdf",
          "blockTimestamp": "0x688aedb6",
          "transactionHash": "0x95f249330ba431010b3a521bd6dcafec9e99da8868d8b230d074605f6509106e",
          "transactionIndex": "0x0",
          "logIndex": "0x0",
          "removed": false
        },
        {
          "address": "0x04830f6decf08dec9ed6c3fcad215245b78a59e1",
          "topics": [
            "0x82118522aa536ac0e96cc5c689407ae42b89d592aa133890a01f1509842f5081"
          ],
          "data": "0x0000000000000000000000003fc877008e396fdd7f9ee3deb2e8a54d54da705a00000000000000000000000000000000000000000000000000000000000076a70000000000000000000000000000000000000000000000000000000000000060000000000000000000000000000000000000000000000000000000000000000000000000000000000000000000000000000000000000000000000000000000030000000000000000000000000000000000000000000000000000000000000000000000000000000000000000000000000000000000000000000000000000000000000000000000000000000000000000000000000000000000000000000000c0000000000000000000000000000000000000000000000000000000000000014000000000000000000000000000000000000000000000000000000000000000030000000000000000000000002eb85384cad49a67ebd8e2afb0f72b3f586baf03000000000000000000000000620a9df73d2f1015ea75aea1067227f9013f5c51000000000000000000000000b183c2b91cf76cad13602b32ada2fd273f19009c0000000000000000000000000000000000000000000000000000000000000000",
          "blockHash": "0x8d4f609488f86b6eb9d3b1d6865342fd41b751bb08911f8516cfe973fc1535bf",
          "blockNumber": "0x3c9dcdf",
          "blockTimestamp": "0x688aedb6",
          "transactionHash": "0x95f249330ba431010b3a521bd6dcafec9e99da8868d8b230d074605f6509106e",
          "transactionIndex": "0x0",
          "logIndex": "0x1",
          "removed": false
        },
        {
          "address": "0x000000000000000000000000000000000000800a",
          "topics": [
            "0xddf252ad1be2c89b69c2b068fc378daa952ba7f163c4a11628f55a4df523b3ef",
            "0x0000000000000000000000000000000000000000000000000000000000008001",
            "0x00000000000000000000000045dce8e4f2dc005a5f28206a46cb034697eeda8e"
          ],
          "data": "0x00000000000000000000000000000000000000000000000000000795baccb760",
          "blockHash": "0x8d4f609488f86b6eb9d3b1d6865342fd41b751bb08911f8516cfe973fc1535bf",
          "blockNumber": "0x3c9dcdf",
          "blockTimestamp": "0x688aedb6",
          "transactionHash": "0x95f249330ba431010b3a521bd6dcafec9e99da8868d8b230d074605f6509106e",
          "transactionIndex": "0x0",
          "logIndex": "0x2",
          "removed": false
        }
      ],
      "logsBloom": "0x00000000080400000000000200000000000000000000000000080000000000000000000000000000000000000000000000000000000000000000000000000000000000000000040000000008000000000000000000000000002000000000080000000000000000000000000000000000000000000000000000000010000000000000000000000000000004000000000000000000000000000000000000000000000000000000100000000002000000000000000000080000000000000000000000000002008000000000000000000000001000000000000000000000000000000000000000000000000000000000800000000000000000000000000000000010",
      "type": "0x71",
      "transactionHash": "0x95f249330ba431010b3a521bd6dcafec9e99da8868d8b230d074605f6509106e",
      "transactionIndex": "0x0",
      "blockHash": "0x8d4f609488f86b6eb9d3b1d6865342fd41b751bb08911f8516cfe973fc1535bf",
      "blockNumber": "0x3c9dcdf",
      "gasUsed": "0x24919",
      "effectiveGasPrice": "0x2b275d0",
      "from": "0x45dce8e4f2dc005a5f28206a46cb034697eeda8e",
      "to": "0xd07c30af3ff30d96bdc9c6044958230eb797ddbf",
      "contractAddress": null,
      "l1BatchNumber": null,
      "l1BatchTxIndex": null,
      "l2ToL1Logs": []
    },
    {
      "status": "0x1",
      "cumulativeGasUsed": "0x0",
      "logs": [
        {
          "address": "0x000000000000000000000000000000000000800a",
          "topics": [
            "0xddf252ad1be2c89b69c2b068fc378daa952ba7f163c4a11628f55a4df523b3ef",
            "0x00000000000000000000000045dce8e4f2dc005a5f28206a46cb034697eeda8e",
            "0x0000000000000000000000000000000000000000000000000000000000008001"
          ],
          "data": "0x00000000000000000000000000000000000000000000000000000a706f92b320",
          "blockHash": "0xf41b6f45818c8a8a1fc57a775d87bd049770f64fb9f96227417234ccd7659ca0",
          "blockNumber": "0x3c9dce0",
          "blockTimestamp": "0x688aedb8",
          "transactionHash": "0x969e2b59227db7850a26aa83f4b06105811cf4120a1cb2fed4f1b07cb36720c4",
          "transactionIndex": "0x0",
          "logIndex": "0x0",
          "removed": false
        },
        {
          "address": "0xd07c30af3ff30d96bdc9c6044958230eb797ddbf",
          "topics": [
            "0x4cff966ebee29a156dcb34cf72c1d06231fb1777f6bdf6e8089819232f002b1c"
          ],
          "data": "0x0000000000000000000000003fc877008e396fdd7f9ee3deb2e8a54d54da705a00000000000000000000000000000000000000000000000000000000000076a700000000000000000000000007fd0e370b49919ca8da0ce842b8177263c0e12c",
          "blockHash": "0xf41b6f45818c8a8a1fc57a775d87bd049770f64fb9f96227417234ccd7659ca0",
          "blockNumber": "0x3c9dce0",
          "blockTimestamp": "0x688aedb8",
          "transactionHash": "0x969e2b59227db7850a26aa83f4b06105811cf4120a1cb2fed4f1b07cb36720c4",
          "transactionIndex": "0x0",
          "logIndex": "0x1",
          "removed": false
        },
        {
          "address": "0x000000000000000000000000000000000000800a",
          "topics": [
            "0xddf252ad1be2c89b69c2b068fc378daa952ba7f163c4a11628f55a4df523b3ef",
            "0x0000000000000000000000000000000000000000000000000000000000008001",
            "0x00000000000000000000000045dce8e4f2dc005a5f28206a46cb034697eeda8e"
          ],
          "data": "0x000000000000000000000000000000000000000000000000000006c82b7ba7b0",
          "blockHash": "0xf41b6f45818c8a8a1fc57a775d87bd049770f64fb9f96227417234ccd7659ca0",
          "blockNumber": "0x3c9dce0",
          "blockTimestamp": "0x688aedb8",
          "transactionHash": "0x969e2b59227db7850a26aa83f4b06105811cf4120a1cb2fed4f1b07cb36720c4",
          "transactionIndex": "0x0",
          "logIndex": "0x2",
          "removed": false
        }
      ],
      "logsBloom": "0x00000000000400000000000200000000000200000000000000000000000000000000000000000000800000000000000000000000000000000000000001000000000000000000040000000008000000000000000000000000000000000000080000000008000000000000000000000000000000000000000000000010000000000000000000000100000004000000000000000000000000000000000000000000000000000000100000000000000000000000000000000000000000000000000000000002008000000000000000000000001000000000000000000000000000000040000000000000000000000000800000000000000000000000000000000000",
      "type": "0x71",
      "transactionHash": "0x969e2b59227db7850a26aa83f4b06105811cf4120a1cb2fed4f1b07cb36720c4",
      "transactionIndex": "0x0",
      "blockHash": "0xf41b6f45818c8a8a1fc57a775d87bd049770f64fb9f96227417234ccd7659ca0",
      "blockNumber": "0x3c9dce0",
      "gasUsed": "0x15b23",
      "effectiveGasPrice": "0x2b275d0",
      "from": "0x45dce8e4f2dc005a5f28206a46cb034697eeda8e",
      "to": "0xd07c30af3ff30d96bdc9c6044958230eb797ddbf",
      "contractAddress": null,
      "l1BatchNumber": null,
      "l1BatchTxIndex": null,
      "l2ToL1Logs": []
    },
    {
      "status": "0x1",
      "cumulativeGasUsed": "0x0",
      "logs": [
        {
          "address": "0x000000000000000000000000000000000000800a",
          "topics": [
            "0xddf252ad1be2c89b69c2b068fc378daa952ba7f163c4a11628f55a4df523b3ef",
            "0x00000000000000000000000045dce8e4f2dc005a5f28206a46cb034697eeda8e",
            "0x0000000000000000000000000000000000000000000000000000000000008001"
          ],
          "data": "0x00000000000000000000000000000000000000000000000000000aef610db5f0",
          "blockHash": "0xb2cd548bcbeb878d06044dc6301c56bfc1e22e4ff0c94ac022830967493433b2",
          "blockNumber": "0x3c9dce1",
          "blockTimestamp": "0x688aedba",
          "transactionHash": "0x1a5a379a86bf3c86f7570bc065da89d3d4a488e7dacc58994a15af05dbf03987",
          "transactionIndex": "0x0",
          "logIndex": "0x0",
          "removed": false
        },
        {
          "address": "0xd07c30af3ff30d96bdc9c6044958230eb797ddbf",
          "topics": [
            "0xcd6f92f5ac6185a5acfa02c92090746cec64d777269cbcd0ed031e396657a1c2"
          ],
          "data": "0x0000000000000000000000003fc877008e396fdd7f9ee3deb2e8a54d54da705a00000000000000000000000000000000000000000000000000000000000076a700000000000000000000000004830f6decf08dec9ed6c3fcad215245b78a59e1",
          "blockHash": "0xb2cd548bcbeb878d06044dc6301c56bfc1e22e4ff0c94ac022830967493433b2",
          "blockNumber": "0x3c9dce1",
          "blockTimestamp": "0x688aedba",
          "transactionHash": "0x1a5a379a86bf3c86f7570bc065da89d3d4a488e7dacc58994a15af05dbf03987",
          "transactionIndex": "0x0",
          "logIndex": "0x1",
          "removed": false
        },
        {
          "address": "0xd07c30af3ff30d96bdc9c6044958230eb797ddbf",
          "topics": [
            "0x4e0a5bbfa0c11a64effb1ada324b5437a17272e1aed9320398715ef71bb20928"
          ],
          "data": "0x0000000000000000000000003fc877008e396fdd7f9ee3deb2e8a54d54da705a00000000000000000000000000000000000000000000000000000000000076a700000000000000000000000000000000000000000000000000000000000000000000000000000000000000000000000000000000000000000000000000000000",
          "blockHash": "0xb2cd548bcbeb878d06044dc6301c56bfc1e22e4ff0c94ac022830967493433b2",
          "blockNumber": "0x3c9dce1",
          "blockTimestamp": "0x688aedba",
          "transactionHash": "0x1a5a379a86bf3c86f7570bc065da89d3d4a488e7dacc58994a15af05dbf03987",
          "transactionIndex": "0x0",
          "logIndex": "0x2",
          "removed": false
        },
        {
          "address": "0x000000000000000000000000000000000000800a",
          "topics": [
            "0xddf252ad1be2c89b69c2b068fc378daa952ba7f163c4a11628f55a4df523b3ef",
            "0x0000000000000000000000000000000000000000000000000000000000008001",
            "0x00000000000000000000000045dce8e4f2dc005a5f28206a46cb034697eeda8e"
          ],
          "data": "0x000000000000000000000000000000000000000000000000000006c02448fa90",
          "blockHash": "0xb2cd548bcbeb878d06044dc6301c56bfc1e22e4ff0c94ac022830967493433b2",
          "blockNumber": "0x3c9dce1",
          "blockTimestamp": "0x688aedba",
          "transactionHash": "0x1a5a379a86bf3c86f7570bc065da89d3d4a488e7dacc58994a15af05dbf03987",
          "transactionIndex": "0x0",
          "logIndex": "0x3",
          "removed": false
        }
      ],
      "logsBloom": "0x00000000000400000000020a00000000000000000000000000000000000000020400000000000000800000000000000000000000000000000000000000000000000000000000040000000008000000000000000000800000000000000000080000000008000000000000000000000000000000000000000000000010000000100000000000000100000004000000000000000000000000000000000000000000000000000000100000000000000000000000000000000000000000000000000000000002008000000000000000000000001000000000000000000000000000000000000000000000000000000000800000000000000000000000000000000000",
      "type": "0x71",
      "transactionHash": "0x1a5a379a86bf3c86f7570bc065da89d3d4a488e7dacc58994a15af05dbf03987",
      "transactionIndex": "0x0",
      "blockHash": "0xb2cd548bcbeb878d06044dc6301c56bfc1e22e4ff0c94ac022830967493433b2",
      "blockNumber": "0x3c9dce1",
      "gasUsed": "0x18d2e",
      "effectiveGasPrice": "0x2b275d0",
      "from": "0x45dce8e4f2dc005a5f28206a46cb034697eeda8e",
      "to": "0xd07c30af3ff30d96bdc9c6044958230eb797ddbf",
      "contractAddress": null,
      "l1BatchNumber": null,
      "l1BatchTxIndex": null,
      "l2ToL1Logs": []
    }
  ],
  "libraries": [],
  "pending": [],
  "returns": {},
  "timestamp": 1753935292,
  "chain": 324,
  "commit": "af7a136"
}