{
  "transactions": [
    {
      "hash": "0x1cb6714ef466942fae6881bc480fc4665e4d2050691db83861e0ceb06ea49219",
      "transactionType": "CALL",
      "contractName": null,
      "contractAddress": "0x16fbfcf4970d4550791faf75ae9baece75c85a27",
      "function": "setEnforcedOptions((uint32,uint16,bytes)[])",
      "arguments": [
        "[(40161, 1, 0x00030100110100000000000000000000000000030d40), (40161, 2, 0x0003010011010000000000000000000000000003d090)]"
      ],
      "transaction": {
        "from": "0x1d434906aa520e592fab2b82406beff859be8e82",
        "to": "0x16fbfcf4970d4550791faf75ae9baece75c85a27",
        "gas": "0x1d9d4",
        "value": "0x0",
        "input": "0xb98bd07000000000000000000000000000000000000000000000000000000000000000200000000000000000000000000000000000000000000000000000000000000002000000000000000000000000000000000000000000000000000000000000004000000000000000000000000000000000000000000000000000000000000000e00000000000000000000000000000000000000000000000000000000000009ce100000000000000000000000000000000000000000000000000000000000000010000000000000000000000000000000000000000000000000000000000000060000000000000000000000000000000000000000000000000000000000000001600030100110100000000000000000000000000030d40000000000000000000000000000000000000000000000000000000000000000000000000000000009ce10000000000000000000000000000000000000000000000000000000000000002000000000000000000000000000000000000000000000000000000000000006000000000000000000000000000000000000000000000000000000000000000160003010011010000000000000000000000000003d09000000000000000000000",
        "nonce": "0x0",
        "chainId": "0xa5bf",
        "feeToken": null,
        "calls": [],
        "keyType": null,
        "keyData": null
      },
      "additionalContracts": [],
      "isFixedGasLimit": false
    },
    {
      "hash": "0xa9499ae6ec955b14eafe93d2c1b7bf08cb36c35cad704f08c2622a23208c7d10",
      "transactionType": "CALL",
      "contractName": null,
      "contractAddress": "0x16fbfcf4970d4550791faf75ae9baece75c85a27",
      "function": "setPeer(uint32,bytes32)",
      "arguments": [
        "40161",
        "0x00000000000000000000000029a5134d3b22f47ad52e0a22a63247363e9f35c2"
      ],
      "transaction": {
        "from": "0x1d434906aa520e592fab2b82406beff859be8e82",
        "to": "0x16fbfcf4970d4550791faf75ae9baece75c85a27",
        "gas": "0x139e4",
        "value": "0x0",
        "input": "0x3400288b0000000000000000000000000000000000000000000000000000000000009ce100000000000000000000000029a5134d3b22f47ad52e0a22a63247363e9f35c2",
        "nonce": "0x1",
        "chainId": "0xa5bf",
        "feeToken": null,
        "calls": [],
        "keyType": null,
        "keyData": null
      },
      "additionalContracts": [],
      "isFixedGasLimit": false
    },
    {
      "hash": "0x2b9f925e0c19b3f9f0b0485249bc83ef49851138205f9cf4ca89ac74c932f1f3",
      "transactionType": "CALL",
      "contractName": null,
      "contractAddress": "0xfb34352ba2e2d9cb93837bb19d36db5d93bcfc41",
      "function": "setSendLibrary(address,uint32,address)",
      "arguments": [
        "0x16FBfCF4970D4550791faF75AE9BaecE75C85A27",
        "40161",
        "0x91ec94dd5E949BdB2ecE3b91B9602EC5F7F59FFD"
      ],
      "transaction": {
        "from": "0x1d434906aa520e592fab2b82406beff859be8e82",
        "to": "0xfb34352ba2e2d9cb93837bb19d36db5d93bcfc41",
        "gas": "0x1378b",
        "value": "0x0",
        "input": "0x9535ff3000000000000000000000000016fbfcf4970d4550791faf75ae9baece75c85a270000000000000000000000000000000000000000000000000000000000009ce100000000000000000000000091ec94dd5e949bdb2ece3b91b9602ec5f7f59ffd",
        "nonce": "0x2",
        "chainId": "0xa5bf",
        "feeToken": null,
        "calls": [],
        "keyType": null,
        "keyData": null
      },
      "additionalContracts": [],
      "isFixedGasLimit": false
    },
    {
      "hash": "0xcb59b6ab86cbae9c3c79da922eecc2d9a8248ecc83edf6569082d7d518975695",
      "transactionType": "CALL",
      "contractName": null,
      "contractAddress": "0xfb34352ba2e2d9cb93837bb19d36db5d93bcfc41",
      "function": "setReceiveLibrary(address,uint32,address,uint256)",
      "arguments": [
        "0x16FBfCF4970D4550791faF75AE9BaecE75C85A27",
        "40161",
        "0xfeBE4c839EFA9f506C092a32fD0BB546B76A1d38",
        "0"
      ],
      "transaction": {
        "from": "0x1d434906aa520e592fab2b82406beff859be8e82",
        "to": "0xfb34352ba2e2d9cb93837bb19d36db5d93bcfc41",
        "gas": "0x17001",
        "value": "0x0",
        "input": "0x6a14d71500000000000000000000000016fbfcf4970d4550791faf75ae9baece75c85a270000000000000000000000000000000000000000000000000000000000009ce1000000000000000000000000febe4c839efa9f506c092a32fd0bb546b76a1d380000000000000000000000000000000000000000000000000000000000000000",
        "nonce": "0x3",
        "chainId": "0xa5bf",
        "feeToken": null,
        "calls": [],
        "keyType": null,
        "keyData": null
      },
      "additionalContracts": [],
      "isFixedGasLimit": false
    },
    {
      "hash": "0xa36e58e27816a866b6580d1ef166985d6e9eb553b1db168e59c6005a0d8abb57",
      "transactionType": "CALL",
      "contractName": null,
      "contractAddress": "0x16fbfcf4970d4550791faf75ae9baece75c85a27",
      "function": "setDelegate(address)",
      "arguments": [
        "0x1d434906Aa520E592fAB2b82406BEfF859be8e82"
      ],
      "transaction": {
        "from": "0x1d434906aa520e592fab2b82406beff859be8e82",
        "to": "0x16fbfcf4970d4550791faf75ae9baece75c85a27",
        "gas": "0xda49",
        "value": "0x0",
        "input": "0xca5eb5e10000000000000000000000001d434906aa520e592fab2b82406beff859be8e82",
        "nonce": "0x4",
        "chainId": "0xa5bf",
        "feeToken": null,
        "calls": [],
        "keyType": null,
        "keyData": null
      },
      "additionalContracts": [],
      "isFixedGasLimit": false
    },
    {
      "hash": "0x1c21e1ce55b5f8272d6b33e1a0f584e964c5afb3a18a36bc855f6054f5ef1611",
      "transactionType": "CALL",
      "contractName": null,
      "contractAddress": "0x16fbfcf4970d4550791faf75ae9baece75c85a27",
      "function": "transferOwnership(address)",
      "arguments": [
        "0x1d434906Aa520E592fAB2b82406BEfF859be8e82"
      ],
      "transaction": {
        "from": "0x1d434906aa520e592fab2b82406beff859be8e82",
        "to": "0x16fbfcf4970d4550791faf75ae9baece75c85a27",
        "gas": "0xb2a6",
        "value": "0x0",
        "input": "0xf2fde38b0000000000000000000000001d434906aa520e592fab2b82406beff859be8e82",
        "nonce": "0x5",
        "chainId": "0xa5bf",
        "feeToken": null,
        "calls": [],
        "keyType": null,
        "keyData": null
      },
      "additionalContracts": [],
      "isFixedGasLimit": false
    },
    {
      "hash": "0xb55056269e94d17d5db2636d7f05ca2783b62e48c40a4a07f68799864b7e9d9b",
      "transactionType": "CALL",
      "contractName": null,
      "contractAddress": "0x394e4f810bde9eb786018def607951021c470051",
      "function": "transferOwnership(address)",
      "arguments": [
        "0x1d434906Aa520E592fAB2b82406BEfF859be8e82"
      ],
      "transaction": {
        "from": "0x1d434906aa520e592fab2b82406beff859be8e82",
        "to": "0x394e4f810bde9eb786018def607951021c470051",
        "gas": "0x8b32",
        "value": "0x0",
        "input": "0xf2fde38b0000000000000000000000001d434906aa520e592fab2b82406beff859be8e82",
        "nonce": "0x6",
        "chainId": "0xa5bf",
        "feeToken": null,
        "calls": [],
        "keyType": null,
        "keyData": null
      },
      "additionalContracts": [],
      "isFixedGasLimit": false
    }
  ],
  "receipts": [
    {
      "type": "0x2",
      "status": "0x1",
      "cumulativeGasUsed": "0x4413bb",
      "logs": [
        {
          "address": "0x16fbfcf4970d4550791faf75ae9baece75c85a27",
          "topics": [
            "0xbe4864a8e820971c0247f5992e2da559595f7bf076a21cb5928d443d2a13b674"
          ],
          "data": "0x00000000000000000000000000000000000000000000000000000000000000200000000000000000000000000000000000000000000000000000000000000002000000000000000000000000000000000000000000000000000000000000004000000000000000000000000000000000000000000000000000000000000000e00000000000000000000000000000000000000000000000000000000000009ce100000000000000000000000000000000000000000000000000000000000000010000000000000000000000000000000000000000000000000000000000000060000000000000000000000000000000000000000000000000000000000000001600030100110100000000000000000000000000030d40000000000000000000000000000000000000000000000000000000000000000000000000000000009ce10000000000000000000000000000000000000000000000000000000000000002000000000000000000000000000000000000000000000000000000000000006000000000000000000000000000000000000000000000000000000000000000160003010011010000000000000000000000000003d09000000000000000000000",
          "blockHash": "0x2d8fef1cd8ef2f19688e6a8cc9b0119f33af1ccb409355dab6dd1d3685cdf888",
          "blockNumber": "0x359603",
          "blockTimestamp": "0x6982388c",
          "transactionHash": "0x2b9f925e0c19b3f9f0b0485249bc83ef49851138205f9cf4ca89ac74c932f1f3",
          "transactionIndex": "0x37",
          "logIndex": "0x68",
          "removed": false
        },
        {
          "address": "0x20c0000000000000000000000000000000000000",
          "topics": [
            "0xddf252ad1be2c89b69c2b068fc378daa952ba7f163c4a11628f55a4df523b3ef",
            "0x0000000000000000000000001d434906aa520e592fab2b82406beff859be8e82",
            "0x000000000000000000000000feec000000000000000000000000000000000000"
          ],
          "data": "0x000000000000000000000000000000000000000000000000000000000000036f",
          "blockHash": "0x2d8fef1cd8ef2f19688e6a8cc9b0119f33af1ccb409355dab6dd1d3685cdf888",
          "blockNumber": "0x359603",
          "blockTimestamp": "0x6982388c",
          "transactionHash": "0x2b9f925e0c19b3f9f0b0485249bc83ef49851138205f9cf4ca89ac74c932f1f3",
          "transactionIndex": "0x37",
          "logIndex": "0x69",
          "removed": false
        }
      ],
      "logsBloom": "0x00000000000000000000000000000000000000000000000000000000000000000040000000000000000100000100000000000000000000000000400000000000000004000000000000000008000000000000000000000000000000000400000000000000000000000020000000000000000000000000000000000010000000000000000000000000000000000020000000000000800000002000000000080000080020000000000000000000000000000040000000000000000000000000000000000002000000000000000002000000000000000000000000000000000000000000000000000000000000000000000000000000000000000000000000000000",
      "transactionHash": "0x2b9f925e0c19b3f9f0b0485249bc83ef49851138205f9cf4ca89ac74c932f1f3",
      "transactionIndex": "0x37",
      "blockHash": "0x2d8fef1cd8ef2f19688e6a8cc9b0119f33af1ccb409355dab6dd1d3685cdf888",
      "blockNumber": "0x359603",
      "gasUsed": "0x1570c",
      "effectiveGasPrice": "0x2540c48b5",
      "from": "0x1d434906aa520e592fab2b82406beff859be8e82",
      "to": "0x16fbfcf4970d4550791faf75ae9baece75c85a27",
      "contractAddress": null,
      "feeToken": "0x20c0000000000000000000000000000000000000",
      "feePayer": "0x1d434906aa520e592fab2b82406beff859be8e82"
    },
    {
      "type": "0x2",
      "status": "0x1",
      "cumulativeGasUsed": "0x45c86e",
      "logs": [
        {
          "address": "0x16fbfcf4970d4550791faf75ae9baece75c85a27",
          "topics": [
            "0x238399d427b947898edb290f5ff0f9109849b1c3ba196a42e35f00c50a54b98b"
          ],
          "data": "0x0000000000000000000000000000000000000000000000000000000000009ce100000000000000000000000029a5134d3b22f47ad52e0a22a63247363e9f35c2",
          "blockHash": "0x2d8fef1cd8ef2f19688e6a8cc9b0119f33af1ccb409355dab6dd1d3685cdf888",
          "blockNumber": "0x359603",
          "blockTimestamp": "0x6982388c",
          "transactionHash": "0xa36e58e27816a866b6580d1ef166985d6e9eb553b1db168e59c6005a0d8abb57",
          "transactionIndex": "0x39",
          "logIndex": "0x6b",
          "removed": false
        },
        {
          "address": "0x20c0000000000000000000000000000000000000",
          "topics": [
            "0xddf252ad1be2c89b69c2b068fc378daa952ba7f163c4a11628f55a4df523b3ef",
            "0x0000000000000000000000001d434906aa520e592fab2b82406beff859be8e82",
            "0x000000000000000000000000feec000000000000000000000000000000000000"
          ],
          "data": "0x0000000000000000000000000000000000000000000000000000000000000226",
          "blockHash": "0x2d8fef1cd8ef2f19688e6a8cc9b0119f33af1ccb409355dab6dd1d3685cdf888",
          "blockNumber": "0x359603",
          "blockTimestamp": "0x6982388c",
          "transactionHash": "0xa36e58e27816a866b6580d1ef166985d6e9eb553b1db168e59c6005a0d8abb57",
          "transactionIndex": "0x39",
          "logIndex": "0x6c",
          "removed": false
        }
      ],
      "logsBloom": "0x00000000000000000000000000000000000000000000000000000000000000000040000000000000000100000100000000000000000000000800000000000000000004000000000000000008000000000000000000000000000000000400000000000000000000000020000000000000000000000000000000000010000000000000000000000000000000000020000000000000800000002000000000000000080020000000000000000000000000000040000000000000000002000000000000000002000000000000000000000000000000000000000000040000000000000000000000000000000000000000000000000000000000000000000000000000",
      "transactionHash": "0xa36e58e27816a866b6580d1ef166985d6e9eb553b1db168e59c6005a0d8abb57",
      "transactionIndex": "0x39",
      "blockHash": "0x2d8fef1cd8ef2f19688e6a8cc9b0119f33af1ccb409355dab6dd1d3685cdf888",
      "blockNumber": "0x359603",
      "gasUsed": "0xd6a1",
      "effectiveGasPrice": "0x2540c48b5",
      "from": "0x1d434906aa520e592fab2b82406beff859be8e82",
      "to": "0x16fbfcf4970d4550791faf75ae9baece75c85a27",
      "contractAddress": null,
      "feeToken": "0x20c0000000000000000000000000000000000000",
      "feePayer": "0x1d434906aa520e592fab2b82406beff859be8e82"
    },
    {
      "type": "0x2",
      "status": "0x1",
      "cumulativeGasUsed": "0x46fde4",
      "logs": [
        {
          "address": "0xfb34352ba2e2d9cb93837bb19d36db5d93bcfc41",
          "topics": [
            "0x4cff966ebee29a156dcb34cf72c1d06231fb1777f6bdf6e8089819232f002b1c"
          ],
          "data": "0x00000000000000000000000016fbfcf4970d4550791faf75ae9baece75c85a270000000000000000000000000000000000000000000000000000000000009ce100000000000000000000000091ec94dd5e949bdb2ece3b91b9602ec5f7f59ffd",
          "blockHash": "0x2d8fef1cd8ef2f19688e6a8cc9b0119f33af1ccb409355dab6dd1d3685cdf888",
          "blockNumber": "0x359603",
          "blockTimestamp": "0x6982388c",
          "transactionHash": "0x1c21e1ce55b5f8272d6b33e1a0f584e964c5afb3a18a36bc855f6054f5ef1611",
          "transactionIndex": "0x3b",
          "logIndex": "0x6e",
          "removed": false
        },
        {
          "address": "0x20c0000000000000000000000000000000000000",
          "topics": [
            "0xddf252ad1be2c89b69c2b068fc378daa952ba7f163c4a11628f55a4df523b3ef",
            "0x0000000000000000000000001d434906aa520e592fab2b82406beff859be8e82",
            "0x000000000000000000000000feec000000000000000000000000000000000000"
          ],
          "data": "0x0000000000000000000000000000000000000000000000000000000000000242",
          "blockHash": "0x2d8fef1cd8ef2f19688e6a8cc9b0119f33af1ccb409355dab6dd1d3685cdf888",
          "blockNumber": "0x359603",
          "blockTimestamp": "0x6982388c",
          "transactionHash": "0x1c21e1ce55b5f8272d6b33e1a0f584e964c5afb3a18a36bc855f6054f5ef1611",
          "transactionIndex": "0x3b",
          "logIndex": "0x6f",
          "removed": false
        }
      ],
      "logsBloom": "0x00000000000000000000000000000000000200000000000000000000000000000040000000000000000100000100000000000000000000000000000001000000000004000000000000000008000000000000000000000000000000000400000000000000000000000000000000000000000000000000000000000010000000000000000000000000000000000020000000000000800000000000000000000000280020000000000000000000000000000000000000000000000000000000004000000002000000000000000000000000000000000000000000000000000000000040000000000000000000000000000000000000000100000000000000000000",
      "transactionHash": "0x1c21e1ce55b5f8272d6b33e1a0f584e964c5afb3a18a36bc855f6054f5ef1611",
      "transactionIndex": "0x3b",
      "blockHash": "0x2d8fef1cd8ef2f19688e6a8cc9b0119f33af1ccb409355dab6dd1d3685cdf888",
      "blockNumber": "0x359603",
      "gasUsed": "0xe18e",
      "effectiveGasPrice": "0x2540c48b5",
      "from": "0x1d434906aa520e592fab2b82406beff859be8e82",
      "to": "0xfb34352ba2e2d9cb93837bb19d36db5d93bcfc41",
      "contractAddress": null,
      "feeToken": "0x20c0000000000000000000000000000000000000",
      "feePayer": "0x1d434906aa520e592fab2b82406beff859be8e82"
    },
    {
      "type": "0x2",
      "status": "0x1",
      "cumulativeGasUsed": "0x47f985",
      "logs": [
        {
          "address": "0xfb34352ba2e2d9cb93837bb19d36db5d93bcfc41",
          "topics": [
            "0xcd6f92f5ac6185a5acfa02c92090746cec64d777269cbcd0ed031e396657a1c2"
          ],
          "data": "0x00000000000000000000000016fbfcf4970d4550791faf75ae9baece75c85a270000000000000000000000000000000000000000000000000000000000009ce1000000000000000000000000febe4c839efa9f506c092a32fd0bb546b76a1d38",
          "blockHash": "0x2d8fef1cd8ef2f19688e6a8cc9b0119f33af1ccb409355dab6dd1d3685cdf888",
          "blockNumber": "0x359603",
          "blockTimestamp": "0x6982388c",
          "transactionHash": "0xb55056269e94d17d5db2636d7f05ca2783b62e48c40a4a07f68799864b7e9d9b",
          "transactionIndex": "0x3c",
          "logIndex": "0x70",
          "removed": false
        },
        {
          "address": "0xfb34352ba2e2d9cb93837bb19d36db5d93bcfc41",
          "topics": [
            "0x4e0a5bbfa0c11a64effb1ada324b5437a17272e1aed9320398715ef71bb20928"
          ],
          "data": "0x00000000000000000000000016fbfcf4970d4550791faf75ae9baece75c85a270000000000000000000000000000000000000000000000000000000000009ce100000000000000000000000000000000000000000000000000000000000000000000000000000000000000000000000000000000000000000000000000000000",
          "blockHash": "0x2d8fef1cd8ef2f19688e6a8cc9b0119f33af1ccb409355dab6dd1d3685cdf888",
          "blockNumber": "0x359603",
          "blockTimestamp": "0x6982388c",
          "transactionHash": "0xb55056269e94d17d5db2636d7f05ca2783b62e48c40a4a07f68799864b7e9d9b",
          "transactionIndex": "0x3c",
          "logIndex": "0x71",
          "removed": false
        },
        {
          "address": "0x20c0000000000000000000000000000000000000",
          "topics": [
            "0xddf252ad1be2c89b69c2b068fc378daa952ba7f163c4a11628f55a4df523b3ef",
            "0x0000000000000000000000001d434906aa520e592fab2b82406beff859be8e82",
            "0x000000000000000000000000feec000000000000000000000000000000000000"
          ],
          "data": "0x0000000000000000000000000000000000000000000000000000000000000285",
          "blockHash": "0x2d8fef1cd8ef2f19688e6a8cc9b0119f33af1ccb409355dab6dd1d3685cdf888",
          "blockNumber": "0x359603",
          "blockTimestamp": "0x6982388c",
          "transactionHash": "0xb55056269e94d17d5db2636d7f05ca2783b62e48c40a4a07f68799864b7e9d9b",
          "transactionIndex": "0x3c",
          "logIndex": "0x72",
          "removed": false
        }
      ],
      "logsBloom": "0x00000000000000000000020800000000000000000000000000000000000000020440000000000000000100000100000000000000000000000000000000000000000004000000000000000008000000000000000000800000000000000400000000000000000000000000000000000000000000000000000000000010000000100000000000000000000000000020000000000000800000000000000000000000280020000000000000000000000000000000000000000000000000000000004000000002000000000000000000000000000000000000000000000000000000000000000000000000000000000000000000000000000100000000000000000000",
      "transactionHash": "0xb55056269e94d17d5db2636d7f05ca2783b62e48c40a4a07f68799864b7e9d9b",
      "transactionIndex": "0x3c",
      "blockHash": "0x2d8fef1cd8ef2f19688e6a8cc9b0119f33af1ccb409355dab6dd1d3685cdf888",
      "blockNumber": "0x359603",
      "gasUsed": "0xfba1",
      "effectiveGasPrice": "0x2540c48b5",
      "from": "0x1d434906aa520e592fab2b82406beff859be8e82",
      "to": "0xfb34352ba2e2d9cb93837bb19d36db5d93bcfc41",
      "contractAddress": null,
      "feeToken": "0x20c0000000000000000000000000000000000000",
      "feePayer": "0x1d434906aa520e592fab2b82406beff859be8e82"
    },
    {
      "type": "0x2",
      "status": "0x1",
      "cumulativeGasUsed": "0x488ec7",
      "logs": [
        {
          "address": "0xfb34352ba2e2d9cb93837bb19d36db5d93bcfc41",
          "topics": [
            "0x6ee10e9ed4d6ce9742703a498707862f4b00f1396a87195eb93267b3d7983981"
          ],
          "data": "0x00000000000000000000000016fbfcf4970d4550791faf75ae9baece75c85a270000000000000000000000001d434906aa520e592fab2b82406beff859be8e82",
          "blockHash": "0x2d8fef1cd8ef2f19688e6a8cc9b0119f33af1ccb409355dab6dd1d3685cdf888",
          "blockNumber": "0x359603",
          "blockTimestamp": "0x6982388c",
          "transactionHash": "0x1cb6714ef466942fae6881bc480fc4665e4d2050691db83861e0ceb06ea49219",
          "transactionIndex": "0x3d",
          "logIndex": "0x73",
          "removed": false
        },
        {
          "address": "0x20c0000000000000000000000000000000000000",
          "topics": [
            "0xddf252ad1be2c89b69c2b068fc378daa952ba7f163c4a11628f55a4df523b3ef",
            "0x0000000000000000000000001d434906aa520e592fab2b82406beff859be8e82",
            "0x000000000000000000000000feec000000000000000000000000000000000000"
          ],
          "data": "0x000000000000000000000000000000000000000000000000000000000000017f",
          "blockHash": "0x2d8fef1cd8ef2f19688e6a8cc9b0119f33af1ccb409355dab6dd1d3685cdf888",
          "blockNumber": "0x359603",
          "blockTimestamp": "0x6982388c",
          "transactionHash": "0x1cb6714ef466942fae6881bc480fc4665e4d2050691db83861e0ceb06ea49219",
          "transactionIndex": "0x3d",
          "logIndex": "0x74",
          "removed": false
        }
      ],
      "logsBloom": "0x00000000000000000000000000000000000000000000000000800000000000000040000000000000000100000100000000000002000000000000000000000000000004000000000000000008000000000000000000000000000000000400000000000000000000000000000000000000000000000000000000000010000000000000000000000000000000000020000000000000800000000000000000000000280020000000000000000000000000000000000000000000000000000000004400000002000000000000000000000000000000000000000000000000000000000000000000000000000000000000000000000000000100000000000000000000",
      "transactionHash": "0x1cb6714ef466942fae6881bc480fc4665e4d2050691db83861e0ceb06ea49219",
      "transactionIndex": "0x3d",
      "blockHash": "0x2d8fef1cd8ef2f19688e6a8cc9b0119f33af1ccb409355dab6dd1d3685cdf888",
      "blockNumber": "0x359603",
      "gasUsed": "0x9542",
      "effectiveGasPrice": "0x2540c48b5",
      "from": "0x1d434906aa520e592fab2b82406beff859be8e82",
      "to": "0x16fbfcf4970d4550791faf75ae9baece75c85a27",
      "contractAddress": null,
      "feeToken": "0x20c0000000000000000000000000000000000000",
      "feePayer": "0x1d434906aa520e592fab2b82406beff859be8e82"
    },
    {
      "type": "0x2",
      "status": "0x1",
      "cumulativeGasUsed": "0x49101e",
      "logs": [
        {
          "address": "0x16fbfcf4970d4550791faf75ae9baece75c85a27",
          "topics": [
            "0x8be0079c531659141344cd1fd0a4f28419497f9722a3daafe3b4186f6b6457e0",
            "0x0000000000000000000000001d434906aa520e592fab2b82406beff859be8e82",
            "0x0000000000000000000000001d434906aa520e592fab2b82406beff859be8e82"
          ],
          "data": "0x",
          "blockHash": "0x2d8fef1cd8ef2f19688e6a8cc9b0119f33af1ccb409355dab6dd1d3685cdf888",
          "blockNumber": "0x359603",
          "blockTimestamp": "0x6982388c",
          "transactionHash": "0xcb59b6ab86cbae9c3c79da922eecc2d9a8248ecc83edf6569082d7d518975695",
          "transactionIndex": "0x3e",
          "logIndex": "0x75",
          "removed": false
        },
        {
          "address": "0x20c0000000000000000000000000000000000000",
          "topics": [
            "0xddf252ad1be2c89b69c2b068fc378daa952ba7f163c4a11628f55a4df523b3ef",
            "0x0000000000000000000000001d434906aa520e592fab2b82406beff859be8e82",
            "0x000000000000000000000000feec000000000000000000000000000000000000"
          ],
          "data": "0x000000000000000000000000000000000000000000000000000000000000014c",
          "blockHash": "0x2d8fef1cd8ef2f19688e6a8cc9b0119f33af1ccb409355dab6dd1d3685cdf888",
          "blockNumber": "0x359603",
          "blockTimestamp": "0x6982388c",
          "transactionHash": "0xcb59b6ab86cbae9c3c79da922eecc2d9a8248ecc83edf6569082d7d518975695",
          "transactionIndex": "0x3e",
          "logIndex": "0x76",
          "removed": false
        }
      ],
      "logsBloom": "0x00000000000000000000000000000000000000000000000000800000000000000040000000000000000100000100000000000000000000000000000000000000000004000000000000000008000000000001000000000000000000000400000000000000000000000020000000000000000000000000000000000010000000400000000000000000000000000020000000000000800000002000000000000000080020000000000000000000000000000040000000000000000000000000000000000002000000000000000000000000000000000000000000000000000000000000000000000000000000000000000000000000000000000000000000000000",
      "transactionHash": "0xcb59b6ab86cbae9c3c79da922eecc2d9a8248ecc83edf6569082d7d518975695",
      "transactionIndex": "0x3e",
      "blockHash": "0x2d8fef1cd8ef2f19688e6a8cc9b0119f33af1ccb409355dab6dd1d3685cdf888",
      "blockNumber": "0x359603",
      "gasUsed": "0x8157",
      "effectiveGasPrice": "0x2540c48b5",
      "from": "0x1d434906aa520e592fab2b82406beff859be8e82",
      "to": "0x16fbfcf4970d4550791faf75ae9baece75c85a27",
      "contractAddress": null,
      "feeToken": "0x20c0000000000000000000000000000000000000",
      "feePayer": "0x1d434906aa520e592fab2b82406beff859be8e82"
    },
    {
      "type": "0x2",
      "status": "0x1",
      "cumulativeGasUsed": "0x4974e5",
      "logs": [
        {
          "address": "0x394e4f810bde9eb786018def607951021c470051",
          "topics": [
            "0x8be0079c531659141344cd1fd0a4f28419497f9722a3daafe3b4186f6b6457e0",
            "0x0000000000000000000000001d434906aa520e592fab2b82406beff859be8e82",
            "0x0000000000000000000000001d434906aa520e592fab2b82406beff859be8e82"
          ],
          "data": "0x",
          "blockHash": "0x2d8fef1cd8ef2f19688e6a8cc9b0119f33af1ccb409355dab6dd1d3685cdf888",
          "blockNumber": "0x359603",
          "blockTimestamp": "0x6982388c",
          "transactionHash": "0xa9499ae6ec955b14eafe93d2c1b7bf08cb36c35cad704f08c2622a23208c7d10",
          "transactionIndex": "0x3f",
          "logIndex": "0x77",
          "removed": false
        },
        {
          "address": "0x20c0000000000000000000000000000000000000",
          "topics": [
            "0xddf252ad1be2c89b69c2b068fc378daa952ba7f163c4a11628f55a4df523b3ef",
            "0x0000000000000000000000001d434906aa520e592fab2b82406beff859be8e82",
            "0x000000000000000000000000feec000000000000000000000000000000000000"
          ],
          "data": "0x0000000000000000000000000000000000000000000000000000000000000102",
          "blockHash": "0x2d8fef1cd8ef2f19688e6a8cc9b0119f33af1ccb409355dab6dd1d3685cdf888",
          "blockNumber": "0x359603",
          "blockTimestamp": "0x6982388c",
          "transactionHash": "0xa9499ae6ec955b14eafe93d2c1b7bf08cb36c35cad704f08c2622a23208c7d10",
          "transactionIndex": "0x3f",
          "logIndex": "0x78",
          "removed": false
        }
      ],
      "logsBloom": "0x00000000000000000000000000000000000000000000000000800000000000000040000000000000000100000100000000000000000000000000000000000000000004000000000000000008000000000001000000000000000000000400000000000000000020000000000000000000000000000000000000000010000000400000000000000000000000000021000000000000800000000000000000000000080020000000000000000000000000000000000000000000000000000000000000000002200000000000000000000000000000000000000000000000000000000000000000000000000000000000000000000000000000000000000000000000",
      "transactionHash": "0xa9499ae6ec955b14eafe93d2c1b7bf08cb36c35cad704f08c2622a23208c7d10",
      "transactionIndex": "0x3f",
      "blockHash": "0x2d8fef1cd8ef2f19688e6a8cc9b0119f33af1ccb409355dab6dd1d3685cdf888",
      "blockNumber": "0x359603",
      "gasUsed": "0x64c7",
      "effectiveGasPrice": "0x2540c48b5",
      "from": "0x1d434906aa520e592fab2b82406beff859be8e82",
      "to": "0x394e4f810bde9eb786018def607951021c470051",
      "contractAddress": null,
      "feeToken": "0x20c0000000000000000000000000000000000000",
      "feePayer": "0x1d434906aa520e592fab2b82406beff859be8e82"
    }
  ],
  "libraries": [],
  "pending": [],
  "returns": {},
  "timestamp": 1770141837956,
  "chain": 42431,
  "commit": "71b2709"
}