{
  "transactions": [
    {
      "hash": "0x22be1df559fa57f3a291937cd5bcd4b7fbd0f20906f0b70eee4c911336778ef2",
      "transactionType": "CALL",
      "contractName": null,
      "contractAddress": "0xa536976c9ca36e74af76037af555eefa632ce469",
      "function": "setPeer(uint32,bytes32)",
      "arguments": [
        "30255",
        "0x0000000000000000000000008d8f779e1548b0ef538f5dfe76abfa232d705c8b"
      ],
      "transaction": {
        "from": "0x0990be6db8c785fbbf9ded8baec612a10cae814b",
        "to": "0xa536976c9ca36e74af76037af555eefa632ce469",
        "gas": "0xaef6",
        "value": "0x0",
        "input": "0x3400288b000000000000000000000000000000000000000000000000000000000000762f0000000000000000000000008d8f779e1548b0ef538f5dfe76abfa232d705c8b",
        "nonce": "0x13",
        "chainId": "0x2105"
      },
      "additionalContracts": [],
      "isFixedGasLimit": false
    }
  ],
  "receipts": [
    {
      "status": "0x1",
      "cumulativeGasUsed": "0x3398c6f",
      "logs": [
        {
          "address": "0xa536976c9ca36e74af76037af555eefa632ce469",
          "topics": [
            "0x238399d427b947898edb290f5ff0f9109849b1c3ba196a42e35f00c50a54b98b"
          ],
          "data": "0x000000000000000000000000000000000000000000000000000000000000762f0000000000000000000000008d8f779e1548b0ef538f5dfe76abfa232d705c8b",
          "blockHash": "0x90d9a0ddf59b74c319cd801f4c928ed47b967a084ada669efd2f84d4f7b4e9af",
          "blockNumber": "0x16bc487",
          "transactionHash": "0x22be1df559fa57f3a291937cd5bcd4b7fbd0f20906f0b70eee4c911336778ef2",
          "transactionIndex": "0x8d",
          "logIndex": "0x595",
          "removed": false
        }
      ],
      "logsBloom": "0x00000000000000000000000000000000000000000000000000000000000000000000000000000000000000000000000004000000000000000800000000000000000000000000000000000000000000000000000000000000000000000000000000000000000000000000000000000000000000000000000000800000000000000000000000000000000000000000000000000000000000000000000000000000000000000000000000000000000000000000000000000000000002000000000000000000000000000000000000000000000000000004000000040000000000000000000000000000000000000000000000000000000000000000000000000000",
      "type": "0x2",
      "transactionHash": "0x22be1df559fa57f3a291937cd5bcd4b7fbd0f20906f0b70eee4c911336778ef2",
      "transactionIndex": "0x8d",
      "blockHash": "0x90d9a0ddf59b74c319cd801f4c928ed47b967a084ada669efd2f84d4f7b4e9af",
      "blockNumber": "0x16bc487",
      "gasUsed": "0x77a2",
      "effectiveGasPrice": "0xd70b5e",
      "from": "0x0990be6db8c785fbbf9ded8baec612a10cae814b",
      "to": "0xa536976c9ca36e74af76037af555eefa632ce469",
      "contractAddress": null,
      "l1BaseFeeScalar": "0x8dd",
      "l1BlobBaseFee": "0x44c5",
      "l1BlobBaseFeeScalar": "0x101c12",
      "l1Fee": "0xf080047ae",
      "l1GasPrice": "0x423e87833",
      "l1GasUsed": "0x640"
    }
  ],
  "libraries": [],
  "pending": [],
  "returns": {},
  "timestamp": 1734469087,
  "chain": 8453,
  "commit": "b552015"
}