{
  "transactions": [
    {
      "hash": "0xef31fa2f90556db98caf53d212199aef4f53c359f15c512f04d10e295737b487",
      "transactionType": "CALL",
      "contractName": null,
      "contractAddress": "0xa536976c9ca36e74af76037af555eefa632ce469",
      "function": "setPeer(uint32,bytes32)",
      "arguments": [
        "30255",
        "0x0000000000000000000000000b107b1618d7570d0a07b69dda8b32ae15e62de2"
      ],
      "transaction": {
        "from": "0x0990be6db8c785fbbf9ded8baec612a10cae814b",
        "to": "0xa536976c9ca36e74af76037af555eefa632ce469",
        "gas": "0xaef6",
        "value": "0x0",
        "input": "0x3400288b000000000000000000000000000000000000000000000000000000000000762f0000000000000000000000000b107b1618d7570d0a07b69dda8b32ae15e62de2",
        "nonce": "0xe",
        "chainId": "0x2105"
      },
      "additionalContracts": [],
      "isFixedGasLimit": false
    },
    {
      "hash": "0xf14e5299fa6990031e749b0512d843cb1d341514c6d65b4674008b14ef753f40",
      "transactionType": "CALL",
      "contractName": null,
      "contractAddress": "0xa536976c9ca36e74af76037af555eefa632ce469",
      "function": "setPeer(uint32,bytes32)",
      "arguments": [
        "30255",
        "0x0000000000000000000000000b107b1618d7570d0a07b69dda8b32ae15e62de2"
      ],
      "transaction": {
        "from": "0x0990be6db8c785fbbf9ded8baec612a10cae814b",
        "to": "0xa536976c9ca36e74af76037af555eefa632ce469",
        "gas": "0x9ef7",
        "value": "0x0",
        "input": "0x3400288b000000000000000000000000000000000000000000000000000000000000762f0000000000000000000000000b107b1618d7570d0a07b69dda8b32ae15e62de2",
        "nonce": "0xf",
        "chainId": "0x2105"
      },
      "additionalContracts": [],
      "isFixedGasLimit": false
    },
    {
      "hash": "0xcfdb83a8728760369188dec7b99559bf633bb7f883720367d2096cad7f58211e",
      "transactionType": "CALL",
      "contractName": null,
      "contractAddress": "0xa536976c9ca36e74af76037af555eefa632ce469",
      "function": "setPeer(uint32,bytes32)",
      "arguments": [
        "30255",
        "0x0000000000000000000000000b107b1618d7570d0a07b69dda8b32ae15e62de2"
      ],
      "transaction": {
        "from": "0x0990be6db8c785fbbf9ded8baec612a10cae814b",
        "to": "0xa536976c9ca36e74af76037af555eefa632ce469",
        "gas": "0x9ef7",
        "value": "0x0",
        "input": "0x3400288b000000000000000000000000000000000000000000000000000000000000762f0000000000000000000000000b107b1618d7570d0a07b69dda8b32ae15e62de2",
        "nonce": "0x10",
        "chainId": "0x2105"
      },
      "additionalContracts": [],
      "isFixedGasLimit": false
    },
    {
      "hash": "0x76dd932035a06b518c2778c138a3563ccbaa87a022608f6c09513f61d4c93f7c",
      "transactionType": "CALL",
      "contractName": null,
      "contractAddress": "0xa536976c9ca36e74af76037af555eefa632ce469",
      "function": "setPeer(uint32,bytes32)",
      "arguments": [
        "30255",
        "0x0000000000000000000000000b107b1618d7570d0a07b69dda8b32ae15e62de2"
      ],
      "transaction": {
        "from": "0x0990be6db8c785fbbf9ded8baec612a10cae814b",
        "to": "0xa536976c9ca36e74af76037af555eefa632ce469",
        "gas": "0x9ef7",
        "value": "0x0",
        "input": "0x3400288b000000000000000000000000000000000000000000000000000000000000762f0000000000000000000000000b107b1618d7570d0a07b69dda8b32ae15e62de2",
        "nonce": "0x11",
        "chainId": "0x2105"
      },
      "additionalContracts": [],
      "isFixedGasLimit": false
    }
  ],
  "receipts": [
    {
      "status": "0x1",
      "cumulativeGasUsed": "0x1a17006",
      "logs": [
        {
          "address": "0xa536976c9ca36e74af76037af555eefa632ce469",
          "topics": [
            "0x238399d427b947898edb290f5ff0f9109849b1c3ba196a42e35f00c50a54b98b"
          ],
          "data": "0x000000000000000000000000000000000000000000000000000000000000762f0000000000000000000000000b107b1618d7570d0a07b69dda8b32ae15e62de2",
          "blockHash": "0xc3dfa66f2f0be5f77d25e1bac8f450e3171915001f95a9006d028857d4b8b037",
          "blockNumber": "0x16b36cc",
          "transactionHash": "0xef31fa2f90556db98caf53d212199aef4f53c359f15c512f04d10e295737b487",
          "transactionIndex": "0x9b",
          "logIndex": "0x187",
          "removed": false
        }
      ],
      "logsBloom": "0x00000000000000000000000000000000000000000000000000000000000000000000000000000000000000000000000004000000000000000800000000000000000000000000000000000000000000000000000000000000000000000000000000000000000000000000000000000000000000000000000000800000000000000000000000000000000000000000000000000000000000000000000000000000000000000000000000000000000000000000000000000000000002000000000000000000000000000000000000000000000000000004000000040000000000000000000000000000000000000000000000000000000000000000000000000000",
      "type": "0x2",
      "transactionHash": "0xef31fa2f90556db98caf53d212199aef4f53c359f15c512f04d10e295737b487",
      "transactionIndex": "0x9b",
      "blockHash": "0xc3dfa66f2f0be5f77d25e1bac8f450e3171915001f95a9006d028857d4b8b037",
      "blockNumber": "0x16b36cc",
      "gasUsed": "0x77a2",
      "effectiveGasPrice": "0x95cef5",
      "from": "0x0990be6db8c785fbbf9ded8baec612a10cae814b",
      "to": "0xa536976c9ca36e74af76037af555eefa632ce469",
      "contractAddress": null,
      "l1BaseFeeScalar": "0x8dd",
      "l1BlobBaseFee": "0x1279c460",
      "l1BlobBaseFeeScalar": "0x101c12",
      "l1Fee": "0xfbf963f35",
      "l1GasPrice": "0x23d36e573",
      "l1GasUsed": "0x640"
    },
    {
      "status": "0x1",
      "cumulativeGasUsed": "0x1be2420",
      "logs": [
        {
          "address": "0xa536976c9ca36e74af76037af555eefa632ce469",
          "topics": [
            "0x238399d427b947898edb290f5ff0f9109849b1c3ba196a42e35f00c50a54b98b"
          ],
          "data": "0x000000000000000000000000000000000000000000000000000000000000762f0000000000000000000000000b107b1618d7570d0a07b69dda8b32ae15e62de2",
          "blockHash": "0xc3dfa66f2f0be5f77d25e1bac8f450e3171915001f95a9006d028857d4b8b037",
          "blockNumber": "0x16b36cc",
          "transactionHash": "0xf14e5299fa6990031e749b0512d843cb1d341514c6d65b4674008b14ef753f40",
          "transactionIndex": "0xa3",
          "logIndex": "0x1a9",
          "removed": false
        }
      ],
      "logsBloom": "0x00000000000000000000000000000000000000000000000000000000000000000000000000000000000000000000000004000000000000000800000000000000000000000000000000000000000000000000000000000000000000000000000000000000000000000000000000000000000000000000000000800000000000000000000000000000000000000000000000000000000000000000000000000000000000000000000000000000000000000000000000000000000002000000000000000000000000000000000000000000000000000004000000040000000000000000000000000000000000000000000000000000000000000000000000000000",
      "type": "0x2",
      "transactionHash": "0xf14e5299fa6990031e749b0512d843cb1d341514c6d65b4674008b14ef753f40",
      "transactionIndex": "0xa3",
      "blockHash": "0xc3dfa66f2f0be5f77d25e1bac8f450e3171915001f95a9006d028857d4b8b037",
      "blockNumber": "0x16b36cc",
      "gasUsed": "0x6cb2",
      "effectiveGasPrice": "0x95cef5",
      "from": "0x0990be6db8c785fbbf9ded8baec612a10cae814b",
      "to": "0xa536976c9ca36e74af76037af555eefa632ce469",
      "contractAddress": null,
      "l1BaseFeeScalar": "0x8dd",
      "l1BlobBaseFee": "0x1279c460",
      "l1BlobBaseFeeScalar": "0x101c12",
      "l1Fee": "0xfbf963f35",
      "l1GasPrice": "0x23d36e573",
      "l1GasUsed": "0x640"
    },
    {
      "status": "0x1",
      "cumulativeGasUsed": "0x1be90d2",
      "logs": [
        {
          "address": "0xa536976c9ca36e74af76037af555eefa632ce469",
          "topics": [
            "0x238399d427b947898edb290f5ff0f9109849b1c3ba196a42e35f00c50a54b98b"
          ],
          "data": "0x000000000000000000000000000000000000000000000000000000000000762f0000000000000000000000000b107b1618d7570d0a07b69dda8b32ae15e62de2",
          "blockHash": "0xc3dfa66f2f0be5f77d25e1bac8f450e3171915001f95a9006d028857d4b8b037",
          "blockNumber": "0x16b36cc",
          "transactionHash": "0xcfdb83a8728760369188dec7b99559bf633bb7f883720367d2096cad7f58211e",
          "transactionIndex": "0xa4",
          "logIndex": "0x1aa",
          "removed": false
        }
      ],
      "logsBloom": "0x00000000000000000000000000000000000000000000000000000000000000000000000000000000000000000000000004000000000000000800000000000000000000000000000000000000000000000000000000000000000000000000000000000000000000000000000000000000000000000000000000800000000000000000000000000000000000000000000000000000000000000000000000000000000000000000000000000000000000000000000000000000000002000000000000000000000000000000000000000000000000000004000000040000000000000000000000000000000000000000000000000000000000000000000000000000",
      "type": "0x2",
      "transactionHash": "0xcfdb83a8728760369188dec7b99559bf633bb7f883720367d2096cad7f58211e",
      "transactionIndex": "0xa4",
      "blockHash": "0xc3dfa66f2f0be5f77d25e1bac8f450e3171915001f95a9006d028857d4b8b037",
      "blockNumber": "0x16b36cc",
      "gasUsed": "0x6cb2",
      "effectiveGasPrice": "0x95cef5",
      "from": "0x0990be6db8c785fbbf9ded8baec612a10cae814b",
      "to": "0xa536976c9ca36e74af76037af555eefa632ce469",
      "contractAddress": null,
      "l1BaseFeeScalar": "0x8dd",
      "l1BlobBaseFee": "0x1279c460",
      "l1BlobBaseFeeScalar": "0x101c12",
      "l1Fee": "0xfbf963f35",
      "l1GasPrice": "0x23d36e573",
      "l1GasUsed": "0x640"
    },
    {
      "status": "0x1",
      "cumulativeGasUsed": "0x1befd84",
      "logs": [
        {
          "address": "0xa536976c9ca36e74af76037af555eefa632ce469",
          "topics": [
            "0x238399d427b947898edb290f5ff0f9109849b1c3ba196a42e35f00c50a54b98b"
          ],
          "data": "0x000000000000000000000000000000000000000000000000000000000000762f0000000000000000000000000b107b1618d7570d0a07b69dda8b32ae15e62de2",
          "blockHash": "0xc3dfa66f2f0be5f77d25e1bac8f450e3171915001f95a9006d028857d4b8b037",
          "blockNumber": "0x16b36cc",
          "transactionHash": "0x76dd932035a06b518c2778c138a3563ccbaa87a022608f6c09513f61d4c93f7c",
          "transactionIndex": "0xa5",
          "logIndex": "0x1ab",
          "removed": false
        }
      ],
      "logsBloom": "0x00000000000000000000000000000000000000000000000000000000000000000000000000000000000000000000000004000000000000000800000000000000000000000000000000000000000000000000000000000000000000000000000000000000000000000000000000000000000000000000000000800000000000000000000000000000000000000000000000000000000000000000000000000000000000000000000000000000000000000000000000000000000002000000000000000000000000000000000000000000000000000004000000040000000000000000000000000000000000000000000000000000000000000000000000000000",
      "type": "0x2",
      "transactionHash": "0x76dd932035a06b518c2778c138a3563ccbaa87a022608f6c09513f61d4c93f7c",
      "transactionIndex": "0xa5",
      "blockHash": "0xc3dfa66f2f0be5f77d25e1bac8f450e3171915001f95a9006d028857d4b8b037",
      "blockNumber": "0x16b36cc",
      "gasUsed": "0x6cb2",
      "effectiveGasPrice": "0x95cef5",
      "from": "0x0990be6db8c785fbbf9ded8baec612a10cae814b",
      "to": "0xa536976c9ca36e74af76037af555eefa632ce469",
      "contractAddress": null,
      "l1BaseFeeScalar": "0x8dd",
      "l1BlobBaseFee": "0x1279c460",
      "l1BlobBaseFeeScalar": "0x101c12",
      "l1Fee": "0xfbf963f35",
      "l1GasPrice": "0x23d36e573",
      "l1GasUsed": "0x640"
    }
  ],
  "libraries": [],
  "pending": [],
  "returns": {},
  "timestamp": 1734396522,
  "chain": 8453,
  "commit": "b552015"
}