{
  "transactions": [
    {
      "hash": "0xc8423b2bb64ac47ccbab9fcb707b5f353eb9b3bcf8c07e0b2be01bf411cf90ae",
      "transactionType": "CALL",
      "contractName": null,
      "contractAddress": "0x64445f0aecc51e94ad52d8ac56b7190e764e561a",
      "function": "approve(address,uint256)",
      "arguments": [
        "0x64445f0aecC51E94aD52d8AC56b7190e764E561a",
        "115792089237316195423570985008687907853269984665640564039457584007913129639935"
      ],
      "transaction": {
        "from": "0xb0e1650a9760e0f383174af042091fc544b8356f",
        "to": "0x64445f0aecc51e94ad52d8ac56b7190e764e561a",
        "gas": "0x1230d",
        "value": "0x0",
        "input": "0x095ea7b300000000000000000000000064445f0aecc51e94ad52d8ac56b7190e764e561affffffffffffffffffffffffffffffffffffffffffffffffffffffffffffffff",
        "nonce": "0x4",
        "chainId": "0x18232"
      },
      "additionalContracts": [],
      "isFixedGasLimit": false
    },
    {
      "hash": "0x14e7126a478fd6b0ae816896b9691912826412eeb04173ed3d41746e717c2087",
      "transactionType": "CALL",
      "contractName": null,
      "contractAddress": "0x64445f0aecc51e94ad52d8ac56b7190e764e561a",
      "function": "send((uint32,bytes32,uint256,uint256,bytes,bytes,bytes),(uint256,uint256),address)",
      "arguments": [
        "(30255, 0x000000000000000000000000b0e1650a9760e0f383174af042091fc544b8356f, 100000000000000, 100000000000000, 0x0003, 0x, 0x)",
        "(1354607080222038214, 0)",
        "0xb0E1650A9760e0f383174af042091fc544b8356f"
      ],
      "transaction": {
        "from": "0xb0e1650a9760e0f383174af042091fc544b8356f",
        "to": "0x64445f0aecc51e94ad52d8ac56b7190e764e561a",
        "gas": "0x71496",
        "value": "0x12cc87f662dd18c6",
        "input": "0xc7c7f5b3000000000000000000000000000000000000000000000000000000000000008000000000000000000000000000000000000000000000000012cc87f662dd18c60000000000000000000000000000000000000000000000000000000000000000000000000000000000000000b0e1650a9760e0f383174af042091fc544b8356f000000000000000000000000000000000000000000000000000000000000762f000000000000000000000000b0e1650a9760e0f383174af042091fc544b8356f00000000000000000000000000000000000000000000000000005af3107a400000000000000000000000000000000000000000000000000000005af3107a400000000000000000000000000000000000000000000000000000000000000000e0000000000000000000000000000000000000000000000000000000000000012000000000000000000000000000000000000000000000000000000000000001400000000000000000000000000000000000000000000000000000000000000002000300000000000000000000000000000000000000000000000000000000000000000000000000000000000000000000000000000000000000000000000000000000000000000000000000000000000000000000000000000000000000000000",
        "nonce": "0x5",
        "chainId": "0x18232"
      },
      "additionalContracts": [],
      "isFixedGasLimit": false
    },
    {
      "hash": "0xc4467162cdcba8a30b066de11278980c4037852c4bf0b6aa2a04d8383f32504e",
      "transactionType": "CALL",
      "contractName": null,
      "contractAddress": "0x5bff88ca1442c2496f7e475e9e7786383bc070c0",
      "function": "approve(address,uint256)",
      "arguments": [
        "0x5Bff88cA1442c2496f7E475E9e7786383Bc070c0",
        "115792089237316195423570985008687907853269984665640564039457584007913129639935"
      ],
      "transaction": {
        "from": "0xb0e1650a9760e0f383174af042091fc544b8356f",
        "to": "0x5bff88ca1442c2496f7e475e9e7786383bc070c0",
        "gas": "0x1230d",
        "value": "0x0",
        "input": "0x095ea7b30000000000000000000000005bff88ca1442c2496f7e475e9e7786383bc070c0ffffffffffffffffffffffffffffffffffffffffffffffffffffffffffffffff",
        "nonce": "0x6",
        "chainId": "0x18232"
      },
      "additionalContracts": [],
      "isFixedGasLimit": false
    },
    {
      "hash": "0xb17f8c00638b9aa16ee8631a4b92191572f99d4d1cd6995a2e48d8f9eef4dc85",
      "transactionType": "CALL",
      "contractName": null,
      "contractAddress": "0x5bff88ca1442c2496f7e475e9e7786383bc070c0",
      "function": "send((uint32,bytes32,uint256,uint256,bytes,bytes,bytes),(uint256,uint256),address)",
      "arguments": [
        "(30255, 0x000000000000000000000000b0e1650a9760e0f383174af042091fc544b8356f, 100000000000000, 100000000000000, 0x0003, 0x, 0x)",
        "(1354607080222038214, 0)",
        "0xb0E1650A9760e0f383174af042091fc544b8356f"
      ],
      "transaction": {
        "from": "0xb0e1650a9760e0f383174af042091fc544b8356f",
        "to": "0x5bff88ca1442c2496f7e475e9e7786383bc070c0",
        "gas": "0x71496",
        "value": "0x12cc87f662dd18c6",
        "input": "0xc7c7f5b3000000000000000000000000000000000000000000000000000000000000008000000000000000000000000000000000000000000000000012cc87f662dd18c60000000000000000000000000000000000000000000000000000000000000000000000000000000000000000b0e1650a9760e0f383174af042091fc544b8356f000000000000000000000000000000000000000000000000000000000000762f000000000000000000000000b0e1650a9760e0f383174af042091fc544b8356f00000000000000000000000000000000000000000000000000005af3107a400000000000000000000000000000000000000000000000000000005af3107a400000000000000000000000000000000000000000000000000000000000000000e0000000000000000000000000000000000000000000000000000000000000012000000000000000000000000000000000000000000000000000000000000001400000000000000000000000000000000000000000000000000000000000000002000300000000000000000000000000000000000000000000000000000000000000000000000000000000000000000000000000000000000000000000000000000000000000000000000000000000000000000000000000000000000000000000",
        "nonce": "0x7",
        "chainId": "0x18232"
      },
      "additionalContracts": [],
      "isFixedGasLimit": false
    },
    {
      "hash": "0x515ef772307ba77e28293f139af13cba7a08e39dbb68681f1def18ec3233f83d",
      "transactionType": "CALL",
      "contractName": null,
      "contractAddress": "0x3ec3849c33291a9ef4c5db86de593eb4a37fde45",
      "function": "approve(address,uint256)",
      "arguments": [
        "0x3Ec3849C33291a9eF4c5dB86De593EB4A37fDe45",
        "115792089237316195423570985008687907853269984665640564039457584007913129639935"
      ],
      "transaction": {
        "from": "0xb0e1650a9760e0f383174af042091fc544b8356f",
        "to": "0x3ec3849c33291a9ef4c5db86de593eb4a37fde45",
        "gas": "0x1230d",
        "value": "0x0",
        "input": "0x095ea7b30000000000000000000000003ec3849c33291a9ef4c5db86de593eb4a37fde45ffffffffffffffffffffffffffffffffffffffffffffffffffffffffffffffff",
        "nonce": "0x8",
        "chainId": "0x18232"
      },
      "additionalContracts": [],
      "isFixedGasLimit": false
    },
    {
      "hash": "0x52b13eedf16bc152e37086cdea7ee4a7566c49c6274b88effd935f3e3b781817",
      "transactionType": "CALL",
      "contractName": null,
      "contractAddress": "0x3ec3849c33291a9ef4c5db86de593eb4a37fde45",
      "function": "send((uint32,bytes32,uint256,uint256,bytes,bytes,bytes),(uint256,uint256),address)",
      "arguments": [
        "(30255, 0x000000000000000000000000b0e1650a9760e0f383174af042091fc544b8356f, 100000000000000, 100000000000000, 0x0003, 0x, 0x)",
        "(1354607080222038214, 0)",
        "0xb0E1650A9760e0f383174af042091fc544b8356f"
      ],
      "transaction": {
        "from": "0xb0e1650a9760e0f383174af042091fc544b8356f",
        "to": "0x3ec3849c33291a9ef4c5db86de593eb4a37fde45",
        "gas": "0x71496",
        "value": "0x12cc87f662dd18c6",
        "input": "0xc7c7f5b3000000000000000000000000000000000000000000000000000000000000008000000000000000000000000000000000000000000000000012cc87f662dd18c60000000000000000000000000000000000000000000000000000000000000000000000000000000000000000b0e1650a9760e0f383174af042091fc544b8356f000000000000000000000000000000000000000000000000000000000000762f000000000000000000000000b0e1650a9760e0f383174af042091fc544b8356f00000000000000000000000000000000000000000000000000005af3107a400000000000000000000000000000000000000000000000000000005af3107a400000000000000000000000000000000000000000000000000000000000000000e0000000000000000000000000000000000000000000000000000000000000012000000000000000000000000000000000000000000000000000000000000001400000000000000000000000000000000000000000000000000000000000000002000300000000000000000000000000000000000000000000000000000000000000000000000000000000000000000000000000000000000000000000000000000000000000000000000000000000000000000000000000000000000000000000",
        "nonce": "0x9",
        "chainId": "0x18232"
      },
      "additionalContracts": [],
      "isFixedGasLimit": false
    },
    {
      "hash": "0x39177421dfd6ddf95483f1f827becb26eea86e3053cb38138c09e6634bb31f15",
      "transactionType": "CALL",
      "contractName": null,
      "contractAddress": "0x80eede496655fb9047dd39d9f418d5483ed600df",
      "function": "approve(address,uint256)",
      "arguments": [
        "0x80Eede496655FB9047dd39d9f418d5483ED600df",
        "115792089237316195423570985008687907853269984665640564039457584007913129639935"
      ],
      "transaction": {
        "from": "0xb0e1650a9760e0f383174af042091fc544b8356f",
        "to": "0x80eede496655fb9047dd39d9f418d5483ed600df",
        "gas": "0x122fc",
        "value": "0x0",
        "input": "0x095ea7b300000000000000000000000080eede496655fb9047dd39d9f418d5483ed600dfffffffffffffffffffffffffffffffffffffffffffffffffffffffffffffffff",
        "nonce": "0xa",
        "chainId": "0x18232"
      },
      "additionalContracts": [],
      "isFixedGasLimit": false
    },
    {
      "hash": "0xba753e34018fe8f7e1dccb7c3d17d9dde4f48f6565f9f7313638d394b5989628",
      "transactionType": "CALL",
      "contractName": null,
      "contractAddress": "0x80eede496655fb9047dd39d9f418d5483ed600df",
      "function": "send((uint32,bytes32,uint256,uint256,bytes,bytes,bytes),(uint256,uint256),address)",
      "arguments": [
        "(30255, 0x000000000000000000000000b0e1650a9760e0f383174af042091fc544b8356f, 100000000000000, 100000000000000, 0x0003, 0x, 0x)",
        "(1354607080222038214, 0)",
        "0xb0E1650A9760e0f383174af042091fc544b8356f"
      ],
      "transaction": {
        "from": "0xb0e1650a9760e0f383174af042091fc544b8356f",
        "to": "0x80eede496655fb9047dd39d9f418d5483ed600df",
        "gas": "0x71496",
        "value": "0x12cc87f662dd18c6",
        "input": "0xc7c7f5b3000000000000000000000000000000000000000000000000000000000000008000000000000000000000000000000000000000000000000012cc87f662dd18c60000000000000000000000000000000000000000000000000000000000000000000000000000000000000000b0e1650a9760e0f383174af042091fc544b8356f000000000000000000000000000000000000000000000000000000000000762f000000000000000000000000b0e1650a9760e0f383174af042091fc544b8356f00000000000000000000000000000000000000000000000000005af3107a400000000000000000000000000000000000000000000000000000005af3107a400000000000000000000000000000000000000000000000000000000000000000e0000000000000000000000000000000000000000000000000000000000000012000000000000000000000000000000000000000000000000000000000000001400000000000000000000000000000000000000000000000000000000000000002000300000000000000000000000000000000000000000000000000000000000000000000000000000000000000000000000000000000000000000000000000000000000000000000000000000000000000000000000000000000000000000000",
        "nonce": "0xb",
        "chainId": "0x18232"
      },
      "additionalContracts": [],
      "isFixedGasLimit": false
    },
    {
      "hash": "0x580b6c9847691a40d07e6a391c248a38e6a2d128977e5bb4d0d304fa4a3376c3",
      "transactionType": "CALL",
      "contractName": null,
      "contractAddress": "0x43edd7f3831b08fe70b7555ddd373c8bf65a9050",
      "function": "approve(address,uint256)",
      "arguments": [
        "0x43eDD7f3831b08FE70B7555ddD373C8bF65a9050",
        "115792089237316195423570985008687907853269984665640564039457584007913129639935"
      ],
      "transaction": {
        "from": "0xb0e1650a9760e0f383174af042091fc544b8356f",
        "to": "0x43edd7f3831b08fe70b7555ddd373c8bf65a9050",
        "gas": "0x1230d",
        "value": "0x0",
        "input": "0x095ea7b300000000000000000000000043edd7f3831b08fe70b7555ddd373c8bf65a9050ffffffffffffffffffffffffffffffffffffffffffffffffffffffffffffffff",
        "nonce": "0xc",
        "chainId": "0x18232"
      },
      "additionalContracts": [],
      "isFixedGasLimit": false
    },
    {
      "hash": "0x460da015633f04f5ea6173c6f698e0344a721b4111bb9f2aad5226a9c6125dfe",
      "transactionType": "CALL",
      "contractName": null,
      "contractAddress": "0x43edd7f3831b08fe70b7555ddd373c8bf65a9050",
      "function": "send((uint32,bytes32,uint256,uint256,bytes,bytes,bytes),(uint256,uint256),address)",
      "arguments": [
        "(30255, 0x000000000000000000000000b0e1650a9760e0f383174af042091fc544b8356f, 100000000000000, 100000000000000, 0x0003, 0x, 0x)",
        "(1354607080222038214, 0)",
        "0xb0E1650A9760e0f383174af042091fc544b8356f"
      ],
      "transaction": {
        "from": "0xb0e1650a9760e0f383174af042091fc544b8356f",
        "to": "0x43edd7f3831b08fe70b7555ddd373c8bf65a9050",
        "gas": "0x71496",
        "value": "0x12cc87f662dd18c6",
        "input": "0xc7c7f5b3000000000000000000000000000000000000000000000000000000000000008000000000000000000000000000000000000000000000000012cc87f662dd18c60000000000000000000000000000000000000000000000000000000000000000000000000000000000000000b0e1650a9760e0f383174af042091fc544b8356f000000000000000000000000000000000000000000000000000000000000762f000000000000000000000000b0e1650a9760e0f383174af042091fc544b8356f00000000000000000000000000000000000000000000000000005af3107a400000000000000000000000000000000000000000000000000000005af3107a400000000000000000000000000000000000000000000000000000000000000000e0000000000000000000000000000000000000000000000000000000000000012000000000000000000000000000000000000000000000000000000000000001400000000000000000000000000000000000000000000000000000000000000002000300000000000000000000000000000000000000000000000000000000000000000000000000000000000000000000000000000000000000000000000000000000000000000000000000000000000000000000000000000000000000000000",
        "nonce": "0xd",
        "chainId": "0x18232"
      },
      "additionalContracts": [],
      "isFixedGasLimit": false
    },
    {
      "hash": "0xd492ba469676771059f1794a9cecf0f137bff68339357c629df4924cdad76c9b",
      "transactionType": "CALL",
      "contractName": null,
      "contractAddress": "0x90581eca9469d8d7f5d3b60f4715027adfcf7927",
      "function": "approve(address,uint256)",
      "arguments": [
        "0x90581eCa9469D8D7F5D3B60f4715027aDFCf7927",
        "115792089237316195423570985008687907853269984665640564039457584007913129639935"
      ],
      "transaction": {
        "from": "0xb0e1650a9760e0f383174af042091fc544b8356f",
        "to": "0x90581eca9469d8d7f5d3b60f4715027adfcf7927",
        "gas": "0x1230d",
        "value": "0x0",
        "input": "0x095ea7b300000000000000000000000090581eca9469d8d7f5d3b60f4715027adfcf7927ffffffffffffffffffffffffffffffffffffffffffffffffffffffffffffffff",
        "nonce": "0xe",
        "chainId": "0x18232"
      },
      "additionalContracts": [],
      "isFixedGasLimit": false
    },
    {
      "hash": "0x72640ecb99568d2e18885c06c017247cda185dbdf981ebd2d15ee28cdc8fdbc1",
      "transactionType": "CALL",
      "contractName": null,
      "contractAddress": "0x90581eca9469d8d7f5d3b60f4715027adfcf7927",
      "function": "send((uint32,bytes32,uint256,uint256,bytes,bytes,bytes),(uint256,uint256),address)",
      "arguments": [
        "(30255, 0x000000000000000000000000b0e1650a9760e0f383174af042091fc544b8356f, 100000000000000, 100000000000000, 0x0003, 0x, 0x)",
        "(1354607080222038214, 0)",
        "0xb0E1650A9760e0f383174af042091fc544b8356f"
      ],
      "transaction": {
        "from": "0xb0e1650a9760e0f383174af042091fc544b8356f",
        "to": "0x90581eca9469d8d7f5d3b60f4715027adfcf7927",
        "gas": "0x71496",
        "value": "0x12cc87f662dd18c6",
        "input": "0xc7c7f5b3000000000000000000000000000000000000000000000000000000000000008000000000000000000000000000000000000000000000000012cc87f662dd18c60000000000000000000000000000000000000000000000000000000000000000000000000000000000000000b0e1650a9760e0f383174af042091fc544b8356f000000000000000000000000000000000000000000000000000000000000762f000000000000000000000000b0e1650a9760e0f383174af042091fc544b8356f00000000000000000000000000000000000000000000000000005af3107a400000000000000000000000000000000000000000000000000000005af3107a400000000000000000000000000000000000000000000000000000000000000000e0000000000000000000000000000000000000000000000000000000000000012000000000000000000000000000000000000000000000000000000000000001400000000000000000000000000000000000000000000000000000000000000002000300000000000000000000000000000000000000000000000000000000000000000000000000000000000000000000000000000000000000000000000000000000000000000000000000000000000000000000000000000000000000000000",
        "nonce": "0xf",
        "chainId": "0x18232"
      },
      "additionalContracts": [],
      "isFixedGasLimit": false
    }
  ],
  "receipts": [
    {
      "status": "0x1",
      "cumulativeGasUsed": "0x33e78",
      "logs": [
        {
          "address": "0x64445f0aecc51e94ad52d8ac56b7190e764e561a",
          "topics": [
            "0x8c5be1e5ebec7d5bd14f71427d1e84f3dd0314c0f7b2291e5b200ac8c7c3b925",
            "0x000000000000000000000000b0e1650a9760e0f383174af042091fc544b8356f",
            "0x00000000000000000000000064445f0aecc51e94ad52d8ac56b7190e764e561a"
          ],
          "data": "0xffffffffffffffffffffffffffffffffffffffffffffffffffffffffffffffff",
          "blockHash": "0xb97238e74654118699551c87f36e1f78d285963b9777795b983914d9ad6f0970",
          "blockNumber": "0xddd3e8",
          "transactionHash": "0xc8423b2bb64ac47ccbab9fcb707b5f353eb9b3bcf8c07e0b2be01bf411cf90ae",
          "transactionIndex": "0x3",
          "logIndex": "0x3",
          "removed": false
        }
      ],
      "logsBloom": "0x0000000000000000000000000000000000000000000000000000000000000000000000000000000000000000000000000000000000000000000000000020000000200000000000000000000000000000000000000000000000000000000000000000000000000000000000000000000000000000010008000000000000000000000000000000000000000000000000000000000000000000000000000000000002000000000000000000000c000000000000000000000000000000000000000000000000000000000000000000000000000000000000000000000000000000000010000080000000000000000000000800000008000000000000000000000002",
      "type": "0x2",
      "transactionHash": "0xc8423b2bb64ac47ccbab9fcb707b5f353eb9b3bcf8c07e0b2be01bf411cf90ae",
      "transactionIndex": "0x3",
      "blockHash": "0xb97238e74654118699551c87f36e1f78d285963b9777795b983914d9ad6f0970",
      "blockNumber": "0xddd3e8",
      "gasUsed": "0xd2b8",
      "effectiveGasPrice": "0xe8d4a51000",
      "from": "0xb0e1650a9760e0f383174af042091fc544b8356f",
      "to": "0x64445f0aecc51e94ad52d8ac56b7190e764e561a",
      "contractAddress": null,
      "gasUsedForL1": "0x0",
      "l1BlockNumber": "0x15ed4fd"
    },
    {
      "status": "0x1",
      "cumulativeGasUsed": "0x52048",
      "logs": [
        {
          "address": "0x64445f0aecc51e94ad52d8ac56b7190e764e561a",
          "topics": [
            "0xddf252ad1be2c89b69c2b068fc378daa952ba7f163c4a11628f55a4df523b3ef",
            "0x000000000000000000000000b0e1650a9760e0f383174af042091fc544b8356f",
            "0x0000000000000000000000000000000000000000000000000000000000000000"
          ],
          "data": "0x00000000000000000000000000000000000000000000000000005af3107a4000",
          "blockHash": "0x6c45cd518b371a49e9084e03b1a218c03748fdcbe9b6232218e309ddc4eae298",
          "blockNumber": "0xddd3ea",
          "transactionHash": "0x14e7126a478fd6b0ae816896b9691912826412eeb04173ed3d41746e717c2087",
          "transactionIndex": "0x1",
          "logIndex": "0x0",
          "removed": false
        },
        {
          "address": "0xfe7c30860d01e28371d40434806f4a8fcdd3a098",
          "topics": [
            "0x61ed099e74a97a1d7f8bb0952a88ca8b7b8ebd00c126ea04671f92a81213318a"
          ],
          "data": "0x00000000000000000000000041bdb4aa4a63a5b2efc531858d3118392b1a1c3d000000000000000000000000000000000000000000000000031444efb472f54e",
          "blockHash": "0x6c45cd518b371a49e9084e03b1a218c03748fdcbe9b6232218e309ddc4eae298",
          "blockNumber": "0xddd3ea",
          "transactionHash": "0x14e7126a478fd6b0ae816896b9691912826412eeb04173ed3d41746e717c2087",
          "transactionIndex": "0x1",
          "logIndex": "0x1",
          "removed": false
        },
        {
          "address": "0xfe7c30860d01e28371d40434806f4a8fcdd3a098",
          "topics": [
            "0x07ea52d82345d6e838192107d8fd7123d9c2ec8e916cd0aad13fd2b60db24644"
          ],
          "data": "0x000000000000000000000000000000000000000000000000000000000000006000000000000000000000000000000000000000000000000000000000000000e0000000000000000000000000000000000000000000000000000000000000010000000000000000000000000000000000000000000000000000000000000000030000000000000000000000001e4ce74ccf5498b19900649d9196e64bab5924510000000000000000000000004208d6e27538189bb48e603d6123a94b8abe0a0b0000000000000000000000005e0744f8fbf26446c683bcf4cd405ad56ba76f8a00000000000000000000000000000000000000000000000000000000000000000000000000000000000000000000000000000000000000000000000000000003000000000000000000000000000000000000000000000000021b5503d453dd07000000000000000000000000000000000000000000000000021b5503d453dd07000000000000000000000000000000000000000000000000021b5503d453dd07",
          "blockHash": "0x6c45cd518b371a49e9084e03b1a218c03748fdcbe9b6232218e309ddc4eae298",
          "blockNumber": "0xddd3ea",
          "transactionHash": "0x14e7126a478fd6b0ae816896b9691912826412eeb04173ed3d41746e717c2087",
          "transactionIndex": "0x1",
          "logIndex": "0x2",
          "removed": false
        },
        {
          "address": "0xc1b15d3b262beec0e3565c11c9e0f6134bdacb36",
          "topics": [
            "0x1ab700d4ced0c005b164c0f789fd09fcbb0156d4c2041b8a3bfbcd961cd1567f"
          ],
          "data": "0x00000000000000000000000000000000000000000000000000000000000000600000000000000000000000000000000000000000000000000000000000000120000000000000000000000000fe7c30860d01e28371d40434806f4a8fcdd3a0980000000000000000000000000000000000000000000000000000000000000099010000000000000001000076a200000000000000000000000064445f0aecc51e94ad52d8ac56b7190e764e561a0000762f000000000000000000000000d86fbbd0c8715d2c1f40e451e5c3514e65e7576afc4c1db36ebf51950311f1410a75534f5527b157cddd71c9f8a7ba4b6687ff3c000000000000000000000000b0e1650a9760e0f383174af042091fc544b8356f000000000000006400000000000000000000000000000000000000000000000000000000000000000000000000001600030100110100000000000000000000000000030d4000000000000000000000",
          "blockHash": "0x6c45cd518b371a49e9084e03b1a218c03748fdcbe9b6232218e309ddc4eae298",
          "blockNumber": "0xddd3ea",
          "transactionHash": "0x14e7126a478fd6b0ae816896b9691912826412eeb04173ed3d41746e717c2087",
          "transactionIndex": "0x1",
          "logIndex": "0x3",
          "removed": false
        },
        {
          "address": "0x64445f0aecc51e94ad52d8ac56b7190e764e561a",
          "topics": [
            "0x85496b760a4b7f8d66384b9df21b381f5d1b1e79f229a47aaf4c232edc2fe59a",
            "0xfc4c1db36ebf51950311f1410a75534f5527b157cddd71c9f8a7ba4b6687ff3c",
            "0x000000000000000000000000b0e1650a9760e0f383174af042091fc544b8356f"
          ],
          "data": "0x000000000000000000000000000000000000000000000000000000000000762f00000000000000000000000000000000000000000000000000005af3107a400000000000000000000000000000000000000000000000000000005af3107a4000",
          "blockHash": "0x6c45cd518b371a49e9084e03b1a218c03748fdcbe9b6232218e309ddc4eae298",
          "blockNumber": "0xddd3ea",
          "transactionHash": "0x14e7126a478fd6b0ae816896b9691912826412eeb04173ed3d41746e717c2087",
          "transactionIndex": "0x1",
          "logIndex": "0x4",
          "removed": false
        }
      ],
      "logsBloom": "0x00000000000000000000000000000000000000000000000000000010000000000000000000020000000002000000000000000000000000040000000000000400002002800000000000000008000000000000000000000000000000000000000000000000020000008000000000000800000000010100080000000010000000000000000000000000000000080000000000000000000000000000000000000000000000008000000000100008000000000000000000400000000440000000000000000042000000000000000080000000000000000000000000001000000020000000040080000000000000000000002000000008008000000000000000000000",
      "type": "0x2",
      "transactionHash": "0x14e7126a478fd6b0ae816896b9691912826412eeb04173ed3d41746e717c2087",
      "transactionIndex": "0x1",
      "blockHash": "0x6c45cd518b371a49e9084e03b1a218c03748fdcbe9b6232218e309ddc4eae298",
      "blockNumber": "0xddd3ea",
      "gasUsed": "0x52048",
      "effectiveGasPrice": "0xe8d4a51000",
      "from": "0xb0e1650a9760e0f383174af042091fc544b8356f",
      "to": "0x64445f0aecc51e94ad52d8ac56b7190e764e561a",
      "contractAddress": null,
      "gasUsedForL1": "0x0",
      "l1BlockNumber": "0x15ed4fd"
    },
    {
      "status": "0x1",
      "cumulativeGasUsed": "0x5f300",
      "logs": [
        {
          "address": "0x5bff88ca1442c2496f7e475e9e7786383bc070c0",
          "topics": [
            "0x8c5be1e5ebec7d5bd14f71427d1e84f3dd0314c0f7b2291e5b200ac8c7c3b925",
            "0x000000000000000000000000b0e1650a9760e0f383174af042091fc544b8356f",
            "0x0000000000000000000000005bff88ca1442c2496f7e475e9e7786383bc070c0"
          ],
          "data": "0xffffffffffffffffffffffffffffffffffffffffffffffffffffffffffffffff",
          "blockHash": "0x6c45cd518b371a49e9084e03b1a218c03748fdcbe9b6232218e309ddc4eae298",
          "blockNumber": "0xddd3ea",
          "transactionHash": "0xc4467162cdcba8a30b066de11278980c4037852c4bf0b6aa2a04d8383f32504e",
          "transactionIndex": "0x2",
          "logIndex": "0x5",
          "removed": false
        }
      ],
      "logsBloom": "0x00000000000000000000000000000000000000000000000000000000000000000001000000000000000000000000000000000000000000000000000000200000000000000000000000000000000000000000000000000000000000000000000000000000000000000000000000000000000000000100080000000000000000000000001000000000000000000000000000000000000000000000000000000000020000000000000000000000000000000000000000000000000000000010000000000000000000000000000000000000000000800000000000000000000000000010000080000000000000040000000000000000000000000000000000000800",
      "type": "0x2",
      "transactionHash": "0xc4467162cdcba8a30b066de11278980c4037852c4bf0b6aa2a04d8383f32504e",
      "transactionIndex": "0x2",
      "blockHash": "0x6c45cd518b371a49e9084e03b1a218c03748fdcbe9b6232218e309ddc4eae298",
      "blockNumber": "0xddd3ea",
      "gasUsed": "0xd2b8",
      "effectiveGasPrice": "0xe8d4a51000",
      "from": "0xb0e1650a9760e0f383174af042091fc544b8356f",
      "to": "0x5bff88ca1442c2496f7e475e9e7786383bc070c0",
      "contractAddress": null,
      "gasUsedForL1": "0x0",
      "l1BlockNumber": "0x15ed4fd"
    },
    {
      "status": "0x1",
      "cumulativeGasUsed": "0xcb456",
      "logs": [
        {
          "address": "0x5bff88ca1442c2496f7e475e9e7786383bc070c0",
          "topics": [
            "0xddf252ad1be2c89b69c2b068fc378daa952ba7f163c4a11628f55a4df523b3ef",
            "0x000000000000000000000000b0e1650a9760e0f383174af042091fc544b8356f",
            "0x0000000000000000000000000000000000000000000000000000000000000000"
          ],
          "data": "0x00000000000000000000000000000000000000000000000000005af3107a4000",
          "blockHash": "0x6c45cd518b371a49e9084e03b1a218c03748fdcbe9b6232218e309ddc4eae298",
          "blockNumber": "0xddd3ea",
          "transactionHash": "0xb17f8c00638b9aa16ee8631a4b92191572f99d4d1cd6995a2e48d8f9eef4dc85",
          "transactionIndex": "0x6",
          "logIndex": "0x9",
          "removed": false
        },
        {
          "address": "0xfe7c30860d01e28371d40434806f4a8fcdd3a098",
          "topics": [
            "0x61ed099e74a97a1d7f8bb0952a88ca8b7b8ebd00c126ea04671f92a81213318a"
          ],
          "data": "0x00000000000000000000000041bdb4aa4a63a5b2efc531858d3118392b1a1c3d000000000000000000000000000000000000000000000000031444efb472f54e",
          "blockHash": "0x6c45cd518b371a49e9084e03b1a218c03748fdcbe9b6232218e309ddc4eae298",
          "blockNumber": "0xddd3ea",
          "transactionHash": "0xb17f8c00638b9aa16ee8631a4b92191572f99d4d1cd6995a2e48d8f9eef4dc85",
          "transactionIndex": "0x6",
          "logIndex": "0xa",
          "removed": false
        },
        {
          "address": "0xfe7c30860d01e28371d40434806f4a8fcdd3a098",
          "topics": [
            "0x07ea52d82345d6e838192107d8fd7123d9c2ec8e916cd0aad13fd2b60db24644"
          ],
          "data": "0x000000000000000000000000000000000000000000000000000000000000006000000000000000000000000000000000000000000000000000000000000000e0000000000000000000000000000000000000000000000000000000000000010000000000000000000000000000000000000000000000000000000000000000030000000000000000000000001e4ce74ccf5498b19900649d9196e64bab5924510000000000000000000000004208d6e27538189bb48e603d6123a94b8abe0a0b0000000000000000000000005e0744f8fbf26446c683bcf4cd405ad56ba76f8a00000000000000000000000000000000000000000000000000000000000000000000000000000000000000000000000000000000000000000000000000000003000000000000000000000000000000000000000000000000021b5503d453dd07000000000000000000000000000000000000000000000000021b5503d453dd07000000000000000000000000000000000000000000000000021b5503d453dd07",
          "blockHash": "0x6c45cd518b371a49e9084e03b1a218c03748fdcbe9b6232218e309ddc4eae298",
          "blockNumber": "0xddd3ea",
          "transactionHash": "0xb17f8c00638b9aa16ee8631a4b92191572f99d4d1cd6995a2e48d8f9eef4dc85",
          "transactionIndex": "0x6",
          "logIndex": "0xb",
          "removed": false
        },
        {
          "address": "0xc1b15d3b262beec0e3565c11c9e0f6134bdacb36",
          "topics": [
            "0x1ab700d4ced0c005b164c0f789fd09fcbb0156d4c2041b8a3bfbcd961cd1567f"
          ],
          "data": "0x00000000000000000000000000000000000000000000000000000000000000600000000000000000000000000000000000000000000000000000000000000120000000000000000000000000fe7c30860d01e28371d40434806f4a8fcdd3a0980000000000000000000000000000000000000000000000000000000000000099010000000000000001000076a20000000000000000000000005bff88ca1442c2496f7e475e9e7786383bc070c00000762f00000000000000000000000088aa7854d3b2daa5e37e7ce73a1f39669623a361ca47baaf559706ea9ec760aadf2a93c2f4ae5f21980789e2fdfc77d1c896356c000000000000000000000000b0e1650a9760e0f383174af042091fc544b8356f000000000000006400000000000000000000000000000000000000000000000000000000000000000000000000001600030100110100000000000000000000000000030d4000000000000000000000",
          "blockHash": "0x6c45cd518b371a49e9084e03b1a218c03748fdcbe9b6232218e309ddc4eae298",
          "blockNumber": "0xddd3ea",
          "transactionHash": "0xb17f8c00638b9aa16ee8631a4b92191572f99d4d1cd6995a2e48d8f9eef4dc85",
          "transactionIndex": "0x6",
          "logIndex": "0xc",
          "removed": false
        },
        {
          "address": "0x5bff88ca1442c2496f7e475e9e7786383bc070c0",
          "topics": [
            "0x85496b760a4b7f8d66384b9df21b381f5d1b1e79f229a47aaf4c232edc2fe59a",
            "0xca47baaf559706ea9ec760aadf2a93c2f4ae5f21980789e2fdfc77d1c896356c",
            "0x000000000000000000000000b0e1650a9760e0f383174af042091fc544b8356f"
          ],
          "data": "0x000000000000000000000000000000000000000000000000000000000000762f00000000000000000000000000000000000000000000000000005af3107a400000000000000000000000000000000000000000000000000000005af3107a4000",
          "blockHash": "0x6c45cd518b371a49e9084e03b1a218c03748fdcbe9b6232218e309ddc4eae298",
          "blockNumber": "0xddd3ea",
          "transactionHash": "0xb17f8c00638b9aa16ee8631a4b92191572f99d4d1cd6995a2e48d8f9eef4dc85",
          "transactionIndex": "0x6",
          "logIndex": "0xd",
          "removed": false
        }
      ],
      "logsBloom": "0x00000000000000000000000000000000000000000000000000000200000000000000000000020000000002000000000000000000000020040000000000000000000002800000000000000008000000000000000000000000000000000000000000000000020000008000000000000800000000010100080000000010000000000000000000000000000000080000000000000000000000000000000000000000000000008000000000100000000000000000000000400000000440000010000000000042000000000000000080000000000000800000000000000000000020000000040080000000000000000000002100000000008000000000000000000800",
      "type": "0x2",
      "transactionHash": "0xb17f8c00638b9aa16ee8631a4b92191572f99d4d1cd6995a2e48d8f9eef4dc85",
      "transactionIndex": "0x6",
      "blockHash": "0x6c45cd518b371a49e9084e03b1a218c03748fdcbe9b6232218e309ddc4eae298",
      "blockNumber": "0xddd3ea",
      "gasUsed": "0x52048",
      "effectiveGasPrice": "0xe8d4a51000",
      "from": "0xb0e1650a9760e0f383174af042091fc544b8356f",
      "to": "0x5bff88ca1442c2496f7e475e9e7786383bc070c0",
      "contractAddress": null,
      "gasUsedForL1": "0x0",
      "l1BlockNumber": "0x15ed4fd"
    },
    {
      "status": "0x1",
      "cumulativeGasUsed": "0xd870e",
      "logs": [
        {
          "address": "0x3ec3849c33291a9ef4c5db86de593eb4a37fde45",
          "topics": [
            "0x8c5be1e5ebec7d5bd14f71427d1e84f3dd0314c0f7b2291e5b200ac8c7c3b925",
            "0x000000000000000000000000b0e1650a9760e0f383174af042091fc544b8356f",
            "0x0000000000000000000000003ec3849c33291a9ef4c5db86de593eb4a37fde45"
          ],
          "data": "0xffffffffffffffffffffffffffffffffffffffffffffffffffffffffffffffff",
          "blockHash": "0x6c45cd518b371a49e9084e03b1a218c03748fdcbe9b6232218e309ddc4eae298",
          "blockNumber": "0xddd3ea",
          "transactionHash": "0x515ef772307ba77e28293f139af13cba7a08e39dbb68681f1def18ec3233f83d",
          "transactionIndex": "0x7",
          "logIndex": "0xe",
          "removed": false
        }
      ],
      "logsBloom": "0x00000000000000000000000000002000000000000000000000000000000000000000000000000000000000000000000000000000000000000000000000200020000000000000000000000000000000000000000000000000000000000000000000000000000000000000000000000000000000000100080000000000000000000000000000000000000000000000000000000000000020000040004000000000020000000000000000000000400000000000000000000000000000000000000000000000000000000000000000000000000000000000000000000000000000000010000080000000000000000000000000000000000000000000000000000000",
      "type": "0x2",
      "transactionHash": "0x515ef772307ba77e28293f139af13cba7a08e39dbb68681f1def18ec3233f83d",
      "transactionIndex": "0x7",
      "blockHash": "0x6c45cd518b371a49e9084e03b1a218c03748fdcbe9b6232218e309ddc4eae298",
      "blockNumber": "0xddd3ea",
      "gasUsed": "0xd2b8",
      "effectiveGasPrice": "0xe8d4a51000",
      "from": "0xb0e1650a9760e0f383174af042091fc544b8356f",
      "to": "0x3ec3849c33291a9ef4c5db86de593eb4a37fde45",
      "contractAddress": null,
      "gasUsedForL1": "0x0",
      "l1BlockNumber": "0x15ed4fd"
    },
    {
      "status": "0x1",
      "cumulativeGasUsed": "0x9a164",
      "logs": [
        {
          "address": "0x3ec3849c33291a9ef4c5db86de593eb4a37fde45",
          "topics": [
            "0xddf252ad1be2c89b69c2b068fc378daa952ba7f163c4a11628f55a4df523b3ef",
            "0x000000000000000000000000b0e1650a9760e0f383174af042091fc544b8356f",
            "0x0000000000000000000000000000000000000000000000000000000000000000"
          ],
          "data": "0x00000000000000000000000000000000000000000000000000005af3107a4000",
          "blockHash": "0x1470eb6170a68a14696d9a2707607a3651a67646093e64f3aa6ee9e1ccf91f36",
          "blockNumber": "0xddd3eb",
          "transactionHash": "0x52b13eedf16bc152e37086cdea7ee4a7566c49c6274b88effd935f3e3b781817",
          "transactionIndex": "0x3",
          "logIndex": "0xd",
          "removed": false
        },
        {
          "address": "0xfe7c30860d01e28371d40434806f4a8fcdd3a098",
          "topics": [
            "0x61ed099e74a97a1d7f8bb0952a88ca8b7b8ebd00c126ea04671f92a81213318a"
          ],
          "data": "0x00000000000000000000000041bdb4aa4a63a5b2efc531858d3118392b1a1c3d000000000000000000000000000000000000000000000000031444efb472f54e",
          "blockHash": "0x1470eb6170a68a14696d9a2707607a3651a67646093e64f3aa6ee9e1ccf91f36",
          "blockNumber": "0xddd3eb",
          "transactionHash": "0x52b13eedf16bc152e37086cdea7ee4a7566c49c6274b88effd935f3e3b781817",
          "transactionIndex": "0x3",
          "logIndex": "0xe",
          "removed": false
        },
        {
          "address": "0xfe7c30860d01e28371d40434806f4a8fcdd3a098",
          "topics": [
            "0x07ea52d82345d6e838192107d8fd7123d9c2ec8e916cd0aad13fd2b60db24644"
          ],
          "data": "0x000000000000000000000000000000000000000000000000000000000000006000000000000000000000000000000000000000000000000000000000000000e0000000000000000000000000000000000000000000000000000000000000010000000000000000000000000000000000000000000000000000000000000000030000000000000000000000001e4ce74ccf5498b19900649d9196e64bab5924510000000000000000000000004208d6e27538189bb48e603d6123a94b8abe0a0b0000000000000000000000005e0744f8fbf26446c683bcf4cd405ad56ba76f8a00000000000000000000000000000000000000000000000000000000000000000000000000000000000000000000000000000000000000000000000000000003000000000000000000000000000000000000000000000000021b5503d453dd07000000000000000000000000000000000000000000000000021b5503d453dd07000000000000000000000000000000000000000000000000021b5503d453dd07",
          "blockHash": "0x1470eb6170a68a14696d9a2707607a3651a67646093e64f3aa6ee9e1ccf91f36",
          "blockNumber": "0xddd3eb",
          "transactionHash": "0x52b13eedf16bc152e37086cdea7ee4a7566c49c6274b88effd935f3e3b781817",
          "transactionIndex": "0x3",
          "logIndex": "0xf",
          "removed": false
        },
        {
          "address": "0xc1b15d3b262beec0e3565c11c9e0f6134bdacb36",
          "topics": [
            "0x1ab700d4ced0c005b164c0f789fd09fcbb0156d4c2041b8a3bfbcd961cd1567f"
          ],
          "data": "0x00000000000000000000000000000000000000000000000000000000000000600000000000000000000000000000000000000000000000000000000000000120000000000000000000000000fe7c30860d01e28371d40434806f4a8fcdd3a0980000000000000000000000000000000000000000000000000000000000000099010000000000000001000076a20000000000000000000000003ec3849c33291a9ef4c5db86de593eb4a37fde450000762f000000000000000000000000999dfabe3b1cc2ef66eb032eea42fea329bba168cf601bae24ce4f26439106aaf8d210d00d7f58b52d19e9b6a5af97ffaf130de5000000000000000000000000b0e1650a9760e0f383174af042091fc544b8356f000000000000006400000000000000000000000000000000000000000000000000000000000000000000000000001600030100110100000000000000000000000000030d4000000000000000000000",
          "blockHash": "0x1470eb6170a68a14696d9a2707607a3651a67646093e64f3aa6ee9e1ccf91f36",
          "blockNumber": "0xddd3eb",
          "transactionHash": "0x52b13eedf16bc152e37086cdea7ee4a7566c49c6274b88effd935f3e3b781817",
          "transactionIndex": "0x3",
          "logIndex": "0x10",
          "removed": false
        },
        {
          "address": "0x3ec3849c33291a9ef4c5db86de593eb4a37fde45",
          "topics": [
            "0x85496b760a4b7f8d66384b9df21b381f5d1b1e79f229a47aaf4c232edc2fe59a",
            "0xcf601bae24ce4f26439106aaf8d210d00d7f58b52d19e9b6a5af97ffaf130de5",
            "0x000000000000000000000000b0e1650a9760e0f383174af042091fc544b8356f"
          ],
          "data": "0x000000000000000000000000000000000000000000000000000000000000762f00000000000000000000000000000000000000000000000000005af3107a400000000000000000000000000000000000000000000000000000005af3107a4000",
          "blockHash": "0x1470eb6170a68a14696d9a2707607a3651a67646093e64f3aa6ee9e1ccf91f36",
          "blockNumber": "0xddd3eb",
          "transactionHash": "0x52b13eedf16bc152e37086cdea7ee4a7566c49c6274b88effd935f3e3b781817",
          "transactionIndex": "0x3",
          "logIndex": "0x11",
          "removed": false
        }
      ],
      "logsBloom": "0x00000000000000000000000000002000000000000000000000000000000000000000000000020000000002000000000000000000000000040000000000000000000002800000000000000008000000000000000000000000000000000000000000000000020000008000000000000800080000010100080000000010000000000000000000000000000000080000000000000000000020001040000000000000000000008000000000100000000000000000000000400000000440000000000000000042000000000000000080000000000000000000000000000000000020000000040080000000000000000000002000000000008002000000000000000000",
      "type": "0x2",
      "transactionHash": "0x52b13eedf16bc152e37086cdea7ee4a7566c49c6274b88effd935f3e3b781817",
      "transactionIndex": "0x3",
      "blockHash": "0x1470eb6170a68a14696d9a2707607a3651a67646093e64f3aa6ee9e1ccf91f36",
      "blockNumber": "0xddd3eb",
      "gasUsed": "0x52048",
      "effectiveGasPrice": "0xe8d4a51000",
      "from": "0xb0e1650a9760e0f383174af042091fc544b8356f",
      "to": "0x3ec3849c33291a9ef4c5db86de593eb4a37fde45",
      "contractAddress": null,
      "gasUsedForL1": "0x0",
      "l1BlockNumber": "0x15ed4fd"
    },
    {
      "status": "0x1",
      "cumulativeGasUsed": "0xa7410",
      "logs": [
        {
          "address": "0x80eede496655fb9047dd39d9f418d5483ed600df",
          "topics": [
            "0x8c5be1e5ebec7d5bd14f71427d1e84f3dd0314c0f7b2291e5b200ac8c7c3b925",
            "0x000000000000000000000000b0e1650a9760e0f383174af042091fc544b8356f",
            "0x00000000000000000000000080eede496655fb9047dd39d9f418d5483ed600df"
          ],
          "data": "0xffffffffffffffffffffffffffffffffffffffffffffffffffffffffffffffff",
          "blockHash": "0x1470eb6170a68a14696d9a2707607a3651a67646093e64f3aa6ee9e1ccf91f36",
          "blockNumber": "0xddd3eb",
          "transactionHash": "0x39177421dfd6ddf95483f1f827becb26eea86e3053cb38138c09e6634bb31f15",
          "transactionIndex": "0x4",
          "logIndex": "0x12",
          "removed": false
        }
      ],
      "logsBloom": "0x000000000000000000000000000000000000000000000000000000000000000000000800000004000000000008000000000000000000000000000002002000000000000000000000000000000000000000000000000000000000000000000000000000000000000000000000000000000000000001000800000000000100000000000000000000000000000000000000000000000000000000000000000000000200000000000000000000000000000000000000000000000000000000000000000000000000000000000000000000000000000000000000000000000000000000100000a0000000000000000000000000000000000000000000000000000000",
      "type": "0x2",
      "transactionHash": "0x39177421dfd6ddf95483f1f827becb26eea86e3053cb38138c09e6634bb31f15",
      "transactionIndex": "0x4",
      "blockHash": "0x1470eb6170a68a14696d9a2707607a3651a67646093e64f3aa6ee9e1ccf91f36",
      "blockNumber": "0xddd3eb",
      "gasUsed": "0xd2ac",
      "effectiveGasPrice": "0xe8d4a51000",
      "from": "0xb0e1650a9760e0f383174af042091fc544b8356f",
      "to": "0x80eede496655fb9047dd39d9f418d5483ed600df",
      "contractAddress": null,
      "gasUsedForL1": "0x0",
      "l1BlockNumber": "0x15ed4fd"
    },
    {
      "status": "0x1",
      "cumulativeGasUsed": "0xf9458",
      "logs": [
        {
          "address": "0x80eede496655fb9047dd39d9f418d5483ed600df",
          "topics": [
            "0xddf252ad1be2c89b69c2b068fc378daa952ba7f163c4a11628f55a4df523b3ef",
            "0x000000000000000000000000b0e1650a9760e0f383174af042091fc544b8356f",
            "0x0000000000000000000000000000000000000000000000000000000000000000"
          ],
          "data": "0x00000000000000000000000000000000000000000000000000005af3107a4000",
          "blockHash": "0x1470eb6170a68a14696d9a2707607a3651a67646093e64f3aa6ee9e1ccf91f36",
          "blockNumber": "0xddd3eb",
          "transactionHash": "0xba753e34018fe8f7e1dccb7c3d17d9dde4f48f6565f9f7313638d394b5989628",
          "transactionIndex": "0x5",
          "logIndex": "0x13",
          "removed": false
        },
        {
          "address": "0xfe7c30860d01e28371d40434806f4a8fcdd3a098",
          "topics": [
            "0x61ed099e74a97a1d7f8bb0952a88ca8b7b8ebd00c126ea04671f92a81213318a"
          ],
          "data": "0x00000000000000000000000041bdb4aa4a63a5b2efc531858d3118392b1a1c3d000000000000000000000000000000000000000000000000031444efb472f54e",
          "blockHash": "0x1470eb6170a68a14696d9a2707607a3651a67646093e64f3aa6ee9e1ccf91f36",
          "blockNumber": "0xddd3eb",
          "transactionHash": "0xba753e34018fe8f7e1dccb7c3d17d9dde4f48f6565f9f7313638d394b5989628",
          "transactionIndex": "0x5",
          "logIndex": "0x14",
          "removed": false
        },
        {
          "address": "0xfe7c30860d01e28371d40434806f4a8fcdd3a098",
          "topics": [
            "0x07ea52d82345d6e838192107d8fd7123d9c2ec8e916cd0aad13fd2b60db24644"
          ],
          "data": "0x000000000000000000000000000000000000000000000000000000000000006000000000000000000000000000000000000000000000000000000000000000e0000000000000000000000000000000000000000000000000000000000000010000000000000000000000000000000000000000000000000000000000000000030000000000000000000000001e4ce74ccf5498b19900649d9196e64bab5924510000000000000000000000004208d6e27538189bb48e603d6123a94b8abe0a0b0000000000000000000000005e0744f8fbf26446c683bcf4cd405ad56ba76f8a00000000000000000000000000000000000000000000000000000000000000000000000000000000000000000000000000000000000000000000000000000003000000000000000000000000000000000000000000000000021b5503d453dd07000000000000000000000000000000000000000000000000021b5503d453dd07000000000000000000000000000000000000000000000000021b5503d453dd07",
          "blockHash": "0x1470eb6170a68a14696d9a2707607a3651a67646093e64f3aa6ee9e1ccf91f36",
          "blockNumber": "0xddd3eb",
          "transactionHash": "0xba753e34018fe8f7e1dccb7c3d17d9dde4f48f6565f9f7313638d394b5989628",
          "transactionIndex": "0x5",
          "logIndex": "0x15",
          "removed": false
        },
        {
          "address": "0xc1b15d3b262beec0e3565c11c9e0f6134bdacb36",
          "topics": [
            "0x1ab700d4ced0c005b164c0f789fd09fcbb0156d4c2041b8a3bfbcd961cd1567f"
          ],
          "data": "0x00000000000000000000000000000000000000000000000000000000000000600000000000000000000000000000000000000000000000000000000000000120000000000000000000000000fe7c30860d01e28371d40434806f4a8fcdd3a0980000000000000000000000000000000000000000000000000000000000000099010000000000000001000076a200000000000000000000000080eede496655fb9047dd39d9f418d5483ed600df0000762f00000000000000000000000096a394058e2b84a89bac9667b19661ed003cf5d479a3ffbf8eb6142ed9a31fd9ca12aeef5c0d1f02e559701f80c36236f9cd8596000000000000000000000000b0e1650a9760e0f383174af042091fc544b8356f000000000000006400000000000000000000000000000000000000000000000000000000000000000000000000001600030100110100000000000000000000000000030d4000000000000000000000",
          "blockHash": "0x1470eb6170a68a14696d9a2707607a3651a67646093e64f3aa6ee9e1ccf91f36",
          "blockNumber": "0xddd3eb",
          "transactionHash": "0xba753e34018fe8f7e1dccb7c3d17d9dde4f48f6565f9f7313638d394b5989628",
          "transactionIndex": "0x5",
          "logIndex": "0x16",
          "removed": false
        },
        {
          "address": "0x80eede496655fb9047dd39d9f418d5483ed600df",
          "topics": [
            "0x85496b760a4b7f8d66384b9df21b381f5d1b1e79f229a47aaf4c232edc2fe59a",
            "0x79a3ffbf8eb6142ed9a31fd9ca12aeef5c0d1f02e559701f80c36236f9cd8596",
            "0x000000000000000000000000b0e1650a9760e0f383174af042091fc544b8356f"
          ],
          "data": "0x000000000000000000000000000000000000000000000000000000000000762f00000000000000000000000000000000000000000000000000005af3107a400000000000000000000000000000000000000000000000000000005af3107a4000",
          "blockHash": "0x1470eb6170a68a14696d9a2707607a3651a67646093e64f3aa6ee9e1ccf91f36",
          "blockNumber": "0xddd3eb",
          "transactionHash": "0xba753e34018fe8f7e1dccb7c3d17d9dde4f48f6565f9f7313638d394b5989628",
          "transactionIndex": "0x5",
          "logIndex": "0x17",
          "removed": false
        }
      ],
      "logsBloom": "0x00000000000000000000000000000000000000000001000000000000000000000000000000020000000002000800000000000000000000040000000200000000000002800000000000000008000000000000000000080000000000000000000000000000020000008000000000000800000000010100080000000010010000000000000000000000000000080000000000000000000000000000000000000000000000008000000000100000000000000000000000400000000440000000000000000042000000000000000080000000000000000000000000000000000020100000040080000000000000000000002000000000008000000000000000000000",
      "type": "0x2",
      "transactionHash": "0xba753e34018fe8f7e1dccb7c3d17d9dde4f48f6565f9f7313638d394b5989628",
      "transactionIndex": "0x5",
      "blockHash": "0x1470eb6170a68a14696d9a2707607a3651a67646093e64f3aa6ee9e1ccf91f36",
      "blockNumber": "0xddd3eb",
      "gasUsed": "0x52048",
      "effectiveGasPrice": "0xe8d4a51000",
      "from": "0xb0e1650a9760e0f383174af042091fc544b8356f",
      "to": "0x80eede496655fb9047dd39d9f418d5483ed600df",
      "contractAddress": null,
      "gasUsedForL1": "0x0",
      "l1BlockNumber": "0x15ed4fd"
    },
    {
      "status": "0x1",
      "cumulativeGasUsed": "0x110b20",
      "logs": [
        {
          "address": "0x43edd7f3831b08fe70b7555ddd373c8bf65a9050",
          "topics": [
            "0x8c5be1e5ebec7d5bd14f71427d1e84f3dd0314c0f7b2291e5b200ac8c7c3b925",
            "0x000000000000000000000000b0e1650a9760e0f383174af042091fc544b8356f",
            "0x00000000000000000000000043edd7f3831b08fe70b7555ddd373c8bf65a9050"
          ],
          "data": "0xffffffffffffffffffffffffffffffffffffffffffffffffffffffffffffffff",
          "blockHash": "0x1470eb6170a68a14696d9a2707607a3651a67646093e64f3aa6ee9e1ccf91f36",
          "blockNumber": "0xddd3eb",
          "transactionHash": "0x580b6c9847691a40d07e6a391c248a38e6a2d128977e5bb4d0d304fa4a3376c3",
          "transactionIndex": "0x8",
          "logIndex": "0x18",
          "removed": false
        }
      ],
      "logsBloom": "0x00000000000000000000000000000000000000000000000000000000000000010000000000000000000000000000000000000000000000000000000000200000000000000000000000000000000000000000000000000000000000000000000000000000000000000000000000000000000000000100080000000000000000000000000000000000000000000000000000000000000000000000000100000000020000000000000002000000000000000000000000000000000000000000020000000000000000000000000000000000000000000000000000000000000000000010000080000000000000040000000000000000000000000000000000080000",
      "type": "0x2",
      "transactionHash": "0x580b6c9847691a40d07e6a391c248a38e6a2d128977e5bb4d0d304fa4a3376c3",
      "transactionIndex": "0x8",
      "blockHash": "0x1470eb6170a68a14696d9a2707607a3651a67646093e64f3aa6ee9e1ccf91f36",
      "blockNumber": "0xddd3eb",
      "gasUsed": "0xd2b8",
      "effectiveGasPrice": "0xe8d4a51000",
      "from": "0xb0e1650a9760e0f383174af042091fc544b8356f",
      "to": "0x43edd7f3831b08fe70b7555ddd373c8bf65a9050",
      "contractAddress": null,
      "gasUsedForL1": "0x0",
      "l1BlockNumber": "0x15ed4fd"
    },
    {
      "status": "0x1",
      "cumulativeGasUsed": "0x5d0df",
      "logs": [
        {
          "address": "0x43edd7f3831b08fe70b7555ddd373c8bf65a9050",
          "topics": [
            "0xddf252ad1be2c89b69c2b068fc378daa952ba7f163c4a11628f55a4df523b3ef",
            "0x000000000000000000000000b0e1650a9760e0f383174af042091fc544b8356f",
            "0x0000000000000000000000000000000000000000000000000000000000000000"
          ],
          "data": "0x00000000000000000000000000000000000000000000000000005af3107a4000",
          "blockHash": "0xa34bfc1456062a9515ff9f86b822508319b0f5ab6c9517482564589c61214a51",
          "blockNumber": "0xddd3ec",
          "transactionHash": "0x460da015633f04f5ea6173c6f698e0344a721b4111bb9f2aad5226a9c6125dfe",
          "transactionIndex": "0x3",
          "logIndex": "0x1",
          "removed": false
        },
        {
          "address": "0xfe7c30860d01e28371d40434806f4a8fcdd3a098",
          "topics": [
            "0x61ed099e74a97a1d7f8bb0952a88ca8b7b8ebd00c126ea04671f92a81213318a"
          ],
          "data": "0x00000000000000000000000041bdb4aa4a63a5b2efc531858d3118392b1a1c3d000000000000000000000000000000000000000000000000031444efb472f54e",
          "blockHash": "0xa34bfc1456062a9515ff9f86b822508319b0f5ab6c9517482564589c61214a51",
          "blockNumber": "0xddd3ec",
          "transactionHash": "0x460da015633f04f5ea6173c6f698e0344a721b4111bb9f2aad5226a9c6125dfe",
          "transactionIndex": "0x3",
          "logIndex": "0x2",
          "removed": false
        },
        {
          "address": "0xfe7c30860d01e28371d40434806f4a8fcdd3a098",
          "topics": [
            "0x07ea52d82345d6e838192107d8fd7123d9c2ec8e916cd0aad13fd2b60db24644"
          ],
          "data": "0x000000000000000000000000000000000000000000000000000000000000006000000000000000000000000000000000000000000000000000000000000000e0000000000000000000000000000000000000000000000000000000000000010000000000000000000000000000000000000000000000000000000000000000030000000000000000000000001e4ce74ccf5498b19900649d9196e64bab5924510000000000000000000000004208d6e27538189bb48e603d6123a94b8abe0a0b0000000000000000000000005e0744f8fbf26446c683bcf4cd405ad56ba76f8a00000000000000000000000000000000000000000000000000000000000000000000000000000000000000000000000000000000000000000000000000000003000000000000000000000000000000000000000000000000021b5503d453dd07000000000000000000000000000000000000000000000000021b5503d453dd07000000000000000000000000000000000000000000000000021b5503d453dd07",
          "blockHash": "0xa34bfc1456062a9515ff9f86b822508319b0f5ab6c9517482564589c61214a51",
          "blockNumber": "0xddd3ec",
          "transactionHash": "0x460da015633f04f5ea6173c6f698e0344a721b4111bb9f2aad5226a9c6125dfe",
          "transactionIndex": "0x3",
          "logIndex": "0x3",
          "removed": false
        },
        {
          "address": "0xc1b15d3b262beec0e3565c11c9e0f6134bdacb36",
          "topics": [
            "0x1ab700d4ced0c005b164c0f789fd09fcbb0156d4c2041b8a3bfbcd961cd1567f"
          ],
          "data": "0x00000000000000000000000000000000000000000000000000000000000000600000000000000000000000000000000000000000000000000000000000000120000000000000000000000000fe7c30860d01e28371d40434806f4a8fcdd3a0980000000000000000000000000000000000000000000000000000000000000099010000000000000001000076a200000000000000000000000043edd7f3831b08fe70b7555ddd373c8bf65a90500000762f0000000000000000000000009abfe1f8a999b0011ecd6116649aee8d575f5604f6279ca7362dea3a53baef0fce8f0e2f0b5ac262ffef9a4dd37c766f42d6b35d000000000000000000000000b0e1650a9760e0f383174af042091fc544b8356f000000000000006400000000000000000000000000000000000000000000000000000000000000000000000000001600030100110100000000000000000000000000030d4000000000000000000000",
          "blockHash": "0xa34bfc1456062a9515ff9f86b822508319b0f5ab6c9517482564589c61214a51",
          "blockNumber": "0xddd3ec",
          "transactionHash": "0x460da015633f04f5ea6173c6f698e0344a721b4111bb9f2aad5226a9c6125dfe",
          "transactionIndex": "0x3",
          "logIndex": "0x4",
          "removed": false
        },
        {
          "address": "0x43edd7f3831b08fe70b7555ddd373c8bf65a9050",
          "topics": [
            "0x85496b760a4b7f8d66384b9df21b381f5d1b1e79f229a47aaf4c232edc2fe59a",
            "0xf6279ca7362dea3a53baef0fce8f0e2f0b5ac262ffef9a4dd37c766f42d6b35d",
            "0x000000000000000000000000b0e1650a9760e0f383174af042091fc544b8356f"
          ],
          "data": "0x000000000000000000000000000000000000000000000000000000000000762f00000000000000000000000000000000000000000000000000005af3107a400000000000000000000000000000000000000000000000000000005af3107a4000",
          "blockHash": "0xa34bfc1456062a9515ff9f86b822508319b0f5ab6c9517482564589c61214a51",
          "blockNumber": "0xddd3ec",
          "transactionHash": "0x460da015633f04f5ea6173c6f698e0344a721b4111bb9f2aad5226a9c6125dfe",
          "transactionIndex": "0x3",
          "logIndex": "0x5",
          "removed": false
        }
      ],
      "logsBloom": "0x00000000000000000000000000000000000000000000000000000000000000000000000000020000000002000000000000000000000000040000000000000000000002800000000200000008000000000000000000000000000000000000000000000000020000008000000000000800000000010100080000000010000000000000000000000000000000080000000000000400000000000000000000000000000000008000000002100000000000000000000000400000000440000000000000000042000000000000000080000000000000000000400000000000000020000000040080000000000000040000002000000000008000000000000000080000",
      "type": "0x2",
      "transactionHash": "0x460da015633f04f5ea6173c6f698e0344a721b4111bb9f2aad5226a9c6125dfe",
      "transactionIndex": "0x3",
      "blockHash": "0xa34bfc1456062a9515ff9f86b822508319b0f5ab6c9517482564589c61214a51",
      "blockNumber": "0xddd3ec",
      "gasUsed": "0x52048",
      "effectiveGasPrice": "0xe8d4a51000",
      "from": "0xb0e1650a9760e0f383174af042091fc544b8356f",
      "to": "0x43edd7f3831b08fe70b7555ddd373c8bf65a9050",
      "contractAddress": null,
      "gasUsedForL1": "0x0",
      "l1BlockNumber": "0x15ed4fd"
    },
    {
      "status": "0x1",
      "cumulativeGasUsed": "0x6a397",
      "logs": [
        {
          "address": "0x90581eca9469d8d7f5d3b60f4715027adfcf7927",
          "topics": [
            "0x8c5be1e5ebec7d5bd14f71427d1e84f3dd0314c0f7b2291e5b200ac8c7c3b925",
            "0x000000000000000000000000b0e1650a9760e0f383174af042091fc544b8356f",
            "0x00000000000000000000000090581eca9469d8d7f5d3b60f4715027adfcf7927"
          ],
          "data": "0xffffffffffffffffffffffffffffffffffffffffffffffffffffffffffffffff",
          "blockHash": "0xa34bfc1456062a9515ff9f86b822508319b0f5ab6c9517482564589c61214a51",
          "blockNumber": "0xddd3ec",
          "transactionHash": "0xd492ba469676771059f1794a9cecf0f137bff68339357c629df4924cdad76c9b",
          "transactionIndex": "0x4",
          "logIndex": "0x6",
          "removed": false
        }
      ],
      "logsBloom": "0x00000000000000000000000000000000000000000000000000000000000000000000000000000000000000000000000000000000000000000000000000200000000000000000000000000000000000000000000000000000000000000000000000000000000000000000000000000000000000010100080000000000000000000000000000000004000010000008000000000000000000000000000000000000020000000000000000000000000000000000000000000000000000000000000000000000000000000000000000000100000000000000000000000000000000000010000080000000000000000000000000400000000000000000000000000000",
      "type": "0x2",
      "transactionHash": "0xd492ba469676771059f1794a9cecf0f137bff68339357c629df4924cdad76c9b",
      "transactionIndex": "0x4",
      "blockHash": "0xa34bfc1456062a9515ff9f86b822508319b0f5ab6c9517482564589c61214a51",
      "blockNumber": "0xddd3ec",
      "gasUsed": "0xd2b8",
      "effectiveGasPrice": "0xe8d4a51000",
      "from": "0xb0e1650a9760e0f383174af042091fc544b8356f",
      "to": "0x90581eca9469d8d7f5d3b60f4715027adfcf7927",
      "contractAddress": null,
      "gasUsedForL1": "0x0",
      "l1BlockNumber": "0x15ed4fd"
    },
    {
      "status": "0x1",
      "cumulativeGasUsed": "0xbc3df",
      "logs": [
        {
          "address": "0x90581eca9469d8d7f5d3b60f4715027adfcf7927",
          "topics": [
            "0xddf252ad1be2c89b69c2b068fc378daa952ba7f163c4a11628f55a4df523b3ef",
            "0x000000000000000000000000b0e1650a9760e0f383174af042091fc544b8356f",
            "0x0000000000000000000000000000000000000000000000000000000000000000"
          ],
          "data": "0x00000000000000000000000000000000000000000000000000005af3107a4000",
          "blockHash": "0xa34bfc1456062a9515ff9f86b822508319b0f5ab6c9517482564589c61214a51",
          "blockNumber": "0xddd3ec",
          "transactionHash": "0x72640ecb99568d2e18885c06c017247cda185dbdf981ebd2d15ee28cdc8fdbc1",
          "transactionIndex": "0x5",
          "logIndex": "0x7",
          "removed": false
        },
        {
          "address": "0xfe7c30860d01e28371d40434806f4a8fcdd3a098",
          "topics": [
            "0x61ed099e74a97a1d7f8bb0952a88ca8b7b8ebd00c126ea04671f92a81213318a"
          ],
          "data": "0x00000000000000000000000041bdb4aa4a63a5b2efc531858d3118392b1a1c3d000000000000000000000000000000000000000000000000031444efb472f54e",
          "blockHash": "0xa34bfc1456062a9515ff9f86b822508319b0f5ab6c9517482564589c61214a51",
          "blockNumber": "0xddd3ec",
          "transactionHash": "0x72640ecb99568d2e18885c06c017247cda185dbdf981ebd2d15ee28cdc8fdbc1",
          "transactionIndex": "0x5",
          "logIndex": "0x8",
          "removed": false
        },
        {
          "address": "0xfe7c30860d01e28371d40434806f4a8fcdd3a098",
          "topics": [
            "0x07ea52d82345d6e838192107d8fd7123d9c2ec8e916cd0aad13fd2b60db24644"
          ],
          "data": "0x000000000000000000000000000000000000000000000000000000000000006000000000000000000000000000000000000000000000000000000000000000e0000000000000000000000000000000000000000000000000000000000000010000000000000000000000000000000000000000000000000000000000000000030000000000000000000000001e4ce74ccf5498b19900649d9196e64bab5924510000000000000000000000004208d6e27538189bb48e603d6123a94b8abe0a0b0000000000000000000000005e0744f8fbf26446c683bcf4cd405ad56ba76f8a00000000000000000000000000000000000000000000000000000000000000000000000000000000000000000000000000000000000000000000000000000003000000000000000000000000000000000000000000000000021b5503d453dd07000000000000000000000000000000000000000000000000021b5503d453dd07000000000000000000000000000000000000000000000000021b5503d453dd07",
          "blockHash": "0xa34bfc1456062a9515ff9f86b822508319b0f5ab6c9517482564589c61214a51",
          "blockNumber": "0xddd3ec",
          "transactionHash": "0x72640ecb99568d2e18885c06c017247cda185dbdf981ebd2d15ee28cdc8fdbc1",
          "transactionIndex": "0x5",
          "logIndex": "0x9",
          "removed": false
        },
        {
          "address": "0xc1b15d3b262beec0e3565c11c9e0f6134bdacb36",
          "topics": [
            "0x1ab700d4ced0c005b164c0f789fd09fcbb0156d4c2041b8a3bfbcd961cd1567f"
          ],
          "data": "0x00000000000000000000000000000000000000000000000000000000000000600000000000000000000000000000000000000000000000000000000000000120000000000000000000000000fe7c30860d01e28371d40434806f4a8fcdd3a0980000000000000000000000000000000000000000000000000000000000000099010000000000000001000076a200000000000000000000000090581eca9469d8d7f5d3b60f4715027adfcf79270000762f00000000000000000000000075c38d46001b0f8108c4136216bd2694982c20fccfe66c99651c536493bda79ef3fa4d7d087ad174fb84416f12a2e2d7f19a1a7f000000000000000000000000b0e1650a9760e0f383174af042091fc544b8356f000000000000006400000000000000000000000000000000000000000000000000000000000000000000000000001600030100110100000000000000000000000000030d4000000000000000000000",
          "blockHash": "0xa34bfc1456062a9515ff9f86b822508319b0f5ab6c9517482564589c61214a51",
          "blockNumber": "0xddd3ec",
          "transactionHash": "0x72640ecb99568d2e18885c06c017247cda185dbdf981ebd2d15ee28cdc8fdbc1",
          "transactionIndex": "0x5",
          "logIndex": "0xa",
          "removed": false
        },
        {
          "address": "0x90581eca9469d8d7f5d3b60f4715027adfcf7927",
          "topics": [
            "0x85496b760a4b7f8d66384b9df21b381f5d1b1e79f229a47aaf4c232edc2fe59a",
            "0xcfe66c99651c536493bda79ef3fa4d7d087ad174fb84416f12a2e2d7f19a1a7f",
            "0x000000000000000000000000b0e1650a9760e0f383174af042091fc544b8356f"
          ],
          "data": "0x000000000000000000000000000000000000000000000000000000000000762f00000000000000000000000000000000000000000000000000005af3107a400000000000000000000000000000000000000000000000000000005af3107a4000",
          "blockHash": "0xa34bfc1456062a9515ff9f86b822508319b0f5ab6c9517482564589c61214a51",
          "blockNumber": "0xddd3ec",
          "transactionHash": "0x72640ecb99568d2e18885c06c017247cda185dbdf981ebd2d15ee28cdc8fdbc1",
          "transactionIndex": "0x5",
          "logIndex": "0xb",
          "removed": false
        }
      ],
      "logsBloom": "0x00000000000000000000000000000000000000000000000000000000000000000000000000020000000002000000000000000000000000040000000000000000000002800000000000000008000000000000000000000000000000000000000000000000020000008000000000000800000000010100080000000010000000000000000000100004000010280000000400000000000000000000000000000000000000008000000000100000000000000000000000400000000440000000000000000042000000000000000080000000000000000000000000000000000020000000040080000000000000000000002000400000008000000000000000000000",
      "type": "0x2",
      "transactionHash": "0x72640ecb99568d2e18885c06c017247cda185dbdf981ebd2d15ee28cdc8fdbc1",
      "transactionIndex": "0x5",
      "blockHash": "0xa34bfc1456062a9515ff9f86b822508319b0f5ab6c9517482564589c61214a51",
      "blockNumber": "0xddd3ec",
      "gasUsed": "0x52048",
      "effectiveGasPrice": "0xe8d4a51000",
      "from": "0xb0e1650a9760e0f383174af042091fc544b8356f",
      "to": "0x90581eca9469d8d7f5d3b60f4715027adfcf7927",
      "contractAddress": null,
      "gasUsedForL1": "0x0",
      "l1BlockNumber": "0x15ed4fd"
    }
  ],
  "libraries": [],
  "pending": [],
  "returns": {},
  "timestamp": 1753397678494,
  "chain": 98866,
  "commit": "bea6f1e"
}