{
  "transactions": [
    {
      "hash": "0xff878cd0cf0a8f466eabafb99e22fbb0624e2902b17d830a2ccc10dbc4cca3e4",
      "transactionType": "CALL",
      "contractName": null,
      "contractAddress": "0x7131f0ec2aac01a5d30138c2d96c25e4fbbc78ce",
      "function": "approve(address,uint256)",
      "arguments": [
        "0x103C430c9Fcaa863EA90386e3d0d5cd53333876e",
        "115792089237316195423570985008687907853269984665640564039457584007913129639935"
      ],
      "transaction": {
        "from": "0x0990be6db8c785fbbf9ded8baec612a10cae814b",
        "to": "0x7131f0ec2aac01a5d30138c2d96c25e4fbbc78ce",
        "gas": "0x10a30",
        "value": "0x0",
        "input": "0x095ea7b3000000000000000000000000103c430c9fcaa863ea90386e3d0d5cd53333876effffffffffffffffffffffffffffffffffffffffffffffffffffffffffffffff",
        "nonce": "0xff",
        "chainId": "0xfc"
      },
      "additionalContracts": [],
      "isFixedGasLimit": false
    },
    {
      "hash": "0xea5dbb9ce5e478127fa9688c90fd94f8639463b451b3a6c8427eb58769915100",
      "transactionType": "CALL",
      "contractName": null,
      "contractAddress": "0x103c430c9fcaa863ea90386e3d0d5cd53333876e",
      "function": "send((uint32,bytes32,uint256,uint256,bytes,bytes,bytes),(uint256,uint256),address)",
      "arguments": [
        "(30274, 0x0000000000000000000000000990be6db8c785fbbf9ded8baec612a10cae814b, 100000000000000000000000, 100000000000000000000000, 0x0003, 0x, 0x)",
        "(244402952660183, 0)",
        "0x0990be6dB8c785FBbF9deD8bAEc612A10CaE814b"
      ],
      "transaction": {
        "from": "0x0990be6db8c785fbbf9ded8baec612a10cae814b",
        "to": "0x103c430c9fcaa863ea90386e3d0d5cd53333876e",
        "gas": "0x63941",
        "value": "0xde487f2ce4d7",
        "input": "0xc7c7f5b300000000000000000000000000000000000000000000000000000000000000800000000000000000000000000000000000000000000000000000de487f2ce4d700000000000000000000000000000000000000000000000000000000000000000000000000000000000000000990be6db8c785fbbf9ded8baec612a10cae814b00000000000000000000000000000000000000000000000000000000000076420000000000000000000000000990be6db8c785fbbf9ded8baec612a10cae814b00000000000000000000000000000000000000000000152d02c7e14af680000000000000000000000000000000000000000000000000152d02c7e14af680000000000000000000000000000000000000000000000000000000000000000000e0000000000000000000000000000000000000000000000000000000000000012000000000000000000000000000000000000000000000000000000000000001400000000000000000000000000000000000000000000000000000000000000002000300000000000000000000000000000000000000000000000000000000000000000000000000000000000000000000000000000000000000000000000000000000000000000000000000000000000000000000000000000000000000000000",
        "nonce": "0x100",
        "chainId": "0xfc"
      },
      "additionalContracts": [],
      "isFixedGasLimit": false
    }
  ],
  "receipts": [
    {
      "status": "0x1",
      "cumulativeGasUsed": "0x169ec",
      "logs": [
        {
          "address": "0x7131f0ec2aac01a5d30138c2d96c25e4fbbc78ce",
          "topics": [
            "0x8c5be1e5ebec7d5bd14f71427d1e84f3dd0314c0f7b2291e5b200ac8c7c3b925",
            "0x0000000000000000000000000990be6db8c785fbbf9ded8baec612a10cae814b",
            "0x000000000000000000000000103c430c9fcaa863ea90386e3d0d5cd53333876e"
          ],
          "data": "0xffffffffffffffffffffffffffffffffffffffffffffffffffffffffffffffff",
          "blockHash": "0xf5230343db1db09c0cb24692ef8c7d3a7649ec0e8aad77cb303c3d356630913d",
          "blockNumber": "0xd3a944",
          "transactionHash": "0xff878cd0cf0a8f466eabafb99e22fbb0624e2902b17d830a2ccc10dbc4cca3e4",
          "transactionIndex": "0x1",
          "logIndex": "0x0",
          "removed": false
        }
      ],
      "logsBloom": "0x00000000000000000000000000000000000000002000000000000000000000000000000000000000000000000000000000100000000000000000000000200000000000000000000000000000400000000000000000000000000000000000000000000000000000000000000000000000000008000000000000000000000000001000000000000000000800000000000000000000000000000100000000000000020000000000000000000000000000000000000000000000000000000000000000000000000000000000000000000000000000000000000000000000100000000010000000000000000000000000000000000000000000000000400000000000",
      "type": "0x2",
      "transactionHash": "0xff878cd0cf0a8f466eabafb99e22fbb0624e2902b17d830a2ccc10dbc4cca3e4",
      "transactionIndex": "0x1",
      "blockHash": "0xf5230343db1db09c0cb24692ef8c7d3a7649ec0e8aad77cb303c3d356630913d",
      "blockNumber": "0xd3a944",
      "gasUsed": "0xb603",
      "effectiveGasPrice": "0x118d46",
      "from": "0x0990be6db8c785fbbf9ded8baec612a10cae814b",
      "to": "0x7131f0ec2aac01a5d30138c2d96c25e4fbbc78ce",
      "contractAddress": null,
      "l1BaseFeeScalar": "0xc350",
      "l1BlobBaseFee": "0x3a3ad4",
      "l1BlobBaseFeeScalar": "0x0",
      "l1Fee": "0x4969cdf7730",
      "l1GasPrice": "0xeaec2cb17",
      "l1GasUsed": "0x640"
    },
    {
      "status": "0x1",
      "cumulativeGasUsed": "0x5eb6a",
      "logs": [
        {
          "address": "0x7131f0ec2aac01a5d30138c2d96c25e4fbbc78ce",
          "topics": [
            "0xddf252ad1be2c89b69c2b068fc378daa952ba7f163c4a11628f55a4df523b3ef",
            "0x0000000000000000000000000990be6db8c785fbbf9ded8baec612a10cae814b",
            "0x000000000000000000000000103c430c9fcaa863ea90386e3d0d5cd53333876e"
          ],
          "data": "0x00000000000000000000000000000000000000000000152d02c7e14af6800000",
          "blockHash": "0xf5230343db1db09c0cb24692ef8c7d3a7649ec0e8aad77cb303c3d356630913d",
          "blockNumber": "0xd3a944",
          "transactionHash": "0xea5dbb9ce5e478127fa9688c90fd94f8639463b451b3a6c8427eb58769915100",
          "transactionIndex": "0x2",
          "logIndex": "0x1",
          "removed": false
        },
        {
          "address": "0x377530cda84dfb2673bf4d145dcf0c4d7fdcb5b6",
          "topics": [
            "0x61ed099e74a97a1d7f8bb0952a88ca8b7b8ebd00c126ea04671f92a81213318a"
          ],
          "data": "0x00000000000000000000000041bdb4aa4a63a5b2efc531858d3118392b1a1c3d00000000000000000000000000000000000000000000000000008b314c7659f9",
          "blockHash": "0xf5230343db1db09c0cb24692ef8c7d3a7649ec0e8aad77cb303c3d356630913d",
          "blockNumber": "0xd3a944",
          "transactionHash": "0xea5dbb9ce5e478127fa9688c90fd94f8639463b451b3a6c8427eb58769915100",
          "transactionIndex": "0x2",
          "logIndex": "0x2",
          "removed": false
        },
        {
          "address": "0x377530cda84dfb2673bf4d145dcf0c4d7fdcb5b6",
          "topics": [
            "0x07ea52d82345d6e838192107d8fd7123d9c2ec8e916cd0aad13fd2b60db24644"
          ],
          "data": "0x000000000000000000000000000000000000000000000000000000000000006000000000000000000000000000000000000000000000000000000000000000c000000000000000000000000000000000000000000000000000000000000000e00000000000000000000000000000000000000000000000000000000000000002000000000000000000000000cce466a522984415bc91338c232d98869193d46e000000000000000000000000dd7b5e1db4aafd5c8ec3b764efb8ed265aa5445b000000000000000000000000000000000000000000000000000000000000000000000000000000000000000000000000000000000000000000000000000000020000000000000000000000000000000000000000000000000000298b995b456f0000000000000000000000000000000000000000000000000000298b995b456f",
          "blockHash": "0xf5230343db1db09c0cb24692ef8c7d3a7649ec0e8aad77cb303c3d356630913d",
          "blockNumber": "0xd3a944",
          "transactionHash": "0xea5dbb9ce5e478127fa9688c90fd94f8639463b451b3a6c8427eb58769915100",
          "transactionIndex": "0x2",
          "logIndex": "0x3",
          "removed": false
        },
        {
          "address": "0x1a44076050125825900e736c501f859c50fe728c",
          "topics": [
            "0x1ab700d4ced0c005b164c0f789fd09fcbb0156d4c2041b8a3bfbcd961cd1567f"
          ],
          "data": "0x00000000000000000000000000000000000000000000000000000000000000600000000000000000000000000000000000000000000000000000000000000120000000000000000000000000377530cda84dfb2673bf4d145dcf0c4d7fdcb5b600000000000000000000000000000000000000000000000000000000000000990100000000000000010000762f000000000000000000000000103c430c9fcaa863ea90386e3d0d5cd53333876e0000764200000000000000000000000045682729bdc0f68e7a02e76e9cfda57d0cd4d20b9924529a7660159c7b0d611c1e7f4ff43100c696d391c98b3c4b9186f3b123300000000000000000000000000990be6db8c785fbbf9ded8baec612a10cae814b000000174876e80000000000000000000000000000000000000000000000000000000000000000000000000000001600030100110100000000000000000000000000030d4000000000000000000000",
          "blockHash": "0xf5230343db1db09c0cb24692ef8c7d3a7649ec0e8aad77cb303c3d356630913d",
          "blockNumber": "0xd3a944",
          "transactionHash": "0xea5dbb9ce5e478127fa9688c90fd94f8639463b451b3a6c8427eb58769915100",
          "transactionIndex": "0x2",
          "logIndex": "0x4",
          "removed": false
        },
        {
          "address": "0x103c430c9fcaa863ea90386e3d0d5cd53333876e",
          "topics": [
            "0x85496b760a4b7f8d66384b9df21b381f5d1b1e79f229a47aaf4c232edc2fe59a",
            "0x9924529a7660159c7b0d611c1e7f4ff43100c696d391c98b3c4b9186f3b12330",
            "0x0000000000000000000000000990be6db8c785fbbf9ded8baec612a10cae814b"
          ],
          "data": "0x000000000000000000000000000000000000000000000000000000000000764200000000000000000000000000000000000000000000152d02c7e14af680000000000000000000000000000000000000000000000000152d02c7e14af6800000",
          "blockHash": "0xf5230343db1db09c0cb24692ef8c7d3a7649ec0e8aad77cb303c3d356630913d",
          "blockNumber": "0xd3a944",
          "transactionHash": "0xea5dbb9ce5e478127fa9688c90fd94f8639463b451b3a6c8427eb58769915100",
          "transactionIndex": "0x2",
          "logIndex": "0x5",
          "removed": false
        }
      ],
      "logsBloom": "0x00000000000000000000800000000000000000002000000000000000001000000000000000000000000000000000000000140000000000000000000000000000000002000001000000000008400000000000000000000000000000000000000000000000000000008000000000000000000008000010000000000410000000001000000000000000000800080000000000000000000000000100000000000000000000008000000000100000000000000000000000480000000440000000010000000002000000000000004080000000000000000000000000000040100000000001040000000000000000000000002000000000018000000000400000000000",
      "type": "0x2",
      "transactionHash": "0xea5dbb9ce5e478127fa9688c90fd94f8639463b451b3a6c8427eb58769915100",
      "transactionIndex": "0x2",
      "blockHash": "0xf5230343db1db09c0cb24692ef8c7d3a7649ec0e8aad77cb303c3d356630913d",
      "blockNumber": "0xd3a944",
      "gasUsed": "0x4817e",
      "effectiveGasPrice": "0x118d46",
      "from": "0x0990be6db8c785fbbf9ded8baec612a10cae814b",
      "to": "0x103c430c9fcaa863ea90386e3d0d5cd53333876e",
      "contractAddress": null,
      "l1BaseFeeScalar": "0xc350",
      "l1BlobBaseFee": "0x3a3ad4",
      "l1BlobBaseFeeScalar": "0x0",
      "l1Fee": "0x7381c705016",
      "l1GasPrice": "0xeaec2cb17",
      "l1GasUsed": "0x9d5"
    }
  ],
  "libraries": [],
  "pending": [],
  "returns": {},
  "timestamp": 1734553548,
  "chain": 252,
  "commit": "cb8ebc4"
}