{
  "transactions": [
    {
      "hash": "0xdf262c066ccf1d96c4fb9f1c99f0a6d3cc0889a9048634a10055645a85115b11",
      "transactionType": "CALL",
      "contractName": null,
      "contractAddress": "0x23432452b720c80553458496d4d9d7c5003280d0",
      "function": "send((uint32,bytes32,uint256,uint256,bytes,bytes,bytes),(uint256,uint256),address)",
      "arguments": [
        "(30243, 0x000000000000000000000000b0e1650a9760e0f383174af042091fc544b8356f, 1000000000000000, 1000000000000000, 0x0003, 0x, 0x)",
        "(264518162374596, 0)",
        "0xb0E1650A9760e0f383174af042091fc544b8356f"
      ],
      "transaction": {
        "from": "0xb0e1650a9760e0f383174af042091fc544b8356f",
        "to": "0x23432452b720c80553458496d4d9d7c5003280d0",
        "gas": "0x7c2de",
        "value": "0xf093ef1adfc4",
        "input": "0xc7c7f5b300000000000000000000000000000000000000000000000000000000000000800000000000000000000000000000000000000000000000000000f093ef1adfc40000000000000000000000000000000000000000000000000000000000000000000000000000000000000000b0e1650a9760e0f383174af042091fc544b8356f0000000000000000000000000000000000000000000000000000000000007623000000000000000000000000b0e1650a9760e0f383174af042091fc544b8356f00000000000000000000000000000000000000000000000000038d7ea4c6800000000000000000000000000000000000000000000000000000038d7ea4c6800000000000000000000000000000000000000000000000000000000000000000e0000000000000000000000000000000000000000000000000000000000000012000000000000000000000000000000000000000000000000000000000000001400000000000000000000000000000000000000000000000000000000000000002000300000000000000000000000000000000000000000000000000000000000000000000000000000000000000000000000000000000000000000000000000000000000000000000000000000000000000000000000000000000000000000000",
        "nonce": "0x3b",
        "chainId": "0x1"
      },
      "additionalContracts": [],
      "isFixedGasLimit": false
    },
    {
      "hash": "0x2a155c2aedab107a122ba50594a7a179c3e486f955a27f237d508130f3cc3dbc",
      "transactionType": "CALL",
      "contractName": null,
      "contractAddress": "0xe4796ccb6bb5de2290c417ac337f2b66ca2e770e",
      "function": "send((uint32,bytes32,uint256,uint256,bytes,bytes,bytes),(uint256,uint256),address)",
      "arguments": [
        "(30243, 0x000000000000000000000000b0e1650a9760e0f383174af042091fc544b8356f, 1000000000000000, 1000000000000000, 0x0003, 0x, 0x)",
        "(264518162374596, 0)",
        "0xb0E1650A9760e0f383174af042091fc544b8356f"
      ],
      "transaction": {
        "from": "0xb0e1650a9760e0f383174af042091fc544b8356f",
        "to": "0xe4796ccb6bb5de2290c417ac337f2b66ca2e770e",
        "gas": "0x6328d",
        "value": "0xf093ef1adfc4",
        "input": "0xc7c7f5b300000000000000000000000000000000000000000000000000000000000000800000000000000000000000000000000000000000000000000000f093ef1adfc40000000000000000000000000000000000000000000000000000000000000000000000000000000000000000b0e1650a9760e0f383174af042091fc544b8356f0000000000000000000000000000000000000000000000000000000000007623000000000000000000000000b0e1650a9760e0f383174af042091fc544b8356f00000000000000000000000000000000000000000000000000038d7ea4c6800000000000000000000000000000000000000000000000000000038d7ea4c6800000000000000000000000000000000000000000000000000000000000000000e0000000000000000000000000000000000000000000000000000000000000012000000000000000000000000000000000000000000000000000000000000001400000000000000000000000000000000000000000000000000000000000000002000300000000000000000000000000000000000000000000000000000000000000000000000000000000000000000000000000000000000000000000000000000000000000000000000000000000000000000000000000000000000000000000",
        "nonce": "0x3c",
        "chainId": "0x1"
      },
      "additionalContracts": [],
      "isFixedGasLimit": false
    },
    {
      "hash": "0xb6ffffe4ace6c0decfc02c609b6bd9ffa9b6bae84cb5b68b1dfd4eec578a03d4",
      "transactionType": "CALL",
      "contractName": null,
      "contractAddress": "0x1f55a02a049033e3419a8e2975cf3f572f4e6e9a",
      "function": "send((uint32,bytes32,uint256,uint256,bytes,bytes,bytes),(uint256,uint256),address)",
      "arguments": [
        "(30243, 0x000000000000000000000000b0e1650a9760e0f383174af042091fc544b8356f, 1000000000000000, 1000000000000000, 0x0003, 0x, 0x)",
        "(264518162374596, 0)",
        "0xb0E1650A9760e0f383174af042091fc544b8356f"
      ],
      "transaction": {
        "from": "0xb0e1650a9760e0f383174af042091fc544b8356f",
        "to": "0x1f55a02a049033e3419a8e2975cf3f572f4e6e9a",
        "gas": "0x5dc53",
        "value": "0xf093ef1adfc4",
        "input": "0xc7c7f5b300000000000000000000000000000000000000000000000000000000000000800000000000000000000000000000000000000000000000000000f093ef1adfc40000000000000000000000000000000000000000000000000000000000000000000000000000000000000000b0e1650a9760e0f383174af042091fc544b8356f0000000000000000000000000000000000000000000000000000000000007623000000000000000000000000b0e1650a9760e0f383174af042091fc544b8356f00000000000000000000000000000000000000000000000000038d7ea4c6800000000000000000000000000000000000000000000000000000038d7ea4c6800000000000000000000000000000000000000000000000000000000000000000e0000000000000000000000000000000000000000000000000000000000000012000000000000000000000000000000000000000000000000000000000000001400000000000000000000000000000000000000000000000000000000000000002000300000000000000000000000000000000000000000000000000000000000000000000000000000000000000000000000000000000000000000000000000000000000000000000000000000000000000000000000000000000000000000000",
        "nonce": "0x3d",
        "chainId": "0x1"
      },
      "additionalContracts": [],
      "isFixedGasLimit": false
    },
    {
      "hash": "0xcebe68be78e1f8fa3bdcefbb0732781e034836207c7617e1b3bfe45ef00827f2",
      "transactionType": "CALL",
      "contractName": null,
      "contractAddress": "0x909dbde1ebe906af95660033e478d59efe831fed",
      "function": "send((uint32,bytes32,uint256,uint256,bytes,bytes,bytes),(uint256,uint256),address)",
      "arguments": [
        "(30243, 0x000000000000000000000000b0e1650a9760e0f383174af042091fc544b8356f, 1000000000000000, 1000000000000000, 0x0003, 0x, 0x)",
        "(264518162374596, 0)",
        "0xb0E1650A9760e0f383174af042091fc544b8356f"
      ],
      "transaction": {
        "from": "0xb0e1650a9760e0f383174af042091fc544b8356f",
        "to": "0x909dbde1ebe906af95660033e478d59efe831fed",
        "gas": "0x6457c",
        "value": "0xf093ef1adfc4",
        "input": "0xc7c7f5b300000000000000000000000000000000000000000000000000000000000000800000000000000000000000000000000000000000000000000000f093ef1adfc40000000000000000000000000000000000000000000000000000000000000000000000000000000000000000b0e1650a9760e0f383174af042091fc544b8356f0000000000000000000000000000000000000000000000000000000000007623000000000000000000000000b0e1650a9760e0f383174af042091fc544b8356f00000000000000000000000000000000000000000000000000038d7ea4c6800000000000000000000000000000000000000000000000000000038d7ea4c6800000000000000000000000000000000000000000000000000000000000000000e0000000000000000000000000000000000000000000000000000000000000012000000000000000000000000000000000000000000000000000000000000001400000000000000000000000000000000000000000000000000000000000000002000300000000000000000000000000000000000000000000000000000000000000000000000000000000000000000000000000000000000000000000000000000000000000000000000000000000000000000000000000000000000000000000",
        "nonce": "0x3e",
        "chainId": "0x1"
      },
      "additionalContracts": [],
      "isFixedGasLimit": false
    },
    {
      "hash": "0x01383b9a49c64c4461d35a95d0b5b4ef0e6bd94ad7206070264ef944c6bce2d1",
      "transactionType": "CALL",
      "contractName": null,
      "contractAddress": "0x23432452b720c80553458496d4d9d7c5003280d0",
      "function": "send((uint32,bytes32,uint256,uint256,bytes,bytes,bytes),(uint256,uint256),address)",
      "arguments": [
        "(30151, 0x000000000000000000000000b0e1650a9760e0f383174af042091fc544b8356f, 1000000000000000, 1000000000000000, 0x0003, 0x, 0x)",
        "(87197710332136, 0)",
        "0xb0E1650A9760e0f383174af042091fc544b8356f"
      ],
      "transaction": {
        "from": "0xb0e1650a9760e0f383174af042091fc544b8356f",
        "to": "0x23432452b720c80553458496d4d9d7c5003280d0",
        "gas": "0x79cb4",
        "value": "0x4f4e4c8cb0e8",
        "input": "0xc7c7f5b3000000000000000000000000000000000000000000000000000000000000008000000000000000000000000000000000000000000000000000004f4e4c8cb0e80000000000000000000000000000000000000000000000000000000000000000000000000000000000000000b0e1650a9760e0f383174af042091fc544b8356f00000000000000000000000000000000000000000000000000000000000075c7000000000000000000000000b0e1650a9760e0f383174af042091fc544b8356f00000000000000000000000000000000000000000000000000038d7ea4c6800000000000000000000000000000000000000000000000000000038d7ea4c6800000000000000000000000000000000000000000000000000000000000000000e0000000000000000000000000000000000000000000000000000000000000012000000000000000000000000000000000000000000000000000000000000001400000000000000000000000000000000000000000000000000000000000000002000300000000000000000000000000000000000000000000000000000000000000000000000000000000000000000000000000000000000000000000000000000000000000000000000000000000000000000000000000000000000000000000",
        "nonce": "0x3f",
        "chainId": "0x1"
      },
      "additionalContracts": [],
      "isFixedGasLimit": false
    },
    {
      "hash": "0xd03ed206c511e788d85408f8fe7da4b2f028c098f2755bf602fa8dfc8f9ecf7b",
      "transactionType": "CALL",
      "contractName": null,
      "contractAddress": "0xe4796ccb6bb5de2290c417ac337f2b66ca2e770e",
      "function": "send((uint32,bytes32,uint256,uint256,bytes,bytes,bytes),(uint256,uint256),address)",
      "arguments": [
        "(30151, 0x000000000000000000000000b0e1650a9760e0f383174af042091fc544b8356f, 1000000000000000, 1000000000000000, 0x0003, 0x, 0x)",
        "(87197710332136, 0)",
        "0xb0E1650A9760e0f383174af042091fc544b8356f"
      ],
      "transaction": {
        "from": "0xb0e1650a9760e0f383174af042091fc544b8356f",
        "to": "0xe4796ccb6bb5de2290c417ac337f2b66ca2e770e",
        "gas": "0x612a1",
        "value": "0x4f4e4c8cb0e8",
        "input": "0xc7c7f5b3000000000000000000000000000000000000000000000000000000000000008000000000000000000000000000000000000000000000000000004f4e4c8cb0e80000000000000000000000000000000000000000000000000000000000000000000000000000000000000000b0e1650a9760e0f383174af042091fc544b8356f00000000000000000000000000000000000000000000000000000000000075c7000000000000000000000000b0e1650a9760e0f383174af042091fc544b8356f00000000000000000000000000000000000000000000000000038d7ea4c6800000000000000000000000000000000000000000000000000000038d7ea4c6800000000000000000000000000000000000000000000000000000000000000000e0000000000000000000000000000000000000000000000000000000000000012000000000000000000000000000000000000000000000000000000000000001400000000000000000000000000000000000000000000000000000000000000002000300000000000000000000000000000000000000000000000000000000000000000000000000000000000000000000000000000000000000000000000000000000000000000000000000000000000000000000000000000000000000000000",
        "nonce": "0x40",
        "chainId": "0x1"
      },
      "additionalContracts": [],
      "isFixedGasLimit": false
    },
    {
      "hash": "0x91e9635fc2d79a52277149c066969f93152be08f7d56eac070e45337e395a032",
      "transactionType": "CALL",
      "contractName": null,
      "contractAddress": "0x1f55a02a049033e3419a8e2975cf3f572f4e6e9a",
      "function": "send((uint32,bytes32,uint256,uint256,bytes,bytes,bytes),(uint256,uint256),address)",
      "arguments": [
        "(30151, 0x000000000000000000000000b0e1650a9760e0f383174af042091fc544b8356f, 1000000000000000, 1000000000000000, 0x0003, 0x, 0x)",
        "(87197710332136, 0)",
        "0xb0E1650A9760e0f383174af042091fc544b8356f"
      ],
      "transaction": {
        "from": "0xb0e1650a9760e0f383174af042091fc544b8356f",
        "to": "0x1f55a02a049033e3419a8e2975cf3f572f4e6e9a",
        "gas": "0x5b848",
        "value": "0x4f4e4c8cb0e8",
        "input": "0xc7c7f5b3000000000000000000000000000000000000000000000000000000000000008000000000000000000000000000000000000000000000000000004f4e4c8cb0e80000000000000000000000000000000000000000000000000000000000000000000000000000000000000000b0e1650a9760e0f383174af042091fc544b8356f00000000000000000000000000000000000000000000000000000000000075c7000000000000000000000000b0e1650a9760e0f383174af042091fc544b8356f00000000000000000000000000000000000000000000000000038d7ea4c6800000000000000000000000000000000000000000000000000000038d7ea4c6800000000000000000000000000000000000000000000000000000000000000000e0000000000000000000000000000000000000000000000000000000000000012000000000000000000000000000000000000000000000000000000000000001400000000000000000000000000000000000000000000000000000000000000002000300000000000000000000000000000000000000000000000000000000000000000000000000000000000000000000000000000000000000000000000000000000000000000000000000000000000000000000000000000000000000000000",
        "nonce": "0x41",
        "chainId": "0x1"
      },
      "additionalContracts": [],
      "isFixedGasLimit": false
    },
    {
      "hash": "0xa66619527172afea9e73292f88ff56513166fcb518a4369009484caa56532477",
      "transactionType": "CALL",
      "contractName": null,
      "contractAddress": "0x909dbde1ebe906af95660033e478d59efe831fed",
      "function": "send((uint32,bytes32,uint256,uint256,bytes,bytes,bytes),(uint256,uint256),address)",
      "arguments": [
        "(30151, 0x000000000000000000000000b0e1650a9760e0f383174af042091fc544b8356f, 1000000000000000, 1000000000000000, 0x0003, 0x, 0x)",
        "(87197710332136, 0)",
        "0xb0E1650A9760e0f383174af042091fc544b8356f"
      ],
      "transaction": {
        "from": "0xb0e1650a9760e0f383174af042091fc544b8356f",
        "to": "0x909dbde1ebe906af95660033e478d59efe831fed",
        "gas": "0x62172",
        "value": "0x4f4e4c8cb0e8",
        "input": "0xc7c7f5b3000000000000000000000000000000000000000000000000000000000000008000000000000000000000000000000000000000000000000000004f4e4c8cb0e80000000000000000000000000000000000000000000000000000000000000000000000000000000000000000b0e1650a9760e0f383174af042091fc544b8356f00000000000000000000000000000000000000000000000000000000000075c7000000000000000000000000b0e1650a9760e0f383174af042091fc544b8356f00000000000000000000000000000000000000000000000000038d7ea4c6800000000000000000000000000000000000000000000000000000038d7ea4c6800000000000000000000000000000000000000000000000000000000000000000e0000000000000000000000000000000000000000000000000000000000000012000000000000000000000000000000000000000000000000000000000000001400000000000000000000000000000000000000000000000000000000000000002000300000000000000000000000000000000000000000000000000000000000000000000000000000000000000000000000000000000000000000000000000000000000000000000000000000000000000000000000000000000000000000000",
        "nonce": "0x42",
        "chainId": "0x1"
      },
      "additionalContracts": [],
      "isFixedGasLimit": false
    }
  ],
  "receipts": [
    {
      "status": "0x1",
      "cumulativeGasUsed": "0x1118163",
      "logs": [
        {
          "address": "0x3432b6a60d23ca0dfca7761b7ab56459d9c964d0",
          "topics": [
            "0x3eaa1c4be29b4a4c60e00300b5a17a8ec6c982b5b0ad5870cc84ebdc3b24d68e",
            "0x000000000000000000000000b0e1650a9760e0f383174af042091fc544b8356f"
          ],
          "data": "0x0000000000000000000000000000000000000000000000030509e97f234e412d00000000000000000000000000000000000000000000000305065c007e87c12d",
          "blockHash": "0xcd51f63df97c754fcc2740c4602cf46be773cc37fc09d2c3f8a629952de5c118",
          "blockNumber": "0x13402e7",
          "transactionHash": "0xdf262c066ccf1d96c4fb9f1c99f0a6d3cc0889a9048634a10055645a85115b11",
          "transactionIndex": "0xb7",
          "logIndex": "0x227",
          "removed": false
        },
        {
          "address": "0x3432b6a60d23ca0dfca7761b7ab56459d9c964d0",
          "topics": [
            "0x3eaa1c4be29b4a4c60e00300b5a17a8ec6c982b5b0ad5870cc84ebdc3b24d68e",
            "0x00000000000000000000000023432452b720c80553458496d4d9d7c5003280d0"
          ],
          "data": "0x0000000000000000000000000000000000000000000011bb425b08302a4f70000000000000000000000000000000000000000000000011bb425e95aecf15f000",
          "blockHash": "0xcd51f63df97c754fcc2740c4602cf46be773cc37fc09d2c3f8a629952de5c118",
          "blockNumber": "0x13402e7",
          "transactionHash": "0xdf262c066ccf1d96c4fb9f1c99f0a6d3cc0889a9048634a10055645a85115b11",
          "transactionIndex": "0xb7",
          "logIndex": "0x228",
          "removed": false
        },
        {
          "address": "0x3432b6a60d23ca0dfca7761b7ab56459d9c964d0",
          "topics": [
            "0xddf252ad1be2c89b69c2b068fc378daa952ba7f163c4a11628f55a4df523b3ef",
            "0x000000000000000000000000b0e1650a9760e0f383174af042091fc544b8356f",
            "0x00000000000000000000000023432452b720c80553458496d4d9d7c5003280d0"
          ],
          "data": "0x00000000000000000000000000000000000000000000000000038d7ea4c68000",
          "blockHash": "0xcd51f63df97c754fcc2740c4602cf46be773cc37fc09d2c3f8a629952de5c118",
          "blockNumber": "0x13402e7",
          "transactionHash": "0xdf262c066ccf1d96c4fb9f1c99f0a6d3cc0889a9048634a10055645a85115b11",
          "transactionIndex": "0xb7",
          "logIndex": "0x229",
          "removed": false
        },
        {
          "address": "0x3432b6a60d23ca0dfca7761b7ab56459d9c964d0",
          "topics": [
            "0x8c5be1e5ebec7d5bd14f71427d1e84f3dd0314c0f7b2291e5b200ac8c7c3b925",
            "0x000000000000000000000000b0e1650a9760e0f383174af042091fc544b8356f",
            "0x00000000000000000000000023432452b720c80553458496d4d9d7c5003280d0"
          ],
          "data": "0xffffffffffffffffffffffffffffffffffffffffffffffffe010d9bde3593fff",
          "blockHash": "0xcd51f63df97c754fcc2740c4602cf46be773cc37fc09d2c3f8a629952de5c118",
          "blockNumber": "0x13402e7",
          "transactionHash": "0xdf262c066ccf1d96c4fb9f1c99f0a6d3cc0889a9048634a10055645a85115b11",
          "transactionIndex": "0xb7",
          "logIndex": "0x22a",
          "removed": false
        },
        {
          "address": "0xbb2ea70c9e858123480642cf96acbcce1372dce1",
          "topics": [
            "0x61ed099e74a97a1d7f8bb0952a88ca8b7b8ebd00c126ea04671f92a81213318a"
          ],
          "data": "0x000000000000000000000000173272739bd7aa6e4e214714048a9fe69945305900000000000000000000000000000000000000000000000000009807fd2fa312",
          "blockHash": "0xcd51f63df97c754fcc2740c4602cf46be773cc37fc09d2c3f8a629952de5c118",
          "blockNumber": "0x13402e7",
          "transactionHash": "0xdf262c066ccf1d96c4fb9f1c99f0a6d3cc0889a9048634a10055645a85115b11",
          "transactionIndex": "0xb7",
          "logIndex": "0x22b",
          "removed": false
        },
        {
          "address": "0xbb2ea70c9e858123480642cf96acbcce1372dce1",
          "topics": [
            "0x07ea52d82345d6e838192107d8fd7123d9c2ec8e916cd0aad13fd2b60db24644"
          ],
          "data": "0x000000000000000000000000000000000000000000000000000000000000006000000000000000000000000000000000000000000000000000000000000000c000000000000000000000000000000000000000000000000000000000000000e00000000000000000000000000000000000000000000000000000000000000002000000000000000000000000380275805876ff19055ea900cdb2b46a94ecf20d000000000000000000000000589dedbd617e0cbcb916a9223f4d1300c294236b0000000000000000000000000000000000000000000000000000000000000000000000000000000000000000000000000000000000000000000000000000000200000000000000000000000000000000000000000000000000002c45f8f59e5900000000000000000000000000000000000000000000000000002c45f8f59e59",
          "blockHash": "0xcd51f63df97c754fcc2740c4602cf46be773cc37fc09d2c3f8a629952de5c118",
          "blockNumber": "0x13402e7",
          "transactionHash": "0xdf262c066ccf1d96c4fb9f1c99f0a6d3cc0889a9048634a10055645a85115b11",
          "transactionIndex": "0xb7",
          "logIndex": "0x22c",
          "removed": false
        },
        {
          "address": "0x1a44076050125825900e736c501f859c50fe728c",
          "topics": [
            "0x1ab700d4ced0c005b164c0f789fd09fcbb0156d4c2041b8a3bfbcd961cd1567f"
          ],
          "data": "0x00000000000000000000000000000000000000000000000000000000000000600000000000000000000000000000000000000000000000000000000000000120000000000000000000000000bb2ea70c9e858123480642cf96acbcce1372dce1000000000000000000000000000000000000000000000000000000000000009901000000000000000b0000759500000000000000000000000023432452b720c80553458496d4d9d7c5003280d00000762300000000000000000000000023432452b720c80553458496d4d9d7c5003280d0e8b55c127e7364a597e8d5a58522fa9974565cfc91e4deee27b362863e22143a000000000000000000000000b0e1650a9760e0f383174af042091fc544b8356f00000000000003e800000000000000000000000000000000000000000000000000000000000000000000000000001600030100110100000000000000000000000000030d4000000000000000000000",
          "blockHash": "0xcd51f63df97c754fcc2740c4602cf46be773cc37fc09d2c3f8a629952de5c118",
          "blockNumber": "0x13402e7",
          "transactionHash": "0xdf262c066ccf1d96c4fb9f1c99f0a6d3cc0889a9048634a10055645a85115b11",
          "transactionIndex": "0xb7",
          "logIndex": "0x22d",
          "removed": false
        },
        {
          "address": "0x23432452b720c80553458496d4d9d7c5003280d0",
          "topics": [
            "0x85496b760a4b7f8d66384b9df21b381f5d1b1e79f229a47aaf4c232edc2fe59a",
            "0xe8b55c127e7364a597e8d5a58522fa9974565cfc91e4deee27b362863e22143a",
            "0x000000000000000000000000b0e1650a9760e0f383174af042091fc544b8356f"
          ],
          "data": "0x000000000000000000000000000000000000000000000000000000000000762300000000000000000000000000000000000000000000000000038d7ea4c6800000000000000000000000000000000000000000000000000000038d7ea4c68000",
          "blockHash": "0xcd51f63df97c754fcc2740c4602cf46be773cc37fc09d2c3f8a629952de5c118",
          "blockNumber": "0x13402e7",
          "transactionHash": "0xdf262c066ccf1d96c4fb9f1c99f0a6d3cc0889a9048634a10055645a85115b11",
          "transactionIndex": "0xb7",
          "logIndex": "0x22e",
          "removed": false
        }
      ],
      "logsBloom": "0x00000000000000000000000000000000000000000000000000000000001000000400000100000000000000000800000000000000000000000000000000200000000002000000000000004008000000000000208000000000000002000000000000000000000000008000000000000000000000000110080000000010000000000000000000000000001000080000000000000000000020000000000000000000020000008000000000100000000000000000000000400000000540000000000000000002000000000000000080000000000000001000000000000000000000000010040080000000000000000000042000280000018004028000000000004000",
      "type": "0x2",
      "transactionHash": "0xdf262c066ccf1d96c4fb9f1c99f0a6d3cc0889a9048634a10055645a85115b11",
      "transactionIndex": "0xb7",
      "blockHash": "0xcd51f63df97c754fcc2740c4602cf46be773cc37fc09d2c3f8a629952de5c118",
      "blockNumber": "0x13402e7",
      "gasUsed": "0x54e8b",
      "effectiveGasPrice": "0x1124c7e9a",
      "from": "0xb0e1650a9760e0f383174af042091fc544b8356f",
      "to": "0x23432452b720c80553458496d4d9d7c5003280d0",
      "contractAddress": null
    },
    {
      "status": "0x1",
      "cumulativeGasUsed": "0xb3b19b",
      "logs": [
        {
          "address": "0xa663b02cf0a4b149d2ad41910cb81e23e1c41c32",
          "topics": [
            "0xddf252ad1be2c89b69c2b068fc378daa952ba7f163c4a11628f55a4df523b3ef",
            "0x000000000000000000000000b0e1650a9760e0f383174af042091fc544b8356f",
            "0x000000000000000000000000e4796ccb6bb5de2290c417ac337f2b66ca2e770e"
          ],
          "data": "0x00000000000000000000000000000000000000000000000000038d7ea4c68000",
          "blockHash": "0x2eb07d65c91413389c6fe9071c912d997328d7bff8b590de1bd4ff622785fed1",
          "blockNumber": "0x13402e8",
          "transactionHash": "0x2a155c2aedab107a122ba50594a7a179c3e486f955a27f237d508130f3cc3dbc",
          "transactionIndex": "0x56",
          "logIndex": "0x164",
          "removed": false
        },
        {
          "address": "0xbb2ea70c9e858123480642cf96acbcce1372dce1",
          "topics": [
            "0x61ed099e74a97a1d7f8bb0952a88ca8b7b8ebd00c126ea04671f92a81213318a"
          ],
          "data": "0x000000000000000000000000173272739bd7aa6e4e214714048a9fe69945305900000000000000000000000000000000000000000000000000009807fd2fa312",
          "blockHash": "0x2eb07d65c91413389c6fe9071c912d997328d7bff8b590de1bd4ff622785fed1",
          "blockNumber": "0x13402e8",
          "transactionHash": "0x2a155c2aedab107a122ba50594a7a179c3e486f955a27f237d508130f3cc3dbc",
          "transactionIndex": "0x56",
          "logIndex": "0x165",
          "removed": false
        },
        {
          "address": "0xbb2ea70c9e858123480642cf96acbcce1372dce1",
          "topics": [
            "0x07ea52d82345d6e838192107d8fd7123d9c2ec8e916cd0aad13fd2b60db24644"
          ],
          "data": "0x000000000000000000000000000000000000000000000000000000000000006000000000000000000000000000000000000000000000000000000000000000c000000000000000000000000000000000000000000000000000000000000000e00000000000000000000000000000000000000000000000000000000000000002000000000000000000000000380275805876ff19055ea900cdb2b46a94ecf20d000000000000000000000000589dedbd617e0cbcb916a9223f4d1300c294236b0000000000000000000000000000000000000000000000000000000000000000000000000000000000000000000000000000000000000000000000000000000200000000000000000000000000000000000000000000000000002c45f8f59e5900000000000000000000000000000000000000000000000000002c45f8f59e59",
          "blockHash": "0x2eb07d65c91413389c6fe9071c912d997328d7bff8b590de1bd4ff622785fed1",
          "blockNumber": "0x13402e8",
          "transactionHash": "0x2a155c2aedab107a122ba50594a7a179c3e486f955a27f237d508130f3cc3dbc",
          "transactionIndex": "0x56",
          "logIndex": "0x166",
          "removed": false
        },
        {
          "address": "0x1a44076050125825900e736c501f859c50fe728c",
          "topics": [
            "0x1ab700d4ced0c005b164c0f789fd09fcbb0156d4c2041b8a3bfbcd961cd1567f"
          ],
          "data": "0x00000000000000000000000000000000000000000000000000000000000000600000000000000000000000000000000000000000000000000000000000000120000000000000000000000000bb2ea70c9e858123480642cf96acbcce1372dce1000000000000000000000000000000000000000000000000000000000000009901000000000000004200007595000000000000000000000000e4796ccb6bb5de2290c417ac337f2b66ca2e770e00007623000000000000000000000000e4796ccb6bb5de2290c417ac337f2b66ca2e770e463d8f3def5e9562a9772ece6a4d71f7cf405e5af1a121218e53a500d5333ba7000000000000000000000000b0e1650a9760e0f383174af042091fc544b8356f00000000000003e800000000000000000000000000000000000000000000000000000000000000000000000000001600030100110100000000000000000000000000030d4000000000000000000000",
          "blockHash": "0x2eb07d65c91413389c6fe9071c912d997328d7bff8b590de1bd4ff622785fed1",
          "blockNumber": "0x13402e8",
          "transactionHash": "0x2a155c2aedab107a122ba50594a7a179c3e486f955a27f237d508130f3cc3dbc",
          "transactionIndex": "0x56",
          "logIndex": "0x167",
          "removed": false
        },
        {
          "address": "0xe4796ccb6bb5de2290c417ac337f2b66ca2e770e",
          "topics": [
            "0x85496b760a4b7f8d66384b9df21b381f5d1b1e79f229a47aaf4c232edc2fe59a",
            "0x463d8f3def5e9562a9772ece6a4d71f7cf405e5af1a121218e53a500d5333ba7",
            "0x000000000000000000000000b0e1650a9760e0f383174af042091fc544b8356f"
          ],
          "data": "0x000000000000000000000000000000000000000000000000000000000000762300000000000000000000000000000000000000000000000000038d7ea4c6800000000000000000000000000000000000000000000000000000038d7ea4c68000",
          "blockHash": "0x2eb07d65c91413389c6fe9071c912d997328d7bff8b590de1bd4ff622785fed1",
          "blockNumber": "0x13402e8",
          "transactionHash": "0x2a155c2aedab107a122ba50594a7a179c3e486f955a27f237d508130f3cc3dbc",
          "transactionIndex": "0x56",
          "logIndex": "0x168",
          "removed": false
        }
      ],
      "logsBloom": "0x00000000000000000000400000000000000000000000000000000000081000000400000000000000000000000000000000000000000000100000000000000000000402000000010000000008000000000004200000000000000000000000000000400000000000008000000000000000000000000110080000000010000000100000000000000000001000080000000000000000000000000000000000000000000000008000000000100000000000000000000000400000000440000000000000000002000000000000000081000000000000400000000000000004000000000000040080000000000000000000002000000000018000000000000000001000",
      "type": "0x2",
      "transactionHash": "0x2a155c2aedab107a122ba50594a7a179c3e486f955a27f237d508130f3cc3dbc",
      "transactionIndex": "0x56",
      "blockHash": "0x2eb07d65c91413389c6fe9071c912d997328d7bff8b590de1bd4ff622785fed1",
      "blockNumber": "0x13402e8",
      "gasUsed": "0x43cd3",
      "effectiveGasPrice": "0x123ae2254",
      "from": "0xb0e1650a9760e0f383174af042091fc544b8356f",
      "to": "0xe4796ccb6bb5de2290c417ac337f2b66ca2e770e",
      "contractAddress": null
    },
    {
      "status": "0x1",
      "cumulativeGasUsed": "0xcb5669",
      "logs": [
        {
          "address": "0xac3e018457b222d93114458476f3e3416abbe38f",
          "topics": [
            "0xddf252ad1be2c89b69c2b068fc378daa952ba7f163c4a11628f55a4df523b3ef",
            "0x000000000000000000000000b0e1650a9760e0f383174af042091fc544b8356f",
            "0x0000000000000000000000001f55a02a049033e3419a8e2975cf3f572f4e6e9a"
          ],
          "data": "0x00000000000000000000000000000000000000000000000000038d7ea4c68000",
          "blockHash": "0x8ea5b26ff0b7b4f65d0dbbce98673f22f2a36741885cfd3d82577afda7b91e9a",
          "blockNumber": "0x13402e9",
          "transactionHash": "0xb6ffffe4ace6c0decfc02c609b6bd9ffa9b6bae84cb5b68b1dfd4eec578a03d4",
          "transactionIndex": "0x6b",
          "logIndex": "0x168",
          "removed": false
        },
        {
          "address": "0xbb2ea70c9e858123480642cf96acbcce1372dce1",
          "topics": [
            "0x61ed099e74a97a1d7f8bb0952a88ca8b7b8ebd00c126ea04671f92a81213318a"
          ],
          "data": "0x000000000000000000000000173272739bd7aa6e4e214714048a9fe69945305900000000000000000000000000000000000000000000000000009807fd2fa312",
          "blockHash": "0x8ea5b26ff0b7b4f65d0dbbce98673f22f2a36741885cfd3d82577afda7b91e9a",
          "blockNumber": "0x13402e9",
          "transactionHash": "0xb6ffffe4ace6c0decfc02c609b6bd9ffa9b6bae84cb5b68b1dfd4eec578a03d4",
          "transactionIndex": "0x6b",
          "logIndex": "0x169",
          "removed": false
        },
        {
          "address": "0xbb2ea70c9e858123480642cf96acbcce1372dce1",
          "topics": [
            "0x07ea52d82345d6e838192107d8fd7123d9c2ec8e916cd0aad13fd2b60db24644"
          ],
          "data": "0x000000000000000000000000000000000000000000000000000000000000006000000000000000000000000000000000000000000000000000000000000000c000000000000000000000000000000000000000000000000000000000000000e00000000000000000000000000000000000000000000000000000000000000002000000000000000000000000380275805876ff19055ea900cdb2b46a94ecf20d000000000000000000000000589dedbd617e0cbcb916a9223f4d1300c294236b0000000000000000000000000000000000000000000000000000000000000000000000000000000000000000000000000000000000000000000000000000000200000000000000000000000000000000000000000000000000002c45f8f59e5900000000000000000000000000000000000000000000000000002c45f8f59e59",
          "blockHash": "0x8ea5b26ff0b7b4f65d0dbbce98673f22f2a36741885cfd3d82577afda7b91e9a",
          "blockNumber": "0x13402e9",
          "transactionHash": "0xb6ffffe4ace6c0decfc02c609b6bd9ffa9b6bae84cb5b68b1dfd4eec578a03d4",
          "transactionIndex": "0x6b",
          "logIndex": "0x16a",
          "removed": false
        },
        {
          "address": "0x1a44076050125825900e736c501f859c50fe728c",
          "topics": [
            "0x1ab700d4ced0c005b164c0f789fd09fcbb0156d4c2041b8a3bfbcd961cd1567f"
          ],
          "data": "0x00000000000000000000000000000000000000000000000000000000000000600000000000000000000000000000000000000000000000000000000000000120000000000000000000000000bb2ea70c9e858123480642cf96acbcce1372dce10000000000000000000000000000000000000000000000000000000000000099010000000000000035000075950000000000000000000000001f55a02a049033e3419a8e2975cf3f572f4e6e9a000076230000000000000000000000001f55a02a049033e3419a8e2975cf3f572f4e6e9a84f9e8dfdc5d7bc21cc58331ccdf6f7f2dce8bc97d918034ec6141be8380e3fe000000000000000000000000b0e1650a9760e0f383174af042091fc544b8356f00000000000003e800000000000000000000000000000000000000000000000000000000000000000000000000001600030100110100000000000000000000000000030d4000000000000000000000",
          "blockHash": "0x8ea5b26ff0b7b4f65d0dbbce98673f22f2a36741885cfd3d82577afda7b91e9a",
          "blockNumber": "0x13402e9",
          "transactionHash": "0xb6ffffe4ace6c0decfc02c609b6bd9ffa9b6bae84cb5b68b1dfd4eec578a03d4",
          "transactionIndex": "0x6b",
          "logIndex": "0x16b",
          "removed": false
        },
        {
          "address": "0x1f55a02a049033e3419a8e2975cf3f572f4e6e9a",
          "topics": [
            "0x85496b760a4b7f8d66384b9df21b381f5d1b1e79f229a47aaf4c232edc2fe59a",
            "0x84f9e8dfdc5d7bc21cc58331ccdf6f7f2dce8bc97d918034ec6141be8380e3fe",
            "0x000000000000000000000000b0e1650a9760e0f383174af042091fc544b8356f"
          ],
          "data": "0x000000000000000000000000000000000000000000000000000000000000762300000000000000000000000000000000000000000000000000038d7ea4c6800000000000000000000000000000000000000000000000000000038d7ea4c68000",
          "blockHash": "0x8ea5b26ff0b7b4f65d0dbbce98673f22f2a36741885cfd3d82577afda7b91e9a",
          "blockNumber": "0x13402e9",
          "transactionHash": "0xb6ffffe4ace6c0decfc02c609b6bd9ffa9b6bae84cb5b68b1dfd4eec578a03d4",
          "transactionIndex": "0x6b",
          "logIndex": "0x16c",
          "removed": false
        }
      ],
      "logsBloom": "0x00000000100000400000000000000000000000000000000000000000001000200400000000000000200000000000000000000000000000000000000000000000000002000000000000000008001008000000200000000000000000000000000000000000000008008000000000000000000000000110080000800010000000000000000000000010001000080000000000000000000000000000000000000000000000008000000000100000000000000000000000400100000440000000000000000002000000000000000080000000000000000000000000000000000000000000044090000000000000000000002000000000018000000000000000000000",
      "type": "0x2",
      "transactionHash": "0xb6ffffe4ace6c0decfc02c609b6bd9ffa9b6bae84cb5b68b1dfd4eec578a03d4",
      "transactionIndex": "0x6b",
      "blockHash": "0x8ea5b26ff0b7b4f65d0dbbce98673f22f2a36741885cfd3d82577afda7b91e9a",
      "blockNumber": "0x13402e9",
      "gasUsed": "0x43e36",
      "effectiveGasPrice": "0x12781949b",
      "from": "0xb0e1650a9760e0f383174af042091fc544b8356f",
      "to": "0x1f55a02a049033e3419a8e2975cf3f572f4e6e9a",
      "contractAddress": null
    },
    {
      "status": "0x1",
      "cumulativeGasUsed": "0x51d343",
      "logs": [
        {
          "address": "0x853d955acef822db058eb8505911ed77f175b99e",
          "topics": [
            "0xddf252ad1be2c89b69c2b068fc378daa952ba7f163c4a11628f55a4df523b3ef",
            "0x000000000000000000000000b0e1650a9760e0f383174af042091fc544b8356f",
            "0x000000000000000000000000909dbde1ebe906af95660033e478d59efe831fed"
          ],
          "data": "0x00000000000000000000000000000000000000000000000000038d7ea4c68000",
          "blockHash": "0xb31b887c426bd5712ba78844fdbc9bab97ddfa1b6bf4ea675c0e5731a07d3c6d",
          "blockNumber": "0x13402ea",
          "transactionHash": "0xcebe68be78e1f8fa3bdcefbb0732781e034836207c7617e1b3bfe45ef00827f2",
          "transactionIndex": "0x27",
          "logIndex": "0xb1",
          "removed": false
        },
        {
          "address": "0x853d955acef822db058eb8505911ed77f175b99e",
          "topics": [
            "0x8c5be1e5ebec7d5bd14f71427d1e84f3dd0314c0f7b2291e5b200ac8c7c3b925",
            "0x000000000000000000000000b0e1650a9760e0f383174af042091fc544b8356f",
            "0x000000000000000000000000909dbde1ebe906af95660033e478d59efe831fed"
          ],
          "data": "0x0000000000000000000000000000000000000000000000006ad7fcc26d414000",
          "blockHash": "0xb31b887c426bd5712ba78844fdbc9bab97ddfa1b6bf4ea675c0e5731a07d3c6d",
          "blockNumber": "0x13402ea",
          "transactionHash": "0xcebe68be78e1f8fa3bdcefbb0732781e034836207c7617e1b3bfe45ef00827f2",
          "transactionIndex": "0x27",
          "logIndex": "0xb2",
          "removed": false
        },
        {
          "address": "0xbb2ea70c9e858123480642cf96acbcce1372dce1",
          "topics": [
            "0x61ed099e74a97a1d7f8bb0952a88ca8b7b8ebd00c126ea04671f92a81213318a"
          ],
          "data": "0x000000000000000000000000173272739bd7aa6e4e214714048a9fe69945305900000000000000000000000000000000000000000000000000009807fd2fa312",
          "blockHash": "0xb31b887c426bd5712ba78844fdbc9bab97ddfa1b6bf4ea675c0e5731a07d3c6d",
          "blockNumber": "0x13402ea",
          "transactionHash": "0xcebe68be78e1f8fa3bdcefbb0732781e034836207c7617e1b3bfe45ef00827f2",
          "transactionIndex": "0x27",
          "logIndex": "0xb3",
          "removed": false
        },
        {
          "address": "0xbb2ea70c9e858123480642cf96acbcce1372dce1",
          "topics": [
            "0x07ea52d82345d6e838192107d8fd7123d9c2ec8e916cd0aad13fd2b60db24644"
          ],
          "data": "0x000000000000000000000000000000000000000000000000000000000000006000000000000000000000000000000000000000000000000000000000000000c000000000000000000000000000000000000000000000000000000000000000e00000000000000000000000000000000000000000000000000000000000000002000000000000000000000000380275805876ff19055ea900cdb2b46a94ecf20d000000000000000000000000589dedbd617e0cbcb916a9223f4d1300c294236b0000000000000000000000000000000000000000000000000000000000000000000000000000000000000000000000000000000000000000000000000000000200000000000000000000000000000000000000000000000000002c45f8f59e5900000000000000000000000000000000000000000000000000002c45f8f59e59",
          "blockHash": "0xb31b887c426bd5712ba78844fdbc9bab97ddfa1b6bf4ea675c0e5731a07d3c6d",
          "blockNumber": "0x13402ea",
          "transactionHash": "0xcebe68be78e1f8fa3bdcefbb0732781e034836207c7617e1b3bfe45ef00827f2",
          "transactionIndex": "0x27",
          "logIndex": "0xb4",
          "removed": false
        },
        {
          "address": "0x1a44076050125825900e736c501f859c50fe728c",
          "topics": [
            "0x1ab700d4ced0c005b164c0f789fd09fcbb0156d4c2041b8a3bfbcd961cd1567f"
          ],
          "data": "0x00000000000000000000000000000000000000000000000000000000000000600000000000000000000000000000000000000000000000000000000000000120000000000000000000000000bb2ea70c9e858123480642cf96acbcce1372dce1000000000000000000000000000000000000000000000000000000000000009901000000000000000100007595000000000000000000000000909dbde1ebe906af95660033e478d59efe831fed00007623000000000000000000000000909dbde1ebe906af95660033e478d59efe831fed1a71a030b8ae17abc82812b41dc62a115ce3863338fc7835017a08c583ba2d34000000000000000000000000b0e1650a9760e0f383174af042091fc544b8356f00000000000003e800000000000000000000000000000000000000000000000000000000000000000000000000001600030100110100000000000000000000000000030d4000000000000000000000",
          "blockHash": "0xb31b887c426bd5712ba78844fdbc9bab97ddfa1b6bf4ea675c0e5731a07d3c6d",
          "blockNumber": "0x13402ea",
          "transactionHash": "0xcebe68be78e1f8fa3bdcefbb0732781e034836207c7617e1b3bfe45ef00827f2",
          "transactionIndex": "0x27",
          "logIndex": "0xb5",
          "removed": false
        },
        {
          "address": "0x909dbde1ebe906af95660033e478d59efe831fed",
          "topics": [
            "0x85496b760a4b7f8d66384b9df21b381f5d1b1e79f229a47aaf4c232edc2fe59a",
            "0x1a71a030b8ae17abc82812b41dc62a115ce3863338fc7835017a08c583ba2d34",
            "0x000000000000000000000000b0e1650a9760e0f383174af042091fc544b8356f"
          ],
          "data": "0x000000000000000000000000000000000000000000000000000000000000762300000000000000000000000000000000000000000000000000038d7ea4c6800000000000000000000000000000000000000000000000000000038d7ea4c68000",
          "blockHash": "0xb31b887c426bd5712ba78844fdbc9bab97ddfa1b6bf4ea675c0e5731a07d3c6d",
          "blockNumber": "0x13402ea",
          "transactionHash": "0xcebe68be78e1f8fa3bdcefbb0732781e034836207c7617e1b3bfe45ef00827f2",
          "transactionIndex": "0x27",
          "logIndex": "0xb6",
          "removed": false
        }
      ],
      "logsBloom": "0x00000000000000000001000002000000000000000000000000000000001000000400000000000000040000000000000000000000002000000000000001200000000002000000000000000008000000000000200000000000000000000000000000000000000000008002000000002000000000000110080000000010000000000000000000000000001040081000000000000000000000000000000000000000020000008000004000101000000000000000000000400000000440000020000000000002000000000000000080000000000000000000000000000000000000000010040080000000000000000000002000000000018000000000000000000000",
      "type": "0x2",
      "transactionHash": "0xcebe68be78e1f8fa3bdcefbb0732781e034836207c7617e1b3bfe45ef00827f2",
      "transactionIndex": "0x27",
      "blockHash": "0xb31b887c426bd5712ba78844fdbc9bab97ddfa1b6bf4ea675c0e5731a07d3c6d",
      "blockNumber": "0x13402ea",
      "gasUsed": "0x48a58",
      "effectiveGasPrice": "0x12b1ed8a8",
      "from": "0xb0e1650a9760e0f383174af042091fc544b8356f",
      "to": "0x909dbde1ebe906af95660033e478d59efe831fed",
      "contractAddress": null
    },
    {
      "status": "0x1",
      "cumulativeGasUsed": "0x8ba746",
      "logs": [
        {
          "address": "0x3432b6a60d23ca0dfca7761b7ab56459d9c964d0",
          "topics": [
            "0x3eaa1c4be29b4a4c60e00300b5a17a8ec6c982b5b0ad5870cc84ebdc3b24d68e",
            "0x000000000000000000000000b0e1650a9760e0f383174af042091fc544b8356f"
          ],
          "data": "0x00000000000000000000000000000000000000000000000305065c007e87c12d0000000000000000000000000000000000000000000000030502ce81d9c1412d",
          "blockHash": "0x9850dcf591ad2684553bd438ed1ca51d74096bf673ac274cb85348060162441d",
          "blockNumber": "0x13402eb",
          "transactionHash": "0x01383b9a49c64c4461d35a95d0b5b4ef0e6bd94ad7206070264ef944c6bce2d1",
          "transactionIndex": "0x49",
          "logIndex": "0x116",
          "removed": false
        },
        {
          "address": "0x3432b6a60d23ca0dfca7761b7ab56459d9c964d0",
          "topics": [
            "0x3eaa1c4be29b4a4c60e00300b5a17a8ec6c982b5b0ad5870cc84ebdc3b24d68e",
            "0x00000000000000000000000023432452b720c80553458496d4d9d7c5003280d0"
          ],
          "data": "0x0000000000000000000000000000000000000000000011bb425e95aecf15f0000000000000000000000000000000000000000000000011bb4262232d73dc7000",
          "blockHash": "0x9850dcf591ad2684553bd438ed1ca51d74096bf673ac274cb85348060162441d",
          "blockNumber": "0x13402eb",
          "transactionHash": "0x01383b9a49c64c4461d35a95d0b5b4ef0e6bd94ad7206070264ef944c6bce2d1",
          "transactionIndex": "0x49",
          "logIndex": "0x117",
          "removed": false
        },
        {
          "address": "0x3432b6a60d23ca0dfca7761b7ab56459d9c964d0",
          "topics": [
            "0xddf252ad1be2c89b69c2b068fc378daa952ba7f163c4a11628f55a4df523b3ef",
            "0x000000000000000000000000b0e1650a9760e0f383174af042091fc544b8356f",
            "0x00000000000000000000000023432452b720c80553458496d4d9d7c5003280d0"
          ],
          "data": "0x00000000000000000000000000000000000000000000000000038d7ea4c68000",
          "blockHash": "0x9850dcf591ad2684553bd438ed1ca51d74096bf673ac274cb85348060162441d",
          "blockNumber": "0x13402eb",
          "transactionHash": "0x01383b9a49c64c4461d35a95d0b5b4ef0e6bd94ad7206070264ef944c6bce2d1",
          "transactionIndex": "0x49",
          "logIndex": "0x118",
          "removed": false
        },
        {
          "address": "0x3432b6a60d23ca0dfca7761b7ab56459d9c964d0",
          "topics": [
            "0x8c5be1e5ebec7d5bd14f71427d1e84f3dd0314c0f7b2291e5b200ac8c7c3b925",
            "0x000000000000000000000000b0e1650a9760e0f383174af042091fc544b8356f",
            "0x00000000000000000000000023432452b720c80553458496d4d9d7c5003280d0"
          ],
          "data": "0xffffffffffffffffffffffffffffffffffffffffffffffffe00d4c3f3e92bfff",
          "blockHash": "0x9850dcf591ad2684553bd438ed1ca51d74096bf673ac274cb85348060162441d",
          "blockNumber": "0x13402eb",
          "transactionHash": "0x01383b9a49c64c4461d35a95d0b5b4ef0e6bd94ad7206070264ef944c6bce2d1",
          "transactionIndex": "0x49",
          "logIndex": "0x119",
          "removed": false
        },
        {
          "address": "0xbb2ea70c9e858123480642cf96acbcce1372dce1",
          "topics": [
            "0x61ed099e74a97a1d7f8bb0952a88ca8b7b8ebd00c126ea04671f92a81213318a"
          ],
          "data": "0x000000000000000000000000173272739bd7aa6e4e214714048a9fe69945305900000000000000000000000000000000000000000000000000003f27b5d73b90",
          "blockHash": "0x9850dcf591ad2684553bd438ed1ca51d74096bf673ac274cb85348060162441d",
          "blockNumber": "0x13402eb",
          "transactionHash": "0x01383b9a49c64c4461d35a95d0b5b4ef0e6bd94ad7206070264ef944c6bce2d1",
          "transactionIndex": "0x49",
          "logIndex": "0x11a",
          "removed": false
        },
        {
          "address": "0xbb2ea70c9e858123480642cf96acbcce1372dce1",
          "topics": [
            "0x07ea52d82345d6e838192107d8fd7123d9c2ec8e916cd0aad13fd2b60db24644"
          ],
          "data": "0x000000000000000000000000000000000000000000000000000000000000006000000000000000000000000000000000000000000000000000000000000000c000000000000000000000000000000000000000000000000000000000000000e00000000000000000000000000000000000000000000000000000000000000002000000000000000000000000380275805876ff19055ea900cdb2b46a94ecf20d000000000000000000000000589dedbd617e0cbcb916a9223f4d1300c294236b00000000000000000000000000000000000000000000000000000000000000000000000000000000000000000000000000000000000000000000000000000002000000000000000000000000000000000000000000000000000008134b5abaac000000000000000000000000000000000000000000000000000008134b5abaac",
          "blockHash": "0x9850dcf591ad2684553bd438ed1ca51d74096bf673ac274cb85348060162441d",
          "blockNumber": "0x13402eb",
          "transactionHash": "0x01383b9a49c64c4461d35a95d0b5b4ef0e6bd94ad7206070264ef944c6bce2d1",
          "transactionIndex": "0x49",
          "logIndex": "0x11b",
          "removed": false
        },
        {
          "address": "0x1a44076050125825900e736c501f859c50fe728c",
          "topics": [
            "0x1ab700d4ced0c005b164c0f789fd09fcbb0156d4c2041b8a3bfbcd961cd1567f"
          ],
          "data": "0x00000000000000000000000000000000000000000000000000000000000000600000000000000000000000000000000000000000000000000000000000000120000000000000000000000000bb2ea70c9e858123480642cf96acbcce1372dce100000000000000000000000000000000000000000000000000000000000000990100000000000000020000759500000000000000000000000023432452b720c80553458496d4d9d7c5003280d0000075c700000000000000000000000023432452b720c80553458496d4d9d7c5003280d06b2f2de82cbdec057c3be89b2de770b1a23fb7d2095de4839880d101e9aeaa55000000000000000000000000b0e1650a9760e0f383174af042091fc544b8356f00000000000003e800000000000000000000000000000000000000000000000000000000000000000000000000001600030100110100000000000000000000000000030d4000000000000000000000",
          "blockHash": "0x9850dcf591ad2684553bd438ed1ca51d74096bf673ac274cb85348060162441d",
          "blockNumber": "0x13402eb",
          "transactionHash": "0x01383b9a49c64c4461d35a95d0b5b4ef0e6bd94ad7206070264ef944c6bce2d1",
          "transactionIndex": "0x49",
          "logIndex": "0x11c",
          "removed": false
        },
        {
          "address": "0x23432452b720c80553458496d4d9d7c5003280d0",
          "topics": [
            "0x85496b760a4b7f8d66384b9df21b381f5d1b1e79f229a47aaf4c232edc2fe59a",
            "0x6b2f2de82cbdec057c3be89b2de770b1a23fb7d2095de4839880d101e9aeaa55",
            "0x000000000000000000000000b0e1650a9760e0f383174af042091fc544b8356f"
          ],
          "data": "0x00000000000000000000000000000000000000000000000000000000000075c700000000000000000000000000000000000000000000000000038d7ea4c6800000000000000000000000000000000000000000000000000000038d7ea4c68000",
          "blockHash": "0x9850dcf591ad2684553bd438ed1ca51d74096bf673ac274cb85348060162441d",
          "blockNumber": "0x13402eb",
          "transactionHash": "0x01383b9a49c64c4461d35a95d0b5b4ef0e6bd94ad7206070264ef944c6bce2d1",
          "transactionIndex": "0x49",
          "logIndex": "0x11d",
          "removed": false
        }
      ],
      "logsBloom": "0x00000000000000000000000000000000000000000000000000000000001000080400000100000000000000000800000000000000000000000000000000200000000002000000000000000008000000000000208000000000000002000000000000000000000000008000000000000000000000000110080000000010000000000000000000000000001000080000000000000000000020000000000000000000020000008000000000100000000000000000000000400000000540000000000000000402000000000000000080000000000000001000000000000000000000000010040080000000000000000000042000280000018000008000000000004000",
      "type": "0x2",
      "transactionHash": "0x01383b9a49c64c4461d35a95d0b5b4ef0e6bd94ad7206070264ef944c6bce2d1",
      "transactionIndex": "0x49",
      "blockHash": "0x9850dcf591ad2684553bd438ed1ca51d74096bf673ac274cb85348060162441d",
      "blockNumber": "0x13402eb",
      "gasUsed": "0x53473",
      "effectiveGasPrice": "0x124ef383b",
      "from": "0xb0e1650a9760e0f383174af042091fc544b8356f",
      "to": "0x23432452b720c80553458496d4d9d7c5003280d0",
      "contractAddress": null
    },
    {
      "status": "0x1",
      "cumulativeGasUsed": "0x7bb63d",
      "logs": [
        {
          "address": "0xa663b02cf0a4b149d2ad41910cb81e23e1c41c32",
          "topics": [
            "0xddf252ad1be2c89b69c2b068fc378daa952ba7f163c4a11628f55a4df523b3ef",
            "0x000000000000000000000000b0e1650a9760e0f383174af042091fc544b8356f",
            "0x000000000000000000000000e4796ccb6bb5de2290c417ac337f2b66ca2e770e"
          ],
          "data": "0x00000000000000000000000000000000000000000000000000038d7ea4c68000",
          "blockHash": "0x483bad02fc688c4fcce90b780f7efcc7347cf694f7c13216c948c8f21506d53b",
          "blockNumber": "0x13402ec",
          "transactionHash": "0xd03ed206c511e788d85408f8fe7da4b2f028c098f2755bf602fa8dfc8f9ecf7b",
          "transactionIndex": "0x45",
          "logIndex": "0xf3",
          "removed": false
        },
        {
          "address": "0xbb2ea70c9e858123480642cf96acbcce1372dce1",
          "topics": [
            "0x61ed099e74a97a1d7f8bb0952a88ca8b7b8ebd00c126ea04671f92a81213318a"
          ],
          "data": "0x000000000000000000000000173272739bd7aa6e4e214714048a9fe69945305900000000000000000000000000000000000000000000000000003f27b5d73b90",
          "blockHash": "0x483bad02fc688c4fcce90b780f7efcc7347cf694f7c13216c948c8f21506d53b",
          "blockNumber": "0x13402ec",
          "transactionHash": "0xd03ed206c511e788d85408f8fe7da4b2f028c098f2755bf602fa8dfc8f9ecf7b",
          "transactionIndex": "0x45",
          "logIndex": "0xf4",
          "removed": false
        },
        {
          "address": "0xbb2ea70c9e858123480642cf96acbcce1372dce1",
          "topics": [
            "0x07ea52d82345d6e838192107d8fd7123d9c2ec8e916cd0aad13fd2b60db24644"
          ],
          "data": "0x000000000000000000000000000000000000000000000000000000000000006000000000000000000000000000000000000000000000000000000000000000c000000000000000000000000000000000000000000000000000000000000000e00000000000000000000000000000000000000000000000000000000000000002000000000000000000000000380275805876ff19055ea900cdb2b46a94ecf20d000000000000000000000000589dedbd617e0cbcb916a9223f4d1300c294236b00000000000000000000000000000000000000000000000000000000000000000000000000000000000000000000000000000000000000000000000000000002000000000000000000000000000000000000000000000000000008134b5abaac000000000000000000000000000000000000000000000000000008134b5abaac",
          "blockHash": "0x483bad02fc688c4fcce90b780f7efcc7347cf694f7c13216c948c8f21506d53b",
          "blockNumber": "0x13402ec",
          "transactionHash": "0xd03ed206c511e788d85408f8fe7da4b2f028c098f2755bf602fa8dfc8f9ecf7b",
          "transactionIndex": "0x45",
          "logIndex": "0xf5",
          "removed": false
        },
        {
          "address": "0x1a44076050125825900e736c501f859c50fe728c",
          "topics": [
            "0x1ab700d4ced0c005b164c0f789fd09fcbb0156d4c2041b8a3bfbcd961cd1567f"
          ],
          "data": "0x00000000000000000000000000000000000000000000000000000000000000600000000000000000000000000000000000000000000000000000000000000120000000000000000000000000bb2ea70c9e858123480642cf96acbcce1372dce1000000000000000000000000000000000000000000000000000000000000009901000000000000000100007595000000000000000000000000e4796ccb6bb5de2290c417ac337f2b66ca2e770e000075c7000000000000000000000000e4796ccb6bb5de2290c417ac337f2b66ca2e770e656637586dcbda7b740db7e1226d201f86bcdc6c958a77dcf23f26a5007666fa000000000000000000000000b0e1650a9760e0f383174af042091fc544b8356f00000000000003e800000000000000000000000000000000000000000000000000000000000000000000000000001600030100110100000000000000000000000000030d4000000000000000000000",
          "blockHash": "0x483bad02fc688c4fcce90b780f7efcc7347cf694f7c13216c948c8f21506d53b",
          "blockNumber": "0x13402ec",
          "transactionHash": "0xd03ed206c511e788d85408f8fe7da4b2f028c098f2755bf602fa8dfc8f9ecf7b",
          "transactionIndex": "0x45",
          "logIndex": "0xf6",
          "removed": false
        },
        {
          "address": "0xe4796ccb6bb5de2290c417ac337f2b66ca2e770e",
          "topics": [
            "0x85496b760a4b7f8d66384b9df21b381f5d1b1e79f229a47aaf4c232edc2fe59a",
            "0x656637586dcbda7b740db7e1226d201f86bcdc6c958a77dcf23f26a5007666fa",
            "0x000000000000000000000000b0e1650a9760e0f383174af042091fc544b8356f"
          ],
          "data": "0x00000000000000000000000000000000000000000000000000000000000075c700000000000000000000000000000000000000000000000000038d7ea4c6800000000000000000000000000000000000000000000000000000038d7ea4c68000",
          "blockHash": "0x483bad02fc688c4fcce90b780f7efcc7347cf694f7c13216c948c8f21506d53b",
          "blockNumber": "0x13402ec",
          "transactionHash": "0xd03ed206c511e788d85408f8fe7da4b2f028c098f2755bf602fa8dfc8f9ecf7b",
          "transactionIndex": "0x45",
          "logIndex": "0xf7",
          "removed": false
        }
      ],
      "logsBloom": "0x00000000000000000000400000000000000000000000000000000000001000000400000000000000000000000000000000000000000000000000000000000000000402000400010000000808000000000004200000000000000000000000000000400000000000008000000000000000000000000110080000000010000000100000000000000000001000080000000000000000000000000000000000000000000000008000000000100000000000000000000000500000000440000000000000000002000000000000000081000000000000400000000000000000000000000000040080000000000000000000002000000000018000000000000000001000",
      "type": "0x2",
      "transactionHash": "0xd03ed206c511e788d85408f8fe7da4b2f028c098f2755bf602fa8dfc8f9ecf7b",
      "transactionIndex": "0x45",
      "blockHash": "0x483bad02fc688c4fcce90b780f7efcc7347cf694f7c13216c948c8f21506d53b",
      "blockNumber": "0x13402ec",
      "gasUsed": "0x46587",
      "effectiveGasPrice": "0x1215dc7a9",
      "from": "0xb0e1650a9760e0f383174af042091fc544b8356f",
      "to": "0xe4796ccb6bb5de2290c417ac337f2b66ca2e770e",
      "contractAddress": null
    },
    {
      "status": "0x1",
      "cumulativeGasUsed": "0x125e056",
      "logs": [
        {
          "address": "0xac3e018457b222d93114458476f3e3416abbe38f",
          "topics": [
            "0xddf252ad1be2c89b69c2b068fc378daa952ba7f163c4a11628f55a4df523b3ef",
            "0x000000000000000000000000b0e1650a9760e0f383174af042091fc544b8356f",
            "0x0000000000000000000000001f55a02a049033e3419a8e2975cf3f572f4e6e9a"
          ],
          "data": "0x00000000000000000000000000000000000000000000000000038d7ea4c68000",
          "blockHash": "0x6e33701f92c6ebea78a2b120e1b7ca1fdc73b1b7f486d18ada9ab7465f7dc70c",
          "blockNumber": "0x13402ee",
          "transactionHash": "0x91e9635fc2d79a52277149c066969f93152be08f7d56eac070e45337e395a032",
          "transactionIndex": "0x78",
          "logIndex": "0x325",
          "removed": false
        },
        {
          "address": "0xbb2ea70c9e858123480642cf96acbcce1372dce1",
          "topics": [
            "0x61ed099e74a97a1d7f8bb0952a88ca8b7b8ebd00c126ea04671f92a81213318a"
          ],
          "data": "0x000000000000000000000000173272739bd7aa6e4e214714048a9fe69945305900000000000000000000000000000000000000000000000000003f27b5d73b90",
          "blockHash": "0x6e33701f92c6ebea78a2b120e1b7ca1fdc73b1b7f486d18ada9ab7465f7dc70c",
          "blockNumber": "0x13402ee",
          "transactionHash": "0x91e9635fc2d79a52277149c066969f93152be08f7d56eac070e45337e395a032",
          "transactionIndex": "0x78",
          "logIndex": "0x326",
          "removed": false
        },
        {
          "address": "0xbb2ea70c9e858123480642cf96acbcce1372dce1",
          "topics": [
            "0x07ea52d82345d6e838192107d8fd7123d9c2ec8e916cd0aad13fd2b60db24644"
          ],
          "data": "0x000000000000000000000000000000000000000000000000000000000000006000000000000000000000000000000000000000000000000000000000000000c000000000000000000000000000000000000000000000000000000000000000e00000000000000000000000000000000000000000000000000000000000000002000000000000000000000000380275805876ff19055ea900cdb2b46a94ecf20d000000000000000000000000589dedbd617e0cbcb916a9223f4d1300c294236b00000000000000000000000000000000000000000000000000000000000000000000000000000000000000000000000000000000000000000000000000000002000000000000000000000000000000000000000000000000000008134b5abaac000000000000000000000000000000000000000000000000000008134b5abaac",
          "blockHash": "0x6e33701f92c6ebea78a2b120e1b7ca1fdc73b1b7f486d18ada9ab7465f7dc70c",
          "blockNumber": "0x13402ee",
          "transactionHash": "0x91e9635fc2d79a52277149c066969f93152be08f7d56eac070e45337e395a032",
          "transactionIndex": "0x78",
          "logIndex": "0x327",
          "removed": false
        },
        {
          "address": "0x1a44076050125825900e736c501f859c50fe728c",
          "topics": [
            "0x1ab700d4ced0c005b164c0f789fd09fcbb0156d4c2041b8a3bfbcd961cd1567f"
          ],
          "data": "0x00000000000000000000000000000000000000000000000000000000000000600000000000000000000000000000000000000000000000000000000000000120000000000000000000000000bb2ea70c9e858123480642cf96acbcce1372dce10000000000000000000000000000000000000000000000000000000000000099010000000000000016000075950000000000000000000000001f55a02a049033e3419a8e2975cf3f572f4e6e9a000075c70000000000000000000000001f55a02a049033e3419a8e2975cf3f572f4e6e9a5a9c475c470b48c94c7e45f9877183127e860bc403e4a94981bbcd9930dac8a0000000000000000000000000b0e1650a9760e0f383174af042091fc544b8356f00000000000003e800000000000000000000000000000000000000000000000000000000000000000000000000001600030100110100000000000000000000000000030d4000000000000000000000",
          "blockHash": "0x6e33701f92c6ebea78a2b120e1b7ca1fdc73b1b7f486d18ada9ab7465f7dc70c",
          "blockNumber": "0x13402ee",
          "transactionHash": "0x91e9635fc2d79a52277149c066969f93152be08f7d56eac070e45337e395a032",
          "transactionIndex": "0x78",
          "logIndex": "0x328",
          "removed": false
        },
        {
          "address": "0x1f55a02a049033e3419a8e2975cf3f572f4e6e9a",
          "topics": [
            "0x85496b760a4b7f8d66384b9df21b381f5d1b1e79f229a47aaf4c232edc2fe59a",
            "0x5a9c475c470b48c94c7e45f9877183127e860bc403e4a94981bbcd9930dac8a0",
            "0x000000000000000000000000b0e1650a9760e0f383174af042091fc544b8356f"
          ],
          "data": "0x00000000000000000000000000000000000000000000000000000000000075c700000000000000000000000000000000000000000000000000038d7ea4c6800000000000000000000000000000000000000000000000000000038d7ea4c68000",
          "blockHash": "0x6e33701f92c6ebea78a2b120e1b7ca1fdc73b1b7f486d18ada9ab7465f7dc70c",
          "blockNumber": "0x13402ee",
          "transactionHash": "0x91e9635fc2d79a52277149c066969f93152be08f7d56eac070e45337e395a032",
          "transactionIndex": "0x78",
          "logIndex": "0x329",
          "removed": false
        }
      ],
      "logsBloom": "0x00000000100000400000000000000000000000000000000000000000001000200400000000000000200000000000000000000000000000000000000000000000000002000000000000000008000408000000200000000000000000000000000000000000000008008000000000000000000000000110880000000010000000000000000000000011001000080000000000000000000000000000000000000000000000008000000000100000000000000000000000400100000440000000000000000002000000000000000080000000000000000000000000000000000000000000040090000000000000000000002000000000018000000000000000000000",
      "type": "0x2",
      "transactionHash": "0x91e9635fc2d79a52277149c066969f93152be08f7d56eac070e45337e395a032",
      "transactionIndex": "0x78",
      "blockHash": "0x6e33701f92c6ebea78a2b120e1b7ca1fdc73b1b7f486d18ada9ab7465f7dc70c",
      "blockNumber": "0x13402ee",
      "gasUsed": "0x4241e",
      "effectiveGasPrice": "0x10b6b10a8",
      "from": "0xb0e1650a9760e0f383174af042091fc544b8356f",
      "to": "0x1f55a02a049033e3419a8e2975cf3f572f4e6e9a",
      "contractAddress": null
    },
    {
      "status": "0x1",
      "cumulativeGasUsed": "0xc462ee",
      "logs": [
        {
          "address": "0x853d955acef822db058eb8505911ed77f175b99e",
          "topics": [
            "0xddf252ad1be2c89b69c2b068fc378daa952ba7f163c4a11628f55a4df523b3ef",
            "0x000000000000000000000000b0e1650a9760e0f383174af042091fc544b8356f",
            "0x000000000000000000000000909dbde1ebe906af95660033e478d59efe831fed"
          ],
          "data": "0x00000000000000000000000000000000000000000000000000038d7ea4c68000",
          "blockHash": "0x6056c54fc80347781b97f2c3b1030acb665e40b9d733287c9441eeb5af7ec935",
          "blockNumber": "0x13402ef",
          "transactionHash": "0xa66619527172afea9e73292f88ff56513166fcb518a4369009484caa56532477",
          "transactionIndex": "0x82",
          "logIndex": "0x16a",
          "removed": false
        },
        {
          "address": "0x853d955acef822db058eb8505911ed77f175b99e",
          "topics": [
            "0x8c5be1e5ebec7d5bd14f71427d1e84f3dd0314c0f7b2291e5b200ac8c7c3b925",
            "0x000000000000000000000000b0e1650a9760e0f383174af042091fc544b8356f",
            "0x000000000000000000000000909dbde1ebe906af95660033e478d59efe831fed"
          ],
          "data": "0x0000000000000000000000000000000000000000000000006ad46f43c87ac000",
          "blockHash": "0x6056c54fc80347781b97f2c3b1030acb665e40b9d733287c9441eeb5af7ec935",
          "blockNumber": "0x13402ef",
          "transactionHash": "0xa66619527172afea9e73292f88ff56513166fcb518a4369009484caa56532477",
          "transactionIndex": "0x82",
          "logIndex": "0x16b",
          "removed": false
        },
        {
          "address": "0xbb2ea70c9e858123480642cf96acbcce1372dce1",
          "topics": [
            "0x61ed099e74a97a1d7f8bb0952a88ca8b7b8ebd00c126ea04671f92a81213318a"
          ],
          "data": "0x000000000000000000000000173272739bd7aa6e4e214714048a9fe69945305900000000000000000000000000000000000000000000000000003f27b5d73b90",
          "blockHash": "0x6056c54fc80347781b97f2c3b1030acb665e40b9d733287c9441eeb5af7ec935",
          "blockNumber": "0x13402ef",
          "transactionHash": "0xa66619527172afea9e73292f88ff56513166fcb518a4369009484caa56532477",
          "transactionIndex": "0x82",
          "logIndex": "0x16c",
          "removed": false
        },
        {
          "address": "0xbb2ea70c9e858123480642cf96acbcce1372dce1",
          "topics": [
            "0x07ea52d82345d6e838192107d8fd7123d9c2ec8e916cd0aad13fd2b60db24644"
          ],
          "data": "0x000000000000000000000000000000000000000000000000000000000000006000000000000000000000000000000000000000000000000000000000000000c000000000000000000000000000000000000000000000000000000000000000e00000000000000000000000000000000000000000000000000000000000000002000000000000000000000000380275805876ff19055ea900cdb2b46a94ecf20d000000000000000000000000589dedbd617e0cbcb916a9223f4d1300c294236b00000000000000000000000000000000000000000000000000000000000000000000000000000000000000000000000000000000000000000000000000000002000000000000000000000000000000000000000000000000000008134b5abaac000000000000000000000000000000000000000000000000000008134b5abaac",
          "blockHash": "0x6056c54fc80347781b97f2c3b1030acb665e40b9d733287c9441eeb5af7ec935",
          "blockNumber": "0x13402ef",
          "transactionHash": "0xa66619527172afea9e73292f88ff56513166fcb518a4369009484caa56532477",
          "transactionIndex": "0x82",
          "logIndex": "0x16d",
          "removed": false
        },
        {
          "address": "0x1a44076050125825900e736c501f859c50fe728c",
          "topics": [
            "0x1ab700d4ced0c005b164c0f789fd09fcbb0156d4c2041b8a3bfbcd961cd1567f"
          ],
          "data": "0x00000000000000000000000000000000000000000000000000000000000000600000000000000000000000000000000000000000000000000000000000000120000000000000000000000000bb2ea70c9e858123480642cf96acbcce1372dce1000000000000000000000000000000000000000000000000000000000000009901000000000000000100007595000000000000000000000000909dbde1ebe906af95660033e478d59efe831fed000075c7000000000000000000000000909dbde1ebe906af95660033e478d59efe831fed43f95f4c551146d5c23ef48022dfded9c6a9017a5fb8918c833faabec7ffbab0000000000000000000000000b0e1650a9760e0f383174af042091fc544b8356f00000000000003e800000000000000000000000000000000000000000000000000000000000000000000000000001600030100110100000000000000000000000000030d4000000000000000000000",
          "blockHash": "0x6056c54fc80347781b97f2c3b1030acb665e40b9d733287c9441eeb5af7ec935",
          "blockNumber": "0x13402ef",
          "transactionHash": "0xa66619527172afea9e73292f88ff56513166fcb518a4369009484caa56532477",
          "transactionIndex": "0x82",
          "logIndex": "0x16e",
          "removed": false
        },
        {
          "address": "0x909dbde1ebe906af95660033e478d59efe831fed",
          "topics": [
            "0x85496b760a4b7f8d66384b9df21b381f5d1b1e79f229a47aaf4c232edc2fe59a",
            "0x43f95f4c551146d5c23ef48022dfded9c6a9017a5fb8918c833faabec7ffbab0",
            "0x000000000000000000000000b0e1650a9760e0f383174af042091fc544b8356f"
          ],
          "data": "0x00000000000000000000000000000000000000000000000000000000000075c700000000000000000000000000000000000000000000000000038d7ea4c6800000000000000000000000000000000000000000000000000000038d7ea4c68000",
          "blockHash": "0x6056c54fc80347781b97f2c3b1030acb665e40b9d733287c9441eeb5af7ec935",
          "blockNumber": "0x13402ef",
          "transactionHash": "0xa66619527172afea9e73292f88ff56513166fcb518a4369009484caa56532477",
          "transactionIndex": "0x82",
          "logIndex": "0x16f",
          "removed": false
        }
      ],
      "logsBloom": "0x00000000000000000001000002000000000000000000000000000000001000000400000000000000000000000000000000000000002000000000000000200000000002000000000000000008000000000000200000000000000000000000000000000000000000008002000000002000000000000110080000000010000000000000000000000000001040081000000000000000000000000000000000000000021000008000004000100000000002000000000000400000000440000020000000000002000000000000000080000000000000000000000000000000000000000010040080000000000000000000002000000000018080000000000000000000",
      "type": "0x2",
      "transactionHash": "0xa66619527172afea9e73292f88ff56513166fcb518a4369009484caa56532477",
      "transactionIndex": "0x82",
      "blockHash": "0x6056c54fc80347781b97f2c3b1030acb665e40b9d733287c9441eeb5af7ec935",
      "blockNumber": "0x13402ef",
      "gasUsed": "0x47040",
      "effectiveGasPrice": "0x12a46c79d",
      "from": "0xb0e1650a9760e0f383174af042091fc544b8356f",
      "to": "0x909dbde1ebe906af95660033e478d59efe831fed",
      "contractAddress": null
    }
  ],
  "libraries": [],
  "pending": [],
  "returns": {},
  "timestamp": 1719525249,
  "chain": 1,
  "commit": "8c3a4d2"
}