{
  "transactions": [
    {
      "hash": "0x08e839ca62224cf9ec2e0a40678aa3dafc1c2a8e0983a2f1471e994b15347a3c",
      "transactionType": "CALL",
      "contractName": null,
      "contractAddress": "0x23432452b720c80553458496d4d9d7c5003280d0",
      "function": "send((uint32,bytes32,uint256,uint256,bytes,bytes,bytes),(uint256,uint256),address)",
      "arguments": [
        "(30260, 0x000000000000000000000000b0e1650a9760e0f383174af042091fc544b8356f, 100000000000000, 100000000000000, 0x0003, 0x, 0x)",
        "(9307274903933, 0)",
        "0xb0E1650A9760e0f383174af042091fc544b8356f"
      ],
      "transaction": {
        "from": "0xb0e1650a9760e0f383174af042091fc544b8356f",
        "to": "0x23432452b720c80553458496d4d9d7c5003280d0",
        "gas": "0x78c93",
        "value": "0x87704d0817d",
        "input": "0xc7c7f5b300000000000000000000000000000000000000000000000000000000000000800000000000000000000000000000000000000000000000000000087704d0817d0000000000000000000000000000000000000000000000000000000000000000000000000000000000000000b0e1650a9760e0f383174af042091fc544b8356f0000000000000000000000000000000000000000000000000000000000007634000000000000000000000000b0e1650a9760e0f383174af042091fc544b8356f00000000000000000000000000000000000000000000000000005af3107a400000000000000000000000000000000000000000000000000000005af3107a400000000000000000000000000000000000000000000000000000000000000000e0000000000000000000000000000000000000000000000000000000000000012000000000000000000000000000000000000000000000000000000000000001400000000000000000000000000000000000000000000000000000000000000002000300000000000000000000000000000000000000000000000000000000000000000000000000000000000000000000000000000000000000000000000000000000000000000000000000000000000000000000000000000000000000000000",
        "nonce": "0x37",
        "chainId": "0x1"
      },
      "additionalContracts": [],
      "isFixedGasLimit": false
    },
    {
      "hash": "0x02ceb6dc46432877bf84c605d0387bcb6ed19f307f8e522a4ce1fc897d8f4cea",
      "transactionType": "CALL",
      "contractName": null,
      "contractAddress": "0xe4796ccb6bb5de2290c417ac337f2b66ca2e770e",
      "function": "send((uint32,bytes32,uint256,uint256,bytes,bytes,bytes),(uint256,uint256),address)",
      "arguments": [
        "(30260, 0x000000000000000000000000b0e1650a9760e0f383174af042091fc544b8356f, 100000000000000, 100000000000000, 0x0003, 0x, 0x)",
        "(9307274903933, 0)",
        "0xb0E1650A9760e0f383174af042091fc544b8356f"
      ],
      "transaction": {
        "from": "0xb0e1650a9760e0f383174af042091fc544b8356f",
        "to": "0xe4796ccb6bb5de2290c417ac337f2b66ca2e770e",
        "gas": "0x61280",
        "value": "0x87704d0817d",
        "input": "0xc7c7f5b300000000000000000000000000000000000000000000000000000000000000800000000000000000000000000000000000000000000000000000087704d0817d0000000000000000000000000000000000000000000000000000000000000000000000000000000000000000b0e1650a9760e0f383174af042091fc544b8356f0000000000000000000000000000000000000000000000000000000000007634000000000000000000000000b0e1650a9760e0f383174af042091fc544b8356f00000000000000000000000000000000000000000000000000005af3107a400000000000000000000000000000000000000000000000000000005af3107a400000000000000000000000000000000000000000000000000000000000000000e0000000000000000000000000000000000000000000000000000000000000012000000000000000000000000000000000000000000000000000000000000001400000000000000000000000000000000000000000000000000000000000000002000300000000000000000000000000000000000000000000000000000000000000000000000000000000000000000000000000000000000000000000000000000000000000000000000000000000000000000000000000000000000000000000",
        "nonce": "0x38",
        "chainId": "0x1"
      },
      "additionalContracts": [],
      "isFixedGasLimit": false
    },
    {
      "hash": "0x96937fda56069304cabdf123e61d4eef6aa90782047334ad4b4e1b800f09e530",
      "transactionType": "CALL",
      "contractName": null,
      "contractAddress": "0x1f55a02a049033e3419a8e2975cf3f572f4e6e9a",
      "function": "send((uint32,bytes32,uint256,uint256,bytes,bytes,bytes),(uint256,uint256),address)",
      "arguments": [
        "(30260, 0x000000000000000000000000b0e1650a9760e0f383174af042091fc544b8356f, 100000000000000, 100000000000000, 0x0003, 0x, 0x)",
        "(9307274903933, 0)",
        "0xb0E1650A9760e0f383174af042091fc544b8356f"
      ],
      "transaction": {
        "from": "0xb0e1650a9760e0f383174af042091fc544b8356f",
        "to": "0x1f55a02a049033e3419a8e2975cf3f572f4e6e9a",
        "gas": "0x66ff9",
        "value": "0x87704d0817d",
        "input": "0xc7c7f5b300000000000000000000000000000000000000000000000000000000000000800000000000000000000000000000000000000000000000000000087704d0817d0000000000000000000000000000000000000000000000000000000000000000000000000000000000000000b0e1650a9760e0f383174af042091fc544b8356f0000000000000000000000000000000000000000000000000000000000007634000000000000000000000000b0e1650a9760e0f383174af042091fc544b8356f00000000000000000000000000000000000000000000000000005af3107a400000000000000000000000000000000000000000000000000000005af3107a400000000000000000000000000000000000000000000000000000000000000000e0000000000000000000000000000000000000000000000000000000000000012000000000000000000000000000000000000000000000000000000000000001400000000000000000000000000000000000000000000000000000000000000002000300000000000000000000000000000000000000000000000000000000000000000000000000000000000000000000000000000000000000000000000000000000000000000000000000000000000000000000000000000000000000000000",
        "nonce": "0x39",
        "chainId": "0x1"
      },
      "additionalContracts": [],
      "isFixedGasLimit": false
    },
    {
      "hash": "0x74d3d98e2d10980e85adae8577f5085472b6a3e36d4da39478c5d4a3f2931390",
      "transactionType": "CALL",
      "contractName": null,
      "contractAddress": "0x909dbde1ebe906af95660033e478d59efe831fed",
      "function": "send((uint32,bytes32,uint256,uint256,bytes,bytes,bytes),(uint256,uint256),address)",
      "arguments": [
        "(30260, 0x000000000000000000000000b0e1650a9760e0f383174af042091fc544b8356f, 100000000000000, 100000000000000, 0x0003, 0x, 0x)",
        "(9307274903933, 0)",
        "0xb0E1650A9760e0f383174af042091fc544b8356f"
      ],
      "transaction": {
        "from": "0xb0e1650a9760e0f383174af042091fc544b8356f",
        "to": "0x909dbde1ebe906af95660033e478d59efe831fed",
        "gas": "0x5c50c",
        "value": "0x87704d0817d",
        "input": "0xc7c7f5b300000000000000000000000000000000000000000000000000000000000000800000000000000000000000000000000000000000000000000000087704d0817d0000000000000000000000000000000000000000000000000000000000000000000000000000000000000000b0e1650a9760e0f383174af042091fc544b8356f0000000000000000000000000000000000000000000000000000000000007634000000000000000000000000b0e1650a9760e0f383174af042091fc544b8356f00000000000000000000000000000000000000000000000000005af3107a400000000000000000000000000000000000000000000000000000005af3107a400000000000000000000000000000000000000000000000000000000000000000e0000000000000000000000000000000000000000000000000000000000000012000000000000000000000000000000000000000000000000000000000000001400000000000000000000000000000000000000000000000000000000000000002000300000000000000000000000000000000000000000000000000000000000000000000000000000000000000000000000000000000000000000000000000000000000000000000000000000000000000000000000000000000000000000000",
        "nonce": "0x3a",
        "chainId": "0x1"
      },
      "additionalContracts": [],
      "isFixedGasLimit": false
    }
  ],
  "receipts": [
    {
      "status": "0x1",
      "cumulativeGasUsed": "0xaa4e8b",
      "logs": [
        {
          "address": "0x3432b6a60d23ca0dfca7761b7ab56459d9c964d0",
          "topics": [
            "0x3eaa1c4be29b4a4c60e00300b5a17a8ec6c982b5b0ad5870cc84ebdc3b24d68e",
            "0x000000000000000000000000b0e1650a9760e0f383174af042091fc544b8356f"
          ],
          "data": "0x000000000000000000000000000000000000000000000003050a3a7110b0d12d0000000000000000000000000000000000000000000000030509df7e0036912d",
          "blockHash": "0x5c56073d311e0a691bfc6cc3d84bef1cdce5fb04b28a369edd5ee6091f317247",
          "blockNumber": "0x1340274",
          "transactionHash": "0x08e839ca62224cf9ec2e0a40678aa3dafc1c2a8e0983a2f1471e994b15347a3c",
          "transactionIndex": "0x7a",
          "logIndex": "0xfa",
          "removed": false
        },
        {
          "address": "0x3432b6a60d23ca0dfca7761b7ab56459d9c964d0",
          "topics": [
            "0x3eaa1c4be29b4a4c60e00300b5a17a8ec6c982b5b0ad5870cc84ebdc3b24d68e",
            "0x00000000000000000000000023432452b720c80553458496d4d9d7c5003280d0"
          ],
          "data": "0x0000000000000000000000000000000000000000000011bb425ab73e3cece0000000000000000000000000000000000000000000000011bb425b12314d672000",
          "blockHash": "0x5c56073d311e0a691bfc6cc3d84bef1cdce5fb04b28a369edd5ee6091f317247",
          "blockNumber": "0x1340274",
          "transactionHash": "0x08e839ca62224cf9ec2e0a40678aa3dafc1c2a8e0983a2f1471e994b15347a3c",
          "transactionIndex": "0x7a",
          "logIndex": "0xfb",
          "removed": false
        },
        {
          "address": "0x3432b6a60d23ca0dfca7761b7ab56459d9c964d0",
          "topics": [
            "0xddf252ad1be2c89b69c2b068fc378daa952ba7f163c4a11628f55a4df523b3ef",
            "0x000000000000000000000000b0e1650a9760e0f383174af042091fc544b8356f",
            "0x00000000000000000000000023432452b720c80553458496d4d9d7c5003280d0"
          ],
          "data": "0x00000000000000000000000000000000000000000000000000005af3107a4000",
          "blockHash": "0x5c56073d311e0a691bfc6cc3d84bef1cdce5fb04b28a369edd5ee6091f317247",
          "blockNumber": "0x1340274",
          "transactionHash": "0x08e839ca62224cf9ec2e0a40678aa3dafc1c2a8e0983a2f1471e994b15347a3c",
          "transactionIndex": "0x7a",
          "logIndex": "0xfc",
          "removed": false
        },
        {
          "address": "0x3432b6a60d23ca0dfca7761b7ab56459d9c964d0",
          "topics": [
            "0x8c5be1e5ebec7d5bd14f71427d1e84f3dd0314c0f7b2291e5b200ac8c7c3b925",
            "0x000000000000000000000000b0e1650a9760e0f383174af042091fc544b8356f",
            "0x00000000000000000000000023432452b720c80553458496d4d9d7c5003280d0"
          ],
          "data": "0xffffffffffffffffffffffffffffffffffffffffffffffffe014673c881fbfff",
          "blockHash": "0x5c56073d311e0a691bfc6cc3d84bef1cdce5fb04b28a369edd5ee6091f317247",
          "blockNumber": "0x1340274",
          "transactionHash": "0x08e839ca62224cf9ec2e0a40678aa3dafc1c2a8e0983a2f1471e994b15347a3c",
          "transactionIndex": "0x7a",
          "logIndex": "0xfd",
          "removed": false
        },
        {
          "address": "0xbb2ea70c9e858123480642cf96acbcce1372dce1",
          "topics": [
            "0x61ed099e74a97a1d7f8bb0952a88ca8b7b8ebd00c126ea04671f92a81213318a"
          ],
          "data": "0x000000000000000000000000173272739bd7aa6e4e214714048a9fe6994530590000000000000000000000000000000000000000000000000000082a2805899d",
          "blockHash": "0x5c56073d311e0a691bfc6cc3d84bef1cdce5fb04b28a369edd5ee6091f317247",
          "blockNumber": "0x1340274",
          "transactionHash": "0x08e839ca62224cf9ec2e0a40678aa3dafc1c2a8e0983a2f1471e994b15347a3c",
          "transactionIndex": "0x7a",
          "logIndex": "0xfe",
          "removed": false
        },
        {
          "address": "0xbb2ea70c9e858123480642cf96acbcce1372dce1",
          "topics": [
            "0x07ea52d82345d6e838192107d8fd7123d9c2ec8e916cd0aad13fd2b60db24644"
          ],
          "data": "0x000000000000000000000000000000000000000000000000000000000000006000000000000000000000000000000000000000000000000000000000000000c000000000000000000000000000000000000000000000000000000000000000e00000000000000000000000000000000000000000000000000000000000000002000000000000000000000000380275805876ff19055ea900cdb2b46a94ecf20d000000000000000000000000589dedbd617e0cbcb916a9223f4d1300c294236b00000000000000000000000000000000000000000000000000000000000000000000000000000000000000000000000000000000000000000000000000000002000000000000000000000000000000000000000000000000000000266e657bf0000000000000000000000000000000000000000000000000000000266e657bf0",
          "blockHash": "0x5c56073d311e0a691bfc6cc3d84bef1cdce5fb04b28a369edd5ee6091f317247",
          "blockNumber": "0x1340274",
          "transactionHash": "0x08e839ca62224cf9ec2e0a40678aa3dafc1c2a8e0983a2f1471e994b15347a3c",
          "transactionIndex": "0x7a",
          "logIndex": "0xff",
          "removed": false
        },
        {
          "address": "0x1a44076050125825900e736c501f859c50fe728c",
          "topics": [
            "0x1ab700d4ced0c005b164c0f789fd09fcbb0156d4c2041b8a3bfbcd961cd1567f"
          ],
          "data": "0x00000000000000000000000000000000000000000000000000000000000000600000000000000000000000000000000000000000000000000000000000000120000000000000000000000000bb2ea70c9e858123480642cf96acbcce1372dce100000000000000000000000000000000000000000000000000000000000000990100000000000000010000759500000000000000000000000023432452b720c80553458496d4d9d7c5003280d00000763400000000000000000000000064445f0aecc51e94ad52d8ac56b7190e764e561ac23d5255a57777347b6d62495c3d7fdcee0a3a33452d424b6571c60ba910f9ee000000000000000000000000b0e1650a9760e0f383174af042091fc544b8356f000000000000006400000000000000000000000000000000000000000000000000000000000000000000000000001600030100110100000000000000000000000000030d4000000000000000000000",
          "blockHash": "0x5c56073d311e0a691bfc6cc3d84bef1cdce5fb04b28a369edd5ee6091f317247",
          "blockNumber": "0x1340274",
          "transactionHash": "0x08e839ca62224cf9ec2e0a40678aa3dafc1c2a8e0983a2f1471e994b15347a3c",
          "transactionIndex": "0x7a",
          "logIndex": "0x100",
          "removed": false
        },
        {
          "address": "0x23432452b720c80553458496d4d9d7c5003280d0",
          "topics": [
            "0x85496b760a4b7f8d66384b9df21b381f5d1b1e79f229a47aaf4c232edc2fe59a",
            "0xc23d5255a57777347b6d62495c3d7fdcee0a3a33452d424b6571c60ba910f9ee",
            "0x000000000000000000000000b0e1650a9760e0f383174af042091fc544b8356f"
          ],
          "data": "0x000000000000000000000000000000000000000000000000000000000000763400000000000000000000000000000000000000000000000000005af3107a400000000000000000000000000000000000000000000000000000005af3107a4000",
          "blockHash": "0x5c56073d311e0a691bfc6cc3d84bef1cdce5fb04b28a369edd5ee6091f317247",
          "blockNumber": "0x1340274",
          "transactionHash": "0x08e839ca62224cf9ec2e0a40678aa3dafc1c2a8e0983a2f1471e994b15347a3c",
          "transactionIndex": "0x7a",
          "logIndex": "0x101",
          "removed": false
        }
      ],
      "logsBloom": "0x00000000000000000000000000000000008000000000000000080000001000000400000100000000000000000800000000000000000000000000000000200000000002000000000000000008000000000000208000000000000002000000000000000000000000008000000000000000000000000110080000000010000000000000000000000000001000080000000000000000000020000000000000000000020000008000000000100000000000000000000000400000000540000000000000000002000000001000000080000000000000001000000000000000000000000010040080000000000000000000042000280000018000008000000000004000",
      "type": "0x2",
      "transactionHash": "0x08e839ca62224cf9ec2e0a40678aa3dafc1c2a8e0983a2f1471e994b15347a3c",
      "transactionIndex": "0x7a",
      "blockHash": "0x5c56073d311e0a691bfc6cc3d84bef1cdce5fb04b28a369edd5ee6091f317247",
      "blockNumber": "0x1340274",
      "gasUsed": "0x57727",
      "effectiveGasPrice": "0x133b9fd03",
      "from": "0xb0e1650a9760e0f383174af042091fc544b8356f",
      "to": "0x23432452b720c80553458496d4d9d7c5003280d0",
      "contractAddress": null
    },
    {
      "status": "0x1",
      "cumulativeGasUsed": "0xf9d51e",
      "logs": [
        {
          "address": "0xa663b02cf0a4b149d2ad41910cb81e23e1c41c32",
          "topics": [
            "0xddf252ad1be2c89b69c2b068fc378daa952ba7f163c4a11628f55a4df523b3ef",
            "0x000000000000000000000000b0e1650a9760e0f383174af042091fc544b8356f",
            "0x000000000000000000000000e4796ccb6bb5de2290c417ac337f2b66ca2e770e"
          ],
          "data": "0x00000000000000000000000000000000000000000000000000005af3107a4000",
          "blockHash": "0xccb768b169c8a8e3a4aa795f3ccec44c85b471c659b34066867df890d5e95ef5",
          "blockNumber": "0x1340277",
          "transactionHash": "0x02ceb6dc46432877bf84c605d0387bcb6ed19f307f8e522a4ce1fc897d8f4cea",
          "transactionIndex": "0x96",
          "logIndex": "0x1d1",
          "removed": false
        },
        {
          "address": "0xbb2ea70c9e858123480642cf96acbcce1372dce1",
          "topics": [
            "0x61ed099e74a97a1d7f8bb0952a88ca8b7b8ebd00c126ea04671f92a81213318a"
          ],
          "data": "0x000000000000000000000000173272739bd7aa6e4e214714048a9fe6994530590000000000000000000000000000000000000000000000000000082a2805899d",
          "blockHash": "0xccb768b169c8a8e3a4aa795f3ccec44c85b471c659b34066867df890d5e95ef5",
          "blockNumber": "0x1340277",
          "transactionHash": "0x02ceb6dc46432877bf84c605d0387bcb6ed19f307f8e522a4ce1fc897d8f4cea",
          "transactionIndex": "0x96",
          "logIndex": "0x1d2",
          "removed": false
        },
        {
          "address": "0xbb2ea70c9e858123480642cf96acbcce1372dce1",
          "topics": [
            "0x07ea52d82345d6e838192107d8fd7123d9c2ec8e916cd0aad13fd2b60db24644"
          ],
          "data": "0x000000000000000000000000000000000000000000000000000000000000006000000000000000000000000000000000000000000000000000000000000000c000000000000000000000000000000000000000000000000000000000000000e00000000000000000000000000000000000000000000000000000000000000002000000000000000000000000380275805876ff19055ea900cdb2b46a94ecf20d000000000000000000000000589dedbd617e0cbcb916a9223f4d1300c294236b00000000000000000000000000000000000000000000000000000000000000000000000000000000000000000000000000000000000000000000000000000002000000000000000000000000000000000000000000000000000000266e657bf0000000000000000000000000000000000000000000000000000000266e657bf0",
          "blockHash": "0xccb768b169c8a8e3a4aa795f3ccec44c85b471c659b34066867df890d5e95ef5",
          "blockNumber": "0x1340277",
          "transactionHash": "0x02ceb6dc46432877bf84c605d0387bcb6ed19f307f8e522a4ce1fc897d8f4cea",
          "transactionIndex": "0x96",
          "logIndex": "0x1d3",
          "removed": false
        },
        {
          "address": "0x1a44076050125825900e736c501f859c50fe728c",
          "topics": [
            "0x1ab700d4ced0c005b164c0f789fd09fcbb0156d4c2041b8a3bfbcd961cd1567f"
          ],
          "data": "0x00000000000000000000000000000000000000000000000000000000000000600000000000000000000000000000000000000000000000000000000000000120000000000000000000000000bb2ea70c9e858123480642cf96acbcce1372dce1000000000000000000000000000000000000000000000000000000000000009901000000000000000100007595000000000000000000000000e4796ccb6bb5de2290c417ac337f2b66ca2e770e000076340000000000000000000000005bff88ca1442c2496f7e475e9e7786383bc070c04d871ee13ebf836ad4277d3dd2b24b9f59f8e5ea88b1cca69e94c2cb03c69064000000000000000000000000b0e1650a9760e0f383174af042091fc544b8356f000000000000006400000000000000000000000000000000000000000000000000000000000000000000000000001600030100110100000000000000000000000000030d4000000000000000000000",
          "blockHash": "0xccb768b169c8a8e3a4aa795f3ccec44c85b471c659b34066867df890d5e95ef5",
          "blockNumber": "0x1340277",
          "transactionHash": "0x02ceb6dc46432877bf84c605d0387bcb6ed19f307f8e522a4ce1fc897d8f4cea",
          "transactionIndex": "0x96",
          "logIndex": "0x1d4",
          "removed": false
        },
        {
          "address": "0xe4796ccb6bb5de2290c417ac337f2b66ca2e770e",
          "topics": [
            "0x85496b760a4b7f8d66384b9df21b381f5d1b1e79f229a47aaf4c232edc2fe59a",
            "0x4d871ee13ebf836ad4277d3dd2b24b9f59f8e5ea88b1cca69e94c2cb03c69064",
            "0x000000000000000000000000b0e1650a9760e0f383174af042091fc544b8356f"
          ],
          "data": "0x000000000000000000000000000000000000000000000000000000000000763400000000000000000000000000000000000000000000000000005af3107a400000000000000000000000000000000000000000000000000000005af3107a4000",
          "blockHash": "0xccb768b169c8a8e3a4aa795f3ccec44c85b471c659b34066867df890d5e95ef5",
          "blockNumber": "0x1340277",
          "transactionHash": "0x02ceb6dc46432877bf84c605d0387bcb6ed19f307f8e522a4ce1fc897d8f4cea",
          "transactionIndex": "0x96",
          "logIndex": "0x1d5",
          "removed": false
        }
      ],
      "logsBloom": "0x00000000000000000000400000000000000000000000000000000000001000000400000000000000000000000000000000000000000000000000000000000000000402002000010000000008000000000004200000000000000000000000000000400000000000008000000002000000000000000110080000000010000000100000000000000000001000080000000000000000000000000000000000000000000000008000000000100000000000000000004000400000000440000000000000000002000000000000000081000000000000400000000000000000000000000000040080000000000000000000002000000000018000000000000000001000",
      "type": "0x2",
      "transactionHash": "0x02ceb6dc46432877bf84c605d0387bcb6ed19f307f8e522a4ce1fc897d8f4cea",
      "transactionIndex": "0x96",
      "blockHash": "0xccb768b169c8a8e3a4aa795f3ccec44c85b471c659b34066867df890d5e95ef5",
      "blockNumber": "0x1340277",
      "gasUsed": "0x4656f",
      "effectiveGasPrice": "0x1178f224b",
      "from": "0xb0e1650a9760e0f383174af042091fc544b8356f",
      "to": "0xe4796ccb6bb5de2290c417ac337f2b66ca2e770e",
      "contractAddress": null
    },
    {
      "status": "0x1",
      "cumulativeGasUsed": "0x9fc3d5",
      "logs": [
        {
          "address": "0xac3e018457b222d93114458476f3e3416abbe38f",
          "topics": [
            "0xddf252ad1be2c89b69c2b068fc378daa952ba7f163c4a11628f55a4df523b3ef",
            "0x000000000000000000000000b0e1650a9760e0f383174af042091fc544b8356f",
            "0x0000000000000000000000001f55a02a049033e3419a8e2975cf3f572f4e6e9a"
          ],
          "data": "0x00000000000000000000000000000000000000000000000000005af3107a4000",
          "blockHash": "0xfecef7268e21df879518f0c05f48ce66df0ba60d066d17587e15836780f8adb1",
          "blockNumber": "0x134027a",
          "transactionHash": "0x96937fda56069304cabdf123e61d4eef6aa90782047334ad4b4e1b800f09e530",
          "transactionIndex": "0x5a",
          "logIndex": "0x13d",
          "removed": false
        },
        {
          "address": "0xbb2ea70c9e858123480642cf96acbcce1372dce1",
          "topics": [
            "0x61ed099e74a97a1d7f8bb0952a88ca8b7b8ebd00c126ea04671f92a81213318a"
          ],
          "data": "0x000000000000000000000000173272739bd7aa6e4e214714048a9fe6994530590000000000000000000000000000000000000000000000000000082a2805899d",
          "blockHash": "0xfecef7268e21df879518f0c05f48ce66df0ba60d066d17587e15836780f8adb1",
          "blockNumber": "0x134027a",
          "transactionHash": "0x96937fda56069304cabdf123e61d4eef6aa90782047334ad4b4e1b800f09e530",
          "transactionIndex": "0x5a",
          "logIndex": "0x13e",
          "removed": false
        },
        {
          "address": "0xbb2ea70c9e858123480642cf96acbcce1372dce1",
          "topics": [
            "0x07ea52d82345d6e838192107d8fd7123d9c2ec8e916cd0aad13fd2b60db24644"
          ],
          "data": "0x000000000000000000000000000000000000000000000000000000000000006000000000000000000000000000000000000000000000000000000000000000c000000000000000000000000000000000000000000000000000000000000000e00000000000000000000000000000000000000000000000000000000000000002000000000000000000000000380275805876ff19055ea900cdb2b46a94ecf20d000000000000000000000000589dedbd617e0cbcb916a9223f4d1300c294236b00000000000000000000000000000000000000000000000000000000000000000000000000000000000000000000000000000000000000000000000000000002000000000000000000000000000000000000000000000000000000266e657bf0000000000000000000000000000000000000000000000000000000266e657bf0",
          "blockHash": "0xfecef7268e21df879518f0c05f48ce66df0ba60d066d17587e15836780f8adb1",
          "blockNumber": "0x134027a",
          "transactionHash": "0x96937fda56069304cabdf123e61d4eef6aa90782047334ad4b4e1b800f09e530",
          "transactionIndex": "0x5a",
          "logIndex": "0x13f",
          "removed": false
        },
        {
          "address": "0x1a44076050125825900e736c501f859c50fe728c",
          "topics": [
            "0x1ab700d4ced0c005b164c0f789fd09fcbb0156d4c2041b8a3bfbcd961cd1567f"
          ],
          "data": "0x00000000000000000000000000000000000000000000000000000000000000600000000000000000000000000000000000000000000000000000000000000120000000000000000000000000bb2ea70c9e858123480642cf96acbcce1372dce10000000000000000000000000000000000000000000000000000000000000099010000000000000001000075950000000000000000000000001f55a02a049033e3419a8e2975cf3f572f4e6e9a000076340000000000000000000000003ec3849c33291a9ef4c5db86de593eb4a37fde4504f7f677fa809c9f4f78dc2adbdc05735c2d06636a4d29ec9c9f1316263f7541000000000000000000000000b0e1650a9760e0f383174af042091fc544b8356f000000000000006400000000000000000000000000000000000000000000000000000000000000000000000000001600030100110100000000000000000000000000030d4000000000000000000000",
          "blockHash": "0xfecef7268e21df879518f0c05f48ce66df0ba60d066d17587e15836780f8adb1",
          "blockNumber": "0x134027a",
          "transactionHash": "0x96937fda56069304cabdf123e61d4eef6aa90782047334ad4b4e1b800f09e530",
          "transactionIndex": "0x5a",
          "logIndex": "0x140",
          "removed": false
        },
        {
          "address": "0x1f55a02a049033e3419a8e2975cf3f572f4e6e9a",
          "topics": [
            "0x85496b760a4b7f8d66384b9df21b381f5d1b1e79f229a47aaf4c232edc2fe59a",
            "0x04f7f677fa809c9f4f78dc2adbdc05735c2d06636a4d29ec9c9f1316263f7541",
            "0x000000000000000000000000b0e1650a9760e0f383174af042091fc544b8356f"
          ],
          "data": "0x000000000000000000000000000000000000000000000000000000000000763400000000000000000000000000000000000000000000000000005af3107a400000000000000000000000000000000000000000000000000000005af3107a4000",
          "blockHash": "0xfecef7268e21df879518f0c05f48ce66df0ba60d066d17587e15836780f8adb1",
          "blockNumber": "0x134027a",
          "transactionHash": "0x96937fda56069304cabdf123e61d4eef6aa90782047334ad4b4e1b800f09e530",
          "transactionIndex": "0x5a",
          "logIndex": "0x141",
          "removed": false
        }
      ],
      "logsBloom": "0x00000000100000400000000000000000000000000000000000000000001000200400000000000000200000000000000000000000000000000000000000000000000002000000000000000008000008000000200000000000000000000000000000000400000008008000000000000000000000001110080000000010000000000000000000000010101000080000000000000000000000000000000000000000000000008000000000100000000000000000000000400100000440000000000000000002000000000000000080000000000000000000000000000000000000000000040090000000000000000000002000000000018000000000000000000000",
      "type": "0x2",
      "transactionHash": "0x96937fda56069304cabdf123e61d4eef6aa90782047334ad4b4e1b800f09e530",
      "transactionIndex": "0x5a",
      "blockHash": "0xfecef7268e21df879518f0c05f48ce66df0ba60d066d17587e15836780f8adb1",
      "blockNumber": "0x134027a",
      "gasUsed": "0x466d2",
      "effectiveGasPrice": "0x11f00c439",
      "from": "0xb0e1650a9760e0f383174af042091fc544b8356f",
      "to": "0x1f55a02a049033e3419a8e2975cf3f572f4e6e9a",
      "contractAddress": null
    },
    {
      "status": "0x1",
      "cumulativeGasUsed": "0x9162ec",
      "logs": [
        {
          "address": "0x853d955acef822db058eb8505911ed77f175b99e",
          "topics": [
            "0xddf252ad1be2c89b69c2b068fc378daa952ba7f163c4a11628f55a4df523b3ef",
            "0x000000000000000000000000b0e1650a9760e0f383174af042091fc544b8356f",
            "0x000000000000000000000000909dbde1ebe906af95660033e478d59efe831fed"
          ],
          "data": "0x00000000000000000000000000000000000000000000000000005af3107a4000",
          "blockHash": "0x19e4820e56c0278fe2978d2a74ff5f86817f17c7c4bea6922874573686eeba4b",
          "blockNumber": "0x134027b",
          "transactionHash": "0x74d3d98e2d10980e85adae8577f5085472b6a3e36d4da39478c5d4a3f2931390",
          "transactionIndex": "0x47",
          "logIndex": "0xcd",
          "removed": false
        },
        {
          "address": "0x853d955acef822db058eb8505911ed77f175b99e",
          "topics": [
            "0x8c5be1e5ebec7d5bd14f71427d1e84f3dd0314c0f7b2291e5b200ac8c7c3b925",
            "0x000000000000000000000000b0e1650a9760e0f383174af042091fc544b8356f",
            "0x000000000000000000000000909dbde1ebe906af95660033e478d59efe831fed"
          ],
          "data": "0x0000000000000000000000000000000000000000000000006adb8a411207c000",
          "blockHash": "0x19e4820e56c0278fe2978d2a74ff5f86817f17c7c4bea6922874573686eeba4b",
          "blockNumber": "0x134027b",
          "transactionHash": "0x74d3d98e2d10980e85adae8577f5085472b6a3e36d4da39478c5d4a3f2931390",
          "transactionIndex": "0x47",
          "logIndex": "0xce",
          "removed": false
        },
        {
          "address": "0xbb2ea70c9e858123480642cf96acbcce1372dce1",
          "topics": [
            "0x61ed099e74a97a1d7f8bb0952a88ca8b7b8ebd00c126ea04671f92a81213318a"
          ],
          "data": "0x000000000000000000000000173272739bd7aa6e4e214714048a9fe6994530590000000000000000000000000000000000000000000000000000082a2805899d",
          "blockHash": "0x19e4820e56c0278fe2978d2a74ff5f86817f17c7c4bea6922874573686eeba4b",
          "blockNumber": "0x134027b",
          "transactionHash": "0x74d3d98e2d10980e85adae8577f5085472b6a3e36d4da39478c5d4a3f2931390",
          "transactionIndex": "0x47",
          "logIndex": "0xcf",
          "removed": false
        },
        {
          "address": "0xbb2ea70c9e858123480642cf96acbcce1372dce1",
          "topics": [
            "0x07ea52d82345d6e838192107d8fd7123d9c2ec8e916cd0aad13fd2b60db24644"
          ],
          "data": "0x000000000000000000000000000000000000000000000000000000000000006000000000000000000000000000000000000000000000000000000000000000c000000000000000000000000000000000000000000000000000000000000000e00000000000000000000000000000000000000000000000000000000000000002000000000000000000000000380275805876ff19055ea900cdb2b46a94ecf20d000000000000000000000000589dedbd617e0cbcb916a9223f4d1300c294236b00000000000000000000000000000000000000000000000000000000000000000000000000000000000000000000000000000000000000000000000000000002000000000000000000000000000000000000000000000000000000266e657bf0000000000000000000000000000000000000000000000000000000266e657bf0",
          "blockHash": "0x19e4820e56c0278fe2978d2a74ff5f86817f17c7c4bea6922874573686eeba4b",
          "blockNumber": "0x134027b",
          "transactionHash": "0x74d3d98e2d10980e85adae8577f5085472b6a3e36d4da39478c5d4a3f2931390",
          "transactionIndex": "0x47",
          "logIndex": "0xd0",
          "removed": false
        },
        {
          "address": "0x1a44076050125825900e736c501f859c50fe728c",
          "topics": [
            "0x1ab700d4ced0c005b164c0f789fd09fcbb0156d4c2041b8a3bfbcd961cd1567f"
          ],
          "data": "0x00000000000000000000000000000000000000000000000000000000000000600000000000000000000000000000000000000000000000000000000000000120000000000000000000000000bb2ea70c9e858123480642cf96acbcce1372dce1000000000000000000000000000000000000000000000000000000000000009901000000000000000300007595000000000000000000000000909dbde1ebe906af95660033e478d59efe831fed0000763400000000000000000000000080eede496655fb9047dd39d9f418d5483ed600df2087b209c236f419824033b32ea6fc71a577e104bea7e0776bffc68f03473f05000000000000000000000000b0e1650a9760e0f383174af042091fc544b8356f000000000000006400000000000000000000000000000000000000000000000000000000000000000000000000001600030100110100000000000000000000000000030d4000000000000000000000",
          "blockHash": "0x19e4820e56c0278fe2978d2a74ff5f86817f17c7c4bea6922874573686eeba4b",
          "blockNumber": "0x134027b",
          "transactionHash": "0x74d3d98e2d10980e85adae8577f5085472b6a3e36d4da39478c5d4a3f2931390",
          "transactionIndex": "0x47",
          "logIndex": "0xd1",
          "removed": false
        },
        {
          "address": "0x909dbde1ebe906af95660033e478d59efe831fed",
          "topics": [
            "0x85496b760a4b7f8d66384b9df21b381f5d1b1e79f229a47aaf4c232edc2fe59a",
            "0x2087b209c236f419824033b32ea6fc71a577e104bea7e0776bffc68f03473f05",
            "0x000000000000000000000000b0e1650a9760e0f383174af042091fc544b8356f"
          ],
          "data": "0x000000000000000000000000000000000000000000000000000000000000763400000000000000000000000000000000000000000000000000005af3107a400000000000000000000000000000000000000000000000000000005af3107a4000",
          "blockHash": "0x19e4820e56c0278fe2978d2a74ff5f86817f17c7c4bea6922874573686eeba4b",
          "blockNumber": "0x134027b",
          "transactionHash": "0x74d3d98e2d10980e85adae8577f5085472b6a3e36d4da39478c5d4a3f2931390",
          "transactionIndex": "0x47",
          "logIndex": "0xd2",
          "removed": false
        }
      ],
      "logsBloom": "0x000000000000000000010000020000000000000000000000000000000010000004000000000000000000000000000000000000000020000000000000002000000000020000000000000000080000000000002000000000000000000000000000000000000000000080020000000020000000000001100800000000100000000000000000000000000010400810000000000400000000000000000000000000000200000080000040001000000000000000000000004000000004400004200000000000020000000000000000800000000000000000000000000000000000000000100c0080000000000000000000002000000000018000000000000000000000",
      "type": "0x2",
      "transactionHash": "0x74d3d98e2d10980e85adae8577f5085472b6a3e36d4da39478c5d4a3f2931390",
      "transactionIndex": "0x47",
      "blockHash": "0x19e4820e56c0278fe2978d2a74ff5f86817f17c7c4bea6922874573686eeba4b",
      "blockNumber": "0x134027b",
      "gasUsed": "0x42d5c",
      "effectiveGasPrice": "0x12705f95c",
      "from": "0xb0e1650a9760e0f383174af042091fc544b8356f",
      "to": "0x909dbde1ebe906af95660033e478d59efe831fed",
      "contractAddress": null
    }
  ],
  "libraries": [],
  "pending": [],
  "returns": {},
  "timestamp": 1719523862,
  "chain": 1,
  "commit": "b28e4fb"
}