{
  "transactions": [
    {
      "hash": "0x026eb130ef2860013dcfcdc22258c0b72a6759260156cbb82b453ea35b2789b2",
      "transactionType": "CALL",
      "contractName": null,
      "contractAddress": "0x23432452b720c80553458496d4d9d7c5003280d0",
      "function": "send((uint32,bytes32,uint256,uint256,bytes,bytes,bytes),(uint256,uint256),address)",
      "arguments": [
        "(30260, 0x000000000000000000000000b0e1650a9760e0f383174af042091fc544b8356f, 10000000000000, 10000000000000, 0x0003, 0x, 0x)",
        "(9307274903933, 0)",
        "0xb0E1650A9760e0f383174af042091fc544b8356f"
      ],
      "transaction": {
        "from": "0xb0e1650a9760e0f383174af042091fc544b8356f",
        "to": "0x23432452b720c80553458496d4d9d7c5003280d0",
        "gas": "0x79c91",
        "value": "0x87704d0817d",
        "input": "0xc7c7f5b300000000000000000000000000000000000000000000000000000000000000800000000000000000000000000000000000000000000000000000087704d0817d0000000000000000000000000000000000000000000000000000000000000000000000000000000000000000b0e1650a9760e0f383174af042091fc544b8356f0000000000000000000000000000000000000000000000000000000000007634000000000000000000000000b0e1650a9760e0f383174af042091fc544b8356f000000000000000000000000000000000000000000000000000009184e72a000000000000000000000000000000000000000000000000000000009184e72a00000000000000000000000000000000000000000000000000000000000000000e0000000000000000000000000000000000000000000000000000000000000012000000000000000000000000000000000000000000000000000000000000001400000000000000000000000000000000000000000000000000000000000000002000300000000000000000000000000000000000000000000000000000000000000000000000000000000000000000000000000000000000000000000000000000000000000000000000000000000000000000000000000000000000000000000",
        "nonce": "0x43",
        "chainId": "0x1"
      },
      "additionalContracts": [],
      "isFixedGasLimit": false
    },
    {
      "hash": "0x485656d8d18448810f6782c569d8686977bd94f2470a781f1e84282743342bea",
      "transactionType": "CALL",
      "contractName": null,
      "contractAddress": "0xe4796ccb6bb5de2290c417ac337f2b66ca2e770e",
      "function": "send((uint32,bytes32,uint256,uint256,bytes,bytes,bytes),(uint256,uint256),address)",
      "arguments": [
        "(30260, 0x000000000000000000000000b0e1650a9760e0f383174af042091fc544b8356f, 10000000000000, 10000000000000, 0x0003, 0x, 0x)",
        "(9307274903933, 0)",
        "0xb0E1650A9760e0f383174af042091fc544b8356f"
      ],
      "transaction": {
        "from": "0xb0e1650a9760e0f383174af042091fc544b8356f",
        "to": "0xe4796ccb6bb5de2290c417ac337f2b66ca2e770e",
        "gas": "0x60c41",
        "value": "0x87704d0817d",
        "input": "0xc7c7f5b300000000000000000000000000000000000000000000000000000000000000800000000000000000000000000000000000000000000000000000087704d0817d0000000000000000000000000000000000000000000000000000000000000000000000000000000000000000b0e1650a9760e0f383174af042091fc544b8356f0000000000000000000000000000000000000000000000000000000000007634000000000000000000000000b0e1650a9760e0f383174af042091fc544b8356f000000000000000000000000000000000000000000000000000009184e72a000000000000000000000000000000000000000000000000000000009184e72a00000000000000000000000000000000000000000000000000000000000000000e0000000000000000000000000000000000000000000000000000000000000012000000000000000000000000000000000000000000000000000000000000001400000000000000000000000000000000000000000000000000000000000000002000300000000000000000000000000000000000000000000000000000000000000000000000000000000000000000000000000000000000000000000000000000000000000000000000000000000000000000000000000000000000000000000",
        "nonce": "0x44",
        "chainId": "0x1"
      },
      "additionalContracts": [],
      "isFixedGasLimit": false
    },
    {
      "hash": "0x6cbb84cd1f34fdb2c2d3f9bd61eab58ec40c8d787a7fa0f1fa227f4a79942624",
      "transactionType": "CALL",
      "contractName": null,
      "contractAddress": "0x1f55a02a049033e3419a8e2975cf3f572f4e6e9a",
      "function": "send((uint32,bytes32,uint256,uint256,bytes,bytes,bytes),(uint256,uint256),address)",
      "arguments": [
        "(30260, 0x000000000000000000000000b0e1650a9760e0f383174af042091fc544b8356f, 10000000000000, 10000000000000, 0x0003, 0x, 0x)",
        "(9307274903933, 0)",
        "0xb0E1650A9760e0f383174af042091fc544b8356f"
      ],
      "transaction": {
        "from": "0xb0e1650a9760e0f383174af042091fc544b8356f",
        "to": "0x1f55a02a049033e3419a8e2975cf3f572f4e6e9a",
        "gas": "0x5b827",
        "value": "0x87704d0817d",
        "input": "0xc7c7f5b300000000000000000000000000000000000000000000000000000000000000800000000000000000000000000000000000000000000000000000087704d0817d0000000000000000000000000000000000000000000000000000000000000000000000000000000000000000b0e1650a9760e0f383174af042091fc544b8356f0000000000000000000000000000000000000000000000000000000000007634000000000000000000000000b0e1650a9760e0f383174af042091fc544b8356f000000000000000000000000000000000000000000000000000009184e72a000000000000000000000000000000000000000000000000000000009184e72a00000000000000000000000000000000000000000000000000000000000000000e0000000000000000000000000000000000000000000000000000000000000012000000000000000000000000000000000000000000000000000000000000001400000000000000000000000000000000000000000000000000000000000000002000300000000000000000000000000000000000000000000000000000000000000000000000000000000000000000000000000000000000000000000000000000000000000000000000000000000000000000000000000000000000000000000",
        "nonce": "0x45",
        "chainId": "0x1"
      },
      "additionalContracts": [],
      "isFixedGasLimit": false
    },
    {
      "hash": "0x533f65ecc805714b712d86f03d8285c7c8dafd8fed4f38821a91f2713bf5eed0",
      "transactionType": "CALL",
      "contractName": null,
      "contractAddress": "0x909dbde1ebe906af95660033e478d59efe831fed",
      "function": "send((uint32,bytes32,uint256,uint256,bytes,bytes,bytes),(uint256,uint256),address)",
      "arguments": [
        "(30260, 0x000000000000000000000000b0e1650a9760e0f383174af042091fc544b8356f, 10000000000000, 10000000000000, 0x0003, 0x, 0x)",
        "(9307274903933, 0)",
        "0xb0E1650A9760e0f383174af042091fc544b8356f"
      ],
      "transaction": {
        "from": "0xb0e1650a9760e0f383174af042091fc544b8356f",
        "to": "0x909dbde1ebe906af95660033e478d59efe831fed",
        "gas": "0x5c50c",
        "value": "0x87704d0817d",
        "input": "0xc7c7f5b300000000000000000000000000000000000000000000000000000000000000800000000000000000000000000000000000000000000000000000087704d0817d0000000000000000000000000000000000000000000000000000000000000000000000000000000000000000b0e1650a9760e0f383174af042091fc544b8356f0000000000000000000000000000000000000000000000000000000000007634000000000000000000000000b0e1650a9760e0f383174af042091fc544b8356f000000000000000000000000000000000000000000000000000009184e72a000000000000000000000000000000000000000000000000000000009184e72a00000000000000000000000000000000000000000000000000000000000000000e0000000000000000000000000000000000000000000000000000000000000012000000000000000000000000000000000000000000000000000000000000001400000000000000000000000000000000000000000000000000000000000000002000300000000000000000000000000000000000000000000000000000000000000000000000000000000000000000000000000000000000000000000000000000000000000000000000000000000000000000000000000000000000000000000",
        "nonce": "0x46",
        "chainId": "0x1"
      },
      "additionalContracts": [],
      "isFixedGasLimit": false
    }
  ],
  "receipts": [
    {
      "status": "0x1",
      "cumulativeGasUsed": "0x48e75d",
      "logs": [
        {
          "address": "0x3432b6a60d23ca0dfca7761b7ab56459d9c964d0",
          "topics": [
            "0x3eaa1c4be29b4a4c60e00300b5a17a8ec6c982b5b0ad5870cc84ebdc3b24d68e",
            "0x000000000000000000000000b0e1650a9760e0f383174af042091fc544b8356f"
          ],
          "data": "0x0000000000000000000000000000000000000000000000030502ce81d9c1412d0000000000000000000000000000000000000000000000030502c5698b4ea12d",
          "blockHash": "0x21238bad23bbd464946c8ef22bcdd9d68b8ef9a8c97af13eb9f77b4691eefd27",
          "blockNumber": "0x1342194",
          "transactionHash": "0x026eb130ef2860013dcfcdc22258c0b72a6759260156cbb82b453ea35b2789b2",
          "transactionIndex": "0x23",
          "logIndex": "0x96",
          "removed": false
        },
        {
          "address": "0x3432b6a60d23ca0dfca7761b7ab56459d9c964d0",
          "topics": [
            "0x3eaa1c4be29b4a4c60e00300b5a17a8ec6c982b5b0ad5870cc84ebdc3b24d68e",
            "0x00000000000000000000000023432452b720c80553458496d4d9d7c5003280d0"
          ],
          "data": "0x0000000000000000000000000000000000000000000012637e1a186bba5bd0000000000000000000000000000000000000000000000012637e1a218408ce7000",
          "blockHash": "0x21238bad23bbd464946c8ef22bcdd9d68b8ef9a8c97af13eb9f77b4691eefd27",
          "blockNumber": "0x1342194",
          "transactionHash": "0x026eb130ef2860013dcfcdc22258c0b72a6759260156cbb82b453ea35b2789b2",
          "transactionIndex": "0x23",
          "logIndex": "0x97",
          "removed": false
        },
        {
          "address": "0x3432b6a60d23ca0dfca7761b7ab56459d9c964d0",
          "topics": [
            "0xddf252ad1be2c89b69c2b068fc378daa952ba7f163c4a11628f55a4df523b3ef",
            "0x000000000000000000000000b0e1650a9760e0f383174af042091fc544b8356f",
            "0x00000000000000000000000023432452b720c80553458496d4d9d7c5003280d0"
          ],
          "data": "0x000000000000000000000000000000000000000000000000000009184e72a000",
          "blockHash": "0x21238bad23bbd464946c8ef22bcdd9d68b8ef9a8c97af13eb9f77b4691eefd27",
          "blockNumber": "0x1342194",
          "transactionHash": "0x026eb130ef2860013dcfcdc22258c0b72a6759260156cbb82b453ea35b2789b2",
          "transactionIndex": "0x23",
          "logIndex": "0x98",
          "removed": false
        },
        {
          "address": "0x3432b6a60d23ca0dfca7761b7ab56459d9c964d0",
          "topics": [
            "0x8c5be1e5ebec7d5bd14f71427d1e84f3dd0314c0f7b2291e5b200ac8c7c3b925",
            "0x000000000000000000000000b0e1650a9760e0f383174af042091fc544b8356f",
            "0x00000000000000000000000023432452b720c80553458496d4d9d7c5003280d0"
          ],
          "data": "0xffffffffffffffffffffffffffffffffffffffffffffffffe00d4326f0201fff",
          "blockHash": "0x21238bad23bbd464946c8ef22bcdd9d68b8ef9a8c97af13eb9f77b4691eefd27",
          "blockNumber": "0x1342194",
          "transactionHash": "0x026eb130ef2860013dcfcdc22258c0b72a6759260156cbb82b453ea35b2789b2",
          "transactionIndex": "0x23",
          "logIndex": "0x99",
          "removed": false
        },
        {
          "address": "0xbb2ea70c9e858123480642cf96acbcce1372dce1",
          "topics": [
            "0x61ed099e74a97a1d7f8bb0952a88ca8b7b8ebd00c126ea04671f92a81213318a"
          ],
          "data": "0x000000000000000000000000173272739bd7aa6e4e214714048a9fe6994530590000000000000000000000000000000000000000000000000000082a2805899d",
          "blockHash": "0x21238bad23bbd464946c8ef22bcdd9d68b8ef9a8c97af13eb9f77b4691eefd27",
          "blockNumber": "0x1342194",
          "transactionHash": "0x026eb130ef2860013dcfcdc22258c0b72a6759260156cbb82b453ea35b2789b2",
          "transactionIndex": "0x23",
          "logIndex": "0x9a",
          "removed": false
        },
        {
          "address": "0xbb2ea70c9e858123480642cf96acbcce1372dce1",
          "topics": [
            "0x07ea52d82345d6e838192107d8fd7123d9c2ec8e916cd0aad13fd2b60db24644"
          ],
          "data": "0x000000000000000000000000000000000000000000000000000000000000006000000000000000000000000000000000000000000000000000000000000000c000000000000000000000000000000000000000000000000000000000000000e00000000000000000000000000000000000000000000000000000000000000002000000000000000000000000380275805876ff19055ea900cdb2b46a94ecf20d000000000000000000000000589dedbd617e0cbcb916a9223f4d1300c294236b00000000000000000000000000000000000000000000000000000000000000000000000000000000000000000000000000000000000000000000000000000002000000000000000000000000000000000000000000000000000000266e657bf0000000000000000000000000000000000000000000000000000000266e657bf0",
          "blockHash": "0x21238bad23bbd464946c8ef22bcdd9d68b8ef9a8c97af13eb9f77b4691eefd27",
          "blockNumber": "0x1342194",
          "transactionHash": "0x026eb130ef2860013dcfcdc22258c0b72a6759260156cbb82b453ea35b2789b2",
          "transactionIndex": "0x23",
          "logIndex": "0x9b",
          "removed": false
        },
        {
          "address": "0x1a44076050125825900e736c501f859c50fe728c",
          "topics": [
            "0x1ab700d4ced0c005b164c0f789fd09fcbb0156d4c2041b8a3bfbcd961cd1567f"
          ],
          "data": "0x00000000000000000000000000000000000000000000000000000000000000600000000000000000000000000000000000000000000000000000000000000120000000000000000000000000bb2ea70c9e858123480642cf96acbcce1372dce100000000000000000000000000000000000000000000000000000000000000990100000000000000020000759500000000000000000000000023432452b720c80553458496d4d9d7c5003280d00000763400000000000000000000000064445f0aecc51e94ad52d8ac56b7190e764e561a21fbf4b29bb3fcb243c283130414e1cba3a3a4807bc83084b24026ad397570b8000000000000000000000000b0e1650a9760e0f383174af042091fc544b8356f000000000000000a00000000000000000000000000000000000000000000000000000000000000000000000000001600030100110100000000000000000000000000030d4000000000000000000000",
          "blockHash": "0x21238bad23bbd464946c8ef22bcdd9d68b8ef9a8c97af13eb9f77b4691eefd27",
          "blockNumber": "0x1342194",
          "transactionHash": "0x026eb130ef2860013dcfcdc22258c0b72a6759260156cbb82b453ea35b2789b2",
          "transactionIndex": "0x23",
          "logIndex": "0x9c",
          "removed": false
        },
        {
          "address": "0x23432452b720c80553458496d4d9d7c5003280d0",
          "topics": [
            "0x85496b760a4b7f8d66384b9df21b381f5d1b1e79f229a47aaf4c232edc2fe59a",
            "0x21fbf4b29bb3fcb243c283130414e1cba3a3a4807bc83084b24026ad397570b8",
            "0x000000000000000000000000b0e1650a9760e0f383174af042091fc544b8356f"
          ],
          "data": "0x0000000000000000000000000000000000000000000000000000000000007634000000000000000000000000000000000000000000000000000009184e72a000000000000000000000000000000000000000000000000000000009184e72a000",
          "blockHash": "0x21238bad23bbd464946c8ef22bcdd9d68b8ef9a8c97af13eb9f77b4691eefd27",
          "blockNumber": "0x1342194",
          "transactionHash": "0x026eb130ef2860013dcfcdc22258c0b72a6759260156cbb82b453ea35b2789b2",
          "transactionIndex": "0x23",
          "logIndex": "0x9d",
          "removed": false
        }
      ],
      "logsBloom": "0x00000000000001000000000000004000000000000000000000000000001000000400000100000000000000000800000000000000000000000000000000200000000002000000000000000008000000000000208000000000000002000000000000000000000000008000000000000000000000000110080000000010000000000000000000000000001000080000000000000000000020000000000000000000020000008000000000100000000000000000000000400000000540000000000000000002000000000000000080000000000000001000000000000000000000000010040080000000000000000000042000280000018000008000000000204000",
      "type": "0x2",
      "transactionHash": "0x026eb130ef2860013dcfcdc22258c0b72a6759260156cbb82b453ea35b2789b2",
      "transactionIndex": "0x23",
      "blockHash": "0x21238bad23bbd464946c8ef22bcdd9d68b8ef9a8c97af13eb9f77b4691eefd27",
      "blockNumber": "0x1342194",
      "gasUsed": "0x5345b",
      "effectiveGasPrice": "0x664e360d",
      "from": "0xb0e1650a9760e0f383174af042091fc544b8356f",
      "to": "0x23432452b720c80553458496d4d9d7c5003280d0",
      "contractAddress": null
    },
    {
      "status": "0x1",
      "cumulativeGasUsed": "0xa846a9",
      "logs": [
        {
          "address": "0xa663b02cf0a4b149d2ad41910cb81e23e1c41c32",
          "topics": [
            "0xddf252ad1be2c89b69c2b068fc378daa952ba7f163c4a11628f55a4df523b3ef",
            "0x000000000000000000000000b0e1650a9760e0f383174af042091fc544b8356f",
            "0x000000000000000000000000e4796ccb6bb5de2290c417ac337f2b66ca2e770e"
          ],
          "data": "0x000000000000000000000000000000000000000000000000000009184e72a000",
          "blockHash": "0x7dec5b27360680b6e44ab5f6dfdb6c85969b6fb755c546792c8e038524be1487",
          "blockNumber": "0x1342196",
          "transactionHash": "0x485656d8d18448810f6782c569d8686977bd94f2470a781f1e84282743342bea",
          "transactionIndex": "0x3c",
          "logIndex": "0x143",
          "removed": false
        },
        {
          "address": "0xbb2ea70c9e858123480642cf96acbcce1372dce1",
          "topics": [
            "0x61ed099e74a97a1d7f8bb0952a88ca8b7b8ebd00c126ea04671f92a81213318a"
          ],
          "data": "0x000000000000000000000000173272739bd7aa6e4e214714048a9fe6994530590000000000000000000000000000000000000000000000000000082a2805899d",
          "blockHash": "0x7dec5b27360680b6e44ab5f6dfdb6c85969b6fb755c546792c8e038524be1487",
          "blockNumber": "0x1342196",
          "transactionHash": "0x485656d8d18448810f6782c569d8686977bd94f2470a781f1e84282743342bea",
          "transactionIndex": "0x3c",
          "logIndex": "0x144",
          "removed": false
        },
        {
          "address": "0xbb2ea70c9e858123480642cf96acbcce1372dce1",
          "topics": [
            "0x07ea52d82345d6e838192107d8fd7123d9c2ec8e916cd0aad13fd2b60db24644"
          ],
          "data": "0x000000000000000000000000000000000000000000000000000000000000006000000000000000000000000000000000000000000000000000000000000000c000000000000000000000000000000000000000000000000000000000000000e00000000000000000000000000000000000000000000000000000000000000002000000000000000000000000380275805876ff19055ea900cdb2b46a94ecf20d000000000000000000000000589dedbd617e0cbcb916a9223f4d1300c294236b00000000000000000000000000000000000000000000000000000000000000000000000000000000000000000000000000000000000000000000000000000002000000000000000000000000000000000000000000000000000000266e657bf0000000000000000000000000000000000000000000000000000000266e657bf0",
          "blockHash": "0x7dec5b27360680b6e44ab5f6dfdb6c85969b6fb755c546792c8e038524be1487",
          "blockNumber": "0x1342196",
          "transactionHash": "0x485656d8d18448810f6782c569d8686977bd94f2470a781f1e84282743342bea",
          "transactionIndex": "0x3c",
          "logIndex": "0x145",
          "removed": false
        },
        {
          "address": "0x1a44076050125825900e736c501f859c50fe728c",
          "topics": [
            "0x1ab700d4ced0c005b164c0f789fd09fcbb0156d4c2041b8a3bfbcd961cd1567f"
          ],
          "data": "0x00000000000000000000000000000000000000000000000000000000000000600000000000000000000000000000000000000000000000000000000000000120000000000000000000000000bb2ea70c9e858123480642cf96acbcce1372dce1000000000000000000000000000000000000000000000000000000000000009901000000000000000200007595000000000000000000000000e4796ccb6bb5de2290c417ac337f2b66ca2e770e000076340000000000000000000000005bff88ca1442c2496f7e475e9e7786383bc070c0183c41da82b2283246d77fd638c22c81e919a8211a2d86ca659773bb5674af8d000000000000000000000000b0e1650a9760e0f383174af042091fc544b8356f000000000000000a00000000000000000000000000000000000000000000000000000000000000000000000000001600030100110100000000000000000000000000030d4000000000000000000000",
          "blockHash": "0x7dec5b27360680b6e44ab5f6dfdb6c85969b6fb755c546792c8e038524be1487",
          "blockNumber": "0x1342196",
          "transactionHash": "0x485656d8d18448810f6782c569d8686977bd94f2470a781f1e84282743342bea",
          "transactionIndex": "0x3c",
          "logIndex": "0x146",
          "removed": false
        },
        {
          "address": "0xe4796ccb6bb5de2290c417ac337f2b66ca2e770e",
          "topics": [
            "0x85496b760a4b7f8d66384b9df21b381f5d1b1e79f229a47aaf4c232edc2fe59a",
            "0x183c41da82b2283246d77fd638c22c81e919a8211a2d86ca659773bb5674af8d",
            "0x000000000000000000000000b0e1650a9760e0f383174af042091fc544b8356f"
          ],
          "data": "0x0000000000000000000000000000000000000000000000000000000000007634000000000000000000000000000000000000000000000000000009184e72a000000000000000000000000000000000000000000000000000000009184e72a000",
          "blockHash": "0x7dec5b27360680b6e44ab5f6dfdb6c85969b6fb755c546792c8e038524be1487",
          "blockNumber": "0x1342196",
          "transactionHash": "0x485656d8d18448810f6782c569d8686977bd94f2470a781f1e84282743342bea",
          "transactionIndex": "0x3c",
          "logIndex": "0x147",
          "removed": false
        }
      ],
      "logsBloom": "0x00000000000000000000400000000000000000000000000000000000001000000400000000000000000000000000000000000000000000000000000000000000000402100000010000000008000000000004200000000000000000000000000000420000000000008000000000000000000000000110080000000010000000100000000000000000001000080000000000000000000000000000000000000000000000008000000000100000000000000000000000400000000440000000000000000002000000000000000081000000000000400000000000000000000000000000040080000000000000000000002000000000018000000000001000001000",
      "type": "0x2",
      "transactionHash": "0x485656d8d18448810f6782c569d8686977bd94f2470a781f1e84282743342bea",
      "transactionIndex": "0x3c",
      "blockHash": "0x7dec5b27360680b6e44ab5f6dfdb6c85969b6fb755c546792c8e038524be1487",
      "blockNumber": "0x1342196",
      "gasUsed": "0x422a3",
      "effectiveGasPrice": "0x595d92ad",
      "from": "0xb0e1650a9760e0f383174af042091fc544b8356f",
      "to": "0xe4796ccb6bb5de2290c417ac337f2b66ca2e770e",
      "contractAddress": null
    },
    {
      "status": "0x1",
      "cumulativeGasUsed": "0xef566a",
      "logs": [
        {
          "address": "0xac3e018457b222d93114458476f3e3416abbe38f",
          "topics": [
            "0xddf252ad1be2c89b69c2b068fc378daa952ba7f163c4a11628f55a4df523b3ef",
            "0x000000000000000000000000b0e1650a9760e0f383174af042091fc544b8356f",
            "0x0000000000000000000000001f55a02a049033e3419a8e2975cf3f572f4e6e9a"
          ],
          "data": "0x000000000000000000000000000000000000000000000000000009184e72a000",
          "blockHash": "0x9ef7a0f36391d42ed6e702d8bde82b123edd4bb5a9fe15ae94efc06588a3625b",
          "blockNumber": "0x1342199",
          "transactionHash": "0x6cbb84cd1f34fdb2c2d3f9bd61eab58ec40c8d787a7fa0f1fa227f4a79942624",
          "transactionIndex": "0x9b",
          "logIndex": "0x13a",
          "removed": false
        },
        {
          "address": "0xbb2ea70c9e858123480642cf96acbcce1372dce1",
          "topics": [
            "0x61ed099e74a97a1d7f8bb0952a88ca8b7b8ebd00c126ea04671f92a81213318a"
          ],
          "data": "0x000000000000000000000000173272739bd7aa6e4e214714048a9fe6994530590000000000000000000000000000000000000000000000000000082a2805899d",
          "blockHash": "0x9ef7a0f36391d42ed6e702d8bde82b123edd4bb5a9fe15ae94efc06588a3625b",
          "blockNumber": "0x1342199",
          "transactionHash": "0x6cbb84cd1f34fdb2c2d3f9bd61eab58ec40c8d787a7fa0f1fa227f4a79942624",
          "transactionIndex": "0x9b",
          "logIndex": "0x13b",
          "removed": false
        },
        {
          "address": "0xbb2ea70c9e858123480642cf96acbcce1372dce1",
          "topics": [
            "0x07ea52d82345d6e838192107d8fd7123d9c2ec8e916cd0aad13fd2b60db24644"
          ],
          "data": "0x000000000000000000000000000000000000000000000000000000000000006000000000000000000000000000000000000000000000000000000000000000c000000000000000000000000000000000000000000000000000000000000000e00000000000000000000000000000000000000000000000000000000000000002000000000000000000000000380275805876ff19055ea900cdb2b46a94ecf20d000000000000000000000000589dedbd617e0cbcb916a9223f4d1300c294236b00000000000000000000000000000000000000000000000000000000000000000000000000000000000000000000000000000000000000000000000000000002000000000000000000000000000000000000000000000000000000266e657bf0000000000000000000000000000000000000000000000000000000266e657bf0",
          "blockHash": "0x9ef7a0f36391d42ed6e702d8bde82b123edd4bb5a9fe15ae94efc06588a3625b",
          "blockNumber": "0x1342199",
          "transactionHash": "0x6cbb84cd1f34fdb2c2d3f9bd61eab58ec40c8d787a7fa0f1fa227f4a79942624",
          "transactionIndex": "0x9b",
          "logIndex": "0x13c",
          "removed": false
        },
        {
          "address": "0x1a44076050125825900e736c501f859c50fe728c",
          "topics": [
            "0x1ab700d4ced0c005b164c0f789fd09fcbb0156d4c2041b8a3bfbcd961cd1567f"
          ],
          "data": "0x00000000000000000000000000000000000000000000000000000000000000600000000000000000000000000000000000000000000000000000000000000120000000000000000000000000bb2ea70c9e858123480642cf96acbcce1372dce10000000000000000000000000000000000000000000000000000000000000099010000000000000002000075950000000000000000000000001f55a02a049033e3419a8e2975cf3f572f4e6e9a000076340000000000000000000000003ec3849c33291a9ef4c5db86de593eb4a37fde454bcc7e9ad5881fd1991b46acbfa2b1d0cc1b3a9815f18cff188aa9ea1be7a925000000000000000000000000b0e1650a9760e0f383174af042091fc544b8356f000000000000000a00000000000000000000000000000000000000000000000000000000000000000000000000001600030100110100000000000000000000000000030d4000000000000000000000",
          "blockHash": "0x9ef7a0f36391d42ed6e702d8bde82b123edd4bb5a9fe15ae94efc06588a3625b",
          "blockNumber": "0x1342199",
          "transactionHash": "0x6cbb84cd1f34fdb2c2d3f9bd61eab58ec40c8d787a7fa0f1fa227f4a79942624",
          "transactionIndex": "0x9b",
          "logIndex": "0x13d",
          "removed": false
        },
        {
          "address": "0x1f55a02a049033e3419a8e2975cf3f572f4e6e9a",
          "topics": [
            "0x85496b760a4b7f8d66384b9df21b381f5d1b1e79f229a47aaf4c232edc2fe59a",
            "0x4bcc7e9ad5881fd1991b46acbfa2b1d0cc1b3a9815f18cff188aa9ea1be7a925",
            "0x000000000000000000000000b0e1650a9760e0f383174af042091fc544b8356f"
          ],
          "data": "0x0000000000000000000000000000000000000000000000000000000000007634000000000000000000000000000000000000000000000000000009184e72a000000000000000000000000000000000000000000000000000000009184e72a000",
          "blockHash": "0x9ef7a0f36391d42ed6e702d8bde82b123edd4bb5a9fe15ae94efc06588a3625b",
          "blockNumber": "0x1342199",
          "transactionHash": "0x6cbb84cd1f34fdb2c2d3f9bd61eab58ec40c8d787a7fa0f1fa227f4a79942624",
          "transactionIndex": "0x9b",
          "logIndex": "0x13e",
          "removed": false
        }
      ],
      "logsBloom": "0x00000000100000400000000000000000000000000000000000000000001000200400000000000000200000000000000000000000000000000000000000000000000002000000000000000008000008000000200000100000000000000000000000000000000008008000000000000000000000000110080000000010000000000000000000000010001000080000000000000000000000000000100000000000000000008000000000100000000000000000000000400100000440000000000000000002000000000000000080000000000000000000000000000000000000000000040090000000000004000000002000000000018000000000000000000000",
      "type": "0x2",
      "transactionHash": "0x6cbb84cd1f34fdb2c2d3f9bd61eab58ec40c8d787a7fa0f1fa227f4a79942624",
      "transactionIndex": "0x9b",
      "blockHash": "0x9ef7a0f36391d42ed6e702d8bde82b123edd4bb5a9fe15ae94efc06588a3625b",
      "blockNumber": "0x1342199",
      "gasUsed": "0x42406",
      "effectiveGasPrice": "0x5d2989d1",
      "from": "0xb0e1650a9760e0f383174af042091fc544b8356f",
      "to": "0x1f55a02a049033e3419a8e2975cf3f572f4e6e9a",
      "contractAddress": null
    },
    {
      "status": "0x1",
      "cumulativeGasUsed": "0xb340b2",
      "logs": [
        {
          "address": "0x853d955acef822db058eb8505911ed77f175b99e",
          "topics": [
            "0xddf252ad1be2c89b69c2b068fc378daa952ba7f163c4a11628f55a4df523b3ef",
            "0x000000000000000000000000b0e1650a9760e0f383174af042091fc544b8356f",
            "0x000000000000000000000000909dbde1ebe906af95660033e478d59efe831fed"
          ],
          "data": "0x000000000000000000000000000000000000000000000000000009184e72a000",
          "blockHash": "0x3cf56ddfe31ecb2cefd677c8487ad91c761916ed95ecb9e8f122f9f4f2521f8c",
          "blockNumber": "0x134219a",
          "transactionHash": "0x533f65ecc805714b712d86f03d8285c7c8dafd8fed4f38821a91f2713bf5eed0",
          "transactionIndex": "0x9c",
          "logIndex": "0x12b",
          "removed": false
        },
        {
          "address": "0x853d955acef822db058eb8505911ed77f175b99e",
          "topics": [
            "0x8c5be1e5ebec7d5bd14f71427d1e84f3dd0314c0f7b2291e5b200ac8c7c3b925",
            "0x000000000000000000000000b0e1650a9760e0f383174af042091fc544b8356f",
            "0x000000000000000000000000909dbde1ebe906af95660033e478d59efe831fed"
          ],
          "data": "0x0000000000000000000000000000000000000000000000006ad4662b7a082000",
          "blockHash": "0x3cf56ddfe31ecb2cefd677c8487ad91c761916ed95ecb9e8f122f9f4f2521f8c",
          "blockNumber": "0x134219a",
          "transactionHash": "0x533f65ecc805714b712d86f03d8285c7c8dafd8fed4f38821a91f2713bf5eed0",
          "transactionIndex": "0x9c",
          "logIndex": "0x12c",
          "removed": false
        },
        {
          "address": "0xbb2ea70c9e858123480642cf96acbcce1372dce1",
          "topics": [
            "0x61ed099e74a97a1d7f8bb0952a88ca8b7b8ebd00c126ea04671f92a81213318a"
          ],
          "data": "0x000000000000000000000000173272739bd7aa6e4e214714048a9fe6994530590000000000000000000000000000000000000000000000000000082a2805899d",
          "blockHash": "0x3cf56ddfe31ecb2cefd677c8487ad91c761916ed95ecb9e8f122f9f4f2521f8c",
          "blockNumber": "0x134219a",
          "transactionHash": "0x533f65ecc805714b712d86f03d8285c7c8dafd8fed4f38821a91f2713bf5eed0",
          "transactionIndex": "0x9c",
          "logIndex": "0x12d",
          "removed": false
        },
        {
          "address": "0xbb2ea70c9e858123480642cf96acbcce1372dce1",
          "topics": [
            "0x07ea52d82345d6e838192107d8fd7123d9c2ec8e916cd0aad13fd2b60db24644"
          ],
          "data": "0x000000000000000000000000000000000000000000000000000000000000006000000000000000000000000000000000000000000000000000000000000000c000000000000000000000000000000000000000000000000000000000000000e00000000000000000000000000000000000000000000000000000000000000002000000000000000000000000380275805876ff19055ea900cdb2b46a94ecf20d000000000000000000000000589dedbd617e0cbcb916a9223f4d1300c294236b00000000000000000000000000000000000000000000000000000000000000000000000000000000000000000000000000000000000000000000000000000002000000000000000000000000000000000000000000000000000000266e657bf0000000000000000000000000000000000000000000000000000000266e657bf0",
          "blockHash": "0x3cf56ddfe31ecb2cefd677c8487ad91c761916ed95ecb9e8f122f9f4f2521f8c",
          "blockNumber": "0x134219a",
          "transactionHash": "0x533f65ecc805714b712d86f03d8285c7c8dafd8fed4f38821a91f2713bf5eed0",
          "transactionIndex": "0x9c",
          "logIndex": "0x12e",
          "removed": false
        },
        {
          "address": "0x1a44076050125825900e736c501f859c50fe728c",
          "topics": [
            "0x1ab700d4ced0c005b164c0f789fd09fcbb0156d4c2041b8a3bfbcd961cd1567f"
          ],
          "data": "0x00000000000000000000000000000000000000000000000000000000000000600000000000000000000000000000000000000000000000000000000000000120000000000000000000000000bb2ea70c9e858123480642cf96acbcce1372dce1000000000000000000000000000000000000000000000000000000000000009901000000000000000400007595000000000000000000000000909dbde1ebe906af95660033e478d59efe831fed0000763400000000000000000000000080eede496655fb9047dd39d9f418d5483ed600dfa331ad5e0044143710c13e226bcb2705a4ed6adcf3556432ac8ac83217ca5b01000000000000000000000000b0e1650a9760e0f383174af042091fc544b8356f000000000000000a00000000000000000000000000000000000000000000000000000000000000000000000000001600030100110100000000000000000000000000030d4000000000000000000000",
          "blockHash": "0x3cf56ddfe31ecb2cefd677c8487ad91c761916ed95ecb9e8f122f9f4f2521f8c",
          "blockNumber": "0x134219a",
          "transactionHash": "0x533f65ecc805714b712d86f03d8285c7c8dafd8fed4f38821a91f2713bf5eed0",
          "transactionIndex": "0x9c",
          "logIndex": "0x12f",
          "removed": false
        },
        {
          "address": "0x909dbde1ebe906af95660033e478d59efe831fed",
          "topics": [
            "0x85496b760a4b7f8d66384b9df21b381f5d1b1e79f229a47aaf4c232edc2fe59a",
            "0xa331ad5e0044143710c13e226bcb2705a4ed6adcf3556432ac8ac83217ca5b01",
            "0x000000000000000000000000b0e1650a9760e0f383174af042091fc544b8356f"
          ],
          "data": "0x0000000000000000000000000000000000000000000000000000000000007634000000000000000000000000000000000000000000000000000009184e72a000000000000000000000000000000000000000000000000000000009184e72a000",
          "blockHash": "0x3cf56ddfe31ecb2cefd677c8487ad91c761916ed95ecb9e8f122f9f4f2521f8c",
          "blockNumber": "0x134219a",
          "transactionHash": "0x533f65ecc805714b712d86f03d8285c7c8dafd8fed4f38821a91f2713bf5eed0",
          "transactionIndex": "0x9c",
          "logIndex": "0x130",
          "removed": false
        }
      ],
      "logsBloom": "0x00000000000000000001000002400000000000000000400000000000001000000400000000000000000000000000000000000000002000000000000000200000000002000000000000000008000000000000200000000000000000000000000000000000000000008002000000002000000000000110080000000010000000000000000000000000001040081000000000000000000000000000000000000000020000008000004000100000000000000000000000400000000440000020000000000002000000000000000080000080000000000000000000000000000000000010040080000000000000000000002000000000018000000000000000000000",
      "type": "0x2",
      "transactionHash": "0x533f65ecc805714b712d86f03d8285c7c8dafd8fed4f38821a91f2713bf5eed0",
      "transactionIndex": "0x9c",
      "blockHash": "0x3cf56ddfe31ecb2cefd677c8487ad91c761916ed95ecb9e8f122f9f4f2521f8c",
      "blockNumber": "0x134219a",
      "gasUsed": "0x42d5c",
      "effectiveGasPrice": "0x5ee84bae",
      "from": "0xb0e1650a9760e0f383174af042091fc544b8356f",
      "to": "0x909dbde1ebe906af95660033e478d59efe831fed",
      "contractAddress": null
    }
  ],
  "libraries": [],
  "pending": [],
  "returns": {},
  "timestamp": 1719619986,
  "chain": 1,
  "commit": "0f0c90c"
}