{
  "transactions": [
    {
      "hash": null,
      "transactionType": "CALL",
      "contractName": null,
      "contractAddress": "0x1a44076050125825900e736c501f859c50fe728c",
      "function": "setSendLibrary(address,uint32,address)",
      "arguments": [
        "0xa536976c9cA36e74Af76037af555eefa632ce469",
        "30255",
        "0x1ccBf0db9C192d969de57E25B3fF09A25bb1D862"
      ],
      "transaction": {
        "from": "0x0990be6db8c785fbbf9ded8baec612a10cae814b",
        "to": "0x1a44076050125825900e736c501f859c50fe728c",
        "gas": "0x12ab9",
        "value": "0x0",
        "input": "0x9535ff30000000000000000000000000a536976c9ca36e74af76037af555eefa632ce469000000000000000000000000000000000000000000000000000000000000762f0000000000000000000000001ccbf0db9c192d969de57e25b3ff09a25bb1d862",
        "nonce": "0xd",
        "chainId": "0x2105"
      },
      "additionalContracts": [],
      "isFixedGasLimit": false
    }
  ],
  "receipts": [],
  "libraries": [],
  "pending": [],
  "returns": {},
  "timestamp": 1734388901,
  "chain": 8453,
  "commit": "b552015"
}