{
  "transactions": [
    {
      "hash": null,
      "transactionType": "CALL",
      "contractName": null,
      "contractAddress": "0x8f37d9f5404067d4baec77e42956a198d1858080",
      "function": "batchBridgeWithEthFeeFromWallet((uint32,bytes32,uint256,uint256,bytes,bytes,bytes)[],address[],address[])",
      "arguments": [
        "[(30255, 0x000000000000000000000000741f0d8bde14140f62107fc60a0ee122b37d4630, 100000000000000, 0, 0x, 0x, 0x), (30255, 0x000000000000000000000000741f0d8bde14140f62107fc60a0ee122b37d4630, 100000000000000, 0, 0x, 0x, 0x), (30255, 0x000000000000000000000000741f0d8bde14140f62107fc60a0ee122b37d4630, 100000000000000, 0, 0x, 0x, 0x), (30255, 0x000000000000000000000000741f0d8bde14140f62107fc60a0ee122b37d4630, 100000000000000, 0, 0x, 0x, 0x), (30255, 0x000000000000000000000000741f0d8bde14140f62107fc60a0ee122b37d4630, 100000000000000, 0, 0x, 0x, 0x), (30255, 0x000000000000000000000000741f0d8bde14140f62107fc60a0ee122b37d4630, 100000000000000, 0, 0x, 0x, 0x)]",
        "[0x29aCC7c504665A5EA95344796f784095f0cfcC58, 0x137643F7b2C189173867b3391f6629caB46F0F1a, 0x3B4cf37A3335F21c945a40088404c715525fCb29, 0x58E3ee6accd124642dDB5d3f91928816Be8D8ed3, 0x288F9D76019469bfEb56BB77d86aFa2bF563B75B, 0xBa554F7A47f0792b9fa41A1256d4cf628Bb1D028]",
        "[0x8F37D9F5404067d4bAEc77e42956A198d1858080, 0x8F37D9F5404067d4bAEc77e42956A198d1858080, 0x8F37D9F5404067d4bAEc77e42956A198d1858080, 0x8F37D9F5404067d4bAEc77e42956A198d1858080, 0x8F37D9F5404067d4bAEc77e42956A198d1858080, 0x8F37D9F5404067d4bAEc77e42956A198d1858080]"
      ],
      "transaction": {
        "from": "0x0990be6db8c785fbbf9ded8baec612a10cae814b",
        "to": "0x8f37d9f5404067d4baec77e42956a198d1858080",
        "gas": "0x989f7c",
        "value": "0x4fc7304f3a516e7e",
        "input": "0xb70d4241000000000000000000000000000000000000000000000000000000000000006000000000000000000000000000000000000000000000000000000000000008c000000000000000000000000000000000000000000000000000000000000009a0000000000000000000000000000000000000000000000000000000000000000600000000000000000000000000000000000000000000000000000000000000c000000000000000000000000000000000000000000000000000000000000002000000000000000000000000000000000000000000000000000000000000000340000000000000000000000000000000000000000000000000000000000000048000000000000000000000000000000000000000000000000000000000000005c00000000000000000000000000000000000000000000000000000000000000700000000000000000000000000000000000000000000000000000000000000762f000000000000000000000000741f0d8bde14140f62107fc60a0ee122b37d463000000000000000000000000000000000000000000000000000005af3107a4000000000000000000000000000000000000000000000000000000000000000000000000000000000000000000000000000000000000000000000000000000000e000000000000000000000000000000000000000000000000000000000000001000000000000000000000000000000000000000000000000000000000000000120000000000000000000000000000000000000000000000000000000000000000000000000000000000000000000000000000000000000000000000000000000000000000000000000000000000000000000000000000000000000000000000000000000000000000000000000000000000000000000000000000000000000762f000000000000000000000000741f0d8bde14140f62107fc60a0ee122b37d463000000000000000000000000000000000000000000000000000005af3107a4000000000000000000000000000000000000000000000000000000000000000000000000000000000000000000000000000000000000000000000000000000000e000000000000000000000000000000000000000000000000000000000000001000000000000000000000000000000000000000000000000000000000000000120000000000000000000000000000000000000000000000000000000000000000000000000000000000000000000000000000000000000000000000000000000000000000000000000000000000000000000000000000000000000000000000000000000000000000000000000000000000000000000000000000000000000762f000000000000000000000000741f0d8bde14140f62107fc60a0ee122b37d463000000000000000000000000000000000000000000000000000005af3107a4000000000000000000000000000000000000000000000000000000000000000000000000000000000000000000000000000000000000000000000000000000000e000000000000000000000000000000000000000000000000000000000000001000000000000000000000000000000000000000000000000000000000000000120000000000000000000000000000000000000000000000000000000000000000000000000000000000000000000000000000000000000000000000000000000000000000000000000000000000000000000000000000000000000000000000000000000000000000000000000000000000000000000000000000000000000762f000000000000000000000000741f0d8bde14140f62107fc60a0ee122b37d463000000000000000000000000000000000000000000000000000005af3107a4000000000000000000000000000000000000000000000000000000000000000000000000000000000000000000000000000000000000000000000000000000000e000000000000000000000000000000000000000000000000000000000000001000000000000000000000000000000000000000000000000000000000000000120000000000000000000000000000000000000000000000000000000000000000000000000000000000000000000000000000000000000000000000000000000000000000000000000000000000000000000000000000000000000000000000000000000000000000000000000000000000000000000000000000000000000762f000000000000000000000000741f0d8bde14140f62107fc60a0ee122b37d463000000000000000000000000000000000000000000000000000005af3107a4000000000000000000000000000000000000000000000000000000000000000000000000000000000000000000000000000000000000000000000000000000000e000000000000000000000000000000000000000000000000000000000000001000000000000000000000000000000000000000000000000000000000000000120000000000000000000000000000000000000000000000000000000000000000000000000000000000000000000000000000000000000000000000000000000000000000000000000000000000000000000000000000000000000000000000000000000000000000000000000000000000000000000000000000000000000762f000000000000000000000000741f0d8bde14140f62107fc60a0ee122b37d463000000000000000000000000000000000000000000000000000005af3107a4000000000000000000000000000000000000000000000000000000000000000000000000000000000000000000000000000000000000000000000000000000000e000000000000000000000000000000000000000000000000000000000000001000000000000000000000000000000000000000000000000000000000000000120000000000000000000000000000000000000000000000000000000000000000000000000000000000000000000000000000000000000000000000000000000000000000000000000000000000000000000000000000000000000000000000000000000000000000000000000000000000000000000000000000000000000000600000000000000000000000029acc7c504665a5ea95344796f784095f0cfcc58000000000000000000000000137643f7b2c189173867b3391f6629cab46f0f1a0000000000000000000000003b4cf37a3335f21c945a40088404c715525fcb2900000000000000000000000058e3ee6accd124642ddb5d3f91928816be8d8ed3000000000000000000000000288f9d76019469bfeb56bb77d86afa2bf563b75b000000000000000000000000ba554f7a47f0792b9fa41a1256d4cf628bb1d02800000000000000000000000000000000000000000000000000000000000000060000000000000000000000008f37d9f5404067d4baec77e42956a198d18580800000000000000000000000008f37d9f5404067d4baec77e42956a198d18580800000000000000000000000008f37d9f5404067d4baec77e42956a198d18580800000000000000000000000008f37d9f5404067d4baec77e42956a198d18580800000000000000000000000008f37d9f5404067d4baec77e42956a198d18580800000000000000000000000008f37d9f5404067d4baec77e42956a198d1858080",
        "nonce": "0x34",
        "chainId": "0x8f"
      },
      "additionalContracts": [],
      "isFixedGasLimit": true
    }
  ],
  "receipts": [],
  "libraries": [],
  "pending": [],
  "returns": {},
  "timestamp": 1764960056416,
  "chain": 143,
  "commit": "b070b8b"
}