{
  "transactions": [
    {
      "hash": "0x7f8178c4801f5961cd35fb5b189e7c20410881e981d2d984d7bc4d35d8a35275",
      "transactionType": "CALL",
      "contractName": null,
      "contractAddress": "0x29a5134d3b22f47ad52e0a22a63247363e9f35c2",
      "function": "mint(address,uint256)",
      "arguments": [
        "0x009fF4940727C274424c16999F9632223d820b0b",
        "10000000000000000000"
      ],
      "transaction": {
        "from": "0x009ff4940727c274424c16999f9632223d820b0b",
        "to": "0x29a5134d3b22f47ad52e0a22a63247363e9f35c2",
        "gas": "0x1bc9d",
        "value": "0x0",
        "input": "0x40c10f19000000000000000000000000009ff4940727c274424c16999f9632223d820b0b0000000000000000000000000000000000000000000000008ac7230489e80000",
        "nonce": "0x12",
        "chainId": "0xaa36a7"
      },
      "additionalContracts": [],
      "isFixedGasLimit": false
    }
  ],
  "receipts": [
    {
      "status": "0x1",
      "cumulativeGasUsed": "0x6b2bac",
      "logs": [
        {
          "address": "0x29a5134d3b22f47ad52e0a22a63247363e9f35c2",
          "topics": [
            "0xddf252ad1be2c89b69c2b068fc378daa952ba7f163c4a11628f55a4df523b3ef",
            "0x0000000000000000000000000000000000000000000000000000000000000000",
            "0x000000000000000000000000009ff4940727c274424c16999f9632223d820b0b"
          ],
          "data": "0x0000000000000000000000000000000000000000000000008ac7230489e80000",
          "blockHash": "0xb582a9bdc7345e485fc943112d026af1f14811d871845a834e741e075a6a4c14",
          "blockNumber": "0x7cbac3",
          "transactionHash": "0x7f8178c4801f5961cd35fb5b189e7c20410881e981d2d984d7bc4d35d8a35275",
          "transactionIndex": "0x48",
          "logIndex": "0x86",
          "removed": false
        }
      ],
      "logsBloom": "0x00000000000000000000000000000000000000000000000010000000000000000000000000000400004000000000000000000000000000000000000000000000000000000000000000000008000000000000000000000000000000000000080000000000020000000000000000000800000000000000000000000010000000000000000000000000000000000000000000000000000000040000000000000000000000000000000000000000000000000000000000000000000000000000000000000002000000000080000000000000000000000000000000000000000020000000000000000000000000000000000000000000000000000000000000000000",
      "type": "0x2",
      "transactionHash": "0x7f8178c4801f5961cd35fb5b189e7c20410881e981d2d984d7bc4d35d8a35275",
      "transactionIndex": "0x48",
      "blockHash": "0xb582a9bdc7345e485fc943112d026af1f14811d871845a834e741e075a6a4c14",
      "blockNumber": "0x7cbac3",
      "gasUsed": "0x13003",
      "effectiveGasPrice": "0xd5fa48fe",
      "from": "0x009ff4940727c274424c16999f9632223d820b0b",
      "to": "0x29a5134d3b22f47ad52e0a22a63247363e9f35c2",
      "contractAddress": null
    }
  ],
  "libraries": [],
  "pending": [],
  "returns": {},
  "timestamp": 1745349121,
  "chain": 11155111,
  "commit": "42a80e9"
}