{
  "transactions": [
    {
      "hash": "0x7c1e39e843e34ed8788f6cd823734fc75e25f38a8bc87cdec6daacdd0c9ab3d4",
      "transactionType": "CALL",
      "contractName": null,
      "contractAddress": "0x103c430c9fcaa863ea90386e3d0d5cd53333876e",
      "function": "upgradeTo(address)",
      "arguments": [
        "0xCd223049c07c10bA31612D6fbCe1731E9Cc20Bbf"
      ],
      "transaction": {
        "from": "0xb0e1650a9760e0f383174af042091fc544b8356f",
        "to": "0x103c430c9fcaa863ea90386e3d0d5cd53333876e",
        "gas": "0xbc67",
        "value": "0x0",
        "input": "0x3659cfe6000000000000000000000000cd223049c07c10ba31612d6fbce1731e9cc20bbf",
        "nonce": "0x160",
        "chainId": "0xfc"
      },
      "additionalContracts": [],
      "isFixedGasLimit": false
    }
  ],
  "receipts": [
    {
      "status": "0x1",
      "cumulativeGasUsed": "0x134bc",
      "logs": [
        {
          "address": "0x103c430c9fcaa863ea90386e3d0d5cd53333876e",
          "topics": [
            "0xbc7cd75a20ee27fd9adebab32041f755214dbc6bffa90cc0225b39da2e5c2d3b",
            "0x000000000000000000000000cd223049c07c10ba31612d6fbce1731e9cc20bbf"
          ],
          "data": "0x",
          "blockHash": "0xcc9645f2692fa72f3236699e801d1abb1efbae380450df1cf7066bb3470aedee",
          "blockNumber": "0xd39bbb",
          "transactionHash": "0x7c1e39e843e34ed8788f6cd823734fc75e25f38a8bc87cdec6daacdd0c9ab3d4",
          "transactionIndex": "0x1",
          "logIndex": "0x0",
          "removed": false
        }
      ],
      "logsBloom": "0x00000000000000000000000000000000400000000000000000000000000000000000000000000000000000000000000000000000000000000000000000000000000000000000000000000000000002000000000000000000000000000000000000000000000000000000000000000000000000000000000000000800000000000000000000000002000000000000000000000000000000000000000000000000000000000000000000000000000000000000000000080000000000000000010000000020000000000000000000000000000000000000000000000040000000000000000000000000800000000000000000000000000000000000000000000000",
      "type": "0x2",
      "transactionHash": "0x7c1e39e843e34ed8788f6cd823734fc75e25f38a8bc87cdec6daacdd0c9ab3d4",
      "transactionIndex": "0x1",
      "blockHash": "0xcc9645f2692fa72f3236699e801d1abb1efbae380450df1cf7066bb3470aedee",
      "blockNumber": "0xd39bbb",
      "gasUsed": "0x80d3",
      "effectiveGasPrice": "0x10c9dd",
      "from": "0xb0e1650a9760e0f383174af042091fc544b8356f",
      "to": "0x103c430c9fcaa863ea90386e3d0d5cd53333876e",
      "contractAddress": null,
      "l1BaseFeeScalar": "0xc350",
      "l1BlobBaseFee": "0x37285",
      "l1BlobBaseFeeScalar": "0x0",
      "l1Fee": "0x1822240f150",
      "l1GasPrice": "0x4d3a0cfd1",
      "l1GasUsed": "0x640"
    }
  ],
  "libraries": [],
  "pending": [],
  "returns": {},
  "timestamp": 1734546619,
  "chain": 252,
  "commit": "cb8ebc4"
}