{
  "transactions": [
    {
      "hash": null,
      "transactionType": "CALL",
      "contractName": null,
      "contractAddress": "0x57558cb8d6005de0bae8a2789d5efaae52dba5a8",
      "function": "setEnforcedOptions((uint32,uint16,bytes)[])",
      "arguments": [
        "[(30260, 1, 0x00030100110100000000000000000000000000030d40), (30260, 2, 0x0003010011010000000000000000000000000003d090), (30280, 1, 0x00030100110100000000000000000000000000030d40), (30280, 2, 0x0003010011010000000000000000000000000003d090), (30255, 1, 0x00030100110100000000000000000000000000030d40), (30255, 2, 0x0003010011010000000000000000000000000003d090), (30274, 1, 0x00030100110100000000000000000000000000030d40), (30274, 2, 0x0003010011010000000000000000000000000003d090), (30332, 1, 0x00030100110100000000000000000000000000030d40), (30332, 2, 0x0003010011010000000000000000000000000003d090), (30339, 1, 0x00030100110100000000000000000000000000030d40), (30339, 2, 0x0003010011010000000000000000000000000003d090), (30110, 1, 0x00030100110100000000000000000000000000030d40), (30110, 2, 0x0003010011010000000000000000000000000003d090), (30109, 1, 0x00030100110100000000000000000000000000030d40), (30109, 2, 0x0003010011010000000000000000000000000003d090), (30106, 1, 0x00030100110100000000000000000000000000030d40), (30106, 2, 0x0003010011010000000000000000000000000003d090), (30102, 1, 0x00030100110100000000000000000000000000030d40), (30102, 2, 0x0003010011010000000000000000000000000003d090), (30158, 1, 0x00030100110100000000000000000000000000030d40), (30158, 2, 0x0003010011010000000000000000000000000003d090), (30101, 1, 0x00030100110100000000000000000000000000030d40), (30101, 2, 0x0003010011010000000000000000000000000003d090), (30243, 1, 0x00030100110100000000000000000000000000030d40), (30243, 2, 0x0003010011010000000000000000000000000003d090), (30184, 1, 0x00030100110100000000000000000000000000030d40), (30184, 2, 0x0003010011010000000000000000000000000003d090), (30362, 1, 0x00030100110100000000000000000000000000030d40), (30362, 2, 0x0003010011010000000000000000000000000003d090), (30183, 1, 0x00030100110100000000000000000000000000030d40), (30183, 2, 0x0003010011010000000000000000000000000003d090), (30319, 1, 0x00030100110100000000000000000000000000030d40), (30319, 2, 0x0003010011010000000000000000000000000003d090), (30324, 1, 0x00030100110100000000000000000000000000030d40), (30324, 2, 0x0003010011010000000000000000000000000003d090), (30165, 1, 0x00030100110100000000000000000000000000030d40), (30165, 2, 0x0003010011010000000000000000000000000003d090)]"
      ],
      "transaction": {
        "from": "0x45dce8e4f2dc005a5f28206a46cb034697eeda8e",
        "to": "0x57558cb8d6005de0bae8a2789d5efaae52dba5a8",
        "gas": "0x180a7a",
        "value": "0x0",
        "input": "0xb98bd0700000000000000000000000000000000000000000000000000000000000000020000000000000000000000000000000000000000000000000000000000000002600000000000000000000000000000000000000000000000000000000000004c00000000000000000000000000000000000000000000000000000000000000560000000000000000000000000000000000000000000000000000000000000060000000000000000000000000000000000000000000000000000000000000006a0000000000000000000000000000000000000000000000000000000000000074000000000000000000000000000000000000000000000000000000000000007e00000000000000000000000000000000000000000000000000000000000000880000000000000000000000000000000000000000000000000000000000000092000000000000000000000000000000000000000000000000000000000000009c00000000000000000000000000000000000000000000000000000000000000a600000000000000000000000000000000000000000000000000000000000000b000000000000000000000000000000000000000000000000000000000000000ba00000000000000000000000000000000000000000000000000000000000000c400000000000000000000000000000000000000000000000000000000000000ce00000000000000000000000000000000000000000000000000000000000000d800000000000000000000000000000000000000000000000000000000000000e200000000000000000000000000000000000000000000000000000000000000ec00000000000000000000000000000000000000000000000000000000000000f60000000000000000000000000000000000000000000000000000000000000100000000000000000000000000000000000000000000000000000000000000010a0000000000000000000000000000000000000000000000000000000000000114000000000000000000000000000000000000000000000000000000000000011e00000000000000000000000000000000000000000000000000000000000001280000000000000000000000000000000000000000000000000000000000000132000000000000000000000000000000000000000000000000000000000000013c00000000000000000000000000000000000000000000000000000000000001460000000000000000000000000000000000000000000000000000000000000150000000000000000000000000000000000000000000000000000000000000015a0000000000000000000000000000000000000000000000000000000000000164000000000000000000000000000000000000000000000000000000000000016e00000000000000000000000000000000000000000000000000000000000001780000000000000000000000000000000000000000000000000000000000000182000000000000000000000000000000000000000000000000000000000000018c000000000000000000000000000000000000000000000000000000000000019600000000000000000000000000000000000000000000000000000000000001a000000000000000000000000000000000000000000000000000000000000001aa00000000000000000000000000000000000000000000000000000000000001b400000000000000000000000000000000000000000000000000000000000001be0000000000000000000000000000000000000000000000000000000000000763400000000000000000000000000000000000000000000000000000000000000010000000000000000000000000000000000000000000000000000000000000060000000000000000000000000000000000000000000000000000000000000001600030100110100000000000000000000000000030d400000000000000000000000000000000000000000000000000000000000000000000000000000000076340000000000000000000000000000000000000000000000000000000000000002000000000000000000000000000000000000000000000000000000000000006000000000000000000000000000000000000000000000000000000000000000160003010011010000000000000000000000000003d09000000000000000000000000000000000000000000000000000000000000000000000000000000000764800000000000000000000000000000000000000000000000000000000000000010000000000000000000000000000000000000000000000000000000000000060000000000000000000000000000000000000000000000000000000000000001600030100110100000000000000000000000000030d400000000000000000000000000000000000000000000000000000000000000000000000000000000076480000000000000000000000000000000000000000000000000000000000000002000000000000000000000000000000000000000000000000000000000000006000000000000000000000000000000000000000000000000000000000000000160003010011010000000000000000000000000003d09000000000000000000000000000000000000000000000000000000000000000000000000000000000762f00000000000000000000000000000000000000000000000000000000000000010000000000000000000000000000000000000000000000000000000000000060000000000000000000000000000000000000000000000000000000000000001600030100110100000000000000000000000000030d4000000000000000000000000000000000000000000000000000000000000000000000000000000000762f0000000000000000000000000000000000000000000000000000000000000002000000000000000000000000000000000000000000000000000000000000006000000000000000000000000000000000000000000000000000000000000000160003010011010000000000000000000000000003d09000000000000000000000000000000000000000000000000000000000000000000000000000000000764200000000000000000000000000000000000000000000000000000000000000010000000000000000000000000000000000000000000000000000000000000060000000000000000000000000000000000000000000000000000000000000001600030100110100000000000000000000000000030d400000000000000000000000000000000000000000000000000000000000000000000000000000000076420000000000000000000000000000000000000000000000000000000000000002000000000000000000000000000000000000000000000000000000000000006000000000000000000000000000000000000000000000000000000000000000160003010011010000000000000000000000000003d09000000000000000000000000000000000000000000000000000000000000000000000000000000000767c00000000000000000000000000000000000000000000000000000000000000010000000000000000000000000000000000000000000000000000000000000060000000000000000000000000000000000000000000000000000000000000001600030100110100000000000000000000000000030d4000000000000000000000000000000000000000000000000000000000000000000000000000000000767c0000000000000000000000000000000000000000000000000000000000000002000000000000000000000000000000000000000000000000000000000000006000000000000000000000000000000000000000000000000000000000000000160003010011010000000000000000000000000003d09000000000000000000000000000000000000000000000000000000000000000000000000000000000768300000000000000000000000000000000000000000000000000000000000000010000000000000000000000000000000000000000000000000000000000000060000000000000000000000000000000000000000000000000000000000000001600030100110100000000000000000000000000030d400000000000000000000000000000000000000000000000000000000000000000000000000000000076830000000000000000000000000000000000000000000000000000000000000002000000000000000000000000000000000000000000000000000000000000006000000000000000000000000000000000000000000000000000000000000000160003010011010000000000000000000000000003d09000000000000000000000000000000000000000000000000000000000000000000000000000000000759e00000000000000000000000000000000000000000000000000000000000000010000000000000000000000000000000000000000000000000000000000000060000000000000000000000000000000000000000000000000000000000000001600030100110100000000000000000000000000030d4000000000000000000000000000000000000000000000000000000000000000000000000000000000759e0000000000000000000000000000000000000000000000000000000000000002000000000000000000000000000000000000000000000000000000000000006000000000000000000000000000000000000000000000000000000000000000160003010011010000000000000000000000000003d09000000000000000000000000000000000000000000000000000000000000000000000000000000000759d00000000000000000000000000000000000000000000000000000000000000010000000000000000000000000000000000000000000000000000000000000060000000000000000000000000000000000000000000000000000000000000001600030100110100000000000000000000000000030d4000000000000000000000000000000000000000000000000000000000000000000000000000000000759d0000000000000000000000000000000000000000000000000000000000000002000000000000000000000000000000000000000000000000000000000000006000000000000000000000000000000000000000000000000000000000000000160003010011010000000000000000000000000003d09000000000000000000000000000000000000000000000000000000000000000000000000000000000759a00000000000000000000000000000000000000000000000000000000000000010000000000000000000000000000000000000000000000000000000000000060000000000000000000000000000000000000000000000000000000000000001600030100110100000000000000000000000000030d4000000000000000000000000000000000000000000000000000000000000000000000000000000000759a0000000000000000000000000000000000000000000000000000000000000002000000000000000000000000000000000000000000000000000000000000006000000000000000000000000000000000000000000000000000000000000000160003010011010000000000000000000000000003d09000000000000000000000000000000000000000000000000000000000000000000000000000000000759600000000000000000000000000000000000000000000000000000000000000010000000000000000000000000000000000000000000000000000000000000060000000000000000000000000000000000000000000000000000000000000001600030100110100000000000000000000000000030d400000000000000000000000000000000000000000000000000000000000000000000000000000000075960000000000000000000000000000000000000000000000000000000000000002000000000000000000000000000000000000000000000000000000000000006000000000000000000000000000000000000000000000000000000000000000160003010011010000000000000000000000000003d0900000000000000000000000000000000000000000000000000000000000000000000000000000000075ce00000000000000000000000000000000000000000000000000000000000000010000000000000000000000000000000000000000000000000000000000000060000000000000000000000000000000000000000000000000000000000000001600030100110100000000000000000000000000030d400000000000000000000000000000000000000000000000000000000000000000000000000000000075ce0000000000000000000000000000000000000000000000000000000000000002000000000000000000000000000000000000000000000000000000000000006000000000000000000000000000000000000000000000000000000000000000160003010011010000000000000000000000000003d09000000000000000000000000000000000000000000000000000000000000000000000000000000000759500000000000000000000000000000000000000000000000000000000000000010000000000000000000000000000000000000000000000000000000000000060000000000000000000000000000000000000000000000000000000000000001600030100110100000000000000000000000000030d400000000000000000000000000000000000000000000000000000000000000000000000000000000075950000000000000000000000000000000000000000000000000000000000000002000000000000000000000000000000000000000000000000000000000000006000000000000000000000000000000000000000000000000000000000000000160003010011010000000000000000000000000003d09000000000000000000000000000000000000000000000000000000000000000000000000000000000762300000000000000000000000000000000000000000000000000000000000000010000000000000000000000000000000000000000000000000000000000000060000000000000000000000000000000000000000000000000000000000000001600030100110100000000000000000000000000030d400000000000000000000000000000000000000000000000000000000000000000000000000000000076230000000000000000000000000000000000000000000000000000000000000002000000000000000000000000000000000000000000000000000000000000006000000000000000000000000000000000000000000000000000000000000000160003010011010000000000000000000000000003d0900000000000000000000000000000000000000000000000000000000000000000000000000000000075e800000000000000000000000000000000000000000000000000000000000000010000000000000000000000000000000000000000000000000000000000000060000000000000000000000000000000000000000000000000000000000000001600030100110100000000000000000000000000030d400000000000000000000000000000000000000000000000000000000000000000000000000000000075e80000000000000000000000000000000000000000000000000000000000000002000000000000000000000000000000000000000000000000000000000000006000000000000000000000000000000000000000000000000000000000000000160003010011010000000000000000000000000003d09000000000000000000000000000000000000000000000000000000000000000000000000000000000769a00000000000000000000000000000000000000000000000000000000000000010000000000000000000000000000000000000000000000000000000000000060000000000000000000000000000000000000000000000000000000000000001600030100110100000000000000000000000000030d4000000000000000000000000000000000000000000000000000000000000000000000000000000000769a0000000000000000000000000000000000000000000000000000000000000002000000000000000000000000000000000000000000000000000000000000006000000000000000000000000000000000000000000000000000000000000000160003010011010000000000000000000000000003d0900000000000000000000000000000000000000000000000000000000000000000000000000000000075e700000000000000000000000000000000000000000000000000000000000000010000000000000000000000000000000000000000000000000000000000000060000000000000000000000000000000000000000000000000000000000000001600030100110100000000000000000000000000030d400000000000000000000000000000000000000000000000000000000000000000000000000000000075e70000000000000000000000000000000000000000000000000000000000000002000000000000000000000000000000000000000000000000000000000000006000000000000000000000000000000000000000000000000000000000000000160003010011010000000000000000000000000003d09000000000000000000000000000000000000000000000000000000000000000000000000000000000766f00000000000000000000000000000000000000000000000000000000000000010000000000000000000000000000000000000000000000000000000000000060000000000000000000000000000000000000000000000000000000000000001600030100110100000000000000000000000000030d4000000000000000000000000000000000000000000000000000000000000000000000000000000000766f0000000000000000000000000000000000000000000000000000000000000002000000000000000000000000000000000000000000000000000000000000006000000000000000000000000000000000000000000000000000000000000000160003010011010000000000000000000000000003d09000000000000000000000000000000000000000000000000000000000000000000000000000000000767400000000000000000000000000000000000000000000000000000000000000010000000000000000000000000000000000000000000000000000000000000060000000000000000000000000000000000000000000000000000000000000001600030100110100000000000000000000000000030d400000000000000000000000000000000000000000000000000000000000000000000000000000000076740000000000000000000000000000000000000000000000000000000000000002000000000000000000000000000000000000000000000000000000000000006000000000000000000000000000000000000000000000000000000000000000160003010011010000000000000000000000000003d0900000000000000000000000000000000000000000000000000000000000000000000000000000000075d500000000000000000000000000000000000000000000000000000000000000010000000000000000000000000000000000000000000000000000000000000060000000000000000000000000000000000000000000000000000000000000001600030100110100000000000000000000000000030d400000000000000000000000000000000000000000000000000000000000000000000000000000000075d50000000000000000000000000000000000000000000000000000000000000002000000000000000000000000000000000000000000000000000000000000006000000000000000000000000000000000000000000000000000000000000000160003010011010000000000000000000000000003d09000000000000000000000",
        "nonce": "0x9",
        "chainId": "0xa"
      },
      "additionalContracts": [],
      "isFixedGasLimit": false
    },
    {
      "hash": null,
      "transactionType": "CALL",
      "contractName": null,
      "contractAddress": "0x57558cb8d6005de0bae8a2789d5efaae52dba5a8",
      "function": "setPeer(uint32,bytes32)",
      "arguments": [
        "30260",
        "0x00000000000000000000000057558cb8d6005de0bae8a2789d5efaae52dba5a8"
      ],
      "transaction": {
        "from": "0x45dce8e4f2dc005a5f28206a46cb034697eeda8e",
        "to": "0x57558cb8d6005de0bae8a2789d5efaae52dba5a8",
        "gas": "0x128be",
        "value": "0x0",
        "input": "0x3400288b000000000000000000000000000000000000000000000000000000000000763400000000000000000000000057558cb8d6005de0bae8a2789d5efaae52dba5a8",
        "nonce": "0xa",
        "chainId": "0xa"
      },
      "additionalContracts": [],
      "isFixedGasLimit": false
    },
    {
      "hash": null,
      "transactionType": "CALL",
      "contractName": null,
      "contractAddress": "0x57558cb8d6005de0bae8a2789d5efaae52dba5a8",
      "function": "setPeer(uint32,bytes32)",
      "arguments": [
        "30280",
        "0x00000000000000000000000057558cb8d6005de0bae8a2789d5efaae52dba5a8"
      ],
      "transaction": {
        "from": "0x45dce8e4f2dc005a5f28206a46cb034697eeda8e",
        "to": "0x57558cb8d6005de0bae8a2789d5efaae52dba5a8",
        "gas": "0x128be",
        "value": "0x0",
        "input": "0x3400288b000000000000000000000000000000000000000000000000000000000000764800000000000000000000000057558cb8d6005de0bae8a2789d5efaae52dba5a8",
        "nonce": "0xb",
        "chainId": "0xa"
      },
      "additionalContracts": [],
      "isFixedGasLimit": false
    },
    {
      "hash": null,
      "transactionType": "CALL",
      "contractName": null,
      "contractAddress": "0x57558cb8d6005de0bae8a2789d5efaae52dba5a8",
      "function": "setPeer(uint32,bytes32)",
      "arguments": [
        "30255",
        "0x00000000000000000000000057558cb8d6005de0bae8a2789d5efaae52dba5a8"
      ],
      "transaction": {
        "from": "0x45dce8e4f2dc005a5f28206a46cb034697eeda8e",
        "to": "0x57558cb8d6005de0bae8a2789d5efaae52dba5a8",
        "gas": "0x128be",
        "value": "0x0",
        "input": "0x3400288b000000000000000000000000000000000000000000000000000000000000762f00000000000000000000000057558cb8d6005de0bae8a2789d5efaae52dba5a8",
        "nonce": "0xc",
        "chainId": "0xa"
      },
      "additionalContracts": [],
      "isFixedGasLimit": false
    },
    {
      "hash": null,
      "transactionType": "CALL",
      "contractName": null,
      "contractAddress": "0x57558cb8d6005de0bae8a2789d5efaae52dba5a8",
      "function": "setPeer(uint32,bytes32)",
      "arguments": [
        "30274",
        "0x00000000000000000000000057558cb8d6005de0bae8a2789d5efaae52dba5a8"
      ],
      "transaction": {
        "from": "0x45dce8e4f2dc005a5f28206a46cb034697eeda8e",
        "to": "0x57558cb8d6005de0bae8a2789d5efaae52dba5a8",
        "gas": "0x128be",
        "value": "0x0",
        "input": "0x3400288b000000000000000000000000000000000000000000000000000000000000764200000000000000000000000057558cb8d6005de0bae8a2789d5efaae52dba5a8",
        "nonce": "0xd",
        "chainId": "0xa"
      },
      "additionalContracts": [],
      "isFixedGasLimit": false
    },
    {
      "hash": null,
      "transactionType": "CALL",
      "contractName": null,
      "contractAddress": "0x57558cb8d6005de0bae8a2789d5efaae52dba5a8",
      "function": "setPeer(uint32,bytes32)",
      "arguments": [
        "30332",
        "0x00000000000000000000000057558cb8d6005de0bae8a2789d5efaae52dba5a8"
      ],
      "transaction": {
        "from": "0x45dce8e4f2dc005a5f28206a46cb034697eeda8e",
        "to": "0x57558cb8d6005de0bae8a2789d5efaae52dba5a8",
        "gas": "0x128be",
        "value": "0x0",
        "input": "0x3400288b000000000000000000000000000000000000000000000000000000000000767c00000000000000000000000057558cb8d6005de0bae8a2789d5efaae52dba5a8",
        "nonce": "0xe",
        "chainId": "0xa"
      },
      "additionalContracts": [],
      "isFixedGasLimit": false
    },
    {
      "hash": null,
      "transactionType": "CALL",
      "contractName": null,
      "contractAddress": "0x57558cb8d6005de0bae8a2789d5efaae52dba5a8",
      "function": "setPeer(uint32,bytes32)",
      "arguments": [
        "30339",
        "0x00000000000000000000000057558cb8d6005de0bae8a2789d5efaae52dba5a8"
      ],
      "transaction": {
        "from": "0x45dce8e4f2dc005a5f28206a46cb034697eeda8e",
        "to": "0x57558cb8d6005de0bae8a2789d5efaae52dba5a8",
        "gas": "0x128be",
        "value": "0x0",
        "input": "0x3400288b000000000000000000000000000000000000000000000000000000000000768300000000000000000000000057558cb8d6005de0bae8a2789d5efaae52dba5a8",
        "nonce": "0xf",
        "chainId": "0xa"
      },
      "additionalContracts": [],
      "isFixedGasLimit": false
    },
    {
      "hash": null,
      "transactionType": "CALL",
      "contractName": null,
      "contractAddress": "0x57558cb8d6005de0bae8a2789d5efaae52dba5a8",
      "function": "setPeer(uint32,bytes32)",
      "arguments": [
        "30110",
        "0x00000000000000000000000057558cb8d6005de0bae8a2789d5efaae52dba5a8"
      ],
      "transaction": {
        "from": "0x45dce8e4f2dc005a5f28206a46cb034697eeda8e",
        "to": "0x57558cb8d6005de0bae8a2789d5efaae52dba5a8",
        "gas": "0x128be",
        "value": "0x0",
        "input": "0x3400288b000000000000000000000000000000000000000000000000000000000000759e00000000000000000000000057558cb8d6005de0bae8a2789d5efaae52dba5a8",
        "nonce": "0x10",
        "chainId": "0xa"
      },
      "additionalContracts": [],
      "isFixedGasLimit": false
    },
    {
      "hash": null,
      "transactionType": "CALL",
      "contractName": null,
      "contractAddress": "0x57558cb8d6005de0bae8a2789d5efaae52dba5a8",
      "function": "setPeer(uint32,bytes32)",
      "arguments": [
        "30109",
        "0x00000000000000000000000057558cb8d6005de0bae8a2789d5efaae52dba5a8"
      ],
      "transaction": {
        "from": "0x45dce8e4f2dc005a5f28206a46cb034697eeda8e",
        "to": "0x57558cb8d6005de0bae8a2789d5efaae52dba5a8",
        "gas": "0x128be",
        "value": "0x0",
        "input": "0x3400288b000000000000000000000000000000000000000000000000000000000000759d00000000000000000000000057558cb8d6005de0bae8a2789d5efaae52dba5a8",
        "nonce": "0x11",
        "chainId": "0xa"
      },
      "additionalContracts": [],
      "isFixedGasLimit": false
    },
    {
      "hash": null,
      "transactionType": "CALL",
      "contractName": null,
      "contractAddress": "0x57558cb8d6005de0bae8a2789d5efaae52dba5a8",
      "function": "setPeer(uint32,bytes32)",
      "arguments": [
        "30106",
        "0x00000000000000000000000057558cb8d6005de0bae8a2789d5efaae52dba5a8"
      ],
      "transaction": {
        "from": "0x45dce8e4f2dc005a5f28206a46cb034697eeda8e",
        "to": "0x57558cb8d6005de0bae8a2789d5efaae52dba5a8",
        "gas": "0x128be",
        "value": "0x0",
        "input": "0x3400288b000000000000000000000000000000000000000000000000000000000000759a00000000000000000000000057558cb8d6005de0bae8a2789d5efaae52dba5a8",
        "nonce": "0x12",
        "chainId": "0xa"
      },
      "additionalContracts": [],
      "isFixedGasLimit": false
    },
    {
      "hash": null,
      "transactionType": "CALL",
      "contractName": null,
      "contractAddress": "0x57558cb8d6005de0bae8a2789d5efaae52dba5a8",
      "function": "setPeer(uint32,bytes32)",
      "arguments": [
        "30102",
        "0x00000000000000000000000057558cb8d6005de0bae8a2789d5efaae52dba5a8"
      ],
      "transaction": {
        "from": "0x45dce8e4f2dc005a5f28206a46cb034697eeda8e",
        "to": "0x57558cb8d6005de0bae8a2789d5efaae52dba5a8",
        "gas": "0x128be",
        "value": "0x0",
        "input": "0x3400288b000000000000000000000000000000000000000000000000000000000000759600000000000000000000000057558cb8d6005de0bae8a2789d5efaae52dba5a8",
        "nonce": "0x13",
        "chainId": "0xa"
      },
      "additionalContracts": [],
      "isFixedGasLimit": false
    },
    {
      "hash": null,
      "transactionType": "CALL",
      "contractName": null,
      "contractAddress": "0x57558cb8d6005de0bae8a2789d5efaae52dba5a8",
      "function": "setPeer(uint32,bytes32)",
      "arguments": [
        "30158",
        "0x00000000000000000000000057558cb8d6005de0bae8a2789d5efaae52dba5a8"
      ],
      "transaction": {
        "from": "0x45dce8e4f2dc005a5f28206a46cb034697eeda8e",
        "to": "0x57558cb8d6005de0bae8a2789d5efaae52dba5a8",
        "gas": "0x128be",
        "value": "0x0",
        "input": "0x3400288b00000000000000000000000000000000000000000000000000000000000075ce00000000000000000000000057558cb8d6005de0bae8a2789d5efaae52dba5a8",
        "nonce": "0x14",
        "chainId": "0xa"
      },
      "additionalContracts": [],
      "isFixedGasLimit": false
    },
    {
      "hash": null,
      "transactionType": "CALL",
      "contractName": null,
      "contractAddress": "0x57558cb8d6005de0bae8a2789d5efaae52dba5a8",
      "function": "setPeer(uint32,bytes32)",
      "arguments": [
        "30101",
        "0x00000000000000000000000057558cb8d6005de0bae8a2789d5efaae52dba5a8"
      ],
      "transaction": {
        "from": "0x45dce8e4f2dc005a5f28206a46cb034697eeda8e",
        "to": "0x57558cb8d6005de0bae8a2789d5efaae52dba5a8",
        "gas": "0x128be",
        "value": "0x0",
        "input": "0x3400288b000000000000000000000000000000000000000000000000000000000000759500000000000000000000000057558cb8d6005de0bae8a2789d5efaae52dba5a8",
        "nonce": "0x15",
        "chainId": "0xa"
      },
      "additionalContracts": [],
      "isFixedGasLimit": false
    },
    {
      "hash": null,
      "transactionType": "CALL",
      "contractName": null,
      "contractAddress": "0x57558cb8d6005de0bae8a2789d5efaae52dba5a8",
      "function": "setPeer(uint32,bytes32)",
      "arguments": [
        "30243",
        "0x00000000000000000000000057558cb8d6005de0bae8a2789d5efaae52dba5a8"
      ],
      "transaction": {
        "from": "0x45dce8e4f2dc005a5f28206a46cb034697eeda8e",
        "to": "0x57558cb8d6005de0bae8a2789d5efaae52dba5a8",
        "gas": "0x128be",
        "value": "0x0",
        "input": "0x3400288b000000000000000000000000000000000000000000000000000000000000762300000000000000000000000057558cb8d6005de0bae8a2789d5efaae52dba5a8",
        "nonce": "0x16",
        "chainId": "0xa"
      },
      "additionalContracts": [],
      "isFixedGasLimit": false
    },
    {
      "hash": null,
      "transactionType": "CALL",
      "contractName": null,
      "contractAddress": "0x57558cb8d6005de0bae8a2789d5efaae52dba5a8",
      "function": "setPeer(uint32,bytes32)",
      "arguments": [
        "30184",
        "0x00000000000000000000000057558cb8d6005de0bae8a2789d5efaae52dba5a8"
      ],
      "transaction": {
        "from": "0x45dce8e4f2dc005a5f28206a46cb034697eeda8e",
        "to": "0x57558cb8d6005de0bae8a2789d5efaae52dba5a8",
        "gas": "0x128be",
        "value": "0x0",
        "input": "0x3400288b00000000000000000000000000000000000000000000000000000000000075e800000000000000000000000057558cb8d6005de0bae8a2789d5efaae52dba5a8",
        "nonce": "0x17",
        "chainId": "0xa"
      },
      "additionalContracts": [],
      "isFixedGasLimit": false
    },
    {
      "hash": null,
      "transactionType": "CALL",
      "contractName": null,
      "contractAddress": "0x57558cb8d6005de0bae8a2789d5efaae52dba5a8",
      "function": "setPeer(uint32,bytes32)",
      "arguments": [
        "30362",
        "0x00000000000000000000000057558cb8d6005de0bae8a2789d5efaae52dba5a8"
      ],
      "transaction": {
        "from": "0x45dce8e4f2dc005a5f28206a46cb034697eeda8e",
        "to": "0x57558cb8d6005de0bae8a2789d5efaae52dba5a8",
        "gas": "0x128be",
        "value": "0x0",
        "input": "0x3400288b000000000000000000000000000000000000000000000000000000000000769a00000000000000000000000057558cb8d6005de0bae8a2789d5efaae52dba5a8",
        "nonce": "0x18",
        "chainId": "0xa"
      },
      "additionalContracts": [],
      "isFixedGasLimit": false
    },
    {
      "hash": null,
      "transactionType": "CALL",
      "contractName": null,
      "contractAddress": "0x57558cb8d6005de0bae8a2789d5efaae52dba5a8",
      "function": "setPeer(uint32,bytes32)",
      "arguments": [
        "30183",
        "0x0000000000000000000000006185334f1542a9966cbad694577ffbede3dd1f1f"
      ],
      "transaction": {
        "from": "0x45dce8e4f2dc005a5f28206a46cb034697eeda8e",
        "to": "0x57558cb8d6005de0bae8a2789d5efaae52dba5a8",
        "gas": "0x13a45",
        "value": "0x0",
        "input": "0x3400288b00000000000000000000000000000000000000000000000000000000000075e70000000000000000000000006185334f1542a9966cbad694577ffbede3dd1f1f",
        "nonce": "0x19",
        "chainId": "0xa"
      },
      "additionalContracts": [],
      "isFixedGasLimit": false
    },
    {
      "hash": null,
      "transactionType": "CALL",
      "contractName": null,
      "contractAddress": "0x57558cb8d6005de0bae8a2789d5efaae52dba5a8",
      "function": "setPeer(uint32,bytes32)",
      "arguments": [
        "30319",
        "0x00000000000000000000000057558cb8d6005de0bae8a2789d5efaae52dba5a8"
      ],
      "transaction": {
        "from": "0x45dce8e4f2dc005a5f28206a46cb034697eeda8e",
        "to": "0x57558cb8d6005de0bae8a2789d5efaae52dba5a8",
        "gas": "0x128be",
        "value": "0x0",
        "input": "0x3400288b000000000000000000000000000000000000000000000000000000000000766f00000000000000000000000057558cb8d6005de0bae8a2789d5efaae52dba5a8",
        "nonce": "0x1a",
        "chainId": "0xa"
      },
      "additionalContracts": [],
      "isFixedGasLimit": false
    },
    {
      "hash": null,
      "transactionType": "CALL",
      "contractName": null,
      "contractAddress": "0x57558cb8d6005de0bae8a2789d5efaae52dba5a8",
      "function": "setPeer(uint32,bytes32)",
      "arguments": [
        "30324",
        "0x000000000000000000000000bd39033994f5324fe8d50bb524396a78ff9dfe22"
      ],
      "transaction": {
        "from": "0x45dce8e4f2dc005a5f28206a46cb034697eeda8e",
        "to": "0x57558cb8d6005de0bae8a2789d5efaae52dba5a8",
        "gas": "0x13a45",
        "value": "0x0",
        "input": "0x3400288b0000000000000000000000000000000000000000000000000000000000007674000000000000000000000000bd39033994f5324fe8d50bb524396a78ff9dfe22",
        "nonce": "0x1b",
        "chainId": "0xa"
      },
      "additionalContracts": [],
      "isFixedGasLimit": false
    },
    {
      "hash": null,
      "transactionType": "CALL",
      "contractName": null,
      "contractAddress": "0x57558cb8d6005de0bae8a2789d5efaae52dba5a8",
      "function": "setPeer(uint32,bytes32)",
      "arguments": [
        "30165",
        "0x0000000000000000000000003fc877008e396fdd7f9ee3deb2e8a54d54da705a"
      ],
      "transaction": {
        "from": "0x45dce8e4f2dc005a5f28206a46cb034697eeda8e",
        "to": "0x57558cb8d6005de0bae8a2789d5efaae52dba5a8",
        "gas": "0x128be",
        "value": "0x0",
        "input": "0x3400288b00000000000000000000000000000000000000000000000000000000000075d50000000000000000000000003fc877008e396fdd7f9ee3deb2e8a54d54da705a",
        "nonce": "0x1c",
        "chainId": "0xa"
      },
      "additionalContracts": [],
      "isFixedGasLimit": false
    },
    {
      "hash": null,
      "transactionType": "CALL",
      "contractName": null,
      "contractAddress": "0x1a44076050125825900e736c501f859c50fe728c",
      "function": "setConfig(address,address,(uint32,uint32,bytes)[])",
      "arguments": [
        "0x57558Cb8d6005DE0BAe8a2789d5EfaaE52dba5a8",
        "0x1322871e4ab09Bc7f5717189434f97bBD9546e95",
        "[(30101, 2, 0x0000000000000000000000000000000000000000000000000000000000000020000000000000000000000000000000000000000000000000000000000000000000000000000000000000000000000000000000000000000000000000000000030000000000000000000000000000000000000000000000000000000000000000000000000000000000000000000000000000000000000000000000000000000000000000000000000000000000000000000000000000000000000000000000c0000000000000000000000000000000000000000000000000000000000000014000000000000000000000000000000000000000000000000000000000000000030000000000000000000000006a02d83e8d433304bba74ef1c4279139581871420000000000000000000000007240264781aa2f97cb994c6231297a86064832420000000000000000000000009e930731cb4a6bf7ecc11f695a295c60bdd212eb0000000000000000000000000000000000000000000000000000000000000000)]"
      ],
      "transaction": {
        "from": "0x45dce8e4f2dc005a5f28206a46cb034697eeda8e",
        "to": "0x1a44076050125825900e736c501f859c50fe728c",
        "gas": "0x3a0bd",
        "value": "0x0",
        "input": "0x6dbd9f9000000000000000000000000057558cb8d6005de0bae8a2789d5efaae52dba5a80000000000000000000000001322871e4ab09bc7f5717189434f97bbd9546e9500000000000000000000000000000000000000000000000000000000000000600000000000000000000000000000000000000000000000000000000000000001000000000000000000000000000000000000000000000000000000000000002000000000000000000000000000000000000000000000000000000000000075950000000000000000000000000000000000000000000000000000000000000002000000000000000000000000000000000000000000000000000000000000006000000000000000000000000000000000000000000000000000000000000001800000000000000000000000000000000000000000000000000000000000000020000000000000000000000000000000000000000000000000000000000000000000000000000000000000000000000000000000000000000000000000000000030000000000000000000000000000000000000000000000000000000000000000000000000000000000000000000000000000000000000000000000000000000000000000000000000000000000000000000000000000000000000000000000c0000000000000000000000000000000000000000000000000000000000000014000000000000000000000000000000000000000000000000000000000000000030000000000000000000000006a02d83e8d433304bba74ef1c4279139581871420000000000000000000000007240264781aa2f97cb994c6231297a86064832420000000000000000000000009e930731cb4a6bf7ecc11f695a295c60bdd212eb0000000000000000000000000000000000000000000000000000000000000000",
        "nonce": "0x1d",
        "chainId": "0xa"
      },
      "additionalContracts": [],
      "isFixedGasLimit": false
    },
    {
      "hash": null,
      "transactionType": "CALL",
      "contractName": null,
      "contractAddress": "0x1a44076050125825900e736c501f859c50fe728c",
      "function": "setConfig(address,address,(uint32,uint32,bytes)[])",
      "arguments": [
        "0x57558Cb8d6005DE0BAe8a2789d5EfaaE52dba5a8",
        "0x3c4962Ff6258dcfCafD23a814237B7d6Eb712063",
        "[(30101, 2, 0x0000000000000000000000000000000000000000000000000000000000000020000000000000000000000000000000000000000000000000000000000000000000000000000000000000000000000000000000000000000000000000000000030000000000000000000000000000000000000000000000000000000000000000000000000000000000000000000000000000000000000000000000000000000000000000000000000000000000000000000000000000000000000000000000c0000000000000000000000000000000000000000000000000000000000000014000000000000000000000000000000000000000000000000000000000000000030000000000000000000000006a02d83e8d433304bba74ef1c4279139581871420000000000000000000000007240264781aa2f97cb994c6231297a86064832420000000000000000000000009e930731cb4a6bf7ecc11f695a295c60bdd212eb0000000000000000000000000000000000000000000000000000000000000000)]"
      ],
      "transaction": {
        "from": "0x45dce8e4f2dc005a5f28206a46cb034697eeda8e",
        "to": "0x1a44076050125825900e736c501f859c50fe728c",
        "gas": "0x39f54",
        "value": "0x0",
        "input": "0x6dbd9f9000000000000000000000000057558cb8d6005de0bae8a2789d5efaae52dba5a80000000000000000000000003c4962ff6258dcfcafd23a814237b7d6eb71206300000000000000000000000000000000000000000000000000000000000000600000000000000000000000000000000000000000000000000000000000000001000000000000000000000000000000000000000000000000000000000000002000000000000000000000000000000000000000000000000000000000000075950000000000000000000000000000000000000000000000000000000000000002000000000000000000000000000000000000000000000000000000000000006000000000000000000000000000000000000000000000000000000000000001800000000000000000000000000000000000000000000000000000000000000020000000000000000000000000000000000000000000000000000000000000000000000000000000000000000000000000000000000000000000000000000000030000000000000000000000000000000000000000000000000000000000000000000000000000000000000000000000000000000000000000000000000000000000000000000000000000000000000000000000000000000000000000000000c0000000000000000000000000000000000000000000000000000000000000014000000000000000000000000000000000000000000000000000000000000000030000000000000000000000006a02d83e8d433304bba74ef1c4279139581871420000000000000000000000007240264781aa2f97cb994c6231297a86064832420000000000000000000000009e930731cb4a6bf7ecc11f695a295c60bdd212eb0000000000000000000000000000000000000000000000000000000000000000",
        "nonce": "0x1e",
        "chainId": "0xa"
      },
      "additionalContracts": [],
      "isFixedGasLimit": false
    },
    {
      "hash": null,
      "transactionType": "CALL",
      "contractName": null,
      "contractAddress": "0x1a44076050125825900e736c501f859c50fe728c",
      "function": "setConfig(address,address,(uint32,uint32,bytes)[])",
      "arguments": [
        "0x57558Cb8d6005DE0BAe8a2789d5EfaaE52dba5a8",
        "0x1322871e4ab09Bc7f5717189434f97bBD9546e95",
        "[(30243, 2, 0x0000000000000000000000000000000000000000000000000000000000000020000000000000000000000000000000000000000000000000000000000000000000000000000000000000000000000000000000000000000000000000000000030000000000000000000000000000000000000000000000000000000000000000000000000000000000000000000000000000000000000000000000000000000000000000000000000000000000000000000000000000000000000000000000c0000000000000000000000000000000000000000000000000000000000000014000000000000000000000000000000000000000000000000000000000000000030000000000000000000000006a02d83e8d433304bba74ef1c4279139581871420000000000000000000000007240264781aa2f97cb994c6231297a86064832420000000000000000000000009e930731cb4a6bf7ecc11f695a295c60bdd212eb0000000000000000000000000000000000000000000000000000000000000000)]"
      ],
      "transaction": {
        "from": "0x45dce8e4f2dc005a5f28206a46cb034697eeda8e",
        "to": "0x1a44076050125825900e736c501f859c50fe728c",
        "gas": "0x3a0bd",
        "value": "0x0",
        "input": "0x6dbd9f9000000000000000000000000057558cb8d6005de0bae8a2789d5efaae52dba5a80000000000000000000000001322871e4ab09bc7f5717189434f97bbd9546e9500000000000000000000000000000000000000000000000000000000000000600000000000000000000000000000000000000000000000000000000000000001000000000000000000000000000000000000000000000000000000000000002000000000000000000000000000000000000000000000000000000000000076230000000000000000000000000000000000000000000000000000000000000002000000000000000000000000000000000000000000000000000000000000006000000000000000000000000000000000000000000000000000000000000001800000000000000000000000000000000000000000000000000000000000000020000000000000000000000000000000000000000000000000000000000000000000000000000000000000000000000000000000000000000000000000000000030000000000000000000000000000000000000000000000000000000000000000000000000000000000000000000000000000000000000000000000000000000000000000000000000000000000000000000000000000000000000000000000c0000000000000000000000000000000000000000000000000000000000000014000000000000000000000000000000000000000000000000000000000000000030000000000000000000000006a02d83e8d433304bba74ef1c4279139581871420000000000000000000000007240264781aa2f97cb994c6231297a86064832420000000000000000000000009e930731cb4a6bf7ecc11f695a295c60bdd212eb0000000000000000000000000000000000000000000000000000000000000000",
        "nonce": "0x1f",
        "chainId": "0xa"
      },
      "additionalContracts": [],
      "isFixedGasLimit": false
    },
    {
      "hash": null,
      "transactionType": "CALL",
      "contractName": null,
      "contractAddress": "0x1a44076050125825900e736c501f859c50fe728c",
      "function": "setConfig(address,address,(uint32,uint32,bytes)[])",
      "arguments": [
        "0x57558Cb8d6005DE0BAe8a2789d5EfaaE52dba5a8",
        "0x3c4962Ff6258dcfCafD23a814237B7d6Eb712063",
        "[(30243, 2, 0x0000000000000000000000000000000000000000000000000000000000000020000000000000000000000000000000000000000000000000000000000000000000000000000000000000000000000000000000000000000000000000000000030000000000000000000000000000000000000000000000000000000000000000000000000000000000000000000000000000000000000000000000000000000000000000000000000000000000000000000000000000000000000000000000c0000000000000000000000000000000000000000000000000000000000000014000000000000000000000000000000000000000000000000000000000000000030000000000000000000000006a02d83e8d433304bba74ef1c4279139581871420000000000000000000000007240264781aa2f97cb994c6231297a86064832420000000000000000000000009e930731cb4a6bf7ecc11f695a295c60bdd212eb0000000000000000000000000000000000000000000000000000000000000000)]"
      ],
      "transaction": {
        "from": "0x45dce8e4f2dc005a5f28206a46cb034697eeda8e",
        "to": "0x1a44076050125825900e736c501f859c50fe728c",
        "gas": "0x39f54",
        "value": "0x0",
        "input": "0x6dbd9f9000000000000000000000000057558cb8d6005de0bae8a2789d5efaae52dba5a80000000000000000000000003c4962ff6258dcfcafd23a814237b7d6eb71206300000000000000000000000000000000000000000000000000000000000000600000000000000000000000000000000000000000000000000000000000000001000000000000000000000000000000000000000000000000000000000000002000000000000000000000000000000000000000000000000000000000000076230000000000000000000000000000000000000000000000000000000000000002000000000000000000000000000000000000000000000000000000000000006000000000000000000000000000000000000000000000000000000000000001800000000000000000000000000000000000000000000000000000000000000020000000000000000000000000000000000000000000000000000000000000000000000000000000000000000000000000000000000000000000000000000000030000000000000000000000000000000000000000000000000000000000000000000000000000000000000000000000000000000000000000000000000000000000000000000000000000000000000000000000000000000000000000000000c0000000000000000000000000000000000000000000000000000000000000014000000000000000000000000000000000000000000000000000000000000000030000000000000000000000006a02d83e8d433304bba74ef1c4279139581871420000000000000000000000007240264781aa2f97cb994c6231297a86064832420000000000000000000000009e930731cb4a6bf7ecc11f695a295c60bdd212eb0000000000000000000000000000000000000000000000000000000000000000",
        "nonce": "0x20",
        "chainId": "0xa"
      },
      "additionalContracts": [],
      "isFixedGasLimit": false
    },
    {
      "hash": null,
      "transactionType": "CALL",
      "contractName": null,
      "contractAddress": "0x1a44076050125825900e736c501f859c50fe728c",
      "function": "setConfig(address,address,(uint32,uint32,bytes)[])",
      "arguments": [
        "0x57558Cb8d6005DE0BAe8a2789d5EfaaE52dba5a8",
        "0x1322871e4ab09Bc7f5717189434f97bBD9546e95",
        "[(30184, 2, 0x0000000000000000000000000000000000000000000000000000000000000020000000000000000000000000000000000000000000000000000000000000000000000000000000000000000000000000000000000000000000000000000000030000000000000000000000000000000000000000000000000000000000000000000000000000000000000000000000000000000000000000000000000000000000000000000000000000000000000000000000000000000000000000000000c0000000000000000000000000000000000000000000000000000000000000014000000000000000000000000000000000000000000000000000000000000000030000000000000000000000006a02d83e8d433304bba74ef1c4279139581871420000000000000000000000007240264781aa2f97cb994c6231297a86064832420000000000000000000000009e930731cb4a6bf7ecc11f695a295c60bdd212eb0000000000000000000000000000000000000000000000000000000000000000)]"
      ],
      "transaction": {
        "from": "0x45dce8e4f2dc005a5f28206a46cb034697eeda8e",
        "to": "0x1a44076050125825900e736c501f859c50fe728c",
        "gas": "0x3a0bd",
        "value": "0x0",
        "input": "0x6dbd9f9000000000000000000000000057558cb8d6005de0bae8a2789d5efaae52dba5a80000000000000000000000001322871e4ab09bc7f5717189434f97bbd9546e9500000000000000000000000000000000000000000000000000000000000000600000000000000000000000000000000000000000000000000000000000000001000000000000000000000000000000000000000000000000000000000000002000000000000000000000000000000000000000000000000000000000000075e80000000000000000000000000000000000000000000000000000000000000002000000000000000000000000000000000000000000000000000000000000006000000000000000000000000000000000000000000000000000000000000001800000000000000000000000000000000000000000000000000000000000000020000000000000000000000000000000000000000000000000000000000000000000000000000000000000000000000000000000000000000000000000000000030000000000000000000000000000000000000000000000000000000000000000000000000000000000000000000000000000000000000000000000000000000000000000000000000000000000000000000000000000000000000000000000c0000000000000000000000000000000000000000000000000000000000000014000000000000000000000000000000000000000000000000000000000000000030000000000000000000000006a02d83e8d433304bba74ef1c4279139581871420000000000000000000000007240264781aa2f97cb994c6231297a86064832420000000000000000000000009e930731cb4a6bf7ecc11f695a295c60bdd212eb0000000000000000000000000000000000000000000000000000000000000000",
        "nonce": "0x21",
        "chainId": "0xa"
      },
      "additionalContracts": [],
      "isFixedGasLimit": false
    },
    {
      "hash": null,
      "transactionType": "CALL",
      "contractName": null,
      "contractAddress": "0x1a44076050125825900e736c501f859c50fe728c",
      "function": "setConfig(address,address,(uint32,uint32,bytes)[])",
      "arguments": [
        "0x57558Cb8d6005DE0BAe8a2789d5EfaaE52dba5a8",
        "0x3c4962Ff6258dcfCafD23a814237B7d6Eb712063",
        "[(30184, 2, 0x0000000000000000000000000000000000000000000000000000000000000020000000000000000000000000000000000000000000000000000000000000000000000000000000000000000000000000000000000000000000000000000000030000000000000000000000000000000000000000000000000000000000000000000000000000000000000000000000000000000000000000000000000000000000000000000000000000000000000000000000000000000000000000000000c0000000000000000000000000000000000000000000000000000000000000014000000000000000000000000000000000000000000000000000000000000000030000000000000000000000006a02d83e8d433304bba74ef1c4279139581871420000000000000000000000007240264781aa2f97cb994c6231297a86064832420000000000000000000000009e930731cb4a6bf7ecc11f695a295c60bdd212eb0000000000000000000000000000000000000000000000000000000000000000)]"
      ],
      "transaction": {
        "from": "0x45dce8e4f2dc005a5f28206a46cb034697eeda8e",
        "to": "0x1a44076050125825900e736c501f859c50fe728c",
        "gas": "0x39f54",
        "value": "0x0",
        "input": "0x6dbd9f9000000000000000000000000057558cb8d6005de0bae8a2789d5efaae52dba5a80000000000000000000000003c4962ff6258dcfcafd23a814237b7d6eb71206300000000000000000000000000000000000000000000000000000000000000600000000000000000000000000000000000000000000000000000000000000001000000000000000000000000000000000000000000000000000000000000002000000000000000000000000000000000000000000000000000000000000075e80000000000000000000000000000000000000000000000000000000000000002000000000000000000000000000000000000000000000000000000000000006000000000000000000000000000000000000000000000000000000000000001800000000000000000000000000000000000000000000000000000000000000020000000000000000000000000000000000000000000000000000000000000000000000000000000000000000000000000000000000000000000000000000000030000000000000000000000000000000000000000000000000000000000000000000000000000000000000000000000000000000000000000000000000000000000000000000000000000000000000000000000000000000000000000000000c0000000000000000000000000000000000000000000000000000000000000014000000000000000000000000000000000000000000000000000000000000000030000000000000000000000006a02d83e8d433304bba74ef1c4279139581871420000000000000000000000007240264781aa2f97cb994c6231297a86064832420000000000000000000000009e930731cb4a6bf7ecc11f695a295c60bdd212eb0000000000000000000000000000000000000000000000000000000000000000",
        "nonce": "0x22",
        "chainId": "0xa"
      },
      "additionalContracts": [],
      "isFixedGasLimit": false
    },
    {
      "hash": null,
      "transactionType": "CALL",
      "contractName": null,
      "contractAddress": "0x1a44076050125825900e736c501f859c50fe728c",
      "function": "setConfig(address,address,(uint32,uint32,bytes)[])",
      "arguments": [
        "0x57558Cb8d6005DE0BAe8a2789d5EfaaE52dba5a8",
        "0x1322871e4ab09Bc7f5717189434f97bBD9546e95",
        "[(30260, 2, 0x0000000000000000000000000000000000000000000000000000000000000020000000000000000000000000000000000000000000000000000000000000000000000000000000000000000000000000000000000000000000000000000000030000000000000000000000000000000000000000000000000000000000000000000000000000000000000000000000000000000000000000000000000000000000000000000000000000000000000000000000000000000000000000000000c0000000000000000000000000000000000000000000000000000000000000014000000000000000000000000000000000000000000000000000000000000000030000000000000000000000006a02d83e8d433304bba74ef1c4279139581871420000000000000000000000007240264781aa2f97cb994c6231297a86064832420000000000000000000000009e930731cb4a6bf7ecc11f695a295c60bdd212eb0000000000000000000000000000000000000000000000000000000000000000)]"
      ],
      "transaction": {
        "from": "0x45dce8e4f2dc005a5f28206a46cb034697eeda8e",
        "to": "0x1a44076050125825900e736c501f859c50fe728c",
        "gas": "0x3a0bd",
        "value": "0x0",
        "input": "0x6dbd9f9000000000000000000000000057558cb8d6005de0bae8a2789d5efaae52dba5a80000000000000000000000001322871e4ab09bc7f5717189434f97bbd9546e9500000000000000000000000000000000000000000000000000000000000000600000000000000000000000000000000000000000000000000000000000000001000000000000000000000000000000000000000000000000000000000000002000000000000000000000000000000000000000000000000000000000000076340000000000000000000000000000000000000000000000000000000000000002000000000000000000000000000000000000000000000000000000000000006000000000000000000000000000000000000000000000000000000000000001800000000000000000000000000000000000000000000000000000000000000020000000000000000000000000000000000000000000000000000000000000000000000000000000000000000000000000000000000000000000000000000000030000000000000000000000000000000000000000000000000000000000000000000000000000000000000000000000000000000000000000000000000000000000000000000000000000000000000000000000000000000000000000000000c0000000000000000000000000000000000000000000000000000000000000014000000000000000000000000000000000000000000000000000000000000000030000000000000000000000006a02d83e8d433304bba74ef1c4279139581871420000000000000000000000007240264781aa2f97cb994c6231297a86064832420000000000000000000000009e930731cb4a6bf7ecc11f695a295c60bdd212eb0000000000000000000000000000000000000000000000000000000000000000",
        "nonce": "0x23",
        "chainId": "0xa"
      },
      "additionalContracts": [],
      "isFixedGasLimit": false
    },
    {
      "hash": null,
      "transactionType": "CALL",
      "contractName": null,
      "contractAddress": "0x1a44076050125825900e736c501f859c50fe728c",
      "function": "setConfig(address,address,(uint32,uint32,bytes)[])",
      "arguments": [
        "0x57558Cb8d6005DE0BAe8a2789d5EfaaE52dba5a8",
        "0x3c4962Ff6258dcfCafD23a814237B7d6Eb712063",
        "[(30260, 2, 0x0000000000000000000000000000000000000000000000000000000000000020000000000000000000000000000000000000000000000000000000000000000000000000000000000000000000000000000000000000000000000000000000030000000000000000000000000000000000000000000000000000000000000000000000000000000000000000000000000000000000000000000000000000000000000000000000000000000000000000000000000000000000000000000000c0000000000000000000000000000000000000000000000000000000000000014000000000000000000000000000000000000000000000000000000000000000030000000000000000000000006a02d83e8d433304bba74ef1c4279139581871420000000000000000000000007240264781aa2f97cb994c6231297a86064832420000000000000000000000009e930731cb4a6bf7ecc11f695a295c60bdd212eb0000000000000000000000000000000000000000000000000000000000000000)]"
      ],
      "transaction": {
        "from": "0x45dce8e4f2dc005a5f28206a46cb034697eeda8e",
        "to": "0x1a44076050125825900e736c501f859c50fe728c",
        "gas": "0x39f54",
        "value": "0x0",
        "input": "0x6dbd9f9000000000000000000000000057558cb8d6005de0bae8a2789d5efaae52dba5a80000000000000000000000003c4962ff6258dcfcafd23a814237b7d6eb71206300000000000000000000000000000000000000000000000000000000000000600000000000000000000000000000000000000000000000000000000000000001000000000000000000000000000000000000000000000000000000000000002000000000000000000000000000000000000000000000000000000000000076340000000000000000000000000000000000000000000000000000000000000002000000000000000000000000000000000000000000000000000000000000006000000000000000000000000000000000000000000000000000000000000001800000000000000000000000000000000000000000000000000000000000000020000000000000000000000000000000000000000000000000000000000000000000000000000000000000000000000000000000000000000000000000000000030000000000000000000000000000000000000000000000000000000000000000000000000000000000000000000000000000000000000000000000000000000000000000000000000000000000000000000000000000000000000000000000c0000000000000000000000000000000000000000000000000000000000000014000000000000000000000000000000000000000000000000000000000000000030000000000000000000000006a02d83e8d433304bba74ef1c4279139581871420000000000000000000000007240264781aa2f97cb994c6231297a86064832420000000000000000000000009e930731cb4a6bf7ecc11f695a295c60bdd212eb0000000000000000000000000000000000000000000000000000000000000000",
        "nonce": "0x24",
        "chainId": "0xa"
      },
      "additionalContracts": [],
      "isFixedGasLimit": false
    },
    {
      "hash": null,
      "transactionType": "CALL",
      "contractName": null,
      "contractAddress": "0x1a44076050125825900e736c501f859c50fe728c",
      "function": "setConfig(address,address,(uint32,uint32,bytes)[])",
      "arguments": [
        "0x57558Cb8d6005DE0BAe8a2789d5EfaaE52dba5a8",
        "0x1322871e4ab09Bc7f5717189434f97bBD9546e95",
        "[(30280, 2, 0x0000000000000000000000000000000000000000000000000000000000000020000000000000000000000000000000000000000000000000000000000000000000000000000000000000000000000000000000000000000000000000000000030000000000000000000000000000000000000000000000000000000000000000000000000000000000000000000000000000000000000000000000000000000000000000000000000000000000000000000000000000000000000000000000c0000000000000000000000000000000000000000000000000000000000000014000000000000000000000000000000000000000000000000000000000000000030000000000000000000000006a02d83e8d433304bba74ef1c4279139581871420000000000000000000000007240264781aa2f97cb994c6231297a86064832420000000000000000000000009e930731cb4a6bf7ecc11f695a295c60bdd212eb0000000000000000000000000000000000000000000000000000000000000000)]"
      ],
      "transaction": {
        "from": "0x45dce8e4f2dc005a5f28206a46cb034697eeda8e",
        "to": "0x1a44076050125825900e736c501f859c50fe728c",
        "gas": "0x3a0bd",
        "value": "0x0",
        "input": "0x6dbd9f9000000000000000000000000057558cb8d6005de0bae8a2789d5efaae52dba5a80000000000000000000000001322871e4ab09bc7f5717189434f97bbd9546e9500000000000000000000000000000000000000000000000000000000000000600000000000000000000000000000000000000000000000000000000000000001000000000000000000000000000000000000000000000000000000000000002000000000000000000000000000000000000000000000000000000000000076480000000000000000000000000000000000000000000000000000000000000002000000000000000000000000000000000000000000000000000000000000006000000000000000000000000000000000000000000000000000000000000001800000000000000000000000000000000000000000000000000000000000000020000000000000000000000000000000000000000000000000000000000000000000000000000000000000000000000000000000000000000000000000000000030000000000000000000000000000000000000000000000000000000000000000000000000000000000000000000000000000000000000000000000000000000000000000000000000000000000000000000000000000000000000000000000c0000000000000000000000000000000000000000000000000000000000000014000000000000000000000000000000000000000000000000000000000000000030000000000000000000000006a02d83e8d433304bba74ef1c4279139581871420000000000000000000000007240264781aa2f97cb994c6231297a86064832420000000000000000000000009e930731cb4a6bf7ecc11f695a295c60bdd212eb0000000000000000000000000000000000000000000000000000000000000000",
        "nonce": "0x25",
        "chainId": "0xa"
      },
      "additionalContracts": [],
      "isFixedGasLimit": false
    },
    {
      "hash": null,
      "transactionType": "CALL",
      "contractName": null,
      "contractAddress": "0x1a44076050125825900e736c501f859c50fe728c",
      "function": "setConfig(address,address,(uint32,uint32,bytes)[])",
      "arguments": [
        "0x57558Cb8d6005DE0BAe8a2789d5EfaaE52dba5a8",
        "0x3c4962Ff6258dcfCafD23a814237B7d6Eb712063",
        "[(30280, 2, 0x0000000000000000000000000000000000000000000000000000000000000020000000000000000000000000000000000000000000000000000000000000000000000000000000000000000000000000000000000000000000000000000000030000000000000000000000000000000000000000000000000000000000000000000000000000000000000000000000000000000000000000000000000000000000000000000000000000000000000000000000000000000000000000000000c0000000000000000000000000000000000000000000000000000000000000014000000000000000000000000000000000000000000000000000000000000000030000000000000000000000006a02d83e8d433304bba74ef1c4279139581871420000000000000000000000007240264781aa2f97cb994c6231297a86064832420000000000000000000000009e930731cb4a6bf7ecc11f695a295c60bdd212eb0000000000000000000000000000000000000000000000000000000000000000)]"
      ],
      "transaction": {
        "from": "0x45dce8e4f2dc005a5f28206a46cb034697eeda8e",
        "to": "0x1a44076050125825900e736c501f859c50fe728c",
        "gas": "0x39f54",
        "value": "0x0",
        "input": "0x6dbd9f9000000000000000000000000057558cb8d6005de0bae8a2789d5efaae52dba5a80000000000000000000000003c4962ff6258dcfcafd23a814237b7d6eb71206300000000000000000000000000000000000000000000000000000000000000600000000000000000000000000000000000000000000000000000000000000001000000000000000000000000000000000000000000000000000000000000002000000000000000000000000000000000000000000000000000000000000076480000000000000000000000000000000000000000000000000000000000000002000000000000000000000000000000000000000000000000000000000000006000000000000000000000000000000000000000000000000000000000000001800000000000000000000000000000000000000000000000000000000000000020000000000000000000000000000000000000000000000000000000000000000000000000000000000000000000000000000000000000000000000000000000030000000000000000000000000000000000000000000000000000000000000000000000000000000000000000000000000000000000000000000000000000000000000000000000000000000000000000000000000000000000000000000000c0000000000000000000000000000000000000000000000000000000000000014000000000000000000000000000000000000000000000000000000000000000030000000000000000000000006a02d83e8d433304bba74ef1c4279139581871420000000000000000000000007240264781aa2f97cb994c6231297a86064832420000000000000000000000009e930731cb4a6bf7ecc11f695a295c60bdd212eb0000000000000000000000000000000000000000000000000000000000000000",
        "nonce": "0x26",
        "chainId": "0xa"
      },
      "additionalContracts": [],
      "isFixedGasLimit": false
    },
    {
      "hash": null,
      "transactionType": "CALL",
      "contractName": null,
      "contractAddress": "0x1a44076050125825900e736c501f859c50fe728c",
      "function": "setConfig(address,address,(uint32,uint32,bytes)[])",
      "arguments": [
        "0x57558Cb8d6005DE0BAe8a2789d5EfaaE52dba5a8",
        "0x1322871e4ab09Bc7f5717189434f97bBD9546e95",
        "[(30255, 2, 0x0000000000000000000000000000000000000000000000000000000000000020000000000000000000000000000000000000000000000000000000000000000000000000000000000000000000000000000000000000000000000000000000030000000000000000000000000000000000000000000000000000000000000000000000000000000000000000000000000000000000000000000000000000000000000000000000000000000000000000000000000000000000000000000000c0000000000000000000000000000000000000000000000000000000000000014000000000000000000000000000000000000000000000000000000000000000030000000000000000000000006a02d83e8d433304bba74ef1c4279139581871420000000000000000000000007240264781aa2f97cb994c6231297a86064832420000000000000000000000009e930731cb4a6bf7ecc11f695a295c60bdd212eb0000000000000000000000000000000000000000000000000000000000000000)]"
      ],
      "transaction": {
        "from": "0x45dce8e4f2dc005a5f28206a46cb034697eeda8e",
        "to": "0x1a44076050125825900e736c501f859c50fe728c",
        "gas": "0x3a0bd",
        "value": "0x0",
        "input": "0x6dbd9f9000000000000000000000000057558cb8d6005de0bae8a2789d5efaae52dba5a80000000000000000000000001322871e4ab09bc7f5717189434f97bbd9546e95000000000000000000000000000000000000000000000000000000000000006000000000000000000000000000000000000000000000000000000000000000010000000000000000000000000000000000000000000000000000000000000020000000000000000000000000000000000000000000000000000000000000762f0000000000000000000000000000000000000000000000000000000000000002000000000000000000000000000000000000000000000000000000000000006000000000000000000000000000000000000000000000000000000000000001800000000000000000000000000000000000000000000000000000000000000020000000000000000000000000000000000000000000000000000000000000000000000000000000000000000000000000000000000000000000000000000000030000000000000000000000000000000000000000000000000000000000000000000000000000000000000000000000000000000000000000000000000000000000000000000000000000000000000000000000000000000000000000000000c0000000000000000000000000000000000000000000000000000000000000014000000000000000000000000000000000000000000000000000000000000000030000000000000000000000006a02d83e8d433304bba74ef1c4279139581871420000000000000000000000007240264781aa2f97cb994c6231297a86064832420000000000000000000000009e930731cb4a6bf7ecc11f695a295c60bdd212eb0000000000000000000000000000000000000000000000000000000000000000",
        "nonce": "0x27",
        "chainId": "0xa"
      },
      "additionalContracts": [],
      "isFixedGasLimit": false
    },
    {
      "hash": null,
      "transactionType": "CALL",
      "contractName": null,
      "contractAddress": "0x1a44076050125825900e736c501f859c50fe728c",
      "function": "setConfig(address,address,(uint32,uint32,bytes)[])",
      "arguments": [
        "0x57558Cb8d6005DE0BAe8a2789d5EfaaE52dba5a8",
        "0x3c4962Ff6258dcfCafD23a814237B7d6Eb712063",
        "[(30255, 2, 0x0000000000000000000000000000000000000000000000000000000000000020000000000000000000000000000000000000000000000000000000000000000000000000000000000000000000000000000000000000000000000000000000030000000000000000000000000000000000000000000000000000000000000000000000000000000000000000000000000000000000000000000000000000000000000000000000000000000000000000000000000000000000000000000000c0000000000000000000000000000000000000000000000000000000000000014000000000000000000000000000000000000000000000000000000000000000030000000000000000000000006a02d83e8d433304bba74ef1c4279139581871420000000000000000000000007240264781aa2f97cb994c6231297a86064832420000000000000000000000009e930731cb4a6bf7ecc11f695a295c60bdd212eb0000000000000000000000000000000000000000000000000000000000000000)]"
      ],
      "transaction": {
        "from": "0x45dce8e4f2dc005a5f28206a46cb034697eeda8e",
        "to": "0x1a44076050125825900e736c501f859c50fe728c",
        "gas": "0x39f54",
        "value": "0x0",
        "input": "0x6dbd9f9000000000000000000000000057558cb8d6005de0bae8a2789d5efaae52dba5a80000000000000000000000003c4962ff6258dcfcafd23a814237b7d6eb712063000000000000000000000000000000000000000000000000000000000000006000000000000000000000000000000000000000000000000000000000000000010000000000000000000000000000000000000000000000000000000000000020000000000000000000000000000000000000000000000000000000000000762f0000000000000000000000000000000000000000000000000000000000000002000000000000000000000000000000000000000000000000000000000000006000000000000000000000000000000000000000000000000000000000000001800000000000000000000000000000000000000000000000000000000000000020000000000000000000000000000000000000000000000000000000000000000000000000000000000000000000000000000000000000000000000000000000030000000000000000000000000000000000000000000000000000000000000000000000000000000000000000000000000000000000000000000000000000000000000000000000000000000000000000000000000000000000000000000000c0000000000000000000000000000000000000000000000000000000000000014000000000000000000000000000000000000000000000000000000000000000030000000000000000000000006a02d83e8d433304bba74ef1c4279139581871420000000000000000000000007240264781aa2f97cb994c6231297a86064832420000000000000000000000009e930731cb4a6bf7ecc11f695a295c60bdd212eb0000000000000000000000000000000000000000000000000000000000000000",
        "nonce": "0x28",
        "chainId": "0xa"
      },
      "additionalContracts": [],
      "isFixedGasLimit": false
    },
    {
      "hash": null,
      "transactionType": "CALL",
      "contractName": null,
      "contractAddress": "0x1a44076050125825900e736c501f859c50fe728c",
      "function": "setConfig(address,address,(uint32,uint32,bytes)[])",
      "arguments": [
        "0x57558Cb8d6005DE0BAe8a2789d5EfaaE52dba5a8",
        "0x1322871e4ab09Bc7f5717189434f97bBD9546e95",
        "[(30274, 2, 0x0000000000000000000000000000000000000000000000000000000000000020000000000000000000000000000000000000000000000000000000000000000000000000000000000000000000000000000000000000000000000000000000030000000000000000000000000000000000000000000000000000000000000000000000000000000000000000000000000000000000000000000000000000000000000000000000000000000000000000000000000000000000000000000000c0000000000000000000000000000000000000000000000000000000000000014000000000000000000000000000000000000000000000000000000000000000030000000000000000000000006a02d83e8d433304bba74ef1c4279139581871420000000000000000000000007240264781aa2f97cb994c6231297a86064832420000000000000000000000009e930731cb4a6bf7ecc11f695a295c60bdd212eb0000000000000000000000000000000000000000000000000000000000000000)]"
      ],
      "transaction": {
        "from": "0x45dce8e4f2dc005a5f28206a46cb034697eeda8e",
        "to": "0x1a44076050125825900e736c501f859c50fe728c",
        "gas": "0x3a0bd",
        "value": "0x0",
        "input": "0x6dbd9f9000000000000000000000000057558cb8d6005de0bae8a2789d5efaae52dba5a80000000000000000000000001322871e4ab09bc7f5717189434f97bbd9546e9500000000000000000000000000000000000000000000000000000000000000600000000000000000000000000000000000000000000000000000000000000001000000000000000000000000000000000000000000000000000000000000002000000000000000000000000000000000000000000000000000000000000076420000000000000000000000000000000000000000000000000000000000000002000000000000000000000000000000000000000000000000000000000000006000000000000000000000000000000000000000000000000000000000000001800000000000000000000000000000000000000000000000000000000000000020000000000000000000000000000000000000000000000000000000000000000000000000000000000000000000000000000000000000000000000000000000030000000000000000000000000000000000000000000000000000000000000000000000000000000000000000000000000000000000000000000000000000000000000000000000000000000000000000000000000000000000000000000000c0000000000000000000000000000000000000000000000000000000000000014000000000000000000000000000000000000000000000000000000000000000030000000000000000000000006a02d83e8d433304bba74ef1c4279139581871420000000000000000000000007240264781aa2f97cb994c6231297a86064832420000000000000000000000009e930731cb4a6bf7ecc11f695a295c60bdd212eb0000000000000000000000000000000000000000000000000000000000000000",
        "nonce": "0x29",
        "chainId": "0xa"
      },
      "additionalContracts": [],
      "isFixedGasLimit": false
    },
    {
      "hash": null,
      "transactionType": "CALL",
      "contractName": null,
      "contractAddress": "0x1a44076050125825900e736c501f859c50fe728c",
      "function": "setConfig(address,address,(uint32,uint32,bytes)[])",
      "arguments": [
        "0x57558Cb8d6005DE0BAe8a2789d5EfaaE52dba5a8",
        "0x3c4962Ff6258dcfCafD23a814237B7d6Eb712063",
        "[(30274, 2, 0x0000000000000000000000000000000000000000000000000000000000000020000000000000000000000000000000000000000000000000000000000000000000000000000000000000000000000000000000000000000000000000000000030000000000000000000000000000000000000000000000000000000000000000000000000000000000000000000000000000000000000000000000000000000000000000000000000000000000000000000000000000000000000000000000c0000000000000000000000000000000000000000000000000000000000000014000000000000000000000000000000000000000000000000000000000000000030000000000000000000000006a02d83e8d433304bba74ef1c4279139581871420000000000000000000000007240264781aa2f97cb994c6231297a86064832420000000000000000000000009e930731cb4a6bf7ecc11f695a295c60bdd212eb0000000000000000000000000000000000000000000000000000000000000000)]"
      ],
      "transaction": {
        "from": "0x45dce8e4f2dc005a5f28206a46cb034697eeda8e",
        "to": "0x1a44076050125825900e736c501f859c50fe728c",
        "gas": "0x39f54",
        "value": "0x0",
        "input": "0x6dbd9f9000000000000000000000000057558cb8d6005de0bae8a2789d5efaae52dba5a80000000000000000000000003c4962ff6258dcfcafd23a814237b7d6eb71206300000000000000000000000000000000000000000000000000000000000000600000000000000000000000000000000000000000000000000000000000000001000000000000000000000000000000000000000000000000000000000000002000000000000000000000000000000000000000000000000000000000000076420000000000000000000000000000000000000000000000000000000000000002000000000000000000000000000000000000000000000000000000000000006000000000000000000000000000000000000000000000000000000000000001800000000000000000000000000000000000000000000000000000000000000020000000000000000000000000000000000000000000000000000000000000000000000000000000000000000000000000000000000000000000000000000000030000000000000000000000000000000000000000000000000000000000000000000000000000000000000000000000000000000000000000000000000000000000000000000000000000000000000000000000000000000000000000000000c0000000000000000000000000000000000000000000000000000000000000014000000000000000000000000000000000000000000000000000000000000000030000000000000000000000006a02d83e8d433304bba74ef1c4279139581871420000000000000000000000007240264781aa2f97cb994c6231297a86064832420000000000000000000000009e930731cb4a6bf7ecc11f695a295c60bdd212eb0000000000000000000000000000000000000000000000000000000000000000",
        "nonce": "0x2a",
        "chainId": "0xa"
      },
      "additionalContracts": [],
      "isFixedGasLimit": false
    },
    {
      "hash": null,
      "transactionType": "CALL",
      "contractName": null,
      "contractAddress": "0x1a44076050125825900e736c501f859c50fe728c",
      "function": "setConfig(address,address,(uint32,uint32,bytes)[])",
      "arguments": [
        "0x57558Cb8d6005DE0BAe8a2789d5EfaaE52dba5a8",
        "0x1322871e4ab09Bc7f5717189434f97bBD9546e95",
        "[(30332, 2, 0x0000000000000000000000000000000000000000000000000000000000000020000000000000000000000000000000000000000000000000000000000000000000000000000000000000000000000000000000000000000000000000000000030000000000000000000000000000000000000000000000000000000000000000000000000000000000000000000000000000000000000000000000000000000000000000000000000000000000000000000000000000000000000000000000c0000000000000000000000000000000000000000000000000000000000000014000000000000000000000000000000000000000000000000000000000000000030000000000000000000000006a02d83e8d433304bba74ef1c4279139581871420000000000000000000000007240264781aa2f97cb994c6231297a86064832420000000000000000000000009e930731cb4a6bf7ecc11f695a295c60bdd212eb0000000000000000000000000000000000000000000000000000000000000000)]"
      ],
      "transaction": {
        "from": "0x45dce8e4f2dc005a5f28206a46cb034697eeda8e",
        "to": "0x1a44076050125825900e736c501f859c50fe728c",
        "gas": "0x3a0bd",
        "value": "0x0",
        "input": "0x6dbd9f9000000000000000000000000057558cb8d6005de0bae8a2789d5efaae52dba5a80000000000000000000000001322871e4ab09bc7f5717189434f97bbd9546e95000000000000000000000000000000000000000000000000000000000000006000000000000000000000000000000000000000000000000000000000000000010000000000000000000000000000000000000000000000000000000000000020000000000000000000000000000000000000000000000000000000000000767c0000000000000000000000000000000000000000000000000000000000000002000000000000000000000000000000000000000000000000000000000000006000000000000000000000000000000000000000000000000000000000000001800000000000000000000000000000000000000000000000000000000000000020000000000000000000000000000000000000000000000000000000000000000000000000000000000000000000000000000000000000000000000000000000030000000000000000000000000000000000000000000000000000000000000000000000000000000000000000000000000000000000000000000000000000000000000000000000000000000000000000000000000000000000000000000000c0000000000000000000000000000000000000000000000000000000000000014000000000000000000000000000000000000000000000000000000000000000030000000000000000000000006a02d83e8d433304bba74ef1c4279139581871420000000000000000000000007240264781aa2f97cb994c6231297a86064832420000000000000000000000009e930731cb4a6bf7ecc11f695a295c60bdd212eb0000000000000000000000000000000000000000000000000000000000000000",
        "nonce": "0x2b",
        "chainId": "0xa"
      },
      "additionalContracts": [],
      "isFixedGasLimit": false
    },
    {
      "hash": null,
      "transactionType": "CALL",
      "contractName": null,
      "contractAddress": "0x1a44076050125825900e736c501f859c50fe728c",
      "function": "setConfig(address,address,(uint32,uint32,bytes)[])",
      "arguments": [
        "0x57558Cb8d6005DE0BAe8a2789d5EfaaE52dba5a8",
        "0x3c4962Ff6258dcfCafD23a814237B7d6Eb712063",
        "[(30332, 2, 0x0000000000000000000000000000000000000000000000000000000000000020000000000000000000000000000000000000000000000000000000000000000000000000000000000000000000000000000000000000000000000000000000030000000000000000000000000000000000000000000000000000000000000000000000000000000000000000000000000000000000000000000000000000000000000000000000000000000000000000000000000000000000000000000000c0000000000000000000000000000000000000000000000000000000000000014000000000000000000000000000000000000000000000000000000000000000030000000000000000000000006a02d83e8d433304bba74ef1c4279139581871420000000000000000000000007240264781aa2f97cb994c6231297a86064832420000000000000000000000009e930731cb4a6bf7ecc11f695a295c60bdd212eb0000000000000000000000000000000000000000000000000000000000000000)]"
      ],
      "transaction": {
        "from": "0x45dce8e4f2dc005a5f28206a46cb034697eeda8e",
        "to": "0x1a44076050125825900e736c501f859c50fe728c",
        "gas": "0x39f54",
        "value": "0x0",
        "input": "0x6dbd9f9000000000000000000000000057558cb8d6005de0bae8a2789d5efaae52dba5a80000000000000000000000003c4962ff6258dcfcafd23a814237b7d6eb712063000000000000000000000000000000000000000000000000000000000000006000000000000000000000000000000000000000000000000000000000000000010000000000000000000000000000000000000000000000000000000000000020000000000000000000000000000000000000000000000000000000000000767c0000000000000000000000000000000000000000000000000000000000000002000000000000000000000000000000000000000000000000000000000000006000000000000000000000000000000000000000000000000000000000000001800000000000000000000000000000000000000000000000000000000000000020000000000000000000000000000000000000000000000000000000000000000000000000000000000000000000000000000000000000000000000000000000030000000000000000000000000000000000000000000000000000000000000000000000000000000000000000000000000000000000000000000000000000000000000000000000000000000000000000000000000000000000000000000000c0000000000000000000000000000000000000000000000000000000000000014000000000000000000000000000000000000000000000000000000000000000030000000000000000000000006a02d83e8d433304bba74ef1c4279139581871420000000000000000000000007240264781aa2f97cb994c6231297a86064832420000000000000000000000009e930731cb4a6bf7ecc11f695a295c60bdd212eb0000000000000000000000000000000000000000000000000000000000000000",
        "nonce": "0x2c",
        "chainId": "0xa"
      },
      "additionalContracts": [],
      "isFixedGasLimit": false
    },
    {
      "hash": null,
      "transactionType": "CALL",
      "contractName": null,
      "contractAddress": "0x1a44076050125825900e736c501f859c50fe728c",
      "function": "setConfig(address,address,(uint32,uint32,bytes)[])",
      "arguments": [
        "0x57558Cb8d6005DE0BAe8a2789d5EfaaE52dba5a8",
        "0x1322871e4ab09Bc7f5717189434f97bBD9546e95",
        "[(30339, 2, 0x0000000000000000000000000000000000000000000000000000000000000020000000000000000000000000000000000000000000000000000000000000000000000000000000000000000000000000000000000000000000000000000000030000000000000000000000000000000000000000000000000000000000000000000000000000000000000000000000000000000000000000000000000000000000000000000000000000000000000000000000000000000000000000000000c0000000000000000000000000000000000000000000000000000000000000014000000000000000000000000000000000000000000000000000000000000000030000000000000000000000006a02d83e8d433304bba74ef1c4279139581871420000000000000000000000007240264781aa2f97cb994c6231297a86064832420000000000000000000000009e930731cb4a6bf7ecc11f695a295c60bdd212eb0000000000000000000000000000000000000000000000000000000000000000)]"
      ],
      "transaction": {
        "from": "0x45dce8e4f2dc005a5f28206a46cb034697eeda8e",
        "to": "0x1a44076050125825900e736c501f859c50fe728c",
        "gas": "0x3a0bd",
        "value": "0x0",
        "input": "0x6dbd9f9000000000000000000000000057558cb8d6005de0bae8a2789d5efaae52dba5a80000000000000000000000001322871e4ab09bc7f5717189434f97bbd9546e9500000000000000000000000000000000000000000000000000000000000000600000000000000000000000000000000000000000000000000000000000000001000000000000000000000000000000000000000000000000000000000000002000000000000000000000000000000000000000000000000000000000000076830000000000000000000000000000000000000000000000000000000000000002000000000000000000000000000000000000000000000000000000000000006000000000000000000000000000000000000000000000000000000000000001800000000000000000000000000000000000000000000000000000000000000020000000000000000000000000000000000000000000000000000000000000000000000000000000000000000000000000000000000000000000000000000000030000000000000000000000000000000000000000000000000000000000000000000000000000000000000000000000000000000000000000000000000000000000000000000000000000000000000000000000000000000000000000000000c0000000000000000000000000000000000000000000000000000000000000014000000000000000000000000000000000000000000000000000000000000000030000000000000000000000006a02d83e8d433304bba74ef1c4279139581871420000000000000000000000007240264781aa2f97cb994c6231297a86064832420000000000000000000000009e930731cb4a6bf7ecc11f695a295c60bdd212eb0000000000000000000000000000000000000000000000000000000000000000",
        "nonce": "0x2d",
        "chainId": "0xa"
      },
      "additionalContracts": [],
      "isFixedGasLimit": false
    },
    {
      "hash": null,
      "transactionType": "CALL",
      "contractName": null,
      "contractAddress": "0x1a44076050125825900e736c501f859c50fe728c",
      "function": "setConfig(address,address,(uint32,uint32,bytes)[])",
      "arguments": [
        "0x57558Cb8d6005DE0BAe8a2789d5EfaaE52dba5a8",
        "0x3c4962Ff6258dcfCafD23a814237B7d6Eb712063",
        "[(30339, 2, 0x0000000000000000000000000000000000000000000000000000000000000020000000000000000000000000000000000000000000000000000000000000000000000000000000000000000000000000000000000000000000000000000000030000000000000000000000000000000000000000000000000000000000000000000000000000000000000000000000000000000000000000000000000000000000000000000000000000000000000000000000000000000000000000000000c0000000000000000000000000000000000000000000000000000000000000014000000000000000000000000000000000000000000000000000000000000000030000000000000000000000006a02d83e8d433304bba74ef1c4279139581871420000000000000000000000007240264781aa2f97cb994c6231297a86064832420000000000000000000000009e930731cb4a6bf7ecc11f695a295c60bdd212eb0000000000000000000000000000000000000000000000000000000000000000)]"
      ],
      "transaction": {
        "from": "0x45dce8e4f2dc005a5f28206a46cb034697eeda8e",
        "to": "0x1a44076050125825900e736c501f859c50fe728c",
        "gas": "0x39f54",
        "value": "0x0",
        "input": "0x6dbd9f9000000000000000000000000057558cb8d6005de0bae8a2789d5efaae52dba5a80000000000000000000000003c4962ff6258dcfcafd23a814237b7d6eb71206300000000000000000000000000000000000000000000000000000000000000600000000000000000000000000000000000000000000000000000000000000001000000000000000000000000000000000000000000000000000000000000002000000000000000000000000000000000000000000000000000000000000076830000000000000000000000000000000000000000000000000000000000000002000000000000000000000000000000000000000000000000000000000000006000000000000000000000000000000000000000000000000000000000000001800000000000000000000000000000000000000000000000000000000000000020000000000000000000000000000000000000000000000000000000000000000000000000000000000000000000000000000000000000000000000000000000030000000000000000000000000000000000000000000000000000000000000000000000000000000000000000000000000000000000000000000000000000000000000000000000000000000000000000000000000000000000000000000000c0000000000000000000000000000000000000000000000000000000000000014000000000000000000000000000000000000000000000000000000000000000030000000000000000000000006a02d83e8d433304bba74ef1c4279139581871420000000000000000000000007240264781aa2f97cb994c6231297a86064832420000000000000000000000009e930731cb4a6bf7ecc11f695a295c60bdd212eb0000000000000000000000000000000000000000000000000000000000000000",
        "nonce": "0x2e",
        "chainId": "0xa"
      },
      "additionalContracts": [],
      "isFixedGasLimit": false
    },
    {
      "hash": null,
      "transactionType": "CALL",
      "contractName": null,
      "contractAddress": "0x1a44076050125825900e736c501f859c50fe728c",
      "function": "setConfig(address,address,(uint32,uint32,bytes)[])",
      "arguments": [
        "0x57558Cb8d6005DE0BAe8a2789d5EfaaE52dba5a8",
        "0x1322871e4ab09Bc7f5717189434f97bBD9546e95",
        "[(30110, 2, 0x0000000000000000000000000000000000000000000000000000000000000020000000000000000000000000000000000000000000000000000000000000000000000000000000000000000000000000000000000000000000000000000000030000000000000000000000000000000000000000000000000000000000000000000000000000000000000000000000000000000000000000000000000000000000000000000000000000000000000000000000000000000000000000000000c0000000000000000000000000000000000000000000000000000000000000014000000000000000000000000000000000000000000000000000000000000000030000000000000000000000006a02d83e8d433304bba74ef1c4279139581871420000000000000000000000007240264781aa2f97cb994c6231297a86064832420000000000000000000000009e930731cb4a6bf7ecc11f695a295c60bdd212eb0000000000000000000000000000000000000000000000000000000000000000)]"
      ],
      "transaction": {
        "from": "0x45dce8e4f2dc005a5f28206a46cb034697eeda8e",
        "to": "0x1a44076050125825900e736c501f859c50fe728c",
        "gas": "0x3a0bd",
        "value": "0x0",
        "input": "0x6dbd9f9000000000000000000000000057558cb8d6005de0bae8a2789d5efaae52dba5a80000000000000000000000001322871e4ab09bc7f5717189434f97bbd9546e95000000000000000000000000000000000000000000000000000000000000006000000000000000000000000000000000000000000000000000000000000000010000000000000000000000000000000000000000000000000000000000000020000000000000000000000000000000000000000000000000000000000000759e0000000000000000000000000000000000000000000000000000000000000002000000000000000000000000000000000000000000000000000000000000006000000000000000000000000000000000000000000000000000000000000001800000000000000000000000000000000000000000000000000000000000000020000000000000000000000000000000000000000000000000000000000000000000000000000000000000000000000000000000000000000000000000000000030000000000000000000000000000000000000000000000000000000000000000000000000000000000000000000000000000000000000000000000000000000000000000000000000000000000000000000000000000000000000000000000c0000000000000000000000000000000000000000000000000000000000000014000000000000000000000000000000000000000000000000000000000000000030000000000000000000000006a02d83e8d433304bba74ef1c4279139581871420000000000000000000000007240264781aa2f97cb994c6231297a86064832420000000000000000000000009e930731cb4a6bf7ecc11f695a295c60bdd212eb0000000000000000000000000000000000000000000000000000000000000000",
        "nonce": "0x2f",
        "chainId": "0xa"
      },
      "additionalContracts": [],
      "isFixedGasLimit": false
    },
    {
      "hash": null,
      "transactionType": "CALL",
      "contractName": null,
      "contractAddress": "0x1a44076050125825900e736c501f859c50fe728c",
      "function": "setConfig(address,address,(uint32,uint32,bytes)[])",
      "arguments": [
        "0x57558Cb8d6005DE0BAe8a2789d5EfaaE52dba5a8",
        "0x3c4962Ff6258dcfCafD23a814237B7d6Eb712063",
        "[(30110, 2, 0x0000000000000000000000000000000000000000000000000000000000000020000000000000000000000000000000000000000000000000000000000000000000000000000000000000000000000000000000000000000000000000000000030000000000000000000000000000000000000000000000000000000000000000000000000000000000000000000000000000000000000000000000000000000000000000000000000000000000000000000000000000000000000000000000c0000000000000000000000000000000000000000000000000000000000000014000000000000000000000000000000000000000000000000000000000000000030000000000000000000000006a02d83e8d433304bba74ef1c4279139581871420000000000000000000000007240264781aa2f97cb994c6231297a86064832420000000000000000000000009e930731cb4a6bf7ecc11f695a295c60bdd212eb0000000000000000000000000000000000000000000000000000000000000000)]"
      ],
      "transaction": {
        "from": "0x45dce8e4f2dc005a5f28206a46cb034697eeda8e",
        "to": "0x1a44076050125825900e736c501f859c50fe728c",
        "gas": "0x39f54",
        "value": "0x0",
        "input": "0x6dbd9f9000000000000000000000000057558cb8d6005de0bae8a2789d5efaae52dba5a80000000000000000000000003c4962ff6258dcfcafd23a814237b7d6eb712063000000000000000000000000000000000000000000000000000000000000006000000000000000000000000000000000000000000000000000000000000000010000000000000000000000000000000000000000000000000000000000000020000000000000000000000000000000000000000000000000000000000000759e0000000000000000000000000000000000000000000000000000000000000002000000000000000000000000000000000000000000000000000000000000006000000000000000000000000000000000000000000000000000000000000001800000000000000000000000000000000000000000000000000000000000000020000000000000000000000000000000000000000000000000000000000000000000000000000000000000000000000000000000000000000000000000000000030000000000000000000000000000000000000000000000000000000000000000000000000000000000000000000000000000000000000000000000000000000000000000000000000000000000000000000000000000000000000000000000c0000000000000000000000000000000000000000000000000000000000000014000000000000000000000000000000000000000000000000000000000000000030000000000000000000000006a02d83e8d433304bba74ef1c4279139581871420000000000000000000000007240264781aa2f97cb994c6231297a86064832420000000000000000000000009e930731cb4a6bf7ecc11f695a295c60bdd212eb0000000000000000000000000000000000000000000000000000000000000000",
        "nonce": "0x30",
        "chainId": "0xa"
      },
      "additionalContracts": [],
      "isFixedGasLimit": false
    },
    {
      "hash": null,
      "transactionType": "CALL",
      "contractName": null,
      "contractAddress": "0x1a44076050125825900e736c501f859c50fe728c",
      "function": "setConfig(address,address,(uint32,uint32,bytes)[])",
      "arguments": [
        "0x57558Cb8d6005DE0BAe8a2789d5EfaaE52dba5a8",
        "0x1322871e4ab09Bc7f5717189434f97bBD9546e95",
        "[(30109, 2, 0x0000000000000000000000000000000000000000000000000000000000000020000000000000000000000000000000000000000000000000000000000000000000000000000000000000000000000000000000000000000000000000000000030000000000000000000000000000000000000000000000000000000000000000000000000000000000000000000000000000000000000000000000000000000000000000000000000000000000000000000000000000000000000000000000c0000000000000000000000000000000000000000000000000000000000000014000000000000000000000000000000000000000000000000000000000000000030000000000000000000000006a02d83e8d433304bba74ef1c4279139581871420000000000000000000000007240264781aa2f97cb994c6231297a86064832420000000000000000000000009e930731cb4a6bf7ecc11f695a295c60bdd212eb0000000000000000000000000000000000000000000000000000000000000000)]"
      ],
      "transaction": {
        "from": "0x45dce8e4f2dc005a5f28206a46cb034697eeda8e",
        "to": "0x1a44076050125825900e736c501f859c50fe728c",
        "gas": "0x3a0bd",
        "value": "0x0",
        "input": "0x6dbd9f9000000000000000000000000057558cb8d6005de0bae8a2789d5efaae52dba5a80000000000000000000000001322871e4ab09bc7f5717189434f97bbd9546e95000000000000000000000000000000000000000000000000000000000000006000000000000000000000000000000000000000000000000000000000000000010000000000000000000000000000000000000000000000000000000000000020000000000000000000000000000000000000000000000000000000000000759d0000000000000000000000000000000000000000000000000000000000000002000000000000000000000000000000000000000000000000000000000000006000000000000000000000000000000000000000000000000000000000000001800000000000000000000000000000000000000000000000000000000000000020000000000000000000000000000000000000000000000000000000000000000000000000000000000000000000000000000000000000000000000000000000030000000000000000000000000000000000000000000000000000000000000000000000000000000000000000000000000000000000000000000000000000000000000000000000000000000000000000000000000000000000000000000000c0000000000000000000000000000000000000000000000000000000000000014000000000000000000000000000000000000000000000000000000000000000030000000000000000000000006a02d83e8d433304bba74ef1c4279139581871420000000000000000000000007240264781aa2f97cb994c6231297a86064832420000000000000000000000009e930731cb4a6bf7ecc11f695a295c60bdd212eb0000000000000000000000000000000000000000000000000000000000000000",
        "nonce": "0x31",
        "chainId": "0xa"
      },
      "additionalContracts": [],
      "isFixedGasLimit": false
    },
    {
      "hash": null,
      "transactionType": "CALL",
      "contractName": null,
      "contractAddress": "0x1a44076050125825900e736c501f859c50fe728c",
      "function": "setConfig(address,address,(uint32,uint32,bytes)[])",
      "arguments": [
        "0x57558Cb8d6005DE0BAe8a2789d5EfaaE52dba5a8",
        "0x3c4962Ff6258dcfCafD23a814237B7d6Eb712063",
        "[(30109, 2, 0x0000000000000000000000000000000000000000000000000000000000000020000000000000000000000000000000000000000000000000000000000000000000000000000000000000000000000000000000000000000000000000000000030000000000000000000000000000000000000000000000000000000000000000000000000000000000000000000000000000000000000000000000000000000000000000000000000000000000000000000000000000000000000000000000c0000000000000000000000000000000000000000000000000000000000000014000000000000000000000000000000000000000000000000000000000000000030000000000000000000000006a02d83e8d433304bba74ef1c4279139581871420000000000000000000000007240264781aa2f97cb994c6231297a86064832420000000000000000000000009e930731cb4a6bf7ecc11f695a295c60bdd212eb0000000000000000000000000000000000000000000000000000000000000000)]"
      ],
      "transaction": {
        "from": "0x45dce8e4f2dc005a5f28206a46cb034697eeda8e",
        "to": "0x1a44076050125825900e736c501f859c50fe728c",
        "gas": "0x39f54",
        "value": "0x0",
        "input": "0x6dbd9f9000000000000000000000000057558cb8d6005de0bae8a2789d5efaae52dba5a80000000000000000000000003c4962ff6258dcfcafd23a814237b7d6eb712063000000000000000000000000000000000000000000000000000000000000006000000000000000000000000000000000000000000000000000000000000000010000000000000000000000000000000000000000000000000000000000000020000000000000000000000000000000000000000000000000000000000000759d0000000000000000000000000000000000000000000000000000000000000002000000000000000000000000000000000000000000000000000000000000006000000000000000000000000000000000000000000000000000000000000001800000000000000000000000000000000000000000000000000000000000000020000000000000000000000000000000000000000000000000000000000000000000000000000000000000000000000000000000000000000000000000000000030000000000000000000000000000000000000000000000000000000000000000000000000000000000000000000000000000000000000000000000000000000000000000000000000000000000000000000000000000000000000000000000c0000000000000000000000000000000000000000000000000000000000000014000000000000000000000000000000000000000000000000000000000000000030000000000000000000000006a02d83e8d433304bba74ef1c4279139581871420000000000000000000000007240264781aa2f97cb994c6231297a86064832420000000000000000000000009e930731cb4a6bf7ecc11f695a295c60bdd212eb0000000000000000000000000000000000000000000000000000000000000000",
        "nonce": "0x32",
        "chainId": "0xa"
      },
      "additionalContracts": [],
      "isFixedGasLimit": false
    },
    {
      "hash": null,
      "transactionType": "CALL",
      "contractName": null,
      "contractAddress": "0x1a44076050125825900e736c501f859c50fe728c",
      "function": "setConfig(address,address,(uint32,uint32,bytes)[])",
      "arguments": [
        "0x57558Cb8d6005DE0BAe8a2789d5EfaaE52dba5a8",
        "0x1322871e4ab09Bc7f5717189434f97bBD9546e95",
        "[(30106, 2, 0x0000000000000000000000000000000000000000000000000000000000000020000000000000000000000000000000000000000000000000000000000000000000000000000000000000000000000000000000000000000000000000000000030000000000000000000000000000000000000000000000000000000000000000000000000000000000000000000000000000000000000000000000000000000000000000000000000000000000000000000000000000000000000000000000c0000000000000000000000000000000000000000000000000000000000000014000000000000000000000000000000000000000000000000000000000000000030000000000000000000000006a02d83e8d433304bba74ef1c4279139581871420000000000000000000000007240264781aa2f97cb994c6231297a86064832420000000000000000000000009e930731cb4a6bf7ecc11f695a295c60bdd212eb0000000000000000000000000000000000000000000000000000000000000000)]"
      ],
      "transaction": {
        "from": "0x45dce8e4f2dc005a5f28206a46cb034697eeda8e",
        "to": "0x1a44076050125825900e736c501f859c50fe728c",
        "gas": "0x3a0bd",
        "value": "0x0",
        "input": "0x6dbd9f9000000000000000000000000057558cb8d6005de0bae8a2789d5efaae52dba5a80000000000000000000000001322871e4ab09bc7f5717189434f97bbd9546e95000000000000000000000000000000000000000000000000000000000000006000000000000000000000000000000000000000000000000000000000000000010000000000000000000000000000000000000000000000000000000000000020000000000000000000000000000000000000000000000000000000000000759a0000000000000000000000000000000000000000000000000000000000000002000000000000000000000000000000000000000000000000000000000000006000000000000000000000000000000000000000000000000000000000000001800000000000000000000000000000000000000000000000000000000000000020000000000000000000000000000000000000000000000000000000000000000000000000000000000000000000000000000000000000000000000000000000030000000000000000000000000000000000000000000000000000000000000000000000000000000000000000000000000000000000000000000000000000000000000000000000000000000000000000000000000000000000000000000000c0000000000000000000000000000000000000000000000000000000000000014000000000000000000000000000000000000000000000000000000000000000030000000000000000000000006a02d83e8d433304bba74ef1c4279139581871420000000000000000000000007240264781aa2f97cb994c6231297a86064832420000000000000000000000009e930731cb4a6bf7ecc11f695a295c60bdd212eb0000000000000000000000000000000000000000000000000000000000000000",
        "nonce": "0x33",
        "chainId": "0xa"
      },
      "additionalContracts": [],
      "isFixedGasLimit": false
    },
    {
      "hash": null,
      "transactionType": "CALL",
      "contractName": null,
      "contractAddress": "0x1a44076050125825900e736c501f859c50fe728c",
      "function": "setConfig(address,address,(uint32,uint32,bytes)[])",
      "arguments": [
        "0x57558Cb8d6005DE0BAe8a2789d5EfaaE52dba5a8",
        "0x3c4962Ff6258dcfCafD23a814237B7d6Eb712063",
        "[(30106, 2, 0x0000000000000000000000000000000000000000000000000000000000000020000000000000000000000000000000000000000000000000000000000000000000000000000000000000000000000000000000000000000000000000000000030000000000000000000000000000000000000000000000000000000000000000000000000000000000000000000000000000000000000000000000000000000000000000000000000000000000000000000000000000000000000000000000c0000000000000000000000000000000000000000000000000000000000000014000000000000000000000000000000000000000000000000000000000000000030000000000000000000000006a02d83e8d433304bba74ef1c4279139581871420000000000000000000000007240264781aa2f97cb994c6231297a86064832420000000000000000000000009e930731cb4a6bf7ecc11f695a295c60bdd212eb0000000000000000000000000000000000000000000000000000000000000000)]"
      ],
      "transaction": {
        "from": "0x45dce8e4f2dc005a5f28206a46cb034697eeda8e",
        "to": "0x1a44076050125825900e736c501f859c50fe728c",
        "gas": "0x39f54",
        "value": "0x0",
        "input": "0x6dbd9f9000000000000000000000000057558cb8d6005de0bae8a2789d5efaae52dba5a80000000000000000000000003c4962ff6258dcfcafd23a814237b7d6eb712063000000000000000000000000000000000000000000000000000000000000006000000000000000000000000000000000000000000000000000000000000000010000000000000000000000000000000000000000000000000000000000000020000000000000000000000000000000000000000000000000000000000000759a0000000000000000000000000000000000000000000000000000000000000002000000000000000000000000000000000000000000000000000000000000006000000000000000000000000000000000000000000000000000000000000001800000000000000000000000000000000000000000000000000000000000000020000000000000000000000000000000000000000000000000000000000000000000000000000000000000000000000000000000000000000000000000000000030000000000000000000000000000000000000000000000000000000000000000000000000000000000000000000000000000000000000000000000000000000000000000000000000000000000000000000000000000000000000000000000c0000000000000000000000000000000000000000000000000000000000000014000000000000000000000000000000000000000000000000000000000000000030000000000000000000000006a02d83e8d433304bba74ef1c4279139581871420000000000000000000000007240264781aa2f97cb994c6231297a86064832420000000000000000000000009e930731cb4a6bf7ecc11f695a295c60bdd212eb0000000000000000000000000000000000000000000000000000000000000000",
        "nonce": "0x34",
        "chainId": "0xa"
      },
      "additionalContracts": [],
      "isFixedGasLimit": false
    },
    {
      "hash": null,
      "transactionType": "CALL",
      "contractName": null,
      "contractAddress": "0x1a44076050125825900e736c501f859c50fe728c",
      "function": "setConfig(address,address,(uint32,uint32,bytes)[])",
      "arguments": [
        "0x57558Cb8d6005DE0BAe8a2789d5EfaaE52dba5a8",
        "0x1322871e4ab09Bc7f5717189434f97bBD9546e95",
        "[(30102, 2, 0x0000000000000000000000000000000000000000000000000000000000000020000000000000000000000000000000000000000000000000000000000000000000000000000000000000000000000000000000000000000000000000000000030000000000000000000000000000000000000000000000000000000000000000000000000000000000000000000000000000000000000000000000000000000000000000000000000000000000000000000000000000000000000000000000c0000000000000000000000000000000000000000000000000000000000000014000000000000000000000000000000000000000000000000000000000000000030000000000000000000000006a02d83e8d433304bba74ef1c4279139581871420000000000000000000000007240264781aa2f97cb994c6231297a86064832420000000000000000000000009e930731cb4a6bf7ecc11f695a295c60bdd212eb0000000000000000000000000000000000000000000000000000000000000000)]"
      ],
      "transaction": {
        "from": "0x45dce8e4f2dc005a5f28206a46cb034697eeda8e",
        "to": "0x1a44076050125825900e736c501f859c50fe728c",
        "gas": "0x3a0bd",
        "value": "0x0",
        "input": "0x6dbd9f9000000000000000000000000057558cb8d6005de0bae8a2789d5efaae52dba5a80000000000000000000000001322871e4ab09bc7f5717189434f97bbd9546e9500000000000000000000000000000000000000000000000000000000000000600000000000000000000000000000000000000000000000000000000000000001000000000000000000000000000000000000000000000000000000000000002000000000000000000000000000000000000000000000000000000000000075960000000000000000000000000000000000000000000000000000000000000002000000000000000000000000000000000000000000000000000000000000006000000000000000000000000000000000000000000000000000000000000001800000000000000000000000000000000000000000000000000000000000000020000000000000000000000000000000000000000000000000000000000000000000000000000000000000000000000000000000000000000000000000000000030000000000000000000000000000000000000000000000000000000000000000000000000000000000000000000000000000000000000000000000000000000000000000000000000000000000000000000000000000000000000000000000c0000000000000000000000000000000000000000000000000000000000000014000000000000000000000000000000000000000000000000000000000000000030000000000000000000000006a02d83e8d433304bba74ef1c4279139581871420000000000000000000000007240264781aa2f97cb994c6231297a86064832420000000000000000000000009e930731cb4a6bf7ecc11f695a295c60bdd212eb0000000000000000000000000000000000000000000000000000000000000000",
        "nonce": "0x35",
        "chainId": "0xa"
      },
      "additionalContracts": [],
      "isFixedGasLimit": false
    },
    {
      "hash": null,
      "transactionType": "CALL",
      "contractName": null,
      "contractAddress": "0x1a44076050125825900e736c501f859c50fe728c",
      "function": "setConfig(address,address,(uint32,uint32,bytes)[])",
      "arguments": [
        "0x57558Cb8d6005DE0BAe8a2789d5EfaaE52dba5a8",
        "0x3c4962Ff6258dcfCafD23a814237B7d6Eb712063",
        "[(30102, 2, 0x0000000000000000000000000000000000000000000000000000000000000020000000000000000000000000000000000000000000000000000000000000000000000000000000000000000000000000000000000000000000000000000000030000000000000000000000000000000000000000000000000000000000000000000000000000000000000000000000000000000000000000000000000000000000000000000000000000000000000000000000000000000000000000000000c0000000000000000000000000000000000000000000000000000000000000014000000000000000000000000000000000000000000000000000000000000000030000000000000000000000006a02d83e8d433304bba74ef1c4279139581871420000000000000000000000007240264781aa2f97cb994c6231297a86064832420000000000000000000000009e930731cb4a6bf7ecc11f695a295c60bdd212eb0000000000000000000000000000000000000000000000000000000000000000)]"
      ],
      "transaction": {
        "from": "0x45dce8e4f2dc005a5f28206a46cb034697eeda8e",
        "to": "0x1a44076050125825900e736c501f859c50fe728c",
        "gas": "0x39f54",
        "value": "0x0",
        "input": "0x6dbd9f9000000000000000000000000057558cb8d6005de0bae8a2789d5efaae52dba5a80000000000000000000000003c4962ff6258dcfcafd23a814237b7d6eb71206300000000000000000000000000000000000000000000000000000000000000600000000000000000000000000000000000000000000000000000000000000001000000000000000000000000000000000000000000000000000000000000002000000000000000000000000000000000000000000000000000000000000075960000000000000000000000000000000000000000000000000000000000000002000000000000000000000000000000000000000000000000000000000000006000000000000000000000000000000000000000000000000000000000000001800000000000000000000000000000000000000000000000000000000000000020000000000000000000000000000000000000000000000000000000000000000000000000000000000000000000000000000000000000000000000000000000030000000000000000000000000000000000000000000000000000000000000000000000000000000000000000000000000000000000000000000000000000000000000000000000000000000000000000000000000000000000000000000000c0000000000000000000000000000000000000000000000000000000000000014000000000000000000000000000000000000000000000000000000000000000030000000000000000000000006a02d83e8d433304bba74ef1c4279139581871420000000000000000000000007240264781aa2f97cb994c6231297a86064832420000000000000000000000009e930731cb4a6bf7ecc11f695a295c60bdd212eb0000000000000000000000000000000000000000000000000000000000000000",
        "nonce": "0x36",
        "chainId": "0xa"
      },
      "additionalContracts": [],
      "isFixedGasLimit": false
    },
    {
      "hash": null,
      "transactionType": "CALL",
      "contractName": null,
      "contractAddress": "0x1a44076050125825900e736c501f859c50fe728c",
      "function": "setConfig(address,address,(uint32,uint32,bytes)[])",
      "arguments": [
        "0x57558Cb8d6005DE0BAe8a2789d5EfaaE52dba5a8",
        "0x1322871e4ab09Bc7f5717189434f97bBD9546e95",
        "[(30158, 2, 0x0000000000000000000000000000000000000000000000000000000000000020000000000000000000000000000000000000000000000000000000000000000000000000000000000000000000000000000000000000000000000000000000030000000000000000000000000000000000000000000000000000000000000000000000000000000000000000000000000000000000000000000000000000000000000000000000000000000000000000000000000000000000000000000000c0000000000000000000000000000000000000000000000000000000000000014000000000000000000000000000000000000000000000000000000000000000030000000000000000000000006a02d83e8d433304bba74ef1c4279139581871420000000000000000000000007240264781aa2f97cb994c6231297a86064832420000000000000000000000009e930731cb4a6bf7ecc11f695a295c60bdd212eb0000000000000000000000000000000000000000000000000000000000000000)]"
      ],
      "transaction": {
        "from": "0x45dce8e4f2dc005a5f28206a46cb034697eeda8e",
        "to": "0x1a44076050125825900e736c501f859c50fe728c",
        "gas": "0x3a0bd",
        "value": "0x0",
        "input": "0x6dbd9f9000000000000000000000000057558cb8d6005de0bae8a2789d5efaae52dba5a80000000000000000000000001322871e4ab09bc7f5717189434f97bbd9546e9500000000000000000000000000000000000000000000000000000000000000600000000000000000000000000000000000000000000000000000000000000001000000000000000000000000000000000000000000000000000000000000002000000000000000000000000000000000000000000000000000000000000075ce0000000000000000000000000000000000000000000000000000000000000002000000000000000000000000000000000000000000000000000000000000006000000000000000000000000000000000000000000000000000000000000001800000000000000000000000000000000000000000000000000000000000000020000000000000000000000000000000000000000000000000000000000000000000000000000000000000000000000000000000000000000000000000000000030000000000000000000000000000000000000000000000000000000000000000000000000000000000000000000000000000000000000000000000000000000000000000000000000000000000000000000000000000000000000000000000c0000000000000000000000000000000000000000000000000000000000000014000000000000000000000000000000000000000000000000000000000000000030000000000000000000000006a02d83e8d433304bba74ef1c4279139581871420000000000000000000000007240264781aa2f97cb994c6231297a86064832420000000000000000000000009e930731cb4a6bf7ecc11f695a295c60bdd212eb0000000000000000000000000000000000000000000000000000000000000000",
        "nonce": "0x37",
        "chainId": "0xa"
      },
      "additionalContracts": [],
      "isFixedGasLimit": false
    },
    {
      "hash": null,
      "transactionType": "CALL",
      "contractName": null,
      "contractAddress": "0x1a44076050125825900e736c501f859c50fe728c",
      "function": "setConfig(address,address,(uint32,uint32,bytes)[])",
      "arguments": [
        "0x57558Cb8d6005DE0BAe8a2789d5EfaaE52dba5a8",
        "0x3c4962Ff6258dcfCafD23a814237B7d6Eb712063",
        "[(30158, 2, 0x0000000000000000000000000000000000000000000000000000000000000020000000000000000000000000000000000000000000000000000000000000000000000000000000000000000000000000000000000000000000000000000000030000000000000000000000000000000000000000000000000000000000000000000000000000000000000000000000000000000000000000000000000000000000000000000000000000000000000000000000000000000000000000000000c0000000000000000000000000000000000000000000000000000000000000014000000000000000000000000000000000000000000000000000000000000000030000000000000000000000006a02d83e8d433304bba74ef1c4279139581871420000000000000000000000007240264781aa2f97cb994c6231297a86064832420000000000000000000000009e930731cb4a6bf7ecc11f695a295c60bdd212eb0000000000000000000000000000000000000000000000000000000000000000)]"
      ],
      "transaction": {
        "from": "0x45dce8e4f2dc005a5f28206a46cb034697eeda8e",
        "to": "0x1a44076050125825900e736c501f859c50fe728c",
        "gas": "0x39f54",
        "value": "0x0",
        "input": "0x6dbd9f9000000000000000000000000057558cb8d6005de0bae8a2789d5efaae52dba5a80000000000000000000000003c4962ff6258dcfcafd23a814237b7d6eb71206300000000000000000000000000000000000000000000000000000000000000600000000000000000000000000000000000000000000000000000000000000001000000000000000000000000000000000000000000000000000000000000002000000000000000000000000000000000000000000000000000000000000075ce0000000000000000000000000000000000000000000000000000000000000002000000000000000000000000000000000000000000000000000000000000006000000000000000000000000000000000000000000000000000000000000001800000000000000000000000000000000000000000000000000000000000000020000000000000000000000000000000000000000000000000000000000000000000000000000000000000000000000000000000000000000000000000000000030000000000000000000000000000000000000000000000000000000000000000000000000000000000000000000000000000000000000000000000000000000000000000000000000000000000000000000000000000000000000000000000c0000000000000000000000000000000000000000000000000000000000000014000000000000000000000000000000000000000000000000000000000000000030000000000000000000000006a02d83e8d433304bba74ef1c4279139581871420000000000000000000000007240264781aa2f97cb994c6231297a86064832420000000000000000000000009e930731cb4a6bf7ecc11f695a295c60bdd212eb0000000000000000000000000000000000000000000000000000000000000000",
        "nonce": "0x38",
        "chainId": "0xa"
      },
      "additionalContracts": [],
      "isFixedGasLimit": false
    },
    {
      "hash": null,
      "transactionType": "CALL",
      "contractName": null,
      "contractAddress": "0x1a44076050125825900e736c501f859c50fe728c",
      "function": "setConfig(address,address,(uint32,uint32,bytes)[])",
      "arguments": [
        "0x57558Cb8d6005DE0BAe8a2789d5EfaaE52dba5a8",
        "0x1322871e4ab09Bc7f5717189434f97bBD9546e95",
        "[(30362, 2, 0x0000000000000000000000000000000000000000000000000000000000000020000000000000000000000000000000000000000000000000000000000000000000000000000000000000000000000000000000000000000000000000000000030000000000000000000000000000000000000000000000000000000000000000000000000000000000000000000000000000000000000000000000000000000000000000000000000000000000000000000000000000000000000000000000c0000000000000000000000000000000000000000000000000000000000000014000000000000000000000000000000000000000000000000000000000000000030000000000000000000000006a02d83e8d433304bba74ef1c4279139581871420000000000000000000000007240264781aa2f97cb994c6231297a86064832420000000000000000000000009e930731cb4a6bf7ecc11f695a295c60bdd212eb0000000000000000000000000000000000000000000000000000000000000000)]"
      ],
      "transaction": {
        "from": "0x45dce8e4f2dc005a5f28206a46cb034697eeda8e",
        "to": "0x1a44076050125825900e736c501f859c50fe728c",
        "gas": "0x3a0bd",
        "value": "0x0",
        "input": "0x6dbd9f9000000000000000000000000057558cb8d6005de0bae8a2789d5efaae52dba5a80000000000000000000000001322871e4ab09bc7f5717189434f97bbd9546e95000000000000000000000000000000000000000000000000000000000000006000000000000000000000000000000000000000000000000000000000000000010000000000000000000000000000000000000000000000000000000000000020000000000000000000000000000000000000000000000000000000000000769a0000000000000000000000000000000000000000000000000000000000000002000000000000000000000000000000000000000000000000000000000000006000000000000000000000000000000000000000000000000000000000000001800000000000000000000000000000000000000000000000000000000000000020000000000000000000000000000000000000000000000000000000000000000000000000000000000000000000000000000000000000000000000000000000030000000000000000000000000000000000000000000000000000000000000000000000000000000000000000000000000000000000000000000000000000000000000000000000000000000000000000000000000000000000000000000000c0000000000000000000000000000000000000000000000000000000000000014000000000000000000000000000000000000000000000000000000000000000030000000000000000000000006a02d83e8d433304bba74ef1c4279139581871420000000000000000000000007240264781aa2f97cb994c6231297a86064832420000000000000000000000009e930731cb4a6bf7ecc11f695a295c60bdd212eb0000000000000000000000000000000000000000000000000000000000000000",
        "nonce": "0x39",
        "chainId": "0xa"
      },
      "additionalContracts": [],
      "isFixedGasLimit": false
    },
    {
      "hash": null,
      "transactionType": "CALL",
      "contractName": null,
      "contractAddress": "0x1a44076050125825900e736c501f859c50fe728c",
      "function": "setConfig(address,address,(uint32,uint32,bytes)[])",
      "arguments": [
        "0x57558Cb8d6005DE0BAe8a2789d5EfaaE52dba5a8",
        "0x3c4962Ff6258dcfCafD23a814237B7d6Eb712063",
        "[(30362, 2, 0x0000000000000000000000000000000000000000000000000000000000000020000000000000000000000000000000000000000000000000000000000000000000000000000000000000000000000000000000000000000000000000000000030000000000000000000000000000000000000000000000000000000000000000000000000000000000000000000000000000000000000000000000000000000000000000000000000000000000000000000000000000000000000000000000c0000000000000000000000000000000000000000000000000000000000000014000000000000000000000000000000000000000000000000000000000000000030000000000000000000000006a02d83e8d433304bba74ef1c4279139581871420000000000000000000000007240264781aa2f97cb994c6231297a86064832420000000000000000000000009e930731cb4a6bf7ecc11f695a295c60bdd212eb0000000000000000000000000000000000000000000000000000000000000000)]"
      ],
      "transaction": {
        "from": "0x45dce8e4f2dc005a5f28206a46cb034697eeda8e",
        "to": "0x1a44076050125825900e736c501f859c50fe728c",
        "gas": "0x39f54",
        "value": "0x0",
        "input": "0x6dbd9f9000000000000000000000000057558cb8d6005de0bae8a2789d5efaae52dba5a80000000000000000000000003c4962ff6258dcfcafd23a814237b7d6eb712063000000000000000000000000000000000000000000000000000000000000006000000000000000000000000000000000000000000000000000000000000000010000000000000000000000000000000000000000000000000000000000000020000000000000000000000000000000000000000000000000000000000000769a0000000000000000000000000000000000000000000000000000000000000002000000000000000000000000000000000000000000000000000000000000006000000000000000000000000000000000000000000000000000000000000001800000000000000000000000000000000000000000000000000000000000000020000000000000000000000000000000000000000000000000000000000000000000000000000000000000000000000000000000000000000000000000000000030000000000000000000000000000000000000000000000000000000000000000000000000000000000000000000000000000000000000000000000000000000000000000000000000000000000000000000000000000000000000000000000c0000000000000000000000000000000000000000000000000000000000000014000000000000000000000000000000000000000000000000000000000000000030000000000000000000000006a02d83e8d433304bba74ef1c4279139581871420000000000000000000000007240264781aa2f97cb994c6231297a86064832420000000000000000000000009e930731cb4a6bf7ecc11f695a295c60bdd212eb0000000000000000000000000000000000000000000000000000000000000000",
        "nonce": "0x3a",
        "chainId": "0xa"
      },
      "additionalContracts": [],
      "isFixedGasLimit": false
    },
    {
      "hash": null,
      "transactionType": "CALL",
      "contractName": null,
      "contractAddress": "0x1a44076050125825900e736c501f859c50fe728c",
      "function": "setConfig(address,address,(uint32,uint32,bytes)[])",
      "arguments": [
        "0x57558Cb8d6005DE0BAe8a2789d5EfaaE52dba5a8",
        "0x1322871e4ab09Bc7f5717189434f97bBD9546e95",
        "[(30183, 2, 0x0000000000000000000000000000000000000000000000000000000000000020000000000000000000000000000000000000000000000000000000000000000000000000000000000000000000000000000000000000000000000000000000030000000000000000000000000000000000000000000000000000000000000000000000000000000000000000000000000000000000000000000000000000000000000000000000000000000000000000000000000000000000000000000000c0000000000000000000000000000000000000000000000000000000000000014000000000000000000000000000000000000000000000000000000000000000030000000000000000000000006a02d83e8d433304bba74ef1c4279139581871420000000000000000000000007240264781aa2f97cb994c6231297a86064832420000000000000000000000009e930731cb4a6bf7ecc11f695a295c60bdd212eb0000000000000000000000000000000000000000000000000000000000000000)]"
      ],
      "transaction": {
        "from": "0x45dce8e4f2dc005a5f28206a46cb034697eeda8e",
        "to": "0x1a44076050125825900e736c501f859c50fe728c",
        "gas": "0x3a0bd",
        "value": "0x0",
        "input": "0x6dbd9f9000000000000000000000000057558cb8d6005de0bae8a2789d5efaae52dba5a80000000000000000000000001322871e4ab09bc7f5717189434f97bbd9546e9500000000000000000000000000000000000000000000000000000000000000600000000000000000000000000000000000000000000000000000000000000001000000000000000000000000000000000000000000000000000000000000002000000000000000000000000000000000000000000000000000000000000075e70000000000000000000000000000000000000000000000000000000000000002000000000000000000000000000000000000000000000000000000000000006000000000000000000000000000000000000000000000000000000000000001800000000000000000000000000000000000000000000000000000000000000020000000000000000000000000000000000000000000000000000000000000000000000000000000000000000000000000000000000000000000000000000000030000000000000000000000000000000000000000000000000000000000000000000000000000000000000000000000000000000000000000000000000000000000000000000000000000000000000000000000000000000000000000000000c0000000000000000000000000000000000000000000000000000000000000014000000000000000000000000000000000000000000000000000000000000000030000000000000000000000006a02d83e8d433304bba74ef1c4279139581871420000000000000000000000007240264781aa2f97cb994c6231297a86064832420000000000000000000000009e930731cb4a6bf7ecc11f695a295c60bdd212eb0000000000000000000000000000000000000000000000000000000000000000",
        "nonce": "0x3b",
        "chainId": "0xa"
      },
      "additionalContracts": [],
      "isFixedGasLimit": false
    },
    {
      "hash": null,
      "transactionType": "CALL",
      "contractName": null,
      "contractAddress": "0x1a44076050125825900e736c501f859c50fe728c",
      "function": "setConfig(address,address,(uint32,uint32,bytes)[])",
      "arguments": [
        "0x57558Cb8d6005DE0BAe8a2789d5EfaaE52dba5a8",
        "0x3c4962Ff6258dcfCafD23a814237B7d6Eb712063",
        "[(30183, 2, 0x0000000000000000000000000000000000000000000000000000000000000020000000000000000000000000000000000000000000000000000000000000000000000000000000000000000000000000000000000000000000000000000000030000000000000000000000000000000000000000000000000000000000000000000000000000000000000000000000000000000000000000000000000000000000000000000000000000000000000000000000000000000000000000000000c0000000000000000000000000000000000000000000000000000000000000014000000000000000000000000000000000000000000000000000000000000000030000000000000000000000006a02d83e8d433304bba74ef1c4279139581871420000000000000000000000007240264781aa2f97cb994c6231297a86064832420000000000000000000000009e930731cb4a6bf7ecc11f695a295c60bdd212eb0000000000000000000000000000000000000000000000000000000000000000)]"
      ],
      "transaction": {
        "from": "0x45dce8e4f2dc005a5f28206a46cb034697eeda8e",
        "to": "0x1a44076050125825900e736c501f859c50fe728c",
        "gas": "0x39f54",
        "value": "0x0",
        "input": "0x6dbd9f9000000000000000000000000057558cb8d6005de0bae8a2789d5efaae52dba5a80000000000000000000000003c4962ff6258dcfcafd23a814237b7d6eb71206300000000000000000000000000000000000000000000000000000000000000600000000000000000000000000000000000000000000000000000000000000001000000000000000000000000000000000000000000000000000000000000002000000000000000000000000000000000000000000000000000000000000075e70000000000000000000000000000000000000000000000000000000000000002000000000000000000000000000000000000000000000000000000000000006000000000000000000000000000000000000000000000000000000000000001800000000000000000000000000000000000000000000000000000000000000020000000000000000000000000000000000000000000000000000000000000000000000000000000000000000000000000000000000000000000000000000000030000000000000000000000000000000000000000000000000000000000000000000000000000000000000000000000000000000000000000000000000000000000000000000000000000000000000000000000000000000000000000000000c0000000000000000000000000000000000000000000000000000000000000014000000000000000000000000000000000000000000000000000000000000000030000000000000000000000006a02d83e8d433304bba74ef1c4279139581871420000000000000000000000007240264781aa2f97cb994c6231297a86064832420000000000000000000000009e930731cb4a6bf7ecc11f695a295c60bdd212eb0000000000000000000000000000000000000000000000000000000000000000",
        "nonce": "0x3c",
        "chainId": "0xa"
      },
      "additionalContracts": [],
      "isFixedGasLimit": false
    },
    {
      "hash": null,
      "transactionType": "CALL",
      "contractName": null,
      "contractAddress": "0x1a44076050125825900e736c501f859c50fe728c",
      "function": "setConfig(address,address,(uint32,uint32,bytes)[])",
      "arguments": [
        "0x57558Cb8d6005DE0BAe8a2789d5EfaaE52dba5a8",
        "0x1322871e4ab09Bc7f5717189434f97bBD9546e95",
        "[(30319, 2, 0x0000000000000000000000000000000000000000000000000000000000000020000000000000000000000000000000000000000000000000000000000000000000000000000000000000000000000000000000000000000000000000000000030000000000000000000000000000000000000000000000000000000000000000000000000000000000000000000000000000000000000000000000000000000000000000000000000000000000000000000000000000000000000000000000c0000000000000000000000000000000000000000000000000000000000000014000000000000000000000000000000000000000000000000000000000000000030000000000000000000000006a02d83e8d433304bba74ef1c4279139581871420000000000000000000000007240264781aa2f97cb994c6231297a86064832420000000000000000000000009e930731cb4a6bf7ecc11f695a295c60bdd212eb0000000000000000000000000000000000000000000000000000000000000000)]"
      ],
      "transaction": {
        "from": "0x45dce8e4f2dc005a5f28206a46cb034697eeda8e",
        "to": "0x1a44076050125825900e736c501f859c50fe728c",
        "gas": "0x3a0bd",
        "value": "0x0",
        "input": "0x6dbd9f9000000000000000000000000057558cb8d6005de0bae8a2789d5efaae52dba5a80000000000000000000000001322871e4ab09bc7f5717189434f97bbd9546e95000000000000000000000000000000000000000000000000000000000000006000000000000000000000000000000000000000000000000000000000000000010000000000000000000000000000000000000000000000000000000000000020000000000000000000000000000000000000000000000000000000000000766f0000000000000000000000000000000000000000000000000000000000000002000000000000000000000000000000000000000000000000000000000000006000000000000000000000000000000000000000000000000000000000000001800000000000000000000000000000000000000000000000000000000000000020000000000000000000000000000000000000000000000000000000000000000000000000000000000000000000000000000000000000000000000000000000030000000000000000000000000000000000000000000000000000000000000000000000000000000000000000000000000000000000000000000000000000000000000000000000000000000000000000000000000000000000000000000000c0000000000000000000000000000000000000000000000000000000000000014000000000000000000000000000000000000000000000000000000000000000030000000000000000000000006a02d83e8d433304bba74ef1c4279139581871420000000000000000000000007240264781aa2f97cb994c6231297a86064832420000000000000000000000009e930731cb4a6bf7ecc11f695a295c60bdd212eb0000000000000000000000000000000000000000000000000000000000000000",
        "nonce": "0x3d",
        "chainId": "0xa"
      },
      "additionalContracts": [],
      "isFixedGasLimit": false
    },
    {
      "hash": null,
      "transactionType": "CALL",
      "contractName": null,
      "contractAddress": "0x1a44076050125825900e736c501f859c50fe728c",
      "function": "setConfig(address,address,(uint32,uint32,bytes)[])",
      "arguments": [
        "0x57558Cb8d6005DE0BAe8a2789d5EfaaE52dba5a8",
        "0x3c4962Ff6258dcfCafD23a814237B7d6Eb712063",
        "[(30319, 2, 0x0000000000000000000000000000000000000000000000000000000000000020000000000000000000000000000000000000000000000000000000000000000000000000000000000000000000000000000000000000000000000000000000030000000000000000000000000000000000000000000000000000000000000000000000000000000000000000000000000000000000000000000000000000000000000000000000000000000000000000000000000000000000000000000000c0000000000000000000000000000000000000000000000000000000000000014000000000000000000000000000000000000000000000000000000000000000030000000000000000000000006a02d83e8d433304bba74ef1c4279139581871420000000000000000000000007240264781aa2f97cb994c6231297a86064832420000000000000000000000009e930731cb4a6bf7ecc11f695a295c60bdd212eb0000000000000000000000000000000000000000000000000000000000000000)]"
      ],
      "transaction": {
        "from": "0x45dce8e4f2dc005a5f28206a46cb034697eeda8e",
        "to": "0x1a44076050125825900e736c501f859c50fe728c",
        "gas": "0x39f54",
        "value": "0x0",
        "input": "0x6dbd9f9000000000000000000000000057558cb8d6005de0bae8a2789d5efaae52dba5a80000000000000000000000003c4962ff6258dcfcafd23a814237b7d6eb712063000000000000000000000000000000000000000000000000000000000000006000000000000000000000000000000000000000000000000000000000000000010000000000000000000000000000000000000000000000000000000000000020000000000000000000000000000000000000000000000000000000000000766f0000000000000000000000000000000000000000000000000000000000000002000000000000000000000000000000000000000000000000000000000000006000000000000000000000000000000000000000000000000000000000000001800000000000000000000000000000000000000000000000000000000000000020000000000000000000000000000000000000000000000000000000000000000000000000000000000000000000000000000000000000000000000000000000030000000000000000000000000000000000000000000000000000000000000000000000000000000000000000000000000000000000000000000000000000000000000000000000000000000000000000000000000000000000000000000000c0000000000000000000000000000000000000000000000000000000000000014000000000000000000000000000000000000000000000000000000000000000030000000000000000000000006a02d83e8d433304bba74ef1c4279139581871420000000000000000000000007240264781aa2f97cb994c6231297a86064832420000000000000000000000009e930731cb4a6bf7ecc11f695a295c60bdd212eb0000000000000000000000000000000000000000000000000000000000000000",
        "nonce": "0x3e",
        "chainId": "0xa"
      },
      "additionalContracts": [],
      "isFixedGasLimit": false
    },
    {
      "hash": null,
      "transactionType": "CALL",
      "contractName": null,
      "contractAddress": "0x1a44076050125825900e736c501f859c50fe728c",
      "function": "setConfig(address,address,(uint32,uint32,bytes)[])",
      "arguments": [
        "0x57558Cb8d6005DE0BAe8a2789d5EfaaE52dba5a8",
        "0x1322871e4ab09Bc7f5717189434f97bBD9546e95",
        "[(30324, 2, 0x0000000000000000000000000000000000000000000000000000000000000020000000000000000000000000000000000000000000000000000000000000000000000000000000000000000000000000000000000000000000000000000000030000000000000000000000000000000000000000000000000000000000000000000000000000000000000000000000000000000000000000000000000000000000000000000000000000000000000000000000000000000000000000000000c0000000000000000000000000000000000000000000000000000000000000014000000000000000000000000000000000000000000000000000000000000000030000000000000000000000006a02d83e8d433304bba74ef1c4279139581871420000000000000000000000007240264781aa2f97cb994c6231297a86064832420000000000000000000000009e930731cb4a6bf7ecc11f695a295c60bdd212eb0000000000000000000000000000000000000000000000000000000000000000)]"
      ],
      "transaction": {
        "from": "0x45dce8e4f2dc005a5f28206a46cb034697eeda8e",
        "to": "0x1a44076050125825900e736c501f859c50fe728c",
        "gas": "0x3a0bd",
        "value": "0x0",
        "input": "0x6dbd9f9000000000000000000000000057558cb8d6005de0bae8a2789d5efaae52dba5a80000000000000000000000001322871e4ab09bc7f5717189434f97bbd9546e9500000000000000000000000000000000000000000000000000000000000000600000000000000000000000000000000000000000000000000000000000000001000000000000000000000000000000000000000000000000000000000000002000000000000000000000000000000000000000000000000000000000000076740000000000000000000000000000000000000000000000000000000000000002000000000000000000000000000000000000000000000000000000000000006000000000000000000000000000000000000000000000000000000000000001800000000000000000000000000000000000000000000000000000000000000020000000000000000000000000000000000000000000000000000000000000000000000000000000000000000000000000000000000000000000000000000000030000000000000000000000000000000000000000000000000000000000000000000000000000000000000000000000000000000000000000000000000000000000000000000000000000000000000000000000000000000000000000000000c0000000000000000000000000000000000000000000000000000000000000014000000000000000000000000000000000000000000000000000000000000000030000000000000000000000006a02d83e8d433304bba74ef1c4279139581871420000000000000000000000007240264781aa2f97cb994c6231297a86064832420000000000000000000000009e930731cb4a6bf7ecc11f695a295c60bdd212eb0000000000000000000000000000000000000000000000000000000000000000",
        "nonce": "0x3f",
        "chainId": "0xa"
      },
      "additionalContracts": [],
      "isFixedGasLimit": false
    },
    {
      "hash": null,
      "transactionType": "CALL",
      "contractName": null,
      "contractAddress": "0x1a44076050125825900e736c501f859c50fe728c",
      "function": "setConfig(address,address,(uint32,uint32,bytes)[])",
      "arguments": [
        "0x57558Cb8d6005DE0BAe8a2789d5EfaaE52dba5a8",
        "0x3c4962Ff6258dcfCafD23a814237B7d6Eb712063",
        "[(30324, 2, 0x0000000000000000000000000000000000000000000000000000000000000020000000000000000000000000000000000000000000000000000000000000000000000000000000000000000000000000000000000000000000000000000000030000000000000000000000000000000000000000000000000000000000000000000000000000000000000000000000000000000000000000000000000000000000000000000000000000000000000000000000000000000000000000000000c0000000000000000000000000000000000000000000000000000000000000014000000000000000000000000000000000000000000000000000000000000000030000000000000000000000006a02d83e8d433304bba74ef1c4279139581871420000000000000000000000007240264781aa2f97cb994c6231297a86064832420000000000000000000000009e930731cb4a6bf7ecc11f695a295c60bdd212eb0000000000000000000000000000000000000000000000000000000000000000)]"
      ],
      "transaction": {
        "from": "0x45dce8e4f2dc005a5f28206a46cb034697eeda8e",
        "to": "0x1a44076050125825900e736c501f859c50fe728c",
        "gas": "0x39f54",
        "value": "0x0",
        "input": "0x6dbd9f9000000000000000000000000057558cb8d6005de0bae8a2789d5efaae52dba5a80000000000000000000000003c4962ff6258dcfcafd23a814237b7d6eb71206300000000000000000000000000000000000000000000000000000000000000600000000000000000000000000000000000000000000000000000000000000001000000000000000000000000000000000000000000000000000000000000002000000000000000000000000000000000000000000000000000000000000076740000000000000000000000000000000000000000000000000000000000000002000000000000000000000000000000000000000000000000000000000000006000000000000000000000000000000000000000000000000000000000000001800000000000000000000000000000000000000000000000000000000000000020000000000000000000000000000000000000000000000000000000000000000000000000000000000000000000000000000000000000000000000000000000030000000000000000000000000000000000000000000000000000000000000000000000000000000000000000000000000000000000000000000000000000000000000000000000000000000000000000000000000000000000000000000000c0000000000000000000000000000000000000000000000000000000000000014000000000000000000000000000000000000000000000000000000000000000030000000000000000000000006a02d83e8d433304bba74ef1c4279139581871420000000000000000000000007240264781aa2f97cb994c6231297a86064832420000000000000000000000009e930731cb4a6bf7ecc11f695a295c60bdd212eb0000000000000000000000000000000000000000000000000000000000000000",
        "nonce": "0x40",
        "chainId": "0xa"
      },
      "additionalContracts": [],
      "isFixedGasLimit": false
    },
    {
      "hash": null,
      "transactionType": "CALL",
      "contractName": null,
      "contractAddress": "0x1a44076050125825900e736c501f859c50fe728c",
      "function": "setConfig(address,address,(uint32,uint32,bytes)[])",
      "arguments": [
        "0x57558Cb8d6005DE0BAe8a2789d5EfaaE52dba5a8",
        "0x1322871e4ab09Bc7f5717189434f97bBD9546e95",
        "[(30165, 2, 0x0000000000000000000000000000000000000000000000000000000000000020000000000000000000000000000000000000000000000000000000000000000000000000000000000000000000000000000000000000000000000000000000030000000000000000000000000000000000000000000000000000000000000000000000000000000000000000000000000000000000000000000000000000000000000000000000000000000000000000000000000000000000000000000000c0000000000000000000000000000000000000000000000000000000000000014000000000000000000000000000000000000000000000000000000000000000030000000000000000000000006a02d83e8d433304bba74ef1c4279139581871420000000000000000000000007240264781aa2f97cb994c6231297a86064832420000000000000000000000009e930731cb4a6bf7ecc11f695a295c60bdd212eb0000000000000000000000000000000000000000000000000000000000000000)]"
      ],
      "transaction": {
        "from": "0x45dce8e4f2dc005a5f28206a46cb034697eeda8e",
        "to": "0x1a44076050125825900e736c501f859c50fe728c",
        "gas": "0x3a0bd",
        "value": "0x0",
        "input": "0x6dbd9f9000000000000000000000000057558cb8d6005de0bae8a2789d5efaae52dba5a80000000000000000000000001322871e4ab09bc7f5717189434f97bbd9546e9500000000000000000000000000000000000000000000000000000000000000600000000000000000000000000000000000000000000000000000000000000001000000000000000000000000000000000000000000000000000000000000002000000000000000000000000000000000000000000000000000000000000075d50000000000000000000000000000000000000000000000000000000000000002000000000000000000000000000000000000000000000000000000000000006000000000000000000000000000000000000000000000000000000000000001800000000000000000000000000000000000000000000000000000000000000020000000000000000000000000000000000000000000000000000000000000000000000000000000000000000000000000000000000000000000000000000000030000000000000000000000000000000000000000000000000000000000000000000000000000000000000000000000000000000000000000000000000000000000000000000000000000000000000000000000000000000000000000000000c0000000000000000000000000000000000000000000000000000000000000014000000000000000000000000000000000000000000000000000000000000000030000000000000000000000006a02d83e8d433304bba74ef1c4279139581871420000000000000000000000007240264781aa2f97cb994c6231297a86064832420000000000000000000000009e930731cb4a6bf7ecc11f695a295c60bdd212eb0000000000000000000000000000000000000000000000000000000000000000",
        "nonce": "0x41",
        "chainId": "0xa"
      },
      "additionalContracts": [],
      "isFixedGasLimit": false
    },
    {
      "hash": null,
      "transactionType": "CALL",
      "contractName": null,
      "contractAddress": "0x1a44076050125825900e736c501f859c50fe728c",
      "function": "setConfig(address,address,(uint32,uint32,bytes)[])",
      "arguments": [
        "0x57558Cb8d6005DE0BAe8a2789d5EfaaE52dba5a8",
        "0x3c4962Ff6258dcfCafD23a814237B7d6Eb712063",
        "[(30165, 2, 0x0000000000000000000000000000000000000000000000000000000000000020000000000000000000000000000000000000000000000000000000000000000000000000000000000000000000000000000000000000000000000000000000030000000000000000000000000000000000000000000000000000000000000000000000000000000000000000000000000000000000000000000000000000000000000000000000000000000000000000000000000000000000000000000000c0000000000000000000000000000000000000000000000000000000000000014000000000000000000000000000000000000000000000000000000000000000030000000000000000000000006a02d83e8d433304bba74ef1c4279139581871420000000000000000000000007240264781aa2f97cb994c6231297a86064832420000000000000000000000009e930731cb4a6bf7ecc11f695a295c60bdd212eb0000000000000000000000000000000000000000000000000000000000000000)]"
      ],
      "transaction": {
        "from": "0x45dce8e4f2dc005a5f28206a46cb034697eeda8e",
        "to": "0x1a44076050125825900e736c501f859c50fe728c",
        "gas": "0x39f54",
        "value": "0x0",
        "input": "0x6dbd9f9000000000000000000000000057558cb8d6005de0bae8a2789d5efaae52dba5a80000000000000000000000003c4962ff6258dcfcafd23a814237b7d6eb71206300000000000000000000000000000000000000000000000000000000000000600000000000000000000000000000000000000000000000000000000000000001000000000000000000000000000000000000000000000000000000000000002000000000000000000000000000000000000000000000000000000000000075d50000000000000000000000000000000000000000000000000000000000000002000000000000000000000000000000000000000000000000000000000000006000000000000000000000000000000000000000000000000000000000000001800000000000000000000000000000000000000000000000000000000000000020000000000000000000000000000000000000000000000000000000000000000000000000000000000000000000000000000000000000000000000000000000030000000000000000000000000000000000000000000000000000000000000000000000000000000000000000000000000000000000000000000000000000000000000000000000000000000000000000000000000000000000000000000000c0000000000000000000000000000000000000000000000000000000000000014000000000000000000000000000000000000000000000000000000000000000030000000000000000000000006a02d83e8d433304bba74ef1c4279139581871420000000000000000000000007240264781aa2f97cb994c6231297a86064832420000000000000000000000009e930731cb4a6bf7ecc11f695a295c60bdd212eb0000000000000000000000000000000000000000000000000000000000000000",
        "nonce": "0x42",
        "chainId": "0xa"
      },
      "additionalContracts": [],
      "isFixedGasLimit": false
    },
    {
      "hash": null,
      "transactionType": "CALL",
      "contractName": null,
      "contractAddress": "0x1a44076050125825900e736c501f859c50fe728c",
      "function": "setSendLibrary(address,uint32,address)",
      "arguments": [
        "0x57558Cb8d6005DE0BAe8a2789d5EfaaE52dba5a8",
        "30101",
        "0x1322871e4ab09Bc7f5717189434f97bBD9546e95"
      ],
      "transaction": {
        "from": "0x45dce8e4f2dc005a5f28206a46cb034697eeda8e",
        "to": "0x1a44076050125825900e736c501f859c50fe728c",
        "gas": "0x149cd",
        "value": "0x0",
        "input": "0x9535ff3000000000000000000000000057558cb8d6005de0bae8a2789d5efaae52dba5a800000000000000000000000000000000000000000000000000000000000075950000000000000000000000001322871e4ab09bc7f5717189434f97bbd9546e95",
        "nonce": "0x43",
        "chainId": "0xa"
      },
      "additionalContracts": [],
      "isFixedGasLimit": false
    },
    {
      "hash": null,
      "transactionType": "CALL",
      "contractName": null,
      "contractAddress": "0x1a44076050125825900e736c501f859c50fe728c",
      "function": "setReceiveLibrary(address,uint32,address,uint256)",
      "arguments": [
        "0x57558Cb8d6005DE0BAe8a2789d5EfaaE52dba5a8",
        "30101",
        "0x3c4962Ff6258dcfCafD23a814237B7d6Eb712063",
        "0"
      ],
      "transaction": {
        "from": "0x45dce8e4f2dc005a5f28206a46cb034697eeda8e",
        "to": "0x1a44076050125825900e736c501f859c50fe728c",
        "gas": "0x15b7f",
        "value": "0x0",
        "input": "0x6a14d71500000000000000000000000057558cb8d6005de0bae8a2789d5efaae52dba5a800000000000000000000000000000000000000000000000000000000000075950000000000000000000000003c4962ff6258dcfcafd23a814237b7d6eb7120630000000000000000000000000000000000000000000000000000000000000000",
        "nonce": "0x44",
        "chainId": "0xa"
      },
      "additionalContracts": [],
      "isFixedGasLimit": false
    },
    {
      "hash": null,
      "transactionType": "CALL",
      "contractName": null,
      "contractAddress": "0x1a44076050125825900e736c501f859c50fe728c",
      "function": "setSendLibrary(address,uint32,address)",
      "arguments": [
        "0x57558Cb8d6005DE0BAe8a2789d5EfaaE52dba5a8",
        "30243",
        "0x1322871e4ab09Bc7f5717189434f97bBD9546e95"
      ],
      "transaction": {
        "from": "0x45dce8e4f2dc005a5f28206a46cb034697eeda8e",
        "to": "0x1a44076050125825900e736c501f859c50fe728c",
        "gas": "0x149cd",
        "value": "0x0",
        "input": "0x9535ff3000000000000000000000000057558cb8d6005de0bae8a2789d5efaae52dba5a800000000000000000000000000000000000000000000000000000000000076230000000000000000000000001322871e4ab09bc7f5717189434f97bbd9546e95",
        "nonce": "0x45",
        "chainId": "0xa"
      },
      "additionalContracts": [],
      "isFixedGasLimit": false
    },
    {
      "hash": null,
      "transactionType": "CALL",
      "contractName": null,
      "contractAddress": "0x1a44076050125825900e736c501f859c50fe728c",
      "function": "setReceiveLibrary(address,uint32,address,uint256)",
      "arguments": [
        "0x57558Cb8d6005DE0BAe8a2789d5EfaaE52dba5a8",
        "30243",
        "0x3c4962Ff6258dcfCafD23a814237B7d6Eb712063",
        "0"
      ],
      "transaction": {
        "from": "0x45dce8e4f2dc005a5f28206a46cb034697eeda8e",
        "to": "0x1a44076050125825900e736c501f859c50fe728c",
        "gas": "0x15b7f",
        "value": "0x0",
        "input": "0x6a14d71500000000000000000000000057558cb8d6005de0bae8a2789d5efaae52dba5a800000000000000000000000000000000000000000000000000000000000076230000000000000000000000003c4962ff6258dcfcafd23a814237b7d6eb7120630000000000000000000000000000000000000000000000000000000000000000",
        "nonce": "0x46",
        "chainId": "0xa"
      },
      "additionalContracts": [],
      "isFixedGasLimit": false
    },
    {
      "hash": null,
      "transactionType": "CALL",
      "contractName": null,
      "contractAddress": "0x1a44076050125825900e736c501f859c50fe728c",
      "function": "setSendLibrary(address,uint32,address)",
      "arguments": [
        "0x57558Cb8d6005DE0BAe8a2789d5EfaaE52dba5a8",
        "30184",
        "0x1322871e4ab09Bc7f5717189434f97bBD9546e95"
      ],
      "transaction": {
        "from": "0x45dce8e4f2dc005a5f28206a46cb034697eeda8e",
        "to": "0x1a44076050125825900e736c501f859c50fe728c",
        "gas": "0x149cd",
        "value": "0x0",
        "input": "0x9535ff3000000000000000000000000057558cb8d6005de0bae8a2789d5efaae52dba5a800000000000000000000000000000000000000000000000000000000000075e80000000000000000000000001322871e4ab09bc7f5717189434f97bbd9546e95",
        "nonce": "0x47",
        "chainId": "0xa"
      },
      "additionalContracts": [],
      "isFixedGasLimit": false
    },
    {
      "hash": null,
      "transactionType": "CALL",
      "contractName": null,
      "contractAddress": "0x1a44076050125825900e736c501f859c50fe728c",
      "function": "setReceiveLibrary(address,uint32,address,uint256)",
      "arguments": [
        "0x57558Cb8d6005DE0BAe8a2789d5EfaaE52dba5a8",
        "30184",
        "0x3c4962Ff6258dcfCafD23a814237B7d6Eb712063",
        "0"
      ],
      "transaction": {
        "from": "0x45dce8e4f2dc005a5f28206a46cb034697eeda8e",
        "to": "0x1a44076050125825900e736c501f859c50fe728c",
        "gas": "0x15b7f",
        "value": "0x0",
        "input": "0x6a14d71500000000000000000000000057558cb8d6005de0bae8a2789d5efaae52dba5a800000000000000000000000000000000000000000000000000000000000075e80000000000000000000000003c4962ff6258dcfcafd23a814237b7d6eb7120630000000000000000000000000000000000000000000000000000000000000000",
        "nonce": "0x48",
        "chainId": "0xa"
      },
      "additionalContracts": [],
      "isFixedGasLimit": false
    },
    {
      "hash": null,
      "transactionType": "CALL",
      "contractName": null,
      "contractAddress": "0x1a44076050125825900e736c501f859c50fe728c",
      "function": "setSendLibrary(address,uint32,address)",
      "arguments": [
        "0x57558Cb8d6005DE0BAe8a2789d5EfaaE52dba5a8",
        "30260",
        "0x1322871e4ab09Bc7f5717189434f97bBD9546e95"
      ],
      "transaction": {
        "from": "0x45dce8e4f2dc005a5f28206a46cb034697eeda8e",
        "to": "0x1a44076050125825900e736c501f859c50fe728c",
        "gas": "0x149cd",
        "value": "0x0",
        "input": "0x9535ff3000000000000000000000000057558cb8d6005de0bae8a2789d5efaae52dba5a800000000000000000000000000000000000000000000000000000000000076340000000000000000000000001322871e4ab09bc7f5717189434f97bbd9546e95",
        "nonce": "0x49",
        "chainId": "0xa"
      },
      "additionalContracts": [],
      "isFixedGasLimit": false
    },
    {
      "hash": null,
      "transactionType": "CALL",
      "contractName": null,
      "contractAddress": "0x1a44076050125825900e736c501f859c50fe728c",
      "function": "setReceiveLibrary(address,uint32,address,uint256)",
      "arguments": [
        "0x57558Cb8d6005DE0BAe8a2789d5EfaaE52dba5a8",
        "30260",
        "0x3c4962Ff6258dcfCafD23a814237B7d6Eb712063",
        "0"
      ],
      "transaction": {
        "from": "0x45dce8e4f2dc005a5f28206a46cb034697eeda8e",
        "to": "0x1a44076050125825900e736c501f859c50fe728c",
        "gas": "0x15b7f",
        "value": "0x0",
        "input": "0x6a14d71500000000000000000000000057558cb8d6005de0bae8a2789d5efaae52dba5a800000000000000000000000000000000000000000000000000000000000076340000000000000000000000003c4962ff6258dcfcafd23a814237b7d6eb7120630000000000000000000000000000000000000000000000000000000000000000",
        "nonce": "0x4a",
        "chainId": "0xa"
      },
      "additionalContracts": [],
      "isFixedGasLimit": false
    },
    {
      "hash": null,
      "transactionType": "CALL",
      "contractName": null,
      "contractAddress": "0x1a44076050125825900e736c501f859c50fe728c",
      "function": "setSendLibrary(address,uint32,address)",
      "arguments": [
        "0x57558Cb8d6005DE0BAe8a2789d5EfaaE52dba5a8",
        "30280",
        "0x1322871e4ab09Bc7f5717189434f97bBD9546e95"
      ],
      "transaction": {
        "from": "0x45dce8e4f2dc005a5f28206a46cb034697eeda8e",
        "to": "0x1a44076050125825900e736c501f859c50fe728c",
        "gas": "0x149cd",
        "value": "0x0",
        "input": "0x9535ff3000000000000000000000000057558cb8d6005de0bae8a2789d5efaae52dba5a800000000000000000000000000000000000000000000000000000000000076480000000000000000000000001322871e4ab09bc7f5717189434f97bbd9546e95",
        "nonce": "0x4b",
        "chainId": "0xa"
      },
      "additionalContracts": [],
      "isFixedGasLimit": false
    },
    {
      "hash": null,
      "transactionType": "CALL",
      "contractName": null,
      "contractAddress": "0x1a44076050125825900e736c501f859c50fe728c",
      "function": "setReceiveLibrary(address,uint32,address,uint256)",
      "arguments": [
        "0x57558Cb8d6005DE0BAe8a2789d5EfaaE52dba5a8",
        "30280",
        "0x3c4962Ff6258dcfCafD23a814237B7d6Eb712063",
        "0"
      ],
      "transaction": {
        "from": "0x45dce8e4f2dc005a5f28206a46cb034697eeda8e",
        "to": "0x1a44076050125825900e736c501f859c50fe728c",
        "gas": "0x15b7f",
        "value": "0x0",
        "input": "0x6a14d71500000000000000000000000057558cb8d6005de0bae8a2789d5efaae52dba5a800000000000000000000000000000000000000000000000000000000000076480000000000000000000000003c4962ff6258dcfcafd23a814237b7d6eb7120630000000000000000000000000000000000000000000000000000000000000000",
        "nonce": "0x4c",
        "chainId": "0xa"
      },
      "additionalContracts": [],
      "isFixedGasLimit": false
    },
    {
      "hash": null,
      "transactionType": "CALL",
      "contractName": null,
      "contractAddress": "0x1a44076050125825900e736c501f859c50fe728c",
      "function": "setSendLibrary(address,uint32,address)",
      "arguments": [
        "0x57558Cb8d6005DE0BAe8a2789d5EfaaE52dba5a8",
        "30255",
        "0x1322871e4ab09Bc7f5717189434f97bBD9546e95"
      ],
      "transaction": {
        "from": "0x45dce8e4f2dc005a5f28206a46cb034697eeda8e",
        "to": "0x1a44076050125825900e736c501f859c50fe728c",
        "gas": "0x149cd",
        "value": "0x0",
        "input": "0x9535ff3000000000000000000000000057558cb8d6005de0bae8a2789d5efaae52dba5a8000000000000000000000000000000000000000000000000000000000000762f0000000000000000000000001322871e4ab09bc7f5717189434f97bbd9546e95",
        "nonce": "0x4d",
        "chainId": "0xa"
      },
      "additionalContracts": [],
      "isFixedGasLimit": false
    },
    {
      "hash": null,
      "transactionType": "CALL",
      "contractName": null,
      "contractAddress": "0x1a44076050125825900e736c501f859c50fe728c",
      "function": "setReceiveLibrary(address,uint32,address,uint256)",
      "arguments": [
        "0x57558Cb8d6005DE0BAe8a2789d5EfaaE52dba5a8",
        "30255",
        "0x3c4962Ff6258dcfCafD23a814237B7d6Eb712063",
        "0"
      ],
      "transaction": {
        "from": "0x45dce8e4f2dc005a5f28206a46cb034697eeda8e",
        "to": "0x1a44076050125825900e736c501f859c50fe728c",
        "gas": "0x15b7f",
        "value": "0x0",
        "input": "0x6a14d71500000000000000000000000057558cb8d6005de0bae8a2789d5efaae52dba5a8000000000000000000000000000000000000000000000000000000000000762f0000000000000000000000003c4962ff6258dcfcafd23a814237b7d6eb7120630000000000000000000000000000000000000000000000000000000000000000",
        "nonce": "0x4e",
        "chainId": "0xa"
      },
      "additionalContracts": [],
      "isFixedGasLimit": false
    },
    {
      "hash": null,
      "transactionType": "CALL",
      "contractName": null,
      "contractAddress": "0x1a44076050125825900e736c501f859c50fe728c",
      "function": "setSendLibrary(address,uint32,address)",
      "arguments": [
        "0x57558Cb8d6005DE0BAe8a2789d5EfaaE52dba5a8",
        "30274",
        "0x1322871e4ab09Bc7f5717189434f97bBD9546e95"
      ],
      "transaction": {
        "from": "0x45dce8e4f2dc005a5f28206a46cb034697eeda8e",
        "to": "0x1a44076050125825900e736c501f859c50fe728c",
        "gas": "0x149cd",
        "value": "0x0",
        "input": "0x9535ff3000000000000000000000000057558cb8d6005de0bae8a2789d5efaae52dba5a800000000000000000000000000000000000000000000000000000000000076420000000000000000000000001322871e4ab09bc7f5717189434f97bbd9546e95",
        "nonce": "0x4f",
        "chainId": "0xa"
      },
      "additionalContracts": [],
      "isFixedGasLimit": false
    },
    {
      "hash": null,
      "transactionType": "CALL",
      "contractName": null,
      "contractAddress": "0x1a44076050125825900e736c501f859c50fe728c",
      "function": "setReceiveLibrary(address,uint32,address,uint256)",
      "arguments": [
        "0x57558Cb8d6005DE0BAe8a2789d5EfaaE52dba5a8",
        "30274",
        "0x3c4962Ff6258dcfCafD23a814237B7d6Eb712063",
        "0"
      ],
      "transaction": {
        "from": "0x45dce8e4f2dc005a5f28206a46cb034697eeda8e",
        "to": "0x1a44076050125825900e736c501f859c50fe728c",
        "gas": "0x15b7f",
        "value": "0x0",
        "input": "0x6a14d71500000000000000000000000057558cb8d6005de0bae8a2789d5efaae52dba5a800000000000000000000000000000000000000000000000000000000000076420000000000000000000000003c4962ff6258dcfcafd23a814237b7d6eb7120630000000000000000000000000000000000000000000000000000000000000000",
        "nonce": "0x50",
        "chainId": "0xa"
      },
      "additionalContracts": [],
      "isFixedGasLimit": false
    },
    {
      "hash": null,
      "transactionType": "CALL",
      "contractName": null,
      "contractAddress": "0x1a44076050125825900e736c501f859c50fe728c",
      "function": "setSendLibrary(address,uint32,address)",
      "arguments": [
        "0x57558Cb8d6005DE0BAe8a2789d5EfaaE52dba5a8",
        "30332",
        "0x1322871e4ab09Bc7f5717189434f97bBD9546e95"
      ],
      "transaction": {
        "from": "0x45dce8e4f2dc005a5f28206a46cb034697eeda8e",
        "to": "0x1a44076050125825900e736c501f859c50fe728c",
        "gas": "0x149cd",
        "value": "0x0",
        "input": "0x9535ff3000000000000000000000000057558cb8d6005de0bae8a2789d5efaae52dba5a8000000000000000000000000000000000000000000000000000000000000767c0000000000000000000000001322871e4ab09bc7f5717189434f97bbd9546e95",
        "nonce": "0x51",
        "chainId": "0xa"
      },
      "additionalContracts": [],
      "isFixedGasLimit": false
    },
    {
      "hash": null,
      "transactionType": "CALL",
      "contractName": null,
      "contractAddress": "0x1a44076050125825900e736c501f859c50fe728c",
      "function": "setReceiveLibrary(address,uint32,address,uint256)",
      "arguments": [
        "0x57558Cb8d6005DE0BAe8a2789d5EfaaE52dba5a8",
        "30332",
        "0x3c4962Ff6258dcfCafD23a814237B7d6Eb712063",
        "0"
      ],
      "transaction": {
        "from": "0x45dce8e4f2dc005a5f28206a46cb034697eeda8e",
        "to": "0x1a44076050125825900e736c501f859c50fe728c",
        "gas": "0x15b7f",
        "value": "0x0",
        "input": "0x6a14d71500000000000000000000000057558cb8d6005de0bae8a2789d5efaae52dba5a8000000000000000000000000000000000000000000000000000000000000767c0000000000000000000000003c4962ff6258dcfcafd23a814237b7d6eb7120630000000000000000000000000000000000000000000000000000000000000000",
        "nonce": "0x52",
        "chainId": "0xa"
      },
      "additionalContracts": [],
      "isFixedGasLimit": false
    },
    {
      "hash": null,
      "transactionType": "CALL",
      "contractName": null,
      "contractAddress": "0x1a44076050125825900e736c501f859c50fe728c",
      "function": "setSendLibrary(address,uint32,address)",
      "arguments": [
        "0x57558Cb8d6005DE0BAe8a2789d5EfaaE52dba5a8",
        "30339",
        "0x1322871e4ab09Bc7f5717189434f97bBD9546e95"
      ],
      "transaction": {
        "from": "0x45dce8e4f2dc005a5f28206a46cb034697eeda8e",
        "to": "0x1a44076050125825900e736c501f859c50fe728c",
        "gas": "0x149cd",
        "value": "0x0",
        "input": "0x9535ff3000000000000000000000000057558cb8d6005de0bae8a2789d5efaae52dba5a800000000000000000000000000000000000000000000000000000000000076830000000000000000000000001322871e4ab09bc7f5717189434f97bbd9546e95",
        "nonce": "0x53",
        "chainId": "0xa"
      },
      "additionalContracts": [],
      "isFixedGasLimit": false
    },
    {
      "hash": null,
      "transactionType": "CALL",
      "contractName": null,
      "contractAddress": "0x1a44076050125825900e736c501f859c50fe728c",
      "function": "setReceiveLibrary(address,uint32,address,uint256)",
      "arguments": [
        "0x57558Cb8d6005DE0BAe8a2789d5EfaaE52dba5a8",
        "30339",
        "0x3c4962Ff6258dcfCafD23a814237B7d6Eb712063",
        "0"
      ],
      "transaction": {
        "from": "0x45dce8e4f2dc005a5f28206a46cb034697eeda8e",
        "to": "0x1a44076050125825900e736c501f859c50fe728c",
        "gas": "0x15b7f",
        "value": "0x0",
        "input": "0x6a14d71500000000000000000000000057558cb8d6005de0bae8a2789d5efaae52dba5a800000000000000000000000000000000000000000000000000000000000076830000000000000000000000003c4962ff6258dcfcafd23a814237b7d6eb7120630000000000000000000000000000000000000000000000000000000000000000",
        "nonce": "0x54",
        "chainId": "0xa"
      },
      "additionalContracts": [],
      "isFixedGasLimit": false
    },
    {
      "hash": null,
      "transactionType": "CALL",
      "contractName": null,
      "contractAddress": "0x1a44076050125825900e736c501f859c50fe728c",
      "function": "setSendLibrary(address,uint32,address)",
      "arguments": [
        "0x57558Cb8d6005DE0BAe8a2789d5EfaaE52dba5a8",
        "30110",
        "0x1322871e4ab09Bc7f5717189434f97bBD9546e95"
      ],
      "transaction": {
        "from": "0x45dce8e4f2dc005a5f28206a46cb034697eeda8e",
        "to": "0x1a44076050125825900e736c501f859c50fe728c",
        "gas": "0x149cd",
        "value": "0x0",
        "input": "0x9535ff3000000000000000000000000057558cb8d6005de0bae8a2789d5efaae52dba5a8000000000000000000000000000000000000000000000000000000000000759e0000000000000000000000001322871e4ab09bc7f5717189434f97bbd9546e95",
        "nonce": "0x55",
        "chainId": "0xa"
      },
      "additionalContracts": [],
      "isFixedGasLimit": false
    },
    {
      "hash": null,
      "transactionType": "CALL",
      "contractName": null,
      "contractAddress": "0x1a44076050125825900e736c501f859c50fe728c",
      "function": "setReceiveLibrary(address,uint32,address,uint256)",
      "arguments": [
        "0x57558Cb8d6005DE0BAe8a2789d5EfaaE52dba5a8",
        "30110",
        "0x3c4962Ff6258dcfCafD23a814237B7d6Eb712063",
        "0"
      ],
      "transaction": {
        "from": "0x45dce8e4f2dc005a5f28206a46cb034697eeda8e",
        "to": "0x1a44076050125825900e736c501f859c50fe728c",
        "gas": "0x15b7f",
        "value": "0x0",
        "input": "0x6a14d71500000000000000000000000057558cb8d6005de0bae8a2789d5efaae52dba5a8000000000000000000000000000000000000000000000000000000000000759e0000000000000000000000003c4962ff6258dcfcafd23a814237b7d6eb7120630000000000000000000000000000000000000000000000000000000000000000",
        "nonce": "0x56",
        "chainId": "0xa"
      },
      "additionalContracts": [],
      "isFixedGasLimit": false
    },
    {
      "hash": null,
      "transactionType": "CALL",
      "contractName": null,
      "contractAddress": "0x1a44076050125825900e736c501f859c50fe728c",
      "function": "setSendLibrary(address,uint32,address)",
      "arguments": [
        "0x57558Cb8d6005DE0BAe8a2789d5EfaaE52dba5a8",
        "30109",
        "0x1322871e4ab09Bc7f5717189434f97bBD9546e95"
      ],
      "transaction": {
        "from": "0x45dce8e4f2dc005a5f28206a46cb034697eeda8e",
        "to": "0x1a44076050125825900e736c501f859c50fe728c",
        "gas": "0x149cd",
        "value": "0x0",
        "input": "0x9535ff3000000000000000000000000057558cb8d6005de0bae8a2789d5efaae52dba5a8000000000000000000000000000000000000000000000000000000000000759d0000000000000000000000001322871e4ab09bc7f5717189434f97bbd9546e95",
        "nonce": "0x57",
        "chainId": "0xa"
      },
      "additionalContracts": [],
      "isFixedGasLimit": false
    },
    {
      "hash": null,
      "transactionType": "CALL",
      "contractName": null,
      "contractAddress": "0x1a44076050125825900e736c501f859c50fe728c",
      "function": "setReceiveLibrary(address,uint32,address,uint256)",
      "arguments": [
        "0x57558Cb8d6005DE0BAe8a2789d5EfaaE52dba5a8",
        "30109",
        "0x3c4962Ff6258dcfCafD23a814237B7d6Eb712063",
        "0"
      ],
      "transaction": {
        "from": "0x45dce8e4f2dc005a5f28206a46cb034697eeda8e",
        "to": "0x1a44076050125825900e736c501f859c50fe728c",
        "gas": "0x15b7f",
        "value": "0x0",
        "input": "0x6a14d71500000000000000000000000057558cb8d6005de0bae8a2789d5efaae52dba5a8000000000000000000000000000000000000000000000000000000000000759d0000000000000000000000003c4962ff6258dcfcafd23a814237b7d6eb7120630000000000000000000000000000000000000000000000000000000000000000",
        "nonce": "0x58",
        "chainId": "0xa"
      },
      "additionalContracts": [],
      "isFixedGasLimit": false
    },
    {
      "hash": null,
      "transactionType": "CALL",
      "contractName": null,
      "contractAddress": "0x1a44076050125825900e736c501f859c50fe728c",
      "function": "setSendLibrary(address,uint32,address)",
      "arguments": [
        "0x57558Cb8d6005DE0BAe8a2789d5EfaaE52dba5a8",
        "30106",
        "0x1322871e4ab09Bc7f5717189434f97bBD9546e95"
      ],
      "transaction": {
        "from": "0x45dce8e4f2dc005a5f28206a46cb034697eeda8e",
        "to": "0x1a44076050125825900e736c501f859c50fe728c",
        "gas": "0x149cd",
        "value": "0x0",
        "input": "0x9535ff3000000000000000000000000057558cb8d6005de0bae8a2789d5efaae52dba5a8000000000000000000000000000000000000000000000000000000000000759a0000000000000000000000001322871e4ab09bc7f5717189434f97bbd9546e95",
        "nonce": "0x59",
        "chainId": "0xa"
      },
      "additionalContracts": [],
      "isFixedGasLimit": false
    },
    {
      "hash": null,
      "transactionType": "CALL",
      "contractName": null,
      "contractAddress": "0x1a44076050125825900e736c501f859c50fe728c",
      "function": "setReceiveLibrary(address,uint32,address,uint256)",
      "arguments": [
        "0x57558Cb8d6005DE0BAe8a2789d5EfaaE52dba5a8",
        "30106",
        "0x3c4962Ff6258dcfCafD23a814237B7d6Eb712063",
        "0"
      ],
      "transaction": {
        "from": "0x45dce8e4f2dc005a5f28206a46cb034697eeda8e",
        "to": "0x1a44076050125825900e736c501f859c50fe728c",
        "gas": "0x15b7f",
        "value": "0x0",
        "input": "0x6a14d71500000000000000000000000057558cb8d6005de0bae8a2789d5efaae52dba5a8000000000000000000000000000000000000000000000000000000000000759a0000000000000000000000003c4962ff6258dcfcafd23a814237b7d6eb7120630000000000000000000000000000000000000000000000000000000000000000",
        "nonce": "0x5a",
        "chainId": "0xa"
      },
      "additionalContracts": [],
      "isFixedGasLimit": false
    },
    {
      "hash": null,
      "transactionType": "CALL",
      "contractName": null,
      "contractAddress": "0x1a44076050125825900e736c501f859c50fe728c",
      "function": "setSendLibrary(address,uint32,address)",
      "arguments": [
        "0x57558Cb8d6005DE0BAe8a2789d5EfaaE52dba5a8",
        "30102",
        "0x1322871e4ab09Bc7f5717189434f97bBD9546e95"
      ],
      "transaction": {
        "from": "0x45dce8e4f2dc005a5f28206a46cb034697eeda8e",
        "to": "0x1a44076050125825900e736c501f859c50fe728c",
        "gas": "0x149cd",
        "value": "0x0",
        "input": "0x9535ff3000000000000000000000000057558cb8d6005de0bae8a2789d5efaae52dba5a800000000000000000000000000000000000000000000000000000000000075960000000000000000000000001322871e4ab09bc7f5717189434f97bbd9546e95",
        "nonce": "0x5b",
        "chainId": "0xa"
      },
      "additionalContracts": [],
      "isFixedGasLimit": false
    },
    {
      "hash": null,
      "transactionType": "CALL",
      "contractName": null,
      "contractAddress": "0x1a44076050125825900e736c501f859c50fe728c",
      "function": "setReceiveLibrary(address,uint32,address,uint256)",
      "arguments": [
        "0x57558Cb8d6005DE0BAe8a2789d5EfaaE52dba5a8",
        "30102",
        "0x3c4962Ff6258dcfCafD23a814237B7d6Eb712063",
        "0"
      ],
      "transaction": {
        "from": "0x45dce8e4f2dc005a5f28206a46cb034697eeda8e",
        "to": "0x1a44076050125825900e736c501f859c50fe728c",
        "gas": "0x15b7f",
        "value": "0x0",
        "input": "0x6a14d71500000000000000000000000057558cb8d6005de0bae8a2789d5efaae52dba5a800000000000000000000000000000000000000000000000000000000000075960000000000000000000000003c4962ff6258dcfcafd23a814237b7d6eb7120630000000000000000000000000000000000000000000000000000000000000000",
        "nonce": "0x5c",
        "chainId": "0xa"
      },
      "additionalContracts": [],
      "isFixedGasLimit": false
    },
    {
      "hash": null,
      "transactionType": "CALL",
      "contractName": null,
      "contractAddress": "0x1a44076050125825900e736c501f859c50fe728c",
      "function": "setSendLibrary(address,uint32,address)",
      "arguments": [
        "0x57558Cb8d6005DE0BAe8a2789d5EfaaE52dba5a8",
        "30158",
        "0x1322871e4ab09Bc7f5717189434f97bBD9546e95"
      ],
      "transaction": {
        "from": "0x45dce8e4f2dc005a5f28206a46cb034697eeda8e",
        "to": "0x1a44076050125825900e736c501f859c50fe728c",
        "gas": "0x149cd",
        "value": "0x0",
        "input": "0x9535ff3000000000000000000000000057558cb8d6005de0bae8a2789d5efaae52dba5a800000000000000000000000000000000000000000000000000000000000075ce0000000000000000000000001322871e4ab09bc7f5717189434f97bbd9546e95",
        "nonce": "0x5d",
        "chainId": "0xa"
      },
      "additionalContracts": [],
      "isFixedGasLimit": false
    },
    {
      "hash": null,
      "transactionType": "CALL",
      "contractName": null,
      "contractAddress": "0x1a44076050125825900e736c501f859c50fe728c",
      "function": "setReceiveLibrary(address,uint32,address,uint256)",
      "arguments": [
        "0x57558Cb8d6005DE0BAe8a2789d5EfaaE52dba5a8",
        "30158",
        "0x3c4962Ff6258dcfCafD23a814237B7d6Eb712063",
        "0"
      ],
      "transaction": {
        "from": "0x45dce8e4f2dc005a5f28206a46cb034697eeda8e",
        "to": "0x1a44076050125825900e736c501f859c50fe728c",
        "gas": "0x15b7f",
        "value": "0x0",
        "input": "0x6a14d71500000000000000000000000057558cb8d6005de0bae8a2789d5efaae52dba5a800000000000000000000000000000000000000000000000000000000000075ce0000000000000000000000003c4962ff6258dcfcafd23a814237b7d6eb7120630000000000000000000000000000000000000000000000000000000000000000",
        "nonce": "0x5e",
        "chainId": "0xa"
      },
      "additionalContracts": [],
      "isFixedGasLimit": false
    },
    {
      "hash": null,
      "transactionType": "CALL",
      "contractName": null,
      "contractAddress": "0x1a44076050125825900e736c501f859c50fe728c",
      "function": "setSendLibrary(address,uint32,address)",
      "arguments": [
        "0x57558Cb8d6005DE0BAe8a2789d5EfaaE52dba5a8",
        "30362",
        "0x1322871e4ab09Bc7f5717189434f97bBD9546e95"
      ],
      "transaction": {
        "from": "0x45dce8e4f2dc005a5f28206a46cb034697eeda8e",
        "to": "0x1a44076050125825900e736c501f859c50fe728c",
        "gas": "0x149cd",
        "value": "0x0",
        "input": "0x9535ff3000000000000000000000000057558cb8d6005de0bae8a2789d5efaae52dba5a8000000000000000000000000000000000000000000000000000000000000769a0000000000000000000000001322871e4ab09bc7f5717189434f97bbd9546e95",
        "nonce": "0x5f",
        "chainId": "0xa"
      },
      "additionalContracts": [],
      "isFixedGasLimit": false
    },
    {
      "hash": null,
      "transactionType": "CALL",
      "contractName": null,
      "contractAddress": "0x1a44076050125825900e736c501f859c50fe728c",
      "function": "setReceiveLibrary(address,uint32,address,uint256)",
      "arguments": [
        "0x57558Cb8d6005DE0BAe8a2789d5EfaaE52dba5a8",
        "30362",
        "0x3c4962Ff6258dcfCafD23a814237B7d6Eb712063",
        "0"
      ],
      "transaction": {
        "from": "0x45dce8e4f2dc005a5f28206a46cb034697eeda8e",
        "to": "0x1a44076050125825900e736c501f859c50fe728c",
        "gas": "0x15b7f",
        "value": "0x0",
        "input": "0x6a14d71500000000000000000000000057558cb8d6005de0bae8a2789d5efaae52dba5a8000000000000000000000000000000000000000000000000000000000000769a0000000000000000000000003c4962ff6258dcfcafd23a814237b7d6eb7120630000000000000000000000000000000000000000000000000000000000000000",
        "nonce": "0x60",
        "chainId": "0xa"
      },
      "additionalContracts": [],
      "isFixedGasLimit": false
    },
    {
      "hash": null,
      "transactionType": "CALL",
      "contractName": null,
      "contractAddress": "0x1a44076050125825900e736c501f859c50fe728c",
      "function": "setSendLibrary(address,uint32,address)",
      "arguments": [
        "0x57558Cb8d6005DE0BAe8a2789d5EfaaE52dba5a8",
        "30183",
        "0x1322871e4ab09Bc7f5717189434f97bBD9546e95"
      ],
      "transaction": {
        "from": "0x45dce8e4f2dc005a5f28206a46cb034697eeda8e",
        "to": "0x1a44076050125825900e736c501f859c50fe728c",
        "gas": "0x149cd",
        "value": "0x0",
        "input": "0x9535ff3000000000000000000000000057558cb8d6005de0bae8a2789d5efaae52dba5a800000000000000000000000000000000000000000000000000000000000075e70000000000000000000000001322871e4ab09bc7f5717189434f97bbd9546e95",
        "nonce": "0x61",
        "chainId": "0xa"
      },
      "additionalContracts": [],
      "isFixedGasLimit": false
    },
    {
      "hash": null,
      "transactionType": "CALL",
      "contractName": null,
      "contractAddress": "0x1a44076050125825900e736c501f859c50fe728c",
      "function": "setReceiveLibrary(address,uint32,address,uint256)",
      "arguments": [
        "0x57558Cb8d6005DE0BAe8a2789d5EfaaE52dba5a8",
        "30183",
        "0x3c4962Ff6258dcfCafD23a814237B7d6Eb712063",
        "0"
      ],
      "transaction": {
        "from": "0x45dce8e4f2dc005a5f28206a46cb034697eeda8e",
        "to": "0x1a44076050125825900e736c501f859c50fe728c",
        "gas": "0x15b7f",
        "value": "0x0",
        "input": "0x6a14d71500000000000000000000000057558cb8d6005de0bae8a2789d5efaae52dba5a800000000000000000000000000000000000000000000000000000000000075e70000000000000000000000003c4962ff6258dcfcafd23a814237b7d6eb7120630000000000000000000000000000000000000000000000000000000000000000",
        "nonce": "0x62",
        "chainId": "0xa"
      },
      "additionalContracts": [],
      "isFixedGasLimit": false
    },
    {
      "hash": null,
      "transactionType": "CALL",
      "contractName": null,
      "contractAddress": "0x1a44076050125825900e736c501f859c50fe728c",
      "function": "setSendLibrary(address,uint32,address)",
      "arguments": [
        "0x57558Cb8d6005DE0BAe8a2789d5EfaaE52dba5a8",
        "30319",
        "0x1322871e4ab09Bc7f5717189434f97bBD9546e95"
      ],
      "transaction": {
        "from": "0x45dce8e4f2dc005a5f28206a46cb034697eeda8e",
        "to": "0x1a44076050125825900e736c501f859c50fe728c",
        "gas": "0x149cd",
        "value": "0x0",
        "input": "0x9535ff3000000000000000000000000057558cb8d6005de0bae8a2789d5efaae52dba5a8000000000000000000000000000000000000000000000000000000000000766f0000000000000000000000001322871e4ab09bc7f5717189434f97bbd9546e95",
        "nonce": "0x63",
        "chainId": "0xa"
      },
      "additionalContracts": [],
      "isFixedGasLimit": false
    },
    {
      "hash": null,
      "transactionType": "CALL",
      "contractName": null,
      "contractAddress": "0x1a44076050125825900e736c501f859c50fe728c",
      "function": "setReceiveLibrary(address,uint32,address,uint256)",
      "arguments": [
        "0x57558Cb8d6005DE0BAe8a2789d5EfaaE52dba5a8",
        "30319",
        "0x3c4962Ff6258dcfCafD23a814237B7d6Eb712063",
        "0"
      ],
      "transaction": {
        "from": "0x45dce8e4f2dc005a5f28206a46cb034697eeda8e",
        "to": "0x1a44076050125825900e736c501f859c50fe728c",
        "gas": "0x15b7f",
        "value": "0x0",
        "input": "0x6a14d71500000000000000000000000057558cb8d6005de0bae8a2789d5efaae52dba5a8000000000000000000000000000000000000000000000000000000000000766f0000000000000000000000003c4962ff6258dcfcafd23a814237b7d6eb7120630000000000000000000000000000000000000000000000000000000000000000",
        "nonce": "0x64",
        "chainId": "0xa"
      },
      "additionalContracts": [],
      "isFixedGasLimit": false
    },
    {
      "hash": null,
      "transactionType": "CALL",
      "contractName": null,
      "contractAddress": "0x1a44076050125825900e736c501f859c50fe728c",
      "function": "setSendLibrary(address,uint32,address)",
      "arguments": [
        "0x57558Cb8d6005DE0BAe8a2789d5EfaaE52dba5a8",
        "30324",
        "0x1322871e4ab09Bc7f5717189434f97bBD9546e95"
      ],
      "transaction": {
        "from": "0x45dce8e4f2dc005a5f28206a46cb034697eeda8e",
        "to": "0x1a44076050125825900e736c501f859c50fe728c",
        "gas": "0x149cd",
        "value": "0x0",
        "input": "0x9535ff3000000000000000000000000057558cb8d6005de0bae8a2789d5efaae52dba5a800000000000000000000000000000000000000000000000000000000000076740000000000000000000000001322871e4ab09bc7f5717189434f97bbd9546e95",
        "nonce": "0x65",
        "chainId": "0xa"
      },
      "additionalContracts": [],
      "isFixedGasLimit": false
    },
    {
      "hash": null,
      "transactionType": "CALL",
      "contractName": null,
      "contractAddress": "0x1a44076050125825900e736c501f859c50fe728c",
      "function": "setReceiveLibrary(address,uint32,address,uint256)",
      "arguments": [
        "0x57558Cb8d6005DE0BAe8a2789d5EfaaE52dba5a8",
        "30324",
        "0x3c4962Ff6258dcfCafD23a814237B7d6Eb712063",
        "0"
      ],
      "transaction": {
        "from": "0x45dce8e4f2dc005a5f28206a46cb034697eeda8e",
        "to": "0x1a44076050125825900e736c501f859c50fe728c",
        "gas": "0x15b7f",
        "value": "0x0",
        "input": "0x6a14d71500000000000000000000000057558cb8d6005de0bae8a2789d5efaae52dba5a800000000000000000000000000000000000000000000000000000000000076740000000000000000000000003c4962ff6258dcfcafd23a814237b7d6eb7120630000000000000000000000000000000000000000000000000000000000000000",
        "nonce": "0x66",
        "chainId": "0xa"
      },
      "additionalContracts": [],
      "isFixedGasLimit": false
    },
    {
      "hash": null,
      "transactionType": "CALL",
      "contractName": null,
      "contractAddress": "0x1a44076050125825900e736c501f859c50fe728c",
      "function": "setSendLibrary(address,uint32,address)",
      "arguments": [
        "0x57558Cb8d6005DE0BAe8a2789d5EfaaE52dba5a8",
        "30165",
        "0x1322871e4ab09Bc7f5717189434f97bBD9546e95"
      ],
      "transaction": {
        "from": "0x45dce8e4f2dc005a5f28206a46cb034697eeda8e",
        "to": "0x1a44076050125825900e736c501f859c50fe728c",
        "gas": "0x149cd",
        "value": "0x0",
        "input": "0x9535ff3000000000000000000000000057558cb8d6005de0bae8a2789d5efaae52dba5a800000000000000000000000000000000000000000000000000000000000075d50000000000000000000000001322871e4ab09bc7f5717189434f97bbd9546e95",
        "nonce": "0x67",
        "chainId": "0xa"
      },
      "additionalContracts": [],
      "isFixedGasLimit": false
    },
    {
      "hash": null,
      "transactionType": "CALL",
      "contractName": null,
      "contractAddress": "0x1a44076050125825900e736c501f859c50fe728c",
      "function": "setReceiveLibrary(address,uint32,address,uint256)",
      "arguments": [
        "0x57558Cb8d6005DE0BAe8a2789d5EfaaE52dba5a8",
        "30165",
        "0x3c4962Ff6258dcfCafD23a814237B7d6Eb712063",
        "0"
      ],
      "transaction": {
        "from": "0x45dce8e4f2dc005a5f28206a46cb034697eeda8e",
        "to": "0x1a44076050125825900e736c501f859c50fe728c",
        "gas": "0x15b7f",
        "value": "0x0",
        "input": "0x6a14d71500000000000000000000000057558cb8d6005de0bae8a2789d5efaae52dba5a800000000000000000000000000000000000000000000000000000000000075d50000000000000000000000003c4962ff6258dcfcafd23a814237b7d6eb7120630000000000000000000000000000000000000000000000000000000000000000",
        "nonce": "0x68",
        "chainId": "0xa"
      },
      "additionalContracts": [],
      "isFixedGasLimit": false
    }
  ],
  "receipts": [],
  "libraries": [],
  "pending": [],
  "returns": {},
  "timestamp": 1750036751,
  "chain": 10,
  "commit": "de0ffc6"
}