{
  "transactions": [
    {
      "hash": "0x83c63ec370c65d8bb0d65544b591c61c1ab37ce8e4bbf98ae1b4507a40a73575",
      "transactionType": "CREATE",
      "contractName": "FraxOFTUpgradeable",
      "contractAddress": "0xed2e22cea112a76c6c75730bbcde4123bae297cd",
      "function": null,
      "arguments": [
        "0x1a44076050125825900e736c501f859c50fE728c"
      ],
      "transaction": {
        "from": "0x0990be6db8c785fbbf9ded8baec612a10cae814b",
        "gas": "0x41bd29",
        "value": "0x0",
        "input": "0x60c060405234801562000010575f80fd5b5060405162003d1338038062003d1383398101604081905262000033916200006c565b6001600160a01b0381166080528060128162000051600683620000af565b6200005e90600a620001ca565b60a05250620001da92505050565b5f602082840312156200007d575f80fd5b81516001600160a01b038116811462000094575f80fd5b9392505050565b634e487b7160e01b5f52601160045260245ffd5b60ff8281168282160390811115620000cb57620000cb6200009b565b92915050565b600181815b808511156200011157815f1904821115620000f557620000f56200009b565b808516156200010357918102915b93841c9390800290620000d6565b509250929050565b5f826200012957506001620000cb565b816200013757505f620000cb565b81600181146200015057600281146200015b576200017b565b6001915050620000cb565b60ff8411156200016f576200016f6200009b565b50506001821b620000cb565b5060208310610133831016604e8410600b8410161715620001a0575081810a620000cb565b620001ac8383620000d1565b805f1904821115620001c257620001c26200009b565b029392505050565b5f6200009460ff84168362000119565b60805160a051613ad1620002425f395f818161071e01528181611b7001528181612095015261210701525f818161061f01528181610c670152818161163701528181611c7001528181611fc6015281816121870152818161258c01526126430152613ad15ff3fe6080604052600436106102d9575f3560e01c8063715018a611610189578063bb0b6a53116100d8578063d045a0dc11610092578063f01630231161006d578063f016302314610901578063f2fde38b14610935578063fc0c546a14610571578063ff7bd03d14610954575f80fd5b8063d045a0dc146108b0578063d4243885146108c3578063dd62ed3e146108e2575f80fd5b8063bb0b6a53146107e2578063bc70b3541461081f578063bd815db01461083e578063c077998814610851578063c7c7f5b314610870578063ca5eb5e114610891575f80fd5b80639f68b96411610143578063b3a5abeb1161011e578063b3a5abeb14610790578063b731ea0a146107af578063b92d0eff14610571578063b98bd070146107c3575f80fd5b80639f68b96414610740578063a457c2d714610752578063a9059cbb14610771575f80fd5b8063715018a6146106945780637d25a05e146106a8578063857749b0146106c95780638da5cb5b146106dc57806395d89b41146106f9578063963efcaa1461070d575f80fd5b80631f5e13341161024557806352ae2879116101ff5780635a0dfe4d116101da5780635a0dfe4d146105cd5780635e280f111461060e5780636fc1b31e1461064157806370a0823114610660575f80fd5b806352ae28791461057157806354fd4d50146105835780635535d461146105ae575f80fd5b80631f5e1334146104b357806323b872dd146104c7578063313ce567146104e65780633400288b1461050757806339509351146105265780633b6f743b14610545575f80fd5b8063111ecdad11610296578063111ecdad146103e957806313137d6514610415578063134d4f2514610428578063156a0d0f1461044f57806317442b701461047557806318160ddd14610495575f80fd5b8063056d62de146102dd57806306fdde0314610313578063077f224a14610334578063095ea7b3146103555780630d35b415146103845780630e78842c146103b2575b5f80fd5b3480156102e8575f80fd5b506102fc6102f7366004612a75565b610973565b60405161030a929190612b03565b60405180910390f35b34801561031e575f80fd5b5061032761098c565b60405161030a9190612b27565b34801561033f575f80fd5b5061035361034e366004612c31565b610a1c565b005b348015610360575f80fd5b5061037461036f366004612ca3565b610b43565b604051901515815260200161030a565b34801561038f575f80fd5b506103a361039e366004612ccd565b610b5c565b60405161030a93929190612cfe565b3480156103bd575f80fd5b506103d16103cc366004612d95565b610c27565b6040516001600160401b03909116815260200161030a565b3480156103f4575f80fd5b506103fd610c31565b6040516001600160a01b03909116815260200161030a565b610353610423366004612df9565b610c65565b348015610433575f80fd5b5061043c600281565b60405161ffff909116815260200161030a565b34801561045a575f80fd5b506040805162b9270b60e21b8152600160208201520161030a565b348015610480575f80fd5b5060408051600180825260208201520161030a565b3480156104a0575f80fd5b506067545b60405190815260200161030a565b3480156104be575f80fd5b5061043c600181565b3480156104d2575f80fd5b506103746104e1366004612e91565b610d20565b3480156104f1575f80fd5b5060125b60405160ff909116815260200161030a565b348015610512575f80fd5b50610353610521366004612ee7565b610d45565b348015610531575f80fd5b50610374610540366004612ca3565b610db0565b348015610550575f80fd5b5061056461055f366004612f0e565b610dd1565b60405161030a9190612f5c565b34801561057c575f80fd5b50306103fd565b34801561058e575f80fd5b5060015f806040805193845260208401929092529082015260600161030a565b3480156105b9575f80fd5b506103276105c8366004612f84565b610e35565b3480156105d8575f80fd5b506103746105e7366004612ee7565b63ffffffff919091165f9081525f80516020613a7c83398151915260205260409020541490565b348015610619575f80fd5b506103fd7f000000000000000000000000000000000000000000000000000000000000000081565b34801561064c575f80fd5b5061035361065b366004612fb5565b610f0d565b34801561066b575f80fd5b506104a561067a366004612fb5565b6001600160a01b03165f9081526065602052604090205490565b34801561069f575f80fd5b50610353610f89565b3480156106b3575f80fd5b506103d16106c2366004612ee7565b5f92915050565b3480156106d4575f80fd5b5060066104f5565b3480156106e7575f80fd5b506033546001600160a01b03166103fd565b348015610704575f80fd5b50610327610f9c565b348015610718575f80fd5b506104a57f000000000000000000000000000000000000000000000000000000000000000081565b34801561074b575f80fd5b505f610374565b34801561075d575f80fd5b5061037461076c366004612ca3565b610fab565b34801561077c575f80fd5b5061037461078b366004612ca3565b611030565b34801561079b575f80fd5b506104a56107aa366004612fe4565b61103d565b3480156107ba575f80fd5b506103fd611047565b3480156107ce575f80fd5b506103536107dd36600461303f565b61106f565b3480156107ed575f80fd5b506104a56107fc36600461307d565b63ffffffff165f9081525f80516020613a7c833981519152602052604090205490565b34801561082a575f80fd5b50610327610839366004613096565b6111eb565b61035361084c36600461303f565b611383565b34801561085c575f80fd5b506104a561086b366004612d95565b61150f565b61088361087e3660046130f2565b611519565b60405161030a92919061314f565b34801561089c575f80fd5b506103536108ab366004612fb5565b611610565b6103536108be366004612df9565b611691565b3480156108ce575f80fd5b506103536108dd366004612fb5565b6116c0565b3480156108ed575f80fd5b506104a56108fc3660046131a0565b611734565b34801561090c575f80fd5b5061092061091b3660046131cc565b61175e565b6040805192835260208301919091520161030a565b348015610940575f80fd5b5061035361094f366004612fb5565b611778565b34801561095f575f80fd5b5061037461096e3660046131fe565b6117f1565b606080610980848461180e565b915091505b9250929050565b60606068805461099b90613218565b80601f01602080910402602001604051908101604052809291908181526020018280546109c790613218565b8015610a125780601f106109e957610100808354040283529160200191610a12565b820191905f5260205f20905b8154815290600101906020018083116109f557829003601f168201915b5050505050905090565b5f54610100900460ff1615808015610a3a57505f54600160ff909116105b80610a535750303b158015610a5357505f5460ff166001145b610abb5760405162461bcd60e51b815260206004820152602e60248201527f496e697469616c697a61626c653a20636f6e747261637420697320616c72656160448201526d191e481a5b9a5d1a585b1a5e995960921b60648201526084015b60405180910390fd5b5f805460ff191660011790558015610adc575f805461ff0019166101001790555b610ae784848461194f565b610aef61198d565b610af8826119bb565b8015610b3d575f805461ff0019169055604051600181527f7f26b83ff96e1f2b6a682f133852f6798a09c465da95921460cefb38474024989060200160405180910390a15b50505050565b5f33610b50818585611a0c565b60019150505b92915050565b604080518082019091525f80825260208201526060610b8c60405180604001604052805f81526020015f81525090565b6040805180820182525f8082526001600160401b03602080840182905284518381529081019094529195509182610be5565b604080518082019091525f815260606020820152815260200190600190039081610bbe5790505b5093505f80610c09604089013560608a0135610c0460208c018c61307d565b611b2f565b60408051808201909152918252602082015296989597505050505050565b5f610b5682611b6a565b5f807f41db8a78b0206aba5c54bcbfc2bda0d84082a84eb88e680379a57b9e9f653c005b546001600160a01b031692915050565b7f00000000000000000000000000000000000000000000000000000000000000006001600160a01b03163314610cb0576040516391ac5e4f60e01b8152336004820152602401610ab2565b60208701803590610cca90610cc5908a61307d565b611b95565b14610d0857610cdc602088018861307d565b60405163309afaf360e21b815263ffffffff909116600482015260208801356024820152604401610ab2565b610d1787878787878787611bde565b50505050505050565b5f33610d2d858285611d3c565b610d38858585611dae565b60019150505b9392505050565b610d4d611f57565b63ffffffff82165f8181525f80516020613a7c833981519152602081815260409283902085905582519384528301849052917f238399d427b947898edb290f5ff0f9109849b1c3ba196a42e35f00c50a54b98b91015b60405180910390a1505050565b5f33610b50818585610dc28383611734565b610dcc919061325e565b611a0c565b604080518082019091525f80825260208201525f610dff60408501356060860135610c04602088018861307d565b9150505f80610e0e868461180e565b9092509050610e2b610e23602088018861307d565b838388611fb1565b9695505050505050565b63ffffffff82165f9081527f8d2bda5d9f6ffb5796910376005392955773acee5548d0fcdb10e7c264ea00006020818152604080842061ffff8616855290915290912080546060929190610e8890613218565b80601f0160208091040260200160405190810160405280929190818152602001828054610eb490613218565b8015610eff5780601f10610ed657610100808354040283529160200191610eff565b820191905f5260205f20905b815481529060010190602001808311610ee257829003601f168201915b505050505091505092915050565b610f15611f57565b7f41db8a78b0206aba5c54bcbfc2bda0d84082a84eb88e680379a57b9e9f653c0080546001600160a01b0319166001600160a01b03831690811782556040519081527ff0be4f1e87349231d80c36b33f9e8639658eeaf474014dee15a3e6a4d4414197906020015b60405180910390a15050565b610f91611f57565b610f9a5f6119bb565b565b60606069805461099b90613218565b5f3381610fb88286611734565b9050838110156110185760405162461bcd60e51b815260206004820152602560248201527f45524332303a2064656372656173656420616c6c6f77616e63652062656c6f77604482015264207a65726f60d81b6064820152608401610ab2565b6110258286868403611a0c565b506001949350505050565b5f33610b50818585611dae565b5f610b568261208f565b5f807fefb041d771d6daaa55702fff6eb740d63ba559a75d2d1d3e151c78ff2480b600610c55565b611077611f57565b7f8d2bda5d9f6ffb5796910376005392955773acee5548d0fcdb10e7c264ea00005f5b828110156111b9576110dc8484838181106110b7576110b7613271565b90506020028101906110c99190613285565b6110d79060408101906132a3565b6120c3565b8383828181106110ee576110ee613271565b90506020028101906111009190613285565b61110e9060408101906132a3565b835f87878681811061112257611122613271565b90506020028101906111349190613285565b61114290602081019061307d565b63ffffffff1663ffffffff1681526020019081526020015f205f87878681811061116e5761116e613271565b90506020028101906111809190613285565b6111919060408101906020016132e5565b61ffff16815260208101919091526040015f20916111b0919083613342565b5060010161109a565b507fbe4864a8e820971c0247f5992e2da559595f7bf076a21cb5928d443d2a13b6748383604051610da3929190613423565b63ffffffff84165f9081527f8d2bda5d9f6ffb5796910376005392955773acee5548d0fcdb10e7c264ea00006020818152604080842061ffff8816855290915282208054606093919061123d90613218565b80601f016020809104026020016040519081016040528092919081815260200182805461126990613218565b80156112b45780601f1061128b576101008083540402835291602001916112b4565b820191905f5260205f20905b81548152906001019060200180831161129757829003601f168201915b5050505050905080515f036113035784848080601f0160208091040260200160405190810160405280939291908181526020018383808284375f9201919091525092955061137b945050505050565b5f84900361131457915061137b9050565b6002841061135e5761132685856120c3565b806113348560028189613502565b60405160200161134693929190613529565b6040516020818303038152906040529250505061137b565b8484604051639a6d49cd60e01b8152600401610ab292919061354f565b949350505050565b5f5b8181101561149257368383838181106113a0576113a0613271565b90506020028101906113b29190613562565b90506113f06113c4602083018361307d565b602083013563ffffffff919091165f9081525f80516020613a7c83398151915260205260409020541490565b6113fa575061148a565b3063d045a0dc60c08301358360a08101356114196101008301836132a3565b61142a610100890160e08a01612fb5565b6114386101208a018a6132a3565b6040518963ffffffff1660e01b815260040161145a9796959493929190613577565b5f604051808303818588803b158015611471575f80fd5b505af1158015611483573d5f803e3d5ffd5b5050505050505b600101611385565b50336001600160a01b0316638e9e70996040518163ffffffff1660e01b81526004015f60405180830381865afa1580156114ce573d5f803e3d5ffd5b505050506040513d5f823e601f3d908101601f191682016040526114f591908101906135fc565b604051638351eea760e01b8152600401610ab29190612b27565b5f610b5682612104565b611521612a1c565b604080518082019091525f80825260208201525f806115556040880135606089013561155060208b018b61307d565b61213a565b915091505f80611565898461180e565b909250905061159161157a60208b018b61307d565b838361158b368d90038d018d613664565b8b612156565b60408051808201909152858152602080820186905282519298509096503391907f85496b760a4b7f8d66384b9df21b381f5d1b1e79f229a47aaf4c232edc2fe59a906115df908d018d61307d565b6040805163ffffffff909216825260208201899052810187905260600160405180910390a350505050935093915050565b611618611f57565b60405163ca5eb5e160e01b81526001600160a01b0382811660048301527f0000000000000000000000000000000000000000000000000000000000000000169063ca5eb5e1906024015f604051808303815f87803b158015611678575f80fd5b505af115801561168a573d5f803e3d5ffd5b5050505050565b3330146116b15760405163029a949d60e31b815260040160405180910390fd5b610d1787878787878787610d08565b6116c8611f57565b7fefb041d771d6daaa55702fff6eb740d63ba559a75d2d1d3e151c78ff2480b60080546001600160a01b0319166001600160a01b03831690811782556040519081527fd48d879cef83a1c0bdda516f27b13ddb1b3f8bbac1c9e1511bb2a659c242776090602001610f7d565b6001600160a01b039182165f90815260666020908152604080832093909416825291909152205490565b5f8061176b858585611b2f565b915091505b935093915050565b611780611f57565b6001600160a01b0381166117e55760405162461bcd60e51b815260206004820152602660248201527f4f776e61626c653a206e6577206f776e657220697320746865207a65726f206160448201526564647265737360d01b6064820152608401610ab2565b6117ee816119bb565b50565b5f60208201803590611807906107fc908561307d565b1492915050565b6060805f611869856020013561182386611b6a565b61183060a08901896132a3565b8080601f0160208091040260200160405190810160405280939291908181526020018383808284375f9201919091525061225c92505050565b90935090505f8161187b57600161187e565b60025b905061189e611890602088018861307d565b8261083960808a018a6132a3565b7f41db8a78b0206aba5c54bcbfc2bda0d84082a84eb88e680379a57b9e9f653c008054919450906001600160a01b03161561194557805460405163043a78eb60e01b81526001600160a01b039091169063043a78eb906119049088908890600401612b03565b602060405180830381865afa15801561191f573d5f803e3d5ffd5b505050506040513d601f19601f820116820180604052508101906119439190613694565b505b5050509250929050565b5f54610100900460ff166119755760405162461bcd60e51b8152600401610ab2906136af565b61197f83836122d6565b6119888161230a565b505050565b5f54610100900460ff166119b35760405162461bcd60e51b8152600401610ab2906136af565b610f9a612339565b603380546001600160a01b038381166001600160a01b0319831681179093556040519116919082907f8be0079c531659141344cd1fd0a4f28419497f9722a3daafe3b4186f6b6457e0905f90a35050565b6001600160a01b038316611a6e5760405162461bcd60e51b8152602060048201526024808201527f45524332303a20617070726f76652066726f6d20746865207a65726f206164646044820152637265737360e01b6064820152608401610ab2565b6001600160a01b038216611acf5760405162461bcd60e51b815260206004820152602260248201527f45524332303a20617070726f766520746f20746865207a65726f206164647265604482015261737360f01b6064820152608401610ab2565b6001600160a01b038381165f8181526066602090815260408083209487168084529482529182902085905590518481527f8c5be1e5ebec7d5bd14f71427d1e84f3dd0314c0f7b2291e5b200ac8c7c3b925910160405180910390a3505050565b5f80611b3a85612104565b915081905083811015611770576040516371c4efed60e01b81526004810182905260248101859052604401610ab2565b5f610b567f0000000000000000000000000000000000000000000000000000000000000000836136fa565b63ffffffff81165f9081525f80516020613a7c8339815191526020819052604082205480610d3e5760405163f6ff4fb760e01b815263ffffffff85166004820152602401610ab2565b5f611bef611bec8787612368565b90565b90505f611c1a82611c08611c038a8a61237f565b61208f565b611c1560208d018d61307d565b6123a1565b90506028861115611cda575f611c56611c3960608c0160408d01612fe4565b611c4660208d018d61307d565b84611c518c8c6123b4565b6123fe565b604051633e5ac80960e11b81529091506001600160a01b037f00000000000000000000000000000000000000000000000000000000000000001690637cb5901290611cab9086908d905f908790600401613719565b5f604051808303815f87803b158015611cc2575f80fd5b505af1158015611cd4573d5f803e3d5ffd5b50505050505b6001600160a01b038216887fefed6d3500546b29533b128a29e3a94d70788727f0507505ac12eaf2e578fd9c611d1360208d018d61307d565b6040805163ffffffff9092168252602082018690520160405180910390a3505050505050505050565b5f611d478484611734565b90505f198114610b3d5781811015611da15760405162461bcd60e51b815260206004820152601d60248201527f45524332303a20696e73756666696369656e7420616c6c6f77616e63650000006044820152606401610ab2565b610b3d8484848403611a0c565b6001600160a01b038316611e125760405162461bcd60e51b815260206004820152602560248201527f45524332303a207472616e736665722066726f6d20746865207a65726f206164604482015264647265737360d81b6064820152608401610ab2565b6001600160a01b038216611e745760405162461bcd60e51b815260206004820152602360248201527f45524332303a207472616e7366657220746f20746865207a65726f206164647260448201526265737360e81b6064820152608401610ab2565b6001600160a01b0383165f9081526065602052604090205481811015611eeb5760405162461bcd60e51b815260206004820152602660248201527f45524332303a207472616e7366657220616d6f756e7420657863656564732062604482015265616c616e636560d01b6064820152608401610ab2565b6001600160a01b038085165f8181526065602052604080822086860390559286168082529083902080548601905591517fddf252ad1be2c89b69c2b068fc378daa952ba7f163c4a11628f55a4df523b3ef90611f4a9086815260200190565b60405180910390a3610b3d565b6033546001600160a01b03163314610f9a5760405162461bcd60e51b815260206004820181905260248201527f4f776e61626c653a2063616c6c6572206973206e6f7420746865206f776e65726044820152606401610ab2565b604080518082019091525f80825260208201527f00000000000000000000000000000000000000000000000000000000000000006001600160a01b031663ddc28c586040518060a001604052808863ffffffff16815260200161201389611b95565b8152602001878152602001868152602001851515815250306040518363ffffffff1660e01b8152600401612048929190613749565b6040805180830381865afa158015612062573d5f803e3d5ffd5b505050506040513d601f19601f8201168201806040525081019061208691906137ef565b95945050505050565b5f610b567f00000000000000000000000000000000000000000000000000000000000000006001600160401b038416613809565b5f6120d16002828486613502565b6120da91613820565b60f01c905060038114611988578282604051639a6d49cd60e01b8152600401610ab292919061354f565b5f7f000000000000000000000000000000000000000000000000000000000000000061213081846136fa565b610b569190613809565b5f80612147858585611b2f565b90925090506117703383612430565b61215e612a1c565b5f61216b845f0151612562565b602085015190915015612185576121858460200151612589565b7f00000000000000000000000000000000000000000000000000000000000000006001600160a01b0316632637a450826040518060a001604052808b63ffffffff1681526020016121d58c611b95565b81526020018a81526020018981526020015f8960200151111515815250866040518463ffffffff1660e01b8152600401612210929190613749565b60806040518083038185885af115801561222c573d5f803e3d5ffd5b50505050506040513d601f19601f820116820180604052508101906122519190613850565b979650505050505050565b80516060901515806122a557848460405160200161229192919091825260c01b6001600160c01b031916602082015260280190565b6040516020818303038152906040526122cc565b848433856040516020016122bc94939291906138b5565b6040516020818303038152906040525b9150935093915050565b5f54610100900460ff166122fc5760405162461bcd60e51b8152600401610ab2906136af565b6123068282612668565b5050565b5f54610100900460ff166123305760405162461bcd60e51b8152600401610ab2906136af565b6117ee816126a7565b5f54610100900460ff1661235f5760405162461bcd60e51b8152600401610ab2906136af565b610f9a336119bb565b5f6123766020828486613502565b610d3e916138f7565b5f61238e602860208486613502565b61239791613914565b60c01c9392505050565b5f6123ac84846126d6565b509092915050565b60606123c38260288186613502565b8080601f0160208091040260200160405190810160405280939291908181526020018383808284375f92019190915250929695505050505050565b6060848484846040516020016124179493929190613942565b6040516020818303038152906040529050949350505050565b6001600160a01b0382166124905760405162461bcd60e51b815260206004820152602160248201527f45524332303a206275726e2066726f6d20746865207a65726f206164647265736044820152607360f81b6064820152608401610ab2565b6001600160a01b0382165f90815260656020526040902054818110156125035760405162461bcd60e51b815260206004820152602260248201527f45524332303a206275726e20616d6f756e7420657863656564732062616c616e604482015261636560f01b6064820152608401610ab2565b6001600160a01b0383165f8181526065602090815260408083208686039055606780548790039055518581529192917fddf252ad1be2c89b69c2b068fc378daa952ba7f163c4a11628f55a4df523b3ef910160405180910390a3505050565b5f813414612585576040516304fb820960e51b8152346004820152602401610ab2565b5090565b5f7f00000000000000000000000000000000000000000000000000000000000000006001600160a01b031663e4fe1d946040518163ffffffff1660e01b8152600401602060405180830381865afa1580156125e6573d5f803e3d5ffd5b505050506040513d601f19601f8201168201806040525081019061260a9190613990565b90506001600160a01b038116612633576040516329b99a9560e11b815260040160405180910390fd5b6123066001600160a01b038216337f000000000000000000000000000000000000000000000000000000000000000085612795565b5f54610100900460ff1661268e5760405162461bcd60e51b8152600401610ab2906136af565b606861269a83826139ab565b50606961198882826139ab565b5f54610100900460ff166126cd5760405162461bcd60e51b8152600401610ab2906136af565b6117ee816127ef565b6001600160a01b03821661272c5760405162461bcd60e51b815260206004820152601f60248201527f45524332303a206d696e7420746f20746865207a65726f2061646472657373006044820152606401610ab2565b8060675f82825461273d919061325e565b90915550506001600160a01b0382165f818152606560209081526040808320805486019055518481527fddf252ad1be2c89b69c2b068fc378daa952ba7f163c4a11628f55a4df523b3ef910160405180910390a35050565b604080516001600160a01b0385811660248301528416604482015260648082018490528251808303909101815260849091019091526020810180516001600160e01b03166323b872dd60e01b179052610b3d90859061283c565b5f54610100900460ff166128155760405162461bcd60e51b8152600401610ab2906136af565b6001600160a01b03811661161857604051632d618d8160e21b815260040160405180910390fd5b5f612890826040518060400160405280602081526020017f5361666545524332303a206c6f772d6c6576656c2063616c6c206661696c6564815250856001600160a01b031661290f9092919063ffffffff16565b905080515f14806128b05750808060200190518101906128b09190613694565b6119885760405162461bcd60e51b815260206004820152602a60248201527f5361666545524332303a204552433230206f7065726174696f6e20646964206e6044820152691bdd081cdd58d8d9595960b21b6064820152608401610ab2565b606061137b84845f85855f80866001600160a01b031685876040516129349190613a6a565b5f6040518083038185875af1925050503d805f811461296e576040519150601f19603f3d011682016040523d82523d5f602084013e612973565b606091505b509150915061225187838387606083156129ed5782515f036129e6576001600160a01b0385163b6129e65760405162461bcd60e51b815260206004820152601d60248201527f416464726573733a2063616c6c20746f206e6f6e2d636f6e74726163740000006044820152606401610ab2565b508161137b565b61137b8383815115612a025781518083602001fd5b8060405162461bcd60e51b8152600401610ab29190612b27565b60405180606001604052805f80191681526020015f6001600160401b03168152602001612a5a60405180604001604052805f81526020015f81525090565b905290565b5f60e08284031215612a6f575f80fd5b50919050565b5f8060408385031215612a86575f80fd5b82356001600160401b03811115612a9b575f80fd5b612aa785828601612a5f565b95602094909401359450505050565b5f5b83811015612ad0578181015183820152602001612ab8565b50505f910152565b5f8151808452612aef816020860160208601612ab6565b601f01601f19169290920160200192915050565b604081525f612b156040830185612ad8565b82810360208401526120868185612ad8565b602081525f610d3e6020830184612ad8565b634e487b7160e01b5f52604160045260245ffd5b604080519081016001600160401b0381118282101715612b6f57612b6f612b39565b60405290565b604051601f8201601f191681016001600160401b0381118282101715612b9d57612b9d612b39565b604052919050565b5f6001600160401b03821115612bbd57612bbd612b39565b50601f01601f191660200190565b5f82601f830112612bda575f80fd5b8135612bed612be882612ba5565b612b75565b818152846020838601011115612c01575f80fd5b816020850160208301375f918101602001919091529392505050565b6001600160a01b03811681146117ee575f80fd5b5f805f60608486031215612c43575f80fd5b83356001600160401b0380821115612c59575f80fd5b612c6587838801612bcb565b94506020860135915080821115612c7a575f80fd5b50612c8786828701612bcb565b9250506040840135612c9881612c1d565b809150509250925092565b5f8060408385031215612cb4575f80fd5b8235612cbf81612c1d565b946020939093013593505050565b5f60208284031215612cdd575f80fd5b81356001600160401b03811115612cf2575f80fd5b61137b84828501612a5f565b83518152602080850151908201525f60a08201604060a0604085015281865180845260c08601915060c08160051b870101935060208089015f5b83811015612d775788870360bf19018552815180518852830151838801879052612d6487890182612ad8565b9750509382019390820190600101612d38565b5050875160608801525050506020850151608085015250905061137b565b5f60208284031215612da5575f80fd5b5035919050565b5f60608284031215612a6f575f80fd5b5f8083601f840112612dcc575f80fd5b5081356001600160401b03811115612de2575f80fd5b602083019150836020828501011115610985575f80fd5b5f805f805f805f60e0888a031215612e0f575f80fd5b612e198989612dac565b96506060880135955060808801356001600160401b0380821115612e3b575f80fd5b612e478b838c01612dbc565b909750955060a08a01359150612e5c82612c1d565b90935060c08901359080821115612e71575f80fd5b50612e7e8a828b01612dbc565b989b979a50959850939692959293505050565b5f805f60608486031215612ea3575f80fd5b8335612eae81612c1d565b92506020840135612ebe81612c1d565b929592945050506040919091013590565b803563ffffffff81168114612ee2575f80fd5b919050565b5f8060408385031215612ef8575f80fd5b612cbf83612ecf565b80151581146117ee575f80fd5b5f8060408385031215612f1f575f80fd5b82356001600160401b03811115612f34575f80fd5b612f4085828601612a5f565b9250506020830135612f5181612f01565b809150509250929050565b815181526020808301519082015260408101610b56565b803561ffff81168114612ee2575f80fd5b5f8060408385031215612f95575f80fd5b612f9e83612ecf565b9150612fac60208401612f73565b90509250929050565b5f60208284031215612fc5575f80fd5b8135610d3e81612c1d565b6001600160401b03811681146117ee575f80fd5b5f60208284031215612ff4575f80fd5b8135610d3e81612fd0565b5f8083601f84011261300f575f80fd5b5081356001600160401b03811115613025575f80fd5b6020830191508360208260051b8501011115610985575f80fd5b5f8060208385031215613050575f80fd5b82356001600160401b03811115613065575f80fd5b61307185828601612fff565b90969095509350505050565b5f6020828403121561308d575f80fd5b610d3e82612ecf565b5f805f80606085870312156130a9575f80fd5b6130b285612ecf565b93506130c060208601612f73565b925060408501356001600160401b038111156130da575f80fd5b6130e687828801612dbc565b95989497509550505050565b5f805f8385036080811215613105575f80fd5b84356001600160401b0381111561311a575f80fd5b61312687828801612a5f565b9450506040601f198201121561313a575f80fd5b506020840191506060840135612c9881612c1d565b5f60c082019050835182526001600160401b0360208501511660208301526040840151613189604084018280518252602090810151910152565b5082516080830152602083015160a0830152610d3e565b5f80604083850312156131b1575f80fd5b82356131bc81612c1d565b91506020830135612f5181612c1d565b5f805f606084860312156131de575f80fd5b83359250602084013591506131f560408501612ecf565b90509250925092565b5f6060828403121561320e575f80fd5b610d3e8383612dac565b600181811c9082168061322c57607f821691505b602082108103612a6f57634e487b7160e01b5f52602260045260245ffd5b634e487b7160e01b5f52601160045260245ffd5b80820180821115610b5657610b5661324a565b634e487b7160e01b5f52603260045260245ffd5b5f8235605e19833603018112613299575f80fd5b9190910192915050565b5f808335601e198436030181126132b8575f80fd5b8301803591506001600160401b038211156132d1575f80fd5b602001915036819003821315610985575f80fd5b5f602082840312156132f5575f80fd5b610d3e82612f73565b601f82111561198857805f5260205f20601f840160051c810160208510156133235750805b601f840160051c820191505b8181101561168a575f815560010161332f565b6001600160401b0383111561335957613359612b39565b61336d836133678354613218565b836132fe565b5f601f84116001811461339e575f85156133875750838201355b5f19600387901b1c1916600186901b17835561168a565b5f83815260208120601f198716915b828110156133cd57868501358255602094850194600190920191016133ad565b50868210156133e9575f1960f88860031b161c19848701351681555b505060018560011b0183555050505050565b81835281816020850137505f828201602090810191909152601f909101601f19169091010190565b60208082528181018390525f906040808401600586901b8501820187855b888110156134f457878303603f190184528135368b9003605e19018112613466575f80fd5b8a01606063ffffffff61347883612ecf565b16855261ffff613489898401612f73565b168886015286820135601e198336030181126134a3575f80fd5b9091018781019190356001600160401b038111156134bf575f80fd5b8036038313156134cd575f80fd5b81888701526134df82870182856133fb565b96890196955050509186019150600101613441565b509098975050505050505050565b5f8085851115613510575f80fd5b8386111561351c575f80fd5b5050820193919092039150565b5f845161353a818460208901612ab6565b8201838582375f930192835250909392505050565b602081525f61137b6020830184866133fb565b5f823561013e19833603018112613299575f80fd5b63ffffffff61358589612ecf565b168152602088013560208201525f60408901356135a181612fd0565b6001600160401b03811660408401525087606083015260e060808301526135cc60e0830187896133fb565b6001600160a01b03861660a084015282810360c08401526135ee8185876133fb565b9a9950505050505050505050565b5f6020828403121561360c575f80fd5b81516001600160401b03811115613621575f80fd5b8201601f81018413613631575f80fd5b805161363f612be882612ba5565b818152856020838501011115613653575f80fd5b612086826020830160208601612ab6565b5f60408284031215613674575f80fd5b61367c612b4d565b82358152602083013560208201528091505092915050565b5f602082840312156136a4575f80fd5b8151610d3e81612f01565b6020808252602b908201527f496e697469616c697a61626c653a20636f6e7472616374206973206e6f74206960408201526a6e697469616c697a696e6760a81b606082015260800190565b5f8261371457634e487b7160e01b5f52601260045260245ffd5b500490565b60018060a01b038516815283602082015261ffff83166040820152608060608201525f610e2b6080830184612ad8565b6040815263ffffffff8351166040820152602083015160608201525f604084015160a0608084015261377e60e0840182612ad8565b90506060850151603f198483030160a085015261379b8282612ad8565b60809690960151151560c08501525050506001600160a01b039190911660209091015290565b5f604082840312156137d1575f80fd5b6137d9612b4d565b9050815181526020820151602082015292915050565b5f604082840312156137ff575f80fd5b610d3e83836137c1565b8082028115828204841417610b5657610b5661324a565b6001600160f01b031981358181169160028510156138485780818660020360031b1b83161692505b505092915050565b5f60808284031215613860575f80fd5b604051606081018181106001600160401b038211171561388257613882612b39565b60405282518152602083015161389781612fd0565b60208201526138a984604085016137c1565b60408201529392505050565b8481526001600160401b0360c01b8460c01b1660208201528260288201525f82516138e7816048850160208701612ab6565b9190910160480195945050505050565b80356020831015610b56575f19602084900360031b1b1692915050565b6001600160c01b031981358181169160088510156138485760089490940360031b84901b1690921692915050565b6001600160401b0360c01b8560c01b16815263ffffffff60e01b8460e01b16600882015282600c8201525f825161398081602c850160208701612ab6565b91909101602c0195945050505050565b5f602082840312156139a0575f80fd5b8151610d3e81612c1d565b81516001600160401b038111156139c4576139c4612b39565b6139d8816139d28454613218565b846132fe565b602080601f831160018114613a0b575f84156139f45750858301515b5f19600386901b1c1916600185901b178555613a62565b5f85815260208120601f198616915b82811015613a3957888601518255948401946001909101908401613a1a565b5085821015613a5657878501515f19600388901b60f8161c191681555b505060018460011b0185555b505050505050565b5f8251613299818460208701612ab656fe72ab1bc1039b79dc4724ffca13de82c96834302d3c7e0d4252232d4b2dd8f900a26469706673582212206d2f73e330b04f7f25f93fccea7d46d46e0b44eb342c0bd2d51b58b65642523164736f6c634300081600330000000000000000000000001a44076050125825900e736c501f859c50fe728c",
        "nonce": "0x1b6",
        "chainId": "0x1"
      },
      "additionalContracts": [],
      "isFixedGasLimit": false
    },
    {
      "hash": "0xce9f0f1cd3112fba8bbc5819eaf6f2ea21571c67b3369682249ed02124e16360",
      "transactionType": "CREATE",
      "contractName": "TransparentUpgradeableProxy",
      "contractAddress": "0x04acaf8d2865c0714f79da09645c13fd2888977f",
      "function": null,
      "arguments": [
        "0x8f1B9c1fd67136D525E14D96Efb3887a33f16250",
        "0x0990be6dB8c785FBbF9deD8bAEc612A10CaE814b",
        "0x"
      ],
      "transaction": {
        "from": "0x0990be6db8c785fbbf9ded8baec612a10cae814b",
        "gas": "0xae3c7",
        "value": "0x0",
        "input": "0x608060405260405162000db038038062000db0833981016040819052620000269162000463565b82816200003582825f62000098565b5062000065905060017fb53127684a568b3173ae13b9f8a6016e243e63b6e8ee1178d6a717850b5d61046200053d565b5f8051602062000d69833981519152146200008457620000846200055d565b6200008f82620000c9565b505050620005c2565b620000a3836200013a565b5f82511180620000b05750805b15620000c457620000c283836200017b565b505b505050565b7f7e644d79422f17c01e4894b5f4f588d331ebfa28653d42ae832dc59e38c9798f6200010a5f8051602062000d69833981519152546001600160a01b031690565b604080516001600160a01b03928316815291841660208301520160405180910390a16200013781620001ac565b50565b620001458162000249565b6040516001600160a01b038216907fbc7cd75a20ee27fd9adebab32041f755214dbc6bffa90cc0225b39da2e5c2d3b905f90a250565b6060620001a3838360405180606001604052806027815260200162000d8960279139620002e0565b90505b92915050565b6001600160a01b038116620002175760405162461bcd60e51b815260206004820152602660248201527f455243313936373a206e65772061646d696e20697320746865207a65726f206160448201526564647265737360d01b60648201526084015b60405180910390fd5b805f8051602062000d698339815191525b80546001600160a01b0319166001600160a01b039290921691909117905550565b6001600160a01b0381163b620002b85760405162461bcd60e51b815260206004820152602d60248201527f455243313936373a206e657720696d706c656d656e746174696f6e206973206e60448201526c1bdd08184818dbdb9d1c9858dd609a1b60648201526084016200020e565b807f360894a13ba1a3210667c828492db98dca3e2076cc3735a920a3ca505d382bbc62000228565b60605f80856001600160a01b031685604051620002fe919062000571565b5f60405180830381855af49150503d805f811462000338576040519150601f19603f3d011682016040523d82523d5f602084013e6200033d565b606091505b50909250905062000351868383876200035b565b9695505050505050565b60608315620003ce5782515f03620003c6576001600160a01b0385163b620003c65760405162461bcd60e51b815260206004820152601d60248201527f416464726573733a2063616c6c20746f206e6f6e2d636f6e747261637400000060448201526064016200020e565b5081620003da565b620003da8383620003e2565b949350505050565b815115620003f35781518083602001fd5b8060405162461bcd60e51b81526004016200020e91906200058e565b80516001600160a01b038116811462000426575f80fd5b919050565b634e487b7160e01b5f52604160045260245ffd5b5f5b838110156200045b57818101518382015260200162000441565b50505f910152565b5f805f6060848603121562000476575f80fd5b62000481846200040f565b925062000491602085016200040f565b60408501519092506001600160401b0380821115620004ae575f80fd5b818601915086601f830112620004c2575f80fd5b815181811115620004d757620004d76200042b565b604051601f8201601f19908116603f011681019083821181831017156200050257620005026200042b565b816040528281528960208487010111156200051b575f80fd5b6200052e8360208301602088016200043f565b80955050505050509250925092565b81810381811115620001a657634e487b7160e01b5f52601160045260245ffd5b634e487b7160e01b5f52600160045260245ffd5b5f8251620005848184602087016200043f565b9190910192915050565b602081525f8251806020840152620005ae8160408501602087016200043f565b601f01601f19169190910160400192915050565b61079980620005d05f395ff3fe60806040526004361061004d575f3560e01c80633659cfe6146100645780634f1ef286146100835780635c60da1b146100965780638f283970146100c6578063f851a440146100e55761005c565b3661005c5761005a6100f9565b005b61005a6100f9565b34801561006f575f80fd5b5061005a61007e366004610638565b610113565b61005a610091366004610651565b61014e565b3480156100a1575f80fd5b506100aa6101b4565b6040516001600160a01b03909116815260200160405180910390f35b3480156100d1575f80fd5b5061005a6100e0366004610638565b6101e4565b3480156100f0575f80fd5b506100aa610204565b610101610224565b61011161010c610254565b61025d565b565b61011b61027b565b6001600160a01b03163303610146576101438160405180602001604052805f8152505f6102ad565b50565b6101436100f9565b61015661027b565b6001600160a01b031633036101ac576101a78383838080601f0160208091040260200160405190810160405280939291908181526020018383808284375f92019190915250600192506102ad915050565b505050565b6101a76100f9565b5f6101bd61027b565b6001600160a01b031633036101d9576101d4610254565b905090565b6101e16100f9565b90565b6101ec61027b565b6001600160a01b0316330361014657610143816102d7565b5f61020d61027b565b6001600160a01b031633036101d9576101d461027b565b61022c61027b565b6001600160a01b031633036101115760405163786a591f60e11b815260040160405180910390fd5b5f6101d461032b565b365f80375f80365f845af43d5f803e808015610277573d5ff35b3d5ffd5b5f7fb53127684a568b3173ae13b9f8a6016e243e63b6e8ee1178d6a717850b5d61035b546001600160a01b0316919050565b6102b683610352565b5f825111806102c25750805b156101a7576102d18383610391565b50505050565b7f7e644d79422f17c01e4894b5f4f588d331ebfa28653d42ae832dc59e38c9798f61030061027b565b604080516001600160a01b03928316815291841660208301520160405180910390a1610143816103bd565b5f7f360894a13ba1a3210667c828492db98dca3e2076cc3735a920a3ca505d382bbc61029e565b61035b8161046b565b6040516001600160a01b038216907fbc7cd75a20ee27fd9adebab32041f755214dbc6bffa90cc0225b39da2e5c2d3b905f90a250565b60606103b6838360405180606001604052806027815260200161073d602791396104ff565b9392505050565b6001600160a01b0381166104275760405162461bcd60e51b815260206004820152602660248201527f455243313936373a206e65772061646d696e20697320746865207a65726f206160448201526564647265737360d01b60648201526084015b60405180910390fd5b807fb53127684a568b3173ae13b9f8a6016e243e63b6e8ee1178d6a717850b5d61035b80546001600160a01b0319166001600160a01b039290921691909117905550565b6001600160a01b0381163b6104d85760405162461bcd60e51b815260206004820152602d60248201527f455243313936373a206e657720696d706c656d656e746174696f6e206973206e60448201526c1bdd08184818dbdb9d1c9858dd609a1b606482015260840161041e565b807f360894a13ba1a3210667c828492db98dca3e2076cc3735a920a3ca505d382bbc61044a565b60605f80856001600160a01b03168560405161051b91906106ef565b5f60405180830381855af49150503d805f8114610553576040519150601f19603f3d011682016040523d82523d5f602084013e610558565b606091505b509150915061056986838387610573565b9695505050505050565b606083156105e15782515f036105da576001600160a01b0385163b6105da5760405162461bcd60e51b815260206004820152601d60248201527f416464726573733a2063616c6c20746f206e6f6e2d636f6e7472616374000000604482015260640161041e565b50816105eb565b6105eb83836105f3565b949350505050565b8151156106035781518083602001fd5b8060405162461bcd60e51b815260040161041e919061070a565b80356001600160a01b0381168114610633575f80fd5b919050565b5f60208284031215610648575f80fd5b6103b68261061d565b5f805f60408486031215610663575f80fd5b61066c8461061d565b9250602084013567ffffffffffffffff80821115610688575f80fd5b818601915086601f83011261069b575f80fd5b8135818111156106a9575f80fd5b8760208285010111156106ba575f80fd5b6020830194508093505050509250925092565b5f5b838110156106e75781810151838201526020016106cf565b50505f910152565b5f82516107008184602087016106cd565b9190910192915050565b602081525f82518060208401526107288160408501602087016106cd565b601f01601f1916919091016040019291505056fe416464726573733a206c6f772d6c6576656c2064656c65676174652063616c6c206661696c6564a2646970667358221220ba7654756ae737f7a87b14ba0d16e98d37f4f84addc6dcf3d6b41272756a89ab64736f6c63430008160033b53127684a568b3173ae13b9f8a6016e243e63b6e8ee1178d6a717850b5d6103416464726573733a206c6f772d6c6576656c2064656c65676174652063616c6c206661696c65640000000000000000000000008f1b9c1fd67136d525e14d96efb3887a33f162500000000000000000000000000990be6db8c785fbbf9ded8baec612a10cae814b00000000000000000000000000000000000000000000000000000000000000600000000000000000000000000000000000000000000000000000000000000000",
        "nonce": "0x1b7",
        "chainId": "0x1"
      },
      "additionalContracts": [],
      "isFixedGasLimit": false
    },
    {
      "hash": "0x96dcec4f941be87a869d600c28def6588e9e78dbf6cb10797f8ac5c4a4c0fdf0",
      "transactionType": "CALL",
      "contractName": "TransparentUpgradeableProxy",
      "contractAddress": "0x04acaf8d2865c0714f79da09645c13fd2888977f",
      "function": "upgradeToAndCall(address,bytes)",
      "arguments": [
        "0xed2E22ceA112A76c6C75730bBCDe4123bae297Cd",
        "0x077f224a000000000000000000000000000000000000000000000000000000000000006000000000000000000000000000000000000000000000000000000000000000a00000000000000000000000000990be6db8c785fbbf9ded8baec612a10cae814b000000000000000000000000000000000000000000000000000000000000000c577261707065642046726178000000000000000000000000000000000000000000000000000000000000000000000000000000000000000000000000000000055746524158000000000000000000000000000000000000000000000000000000"
      ],
      "transaction": {
        "from": "0x0990be6db8c785fbbf9ded8baec612a10cae814b",
        "to": "0x04acaf8d2865c0714f79da09645c13fd2888977f",
        "gas": "0x36211",
        "value": "0x0",
        "input": "0x4f1ef286000000000000000000000000ed2e22cea112a76c6c75730bbcde4123bae297cd000000000000000000000000000000000000000000000000000000000000004000000000000000000000000000000000000000000000000000000000000000e4077f224a000000000000000000000000000000000000000000000000000000000000006000000000000000000000000000000000000000000000000000000000000000a00000000000000000000000000990be6db8c785fbbf9ded8baec612a10cae814b000000000000000000000000000000000000000000000000000000000000000c57726170706564204672617800000000000000000000000000000000000000000000000000000000000000000000000000000000000000000000000000000005574652415800000000000000000000000000000000000000000000000000000000000000000000000000000000000000000000000000000000000000",
        "nonce": "0x1b8",
        "chainId": "0x1"
      },
      "additionalContracts": [],
      "isFixedGasLimit": false
    },
    {
      "hash": "0xfb83e07c30fcc79141fbf847bf7a5e42823c87c8a0702613626a27bd759c810f",
      "transactionType": "CALL",
      "contractName": "TransparentUpgradeableProxy",
      "contractAddress": "0x04acaf8d2865c0714f79da09645c13fd2888977f",
      "function": "changeAdmin(address)",
      "arguments": [
        "0x223a681fc5c5522c85C96157c0efA18cd6c5405c"
      ],
      "transaction": {
        "from": "0x0990be6db8c785fbbf9ded8baec612a10cae814b",
        "to": "0x04acaf8d2865c0714f79da09645c13fd2888977f",
        "gas": "0x9a90",
        "value": "0x0",
        "input": "0x8f283970000000000000000000000000223a681fc5c5522c85c96157c0efa18cd6c5405c",
        "nonce": "0x1b9",
        "chainId": "0x1"
      },
      "additionalContracts": [],
      "isFixedGasLimit": false
    },
    {
      "hash": "0x46e4b8cab5a72c6331dd9645c46c93b925aeea607cb3fe10de5930d40a1da5de",
      "transactionType": "CALL",
      "contractName": "TransparentUpgradeableProxy",
      "contractAddress": "0x04acaf8d2865c0714f79da09645c13fd2888977f",
      "function": null,
      "arguments": null,
      "transaction": {
        "from": "0x0990be6db8c785fbbf9ded8baec612a10cae814b",
        "to": "0x04acaf8d2865c0714f79da09645c13fd2888977f",
        "gas": "0x1f5d4",
        "value": "0x0",
        "input": "0xb98bd07000000000000000000000000000000000000000000000000000000000000000200000000000000000000000000000000000000000000000000000000000000002000000000000000000000000000000000000000000000000000000000000004000000000000000000000000000000000000000000000000000000000000000e0000000000000000000000000000000000000000000000000000000000000762f00000000000000000000000000000000000000000000000000000000000000010000000000000000000000000000000000000000000000000000000000000060000000000000000000000000000000000000000000000000000000000000001600030100110100000000000000000000000000030d4000000000000000000000000000000000000000000000000000000000000000000000000000000000762f0000000000000000000000000000000000000000000000000000000000000002000000000000000000000000000000000000000000000000000000000000006000000000000000000000000000000000000000000000000000000000000000160003010011010000000000000000000000000003d09000000000000000000000",
        "nonce": "0x1ba",
        "chainId": "0x1"
      },
      "additionalContracts": [],
      "isFixedGasLimit": false
    },
    {
      "hash": "0x6dea58cffb319ed288190ae34be6c3c825bcb8f50d4c506905b8f4d3b90fefc5",
      "transactionType": "CALL",
      "contractName": "TransparentUpgradeableProxy",
      "contractAddress": "0x04acaf8d2865c0714f79da09645c13fd2888977f",
      "function": null,
      "arguments": null,
      "transaction": {
        "from": "0x0990be6db8c785fbbf9ded8baec612a10cae814b",
        "to": "0x04acaf8d2865c0714f79da09645c13fd2888977f",
        "gas": "0x13a45",
        "value": "0x0",
        "input": "0x3400288b000000000000000000000000000000000000000000000000000000000000762f000000000000000000000000d86fbbd0c8715d2c1f40e451e5c3514e65e7576a",
        "nonce": "0x1bb",
        "chainId": "0x1"
      },
      "additionalContracts": [],
      "isFixedGasLimit": false
    },
    {
      "hash": "0x3ffba1342cd3216bbb87a55862a2e5e4f11b0526ba18657e5e2e913eea3b4fce",
      "transactionType": "CALL",
      "contractName": "EndpointV2",
      "contractAddress": "0x1a44076050125825900e736c501f859c50fe728c",
      "function": "setConfig(address,address,(uint32,uint32,bytes)[])",
      "arguments": [
        "0x04ACaF8D2865c0714F79da09645C13FD2888977f",
        "0xc02Ab410f0734EFa3F14628780e6e695156024C2",
        "[(30255, 2, 0x0000000000000000000000000000000000000000000000000000000000000020000000000000000000000000000000000000000000000000000000000000000000000000000000000000000000000000000000000000000000000000000000020000000000000000000000000000000000000000000000000000000000000000000000000000000000000000000000000000000000000000000000000000000000000000000000000000000000000000000000000000000000000000000000c000000000000000000000000000000000000000000000000000000000000001200000000000000000000000000000000000000000000000000000000000000002000000000000000000000000380275805876ff19055ea900cdb2b46a94ecf20d000000000000000000000000589dedbd617e0cbcb916a9223f4d1300c294236b0000000000000000000000000000000000000000000000000000000000000000)]"
      ],
      "transaction": {
        "from": "0x0990be6db8c785fbbf9ded8baec612a10cae814b",
        "to": "0x1a44076050125825900e736c501f859c50fe728c",
        "gas": "0x319c6",
        "value": "0x0",
        "input": "0x6dbd9f9000000000000000000000000004acaf8d2865c0714f79da09645c13fd2888977f000000000000000000000000c02ab410f0734efa3f14628780e6e695156024c2000000000000000000000000000000000000000000000000000000000000006000000000000000000000000000000000000000000000000000000000000000010000000000000000000000000000000000000000000000000000000000000020000000000000000000000000000000000000000000000000000000000000762f0000000000000000000000000000000000000000000000000000000000000002000000000000000000000000000000000000000000000000000000000000006000000000000000000000000000000000000000000000000000000000000001600000000000000000000000000000000000000000000000000000000000000020000000000000000000000000000000000000000000000000000000000000000000000000000000000000000000000000000000000000000000000000000000020000000000000000000000000000000000000000000000000000000000000000000000000000000000000000000000000000000000000000000000000000000000000000000000000000000000000000000000000000000000000000000000c000000000000000000000000000000000000000000000000000000000000001200000000000000000000000000000000000000000000000000000000000000002000000000000000000000000380275805876ff19055ea900cdb2b46a94ecf20d000000000000000000000000589dedbd617e0cbcb916a9223f4d1300c294236b0000000000000000000000000000000000000000000000000000000000000000",
        "nonce": "0x1bc",
        "chainId": "0x1"
      },
      "additionalContracts": [],
      "isFixedGasLimit": false
    },
    {
      "hash": "0x25b48a3adde3adee030b6e53944e17b1b4cf4ef096d1709e8e370416a220ece6",
      "transactionType": "CALL",
      "contractName": "EndpointV2",
      "contractAddress": "0x1a44076050125825900e736c501f859c50fe728c",
      "function": "setConfig(address,address,(uint32,uint32,bytes)[])",
      "arguments": [
        "0x04ACaF8D2865c0714F79da09645C13FD2888977f",
        "0xbB2Ea70C9E858123480642Cf96acbcCE1372dCe1",
        "[(30255, 2, 0x0000000000000000000000000000000000000000000000000000000000000020000000000000000000000000000000000000000000000000000000000000000000000000000000000000000000000000000000000000000000000000000000020000000000000000000000000000000000000000000000000000000000000000000000000000000000000000000000000000000000000000000000000000000000000000000000000000000000000000000000000000000000000000000000c000000000000000000000000000000000000000000000000000000000000001200000000000000000000000000000000000000000000000000000000000000002000000000000000000000000380275805876ff19055ea900cdb2b46a94ecf20d000000000000000000000000589dedbd617e0cbcb916a9223f4d1300c294236b0000000000000000000000000000000000000000000000000000000000000000)]"
      ],
      "transaction": {
        "from": "0x0990be6db8c785fbbf9ded8baec612a10cae814b",
        "to": "0x1a44076050125825900e736c501f859c50fe728c",
        "gas": "0x2ef08",
        "value": "0x0",
        "input": "0x6dbd9f9000000000000000000000000004acaf8d2865c0714f79da09645c13fd2888977f000000000000000000000000bb2ea70c9e858123480642cf96acbcce1372dce1000000000000000000000000000000000000000000000000000000000000006000000000000000000000000000000000000000000000000000000000000000010000000000000000000000000000000000000000000000000000000000000020000000000000000000000000000000000000000000000000000000000000762f0000000000000000000000000000000000000000000000000000000000000002000000000000000000000000000000000000000000000000000000000000006000000000000000000000000000000000000000000000000000000000000001600000000000000000000000000000000000000000000000000000000000000020000000000000000000000000000000000000000000000000000000000000000000000000000000000000000000000000000000000000000000000000000000020000000000000000000000000000000000000000000000000000000000000000000000000000000000000000000000000000000000000000000000000000000000000000000000000000000000000000000000000000000000000000000000c000000000000000000000000000000000000000000000000000000000000001200000000000000000000000000000000000000000000000000000000000000002000000000000000000000000380275805876ff19055ea900cdb2b46a94ecf20d000000000000000000000000589dedbd617e0cbcb916a9223f4d1300c294236b0000000000000000000000000000000000000000000000000000000000000000",
        "nonce": "0x1bd",
        "chainId": "0x1"
      },
      "additionalContracts": [],
      "isFixedGasLimit": false
    },
    {
      "hash": "0x95d6506c0c9f5774f07e71dba16f294ebd10827b7902b08f0d3d80f7b364ac01",
      "transactionType": "CALL",
      "contractName": "EndpointV2",
      "contractAddress": "0x1a44076050125825900e736c501f859c50fe728c",
      "function": "setSendLibrary(address,uint32,address)",
      "arguments": [
        "0x04ACaF8D2865c0714F79da09645C13FD2888977f",
        "30255",
        "0xbB2Ea70C9E858123480642Cf96acbcCE1372dCe1"
      ],
      "transaction": {
        "from": "0x0990be6db8c785fbbf9ded8baec612a10cae814b",
        "to": "0x1a44076050125825900e736c501f859c50fe728c",
        "gas": "0x1378b",
        "value": "0x0",
        "input": "0x9535ff3000000000000000000000000004acaf8d2865c0714f79da09645c13fd2888977f000000000000000000000000000000000000000000000000000000000000762f000000000000000000000000bb2ea70c9e858123480642cf96acbcce1372dce1",
        "nonce": "0x1be",
        "chainId": "0x1"
      },
      "additionalContracts": [],
      "isFixedGasLimit": false
    },
    {
      "hash": "0x3f4ded80e1fe5bb41ffd942896851a2209ae424edd495e4d9df54886b9817bee",
      "transactionType": "CALL",
      "contractName": "EndpointV2",
      "contractAddress": "0x1a44076050125825900e736c501f859c50fe728c",
      "function": "setReceiveLibrary(address,uint32,address,uint256)",
      "arguments": [
        "0x04ACaF8D2865c0714F79da09645C13FD2888977f",
        "30255",
        "0xc02Ab410f0734EFa3F14628780e6e695156024C2",
        "0"
      ],
      "transaction": {
        "from": "0x0990be6db8c785fbbf9ded8baec612a10cae814b",
        "to": "0x1a44076050125825900e736c501f859c50fe728c",
        "gas": "0x17001",
        "value": "0x0",
        "input": "0x6a14d71500000000000000000000000004acaf8d2865c0714f79da09645c13fd2888977f000000000000000000000000000000000000000000000000000000000000762f000000000000000000000000c02ab410f0734efa3f14628780e6e695156024c20000000000000000000000000000000000000000000000000000000000000000",
        "nonce": "0x1bf",
        "chainId": "0x1"
      },
      "additionalContracts": [],
      "isFixedGasLimit": false
    },
    {
      "hash": "0x008ef967ced5b203b0edb6b7f5ba72881ed61727cc7751893f8f6f7e1621adf4",
      "transactionType": "CALL",
      "contractName": "TransparentUpgradeableProxy",
      "contractAddress": "0x04acaf8d2865c0714f79da09645c13fd2888977f",
      "function": null,
      "arguments": null,
      "transaction": {
        "from": "0x0990be6db8c785fbbf9ded8baec612a10cae814b",
        "to": "0x04acaf8d2865c0714f79da09645c13fd2888977f",
        "gas": "0xdd7f",
        "value": "0x0",
        "input": "0xca5eb5e1000000000000000000000000b1748c79709f4ba2dd82834b8c82d4a505003f27",
        "nonce": "0x1c0",
        "chainId": "0x1"
      },
      "additionalContracts": [],
      "isFixedGasLimit": false
    },
    {
      "hash": "0x5e43f470e90e28f6634a53a1f31c9e527550968438122bc5e7e31b44aa2f4064",
      "transactionType": "CALL",
      "contractName": "TransparentUpgradeableProxy",
      "contractAddress": "0x04acaf8d2865c0714f79da09645c13fd2888977f",
      "function": null,
      "arguments": null,
      "transaction": {
        "from": "0x0990be6db8c785fbbf9ded8baec612a10cae814b",
        "to": "0x04acaf8d2865c0714f79da09645c13fd2888977f",
        "gas": "0xcd36",
        "value": "0x0",
        "input": "0xf2fde38b000000000000000000000000b1748c79709f4ba2dd82834b8c82d4a505003f27",
        "nonce": "0x1c1",
        "chainId": "0x1"
      },
      "additionalContracts": [],
      "isFixedGasLimit": false
    }
  ],
  "receipts": [
    {
      "status": "0x1",
      "cumulativeGasUsed": "0x15ddd34",
      "logs": [],
      "logsBloom": "0x00000000000000000000000000000000000000000000000000000000000000000000000000000000000000000000000000000000000000000000000000000000000000000000000000000000000000000000000000000000000000000000000000000000000000000000000000000000000000000000000000000000000000000000000000000000000000000000000000000000000000000000000000000000000000000000000000000000000000000000000000000000000000000000000000000000000000000000000000000000000000000000000000000000000000000000000000000000000000000000000000000000000000000000000000000000",
      "type": "0x2",
      "transactionHash": "0x83c63ec370c65d8bb0d65544b591c61c1ab37ce8e4bbf98ae1b4507a40a73575",
      "transactionIndex": "0xa9",
      "blockHash": "0x0c05f004ff331bf1f6ba60d2c16fefc2a7ec3417d7f209aaed6fa71fbc32140e",
      "blockNumber": "0x157b600",
      "gasUsed": "0x329182",
      "effectiveGasPrice": "0x689c93ea",
      "from": "0x0990be6db8c785fbbf9ded8baec612a10cae814b",
      "to": null,
      "contractAddress": "0xed2e22cea112a76c6c75730bbcde4123bae297cd"
    },
    {
      "status": "0x1",
      "cumulativeGasUsed": "0x180180b",
      "logs": [
        {
          "address": "0x04acaf8d2865c0714f79da09645c13fd2888977f",
          "topics": [
            "0xbc7cd75a20ee27fd9adebab32041f755214dbc6bffa90cc0225b39da2e5c2d3b",
            "0x0000000000000000000000008f1b9c1fd67136d525e14d96efb3887a33f16250"
          ],
          "data": "0x",
          "blockHash": "0x0c05f004ff331bf1f6ba60d2c16fefc2a7ec3417d7f209aaed6fa71fbc32140e",
          "blockNumber": "0x157b600",
          "transactionHash": "0xce9f0f1cd3112fba8bbc5819eaf6f2ea21571c67b3369682249ed02124e16360",
          "transactionIndex": "0xd6",
          "logIndex": "0x223",
          "removed": false
        },
        {
          "address": "0x04acaf8d2865c0714f79da09645c13fd2888977f",
          "topics": [
            "0x7e644d79422f17c01e4894b5f4f588d331ebfa28653d42ae832dc59e38c9798f"
          ],
          "data": "0x00000000000000000000000000000000000000000000000000000000000000000000000000000000000000000990be6db8c785fbbf9ded8baec612a10cae814b",
          "blockHash": "0x0c05f004ff331bf1f6ba60d2c16fefc2a7ec3417d7f209aaed6fa71fbc32140e",
          "blockNumber": "0x157b600",
          "transactionHash": "0xce9f0f1cd3112fba8bbc5819eaf6f2ea21571c67b3369682249ed02124e16360",
          "transactionIndex": "0xd6",
          "logIndex": "0x224",
          "removed": false
        }
      ],
      "logsBloom": "0x00000000004000000000000040000000400000000000000000000000000000000000000000000000000000000000000000000000000000000000000000000000000000000000000000000000000002000000000000000000000000000000000001000000000000000000000000000000000000800000000000000000000000000000000000000000000000000000000000000000000000000000000002808000000000000000000000000000000000000000000000000000000000000000000000000020000000000000000000000000000000000400000000000000000000000000000000000000000000000000000000040000000000000000000000000000",
      "type": "0x2",
      "transactionHash": "0xce9f0f1cd3112fba8bbc5819eaf6f2ea21571c67b3369682249ed02124e16360",
      "transactionIndex": "0xd6",
      "blockHash": "0x0c05f004ff331bf1f6ba60d2c16fefc2a7ec3417d7f209aaed6fa71fbc32140e",
      "blockNumber": "0x157b600",
      "gasUsed": "0x86072",
      "effectiveGasPrice": "0x689c93ea",
      "from": "0x0990be6db8c785fbbf9ded8baec612a10cae814b",
      "to": null,
      "contractAddress": "0x04acaf8d2865c0714f79da09645c13fd2888977f"
    },
    {
      "status": "0x1",
      "cumulativeGasUsed": "0x18a994e",
      "logs": [
        {
          "address": "0x04acaf8d2865c0714f79da09645c13fd2888977f",
          "topics": [
            "0xbc7cd75a20ee27fd9adebab32041f755214dbc6bffa90cc0225b39da2e5c2d3b",
            "0x000000000000000000000000ed2e22cea112a76c6c75730bbcde4123bae297cd"
          ],
          "data": "0x",
          "blockHash": "0x0c05f004ff331bf1f6ba60d2c16fefc2a7ec3417d7f209aaed6fa71fbc32140e",
          "blockNumber": "0x157b600",
          "transactionHash": "0x96dcec4f941be87a869d600c28def6588e9e78dbf6cb10797f8ac5c4a4c0fdf0",
          "transactionIndex": "0xdb",
          "logIndex": "0x239",
          "removed": false
        },
        {
          "address": "0x1a44076050125825900e736c501f859c50fe728c",
          "topics": [
            "0x6ee10e9ed4d6ce9742703a498707862f4b00f1396a87195eb93267b3d7983981"
          ],
          "data": "0x00000000000000000000000004acaf8d2865c0714f79da09645c13fd2888977f0000000000000000000000000990be6db8c785fbbf9ded8baec612a10cae814b",
          "blockHash": "0x0c05f004ff331bf1f6ba60d2c16fefc2a7ec3417d7f209aaed6fa71fbc32140e",
          "blockNumber": "0x157b600",
          "transactionHash": "0x96dcec4f941be87a869d600c28def6588e9e78dbf6cb10797f8ac5c4a4c0fdf0",
          "transactionIndex": "0xdb",
          "logIndex": "0x23a",
          "removed": false
        },
        {
          "address": "0x04acaf8d2865c0714f79da09645c13fd2888977f",
          "topics": [
            "0x8be0079c531659141344cd1fd0a4f28419497f9722a3daafe3b4186f6b6457e0",
            "0x0000000000000000000000000000000000000000000000000000000000000000",
            "0x0000000000000000000000000990be6db8c785fbbf9ded8baec612a10cae814b"
          ],
          "data": "0x",
          "blockHash": "0x0c05f004ff331bf1f6ba60d2c16fefc2a7ec3417d7f209aaed6fa71fbc32140e",
          "blockNumber": "0x157b600",
          "transactionHash": "0x96dcec4f941be87a869d600c28def6588e9e78dbf6cb10797f8ac5c4a4c0fdf0",
          "transactionIndex": "0xdb",
          "logIndex": "0x23b",
          "removed": false
        },
        {
          "address": "0x04acaf8d2865c0714f79da09645c13fd2888977f",
          "topics": [
            "0x8be0079c531659141344cd1fd0a4f28419497f9722a3daafe3b4186f6b6457e0",
            "0x0000000000000000000000000990be6db8c785fbbf9ded8baec612a10cae814b",
            "0x0000000000000000000000000990be6db8c785fbbf9ded8baec612a10cae814b"
          ],
          "data": "0x",
          "blockHash": "0x0c05f004ff331bf1f6ba60d2c16fefc2a7ec3417d7f209aaed6fa71fbc32140e",
          "blockNumber": "0x157b600",
          "transactionHash": "0x96dcec4f941be87a869d600c28def6588e9e78dbf6cb10797f8ac5c4a4c0fdf0",
          "transactionIndex": "0xdb",
          "logIndex": "0x23c",
          "removed": false
        },
        {
          "address": "0x04acaf8d2865c0714f79da09645c13fd2888977f",
          "topics": [
            "0x7f26b83ff96e1f2b6a682f133852f6798a09c465da95921460cefb3847402498"
          ],
          "data": "0x0000000000000000000000000000000000000000000000000000000000000001",
          "blockHash": "0x0c05f004ff331bf1f6ba60d2c16fefc2a7ec3417d7f209aaed6fa71fbc32140e",
          "blockNumber": "0x157b600",
          "transactionHash": "0x96dcec4f941be87a869d600c28def6588e9e78dbf6cb10797f8ac5c4a4c0fdf0",
          "transactionIndex": "0xdb",
          "logIndex": "0x23d",
          "removed": false
        }
      ],
      "logsBloom": "0x00000000004000000000000000000000400000002000000000800000001000000000000000000000000000000000000000000002000000000000000000000000000000000000000000000000400002000001000000000000000000000000000000000000020000000000000000000800000000000010000000000000000000400000040000000000000000000000000000000000000080000000000002008000000000000000000000000000000400000000000000000000000020000000008400000020000000000000000000040000000000000000000000000000000020000000000000000000000000000000000000000000010000000000400000000000",
      "type": "0x2",
      "transactionHash": "0x96dcec4f941be87a869d600c28def6588e9e78dbf6cb10797f8ac5c4a4c0fdf0",
      "transactionIndex": "0xdb",
      "blockHash": "0x0c05f004ff331bf1f6ba60d2c16fefc2a7ec3417d7f209aaed6fa71fbc32140e",
      "blockNumber": "0x157b600",
      "gasUsed": "0x27305",
      "effectiveGasPrice": "0x689c93ea",
      "from": "0x0990be6db8c785fbbf9ded8baec612a10cae814b",
      "to": "0x04acaf8d2865c0714f79da09645c13fd2888977f",
      "contractAddress": null
    },
    {
      "status": "0x1",
      "cumulativeGasUsed": "0x1915171",
      "logs": [
        {
          "address": "0x04acaf8d2865c0714f79da09645c13fd2888977f",
          "topics": [
            "0x7e644d79422f17c01e4894b5f4f588d331ebfa28653d42ae832dc59e38c9798f"
          ],
          "data": "0x0000000000000000000000000990be6db8c785fbbf9ded8baec612a10cae814b000000000000000000000000223a681fc5c5522c85c96157c0efa18cd6c5405c",
          "blockHash": "0x0c05f004ff331bf1f6ba60d2c16fefc2a7ec3417d7f209aaed6fa71fbc32140e",
          "blockNumber": "0x157b600",
          "transactionHash": "0xfb83e07c30fcc79141fbf847bf7a5e42823c87c8a0702613626a27bd759c810f",
          "transactionIndex": "0xdf",
          "logIndex": "0x24d",
          "removed": false
        }
      ],
      "logsBloom": "0x00000000004000000000000000000000000000000000000000000000000000000000000000000000000000000000000000000000000000000000000000000000000000000000000000000000000000000000000000000000000000000000000000000000000000000000000000000000000000800000000000000000000000000000000000000000000000000000000000000000000000000000000002808000000000000000000000000000000000000000000000000000000000000000000000000000000000000000000000000000000000000400000000000000000000000000000000000000000000000000000000000000000000000000000000000000",
      "type": "0x2",
      "transactionHash": "0xfb83e07c30fcc79141fbf847bf7a5e42823c87c8a0702613626a27bd759c810f",
      "transactionIndex": "0xdf",
      "blockHash": "0x0c05f004ff331bf1f6ba60d2c16fefc2a7ec3417d7f209aaed6fa71fbc32140e",
      "blockNumber": "0x157b600",
      "gasUsed": "0x6fe7",
      "effectiveGasPrice": "0x689c93ea",
      "from": "0x0990be6db8c785fbbf9ded8baec612a10cae814b",
      "to": "0x04acaf8d2865c0714f79da09645c13fd2888977f",
      "contractAddress": null
    },
    {
      "status": "0x1",
      "cumulativeGasUsed": "0x192a893",
      "logs": [
        {
          "address": "0x04acaf8d2865c0714f79da09645c13fd2888977f",
          "topics": [
            "0xbe4864a8e820971c0247f5992e2da559595f7bf076a21cb5928d443d2a13b674"
          ],
          "data": "0x00000000000000000000000000000000000000000000000000000000000000200000000000000000000000000000000000000000000000000000000000000002000000000000000000000000000000000000000000000000000000000000004000000000000000000000000000000000000000000000000000000000000000e0000000000000000000000000000000000000000000000000000000000000762f00000000000000000000000000000000000000000000000000000000000000010000000000000000000000000000000000000000000000000000000000000060000000000000000000000000000000000000000000000000000000000000001600030100110100000000000000000000000000030d4000000000000000000000000000000000000000000000000000000000000000000000000000000000762f0000000000000000000000000000000000000000000000000000000000000002000000000000000000000000000000000000000000000000000000000000006000000000000000000000000000000000000000000000000000000000000000160003010011010000000000000000000000000003d09000000000000000000000",
          "blockHash": "0x0c05f004ff331bf1f6ba60d2c16fefc2a7ec3417d7f209aaed6fa71fbc32140e",
          "blockNumber": "0x157b600",
          "transactionHash": "0x46e4b8cab5a72c6331dd9645c46c93b925aeea607cb3fe10de5930d40a1da5de",
          "transactionIndex": "0xe0",
          "logIndex": "0x24e",
          "removed": false
        }
      ],
      "logsBloom": "0x00000000004000000000000000000000000000000000000000000000000000000000000000000000000000000000000000000000000000000000400000000000000000000000000000000000000000000000000000000000000000000000000000000000000000000000000000000000000000000000000000000000000000000000000000000000000000000000000000000000000000000000000002088000000000000000000000000000000000000000000000000000000000000000000000000000000000000000000002000000000000000000000000000000000000000000000000000000000000000000000000000000000000000000000000000000",
      "type": "0x2",
      "transactionHash": "0x46e4b8cab5a72c6331dd9645c46c93b925aeea607cb3fe10de5930d40a1da5de",
      "transactionIndex": "0xe0",
      "blockHash": "0x0c05f004ff331bf1f6ba60d2c16fefc2a7ec3417d7f209aaed6fa71fbc32140e",
      "blockNumber": "0x157b600",
      "gasUsed": "0x15722",
      "effectiveGasPrice": "0x689c93ea",
      "from": "0x0990be6db8c785fbbf9ded8baec612a10cae814b",
      "to": "0x04acaf8d2865c0714f79da09645c13fd2888977f",
      "contractAddress": null
    },
    {
      "status": "0x1",
      "cumulativeGasUsed": "0x1937f76",
      "logs": [
        {
          "address": "0x04acaf8d2865c0714f79da09645c13fd2888977f",
          "topics": [
            "0x238399d427b947898edb290f5ff0f9109849b1c3ba196a42e35f00c50a54b98b"
          ],
          "data": "0x000000000000000000000000000000000000000000000000000000000000762f000000000000000000000000d86fbbd0c8715d2c1f40e451e5c3514e65e7576a",
          "blockHash": "0x0c05f004ff331bf1f6ba60d2c16fefc2a7ec3417d7f209aaed6fa71fbc32140e",
          "blockNumber": "0x157b600",
          "transactionHash": "0x6dea58cffb319ed288190ae34be6c3c825bcb8f50d4c506905b8f4d3b90fefc5",
          "transactionIndex": "0xe1",
          "logIndex": "0x24f",
          "removed": false
        }
      ],
      "logsBloom": "0x00000000004000000000000000000000000000000000000000000000000000000000000000000000000000000000000000000000000000000800000000000000000000000000000000000000000000000000000000000000000000000000000000000000000000000000000000000000000000000000000000000000000000000000000000000000000000000000000000000000000000000000000002008000000000000000000000000000000000000000000000000000000002000000000000000000000000000000000000000000000000000000000000040000000000000000000000000000000000000000000000000000000000000000000000000000",
      "type": "0x2",
      "transactionHash": "0x6dea58cffb319ed288190ae34be6c3c825bcb8f50d4c506905b8f4d3b90fefc5",
      "transactionIndex": "0xe1",
      "blockHash": "0x0c05f004ff331bf1f6ba60d2c16fefc2a7ec3417d7f209aaed6fa71fbc32140e",
      "blockNumber": "0x157b600",
      "gasUsed": "0xd6e3",
      "effectiveGasPrice": "0x689c93ea",
      "from": "0x0990be6db8c785fbbf9ded8baec612a10cae814b",
      "to": "0x04acaf8d2865c0714f79da09645c13fd2888977f",
      "contractAddress": null
    },
    {
      "status": "0x1",
      "cumulativeGasUsed": "0x1959e37",
      "logs": [
        {
          "address": "0xc02ab410f0734efa3f14628780e6e695156024c2",
          "topics": [
            "0x82118522aa536ac0e96cc5c689407ae42b89d592aa133890a01f1509842f5081"
          ],
          "data": "0x00000000000000000000000004acaf8d2865c0714f79da09645c13fd2888977f000000000000000000000000000000000000000000000000000000000000762f0000000000000000000000000000000000000000000000000000000000000060000000000000000000000000000000000000000000000000000000000000000000000000000000000000000000000000000000000000000000000000000000020000000000000000000000000000000000000000000000000000000000000000000000000000000000000000000000000000000000000000000000000000000000000000000000000000000000000000000000000000000000000000000000c000000000000000000000000000000000000000000000000000000000000001200000000000000000000000000000000000000000000000000000000000000002000000000000000000000000380275805876ff19055ea900cdb2b46a94ecf20d000000000000000000000000589dedbd617e0cbcb916a9223f4d1300c294236b0000000000000000000000000000000000000000000000000000000000000000",
          "blockHash": "0x0c05f004ff331bf1f6ba60d2c16fefc2a7ec3417d7f209aaed6fa71fbc32140e",
          "blockNumber": "0x157b600",
          "transactionHash": "0x3ffba1342cd3216bbb87a55862a2e5e4f11b0526ba18657e5e2e913eea3b4fce",
          "transactionIndex": "0xe2",
          "logIndex": "0x250",
          "removed": false
        }
      ],
      "logsBloom": "0x00000000000000000000000000000000000000000000000000000000000000000000000000000004000000000000000000000000000000000000000000000000000000000000000000000000000000000000000000000000002000000000000000000000000000000000000000000000000000000000000000000000000000000000000100000000000010000000000000000000000000000000000000000000000000000000000000000002000000000000000000000000000000000000000000000000000000000000000000000000000000000000000000000000000000000000000000000000000000000000000000000000000000000000000000000010",
      "type": "0x2",
      "transactionHash": "0x3ffba1342cd3216bbb87a55862a2e5e4f11b0526ba18657e5e2e913eea3b4fce",
      "transactionIndex": "0xe2",
      "blockHash": "0x0c05f004ff331bf1f6ba60d2c16fefc2a7ec3417d7f209aaed6fa71fbc32140e",
      "blockNumber": "0x157b600",
      "gasUsed": "0x21ec1",
      "effectiveGasPrice": "0x689c93ea",
      "from": "0x0990be6db8c785fbbf9ded8baec612a10cae814b",
      "to": "0x1a44076050125825900e736c501f859c50fe728c",
      "contractAddress": null
    },
    {
      "status": "0x1",
      "cumulativeGasUsed": "0x197bdf4",
      "logs": [
        {
          "address": "0xbb2ea70c9e858123480642cf96acbcce1372dce1",
          "topics": [
            "0x82118522aa536ac0e96cc5c689407ae42b89d592aa133890a01f1509842f5081"
          ],
          "data": "0x00000000000000000000000004acaf8d2865c0714f79da09645c13fd2888977f000000000000000000000000000000000000000000000000000000000000762f0000000000000000000000000000000000000000000000000000000000000060000000000000000000000000000000000000000000000000000000000000000000000000000000000000000000000000000000000000000000000000000000020000000000000000000000000000000000000000000000000000000000000000000000000000000000000000000000000000000000000000000000000000000000000000000000000000000000000000000000000000000000000000000000c000000000000000000000000000000000000000000000000000000000000001200000000000000000000000000000000000000000000000000000000000000002000000000000000000000000380275805876ff19055ea900cdb2b46a94ecf20d000000000000000000000000589dedbd617e0cbcb916a9223f4d1300c294236b0000000000000000000000000000000000000000000000000000000000000000",
          "blockHash": "0x0c05f004ff331bf1f6ba60d2c16fefc2a7ec3417d7f209aaed6fa71fbc32140e",
          "blockNumber": "0x157b600",
          "transactionHash": "0x25b48a3adde3adee030b6e53944e17b1b4cf4ef096d1709e8e370416a220ece6",
          "transactionIndex": "0xe3",
          "logIndex": "0x251",
          "removed": false
        }
      ],
      "logsBloom": "0x00000000000000000000000000000000000000000000000000000000000000000400000000000000000000000000000000000000000000000000000000000000000000000000000000000000000000000000200000000000002000000000000000000000000000000000000000000000000000000000000000000000000000000000000000000000001000000000000000000000000000000000000000000000000000000000000000000002000000000000000000000000000000000000000000000000000000000000000000000000000000000000000000000000000000000000000000000000000000000000000000000000000000000000000000000010",
      "type": "0x2",
      "transactionHash": "0x25b48a3adde3adee030b6e53944e17b1b4cf4ef096d1709e8e370416a220ece6",
      "transactionIndex": "0xe3",
      "blockHash": "0x0c05f004ff331bf1f6ba60d2c16fefc2a7ec3417d7f209aaed6fa71fbc32140e",
      "blockNumber": "0x157b600",
      "gasUsed": "0x21fbd",
      "effectiveGasPrice": "0x689c93ea",
      "from": "0x0990be6db8c785fbbf9ded8baec612a10cae814b",
      "to": "0x1a44076050125825900e736c501f859c50fe728c",
      "contractAddress": null
    },
    {
      "status": "0x1",
      "cumulativeGasUsed": "0x1989f82",
      "logs": [
        {
          "address": "0x1a44076050125825900e736c501f859c50fe728c",
          "topics": [
            "0x4cff966ebee29a156dcb34cf72c1d06231fb1777f6bdf6e8089819232f002b1c"
          ],
          "data": "0x00000000000000000000000004acaf8d2865c0714f79da09645c13fd2888977f000000000000000000000000000000000000000000000000000000000000762f000000000000000000000000bb2ea70c9e858123480642cf96acbcce1372dce1",
          "blockHash": "0x0c05f004ff331bf1f6ba60d2c16fefc2a7ec3417d7f209aaed6fa71fbc32140e",
          "blockNumber": "0x157b600",
          "transactionHash": "0x95d6506c0c9f5774f07e71dba16f294ebd10827b7902b08f0d3d80f7b364ac01",
          "transactionIndex": "0xe4",
          "logIndex": "0x252",
          "removed": false
        }
      ],
      "logsBloom": "0x00000000000000000000000000000000000200000000000000000000001000000000000000000000000000000000000000000000000000000000000001000000000000000000000000000000000000000000000000000000000000000000000000000000000000000000000000000000000000000010000000000000000000000000000000000000000000000000000000000000000000000000000000000000000000000000000000000000000000000000000000000000000000000000000000000000000000000000000000000000000000000000000000000000000000000040000000000000000000000000000000000000010000000000000000000000",
      "type": "0x2",
      "transactionHash": "0x95d6506c0c9f5774f07e71dba16f294ebd10827b7902b08f0d3d80f7b364ac01",
      "transactionIndex": "0xe4",
      "blockHash": "0x0c05f004ff331bf1f6ba60d2c16fefc2a7ec3417d7f209aaed6fa71fbc32140e",
      "blockNumber": "0x157b600",
      "gasUsed": "0xe18e",
      "effectiveGasPrice": "0x689c93ea",
      "from": "0x0990be6db8c785fbbf9ded8baec612a10cae814b",
      "to": "0x1a44076050125825900e736c501f859c50fe728c",
      "contractAddress": null
    },
    {
      "status": "0x1",
      "cumulativeGasUsed": "0x1999b23",
      "logs": [
        {
          "address": "0x1a44076050125825900e736c501f859c50fe728c",
          "topics": [
            "0xcd6f92f5ac6185a5acfa02c92090746cec64d777269cbcd0ed031e396657a1c2"
          ],
          "data": "0x00000000000000000000000004acaf8d2865c0714f79da09645c13fd2888977f000000000000000000000000000000000000000000000000000000000000762f000000000000000000000000c02ab410f0734efa3f14628780e6e695156024c2",
          "blockHash": "0x0c05f004ff331bf1f6ba60d2c16fefc2a7ec3417d7f209aaed6fa71fbc32140e",
          "blockNumber": "0x157b600",
          "transactionHash": "0x3f4ded80e1fe5bb41ffd942896851a2209ae424edd495e4d9df54886b9817bee",
          "transactionIndex": "0xe5",
          "logIndex": "0x253",
          "removed": false
        },
        {
          "address": "0x1a44076050125825900e736c501f859c50fe728c",
          "topics": [
            "0x4e0a5bbfa0c11a64effb1ada324b5437a17272e1aed9320398715ef71bb20928"
          ],
          "data": "0x00000000000000000000000004acaf8d2865c0714f79da09645c13fd2888977f000000000000000000000000000000000000000000000000000000000000762f00000000000000000000000000000000000000000000000000000000000000000000000000000000000000000000000000000000000000000000000000000000",
          "blockHash": "0x0c05f004ff331bf1f6ba60d2c16fefc2a7ec3417d7f209aaed6fa71fbc32140e",
          "blockNumber": "0x157b600",
          "transactionHash": "0x3f4ded80e1fe5bb41ffd942896851a2209ae424edd495e4d9df54886b9817bee",
          "transactionIndex": "0xe5",
          "logIndex": "0x254",
          "removed": false
        }
      ],
      "logsBloom": "0x00000000000000000000020800000000000000000000000000000000001000020400000000000000000000000000000000000000000000000000000000000000000000000000000000000000000000000000000000800000000000000000000000000000000000000000000000000000000000000010000000000000000000100000000000000000000000000000000000000000000000000000000000000000000000000000000000000000000000000000000000000000000000000000000000000000000000000000000000000000000000000000000000000000000000000000000000000000000000000000000000000000010000000000000000000000",
      "type": "0x2",
      "transactionHash": "0x3f4ded80e1fe5bb41ffd942896851a2209ae424edd495e4d9df54886b9817bee",
      "transactionIndex": "0xe5",
      "blockHash": "0x0c05f004ff331bf1f6ba60d2c16fefc2a7ec3417d7f209aaed6fa71fbc32140e",
      "blockNumber": "0x157b600",
      "gasUsed": "0xfba1",
      "effectiveGasPrice": "0x689c93ea",
      "from": "0x0990be6db8c785fbbf9ded8baec612a10cae814b",
      "to": "0x1a44076050125825900e736c501f859c50fe728c",
      "contractAddress": null
    },
    {
      "status": "0x1",
      "cumulativeGasUsed": "0x19a3b80",
      "logs": [
        {
          "address": "0x1a44076050125825900e736c501f859c50fe728c",
          "topics": [
            "0x6ee10e9ed4d6ce9742703a498707862f4b00f1396a87195eb93267b3d7983981"
          ],
          "data": "0x00000000000000000000000004acaf8d2865c0714f79da09645c13fd2888977f000000000000000000000000b1748c79709f4ba2dd82834b8c82d4a505003f27",
          "blockHash": "0x0c05f004ff331bf1f6ba60d2c16fefc2a7ec3417d7f209aaed6fa71fbc32140e",
          "blockNumber": "0x157b600",
          "transactionHash": "0x008ef967ced5b203b0edb6b7f5ba72881ed61727cc7751893f8f6f7e1621adf4",
          "transactionIndex": "0xe6",
          "logIndex": "0x255",
          "removed": false
        }
      ],
      "logsBloom": "0x00000000000000000000000000000000000000000000000000800000001000000000000000000000000000000000000000000002000000000000000000000000000000000000000000000000000000000000000000000000000000000000000000000000000000000000000000000000000000000010000000000000000000000000000000000000000000000000000000000000000000000000000000000000000000000000000000000000000000000000000000000000000000000000000400000000000000000000000000000000000000000000000000000000000000000000000000000000000000000000000000000000010000000000000000000000",
      "type": "0x2",
      "transactionHash": "0x008ef967ced5b203b0edb6b7f5ba72881ed61727cc7751893f8f6f7e1621adf4",
      "transactionIndex": "0xe6",
      "blockHash": "0x0c05f004ff331bf1f6ba60d2c16fefc2a7ec3417d7f209aaed6fa71fbc32140e",
      "blockNumber": "0x157b600",
      "gasUsed": "0xa05d",
      "effectiveGasPrice": "0x689c93ea",
      "from": "0x0990be6db8c785fbbf9ded8baec612a10cae814b",
      "to": "0x04acaf8d2865c0714f79da09645c13fd2888977f",
      "contractAddress": null
    },
    {
      "status": "0x1",
      "cumulativeGasUsed": "0x19ac7d1",
      "logs": [
        {
          "address": "0x04acaf8d2865c0714f79da09645c13fd2888977f",
          "topics": [
            "0x8be0079c531659141344cd1fd0a4f28419497f9722a3daafe3b4186f6b6457e0",
            "0x0000000000000000000000000990be6db8c785fbbf9ded8baec612a10cae814b",
            "0x000000000000000000000000b1748c79709f4ba2dd82834b8c82d4a505003f27"
          ],
          "data": "0x",
          "blockHash": "0x0c05f004ff331bf1f6ba60d2c16fefc2a7ec3417d7f209aaed6fa71fbc32140e",
          "blockNumber": "0x157b600",
          "transactionHash": "0x5e43f470e90e28f6634a53a1f31c9e527550968438122bc5e7e31b44aa2f4064",
          "transactionIndex": "0xe7",
          "logIndex": "0x256",
          "removed": false
        }
      ],
      "logsBloom": "0x00000000004000000000000000000000000000002000000000800000000000008000000000000000000000000000000000000000000000000000000000000000000000000000000000000000400000000001000000000000000000000000000000000000000000000000000000000020000000000000000000000000000000400000000000000000000000000000000000000000000000000000000002008000000000000000000000000000000000000000000000000000000000000000000000000000000000000000000000000000000000000000000000000000000000000000000000000000000000000000000200000000000000000000400000000000",
      "type": "0x2",
      "transactionHash": "0x5e43f470e90e28f6634a53a1f31c9e527550968438122bc5e7e31b44aa2f4064",
      "transactionIndex": "0xe7",
      "blockHash": "0x0c05f004ff331bf1f6ba60d2c16fefc2a7ec3417d7f209aaed6fa71fbc32140e",
      "blockNumber": "0x157b600",
      "gasUsed": "0x8c51",
      "effectiveGasPrice": "0x689c93ea",
      "from": "0x0990be6db8c785fbbf9ded8baec612a10cae814b",
      "to": "0x04acaf8d2865c0714f79da09645c13fd2888977f",
      "contractAddress": null
    }
  ],
  "libraries": [],
  "pending": [],
  "returns": {},
  "timestamp": 1747760010,
  "chain": 1,
  "commit": "03d49e1"
}