{
  "transactions": [
    {
      "hash": "0x4ca369f9cda9e235ccfcf1fba7da2e7fa3fe80f2a296e1dadbe662da73ebf5f7",
      "transactionType": "CALL",
      "contractName": null,
      "contractAddress": "0x741f0d8bde14140f62107fc60a0ee122b37d4630",
      "function": "batchBridgeWithEthFeeFromWallet((uint32,bytes32,uint256,uint256,bytes,bytes,bytes)[],address[],address[])",
      "arguments": [
        "[(30168, 0x3c1b094729102e0c095ee2417e5940ee4f1eab4763f6113fe75281ab74c62398, 1000000000000000000, 0, 0x, 0x, 0x)]",
        "[0x57558Cb8d6005DE0BAe8a2789d5EfaaE52dba5a8]",
        "[0x741F0d8Bde14140f62107FC60A0EE122B37D4630]"
      ],
      "transaction": {
        "from": "0x45dce8e4f2dc005a5f28206a46cb034697eeda8e",
        "to": "0x741f0d8bde14140f62107fc60a0ee122b37d4630",
        "gas": "0x8dc1f",
        "value": "0xbe29f3d7d075",
        "input": "0xb70d4241000000000000000000000000000000000000000000000000000000000000006000000000000000000000000000000000000000000000000000000000000001e000000000000000000000000000000000000000000000000000000000000002200000000000000000000000000000000000000000000000000000000000000001000000000000000000000000000000000000000000000000000000000000002000000000000000000000000000000000000000000000000000000000000075d83c1b094729102e0c095ee2417e5940ee4f1eab4763f6113fe75281ab74c623980000000000000000000000000000000000000000000000000de0b6b3a7640000000000000000000000000000000000000000000000000000000000000000000000000000000000000000000000000000000000000000000000000000000000e000000000000000000000000000000000000000000000000000000000000001000000000000000000000000000000000000000000000000000000000000000120000000000000000000000000000000000000000000000000000000000000000000000000000000000000000000000000000000000000000000000000000000000000000000000000000000000000000000000000000000000000000000000000000000000000000000000000000000000000000000000000000000000000000100000000000000000000000057558cb8d6005de0bae8a2789d5efaae52dba5a80000000000000000000000000000000000000000000000000000000000000001000000000000000000000000741f0d8bde14140f62107fc60a0ee122b37d4630",
        "nonce": "0x78",
        "chainId": "0x1e0"
      },
      "additionalContracts": [],
      "isFixedGasLimit": false
    }
  ],
  "receipts": [
    {
      "status": "0x1",
      "cumulativeGasUsed": "0xc0db1a",
      "logs": [
        {
          "address": "0x57558cb8d6005de0bae8a2789d5efaae52dba5a8",
          "topics": [
            "0xddf252ad1be2c89b69c2b068fc378daa952ba7f163c4a11628f55a4df523b3ef",
            "0x000000000000000000000000741f0d8bde14140f62107fc60a0ee122b37d4630",
            "0x0000000000000000000000000000000000000000000000000000000000000000"
          ],
          "data": "0x0000000000000000000000000000000000000000000000000de0b6b3a7640000",
          "blockHash": "0xbaea5567dbd0a7bd277e41c4e8450f606bbbcd80d5c6c1ad77d932657889cc83",
          "blockNumber": "0xfa21ba",
          "transactionHash": "0x4ca369f9cda9e235ccfcf1fba7da2e7fa3fe80f2a296e1dadbe662da73ebf5f7",
          "transactionIndex": "0x21",
          "logIndex": "0x105",
          "removed": false
        },
        {
          "address": "0xc39161c743d0307eb9bcc9fef03eeb9dc4802de7",
          "topics": [
            "0x61ed099e74a97a1d7f8bb0952a88ca8b7b8ebd00c126ea04671f92a81213318a"
          ],
          "data": "0x000000000000000000000000cce466a522984415bc91338c232d98869193d46e0000000000000000000000000000000000000000000000000000adc2a97806e5",
          "blockHash": "0xbaea5567dbd0a7bd277e41c4e8450f606bbbcd80d5c6c1ad77d932657889cc83",
          "blockNumber": "0xfa21ba",
          "transactionHash": "0x4ca369f9cda9e235ccfcf1fba7da2e7fa3fe80f2a296e1dadbe662da73ebf5f7",
          "transactionIndex": "0x21",
          "logIndex": "0x106",
          "removed": false
        },
        {
          "address": "0xc39161c743d0307eb9bcc9fef03eeb9dc4802de7",
          "topics": [
            "0x07ea52d82345d6e838192107d8fd7123d9c2ec8e916cd0aad13fd2b60db24644"
          ],
          "data": "0x000000000000000000000000000000000000000000000000000000000000006000000000000000000000000000000000000000000000000000000000000000e0000000000000000000000000000000000000000000000000000000000000010000000000000000000000000000000000000000000000000000000000000000030000000000000000000000006788f52439aca6bff597d3eec2dc9a44b8fee84200000000000000000000000095729ea44326f8add8a9b1d987279dbdc1dd3dff000000000000000000000000e16561b56bdf003b785347d237905bae24f5f97300000000000000000000000000000000000000000000000000000000000000000000000000000000000000000000000000000000000000000000000000000003000000000000000000000000000000000000000000000000000005519aa0a2ce0000000000000000000000000000000000000000000000000000058ad7df93610000000000000000000000000000000000000000000000000000058ad7df9361",
          "blockHash": "0xbaea5567dbd0a7bd277e41c4e8450f606bbbcd80d5c6c1ad77d932657889cc83",
          "blockNumber": "0xfa21ba",
          "transactionHash": "0x4ca369f9cda9e235ccfcf1fba7da2e7fa3fe80f2a296e1dadbe662da73ebf5f7",
          "transactionIndex": "0x21",
          "logIndex": "0x107",
          "removed": false
        },
        {
          "address": "0x6f475642a6e85809b1c36fa62763669b1b48dd5b",
          "topics": [
            "0x1ab700d4ced0c005b164c0f789fd09fcbb0156d4c2041b8a3bfbcd961cd1567f"
          ],
          "data": "0x00000000000000000000000000000000000000000000000000000000000000600000000000000000000000000000000000000000000000000000000000000120000000000000000000000000c39161c743d0307eb9bcc9fef03eeb9dc4802de700000000000000000000000000000000000000000000000000000000000000990100000000000000010000766f00000000000000000000000057558cb8d6005de0bae8a2789d5efaae52dba5a8000075d8006d6ff762f7fcb768c550bae67f7a6a3a94969e469b6e0689563ace4e3759adfd7c16a0b64222ac62a0f1e1d54999b7cc2ddd9f3ccfc37516bf7d127dcc7c113c1b094729102e0c095ee2417e5940ee4f1eab4763f6113fe75281ab74c6239800000000000f424000000000000000000000000000000000000000000000000000000000000000000000000000002600030100210100000000000000000000000000030d40000000000000000000000000002625a00000000000000000000000000000000000000000000000000000",
          "blockHash": "0xbaea5567dbd0a7bd277e41c4e8450f606bbbcd80d5c6c1ad77d932657889cc83",
          "blockNumber": "0xfa21ba",
          "transactionHash": "0x4ca369f9cda9e235ccfcf1fba7da2e7fa3fe80f2a296e1dadbe662da73ebf5f7",
          "transactionIndex": "0x21",
          "logIndex": "0x108",
          "removed": false
        },
        {
          "address": "0x57558cb8d6005de0bae8a2789d5efaae52dba5a8",
          "topics": [
            "0x85496b760a4b7f8d66384b9df21b381f5d1b1e79f229a47aaf4c232edc2fe59a",
            "0xfd7c16a0b64222ac62a0f1e1d54999b7cc2ddd9f3ccfc37516bf7d127dcc7c11",
            "0x000000000000000000000000741f0d8bde14140f62107fc60a0ee122b37d4630"
          ],
          "data": "0x00000000000000000000000000000000000000000000000000000000000075d80000000000000000000000000000000000000000000000000de0b6b3a76400000000000000000000000000000000000000000000000000000de0b6b3a7640000",
          "blockHash": "0xbaea5567dbd0a7bd277e41c4e8450f606bbbcd80d5c6c1ad77d932657889cc83",
          "blockNumber": "0xfa21ba",
          "transactionHash": "0x4ca369f9cda9e235ccfcf1fba7da2e7fa3fe80f2a296e1dadbe662da73ebf5f7",
          "transactionIndex": "0x21",
          "logIndex": "0x109",
          "removed": false
        }
      ],
      "logsBloom": "0x0010000000000000000000000004004000000000000000000000000000000000000000000000000000000000000000040000010000000000000000000000000000000200000000000000000a00000000014000000000000000000000000000000800010002000000802000000000080000000000000000000000001000000000000000000080000000000008000000000000000000000000000000000000000000000000a000001000100000000000000000000000400000000440000000000000000002000000000000000080000000000000000000000000000000000020004000040000000000000000000000002000000000008000000000000000000000",
      "type": "0x2",
      "transactionHash": "0x4ca369f9cda9e235ccfcf1fba7da2e7fa3fe80f2a296e1dadbe662da73ebf5f7",
      "transactionIndex": "0x21",
      "blockHash": "0xbaea5567dbd0a7bd277e41c4e8450f606bbbcd80d5c6c1ad77d932657889cc83",
      "blockNumber": "0xfa21ba",
      "gasUsed": "0x66a15",
      "effectiveGasPrice": "0x7b5860",
      "from": "0x45dce8e4f2dc005a5f28206a46cb034697eeda8e",
      "to": "0x741f0d8bde14140f62107fc60a0ee122b37d4630",
      "contractAddress": null,
      "l1BaseFeeScalar": "0x21f9",
      "l1BlobBaseFee": "0x1",
      "l1BlobBaseFeeScalar": "0xdd3ef",
      "l1Fee": "0x5c8210f6f",
      "l1GasPrice": "0x3d1b68f9",
      "l1GasUsed": "0xae1"
    }
  ],
  "libraries": [],
  "pending": [],
  "returns": {},
  "timestamp": 1752120909,
  "chain": 480,
  "commit": "4a90ad4"
}