{
  "transactions": [
    {
      "hash": "0x471c3e82207816dcab7657ee9b2e7b9b8eb3727f7a4edf0492fd52c49feb4200",
      "transactionType": "CALL",
      "contractName": null,
      "contractAddress": "0x741f0d8bde14140f62107fc60a0ee122b37d4630",
      "function": "batchBridgeWithEthFeeFromWallet((uint32,bytes32,uint256,uint256,bytes,bytes,bytes)[],address[],address[])",
      "arguments": [
        "[(30255, 0x000000000000000000000000741f0d8bde14140f62107fc60a0ee122b37d4630, 100000000000000, 0, 0x, 0x, 0x), (30255, 0x000000000000000000000000741f0d8bde14140f62107fc60a0ee122b37d4630, 100000000000000, 0, 0x, 0x, 0x), (30255, 0x000000000000000000000000741f0d8bde14140f62107fc60a0ee122b37d4630, 100000000000000, 0, 0x, 0x, 0x), (30255, 0x000000000000000000000000741f0d8bde14140f62107fc60a0ee122b37d4630, 100000000000000, 0, 0x, 0x, 0x), (30255, 0x000000000000000000000000741f0d8bde14140f62107fc60a0ee122b37d4630, 100000000000000, 0, 0x, 0x, 0x), (30255, 0x000000000000000000000000741f0d8bde14140f62107fc60a0ee122b37d4630, 100000000000000, 0, 0x, 0x, 0x)]",
        "[0x64445f0aecC51E94aD52d8AC56b7190e764E561a, 0x5Bff88cA1442c2496f7E475E9e7786383Bc070c0, 0x3Ec3849C33291a9eF4c5dB86De593EB4A37fDe45, 0x80Eede496655FB9047dd39d9f418d5483ED600df, 0x43eDD7f3831b08FE70B7555ddD373C8bF65a9050, 0x90581eCa9469D8D7F5D3B60f4715027aDFCf7927]",
        "[0x741F0d8Bde14140f62107FC60A0EE122B37D4630, 0x741F0d8Bde14140f62107FC60A0EE122B37D4630, 0x741F0d8Bde14140f62107FC60A0EE122B37D4630, 0x741F0d8Bde14140f62107FC60A0EE122B37D4630, 0x741F0d8Bde14140f62107FC60A0EE122B37D4630, 0x741F0d8Bde14140f62107FC60A0EE122B37D4630]"
      ],
      "transaction": {
        "from": "0x45dce8e4f2dc005a5f28206a46cb034697eeda8e",
        "to": "0x741f0d8bde14140f62107fc60a0ee122b37d4630",
        "gas": "0x25026c",
        "value": "0x12c48040bd32b154",
        "input": "0xb70d4241000000000000000000000000000000000000000000000000000000000000006000000000000000000000000000000000000000000000000000000000000008c000000000000000000000000000000000000000000000000000000000000009a0000000000000000000000000000000000000000000000000000000000000000600000000000000000000000000000000000000000000000000000000000000c000000000000000000000000000000000000000000000000000000000000002000000000000000000000000000000000000000000000000000000000000000340000000000000000000000000000000000000000000000000000000000000048000000000000000000000000000000000000000000000000000000000000005c00000000000000000000000000000000000000000000000000000000000000700000000000000000000000000000000000000000000000000000000000000762f000000000000000000000000741f0d8bde14140f62107fc60a0ee122b37d463000000000000000000000000000000000000000000000000000005af3107a4000000000000000000000000000000000000000000000000000000000000000000000000000000000000000000000000000000000000000000000000000000000e000000000000000000000000000000000000000000000000000000000000001000000000000000000000000000000000000000000000000000000000000000120000000000000000000000000000000000000000000000000000000000000000000000000000000000000000000000000000000000000000000000000000000000000000000000000000000000000000000000000000000000000000000000000000000000000000000000000000000000000000000000000000000000000762f000000000000000000000000741f0d8bde14140f62107fc60a0ee122b37d463000000000000000000000000000000000000000000000000000005af3107a4000000000000000000000000000000000000000000000000000000000000000000000000000000000000000000000000000000000000000000000000000000000e000000000000000000000000000000000000000000000000000000000000001000000000000000000000000000000000000000000000000000000000000000120000000000000000000000000000000000000000000000000000000000000000000000000000000000000000000000000000000000000000000000000000000000000000000000000000000000000000000000000000000000000000000000000000000000000000000000000000000000000000000000000000000000000762f000000000000000000000000741f0d8bde14140f62107fc60a0ee122b37d463000000000000000000000000000000000000000000000000000005af3107a4000000000000000000000000000000000000000000000000000000000000000000000000000000000000000000000000000000000000000000000000000000000e000000000000000000000000000000000000000000000000000000000000001000000000000000000000000000000000000000000000000000000000000000120000000000000000000000000000000000000000000000000000000000000000000000000000000000000000000000000000000000000000000000000000000000000000000000000000000000000000000000000000000000000000000000000000000000000000000000000000000000000000000000000000000000000762f000000000000000000000000741f0d8bde14140f62107fc60a0ee122b37d463000000000000000000000000000000000000000000000000000005af3107a4000000000000000000000000000000000000000000000000000000000000000000000000000000000000000000000000000000000000000000000000000000000e000000000000000000000000000000000000000000000000000000000000001000000000000000000000000000000000000000000000000000000000000000120000000000000000000000000000000000000000000000000000000000000000000000000000000000000000000000000000000000000000000000000000000000000000000000000000000000000000000000000000000000000000000000000000000000000000000000000000000000000000000000000000000000000762f000000000000000000000000741f0d8bde14140f62107fc60a0ee122b37d463000000000000000000000000000000000000000000000000000005af3107a4000000000000000000000000000000000000000000000000000000000000000000000000000000000000000000000000000000000000000000000000000000000e000000000000000000000000000000000000000000000000000000000000001000000000000000000000000000000000000000000000000000000000000000120000000000000000000000000000000000000000000000000000000000000000000000000000000000000000000000000000000000000000000000000000000000000000000000000000000000000000000000000000000000000000000000000000000000000000000000000000000000000000000000000000000000000762f000000000000000000000000741f0d8bde14140f62107fc60a0ee122b37d463000000000000000000000000000000000000000000000000000005af3107a4000000000000000000000000000000000000000000000000000000000000000000000000000000000000000000000000000000000000000000000000000000000e000000000000000000000000000000000000000000000000000000000000001000000000000000000000000000000000000000000000000000000000000000120000000000000000000000000000000000000000000000000000000000000000000000000000000000000000000000000000000000000000000000000000000000000000000000000000000000000000000000000000000000000000000000000000000000000000000000000000000000000000000000000000000000000000600000000000000000000000064445f0aecc51e94ad52d8ac56b7190e764e561a0000000000000000000000005bff88ca1442c2496f7e475e9e7786383bc070c00000000000000000000000003ec3849c33291a9ef4c5db86de593eb4a37fde4500000000000000000000000080eede496655fb9047dd39d9f418d5483ed600df00000000000000000000000043edd7f3831b08fe70b7555ddd373c8bf65a905000000000000000000000000090581eca9469d8d7f5d3b60f4715027adfcf79270000000000000000000000000000000000000000000000000000000000000006000000000000000000000000741f0d8bde14140f62107fc60a0ee122b37d4630000000000000000000000000741f0d8bde14140f62107fc60a0ee122b37d4630000000000000000000000000741f0d8bde14140f62107fc60a0ee122b37d4630000000000000000000000000741f0d8bde14140f62107fc60a0ee122b37d4630000000000000000000000000741f0d8bde14140f62107fc60a0ee122b37d4630000000000000000000000000741f0d8bde14140f62107fc60a0ee122b37d4630",
        "nonce": "0x9f",
        "chainId": "0x2611"
      },
      "additionalContracts": [],
      "isFixedGasLimit": false
    }
  ],
  "receipts": [
    {
      "status": "0x1",
      "cumulativeGasUsed": "0x8bf9d3",
      "logs": [
        {
          "address": "0x64445f0aecc51e94ad52d8ac56b7190e764e561a",
          "topics": [
            "0xddf252ad1be2c89b69c2b068fc378daa952ba7f163c4a11628f55a4df523b3ef",
            "0x000000000000000000000000741f0d8bde14140f62107fc60a0ee122b37d4630",
            "0x0000000000000000000000000000000000000000000000000000000000000000"
          ],
          "data": "0x00000000000000000000000000000000000000000000000000005af3107a4000",
          "blockHash": "0x1d1287f23a1f0c374341770c4c172e1ffa8b8e68c3910360ef49acfc6de9b8fd",
          "blockNumber": "0x2e0f71",
          "blockTimestamp": "0x68e6ac0f",
          "transactionHash": "0x471c3e82207816dcab7657ee9b2e7b9b8eb3727f7a4edf0492fd52c49feb4200",
          "transactionIndex": "0x14",
          "logIndex": "0xb",
          "removed": false
        },
        {
          "address": "0xc39161c743d0307eb9bcc9fef03eeb9dc4802de7",
          "topics": [
            "0x61ed099e74a97a1d7f8bb0952a88ca8b7b8ebd00c126ea04671f92a81213318a"
          ],
          "data": "0x0000000000000000000000004208d6e27538189bb48e603d6123a94b8abe0a0b000000000000000000000000000000000000000000000000007b0c0c44a1be3e",
          "blockHash": "0x1d1287f23a1f0c374341770c4c172e1ffa8b8e68c3910360ef49acfc6de9b8fd",
          "blockNumber": "0x2e0f71",
          "blockTimestamp": "0x68e6ac0f",
          "transactionHash": "0x471c3e82207816dcab7657ee9b2e7b9b8eb3727f7a4edf0492fd52c49feb4200",
          "transactionIndex": "0x14",
          "logIndex": "0xc",
          "removed": false
        },
        {
          "address": "0xc39161c743d0307eb9bcc9fef03eeb9dc4802de7",
          "topics": [
            "0x07ea52d82345d6e838192107d8fd7123d9c2ec8e916cd0aad13fd2b60db24644"
          ],
          "data": "0x000000000000000000000000000000000000000000000000000000000000006000000000000000000000000000000000000000000000000000000000000000e0000000000000000000000000000000000000000000000000000000000000010000000000000000000000000000000000000000000000000000000000000000030000000000000000000000000a5a808dc5f9280b26ebe11b356d200e34a48517000000000000000000000000282b3386571f7f794450d5789911a9804fa346b4000000000000000000000000d4ce45957fbcb88b868ad2c759c7db9bc2741e560000000000000000000000000000000000000000000000000000000000000000000000000000000000000000000000000000000000000000000000000000000300000000000000000000000000000000000000000000000000b7526fb4341a7b00000000000000000000000000000000000000000000000000b7526fb4341a7b00000000000000000000000000000000000000000000000000b7526fb4341a7b",
          "blockHash": "0x1d1287f23a1f0c374341770c4c172e1ffa8b8e68c3910360ef49acfc6de9b8fd",
          "blockNumber": "0x2e0f71",
          "blockTimestamp": "0x68e6ac0f",
          "transactionHash": "0x471c3e82207816dcab7657ee9b2e7b9b8eb3727f7a4edf0492fd52c49feb4200",
          "transactionIndex": "0x14",
          "logIndex": "0xd",
          "removed": false
        },
        {
          "address": "0x6f475642a6e85809b1c36fa62763669b1b48dd5b",
          "topics": [
            "0x1ab700d4ced0c005b164c0f789fd09fcbb0156d4c2041b8a3bfbcd961cd1567f"
          ],
          "data": "0x00000000000000000000000000000000000000000000000000000000000000600000000000000000000000000000000000000000000000000000000000000120000000000000000000000000c39161c743d0307eb9bcc9fef03eeb9dc4802de70000000000000000000000000000000000000000000000000000000000000099010000000000000001000076af00000000000000000000000064445f0aecc51e94ad52d8ac56b7190e764e561a0000762f000000000000000000000000d86fbbd0c8715d2c1f40e451e5c3514e65e7576a8ee5b7a6aeb021553af7b03f11c128c2d6fbb6f98f91b5097de6bf9ff054374d000000000000000000000000741f0d8bde14140f62107fc60a0ee122b37d4630000000000000006400000000000000000000000000000000000000000000000000000000000000000000000000001600030100110100000000000000000000000000030d4000000000000000000000",
          "blockHash": "0x1d1287f23a1f0c374341770c4c172e1ffa8b8e68c3910360ef49acfc6de9b8fd",
          "blockNumber": "0x2e0f71",
          "blockTimestamp": "0x68e6ac0f",
          "transactionHash": "0x471c3e82207816dcab7657ee9b2e7b9b8eb3727f7a4edf0492fd52c49feb4200",
          "transactionIndex": "0x14",
          "logIndex": "0xe",
          "removed": false
        },
        {
          "address": "0x64445f0aecc51e94ad52d8ac56b7190e764e561a",
          "topics": [
            "0x85496b760a4b7f8d66384b9df21b381f5d1b1e79f229a47aaf4c232edc2fe59a",
            "0x8ee5b7a6aeb021553af7b03f11c128c2d6fbb6f98f91b5097de6bf9ff054374d",
            "0x000000000000000000000000741f0d8bde14140f62107fc60a0ee122b37d4630"
          ],
          "data": "0x000000000000000000000000000000000000000000000000000000000000762f00000000000000000000000000000000000000000000000000005af3107a400000000000000000000000000000000000000000000000000000005af3107a4000",
          "blockHash": "0x1d1287f23a1f0c374341770c4c172e1ffa8b8e68c3910360ef49acfc6de9b8fd",
          "blockNumber": "0x2e0f71",
          "blockTimestamp": "0x68e6ac0f",
          "transactionHash": "0x471c3e82207816dcab7657ee9b2e7b9b8eb3727f7a4edf0492fd52c49feb4200",
          "transactionIndex": "0x14",
          "logIndex": "0xf",
          "removed": false
        },
        {
          "address": "0x5bff88ca1442c2496f7e475e9e7786383bc070c0",
          "topics": [
            "0xddf252ad1be2c89b69c2b068fc378daa952ba7f163c4a11628f55a4df523b3ef",
            "0x000000000000000000000000741f0d8bde14140f62107fc60a0ee122b37d4630",
            "0x0000000000000000000000000000000000000000000000000000000000000000"
          ],
          "data": "0x00000000000000000000000000000000000000000000000000005af3107a4000",
          "blockHash": "0x1d1287f23a1f0c374341770c4c172e1ffa8b8e68c3910360ef49acfc6de9b8fd",
          "blockNumber": "0x2e0f71",
          "blockTimestamp": "0x68e6ac0f",
          "transactionHash": "0x471c3e82207816dcab7657ee9b2e7b9b8eb3727f7a4edf0492fd52c49feb4200",
          "transactionIndex": "0x14",
          "logIndex": "0x10",
          "removed": false
        },
        {
          "address": "0xc39161c743d0307eb9bcc9fef03eeb9dc4802de7",
          "topics": [
            "0x61ed099e74a97a1d7f8bb0952a88ca8b7b8ebd00c126ea04671f92a81213318a"
          ],
          "data": "0x0000000000000000000000004208d6e27538189bb48e603d6123a94b8abe0a0b000000000000000000000000000000000000000000000000007b0c0c44a1be3e",
          "blockHash": "0x1d1287f23a1f0c374341770c4c172e1ffa8b8e68c3910360ef49acfc6de9b8fd",
          "blockNumber": "0x2e0f71",
          "blockTimestamp": "0x68e6ac0f",
          "transactionHash": "0x471c3e82207816dcab7657ee9b2e7b9b8eb3727f7a4edf0492fd52c49feb4200",
          "transactionIndex": "0x14",
          "logIndex": "0x11",
          "removed": false
        },
        {
          "address": "0xc39161c743d0307eb9bcc9fef03eeb9dc4802de7",
          "topics": [
            "0x07ea52d82345d6e838192107d8fd7123d9c2ec8e916cd0aad13fd2b60db24644"
          ],
          "data": "0x000000000000000000000000000000000000000000000000000000000000006000000000000000000000000000000000000000000000000000000000000000e0000000000000000000000000000000000000000000000000000000000000010000000000000000000000000000000000000000000000000000000000000000030000000000000000000000000a5a808dc5f9280b26ebe11b356d200e34a48517000000000000000000000000282b3386571f7f794450d5789911a9804fa346b4000000000000000000000000d4ce45957fbcb88b868ad2c759c7db9bc2741e560000000000000000000000000000000000000000000000000000000000000000000000000000000000000000000000000000000000000000000000000000000300000000000000000000000000000000000000000000000000b7526fb4341a7b00000000000000000000000000000000000000000000000000b7526fb4341a7b00000000000000000000000000000000000000000000000000b7526fb4341a7b",
          "blockHash": "0x1d1287f23a1f0c374341770c4c172e1ffa8b8e68c3910360ef49acfc6de9b8fd",
          "blockNumber": "0x2e0f71",
          "blockTimestamp": "0x68e6ac0f",
          "transactionHash": "0x471c3e82207816dcab7657ee9b2e7b9b8eb3727f7a4edf0492fd52c49feb4200",
          "transactionIndex": "0x14",
          "logIndex": "0x12",
          "removed": false
        },
        {
          "address": "0x6f475642a6e85809b1c36fa62763669b1b48dd5b",
          "topics": [
            "0x1ab700d4ced0c005b164c0f789fd09fcbb0156d4c2041b8a3bfbcd961cd1567f"
          ],
          "data": "0x00000000000000000000000000000000000000000000000000000000000000600000000000000000000000000000000000000000000000000000000000000120000000000000000000000000c39161c743d0307eb9bcc9fef03eeb9dc4802de70000000000000000000000000000000000000000000000000000000000000099010000000000000001000076af0000000000000000000000005bff88ca1442c2496f7e475e9e7786383bc070c00000762f00000000000000000000000088aa7854d3b2daa5e37e7ce73a1f39669623a361b7c3bbd4b314ff6adab5b4e0e624d2f89c615ef6f30fffcc4d78bc908d075aa8000000000000000000000000741f0d8bde14140f62107fc60a0ee122b37d4630000000000000006400000000000000000000000000000000000000000000000000000000000000000000000000001600030100110100000000000000000000000000030d4000000000000000000000",
          "blockHash": "0x1d1287f23a1f0c374341770c4c172e1ffa8b8e68c3910360ef49acfc6de9b8fd",
          "blockNumber": "0x2e0f71",
          "blockTimestamp": "0x68e6ac0f",
          "transactionHash": "0x471c3e82207816dcab7657ee9b2e7b9b8eb3727f7a4edf0492fd52c49feb4200",
          "transactionIndex": "0x14",
          "logIndex": "0x13",
          "removed": false
        },
        {
          "address": "0x5bff88ca1442c2496f7e475e9e7786383bc070c0",
          "topics": [
            "0x85496b760a4b7f8d66384b9df21b381f5d1b1e79f229a47aaf4c232edc2fe59a",
            "0xb7c3bbd4b314ff6adab5b4e0e624d2f89c615ef6f30fffcc4d78bc908d075aa8",
            "0x000000000000000000000000741f0d8bde14140f62107fc60a0ee122b37d4630"
          ],
          "data": "0x000000000000000000000000000000000000000000000000000000000000762f00000000000000000000000000000000000000000000000000005af3107a400000000000000000000000000000000000000000000000000000005af3107a4000",
          "blockHash": "0x1d1287f23a1f0c374341770c4c172e1ffa8b8e68c3910360ef49acfc6de9b8fd",
          "blockNumber": "0x2e0f71",
          "blockTimestamp": "0x68e6ac0f",
          "transactionHash": "0x471c3e82207816dcab7657ee9b2e7b9b8eb3727f7a4edf0492fd52c49feb4200",
          "transactionIndex": "0x14",
          "logIndex": "0x14",
          "removed": false
        },
        {
          "address": "0x3ec3849c33291a9ef4c5db86de593eb4a37fde45",
          "topics": [
            "0xddf252ad1be2c89b69c2b068fc378daa952ba7f163c4a11628f55a4df523b3ef",
            "0x000000000000000000000000741f0d8bde14140f62107fc60a0ee122b37d4630",
            "0x0000000000000000000000000000000000000000000000000000000000000000"
          ],
          "data": "0x00000000000000000000000000000000000000000000000000005af3107a4000",
          "blockHash": "0x1d1287f23a1f0c374341770c4c172e1ffa8b8e68c3910360ef49acfc6de9b8fd",
          "blockNumber": "0x2e0f71",
          "blockTimestamp": "0x68e6ac0f",
          "transactionHash": "0x471c3e82207816dcab7657ee9b2e7b9b8eb3727f7a4edf0492fd52c49feb4200",
          "transactionIndex": "0x14",
          "logIndex": "0x15",
          "removed": false
        },
        {
          "address": "0xc39161c743d0307eb9bcc9fef03eeb9dc4802de7",
          "topics": [
            "0x61ed099e74a97a1d7f8bb0952a88ca8b7b8ebd00c126ea04671f92a81213318a"
          ],
          "data": "0x0000000000000000000000004208d6e27538189bb48e603d6123a94b8abe0a0b000000000000000000000000000000000000000000000000007b0c0c44a1be3e",
          "blockHash": "0x1d1287f23a1f0c374341770c4c172e1ffa8b8e68c3910360ef49acfc6de9b8fd",
          "blockNumber": "0x2e0f71",
          "blockTimestamp": "0x68e6ac0f",
          "transactionHash": "0x471c3e82207816dcab7657ee9b2e7b9b8eb3727f7a4edf0492fd52c49feb4200",
          "transactionIndex": "0x14",
          "logIndex": "0x16",
          "removed": false
        },
        {
          "address": "0xc39161c743d0307eb9bcc9fef03eeb9dc4802de7",
          "topics": [
            "0x07ea52d82345d6e838192107d8fd7123d9c2ec8e916cd0aad13fd2b60db24644"
          ],
          "data": "0x000000000000000000000000000000000000000000000000000000000000006000000000000000000000000000000000000000000000000000000000000000e0000000000000000000000000000000000000000000000000000000000000010000000000000000000000000000000000000000000000000000000000000000030000000000000000000000000a5a808dc5f9280b26ebe11b356d200e34a48517000000000000000000000000282b3386571f7f794450d5789911a9804fa346b4000000000000000000000000d4ce45957fbcb88b868ad2c759c7db9bc2741e560000000000000000000000000000000000000000000000000000000000000000000000000000000000000000000000000000000000000000000000000000000300000000000000000000000000000000000000000000000000b7526fb4341a7b00000000000000000000000000000000000000000000000000b7526fb4341a7b00000000000000000000000000000000000000000000000000b7526fb4341a7b",
          "blockHash": "0x1d1287f23a1f0c374341770c4c172e1ffa8b8e68c3910360ef49acfc6de9b8fd",
          "blockNumber": "0x2e0f71",
          "blockTimestamp": "0x68e6ac0f",
          "transactionHash": "0x471c3e82207816dcab7657ee9b2e7b9b8eb3727f7a4edf0492fd52c49feb4200",
          "transactionIndex": "0x14",
          "logIndex": "0x17",
          "removed": false
        },
        {
          "address": "0x6f475642a6e85809b1c36fa62763669b1b48dd5b",
          "topics": [
            "0x1ab700d4ced0c005b164c0f789fd09fcbb0156d4c2041b8a3bfbcd961cd1567f"
          ],
          "data": "0x00000000000000000000000000000000000000000000000000000000000000600000000000000000000000000000000000000000000000000000000000000120000000000000000000000000c39161c743d0307eb9bcc9fef03eeb9dc4802de70000000000000000000000000000000000000000000000000000000000000099010000000000000001000076af0000000000000000000000003ec3849c33291a9ef4c5db86de593eb4a37fde450000762f000000000000000000000000999dfabe3b1cc2ef66eb032eea42fea329bba168b45acaafd698ff350fff406da87ef7ae50e905c89c8634153180dba2a0ffaf79000000000000000000000000741f0d8bde14140f62107fc60a0ee122b37d4630000000000000006400000000000000000000000000000000000000000000000000000000000000000000000000001600030100110100000000000000000000000000030d4000000000000000000000",
          "blockHash": "0x1d1287f23a1f0c374341770c4c172e1ffa8b8e68c3910360ef49acfc6de9b8fd",
          "blockNumber": "0x2e0f71",
          "blockTimestamp": "0x68e6ac0f",
          "transactionHash": "0x471c3e82207816dcab7657ee9b2e7b9b8eb3727f7a4edf0492fd52c49feb4200",
          "transactionIndex": "0x14",
          "logIndex": "0x18",
          "removed": false
        },
        {
          "address": "0x3ec3849c33291a9ef4c5db86de593eb4a37fde45",
          "topics": [
            "0x85496b760a4b7f8d66384b9df21b381f5d1b1e79f229a47aaf4c232edc2fe59a",
            "0xb45acaafd698ff350fff406da87ef7ae50e905c89c8634153180dba2a0ffaf79",
            "0x000000000000000000000000741f0d8bde14140f62107fc60a0ee122b37d4630"
          ],
          "data": "0x000000000000000000000000000000000000000000000000000000000000762f00000000000000000000000000000000000000000000000000005af3107a400000000000000000000000000000000000000000000000000000005af3107a4000",
          "blockHash": "0x1d1287f23a1f0c374341770c4c172e1ffa8b8e68c3910360ef49acfc6de9b8fd",
          "blockNumber": "0x2e0f71",
          "blockTimestamp": "0x68e6ac0f",
          "transactionHash": "0x471c3e82207816dcab7657ee9b2e7b9b8eb3727f7a4edf0492fd52c49feb4200",
          "transactionIndex": "0x14",
          "logIndex": "0x19",
          "removed": false
        },
        {
          "address": "0x80eede496655fb9047dd39d9f418d5483ed600df",
          "topics": [
            "0xddf252ad1be2c89b69c2b068fc378daa952ba7f163c4a11628f55a4df523b3ef",
            "0x000000000000000000000000741f0d8bde14140f62107fc60a0ee122b37d4630",
            "0x0000000000000000000000000000000000000000000000000000000000000000"
          ],
          "data": "0x00000000000000000000000000000000000000000000000000005af3107a4000",
          "blockHash": "0x1d1287f23a1f0c374341770c4c172e1ffa8b8e68c3910360ef49acfc6de9b8fd",
          "blockNumber": "0x2e0f71",
          "blockTimestamp": "0x68e6ac0f",
          "transactionHash": "0x471c3e82207816dcab7657ee9b2e7b9b8eb3727f7a4edf0492fd52c49feb4200",
          "transactionIndex": "0x14",
          "logIndex": "0x1a",
          "removed": false
        },
        {
          "address": "0xc39161c743d0307eb9bcc9fef03eeb9dc4802de7",
          "topics": [
            "0x61ed099e74a97a1d7f8bb0952a88ca8b7b8ebd00c126ea04671f92a81213318a"
          ],
          "data": "0x0000000000000000000000004208d6e27538189bb48e603d6123a94b8abe0a0b000000000000000000000000000000000000000000000000007b0c0c44a1be3e",
          "blockHash": "0x1d1287f23a1f0c374341770c4c172e1ffa8b8e68c3910360ef49acfc6de9b8fd",
          "blockNumber": "0x2e0f71",
          "blockTimestamp": "0x68e6ac0f",
          "transactionHash": "0x471c3e82207816dcab7657ee9b2e7b9b8eb3727f7a4edf0492fd52c49feb4200",
          "transactionIndex": "0x14",
          "logIndex": "0x1b",
          "removed": false
        },
        {
          "address": "0xc39161c743d0307eb9bcc9fef03eeb9dc4802de7",
          "topics": [
            "0x07ea52d82345d6e838192107d8fd7123d9c2ec8e916cd0aad13fd2b60db24644"
          ],
          "data": "0x000000000000000000000000000000000000000000000000000000000000006000000000000000000000000000000000000000000000000000000000000000e0000000000000000000000000000000000000000000000000000000000000010000000000000000000000000000000000000000000000000000000000000000030000000000000000000000000a5a808dc5f9280b26ebe11b356d200e34a48517000000000000000000000000282b3386571f7f794450d5789911a9804fa346b4000000000000000000000000d4ce45957fbcb88b868ad2c759c7db9bc2741e560000000000000000000000000000000000000000000000000000000000000000000000000000000000000000000000000000000000000000000000000000000300000000000000000000000000000000000000000000000000b7526fb4341a7b00000000000000000000000000000000000000000000000000b7526fb4341a7b00000000000000000000000000000000000000000000000000b7526fb4341a7b",
          "blockHash": "0x1d1287f23a1f0c374341770c4c172e1ffa8b8e68c3910360ef49acfc6de9b8fd",
          "blockNumber": "0x2e0f71",
          "blockTimestamp": "0x68e6ac0f",
          "transactionHash": "0x471c3e82207816dcab7657ee9b2e7b9b8eb3727f7a4edf0492fd52c49feb4200",
          "transactionIndex": "0x14",
          "logIndex": "0x1c",
          "removed": false
        },
        {
          "address": "0x6f475642a6e85809b1c36fa62763669b1b48dd5b",
          "topics": [
            "0x1ab700d4ced0c005b164c0f789fd09fcbb0156d4c2041b8a3bfbcd961cd1567f"
          ],
          "data": "0x00000000000000000000000000000000000000000000000000000000000000600000000000000000000000000000000000000000000000000000000000000120000000000000000000000000c39161c743d0307eb9bcc9fef03eeb9dc4802de70000000000000000000000000000000000000000000000000000000000000099010000000000000001000076af00000000000000000000000080eede496655fb9047dd39d9f418d5483ed600df0000762f00000000000000000000000096a394058e2b84a89bac9667b19661ed003cf5d4e0e654b58da9eacd1b943741b1b82268591a1e6f507550d04ce842b31ca03086000000000000000000000000741f0d8bde14140f62107fc60a0ee122b37d4630000000000000006400000000000000000000000000000000000000000000000000000000000000000000000000001600030100110100000000000000000000000000030d4000000000000000000000",
          "blockHash": "0x1d1287f23a1f0c374341770c4c172e1ffa8b8e68c3910360ef49acfc6de9b8fd",
          "blockNumber": "0x2e0f71",
          "blockTimestamp": "0x68e6ac0f",
          "transactionHash": "0x471c3e82207816dcab7657ee9b2e7b9b8eb3727f7a4edf0492fd52c49feb4200",
          "transactionIndex": "0x14",
          "logIndex": "0x1d",
          "removed": false
        },
        {
          "address": "0x80eede496655fb9047dd39d9f418d5483ed600df",
          "topics": [
            "0x85496b760a4b7f8d66384b9df21b381f5d1b1e79f229a47aaf4c232edc2fe59a",
            "0xe0e654b58da9eacd1b943741b1b82268591a1e6f507550d04ce842b31ca03086",
            "0x000000000000000000000000741f0d8bde14140f62107fc60a0ee122b37d4630"
          ],
          "data": "0x000000000000000000000000000000000000000000000000000000000000762f00000000000000000000000000000000000000000000000000005af3107a400000000000000000000000000000000000000000000000000000005af3107a4000",
          "blockHash": "0x1d1287f23a1f0c374341770c4c172e1ffa8b8e68c3910360ef49acfc6de9b8fd",
          "blockNumber": "0x2e0f71",
          "blockTimestamp": "0x68e6ac0f",
          "transactionHash": "0x471c3e82207816dcab7657ee9b2e7b9b8eb3727f7a4edf0492fd52c49feb4200",
          "transactionIndex": "0x14",
          "logIndex": "0x1e",
          "removed": false
        },
        {
          "address": "0x43edd7f3831b08fe70b7555ddd373c8bf65a9050",
          "topics": [
            "0xddf252ad1be2c89b69c2b068fc378daa952ba7f163c4a11628f55a4df523b3ef",
            "0x000000000000000000000000741f0d8bde14140f62107fc60a0ee122b37d4630",
            "0x0000000000000000000000000000000000000000000000000000000000000000"
          ],
          "data": "0x00000000000000000000000000000000000000000000000000005af3107a4000",
          "blockHash": "0x1d1287f23a1f0c374341770c4c172e1ffa8b8e68c3910360ef49acfc6de9b8fd",
          "blockNumber": "0x2e0f71",
          "blockTimestamp": "0x68e6ac0f",
          "transactionHash": "0x471c3e82207816dcab7657ee9b2e7b9b8eb3727f7a4edf0492fd52c49feb4200",
          "transactionIndex": "0x14",
          "logIndex": "0x1f",
          "removed": false
        },
        {
          "address": "0xc39161c743d0307eb9bcc9fef03eeb9dc4802de7",
          "topics": [
            "0x61ed099e74a97a1d7f8bb0952a88ca8b7b8ebd00c126ea04671f92a81213318a"
          ],
          "data": "0x0000000000000000000000004208d6e27538189bb48e603d6123a94b8abe0a0b000000000000000000000000000000000000000000000000007b0c0c44a1be3e",
          "blockHash": "0x1d1287f23a1f0c374341770c4c172e1ffa8b8e68c3910360ef49acfc6de9b8fd",
          "blockNumber": "0x2e0f71",
          "blockTimestamp": "0x68e6ac0f",
          "transactionHash": "0x471c3e82207816dcab7657ee9b2e7b9b8eb3727f7a4edf0492fd52c49feb4200",
          "transactionIndex": "0x14",
          "logIndex": "0x20",
          "removed": false
        },
        {
          "address": "0xc39161c743d0307eb9bcc9fef03eeb9dc4802de7",
          "topics": [
            "0x07ea52d82345d6e838192107d8fd7123d9c2ec8e916cd0aad13fd2b60db24644"
          ],
          "data": "0x000000000000000000000000000000000000000000000000000000000000006000000000000000000000000000000000000000000000000000000000000000e0000000000000000000000000000000000000000000000000000000000000010000000000000000000000000000000000000000000000000000000000000000030000000000000000000000000a5a808dc5f9280b26ebe11b356d200e34a48517000000000000000000000000282b3386571f7f794450d5789911a9804fa346b4000000000000000000000000d4ce45957fbcb88b868ad2c759c7db9bc2741e560000000000000000000000000000000000000000000000000000000000000000000000000000000000000000000000000000000000000000000000000000000300000000000000000000000000000000000000000000000000b7526fb4341a7b00000000000000000000000000000000000000000000000000b7526fb4341a7b00000000000000000000000000000000000000000000000000b7526fb4341a7b",
          "blockHash": "0x1d1287f23a1f0c374341770c4c172e1ffa8b8e68c3910360ef49acfc6de9b8fd",
          "blockNumber": "0x2e0f71",
          "blockTimestamp": "0x68e6ac0f",
          "transactionHash": "0x471c3e82207816dcab7657ee9b2e7b9b8eb3727f7a4edf0492fd52c49feb4200",
          "transactionIndex": "0x14",
          "logIndex": "0x21",
          "removed": false
        },
        {
          "address": "0x6f475642a6e85809b1c36fa62763669b1b48dd5b",
          "topics": [
            "0x1ab700d4ced0c005b164c0f789fd09fcbb0156d4c2041b8a3bfbcd961cd1567f"
          ],
          "data": "0x00000000000000000000000000000000000000000000000000000000000000600000000000000000000000000000000000000000000000000000000000000120000000000000000000000000c39161c743d0307eb9bcc9fef03eeb9dc4802de70000000000000000000000000000000000000000000000000000000000000099010000000000000001000076af00000000000000000000000043edd7f3831b08fe70b7555ddd373c8bf65a90500000762f0000000000000000000000009abfe1f8a999b0011ecd6116649aee8d575f5604c31be25c365eb410fdc2332c58fb32e3ca3eebfb9379e585b8daeac254241b89000000000000000000000000741f0d8bde14140f62107fc60a0ee122b37d4630000000000000006400000000000000000000000000000000000000000000000000000000000000000000000000001600030100110100000000000000000000000000030d4000000000000000000000",
          "blockHash": "0x1d1287f23a1f0c374341770c4c172e1ffa8b8e68c3910360ef49acfc6de9b8fd",
          "blockNumber": "0x2e0f71",
          "blockTimestamp": "0x68e6ac0f",
          "transactionHash": "0x471c3e82207816dcab7657ee9b2e7b9b8eb3727f7a4edf0492fd52c49feb4200",
          "transactionIndex": "0x14",
          "logIndex": "0x22",
          "removed": false
        },
        {
          "address": "0x43edd7f3831b08fe70b7555ddd373c8bf65a9050",
          "topics": [
            "0x85496b760a4b7f8d66384b9df21b381f5d1b1e79f229a47aaf4c232edc2fe59a",
            "0xc31be25c365eb410fdc2332c58fb32e3ca3eebfb9379e585b8daeac254241b89",
            "0x000000000000000000000000741f0d8bde14140f62107fc60a0ee122b37d4630"
          ],
          "data": "0x000000000000000000000000000000000000000000000000000000000000762f00000000000000000000000000000000000000000000000000005af3107a400000000000000000000000000000000000000000000000000000005af3107a4000",
          "blockHash": "0x1d1287f23a1f0c374341770c4c172e1ffa8b8e68c3910360ef49acfc6de9b8fd",
          "blockNumber": "0x2e0f71",
          "blockTimestamp": "0x68e6ac0f",
          "transactionHash": "0x471c3e82207816dcab7657ee9b2e7b9b8eb3727f7a4edf0492fd52c49feb4200",
          "transactionIndex": "0x14",
          "logIndex": "0x23",
          "removed": false
        },
        {
          "address": "0x90581eca9469d8d7f5d3b60f4715027adfcf7927",
          "topics": [
            "0xddf252ad1be2c89b69c2b068fc378daa952ba7f163c4a11628f55a4df523b3ef",
            "0x000000000000000000000000741f0d8bde14140f62107fc60a0ee122b37d4630",
            "0x0000000000000000000000000000000000000000000000000000000000000000"
          ],
          "data": "0x00000000000000000000000000000000000000000000000000005af3107a4000",
          "blockHash": "0x1d1287f23a1f0c374341770c4c172e1ffa8b8e68c3910360ef49acfc6de9b8fd",
          "blockNumber": "0x2e0f71",
          "blockTimestamp": "0x68e6ac0f",
          "transactionHash": "0x471c3e82207816dcab7657ee9b2e7b9b8eb3727f7a4edf0492fd52c49feb4200",
          "transactionIndex": "0x14",
          "logIndex": "0x24",
          "removed": false
        },
        {
          "address": "0xc39161c743d0307eb9bcc9fef03eeb9dc4802de7",
          "topics": [
            "0x61ed099e74a97a1d7f8bb0952a88ca8b7b8ebd00c126ea04671f92a81213318a"
          ],
          "data": "0x0000000000000000000000004208d6e27538189bb48e603d6123a94b8abe0a0b000000000000000000000000000000000000000000000000007b0c0c44a1be3e",
          "blockHash": "0x1d1287f23a1f0c374341770c4c172e1ffa8b8e68c3910360ef49acfc6de9b8fd",
          "blockNumber": "0x2e0f71",
          "blockTimestamp": "0x68e6ac0f",
          "transactionHash": "0x471c3e82207816dcab7657ee9b2e7b9b8eb3727f7a4edf0492fd52c49feb4200",
          "transactionIndex": "0x14",
          "logIndex": "0x25",
          "removed": false
        },
        {
          "address": "0xc39161c743d0307eb9bcc9fef03eeb9dc4802de7",
          "topics": [
            "0x07ea52d82345d6e838192107d8fd7123d9c2ec8e916cd0aad13fd2b60db24644"
          ],
          "data": "0x000000000000000000000000000000000000000000000000000000000000006000000000000000000000000000000000000000000000000000000000000000e0000000000000000000000000000000000000000000000000000000000000010000000000000000000000000000000000000000000000000000000000000000030000000000000000000000000a5a808dc5f9280b26ebe11b356d200e34a48517000000000000000000000000282b3386571f7f794450d5789911a9804fa346b4000000000000000000000000d4ce45957fbcb88b868ad2c759c7db9bc2741e560000000000000000000000000000000000000000000000000000000000000000000000000000000000000000000000000000000000000000000000000000000300000000000000000000000000000000000000000000000000b7526fb4341a7b00000000000000000000000000000000000000000000000000b7526fb4341a7b00000000000000000000000000000000000000000000000000b7526fb4341a7b",
          "blockHash": "0x1d1287f23a1f0c374341770c4c172e1ffa8b8e68c3910360ef49acfc6de9b8fd",
          "blockNumber": "0x2e0f71",
          "blockTimestamp": "0x68e6ac0f",
          "transactionHash": "0x471c3e82207816dcab7657ee9b2e7b9b8eb3727f7a4edf0492fd52c49feb4200",
          "transactionIndex": "0x14",
          "logIndex": "0x26",
          "removed": false
        },
        {
          "address": "0x6f475642a6e85809b1c36fa62763669b1b48dd5b",
          "topics": [
            "0x1ab700d4ced0c005b164c0f789fd09fcbb0156d4c2041b8a3bfbcd961cd1567f"
          ],
          "data": "0x00000000000000000000000000000000000000000000000000000000000000600000000000000000000000000000000000000000000000000000000000000120000000000000000000000000c39161c743d0307eb9bcc9fef03eeb9dc4802de70000000000000000000000000000000000000000000000000000000000000099010000000000000001000076af00000000000000000000000090581eca9469d8d7f5d3b60f4715027adfcf79270000762f00000000000000000000000075c38d46001b0f8108c4136216bd2694982c20fc97b4ea1db2f77c7a61a0242c5da4a24662215ab0b2f14dca358190900638c0d9000000000000000000000000741f0d8bde14140f62107fc60a0ee122b37d4630000000000000006400000000000000000000000000000000000000000000000000000000000000000000000000001600030100110100000000000000000000000000030d4000000000000000000000",
          "blockHash": "0x1d1287f23a1f0c374341770c4c172e1ffa8b8e68c3910360ef49acfc6de9b8fd",
          "blockNumber": "0x2e0f71",
          "blockTimestamp": "0x68e6ac0f",
          "transactionHash": "0x471c3e82207816dcab7657ee9b2e7b9b8eb3727f7a4edf0492fd52c49feb4200",
          "transactionIndex": "0x14",
          "logIndex": "0x27",
          "removed": false
        },
        {
          "address": "0x90581eca9469d8d7f5d3b60f4715027adfcf7927",
          "topics": [
            "0x85496b760a4b7f8d66384b9df21b381f5d1b1e79f229a47aaf4c232edc2fe59a",
            "0x97b4ea1db2f77c7a61a0242c5da4a24662215ab0b2f14dca358190900638c0d9",
            "0x000000000000000000000000741f0d8bde14140f62107fc60a0ee122b37d4630"
          ],
          "data": "0x000000000000000000000000000000000000000000000000000000000000762f00000000000000000000000000000000000000000000000000005af3107a400000000000000000000000000000000000000000000000000000005af3107a4000",
          "blockHash": "0x1d1287f23a1f0c374341770c4c172e1ffa8b8e68c3910360ef49acfc6de9b8fd",
          "blockNumber": "0x2e0f71",
          "blockTimestamp": "0x68e6ac0f",
          "transactionHash": "0x471c3e82207816dcab7657ee9b2e7b9b8eb3727f7a4edf0492fd52c49feb4200",
          "transactionIndex": "0x14",
          "logIndex": "0x28",
          "removed": false
        }
      ],
      "logsBloom": "0x00100200000000000000000000012040000001000000000000000000000000800000000000000100000000000800000000000100000000000400000200000000002002000000000000000008000000000140000000000000000000000000000000800000020000008020000000000801000000000000002000000010010000000000000000800004000010080020000000000000000020001040000000000000000000008000001002180008000000000000000000400000000440004010000000000002000000000000000080000000000000800000000000000000000020004001040000000000000000040000002000400018008000000000000000080800",
      "type": "0x2",
      "transactionHash": "0x471c3e82207816dcab7657ee9b2e7b9b8eb3727f7a4edf0492fd52c49feb4200",
      "transactionIndex": "0x14",
      "blockHash": "0x1d1287f23a1f0c374341770c4c172e1ffa8b8e68c3910360ef49acfc6de9b8fd",
      "blockNumber": "0x2e0f71",
      "gasUsed": "0x1acb50",
      "effectiveGasPrice": "0x239a",
      "from": "0x45dce8e4f2dc005a5f28206a46cb034697eeda8e",
      "to": "0x741f0d8bde14140f62107fc60a0ee122b37d4630",
      "contractAddress": null
    }
  ],
  "libraries": [],
  "pending": [],
  "returns": {},
  "timestamp": 1759947792808,
  "chain": 9745,
  "commit": "b989277"
}