{
  "transactions": [
    {
      "hash": "0xc4d2fd925ec182e8c2213a0483021dcbf1441e0bdd5206f0aacece356b7c2bca",
      "transactionType": "CALL",
      "contractName": null,
      "contractAddress": "0x741f0d8bde14140f62107fc60a0ee122b37d4630",
      "function": "batchBridgeWithEthFeeFromWallet((uint32,bytes32,uint256,uint256,bytes,bytes,bytes)[],address[],address[])",
      "arguments": [
        "[(30370, 0x000000000000000000000000741f0d8bde14140f62107fc60a0ee122b37d4630, 1000000000000000000, 0, 0x, 0x, 0x)]",
        "[0x57558Cb8d6005DE0BAe8a2789d5EfaaE52dba5a8]",
        "[0x741F0d8Bde14140f62107FC60A0EE122B37D4630]"
      ],
      "transaction": {
        "from": "0x45dce8e4f2dc005a5f28206a46cb034697eeda8e",
        "to": "0x741f0d8bde14140f62107fc60a0ee122b37d4630",
        "gas": "0x95056",
        "value": "0x168ca7d38ea7",
        "input": "0xb70d4241000000000000000000000000000000000000000000000000000000000000006000000000000000000000000000000000000000000000000000000000000001e000000000000000000000000000000000000000000000000000000000000002200000000000000000000000000000000000000000000000000000000000000001000000000000000000000000000000000000000000000000000000000000002000000000000000000000000000000000000000000000000000000000000076a2000000000000000000000000741f0d8bde14140f62107fc60a0ee122b37d46300000000000000000000000000000000000000000000000000de0b6b3a7640000000000000000000000000000000000000000000000000000000000000000000000000000000000000000000000000000000000000000000000000000000000e000000000000000000000000000000000000000000000000000000000000001000000000000000000000000000000000000000000000000000000000000000120000000000000000000000000000000000000000000000000000000000000000000000000000000000000000000000000000000000000000000000000000000000000000000000000000000000000000000000000000000000000000000000000000000000000000000000000000000000000000000000000000000000000000100000000000000000000000057558cb8d6005de0bae8a2789d5efaae52dba5a80000000000000000000000000000000000000000000000000000000000000001000000000000000000000000741f0d8bde14140f62107fc60a0ee122b37d4630",
        "nonce": "0x93",
        "chainId": "0xa"
      },
      "additionalContracts": [],
      "isFixedGasLimit": false
    }
  ],
  "receipts": [
    {
      "status": "0x1",
      "cumulativeGasUsed": "0xe0e69f",
      "logs": [
        {
          "address": "0x57558cb8d6005de0bae8a2789d5efaae52dba5a8",
          "topics": [
            "0xddf252ad1be2c89b69c2b068fc378daa952ba7f163c4a11628f55a4df523b3ef",
            "0x000000000000000000000000741f0d8bde14140f62107fc60a0ee122b37d4630",
            "0x0000000000000000000000000000000000000000000000000000000000000000"
          ],
          "data": "0x0000000000000000000000000000000000000000000000000de0b6b3a7640000",
          "blockHash": "0xe1974fee5d2e79bc2eb4cb977d7e9d874c454e3021f697605116dcc3c47c8995",
          "blockNumber": "0x8436cdf",
          "transactionHash": "0xc4d2fd925ec182e8c2213a0483021dcbf1441e0bdd5206f0aacece356b7c2bca",
          "transactionIndex": "0x18",
          "logIndex": "0xf0",
          "removed": false
        },
        {
          "address": "0x1322871e4ab09bc7f5717189434f97bbd9546e95",
          "topics": [
            "0x61ed099e74a97a1d7f8bb0952a88ca8b7b8ebd00c126ea04671f92a81213318a"
          ],
          "data": "0x0000000000000000000000002d2ea0697bdbede3f01553d2ae4b8d0c486b666e00000000000000000000000000000000000000000000000000000d7389dc9b49",
          "blockHash": "0xe1974fee5d2e79bc2eb4cb977d7e9d874c454e3021f697605116dcc3c47c8995",
          "blockNumber": "0x8436cdf",
          "transactionHash": "0xc4d2fd925ec182e8c2213a0483021dcbf1441e0bdd5206f0aacece356b7c2bca",
          "transactionIndex": "0x18",
          "logIndex": "0xf1",
          "removed": false
        },
        {
          "address": "0x1322871e4ab09bc7f5717189434f97bbd9546e95",
          "topics": [
            "0x07ea52d82345d6e838192107d8fd7123d9c2ec8e916cd0aad13fd2b60db24644"
          ],
          "data": "0x000000000000000000000000000000000000000000000000000000000000006000000000000000000000000000000000000000000000000000000000000000e0000000000000000000000000000000000000000000000000000000000000010000000000000000000000000000000000000000000000000000000000000000030000000000000000000000006a02d83e8d433304bba74ef1c4279139581871420000000000000000000000007240264781aa2f97cb994c6231297a86064832420000000000000000000000009e930731cb4a6bf7ecc11f695a295c60bdd212eb00000000000000000000000000000000000000000000000000000000000000000000000000000000000000000000000000000000000000000000000000000003000000000000000000000000000000000000000000000000000002fda4c409130000000000000000000000000000000000000000000000000000031dd46ee138000000000000000000000000000000000000000000000000000002fda4c40913",
          "blockHash": "0xe1974fee5d2e79bc2eb4cb977d7e9d874c454e3021f697605116dcc3c47c8995",
          "blockNumber": "0x8436cdf",
          "transactionHash": "0xc4d2fd925ec182e8c2213a0483021dcbf1441e0bdd5206f0aacece356b7c2bca",
          "transactionIndex": "0x18",
          "logIndex": "0xf2",
          "removed": false
        },
        {
          "address": "0x1a44076050125825900e736c501f859c50fe728c",
          "topics": [
            "0x1ab700d4ced0c005b164c0f789fd09fcbb0156d4c2041b8a3bfbcd961cd1567f"
          ],
          "data": "0x000000000000000000000000000000000000000000000000000000000000006000000000000000000000000000000000000000000000000000000000000001200000000000000000000000001322871e4ab09bc7f5717189434f97bbd9546e9500000000000000000000000000000000000000000000000000000000000000990100000000000000010000759f00000000000000000000000057558cb8d6005de0bae8a2789d5efaae52dba5a8000076a200000000000000000000000057558cb8d6005de0bae8a2789d5efaae52dba5a85fa2599a912de318052360ed23e5730ed65b73f979e0a36c515bddbf2f68d607000000000000000000000000741f0d8bde14140f62107fc60a0ee122b37d463000000000000f424000000000000000000000000000000000000000000000000000000000000000000000000000001600030100110100000000000000000000000000030d4000000000000000000000",
          "blockHash": "0xe1974fee5d2e79bc2eb4cb977d7e9d874c454e3021f697605116dcc3c47c8995",
          "blockNumber": "0x8436cdf",
          "transactionHash": "0xc4d2fd925ec182e8c2213a0483021dcbf1441e0bdd5206f0aacece356b7c2bca",
          "transactionIndex": "0x18",
          "logIndex": "0xf3",
          "removed": false
        },
        {
          "address": "0x57558cb8d6005de0bae8a2789d5efaae52dba5a8",
          "topics": [
            "0x85496b760a4b7f8d66384b9df21b381f5d1b1e79f229a47aaf4c232edc2fe59a",
            "0x5fa2599a912de318052360ed23e5730ed65b73f979e0a36c515bddbf2f68d607",
            "0x000000000000000000000000741f0d8bde14140f62107fc60a0ee122b37d4630"
          ],
          "data": "0x00000000000000000000000000000000000000000000000000000000000076a20000000000000000000000000000000000000000000000000de0b6b3a76400000000000000000000000000000000000000000000000000000de0b6b3a7640000",
          "blockHash": "0xe1974fee5d2e79bc2eb4cb977d7e9d874c454e3021f697605116dcc3c47c8995",
          "blockNumber": "0x8436cdf",
          "transactionHash": "0xc4d2fd925ec182e8c2213a0483021dcbf1441e0bdd5206f0aacece356b7c2bca",
          "transactionIndex": "0x18",
          "logIndex": "0xf4",
          "removed": false
        }
      ],
      "logsBloom": "0x0000000000000000000000000004004000000000000000000000000000100000000000000000000000000000000400040000010000000000000000000000000000000200000000000200000800000000000000000000000000000000000000000000000002000000800000000000080000000000001000000000005000000000000000000000000000000008000080000000000000000000000000000000000000000000a000001000100000000000000000000000400000000440000000000000000002000000000000000080000000000000000000000000000000000020000000040000000000000000000000802000400000018000000000000000000000",
      "type": "0x2",
      "transactionHash": "0xc4d2fd925ec182e8c2213a0483021dcbf1441e0bdd5206f0aacece356b7c2bca",
      "transactionIndex": "0x18",
      "blockHash": "0xe1974fee5d2e79bc2eb4cb977d7e9d874c454e3021f697605116dcc3c47c8995",
      "blockNumber": "0x8436cdf",
      "gasUsed": "0x65e51",
      "effectiveGasPrice": "0x40c9",
      "from": "0x45dce8e4f2dc005a5f28206a46cb034697eeda8e",
      "to": "0x741f0d8bde14140f62107fc60a0ee122b37d4630",
      "contractAddress": null,
      "l1BaseFeeScalar": "0x146b",
      "l1BlobBaseFee": "0x1",
      "l1BlobBaseFeeScalar": "0xf79c5",
      "l1Fee": "0xeab74783e",
      "l1GasPrice": "0x1286f155d",
      "l1GasUsed": "0x977"
    }
  ],
  "libraries": [],
  "pending": [],
  "returns": {},
  "timestamp": 1752871799,
  "chain": 10,
  "commit": "c079579"
}