{
  "transactions": [
    {
      "hash": "0xd8d1fcc116bb84dff7898c46ff775c3d68d529c7f8f648070d1adb4b912c48fa",
      "transactionType": "CALL",
      "contractName": null,
      "contractAddress": "0x741f0d8bde14140f62107fc60a0ee122b37d4630",
      "function": "batchBridgeWithEthFeeFromWallet((uint32,bytes32,uint256,uint256,bytes,bytes,bytes)[],address[],address[])",
      "arguments": [
        "[(30320, 0x000000000000000000000000741f0d8bde14140f62107fc60a0ee122b37d4630, 5000000000000000000, 0, 0x, 0x, 0x)]",
        "[0x57558Cb8d6005DE0BAe8a2789d5EfaaE52dba5a8]",
        "[0x741F0d8Bde14140f62107FC60A0EE122B37D4630]"
      ],
      "transaction": {
        "from": "0x45dce8e4f2dc005a5f28206a46cb034697eeda8e",
        "to": "0x741f0d8bde14140f62107fc60a0ee122b37d4630",
        "gas": "0x95056",
        "value": "0x7f1023142ad",
        "input": "0xb70d4241000000000000000000000000000000000000000000000000000000000000006000000000000000000000000000000000000000000000000000000000000001e00000000000000000000000000000000000000000000000000000000000000220000000000000000000000000000000000000000000000000000000000000000100000000000000000000000000000000000000000000000000000000000000200000000000000000000000000000000000000000000000000000000000007670000000000000000000000000741f0d8bde14140f62107fc60a0ee122b37d46300000000000000000000000000000000000000000000000004563918244f40000000000000000000000000000000000000000000000000000000000000000000000000000000000000000000000000000000000000000000000000000000000e000000000000000000000000000000000000000000000000000000000000001000000000000000000000000000000000000000000000000000000000000000120000000000000000000000000000000000000000000000000000000000000000000000000000000000000000000000000000000000000000000000000000000000000000000000000000000000000000000000000000000000000000000000000000000000000000000000000000000000000000000000000000000000000000100000000000000000000000057558cb8d6005de0bae8a2789d5efaae52dba5a80000000000000000000000000000000000000000000000000000000000000001000000000000000000000000741f0d8bde14140f62107fc60a0ee122b37d4630",
        "nonce": "0x70",
        "chainId": "0xa"
      },
      "additionalContracts": [],
      "isFixedGasLimit": false
    }
  ],
  "receipts": [
    {
      "status": "0x1",
      "cumulativeGasUsed": "0xd679e0",
      "logs": [
        {
          "address": "0x57558cb8d6005de0bae8a2789d5efaae52dba5a8",
          "topics": [
            "0xddf252ad1be2c89b69c2b068fc378daa952ba7f163c4a11628f55a4df523b3ef",
            "0x000000000000000000000000741f0d8bde14140f62107fc60a0ee122b37d4630",
            "0x0000000000000000000000000000000000000000000000000000000000000000"
          ],
          "data": "0x0000000000000000000000000000000000000000000000004563918244f40000",
          "blockHash": "0xa59f82e1bc8181d5672bbe2e248ff97758a9c58e15359f0312ab5d8984c13e09",
          "blockNumber": "0x8307c80",
          "transactionHash": "0xd8d1fcc116bb84dff7898c46ff775c3d68d529c7f8f648070d1adb4b912c48fa",
          "transactionIndex": "0x13",
          "logIndex": "0x319",
          "removed": false
        },
        {
          "address": "0x1322871e4ab09bc7f5717189434f97bbd9546e95",
          "topics": [
            "0x61ed099e74a97a1d7f8bb0952a88ca8b7b8ebd00c126ea04671f92a81213318a"
          ],
          "data": "0x0000000000000000000000002d2ea0697bdbede3f01553d2ae4b8d0c486b666e000000000000000000000000000000000000000000000000000007a69a772bfd",
          "blockHash": "0xa59f82e1bc8181d5672bbe2e248ff97758a9c58e15359f0312ab5d8984c13e09",
          "blockNumber": "0x8307c80",
          "transactionHash": "0xd8d1fcc116bb84dff7898c46ff775c3d68d529c7f8f648070d1adb4b912c48fa",
          "transactionIndex": "0x13",
          "logIndex": "0x31a",
          "removed": false
        },
        {
          "address": "0x1322871e4ab09bc7f5717189434f97bbd9546e95",
          "topics": [
            "0x07ea52d82345d6e838192107d8fd7123d9c2ec8e916cd0aad13fd2b60db24644"
          ],
          "data": "0x000000000000000000000000000000000000000000000000000000000000006000000000000000000000000000000000000000000000000000000000000000e0000000000000000000000000000000000000000000000000000000000000010000000000000000000000000000000000000000000000000000000000000000030000000000000000000000006a02d83e8d433304bba74ef1c4279139581871420000000000000000000000007240264781aa2f97cb994c6231297a86064832420000000000000000000000009e930731cb4a6bf7ecc11f695a295c60bdd212eb000000000000000000000000000000000000000000000000000000000000000000000000000000000000000000000000000000000000000000000000000000030000000000000000000000000000000000000000000000000000001875807390000000000000000000000000000000000000000000000000000000197cb92f900000000000000000000000000000000000000000000000000000001875807390",
          "blockHash": "0xa59f82e1bc8181d5672bbe2e248ff97758a9c58e15359f0312ab5d8984c13e09",
          "blockNumber": "0x8307c80",
          "transactionHash": "0xd8d1fcc116bb84dff7898c46ff775c3d68d529c7f8f648070d1adb4b912c48fa",
          "transactionIndex": "0x13",
          "logIndex": "0x31b",
          "removed": false
        },
        {
          "address": "0x1a44076050125825900e736c501f859c50fe728c",
          "topics": [
            "0x1ab700d4ced0c005b164c0f789fd09fcbb0156d4c2041b8a3bfbcd961cd1567f"
          ],
          "data": "0x000000000000000000000000000000000000000000000000000000000000006000000000000000000000000000000000000000000000000000000000000001200000000000000000000000001322871e4ab09bc7f5717189434f97bbd9546e9500000000000000000000000000000000000000000000000000000000000000990100000000000000010000759f00000000000000000000000057558cb8d6005de0bae8a2789d5efaae52dba5a80000767000000000000000000000000057558cb8d6005de0bae8a2789d5efaae52dba5a860f5b1699157b1532066eff4fc019a1c076b81fa34a2893f042eee6520abf1f5000000000000000000000000741f0d8bde14140f62107fc60a0ee122b37d463000000000004c4b4000000000000000000000000000000000000000000000000000000000000000000000000000001600030100110100000000000000000000000000030d4000000000000000000000",
          "blockHash": "0xa59f82e1bc8181d5672bbe2e248ff97758a9c58e15359f0312ab5d8984c13e09",
          "blockNumber": "0x8307c80",
          "transactionHash": "0xd8d1fcc116bb84dff7898c46ff775c3d68d529c7f8f648070d1adb4b912c48fa",
          "transactionIndex": "0x13",
          "logIndex": "0x31c",
          "removed": false
        },
        {
          "address": "0x57558cb8d6005de0bae8a2789d5efaae52dba5a8",
          "topics": [
            "0x85496b760a4b7f8d66384b9df21b381f5d1b1e79f229a47aaf4c232edc2fe59a",
            "0x60f5b1699157b1532066eff4fc019a1c076b81fa34a2893f042eee6520abf1f5",
            "0x000000000000000000000000741f0d8bde14140f62107fc60a0ee122b37d4630"
          ],
          "data": "0x00000000000000000000000000000000000000000000000000000000000076700000000000000000000000000000000000000000000000004563918244f400000000000000000000000000000000000000000000000000004563918244f40000",
          "blockHash": "0xa59f82e1bc8181d5672bbe2e248ff97758a9c58e15359f0312ab5d8984c13e09",
          "blockNumber": "0x8307c80",
          "transactionHash": "0xd8d1fcc116bb84dff7898c46ff775c3d68d529c7f8f648070d1adb4b912c48fa",
          "transactionIndex": "0x13",
          "logIndex": "0x31d",
          "removed": false
        }
      ],
      "logsBloom": "0x0000000000000000000000000004004000000000000000000000000000100000000000000000000000000000000400040000010000000000000000000000000000000200000000000000000800000000000000000000000000000000000000000000080002000000800000000000080000000000001000000000001000000000000000000000000000000008000080000000000000000000000000000000000000000000a000001000100000000010000000000000400000000440000000000000800002000000000000000080000000000000000000000000000000000020000000040000000000000000000000802000000000018000000000000000000000",
      "type": "0x2",
      "transactionHash": "0xd8d1fcc116bb84dff7898c46ff775c3d68d529c7f8f648070d1adb4b912c48fa",
      "transactionIndex": "0x13",
      "blockHash": "0xa59f82e1bc8181d5672bbe2e248ff97758a9c58e15359f0312ab5d8984c13e09",
      "blockNumber": "0x8307c80",
      "gasUsed": "0x65e51",
      "effectiveGasPrice": "0xf51",
      "from": "0x45dce8e4f2dc005a5f28206a46cb034697eeda8e",
      "to": "0x741f0d8bde14140f62107fc60a0ee122b37d4630",
      "contractAddress": null,
      "l1BaseFeeScalar": "0x146b",
      "l1BlobBaseFee": "0x1",
      "l1BlobBaseFeeScalar": "0xf79c5",
      "l1Fee": "0x1368a51e8",
      "l1GasPrice": "0x18a5fb76",
      "l1GasUsed": "0x96a"
    }
  ],
  "libraries": [],
  "pending": [],
  "returns": {},
  "timestamp": 1750389435,
  "chain": 10,
  "commit": "2171fc2"
}