{
  "transactions": [
    {
      "hash": "0x40162f9e0b331b727582e44a2554b0fcfe871ee65ee2afa04d774da981b92d63",
      "transactionType": "CALL",
      "contractName": null,
      "contractAddress": "0x741f0d8bde14140f62107fc60a0ee122b37d4630",
      "function": "batchBridgeWithEthFeeFromWallet((uint32,bytes32,uint256,uint256,bytes,bytes,bytes)[],address[],address[])",
      "arguments": [
        "[(30375, 0x000000000000000000000000741f0d8bde14140f62107fc60a0ee122b37d4630, 1000000000000000000, 0, 0x, 0x, 0x)]",
        "[0x57558Cb8d6005DE0BAe8a2789d5EfaaE52dba5a8]",
        "[0x741F0d8Bde14140f62107FC60A0EE122B37D4630]"
      ],
      "transaction": {
        "from": "0x45dce8e4f2dc005a5f28206a46cb034697eeda8e",
        "to": "0x741f0d8bde14140f62107fc60a0ee122b37d4630",
        "gas": "0x95056",
        "value": "0x56a1ebb660c",
        "input": "0xb70d4241000000000000000000000000000000000000000000000000000000000000006000000000000000000000000000000000000000000000000000000000000001e000000000000000000000000000000000000000000000000000000000000002200000000000000000000000000000000000000000000000000000000000000001000000000000000000000000000000000000000000000000000000000000002000000000000000000000000000000000000000000000000000000000000076a7000000000000000000000000741f0d8bde14140f62107fc60a0ee122b37d46300000000000000000000000000000000000000000000000000de0b6b3a7640000000000000000000000000000000000000000000000000000000000000000000000000000000000000000000000000000000000000000000000000000000000e000000000000000000000000000000000000000000000000000000000000001000000000000000000000000000000000000000000000000000000000000000120000000000000000000000000000000000000000000000000000000000000000000000000000000000000000000000000000000000000000000000000000000000000000000000000000000000000000000000000000000000000000000000000000000000000000000000000000000000000000000000000000000000000000100000000000000000000000057558cb8d6005de0bae8a2789d5efaae52dba5a80000000000000000000000000000000000000000000000000000000000000001000000000000000000000000741f0d8bde14140f62107fc60a0ee122b37d4630",
        "nonce": "0x9a",
        "chainId": "0xa"
      },
      "additionalContracts": [],
      "isFixedGasLimit": false
    }
  ],
  "receipts": [
    {
      "status": "0x1",
      "cumulativeGasUsed": "0x377111",
      "logs": [
        {
          "address": "0x57558cb8d6005de0bae8a2789d5efaae52dba5a8",
          "topics": [
            "0xddf252ad1be2c89b69c2b068fc378daa952ba7f163c4a11628f55a4df523b3ef",
            "0x000000000000000000000000741f0d8bde14140f62107fc60a0ee122b37d4630",
            "0x0000000000000000000000000000000000000000000000000000000000000000"
          ],
          "data": "0x0000000000000000000000000000000000000000000000000de0b6b3a7640000",
          "blockHash": "0x1d25d6df4209ddc245e800682deb84e130063c237785a72c705a8a84924bca6f",
          "blockNumber": "0x84b8577",
          "transactionHash": "0x40162f9e0b331b727582e44a2554b0fcfe871ee65ee2afa04d774da981b92d63",
          "transactionIndex": "0x10",
          "logIndex": "0x4a",
          "removed": false
        },
        {
          "address": "0x1322871e4ab09bc7f5717189434f97bbd9546e95",
          "topics": [
            "0x61ed099e74a97a1d7f8bb0952a88ca8b7b8ebd00c126ea04671f92a81213318a"
          ],
          "data": "0x0000000000000000000000002d2ea0697bdbede3f01553d2ae4b8d0c486b666e0000000000000000000000000000000000000000000000000000051c1f467e81",
          "blockHash": "0x1d25d6df4209ddc245e800682deb84e130063c237785a72c705a8a84924bca6f",
          "blockNumber": "0x84b8577",
          "transactionHash": "0x40162f9e0b331b727582e44a2554b0fcfe871ee65ee2afa04d774da981b92d63",
          "transactionIndex": "0x10",
          "logIndex": "0x4b",
          "removed": false
        },
        {
          "address": "0x1322871e4ab09bc7f5717189434f97bbd9546e95",
          "topics": [
            "0x07ea52d82345d6e838192107d8fd7123d9c2ec8e916cd0aad13fd2b60db24644"
          ],
          "data": "0x000000000000000000000000000000000000000000000000000000000000006000000000000000000000000000000000000000000000000000000000000000e0000000000000000000000000000000000000000000000000000000000000010000000000000000000000000000000000000000000000000000000000000000030000000000000000000000006a02d83e8d433304bba74ef1c4279139581871420000000000000000000000007240264781aa2f97cb994c6231297a8606483242000000000000000000000000a7b5189bca84cd304d8553977c7c614329750d990000000000000000000000000000000000000000000000000000000000000000000000000000000000000000000000000000000000000000000000000000000300000000000000000000000000000000000000000000000000000019bddc4a220000000000000000000000000000000000000000000000000000001ad2e2bd56000000000000000000000000000000000000000000000000000000196eb5e013",
          "blockHash": "0x1d25d6df4209ddc245e800682deb84e130063c237785a72c705a8a84924bca6f",
          "blockNumber": "0x84b8577",
          "transactionHash": "0x40162f9e0b331b727582e44a2554b0fcfe871ee65ee2afa04d774da981b92d63",
          "transactionIndex": "0x10",
          "logIndex": "0x4c",
          "removed": false
        },
        {
          "address": "0x1a44076050125825900e736c501f859c50fe728c",
          "topics": [
            "0x1ab700d4ced0c005b164c0f789fd09fcbb0156d4c2041b8a3bfbcd961cd1567f"
          ],
          "data": "0x000000000000000000000000000000000000000000000000000000000000006000000000000000000000000000000000000000000000000000000000000001200000000000000000000000001322871e4ab09bc7f5717189434f97bbd9546e9500000000000000000000000000000000000000000000000000000000000000990100000000000000010000759f00000000000000000000000057558cb8d6005de0bae8a2789d5efaae52dba5a8000076a700000000000000000000000057558cb8d6005de0bae8a2789d5efaae52dba5a857f5477318b3fc94d861a124252ddedd0d7c94c25e25ee32217c42ed4c2229ce000000000000000000000000741f0d8bde14140f62107fc60a0ee122b37d463000000000000f424000000000000000000000000000000000000000000000000000000000000000000000000000001600030100110100000000000000000000000000030d4000000000000000000000",
          "blockHash": "0x1d25d6df4209ddc245e800682deb84e130063c237785a72c705a8a84924bca6f",
          "blockNumber": "0x84b8577",
          "transactionHash": "0x40162f9e0b331b727582e44a2554b0fcfe871ee65ee2afa04d774da981b92d63",
          "transactionIndex": "0x10",
          "logIndex": "0x4d",
          "removed": false
        },
        {
          "address": "0x57558cb8d6005de0bae8a2789d5efaae52dba5a8",
          "topics": [
            "0x85496b760a4b7f8d66384b9df21b381f5d1b1e79f229a47aaf4c232edc2fe59a",
            "0x57f5477318b3fc94d861a124252ddedd0d7c94c25e25ee32217c42ed4c2229ce",
            "0x000000000000000000000000741f0d8bde14140f62107fc60a0ee122b37d4630"
          ],
          "data": "0x00000000000000000000000000000000000000000000000000000000000076a70000000000000000000000000000000000000000000000000de0b6b3a76400000000000000000000000000000000000000000000000000000de0b6b3a7640000",
          "blockHash": "0x1d25d6df4209ddc245e800682deb84e130063c237785a72c705a8a84924bca6f",
          "blockNumber": "0x84b8577",
          "transactionHash": "0x40162f9e0b331b727582e44a2554b0fcfe871ee65ee2afa04d774da981b92d63",
          "transactionIndex": "0x10",
          "logIndex": "0x4e",
          "removed": false
        }
      ],
      "logsBloom": "0x0000000000000000000000000004004000000000000000000000000000100000000000004000000000000000000400040000010000000000000000000000010000000200000000000000000800000000000000000000000000000000000000000000000002000000800000000000080000000000001000000000001000000000000000000000000000000008000080000000000000000000000000000000000000000000a000001000100000000000000000000000400000000440000000000000000002000000000000000080000010000000000000000000000000000020000000040000000000000000000000802000000000018000000000000000000000",
      "type": "0x2",
      "transactionHash": "0x40162f9e0b331b727582e44a2554b0fcfe871ee65ee2afa04d774da981b92d63",
      "transactionIndex": "0x10",
      "blockHash": "0x1d25d6df4209ddc245e800682deb84e130063c237785a72c705a8a84924bca6f",
      "blockNumber": "0x84b8577",
      "gasUsed": "0x65e51",
      "effectiveGasPrice": "0x1772",
      "from": "0x45dce8e4f2dc005a5f28206a46cb034697eeda8e",
      "to": "0x741f0d8bde14140f62107fc60a0ee122b37d4630",
      "contractAddress": null,
      "l1BaseFeeScalar": "0x146b",
      "l1BlobBaseFee": "0x1",
      "l1BlobBaseFeeScalar": "0xf79c5",
      "l1Fee": "0x7f0ce3261",
      "l1GasPrice": "0xa0753a30",
      "l1GasUsed": "0x977"
    }
  ],
  "libraries": [],
  "pending": [],
  "returns": {},
  "timestamp": 1753932968,
  "chain": 10,
  "commit": "bc2ac99"
}