{
  "transactions": [
    {
      "hash": "0xf1a2fa306e1a722bd94f3b89aa7a9940f563009f76f51e56d67b07eaa8b5d9f1",
      "transactionType": "CALL",
      "contractName": null,
      "contractAddress": "0x741f0d8bde14140f62107fc60a0ee122b37d4630",
      "function": "batchBridgeWithEthFeeFromWallet((uint32,bytes32,uint256,uint256,bytes,bytes,bytes)[],address[],address[])",
      "arguments": [
        "[(30101, 0x000000000000000000000000741f0d8bde14140f62107fc60a0ee122b37d4630, 10000000000000, 0, 0x, 0x, 0x), (30101, 0x000000000000000000000000741f0d8bde14140f62107fc60a0ee122b37d4630, 10000000000000, 0, 0x, 0x, 0x), (30101, 0x000000000000000000000000741f0d8bde14140f62107fc60a0ee122b37d4630, 10000000000000, 0, 0x, 0x, 0x), (30101, 0x000000000000000000000000741f0d8bde14140f62107fc60a0ee122b37d4630, 10000000000000, 0, 0x, 0x, 0x), (30101, 0x000000000000000000000000741f0d8bde14140f62107fc60a0ee122b37d4630, 10000000000000, 0, 0x, 0x, 0x), (30101, 0x000000000000000000000000741f0d8bde14140f62107fc60a0ee122b37d4630, 10000000000000, 0, 0x, 0x, 0x)]",
        "[0x96A394058E2b84A89bac9667B19661Ed003cF5D4, 0x88Aa7854D3b2dAA5e37E7Ce73A1F39669623a361, 0x9aBFE1F8a999B0011ecD6116649AEe8D575F5604, 0x999dfAbe3b1cc2EF66eB032Eea42FeA329bBa168, 0xd86fBBd0c8715d2C1f40e451e5C3514e65E7576A, 0x75c38D46001b0F8108c4136216bd2694982C20FC]",
        "[0x741F0d8Bde14140f62107FC60A0EE122B37D4630, 0x741F0d8Bde14140f62107FC60A0EE122B37D4630, 0x741F0d8Bde14140f62107FC60A0EE122B37D4630, 0x741F0d8Bde14140f62107FC60A0EE122B37D4630, 0x741F0d8Bde14140f62107FC60A0EE122B37D4630, 0x741F0d8Bde14140f62107FC60A0EE122B37D4630]"
      ],
      "transaction": {
        "from": "0x45dce8e4f2dc005a5f28206a46cb034697eeda8e",
        "to": "0x741f0d8bde14140f62107fc60a0ee122b37d4630",
        "gas": "0x23ef7d",
        "value": "0x33033a2132931ea2",
        "input": "0xb70d4241000000000000000000000000000000000000000000000000000000000000006000000000000000000000000000000000000000000000000000000000000008c000000000000000000000000000000000000000000000000000000000000009a0000000000000000000000000000000000000000000000000000000000000000600000000000000000000000000000000000000000000000000000000000000c000000000000000000000000000000000000000000000000000000000000002000000000000000000000000000000000000000000000000000000000000000340000000000000000000000000000000000000000000000000000000000000048000000000000000000000000000000000000000000000000000000000000005c000000000000000000000000000000000000000000000000000000000000007000000000000000000000000000000000000000000000000000000000000007595000000000000000000000000741f0d8bde14140f62107fc60a0ee122b37d4630000000000000000000000000000000000000000000000000000009184e72a000000000000000000000000000000000000000000000000000000000000000000000000000000000000000000000000000000000000000000000000000000000e0000000000000000000000000000000000000000000000000000000000000010000000000000000000000000000000000000000000000000000000000000001200000000000000000000000000000000000000000000000000000000000000000000000000000000000000000000000000000000000000000000000000000000000000000000000000000000000000000000000000000000000000000000000000000000000000000000000000000000000000000000000000000000000007595000000000000000000000000741f0d8bde14140f62107fc60a0ee122b37d4630000000000000000000000000000000000000000000000000000009184e72a000000000000000000000000000000000000000000000000000000000000000000000000000000000000000000000000000000000000000000000000000000000e0000000000000000000000000000000000000000000000000000000000000010000000000000000000000000000000000000000000000000000000000000001200000000000000000000000000000000000000000000000000000000000000000000000000000000000000000000000000000000000000000000000000000000000000000000000000000000000000000000000000000000000000000000000000000000000000000000000000000000000000000000000000000000000007595000000000000000000000000741f0d8bde14140f62107fc60a0ee122b37d4630000000000000000000000000000000000000000000000000000009184e72a000000000000000000000000000000000000000000000000000000000000000000000000000000000000000000000000000000000000000000000000000000000e0000000000000000000000000000000000000000000000000000000000000010000000000000000000000000000000000000000000000000000000000000001200000000000000000000000000000000000000000000000000000000000000000000000000000000000000000000000000000000000000000000000000000000000000000000000000000000000000000000000000000000000000000000000000000000000000000000000000000000000000000000000000000000000007595000000000000000000000000741f0d8bde14140f62107fc60a0ee122b37d4630000000000000000000000000000000000000000000000000000009184e72a000000000000000000000000000000000000000000000000000000000000000000000000000000000000000000000000000000000000000000000000000000000e0000000000000000000000000000000000000000000000000000000000000010000000000000000000000000000000000000000000000000000000000000001200000000000000000000000000000000000000000000000000000000000000000000000000000000000000000000000000000000000000000000000000000000000000000000000000000000000000000000000000000000000000000000000000000000000000000000000000000000000000000000000000000000000007595000000000000000000000000741f0d8bde14140f62107fc60a0ee122b37d4630000000000000000000000000000000000000000000000000000009184e72a000000000000000000000000000000000000000000000000000000000000000000000000000000000000000000000000000000000000000000000000000000000e0000000000000000000000000000000000000000000000000000000000000010000000000000000000000000000000000000000000000000000000000000001200000000000000000000000000000000000000000000000000000000000000000000000000000000000000000000000000000000000000000000000000000000000000000000000000000000000000000000000000000000000000000000000000000000000000000000000000000000000000000000000000000000000007595000000000000000000000000741f0d8bde14140f62107fc60a0ee122b37d4630000000000000000000000000000000000000000000000000000009184e72a000000000000000000000000000000000000000000000000000000000000000000000000000000000000000000000000000000000000000000000000000000000e000000000000000000000000000000000000000000000000000000000000001000000000000000000000000000000000000000000000000000000000000000120000000000000000000000000000000000000000000000000000000000000000000000000000000000000000000000000000000000000000000000000000000000000000000000000000000000000000000000000000000000000000000000000000000000000000000000000000000000000000000000000000000000000000600000000000000000000000096a394058e2b84a89bac9667b19661ed003cf5d400000000000000000000000088aa7854d3b2daa5e37e7ce73a1f39669623a3610000000000000000000000009abfe1f8a999b0011ecd6116649aee8d575f5604000000000000000000000000999dfabe3b1cc2ef66eb032eea42fea329bba168000000000000000000000000d86fbbd0c8715d2c1f40e451e5c3514e65e7576a00000000000000000000000075c38d46001b0f8108c4136216bd2694982c20fc0000000000000000000000000000000000000000000000000000000000000006000000000000000000000000741f0d8bde14140f62107fc60a0ee122b37d4630000000000000000000000000741f0d8bde14140f62107fc60a0ee122b37d4630000000000000000000000000741f0d8bde14140f62107fc60a0ee122b37d4630000000000000000000000000741f0d8bde14140f62107fc60a0ee122b37d4630000000000000000000000000741f0d8bde14140f62107fc60a0ee122b37d4630000000000000000000000000741f0d8bde14140f62107fc60a0ee122b37d4630",
        "nonce": "0xb9",
        "chainId": "0xfc"
      },
      "additionalContracts": [],
      "isFixedGasLimit": false
    }
  ],
  "receipts": [
    {
      "status": "0x1",
      "cumulativeGasUsed": "0x1ab841",
      "logs": [
        {
          "address": "0xfc00000000000000000000000000000000000001",
          "topics": [
            "0xddf252ad1be2c89b69c2b068fc378daa952ba7f163c4a11628f55a4df523b3ef",
            "0x000000000000000000000000741f0d8bde14140f62107fc60a0ee122b37d4630",
            "0x00000000000000000000000096a394058e2b84a89bac9667b19661ed003cf5d4"
          ],
          "data": "0x000000000000000000000000000000000000000000000000000009184e72a000",
          "blockHash": "0x86e7be8e9c60bf3f3add0730dd1df1b283005df48cd5e301e533dd216c5a1cd6",
          "blockNumber": "0x16b4aef",
          "transactionHash": "0xf1a2fa306e1a722bd94f3b89aa7a9940f563009f76f51e56d67b07eaa8b5d9f1",
          "transactionIndex": "0x1",
          "logIndex": "0x0",
          "removed": false
        },
        {
          "address": "0x377530cda84dfb2673bf4d145dcf0c4d7fdcb5b6",
          "topics": [
            "0x61ed099e74a97a1d7f8bb0952a88ca8b7b8ebd00c126ea04671f92a81213318a"
          ],
          "data": "0x00000000000000000000000041bdb4aa4a63a5b2efc531858d3118392b1a1c3d00000000000000000000000000000000000000000000000004b851860ad0b25d",
          "blockHash": "0x86e7be8e9c60bf3f3add0730dd1df1b283005df48cd5e301e533dd216c5a1cd6",
          "blockNumber": "0x16b4aef",
          "transactionHash": "0xf1a2fa306e1a722bd94f3b89aa7a9940f563009f76f51e56d67b07eaa8b5d9f1",
          "transactionIndex": "0x1",
          "logIndex": "0x1",
          "removed": false
        },
        {
          "address": "0x377530cda84dfb2673bf4d145dcf0c4d7fdcb5b6",
          "topics": [
            "0x07ea52d82345d6e838192107d8fd7123d9c2ec8e916cd0aad13fd2b60db24644"
          ],
          "data": "0x000000000000000000000000000000000000000000000000000000000000006000000000000000000000000000000000000000000000000000000000000000e00000000000000000000000000000000000000000000000000000000000000100000000000000000000000000000000000000000000000000000000000000000300000000000000000000000026cd5abadf7ec3f0f02b48314bfca6b2342cddd4000000000000000000000000cce466a522984415bc91338c232d98869193d46e000000000000000000000000dd7b5e1db4aafd5c8ec3b764efb8ed265aa5445b0000000000000000000000000000000000000000000000000000000000000000000000000000000000000000000000000000000000000000000000000000000300000000000000000000000000000000000000000000000001499e221cbf9832000000000000000000000000000000000000000000000000013f4d0405c41d46000000000000000000000000000000000000000000000000013f4d0405c41d46",
          "blockHash": "0x86e7be8e9c60bf3f3add0730dd1df1b283005df48cd5e301e533dd216c5a1cd6",
          "blockNumber": "0x16b4aef",
          "transactionHash": "0xf1a2fa306e1a722bd94f3b89aa7a9940f563009f76f51e56d67b07eaa8b5d9f1",
          "transactionIndex": "0x1",
          "logIndex": "0x2",
          "removed": false
        },
        {
          "address": "0x1a44076050125825900e736c501f859c50fe728c",
          "topics": [
            "0x1ab700d4ced0c005b164c0f789fd09fcbb0156d4c2041b8a3bfbcd961cd1567f"
          ],
          "data": "0x00000000000000000000000000000000000000000000000000000000000000600000000000000000000000000000000000000000000000000000000000000120000000000000000000000000377530cda84dfb2673bf4d145dcf0c4d7fdcb5b600000000000000000000000000000000000000000000000000000000000000990100000000000004360000762f00000000000000000000000096a394058e2b84a89bac9667b19661ed003cf5d400007595000000000000000000000000566a6442a5a6e9895b9dca97cc7879d632c6e4b049e29d0e40539135dc8092674875e047564d0a68281f60644bd17bf24b2d0ad1000000000000000000000000741f0d8bde14140f62107fc60a0ee122b37d4630000000000000000a00000000000000000000000000000000000000000000000000000000000000000000000000001600030100110100000000000000000000000000030d4000000000000000000000",
          "blockHash": "0x86e7be8e9c60bf3f3add0730dd1df1b283005df48cd5e301e533dd216c5a1cd6",
          "blockNumber": "0x16b4aef",
          "transactionHash": "0xf1a2fa306e1a722bd94f3b89aa7a9940f563009f76f51e56d67b07eaa8b5d9f1",
          "transactionIndex": "0x1",
          "logIndex": "0x3",
          "removed": false
        },
        {
          "address": "0x96a394058e2b84a89bac9667b19661ed003cf5d4",
          "topics": [
            "0x85496b760a4b7f8d66384b9df21b381f5d1b1e79f229a47aaf4c232edc2fe59a",
            "0x49e29d0e40539135dc8092674875e047564d0a68281f60644bd17bf24b2d0ad1",
            "0x000000000000000000000000741f0d8bde14140f62107fc60a0ee122b37d4630"
          ],
          "data": "0x0000000000000000000000000000000000000000000000000000000000007595000000000000000000000000000000000000000000000000000009184e72a000000000000000000000000000000000000000000000000000000009184e72a000",
          "blockHash": "0x86e7be8e9c60bf3f3add0730dd1df1b283005df48cd5e301e533dd216c5a1cd6",
          "blockNumber": "0x16b4aef",
          "transactionHash": "0xf1a2fa306e1a722bd94f3b89aa7a9940f563009f76f51e56d67b07eaa8b5d9f1",
          "transactionIndex": "0x1",
          "logIndex": "0x4",
          "removed": false
        },
        {
          "address": "0xfc00000000000000000000000000000000000008",
          "topics": [
            "0xddf252ad1be2c89b69c2b068fc378daa952ba7f163c4a11628f55a4df523b3ef",
            "0x000000000000000000000000741f0d8bde14140f62107fc60a0ee122b37d4630",
            "0x00000000000000000000000088aa7854d3b2daa5e37e7ce73a1f39669623a361"
          ],
          "data": "0x000000000000000000000000000000000000000000000000000009184e72a000",
          "blockHash": "0x86e7be8e9c60bf3f3add0730dd1df1b283005df48cd5e301e533dd216c5a1cd6",
          "blockNumber": "0x16b4aef",
          "transactionHash": "0xf1a2fa306e1a722bd94f3b89aa7a9940f563009f76f51e56d67b07eaa8b5d9f1",
          "transactionIndex": "0x1",
          "logIndex": "0x5",
          "removed": false
        },
        {
          "address": "0x377530cda84dfb2673bf4d145dcf0c4d7fdcb5b6",
          "topics": [
            "0x61ed099e74a97a1d7f8bb0952a88ca8b7b8ebd00c126ea04671f92a81213318a"
          ],
          "data": "0x00000000000000000000000041bdb4aa4a63a5b2efc531858d3118392b1a1c3d00000000000000000000000000000000000000000000000004b851860ad0b25d",
          "blockHash": "0x86e7be8e9c60bf3f3add0730dd1df1b283005df48cd5e301e533dd216c5a1cd6",
          "blockNumber": "0x16b4aef",
          "transactionHash": "0xf1a2fa306e1a722bd94f3b89aa7a9940f563009f76f51e56d67b07eaa8b5d9f1",
          "transactionIndex": "0x1",
          "logIndex": "0x6",
          "removed": false
        },
        {
          "address": "0x377530cda84dfb2673bf4d145dcf0c4d7fdcb5b6",
          "topics": [
            "0x07ea52d82345d6e838192107d8fd7123d9c2ec8e916cd0aad13fd2b60db24644"
          ],
          "data": "0x000000000000000000000000000000000000000000000000000000000000006000000000000000000000000000000000000000000000000000000000000000e00000000000000000000000000000000000000000000000000000000000000100000000000000000000000000000000000000000000000000000000000000000300000000000000000000000026cd5abadf7ec3f0f02b48314bfca6b2342cddd4000000000000000000000000cce466a522984415bc91338c232d98869193d46e000000000000000000000000dd7b5e1db4aafd5c8ec3b764efb8ed265aa5445b0000000000000000000000000000000000000000000000000000000000000000000000000000000000000000000000000000000000000000000000000000000300000000000000000000000000000000000000000000000001499e221cbf9832000000000000000000000000000000000000000000000000013f4d0405c41d46000000000000000000000000000000000000000000000000013f4d0405c41d46",
          "blockHash": "0x86e7be8e9c60bf3f3add0730dd1df1b283005df48cd5e301e533dd216c5a1cd6",
          "blockNumber": "0x16b4aef",
          "transactionHash": "0xf1a2fa306e1a722bd94f3b89aa7a9940f563009f76f51e56d67b07eaa8b5d9f1",
          "transactionIndex": "0x1",
          "logIndex": "0x7",
          "removed": false
        },
        {
          "address": "0x1a44076050125825900e736c501f859c50fe728c",
          "topics": [
            "0x1ab700d4ced0c005b164c0f789fd09fcbb0156d4c2041b8a3bfbcd961cd1567f"
          ],
          "data": "0x00000000000000000000000000000000000000000000000000000000000000600000000000000000000000000000000000000000000000000000000000000120000000000000000000000000377530cda84dfb2673bf4d145dcf0c4d7fdcb5b6000000000000000000000000000000000000000000000000000000000000009901000000000000003d0000762f00000000000000000000000088aa7854d3b2daa5e37e7ce73a1f39669623a361000075950000000000000000000000007311cea93ccf5f4f7b789ee31eba5d9b9290e12665257c30e31ba871a22a060d63c67f6cb5f36b4bf9a302549d5143811253a6e4000000000000000000000000741f0d8bde14140f62107fc60a0ee122b37d4630000000000000000a00000000000000000000000000000000000000000000000000000000000000000000000000001600030100110100000000000000000000000000030d4000000000000000000000",
          "blockHash": "0x86e7be8e9c60bf3f3add0730dd1df1b283005df48cd5e301e533dd216c5a1cd6",
          "blockNumber": "0x16b4aef",
          "transactionHash": "0xf1a2fa306e1a722bd94f3b89aa7a9940f563009f76f51e56d67b07eaa8b5d9f1",
          "transactionIndex": "0x1",
          "logIndex": "0x8",
          "removed": false
        },
        {
          "address": "0x88aa7854d3b2daa5e37e7ce73a1f39669623a361",
          "topics": [
            "0x85496b760a4b7f8d66384b9df21b381f5d1b1e79f229a47aaf4c232edc2fe59a",
            "0x65257c30e31ba871a22a060d63c67f6cb5f36b4bf9a302549d5143811253a6e4",
            "0x000000000000000000000000741f0d8bde14140f62107fc60a0ee122b37d4630"
          ],
          "data": "0x0000000000000000000000000000000000000000000000000000000000007595000000000000000000000000000000000000000000000000000009184e72a000000000000000000000000000000000000000000000000000000009184e72a000",
          "blockHash": "0x86e7be8e9c60bf3f3add0730dd1df1b283005df48cd5e301e533dd216c5a1cd6",
          "blockNumber": "0x16b4aef",
          "transactionHash": "0xf1a2fa306e1a722bd94f3b89aa7a9940f563009f76f51e56d67b07eaa8b5d9f1",
          "transactionIndex": "0x1",
          "logIndex": "0x9",
          "removed": false
        },
        {
          "address": "0xfc00000000000000000000000000000000000006",
          "topics": [
            "0xddf252ad1be2c89b69c2b068fc378daa952ba7f163c4a11628f55a4df523b3ef",
            "0x000000000000000000000000741f0d8bde14140f62107fc60a0ee122b37d4630",
            "0x0000000000000000000000009abfe1f8a999b0011ecd6116649aee8d575f5604"
          ],
          "data": "0x000000000000000000000000000000000000000000000000000009184e72a000",
          "blockHash": "0x86e7be8e9c60bf3f3add0730dd1df1b283005df48cd5e301e533dd216c5a1cd6",
          "blockNumber": "0x16b4aef",
          "transactionHash": "0xf1a2fa306e1a722bd94f3b89aa7a9940f563009f76f51e56d67b07eaa8b5d9f1",
          "transactionIndex": "0x1",
          "logIndex": "0xa",
          "removed": false
        },
        {
          "address": "0x377530cda84dfb2673bf4d145dcf0c4d7fdcb5b6",
          "topics": [
            "0x61ed099e74a97a1d7f8bb0952a88ca8b7b8ebd00c126ea04671f92a81213318a"
          ],
          "data": "0x00000000000000000000000041bdb4aa4a63a5b2efc531858d3118392b1a1c3d00000000000000000000000000000000000000000000000004b851860ad0b25d",
          "blockHash": "0x86e7be8e9c60bf3f3add0730dd1df1b283005df48cd5e301e533dd216c5a1cd6",
          "blockNumber": "0x16b4aef",
          "transactionHash": "0xf1a2fa306e1a722bd94f3b89aa7a9940f563009f76f51e56d67b07eaa8b5d9f1",
          "transactionIndex": "0x1",
          "logIndex": "0xb",
          "removed": false
        },
        {
          "address": "0x377530cda84dfb2673bf4d145dcf0c4d7fdcb5b6",
          "topics": [
            "0x07ea52d82345d6e838192107d8fd7123d9c2ec8e916cd0aad13fd2b60db24644"
          ],
          "data": "0x000000000000000000000000000000000000000000000000000000000000006000000000000000000000000000000000000000000000000000000000000000e00000000000000000000000000000000000000000000000000000000000000100000000000000000000000000000000000000000000000000000000000000000300000000000000000000000026cd5abadf7ec3f0f02b48314bfca6b2342cddd4000000000000000000000000cce466a522984415bc91338c232d98869193d46e000000000000000000000000dd7b5e1db4aafd5c8ec3b764efb8ed265aa5445b0000000000000000000000000000000000000000000000000000000000000000000000000000000000000000000000000000000000000000000000000000000300000000000000000000000000000000000000000000000001499e221cbf9832000000000000000000000000000000000000000000000000013f4d0405c41d46000000000000000000000000000000000000000000000000013f4d0405c41d46",
          "blockHash": "0x86e7be8e9c60bf3f3add0730dd1df1b283005df48cd5e301e533dd216c5a1cd6",
          "blockNumber": "0x16b4aef",
          "transactionHash": "0xf1a2fa306e1a722bd94f3b89aa7a9940f563009f76f51e56d67b07eaa8b5d9f1",
          "transactionIndex": "0x1",
          "logIndex": "0xc",
          "removed": false
        },
        {
          "address": "0x1a44076050125825900e736c501f859c50fe728c",
          "topics": [
            "0x1ab700d4ced0c005b164c0f789fd09fcbb0156d4c2041b8a3bfbcd961cd1567f"
          ],
          "data": "0x00000000000000000000000000000000000000000000000000000000000000600000000000000000000000000000000000000000000000000000000000000120000000000000000000000000377530cda84dfb2673bf4d145dcf0c4d7fdcb5b6000000000000000000000000000000000000000000000000000000000000009901000000000000010b0000762f0000000000000000000000009abfe1f8a999b0011ecd6116649aee8d575f5604000075950000000000000000000000001c1649a38f4a3c5a0c4a24070f688c525ab7d6e6d313992740ca8dbd32e77d4927b3cc4dccc22b6f1760f6e9b5fb2483278b237c000000000000000000000000741f0d8bde14140f62107fc60a0ee122b37d4630000000000000000a00000000000000000000000000000000000000000000000000000000000000000000000000001600030100110100000000000000000000000000030d4000000000000000000000",
          "blockHash": "0x86e7be8e9c60bf3f3add0730dd1df1b283005df48cd5e301e533dd216c5a1cd6",
          "blockNumber": "0x16b4aef",
          "transactionHash": "0xf1a2fa306e1a722bd94f3b89aa7a9940f563009f76f51e56d67b07eaa8b5d9f1",
          "transactionIndex": "0x1",
          "logIndex": "0xd",
          "removed": false
        },
        {
          "address": "0x9abfe1f8a999b0011ecd6116649aee8d575f5604",
          "topics": [
            "0x85496b760a4b7f8d66384b9df21b381f5d1b1e79f229a47aaf4c232edc2fe59a",
            "0xd313992740ca8dbd32e77d4927b3cc4dccc22b6f1760f6e9b5fb2483278b237c",
            "0x000000000000000000000000741f0d8bde14140f62107fc60a0ee122b37d4630"
          ],
          "data": "0x0000000000000000000000000000000000000000000000000000000000007595000000000000000000000000000000000000000000000000000009184e72a000000000000000000000000000000000000000000000000000000009184e72a000",
          "blockHash": "0x86e7be8e9c60bf3f3add0730dd1df1b283005df48cd5e301e533dd216c5a1cd6",
          "blockNumber": "0x16b4aef",
          "transactionHash": "0xf1a2fa306e1a722bd94f3b89aa7a9940f563009f76f51e56d67b07eaa8b5d9f1",
          "transactionIndex": "0x1",
          "logIndex": "0xe",
          "removed": false
        },
        {
          "address": "0xfc00000000000000000000000000000000000005",
          "topics": [
            "0xddf252ad1be2c89b69c2b068fc378daa952ba7f163c4a11628f55a4df523b3ef",
            "0x000000000000000000000000741f0d8bde14140f62107fc60a0ee122b37d4630",
            "0x000000000000000000000000999dfabe3b1cc2ef66eb032eea42fea329bba168"
          ],
          "data": "0x000000000000000000000000000000000000000000000000000009184e72a000",
          "blockHash": "0x86e7be8e9c60bf3f3add0730dd1df1b283005df48cd5e301e533dd216c5a1cd6",
          "blockNumber": "0x16b4aef",
          "transactionHash": "0xf1a2fa306e1a722bd94f3b89aa7a9940f563009f76f51e56d67b07eaa8b5d9f1",
          "transactionIndex": "0x1",
          "logIndex": "0xf",
          "removed": false
        },
        {
          "address": "0x377530cda84dfb2673bf4d145dcf0c4d7fdcb5b6",
          "topics": [
            "0x61ed099e74a97a1d7f8bb0952a88ca8b7b8ebd00c126ea04671f92a81213318a"
          ],
          "data": "0x00000000000000000000000041bdb4aa4a63a5b2efc531858d3118392b1a1c3d00000000000000000000000000000000000000000000000004b851860ad0b25d",
          "blockHash": "0x86e7be8e9c60bf3f3add0730dd1df1b283005df48cd5e301e533dd216c5a1cd6",
          "blockNumber": "0x16b4aef",
          "transactionHash": "0xf1a2fa306e1a722bd94f3b89aa7a9940f563009f76f51e56d67b07eaa8b5d9f1",
          "transactionIndex": "0x1",
          "logIndex": "0x10",
          "removed": false
        },
        {
          "address": "0x377530cda84dfb2673bf4d145dcf0c4d7fdcb5b6",
          "topics": [
            "0x07ea52d82345d6e838192107d8fd7123d9c2ec8e916cd0aad13fd2b60db24644"
          ],
          "data": "0x000000000000000000000000000000000000000000000000000000000000006000000000000000000000000000000000000000000000000000000000000000e00000000000000000000000000000000000000000000000000000000000000100000000000000000000000000000000000000000000000000000000000000000300000000000000000000000026cd5abadf7ec3f0f02b48314bfca6b2342cddd4000000000000000000000000cce466a522984415bc91338c232d98869193d46e000000000000000000000000dd7b5e1db4aafd5c8ec3b764efb8ed265aa5445b0000000000000000000000000000000000000000000000000000000000000000000000000000000000000000000000000000000000000000000000000000000300000000000000000000000000000000000000000000000001499e221cbf9832000000000000000000000000000000000000000000000000013f4d0405c41d46000000000000000000000000000000000000000000000000013f4d0405c41d46",
          "blockHash": "0x86e7be8e9c60bf3f3add0730dd1df1b283005df48cd5e301e533dd216c5a1cd6",
          "blockNumber": "0x16b4aef",
          "transactionHash": "0xf1a2fa306e1a722bd94f3b89aa7a9940f563009f76f51e56d67b07eaa8b5d9f1",
          "transactionIndex": "0x1",
          "logIndex": "0x11",
          "removed": false
        },
        {
          "address": "0x1a44076050125825900e736c501f859c50fe728c",
          "topics": [
            "0x1ab700d4ced0c005b164c0f789fd09fcbb0156d4c2041b8a3bfbcd961cd1567f"
          ],
          "data": "0x00000000000000000000000000000000000000000000000000000000000000600000000000000000000000000000000000000000000000000000000000000120000000000000000000000000377530cda84dfb2673bf4d145dcf0c4d7fdcb5b6000000000000000000000000000000000000000000000000000000000000009901000000000000005a0000762f000000000000000000000000999dfabe3b1cc2ef66eb032eea42fea329bba16800007595000000000000000000000000bbc424e58ed38dd911309611ae2d7a23014bd9606c7d98263c3abe38ab32402c9a0a38ba150ac0ff9a0df20427507d2fdcf795b5000000000000000000000000741f0d8bde14140f62107fc60a0ee122b37d4630000000000000000a00000000000000000000000000000000000000000000000000000000000000000000000000001600030100110100000000000000000000000000030d4000000000000000000000",
          "blockHash": "0x86e7be8e9c60bf3f3add0730dd1df1b283005df48cd5e301e533dd216c5a1cd6",
          "blockNumber": "0x16b4aef",
          "transactionHash": "0xf1a2fa306e1a722bd94f3b89aa7a9940f563009f76f51e56d67b07eaa8b5d9f1",
          "transactionIndex": "0x1",
          "logIndex": "0x12",
          "removed": false
        },
        {
          "address": "0x999dfabe3b1cc2ef66eb032eea42fea329bba168",
          "topics": [
            "0x85496b760a4b7f8d66384b9df21b381f5d1b1e79f229a47aaf4c232edc2fe59a",
            "0x6c7d98263c3abe38ab32402c9a0a38ba150ac0ff9a0df20427507d2fdcf795b5",
            "0x000000000000000000000000741f0d8bde14140f62107fc60a0ee122b37d4630"
          ],
          "data": "0x0000000000000000000000000000000000000000000000000000000000007595000000000000000000000000000000000000000000000000000009184e72a000000000000000000000000000000000000000000000000000000009184e72a000",
          "blockHash": "0x86e7be8e9c60bf3f3add0730dd1df1b283005df48cd5e301e533dd216c5a1cd6",
          "blockNumber": "0x16b4aef",
          "transactionHash": "0xf1a2fa306e1a722bd94f3b89aa7a9940f563009f76f51e56d67b07eaa8b5d9f1",
          "transactionIndex": "0x1",
          "logIndex": "0x13",
          "removed": false
        },
        {
          "address": "0xfc00000000000000000000000000000000000002",
          "topics": [
            "0xddf252ad1be2c89b69c2b068fc378daa952ba7f163c4a11628f55a4df523b3ef",
            "0x000000000000000000000000741f0d8bde14140f62107fc60a0ee122b37d4630",
            "0x000000000000000000000000d86fbbd0c8715d2c1f40e451e5c3514e65e7576a"
          ],
          "data": "0x000000000000000000000000000000000000000000000000000009184e72a000",
          "blockHash": "0x86e7be8e9c60bf3f3add0730dd1df1b283005df48cd5e301e533dd216c5a1cd6",
          "blockNumber": "0x16b4aef",
          "transactionHash": "0xf1a2fa306e1a722bd94f3b89aa7a9940f563009f76f51e56d67b07eaa8b5d9f1",
          "transactionIndex": "0x1",
          "logIndex": "0x14",
          "removed": false
        },
        {
          "address": "0x377530cda84dfb2673bf4d145dcf0c4d7fdcb5b6",
          "topics": [
            "0x61ed099e74a97a1d7f8bb0952a88ca8b7b8ebd00c126ea04671f92a81213318a"
          ],
          "data": "0x00000000000000000000000041bdb4aa4a63a5b2efc531858d3118392b1a1c3d00000000000000000000000000000000000000000000000004b851860ad0b25d",
          "blockHash": "0x86e7be8e9c60bf3f3add0730dd1df1b283005df48cd5e301e533dd216c5a1cd6",
          "blockNumber": "0x16b4aef",
          "transactionHash": "0xf1a2fa306e1a722bd94f3b89aa7a9940f563009f76f51e56d67b07eaa8b5d9f1",
          "transactionIndex": "0x1",
          "logIndex": "0x15",
          "removed": false
        },
        {
          "address": "0x377530cda84dfb2673bf4d145dcf0c4d7fdcb5b6",
          "topics": [
            "0x07ea52d82345d6e838192107d8fd7123d9c2ec8e916cd0aad13fd2b60db24644"
          ],
          "data": "0x000000000000000000000000000000000000000000000000000000000000006000000000000000000000000000000000000000000000000000000000000000e00000000000000000000000000000000000000000000000000000000000000100000000000000000000000000000000000000000000000000000000000000000300000000000000000000000026cd5abadf7ec3f0f02b48314bfca6b2342cddd4000000000000000000000000cce466a522984415bc91338c232d98869193d46e000000000000000000000000dd7b5e1db4aafd5c8ec3b764efb8ed265aa5445b0000000000000000000000000000000000000000000000000000000000000000000000000000000000000000000000000000000000000000000000000000000300000000000000000000000000000000000000000000000001499e221cbf9832000000000000000000000000000000000000000000000000013f4d0405c41d46000000000000000000000000000000000000000000000000013f4d0405c41d46",
          "blockHash": "0x86e7be8e9c60bf3f3add0730dd1df1b283005df48cd5e301e533dd216c5a1cd6",
          "blockNumber": "0x16b4aef",
          "transactionHash": "0xf1a2fa306e1a722bd94f3b89aa7a9940f563009f76f51e56d67b07eaa8b5d9f1",
          "transactionIndex": "0x1",
          "logIndex": "0x16",
          "removed": false
        },
        {
          "address": "0x1a44076050125825900e736c501f859c50fe728c",
          "topics": [
            "0x1ab700d4ced0c005b164c0f789fd09fcbb0156d4c2041b8a3bfbcd961cd1567f"
          ],
          "data": "0x00000000000000000000000000000000000000000000000000000000000000600000000000000000000000000000000000000000000000000000000000000120000000000000000000000000377530cda84dfb2673bf4d145dcf0c4d7fdcb5b600000000000000000000000000000000000000000000000000000000000000990100000000000000c60000762f000000000000000000000000d86fbbd0c8715d2c1f40e451e5c3514e65e7576a0000759500000000000000000000000004acaf8d2865c0714f79da09645c13fd2888977f6625d202d9205f4c7cecb697238f76b943512aa2a557e5f537974c7e0904b562000000000000000000000000741f0d8bde14140f62107fc60a0ee122b37d4630000000000000000a00000000000000000000000000000000000000000000000000000000000000000000000000001600030100110100000000000000000000000000030d4000000000000000000000",
          "blockHash": "0x86e7be8e9c60bf3f3add0730dd1df1b283005df48cd5e301e533dd216c5a1cd6",
          "blockNumber": "0x16b4aef",
          "transactionHash": "0xf1a2fa306e1a722bd94f3b89aa7a9940f563009f76f51e56d67b07eaa8b5d9f1",
          "transactionIndex": "0x1",
          "logIndex": "0x17",
          "removed": false
        },
        {
          "address": "0xd86fbbd0c8715d2c1f40e451e5c3514e65e7576a",
          "topics": [
            "0x85496b760a4b7f8d66384b9df21b381f5d1b1e79f229a47aaf4c232edc2fe59a",
            "0x6625d202d9205f4c7cecb697238f76b943512aa2a557e5f537974c7e0904b562",
            "0x000000000000000000000000741f0d8bde14140f62107fc60a0ee122b37d4630"
          ],
          "data": "0x0000000000000000000000000000000000000000000000000000000000007595000000000000000000000000000000000000000000000000000009184e72a000000000000000000000000000000000000000000000000000000009184e72a000",
          "blockHash": "0x86e7be8e9c60bf3f3add0730dd1df1b283005df48cd5e301e533dd216c5a1cd6",
          "blockNumber": "0x16b4aef",
          "transactionHash": "0xf1a2fa306e1a722bd94f3b89aa7a9940f563009f76f51e56d67b07eaa8b5d9f1",
          "transactionIndex": "0x1",
          "logIndex": "0x18",
          "removed": false
        },
        {
          "address": "0xfc00000000000000000000000000000000000003",
          "topics": [
            "0xddf252ad1be2c89b69c2b068fc378daa952ba7f163c4a11628f55a4df523b3ef",
            "0x000000000000000000000000741f0d8bde14140f62107fc60a0ee122b37d4630",
            "0x00000000000000000000000075c38d46001b0f8108c4136216bd2694982c20fc"
          ],
          "data": "0x000000000000000000000000000000000000000000000000000009184e72a000",
          "blockHash": "0x86e7be8e9c60bf3f3add0730dd1df1b283005df48cd5e301e533dd216c5a1cd6",
          "blockNumber": "0x16b4aef",
          "transactionHash": "0xf1a2fa306e1a722bd94f3b89aa7a9940f563009f76f51e56d67b07eaa8b5d9f1",
          "transactionIndex": "0x1",
          "logIndex": "0x19",
          "removed": false
        },
        {
          "address": "0x377530cda84dfb2673bf4d145dcf0c4d7fdcb5b6",
          "topics": [
            "0x61ed099e74a97a1d7f8bb0952a88ca8b7b8ebd00c126ea04671f92a81213318a"
          ],
          "data": "0x00000000000000000000000041bdb4aa4a63a5b2efc531858d3118392b1a1c3d00000000000000000000000000000000000000000000000004b851860ad0b25d",
          "blockHash": "0x86e7be8e9c60bf3f3add0730dd1df1b283005df48cd5e301e533dd216c5a1cd6",
          "blockNumber": "0x16b4aef",
          "transactionHash": "0xf1a2fa306e1a722bd94f3b89aa7a9940f563009f76f51e56d67b07eaa8b5d9f1",
          "transactionIndex": "0x1",
          "logIndex": "0x1a",
          "removed": false
        },
        {
          "address": "0x377530cda84dfb2673bf4d145dcf0c4d7fdcb5b6",
          "topics": [
            "0x07ea52d82345d6e838192107d8fd7123d9c2ec8e916cd0aad13fd2b60db24644"
          ],
          "data": "0x000000000000000000000000000000000000000000000000000000000000006000000000000000000000000000000000000000000000000000000000000000e00000000000000000000000000000000000000000000000000000000000000100000000000000000000000000000000000000000000000000000000000000000300000000000000000000000026cd5abadf7ec3f0f02b48314bfca6b2342cddd4000000000000000000000000cce466a522984415bc91338c232d98869193d46e000000000000000000000000dd7b5e1db4aafd5c8ec3b764efb8ed265aa5445b0000000000000000000000000000000000000000000000000000000000000000000000000000000000000000000000000000000000000000000000000000000300000000000000000000000000000000000000000000000001499e221cbf9832000000000000000000000000000000000000000000000000013f4d0405c41d46000000000000000000000000000000000000000000000000013f4d0405c41d46",
          "blockHash": "0x86e7be8e9c60bf3f3add0730dd1df1b283005df48cd5e301e533dd216c5a1cd6",
          "blockNumber": "0x16b4aef",
          "transactionHash": "0xf1a2fa306e1a722bd94f3b89aa7a9940f563009f76f51e56d67b07eaa8b5d9f1",
          "transactionIndex": "0x1",
          "logIndex": "0x1b",
          "removed": false
        },
        {
          "address": "0x1a44076050125825900e736c501f859c50fe728c",
          "topics": [
            "0x1ab700d4ced0c005b164c0f789fd09fcbb0156d4c2041b8a3bfbcd961cd1567f"
          ],
          "data": "0x00000000000000000000000000000000000000000000000000000000000000600000000000000000000000000000000000000000000000000000000000000120000000000000000000000000377530cda84dfb2673bf4d145dcf0c4d7fdcb5b600000000000000000000000000000000000000000000000000000000000000990100000000000000020000762f00000000000000000000000075c38d46001b0f8108c4136216bd2694982c20fc000075950000000000000000000000009033bad7aa130a2466060a2da71fae2219781b4b8d107f3a29f9557eca3cd27094c065587538cd0ef86f9443fe9d66d9fa4e683c000000000000000000000000741f0d8bde14140f62107fc60a0ee122b37d4630000000000000000a00000000000000000000000000000000000000000000000000000000000000000000000000001600030100110100000000000000000000000000030d4000000000000000000000",
          "blockHash": "0x86e7be8e9c60bf3f3add0730dd1df1b283005df48cd5e301e533dd216c5a1cd6",
          "blockNumber": "0x16b4aef",
          "transactionHash": "0xf1a2fa306e1a722bd94f3b89aa7a9940f563009f76f51e56d67b07eaa8b5d9f1",
          "transactionIndex": "0x1",
          "logIndex": "0x1c",
          "removed": false
        },
        {
          "address": "0x75c38d46001b0f8108c4136216bd2694982c20fc",
          "topics": [
            "0x85496b760a4b7f8d66384b9df21b381f5d1b1e79f229a47aaf4c232edc2fe59a",
            "0x8d107f3a29f9557eca3cd27094c065587538cd0ef86f9443fe9d66d9fa4e683c",
            "0x000000000000000000000000741f0d8bde14140f62107fc60a0ee122b37d4630"
          ],
          "data": "0x0000000000000000000000000000000000000000000000000000000000007595000000000000000000000000000000000000000000000000000009184e72a000000000000000000000000000000000000000000000000000000009184e72a000",
          "blockHash": "0x86e7be8e9c60bf3f3add0730dd1df1b283005df48cd5e301e533dd216c5a1cd6",
          "blockNumber": "0x16b4aef",
          "transactionHash": "0xf1a2fa306e1a722bd94f3b89aa7a9940f563009f76f51e56d67b07eaa8b5d9f1",
          "transactionIndex": "0x1",
          "logIndex": "0x1d",
          "removed": false
        }
      ],
      "logsBloom": "0x04004000000000200000000000000140100000000040000020002000005000000200000000180000480000000080400000040100000080800000000000000200000002204100000000000008400000001000000004000000090800000000010000000000000400008000500000a80000000000000010000000000410008000000000000000000000050000080080002000004008000000248000000000100000000000208014001010100100000000042000000000400020100440040000000000000002000000000840000080000000000010000000000000800000000000002801040000000000000000000121002000000000018001400000800000000000",
      "type": "0x2",
      "transactionHash": "0xf1a2fa306e1a722bd94f3b89aa7a9940f563009f76f51e56d67b07eaa8b5d9f1",
      "transactionIndex": "0x1",
      "blockHash": "0x86e7be8e9c60bf3f3add0730dd1df1b283005df48cd5e301e533dd216c5a1cd6",
      "blockNumber": "0x16b4aef",
      "gasUsed": "0x1a0444",
      "effectiveGasPrice": "0x16e45e",
      "from": "0x45dce8e4f2dc005a5f28206a46cb034697eeda8e",
      "to": "0x741f0d8bde14140f62107fc60a0ee122b37d4630",
      "contractAddress": null,
      "l1BaseFeeScalar": "0x2faf080",
      "l1BlobBaseFee": "0x1",
      "l1BlobBaseFeeScalar": "0x0",
      "l1Fee": "0x9c1db4b0d1c3",
      "l1GasPrice": "0x281e4c97",
      "l1GasUsed": "0x13ec"
    }
  ],
  "libraries": [],
  "pending": [],
  "returns": {},
  "timestamp": 1754428214,
  "chain": 252,
  "commit": "640ba29"
}