{
  "transactions": [
    {
      "hash": "0x991dcc2ff3a995432cf33c2f7afb96a9d8815674aa6fa0d1029f7f1e640b5c1c",
      "transactionType": "CALL",
      "contractName": null,
      "contractAddress": "0x741f0d8bde14140f62107fc60a0ee122b37d4630",
      "function": "batchBridgeWithEthFeeFromWallet((uint32,bytes32,uint256,uint256,bytes,bytes,bytes)[],address[],address[])",
      "arguments": [
        "[(30370, 0x000000000000000000000000741f0d8bde14140f62107fc60a0ee122b37d4630, 10000000000000, 0, 0x, 0x, 0x), (30370, 0x000000000000000000000000741f0d8bde14140f62107fc60a0ee122b37d4630, 10000000000000, 0, 0x, 0x, 0x), (30370, 0x000000000000000000000000741f0d8bde14140f62107fc60a0ee122b37d4630, 10000000000000, 0, 0x, 0x, 0x), (30370, 0x000000000000000000000000741f0d8bde14140f62107fc60a0ee122b37d4630, 10000000000000, 0, 0x, 0x, 0x), (30370, 0x000000000000000000000000741f0d8bde14140f62107fc60a0ee122b37d4630, 10000000000000, 0, 0x, 0x, 0x), (30370, 0x000000000000000000000000741f0d8bde14140f62107fc60a0ee122b37d4630, 10000000000000, 0, 0x, 0x, 0x)]",
        "[0x96A394058E2b84A89bac9667B19661Ed003cF5D4, 0x88Aa7854D3b2dAA5e37E7Ce73A1F39669623a361, 0x9aBFE1F8a999B0011ecD6116649AEe8D575F5604, 0x999dfAbe3b1cc2EF66eB032Eea42FeA329bBa168, 0xd86fBBd0c8715d2C1f40e451e5C3514e65E7576A, 0x75c38D46001b0F8108c4136216bd2694982C20FC]",
        "[0x741F0d8Bde14140f62107FC60A0EE122B37D4630, 0x741F0d8Bde14140f62107FC60A0EE122B37D4630, 0x741F0d8Bde14140f62107FC60A0EE122B37D4630, 0x741F0d8Bde14140f62107FC60A0EE122B37D4630, 0x741F0d8Bde14140f62107FC60A0EE122B37D4630, 0x741F0d8Bde14140f62107FC60A0EE122B37D4630]"
      ],
      "transaction": {
        "from": "0x45dce8e4f2dc005a5f28206a46cb034697eeda8e",
        "to": "0x741f0d8bde14140f62107fc60a0ee122b37d4630",
        "gas": "0x23c499",
        "value": "0x209b33510a0e872",
        "input": "0xb70d4241000000000000000000000000000000000000000000000000000000000000006000000000000000000000000000000000000000000000000000000000000008c000000000000000000000000000000000000000000000000000000000000009a0000000000000000000000000000000000000000000000000000000000000000600000000000000000000000000000000000000000000000000000000000000c000000000000000000000000000000000000000000000000000000000000002000000000000000000000000000000000000000000000000000000000000000340000000000000000000000000000000000000000000000000000000000000048000000000000000000000000000000000000000000000000000000000000005c0000000000000000000000000000000000000000000000000000000000000070000000000000000000000000000000000000000000000000000000000000076a2000000000000000000000000741f0d8bde14140f62107fc60a0ee122b37d4630000000000000000000000000000000000000000000000000000009184e72a000000000000000000000000000000000000000000000000000000000000000000000000000000000000000000000000000000000000000000000000000000000e00000000000000000000000000000000000000000000000000000000000000100000000000000000000000000000000000000000000000000000000000000012000000000000000000000000000000000000000000000000000000000000000000000000000000000000000000000000000000000000000000000000000000000000000000000000000000000000000000000000000000000000000000000000000000000000000000000000000000000000000000000000000000000000076a2000000000000000000000000741f0d8bde14140f62107fc60a0ee122b37d4630000000000000000000000000000000000000000000000000000009184e72a000000000000000000000000000000000000000000000000000000000000000000000000000000000000000000000000000000000000000000000000000000000e00000000000000000000000000000000000000000000000000000000000000100000000000000000000000000000000000000000000000000000000000000012000000000000000000000000000000000000000000000000000000000000000000000000000000000000000000000000000000000000000000000000000000000000000000000000000000000000000000000000000000000000000000000000000000000000000000000000000000000000000000000000000000000000076a2000000000000000000000000741f0d8bde14140f62107fc60a0ee122b37d4630000000000000000000000000000000000000000000000000000009184e72a000000000000000000000000000000000000000000000000000000000000000000000000000000000000000000000000000000000000000000000000000000000e00000000000000000000000000000000000000000000000000000000000000100000000000000000000000000000000000000000000000000000000000000012000000000000000000000000000000000000000000000000000000000000000000000000000000000000000000000000000000000000000000000000000000000000000000000000000000000000000000000000000000000000000000000000000000000000000000000000000000000000000000000000000000000000076a2000000000000000000000000741f0d8bde14140f62107fc60a0ee122b37d4630000000000000000000000000000000000000000000000000000009184e72a000000000000000000000000000000000000000000000000000000000000000000000000000000000000000000000000000000000000000000000000000000000e00000000000000000000000000000000000000000000000000000000000000100000000000000000000000000000000000000000000000000000000000000012000000000000000000000000000000000000000000000000000000000000000000000000000000000000000000000000000000000000000000000000000000000000000000000000000000000000000000000000000000000000000000000000000000000000000000000000000000000000000000000000000000000000076a2000000000000000000000000741f0d8bde14140f62107fc60a0ee122b37d4630000000000000000000000000000000000000000000000000000009184e72a000000000000000000000000000000000000000000000000000000000000000000000000000000000000000000000000000000000000000000000000000000000e00000000000000000000000000000000000000000000000000000000000000100000000000000000000000000000000000000000000000000000000000000012000000000000000000000000000000000000000000000000000000000000000000000000000000000000000000000000000000000000000000000000000000000000000000000000000000000000000000000000000000000000000000000000000000000000000000000000000000000000000000000000000000000000076a2000000000000000000000000741f0d8bde14140f62107fc60a0ee122b37d4630000000000000000000000000000000000000000000000000000009184e72a000000000000000000000000000000000000000000000000000000000000000000000000000000000000000000000000000000000000000000000000000000000e000000000000000000000000000000000000000000000000000000000000001000000000000000000000000000000000000000000000000000000000000000120000000000000000000000000000000000000000000000000000000000000000000000000000000000000000000000000000000000000000000000000000000000000000000000000000000000000000000000000000000000000000000000000000000000000000000000000000000000000000000000000000000000000000600000000000000000000000096a394058e2b84a89bac9667b19661ed003cf5d400000000000000000000000088aa7854d3b2daa5e37e7ce73a1f39669623a3610000000000000000000000009abfe1f8a999b0011ecd6116649aee8d575f5604000000000000000000000000999dfabe3b1cc2ef66eb032eea42fea329bba168000000000000000000000000d86fbbd0c8715d2c1f40e451e5c3514e65e7576a00000000000000000000000075c38d46001b0f8108c4136216bd2694982c20fc0000000000000000000000000000000000000000000000000000000000000006000000000000000000000000741f0d8bde14140f62107fc60a0ee122b37d4630000000000000000000000000741f0d8bde14140f62107fc60a0ee122b37d4630000000000000000000000000741f0d8bde14140f62107fc60a0ee122b37d4630000000000000000000000000741f0d8bde14140f62107fc60a0ee122b37d4630000000000000000000000000741f0d8bde14140f62107fc60a0ee122b37d4630000000000000000000000000741f0d8bde14140f62107fc60a0ee122b37d4630",
        "nonce": "0xae",
        "chainId": "0xfc"
      },
      "additionalContracts": [],
      "isFixedGasLimit": false
    }
  ],
  "receipts": [
    {
      "status": "0x1",
      "cumulativeGasUsed": "0x1a9934",
      "logs": [
        {
          "address": "0xfc00000000000000000000000000000000000001",
          "topics": [
            "0xddf252ad1be2c89b69c2b068fc378daa952ba7f163c4a11628f55a4df523b3ef",
            "0x000000000000000000000000741f0d8bde14140f62107fc60a0ee122b37d4630",
            "0x00000000000000000000000096a394058e2b84a89bac9667b19661ed003cf5d4"
          ],
          "data": "0x000000000000000000000000000000000000000000000000000009184e72a000",
          "blockHash": "0x099506d5ba78107c1fbe2e955343ea74eb324de9a4e85c8ba7ff6b1b09d7faa3",
          "blockNumber": "0x1636dec",
          "transactionHash": "0x991dcc2ff3a995432cf33c2f7afb96a9d8815674aa6fa0d1029f7f1e640b5c1c",
          "transactionIndex": "0x1",
          "logIndex": "0x0",
          "removed": false
        },
        {
          "address": "0x377530cda84dfb2673bf4d145dcf0c4d7fdcb5b6",
          "topics": [
            "0x61ed099e74a97a1d7f8bb0952a88ca8b7b8ebd00c126ea04671f92a81213318a"
          ],
          "data": "0x00000000000000000000000041bdb4aa4a63a5b2efc531858d3118392b1a1c3d00000000000000000000000000000000000000000000000000346b21a10ad95e",
          "blockHash": "0x099506d5ba78107c1fbe2e955343ea74eb324de9a4e85c8ba7ff6b1b09d7faa3",
          "blockNumber": "0x1636dec",
          "transactionHash": "0x991dcc2ff3a995432cf33c2f7afb96a9d8815674aa6fa0d1029f7f1e640b5c1c",
          "transactionIndex": "0x1",
          "logIndex": "0x1",
          "removed": false
        },
        {
          "address": "0x377530cda84dfb2673bf4d145dcf0c4d7fdcb5b6",
          "topics": [
            "0x07ea52d82345d6e838192107d8fd7123d9c2ec8e916cd0aad13fd2b60db24644"
          ],
          "data": "0x000000000000000000000000000000000000000000000000000000000000006000000000000000000000000000000000000000000000000000000000000000e00000000000000000000000000000000000000000000000000000000000000100000000000000000000000000000000000000000000000000000000000000000300000000000000000000000026cd5abadf7ec3f0f02b48314bfca6b2342cddd4000000000000000000000000cce466a522984415bc91338c232d98869193d46e000000000000000000000000dd7b5e1db4aafd5c8ec3b764efb8ed265aa5445b00000000000000000000000000000000000000000000000000000000000000000000000000000000000000000000000000000000000000000000000000000003000000000000000000000000000000000000000000000000000bd42182c0424d000000000000000000000000000000000000000000000000000b59f82f7d3034000000000000000000000000000000000000000000000000000b59f82f7d3034",
          "blockHash": "0x099506d5ba78107c1fbe2e955343ea74eb324de9a4e85c8ba7ff6b1b09d7faa3",
          "blockNumber": "0x1636dec",
          "transactionHash": "0x991dcc2ff3a995432cf33c2f7afb96a9d8815674aa6fa0d1029f7f1e640b5c1c",
          "transactionIndex": "0x1",
          "logIndex": "0x2",
          "removed": false
        },
        {
          "address": "0x1a44076050125825900e736c501f859c50fe728c",
          "topics": [
            "0x1ab700d4ced0c005b164c0f789fd09fcbb0156d4c2041b8a3bfbcd961cd1567f"
          ],
          "data": "0x00000000000000000000000000000000000000000000000000000000000000600000000000000000000000000000000000000000000000000000000000000120000000000000000000000000377530cda84dfb2673bf4d145dcf0c4d7fdcb5b600000000000000000000000000000000000000000000000000000000000000990100000000000000020000762f00000000000000000000000096a394058e2b84a89bac9667b19661ed003cf5d4000076a200000000000000000000000080eede496655fb9047dd39d9f418d5483ed600df42ec898381e7e50121577b65e1863c6c12644beb88563fda2d5fc4db296b6417000000000000000000000000741f0d8bde14140f62107fc60a0ee122b37d4630000000000000000a00000000000000000000000000000000000000000000000000000000000000000000000000001600030100110100000000000000000000000000030d4000000000000000000000",
          "blockHash": "0x099506d5ba78107c1fbe2e955343ea74eb324de9a4e85c8ba7ff6b1b09d7faa3",
          "blockNumber": "0x1636dec",
          "transactionHash": "0x991dcc2ff3a995432cf33c2f7afb96a9d8815674aa6fa0d1029f7f1e640b5c1c",
          "transactionIndex": "0x1",
          "logIndex": "0x3",
          "removed": false
        },
        {
          "address": "0x96a394058e2b84a89bac9667b19661ed003cf5d4",
          "topics": [
            "0x85496b760a4b7f8d66384b9df21b381f5d1b1e79f229a47aaf4c232edc2fe59a",
            "0x42ec898381e7e50121577b65e1863c6c12644beb88563fda2d5fc4db296b6417",
            "0x000000000000000000000000741f0d8bde14140f62107fc60a0ee122b37d4630"
          ],
          "data": "0x00000000000000000000000000000000000000000000000000000000000076a2000000000000000000000000000000000000000000000000000009184e72a000000000000000000000000000000000000000000000000000000009184e72a000",
          "blockHash": "0x099506d5ba78107c1fbe2e955343ea74eb324de9a4e85c8ba7ff6b1b09d7faa3",
          "blockNumber": "0x1636dec",
          "transactionHash": "0x991dcc2ff3a995432cf33c2f7afb96a9d8815674aa6fa0d1029f7f1e640b5c1c",
          "transactionIndex": "0x1",
          "logIndex": "0x4",
          "removed": false
        },
        {
          "address": "0xfc00000000000000000000000000000000000008",
          "topics": [
            "0xddf252ad1be2c89b69c2b068fc378daa952ba7f163c4a11628f55a4df523b3ef",
            "0x000000000000000000000000741f0d8bde14140f62107fc60a0ee122b37d4630",
            "0x00000000000000000000000088aa7854d3b2daa5e37e7ce73a1f39669623a361"
          ],
          "data": "0x000000000000000000000000000000000000000000000000000009184e72a000",
          "blockHash": "0x099506d5ba78107c1fbe2e955343ea74eb324de9a4e85c8ba7ff6b1b09d7faa3",
          "blockNumber": "0x1636dec",
          "transactionHash": "0x991dcc2ff3a995432cf33c2f7afb96a9d8815674aa6fa0d1029f7f1e640b5c1c",
          "transactionIndex": "0x1",
          "logIndex": "0x5",
          "removed": false
        },
        {
          "address": "0x377530cda84dfb2673bf4d145dcf0c4d7fdcb5b6",
          "topics": [
            "0x61ed099e74a97a1d7f8bb0952a88ca8b7b8ebd00c126ea04671f92a81213318a"
          ],
          "data": "0x00000000000000000000000041bdb4aa4a63a5b2efc531858d3118392b1a1c3d00000000000000000000000000000000000000000000000000346b21a10ad95e",
          "blockHash": "0x099506d5ba78107c1fbe2e955343ea74eb324de9a4e85c8ba7ff6b1b09d7faa3",
          "blockNumber": "0x1636dec",
          "transactionHash": "0x991dcc2ff3a995432cf33c2f7afb96a9d8815674aa6fa0d1029f7f1e640b5c1c",
          "transactionIndex": "0x1",
          "logIndex": "0x6",
          "removed": false
        },
        {
          "address": "0x377530cda84dfb2673bf4d145dcf0c4d7fdcb5b6",
          "topics": [
            "0x07ea52d82345d6e838192107d8fd7123d9c2ec8e916cd0aad13fd2b60db24644"
          ],
          "data": "0x000000000000000000000000000000000000000000000000000000000000006000000000000000000000000000000000000000000000000000000000000000e00000000000000000000000000000000000000000000000000000000000000100000000000000000000000000000000000000000000000000000000000000000300000000000000000000000026cd5abadf7ec3f0f02b48314bfca6b2342cddd4000000000000000000000000cce466a522984415bc91338c232d98869193d46e000000000000000000000000dd7b5e1db4aafd5c8ec3b764efb8ed265aa5445b00000000000000000000000000000000000000000000000000000000000000000000000000000000000000000000000000000000000000000000000000000003000000000000000000000000000000000000000000000000000bd42182c0424d000000000000000000000000000000000000000000000000000b59f82f7d3034000000000000000000000000000000000000000000000000000b59f82f7d3034",
          "blockHash": "0x099506d5ba78107c1fbe2e955343ea74eb324de9a4e85c8ba7ff6b1b09d7faa3",
          "blockNumber": "0x1636dec",
          "transactionHash": "0x991dcc2ff3a995432cf33c2f7afb96a9d8815674aa6fa0d1029f7f1e640b5c1c",
          "transactionIndex": "0x1",
          "logIndex": "0x7",
          "removed": false
        },
        {
          "address": "0x1a44076050125825900e736c501f859c50fe728c",
          "topics": [
            "0x1ab700d4ced0c005b164c0f789fd09fcbb0156d4c2041b8a3bfbcd961cd1567f"
          ],
          "data": "0x00000000000000000000000000000000000000000000000000000000000000600000000000000000000000000000000000000000000000000000000000000120000000000000000000000000377530cda84dfb2673bf4d145dcf0c4d7fdcb5b600000000000000000000000000000000000000000000000000000000000000990100000000000000020000762f00000000000000000000000088aa7854d3b2daa5e37e7ce73a1f39669623a361000076a20000000000000000000000005bff88ca1442c2496f7e475e9e7786383bc070c07457a846f2581dfe40680b0eff601a1d2533bf470aa05555810534043bdbe370000000000000000000000000741f0d8bde14140f62107fc60a0ee122b37d4630000000000000000a00000000000000000000000000000000000000000000000000000000000000000000000000001600030100110100000000000000000000000000030d4000000000000000000000",
          "blockHash": "0x099506d5ba78107c1fbe2e955343ea74eb324de9a4e85c8ba7ff6b1b09d7faa3",
          "blockNumber": "0x1636dec",
          "transactionHash": "0x991dcc2ff3a995432cf33c2f7afb96a9d8815674aa6fa0d1029f7f1e640b5c1c",
          "transactionIndex": "0x1",
          "logIndex": "0x8",
          "removed": false
        },
        {
          "address": "0x88aa7854d3b2daa5e37e7ce73a1f39669623a361",
          "topics": [
            "0x85496b760a4b7f8d66384b9df21b381f5d1b1e79f229a47aaf4c232edc2fe59a",
            "0x7457a846f2581dfe40680b0eff601a1d2533bf470aa05555810534043bdbe370",
            "0x000000000000000000000000741f0d8bde14140f62107fc60a0ee122b37d4630"
          ],
          "data": "0x00000000000000000000000000000000000000000000000000000000000076a2000000000000000000000000000000000000000000000000000009184e72a000000000000000000000000000000000000000000000000000000009184e72a000",
          "blockHash": "0x099506d5ba78107c1fbe2e955343ea74eb324de9a4e85c8ba7ff6b1b09d7faa3",
          "blockNumber": "0x1636dec",
          "transactionHash": "0x991dcc2ff3a995432cf33c2f7afb96a9d8815674aa6fa0d1029f7f1e640b5c1c",
          "transactionIndex": "0x1",
          "logIndex": "0x9",
          "removed": false
        },
        {
          "address": "0xfc00000000000000000000000000000000000006",
          "topics": [
            "0xddf252ad1be2c89b69c2b068fc378daa952ba7f163c4a11628f55a4df523b3ef",
            "0x000000000000000000000000741f0d8bde14140f62107fc60a0ee122b37d4630",
            "0x0000000000000000000000009abfe1f8a999b0011ecd6116649aee8d575f5604"
          ],
          "data": "0x000000000000000000000000000000000000000000000000000009184e72a000",
          "blockHash": "0x099506d5ba78107c1fbe2e955343ea74eb324de9a4e85c8ba7ff6b1b09d7faa3",
          "blockNumber": "0x1636dec",
          "transactionHash": "0x991dcc2ff3a995432cf33c2f7afb96a9d8815674aa6fa0d1029f7f1e640b5c1c",
          "transactionIndex": "0x1",
          "logIndex": "0xa",
          "removed": false
        },
        {
          "address": "0x377530cda84dfb2673bf4d145dcf0c4d7fdcb5b6",
          "topics": [
            "0x61ed099e74a97a1d7f8bb0952a88ca8b7b8ebd00c126ea04671f92a81213318a"
          ],
          "data": "0x00000000000000000000000041bdb4aa4a63a5b2efc531858d3118392b1a1c3d00000000000000000000000000000000000000000000000000346b21a10ad95e",
          "blockHash": "0x099506d5ba78107c1fbe2e955343ea74eb324de9a4e85c8ba7ff6b1b09d7faa3",
          "blockNumber": "0x1636dec",
          "transactionHash": "0x991dcc2ff3a995432cf33c2f7afb96a9d8815674aa6fa0d1029f7f1e640b5c1c",
          "transactionIndex": "0x1",
          "logIndex": "0xb",
          "removed": false
        },
        {
          "address": "0x377530cda84dfb2673bf4d145dcf0c4d7fdcb5b6",
          "topics": [
            "0x07ea52d82345d6e838192107d8fd7123d9c2ec8e916cd0aad13fd2b60db24644"
          ],
          "data": "0x000000000000000000000000000000000000000000000000000000000000006000000000000000000000000000000000000000000000000000000000000000e00000000000000000000000000000000000000000000000000000000000000100000000000000000000000000000000000000000000000000000000000000000300000000000000000000000026cd5abadf7ec3f0f02b48314bfca6b2342cddd4000000000000000000000000cce466a522984415bc91338c232d98869193d46e000000000000000000000000dd7b5e1db4aafd5c8ec3b764efb8ed265aa5445b00000000000000000000000000000000000000000000000000000000000000000000000000000000000000000000000000000000000000000000000000000003000000000000000000000000000000000000000000000000000bd42182c0424d000000000000000000000000000000000000000000000000000b59f82f7d3034000000000000000000000000000000000000000000000000000b59f82f7d3034",
          "blockHash": "0x099506d5ba78107c1fbe2e955343ea74eb324de9a4e85c8ba7ff6b1b09d7faa3",
          "blockNumber": "0x1636dec",
          "transactionHash": "0x991dcc2ff3a995432cf33c2f7afb96a9d8815674aa6fa0d1029f7f1e640b5c1c",
          "transactionIndex": "0x1",
          "logIndex": "0xc",
          "removed": false
        },
        {
          "address": "0x1a44076050125825900e736c501f859c50fe728c",
          "topics": [
            "0x1ab700d4ced0c005b164c0f789fd09fcbb0156d4c2041b8a3bfbcd961cd1567f"
          ],
          "data": "0x00000000000000000000000000000000000000000000000000000000000000600000000000000000000000000000000000000000000000000000000000000120000000000000000000000000377530cda84dfb2673bf4d145dcf0c4d7fdcb5b600000000000000000000000000000000000000000000000000000000000000990100000000000000020000762f0000000000000000000000009abfe1f8a999b0011ecd6116649aee8d575f5604000076a200000000000000000000000043edd7f3831b08fe70b7555ddd373c8bf65a9050a98031be86e2edd0f65804956a8b3d5b5573600c8ca7000fc3df0bf4bd536d35000000000000000000000000741f0d8bde14140f62107fc60a0ee122b37d4630000000000000000a00000000000000000000000000000000000000000000000000000000000000000000000000001600030100110100000000000000000000000000030d4000000000000000000000",
          "blockHash": "0x099506d5ba78107c1fbe2e955343ea74eb324de9a4e85c8ba7ff6b1b09d7faa3",
          "blockNumber": "0x1636dec",
          "transactionHash": "0x991dcc2ff3a995432cf33c2f7afb96a9d8815674aa6fa0d1029f7f1e640b5c1c",
          "transactionIndex": "0x1",
          "logIndex": "0xd",
          "removed": false
        },
        {
          "address": "0x9abfe1f8a999b0011ecd6116649aee8d575f5604",
          "topics": [
            "0x85496b760a4b7f8d66384b9df21b381f5d1b1e79f229a47aaf4c232edc2fe59a",
            "0xa98031be86e2edd0f65804956a8b3d5b5573600c8ca7000fc3df0bf4bd536d35",
            "0x000000000000000000000000741f0d8bde14140f62107fc60a0ee122b37d4630"
          ],
          "data": "0x00000000000000000000000000000000000000000000000000000000000076a2000000000000000000000000000000000000000000000000000009184e72a000000000000000000000000000000000000000000000000000000009184e72a000",
          "blockHash": "0x099506d5ba78107c1fbe2e955343ea74eb324de9a4e85c8ba7ff6b1b09d7faa3",
          "blockNumber": "0x1636dec",
          "transactionHash": "0x991dcc2ff3a995432cf33c2f7afb96a9d8815674aa6fa0d1029f7f1e640b5c1c",
          "transactionIndex": "0x1",
          "logIndex": "0xe",
          "removed": false
        },
        {
          "address": "0xfc00000000000000000000000000000000000005",
          "topics": [
            "0xddf252ad1be2c89b69c2b068fc378daa952ba7f163c4a11628f55a4df523b3ef",
            "0x000000000000000000000000741f0d8bde14140f62107fc60a0ee122b37d4630",
            "0x000000000000000000000000999dfabe3b1cc2ef66eb032eea42fea329bba168"
          ],
          "data": "0x000000000000000000000000000000000000000000000000000009184e72a000",
          "blockHash": "0x099506d5ba78107c1fbe2e955343ea74eb324de9a4e85c8ba7ff6b1b09d7faa3",
          "blockNumber": "0x1636dec",
          "transactionHash": "0x991dcc2ff3a995432cf33c2f7afb96a9d8815674aa6fa0d1029f7f1e640b5c1c",
          "transactionIndex": "0x1",
          "logIndex": "0xf",
          "removed": false
        },
        {
          "address": "0x377530cda84dfb2673bf4d145dcf0c4d7fdcb5b6",
          "topics": [
            "0x61ed099e74a97a1d7f8bb0952a88ca8b7b8ebd00c126ea04671f92a81213318a"
          ],
          "data": "0x00000000000000000000000041bdb4aa4a63a5b2efc531858d3118392b1a1c3d00000000000000000000000000000000000000000000000000346b21a10ad95e",
          "blockHash": "0x099506d5ba78107c1fbe2e955343ea74eb324de9a4e85c8ba7ff6b1b09d7faa3",
          "blockNumber": "0x1636dec",
          "transactionHash": "0x991dcc2ff3a995432cf33c2f7afb96a9d8815674aa6fa0d1029f7f1e640b5c1c",
          "transactionIndex": "0x1",
          "logIndex": "0x10",
          "removed": false
        },
        {
          "address": "0x377530cda84dfb2673bf4d145dcf0c4d7fdcb5b6",
          "topics": [
            "0x07ea52d82345d6e838192107d8fd7123d9c2ec8e916cd0aad13fd2b60db24644"
          ],
          "data": "0x000000000000000000000000000000000000000000000000000000000000006000000000000000000000000000000000000000000000000000000000000000e00000000000000000000000000000000000000000000000000000000000000100000000000000000000000000000000000000000000000000000000000000000300000000000000000000000026cd5abadf7ec3f0f02b48314bfca6b2342cddd4000000000000000000000000cce466a522984415bc91338c232d98869193d46e000000000000000000000000dd7b5e1db4aafd5c8ec3b764efb8ed265aa5445b00000000000000000000000000000000000000000000000000000000000000000000000000000000000000000000000000000000000000000000000000000003000000000000000000000000000000000000000000000000000bd42182c0424d000000000000000000000000000000000000000000000000000b59f82f7d3034000000000000000000000000000000000000000000000000000b59f82f7d3034",
          "blockHash": "0x099506d5ba78107c1fbe2e955343ea74eb324de9a4e85c8ba7ff6b1b09d7faa3",
          "blockNumber": "0x1636dec",
          "transactionHash": "0x991dcc2ff3a995432cf33c2f7afb96a9d8815674aa6fa0d1029f7f1e640b5c1c",
          "transactionIndex": "0x1",
          "logIndex": "0x11",
          "removed": false
        },
        {
          "address": "0x1a44076050125825900e736c501f859c50fe728c",
          "topics": [
            "0x1ab700d4ced0c005b164c0f789fd09fcbb0156d4c2041b8a3bfbcd961cd1567f"
          ],
          "data": "0x00000000000000000000000000000000000000000000000000000000000000600000000000000000000000000000000000000000000000000000000000000120000000000000000000000000377530cda84dfb2673bf4d145dcf0c4d7fdcb5b600000000000000000000000000000000000000000000000000000000000000990100000000000000020000762f000000000000000000000000999dfabe3b1cc2ef66eb032eea42fea329bba168000076a20000000000000000000000003ec3849c33291a9ef4c5db86de593eb4a37fde45f8cb938d65837b68d44d8c2660471bab2efc3aab112bd3e534475997073fe21f000000000000000000000000741f0d8bde14140f62107fc60a0ee122b37d4630000000000000000a00000000000000000000000000000000000000000000000000000000000000000000000000001600030100110100000000000000000000000000030d4000000000000000000000",
          "blockHash": "0x099506d5ba78107c1fbe2e955343ea74eb324de9a4e85c8ba7ff6b1b09d7faa3",
          "blockNumber": "0x1636dec",
          "transactionHash": "0x991dcc2ff3a995432cf33c2f7afb96a9d8815674aa6fa0d1029f7f1e640b5c1c",
          "transactionIndex": "0x1",
          "logIndex": "0x12",
          "removed": false
        },
        {
          "address": "0x999dfabe3b1cc2ef66eb032eea42fea329bba168",
          "topics": [
            "0x85496b760a4b7f8d66384b9df21b381f5d1b1e79f229a47aaf4c232edc2fe59a",
            "0xf8cb938d65837b68d44d8c2660471bab2efc3aab112bd3e534475997073fe21f",
            "0x000000000000000000000000741f0d8bde14140f62107fc60a0ee122b37d4630"
          ],
          "data": "0x00000000000000000000000000000000000000000000000000000000000076a2000000000000000000000000000000000000000000000000000009184e72a000000000000000000000000000000000000000000000000000000009184e72a000",
          "blockHash": "0x099506d5ba78107c1fbe2e955343ea74eb324de9a4e85c8ba7ff6b1b09d7faa3",
          "blockNumber": "0x1636dec",
          "transactionHash": "0x991dcc2ff3a995432cf33c2f7afb96a9d8815674aa6fa0d1029f7f1e640b5c1c",
          "transactionIndex": "0x1",
          "logIndex": "0x13",
          "removed": false
        },
        {
          "address": "0xfc00000000000000000000000000000000000002",
          "topics": [
            "0xddf252ad1be2c89b69c2b068fc378daa952ba7f163c4a11628f55a4df523b3ef",
            "0x000000000000000000000000741f0d8bde14140f62107fc60a0ee122b37d4630",
            "0x000000000000000000000000d86fbbd0c8715d2c1f40e451e5c3514e65e7576a"
          ],
          "data": "0x000000000000000000000000000000000000000000000000000009184e72a000",
          "blockHash": "0x099506d5ba78107c1fbe2e955343ea74eb324de9a4e85c8ba7ff6b1b09d7faa3",
          "blockNumber": "0x1636dec",
          "transactionHash": "0x991dcc2ff3a995432cf33c2f7afb96a9d8815674aa6fa0d1029f7f1e640b5c1c",
          "transactionIndex": "0x1",
          "logIndex": "0x14",
          "removed": false
        },
        {
          "address": "0x377530cda84dfb2673bf4d145dcf0c4d7fdcb5b6",
          "topics": [
            "0x61ed099e74a97a1d7f8bb0952a88ca8b7b8ebd00c126ea04671f92a81213318a"
          ],
          "data": "0x00000000000000000000000041bdb4aa4a63a5b2efc531858d3118392b1a1c3d00000000000000000000000000000000000000000000000000346b21a10ad95e",
          "blockHash": "0x099506d5ba78107c1fbe2e955343ea74eb324de9a4e85c8ba7ff6b1b09d7faa3",
          "blockNumber": "0x1636dec",
          "transactionHash": "0x991dcc2ff3a995432cf33c2f7afb96a9d8815674aa6fa0d1029f7f1e640b5c1c",
          "transactionIndex": "0x1",
          "logIndex": "0x15",
          "removed": false
        },
        {
          "address": "0x377530cda84dfb2673bf4d145dcf0c4d7fdcb5b6",
          "topics": [
            "0x07ea52d82345d6e838192107d8fd7123d9c2ec8e916cd0aad13fd2b60db24644"
          ],
          "data": "0x000000000000000000000000000000000000000000000000000000000000006000000000000000000000000000000000000000000000000000000000000000e00000000000000000000000000000000000000000000000000000000000000100000000000000000000000000000000000000000000000000000000000000000300000000000000000000000026cd5abadf7ec3f0f02b48314bfca6b2342cddd4000000000000000000000000cce466a522984415bc91338c232d98869193d46e000000000000000000000000dd7b5e1db4aafd5c8ec3b764efb8ed265aa5445b00000000000000000000000000000000000000000000000000000000000000000000000000000000000000000000000000000000000000000000000000000003000000000000000000000000000000000000000000000000000bd42182c0424d000000000000000000000000000000000000000000000000000b59f82f7d3034000000000000000000000000000000000000000000000000000b59f82f7d3034",
          "blockHash": "0x099506d5ba78107c1fbe2e955343ea74eb324de9a4e85c8ba7ff6b1b09d7faa3",
          "blockNumber": "0x1636dec",
          "transactionHash": "0x991dcc2ff3a995432cf33c2f7afb96a9d8815674aa6fa0d1029f7f1e640b5c1c",
          "transactionIndex": "0x1",
          "logIndex": "0x16",
          "removed": false
        },
        {
          "address": "0x1a44076050125825900e736c501f859c50fe728c",
          "topics": [
            "0x1ab700d4ced0c005b164c0f789fd09fcbb0156d4c2041b8a3bfbcd961cd1567f"
          ],
          "data": "0x00000000000000000000000000000000000000000000000000000000000000600000000000000000000000000000000000000000000000000000000000000120000000000000000000000000377530cda84dfb2673bf4d145dcf0c4d7fdcb5b600000000000000000000000000000000000000000000000000000000000000990100000000000000020000762f000000000000000000000000d86fbbd0c8715d2c1f40e451e5c3514e65e7576a000076a200000000000000000000000064445f0aecc51e94ad52d8ac56b7190e764e561aaa779ec6ce4c727d7382324f3a277141025ddc94bfe364194849b0a28110c073000000000000000000000000741f0d8bde14140f62107fc60a0ee122b37d4630000000000000000a00000000000000000000000000000000000000000000000000000000000000000000000000001600030100110100000000000000000000000000030d4000000000000000000000",
          "blockHash": "0x099506d5ba78107c1fbe2e955343ea74eb324de9a4e85c8ba7ff6b1b09d7faa3",
          "blockNumber": "0x1636dec",
          "transactionHash": "0x991dcc2ff3a995432cf33c2f7afb96a9d8815674aa6fa0d1029f7f1e640b5c1c",
          "transactionIndex": "0x1",
          "logIndex": "0x17",
          "removed": false
        },
        {
          "address": "0xd86fbbd0c8715d2c1f40e451e5c3514e65e7576a",
          "topics": [
            "0x85496b760a4b7f8d66384b9df21b381f5d1b1e79f229a47aaf4c232edc2fe59a",
            "0xaa779ec6ce4c727d7382324f3a277141025ddc94bfe364194849b0a28110c073",
            "0x000000000000000000000000741f0d8bde14140f62107fc60a0ee122b37d4630"
          ],
          "data": "0x00000000000000000000000000000000000000000000000000000000000076a2000000000000000000000000000000000000000000000000000009184e72a000000000000000000000000000000000000000000000000000000009184e72a000",
          "blockHash": "0x099506d5ba78107c1fbe2e955343ea74eb324de9a4e85c8ba7ff6b1b09d7faa3",
          "blockNumber": "0x1636dec",
          "transactionHash": "0x991dcc2ff3a995432cf33c2f7afb96a9d8815674aa6fa0d1029f7f1e640b5c1c",
          "transactionIndex": "0x1",
          "logIndex": "0x18",
          "removed": false
        },
        {
          "address": "0xfc00000000000000000000000000000000000003",
          "topics": [
            "0xddf252ad1be2c89b69c2b068fc378daa952ba7f163c4a11628f55a4df523b3ef",
            "0x000000000000000000000000741f0d8bde14140f62107fc60a0ee122b37d4630",
            "0x00000000000000000000000075c38d46001b0f8108c4136216bd2694982c20fc"
          ],
          "data": "0x000000000000000000000000000000000000000000000000000009184e72a000",
          "blockHash": "0x099506d5ba78107c1fbe2e955343ea74eb324de9a4e85c8ba7ff6b1b09d7faa3",
          "blockNumber": "0x1636dec",
          "transactionHash": "0x991dcc2ff3a995432cf33c2f7afb96a9d8815674aa6fa0d1029f7f1e640b5c1c",
          "transactionIndex": "0x1",
          "logIndex": "0x19",
          "removed": false
        },
        {
          "address": "0x377530cda84dfb2673bf4d145dcf0c4d7fdcb5b6",
          "topics": [
            "0x61ed099e74a97a1d7f8bb0952a88ca8b7b8ebd00c126ea04671f92a81213318a"
          ],
          "data": "0x00000000000000000000000041bdb4aa4a63a5b2efc531858d3118392b1a1c3d00000000000000000000000000000000000000000000000000346b21a10ad95e",
          "blockHash": "0x099506d5ba78107c1fbe2e955343ea74eb324de9a4e85c8ba7ff6b1b09d7faa3",
          "blockNumber": "0x1636dec",
          "transactionHash": "0x991dcc2ff3a995432cf33c2f7afb96a9d8815674aa6fa0d1029f7f1e640b5c1c",
          "transactionIndex": "0x1",
          "logIndex": "0x1a",
          "removed": false
        },
        {
          "address": "0x377530cda84dfb2673bf4d145dcf0c4d7fdcb5b6",
          "topics": [
            "0x07ea52d82345d6e838192107d8fd7123d9c2ec8e916cd0aad13fd2b60db24644"
          ],
          "data": "0x000000000000000000000000000000000000000000000000000000000000006000000000000000000000000000000000000000000000000000000000000000e00000000000000000000000000000000000000000000000000000000000000100000000000000000000000000000000000000000000000000000000000000000300000000000000000000000026cd5abadf7ec3f0f02b48314bfca6b2342cddd4000000000000000000000000cce466a522984415bc91338c232d98869193d46e000000000000000000000000dd7b5e1db4aafd5c8ec3b764efb8ed265aa5445b00000000000000000000000000000000000000000000000000000000000000000000000000000000000000000000000000000000000000000000000000000003000000000000000000000000000000000000000000000000000bd42182c0424d000000000000000000000000000000000000000000000000000b59f82f7d3034000000000000000000000000000000000000000000000000000b59f82f7d3034",
          "blockHash": "0x099506d5ba78107c1fbe2e955343ea74eb324de9a4e85c8ba7ff6b1b09d7faa3",
          "blockNumber": "0x1636dec",
          "transactionHash": "0x991dcc2ff3a995432cf33c2f7afb96a9d8815674aa6fa0d1029f7f1e640b5c1c",
          "transactionIndex": "0x1",
          "logIndex": "0x1b",
          "removed": false
        },
        {
          "address": "0x1a44076050125825900e736c501f859c50fe728c",
          "topics": [
            "0x1ab700d4ced0c005b164c0f789fd09fcbb0156d4c2041b8a3bfbcd961cd1567f"
          ],
          "data": "0x00000000000000000000000000000000000000000000000000000000000000600000000000000000000000000000000000000000000000000000000000000120000000000000000000000000377530cda84dfb2673bf4d145dcf0c4d7fdcb5b600000000000000000000000000000000000000000000000000000000000000990100000000000000020000762f00000000000000000000000075c38d46001b0f8108c4136216bd2694982c20fc000076a200000000000000000000000090581eca9469d8d7f5d3b60f4715027adfcf792770b2f4e6d345f388267ace5eed15ada5829c47555b0b39c8b1b5a8328b6b05f3000000000000000000000000741f0d8bde14140f62107fc60a0ee122b37d4630000000000000000a00000000000000000000000000000000000000000000000000000000000000000000000000001600030100110100000000000000000000000000030d4000000000000000000000",
          "blockHash": "0x099506d5ba78107c1fbe2e955343ea74eb324de9a4e85c8ba7ff6b1b09d7faa3",
          "blockNumber": "0x1636dec",
          "transactionHash": "0x991dcc2ff3a995432cf33c2f7afb96a9d8815674aa6fa0d1029f7f1e640b5c1c",
          "transactionIndex": "0x1",
          "logIndex": "0x1c",
          "removed": false
        },
        {
          "address": "0x75c38d46001b0f8108c4136216bd2694982c20fc",
          "topics": [
            "0x85496b760a4b7f8d66384b9df21b381f5d1b1e79f229a47aaf4c232edc2fe59a",
            "0x70b2f4e6d345f388267ace5eed15ada5829c47555b0b39c8b1b5a8328b6b05f3",
            "0x000000000000000000000000741f0d8bde14140f62107fc60a0ee122b37d4630"
          ],
          "data": "0x00000000000000000000000000000000000000000000000000000000000076a2000000000000000000000000000000000000000000000000000009184e72a000000000000000000000000000000000000000000000000000000009184e72a000",
          "blockHash": "0x099506d5ba78107c1fbe2e955343ea74eb324de9a4e85c8ba7ff6b1b09d7faa3",
          "blockNumber": "0x1636dec",
          "transactionHash": "0x991dcc2ff3a995432cf33c2f7afb96a9d8815674aa6fa0d1029f7f1e640b5c1c",
          "transactionIndex": "0x1",
          "logIndex": "0x1d",
          "removed": false
        }
      ],
      "logsBloom": "0x04004000000000200000000000000140100000000040040020002004005000000200000000100000800000000080400000040100000180000000000000000000200002204000000000000008400800000100000001000000090800000000000000000000000400008000100000a88000000000000010000000000410008000000400000000000000050000090080002000004008000000248000000000100008000000008014001000100100040000000000000000400000100440040000000000000002200000000840000480000000000010008000000000000000000000002801040004000000000000000121002000000000018000400000000000000000",
      "type": "0x2",
      "transactionHash": "0x991dcc2ff3a995432cf33c2f7afb96a9d8815674aa6fa0d1029f7f1e640b5c1c",
      "transactionIndex": "0x1",
      "blockHash": "0x099506d5ba78107c1fbe2e955343ea74eb324de9a4e85c8ba7ff6b1b09d7faa3",
      "blockNumber": "0x1636dec",
      "gasUsed": "0x19e537",
      "effectiveGasPrice": "0xfe",
      "from": "0x45dce8e4f2dc005a5f28206a46cb034697eeda8e",
      "to": "0x741f0d8bde14140f62107fc60a0ee122b37d4630",
      "contractAddress": null,
      "l1BaseFeeScalar": "0x2faf080",
      "l1BlobBaseFee": "0x1",
      "l1BlobBaseFeeScalar": "0x0",
      "l1Fee": "0x49d73fb2705b",
      "l1GasPrice": "0x133a4c08",
      "l1GasUsed": "0x13a9"
    }
  ],
  "libraries": [],
  "pending": [],
  "returns": {},
  "timestamp": 1753397552,
  "chain": 252,
  "commit": "26d2116"
}