{
  "transactions": [
    {
      "hash": "0x81a69361701ca865505e34267232e34b3046d3e44d2e419835aed3a9f328771d",
      "transactionType": "CALL",
      "contractName": null,
      "contractAddress": "0x741f0d8bde14140f62107fc60a0ee122b37d4630",
      "function": "batchBridgeWithEthFeeFromWallet((uint32,bytes32,uint256,uint256,bytes,bytes,bytes)[],address[],address[])",
      "arguments": [
        "[(30280, 0x000000000000000000000000741f0d8bde14140f62107fc60a0ee122b37d4630, 10000000000000, 0, 0x, 0x, 0x), (30280, 0x000000000000000000000000741f0d8bde14140f62107fc60a0ee122b37d4630, 10000000000000, 0, 0x, 0x, 0x), (30280, 0x000000000000000000000000741f0d8bde14140f62107fc60a0ee122b37d4630, 10000000000000, 0, 0x, 0x, 0x), (30280, 0x000000000000000000000000741f0d8bde14140f62107fc60a0ee122b37d4630, 10000000000000, 0, 0x, 0x, 0x), (30280, 0x000000000000000000000000741f0d8bde14140f62107fc60a0ee122b37d4630, 10000000000000, 0, 0x, 0x, 0x), (30280, 0x000000000000000000000000741f0d8bde14140f62107fc60a0ee122b37d4630, 10000000000000, 0, 0x, 0x, 0x)]",
        "[0xd86fBBd0c8715d2C1f40e451e5C3514e65E7576A, 0x88Aa7854D3b2dAA5e37E7Ce73A1F39669623a361, 0x999dfAbe3b1cc2EF66eB032Eea42FeA329bBa168, 0x96A394058E2b84A89bac9667B19661Ed003cF5D4, 0x9aBFE1F8a999B0011ecD6116649AEe8D575F5604, 0x75c38D46001b0F8108c4136216bd2694982C20FC]",
        "[0x741F0d8Bde14140f62107FC60A0EE122B37D4630, 0x741F0d8Bde14140f62107FC60A0EE122B37D4630, 0x741F0d8Bde14140f62107FC60A0EE122B37D4630, 0x741F0d8Bde14140f62107FC60A0EE122B37D4630, 0x741F0d8Bde14140f62107FC60A0EE122B37D4630, 0x741F0d8Bde14140f62107FC60A0EE122B37D4630]"
      ],
      "transaction": {
        "from": "0x45dce8e4f2dc005a5f28206a46cb034697eeda8e",
        "to": "0x741f0d8bde14140f62107fc60a0ee122b37d4630",
        "gas": "0x27920f",
        "value": "0x278e9343be19f8c",
        "input": "0xb70d4241000000000000000000000000000000000000000000000000000000000000006000000000000000000000000000000000000000000000000000000000000008c000000000000000000000000000000000000000000000000000000000000009a0000000000000000000000000000000000000000000000000000000000000000600000000000000000000000000000000000000000000000000000000000000c000000000000000000000000000000000000000000000000000000000000002000000000000000000000000000000000000000000000000000000000000000340000000000000000000000000000000000000000000000000000000000000048000000000000000000000000000000000000000000000000000000000000005c000000000000000000000000000000000000000000000000000000000000007000000000000000000000000000000000000000000000000000000000000007648000000000000000000000000741f0d8bde14140f62107fc60a0ee122b37d4630000000000000000000000000000000000000000000000000000009184e72a000000000000000000000000000000000000000000000000000000000000000000000000000000000000000000000000000000000000000000000000000000000e0000000000000000000000000000000000000000000000000000000000000010000000000000000000000000000000000000000000000000000000000000001200000000000000000000000000000000000000000000000000000000000000000000000000000000000000000000000000000000000000000000000000000000000000000000000000000000000000000000000000000000000000000000000000000000000000000000000000000000000000000000000000000000000007648000000000000000000000000741f0d8bde14140f62107fc60a0ee122b37d4630000000000000000000000000000000000000000000000000000009184e72a000000000000000000000000000000000000000000000000000000000000000000000000000000000000000000000000000000000000000000000000000000000e0000000000000000000000000000000000000000000000000000000000000010000000000000000000000000000000000000000000000000000000000000001200000000000000000000000000000000000000000000000000000000000000000000000000000000000000000000000000000000000000000000000000000000000000000000000000000000000000000000000000000000000000000000000000000000000000000000000000000000000000000000000000000000000007648000000000000000000000000741f0d8bde14140f62107fc60a0ee122b37d4630000000000000000000000000000000000000000000000000000009184e72a000000000000000000000000000000000000000000000000000000000000000000000000000000000000000000000000000000000000000000000000000000000e0000000000000000000000000000000000000000000000000000000000000010000000000000000000000000000000000000000000000000000000000000001200000000000000000000000000000000000000000000000000000000000000000000000000000000000000000000000000000000000000000000000000000000000000000000000000000000000000000000000000000000000000000000000000000000000000000000000000000000000000000000000000000000000007648000000000000000000000000741f0d8bde14140f62107fc60a0ee122b37d4630000000000000000000000000000000000000000000000000000009184e72a000000000000000000000000000000000000000000000000000000000000000000000000000000000000000000000000000000000000000000000000000000000e0000000000000000000000000000000000000000000000000000000000000010000000000000000000000000000000000000000000000000000000000000001200000000000000000000000000000000000000000000000000000000000000000000000000000000000000000000000000000000000000000000000000000000000000000000000000000000000000000000000000000000000000000000000000000000000000000000000000000000000000000000000000000000000007648000000000000000000000000741f0d8bde14140f62107fc60a0ee122b37d4630000000000000000000000000000000000000000000000000000009184e72a000000000000000000000000000000000000000000000000000000000000000000000000000000000000000000000000000000000000000000000000000000000e0000000000000000000000000000000000000000000000000000000000000010000000000000000000000000000000000000000000000000000000000000001200000000000000000000000000000000000000000000000000000000000000000000000000000000000000000000000000000000000000000000000000000000000000000000000000000000000000000000000000000000000000000000000000000000000000000000000000000000000000000000000000000000000007648000000000000000000000000741f0d8bde14140f62107fc60a0ee122b37d4630000000000000000000000000000000000000000000000000000009184e72a000000000000000000000000000000000000000000000000000000000000000000000000000000000000000000000000000000000000000000000000000000000e0000000000000000000000000000000000000000000000000000000000000010000000000000000000000000000000000000000000000000000000000000001200000000000000000000000000000000000000000000000000000000000000000000000000000000000000000000000000000000000000000000000000000000000000000000000000000000000000000000000000000000000000000000000000000000000000000000000000000000000000000000000000000000000000006000000000000000000000000d86fbbd0c8715d2c1f40e451e5c3514e65e7576a00000000000000000000000088aa7854d3b2daa5e37e7ce73a1f39669623a361000000000000000000000000999dfabe3b1cc2ef66eb032eea42fea329bba16800000000000000000000000096a394058e2b84a89bac9667b19661ed003cf5d40000000000000000000000009abfe1f8a999b0011ecd6116649aee8d575f560400000000000000000000000075c38d46001b0f8108c4136216bd2694982c20fc0000000000000000000000000000000000000000000000000000000000000006000000000000000000000000741f0d8bde14140f62107fc60a0ee122b37d4630000000000000000000000000741f0d8bde14140f62107fc60a0ee122b37d4630000000000000000000000000741f0d8bde14140f62107fc60a0ee122b37d4630000000000000000000000000741f0d8bde14140f62107fc60a0ee122b37d4630000000000000000000000000741f0d8bde14140f62107fc60a0ee122b37d4630000000000000000000000000741f0d8bde14140f62107fc60a0ee122b37d4630",
        "nonce": "0x101",
        "chainId": "0xfc"
      },
      "additionalContracts": [],
      "isFixedGasLimit": false
    }
  ],
  "receipts": [
    {
      "status": "0x1",
      "cumulativeGasUsed": "0x1bcb79",
      "logs": [
        {
          "address": "0xfc00000000000000000000000000000000000002",
          "topics": [
            "0xddf252ad1be2c89b69c2b068fc378daa952ba7f163c4a11628f55a4df523b3ef",
            "0x000000000000000000000000741f0d8bde14140f62107fc60a0ee122b37d4630",
            "0x000000000000000000000000d86fbbd0c8715d2c1f40e451e5c3514e65e7576a"
          ],
          "data": "0x000000000000000000000000000000000000000000000000000009184e72a000",
          "blockHash": "0x5cd73d8e84e8a1f7e7a5588b1e44a6a8d9c0fcc4c24c90f01f73c8ddb9a6347e",
          "blockNumber": "0x1ed441d",
          "blockTimestamp": "0x69966591",
          "transactionHash": "0x81a69361701ca865505e34267232e34b3046d3e44d2e419835aed3a9f328771d",
          "transactionIndex": "0x1",
          "logIndex": "0x0",
          "removed": false
        },
        {
          "address": "0x377530cda84dfb2673bf4d145dcf0c4d7fdcb5b6",
          "topics": [
            "0x61ed099e74a97a1d7f8bb0952a88ca8b7b8ebd00c126ea04671f92a81213318a"
          ],
          "data": "0x00000000000000000000000041bdb4aa4a63a5b2efc531858d3118392b1a1c3d0000000000000000000000000000000000000000000000000068390ff592bfc0",
          "blockHash": "0x5cd73d8e84e8a1f7e7a5588b1e44a6a8d9c0fcc4c24c90f01f73c8ddb9a6347e",
          "blockNumber": "0x1ed441d",
          "blockTimestamp": "0x69966591",
          "transactionHash": "0x81a69361701ca865505e34267232e34b3046d3e44d2e419835aed3a9f328771d",
          "transactionIndex": "0x1",
          "logIndex": "0x1",
          "removed": false
        },
        {
          "address": "0x377530cda84dfb2673bf4d145dcf0c4d7fdcb5b6",
          "topics": [
            "0x07ea52d82345d6e838192107d8fd7123d9c2ec8e916cd0aad13fd2b60db24644"
          ],
          "data": "0x000000000000000000000000000000000000000000000000000000000000006000000000000000000000000000000000000000000000000000000000000000e00000000000000000000000000000000000000000000000000000000000000100000000000000000000000000000000000000000000000000000000000000000300000000000000000000000026cd5abadf7ec3f0f02b48314bfca6b2342cddd4000000000000000000000000cce466a522984415bc91338c232d98869193d46e000000000000000000000000dd7b5e1db4aafd5c8ec3b764efb8ed265aa5445b0000000000000000000000000000000000000000000000000000000000000000000000000000000000000000000000000000000000000000000000000000000300000000000000000000000000000000000000000000000000006eb093cece5800000000000000000000000000000000000000000000000000006a396af75b9500000000000000000000000000000000000000000000000000006a396af75b95",
          "blockHash": "0x5cd73d8e84e8a1f7e7a5588b1e44a6a8d9c0fcc4c24c90f01f73c8ddb9a6347e",
          "blockNumber": "0x1ed441d",
          "blockTimestamp": "0x69966591",
          "transactionHash": "0x81a69361701ca865505e34267232e34b3046d3e44d2e419835aed3a9f328771d",
          "transactionIndex": "0x1",
          "logIndex": "0x2",
          "removed": false
        },
        {
          "address": "0x1a44076050125825900e736c501f859c50fe728c",
          "topics": [
            "0x1ab700d4ced0c005b164c0f789fd09fcbb0156d4c2041b8a3bfbcd961cd1567f"
          ],
          "data": "0x00000000000000000000000000000000000000000000000000000000000000600000000000000000000000000000000000000000000000000000000000000120000000000000000000000000377530cda84dfb2673bf4d145dcf0c4d7fdcb5b6000000000000000000000000000000000000000000000000000000000000009901000000000000004e0000762f000000000000000000000000d86fbbd0c8715d2c1f40e451e5c3514e65e7576a0000764800000000000000000000000064445f0aecc51e94ad52d8ac56b7190e764e561a6fbe3b6acbb55cc24be34c76c23d7a1e9ae909fb27bd107253e58223fdcfe1f0000000000000000000000000741f0d8bde14140f62107fc60a0ee122b37d4630000000000000000a000000000000000000000000000000000000000000000000000000000000000000000000000016000301001101000000000000000000000000000493e000000000000000000000",
          "blockHash": "0x5cd73d8e84e8a1f7e7a5588b1e44a6a8d9c0fcc4c24c90f01f73c8ddb9a6347e",
          "blockNumber": "0x1ed441d",
          "blockTimestamp": "0x69966591",
          "transactionHash": "0x81a69361701ca865505e34267232e34b3046d3e44d2e419835aed3a9f328771d",
          "transactionIndex": "0x1",
          "logIndex": "0x3",
          "removed": false
        },
        {
          "address": "0xd86fbbd0c8715d2c1f40e451e5c3514e65e7576a",
          "topics": [
            "0x85496b760a4b7f8d66384b9df21b381f5d1b1e79f229a47aaf4c232edc2fe59a",
            "0x6fbe3b6acbb55cc24be34c76c23d7a1e9ae909fb27bd107253e58223fdcfe1f0",
            "0x000000000000000000000000741f0d8bde14140f62107fc60a0ee122b37d4630"
          ],
          "data": "0x0000000000000000000000000000000000000000000000000000000000007648000000000000000000000000000000000000000000000000000009184e72a000000000000000000000000000000000000000000000000000000009184e72a000",
          "blockHash": "0x5cd73d8e84e8a1f7e7a5588b1e44a6a8d9c0fcc4c24c90f01f73c8ddb9a6347e",
          "blockNumber": "0x1ed441d",
          "blockTimestamp": "0x69966591",
          "transactionHash": "0x81a69361701ca865505e34267232e34b3046d3e44d2e419835aed3a9f328771d",
          "transactionIndex": "0x1",
          "logIndex": "0x4",
          "removed": false
        },
        {
          "address": "0x88aa7854d3b2daa5e37e7ce73a1f39669623a361",
          "topics": [
            "0x603e191ccb1fad1c0004c9c1f37101358f84c3cf059031e9ec9b0c17cad34188",
            "0x0000000000000000000000000000000000000000000000000000000000007648"
          ],
          "data": "0x0000000000000000000000000000000000000000000029df1667fcc355577000000000000000000000000000000000000000000000000000000009184e72a000",
          "blockHash": "0x5cd73d8e84e8a1f7e7a5588b1e44a6a8d9c0fcc4c24c90f01f73c8ddb9a6347e",
          "blockNumber": "0x1ed441d",
          "blockTimestamp": "0x69966591",
          "transactionHash": "0x81a69361701ca865505e34267232e34b3046d3e44d2e419835aed3a9f328771d",
          "transactionIndex": "0x1",
          "logIndex": "0x5",
          "removed": false
        },
        {
          "address": "0x88aa7854d3b2daa5e37e7ce73a1f39669623a361",
          "topics": [
            "0xd2ff7607bbad14e866630d67da40c9a9cedd964cce5ce4c3dc4176133954ef98"
          ],
          "data": "0x000000000000000000000000000000000000000000110d8ad16bda247f483000000000000000000000000000000000000000000000000000000009184e72a000",
          "blockHash": "0x5cd73d8e84e8a1f7e7a5588b1e44a6a8d9c0fcc4c24c90f01f73c8ddb9a6347e",
          "blockNumber": "0x1ed441d",
          "blockTimestamp": "0x69966591",
          "transactionHash": "0x81a69361701ca865505e34267232e34b3046d3e44d2e419835aed3a9f328771d",
          "transactionIndex": "0x1",
          "logIndex": "0x6",
          "removed": false
        },
        {
          "address": "0xfc00000000000000000000000000000000000008",
          "topics": [
            "0xddf252ad1be2c89b69c2b068fc378daa952ba7f163c4a11628f55a4df523b3ef",
            "0x000000000000000000000000741f0d8bde14140f62107fc60a0ee122b37d4630",
            "0x0000000000000000000000000000000000000000000000000000000000000000"
          ],
          "data": "0x000000000000000000000000000000000000000000000000000009184e72a000",
          "blockHash": "0x5cd73d8e84e8a1f7e7a5588b1e44a6a8d9c0fcc4c24c90f01f73c8ddb9a6347e",
          "blockNumber": "0x1ed441d",
          "blockTimestamp": "0x69966591",
          "transactionHash": "0x81a69361701ca865505e34267232e34b3046d3e44d2e419835aed3a9f328771d",
          "transactionIndex": "0x1",
          "logIndex": "0x7",
          "removed": false
        },
        {
          "address": "0xfc00000000000000000000000000000000000008",
          "topics": [
            "0xdc7fd22bc401e7c6b9be2c2736286a2a42ea0c6307bc97ff0fb12bd0abd2c747",
            "0x000000000000000000000000741f0d8bde14140f62107fc60a0ee122b37d4630",
            "0x00000000000000000000000088aa7854d3b2daa5e37e7ce73a1f39669623a361"
          ],
          "data": "0x000000000000000000000000000000000000000000000000000009184e72a000",
          "blockHash": "0x5cd73d8e84e8a1f7e7a5588b1e44a6a8d9c0fcc4c24c90f01f73c8ddb9a6347e",
          "blockNumber": "0x1ed441d",
          "blockTimestamp": "0x69966591",
          "transactionHash": "0x81a69361701ca865505e34267232e34b3046d3e44d2e419835aed3a9f328771d",
          "transactionIndex": "0x1",
          "logIndex": "0x8",
          "removed": false
        },
        {
          "address": "0x377530cda84dfb2673bf4d145dcf0c4d7fdcb5b6",
          "topics": [
            "0x61ed099e74a97a1d7f8bb0952a88ca8b7b8ebd00c126ea04671f92a81213318a"
          ],
          "data": "0x00000000000000000000000041bdb4aa4a63a5b2efc531858d3118392b1a1c3d0000000000000000000000000000000000000000000000000068390ff592bfc0",
          "blockHash": "0x5cd73d8e84e8a1f7e7a5588b1e44a6a8d9c0fcc4c24c90f01f73c8ddb9a6347e",
          "blockNumber": "0x1ed441d",
          "blockTimestamp": "0x69966591",
          "transactionHash": "0x81a69361701ca865505e34267232e34b3046d3e44d2e419835aed3a9f328771d",
          "transactionIndex": "0x1",
          "logIndex": "0x9",
          "removed": false
        },
        {
          "address": "0x377530cda84dfb2673bf4d145dcf0c4d7fdcb5b6",
          "topics": [
            "0x07ea52d82345d6e838192107d8fd7123d9c2ec8e916cd0aad13fd2b60db24644"
          ],
          "data": "0x000000000000000000000000000000000000000000000000000000000000006000000000000000000000000000000000000000000000000000000000000000e00000000000000000000000000000000000000000000000000000000000000100000000000000000000000000000000000000000000000000000000000000000300000000000000000000000026cd5abadf7ec3f0f02b48314bfca6b2342cddd4000000000000000000000000cce466a522984415bc91338c232d98869193d46e000000000000000000000000dd7b5e1db4aafd5c8ec3b764efb8ed265aa5445b0000000000000000000000000000000000000000000000000000000000000000000000000000000000000000000000000000000000000000000000000000000300000000000000000000000000000000000000000000000000006eb093cece5800000000000000000000000000000000000000000000000000006a396af75b9500000000000000000000000000000000000000000000000000006a396af75b95",
          "blockHash": "0x5cd73d8e84e8a1f7e7a5588b1e44a6a8d9c0fcc4c24c90f01f73c8ddb9a6347e",
          "blockNumber": "0x1ed441d",
          "blockTimestamp": "0x69966591",
          "transactionHash": "0x81a69361701ca865505e34267232e34b3046d3e44d2e419835aed3a9f328771d",
          "transactionIndex": "0x1",
          "logIndex": "0xa",
          "removed": false
        },
        {
          "address": "0x1a44076050125825900e736c501f859c50fe728c",
          "topics": [
            "0x1ab700d4ced0c005b164c0f789fd09fcbb0156d4c2041b8a3bfbcd961cd1567f"
          ],
          "data": "0x00000000000000000000000000000000000000000000000000000000000000600000000000000000000000000000000000000000000000000000000000000120000000000000000000000000377530cda84dfb2673bf4d145dcf0c4d7fdcb5b600000000000000000000000000000000000000000000000000000000000000990100000000000001080000762f00000000000000000000000088aa7854d3b2daa5e37e7ce73a1f39669623a361000076480000000000000000000000005bff88ca1442c2496f7e475e9e7786383bc070c02bd6a3e49816db3d296623f6eec1580bf0b73073cb266ed04481093535090d09000000000000000000000000741f0d8bde14140f62107fc60a0ee122b37d4630000000000000000a000000000000000000000000000000000000000000000000000000000000000000000000000016000301001101000000000000000000000000000493e000000000000000000000",
          "blockHash": "0x5cd73d8e84e8a1f7e7a5588b1e44a6a8d9c0fcc4c24c90f01f73c8ddb9a6347e",
          "blockNumber": "0x1ed441d",
          "blockTimestamp": "0x69966591",
          "transactionHash": "0x81a69361701ca865505e34267232e34b3046d3e44d2e419835aed3a9f328771d",
          "transactionIndex": "0x1",
          "logIndex": "0xb",
          "removed": false
        },
        {
          "address": "0x88aa7854d3b2daa5e37e7ce73a1f39669623a361",
          "topics": [
            "0x85496b760a4b7f8d66384b9df21b381f5d1b1e79f229a47aaf4c232edc2fe59a",
            "0x2bd6a3e49816db3d296623f6eec1580bf0b73073cb266ed04481093535090d09",
            "0x000000000000000000000000741f0d8bde14140f62107fc60a0ee122b37d4630"
          ],
          "data": "0x0000000000000000000000000000000000000000000000000000000000007648000000000000000000000000000000000000000000000000000009184e72a000000000000000000000000000000000000000000000000000000009184e72a000",
          "blockHash": "0x5cd73d8e84e8a1f7e7a5588b1e44a6a8d9c0fcc4c24c90f01f73c8ddb9a6347e",
          "blockNumber": "0x1ed441d",
          "blockTimestamp": "0x69966591",
          "transactionHash": "0x81a69361701ca865505e34267232e34b3046d3e44d2e419835aed3a9f328771d",
          "transactionIndex": "0x1",
          "logIndex": "0xc",
          "removed": false
        },
        {
          "address": "0xfc00000000000000000000000000000000000005",
          "topics": [
            "0xddf252ad1be2c89b69c2b068fc378daa952ba7f163c4a11628f55a4df523b3ef",
            "0x000000000000000000000000741f0d8bde14140f62107fc60a0ee122b37d4630",
            "0x000000000000000000000000999dfabe3b1cc2ef66eb032eea42fea329bba168"
          ],
          "data": "0x000000000000000000000000000000000000000000000000000009184e72a000",
          "blockHash": "0x5cd73d8e84e8a1f7e7a5588b1e44a6a8d9c0fcc4c24c90f01f73c8ddb9a6347e",
          "blockNumber": "0x1ed441d",
          "blockTimestamp": "0x69966591",
          "transactionHash": "0x81a69361701ca865505e34267232e34b3046d3e44d2e419835aed3a9f328771d",
          "transactionIndex": "0x1",
          "logIndex": "0xd",
          "removed": false
        },
        {
          "address": "0x377530cda84dfb2673bf4d145dcf0c4d7fdcb5b6",
          "topics": [
            "0x61ed099e74a97a1d7f8bb0952a88ca8b7b8ebd00c126ea04671f92a81213318a"
          ],
          "data": "0x00000000000000000000000041bdb4aa4a63a5b2efc531858d3118392b1a1c3d0000000000000000000000000000000000000000000000000068390ff592bfc0",
          "blockHash": "0x5cd73d8e84e8a1f7e7a5588b1e44a6a8d9c0fcc4c24c90f01f73c8ddb9a6347e",
          "blockNumber": "0x1ed441d",
          "blockTimestamp": "0x69966591",
          "transactionHash": "0x81a69361701ca865505e34267232e34b3046d3e44d2e419835aed3a9f328771d",
          "transactionIndex": "0x1",
          "logIndex": "0xe",
          "removed": false
        },
        {
          "address": "0x377530cda84dfb2673bf4d145dcf0c4d7fdcb5b6",
          "topics": [
            "0x07ea52d82345d6e838192107d8fd7123d9c2ec8e916cd0aad13fd2b60db24644"
          ],
          "data": "0x000000000000000000000000000000000000000000000000000000000000006000000000000000000000000000000000000000000000000000000000000000e00000000000000000000000000000000000000000000000000000000000000100000000000000000000000000000000000000000000000000000000000000000300000000000000000000000026cd5abadf7ec3f0f02b48314bfca6b2342cddd4000000000000000000000000cce466a522984415bc91338c232d98869193d46e000000000000000000000000dd7b5e1db4aafd5c8ec3b764efb8ed265aa5445b0000000000000000000000000000000000000000000000000000000000000000000000000000000000000000000000000000000000000000000000000000000300000000000000000000000000000000000000000000000000006eb093cece5800000000000000000000000000000000000000000000000000006a396af75b9500000000000000000000000000000000000000000000000000006a396af75b95",
          "blockHash": "0x5cd73d8e84e8a1f7e7a5588b1e44a6a8d9c0fcc4c24c90f01f73c8ddb9a6347e",
          "blockNumber": "0x1ed441d",
          "blockTimestamp": "0x69966591",
          "transactionHash": "0x81a69361701ca865505e34267232e34b3046d3e44d2e419835aed3a9f328771d",
          "transactionIndex": "0x1",
          "logIndex": "0xf",
          "removed": false
        },
        {
          "address": "0x1a44076050125825900e736c501f859c50fe728c",
          "topics": [
            "0x1ab700d4ced0c005b164c0f789fd09fcbb0156d4c2041b8a3bfbcd961cd1567f"
          ],
          "data": "0x00000000000000000000000000000000000000000000000000000000000000600000000000000000000000000000000000000000000000000000000000000120000000000000000000000000377530cda84dfb2673bf4d145dcf0c4d7fdcb5b6000000000000000000000000000000000000000000000000000000000000009901000000000000000e0000762f000000000000000000000000999dfabe3b1cc2ef66eb032eea42fea329bba168000076480000000000000000000000003ec3849c33291a9ef4c5db86de593eb4a37fde45071d6a283d8cd4c8090bfd202f6b24737a07dedb8a7a9f0b5d64bd8368e0d30f000000000000000000000000741f0d8bde14140f62107fc60a0ee122b37d4630000000000000000a000000000000000000000000000000000000000000000000000000000000000000000000000016000301001101000000000000000000000000000493e000000000000000000000",
          "blockHash": "0x5cd73d8e84e8a1f7e7a5588b1e44a6a8d9c0fcc4c24c90f01f73c8ddb9a6347e",
          "blockNumber": "0x1ed441d",
          "blockTimestamp": "0x69966591",
          "transactionHash": "0x81a69361701ca865505e34267232e34b3046d3e44d2e419835aed3a9f328771d",
          "transactionIndex": "0x1",
          "logIndex": "0x10",
          "removed": false
        },
        {
          "address": "0x999dfabe3b1cc2ef66eb032eea42fea329bba168",
          "topics": [
            "0x85496b760a4b7f8d66384b9df21b381f5d1b1e79f229a47aaf4c232edc2fe59a",
            "0x071d6a283d8cd4c8090bfd202f6b24737a07dedb8a7a9f0b5d64bd8368e0d30f",
            "0x000000000000000000000000741f0d8bde14140f62107fc60a0ee122b37d4630"
          ],
          "data": "0x0000000000000000000000000000000000000000000000000000000000007648000000000000000000000000000000000000000000000000000009184e72a000000000000000000000000000000000000000000000000000000009184e72a000",
          "blockHash": "0x5cd73d8e84e8a1f7e7a5588b1e44a6a8d9c0fcc4c24c90f01f73c8ddb9a6347e",
          "blockNumber": "0x1ed441d",
          "blockTimestamp": "0x69966591",
          "transactionHash": "0x81a69361701ca865505e34267232e34b3046d3e44d2e419835aed3a9f328771d",
          "transactionIndex": "0x1",
          "logIndex": "0x11",
          "removed": false
        },
        {
          "address": "0x96a394058e2b84a89bac9667b19661ed003cf5d4",
          "topics": [
            "0x603e191ccb1fad1c0004c9c1f37101358f84c3cf059031e9ec9b0c17cad34188",
            "0x0000000000000000000000000000000000000000000000000000000000007648"
          ],
          "data": "0x000000000000000000000000000000000000000000006558d4f0374037159000000000000000000000000000000000000000000000000000000009184e72a000",
          "blockHash": "0x5cd73d8e84e8a1f7e7a5588b1e44a6a8d9c0fcc4c24c90f01f73c8ddb9a6347e",
          "blockNumber": "0x1ed441d",
          "blockTimestamp": "0x69966591",
          "transactionHash": "0x81a69361701ca865505e34267232e34b3046d3e44d2e419835aed3a9f328771d",
          "transactionIndex": "0x1",
          "logIndex": "0x12",
          "removed": false
        },
        {
          "address": "0x96a394058e2b84a89bac9667b19661ed003cf5d4",
          "topics": [
            "0xd2ff7607bbad14e866630d67da40c9a9cedd964cce5ce4c3dc4176133954ef98"
          ],
          "data": "0x0000000000000000000000000000000000000000008f4128544d5cd76c38f000000000000000000000000000000000000000000000000000000009184e72a000",
          "blockHash": "0x5cd73d8e84e8a1f7e7a5588b1e44a6a8d9c0fcc4c24c90f01f73c8ddb9a6347e",
          "blockNumber": "0x1ed441d",
          "blockTimestamp": "0x69966591",
          "transactionHash": "0x81a69361701ca865505e34267232e34b3046d3e44d2e419835aed3a9f328771d",
          "transactionIndex": "0x1",
          "logIndex": "0x13",
          "removed": false
        },
        {
          "address": "0xfc00000000000000000000000000000000000001",
          "topics": [
            "0xddf252ad1be2c89b69c2b068fc378daa952ba7f163c4a11628f55a4df523b3ef",
            "0x000000000000000000000000741f0d8bde14140f62107fc60a0ee122b37d4630",
            "0x0000000000000000000000000000000000000000000000000000000000000000"
          ],
          "data": "0x000000000000000000000000000000000000000000000000000009184e72a000",
          "blockHash": "0x5cd73d8e84e8a1f7e7a5588b1e44a6a8d9c0fcc4c24c90f01f73c8ddb9a6347e",
          "blockNumber": "0x1ed441d",
          "blockTimestamp": "0x69966591",
          "transactionHash": "0x81a69361701ca865505e34267232e34b3046d3e44d2e419835aed3a9f328771d",
          "transactionIndex": "0x1",
          "logIndex": "0x14",
          "removed": false
        },
        {
          "address": "0xfc00000000000000000000000000000000000001",
          "topics": [
            "0xdc7fd22bc401e7c6b9be2c2736286a2a42ea0c6307bc97ff0fb12bd0abd2c747",
            "0x000000000000000000000000741f0d8bde14140f62107fc60a0ee122b37d4630",
            "0x00000000000000000000000096a394058e2b84a89bac9667b19661ed003cf5d4"
          ],
          "data": "0x000000000000000000000000000000000000000000000000000009184e72a000",
          "blockHash": "0x5cd73d8e84e8a1f7e7a5588b1e44a6a8d9c0fcc4c24c90f01f73c8ddb9a6347e",
          "blockNumber": "0x1ed441d",
          "blockTimestamp": "0x69966591",
          "transactionHash": "0x81a69361701ca865505e34267232e34b3046d3e44d2e419835aed3a9f328771d",
          "transactionIndex": "0x1",
          "logIndex": "0x15",
          "removed": false
        },
        {
          "address": "0x377530cda84dfb2673bf4d145dcf0c4d7fdcb5b6",
          "topics": [
            "0x61ed099e74a97a1d7f8bb0952a88ca8b7b8ebd00c126ea04671f92a81213318a"
          ],
          "data": "0x00000000000000000000000041bdb4aa4a63a5b2efc531858d3118392b1a1c3d0000000000000000000000000000000000000000000000000068390ff592bfc0",
          "blockHash": "0x5cd73d8e84e8a1f7e7a5588b1e44a6a8d9c0fcc4c24c90f01f73c8ddb9a6347e",
          "blockNumber": "0x1ed441d",
          "blockTimestamp": "0x69966591",
          "transactionHash": "0x81a69361701ca865505e34267232e34b3046d3e44d2e419835aed3a9f328771d",
          "transactionIndex": "0x1",
          "logIndex": "0x16",
          "removed": false
        },
        {
          "address": "0x377530cda84dfb2673bf4d145dcf0c4d7fdcb5b6",
          "topics": [
            "0x07ea52d82345d6e838192107d8fd7123d9c2ec8e916cd0aad13fd2b60db24644"
          ],
          "data": "0x000000000000000000000000000000000000000000000000000000000000006000000000000000000000000000000000000000000000000000000000000000e00000000000000000000000000000000000000000000000000000000000000100000000000000000000000000000000000000000000000000000000000000000300000000000000000000000026cd5abadf7ec3f0f02b48314bfca6b2342cddd4000000000000000000000000cce466a522984415bc91338c232d98869193d46e000000000000000000000000dd7b5e1db4aafd5c8ec3b764efb8ed265aa5445b0000000000000000000000000000000000000000000000000000000000000000000000000000000000000000000000000000000000000000000000000000000300000000000000000000000000000000000000000000000000006eb093cece5800000000000000000000000000000000000000000000000000006a396af75b9500000000000000000000000000000000000000000000000000006a396af75b95",
          "blockHash": "0x5cd73d8e84e8a1f7e7a5588b1e44a6a8d9c0fcc4c24c90f01f73c8ddb9a6347e",
          "blockNumber": "0x1ed441d",
          "blockTimestamp": "0x69966591",
          "transactionHash": "0x81a69361701ca865505e34267232e34b3046d3e44d2e419835aed3a9f328771d",
          "transactionIndex": "0x1",
          "logIndex": "0x17",
          "removed": false
        },
        {
          "address": "0x1a44076050125825900e736c501f859c50fe728c",
          "topics": [
            "0x1ab700d4ced0c005b164c0f789fd09fcbb0156d4c2041b8a3bfbcd961cd1567f"
          ],
          "data": "0x00000000000000000000000000000000000000000000000000000000000000600000000000000000000000000000000000000000000000000000000000000120000000000000000000000000377530cda84dfb2673bf4d145dcf0c4d7fdcb5b6000000000000000000000000000000000000000000000000000000000000009901000000000000011c0000762f00000000000000000000000096a394058e2b84a89bac9667b19661ed003cf5d40000764800000000000000000000000080eede496655fb9047dd39d9f418d5483ed600dfb234b92dbaddc47e978d13db72af15754aa9922927879987f146cf703198ed4a000000000000000000000000741f0d8bde14140f62107fc60a0ee122b37d4630000000000000000a000000000000000000000000000000000000000000000000000000000000000000000000000016000301001101000000000000000000000000000493e000000000000000000000",
          "blockHash": "0x5cd73d8e84e8a1f7e7a5588b1e44a6a8d9c0fcc4c24c90f01f73c8ddb9a6347e",
          "blockNumber": "0x1ed441d",
          "blockTimestamp": "0x69966591",
          "transactionHash": "0x81a69361701ca865505e34267232e34b3046d3e44d2e419835aed3a9f328771d",
          "transactionIndex": "0x1",
          "logIndex": "0x18",
          "removed": false
        },
        {
          "address": "0x96a394058e2b84a89bac9667b19661ed003cf5d4",
          "topics": [
            "0x85496b760a4b7f8d66384b9df21b381f5d1b1e79f229a47aaf4c232edc2fe59a",
            "0xb234b92dbaddc47e978d13db72af15754aa9922927879987f146cf703198ed4a",
            "0x000000000000000000000000741f0d8bde14140f62107fc60a0ee122b37d4630"
          ],
          "data": "0x0000000000000000000000000000000000000000000000000000000000007648000000000000000000000000000000000000000000000000000009184e72a000000000000000000000000000000000000000000000000000000009184e72a000",
          "blockHash": "0x5cd73d8e84e8a1f7e7a5588b1e44a6a8d9c0fcc4c24c90f01f73c8ddb9a6347e",
          "blockNumber": "0x1ed441d",
          "blockTimestamp": "0x69966591",
          "transactionHash": "0x81a69361701ca865505e34267232e34b3046d3e44d2e419835aed3a9f328771d",
          "transactionIndex": "0x1",
          "logIndex": "0x19",
          "removed": false
        },
        {
          "address": "0xfc00000000000000000000000000000000000006",
          "topics": [
            "0xddf252ad1be2c89b69c2b068fc378daa952ba7f163c4a11628f55a4df523b3ef",
            "0x000000000000000000000000741f0d8bde14140f62107fc60a0ee122b37d4630",
            "0x0000000000000000000000009abfe1f8a999b0011ecd6116649aee8d575f5604"
          ],
          "data": "0x000000000000000000000000000000000000000000000000000009184e72a000",
          "blockHash": "0x5cd73d8e84e8a1f7e7a5588b1e44a6a8d9c0fcc4c24c90f01f73c8ddb9a6347e",
          "blockNumber": "0x1ed441d",
          "blockTimestamp": "0x69966591",
          "transactionHash": "0x81a69361701ca865505e34267232e34b3046d3e44d2e419835aed3a9f328771d",
          "transactionIndex": "0x1",
          "logIndex": "0x1a",
          "removed": false
        },
        {
          "address": "0x377530cda84dfb2673bf4d145dcf0c4d7fdcb5b6",
          "topics": [
            "0x61ed099e74a97a1d7f8bb0952a88ca8b7b8ebd00c126ea04671f92a81213318a"
          ],
          "data": "0x00000000000000000000000041bdb4aa4a63a5b2efc531858d3118392b1a1c3d0000000000000000000000000000000000000000000000000068390ff592bfc0",
          "blockHash": "0x5cd73d8e84e8a1f7e7a5588b1e44a6a8d9c0fcc4c24c90f01f73c8ddb9a6347e",
          "blockNumber": "0x1ed441d",
          "blockTimestamp": "0x69966591",
          "transactionHash": "0x81a69361701ca865505e34267232e34b3046d3e44d2e419835aed3a9f328771d",
          "transactionIndex": "0x1",
          "logIndex": "0x1b",
          "removed": false
        },
        {
          "address": "0x377530cda84dfb2673bf4d145dcf0c4d7fdcb5b6",
          "topics": [
            "0x07ea52d82345d6e838192107d8fd7123d9c2ec8e916cd0aad13fd2b60db24644"
          ],
          "data": "0x000000000000000000000000000000000000000000000000000000000000006000000000000000000000000000000000000000000000000000000000000000e00000000000000000000000000000000000000000000000000000000000000100000000000000000000000000000000000000000000000000000000000000000300000000000000000000000026cd5abadf7ec3f0f02b48314bfca6b2342cddd4000000000000000000000000cce466a522984415bc91338c232d98869193d46e000000000000000000000000dd7b5e1db4aafd5c8ec3b764efb8ed265aa5445b0000000000000000000000000000000000000000000000000000000000000000000000000000000000000000000000000000000000000000000000000000000300000000000000000000000000000000000000000000000000006eb093cece5800000000000000000000000000000000000000000000000000006a396af75b9500000000000000000000000000000000000000000000000000006a396af75b95",
          "blockHash": "0x5cd73d8e84e8a1f7e7a5588b1e44a6a8d9c0fcc4c24c90f01f73c8ddb9a6347e",
          "blockNumber": "0x1ed441d",
          "blockTimestamp": "0x69966591",
          "transactionHash": "0x81a69361701ca865505e34267232e34b3046d3e44d2e419835aed3a9f328771d",
          "transactionIndex": "0x1",
          "logIndex": "0x1c",
          "removed": false
        },
        {
          "address": "0x1a44076050125825900e736c501f859c50fe728c",
          "topics": [
            "0x1ab700d4ced0c005b164c0f789fd09fcbb0156d4c2041b8a3bfbcd961cd1567f"
          ],
          "data": "0x00000000000000000000000000000000000000000000000000000000000000600000000000000000000000000000000000000000000000000000000000000120000000000000000000000000377530cda84dfb2673bf4d145dcf0c4d7fdcb5b600000000000000000000000000000000000000000000000000000000000000990100000000000000090000762f0000000000000000000000009abfe1f8a999b0011ecd6116649aee8d575f56040000764800000000000000000000000043edd7f3831b08fe70b7555ddd373c8bf65a905075538cba5f7e4dfe77ad900874c8f4490b6c41e56800311bd771c7f28b77350c000000000000000000000000741f0d8bde14140f62107fc60a0ee122b37d4630000000000000000a000000000000000000000000000000000000000000000000000000000000000000000000000016000301001101000000000000000000000000000493e000000000000000000000",
          "blockHash": "0x5cd73d8e84e8a1f7e7a5588b1e44a6a8d9c0fcc4c24c90f01f73c8ddb9a6347e",
          "blockNumber": "0x1ed441d",
          "blockTimestamp": "0x69966591",
          "transactionHash": "0x81a69361701ca865505e34267232e34b3046d3e44d2e419835aed3a9f328771d",
          "transactionIndex": "0x1",
          "logIndex": "0x1d",
          "removed": false
        },
        {
          "address": "0x9abfe1f8a999b0011ecd6116649aee8d575f5604",
          "topics": [
            "0x85496b760a4b7f8d66384b9df21b381f5d1b1e79f229a47aaf4c232edc2fe59a",
            "0x75538cba5f7e4dfe77ad900874c8f4490b6c41e56800311bd771c7f28b77350c",
            "0x000000000000000000000000741f0d8bde14140f62107fc60a0ee122b37d4630"
          ],
          "data": "0x0000000000000000000000000000000000000000000000000000000000007648000000000000000000000000000000000000000000000000000009184e72a000000000000000000000000000000000000000000000000000000009184e72a000",
          "blockHash": "0x5cd73d8e84e8a1f7e7a5588b1e44a6a8d9c0fcc4c24c90f01f73c8ddb9a6347e",
          "blockNumber": "0x1ed441d",
          "blockTimestamp": "0x69966591",
          "transactionHash": "0x81a69361701ca865505e34267232e34b3046d3e44d2e419835aed3a9f328771d",
          "transactionIndex": "0x1",
          "logIndex": "0x1e",
          "removed": false
        },
        {
          "address": "0x75c38d46001b0f8108c4136216bd2694982c20fc",
          "topics": [
            "0x603e191ccb1fad1c0004c9c1f37101358f84c3cf059031e9ec9b0c17cad34188",
            "0x0000000000000000000000000000000000000000000000000000000000007648"
          ],
          "data": "0x0000000000000000000000000000000000000000000000000000000000000000000000000000000000000000000000000000000000000000000009184e72a000",
          "blockHash": "0x5cd73d8e84e8a1f7e7a5588b1e44a6a8d9c0fcc4c24c90f01f73c8ddb9a6347e",
          "blockNumber": "0x1ed441d",
          "blockTimestamp": "0x69966591",
          "transactionHash": "0x81a69361701ca865505e34267232e34b3046d3e44d2e419835aed3a9f328771d",
          "transactionIndex": "0x1",
          "logIndex": "0x1f",
          "removed": false
        },
        {
          "address": "0x75c38d46001b0f8108c4136216bd2694982c20fc",
          "topics": [
            "0xd2ff7607bbad14e866630d67da40c9a9cedd964cce5ce4c3dc4176133954ef98"
          ],
          "data": "0x000000000000000000000000000000000000000000000966d41e4bea40833000000000000000000000000000000000000000000000000000000009184e72a000",
          "blockHash": "0x5cd73d8e84e8a1f7e7a5588b1e44a6a8d9c0fcc4c24c90f01f73c8ddb9a6347e",
          "blockNumber": "0x1ed441d",
          "blockTimestamp": "0x69966591",
          "transactionHash": "0x81a69361701ca865505e34267232e34b3046d3e44d2e419835aed3a9f328771d",
          "transactionIndex": "0x1",
          "logIndex": "0x20",
          "removed": false
        },
        {
          "address": "0xfc00000000000000000000000000000000000003",
          "topics": [
            "0xddf252ad1be2c89b69c2b068fc378daa952ba7f163c4a11628f55a4df523b3ef",
            "0x000000000000000000000000741f0d8bde14140f62107fc60a0ee122b37d4630",
            "0x0000000000000000000000000000000000000000000000000000000000000000"
          ],
          "data": "0x000000000000000000000000000000000000000000000000000009184e72a000",
          "blockHash": "0x5cd73d8e84e8a1f7e7a5588b1e44a6a8d9c0fcc4c24c90f01f73c8ddb9a6347e",
          "blockNumber": "0x1ed441d",
          "blockTimestamp": "0x69966591",
          "transactionHash": "0x81a69361701ca865505e34267232e34b3046d3e44d2e419835aed3a9f328771d",
          "transactionIndex": "0x1",
          "logIndex": "0x21",
          "removed": false
        },
        {
          "address": "0xfc00000000000000000000000000000000000003",
          "topics": [
            "0xdc7fd22bc401e7c6b9be2c2736286a2a42ea0c6307bc97ff0fb12bd0abd2c747",
            "0x000000000000000000000000741f0d8bde14140f62107fc60a0ee122b37d4630",
            "0x00000000000000000000000075c38d46001b0f8108c4136216bd2694982c20fc"
          ],
          "data": "0x000000000000000000000000000000000000000000000000000009184e72a000",
          "blockHash": "0x5cd73d8e84e8a1f7e7a5588b1e44a6a8d9c0fcc4c24c90f01f73c8ddb9a6347e",
          "blockNumber": "0x1ed441d",
          "blockTimestamp": "0x69966591",
          "transactionHash": "0x81a69361701ca865505e34267232e34b3046d3e44d2e419835aed3a9f328771d",
          "transactionIndex": "0x1",
          "logIndex": "0x22",
          "removed": false
        },
        {
          "address": "0x377530cda84dfb2673bf4d145dcf0c4d7fdcb5b6",
          "topics": [
            "0x61ed099e74a97a1d7f8bb0952a88ca8b7b8ebd00c126ea04671f92a81213318a"
          ],
          "data": "0x00000000000000000000000041bdb4aa4a63a5b2efc531858d3118392b1a1c3d0000000000000000000000000000000000000000000000000068390ff592bfc0",
          "blockHash": "0x5cd73d8e84e8a1f7e7a5588b1e44a6a8d9c0fcc4c24c90f01f73c8ddb9a6347e",
          "blockNumber": "0x1ed441d",
          "blockTimestamp": "0x69966591",
          "transactionHash": "0x81a69361701ca865505e34267232e34b3046d3e44d2e419835aed3a9f328771d",
          "transactionIndex": "0x1",
          "logIndex": "0x23",
          "removed": false
        },
        {
          "address": "0x377530cda84dfb2673bf4d145dcf0c4d7fdcb5b6",
          "topics": [
            "0x07ea52d82345d6e838192107d8fd7123d9c2ec8e916cd0aad13fd2b60db24644"
          ],
          "data": "0x000000000000000000000000000000000000000000000000000000000000006000000000000000000000000000000000000000000000000000000000000000e00000000000000000000000000000000000000000000000000000000000000100000000000000000000000000000000000000000000000000000000000000000300000000000000000000000026cd5abadf7ec3f0f02b48314bfca6b2342cddd4000000000000000000000000cce466a522984415bc91338c232d98869193d46e000000000000000000000000dd7b5e1db4aafd5c8ec3b764efb8ed265aa5445b0000000000000000000000000000000000000000000000000000000000000000000000000000000000000000000000000000000000000000000000000000000300000000000000000000000000000000000000000000000000006eb093cece5800000000000000000000000000000000000000000000000000006a396af75b9500000000000000000000000000000000000000000000000000006a396af75b95",
          "blockHash": "0x5cd73d8e84e8a1f7e7a5588b1e44a6a8d9c0fcc4c24c90f01f73c8ddb9a6347e",
          "blockNumber": "0x1ed441d",
          "blockTimestamp": "0x69966591",
          "transactionHash": "0x81a69361701ca865505e34267232e34b3046d3e44d2e419835aed3a9f328771d",
          "transactionIndex": "0x1",
          "logIndex": "0x24",
          "removed": false
        },
        {
          "address": "0x1a44076050125825900e736c501f859c50fe728c",
          "topics": [
            "0x1ab700d4ced0c005b164c0f789fd09fcbb0156d4c2041b8a3bfbcd961cd1567f"
          ],
          "data": "0x00000000000000000000000000000000000000000000000000000000000000600000000000000000000000000000000000000000000000000000000000000120000000000000000000000000377530cda84dfb2673bf4d145dcf0c4d7fdcb5b600000000000000000000000000000000000000000000000000000000000000990100000000000000030000762f00000000000000000000000075c38d46001b0f8108c4136216bd2694982c20fc0000764800000000000000000000000090581eca9469d8d7f5d3b60f4715027adfcf7927115c33fc4a0ec9ac8b42bad829fee6add612181901c40ac2303181cf36ea5af2000000000000000000000000741f0d8bde14140f62107fc60a0ee122b37d4630000000000000000a000000000000000000000000000000000000000000000000000000000000000000000000000016000301001101000000000000000000000000000493e000000000000000000000",
          "blockHash": "0x5cd73d8e84e8a1f7e7a5588b1e44a6a8d9c0fcc4c24c90f01f73c8ddb9a6347e",
          "blockNumber": "0x1ed441d",
          "blockTimestamp": "0x69966591",
          "transactionHash": "0x81a69361701ca865505e34267232e34b3046d3e44d2e419835aed3a9f328771d",
          "transactionIndex": "0x1",
          "logIndex": "0x25",
          "removed": false
        },
        {
          "address": "0x75c38d46001b0f8108c4136216bd2694982c20fc",
          "topics": [
            "0x85496b760a4b7f8d66384b9df21b381f5d1b1e79f229a47aaf4c232edc2fe59a",
            "0x115c33fc4a0ec9ac8b42bad829fee6add612181901c40ac2303181cf36ea5af2",
            "0x000000000000000000000000741f0d8bde14140f62107fc60a0ee122b37d4630"
          ],
          "data": "0x0000000000000000000000000000000000000000000000000000000000007648000000000000000000000000000000000000000000000000000009184e72a000000000000000000000000000000000000000000000000000000009184e72a000",
          "blockHash": "0x5cd73d8e84e8a1f7e7a5588b1e44a6a8d9c0fcc4c24c90f01f73c8ddb9a6347e",
          "blockNumber": "0x1ed441d",
          "blockTimestamp": "0x69966591",
          "transactionHash": "0x81a69361701ca865505e34267232e34b3046d3e44d2e419835aed3a9f328771d",
          "transactionIndex": "0x1",
          "logIndex": "0x26",
          "removed": false
        }
      ],
      "logsBloom": "0x04044000000000200000000000000140100000000040000030002000005000000200000020100000000800000080400000040300000080000000000000000000000002204000000000000008401000000000000000000000090800000002000000000000020400008000100000a808080000000000100000000804100080000000000000000008000500000810800020000040080000002480000000009000000000000080540010001003100000000000000200004000801044400400000000080001020000000008402000800000000000100008000800000020000000a0002801040000000000000400000131002000000000018800600000000000000000",
      "type": "0x2",
      "transactionHash": "0x81a69361701ca865505e34267232e34b3046d3e44d2e419835aed3a9f328771d",
      "transactionIndex": "0x1",
      "blockHash": "0x5cd73d8e84e8a1f7e7a5588b1e44a6a8d9c0fcc4c24c90f01f73c8ddb9a6347e",
      "blockNumber": "0x1ed441d",
      "gasUsed": "0x1b0e8a",
      "effectiveGasPrice": "0xf433e",
      "from": "0x45dce8e4f2dc005a5f28206a46cb034697eeda8e",
      "to": "0x741f0d8bde14140f62107fc60a0ee122b37d4630",
      "contractAddress": null,
      "l1BaseFeeScalar": "0x2faf080",
      "l1BlobBaseFee": "0x26a681",
      "l1BlobBaseFeeScalar": "0x0",
      "l1Fee": "0x9d72ee0315e",
      "l1GasPrice": "0x285ae0a",
      "l1GasUsed": "0x13f9"
    }
  ],
  "libraries": [],
  "pending": [],
  "returns": {},
  "timestamp": 1771464081357,
  "chain": 252,
  "commit": "f037d85"
}