{
  "transactions": [
    {
      "hash": "0x4a8759823e2d5261953fb4bfb54aafa914100d96174a4773f555a93ad1a6284c",
      "transactionType": "CALL",
      "contractName": null,
      "contractAddress": "0x741f0d8bde14140f62107fc60a0ee122b37d4630",
      "function": "batchBridgeWithEthFeeFromWallet((uint32,bytes32,uint256,uint256,bytes,bytes,bytes)[],address[],address[])",
      "arguments": [
        "[(30375, 0x000000000000000000000000741f0d8bde14140f62107fc60a0ee122b37d4630, 10000000000000, 0, 0x, 0x, 0x), (30375, 0x000000000000000000000000741f0d8bde14140f62107fc60a0ee122b37d4630, 10000000000000, 0, 0x, 0x, 0x), (30375, 0x000000000000000000000000741f0d8bde14140f62107fc60a0ee122b37d4630, 10000000000000, 0, 0x, 0x, 0x), (30375, 0x000000000000000000000000741f0d8bde14140f62107fc60a0ee122b37d4630, 10000000000000, 0, 0x, 0x, 0x), (30375, 0x000000000000000000000000741f0d8bde14140f62107fc60a0ee122b37d4630, 10000000000000, 0, 0x, 0x, 0x), (30375, 0x000000000000000000000000741f0d8bde14140f62107fc60a0ee122b37d4630, 10000000000000, 0, 0x, 0x, 0x)]",
        "[0x96A394058E2b84A89bac9667B19661Ed003cF5D4, 0x88Aa7854D3b2dAA5e37E7Ce73A1F39669623a361, 0x9aBFE1F8a999B0011ecD6116649AEe8D575F5604, 0x999dfAbe3b1cc2EF66eB032Eea42FeA329bBa168, 0xd86fBBd0c8715d2C1f40e451e5C3514e65E7576A, 0x75c38D46001b0F8108c4136216bd2694982C20FC]",
        "[0x741F0d8Bde14140f62107FC60A0EE122B37D4630, 0x741F0d8Bde14140f62107FC60A0EE122B37D4630, 0x741F0d8Bde14140f62107FC60A0EE122B37D4630, 0x741F0d8Bde14140f62107FC60A0EE122B37D4630, 0x741F0d8Bde14140f62107FC60A0EE122B37D4630, 0x741F0d8Bde14140f62107FC60A0EE122B37D4630]"
      ],
      "transaction": {
        "from": "0x45dce8e4f2dc005a5f28206a46cb034697eeda8e",
        "to": "0x741f0d8bde14140f62107fc60a0ee122b37d4630",
        "gas": "0x25ee2d",
        "value": "0x98f10a4333cd48",
        "input": "0xb70d4241000000000000000000000000000000000000000000000000000000000000006000000000000000000000000000000000000000000000000000000000000008c000000000000000000000000000000000000000000000000000000000000009a0000000000000000000000000000000000000000000000000000000000000000600000000000000000000000000000000000000000000000000000000000000c000000000000000000000000000000000000000000000000000000000000002000000000000000000000000000000000000000000000000000000000000000340000000000000000000000000000000000000000000000000000000000000048000000000000000000000000000000000000000000000000000000000000005c0000000000000000000000000000000000000000000000000000000000000070000000000000000000000000000000000000000000000000000000000000076a7000000000000000000000000741f0d8bde14140f62107fc60a0ee122b37d4630000000000000000000000000000000000000000000000000000009184e72a000000000000000000000000000000000000000000000000000000000000000000000000000000000000000000000000000000000000000000000000000000000e00000000000000000000000000000000000000000000000000000000000000100000000000000000000000000000000000000000000000000000000000000012000000000000000000000000000000000000000000000000000000000000000000000000000000000000000000000000000000000000000000000000000000000000000000000000000000000000000000000000000000000000000000000000000000000000000000000000000000000000000000000000000000000000076a7000000000000000000000000741f0d8bde14140f62107fc60a0ee122b37d4630000000000000000000000000000000000000000000000000000009184e72a000000000000000000000000000000000000000000000000000000000000000000000000000000000000000000000000000000000000000000000000000000000e00000000000000000000000000000000000000000000000000000000000000100000000000000000000000000000000000000000000000000000000000000012000000000000000000000000000000000000000000000000000000000000000000000000000000000000000000000000000000000000000000000000000000000000000000000000000000000000000000000000000000000000000000000000000000000000000000000000000000000000000000000000000000000000076a7000000000000000000000000741f0d8bde14140f62107fc60a0ee122b37d4630000000000000000000000000000000000000000000000000000009184e72a000000000000000000000000000000000000000000000000000000000000000000000000000000000000000000000000000000000000000000000000000000000e00000000000000000000000000000000000000000000000000000000000000100000000000000000000000000000000000000000000000000000000000000012000000000000000000000000000000000000000000000000000000000000000000000000000000000000000000000000000000000000000000000000000000000000000000000000000000000000000000000000000000000000000000000000000000000000000000000000000000000000000000000000000000000000076a7000000000000000000000000741f0d8bde14140f62107fc60a0ee122b37d4630000000000000000000000000000000000000000000000000000009184e72a000000000000000000000000000000000000000000000000000000000000000000000000000000000000000000000000000000000000000000000000000000000e00000000000000000000000000000000000000000000000000000000000000100000000000000000000000000000000000000000000000000000000000000012000000000000000000000000000000000000000000000000000000000000000000000000000000000000000000000000000000000000000000000000000000000000000000000000000000000000000000000000000000000000000000000000000000000000000000000000000000000000000000000000000000000000076a7000000000000000000000000741f0d8bde14140f62107fc60a0ee122b37d4630000000000000000000000000000000000000000000000000000009184e72a000000000000000000000000000000000000000000000000000000000000000000000000000000000000000000000000000000000000000000000000000000000e00000000000000000000000000000000000000000000000000000000000000100000000000000000000000000000000000000000000000000000000000000012000000000000000000000000000000000000000000000000000000000000000000000000000000000000000000000000000000000000000000000000000000000000000000000000000000000000000000000000000000000000000000000000000000000000000000000000000000000000000000000000000000000000076a7000000000000000000000000741f0d8bde14140f62107fc60a0ee122b37d4630000000000000000000000000000000000000000000000000000009184e72a000000000000000000000000000000000000000000000000000000000000000000000000000000000000000000000000000000000000000000000000000000000e000000000000000000000000000000000000000000000000000000000000001000000000000000000000000000000000000000000000000000000000000000120000000000000000000000000000000000000000000000000000000000000000000000000000000000000000000000000000000000000000000000000000000000000000000000000000000000000000000000000000000000000000000000000000000000000000000000000000000000000000000000000000000000000000600000000000000000000000096a394058e2b84a89bac9667b19661ed003cf5d400000000000000000000000088aa7854d3b2daa5e37e7ce73a1f39669623a3610000000000000000000000009abfe1f8a999b0011ecd6116649aee8d575f5604000000000000000000000000999dfabe3b1cc2ef66eb032eea42fea329bba168000000000000000000000000d86fbbd0c8715d2c1f40e451e5c3514e65e7576a00000000000000000000000075c38d46001b0f8108c4136216bd2694982c20fc0000000000000000000000000000000000000000000000000000000000000006000000000000000000000000741f0d8bde14140f62107fc60a0ee122b37d4630000000000000000000000000741f0d8bde14140f62107fc60a0ee122b37d4630000000000000000000000000741f0d8bde14140f62107fc60a0ee122b37d4630000000000000000000000000741f0d8bde14140f62107fc60a0ee122b37d4630000000000000000000000000741f0d8bde14140f62107fc60a0ee122b37d4630000000000000000000000000741f0d8bde14140f62107fc60a0ee122b37d4630",
        "nonce": "0xb7",
        "chainId": "0xfc"
      },
      "additionalContracts": [],
      "isFixedGasLimit": false
    }
  ],
  "receipts": [
    {
      "status": "0x1",
      "cumulativeGasUsed": "0x1c9cdd",
      "logs": [
        {
          "address": "0xfc00000000000000000000000000000000000001",
          "topics": [
            "0xddf252ad1be2c89b69c2b068fc378daa952ba7f163c4a11628f55a4df523b3ef",
            "0x000000000000000000000000741f0d8bde14140f62107fc60a0ee122b37d4630",
            "0x00000000000000000000000096a394058e2b84a89bac9667b19661ed003cf5d4"
          ],
          "data": "0x000000000000000000000000000000000000000000000000000009184e72a000",
          "blockHash": "0x78fdcd2038ddb2d91eb0c1e7920f108cf8360029c22b47369959258f786dcf83",
          "blockNumber": "0x1681408",
          "transactionHash": "0x4a8759823e2d5261953fb4bfb54aafa914100d96174a4773f555a93ad1a6284c",
          "transactionIndex": "0x1",
          "logIndex": "0x1",
          "removed": false
        },
        {
          "address": "0x377530cda84dfb2673bf4d145dcf0c4d7fdcb5b6",
          "topics": [
            "0x61ed099e74a97a1d7f8bb0952a88ca8b7b8ebd00c126ea04671f92a81213318a"
          ],
          "data": "0x00000000000000000000000041bdb4aa4a63a5b2efc531858d3118392b1a1c3d0000000000000000000000000000000000000000000000000018383f631bc173",
          "blockHash": "0x78fdcd2038ddb2d91eb0c1e7920f108cf8360029c22b47369959258f786dcf83",
          "blockNumber": "0x1681408",
          "transactionHash": "0x4a8759823e2d5261953fb4bfb54aafa914100d96174a4773f555a93ad1a6284c",
          "transactionIndex": "0x1",
          "logIndex": "0x2",
          "removed": false
        },
        {
          "address": "0x377530cda84dfb2673bf4d145dcf0c4d7fdcb5b6",
          "topics": [
            "0x07ea52d82345d6e838192107d8fd7123d9c2ec8e916cd0aad13fd2b60db24644"
          ],
          "data": "0x000000000000000000000000000000000000000000000000000000000000006000000000000000000000000000000000000000000000000000000000000000e00000000000000000000000000000000000000000000000000000000000000100000000000000000000000000000000000000000000000000000000000000000300000000000000000000000026cd5abadf7ec3f0f02b48314bfca6b2342cddd4000000000000000000000000a7b5189bca84cd304d8553977c7c614329750d99000000000000000000000000cce466a522984415bc91338c232d98869193d46e0000000000000000000000000000000000000000000000000000000000000000000000000000000000000000000000000000000000000000000000000000000300000000000000000000000000000000000000000000000000006fdb9c75016000000000000000000000000000000000000000000000000000006a0e52fccd7c00000000000000000000000000000000000000000000000000006b586350673d",
          "blockHash": "0x78fdcd2038ddb2d91eb0c1e7920f108cf8360029c22b47369959258f786dcf83",
          "blockNumber": "0x1681408",
          "transactionHash": "0x4a8759823e2d5261953fb4bfb54aafa914100d96174a4773f555a93ad1a6284c",
          "transactionIndex": "0x1",
          "logIndex": "0x3",
          "removed": false
        },
        {
          "address": "0x1a44076050125825900e736c501f859c50fe728c",
          "topics": [
            "0x1ab700d4ced0c005b164c0f789fd09fcbb0156d4c2041b8a3bfbcd961cd1567f"
          ],
          "data": "0x00000000000000000000000000000000000000000000000000000000000000600000000000000000000000000000000000000000000000000000000000000120000000000000000000000000377530cda84dfb2673bf4d145dcf0c4d7fdcb5b600000000000000000000000000000000000000000000000000000000000000990100000000000000010000762f00000000000000000000000096a394058e2b84a89bac9667b19661ed003cf5d4000076a700000000000000000000000080eede496655fb9047dd39d9f418d5483ed600df29a9bf34f022b9a144e36f3895c2bc2068203668111b416157cdba396c4d48cc000000000000000000000000741f0d8bde14140f62107fc60a0ee122b37d4630000000000000000a00000000000000000000000000000000000000000000000000000000000000000000000000001600030100110100000000000000000000000000030d4000000000000000000000",
          "blockHash": "0x78fdcd2038ddb2d91eb0c1e7920f108cf8360029c22b47369959258f786dcf83",
          "blockNumber": "0x1681408",
          "transactionHash": "0x4a8759823e2d5261953fb4bfb54aafa914100d96174a4773f555a93ad1a6284c",
          "transactionIndex": "0x1",
          "logIndex": "0x4",
          "removed": false
        },
        {
          "address": "0x96a394058e2b84a89bac9667b19661ed003cf5d4",
          "topics": [
            "0x85496b760a4b7f8d66384b9df21b381f5d1b1e79f229a47aaf4c232edc2fe59a",
            "0x29a9bf34f022b9a144e36f3895c2bc2068203668111b416157cdba396c4d48cc",
            "0x000000000000000000000000741f0d8bde14140f62107fc60a0ee122b37d4630"
          ],
          "data": "0x00000000000000000000000000000000000000000000000000000000000076a7000000000000000000000000000000000000000000000000000009184e72a000000000000000000000000000000000000000000000000000000009184e72a000",
          "blockHash": "0x78fdcd2038ddb2d91eb0c1e7920f108cf8360029c22b47369959258f786dcf83",
          "blockNumber": "0x1681408",
          "transactionHash": "0x4a8759823e2d5261953fb4bfb54aafa914100d96174a4773f555a93ad1a6284c",
          "transactionIndex": "0x1",
          "logIndex": "0x5",
          "removed": false
        },
        {
          "address": "0xfc00000000000000000000000000000000000008",
          "topics": [
            "0xddf252ad1be2c89b69c2b068fc378daa952ba7f163c4a11628f55a4df523b3ef",
            "0x000000000000000000000000741f0d8bde14140f62107fc60a0ee122b37d4630",
            "0x00000000000000000000000088aa7854d3b2daa5e37e7ce73a1f39669623a361"
          ],
          "data": "0x000000000000000000000000000000000000000000000000000009184e72a000",
          "blockHash": "0x78fdcd2038ddb2d91eb0c1e7920f108cf8360029c22b47369959258f786dcf83",
          "blockNumber": "0x1681408",
          "transactionHash": "0x4a8759823e2d5261953fb4bfb54aafa914100d96174a4773f555a93ad1a6284c",
          "transactionIndex": "0x1",
          "logIndex": "0x6",
          "removed": false
        },
        {
          "address": "0x377530cda84dfb2673bf4d145dcf0c4d7fdcb5b6",
          "topics": [
            "0x61ed099e74a97a1d7f8bb0952a88ca8b7b8ebd00c126ea04671f92a81213318a"
          ],
          "data": "0x00000000000000000000000041bdb4aa4a63a5b2efc531858d3118392b1a1c3d0000000000000000000000000000000000000000000000000018383f631bc173",
          "blockHash": "0x78fdcd2038ddb2d91eb0c1e7920f108cf8360029c22b47369959258f786dcf83",
          "blockNumber": "0x1681408",
          "transactionHash": "0x4a8759823e2d5261953fb4bfb54aafa914100d96174a4773f555a93ad1a6284c",
          "transactionIndex": "0x1",
          "logIndex": "0x7",
          "removed": false
        },
        {
          "address": "0x377530cda84dfb2673bf4d145dcf0c4d7fdcb5b6",
          "topics": [
            "0x07ea52d82345d6e838192107d8fd7123d9c2ec8e916cd0aad13fd2b60db24644"
          ],
          "data": "0x000000000000000000000000000000000000000000000000000000000000006000000000000000000000000000000000000000000000000000000000000000e00000000000000000000000000000000000000000000000000000000000000100000000000000000000000000000000000000000000000000000000000000000300000000000000000000000026cd5abadf7ec3f0f02b48314bfca6b2342cddd4000000000000000000000000a7b5189bca84cd304d8553977c7c614329750d99000000000000000000000000cce466a522984415bc91338c232d98869193d46e0000000000000000000000000000000000000000000000000000000000000000000000000000000000000000000000000000000000000000000000000000000300000000000000000000000000000000000000000000000000006fdb9c75016000000000000000000000000000000000000000000000000000006a0e52fccd7c00000000000000000000000000000000000000000000000000006b586350673d",
          "blockHash": "0x78fdcd2038ddb2d91eb0c1e7920f108cf8360029c22b47369959258f786dcf83",
          "blockNumber": "0x1681408",
          "transactionHash": "0x4a8759823e2d5261953fb4bfb54aafa914100d96174a4773f555a93ad1a6284c",
          "transactionIndex": "0x1",
          "logIndex": "0x8",
          "removed": false
        },
        {
          "address": "0x1a44076050125825900e736c501f859c50fe728c",
          "topics": [
            "0x1ab700d4ced0c005b164c0f789fd09fcbb0156d4c2041b8a3bfbcd961cd1567f"
          ],
          "data": "0x00000000000000000000000000000000000000000000000000000000000000600000000000000000000000000000000000000000000000000000000000000120000000000000000000000000377530cda84dfb2673bf4d145dcf0c4d7fdcb5b600000000000000000000000000000000000000000000000000000000000000990100000000000000010000762f00000000000000000000000088aa7854d3b2daa5e37e7ce73a1f39669623a361000076a70000000000000000000000005bff88ca1442c2496f7e475e9e7786383bc070c027a2a674fd56d58773c226ec72c4faecd7ef083405f28e1431d23dacb3448513000000000000000000000000741f0d8bde14140f62107fc60a0ee122b37d4630000000000000000a00000000000000000000000000000000000000000000000000000000000000000000000000001600030100110100000000000000000000000000030d4000000000000000000000",
          "blockHash": "0x78fdcd2038ddb2d91eb0c1e7920f108cf8360029c22b47369959258f786dcf83",
          "blockNumber": "0x1681408",
          "transactionHash": "0x4a8759823e2d5261953fb4bfb54aafa914100d96174a4773f555a93ad1a6284c",
          "transactionIndex": "0x1",
          "logIndex": "0x9",
          "removed": false
        },
        {
          "address": "0x88aa7854d3b2daa5e37e7ce73a1f39669623a361",
          "topics": [
            "0x85496b760a4b7f8d66384b9df21b381f5d1b1e79f229a47aaf4c232edc2fe59a",
            "0x27a2a674fd56d58773c226ec72c4faecd7ef083405f28e1431d23dacb3448513",
            "0x000000000000000000000000741f0d8bde14140f62107fc60a0ee122b37d4630"
          ],
          "data": "0x00000000000000000000000000000000000000000000000000000000000076a7000000000000000000000000000000000000000000000000000009184e72a000000000000000000000000000000000000000000000000000000009184e72a000",
          "blockHash": "0x78fdcd2038ddb2d91eb0c1e7920f108cf8360029c22b47369959258f786dcf83",
          "blockNumber": "0x1681408",
          "transactionHash": "0x4a8759823e2d5261953fb4bfb54aafa914100d96174a4773f555a93ad1a6284c",
          "transactionIndex": "0x1",
          "logIndex": "0xa",
          "removed": false
        },
        {
          "address": "0xfc00000000000000000000000000000000000006",
          "topics": [
            "0xddf252ad1be2c89b69c2b068fc378daa952ba7f163c4a11628f55a4df523b3ef",
            "0x000000000000000000000000741f0d8bde14140f62107fc60a0ee122b37d4630",
            "0x0000000000000000000000009abfe1f8a999b0011ecd6116649aee8d575f5604"
          ],
          "data": "0x000000000000000000000000000000000000000000000000000009184e72a000",
          "blockHash": "0x78fdcd2038ddb2d91eb0c1e7920f108cf8360029c22b47369959258f786dcf83",
          "blockNumber": "0x1681408",
          "transactionHash": "0x4a8759823e2d5261953fb4bfb54aafa914100d96174a4773f555a93ad1a6284c",
          "transactionIndex": "0x1",
          "logIndex": "0xb",
          "removed": false
        },
        {
          "address": "0x377530cda84dfb2673bf4d145dcf0c4d7fdcb5b6",
          "topics": [
            "0x61ed099e74a97a1d7f8bb0952a88ca8b7b8ebd00c126ea04671f92a81213318a"
          ],
          "data": "0x00000000000000000000000041bdb4aa4a63a5b2efc531858d3118392b1a1c3d0000000000000000000000000000000000000000000000000018383f631bc173",
          "blockHash": "0x78fdcd2038ddb2d91eb0c1e7920f108cf8360029c22b47369959258f786dcf83",
          "blockNumber": "0x1681408",
          "transactionHash": "0x4a8759823e2d5261953fb4bfb54aafa914100d96174a4773f555a93ad1a6284c",
          "transactionIndex": "0x1",
          "logIndex": "0xc",
          "removed": false
        },
        {
          "address": "0x377530cda84dfb2673bf4d145dcf0c4d7fdcb5b6",
          "topics": [
            "0x07ea52d82345d6e838192107d8fd7123d9c2ec8e916cd0aad13fd2b60db24644"
          ],
          "data": "0x000000000000000000000000000000000000000000000000000000000000006000000000000000000000000000000000000000000000000000000000000000e00000000000000000000000000000000000000000000000000000000000000100000000000000000000000000000000000000000000000000000000000000000300000000000000000000000026cd5abadf7ec3f0f02b48314bfca6b2342cddd4000000000000000000000000a7b5189bca84cd304d8553977c7c614329750d99000000000000000000000000cce466a522984415bc91338c232d98869193d46e0000000000000000000000000000000000000000000000000000000000000000000000000000000000000000000000000000000000000000000000000000000300000000000000000000000000000000000000000000000000006fdb9c75016000000000000000000000000000000000000000000000000000006a0e52fccd7c00000000000000000000000000000000000000000000000000006b586350673d",
          "blockHash": "0x78fdcd2038ddb2d91eb0c1e7920f108cf8360029c22b47369959258f786dcf83",
          "blockNumber": "0x1681408",
          "transactionHash": "0x4a8759823e2d5261953fb4bfb54aafa914100d96174a4773f555a93ad1a6284c",
          "transactionIndex": "0x1",
          "logIndex": "0xd",
          "removed": false
        },
        {
          "address": "0x1a44076050125825900e736c501f859c50fe728c",
          "topics": [
            "0x1ab700d4ced0c005b164c0f789fd09fcbb0156d4c2041b8a3bfbcd961cd1567f"
          ],
          "data": "0x00000000000000000000000000000000000000000000000000000000000000600000000000000000000000000000000000000000000000000000000000000120000000000000000000000000377530cda84dfb2673bf4d145dcf0c4d7fdcb5b600000000000000000000000000000000000000000000000000000000000000990100000000000000010000762f0000000000000000000000009abfe1f8a999b0011ecd6116649aee8d575f5604000076a700000000000000000000000043edd7f3831b08fe70b7555ddd373c8bf65a90504f8d92961e649fc6e3e9cab7cf776b7e3e20f27805e6ae6daf70bc0a4af2ba33000000000000000000000000741f0d8bde14140f62107fc60a0ee122b37d4630000000000000000a00000000000000000000000000000000000000000000000000000000000000000000000000001600030100110100000000000000000000000000030d4000000000000000000000",
          "blockHash": "0x78fdcd2038ddb2d91eb0c1e7920f108cf8360029c22b47369959258f786dcf83",
          "blockNumber": "0x1681408",
          "transactionHash": "0x4a8759823e2d5261953fb4bfb54aafa914100d96174a4773f555a93ad1a6284c",
          "transactionIndex": "0x1",
          "logIndex": "0xe",
          "removed": false
        },
        {
          "address": "0x9abfe1f8a999b0011ecd6116649aee8d575f5604",
          "topics": [
            "0x85496b760a4b7f8d66384b9df21b381f5d1b1e79f229a47aaf4c232edc2fe59a",
            "0x4f8d92961e649fc6e3e9cab7cf776b7e3e20f27805e6ae6daf70bc0a4af2ba33",
            "0x000000000000000000000000741f0d8bde14140f62107fc60a0ee122b37d4630"
          ],
          "data": "0x00000000000000000000000000000000000000000000000000000000000076a7000000000000000000000000000000000000000000000000000009184e72a000000000000000000000000000000000000000000000000000000009184e72a000",
          "blockHash": "0x78fdcd2038ddb2d91eb0c1e7920f108cf8360029c22b47369959258f786dcf83",
          "blockNumber": "0x1681408",
          "transactionHash": "0x4a8759823e2d5261953fb4bfb54aafa914100d96174a4773f555a93ad1a6284c",
          "transactionIndex": "0x1",
          "logIndex": "0xf",
          "removed": false
        },
        {
          "address": "0xfc00000000000000000000000000000000000005",
          "topics": [
            "0xddf252ad1be2c89b69c2b068fc378daa952ba7f163c4a11628f55a4df523b3ef",
            "0x000000000000000000000000741f0d8bde14140f62107fc60a0ee122b37d4630",
            "0x000000000000000000000000999dfabe3b1cc2ef66eb032eea42fea329bba168"
          ],
          "data": "0x000000000000000000000000000000000000000000000000000009184e72a000",
          "blockHash": "0x78fdcd2038ddb2d91eb0c1e7920f108cf8360029c22b47369959258f786dcf83",
          "blockNumber": "0x1681408",
          "transactionHash": "0x4a8759823e2d5261953fb4bfb54aafa914100d96174a4773f555a93ad1a6284c",
          "transactionIndex": "0x1",
          "logIndex": "0x10",
          "removed": false
        },
        {
          "address": "0x377530cda84dfb2673bf4d145dcf0c4d7fdcb5b6",
          "topics": [
            "0x61ed099e74a97a1d7f8bb0952a88ca8b7b8ebd00c126ea04671f92a81213318a"
          ],
          "data": "0x00000000000000000000000041bdb4aa4a63a5b2efc531858d3118392b1a1c3d0000000000000000000000000000000000000000000000000018383f631bc173",
          "blockHash": "0x78fdcd2038ddb2d91eb0c1e7920f108cf8360029c22b47369959258f786dcf83",
          "blockNumber": "0x1681408",
          "transactionHash": "0x4a8759823e2d5261953fb4bfb54aafa914100d96174a4773f555a93ad1a6284c",
          "transactionIndex": "0x1",
          "logIndex": "0x11",
          "removed": false
        },
        {
          "address": "0x377530cda84dfb2673bf4d145dcf0c4d7fdcb5b6",
          "topics": [
            "0x07ea52d82345d6e838192107d8fd7123d9c2ec8e916cd0aad13fd2b60db24644"
          ],
          "data": "0x000000000000000000000000000000000000000000000000000000000000006000000000000000000000000000000000000000000000000000000000000000e00000000000000000000000000000000000000000000000000000000000000100000000000000000000000000000000000000000000000000000000000000000300000000000000000000000026cd5abadf7ec3f0f02b48314bfca6b2342cddd4000000000000000000000000a7b5189bca84cd304d8553977c7c614329750d99000000000000000000000000cce466a522984415bc91338c232d98869193d46e0000000000000000000000000000000000000000000000000000000000000000000000000000000000000000000000000000000000000000000000000000000300000000000000000000000000000000000000000000000000006fdb9c75016000000000000000000000000000000000000000000000000000006a0e52fccd7c00000000000000000000000000000000000000000000000000006b586350673d",
          "blockHash": "0x78fdcd2038ddb2d91eb0c1e7920f108cf8360029c22b47369959258f786dcf83",
          "blockNumber": "0x1681408",
          "transactionHash": "0x4a8759823e2d5261953fb4bfb54aafa914100d96174a4773f555a93ad1a6284c",
          "transactionIndex": "0x1",
          "logIndex": "0x12",
          "removed": false
        },
        {
          "address": "0x1a44076050125825900e736c501f859c50fe728c",
          "topics": [
            "0x1ab700d4ced0c005b164c0f789fd09fcbb0156d4c2041b8a3bfbcd961cd1567f"
          ],
          "data": "0x00000000000000000000000000000000000000000000000000000000000000600000000000000000000000000000000000000000000000000000000000000120000000000000000000000000377530cda84dfb2673bf4d145dcf0c4d7fdcb5b600000000000000000000000000000000000000000000000000000000000000990100000000000000010000762f000000000000000000000000999dfabe3b1cc2ef66eb032eea42fea329bba168000076a70000000000000000000000003ec3849c33291a9ef4c5db86de593eb4a37fde457dac2e23307d6a33a47ae3b85b32de29f59cb94a7bffd392c38e608e805e3f6d000000000000000000000000741f0d8bde14140f62107fc60a0ee122b37d4630000000000000000a00000000000000000000000000000000000000000000000000000000000000000000000000001600030100110100000000000000000000000000030d4000000000000000000000",
          "blockHash": "0x78fdcd2038ddb2d91eb0c1e7920f108cf8360029c22b47369959258f786dcf83",
          "blockNumber": "0x1681408",
          "transactionHash": "0x4a8759823e2d5261953fb4bfb54aafa914100d96174a4773f555a93ad1a6284c",
          "transactionIndex": "0x1",
          "logIndex": "0x13",
          "removed": false
        },
        {
          "address": "0x999dfabe3b1cc2ef66eb032eea42fea329bba168",
          "topics": [
            "0x85496b760a4b7f8d66384b9df21b381f5d1b1e79f229a47aaf4c232edc2fe59a",
            "0x7dac2e23307d6a33a47ae3b85b32de29f59cb94a7bffd392c38e608e805e3f6d",
            "0x000000000000000000000000741f0d8bde14140f62107fc60a0ee122b37d4630"
          ],
          "data": "0x00000000000000000000000000000000000000000000000000000000000076a7000000000000000000000000000000000000000000000000000009184e72a000000000000000000000000000000000000000000000000000000009184e72a000",
          "blockHash": "0x78fdcd2038ddb2d91eb0c1e7920f108cf8360029c22b47369959258f786dcf83",
          "blockNumber": "0x1681408",
          "transactionHash": "0x4a8759823e2d5261953fb4bfb54aafa914100d96174a4773f555a93ad1a6284c",
          "transactionIndex": "0x1",
          "logIndex": "0x14",
          "removed": false
        },
        {
          "address": "0xfc00000000000000000000000000000000000002",
          "topics": [
            "0xddf252ad1be2c89b69c2b068fc378daa952ba7f163c4a11628f55a4df523b3ef",
            "0x000000000000000000000000741f0d8bde14140f62107fc60a0ee122b37d4630",
            "0x000000000000000000000000d86fbbd0c8715d2c1f40e451e5c3514e65e7576a"
          ],
          "data": "0x000000000000000000000000000000000000000000000000000009184e72a000",
          "blockHash": "0x78fdcd2038ddb2d91eb0c1e7920f108cf8360029c22b47369959258f786dcf83",
          "blockNumber": "0x1681408",
          "transactionHash": "0x4a8759823e2d5261953fb4bfb54aafa914100d96174a4773f555a93ad1a6284c",
          "transactionIndex": "0x1",
          "logIndex": "0x15",
          "removed": false
        },
        {
          "address": "0x377530cda84dfb2673bf4d145dcf0c4d7fdcb5b6",
          "topics": [
            "0x61ed099e74a97a1d7f8bb0952a88ca8b7b8ebd00c126ea04671f92a81213318a"
          ],
          "data": "0x00000000000000000000000041bdb4aa4a63a5b2efc531858d3118392b1a1c3d0000000000000000000000000000000000000000000000000018383f631bc173",
          "blockHash": "0x78fdcd2038ddb2d91eb0c1e7920f108cf8360029c22b47369959258f786dcf83",
          "blockNumber": "0x1681408",
          "transactionHash": "0x4a8759823e2d5261953fb4bfb54aafa914100d96174a4773f555a93ad1a6284c",
          "transactionIndex": "0x1",
          "logIndex": "0x16",
          "removed": false
        },
        {
          "address": "0x377530cda84dfb2673bf4d145dcf0c4d7fdcb5b6",
          "topics": [
            "0x07ea52d82345d6e838192107d8fd7123d9c2ec8e916cd0aad13fd2b60db24644"
          ],
          "data": "0x000000000000000000000000000000000000000000000000000000000000006000000000000000000000000000000000000000000000000000000000000000e00000000000000000000000000000000000000000000000000000000000000100000000000000000000000000000000000000000000000000000000000000000300000000000000000000000026cd5abadf7ec3f0f02b48314bfca6b2342cddd4000000000000000000000000a7b5189bca84cd304d8553977c7c614329750d99000000000000000000000000cce466a522984415bc91338c232d98869193d46e0000000000000000000000000000000000000000000000000000000000000000000000000000000000000000000000000000000000000000000000000000000300000000000000000000000000000000000000000000000000006fdb9c75016000000000000000000000000000000000000000000000000000006a0e52fccd7c00000000000000000000000000000000000000000000000000006b586350673d",
          "blockHash": "0x78fdcd2038ddb2d91eb0c1e7920f108cf8360029c22b47369959258f786dcf83",
          "blockNumber": "0x1681408",
          "transactionHash": "0x4a8759823e2d5261953fb4bfb54aafa914100d96174a4773f555a93ad1a6284c",
          "transactionIndex": "0x1",
          "logIndex": "0x17",
          "removed": false
        },
        {
          "address": "0x1a44076050125825900e736c501f859c50fe728c",
          "topics": [
            "0x1ab700d4ced0c005b164c0f789fd09fcbb0156d4c2041b8a3bfbcd961cd1567f"
          ],
          "data": "0x00000000000000000000000000000000000000000000000000000000000000600000000000000000000000000000000000000000000000000000000000000120000000000000000000000000377530cda84dfb2673bf4d145dcf0c4d7fdcb5b600000000000000000000000000000000000000000000000000000000000000990100000000000000010000762f000000000000000000000000d86fbbd0c8715d2c1f40e451e5c3514e65e7576a000076a700000000000000000000000064445f0aecc51e94ad52d8ac56b7190e764e561ae5c500aec67ae51c483a8c17e838ee58207aa835976f7f647df826311bf84601000000000000000000000000741f0d8bde14140f62107fc60a0ee122b37d4630000000000000000a00000000000000000000000000000000000000000000000000000000000000000000000000001600030100110100000000000000000000000000030d4000000000000000000000",
          "blockHash": "0x78fdcd2038ddb2d91eb0c1e7920f108cf8360029c22b47369959258f786dcf83",
          "blockNumber": "0x1681408",
          "transactionHash": "0x4a8759823e2d5261953fb4bfb54aafa914100d96174a4773f555a93ad1a6284c",
          "transactionIndex": "0x1",
          "logIndex": "0x18",
          "removed": false
        },
        {
          "address": "0xd86fbbd0c8715d2c1f40e451e5c3514e65e7576a",
          "topics": [
            "0x85496b760a4b7f8d66384b9df21b381f5d1b1e79f229a47aaf4c232edc2fe59a",
            "0xe5c500aec67ae51c483a8c17e838ee58207aa835976f7f647df826311bf84601",
            "0x000000000000000000000000741f0d8bde14140f62107fc60a0ee122b37d4630"
          ],
          "data": "0x00000000000000000000000000000000000000000000000000000000000076a7000000000000000000000000000000000000000000000000000009184e72a000000000000000000000000000000000000000000000000000000009184e72a000",
          "blockHash": "0x78fdcd2038ddb2d91eb0c1e7920f108cf8360029c22b47369959258f786dcf83",
          "blockNumber": "0x1681408",
          "transactionHash": "0x4a8759823e2d5261953fb4bfb54aafa914100d96174a4773f555a93ad1a6284c",
          "transactionIndex": "0x1",
          "logIndex": "0x19",
          "removed": false
        },
        {
          "address": "0xfc00000000000000000000000000000000000003",
          "topics": [
            "0xddf252ad1be2c89b69c2b068fc378daa952ba7f163c4a11628f55a4df523b3ef",
            "0x000000000000000000000000741f0d8bde14140f62107fc60a0ee122b37d4630",
            "0x00000000000000000000000075c38d46001b0f8108c4136216bd2694982c20fc"
          ],
          "data": "0x000000000000000000000000000000000000000000000000000009184e72a000",
          "blockHash": "0x78fdcd2038ddb2d91eb0c1e7920f108cf8360029c22b47369959258f786dcf83",
          "blockNumber": "0x1681408",
          "transactionHash": "0x4a8759823e2d5261953fb4bfb54aafa914100d96174a4773f555a93ad1a6284c",
          "transactionIndex": "0x1",
          "logIndex": "0x1a",
          "removed": false
        },
        {
          "address": "0x377530cda84dfb2673bf4d145dcf0c4d7fdcb5b6",
          "topics": [
            "0x61ed099e74a97a1d7f8bb0952a88ca8b7b8ebd00c126ea04671f92a81213318a"
          ],
          "data": "0x00000000000000000000000041bdb4aa4a63a5b2efc531858d3118392b1a1c3d0000000000000000000000000000000000000000000000000018383f631bc173",
          "blockHash": "0x78fdcd2038ddb2d91eb0c1e7920f108cf8360029c22b47369959258f786dcf83",
          "blockNumber": "0x1681408",
          "transactionHash": "0x4a8759823e2d5261953fb4bfb54aafa914100d96174a4773f555a93ad1a6284c",
          "transactionIndex": "0x1",
          "logIndex": "0x1b",
          "removed": false
        },
        {
          "address": "0x377530cda84dfb2673bf4d145dcf0c4d7fdcb5b6",
          "topics": [
            "0x07ea52d82345d6e838192107d8fd7123d9c2ec8e916cd0aad13fd2b60db24644"
          ],
          "data": "0x000000000000000000000000000000000000000000000000000000000000006000000000000000000000000000000000000000000000000000000000000000e00000000000000000000000000000000000000000000000000000000000000100000000000000000000000000000000000000000000000000000000000000000300000000000000000000000026cd5abadf7ec3f0f02b48314bfca6b2342cddd4000000000000000000000000a7b5189bca84cd304d8553977c7c614329750d99000000000000000000000000cce466a522984415bc91338c232d98869193d46e0000000000000000000000000000000000000000000000000000000000000000000000000000000000000000000000000000000000000000000000000000000300000000000000000000000000000000000000000000000000006fdb9c75016000000000000000000000000000000000000000000000000000006a0e52fccd7c00000000000000000000000000000000000000000000000000006b586350673d",
          "blockHash": "0x78fdcd2038ddb2d91eb0c1e7920f108cf8360029c22b47369959258f786dcf83",
          "blockNumber": "0x1681408",
          "transactionHash": "0x4a8759823e2d5261953fb4bfb54aafa914100d96174a4773f555a93ad1a6284c",
          "transactionIndex": "0x1",
          "logIndex": "0x1c",
          "removed": false
        },
        {
          "address": "0x1a44076050125825900e736c501f859c50fe728c",
          "topics": [
            "0x1ab700d4ced0c005b164c0f789fd09fcbb0156d4c2041b8a3bfbcd961cd1567f"
          ],
          "data": "0x00000000000000000000000000000000000000000000000000000000000000600000000000000000000000000000000000000000000000000000000000000120000000000000000000000000377530cda84dfb2673bf4d145dcf0c4d7fdcb5b600000000000000000000000000000000000000000000000000000000000000990100000000000000010000762f00000000000000000000000075c38d46001b0f8108c4136216bd2694982c20fc000076a700000000000000000000000090581eca9469d8d7f5d3b60f4715027adfcf792731f53d04fb3c61307ad23b761f725133195db3308170e1bdfb42c8549f67f13e000000000000000000000000741f0d8bde14140f62107fc60a0ee122b37d4630000000000000000a00000000000000000000000000000000000000000000000000000000000000000000000000001600030100110100000000000000000000000000030d4000000000000000000000",
          "blockHash": "0x78fdcd2038ddb2d91eb0c1e7920f108cf8360029c22b47369959258f786dcf83",
          "blockNumber": "0x1681408",
          "transactionHash": "0x4a8759823e2d5261953fb4bfb54aafa914100d96174a4773f555a93ad1a6284c",
          "transactionIndex": "0x1",
          "logIndex": "0x1d",
          "removed": false
        },
        {
          "address": "0x75c38d46001b0f8108c4136216bd2694982c20fc",
          "topics": [
            "0x85496b760a4b7f8d66384b9df21b381f5d1b1e79f229a47aaf4c232edc2fe59a",
            "0x31f53d04fb3c61307ad23b761f725133195db3308170e1bdfb42c8549f67f13e",
            "0x000000000000000000000000741f0d8bde14140f62107fc60a0ee122b37d4630"
          ],
          "data": "0x00000000000000000000000000000000000000000000000000000000000076a7000000000000000000000000000000000000000000000000000009184e72a000000000000000000000000000000000000000000000000000000009184e72a000",
          "blockHash": "0x78fdcd2038ddb2d91eb0c1e7920f108cf8360029c22b47369959258f786dcf83",
          "blockNumber": "0x1681408",
          "transactionHash": "0x4a8759823e2d5261953fb4bfb54aafa914100d96174a4773f555a93ad1a6284c",
          "transactionIndex": "0x1",
          "logIndex": "0x1e",
          "removed": false
        }
      ],
      "logsBloom": "0x0c0040000000002000000000000001401000000000400000200020000050000002000000001000000000000000804000000c0100000080000000000000000000000002204000000000000008400000000000000001100000090800000000040000000000000400008000180000a80000000000000110000000000410808000000000000000000080050000080081002000004008000000248000000000100000000000028014041000100100010000000000000000400000100440040000000000200002000000000840000080002000000010800000000000000000000000002801040000000000010000000121002080000000018000400000000000000000",
      "type": "0x2",
      "transactionHash": "0x4a8759823e2d5261953fb4bfb54aafa914100d96174a4773f555a93ad1a6284c",
      "transactionIndex": "0x1",
      "blockHash": "0x78fdcd2038ddb2d91eb0c1e7920f108cf8360029c22b47369959258f786dcf83",
      "blockNumber": "0x1681408",
      "gasUsed": "0x1b75ff",
      "effectiveGasPrice": "0x100611",
      "from": "0x45dce8e4f2dc005a5f28206a46cb034697eeda8e",
      "to": "0x741f0d8bde14140f62107fc60a0ee122b37d4630",
      "contractAddress": null,
      "l1BaseFeeScalar": "0x2faf080",
      "l1BlobBaseFee": "0x1",
      "l1BlobBaseFeeScalar": "0x0",
      "l1Fee": "0x58bdf17f2a25",
      "l1GasPrice": "0x16dd5ddb",
      "l1GasUsed": "0x13df"
    }
  ],
  "libraries": [],
  "pending": [],
  "returns": {},
  "timestamp": 1754006888,
  "chain": 252,
  "commit": "a0dbcb1"
}