{
  "transactions": [
    {
      "hash": "0x543ff66c7dc0131ccd5e00d0dcf97fd747e62dce3e549c516f5a8cb2ea4c25cc",
      "transactionType": "CALL",
      "contractName": null,
      "contractAddress": "0x741f0d8bde14140f62107fc60a0ee122b37d4630",
      "function": "batchBridgeWithEthFeeFromWallet((uint32,bytes32,uint256,uint256,bytes,bytes,bytes)[],address[],address[])",
      "arguments": [
        "[(30383, 0x000000000000000000000000741f0d8bde14140f62107fc60a0ee122b37d4630, 500000000000000000, 0, 0x, 0x, 0x)]",
        "[0x57558Cb8d6005DE0BAe8a2789d5EfaaE52dba5a8]",
        "[0x741F0d8Bde14140f62107FC60A0EE122B37D4630]"
      ],
      "transaction": {
        "from": "0x45dce8e4f2dc005a5f28206a46cb034697eeda8e",
        "to": "0x741f0d8bde14140f62107fc60a0ee122b37d4630",
        "gas": "0x8cbc3",
        "value": "0x15e9710fc30a",
        "input": "0xb70d4241000000000000000000000000000000000000000000000000000000000000006000000000000000000000000000000000000000000000000000000000000001e000000000000000000000000000000000000000000000000000000000000002200000000000000000000000000000000000000000000000000000000000000001000000000000000000000000000000000000000000000000000000000000002000000000000000000000000000000000000000000000000000000000000076af000000000000000000000000741f0d8bde14140f62107fc60a0ee122b37d463000000000000000000000000000000000000000000000000006f05b59d3b20000000000000000000000000000000000000000000000000000000000000000000000000000000000000000000000000000000000000000000000000000000000e000000000000000000000000000000000000000000000000000000000000001000000000000000000000000000000000000000000000000000000000000000120000000000000000000000000000000000000000000000000000000000000000000000000000000000000000000000000000000000000000000000000000000000000000000000000000000000000000000000000000000000000000000000000000000000000000000000000000000000000000000000000000000000000000100000000000000000000000057558cb8d6005de0bae8a2789d5efaae52dba5a80000000000000000000000000000000000000000000000000000000000000001000000000000000000000000741f0d8bde14140f62107fc60a0ee122b37d4630",
        "nonce": "0xaa",
        "chainId": "0x82750"
      },
      "additionalContracts": [],
      "isFixedGasLimit": false
    }
  ],
  "receipts": [
    {
      "status": "0x1",
      "cumulativeGasUsed": "0x65e3d",
      "logs": [
        {
          "address": "0x57558cb8d6005de0bae8a2789d5efaae52dba5a8",
          "topics": [
            "0xddf252ad1be2c89b69c2b068fc378daa952ba7f163c4a11628f55a4df523b3ef",
            "0x000000000000000000000000741f0d8bde14140f62107fc60a0ee122b37d4630",
            "0x0000000000000000000000000000000000000000000000000000000000000000"
          ],
          "data": "0x00000000000000000000000000000000000000000000000006f05b59d3b20000",
          "blockHash": "0xdbbc10a07a7650ead4a83f4b152fdd51a18fcb3fdc8ee6292e096b27381e9269",
          "blockNumber": "0x15924aa",
          "transactionHash": "0x543ff66c7dc0131ccd5e00d0dcf97fd747e62dce3e549c516f5a8cb2ea4c25cc",
          "transactionIndex": "0x0",
          "logIndex": "0x0",
          "removed": false
        },
        {
          "address": "0x9bbeb2b2184b9313cf5ed4a4ddfea2ef62a2a03b",
          "topics": [
            "0x61ed099e74a97a1d7f8bb0952a88ca8b7b8ebd00c126ea04671f92a81213318a"
          ],
          "data": "0x000000000000000000000000581b26f362ad383f7b51ef8a165efa13dde398a4000000000000000000000000000000000000000000000000000015e971072b53",
          "blockHash": "0xdbbc10a07a7650ead4a83f4b152fdd51a18fcb3fdc8ee6292e096b27381e9269",
          "blockNumber": "0x15924aa",
          "transactionHash": "0x543ff66c7dc0131ccd5e00d0dcf97fd747e62dce3e549c516f5a8cb2ea4c25cc",
          "transactionIndex": "0x0",
          "logIndex": "0x1",
          "removed": false
        },
        {
          "address": "0x9bbeb2b2184b9313cf5ed4a4ddfea2ef62a2a03b",
          "topics": [
            "0x07ea52d82345d6e838192107d8fd7123d9c2ec8e916cd0aad13fd2b60db24644"
          ],
          "data": "0x000000000000000000000000000000000000000000000000000000000000006000000000000000000000000000000000000000000000000000000000000000e0000000000000000000000000000000000000000000000000000000000000010000000000000000000000000000000000000000000000000000000000000000030000000000000000000000007fe673201724925b5c477d4e1a4bd3e954688cf500000000000000000000000093bb6f93fa90a18e88a27bcfbcb048f7e14733c6000000000000000000000000be0d08a85eebfcc6eda0a843521f7cbb1180d2e200000000000000000000000000000000000000000000000000000000000000000000000000000000000000000000000000000000000000000000000000000003000000000000000000000000000000000000000000000000000000000002d31b000000000000000000000000000000000000000000000000000000000002f181000000000000000000000000000000000000000000000000000000000002d31b",
          "blockHash": "0xdbbc10a07a7650ead4a83f4b152fdd51a18fcb3fdc8ee6292e096b27381e9269",
          "blockNumber": "0x15924aa",
          "transactionHash": "0x543ff66c7dc0131ccd5e00d0dcf97fd747e62dce3e549c516f5a8cb2ea4c25cc",
          "transactionIndex": "0x0",
          "logIndex": "0x2",
          "removed": false
        },
        {
          "address": "0x1a44076050125825900e736c501f859c50fe728c",
          "topics": [
            "0x1ab700d4ced0c005b164c0f789fd09fcbb0156d4c2041b8a3bfbcd961cd1567f"
          ],
          "data": "0x000000000000000000000000000000000000000000000000000000000000006000000000000000000000000000000000000000000000000000000000000001200000000000000000000000009bbeb2b2184b9313cf5ed4a4ddfea2ef62a2a03b00000000000000000000000000000000000000000000000000000000000000990100000000000000010000760600000000000000000000000057558cb8d6005de0bae8a2789d5efaae52dba5a8000076af00000000000000000000000057558cb8d6005de0bae8a2789d5efaae52dba5a86ab333c8b5b22ff6ea2d708cc2cb4a4550bdb954f6c9d3ee6f502ffaf41c42e4000000000000000000000000741f0d8bde14140f62107fc60a0ee122b37d4630000000000007a12000000000000000000000000000000000000000000000000000000000000000000000000000001600030100110100000000000000000000000000030d4000000000000000000000",
          "blockHash": "0xdbbc10a07a7650ead4a83f4b152fdd51a18fcb3fdc8ee6292e096b27381e9269",
          "blockNumber": "0x15924aa",
          "transactionHash": "0x543ff66c7dc0131ccd5e00d0dcf97fd747e62dce3e549c516f5a8cb2ea4c25cc",
          "transactionIndex": "0x0",
          "logIndex": "0x3",
          "removed": false
        },
        {
          "address": "0x57558cb8d6005de0bae8a2789d5efaae52dba5a8",
          "topics": [
            "0x85496b760a4b7f8d66384b9df21b381f5d1b1e79f229a47aaf4c232edc2fe59a",
            "0x6ab333c8b5b22ff6ea2d708cc2cb4a4550bdb954f6c9d3ee6f502ffaf41c42e4",
            "0x000000000000000000000000741f0d8bde14140f62107fc60a0ee122b37d4630"
          ],
          "data": "0x00000000000000000000000000000000000000000000000000000000000076af00000000000000000000000000000000000000000000000006f05b59d3b2000000000000000000000000000000000000000000000000000006f05b59d3b20000",
          "blockHash": "0xdbbc10a07a7650ead4a83f4b152fdd51a18fcb3fdc8ee6292e096b27381e9269",
          "blockNumber": "0x15924aa",
          "transactionHash": "0x543ff66c7dc0131ccd5e00d0dcf97fd747e62dce3e549c516f5a8cb2ea4c25cc",
          "transactionIndex": "0x0",
          "logIndex": "0x4",
          "removed": false
        }
      ],
      "logsBloom": "0x0000000000000000000000000004004000000000000000000000000000100000000000000000000000000000000000040000010000000000000000000000000000000200000000000000000800000000000000000000000000000000000000000000000002000000800000000000080000000000001000100000001000000000000000000000000000000008000000000000000000000000010800000000000000000000a000001000100100000000000000000000400000000440000000000000000402000000000000000080000000000000000000000000000000000020000000040000000000000000000000002100000000018000000000000000000000",
      "type": "0x2",
      "transactionHash": "0x543ff66c7dc0131ccd5e00d0dcf97fd747e62dce3e549c516f5a8cb2ea4c25cc",
      "transactionIndex": "0x0",
      "blockHash": "0xdbbc10a07a7650ead4a83f4b152fdd51a18fcb3fdc8ee6292e096b27381e9269",
      "blockNumber": "0x15924aa",
      "gasUsed": "0x65e3d",
      "effectiveGasPrice": "0x1d52c",
      "from": "0x45dce8e4f2dc005a5f28206a46cb034697eeda8e",
      "to": "0x741f0d8bde14140f62107fc60a0ee122b37d4630",
      "contractAddress": null,
      "l1Fee": "0x2befe66f3"
    }
  ],
  "libraries": [],
  "pending": [],
  "returns": {},
  "timestamp": 1759694547289,
  "chain": 534352,
  "commit": "eed1662"
}