{
  "transactions": [
    {
      "hash": "0x4cfce9f09308ba07806109b74f46f2b568da0e6993e7ecbb759fd667fa0ddc9e",
      "transactionType": "CALL",
      "contractName": null,
      "contractAddress": "0x741f0d8bde14140f62107fc60a0ee122b37d4630",
      "function": "batchBridgeWithEthFeeFromWallet((uint32,bytes32,uint256,uint256,bytes,bytes,bytes)[],address[],address[])",
      "arguments": [
        "[(30367, 0x000000000000000000000000741f0d8bde14140f62107fc60a0ee122b37d4630, 500000000000000000, 0, 0x, 0x, 0x)]",
        "[0x57558Cb8d6005DE0BAe8a2789d5EfaaE52dba5a8]",
        "[0x741F0d8Bde14140f62107FC60A0EE122B37D4630]"
      ],
      "transaction": {
        "from": "0x45dce8e4f2dc005a5f28206a46cb034697eeda8e",
        "to": "0x741f0d8bde14140f62107fc60a0ee122b37d4630",
        "gas": "0x8cbc3",
        "value": "0x49940aa0079",
        "input": "0xb70d4241000000000000000000000000000000000000000000000000000000000000006000000000000000000000000000000000000000000000000000000000000001e0000000000000000000000000000000000000000000000000000000000000022000000000000000000000000000000000000000000000000000000000000000010000000000000000000000000000000000000000000000000000000000000020000000000000000000000000000000000000000000000000000000000000769f000000000000000000000000741f0d8bde14140f62107fc60a0ee122b37d463000000000000000000000000000000000000000000000000006f05b59d3b20000000000000000000000000000000000000000000000000000000000000000000000000000000000000000000000000000000000000000000000000000000000e000000000000000000000000000000000000000000000000000000000000001000000000000000000000000000000000000000000000000000000000000000120000000000000000000000000000000000000000000000000000000000000000000000000000000000000000000000000000000000000000000000000000000000000000000000000000000000000000000000000000000000000000000000000000000000000000000000000000000000000000000000000000000000000000100000000000000000000000057558cb8d6005de0bae8a2789d5efaae52dba5a80000000000000000000000000000000000000000000000000000000000000001000000000000000000000000741f0d8bde14140f62107fc60a0ee122b37d4630",
        "nonce": "0xa3",
        "chainId": "0x82750"
      },
      "additionalContracts": [],
      "isFixedGasLimit": false
    }
  ],
  "receipts": [
    {
      "status": "0x1",
      "cumulativeGasUsed": "0x65e3d",
      "logs": [
        {
          "address": "0x57558cb8d6005de0bae8a2789d5efaae52dba5a8",
          "topics": [
            "0xddf252ad1be2c89b69c2b068fc378daa952ba7f163c4a11628f55a4df523b3ef",
            "0x000000000000000000000000741f0d8bde14140f62107fc60a0ee122b37d4630",
            "0x0000000000000000000000000000000000000000000000000000000000000000"
          ],
          "data": "0x00000000000000000000000000000000000000000000000006f05b59d3b20000",
          "blockHash": "0x1f29d9da92600b1fe952afc2e2ef2e451c90c766cbacc931a9316bc0cdee8ee5",
          "blockNumber": "0x145e58b",
          "transactionHash": "0x4cfce9f09308ba07806109b74f46f2b568da0e6993e7ecbb759fd667fa0ddc9e",
          "transactionIndex": "0x0",
          "logIndex": "0x0",
          "removed": false
        },
        {
          "address": "0x9bbeb2b2184b9313cf5ed4a4ddfea2ef62a2a03b",
          "topics": [
            "0x61ed099e74a97a1d7f8bb0952a88ca8b7b8ebd00c126ea04671f92a81213318a"
          ],
          "data": "0x000000000000000000000000581b26f362ad383f7b51ef8a165efa13dde398a400000000000000000000000000000000000000000000000000000441f5733349",
          "blockHash": "0x1f29d9da92600b1fe952afc2e2ef2e451c90c766cbacc931a9316bc0cdee8ee5",
          "blockNumber": "0x145e58b",
          "transactionHash": "0x4cfce9f09308ba07806109b74f46f2b568da0e6993e7ecbb759fd667fa0ddc9e",
          "transactionIndex": "0x0",
          "logIndex": "0x1",
          "removed": false
        },
        {
          "address": "0x9bbeb2b2184b9313cf5ed4a4ddfea2ef62a2a03b",
          "topics": [
            "0x07ea52d82345d6e838192107d8fd7123d9c2ec8e916cd0aad13fd2b60db24644"
          ],
          "data": "0x000000000000000000000000000000000000000000000000000000000000006000000000000000000000000000000000000000000000000000000000000000e0000000000000000000000000000000000000000000000000000000000000010000000000000000000000000000000000000000000000000000000000000000030000000000000000000000007fe673201724925b5c477d4e1a4bd3e954688cf500000000000000000000000093bb6f93fa90a18e88a27bcfbcb048f7e14733c6000000000000000000000000be0d08a85eebfcc6eda0a843521f7cbb1180d2e2000000000000000000000000000000000000000000000000000000000000000000000000000000000000000000000000000000000000000000000000000000030000000000000000000000000000000000000000000000000000001cb221d8f10000000000000000000000000000000000000000000000000000001de6f31b4e0000000000000000000000000000000000000000000000000000001cb221d8f1",
          "blockHash": "0x1f29d9da92600b1fe952afc2e2ef2e451c90c766cbacc931a9316bc0cdee8ee5",
          "blockNumber": "0x145e58b",
          "transactionHash": "0x4cfce9f09308ba07806109b74f46f2b568da0e6993e7ecbb759fd667fa0ddc9e",
          "transactionIndex": "0x0",
          "logIndex": "0x2",
          "removed": false
        },
        {
          "address": "0x1a44076050125825900e736c501f859c50fe728c",
          "topics": [
            "0x1ab700d4ced0c005b164c0f789fd09fcbb0156d4c2041b8a3bfbcd961cd1567f"
          ],
          "data": "0x000000000000000000000000000000000000000000000000000000000000006000000000000000000000000000000000000000000000000000000000000001200000000000000000000000009bbeb2b2184b9313cf5ed4a4ddfea2ef62a2a03b00000000000000000000000000000000000000000000000000000000000000990100000000000000010000760600000000000000000000000057558cb8d6005de0bae8a2789d5efaae52dba5a80000769f00000000000000000000000057558cb8d6005de0bae8a2789d5efaae52dba5a837963c68900bca467fb4980931361e18bdb82294cdce8bdb9449b013edfb62f3000000000000000000000000741f0d8bde14140f62107fc60a0ee122b37d4630000000000007a12000000000000000000000000000000000000000000000000000000000000000000000000000001600030100110100000000000000000000000000030d4000000000000000000000",
          "blockHash": "0x1f29d9da92600b1fe952afc2e2ef2e451c90c766cbacc931a9316bc0cdee8ee5",
          "blockNumber": "0x145e58b",
          "transactionHash": "0x4cfce9f09308ba07806109b74f46f2b568da0e6993e7ecbb759fd667fa0ddc9e",
          "transactionIndex": "0x0",
          "logIndex": "0x3",
          "removed": false
        },
        {
          "address": "0x57558cb8d6005de0bae8a2789d5efaae52dba5a8",
          "topics": [
            "0x85496b760a4b7f8d66384b9df21b381f5d1b1e79f229a47aaf4c232edc2fe59a",
            "0x37963c68900bca467fb4980931361e18bdb82294cdce8bdb9449b013edfb62f3",
            "0x000000000000000000000000741f0d8bde14140f62107fc60a0ee122b37d4630"
          ],
          "data": "0x000000000000000000000000000000000000000000000000000000000000769f00000000000000000000000000000000000000000000000006f05b59d3b2000000000000000000000000000000000000000000000000000006f05b59d3b20000",
          "blockHash": "0x1f29d9da92600b1fe952afc2e2ef2e451c90c766cbacc931a9316bc0cdee8ee5",
          "blockNumber": "0x145e58b",
          "transactionHash": "0x4cfce9f09308ba07806109b74f46f2b568da0e6993e7ecbb759fd667fa0ddc9e",
          "transactionIndex": "0x0",
          "logIndex": "0x4",
          "removed": false
        }
      ],
      "logsBloom": "0x000000000000000000000000200400400000000000000000000000000010000000000000000000000000000000000004000001000000000000000000000000000000020000000000000000080000000000000000000000000000000000000000000000000200000080000000000008000000000000100010000000100000000000000000000000000000000a000000000000000000000000000800000000000000000000a000001000100000000000000000000000400000000440000000000000000402000000000000000080000000000000000000000000010000000020000000040000000000000000000000002000000000018000000000000000000000",
      "type": "0x2",
      "transactionHash": "0x4cfce9f09308ba07806109b74f46f2b568da0e6993e7ecbb759fd667fa0ddc9e",
      "transactionIndex": "0x0",
      "blockHash": "0x1f29d9da92600b1fe952afc2e2ef2e451c90c766cbacc931a9316bc0cdee8ee5",
      "blockNumber": "0x145e58b",
      "gasUsed": "0x65e3d",
      "effectiveGasPrice": "0x1d52c",
      "from": "0x45dce8e4f2dc005a5f28206a46cb034697eeda8e",
      "to": "0x741f0d8bde14140f62107fc60a0ee122b37d4630",
      "contractAddress": null,
      "l1Fee": "0x2ec21e468"
    }
  ],
  "libraries": [],
  "pending": [],
  "returns": {},
  "timestamp": 1758000195999,
  "chain": 534352,
  "commit": "2724ada"
}