{
  "transactions": [
    {
      "hash": "0x3e330d266972859b931b83b95f80bfeb8e767318bc14c57c181e30a21a05d2f0",
      "transactionType": "CALL",
      "contractName": null,
      "contractAddress": "0xfeec000000000000000000000000000000000000",
      "function": "setUserToken(address)",
      "arguments": [
        "0x20C0000000000000000000000000000000000000"
      ],
      "transaction": {
        "from": "0x1d434906aa520e592fab2b82406beff859be8e82",
        "to": "0xfeec000000000000000000000000000000000000",
        "gas": "0xfdbd",
        "value": "0x0",
        "input": "0xe789744400000000000000000000000020c0000000000000000000000000000000000000",
        "nonce": "0x7",
        "chainId": "0xa5bf",
        "feeToken": null,
        "calls": [],
        "keyType": null,
        "keyData": null
      },
      "additionalContracts": [],
      "isFixedGasLimit": false
    },
    {
      "hash": "0xb44fa1f1727d7737c2fcd4d353ff383886dd7a0b4785a96808ef53c60092a938",
      "transactionType": "CALL",
      "contractName": null,
      "contractAddress": "0x20c0000000000000000000000000000000000000",
      "function": "approve(address,uint256)",
      "arguments": [
        "0x16FBfCF4970D4550791faF75AE9BaecE75C85A27",
        "1208621"
      ],
      "transaction": {
        "from": "0x1d434906aa520e592fab2b82406beff859be8e82",
        "to": "0x20c0000000000000000000000000000000000000",
        "gas": "0xf669",
        "value": "0x0",
        "input": "0x095ea7b300000000000000000000000016fbfcf4970d4550791faf75ae9baece75c85a27000000000000000000000000000000000000000000000000000000000012712d",
        "nonce": "0x8",
        "chainId": "0xa5bf",
        "feeToken": null,
        "calls": [],
        "keyType": null,
        "keyData": null
      },
      "additionalContracts": [],
      "isFixedGasLimit": false
    },
    {
      "hash": "0x5bebec292263220ca0bbc124f14830d7b5bb56dd34cc770e4e18e78704950bfb",
      "transactionType": "CALL",
      "contractName": null,
      "contractAddress": "0x20c000000000000000000000cf5b0f48f7fedc7f",
      "function": "approve(address,uint256)",
      "arguments": [
        "0x16FBfCF4970D4550791faF75AE9BaecE75C85A27",
        "10000"
      ],
      "transaction": {
        "from": "0x1d434906aa520e592fab2b82406beff859be8e82",
        "to": "0x20c000000000000000000000cf5b0f48f7fedc7f",
        "gas": "0x104d6",
        "value": "0x0",
        "input": "0x095ea7b300000000000000000000000016fbfcf4970d4550791faf75ae9baece75c85a270000000000000000000000000000000000000000000000000000000000002710",
        "nonce": "0x9",
        "chainId": "0xa5bf",
        "feeToken": null,
        "calls": [],
        "keyType": null,
        "keyData": null
      },
      "additionalContracts": [],
      "isFixedGasLimit": false
    },
    {
      "hash": "0x01f615d4758c1075a76fd78e02418a0c3254de7dd280885d82fca308e46e49f0",
      "transactionType": "CALL",
      "contractName": null,
      "contractAddress": "0x16fbfcf4970d4550791faf75ae9baece75c85a27",
      "function": "send((uint32,bytes32,uint256,uint256,bytes,bytes,bytes),(uint256,uint256),address)",
      "arguments": [
        "(40161, 0x0000000000000000000000000990be6db8c785fbbf9ded8baec612a10cae814b, 10000, 10000, 0x, 0x, 0x)",
        "(1208621, 0)",
        "0x1d434906Aa520E592fAB2b82406BEfF859be8e82"
      ],
      "transaction": {
        "from": "0x1d434906aa520e592fab2b82406beff859be8e82",
        "to": "0x16fbfcf4970d4550791faf75ae9baece75c85a27",
        "gas": "0xc6801",
        "value": "0x0",
        "input": "0xc7c7f5b30000000000000000000000000000000000000000000000000000000000000080000000000000000000000000000000000000000000000000000000000012712d00000000000000000000000000000000000000000000000000000000000000000000000000000000000000001d434906aa520e592fab2b82406beff859be8e820000000000000000000000000000000000000000000000000000000000009ce10000000000000000000000000990be6db8c785fbbf9ded8baec612a10cae814b0000000000000000000000000000000000000000000000000000000000002710000000000000000000000000000000000000000000000000000000000000271000000000000000000000000000000000000000000000000000000000000000e000000000000000000000000000000000000000000000000000000000000001000000000000000000000000000000000000000000000000000000000000000120000000000000000000000000000000000000000000000000000000000000000000000000000000000000000000000000000000000000000000000000000000000000000000000000000000000000000000000000000000000000000000000000",
        "nonce": "0xa",
        "chainId": "0xa5bf",
        "feeToken": null,
        "calls": [],
        "keyType": null,
        "keyData": null
      },
      "additionalContracts": [],
      "isFixedGasLimit": false
    }
  ],
  "receipts": [
    {
      "type": "0x2",
      "status": "0x1",
      "cumulativeGasUsed": "0x5326bd",
      "logs": [
        {
          "address": "0xfeec000000000000000000000000000000000000",
          "topics": [
            "0xabc7758d4ca817ce0d125eb731121a1304c36077b791253be835b95472368856",
            "0x0000000000000000000000001d434906aa520e592fab2b82406beff859be8e82",
            "0x00000000000000000000000020c0000000000000000000000000000000000000"
          ],
          "data": "0x",
          "blockHash": "0x2e9a01a5643598d6c7219da1571103233f8cfc304aeb114a6d9dee9e6a622fb1",
          "blockNumber": "0x35d613",
          "blockTimestamp": "0x6982616b",
          "transactionHash": "0xb44fa1f1727d7737c2fcd4d353ff383886dd7a0b4785a96808ef53c60092a938",
          "transactionIndex": "0x48",
          "logIndex": "0xa6",
          "removed": false
        },
        {
          "address": "0x20c0000000000000000000000000000000000000",
          "topics": [
            "0xddf252ad1be2c89b69c2b068fc378daa952ba7f163c4a11628f55a4df523b3ef",
            "0x0000000000000000000000001d434906aa520e592fab2b82406beff859be8e82",
            "0x000000000000000000000000feec000000000000000000000000000000000000"
          ],
          "data": "0x00000000000000000000000000000000000000000000000000000000000001c3",
          "blockHash": "0x2e9a01a5643598d6c7219da1571103233f8cfc304aeb114a6d9dee9e6a622fb1",
          "blockNumber": "0x35d613",
          "blockTimestamp": "0x6982616b",
          "transactionHash": "0xb44fa1f1727d7737c2fcd4d353ff383886dd7a0b4785a96808ef53c60092a938",
          "transactionIndex": "0x48",
          "logIndex": "0xa7",
          "removed": false
        }
      ],
      "logsBloom": "0x00000000000000000000000000000000000000000000000000000000000000000040040000000000000100000100000000000000000000000000000000000000000004000000000000000008000000000000000000000000000000000400000000000000000000000080000000000000000000000000000000000010100000000000000000000000000000000020000000000000800000000000000000000000080020000000000000000000000400000000000000000000000000040000000000000002000000000000000000000000000000000080000000000000000000000000000000000000000100000000000002000800000000000000000000000000",
      "transactionHash": "0xb44fa1f1727d7737c2fcd4d353ff383886dd7a0b4785a96808ef53c60092a938",
      "transactionIndex": "0x48",
      "blockHash": "0x2e9a01a5643598d6c7219da1571103233f8cfc304aeb114a6d9dee9e6a622fb1",
      "blockNumber": "0x35d613",
      "gasUsed": "0xafe4",
      "effectiveGasPrice": "0x2540c48b5",
      "from": "0x1d434906aa520e592fab2b82406beff859be8e82",
      "to": "0xfeec000000000000000000000000000000000000",
      "contractAddress": null,
      "feeToken": "0x20c0000000000000000000000000000000000000",
      "feePayer": "0x1d434906aa520e592fab2b82406beff859be8e82"
    },
    {
      "type": "0x2",
      "status": "0x1",
      "cumulativeGasUsed": "0x53d923",
      "logs": [
        {
          "address": "0x20c0000000000000000000000000000000000000",
          "topics": [
            "0x8c5be1e5ebec7d5bd14f71427d1e84f3dd0314c0f7b2291e5b200ac8c7c3b925",
            "0x0000000000000000000000001d434906aa520e592fab2b82406beff859be8e82",
            "0x00000000000000000000000016fbfcf4970d4550791faf75ae9baece75c85a27"
          ],
          "data": "0x000000000000000000000000000000000000000000000000000000000012712d",
          "blockHash": "0x2e9a01a5643598d6c7219da1571103233f8cfc304aeb114a6d9dee9e6a622fb1",
          "blockNumber": "0x35d613",
          "blockTimestamp": "0x6982616b",
          "transactionHash": "0x01f615d4758c1075a76fd78e02418a0c3254de7dd280885d82fca308e46e49f0",
          "transactionIndex": "0x49",
          "logIndex": "0xa8",
          "removed": false
        },
        {
          "address": "0x20c0000000000000000000000000000000000000",
          "topics": [
            "0xddf252ad1be2c89b69c2b068fc378daa952ba7f163c4a11628f55a4df523b3ef",
            "0x0000000000000000000000001d434906aa520e592fab2b82406beff859be8e82",
            "0x000000000000000000000000feec000000000000000000000000000000000000"
          ],
          "data": "0x00000000000000000000000000000000000000000000000000000000000001c9",
          "blockHash": "0x2e9a01a5643598d6c7219da1571103233f8cfc304aeb114a6d9dee9e6a622fb1",
          "blockNumber": "0x35d613",
          "blockTimestamp": "0x6982616b",
          "transactionHash": "0x01f615d4758c1075a76fd78e02418a0c3254de7dd280885d82fca308e46e49f0",
          "transactionIndex": "0x49",
          "logIndex": "0xa9",
          "removed": false
        }
      ],
      "logsBloom": "0x000010000000000000000000000000000000000000000000000000000000000200400000000000000001000001000000000000000000000000000000002000000000040000000000000000080000000000000000000000000000000004000000000000000000000000000000000000000000000000000000000000100000000000000000000000000000000000202000000000008000000000000000000000000a0020000000000000000000000000000000000000000000000000000000000000000002000000000000000000000000000000000000000000000000000000000010000000000000000000000000000000000000000000000000000000000000",
      "transactionHash": "0x01f615d4758c1075a76fd78e02418a0c3254de7dd280885d82fca308e46e49f0",
      "transactionIndex": "0x49",
      "blockHash": "0x2e9a01a5643598d6c7219da1571103233f8cfc304aeb114a6d9dee9e6a622fb1",
      "blockNumber": "0x35d613",
      "gasUsed": "0xb266",
      "effectiveGasPrice": "0x2540c48b5",
      "from": "0x1d434906aa520e592fab2b82406beff859be8e82",
      "to": "0x20c0000000000000000000000000000000000000",
      "contractAddress": null,
      "feeToken": "0x20c0000000000000000000000000000000000000",
      "feePayer": "0x1d434906aa520e592fab2b82406beff859be8e82"
    },
    {
      "type": "0x2",
      "status": "0x1",
      "cumulativeGasUsed": "0x548b7d",
      "logs": [
        {
          "address": "0x20c000000000000000000000cf5b0f48f7fedc7f",
          "topics": [
            "0x8c5be1e5ebec7d5bd14f71427d1e84f3dd0314c0f7b2291e5b200ac8c7c3b925",
            "0x0000000000000000000000001d434906aa520e592fab2b82406beff859be8e82",
            "0x00000000000000000000000016fbfcf4970d4550791faf75ae9baece75c85a27"
          ],
          "data": "0x0000000000000000000000000000000000000000000000000000000000002710",
          "blockHash": "0x2e9a01a5643598d6c7219da1571103233f8cfc304aeb114a6d9dee9e6a622fb1",
          "blockNumber": "0x35d613",
          "blockTimestamp": "0x6982616b",
          "transactionHash": "0x5bebec292263220ca0bbc124f14830d7b5bb56dd34cc770e4e18e78704950bfb",
          "transactionIndex": "0x4a",
          "logIndex": "0xaa",
          "removed": false
        },
        {
          "address": "0x20c0000000000000000000000000000000000000",
          "topics": [
            "0xddf252ad1be2c89b69c2b068fc378daa952ba7f163c4a11628f55a4df523b3ef",
            "0x0000000000000000000000001d434906aa520e592fab2b82406beff859be8e82",
            "0x000000000000000000000000feec000000000000000000000000000000000000"
          ],
          "data": "0x00000000000000000000000000000000000000000000000000000000000001c9",
          "blockHash": "0x2e9a01a5643598d6c7219da1571103233f8cfc304aeb114a6d9dee9e6a622fb1",
          "blockNumber": "0x35d613",
          "blockTimestamp": "0x6982616b",
          "transactionHash": "0x5bebec292263220ca0bbc124f14830d7b5bb56dd34cc770e4e18e78704950bfb",
          "transactionIndex": "0x4a",
          "logIndex": "0xab",
          "removed": false
        }
      ],
      "logsBloom": "0x000010000000000000000000000000000000000000000000000000000000000200400000000000000001000001080000000000000000000000000000002000000000040000000000000000080000000000000000000000000000000004000000000000000000000000000000000000000000000000000000000000100000000000000000000000000000000000202000000000008000000000000000000000000a0020000000000000000000000000000000000000000000000000000000000000000002000000000000000000000000000000000000000000000000000000000010000000004000000000000000000000000000000000000000000000000000",
      "transactionHash": "0x5bebec292263220ca0bbc124f14830d7b5bb56dd34cc770e4e18e78704950bfb",
      "transactionIndex": "0x4a",
      "blockHash": "0x2e9a01a5643598d6c7219da1571103233f8cfc304aeb114a6d9dee9e6a622fb1",
      "blockNumber": "0x35d613",
      "gasUsed": "0xb25a",
      "effectiveGasPrice": "0x2540c48b5",
      "from": "0x1d434906aa520e592fab2b82406beff859be8e82",
      "to": "0x20c000000000000000000000cf5b0f48f7fedc7f",
      "contractAddress": null,
      "feeToken": "0x20c0000000000000000000000000000000000000",
      "feePayer": "0x1d434906aa520e592fab2b82406beff859be8e82"
    },
    {
      "type": "0x2",
      "status": "0x1",
      "cumulativeGasUsed": "0x5cc0ce",
      "logs": [
        {
          "address": "0x16fbfcf4970d4550791faf75ae9baece75c85a27",
          "topics": [
            "0x603e191ccb1fad1c0004c9c1f37101358f84c3cf059031e9ec9b0c17cad34188",
            "0x0000000000000000000000000000000000000000000000000000000000009ce1"
          ],
          "data": "0x00000000000000000000000000000000000000000000000000000000000000000000000000000000000000000000000000000000000000000000000000002710",
          "blockHash": "0x2e9a01a5643598d6c7219da1571103233f8cfc304aeb114a6d9dee9e6a622fb1",
          "blockNumber": "0x35d613",
          "blockTimestamp": "0x6982616b",
          "transactionHash": "0x3e330d266972859b931b83b95f80bfeb8e767318bc14c57c181e30a21a05d2f0",
          "transactionIndex": "0x4b",
          "logIndex": "0xac",
          "removed": false
        },
        {
          "address": "0x16fbfcf4970d4550791faf75ae9baece75c85a27",
          "topics": [
            "0xd2ff7607bbad14e866630d67da40c9a9cedd964cce5ce4c3dc4176133954ef98"
          ],
          "data": "0x00000000000000000000000000000000000000000000000000000000000000000000000000000000000000000000000000000000000000000000000000002710",
          "blockHash": "0x2e9a01a5643598d6c7219da1571103233f8cfc304aeb114a6d9dee9e6a622fb1",
          "blockNumber": "0x35d613",
          "blockTimestamp": "0x6982616b",
          "transactionHash": "0x3e330d266972859b931b83b95f80bfeb8e767318bc14c57c181e30a21a05d2f0",
          "transactionIndex": "0x4b",
          "logIndex": "0xad",
          "removed": false
        },
        {
          "address": "0x20c000000000000000000000cf5b0f48f7fedc7f",
          "topics": [
            "0xddf252ad1be2c89b69c2b068fc378daa952ba7f163c4a11628f55a4df523b3ef",
            "0x0000000000000000000000001d434906aa520e592fab2b82406beff859be8e82",
            "0x00000000000000000000000016fbfcf4970d4550791faf75ae9baece75c85a27"
          ],
          "data": "0x0000000000000000000000000000000000000000000000000000000000002710",
          "blockHash": "0x2e9a01a5643598d6c7219da1571103233f8cfc304aeb114a6d9dee9e6a622fb1",
          "blockNumber": "0x35d613",
          "blockTimestamp": "0x6982616b",
          "transactionHash": "0x3e330d266972859b931b83b95f80bfeb8e767318bc14c57c181e30a21a05d2f0",
          "transactionIndex": "0x4b",
          "logIndex": "0xae",
          "removed": false
        },
        {
          "address": "0x20c000000000000000000000cf5b0f48f7fedc7f",
          "topics": [
            "0xddf252ad1be2c89b69c2b068fc378daa952ba7f163c4a11628f55a4df523b3ef",
            "0x00000000000000000000000016fbfcf4970d4550791faf75ae9baece75c85a27",
            "0x0000000000000000000000000000000000000000000000000000000000000000"
          ],
          "data": "0x0000000000000000000000000000000000000000000000000000000000002710",
          "blockHash": "0x2e9a01a5643598d6c7219da1571103233f8cfc304aeb114a6d9dee9e6a622fb1",
          "blockNumber": "0x35d613",
          "blockTimestamp": "0x6982616b",
          "transactionHash": "0x3e330d266972859b931b83b95f80bfeb8e767318bc14c57c181e30a21a05d2f0",
          "transactionIndex": "0x4b",
          "logIndex": "0xaf",
          "removed": false
        },
        {
          "address": "0x20c000000000000000000000cf5b0f48f7fedc7f",
          "topics": [
            "0xcc16f5dbb4873280815c1ee09dbd06736cffcc184412cf7a71a0fdb75d397ca5",
            "0x00000000000000000000000016fbfcf4970d4550791faf75ae9baece75c85a27"
          ],
          "data": "0x0000000000000000000000000000000000000000000000000000000000002710",
          "blockHash": "0x2e9a01a5643598d6c7219da1571103233f8cfc304aeb114a6d9dee9e6a622fb1",
          "blockNumber": "0x35d613",
          "blockTimestamp": "0x6982616b",
          "transactionHash": "0x3e330d266972859b931b83b95f80bfeb8e767318bc14c57c181e30a21a05d2f0",
          "transactionIndex": "0x4b",
          "logIndex": "0xb0",
          "removed": false
        },
        {
          "address": "0x20c0000000000000000000000000000000000000",
          "topics": [
            "0xddf252ad1be2c89b69c2b068fc378daa952ba7f163c4a11628f55a4df523b3ef",
            "0x0000000000000000000000001d434906aa520e592fab2b82406beff859be8e82",
            "0x00000000000000000000000016fbfcf4970d4550791faf75ae9baece75c85a27"
          ],
          "data": "0x000000000000000000000000000000000000000000000000000000000012712d",
          "blockHash": "0x2e9a01a5643598d6c7219da1571103233f8cfc304aeb114a6d9dee9e6a622fb1",
          "blockNumber": "0x35d613",
          "blockTimestamp": "0x6982616b",
          "transactionHash": "0x3e330d266972859b931b83b95f80bfeb8e767318bc14c57c181e30a21a05d2f0",
          "transactionIndex": "0x4b",
          "logIndex": "0xb1",
          "removed": false
        },
        {
          "address": "0x20c0000000000000000000000000000000000000",
          "topics": [
            "0x8c5be1e5ebec7d5bd14f71427d1e84f3dd0314c0f7b2291e5b200ac8c7c3b925",
            "0x00000000000000000000000016fbfcf4970d4550791faf75ae9baece75c85a27",
            "0x0000000000000000000000000e81579b25c9c458a2030824b7fdbd0194900803"
          ],
          "data": "0x000000000000000000000000000000000000000000000000000000000012712d",
          "blockHash": "0x2e9a01a5643598d6c7219da1571103233f8cfc304aeb114a6d9dee9e6a622fb1",
          "blockNumber": "0x35d613",
          "blockTimestamp": "0x6982616b",
          "transactionHash": "0x3e330d266972859b931b83b95f80bfeb8e767318bc14c57c181e30a21a05d2f0",
          "transactionIndex": "0x4b",
          "logIndex": "0xb2",
          "removed": false
        },
        {
          "address": "0x20c0000000000000000000000000000000000000",
          "topics": [
            "0xddf252ad1be2c89b69c2b068fc378daa952ba7f163c4a11628f55a4df523b3ef",
            "0x00000000000000000000000016fbfcf4970d4550791faf75ae9baece75c85a27",
            "0x0000000000000000000000000e81579b25c9c458a2030824b7fdbd0194900803"
          ],
          "data": "0x000000000000000000000000000000000000000000000000000000000012712d",
          "blockHash": "0x2e9a01a5643598d6c7219da1571103233f8cfc304aeb114a6d9dee9e6a622fb1",
          "blockNumber": "0x35d613",
          "blockTimestamp": "0x6982616b",
          "transactionHash": "0x3e330d266972859b931b83b95f80bfeb8e767318bc14c57c181e30a21a05d2f0",
          "transactionIndex": "0x4b",
          "logIndex": "0xb3",
          "removed": false
        },
        {
          "address": "0x0e81579b25c9c458a2030824b7fdbd0194900803",
          "topics": [
            "0xddf252ad1be2c89b69c2b068fc378daa952ba7f163c4a11628f55a4df523b3ef",
            "0x0000000000000000000000000000000000000000000000000000000000000000",
            "0x000000000000000000000000fb34352ba2e2d9cb93837bb19d36db5d93bcfc41"
          ],
          "data": "0x000000000000000000000000000000000000000000000000000000000012712d",
          "blockHash": "0x2e9a01a5643598d6c7219da1571103233f8cfc304aeb114a6d9dee9e6a622fb1",
          "blockNumber": "0x35d613",
          "blockTimestamp": "0x6982616b",
          "transactionHash": "0x3e330d266972859b931b83b95f80bfeb8e767318bc14c57c181e30a21a05d2f0",
          "transactionIndex": "0x4b",
          "logIndex": "0xb4",
          "removed": false
        },
        {
          "address": "0x0e81579b25c9c458a2030824b7fdbd0194900803",
          "topics": [
            "0x8ed59ebee7004468a5666f7566d43343b5917817e35765800064b665b66d070f",
            "0x00000000000000000000000020c0000000000000000000000000000000000000",
            "0x00000000000000000000000016fbfcf4970d4550791faf75ae9baece75c85a27",
            "0x000000000000000000000000fb34352ba2e2d9cb93837bb19d36db5d93bcfc41"
          ],
          "data": "0x000000000000000000000000000000000000000000000000000000000012712d",
          "blockHash": "0x2e9a01a5643598d6c7219da1571103233f8cfc304aeb114a6d9dee9e6a622fb1",
          "blockNumber": "0x35d613",
          "blockTimestamp": "0x6982616b",
          "transactionHash": "0x3e330d266972859b931b83b95f80bfeb8e767318bc14c57c181e30a21a05d2f0",
          "transactionIndex": "0x4b",
          "logIndex": "0xb5",
          "removed": false
        },
        {
          "address": "0x91ec94dd5e949bdb2ece3b91b9602ec5f7f59ffd",
          "topics": [
            "0x61ed099e74a97a1d7f8bb0952a88ca8b7b8ebd00c126ea04671f92a81213318a"
          ],
          "data": "0x000000000000000000000000e665f5dfd91dfe883d36cc8552d4cc385ac2368700000000000000000000000000000000000000000000000000000000000e596c",
          "blockHash": "0x2e9a01a5643598d6c7219da1571103233f8cfc304aeb114a6d9dee9e6a622fb1",
          "blockNumber": "0x35d613",
          "blockTimestamp": "0x6982616b",
          "transactionHash": "0x3e330d266972859b931b83b95f80bfeb8e767318bc14c57c181e30a21a05d2f0",
          "transactionIndex": "0x4b",
          "logIndex": "0xb6",
          "removed": false
        },
        {
          "address": "0x91ec94dd5e949bdb2ece3b91b9602ec5f7f59ffd",
          "topics": [
            "0x07ea52d82345d6e838192107d8fd7123d9c2ec8e916cd0aad13fd2b60db24644"
          ],
          "data": "0x000000000000000000000000000000000000000000000000000000000000006000000000000000000000000000000000000000000000000000000000000000a000000000000000000000000000000000000000000000000000000000000000c000000000000000000000000000000000000000000000000000000000000000010000000000000000000000000ac2924460a5b285fd205dedb46738ad469710610000000000000000000000000000000000000000000000000000000000000000000000000000000000000000000000000000000000000000000000000000000100000000000000000000000000000000000000000000000000000000000417c1",
          "blockHash": "0x2e9a01a5643598d6c7219da1571103233f8cfc304aeb114a6d9dee9e6a622fb1",
          "blockNumber": "0x35d613",
          "blockTimestamp": "0x6982616b",
          "transactionHash": "0x3e330d266972859b931b83b95f80bfeb8e767318bc14c57c181e30a21a05d2f0",
          "transactionIndex": "0x4b",
          "logIndex": "0xb7",
          "removed": false
        },
        {
          "address": "0xfb34352ba2e2d9cb93837bb19d36db5d93bcfc41",
          "topics": [
            "0x1ab700d4ced0c005b164c0f789fd09fcbb0156d4c2041b8a3bfbcd961cd1567f"
          ],
          "data": "0x0000000000000000000000000000000000000000000000000000000000000060000000000000000000000000000000000000000000000000000000000000012000000000000000000000000091ec94dd5e949bdb2ece3b91b9602ec5f7f59ffd000000000000000000000000000000000000000000000000000000000000009901000000000000000100009dfc00000000000000000000000016fbfcf4970d4550791faf75ae9baece75c85a2700009ce100000000000000000000000029a5134d3b22f47ad52e0a22a63247363e9f35c2f7ae0c5eae23dabeae536fdfaa6bd4bb324e5f3101185412a3e0ec3e6d5d84a40000000000000000000000000990be6db8c785fbbf9ded8baec612a10cae814b000000000000271000000000000000000000000000000000000000000000000000000000000000000000000000001600030100110100000000000000000000000000030d4000000000000000000000",
          "blockHash": "0x2e9a01a5643598d6c7219da1571103233f8cfc304aeb114a6d9dee9e6a622fb1",
          "blockNumber": "0x35d613",
          "blockTimestamp": "0x6982616b",
          "transactionHash": "0x3e330d266972859b931b83b95f80bfeb8e767318bc14c57c181e30a21a05d2f0",
          "transactionIndex": "0x4b",
          "logIndex": "0xb8",
          "removed": false
        },
        {
          "address": "0x0e81579b25c9c458a2030824b7fdbd0194900803",
          "topics": [
            "0xddf252ad1be2c89b69c2b068fc378daa952ba7f163c4a11628f55a4df523b3ef",
            "0x000000000000000000000000fb34352ba2e2d9cb93837bb19d36db5d93bcfc41",
            "0x00000000000000000000000091ec94dd5e949bdb2ece3b91b9602ec5f7f59ffd"
          ],
          "data": "0x000000000000000000000000000000000000000000000000000000000012712d",
          "blockHash": "0x2e9a01a5643598d6c7219da1571103233f8cfc304aeb114a6d9dee9e6a622fb1",
          "blockNumber": "0x35d613",
          "blockTimestamp": "0x6982616b",
          "transactionHash": "0x3e330d266972859b931b83b95f80bfeb8e767318bc14c57c181e30a21a05d2f0",
          "transactionIndex": "0x4b",
          "logIndex": "0xb9",
          "removed": false
        },
        {
          "address": "0x16fbfcf4970d4550791faf75ae9baece75c85a27",
          "topics": [
            "0x85496b760a4b7f8d66384b9df21b381f5d1b1e79f229a47aaf4c232edc2fe59a",
            "0xf7ae0c5eae23dabeae536fdfaa6bd4bb324e5f3101185412a3e0ec3e6d5d84a4",
            "0x0000000000000000000000001d434906aa520e592fab2b82406beff859be8e82"
          ],
          "data": "0x0000000000000000000000000000000000000000000000000000000000009ce100000000000000000000000000000000000000000000000000000000000027100000000000000000000000000000000000000000000000000000000000002710",
          "blockHash": "0x2e9a01a5643598d6c7219da1571103233f8cfc304aeb114a6d9dee9e6a622fb1",
          "blockNumber": "0x35d613",
          "blockTimestamp": "0x6982616b",
          "transactionHash": "0x3e330d266972859b931b83b95f80bfeb8e767318bc14c57c181e30a21a05d2f0",
          "transactionIndex": "0x4b",
          "logIndex": "0xba",
          "removed": false
        },
        {
          "address": "0x20c0000000000000000000000000000000000000",
          "topics": [
            "0xddf252ad1be2c89b69c2b068fc378daa952ba7f163c4a11628f55a4df523b3ef",
            "0x0000000000000000000000001d434906aa520e592fab2b82406beff859be8e82",
            "0x000000000000000000000000feec000000000000000000000000000000000000"
          ],
          "data": "0x0000000000000000000000000000000000000000000000000000000000001504",
          "blockHash": "0x2e9a01a5643598d6c7219da1571103233f8cfc304aeb114a6d9dee9e6a622fb1",
          "blockNumber": "0x35d613",
          "blockTimestamp": "0x6982616b",
          "transactionHash": "0x3e330d266972859b931b83b95f80bfeb8e767318bc14c57c181e30a21a05d2f0",
          "transactionIndex": "0x4b",
          "logIndex": "0xbb",
          "removed": false
        }
      ],
      "logsBloom": "0x000010000000000000000000010000100000000000010030100000000000000200400400200200000011000001080000000000000000020000000000002000000000060000104000000000080010000000000000000000000000000004000000000000002200040080220000008008000800001000000000000000101000000000000000000008000000000800202040000000008000002120000000002000002a0020008000000000100000004000000040200000400010000440040000004000000002000000000000000080000000000000000000000000000000000020000010040000005000000004000080002200000000008900000000000040000000",
      "transactionHash": "0x3e330d266972859b931b83b95f80bfeb8e767318bc14c57c181e30a21a05d2f0",
      "transactionIndex": "0x4b",
      "blockHash": "0x2e9a01a5643598d6c7219da1571103233f8cfc304aeb114a6d9dee9e6a622fb1",
      "blockNumber": "0x35d613",
      "gasUsed": "0x83551",
      "effectiveGasPrice": "0x2540c48b5",
      "from": "0x1d434906aa520e592fab2b82406beff859be8e82",
      "to": "0x16fbfcf4970d4550791faf75ae9baece75c85a27",
      "contractAddress": null,
      "feeToken": "0x20c0000000000000000000000000000000000000",
      "feePayer": "0x1d434906aa520e592fab2b82406beff859be8e82"
    }
  ],
  "libraries": [],
  "pending": [],
  "returns": {},
  "timestamp": 1770152301772,
  "chain": 42431,
  "commit": "47b8acf"
}