{
  "transactions": [
    {
      "hash": "0x9be77c25412cf80ae286788f4b483e78d0c2480cf0b11464fb0fabcbd1129100",
      "transactionType": "CALL",
      "contractName": null,
      "contractAddress": "0xfeec000000000000000000000000000000000000",
      "function": "setUserToken(address)",
      "arguments": [
        "0x20c000000000000000000000cf5b0F48F7fEDC7F"
      ],
      "transaction": {
        "from": "0x1d434906aa520e592fab2b82406beff859be8e82",
        "to": "0xfeec000000000000000000000000000000000000",
        "gas": "0xa1fe",
        "value": "0x0",
        "input": "0xe789744400000000000000000000000020c000000000000000000000cf5b0f48f7fedc7f",
        "nonce": "0xe",
        "chainId": "0xa5bf",
        "feeToken": null,
        "calls": [],
        "keyType": null,
        "keyData": null
      },
      "additionalContracts": [],
      "isFixedGasLimit": false
    },
    {
      "hash": "0xfaeae101cfcf60c405f7b2498e2ab9a1cc2a3ec9f1b471c17284dac6d5e348c6",
      "transactionType": "CALL",
      "contractName": null,
      "contractAddress": "0x20c000000000000000000000cf5b0f48f7fedc7f",
      "function": "approve(address,uint256)",
      "arguments": [
        "0x16FBfCF4970D4550791faF75AE9BaecE75C85A27",
        "1428497"
      ],
      "transaction": {
        "from": "0x1d434906aa520e592fab2b82406beff859be8e82",
        "to": "0x20c000000000000000000000cf5b0f48f7fedc7f",
        "gas": "0xf669",
        "value": "0x0",
        "input": "0x095ea7b300000000000000000000000016fbfcf4970d4550791faf75ae9baece75c85a27000000000000000000000000000000000000000000000000000000000015cc11",
        "nonce": "0xf",
        "chainId": "0xa5bf",
        "feeToken": null,
        "calls": [],
        "keyType": null,
        "keyData": null
      },
      "additionalContracts": [],
      "isFixedGasLimit": false
    },
    {
      "hash": null,
      "transactionType": "CALL",
      "contractName": null,
      "contractAddress": "0x16fbfcf4970d4550791faf75ae9baece75c85a27",
      "function": "send((uint32,bytes32,uint256,uint256,bytes,bytes,bytes),(uint256,uint256),address)",
      "arguments": [
        "(40161, 0x0000000000000000000000000990be6db8c785fbbf9ded8baec612a10cae814b, 10000, 10000, 0x, 0x, 0x)",
        "(1418497, 0)",
        "0x1d434906Aa520E592fAB2b82406BEfF859be8e82"
      ],
      "transaction": {
        "from": "0x1d434906aa520e592fab2b82406beff859be8e82",
        "to": "0x16fbfcf4970d4550791faf75ae9baece75c85a27",
        "gas": "0xc2b85",
        "value": "0x0",
        "input": "0xc7c7f5b30000000000000000000000000000000000000000000000000000000000000080000000000000000000000000000000000000000000000000000000000015a50100000000000000000000000000000000000000000000000000000000000000000000000000000000000000001d434906aa520e592fab2b82406beff859be8e820000000000000000000000000000000000000000000000000000000000009ce10000000000000000000000000990be6db8c785fbbf9ded8baec612a10cae814b0000000000000000000000000000000000000000000000000000000000002710000000000000000000000000000000000000000000000000000000000000271000000000000000000000000000000000000000000000000000000000000000e000000000000000000000000000000000000000000000000000000000000001000000000000000000000000000000000000000000000000000000000000000120000000000000000000000000000000000000000000000000000000000000000000000000000000000000000000000000000000000000000000000000000000000000000000000000000000000000000000000000000000000000000000000000",
        "nonce": "0x10",
        "chainId": "0xa5bf",
        "feeToken": null,
        "calls": [],
        "keyType": null,
        "keyData": null
      },
      "additionalContracts": [],
      "isFixedGasLimit": false
    }
  ],
  "receipts": [],
  "libraries": [],
  "pending": [
    "0x9be77c25412cf80ae286788f4b483e78d0c2480cf0b11464fb0fabcbd1129100",
    "0xfaeae101cfcf60c405f7b2498e2ab9a1cc2a3ec9f1b471c17284dac6d5e348c6"
  ],
  "returns": {},
  "timestamp": 1770153466436,
  "chain": 42431,
  "commit": "47b8acf"
}