{
  "transactions": [
    {
      "hash": "0xca9d68a696d2f93b16755d79362cac572eae852d15667ec92a11dae4fad3714d",
      "transactionType": "CALL",
      "contractName": null,
      "contractAddress": "0x741f0d8bde14140f62107fc60a0ee122b37d4630",
      "function": "batchBridgeWithEthFeeFromWallet((uint32,bytes32,uint256,uint256,bytes,bytes,bytes)[],address[],address[])",
      "arguments": [
        "[(30380, 0x000000000000000000000000e75177ed629a4770e2da00e1395c28a5f9b745d4, 100000000000000, 0, 0x, 0x, 0x), (30380, 0x000000000000000000000000e75177ed629a4770e2da00e1395c28a5f9b745d4, 100000000000000, 0, 0x, 0x, 0x), (30380, 0x000000000000000000000000e75177ed629a4770e2da00e1395c28a5f9b745d4, 100000000000000, 0, 0x, 0x, 0x), (30380, 0x000000000000000000000000e75177ed629a4770e2da00e1395c28a5f9b745d4, 100000000000000, 0, 0x, 0x, 0x), (30380, 0x000000000000000000000000e75177ed629a4770e2da00e1395c28a5f9b745d4, 100000000000000, 0, 0x, 0x, 0x), (30380, 0x000000000000000000000000e75177ed629a4770e2da00e1395c28a5f9b745d4, 100000000000000, 0, 0x, 0x, 0x)]",
        "[0xd86fBBd0c8715d2C1f40e451e5C3514e65E7576A, 0x88Aa7854D3b2dAA5e37E7Ce73A1F39669623a361, 0x999dfAbe3b1cc2EF66eB032Eea42FeA329bBa168, 0x96A394058E2b84A89bac9667B19661Ed003cF5D4, 0x9aBFE1F8a999B0011ecD6116649AEe8D575F5604, 0x75c38D46001b0F8108c4136216bd2694982C20FC]",
        "[0x741F0d8Bde14140f62107FC60A0EE122B37D4630, 0x741F0d8Bde14140f62107FC60A0EE122B37D4630, 0x741F0d8Bde14140f62107FC60A0EE122B37D4630, 0x741F0d8Bde14140f62107FC60A0EE122B37D4630, 0x741F0d8Bde14140f62107FC60A0EE122B37D4630, 0x741F0d8Bde14140f62107FC60A0EE122B37D4630]"
      ],
      "transaction": {
        "from": "0x45dce8e4f2dc005a5f28206a46cb034697eeda8e",
        "to": "0x741f0d8bde14140f62107fc60a0ee122b37d4630",
        "gas": "0x28fcb4",
        "value": "0x39c662c8eab6de0",
        "input": "0xb70d4241000000000000000000000000000000000000000000000000000000000000006000000000000000000000000000000000000000000000000000000000000008c000000000000000000000000000000000000000000000000000000000000009a0000000000000000000000000000000000000000000000000000000000000000600000000000000000000000000000000000000000000000000000000000000c000000000000000000000000000000000000000000000000000000000000002000000000000000000000000000000000000000000000000000000000000000340000000000000000000000000000000000000000000000000000000000000048000000000000000000000000000000000000000000000000000000000000005c0000000000000000000000000000000000000000000000000000000000000070000000000000000000000000000000000000000000000000000000000000076ac000000000000000000000000e75177ed629a4770e2da00e1395c28a5f9b745d400000000000000000000000000000000000000000000000000005af3107a4000000000000000000000000000000000000000000000000000000000000000000000000000000000000000000000000000000000000000000000000000000000e00000000000000000000000000000000000000000000000000000000000000100000000000000000000000000000000000000000000000000000000000000012000000000000000000000000000000000000000000000000000000000000000000000000000000000000000000000000000000000000000000000000000000000000000000000000000000000000000000000000000000000000000000000000000000000000000000000000000000000000000000000000000000000000076ac000000000000000000000000e75177ed629a4770e2da00e1395c28a5f9b745d400000000000000000000000000000000000000000000000000005af3107a4000000000000000000000000000000000000000000000000000000000000000000000000000000000000000000000000000000000000000000000000000000000e00000000000000000000000000000000000000000000000000000000000000100000000000000000000000000000000000000000000000000000000000000012000000000000000000000000000000000000000000000000000000000000000000000000000000000000000000000000000000000000000000000000000000000000000000000000000000000000000000000000000000000000000000000000000000000000000000000000000000000000000000000000000000000000076ac000000000000000000000000e75177ed629a4770e2da00e1395c28a5f9b745d400000000000000000000000000000000000000000000000000005af3107a4000000000000000000000000000000000000000000000000000000000000000000000000000000000000000000000000000000000000000000000000000000000e00000000000000000000000000000000000000000000000000000000000000100000000000000000000000000000000000000000000000000000000000000012000000000000000000000000000000000000000000000000000000000000000000000000000000000000000000000000000000000000000000000000000000000000000000000000000000000000000000000000000000000000000000000000000000000000000000000000000000000000000000000000000000000000076ac000000000000000000000000e75177ed629a4770e2da00e1395c28a5f9b745d400000000000000000000000000000000000000000000000000005af3107a4000000000000000000000000000000000000000000000000000000000000000000000000000000000000000000000000000000000000000000000000000000000e00000000000000000000000000000000000000000000000000000000000000100000000000000000000000000000000000000000000000000000000000000012000000000000000000000000000000000000000000000000000000000000000000000000000000000000000000000000000000000000000000000000000000000000000000000000000000000000000000000000000000000000000000000000000000000000000000000000000000000000000000000000000000000000076ac000000000000000000000000e75177ed629a4770e2da00e1395c28a5f9b745d400000000000000000000000000000000000000000000000000005af3107a4000000000000000000000000000000000000000000000000000000000000000000000000000000000000000000000000000000000000000000000000000000000e00000000000000000000000000000000000000000000000000000000000000100000000000000000000000000000000000000000000000000000000000000012000000000000000000000000000000000000000000000000000000000000000000000000000000000000000000000000000000000000000000000000000000000000000000000000000000000000000000000000000000000000000000000000000000000000000000000000000000000000000000000000000000000000076ac000000000000000000000000e75177ed629a4770e2da00e1395c28a5f9b745d400000000000000000000000000000000000000000000000000005af3107a4000000000000000000000000000000000000000000000000000000000000000000000000000000000000000000000000000000000000000000000000000000000e0000000000000000000000000000000000000000000000000000000000000010000000000000000000000000000000000000000000000000000000000000001200000000000000000000000000000000000000000000000000000000000000000000000000000000000000000000000000000000000000000000000000000000000000000000000000000000000000000000000000000000000000000000000000000000000000000000000000000000000000000000000000000000000000006000000000000000000000000d86fbbd0c8715d2c1f40e451e5c3514e65e7576a00000000000000000000000088aa7854d3b2daa5e37e7ce73a1f39669623a361000000000000000000000000999dfabe3b1cc2ef66eb032eea42fea329bba16800000000000000000000000096a394058e2b84a89bac9667b19661ed003cf5d40000000000000000000000009abfe1f8a999b0011ecd6116649aee8d575f560400000000000000000000000075c38d46001b0f8108c4136216bd2694982c20fc0000000000000000000000000000000000000000000000000000000000000006000000000000000000000000741f0d8bde14140f62107fc60a0ee122b37d4630000000000000000000000000741f0d8bde14140f62107fc60a0ee122b37d4630000000000000000000000000741f0d8bde14140f62107fc60a0ee122b37d4630000000000000000000000000741f0d8bde14140f62107fc60a0ee122b37d4630000000000000000000000000741f0d8bde14140f62107fc60a0ee122b37d4630000000000000000000000000741f0d8bde14140f62107fc60a0ee122b37d4630",
        "nonce": "0x164",
        "chainId": "0xfc"
      },
      "additionalContracts": [],
      "isFixedGasLimit": false
    }
  ],
  "receipts": [
    {
      "status": "0x1",
      "cumulativeGasUsed": "0x1ee748",
      "logs": [
        {
          "address": "0xfc00000000000000000000000000000000000002",
          "topics": [
            "0xddf252ad1be2c89b69c2b068fc378daa952ba7f163c4a11628f55a4df523b3ef",
            "0x000000000000000000000000741f0d8bde14140f62107fc60a0ee122b37d4630",
            "0x000000000000000000000000d86fbbd0c8715d2c1f40e451e5c3514e65e7576a"
          ],
          "data": "0x00000000000000000000000000000000000000000000000000005af3107a4000",
          "blockHash": "0x7524cb438f5d5f5538dbc817428241bfc9dcc469d91a077903abc32829b4eea7",
          "blockNumber": "0x2242ffe",
          "blockTimestamp": "0x6a043d53",
          "transactionHash": "0xca9d68a696d2f93b16755d79362cac572eae852d15667ec92a11dae4fad3714d",
          "transactionIndex": "0x1",
          "logIndex": "0x1",
          "removed": false
        },
        {
          "address": "0x377530cda84dfb2673bf4d145dcf0c4d7fdcb5b6",
          "topics": [
            "0x61ed099e74a97a1d7f8bb0952a88ca8b7b8ebd00c126ea04671f92a81213318a"
          ],
          "data": "0x00000000000000000000000041bdb4aa4a63a5b2efc531858d3118392b1a1c3d0000000000000000000000000000000000000000000000000096710e96250e4b",
          "blockHash": "0x7524cb438f5d5f5538dbc817428241bfc9dcc469d91a077903abc32829b4eea7",
          "blockNumber": "0x2242ffe",
          "blockTimestamp": "0x6a043d53",
          "transactionHash": "0xca9d68a696d2f93b16755d79362cac572eae852d15667ec92a11dae4fad3714d",
          "transactionIndex": "0x1",
          "logIndex": "0x2",
          "removed": false
        },
        {
          "address": "0x377530cda84dfb2673bf4d145dcf0c4d7fdcb5b6",
          "topics": [
            "0x07ea52d82345d6e838192107d8fd7123d9c2ec8e916cd0aad13fd2b60db24644"
          ],
          "data": "0x000000000000000000000000000000000000000000000000000000000000006000000000000000000000000000000000000000000000000000000000000001000000000000000000000000000000000000000000000000000000000000000120000000000000000000000000000000000000000000000000000000000000000400000000000000000000000026cd5abadf7ec3f0f02b48314bfca6b2342cddd4000000000000000000000000a7b5189bca84cd304d8553977c7c614329750d99000000000000000000000000cce466a522984415bc91338c232d98869193d46e000000000000000000000000dd7b5e1db4aafd5c8ec3b764efb8ed265aa5445b000000000000000000000000000000000000000000000000000000000000000000000000000000000000000000000000000000000000000000000000000000040000000000000000000000000000000000000000000000000000eff1c01567950000000000000000000000000000000000000000000000000000e37fafe5738c0000000000000000000000000000000000000000000000000000e643b37e54720000000000000000000000000000000000000000000000000000e643b37e5472",
          "blockHash": "0x7524cb438f5d5f5538dbc817428241bfc9dcc469d91a077903abc32829b4eea7",
          "blockNumber": "0x2242ffe",
          "blockTimestamp": "0x6a043d53",
          "transactionHash": "0xca9d68a696d2f93b16755d79362cac572eae852d15667ec92a11dae4fad3714d",
          "transactionIndex": "0x1",
          "logIndex": "0x3",
          "removed": false
        },
        {
          "address": "0x1a44076050125825900e736c501f859c50fe728c",
          "topics": [
            "0x1ab700d4ced0c005b164c0f789fd09fcbb0156d4c2041b8a3bfbcd961cd1567f"
          ],
          "data": "0x00000000000000000000000000000000000000000000000000000000000000600000000000000000000000000000000000000000000000000000000000000120000000000000000000000000377530cda84dfb2673bf4d145dcf0c4d7fdcb5b600000000000000000000000000000000000000000000000000000000000000990100000000000000020000762f000000000000000000000000d86fbbd0c8715d2c1f40e451e5c3514e65e7576a000076ac00000000000000000000000000000000e9ce0f293d1ce552768b187eba8a56d42cbc13bd6c4bc419ba80767380d8dcbd41bf076afe1b6f48e34a9478976cf4e9000000000000000000000000e75177ed629a4770e2da00e1395c28a5f9b745d40000000000000064000000000000000000000000000000000000000000000000000000000000000000000000000016000301001101000000000000000000000000000f424000000000000000000000",
          "blockHash": "0x7524cb438f5d5f5538dbc817428241bfc9dcc469d91a077903abc32829b4eea7",
          "blockNumber": "0x2242ffe",
          "blockTimestamp": "0x6a043d53",
          "transactionHash": "0xca9d68a696d2f93b16755d79362cac572eae852d15667ec92a11dae4fad3714d",
          "transactionIndex": "0x1",
          "logIndex": "0x4",
          "removed": false
        },
        {
          "address": "0xd86fbbd0c8715d2c1f40e451e5c3514e65e7576a",
          "topics": [
            "0x85496b760a4b7f8d66384b9df21b381f5d1b1e79f229a47aaf4c232edc2fe59a",
            "0x2cbc13bd6c4bc419ba80767380d8dcbd41bf076afe1b6f48e34a9478976cf4e9",
            "0x000000000000000000000000741f0d8bde14140f62107fc60a0ee122b37d4630"
          ],
          "data": "0x00000000000000000000000000000000000000000000000000000000000076ac00000000000000000000000000000000000000000000000000005af3107a400000000000000000000000000000000000000000000000000000005af3107a4000",
          "blockHash": "0x7524cb438f5d5f5538dbc817428241bfc9dcc469d91a077903abc32829b4eea7",
          "blockNumber": "0x2242ffe",
          "blockTimestamp": "0x6a043d53",
          "transactionHash": "0xca9d68a696d2f93b16755d79362cac572eae852d15667ec92a11dae4fad3714d",
          "transactionIndex": "0x1",
          "logIndex": "0x5",
          "removed": false
        },
        {
          "address": "0x88aa7854d3b2daa5e37e7ce73a1f39669623a361",
          "topics": [
            "0x603e191ccb1fad1c0004c9c1f37101358f84c3cf059031e9ec9b0c17cad34188",
            "0x00000000000000000000000000000000000000000000000000000000000076ac"
          ],
          "data": "0x00000000000000000000000000000000000000000000000000005af3107a400000000000000000000000000000000000000000000000000000005af3107a4000",
          "blockHash": "0x7524cb438f5d5f5538dbc817428241bfc9dcc469d91a077903abc32829b4eea7",
          "blockNumber": "0x2242ffe",
          "blockTimestamp": "0x6a043d53",
          "transactionHash": "0xca9d68a696d2f93b16755d79362cac572eae852d15667ec92a11dae4fad3714d",
          "transactionIndex": "0x1",
          "logIndex": "0x6",
          "removed": false
        },
        {
          "address": "0x88aa7854d3b2daa5e37e7ce73a1f39669623a361",
          "topics": [
            "0xd2ff7607bbad14e866630d67da40c9a9cedd964cce5ce4c3dc4176133954ef98"
          ],
          "data": "0x00000000000000000000000000000000000000000024116b91d3596ca976000000000000000000000000000000000000000000000000000000005af3107a4000",
          "blockHash": "0x7524cb438f5d5f5538dbc817428241bfc9dcc469d91a077903abc32829b4eea7",
          "blockNumber": "0x2242ffe",
          "blockTimestamp": "0x6a043d53",
          "transactionHash": "0xca9d68a696d2f93b16755d79362cac572eae852d15667ec92a11dae4fad3714d",
          "transactionIndex": "0x1",
          "logIndex": "0x7",
          "removed": false
        },
        {
          "address": "0xfc00000000000000000000000000000000000008",
          "topics": [
            "0xddf252ad1be2c89b69c2b068fc378daa952ba7f163c4a11628f55a4df523b3ef",
            "0x000000000000000000000000741f0d8bde14140f62107fc60a0ee122b37d4630",
            "0x0000000000000000000000000000000000000000000000000000000000000000"
          ],
          "data": "0x00000000000000000000000000000000000000000000000000005af3107a4000",
          "blockHash": "0x7524cb438f5d5f5538dbc817428241bfc9dcc469d91a077903abc32829b4eea7",
          "blockNumber": "0x2242ffe",
          "blockTimestamp": "0x6a043d53",
          "transactionHash": "0xca9d68a696d2f93b16755d79362cac572eae852d15667ec92a11dae4fad3714d",
          "transactionIndex": "0x1",
          "logIndex": "0x8",
          "removed": false
        },
        {
          "address": "0xfc00000000000000000000000000000000000008",
          "topics": [
            "0xdc7fd22bc401e7c6b9be2c2736286a2a42ea0c6307bc97ff0fb12bd0abd2c747",
            "0x000000000000000000000000741f0d8bde14140f62107fc60a0ee122b37d4630",
            "0x00000000000000000000000088aa7854d3b2daa5e37e7ce73a1f39669623a361"
          ],
          "data": "0x00000000000000000000000000000000000000000000000000005af3107a4000",
          "blockHash": "0x7524cb438f5d5f5538dbc817428241bfc9dcc469d91a077903abc32829b4eea7",
          "blockNumber": "0x2242ffe",
          "blockTimestamp": "0x6a043d53",
          "transactionHash": "0xca9d68a696d2f93b16755d79362cac572eae852d15667ec92a11dae4fad3714d",
          "transactionIndex": "0x1",
          "logIndex": "0x9",
          "removed": false
        },
        {
          "address": "0x377530cda84dfb2673bf4d145dcf0c4d7fdcb5b6",
          "topics": [
            "0x61ed099e74a97a1d7f8bb0952a88ca8b7b8ebd00c126ea04671f92a81213318a"
          ],
          "data": "0x00000000000000000000000041bdb4aa4a63a5b2efc531858d3118392b1a1c3d0000000000000000000000000000000000000000000000000096710e96250e4b",
          "blockHash": "0x7524cb438f5d5f5538dbc817428241bfc9dcc469d91a077903abc32829b4eea7",
          "blockNumber": "0x2242ffe",
          "blockTimestamp": "0x6a043d53",
          "transactionHash": "0xca9d68a696d2f93b16755d79362cac572eae852d15667ec92a11dae4fad3714d",
          "transactionIndex": "0x1",
          "logIndex": "0xa",
          "removed": false
        },
        {
          "address": "0x377530cda84dfb2673bf4d145dcf0c4d7fdcb5b6",
          "topics": [
            "0x07ea52d82345d6e838192107d8fd7123d9c2ec8e916cd0aad13fd2b60db24644"
          ],
          "data": "0x000000000000000000000000000000000000000000000000000000000000006000000000000000000000000000000000000000000000000000000000000001000000000000000000000000000000000000000000000000000000000000000120000000000000000000000000000000000000000000000000000000000000000400000000000000000000000026cd5abadf7ec3f0f02b48314bfca6b2342cddd4000000000000000000000000a7b5189bca84cd304d8553977c7c614329750d99000000000000000000000000cce466a522984415bc91338c232d98869193d46e000000000000000000000000dd7b5e1db4aafd5c8ec3b764efb8ed265aa5445b000000000000000000000000000000000000000000000000000000000000000000000000000000000000000000000000000000000000000000000000000000040000000000000000000000000000000000000000000000000000eff1c01567950000000000000000000000000000000000000000000000000000e37fafe5738c0000000000000000000000000000000000000000000000000000e643b37e54720000000000000000000000000000000000000000000000000000e643b37e5472",
          "blockHash": "0x7524cb438f5d5f5538dbc817428241bfc9dcc469d91a077903abc32829b4eea7",
          "blockNumber": "0x2242ffe",
          "blockTimestamp": "0x6a043d53",
          "transactionHash": "0xca9d68a696d2f93b16755d79362cac572eae852d15667ec92a11dae4fad3714d",
          "transactionIndex": "0x1",
          "logIndex": "0xb",
          "removed": false
        },
        {
          "address": "0x1a44076050125825900e736c501f859c50fe728c",
          "topics": [
            "0x1ab700d4ced0c005b164c0f789fd09fcbb0156d4c2041b8a3bfbcd961cd1567f"
          ],
          "data": "0x00000000000000000000000000000000000000000000000000000000000000600000000000000000000000000000000000000000000000000000000000000120000000000000000000000000377530cda84dfb2673bf4d145dcf0c4d7fdcb5b600000000000000000000000000000000000000000000000000000000000000990100000000000000020000762f00000000000000000000000088aa7854d3b2daa5e37e7ce73a1f39669623a361000076ac00000000000000000000000000000000fd8c4b8a413a06821456801295921a710e4bacad9f5b34ba9e0bb33735154ecc1870cf3a85d5338cdd1afaeb79cf4787000000000000000000000000e75177ed629a4770e2da00e1395c28a5f9b745d40000000000000064000000000000000000000000000000000000000000000000000000000000000000000000000016000301001101000000000000000000000000000f424000000000000000000000",
          "blockHash": "0x7524cb438f5d5f5538dbc817428241bfc9dcc469d91a077903abc32829b4eea7",
          "blockNumber": "0x2242ffe",
          "blockTimestamp": "0x6a043d53",
          "transactionHash": "0xca9d68a696d2f93b16755d79362cac572eae852d15667ec92a11dae4fad3714d",
          "transactionIndex": "0x1",
          "logIndex": "0xc",
          "removed": false
        },
        {
          "address": "0x88aa7854d3b2daa5e37e7ce73a1f39669623a361",
          "topics": [
            "0x85496b760a4b7f8d66384b9df21b381f5d1b1e79f229a47aaf4c232edc2fe59a",
            "0x0e4bacad9f5b34ba9e0bb33735154ecc1870cf3a85d5338cdd1afaeb79cf4787",
            "0x000000000000000000000000741f0d8bde14140f62107fc60a0ee122b37d4630"
          ],
          "data": "0x00000000000000000000000000000000000000000000000000000000000076ac00000000000000000000000000000000000000000000000000005af3107a400000000000000000000000000000000000000000000000000000005af3107a4000",
          "blockHash": "0x7524cb438f5d5f5538dbc817428241bfc9dcc469d91a077903abc32829b4eea7",
          "blockNumber": "0x2242ffe",
          "blockTimestamp": "0x6a043d53",
          "transactionHash": "0xca9d68a696d2f93b16755d79362cac572eae852d15667ec92a11dae4fad3714d",
          "transactionIndex": "0x1",
          "logIndex": "0xd",
          "removed": false
        },
        {
          "address": "0xfc00000000000000000000000000000000000005",
          "topics": [
            "0xddf252ad1be2c89b69c2b068fc378daa952ba7f163c4a11628f55a4df523b3ef",
            "0x000000000000000000000000741f0d8bde14140f62107fc60a0ee122b37d4630",
            "0x000000000000000000000000999dfabe3b1cc2ef66eb032eea42fea329bba168"
          ],
          "data": "0x00000000000000000000000000000000000000000000000000005af3107a4000",
          "blockHash": "0x7524cb438f5d5f5538dbc817428241bfc9dcc469d91a077903abc32829b4eea7",
          "blockNumber": "0x2242ffe",
          "blockTimestamp": "0x6a043d53",
          "transactionHash": "0xca9d68a696d2f93b16755d79362cac572eae852d15667ec92a11dae4fad3714d",
          "transactionIndex": "0x1",
          "logIndex": "0xe",
          "removed": false
        },
        {
          "address": "0x377530cda84dfb2673bf4d145dcf0c4d7fdcb5b6",
          "topics": [
            "0x61ed099e74a97a1d7f8bb0952a88ca8b7b8ebd00c126ea04671f92a81213318a"
          ],
          "data": "0x00000000000000000000000041bdb4aa4a63a5b2efc531858d3118392b1a1c3d0000000000000000000000000000000000000000000000000096710e96250e4b",
          "blockHash": "0x7524cb438f5d5f5538dbc817428241bfc9dcc469d91a077903abc32829b4eea7",
          "blockNumber": "0x2242ffe",
          "blockTimestamp": "0x6a043d53",
          "transactionHash": "0xca9d68a696d2f93b16755d79362cac572eae852d15667ec92a11dae4fad3714d",
          "transactionIndex": "0x1",
          "logIndex": "0xf",
          "removed": false
        },
        {
          "address": "0x377530cda84dfb2673bf4d145dcf0c4d7fdcb5b6",
          "topics": [
            "0x07ea52d82345d6e838192107d8fd7123d9c2ec8e916cd0aad13fd2b60db24644"
          ],
          "data": "0x000000000000000000000000000000000000000000000000000000000000006000000000000000000000000000000000000000000000000000000000000001000000000000000000000000000000000000000000000000000000000000000120000000000000000000000000000000000000000000000000000000000000000400000000000000000000000026cd5abadf7ec3f0f02b48314bfca6b2342cddd4000000000000000000000000a7b5189bca84cd304d8553977c7c614329750d99000000000000000000000000cce466a522984415bc91338c232d98869193d46e000000000000000000000000dd7b5e1db4aafd5c8ec3b764efb8ed265aa5445b000000000000000000000000000000000000000000000000000000000000000000000000000000000000000000000000000000000000000000000000000000040000000000000000000000000000000000000000000000000000eff1c01567950000000000000000000000000000000000000000000000000000e37fafe5738c0000000000000000000000000000000000000000000000000000e643b37e54720000000000000000000000000000000000000000000000000000e643b37e5472",
          "blockHash": "0x7524cb438f5d5f5538dbc817428241bfc9dcc469d91a077903abc32829b4eea7",
          "blockNumber": "0x2242ffe",
          "blockTimestamp": "0x6a043d53",
          "transactionHash": "0xca9d68a696d2f93b16755d79362cac572eae852d15667ec92a11dae4fad3714d",
          "transactionIndex": "0x1",
          "logIndex": "0x10",
          "removed": false
        },
        {
          "address": "0x1a44076050125825900e736c501f859c50fe728c",
          "topics": [
            "0x1ab700d4ced0c005b164c0f789fd09fcbb0156d4c2041b8a3bfbcd961cd1567f"
          ],
          "data": "0x00000000000000000000000000000000000000000000000000000000000000600000000000000000000000000000000000000000000000000000000000000120000000000000000000000000377530cda84dfb2673bf4d145dcf0c4d7fdcb5b600000000000000000000000000000000000000000000000000000000000000990100000000000000020000762f000000000000000000000000999dfabe3b1cc2ef66eb032eea42fea329bba168000076ac00000000000000000000000000000000883279097a49db1f2af954ead0c77e3cecac5b896f33b24d55a742866ad00a1314cc65ad4ca20e8780da1f21b521dddd000000000000000000000000e75177ed629a4770e2da00e1395c28a5f9b745d40000000000000064000000000000000000000000000000000000000000000000000000000000000000000000000016000301001101000000000000000000000000000f424000000000000000000000",
          "blockHash": "0x7524cb438f5d5f5538dbc817428241bfc9dcc469d91a077903abc32829b4eea7",
          "blockNumber": "0x2242ffe",
          "blockTimestamp": "0x6a043d53",
          "transactionHash": "0xca9d68a696d2f93b16755d79362cac572eae852d15667ec92a11dae4fad3714d",
          "transactionIndex": "0x1",
          "logIndex": "0x11",
          "removed": false
        },
        {
          "address": "0x999dfabe3b1cc2ef66eb032eea42fea329bba168",
          "topics": [
            "0x85496b760a4b7f8d66384b9df21b381f5d1b1e79f229a47aaf4c232edc2fe59a",
            "0xecac5b896f33b24d55a742866ad00a1314cc65ad4ca20e8780da1f21b521dddd",
            "0x000000000000000000000000741f0d8bde14140f62107fc60a0ee122b37d4630"
          ],
          "data": "0x00000000000000000000000000000000000000000000000000000000000076ac00000000000000000000000000000000000000000000000000005af3107a400000000000000000000000000000000000000000000000000000005af3107a4000",
          "blockHash": "0x7524cb438f5d5f5538dbc817428241bfc9dcc469d91a077903abc32829b4eea7",
          "blockNumber": "0x2242ffe",
          "blockTimestamp": "0x6a043d53",
          "transactionHash": "0xca9d68a696d2f93b16755d79362cac572eae852d15667ec92a11dae4fad3714d",
          "transactionIndex": "0x1",
          "logIndex": "0x12",
          "removed": false
        },
        {
          "address": "0x96a394058e2b84a89bac9667b19661ed003cf5d4",
          "topics": [
            "0x603e191ccb1fad1c0004c9c1f37101358f84c3cf059031e9ec9b0c17cad34188",
            "0x00000000000000000000000000000000000000000000000000000000000076ac"
          ],
          "data": "0x000000000000000000000000000000000000000000006a39e8431b43504d700000000000000000000000000000000000000000000000000000005af3107a4000",
          "blockHash": "0x7524cb438f5d5f5538dbc817428241bfc9dcc469d91a077903abc32829b4eea7",
          "blockNumber": "0x2242ffe",
          "blockTimestamp": "0x6a043d53",
          "transactionHash": "0xca9d68a696d2f93b16755d79362cac572eae852d15667ec92a11dae4fad3714d",
          "transactionIndex": "0x1",
          "logIndex": "0x13",
          "removed": false
        },
        {
          "address": "0x96a394058e2b84a89bac9667b19661ed003cf5d4",
          "topics": [
            "0xd2ff7607bbad14e866630d67da40c9a9cedd964cce5ce4c3dc4176133954ef98"
          ],
          "data": "0x000000000000000000000000000000000000000000ae167a4f5153aba87cb00000000000000000000000000000000000000000000000000000005af3107a4000",
          "blockHash": "0x7524cb438f5d5f5538dbc817428241bfc9dcc469d91a077903abc32829b4eea7",
          "blockNumber": "0x2242ffe",
          "blockTimestamp": "0x6a043d53",
          "transactionHash": "0xca9d68a696d2f93b16755d79362cac572eae852d15667ec92a11dae4fad3714d",
          "transactionIndex": "0x1",
          "logIndex": "0x14",
          "removed": false
        },
        {
          "address": "0xfc00000000000000000000000000000000000001",
          "topics": [
            "0xddf252ad1be2c89b69c2b068fc378daa952ba7f163c4a11628f55a4df523b3ef",
            "0x000000000000000000000000741f0d8bde14140f62107fc60a0ee122b37d4630",
            "0x0000000000000000000000000000000000000000000000000000000000000000"
          ],
          "data": "0x00000000000000000000000000000000000000000000000000005af3107a4000",
          "blockHash": "0x7524cb438f5d5f5538dbc817428241bfc9dcc469d91a077903abc32829b4eea7",
          "blockNumber": "0x2242ffe",
          "blockTimestamp": "0x6a043d53",
          "transactionHash": "0xca9d68a696d2f93b16755d79362cac572eae852d15667ec92a11dae4fad3714d",
          "transactionIndex": "0x1",
          "logIndex": "0x15",
          "removed": false
        },
        {
          "address": "0xfc00000000000000000000000000000000000001",
          "topics": [
            "0xdc7fd22bc401e7c6b9be2c2736286a2a42ea0c6307bc97ff0fb12bd0abd2c747",
            "0x000000000000000000000000741f0d8bde14140f62107fc60a0ee122b37d4630",
            "0x00000000000000000000000096a394058e2b84a89bac9667b19661ed003cf5d4"
          ],
          "data": "0x00000000000000000000000000000000000000000000000000005af3107a4000",
          "blockHash": "0x7524cb438f5d5f5538dbc817428241bfc9dcc469d91a077903abc32829b4eea7",
          "blockNumber": "0x2242ffe",
          "blockTimestamp": "0x6a043d53",
          "transactionHash": "0xca9d68a696d2f93b16755d79362cac572eae852d15667ec92a11dae4fad3714d",
          "transactionIndex": "0x1",
          "logIndex": "0x16",
          "removed": false
        },
        {
          "address": "0x377530cda84dfb2673bf4d145dcf0c4d7fdcb5b6",
          "topics": [
            "0x61ed099e74a97a1d7f8bb0952a88ca8b7b8ebd00c126ea04671f92a81213318a"
          ],
          "data": "0x00000000000000000000000041bdb4aa4a63a5b2efc531858d3118392b1a1c3d0000000000000000000000000000000000000000000000000096710e96250e4b",
          "blockHash": "0x7524cb438f5d5f5538dbc817428241bfc9dcc469d91a077903abc32829b4eea7",
          "blockNumber": "0x2242ffe",
          "blockTimestamp": "0x6a043d53",
          "transactionHash": "0xca9d68a696d2f93b16755d79362cac572eae852d15667ec92a11dae4fad3714d",
          "transactionIndex": "0x1",
          "logIndex": "0x17",
          "removed": false
        },
        {
          "address": "0x377530cda84dfb2673bf4d145dcf0c4d7fdcb5b6",
          "topics": [
            "0x07ea52d82345d6e838192107d8fd7123d9c2ec8e916cd0aad13fd2b60db24644"
          ],
          "data": "0x000000000000000000000000000000000000000000000000000000000000006000000000000000000000000000000000000000000000000000000000000001000000000000000000000000000000000000000000000000000000000000000120000000000000000000000000000000000000000000000000000000000000000400000000000000000000000026cd5abadf7ec3f0f02b48314bfca6b2342cddd4000000000000000000000000a7b5189bca84cd304d8553977c7c614329750d99000000000000000000000000cce466a522984415bc91338c232d98869193d46e000000000000000000000000dd7b5e1db4aafd5c8ec3b764efb8ed265aa5445b000000000000000000000000000000000000000000000000000000000000000000000000000000000000000000000000000000000000000000000000000000040000000000000000000000000000000000000000000000000000eff1c01567950000000000000000000000000000000000000000000000000000e37fafe5738c0000000000000000000000000000000000000000000000000000e643b37e54720000000000000000000000000000000000000000000000000000e643b37e5472",
          "blockHash": "0x7524cb438f5d5f5538dbc817428241bfc9dcc469d91a077903abc32829b4eea7",
          "blockNumber": "0x2242ffe",
          "blockTimestamp": "0x6a043d53",
          "transactionHash": "0xca9d68a696d2f93b16755d79362cac572eae852d15667ec92a11dae4fad3714d",
          "transactionIndex": "0x1",
          "logIndex": "0x18",
          "removed": false
        },
        {
          "address": "0x1a44076050125825900e736c501f859c50fe728c",
          "topics": [
            "0x1ab700d4ced0c005b164c0f789fd09fcbb0156d4c2041b8a3bfbcd961cd1567f"
          ],
          "data": "0x00000000000000000000000000000000000000000000000000000000000000600000000000000000000000000000000000000000000000000000000000000120000000000000000000000000377530cda84dfb2673bf4d145dcf0c4d7fdcb5b600000000000000000000000000000000000000000000000000000000000000990100000000000000350000762f00000000000000000000000096a394058e2b84a89bac9667b19661ed003cf5d4000076ac00000000000000000000000000000000d61733e7a393a10a5b48c311abe8f1e51dc2335931a580520fafcc241dbac9709b1d66896b4327a32d32687ffbd980a3000000000000000000000000e75177ed629a4770e2da00e1395c28a5f9b745d40000000000000064000000000000000000000000000000000000000000000000000000000000000000000000000016000301001101000000000000000000000000000f424000000000000000000000",
          "blockHash": "0x7524cb438f5d5f5538dbc817428241bfc9dcc469d91a077903abc32829b4eea7",
          "blockNumber": "0x2242ffe",
          "blockTimestamp": "0x6a043d53",
          "transactionHash": "0xca9d68a696d2f93b16755d79362cac572eae852d15667ec92a11dae4fad3714d",
          "transactionIndex": "0x1",
          "logIndex": "0x19",
          "removed": false
        },
        {
          "address": "0x96a394058e2b84a89bac9667b19661ed003cf5d4",
          "topics": [
            "0x85496b760a4b7f8d66384b9df21b381f5d1b1e79f229a47aaf4c232edc2fe59a",
            "0x1dc2335931a580520fafcc241dbac9709b1d66896b4327a32d32687ffbd980a3",
            "0x000000000000000000000000741f0d8bde14140f62107fc60a0ee122b37d4630"
          ],
          "data": "0x00000000000000000000000000000000000000000000000000000000000076ac00000000000000000000000000000000000000000000000000005af3107a400000000000000000000000000000000000000000000000000000005af3107a4000",
          "blockHash": "0x7524cb438f5d5f5538dbc817428241bfc9dcc469d91a077903abc32829b4eea7",
          "blockNumber": "0x2242ffe",
          "blockTimestamp": "0x6a043d53",
          "transactionHash": "0xca9d68a696d2f93b16755d79362cac572eae852d15667ec92a11dae4fad3714d",
          "transactionIndex": "0x1",
          "logIndex": "0x1a",
          "removed": false
        },
        {
          "address": "0xfc00000000000000000000000000000000000006",
          "topics": [
            "0xddf252ad1be2c89b69c2b068fc378daa952ba7f163c4a11628f55a4df523b3ef",
            "0x000000000000000000000000741f0d8bde14140f62107fc60a0ee122b37d4630",
            "0x0000000000000000000000009abfe1f8a999b0011ecd6116649aee8d575f5604"
          ],
          "data": "0x00000000000000000000000000000000000000000000000000005af3107a4000",
          "blockHash": "0x7524cb438f5d5f5538dbc817428241bfc9dcc469d91a077903abc32829b4eea7",
          "blockNumber": "0x2242ffe",
          "blockTimestamp": "0x6a043d53",
          "transactionHash": "0xca9d68a696d2f93b16755d79362cac572eae852d15667ec92a11dae4fad3714d",
          "transactionIndex": "0x1",
          "logIndex": "0x1b",
          "removed": false
        },
        {
          "address": "0x377530cda84dfb2673bf4d145dcf0c4d7fdcb5b6",
          "topics": [
            "0x61ed099e74a97a1d7f8bb0952a88ca8b7b8ebd00c126ea04671f92a81213318a"
          ],
          "data": "0x00000000000000000000000041bdb4aa4a63a5b2efc531858d3118392b1a1c3d0000000000000000000000000000000000000000000000000096710e96250e4b",
          "blockHash": "0x7524cb438f5d5f5538dbc817428241bfc9dcc469d91a077903abc32829b4eea7",
          "blockNumber": "0x2242ffe",
          "blockTimestamp": "0x6a043d53",
          "transactionHash": "0xca9d68a696d2f93b16755d79362cac572eae852d15667ec92a11dae4fad3714d",
          "transactionIndex": "0x1",
          "logIndex": "0x1c",
          "removed": false
        },
        {
          "address": "0x377530cda84dfb2673bf4d145dcf0c4d7fdcb5b6",
          "topics": [
            "0x07ea52d82345d6e838192107d8fd7123d9c2ec8e916cd0aad13fd2b60db24644"
          ],
          "data": "0x000000000000000000000000000000000000000000000000000000000000006000000000000000000000000000000000000000000000000000000000000001000000000000000000000000000000000000000000000000000000000000000120000000000000000000000000000000000000000000000000000000000000000400000000000000000000000026cd5abadf7ec3f0f02b48314bfca6b2342cddd4000000000000000000000000a7b5189bca84cd304d8553977c7c614329750d99000000000000000000000000cce466a522984415bc91338c232d98869193d46e000000000000000000000000dd7b5e1db4aafd5c8ec3b764efb8ed265aa5445b000000000000000000000000000000000000000000000000000000000000000000000000000000000000000000000000000000000000000000000000000000040000000000000000000000000000000000000000000000000000eff1c01567950000000000000000000000000000000000000000000000000000e37fafe5738c0000000000000000000000000000000000000000000000000000e643b37e54720000000000000000000000000000000000000000000000000000e643b37e5472",
          "blockHash": "0x7524cb438f5d5f5538dbc817428241bfc9dcc469d91a077903abc32829b4eea7",
          "blockNumber": "0x2242ffe",
          "blockTimestamp": "0x6a043d53",
          "transactionHash": "0xca9d68a696d2f93b16755d79362cac572eae852d15667ec92a11dae4fad3714d",
          "transactionIndex": "0x1",
          "logIndex": "0x1d",
          "removed": false
        },
        {
          "address": "0x1a44076050125825900e736c501f859c50fe728c",
          "topics": [
            "0x1ab700d4ced0c005b164c0f789fd09fcbb0156d4c2041b8a3bfbcd961cd1567f"
          ],
          "data": "0x00000000000000000000000000000000000000000000000000000000000000600000000000000000000000000000000000000000000000000000000000000120000000000000000000000000377530cda84dfb2673bf4d145dcf0c4d7fdcb5b600000000000000000000000000000000000000000000000000000000000000990100000000000000020000762f0000000000000000000000009abfe1f8a999b0011ecd6116649aee8d575f5604000076ac000000000000000000000000000000008c3930dca540bb9b3a5d0ee78fca9a4c10c9a6327de3d29b4b65a92cde68af0b644c3e9148723b2ae32dc29704d50303000000000000000000000000e75177ed629a4770e2da00e1395c28a5f9b745d40000000000000064000000000000000000000000000000000000000000000000000000000000000000000000000016000301001101000000000000000000000000000f424000000000000000000000",
          "blockHash": "0x7524cb438f5d5f5538dbc817428241bfc9dcc469d91a077903abc32829b4eea7",
          "blockNumber": "0x2242ffe",
          "blockTimestamp": "0x6a043d53",
          "transactionHash": "0xca9d68a696d2f93b16755d79362cac572eae852d15667ec92a11dae4fad3714d",
          "transactionIndex": "0x1",
          "logIndex": "0x1e",
          "removed": false
        },
        {
          "address": "0x9abfe1f8a999b0011ecd6116649aee8d575f5604",
          "topics": [
            "0x85496b760a4b7f8d66384b9df21b381f5d1b1e79f229a47aaf4c232edc2fe59a",
            "0x10c9a6327de3d29b4b65a92cde68af0b644c3e9148723b2ae32dc29704d50303",
            "0x000000000000000000000000741f0d8bde14140f62107fc60a0ee122b37d4630"
          ],
          "data": "0x00000000000000000000000000000000000000000000000000000000000076ac00000000000000000000000000000000000000000000000000005af3107a400000000000000000000000000000000000000000000000000000005af3107a4000",
          "blockHash": "0x7524cb438f5d5f5538dbc817428241bfc9dcc469d91a077903abc32829b4eea7",
          "blockNumber": "0x2242ffe",
          "blockTimestamp": "0x6a043d53",
          "transactionHash": "0xca9d68a696d2f93b16755d79362cac572eae852d15667ec92a11dae4fad3714d",
          "transactionIndex": "0x1",
          "logIndex": "0x1f",
          "removed": false
        },
        {
          "address": "0x75c38d46001b0f8108c4136216bd2694982c20fc",
          "topics": [
            "0x603e191ccb1fad1c0004c9c1f37101358f84c3cf059031e9ec9b0c17cad34188",
            "0x00000000000000000000000000000000000000000000000000000000000076ac"
          ],
          "data": "0x00000000000000000000000000000000000000000000000000005af3107a400000000000000000000000000000000000000000000000000000005af3107a4000",
          "blockHash": "0x7524cb438f5d5f5538dbc817428241bfc9dcc469d91a077903abc32829b4eea7",
          "blockNumber": "0x2242ffe",
          "blockTimestamp": "0x6a043d53",
          "transactionHash": "0xca9d68a696d2f93b16755d79362cac572eae852d15667ec92a11dae4fad3714d",
          "transactionIndex": "0x1",
          "logIndex": "0x20",
          "removed": false
        },
        {
          "address": "0x75c38d46001b0f8108c4136216bd2694982c20fc",
          "topics": [
            "0xd2ff7607bbad14e866630d67da40c9a9cedd964cce5ce4c3dc4176133954ef98"
          ],
          "data": "0x00000000000000000000000000000000000000000000096e4fcb77cb7ddef00000000000000000000000000000000000000000000000000000005af3107a4000",
          "blockHash": "0x7524cb438f5d5f5538dbc817428241bfc9dcc469d91a077903abc32829b4eea7",
          "blockNumber": "0x2242ffe",
          "blockTimestamp": "0x6a043d53",
          "transactionHash": "0xca9d68a696d2f93b16755d79362cac572eae852d15667ec92a11dae4fad3714d",
          "transactionIndex": "0x1",
          "logIndex": "0x21",
          "removed": false
        },
        {
          "address": "0xfc00000000000000000000000000000000000003",
          "topics": [
            "0xddf252ad1be2c89b69c2b068fc378daa952ba7f163c4a11628f55a4df523b3ef",
            "0x000000000000000000000000741f0d8bde14140f62107fc60a0ee122b37d4630",
            "0x0000000000000000000000000000000000000000000000000000000000000000"
          ],
          "data": "0x00000000000000000000000000000000000000000000000000005af3107a4000",
          "blockHash": "0x7524cb438f5d5f5538dbc817428241bfc9dcc469d91a077903abc32829b4eea7",
          "blockNumber": "0x2242ffe",
          "blockTimestamp": "0x6a043d53",
          "transactionHash": "0xca9d68a696d2f93b16755d79362cac572eae852d15667ec92a11dae4fad3714d",
          "transactionIndex": "0x1",
          "logIndex": "0x22",
          "removed": false
        },
        {
          "address": "0xfc00000000000000000000000000000000000003",
          "topics": [
            "0xdc7fd22bc401e7c6b9be2c2736286a2a42ea0c6307bc97ff0fb12bd0abd2c747",
            "0x000000000000000000000000741f0d8bde14140f62107fc60a0ee122b37d4630",
            "0x00000000000000000000000075c38d46001b0f8108c4136216bd2694982c20fc"
          ],
          "data": "0x00000000000000000000000000000000000000000000000000005af3107a4000",
          "blockHash": "0x7524cb438f5d5f5538dbc817428241bfc9dcc469d91a077903abc32829b4eea7",
          "blockNumber": "0x2242ffe",
          "blockTimestamp": "0x6a043d53",
          "transactionHash": "0xca9d68a696d2f93b16755d79362cac572eae852d15667ec92a11dae4fad3714d",
          "transactionIndex": "0x1",
          "logIndex": "0x23",
          "removed": false
        },
        {
          "address": "0x377530cda84dfb2673bf4d145dcf0c4d7fdcb5b6",
          "topics": [
            "0x61ed099e74a97a1d7f8bb0952a88ca8b7b8ebd00c126ea04671f92a81213318a"
          ],
          "data": "0x00000000000000000000000041bdb4aa4a63a5b2efc531858d3118392b1a1c3d0000000000000000000000000000000000000000000000000096710e96250e4b",
          "blockHash": "0x7524cb438f5d5f5538dbc817428241bfc9dcc469d91a077903abc32829b4eea7",
          "blockNumber": "0x2242ffe",
          "blockTimestamp": "0x6a043d53",
          "transactionHash": "0xca9d68a696d2f93b16755d79362cac572eae852d15667ec92a11dae4fad3714d",
          "transactionIndex": "0x1",
          "logIndex": "0x24",
          "removed": false
        },
        {
          "address": "0x377530cda84dfb2673bf4d145dcf0c4d7fdcb5b6",
          "topics": [
            "0x07ea52d82345d6e838192107d8fd7123d9c2ec8e916cd0aad13fd2b60db24644"
          ],
          "data": "0x000000000000000000000000000000000000000000000000000000000000006000000000000000000000000000000000000000000000000000000000000001000000000000000000000000000000000000000000000000000000000000000120000000000000000000000000000000000000000000000000000000000000000400000000000000000000000026cd5abadf7ec3f0f02b48314bfca6b2342cddd4000000000000000000000000a7b5189bca84cd304d8553977c7c614329750d99000000000000000000000000cce466a522984415bc91338c232d98869193d46e000000000000000000000000dd7b5e1db4aafd5c8ec3b764efb8ed265aa5445b000000000000000000000000000000000000000000000000000000000000000000000000000000000000000000000000000000000000000000000000000000040000000000000000000000000000000000000000000000000000eff1c01567950000000000000000000000000000000000000000000000000000e37fafe5738c0000000000000000000000000000000000000000000000000000e643b37e54720000000000000000000000000000000000000000000000000000e643b37e5472",
          "blockHash": "0x7524cb438f5d5f5538dbc817428241bfc9dcc469d91a077903abc32829b4eea7",
          "blockNumber": "0x2242ffe",
          "blockTimestamp": "0x6a043d53",
          "transactionHash": "0xca9d68a696d2f93b16755d79362cac572eae852d15667ec92a11dae4fad3714d",
          "transactionIndex": "0x1",
          "logIndex": "0x25",
          "removed": false
        },
        {
          "address": "0x1a44076050125825900e736c501f859c50fe728c",
          "topics": [
            "0x1ab700d4ced0c005b164c0f789fd09fcbb0156d4c2041b8a3bfbcd961cd1567f"
          ],
          "data": "0x00000000000000000000000000000000000000000000000000000000000000600000000000000000000000000000000000000000000000000000000000000120000000000000000000000000377530cda84dfb2673bf4d145dcf0c4d7fdcb5b600000000000000000000000000000000000000000000000000000000000000990100000000000000020000762f00000000000000000000000075c38d46001b0f8108c4136216bd2694982c20fc000076ac00000000000000000000000000000000bc4aef4ba6363a437455cb1af19e2aeb09505e01478dfd71572bf6fa3ef9ddf6dec9148746fb2523ba6f295d94148519000000000000000000000000e75177ed629a4770e2da00e1395c28a5f9b745d40000000000000064000000000000000000000000000000000000000000000000000000000000000000000000000016000301001101000000000000000000000000000f424000000000000000000000",
          "blockHash": "0x7524cb438f5d5f5538dbc817428241bfc9dcc469d91a077903abc32829b4eea7",
          "blockNumber": "0x2242ffe",
          "blockTimestamp": "0x6a043d53",
          "transactionHash": "0xca9d68a696d2f93b16755d79362cac572eae852d15667ec92a11dae4fad3714d",
          "transactionIndex": "0x1",
          "logIndex": "0x26",
          "removed": false
        },
        {
          "address": "0x75c38d46001b0f8108c4136216bd2694982c20fc",
          "topics": [
            "0x85496b760a4b7f8d66384b9df21b381f5d1b1e79f229a47aaf4c232edc2fe59a",
            "0x09505e01478dfd71572bf6fa3ef9ddf6dec9148746fb2523ba6f295d94148519",
            "0x000000000000000000000000741f0d8bde14140f62107fc60a0ee122b37d4630"
          ],
          "data": "0x00000000000000000000000000000000000000000000000000000000000076ac00000000000000000000000000000000000000000000000000005af3107a400000000000000000000000000000000000000000000000000000005af3107a4000",
          "blockHash": "0x7524cb438f5d5f5538dbc817428241bfc9dcc469d91a077903abc32829b4eea7",
          "blockNumber": "0x2242ffe",
          "blockTimestamp": "0x6a043d53",
          "transactionHash": "0xca9d68a696d2f93b16755d79362cac572eae852d15667ec92a11dae4fad3714d",
          "transactionIndex": "0x1",
          "logIndex": "0x27",
          "removed": false
        }
      ],
      "logsBloom": "0x040040000000002000000000000001401000000000400000300020000050000002000000201000000000000000804000000403000000800002010000020000000000022050000000000000084010a1000000000000000000090810000000000000000000020400008000100000a80800000000000010000008000410008000000000000000000900050000080080002000004008000000248000000000100000000000008014001000100101000000000000004000400000504440240000200200000002000000000840000080000008000010000000080000000000000020082801040000000000000020000121002010000000018808400000000000000000",
      "type": "0x2",
      "transactionHash": "0xca9d68a696d2f93b16755d79362cac572eae852d15667ec92a11dae4fad3714d",
      "transactionIndex": "0x1",
      "blockHash": "0x7524cb438f5d5f5538dbc817428241bfc9dcc469d91a077903abc32829b4eea7",
      "blockNumber": "0x2242ffe",
      "gasUsed": "0x1dac88",
      "effectiveGasPrice": "0xff",
      "from": "0x45dce8e4f2dc005a5f28206a46cb034697eeda8e",
      "to": "0x741f0d8bde14140f62107fc60a0ee122b37d4630",
      "contractAddress": null,
      "l1BaseFeeScalar": "0x2faf080",
      "l1BlobBaseFee": "0xabbeff",
      "l1BlobBaseFeeScalar": "0x0",
      "l1Fee": "0x30d76b85b9c8",
      "l1GasPrice": "0xc1b3ed6",
      "l1GasUsed": "0x14a7"
    }
  ],
  "libraries": [],
  "pending": [],
  "returns": {},
  "timestamp": 1778662740141,
  "chain": 252,
  "commit": "cc46810"
}