{
  "transactions": [
    {
      "hash": "0x74ff887c38990a5bf40eeae7331237479602e2e81dbcb114b847474d2ae99062",
      "transactionType": "CALL",
      "contractName": null,
      "contractAddress": "0x741f0d8bde14140f62107fc60a0ee122b37d4630",
      "function": "batchBridgeWithEthFeeFromWallet((uint32,bytes32,uint256,uint256,bytes,bytes,bytes)[],address[],address[])",
      "arguments": [
        "[(30410, 0x000000000000000000000000741f0d8bde14140f62107fc60a0ee122b37d4630, 100000000000000, 0, 0x, 0x, 0x), (30410, 0x000000000000000000000000741f0d8bde14140f62107fc60a0ee122b37d4630, 100000000000000, 0, 0x, 0x, 0x), (30410, 0x000000000000000000000000741f0d8bde14140f62107fc60a0ee122b37d4630, 100000000000000, 0, 0x, 0x, 0x), (30410, 0x000000000000000000000000741f0d8bde14140f62107fc60a0ee122b37d4630, 100000000000000, 0, 0x, 0x, 0x), (30410, 0x000000000000000000000000741f0d8bde14140f62107fc60a0ee122b37d4630, 100000000000000, 0, 0x, 0x, 0x), (30410, 0x000000000000000000000000741f0d8bde14140f62107fc60a0ee122b37d4630, 100000000000000, 0, 0x, 0x, 0x)]",
        "[0xd86fBBd0c8715d2C1f40e451e5C3514e65E7576A, 0x88Aa7854D3b2dAA5e37E7Ce73A1F39669623a361, 0x999dfAbe3b1cc2EF66eB032Eea42FeA329bBa168, 0x96A394058E2b84A89bac9667B19661Ed003cF5D4, 0x9aBFE1F8a999B0011ecD6116649AEe8D575F5604, 0x75c38D46001b0F8108c4136216bd2694982C20FC]",
        "[0x741F0d8Bde14140f62107FC60A0EE122B37D4630, 0x741F0d8Bde14140f62107FC60A0EE122B37D4630, 0x741F0d8Bde14140f62107FC60A0EE122B37D4630, 0x741F0d8Bde14140f62107FC60A0EE122B37D4630, 0x741F0d8Bde14140f62107FC60A0EE122B37D4630, 0x741F0d8Bde14140f62107FC60A0EE122B37D4630]"
      ],
      "transaction": {
        "from": "0x45dce8e4f2dc005a5f28206a46cb034697eeda8e",
        "to": "0x741f0d8bde14140f62107fc60a0ee122b37d4630",
        "gas": "0x2d181d",
        "value": "0xc7688972f50b072",
        "input": "0xb70d4241000000000000000000000000000000000000000000000000000000000000006000000000000000000000000000000000000000000000000000000000000008c000000000000000000000000000000000000000000000000000000000000009a0000000000000000000000000000000000000000000000000000000000000000600000000000000000000000000000000000000000000000000000000000000c000000000000000000000000000000000000000000000000000000000000002000000000000000000000000000000000000000000000000000000000000000340000000000000000000000000000000000000000000000000000000000000048000000000000000000000000000000000000000000000000000000000000005c0000000000000000000000000000000000000000000000000000000000000070000000000000000000000000000000000000000000000000000000000000076ca000000000000000000000000741f0d8bde14140f62107fc60a0ee122b37d463000000000000000000000000000000000000000000000000000005af3107a4000000000000000000000000000000000000000000000000000000000000000000000000000000000000000000000000000000000000000000000000000000000e00000000000000000000000000000000000000000000000000000000000000100000000000000000000000000000000000000000000000000000000000000012000000000000000000000000000000000000000000000000000000000000000000000000000000000000000000000000000000000000000000000000000000000000000000000000000000000000000000000000000000000000000000000000000000000000000000000000000000000000000000000000000000000000076ca000000000000000000000000741f0d8bde14140f62107fc60a0ee122b37d463000000000000000000000000000000000000000000000000000005af3107a4000000000000000000000000000000000000000000000000000000000000000000000000000000000000000000000000000000000000000000000000000000000e00000000000000000000000000000000000000000000000000000000000000100000000000000000000000000000000000000000000000000000000000000012000000000000000000000000000000000000000000000000000000000000000000000000000000000000000000000000000000000000000000000000000000000000000000000000000000000000000000000000000000000000000000000000000000000000000000000000000000000000000000000000000000000000076ca000000000000000000000000741f0d8bde14140f62107fc60a0ee122b37d463000000000000000000000000000000000000000000000000000005af3107a4000000000000000000000000000000000000000000000000000000000000000000000000000000000000000000000000000000000000000000000000000000000e00000000000000000000000000000000000000000000000000000000000000100000000000000000000000000000000000000000000000000000000000000012000000000000000000000000000000000000000000000000000000000000000000000000000000000000000000000000000000000000000000000000000000000000000000000000000000000000000000000000000000000000000000000000000000000000000000000000000000000000000000000000000000000000076ca000000000000000000000000741f0d8bde14140f62107fc60a0ee122b37d463000000000000000000000000000000000000000000000000000005af3107a4000000000000000000000000000000000000000000000000000000000000000000000000000000000000000000000000000000000000000000000000000000000e00000000000000000000000000000000000000000000000000000000000000100000000000000000000000000000000000000000000000000000000000000012000000000000000000000000000000000000000000000000000000000000000000000000000000000000000000000000000000000000000000000000000000000000000000000000000000000000000000000000000000000000000000000000000000000000000000000000000000000000000000000000000000000000076ca000000000000000000000000741f0d8bde14140f62107fc60a0ee122b37d463000000000000000000000000000000000000000000000000000005af3107a4000000000000000000000000000000000000000000000000000000000000000000000000000000000000000000000000000000000000000000000000000000000e00000000000000000000000000000000000000000000000000000000000000100000000000000000000000000000000000000000000000000000000000000012000000000000000000000000000000000000000000000000000000000000000000000000000000000000000000000000000000000000000000000000000000000000000000000000000000000000000000000000000000000000000000000000000000000000000000000000000000000000000000000000000000000000076ca000000000000000000000000741f0d8bde14140f62107fc60a0ee122b37d463000000000000000000000000000000000000000000000000000005af3107a4000000000000000000000000000000000000000000000000000000000000000000000000000000000000000000000000000000000000000000000000000000000e0000000000000000000000000000000000000000000000000000000000000010000000000000000000000000000000000000000000000000000000000000001200000000000000000000000000000000000000000000000000000000000000000000000000000000000000000000000000000000000000000000000000000000000000000000000000000000000000000000000000000000000000000000000000000000000000000000000000000000000000000000000000000000000000006000000000000000000000000d86fbbd0c8715d2c1f40e451e5c3514e65e7576a00000000000000000000000088aa7854d3b2daa5e37e7ce73a1f39669623a361000000000000000000000000999dfabe3b1cc2ef66eb032eea42fea329bba16800000000000000000000000096a394058e2b84a89bac9667b19661ed003cf5d40000000000000000000000009abfe1f8a999b0011ecd6116649aee8d575f560400000000000000000000000075c38d46001b0f8108c4136216bd2694982c20fc0000000000000000000000000000000000000000000000000000000000000006000000000000000000000000741f0d8bde14140f62107fc60a0ee122b37d4630000000000000000000000000741f0d8bde14140f62107fc60a0ee122b37d4630000000000000000000000000741f0d8bde14140f62107fc60a0ee122b37d4630000000000000000000000000741f0d8bde14140f62107fc60a0ee122b37d4630000000000000000000000000741f0d8bde14140f62107fc60a0ee122b37d4630000000000000000000000000741f0d8bde14140f62107fc60a0ee122b37d4630",
        "nonce": "0x163",
        "chainId": "0xfc"
      },
      "additionalContracts": [],
      "isFixedGasLimit": false
    }
  ],
  "receipts": [
    {
      "status": "0x1",
      "cumulativeGasUsed": "0x2162ab",
      "logs": [
        {
          "address": "0xfc00000000000000000000000000000000000002",
          "topics": [
            "0xddf252ad1be2c89b69c2b068fc378daa952ba7f163c4a11628f55a4df523b3ef",
            "0x000000000000000000000000741f0d8bde14140f62107fc60a0ee122b37d4630",
            "0x000000000000000000000000d86fbbd0c8715d2c1f40e451e5c3514e65e7576a"
          ],
          "data": "0x00000000000000000000000000000000000000000000000000005af3107a4000",
          "blockHash": "0x1a093b5e3c9b248619967ce5d2a672f939c9bb80075712d283482b4b9098b6b6",
          "blockNumber": "0x2242c98",
          "blockTimestamp": "0x6a043687",
          "transactionHash": "0x74ff887c38990a5bf40eeae7331237479602e2e81dbcb114b847474d2ae99062",
          "transactionIndex": "0x1",
          "logIndex": "0x0",
          "removed": false
        },
        {
          "address": "0x377530cda84dfb2673bf4d145dcf0c4d7fdcb5b6",
          "topics": [
            "0x61ed099e74a97a1d7f8bb0952a88ca8b7b8ebd00c126ea04671f92a81213318a"
          ],
          "data": "0x00000000000000000000000041bdb4aa4a63a5b2efc531858d3118392b1a1c3d00000000000000000000000000000000000000000000000001c60827a02cafa3",
          "blockHash": "0x1a093b5e3c9b248619967ce5d2a672f939c9bb80075712d283482b4b9098b6b6",
          "blockNumber": "0x2242c98",
          "blockTimestamp": "0x6a043687",
          "transactionHash": "0x74ff887c38990a5bf40eeae7331237479602e2e81dbcb114b847474d2ae99062",
          "transactionIndex": "0x1",
          "logIndex": "0x1",
          "removed": false
        },
        {
          "address": "0x377530cda84dfb2673bf4d145dcf0c4d7fdcb5b6",
          "topics": [
            "0x07ea52d82345d6e838192107d8fd7123d9c2ec8e916cd0aad13fd2b60db24644"
          ],
          "data": "0x000000000000000000000000000000000000000000000000000000000000006000000000000000000000000000000000000000000000000000000000000001200000000000000000000000000000000000000000000000000000000000000140000000000000000000000000000000000000000000000000000000000000000500000000000000000000000026cd5abadf7ec3f0f02b48314bfca6b2342cddd40000000000000000000000006398e91001cc1682bba103e6b2489fa5675a5a64000000000000000000000000a7b5189bca84cd304d8553977c7c614329750d99000000000000000000000000cce466a522984415bc91338c232d98869193d46e000000000000000000000000dd7b5e1db4aafd5c8ec3b764efb8ed265aa5445b0000000000000000000000000000000000000000000000000000000000000000000000000000000000000000000000000000000000000000000000000000000500000000000000000000000000000000000000000000000000100187780afc5e000000000000000000000000000000000000000000000000000fd24cb6b8ffc6000000000000000000000000000000000000000000000000000f2cff121a0bb4000000000000000000000000000000000000000000000000000f5c39d36c084c000000000000000000000000000000000000000000000000000f5c39d36c084c",
          "blockHash": "0x1a093b5e3c9b248619967ce5d2a672f939c9bb80075712d283482b4b9098b6b6",
          "blockNumber": "0x2242c98",
          "blockTimestamp": "0x6a043687",
          "transactionHash": "0x74ff887c38990a5bf40eeae7331237479602e2e81dbcb114b847474d2ae99062",
          "transactionIndex": "0x1",
          "logIndex": "0x2",
          "removed": false
        },
        {
          "address": "0x1a44076050125825900e736c501f859c50fe728c",
          "topics": [
            "0x1ab700d4ced0c005b164c0f789fd09fcbb0156d4c2041b8a3bfbcd961cd1567f"
          ],
          "data": "0x00000000000000000000000000000000000000000000000000000000000000600000000000000000000000000000000000000000000000000000000000000120000000000000000000000000377530cda84dfb2673bf4d145dcf0c4d7fdcb5b6000000000000000000000000000000000000000000000000000000000000009901000000000000000c0000762f000000000000000000000000d86fbbd0c8715d2c1f40e451e5c3514e65e7576a000076ca00000000000000000000000000000000e9ce0f293d1ce552768b187eba8a56d42f3caf849ac0aeea91c885e5a17fe38ad51db73fdb66dd39fa249a82d09cc7bd000000000000000000000000741f0d8bde14140f62107fc60a0ee122b37d46300000000000000064000000000000000000000000000000000000000000000000000000000000000000000000000016000301001101000000000000000000000000001e848000000000000000000000",
          "blockHash": "0x1a093b5e3c9b248619967ce5d2a672f939c9bb80075712d283482b4b9098b6b6",
          "blockNumber": "0x2242c98",
          "blockTimestamp": "0x6a043687",
          "transactionHash": "0x74ff887c38990a5bf40eeae7331237479602e2e81dbcb114b847474d2ae99062",
          "transactionIndex": "0x1",
          "logIndex": "0x3",
          "removed": false
        },
        {
          "address": "0xd86fbbd0c8715d2c1f40e451e5c3514e65e7576a",
          "topics": [
            "0x85496b760a4b7f8d66384b9df21b381f5d1b1e79f229a47aaf4c232edc2fe59a",
            "0x2f3caf849ac0aeea91c885e5a17fe38ad51db73fdb66dd39fa249a82d09cc7bd",
            "0x000000000000000000000000741f0d8bde14140f62107fc60a0ee122b37d4630"
          ],
          "data": "0x00000000000000000000000000000000000000000000000000000000000076ca00000000000000000000000000000000000000000000000000005af3107a400000000000000000000000000000000000000000000000000000005af3107a4000",
          "blockHash": "0x1a093b5e3c9b248619967ce5d2a672f939c9bb80075712d283482b4b9098b6b6",
          "blockNumber": "0x2242c98",
          "blockTimestamp": "0x6a043687",
          "transactionHash": "0x74ff887c38990a5bf40eeae7331237479602e2e81dbcb114b847474d2ae99062",
          "transactionIndex": "0x1",
          "logIndex": "0x4",
          "removed": false
        },
        {
          "address": "0x88aa7854d3b2daa5e37e7ce73a1f39669623a361",
          "topics": [
            "0x603e191ccb1fad1c0004c9c1f37101358f84c3cf059031e9ec9b0c17cad34188",
            "0x00000000000000000000000000000000000000000000000000000000000076ca"
          ],
          "data": "0x000000000000000000000000000000000000000000000007ee15ebad0deae00000000000000000000000000000000000000000000000000000005af3107a4000",
          "blockHash": "0x1a093b5e3c9b248619967ce5d2a672f939c9bb80075712d283482b4b9098b6b6",
          "blockNumber": "0x2242c98",
          "blockTimestamp": "0x6a043687",
          "transactionHash": "0x74ff887c38990a5bf40eeae7331237479602e2e81dbcb114b847474d2ae99062",
          "transactionIndex": "0x1",
          "logIndex": "0x5",
          "removed": false
        },
        {
          "address": "0x88aa7854d3b2daa5e37e7ce73a1f39669623a361",
          "topics": [
            "0xd2ff7607bbad14e866630d67da40c9a9cedd964cce5ce4c3dc4176133954ef98"
          ],
          "data": "0x00000000000000000000000000000000000000000024116b91d2fe7998fbc00000000000000000000000000000000000000000000000000000005af3107a4000",
          "blockHash": "0x1a093b5e3c9b248619967ce5d2a672f939c9bb80075712d283482b4b9098b6b6",
          "blockNumber": "0x2242c98",
          "blockTimestamp": "0x6a043687",
          "transactionHash": "0x74ff887c38990a5bf40eeae7331237479602e2e81dbcb114b847474d2ae99062",
          "transactionIndex": "0x1",
          "logIndex": "0x6",
          "removed": false
        },
        {
          "address": "0xfc00000000000000000000000000000000000008",
          "topics": [
            "0xddf252ad1be2c89b69c2b068fc378daa952ba7f163c4a11628f55a4df523b3ef",
            "0x000000000000000000000000741f0d8bde14140f62107fc60a0ee122b37d4630",
            "0x0000000000000000000000000000000000000000000000000000000000000000"
          ],
          "data": "0x00000000000000000000000000000000000000000000000000005af3107a4000",
          "blockHash": "0x1a093b5e3c9b248619967ce5d2a672f939c9bb80075712d283482b4b9098b6b6",
          "blockNumber": "0x2242c98",
          "blockTimestamp": "0x6a043687",
          "transactionHash": "0x74ff887c38990a5bf40eeae7331237479602e2e81dbcb114b847474d2ae99062",
          "transactionIndex": "0x1",
          "logIndex": "0x7",
          "removed": false
        },
        {
          "address": "0xfc00000000000000000000000000000000000008",
          "topics": [
            "0xdc7fd22bc401e7c6b9be2c2736286a2a42ea0c6307bc97ff0fb12bd0abd2c747",
            "0x000000000000000000000000741f0d8bde14140f62107fc60a0ee122b37d4630",
            "0x00000000000000000000000088aa7854d3b2daa5e37e7ce73a1f39669623a361"
          ],
          "data": "0x00000000000000000000000000000000000000000000000000005af3107a4000",
          "blockHash": "0x1a093b5e3c9b248619967ce5d2a672f939c9bb80075712d283482b4b9098b6b6",
          "blockNumber": "0x2242c98",
          "blockTimestamp": "0x6a043687",
          "transactionHash": "0x74ff887c38990a5bf40eeae7331237479602e2e81dbcb114b847474d2ae99062",
          "transactionIndex": "0x1",
          "logIndex": "0x8",
          "removed": false
        },
        {
          "address": "0x377530cda84dfb2673bf4d145dcf0c4d7fdcb5b6",
          "topics": [
            "0x61ed099e74a97a1d7f8bb0952a88ca8b7b8ebd00c126ea04671f92a81213318a"
          ],
          "data": "0x00000000000000000000000041bdb4aa4a63a5b2efc531858d3118392b1a1c3d00000000000000000000000000000000000000000000000001c60827a02cafa3",
          "blockHash": "0x1a093b5e3c9b248619967ce5d2a672f939c9bb80075712d283482b4b9098b6b6",
          "blockNumber": "0x2242c98",
          "blockTimestamp": "0x6a043687",
          "transactionHash": "0x74ff887c38990a5bf40eeae7331237479602e2e81dbcb114b847474d2ae99062",
          "transactionIndex": "0x1",
          "logIndex": "0x9",
          "removed": false
        },
        {
          "address": "0x377530cda84dfb2673bf4d145dcf0c4d7fdcb5b6",
          "topics": [
            "0x07ea52d82345d6e838192107d8fd7123d9c2ec8e916cd0aad13fd2b60db24644"
          ],
          "data": "0x000000000000000000000000000000000000000000000000000000000000006000000000000000000000000000000000000000000000000000000000000001200000000000000000000000000000000000000000000000000000000000000140000000000000000000000000000000000000000000000000000000000000000500000000000000000000000026cd5abadf7ec3f0f02b48314bfca6b2342cddd40000000000000000000000006398e91001cc1682bba103e6b2489fa5675a5a64000000000000000000000000a7b5189bca84cd304d8553977c7c614329750d99000000000000000000000000cce466a522984415bc91338c232d98869193d46e000000000000000000000000dd7b5e1db4aafd5c8ec3b764efb8ed265aa5445b0000000000000000000000000000000000000000000000000000000000000000000000000000000000000000000000000000000000000000000000000000000500000000000000000000000000000000000000000000000000100187780afc5e000000000000000000000000000000000000000000000000000fd24cb6b8ffc6000000000000000000000000000000000000000000000000000f2cff121a0bb4000000000000000000000000000000000000000000000000000f5c39d36c084c000000000000000000000000000000000000000000000000000f5c39d36c084c",
          "blockHash": "0x1a093b5e3c9b248619967ce5d2a672f939c9bb80075712d283482b4b9098b6b6",
          "blockNumber": "0x2242c98",
          "blockTimestamp": "0x6a043687",
          "transactionHash": "0x74ff887c38990a5bf40eeae7331237479602e2e81dbcb114b847474d2ae99062",
          "transactionIndex": "0x1",
          "logIndex": "0xa",
          "removed": false
        },
        {
          "address": "0x1a44076050125825900e736c501f859c50fe728c",
          "topics": [
            "0x1ab700d4ced0c005b164c0f789fd09fcbb0156d4c2041b8a3bfbcd961cd1567f"
          ],
          "data": "0x00000000000000000000000000000000000000000000000000000000000000600000000000000000000000000000000000000000000000000000000000000120000000000000000000000000377530cda84dfb2673bf4d145dcf0c4d7fdcb5b6000000000000000000000000000000000000000000000000000000000000009901000000000000000c0000762f00000000000000000000000088aa7854d3b2daa5e37e7ce73a1f39669623a361000076ca00000000000000000000000000000000fd8c4b8a413a06821456801295921a7185f90aa05774c7392df2c0d18191d220f22c2afb437b06f1eaeaf46545e808cd000000000000000000000000741f0d8bde14140f62107fc60a0ee122b37d46300000000000000064000000000000000000000000000000000000000000000000000000000000000000000000000016000301001101000000000000000000000000001e848000000000000000000000",
          "blockHash": "0x1a093b5e3c9b248619967ce5d2a672f939c9bb80075712d283482b4b9098b6b6",
          "blockNumber": "0x2242c98",
          "blockTimestamp": "0x6a043687",
          "transactionHash": "0x74ff887c38990a5bf40eeae7331237479602e2e81dbcb114b847474d2ae99062",
          "transactionIndex": "0x1",
          "logIndex": "0xb",
          "removed": false
        },
        {
          "address": "0x88aa7854d3b2daa5e37e7ce73a1f39669623a361",
          "topics": [
            "0x85496b760a4b7f8d66384b9df21b381f5d1b1e79f229a47aaf4c232edc2fe59a",
            "0x85f90aa05774c7392df2c0d18191d220f22c2afb437b06f1eaeaf46545e808cd",
            "0x000000000000000000000000741f0d8bde14140f62107fc60a0ee122b37d4630"
          ],
          "data": "0x00000000000000000000000000000000000000000000000000000000000076ca00000000000000000000000000000000000000000000000000005af3107a400000000000000000000000000000000000000000000000000000005af3107a4000",
          "blockHash": "0x1a093b5e3c9b248619967ce5d2a672f939c9bb80075712d283482b4b9098b6b6",
          "blockNumber": "0x2242c98",
          "blockTimestamp": "0x6a043687",
          "transactionHash": "0x74ff887c38990a5bf40eeae7331237479602e2e81dbcb114b847474d2ae99062",
          "transactionIndex": "0x1",
          "logIndex": "0xc",
          "removed": false
        },
        {
          "address": "0xfc00000000000000000000000000000000000005",
          "topics": [
            "0xddf252ad1be2c89b69c2b068fc378daa952ba7f163c4a11628f55a4df523b3ef",
            "0x000000000000000000000000741f0d8bde14140f62107fc60a0ee122b37d4630",
            "0x000000000000000000000000999dfabe3b1cc2ef66eb032eea42fea329bba168"
          ],
          "data": "0x00000000000000000000000000000000000000000000000000005af3107a4000",
          "blockHash": "0x1a093b5e3c9b248619967ce5d2a672f939c9bb80075712d283482b4b9098b6b6",
          "blockNumber": "0x2242c98",
          "blockTimestamp": "0x6a043687",
          "transactionHash": "0x74ff887c38990a5bf40eeae7331237479602e2e81dbcb114b847474d2ae99062",
          "transactionIndex": "0x1",
          "logIndex": "0xd",
          "removed": false
        },
        {
          "address": "0x377530cda84dfb2673bf4d145dcf0c4d7fdcb5b6",
          "topics": [
            "0x61ed099e74a97a1d7f8bb0952a88ca8b7b8ebd00c126ea04671f92a81213318a"
          ],
          "data": "0x00000000000000000000000041bdb4aa4a63a5b2efc531858d3118392b1a1c3d00000000000000000000000000000000000000000000000001c60827a02cafa3",
          "blockHash": "0x1a093b5e3c9b248619967ce5d2a672f939c9bb80075712d283482b4b9098b6b6",
          "blockNumber": "0x2242c98",
          "blockTimestamp": "0x6a043687",
          "transactionHash": "0x74ff887c38990a5bf40eeae7331237479602e2e81dbcb114b847474d2ae99062",
          "transactionIndex": "0x1",
          "logIndex": "0xe",
          "removed": false
        },
        {
          "address": "0x377530cda84dfb2673bf4d145dcf0c4d7fdcb5b6",
          "topics": [
            "0x07ea52d82345d6e838192107d8fd7123d9c2ec8e916cd0aad13fd2b60db24644"
          ],
          "data": "0x000000000000000000000000000000000000000000000000000000000000006000000000000000000000000000000000000000000000000000000000000001200000000000000000000000000000000000000000000000000000000000000140000000000000000000000000000000000000000000000000000000000000000500000000000000000000000026cd5abadf7ec3f0f02b48314bfca6b2342cddd40000000000000000000000006398e91001cc1682bba103e6b2489fa5675a5a64000000000000000000000000a7b5189bca84cd304d8553977c7c614329750d99000000000000000000000000cce466a522984415bc91338c232d98869193d46e000000000000000000000000dd7b5e1db4aafd5c8ec3b764efb8ed265aa5445b0000000000000000000000000000000000000000000000000000000000000000000000000000000000000000000000000000000000000000000000000000000500000000000000000000000000000000000000000000000000100187780afc5e000000000000000000000000000000000000000000000000000fd24cb6b8ffc6000000000000000000000000000000000000000000000000000f2cff121a0bb4000000000000000000000000000000000000000000000000000f5c39d36c084c000000000000000000000000000000000000000000000000000f5c39d36c084c",
          "blockHash": "0x1a093b5e3c9b248619967ce5d2a672f939c9bb80075712d283482b4b9098b6b6",
          "blockNumber": "0x2242c98",
          "blockTimestamp": "0x6a043687",
          "transactionHash": "0x74ff887c38990a5bf40eeae7331237479602e2e81dbcb114b847474d2ae99062",
          "transactionIndex": "0x1",
          "logIndex": "0xf",
          "removed": false
        },
        {
          "address": "0x1a44076050125825900e736c501f859c50fe728c",
          "topics": [
            "0x1ab700d4ced0c005b164c0f789fd09fcbb0156d4c2041b8a3bfbcd961cd1567f"
          ],
          "data": "0x00000000000000000000000000000000000000000000000000000000000000600000000000000000000000000000000000000000000000000000000000000120000000000000000000000000377530cda84dfb2673bf4d145dcf0c4d7fdcb5b6000000000000000000000000000000000000000000000000000000000000009901000000000000000a0000762f000000000000000000000000999dfabe3b1cc2ef66eb032eea42fea329bba168000076ca00000000000000000000000000000000883279097a49db1f2af954ead0c77e3cc7f3d24d9d28c8885e2d21577a240dfa286c0a2b26b39eb3d4d5fc7cad54f416000000000000000000000000741f0d8bde14140f62107fc60a0ee122b37d46300000000000000064000000000000000000000000000000000000000000000000000000000000000000000000000016000301001101000000000000000000000000001e848000000000000000000000",
          "blockHash": "0x1a093b5e3c9b248619967ce5d2a672f939c9bb80075712d283482b4b9098b6b6",
          "blockNumber": "0x2242c98",
          "blockTimestamp": "0x6a043687",
          "transactionHash": "0x74ff887c38990a5bf40eeae7331237479602e2e81dbcb114b847474d2ae99062",
          "transactionIndex": "0x1",
          "logIndex": "0x10",
          "removed": false
        },
        {
          "address": "0x999dfabe3b1cc2ef66eb032eea42fea329bba168",
          "topics": [
            "0x85496b760a4b7f8d66384b9df21b381f5d1b1e79f229a47aaf4c232edc2fe59a",
            "0xc7f3d24d9d28c8885e2d21577a240dfa286c0a2b26b39eb3d4d5fc7cad54f416",
            "0x000000000000000000000000741f0d8bde14140f62107fc60a0ee122b37d4630"
          ],
          "data": "0x00000000000000000000000000000000000000000000000000000000000076ca00000000000000000000000000000000000000000000000000005af3107a400000000000000000000000000000000000000000000000000000005af3107a4000",
          "blockHash": "0x1a093b5e3c9b248619967ce5d2a672f939c9bb80075712d283482b4b9098b6b6",
          "blockNumber": "0x2242c98",
          "blockTimestamp": "0x6a043687",
          "transactionHash": "0x74ff887c38990a5bf40eeae7331237479602e2e81dbcb114b847474d2ae99062",
          "transactionIndex": "0x1",
          "logIndex": "0x11",
          "removed": false
        },
        {
          "address": "0x96a394058e2b84a89bac9667b19661ed003cf5d4",
          "topics": [
            "0x603e191ccb1fad1c0004c9c1f37101358f84c3cf059031e9ec9b0c17cad34188",
            "0x00000000000000000000000000000000000000000000000000000000000076ca"
          ],
          "data": "0x00000000000000000000000000000000000000000000000d29cc8bdf403e900000000000000000000000000000000000000000000000000000005af3107a4000",
          "blockHash": "0x1a093b5e3c9b248619967ce5d2a672f939c9bb80075712d283482b4b9098b6b6",
          "blockNumber": "0x2242c98",
          "blockTimestamp": "0x6a043687",
          "transactionHash": "0x74ff887c38990a5bf40eeae7331237479602e2e81dbcb114b847474d2ae99062",
          "transactionIndex": "0x1",
          "logIndex": "0x12",
          "removed": false
        },
        {
          "address": "0x96a394058e2b84a89bac9667b19661ed003cf5d4",
          "topics": [
            "0xd2ff7607bbad14e866630d67da40c9a9cedd964cce5ce4c3dc4176133954ef98"
          ],
          "data": "0x000000000000000000000000000000000000000000ae167a41704204f09e700000000000000000000000000000000000000000000000000000005af3107a4000",
          "blockHash": "0x1a093b5e3c9b248619967ce5d2a672f939c9bb80075712d283482b4b9098b6b6",
          "blockNumber": "0x2242c98",
          "blockTimestamp": "0x6a043687",
          "transactionHash": "0x74ff887c38990a5bf40eeae7331237479602e2e81dbcb114b847474d2ae99062",
          "transactionIndex": "0x1",
          "logIndex": "0x13",
          "removed": false
        },
        {
          "address": "0xfc00000000000000000000000000000000000001",
          "topics": [
            "0xddf252ad1be2c89b69c2b068fc378daa952ba7f163c4a11628f55a4df523b3ef",
            "0x000000000000000000000000741f0d8bde14140f62107fc60a0ee122b37d4630",
            "0x0000000000000000000000000000000000000000000000000000000000000000"
          ],
          "data": "0x00000000000000000000000000000000000000000000000000005af3107a4000",
          "blockHash": "0x1a093b5e3c9b248619967ce5d2a672f939c9bb80075712d283482b4b9098b6b6",
          "blockNumber": "0x2242c98",
          "blockTimestamp": "0x6a043687",
          "transactionHash": "0x74ff887c38990a5bf40eeae7331237479602e2e81dbcb114b847474d2ae99062",
          "transactionIndex": "0x1",
          "logIndex": "0x14",
          "removed": false
        },
        {
          "address": "0xfc00000000000000000000000000000000000001",
          "topics": [
            "0xdc7fd22bc401e7c6b9be2c2736286a2a42ea0c6307bc97ff0fb12bd0abd2c747",
            "0x000000000000000000000000741f0d8bde14140f62107fc60a0ee122b37d4630",
            "0x00000000000000000000000096a394058e2b84a89bac9667b19661ed003cf5d4"
          ],
          "data": "0x00000000000000000000000000000000000000000000000000005af3107a4000",
          "blockHash": "0x1a093b5e3c9b248619967ce5d2a672f939c9bb80075712d283482b4b9098b6b6",
          "blockNumber": "0x2242c98",
          "blockTimestamp": "0x6a043687",
          "transactionHash": "0x74ff887c38990a5bf40eeae7331237479602e2e81dbcb114b847474d2ae99062",
          "transactionIndex": "0x1",
          "logIndex": "0x15",
          "removed": false
        },
        {
          "address": "0x377530cda84dfb2673bf4d145dcf0c4d7fdcb5b6",
          "topics": [
            "0x61ed099e74a97a1d7f8bb0952a88ca8b7b8ebd00c126ea04671f92a81213318a"
          ],
          "data": "0x00000000000000000000000041bdb4aa4a63a5b2efc531858d3118392b1a1c3d00000000000000000000000000000000000000000000000001c60827a02cafa3",
          "blockHash": "0x1a093b5e3c9b248619967ce5d2a672f939c9bb80075712d283482b4b9098b6b6",
          "blockNumber": "0x2242c98",
          "blockTimestamp": "0x6a043687",
          "transactionHash": "0x74ff887c38990a5bf40eeae7331237479602e2e81dbcb114b847474d2ae99062",
          "transactionIndex": "0x1",
          "logIndex": "0x16",
          "removed": false
        },
        {
          "address": "0x377530cda84dfb2673bf4d145dcf0c4d7fdcb5b6",
          "topics": [
            "0x07ea52d82345d6e838192107d8fd7123d9c2ec8e916cd0aad13fd2b60db24644"
          ],
          "data": "0x000000000000000000000000000000000000000000000000000000000000006000000000000000000000000000000000000000000000000000000000000001200000000000000000000000000000000000000000000000000000000000000140000000000000000000000000000000000000000000000000000000000000000500000000000000000000000026cd5abadf7ec3f0f02b48314bfca6b2342cddd40000000000000000000000006398e91001cc1682bba103e6b2489fa5675a5a64000000000000000000000000a7b5189bca84cd304d8553977c7c614329750d99000000000000000000000000cce466a522984415bc91338c232d98869193d46e000000000000000000000000dd7b5e1db4aafd5c8ec3b764efb8ed265aa5445b0000000000000000000000000000000000000000000000000000000000000000000000000000000000000000000000000000000000000000000000000000000500000000000000000000000000000000000000000000000000100187780afc5e000000000000000000000000000000000000000000000000000fd24cb6b8ffc6000000000000000000000000000000000000000000000000000f2cff121a0bb4000000000000000000000000000000000000000000000000000f5c39d36c084c000000000000000000000000000000000000000000000000000f5c39d36c084c",
          "blockHash": "0x1a093b5e3c9b248619967ce5d2a672f939c9bb80075712d283482b4b9098b6b6",
          "blockNumber": "0x2242c98",
          "blockTimestamp": "0x6a043687",
          "transactionHash": "0x74ff887c38990a5bf40eeae7331237479602e2e81dbcb114b847474d2ae99062",
          "transactionIndex": "0x1",
          "logIndex": "0x17",
          "removed": false
        },
        {
          "address": "0x1a44076050125825900e736c501f859c50fe728c",
          "topics": [
            "0x1ab700d4ced0c005b164c0f789fd09fcbb0156d4c2041b8a3bfbcd961cd1567f"
          ],
          "data": "0x00000000000000000000000000000000000000000000000000000000000000600000000000000000000000000000000000000000000000000000000000000120000000000000000000000000377530cda84dfb2673bf4d145dcf0c4d7fdcb5b600000000000000000000000000000000000000000000000000000000000000990100000000000000240000762f00000000000000000000000096a394058e2b84a89bac9667b19661ed003cf5d4000076ca00000000000000000000000000000000d61733e7a393a10a5b48c311abe8f1e58ab2b9a3fc738554d5491ad3aac7c42880b63079da13996d01bd87ed069ae3e6000000000000000000000000741f0d8bde14140f62107fc60a0ee122b37d46300000000000000064000000000000000000000000000000000000000000000000000000000000000000000000000016000301001101000000000000000000000000001e848000000000000000000000",
          "blockHash": "0x1a093b5e3c9b248619967ce5d2a672f939c9bb80075712d283482b4b9098b6b6",
          "blockNumber": "0x2242c98",
          "blockTimestamp": "0x6a043687",
          "transactionHash": "0x74ff887c38990a5bf40eeae7331237479602e2e81dbcb114b847474d2ae99062",
          "transactionIndex": "0x1",
          "logIndex": "0x18",
          "removed": false
        },
        {
          "address": "0x96a394058e2b84a89bac9667b19661ed003cf5d4",
          "topics": [
            "0x85496b760a4b7f8d66384b9df21b381f5d1b1e79f229a47aaf4c232edc2fe59a",
            "0x8ab2b9a3fc738554d5491ad3aac7c42880b63079da13996d01bd87ed069ae3e6",
            "0x000000000000000000000000741f0d8bde14140f62107fc60a0ee122b37d4630"
          ],
          "data": "0x00000000000000000000000000000000000000000000000000000000000076ca00000000000000000000000000000000000000000000000000005af3107a400000000000000000000000000000000000000000000000000000005af3107a4000",
          "blockHash": "0x1a093b5e3c9b248619967ce5d2a672f939c9bb80075712d283482b4b9098b6b6",
          "blockNumber": "0x2242c98",
          "blockTimestamp": "0x6a043687",
          "transactionHash": "0x74ff887c38990a5bf40eeae7331237479602e2e81dbcb114b847474d2ae99062",
          "transactionIndex": "0x1",
          "logIndex": "0x19",
          "removed": false
        },
        {
          "address": "0xfc00000000000000000000000000000000000006",
          "topics": [
            "0xddf252ad1be2c89b69c2b068fc378daa952ba7f163c4a11628f55a4df523b3ef",
            "0x000000000000000000000000741f0d8bde14140f62107fc60a0ee122b37d4630",
            "0x0000000000000000000000009abfe1f8a999b0011ecd6116649aee8d575f5604"
          ],
          "data": "0x00000000000000000000000000000000000000000000000000005af3107a4000",
          "blockHash": "0x1a093b5e3c9b248619967ce5d2a672f939c9bb80075712d283482b4b9098b6b6",
          "blockNumber": "0x2242c98",
          "blockTimestamp": "0x6a043687",
          "transactionHash": "0x74ff887c38990a5bf40eeae7331237479602e2e81dbcb114b847474d2ae99062",
          "transactionIndex": "0x1",
          "logIndex": "0x1a",
          "removed": false
        },
        {
          "address": "0x377530cda84dfb2673bf4d145dcf0c4d7fdcb5b6",
          "topics": [
            "0x61ed099e74a97a1d7f8bb0952a88ca8b7b8ebd00c126ea04671f92a81213318a"
          ],
          "data": "0x00000000000000000000000041bdb4aa4a63a5b2efc531858d3118392b1a1c3d00000000000000000000000000000000000000000000000001c60827a02cafa3",
          "blockHash": "0x1a093b5e3c9b248619967ce5d2a672f939c9bb80075712d283482b4b9098b6b6",
          "blockNumber": "0x2242c98",
          "blockTimestamp": "0x6a043687",
          "transactionHash": "0x74ff887c38990a5bf40eeae7331237479602e2e81dbcb114b847474d2ae99062",
          "transactionIndex": "0x1",
          "logIndex": "0x1b",
          "removed": false
        },
        {
          "address": "0x377530cda84dfb2673bf4d145dcf0c4d7fdcb5b6",
          "topics": [
            "0x07ea52d82345d6e838192107d8fd7123d9c2ec8e916cd0aad13fd2b60db24644"
          ],
          "data": "0x000000000000000000000000000000000000000000000000000000000000006000000000000000000000000000000000000000000000000000000000000001200000000000000000000000000000000000000000000000000000000000000140000000000000000000000000000000000000000000000000000000000000000500000000000000000000000026cd5abadf7ec3f0f02b48314bfca6b2342cddd40000000000000000000000006398e91001cc1682bba103e6b2489fa5675a5a64000000000000000000000000a7b5189bca84cd304d8553977c7c614329750d99000000000000000000000000cce466a522984415bc91338c232d98869193d46e000000000000000000000000dd7b5e1db4aafd5c8ec3b764efb8ed265aa5445b0000000000000000000000000000000000000000000000000000000000000000000000000000000000000000000000000000000000000000000000000000000500000000000000000000000000000000000000000000000000100187780afc5e000000000000000000000000000000000000000000000000000fd24cb6b8ffc6000000000000000000000000000000000000000000000000000f2cff121a0bb4000000000000000000000000000000000000000000000000000f5c39d36c084c000000000000000000000000000000000000000000000000000f5c39d36c084c",
          "blockHash": "0x1a093b5e3c9b248619967ce5d2a672f939c9bb80075712d283482b4b9098b6b6",
          "blockNumber": "0x2242c98",
          "blockTimestamp": "0x6a043687",
          "transactionHash": "0x74ff887c38990a5bf40eeae7331237479602e2e81dbcb114b847474d2ae99062",
          "transactionIndex": "0x1",
          "logIndex": "0x1c",
          "removed": false
        },
        {
          "address": "0x1a44076050125825900e736c501f859c50fe728c",
          "topics": [
            "0x1ab700d4ced0c005b164c0f789fd09fcbb0156d4c2041b8a3bfbcd961cd1567f"
          ],
          "data": "0x00000000000000000000000000000000000000000000000000000000000000600000000000000000000000000000000000000000000000000000000000000120000000000000000000000000377530cda84dfb2673bf4d145dcf0c4d7fdcb5b600000000000000000000000000000000000000000000000000000000000000990100000000000000100000762f0000000000000000000000009abfe1f8a999b0011ecd6116649aee8d575f5604000076ca000000000000000000000000000000008c3930dca540bb9b3a5d0ee78fca9a4c59b795a521804145784bc6a2bd2d107eebb6683cc658d8091a4988efb50fa82d000000000000000000000000741f0d8bde14140f62107fc60a0ee122b37d46300000000000000064000000000000000000000000000000000000000000000000000000000000000000000000000016000301001101000000000000000000000000001e848000000000000000000000",
          "blockHash": "0x1a093b5e3c9b248619967ce5d2a672f939c9bb80075712d283482b4b9098b6b6",
          "blockNumber": "0x2242c98",
          "blockTimestamp": "0x6a043687",
          "transactionHash": "0x74ff887c38990a5bf40eeae7331237479602e2e81dbcb114b847474d2ae99062",
          "transactionIndex": "0x1",
          "logIndex": "0x1d",
          "removed": false
        },
        {
          "address": "0x9abfe1f8a999b0011ecd6116649aee8d575f5604",
          "topics": [
            "0x85496b760a4b7f8d66384b9df21b381f5d1b1e79f229a47aaf4c232edc2fe59a",
            "0x59b795a521804145784bc6a2bd2d107eebb6683cc658d8091a4988efb50fa82d",
            "0x000000000000000000000000741f0d8bde14140f62107fc60a0ee122b37d4630"
          ],
          "data": "0x00000000000000000000000000000000000000000000000000000000000076ca00000000000000000000000000000000000000000000000000005af3107a400000000000000000000000000000000000000000000000000000005af3107a4000",
          "blockHash": "0x1a093b5e3c9b248619967ce5d2a672f939c9bb80075712d283482b4b9098b6b6",
          "blockNumber": "0x2242c98",
          "blockTimestamp": "0x6a043687",
          "transactionHash": "0x74ff887c38990a5bf40eeae7331237479602e2e81dbcb114b847474d2ae99062",
          "transactionIndex": "0x1",
          "logIndex": "0x1e",
          "removed": false
        },
        {
          "address": "0x75c38d46001b0f8108c4136216bd2694982c20fc",
          "topics": [
            "0x603e191ccb1fad1c0004c9c1f37101358f84c3cf059031e9ec9b0c17cad34188",
            "0x00000000000000000000000000000000000000000000000000000000000076ca"
          ],
          "data": "0x0000000000000000000000000000000000000000000000077bab898324c3000000000000000000000000000000000000000000000000000000005af3107a4000",
          "blockHash": "0x1a093b5e3c9b248619967ce5d2a672f939c9bb80075712d283482b4b9098b6b6",
          "blockNumber": "0x2242c98",
          "blockTimestamp": "0x6a043687",
          "transactionHash": "0x74ff887c38990a5bf40eeae7331237479602e2e81dbcb114b847474d2ae99062",
          "transactionIndex": "0x1",
          "logIndex": "0x1f",
          "removed": false
        },
        {
          "address": "0x75c38d46001b0f8108c4136216bd2694982c20fc",
          "topics": [
            "0xd2ff7607bbad14e866630d67da40c9a9cedd964cce5ce4c3dc4176133954ef98"
          ],
          "data": "0x00000000000000000000000000000000000000000000096e4fcb1cd86d64b00000000000000000000000000000000000000000000000000000005af3107a4000",
          "blockHash": "0x1a093b5e3c9b248619967ce5d2a672f939c9bb80075712d283482b4b9098b6b6",
          "blockNumber": "0x2242c98",
          "blockTimestamp": "0x6a043687",
          "transactionHash": "0x74ff887c38990a5bf40eeae7331237479602e2e81dbcb114b847474d2ae99062",
          "transactionIndex": "0x1",
          "logIndex": "0x20",
          "removed": false
        },
        {
          "address": "0xfc00000000000000000000000000000000000003",
          "topics": [
            "0xddf252ad1be2c89b69c2b068fc378daa952ba7f163c4a11628f55a4df523b3ef",
            "0x000000000000000000000000741f0d8bde14140f62107fc60a0ee122b37d4630",
            "0x0000000000000000000000000000000000000000000000000000000000000000"
          ],
          "data": "0x00000000000000000000000000000000000000000000000000005af3107a4000",
          "blockHash": "0x1a093b5e3c9b248619967ce5d2a672f939c9bb80075712d283482b4b9098b6b6",
          "blockNumber": "0x2242c98",
          "blockTimestamp": "0x6a043687",
          "transactionHash": "0x74ff887c38990a5bf40eeae7331237479602e2e81dbcb114b847474d2ae99062",
          "transactionIndex": "0x1",
          "logIndex": "0x21",
          "removed": false
        },
        {
          "address": "0xfc00000000000000000000000000000000000003",
          "topics": [
            "0xdc7fd22bc401e7c6b9be2c2736286a2a42ea0c6307bc97ff0fb12bd0abd2c747",
            "0x000000000000000000000000741f0d8bde14140f62107fc60a0ee122b37d4630",
            "0x00000000000000000000000075c38d46001b0f8108c4136216bd2694982c20fc"
          ],
          "data": "0x00000000000000000000000000000000000000000000000000005af3107a4000",
          "blockHash": "0x1a093b5e3c9b248619967ce5d2a672f939c9bb80075712d283482b4b9098b6b6",
          "blockNumber": "0x2242c98",
          "blockTimestamp": "0x6a043687",
          "transactionHash": "0x74ff887c38990a5bf40eeae7331237479602e2e81dbcb114b847474d2ae99062",
          "transactionIndex": "0x1",
          "logIndex": "0x22",
          "removed": false
        },
        {
          "address": "0x377530cda84dfb2673bf4d145dcf0c4d7fdcb5b6",
          "topics": [
            "0x61ed099e74a97a1d7f8bb0952a88ca8b7b8ebd00c126ea04671f92a81213318a"
          ],
          "data": "0x00000000000000000000000041bdb4aa4a63a5b2efc531858d3118392b1a1c3d00000000000000000000000000000000000000000000000001c60827a02cafa3",
          "blockHash": "0x1a093b5e3c9b248619967ce5d2a672f939c9bb80075712d283482b4b9098b6b6",
          "blockNumber": "0x2242c98",
          "blockTimestamp": "0x6a043687",
          "transactionHash": "0x74ff887c38990a5bf40eeae7331237479602e2e81dbcb114b847474d2ae99062",
          "transactionIndex": "0x1",
          "logIndex": "0x23",
          "removed": false
        },
        {
          "address": "0x377530cda84dfb2673bf4d145dcf0c4d7fdcb5b6",
          "topics": [
            "0x07ea52d82345d6e838192107d8fd7123d9c2ec8e916cd0aad13fd2b60db24644"
          ],
          "data": "0x000000000000000000000000000000000000000000000000000000000000006000000000000000000000000000000000000000000000000000000000000001200000000000000000000000000000000000000000000000000000000000000140000000000000000000000000000000000000000000000000000000000000000500000000000000000000000026cd5abadf7ec3f0f02b48314bfca6b2342cddd40000000000000000000000006398e91001cc1682bba103e6b2489fa5675a5a64000000000000000000000000a7b5189bca84cd304d8553977c7c614329750d99000000000000000000000000cce466a522984415bc91338c232d98869193d46e000000000000000000000000dd7b5e1db4aafd5c8ec3b764efb8ed265aa5445b0000000000000000000000000000000000000000000000000000000000000000000000000000000000000000000000000000000000000000000000000000000500000000000000000000000000000000000000000000000000100187780afc5e000000000000000000000000000000000000000000000000000fd24cb6b8ffc6000000000000000000000000000000000000000000000000000f2cff121a0bb4000000000000000000000000000000000000000000000000000f5c39d36c084c000000000000000000000000000000000000000000000000000f5c39d36c084c",
          "blockHash": "0x1a093b5e3c9b248619967ce5d2a672f939c9bb80075712d283482b4b9098b6b6",
          "blockNumber": "0x2242c98",
          "blockTimestamp": "0x6a043687",
          "transactionHash": "0x74ff887c38990a5bf40eeae7331237479602e2e81dbcb114b847474d2ae99062",
          "transactionIndex": "0x1",
          "logIndex": "0x24",
          "removed": false
        },
        {
          "address": "0x1a44076050125825900e736c501f859c50fe728c",
          "topics": [
            "0x1ab700d4ced0c005b164c0f789fd09fcbb0156d4c2041b8a3bfbcd961cd1567f"
          ],
          "data": "0x00000000000000000000000000000000000000000000000000000000000000600000000000000000000000000000000000000000000000000000000000000120000000000000000000000000377530cda84dfb2673bf4d145dcf0c4d7fdcb5b6000000000000000000000000000000000000000000000000000000000000009901000000000000000a0000762f00000000000000000000000075c38d46001b0f8108c4136216bd2694982c20fc000076ca00000000000000000000000000000000bc4aef4ba6363a437455cb1af19e2aebf319ac912d6be9d2a9d65c4602d13ff9a8b337418f846d8975480c4975b875b8000000000000000000000000741f0d8bde14140f62107fc60a0ee122b37d46300000000000000064000000000000000000000000000000000000000000000000000000000000000000000000000016000301001101000000000000000000000000001e848000000000000000000000",
          "blockHash": "0x1a093b5e3c9b248619967ce5d2a672f939c9bb80075712d283482b4b9098b6b6",
          "blockNumber": "0x2242c98",
          "blockTimestamp": "0x6a043687",
          "transactionHash": "0x74ff887c38990a5bf40eeae7331237479602e2e81dbcb114b847474d2ae99062",
          "transactionIndex": "0x1",
          "logIndex": "0x25",
          "removed": false
        },
        {
          "address": "0x75c38d46001b0f8108c4136216bd2694982c20fc",
          "topics": [
            "0x85496b760a4b7f8d66384b9df21b381f5d1b1e79f229a47aaf4c232edc2fe59a",
            "0xf319ac912d6be9d2a9d65c4602d13ff9a8b337418f846d8975480c4975b875b8",
            "0x000000000000000000000000741f0d8bde14140f62107fc60a0ee122b37d4630"
          ],
          "data": "0x00000000000000000000000000000000000000000000000000000000000076ca00000000000000000000000000000000000000000000000000005af3107a400000000000000000000000000000000000000000000000000000005af3107a4000",
          "blockHash": "0x1a093b5e3c9b248619967ce5d2a672f939c9bb80075712d283482b4b9098b6b6",
          "blockNumber": "0x2242c98",
          "blockTimestamp": "0x6a043687",
          "transactionHash": "0x74ff887c38990a5bf40eeae7331237479602e2e81dbcb114b847474d2ae99062",
          "transactionIndex": "0x1",
          "logIndex": "0x26",
          "removed": false
        }
      ],
      "logsBloom": "0x04004000000000200000004200000140100000000040000030002000005000000200000020100000000000008080400000040300000280000010000000000000000002204000000000000008403000000010000000008001092802000000000000000000020400008000100000a80800000000000010000100000410008000000000000000000800050000080080002000004008000000248000000000100000080000028014001000100100000000c00000000000402000104440040000000000000002000000000840002080000000000010004000080000000000000020003801040000000000000000000121002000000000018800400000000000000040",
      "type": "0x2",
      "transactionHash": "0x74ff887c38990a5bf40eeae7331237479602e2e81dbcb114b847474d2ae99062",
      "transactionIndex": "0x1",
      "blockHash": "0x1a093b5e3c9b248619967ce5d2a672f939c9bb80075712d283482b4b9098b6b6",
      "blockNumber": "0x2242c98",
      "gasUsed": "0x20a5bc",
      "effectiveGasPrice": "0x280e",
      "from": "0x45dce8e4f2dc005a5f28206a46cb034697eeda8e",
      "to": "0x741f0d8bde14140f62107fc60a0ee122b37d4630",
      "contractAddress": null,
      "l1BaseFeeScalar": "0x2faf080",
      "l1BlobBaseFee": "0x649dfc",
      "l1BlobBaseFeeScalar": "0x0",
      "l1Fee": "0x1d269f2bcbd4",
      "l1GasPrice": "0x782c609",
      "l1GasUsed": "0x13df"
    }
  ],
  "libraries": [],
  "pending": [],
  "returns": {},
  "timestamp": 1778661000867,
  "chain": 252,
  "commit": "cc46810"
}