{
  "transactions": [
    {
      "hash": null,
      "transactionType": "CREATE",
      "contractName": "FraxOFTAdapterUpgradeable",
      "contractAddress": "0x36076294472daf59391a7ddbedebf4b681d823c7",
      "function": null,
      "arguments": [
        "0xFc00000000000000000000000000000000000001",
        "0x1a44076050125825900e736c501f859c50fE728c"
      ],
      "transaction": {
        "from": "0x0990be6db8c785fbbf9ded8baec612a10cae814b",
        "gas": "0x35318b",
        "value": "0x0",
        "input": "0x60e06040523480156200001157600080fd5b50604051620032a8380380620032a8833981016040819052620000349162000121565b8181816001600160a01b031663313ce5676040518163ffffffff1660e01b8152600401602060405180830381865afa15801562000075573d6000803e3d6000fd5b505050506040513d601f19601f820116820180604052508101906200009b919062000159565b6001600160a01b03821660805281600660ff83161015620000cf576040516301e9714b60e41b815260040160405180910390fd5b620000dc6006836200019b565b620000e990600a620002ba565b60a0525050506001600160a01b031660c05250620002cb9050565b80516001600160a01b03811681146200011c57600080fd5b919050565b600080604083850312156200013557600080fd5b620001408362000104565b9150620001506020840162000104565b90509250929050565b6000602082840312156200016c57600080fd5b815160ff811681146200017e57600080fd5b9392505050565b634e487b7160e01b600052601160045260246000fd5b60ff8281168282160390811115620001b757620001b762000185565b92915050565b600181815b80851115620001fe578160001904821115620001e257620001e262000185565b80851615620001f057918102915b93841c9390800290620001c2565b509250929050565b6000826200021757506001620001b7565b816200022657506000620001b7565b81600181146200023f57600281146200024a576200026a565b6001915050620001b7565b60ff8411156200025e576200025e62000185565b50506001821b620001b7565b5060208310610133831016604e8410600b84101617156200028f575081810a620001b7565b6200029b8383620001bd565b8060001904821115620002b257620002b262000185565b029392505050565b60006200017e60ff84168362000206565b60805160a05160c051612f596200034f600039600081816106b50152818161194f0152611b3801526000818161050601528181611a8601528181611afb0152611beb0152600081816104280152818161080101528181611220015281816114e40152818161176c015281816119aa01528181611d870152611e400152612f596000f3fe6080604052600436106102045760003560e01c8063857749b011610118578063bd815db0116100a0578063d045a0dc1161006f578063d045a0dc14610653578063d424388514610666578063f2fde38b14610686578063fc0c546a146106a6578063ff7bd03d146106d957600080fd5b8063bd815db0146105df578063c4d66de8146105f2578063c7c7f5b314610612578063ca5eb5e11461063357600080fd5b8063b731ea0a116100e7578063b731ea0a1461054a578063b92d0eff14610355578063b98bd0701461055f578063bb0b6a531461057f578063bc70b354146105bf57600080fd5b8063857749b0146104ba5780638da5cb5b146104d6578063963efcaa146104f45780639f68b9641461053657600080fd5b80633b6f743b1161019b5780635a0dfe4d1161016a5780635a0dfe4d146103c25780635e280f11146104165780636fc1b31e1461044a578063715018a61461046a5780637d25a05e1461047f57600080fd5b80633b6f743b1461032857806352ae28791461035557806354fd4d50146103685780635535d4611461039557600080fd5b8063156a0d0f116101d7578063156a0d0f146102ab57806317442b70146102d25780631f5e1334146102f35780633400288b1461030857600080fd5b80630d35b41514610209578063111ecdad1461024157806313137d651461026e578063134d4f2514610283575b600080fd5b34801561021557600080fd5b5061022961022436600461212a565b6106f9565b604051610238939291906121ae565b60405180910390f35b34801561024d57600080fd5b506102566107ca565b6040516001600160a01b039091168152602001610238565b61028161027c3660046122b6565b6107ff565b005b34801561028f57600080fd5b50610298600281565b60405161ffff9091168152602001610238565b3480156102b757600080fd5b506040805162b9270b60e21b81526001602082015201610238565b3480156102de57600080fd5b50604080516001808252602082015201610238565b3480156102ff57600080fd5b50610298600181565b34801561031457600080fd5b5061028161032336600461236e565b6108bf565b34801561033457600080fd5b506103486103433660046123a6565b61092c565b60405161023891906123f7565b34801561036157600080fd5b5030610256565b34801561037457600080fd5b50600160008060408051938452602084019290925290820152606001610238565b3480156103a157600080fd5b506103b56103b0366004612420565b610995565b6040516102389190612453565b3480156103ce57600080fd5b506104066103dd36600461236e565b63ffffffff919091166000908152600080516020612f0483398151915260205260409020541490565b6040519015158152602001610238565b34801561042257600080fd5b506102567f000000000000000000000000000000000000000000000000000000000000000081565b34801561045657600080fd5b50610281610465366004612466565b610a70565b34801561047657600080fd5b50610281610aec565b34801561048b57600080fd5b506104a261049a36600461236e565b600092915050565b6040516001600160401b039091168152602001610238565b3480156104c657600080fd5b5060405160068152602001610238565b3480156104e257600080fd5b506033546001600160a01b0316610256565b34801561050057600080fd5b506105287f000000000000000000000000000000000000000000000000000000000000000081565b604051908152602001610238565b34801561054257600080fd5b506001610406565b34801561055657600080fd5b50610256610b00565b34801561056b57600080fd5b5061028161057a3660046124c7565b610b29565b34801561058b57600080fd5b5061052861059a366004612508565b63ffffffff166000908152600080516020612f04833981519152602052604090205490565b3480156105cb57600080fd5b506103b56105da366004612523565b610caa565b6102816105ed3660046124c7565b610e48565b3480156105fe57600080fd5b5061028161060d366004612466565b610fdf565b610625610620366004612583565b6110ff565b6040516102389291906125f0565b34801561063f57600080fd5b5061028161064e366004612466565b6111f9565b6102816106613660046122b6565b61127f565b34801561067257600080fd5b50610281610681366004612466565b6112ae565b34801561069257600080fd5b506102816106a1366004612466565b611322565b3480156106b257600080fd5b507f0000000000000000000000000000000000000000000000000000000000000000610256565b3480156106e557600080fd5b506104066106f4366004612642565b61139b565b6040805180820190915260008082526020820152606061072c604051806040016040528060008152602001600081525090565b60408051808201825260008082526001600160401b03602080840182905284518381529081019094529195509182610787565b60408051808201909152600081526060602082015281526020019060019003908161075f5790505b5093506000806107ac604089013560608a01356107a760208c018c612508565b6113b9565b60408051808201909152918252602082015296989597505050505050565b6000807f41db8a78b0206aba5c54bcbfc2bda0d84082a84eb88e680379a57b9e9f653c005b546001600160a01b031692915050565b7f00000000000000000000000000000000000000000000000000000000000000006001600160a01b0316331461084f576040516391ac5e4f60e01b81523360048201526024015b60405180910390fd5b6020870180359061086990610864908a612508565b6113fd565b146108a75761087b6020880188612508565b60405163309afaf360e21b815263ffffffff909116600482015260208801356024820152604401610846565b6108b68787878787878761144f565b50505050505050565b6108c76115b6565b63ffffffff82166000818152600080516020612f04833981519152602081815260409283902085905582519384528301849052917f238399d427b947898edb290f5ff0f9109849b1c3ba196a42e35f00c50a54b98b91015b60405180910390a1505050565b6040805180820190915260008082526020820152600061095c604085013560608601356107a76020880188612508565b91505060008061096c8684611610565b90925090506109896109816020880188612508565b838388611756565b93505050505b92915050565b63ffffffff821660009081527f8d2bda5d9f6ffb5796910376005392955773acee5548d0fcdb10e7c264ea00006020818152604080842061ffff86168552909152909120805460609291906109e990612674565b80601f0160208091040260200160405190810160405280929190818152602001828054610a1590612674565b8015610a625780601f10610a3757610100808354040283529160200191610a62565b820191906000526020600020905b815481529060010190602001808311610a4557829003601f168201915b505050505091505092915050565b610a786115b6565b7f41db8a78b0206aba5c54bcbfc2bda0d84082a84eb88e680379a57b9e9f653c0080546001600160a01b0319166001600160a01b03831690811782556040519081527ff0be4f1e87349231d80c36b33f9e8639658eeaf474014dee15a3e6a4d4414197906020015b60405180910390a15050565b610af46115b6565b610afe6000611837565b565b6000807fefb041d771d6daaa55702fff6eb740d63ba559a75d2d1d3e151c78ff2480b6006107ef565b610b316115b6565b7f8d2bda5d9f6ffb5796910376005392955773acee5548d0fcdb10e7c264ea000060005b82811015610c7857610b97848483818110610b7257610b726126a8565b9050602002810190610b8491906126be565b610b929060408101906126de565b611889565b838382818110610ba957610ba96126a8565b9050602002810190610bbb91906126be565b610bc99060408101906126de565b836000878786818110610bde57610bde6126a8565b9050602002810190610bf091906126be565b610bfe906020810190612508565b63ffffffff1663ffffffff1681526020019081526020016000206000878786818110610c2c57610c2c6126a8565b9050602002810190610c3e91906126be565b610c4f906040810190602001612724565b61ffff168152602081019190915260400160002091610c6f91908361278f565b50600101610b55565b507fbe4864a8e820971c0247f5992e2da559595f7bf076a21cb5928d443d2a13b674838360405161091f929190612877565b63ffffffff841660009081527f8d2bda5d9f6ffb5796910376005392955773acee5548d0fcdb10e7c264ea00006020818152604080842061ffff88168552909152822080546060939190610cfd90612674565b80601f0160208091040260200160405190810160405280929190818152602001828054610d2990612674565b8015610d765780601f10610d4b57610100808354040283529160200191610d76565b820191906000526020600020905b815481529060010190602001808311610d5957829003601f168201915b505050505090508051600003610dc75784848080601f016020809104026020016040519081016040528093929190818152602001838380828437600092019190915250929550610e40945050505050565b6000849003610dd9579150610e409050565b60028410610e2357610deb8585611889565b80610df9856002818961295b565b604051602001610e0b93929190612985565b60405160208183030381529060405292505050610e40565b8484604051639a6d49cd60e01b81526004016108469291906129ad565b949350505050565b60005b81811015610f5e5736838383818110610e6657610e666126a8565b9050602002810190610e7891906129c1565b9050610eb8610e8a6020830183612508565b602083013563ffffffff919091166000908152600080516020612f0483398151915260205260409020541490565b610ec25750610f56565b3063d045a0dc60c08301358360a0810135610ee16101008301836126de565b610ef2610100890160e08a01612466565b610f006101208a018a6126de565b6040518963ffffffff1660e01b8152600401610f2297969594939291906129ed565b6000604051808303818588803b158015610f3b57600080fd5b505af1158015610f4f573d6000803e3d6000fd5b5050505050505b600101610e4b565b50336001600160a01b0316638e9e70996040518163ffffffff1660e01b8152600401600060405180830381865afa158015610f9d573d6000803e3d6000fd5b505050506040513d6000823e601f3d908101601f19168201604052610fc59190810190612a9b565b604051638351eea760e01b81526004016108469190612453565b600054610100900460ff1615808015610fff5750600054600160ff909116105b806110195750303b158015611019575060005460ff166001145b61107c5760405162461bcd60e51b815260206004820152602e60248201527f496e697469616c697a61626c653a20636f6e747261637420697320616c72656160448201526d191e481a5b9a5d1a585b1a5e995960921b6064820152608401610846565b6000805460ff19166001179055801561109f576000805461ff0019166101001790555b6110a8826118d0565b6110b0611900565b6110b982611837565b80156110fb576000805461ff0019169055604051600181527f7f26b83ff96e1f2b6a682f133852f6798a09c465da95921460cefb384740249890602001610ae0565b5050565b6111076120cb565b604080518082019091526000808252602082015260008061113d6040880135606089013561113860208b018b612508565b61192f565b9150915060008061114e8984611610565b909250905061117a61116360208b018b612508565b8383611174368d90038d018d612b3c565b8b611977565b60408051808201909152858152602080820186905282519298509096503391907f85496b760a4b7f8d66384b9df21b381f5d1b1e79f229a47aaf4c232edc2fe59a906111c8908d018d612508565b6040805163ffffffff909216825260208201899052810187905260600160405180910390a350505050935093915050565b6112016115b6565b60405163ca5eb5e160e01b81526001600160a01b0382811660048301527f0000000000000000000000000000000000000000000000000000000000000000169063ca5eb5e190602401600060405180830381600087803b15801561126457600080fd5b505af1158015611278573d6000803e3d6000fd5b5050505050565b33301461129f5760405163029a949d60e31b815260040160405180910390fd5b6108b6878787878787876108a7565b6112b66115b6565b7fefb041d771d6daaa55702fff6eb740d63ba559a75d2d1d3e151c78ff2480b60080546001600160a01b0319166001600160a01b03831690811782556040519081527fd48d879cef83a1c0bdda516f27b13ddb1b3f8bbac1c9e1511bb2a659c242776090602001610ae0565b61132a6115b6565b6001600160a01b03811661138f5760405162461bcd60e51b815260206004820152602660248201527f4f776e61626c653a206e6577206f776e657220697320746865207a65726f206160448201526564647265737360d01b6064820152608401610846565b61139881611837565b50565b6000602082018035906113b29061059a9085612508565b1492915050565b6000806113c585611a82565b9150819050838110156113f5576040516371c4efed60e01b81526004810182905260248101859052604401610846565b935093915050565b63ffffffff81166000908152600080516020612f0483398151915260208190526040822054806114485760405163f6ff4fb760e01b815263ffffffff85166004820152602401610846565b9392505050565b600061146161145e8787611ab9565b90565b9050600061148d8261147b6114768a8a611ad1565b611af4565b61148860208d018d612508565b611b29565b905060288611156115545760006114ca6114ad60608c0160408d01612b6e565b6114ba60208d018d612508565b846114c58c8c611b67565b611bb2565b604051633e5ac80960e11b81529091506001600160a01b037f00000000000000000000000000000000000000000000000000000000000000001690637cb59012906115209086908d906000908790600401612b8b565b600060405180830381600087803b15801561153a57600080fd5b505af115801561154e573d6000803e3d6000fd5b50505050505b6001600160a01b038216887fefed6d3500546b29533b128a29e3a94d70788727f0507505ac12eaf2e578fd9c61158d60208d018d612508565b6040805163ffffffff9092168252602082018690520160405180910390a3505050505050505050565b6033546001600160a01b03163314610afe5760405162461bcd60e51b815260206004820181905260248201527f4f776e61626c653a2063616c6c6572206973206e6f7420746865206f776e65726044820152606401610846565b606080600061166d856020013561162686611be4565b61163360a08901896126de565b8080601f016020809104026020016040519081016040528093929190818152602001838380828437600092019190915250611c1092505050565b9093509050600081611680576001611683565b60025b90506116a36116956020880188612508565b826105da60808a018a6126de565b7f41db8a78b0206aba5c54bcbfc2bda0d84082a84eb88e680379a57b9e9f653c008054919450906001600160a01b03161561174c57805460405163043a78eb60e01b81526001600160a01b039091169063043a78eb906117099088908890600401612bc6565b602060405180830381865afa158015611726573d6000803e3d6000fd5b505050506040513d601f19601f8201168201806040525081019061174a9190612beb565b505b5050509250929050565b60408051808201909152600080825260208201527f00000000000000000000000000000000000000000000000000000000000000006001600160a01b031663ddc28c586040518060a001604052808863ffffffff1681526020016117b9896113fd565b8152602001878152602001868152602001851515815250306040518363ffffffff1660e01b81526004016117ee929190612c08565b6040805180830381865afa15801561180a573d6000803e3d6000fd5b505050506040513d601f19601f8201168201806040525081019061182e9190612cb1565b95945050505050565b603380546001600160a01b038381166001600160a01b0319831681179093556040519116919082907f8be0079c531659141344cd1fd0a4f28419497f9722a3daafe3b4186f6b6457e090600090a35050565b6000611898600282848661295b565b6118a191612ccd565b60f01c9050600381146118cb578282604051639a6d49cd60e01b81526004016108469291906129ad565b505050565b600054610100900460ff166118f75760405162461bcd60e51b815260040161084690612cfd565b61139881611c8a565b600054610100900460ff166119275760405162461bcd60e51b815260040161084690612cfd565b610afe611cba565b60008061193d8585856113b9565b90925090506113f56001600160a01b037f000000000000000000000000000000000000000000000000000000000000000016333085611cea565b61197f6120cb565b600061198e8460000151611d5b565b6020850151909150156119a8576119a88460200151611d83565b7f00000000000000000000000000000000000000000000000000000000000000006001600160a01b0316632637a450826040518060a001604052808b63ffffffff1681526020016119f88c6113fd565b81526020018a815260200189815260200160008960200151111515815250866040518463ffffffff1660e01b8152600401611a34929190612c08565b60806040518083038185885af1158015611a52573d6000803e3d6000fd5b50505050506040513d601f19601f82011682018060405250810190611a779190612d48565b979650505050505050565b60007f0000000000000000000000000000000000000000000000000000000000000000611aaf8184612daf565b61098f9190612dd1565b6000611ac8602082848661295b565b61144891612df6565b6000611ae160286020848661295b565b611aea91612e14565b60c01c9392505050565b600061098f7f00000000000000000000000000000000000000000000000000000000000000006001600160401b038416612dd1565b6000611b5f6001600160a01b037f0000000000000000000000000000000000000000000000000000000000000000168585611e65565b509092915050565b6060611b76826028818661295b565b8080601f016020809104026020016040519081016040528093929190818152602001838380828437600092019190915250929695505050505050565b606084848484604051602001611bcb9493929190612e42565b6040516020818303038152906040529050949350505050565b600061098f7f000000000000000000000000000000000000000000000000000000000000000083612daf565b8051606090151580611c59578484604051602001611c4592919091825260c01b6001600160c01b031916602082015260280190565b604051602081830303815290604052611c80565b84843385604051602001611c709493929190612e91565b6040516020818303038152906040525b9150935093915050565b600054610100900460ff16611cb15760405162461bcd60e51b815260040161084690612cfd565b61139881611e95565b600054610100900460ff16611ce15760405162461bcd60e51b815260040161084690612cfd565b610afe33611837565b6040516001600160a01b0380851660248301528316604482015260648101829052611d559085906323b872dd60e01b906084015b60408051601f198184030181529190526020810180516001600160e01b03166001600160e01b031990931692909217909152611ee3565b50505050565b6000813414611d7f576040516304fb820960e51b8152346004820152602401610846565b5090565b60007f00000000000000000000000000000000000000000000000000000000000000006001600160a01b031663e4fe1d946040518163ffffffff1660e01b8152600401602060405180830381865afa158015611de3573d6000803e3d6000fd5b505050506040513d601f19601f82011682018060405250810190611e079190612ed4565b90506001600160a01b038116611e30576040516329b99a9560e11b815260040160405180910390fd5b6110fb6001600160a01b038216337f000000000000000000000000000000000000000000000000000000000000000085611cea565b6040516001600160a01b0383166024820152604481018290526118cb90849063a9059cbb60e01b90606401611d1e565b600054610100900460ff16611ebc5760405162461bcd60e51b815260040161084690612cfd565b6001600160a01b03811661120157604051632d618d8160e21b815260040160405180910390fd5b6000611f38826040518060400160405280602081526020017f5361666545524332303a206c6f772d6c6576656c2063616c6c206661696c6564815250856001600160a01b0316611fb89092919063ffffffff16565b9050805160001480611f59575080806020019051810190611f599190612beb565b6118cb5760405162461bcd60e51b815260206004820152602a60248201527f5361666545524332303a204552433230206f7065726174696f6e20646964206e6044820152691bdd081cdd58d8d9595960b21b6064820152608401610846565b6060610e40848460008585600080866001600160a01b03168587604051611fdf9190612ef1565b60006040518083038185875af1925050503d806000811461201c576040519150601f19603f3d011682016040523d82523d6000602084013e612021565b606091505b5091509150611a77878383876060831561209c578251600003612095576001600160a01b0385163b6120955760405162461bcd60e51b815260206004820152601d60248201527f416464726573733a2063616c6c20746f206e6f6e2d636f6e74726163740000006044820152606401610846565b5081610e40565b610e4083838151156120b15781518083602001fd5b8060405162461bcd60e51b81526004016108469190612453565b60405180606001604052806000801916815260200160006001600160401b0316815260200161210d604051806040016040528060008152602001600081525090565b905290565b600060e0828403121561212457600080fd5b50919050565b60006020828403121561213c57600080fd5b81356001600160401b0381111561215257600080fd5b610e4084828501612112565b60005b83811015612179578181015183820152602001612161565b50506000910152565b6000815180845261219a81602086016020860161215e565b601f01601f19169290920160200192915050565b8351815260208085015190820152600060a08201604060a0604085015281865180845260c08601915060c08160051b8701019350602080890160005b838110156122295788870360bf1901855281518051885283015183880187905261221687890182612182565b97505093820193908201906001016121ea565b50508751606088015250505060208501516080850152509050610e40565b60006060828403121561212457600080fd5b60008083601f84011261226b57600080fd5b5081356001600160401b0381111561228257600080fd5b60208301915083602082850101111561229a57600080fd5b9250929050565b6001600160a01b038116811461139857600080fd5b600080600080600080600060e0888a0312156122d157600080fd5b6122db8989612247565b96506060880135955060808801356001600160401b03808211156122fe57600080fd5b61230a8b838c01612259565b909750955060a08a0135915061231f826122a1565b90935060c0890135908082111561233557600080fd5b506123428a828b01612259565b989b979a50959850939692959293505050565b803563ffffffff8116811461236957600080fd5b919050565b6000806040838503121561238157600080fd5b61238a83612355565b946020939093013593505050565b801515811461139857600080fd5b600080604083850312156123b957600080fd5b82356001600160401b038111156123cf57600080fd5b6123db85828601612112565b92505060208301356123ec81612398565b809150509250929050565b81518152602080830151908201526040810161098f565b803561ffff8116811461236957600080fd5b6000806040838503121561243357600080fd5b61243c83612355565b915061244a6020840161240e565b90509250929050565b6020815260006114486020830184612182565b60006020828403121561247857600080fd5b8135611448816122a1565b60008083601f84011261249557600080fd5b5081356001600160401b038111156124ac57600080fd5b6020830191508360208260051b850101111561229a57600080fd5b600080602083850312156124da57600080fd5b82356001600160401b038111156124f057600080fd5b6124fc85828601612483565b90969095509350505050565b60006020828403121561251a57600080fd5b61144882612355565b6000806000806060858703121561253957600080fd5b61254285612355565b93506125506020860161240e565b925060408501356001600160401b0381111561256b57600080fd5b61257787828801612259565b95989497509550505050565b6000806000838503608081121561259957600080fd5b84356001600160401b038111156125af57600080fd5b6125bb87828801612112565b9450506040601f19820112156125d057600080fd5b5060208401915060608401356125e5816122a1565b809150509250925092565b600060c082019050835182526001600160401b036020850151166020830152604084015161262b604084018280518252602090810151910152565b5082516080830152602083015160a0830152611448565b60006060828403121561265457600080fd5b6114488383612247565b634e487b7160e01b600052604160045260246000fd5b600181811c9082168061268857607f821691505b60208210810361212457634e487b7160e01b600052602260045260246000fd5b634e487b7160e01b600052603260045260246000fd5b60008235605e198336030181126126d457600080fd5b9190910192915050565b6000808335601e198436030181126126f557600080fd5b8301803591506001600160401b0382111561270f57600080fd5b60200191503681900382131561229a57600080fd5b60006020828403121561273657600080fd5b6114488261240e565b601f8211156118cb576000816000526020600020601f850160051c810160208610156127685750805b601f850160051c820191505b8181101561278757828155600101612774565b505050505050565b6001600160401b038311156127a6576127a661265e565b6127ba836127b48354612674565b8361273f565b6000601f8411600181146127ee57600085156127d65750838201355b600019600387901b1c1916600186901b178355611278565b600083815260209020601f19861690835b8281101561281f57868501358255602094850194600190920191016127ff565b508682101561283c5760001960f88860031b161c19848701351681555b505060018560011b0183555050505050565b81835281816020850137506000828201602090810191909152601f909101601f19169091010190565b60208082528181018390526000906040808401600586901b8501820187855b8881101561294d57878303603f190184528135368b9003605e190181126128bc57600080fd5b8a01606063ffffffff6128ce83612355565b16855261ffff6128df89840161240e565b168886015286820135601e198336030181126128fa57600080fd5b9091018781019190356001600160401b0381111561291757600080fd5b80360383131561292657600080fd5b8188870152612938828701828561284e565b96890196955050509186019150600101612896565b509098975050505050505050565b6000808585111561296b57600080fd5b8386111561297857600080fd5b5050820193919092039150565b6000845161299781846020890161215e565b8201838582376000930192835250909392505050565b602081526000610e4060208301848661284e565b6000823561013e198336030181126126d457600080fd5b6001600160401b038116811461139857600080fd5b63ffffffff6129fb89612355565b1681526020880135602082015260006040890135612a18816129d8565b6001600160401b03811660408401525087606083015260e06080830152612a4360e08301878961284e565b6001600160a01b03861660a084015282810360c0840152612a6581858761284e565b9a9950505050505050505050565b604080519081016001600160401b0381118282101715612a9557612a9561265e565b60405290565b600060208284031215612aad57600080fd5b81516001600160401b0380821115612ac457600080fd5b818401915084601f830112612ad857600080fd5b815181811115612aea57612aea61265e565b604051601f8201601f19908116603f01168101908382118183101715612b1257612b1261265e565b81604052828152876020848701011115612b2b57600080fd5b611a7783602083016020880161215e565b600060408284031215612b4e57600080fd5b612b56612a73565b82358152602083013560208201528091505092915050565b600060208284031215612b8057600080fd5b8135611448816129d8565b60018060a01b038516815283602082015261ffff83166040820152608060608201526000612bbc6080830184612182565b9695505050505050565b604081526000612bd96040830185612182565b828103602084015261182e8185612182565b600060208284031215612bfd57600080fd5b815161144881612398565b6040815263ffffffff8351166040820152602083015160608201526000604084015160a06080840152612c3e60e0840182612182565b90506060850151603f198483030160a0850152612c5b8282612182565b60809690960151151560c08501525050506001600160a01b039190911660209091015290565b600060408284031215612c9357600080fd5b612c9b612a73565b9050815181526020820151602082015292915050565b600060408284031215612cc357600080fd5b6114488383612c81565b6001600160f01b03198135818116916002851015612cf55780818660020360031b1b83161692505b505092915050565b6020808252602b908201527f496e697469616c697a61626c653a20636f6e7472616374206973206e6f74206960408201526a6e697469616c697a696e6760a81b606082015260800190565b600060808284031215612d5a57600080fd5b604051606081018181106001600160401b0382111715612d7c57612d7c61265e565b604052825181526020830151612d91816129d8565b6020820152612da38460408501612c81565b60408201529392505050565b600082612dcc57634e487b7160e01b600052601260045260246000fd5b500490565b808202811582820484141761098f57634e487b7160e01b600052601160045260246000fd5b8035602083101561098f57600019602084900360031b1b1692915050565b6001600160c01b03198135818116916008851015612cf55760089490940360031b84901b1690921692915050565b6001600160401b0360c01b8560c01b16815263ffffffff60e01b8460e01b16600882015282600c82015260008251612e8181602c85016020870161215e565b91909101602c0195945050505050565b8481526001600160401b0360c01b8460c01b16602082015282602882015260008251612ec481604885016020870161215e565b9190910160480195945050505050565b600060208284031215612ee657600080fd5b8151611448816122a1565b600082516126d481846020870161215e56fe72ab1bc1039b79dc4724ffca13de82c96834302d3c7e0d4252232d4b2dd8f900a26469706673582212207dd568c5cf1cd4b1b43f0e36faccfeacee19b17479a1b8486ab58f256d1ebafa64736f6c63430008160033000000000000000000000000fc000000000000000000000000000000000000010000000000000000000000001a44076050125825900e736c501f859c50fe728c",
        "nonce": "0x4f",
        "chainId": "0xfc"
      },
      "additionalContracts": [],
      "isFixedGasLimit": false
    },
    {
      "hash": null,
      "transactionType": "CREATE",
      "contractName": "TransparentUpgradeableProxy",
      "contractAddress": "0x3d9ec5191af8447bbcb61ff460944056be350013",
      "function": null,
      "arguments": [
        "0x8f1B9c1fd67136D525E14D96Efb3887a33f16250",
        "0x0990be6dB8c785FBbF9deD8bAEc612A10CaE814b",
        "0x"
      ],
      "transaction": {
        "from": "0x0990be6db8c785fbbf9ded8baec612a10cae814b",
        "gas": "0xb0cd9",
        "value": "0x0",
        "input": "0x608060405260405162000df638038062000df6833981016040819052620000269162000473565b828162000036828260006200009a565b5062000066905060017fb53127684a568b3173ae13b9f8a6016e243e63b6e8ee1178d6a717850b5d610462000553565b60008051602062000daf8339815191521462000086576200008662000575565b6200009182620000cc565b505050620005de565b620000a5836200013e565b600082511180620000b35750805b15620000c757620000c5838362000180565b505b505050565b7f7e644d79422f17c01e4894b5f4f588d331ebfa28653d42ae832dc59e38c9798f6200010e60008051602062000daf833981519152546001600160a01b031690565b604080516001600160a01b03928316815291841660208301520160405180910390a16200013b81620001b1565b50565b62000149816200024f565b6040516001600160a01b038216907fbc7cd75a20ee27fd9adebab32041f755214dbc6bffa90cc0225b39da2e5c2d3b90600090a250565b6060620001a8838360405180606001604052806027815260200162000dcf60279139620002e6565b90505b92915050565b6001600160a01b0381166200021c5760405162461bcd60e51b815260206004820152602660248201527f455243313936373a206e65772061646d696e20697320746865207a65726f206160448201526564647265737360d01b60648201526084015b60405180910390fd5b8060008051602062000daf8339815191525b80546001600160a01b0319166001600160a01b039290921691909117905550565b6001600160a01b0381163b620002be5760405162461bcd60e51b815260206004820152602d60248201527f455243313936373a206e657720696d706c656d656e746174696f6e206973206e60448201526c1bdd08184818dbdb9d1c9858dd609a1b606482015260840162000213565b807f360894a13ba1a3210667c828492db98dca3e2076cc3735a920a3ca505d382bbc6200022e565b6060600080856001600160a01b0316856040516200030591906200058b565b600060405180830381855af49150503d806000811462000342576040519150601f19603f3d011682016040523d82523d6000602084013e62000347565b606091505b5090925090506200035b8683838762000365565b9695505050505050565b60608315620003d9578251600003620003d1576001600160a01b0385163b620003d15760405162461bcd60e51b815260206004820152601d60248201527f416464726573733a2063616c6c20746f206e6f6e2d636f6e7472616374000000604482015260640162000213565b5081620003e5565b620003e58383620003ed565b949350505050565b815115620003fe5781518083602001fd5b8060405162461bcd60e51b8152600401620002139190620005a9565b80516001600160a01b03811681146200043257600080fd5b919050565b634e487b7160e01b600052604160045260246000fd5b60005b838110156200046a57818101518382015260200162000450565b50506000910152565b6000806000606084860312156200048957600080fd5b62000494846200041a565b9250620004a4602085016200041a565b60408501519092506001600160401b0380821115620004c257600080fd5b818601915086601f830112620004d757600080fd5b815181811115620004ec57620004ec62000437565b604051601f8201601f19908116603f0116810190838211818310171562000517576200051762000437565b816040528281528960208487010111156200053157600080fd5b620005448360208301602088016200044d565b80955050505050509250925092565b81810381811115620001ab57634e487b7160e01b600052601160045260246000fd5b634e487b7160e01b600052600160045260246000fd5b600082516200059f8184602087016200044d565b9190910192915050565b6020815260008251806020840152620005ca8160408501602087016200044d565b601f01601f19169190910160400192915050565b6107c180620005ee6000396000f3fe60806040526004361061004e5760003560e01c80633659cfe6146100655780634f1ef286146100855780635c60da1b146100985780638f283970146100c9578063f851a440146100e95761005d565b3661005d5761005b6100fe565b005b61005b6100fe565b34801561007157600080fd5b5061005b610080366004610653565b610118565b61005b61009336600461066e565b610155565b3480156100a457600080fd5b506100ad6101bc565b6040516001600160a01b03909116815260200160405180910390f35b3480156100d557600080fd5b5061005b6100e4366004610653565b6101ed565b3480156100f557600080fd5b506100ad61020d565b61010661022e565b61011661011161025e565b610268565b565b61012061028c565b6001600160a01b0316330361014d5761014a816040518060200160405280600081525060006102bf565b50565b61014a6100fe565b61015d61028c565b6001600160a01b031633036101b4576101af8383838080601f016020809104026020016040519081016040528093929190818152602001838380828437600092019190915250600192506102bf915050565b505050565b6101af6100fe565b60006101c661028c565b6001600160a01b031633036101e2576101dd61025e565b905090565b6101ea6100fe565b90565b6101f561028c565b6001600160a01b0316330361014d5761014a816102ea565b600061021761028c565b6001600160a01b031633036101e2576101dd61028c565b61023661028c565b6001600160a01b031633036101165760405163786a591f60e11b815260040160405180910390fd5b60006101dd61033e565b3660008037600080366000845af43d6000803e808015610287573d6000f35b3d6000fd5b60007fb53127684a568b3173ae13b9f8a6016e243e63b6e8ee1178d6a717850b5d61035b546001600160a01b0316919050565b6102c883610366565b6000825111806102d55750805b156101af576102e483836103a6565b50505050565b7f7e644d79422f17c01e4894b5f4f588d331ebfa28653d42ae832dc59e38c9798f61031361028c565b604080516001600160a01b03928316815291841660208301520160405180910390a161014a816103d2565b60007f360894a13ba1a3210667c828492db98dca3e2076cc3735a920a3ca505d382bbc6102b0565b61036f81610480565b6040516001600160a01b038216907fbc7cd75a20ee27fd9adebab32041f755214dbc6bffa90cc0225b39da2e5c2d3b90600090a250565b60606103cb838360405180606001604052806027815260200161076560279139610514565b9392505050565b6001600160a01b03811661043c5760405162461bcd60e51b815260206004820152602660248201527f455243313936373a206e65772061646d696e20697320746865207a65726f206160448201526564647265737360d01b60648201526084015b60405180910390fd5b807fb53127684a568b3173ae13b9f8a6016e243e63b6e8ee1178d6a717850b5d61035b80546001600160a01b0319166001600160a01b039290921691909117905550565b6001600160a01b0381163b6104ed5760405162461bcd60e51b815260206004820152602d60248201527f455243313936373a206e657720696d706c656d656e746174696f6e206973206e60448201526c1bdd08184818dbdb9d1c9858dd609a1b6064820152608401610433565b807f360894a13ba1a3210667c828492db98dca3e2076cc3735a920a3ca505d382bbc61045f565b6060600080856001600160a01b0316856040516105319190610715565b600060405180830381855af49150503d806000811461056c576040519150601f19603f3d011682016040523d82523d6000602084013e610571565b606091505b50915091506105828683838761058c565b9695505050505050565b606083156105fb5782516000036105f4576001600160a01b0385163b6105f45760405162461bcd60e51b815260206004820152601d60248201527f416464726573733a2063616c6c20746f206e6f6e2d636f6e74726163740000006044820152606401610433565b5081610605565b610605838361060d565b949350505050565b81511561061d5781518083602001fd5b8060405162461bcd60e51b81526004016104339190610731565b80356001600160a01b038116811461064e57600080fd5b919050565b60006020828403121561066557600080fd5b6103cb82610637565b60008060006040848603121561068357600080fd5b61068c84610637565b9250602084013567ffffffffffffffff808211156106a957600080fd5b818601915086601f8301126106bd57600080fd5b8135818111156106cc57600080fd5b8760208285010111156106de57600080fd5b6020830194508093505050509250925092565b60005b8381101561070c5781810151838201526020016106f4565b50506000910152565b600082516107278184602087016106f1565b9190910192915050565b60208152600082518060208401526107508160408501602087016106f1565b601f01601f1916919091016040019291505056fe416464726573733a206c6f772d6c6576656c2064656c65676174652063616c6c206661696c6564a2646970667358221220c9758782effd34c50684c9008a4ffd4b3fbcecbd39c17a55f1248566c174078b64736f6c63430008160033b53127684a568b3173ae13b9f8a6016e243e63b6e8ee1178d6a717850b5d6103416464726573733a206c6f772d6c6576656c2064656c65676174652063616c6c206661696c65640000000000000000000000008f1b9c1fd67136d525e14d96efb3887a33f162500000000000000000000000000990be6db8c785fbbf9ded8baec612a10cae814b00000000000000000000000000000000000000000000000000000000000000600000000000000000000000000000000000000000000000000000000000000000",
        "nonce": "0x50",
        "chainId": "0xfc"
      },
      "additionalContracts": [],
      "isFixedGasLimit": false
    },
    {
      "hash": null,
      "transactionType": "CALL",
      "contractName": "TransparentUpgradeableProxy",
      "contractAddress": "0x3d9ec5191af8447bbcb61ff460944056be350013",
      "function": "upgradeToAndCall(address,bytes)",
      "arguments": [
        "0x36076294472DaF59391a7dDbEDeBf4b681D823c7",
        "0xc4d66de80000000000000000000000000990be6db8c785fbbf9ded8baec612a10cae814b"
      ],
      "transaction": {
        "from": "0x0990be6db8c785fbbf9ded8baec612a10cae814b",
        "to": "0x3d9ec5191af8447bbcb61ff460944056be350013",
        "gas": "0x28355",
        "value": "0x0",
        "input": "0x4f1ef28600000000000000000000000036076294472daf59391a7ddbedebf4b681d823c700000000000000000000000000000000000000000000000000000000000000400000000000000000000000000000000000000000000000000000000000000024c4d66de80000000000000000000000000990be6db8c785fbbf9ded8baec612a10cae814b00000000000000000000000000000000000000000000000000000000",
        "nonce": "0x51",
        "chainId": "0xfc"
      },
      "additionalContracts": [],
      "isFixedGasLimit": false
    },
    {
      "hash": null,
      "transactionType": "CALL",
      "contractName": "TransparentUpgradeableProxy",
      "contractAddress": "0x3d9ec5191af8447bbcb61ff460944056be350013",
      "function": "changeAdmin(address)",
      "arguments": [
        "0x223a681fc5c5522c85C96157c0efA18cd6c5405c"
      ],
      "transaction": {
        "from": "0x0990be6db8c785fbbf9ded8baec612a10cae814b",
        "to": "0x3d9ec5191af8447bbcb61ff460944056be350013",
        "gas": "0xa3ad",
        "value": "0x0",
        "input": "0x8f283970000000000000000000000000223a681fc5c5522c85c96157c0efa18cd6c5405c",
        "nonce": "0x52",
        "chainId": "0xfc"
      },
      "additionalContracts": [],
      "isFixedGasLimit": false
    },
    {
      "hash": null,
      "transactionType": "CREATE",
      "contractName": "FraxOFTAdapterUpgradeable",
      "contractAddress": "0xa140ac7d8eda834933bbb94a575ec7037386079d",
      "function": null,
      "arguments": [
        "0xfc00000000000000000000000000000000000008",
        "0x1a44076050125825900e736c501f859c50fE728c"
      ],
      "transaction": {
        "from": "0x0990be6db8c785fbbf9ded8baec612a10cae814b",
        "gas": "0x35318b",
        "value": "0x0",
        "input": "0x60e06040523480156200001157600080fd5b50604051620032a8380380620032a8833981016040819052620000349162000121565b8181816001600160a01b031663313ce5676040518163ffffffff1660e01b8152600401602060405180830381865afa15801562000075573d6000803e3d6000fd5b505050506040513d601f19601f820116820180604052508101906200009b919062000159565b6001600160a01b03821660805281600660ff83161015620000cf576040516301e9714b60e41b815260040160405180910390fd5b620000dc6006836200019b565b620000e990600a620002ba565b60a0525050506001600160a01b031660c05250620002cb9050565b80516001600160a01b03811681146200011c57600080fd5b919050565b600080604083850312156200013557600080fd5b620001408362000104565b9150620001506020840162000104565b90509250929050565b6000602082840312156200016c57600080fd5b815160ff811681146200017e57600080fd5b9392505050565b634e487b7160e01b600052601160045260246000fd5b60ff8281168282160390811115620001b757620001b762000185565b92915050565b600181815b80851115620001fe578160001904821115620001e257620001e262000185565b80851615620001f057918102915b93841c9390800290620001c2565b509250929050565b6000826200021757506001620001b7565b816200022657506000620001b7565b81600181146200023f57600281146200024a576200026a565b6001915050620001b7565b60ff8411156200025e576200025e62000185565b50506001821b620001b7565b5060208310610133831016604e8410600b84101617156200028f575081810a620001b7565b6200029b8383620001bd565b8060001904821115620002b257620002b262000185565b029392505050565b60006200017e60ff84168362000206565b60805160a05160c051612f596200034f600039600081816106b50152818161194f0152611b3801526000818161050601528181611a8601528181611afb0152611beb0152600081816104280152818161080101528181611220015281816114e40152818161176c015281816119aa01528181611d870152611e400152612f596000f3fe6080604052600436106102045760003560e01c8063857749b011610118578063bd815db0116100a0578063d045a0dc1161006f578063d045a0dc14610653578063d424388514610666578063f2fde38b14610686578063fc0c546a146106a6578063ff7bd03d146106d957600080fd5b8063bd815db0146105df578063c4d66de8146105f2578063c7c7f5b314610612578063ca5eb5e11461063357600080fd5b8063b731ea0a116100e7578063b731ea0a1461054a578063b92d0eff14610355578063b98bd0701461055f578063bb0b6a531461057f578063bc70b354146105bf57600080fd5b8063857749b0146104ba5780638da5cb5b146104d6578063963efcaa146104f45780639f68b9641461053657600080fd5b80633b6f743b1161019b5780635a0dfe4d1161016a5780635a0dfe4d146103c25780635e280f11146104165780636fc1b31e1461044a578063715018a61461046a5780637d25a05e1461047f57600080fd5b80633b6f743b1461032857806352ae28791461035557806354fd4d50146103685780635535d4611461039557600080fd5b8063156a0d0f116101d7578063156a0d0f146102ab57806317442b70146102d25780631f5e1334146102f35780633400288b1461030857600080fd5b80630d35b41514610209578063111ecdad1461024157806313137d651461026e578063134d4f2514610283575b600080fd5b34801561021557600080fd5b5061022961022436600461212a565b6106f9565b604051610238939291906121ae565b60405180910390f35b34801561024d57600080fd5b506102566107ca565b6040516001600160a01b039091168152602001610238565b61028161027c3660046122b6565b6107ff565b005b34801561028f57600080fd5b50610298600281565b60405161ffff9091168152602001610238565b3480156102b757600080fd5b506040805162b9270b60e21b81526001602082015201610238565b3480156102de57600080fd5b50604080516001808252602082015201610238565b3480156102ff57600080fd5b50610298600181565b34801561031457600080fd5b5061028161032336600461236e565b6108bf565b34801561033457600080fd5b506103486103433660046123a6565b61092c565b60405161023891906123f7565b34801561036157600080fd5b5030610256565b34801561037457600080fd5b50600160008060408051938452602084019290925290820152606001610238565b3480156103a157600080fd5b506103b56103b0366004612420565b610995565b6040516102389190612453565b3480156103ce57600080fd5b506104066103dd36600461236e565b63ffffffff919091166000908152600080516020612f0483398151915260205260409020541490565b6040519015158152602001610238565b34801561042257600080fd5b506102567f000000000000000000000000000000000000000000000000000000000000000081565b34801561045657600080fd5b50610281610465366004612466565b610a70565b34801561047657600080fd5b50610281610aec565b34801561048b57600080fd5b506104a261049a36600461236e565b600092915050565b6040516001600160401b039091168152602001610238565b3480156104c657600080fd5b5060405160068152602001610238565b3480156104e257600080fd5b506033546001600160a01b0316610256565b34801561050057600080fd5b506105287f000000000000000000000000000000000000000000000000000000000000000081565b604051908152602001610238565b34801561054257600080fd5b506001610406565b34801561055657600080fd5b50610256610b00565b34801561056b57600080fd5b5061028161057a3660046124c7565b610b29565b34801561058b57600080fd5b5061052861059a366004612508565b63ffffffff166000908152600080516020612f04833981519152602052604090205490565b3480156105cb57600080fd5b506103b56105da366004612523565b610caa565b6102816105ed3660046124c7565b610e48565b3480156105fe57600080fd5b5061028161060d366004612466565b610fdf565b610625610620366004612583565b6110ff565b6040516102389291906125f0565b34801561063f57600080fd5b5061028161064e366004612466565b6111f9565b6102816106613660046122b6565b61127f565b34801561067257600080fd5b50610281610681366004612466565b6112ae565b34801561069257600080fd5b506102816106a1366004612466565b611322565b3480156106b257600080fd5b507f0000000000000000000000000000000000000000000000000000000000000000610256565b3480156106e557600080fd5b506104066106f4366004612642565b61139b565b6040805180820190915260008082526020820152606061072c604051806040016040528060008152602001600081525090565b60408051808201825260008082526001600160401b03602080840182905284518381529081019094529195509182610787565b60408051808201909152600081526060602082015281526020019060019003908161075f5790505b5093506000806107ac604089013560608a01356107a760208c018c612508565b6113b9565b60408051808201909152918252602082015296989597505050505050565b6000807f41db8a78b0206aba5c54bcbfc2bda0d84082a84eb88e680379a57b9e9f653c005b546001600160a01b031692915050565b7f00000000000000000000000000000000000000000000000000000000000000006001600160a01b0316331461084f576040516391ac5e4f60e01b81523360048201526024015b60405180910390fd5b6020870180359061086990610864908a612508565b6113fd565b146108a75761087b6020880188612508565b60405163309afaf360e21b815263ffffffff909116600482015260208801356024820152604401610846565b6108b68787878787878761144f565b50505050505050565b6108c76115b6565b63ffffffff82166000818152600080516020612f04833981519152602081815260409283902085905582519384528301849052917f238399d427b947898edb290f5ff0f9109849b1c3ba196a42e35f00c50a54b98b91015b60405180910390a1505050565b6040805180820190915260008082526020820152600061095c604085013560608601356107a76020880188612508565b91505060008061096c8684611610565b90925090506109896109816020880188612508565b838388611756565b93505050505b92915050565b63ffffffff821660009081527f8d2bda5d9f6ffb5796910376005392955773acee5548d0fcdb10e7c264ea00006020818152604080842061ffff86168552909152909120805460609291906109e990612674565b80601f0160208091040260200160405190810160405280929190818152602001828054610a1590612674565b8015610a625780601f10610a3757610100808354040283529160200191610a62565b820191906000526020600020905b815481529060010190602001808311610a4557829003601f168201915b505050505091505092915050565b610a786115b6565b7f41db8a78b0206aba5c54bcbfc2bda0d84082a84eb88e680379a57b9e9f653c0080546001600160a01b0319166001600160a01b03831690811782556040519081527ff0be4f1e87349231d80c36b33f9e8639658eeaf474014dee15a3e6a4d4414197906020015b60405180910390a15050565b610af46115b6565b610afe6000611837565b565b6000807fefb041d771d6daaa55702fff6eb740d63ba559a75d2d1d3e151c78ff2480b6006107ef565b610b316115b6565b7f8d2bda5d9f6ffb5796910376005392955773acee5548d0fcdb10e7c264ea000060005b82811015610c7857610b97848483818110610b7257610b726126a8565b9050602002810190610b8491906126be565b610b929060408101906126de565b611889565b838382818110610ba957610ba96126a8565b9050602002810190610bbb91906126be565b610bc99060408101906126de565b836000878786818110610bde57610bde6126a8565b9050602002810190610bf091906126be565b610bfe906020810190612508565b63ffffffff1663ffffffff1681526020019081526020016000206000878786818110610c2c57610c2c6126a8565b9050602002810190610c3e91906126be565b610c4f906040810190602001612724565b61ffff168152602081019190915260400160002091610c6f91908361278f565b50600101610b55565b507fbe4864a8e820971c0247f5992e2da559595f7bf076a21cb5928d443d2a13b674838360405161091f929190612877565b63ffffffff841660009081527f8d2bda5d9f6ffb5796910376005392955773acee5548d0fcdb10e7c264ea00006020818152604080842061ffff88168552909152822080546060939190610cfd90612674565b80601f0160208091040260200160405190810160405280929190818152602001828054610d2990612674565b8015610d765780601f10610d4b57610100808354040283529160200191610d76565b820191906000526020600020905b815481529060010190602001808311610d5957829003601f168201915b505050505090508051600003610dc75784848080601f016020809104026020016040519081016040528093929190818152602001838380828437600092019190915250929550610e40945050505050565b6000849003610dd9579150610e409050565b60028410610e2357610deb8585611889565b80610df9856002818961295b565b604051602001610e0b93929190612985565b60405160208183030381529060405292505050610e40565b8484604051639a6d49cd60e01b81526004016108469291906129ad565b949350505050565b60005b81811015610f5e5736838383818110610e6657610e666126a8565b9050602002810190610e7891906129c1565b9050610eb8610e8a6020830183612508565b602083013563ffffffff919091166000908152600080516020612f0483398151915260205260409020541490565b610ec25750610f56565b3063d045a0dc60c08301358360a0810135610ee16101008301836126de565b610ef2610100890160e08a01612466565b610f006101208a018a6126de565b6040518963ffffffff1660e01b8152600401610f2297969594939291906129ed565b6000604051808303818588803b158015610f3b57600080fd5b505af1158015610f4f573d6000803e3d6000fd5b5050505050505b600101610e4b565b50336001600160a01b0316638e9e70996040518163ffffffff1660e01b8152600401600060405180830381865afa158015610f9d573d6000803e3d6000fd5b505050506040513d6000823e601f3d908101601f19168201604052610fc59190810190612a9b565b604051638351eea760e01b81526004016108469190612453565b600054610100900460ff1615808015610fff5750600054600160ff909116105b806110195750303b158015611019575060005460ff166001145b61107c5760405162461bcd60e51b815260206004820152602e60248201527f496e697469616c697a61626c653a20636f6e747261637420697320616c72656160448201526d191e481a5b9a5d1a585b1a5e995960921b6064820152608401610846565b6000805460ff19166001179055801561109f576000805461ff0019166101001790555b6110a8826118d0565b6110b0611900565b6110b982611837565b80156110fb576000805461ff0019169055604051600181527f7f26b83ff96e1f2b6a682f133852f6798a09c465da95921460cefb384740249890602001610ae0565b5050565b6111076120cb565b604080518082019091526000808252602082015260008061113d6040880135606089013561113860208b018b612508565b61192f565b9150915060008061114e8984611610565b909250905061117a61116360208b018b612508565b8383611174368d90038d018d612b3c565b8b611977565b60408051808201909152858152602080820186905282519298509096503391907f85496b760a4b7f8d66384b9df21b381f5d1b1e79f229a47aaf4c232edc2fe59a906111c8908d018d612508565b6040805163ffffffff909216825260208201899052810187905260600160405180910390a350505050935093915050565b6112016115b6565b60405163ca5eb5e160e01b81526001600160a01b0382811660048301527f0000000000000000000000000000000000000000000000000000000000000000169063ca5eb5e190602401600060405180830381600087803b15801561126457600080fd5b505af1158015611278573d6000803e3d6000fd5b5050505050565b33301461129f5760405163029a949d60e31b815260040160405180910390fd5b6108b6878787878787876108a7565b6112b66115b6565b7fefb041d771d6daaa55702fff6eb740d63ba559a75d2d1d3e151c78ff2480b60080546001600160a01b0319166001600160a01b03831690811782556040519081527fd48d879cef83a1c0bdda516f27b13ddb1b3f8bbac1c9e1511bb2a659c242776090602001610ae0565b61132a6115b6565b6001600160a01b03811661138f5760405162461bcd60e51b815260206004820152602660248201527f4f776e61626c653a206e6577206f776e657220697320746865207a65726f206160448201526564647265737360d01b6064820152608401610846565b61139881611837565b50565b6000602082018035906113b29061059a9085612508565b1492915050565b6000806113c585611a82565b9150819050838110156113f5576040516371c4efed60e01b81526004810182905260248101859052604401610846565b935093915050565b63ffffffff81166000908152600080516020612f0483398151915260208190526040822054806114485760405163f6ff4fb760e01b815263ffffffff85166004820152602401610846565b9392505050565b600061146161145e8787611ab9565b90565b9050600061148d8261147b6114768a8a611ad1565b611af4565b61148860208d018d612508565b611b29565b905060288611156115545760006114ca6114ad60608c0160408d01612b6e565b6114ba60208d018d612508565b846114c58c8c611b67565b611bb2565b604051633e5ac80960e11b81529091506001600160a01b037f00000000000000000000000000000000000000000000000000000000000000001690637cb59012906115209086908d906000908790600401612b8b565b600060405180830381600087803b15801561153a57600080fd5b505af115801561154e573d6000803e3d6000fd5b50505050505b6001600160a01b038216887fefed6d3500546b29533b128a29e3a94d70788727f0507505ac12eaf2e578fd9c61158d60208d018d612508565b6040805163ffffffff9092168252602082018690520160405180910390a3505050505050505050565b6033546001600160a01b03163314610afe5760405162461bcd60e51b815260206004820181905260248201527f4f776e61626c653a2063616c6c6572206973206e6f7420746865206f776e65726044820152606401610846565b606080600061166d856020013561162686611be4565b61163360a08901896126de565b8080601f016020809104026020016040519081016040528093929190818152602001838380828437600092019190915250611c1092505050565b9093509050600081611680576001611683565b60025b90506116a36116956020880188612508565b826105da60808a018a6126de565b7f41db8a78b0206aba5c54bcbfc2bda0d84082a84eb88e680379a57b9e9f653c008054919450906001600160a01b03161561174c57805460405163043a78eb60e01b81526001600160a01b039091169063043a78eb906117099088908890600401612bc6565b602060405180830381865afa158015611726573d6000803e3d6000fd5b505050506040513d601f19601f8201168201806040525081019061174a9190612beb565b505b5050509250929050565b60408051808201909152600080825260208201527f00000000000000000000000000000000000000000000000000000000000000006001600160a01b031663ddc28c586040518060a001604052808863ffffffff1681526020016117b9896113fd565b8152602001878152602001868152602001851515815250306040518363ffffffff1660e01b81526004016117ee929190612c08565b6040805180830381865afa15801561180a573d6000803e3d6000fd5b505050506040513d601f19601f8201168201806040525081019061182e9190612cb1565b95945050505050565b603380546001600160a01b038381166001600160a01b0319831681179093556040519116919082907f8be0079c531659141344cd1fd0a4f28419497f9722a3daafe3b4186f6b6457e090600090a35050565b6000611898600282848661295b565b6118a191612ccd565b60f01c9050600381146118cb578282604051639a6d49cd60e01b81526004016108469291906129ad565b505050565b600054610100900460ff166118f75760405162461bcd60e51b815260040161084690612cfd565b61139881611c8a565b600054610100900460ff166119275760405162461bcd60e51b815260040161084690612cfd565b610afe611cba565b60008061193d8585856113b9565b90925090506113f56001600160a01b037f000000000000000000000000000000000000000000000000000000000000000016333085611cea565b61197f6120cb565b600061198e8460000151611d5b565b6020850151909150156119a8576119a88460200151611d83565b7f00000000000000000000000000000000000000000000000000000000000000006001600160a01b0316632637a450826040518060a001604052808b63ffffffff1681526020016119f88c6113fd565b81526020018a815260200189815260200160008960200151111515815250866040518463ffffffff1660e01b8152600401611a34929190612c08565b60806040518083038185885af1158015611a52573d6000803e3d6000fd5b50505050506040513d601f19601f82011682018060405250810190611a779190612d48565b979650505050505050565b60007f0000000000000000000000000000000000000000000000000000000000000000611aaf8184612daf565b61098f9190612dd1565b6000611ac8602082848661295b565b61144891612df6565b6000611ae160286020848661295b565b611aea91612e14565b60c01c9392505050565b600061098f7f00000000000000000000000000000000000000000000000000000000000000006001600160401b038416612dd1565b6000611b5f6001600160a01b037f0000000000000000000000000000000000000000000000000000000000000000168585611e65565b509092915050565b6060611b76826028818661295b565b8080601f016020809104026020016040519081016040528093929190818152602001838380828437600092019190915250929695505050505050565b606084848484604051602001611bcb9493929190612e42565b6040516020818303038152906040529050949350505050565b600061098f7f000000000000000000000000000000000000000000000000000000000000000083612daf565b8051606090151580611c59578484604051602001611c4592919091825260c01b6001600160c01b031916602082015260280190565b604051602081830303815290604052611c80565b84843385604051602001611c709493929190612e91565b6040516020818303038152906040525b9150935093915050565b600054610100900460ff16611cb15760405162461bcd60e51b815260040161084690612cfd565b61139881611e95565b600054610100900460ff16611ce15760405162461bcd60e51b815260040161084690612cfd565b610afe33611837565b6040516001600160a01b0380851660248301528316604482015260648101829052611d559085906323b872dd60e01b906084015b60408051601f198184030181529190526020810180516001600160e01b03166001600160e01b031990931692909217909152611ee3565b50505050565b6000813414611d7f576040516304fb820960e51b8152346004820152602401610846565b5090565b60007f00000000000000000000000000000000000000000000000000000000000000006001600160a01b031663e4fe1d946040518163ffffffff1660e01b8152600401602060405180830381865afa158015611de3573d6000803e3d6000fd5b505050506040513d601f19601f82011682018060405250810190611e079190612ed4565b90506001600160a01b038116611e30576040516329b99a9560e11b815260040160405180910390fd5b6110fb6001600160a01b038216337f000000000000000000000000000000000000000000000000000000000000000085611cea565b6040516001600160a01b0383166024820152604481018290526118cb90849063a9059cbb60e01b90606401611d1e565b600054610100900460ff16611ebc5760405162461bcd60e51b815260040161084690612cfd565b6001600160a01b03811661120157604051632d618d8160e21b815260040160405180910390fd5b6000611f38826040518060400160405280602081526020017f5361666545524332303a206c6f772d6c6576656c2063616c6c206661696c6564815250856001600160a01b0316611fb89092919063ffffffff16565b9050805160001480611f59575080806020019051810190611f599190612beb565b6118cb5760405162461bcd60e51b815260206004820152602a60248201527f5361666545524332303a204552433230206f7065726174696f6e20646964206e6044820152691bdd081cdd58d8d9595960b21b6064820152608401610846565b6060610e40848460008585600080866001600160a01b03168587604051611fdf9190612ef1565b60006040518083038185875af1925050503d806000811461201c576040519150601f19603f3d011682016040523d82523d6000602084013e612021565b606091505b5091509150611a77878383876060831561209c578251600003612095576001600160a01b0385163b6120955760405162461bcd60e51b815260206004820152601d60248201527f416464726573733a2063616c6c20746f206e6f6e2d636f6e74726163740000006044820152606401610846565b5081610e40565b610e4083838151156120b15781518083602001fd5b8060405162461bcd60e51b81526004016108469190612453565b60405180606001604052806000801916815260200160006001600160401b0316815260200161210d604051806040016040528060008152602001600081525090565b905290565b600060e0828403121561212457600080fd5b50919050565b60006020828403121561213c57600080fd5b81356001600160401b0381111561215257600080fd5b610e4084828501612112565b60005b83811015612179578181015183820152602001612161565b50506000910152565b6000815180845261219a81602086016020860161215e565b601f01601f19169290920160200192915050565b8351815260208085015190820152600060a08201604060a0604085015281865180845260c08601915060c08160051b8701019350602080890160005b838110156122295788870360bf1901855281518051885283015183880187905261221687890182612182565b97505093820193908201906001016121ea565b50508751606088015250505060208501516080850152509050610e40565b60006060828403121561212457600080fd5b60008083601f84011261226b57600080fd5b5081356001600160401b0381111561228257600080fd5b60208301915083602082850101111561229a57600080fd5b9250929050565b6001600160a01b038116811461139857600080fd5b600080600080600080600060e0888a0312156122d157600080fd5b6122db8989612247565b96506060880135955060808801356001600160401b03808211156122fe57600080fd5b61230a8b838c01612259565b909750955060a08a0135915061231f826122a1565b90935060c0890135908082111561233557600080fd5b506123428a828b01612259565b989b979a50959850939692959293505050565b803563ffffffff8116811461236957600080fd5b919050565b6000806040838503121561238157600080fd5b61238a83612355565b946020939093013593505050565b801515811461139857600080fd5b600080604083850312156123b957600080fd5b82356001600160401b038111156123cf57600080fd5b6123db85828601612112565b92505060208301356123ec81612398565b809150509250929050565b81518152602080830151908201526040810161098f565b803561ffff8116811461236957600080fd5b6000806040838503121561243357600080fd5b61243c83612355565b915061244a6020840161240e565b90509250929050565b6020815260006114486020830184612182565b60006020828403121561247857600080fd5b8135611448816122a1565b60008083601f84011261249557600080fd5b5081356001600160401b038111156124ac57600080fd5b6020830191508360208260051b850101111561229a57600080fd5b600080602083850312156124da57600080fd5b82356001600160401b038111156124f057600080fd5b6124fc85828601612483565b90969095509350505050565b60006020828403121561251a57600080fd5b61144882612355565b6000806000806060858703121561253957600080fd5b61254285612355565b93506125506020860161240e565b925060408501356001600160401b0381111561256b57600080fd5b61257787828801612259565b95989497509550505050565b6000806000838503608081121561259957600080fd5b84356001600160401b038111156125af57600080fd5b6125bb87828801612112565b9450506040601f19820112156125d057600080fd5b5060208401915060608401356125e5816122a1565b809150509250925092565b600060c082019050835182526001600160401b036020850151166020830152604084015161262b604084018280518252602090810151910152565b5082516080830152602083015160a0830152611448565b60006060828403121561265457600080fd5b6114488383612247565b634e487b7160e01b600052604160045260246000fd5b600181811c9082168061268857607f821691505b60208210810361212457634e487b7160e01b600052602260045260246000fd5b634e487b7160e01b600052603260045260246000fd5b60008235605e198336030181126126d457600080fd5b9190910192915050565b6000808335601e198436030181126126f557600080fd5b8301803591506001600160401b0382111561270f57600080fd5b60200191503681900382131561229a57600080fd5b60006020828403121561273657600080fd5b6114488261240e565b601f8211156118cb576000816000526020600020601f850160051c810160208610156127685750805b601f850160051c820191505b8181101561278757828155600101612774565b505050505050565b6001600160401b038311156127a6576127a661265e565b6127ba836127b48354612674565b8361273f565b6000601f8411600181146127ee57600085156127d65750838201355b600019600387901b1c1916600186901b178355611278565b600083815260209020601f19861690835b8281101561281f57868501358255602094850194600190920191016127ff565b508682101561283c5760001960f88860031b161c19848701351681555b505060018560011b0183555050505050565b81835281816020850137506000828201602090810191909152601f909101601f19169091010190565b60208082528181018390526000906040808401600586901b8501820187855b8881101561294d57878303603f190184528135368b9003605e190181126128bc57600080fd5b8a01606063ffffffff6128ce83612355565b16855261ffff6128df89840161240e565b168886015286820135601e198336030181126128fa57600080fd5b9091018781019190356001600160401b0381111561291757600080fd5b80360383131561292657600080fd5b8188870152612938828701828561284e565b96890196955050509186019150600101612896565b509098975050505050505050565b6000808585111561296b57600080fd5b8386111561297857600080fd5b5050820193919092039150565b6000845161299781846020890161215e565b8201838582376000930192835250909392505050565b602081526000610e4060208301848661284e565b6000823561013e198336030181126126d457600080fd5b6001600160401b038116811461139857600080fd5b63ffffffff6129fb89612355565b1681526020880135602082015260006040890135612a18816129d8565b6001600160401b03811660408401525087606083015260e06080830152612a4360e08301878961284e565b6001600160a01b03861660a084015282810360c0840152612a6581858761284e565b9a9950505050505050505050565b604080519081016001600160401b0381118282101715612a9557612a9561265e565b60405290565b600060208284031215612aad57600080fd5b81516001600160401b0380821115612ac457600080fd5b818401915084601f830112612ad857600080fd5b815181811115612aea57612aea61265e565b604051601f8201601f19908116603f01168101908382118183101715612b1257612b1261265e565b81604052828152876020848701011115612b2b57600080fd5b611a7783602083016020880161215e565b600060408284031215612b4e57600080fd5b612b56612a73565b82358152602083013560208201528091505092915050565b600060208284031215612b8057600080fd5b8135611448816129d8565b60018060a01b038516815283602082015261ffff83166040820152608060608201526000612bbc6080830184612182565b9695505050505050565b604081526000612bd96040830185612182565b828103602084015261182e8185612182565b600060208284031215612bfd57600080fd5b815161144881612398565b6040815263ffffffff8351166040820152602083015160608201526000604084015160a06080840152612c3e60e0840182612182565b90506060850151603f198483030160a0850152612c5b8282612182565b60809690960151151560c08501525050506001600160a01b039190911660209091015290565b600060408284031215612c9357600080fd5b612c9b612a73565b9050815181526020820151602082015292915050565b600060408284031215612cc357600080fd5b6114488383612c81565b6001600160f01b03198135818116916002851015612cf55780818660020360031b1b83161692505b505092915050565b6020808252602b908201527f496e697469616c697a61626c653a20636f6e7472616374206973206e6f74206960408201526a6e697469616c697a696e6760a81b606082015260800190565b600060808284031215612d5a57600080fd5b604051606081018181106001600160401b0382111715612d7c57612d7c61265e565b604052825181526020830151612d91816129d8565b6020820152612da38460408501612c81565b60408201529392505050565b600082612dcc57634e487b7160e01b600052601260045260246000fd5b500490565b808202811582820484141761098f57634e487b7160e01b600052601160045260246000fd5b8035602083101561098f57600019602084900360031b1b1692915050565b6001600160c01b03198135818116916008851015612cf55760089490940360031b84901b1690921692915050565b6001600160401b0360c01b8560c01b16815263ffffffff60e01b8460e01b16600882015282600c82015260008251612e8181602c85016020870161215e565b91909101602c0195945050505050565b8481526001600160401b0360c01b8460c01b16602082015282602882015260008251612ec481604885016020870161215e565b9190910160480195945050505050565b600060208284031215612ee657600080fd5b8151611448816122a1565b600082516126d481846020870161215e56fe72ab1bc1039b79dc4724ffca13de82c96834302d3c7e0d4252232d4b2dd8f900a26469706673582212207dd568c5cf1cd4b1b43f0e36faccfeacee19b17479a1b8486ab58f256d1ebafa64736f6c63430008160033000000000000000000000000fc000000000000000000000000000000000000080000000000000000000000001a44076050125825900e736c501f859c50fe728c",
        "nonce": "0x53",
        "chainId": "0xfc"
      },
      "additionalContracts": [],
      "isFixedGasLimit": false
    },
    {
      "hash": null,
      "transactionType": "CREATE",
      "contractName": "TransparentUpgradeableProxy",
      "contractAddress": "0x24d544c796f2b8f2e2514b312c6202b88f049673",
      "function": null,
      "arguments": [
        "0x8f1B9c1fd67136D525E14D96Efb3887a33f16250",
        "0x0990be6dB8c785FBbF9deD8bAEc612A10CaE814b",
        "0x"
      ],
      "transaction": {
        "from": "0x0990be6db8c785fbbf9ded8baec612a10cae814b",
        "gas": "0xb0cd9",
        "value": "0x0",
        "input": "0x608060405260405162000df638038062000df6833981016040819052620000269162000473565b828162000036828260006200009a565b5062000066905060017fb53127684a568b3173ae13b9f8a6016e243e63b6e8ee1178d6a717850b5d610462000553565b60008051602062000daf8339815191521462000086576200008662000575565b6200009182620000cc565b505050620005de565b620000a5836200013e565b600082511180620000b35750805b15620000c757620000c5838362000180565b505b505050565b7f7e644d79422f17c01e4894b5f4f588d331ebfa28653d42ae832dc59e38c9798f6200010e60008051602062000daf833981519152546001600160a01b031690565b604080516001600160a01b03928316815291841660208301520160405180910390a16200013b81620001b1565b50565b62000149816200024f565b6040516001600160a01b038216907fbc7cd75a20ee27fd9adebab32041f755214dbc6bffa90cc0225b39da2e5c2d3b90600090a250565b6060620001a8838360405180606001604052806027815260200162000dcf60279139620002e6565b90505b92915050565b6001600160a01b0381166200021c5760405162461bcd60e51b815260206004820152602660248201527f455243313936373a206e65772061646d696e20697320746865207a65726f206160448201526564647265737360d01b60648201526084015b60405180910390fd5b8060008051602062000daf8339815191525b80546001600160a01b0319166001600160a01b039290921691909117905550565b6001600160a01b0381163b620002be5760405162461bcd60e51b815260206004820152602d60248201527f455243313936373a206e657720696d706c656d656e746174696f6e206973206e60448201526c1bdd08184818dbdb9d1c9858dd609a1b606482015260840162000213565b807f360894a13ba1a3210667c828492db98dca3e2076cc3735a920a3ca505d382bbc6200022e565b6060600080856001600160a01b0316856040516200030591906200058b565b600060405180830381855af49150503d806000811462000342576040519150601f19603f3d011682016040523d82523d6000602084013e62000347565b606091505b5090925090506200035b8683838762000365565b9695505050505050565b60608315620003d9578251600003620003d1576001600160a01b0385163b620003d15760405162461bcd60e51b815260206004820152601d60248201527f416464726573733a2063616c6c20746f206e6f6e2d636f6e7472616374000000604482015260640162000213565b5081620003e5565b620003e58383620003ed565b949350505050565b815115620003fe5781518083602001fd5b8060405162461bcd60e51b8152600401620002139190620005a9565b80516001600160a01b03811681146200043257600080fd5b919050565b634e487b7160e01b600052604160045260246000fd5b60005b838110156200046a57818101518382015260200162000450565b50506000910152565b6000806000606084860312156200048957600080fd5b62000494846200041a565b9250620004a4602085016200041a565b60408501519092506001600160401b0380821115620004c257600080fd5b818601915086601f830112620004d757600080fd5b815181811115620004ec57620004ec62000437565b604051601f8201601f19908116603f0116810190838211818310171562000517576200051762000437565b816040528281528960208487010111156200053157600080fd5b620005448360208301602088016200044d565b80955050505050509250925092565b81810381811115620001ab57634e487b7160e01b600052601160045260246000fd5b634e487b7160e01b600052600160045260246000fd5b600082516200059f8184602087016200044d565b9190910192915050565b6020815260008251806020840152620005ca8160408501602087016200044d565b601f01601f19169190910160400192915050565b6107c180620005ee6000396000f3fe60806040526004361061004e5760003560e01c80633659cfe6146100655780634f1ef286146100855780635c60da1b146100985780638f283970146100c9578063f851a440146100e95761005d565b3661005d5761005b6100fe565b005b61005b6100fe565b34801561007157600080fd5b5061005b610080366004610653565b610118565b61005b61009336600461066e565b610155565b3480156100a457600080fd5b506100ad6101bc565b6040516001600160a01b03909116815260200160405180910390f35b3480156100d557600080fd5b5061005b6100e4366004610653565b6101ed565b3480156100f557600080fd5b506100ad61020d565b61010661022e565b61011661011161025e565b610268565b565b61012061028c565b6001600160a01b0316330361014d5761014a816040518060200160405280600081525060006102bf565b50565b61014a6100fe565b61015d61028c565b6001600160a01b031633036101b4576101af8383838080601f016020809104026020016040519081016040528093929190818152602001838380828437600092019190915250600192506102bf915050565b505050565b6101af6100fe565b60006101c661028c565b6001600160a01b031633036101e2576101dd61025e565b905090565b6101ea6100fe565b90565b6101f561028c565b6001600160a01b0316330361014d5761014a816102ea565b600061021761028c565b6001600160a01b031633036101e2576101dd61028c565b61023661028c565b6001600160a01b031633036101165760405163786a591f60e11b815260040160405180910390fd5b60006101dd61033e565b3660008037600080366000845af43d6000803e808015610287573d6000f35b3d6000fd5b60007fb53127684a568b3173ae13b9f8a6016e243e63b6e8ee1178d6a717850b5d61035b546001600160a01b0316919050565b6102c883610366565b6000825111806102d55750805b156101af576102e483836103a6565b50505050565b7f7e644d79422f17c01e4894b5f4f588d331ebfa28653d42ae832dc59e38c9798f61031361028c565b604080516001600160a01b03928316815291841660208301520160405180910390a161014a816103d2565b60007f360894a13ba1a3210667c828492db98dca3e2076cc3735a920a3ca505d382bbc6102b0565b61036f81610480565b6040516001600160a01b038216907fbc7cd75a20ee27fd9adebab32041f755214dbc6bffa90cc0225b39da2e5c2d3b90600090a250565b60606103cb838360405180606001604052806027815260200161076560279139610514565b9392505050565b6001600160a01b03811661043c5760405162461bcd60e51b815260206004820152602660248201527f455243313936373a206e65772061646d696e20697320746865207a65726f206160448201526564647265737360d01b60648201526084015b60405180910390fd5b807fb53127684a568b3173ae13b9f8a6016e243e63b6e8ee1178d6a717850b5d61035b80546001600160a01b0319166001600160a01b039290921691909117905550565b6001600160a01b0381163b6104ed5760405162461bcd60e51b815260206004820152602d60248201527f455243313936373a206e657720696d706c656d656e746174696f6e206973206e60448201526c1bdd08184818dbdb9d1c9858dd609a1b6064820152608401610433565b807f360894a13ba1a3210667c828492db98dca3e2076cc3735a920a3ca505d382bbc61045f565b6060600080856001600160a01b0316856040516105319190610715565b600060405180830381855af49150503d806000811461056c576040519150601f19603f3d011682016040523d82523d6000602084013e610571565b606091505b50915091506105828683838761058c565b9695505050505050565b606083156105fb5782516000036105f4576001600160a01b0385163b6105f45760405162461bcd60e51b815260206004820152601d60248201527f416464726573733a2063616c6c20746f206e6f6e2d636f6e74726163740000006044820152606401610433565b5081610605565b610605838361060d565b949350505050565b81511561061d5781518083602001fd5b8060405162461bcd60e51b81526004016104339190610731565b80356001600160a01b038116811461064e57600080fd5b919050565b60006020828403121561066557600080fd5b6103cb82610637565b60008060006040848603121561068357600080fd5b61068c84610637565b9250602084013567ffffffffffffffff808211156106a957600080fd5b818601915086601f8301126106bd57600080fd5b8135818111156106cc57600080fd5b8760208285010111156106de57600080fd5b6020830194508093505050509250925092565b60005b8381101561070c5781810151838201526020016106f4565b50506000910152565b600082516107278184602087016106f1565b9190910192915050565b60208152600082518060208401526107508160408501602087016106f1565b601f01601f1916919091016040019291505056fe416464726573733a206c6f772d6c6576656c2064656c65676174652063616c6c206661696c6564a2646970667358221220c9758782effd34c50684c9008a4ffd4b3fbcecbd39c17a55f1248566c174078b64736f6c63430008160033b53127684a568b3173ae13b9f8a6016e243e63b6e8ee1178d6a717850b5d6103416464726573733a206c6f772d6c6576656c2064656c65676174652063616c6c206661696c65640000000000000000000000008f1b9c1fd67136d525e14d96efb3887a33f162500000000000000000000000000990be6db8c785fbbf9ded8baec612a10cae814b00000000000000000000000000000000000000000000000000000000000000600000000000000000000000000000000000000000000000000000000000000000",
        "nonce": "0x54",
        "chainId": "0xfc"
      },
      "additionalContracts": [],
      "isFixedGasLimit": false
    },
    {
      "hash": null,
      "transactionType": "CALL",
      "contractName": "TransparentUpgradeableProxy",
      "contractAddress": "0x24d544c796f2b8f2e2514b312c6202b88f049673",
      "function": "upgradeToAndCall(address,bytes)",
      "arguments": [
        "0xA140Ac7d8EdA834933bbb94A575eC7037386079D",
        "0xc4d66de80000000000000000000000000990be6db8c785fbbf9ded8baec612a10cae814b"
      ],
      "transaction": {
        "from": "0x0990be6db8c785fbbf9ded8baec612a10cae814b",
        "to": "0x24d544c796f2b8f2e2514b312c6202b88f049673",
        "gas": "0x28355",
        "value": "0x0",
        "input": "0x4f1ef286000000000000000000000000a140ac7d8eda834933bbb94a575ec7037386079d00000000000000000000000000000000000000000000000000000000000000400000000000000000000000000000000000000000000000000000000000000024c4d66de80000000000000000000000000990be6db8c785fbbf9ded8baec612a10cae814b00000000000000000000000000000000000000000000000000000000",
        "nonce": "0x55",
        "chainId": "0xfc"
      },
      "additionalContracts": [],
      "isFixedGasLimit": false
    },
    {
      "hash": null,
      "transactionType": "CALL",
      "contractName": "TransparentUpgradeableProxy",
      "contractAddress": "0x24d544c796f2b8f2e2514b312c6202b88f049673",
      "function": "changeAdmin(address)",
      "arguments": [
        "0x223a681fc5c5522c85C96157c0efA18cd6c5405c"
      ],
      "transaction": {
        "from": "0x0990be6db8c785fbbf9ded8baec612a10cae814b",
        "to": "0x24d544c796f2b8f2e2514b312c6202b88f049673",
        "gas": "0xa3ad",
        "value": "0x0",
        "input": "0x8f283970000000000000000000000000223a681fc5c5522c85c96157c0efa18cd6c5405c",
        "nonce": "0x56",
        "chainId": "0xfc"
      },
      "additionalContracts": [],
      "isFixedGasLimit": false
    },
    {
      "hash": null,
      "transactionType": "CALL",
      "contractName": "TransparentUpgradeableProxy",
      "contractAddress": "0x3d9ec5191af8447bbcb61ff460944056be350013",
      "function": null,
      "arguments": null,
      "transaction": {
        "from": "0x0990be6db8c785fbbf9ded8baec612a10cae814b",
        "to": "0x3d9ec5191af8447bbcb61ff460944056be350013",
        "gas": "0x8ce87",
        "value": "0x0",
        "input": "0xb98bd0700000000000000000000000000000000000000000000000000000000000000020000000000000000000000000000000000000000000000000000000000000000e00000000000000000000000000000000000000000000000000000000000001c00000000000000000000000000000000000000000000000000000000000000260000000000000000000000000000000000000000000000000000000000000030000000000000000000000000000000000000000000000000000000000000003a0000000000000000000000000000000000000000000000000000000000000044000000000000000000000000000000000000000000000000000000000000004e00000000000000000000000000000000000000000000000000000000000000580000000000000000000000000000000000000000000000000000000000000062000000000000000000000000000000000000000000000000000000000000006c00000000000000000000000000000000000000000000000000000000000000760000000000000000000000000000000000000000000000000000000000000080000000000000000000000000000000000000000000000000000000000000008a0000000000000000000000000000000000000000000000000000000000000094000000000000000000000000000000000000000000000000000000000000009e0000000000000000000000000000000000000000000000000000000000000759500000000000000000000000000000000000000000000000000000000000000010000000000000000000000000000000000000000000000000000000000000060000000000000000000000000000000000000000000000000000000000000001600030100110100000000000000000000000000030d400000000000000000000000000000000000000000000000000000000000000000000000000000000075950000000000000000000000000000000000000000000000000000000000000002000000000000000000000000000000000000000000000000000000000000006000000000000000000000000000000000000000000000000000000000000000160003010011010000000000000000000000000003d09000000000000000000000000000000000000000000000000000000000000000000000000000000000762300000000000000000000000000000000000000000000000000000000000000010000000000000000000000000000000000000000000000000000000000000060000000000000000000000000000000000000000000000000000000000000001600030100110100000000000000000000000000030d400000000000000000000000000000000000000000000000000000000000000000000000000000000076230000000000000000000000000000000000000000000000000000000000000002000000000000000000000000000000000000000000000000000000000000006000000000000000000000000000000000000000000000000000000000000000160003010011010000000000000000000000000003d0900000000000000000000000000000000000000000000000000000000000000000000000000000000075c700000000000000000000000000000000000000000000000000000000000000010000000000000000000000000000000000000000000000000000000000000060000000000000000000000000000000000000000000000000000000000000001600030100110100000000000000000000000000030d400000000000000000000000000000000000000000000000000000000000000000000000000000000075c70000000000000000000000000000000000000000000000000000000000000002000000000000000000000000000000000000000000000000000000000000006000000000000000000000000000000000000000000000000000000000000000160003010011010000000000000000000000000003d0900000000000000000000000000000000000000000000000000000000000000000000000000000000075e800000000000000000000000000000000000000000000000000000000000000010000000000000000000000000000000000000000000000000000000000000060000000000000000000000000000000000000000000000000000000000000001600030100110100000000000000000000000000030d400000000000000000000000000000000000000000000000000000000000000000000000000000000075e80000000000000000000000000000000000000000000000000000000000000002000000000000000000000000000000000000000000000000000000000000006000000000000000000000000000000000000000000000000000000000000000160003010011010000000000000000000000000003d09000000000000000000000000000000000000000000000000000000000000000000000000000000000763400000000000000000000000000000000000000000000000000000000000000010000000000000000000000000000000000000000000000000000000000000060000000000000000000000000000000000000000000000000000000000000001600030100110100000000000000000000000000030d400000000000000000000000000000000000000000000000000000000000000000000000000000000076340000000000000000000000000000000000000000000000000000000000000002000000000000000000000000000000000000000000000000000000000000006000000000000000000000000000000000000000000000000000000000000000160003010011010000000000000000000000000003d09000000000000000000000000000000000000000000000000000000000000000000000000000000000764800000000000000000000000000000000000000000000000000000000000000010000000000000000000000000000000000000000000000000000000000000060000000000000000000000000000000000000000000000000000000000000001600030100110100000000000000000000000000030d400000000000000000000000000000000000000000000000000000000000000000000000000000000076480000000000000000000000000000000000000000000000000000000000000002000000000000000000000000000000000000000000000000000000000000006000000000000000000000000000000000000000000000000000000000000000160003010011010000000000000000000000000003d09000000000000000000000000000000000000000000000000000000000000000000000000000000000764200000000000000000000000000000000000000000000000000000000000000010000000000000000000000000000000000000000000000000000000000000060000000000000000000000000000000000000000000000000000000000000001600030100110100000000000000000000000000030d400000000000000000000000000000000000000000000000000000000000000000000000000000000076420000000000000000000000000000000000000000000000000000000000000002000000000000000000000000000000000000000000000000000000000000006000000000000000000000000000000000000000000000000000000000000000160003010011010000000000000000000000000003d09000000000000000000000",
        "nonce": "0x57",
        "chainId": "0xfc"
      },
      "additionalContracts": [],
      "isFixedGasLimit": false
    },
    {
      "hash": null,
      "transactionType": "CALL",
      "contractName": "TransparentUpgradeableProxy",
      "contractAddress": "0x24d544c796f2b8f2e2514b312c6202b88f049673",
      "function": null,
      "arguments": null,
      "transaction": {
        "from": "0x0990be6db8c785fbbf9ded8baec612a10cae814b",
        "to": "0x24d544c796f2b8f2e2514b312c6202b88f049673",
        "gas": "0x8ce87",
        "value": "0x0",
        "input": "0xb98bd0700000000000000000000000000000000000000000000000000000000000000020000000000000000000000000000000000000000000000000000000000000000e00000000000000000000000000000000000000000000000000000000000001c00000000000000000000000000000000000000000000000000000000000000260000000000000000000000000000000000000000000000000000000000000030000000000000000000000000000000000000000000000000000000000000003a0000000000000000000000000000000000000000000000000000000000000044000000000000000000000000000000000000000000000000000000000000004e00000000000000000000000000000000000000000000000000000000000000580000000000000000000000000000000000000000000000000000000000000062000000000000000000000000000000000000000000000000000000000000006c00000000000000000000000000000000000000000000000000000000000000760000000000000000000000000000000000000000000000000000000000000080000000000000000000000000000000000000000000000000000000000000008a0000000000000000000000000000000000000000000000000000000000000094000000000000000000000000000000000000000000000000000000000000009e0000000000000000000000000000000000000000000000000000000000000759500000000000000000000000000000000000000000000000000000000000000010000000000000000000000000000000000000000000000000000000000000060000000000000000000000000000000000000000000000000000000000000001600030100110100000000000000000000000000030d400000000000000000000000000000000000000000000000000000000000000000000000000000000075950000000000000000000000000000000000000000000000000000000000000002000000000000000000000000000000000000000000000000000000000000006000000000000000000000000000000000000000000000000000000000000000160003010011010000000000000000000000000003d09000000000000000000000000000000000000000000000000000000000000000000000000000000000762300000000000000000000000000000000000000000000000000000000000000010000000000000000000000000000000000000000000000000000000000000060000000000000000000000000000000000000000000000000000000000000001600030100110100000000000000000000000000030d400000000000000000000000000000000000000000000000000000000000000000000000000000000076230000000000000000000000000000000000000000000000000000000000000002000000000000000000000000000000000000000000000000000000000000006000000000000000000000000000000000000000000000000000000000000000160003010011010000000000000000000000000003d0900000000000000000000000000000000000000000000000000000000000000000000000000000000075c700000000000000000000000000000000000000000000000000000000000000010000000000000000000000000000000000000000000000000000000000000060000000000000000000000000000000000000000000000000000000000000001600030100110100000000000000000000000000030d400000000000000000000000000000000000000000000000000000000000000000000000000000000075c70000000000000000000000000000000000000000000000000000000000000002000000000000000000000000000000000000000000000000000000000000006000000000000000000000000000000000000000000000000000000000000000160003010011010000000000000000000000000003d0900000000000000000000000000000000000000000000000000000000000000000000000000000000075e800000000000000000000000000000000000000000000000000000000000000010000000000000000000000000000000000000000000000000000000000000060000000000000000000000000000000000000000000000000000000000000001600030100110100000000000000000000000000030d400000000000000000000000000000000000000000000000000000000000000000000000000000000075e80000000000000000000000000000000000000000000000000000000000000002000000000000000000000000000000000000000000000000000000000000006000000000000000000000000000000000000000000000000000000000000000160003010011010000000000000000000000000003d09000000000000000000000000000000000000000000000000000000000000000000000000000000000763400000000000000000000000000000000000000000000000000000000000000010000000000000000000000000000000000000000000000000000000000000060000000000000000000000000000000000000000000000000000000000000001600030100110100000000000000000000000000030d400000000000000000000000000000000000000000000000000000000000000000000000000000000076340000000000000000000000000000000000000000000000000000000000000002000000000000000000000000000000000000000000000000000000000000006000000000000000000000000000000000000000000000000000000000000000160003010011010000000000000000000000000003d09000000000000000000000000000000000000000000000000000000000000000000000000000000000764800000000000000000000000000000000000000000000000000000000000000010000000000000000000000000000000000000000000000000000000000000060000000000000000000000000000000000000000000000000000000000000001600030100110100000000000000000000000000030d400000000000000000000000000000000000000000000000000000000000000000000000000000000076480000000000000000000000000000000000000000000000000000000000000002000000000000000000000000000000000000000000000000000000000000006000000000000000000000000000000000000000000000000000000000000000160003010011010000000000000000000000000003d09000000000000000000000000000000000000000000000000000000000000000000000000000000000764200000000000000000000000000000000000000000000000000000000000000010000000000000000000000000000000000000000000000000000000000000060000000000000000000000000000000000000000000000000000000000000001600030100110100000000000000000000000000030d400000000000000000000000000000000000000000000000000000000000000000000000000000000076420000000000000000000000000000000000000000000000000000000000000002000000000000000000000000000000000000000000000000000000000000006000000000000000000000000000000000000000000000000000000000000000160003010011010000000000000000000000000003d09000000000000000000000",
        "nonce": "0x58",
        "chainId": "0xfc"
      },
      "additionalContracts": [],
      "isFixedGasLimit": false
    },
    {
      "hash": null,
      "transactionType": "CALL",
      "contractName": null,
      "contractAddress": "0x1a44076050125825900e736c501f859c50fe728c",
      "function": "setConfig(address,address,(uint32,uint32,bytes)[])",
      "arguments": [
        "0x3d9eC5191Af8447BbcB61ff460944056be350013",
        "0x8bC1e36F015b9902B54b1387A4d733cebc2f5A4e",
        "[(30101, 2, 0x0000000000000000000000000000000000000000000000000000000000000020000000000000000000000000000000000000000000000000000000000000000000000000000000000000000000000000000000000000000000000000000000020000000000000000000000000000000000000000000000000000000000000000000000000000000000000000000000000000000000000000000000000000000000000000000000000000000000000000000000000000000000000000000000c000000000000000000000000000000000000000000000000000000000000001200000000000000000000000000000000000000000000000000000000000000002000000000000000000000000cce466a522984415bc91338c232d98869193d46e000000000000000000000000dd7b5e1db4aafd5c8ec3b764efb8ed265aa5445b0000000000000000000000000000000000000000000000000000000000000000), (30243, 2, 0x0000000000000000000000000000000000000000000000000000000000000020000000000000000000000000000000000000000000000000000000000000000000000000000000000000000000000000000000000000000000000000000000020000000000000000000000000000000000000000000000000000000000000000000000000000000000000000000000000000000000000000000000000000000000000000000000000000000000000000000000000000000000000000000000c000000000000000000000000000000000000000000000000000000000000001200000000000000000000000000000000000000000000000000000000000000002000000000000000000000000cce466a522984415bc91338c232d98869193d46e000000000000000000000000dd7b5e1db4aafd5c8ec3b764efb8ed265aa5445b0000000000000000000000000000000000000000000000000000000000000000), (30151, 2, 0x0000000000000000000000000000000000000000000000000000000000000020000000000000000000000000000000000000000000000000000000000000000000000000000000000000000000000000000000000000000000000000000000020000000000000000000000000000000000000000000000000000000000000000000000000000000000000000000000000000000000000000000000000000000000000000000000000000000000000000000000000000000000000000000000c000000000000000000000000000000000000000000000000000000000000001200000000000000000000000000000000000000000000000000000000000000002000000000000000000000000cce466a522984415bc91338c232d98869193d46e000000000000000000000000dd7b5e1db4aafd5c8ec3b764efb8ed265aa5445b0000000000000000000000000000000000000000000000000000000000000000), (30184, 2, 0x0000000000000000000000000000000000000000000000000000000000000020000000000000000000000000000000000000000000000000000000000000000000000000000000000000000000000000000000000000000000000000000000020000000000000000000000000000000000000000000000000000000000000000000000000000000000000000000000000000000000000000000000000000000000000000000000000000000000000000000000000000000000000000000000c000000000000000000000000000000000000000000000000000000000000001200000000000000000000000000000000000000000000000000000000000000002000000000000000000000000cce466a522984415bc91338c232d98869193d46e000000000000000000000000dd7b5e1db4aafd5c8ec3b764efb8ed265aa5445b0000000000000000000000000000000000000000000000000000000000000000), (30260, 2, 0x0000000000000000000000000000000000000000000000000000000000000020000000000000000000000000000000000000000000000000000000000000000000000000000000000000000000000000000000000000000000000000000000020000000000000000000000000000000000000000000000000000000000000000000000000000000000000000000000000000000000000000000000000000000000000000000000000000000000000000000000000000000000000000000000c000000000000000000000000000000000000000000000000000000000000001200000000000000000000000000000000000000000000000000000000000000002000000000000000000000000cce466a522984415bc91338c232d98869193d46e000000000000000000000000dd7b5e1db4aafd5c8ec3b764efb8ed265aa5445b0000000000000000000000000000000000000000000000000000000000000000), (30280, 2, 0x0000000000000000000000000000000000000000000000000000000000000020000000000000000000000000000000000000000000000000000000000000000000000000000000000000000000000000000000000000000000000000000000020000000000000000000000000000000000000000000000000000000000000000000000000000000000000000000000000000000000000000000000000000000000000000000000000000000000000000000000000000000000000000000000c000000000000000000000000000000000000000000000000000000000000001200000000000000000000000000000000000000000000000000000000000000002000000000000000000000000cce466a522984415bc91338c232d98869193d46e000000000000000000000000dd7b5e1db4aafd5c8ec3b764efb8ed265aa5445b0000000000000000000000000000000000000000000000000000000000000000), (30274, 2, 0x0000000000000000000000000000000000000000000000000000000000000020000000000000000000000000000000000000000000000000000000000000000000000000000000000000000000000000000000000000000000000000000000020000000000000000000000000000000000000000000000000000000000000000000000000000000000000000000000000000000000000000000000000000000000000000000000000000000000000000000000000000000000000000000000c000000000000000000000000000000000000000000000000000000000000001200000000000000000000000000000000000000000000000000000000000000002000000000000000000000000cce466a522984415bc91338c232d98869193d46e000000000000000000000000dd7b5e1db4aafd5c8ec3b764efb8ed265aa5445b0000000000000000000000000000000000000000000000000000000000000000)]"
      ],
      "transaction": {
        "from": "0x0990be6db8c785fbbf9ded8baec612a10cae814b",
        "to": "0x1a44076050125825900e736c501f859c50fe728c",
        "gas": "0x118db8",
        "value": "0x0",
        "input": "0x6dbd9f900000000000000000000000003d9ec5191af8447bbcb61ff460944056be3500130000000000000000000000008bc1e36f015b9902b54b1387a4d733cebc2f5a4e0000000000000000000000000000000000000000000000000000000000000060000000000000000000000000000000000000000000000000000000000000000700000000000000000000000000000000000000000000000000000000000000e000000000000000000000000000000000000000000000000000000000000002c000000000000000000000000000000000000000000000000000000000000004a0000000000000000000000000000000000000000000000000000000000000068000000000000000000000000000000000000000000000000000000000000008600000000000000000000000000000000000000000000000000000000000000a400000000000000000000000000000000000000000000000000000000000000c2000000000000000000000000000000000000000000000000000000000000075950000000000000000000000000000000000000000000000000000000000000002000000000000000000000000000000000000000000000000000000000000006000000000000000000000000000000000000000000000000000000000000001600000000000000000000000000000000000000000000000000000000000000020000000000000000000000000000000000000000000000000000000000000000000000000000000000000000000000000000000000000000000000000000000020000000000000000000000000000000000000000000000000000000000000000000000000000000000000000000000000000000000000000000000000000000000000000000000000000000000000000000000000000000000000000000000c000000000000000000000000000000000000000000000000000000000000001200000000000000000000000000000000000000000000000000000000000000002000000000000000000000000cce466a522984415bc91338c232d98869193d46e000000000000000000000000dd7b5e1db4aafd5c8ec3b764efb8ed265aa5445b000000000000000000000000000000000000000000000000000000000000000000000000000000000000000000000000000000000000000000000000000076230000000000000000000000000000000000000000000000000000000000000002000000000000000000000000000000000000000000000000000000000000006000000000000000000000000000000000000000000000000000000000000001600000000000000000000000000000000000000000000000000000000000000020000000000000000000000000000000000000000000000000000000000000000000000000000000000000000000000000000000000000000000000000000000020000000000000000000000000000000000000000000000000000000000000000000000000000000000000000000000000000000000000000000000000000000000000000000000000000000000000000000000000000000000000000000000c000000000000000000000000000000000000000000000000000000000000001200000000000000000000000000000000000000000000000000000000000000002000000000000000000000000cce466a522984415bc91338c232d98869193d46e000000000000000000000000dd7b5e1db4aafd5c8ec3b764efb8ed265aa5445b000000000000000000000000000000000000000000000000000000000000000000000000000000000000000000000000000000000000000000000000000075c70000000000000000000000000000000000000000000000000000000000000002000000000000000000000000000000000000000000000000000000000000006000000000000000000000000000000000000000000000000000000000000001600000000000000000000000000000000000000000000000000000000000000020000000000000000000000000000000000000000000000000000000000000000000000000000000000000000000000000000000000000000000000000000000020000000000000000000000000000000000000000000000000000000000000000000000000000000000000000000000000000000000000000000000000000000000000000000000000000000000000000000000000000000000000000000000c000000000000000000000000000000000000000000000000000000000000001200000000000000000000000000000000000000000000000000000000000000002000000000000000000000000cce466a522984415bc91338c232d98869193d46e000000000000000000000000dd7b5e1db4aafd5c8ec3b764efb8ed265aa5445b000000000000000000000000000000000000000000000000000000000000000000000000000000000000000000000000000000000000000000000000000075e80000000000000000000000000000000000000000000000000000000000000002000000000000000000000000000000000000000000000000000000000000006000000000000000000000000000000000000000000000000000000000000001600000000000000000000000000000000000000000000000000000000000000020000000000000000000000000000000000000000000000000000000000000000000000000000000000000000000000000000000000000000000000000000000020000000000000000000000000000000000000000000000000000000000000000000000000000000000000000000000000000000000000000000000000000000000000000000000000000000000000000000000000000000000000000000000c000000000000000000000000000000000000000000000000000000000000001200000000000000000000000000000000000000000000000000000000000000002000000000000000000000000cce466a522984415bc91338c232d98869193d46e000000000000000000000000dd7b5e1db4aafd5c8ec3b764efb8ed265aa5445b000000000000000000000000000000000000000000000000000000000000000000000000000000000000000000000000000000000000000000000000000076340000000000000000000000000000000000000000000000000000000000000002000000000000000000000000000000000000000000000000000000000000006000000000000000000000000000000000000000000000000000000000000001600000000000000000000000000000000000000000000000000000000000000020000000000000000000000000000000000000000000000000000000000000000000000000000000000000000000000000000000000000000000000000000000020000000000000000000000000000000000000000000000000000000000000000000000000000000000000000000000000000000000000000000000000000000000000000000000000000000000000000000000000000000000000000000000c000000000000000000000000000000000000000000000000000000000000001200000000000000000000000000000000000000000000000000000000000000002000000000000000000000000cce466a522984415bc91338c232d98869193d46e000000000000000000000000dd7b5e1db4aafd5c8ec3b764efb8ed265aa5445b000000000000000000000000000000000000000000000000000000000000000000000000000000000000000000000000000000000000000000000000000076480000000000000000000000000000000000000000000000000000000000000002000000000000000000000000000000000000000000000000000000000000006000000000000000000000000000000000000000000000000000000000000001600000000000000000000000000000000000000000000000000000000000000020000000000000000000000000000000000000000000000000000000000000000000000000000000000000000000000000000000000000000000000000000000020000000000000000000000000000000000000000000000000000000000000000000000000000000000000000000000000000000000000000000000000000000000000000000000000000000000000000000000000000000000000000000000c000000000000000000000000000000000000000000000000000000000000001200000000000000000000000000000000000000000000000000000000000000002000000000000000000000000cce466a522984415bc91338c232d98869193d46e000000000000000000000000dd7b5e1db4aafd5c8ec3b764efb8ed265aa5445b000000000000000000000000000000000000000000000000000000000000000000000000000000000000000000000000000000000000000000000000000076420000000000000000000000000000000000000000000000000000000000000002000000000000000000000000000000000000000000000000000000000000006000000000000000000000000000000000000000000000000000000000000001600000000000000000000000000000000000000000000000000000000000000020000000000000000000000000000000000000000000000000000000000000000000000000000000000000000000000000000000000000000000000000000000020000000000000000000000000000000000000000000000000000000000000000000000000000000000000000000000000000000000000000000000000000000000000000000000000000000000000000000000000000000000000000000000c000000000000000000000000000000000000000000000000000000000000001200000000000000000000000000000000000000000000000000000000000000002000000000000000000000000cce466a522984415bc91338c232d98869193d46e000000000000000000000000dd7b5e1db4aafd5c8ec3b764efb8ed265aa5445b0000000000000000000000000000000000000000000000000000000000000000",
        "nonce": "0x59",
        "chainId": "0xfc"
      },
      "additionalContracts": [],
      "isFixedGasLimit": false
    },
    {
      "hash": null,
      "transactionType": "CALL",
      "contractName": null,
      "contractAddress": "0x1a44076050125825900e736c501f859c50fe728c",
      "function": "setConfig(address,address,(uint32,uint32,bytes)[])",
      "arguments": [
        "0x3d9eC5191Af8447BbcB61ff460944056be350013",
        "0x377530cdA84DFb2673bF4d145DCF0C4D7fdcB5b6",
        "[(30101, 2, 0x0000000000000000000000000000000000000000000000000000000000000020000000000000000000000000000000000000000000000000000000000000000000000000000000000000000000000000000000000000000000000000000000020000000000000000000000000000000000000000000000000000000000000000000000000000000000000000000000000000000000000000000000000000000000000000000000000000000000000000000000000000000000000000000000c000000000000000000000000000000000000000000000000000000000000001200000000000000000000000000000000000000000000000000000000000000002000000000000000000000000cce466a522984415bc91338c232d98869193d46e000000000000000000000000dd7b5e1db4aafd5c8ec3b764efb8ed265aa5445b0000000000000000000000000000000000000000000000000000000000000000), (30243, 2, 0x0000000000000000000000000000000000000000000000000000000000000020000000000000000000000000000000000000000000000000000000000000000000000000000000000000000000000000000000000000000000000000000000020000000000000000000000000000000000000000000000000000000000000000000000000000000000000000000000000000000000000000000000000000000000000000000000000000000000000000000000000000000000000000000000c000000000000000000000000000000000000000000000000000000000000001200000000000000000000000000000000000000000000000000000000000000002000000000000000000000000cce466a522984415bc91338c232d98869193d46e000000000000000000000000dd7b5e1db4aafd5c8ec3b764efb8ed265aa5445b0000000000000000000000000000000000000000000000000000000000000000), (30151, 2, 0x0000000000000000000000000000000000000000000000000000000000000020000000000000000000000000000000000000000000000000000000000000000000000000000000000000000000000000000000000000000000000000000000020000000000000000000000000000000000000000000000000000000000000000000000000000000000000000000000000000000000000000000000000000000000000000000000000000000000000000000000000000000000000000000000c000000000000000000000000000000000000000000000000000000000000001200000000000000000000000000000000000000000000000000000000000000002000000000000000000000000cce466a522984415bc91338c232d98869193d46e000000000000000000000000dd7b5e1db4aafd5c8ec3b764efb8ed265aa5445b0000000000000000000000000000000000000000000000000000000000000000), (30184, 2, 0x0000000000000000000000000000000000000000000000000000000000000020000000000000000000000000000000000000000000000000000000000000000000000000000000000000000000000000000000000000000000000000000000020000000000000000000000000000000000000000000000000000000000000000000000000000000000000000000000000000000000000000000000000000000000000000000000000000000000000000000000000000000000000000000000c000000000000000000000000000000000000000000000000000000000000001200000000000000000000000000000000000000000000000000000000000000002000000000000000000000000cce466a522984415bc91338c232d98869193d46e000000000000000000000000dd7b5e1db4aafd5c8ec3b764efb8ed265aa5445b0000000000000000000000000000000000000000000000000000000000000000), (30260, 2, 0x0000000000000000000000000000000000000000000000000000000000000020000000000000000000000000000000000000000000000000000000000000000000000000000000000000000000000000000000000000000000000000000000020000000000000000000000000000000000000000000000000000000000000000000000000000000000000000000000000000000000000000000000000000000000000000000000000000000000000000000000000000000000000000000000c000000000000000000000000000000000000000000000000000000000000001200000000000000000000000000000000000000000000000000000000000000002000000000000000000000000cce466a522984415bc91338c232d98869193d46e000000000000000000000000dd7b5e1db4aafd5c8ec3b764efb8ed265aa5445b0000000000000000000000000000000000000000000000000000000000000000), (30280, 2, 0x0000000000000000000000000000000000000000000000000000000000000020000000000000000000000000000000000000000000000000000000000000000000000000000000000000000000000000000000000000000000000000000000020000000000000000000000000000000000000000000000000000000000000000000000000000000000000000000000000000000000000000000000000000000000000000000000000000000000000000000000000000000000000000000000c000000000000000000000000000000000000000000000000000000000000001200000000000000000000000000000000000000000000000000000000000000002000000000000000000000000cce466a522984415bc91338c232d98869193d46e000000000000000000000000dd7b5e1db4aafd5c8ec3b764efb8ed265aa5445b0000000000000000000000000000000000000000000000000000000000000000), (30274, 2, 0x0000000000000000000000000000000000000000000000000000000000000020000000000000000000000000000000000000000000000000000000000000000000000000000000000000000000000000000000000000000000000000000000020000000000000000000000000000000000000000000000000000000000000000000000000000000000000000000000000000000000000000000000000000000000000000000000000000000000000000000000000000000000000000000000c000000000000000000000000000000000000000000000000000000000000001200000000000000000000000000000000000000000000000000000000000000002000000000000000000000000cce466a522984415bc91338c232d98869193d46e000000000000000000000000dd7b5e1db4aafd5c8ec3b764efb8ed265aa5445b0000000000000000000000000000000000000000000000000000000000000000)]"
      ],
      "transaction": {
        "from": "0x0990be6db8c785fbbf9ded8baec612a10cae814b",
        "to": "0x1a44076050125825900e736c501f859c50fe728c",
        "gas": "0x109b9c",
        "value": "0x0",
        "input": "0x6dbd9f900000000000000000000000003d9ec5191af8447bbcb61ff460944056be350013000000000000000000000000377530cda84dfb2673bf4d145dcf0c4d7fdcb5b60000000000000000000000000000000000000000000000000000000000000060000000000000000000000000000000000000000000000000000000000000000700000000000000000000000000000000000000000000000000000000000000e000000000000000000000000000000000000000000000000000000000000002c000000000000000000000000000000000000000000000000000000000000004a0000000000000000000000000000000000000000000000000000000000000068000000000000000000000000000000000000000000000000000000000000008600000000000000000000000000000000000000000000000000000000000000a400000000000000000000000000000000000000000000000000000000000000c2000000000000000000000000000000000000000000000000000000000000075950000000000000000000000000000000000000000000000000000000000000002000000000000000000000000000000000000000000000000000000000000006000000000000000000000000000000000000000000000000000000000000001600000000000000000000000000000000000000000000000000000000000000020000000000000000000000000000000000000000000000000000000000000000000000000000000000000000000000000000000000000000000000000000000020000000000000000000000000000000000000000000000000000000000000000000000000000000000000000000000000000000000000000000000000000000000000000000000000000000000000000000000000000000000000000000000c000000000000000000000000000000000000000000000000000000000000001200000000000000000000000000000000000000000000000000000000000000002000000000000000000000000cce466a522984415bc91338c232d98869193d46e000000000000000000000000dd7b5e1db4aafd5c8ec3b764efb8ed265aa5445b000000000000000000000000000000000000000000000000000000000000000000000000000000000000000000000000000000000000000000000000000076230000000000000000000000000000000000000000000000000000000000000002000000000000000000000000000000000000000000000000000000000000006000000000000000000000000000000000000000000000000000000000000001600000000000000000000000000000000000000000000000000000000000000020000000000000000000000000000000000000000000000000000000000000000000000000000000000000000000000000000000000000000000000000000000020000000000000000000000000000000000000000000000000000000000000000000000000000000000000000000000000000000000000000000000000000000000000000000000000000000000000000000000000000000000000000000000c000000000000000000000000000000000000000000000000000000000000001200000000000000000000000000000000000000000000000000000000000000002000000000000000000000000cce466a522984415bc91338c232d98869193d46e000000000000000000000000dd7b5e1db4aafd5c8ec3b764efb8ed265aa5445b000000000000000000000000000000000000000000000000000000000000000000000000000000000000000000000000000000000000000000000000000075c70000000000000000000000000000000000000000000000000000000000000002000000000000000000000000000000000000000000000000000000000000006000000000000000000000000000000000000000000000000000000000000001600000000000000000000000000000000000000000000000000000000000000020000000000000000000000000000000000000000000000000000000000000000000000000000000000000000000000000000000000000000000000000000000020000000000000000000000000000000000000000000000000000000000000000000000000000000000000000000000000000000000000000000000000000000000000000000000000000000000000000000000000000000000000000000000c000000000000000000000000000000000000000000000000000000000000001200000000000000000000000000000000000000000000000000000000000000002000000000000000000000000cce466a522984415bc91338c232d98869193d46e000000000000000000000000dd7b5e1db4aafd5c8ec3b764efb8ed265aa5445b000000000000000000000000000000000000000000000000000000000000000000000000000000000000000000000000000000000000000000000000000075e80000000000000000000000000000000000000000000000000000000000000002000000000000000000000000000000000000000000000000000000000000006000000000000000000000000000000000000000000000000000000000000001600000000000000000000000000000000000000000000000000000000000000020000000000000000000000000000000000000000000000000000000000000000000000000000000000000000000000000000000000000000000000000000000020000000000000000000000000000000000000000000000000000000000000000000000000000000000000000000000000000000000000000000000000000000000000000000000000000000000000000000000000000000000000000000000c000000000000000000000000000000000000000000000000000000000000001200000000000000000000000000000000000000000000000000000000000000002000000000000000000000000cce466a522984415bc91338c232d98869193d46e000000000000000000000000dd7b5e1db4aafd5c8ec3b764efb8ed265aa5445b000000000000000000000000000000000000000000000000000000000000000000000000000000000000000000000000000000000000000000000000000076340000000000000000000000000000000000000000000000000000000000000002000000000000000000000000000000000000000000000000000000000000006000000000000000000000000000000000000000000000000000000000000001600000000000000000000000000000000000000000000000000000000000000020000000000000000000000000000000000000000000000000000000000000000000000000000000000000000000000000000000000000000000000000000000020000000000000000000000000000000000000000000000000000000000000000000000000000000000000000000000000000000000000000000000000000000000000000000000000000000000000000000000000000000000000000000000c000000000000000000000000000000000000000000000000000000000000001200000000000000000000000000000000000000000000000000000000000000002000000000000000000000000cce466a522984415bc91338c232d98869193d46e000000000000000000000000dd7b5e1db4aafd5c8ec3b764efb8ed265aa5445b000000000000000000000000000000000000000000000000000000000000000000000000000000000000000000000000000000000000000000000000000076480000000000000000000000000000000000000000000000000000000000000002000000000000000000000000000000000000000000000000000000000000006000000000000000000000000000000000000000000000000000000000000001600000000000000000000000000000000000000000000000000000000000000020000000000000000000000000000000000000000000000000000000000000000000000000000000000000000000000000000000000000000000000000000000020000000000000000000000000000000000000000000000000000000000000000000000000000000000000000000000000000000000000000000000000000000000000000000000000000000000000000000000000000000000000000000000c000000000000000000000000000000000000000000000000000000000000001200000000000000000000000000000000000000000000000000000000000000002000000000000000000000000cce466a522984415bc91338c232d98869193d46e000000000000000000000000dd7b5e1db4aafd5c8ec3b764efb8ed265aa5445b000000000000000000000000000000000000000000000000000000000000000000000000000000000000000000000000000000000000000000000000000076420000000000000000000000000000000000000000000000000000000000000002000000000000000000000000000000000000000000000000000000000000006000000000000000000000000000000000000000000000000000000000000001600000000000000000000000000000000000000000000000000000000000000020000000000000000000000000000000000000000000000000000000000000000000000000000000000000000000000000000000000000000000000000000000020000000000000000000000000000000000000000000000000000000000000000000000000000000000000000000000000000000000000000000000000000000000000000000000000000000000000000000000000000000000000000000000c000000000000000000000000000000000000000000000000000000000000001200000000000000000000000000000000000000000000000000000000000000002000000000000000000000000cce466a522984415bc91338c232d98869193d46e000000000000000000000000dd7b5e1db4aafd5c8ec3b764efb8ed265aa5445b0000000000000000000000000000000000000000000000000000000000000000",
        "nonce": "0x5a",
        "chainId": "0xfc"
      },
      "additionalContracts": [],
      "isFixedGasLimit": false
    },
    {
      "hash": null,
      "transactionType": "CALL",
      "contractName": null,
      "contractAddress": "0x1a44076050125825900e736c501f859c50fe728c",
      "function": "setConfig(address,address,(uint32,uint32,bytes)[])",
      "arguments": [
        "0x24d544c796F2B8F2e2514b312c6202B88f049673",
        "0x8bC1e36F015b9902B54b1387A4d733cebc2f5A4e",
        "[(30101, 2, 0x0000000000000000000000000000000000000000000000000000000000000020000000000000000000000000000000000000000000000000000000000000000000000000000000000000000000000000000000000000000000000000000000020000000000000000000000000000000000000000000000000000000000000000000000000000000000000000000000000000000000000000000000000000000000000000000000000000000000000000000000000000000000000000000000c000000000000000000000000000000000000000000000000000000000000001200000000000000000000000000000000000000000000000000000000000000002000000000000000000000000cce466a522984415bc91338c232d98869193d46e000000000000000000000000dd7b5e1db4aafd5c8ec3b764efb8ed265aa5445b0000000000000000000000000000000000000000000000000000000000000000), (30243, 2, 0x0000000000000000000000000000000000000000000000000000000000000020000000000000000000000000000000000000000000000000000000000000000000000000000000000000000000000000000000000000000000000000000000020000000000000000000000000000000000000000000000000000000000000000000000000000000000000000000000000000000000000000000000000000000000000000000000000000000000000000000000000000000000000000000000c000000000000000000000000000000000000000000000000000000000000001200000000000000000000000000000000000000000000000000000000000000002000000000000000000000000cce466a522984415bc91338c232d98869193d46e000000000000000000000000dd7b5e1db4aafd5c8ec3b764efb8ed265aa5445b0000000000000000000000000000000000000000000000000000000000000000), (30151, 2, 0x0000000000000000000000000000000000000000000000000000000000000020000000000000000000000000000000000000000000000000000000000000000000000000000000000000000000000000000000000000000000000000000000020000000000000000000000000000000000000000000000000000000000000000000000000000000000000000000000000000000000000000000000000000000000000000000000000000000000000000000000000000000000000000000000c000000000000000000000000000000000000000000000000000000000000001200000000000000000000000000000000000000000000000000000000000000002000000000000000000000000cce466a522984415bc91338c232d98869193d46e000000000000000000000000dd7b5e1db4aafd5c8ec3b764efb8ed265aa5445b0000000000000000000000000000000000000000000000000000000000000000), (30184, 2, 0x0000000000000000000000000000000000000000000000000000000000000020000000000000000000000000000000000000000000000000000000000000000000000000000000000000000000000000000000000000000000000000000000020000000000000000000000000000000000000000000000000000000000000000000000000000000000000000000000000000000000000000000000000000000000000000000000000000000000000000000000000000000000000000000000c000000000000000000000000000000000000000000000000000000000000001200000000000000000000000000000000000000000000000000000000000000002000000000000000000000000cce466a522984415bc91338c232d98869193d46e000000000000000000000000dd7b5e1db4aafd5c8ec3b764efb8ed265aa5445b0000000000000000000000000000000000000000000000000000000000000000), (30260, 2, 0x0000000000000000000000000000000000000000000000000000000000000020000000000000000000000000000000000000000000000000000000000000000000000000000000000000000000000000000000000000000000000000000000020000000000000000000000000000000000000000000000000000000000000000000000000000000000000000000000000000000000000000000000000000000000000000000000000000000000000000000000000000000000000000000000c000000000000000000000000000000000000000000000000000000000000001200000000000000000000000000000000000000000000000000000000000000002000000000000000000000000cce466a522984415bc91338c232d98869193d46e000000000000000000000000dd7b5e1db4aafd5c8ec3b764efb8ed265aa5445b0000000000000000000000000000000000000000000000000000000000000000), (30280, 2, 0x0000000000000000000000000000000000000000000000000000000000000020000000000000000000000000000000000000000000000000000000000000000000000000000000000000000000000000000000000000000000000000000000020000000000000000000000000000000000000000000000000000000000000000000000000000000000000000000000000000000000000000000000000000000000000000000000000000000000000000000000000000000000000000000000c000000000000000000000000000000000000000000000000000000000000001200000000000000000000000000000000000000000000000000000000000000002000000000000000000000000cce466a522984415bc91338c232d98869193d46e000000000000000000000000dd7b5e1db4aafd5c8ec3b764efb8ed265aa5445b0000000000000000000000000000000000000000000000000000000000000000), (30274, 2, 0x0000000000000000000000000000000000000000000000000000000000000020000000000000000000000000000000000000000000000000000000000000000000000000000000000000000000000000000000000000000000000000000000020000000000000000000000000000000000000000000000000000000000000000000000000000000000000000000000000000000000000000000000000000000000000000000000000000000000000000000000000000000000000000000000c000000000000000000000000000000000000000000000000000000000000001200000000000000000000000000000000000000000000000000000000000000002000000000000000000000000cce466a522984415bc91338c232d98869193d46e000000000000000000000000dd7b5e1db4aafd5c8ec3b764efb8ed265aa5445b0000000000000000000000000000000000000000000000000000000000000000)]"
      ],
      "transaction": {
        "from": "0x0990be6db8c785fbbf9ded8baec612a10cae814b",
        "to": "0x1a44076050125825900e736c501f859c50fe728c",
        "gas": "0x109421",
        "value": "0x0",
        "input": "0x6dbd9f9000000000000000000000000024d544c796f2b8f2e2514b312c6202b88f0496730000000000000000000000008bc1e36f015b9902b54b1387a4d733cebc2f5a4e0000000000000000000000000000000000000000000000000000000000000060000000000000000000000000000000000000000000000000000000000000000700000000000000000000000000000000000000000000000000000000000000e000000000000000000000000000000000000000000000000000000000000002c000000000000000000000000000000000000000000000000000000000000004a0000000000000000000000000000000000000000000000000000000000000068000000000000000000000000000000000000000000000000000000000000008600000000000000000000000000000000000000000000000000000000000000a400000000000000000000000000000000000000000000000000000000000000c2000000000000000000000000000000000000000000000000000000000000075950000000000000000000000000000000000000000000000000000000000000002000000000000000000000000000000000000000000000000000000000000006000000000000000000000000000000000000000000000000000000000000001600000000000000000000000000000000000000000000000000000000000000020000000000000000000000000000000000000000000000000000000000000000000000000000000000000000000000000000000000000000000000000000000020000000000000000000000000000000000000000000000000000000000000000000000000000000000000000000000000000000000000000000000000000000000000000000000000000000000000000000000000000000000000000000000c000000000000000000000000000000000000000000000000000000000000001200000000000000000000000000000000000000000000000000000000000000002000000000000000000000000cce466a522984415bc91338c232d98869193d46e000000000000000000000000dd7b5e1db4aafd5c8ec3b764efb8ed265aa5445b000000000000000000000000000000000000000000000000000000000000000000000000000000000000000000000000000000000000000000000000000076230000000000000000000000000000000000000000000000000000000000000002000000000000000000000000000000000000000000000000000000000000006000000000000000000000000000000000000000000000000000000000000001600000000000000000000000000000000000000000000000000000000000000020000000000000000000000000000000000000000000000000000000000000000000000000000000000000000000000000000000000000000000000000000000020000000000000000000000000000000000000000000000000000000000000000000000000000000000000000000000000000000000000000000000000000000000000000000000000000000000000000000000000000000000000000000000c000000000000000000000000000000000000000000000000000000000000001200000000000000000000000000000000000000000000000000000000000000002000000000000000000000000cce466a522984415bc91338c232d98869193d46e000000000000000000000000dd7b5e1db4aafd5c8ec3b764efb8ed265aa5445b000000000000000000000000000000000000000000000000000000000000000000000000000000000000000000000000000000000000000000000000000075c70000000000000000000000000000000000000000000000000000000000000002000000000000000000000000000000000000000000000000000000000000006000000000000000000000000000000000000000000000000000000000000001600000000000000000000000000000000000000000000000000000000000000020000000000000000000000000000000000000000000000000000000000000000000000000000000000000000000000000000000000000000000000000000000020000000000000000000000000000000000000000000000000000000000000000000000000000000000000000000000000000000000000000000000000000000000000000000000000000000000000000000000000000000000000000000000c000000000000000000000000000000000000000000000000000000000000001200000000000000000000000000000000000000000000000000000000000000002000000000000000000000000cce466a522984415bc91338c232d98869193d46e000000000000000000000000dd7b5e1db4aafd5c8ec3b764efb8ed265aa5445b000000000000000000000000000000000000000000000000000000000000000000000000000000000000000000000000000000000000000000000000000075e80000000000000000000000000000000000000000000000000000000000000002000000000000000000000000000000000000000000000000000000000000006000000000000000000000000000000000000000000000000000000000000001600000000000000000000000000000000000000000000000000000000000000020000000000000000000000000000000000000000000000000000000000000000000000000000000000000000000000000000000000000000000000000000000020000000000000000000000000000000000000000000000000000000000000000000000000000000000000000000000000000000000000000000000000000000000000000000000000000000000000000000000000000000000000000000000c000000000000000000000000000000000000000000000000000000000000001200000000000000000000000000000000000000000000000000000000000000002000000000000000000000000cce466a522984415bc91338c232d98869193d46e000000000000000000000000dd7b5e1db4aafd5c8ec3b764efb8ed265aa5445b000000000000000000000000000000000000000000000000000000000000000000000000000000000000000000000000000000000000000000000000000076340000000000000000000000000000000000000000000000000000000000000002000000000000000000000000000000000000000000000000000000000000006000000000000000000000000000000000000000000000000000000000000001600000000000000000000000000000000000000000000000000000000000000020000000000000000000000000000000000000000000000000000000000000000000000000000000000000000000000000000000000000000000000000000000020000000000000000000000000000000000000000000000000000000000000000000000000000000000000000000000000000000000000000000000000000000000000000000000000000000000000000000000000000000000000000000000c000000000000000000000000000000000000000000000000000000000000001200000000000000000000000000000000000000000000000000000000000000002000000000000000000000000cce466a522984415bc91338c232d98869193d46e000000000000000000000000dd7b5e1db4aafd5c8ec3b764efb8ed265aa5445b000000000000000000000000000000000000000000000000000000000000000000000000000000000000000000000000000000000000000000000000000076480000000000000000000000000000000000000000000000000000000000000002000000000000000000000000000000000000000000000000000000000000006000000000000000000000000000000000000000000000000000000000000001600000000000000000000000000000000000000000000000000000000000000020000000000000000000000000000000000000000000000000000000000000000000000000000000000000000000000000000000000000000000000000000000020000000000000000000000000000000000000000000000000000000000000000000000000000000000000000000000000000000000000000000000000000000000000000000000000000000000000000000000000000000000000000000000c000000000000000000000000000000000000000000000000000000000000001200000000000000000000000000000000000000000000000000000000000000002000000000000000000000000cce466a522984415bc91338c232d98869193d46e000000000000000000000000dd7b5e1db4aafd5c8ec3b764efb8ed265aa5445b000000000000000000000000000000000000000000000000000000000000000000000000000000000000000000000000000000000000000000000000000076420000000000000000000000000000000000000000000000000000000000000002000000000000000000000000000000000000000000000000000000000000006000000000000000000000000000000000000000000000000000000000000001600000000000000000000000000000000000000000000000000000000000000020000000000000000000000000000000000000000000000000000000000000000000000000000000000000000000000000000000000000000000000000000000020000000000000000000000000000000000000000000000000000000000000000000000000000000000000000000000000000000000000000000000000000000000000000000000000000000000000000000000000000000000000000000000c000000000000000000000000000000000000000000000000000000000000001200000000000000000000000000000000000000000000000000000000000000002000000000000000000000000cce466a522984415bc91338c232d98869193d46e000000000000000000000000dd7b5e1db4aafd5c8ec3b764efb8ed265aa5445b0000000000000000000000000000000000000000000000000000000000000000",
        "nonce": "0x5b",
        "chainId": "0xfc"
      },
      "additionalContracts": [],
      "isFixedGasLimit": false
    },
    {
      "hash": null,
      "transactionType": "CALL",
      "contractName": null,
      "contractAddress": "0x1a44076050125825900e736c501f859c50fe728c",
      "function": "setConfig(address,address,(uint32,uint32,bytes)[])",
      "arguments": [
        "0x24d544c796F2B8F2e2514b312c6202B88f049673",
        "0x377530cdA84DFb2673bF4d145DCF0C4D7fdcB5b6",
        "[(30101, 2, 0x0000000000000000000000000000000000000000000000000000000000000020000000000000000000000000000000000000000000000000000000000000000000000000000000000000000000000000000000000000000000000000000000020000000000000000000000000000000000000000000000000000000000000000000000000000000000000000000000000000000000000000000000000000000000000000000000000000000000000000000000000000000000000000000000c000000000000000000000000000000000000000000000000000000000000001200000000000000000000000000000000000000000000000000000000000000002000000000000000000000000cce466a522984415bc91338c232d98869193d46e000000000000000000000000dd7b5e1db4aafd5c8ec3b764efb8ed265aa5445b0000000000000000000000000000000000000000000000000000000000000000), (30243, 2, 0x0000000000000000000000000000000000000000000000000000000000000020000000000000000000000000000000000000000000000000000000000000000000000000000000000000000000000000000000000000000000000000000000020000000000000000000000000000000000000000000000000000000000000000000000000000000000000000000000000000000000000000000000000000000000000000000000000000000000000000000000000000000000000000000000c000000000000000000000000000000000000000000000000000000000000001200000000000000000000000000000000000000000000000000000000000000002000000000000000000000000cce466a522984415bc91338c232d98869193d46e000000000000000000000000dd7b5e1db4aafd5c8ec3b764efb8ed265aa5445b0000000000000000000000000000000000000000000000000000000000000000), (30151, 2, 0x0000000000000000000000000000000000000000000000000000000000000020000000000000000000000000000000000000000000000000000000000000000000000000000000000000000000000000000000000000000000000000000000020000000000000000000000000000000000000000000000000000000000000000000000000000000000000000000000000000000000000000000000000000000000000000000000000000000000000000000000000000000000000000000000c000000000000000000000000000000000000000000000000000000000000001200000000000000000000000000000000000000000000000000000000000000002000000000000000000000000cce466a522984415bc91338c232d98869193d46e000000000000000000000000dd7b5e1db4aafd5c8ec3b764efb8ed265aa5445b0000000000000000000000000000000000000000000000000000000000000000), (30184, 2, 0x0000000000000000000000000000000000000000000000000000000000000020000000000000000000000000000000000000000000000000000000000000000000000000000000000000000000000000000000000000000000000000000000020000000000000000000000000000000000000000000000000000000000000000000000000000000000000000000000000000000000000000000000000000000000000000000000000000000000000000000000000000000000000000000000c000000000000000000000000000000000000000000000000000000000000001200000000000000000000000000000000000000000000000000000000000000002000000000000000000000000cce466a522984415bc91338c232d98869193d46e000000000000000000000000dd7b5e1db4aafd5c8ec3b764efb8ed265aa5445b0000000000000000000000000000000000000000000000000000000000000000), (30260, 2, 0x0000000000000000000000000000000000000000000000000000000000000020000000000000000000000000000000000000000000000000000000000000000000000000000000000000000000000000000000000000000000000000000000020000000000000000000000000000000000000000000000000000000000000000000000000000000000000000000000000000000000000000000000000000000000000000000000000000000000000000000000000000000000000000000000c000000000000000000000000000000000000000000000000000000000000001200000000000000000000000000000000000000000000000000000000000000002000000000000000000000000cce466a522984415bc91338c232d98869193d46e000000000000000000000000dd7b5e1db4aafd5c8ec3b764efb8ed265aa5445b0000000000000000000000000000000000000000000000000000000000000000), (30280, 2, 0x0000000000000000000000000000000000000000000000000000000000000020000000000000000000000000000000000000000000000000000000000000000000000000000000000000000000000000000000000000000000000000000000020000000000000000000000000000000000000000000000000000000000000000000000000000000000000000000000000000000000000000000000000000000000000000000000000000000000000000000000000000000000000000000000c000000000000000000000000000000000000000000000000000000000000001200000000000000000000000000000000000000000000000000000000000000002000000000000000000000000cce466a522984415bc91338c232d98869193d46e000000000000000000000000dd7b5e1db4aafd5c8ec3b764efb8ed265aa5445b0000000000000000000000000000000000000000000000000000000000000000), (30274, 2, 0x0000000000000000000000000000000000000000000000000000000000000020000000000000000000000000000000000000000000000000000000000000000000000000000000000000000000000000000000000000000000000000000000020000000000000000000000000000000000000000000000000000000000000000000000000000000000000000000000000000000000000000000000000000000000000000000000000000000000000000000000000000000000000000000000c000000000000000000000000000000000000000000000000000000000000001200000000000000000000000000000000000000000000000000000000000000002000000000000000000000000cce466a522984415bc91338c232d98869193d46e000000000000000000000000dd7b5e1db4aafd5c8ec3b764efb8ed265aa5445b0000000000000000000000000000000000000000000000000000000000000000)]"
      ],
      "transaction": {
        "from": "0x0990be6db8c785fbbf9ded8baec612a10cae814b",
        "to": "0x1a44076050125825900e736c501f859c50fe728c",
        "gas": "0x1195c5",
        "value": "0x0",
        "input": "0x6dbd9f9000000000000000000000000024d544c796f2b8f2e2514b312c6202b88f049673000000000000000000000000377530cda84dfb2673bf4d145dcf0c4d7fdcb5b60000000000000000000000000000000000000000000000000000000000000060000000000000000000000000000000000000000000000000000000000000000700000000000000000000000000000000000000000000000000000000000000e000000000000000000000000000000000000000000000000000000000000002c000000000000000000000000000000000000000000000000000000000000004a0000000000000000000000000000000000000000000000000000000000000068000000000000000000000000000000000000000000000000000000000000008600000000000000000000000000000000000000000000000000000000000000a400000000000000000000000000000000000000000000000000000000000000c2000000000000000000000000000000000000000000000000000000000000075950000000000000000000000000000000000000000000000000000000000000002000000000000000000000000000000000000000000000000000000000000006000000000000000000000000000000000000000000000000000000000000001600000000000000000000000000000000000000000000000000000000000000020000000000000000000000000000000000000000000000000000000000000000000000000000000000000000000000000000000000000000000000000000000020000000000000000000000000000000000000000000000000000000000000000000000000000000000000000000000000000000000000000000000000000000000000000000000000000000000000000000000000000000000000000000000c000000000000000000000000000000000000000000000000000000000000001200000000000000000000000000000000000000000000000000000000000000002000000000000000000000000cce466a522984415bc91338c232d98869193d46e000000000000000000000000dd7b5e1db4aafd5c8ec3b764efb8ed265aa5445b000000000000000000000000000000000000000000000000000000000000000000000000000000000000000000000000000000000000000000000000000076230000000000000000000000000000000000000000000000000000000000000002000000000000000000000000000000000000000000000000000000000000006000000000000000000000000000000000000000000000000000000000000001600000000000000000000000000000000000000000000000000000000000000020000000000000000000000000000000000000000000000000000000000000000000000000000000000000000000000000000000000000000000000000000000020000000000000000000000000000000000000000000000000000000000000000000000000000000000000000000000000000000000000000000000000000000000000000000000000000000000000000000000000000000000000000000000c000000000000000000000000000000000000000000000000000000000000001200000000000000000000000000000000000000000000000000000000000000002000000000000000000000000cce466a522984415bc91338c232d98869193d46e000000000000000000000000dd7b5e1db4aafd5c8ec3b764efb8ed265aa5445b000000000000000000000000000000000000000000000000000000000000000000000000000000000000000000000000000000000000000000000000000075c70000000000000000000000000000000000000000000000000000000000000002000000000000000000000000000000000000000000000000000000000000006000000000000000000000000000000000000000000000000000000000000001600000000000000000000000000000000000000000000000000000000000000020000000000000000000000000000000000000000000000000000000000000000000000000000000000000000000000000000000000000000000000000000000020000000000000000000000000000000000000000000000000000000000000000000000000000000000000000000000000000000000000000000000000000000000000000000000000000000000000000000000000000000000000000000000c000000000000000000000000000000000000000000000000000000000000001200000000000000000000000000000000000000000000000000000000000000002000000000000000000000000cce466a522984415bc91338c232d98869193d46e000000000000000000000000dd7b5e1db4aafd5c8ec3b764efb8ed265aa5445b000000000000000000000000000000000000000000000000000000000000000000000000000000000000000000000000000000000000000000000000000075e80000000000000000000000000000000000000000000000000000000000000002000000000000000000000000000000000000000000000000000000000000006000000000000000000000000000000000000000000000000000000000000001600000000000000000000000000000000000000000000000000000000000000020000000000000000000000000000000000000000000000000000000000000000000000000000000000000000000000000000000000000000000000000000000020000000000000000000000000000000000000000000000000000000000000000000000000000000000000000000000000000000000000000000000000000000000000000000000000000000000000000000000000000000000000000000000c000000000000000000000000000000000000000000000000000000000000001200000000000000000000000000000000000000000000000000000000000000002000000000000000000000000cce466a522984415bc91338c232d98869193d46e000000000000000000000000dd7b5e1db4aafd5c8ec3b764efb8ed265aa5445b000000000000000000000000000000000000000000000000000000000000000000000000000000000000000000000000000000000000000000000000000076340000000000000000000000000000000000000000000000000000000000000002000000000000000000000000000000000000000000000000000000000000006000000000000000000000000000000000000000000000000000000000000001600000000000000000000000000000000000000000000000000000000000000020000000000000000000000000000000000000000000000000000000000000000000000000000000000000000000000000000000000000000000000000000000020000000000000000000000000000000000000000000000000000000000000000000000000000000000000000000000000000000000000000000000000000000000000000000000000000000000000000000000000000000000000000000000c000000000000000000000000000000000000000000000000000000000000001200000000000000000000000000000000000000000000000000000000000000002000000000000000000000000cce466a522984415bc91338c232d98869193d46e000000000000000000000000dd7b5e1db4aafd5c8ec3b764efb8ed265aa5445b000000000000000000000000000000000000000000000000000000000000000000000000000000000000000000000000000000000000000000000000000076480000000000000000000000000000000000000000000000000000000000000002000000000000000000000000000000000000000000000000000000000000006000000000000000000000000000000000000000000000000000000000000001600000000000000000000000000000000000000000000000000000000000000020000000000000000000000000000000000000000000000000000000000000000000000000000000000000000000000000000000000000000000000000000000020000000000000000000000000000000000000000000000000000000000000000000000000000000000000000000000000000000000000000000000000000000000000000000000000000000000000000000000000000000000000000000000c000000000000000000000000000000000000000000000000000000000000001200000000000000000000000000000000000000000000000000000000000000002000000000000000000000000cce466a522984415bc91338c232d98869193d46e000000000000000000000000dd7b5e1db4aafd5c8ec3b764efb8ed265aa5445b000000000000000000000000000000000000000000000000000000000000000000000000000000000000000000000000000000000000000000000000000076420000000000000000000000000000000000000000000000000000000000000002000000000000000000000000000000000000000000000000000000000000006000000000000000000000000000000000000000000000000000000000000001600000000000000000000000000000000000000000000000000000000000000020000000000000000000000000000000000000000000000000000000000000000000000000000000000000000000000000000000000000000000000000000000020000000000000000000000000000000000000000000000000000000000000000000000000000000000000000000000000000000000000000000000000000000000000000000000000000000000000000000000000000000000000000000000c000000000000000000000000000000000000000000000000000000000000001200000000000000000000000000000000000000000000000000000000000000002000000000000000000000000cce466a522984415bc91338c232d98869193d46e000000000000000000000000dd7b5e1db4aafd5c8ec3b764efb8ed265aa5445b0000000000000000000000000000000000000000000000000000000000000000",
        "nonce": "0x5c",
        "chainId": "0xfc"
      },
      "additionalContracts": [],
      "isFixedGasLimit": false
    },
    {
      "hash": null,
      "transactionType": "CALL",
      "contractName": "TransparentUpgradeableProxy",
      "contractAddress": "0x3d9ec5191af8447bbcb61ff460944056be350013",
      "function": null,
      "arguments": null,
      "transaction": {
        "from": "0x0990be6db8c785fbbf9ded8baec612a10cae814b",
        "to": "0x3d9ec5191af8447bbcb61ff460944056be350013",
        "gas": "0x128d1",
        "value": "0x0",
        "input": "0x3400288b000000000000000000000000000000000000000000000000000000000000763400000000000000000000000080eede496655fb9047dd39d9f418d5483ed600df",
        "nonce": "0x5d",
        "chainId": "0xfc"
      },
      "additionalContracts": [],
      "isFixedGasLimit": false
    },
    {
      "hash": null,
      "transactionType": "CALL",
      "contractName": "TransparentUpgradeableProxy",
      "contractAddress": "0x3d9ec5191af8447bbcb61ff460944056be350013",
      "function": null,
      "arguments": null,
      "transaction": {
        "from": "0x0990be6db8c785fbbf9ded8baec612a10cae814b",
        "to": "0x3d9ec5191af8447bbcb61ff460944056be350013",
        "gas": "0x128d1",
        "value": "0x0",
        "input": "0x3400288b000000000000000000000000000000000000000000000000000000000000764800000000000000000000000080eede496655fb9047dd39d9f418d5483ed600df",
        "nonce": "0x5e",
        "chainId": "0xfc"
      },
      "additionalContracts": [],
      "isFixedGasLimit": false
    },
    {
      "hash": null,
      "transactionType": "CALL",
      "contractName": "TransparentUpgradeableProxy",
      "contractAddress": "0x3d9ec5191af8447bbcb61ff460944056be350013",
      "function": null,
      "arguments": null,
      "transaction": {
        "from": "0x0990be6db8c785fbbf9ded8baec612a10cae814b",
        "to": "0x3d9ec5191af8447bbcb61ff460944056be350013",
        "gas": "0x128d1",
        "value": "0x0",
        "input": "0x3400288b000000000000000000000000000000000000000000000000000000000000764200000000000000000000000080eede496655fb9047dd39d9f418d5483ed600df",
        "nonce": "0x5f",
        "chainId": "0xfc"
      },
      "additionalContracts": [],
      "isFixedGasLimit": false
    },
    {
      "hash": null,
      "transactionType": "CALL",
      "contractName": "TransparentUpgradeableProxy",
      "contractAddress": "0x24d544c796f2b8f2e2514b312c6202b88f049673",
      "function": null,
      "arguments": null,
      "transaction": {
        "from": "0x0990be6db8c785fbbf9ded8baec612a10cae814b",
        "to": "0x24d544c796f2b8f2e2514b312c6202b88f049673",
        "gas": "0x128e1",
        "value": "0x0",
        "input": "0x3400288b00000000000000000000000000000000000000000000000000000000000076340000000000000000000000005bff88ca1442c2496f7e475e9e7786383bc070c0",
        "nonce": "0x60",
        "chainId": "0xfc"
      },
      "additionalContracts": [],
      "isFixedGasLimit": false
    },
    {
      "hash": null,
      "transactionType": "CALL",
      "contractName": "TransparentUpgradeableProxy",
      "contractAddress": "0x24d544c796f2b8f2e2514b312c6202b88f049673",
      "function": null,
      "arguments": null,
      "transaction": {
        "from": "0x0990be6db8c785fbbf9ded8baec612a10cae814b",
        "to": "0x24d544c796f2b8f2e2514b312c6202b88f049673",
        "gas": "0x128e1",
        "value": "0x0",
        "input": "0x3400288b00000000000000000000000000000000000000000000000000000000000076480000000000000000000000005bff88ca1442c2496f7e475e9e7786383bc070c0",
        "nonce": "0x61",
        "chainId": "0xfc"
      },
      "additionalContracts": [],
      "isFixedGasLimit": false
    },
    {
      "hash": null,
      "transactionType": "CALL",
      "contractName": "TransparentUpgradeableProxy",
      "contractAddress": "0x24d544c796f2b8f2e2514b312c6202b88f049673",
      "function": null,
      "arguments": null,
      "transaction": {
        "from": "0x0990be6db8c785fbbf9ded8baec612a10cae814b",
        "to": "0x24d544c796f2b8f2e2514b312c6202b88f049673",
        "gas": "0x128e1",
        "value": "0x0",
        "input": "0x3400288b00000000000000000000000000000000000000000000000000000000000076420000000000000000000000005bff88ca1442c2496f7e475e9e7786383bc070c0",
        "nonce": "0x62",
        "chainId": "0xfc"
      },
      "additionalContracts": [],
      "isFixedGasLimit": false
    },
    {
      "hash": null,
      "transactionType": "CALL",
      "contractName": "TransparentUpgradeableProxy",
      "contractAddress": "0x3d9ec5191af8447bbcb61ff460944056be350013",
      "function": null,
      "arguments": null,
      "transaction": {
        "from": "0x0990be6db8c785fbbf9ded8baec612a10cae814b",
        "to": "0x3d9ec5191af8447bbcb61ff460944056be350013",
        "gas": "0xea6b",
        "value": "0x0",
        "input": "0xca5eb5e10000000000000000000000005f25218ed9474b721d6a38c115107428e832fa2e",
        "nonce": "0x63",
        "chainId": "0xfc"
      },
      "additionalContracts": [],
      "isFixedGasLimit": false
    },
    {
      "hash": null,
      "transactionType": "CALL",
      "contractName": "TransparentUpgradeableProxy",
      "contractAddress": "0x3d9ec5191af8447bbcb61ff460944056be350013",
      "function": null,
      "arguments": null,
      "transaction": {
        "from": "0x0990be6db8c785fbbf9ded8baec612a10cae814b",
        "to": "0x3d9ec5191af8447bbcb61ff460944056be350013",
        "gas": "0xcd59",
        "value": "0x0",
        "input": "0xf2fde38b0000000000000000000000005f25218ed9474b721d6a38c115107428e832fa2e",
        "nonce": "0x64",
        "chainId": "0xfc"
      },
      "additionalContracts": [],
      "isFixedGasLimit": false
    },
    {
      "hash": null,
      "transactionType": "CALL",
      "contractName": "TransparentUpgradeableProxy",
      "contractAddress": "0x24d544c796f2b8f2e2514b312c6202b88f049673",
      "function": null,
      "arguments": null,
      "transaction": {
        "from": "0x0990be6db8c785fbbf9ded8baec612a10cae814b",
        "to": "0x24d544c796f2b8f2e2514b312c6202b88f049673",
        "gas": "0xea6b",
        "value": "0x0",
        "input": "0xca5eb5e10000000000000000000000005f25218ed9474b721d6a38c115107428e832fa2e",
        "nonce": "0x65",
        "chainId": "0xfc"
      },
      "additionalContracts": [],
      "isFixedGasLimit": false
    },
    {
      "hash": null,
      "transactionType": "CALL",
      "contractName": "TransparentUpgradeableProxy",
      "contractAddress": "0x24d544c796f2b8f2e2514b312c6202b88f049673",
      "function": null,
      "arguments": null,
      "transaction": {
        "from": "0x0990be6db8c785fbbf9ded8baec612a10cae814b",
        "to": "0x24d544c796f2b8f2e2514b312c6202b88f049673",
        "gas": "0xcd59",
        "value": "0x0",
        "input": "0xf2fde38b0000000000000000000000005f25218ed9474b721d6a38c115107428e832fa2e",
        "nonce": "0x66",
        "chainId": "0xfc"
      },
      "additionalContracts": [],
      "isFixedGasLimit": false
    }
  ],
  "receipts": [],
  "libraries": [],
  "pending": [],
  "returns": {},
  "timestamp": 1732148085,
  "chain": 252,
  "commit": "2660007"
}