{
  "transactions": [
    {
      "hash": null,
      "transactionType": "CREATE",
      "contractName": "OFTUpgradeableMock",
      "contractAddress": "0x36076294472daf59391a7ddbedebf4b681d823c7",
      "function": null,
      "arguments": [
        "0x1a44076050125825900e736c501f859c50fE728c"
      ],
      "transaction": {
        "from": "0x0990be6db8c785fbbf9ded8baec612a10cae814b",
        "gas": "0x40e7fb",
        "value": "0x0",
        "input": "0x60c06040523480156200001157600080fd5b5060405162003c7738038062003c7783398101604081905262000034916200006d565b6001600160a01b0381166080528060128162000052600683620000b5565b6200005f90600a620001d4565b60a05250620001e592505050565b6000602082840312156200008057600080fd5b81516001600160a01b03811681146200009857600080fd5b9392505050565b634e487b7160e01b600052601160045260246000fd5b60ff8281168282160390811115620000d157620000d16200009f565b92915050565b600181815b8085111562000118578160001904821115620000fc57620000fc6200009f565b808516156200010a57918102915b93841c9390800290620000dc565b509250929050565b6000826200013157506001620000d1565b816200014057506000620000d1565b8160018114620001595760028114620001645762000184565b6001915050620000d1565b60ff8411156200017857620001786200009f565b50506001821b620000d1565b5060208310610133831016604e8410600b8410161715620001a9575081810a620000d1565b620001b58383620000d7565b8060001904821115620001cc57620001cc6200009f565b029392505050565b60006200009860ff84168362000120565b60805160a051613a26620002516000396000818161066b0152818161217d015281816121f201526122b801526000818161054a01528181610b5d0152818161154001528181611a0c01528181611eb301528181612010015281816124b701526125700152613a266000f3fe60806040526004361061027d5760003560e01c80637d25a05e1161014f578063bb0b6a53116100c1578063d42438851161007a578063d4243885146107dd578063dd62ed3e146107fd578063e742806a1461081d578063f2fde38b1461083c578063fc0c546a146104c1578063ff7bd03d1461085c57600080fd5b8063bb0b6a5314610716578063bc70b35414610756578063bd815db014610776578063c7c7f5b314610789578063ca5eb5e1146107aa578063d045a0dc146107ca57600080fd5b80639f68b964116101135780639f68b9641461068d578063a457c2d7146106a1578063a9059cbb146106c1578063b731ea0a146106e1578063b92d0eff146104c1578063b98bd070146106f657600080fd5b80637d25a05e146105d7578063857749b0146106125780638da5cb5b1461062657806395d89b4114610644578063963efcaa1461065957600080fd5b806323b872dd116101f35780635535d461116101ac5780635535d461146104d45780635a0dfe4d146104f45780635e280f11146105385780636fc1b31e1461056c57806370a082311461058c578063715018a6146105c257600080fd5b806323b872dd14610412578063313ce567146104325780633400288b1461045457806339509351146104745780633b6f743b1461049457806352ae2879146104c157600080fd5b806313137d651161024557806313137d651461035b578063134d4f251461036e578063156a0d0f1461039657806317442b70146103bd57806318160ddd146103de5780631f5e1334146103fd57600080fd5b806306fdde0314610282578063077f224a146102ad578063095ea7b3146102cf5780630d35b415146102ff578063111ecdad1461032e575b600080fd5b34801561028e57600080fd5b5061029761087c565b6040516102a491906129ed565b60405180910390f35b3480156102b957600080fd5b506102cd6102c8366004612b00565b61090e565b005b3480156102db57600080fd5b506102ef6102ea366004612b77565b610a3b565b60405190151581526020016102a4565b34801561030b57600080fd5b5061031f61031a366004612bbb565b610a55565b6040516102a493929190612bef565b34801561033a57600080fd5b50610343610b26565b6040516001600160a01b0390911681526020016102a4565b6102cd610369366004612ce2565b610b5b565b34801561037a57600080fd5b50610383600281565b60405161ffff90911681526020016102a4565b3480156103a257600080fd5b506040805162b9270b60e21b815260016020820152016102a4565b3480156103c957600080fd5b506040805160018082526020820152016102a4565b3480156103ea57600080fd5b506067545b6040519081526020016102a4565b34801561040957600080fd5b50610383600181565b34801561041e57600080fd5b506102ef61042d366004612d81565b610c16565b34801561043e57600080fd5b5060125b60405160ff90911681526020016102a4565b34801561046057600080fd5b506102cd61046f366004612ddb565b610c3c565b34801561048057600080fd5b506102ef61048f366004612b77565b610ca9565b3480156104a057600080fd5b506104b46104af366004612e05565b610ccb565b6040516102a49190612e56565b3480156104cd57600080fd5b5030610343565b3480156104e057600080fd5b506102976104ef366004612e7f565b610d32565b34801561050057600080fd5b506102ef61050f366004612ddb565b63ffffffff9190911660009081526000805160206139d183398151915260205260409020541490565b34801561054457600080fd5b506103437f000000000000000000000000000000000000000000000000000000000000000081565b34801561057857600080fd5b506102cd610587366004612eb2565b610e0d565b34801561059857600080fd5b506103ef6105a7366004612eb2565b6001600160a01b031660009081526065602052604090205490565b3480156105ce57600080fd5b506102cd610e89565b3480156105e357600080fd5b506105fa6105f2366004612ddb565b600092915050565b6040516001600160401b0390911681526020016102a4565b34801561061e57600080fd5b506006610442565b34801561063257600080fd5b506033546001600160a01b0316610343565b34801561065057600080fd5b50610297610e9d565b34801561066557600080fd5b506103ef7f000000000000000000000000000000000000000000000000000000000000000081565b34801561069957600080fd5b5060006102ef565b3480156106ad57600080fd5b506102ef6106bc366004612b77565b610eac565b3480156106cd57600080fd5b506102ef6106dc366004612b77565b610f32565b3480156106ed57600080fd5b50610343610f40565b34801561070257600080fd5b506102cd610711366004612f13565b610f69565b34801561072257600080fd5b506103ef610731366004612f54565b63ffffffff1660009081526000805160206139d1833981519152602052604090205490565b34801561076257600080fd5b50610297610771366004612f6f565b6110ea565b6102cd610784366004612f13565b611288565b61079c610797366004612fcf565b61141f565b6040516102a4929190613031565b3480156107b657600080fd5b506102cd6107c5366004612eb2565b611519565b6102cd6107d8366004612ce2565b61159f565b3480156107e957600080fd5b506102cd6107f8366004612eb2565b6115ce565b34801561080957600080fd5b506103ef610818366004613083565b611642565b34801561082957600080fd5b506102cd610838366004612b77565b5050565b34801561084857600080fd5b506102cd610857366004612eb2565b61166d565b34801561086857600080fd5b506102ef6108773660046130b1565b6116e6565b60606068805461088b906130cd565b80601f01602080910402602001604051908101604052809291908181526020018280546108b7906130cd565b80156109045780601f106108d957610100808354040283529160200191610904565b820191906000526020600020905b8154815290600101906020018083116108e757829003601f168201915b5050505050905090565b600054610100900460ff161580801561092e5750600054600160ff909116105b806109485750303b158015610948575060005460ff166001145b6109b05760405162461bcd60e51b815260206004820152602e60248201527f496e697469616c697a61626c653a20636f6e747261637420697320616c72656160448201526d191e481a5b9a5d1a585b1a5e995960921b60648201526084015b60405180910390fd5b6000805460ff1916600117905580156109d3576000805461ff0019166101001790555b6109de848484611704565b6109e6611743565b6109ef82611772565b8015610a35576000805461ff0019169055604051600181527f7f26b83ff96e1f2b6a682f133852f6798a09c465da95921460cefb38474024989060200160405180910390a15b50505050565b600033610a498185856117c4565b60019150505b92915050565b60408051808201909152600080825260208201526060610a88604051806040016040528060008152602001600081525090565b60408051808201825260008082526001600160401b03602080840182905284518381529081019094529195509182610ae3565b604080518082019091526000815260606020820152815260200190600190039081610abb5790505b509350600080610b08604089013560608a0135610b0360208c018c612f54565b6118e8565b60408051808201909152918252602082015296989597505050505050565b6000807f41db8a78b0206aba5c54bcbfc2bda0d84082a84eb88e680379a57b9e9f653c005b546001600160a01b031692915050565b7f00000000000000000000000000000000000000000000000000000000000000006001600160a01b03163314610ba6576040516391ac5e4f60e01b81523360048201526024016109a7565b60208701803590610bc090610bbb908a612f54565b61192c565b14610bfe57610bd26020880188612f54565b60405163309afaf360e21b815263ffffffff9091166004820152602088013560248201526044016109a7565b610c0d87878787878787611977565b50505050505050565b600033610c24858285611ade565b610c2f858585611b52565b60019150505b9392505050565b610c44611cfd565b63ffffffff821660008181526000805160206139d1833981519152602081815260409283902085905582519384528301849052917f238399d427b947898edb290f5ff0f9109849b1c3ba196a42e35f00c50a54b98b91015b60405180910390a1505050565b600033610a49818585610cbc8383611642565b610cc69190613117565b6117c4565b60408051808201909152600080825260208201526000610cfb60408501356060860135610b036020880188612f54565b915050600080610d0b8684611d57565b9092509050610d28610d206020880188612f54565b838388611e9d565b9695505050505050565b63ffffffff821660009081527f8d2bda5d9f6ffb5796910376005392955773acee5548d0fcdb10e7c264ea00006020818152604080842061ffff8616855290915290912080546060929190610d86906130cd565b80601f0160208091040260200160405190810160405280929190818152602001828054610db2906130cd565b8015610dff5780601f10610dd457610100808354040283529160200191610dff565b820191906000526020600020905b815481529060010190602001808311610de257829003601f168201915b505050505091505092915050565b610e15611cfd565b7f41db8a78b0206aba5c54bcbfc2bda0d84082a84eb88e680379a57b9e9f653c0080546001600160a01b0319166001600160a01b03831690811782556040519081527ff0be4f1e87349231d80c36b33f9e8639658eeaf474014dee15a3e6a4d4414197906020015b60405180910390a15050565b610e91611cfd565b610e9b6000611772565b565b60606069805461088b906130cd565b60003381610eba8286611642565b905083811015610f1a5760405162461bcd60e51b815260206004820152602560248201527f45524332303a2064656372656173656420616c6c6f77616e63652062656c6f77604482015264207a65726f60d81b60648201526084016109a7565b610f2782868684036117c4565b506001949350505050565b600033610a49818585611b52565b6000807fefb041d771d6daaa55702fff6eb740d63ba559a75d2d1d3e151c78ff2480b600610b4b565b610f71611cfd565b7f8d2bda5d9f6ffb5796910376005392955773acee5548d0fcdb10e7c264ea000060005b828110156110b857610fd7848483818110610fb257610fb261312a565b9050602002810190610fc49190613140565b610fd2906040810190613160565b611f7e565b838382818110610fe957610fe961312a565b9050602002810190610ffb9190613140565b611009906040810190613160565b83600087878681811061101e5761101e61312a565b90506020028101906110309190613140565b61103e906020810190612f54565b63ffffffff1663ffffffff168152602001908152602001600020600087878681811061106c5761106c61312a565b905060200281019061107e9190613140565b61108f9060408101906020016131a6565b61ffff1681526020810191909152604001600020916110af919083613211565b50600101610f95565b507fbe4864a8e820971c0247f5992e2da559595f7bf076a21cb5928d443d2a13b6748383604051610c9c9291906132f9565b63ffffffff841660009081527f8d2bda5d9f6ffb5796910376005392955773acee5548d0fcdb10e7c264ea00006020818152604080842061ffff8816855290915282208054606093919061113d906130cd565b80601f0160208091040260200160405190810160405280929190818152602001828054611169906130cd565b80156111b65780601f1061118b576101008083540402835291602001916111b6565b820191906000526020600020905b81548152906001019060200180831161119957829003601f168201915b5050505050905080516000036112075784848080601f016020809104026020016040519081016040528093929190818152602001838380828437600092019190915250929550611280945050505050565b60008490036112195791506112809050565b600284106112635761122b8585611f7e565b8061123985600281896133dd565b60405160200161124b93929190613407565b60405160208183030381529060405292505050611280565b8484604051639a6d49cd60e01b81526004016109a792919061342f565b949350505050565b60005b8181101561139e57368383838181106112a6576112a661312a565b90506020028101906112b89190613443565b90506112f86112ca6020830183612f54565b602083013563ffffffff9190911660009081526000805160206139d183398151915260205260409020541490565b6113025750611396565b3063d045a0dc60c08301358360a0810135611321610100830183613160565b611332610100890160e08a01612eb2565b6113406101208a018a613160565b6040518963ffffffff1660e01b8152600401611362979695949392919061346f565b6000604051808303818588803b15801561137b57600080fd5b505af115801561138f573d6000803e3d6000fd5b5050505050505b60010161128b565b50336001600160a01b0316638e9e70996040518163ffffffff1660e01b8152600401600060405180830381865afa1580156113dd573d6000803e3d6000fd5b505050506040513d6000823e601f3d908101601f1916820160405261140591908101906134f5565b604051638351eea760e01b81526004016109a791906129ed565b611427612956565b604080518082019091526000808252602082015260008061145d6040880135606089013561145860208b018b612f54565b611fc0565b9150915060008061146e8984611d57565b909250905061149a61148360208b018b612f54565b8383611494368d90038d018d613562565b8b611fdd565b60408051808201909152858152602080820186905282519298509096503391907f85496b760a4b7f8d66384b9df21b381f5d1b1e79f229a47aaf4c232edc2fe59a906114e8908d018d612f54565b6040805163ffffffff909216825260208201899052810187905260600160405180910390a350505050935093915050565b611521611cfd565b60405163ca5eb5e160e01b81526001600160a01b0382811660048301527f0000000000000000000000000000000000000000000000000000000000000000169063ca5eb5e190602401600060405180830381600087803b15801561158457600080fd5b505af1158015611598573d6000803e3d6000fd5b5050505050565b3330146115bf5760405163029a949d60e31b815260040160405180910390fd5b610c0d87878787878787610bfe565b6115d6611cfd565b7fefb041d771d6daaa55702fff6eb740d63ba559a75d2d1d3e151c78ff2480b60080546001600160a01b0319166001600160a01b03831690811782556040519081527fd48d879cef83a1c0bdda516f27b13ddb1b3f8bbac1c9e1511bb2a659c242776090602001610e7d565b6001600160a01b03918216600090815260666020908152604080832093909416825291909152205490565b611675611cfd565b6001600160a01b0381166116da5760405162461bcd60e51b815260206004820152602660248201527f4f776e61626c653a206e6577206f776e657220697320746865207a65726f206160448201526564647265737360d01b60648201526084016109a7565b6116e381611772565b50565b6000602082018035906116fd906107319085612f54565b1492915050565b600054610100900460ff1661172b5760405162461bcd60e51b81526004016109a790613594565b61173583836120e8565b61173e81612119565b505050565b600054610100900460ff1661176a5760405162461bcd60e51b81526004016109a790613594565b610e9b612149565b603380546001600160a01b038381166001600160a01b0319831681179093556040519116919082907f8be0079c531659141344cd1fd0a4f28419497f9722a3daafe3b4186f6b6457e090600090a35050565b6001600160a01b0383166118265760405162461bcd60e51b8152602060048201526024808201527f45524332303a20617070726f76652066726f6d20746865207a65726f206164646044820152637265737360e01b60648201526084016109a7565b6001600160a01b0382166118875760405162461bcd60e51b815260206004820152602260248201527f45524332303a20617070726f766520746f20746865207a65726f206164647265604482015261737360f01b60648201526084016109a7565b6001600160a01b0383811660008181526066602090815260408083209487168084529482529182902085905590518481527f8c5be1e5ebec7d5bd14f71427d1e84f3dd0314c0f7b2291e5b200ac8c7c3b925910160405180910390a3505050565b6000806118f485612179565b915081905083811015611924576040516371c4efed60e01b815260048101829052602481018590526044016109a7565b935093915050565b63ffffffff811660009081526000805160206139d18339815191526020819052604082205480610c355760405163f6ff4fb760e01b815263ffffffff851660048201526024016109a7565b600061198961198687876121b0565b90565b905060006119b5826119a361199e8a8a6121c8565b6121eb565b6119b060208d018d612f54565b612220565b90506028861115611a7c5760006119f26119d560608c0160408d016135df565b6119e260208d018d612f54565b846119ed8c8c612234565b61227f565b604051633e5ac80960e11b81529091506001600160a01b037f00000000000000000000000000000000000000000000000000000000000000001690637cb5901290611a489086908d9060009087906004016135fc565b600060405180830381600087803b158015611a6257600080fd5b505af1158015611a76573d6000803e3d6000fd5b50505050505b6001600160a01b038216887fefed6d3500546b29533b128a29e3a94d70788727f0507505ac12eaf2e578fd9c611ab560208d018d612f54565b6040805163ffffffff9092168252602082018690520160405180910390a3505050505050505050565b6000611aea8484611642565b90506000198114610a355781811015611b455760405162461bcd60e51b815260206004820152601d60248201527f45524332303a20696e73756666696369656e7420616c6c6f77616e636500000060448201526064016109a7565b610a3584848484036117c4565b6001600160a01b038316611bb65760405162461bcd60e51b815260206004820152602560248201527f45524332303a207472616e736665722066726f6d20746865207a65726f206164604482015264647265737360d81b60648201526084016109a7565b6001600160a01b038216611c185760405162461bcd60e51b815260206004820152602360248201527f45524332303a207472616e7366657220746f20746865207a65726f206164647260448201526265737360e81b60648201526084016109a7565b6001600160a01b03831660009081526065602052604090205481811015611c905760405162461bcd60e51b815260206004820152602660248201527f45524332303a207472616e7366657220616d6f756e7420657863656564732062604482015265616c616e636560d01b60648201526084016109a7565b6001600160a01b0380851660008181526065602052604080822086860390559286168082529083902080548601905591517fddf252ad1be2c89b69c2b068fc378daa952ba7f163c4a11628f55a4df523b3ef90611cf09086815260200190565b60405180910390a3610a35565b6033546001600160a01b03163314610e9b5760405162461bcd60e51b815260206004820181905260248201527f4f776e61626c653a2063616c6c6572206973206e6f7420746865206f776e657260448201526064016109a7565b6060806000611db48560200135611d6d866122b1565b611d7a60a0890189613160565b8080601f0160208091040260200160405190810160405280939291908181526020018383808284376000920191909152506122dd92505050565b9093509050600081611dc7576001611dca565b60025b9050611dea611ddc6020880188612f54565b8261077160808a018a613160565b7f41db8a78b0206aba5c54bcbfc2bda0d84082a84eb88e680379a57b9e9f653c008054919450906001600160a01b031615611e9357805460405163043a78eb60e01b81526001600160a01b039091169063043a78eb90611e50908890889060040161362d565b602060405180830381865afa158015611e6d573d6000803e3d6000fd5b505050506040513d601f19601f82011682018060405250810190611e919190613652565b505b5050509250929050565b60408051808201909152600080825260208201527f00000000000000000000000000000000000000000000000000000000000000006001600160a01b031663ddc28c586040518060a001604052808863ffffffff168152602001611f008961192c565b8152602001878152602001868152602001851515815250306040518363ffffffff1660e01b8152600401611f3592919061366f565b6040805180830381865afa158015611f51573d6000803e3d6000fd5b505050506040513d601f19601f82011682018060405250810190611f759190613718565b95945050505050565b6000611f8d60028284866133dd565b611f9691613734565b60f01c90506003811461173e578282604051639a6d49cd60e01b81526004016109a792919061342f565b600080611fce8585856118e8565b90925090506119243383612357565b611fe5612956565b6000611ff4846000015161248b565b60208501519091501561200e5761200e84602001516124b3565b7f00000000000000000000000000000000000000000000000000000000000000006001600160a01b0316632637a450826040518060a001604052808b63ffffffff16815260200161205e8c61192c565b81526020018a815260200189815260200160008960200151111515815250866040518463ffffffff1660e01b815260040161209a92919061366f565b60806040518083038185885af11580156120b8573d6000803e3d6000fd5b50505050506040513d601f19601f820116820180604052508101906120dd9190613764565b979650505050505050565b600054610100900460ff1661210f5760405162461bcd60e51b81526004016109a790613594565b6108388282612595565b600054610100900460ff166121405760405162461bcd60e51b81526004016109a790613594565b6116e3816125d5565b600054610100900460ff166121705760405162461bcd60e51b81526004016109a790613594565b610e9b33611772565b60007f00000000000000000000000000000000000000000000000000000000000000006121a681846137cb565b610a4f91906137ed565b60006121bf60208284866133dd565b610c3591613804565b60006121d86028602084866133dd565b6121e191613822565b60c01c9392505050565b6000610a4f7f00000000000000000000000000000000000000000000000000000000000000006001600160401b0384166137ed565b600061222c8484612605565b509092915050565b606061224382602881866133dd565b8080601f016020809104026020016040519081016040528093929190818152602001838380828437600092019190915250929695505050505050565b6060848484846040516020016122989493929190613850565b6040516020818303038152906040529050949350505050565b6000610a4f7f0000000000000000000000000000000000000000000000000000000000000000836137cb565b805160609015158061232657848460405160200161231292919091825260c01b6001600160c01b031916602082015260280190565b60405160208183030381529060405261234d565b8484338560405160200161233d949392919061389f565b6040516020818303038152906040525b9150935093915050565b6001600160a01b0382166123b75760405162461bcd60e51b815260206004820152602160248201527f45524332303a206275726e2066726f6d20746865207a65726f206164647265736044820152607360f81b60648201526084016109a7565b6001600160a01b0382166000908152606560205260409020548181101561242b5760405162461bcd60e51b815260206004820152602260248201527f45524332303a206275726e20616d6f756e7420657863656564732062616c616e604482015261636560f01b60648201526084016109a7565b6001600160a01b03831660008181526065602090815260408083208686039055606780548790039055518581529192917fddf252ad1be2c89b69c2b068fc378daa952ba7f163c4a11628f55a4df523b3ef910160405180910390a3505050565b60008134146124af576040516304fb820960e51b81523460048201526024016109a7565b5090565b60007f00000000000000000000000000000000000000000000000000000000000000006001600160a01b031663e4fe1d946040518163ffffffff1660e01b8152600401602060405180830381865afa158015612513573d6000803e3d6000fd5b505050506040513d601f19601f8201168201806040525081019061253791906138e2565b90506001600160a01b038116612560576040516329b99a9560e11b815260040160405180910390fd5b6108386001600160a01b038216337f0000000000000000000000000000000000000000000000000000000000000000856126c6565b600054610100900460ff166125bc5760405162461bcd60e51b81526004016109a790613594565b60686125c883826138ff565b50606961173e82826138ff565b600054610100900460ff166125fc5760405162461bcd60e51b81526004016109a790613594565b6116e381612720565b6001600160a01b03821661265b5760405162461bcd60e51b815260206004820152601f60248201527f45524332303a206d696e7420746f20746865207a65726f20616464726573730060448201526064016109a7565b806067600082825461266d9190613117565b90915550506001600160a01b0382166000818152606560209081526040808320805486019055518481527fddf252ad1be2c89b69c2b068fc378daa952ba7f163c4a11628f55a4df523b3ef910160405180910390a35050565b604080516001600160a01b0385811660248301528416604482015260648082018490528251808303909101815260849091019091526020810180516001600160e01b03166323b872dd60e01b179052610a3590859061276e565b600054610100900460ff166127475760405162461bcd60e51b81526004016109a790613594565b6001600160a01b03811661152157604051632d618d8160e21b815260040160405180910390fd5b60006127c3826040518060400160405280602081526020017f5361666545524332303a206c6f772d6c6576656c2063616c6c206661696c6564815250856001600160a01b03166128439092919063ffffffff16565b90508051600014806127e45750808060200190518101906127e49190613652565b61173e5760405162461bcd60e51b815260206004820152602a60248201527f5361666545524332303a204552433230206f7065726174696f6e20646964206e6044820152691bdd081cdd58d8d9595960b21b60648201526084016109a7565b6060611280848460008585600080866001600160a01b0316858760405161286a91906139be565b60006040518083038185875af1925050503d80600081146128a7576040519150601f19603f3d011682016040523d82523d6000602084013e6128ac565b606091505b50915091506120dd8783838760608315612927578251600003612920576001600160a01b0385163b6129205760405162461bcd60e51b815260206004820152601d60248201527f416464726573733a2063616c6c20746f206e6f6e2d636f6e747261637400000060448201526064016109a7565b5081611280565b611280838381511561293c5781518083602001fd5b8060405162461bcd60e51b81526004016109a791906129ed565b60405180606001604052806000801916815260200160006001600160401b03168152602001612998604051806040016040528060008152602001600081525090565b905290565b60005b838110156129b85781810151838201526020016129a0565b50506000910152565b600081518084526129d981602086016020860161299d565b601f01601f19169290920160200192915050565b602081526000610c3560208301846129c1565b634e487b7160e01b600052604160045260246000fd5b604080519081016001600160401b0381118282101715612a3857612a38612a00565b60405290565b604051601f8201601f191681016001600160401b0381118282101715612a6657612a66612a00565b604052919050565b60006001600160401b03821115612a8757612a87612a00565b50601f01601f191660200190565b600082601f830112612aa657600080fd5b8135612ab9612ab482612a6e565b612a3e565b818152846020838601011115612ace57600080fd5b816020850160208301376000918101602001919091529392505050565b6001600160a01b03811681146116e357600080fd5b600080600060608486031215612b1557600080fd5b83356001600160401b0380821115612b2c57600080fd5b612b3887838801612a95565b94506020860135915080821115612b4e57600080fd5b50612b5b86828701612a95565b9250506040840135612b6c81612aeb565b809150509250925092565b60008060408385031215612b8a57600080fd5b8235612b9581612aeb565b946020939093013593505050565b600060e08284031215612bb557600080fd5b50919050565b600060208284031215612bcd57600080fd5b81356001600160401b03811115612be357600080fd5b61128084828501612ba3565b8351815260208085015190820152600060a08201604060a0604085015281865180845260c08601915060c08160051b8701019350602080890160005b83811015612c6a5788870360bf19018552815180518852830151838801879052612c57878901826129c1565b9750509382019390820190600101612c2b565b50508751606088015250505060208501516080850152509050611280565b600060608284031215612bb557600080fd5b60008083601f840112612cac57600080fd5b5081356001600160401b03811115612cc357600080fd5b602083019150836020828501011115612cdb57600080fd5b9250929050565b600080600080600080600060e0888a031215612cfd57600080fd5b612d078989612c88565b96506060880135955060808801356001600160401b0380821115612d2a57600080fd5b612d368b838c01612c9a565b909750955060a08a01359150612d4b82612aeb565b90935060c08901359080821115612d6157600080fd5b50612d6e8a828b01612c9a565b989b979a50959850939692959293505050565b600080600060608486031215612d9657600080fd5b8335612da181612aeb565b92506020840135612db181612aeb565b929592945050506040919091013590565b803563ffffffff81168114612dd657600080fd5b919050565b60008060408385031215612dee57600080fd5b612b9583612dc2565b80151581146116e357600080fd5b60008060408385031215612e1857600080fd5b82356001600160401b03811115612e2e57600080fd5b612e3a85828601612ba3565b9250506020830135612e4b81612df7565b809150509250929050565b815181526020808301519082015260408101610a4f565b803561ffff81168114612dd657600080fd5b60008060408385031215612e9257600080fd5b612e9b83612dc2565b9150612ea960208401612e6d565b90509250929050565b600060208284031215612ec457600080fd5b8135610c3581612aeb565b60008083601f840112612ee157600080fd5b5081356001600160401b03811115612ef857600080fd5b6020830191508360208260051b8501011115612cdb57600080fd5b60008060208385031215612f2657600080fd5b82356001600160401b03811115612f3c57600080fd5b612f4885828601612ecf565b90969095509350505050565b600060208284031215612f6657600080fd5b610c3582612dc2565b60008060008060608587031215612f8557600080fd5b612f8e85612dc2565b9350612f9c60208601612e6d565b925060408501356001600160401b03811115612fb757600080fd5b612fc387828801612c9a565b95989497509550505050565b60008060008385036080811215612fe557600080fd5b84356001600160401b03811115612ffb57600080fd5b61300787828801612ba3565b9450506040601f198201121561301c57600080fd5b506020840191506060840135612b6c81612aeb565b600060c082019050835182526001600160401b036020850151166020830152604084015161306c604084018280518252602090810151910152565b5082516080830152602083015160a0830152610c35565b6000806040838503121561309657600080fd5b82356130a181612aeb565b91506020830135612e4b81612aeb565b6000606082840312156130c357600080fd5b610c358383612c88565b600181811c908216806130e157607f821691505b602082108103612bb557634e487b7160e01b600052602260045260246000fd5b634e487b7160e01b600052601160045260246000fd5b80820180821115610a4f57610a4f613101565b634e487b7160e01b600052603260045260246000fd5b60008235605e1983360301811261315657600080fd5b9190910192915050565b6000808335601e1984360301811261317757600080fd5b8301803591506001600160401b0382111561319157600080fd5b602001915036819003821315612cdb57600080fd5b6000602082840312156131b857600080fd5b610c3582612e6d565b601f82111561173e576000816000526020600020601f850160051c810160208610156131ea5750805b601f850160051c820191505b81811015613209578281556001016131f6565b505050505050565b6001600160401b0383111561322857613228612a00565b61323c8361323683546130cd565b836131c1565b6000601f84116001811461327057600085156132585750838201355b600019600387901b1c1916600186901b178355611598565b600083815260209020601f19861690835b828110156132a15786850135825560209485019460019092019101613281565b50868210156132be5760001960f88860031b161c19848701351681555b505060018560011b0183555050505050565b81835281816020850137506000828201602090810191909152601f909101601f19169091010190565b60208082528181018390526000906040808401600586901b8501820187855b888110156133cf57878303603f190184528135368b9003605e1901811261333e57600080fd5b8a01606063ffffffff61335083612dc2565b16855261ffff613361898401612e6d565b168886015286820135601e1983360301811261337c57600080fd5b9091018781019190356001600160401b0381111561339957600080fd5b8036038313156133a857600080fd5b81888701526133ba82870182856132d0565b96890196955050509186019150600101613318565b509098975050505050505050565b600080858511156133ed57600080fd5b838611156133fa57600080fd5b5050820193919092039150565b6000845161341981846020890161299d565b8201838582376000930192835250909392505050565b6020815260006112806020830184866132d0565b6000823561013e1983360301811261315657600080fd5b6001600160401b03811681146116e357600080fd5b63ffffffff61347d89612dc2565b168152602088013560208201526000604089013561349a8161345a565b6001600160401b03811660408401525087606083015260e060808301526134c560e0830187896132d0565b6001600160a01b03861660a084015282810360c08401526134e78185876132d0565b9a9950505050505050505050565b60006020828403121561350757600080fd5b81516001600160401b0381111561351d57600080fd5b8201601f8101841361352e57600080fd5b805161353c612ab482612a6e565b81815285602083850101111561355157600080fd5b611f7582602083016020860161299d565b60006040828403121561357457600080fd5b61357c612a16565b82358152602083013560208201528091505092915050565b6020808252602b908201527f496e697469616c697a61626c653a20636f6e7472616374206973206e6f74206960408201526a6e697469616c697a696e6760a81b606082015260800190565b6000602082840312156135f157600080fd5b8135610c358161345a565b60018060a01b038516815283602082015261ffff83166040820152608060608201526000610d2860808301846129c1565b60408152600061364060408301856129c1565b8281036020840152611f7581856129c1565b60006020828403121561366457600080fd5b8151610c3581612df7565b6040815263ffffffff8351166040820152602083015160608201526000604084015160a060808401526136a560e08401826129c1565b90506060850151603f198483030160a08501526136c282826129c1565b60809690960151151560c08501525050506001600160a01b039190911660209091015290565b6000604082840312156136fa57600080fd5b613702612a16565b9050815181526020820151602082015292915050565b60006040828403121561372a57600080fd5b610c3583836136e8565b6001600160f01b0319813581811691600285101561375c5780818660020360031b1b83161692505b505092915050565b60006080828403121561377657600080fd5b604051606081018181106001600160401b038211171561379857613798612a00565b6040528251815260208301516137ad8161345a565b60208201526137bf84604085016136e8565b60408201529392505050565b6000826137e857634e487b7160e01b600052601260045260246000fd5b500490565b8082028115828204841417610a4f57610a4f613101565b80356020831015610a4f57600019602084900360031b1b1692915050565b6001600160c01b0319813581811691600885101561375c5760089490940360031b84901b1690921692915050565b6001600160401b0360c01b8560c01b16815263ffffffff60e01b8460e01b16600882015282600c8201526000825161388f81602c85016020870161299d565b91909101602c0195945050505050565b8481526001600160401b0360c01b8460c01b166020820152826028820152600082516138d281604885016020870161299d565b9190910160480195945050505050565b6000602082840312156138f457600080fd5b8151610c3581612aeb565b81516001600160401b0381111561391857613918612a00565b61392c8161392684546130cd565b846131c1565b602080601f83116001811461396157600084156139495750858301515b600019600386901b1c1916600185901b178555613209565b600085815260208120601f198616915b8281101561399057888601518255948401946001909101908401613971565b50858210156139ae5787850151600019600388901b60f8161c191681555b5050505050600190811b01905550565b6000825161315681846020870161299d56fe72ab1bc1039b79dc4724ffca13de82c96834302d3c7e0d4252232d4b2dd8f900a26469706673582212207a77625b8081b813c8bb4ce5e2c926e9685b20a0b3c1c92d9d920f42f42712cf64736f6c634300081600330000000000000000000000001a44076050125825900e736c501f859c50fe728c",
        "nonce": "0x4f",
        "chainId": "0xfc"
      },
      "additionalContracts": [],
      "isFixedGasLimit": false
    },
    {
      "hash": null,
      "transactionType": "CREATE",
      "contractName": "TransparentUpgradeableProxy",
      "contractAddress": "0x3d9ec5191af8447bbcb61ff460944056be350013",
      "function": null,
      "arguments": [
        "0x8f1B9c1fd67136D525E14D96Efb3887a33f16250",
        "0x0990be6dB8c785FBbF9deD8bAEc612A10CaE814b",
        "0x"
      ],
      "transaction": {
        "from": "0x0990be6db8c785fbbf9ded8baec612a10cae814b",
        "gas": "0xb0cd9",
        "value": "0x0",
        "input": "0x608060405260405162000df638038062000df6833981016040819052620000269162000473565b828162000036828260006200009a565b5062000066905060017fb53127684a568b3173ae13b9f8a6016e243e63b6e8ee1178d6a717850b5d610462000553565b60008051602062000daf8339815191521462000086576200008662000575565b6200009182620000cc565b505050620005de565b620000a5836200013e565b600082511180620000b35750805b15620000c757620000c5838362000180565b505b505050565b7f7e644d79422f17c01e4894b5f4f588d331ebfa28653d42ae832dc59e38c9798f6200010e60008051602062000daf833981519152546001600160a01b031690565b604080516001600160a01b03928316815291841660208301520160405180910390a16200013b81620001b1565b50565b62000149816200024f565b6040516001600160a01b038216907fbc7cd75a20ee27fd9adebab32041f755214dbc6bffa90cc0225b39da2e5c2d3b90600090a250565b6060620001a8838360405180606001604052806027815260200162000dcf60279139620002e6565b90505b92915050565b6001600160a01b0381166200021c5760405162461bcd60e51b815260206004820152602660248201527f455243313936373a206e65772061646d696e20697320746865207a65726f206160448201526564647265737360d01b60648201526084015b60405180910390fd5b8060008051602062000daf8339815191525b80546001600160a01b0319166001600160a01b039290921691909117905550565b6001600160a01b0381163b620002be5760405162461bcd60e51b815260206004820152602d60248201527f455243313936373a206e657720696d706c656d656e746174696f6e206973206e60448201526c1bdd08184818dbdb9d1c9858dd609a1b606482015260840162000213565b807f360894a13ba1a3210667c828492db98dca3e2076cc3735a920a3ca505d382bbc6200022e565b6060600080856001600160a01b0316856040516200030591906200058b565b600060405180830381855af49150503d806000811462000342576040519150601f19603f3d011682016040523d82523d6000602084013e62000347565b606091505b5090925090506200035b8683838762000365565b9695505050505050565b60608315620003d9578251600003620003d1576001600160a01b0385163b620003d15760405162461bcd60e51b815260206004820152601d60248201527f416464726573733a2063616c6c20746f206e6f6e2d636f6e7472616374000000604482015260640162000213565b5081620003e5565b620003e58383620003ed565b949350505050565b815115620003fe5781518083602001fd5b8060405162461bcd60e51b8152600401620002139190620005a9565b80516001600160a01b03811681146200043257600080fd5b919050565b634e487b7160e01b600052604160045260246000fd5b60005b838110156200046a57818101518382015260200162000450565b50506000910152565b6000806000606084860312156200048957600080fd5b62000494846200041a565b9250620004a4602085016200041a565b60408501519092506001600160401b0380821115620004c257600080fd5b818601915086601f830112620004d757600080fd5b815181811115620004ec57620004ec62000437565b604051601f8201601f19908116603f0116810190838211818310171562000517576200051762000437565b816040528281528960208487010111156200053157600080fd5b620005448360208301602088016200044d565b80955050505050509250925092565b81810381811115620001ab57634e487b7160e01b600052601160045260246000fd5b634e487b7160e01b600052600160045260246000fd5b600082516200059f8184602087016200044d565b9190910192915050565b6020815260008251806020840152620005ca8160408501602087016200044d565b601f01601f19169190910160400192915050565b6107c180620005ee6000396000f3fe60806040526004361061004e5760003560e01c80633659cfe6146100655780634f1ef286146100855780635c60da1b146100985780638f283970146100c9578063f851a440146100e95761005d565b3661005d5761005b6100fe565b005b61005b6100fe565b34801561007157600080fd5b5061005b610080366004610653565b610118565b61005b61009336600461066e565b610155565b3480156100a457600080fd5b506100ad6101bc565b6040516001600160a01b03909116815260200160405180910390f35b3480156100d557600080fd5b5061005b6100e4366004610653565b6101ed565b3480156100f557600080fd5b506100ad61020d565b61010661022e565b61011661011161025e565b610268565b565b61012061028c565b6001600160a01b0316330361014d5761014a816040518060200160405280600081525060006102bf565b50565b61014a6100fe565b61015d61028c565b6001600160a01b031633036101b4576101af8383838080601f016020809104026020016040519081016040528093929190818152602001838380828437600092019190915250600192506102bf915050565b505050565b6101af6100fe565b60006101c661028c565b6001600160a01b031633036101e2576101dd61025e565b905090565b6101ea6100fe565b90565b6101f561028c565b6001600160a01b0316330361014d5761014a816102ea565b600061021761028c565b6001600160a01b031633036101e2576101dd61028c565b61023661028c565b6001600160a01b031633036101165760405163786a591f60e11b815260040160405180910390fd5b60006101dd61033e565b3660008037600080366000845af43d6000803e808015610287573d6000f35b3d6000fd5b60007fb53127684a568b3173ae13b9f8a6016e243e63b6e8ee1178d6a717850b5d61035b546001600160a01b0316919050565b6102c883610366565b6000825111806102d55750805b156101af576102e483836103a6565b50505050565b7f7e644d79422f17c01e4894b5f4f588d331ebfa28653d42ae832dc59e38c9798f61031361028c565b604080516001600160a01b03928316815291841660208301520160405180910390a161014a816103d2565b60007f360894a13ba1a3210667c828492db98dca3e2076cc3735a920a3ca505d382bbc6102b0565b61036f81610480565b6040516001600160a01b038216907fbc7cd75a20ee27fd9adebab32041f755214dbc6bffa90cc0225b39da2e5c2d3b90600090a250565b60606103cb838360405180606001604052806027815260200161076560279139610514565b9392505050565b6001600160a01b03811661043c5760405162461bcd60e51b815260206004820152602660248201527f455243313936373a206e65772061646d696e20697320746865207a65726f206160448201526564647265737360d01b60648201526084015b60405180910390fd5b807fb53127684a568b3173ae13b9f8a6016e243e63b6e8ee1178d6a717850b5d61035b80546001600160a01b0319166001600160a01b039290921691909117905550565b6001600160a01b0381163b6104ed5760405162461bcd60e51b815260206004820152602d60248201527f455243313936373a206e657720696d706c656d656e746174696f6e206973206e60448201526c1bdd08184818dbdb9d1c9858dd609a1b6064820152608401610433565b807f360894a13ba1a3210667c828492db98dca3e2076cc3735a920a3ca505d382bbc61045f565b6060600080856001600160a01b0316856040516105319190610715565b600060405180830381855af49150503d806000811461056c576040519150601f19603f3d011682016040523d82523d6000602084013e610571565b606091505b50915091506105828683838761058c565b9695505050505050565b606083156105fb5782516000036105f4576001600160a01b0385163b6105f45760405162461bcd60e51b815260206004820152601d60248201527f416464726573733a2063616c6c20746f206e6f6e2d636f6e74726163740000006044820152606401610433565b5081610605565b610605838361060d565b949350505050565b81511561061d5781518083602001fd5b8060405162461bcd60e51b81526004016104339190610731565b80356001600160a01b038116811461064e57600080fd5b919050565b60006020828403121561066557600080fd5b6103cb82610637565b60008060006040848603121561068357600080fd5b61068c84610637565b9250602084013567ffffffffffffffff808211156106a957600080fd5b818601915086601f8301126106bd57600080fd5b8135818111156106cc57600080fd5b8760208285010111156106de57600080fd5b6020830194508093505050509250925092565b60005b8381101561070c5781810151838201526020016106f4565b50506000910152565b600082516107278184602087016106f1565b9190910192915050565b60208152600082518060208401526107508160408501602087016106f1565b601f01601f1916919091016040019291505056fe416464726573733a206c6f772d6c6576656c2064656c65676174652063616c6c206661696c6564a2646970667358221220c9758782effd34c50684c9008a4ffd4b3fbcecbd39c17a55f1248566c174078b64736f6c63430008160033b53127684a568b3173ae13b9f8a6016e243e63b6e8ee1178d6a717850b5d6103416464726573733a206c6f772d6c6576656c2064656c65676174652063616c6c206661696c65640000000000000000000000008f1b9c1fd67136d525e14d96efb3887a33f162500000000000000000000000000990be6db8c785fbbf9ded8baec612a10cae814b00000000000000000000000000000000000000000000000000000000000000600000000000000000000000000000000000000000000000000000000000000000",
        "nonce": "0x50",
        "chainId": "0xfc"
      },
      "additionalContracts": [],
      "isFixedGasLimit": false
    },
    {
      "hash": null,
      "transactionType": "CALL",
      "contractName": "TransparentUpgradeableProxy",
      "contractAddress": "0x3d9ec5191af8447bbcb61ff460944056be350013",
      "function": "upgradeToAndCall(address,bytes)",
      "arguments": [
        "0x36076294472DaF59391a7dDbEDeBf4b681D823c7",
        "0x077f224a000000000000000000000000000000000000000000000000000000000000006000000000000000000000000000000000000000000000000000000000000000a00000000000000000000000000990be6db8c785fbbf9ded8baec612a10cae814b00000000000000000000000000000000000000000000000000000000000000094d6f636b2046726178000000000000000000000000000000000000000000000000000000000000000000000000000000000000000000000000000000000000056d46524158000000000000000000000000000000000000000000000000000000"
      ],
      "transaction": {
        "from": "0x0990be6db8c785fbbf9ded8baec612a10cae814b",
        "to": "0x3d9ec5191af8447bbcb61ff460944056be350013",
        "gas": "0x361fe",
        "value": "0x0",
        "input": "0x4f1ef28600000000000000000000000036076294472daf59391a7ddbedebf4b681d823c7000000000000000000000000000000000000000000000000000000000000004000000000000000000000000000000000000000000000000000000000000000e4077f224a000000000000000000000000000000000000000000000000000000000000006000000000000000000000000000000000000000000000000000000000000000a00000000000000000000000000990be6db8c785fbbf9ded8baec612a10cae814b00000000000000000000000000000000000000000000000000000000000000094d6f636b2046726178000000000000000000000000000000000000000000000000000000000000000000000000000000000000000000000000000000000000056d4652415800000000000000000000000000000000000000000000000000000000000000000000000000000000000000000000000000000000000000",
        "nonce": "0x51",
        "chainId": "0xfc"
      },
      "additionalContracts": [],
      "isFixedGasLimit": false
    },
    {
      "hash": null,
      "transactionType": "CALL",
      "contractName": "TransparentUpgradeableProxy",
      "contractAddress": "0x3d9ec5191af8447bbcb61ff460944056be350013",
      "function": "changeAdmin(address)",
      "arguments": [
        "0x223a681fc5c5522c85C96157c0efA18cd6c5405c"
      ],
      "transaction": {
        "from": "0x0990be6db8c785fbbf9ded8baec612a10cae814b",
        "to": "0x3d9ec5191af8447bbcb61ff460944056be350013",
        "gas": "0xa3ad",
        "value": "0x0",
        "input": "0x8f283970000000000000000000000000223a681fc5c5522c85c96157c0efa18cd6c5405c",
        "nonce": "0x52",
        "chainId": "0xfc"
      },
      "additionalContracts": [],
      "isFixedGasLimit": false
    },
    {
      "hash": null,
      "transactionType": "CREATE",
      "contractName": "OFTUpgradeableMock",
      "contractAddress": "0xa140ac7d8eda834933bbb94a575ec7037386079d",
      "function": null,
      "arguments": [
        "0x1a44076050125825900e736c501f859c50fE728c"
      ],
      "transaction": {
        "from": "0x0990be6db8c785fbbf9ded8baec612a10cae814b",
        "gas": "0x40e7fb",
        "value": "0x0",
        "input": "0x60c06040523480156200001157600080fd5b5060405162003c7738038062003c7783398101604081905262000034916200006d565b6001600160a01b0381166080528060128162000052600683620000b5565b6200005f90600a620001d4565b60a05250620001e592505050565b6000602082840312156200008057600080fd5b81516001600160a01b03811681146200009857600080fd5b9392505050565b634e487b7160e01b600052601160045260246000fd5b60ff8281168282160390811115620000d157620000d16200009f565b92915050565b600181815b8085111562000118578160001904821115620000fc57620000fc6200009f565b808516156200010a57918102915b93841c9390800290620000dc565b509250929050565b6000826200013157506001620000d1565b816200014057506000620000d1565b8160018114620001595760028114620001645762000184565b6001915050620000d1565b60ff8411156200017857620001786200009f565b50506001821b620000d1565b5060208310610133831016604e8410600b8410161715620001a9575081810a620000d1565b620001b58383620000d7565b8060001904821115620001cc57620001cc6200009f565b029392505050565b60006200009860ff84168362000120565b60805160a051613a26620002516000396000818161066b0152818161217d015281816121f201526122b801526000818161054a01528181610b5d0152818161154001528181611a0c01528181611eb301528181612010015281816124b701526125700152613a266000f3fe60806040526004361061027d5760003560e01c80637d25a05e1161014f578063bb0b6a53116100c1578063d42438851161007a578063d4243885146107dd578063dd62ed3e146107fd578063e742806a1461081d578063f2fde38b1461083c578063fc0c546a146104c1578063ff7bd03d1461085c57600080fd5b8063bb0b6a5314610716578063bc70b35414610756578063bd815db014610776578063c7c7f5b314610789578063ca5eb5e1146107aa578063d045a0dc146107ca57600080fd5b80639f68b964116101135780639f68b9641461068d578063a457c2d7146106a1578063a9059cbb146106c1578063b731ea0a146106e1578063b92d0eff146104c1578063b98bd070146106f657600080fd5b80637d25a05e146105d7578063857749b0146106125780638da5cb5b1461062657806395d89b4114610644578063963efcaa1461065957600080fd5b806323b872dd116101f35780635535d461116101ac5780635535d461146104d45780635a0dfe4d146104f45780635e280f11146105385780636fc1b31e1461056c57806370a082311461058c578063715018a6146105c257600080fd5b806323b872dd14610412578063313ce567146104325780633400288b1461045457806339509351146104745780633b6f743b1461049457806352ae2879146104c157600080fd5b806313137d651161024557806313137d651461035b578063134d4f251461036e578063156a0d0f1461039657806317442b70146103bd57806318160ddd146103de5780631f5e1334146103fd57600080fd5b806306fdde0314610282578063077f224a146102ad578063095ea7b3146102cf5780630d35b415146102ff578063111ecdad1461032e575b600080fd5b34801561028e57600080fd5b5061029761087c565b6040516102a491906129ed565b60405180910390f35b3480156102b957600080fd5b506102cd6102c8366004612b00565b61090e565b005b3480156102db57600080fd5b506102ef6102ea366004612b77565b610a3b565b60405190151581526020016102a4565b34801561030b57600080fd5b5061031f61031a366004612bbb565b610a55565b6040516102a493929190612bef565b34801561033a57600080fd5b50610343610b26565b6040516001600160a01b0390911681526020016102a4565b6102cd610369366004612ce2565b610b5b565b34801561037a57600080fd5b50610383600281565b60405161ffff90911681526020016102a4565b3480156103a257600080fd5b506040805162b9270b60e21b815260016020820152016102a4565b3480156103c957600080fd5b506040805160018082526020820152016102a4565b3480156103ea57600080fd5b506067545b6040519081526020016102a4565b34801561040957600080fd5b50610383600181565b34801561041e57600080fd5b506102ef61042d366004612d81565b610c16565b34801561043e57600080fd5b5060125b60405160ff90911681526020016102a4565b34801561046057600080fd5b506102cd61046f366004612ddb565b610c3c565b34801561048057600080fd5b506102ef61048f366004612b77565b610ca9565b3480156104a057600080fd5b506104b46104af366004612e05565b610ccb565b6040516102a49190612e56565b3480156104cd57600080fd5b5030610343565b3480156104e057600080fd5b506102976104ef366004612e7f565b610d32565b34801561050057600080fd5b506102ef61050f366004612ddb565b63ffffffff9190911660009081526000805160206139d183398151915260205260409020541490565b34801561054457600080fd5b506103437f000000000000000000000000000000000000000000000000000000000000000081565b34801561057857600080fd5b506102cd610587366004612eb2565b610e0d565b34801561059857600080fd5b506103ef6105a7366004612eb2565b6001600160a01b031660009081526065602052604090205490565b3480156105ce57600080fd5b506102cd610e89565b3480156105e357600080fd5b506105fa6105f2366004612ddb565b600092915050565b6040516001600160401b0390911681526020016102a4565b34801561061e57600080fd5b506006610442565b34801561063257600080fd5b506033546001600160a01b0316610343565b34801561065057600080fd5b50610297610e9d565b34801561066557600080fd5b506103ef7f000000000000000000000000000000000000000000000000000000000000000081565b34801561069957600080fd5b5060006102ef565b3480156106ad57600080fd5b506102ef6106bc366004612b77565b610eac565b3480156106cd57600080fd5b506102ef6106dc366004612b77565b610f32565b3480156106ed57600080fd5b50610343610f40565b34801561070257600080fd5b506102cd610711366004612f13565b610f69565b34801561072257600080fd5b506103ef610731366004612f54565b63ffffffff1660009081526000805160206139d1833981519152602052604090205490565b34801561076257600080fd5b50610297610771366004612f6f565b6110ea565b6102cd610784366004612f13565b611288565b61079c610797366004612fcf565b61141f565b6040516102a4929190613031565b3480156107b657600080fd5b506102cd6107c5366004612eb2565b611519565b6102cd6107d8366004612ce2565b61159f565b3480156107e957600080fd5b506102cd6107f8366004612eb2565b6115ce565b34801561080957600080fd5b506103ef610818366004613083565b611642565b34801561082957600080fd5b506102cd610838366004612b77565b5050565b34801561084857600080fd5b506102cd610857366004612eb2565b61166d565b34801561086857600080fd5b506102ef6108773660046130b1565b6116e6565b60606068805461088b906130cd565b80601f01602080910402602001604051908101604052809291908181526020018280546108b7906130cd565b80156109045780601f106108d957610100808354040283529160200191610904565b820191906000526020600020905b8154815290600101906020018083116108e757829003601f168201915b5050505050905090565b600054610100900460ff161580801561092e5750600054600160ff909116105b806109485750303b158015610948575060005460ff166001145b6109b05760405162461bcd60e51b815260206004820152602e60248201527f496e697469616c697a61626c653a20636f6e747261637420697320616c72656160448201526d191e481a5b9a5d1a585b1a5e995960921b60648201526084015b60405180910390fd5b6000805460ff1916600117905580156109d3576000805461ff0019166101001790555b6109de848484611704565b6109e6611743565b6109ef82611772565b8015610a35576000805461ff0019169055604051600181527f7f26b83ff96e1f2b6a682f133852f6798a09c465da95921460cefb38474024989060200160405180910390a15b50505050565b600033610a498185856117c4565b60019150505b92915050565b60408051808201909152600080825260208201526060610a88604051806040016040528060008152602001600081525090565b60408051808201825260008082526001600160401b03602080840182905284518381529081019094529195509182610ae3565b604080518082019091526000815260606020820152815260200190600190039081610abb5790505b509350600080610b08604089013560608a0135610b0360208c018c612f54565b6118e8565b60408051808201909152918252602082015296989597505050505050565b6000807f41db8a78b0206aba5c54bcbfc2bda0d84082a84eb88e680379a57b9e9f653c005b546001600160a01b031692915050565b7f00000000000000000000000000000000000000000000000000000000000000006001600160a01b03163314610ba6576040516391ac5e4f60e01b81523360048201526024016109a7565b60208701803590610bc090610bbb908a612f54565b61192c565b14610bfe57610bd26020880188612f54565b60405163309afaf360e21b815263ffffffff9091166004820152602088013560248201526044016109a7565b610c0d87878787878787611977565b50505050505050565b600033610c24858285611ade565b610c2f858585611b52565b60019150505b9392505050565b610c44611cfd565b63ffffffff821660008181526000805160206139d1833981519152602081815260409283902085905582519384528301849052917f238399d427b947898edb290f5ff0f9109849b1c3ba196a42e35f00c50a54b98b91015b60405180910390a1505050565b600033610a49818585610cbc8383611642565b610cc69190613117565b6117c4565b60408051808201909152600080825260208201526000610cfb60408501356060860135610b036020880188612f54565b915050600080610d0b8684611d57565b9092509050610d28610d206020880188612f54565b838388611e9d565b9695505050505050565b63ffffffff821660009081527f8d2bda5d9f6ffb5796910376005392955773acee5548d0fcdb10e7c264ea00006020818152604080842061ffff8616855290915290912080546060929190610d86906130cd565b80601f0160208091040260200160405190810160405280929190818152602001828054610db2906130cd565b8015610dff5780601f10610dd457610100808354040283529160200191610dff565b820191906000526020600020905b815481529060010190602001808311610de257829003601f168201915b505050505091505092915050565b610e15611cfd565b7f41db8a78b0206aba5c54bcbfc2bda0d84082a84eb88e680379a57b9e9f653c0080546001600160a01b0319166001600160a01b03831690811782556040519081527ff0be4f1e87349231d80c36b33f9e8639658eeaf474014dee15a3e6a4d4414197906020015b60405180910390a15050565b610e91611cfd565b610e9b6000611772565b565b60606069805461088b906130cd565b60003381610eba8286611642565b905083811015610f1a5760405162461bcd60e51b815260206004820152602560248201527f45524332303a2064656372656173656420616c6c6f77616e63652062656c6f77604482015264207a65726f60d81b60648201526084016109a7565b610f2782868684036117c4565b506001949350505050565b600033610a49818585611b52565b6000807fefb041d771d6daaa55702fff6eb740d63ba559a75d2d1d3e151c78ff2480b600610b4b565b610f71611cfd565b7f8d2bda5d9f6ffb5796910376005392955773acee5548d0fcdb10e7c264ea000060005b828110156110b857610fd7848483818110610fb257610fb261312a565b9050602002810190610fc49190613140565b610fd2906040810190613160565b611f7e565b838382818110610fe957610fe961312a565b9050602002810190610ffb9190613140565b611009906040810190613160565b83600087878681811061101e5761101e61312a565b90506020028101906110309190613140565b61103e906020810190612f54565b63ffffffff1663ffffffff168152602001908152602001600020600087878681811061106c5761106c61312a565b905060200281019061107e9190613140565b61108f9060408101906020016131a6565b61ffff1681526020810191909152604001600020916110af919083613211565b50600101610f95565b507fbe4864a8e820971c0247f5992e2da559595f7bf076a21cb5928d443d2a13b6748383604051610c9c9291906132f9565b63ffffffff841660009081527f8d2bda5d9f6ffb5796910376005392955773acee5548d0fcdb10e7c264ea00006020818152604080842061ffff8816855290915282208054606093919061113d906130cd565b80601f0160208091040260200160405190810160405280929190818152602001828054611169906130cd565b80156111b65780601f1061118b576101008083540402835291602001916111b6565b820191906000526020600020905b81548152906001019060200180831161119957829003601f168201915b5050505050905080516000036112075784848080601f016020809104026020016040519081016040528093929190818152602001838380828437600092019190915250929550611280945050505050565b60008490036112195791506112809050565b600284106112635761122b8585611f7e565b8061123985600281896133dd565b60405160200161124b93929190613407565b60405160208183030381529060405292505050611280565b8484604051639a6d49cd60e01b81526004016109a792919061342f565b949350505050565b60005b8181101561139e57368383838181106112a6576112a661312a565b90506020028101906112b89190613443565b90506112f86112ca6020830183612f54565b602083013563ffffffff9190911660009081526000805160206139d183398151915260205260409020541490565b6113025750611396565b3063d045a0dc60c08301358360a0810135611321610100830183613160565b611332610100890160e08a01612eb2565b6113406101208a018a613160565b6040518963ffffffff1660e01b8152600401611362979695949392919061346f565b6000604051808303818588803b15801561137b57600080fd5b505af115801561138f573d6000803e3d6000fd5b5050505050505b60010161128b565b50336001600160a01b0316638e9e70996040518163ffffffff1660e01b8152600401600060405180830381865afa1580156113dd573d6000803e3d6000fd5b505050506040513d6000823e601f3d908101601f1916820160405261140591908101906134f5565b604051638351eea760e01b81526004016109a791906129ed565b611427612956565b604080518082019091526000808252602082015260008061145d6040880135606089013561145860208b018b612f54565b611fc0565b9150915060008061146e8984611d57565b909250905061149a61148360208b018b612f54565b8383611494368d90038d018d613562565b8b611fdd565b60408051808201909152858152602080820186905282519298509096503391907f85496b760a4b7f8d66384b9df21b381f5d1b1e79f229a47aaf4c232edc2fe59a906114e8908d018d612f54565b6040805163ffffffff909216825260208201899052810187905260600160405180910390a350505050935093915050565b611521611cfd565b60405163ca5eb5e160e01b81526001600160a01b0382811660048301527f0000000000000000000000000000000000000000000000000000000000000000169063ca5eb5e190602401600060405180830381600087803b15801561158457600080fd5b505af1158015611598573d6000803e3d6000fd5b5050505050565b3330146115bf5760405163029a949d60e31b815260040160405180910390fd5b610c0d87878787878787610bfe565b6115d6611cfd565b7fefb041d771d6daaa55702fff6eb740d63ba559a75d2d1d3e151c78ff2480b60080546001600160a01b0319166001600160a01b03831690811782556040519081527fd48d879cef83a1c0bdda516f27b13ddb1b3f8bbac1c9e1511bb2a659c242776090602001610e7d565b6001600160a01b03918216600090815260666020908152604080832093909416825291909152205490565b611675611cfd565b6001600160a01b0381166116da5760405162461bcd60e51b815260206004820152602660248201527f4f776e61626c653a206e6577206f776e657220697320746865207a65726f206160448201526564647265737360d01b60648201526084016109a7565b6116e381611772565b50565b6000602082018035906116fd906107319085612f54565b1492915050565b600054610100900460ff1661172b5760405162461bcd60e51b81526004016109a790613594565b61173583836120e8565b61173e81612119565b505050565b600054610100900460ff1661176a5760405162461bcd60e51b81526004016109a790613594565b610e9b612149565b603380546001600160a01b038381166001600160a01b0319831681179093556040519116919082907f8be0079c531659141344cd1fd0a4f28419497f9722a3daafe3b4186f6b6457e090600090a35050565b6001600160a01b0383166118265760405162461bcd60e51b8152602060048201526024808201527f45524332303a20617070726f76652066726f6d20746865207a65726f206164646044820152637265737360e01b60648201526084016109a7565b6001600160a01b0382166118875760405162461bcd60e51b815260206004820152602260248201527f45524332303a20617070726f766520746f20746865207a65726f206164647265604482015261737360f01b60648201526084016109a7565b6001600160a01b0383811660008181526066602090815260408083209487168084529482529182902085905590518481527f8c5be1e5ebec7d5bd14f71427d1e84f3dd0314c0f7b2291e5b200ac8c7c3b925910160405180910390a3505050565b6000806118f485612179565b915081905083811015611924576040516371c4efed60e01b815260048101829052602481018590526044016109a7565b935093915050565b63ffffffff811660009081526000805160206139d18339815191526020819052604082205480610c355760405163f6ff4fb760e01b815263ffffffff851660048201526024016109a7565b600061198961198687876121b0565b90565b905060006119b5826119a361199e8a8a6121c8565b6121eb565b6119b060208d018d612f54565b612220565b90506028861115611a7c5760006119f26119d560608c0160408d016135df565b6119e260208d018d612f54565b846119ed8c8c612234565b61227f565b604051633e5ac80960e11b81529091506001600160a01b037f00000000000000000000000000000000000000000000000000000000000000001690637cb5901290611a489086908d9060009087906004016135fc565b600060405180830381600087803b158015611a6257600080fd5b505af1158015611a76573d6000803e3d6000fd5b50505050505b6001600160a01b038216887fefed6d3500546b29533b128a29e3a94d70788727f0507505ac12eaf2e578fd9c611ab560208d018d612f54565b6040805163ffffffff9092168252602082018690520160405180910390a3505050505050505050565b6000611aea8484611642565b90506000198114610a355781811015611b455760405162461bcd60e51b815260206004820152601d60248201527f45524332303a20696e73756666696369656e7420616c6c6f77616e636500000060448201526064016109a7565b610a3584848484036117c4565b6001600160a01b038316611bb65760405162461bcd60e51b815260206004820152602560248201527f45524332303a207472616e736665722066726f6d20746865207a65726f206164604482015264647265737360d81b60648201526084016109a7565b6001600160a01b038216611c185760405162461bcd60e51b815260206004820152602360248201527f45524332303a207472616e7366657220746f20746865207a65726f206164647260448201526265737360e81b60648201526084016109a7565b6001600160a01b03831660009081526065602052604090205481811015611c905760405162461bcd60e51b815260206004820152602660248201527f45524332303a207472616e7366657220616d6f756e7420657863656564732062604482015265616c616e636560d01b60648201526084016109a7565b6001600160a01b0380851660008181526065602052604080822086860390559286168082529083902080548601905591517fddf252ad1be2c89b69c2b068fc378daa952ba7f163c4a11628f55a4df523b3ef90611cf09086815260200190565b60405180910390a3610a35565b6033546001600160a01b03163314610e9b5760405162461bcd60e51b815260206004820181905260248201527f4f776e61626c653a2063616c6c6572206973206e6f7420746865206f776e657260448201526064016109a7565b6060806000611db48560200135611d6d866122b1565b611d7a60a0890189613160565b8080601f0160208091040260200160405190810160405280939291908181526020018383808284376000920191909152506122dd92505050565b9093509050600081611dc7576001611dca565b60025b9050611dea611ddc6020880188612f54565b8261077160808a018a613160565b7f41db8a78b0206aba5c54bcbfc2bda0d84082a84eb88e680379a57b9e9f653c008054919450906001600160a01b031615611e9357805460405163043a78eb60e01b81526001600160a01b039091169063043a78eb90611e50908890889060040161362d565b602060405180830381865afa158015611e6d573d6000803e3d6000fd5b505050506040513d601f19601f82011682018060405250810190611e919190613652565b505b5050509250929050565b60408051808201909152600080825260208201527f00000000000000000000000000000000000000000000000000000000000000006001600160a01b031663ddc28c586040518060a001604052808863ffffffff168152602001611f008961192c565b8152602001878152602001868152602001851515815250306040518363ffffffff1660e01b8152600401611f3592919061366f565b6040805180830381865afa158015611f51573d6000803e3d6000fd5b505050506040513d601f19601f82011682018060405250810190611f759190613718565b95945050505050565b6000611f8d60028284866133dd565b611f9691613734565b60f01c90506003811461173e578282604051639a6d49cd60e01b81526004016109a792919061342f565b600080611fce8585856118e8565b90925090506119243383612357565b611fe5612956565b6000611ff4846000015161248b565b60208501519091501561200e5761200e84602001516124b3565b7f00000000000000000000000000000000000000000000000000000000000000006001600160a01b0316632637a450826040518060a001604052808b63ffffffff16815260200161205e8c61192c565b81526020018a815260200189815260200160008960200151111515815250866040518463ffffffff1660e01b815260040161209a92919061366f565b60806040518083038185885af11580156120b8573d6000803e3d6000fd5b50505050506040513d601f19601f820116820180604052508101906120dd9190613764565b979650505050505050565b600054610100900460ff1661210f5760405162461bcd60e51b81526004016109a790613594565b6108388282612595565b600054610100900460ff166121405760405162461bcd60e51b81526004016109a790613594565b6116e3816125d5565b600054610100900460ff166121705760405162461bcd60e51b81526004016109a790613594565b610e9b33611772565b60007f00000000000000000000000000000000000000000000000000000000000000006121a681846137cb565b610a4f91906137ed565b60006121bf60208284866133dd565b610c3591613804565b60006121d86028602084866133dd565b6121e191613822565b60c01c9392505050565b6000610a4f7f00000000000000000000000000000000000000000000000000000000000000006001600160401b0384166137ed565b600061222c8484612605565b509092915050565b606061224382602881866133dd565b8080601f016020809104026020016040519081016040528093929190818152602001838380828437600092019190915250929695505050505050565b6060848484846040516020016122989493929190613850565b6040516020818303038152906040529050949350505050565b6000610a4f7f0000000000000000000000000000000000000000000000000000000000000000836137cb565b805160609015158061232657848460405160200161231292919091825260c01b6001600160c01b031916602082015260280190565b60405160208183030381529060405261234d565b8484338560405160200161233d949392919061389f565b6040516020818303038152906040525b9150935093915050565b6001600160a01b0382166123b75760405162461bcd60e51b815260206004820152602160248201527f45524332303a206275726e2066726f6d20746865207a65726f206164647265736044820152607360f81b60648201526084016109a7565b6001600160a01b0382166000908152606560205260409020548181101561242b5760405162461bcd60e51b815260206004820152602260248201527f45524332303a206275726e20616d6f756e7420657863656564732062616c616e604482015261636560f01b60648201526084016109a7565b6001600160a01b03831660008181526065602090815260408083208686039055606780548790039055518581529192917fddf252ad1be2c89b69c2b068fc378daa952ba7f163c4a11628f55a4df523b3ef910160405180910390a3505050565b60008134146124af576040516304fb820960e51b81523460048201526024016109a7565b5090565b60007f00000000000000000000000000000000000000000000000000000000000000006001600160a01b031663e4fe1d946040518163ffffffff1660e01b8152600401602060405180830381865afa158015612513573d6000803e3d6000fd5b505050506040513d601f19601f8201168201806040525081019061253791906138e2565b90506001600160a01b038116612560576040516329b99a9560e11b815260040160405180910390fd5b6108386001600160a01b038216337f0000000000000000000000000000000000000000000000000000000000000000856126c6565b600054610100900460ff166125bc5760405162461bcd60e51b81526004016109a790613594565b60686125c883826138ff565b50606961173e82826138ff565b600054610100900460ff166125fc5760405162461bcd60e51b81526004016109a790613594565b6116e381612720565b6001600160a01b03821661265b5760405162461bcd60e51b815260206004820152601f60248201527f45524332303a206d696e7420746f20746865207a65726f20616464726573730060448201526064016109a7565b806067600082825461266d9190613117565b90915550506001600160a01b0382166000818152606560209081526040808320805486019055518481527fddf252ad1be2c89b69c2b068fc378daa952ba7f163c4a11628f55a4df523b3ef910160405180910390a35050565b604080516001600160a01b0385811660248301528416604482015260648082018490528251808303909101815260849091019091526020810180516001600160e01b03166323b872dd60e01b179052610a3590859061276e565b600054610100900460ff166127475760405162461bcd60e51b81526004016109a790613594565b6001600160a01b03811661152157604051632d618d8160e21b815260040160405180910390fd5b60006127c3826040518060400160405280602081526020017f5361666545524332303a206c6f772d6c6576656c2063616c6c206661696c6564815250856001600160a01b03166128439092919063ffffffff16565b90508051600014806127e45750808060200190518101906127e49190613652565b61173e5760405162461bcd60e51b815260206004820152602a60248201527f5361666545524332303a204552433230206f7065726174696f6e20646964206e6044820152691bdd081cdd58d8d9595960b21b60648201526084016109a7565b6060611280848460008585600080866001600160a01b0316858760405161286a91906139be565b60006040518083038185875af1925050503d80600081146128a7576040519150601f19603f3d011682016040523d82523d6000602084013e6128ac565b606091505b50915091506120dd8783838760608315612927578251600003612920576001600160a01b0385163b6129205760405162461bcd60e51b815260206004820152601d60248201527f416464726573733a2063616c6c20746f206e6f6e2d636f6e747261637400000060448201526064016109a7565b5081611280565b611280838381511561293c5781518083602001fd5b8060405162461bcd60e51b81526004016109a791906129ed565b60405180606001604052806000801916815260200160006001600160401b03168152602001612998604051806040016040528060008152602001600081525090565b905290565b60005b838110156129b85781810151838201526020016129a0565b50506000910152565b600081518084526129d981602086016020860161299d565b601f01601f19169290920160200192915050565b602081526000610c3560208301846129c1565b634e487b7160e01b600052604160045260246000fd5b604080519081016001600160401b0381118282101715612a3857612a38612a00565b60405290565b604051601f8201601f191681016001600160401b0381118282101715612a6657612a66612a00565b604052919050565b60006001600160401b03821115612a8757612a87612a00565b50601f01601f191660200190565b600082601f830112612aa657600080fd5b8135612ab9612ab482612a6e565b612a3e565b818152846020838601011115612ace57600080fd5b816020850160208301376000918101602001919091529392505050565b6001600160a01b03811681146116e357600080fd5b600080600060608486031215612b1557600080fd5b83356001600160401b0380821115612b2c57600080fd5b612b3887838801612a95565b94506020860135915080821115612b4e57600080fd5b50612b5b86828701612a95565b9250506040840135612b6c81612aeb565b809150509250925092565b60008060408385031215612b8a57600080fd5b8235612b9581612aeb565b946020939093013593505050565b600060e08284031215612bb557600080fd5b50919050565b600060208284031215612bcd57600080fd5b81356001600160401b03811115612be357600080fd5b61128084828501612ba3565b8351815260208085015190820152600060a08201604060a0604085015281865180845260c08601915060c08160051b8701019350602080890160005b83811015612c6a5788870360bf19018552815180518852830151838801879052612c57878901826129c1565b9750509382019390820190600101612c2b565b50508751606088015250505060208501516080850152509050611280565b600060608284031215612bb557600080fd5b60008083601f840112612cac57600080fd5b5081356001600160401b03811115612cc357600080fd5b602083019150836020828501011115612cdb57600080fd5b9250929050565b600080600080600080600060e0888a031215612cfd57600080fd5b612d078989612c88565b96506060880135955060808801356001600160401b0380821115612d2a57600080fd5b612d368b838c01612c9a565b909750955060a08a01359150612d4b82612aeb565b90935060c08901359080821115612d6157600080fd5b50612d6e8a828b01612c9a565b989b979a50959850939692959293505050565b600080600060608486031215612d9657600080fd5b8335612da181612aeb565b92506020840135612db181612aeb565b929592945050506040919091013590565b803563ffffffff81168114612dd657600080fd5b919050565b60008060408385031215612dee57600080fd5b612b9583612dc2565b80151581146116e357600080fd5b60008060408385031215612e1857600080fd5b82356001600160401b03811115612e2e57600080fd5b612e3a85828601612ba3565b9250506020830135612e4b81612df7565b809150509250929050565b815181526020808301519082015260408101610a4f565b803561ffff81168114612dd657600080fd5b60008060408385031215612e9257600080fd5b612e9b83612dc2565b9150612ea960208401612e6d565b90509250929050565b600060208284031215612ec457600080fd5b8135610c3581612aeb565b60008083601f840112612ee157600080fd5b5081356001600160401b03811115612ef857600080fd5b6020830191508360208260051b8501011115612cdb57600080fd5b60008060208385031215612f2657600080fd5b82356001600160401b03811115612f3c57600080fd5b612f4885828601612ecf565b90969095509350505050565b600060208284031215612f6657600080fd5b610c3582612dc2565b60008060008060608587031215612f8557600080fd5b612f8e85612dc2565b9350612f9c60208601612e6d565b925060408501356001600160401b03811115612fb757600080fd5b612fc387828801612c9a565b95989497509550505050565b60008060008385036080811215612fe557600080fd5b84356001600160401b03811115612ffb57600080fd5b61300787828801612ba3565b9450506040601f198201121561301c57600080fd5b506020840191506060840135612b6c81612aeb565b600060c082019050835182526001600160401b036020850151166020830152604084015161306c604084018280518252602090810151910152565b5082516080830152602083015160a0830152610c35565b6000806040838503121561309657600080fd5b82356130a181612aeb565b91506020830135612e4b81612aeb565b6000606082840312156130c357600080fd5b610c358383612c88565b600181811c908216806130e157607f821691505b602082108103612bb557634e487b7160e01b600052602260045260246000fd5b634e487b7160e01b600052601160045260246000fd5b80820180821115610a4f57610a4f613101565b634e487b7160e01b600052603260045260246000fd5b60008235605e1983360301811261315657600080fd5b9190910192915050565b6000808335601e1984360301811261317757600080fd5b8301803591506001600160401b0382111561319157600080fd5b602001915036819003821315612cdb57600080fd5b6000602082840312156131b857600080fd5b610c3582612e6d565b601f82111561173e576000816000526020600020601f850160051c810160208610156131ea5750805b601f850160051c820191505b81811015613209578281556001016131f6565b505050505050565b6001600160401b0383111561322857613228612a00565b61323c8361323683546130cd565b836131c1565b6000601f84116001811461327057600085156132585750838201355b600019600387901b1c1916600186901b178355611598565b600083815260209020601f19861690835b828110156132a15786850135825560209485019460019092019101613281565b50868210156132be5760001960f88860031b161c19848701351681555b505060018560011b0183555050505050565b81835281816020850137506000828201602090810191909152601f909101601f19169091010190565b60208082528181018390526000906040808401600586901b8501820187855b888110156133cf57878303603f190184528135368b9003605e1901811261333e57600080fd5b8a01606063ffffffff61335083612dc2565b16855261ffff613361898401612e6d565b168886015286820135601e1983360301811261337c57600080fd5b9091018781019190356001600160401b0381111561339957600080fd5b8036038313156133a857600080fd5b81888701526133ba82870182856132d0565b96890196955050509186019150600101613318565b509098975050505050505050565b600080858511156133ed57600080fd5b838611156133fa57600080fd5b5050820193919092039150565b6000845161341981846020890161299d565b8201838582376000930192835250909392505050565b6020815260006112806020830184866132d0565b6000823561013e1983360301811261315657600080fd5b6001600160401b03811681146116e357600080fd5b63ffffffff61347d89612dc2565b168152602088013560208201526000604089013561349a8161345a565b6001600160401b03811660408401525087606083015260e060808301526134c560e0830187896132d0565b6001600160a01b03861660a084015282810360c08401526134e78185876132d0565b9a9950505050505050505050565b60006020828403121561350757600080fd5b81516001600160401b0381111561351d57600080fd5b8201601f8101841361352e57600080fd5b805161353c612ab482612a6e565b81815285602083850101111561355157600080fd5b611f7582602083016020860161299d565b60006040828403121561357457600080fd5b61357c612a16565b82358152602083013560208201528091505092915050565b6020808252602b908201527f496e697469616c697a61626c653a20636f6e7472616374206973206e6f74206960408201526a6e697469616c697a696e6760a81b606082015260800190565b6000602082840312156135f157600080fd5b8135610c358161345a565b60018060a01b038516815283602082015261ffff83166040820152608060608201526000610d2860808301846129c1565b60408152600061364060408301856129c1565b8281036020840152611f7581856129c1565b60006020828403121561366457600080fd5b8151610c3581612df7565b6040815263ffffffff8351166040820152602083015160608201526000604084015160a060808401526136a560e08401826129c1565b90506060850151603f198483030160a08501526136c282826129c1565b60809690960151151560c08501525050506001600160a01b039190911660209091015290565b6000604082840312156136fa57600080fd5b613702612a16565b9050815181526020820151602082015292915050565b60006040828403121561372a57600080fd5b610c3583836136e8565b6001600160f01b0319813581811691600285101561375c5780818660020360031b1b83161692505b505092915050565b60006080828403121561377657600080fd5b604051606081018181106001600160401b038211171561379857613798612a00565b6040528251815260208301516137ad8161345a565b60208201526137bf84604085016136e8565b60408201529392505050565b6000826137e857634e487b7160e01b600052601260045260246000fd5b500490565b8082028115828204841417610a4f57610a4f613101565b80356020831015610a4f57600019602084900360031b1b1692915050565b6001600160c01b0319813581811691600885101561375c5760089490940360031b84901b1690921692915050565b6001600160401b0360c01b8560c01b16815263ffffffff60e01b8460e01b16600882015282600c8201526000825161388f81602c85016020870161299d565b91909101602c0195945050505050565b8481526001600160401b0360c01b8460c01b166020820152826028820152600082516138d281604885016020870161299d565b9190910160480195945050505050565b6000602082840312156138f457600080fd5b8151610c3581612aeb565b81516001600160401b0381111561391857613918612a00565b61392c8161392684546130cd565b846131c1565b602080601f83116001811461396157600084156139495750858301515b600019600386901b1c1916600185901b178555613209565b600085815260208120601f198616915b8281101561399057888601518255948401946001909101908401613971565b50858210156139ae5787850151600019600388901b60f8161c191681555b5050505050600190811b01905550565b6000825161315681846020870161299d56fe72ab1bc1039b79dc4724ffca13de82c96834302d3c7e0d4252232d4b2dd8f900a26469706673582212207a77625b8081b813c8bb4ce5e2c926e9685b20a0b3c1c92d9d920f42f42712cf64736f6c634300081600330000000000000000000000001a44076050125825900e736c501f859c50fe728c",
        "nonce": "0x53",
        "chainId": "0xfc"
      },
      "additionalContracts": [],
      "isFixedGasLimit": false
    },
    {
      "hash": null,
      "transactionType": "CREATE",
      "contractName": "TransparentUpgradeableProxy",
      "contractAddress": "0x24d544c796f2b8f2e2514b312c6202b88f049673",
      "function": null,
      "arguments": [
        "0x8f1B9c1fd67136D525E14D96Efb3887a33f16250",
        "0x0990be6dB8c785FBbF9deD8bAEc612A10CaE814b",
        "0x"
      ],
      "transaction": {
        "from": "0x0990be6db8c785fbbf9ded8baec612a10cae814b",
        "gas": "0xb0cd9",
        "value": "0x0",
        "input": "0x608060405260405162000df638038062000df6833981016040819052620000269162000473565b828162000036828260006200009a565b5062000066905060017fb53127684a568b3173ae13b9f8a6016e243e63b6e8ee1178d6a717850b5d610462000553565b60008051602062000daf8339815191521462000086576200008662000575565b6200009182620000cc565b505050620005de565b620000a5836200013e565b600082511180620000b35750805b15620000c757620000c5838362000180565b505b505050565b7f7e644d79422f17c01e4894b5f4f588d331ebfa28653d42ae832dc59e38c9798f6200010e60008051602062000daf833981519152546001600160a01b031690565b604080516001600160a01b03928316815291841660208301520160405180910390a16200013b81620001b1565b50565b62000149816200024f565b6040516001600160a01b038216907fbc7cd75a20ee27fd9adebab32041f755214dbc6bffa90cc0225b39da2e5c2d3b90600090a250565b6060620001a8838360405180606001604052806027815260200162000dcf60279139620002e6565b90505b92915050565b6001600160a01b0381166200021c5760405162461bcd60e51b815260206004820152602660248201527f455243313936373a206e65772061646d696e20697320746865207a65726f206160448201526564647265737360d01b60648201526084015b60405180910390fd5b8060008051602062000daf8339815191525b80546001600160a01b0319166001600160a01b039290921691909117905550565b6001600160a01b0381163b620002be5760405162461bcd60e51b815260206004820152602d60248201527f455243313936373a206e657720696d706c656d656e746174696f6e206973206e60448201526c1bdd08184818dbdb9d1c9858dd609a1b606482015260840162000213565b807f360894a13ba1a3210667c828492db98dca3e2076cc3735a920a3ca505d382bbc6200022e565b6060600080856001600160a01b0316856040516200030591906200058b565b600060405180830381855af49150503d806000811462000342576040519150601f19603f3d011682016040523d82523d6000602084013e62000347565b606091505b5090925090506200035b8683838762000365565b9695505050505050565b60608315620003d9578251600003620003d1576001600160a01b0385163b620003d15760405162461bcd60e51b815260206004820152601d60248201527f416464726573733a2063616c6c20746f206e6f6e2d636f6e7472616374000000604482015260640162000213565b5081620003e5565b620003e58383620003ed565b949350505050565b815115620003fe5781518083602001fd5b8060405162461bcd60e51b8152600401620002139190620005a9565b80516001600160a01b03811681146200043257600080fd5b919050565b634e487b7160e01b600052604160045260246000fd5b60005b838110156200046a57818101518382015260200162000450565b50506000910152565b6000806000606084860312156200048957600080fd5b62000494846200041a565b9250620004a4602085016200041a565b60408501519092506001600160401b0380821115620004c257600080fd5b818601915086601f830112620004d757600080fd5b815181811115620004ec57620004ec62000437565b604051601f8201601f19908116603f0116810190838211818310171562000517576200051762000437565b816040528281528960208487010111156200053157600080fd5b620005448360208301602088016200044d565b80955050505050509250925092565b81810381811115620001ab57634e487b7160e01b600052601160045260246000fd5b634e487b7160e01b600052600160045260246000fd5b600082516200059f8184602087016200044d565b9190910192915050565b6020815260008251806020840152620005ca8160408501602087016200044d565b601f01601f19169190910160400192915050565b6107c180620005ee6000396000f3fe60806040526004361061004e5760003560e01c80633659cfe6146100655780634f1ef286146100855780635c60da1b146100985780638f283970146100c9578063f851a440146100e95761005d565b3661005d5761005b6100fe565b005b61005b6100fe565b34801561007157600080fd5b5061005b610080366004610653565b610118565b61005b61009336600461066e565b610155565b3480156100a457600080fd5b506100ad6101bc565b6040516001600160a01b03909116815260200160405180910390f35b3480156100d557600080fd5b5061005b6100e4366004610653565b6101ed565b3480156100f557600080fd5b506100ad61020d565b61010661022e565b61011661011161025e565b610268565b565b61012061028c565b6001600160a01b0316330361014d5761014a816040518060200160405280600081525060006102bf565b50565b61014a6100fe565b61015d61028c565b6001600160a01b031633036101b4576101af8383838080601f016020809104026020016040519081016040528093929190818152602001838380828437600092019190915250600192506102bf915050565b505050565b6101af6100fe565b60006101c661028c565b6001600160a01b031633036101e2576101dd61025e565b905090565b6101ea6100fe565b90565b6101f561028c565b6001600160a01b0316330361014d5761014a816102ea565b600061021761028c565b6001600160a01b031633036101e2576101dd61028c565b61023661028c565b6001600160a01b031633036101165760405163786a591f60e11b815260040160405180910390fd5b60006101dd61033e565b3660008037600080366000845af43d6000803e808015610287573d6000f35b3d6000fd5b60007fb53127684a568b3173ae13b9f8a6016e243e63b6e8ee1178d6a717850b5d61035b546001600160a01b0316919050565b6102c883610366565b6000825111806102d55750805b156101af576102e483836103a6565b50505050565b7f7e644d79422f17c01e4894b5f4f588d331ebfa28653d42ae832dc59e38c9798f61031361028c565b604080516001600160a01b03928316815291841660208301520160405180910390a161014a816103d2565b60007f360894a13ba1a3210667c828492db98dca3e2076cc3735a920a3ca505d382bbc6102b0565b61036f81610480565b6040516001600160a01b038216907fbc7cd75a20ee27fd9adebab32041f755214dbc6bffa90cc0225b39da2e5c2d3b90600090a250565b60606103cb838360405180606001604052806027815260200161076560279139610514565b9392505050565b6001600160a01b03811661043c5760405162461bcd60e51b815260206004820152602660248201527f455243313936373a206e65772061646d696e20697320746865207a65726f206160448201526564647265737360d01b60648201526084015b60405180910390fd5b807fb53127684a568b3173ae13b9f8a6016e243e63b6e8ee1178d6a717850b5d61035b80546001600160a01b0319166001600160a01b039290921691909117905550565b6001600160a01b0381163b6104ed5760405162461bcd60e51b815260206004820152602d60248201527f455243313936373a206e657720696d706c656d656e746174696f6e206973206e60448201526c1bdd08184818dbdb9d1c9858dd609a1b6064820152608401610433565b807f360894a13ba1a3210667c828492db98dca3e2076cc3735a920a3ca505d382bbc61045f565b6060600080856001600160a01b0316856040516105319190610715565b600060405180830381855af49150503d806000811461056c576040519150601f19603f3d011682016040523d82523d6000602084013e610571565b606091505b50915091506105828683838761058c565b9695505050505050565b606083156105fb5782516000036105f4576001600160a01b0385163b6105f45760405162461bcd60e51b815260206004820152601d60248201527f416464726573733a2063616c6c20746f206e6f6e2d636f6e74726163740000006044820152606401610433565b5081610605565b610605838361060d565b949350505050565b81511561061d5781518083602001fd5b8060405162461bcd60e51b81526004016104339190610731565b80356001600160a01b038116811461064e57600080fd5b919050565b60006020828403121561066557600080fd5b6103cb82610637565b60008060006040848603121561068357600080fd5b61068c84610637565b9250602084013567ffffffffffffffff808211156106a957600080fd5b818601915086601f8301126106bd57600080fd5b8135818111156106cc57600080fd5b8760208285010111156106de57600080fd5b6020830194508093505050509250925092565b60005b8381101561070c5781810151838201526020016106f4565b50506000910152565b600082516107278184602087016106f1565b9190910192915050565b60208152600082518060208401526107508160408501602087016106f1565b601f01601f1916919091016040019291505056fe416464726573733a206c6f772d6c6576656c2064656c65676174652063616c6c206661696c6564a2646970667358221220c9758782effd34c50684c9008a4ffd4b3fbcecbd39c17a55f1248566c174078b64736f6c63430008160033b53127684a568b3173ae13b9f8a6016e243e63b6e8ee1178d6a717850b5d6103416464726573733a206c6f772d6c6576656c2064656c65676174652063616c6c206661696c65640000000000000000000000008f1b9c1fd67136d525e14d96efb3887a33f162500000000000000000000000000990be6db8c785fbbf9ded8baec612a10cae814b00000000000000000000000000000000000000000000000000000000000000600000000000000000000000000000000000000000000000000000000000000000",
        "nonce": "0x54",
        "chainId": "0xfc"
      },
      "additionalContracts": [],
      "isFixedGasLimit": false
    },
    {
      "hash": null,
      "transactionType": "CALL",
      "contractName": "TransparentUpgradeableProxy",
      "contractAddress": "0x24d544c796f2b8f2e2514b312c6202b88f049673",
      "function": "upgradeToAndCall(address,bytes)",
      "arguments": [
        "0xA140Ac7d8EdA834933bbb94A575eC7037386079D",
        "0x077f224a000000000000000000000000000000000000000000000000000000000000006000000000000000000000000000000000000000000000000000000000000000a00000000000000000000000000990be6db8c785fbbf9ded8baec612a10cae814b000000000000000000000000000000000000000000000000000000000000000a4d6f636b2073467261780000000000000000000000000000000000000000000000000000000000000000000000000000000000000000000000000000000000066d73467261780000000000000000000000000000000000000000000000000000"
      ],
      "transaction": {
        "from": "0x0990be6db8c785fbbf9ded8baec612a10cae814b",
        "to": "0x24d544c796f2b8f2e2514b312c6202b88f049673",
        "gas": "0x3621e",
        "value": "0x0",
        "input": "0x4f1ef286000000000000000000000000a140ac7d8eda834933bbb94a575ec7037386079d000000000000000000000000000000000000000000000000000000000000004000000000000000000000000000000000000000000000000000000000000000e4077f224a000000000000000000000000000000000000000000000000000000000000006000000000000000000000000000000000000000000000000000000000000000a00000000000000000000000000990be6db8c785fbbf9ded8baec612a10cae814b000000000000000000000000000000000000000000000000000000000000000a4d6f636b2073467261780000000000000000000000000000000000000000000000000000000000000000000000000000000000000000000000000000000000066d7346726178000000000000000000000000000000000000000000000000000000000000000000000000000000000000000000000000000000000000",
        "nonce": "0x55",
        "chainId": "0xfc"
      },
      "additionalContracts": [],
      "isFixedGasLimit": false
    },
    {
      "hash": null,
      "transactionType": "CALL",
      "contractName": "TransparentUpgradeableProxy",
      "contractAddress": "0x24d544c796f2b8f2e2514b312c6202b88f049673",
      "function": "changeAdmin(address)",
      "arguments": [
        "0x223a681fc5c5522c85C96157c0efA18cd6c5405c"
      ],
      "transaction": {
        "from": "0x0990be6db8c785fbbf9ded8baec612a10cae814b",
        "to": "0x24d544c796f2b8f2e2514b312c6202b88f049673",
        "gas": "0xa3ad",
        "value": "0x0",
        "input": "0x8f283970000000000000000000000000223a681fc5c5522c85c96157c0efa18cd6c5405c",
        "nonce": "0x56",
        "chainId": "0xfc"
      },
      "additionalContracts": [],
      "isFixedGasLimit": false
    },
    {
      "hash": null,
      "transactionType": "CALL",
      "contractName": "TransparentUpgradeableProxy",
      "contractAddress": "0x3d9ec5191af8447bbcb61ff460944056be350013",
      "function": null,
      "arguments": null,
      "transaction": {
        "from": "0x0990be6db8c785fbbf9ded8baec612a10cae814b",
        "to": "0x3d9ec5191af8447bbcb61ff460944056be350013",
        "gas": "0x8cee4",
        "value": "0x0",
        "input": "0xb98bd0700000000000000000000000000000000000000000000000000000000000000020000000000000000000000000000000000000000000000000000000000000000e00000000000000000000000000000000000000000000000000000000000001c00000000000000000000000000000000000000000000000000000000000000260000000000000000000000000000000000000000000000000000000000000030000000000000000000000000000000000000000000000000000000000000003a0000000000000000000000000000000000000000000000000000000000000044000000000000000000000000000000000000000000000000000000000000004e00000000000000000000000000000000000000000000000000000000000000580000000000000000000000000000000000000000000000000000000000000062000000000000000000000000000000000000000000000000000000000000006c00000000000000000000000000000000000000000000000000000000000000760000000000000000000000000000000000000000000000000000000000000080000000000000000000000000000000000000000000000000000000000000008a0000000000000000000000000000000000000000000000000000000000000094000000000000000000000000000000000000000000000000000000000000009e0000000000000000000000000000000000000000000000000000000000000759500000000000000000000000000000000000000000000000000000000000000010000000000000000000000000000000000000000000000000000000000000060000000000000000000000000000000000000000000000000000000000000001600030100110100000000000000000000000000030d400000000000000000000000000000000000000000000000000000000000000000000000000000000075950000000000000000000000000000000000000000000000000000000000000002000000000000000000000000000000000000000000000000000000000000006000000000000000000000000000000000000000000000000000000000000000160003010011010000000000000000000000000003d09000000000000000000000000000000000000000000000000000000000000000000000000000000000762300000000000000000000000000000000000000000000000000000000000000010000000000000000000000000000000000000000000000000000000000000060000000000000000000000000000000000000000000000000000000000000001600030100110100000000000000000000000000030d400000000000000000000000000000000000000000000000000000000000000000000000000000000076230000000000000000000000000000000000000000000000000000000000000002000000000000000000000000000000000000000000000000000000000000006000000000000000000000000000000000000000000000000000000000000000160003010011010000000000000000000000000003d0900000000000000000000000000000000000000000000000000000000000000000000000000000000075c700000000000000000000000000000000000000000000000000000000000000010000000000000000000000000000000000000000000000000000000000000060000000000000000000000000000000000000000000000000000000000000001600030100110100000000000000000000000000030d400000000000000000000000000000000000000000000000000000000000000000000000000000000075c70000000000000000000000000000000000000000000000000000000000000002000000000000000000000000000000000000000000000000000000000000006000000000000000000000000000000000000000000000000000000000000000160003010011010000000000000000000000000003d0900000000000000000000000000000000000000000000000000000000000000000000000000000000075e800000000000000000000000000000000000000000000000000000000000000010000000000000000000000000000000000000000000000000000000000000060000000000000000000000000000000000000000000000000000000000000001600030100110100000000000000000000000000030d400000000000000000000000000000000000000000000000000000000000000000000000000000000075e80000000000000000000000000000000000000000000000000000000000000002000000000000000000000000000000000000000000000000000000000000006000000000000000000000000000000000000000000000000000000000000000160003010011010000000000000000000000000003d09000000000000000000000000000000000000000000000000000000000000000000000000000000000763400000000000000000000000000000000000000000000000000000000000000010000000000000000000000000000000000000000000000000000000000000060000000000000000000000000000000000000000000000000000000000000001600030100110100000000000000000000000000030d400000000000000000000000000000000000000000000000000000000000000000000000000000000076340000000000000000000000000000000000000000000000000000000000000002000000000000000000000000000000000000000000000000000000000000006000000000000000000000000000000000000000000000000000000000000000160003010011010000000000000000000000000003d09000000000000000000000000000000000000000000000000000000000000000000000000000000000764800000000000000000000000000000000000000000000000000000000000000010000000000000000000000000000000000000000000000000000000000000060000000000000000000000000000000000000000000000000000000000000001600030100110100000000000000000000000000030d400000000000000000000000000000000000000000000000000000000000000000000000000000000076480000000000000000000000000000000000000000000000000000000000000002000000000000000000000000000000000000000000000000000000000000006000000000000000000000000000000000000000000000000000000000000000160003010011010000000000000000000000000003d09000000000000000000000000000000000000000000000000000000000000000000000000000000000764200000000000000000000000000000000000000000000000000000000000000010000000000000000000000000000000000000000000000000000000000000060000000000000000000000000000000000000000000000000000000000000001600030100110100000000000000000000000000030d400000000000000000000000000000000000000000000000000000000000000000000000000000000076420000000000000000000000000000000000000000000000000000000000000002000000000000000000000000000000000000000000000000000000000000006000000000000000000000000000000000000000000000000000000000000000160003010011010000000000000000000000000003d09000000000000000000000",
        "nonce": "0x57",
        "chainId": "0xfc"
      },
      "additionalContracts": [],
      "isFixedGasLimit": false
    },
    {
      "hash": null,
      "transactionType": "CALL",
      "contractName": "TransparentUpgradeableProxy",
      "contractAddress": "0x24d544c796f2b8f2e2514b312c6202b88f049673",
      "function": null,
      "arguments": null,
      "transaction": {
        "from": "0x0990be6db8c785fbbf9ded8baec612a10cae814b",
        "to": "0x24d544c796f2b8f2e2514b312c6202b88f049673",
        "gas": "0x8cee4",
        "value": "0x0",
        "input": "0xb98bd0700000000000000000000000000000000000000000000000000000000000000020000000000000000000000000000000000000000000000000000000000000000e00000000000000000000000000000000000000000000000000000000000001c00000000000000000000000000000000000000000000000000000000000000260000000000000000000000000000000000000000000000000000000000000030000000000000000000000000000000000000000000000000000000000000003a0000000000000000000000000000000000000000000000000000000000000044000000000000000000000000000000000000000000000000000000000000004e00000000000000000000000000000000000000000000000000000000000000580000000000000000000000000000000000000000000000000000000000000062000000000000000000000000000000000000000000000000000000000000006c00000000000000000000000000000000000000000000000000000000000000760000000000000000000000000000000000000000000000000000000000000080000000000000000000000000000000000000000000000000000000000000008a0000000000000000000000000000000000000000000000000000000000000094000000000000000000000000000000000000000000000000000000000000009e0000000000000000000000000000000000000000000000000000000000000759500000000000000000000000000000000000000000000000000000000000000010000000000000000000000000000000000000000000000000000000000000060000000000000000000000000000000000000000000000000000000000000001600030100110100000000000000000000000000030d400000000000000000000000000000000000000000000000000000000000000000000000000000000075950000000000000000000000000000000000000000000000000000000000000002000000000000000000000000000000000000000000000000000000000000006000000000000000000000000000000000000000000000000000000000000000160003010011010000000000000000000000000003d09000000000000000000000000000000000000000000000000000000000000000000000000000000000762300000000000000000000000000000000000000000000000000000000000000010000000000000000000000000000000000000000000000000000000000000060000000000000000000000000000000000000000000000000000000000000001600030100110100000000000000000000000000030d400000000000000000000000000000000000000000000000000000000000000000000000000000000076230000000000000000000000000000000000000000000000000000000000000002000000000000000000000000000000000000000000000000000000000000006000000000000000000000000000000000000000000000000000000000000000160003010011010000000000000000000000000003d0900000000000000000000000000000000000000000000000000000000000000000000000000000000075c700000000000000000000000000000000000000000000000000000000000000010000000000000000000000000000000000000000000000000000000000000060000000000000000000000000000000000000000000000000000000000000001600030100110100000000000000000000000000030d400000000000000000000000000000000000000000000000000000000000000000000000000000000075c70000000000000000000000000000000000000000000000000000000000000002000000000000000000000000000000000000000000000000000000000000006000000000000000000000000000000000000000000000000000000000000000160003010011010000000000000000000000000003d0900000000000000000000000000000000000000000000000000000000000000000000000000000000075e800000000000000000000000000000000000000000000000000000000000000010000000000000000000000000000000000000000000000000000000000000060000000000000000000000000000000000000000000000000000000000000001600030100110100000000000000000000000000030d400000000000000000000000000000000000000000000000000000000000000000000000000000000075e80000000000000000000000000000000000000000000000000000000000000002000000000000000000000000000000000000000000000000000000000000006000000000000000000000000000000000000000000000000000000000000000160003010011010000000000000000000000000003d09000000000000000000000000000000000000000000000000000000000000000000000000000000000763400000000000000000000000000000000000000000000000000000000000000010000000000000000000000000000000000000000000000000000000000000060000000000000000000000000000000000000000000000000000000000000001600030100110100000000000000000000000000030d400000000000000000000000000000000000000000000000000000000000000000000000000000000076340000000000000000000000000000000000000000000000000000000000000002000000000000000000000000000000000000000000000000000000000000006000000000000000000000000000000000000000000000000000000000000000160003010011010000000000000000000000000003d09000000000000000000000000000000000000000000000000000000000000000000000000000000000764800000000000000000000000000000000000000000000000000000000000000010000000000000000000000000000000000000000000000000000000000000060000000000000000000000000000000000000000000000000000000000000001600030100110100000000000000000000000000030d400000000000000000000000000000000000000000000000000000000000000000000000000000000076480000000000000000000000000000000000000000000000000000000000000002000000000000000000000000000000000000000000000000000000000000006000000000000000000000000000000000000000000000000000000000000000160003010011010000000000000000000000000003d09000000000000000000000000000000000000000000000000000000000000000000000000000000000764200000000000000000000000000000000000000000000000000000000000000010000000000000000000000000000000000000000000000000000000000000060000000000000000000000000000000000000000000000000000000000000001600030100110100000000000000000000000000030d400000000000000000000000000000000000000000000000000000000000000000000000000000000076420000000000000000000000000000000000000000000000000000000000000002000000000000000000000000000000000000000000000000000000000000006000000000000000000000000000000000000000000000000000000000000000160003010011010000000000000000000000000003d09000000000000000000000",
        "nonce": "0x58",
        "chainId": "0xfc"
      },
      "additionalContracts": [],
      "isFixedGasLimit": false
    },
    {
      "hash": null,
      "transactionType": "CALL",
      "contractName": null,
      "contractAddress": "0x1a44076050125825900e736c501f859c50fe728c",
      "function": "setConfig(address,address,(uint32,uint32,bytes)[])",
      "arguments": [
        "0x3d9eC5191Af8447BbcB61ff460944056be350013",
        "0x8bC1e36F015b9902B54b1387A4d733cebc2f5A4e",
        "[(30101, 2, 0x0000000000000000000000000000000000000000000000000000000000000020000000000000000000000000000000000000000000000000000000000000000000000000000000000000000000000000000000000000000000000000000000020000000000000000000000000000000000000000000000000000000000000000000000000000000000000000000000000000000000000000000000000000000000000000000000000000000000000000000000000000000000000000000000c000000000000000000000000000000000000000000000000000000000000001200000000000000000000000000000000000000000000000000000000000000002000000000000000000000000cce466a522984415bc91338c232d98869193d46e000000000000000000000000dd7b5e1db4aafd5c8ec3b764efb8ed265aa5445b0000000000000000000000000000000000000000000000000000000000000000), (30243, 2, 0x0000000000000000000000000000000000000000000000000000000000000020000000000000000000000000000000000000000000000000000000000000000000000000000000000000000000000000000000000000000000000000000000020000000000000000000000000000000000000000000000000000000000000000000000000000000000000000000000000000000000000000000000000000000000000000000000000000000000000000000000000000000000000000000000c000000000000000000000000000000000000000000000000000000000000001200000000000000000000000000000000000000000000000000000000000000002000000000000000000000000cce466a522984415bc91338c232d98869193d46e000000000000000000000000dd7b5e1db4aafd5c8ec3b764efb8ed265aa5445b0000000000000000000000000000000000000000000000000000000000000000), (30151, 2, 0x0000000000000000000000000000000000000000000000000000000000000020000000000000000000000000000000000000000000000000000000000000000000000000000000000000000000000000000000000000000000000000000000020000000000000000000000000000000000000000000000000000000000000000000000000000000000000000000000000000000000000000000000000000000000000000000000000000000000000000000000000000000000000000000000c000000000000000000000000000000000000000000000000000000000000001200000000000000000000000000000000000000000000000000000000000000002000000000000000000000000cce466a522984415bc91338c232d98869193d46e000000000000000000000000dd7b5e1db4aafd5c8ec3b764efb8ed265aa5445b0000000000000000000000000000000000000000000000000000000000000000), (30184, 2, 0x0000000000000000000000000000000000000000000000000000000000000020000000000000000000000000000000000000000000000000000000000000000000000000000000000000000000000000000000000000000000000000000000020000000000000000000000000000000000000000000000000000000000000000000000000000000000000000000000000000000000000000000000000000000000000000000000000000000000000000000000000000000000000000000000c000000000000000000000000000000000000000000000000000000000000001200000000000000000000000000000000000000000000000000000000000000002000000000000000000000000cce466a522984415bc91338c232d98869193d46e000000000000000000000000dd7b5e1db4aafd5c8ec3b764efb8ed265aa5445b0000000000000000000000000000000000000000000000000000000000000000), (30260, 2, 0x0000000000000000000000000000000000000000000000000000000000000020000000000000000000000000000000000000000000000000000000000000000000000000000000000000000000000000000000000000000000000000000000020000000000000000000000000000000000000000000000000000000000000000000000000000000000000000000000000000000000000000000000000000000000000000000000000000000000000000000000000000000000000000000000c000000000000000000000000000000000000000000000000000000000000001200000000000000000000000000000000000000000000000000000000000000002000000000000000000000000cce466a522984415bc91338c232d98869193d46e000000000000000000000000dd7b5e1db4aafd5c8ec3b764efb8ed265aa5445b0000000000000000000000000000000000000000000000000000000000000000), (30280, 2, 0x0000000000000000000000000000000000000000000000000000000000000020000000000000000000000000000000000000000000000000000000000000000000000000000000000000000000000000000000000000000000000000000000020000000000000000000000000000000000000000000000000000000000000000000000000000000000000000000000000000000000000000000000000000000000000000000000000000000000000000000000000000000000000000000000c000000000000000000000000000000000000000000000000000000000000001200000000000000000000000000000000000000000000000000000000000000002000000000000000000000000cce466a522984415bc91338c232d98869193d46e000000000000000000000000dd7b5e1db4aafd5c8ec3b764efb8ed265aa5445b0000000000000000000000000000000000000000000000000000000000000000), (30274, 2, 0x0000000000000000000000000000000000000000000000000000000000000020000000000000000000000000000000000000000000000000000000000000000000000000000000000000000000000000000000000000000000000000000000020000000000000000000000000000000000000000000000000000000000000000000000000000000000000000000000000000000000000000000000000000000000000000000000000000000000000000000000000000000000000000000000c000000000000000000000000000000000000000000000000000000000000001200000000000000000000000000000000000000000000000000000000000000002000000000000000000000000cce466a522984415bc91338c232d98869193d46e000000000000000000000000dd7b5e1db4aafd5c8ec3b764efb8ed265aa5445b0000000000000000000000000000000000000000000000000000000000000000)]"
      ],
      "transaction": {
        "from": "0x0990be6db8c785fbbf9ded8baec612a10cae814b",
        "to": "0x1a44076050125825900e736c501f859c50fe728c",
        "gas": "0x118db8",
        "value": "0x0",
        "input": "0x6dbd9f900000000000000000000000003d9ec5191af8447bbcb61ff460944056be3500130000000000000000000000008bc1e36f015b9902b54b1387a4d733cebc2f5a4e0000000000000000000000000000000000000000000000000000000000000060000000000000000000000000000000000000000000000000000000000000000700000000000000000000000000000000000000000000000000000000000000e000000000000000000000000000000000000000000000000000000000000002c000000000000000000000000000000000000000000000000000000000000004a0000000000000000000000000000000000000000000000000000000000000068000000000000000000000000000000000000000000000000000000000000008600000000000000000000000000000000000000000000000000000000000000a400000000000000000000000000000000000000000000000000000000000000c2000000000000000000000000000000000000000000000000000000000000075950000000000000000000000000000000000000000000000000000000000000002000000000000000000000000000000000000000000000000000000000000006000000000000000000000000000000000000000000000000000000000000001600000000000000000000000000000000000000000000000000000000000000020000000000000000000000000000000000000000000000000000000000000000000000000000000000000000000000000000000000000000000000000000000020000000000000000000000000000000000000000000000000000000000000000000000000000000000000000000000000000000000000000000000000000000000000000000000000000000000000000000000000000000000000000000000c000000000000000000000000000000000000000000000000000000000000001200000000000000000000000000000000000000000000000000000000000000002000000000000000000000000cce466a522984415bc91338c232d98869193d46e000000000000000000000000dd7b5e1db4aafd5c8ec3b764efb8ed265aa5445b000000000000000000000000000000000000000000000000000000000000000000000000000000000000000000000000000000000000000000000000000076230000000000000000000000000000000000000000000000000000000000000002000000000000000000000000000000000000000000000000000000000000006000000000000000000000000000000000000000000000000000000000000001600000000000000000000000000000000000000000000000000000000000000020000000000000000000000000000000000000000000000000000000000000000000000000000000000000000000000000000000000000000000000000000000020000000000000000000000000000000000000000000000000000000000000000000000000000000000000000000000000000000000000000000000000000000000000000000000000000000000000000000000000000000000000000000000c000000000000000000000000000000000000000000000000000000000000001200000000000000000000000000000000000000000000000000000000000000002000000000000000000000000cce466a522984415bc91338c232d98869193d46e000000000000000000000000dd7b5e1db4aafd5c8ec3b764efb8ed265aa5445b000000000000000000000000000000000000000000000000000000000000000000000000000000000000000000000000000000000000000000000000000075c70000000000000000000000000000000000000000000000000000000000000002000000000000000000000000000000000000000000000000000000000000006000000000000000000000000000000000000000000000000000000000000001600000000000000000000000000000000000000000000000000000000000000020000000000000000000000000000000000000000000000000000000000000000000000000000000000000000000000000000000000000000000000000000000020000000000000000000000000000000000000000000000000000000000000000000000000000000000000000000000000000000000000000000000000000000000000000000000000000000000000000000000000000000000000000000000c000000000000000000000000000000000000000000000000000000000000001200000000000000000000000000000000000000000000000000000000000000002000000000000000000000000cce466a522984415bc91338c232d98869193d46e000000000000000000000000dd7b5e1db4aafd5c8ec3b764efb8ed265aa5445b000000000000000000000000000000000000000000000000000000000000000000000000000000000000000000000000000000000000000000000000000075e80000000000000000000000000000000000000000000000000000000000000002000000000000000000000000000000000000000000000000000000000000006000000000000000000000000000000000000000000000000000000000000001600000000000000000000000000000000000000000000000000000000000000020000000000000000000000000000000000000000000000000000000000000000000000000000000000000000000000000000000000000000000000000000000020000000000000000000000000000000000000000000000000000000000000000000000000000000000000000000000000000000000000000000000000000000000000000000000000000000000000000000000000000000000000000000000c000000000000000000000000000000000000000000000000000000000000001200000000000000000000000000000000000000000000000000000000000000002000000000000000000000000cce466a522984415bc91338c232d98869193d46e000000000000000000000000dd7b5e1db4aafd5c8ec3b764efb8ed265aa5445b000000000000000000000000000000000000000000000000000000000000000000000000000000000000000000000000000000000000000000000000000076340000000000000000000000000000000000000000000000000000000000000002000000000000000000000000000000000000000000000000000000000000006000000000000000000000000000000000000000000000000000000000000001600000000000000000000000000000000000000000000000000000000000000020000000000000000000000000000000000000000000000000000000000000000000000000000000000000000000000000000000000000000000000000000000020000000000000000000000000000000000000000000000000000000000000000000000000000000000000000000000000000000000000000000000000000000000000000000000000000000000000000000000000000000000000000000000c000000000000000000000000000000000000000000000000000000000000001200000000000000000000000000000000000000000000000000000000000000002000000000000000000000000cce466a522984415bc91338c232d98869193d46e000000000000000000000000dd7b5e1db4aafd5c8ec3b764efb8ed265aa5445b000000000000000000000000000000000000000000000000000000000000000000000000000000000000000000000000000000000000000000000000000076480000000000000000000000000000000000000000000000000000000000000002000000000000000000000000000000000000000000000000000000000000006000000000000000000000000000000000000000000000000000000000000001600000000000000000000000000000000000000000000000000000000000000020000000000000000000000000000000000000000000000000000000000000000000000000000000000000000000000000000000000000000000000000000000020000000000000000000000000000000000000000000000000000000000000000000000000000000000000000000000000000000000000000000000000000000000000000000000000000000000000000000000000000000000000000000000c000000000000000000000000000000000000000000000000000000000000001200000000000000000000000000000000000000000000000000000000000000002000000000000000000000000cce466a522984415bc91338c232d98869193d46e000000000000000000000000dd7b5e1db4aafd5c8ec3b764efb8ed265aa5445b000000000000000000000000000000000000000000000000000000000000000000000000000000000000000000000000000000000000000000000000000076420000000000000000000000000000000000000000000000000000000000000002000000000000000000000000000000000000000000000000000000000000006000000000000000000000000000000000000000000000000000000000000001600000000000000000000000000000000000000000000000000000000000000020000000000000000000000000000000000000000000000000000000000000000000000000000000000000000000000000000000000000000000000000000000020000000000000000000000000000000000000000000000000000000000000000000000000000000000000000000000000000000000000000000000000000000000000000000000000000000000000000000000000000000000000000000000c000000000000000000000000000000000000000000000000000000000000001200000000000000000000000000000000000000000000000000000000000000002000000000000000000000000cce466a522984415bc91338c232d98869193d46e000000000000000000000000dd7b5e1db4aafd5c8ec3b764efb8ed265aa5445b0000000000000000000000000000000000000000000000000000000000000000",
        "nonce": "0x59",
        "chainId": "0xfc"
      },
      "additionalContracts": [],
      "isFixedGasLimit": false
    },
    {
      "hash": null,
      "transactionType": "CALL",
      "contractName": null,
      "contractAddress": "0x1a44076050125825900e736c501f859c50fe728c",
      "function": "setConfig(address,address,(uint32,uint32,bytes)[])",
      "arguments": [
        "0x3d9eC5191Af8447BbcB61ff460944056be350013",
        "0x377530cdA84DFb2673bF4d145DCF0C4D7fdcB5b6",
        "[(30101, 2, 0x0000000000000000000000000000000000000000000000000000000000000020000000000000000000000000000000000000000000000000000000000000000000000000000000000000000000000000000000000000000000000000000000020000000000000000000000000000000000000000000000000000000000000000000000000000000000000000000000000000000000000000000000000000000000000000000000000000000000000000000000000000000000000000000000c000000000000000000000000000000000000000000000000000000000000001200000000000000000000000000000000000000000000000000000000000000002000000000000000000000000cce466a522984415bc91338c232d98869193d46e000000000000000000000000dd7b5e1db4aafd5c8ec3b764efb8ed265aa5445b0000000000000000000000000000000000000000000000000000000000000000), (30243, 2, 0x0000000000000000000000000000000000000000000000000000000000000020000000000000000000000000000000000000000000000000000000000000000000000000000000000000000000000000000000000000000000000000000000020000000000000000000000000000000000000000000000000000000000000000000000000000000000000000000000000000000000000000000000000000000000000000000000000000000000000000000000000000000000000000000000c000000000000000000000000000000000000000000000000000000000000001200000000000000000000000000000000000000000000000000000000000000002000000000000000000000000cce466a522984415bc91338c232d98869193d46e000000000000000000000000dd7b5e1db4aafd5c8ec3b764efb8ed265aa5445b0000000000000000000000000000000000000000000000000000000000000000), (30151, 2, 0x0000000000000000000000000000000000000000000000000000000000000020000000000000000000000000000000000000000000000000000000000000000000000000000000000000000000000000000000000000000000000000000000020000000000000000000000000000000000000000000000000000000000000000000000000000000000000000000000000000000000000000000000000000000000000000000000000000000000000000000000000000000000000000000000c000000000000000000000000000000000000000000000000000000000000001200000000000000000000000000000000000000000000000000000000000000002000000000000000000000000cce466a522984415bc91338c232d98869193d46e000000000000000000000000dd7b5e1db4aafd5c8ec3b764efb8ed265aa5445b0000000000000000000000000000000000000000000000000000000000000000), (30184, 2, 0x0000000000000000000000000000000000000000000000000000000000000020000000000000000000000000000000000000000000000000000000000000000000000000000000000000000000000000000000000000000000000000000000020000000000000000000000000000000000000000000000000000000000000000000000000000000000000000000000000000000000000000000000000000000000000000000000000000000000000000000000000000000000000000000000c000000000000000000000000000000000000000000000000000000000000001200000000000000000000000000000000000000000000000000000000000000002000000000000000000000000cce466a522984415bc91338c232d98869193d46e000000000000000000000000dd7b5e1db4aafd5c8ec3b764efb8ed265aa5445b0000000000000000000000000000000000000000000000000000000000000000), (30260, 2, 0x0000000000000000000000000000000000000000000000000000000000000020000000000000000000000000000000000000000000000000000000000000000000000000000000000000000000000000000000000000000000000000000000020000000000000000000000000000000000000000000000000000000000000000000000000000000000000000000000000000000000000000000000000000000000000000000000000000000000000000000000000000000000000000000000c000000000000000000000000000000000000000000000000000000000000001200000000000000000000000000000000000000000000000000000000000000002000000000000000000000000cce466a522984415bc91338c232d98869193d46e000000000000000000000000dd7b5e1db4aafd5c8ec3b764efb8ed265aa5445b0000000000000000000000000000000000000000000000000000000000000000), (30280, 2, 0x0000000000000000000000000000000000000000000000000000000000000020000000000000000000000000000000000000000000000000000000000000000000000000000000000000000000000000000000000000000000000000000000020000000000000000000000000000000000000000000000000000000000000000000000000000000000000000000000000000000000000000000000000000000000000000000000000000000000000000000000000000000000000000000000c000000000000000000000000000000000000000000000000000000000000001200000000000000000000000000000000000000000000000000000000000000002000000000000000000000000cce466a522984415bc91338c232d98869193d46e000000000000000000000000dd7b5e1db4aafd5c8ec3b764efb8ed265aa5445b0000000000000000000000000000000000000000000000000000000000000000), (30274, 2, 0x0000000000000000000000000000000000000000000000000000000000000020000000000000000000000000000000000000000000000000000000000000000000000000000000000000000000000000000000000000000000000000000000020000000000000000000000000000000000000000000000000000000000000000000000000000000000000000000000000000000000000000000000000000000000000000000000000000000000000000000000000000000000000000000000c000000000000000000000000000000000000000000000000000000000000001200000000000000000000000000000000000000000000000000000000000000002000000000000000000000000cce466a522984415bc91338c232d98869193d46e000000000000000000000000dd7b5e1db4aafd5c8ec3b764efb8ed265aa5445b0000000000000000000000000000000000000000000000000000000000000000)]"
      ],
      "transaction": {
        "from": "0x0990be6db8c785fbbf9ded8baec612a10cae814b",
        "to": "0x1a44076050125825900e736c501f859c50fe728c",
        "gas": "0x109b9c",
        "value": "0x0",
        "input": "0x6dbd9f900000000000000000000000003d9ec5191af8447bbcb61ff460944056be350013000000000000000000000000377530cda84dfb2673bf4d145dcf0c4d7fdcb5b60000000000000000000000000000000000000000000000000000000000000060000000000000000000000000000000000000000000000000000000000000000700000000000000000000000000000000000000000000000000000000000000e000000000000000000000000000000000000000000000000000000000000002c000000000000000000000000000000000000000000000000000000000000004a0000000000000000000000000000000000000000000000000000000000000068000000000000000000000000000000000000000000000000000000000000008600000000000000000000000000000000000000000000000000000000000000a400000000000000000000000000000000000000000000000000000000000000c2000000000000000000000000000000000000000000000000000000000000075950000000000000000000000000000000000000000000000000000000000000002000000000000000000000000000000000000000000000000000000000000006000000000000000000000000000000000000000000000000000000000000001600000000000000000000000000000000000000000000000000000000000000020000000000000000000000000000000000000000000000000000000000000000000000000000000000000000000000000000000000000000000000000000000020000000000000000000000000000000000000000000000000000000000000000000000000000000000000000000000000000000000000000000000000000000000000000000000000000000000000000000000000000000000000000000000c000000000000000000000000000000000000000000000000000000000000001200000000000000000000000000000000000000000000000000000000000000002000000000000000000000000cce466a522984415bc91338c232d98869193d46e000000000000000000000000dd7b5e1db4aafd5c8ec3b764efb8ed265aa5445b000000000000000000000000000000000000000000000000000000000000000000000000000000000000000000000000000000000000000000000000000076230000000000000000000000000000000000000000000000000000000000000002000000000000000000000000000000000000000000000000000000000000006000000000000000000000000000000000000000000000000000000000000001600000000000000000000000000000000000000000000000000000000000000020000000000000000000000000000000000000000000000000000000000000000000000000000000000000000000000000000000000000000000000000000000020000000000000000000000000000000000000000000000000000000000000000000000000000000000000000000000000000000000000000000000000000000000000000000000000000000000000000000000000000000000000000000000c000000000000000000000000000000000000000000000000000000000000001200000000000000000000000000000000000000000000000000000000000000002000000000000000000000000cce466a522984415bc91338c232d98869193d46e000000000000000000000000dd7b5e1db4aafd5c8ec3b764efb8ed265aa5445b000000000000000000000000000000000000000000000000000000000000000000000000000000000000000000000000000000000000000000000000000075c70000000000000000000000000000000000000000000000000000000000000002000000000000000000000000000000000000000000000000000000000000006000000000000000000000000000000000000000000000000000000000000001600000000000000000000000000000000000000000000000000000000000000020000000000000000000000000000000000000000000000000000000000000000000000000000000000000000000000000000000000000000000000000000000020000000000000000000000000000000000000000000000000000000000000000000000000000000000000000000000000000000000000000000000000000000000000000000000000000000000000000000000000000000000000000000000c000000000000000000000000000000000000000000000000000000000000001200000000000000000000000000000000000000000000000000000000000000002000000000000000000000000cce466a522984415bc91338c232d98869193d46e000000000000000000000000dd7b5e1db4aafd5c8ec3b764efb8ed265aa5445b000000000000000000000000000000000000000000000000000000000000000000000000000000000000000000000000000000000000000000000000000075e80000000000000000000000000000000000000000000000000000000000000002000000000000000000000000000000000000000000000000000000000000006000000000000000000000000000000000000000000000000000000000000001600000000000000000000000000000000000000000000000000000000000000020000000000000000000000000000000000000000000000000000000000000000000000000000000000000000000000000000000000000000000000000000000020000000000000000000000000000000000000000000000000000000000000000000000000000000000000000000000000000000000000000000000000000000000000000000000000000000000000000000000000000000000000000000000c000000000000000000000000000000000000000000000000000000000000001200000000000000000000000000000000000000000000000000000000000000002000000000000000000000000cce466a522984415bc91338c232d98869193d46e000000000000000000000000dd7b5e1db4aafd5c8ec3b764efb8ed265aa5445b000000000000000000000000000000000000000000000000000000000000000000000000000000000000000000000000000000000000000000000000000076340000000000000000000000000000000000000000000000000000000000000002000000000000000000000000000000000000000000000000000000000000006000000000000000000000000000000000000000000000000000000000000001600000000000000000000000000000000000000000000000000000000000000020000000000000000000000000000000000000000000000000000000000000000000000000000000000000000000000000000000000000000000000000000000020000000000000000000000000000000000000000000000000000000000000000000000000000000000000000000000000000000000000000000000000000000000000000000000000000000000000000000000000000000000000000000000c000000000000000000000000000000000000000000000000000000000000001200000000000000000000000000000000000000000000000000000000000000002000000000000000000000000cce466a522984415bc91338c232d98869193d46e000000000000000000000000dd7b5e1db4aafd5c8ec3b764efb8ed265aa5445b000000000000000000000000000000000000000000000000000000000000000000000000000000000000000000000000000000000000000000000000000076480000000000000000000000000000000000000000000000000000000000000002000000000000000000000000000000000000000000000000000000000000006000000000000000000000000000000000000000000000000000000000000001600000000000000000000000000000000000000000000000000000000000000020000000000000000000000000000000000000000000000000000000000000000000000000000000000000000000000000000000000000000000000000000000020000000000000000000000000000000000000000000000000000000000000000000000000000000000000000000000000000000000000000000000000000000000000000000000000000000000000000000000000000000000000000000000c000000000000000000000000000000000000000000000000000000000000001200000000000000000000000000000000000000000000000000000000000000002000000000000000000000000cce466a522984415bc91338c232d98869193d46e000000000000000000000000dd7b5e1db4aafd5c8ec3b764efb8ed265aa5445b000000000000000000000000000000000000000000000000000000000000000000000000000000000000000000000000000000000000000000000000000076420000000000000000000000000000000000000000000000000000000000000002000000000000000000000000000000000000000000000000000000000000006000000000000000000000000000000000000000000000000000000000000001600000000000000000000000000000000000000000000000000000000000000020000000000000000000000000000000000000000000000000000000000000000000000000000000000000000000000000000000000000000000000000000000020000000000000000000000000000000000000000000000000000000000000000000000000000000000000000000000000000000000000000000000000000000000000000000000000000000000000000000000000000000000000000000000c000000000000000000000000000000000000000000000000000000000000001200000000000000000000000000000000000000000000000000000000000000002000000000000000000000000cce466a522984415bc91338c232d98869193d46e000000000000000000000000dd7b5e1db4aafd5c8ec3b764efb8ed265aa5445b0000000000000000000000000000000000000000000000000000000000000000",
        "nonce": "0x5a",
        "chainId": "0xfc"
      },
      "additionalContracts": [],
      "isFixedGasLimit": false
    },
    {
      "hash": null,
      "transactionType": "CALL",
      "contractName": null,
      "contractAddress": "0x1a44076050125825900e736c501f859c50fe728c",
      "function": "setConfig(address,address,(uint32,uint32,bytes)[])",
      "arguments": [
        "0x24d544c796F2B8F2e2514b312c6202B88f049673",
        "0x8bC1e36F015b9902B54b1387A4d733cebc2f5A4e",
        "[(30101, 2, 0x0000000000000000000000000000000000000000000000000000000000000020000000000000000000000000000000000000000000000000000000000000000000000000000000000000000000000000000000000000000000000000000000020000000000000000000000000000000000000000000000000000000000000000000000000000000000000000000000000000000000000000000000000000000000000000000000000000000000000000000000000000000000000000000000c000000000000000000000000000000000000000000000000000000000000001200000000000000000000000000000000000000000000000000000000000000002000000000000000000000000cce466a522984415bc91338c232d98869193d46e000000000000000000000000dd7b5e1db4aafd5c8ec3b764efb8ed265aa5445b0000000000000000000000000000000000000000000000000000000000000000), (30243, 2, 0x0000000000000000000000000000000000000000000000000000000000000020000000000000000000000000000000000000000000000000000000000000000000000000000000000000000000000000000000000000000000000000000000020000000000000000000000000000000000000000000000000000000000000000000000000000000000000000000000000000000000000000000000000000000000000000000000000000000000000000000000000000000000000000000000c000000000000000000000000000000000000000000000000000000000000001200000000000000000000000000000000000000000000000000000000000000002000000000000000000000000cce466a522984415bc91338c232d98869193d46e000000000000000000000000dd7b5e1db4aafd5c8ec3b764efb8ed265aa5445b0000000000000000000000000000000000000000000000000000000000000000), (30151, 2, 0x0000000000000000000000000000000000000000000000000000000000000020000000000000000000000000000000000000000000000000000000000000000000000000000000000000000000000000000000000000000000000000000000020000000000000000000000000000000000000000000000000000000000000000000000000000000000000000000000000000000000000000000000000000000000000000000000000000000000000000000000000000000000000000000000c000000000000000000000000000000000000000000000000000000000000001200000000000000000000000000000000000000000000000000000000000000002000000000000000000000000cce466a522984415bc91338c232d98869193d46e000000000000000000000000dd7b5e1db4aafd5c8ec3b764efb8ed265aa5445b0000000000000000000000000000000000000000000000000000000000000000), (30184, 2, 0x0000000000000000000000000000000000000000000000000000000000000020000000000000000000000000000000000000000000000000000000000000000000000000000000000000000000000000000000000000000000000000000000020000000000000000000000000000000000000000000000000000000000000000000000000000000000000000000000000000000000000000000000000000000000000000000000000000000000000000000000000000000000000000000000c000000000000000000000000000000000000000000000000000000000000001200000000000000000000000000000000000000000000000000000000000000002000000000000000000000000cce466a522984415bc91338c232d98869193d46e000000000000000000000000dd7b5e1db4aafd5c8ec3b764efb8ed265aa5445b0000000000000000000000000000000000000000000000000000000000000000), (30260, 2, 0x0000000000000000000000000000000000000000000000000000000000000020000000000000000000000000000000000000000000000000000000000000000000000000000000000000000000000000000000000000000000000000000000020000000000000000000000000000000000000000000000000000000000000000000000000000000000000000000000000000000000000000000000000000000000000000000000000000000000000000000000000000000000000000000000c000000000000000000000000000000000000000000000000000000000000001200000000000000000000000000000000000000000000000000000000000000002000000000000000000000000cce466a522984415bc91338c232d98869193d46e000000000000000000000000dd7b5e1db4aafd5c8ec3b764efb8ed265aa5445b0000000000000000000000000000000000000000000000000000000000000000), (30280, 2, 0x0000000000000000000000000000000000000000000000000000000000000020000000000000000000000000000000000000000000000000000000000000000000000000000000000000000000000000000000000000000000000000000000020000000000000000000000000000000000000000000000000000000000000000000000000000000000000000000000000000000000000000000000000000000000000000000000000000000000000000000000000000000000000000000000c000000000000000000000000000000000000000000000000000000000000001200000000000000000000000000000000000000000000000000000000000000002000000000000000000000000cce466a522984415bc91338c232d98869193d46e000000000000000000000000dd7b5e1db4aafd5c8ec3b764efb8ed265aa5445b0000000000000000000000000000000000000000000000000000000000000000), (30274, 2, 0x0000000000000000000000000000000000000000000000000000000000000020000000000000000000000000000000000000000000000000000000000000000000000000000000000000000000000000000000000000000000000000000000020000000000000000000000000000000000000000000000000000000000000000000000000000000000000000000000000000000000000000000000000000000000000000000000000000000000000000000000000000000000000000000000c000000000000000000000000000000000000000000000000000000000000001200000000000000000000000000000000000000000000000000000000000000002000000000000000000000000cce466a522984415bc91338c232d98869193d46e000000000000000000000000dd7b5e1db4aafd5c8ec3b764efb8ed265aa5445b0000000000000000000000000000000000000000000000000000000000000000)]"
      ],
      "transaction": {
        "from": "0x0990be6db8c785fbbf9ded8baec612a10cae814b",
        "to": "0x1a44076050125825900e736c501f859c50fe728c",
        "gas": "0x109421",
        "value": "0x0",
        "input": "0x6dbd9f9000000000000000000000000024d544c796f2b8f2e2514b312c6202b88f0496730000000000000000000000008bc1e36f015b9902b54b1387a4d733cebc2f5a4e0000000000000000000000000000000000000000000000000000000000000060000000000000000000000000000000000000000000000000000000000000000700000000000000000000000000000000000000000000000000000000000000e000000000000000000000000000000000000000000000000000000000000002c000000000000000000000000000000000000000000000000000000000000004a0000000000000000000000000000000000000000000000000000000000000068000000000000000000000000000000000000000000000000000000000000008600000000000000000000000000000000000000000000000000000000000000a400000000000000000000000000000000000000000000000000000000000000c2000000000000000000000000000000000000000000000000000000000000075950000000000000000000000000000000000000000000000000000000000000002000000000000000000000000000000000000000000000000000000000000006000000000000000000000000000000000000000000000000000000000000001600000000000000000000000000000000000000000000000000000000000000020000000000000000000000000000000000000000000000000000000000000000000000000000000000000000000000000000000000000000000000000000000020000000000000000000000000000000000000000000000000000000000000000000000000000000000000000000000000000000000000000000000000000000000000000000000000000000000000000000000000000000000000000000000c000000000000000000000000000000000000000000000000000000000000001200000000000000000000000000000000000000000000000000000000000000002000000000000000000000000cce466a522984415bc91338c232d98869193d46e000000000000000000000000dd7b5e1db4aafd5c8ec3b764efb8ed265aa5445b000000000000000000000000000000000000000000000000000000000000000000000000000000000000000000000000000000000000000000000000000076230000000000000000000000000000000000000000000000000000000000000002000000000000000000000000000000000000000000000000000000000000006000000000000000000000000000000000000000000000000000000000000001600000000000000000000000000000000000000000000000000000000000000020000000000000000000000000000000000000000000000000000000000000000000000000000000000000000000000000000000000000000000000000000000020000000000000000000000000000000000000000000000000000000000000000000000000000000000000000000000000000000000000000000000000000000000000000000000000000000000000000000000000000000000000000000000c000000000000000000000000000000000000000000000000000000000000001200000000000000000000000000000000000000000000000000000000000000002000000000000000000000000cce466a522984415bc91338c232d98869193d46e000000000000000000000000dd7b5e1db4aafd5c8ec3b764efb8ed265aa5445b000000000000000000000000000000000000000000000000000000000000000000000000000000000000000000000000000000000000000000000000000075c70000000000000000000000000000000000000000000000000000000000000002000000000000000000000000000000000000000000000000000000000000006000000000000000000000000000000000000000000000000000000000000001600000000000000000000000000000000000000000000000000000000000000020000000000000000000000000000000000000000000000000000000000000000000000000000000000000000000000000000000000000000000000000000000020000000000000000000000000000000000000000000000000000000000000000000000000000000000000000000000000000000000000000000000000000000000000000000000000000000000000000000000000000000000000000000000c000000000000000000000000000000000000000000000000000000000000001200000000000000000000000000000000000000000000000000000000000000002000000000000000000000000cce466a522984415bc91338c232d98869193d46e000000000000000000000000dd7b5e1db4aafd5c8ec3b764efb8ed265aa5445b000000000000000000000000000000000000000000000000000000000000000000000000000000000000000000000000000000000000000000000000000075e80000000000000000000000000000000000000000000000000000000000000002000000000000000000000000000000000000000000000000000000000000006000000000000000000000000000000000000000000000000000000000000001600000000000000000000000000000000000000000000000000000000000000020000000000000000000000000000000000000000000000000000000000000000000000000000000000000000000000000000000000000000000000000000000020000000000000000000000000000000000000000000000000000000000000000000000000000000000000000000000000000000000000000000000000000000000000000000000000000000000000000000000000000000000000000000000c000000000000000000000000000000000000000000000000000000000000001200000000000000000000000000000000000000000000000000000000000000002000000000000000000000000cce466a522984415bc91338c232d98869193d46e000000000000000000000000dd7b5e1db4aafd5c8ec3b764efb8ed265aa5445b000000000000000000000000000000000000000000000000000000000000000000000000000000000000000000000000000000000000000000000000000076340000000000000000000000000000000000000000000000000000000000000002000000000000000000000000000000000000000000000000000000000000006000000000000000000000000000000000000000000000000000000000000001600000000000000000000000000000000000000000000000000000000000000020000000000000000000000000000000000000000000000000000000000000000000000000000000000000000000000000000000000000000000000000000000020000000000000000000000000000000000000000000000000000000000000000000000000000000000000000000000000000000000000000000000000000000000000000000000000000000000000000000000000000000000000000000000c000000000000000000000000000000000000000000000000000000000000001200000000000000000000000000000000000000000000000000000000000000002000000000000000000000000cce466a522984415bc91338c232d98869193d46e000000000000000000000000dd7b5e1db4aafd5c8ec3b764efb8ed265aa5445b000000000000000000000000000000000000000000000000000000000000000000000000000000000000000000000000000000000000000000000000000076480000000000000000000000000000000000000000000000000000000000000002000000000000000000000000000000000000000000000000000000000000006000000000000000000000000000000000000000000000000000000000000001600000000000000000000000000000000000000000000000000000000000000020000000000000000000000000000000000000000000000000000000000000000000000000000000000000000000000000000000000000000000000000000000020000000000000000000000000000000000000000000000000000000000000000000000000000000000000000000000000000000000000000000000000000000000000000000000000000000000000000000000000000000000000000000000c000000000000000000000000000000000000000000000000000000000000001200000000000000000000000000000000000000000000000000000000000000002000000000000000000000000cce466a522984415bc91338c232d98869193d46e000000000000000000000000dd7b5e1db4aafd5c8ec3b764efb8ed265aa5445b000000000000000000000000000000000000000000000000000000000000000000000000000000000000000000000000000000000000000000000000000076420000000000000000000000000000000000000000000000000000000000000002000000000000000000000000000000000000000000000000000000000000006000000000000000000000000000000000000000000000000000000000000001600000000000000000000000000000000000000000000000000000000000000020000000000000000000000000000000000000000000000000000000000000000000000000000000000000000000000000000000000000000000000000000000020000000000000000000000000000000000000000000000000000000000000000000000000000000000000000000000000000000000000000000000000000000000000000000000000000000000000000000000000000000000000000000000c000000000000000000000000000000000000000000000000000000000000001200000000000000000000000000000000000000000000000000000000000000002000000000000000000000000cce466a522984415bc91338c232d98869193d46e000000000000000000000000dd7b5e1db4aafd5c8ec3b764efb8ed265aa5445b0000000000000000000000000000000000000000000000000000000000000000",
        "nonce": "0x5b",
        "chainId": "0xfc"
      },
      "additionalContracts": [],
      "isFixedGasLimit": false
    },
    {
      "hash": null,
      "transactionType": "CALL",
      "contractName": null,
      "contractAddress": "0x1a44076050125825900e736c501f859c50fe728c",
      "function": "setConfig(address,address,(uint32,uint32,bytes)[])",
      "arguments": [
        "0x24d544c796F2B8F2e2514b312c6202B88f049673",
        "0x377530cdA84DFb2673bF4d145DCF0C4D7fdcB5b6",
        "[(30101, 2, 0x0000000000000000000000000000000000000000000000000000000000000020000000000000000000000000000000000000000000000000000000000000000000000000000000000000000000000000000000000000000000000000000000020000000000000000000000000000000000000000000000000000000000000000000000000000000000000000000000000000000000000000000000000000000000000000000000000000000000000000000000000000000000000000000000c000000000000000000000000000000000000000000000000000000000000001200000000000000000000000000000000000000000000000000000000000000002000000000000000000000000cce466a522984415bc91338c232d98869193d46e000000000000000000000000dd7b5e1db4aafd5c8ec3b764efb8ed265aa5445b0000000000000000000000000000000000000000000000000000000000000000), (30243, 2, 0x0000000000000000000000000000000000000000000000000000000000000020000000000000000000000000000000000000000000000000000000000000000000000000000000000000000000000000000000000000000000000000000000020000000000000000000000000000000000000000000000000000000000000000000000000000000000000000000000000000000000000000000000000000000000000000000000000000000000000000000000000000000000000000000000c000000000000000000000000000000000000000000000000000000000000001200000000000000000000000000000000000000000000000000000000000000002000000000000000000000000cce466a522984415bc91338c232d98869193d46e000000000000000000000000dd7b5e1db4aafd5c8ec3b764efb8ed265aa5445b0000000000000000000000000000000000000000000000000000000000000000), (30151, 2, 0x0000000000000000000000000000000000000000000000000000000000000020000000000000000000000000000000000000000000000000000000000000000000000000000000000000000000000000000000000000000000000000000000020000000000000000000000000000000000000000000000000000000000000000000000000000000000000000000000000000000000000000000000000000000000000000000000000000000000000000000000000000000000000000000000c000000000000000000000000000000000000000000000000000000000000001200000000000000000000000000000000000000000000000000000000000000002000000000000000000000000cce466a522984415bc91338c232d98869193d46e000000000000000000000000dd7b5e1db4aafd5c8ec3b764efb8ed265aa5445b0000000000000000000000000000000000000000000000000000000000000000), (30184, 2, 0x0000000000000000000000000000000000000000000000000000000000000020000000000000000000000000000000000000000000000000000000000000000000000000000000000000000000000000000000000000000000000000000000020000000000000000000000000000000000000000000000000000000000000000000000000000000000000000000000000000000000000000000000000000000000000000000000000000000000000000000000000000000000000000000000c000000000000000000000000000000000000000000000000000000000000001200000000000000000000000000000000000000000000000000000000000000002000000000000000000000000cce466a522984415bc91338c232d98869193d46e000000000000000000000000dd7b5e1db4aafd5c8ec3b764efb8ed265aa5445b0000000000000000000000000000000000000000000000000000000000000000), (30260, 2, 0x0000000000000000000000000000000000000000000000000000000000000020000000000000000000000000000000000000000000000000000000000000000000000000000000000000000000000000000000000000000000000000000000020000000000000000000000000000000000000000000000000000000000000000000000000000000000000000000000000000000000000000000000000000000000000000000000000000000000000000000000000000000000000000000000c000000000000000000000000000000000000000000000000000000000000001200000000000000000000000000000000000000000000000000000000000000002000000000000000000000000cce466a522984415bc91338c232d98869193d46e000000000000000000000000dd7b5e1db4aafd5c8ec3b764efb8ed265aa5445b0000000000000000000000000000000000000000000000000000000000000000), (30280, 2, 0x0000000000000000000000000000000000000000000000000000000000000020000000000000000000000000000000000000000000000000000000000000000000000000000000000000000000000000000000000000000000000000000000020000000000000000000000000000000000000000000000000000000000000000000000000000000000000000000000000000000000000000000000000000000000000000000000000000000000000000000000000000000000000000000000c000000000000000000000000000000000000000000000000000000000000001200000000000000000000000000000000000000000000000000000000000000002000000000000000000000000cce466a522984415bc91338c232d98869193d46e000000000000000000000000dd7b5e1db4aafd5c8ec3b764efb8ed265aa5445b0000000000000000000000000000000000000000000000000000000000000000), (30274, 2, 0x0000000000000000000000000000000000000000000000000000000000000020000000000000000000000000000000000000000000000000000000000000000000000000000000000000000000000000000000000000000000000000000000020000000000000000000000000000000000000000000000000000000000000000000000000000000000000000000000000000000000000000000000000000000000000000000000000000000000000000000000000000000000000000000000c000000000000000000000000000000000000000000000000000000000000001200000000000000000000000000000000000000000000000000000000000000002000000000000000000000000cce466a522984415bc91338c232d98869193d46e000000000000000000000000dd7b5e1db4aafd5c8ec3b764efb8ed265aa5445b0000000000000000000000000000000000000000000000000000000000000000)]"
      ],
      "transaction": {
        "from": "0x0990be6db8c785fbbf9ded8baec612a10cae814b",
        "to": "0x1a44076050125825900e736c501f859c50fe728c",
        "gas": "0x1195c5",
        "value": "0x0",
        "input": "0x6dbd9f9000000000000000000000000024d544c796f2b8f2e2514b312c6202b88f049673000000000000000000000000377530cda84dfb2673bf4d145dcf0c4d7fdcb5b60000000000000000000000000000000000000000000000000000000000000060000000000000000000000000000000000000000000000000000000000000000700000000000000000000000000000000000000000000000000000000000000e000000000000000000000000000000000000000000000000000000000000002c000000000000000000000000000000000000000000000000000000000000004a0000000000000000000000000000000000000000000000000000000000000068000000000000000000000000000000000000000000000000000000000000008600000000000000000000000000000000000000000000000000000000000000a400000000000000000000000000000000000000000000000000000000000000c2000000000000000000000000000000000000000000000000000000000000075950000000000000000000000000000000000000000000000000000000000000002000000000000000000000000000000000000000000000000000000000000006000000000000000000000000000000000000000000000000000000000000001600000000000000000000000000000000000000000000000000000000000000020000000000000000000000000000000000000000000000000000000000000000000000000000000000000000000000000000000000000000000000000000000020000000000000000000000000000000000000000000000000000000000000000000000000000000000000000000000000000000000000000000000000000000000000000000000000000000000000000000000000000000000000000000000c000000000000000000000000000000000000000000000000000000000000001200000000000000000000000000000000000000000000000000000000000000002000000000000000000000000cce466a522984415bc91338c232d98869193d46e000000000000000000000000dd7b5e1db4aafd5c8ec3b764efb8ed265aa5445b000000000000000000000000000000000000000000000000000000000000000000000000000000000000000000000000000000000000000000000000000076230000000000000000000000000000000000000000000000000000000000000002000000000000000000000000000000000000000000000000000000000000006000000000000000000000000000000000000000000000000000000000000001600000000000000000000000000000000000000000000000000000000000000020000000000000000000000000000000000000000000000000000000000000000000000000000000000000000000000000000000000000000000000000000000020000000000000000000000000000000000000000000000000000000000000000000000000000000000000000000000000000000000000000000000000000000000000000000000000000000000000000000000000000000000000000000000c000000000000000000000000000000000000000000000000000000000000001200000000000000000000000000000000000000000000000000000000000000002000000000000000000000000cce466a522984415bc91338c232d98869193d46e000000000000000000000000dd7b5e1db4aafd5c8ec3b764efb8ed265aa5445b000000000000000000000000000000000000000000000000000000000000000000000000000000000000000000000000000000000000000000000000000075c70000000000000000000000000000000000000000000000000000000000000002000000000000000000000000000000000000000000000000000000000000006000000000000000000000000000000000000000000000000000000000000001600000000000000000000000000000000000000000000000000000000000000020000000000000000000000000000000000000000000000000000000000000000000000000000000000000000000000000000000000000000000000000000000020000000000000000000000000000000000000000000000000000000000000000000000000000000000000000000000000000000000000000000000000000000000000000000000000000000000000000000000000000000000000000000000c000000000000000000000000000000000000000000000000000000000000001200000000000000000000000000000000000000000000000000000000000000002000000000000000000000000cce466a522984415bc91338c232d98869193d46e000000000000000000000000dd7b5e1db4aafd5c8ec3b764efb8ed265aa5445b000000000000000000000000000000000000000000000000000000000000000000000000000000000000000000000000000000000000000000000000000075e80000000000000000000000000000000000000000000000000000000000000002000000000000000000000000000000000000000000000000000000000000006000000000000000000000000000000000000000000000000000000000000001600000000000000000000000000000000000000000000000000000000000000020000000000000000000000000000000000000000000000000000000000000000000000000000000000000000000000000000000000000000000000000000000020000000000000000000000000000000000000000000000000000000000000000000000000000000000000000000000000000000000000000000000000000000000000000000000000000000000000000000000000000000000000000000000c000000000000000000000000000000000000000000000000000000000000001200000000000000000000000000000000000000000000000000000000000000002000000000000000000000000cce466a522984415bc91338c232d98869193d46e000000000000000000000000dd7b5e1db4aafd5c8ec3b764efb8ed265aa5445b000000000000000000000000000000000000000000000000000000000000000000000000000000000000000000000000000000000000000000000000000076340000000000000000000000000000000000000000000000000000000000000002000000000000000000000000000000000000000000000000000000000000006000000000000000000000000000000000000000000000000000000000000001600000000000000000000000000000000000000000000000000000000000000020000000000000000000000000000000000000000000000000000000000000000000000000000000000000000000000000000000000000000000000000000000020000000000000000000000000000000000000000000000000000000000000000000000000000000000000000000000000000000000000000000000000000000000000000000000000000000000000000000000000000000000000000000000c000000000000000000000000000000000000000000000000000000000000001200000000000000000000000000000000000000000000000000000000000000002000000000000000000000000cce466a522984415bc91338c232d98869193d46e000000000000000000000000dd7b5e1db4aafd5c8ec3b764efb8ed265aa5445b000000000000000000000000000000000000000000000000000000000000000000000000000000000000000000000000000000000000000000000000000076480000000000000000000000000000000000000000000000000000000000000002000000000000000000000000000000000000000000000000000000000000006000000000000000000000000000000000000000000000000000000000000001600000000000000000000000000000000000000000000000000000000000000020000000000000000000000000000000000000000000000000000000000000000000000000000000000000000000000000000000000000000000000000000000020000000000000000000000000000000000000000000000000000000000000000000000000000000000000000000000000000000000000000000000000000000000000000000000000000000000000000000000000000000000000000000000c000000000000000000000000000000000000000000000000000000000000001200000000000000000000000000000000000000000000000000000000000000002000000000000000000000000cce466a522984415bc91338c232d98869193d46e000000000000000000000000dd7b5e1db4aafd5c8ec3b764efb8ed265aa5445b000000000000000000000000000000000000000000000000000000000000000000000000000000000000000000000000000000000000000000000000000076420000000000000000000000000000000000000000000000000000000000000002000000000000000000000000000000000000000000000000000000000000006000000000000000000000000000000000000000000000000000000000000001600000000000000000000000000000000000000000000000000000000000000020000000000000000000000000000000000000000000000000000000000000000000000000000000000000000000000000000000000000000000000000000000020000000000000000000000000000000000000000000000000000000000000000000000000000000000000000000000000000000000000000000000000000000000000000000000000000000000000000000000000000000000000000000000c000000000000000000000000000000000000000000000000000000000000001200000000000000000000000000000000000000000000000000000000000000002000000000000000000000000cce466a522984415bc91338c232d98869193d46e000000000000000000000000dd7b5e1db4aafd5c8ec3b764efb8ed265aa5445b0000000000000000000000000000000000000000000000000000000000000000",
        "nonce": "0x5c",
        "chainId": "0xfc"
      },
      "additionalContracts": [],
      "isFixedGasLimit": false
    },
    {
      "hash": null,
      "transactionType": "CALL",
      "contractName": "TransparentUpgradeableProxy",
      "contractAddress": "0x3d9ec5191af8447bbcb61ff460944056be350013",
      "function": null,
      "arguments": null,
      "transaction": {
        "from": "0x0990be6db8c785fbbf9ded8baec612a10cae814b",
        "to": "0x3d9ec5191af8447bbcb61ff460944056be350013",
        "gas": "0x128b1",
        "value": "0x0",
        "input": "0x3400288b0000000000000000000000000000000000000000000000000000000000007595000000000000000000000000909dbde1ebe906af95660033e478d59efe831fed",
        "nonce": "0x5d",
        "chainId": "0xfc"
      },
      "additionalContracts": [],
      "isFixedGasLimit": false
    },
    {
      "hash": null,
      "transactionType": "CALL",
      "contractName": "TransparentUpgradeableProxy",
      "contractAddress": "0x3d9ec5191af8447bbcb61ff460944056be350013",
      "function": null,
      "arguments": null,
      "transaction": {
        "from": "0x0990be6db8c785fbbf9ded8baec612a10cae814b",
        "to": "0x3d9ec5191af8447bbcb61ff460944056be350013",
        "gas": "0x128b1",
        "value": "0x0",
        "input": "0x3400288b0000000000000000000000000000000000000000000000000000000000007623000000000000000000000000909dbde1ebe906af95660033e478d59efe831fed",
        "nonce": "0x5e",
        "chainId": "0xfc"
      },
      "additionalContracts": [],
      "isFixedGasLimit": false
    },
    {
      "hash": null,
      "transactionType": "CALL",
      "contractName": "TransparentUpgradeableProxy",
      "contractAddress": "0x3d9ec5191af8447bbcb61ff460944056be350013",
      "function": null,
      "arguments": null,
      "transaction": {
        "from": "0x0990be6db8c785fbbf9ded8baec612a10cae814b",
        "to": "0x3d9ec5191af8447bbcb61ff460944056be350013",
        "gas": "0x128b1",
        "value": "0x0",
        "input": "0x3400288b00000000000000000000000000000000000000000000000000000000000075c7000000000000000000000000909dbde1ebe906af95660033e478d59efe831fed",
        "nonce": "0x5f",
        "chainId": "0xfc"
      },
      "additionalContracts": [],
      "isFixedGasLimit": false
    },
    {
      "hash": null,
      "transactionType": "CALL",
      "contractName": "TransparentUpgradeableProxy",
      "contractAddress": "0x3d9ec5191af8447bbcb61ff460944056be350013",
      "function": null,
      "arguments": null,
      "transaction": {
        "from": "0x0990be6db8c785fbbf9ded8baec612a10cae814b",
        "to": "0x3d9ec5191af8447bbcb61ff460944056be350013",
        "gas": "0x128b1",
        "value": "0x0",
        "input": "0x3400288b00000000000000000000000000000000000000000000000000000000000075e8000000000000000000000000909dbde1ebe906af95660033e478d59efe831fed",
        "nonce": "0x60",
        "chainId": "0xfc"
      },
      "additionalContracts": [],
      "isFixedGasLimit": false
    },
    {
      "hash": null,
      "transactionType": "CALL",
      "contractName": "TransparentUpgradeableProxy",
      "contractAddress": "0x24d544c796f2b8f2e2514b312c6202b88f049673",
      "function": null,
      "arguments": null,
      "transaction": {
        "from": "0x0990be6db8c785fbbf9ded8baec612a10cae814b",
        "to": "0x24d544c796f2b8f2e2514b312c6202b88f049673",
        "gas": "0x13a38",
        "value": "0x0",
        "input": "0x3400288b00000000000000000000000000000000000000000000000000000000000075950000000000000000000000001f55a02a049033e3419a8e2975cf3f572f4e6e9a",
        "nonce": "0x61",
        "chainId": "0xfc"
      },
      "additionalContracts": [],
      "isFixedGasLimit": false
    },
    {
      "hash": null,
      "transactionType": "CALL",
      "contractName": "TransparentUpgradeableProxy",
      "contractAddress": "0x24d544c796f2b8f2e2514b312c6202b88f049673",
      "function": null,
      "arguments": null,
      "transaction": {
        "from": "0x0990be6db8c785fbbf9ded8baec612a10cae814b",
        "to": "0x24d544c796f2b8f2e2514b312c6202b88f049673",
        "gas": "0x13a38",
        "value": "0x0",
        "input": "0x3400288b00000000000000000000000000000000000000000000000000000000000076230000000000000000000000001f55a02a049033e3419a8e2975cf3f572f4e6e9a",
        "nonce": "0x62",
        "chainId": "0xfc"
      },
      "additionalContracts": [],
      "isFixedGasLimit": false
    },
    {
      "hash": null,
      "transactionType": "CALL",
      "contractName": "TransparentUpgradeableProxy",
      "contractAddress": "0x24d544c796f2b8f2e2514b312c6202b88f049673",
      "function": null,
      "arguments": null,
      "transaction": {
        "from": "0x0990be6db8c785fbbf9ded8baec612a10cae814b",
        "to": "0x24d544c796f2b8f2e2514b312c6202b88f049673",
        "gas": "0x13a38",
        "value": "0x0",
        "input": "0x3400288b00000000000000000000000000000000000000000000000000000000000075c70000000000000000000000001f55a02a049033e3419a8e2975cf3f572f4e6e9a",
        "nonce": "0x63",
        "chainId": "0xfc"
      },
      "additionalContracts": [],
      "isFixedGasLimit": false
    },
    {
      "hash": null,
      "transactionType": "CALL",
      "contractName": "TransparentUpgradeableProxy",
      "contractAddress": "0x24d544c796f2b8f2e2514b312c6202b88f049673",
      "function": null,
      "arguments": null,
      "transaction": {
        "from": "0x0990be6db8c785fbbf9ded8baec612a10cae814b",
        "to": "0x24d544c796f2b8f2e2514b312c6202b88f049673",
        "gas": "0x13a38",
        "value": "0x0",
        "input": "0x3400288b00000000000000000000000000000000000000000000000000000000000075e80000000000000000000000001f55a02a049033e3419a8e2975cf3f572f4e6e9a",
        "nonce": "0x64",
        "chainId": "0xfc"
      },
      "additionalContracts": [],
      "isFixedGasLimit": false
    },
    {
      "hash": null,
      "transactionType": "CALL",
      "contractName": "TransparentUpgradeableProxy",
      "contractAddress": "0x3d9ec5191af8447bbcb61ff460944056be350013",
      "function": null,
      "arguments": null,
      "transaction": {
        "from": "0x0990be6db8c785fbbf9ded8baec612a10cae814b",
        "to": "0x3d9ec5191af8447bbcb61ff460944056be350013",
        "gas": "0x128b1",
        "value": "0x0",
        "input": "0x3400288b00000000000000000000000000000000000000000000000000000000000076340000000000000000000000003d9ec5191af8447bbcb61ff460944056be350013",
        "nonce": "0x65",
        "chainId": "0xfc"
      },
      "additionalContracts": [],
      "isFixedGasLimit": false
    },
    {
      "hash": null,
      "transactionType": "CALL",
      "contractName": "TransparentUpgradeableProxy",
      "contractAddress": "0x3d9ec5191af8447bbcb61ff460944056be350013",
      "function": null,
      "arguments": null,
      "transaction": {
        "from": "0x0990be6db8c785fbbf9ded8baec612a10cae814b",
        "to": "0x3d9ec5191af8447bbcb61ff460944056be350013",
        "gas": "0x128b1",
        "value": "0x0",
        "input": "0x3400288b00000000000000000000000000000000000000000000000000000000000076480000000000000000000000003d9ec5191af8447bbcb61ff460944056be350013",
        "nonce": "0x66",
        "chainId": "0xfc"
      },
      "additionalContracts": [],
      "isFixedGasLimit": false
    },
    {
      "hash": null,
      "transactionType": "CALL",
      "contractName": "TransparentUpgradeableProxy",
      "contractAddress": "0x3d9ec5191af8447bbcb61ff460944056be350013",
      "function": null,
      "arguments": null,
      "transaction": {
        "from": "0x0990be6db8c785fbbf9ded8baec612a10cae814b",
        "to": "0x3d9ec5191af8447bbcb61ff460944056be350013",
        "gas": "0x128b1",
        "value": "0x0",
        "input": "0x3400288b00000000000000000000000000000000000000000000000000000000000076420000000000000000000000003d9ec5191af8447bbcb61ff460944056be350013",
        "nonce": "0x67",
        "chainId": "0xfc"
      },
      "additionalContracts": [],
      "isFixedGasLimit": false
    },
    {
      "hash": null,
      "transactionType": "CALL",
      "contractName": "TransparentUpgradeableProxy",
      "contractAddress": "0x24d544c796f2b8f2e2514b312c6202b88f049673",
      "function": null,
      "arguments": null,
      "transaction": {
        "from": "0x0990be6db8c785fbbf9ded8baec612a10cae814b",
        "to": "0x24d544c796f2b8f2e2514b312c6202b88f049673",
        "gas": "0x13a38",
        "value": "0x0",
        "input": "0x3400288b000000000000000000000000000000000000000000000000000000000000763400000000000000000000000024d544c796f2b8f2e2514b312c6202b88f049673",
        "nonce": "0x68",
        "chainId": "0xfc"
      },
      "additionalContracts": [],
      "isFixedGasLimit": false
    },
    {
      "hash": null,
      "transactionType": "CALL",
      "contractName": "TransparentUpgradeableProxy",
      "contractAddress": "0x24d544c796f2b8f2e2514b312c6202b88f049673",
      "function": null,
      "arguments": null,
      "transaction": {
        "from": "0x0990be6db8c785fbbf9ded8baec612a10cae814b",
        "to": "0x24d544c796f2b8f2e2514b312c6202b88f049673",
        "gas": "0x13a38",
        "value": "0x0",
        "input": "0x3400288b000000000000000000000000000000000000000000000000000000000000764800000000000000000000000024d544c796f2b8f2e2514b312c6202b88f049673",
        "nonce": "0x69",
        "chainId": "0xfc"
      },
      "additionalContracts": [],
      "isFixedGasLimit": false
    },
    {
      "hash": null,
      "transactionType": "CALL",
      "contractName": "TransparentUpgradeableProxy",
      "contractAddress": "0x24d544c796f2b8f2e2514b312c6202b88f049673",
      "function": null,
      "arguments": null,
      "transaction": {
        "from": "0x0990be6db8c785fbbf9ded8baec612a10cae814b",
        "to": "0x24d544c796f2b8f2e2514b312c6202b88f049673",
        "gas": "0x13a38",
        "value": "0x0",
        "input": "0x3400288b000000000000000000000000000000000000000000000000000000000000764200000000000000000000000024d544c796f2b8f2e2514b312c6202b88f049673",
        "nonce": "0x6a",
        "chainId": "0xfc"
      },
      "additionalContracts": [],
      "isFixedGasLimit": false
    }
  ],
  "receipts": [],
  "libraries": [],
  "pending": [],
  "returns": {},
  "timestamp": 1732127482,
  "chain": 252,
  "commit": "4883747"
}