{
  "transactions": [
    {
      "hash": "0x5f933121ed637f0a6d791f92954dc8a941618cb0fa74e0e5ea9d2dfc2267f8b0",
      "transactionType": "CALL",
      "contractName": null,
      "contractAddress": "0x64445f0aecc51e94ad52d8ac56b7190e764e561a",
      "function": "setEnforcedOptions((uint32,uint16,bytes)[])",
      "arguments": [
        "[(30255, 1, 0x00030100110100000000000000000000000000030d40), (30255, 2, 0x0003010011010000000000000000000000000003d090)]"
      ],
      "transaction": {
        "from": "0x0990be6db8c785fbbf9ded8baec612a10cae814b",
        "to": "0x64445f0aecc51e94ad52d8ac56b7190e764e561a",
        "gas": "0x1f5d4",
        "value": "0x0",
        "input": "0xb98bd07000000000000000000000000000000000000000000000000000000000000000200000000000000000000000000000000000000000000000000000000000000002000000000000000000000000000000000000000000000000000000000000004000000000000000000000000000000000000000000000000000000000000000e0000000000000000000000000000000000000000000000000000000000000762f00000000000000000000000000000000000000000000000000000000000000010000000000000000000000000000000000000000000000000000000000000060000000000000000000000000000000000000000000000000000000000000001600030100110100000000000000000000000000030d4000000000000000000000000000000000000000000000000000000000000000000000000000000000762f0000000000000000000000000000000000000000000000000000000000000002000000000000000000000000000000000000000000000000000000000000006000000000000000000000000000000000000000000000000000000000000000160003010011010000000000000000000000000003d09000000000000000000000",
        "nonce": "0x0",
        "chainId": "0x3e7"
      },
      "additionalContracts": [],
      "isFixedGasLimit": false
    },
    {
      "hash": "0x9881f9e309463a04ed5d33a7ababcccb76d54e9b77b01146f529b0022f0f636f",
      "transactionType": "CALL",
      "contractName": null,
      "contractAddress": "0x5bff88ca1442c2496f7e475e9e7786383bc070c0",
      "function": "setEnforcedOptions((uint32,uint16,bytes)[])",
      "arguments": [
        "[(30255, 1, 0x00030100110100000000000000000000000000030d40), (30255, 2, 0x0003010011010000000000000000000000000003d090)]"
      ],
      "transaction": {
        "from": "0x0990be6db8c785fbbf9ded8baec612a10cae814b",
        "to": "0x5bff88ca1442c2496f7e475e9e7786383bc070c0",
        "gas": "0x1f5d4",
        "value": "0x0",
        "input": "0xb98bd07000000000000000000000000000000000000000000000000000000000000000200000000000000000000000000000000000000000000000000000000000000002000000000000000000000000000000000000000000000000000000000000004000000000000000000000000000000000000000000000000000000000000000e0000000000000000000000000000000000000000000000000000000000000762f00000000000000000000000000000000000000000000000000000000000000010000000000000000000000000000000000000000000000000000000000000060000000000000000000000000000000000000000000000000000000000000001600030100110100000000000000000000000000030d4000000000000000000000000000000000000000000000000000000000000000000000000000000000762f0000000000000000000000000000000000000000000000000000000000000002000000000000000000000000000000000000000000000000000000000000006000000000000000000000000000000000000000000000000000000000000000160003010011010000000000000000000000000003d09000000000000000000000",
        "nonce": "0x1",
        "chainId": "0x3e7"
      },
      "additionalContracts": [],
      "isFixedGasLimit": false
    },
    {
      "hash": "0x6e72da5f1d3454811c94df0accd3eb4b3e82aa9cbbae94cb62a66f010928f537",
      "transactionType": "CALL",
      "contractName": null,
      "contractAddress": "0x3ec3849c33291a9ef4c5db86de593eb4a37fde45",
      "function": "setEnforcedOptions((uint32,uint16,bytes)[])",
      "arguments": [
        "[(30255, 1, 0x00030100110100000000000000000000000000030d40), (30255, 2, 0x0003010011010000000000000000000000000003d090)]"
      ],
      "transaction": {
        "from": "0x0990be6db8c785fbbf9ded8baec612a10cae814b",
        "to": "0x3ec3849c33291a9ef4c5db86de593eb4a37fde45",
        "gas": "0x1f5d4",
        "value": "0x0",
        "input": "0xb98bd07000000000000000000000000000000000000000000000000000000000000000200000000000000000000000000000000000000000000000000000000000000002000000000000000000000000000000000000000000000000000000000000004000000000000000000000000000000000000000000000000000000000000000e0000000000000000000000000000000000000000000000000000000000000762f00000000000000000000000000000000000000000000000000000000000000010000000000000000000000000000000000000000000000000000000000000060000000000000000000000000000000000000000000000000000000000000001600030100110100000000000000000000000000030d4000000000000000000000000000000000000000000000000000000000000000000000000000000000762f0000000000000000000000000000000000000000000000000000000000000002000000000000000000000000000000000000000000000000000000000000006000000000000000000000000000000000000000000000000000000000000000160003010011010000000000000000000000000003d09000000000000000000000",
        "nonce": "0x2",
        "chainId": "0x3e7"
      },
      "additionalContracts": [],
      "isFixedGasLimit": false
    },
    {
      "hash": "0xffbd3bea5d37f814c53c1380e03f5cd00db910b3729c71ce857613edaee3f9f3",
      "transactionType": "CALL",
      "contractName": null,
      "contractAddress": "0x80eede496655fb9047dd39d9f418d5483ed600df",
      "function": "setEnforcedOptions((uint32,uint16,bytes)[])",
      "arguments": [
        "[(30255, 1, 0x00030100110100000000000000000000000000030d40), (30255, 2, 0x0003010011010000000000000000000000000003d090)]"
      ],
      "transaction": {
        "from": "0x0990be6db8c785fbbf9ded8baec612a10cae814b",
        "to": "0x80eede496655fb9047dd39d9f418d5483ed600df",
        "gas": "0x1f5d4",
        "value": "0x0",
        "input": "0xb98bd07000000000000000000000000000000000000000000000000000000000000000200000000000000000000000000000000000000000000000000000000000000002000000000000000000000000000000000000000000000000000000000000004000000000000000000000000000000000000000000000000000000000000000e0000000000000000000000000000000000000000000000000000000000000762f00000000000000000000000000000000000000000000000000000000000000010000000000000000000000000000000000000000000000000000000000000060000000000000000000000000000000000000000000000000000000000000001600030100110100000000000000000000000000030d4000000000000000000000000000000000000000000000000000000000000000000000000000000000762f0000000000000000000000000000000000000000000000000000000000000002000000000000000000000000000000000000000000000000000000000000006000000000000000000000000000000000000000000000000000000000000000160003010011010000000000000000000000000003d09000000000000000000000",
        "nonce": "0x3",
        "chainId": "0x3e7"
      },
      "additionalContracts": [],
      "isFixedGasLimit": false
    },
    {
      "hash": "0x54e611d46cb3d88c43c4e218665c16fc18dce0f5c4dd0e73c8e638c40caca717",
      "transactionType": "CALL",
      "contractName": null,
      "contractAddress": "0x43edd7f3831b08fe70b7555ddd373c8bf65a9050",
      "function": "setEnforcedOptions((uint32,uint16,bytes)[])",
      "arguments": [
        "[(30255, 1, 0x00030100110100000000000000000000000000030d40), (30255, 2, 0x0003010011010000000000000000000000000003d090)]"
      ],
      "transaction": {
        "from": "0x0990be6db8c785fbbf9ded8baec612a10cae814b",
        "to": "0x43edd7f3831b08fe70b7555ddd373c8bf65a9050",
        "gas": "0x1f5d4",
        "value": "0x0",
        "input": "0xb98bd07000000000000000000000000000000000000000000000000000000000000000200000000000000000000000000000000000000000000000000000000000000002000000000000000000000000000000000000000000000000000000000000004000000000000000000000000000000000000000000000000000000000000000e0000000000000000000000000000000000000000000000000000000000000762f00000000000000000000000000000000000000000000000000000000000000010000000000000000000000000000000000000000000000000000000000000060000000000000000000000000000000000000000000000000000000000000001600030100110100000000000000000000000000030d4000000000000000000000000000000000000000000000000000000000000000000000000000000000762f0000000000000000000000000000000000000000000000000000000000000002000000000000000000000000000000000000000000000000000000000000006000000000000000000000000000000000000000000000000000000000000000160003010011010000000000000000000000000003d09000000000000000000000",
        "nonce": "0x4",
        "chainId": "0x3e7"
      },
      "additionalContracts": [],
      "isFixedGasLimit": false
    },
    {
      "hash": "0xd7876b95d67525381ecd5a06683140ce48f048f515a9fa453ae18a34895b8e83",
      "transactionType": "CALL",
      "contractName": null,
      "contractAddress": "0x90581eca9469d8d7f5d3b60f4715027adfcf7927",
      "function": "setEnforcedOptions((uint32,uint16,bytes)[])",
      "arguments": [
        "[(30255, 1, 0x00030100110100000000000000000000000000030d40), (30255, 2, 0x0003010011010000000000000000000000000003d090)]"
      ],
      "transaction": {
        "from": "0x0990be6db8c785fbbf9ded8baec612a10cae814b",
        "to": "0x90581eca9469d8d7f5d3b60f4715027adfcf7927",
        "gas": "0x1f5d4",
        "value": "0x0",
        "input": "0xb98bd07000000000000000000000000000000000000000000000000000000000000000200000000000000000000000000000000000000000000000000000000000000002000000000000000000000000000000000000000000000000000000000000004000000000000000000000000000000000000000000000000000000000000000e0000000000000000000000000000000000000000000000000000000000000762f00000000000000000000000000000000000000000000000000000000000000010000000000000000000000000000000000000000000000000000000000000060000000000000000000000000000000000000000000000000000000000000001600030100110100000000000000000000000000030d4000000000000000000000000000000000000000000000000000000000000000000000000000000000762f0000000000000000000000000000000000000000000000000000000000000002000000000000000000000000000000000000000000000000000000000000006000000000000000000000000000000000000000000000000000000000000000160003010011010000000000000000000000000003d09000000000000000000000",
        "nonce": "0x5",
        "chainId": "0x3e7"
      },
      "additionalContracts": [],
      "isFixedGasLimit": false
    },
    {
      "hash": "0x192f8208348c29249fd9268b2729ae04cdea26961283ea9749c69190e8fb0935",
      "transactionType": "CALL",
      "contractName": null,
      "contractAddress": "0x64445f0aecc51e94ad52d8ac56b7190e764e561a",
      "function": "setPeer(uint32,bytes32)",
      "arguments": [
        "30255",
        "0x000000000000000000000000d86fbbd0c8715d2c1f40e451e5c3514e65e7576a"
      ],
      "transaction": {
        "from": "0x0990be6db8c785fbbf9ded8baec612a10cae814b",
        "to": "0x64445f0aecc51e94ad52d8ac56b7190e764e561a",
        "gas": "0x13a45",
        "value": "0x0",
        "input": "0x3400288b000000000000000000000000000000000000000000000000000000000000762f000000000000000000000000d86fbbd0c8715d2c1f40e451e5c3514e65e7576a",
        "nonce": "0x6",
        "chainId": "0x3e7"
      },
      "additionalContracts": [],
      "isFixedGasLimit": false
    },
    {
      "hash": "0x003d5bbb31be873e20eed751ef08647f253adaba76656df459b61534860576a0",
      "transactionType": "CALL",
      "contractName": null,
      "contractAddress": "0x5bff88ca1442c2496f7e475e9e7786383bc070c0",
      "function": "setPeer(uint32,bytes32)",
      "arguments": [
        "30255",
        "0x00000000000000000000000088aa7854d3b2daa5e37e7ce73a1f39669623a361"
      ],
      "transaction": {
        "from": "0x0990be6db8c785fbbf9ded8baec612a10cae814b",
        "to": "0x5bff88ca1442c2496f7e475e9e7786383bc070c0",
        "gas": "0x13a45",
        "value": "0x0",
        "input": "0x3400288b000000000000000000000000000000000000000000000000000000000000762f00000000000000000000000088aa7854d3b2daa5e37e7ce73a1f39669623a361",
        "nonce": "0x7",
        "chainId": "0x3e7"
      },
      "additionalContracts": [],
      "isFixedGasLimit": false
    },
    {
      "hash": "0xf2ecb5b6b013f0abbe1761059bf54ecd029e9bc4b383b0a93cf82874fa0967ba",
      "transactionType": "CALL",
      "contractName": null,
      "contractAddress": "0x3ec3849c33291a9ef4c5db86de593eb4a37fde45",
      "function": "setPeer(uint32,bytes32)",
      "arguments": [
        "30255",
        "0x000000000000000000000000999dfabe3b1cc2ef66eb032eea42fea329bba168"
      ],
      "transaction": {
        "from": "0x0990be6db8c785fbbf9ded8baec612a10cae814b",
        "to": "0x3ec3849c33291a9ef4c5db86de593eb4a37fde45",
        "gas": "0x13a45",
        "value": "0x0",
        "input": "0x3400288b000000000000000000000000000000000000000000000000000000000000762f000000000000000000000000999dfabe3b1cc2ef66eb032eea42fea329bba168",
        "nonce": "0x8",
        "chainId": "0x3e7"
      },
      "additionalContracts": [],
      "isFixedGasLimit": false
    },
    {
      "hash": "0x7efff65ff64262b12ead15b798e1f87439d6f5cf11f885c00490748644eedce5",
      "transactionType": "CALL",
      "contractName": null,
      "contractAddress": "0x80eede496655fb9047dd39d9f418d5483ed600df",
      "function": "setPeer(uint32,bytes32)",
      "arguments": [
        "30255",
        "0x00000000000000000000000096a394058e2b84a89bac9667b19661ed003cf5d4"
      ],
      "transaction": {
        "from": "0x0990be6db8c785fbbf9ded8baec612a10cae814b",
        "to": "0x80eede496655fb9047dd39d9f418d5483ed600df",
        "gas": "0x128be",
        "value": "0x0",
        "input": "0x3400288b000000000000000000000000000000000000000000000000000000000000762f00000000000000000000000096a394058e2b84a89bac9667b19661ed003cf5d4",
        "nonce": "0x9",
        "chainId": "0x3e7"
      },
      "additionalContracts": [],
      "isFixedGasLimit": false
    },
    {
      "hash": "0x55e227a808ba5c3d9a64963b2ca60a90e32e5262ae916bcaa0cdd7c1b34e91b8",
      "transactionType": "CALL",
      "contractName": null,
      "contractAddress": "0x43edd7f3831b08fe70b7555ddd373c8bf65a9050",
      "function": "setPeer(uint32,bytes32)",
      "arguments": [
        "30255",
        "0x0000000000000000000000009abfe1f8a999b0011ecd6116649aee8d575f5604"
      ],
      "transaction": {
        "from": "0x0990be6db8c785fbbf9ded8baec612a10cae814b",
        "to": "0x43edd7f3831b08fe70b7555ddd373c8bf65a9050",
        "gas": "0x13a45",
        "value": "0x0",
        "input": "0x3400288b000000000000000000000000000000000000000000000000000000000000762f0000000000000000000000009abfe1f8a999b0011ecd6116649aee8d575f5604",
        "nonce": "0xa",
        "chainId": "0x3e7"
      },
      "additionalContracts": [],
      "isFixedGasLimit": false
    },
    {
      "hash": "0xe7c6116b0859b5660c0d953a755fa55f906e3de3339ed3d9be82252966188df8",
      "transactionType": "CALL",
      "contractName": null,
      "contractAddress": "0x90581eca9469d8d7f5d3b60f4715027adfcf7927",
      "function": "setPeer(uint32,bytes32)",
      "arguments": [
        "30255",
        "0x00000000000000000000000075c38d46001b0f8108c4136216bd2694982c20fc"
      ],
      "transaction": {
        "from": "0x0990be6db8c785fbbf9ded8baec612a10cae814b",
        "to": "0x90581eca9469d8d7f5d3b60f4715027adfcf7927",
        "gas": "0x128be",
        "value": "0x0",
        "input": "0x3400288b000000000000000000000000000000000000000000000000000000000000762f00000000000000000000000075c38d46001b0f8108c4136216bd2694982c20fc",
        "nonce": "0xb",
        "chainId": "0x3e7"
      },
      "additionalContracts": [],
      "isFixedGasLimit": false
    },
    {
      "hash": "0xd9b5fc4df8fd3eb52003946eb70d637bbfa1ed578d6879c88f892dc2e64cb4d3",
      "transactionType": "CALL",
      "contractName": "EndpointV2",
      "contractAddress": "0x3a73033c0b1407574c76bdbac67f126f6b4a9aa9",
      "function": "setConfig(address,address,(uint32,uint32,bytes)[])",
      "arguments": [
        "0x64445f0aecC51E94aD52d8AC56b7190e764E561a",
        "0xfd76d9CB0Bac839725aB79127E7411fe71b1e3CA",
        "[(30255, 2, 0x0000000000000000000000000000000000000000000000000000000000000020000000000000000000000000000000000000000000000000000000000000000000000000000000000000000000000000000000000000000000000000000000030000000000000000000000000000000000000000000000000000000000000000000000000000000000000000000000000000000000000000000000000000000000000000000000000000000000000000000000000000000000000000000000c000000000000000000000000000000000000000000000000000000000000001400000000000000000000000000000000000000000000000000000000000000003000000000000000000000000082a08f524c043ec7f6b9a42bae79a1990d8499a000000000000000000000000bb83ecf372cbb6daa629ea9a9a53bec6d601f229000000000000000000000000c097ab8cd7b053326dfe9fb3e3a31a0cce3b526f0000000000000000000000000000000000000000000000000000000000000000)]"
      ],
      "transaction": {
        "from": "0x0990be6db8c785fbbf9ded8baec612a10cae814b",
        "to": "0x3a73033c0b1407574c76bdbac67f126f6b4a9aa9",
        "gas": "0x36d34",
        "value": "0x0",
        "input": "0x6dbd9f9000000000000000000000000064445f0aecc51e94ad52d8ac56b7190e764e561a000000000000000000000000fd76d9cb0bac839725ab79127e7411fe71b1e3ca000000000000000000000000000000000000000000000000000000000000006000000000000000000000000000000000000000000000000000000000000000010000000000000000000000000000000000000000000000000000000000000020000000000000000000000000000000000000000000000000000000000000762f0000000000000000000000000000000000000000000000000000000000000002000000000000000000000000000000000000000000000000000000000000006000000000000000000000000000000000000000000000000000000000000001800000000000000000000000000000000000000000000000000000000000000020000000000000000000000000000000000000000000000000000000000000000000000000000000000000000000000000000000000000000000000000000000030000000000000000000000000000000000000000000000000000000000000000000000000000000000000000000000000000000000000000000000000000000000000000000000000000000000000000000000000000000000000000000000c000000000000000000000000000000000000000000000000000000000000001400000000000000000000000000000000000000000000000000000000000000003000000000000000000000000082a08f524c043ec7f6b9a42bae79a1990d8499a000000000000000000000000bb83ecf372cbb6daa629ea9a9a53bec6d601f229000000000000000000000000c097ab8cd7b053326dfe9fb3e3a31a0cce3b526f0000000000000000000000000000000000000000000000000000000000000000",
        "nonce": "0xc",
        "chainId": "0x3e7"
      },
      "additionalContracts": [],
      "isFixedGasLimit": false
    },
    {
      "hash": "0xe5613f11493c54bdae65da50d30c966999d527a82e49bb1e257a8fa07674590c",
      "transactionType": "CALL",
      "contractName": "EndpointV2",
      "contractAddress": "0x3a73033c0b1407574c76bdbac67f126f6b4a9aa9",
      "function": "setConfig(address,address,(uint32,uint32,bytes)[])",
      "arguments": [
        "0x64445f0aecC51E94aD52d8AC56b7190e764E561a",
        "0x7cacBe439EaD55fa1c22790330b12835c6884a91",
        "[(30255, 2, 0x0000000000000000000000000000000000000000000000000000000000000020000000000000000000000000000000000000000000000000000000000000000000000000000000000000000000000000000000000000000000000000000000030000000000000000000000000000000000000000000000000000000000000000000000000000000000000000000000000000000000000000000000000000000000000000000000000000000000000000000000000000000000000000000000c000000000000000000000000000000000000000000000000000000000000001400000000000000000000000000000000000000000000000000000000000000003000000000000000000000000082a08f524c043ec7f6b9a42bae79a1990d8499a000000000000000000000000bb83ecf372cbb6daa629ea9a9a53bec6d601f229000000000000000000000000c097ab8cd7b053326dfe9fb3e3a31a0cce3b526f0000000000000000000000000000000000000000000000000000000000000000)]"
      ],
      "transaction": {
        "from": "0x0990be6db8c785fbbf9ded8baec612a10cae814b",
        "to": "0x3a73033c0b1407574c76bdbac67f126f6b4a9aa9",
        "gas": "0x36be0",
        "value": "0x0",
        "input": "0x6dbd9f9000000000000000000000000064445f0aecc51e94ad52d8ac56b7190e764e561a0000000000000000000000007cacbe439ead55fa1c22790330b12835c6884a91000000000000000000000000000000000000000000000000000000000000006000000000000000000000000000000000000000000000000000000000000000010000000000000000000000000000000000000000000000000000000000000020000000000000000000000000000000000000000000000000000000000000762f0000000000000000000000000000000000000000000000000000000000000002000000000000000000000000000000000000000000000000000000000000006000000000000000000000000000000000000000000000000000000000000001800000000000000000000000000000000000000000000000000000000000000020000000000000000000000000000000000000000000000000000000000000000000000000000000000000000000000000000000000000000000000000000000030000000000000000000000000000000000000000000000000000000000000000000000000000000000000000000000000000000000000000000000000000000000000000000000000000000000000000000000000000000000000000000000c000000000000000000000000000000000000000000000000000000000000001400000000000000000000000000000000000000000000000000000000000000003000000000000000000000000082a08f524c043ec7f6b9a42bae79a1990d8499a000000000000000000000000bb83ecf372cbb6daa629ea9a9a53bec6d601f229000000000000000000000000c097ab8cd7b053326dfe9fb3e3a31a0cce3b526f0000000000000000000000000000000000000000000000000000000000000000",
        "nonce": "0xd",
        "chainId": "0x3e7"
      },
      "additionalContracts": [],
      "isFixedGasLimit": false
    },
    {
      "hash": "0x89fdc4bfc6d5ee8efe530ea074e196427c9d4fc6a665b73486630de1007f321b",
      "transactionType": "CALL",
      "contractName": "EndpointV2",
      "contractAddress": "0x3a73033c0b1407574c76bdbac67f126f6b4a9aa9",
      "function": "setConfig(address,address,(uint32,uint32,bytes)[])",
      "arguments": [
        "0x5Bff88cA1442c2496f7E475E9e7786383Bc070c0",
        "0xfd76d9CB0Bac839725aB79127E7411fe71b1e3CA",
        "[(30255, 2, 0x0000000000000000000000000000000000000000000000000000000000000020000000000000000000000000000000000000000000000000000000000000000000000000000000000000000000000000000000000000000000000000000000030000000000000000000000000000000000000000000000000000000000000000000000000000000000000000000000000000000000000000000000000000000000000000000000000000000000000000000000000000000000000000000000c000000000000000000000000000000000000000000000000000000000000001400000000000000000000000000000000000000000000000000000000000000003000000000000000000000000082a08f524c043ec7f6b9a42bae79a1990d8499a000000000000000000000000bb83ecf372cbb6daa629ea9a9a53bec6d601f229000000000000000000000000c097ab8cd7b053326dfe9fb3e3a31a0cce3b526f0000000000000000000000000000000000000000000000000000000000000000)]"
      ],
      "transaction": {
        "from": "0x0990be6db8c785fbbf9ded8baec612a10cae814b",
        "to": "0x3a73033c0b1407574c76bdbac67f126f6b4a9aa9",
        "gas": "0x36d34",
        "value": "0x0",
        "input": "0x6dbd9f900000000000000000000000005bff88ca1442c2496f7e475e9e7786383bc070c0000000000000000000000000fd76d9cb0bac839725ab79127e7411fe71b1e3ca000000000000000000000000000000000000000000000000000000000000006000000000000000000000000000000000000000000000000000000000000000010000000000000000000000000000000000000000000000000000000000000020000000000000000000000000000000000000000000000000000000000000762f0000000000000000000000000000000000000000000000000000000000000002000000000000000000000000000000000000000000000000000000000000006000000000000000000000000000000000000000000000000000000000000001800000000000000000000000000000000000000000000000000000000000000020000000000000000000000000000000000000000000000000000000000000000000000000000000000000000000000000000000000000000000000000000000030000000000000000000000000000000000000000000000000000000000000000000000000000000000000000000000000000000000000000000000000000000000000000000000000000000000000000000000000000000000000000000000c000000000000000000000000000000000000000000000000000000000000001400000000000000000000000000000000000000000000000000000000000000003000000000000000000000000082a08f524c043ec7f6b9a42bae79a1990d8499a000000000000000000000000bb83ecf372cbb6daa629ea9a9a53bec6d601f229000000000000000000000000c097ab8cd7b053326dfe9fb3e3a31a0cce3b526f0000000000000000000000000000000000000000000000000000000000000000",
        "nonce": "0xe",
        "chainId": "0x3e7"
      },
      "additionalContracts": [],
      "isFixedGasLimit": false
    },
    {
      "hash": "0xf1f8fcb1710af5bf53b8ff57892c56172ceed808b0d37292f8e9bf2917e371ce",
      "transactionType": "CALL",
      "contractName": "EndpointV2",
      "contractAddress": "0x3a73033c0b1407574c76bdbac67f126f6b4a9aa9",
      "function": "setConfig(address,address,(uint32,uint32,bytes)[])",
      "arguments": [
        "0x5Bff88cA1442c2496f7E475E9e7786383Bc070c0",
        "0x7cacBe439EaD55fa1c22790330b12835c6884a91",
        "[(30255, 2, 0x0000000000000000000000000000000000000000000000000000000000000020000000000000000000000000000000000000000000000000000000000000000000000000000000000000000000000000000000000000000000000000000000030000000000000000000000000000000000000000000000000000000000000000000000000000000000000000000000000000000000000000000000000000000000000000000000000000000000000000000000000000000000000000000000c000000000000000000000000000000000000000000000000000000000000001400000000000000000000000000000000000000000000000000000000000000003000000000000000000000000082a08f524c043ec7f6b9a42bae79a1990d8499a000000000000000000000000bb83ecf372cbb6daa629ea9a9a53bec6d601f229000000000000000000000000c097ab8cd7b053326dfe9fb3e3a31a0cce3b526f0000000000000000000000000000000000000000000000000000000000000000)]"
      ],
      "transaction": {
        "from": "0x0990be6db8c785fbbf9ded8baec612a10cae814b",
        "to": "0x3a73033c0b1407574c76bdbac67f126f6b4a9aa9",
        "gas": "0x36be0",
        "value": "0x0",
        "input": "0x6dbd9f900000000000000000000000005bff88ca1442c2496f7e475e9e7786383bc070c00000000000000000000000007cacbe439ead55fa1c22790330b12835c6884a91000000000000000000000000000000000000000000000000000000000000006000000000000000000000000000000000000000000000000000000000000000010000000000000000000000000000000000000000000000000000000000000020000000000000000000000000000000000000000000000000000000000000762f0000000000000000000000000000000000000000000000000000000000000002000000000000000000000000000000000000000000000000000000000000006000000000000000000000000000000000000000000000000000000000000001800000000000000000000000000000000000000000000000000000000000000020000000000000000000000000000000000000000000000000000000000000000000000000000000000000000000000000000000000000000000000000000000030000000000000000000000000000000000000000000000000000000000000000000000000000000000000000000000000000000000000000000000000000000000000000000000000000000000000000000000000000000000000000000000c000000000000000000000000000000000000000000000000000000000000001400000000000000000000000000000000000000000000000000000000000000003000000000000000000000000082a08f524c043ec7f6b9a42bae79a1990d8499a000000000000000000000000bb83ecf372cbb6daa629ea9a9a53bec6d601f229000000000000000000000000c097ab8cd7b053326dfe9fb3e3a31a0cce3b526f0000000000000000000000000000000000000000000000000000000000000000",
        "nonce": "0xf",
        "chainId": "0x3e7"
      },
      "additionalContracts": [],
      "isFixedGasLimit": false
    },
    {
      "hash": "0x3373662309413b81187cf29c38577ec2d87c6a6a96496b359d8d8ec16215f3d4",
      "transactionType": "CALL",
      "contractName": "EndpointV2",
      "contractAddress": "0x3a73033c0b1407574c76bdbac67f126f6b4a9aa9",
      "function": "setConfig(address,address,(uint32,uint32,bytes)[])",
      "arguments": [
        "0x3Ec3849C33291a9eF4c5dB86De593EB4A37fDe45",
        "0xfd76d9CB0Bac839725aB79127E7411fe71b1e3CA",
        "[(30255, 2, 0x0000000000000000000000000000000000000000000000000000000000000020000000000000000000000000000000000000000000000000000000000000000000000000000000000000000000000000000000000000000000000000000000030000000000000000000000000000000000000000000000000000000000000000000000000000000000000000000000000000000000000000000000000000000000000000000000000000000000000000000000000000000000000000000000c000000000000000000000000000000000000000000000000000000000000001400000000000000000000000000000000000000000000000000000000000000003000000000000000000000000082a08f524c043ec7f6b9a42bae79a1990d8499a000000000000000000000000bb83ecf372cbb6daa629ea9a9a53bec6d601f229000000000000000000000000c097ab8cd7b053326dfe9fb3e3a31a0cce3b526f0000000000000000000000000000000000000000000000000000000000000000)]"
      ],
      "transaction": {
        "from": "0x0990be6db8c785fbbf9ded8baec612a10cae814b",
        "to": "0x3a73033c0b1407574c76bdbac67f126f6b4a9aa9",
        "gas": "0x36d34",
        "value": "0x0",
        "input": "0x6dbd9f900000000000000000000000003ec3849c33291a9ef4c5db86de593eb4a37fde45000000000000000000000000fd76d9cb0bac839725ab79127e7411fe71b1e3ca000000000000000000000000000000000000000000000000000000000000006000000000000000000000000000000000000000000000000000000000000000010000000000000000000000000000000000000000000000000000000000000020000000000000000000000000000000000000000000000000000000000000762f0000000000000000000000000000000000000000000000000000000000000002000000000000000000000000000000000000000000000000000000000000006000000000000000000000000000000000000000000000000000000000000001800000000000000000000000000000000000000000000000000000000000000020000000000000000000000000000000000000000000000000000000000000000000000000000000000000000000000000000000000000000000000000000000030000000000000000000000000000000000000000000000000000000000000000000000000000000000000000000000000000000000000000000000000000000000000000000000000000000000000000000000000000000000000000000000c000000000000000000000000000000000000000000000000000000000000001400000000000000000000000000000000000000000000000000000000000000003000000000000000000000000082a08f524c043ec7f6b9a42bae79a1990d8499a000000000000000000000000bb83ecf372cbb6daa629ea9a9a53bec6d601f229000000000000000000000000c097ab8cd7b053326dfe9fb3e3a31a0cce3b526f0000000000000000000000000000000000000000000000000000000000000000",
        "nonce": "0x10",
        "chainId": "0x3e7"
      },
      "additionalContracts": [],
      "isFixedGasLimit": false
    },
    {
      "hash": "0x42e3508375b920840fca4d0701448b142aa390931bcaf8019af7dd47924a7bd2",
      "transactionType": "CALL",
      "contractName": "EndpointV2",
      "contractAddress": "0x3a73033c0b1407574c76bdbac67f126f6b4a9aa9",
      "function": "setConfig(address,address,(uint32,uint32,bytes)[])",
      "arguments": [
        "0x3Ec3849C33291a9eF4c5dB86De593EB4A37fDe45",
        "0x7cacBe439EaD55fa1c22790330b12835c6884a91",
        "[(30255, 2, 0x0000000000000000000000000000000000000000000000000000000000000020000000000000000000000000000000000000000000000000000000000000000000000000000000000000000000000000000000000000000000000000000000030000000000000000000000000000000000000000000000000000000000000000000000000000000000000000000000000000000000000000000000000000000000000000000000000000000000000000000000000000000000000000000000c000000000000000000000000000000000000000000000000000000000000001400000000000000000000000000000000000000000000000000000000000000003000000000000000000000000082a08f524c043ec7f6b9a42bae79a1990d8499a000000000000000000000000bb83ecf372cbb6daa629ea9a9a53bec6d601f229000000000000000000000000c097ab8cd7b053326dfe9fb3e3a31a0cce3b526f0000000000000000000000000000000000000000000000000000000000000000)]"
      ],
      "transaction": {
        "from": "0x0990be6db8c785fbbf9ded8baec612a10cae814b",
        "to": "0x3a73033c0b1407574c76bdbac67f126f6b4a9aa9",
        "gas": "0x36be0",
        "value": "0x0",
        "input": "0x6dbd9f900000000000000000000000003ec3849c33291a9ef4c5db86de593eb4a37fde450000000000000000000000007cacbe439ead55fa1c22790330b12835c6884a91000000000000000000000000000000000000000000000000000000000000006000000000000000000000000000000000000000000000000000000000000000010000000000000000000000000000000000000000000000000000000000000020000000000000000000000000000000000000000000000000000000000000762f0000000000000000000000000000000000000000000000000000000000000002000000000000000000000000000000000000000000000000000000000000006000000000000000000000000000000000000000000000000000000000000001800000000000000000000000000000000000000000000000000000000000000020000000000000000000000000000000000000000000000000000000000000000000000000000000000000000000000000000000000000000000000000000000030000000000000000000000000000000000000000000000000000000000000000000000000000000000000000000000000000000000000000000000000000000000000000000000000000000000000000000000000000000000000000000000c000000000000000000000000000000000000000000000000000000000000001400000000000000000000000000000000000000000000000000000000000000003000000000000000000000000082a08f524c043ec7f6b9a42bae79a1990d8499a000000000000000000000000bb83ecf372cbb6daa629ea9a9a53bec6d601f229000000000000000000000000c097ab8cd7b053326dfe9fb3e3a31a0cce3b526f0000000000000000000000000000000000000000000000000000000000000000",
        "nonce": "0x11",
        "chainId": "0x3e7"
      },
      "additionalContracts": [],
      "isFixedGasLimit": false
    },
    {
      "hash": "0x0b5b0302c413296ff3f56c06ff350e874232ef6cb60417649e5d5039d3db0c83",
      "transactionType": "CALL",
      "contractName": "EndpointV2",
      "contractAddress": "0x3a73033c0b1407574c76bdbac67f126f6b4a9aa9",
      "function": "setConfig(address,address,(uint32,uint32,bytes)[])",
      "arguments": [
        "0x80Eede496655FB9047dd39d9f418d5483ED600df",
        "0xfd76d9CB0Bac839725aB79127E7411fe71b1e3CA",
        "[(30255, 2, 0x0000000000000000000000000000000000000000000000000000000000000020000000000000000000000000000000000000000000000000000000000000000000000000000000000000000000000000000000000000000000000000000000030000000000000000000000000000000000000000000000000000000000000000000000000000000000000000000000000000000000000000000000000000000000000000000000000000000000000000000000000000000000000000000000c000000000000000000000000000000000000000000000000000000000000001400000000000000000000000000000000000000000000000000000000000000003000000000000000000000000082a08f524c043ec7f6b9a42bae79a1990d8499a000000000000000000000000bb83ecf372cbb6daa629ea9a9a53bec6d601f229000000000000000000000000c097ab8cd7b053326dfe9fb3e3a31a0cce3b526f0000000000000000000000000000000000000000000000000000000000000000)]"
      ],
      "transaction": {
        "from": "0x0990be6db8c785fbbf9ded8baec612a10cae814b",
        "to": "0x3a73033c0b1407574c76bdbac67f126f6b4a9aa9",
        "gas": "0x3a0bd",
        "value": "0x0",
        "input": "0x6dbd9f9000000000000000000000000080eede496655fb9047dd39d9f418d5483ed600df000000000000000000000000fd76d9cb0bac839725ab79127e7411fe71b1e3ca000000000000000000000000000000000000000000000000000000000000006000000000000000000000000000000000000000000000000000000000000000010000000000000000000000000000000000000000000000000000000000000020000000000000000000000000000000000000000000000000000000000000762f0000000000000000000000000000000000000000000000000000000000000002000000000000000000000000000000000000000000000000000000000000006000000000000000000000000000000000000000000000000000000000000001800000000000000000000000000000000000000000000000000000000000000020000000000000000000000000000000000000000000000000000000000000000000000000000000000000000000000000000000000000000000000000000000030000000000000000000000000000000000000000000000000000000000000000000000000000000000000000000000000000000000000000000000000000000000000000000000000000000000000000000000000000000000000000000000c000000000000000000000000000000000000000000000000000000000000001400000000000000000000000000000000000000000000000000000000000000003000000000000000000000000082a08f524c043ec7f6b9a42bae79a1990d8499a000000000000000000000000bb83ecf372cbb6daa629ea9a9a53bec6d601f229000000000000000000000000c097ab8cd7b053326dfe9fb3e3a31a0cce3b526f0000000000000000000000000000000000000000000000000000000000000000",
        "nonce": "0x12",
        "chainId": "0x3e7"
      },
      "additionalContracts": [],
      "isFixedGasLimit": false
    },
    {
      "hash": "0xd3aa611f4f57766806dd7dd50bceed0fa8684abecd30d67645c0a510856edc2b",
      "transactionType": "CALL",
      "contractName": "EndpointV2",
      "contractAddress": "0x3a73033c0b1407574c76bdbac67f126f6b4a9aa9",
      "function": "setConfig(address,address,(uint32,uint32,bytes)[])",
      "arguments": [
        "0x80Eede496655FB9047dd39d9f418d5483ED600df",
        "0x7cacBe439EaD55fa1c22790330b12835c6884a91",
        "[(30255, 2, 0x0000000000000000000000000000000000000000000000000000000000000020000000000000000000000000000000000000000000000000000000000000000000000000000000000000000000000000000000000000000000000000000000030000000000000000000000000000000000000000000000000000000000000000000000000000000000000000000000000000000000000000000000000000000000000000000000000000000000000000000000000000000000000000000000c000000000000000000000000000000000000000000000000000000000000001400000000000000000000000000000000000000000000000000000000000000003000000000000000000000000082a08f524c043ec7f6b9a42bae79a1990d8499a000000000000000000000000bb83ecf372cbb6daa629ea9a9a53bec6d601f229000000000000000000000000c097ab8cd7b053326dfe9fb3e3a31a0cce3b526f0000000000000000000000000000000000000000000000000000000000000000)]"
      ],
      "transaction": {
        "from": "0x0990be6db8c785fbbf9ded8baec612a10cae814b",
        "to": "0x3a73033c0b1407574c76bdbac67f126f6b4a9aa9",
        "gas": "0x39f54",
        "value": "0x0",
        "input": "0x6dbd9f9000000000000000000000000080eede496655fb9047dd39d9f418d5483ed600df0000000000000000000000007cacbe439ead55fa1c22790330b12835c6884a91000000000000000000000000000000000000000000000000000000000000006000000000000000000000000000000000000000000000000000000000000000010000000000000000000000000000000000000000000000000000000000000020000000000000000000000000000000000000000000000000000000000000762f0000000000000000000000000000000000000000000000000000000000000002000000000000000000000000000000000000000000000000000000000000006000000000000000000000000000000000000000000000000000000000000001800000000000000000000000000000000000000000000000000000000000000020000000000000000000000000000000000000000000000000000000000000000000000000000000000000000000000000000000000000000000000000000000030000000000000000000000000000000000000000000000000000000000000000000000000000000000000000000000000000000000000000000000000000000000000000000000000000000000000000000000000000000000000000000000c000000000000000000000000000000000000000000000000000000000000001400000000000000000000000000000000000000000000000000000000000000003000000000000000000000000082a08f524c043ec7f6b9a42bae79a1990d8499a000000000000000000000000bb83ecf372cbb6daa629ea9a9a53bec6d601f229000000000000000000000000c097ab8cd7b053326dfe9fb3e3a31a0cce3b526f0000000000000000000000000000000000000000000000000000000000000000",
        "nonce": "0x13",
        "chainId": "0x3e7"
      },
      "additionalContracts": [],
      "isFixedGasLimit": false
    },
    {
      "hash": "0x17ef9558c5e6f33c488b04ba52bae6ae8c22a75dd19eaabae12303b1f2352149",
      "transactionType": "CALL",
      "contractName": "EndpointV2",
      "contractAddress": "0x3a73033c0b1407574c76bdbac67f126f6b4a9aa9",
      "function": "setConfig(address,address,(uint32,uint32,bytes)[])",
      "arguments": [
        "0x43eDD7f3831b08FE70B7555ddD373C8bF65a9050",
        "0xfd76d9CB0Bac839725aB79127E7411fe71b1e3CA",
        "[(30255, 2, 0x0000000000000000000000000000000000000000000000000000000000000020000000000000000000000000000000000000000000000000000000000000000000000000000000000000000000000000000000000000000000000000000000030000000000000000000000000000000000000000000000000000000000000000000000000000000000000000000000000000000000000000000000000000000000000000000000000000000000000000000000000000000000000000000000c000000000000000000000000000000000000000000000000000000000000001400000000000000000000000000000000000000000000000000000000000000003000000000000000000000000082a08f524c043ec7f6b9a42bae79a1990d8499a000000000000000000000000bb83ecf372cbb6daa629ea9a9a53bec6d601f229000000000000000000000000c097ab8cd7b053326dfe9fb3e3a31a0cce3b526f0000000000000000000000000000000000000000000000000000000000000000)]"
      ],
      "transaction": {
        "from": "0x0990be6db8c785fbbf9ded8baec612a10cae814b",
        "to": "0x3a73033c0b1407574c76bdbac67f126f6b4a9aa9",
        "gas": "0x36d34",
        "value": "0x0",
        "input": "0x6dbd9f9000000000000000000000000043edd7f3831b08fe70b7555ddd373c8bf65a9050000000000000000000000000fd76d9cb0bac839725ab79127e7411fe71b1e3ca000000000000000000000000000000000000000000000000000000000000006000000000000000000000000000000000000000000000000000000000000000010000000000000000000000000000000000000000000000000000000000000020000000000000000000000000000000000000000000000000000000000000762f0000000000000000000000000000000000000000000000000000000000000002000000000000000000000000000000000000000000000000000000000000006000000000000000000000000000000000000000000000000000000000000001800000000000000000000000000000000000000000000000000000000000000020000000000000000000000000000000000000000000000000000000000000000000000000000000000000000000000000000000000000000000000000000000030000000000000000000000000000000000000000000000000000000000000000000000000000000000000000000000000000000000000000000000000000000000000000000000000000000000000000000000000000000000000000000000c000000000000000000000000000000000000000000000000000000000000001400000000000000000000000000000000000000000000000000000000000000003000000000000000000000000082a08f524c043ec7f6b9a42bae79a1990d8499a000000000000000000000000bb83ecf372cbb6daa629ea9a9a53bec6d601f229000000000000000000000000c097ab8cd7b053326dfe9fb3e3a31a0cce3b526f0000000000000000000000000000000000000000000000000000000000000000",
        "nonce": "0x14",
        "chainId": "0x3e7"
      },
      "additionalContracts": [],
      "isFixedGasLimit": false
    },
    {
      "hash": "0xd19aac9f4c348f69bdca2c14599474d4229e6a87ce7c7ab29042a91f0123707e",
      "transactionType": "CALL",
      "contractName": "EndpointV2",
      "contractAddress": "0x3a73033c0b1407574c76bdbac67f126f6b4a9aa9",
      "function": "setConfig(address,address,(uint32,uint32,bytes)[])",
      "arguments": [
        "0x43eDD7f3831b08FE70B7555ddD373C8bF65a9050",
        "0x7cacBe439EaD55fa1c22790330b12835c6884a91",
        "[(30255, 2, 0x0000000000000000000000000000000000000000000000000000000000000020000000000000000000000000000000000000000000000000000000000000000000000000000000000000000000000000000000000000000000000000000000030000000000000000000000000000000000000000000000000000000000000000000000000000000000000000000000000000000000000000000000000000000000000000000000000000000000000000000000000000000000000000000000c000000000000000000000000000000000000000000000000000000000000001400000000000000000000000000000000000000000000000000000000000000003000000000000000000000000082a08f524c043ec7f6b9a42bae79a1990d8499a000000000000000000000000bb83ecf372cbb6daa629ea9a9a53bec6d601f229000000000000000000000000c097ab8cd7b053326dfe9fb3e3a31a0cce3b526f0000000000000000000000000000000000000000000000000000000000000000)]"
      ],
      "transaction": {
        "from": "0x0990be6db8c785fbbf9ded8baec612a10cae814b",
        "to": "0x3a73033c0b1407574c76bdbac67f126f6b4a9aa9",
        "gas": "0x36be0",
        "value": "0x0",
        "input": "0x6dbd9f9000000000000000000000000043edd7f3831b08fe70b7555ddd373c8bf65a90500000000000000000000000007cacbe439ead55fa1c22790330b12835c6884a91000000000000000000000000000000000000000000000000000000000000006000000000000000000000000000000000000000000000000000000000000000010000000000000000000000000000000000000000000000000000000000000020000000000000000000000000000000000000000000000000000000000000762f0000000000000000000000000000000000000000000000000000000000000002000000000000000000000000000000000000000000000000000000000000006000000000000000000000000000000000000000000000000000000000000001800000000000000000000000000000000000000000000000000000000000000020000000000000000000000000000000000000000000000000000000000000000000000000000000000000000000000000000000000000000000000000000000030000000000000000000000000000000000000000000000000000000000000000000000000000000000000000000000000000000000000000000000000000000000000000000000000000000000000000000000000000000000000000000000c000000000000000000000000000000000000000000000000000000000000001400000000000000000000000000000000000000000000000000000000000000003000000000000000000000000082a08f524c043ec7f6b9a42bae79a1990d8499a000000000000000000000000bb83ecf372cbb6daa629ea9a9a53bec6d601f229000000000000000000000000c097ab8cd7b053326dfe9fb3e3a31a0cce3b526f0000000000000000000000000000000000000000000000000000000000000000",
        "nonce": "0x15",
        "chainId": "0x3e7"
      },
      "additionalContracts": [],
      "isFixedGasLimit": false
    },
    {
      "hash": "0xa22ab8edbf25e5d5e5eb91bca9414f1a19dfcd75151e0bab82d180958c1259bf",
      "transactionType": "CALL",
      "contractName": "EndpointV2",
      "contractAddress": "0x3a73033c0b1407574c76bdbac67f126f6b4a9aa9",
      "function": "setConfig(address,address,(uint32,uint32,bytes)[])",
      "arguments": [
        "0x90581eCa9469D8D7F5D3B60f4715027aDFCf7927",
        "0xfd76d9CB0Bac839725aB79127E7411fe71b1e3CA",
        "[(30255, 2, 0x0000000000000000000000000000000000000000000000000000000000000020000000000000000000000000000000000000000000000000000000000000000000000000000000000000000000000000000000000000000000000000000000030000000000000000000000000000000000000000000000000000000000000000000000000000000000000000000000000000000000000000000000000000000000000000000000000000000000000000000000000000000000000000000000c000000000000000000000000000000000000000000000000000000000000001400000000000000000000000000000000000000000000000000000000000000003000000000000000000000000082a08f524c043ec7f6b9a42bae79a1990d8499a000000000000000000000000bb83ecf372cbb6daa629ea9a9a53bec6d601f229000000000000000000000000c097ab8cd7b053326dfe9fb3e3a31a0cce3b526f0000000000000000000000000000000000000000000000000000000000000000)]"
      ],
      "transaction": {
        "from": "0x0990be6db8c785fbbf9ded8baec612a10cae814b",
        "to": "0x3a73033c0b1407574c76bdbac67f126f6b4a9aa9",
        "gas": "0x36d34",
        "value": "0x0",
        "input": "0x6dbd9f9000000000000000000000000090581eca9469d8d7f5d3b60f4715027adfcf7927000000000000000000000000fd76d9cb0bac839725ab79127e7411fe71b1e3ca000000000000000000000000000000000000000000000000000000000000006000000000000000000000000000000000000000000000000000000000000000010000000000000000000000000000000000000000000000000000000000000020000000000000000000000000000000000000000000000000000000000000762f0000000000000000000000000000000000000000000000000000000000000002000000000000000000000000000000000000000000000000000000000000006000000000000000000000000000000000000000000000000000000000000001800000000000000000000000000000000000000000000000000000000000000020000000000000000000000000000000000000000000000000000000000000000000000000000000000000000000000000000000000000000000000000000000030000000000000000000000000000000000000000000000000000000000000000000000000000000000000000000000000000000000000000000000000000000000000000000000000000000000000000000000000000000000000000000000c000000000000000000000000000000000000000000000000000000000000001400000000000000000000000000000000000000000000000000000000000000003000000000000000000000000082a08f524c043ec7f6b9a42bae79a1990d8499a000000000000000000000000bb83ecf372cbb6daa629ea9a9a53bec6d601f229000000000000000000000000c097ab8cd7b053326dfe9fb3e3a31a0cce3b526f0000000000000000000000000000000000000000000000000000000000000000",
        "nonce": "0x16",
        "chainId": "0x3e7"
      },
      "additionalContracts": [],
      "isFixedGasLimit": false
    },
    {
      "hash": "0x9b2e883cee407e84c60bb9eaef2e6a417dc4066fbf181f092262bb7c741c7c26",
      "transactionType": "CALL",
      "contractName": "EndpointV2",
      "contractAddress": "0x3a73033c0b1407574c76bdbac67f126f6b4a9aa9",
      "function": "setConfig(address,address,(uint32,uint32,bytes)[])",
      "arguments": [
        "0x90581eCa9469D8D7F5D3B60f4715027aDFCf7927",
        "0x7cacBe439EaD55fa1c22790330b12835c6884a91",
        "[(30255, 2, 0x0000000000000000000000000000000000000000000000000000000000000020000000000000000000000000000000000000000000000000000000000000000000000000000000000000000000000000000000000000000000000000000000030000000000000000000000000000000000000000000000000000000000000000000000000000000000000000000000000000000000000000000000000000000000000000000000000000000000000000000000000000000000000000000000c000000000000000000000000000000000000000000000000000000000000001400000000000000000000000000000000000000000000000000000000000000003000000000000000000000000082a08f524c043ec7f6b9a42bae79a1990d8499a000000000000000000000000bb83ecf372cbb6daa629ea9a9a53bec6d601f229000000000000000000000000c097ab8cd7b053326dfe9fb3e3a31a0cce3b526f0000000000000000000000000000000000000000000000000000000000000000)]"
      ],
      "transaction": {
        "from": "0x0990be6db8c785fbbf9ded8baec612a10cae814b",
        "to": "0x3a73033c0b1407574c76bdbac67f126f6b4a9aa9",
        "gas": "0x36be0",
        "value": "0x0",
        "input": "0x6dbd9f9000000000000000000000000090581eca9469d8d7f5d3b60f4715027adfcf79270000000000000000000000007cacbe439ead55fa1c22790330b12835c6884a91000000000000000000000000000000000000000000000000000000000000006000000000000000000000000000000000000000000000000000000000000000010000000000000000000000000000000000000000000000000000000000000020000000000000000000000000000000000000000000000000000000000000762f0000000000000000000000000000000000000000000000000000000000000002000000000000000000000000000000000000000000000000000000000000006000000000000000000000000000000000000000000000000000000000000001800000000000000000000000000000000000000000000000000000000000000020000000000000000000000000000000000000000000000000000000000000000000000000000000000000000000000000000000000000000000000000000000030000000000000000000000000000000000000000000000000000000000000000000000000000000000000000000000000000000000000000000000000000000000000000000000000000000000000000000000000000000000000000000000c000000000000000000000000000000000000000000000000000000000000001400000000000000000000000000000000000000000000000000000000000000003000000000000000000000000082a08f524c043ec7f6b9a42bae79a1990d8499a000000000000000000000000bb83ecf372cbb6daa629ea9a9a53bec6d601f229000000000000000000000000c097ab8cd7b053326dfe9fb3e3a31a0cce3b526f0000000000000000000000000000000000000000000000000000000000000000",
        "nonce": "0x17",
        "chainId": "0x3e7"
      },
      "additionalContracts": [],
      "isFixedGasLimit": false
    },
    {
      "hash": "0x4934a102ccbf5136136a7ef95f669faa04d9a28d7ea0619de4817a7f95ff16c4",
      "transactionType": "CALL",
      "contractName": "EndpointV2",
      "contractAddress": "0x3a73033c0b1407574c76bdbac67f126f6b4a9aa9",
      "function": "setSendLibrary(address,uint32,address)",
      "arguments": [
        "0x64445f0aecC51E94aD52d8AC56b7190e764E561a",
        "30255",
        "0xfd76d9CB0Bac839725aB79127E7411fe71b1e3CA"
      ],
      "transaction": {
        "from": "0x0990be6db8c785fbbf9ded8baec612a10cae814b",
        "to": "0x3a73033c0b1407574c76bdbac67f126f6b4a9aa9",
        "gas": "0x1378b",
        "value": "0x0",
        "input": "0x9535ff3000000000000000000000000064445f0aecc51e94ad52d8ac56b7190e764e561a000000000000000000000000000000000000000000000000000000000000762f000000000000000000000000fd76d9cb0bac839725ab79127e7411fe71b1e3ca",
        "nonce": "0x18",
        "chainId": "0x3e7"
      },
      "additionalContracts": [],
      "isFixedGasLimit": false
    },
    {
      "hash": "0x954d346009f1c5ce1dfb10769f1b935e9bc6fce2690581f2d01bae3e710aaa30",
      "transactionType": "CALL",
      "contractName": "EndpointV2",
      "contractAddress": "0x3a73033c0b1407574c76bdbac67f126f6b4a9aa9",
      "function": "setReceiveLibrary(address,uint32,address,uint256)",
      "arguments": [
        "0x64445f0aecC51E94aD52d8AC56b7190e764E561a",
        "30255",
        "0x7cacBe439EaD55fa1c22790330b12835c6884a91",
        "0"
      ],
      "transaction": {
        "from": "0x0990be6db8c785fbbf9ded8baec612a10cae814b",
        "to": "0x3a73033c0b1407574c76bdbac67f126f6b4a9aa9",
        "gas": "0x17001",
        "value": "0x0",
        "input": "0x6a14d71500000000000000000000000064445f0aecc51e94ad52d8ac56b7190e764e561a000000000000000000000000000000000000000000000000000000000000762f0000000000000000000000007cacbe439ead55fa1c22790330b12835c6884a910000000000000000000000000000000000000000000000000000000000000000",
        "nonce": "0x19",
        "chainId": "0x3e7"
      },
      "additionalContracts": [],
      "isFixedGasLimit": false
    },
    {
      "hash": "0x9421458fb0e9ddfdc59ee9fdd0b35e454a3df222d394c2f1c74d7041b021b509",
      "transactionType": "CALL",
      "contractName": "EndpointV2",
      "contractAddress": "0x3a73033c0b1407574c76bdbac67f126f6b4a9aa9",
      "function": "setSendLibrary(address,uint32,address)",
      "arguments": [
        "0x5Bff88cA1442c2496f7E475E9e7786383Bc070c0",
        "30255",
        "0xfd76d9CB0Bac839725aB79127E7411fe71b1e3CA"
      ],
      "transaction": {
        "from": "0x0990be6db8c785fbbf9ded8baec612a10cae814b",
        "to": "0x3a73033c0b1407574c76bdbac67f126f6b4a9aa9",
        "gas": "0x1378b",
        "value": "0x0",
        "input": "0x9535ff300000000000000000000000005bff88ca1442c2496f7e475e9e7786383bc070c0000000000000000000000000000000000000000000000000000000000000762f000000000000000000000000fd76d9cb0bac839725ab79127e7411fe71b1e3ca",
        "nonce": "0x1a",
        "chainId": "0x3e7"
      },
      "additionalContracts": [],
      "isFixedGasLimit": false
    },
    {
      "hash": "0x2a59242ace168f702feebfa25e372f2c74f084d9005eff127aa0234bb20aeb39",
      "transactionType": "CALL",
      "contractName": "EndpointV2",
      "contractAddress": "0x3a73033c0b1407574c76bdbac67f126f6b4a9aa9",
      "function": "setReceiveLibrary(address,uint32,address,uint256)",
      "arguments": [
        "0x5Bff88cA1442c2496f7E475E9e7786383Bc070c0",
        "30255",
        "0x7cacBe439EaD55fa1c22790330b12835c6884a91",
        "0"
      ],
      "transaction": {
        "from": "0x0990be6db8c785fbbf9ded8baec612a10cae814b",
        "to": "0x3a73033c0b1407574c76bdbac67f126f6b4a9aa9",
        "gas": "0x17001",
        "value": "0x0",
        "input": "0x6a14d7150000000000000000000000005bff88ca1442c2496f7e475e9e7786383bc070c0000000000000000000000000000000000000000000000000000000000000762f0000000000000000000000007cacbe439ead55fa1c22790330b12835c6884a910000000000000000000000000000000000000000000000000000000000000000",
        "nonce": "0x1b",
        "chainId": "0x3e7"
      },
      "additionalContracts": [],
      "isFixedGasLimit": false
    },
    {
      "hash": "0xea116187898e3c987f0a999f6ce049633934ab320d62c4a3259a660ac39e8b02",
      "transactionType": "CALL",
      "contractName": "EndpointV2",
      "contractAddress": "0x3a73033c0b1407574c76bdbac67f126f6b4a9aa9",
      "function": "setSendLibrary(address,uint32,address)",
      "arguments": [
        "0x3Ec3849C33291a9eF4c5dB86De593EB4A37fDe45",
        "30255",
        "0xfd76d9CB0Bac839725aB79127E7411fe71b1e3CA"
      ],
      "transaction": {
        "from": "0x0990be6db8c785fbbf9ded8baec612a10cae814b",
        "to": "0x3a73033c0b1407574c76bdbac67f126f6b4a9aa9",
        "gas": "0x1378b",
        "value": "0x0",
        "input": "0x9535ff300000000000000000000000003ec3849c33291a9ef4c5db86de593eb4a37fde45000000000000000000000000000000000000000000000000000000000000762f000000000000000000000000fd76d9cb0bac839725ab79127e7411fe71b1e3ca",
        "nonce": "0x1c",
        "chainId": "0x3e7"
      },
      "additionalContracts": [],
      "isFixedGasLimit": false
    },
    {
      "hash": "0xdc27bc98a0a281e2c6df8de530f4a2e52ece7e61ddfc5c3833ff639a9b106055",
      "transactionType": "CALL",
      "contractName": "EndpointV2",
      "contractAddress": "0x3a73033c0b1407574c76bdbac67f126f6b4a9aa9",
      "function": "setReceiveLibrary(address,uint32,address,uint256)",
      "arguments": [
        "0x3Ec3849C33291a9eF4c5dB86De593EB4A37fDe45",
        "30255",
        "0x7cacBe439EaD55fa1c22790330b12835c6884a91",
        "0"
      ],
      "transaction": {
        "from": "0x0990be6db8c785fbbf9ded8baec612a10cae814b",
        "to": "0x3a73033c0b1407574c76bdbac67f126f6b4a9aa9",
        "gas": "0x17001",
        "value": "0x0",
        "input": "0x6a14d7150000000000000000000000003ec3849c33291a9ef4c5db86de593eb4a37fde45000000000000000000000000000000000000000000000000000000000000762f0000000000000000000000007cacbe439ead55fa1c22790330b12835c6884a910000000000000000000000000000000000000000000000000000000000000000",
        "nonce": "0x1d",
        "chainId": "0x3e7"
      },
      "additionalContracts": [],
      "isFixedGasLimit": false
    },
    {
      "hash": "0x4d55dee1bd8fe9bd9ffabca86d8dbafd8063406a54486716f854a37f423d208d",
      "transactionType": "CALL",
      "contractName": "EndpointV2",
      "contractAddress": "0x3a73033c0b1407574c76bdbac67f126f6b4a9aa9",
      "function": "setSendLibrary(address,uint32,address)",
      "arguments": [
        "0x80Eede496655FB9047dd39d9f418d5483ED600df",
        "30255",
        "0xfd76d9CB0Bac839725aB79127E7411fe71b1e3CA"
      ],
      "transaction": {
        "from": "0x0990be6db8c785fbbf9ded8baec612a10cae814b",
        "to": "0x3a73033c0b1407574c76bdbac67f126f6b4a9aa9",
        "gas": "0x149cd",
        "value": "0x0",
        "input": "0x9535ff3000000000000000000000000080eede496655fb9047dd39d9f418d5483ed600df000000000000000000000000000000000000000000000000000000000000762f000000000000000000000000fd76d9cb0bac839725ab79127e7411fe71b1e3ca",
        "nonce": "0x1e",
        "chainId": "0x3e7"
      },
      "additionalContracts": [],
      "isFixedGasLimit": false
    },
    {
      "hash": "0x0e21939d33089c9d1ff97ed77252d22afc86107e6a10f334896a03558a1b4d90",
      "transactionType": "CALL",
      "contractName": "EndpointV2",
      "contractAddress": "0x3a73033c0b1407574c76bdbac67f126f6b4a9aa9",
      "function": "setReceiveLibrary(address,uint32,address,uint256)",
      "arguments": [
        "0x80Eede496655FB9047dd39d9f418d5483ED600df",
        "30255",
        "0x7cacBe439EaD55fa1c22790330b12835c6884a91",
        "0"
      ],
      "transaction": {
        "from": "0x0990be6db8c785fbbf9ded8baec612a10cae814b",
        "to": "0x3a73033c0b1407574c76bdbac67f126f6b4a9aa9",
        "gas": "0x15b7f",
        "value": "0x0",
        "input": "0x6a14d71500000000000000000000000080eede496655fb9047dd39d9f418d5483ed600df000000000000000000000000000000000000000000000000000000000000762f0000000000000000000000007cacbe439ead55fa1c22790330b12835c6884a910000000000000000000000000000000000000000000000000000000000000000",
        "nonce": "0x1f",
        "chainId": "0x3e7"
      },
      "additionalContracts": [],
      "isFixedGasLimit": false
    },
    {
      "hash": "0xa1b009f8477b4600347074ddbab8556da2c880a05486985be8bacb8ee3f6b6f6",
      "transactionType": "CALL",
      "contractName": "EndpointV2",
      "contractAddress": "0x3a73033c0b1407574c76bdbac67f126f6b4a9aa9",
      "function": "setSendLibrary(address,uint32,address)",
      "arguments": [
        "0x43eDD7f3831b08FE70B7555ddD373C8bF65a9050",
        "30255",
        "0xfd76d9CB0Bac839725aB79127E7411fe71b1e3CA"
      ],
      "transaction": {
        "from": "0x0990be6db8c785fbbf9ded8baec612a10cae814b",
        "to": "0x3a73033c0b1407574c76bdbac67f126f6b4a9aa9",
        "gas": "0x1378b",
        "value": "0x0",
        "input": "0x9535ff3000000000000000000000000043edd7f3831b08fe70b7555ddd373c8bf65a9050000000000000000000000000000000000000000000000000000000000000762f000000000000000000000000fd76d9cb0bac839725ab79127e7411fe71b1e3ca",
        "nonce": "0x20",
        "chainId": "0x3e7"
      },
      "additionalContracts": [],
      "isFixedGasLimit": false
    },
    {
      "hash": "0xc1b45415924eeeae68f530b190e8fb8b93816fbaf7a8d76694d1a5715613a0af",
      "transactionType": "CALL",
      "contractName": "EndpointV2",
      "contractAddress": "0x3a73033c0b1407574c76bdbac67f126f6b4a9aa9",
      "function": "setReceiveLibrary(address,uint32,address,uint256)",
      "arguments": [
        "0x43eDD7f3831b08FE70B7555ddD373C8bF65a9050",
        "30255",
        "0x7cacBe439EaD55fa1c22790330b12835c6884a91",
        "0"
      ],
      "transaction": {
        "from": "0x0990be6db8c785fbbf9ded8baec612a10cae814b",
        "to": "0x3a73033c0b1407574c76bdbac67f126f6b4a9aa9",
        "gas": "0x17001",
        "value": "0x0",
        "input": "0x6a14d71500000000000000000000000043edd7f3831b08fe70b7555ddd373c8bf65a9050000000000000000000000000000000000000000000000000000000000000762f0000000000000000000000007cacbe439ead55fa1c22790330b12835c6884a910000000000000000000000000000000000000000000000000000000000000000",
        "nonce": "0x21",
        "chainId": "0x3e7"
      },
      "additionalContracts": [],
      "isFixedGasLimit": false
    },
    {
      "hash": "0xbc84ca815a0d5b137c6f7ae2d5b7f65357efd3995b1b49bc1052369e15f828c7",
      "transactionType": "CALL",
      "contractName": "EndpointV2",
      "contractAddress": "0x3a73033c0b1407574c76bdbac67f126f6b4a9aa9",
      "function": "setSendLibrary(address,uint32,address)",
      "arguments": [
        "0x90581eCa9469D8D7F5D3B60f4715027aDFCf7927",
        "30255",
        "0xfd76d9CB0Bac839725aB79127E7411fe71b1e3CA"
      ],
      "transaction": {
        "from": "0x0990be6db8c785fbbf9ded8baec612a10cae814b",
        "to": "0x3a73033c0b1407574c76bdbac67f126f6b4a9aa9",
        "gas": "0x1378b",
        "value": "0x0",
        "input": "0x9535ff3000000000000000000000000090581eca9469d8d7f5d3b60f4715027adfcf7927000000000000000000000000000000000000000000000000000000000000762f000000000000000000000000fd76d9cb0bac839725ab79127e7411fe71b1e3ca",
        "nonce": "0x22",
        "chainId": "0x3e7"
      },
      "additionalContracts": [],
      "isFixedGasLimit": false
    },
    {
      "hash": "0x87f8537a52c31517f59e52d4c3650dfcb307a97036e793715fa815b274b2f778",
      "transactionType": "CALL",
      "contractName": "EndpointV2",
      "contractAddress": "0x3a73033c0b1407574c76bdbac67f126f6b4a9aa9",
      "function": "setReceiveLibrary(address,uint32,address,uint256)",
      "arguments": [
        "0x90581eCa9469D8D7F5D3B60f4715027aDFCf7927",
        "30255",
        "0x7cacBe439EaD55fa1c22790330b12835c6884a91",
        "0"
      ],
      "transaction": {
        "from": "0x0990be6db8c785fbbf9ded8baec612a10cae814b",
        "to": "0x3a73033c0b1407574c76bdbac67f126f6b4a9aa9",
        "gas": "0x17001",
        "value": "0x0",
        "input": "0x6a14d71500000000000000000000000090581eca9469d8d7f5d3b60f4715027adfcf7927000000000000000000000000000000000000000000000000000000000000762f0000000000000000000000007cacbe439ead55fa1c22790330b12835c6884a910000000000000000000000000000000000000000000000000000000000000000",
        "nonce": "0x23",
        "chainId": "0x3e7"
      },
      "additionalContracts": [],
      "isFixedGasLimit": false
    },
    {
      "hash": "0x29ddfc63f8623478b10e21ddd47418613a93a8cb26dfb524ecbd0e94de91dcbe",
      "transactionType": "CALL",
      "contractName": null,
      "contractAddress": "0x64445f0aecc51e94ad52d8ac56b7190e764e561a",
      "function": "setDelegate(address)",
      "arguments": [
        "0x738ee62157f127C879Ff5c4B7102Eb0d166C7a6d"
      ],
      "transaction": {
        "from": "0x0990be6db8c785fbbf9ded8baec612a10cae814b",
        "to": "0x64445f0aecc51e94ad52d8ac56b7190e764e561a",
        "gas": "0xea99",
        "value": "0x0",
        "input": "0xca5eb5e1000000000000000000000000738ee62157f127c879ff5c4b7102eb0d166c7a6d",
        "nonce": "0x24",
        "chainId": "0x3e7"
      },
      "additionalContracts": [],
      "isFixedGasLimit": false
    },
    {
      "hash": "0xa0627990b067d0196ac96438149d6c1c779b2c9dc5ec0dbdedb3729718a52606",
      "transactionType": "CALL",
      "contractName": null,
      "contractAddress": "0x64445f0aecc51e94ad52d8ac56b7190e764e561a",
      "function": "transferOwnership(address)",
      "arguments": [
        "0x738ee62157f127C879Ff5c4B7102Eb0d166C7a6d"
      ],
      "transaction": {
        "from": "0x0990be6db8c785fbbf9ded8baec612a10cae814b",
        "to": "0x64445f0aecc51e94ad52d8ac56b7190e764e561a",
        "gas": "0xc1df",
        "value": "0x0",
        "input": "0xf2fde38b000000000000000000000000738ee62157f127c879ff5c4b7102eb0d166c7a6d",
        "nonce": "0x25",
        "chainId": "0x3e7"
      },
      "additionalContracts": [],
      "isFixedGasLimit": false
    },
    {
      "hash": "0x5f7235d4e9232d73a2186bc6ba0c8b794e7a1355af6b0f94bd0258715557a322",
      "transactionType": "CALL",
      "contractName": null,
      "contractAddress": "0x5bff88ca1442c2496f7e475e9e7786383bc070c0",
      "function": "setDelegate(address)",
      "arguments": [
        "0x738ee62157f127C879Ff5c4B7102Eb0d166C7a6d"
      ],
      "transaction": {
        "from": "0x0990be6db8c785fbbf9ded8baec612a10cae814b",
        "to": "0x5bff88ca1442c2496f7e475e9e7786383bc070c0",
        "gas": "0xea99",
        "value": "0x0",
        "input": "0xca5eb5e1000000000000000000000000738ee62157f127c879ff5c4b7102eb0d166c7a6d",
        "nonce": "0x26",
        "chainId": "0x3e7"
      },
      "additionalContracts": [],
      "isFixedGasLimit": false
    },
    {
      "hash": "0x2c9437d08dac14f3690fae50c54287eef57f3d4aea0867b508afb93aa7061b08",
      "transactionType": "CALL",
      "contractName": null,
      "contractAddress": "0x5bff88ca1442c2496f7e475e9e7786383bc070c0",
      "function": "transferOwnership(address)",
      "arguments": [
        "0x738ee62157f127C879Ff5c4B7102Eb0d166C7a6d"
      ],
      "transaction": {
        "from": "0x0990be6db8c785fbbf9ded8baec612a10cae814b",
        "to": "0x5bff88ca1442c2496f7e475e9e7786383bc070c0",
        "gas": "0xc1df",
        "value": "0x0",
        "input": "0xf2fde38b000000000000000000000000738ee62157f127c879ff5c4b7102eb0d166c7a6d",
        "nonce": "0x27",
        "chainId": "0x3e7"
      },
      "additionalContracts": [],
      "isFixedGasLimit": false
    },
    {
      "hash": "0xb7f6c734f6d757765970445b474853526abb5712527071f1df3c97c2ffcad21e",
      "transactionType": "CALL",
      "contractName": null,
      "contractAddress": "0x3ec3849c33291a9ef4c5db86de593eb4a37fde45",
      "function": "setDelegate(address)",
      "arguments": [
        "0x738ee62157f127C879Ff5c4B7102Eb0d166C7a6d"
      ],
      "transaction": {
        "from": "0x0990be6db8c785fbbf9ded8baec612a10cae814b",
        "to": "0x3ec3849c33291a9ef4c5db86de593eb4a37fde45",
        "gas": "0xea99",
        "value": "0x0",
        "input": "0xca5eb5e1000000000000000000000000738ee62157f127c879ff5c4b7102eb0d166c7a6d",
        "nonce": "0x28",
        "chainId": "0x3e7"
      },
      "additionalContracts": [],
      "isFixedGasLimit": false
    },
    {
      "hash": "0x945faa39d207428c12be92b2a0783d184bc84fc1f6dccdd87cf3928d537f0676",
      "transactionType": "CALL",
      "contractName": null,
      "contractAddress": "0x3ec3849c33291a9ef4c5db86de593eb4a37fde45",
      "function": "transferOwnership(address)",
      "arguments": [
        "0x738ee62157f127C879Ff5c4B7102Eb0d166C7a6d"
      ],
      "transaction": {
        "from": "0x0990be6db8c785fbbf9ded8baec612a10cae814b",
        "to": "0x3ec3849c33291a9ef4c5db86de593eb4a37fde45",
        "gas": "0xc1df",
        "value": "0x0",
        "input": "0xf2fde38b000000000000000000000000738ee62157f127c879ff5c4b7102eb0d166c7a6d",
        "nonce": "0x29",
        "chainId": "0x3e7"
      },
      "additionalContracts": [],
      "isFixedGasLimit": false
    },
    {
      "hash": "0xb7c19f551fbb63a42d2e7c8136cb73f6ba3c79cdb29e1401907a1eea0b5c68ed",
      "transactionType": "CALL",
      "contractName": null,
      "contractAddress": "0x80eede496655fb9047dd39d9f418d5483ed600df",
      "function": "setDelegate(address)",
      "arguments": [
        "0x738ee62157f127C879Ff5c4B7102Eb0d166C7a6d"
      ],
      "transaction": {
        "from": "0x0990be6db8c785fbbf9ded8baec612a10cae814b",
        "to": "0x80eede496655fb9047dd39d9f418d5483ed600df",
        "gas": "0xea99",
        "value": "0x0",
        "input": "0xca5eb5e1000000000000000000000000738ee62157f127c879ff5c4b7102eb0d166c7a6d",
        "nonce": "0x2a",
        "chainId": "0x3e7"
      },
      "additionalContracts": [],
      "isFixedGasLimit": false
    },
    {
      "hash": "0x712a8cf6b1534da3e0e098d1b4155dea1cadc6b8803bc6023731ca1eb1588185",
      "transactionType": "CALL",
      "contractName": null,
      "contractAddress": "0x80eede496655fb9047dd39d9f418d5483ed600df",
      "function": "transferOwnership(address)",
      "arguments": [
        "0x738ee62157f127C879Ff5c4B7102Eb0d166C7a6d"
      ],
      "transaction": {
        "from": "0x0990be6db8c785fbbf9ded8baec612a10cae814b",
        "to": "0x80eede496655fb9047dd39d9f418d5483ed600df",
        "gas": "0xc1df",
        "value": "0x0",
        "input": "0xf2fde38b000000000000000000000000738ee62157f127c879ff5c4b7102eb0d166c7a6d",
        "nonce": "0x2b",
        "chainId": "0x3e7"
      },
      "additionalContracts": [],
      "isFixedGasLimit": false
    },
    {
      "hash": "0xd4f964da1d22aa66b0ac5980d8960359ce5bb04a5983dea5292ba7ebfb0cdf5b",
      "transactionType": "CALL",
      "contractName": null,
      "contractAddress": "0x43edd7f3831b08fe70b7555ddd373c8bf65a9050",
      "function": "setDelegate(address)",
      "arguments": [
        "0x738ee62157f127C879Ff5c4B7102Eb0d166C7a6d"
      ],
      "transaction": {
        "from": "0x0990be6db8c785fbbf9ded8baec612a10cae814b",
        "to": "0x43edd7f3831b08fe70b7555ddd373c8bf65a9050",
        "gas": "0xea99",
        "value": "0x0",
        "input": "0xca5eb5e1000000000000000000000000738ee62157f127c879ff5c4b7102eb0d166c7a6d",
        "nonce": "0x2c",
        "chainId": "0x3e7"
      },
      "additionalContracts": [],
      "isFixedGasLimit": false
    },
    {
      "hash": "0x68251054e946dd7e0becc70a637dea682b14e9b2ac4ca058598c7c0801008ffe",
      "transactionType": "CALL",
      "contractName": null,
      "contractAddress": "0x43edd7f3831b08fe70b7555ddd373c8bf65a9050",
      "function": "transferOwnership(address)",
      "arguments": [
        "0x738ee62157f127C879Ff5c4B7102Eb0d166C7a6d"
      ],
      "transaction": {
        "from": "0x0990be6db8c785fbbf9ded8baec612a10cae814b",
        "to": "0x43edd7f3831b08fe70b7555ddd373c8bf65a9050",
        "gas": "0xc1df",
        "value": "0x0",
        "input": "0xf2fde38b000000000000000000000000738ee62157f127c879ff5c4b7102eb0d166c7a6d",
        "nonce": "0x2d",
        "chainId": "0x3e7"
      },
      "additionalContracts": [],
      "isFixedGasLimit": false
    },
    {
      "hash": "0xf796f04e6296f7d866ae32c05a6b96566125551dc9b992e026cd4247a75cc8c8",
      "transactionType": "CALL",
      "contractName": null,
      "contractAddress": "0x90581eca9469d8d7f5d3b60f4715027adfcf7927",
      "function": "setDelegate(address)",
      "arguments": [
        "0x738ee62157f127C879Ff5c4B7102Eb0d166C7a6d"
      ],
      "transaction": {
        "from": "0x0990be6db8c785fbbf9ded8baec612a10cae814b",
        "to": "0x90581eca9469d8d7f5d3b60f4715027adfcf7927",
        "gas": "0xea99",
        "value": "0x0",
        "input": "0xca5eb5e1000000000000000000000000738ee62157f127c879ff5c4b7102eb0d166c7a6d",
        "nonce": "0x2e",
        "chainId": "0x3e7"
      },
      "additionalContracts": [],
      "isFixedGasLimit": false
    },
    {
      "hash": "0x0d76ff134f32da92ec0c74a73aa43da5bf4b42637128558e495210c14f262641",
      "transactionType": "CALL",
      "contractName": null,
      "contractAddress": "0x90581eca9469d8d7f5d3b60f4715027adfcf7927",
      "function": "transferOwnership(address)",
      "arguments": [
        "0x738ee62157f127C879Ff5c4B7102Eb0d166C7a6d"
      ],
      "transaction": {
        "from": "0x0990be6db8c785fbbf9ded8baec612a10cae814b",
        "to": "0x90581eca9469d8d7f5d3b60f4715027adfcf7927",
        "gas": "0xc1df",
        "value": "0x0",
        "input": "0xf2fde38b000000000000000000000000738ee62157f127c879ff5c4b7102eb0d166c7a6d",
        "nonce": "0x2f",
        "chainId": "0x3e7"
      },
      "additionalContracts": [],
      "isFixedGasLimit": false
    },
    {
      "hash": "0x8456141586aa8a2861d4ec62d0b32b605674439720a99f06f1edbf89e3e21fa7",
      "transactionType": "CALL",
      "contractName": null,
      "contractAddress": "0x223a681fc5c5522c85c96157c0efa18cd6c5405c",
      "function": "transferOwnership(address)",
      "arguments": [
        "0x738ee62157f127C879Ff5c4B7102Eb0d166C7a6d"
      ],
      "transaction": {
        "from": "0x0990be6db8c785fbbf9ded8baec612a10cae814b",
        "to": "0x223a681fc5c5522c85c96157c0efa18cd6c5405c",
        "gas": "0x9a4d",
        "value": "0x0",
        "input": "0xf2fde38b000000000000000000000000738ee62157f127c879ff5c4b7102eb0d166c7a6d",
        "nonce": "0x30",
        "chainId": "0x3e7"
      },
      "additionalContracts": [],
      "isFixedGasLimit": false
    }
  ],
  "receipts": [
    {
      "status": "0x1",
      "cumulativeGasUsed": "0x4a760",
      "logs": [
        {
          "address": "0x64445f0aecc51e94ad52d8ac56b7190e764e561a",
          "topics": [
            "0xbe4864a8e820971c0247f5992e2da559595f7bf076a21cb5928d443d2a13b674"
          ],
          "data": "0x00000000000000000000000000000000000000000000000000000000000000200000000000000000000000000000000000000000000000000000000000000002000000000000000000000000000000000000000000000000000000000000004000000000000000000000000000000000000000000000000000000000000000e0000000000000000000000000000000000000000000000000000000000000762f00000000000000000000000000000000000000000000000000000000000000010000000000000000000000000000000000000000000000000000000000000060000000000000000000000000000000000000000000000000000000000000001600030100110100000000000000000000000000030d4000000000000000000000000000000000000000000000000000000000000000000000000000000000762f0000000000000000000000000000000000000000000000000000000000000002000000000000000000000000000000000000000000000000000000000000006000000000000000000000000000000000000000000000000000000000000000160003010011010000000000000000000000000003d09000000000000000000000",
          "blockHash": "0x29c92fb5807b9dee7ada6111ef43687186c67acbc8a4ea49ed7302514b028bd2",
          "blockNumber": "0xda057a",
          "blockTimestamp": "0x68cda164",
          "transactionHash": "0x5f933121ed637f0a6d791f92954dc8a941618cb0fa74e0e5ea9d2dfc2267f8b0",
          "transactionIndex": "0x1",
          "logIndex": "0x7",
          "removed": false
        }
      ],
      "logsBloom": "0x00000000000000000000000000000000000000000000000000000000000000000000000000000000000000000000000000000000000000000000400000000000002000000000000000000000000000000000000000000000000000000000000000000000000000000000000000000000000000000000000000000000000000000000000000000000000000000000000000000000000000000000000000080000000000000000000000000008000000000000000000000000000000000000000000000000000000000000000002000000000000000000000000000000000000000000000000000000000000000000000000000008000000000000000000000000",
      "type": "0x2",
      "transactionHash": "0x5f933121ed637f0a6d791f92954dc8a941618cb0fa74e0e5ea9d2dfc2267f8b0",
      "transactionIndex": "0x1",
      "blockHash": "0x29c92fb5807b9dee7ada6111ef43687186c67acbc8a4ea49ed7302514b028bd2",
      "blockNumber": "0xda057a",
      "gasUsed": "0x15722",
      "effectiveGasPrice": "0x5f5e101",
      "from": "0x0990be6db8c785fbbf9ded8baec612a10cae814b",
      "to": "0x64445f0aecc51e94ad52d8ac56b7190e764e561a",
      "contractAddress": null
    },
    {
      "status": "0x1",
      "cumulativeGasUsed": "0x6adc2",
      "logs": [
        {
          "address": "0x5bff88ca1442c2496f7e475e9e7786383bc070c0",
          "topics": [
            "0xbe4864a8e820971c0247f5992e2da559595f7bf076a21cb5928d443d2a13b674"
          ],
          "data": "0x00000000000000000000000000000000000000000000000000000000000000200000000000000000000000000000000000000000000000000000000000000002000000000000000000000000000000000000000000000000000000000000004000000000000000000000000000000000000000000000000000000000000000e0000000000000000000000000000000000000000000000000000000000000762f00000000000000000000000000000000000000000000000000000000000000010000000000000000000000000000000000000000000000000000000000000060000000000000000000000000000000000000000000000000000000000000001600030100110100000000000000000000000000030d4000000000000000000000000000000000000000000000000000000000000000000000000000000000762f0000000000000000000000000000000000000000000000000000000000000002000000000000000000000000000000000000000000000000000000000000006000000000000000000000000000000000000000000000000000000000000000160003010011010000000000000000000000000003d09000000000000000000000",
          "blockHash": "0x893abcccc71d65b61d24d698733c2b30998ea82b067348039232e9a2c783d4a1",
          "blockNumber": "0xda05b7",
          "blockTimestamp": "0x68cda1a0",
          "transactionHash": "0x9881f9e309463a04ed5d33a7ababcccb76d54e9b77b01146f529b0022f0f636f",
          "transactionIndex": "0x3",
          "logIndex": "0x4",
          "removed": false
        }
      ],
      "logsBloom": "0x00000000000000000000000000000000000000000000000000000000000000000000000000000000000000000000000000000000000000000000400000000000000000000000000000000000000000000000000000000000000000000000000000000000000000000000000000000000000000000000000000000000000000000000000000000000000000000000000000000000000000000000000000080000000000000000000000000000000000000000000000000000000000000010000000000000000000000000000002000000000000800000000000000000000000000000000000000000000000000000000000000000000000000000000000000800",
      "type": "0x2",
      "transactionHash": "0x9881f9e309463a04ed5d33a7ababcccb76d54e9b77b01146f529b0022f0f636f",
      "transactionIndex": "0x3",
      "blockHash": "0x893abcccc71d65b61d24d698733c2b30998ea82b067348039232e9a2c783d4a1",
      "blockNumber": "0xda05b7",
      "gasUsed": "0x15722",
      "effectiveGasPrice": "0x5f5e101",
      "from": "0x0990be6db8c785fbbf9ded8baec612a10cae814b",
      "to": "0x5bff88ca1442c2496f7e475e9e7786383bc070c0",
      "contractAddress": null
    },
    {
      "status": "0x1",
      "cumulativeGasUsed": "0x46b55b",
      "logs": [
        {
          "address": "0x3ec3849c33291a9ef4c5db86de593eb4a37fde45",
          "topics": [
            "0xbe4864a8e820971c0247f5992e2da559595f7bf076a21cb5928d443d2a13b674"
          ],
          "data": "0x00000000000000000000000000000000000000000000000000000000000000200000000000000000000000000000000000000000000000000000000000000002000000000000000000000000000000000000000000000000000000000000004000000000000000000000000000000000000000000000000000000000000000e0000000000000000000000000000000000000000000000000000000000000762f00000000000000000000000000000000000000000000000000000000000000010000000000000000000000000000000000000000000000000000000000000060000000000000000000000000000000000000000000000000000000000000001600030100110100000000000000000000000000030d4000000000000000000000000000000000000000000000000000000000000000000000000000000000762f0000000000000000000000000000000000000000000000000000000000000002000000000000000000000000000000000000000000000000000000000000006000000000000000000000000000000000000000000000000000000000000000160003010011010000000000000000000000000003d09000000000000000000000",
          "blockHash": "0x47c0878cb6ec0d42df525ac1a04d1cc7c1b24010d7cb5add8bed98b4079c1b2b",
          "blockNumber": "0xda05f4",
          "blockTimestamp": "0x68cda1dc",
          "transactionHash": "0x6e72da5f1d3454811c94df0accd3eb4b3e82aa9cbbae94cb62a66f010928f537",
          "transactionIndex": "0x3",
          "logIndex": "0x9",
          "removed": false
        }
      ],
      "logsBloom": "0x00000000000000000000000000002000000000000000000000000000000000000000000000000000000000000000000000000000000000000000400000000000000000000000000000000000000000000000000000000000000000000000000000000000000000000000000000000000000000000000000000000000000000000000000000000000000000000000000000000000000020000040000000080000000000000000000000000000000000000000000000000000000000000000000000000000000000000000000002000000000000000000000000000000000000000000000000000000000000000000000000000000000000000000000000000000",
      "type": "0x2",
      "transactionHash": "0x6e72da5f1d3454811c94df0accd3eb4b3e82aa9cbbae94cb62a66f010928f537",
      "transactionIndex": "0x3",
      "blockHash": "0x47c0878cb6ec0d42df525ac1a04d1cc7c1b24010d7cb5add8bed98b4079c1b2b",
      "blockNumber": "0xda05f4",
      "gasUsed": "0x15722",
      "effectiveGasPrice": "0x5f5e101",
      "from": "0x0990be6db8c785fbbf9ded8baec612a10cae814b",
      "to": "0x3ec3849c33291a9ef4c5db86de593eb4a37fde45",
      "contractAddress": null
    },
    {
      "status": "0x1",
      "cumulativeGasUsed": "0x1d47da",
      "logs": [
        {
          "address": "0x80eede496655fb9047dd39d9f418d5483ed600df",
          "topics": [
            "0xbe4864a8e820971c0247f5992e2da559595f7bf076a21cb5928d443d2a13b674"
          ],
          "data": "0x00000000000000000000000000000000000000000000000000000000000000200000000000000000000000000000000000000000000000000000000000000002000000000000000000000000000000000000000000000000000000000000004000000000000000000000000000000000000000000000000000000000000000e0000000000000000000000000000000000000000000000000000000000000762f00000000000000000000000000000000000000000000000000000000000000010000000000000000000000000000000000000000000000000000000000000060000000000000000000000000000000000000000000000000000000000000001600030100110100000000000000000000000000030d4000000000000000000000000000000000000000000000000000000000000000000000000000000000762f0000000000000000000000000000000000000000000000000000000000000002000000000000000000000000000000000000000000000000000000000000006000000000000000000000000000000000000000000000000000000000000000160003010011010000000000000000000000000003d09000000000000000000000",
          "blockHash": "0x1181a5ae28b81fcfb5fa968447b6dccd6c68d7a711c94a617899d139ee7f94f0",
          "blockNumber": "0xda0631",
          "blockTimestamp": "0x68cda218",
          "transactionHash": "0xffbd3bea5d37f814c53c1380e03f5cd00db910b3729c71ce857613edaee3f9f3",
          "transactionIndex": "0x6",
          "logIndex": "0x69",
          "removed": false
        }
      ],
      "logsBloom": "0x00000000000000000000000000000000000000000000000000000000000000000000000000000000000000000800000000000000000000000000400200000000000000000000000000000000000000000000000000000000000000000000000000000000000000000000000000000000000000000000000000000000010000000000000000000000000000000000000000000000000000000000000000080000000000000000000000000000000000000000000000000000000000000000000000000000000000000000000002000000000000000000000000000000000000000000000000000000000000000000000000000000000000000000000000000000",
      "type": "0x2",
      "transactionHash": "0xffbd3bea5d37f814c53c1380e03f5cd00db910b3729c71ce857613edaee3f9f3",
      "transactionIndex": "0x6",
      "blockHash": "0x1181a5ae28b81fcfb5fa968447b6dccd6c68d7a711c94a617899d139ee7f94f0",
      "blockNumber": "0xda0631",
      "gasUsed": "0x15722",
      "effectiveGasPrice": "0x5f5e101",
      "from": "0x0990be6db8c785fbbf9ded8baec612a10cae814b",
      "to": "0x80eede496655fb9047dd39d9f418d5483ed600df",
      "contractAddress": null
    },
    {
      "status": "0x1",
      "cumulativeGasUsed": "0x1a92a",
      "logs": [
        {
          "address": "0x43edd7f3831b08fe70b7555ddd373c8bf65a9050",
          "topics": [
            "0xbe4864a8e820971c0247f5992e2da559595f7bf076a21cb5928d443d2a13b674"
          ],
          "data": "0x00000000000000000000000000000000000000000000000000000000000000200000000000000000000000000000000000000000000000000000000000000002000000000000000000000000000000000000000000000000000000000000004000000000000000000000000000000000000000000000000000000000000000e0000000000000000000000000000000000000000000000000000000000000762f00000000000000000000000000000000000000000000000000000000000000010000000000000000000000000000000000000000000000000000000000000060000000000000000000000000000000000000000000000000000000000000001600030100110100000000000000000000000000030d4000000000000000000000000000000000000000000000000000000000000000000000000000000000762f0000000000000000000000000000000000000000000000000000000000000002000000000000000000000000000000000000000000000000000000000000006000000000000000000000000000000000000000000000000000000000000000160003010011010000000000000000000000000003d09000000000000000000000",
          "blockHash": "0xb0d735c982cfa5eb7e9f41e12cfc893dd1b54a42135456151266e7e740c0743b",
          "blockNumber": "0xda066e",
          "blockTimestamp": "0x68cda254",
          "transactionHash": "0x54e611d46cb3d88c43c4e218665c16fc18dce0f5c4dd0e73c8e638c40caca717",
          "transactionIndex": "0x1",
          "logIndex": "0x0",
          "removed": false
        }
      ],
      "logsBloom": "0x00000000000000000000000000000000000000000000000000000000000000000000000000000000000000000000000000000000000000000000400000000000000000000000000000000000000000000000000000000000000000000000000000000000000000000000000000000000000000000000000000000000000000000000000000000000000000000000000000000000000000000000000000080000000000000000000002000000000000000000000000000000000000000000000000000000000000000000000002000000000000000000000000000000000000000000000000000000000000040000000000000000000000000000000000080000",
      "type": "0x2",
      "transactionHash": "0x54e611d46cb3d88c43c4e218665c16fc18dce0f5c4dd0e73c8e638c40caca717",
      "transactionIndex": "0x1",
      "blockHash": "0xb0d735c982cfa5eb7e9f41e12cfc893dd1b54a42135456151266e7e740c0743b",
      "blockNumber": "0xda066e",
      "gasUsed": "0x15722",
      "effectiveGasPrice": "0x5f5e101",
      "from": "0x0990be6db8c785fbbf9ded8baec612a10cae814b",
      "to": "0x43edd7f3831b08fe70b7555ddd373c8bf65a9050",
      "contractAddress": null
    },
    {
      "status": "0x1",
      "cumulativeGasUsed": "0x12ae5e",
      "logs": [
        {
          "address": "0x90581eca9469d8d7f5d3b60f4715027adfcf7927",
          "topics": [
            "0xbe4864a8e820971c0247f5992e2da559595f7bf076a21cb5928d443d2a13b674"
          ],
          "data": "0x00000000000000000000000000000000000000000000000000000000000000200000000000000000000000000000000000000000000000000000000000000002000000000000000000000000000000000000000000000000000000000000004000000000000000000000000000000000000000000000000000000000000000e0000000000000000000000000000000000000000000000000000000000000762f00000000000000000000000000000000000000000000000000000000000000010000000000000000000000000000000000000000000000000000000000000060000000000000000000000000000000000000000000000000000000000000001600030100110100000000000000000000000000030d4000000000000000000000000000000000000000000000000000000000000000000000000000000000762f0000000000000000000000000000000000000000000000000000000000000002000000000000000000000000000000000000000000000000000000000000006000000000000000000000000000000000000000000000000000000000000000160003010011010000000000000000000000000003d09000000000000000000000",
          "blockHash": "0x9e025368df3dfae0fee83a0f44cb7cf1c7a44e419a840354d795b39c92365eb6",
          "blockNumber": "0xda06ab",
          "blockTimestamp": "0x68cda290",
          "transactionHash": "0xd7876b95d67525381ecd5a06683140ce48f048f515a9fa453ae18a34895b8e83",
          "transactionIndex": "0x2",
          "logIndex": "0x8",
          "removed": false
        }
      ],
      "logsBloom": "0x00000000000000000000000000000000000000000000000000000000000000000000000000000000000000000000000000000000000000000000400000000000000000000000000000000000000000000000000000000000000000000000000000000000000000000000000000000000000000000000000000000000000000000000000000000004000010000000000000000000000000000000000000080000000000000000000000000000000000000000000000000000000000000000000000000000000000000000000002000000000000000000000000000000000000000000000000000000000000000000000000400000000000000000000000000000",
      "type": "0x2",
      "transactionHash": "0xd7876b95d67525381ecd5a06683140ce48f048f515a9fa453ae18a34895b8e83",
      "transactionIndex": "0x2",
      "blockHash": "0x9e025368df3dfae0fee83a0f44cb7cf1c7a44e419a840354d795b39c92365eb6",
      "blockNumber": "0xda06ab",
      "gasUsed": "0x15722",
      "effectiveGasPrice": "0x5f5e101",
      "from": "0x0990be6db8c785fbbf9ded8baec612a10cae814b",
      "to": "0x90581eca9469d8d7f5d3b60f4715027adfcf7927",
      "contractAddress": null
    },
    {
      "status": "0x1",
      "cumulativeGasUsed": "0xb9b13",
      "logs": [
        {
          "address": "0x64445f0aecc51e94ad52d8ac56b7190e764e561a",
          "topics": [
            "0x238399d427b947898edb290f5ff0f9109849b1c3ba196a42e35f00c50a54b98b"
          ],
          "data": "0x000000000000000000000000000000000000000000000000000000000000762f000000000000000000000000d86fbbd0c8715d2c1f40e451e5c3514e65e7576a",
          "blockHash": "0x24e434b17efa74da37e855a70c14a69b6aed7146d011af5de88dc06e8ea2b7bc",
          "blockNumber": "0xda06e8",
          "blockTimestamp": "0x68cda2cc",
          "transactionHash": "0x192f8208348c29249fd9268b2729ae04cdea26961283ea9749c69190e8fb0935",
          "transactionIndex": "0x2",
          "logIndex": "0x18",
          "removed": false
        }
      ],
      "logsBloom": "0x00000000000000000000000000000000000000000000000000000000000000000000000000000000000000000000000000000000000000000800000000000000002000000000000000000000000000000000000000000000000000000000000000000000000000000000000000000000000000000000000000000000000000000000000000000000000000000000000000000000000000000000000000000000000000000000000000000008000000000000000000000000000002000000000000000000000000000000000000000000000000000000000000040000000000000000000000000000000000000000000000000008000000000000000000000000",
      "type": "0x2",
      "transactionHash": "0x192f8208348c29249fd9268b2729ae04cdea26961283ea9749c69190e8fb0935",
      "transactionIndex": "0x2",
      "blockHash": "0x24e434b17efa74da37e855a70c14a69b6aed7146d011af5de88dc06e8ea2b7bc",
      "blockNumber": "0xda06e8",
      "gasUsed": "0xd6e3",
      "effectiveGasPrice": "0x5f5e101",
      "from": "0x0990be6db8c785fbbf9ded8baec612a10cae814b",
      "to": "0x64445f0aecc51e94ad52d8ac56b7190e764e561a",
      "contractAddress": null
    },
    {
      "status": "0x1",
      "cumulativeGasUsed": "0x5d864",
      "logs": [
        {
          "address": "0x5bff88ca1442c2496f7e475e9e7786383bc070c0",
          "topics": [
            "0x238399d427b947898edb290f5ff0f9109849b1c3ba196a42e35f00c50a54b98b"
          ],
          "data": "0x000000000000000000000000000000000000000000000000000000000000762f00000000000000000000000088aa7854d3b2daa5e37e7ce73a1f39669623a361",
          "blockHash": "0x35dc629ab75d19c1393b518a5fe7a8c64f5c30d309bcf8dbfa346f8edbd9acf5",
          "blockNumber": "0xda0725",
          "blockTimestamp": "0x68cda308",
          "transactionHash": "0x003d5bbb31be873e20eed751ef08647f253adaba76656df459b61534860576a0",
          "transactionIndex": "0x5",
          "logIndex": "0x7",
          "removed": false
        }
      ],
      "logsBloom": "0x00000000000000000000000000000000000000000000000000000000000000000000000000000000000000000000000000000000000000000800000000000000000000000000000000000000000000000000000000000000000000000000000000000000000000000000000000000000000000000000000000000000000000000000000000000000000000000000000000000000000000000000000000000000000000000000000000000000000000000000000000000000000002000010000000000000000000000000000000000000000000800000000000040000000000000000000000000000000000000000000000000000000000000000000000000800",
      "type": "0x2",
      "transactionHash": "0x003d5bbb31be873e20eed751ef08647f253adaba76656df459b61534860576a0",
      "transactionIndex": "0x5",
      "blockHash": "0x35dc629ab75d19c1393b518a5fe7a8c64f5c30d309bcf8dbfa346f8edbd9acf5",
      "blockNumber": "0xda0725",
      "gasUsed": "0xd6e3",
      "effectiveGasPrice": "0x5f5e101",
      "from": "0x0990be6db8c785fbbf9ded8baec612a10cae814b",
      "to": "0x5bff88ca1442c2496f7e475e9e7786383bc070c0",
      "contractAddress": null
    },
    {
      "status": "0x1",
      "cumulativeGasUsed": "0x425655",
      "logs": [
        {
          "address": "0x3ec3849c33291a9ef4c5db86de593eb4a37fde45",
          "topics": [
            "0x238399d427b947898edb290f5ff0f9109849b1c3ba196a42e35f00c50a54b98b"
          ],
          "data": "0x000000000000000000000000000000000000000000000000000000000000762f000000000000000000000000999dfabe3b1cc2ef66eb032eea42fea329bba168",
          "blockHash": "0xfdebf3373a5c3911d1e8485288cc2e71c4f0049063b2ea64825ea57c81dfdef3",
          "blockNumber": "0xda0762",
          "blockTimestamp": "0x68cda344",
          "transactionHash": "0xf2ecb5b6b013f0abbe1761059bf54ecd029e9bc4b383b0a93cf82874fa0967ba",
          "transactionIndex": "0xd",
          "logIndex": "0xbc",
          "removed": false
        }
      ],
      "logsBloom": "0x00000000000000000000000000002000000000000000000000000000000000000000000000000000000000000000000000000000000000000800000000000000000000000000000000000000000000000000000000000000000000000000000000000000000000000000000000000000000000000000000000000000000000000000000000000000000000000000000000000000000020000040000000000000000000000000000000000000000000000000000000000000000002000000000000000000000000000000000000000000000000000000000000040000000000000000000000000000000000000000000000000000000000000000000000000000",
      "type": "0x2",
      "transactionHash": "0xf2ecb5b6b013f0abbe1761059bf54ecd029e9bc4b383b0a93cf82874fa0967ba",
      "transactionIndex": "0xd",
      "blockHash": "0xfdebf3373a5c3911d1e8485288cc2e71c4f0049063b2ea64825ea57c81dfdef3",
      "blockNumber": "0xda0762",
      "gasUsed": "0xd6e3",
      "effectiveGasPrice": "0x5f5e101",
      "from": "0x0990be6db8c785fbbf9ded8baec612a10cae814b",
      "to": "0x3ec3849c33291a9ef4c5db86de593eb4a37fde45",
      "contractAddress": null
    },
    {
      "status": "0x1",
      "cumulativeGasUsed": "0x1addb9",
      "logs": [
        {
          "address": "0x80eede496655fb9047dd39d9f418d5483ed600df",
          "topics": [
            "0x238399d427b947898edb290f5ff0f9109849b1c3ba196a42e35f00c50a54b98b"
          ],
          "data": "0x000000000000000000000000000000000000000000000000000000000000762f00000000000000000000000096a394058e2b84a89bac9667b19661ed003cf5d4",
          "blockHash": "0x4ca246b1518f02240bbcbe0216c7d90bf350a8818a786bdd2ceb7ec3a79c1a42",
          "blockNumber": "0xda079f",
          "blockTimestamp": "0x68cda380",
          "transactionHash": "0x7efff65ff64262b12ead15b798e1f87439d6f5cf11f885c00490748644eedce5",
          "transactionIndex": "0x6",
          "logIndex": "0x11",
          "removed": false
        }
      ],
      "logsBloom": "0x00000000000000000000000000000000000000000000000000000000000000000000000000000000000000000800000000000000000000000800000200000000000000000000000000000000000000000000000000000000000000000000000000000000000000000000000000000000000000000000000000000000010000000000000000000000000000000000000000000000000000000000000000000000000000000000000000000000000000000000000000000000000002000000000000000000000000000000000000000000000000000000000000040000000000000000000000000000000000000000000000000000000000000000000000000000",
      "type": "0x2",
      "transactionHash": "0x7efff65ff64262b12ead15b798e1f87439d6f5cf11f885c00490748644eedce5",
      "transactionIndex": "0x6",
      "blockHash": "0x4ca246b1518f02240bbcbe0216c7d90bf350a8818a786bdd2ceb7ec3a79c1a42",
      "blockNumber": "0xda079f",
      "gasUsed": "0xd6d7",
      "effectiveGasPrice": "0x5f5e101",
      "from": "0x0990be6db8c785fbbf9ded8baec612a10cae814b",
      "to": "0x80eede496655fb9047dd39d9f418d5483ed600df",
      "contractAddress": null
    },
    {
      "status": "0x1",
      "cumulativeGasUsed": "0xf0ed4",
      "logs": [
        {
          "address": "0x43edd7f3831b08fe70b7555ddd373c8bf65a9050",
          "topics": [
            "0x238399d427b947898edb290f5ff0f9109849b1c3ba196a42e35f00c50a54b98b"
          ],
          "data": "0x000000000000000000000000000000000000000000000000000000000000762f0000000000000000000000009abfe1f8a999b0011ecd6116649aee8d575f5604",
          "blockHash": "0xf933f5ede8eeb3ee56a6156e96ad4934bad9144084f881b87d10f835d60359ea",
          "blockNumber": "0xda07dc",
          "blockTimestamp": "0x68cda3bc",
          "transactionHash": "0x55e227a808ba5c3d9a64963b2ca60a90e32e5262ae916bcaa0cdd7c1b34e91b8",
          "transactionIndex": "0x3",
          "logIndex": "0x22",
          "removed": false
        }
      ],
      "logsBloom": "0x00000000000000000000000000000000000000000000000000000000000000000000000000000000000000000000000000000000000000000800000000000000000000000000000000000000000000000000000000000000000000000000000000000000000000000000000000000000000000000000000000000000000000000000000000000000000000000000000000000000000000000000000000000000000000000000000002000000000000000000000000000000000002000000000000000000000000000000000000000000000000000000000000040000000000000000000000000000000000040000000000000000000000000000000000080000",
      "type": "0x2",
      "transactionHash": "0x55e227a808ba5c3d9a64963b2ca60a90e32e5262ae916bcaa0cdd7c1b34e91b8",
      "transactionIndex": "0x3",
      "blockHash": "0xf933f5ede8eeb3ee56a6156e96ad4934bad9144084f881b87d10f835d60359ea",
      "blockNumber": "0xda07dc",
      "gasUsed": "0xd6e3",
      "effectiveGasPrice": "0x5f5e101",
      "from": "0x0990be6db8c785fbbf9ded8baec612a10cae814b",
      "to": "0x43edd7f3831b08fe70b7555ddd373c8bf65a9050",
      "contractAddress": null
    },
    {
      "status": "0x1",
      "cumulativeGasUsed": "0x9d592",
      "logs": [
        {
          "address": "0x90581eca9469d8d7f5d3b60f4715027adfcf7927",
          "topics": [
            "0x238399d427b947898edb290f5ff0f9109849b1c3ba196a42e35f00c50a54b98b"
          ],
          "data": "0x000000000000000000000000000000000000000000000000000000000000762f00000000000000000000000075c38d46001b0f8108c4136216bd2694982c20fc",
          "blockHash": "0xa95cce10d5241fb6cc87ed0d2b173f0c6876b45681dd28e7a0ed8fe353304769",
          "blockNumber": "0xda0819",
          "blockTimestamp": "0x68cda3f8",
          "transactionHash": "0xe7c6116b0859b5660c0d953a755fa55f906e3de3339ed3d9be82252966188df8",
          "transactionIndex": "0x4",
          "logIndex": "0x4",
          "removed": false
        }
      ],
      "logsBloom": "0x00000000000000000000000000000000000000000000000000000000000000000000000000000000000000000000000000000000000000000800000000000000000000000000000000000000000000000000000000000000000000000000000000000000000000000000000000000000000000000000000000000000000000000000000000000004000010000000000000000000000000000000000000000000000000000000000000000000000000000000000000000000000002000000000000000000000000000000000000000000000000000000000000040000000000000000000000000000000000000000000000400000000000000000000000000000",
      "type": "0x2",
      "transactionHash": "0xe7c6116b0859b5660c0d953a755fa55f906e3de3339ed3d9be82252966188df8",
      "transactionIndex": "0x4",
      "blockHash": "0xa95cce10d5241fb6cc87ed0d2b173f0c6876b45681dd28e7a0ed8fe353304769",
      "blockNumber": "0xda0819",
      "gasUsed": "0xd6d7",
      "effectiveGasPrice": "0x5f5e101",
      "from": "0x0990be6db8c785fbbf9ded8baec612a10cae814b",
      "to": "0x90581eca9469d8d7f5d3b60f4715027adfcf7927",
      "contractAddress": null
    },
    {
      "status": "0x1",
      "cumulativeGasUsed": "0x5055f",
      "logs": [
        {
          "address": "0xfd76d9cb0bac839725ab79127e7411fe71b1e3ca",
          "topics": [
            "0x82118522aa536ac0e96cc5c689407ae42b89d592aa133890a01f1509842f5081"
          ],
          "data": "0x00000000000000000000000064445f0aecc51e94ad52d8ac56b7190e764e561a000000000000000000000000000000000000000000000000000000000000762f0000000000000000000000000000000000000000000000000000000000000060000000000000000000000000000000000000000000000000000000000000000000000000000000000000000000000000000000000000000000000000000000030000000000000000000000000000000000000000000000000000000000000000000000000000000000000000000000000000000000000000000000000000000000000000000000000000000000000000000000000000000000000000000000c000000000000000000000000000000000000000000000000000000000000001400000000000000000000000000000000000000000000000000000000000000003000000000000000000000000082a08f524c043ec7f6b9a42bae79a1990d8499a000000000000000000000000bb83ecf372cbb6daa629ea9a9a53bec6d601f229000000000000000000000000c097ab8cd7b053326dfe9fb3e3a31a0cce3b526f0000000000000000000000000000000000000000000000000000000000000000",
          "blockHash": "0x10f9fc285847a8124f4eddd622bab496c97c3a299f9555e75569f201cc8f8e84",
          "blockNumber": "0xda0856",
          "blockTimestamp": "0x68cda434",
          "transactionHash": "0xd9b5fc4df8fd3eb52003946eb70d637bbfa1ed578d6879c88f892dc2e64cb4d3",
          "transactionIndex": "0x5",
          "logIndex": "0x2",
          "removed": false
        }
      ],
      "logsBloom": "0x00000000000000000000000000000000000000000000000000000000000000000000000000000000000000000000000000000000000000000000000000000000000000000000000000000000000004000000000000000000002000000000000000000000000000010000000000000000000000000000000000000000000000000000000000000000000000000000000000000000000000000000000000000000000000000000000000000002000000000000000000000000000000000000000000000000000000000000000000000000000000000000000800000000000000000000000000000000000000000000000000000000000000000000000000000010",
      "type": "0x2",
      "transactionHash": "0xd9b5fc4df8fd3eb52003946eb70d637bbfa1ed578d6879c88f892dc2e64cb4d3",
      "transactionIndex": "0x5",
      "blockHash": "0x10f9fc285847a8124f4eddd622bab496c97c3a299f9555e75569f201cc8f8e84",
      "blockNumber": "0xda0856",
      "gasUsed": "0x27b15",
      "effectiveGasPrice": "0x5f5e101",
      "from": "0x0990be6db8c785fbbf9ded8baec612a10cae814b",
      "to": "0x3a73033c0b1407574c76bdbac67f126f6b4a9aa9",
      "contractAddress": null
    },
    {
      "status": "0x1",
      "cumulativeGasUsed": "0xf7fa3",
      "logs": [
        {
          "address": "0x7cacbe439ead55fa1c22790330b12835c6884a91",
          "topics": [
            "0x82118522aa536ac0e96cc5c689407ae42b89d592aa133890a01f1509842f5081"
          ],
          "data": "0x00000000000000000000000064445f0aecc51e94ad52d8ac56b7190e764e561a000000000000000000000000000000000000000000000000000000000000762f0000000000000000000000000000000000000000000000000000000000000060000000000000000000000000000000000000000000000000000000000000000000000000000000000000000000000000000000000000000000000000000000030000000000000000000000000000000000000000000000000000000000000000000000000000000000000000000000000000000000000000000000000000000000000000000000000000000000000000000000000000000000000000000000c000000000000000000000000000000000000000000000000000000000000001400000000000000000000000000000000000000000000000000000000000000003000000000000000000000000082a08f524c043ec7f6b9a42bae79a1990d8499a000000000000000000000000bb83ecf372cbb6daa629ea9a9a53bec6d601f229000000000000000000000000c097ab8cd7b053326dfe9fb3e3a31a0cce3b526f0000000000000000000000000000000000000000000000000000000000000000",
          "blockHash": "0xc254e76e5cb700d182166485a49c325981319a76ab1efef0f16ab12dbea62726",
          "blockNumber": "0xda0893",
          "blockTimestamp": "0x68cda470",
          "transactionHash": "0xe5613f11493c54bdae65da50d30c966999d527a82e49bb1e257a8fa07674590c",
          "transactionIndex": "0x5",
          "logIndex": "0x11",
          "removed": false
        }
      ],
      "logsBloom": "0x00000000000000000000000000000000000000000000000000000000000000000000000000000000000000000000000000000000000000000000000000000000000000000000000000000000000000000000000000000000002000000000000000000000000000000000000000000000000000000000000000000000000000000000000000000000000000000000000000000000000000000000000000040000000000000000000000000002000000000000000000000000000000000000000000000000000000000000000000000000000000000000000000000000000000000000000000000400000000000000000000000000000000000000000000000018",
      "type": "0x2",
      "transactionHash": "0xe5613f11493c54bdae65da50d30c966999d527a82e49bb1e257a8fa07674590c",
      "transactionIndex": "0x5",
      "blockHash": "0xc254e76e5cb700d182166485a49c325981319a76ab1efef0f16ab12dbea62726",
      "blockNumber": "0xda0893",
      "gasUsed": "0x27a1f",
      "effectiveGasPrice": "0x5f5e101",
      "from": "0x0990be6db8c785fbbf9ded8baec612a10cae814b",
      "to": "0x3a73033c0b1407574c76bdbac67f126f6b4a9aa9",
      "contractAddress": null
    },
    {
      "status": "0x1",
      "cumulativeGasUsed": "0x1db8cf",
      "logs": [
        {
          "address": "0xfd76d9cb0bac839725ab79127e7411fe71b1e3ca",
          "topics": [
            "0x82118522aa536ac0e96cc5c689407ae42b89d592aa133890a01f1509842f5081"
          ],
          "data": "0x0000000000000000000000005bff88ca1442c2496f7e475e9e7786383bc070c0000000000000000000000000000000000000000000000000000000000000762f0000000000000000000000000000000000000000000000000000000000000060000000000000000000000000000000000000000000000000000000000000000000000000000000000000000000000000000000000000000000000000000000030000000000000000000000000000000000000000000000000000000000000000000000000000000000000000000000000000000000000000000000000000000000000000000000000000000000000000000000000000000000000000000000c000000000000000000000000000000000000000000000000000000000000001400000000000000000000000000000000000000000000000000000000000000003000000000000000000000000082a08f524c043ec7f6b9a42bae79a1990d8499a000000000000000000000000bb83ecf372cbb6daa629ea9a9a53bec6d601f229000000000000000000000000c097ab8cd7b053326dfe9fb3e3a31a0cce3b526f0000000000000000000000000000000000000000000000000000000000000000",
          "blockHash": "0xce9c2897d6af366edd60bdcc5fd2dae62cadd8d0e00be65e683a74868d13fa66",
          "blockNumber": "0xda08d0",
          "blockTimestamp": "0x68cda4ac",
          "transactionHash": "0x89fdc4bfc6d5ee8efe530ea074e196427c9d4fc6a665b73486630de1007f321b",
          "transactionIndex": "0x7",
          "logIndex": "0x73",
          "removed": false
        }
      ],
      "logsBloom": "0x00000000000000000000000000000000000000000000000000000000000000000000000000000000000000000000000000000000000000000000000000000000000000000000000000000000000004000000000000000000002000000000000000000000000000010000000000000000000000000000000000000000000000000000000000000000000000000000000000000000000000000000000000000000000000000000000000000002000000000000000000000000000000000000000000000000000000000000000000000000000000000000000800000000000000000000000000000000000000000000000000000000000000000000000000000010",
      "type": "0x2",
      "transactionHash": "0x89fdc4bfc6d5ee8efe530ea074e196427c9d4fc6a665b73486630de1007f321b",
      "transactionIndex": "0x7",
      "blockHash": "0xce9c2897d6af366edd60bdcc5fd2dae62cadd8d0e00be65e683a74868d13fa66",
      "blockNumber": "0xda08d0",
      "gasUsed": "0x27b15",
      "effectiveGasPrice": "0x5f5e101",
      "from": "0x0990be6db8c785fbbf9ded8baec612a10cae814b",
      "to": "0x3a73033c0b1407574c76bdbac67f126f6b4a9aa9",
      "contractAddress": null
    },
    {
      "status": "0x1",
      "cumulativeGasUsed": "0x236fdf",
      "logs": [
        {
          "address": "0x7cacbe439ead55fa1c22790330b12835c6884a91",
          "topics": [
            "0x82118522aa536ac0e96cc5c689407ae42b89d592aa133890a01f1509842f5081"
          ],
          "data": "0x0000000000000000000000005bff88ca1442c2496f7e475e9e7786383bc070c0000000000000000000000000000000000000000000000000000000000000762f0000000000000000000000000000000000000000000000000000000000000060000000000000000000000000000000000000000000000000000000000000000000000000000000000000000000000000000000000000000000000000000000030000000000000000000000000000000000000000000000000000000000000000000000000000000000000000000000000000000000000000000000000000000000000000000000000000000000000000000000000000000000000000000000c000000000000000000000000000000000000000000000000000000000000001400000000000000000000000000000000000000000000000000000000000000003000000000000000000000000082a08f524c043ec7f6b9a42bae79a1990d8499a000000000000000000000000bb83ecf372cbb6daa629ea9a9a53bec6d601f229000000000000000000000000c097ab8cd7b053326dfe9fb3e3a31a0cce3b526f0000000000000000000000000000000000000000000000000000000000000000",
          "blockHash": "0x1f6ef1a4854d49d49c7c10a782521597f11976e77023b02d8d440cbec6cfe501",
          "blockNumber": "0xda090d",
          "blockTimestamp": "0x68cda4e8",
          "transactionHash": "0xf1f8fcb1710af5bf53b8ff57892c56172ceed808b0d37292f8e9bf2917e371ce",
          "transactionIndex": "0x3",
          "logIndex": "0x44",
          "removed": false
        }
      ],
      "logsBloom": "0x00000000000000000000000000000000000000000000000000000000000000000000000000000000000000000000000000000000000000000000000000000000000000000000000000000000000000000000000000000000002000000000000000000000000000000000000000000000000000000000000000000000000000000000000000000000000000000000000000000000000000000000000000040000000000000000000000000002000000000000000000000000000000000000000000000000000000000000000000000000000000000000000000000000000000000000000000000400000000000000000000000000000000000000000000000018",
      "type": "0x2",
      "transactionHash": "0xf1f8fcb1710af5bf53b8ff57892c56172ceed808b0d37292f8e9bf2917e371ce",
      "transactionIndex": "0x3",
      "blockHash": "0x1f6ef1a4854d49d49c7c10a782521597f11976e77023b02d8d440cbec6cfe501",
      "blockNumber": "0xda090d",
      "gasUsed": "0x27a1f",
      "effectiveGasPrice": "0x5f5e101",
      "from": "0x0990be6db8c785fbbf9ded8baec612a10cae814b",
      "to": "0x3a73033c0b1407574c76bdbac67f126f6b4a9aa9",
      "contractAddress": null
    },
    {
      "status": "0x1",
      "cumulativeGasUsed": "0xf9ce3",
      "logs": [
        {
          "address": "0xfd76d9cb0bac839725ab79127e7411fe71b1e3ca",
          "topics": [
            "0x82118522aa536ac0e96cc5c689407ae42b89d592aa133890a01f1509842f5081"
          ],
          "data": "0x0000000000000000000000003ec3849c33291a9ef4c5db86de593eb4a37fde45000000000000000000000000000000000000000000000000000000000000762f0000000000000000000000000000000000000000000000000000000000000060000000000000000000000000000000000000000000000000000000000000000000000000000000000000000000000000000000000000000000000000000000030000000000000000000000000000000000000000000000000000000000000000000000000000000000000000000000000000000000000000000000000000000000000000000000000000000000000000000000000000000000000000000000c000000000000000000000000000000000000000000000000000000000000001400000000000000000000000000000000000000000000000000000000000000003000000000000000000000000082a08f524c043ec7f6b9a42bae79a1990d8499a000000000000000000000000bb83ecf372cbb6daa629ea9a9a53bec6d601f229000000000000000000000000c097ab8cd7b053326dfe9fb3e3a31a0cce3b526f0000000000000000000000000000000000000000000000000000000000000000",
          "blockHash": "0x592a5042c2989d5e4298a08ec47c09faf2494b4a06a2b78ce700f3ec738b05f3",
          "blockNumber": "0xda094a",
          "blockTimestamp": "0x68cda524",
          "transactionHash": "0x3373662309413b81187cf29c38577ec2d87c6a6a96496b359d8d8ec16215f3d4",
          "transactionIndex": "0x3",
          "logIndex": "0x17",
          "removed": false
        }
      ],
      "logsBloom": "0x00000000000000000000000000000000000000000000000000000000000000000000000000000000000000000000000000000000000000000000000000000000000000000000000000000000000004000000000000000000002000000000000000000000000000010000000000000000000000000000000000000000000000000000000000000000000000000000000000000000000000000000000000000000000000000000000000000002000000000000000000000000000000000000000000000000000000000000000000000000000000000000000800000000000000000000000000000000000000000000000000000000000000000000000000000010",
      "type": "0x2",
      "transactionHash": "0x3373662309413b81187cf29c38577ec2d87c6a6a96496b359d8d8ec16215f3d4",
      "transactionIndex": "0x3",
      "blockHash": "0x592a5042c2989d5e4298a08ec47c09faf2494b4a06a2b78ce700f3ec738b05f3",
      "blockNumber": "0xda094a",
      "gasUsed": "0x27b15",
      "effectiveGasPrice": "0x5f5e101",
      "from": "0x0990be6db8c785fbbf9ded8baec612a10cae814b",
      "to": "0x3a73033c0b1407574c76bdbac67f126f6b4a9aa9",
      "contractAddress": null
    },
    {
      "status": "0x1",
      "cumulativeGasUsed": "0x60a1c",
      "logs": [
        {
          "address": "0x7cacbe439ead55fa1c22790330b12835c6884a91",
          "topics": [
            "0x82118522aa536ac0e96cc5c689407ae42b89d592aa133890a01f1509842f5081"
          ],
          "data": "0x0000000000000000000000003ec3849c33291a9ef4c5db86de593eb4a37fde45000000000000000000000000000000000000000000000000000000000000762f0000000000000000000000000000000000000000000000000000000000000060000000000000000000000000000000000000000000000000000000000000000000000000000000000000000000000000000000000000000000000000000000030000000000000000000000000000000000000000000000000000000000000000000000000000000000000000000000000000000000000000000000000000000000000000000000000000000000000000000000000000000000000000000000c000000000000000000000000000000000000000000000000000000000000001400000000000000000000000000000000000000000000000000000000000000003000000000000000000000000082a08f524c043ec7f6b9a42bae79a1990d8499a000000000000000000000000bb83ecf372cbb6daa629ea9a9a53bec6d601f229000000000000000000000000c097ab8cd7b053326dfe9fb3e3a31a0cce3b526f0000000000000000000000000000000000000000000000000000000000000000",
          "blockHash": "0x64f5dadc20b44edd0d99a45210ba978b842ec0b693bf7844b77c9246da80e05d",
          "blockNumber": "0xda0987",
          "blockTimestamp": "0x68cda560",
          "transactionHash": "0x42e3508375b920840fca4d0701448b142aa390931bcaf8019af7dd47924a7bd2",
          "transactionIndex": "0x1",
          "logIndex": "0x7",
          "removed": false
        }
      ],
      "logsBloom": "0x00000000000000000000000000000000000000000000000000000000000000000000000000000000000000000000000000000000000000000000000000000000000000000000000000000000000000000000000000000000002000000000000000000000000000000000000000000000000000000000000000000000000000000000000000000000000000000000000000000000000000000000000000040000000000000000000000000002000000000000000000000000000000000000000000000000000000000000000000000000000000000000000000000000000000000000000000000400000000000000000000000000000000000000000000000018",
      "type": "0x2",
      "transactionHash": "0x42e3508375b920840fca4d0701448b142aa390931bcaf8019af7dd47924a7bd2",
      "transactionIndex": "0x1",
      "blockHash": "0x64f5dadc20b44edd0d99a45210ba978b842ec0b693bf7844b77c9246da80e05d",
      "blockNumber": "0xda0987",
      "gasUsed": "0x27a1f",
      "effectiveGasPrice": "0x5f5e101",
      "from": "0x0990be6db8c785fbbf9ded8baec612a10cae814b",
      "to": "0x3a73033c0b1407574c76bdbac67f126f6b4a9aa9",
      "contractAddress": null
    },
    {
      "status": "0x1",
      "cumulativeGasUsed": "0x27b09",
      "logs": [
        {
          "address": "0xfd76d9cb0bac839725ab79127e7411fe71b1e3ca",
          "topics": [
            "0x82118522aa536ac0e96cc5c689407ae42b89d592aa133890a01f1509842f5081"
          ],
          "data": "0x00000000000000000000000080eede496655fb9047dd39d9f418d5483ed600df000000000000000000000000000000000000000000000000000000000000762f0000000000000000000000000000000000000000000000000000000000000060000000000000000000000000000000000000000000000000000000000000000000000000000000000000000000000000000000000000000000000000000000030000000000000000000000000000000000000000000000000000000000000000000000000000000000000000000000000000000000000000000000000000000000000000000000000000000000000000000000000000000000000000000000c000000000000000000000000000000000000000000000000000000000000001400000000000000000000000000000000000000000000000000000000000000003000000000000000000000000082a08f524c043ec7f6b9a42bae79a1990d8499a000000000000000000000000bb83ecf372cbb6daa629ea9a9a53bec6d601f229000000000000000000000000c097ab8cd7b053326dfe9fb3e3a31a0cce3b526f0000000000000000000000000000000000000000000000000000000000000000",
          "blockHash": "0x2a8766a97b332341eafcaad0aa94f07f9e4cbcb110118cb89dc44a073810350b",
          "blockNumber": "0xda09c4",
          "blockTimestamp": "0x68cda59c",
          "transactionHash": "0x0b5b0302c413296ff3f56c06ff350e874232ef6cb60417649e5d5039d3db0c83",
          "transactionIndex": "0x0",
          "logIndex": "0x0",
          "removed": false
        }
      ],
      "logsBloom": "0x00000000000000000000000000000000000000000000000000000000000000000000000000000000000000000000000000000000000000000000000000000000000000000000000000000000000004000000000000000000002000000000000000000000000000010000000000000000000000000000000000000000000000000000000000000000000000000000000000000000000000000000000000000000000000000000000000000002000000000000000000000000000000000000000000000000000000000000000000000000000000000000000800000000000000000000000000000000000000000000000000000000000000000000000000000010",
      "type": "0x2",
      "transactionHash": "0x0b5b0302c413296ff3f56c06ff350e874232ef6cb60417649e5d5039d3db0c83",
      "transactionIndex": "0x0",
      "blockHash": "0x2a8766a97b332341eafcaad0aa94f07f9e4cbcb110118cb89dc44a073810350b",
      "blockNumber": "0xda09c4",
      "gasUsed": "0x27b09",
      "effectiveGasPrice": "0x5f5e101",
      "from": "0x0990be6db8c785fbbf9ded8baec612a10cae814b",
      "to": "0x3a73033c0b1407574c76bdbac67f126f6b4a9aa9",
      "contractAddress": null
    },
    {
      "status": "0x1",
      "cumulativeGasUsed": "0x333a53",
      "logs": [
        {
          "address": "0x7cacbe439ead55fa1c22790330b12835c6884a91",
          "topics": [
            "0x82118522aa536ac0e96cc5c689407ae42b89d592aa133890a01f1509842f5081"
          ],
          "data": "0x00000000000000000000000080eede496655fb9047dd39d9f418d5483ed600df000000000000000000000000000000000000000000000000000000000000762f0000000000000000000000000000000000000000000000000000000000000060000000000000000000000000000000000000000000000000000000000000000000000000000000000000000000000000000000000000000000000000000000030000000000000000000000000000000000000000000000000000000000000000000000000000000000000000000000000000000000000000000000000000000000000000000000000000000000000000000000000000000000000000000000c000000000000000000000000000000000000000000000000000000000000001400000000000000000000000000000000000000000000000000000000000000003000000000000000000000000082a08f524c043ec7f6b9a42bae79a1990d8499a000000000000000000000000bb83ecf372cbb6daa629ea9a9a53bec6d601f229000000000000000000000000c097ab8cd7b053326dfe9fb3e3a31a0cce3b526f0000000000000000000000000000000000000000000000000000000000000000",
          "blockHash": "0x72ee5cc4827af76520bfc0984e33001908f9b30b2be6e2a92f9cb44181220223",
          "blockNumber": "0xda0a01",
          "blockTimestamp": "0x68cda5d8",
          "transactionHash": "0xd3aa611f4f57766806dd7dd50bceed0fa8684abecd30d67645c0a510856edc2b",
          "transactionIndex": "0x8",
          "logIndex": "0xa4",
          "removed": false
        }
      ],
      "logsBloom": "0x00000000000000000000000000000000000000000000000000000000000000000000000000000000000000000000000000000000000000000000000000000000000000000000000000000000000000000000000000000000002000000000000000000000000000000000000000000000000000000000000000000000000000000000000000000000000000000000000000000000000000000000000000040000000000000000000000000002000000000000000000000000000000000000000000000000000000000000000000000000000000000000000000000000000000000000000000000400000000000000000000000000000000000000000000000018",
      "type": "0x2",
      "transactionHash": "0xd3aa611f4f57766806dd7dd50bceed0fa8684abecd30d67645c0a510856edc2b",
      "transactionIndex": "0x8",
      "blockHash": "0x72ee5cc4827af76520bfc0984e33001908f9b30b2be6e2a92f9cb44181220223",
      "blockNumber": "0xda0a01",
      "gasUsed": "0x27a13",
      "effectiveGasPrice": "0x5f5e101",
      "from": "0x0990be6db8c785fbbf9ded8baec612a10cae814b",
      "to": "0x3a73033c0b1407574c76bdbac67f126f6b4a9aa9",
      "contractAddress": null
    },
    {
      "status": "0x1",
      "cumulativeGasUsed": "0x4652c",
      "logs": [
        {
          "address": "0xfd76d9cb0bac839725ab79127e7411fe71b1e3ca",
          "topics": [
            "0x82118522aa536ac0e96cc5c689407ae42b89d592aa133890a01f1509842f5081"
          ],
          "data": "0x00000000000000000000000043edd7f3831b08fe70b7555ddd373c8bf65a9050000000000000000000000000000000000000000000000000000000000000762f0000000000000000000000000000000000000000000000000000000000000060000000000000000000000000000000000000000000000000000000000000000000000000000000000000000000000000000000000000000000000000000000030000000000000000000000000000000000000000000000000000000000000000000000000000000000000000000000000000000000000000000000000000000000000000000000000000000000000000000000000000000000000000000000c000000000000000000000000000000000000000000000000000000000000001400000000000000000000000000000000000000000000000000000000000000003000000000000000000000000082a08f524c043ec7f6b9a42bae79a1990d8499a000000000000000000000000bb83ecf372cbb6daa629ea9a9a53bec6d601f229000000000000000000000000c097ab8cd7b053326dfe9fb3e3a31a0cce3b526f0000000000000000000000000000000000000000000000000000000000000000",
          "blockHash": "0xb346ecf145a8ea43d0b147d9f97ebbbb0587c4adad896aaef1aa9f10715a6b7d",
          "blockNumber": "0xda0a3e",
          "blockTimestamp": "0x68cda614",
          "transactionHash": "0x17ef9558c5e6f33c488b04ba52bae6ae8c22a75dd19eaabae12303b1f2352149",
          "transactionIndex": "0x1",
          "logIndex": "0x6",
          "removed": false
        }
      ],
      "logsBloom": "0x00000000000000000000000000000000000000000000000000000000000000000000000000000000000000000000000000000000000000000000000000000000000000000000000000000000000004000000000000000000002000000000000000000000000000010000000000000000000000000000000000000000000000000000000000000000000000000000000000000000000000000000000000000000000000000000000000000002000000000000000000000000000000000000000000000000000000000000000000000000000000000000000800000000000000000000000000000000000000000000000000000000000000000000000000000010",
      "type": "0x2",
      "transactionHash": "0x17ef9558c5e6f33c488b04ba52bae6ae8c22a75dd19eaabae12303b1f2352149",
      "transactionIndex": "0x1",
      "blockHash": "0xb346ecf145a8ea43d0b147d9f97ebbbb0587c4adad896aaef1aa9f10715a6b7d",
      "blockNumber": "0xda0a3e",
      "gasUsed": "0x27b15",
      "effectiveGasPrice": "0x5f5e101",
      "from": "0x0990be6db8c785fbbf9ded8baec612a10cae814b",
      "to": "0x3a73033c0b1407574c76bdbac67f126f6b4a9aa9",
      "contractAddress": null
    },
    {
      "status": "0x1",
      "cumulativeGasUsed": "0xba1bb",
      "logs": [
        {
          "address": "0x7cacbe439ead55fa1c22790330b12835c6884a91",
          "topics": [
            "0x82118522aa536ac0e96cc5c689407ae42b89d592aa133890a01f1509842f5081"
          ],
          "data": "0x00000000000000000000000043edd7f3831b08fe70b7555ddd373c8bf65a9050000000000000000000000000000000000000000000000000000000000000762f0000000000000000000000000000000000000000000000000000000000000060000000000000000000000000000000000000000000000000000000000000000000000000000000000000000000000000000000000000000000000000000000030000000000000000000000000000000000000000000000000000000000000000000000000000000000000000000000000000000000000000000000000000000000000000000000000000000000000000000000000000000000000000000000c000000000000000000000000000000000000000000000000000000000000001400000000000000000000000000000000000000000000000000000000000000003000000000000000000000000082a08f524c043ec7f6b9a42bae79a1990d8499a000000000000000000000000bb83ecf372cbb6daa629ea9a9a53bec6d601f229000000000000000000000000c097ab8cd7b053326dfe9fb3e3a31a0cce3b526f0000000000000000000000000000000000000000000000000000000000000000",
          "blockHash": "0x7c0c3e1a9725c38f6285bf7dc865670f6801da290228668c988efb2937507cc3",
          "blockNumber": "0xda0a7b",
          "blockTimestamp": "0x68cda650",
          "transactionHash": "0xd19aac9f4c348f69bdca2c14599474d4229e6a87ce7c7ab29042a91f0123707e",
          "transactionIndex": "0x3",
          "logIndex": "0x8",
          "removed": false
        }
      ],
      "logsBloom": "0x00000000000000000000000000000000000000000000000000000000000000000000000000000000000000000000000000000000000000000000000000000000000000000000000000000000000000000000000000000000002000000000000000000000000000000000000000000000000000000000000000000000000000000000000000000000000000000000000000000000000000000000000000040000000000000000000000000002000000000000000000000000000000000000000000000000000000000000000000000000000000000000000000000000000000000000000000000400000000000000000000000000000000000000000000000018",
      "type": "0x2",
      "transactionHash": "0xd19aac9f4c348f69bdca2c14599474d4229e6a87ce7c7ab29042a91f0123707e",
      "transactionIndex": "0x3",
      "blockHash": "0x7c0c3e1a9725c38f6285bf7dc865670f6801da290228668c988efb2937507cc3",
      "blockNumber": "0xda0a7b",
      "gasUsed": "0x27a1f",
      "effectiveGasPrice": "0x5f5e101",
      "from": "0x0990be6db8c785fbbf9ded8baec612a10cae814b",
      "to": "0x3a73033c0b1407574c76bdbac67f126f6b4a9aa9",
      "contractAddress": null
    },
    {
      "status": "0x1",
      "cumulativeGasUsed": "0x23a1c0",
      "logs": [
        {
          "address": "0xfd76d9cb0bac839725ab79127e7411fe71b1e3ca",
          "topics": [
            "0x82118522aa536ac0e96cc5c689407ae42b89d592aa133890a01f1509842f5081"
          ],
          "data": "0x00000000000000000000000090581eca9469d8d7f5d3b60f4715027adfcf7927000000000000000000000000000000000000000000000000000000000000762f0000000000000000000000000000000000000000000000000000000000000060000000000000000000000000000000000000000000000000000000000000000000000000000000000000000000000000000000000000000000000000000000030000000000000000000000000000000000000000000000000000000000000000000000000000000000000000000000000000000000000000000000000000000000000000000000000000000000000000000000000000000000000000000000c000000000000000000000000000000000000000000000000000000000000001400000000000000000000000000000000000000000000000000000000000000003000000000000000000000000082a08f524c043ec7f6b9a42bae79a1990d8499a000000000000000000000000bb83ecf372cbb6daa629ea9a9a53bec6d601f229000000000000000000000000c097ab8cd7b053326dfe9fb3e3a31a0cce3b526f0000000000000000000000000000000000000000000000000000000000000000",
          "blockHash": "0x46b6ffe053544b270f4ec7e8888e65c1db576ded7e170fcfd5743065d5aab843",
          "blockNumber": "0xda0ab8",
          "blockTimestamp": "0x68cda68c",
          "transactionHash": "0xa22ab8edbf25e5d5e5eb91bca9414f1a19dfcd75151e0bab82d180958c1259bf",
          "transactionIndex": "0x7",
          "logIndex": "0x18",
          "removed": false
        }
      ],
      "logsBloom": "0x00000000000000000000000000000000000000000000000000000000000000000000000000000000000000000000000000000000000000000000000000000000000000000000000000000000000004000000000000000000002000000000000000000000000000010000000000000000000000000000000000000000000000000000000000000000000000000000000000000000000000000000000000000000000000000000000000000002000000000000000000000000000000000000000000000000000000000000000000000000000000000000000800000000000000000000000000000000000000000000000000000000000000000000000000000010",
      "type": "0x2",
      "transactionHash": "0xa22ab8edbf25e5d5e5eb91bca9414f1a19dfcd75151e0bab82d180958c1259bf",
      "transactionIndex": "0x7",
      "blockHash": "0x46b6ffe053544b270f4ec7e8888e65c1db576ded7e170fcfd5743065d5aab843",
      "blockNumber": "0xda0ab8",
      "gasUsed": "0x27b15",
      "effectiveGasPrice": "0x5f5e101",
      "from": "0x0990be6db8c785fbbf9ded8baec612a10cae814b",
      "to": "0x3a73033c0b1407574c76bdbac67f126f6b4a9aa9",
      "contractAddress": null
    },
    {
      "status": "0x1",
      "cumulativeGasUsed": "0x9e457",
      "logs": [
        {
          "address": "0x7cacbe439ead55fa1c22790330b12835c6884a91",
          "topics": [
            "0x82118522aa536ac0e96cc5c689407ae42b89d592aa133890a01f1509842f5081"
          ],
          "data": "0x00000000000000000000000090581eca9469d8d7f5d3b60f4715027adfcf7927000000000000000000000000000000000000000000000000000000000000762f0000000000000000000000000000000000000000000000000000000000000060000000000000000000000000000000000000000000000000000000000000000000000000000000000000000000000000000000000000000000000000000000030000000000000000000000000000000000000000000000000000000000000000000000000000000000000000000000000000000000000000000000000000000000000000000000000000000000000000000000000000000000000000000000c000000000000000000000000000000000000000000000000000000000000001400000000000000000000000000000000000000000000000000000000000000003000000000000000000000000082a08f524c043ec7f6b9a42bae79a1990d8499a000000000000000000000000bb83ecf372cbb6daa629ea9a9a53bec6d601f229000000000000000000000000c097ab8cd7b053326dfe9fb3e3a31a0cce3b526f0000000000000000000000000000000000000000000000000000000000000000",
          "blockHash": "0xb6ca0c91160a3862b2b842e04537a2e2c8892fdeb75a4f2ea5efe564a45e164e",
          "blockNumber": "0xda0af5",
          "blockTimestamp": "0x68cda6c8",
          "transactionHash": "0x9b2e883cee407e84c60bb9eaef2e6a417dc4066fbf181f092262bb7c741c7c26",
          "transactionIndex": "0x3",
          "logIndex": "0x13",
          "removed": false
        }
      ],
      "logsBloom": "0x00000000000000000000000000000000000000000000000000000000000000000000000000000000000000000000000000000000000000000000000000000000000000000000000000000000000000000000000000000000002000000000000000000000000000000000000000000000000000000000000000000000000000000000000000000000000000000000000000000000000000000000000000040000000000000000000000000002000000000000000000000000000000000000000000000000000000000000000000000000000000000000000000000000000000000000000000000400000000000000000000000000000000000000000000000018",
      "type": "0x2",
      "transactionHash": "0x9b2e883cee407e84c60bb9eaef2e6a417dc4066fbf181f092262bb7c741c7c26",
      "transactionIndex": "0x3",
      "blockHash": "0xb6ca0c91160a3862b2b842e04537a2e2c8892fdeb75a4f2ea5efe564a45e164e",
      "blockNumber": "0xda0af5",
      "gasUsed": "0x27a1f",
      "effectiveGasPrice": "0x5f5e101",
      "from": "0x0990be6db8c785fbbf9ded8baec612a10cae814b",
      "to": "0x3a73033c0b1407574c76bdbac67f126f6b4a9aa9",
      "contractAddress": null
    },
    {
      "status": "0x1",
      "cumulativeGasUsed": "0xe18e",
      "logs": [
        {
          "address": "0x3a73033c0b1407574c76bdbac67f126f6b4a9aa9",
          "topics": [
            "0x4cff966ebee29a156dcb34cf72c1d06231fb1777f6bdf6e8089819232f002b1c"
          ],
          "data": "0x00000000000000000000000064445f0aecc51e94ad52d8ac56b7190e764e561a000000000000000000000000000000000000000000000000000000000000762f000000000000000000000000fd76d9cb0bac839725ab79127e7411fe71b1e3ca",
          "blockHash": "0x854e6e6072b9f19f1eb3c4cbbf1f6a2d5b0c558560b4cca419855a603720d2a5",
          "blockNumber": "0xda0b32",
          "blockTimestamp": "0x68cda704",
          "transactionHash": "0x4934a102ccbf5136136a7ef95f669faa04d9a28d7ea0619de4817a7f95ff16c4",
          "transactionIndex": "0x0",
          "logIndex": "0x0",
          "removed": false
        }
      ],
      "logsBloom": "0x00000000000000000000000000000000000200000000000000000000000000000000000000000000000000000000000000000000000000000000000001000000000000000000000000000100000000000000000000000000000000000000000000000000000000000000000000000000000010000000000000000000000000000000000000000000000000000000000000000000000000000000000000000000000000000000000000000000000000000000000000000000000000000000000000000001000000000000000000000000000000000000000000000000000000000040000000000000000000000000000000000000000000000000000000000000",
      "type": "0x2",
      "transactionHash": "0x4934a102ccbf5136136a7ef95f669faa04d9a28d7ea0619de4817a7f95ff16c4",
      "transactionIndex": "0x0",
      "blockHash": "0x854e6e6072b9f19f1eb3c4cbbf1f6a2d5b0c558560b4cca419855a603720d2a5",
      "blockNumber": "0xda0b32",
      "gasUsed": "0xe18e",
      "effectiveGasPrice": "0x5f5e101",
      "from": "0x0990be6db8c785fbbf9ded8baec612a10cae814b",
      "to": "0x3a73033c0b1407574c76bdbac67f126f6b4a9aa9",
      "contractAddress": null
    },
    {
      "status": "0x1",
      "cumulativeGasUsed": "0x242bb7",
      "logs": [
        {
          "address": "0x3a73033c0b1407574c76bdbac67f126f6b4a9aa9",
          "topics": [
            "0xcd6f92f5ac6185a5acfa02c92090746cec64d777269cbcd0ed031e396657a1c2"
          ],
          "data": "0x00000000000000000000000064445f0aecc51e94ad52d8ac56b7190e764e561a000000000000000000000000000000000000000000000000000000000000762f0000000000000000000000007cacbe439ead55fa1c22790330b12835c6884a91",
          "blockHash": "0x571092c17a6d326ea0bcc7e456985d4567c0827e518213a56504617d01e03b0b",
          "blockNumber": "0xda0b6f",
          "blockTimestamp": "0x68cda740",
          "transactionHash": "0x954d346009f1c5ce1dfb10769f1b935e9bc6fce2690581f2d01bae3e710aaa30",
          "transactionIndex": "0x8",
          "logIndex": "0x89",
          "removed": false
        },
        {
          "address": "0x3a73033c0b1407574c76bdbac67f126f6b4a9aa9",
          "topics": [
            "0x4e0a5bbfa0c11a64effb1ada324b5437a17272e1aed9320398715ef71bb20928"
          ],
          "data": "0x00000000000000000000000064445f0aecc51e94ad52d8ac56b7190e764e561a000000000000000000000000000000000000000000000000000000000000762f00000000000000000000000000000000000000000000000000000000000000000000000000000000000000000000000000000000000000000000000000000000",
          "blockHash": "0x571092c17a6d326ea0bcc7e456985d4567c0827e518213a56504617d01e03b0b",
          "blockNumber": "0xda0b6f",
          "blockTimestamp": "0x68cda740",
          "transactionHash": "0x954d346009f1c5ce1dfb10769f1b935e9bc6fce2690581f2d01bae3e710aaa30",
          "transactionIndex": "0x8",
          "logIndex": "0x8a",
          "removed": false
        }
      ],
      "logsBloom": "0x00000000000000000000020800000000000000000000000000000000000000020400000000000000000000000000000000000000000000000000000000000000000000000000000000000100000000000000000000800000000000000000000000000000000000000000000000000000000010000000000000000000000000100000000000000000000000000000000000000000000000000000000000000000000000000000000000000000000000000000000000000000000000000000000000000001000000000000000000000000000000000000000000000000000000000000000000000000000000000000000000000000000000000000000000000000",
      "type": "0x2",
      "transactionHash": "0x954d346009f1c5ce1dfb10769f1b935e9bc6fce2690581f2d01bae3e710aaa30",
      "transactionIndex": "0x8",
      "blockHash": "0x571092c17a6d326ea0bcc7e456985d4567c0827e518213a56504617d01e03b0b",
      "blockNumber": "0xda0b6f",
      "gasUsed": "0xfba1",
      "effectiveGasPrice": "0x5f5e101",
      "from": "0x0990be6db8c785fbbf9ded8baec612a10cae814b",
      "to": "0x3a73033c0b1407574c76bdbac67f126f6b4a9aa9",
      "contractAddress": null
    },
    {
      "status": "0x1",
      "cumulativeGasUsed": "0x1c14b",
      "logs": [
        {
          "address": "0x3a73033c0b1407574c76bdbac67f126f6b4a9aa9",
          "topics": [
            "0x4cff966ebee29a156dcb34cf72c1d06231fb1777f6bdf6e8089819232f002b1c"
          ],
          "data": "0x0000000000000000000000005bff88ca1442c2496f7e475e9e7786383bc070c0000000000000000000000000000000000000000000000000000000000000762f000000000000000000000000fd76d9cb0bac839725ab79127e7411fe71b1e3ca",
          "blockHash": "0xf514345717cfb0b1a7b3b7c9a67b6a1368805e4f8f115f9256238537abecfa69",
          "blockNumber": "0xda0bac",
          "blockTimestamp": "0x68cda77c",
          "transactionHash": "0x9421458fb0e9ddfdc59ee9fdd0b35e454a3df222d394c2f1c74d7041b021b509",
          "transactionIndex": "0x2",
          "logIndex": "0x1",
          "removed": false
        }
      ],
      "logsBloom": "0x00000000000000000000000000000000000200000000000000000000000000000000000000000000000000000000000000000000000000000000000001000000000000000000000000000100000000000000000000000000000000000000000000000000000000000000000000000000000010000000000000000000000000000000000000000000000000000000000000000000000000000000000000000000000000000000000000000000000000000000000000000000000000000000000000000001000000000000000000000000000000000000000000000000000000000040000000000000000000000000000000000000000000000000000000000000",
      "type": "0x2",
      "transactionHash": "0x9421458fb0e9ddfdc59ee9fdd0b35e454a3df222d394c2f1c74d7041b021b509",
      "transactionIndex": "0x2",
      "blockHash": "0xf514345717cfb0b1a7b3b7c9a67b6a1368805e4f8f115f9256238537abecfa69",
      "blockNumber": "0xda0bac",
      "gasUsed": "0xe18e",
      "effectiveGasPrice": "0x5f5e101",
      "from": "0x0990be6db8c785fbbf9ded8baec612a10cae814b",
      "to": "0x3a73033c0b1407574c76bdbac67f126f6b4a9aa9",
      "contractAddress": null
    },
    {
      "status": "0x1",
      "cumulativeGasUsed": "0x7dbc4",
      "logs": [
        {
          "address": "0x3a73033c0b1407574c76bdbac67f126f6b4a9aa9",
          "topics": [
            "0xcd6f92f5ac6185a5acfa02c92090746cec64d777269cbcd0ed031e396657a1c2"
          ],
          "data": "0x0000000000000000000000005bff88ca1442c2496f7e475e9e7786383bc070c0000000000000000000000000000000000000000000000000000000000000762f0000000000000000000000007cacbe439ead55fa1c22790330b12835c6884a91",
          "blockHash": "0x3a904ab49e1e1e22dc1dff2c22431aa3c8194e42d2ac07227f97f2120e3a7ce5",
          "blockNumber": "0xda0be9",
          "blockTimestamp": "0x68cda7b8",
          "transactionHash": "0x2a59242ace168f702feebfa25e372f2c74f084d9005eff127aa0234bb20aeb39",
          "transactionIndex": "0x1",
          "logIndex": "0x7",
          "removed": false
        },
        {
          "address": "0x3a73033c0b1407574c76bdbac67f126f6b4a9aa9",
          "topics": [
            "0x4e0a5bbfa0c11a64effb1ada324b5437a17272e1aed9320398715ef71bb20928"
          ],
          "data": "0x0000000000000000000000005bff88ca1442c2496f7e475e9e7786383bc070c0000000000000000000000000000000000000000000000000000000000000762f00000000000000000000000000000000000000000000000000000000000000000000000000000000000000000000000000000000000000000000000000000000",
          "blockHash": "0x3a904ab49e1e1e22dc1dff2c22431aa3c8194e42d2ac07227f97f2120e3a7ce5",
          "blockNumber": "0xda0be9",
          "blockTimestamp": "0x68cda7b8",
          "transactionHash": "0x2a59242ace168f702feebfa25e372f2c74f084d9005eff127aa0234bb20aeb39",
          "transactionIndex": "0x1",
          "logIndex": "0x8",
          "removed": false
        }
      ],
      "logsBloom": "0x00000000000000000000020800000000000000000000000000000000000000020400000000000000000000000000000000000000000000000000000000000000000000000000000000000100000000000000000000800000000000000000000000000000000000000000000000000000000010000000000000000000000000100000000000000000000000000000000000000000000000000000000000000000000000000000000000000000000000000000000000000000000000000000000000000001000000000000000000000000000000000000000000000000000000000000000000000000000000000000000000000000000000000000000000000000",
      "type": "0x2",
      "transactionHash": "0x2a59242ace168f702feebfa25e372f2c74f084d9005eff127aa0234bb20aeb39",
      "transactionIndex": "0x1",
      "blockHash": "0x3a904ab49e1e1e22dc1dff2c22431aa3c8194e42d2ac07227f97f2120e3a7ce5",
      "blockNumber": "0xda0be9",
      "gasUsed": "0xfba1",
      "effectiveGasPrice": "0x5f5e101",
      "from": "0x0990be6db8c785fbbf9ded8baec612a10cae814b",
      "to": "0x3a73033c0b1407574c76bdbac67f126f6b4a9aa9",
      "contractAddress": null
    },
    {
      "status": "0x1",
      "cumulativeGasUsed": "0x6549f",
      "logs": [
        {
          "address": "0x3a73033c0b1407574c76bdbac67f126f6b4a9aa9",
          "topics": [
            "0x4cff966ebee29a156dcb34cf72c1d06231fb1777f6bdf6e8089819232f002b1c"
          ],
          "data": "0x0000000000000000000000003ec3849c33291a9ef4c5db86de593eb4a37fde45000000000000000000000000000000000000000000000000000000000000762f000000000000000000000000fd76d9cb0bac839725ab79127e7411fe71b1e3ca",
          "blockHash": "0xa57227d067f2602e072b9e916d22e984474127302d885df55c6e294a0203cf29",
          "blockNumber": "0xda0c26",
          "blockTimestamp": "0x68cda7f4",
          "transactionHash": "0xea116187898e3c987f0a999f6ce049633934ab320d62c4a3259a660ac39e8b02",
          "transactionIndex": "0x5",
          "logIndex": "0x8",
          "removed": false
        }
      ],
      "logsBloom": "0x00000000000000000000000000000000000200000000000000000000000000000000000000000000000000000000000000000000000000000000000001000000000000000000000000000100000000000000000000000000000000000000000000000000000000000000000000000000000010000000000000000000000000000000000000000000000000000000000000000000000000000000000000000000000000000000000000000000000000000000000000000000000000000000000000000001000000000000000000000000000000000000000000000000000000000040000000000000000000000000000000000000000000000000000000000000",
      "type": "0x2",
      "transactionHash": "0xea116187898e3c987f0a999f6ce049633934ab320d62c4a3259a660ac39e8b02",
      "transactionIndex": "0x5",
      "blockHash": "0xa57227d067f2602e072b9e916d22e984474127302d885df55c6e294a0203cf29",
      "blockNumber": "0xda0c26",
      "gasUsed": "0xe18e",
      "effectiveGasPrice": "0x5f5e101",
      "from": "0x0990be6db8c785fbbf9ded8baec612a10cae814b",
      "to": "0x3a73033c0b1407574c76bdbac67f126f6b4a9aa9",
      "contractAddress": null
    },
    {
      "status": "0x1",
      "cumulativeGasUsed": "0x128cd1",
      "logs": [
        {
          "address": "0x3a73033c0b1407574c76bdbac67f126f6b4a9aa9",
          "topics": [
            "0xcd6f92f5ac6185a5acfa02c92090746cec64d777269cbcd0ed031e396657a1c2"
          ],
          "data": "0x0000000000000000000000003ec3849c33291a9ef4c5db86de593eb4a37fde45000000000000000000000000000000000000000000000000000000000000762f0000000000000000000000007cacbe439ead55fa1c22790330b12835c6884a91",
          "blockHash": "0x94cab2e4a0c3e0070d2c65664da7a7b95d9e9e77ad396cf232d907eff016173d",
          "blockNumber": "0xda0c63",
          "blockTimestamp": "0x68cda830",
          "transactionHash": "0xdc27bc98a0a281e2c6df8de530f4a2e52ece7e61ddfc5c3833ff639a9b106055",
          "transactionIndex": "0x4",
          "logIndex": "0x1f",
          "removed": false
        },
        {
          "address": "0x3a73033c0b1407574c76bdbac67f126f6b4a9aa9",
          "topics": [
            "0x4e0a5bbfa0c11a64effb1ada324b5437a17272e1aed9320398715ef71bb20928"
          ],
          "data": "0x0000000000000000000000003ec3849c33291a9ef4c5db86de593eb4a37fde45000000000000000000000000000000000000000000000000000000000000762f00000000000000000000000000000000000000000000000000000000000000000000000000000000000000000000000000000000000000000000000000000000",
          "blockHash": "0x94cab2e4a0c3e0070d2c65664da7a7b95d9e9e77ad396cf232d907eff016173d",
          "blockNumber": "0xda0c63",
          "blockTimestamp": "0x68cda830",
          "transactionHash": "0xdc27bc98a0a281e2c6df8de530f4a2e52ece7e61ddfc5c3833ff639a9b106055",
          "transactionIndex": "0x4",
          "logIndex": "0x20",
          "removed": false
        }
      ],
      "logsBloom": "0x00000000000000000000020800000000000000000000000000000000000000020400000000000000000000000000000000000000000000000000000000000000000000000000000000000100000000000000000000800000000000000000000000000000000000000000000000000000000010000000000000000000000000100000000000000000000000000000000000000000000000000000000000000000000000000000000000000000000000000000000000000000000000000000000000000001000000000000000000000000000000000000000000000000000000000000000000000000000000000000000000000000000000000000000000000000",
      "type": "0x2",
      "transactionHash": "0xdc27bc98a0a281e2c6df8de530f4a2e52ece7e61ddfc5c3833ff639a9b106055",
      "transactionIndex": "0x4",
      "blockHash": "0x94cab2e4a0c3e0070d2c65664da7a7b95d9e9e77ad396cf232d907eff016173d",
      "blockNumber": "0xda0c63",
      "gasUsed": "0xfba1",
      "effectiveGasPrice": "0x5f5e101",
      "from": "0x0990be6db8c785fbbf9ded8baec612a10cae814b",
      "to": "0x3a73033c0b1407574c76bdbac67f126f6b4a9aa9",
      "contractAddress": null
    },
    {
      "status": "0x1",
      "cumulativeGasUsed": "0x27416e",
      "logs": [
        {
          "address": "0x3a73033c0b1407574c76bdbac67f126f6b4a9aa9",
          "topics": [
            "0x4cff966ebee29a156dcb34cf72c1d06231fb1777f6bdf6e8089819232f002b1c"
          ],
          "data": "0x00000000000000000000000080eede496655fb9047dd39d9f418d5483ed600df000000000000000000000000000000000000000000000000000000000000762f000000000000000000000000fd76d9cb0bac839725ab79127e7411fe71b1e3ca",
          "blockHash": "0x9114fa06c91e2c8f6ed035a75e95ce171a87c00cec4b22f02fc928259949aa04",
          "blockNumber": "0xda0ca0",
          "blockTimestamp": "0x68cda86c",
          "transactionHash": "0x4d55dee1bd8fe9bd9ffabca86d8dbafd8063406a54486716f854a37f423d208d",
          "transactionIndex": "0xa",
          "logIndex": "0x6d",
          "removed": false
        }
      ],
      "logsBloom": "0x00000000000000000000000000000000000200000000000000000000000000000000000000000000000000000000000000000000000000000000000001000000000000000000000000000100000000000000000000000000000000000000000000000000000000000000000000000000000010000000000000000000000000000000000000000000000000000000000000000000000000000000000000000000000000000000000000000000000000000000000000000000000000000000000000000001000000000000000000000000000000000000000000000000000000000040000000000000000000000000000000000000000000000000000000000000",
      "type": "0x2",
      "transactionHash": "0x4d55dee1bd8fe9bd9ffabca86d8dbafd8063406a54486716f854a37f423d208d",
      "transactionIndex": "0xa",
      "blockHash": "0x9114fa06c91e2c8f6ed035a75e95ce171a87c00cec4b22f02fc928259949aa04",
      "blockNumber": "0xda0ca0",
      "gasUsed": "0xe182",
      "effectiveGasPrice": "0x5f5e101",
      "from": "0x0990be6db8c785fbbf9ded8baec612a10cae814b",
      "to": "0x3a73033c0b1407574c76bdbac67f126f6b4a9aa9",
      "contractAddress": null
    },
    {
      "status": "0x1",
      "cumulativeGasUsed": "0xfb95",
      "logs": [
        {
          "address": "0x3a73033c0b1407574c76bdbac67f126f6b4a9aa9",
          "topics": [
            "0xcd6f92f5ac6185a5acfa02c92090746cec64d777269cbcd0ed031e396657a1c2"
          ],
          "data": "0x00000000000000000000000080eede496655fb9047dd39d9f418d5483ed600df000000000000000000000000000000000000000000000000000000000000762f0000000000000000000000007cacbe439ead55fa1c22790330b12835c6884a91",
          "blockHash": "0x70a6ec464da591b5cba045b56cf0cf677ca43f6e3d0f7b2d1a29b96538f8bf72",
          "blockNumber": "0xda0cdd",
          "blockTimestamp": "0x68cda8a8",
          "transactionHash": "0x0e21939d33089c9d1ff97ed77252d22afc86107e6a10f334896a03558a1b4d90",
          "transactionIndex": "0x0",
          "logIndex": "0x0",
          "removed": false
        },
        {
          "address": "0x3a73033c0b1407574c76bdbac67f126f6b4a9aa9",
          "topics": [
            "0x4e0a5bbfa0c11a64effb1ada324b5437a17272e1aed9320398715ef71bb20928"
          ],
          "data": "0x00000000000000000000000080eede496655fb9047dd39d9f418d5483ed600df000000000000000000000000000000000000000000000000000000000000762f00000000000000000000000000000000000000000000000000000000000000000000000000000000000000000000000000000000000000000000000000000000",
          "blockHash": "0x70a6ec464da591b5cba045b56cf0cf677ca43f6e3d0f7b2d1a29b96538f8bf72",
          "blockNumber": "0xda0cdd",
          "blockTimestamp": "0x68cda8a8",
          "transactionHash": "0x0e21939d33089c9d1ff97ed77252d22afc86107e6a10f334896a03558a1b4d90",
          "transactionIndex": "0x0",
          "logIndex": "0x1",
          "removed": false
        }
      ],
      "logsBloom": "0x00000000000000000000020800000000000000000000000000000000000000020400000000000000000000000000000000000000000000000000000000000000000000000000000000000100000000000000000000800000000000000000000000000000000000000000000000000000000010000000000000000000000000100000000000000000000000000000000000000000000000000000000000000000000000000000000000000000000000000000000000000000000000000000000000000001000000000000000000000000000000000000000000000000000000000000000000000000000000000000000000000000000000000000000000000000",
      "type": "0x2",
      "transactionHash": "0x0e21939d33089c9d1ff97ed77252d22afc86107e6a10f334896a03558a1b4d90",
      "transactionIndex": "0x0",
      "blockHash": "0x70a6ec464da591b5cba045b56cf0cf677ca43f6e3d0f7b2d1a29b96538f8bf72",
      "blockNumber": "0xda0cdd",
      "gasUsed": "0xfb95",
      "effectiveGasPrice": "0x5f5e101",
      "from": "0x0990be6db8c785fbbf9ded8baec612a10cae814b",
      "to": "0x3a73033c0b1407574c76bdbac67f126f6b4a9aa9",
      "contractAddress": null
    },
    {
      "status": "0x1",
      "cumulativeGasUsed": "0x471ad",
      "logs": [
        {
          "address": "0x3a73033c0b1407574c76bdbac67f126f6b4a9aa9",
          "topics": [
            "0x4cff966ebee29a156dcb34cf72c1d06231fb1777f6bdf6e8089819232f002b1c"
          ],
          "data": "0x00000000000000000000000043edd7f3831b08fe70b7555ddd373c8bf65a9050000000000000000000000000000000000000000000000000000000000000762f000000000000000000000000fd76d9cb0bac839725ab79127e7411fe71b1e3ca",
          "blockHash": "0x229d7f3362b5b9a5922ddff09fb47d0fe708abb81f7046a2e8129f188c98e206",
          "blockNumber": "0xda0d1a",
          "blockTimestamp": "0x68cda8e4",
          "transactionHash": "0xa1b009f8477b4600347074ddbab8556da2c880a05486985be8bacb8ee3f6b6f6",
          "transactionIndex": "0x2",
          "logIndex": "0x2",
          "removed": false
        }
      ],
      "logsBloom": "0x00000000000000000000000000000000000200000000000000000000000000000000000000000000000000000000000000000000000000000000000001000000000000000000000000000100000000000000000000000000000000000000000000000000000000000000000000000000000010000000000000000000000000000000000000000000000000000000000000000000000000000000000000000000000000000000000000000000000000000000000000000000000000000000000000000001000000000000000000000000000000000000000000000000000000000040000000000000000000000000000000000000000000000000000000000000",
      "type": "0x2",
      "transactionHash": "0xa1b009f8477b4600347074ddbab8556da2c880a05486985be8bacb8ee3f6b6f6",
      "transactionIndex": "0x2",
      "blockHash": "0x229d7f3362b5b9a5922ddff09fb47d0fe708abb81f7046a2e8129f188c98e206",
      "blockNumber": "0xda0d1a",
      "gasUsed": "0xe18e",
      "effectiveGasPrice": "0x5f5e101",
      "from": "0x0990be6db8c785fbbf9ded8baec612a10cae814b",
      "to": "0x3a73033c0b1407574c76bdbac67f126f6b4a9aa9",
      "contractAddress": null
    },
    {
      "status": "0x1",
      "cumulativeGasUsed": "0x41a22",
      "logs": [
        {
          "address": "0x3a73033c0b1407574c76bdbac67f126f6b4a9aa9",
          "topics": [
            "0xcd6f92f5ac6185a5acfa02c92090746cec64d777269cbcd0ed031e396657a1c2"
          ],
          "data": "0x00000000000000000000000043edd7f3831b08fe70b7555ddd373c8bf65a9050000000000000000000000000000000000000000000000000000000000000762f0000000000000000000000007cacbe439ead55fa1c22790330b12835c6884a91",
          "blockHash": "0x366349aa5b82f3e950e61be5feb9cad9645425542531ddd9e822e142ec6c559b",
          "blockNumber": "0xda0d57",
          "blockTimestamp": "0x68cda920",
          "transactionHash": "0xc1b45415924eeeae68f530b190e8fb8b93816fbaf7a8d76694d1a5715613a0af",
          "transactionIndex": "0x2",
          "logIndex": "0x1",
          "removed": false
        },
        {
          "address": "0x3a73033c0b1407574c76bdbac67f126f6b4a9aa9",
          "topics": [
            "0x4e0a5bbfa0c11a64effb1ada324b5437a17272e1aed9320398715ef71bb20928"
          ],
          "data": "0x00000000000000000000000043edd7f3831b08fe70b7555ddd373c8bf65a9050000000000000000000000000000000000000000000000000000000000000762f00000000000000000000000000000000000000000000000000000000000000000000000000000000000000000000000000000000000000000000000000000000",
          "blockHash": "0x366349aa5b82f3e950e61be5feb9cad9645425542531ddd9e822e142ec6c559b",
          "blockNumber": "0xda0d57",
          "blockTimestamp": "0x68cda920",
          "transactionHash": "0xc1b45415924eeeae68f530b190e8fb8b93816fbaf7a8d76694d1a5715613a0af",
          "transactionIndex": "0x2",
          "logIndex": "0x2",
          "removed": false
        }
      ],
      "logsBloom": "0x00000000000000000000020800000000000000000000000000000000000000020400000000000000000000000000000000000000000000000000000000000000000000000000000000000100000000000000000000800000000000000000000000000000000000000000000000000000000010000000000000000000000000100000000000000000000000000000000000000000000000000000000000000000000000000000000000000000000000000000000000000000000000000000000000000001000000000000000000000000000000000000000000000000000000000000000000000000000000000000000000000000000000000000000000000000",
      "type": "0x2",
      "transactionHash": "0xc1b45415924eeeae68f530b190e8fb8b93816fbaf7a8d76694d1a5715613a0af",
      "transactionIndex": "0x2",
      "blockHash": "0x366349aa5b82f3e950e61be5feb9cad9645425542531ddd9e822e142ec6c559b",
      "blockNumber": "0xda0d57",
      "gasUsed": "0xfba1",
      "effectiveGasPrice": "0x5f5e101",
      "from": "0x0990be6db8c785fbbf9ded8baec612a10cae814b",
      "to": "0x3a73033c0b1407574c76bdbac67f126f6b4a9aa9",
      "contractAddress": null
    },
    {
      "status": "0x1",
      "cumulativeGasUsed": "0x49ef1",
      "logs": [
        {
          "address": "0x3a73033c0b1407574c76bdbac67f126f6b4a9aa9",
          "topics": [
            "0x4cff966ebee29a156dcb34cf72c1d06231fb1777f6bdf6e8089819232f002b1c"
          ],
          "data": "0x00000000000000000000000090581eca9469d8d7f5d3b60f4715027adfcf7927000000000000000000000000000000000000000000000000000000000000762f000000000000000000000000fd76d9cb0bac839725ab79127e7411fe71b1e3ca",
          "blockHash": "0x5eab876ad3d66de4723f69b1452a9295f18a2b945ac3286612b7a73e002fcefb",
          "blockNumber": "0xda0d94",
          "blockTimestamp": "0x68cda95c",
          "transactionHash": "0xbc84ca815a0d5b137c6f7ae2d5b7f65357efd3995b1b49bc1052369e15f828c7",
          "transactionIndex": "0x1",
          "logIndex": "0xb",
          "removed": false
        }
      ],
      "logsBloom": "0x00000000000000000000000000000000000200000000000000000000000000000000000000000000000000000000000000000000000000000000000001000000000000000000000000000100000000000000000000000000000000000000000000000000000000000000000000000000000010000000000000000000000000000000000000000000000000000000000000000000000000000000000000000000000000000000000000000000000000000000000000000000000000000000000000000001000000000000000000000000000000000000000000000000000000000040000000000000000000000000000000000000000000000000000000000000",
      "type": "0x2",
      "transactionHash": "0xbc84ca815a0d5b137c6f7ae2d5b7f65357efd3995b1b49bc1052369e15f828c7",
      "transactionIndex": "0x1",
      "blockHash": "0x5eab876ad3d66de4723f69b1452a9295f18a2b945ac3286612b7a73e002fcefb",
      "blockNumber": "0xda0d94",
      "gasUsed": "0xe18e",
      "effectiveGasPrice": "0x5f5e101",
      "from": "0x0990be6db8c785fbbf9ded8baec612a10cae814b",
      "to": "0x3a73033c0b1407574c76bdbac67f126f6b4a9aa9",
      "contractAddress": null
    },
    {
      "status": "0x1",
      "cumulativeGasUsed": "0x2aa75",
      "logs": [
        {
          "address": "0x3a73033c0b1407574c76bdbac67f126f6b4a9aa9",
          "topics": [
            "0xcd6f92f5ac6185a5acfa02c92090746cec64d777269cbcd0ed031e396657a1c2"
          ],
          "data": "0x00000000000000000000000090581eca9469d8d7f5d3b60f4715027adfcf7927000000000000000000000000000000000000000000000000000000000000762f0000000000000000000000007cacbe439ead55fa1c22790330b12835c6884a91",
          "blockHash": "0x4928d4e9bf80d0622aff29808c59f435172b2950551dda5965c637fcf384d5ce",
          "blockNumber": "0xda0dd1",
          "blockTimestamp": "0x68cda998",
          "transactionHash": "0x87f8537a52c31517f59e52d4c3650dfcb307a97036e793715fa815b274b2f778",
          "transactionIndex": "0x2",
          "logIndex": "0x3",
          "removed": false
        },
        {
          "address": "0x3a73033c0b1407574c76bdbac67f126f6b4a9aa9",
          "topics": [
            "0x4e0a5bbfa0c11a64effb1ada324b5437a17272e1aed9320398715ef71bb20928"
          ],
          "data": "0x00000000000000000000000090581eca9469d8d7f5d3b60f4715027adfcf7927000000000000000000000000000000000000000000000000000000000000762f00000000000000000000000000000000000000000000000000000000000000000000000000000000000000000000000000000000000000000000000000000000",
          "blockHash": "0x4928d4e9bf80d0622aff29808c59f435172b2950551dda5965c637fcf384d5ce",
          "blockNumber": "0xda0dd1",
          "blockTimestamp": "0x68cda998",
          "transactionHash": "0x87f8537a52c31517f59e52d4c3650dfcb307a97036e793715fa815b274b2f778",
          "transactionIndex": "0x2",
          "logIndex": "0x4",
          "removed": false
        }
      ],
      "logsBloom": "0x00000000000000000000020800000000000000000000000000000000000000020400000000000000000000000000000000000000000000000000000000000000000000000000000000000100000000000000000000800000000000000000000000000000000000000000000000000000000010000000000000000000000000100000000000000000000000000000000000000000000000000000000000000000000000000000000000000000000000000000000000000000000000000000000000000001000000000000000000000000000000000000000000000000000000000000000000000000000000000000000000000000000000000000000000000000",
      "type": "0x2",
      "transactionHash": "0x87f8537a52c31517f59e52d4c3650dfcb307a97036e793715fa815b274b2f778",
      "transactionIndex": "0x2",
      "blockHash": "0x4928d4e9bf80d0622aff29808c59f435172b2950551dda5965c637fcf384d5ce",
      "blockNumber": "0xda0dd1",
      "gasUsed": "0xfba1",
      "effectiveGasPrice": "0x5f5e101",
      "from": "0x0990be6db8c785fbbf9ded8baec612a10cae814b",
      "to": "0x3a73033c0b1407574c76bdbac67f126f6b4a9aa9",
      "contractAddress": null
    },
    {
      "status": "0x1",
      "cumulativeGasUsed": "0x20ecb8",
      "logs": [
        {
          "address": "0x3a73033c0b1407574c76bdbac67f126f6b4a9aa9",
          "topics": [
            "0x6ee10e9ed4d6ce9742703a498707862f4b00f1396a87195eb93267b3d7983981"
          ],
          "data": "0x00000000000000000000000064445f0aecc51e94ad52d8ac56b7190e764e561a000000000000000000000000738ee62157f127c879ff5c4b7102eb0d166c7a6d",
          "blockHash": "0x33ab60ca9d64e1329c1e096f242a16ebcfd8891ca2d71f2c47df71590f9bd4ee",
          "blockNumber": "0xda0e0e",
          "blockTimestamp": "0x68cda9d4",
          "transactionHash": "0x29ddfc63f8623478b10e21ddd47418613a93a8cb26dfb524ecbd0e94de91dcbe",
          "transactionIndex": "0x9",
          "logIndex": "0x85",
          "removed": false
        }
      ],
      "logsBloom": "0x00000000000000000000000000000000000000000000000000800000000000000000000000000000000000000000000000000002000000000000000000000000000000000000000000000100000000000000000000000000000000000000000000000000000000000000000000000000000010000000000000000000000000000000000000000000000000000000000000000000000000000000000000000000000000000000000000000000000000000000000000000000000000000000000400000001000000000000000000000000000000000000000000000000000000000000000000000000000000000000000000000000000000000000000000000000",
      "type": "0x2",
      "transactionHash": "0x29ddfc63f8623478b10e21ddd47418613a93a8cb26dfb524ecbd0e94de91dcbe",
      "transactionIndex": "0x9",
      "blockHash": "0x33ab60ca9d64e1329c1e096f242a16ebcfd8891ca2d71f2c47df71590f9bd4ee",
      "blockNumber": "0xda0e0e",
      "gasUsed": "0xa069",
      "effectiveGasPrice": "0x5f5e101",
      "from": "0x0990be6db8c785fbbf9ded8baec612a10cae814b",
      "to": "0x64445f0aecc51e94ad52d8ac56b7190e764e561a",
      "contractAddress": null
    },
    {
      "status": "0x1",
      "cumulativeGasUsed": "0x5f24a",
      "logs": [
        {
          "address": "0x64445f0aecc51e94ad52d8ac56b7190e764e561a",
          "topics": [
            "0x8be0079c531659141344cd1fd0a4f28419497f9722a3daafe3b4186f6b6457e0",
            "0x0000000000000000000000000990be6db8c785fbbf9ded8baec612a10cae814b",
            "0x000000000000000000000000738ee62157f127c879ff5c4b7102eb0d166c7a6d"
          ],
          "data": "0x",
          "blockHash": "0xe1d8c0af73b4ff351f07cb5d0a6c646bb8a41f902a992fb1243590dc45ae62d6",
          "blockNumber": "0xda0e4b",
          "blockTimestamp": "0x68cdaa10",
          "transactionHash": "0xa0627990b067d0196ac96438149d6c1c779b2c9dc5ec0dbdedb3729718a52606",
          "transactionIndex": "0x2",
          "logIndex": "0x7",
          "removed": false
        }
      ],
      "logsBloom": "0x00000000000000000000000000040000000000002000000000800000000000000000000000000000000000000000000000000200000000000000000000000000002000000000000000000000400000000001000000000000000000000000000000000000000000000000000000000000000000000000000000000000000000400000000000000000000000000000000000000000000000000000000000000000000000000000000000000008000000000000000000000000000000000000000000000000000000000000000000000000000000000000000800000000000000000000000000000000000000000000000000000008000000000000400000000000",
      "type": "0x2",
      "transactionHash": "0xa0627990b067d0196ac96438149d6c1c779b2c9dc5ec0dbdedb3729718a52606",
      "transactionIndex": "0x2",
      "blockHash": "0xe1d8c0af73b4ff351f07cb5d0a6c646bb8a41f902a992fb1243590dc45ae62d6",
      "blockNumber": "0xda0e4b",
      "gasUsed": "0x8c5d",
      "effectiveGasPrice": "0x5f5e101",
      "from": "0x0990be6db8c785fbbf9ded8baec612a10cae814b",
      "to": "0x64445f0aecc51e94ad52d8ac56b7190e764e561a",
      "contractAddress": null
    },
    {
      "status": "0x1",
      "cumulativeGasUsed": "0xa069",
      "logs": [
        {
          "address": "0x3a73033c0b1407574c76bdbac67f126f6b4a9aa9",
          "topics": [
            "0x6ee10e9ed4d6ce9742703a498707862f4b00f1396a87195eb93267b3d7983981"
          ],
          "data": "0x0000000000000000000000005bff88ca1442c2496f7e475e9e7786383bc070c0000000000000000000000000738ee62157f127c879ff5c4b7102eb0d166c7a6d",
          "blockHash": "0x16cde6d374996f51add04a82e30f7aa7cdd37e27d2b4e5911db4ded7063de6ed",
          "blockNumber": "0xda0e88",
          "blockTimestamp": "0x68cdaa4c",
          "transactionHash": "0x5f7235d4e9232d73a2186bc6ba0c8b794e7a1355af6b0f94bd0258715557a322",
          "transactionIndex": "0x0",
          "logIndex": "0x0",
          "removed": false
        }
      ],
      "logsBloom": "0x00000000000000000000000000000000000000000000000000800000000000000000000000000000000000000000000000000002000000000000000000000000000000000000000000000100000000000000000000000000000000000000000000000000000000000000000000000000000010000000000000000000000000000000000000000000000000000000000000000000000000000000000000000000000000000000000000000000000000000000000000000000000000000000000400000001000000000000000000000000000000000000000000000000000000000000000000000000000000000000000000000000000000000000000000000000",
      "type": "0x2",
      "transactionHash": "0x5f7235d4e9232d73a2186bc6ba0c8b794e7a1355af6b0f94bd0258715557a322",
      "transactionIndex": "0x0",
      "blockHash": "0x16cde6d374996f51add04a82e30f7aa7cdd37e27d2b4e5911db4ded7063de6ed",
      "blockNumber": "0xda0e88",
      "gasUsed": "0xa069",
      "effectiveGasPrice": "0x5f5e101",
      "from": "0x0990be6db8c785fbbf9ded8baec612a10cae814b",
      "to": "0x5bff88ca1442c2496f7e475e9e7786383bc070c0",
      "contractAddress": null
    },
    {
      "status": "0x1",
      "cumulativeGasUsed": "0xe5ee7",
      "logs": [
        {
          "address": "0x5bff88ca1442c2496f7e475e9e7786383bc070c0",
          "topics": [
            "0x8be0079c531659141344cd1fd0a4f28419497f9722a3daafe3b4186f6b6457e0",
            "0x0000000000000000000000000990be6db8c785fbbf9ded8baec612a10cae814b",
            "0x000000000000000000000000738ee62157f127c879ff5c4b7102eb0d166c7a6d"
          ],
          "data": "0x",
          "blockHash": "0x3f8d026431e887a46bbdb8e66efb442e10ec60f6e65a864d8bf3a0edaa9c58b9",
          "blockNumber": "0xda0ec5",
          "blockTimestamp": "0x68cdaa88",
          "transactionHash": "0x2c9437d08dac14f3690fae50c54287eef57f3d4aea0867b508afb93aa7061b08",
          "transactionIndex": "0x5",
          "logIndex": "0x1c",
          "removed": false
        }
      ],
      "logsBloom": "0x00000000000000000000000000040000000000002000000000800000000000000000000000000000000000000000000000000200000000000000000000000000000000000000000000000000400000000001000000000000000000000000000000000000000000000000000000000000000000000000000000000000000000400000000000000000000000000000000000000000000000000000000000000000000000000000000000000000000000000000000000000000000000000010000000000000000000000000000000000000000000800000000800000000000000000000000000000000000000000000000000000000000000000000400000000800",
      "type": "0x2",
      "transactionHash": "0x2c9437d08dac14f3690fae50c54287eef57f3d4aea0867b508afb93aa7061b08",
      "transactionIndex": "0x5",
      "blockHash": "0x3f8d026431e887a46bbdb8e66efb442e10ec60f6e65a864d8bf3a0edaa9c58b9",
      "blockNumber": "0xda0ec5",
      "gasUsed": "0x8c5d",
      "effectiveGasPrice": "0x5f5e101",
      "from": "0x0990be6db8c785fbbf9ded8baec612a10cae814b",
      "to": "0x5bff88ca1442c2496f7e475e9e7786383bc070c0",
      "contractAddress": null
    },
    {
      "status": "0x1",
      "cumulativeGasUsed": "0x20a97b",
      "logs": [
        {
          "address": "0x3a73033c0b1407574c76bdbac67f126f6b4a9aa9",
          "topics": [
            "0x6ee10e9ed4d6ce9742703a498707862f4b00f1396a87195eb93267b3d7983981"
          ],
          "data": "0x0000000000000000000000003ec3849c33291a9ef4c5db86de593eb4a37fde45000000000000000000000000738ee62157f127c879ff5c4b7102eb0d166c7a6d",
          "blockHash": "0x97e32ee7ec72741a629d4804a4ac9d35455c82e2fc14df8bedd6f95c3ef1469c",
          "blockNumber": "0xda0f02",
          "blockTimestamp": "0x68cdaac4",
          "transactionHash": "0xb7f6c734f6d757765970445b474853526abb5712527071f1df3c97c2ffcad21e",
          "transactionIndex": "0x6",
          "logIndex": "0x33",
          "removed": false
        }
      ],
      "logsBloom": "0x00000000000000000000000000000000000000000000000000800000000000000000000000000000000000000000000000000002000000000000000000000000000000000000000000000100000000000000000000000000000000000000000000000000000000000000000000000000000010000000000000000000000000000000000000000000000000000000000000000000000000000000000000000000000000000000000000000000000000000000000000000000000000000000000400000001000000000000000000000000000000000000000000000000000000000000000000000000000000000000000000000000000000000000000000000000",
      "type": "0x2",
      "transactionHash": "0xb7f6c734f6d757765970445b474853526abb5712527071f1df3c97c2ffcad21e",
      "transactionIndex": "0x6",
      "blockHash": "0x97e32ee7ec72741a629d4804a4ac9d35455c82e2fc14df8bedd6f95c3ef1469c",
      "blockNumber": "0xda0f02",
      "gasUsed": "0xa069",
      "effectiveGasPrice": "0x5f5e101",
      "from": "0x0990be6db8c785fbbf9ded8baec612a10cae814b",
      "to": "0x3ec3849c33291a9ef4c5db86de593eb4a37fde45",
      "contractAddress": null
    },
    {
      "status": "0x1",
      "cumulativeGasUsed": "0x2ccefe",
      "logs": [
        {
          "address": "0x3ec3849c33291a9ef4c5db86de593eb4a37fde45",
          "topics": [
            "0x8be0079c531659141344cd1fd0a4f28419497f9722a3daafe3b4186f6b6457e0",
            "0x0000000000000000000000000990be6db8c785fbbf9ded8baec612a10cae814b",
            "0x000000000000000000000000738ee62157f127c879ff5c4b7102eb0d166c7a6d"
          ],
          "data": "0x",
          "blockHash": "0x0653f4a40105a6dcf45e97e250c2bcccd5a2a0862cc6a8765b39ef56fe5279e4",
          "blockNumber": "0xda0f3f",
          "blockTimestamp": "0x68cdab00",
          "transactionHash": "0x945faa39d207428c12be92b2a0783d184bc84fc1f6dccdd87cf3928d537f0676",
          "transactionIndex": "0x8",
          "logIndex": "0x9e",
          "removed": false
        }
      ],
      "logsBloom": "0x00000000000000000000000000042000000000002000000000800000000000000000000000000000000000000000000000000200000000000000000000000000000000000000000000000000400000000001000000000000000000000000000000000000000000000000000000000000000000000000000000000000000000400000000000000000000000000000000000000000000020000040000000000000000000000000000000000000000000000000000000000000000000000000000000000000000000000000000000000000000000000000000800000000000000000000000000000000000000000000000000000000000000000000400000000000",
      "type": "0x2",
      "transactionHash": "0x945faa39d207428c12be92b2a0783d184bc84fc1f6dccdd87cf3928d537f0676",
      "transactionIndex": "0x8",
      "blockHash": "0x0653f4a40105a6dcf45e97e250c2bcccd5a2a0862cc6a8765b39ef56fe5279e4",
      "blockNumber": "0xda0f3f",
      "gasUsed": "0x8c5d",
      "effectiveGasPrice": "0x5f5e101",
      "from": "0x0990be6db8c785fbbf9ded8baec612a10cae814b",
      "to": "0x3ec3849c33291a9ef4c5db86de593eb4a37fde45",
      "contractAddress": null
    },
    {
      "status": "0x1",
      "cumulativeGasUsed": "0x4ba86",
      "logs": [
        {
          "address": "0x3a73033c0b1407574c76bdbac67f126f6b4a9aa9",
          "topics": [
            "0x6ee10e9ed4d6ce9742703a498707862f4b00f1396a87195eb93267b3d7983981"
          ],
          "data": "0x00000000000000000000000080eede496655fb9047dd39d9f418d5483ed600df000000000000000000000000738ee62157f127c879ff5c4b7102eb0d166c7a6d",
          "blockHash": "0x64bce21afcca5db76303756bcf0c7e91bba7d37dd99f273297770928d4858141",
          "blockNumber": "0xda0f7c",
          "blockTimestamp": "0x68cdab3c",
          "transactionHash": "0xb7c19f551fbb63a42d2e7c8136cb73f6ba3c79cdb29e1401907a1eea0b5c68ed",
          "transactionIndex": "0x2",
          "logIndex": "0x6",
          "removed": false
        }
      ],
      "logsBloom": "0x00000000000000000000000000000000000000000000000000800000000000000000000000000000000000000000000000000002000000000000000000000000000000000000000000000100000000000000000000000000000000000000000000000000000000000000000000000000000010000000000000000000000000000000000000000000000000000000000000000000000000000000000000000000000000000000000000000000000000000000000000000000000000000000000400000001000000000000000000000000000000000000000000000000000000000000000000000000000000000000000000000000000000000000000000000000",
      "type": "0x2",
      "transactionHash": "0xb7c19f551fbb63a42d2e7c8136cb73f6ba3c79cdb29e1401907a1eea0b5c68ed",
      "transactionIndex": "0x2",
      "blockHash": "0x64bce21afcca5db76303756bcf0c7e91bba7d37dd99f273297770928d4858141",
      "blockNumber": "0xda0f7c",
      "gasUsed": "0xa069",
      "effectiveGasPrice": "0x5f5e101",
      "from": "0x0990be6db8c785fbbf9ded8baec612a10cae814b",
      "to": "0x80eede496655fb9047dd39d9f418d5483ed600df",
      "contractAddress": null
    },
    {
      "status": "0x1",
      "cumulativeGasUsed": "0x4c954",
      "logs": [
        {
          "address": "0x80eede496655fb9047dd39d9f418d5483ed600df",
          "topics": [
            "0x8be0079c531659141344cd1fd0a4f28419497f9722a3daafe3b4186f6b6457e0",
            "0x0000000000000000000000000990be6db8c785fbbf9ded8baec612a10cae814b",
            "0x000000000000000000000000738ee62157f127c879ff5c4b7102eb0d166c7a6d"
          ],
          "data": "0x",
          "blockHash": "0xc3d4775210104a43faabef7a1b60831a89df2d8c5adedfe4e8154333a521313b",
          "blockNumber": "0xda0fb9",
          "blockTimestamp": "0x68cdab78",
          "transactionHash": "0x712a8cf6b1534da3e0e098d1b4155dea1cadc6b8803bc6023731ca1eb1588185",
          "transactionIndex": "0x3",
          "logIndex": "0x2",
          "removed": false
        }
      ],
      "logsBloom": "0x00000000000000000000000000040000000000002000000000800000000000000000000000000000000000000800000000000200000000000000000200000000000000000000000000000000400000000001000000000000000000000000000000000000000000000000000000000000000000000000000000000000010000400000000000000000000000000000000000000000000000000000000000000000000000000000000000000000000000000000000000000000000000000000000000000000000000000000000000000000000000000000000800000000000000000000000000000000000000000000000000000000000000000000400000000000",
      "type": "0x2",
      "transactionHash": "0x712a8cf6b1534da3e0e098d1b4155dea1cadc6b8803bc6023731ca1eb1588185",
      "transactionIndex": "0x3",
      "blockHash": "0xc3d4775210104a43faabef7a1b60831a89df2d8c5adedfe4e8154333a521313b",
      "blockNumber": "0xda0fb9",
      "gasUsed": "0x8c5d",
      "effectiveGasPrice": "0x5f5e101",
      "from": "0x0990be6db8c785fbbf9ded8baec612a10cae814b",
      "to": "0x80eede496655fb9047dd39d9f418d5483ed600df",
      "contractAddress": null
    },
    {
      "status": "0x1",
      "cumulativeGasUsed": "0x5de86",
      "logs": [
        {
          "address": "0x3a73033c0b1407574c76bdbac67f126f6b4a9aa9",
          "topics": [
            "0x6ee10e9ed4d6ce9742703a498707862f4b00f1396a87195eb93267b3d7983981"
          ],
          "data": "0x00000000000000000000000043edd7f3831b08fe70b7555ddd373c8bf65a9050000000000000000000000000738ee62157f127c879ff5c4b7102eb0d166c7a6d",
          "blockHash": "0x1df49fafb2060e85fb1152c05393fa5fbd89b86df7649d0589bd89bb36999fcb",
          "blockNumber": "0xda0ff6",
          "blockTimestamp": "0x68cdabb4",
          "transactionHash": "0xd4f964da1d22aa66b0ac5980d8960359ce5bb04a5983dea5292ba7ebfb0cdf5b",
          "transactionIndex": "0x2",
          "logIndex": "0x6",
          "removed": false
        }
      ],
      "logsBloom": "0x00000000000000000000000000000000000000000000000000800000000000000000000000000000000000000000000000000002000000000000000000000000000000000000000000000100000000000000000000000000000000000000000000000000000000000000000000000000000010000000000000000000000000000000000000000000000000000000000000000000000000000000000000000000000000000000000000000000000000000000000000000000000000000000000400000001000000000000000000000000000000000000000000000000000000000000000000000000000000000000000000000000000000000000000000000000",
      "type": "0x2",
      "transactionHash": "0xd4f964da1d22aa66b0ac5980d8960359ce5bb04a5983dea5292ba7ebfb0cdf5b",
      "transactionIndex": "0x2",
      "blockHash": "0x1df49fafb2060e85fb1152c05393fa5fbd89b86df7649d0589bd89bb36999fcb",
      "blockNumber": "0xda0ff6",
      "gasUsed": "0xa069",
      "effectiveGasPrice": "0x5f5e101",
      "from": "0x0990be6db8c785fbbf9ded8baec612a10cae814b",
      "to": "0x43edd7f3831b08fe70b7555ddd373c8bf65a9050",
      "contractAddress": null
    },
    {
      "status": "0x1",
      "cumulativeGasUsed": "0x25df5",
      "logs": [
        {
          "address": "0x43edd7f3831b08fe70b7555ddd373c8bf65a9050",
          "topics": [
            "0x8be0079c531659141344cd1fd0a4f28419497f9722a3daafe3b4186f6b6457e0",
            "0x0000000000000000000000000990be6db8c785fbbf9ded8baec612a10cae814b",
            "0x000000000000000000000000738ee62157f127c879ff5c4b7102eb0d166c7a6d"
          ],
          "data": "0x",
          "blockHash": "0xc438a9bf8b4b8ea1acdaf76147ae87aca8328893331439682974dabd92795c4c",
          "blockNumber": "0xda1033",
          "blockTimestamp": "0x68cdabf0",
          "transactionHash": "0x68251054e946dd7e0becc70a637dea682b14e9b2ac4ca058598c7c0801008ffe",
          "transactionIndex": "0x1",
          "logIndex": "0x2",
          "removed": false
        }
      ],
      "logsBloom": "0x00000000000000000000000000040000000000002000000000800000000000000000000000000000000000000000000000000200000000000000000000000000000000000000000000000000400000000001000000000000000000000000000000000000000000000000000000000000000000000000000000000000000000400000000000000000000000000000000000000000000000000000000000000000000000000000000002000000000000000000000000000000000000000000000000000000000000000000000000000000000000000000000800000000000000000000000000000000000000040000000000000000000000000000400000080000",
      "type": "0x2",
      "transactionHash": "0x68251054e946dd7e0becc70a637dea682b14e9b2ac4ca058598c7c0801008ffe",
      "transactionIndex": "0x1",
      "blockHash": "0xc438a9bf8b4b8ea1acdaf76147ae87aca8328893331439682974dabd92795c4c",
      "blockNumber": "0xda1033",
      "gasUsed": "0x8c5d",
      "effectiveGasPrice": "0x5f5e101",
      "from": "0x0990be6db8c785fbbf9ded8baec612a10cae814b",
      "to": "0x43edd7f3831b08fe70b7555ddd373c8bf65a9050",
      "contractAddress": null
    },
    {
      "status": "0x1",
      "cumulativeGasUsed": "0x18026",
      "logs": [
        {
          "address": "0x3a73033c0b1407574c76bdbac67f126f6b4a9aa9",
          "topics": [
            "0x6ee10e9ed4d6ce9742703a498707862f4b00f1396a87195eb93267b3d7983981"
          ],
          "data": "0x00000000000000000000000090581eca9469d8d7f5d3b60f4715027adfcf7927000000000000000000000000738ee62157f127c879ff5c4b7102eb0d166c7a6d",
          "blockHash": "0xd545158309d97e25deb81bd38e12614c292e5a3c6e89a7fbda68a07c69e54624",
          "blockNumber": "0xda1070",
          "blockTimestamp": "0x68cdac2c",
          "transactionHash": "0xf796f04e6296f7d866ae32c05a6b96566125551dc9b992e026cd4247a75cc8c8",
          "transactionIndex": "0x2",
          "logIndex": "0x1",
          "removed": false
        }
      ],
      "logsBloom": "0x00000000000000000000000000000000000000000000000000800000000000000000000000000000000000000000000000000002000000000000000000000000000000000000000000000100000000000000000000000000000000000000000000000000000000000000000000000000000010000000000000000000000000000000000000000000000000000000000000000000000000000000000000000000000000000000000000000000000000000000000000000000000000000000000400000001000000000000000000000000000000000000000000000000000000000000000000000000000000000000000000000000000000000000000000000000",
      "type": "0x2",
      "transactionHash": "0xf796f04e6296f7d866ae32c05a6b96566125551dc9b992e026cd4247a75cc8c8",
      "transactionIndex": "0x2",
      "blockHash": "0xd545158309d97e25deb81bd38e12614c292e5a3c6e89a7fbda68a07c69e54624",
      "blockNumber": "0xda1070",
      "gasUsed": "0xa069",
      "effectiveGasPrice": "0x5f5e101",
      "from": "0x0990be6db8c785fbbf9ded8baec612a10cae814b",
      "to": "0x90581eca9469d8d7f5d3b60f4715027adfcf7927",
      "contractAddress": null
    },
    {
      "status": "0x1",
      "cumulativeGasUsed": "0x2796ed",
      "logs": [
        {
          "address": "0x90581eca9469d8d7f5d3b60f4715027adfcf7927",
          "topics": [
            "0x8be0079c531659141344cd1fd0a4f28419497f9722a3daafe3b4186f6b6457e0",
            "0x0000000000000000000000000990be6db8c785fbbf9ded8baec612a10cae814b",
            "0x000000000000000000000000738ee62157f127c879ff5c4b7102eb0d166c7a6d"
          ],
          "data": "0x",
          "blockHash": "0x661469fc0a80f7504a967951f47fa9572e14d359b55f4464717e0e12b38c8085",
          "blockNumber": "0xda10ad",
          "blockTimestamp": "0x68cdac68",
          "transactionHash": "0x0d76ff134f32da92ec0c74a73aa43da5bf4b42637128558e495210c14f262641",
          "transactionIndex": "0x9",
          "logIndex": "0x93",
          "removed": false
        }
      ],
      "logsBloom": "0x00000000000000000000000000040000000000002000000000800000000000000000000000000000000000000000000000000200000000000000000000000000000000000000000000000000400000000001000000000000000000000000000000000000000000000000000000000000000000000000000000000000000000400000000000000004000010000000000000000000000000000000000000000000000000000000000000000000000000000000000000000000000000000000000000000000000000000000000000000000000000000000000800000000000000000000000000000000000000000000000000400000000000000000400000000000",
      "type": "0x2",
      "transactionHash": "0x0d76ff134f32da92ec0c74a73aa43da5bf4b42637128558e495210c14f262641",
      "transactionIndex": "0x9",
      "blockHash": "0x661469fc0a80f7504a967951f47fa9572e14d359b55f4464717e0e12b38c8085",
      "blockNumber": "0xda10ad",
      "gasUsed": "0x8c5d",
      "effectiveGasPrice": "0x5f5e101",
      "from": "0x0990be6db8c785fbbf9ded8baec612a10cae814b",
      "to": "0x90581eca9469d8d7f5d3b60f4715027adfcf7927",
      "contractAddress": null
    },
    {
      "status": "0x1",
      "cumulativeGasUsed": "0xd393f",
      "logs": [
        {
          "address": "0x223a681fc5c5522c85c96157c0efa18cd6c5405c",
          "topics": [
            "0x8be0079c531659141344cd1fd0a4f28419497f9722a3daafe3b4186f6b6457e0",
            "0x0000000000000000000000000990be6db8c785fbbf9ded8baec612a10cae814b",
            "0x000000000000000000000000738ee62157f127c879ff5c4b7102eb0d166c7a6d"
          ],
          "data": "0x",
          "blockHash": "0x8e35c78af225dda1e31eaefbb89400d43da2fac9746dd27565e136214d1b57d0",
          "blockNumber": "0xda10ea",
          "blockTimestamp": "0x68cdaca4",
          "transactionHash": "0x8456141586aa8a2861d4ec62d0b32b605674439720a99f06f1edbf89e3e21fa7",
          "transactionIndex": "0x3",
          "logIndex": "0x6",
          "removed": false
        }
      ],
      "logsBloom": "0x00000000000000000000000000040000000000002000000000800000000000000000000000000000000000000000000000000200000000000000000000200000000000000000000000000000400000000001000000000000000000020000000000000000000000000000000000000000000000000000000000000000000000400000000000000000000000000000000000000000000000000000000000000000000000000000000000000000000000000000000000000000000000000000000000000000000000000000000000000000000000000000000800000000000000000000000000000000000000000000000200000000000000000000400000000000",
      "type": "0x2",
      "transactionHash": "0x8456141586aa8a2861d4ec62d0b32b605674439720a99f06f1edbf89e3e21fa7",
      "transactionIndex": "0x3",
      "blockHash": "0x8e35c78af225dda1e31eaefbb89400d43da2fac9746dd27565e136214d1b57d0",
      "blockNumber": "0xda10ea",
      "gasUsed": "0x6fb7",
      "effectiveGasPrice": "0x5f5e101",
      "from": "0x0990be6db8c785fbbf9ded8baec612a10cae814b",
      "to": "0x223a681fc5c5522c85c96157c0efa18cd6c5405c",
      "contractAddress": null
    }
  ],
  "libraries": [],
  "pending": [],
  "returns": {},
  "timestamp": 1758309541081,
  "chain": 999,
  "commit": "350255a"
}