{
  "transactions": [
    {
      "hash": "0x63ab797f4a3666a818ba7780d27cd307ec4ce39838253465d6fdf92d025eb047",
      "transactionType": "CALL",
      "contractName": null,
      "contractAddress": "0xd86fbbd0c8715d2c1f40e451e5c3514e65e7576a",
      "function": "send((uint32,bytes32,uint256,uint256,bytes,bytes,bytes),(uint256,uint256),address)",
      "arguments": [
        "(30370, 0x000000000000000000000000b0e1650a9760e0f383174af042091fc544b8356f, 100000000000000, 100000000000000, 0x0003, 0x, 0x)",
        "(48948501119957030, 0)",
        "0xb0E1650A9760e0f383174af042091fc544b8356f"
      ],
      "transaction": {
        "from": "0xb0e1650a9760e0f383174af042091fc544b8356f",
        "to": "0xd86fbbd0c8715d2c1f40e451e5c3514e65e7576a",
        "gas": "0x7ab82",
        "value": "0xade667058af826",
        "input": "0xc7c7f5b3000000000000000000000000000000000000000000000000000000000000008000000000000000000000000000000000000000000000000000ade667058af8260000000000000000000000000000000000000000000000000000000000000000000000000000000000000000b0e1650a9760e0f383174af042091fc544b8356f00000000000000000000000000000000000000000000000000000000000076a2000000000000000000000000b0e1650a9760e0f383174af042091fc544b8356f00000000000000000000000000000000000000000000000000005af3107a400000000000000000000000000000000000000000000000000000005af3107a400000000000000000000000000000000000000000000000000000000000000000e0000000000000000000000000000000000000000000000000000000000000012000000000000000000000000000000000000000000000000000000000000001400000000000000000000000000000000000000000000000000000000000000002000300000000000000000000000000000000000000000000000000000000000000000000000000000000000000000000000000000000000000000000000000000000000000000000000000000000000000000000000000000000000000000000",
        "nonce": "0x2e9",
        "chainId": "0xfc"
      },
      "additionalContracts": [],
      "isFixedGasLimit": false
    },
    {
      "hash": "0xfad01de5b73f94b79bd380be348376a576ae5b425c9c2ec8efa7247e81f689a9",
      "transactionType": "CALL",
      "contractName": null,
      "contractAddress": "0x88aa7854d3b2daa5e37e7ce73a1f39669623a361",
      "function": "send((uint32,bytes32,uint256,uint256,bytes,bytes,bytes),(uint256,uint256),address)",
      "arguments": [
        "(30370, 0x000000000000000000000000b0e1650a9760e0f383174af042091fc544b8356f, 100000000000000, 100000000000000, 0x0003, 0x, 0x)",
        "(48948501119957030, 0)",
        "0xb0E1650A9760e0f383174af042091fc544b8356f"
      ],
      "transaction": {
        "from": "0xb0e1650a9760e0f383174af042091fc544b8356f",
        "to": "0x88aa7854d3b2daa5e37e7ce73a1f39669623a361",
        "gas": "0x7b865",
        "value": "0xade667058af826",
        "input": "0xc7c7f5b3000000000000000000000000000000000000000000000000000000000000008000000000000000000000000000000000000000000000000000ade667058af8260000000000000000000000000000000000000000000000000000000000000000000000000000000000000000b0e1650a9760e0f383174af042091fc544b8356f00000000000000000000000000000000000000000000000000000000000076a2000000000000000000000000b0e1650a9760e0f383174af042091fc544b8356f00000000000000000000000000000000000000000000000000005af3107a400000000000000000000000000000000000000000000000000000005af3107a400000000000000000000000000000000000000000000000000000000000000000e0000000000000000000000000000000000000000000000000000000000000012000000000000000000000000000000000000000000000000000000000000001400000000000000000000000000000000000000000000000000000000000000002000300000000000000000000000000000000000000000000000000000000000000000000000000000000000000000000000000000000000000000000000000000000000000000000000000000000000000000000000000000000000000000000",
        "nonce": "0x2ea",
        "chainId": "0xfc"
      },
      "additionalContracts": [],
      "isFixedGasLimit": false
    },
    {
      "hash": "0x1370b1f20420134f9536e673460c11530b239d9f161c39e8f40548b0a1a10845",
      "transactionType": "CALL",
      "contractName": null,
      "contractAddress": "0x999dfabe3b1cc2ef66eb032eea42fea329bba168",
      "function": "send((uint32,bytes32,uint256,uint256,bytes,bytes,bytes),(uint256,uint256),address)",
      "arguments": [
        "(30370, 0x000000000000000000000000b0e1650a9760e0f383174af042091fc544b8356f, 100000000000000, 100000000000000, 0x0003, 0x, 0x)",
        "(48948501119957030, 0)",
        "0xb0E1650A9760e0f383174af042091fc544b8356f"
      ],
      "transaction": {
        "from": "0xb0e1650a9760e0f383174af042091fc544b8356f",
        "to": "0x999dfabe3b1cc2ef66eb032eea42fea329bba168",
        "gas": "0x7b0cd",
        "value": "0xade667058af826",
        "input": "0xc7c7f5b3000000000000000000000000000000000000000000000000000000000000008000000000000000000000000000000000000000000000000000ade667058af8260000000000000000000000000000000000000000000000000000000000000000000000000000000000000000b0e1650a9760e0f383174af042091fc544b8356f00000000000000000000000000000000000000000000000000000000000076a2000000000000000000000000b0e1650a9760e0f383174af042091fc544b8356f00000000000000000000000000000000000000000000000000005af3107a400000000000000000000000000000000000000000000000000000005af3107a400000000000000000000000000000000000000000000000000000000000000000e0000000000000000000000000000000000000000000000000000000000000012000000000000000000000000000000000000000000000000000000000000001400000000000000000000000000000000000000000000000000000000000000002000300000000000000000000000000000000000000000000000000000000000000000000000000000000000000000000000000000000000000000000000000000000000000000000000000000000000000000000000000000000000000000000",
        "nonce": "0x2eb",
        "chainId": "0xfc"
      },
      "additionalContracts": [],
      "isFixedGasLimit": false
    },
    {
      "hash": "0x6419ee772d7967085de9981c344700ac7c41e4e926f41210099c0df8afd3f408",
      "transactionType": "CALL",
      "contractName": null,
      "contractAddress": "0x96a394058e2b84a89bac9667b19661ed003cf5d4",
      "function": "send((uint32,bytes32,uint256,uint256,bytes,bytes,bytes),(uint256,uint256),address)",
      "arguments": [
        "(30370, 0x000000000000000000000000b0e1650a9760e0f383174af042091fc544b8356f, 100000000000000, 100000000000000, 0x0003, 0x, 0x)",
        "(48948501119957030, 0)",
        "0xb0E1650A9760e0f383174af042091fc544b8356f"
      ],
      "transaction": {
        "from": "0xb0e1650a9760e0f383174af042091fc544b8356f",
        "to": "0x96a394058e2b84a89bac9667b19661ed003cf5d4",
        "gas": "0x7b865",
        "value": "0xade667058af826",
        "input": "0xc7c7f5b3000000000000000000000000000000000000000000000000000000000000008000000000000000000000000000000000000000000000000000ade667058af8260000000000000000000000000000000000000000000000000000000000000000000000000000000000000000b0e1650a9760e0f383174af042091fc544b8356f00000000000000000000000000000000000000000000000000000000000076a2000000000000000000000000b0e1650a9760e0f383174af042091fc544b8356f00000000000000000000000000000000000000000000000000005af3107a400000000000000000000000000000000000000000000000000000005af3107a400000000000000000000000000000000000000000000000000000000000000000e0000000000000000000000000000000000000000000000000000000000000012000000000000000000000000000000000000000000000000000000000000001400000000000000000000000000000000000000000000000000000000000000002000300000000000000000000000000000000000000000000000000000000000000000000000000000000000000000000000000000000000000000000000000000000000000000000000000000000000000000000000000000000000000000000",
        "nonce": "0x2ec",
        "chainId": "0xfc"
      },
      "additionalContracts": [],
      "isFixedGasLimit": false
    },
    {
      "hash": "0x5bbce2cf0bf0a056724cc2236a94bcd46b49a9b5adfefcb2d97527e9efc4f91a",
      "transactionType": "CALL",
      "contractName": null,
      "contractAddress": "0x9abfe1f8a999b0011ecd6116649aee8d575f5604",
      "function": "send((uint32,bytes32,uint256,uint256,bytes,bytes,bytes),(uint256,uint256),address)",
      "arguments": [
        "(30370, 0x000000000000000000000000b0e1650a9760e0f383174af042091fc544b8356f, 100000000000000, 100000000000000, 0x0003, 0x, 0x)",
        "(48948501119957030, 0)",
        "0xb0E1650A9760e0f383174af042091fc544b8356f"
      ],
      "transaction": {
        "from": "0xb0e1650a9760e0f383174af042091fc544b8356f",
        "to": "0x9abfe1f8a999b0011ecd6116649aee8d575f5604",
        "gas": "0x73e2e",
        "value": "0xade667058af826",
        "input": "0xc7c7f5b3000000000000000000000000000000000000000000000000000000000000008000000000000000000000000000000000000000000000000000ade667058af8260000000000000000000000000000000000000000000000000000000000000000000000000000000000000000b0e1650a9760e0f383174af042091fc544b8356f00000000000000000000000000000000000000000000000000000000000076a2000000000000000000000000b0e1650a9760e0f383174af042091fc544b8356f00000000000000000000000000000000000000000000000000005af3107a400000000000000000000000000000000000000000000000000000005af3107a400000000000000000000000000000000000000000000000000000000000000000e0000000000000000000000000000000000000000000000000000000000000012000000000000000000000000000000000000000000000000000000000000001400000000000000000000000000000000000000000000000000000000000000002000300000000000000000000000000000000000000000000000000000000000000000000000000000000000000000000000000000000000000000000000000000000000000000000000000000000000000000000000000000000000000000000",
        "nonce": "0x2ed",
        "chainId": "0xfc"
      },
      "additionalContracts": [],
      "isFixedGasLimit": false
    },
    {
      "hash": "0x9d0a43ce4079030f221471c2fabaef16bd531d438069d6c8cb768531f4499040",
      "transactionType": "CALL",
      "contractName": null,
      "contractAddress": "0x75c38d46001b0f8108c4136216bd2694982c20fc",
      "function": "send((uint32,bytes32,uint256,uint256,bytes,bytes,bytes),(uint256,uint256),address)",
      "arguments": [
        "(30370, 0x000000000000000000000000b0e1650a9760e0f383174af042091fc544b8356f, 100000000000000, 100000000000000, 0x0003, 0x, 0x)",
        "(48948501119957030, 0)",
        "0xb0E1650A9760e0f383174af042091fc544b8356f"
      ],
      "transaction": {
        "from": "0xb0e1650a9760e0f383174af042091fc544b8356f",
        "to": "0x75c38d46001b0f8108c4136216bd2694982c20fc",
        "gas": "0x7b0cd",
        "value": "0xade667058af826",
        "input": "0xc7c7f5b3000000000000000000000000000000000000000000000000000000000000008000000000000000000000000000000000000000000000000000ade667058af8260000000000000000000000000000000000000000000000000000000000000000000000000000000000000000b0e1650a9760e0f383174af042091fc544b8356f00000000000000000000000000000000000000000000000000000000000076a2000000000000000000000000b0e1650a9760e0f383174af042091fc544b8356f00000000000000000000000000000000000000000000000000005af3107a400000000000000000000000000000000000000000000000000000005af3107a400000000000000000000000000000000000000000000000000000000000000000e0000000000000000000000000000000000000000000000000000000000000012000000000000000000000000000000000000000000000000000000000000001400000000000000000000000000000000000000000000000000000000000000002000300000000000000000000000000000000000000000000000000000000000000000000000000000000000000000000000000000000000000000000000000000000000000000000000000000000000000000000000000000000000000000000",
        "nonce": "0x2ee",
        "chainId": "0xfc"
      },
      "additionalContracts": [],
      "isFixedGasLimit": false
    }
  ],
  "receipts": [
    {
      "status": "0x1",
      "cumulativeGasUsed": "0x5f28f",
      "logs": [
        {
          "address": "0xfc00000000000000000000000000000000000002",
          "topics": [
            "0xddf252ad1be2c89b69c2b068fc378daa952ba7f163c4a11628f55a4df523b3ef",
            "0x000000000000000000000000b0e1650a9760e0f383174af042091fc544b8356f",
            "0x000000000000000000000000d86fbbd0c8715d2c1f40e451e5c3514e65e7576a"
          ],
          "data": "0x00000000000000000000000000000000000000000000000000005af3107a4000",
          "blockHash": "0xfd0db0b7468ff22f0c4223a40dcd3041f0b2a885bf1ea0db75782921153d9775",
          "blockNumber": "0x1636d5c",
          "transactionHash": "0x63ab797f4a3666a818ba7780d27cd307ec4ce39838253465d6fdf92d025eb047",
          "transactionIndex": "0x1",
          "logIndex": "0x0",
          "removed": false
        },
        {
          "address": "0x377530cda84dfb2673bf4d145dcf0c4d7fdcb5b6",
          "topics": [
            "0x61ed099e74a97a1d7f8bb0952a88ca8b7b8ebd00c126ea04671f92a81213318a"
          ],
          "data": "0x00000000000000000000000041bdb4aa4a63a5b2efc531858d3118392b1a1c3d00000000000000000000000000000000000000000000000000346b21a10ad95e",
          "blockHash": "0xfd0db0b7468ff22f0c4223a40dcd3041f0b2a885bf1ea0db75782921153d9775",
          "blockNumber": "0x1636d5c",
          "transactionHash": "0x63ab797f4a3666a818ba7780d27cd307ec4ce39838253465d6fdf92d025eb047",
          "transactionIndex": "0x1",
          "logIndex": "0x1",
          "removed": false
        },
        {
          "address": "0x377530cda84dfb2673bf4d145dcf0c4d7fdcb5b6",
          "topics": [
            "0x07ea52d82345d6e838192107d8fd7123d9c2ec8e916cd0aad13fd2b60db24644"
          ],
          "data": "0x000000000000000000000000000000000000000000000000000000000000006000000000000000000000000000000000000000000000000000000000000000e00000000000000000000000000000000000000000000000000000000000000100000000000000000000000000000000000000000000000000000000000000000300000000000000000000000026cd5abadf7ec3f0f02b48314bfca6b2342cddd4000000000000000000000000cce466a522984415bc91338c232d98869193d46e000000000000000000000000dd7b5e1db4aafd5c8ec3b764efb8ed265aa5445b00000000000000000000000000000000000000000000000000000000000000000000000000000000000000000000000000000000000000000000000000000003000000000000000000000000000000000000000000000000000bd42182c0424d000000000000000000000000000000000000000000000000000b59f82f7d3034000000000000000000000000000000000000000000000000000b59f82f7d3034",
          "blockHash": "0xfd0db0b7468ff22f0c4223a40dcd3041f0b2a885bf1ea0db75782921153d9775",
          "blockNumber": "0x1636d5c",
          "transactionHash": "0x63ab797f4a3666a818ba7780d27cd307ec4ce39838253465d6fdf92d025eb047",
          "transactionIndex": "0x1",
          "logIndex": "0x2",
          "removed": false
        },
        {
          "address": "0x1a44076050125825900e736c501f859c50fe728c",
          "topics": [
            "0x1ab700d4ced0c005b164c0f789fd09fcbb0156d4c2041b8a3bfbcd961cd1567f"
          ],
          "data": "0x00000000000000000000000000000000000000000000000000000000000000600000000000000000000000000000000000000000000000000000000000000120000000000000000000000000377530cda84dfb2673bf4d145dcf0c4d7fdcb5b600000000000000000000000000000000000000000000000000000000000000990100000000000000010000762f000000000000000000000000d86fbbd0c8715d2c1f40e451e5c3514e65e7576a000076a200000000000000000000000064445f0aecc51e94ad52d8ac56b7190e764e561a41ea2d97aa93cb92fcccdbb983e206922a59c37581c05a7456e3666f75eeb13c000000000000000000000000b0e1650a9760e0f383174af042091fc544b8356f000000000000006400000000000000000000000000000000000000000000000000000000000000000000000000001600030100110100000000000000000000000000030d4000000000000000000000",
          "blockHash": "0xfd0db0b7468ff22f0c4223a40dcd3041f0b2a885bf1ea0db75782921153d9775",
          "blockNumber": "0x1636d5c",
          "transactionHash": "0x63ab797f4a3666a818ba7780d27cd307ec4ce39838253465d6fdf92d025eb047",
          "transactionIndex": "0x1",
          "logIndex": "0x3",
          "removed": false
        },
        {
          "address": "0xd86fbbd0c8715d2c1f40e451e5c3514e65e7576a",
          "topics": [
            "0x85496b760a4b7f8d66384b9df21b381f5d1b1e79f229a47aaf4c232edc2fe59a",
            "0x41ea2d97aa93cb92fcccdbb983e206922a59c37581c05a7456e3666f75eeb13c",
            "0x000000000000000000000000b0e1650a9760e0f383174af042091fc544b8356f"
          ],
          "data": "0x00000000000000000000000000000000000000000000000000000000000076a200000000000000000000000000000000000000000000000000005af3107a400000000000000000000000000000000000000000000000000000005af3107a4000",
          "blockHash": "0xfd0db0b7468ff22f0c4223a40dcd3041f0b2a885bf1ea0db75782921153d9775",
          "blockNumber": "0x1636d5c",
          "transactionHash": "0x63ab797f4a3666a818ba7780d27cd307ec4ce39838253465d6fdf92d025eb047",
          "transactionIndex": "0x1",
          "logIndex": "0x4",
          "removed": false
        }
      ],
      "logsBloom": "0x00000000000000000000000000000100000000000000000000000000001000000200000000000000000000000000400000040000000000000000000000000000000002004000000000000008000400000000000000000000000800800000000000000000000000008000000000000000000000000110080000000410000000000000000000000000000000080000000000000000000000000000000000100000000000008000001000100100000000000000000000400000000440000000000000000002000000000000000080400000000000000000000000000000000000000801040080000000000000000000002000000000018000000000000000000000",
      "type": "0x2",
      "transactionHash": "0x63ab797f4a3666a818ba7780d27cd307ec4ce39838253465d6fdf92d025eb047",
      "transactionIndex": "0x1",
      "blockHash": "0xfd0db0b7468ff22f0c4223a40dcd3041f0b2a885bf1ea0db75782921153d9775",
      "blockNumber": "0x1636d5c",
      "gasUsed": "0x53e92",
      "effectiveGasPrice": "0x7a3f6",
      "from": "0xb0e1650a9760e0f383174af042091fc544b8356f",
      "to": "0xd86fbbd0c8715d2c1f40e451e5c3514e65e7576a",
      "contractAddress": null,
      "l1BaseFeeScalar": "0x2faf080",
      "l1BlobBaseFee": "0x1",
      "l1BlobBaseFeeScalar": "0x0",
      "l1Fee": "0x202d1326bce1",
      "l1GasPrice": "0x119843b9",
      "l1GasUsed": "0x95c"
    },
    {
      "status": "0x1",
      "cumulativeGasUsed": "0xb39f1",
      "logs": [
        {
          "address": "0xfc00000000000000000000000000000000000008",
          "topics": [
            "0xddf252ad1be2c89b69c2b068fc378daa952ba7f163c4a11628f55a4df523b3ef",
            "0x000000000000000000000000b0e1650a9760e0f383174af042091fc544b8356f",
            "0x00000000000000000000000088aa7854d3b2daa5e37e7ce73a1f39669623a361"
          ],
          "data": "0x00000000000000000000000000000000000000000000000000005af3107a4000",
          "blockHash": "0xfd0db0b7468ff22f0c4223a40dcd3041f0b2a885bf1ea0db75782921153d9775",
          "blockNumber": "0x1636d5c",
          "transactionHash": "0xfad01de5b73f94b79bd380be348376a576ae5b425c9c2ec8efa7247e81f689a9",
          "transactionIndex": "0x2",
          "logIndex": "0x5",
          "removed": false
        },
        {
          "address": "0x377530cda84dfb2673bf4d145dcf0c4d7fdcb5b6",
          "topics": [
            "0x61ed099e74a97a1d7f8bb0952a88ca8b7b8ebd00c126ea04671f92a81213318a"
          ],
          "data": "0x00000000000000000000000041bdb4aa4a63a5b2efc531858d3118392b1a1c3d00000000000000000000000000000000000000000000000000346b21a10ad95e",
          "blockHash": "0xfd0db0b7468ff22f0c4223a40dcd3041f0b2a885bf1ea0db75782921153d9775",
          "blockNumber": "0x1636d5c",
          "transactionHash": "0xfad01de5b73f94b79bd380be348376a576ae5b425c9c2ec8efa7247e81f689a9",
          "transactionIndex": "0x2",
          "logIndex": "0x6",
          "removed": false
        },
        {
          "address": "0x377530cda84dfb2673bf4d145dcf0c4d7fdcb5b6",
          "topics": [
            "0x07ea52d82345d6e838192107d8fd7123d9c2ec8e916cd0aad13fd2b60db24644"
          ],
          "data": "0x000000000000000000000000000000000000000000000000000000000000006000000000000000000000000000000000000000000000000000000000000000e00000000000000000000000000000000000000000000000000000000000000100000000000000000000000000000000000000000000000000000000000000000300000000000000000000000026cd5abadf7ec3f0f02b48314bfca6b2342cddd4000000000000000000000000cce466a522984415bc91338c232d98869193d46e000000000000000000000000dd7b5e1db4aafd5c8ec3b764efb8ed265aa5445b00000000000000000000000000000000000000000000000000000000000000000000000000000000000000000000000000000000000000000000000000000003000000000000000000000000000000000000000000000000000bd42182c0424d000000000000000000000000000000000000000000000000000b59f82f7d3034000000000000000000000000000000000000000000000000000b59f82f7d3034",
          "blockHash": "0xfd0db0b7468ff22f0c4223a40dcd3041f0b2a885bf1ea0db75782921153d9775",
          "blockNumber": "0x1636d5c",
          "transactionHash": "0xfad01de5b73f94b79bd380be348376a576ae5b425c9c2ec8efa7247e81f689a9",
          "transactionIndex": "0x2",
          "logIndex": "0x7",
          "removed": false
        },
        {
          "address": "0x1a44076050125825900e736c501f859c50fe728c",
          "topics": [
            "0x1ab700d4ced0c005b164c0f789fd09fcbb0156d4c2041b8a3bfbcd961cd1567f"
          ],
          "data": "0x00000000000000000000000000000000000000000000000000000000000000600000000000000000000000000000000000000000000000000000000000000120000000000000000000000000377530cda84dfb2673bf4d145dcf0c4d7fdcb5b600000000000000000000000000000000000000000000000000000000000000990100000000000000010000762f00000000000000000000000088aa7854d3b2daa5e37e7ce73a1f39669623a361000076a20000000000000000000000005bff88ca1442c2496f7e475e9e7786383bc070c05f8ed411fac940c3a564b7ee48064f3d34f3714d1ab9d29bc7c3065abca0f88e000000000000000000000000b0e1650a9760e0f383174af042091fc544b8356f000000000000006400000000000000000000000000000000000000000000000000000000000000000000000000001600030100110100000000000000000000000000030d4000000000000000000000",
          "blockHash": "0xfd0db0b7468ff22f0c4223a40dcd3041f0b2a885bf1ea0db75782921153d9775",
          "blockNumber": "0x1636d5c",
          "transactionHash": "0xfad01de5b73f94b79bd380be348376a576ae5b425c9c2ec8efa7247e81f689a9",
          "transactionIndex": "0x2",
          "logIndex": "0x8",
          "removed": false
        },
        {
          "address": "0x88aa7854d3b2daa5e37e7ce73a1f39669623a361",
          "topics": [
            "0x85496b760a4b7f8d66384b9df21b381f5d1b1e79f229a47aaf4c232edc2fe59a",
            "0x5f8ed411fac940c3a564b7ee48064f3d34f3714d1ab9d29bc7c3065abca0f88e",
            "0x000000000000000000000000b0e1650a9760e0f383174af042091fc544b8356f"
          ],
          "data": "0x00000000000000000000000000000000000000000000000000000000000076a200000000000000000000000000000000000000000000000000005af3107a400000000000000000000000000000000000000000000000000000005af3107a4000",
          "blockHash": "0xfd0db0b7468ff22f0c4223a40dcd3041f0b2a885bf1ea0db75782921153d9775",
          "blockNumber": "0x1636d5c",
          "transactionHash": "0xfad01de5b73f94b79bd380be348376a576ae5b425c9c2ec8efa7247e81f689a9",
          "transactionIndex": "0x2",
          "logIndex": "0x9",
          "removed": false
        }
      ],
      "logsBloom": "0x00000000000000000000000000000000100000000000000000002000005000000000000400100000000000000000000000040000000000000000000000000000000002000000000000000008000000000000000000000000000000000020000000000000000400008000000000000000000000000110080000000410000000000000000000000000000000080000002000000000000000000000000000000000000000008004000000100000000000000000000000400000000440000000000008000002000000000000000080000000000000000000000000000000000000000001040080000000000000000100002000000000018000000000000000000000",
      "type": "0x2",
      "transactionHash": "0xfad01de5b73f94b79bd380be348376a576ae5b425c9c2ec8efa7247e81f689a9",
      "transactionIndex": "0x2",
      "blockHash": "0xfd0db0b7468ff22f0c4223a40dcd3041f0b2a885bf1ea0db75782921153d9775",
      "blockNumber": "0x1636d5c",
      "gasUsed": "0x54762",
      "effectiveGasPrice": "0x7a3f6",
      "from": "0xb0e1650a9760e0f383174af042091fc544b8356f",
      "to": "0x88aa7854d3b2daa5e37e7ce73a1f39669623a361",
      "contractAddress": null,
      "l1BaseFeeScalar": "0x2faf080",
      "l1BlobBaseFee": "0x1",
      "l1BlobBaseFeeScalar": "0x0",
      "l1Fee": "0x202d1326bce1",
      "l1GasPrice": "0x119843b9",
      "l1GasUsed": "0x95c"
    },
    {
      "status": "0x1",
      "cumulativeGasUsed": "0x107c22",
      "logs": [
        {
          "address": "0xfc00000000000000000000000000000000000005",
          "topics": [
            "0xddf252ad1be2c89b69c2b068fc378daa952ba7f163c4a11628f55a4df523b3ef",
            "0x000000000000000000000000b0e1650a9760e0f383174af042091fc544b8356f",
            "0x000000000000000000000000999dfabe3b1cc2ef66eb032eea42fea329bba168"
          ],
          "data": "0x00000000000000000000000000000000000000000000000000005af3107a4000",
          "blockHash": "0xfd0db0b7468ff22f0c4223a40dcd3041f0b2a885bf1ea0db75782921153d9775",
          "blockNumber": "0x1636d5c",
          "transactionHash": "0x1370b1f20420134f9536e673460c11530b239d9f161c39e8f40548b0a1a10845",
          "transactionIndex": "0x3",
          "logIndex": "0xa",
          "removed": false
        },
        {
          "address": "0x377530cda84dfb2673bf4d145dcf0c4d7fdcb5b6",
          "topics": [
            "0x61ed099e74a97a1d7f8bb0952a88ca8b7b8ebd00c126ea04671f92a81213318a"
          ],
          "data": "0x00000000000000000000000041bdb4aa4a63a5b2efc531858d3118392b1a1c3d00000000000000000000000000000000000000000000000000346b21a10ad95e",
          "blockHash": "0xfd0db0b7468ff22f0c4223a40dcd3041f0b2a885bf1ea0db75782921153d9775",
          "blockNumber": "0x1636d5c",
          "transactionHash": "0x1370b1f20420134f9536e673460c11530b239d9f161c39e8f40548b0a1a10845",
          "transactionIndex": "0x3",
          "logIndex": "0xb",
          "removed": false
        },
        {
          "address": "0x377530cda84dfb2673bf4d145dcf0c4d7fdcb5b6",
          "topics": [
            "0x07ea52d82345d6e838192107d8fd7123d9c2ec8e916cd0aad13fd2b60db24644"
          ],
          "data": "0x000000000000000000000000000000000000000000000000000000000000006000000000000000000000000000000000000000000000000000000000000000e00000000000000000000000000000000000000000000000000000000000000100000000000000000000000000000000000000000000000000000000000000000300000000000000000000000026cd5abadf7ec3f0f02b48314bfca6b2342cddd4000000000000000000000000cce466a522984415bc91338c232d98869193d46e000000000000000000000000dd7b5e1db4aafd5c8ec3b764efb8ed265aa5445b00000000000000000000000000000000000000000000000000000000000000000000000000000000000000000000000000000000000000000000000000000003000000000000000000000000000000000000000000000000000bd42182c0424d000000000000000000000000000000000000000000000000000b59f82f7d3034000000000000000000000000000000000000000000000000000b59f82f7d3034",
          "blockHash": "0xfd0db0b7468ff22f0c4223a40dcd3041f0b2a885bf1ea0db75782921153d9775",
          "blockNumber": "0x1636d5c",
          "transactionHash": "0x1370b1f20420134f9536e673460c11530b239d9f161c39e8f40548b0a1a10845",
          "transactionIndex": "0x3",
          "logIndex": "0xc",
          "removed": false
        },
        {
          "address": "0x1a44076050125825900e736c501f859c50fe728c",
          "topics": [
            "0x1ab700d4ced0c005b164c0f789fd09fcbb0156d4c2041b8a3bfbcd961cd1567f"
          ],
          "data": "0x00000000000000000000000000000000000000000000000000000000000000600000000000000000000000000000000000000000000000000000000000000120000000000000000000000000377530cda84dfb2673bf4d145dcf0c4d7fdcb5b600000000000000000000000000000000000000000000000000000000000000990100000000000000010000762f000000000000000000000000999dfabe3b1cc2ef66eb032eea42fea329bba168000076a20000000000000000000000003ec3849c33291a9ef4c5db86de593eb4a37fde45855160ad99317a8397623a7d1dfd35d1fbdac0ad4f65e0a40485532d1f774560000000000000000000000000b0e1650a9760e0f383174af042091fc544b8356f000000000000006400000000000000000000000000000000000000000000000000000000000000000000000000001600030100110100000000000000000000000000030d4000000000000000000000",
          "blockHash": "0xfd0db0b7468ff22f0c4223a40dcd3041f0b2a885bf1ea0db75782921153d9775",
          "blockNumber": "0x1636d5c",
          "transactionHash": "0x1370b1f20420134f9536e673460c11530b239d9f161c39e8f40548b0a1a10845",
          "transactionIndex": "0x3",
          "logIndex": "0xd",
          "removed": false
        },
        {
          "address": "0x999dfabe3b1cc2ef66eb032eea42fea329bba168",
          "topics": [
            "0x85496b760a4b7f8d66384b9df21b381f5d1b1e79f229a47aaf4c232edc2fe59a",
            "0x855160ad99317a8397623a7d1dfd35d1fbdac0ad4f65e0a40485532d1f774560",
            "0x000000000000000000000000b0e1650a9760e0f383174af042091fc544b8356f"
          ],
          "data": "0x00000000000000000000000000000000000000000000000000000000000076a200000000000000000000000000000000000000000000000000005af3107a400000000000000000000000000000000000000000000000000000005af3107a4000",
          "blockHash": "0xfd0db0b7468ff22f0c4223a40dcd3041f0b2a885bf1ea0db75782921153d9775",
          "blockNumber": "0x1636d5c",
          "transactionHash": "0x1370b1f20420134f9536e673460c11530b239d9f161c39e8f40548b0a1a10845",
          "transactionIndex": "0x3",
          "logIndex": "0xe",
          "removed": false
        }
      ],
      "logsBloom": "0x00000000000000200000000000000040000000000000000000000000001000000000000000000000000000000080000000040000000000000000000000000000000002000000000040000008000000000000000000000000000000000000000020000000000000008000000000080000000000000110080000000410000000000000000000000000040000080000000000000008000000040000000000000000000000008010000000100000000000000000000000400000000440040000000000000002000000000040000080000000000000000000000000000000000000000001040080000000000000000000002000000000018000000000000000000000",
      "type": "0x2",
      "transactionHash": "0x1370b1f20420134f9536e673460c11530b239d9f161c39e8f40548b0a1a10845",
      "transactionIndex": "0x3",
      "blockHash": "0xfd0db0b7468ff22f0c4223a40dcd3041f0b2a885bf1ea0db75782921153d9775",
      "blockNumber": "0x1636d5c",
      "gasUsed": "0x54231",
      "effectiveGasPrice": "0x7a3f6",
      "from": "0xb0e1650a9760e0f383174af042091fc544b8356f",
      "to": "0x999dfabe3b1cc2ef66eb032eea42fea329bba168",
      "contractAddress": null,
      "l1BaseFeeScalar": "0x2faf080",
      "l1BlobBaseFee": "0x1",
      "l1BlobBaseFeeScalar": "0x0",
      "l1Fee": "0x202d1326bce1",
      "l1GasPrice": "0x119843b9",
      "l1GasUsed": "0x95c"
    },
    {
      "status": "0x1",
      "cumulativeGasUsed": "0x15c384",
      "logs": [
        {
          "address": "0xfc00000000000000000000000000000000000001",
          "topics": [
            "0xddf252ad1be2c89b69c2b068fc378daa952ba7f163c4a11628f55a4df523b3ef",
            "0x000000000000000000000000b0e1650a9760e0f383174af042091fc544b8356f",
            "0x00000000000000000000000096a394058e2b84a89bac9667b19661ed003cf5d4"
          ],
          "data": "0x00000000000000000000000000000000000000000000000000005af3107a4000",
          "blockHash": "0xfd0db0b7468ff22f0c4223a40dcd3041f0b2a885bf1ea0db75782921153d9775",
          "blockNumber": "0x1636d5c",
          "transactionHash": "0x6419ee772d7967085de9981c344700ac7c41e4e926f41210099c0df8afd3f408",
          "transactionIndex": "0x4",
          "logIndex": "0xf",
          "removed": false
        },
        {
          "address": "0x377530cda84dfb2673bf4d145dcf0c4d7fdcb5b6",
          "topics": [
            "0x61ed099e74a97a1d7f8bb0952a88ca8b7b8ebd00c126ea04671f92a81213318a"
          ],
          "data": "0x00000000000000000000000041bdb4aa4a63a5b2efc531858d3118392b1a1c3d00000000000000000000000000000000000000000000000000346b21a10ad95e",
          "blockHash": "0xfd0db0b7468ff22f0c4223a40dcd3041f0b2a885bf1ea0db75782921153d9775",
          "blockNumber": "0x1636d5c",
          "transactionHash": "0x6419ee772d7967085de9981c344700ac7c41e4e926f41210099c0df8afd3f408",
          "transactionIndex": "0x4",
          "logIndex": "0x10",
          "removed": false
        },
        {
          "address": "0x377530cda84dfb2673bf4d145dcf0c4d7fdcb5b6",
          "topics": [
            "0x07ea52d82345d6e838192107d8fd7123d9c2ec8e916cd0aad13fd2b60db24644"
          ],
          "data": "0x000000000000000000000000000000000000000000000000000000000000006000000000000000000000000000000000000000000000000000000000000000e00000000000000000000000000000000000000000000000000000000000000100000000000000000000000000000000000000000000000000000000000000000300000000000000000000000026cd5abadf7ec3f0f02b48314bfca6b2342cddd4000000000000000000000000cce466a522984415bc91338c232d98869193d46e000000000000000000000000dd7b5e1db4aafd5c8ec3b764efb8ed265aa5445b00000000000000000000000000000000000000000000000000000000000000000000000000000000000000000000000000000000000000000000000000000003000000000000000000000000000000000000000000000000000bd42182c0424d000000000000000000000000000000000000000000000000000b59f82f7d3034000000000000000000000000000000000000000000000000000b59f82f7d3034",
          "blockHash": "0xfd0db0b7468ff22f0c4223a40dcd3041f0b2a885bf1ea0db75782921153d9775",
          "blockNumber": "0x1636d5c",
          "transactionHash": "0x6419ee772d7967085de9981c344700ac7c41e4e926f41210099c0df8afd3f408",
          "transactionIndex": "0x4",
          "logIndex": "0x11",
          "removed": false
        },
        {
          "address": "0x1a44076050125825900e736c501f859c50fe728c",
          "topics": [
            "0x1ab700d4ced0c005b164c0f789fd09fcbb0156d4c2041b8a3bfbcd961cd1567f"
          ],
          "data": "0x00000000000000000000000000000000000000000000000000000000000000600000000000000000000000000000000000000000000000000000000000000120000000000000000000000000377530cda84dfb2673bf4d145dcf0c4d7fdcb5b600000000000000000000000000000000000000000000000000000000000000990100000000000000010000762f00000000000000000000000096a394058e2b84a89bac9667b19661ed003cf5d4000076a200000000000000000000000080eede496655fb9047dd39d9f418d5483ed600df0c91d94f0989d7b55b1ba84e7a6d4369767fb6dbf476bfde687bbf9f0060642b000000000000000000000000b0e1650a9760e0f383174af042091fc544b8356f000000000000006400000000000000000000000000000000000000000000000000000000000000000000000000001600030100110100000000000000000000000000030d4000000000000000000000",
          "blockHash": "0xfd0db0b7468ff22f0c4223a40dcd3041f0b2a885bf1ea0db75782921153d9775",
          "blockNumber": "0x1636d5c",
          "transactionHash": "0x6419ee772d7967085de9981c344700ac7c41e4e926f41210099c0df8afd3f408",
          "transactionIndex": "0x4",
          "logIndex": "0x12",
          "removed": false
        },
        {
          "address": "0x96a394058e2b84a89bac9667b19661ed003cf5d4",
          "topics": [
            "0x85496b760a4b7f8d66384b9df21b381f5d1b1e79f229a47aaf4c232edc2fe59a",
            "0x0c91d94f0989d7b55b1ba84e7a6d4369767fb6dbf476bfde687bbf9f0060642b",
            "0x000000000000000000000000b0e1650a9760e0f383174af042091fc544b8356f"
          ],
          "data": "0x00000000000000000000000000000000000000000000000000000000000076a200000000000000000000000000000000000000000000000000005af3107a400000000000000000000000000000000000000000000000000000005af3107a4000",
          "blockHash": "0xfd0db0b7468ff22f0c4223a40dcd3041f0b2a885bf1ea0db75782921153d9775",
          "blockNumber": "0x1636d5c",
          "transactionHash": "0x6419ee772d7967085de9981c344700ac7c41e4e926f41210099c0df8afd3f408",
          "transactionIndex": "0x4",
          "logIndex": "0x13",
          "removed": false
        }
      ],
      "logsBloom": "0x44000000000000000000000000000000000000000000000000000000001000000000000000000000000000000000000000040000000000000000000000000000000002200000000000000008000000000000000000000000010000000000000000000000000000008000100000800000000000000110080000000410000000000000000000000000000000080000000000004000000000000000000000000000000000008000000000100080000000000000000000400000000440000000000000000022000000000800000080000000000010000000000000000000000000000001040080000000000000000001002000000000018000000000000000000000",
      "type": "0x2",
      "transactionHash": "0x6419ee772d7967085de9981c344700ac7c41e4e926f41210099c0df8afd3f408",
      "transactionIndex": "0x4",
      "blockHash": "0xfd0db0b7468ff22f0c4223a40dcd3041f0b2a885bf1ea0db75782921153d9775",
      "blockNumber": "0x1636d5c",
      "gasUsed": "0x54762",
      "effectiveGasPrice": "0x7a3f6",
      "from": "0xb0e1650a9760e0f383174af042091fc544b8356f",
      "to": "0x96a394058e2b84a89bac9667b19661ed003cf5d4",
      "contractAddress": null,
      "l1BaseFeeScalar": "0x2faf080",
      "l1BlobBaseFee": "0x1",
      "l1BlobBaseFeeScalar": "0x0",
      "l1Fee": "0x202d1326bce1",
      "l1GasPrice": "0x119843b9",
      "l1GasUsed": "0x95c"
    },
    {
      "status": "0x1",
      "cumulativeGasUsed": "0x1b01e9",
      "logs": [
        {
          "address": "0xfc00000000000000000000000000000000000006",
          "topics": [
            "0xddf252ad1be2c89b69c2b068fc378daa952ba7f163c4a11628f55a4df523b3ef",
            "0x000000000000000000000000b0e1650a9760e0f383174af042091fc544b8356f",
            "0x0000000000000000000000009abfe1f8a999b0011ecd6116649aee8d575f5604"
          ],
          "data": "0x00000000000000000000000000000000000000000000000000005af3107a4000",
          "blockHash": "0xfd0db0b7468ff22f0c4223a40dcd3041f0b2a885bf1ea0db75782921153d9775",
          "blockNumber": "0x1636d5c",
          "transactionHash": "0x5bbce2cf0bf0a056724cc2236a94bcd46b49a9b5adfefcb2d97527e9efc4f91a",
          "transactionIndex": "0x5",
          "logIndex": "0x14",
          "removed": false
        },
        {
          "address": "0x377530cda84dfb2673bf4d145dcf0c4d7fdcb5b6",
          "topics": [
            "0x61ed099e74a97a1d7f8bb0952a88ca8b7b8ebd00c126ea04671f92a81213318a"
          ],
          "data": "0x00000000000000000000000041bdb4aa4a63a5b2efc531858d3118392b1a1c3d00000000000000000000000000000000000000000000000000346b21a10ad95e",
          "blockHash": "0xfd0db0b7468ff22f0c4223a40dcd3041f0b2a885bf1ea0db75782921153d9775",
          "blockNumber": "0x1636d5c",
          "transactionHash": "0x5bbce2cf0bf0a056724cc2236a94bcd46b49a9b5adfefcb2d97527e9efc4f91a",
          "transactionIndex": "0x5",
          "logIndex": "0x15",
          "removed": false
        },
        {
          "address": "0x377530cda84dfb2673bf4d145dcf0c4d7fdcb5b6",
          "topics": [
            "0x07ea52d82345d6e838192107d8fd7123d9c2ec8e916cd0aad13fd2b60db24644"
          ],
          "data": "0x000000000000000000000000000000000000000000000000000000000000006000000000000000000000000000000000000000000000000000000000000000e00000000000000000000000000000000000000000000000000000000000000100000000000000000000000000000000000000000000000000000000000000000300000000000000000000000026cd5abadf7ec3f0f02b48314bfca6b2342cddd4000000000000000000000000cce466a522984415bc91338c232d98869193d46e000000000000000000000000dd7b5e1db4aafd5c8ec3b764efb8ed265aa5445b00000000000000000000000000000000000000000000000000000000000000000000000000000000000000000000000000000000000000000000000000000003000000000000000000000000000000000000000000000000000bd42182c0424d000000000000000000000000000000000000000000000000000b59f82f7d3034000000000000000000000000000000000000000000000000000b59f82f7d3034",
          "blockHash": "0xfd0db0b7468ff22f0c4223a40dcd3041f0b2a885bf1ea0db75782921153d9775",
          "blockNumber": "0x1636d5c",
          "transactionHash": "0x5bbce2cf0bf0a056724cc2236a94bcd46b49a9b5adfefcb2d97527e9efc4f91a",
          "transactionIndex": "0x5",
          "logIndex": "0x16",
          "removed": false
        },
        {
          "address": "0x1a44076050125825900e736c501f859c50fe728c",
          "topics": [
            "0x1ab700d4ced0c005b164c0f789fd09fcbb0156d4c2041b8a3bfbcd961cd1567f"
          ],
          "data": "0x00000000000000000000000000000000000000000000000000000000000000600000000000000000000000000000000000000000000000000000000000000120000000000000000000000000377530cda84dfb2673bf4d145dcf0c4d7fdcb5b600000000000000000000000000000000000000000000000000000000000000990100000000000000010000762f0000000000000000000000009abfe1f8a999b0011ecd6116649aee8d575f5604000076a200000000000000000000000043edd7f3831b08fe70b7555ddd373c8bf65a90507a8de4420082ca2bf3a8c62eecbd472437b565142bfdf60a074a0b2d5c442644000000000000000000000000b0e1650a9760e0f383174af042091fc544b8356f000000000000006400000000000000000000000000000000000000000000000000000000000000000000000000001600030100110100000000000000000000000000030d4000000000000000000000",
          "blockHash": "0xfd0db0b7468ff22f0c4223a40dcd3041f0b2a885bf1ea0db75782921153d9775",
          "blockNumber": "0x1636d5c",
          "transactionHash": "0x5bbce2cf0bf0a056724cc2236a94bcd46b49a9b5adfefcb2d97527e9efc4f91a",
          "transactionIndex": "0x5",
          "logIndex": "0x17",
          "removed": false
        },
        {
          "address": "0x9abfe1f8a999b0011ecd6116649aee8d575f5604",
          "topics": [
            "0x85496b760a4b7f8d66384b9df21b381f5d1b1e79f229a47aaf4c232edc2fe59a",
            "0x7a8de4420082ca2bf3a8c62eecbd472437b565142bfdf60a074a0b2d5c442644",
            "0x000000000000000000000000b0e1650a9760e0f383174af042091fc544b8356f"
          ],
          "data": "0x00000000000000000000000000000000000000000000000000000000000076a200000000000000000000000000000000000000000000000000005af3107a400000000000000000000000000000000000000000000000000000005af3107a4000",
          "blockHash": "0xfd0db0b7468ff22f0c4223a40dcd3041f0b2a885bf1ea0db75782921153d9775",
          "blockNumber": "0x1636d5c",
          "transactionHash": "0x5bbce2cf0bf0a056724cc2236a94bcd46b49a9b5adfefcb2d97527e9efc4f91a",
          "transactionIndex": "0x5",
          "logIndex": "0x18",
          "removed": false
        }
      ],
      "logsBloom": "0x00000000000000000000000000000000000000000040000000000000001000000000000000000000000000000000000000040000000080000000000000000000000002000000000000000008400000000000000000000000010000000000000000000000000000008000000000000000000000000110080000000410008000000000000000000010010000080080000000000000000000008000000000000000000000008000000000100000000000000000000000400000100440000000000000000002000000000000000080000000000000000000000000000000000000000001040080000000000000000000002000000000018000400020000000000000",
      "type": "0x2",
      "transactionHash": "0x5bbce2cf0bf0a056724cc2236a94bcd46b49a9b5adfefcb2d97527e9efc4f91a",
      "transactionIndex": "0x5",
      "blockHash": "0xfd0db0b7468ff22f0c4223a40dcd3041f0b2a885bf1ea0db75782921153d9775",
      "blockNumber": "0x1636d5c",
      "gasUsed": "0x53e65",
      "effectiveGasPrice": "0x7a3f6",
      "from": "0xb0e1650a9760e0f383174af042091fc544b8356f",
      "to": "0x9abfe1f8a999b0011ecd6116649aee8d575f5604",
      "contractAddress": null,
      "l1BaseFeeScalar": "0x2faf080",
      "l1BlobBaseFee": "0x1",
      "l1BlobBaseFeeScalar": "0x0",
      "l1Fee": "0x202d1326bce1",
      "l1GasPrice": "0x119843b9",
      "l1GasUsed": "0x95c"
    },
    {
      "status": "0x1",
      "cumulativeGasUsed": "0x20441a",
      "logs": [
        {
          "address": "0xfc00000000000000000000000000000000000003",
          "topics": [
            "0xddf252ad1be2c89b69c2b068fc378daa952ba7f163c4a11628f55a4df523b3ef",
            "0x000000000000000000000000b0e1650a9760e0f383174af042091fc544b8356f",
            "0x00000000000000000000000075c38d46001b0f8108c4136216bd2694982c20fc"
          ],
          "data": "0x00000000000000000000000000000000000000000000000000005af3107a4000",
          "blockHash": "0xfd0db0b7468ff22f0c4223a40dcd3041f0b2a885bf1ea0db75782921153d9775",
          "blockNumber": "0x1636d5c",
          "transactionHash": "0x9d0a43ce4079030f221471c2fabaef16bd531d438069d6c8cb768531f4499040",
          "transactionIndex": "0x6",
          "logIndex": "0x19",
          "removed": false
        },
        {
          "address": "0x377530cda84dfb2673bf4d145dcf0c4d7fdcb5b6",
          "topics": [
            "0x61ed099e74a97a1d7f8bb0952a88ca8b7b8ebd00c126ea04671f92a81213318a"
          ],
          "data": "0x00000000000000000000000041bdb4aa4a63a5b2efc531858d3118392b1a1c3d00000000000000000000000000000000000000000000000000346b21a10ad95e",
          "blockHash": "0xfd0db0b7468ff22f0c4223a40dcd3041f0b2a885bf1ea0db75782921153d9775",
          "blockNumber": "0x1636d5c",
          "transactionHash": "0x9d0a43ce4079030f221471c2fabaef16bd531d438069d6c8cb768531f4499040",
          "transactionIndex": "0x6",
          "logIndex": "0x1a",
          "removed": false
        },
        {
          "address": "0x377530cda84dfb2673bf4d145dcf0c4d7fdcb5b6",
          "topics": [
            "0x07ea52d82345d6e838192107d8fd7123d9c2ec8e916cd0aad13fd2b60db24644"
          ],
          "data": "0x000000000000000000000000000000000000000000000000000000000000006000000000000000000000000000000000000000000000000000000000000000e00000000000000000000000000000000000000000000000000000000000000100000000000000000000000000000000000000000000000000000000000000000300000000000000000000000026cd5abadf7ec3f0f02b48314bfca6b2342cddd4000000000000000000000000cce466a522984415bc91338c232d98869193d46e000000000000000000000000dd7b5e1db4aafd5c8ec3b764efb8ed265aa5445b00000000000000000000000000000000000000000000000000000000000000000000000000000000000000000000000000000000000000000000000000000003000000000000000000000000000000000000000000000000000bd42182c0424d000000000000000000000000000000000000000000000000000b59f82f7d3034000000000000000000000000000000000000000000000000000b59f82f7d3034",
          "blockHash": "0xfd0db0b7468ff22f0c4223a40dcd3041f0b2a885bf1ea0db75782921153d9775",
          "blockNumber": "0x1636d5c",
          "transactionHash": "0x9d0a43ce4079030f221471c2fabaef16bd531d438069d6c8cb768531f4499040",
          "transactionIndex": "0x6",
          "logIndex": "0x1b",
          "removed": false
        },
        {
          "address": "0x1a44076050125825900e736c501f859c50fe728c",
          "topics": [
            "0x1ab700d4ced0c005b164c0f789fd09fcbb0156d4c2041b8a3bfbcd961cd1567f"
          ],
          "data": "0x00000000000000000000000000000000000000000000000000000000000000600000000000000000000000000000000000000000000000000000000000000120000000000000000000000000377530cda84dfb2673bf4d145dcf0c4d7fdcb5b600000000000000000000000000000000000000000000000000000000000000990100000000000000010000762f00000000000000000000000075c38d46001b0f8108c4136216bd2694982c20fc000076a200000000000000000000000090581eca9469d8d7f5d3b60f4715027adfcf79274b8d19ffa4a301b02a45b9f6de13b4b0b7230e712d8e76ab4332ada535c34101000000000000000000000000b0e1650a9760e0f383174af042091fc544b8356f000000000000006400000000000000000000000000000000000000000000000000000000000000000000000000001600030100110100000000000000000000000000030d4000000000000000000000",
          "blockHash": "0xfd0db0b7468ff22f0c4223a40dcd3041f0b2a885bf1ea0db75782921153d9775",
          "blockNumber": "0x1636d5c",
          "transactionHash": "0x9d0a43ce4079030f221471c2fabaef16bd531d438069d6c8cb768531f4499040",
          "transactionIndex": "0x6",
          "logIndex": "0x1c",
          "removed": false
        },
        {
          "address": "0x75c38d46001b0f8108c4136216bd2694982c20fc",
          "topics": [
            "0x85496b760a4b7f8d66384b9df21b381f5d1b1e79f229a47aaf4c232edc2fe59a",
            "0x4b8d19ffa4a301b02a45b9f6de13b4b0b7230e712d8e76ab4332ada535c34101",
            "0x000000000000000000000000b0e1650a9760e0f383174af042091fc544b8356f"
          ],
          "data": "0x00000000000000000000000000000000000000000000000000000000000076a200000000000000000000000000000000000000000000000000005af3107a400000000000000000000000000000000000000000000000000000005af3107a4000",
          "blockHash": "0xfd0db0b7468ff22f0c4223a40dcd3041f0b2a885bf1ea0db75782921153d9775",
          "blockNumber": "0x1636d5c",
          "transactionHash": "0x9d0a43ce4079030f221471c2fabaef16bd531d438069d6c8cb768531f4499040",
          "transactionIndex": "0x6",
          "logIndex": "0x1d",
          "removed": false
        }
      ],
      "logsBloom": "0x00004000000000000000000000000000000000000000000020000000001000000000000000000000000000000000000000040000000000000000000000000000000002040000000000000008000000000000000000000000080000000000000000000000000000008000000000200000000000000110080000000410000000000000000000000000000000080000000000000000000000200000000000000000000000008000000000100000000000000000000000400000000440000000000000000002000000000000000080000000000000000000000000000000000000002801040080000000000000008020002000000000018000000000000000000200",
      "type": "0x2",
      "transactionHash": "0x9d0a43ce4079030f221471c2fabaef16bd531d438069d6c8cb768531f4499040",
      "transactionIndex": "0x6",
      "blockHash": "0xfd0db0b7468ff22f0c4223a40dcd3041f0b2a885bf1ea0db75782921153d9775",
      "blockNumber": "0x1636d5c",
      "gasUsed": "0x54231",
      "effectiveGasPrice": "0x7a3f6",
      "from": "0xb0e1650a9760e0f383174af042091fc544b8356f",
      "to": "0x75c38d46001b0f8108c4136216bd2694982c20fc",
      "contractAddress": null,
      "l1BaseFeeScalar": "0x2faf080",
      "l1BlobBaseFee": "0x1",
      "l1BlobBaseFeeScalar": "0x0",
      "l1Fee": "0x202d1326bce1",
      "l1GasPrice": "0x119843b9",
      "l1GasUsed": "0x95c"
    }
  ],
  "libraries": [],
  "pending": [],
  "returns": {},
  "timestamp": 1753397236450,
  "chain": 252,
  "commit": "bea6f1e"
}