{
  "transactions": [
    {
      "hash": "0x4bcbcfd7bc68a2fcdc1a505c974af5fc38d56810eda5a032b9538fc85a53e860",
      "transactionType": "CALL",
      "contractName": null,
      "contractAddress": "0x741f0d8bde14140f62107fc60a0ee122b37d4630",
      "function": "batchBridgeWithEthFeeFromWallet((uint32,bytes32,uint256,uint256,bytes,bytes,bytes)[],address[],address[])",
      "arguments": [
        "[(30375, 0x000000000000000000000000741f0d8bde14140f62107fc60a0ee122b37d4630, 1000000000000000000, 0, 0x, 0x, 0x)]",
        "[0x57558Cb8d6005DE0BAe8a2789d5EfaaE52dba5a8]",
        "[0x741F0d8Bde14140f62107FC60A0EE122B37D4630]"
      ],
      "transaction": {
        "from": "0x45dce8e4f2dc005a5f28206a46cb034697eeda8e",
        "to": "0x741f0d8bde14140f62107fc60a0ee122b37d4630",
        "gas": "0x8d524",
        "value": "0xb39b2c6dadf612",
        "input": "0xb70d4241000000000000000000000000000000000000000000000000000000000000006000000000000000000000000000000000000000000000000000000000000001e000000000000000000000000000000000000000000000000000000000000002200000000000000000000000000000000000000000000000000000000000000001000000000000000000000000000000000000000000000000000000000000002000000000000000000000000000000000000000000000000000000000000076a7000000000000000000000000741f0d8bde14140f62107fc60a0ee122b37d46300000000000000000000000000000000000000000000000000de0b6b3a7640000000000000000000000000000000000000000000000000000000000000000000000000000000000000000000000000000000000000000000000000000000000e000000000000000000000000000000000000000000000000000000000000001000000000000000000000000000000000000000000000000000000000000000120000000000000000000000000000000000000000000000000000000000000000000000000000000000000000000000000000000000000000000000000000000000000000000000000000000000000000000000000000000000000000000000000000000000000000000000000000000000000000000000000000000000000000100000000000000000000000057558cb8d6005de0bae8a2789d5efaae52dba5a80000000000000000000000000000000000000000000000000000000000000001000000000000000000000000741f0d8bde14140f62107fc60a0ee122b37d4630",
        "nonce": "0x9b",
        "chainId": "0x92"
      },
      "additionalContracts": [],
      "isFixedGasLimit": false
    }
  ],
  "receipts": [
    {
      "status": "0x1",
      "cumulativeGasUsed": "0x6a258",
      "logs": [
        {
          "address": "0x57558cb8d6005de0bae8a2789d5efaae52dba5a8",
          "topics": [
            "0xddf252ad1be2c89b69c2b068fc378daa952ba7f163c4a11628f55a4df523b3ef",
            "0x000000000000000000000000741f0d8bde14140f62107fc60a0ee122b37d4630",
            "0x0000000000000000000000000000000000000000000000000000000000000000"
          ],
          "data": "0x0000000000000000000000000000000000000000000000000de0b6b3a7640000",
          "blockHash": "0x979e36c7ceb824c764ccffe688bea25b0fa5181f92503774bd493b67d8da7601",
          "blockNumber": "0x271382f",
          "transactionHash": "0x4bcbcfd7bc68a2fcdc1a505c974af5fc38d56810eda5a032b9538fc85a53e860",
          "transactionIndex": "0x0",
          "logIndex": "0x0",
          "removed": false
        },
        {
          "address": "0xc39161c743d0307eb9bcc9fef03eeb9dc4802de7",
          "topics": [
            "0x61ed099e74a97a1d7f8bb0952a88ca8b7b8ebd00c126ea04671f92a81213318a"
          ],
          "data": "0x0000000000000000000000004208d6e27538189bb48e603d6123a94b8abe0a0b00000000000000000000000000000000000000000000000000a9342703ca29d9",
          "blockHash": "0x979e36c7ceb824c764ccffe688bea25b0fa5181f92503774bd493b67d8da7601",
          "blockNumber": "0x271382f",
          "transactionHash": "0x4bcbcfd7bc68a2fcdc1a505c974af5fc38d56810eda5a032b9538fc85a53e860",
          "transactionIndex": "0x0",
          "logIndex": "0x1",
          "removed": false
        },
        {
          "address": "0xc39161c743d0307eb9bcc9fef03eeb9dc4802de7",
          "topics": [
            "0x07ea52d82345d6e838192107d8fd7123d9c2ec8e916cd0aad13fd2b60db24644"
          ],
          "data": "0x000000000000000000000000000000000000000000000000000000000000006000000000000000000000000000000000000000000000000000000000000000e00000000000000000000000000000000000000000000000000000000000000100000000000000000000000000000000000000000000000000000000000000000300000000000000000000000005aaefdf9db6e0f7d27fa3b6ee099edb33da029e000000000000000000000000282b3386571f7f794450d5789911a9804fa346b4000000000000000000000000805ed883fa3453e7ac588667785a4495c573cd1300000000000000000000000000000000000000000000000000000000000000000000000000000000000000000000000000000000000000000000000000000003000000000000000000000000000000000000000000000000000370d389cdc9cd00000000000000000000000000000000000000000000000000037b18f00b013600000000000000000000000000000000000000000000000000037b18f00b0136",
          "blockHash": "0x979e36c7ceb824c764ccffe688bea25b0fa5181f92503774bd493b67d8da7601",
          "blockNumber": "0x271382f",
          "transactionHash": "0x4bcbcfd7bc68a2fcdc1a505c974af5fc38d56810eda5a032b9538fc85a53e860",
          "transactionIndex": "0x0",
          "logIndex": "0x2",
          "removed": false
        },
        {
          "address": "0x6f475642a6e85809b1c36fa62763669b1b48dd5b",
          "topics": [
            "0x1ab700d4ced0c005b164c0f789fd09fcbb0156d4c2041b8a3bfbcd961cd1567f"
          ],
          "data": "0x00000000000000000000000000000000000000000000000000000000000000600000000000000000000000000000000000000000000000000000000000000120000000000000000000000000c39161c743d0307eb9bcc9fef03eeb9dc4802de700000000000000000000000000000000000000000000000000000000000000990100000000000000010000767c00000000000000000000000057558cb8d6005de0bae8a2789d5efaae52dba5a8000076a700000000000000000000000057558cb8d6005de0bae8a2789d5efaae52dba5a82c2a446f46519dd90e607530131ca72ee73ab90f8a4404455948ffac731a76ef000000000000000000000000741f0d8bde14140f62107fc60a0ee122b37d463000000000000f424000000000000000000000000000000000000000000000000000000000000000000000000000001600030100110100000000000000000000000000030d4000000000000000000000",
          "blockHash": "0x979e36c7ceb824c764ccffe688bea25b0fa5181f92503774bd493b67d8da7601",
          "blockNumber": "0x271382f",
          "transactionHash": "0x4bcbcfd7bc68a2fcdc1a505c974af5fc38d56810eda5a032b9538fc85a53e860",
          "transactionIndex": "0x0",
          "logIndex": "0x3",
          "removed": false
        },
        {
          "address": "0x57558cb8d6005de0bae8a2789d5efaae52dba5a8",
          "topics": [
            "0x85496b760a4b7f8d66384b9df21b381f5d1b1e79f229a47aaf4c232edc2fe59a",
            "0x2c2a446f46519dd90e607530131ca72ee73ab90f8a4404455948ffac731a76ef",
            "0x000000000000000000000000741f0d8bde14140f62107fc60a0ee122b37d4630"
          ],
          "data": "0x00000000000000000000000000000000000000000000000000000000000076a70000000000000000000000000000000000000000000000000de0b6b3a76400000000000000000000000000000000000000000000000000000de0b6b3a7640000",
          "blockHash": "0x979e36c7ceb824c764ccffe688bea25b0fa5181f92503774bd493b67d8da7601",
          "blockNumber": "0x271382f",
          "transactionHash": "0x4bcbcfd7bc68a2fcdc1a505c974af5fc38d56810eda5a032b9538fc85a53e860",
          "transactionIndex": "0x0",
          "logIndex": "0x4",
          "removed": false
        }
      ],
      "logsBloom": "0x0010000000000000000000000004004000000000000000000000000000000000000020000000000400000000000000040000010000000000000000000000000000000200000000000000000800000000014000000000000000000000000000000000000002000000802000000000080000000000000000000000001000000000000000000080000000000008000000000000000000000000000000000000000000000000a000001000100000000000000000000000400000000440000000000000000002000000000000000080000000001000000000000000000000000020004000040000000000000000000000002000000000008000000000000000000000",
      "type": "0x2",
      "transactionHash": "0x4bcbcfd7bc68a2fcdc1a505c974af5fc38d56810eda5a032b9538fc85a53e860",
      "transactionIndex": "0x0",
      "blockHash": "0x979e36c7ceb824c764ccffe688bea25b0fa5181f92503774bd493b67d8da7601",
      "blockNumber": "0x271382f",
      "gasUsed": "0x6a258",
      "effectiveGasPrice": "0xba43b7401",
      "from": "0x45dce8e4f2dc005a5f28206a46cb034697eeda8e",
      "to": "0x741f0d8bde14140f62107fc60a0ee122b37d4630",
      "contractAddress": null
    }
  ],
  "libraries": [],
  "pending": [],
  "returns": {},
  "timestamp": 1753932721,
  "chain": 146,
  "commit": "bc2ac99"
}