{
  "transactions": [
    {
      "hash": "0x0b3df2778d70b03a28a423ee7b80779f52cacd8a418c44756e237fc902cd4ee7",
      "transactionType": "CALL",
      "contractName": null,
      "contractAddress": "0x741f0d8bde14140f62107fc60a0ee122b37d4630",
      "function": "batchBridgeWithEthFeeFromWallet((uint32,bytes32,uint256,uint256,bytes,bytes,bytes)[],address[],address[])",
      "arguments": [
        "[(30367, 0x000000000000000000000000741f0d8bde14140f62107fc60a0ee122b37d4630, 500000000000000000, 0, 0x, 0x, 0x)]",
        "[0x57558Cb8d6005DE0BAe8a2789d5EfaaE52dba5a8]",
        "[0x741F0d8Bde14140f62107FC60A0EE122B37D4630]"
      ],
      "transaction": {
        "from": "0x45dce8e4f2dc005a5f28206a46cb034697eeda8e",
        "to": "0x741f0d8bde14140f62107fc60a0ee122b37d4630",
        "gas": "0x8d524",
        "value": "0x66aba0d5751f916",
        "input": "0xb70d4241000000000000000000000000000000000000000000000000000000000000006000000000000000000000000000000000000000000000000000000000000001e0000000000000000000000000000000000000000000000000000000000000022000000000000000000000000000000000000000000000000000000000000000010000000000000000000000000000000000000000000000000000000000000020000000000000000000000000000000000000000000000000000000000000769f000000000000000000000000741f0d8bde14140f62107fc60a0ee122b37d463000000000000000000000000000000000000000000000000006f05b59d3b20000000000000000000000000000000000000000000000000000000000000000000000000000000000000000000000000000000000000000000000000000000000e000000000000000000000000000000000000000000000000000000000000001000000000000000000000000000000000000000000000000000000000000000120000000000000000000000000000000000000000000000000000000000000000000000000000000000000000000000000000000000000000000000000000000000000000000000000000000000000000000000000000000000000000000000000000000000000000000000000000000000000000000000000000000000000000100000000000000000000000057558cb8d6005de0bae8a2789d5efaae52dba5a80000000000000000000000000000000000000000000000000000000000000001000000000000000000000000741f0d8bde14140f62107fc60a0ee122b37d4630",
        "nonce": "0xad",
        "chainId": "0x92"
      },
      "additionalContracts": [],
      "isFixedGasLimit": false
    }
  ],
  "receipts": [
    {
      "status": "0x1",
      "cumulativeGasUsed": "0x6a258",
      "logs": [
        {
          "address": "0x57558cb8d6005de0bae8a2789d5efaae52dba5a8",
          "topics": [
            "0xddf252ad1be2c89b69c2b068fc378daa952ba7f163c4a11628f55a4df523b3ef",
            "0x000000000000000000000000741f0d8bde14140f62107fc60a0ee122b37d4630",
            "0x0000000000000000000000000000000000000000000000000000000000000000"
          ],
          "data": "0x00000000000000000000000000000000000000000000000006f05b59d3b20000",
          "blockHash": "0xfbd64bedb12e4edb060b6a82c1117590e54e5d487d91ab65a712f895dd9ecb8b",
          "blockNumber": "0x2cc0a3a",
          "blockTimestamp": "0x68c813ec",
          "transactionHash": "0x0b3df2778d70b03a28a423ee7b80779f52cacd8a418c44756e237fc902cd4ee7",
          "transactionIndex": "0x0",
          "logIndex": "0x0",
          "removed": false
        },
        {
          "address": "0xc39161c743d0307eb9bcc9fef03eeb9dc4802de7",
          "topics": [
            "0x61ed099e74a97a1d7f8bb0952a88ca8b7b8ebd00c126ea04671f92a81213318a"
          ],
          "data": "0x0000000000000000000000004208d6e27538189bb48e603d6123a94b8abe0a0b000000000000000000000000000000000000000000000000037f2146aea07fd1",
          "blockHash": "0xfbd64bedb12e4edb060b6a82c1117590e54e5d487d91ab65a712f895dd9ecb8b",
          "blockNumber": "0x2cc0a3a",
          "blockTimestamp": "0x68c813ec",
          "transactionHash": "0x0b3df2778d70b03a28a423ee7b80779f52cacd8a418c44756e237fc902cd4ee7",
          "transactionIndex": "0x0",
          "logIndex": "0x1",
          "removed": false
        },
        {
          "address": "0xc39161c743d0307eb9bcc9fef03eeb9dc4802de7",
          "topics": [
            "0x07ea52d82345d6e838192107d8fd7123d9c2ec8e916cd0aad13fd2b60db24644"
          ],
          "data": "0x000000000000000000000000000000000000000000000000000000000000006000000000000000000000000000000000000000000000000000000000000000e000000000000000000000000000000000000000000000000000000000000001000000000000000000000000000000000000000000000000000000000000000003000000000000000000000000282b3386571f7f794450d5789911a9804fa346b400000000000000000000000054dd79f5ce72b51fcbbcb170dd01e32034323565000000000000000000000000805ed883fa3453e7ac588667785a4495c573cd130000000000000000000000000000000000000000000000000000000000000000000000000000000000000000000000000000000000000000000000000000000300000000000000000000000000000000000000000000000000f932ece2e5d31700000000000000000000000000000000000000000000000000f932ece2e5d31700000000000000000000000000000000000000000000000000f932ece2e5d317",
          "blockHash": "0xfbd64bedb12e4edb060b6a82c1117590e54e5d487d91ab65a712f895dd9ecb8b",
          "blockNumber": "0x2cc0a3a",
          "blockTimestamp": "0x68c813ec",
          "transactionHash": "0x0b3df2778d70b03a28a423ee7b80779f52cacd8a418c44756e237fc902cd4ee7",
          "transactionIndex": "0x0",
          "logIndex": "0x2",
          "removed": false
        },
        {
          "address": "0x6f475642a6e85809b1c36fa62763669b1b48dd5b",
          "topics": [
            "0x1ab700d4ced0c005b164c0f789fd09fcbb0156d4c2041b8a3bfbcd961cd1567f"
          ],
          "data": "0x00000000000000000000000000000000000000000000000000000000000000600000000000000000000000000000000000000000000000000000000000000120000000000000000000000000c39161c743d0307eb9bcc9fef03eeb9dc4802de700000000000000000000000000000000000000000000000000000000000000990100000000000000010000767c00000000000000000000000057558cb8d6005de0bae8a2789d5efaae52dba5a80000769f00000000000000000000000057558cb8d6005de0bae8a2789d5efaae52dba5a826b8426587b07c94448a3825607a80e9aff8794ce9ea092db30f2927f8a06841000000000000000000000000741f0d8bde14140f62107fc60a0ee122b37d4630000000000007a12000000000000000000000000000000000000000000000000000000000000000000000000000001600030100110100000000000000000000000000030d4000000000000000000000",
          "blockHash": "0xfbd64bedb12e4edb060b6a82c1117590e54e5d487d91ab65a712f895dd9ecb8b",
          "blockNumber": "0x2cc0a3a",
          "blockTimestamp": "0x68c813ec",
          "transactionHash": "0x0b3df2778d70b03a28a423ee7b80779f52cacd8a418c44756e237fc902cd4ee7",
          "transactionIndex": "0x0",
          "logIndex": "0x3",
          "removed": false
        },
        {
          "address": "0x57558cb8d6005de0bae8a2789d5efaae52dba5a8",
          "topics": [
            "0x85496b760a4b7f8d66384b9df21b381f5d1b1e79f229a47aaf4c232edc2fe59a",
            "0x26b8426587b07c94448a3825607a80e9aff8794ce9ea092db30f2927f8a06841",
            "0x000000000000000000000000741f0d8bde14140f62107fc60a0ee122b37d4630"
          ],
          "data": "0x000000000000000000000000000000000000000000000000000000000000769f00000000000000000000000000000000000000000000000006f05b59d3b2000000000000000000000000000000000000000000000000000006f05b59d3b20000",
          "blockHash": "0xfbd64bedb12e4edb060b6a82c1117590e54e5d487d91ab65a712f895dd9ecb8b",
          "blockNumber": "0x2cc0a3a",
          "blockTimestamp": "0x68c813ec",
          "transactionHash": "0x0b3df2778d70b03a28a423ee7b80779f52cacd8a418c44756e237fc902cd4ee7",
          "transactionIndex": "0x0",
          "logIndex": "0x4",
          "removed": false
        }
      ],
      "logsBloom": "0x0010000000000000000000000004004000000000000200000000000000000000000000000000000000000000000000040000010000000000000000000000000000000200000000000000000800000000014000000000000000000000000000000000000002000000802000000000080000000000000000000000001000000000000000000080000000000008000010000000000800000000000000000000000000000000a000001000100000000000000000000000400000000440000000000000000002000000000000000080000000000000000000000000000000000020004000040000000000000000000000002000000000008000000000000000000000",
      "type": "0x2",
      "transactionHash": "0x0b3df2778d70b03a28a423ee7b80779f52cacd8a418c44756e237fc902cd4ee7",
      "transactionIndex": "0x0",
      "blockHash": "0xfbd64bedb12e4edb060b6a82c1117590e54e5d487d91ab65a712f895dd9ecb8b",
      "blockNumber": "0x2cc0a3a",
      "gasUsed": "0x6a258",
      "effectiveGasPrice": "0xba43b7401",
      "from": "0x45dce8e4f2dc005a5f28206a46cb034697eeda8e",
      "to": "0x741f0d8bde14140f62107fc60a0ee122b37d4630",
      "contractAddress": null
    }
  ],
  "libraries": [],
  "pending": [],
  "returns": {},
  "timestamp": 1757942766137,
  "chain": 146,
  "commit": "932610a"
}