{
  "transactions": [
    {
      "hash": "0xeca54945c9104240ad25ff1c57151ff8ae29a4918fab99007bdb8deea9eedbeb",
      "transactionType": "CALL",
      "contractName": null,
      "contractAddress": "0x741f0d8bde14140f62107fc60a0ee122b37d4630",
      "function": "batchBridgeWithEthFeeFromWallet((uint32,bytes32,uint256,uint256,bytes,bytes,bytes)[],address[],address[])",
      "arguments": [
        "[(30370, 0x000000000000000000000000741f0d8bde14140f62107fc60a0ee122b37d4630, 1000000000000000000, 0, 0x, 0x, 0x)]",
        "[0x57558Cb8d6005DE0BAe8a2789d5EfaaE52dba5a8]",
        "[0x741F0d8Bde14140f62107FC60A0EE122B37D4630]"
      ],
      "transaction": {
        "from": "0x45dce8e4f2dc005a5f28206a46cb034697eeda8e",
        "to": "0x741f0d8bde14140f62107fc60a0ee122b37d4630",
        "gas": "0x8d524",
        "value": "0x2af572175f5c9dc",
        "input": "0xb70d4241000000000000000000000000000000000000000000000000000000000000006000000000000000000000000000000000000000000000000000000000000001e000000000000000000000000000000000000000000000000000000000000002200000000000000000000000000000000000000000000000000000000000000001000000000000000000000000000000000000000000000000000000000000002000000000000000000000000000000000000000000000000000000000000076a2000000000000000000000000741f0d8bde14140f62107fc60a0ee122b37d46300000000000000000000000000000000000000000000000000de0b6b3a7640000000000000000000000000000000000000000000000000000000000000000000000000000000000000000000000000000000000000000000000000000000000e000000000000000000000000000000000000000000000000000000000000001000000000000000000000000000000000000000000000000000000000000000120000000000000000000000000000000000000000000000000000000000000000000000000000000000000000000000000000000000000000000000000000000000000000000000000000000000000000000000000000000000000000000000000000000000000000000000000000000000000000000000000000000000000000100000000000000000000000057558cb8d6005de0bae8a2789d5efaae52dba5a80000000000000000000000000000000000000000000000000000000000000001000000000000000000000000741f0d8bde14140f62107fc60a0ee122b37d4630",
        "nonce": "0x94",
        "chainId": "0x92"
      },
      "additionalContracts": [],
      "isFixedGasLimit": false
    }
  ],
  "receipts": [
    {
      "status": "0x1",
      "cumulativeGasUsed": "0x6a258",
      "logs": [
        {
          "address": "0x57558cb8d6005de0bae8a2789d5efaae52dba5a8",
          "topics": [
            "0xddf252ad1be2c89b69c2b068fc378daa952ba7f163c4a11628f55a4df523b3ef",
            "0x000000000000000000000000741f0d8bde14140f62107fc60a0ee122b37d4630",
            "0x0000000000000000000000000000000000000000000000000000000000000000"
          ],
          "data": "0x0000000000000000000000000000000000000000000000000de0b6b3a7640000",
          "blockHash": "0x2b48d4acb2dac597a37c3831460bf5f1238031eff6a28193de5ff3af1cd0ed6f",
          "blockNumber": "0x254e11c",
          "transactionHash": "0xeca54945c9104240ad25ff1c57151ff8ae29a4918fab99007bdb8deea9eedbeb",
          "transactionIndex": "0x0",
          "logIndex": "0x0",
          "removed": false
        },
        {
          "address": "0xc39161c743d0307eb9bcc9fef03eeb9dc4802de7",
          "topics": [
            "0x61ed099e74a97a1d7f8bb0952a88ca8b7b8ebd00c126ea04671f92a81213318a"
          ],
          "data": "0x0000000000000000000000004208d6e27538189bb48e603d6123a94b8abe0a0b0000000000000000000000000000000000000000000000000198b8012ca7bd3c",
          "blockHash": "0x2b48d4acb2dac597a37c3831460bf5f1238031eff6a28193de5ff3af1cd0ed6f",
          "blockNumber": "0x254e11c",
          "transactionHash": "0xeca54945c9104240ad25ff1c57151ff8ae29a4918fab99007bdb8deea9eedbeb",
          "transactionIndex": "0x0",
          "logIndex": "0x1",
          "removed": false
        },
        {
          "address": "0xc39161c743d0307eb9bcc9fef03eeb9dc4802de7",
          "topics": [
            "0x07ea52d82345d6e838192107d8fd7123d9c2ec8e916cd0aad13fd2b60db24644"
          ],
          "data": "0x000000000000000000000000000000000000000000000000000000000000006000000000000000000000000000000000000000000000000000000000000000e000000000000000000000000000000000000000000000000000000000000001000000000000000000000000000000000000000000000000000000000000000003000000000000000000000000282b3386571f7f794450d5789911a9804fa346b400000000000000000000000054dd79f5ce72b51fcbbcb170dd01e32034323565000000000000000000000000805ed883fa3453e7ac588667785a4495c573cd1300000000000000000000000000000000000000000000000000000000000000000000000000000000000000000000000000000000000000000000000000000003000000000000000000000000000000000000000000000000005cdfb56dc4aee0000000000000000000000000000000000000000000000000005cdfb56dc4aee0000000000000000000000000000000000000000000000000005cdfb56dc4aee0",
          "blockHash": "0x2b48d4acb2dac597a37c3831460bf5f1238031eff6a28193de5ff3af1cd0ed6f",
          "blockNumber": "0x254e11c",
          "transactionHash": "0xeca54945c9104240ad25ff1c57151ff8ae29a4918fab99007bdb8deea9eedbeb",
          "transactionIndex": "0x0",
          "logIndex": "0x2",
          "removed": false
        },
        {
          "address": "0x6f475642a6e85809b1c36fa62763669b1b48dd5b",
          "topics": [
            "0x1ab700d4ced0c005b164c0f789fd09fcbb0156d4c2041b8a3bfbcd961cd1567f"
          ],
          "data": "0x00000000000000000000000000000000000000000000000000000000000000600000000000000000000000000000000000000000000000000000000000000120000000000000000000000000c39161c743d0307eb9bcc9fef03eeb9dc4802de700000000000000000000000000000000000000000000000000000000000000990100000000000000010000767c00000000000000000000000057558cb8d6005de0bae8a2789d5efaae52dba5a8000076a200000000000000000000000057558cb8d6005de0bae8a2789d5efaae52dba5a8d8dca58b8f3c2f1d27b3f18741ce08c0022f223e40adec795cd5dc97c7136b19000000000000000000000000741f0d8bde14140f62107fc60a0ee122b37d463000000000000f424000000000000000000000000000000000000000000000000000000000000000000000000000001600030100110100000000000000000000000000030d4000000000000000000000",
          "blockHash": "0x2b48d4acb2dac597a37c3831460bf5f1238031eff6a28193de5ff3af1cd0ed6f",
          "blockNumber": "0x254e11c",
          "transactionHash": "0xeca54945c9104240ad25ff1c57151ff8ae29a4918fab99007bdb8deea9eedbeb",
          "transactionIndex": "0x0",
          "logIndex": "0x3",
          "removed": false
        },
        {
          "address": "0x57558cb8d6005de0bae8a2789d5efaae52dba5a8",
          "topics": [
            "0x85496b760a4b7f8d66384b9df21b381f5d1b1e79f229a47aaf4c232edc2fe59a",
            "0xd8dca58b8f3c2f1d27b3f18741ce08c0022f223e40adec795cd5dc97c7136b19",
            "0x000000000000000000000000741f0d8bde14140f62107fc60a0ee122b37d4630"
          ],
          "data": "0x00000000000000000000000000000000000000000000000000000000000076a20000000000000000000000000000000000000000000000000de0b6b3a76400000000000000000000000000000000000000000000000000000de0b6b3a7640000",
          "blockHash": "0x2b48d4acb2dac597a37c3831460bf5f1238031eff6a28193de5ff3af1cd0ed6f",
          "blockNumber": "0x254e11c",
          "transactionHash": "0xeca54945c9104240ad25ff1c57151ff8ae29a4918fab99007bdb8deea9eedbeb",
          "transactionIndex": "0x0",
          "logIndex": "0x4",
          "removed": false
        }
      ],
      "logsBloom": "0x001000000000000000000000000400400000000000000000000000000000000000000000000000000000000000000004000001000000000000000000000000000000020000000000000000080000000001c000000000000000000000000000000800000002000000802000000000080000000000000000000000001000000000000000000080000000000008000000000000000000000000000000000000000000000000a000001000100000000000000000000000400000000440000000000000000002000100000000000080000000000000000000000000000000000020004000040000000000000000000000002000000000008000000000000000000000",
      "type": "0x2",
      "transactionHash": "0xeca54945c9104240ad25ff1c57151ff8ae29a4918fab99007bdb8deea9eedbeb",
      "transactionIndex": "0x0",
      "blockHash": "0x2b48d4acb2dac597a37c3831460bf5f1238031eff6a28193de5ff3af1cd0ed6f",
      "blockNumber": "0x254e11c",
      "gasUsed": "0x6a258",
      "effectiveGasPrice": "0xba43b7401",
      "from": "0x45dce8e4f2dc005a5f28206a46cb034697eeda8e",
      "to": "0x741f0d8bde14140f62107fc60a0ee122b37d4630",
      "contractAddress": null
    }
  ],
  "libraries": [],
  "pending": [],
  "returns": {},
  "timestamp": 1752858113,
  "chain": 146,
  "commit": "c079579"
}