{
  "transactions": [
    {
      "hash": "0xe158125cbdfa44665c7037c8b4e7d8811ce4d8196ba5fc9314d9967014f53167",
      "transactionType": "CREATE",
      "contractName": "FraxOFTAdapterUpgradeable",
      "contractAddress": "0x8e29ceb739b4285417701a83a83e497d38b5fdd1",
      "function": null,
      "arguments": [
        "0xFc00000000000000000000000000000000000001",
        "0x1a44076050125825900e736c501f859c50fE728c"
      ],
      "transaction": {
        "from": "0x0990be6db8c785fbbf9ded8baec612a10cae814b",
        "gas": "0x342ade",
        "value": "0x0",
        "input": "0x60e060405234801562000010575f80fd5b506040516200316f3803806200316f83398101604081905262000033916200011d565b8181816001600160a01b031663313ce5676040518163ffffffff1660e01b8152600401602060405180830381865afa15801562000072573d5f803e3d5ffd5b505050506040513d601f19601f8201168201806040525081019062000098919062000153565b6001600160a01b03821660805281600660ff83161015620000cc576040516301e9714b60e41b815260040160405180910390fd5b620000d960068362000190565b620000e690600a620002ab565b60a0525050506001600160a01b031660c05250620002bb9050565b80516001600160a01b038116811462000118575f80fd5b919050565b5f80604083850312156200012f575f80fd5b6200013a8362000101565b91506200014a6020840162000101565b90509250929050565b5f6020828403121562000164575f80fd5b815160ff8116811462000175575f80fd5b9392505050565b634e487b7160e01b5f52601160045260245ffd5b60ff8281168282160390811115620001ac57620001ac6200017c565b92915050565b600181815b80851115620001f257815f1904821115620001d657620001d66200017c565b80851615620001e457918102915b93841c9390800290620001b7565b509250929050565b5f826200020a57506001620001ac565b816200021857505f620001ac565b81600181146200023157600281146200023c576200025c565b6001915050620001ac565b60ff8411156200025057620002506200017c565b50506001821b620001ac565b5060208310610133831016604e8410600b841016171562000281575081810a620001ac565b6200028d8383620001b2565b805f1904821115620002a357620002a36200017c565b029392505050565b5f6200017560ff841683620001fa565b60805160a05160c051612e356200033a5f395f8181610689015281816118d30152611ab201525f81816104e601528181611a0401528181611a760152611b6301525f818161040f015281816107cd015281816111c30152818161147b015281816116f70152818161192c01528181611cfb0152611db20152612e355ff3fe6080604052600436106101fc575f3560e01c8063857749b011610113578063bd815db01161009d578063d045a0dc1161006d578063d045a0dc1461062a578063d42438851461063d578063f2fde38b1461065c578063fc0c546a1461067b578063ff7bd03d146106ad575f80fd5b8063bd815db0146105b8578063c4d66de8146105cb578063c7c7f5b3146105ea578063ca5eb5e11461060b575f80fd5b8063b731ea0a116100e3578063b731ea0a14610529578063b92d0eff14610344578063b98bd0701461053d578063bb0b6a531461055c578063bc70b35414610599575f80fd5b8063857749b01461049d5780638da5cb5b146104b8578063963efcaa146104d55780639f68b96414610516575f80fd5b80633b6f743b116101945780635a0dfe4d116101645780635a0dfe4d146103ad5780635e280f11146103fe5780636fc1b31e14610431578063715018a6146104505780637d25a05e14610464575f80fd5b80633b6f743b1461031857806352ae28791461034457806354fd4d50146103565780635535d46114610381575f80fd5b8063156a0d0f116101cf578063156a0d0f1461029f57806317442b70146102c55780631f5e1334146102e55780633400288b146102f9575f80fd5b80630d35b41514610200578063111ecdad1461023757806313137d6514610263578063134d4f2514610278575b5f80fd5b34801561020b575f80fd5b5061021f61021a36600461208d565b6106cc565b60405161022e9392919061210b565b60405180910390f35b348015610242575f80fd5b5061024b610797565b6040516001600160a01b03909116815260200161022e565b61027661027136600461220a565b6107cb565b005b348015610283575f80fd5b5061028c600281565b60405161ffff909116815260200161022e565b3480156102aa575f80fd5b506040805162b9270b60e21b8152600160208201520161022e565b3480156102d0575f80fd5b5060408051600180825260208201520161022e565b3480156102f0575f80fd5b5061028c600181565b348015610304575f80fd5b506102766103133660046122ba565b61088b565b348015610323575f80fd5b506103376103323660046122ef565b6108f6565b60405161022e919061233d565b34801561034f575f80fd5b503061024b565b348015610361575f80fd5b5060015f806040805193845260208401929092529082015260600161022e565b34801561038c575f80fd5b506103a061039b366004612365565b61095c565b60405161022e9190612396565b3480156103b8575f80fd5b506103ee6103c73660046122ba565b63ffffffff919091165f9081525f80516020612de083398151915260205260409020541490565b604051901515815260200161022e565b348015610409575f80fd5b5061024b7f000000000000000000000000000000000000000000000000000000000000000081565b34801561043c575f80fd5b5061027661044b3660046123a8565b610a34565b34801561045b575f80fd5b50610276610ab0565b34801561046f575f80fd5b5061048561047e3660046122ba565b5f92915050565b6040516001600160401b03909116815260200161022e565b3480156104a8575f80fd5b506040516006815260200161022e565b3480156104c3575f80fd5b506033546001600160a01b031661024b565b3480156104e0575f80fd5b506105087f000000000000000000000000000000000000000000000000000000000000000081565b60405190815260200161022e565b348015610521575f80fd5b5060016103ee565b348015610534575f80fd5b5061024b610ac3565b348015610548575f80fd5b50610276610557366004612403565b610aeb565b348015610567575f80fd5b50610508610576366004612441565b63ffffffff165f9081525f80516020612de0833981519152602052604090205490565b3480156105a4575f80fd5b506103a06105b336600461245a565b610c67565b6102766105c6366004612403565b610dff565b3480156105d6575f80fd5b506102766105e53660046123a8565b610f8b565b6105fd6105f83660046124b6565b6110a5565b60405161022e92919061251e565b348015610616575f80fd5b506102766106253660046123a8565b61119c565b61027661063836600461220a565b61121d565b348015610648575f80fd5b506102766106573660046123a8565b61124c565b348015610667575f80fd5b506102766106763660046123a8565b6112c0565b348015610686575f80fd5b507f000000000000000000000000000000000000000000000000000000000000000061024b565b3480156106b8575f80fd5b506103ee6106c736600461256f565b611339565b604080518082019091525f808252602082015260606106fc60405180604001604052805f81526020015f81525090565b6040805180820182525f8082526001600160401b03602080840182905284518381529081019094529195509182610755565b604080518082019091525f81526060602082015281526020019060019003908161072e5790505b5093505f80610779604089013560608a013561077460208c018c612441565b611356565b60408051808201909152918252602082015296989597505050505050565b5f807f41db8a78b0206aba5c54bcbfc2bda0d84082a84eb88e680379a57b9e9f653c005b546001600160a01b031692915050565b7f00000000000000000000000000000000000000000000000000000000000000006001600160a01b0316331461081b576040516391ac5e4f60e01b81523360048201526024015b60405180910390fd5b6020870180359061083590610830908a612441565b611399565b14610873576108476020880188612441565b60405163309afaf360e21b815263ffffffff909116600482015260208801356024820152604401610812565b610882878787878787876113e9565b50505050505050565b610893611547565b63ffffffff82165f8181525f80516020612de0833981519152602081815260409283902085905582519384528301849052917f238399d427b947898edb290f5ff0f9109849b1c3ba196a42e35f00c50a54b98b91015b60405180910390a1505050565b604080518082019091525f80825260208201525f610924604085013560608601356107746020880188612441565b9150505f8061093386846115a1565b90925090506109506109486020880188612441565b8383886116e2565b93505050505b92915050565b63ffffffff82165f9081527f8d2bda5d9f6ffb5796910376005392955773acee5548d0fcdb10e7c264ea00006020818152604080842061ffff86168552909152909120805460609291906109af9061259d565b80601f01602080910402602001604051908101604052809291908181526020018280546109db9061259d565b8015610a265780601f106109fd57610100808354040283529160200191610a26565b820191905f5260205f20905b815481529060010190602001808311610a0957829003601f168201915b505050505091505092915050565b610a3c611547565b7f41db8a78b0206aba5c54bcbfc2bda0d84082a84eb88e680379a57b9e9f653c0080546001600160a01b0319166001600160a01b03831690811782556040519081527ff0be4f1e87349231d80c36b33f9e8639658eeaf474014dee15a3e6a4d4414197906020015b60405180910390a15050565b610ab8611547565b610ac15f6117c0565b565b5f807fefb041d771d6daaa55702fff6eb740d63ba559a75d2d1d3e151c78ff2480b6006107bb565b610af3611547565b7f8d2bda5d9f6ffb5796910376005392955773acee5548d0fcdb10e7c264ea00005f5b82811015610c3557610b58848483818110610b3357610b336125cf565b9050602002810190610b4591906125e3565b610b53906040810190612601565b611811565b838382818110610b6a57610b6a6125cf565b9050602002810190610b7c91906125e3565b610b8a906040810190612601565b835f878786818110610b9e57610b9e6125cf565b9050602002810190610bb091906125e3565b610bbe906020810190612441565b63ffffffff1663ffffffff1681526020019081526020015f205f878786818110610bea57610bea6125cf565b9050602002810190610bfc91906125e3565b610c0d906040810190602001612643565b61ffff16815260208101919091526040015f2091610c2c9190836126a0565b50600101610b16565b507fbe4864a8e820971c0247f5992e2da559595f7bf076a21cb5928d443d2a13b67483836040516108e9929190612781565b63ffffffff84165f9081527f8d2bda5d9f6ffb5796910376005392955773acee5548d0fcdb10e7c264ea00006020818152604080842061ffff88168552909152822080546060939190610cb99061259d565b80601f0160208091040260200160405190810160405280929190818152602001828054610ce59061259d565b8015610d305780601f10610d0757610100808354040283529160200191610d30565b820191905f5260205f20905b815481529060010190602001808311610d1357829003601f168201915b5050505050905080515f03610d7f5784848080601f0160208091040260200160405190810160405280939291908181526020018383808284375f92019190915250929550610df7945050505050565b5f849003610d90579150610df79050565b60028410610dda57610da28585611811565b80610db08560028189612860565b604051602001610dc293929190612887565b60405160208183030381529060405292505050610df7565b8484604051639a6d49cd60e01b81526004016108129291906128ad565b949350505050565b5f5b81811015610f0e5736838383818110610e1c57610e1c6125cf565b9050602002810190610e2e91906128c0565b9050610e6c610e406020830183612441565b602083013563ffffffff919091165f9081525f80516020612de083398151915260205260409020541490565b610e765750610f06565b3063d045a0dc60c08301358360a0810135610e95610100830183612601565b610ea6610100890160e08a016123a8565b610eb46101208a018a612601565b6040518963ffffffff1660e01b8152600401610ed697969594939291906128e9565b5f604051808303818588803b158015610eed575f80fd5b505af1158015610eff573d5f803e3d5ffd5b5050505050505b600101610e01565b50336001600160a01b0316638e9e70996040518163ffffffff1660e01b81526004015f60405180830381865afa158015610f4a573d5f803e3d5ffd5b505050506040513d5f823e601f3d908101601f19168201604052610f719190810190612996565b604051638351eea760e01b81526004016108129190612396565b5f54610100900460ff1615808015610fa957505f54600160ff909116105b80610fc25750303b158015610fc257505f5460ff166001145b6110255760405162461bcd60e51b815260206004820152602e60248201527f496e697469616c697a61626c653a20636f6e747261637420697320616c72656160448201526d191e481a5b9a5d1a585b1a5e995960921b6064820152608401610812565b5f805460ff191660011790558015611046575f805461ff0019166101001790555b61104f82611857565b611057611886565b611060826117c0565b80156110a1575f805461ff0019169055604051600181527f7f26b83ff96e1f2b6a682f133852f6798a09c465da95921460cefb384740249890602001610aa4565b5050565b6110ad612034565b604080518082019091525f80825260208201525f806110e1604088013560608901356110dc60208b018b612441565b6118b4565b915091505f806110f189846115a1565b909250905061111d61110660208b018b612441565b8383611117368d90038d018d612a32565b8b6118fb565b60408051808201909152858152602080820186905282519298509096503391907f85496b760a4b7f8d66384b9df21b381f5d1b1e79f229a47aaf4c232edc2fe59a9061116b908d018d612441565b6040805163ffffffff909216825260208201899052810187905260600160405180910390a350505050935093915050565b6111a4611547565b60405163ca5eb5e160e01b81526001600160a01b0382811660048301527f0000000000000000000000000000000000000000000000000000000000000000169063ca5eb5e1906024015f604051808303815f87803b158015611204575f80fd5b505af1158015611216573d5f803e3d5ffd5b5050505050565b33301461123d5760405163029a949d60e31b815260040160405180910390fd5b61088287878787878787610873565b611254611547565b7fefb041d771d6daaa55702fff6eb740d63ba559a75d2d1d3e151c78ff2480b60080546001600160a01b0319166001600160a01b03831690811782556040519081527fd48d879cef83a1c0bdda516f27b13ddb1b3f8bbac1c9e1511bb2a659c242776090602001610aa4565b6112c8611547565b6001600160a01b03811661132d5760405162461bcd60e51b815260206004820152602660248201527f4f776e61626c653a206e6577206f776e657220697320746865207a65726f206160448201526564647265737360d01b6064820152608401610812565b611336816117c0565b50565b5f6020820180359061134f906105769085612441565b1492915050565b5f8061136185611a01565b915081905083811015611391576040516371c4efed60e01b81526004810182905260248101859052604401610812565b935093915050565b63ffffffff81165f9081525f80516020612de083398151915260208190526040822054806113e25760405163f6ff4fb760e01b815263ffffffff85166004820152602401610812565b9392505050565b5f6113fa6113f78787611a37565b90565b90505f6114258261141361140e8a8a611a4e565b611a70565b61142060208d018d612441565b611aa4565b905060288611156114e5575f61146161144460608c0160408d01612a62565b61145160208d018d612441565b8461145c8c8c611ae1565b611b2b565b604051633e5ac80960e11b81529091506001600160a01b037f00000000000000000000000000000000000000000000000000000000000000001690637cb59012906114b69086908d905f908790600401612a7d565b5f604051808303815f87803b1580156114cd575f80fd5b505af11580156114df573d5f803e3d5ffd5b50505050505b6001600160a01b038216887fefed6d3500546b29533b128a29e3a94d70788727f0507505ac12eaf2e578fd9c61151e60208d018d612441565b6040805163ffffffff9092168252602082018690520160405180910390a3505050505050505050565b6033546001600160a01b03163314610ac15760405162461bcd60e51b815260206004820181905260248201527f4f776e61626c653a2063616c6c6572206973206e6f7420746865206f776e65726044820152606401610812565b6060805f6115fc85602001356115b686611b5d565b6115c360a0890189612601565b8080601f0160208091040260200160405190810160405280939291908181526020018383808284375f92019190915250611b8892505050565b90935090505f8161160e576001611611565b60025b90506116316116236020880188612441565b826105b360808a018a612601565b7f41db8a78b0206aba5c54bcbfc2bda0d84082a84eb88e680379a57b9e9f653c008054919450906001600160a01b0316156116d857805460405163043a78eb60e01b81526001600160a01b039091169063043a78eb906116979088908890600401612ab7565b602060405180830381865afa1580156116b2573d5f803e3d5ffd5b505050506040513d601f19601f820116820180604052508101906116d69190612adb565b505b5050509250929050565b604080518082019091525f80825260208201527f00000000000000000000000000000000000000000000000000000000000000006001600160a01b031663ddc28c586040518060a001604052808863ffffffff16815260200161174489611399565b8152602001878152602001868152602001851515815250306040518363ffffffff1660e01b8152600401611779929190612af6565b6040805180830381865afa158015611793573d5f803e3d5ffd5b505050506040513d601f19601f820116820180604052508101906117b79190612b9c565b95945050505050565b603380546001600160a01b038381166001600160a01b0319831681179093556040519116919082907f8be0079c531659141344cd1fd0a4f28419497f9722a3daafe3b4186f6b6457e0905f90a35050565b5f61181f6002828486612860565b61182891612bb6565b60f01c905060038114611852578282604051639a6d49cd60e01b81526004016108129291906128ad565b505050565b5f54610100900460ff1661187d5760405162461bcd60e51b815260040161081290612be6565b61133681611c02565b5f54610100900460ff166118ac5760405162461bcd60e51b815260040161081290612be6565b610ac1611c31565b5f806118c1858585611356565b90925090506113916001600160a01b037f000000000000000000000000000000000000000000000000000000000000000016333085611c60565b611903612034565b5f611910845f0151611cd1565b60208501519091501561192a5761192a8460200151611cf8565b7f00000000000000000000000000000000000000000000000000000000000000006001600160a01b0316632637a450826040518060a001604052808b63ffffffff16815260200161197a8c611399565b81526020018a81526020018981526020015f8960200151111515815250866040518463ffffffff1660e01b81526004016119b5929190612af6565b60806040518083038185885af11580156119d1573d5f803e3d5ffd5b50505050506040513d601f19601f820116820180604052508101906119f69190612c31565b979650505050505050565b5f7f0000000000000000000000000000000000000000000000000000000000000000611a2d8184612c96565b6109569190612cb5565b5f611a456020828486612860565b6113e291612cd8565b5f611a5d602860208486612860565b611a6691612cf5565b60c01c9392505050565b5f6109567f00000000000000000000000000000000000000000000000000000000000000006001600160401b038416612cb5565b5f611ad96001600160a01b037f0000000000000000000000000000000000000000000000000000000000000000168585611dd7565b509092915050565b6060611af08260288186612860565b8080601f0160208091040260200160405190810160405280939291908181526020018383808284375f92019190915250929695505050505050565b606084848484604051602001611b449493929190612d23565b6040516020818303038152906040529050949350505050565b5f6109567f000000000000000000000000000000000000000000000000000000000000000083612c96565b8051606090151580611bd1578484604051602001611bbd92919091825260c01b6001600160c01b031916602082015260280190565b604051602081830303815290604052611bf8565b84843385604051602001611be89493929190612d71565b6040516020818303038152906040525b9150935093915050565b5f54610100900460ff16611c285760405162461bcd60e51b815260040161081290612be6565b61133681611e07565b5f54610100900460ff16611c575760405162461bcd60e51b815260040161081290612be6565b610ac1336117c0565b6040516001600160a01b0380851660248301528316604482015260648101829052611ccb9085906323b872dd60e01b906084015b60408051601f198184030181529190526020810180516001600160e01b03166001600160e01b031990931692909217909152611e54565b50505050565b5f813414611cf4576040516304fb820960e51b8152346004820152602401610812565b5090565b5f7f00000000000000000000000000000000000000000000000000000000000000006001600160a01b031663e4fe1d946040518163ffffffff1660e01b8152600401602060405180830381865afa158015611d55573d5f803e3d5ffd5b505050506040513d601f19601f82011682018060405250810190611d799190612db3565b90506001600160a01b038116611da2576040516329b99a9560e11b815260040160405180910390fd5b6110a16001600160a01b038216337f000000000000000000000000000000000000000000000000000000000000000085611c60565b6040516001600160a01b03831660248201526044810182905261185290849063a9059cbb60e01b90606401611c94565b5f54610100900460ff16611e2d5760405162461bcd60e51b815260040161081290612be6565b6001600160a01b0381166111a457604051632d618d8160e21b815260040160405180910390fd5b5f611ea8826040518060400160405280602081526020017f5361666545524332303a206c6f772d6c6576656c2063616c6c206661696c6564815250856001600160a01b0316611f279092919063ffffffff16565b905080515f1480611ec8575080806020019051810190611ec89190612adb565b6118525760405162461bcd60e51b815260206004820152602a60248201527f5361666545524332303a204552433230206f7065726174696f6e20646964206e6044820152691bdd081cdd58d8d9595960b21b6064820152608401610812565b6060610df784845f85855f80866001600160a01b03168587604051611f4c9190612dce565b5f6040518083038185875af1925050503d805f8114611f86576040519150601f19603f3d011682016040523d82523d5f602084013e611f8b565b606091505b50915091506119f687838387606083156120055782515f03611ffe576001600160a01b0385163b611ffe5760405162461bcd60e51b815260206004820152601d60248201527f416464726573733a2063616c6c20746f206e6f6e2d636f6e74726163740000006044820152606401610812565b5081610df7565b610df7838381511561201a5781518083602001fd5b8060405162461bcd60e51b81526004016108129190612396565b60405180606001604052805f80191681526020015f6001600160401b0316815260200161207260405180604001604052805f81526020015f81525090565b905290565b5f60e08284031215612087575f80fd5b50919050565b5f6020828403121561209d575f80fd5b81356001600160401b038111156120b2575f80fd5b610df784828501612077565b5f5b838110156120d85781810151838201526020016120c0565b50505f910152565b5f81518084526120f78160208601602086016120be565b601f01601f19169290920160200192915050565b83518152602080850151908201525f60a08201604060a0604085015281865180845260c08601915060c08160051b870101935060208089015f5b838110156121845788870360bf19018552815180518852830151838801879052612171878901826120e0565b9750509382019390820190600101612145565b50508751606088015250505060208501516080850152509050610df7565b5f60608284031215612087575f80fd5b5f8083601f8401126121c2575f80fd5b5081356001600160401b038111156121d8575f80fd5b6020830191508360208285010111156121ef575f80fd5b9250929050565b6001600160a01b0381168114611336575f80fd5b5f805f805f805f60e0888a031215612220575f80fd5b61222a89896121a2565b96506060880135955060808801356001600160401b038082111561224c575f80fd5b6122588b838c016121b2565b909750955060a08a0135915061226d826121f6565b90935060c08901359080821115612282575f80fd5b5061228f8a828b016121b2565b989b979a50959850939692959293505050565b803563ffffffff811681146122b5575f80fd5b919050565b5f80604083850312156122cb575f80fd5b6122d4836122a2565b946020939093013593505050565b8015158114611336575f80fd5b5f8060408385031215612300575f80fd5b82356001600160401b03811115612315575f80fd5b61232185828601612077565b9250506020830135612332816122e2565b809150509250929050565b815181526020808301519082015260408101610956565b803561ffff811681146122b5575f80fd5b5f8060408385031215612376575f80fd5b61237f836122a2565b915061238d60208401612354565b90509250929050565b602081525f6113e260208301846120e0565b5f602082840312156123b8575f80fd5b81356113e2816121f6565b5f8083601f8401126123d3575f80fd5b5081356001600160401b038111156123e9575f80fd5b6020830191508360208260051b85010111156121ef575f80fd5b5f8060208385031215612414575f80fd5b82356001600160401b03811115612429575f80fd5b612435858286016123c3565b90969095509350505050565b5f60208284031215612451575f80fd5b6113e2826122a2565b5f805f806060858703121561246d575f80fd5b612476856122a2565b935061248460208601612354565b925060408501356001600160401b0381111561249e575f80fd5b6124aa878288016121b2565b95989497509550505050565b5f805f83850360808112156124c9575f80fd5b84356001600160401b038111156124de575f80fd5b6124ea87828801612077565b9450506040601f19820112156124fe575f80fd5b506020840191506060840135612513816121f6565b809150509250925092565b5f60c082019050835182526001600160401b0360208501511660208301526040840151612558604084018280518252602090810151910152565b5082516080830152602083015160a08301526113e2565b5f6060828403121561257f575f80fd5b6113e283836121a2565b634e487b7160e01b5f52604160045260245ffd5b600181811c908216806125b157607f821691505b60208210810361208757634e487b7160e01b5f52602260045260245ffd5b634e487b7160e01b5f52603260045260245ffd5b5f8235605e198336030181126125f7575f80fd5b9190910192915050565b5f808335601e19843603018112612616575f80fd5b8301803591506001600160401b0382111561262f575f80fd5b6020019150368190038213156121ef575f80fd5b5f60208284031215612653575f80fd5b6113e282612354565b601f82111561185257805f5260205f20601f840160051c810160208510156126815750805b601f840160051c820191505b81811015611216575f815560010161268d565b6001600160401b038311156126b7576126b7612589565b6126cb836126c5835461259d565b8361265c565b5f601f8411600181146126fc575f85156126e55750838201355b5f19600387901b1c1916600186901b178355611216565b5f83815260208120601f198716915b8281101561272b578685013582556020948501946001909201910161270b565b5086821015612747575f1960f88860031b161c19848701351681555b505060018560011b0183555050505050565b81835281816020850137505f828201602090810191909152601f909101601f19169091010190565b60208082528181018390525f906040808401600586901b8501820187855b8881101561285257878303603f190184528135368b9003605e190181126127c4575f80fd5b8a01606063ffffffff6127d6836122a2565b16855261ffff6127e7898401612354565b168886015286820135601e19833603018112612801575f80fd5b9091018781019190356001600160401b0381111561281d575f80fd5b80360383131561282b575f80fd5b818887015261283d8287018285612759565b9689019695505050918601915060010161279f565b509098975050505050505050565b5f808585111561286e575f80fd5b8386111561287a575f80fd5b5050820193919092039150565b5f84516128988184602089016120be565b8201838582375f930192835250909392505050565b602081525f610df7602083018486612759565b5f823561013e198336030181126125f7575f80fd5b6001600160401b0381168114611336575f80fd5b63ffffffff6128f7896122a2565b168152602088013560208201525f6040890135612913816128d5565b6001600160401b03811660408401525087606083015260e0608083015261293e60e083018789612759565b6001600160a01b03861660a084015282810360c0840152612960818587612759565b9a9950505050505050505050565b604080519081016001600160401b038111828210171561299057612990612589565b60405290565b5f602082840312156129a6575f80fd5b81516001600160401b03808211156129bc575f80fd5b818401915084601f8301126129cf575f80fd5b8151818111156129e1576129e1612589565b604051601f8201601f19908116603f01168101908382118183101715612a0957612a09612589565b81604052828152876020848701011115612a21575f80fd5b6119f68360208301602088016120be565b5f60408284031215612a42575f80fd5b612a4a61296e565b82358152602083013560208201528091505092915050565b5f60208284031215612a72575f80fd5b81356113e2816128d5565b60018060a01b038516815283602082015261ffff83166040820152608060608201525f612aad60808301846120e0565b9695505050505050565b604081525f612ac960408301856120e0565b82810360208401526117b781856120e0565b5f60208284031215612aeb575f80fd5b81516113e2816122e2565b6040815263ffffffff8351166040820152602083015160608201525f604084015160a06080840152612b2b60e08401826120e0565b90506060850151603f198483030160a0850152612b4882826120e0565b60809690960151151560c08501525050506001600160a01b039190911660209091015290565b5f60408284031215612b7e575f80fd5b612b8661296e565b9050815181526020820151602082015292915050565b5f60408284031215612bac575f80fd5b6113e28383612b6e565b6001600160f01b03198135818116916002851015612bde5780818660020360031b1b83161692505b505092915050565b6020808252602b908201527f496e697469616c697a61626c653a20636f6e7472616374206973206e6f74206960408201526a6e697469616c697a696e6760a81b606082015260800190565b5f60808284031215612c41575f80fd5b604051606081018181106001600160401b0382111715612c6357612c63612589565b604052825181526020830151612c78816128d5565b6020820152612c8a8460408501612b6e565b60408201529392505050565b5f82612cb057634e487b7160e01b5f52601260045260245ffd5b500490565b808202811582820484141761095657634e487b7160e01b5f52601160045260245ffd5b80356020831015610956575f19602084900360031b1b1692915050565b6001600160c01b03198135818116916008851015612bde5760089490940360031b84901b1690921692915050565b6001600160401b0360c01b8560c01b16815263ffffffff60e01b8460e01b16600882015282600c8201525f8251612d6181602c8501602087016120be565b91909101602c0195945050505050565b8481526001600160401b0360c01b8460c01b1660208201528260288201525f8251612da38160488501602087016120be565b9190910160480195945050505050565b5f60208284031215612dc3575f80fd5b81516113e2816121f6565b5f82516125f78184602087016120be56fe72ab1bc1039b79dc4724ffca13de82c96834302d3c7e0d4252232d4b2dd8f900a2646970667358221220def3fe3b526cefa7827bf8bcd0b317fadf902a7fc51031c4467d04b4c6cb6cf664736f6c63430008160033000000000000000000000000fc000000000000000000000000000000000000010000000000000000000000001a44076050125825900e736c501f859c50fe728c",
        "nonce": "0x227",
        "chainId": "0xfc"
      },
      "additionalContracts": [],
      "isFixedGasLimit": false
    },
    {
      "hash": "0xd14c0d91a8bb107ead3b722c411b591ca1f0e85fa9e5aa1a92418d685d6b2f9f",
      "transactionType": "CREATE",
      "contractName": "TransparentUpgradeableProxy",
      "contractAddress": "0x0ebfc51719acf4e2d0d4869c04b69f5fd26c27e5",
      "function": null,
      "arguments": [
        "0x8f1B9c1fd67136D525E14D96Efb3887a33f16250",
        "0x0990be6dB8c785FBbF9deD8bAEc612A10CaE814b",
        "0x"
      ],
      "transaction": {
        "from": "0x0990be6db8c785fbbf9ded8baec612a10cae814b",
        "gas": "0xae3c7",
        "value": "0x0",
        "input": "0x608060405260405162000db038038062000db0833981016040819052620000269162000463565b82816200003582825f62000098565b5062000065905060017fb53127684a568b3173ae13b9f8a6016e243e63b6e8ee1178d6a717850b5d61046200053d565b5f8051602062000d69833981519152146200008457620000846200055d565b6200008f82620000c9565b505050620005c2565b620000a3836200013a565b5f82511180620000b05750805b15620000c457620000c283836200017b565b505b505050565b7f7e644d79422f17c01e4894b5f4f588d331ebfa28653d42ae832dc59e38c9798f6200010a5f8051602062000d69833981519152546001600160a01b031690565b604080516001600160a01b03928316815291841660208301520160405180910390a16200013781620001ac565b50565b620001458162000249565b6040516001600160a01b038216907fbc7cd75a20ee27fd9adebab32041f755214dbc6bffa90cc0225b39da2e5c2d3b905f90a250565b6060620001a3838360405180606001604052806027815260200162000d8960279139620002e0565b90505b92915050565b6001600160a01b038116620002175760405162461bcd60e51b815260206004820152602660248201527f455243313936373a206e65772061646d696e20697320746865207a65726f206160448201526564647265737360d01b60648201526084015b60405180910390fd5b805f8051602062000d698339815191525b80546001600160a01b0319166001600160a01b039290921691909117905550565b6001600160a01b0381163b620002b85760405162461bcd60e51b815260206004820152602d60248201527f455243313936373a206e657720696d706c656d656e746174696f6e206973206e60448201526c1bdd08184818dbdb9d1c9858dd609a1b60648201526084016200020e565b807f360894a13ba1a3210667c828492db98dca3e2076cc3735a920a3ca505d382bbc62000228565b60605f80856001600160a01b031685604051620002fe919062000571565b5f60405180830381855af49150503d805f811462000338576040519150601f19603f3d011682016040523d82523d5f602084013e6200033d565b606091505b50909250905062000351868383876200035b565b9695505050505050565b60608315620003ce5782515f03620003c6576001600160a01b0385163b620003c65760405162461bcd60e51b815260206004820152601d60248201527f416464726573733a2063616c6c20746f206e6f6e2d636f6e747261637400000060448201526064016200020e565b5081620003da565b620003da8383620003e2565b949350505050565b815115620003f35781518083602001fd5b8060405162461bcd60e51b81526004016200020e91906200058e565b80516001600160a01b038116811462000426575f80fd5b919050565b634e487b7160e01b5f52604160045260245ffd5b5f5b838110156200045b57818101518382015260200162000441565b50505f910152565b5f805f6060848603121562000476575f80fd5b62000481846200040f565b925062000491602085016200040f565b60408501519092506001600160401b0380821115620004ae575f80fd5b818601915086601f830112620004c2575f80fd5b815181811115620004d757620004d76200042b565b604051601f8201601f19908116603f011681019083821181831017156200050257620005026200042b565b816040528281528960208487010111156200051b575f80fd5b6200052e8360208301602088016200043f565b80955050505050509250925092565b81810381811115620001a657634e487b7160e01b5f52601160045260245ffd5b634e487b7160e01b5f52600160045260245ffd5b5f8251620005848184602087016200043f565b9190910192915050565b602081525f8251806020840152620005ae8160408501602087016200043f565b601f01601f19169190910160400192915050565b61079980620005d05f395ff3fe60806040526004361061004d575f3560e01c80633659cfe6146100645780634f1ef286146100835780635c60da1b146100965780638f283970146100c6578063f851a440146100e55761005c565b3661005c5761005a6100f9565b005b61005a6100f9565b34801561006f575f80fd5b5061005a61007e366004610638565b610113565b61005a610091366004610651565b61014e565b3480156100a1575f80fd5b506100aa6101b4565b6040516001600160a01b03909116815260200160405180910390f35b3480156100d1575f80fd5b5061005a6100e0366004610638565b6101e4565b3480156100f0575f80fd5b506100aa610204565b610101610224565b61011161010c610254565b61025d565b565b61011b61027b565b6001600160a01b03163303610146576101438160405180602001604052805f8152505f6102ad565b50565b6101436100f9565b61015661027b565b6001600160a01b031633036101ac576101a78383838080601f0160208091040260200160405190810160405280939291908181526020018383808284375f92019190915250600192506102ad915050565b505050565b6101a76100f9565b5f6101bd61027b565b6001600160a01b031633036101d9576101d4610254565b905090565b6101e16100f9565b90565b6101ec61027b565b6001600160a01b0316330361014657610143816102d7565b5f61020d61027b565b6001600160a01b031633036101d9576101d461027b565b61022c61027b565b6001600160a01b031633036101115760405163786a591f60e11b815260040160405180910390fd5b5f6101d461032b565b365f80375f80365f845af43d5f803e808015610277573d5ff35b3d5ffd5b5f7fb53127684a568b3173ae13b9f8a6016e243e63b6e8ee1178d6a717850b5d61035b546001600160a01b0316919050565b6102b683610352565b5f825111806102c25750805b156101a7576102d18383610391565b50505050565b7f7e644d79422f17c01e4894b5f4f588d331ebfa28653d42ae832dc59e38c9798f61030061027b565b604080516001600160a01b03928316815291841660208301520160405180910390a1610143816103bd565b5f7f360894a13ba1a3210667c828492db98dca3e2076cc3735a920a3ca505d382bbc61029e565b61035b8161046b565b6040516001600160a01b038216907fbc7cd75a20ee27fd9adebab32041f755214dbc6bffa90cc0225b39da2e5c2d3b905f90a250565b60606103b6838360405180606001604052806027815260200161073d602791396104ff565b9392505050565b6001600160a01b0381166104275760405162461bcd60e51b815260206004820152602660248201527f455243313936373a206e65772061646d696e20697320746865207a65726f206160448201526564647265737360d01b60648201526084015b60405180910390fd5b807fb53127684a568b3173ae13b9f8a6016e243e63b6e8ee1178d6a717850b5d61035b80546001600160a01b0319166001600160a01b039290921691909117905550565b6001600160a01b0381163b6104d85760405162461bcd60e51b815260206004820152602d60248201527f455243313936373a206e657720696d706c656d656e746174696f6e206973206e60448201526c1bdd08184818dbdb9d1c9858dd609a1b606482015260840161041e565b807f360894a13ba1a3210667c828492db98dca3e2076cc3735a920a3ca505d382bbc61044a565b60605f80856001600160a01b03168560405161051b91906106ef565b5f60405180830381855af49150503d805f8114610553576040519150601f19603f3d011682016040523d82523d5f602084013e610558565b606091505b509150915061056986838387610573565b9695505050505050565b606083156105e15782515f036105da576001600160a01b0385163b6105da5760405162461bcd60e51b815260206004820152601d60248201527f416464726573733a2063616c6c20746f206e6f6e2d636f6e7472616374000000604482015260640161041e565b50816105eb565b6105eb83836105f3565b949350505050565b8151156106035781518083602001fd5b8060405162461bcd60e51b815260040161041e919061070a565b80356001600160a01b0381168114610633575f80fd5b919050565b5f60208284031215610648575f80fd5b6103b68261061d565b5f805f60408486031215610663575f80fd5b61066c8461061d565b9250602084013567ffffffffffffffff80821115610688575f80fd5b818601915086601f83011261069b575f80fd5b8135818111156106a9575f80fd5b8760208285010111156106ba575f80fd5b6020830194508093505050509250925092565b5f5b838110156106e75781810151838201526020016106cf565b50505f910152565b5f82516107008184602087016106cd565b9190910192915050565b602081525f82518060208401526107288160408501602087016106cd565b601f01601f1916919091016040019291505056fe416464726573733a206c6f772d6c6576656c2064656c65676174652063616c6c206661696c6564a2646970667358221220ba7654756ae737f7a87b14ba0d16e98d37f4f84addc6dcf3d6b41272756a89ab64736f6c63430008160033b53127684a568b3173ae13b9f8a6016e243e63b6e8ee1178d6a717850b5d6103416464726573733a206c6f772d6c6576656c2064656c65676174652063616c6c206661696c65640000000000000000000000008f1b9c1fd67136d525e14d96efb3887a33f162500000000000000000000000000990be6db8c785fbbf9ded8baec612a10cae814b00000000000000000000000000000000000000000000000000000000000000600000000000000000000000000000000000000000000000000000000000000000",
        "nonce": "0x228",
        "chainId": "0xfc"
      },
      "additionalContracts": [],
      "isFixedGasLimit": false
    },
    {
      "hash": "0x6eb39e58de29d10b1e7c51ec1994b081f72c61f166a40d293ed1ce8ab05f3e23",
      "transactionType": "CALL",
      "contractName": "TransparentUpgradeableProxy",
      "contractAddress": "0x0ebfc51719acf4e2d0d4869c04b69f5fd26c27e5",
      "function": "upgradeToAndCall(address,bytes)",
      "arguments": [
        "0x8e29ceB739B4285417701A83A83e497d38B5FDD1",
        "0xc4d66de80000000000000000000000000990be6db8c785fbbf9ded8baec612a10cae814b"
      ],
      "transaction": {
        "from": "0x0990be6db8c785fbbf9ded8baec612a10cae814b",
        "to": "0x0ebfc51719acf4e2d0d4869c04b69f5fd26c27e5",
        "gas": "0x25f6e",
        "value": "0x0",
        "input": "0x4f1ef2860000000000000000000000008e29ceb739b4285417701a83a83e497d38b5fdd100000000000000000000000000000000000000000000000000000000000000400000000000000000000000000000000000000000000000000000000000000024c4d66de80000000000000000000000000990be6db8c785fbbf9ded8baec612a10cae814b00000000000000000000000000000000000000000000000000000000",
        "nonce": "0x229",
        "chainId": "0xfc"
      },
      "additionalContracts": [],
      "isFixedGasLimit": false
    },
    {
      "hash": "0x84e090bd67b2b1109122f7ea736667fbf51797685c327da6f07619a33205a561",
      "transactionType": "CALL",
      "contractName": "TransparentUpgradeableProxy",
      "contractAddress": "0x0ebfc51719acf4e2d0d4869c04b69f5fd26c27e5",
      "function": "changeAdmin(address)",
      "arguments": [
        "0x8d8290d49e88D16d81C6aDf6C8774eD88762274A"
      ],
      "transaction": {
        "from": "0x0990be6db8c785fbbf9ded8baec612a10cae814b",
        "to": "0x0ebfc51719acf4e2d0d4869c04b69f5fd26c27e5",
        "gas": "0x9a90",
        "value": "0x0",
        "input": "0x8f2839700000000000000000000000008d8290d49e88d16d81c6adf6c8774ed88762274a",
        "nonce": "0x22a",
        "chainId": "0xfc"
      },
      "additionalContracts": [],
      "isFixedGasLimit": false
    },
    {
      "hash": "0xc5cf314c764e9f1133b44af44009f495e69b8326936b93986a8f8e07b4fab539",
      "transactionType": "CALL",
      "contractName": "TransparentUpgradeableProxy",
      "contractAddress": "0x0ebfc51719acf4e2d0d4869c04b69f5fd26c27e5",
      "function": null,
      "arguments": null,
      "transaction": {
        "from": "0x0990be6db8c785fbbf9ded8baec612a10cae814b",
        "to": "0x0ebfc51719acf4e2d0d4869c04b69f5fd26c27e5",
        "gas": "0x3bd50",
        "value": "0x0",
        "input": "0xb98bd070000000000000000000000000000000000000000000000000000000000000002000000000000000000000000000000000000000000000000000000000000000020000000000000000000000000000000000000000000000000000000000000040000000000000000000000000000000000000000000000000000000000000010000000000000000000000000000000000000000000000000000000000000075d800000000000000000000000000000000000000000000000000000000000000010000000000000000000000000000000000000000000000000000000000000060000000000000000000000000000000000000000000000000000000000000002600030100210100000000000000000000000000030d40000000000000000000000000002625a0000000000000000000000000000000000000000000000000000000000000000000000000000000000000000000000000000000000000000075d800000000000000000000000000000000000000000000000000000000000000020000000000000000000000000000000000000000000000000000000000000060000000000000000000000000000000000000000000000000000000000000002600030100210100000000000000000000000000030d40000000000000000000000000002625a00000000000000000000000000000000000000000000000000000",
        "nonce": "0x22b",
        "chainId": "0xfc"
      },
      "additionalContracts": [],
      "isFixedGasLimit": false
    },
    {
      "hash": "0x76be56f61f2e96a7720c4cb446c2720a1c9df65458882be756034f985d2bd0ab",
      "transactionType": "CALL",
      "contractName": "EndpointV2",
      "contractAddress": "0x1a44076050125825900e736c501f859c50fe728c",
      "function": "setConfig(address,address,(uint32,uint32,bytes)[])",
      "arguments": [
        "0x0ebFC51719acF4e2D0d4869C04b69F5FD26C27E5",
        "0x8bC1e36F015b9902B54b1387A4d733cebc2f5A4e",
        "[(30168, 2, 0x0000000000000000000000000000000000000000000000000000000000000020000000000000000000000000000000000000000000000000000000000000000000000000000000000000000000000000000000000000000000000000000000020000000000000000000000000000000000000000000000000000000000000000000000000000000000000000000000000000000000000000000000000000000000000000000000000000000000000000000000000000000000000000000000c000000000000000000000000000000000000000000000000000000000000001200000000000000000000000000000000000000000000000000000000000000002000000000000000000000000cce466a522984415bc91338c232d98869193d46e000000000000000000000000dd7b5e1db4aafd5c8ec3b764efb8ed265aa5445b0000000000000000000000000000000000000000000000000000000000000000)]"
      ],
      "transaction": {
        "from": "0x0990be6db8c785fbbf9ded8baec612a10cae814b",
        "to": "0x1a44076050125825900e736c501f859c50fe728c",
        "gas": "0x319ea",
        "value": "0x0",
        "input": "0x6dbd9f900000000000000000000000000ebfc51719acf4e2d0d4869c04b69f5fd26c27e50000000000000000000000008bc1e36f015b9902b54b1387a4d733cebc2f5a4e00000000000000000000000000000000000000000000000000000000000000600000000000000000000000000000000000000000000000000000000000000001000000000000000000000000000000000000000000000000000000000000002000000000000000000000000000000000000000000000000000000000000075d80000000000000000000000000000000000000000000000000000000000000002000000000000000000000000000000000000000000000000000000000000006000000000000000000000000000000000000000000000000000000000000001600000000000000000000000000000000000000000000000000000000000000020000000000000000000000000000000000000000000000000000000000000000000000000000000000000000000000000000000000000000000000000000000020000000000000000000000000000000000000000000000000000000000000000000000000000000000000000000000000000000000000000000000000000000000000000000000000000000000000000000000000000000000000000000000c000000000000000000000000000000000000000000000000000000000000001200000000000000000000000000000000000000000000000000000000000000002000000000000000000000000cce466a522984415bc91338c232d98869193d46e000000000000000000000000dd7b5e1db4aafd5c8ec3b764efb8ed265aa5445b0000000000000000000000000000000000000000000000000000000000000000",
        "nonce": "0x22c",
        "chainId": "0xfc"
      },
      "additionalContracts": [],
      "isFixedGasLimit": false
    },
    {
      "hash": "0x04253ad7e5e0a806da55ad88339d4760ce13edf67c8a37a041ed710c09f0074b",
      "transactionType": "CALL",
      "contractName": "EndpointV2",
      "contractAddress": "0x1a44076050125825900e736c501f859c50fe728c",
      "function": "setConfig(address,address,(uint32,uint32,bytes)[])",
      "arguments": [
        "0x0ebFC51719acF4e2D0d4869C04b69F5FD26C27E5",
        "0x377530cdA84DFb2673bF4d145DCF0C4D7fdcB5b6",
        "[(30168, 2, 0x0000000000000000000000000000000000000000000000000000000000000020000000000000000000000000000000000000000000000000000000000000000000000000000000000000000000000000000000000000000000000000000000020000000000000000000000000000000000000000000000000000000000000000000000000000000000000000000000000000000000000000000000000000000000000000000000000000000000000000000000000000000000000000000000c000000000000000000000000000000000000000000000000000000000000001200000000000000000000000000000000000000000000000000000000000000002000000000000000000000000cce466a522984415bc91338c232d98869193d46e000000000000000000000000dd7b5e1db4aafd5c8ec3b764efb8ed265aa5445b0000000000000000000000000000000000000000000000000000000000000000)]"
      ],
      "transaction": {
        "from": "0x0990be6db8c785fbbf9ded8baec612a10cae814b",
        "to": "0x1a44076050125825900e736c501f859c50fe728c",
        "gas": "0x2ef2a",
        "value": "0x0",
        "input": "0x6dbd9f900000000000000000000000000ebfc51719acf4e2d0d4869c04b69f5fd26c27e5000000000000000000000000377530cda84dfb2673bf4d145dcf0c4d7fdcb5b600000000000000000000000000000000000000000000000000000000000000600000000000000000000000000000000000000000000000000000000000000001000000000000000000000000000000000000000000000000000000000000002000000000000000000000000000000000000000000000000000000000000075d80000000000000000000000000000000000000000000000000000000000000002000000000000000000000000000000000000000000000000000000000000006000000000000000000000000000000000000000000000000000000000000001600000000000000000000000000000000000000000000000000000000000000020000000000000000000000000000000000000000000000000000000000000000000000000000000000000000000000000000000000000000000000000000000020000000000000000000000000000000000000000000000000000000000000000000000000000000000000000000000000000000000000000000000000000000000000000000000000000000000000000000000000000000000000000000000c000000000000000000000000000000000000000000000000000000000000001200000000000000000000000000000000000000000000000000000000000000002000000000000000000000000cce466a522984415bc91338c232d98869193d46e000000000000000000000000dd7b5e1db4aafd5c8ec3b764efb8ed265aa5445b0000000000000000000000000000000000000000000000000000000000000000",
        "nonce": "0x22d",
        "chainId": "0xfc"
      },
      "additionalContracts": [],
      "isFixedGasLimit": false
    },
    {
      "hash": "0xa8bcabb429ec1b9b6c4bc1ca163d4bfd854b6f9df107b4894366bafb6e938173",
      "transactionType": "CALL",
      "contractName": "EndpointV2",
      "contractAddress": "0x1a44076050125825900e736c501f859c50fe728c",
      "function": "setSendLibrary(address,uint32,address)",
      "arguments": [
        "0x0ebFC51719acF4e2D0d4869C04b69F5FD26C27E5",
        "30168",
        "0x377530cdA84DFb2673bF4d145DCF0C4D7fdcB5b6"
      ],
      "transaction": {
        "from": "0x0990be6db8c785fbbf9ded8baec612a10cae814b",
        "to": "0x1a44076050125825900e736c501f859c50fe728c",
        "gas": "0x1378b",
        "value": "0x0",
        "input": "0x9535ff300000000000000000000000000ebfc51719acf4e2d0d4869c04b69f5fd26c27e500000000000000000000000000000000000000000000000000000000000075d8000000000000000000000000377530cda84dfb2673bf4d145dcf0c4d7fdcb5b6",
        "nonce": "0x22e",
        "chainId": "0xfc"
      },
      "additionalContracts": [],
      "isFixedGasLimit": false
    },
    {
      "hash": "0x044fe9b2403f3e87294ff46fbc4d19f75989a3e2876a21f82a00284691e941d4",
      "transactionType": "CALL",
      "contractName": "EndpointV2",
      "contractAddress": "0x1a44076050125825900e736c501f859c50fe728c",
      "function": "setReceiveLibrary(address,uint32,address,uint256)",
      "arguments": [
        "0x0ebFC51719acF4e2D0d4869C04b69F5FD26C27E5",
        "30168",
        "0x8bC1e36F015b9902B54b1387A4d733cebc2f5A4e",
        "0"
      ],
      "transaction": {
        "from": "0x0990be6db8c785fbbf9ded8baec612a10cae814b",
        "to": "0x1a44076050125825900e736c501f859c50fe728c",
        "gas": "0x17001",
        "value": "0x0",
        "input": "0x6a14d7150000000000000000000000000ebfc51719acf4e2d0d4869c04b69f5fd26c27e500000000000000000000000000000000000000000000000000000000000075d80000000000000000000000008bc1e36f015b9902b54b1387a4d733cebc2f5a4e0000000000000000000000000000000000000000000000000000000000000000",
        "nonce": "0x22f",
        "chainId": "0xfc"
      },
      "additionalContracts": [],
      "isFixedGasLimit": false
    },
    {
      "hash": "0x0d49fbecd0c838ca8ed36687d34f0408fbfc3135a23d4fa9f97a0d33283bb5c5",
      "transactionType": "CALL",
      "contractName": "TransparentUpgradeableProxy",
      "contractAddress": "0x0ebfc51719acf4e2d0d4869c04b69f5fd26c27e5",
      "function": null,
      "arguments": null,
      "transaction": {
        "from": "0x0990be6db8c785fbbf9ded8baec612a10cae814b",
        "to": "0x0ebfc51719acf4e2d0d4869c04b69f5fd26c27e5",
        "gas": "0xdd53",
        "value": "0x0",
        "input": "0xca5eb5e10000000000000000000000008d8290d49e88d16d81c6adf6c8774ed88762274a",
        "nonce": "0x230",
        "chainId": "0xfc"
      },
      "additionalContracts": [],
      "isFixedGasLimit": false
    },
    {
      "hash": "0x8e017043d0f0cf08d581efaccbb7dc799dd8083e906cc39bb694a034add9de7e",
      "transactionType": "CALL",
      "contractName": "TransparentUpgradeableProxy",
      "contractAddress": "0x0ebfc51719acf4e2d0d4869c04b69f5fd26c27e5",
      "function": null,
      "arguments": null,
      "transaction": {
        "from": "0x0990be6db8c785fbbf9ded8baec612a10cae814b",
        "to": "0x0ebfc51719acf4e2d0d4869c04b69f5fd26c27e5",
        "gas": "0xc1df",
        "value": "0x0",
        "input": "0xf2fde38b0000000000000000000000008d8290d49e88d16d81c6adf6c8774ed88762274a",
        "nonce": "0x231",
        "chainId": "0xfc"
      },
      "additionalContracts": [],
      "isFixedGasLimit": false
    }
  ],
  "receipts": [
    {
      "status": "0x1",
      "cumulativeGasUsed": "0x28d4e3",
      "logs": [],
      "logsBloom": "0x00000000000000000000000000000000000000000000000000000000000000000000000000000000000000000000000000000000000000000000000000000000000000000000000000000000000000000000000000000000000000000000000000000000000000000000000000000000000000000000000000000000000000000000000000000000000000000000000000000000000000000000000000000000000000000000000000000000000000000000000000000000000000000000000000000000000000000000000000000000000000000000000000000000000000000000000000000000000000000000000000000000000000000000000000000000",
      "type": "0x2",
      "transactionHash": "0xe158125cbdfa44665c7037c8b4e7d8811ce4d8196ba5fc9314d9967014f53167",
      "transactionIndex": "0x1",
      "blockHash": "0x59f65e8e55ed07969933170d20b86d5d37a51c08fc64216ab027eab8a3cc211a",
      "blockNumber": "0xfde2d4",
      "gasUsed": "0x2820fa",
      "effectiveGasPrice": "0x98977d",
      "from": "0x0990be6db8c785fbbf9ded8baec612a10cae814b",
      "to": null,
      "contractAddress": "0x8e29ceb739b4285417701a83a83e497d38b5fdd1",
      "l1BaseFeeScalar": "0xc350",
      "l1BlobBaseFee": "0x5ead5bf",
      "l1BlobBaseFeeScalar": "0x0",
      "l1Fee": "0x4e2b2dd7ea1",
      "l1GasPrice": "0x37cd4684",
      "l1GasUsed": "0x1c043"
    },
    {
      "status": "0x1",
      "cumulativeGasUsed": "0x313555",
      "logs": [
        {
          "address": "0x0ebfc51719acf4e2d0d4869c04b69f5fd26c27e5",
          "topics": [
            "0xbc7cd75a20ee27fd9adebab32041f755214dbc6bffa90cc0225b39da2e5c2d3b",
            "0x0000000000000000000000008f1b9c1fd67136d525e14d96efb3887a33f16250"
          ],
          "data": "0x",
          "blockHash": "0x59f65e8e55ed07969933170d20b86d5d37a51c08fc64216ab027eab8a3cc211a",
          "blockNumber": "0xfde2d4",
          "transactionHash": "0xd14c0d91a8bb107ead3b722c411b591ca1f0e85fa9e5aa1a92418d685d6b2f9f",
          "transactionIndex": "0x2",
          "logIndex": "0x0",
          "removed": false
        },
        {
          "address": "0x0ebfc51719acf4e2d0d4869c04b69f5fd26c27e5",
          "topics": [
            "0x7e644d79422f17c01e4894b5f4f588d331ebfa28653d42ae832dc59e38c9798f"
          ],
          "data": "0x00000000000000000000000000000000000000000000000000000000000000000000000000000000000000000990be6db8c785fbbf9ded8baec612a10cae814b",
          "blockHash": "0x59f65e8e55ed07969933170d20b86d5d37a51c08fc64216ab027eab8a3cc211a",
          "blockNumber": "0xfde2d4",
          "transactionHash": "0xd14c0d91a8bb107ead3b722c411b591ca1f0e85fa9e5aa1a92418d685d6b2f9f",
          "transactionIndex": "0x2",
          "logIndex": "0x1",
          "removed": false
        }
      ],
      "logsBloom": "0x00000000000000000000000040000000400000000000000000000000000000000000000000000000000000000000000000000000000000000000000000000000000000000000000000000000000002000000000000000000000000000000000001000000000000000000000000000000000000800000000400000000000000000000000000000000000000000000000000000000000000000000000000800000000000000000000000000000000000000000000000000000000000000000000000000020000000000000000000000000000000000400000000000000000000000080000000000000000000000000000000040000000000000000040000000000",
      "type": "0x2",
      "transactionHash": "0xd14c0d91a8bb107ead3b722c411b591ca1f0e85fa9e5aa1a92418d685d6b2f9f",
      "transactionIndex": "0x2",
      "blockHash": "0x59f65e8e55ed07969933170d20b86d5d37a51c08fc64216ab027eab8a3cc211a",
      "blockNumber": "0xfde2d4",
      "gasUsed": "0x86072",
      "effectiveGasPrice": "0x98977d",
      "from": "0x0990be6db8c785fbbf9ded8baec612a10cae814b",
      "to": null,
      "contractAddress": "0x0ebfc51719acf4e2d0d4869c04b69f5fd26c27e5",
      "l1BaseFeeScalar": "0xc350",
      "l1BlobBaseFee": "0x5ead5bf",
      "l1BlobBaseFeeScalar": "0x0",
      "l1Fee": "0x1549e5db00f",
      "l1GasPrice": "0x37cd4684",
      "l1GasUsed": "0x7a14"
    },
    {
      "status": "0x1",
      "cumulativeGasUsed": "0x32ed1a",
      "logs": [
        {
          "address": "0x0ebfc51719acf4e2d0d4869c04b69f5fd26c27e5",
          "topics": [
            "0xbc7cd75a20ee27fd9adebab32041f755214dbc6bffa90cc0225b39da2e5c2d3b",
            "0x0000000000000000000000008e29ceb739b4285417701a83a83e497d38b5fdd1"
          ],
          "data": "0x",
          "blockHash": "0x59f65e8e55ed07969933170d20b86d5d37a51c08fc64216ab027eab8a3cc211a",
          "blockNumber": "0xfde2d4",
          "transactionHash": "0x6eb39e58de29d10b1e7c51ec1994b081f72c61f166a40d293ed1ce8ab05f3e23",
          "transactionIndex": "0x3",
          "logIndex": "0x2",
          "removed": false
        },
        {
          "address": "0x1a44076050125825900e736c501f859c50fe728c",
          "topics": [
            "0x6ee10e9ed4d6ce9742703a498707862f4b00f1396a87195eb93267b3d7983981"
          ],
          "data": "0x0000000000000000000000000ebfc51719acf4e2d0d4869c04b69f5fd26c27e50000000000000000000000000990be6db8c785fbbf9ded8baec612a10cae814b",
          "blockHash": "0x59f65e8e55ed07969933170d20b86d5d37a51c08fc64216ab027eab8a3cc211a",
          "blockNumber": "0xfde2d4",
          "transactionHash": "0x6eb39e58de29d10b1e7c51ec1994b081f72c61f166a40d293ed1ce8ab05f3e23",
          "transactionIndex": "0x3",
          "logIndex": "0x3",
          "removed": false
        },
        {
          "address": "0x0ebfc51719acf4e2d0d4869c04b69f5fd26c27e5",
          "topics": [
            "0x8be0079c531659141344cd1fd0a4f28419497f9722a3daafe3b4186f6b6457e0",
            "0x0000000000000000000000000000000000000000000000000000000000000000",
            "0x0000000000000000000000000990be6db8c785fbbf9ded8baec612a10cae814b"
          ],
          "data": "0x",
          "blockHash": "0x59f65e8e55ed07969933170d20b86d5d37a51c08fc64216ab027eab8a3cc211a",
          "blockNumber": "0xfde2d4",
          "transactionHash": "0x6eb39e58de29d10b1e7c51ec1994b081f72c61f166a40d293ed1ce8ab05f3e23",
          "transactionIndex": "0x3",
          "logIndex": "0x4",
          "removed": false
        },
        {
          "address": "0x0ebfc51719acf4e2d0d4869c04b69f5fd26c27e5",
          "topics": [
            "0x8be0079c531659141344cd1fd0a4f28419497f9722a3daafe3b4186f6b6457e0",
            "0x0000000000000000000000000990be6db8c785fbbf9ded8baec612a10cae814b",
            "0x0000000000000000000000000990be6db8c785fbbf9ded8baec612a10cae814b"
          ],
          "data": "0x",
          "blockHash": "0x59f65e8e55ed07969933170d20b86d5d37a51c08fc64216ab027eab8a3cc211a",
          "blockNumber": "0xfde2d4",
          "transactionHash": "0x6eb39e58de29d10b1e7c51ec1994b081f72c61f166a40d293ed1ce8ab05f3e23",
          "transactionIndex": "0x3",
          "logIndex": "0x5",
          "removed": false
        },
        {
          "address": "0x0ebfc51719acf4e2d0d4869c04b69f5fd26c27e5",
          "topics": [
            "0x7f26b83ff96e1f2b6a682f133852f6798a09c465da95921460cefb3847402498"
          ],
          "data": "0x0000000000000000000000000000000000000000000000000000000000000001",
          "blockHash": "0x59f65e8e55ed07969933170d20b86d5d37a51c08fc64216ab027eab8a3cc211a",
          "blockNumber": "0xfde2d4",
          "transactionHash": "0x6eb39e58de29d10b1e7c51ec1994b081f72c61f166a40d293ed1ce8ab05f3e23",
          "transactionIndex": "0x3",
          "logIndex": "0x6",
          "removed": false
        }
      ],
      "logsBloom": "0x00000000000000000000000000000000400000002000000000800000001000000000000000000000000000000000000000000002000000000000000000000000000000000000000000000000400002000001000000000000000000000000000000000000020000000000000000000800000080000010000400000000000000400000000000000000000000000000000000000000000080000000000000000000000000000000000000000000000400000000000000000000000000000000000400000020000000000000000000040000000000000800000000000000000020000080000000000000000000080000000000000000010000000000440000000000",
      "type": "0x2",
      "transactionHash": "0x6eb39e58de29d10b1e7c51ec1994b081f72c61f166a40d293ed1ce8ab05f3e23",
      "transactionIndex": "0x3",
      "blockHash": "0x59f65e8e55ed07969933170d20b86d5d37a51c08fc64216ab027eab8a3cc211a",
      "blockNumber": "0xfde2d4",
      "gasUsed": "0x1b7c5",
      "effectiveGasPrice": "0x98977d",
      "from": "0x0990be6db8c785fbbf9ded8baec612a10cae814b",
      "to": "0x0ebfc51719acf4e2d0d4869c04b69f5fd26c27e5",
      "contractAddress": null,
      "l1BaseFeeScalar": "0xc350",
      "l1BlobBaseFee": "0x5ead5bf",
      "l1BlobBaseFeeScalar": "0x0",
      "l1Fee": "0x154f6886c4",
      "l1GasPrice": "0x37cd4684",
      "l1GasUsed": "0x7a3"
    },
    {
      "status": "0x1",
      "cumulativeGasUsed": "0x335d01",
      "logs": [
        {
          "address": "0x0ebfc51719acf4e2d0d4869c04b69f5fd26c27e5",
          "topics": [
            "0x7e644d79422f17c01e4894b5f4f588d331ebfa28653d42ae832dc59e38c9798f"
          ],
          "data": "0x0000000000000000000000000990be6db8c785fbbf9ded8baec612a10cae814b0000000000000000000000008d8290d49e88d16d81c6adf6c8774ed88762274a",
          "blockHash": "0x59f65e8e55ed07969933170d20b86d5d37a51c08fc64216ab027eab8a3cc211a",
          "blockNumber": "0xfde2d4",
          "transactionHash": "0x84e090bd67b2b1109122f7ea736667fbf51797685c327da6f07619a33205a561",
          "transactionIndex": "0x4",
          "logIndex": "0x7",
          "removed": false
        }
      ],
      "logsBloom": "0x00000000000000000000000000000000000000000000000000000000000000000000000000000000000000000000000000000000000000000000000000000000000000000000000000000000000000000000000000000000000000000000000000000000000000000000000000000000000000800000000400000000000000000000000000000000000000000000000000000000000000000000000000800000000000000000000000000000000000000000000000000000000000000000000000000000000000000000000000000000000000000400000000000000000000000080000000000000000000000000000000000000000000000000040000000000",
      "type": "0x2",
      "transactionHash": "0x84e090bd67b2b1109122f7ea736667fbf51797685c327da6f07619a33205a561",
      "transactionIndex": "0x4",
      "blockHash": "0x59f65e8e55ed07969933170d20b86d5d37a51c08fc64216ab027eab8a3cc211a",
      "blockNumber": "0xfde2d4",
      "gasUsed": "0x6fe7",
      "effectiveGasPrice": "0x98977d",
      "from": "0x0990be6db8c785fbbf9ded8baec612a10cae814b",
      "to": "0x0ebfc51719acf4e2d0d4869c04b69f5fd26c27e5",
      "contractAddress": null,
      "l1BaseFeeScalar": "0xc350",
      "l1BlobBaseFee": "0x5ead5bf",
      "l1BlobBaseFeeScalar": "0x0",
      "l1Fee": "0x1170260940",
      "l1GasPrice": "0x37cd4684",
      "l1GasUsed": "0x640"
    },
    {
      "status": "0x1",
      "cumulativeGasUsed": "0x361215",
      "logs": [
        {
          "address": "0x0ebfc51719acf4e2d0d4869c04b69f5fd26c27e5",
          "topics": [
            "0xbe4864a8e820971c0247f5992e2da559595f7bf076a21cb5928d443d2a13b674"
          ],
          "data": "0x000000000000000000000000000000000000000000000000000000000000002000000000000000000000000000000000000000000000000000000000000000020000000000000000000000000000000000000000000000000000000000000040000000000000000000000000000000000000000000000000000000000000010000000000000000000000000000000000000000000000000000000000000075d800000000000000000000000000000000000000000000000000000000000000010000000000000000000000000000000000000000000000000000000000000060000000000000000000000000000000000000000000000000000000000000002600030100210100000000000000000000000000030d40000000000000000000000000002625a0000000000000000000000000000000000000000000000000000000000000000000000000000000000000000000000000000000000000000075d800000000000000000000000000000000000000000000000000000000000000020000000000000000000000000000000000000000000000000000000000000060000000000000000000000000000000000000000000000000000000000000002600030100210100000000000000000000000000030d40000000000000000000000000002625a00000000000000000000000000000000000000000000000000000",
          "blockHash": "0x59f65e8e55ed07969933170d20b86d5d37a51c08fc64216ab027eab8a3cc211a",
          "blockNumber": "0xfde2d4",
          "transactionHash": "0xc5cf314c764e9f1133b44af44009f495e69b8326936b93986a8f8e07b4fab539",
          "transactionIndex": "0x5",
          "logIndex": "0x8",
          "removed": false
        }
      ],
      "logsBloom": "0x00000000000000000000000000000000000000000000000000000000000000000000000000000000000000000000000000000000000000000000400000000000000000000000000000000000000000000000000000000000000000000000000000000000000000000000000000000000000000000000000400000000000000000000000000000000000000000000000000000000000000000000000000080000000000000000000000000000000000000000000000000000000000000000000000000000000000000000000002000000000000000000000000000000000000000080000000000000000000000000000000000000000000000000040000000000",
      "type": "0x2",
      "transactionHash": "0xc5cf314c764e9f1133b44af44009f495e69b8326936b93986a8f8e07b4fab539",
      "transactionIndex": "0x5",
      "blockHash": "0x59f65e8e55ed07969933170d20b86d5d37a51c08fc64216ab027eab8a3cc211a",
      "blockNumber": "0xfde2d4",
      "gasUsed": "0x2b514",
      "effectiveGasPrice": "0x98977d",
      "from": "0x0990be6db8c785fbbf9ded8baec612a10cae814b",
      "to": "0x0ebfc51719acf4e2d0d4869c04b69f5fd26c27e5",
      "contractAddress": null,
      "l1BaseFeeScalar": "0xc350",
      "l1BlobBaseFee": "0x5ead5bf",
      "l1BlobBaseFeeScalar": "0x0",
      "l1Fee": "0x16c4d596fa",
      "l1GasPrice": "0x37cd4684",
      "l1GasUsed": "0x829"
    },
    {
      "status": "0x1",
      "cumulativeGasUsed": "0x3830ee",
      "logs": [
        {
          "address": "0x8bc1e36f015b9902b54b1387a4d733cebc2f5a4e",
          "topics": [
            "0x82118522aa536ac0e96cc5c689407ae42b89d592aa133890a01f1509842f5081"
          ],
          "data": "0x0000000000000000000000000ebfc51719acf4e2d0d4869c04b69f5fd26c27e500000000000000000000000000000000000000000000000000000000000075d80000000000000000000000000000000000000000000000000000000000000060000000000000000000000000000000000000000000000000000000000000000000000000000000000000000000000000000000000000000000000000000000020000000000000000000000000000000000000000000000000000000000000000000000000000000000000000000000000000000000000000000000000000000000000000000000000000000000000000000000000000000000000000000000c000000000000000000000000000000000000000000000000000000000000001200000000000000000000000000000000000000000000000000000000000000002000000000000000000000000cce466a522984415bc91338c232d98869193d46e000000000000000000000000dd7b5e1db4aafd5c8ec3b764efb8ed265aa5445b0000000000000000000000000000000000000000000000000000000000000000",
          "blockHash": "0x59f65e8e55ed07969933170d20b86d5d37a51c08fc64216ab027eab8a3cc211a",
          "blockNumber": "0xfde2d4",
          "transactionHash": "0x76be56f61f2e96a7720c4cb446c2720a1c9df65458882be756034f985d2bd0ab",
          "transactionIndex": "0x6",
          "logIndex": "0x9",
          "removed": false
        }
      ],
      "logsBloom": "0x00000000000000000000000000000000000000000000000000000000000000000000000000000000000000000000000000010000000000000000000000001000000000000000000000000000000000000000000000000000002000000000000000000000000000000000000000000000000000000000000000000000000000000000000000000000000000000000000000000000000000000000000000000000000000000000000000000402000000000000000000000000000000000000000000000000000000000000000000000000000000000000000000000000000000000000000000000000000000000000000000000000000000000000000000000010",
      "type": "0x2",
      "transactionHash": "0x76be56f61f2e96a7720c4cb446c2720a1c9df65458882be756034f985d2bd0ab",
      "transactionIndex": "0x6",
      "blockHash": "0x59f65e8e55ed07969933170d20b86d5d37a51c08fc64216ab027eab8a3cc211a",
      "blockNumber": "0xfde2d4",
      "gasUsed": "0x21ed9",
      "effectiveGasPrice": "0x98977d",
      "from": "0x0990be6db8c785fbbf9ded8baec612a10cae814b",
      "to": "0x1a44076050125825900e736c501f859c50fe728c",
      "contractAddress": null,
      "l1BaseFeeScalar": "0xc350",
      "l1BlobBaseFee": "0x5ead5bf",
      "l1BlobBaseFeeScalar": "0x0",
      "l1Fee": "0x2455b24755",
      "l1GasPrice": "0x37cd4684",
      "l1GasUsed": "0xd05"
    },
    {
      "status": "0x1",
      "cumulativeGasUsed": "0x3a50c3",
      "logs": [
        {
          "address": "0x377530cda84dfb2673bf4d145dcf0c4d7fdcb5b6",
          "topics": [
            "0x82118522aa536ac0e96cc5c689407ae42b89d592aa133890a01f1509842f5081"
          ],
          "data": "0x0000000000000000000000000ebfc51719acf4e2d0d4869c04b69f5fd26c27e500000000000000000000000000000000000000000000000000000000000075d80000000000000000000000000000000000000000000000000000000000000060000000000000000000000000000000000000000000000000000000000000000000000000000000000000000000000000000000000000000000000000000000020000000000000000000000000000000000000000000000000000000000000000000000000000000000000000000000000000000000000000000000000000000000000000000000000000000000000000000000000000000000000000000000c000000000000000000000000000000000000000000000000000000000000001200000000000000000000000000000000000000000000000000000000000000002000000000000000000000000cce466a522984415bc91338c232d98869193d46e000000000000000000000000dd7b5e1db4aafd5c8ec3b764efb8ed265aa5445b0000000000000000000000000000000000000000000000000000000000000000",
          "blockHash": "0x59f65e8e55ed07969933170d20b86d5d37a51c08fc64216ab027eab8a3cc211a",
          "blockNumber": "0xfde2d4",
          "transactionHash": "0x04253ad7e5e0a806da55ad88339d4760ce13edf67c8a37a041ed710c09f0074b",
          "transactionIndex": "0x7",
          "logIndex": "0xa",
          "removed": false
        }
      ],
      "logsBloom": "0x00000000000000000000000000000000000000000000000000000000000000000000000000000000000000000000000000040000000000000000000000000000000000000000000000000000000000000000000000000000002000000000000000000000000000000000000000000000000000000000000000000400000000000000000000000000000000000000000000000000000000000000000000000000000000000000000000000002000000000000000000000000000000000000000000000000000000000000000000000000000000000000000000000000000000000001000000000000000000000000000000000000000000000000000000000010",
      "type": "0x2",
      "transactionHash": "0x04253ad7e5e0a806da55ad88339d4760ce13edf67c8a37a041ed710c09f0074b",
      "transactionIndex": "0x7",
      "blockHash": "0x59f65e8e55ed07969933170d20b86d5d37a51c08fc64216ab027eab8a3cc211a",
      "blockNumber": "0xfde2d4",
      "gasUsed": "0x21fd5",
      "effectiveGasPrice": "0x98977d",
      "from": "0x0990be6db8c785fbbf9ded8baec612a10cae814b",
      "to": "0x1a44076050125825900e736c501f859c50fe728c",
      "contractAddress": null,
      "l1BaseFeeScalar": "0xc350",
      "l1BlobBaseFee": "0x5ead5bf",
      "l1BlobBaseFeeScalar": "0x0",
      "l1Fee": "0x2455b24755",
      "l1GasPrice": "0x37cd4684",
      "l1GasUsed": "0xd05"
    },
    {
      "status": "0x1",
      "cumulativeGasUsed": "0x3b3251",
      "logs": [
        {
          "address": "0x1a44076050125825900e736c501f859c50fe728c",
          "topics": [
            "0x4cff966ebee29a156dcb34cf72c1d06231fb1777f6bdf6e8089819232f002b1c"
          ],
          "data": "0x0000000000000000000000000ebfc51719acf4e2d0d4869c04b69f5fd26c27e500000000000000000000000000000000000000000000000000000000000075d8000000000000000000000000377530cda84dfb2673bf4d145dcf0c4d7fdcb5b6",
          "blockHash": "0x59f65e8e55ed07969933170d20b86d5d37a51c08fc64216ab027eab8a3cc211a",
          "blockNumber": "0xfde2d4",
          "transactionHash": "0xa8bcabb429ec1b9b6c4bc1ca163d4bfd854b6f9df107b4894366bafb6e938173",
          "transactionIndex": "0x8",
          "logIndex": "0xb",
          "removed": false
        }
      ],
      "logsBloom": "0x00000000000000000000000000000000000200000000000000000000001000000000000000000000000000000000000000000000000000000000000001000000000000000000000000000000000000000000000000000000000000000000000000000000000000000000000000000000000000000010000000000000000000000000000000000000000000000000000000000000000000000000000000000000000000000000000000000000000000000000000000000000000000000000000000000000000000000000000000000000000000000000000000000000000000000040000000000000000000000000000000000000010000000000000000000000",
      "type": "0x2",
      "transactionHash": "0xa8bcabb429ec1b9b6c4bc1ca163d4bfd854b6f9df107b4894366bafb6e938173",
      "transactionIndex": "0x8",
      "blockHash": "0x59f65e8e55ed07969933170d20b86d5d37a51c08fc64216ab027eab8a3cc211a",
      "blockNumber": "0xfde2d4",
      "gasUsed": "0xe18e",
      "effectiveGasPrice": "0x98977d",
      "from": "0x0990be6db8c785fbbf9ded8baec612a10cae814b",
      "to": "0x1a44076050125825900e736c501f859c50fe728c",
      "contractAddress": null,
      "l1BaseFeeScalar": "0xc350",
      "l1BlobBaseFee": "0x5ead5bf",
      "l1BlobBaseFeeScalar": "0x0",
      "l1Fee": "0x1289e61b2a",
      "l1GasPrice": "0x37cd4684",
      "l1GasUsed": "0x6a4"
    },
    {
      "status": "0x1",
      "cumulativeGasUsed": "0x3c2df2",
      "logs": [
        {
          "address": "0x1a44076050125825900e736c501f859c50fe728c",
          "topics": [
            "0xcd6f92f5ac6185a5acfa02c92090746cec64d777269cbcd0ed031e396657a1c2"
          ],
          "data": "0x0000000000000000000000000ebfc51719acf4e2d0d4869c04b69f5fd26c27e500000000000000000000000000000000000000000000000000000000000075d80000000000000000000000008bc1e36f015b9902b54b1387a4d733cebc2f5a4e",
          "blockHash": "0x59f65e8e55ed07969933170d20b86d5d37a51c08fc64216ab027eab8a3cc211a",
          "blockNumber": "0xfde2d4",
          "transactionHash": "0x044fe9b2403f3e87294ff46fbc4d19f75989a3e2876a21f82a00284691e941d4",
          "transactionIndex": "0x9",
          "logIndex": "0xc",
          "removed": false
        },
        {
          "address": "0x1a44076050125825900e736c501f859c50fe728c",
          "topics": [
            "0x4e0a5bbfa0c11a64effb1ada324b5437a17272e1aed9320398715ef71bb20928"
          ],
          "data": "0x0000000000000000000000000ebfc51719acf4e2d0d4869c04b69f5fd26c27e500000000000000000000000000000000000000000000000000000000000075d800000000000000000000000000000000000000000000000000000000000000000000000000000000000000000000000000000000000000000000000000000000",
          "blockHash": "0x59f65e8e55ed07969933170d20b86d5d37a51c08fc64216ab027eab8a3cc211a",
          "blockNumber": "0xfde2d4",
          "transactionHash": "0x044fe9b2403f3e87294ff46fbc4d19f75989a3e2876a21f82a00284691e941d4",
          "transactionIndex": "0x9",
          "logIndex": "0xd",
          "removed": false
        }
      ],
      "logsBloom": "0x00000000000000000000020800000000000000000000000000000000001000020400000000000000000000000000000000000000000000000000000000000000000000000000000000000000000000000000000000800000000000000000000000000000000000000000000000000000000000000010000000000000000000100000000000000000000000000000000000000000000000000000000000000000000000000000000000000000000000000000000000000000000000000000000000000000000000000000000000000000000000000000000000000000000000000000000000000000000000000000000000000000010000000000000000000000",
      "type": "0x2",
      "transactionHash": "0x044fe9b2403f3e87294ff46fbc4d19f75989a3e2876a21f82a00284691e941d4",
      "transactionIndex": "0x9",
      "blockHash": "0x59f65e8e55ed07969933170d20b86d5d37a51c08fc64216ab027eab8a3cc211a",
      "blockNumber": "0xfde2d4",
      "gasUsed": "0xfba1",
      "effectiveGasPrice": "0x98977d",
      "from": "0x0990be6db8c785fbbf9ded8baec612a10cae814b",
      "to": "0x1a44076050125825900e736c501f859c50fe728c",
      "contractAddress": null,
      "l1BaseFeeScalar": "0xc350",
      "l1BlobBaseFee": "0x5ead5bf",
      "l1BlobBaseFeeScalar": "0x0",
      "l1Fee": "0x138f4c0cea",
      "l1GasPrice": "0x37cd4684",
      "l1GasUsed": "0x702"
    },
    {
      "status": "0x1",
      "cumulativeGasUsed": "0x3cce2f",
      "logs": [
        {
          "address": "0x1a44076050125825900e736c501f859c50fe728c",
          "topics": [
            "0x6ee10e9ed4d6ce9742703a498707862f4b00f1396a87195eb93267b3d7983981"
          ],
          "data": "0x0000000000000000000000000ebfc51719acf4e2d0d4869c04b69f5fd26c27e50000000000000000000000008d8290d49e88d16d81c6adf6c8774ed88762274a",
          "blockHash": "0x59f65e8e55ed07969933170d20b86d5d37a51c08fc64216ab027eab8a3cc211a",
          "blockNumber": "0xfde2d4",
          "transactionHash": "0x0d49fbecd0c838ca8ed36687d34f0408fbfc3135a23d4fa9f97a0d33283bb5c5",
          "transactionIndex": "0xa",
          "logIndex": "0xe",
          "removed": false
        }
      ],
      "logsBloom": "0x00000000000000000000000000000000000000000000000000800000001000000000000000000000000000000000000000000002000000000000000000000000000000000000000000000000000000000000000000000000000000000000000000000000000000000000000000000000000000000010000000000000000000000000000000000000000000000000000000000000000000000000000000000000000000000000000000000000000000000000000000000000000000000000000400000000000000000000000000000000000000000000000000000000000000000000000000000000000000000000000000000000010000000000000000000000",
      "type": "0x2",
      "transactionHash": "0x0d49fbecd0c838ca8ed36687d34f0408fbfc3135a23d4fa9f97a0d33283bb5c5",
      "transactionIndex": "0xa",
      "blockHash": "0x59f65e8e55ed07969933170d20b86d5d37a51c08fc64216ab027eab8a3cc211a",
      "blockNumber": "0xfde2d4",
      "gasUsed": "0xa03d",
      "effectiveGasPrice": "0x98977d",
      "from": "0x0990be6db8c785fbbf9ded8baec612a10cae814b",
      "to": "0x0ebfc51719acf4e2d0d4869c04b69f5fd26c27e5",
      "contractAddress": null,
      "l1BaseFeeScalar": "0xc350",
      "l1BlobBaseFee": "0x5ead5bf",
      "l1BlobBaseFeeScalar": "0x0",
      "l1Fee": "0x1170260940",
      "l1GasPrice": "0x37cd4684",
      "l1GasUsed": "0x640"
    },
    {
      "status": "0x1",
      "cumulativeGasUsed": "0x3d5a8c",
      "logs": [
        {
          "address": "0x0ebfc51719acf4e2d0d4869c04b69f5fd26c27e5",
          "topics": [
            "0x8be0079c531659141344cd1fd0a4f28419497f9722a3daafe3b4186f6b6457e0",
            "0x0000000000000000000000000990be6db8c785fbbf9ded8baec612a10cae814b",
            "0x0000000000000000000000008d8290d49e88d16d81c6adf6c8774ed88762274a"
          ],
          "data": "0x",
          "blockHash": "0x59f65e8e55ed07969933170d20b86d5d37a51c08fc64216ab027eab8a3cc211a",
          "blockNumber": "0xfde2d4",
          "transactionHash": "0x8e017043d0f0cf08d581efaccbb7dc799dd8083e906cc39bb694a034add9de7e",
          "transactionIndex": "0xb",
          "logIndex": "0xf",
          "removed": false
        }
      ],
      "logsBloom": "0x00020000000000000000000000000000000000402000000000800000000000000000000000000000000000000000000000000000000000000000000000000000000000000000000000000000400000000001000000000000000000000000000000000000000000000000000000000000000000000000000400000000000000400000000000000000000000000000000000000000000000000000000000000000000000000000000000000000000000000000000000000000000000000000000000000000000000000000000000000000000000000800000000000000000000000080000000000000000000000000000000000000000000000000440000000000",
      "type": "0x2",
      "transactionHash": "0x8e017043d0f0cf08d581efaccbb7dc799dd8083e906cc39bb694a034add9de7e",
      "transactionIndex": "0xb",
      "blockHash": "0x59f65e8e55ed07969933170d20b86d5d37a51c08fc64216ab027eab8a3cc211a",
      "blockNumber": "0xfde2d4",
      "gasUsed": "0x8c5d",
      "effectiveGasPrice": "0x98977d",
      "from": "0x0990be6db8c785fbbf9ded8baec612a10cae814b",
      "to": "0x0ebfc51719acf4e2d0d4869c04b69f5fd26c27e5",
      "contractAddress": null,
      "l1BaseFeeScalar": "0xc350",
      "l1BlobBaseFee": "0x5ead5bf",
      "l1BlobBaseFeeScalar": "0x0",
      "l1Fee": "0x1170260940",
      "l1GasPrice": "0x37cd4684",
      "l1GasUsed": "0x640"
    }
  ],
  "libraries": [],
  "pending": [],
  "returns": {},
  "timestamp": 1740088072,
  "chain": 252,
  "commit": "cd40d6a"
}