{
  "transactions": [
    {
      "hash": "0x64fc0b5d5f1ea43b3eb052f1c194167777f3307b2dda691c8dc686155e9686d7",
      "transactionType": "CALL",
      "contractName": null,
      "contractAddress": "0x103c430c9fcaa863ea90386e3d0d5cd53333876e",
      "function": "setPeer(uint32,bytes32)",
      "arguments": [
        "30101",
        "0x0000000000000000000000000000000000000000000000000000000000000000"
      ],
      "transaction": {
        "from": "0x0990be6db8c785fbbf9ded8baec612a10cae814b",
        "to": "0x103c430c9fcaa863ea90386e3d0d5cd53333876e",
        "gas": "0xb16c",
        "value": "0x0",
        "input": "0x3400288b00000000000000000000000000000000000000000000000000000000000075950000000000000000000000000000000000000000000000000000000000000000",
        "nonce": "0xf3",
        "chainId": "0xfc"
      },
      "additionalContracts": [],
      "isFixedGasLimit": false
    },
    {
      "hash": "0x1ca94f034c1176bfbe071ccda42eaf59fe83eb7753970bf09c25b8b54010f15c",
      "transactionType": "CALL",
      "contractName": null,
      "contractAddress": "0x103c430c9fcaa863ea90386e3d0d5cd53333876e",
      "function": "setPeer(uint32,bytes32)",
      "arguments": [
        "30243",
        "0x0000000000000000000000000000000000000000000000000000000000000000"
      ],
      "transaction": {
        "from": "0x0990be6db8c785fbbf9ded8baec612a10cae814b",
        "to": "0x103c430c9fcaa863ea90386e3d0d5cd53333876e",
        "gas": "0xb16c",
        "value": "0x0",
        "input": "0x3400288b00000000000000000000000000000000000000000000000000000000000076230000000000000000000000000000000000000000000000000000000000000000",
        "nonce": "0xf4",
        "chainId": "0xfc"
      },
      "additionalContracts": [],
      "isFixedGasLimit": false
    },
    {
      "hash": "0x02cef30cf28bf34236a231f563f0f79e7426a80f372ba39c2054376342c8e0ea",
      "transactionType": "CALL",
      "contractName": null,
      "contractAddress": "0x103c430c9fcaa863ea90386e3d0d5cd53333876e",
      "function": "setPeer(uint32,bytes32)",
      "arguments": [
        "30151",
        "0x0000000000000000000000000000000000000000000000000000000000000000"
      ],
      "transaction": {
        "from": "0x0990be6db8c785fbbf9ded8baec612a10cae814b",
        "to": "0x103c430c9fcaa863ea90386e3d0d5cd53333876e",
        "gas": "0xb16c",
        "value": "0x0",
        "input": "0x3400288b00000000000000000000000000000000000000000000000000000000000075c70000000000000000000000000000000000000000000000000000000000000000",
        "nonce": "0xf5",
        "chainId": "0xfc"
      },
      "additionalContracts": [],
      "isFixedGasLimit": false
    },
    {
      "hash": "0x64b6b84d96f83b6761b6a0b4f7c597a2ee9d892a285698578e72be2f69e09c21",
      "transactionType": "CALL",
      "contractName": null,
      "contractAddress": "0x103c430c9fcaa863ea90386e3d0d5cd53333876e",
      "function": "setPeer(uint32,bytes32)",
      "arguments": [
        "30184",
        "0x0000000000000000000000000000000000000000000000000000000000000000"
      ],
      "transaction": {
        "from": "0x0990be6db8c785fbbf9ded8baec612a10cae814b",
        "to": "0x103c430c9fcaa863ea90386e3d0d5cd53333876e",
        "gas": "0xb16c",
        "value": "0x0",
        "input": "0x3400288b00000000000000000000000000000000000000000000000000000000000075e80000000000000000000000000000000000000000000000000000000000000000",
        "nonce": "0xf6",
        "chainId": "0xfc"
      },
      "additionalContracts": [],
      "isFixedGasLimit": false
    },
    {
      "hash": "0x623219035c3170f62a86e5c1cf7037ccf83950e08c84619181cbabc21ab2ce9d",
      "transactionType": "CALL",
      "contractName": null,
      "contractAddress": "0x103c430c9fcaa863ea90386e3d0d5cd53333876e",
      "function": "setPeer(uint32,bytes32)",
      "arguments": [
        "30101",
        "0x0000000000000000000000000000000000000000000000000000000000000000"
      ],
      "transaction": {
        "from": "0x0990be6db8c785fbbf9ded8baec612a10cae814b",
        "to": "0x103c430c9fcaa863ea90386e3d0d5cd53333876e",
        "gas": "0xbc37",
        "value": "0x0",
        "input": "0x3400288b00000000000000000000000000000000000000000000000000000000000075950000000000000000000000000000000000000000000000000000000000000000",
        "nonce": "0xf7",
        "chainId": "0xfc"
      },
      "additionalContracts": [],
      "isFixedGasLimit": false
    },
    {
      "hash": "0x33290531250cd0f4785d857a97b625b9cfdb96f37aa60206162fcf0148cb12b6",
      "transactionType": "CALL",
      "contractName": null,
      "contractAddress": "0x103c430c9fcaa863ea90386e3d0d5cd53333876e",
      "function": "setPeer(uint32,bytes32)",
      "arguments": [
        "30243",
        "0x0000000000000000000000000000000000000000000000000000000000000000"
      ],
      "transaction": {
        "from": "0x0990be6db8c785fbbf9ded8baec612a10cae814b",
        "to": "0x103c430c9fcaa863ea90386e3d0d5cd53333876e",
        "gas": "0xbc37",
        "value": "0x0",
        "input": "0x3400288b00000000000000000000000000000000000000000000000000000000000076230000000000000000000000000000000000000000000000000000000000000000",
        "nonce": "0xf8",
        "chainId": "0xfc"
      },
      "additionalContracts": [],
      "isFixedGasLimit": false
    },
    {
      "hash": "0xd4f2c1565d577914c06c23f520f35e54da3594e1b8e53f060a2940ae6f485928",
      "transactionType": "CALL",
      "contractName": null,
      "contractAddress": "0x103c430c9fcaa863ea90386e3d0d5cd53333876e",
      "function": "setPeer(uint32,bytes32)",
      "arguments": [
        "30151",
        "0x0000000000000000000000000000000000000000000000000000000000000000"
      ],
      "transaction": {
        "from": "0x0990be6db8c785fbbf9ded8baec612a10cae814b",
        "to": "0x103c430c9fcaa863ea90386e3d0d5cd53333876e",
        "gas": "0xbc37",
        "value": "0x0",
        "input": "0x3400288b00000000000000000000000000000000000000000000000000000000000075c70000000000000000000000000000000000000000000000000000000000000000",
        "nonce": "0xf9",
        "chainId": "0xfc"
      },
      "additionalContracts": [],
      "isFixedGasLimit": false
    },
    {
      "hash": "0x6036791c08032c421d2de2e29f7ad6d61bbc3eb440d160303f42525b94f28bf6",
      "transactionType": "CALL",
      "contractName": null,
      "contractAddress": "0x103c430c9fcaa863ea90386e3d0d5cd53333876e",
      "function": "setPeer(uint32,bytes32)",
      "arguments": [
        "30184",
        "0x0000000000000000000000000000000000000000000000000000000000000000"
      ],
      "transaction": {
        "from": "0x0990be6db8c785fbbf9ded8baec612a10cae814b",
        "to": "0x103c430c9fcaa863ea90386e3d0d5cd53333876e",
        "gas": "0xbc37",
        "value": "0x0",
        "input": "0x3400288b00000000000000000000000000000000000000000000000000000000000075e80000000000000000000000000000000000000000000000000000000000000000",
        "nonce": "0xfa",
        "chainId": "0xfc"
      },
      "additionalContracts": [],
      "isFixedGasLimit": false
    },
    {
      "hash": "0xfe6eb0d3aab476238a0377995361d1795a23852b2445ed756ab63267b78b1625",
      "transactionType": "CALL",
      "contractName": null,
      "contractAddress": "0x103c430c9fcaa863ea90386e3d0d5cd53333876e",
      "function": "setPeer(uint32,bytes32)",
      "arguments": [
        "30101",
        "0x0000000000000000000000000000000000000000000000000000000000000000"
      ],
      "transaction": {
        "from": "0x0990be6db8c785fbbf9ded8baec612a10cae814b",
        "to": "0x103c430c9fcaa863ea90386e3d0d5cd53333876e",
        "gas": "0xbc37",
        "value": "0x0",
        "input": "0x3400288b00000000000000000000000000000000000000000000000000000000000075950000000000000000000000000000000000000000000000000000000000000000",
        "nonce": "0xfb",
        "chainId": "0xfc"
      },
      "additionalContracts": [],
      "isFixedGasLimit": false
    },
    {
      "hash": "0xd78bd3edcca8869592c0994b1caf1d8cdb8170c363c8cea0aa9ee3bd05065256",
      "transactionType": "CALL",
      "contractName": null,
      "contractAddress": "0x103c430c9fcaa863ea90386e3d0d5cd53333876e",
      "function": "setPeer(uint32,bytes32)",
      "arguments": [
        "30243",
        "0x0000000000000000000000000000000000000000000000000000000000000000"
      ],
      "transaction": {
        "from": "0x0990be6db8c785fbbf9ded8baec612a10cae814b",
        "to": "0x103c430c9fcaa863ea90386e3d0d5cd53333876e",
        "gas": "0xbc37",
        "value": "0x0",
        "input": "0x3400288b00000000000000000000000000000000000000000000000000000000000076230000000000000000000000000000000000000000000000000000000000000000",
        "nonce": "0xfc",
        "chainId": "0xfc"
      },
      "additionalContracts": [],
      "isFixedGasLimit": false
    },
    {
      "hash": "0x78c067cc1ba241e6156fed439267244c4791ed79f2bdda839e928deffb37ef8a",
      "transactionType": "CALL",
      "contractName": null,
      "contractAddress": "0x103c430c9fcaa863ea90386e3d0d5cd53333876e",
      "function": "setPeer(uint32,bytes32)",
      "arguments": [
        "30151",
        "0x0000000000000000000000000000000000000000000000000000000000000000"
      ],
      "transaction": {
        "from": "0x0990be6db8c785fbbf9ded8baec612a10cae814b",
        "to": "0x103c430c9fcaa863ea90386e3d0d5cd53333876e",
        "gas": "0xbc37",
        "value": "0x0",
        "input": "0x3400288b00000000000000000000000000000000000000000000000000000000000075c70000000000000000000000000000000000000000000000000000000000000000",
        "nonce": "0xfd",
        "chainId": "0xfc"
      },
      "additionalContracts": [],
      "isFixedGasLimit": false
    },
    {
      "hash": "0x5a18a68ebe9551c380f753ed8fe9033ae472af0d09b07fa64a803b7b4b075c3a",
      "transactionType": "CALL",
      "contractName": null,
      "contractAddress": "0x103c430c9fcaa863ea90386e3d0d5cd53333876e",
      "function": "setPeer(uint32,bytes32)",
      "arguments": [
        "30184",
        "0x0000000000000000000000000000000000000000000000000000000000000000"
      ],
      "transaction": {
        "from": "0x0990be6db8c785fbbf9ded8baec612a10cae814b",
        "to": "0x103c430c9fcaa863ea90386e3d0d5cd53333876e",
        "gas": "0xbc37",
        "value": "0x0",
        "input": "0x3400288b00000000000000000000000000000000000000000000000000000000000075e80000000000000000000000000000000000000000000000000000000000000000",
        "nonce": "0xfe",
        "chainId": "0xfc"
      },
      "additionalContracts": [],
      "isFixedGasLimit": false
    }
  ],
  "receipts": [
    {
      "status": "0x1",
      "cumulativeGasUsed": "0x13451",
      "logs": [
        {
          "address": "0x103c430c9fcaa863ea90386e3d0d5cd53333876e",
          "topics": [
            "0x238399d427b947898edb290f5ff0f9109849b1c3ba196a42e35f00c50a54b98b"
          ],
          "data": "0x00000000000000000000000000000000000000000000000000000000000075950000000000000000000000000000000000000000000000000000000000000000",
          "blockHash": "0x5e20f7e8c017c4b4ee42baf664aec62ae01442b5bc8eb91a76269cfe5597c1cf",
          "blockNumber": "0xd3a707",
          "transactionHash": "0x64fc0b5d5f1ea43b3eb052f1c194167777f3307b2dda691c8dc686155e9686d7",
          "transactionIndex": "0x1",
          "logIndex": "0x0",
          "removed": false
        }
      ],
      "logsBloom": "0x00000000000000000000000000000000000000000000000000000000000000000000000000000000000000000000000000000000000000000800000000000000000000000000000000000000000000000000000000000000000000000000000000000000000000000000000000000000000000000000000000000000000000000000000000000000000000000000000000000000000000000000000000000000000000000000000000000000000000000000000000080000000002000000010000000000000000000000000000000000000000000000000000040040000000000000000000000000000000000000000000000000000000000000000000000000",
      "type": "0x2",
      "transactionHash": "0x64fc0b5d5f1ea43b3eb052f1c194167777f3307b2dda691c8dc686155e9686d7",
      "transactionIndex": "0x1",
      "blockHash": "0x5e20f7e8c017c4b4ee42baf664aec62ae01442b5bc8eb91a76269cfe5597c1cf",
      "blockNumber": "0xd3a707",
      "gasUsed": "0x8074",
      "effectiveGasPrice": "0x10c9dd",
      "from": "0x0990be6db8c785fbbf9ded8baec612a10cae814b",
      "to": "0x103c430c9fcaa863ea90386e3d0d5cd53333876e",
      "contractAddress": null,
      "l1BaseFeeScalar": "0xc350",
      "l1BlobBaseFee": "0x1a8dcd",
      "l1BlobBaseFeeScalar": "0x0",
      "l1Fee": "0x27323180220",
      "l1GasPrice": "0x7d6d6b33a",
      "l1GasUsed": "0x640"
    },
    {
      "status": "0x1",
      "cumulativeGasUsed": "0x1b4c5",
      "logs": [
        {
          "address": "0x103c430c9fcaa863ea90386e3d0d5cd53333876e",
          "topics": [
            "0x238399d427b947898edb290f5ff0f9109849b1c3ba196a42e35f00c50a54b98b"
          ],
          "data": "0x00000000000000000000000000000000000000000000000000000000000076230000000000000000000000000000000000000000000000000000000000000000",
          "blockHash": "0x5e20f7e8c017c4b4ee42baf664aec62ae01442b5bc8eb91a76269cfe5597c1cf",
          "blockNumber": "0xd3a707",
          "transactionHash": "0x1ca94f034c1176bfbe071ccda42eaf59fe83eb7753970bf09c25b8b54010f15c",
          "transactionIndex": "0x2",
          "logIndex": "0x1",
          "removed": false
        }
      ],
      "logsBloom": "0x00000000000000000000000000000000000000000000000000000000000000000000000000000000000000000000000000000000000000000800000000000000000000000000000000000000000000000000000000000000000000000000000000000000000000000000000000000000000000000000000000000000000000000000000000000000000000000000000000000000000000000000000000000000000000000000000000000000000000000000000000080000000002000000010000000000000000000000000000000000000000000000000000040040000000000000000000000000000000000000000000000000000000000000000000000000",
      "type": "0x2",
      "transactionHash": "0x1ca94f034c1176bfbe071ccda42eaf59fe83eb7753970bf09c25b8b54010f15c",
      "transactionIndex": "0x2",
      "blockHash": "0x5e20f7e8c017c4b4ee42baf664aec62ae01442b5bc8eb91a76269cfe5597c1cf",
      "blockNumber": "0xd3a707",
      "gasUsed": "0x8074",
      "effectiveGasPrice": "0x10c9dd",
      "from": "0x0990be6db8c785fbbf9ded8baec612a10cae814b",
      "to": "0x103c430c9fcaa863ea90386e3d0d5cd53333876e",
      "contractAddress": null,
      "l1BaseFeeScalar": "0xc350",
      "l1BlobBaseFee": "0x1a8dcd",
      "l1BlobBaseFeeScalar": "0x0",
      "l1Fee": "0x27323180220",
      "l1GasPrice": "0x7d6d6b33a",
      "l1GasUsed": "0x640"
    },
    {
      "status": "0x1",
      "cumulativeGasUsed": "0x23539",
      "logs": [
        {
          "address": "0x103c430c9fcaa863ea90386e3d0d5cd53333876e",
          "topics": [
            "0x238399d427b947898edb290f5ff0f9109849b1c3ba196a42e35f00c50a54b98b"
          ],
          "data": "0x00000000000000000000000000000000000000000000000000000000000075c70000000000000000000000000000000000000000000000000000000000000000",
          "blockHash": "0x5e20f7e8c017c4b4ee42baf664aec62ae01442b5bc8eb91a76269cfe5597c1cf",
          "blockNumber": "0xd3a707",
          "transactionHash": "0x02cef30cf28bf34236a231f563f0f79e7426a80f372ba39c2054376342c8e0ea",
          "transactionIndex": "0x3",
          "logIndex": "0x2",
          "removed": false
        }
      ],
      "logsBloom": "0x00000000000000000000000000000000000000000000000000000000000000000000000000000000000000000000000000000000000000000800000000000000000000000000000000000000000000000000000000000000000000000000000000000000000000000000000000000000000000000000000000000000000000000000000000000000000000000000000000000000000000000000000000000000000000000000000000000000000000000000000000080000000002000000010000000000000000000000000000000000000000000000000000040040000000000000000000000000000000000000000000000000000000000000000000000000",
      "type": "0x2",
      "transactionHash": "0x02cef30cf28bf34236a231f563f0f79e7426a80f372ba39c2054376342c8e0ea",
      "transactionIndex": "0x3",
      "blockHash": "0x5e20f7e8c017c4b4ee42baf664aec62ae01442b5bc8eb91a76269cfe5597c1cf",
      "blockNumber": "0xd3a707",
      "gasUsed": "0x8074",
      "effectiveGasPrice": "0x10c9dd",
      "from": "0x0990be6db8c785fbbf9ded8baec612a10cae814b",
      "to": "0x103c430c9fcaa863ea90386e3d0d5cd53333876e",
      "contractAddress": null,
      "l1BaseFeeScalar": "0xc350",
      "l1BlobBaseFee": "0x1a8dcd",
      "l1BlobBaseFeeScalar": "0x0",
      "l1Fee": "0x27323180220",
      "l1GasPrice": "0x7d6d6b33a",
      "l1GasUsed": "0x640"
    },
    {
      "status": "0x1",
      "cumulativeGasUsed": "0x2b5ad",
      "logs": [
        {
          "address": "0x103c430c9fcaa863ea90386e3d0d5cd53333876e",
          "topics": [
            "0x238399d427b947898edb290f5ff0f9109849b1c3ba196a42e35f00c50a54b98b"
          ],
          "data": "0x00000000000000000000000000000000000000000000000000000000000075e80000000000000000000000000000000000000000000000000000000000000000",
          "blockHash": "0x5e20f7e8c017c4b4ee42baf664aec62ae01442b5bc8eb91a76269cfe5597c1cf",
          "blockNumber": "0xd3a707",
          "transactionHash": "0x64b6b84d96f83b6761b6a0b4f7c597a2ee9d892a285698578e72be2f69e09c21",
          "transactionIndex": "0x4",
          "logIndex": "0x3",
          "removed": false
        }
      ],
      "logsBloom": "0x00000000000000000000000000000000000000000000000000000000000000000000000000000000000000000000000000000000000000000800000000000000000000000000000000000000000000000000000000000000000000000000000000000000000000000000000000000000000000000000000000000000000000000000000000000000000000000000000000000000000000000000000000000000000000000000000000000000000000000000000000080000000002000000010000000000000000000000000000000000000000000000000000040040000000000000000000000000000000000000000000000000000000000000000000000000",
      "type": "0x2",
      "transactionHash": "0x64b6b84d96f83b6761b6a0b4f7c597a2ee9d892a285698578e72be2f69e09c21",
      "transactionIndex": "0x4",
      "blockHash": "0x5e20f7e8c017c4b4ee42baf664aec62ae01442b5bc8eb91a76269cfe5597c1cf",
      "blockNumber": "0xd3a707",
      "gasUsed": "0x8074",
      "effectiveGasPrice": "0x10c9dd",
      "from": "0x0990be6db8c785fbbf9ded8baec612a10cae814b",
      "to": "0x103c430c9fcaa863ea90386e3d0d5cd53333876e",
      "contractAddress": null,
      "l1BaseFeeScalar": "0xc350",
      "l1BlobBaseFee": "0x1a8dcd",
      "l1BlobBaseFeeScalar": "0x0",
      "l1Fee": "0x27323180220",
      "l1GasPrice": "0x7d6d6b33a",
      "l1GasUsed": "0x640"
    },
    {
      "status": "0x1",
      "cumulativeGasUsed": "0x33df1",
      "logs": [
        {
          "address": "0x103c430c9fcaa863ea90386e3d0d5cd53333876e",
          "topics": [
            "0x238399d427b947898edb290f5ff0f9109849b1c3ba196a42e35f00c50a54b98b"
          ],
          "data": "0x00000000000000000000000000000000000000000000000000000000000075950000000000000000000000000000000000000000000000000000000000000000",
          "blockHash": "0x5e20f7e8c017c4b4ee42baf664aec62ae01442b5bc8eb91a76269cfe5597c1cf",
          "blockNumber": "0xd3a707",
          "transactionHash": "0x623219035c3170f62a86e5c1cf7037ccf83950e08c84619181cbabc21ab2ce9d",
          "transactionIndex": "0x5",
          "logIndex": "0x4",
          "removed": false
        }
      ],
      "logsBloom": "0x00000000000000000000000000000000000000000000000000000000000000000000000000000000000000000000000000000000000000000800000000000000000000000000000000000000000000000000000000000000000000000000000000000000000000000000000000000000000000000000000000000000000000000000000000000000000000000000000000000000000000000000000000000000000000000000000000000000000000000000000000080000000002000000010000000000000000000000000000000000000000000000000000040040000000000000000000000000000000000000000000000000000000000000000000000000",
      "type": "0x2",
      "transactionHash": "0x623219035c3170f62a86e5c1cf7037ccf83950e08c84619181cbabc21ab2ce9d",
      "transactionIndex": "0x5",
      "blockHash": "0x5e20f7e8c017c4b4ee42baf664aec62ae01442b5bc8eb91a76269cfe5597c1cf",
      "blockNumber": "0xd3a707",
      "gasUsed": "0x8844",
      "effectiveGasPrice": "0x10c9dd",
      "from": "0x0990be6db8c785fbbf9ded8baec612a10cae814b",
      "to": "0x103c430c9fcaa863ea90386e3d0d5cd53333876e",
      "contractAddress": null,
      "l1BaseFeeScalar": "0xc350",
      "l1BlobBaseFee": "0x1a8dcd",
      "l1BlobBaseFeeScalar": "0x0",
      "l1Fee": "0x27323180220",
      "l1GasPrice": "0x7d6d6b33a",
      "l1GasUsed": "0x640"
    },
    {
      "status": "0x1",
      "cumulativeGasUsed": "0x3c635",
      "logs": [
        {
          "address": "0x103c430c9fcaa863ea90386e3d0d5cd53333876e",
          "topics": [
            "0x238399d427b947898edb290f5ff0f9109849b1c3ba196a42e35f00c50a54b98b"
          ],
          "data": "0x00000000000000000000000000000000000000000000000000000000000076230000000000000000000000000000000000000000000000000000000000000000",
          "blockHash": "0x5e20f7e8c017c4b4ee42baf664aec62ae01442b5bc8eb91a76269cfe5597c1cf",
          "blockNumber": "0xd3a707",
          "transactionHash": "0x33290531250cd0f4785d857a97b625b9cfdb96f37aa60206162fcf0148cb12b6",
          "transactionIndex": "0x6",
          "logIndex": "0x5",
          "removed": false
        }
      ],
      "logsBloom": "0x00000000000000000000000000000000000000000000000000000000000000000000000000000000000000000000000000000000000000000800000000000000000000000000000000000000000000000000000000000000000000000000000000000000000000000000000000000000000000000000000000000000000000000000000000000000000000000000000000000000000000000000000000000000000000000000000000000000000000000000000000080000000002000000010000000000000000000000000000000000000000000000000000040040000000000000000000000000000000000000000000000000000000000000000000000000",
      "type": "0x2",
      "transactionHash": "0x33290531250cd0f4785d857a97b625b9cfdb96f37aa60206162fcf0148cb12b6",
      "transactionIndex": "0x6",
      "blockHash": "0x5e20f7e8c017c4b4ee42baf664aec62ae01442b5bc8eb91a76269cfe5597c1cf",
      "blockNumber": "0xd3a707",
      "gasUsed": "0x8844",
      "effectiveGasPrice": "0x10c9dd",
      "from": "0x0990be6db8c785fbbf9ded8baec612a10cae814b",
      "to": "0x103c430c9fcaa863ea90386e3d0d5cd53333876e",
      "contractAddress": null,
      "l1BaseFeeScalar": "0xc350",
      "l1BlobBaseFee": "0x1a8dcd",
      "l1BlobBaseFeeScalar": "0x0",
      "l1Fee": "0x27323180220",
      "l1GasPrice": "0x7d6d6b33a",
      "l1GasUsed": "0x640"
    },
    {
      "status": "0x1",
      "cumulativeGasUsed": "0x44e79",
      "logs": [
        {
          "address": "0x103c430c9fcaa863ea90386e3d0d5cd53333876e",
          "topics": [
            "0x238399d427b947898edb290f5ff0f9109849b1c3ba196a42e35f00c50a54b98b"
          ],
          "data": "0x00000000000000000000000000000000000000000000000000000000000075c70000000000000000000000000000000000000000000000000000000000000000",
          "blockHash": "0x5e20f7e8c017c4b4ee42baf664aec62ae01442b5bc8eb91a76269cfe5597c1cf",
          "blockNumber": "0xd3a707",
          "transactionHash": "0xd4f2c1565d577914c06c23f520f35e54da3594e1b8e53f060a2940ae6f485928",
          "transactionIndex": "0x7",
          "logIndex": "0x6",
          "removed": false
        }
      ],
      "logsBloom": "0x00000000000000000000000000000000000000000000000000000000000000000000000000000000000000000000000000000000000000000800000000000000000000000000000000000000000000000000000000000000000000000000000000000000000000000000000000000000000000000000000000000000000000000000000000000000000000000000000000000000000000000000000000000000000000000000000000000000000000000000000000080000000002000000010000000000000000000000000000000000000000000000000000040040000000000000000000000000000000000000000000000000000000000000000000000000",
      "type": "0x2",
      "transactionHash": "0xd4f2c1565d577914c06c23f520f35e54da3594e1b8e53f060a2940ae6f485928",
      "transactionIndex": "0x7",
      "blockHash": "0x5e20f7e8c017c4b4ee42baf664aec62ae01442b5bc8eb91a76269cfe5597c1cf",
      "blockNumber": "0xd3a707",
      "gasUsed": "0x8844",
      "effectiveGasPrice": "0x10c9dd",
      "from": "0x0990be6db8c785fbbf9ded8baec612a10cae814b",
      "to": "0x103c430c9fcaa863ea90386e3d0d5cd53333876e",
      "contractAddress": null,
      "l1BaseFeeScalar": "0xc350",
      "l1BlobBaseFee": "0x1a8dcd",
      "l1BlobBaseFeeScalar": "0x0",
      "l1Fee": "0x27323180220",
      "l1GasPrice": "0x7d6d6b33a",
      "l1GasUsed": "0x640"
    },
    {
      "status": "0x1",
      "cumulativeGasUsed": "0x4d6bd",
      "logs": [
        {
          "address": "0x103c430c9fcaa863ea90386e3d0d5cd53333876e",
          "topics": [
            "0x238399d427b947898edb290f5ff0f9109849b1c3ba196a42e35f00c50a54b98b"
          ],
          "data": "0x00000000000000000000000000000000000000000000000000000000000075e80000000000000000000000000000000000000000000000000000000000000000",
          "blockHash": "0x5e20f7e8c017c4b4ee42baf664aec62ae01442b5bc8eb91a76269cfe5597c1cf",
          "blockNumber": "0xd3a707",
          "transactionHash": "0x6036791c08032c421d2de2e29f7ad6d61bbc3eb440d160303f42525b94f28bf6",
          "transactionIndex": "0x8",
          "logIndex": "0x7",
          "removed": false
        }
      ],
      "logsBloom": "0x00000000000000000000000000000000000000000000000000000000000000000000000000000000000000000000000000000000000000000800000000000000000000000000000000000000000000000000000000000000000000000000000000000000000000000000000000000000000000000000000000000000000000000000000000000000000000000000000000000000000000000000000000000000000000000000000000000000000000000000000000080000000002000000010000000000000000000000000000000000000000000000000000040040000000000000000000000000000000000000000000000000000000000000000000000000",
      "type": "0x2",
      "transactionHash": "0x6036791c08032c421d2de2e29f7ad6d61bbc3eb440d160303f42525b94f28bf6",
      "transactionIndex": "0x8",
      "blockHash": "0x5e20f7e8c017c4b4ee42baf664aec62ae01442b5bc8eb91a76269cfe5597c1cf",
      "blockNumber": "0xd3a707",
      "gasUsed": "0x8844",
      "effectiveGasPrice": "0x10c9dd",
      "from": "0x0990be6db8c785fbbf9ded8baec612a10cae814b",
      "to": "0x103c430c9fcaa863ea90386e3d0d5cd53333876e",
      "contractAddress": null,
      "l1BaseFeeScalar": "0xc350",
      "l1BlobBaseFee": "0x1a8dcd",
      "l1BlobBaseFeeScalar": "0x0",
      "l1Fee": "0x27323180220",
      "l1GasPrice": "0x7d6d6b33a",
      "l1GasUsed": "0x640"
    },
    {
      "status": "0x1",
      "cumulativeGasUsed": "0x13c21",
      "logs": [
        {
          "address": "0x103c430c9fcaa863ea90386e3d0d5cd53333876e",
          "topics": [
            "0x238399d427b947898edb290f5ff0f9109849b1c3ba196a42e35f00c50a54b98b"
          ],
          "data": "0x00000000000000000000000000000000000000000000000000000000000075950000000000000000000000000000000000000000000000000000000000000000",
          "blockHash": "0x9bd7775f45e76e780e761239267c8324d19ef5d2bc072501d1cfa0ececffd645",
          "blockNumber": "0xd3a708",
          "transactionHash": "0xfe6eb0d3aab476238a0377995361d1795a23852b2445ed756ab63267b78b1625",
          "transactionIndex": "0x1",
          "logIndex": "0x0",
          "removed": false
        }
      ],
      "logsBloom": "0x00000000000000000000000000000000000000000000000000000000000000000000000000000000000000000000000000000000000000000800000000000000000000000000000000000000000000000000000000000000000000000000000000000000000000000000000000000000000000000000000000000000000000000000000000000000000000000000000000000000000000000000000000000000000000000000000000000000000000000000000000080000000002000000010000000000000000000000000000000000000000000000000000040040000000000000000000000000000000000000000000000000000000000000000000000000",
      "type": "0x2",
      "transactionHash": "0xfe6eb0d3aab476238a0377995361d1795a23852b2445ed756ab63267b78b1625",
      "transactionIndex": "0x1",
      "blockHash": "0x9bd7775f45e76e780e761239267c8324d19ef5d2bc072501d1cfa0ececffd645",
      "blockNumber": "0xd3a708",
      "gasUsed": "0x8844",
      "effectiveGasPrice": "0x10c9dd",
      "from": "0x0990be6db8c785fbbf9ded8baec612a10cae814b",
      "to": "0x103c430c9fcaa863ea90386e3d0d5cd53333876e",
      "contractAddress": null,
      "l1BaseFeeScalar": "0xc350",
      "l1BlobBaseFee": "0x1a8dcd",
      "l1BlobBaseFeeScalar": "0x0",
      "l1Fee": "0x27323180220",
      "l1GasPrice": "0x7d6d6b33a",
      "l1GasUsed": "0x640"
    },
    {
      "status": "0x1",
      "cumulativeGasUsed": "0x1c465",
      "logs": [
        {
          "address": "0x103c430c9fcaa863ea90386e3d0d5cd53333876e",
          "topics": [
            "0x238399d427b947898edb290f5ff0f9109849b1c3ba196a42e35f00c50a54b98b"
          ],
          "data": "0x00000000000000000000000000000000000000000000000000000000000076230000000000000000000000000000000000000000000000000000000000000000",
          "blockHash": "0x9bd7775f45e76e780e761239267c8324d19ef5d2bc072501d1cfa0ececffd645",
          "blockNumber": "0xd3a708",
          "transactionHash": "0xd78bd3edcca8869592c0994b1caf1d8cdb8170c363c8cea0aa9ee3bd05065256",
          "transactionIndex": "0x2",
          "logIndex": "0x1",
          "removed": false
        }
      ],
      "logsBloom": "0x00000000000000000000000000000000000000000000000000000000000000000000000000000000000000000000000000000000000000000800000000000000000000000000000000000000000000000000000000000000000000000000000000000000000000000000000000000000000000000000000000000000000000000000000000000000000000000000000000000000000000000000000000000000000000000000000000000000000000000000000000080000000002000000010000000000000000000000000000000000000000000000000000040040000000000000000000000000000000000000000000000000000000000000000000000000",
      "type": "0x2",
      "transactionHash": "0xd78bd3edcca8869592c0994b1caf1d8cdb8170c363c8cea0aa9ee3bd05065256",
      "transactionIndex": "0x2",
      "blockHash": "0x9bd7775f45e76e780e761239267c8324d19ef5d2bc072501d1cfa0ececffd645",
      "blockNumber": "0xd3a708",
      "gasUsed": "0x8844",
      "effectiveGasPrice": "0x10c9dd",
      "from": "0x0990be6db8c785fbbf9ded8baec612a10cae814b",
      "to": "0x103c430c9fcaa863ea90386e3d0d5cd53333876e",
      "contractAddress": null,
      "l1BaseFeeScalar": "0xc350",
      "l1BlobBaseFee": "0x1a8dcd",
      "l1BlobBaseFeeScalar": "0x0",
      "l1Fee": "0x27323180220",
      "l1GasPrice": "0x7d6d6b33a",
      "l1GasUsed": "0x640"
    },
    {
      "status": "0x1",
      "cumulativeGasUsed": "0x24ca9",
      "logs": [
        {
          "address": "0x103c430c9fcaa863ea90386e3d0d5cd53333876e",
          "topics": [
            "0x238399d427b947898edb290f5ff0f9109849b1c3ba196a42e35f00c50a54b98b"
          ],
          "data": "0x00000000000000000000000000000000000000000000000000000000000075c70000000000000000000000000000000000000000000000000000000000000000",
          "blockHash": "0x9bd7775f45e76e780e761239267c8324d19ef5d2bc072501d1cfa0ececffd645",
          "blockNumber": "0xd3a708",
          "transactionHash": "0x78c067cc1ba241e6156fed439267244c4791ed79f2bdda839e928deffb37ef8a",
          "transactionIndex": "0x3",
          "logIndex": "0x2",
          "removed": false
        }
      ],
      "logsBloom": "0x00000000000000000000000000000000000000000000000000000000000000000000000000000000000000000000000000000000000000000800000000000000000000000000000000000000000000000000000000000000000000000000000000000000000000000000000000000000000000000000000000000000000000000000000000000000000000000000000000000000000000000000000000000000000000000000000000000000000000000000000000080000000002000000010000000000000000000000000000000000000000000000000000040040000000000000000000000000000000000000000000000000000000000000000000000000",
      "type": "0x2",
      "transactionHash": "0x78c067cc1ba241e6156fed439267244c4791ed79f2bdda839e928deffb37ef8a",
      "transactionIndex": "0x3",
      "blockHash": "0x9bd7775f45e76e780e761239267c8324d19ef5d2bc072501d1cfa0ececffd645",
      "blockNumber": "0xd3a708",
      "gasUsed": "0x8844",
      "effectiveGasPrice": "0x10c9dd",
      "from": "0x0990be6db8c785fbbf9ded8baec612a10cae814b",
      "to": "0x103c430c9fcaa863ea90386e3d0d5cd53333876e",
      "contractAddress": null,
      "l1BaseFeeScalar": "0xc350",
      "l1BlobBaseFee": "0x1a8dcd",
      "l1BlobBaseFeeScalar": "0x0",
      "l1Fee": "0x27323180220",
      "l1GasPrice": "0x7d6d6b33a",
      "l1GasUsed": "0x640"
    },
    {
      "status": "0x1",
      "cumulativeGasUsed": "0x2d4ed",
      "logs": [
        {
          "address": "0x103c430c9fcaa863ea90386e3d0d5cd53333876e",
          "topics": [
            "0x238399d427b947898edb290f5ff0f9109849b1c3ba196a42e35f00c50a54b98b"
          ],
          "data": "0x00000000000000000000000000000000000000000000000000000000000075e80000000000000000000000000000000000000000000000000000000000000000",
          "blockHash": "0x9bd7775f45e76e780e761239267c8324d19ef5d2bc072501d1cfa0ececffd645",
          "blockNumber": "0xd3a708",
          "transactionHash": "0x5a18a68ebe9551c380f753ed8fe9033ae472af0d09b07fa64a803b7b4b075c3a",
          "transactionIndex": "0x4",
          "logIndex": "0x3",
          "removed": false
        }
      ],
      "logsBloom": "0x00000000000000000000000000000000000000000000000000000000000000000000000000000000000000000000000000000000000000000800000000000000000000000000000000000000000000000000000000000000000000000000000000000000000000000000000000000000000000000000000000000000000000000000000000000000000000000000000000000000000000000000000000000000000000000000000000000000000000000000000000080000000002000000010000000000000000000000000000000000000000000000000000040040000000000000000000000000000000000000000000000000000000000000000000000000",
      "type": "0x2",
      "transactionHash": "0x5a18a68ebe9551c380f753ed8fe9033ae472af0d09b07fa64a803b7b4b075c3a",
      "transactionIndex": "0x4",
      "blockHash": "0x9bd7775f45e76e780e761239267c8324d19ef5d2bc072501d1cfa0ececffd645",
      "blockNumber": "0xd3a708",
      "gasUsed": "0x8844",
      "effectiveGasPrice": "0x10c9dd",
      "from": "0x0990be6db8c785fbbf9ded8baec612a10cae814b",
      "to": "0x103c430c9fcaa863ea90386e3d0d5cd53333876e",
      "contractAddress": null,
      "l1BaseFeeScalar": "0xc350",
      "l1BlobBaseFee": "0x1a8dcd",
      "l1BlobBaseFeeScalar": "0x0",
      "l1Fee": "0x27323180220",
      "l1GasPrice": "0x7d6d6b33a",
      "l1GasUsed": "0x640"
    }
  ],
  "libraries": [],
  "pending": [],
  "returns": {},
  "timestamp": 1734552403,
  "chain": 252,
  "commit": "cb8ebc4"
}