{
  "transactions": [
    {
      "hash": "0x3dfe5e706252b2c265d1a044e12f739451dd899290319ad35ccbc7281cb1e568",
      "transactionType": "CALL",
      "contractName": null,
      "contractAddress": "0xd555d90a6b23b285575cd6192d972e35f70b5b89",
      "function": "batchBridgeWithEthFeeFromWallet((uint32,bytes32,uint256,uint256,bytes,bytes,bytes)[],address[],address[])",
      "arguments": [
        "[(30168, 0x3c1b094729102e0c095ee2417e5940ee4f1eab4763f6113fe75281ab74c62398, 1000000000000000000, 0, 0x, 0x, 0x), (30325, 0x09d0eb2763c96e085fa74ba6cf0d49136f8654c48ec7dbc59279a9066c7dd409, 1000000000000000000, 0, 0x, 0x, 0x), (30108, 0x09d0eb2763c96e085fa74ba6cf0d49136f8654c48ec7dbc59279a9066c7dd409, 1000000000000000000, 0, 0x, 0x, 0x)]",
        "[0x6185334f1542a9966CbaD694577fFbede3DD1f1F, 0x6185334f1542a9966CbaD694577fFbede3DD1f1F, 0x6185334f1542a9966CbaD694577fFbede3DD1f1F]",
        "[0xD555D90A6b23B285575cd6192D972e35F70b5B89, 0xD555D90A6b23B285575cd6192D972e35F70b5B89, 0xD555D90A6b23B285575cd6192D972e35F70b5B89]"
      ],
      "transaction": {
        "from": "0x45dce8e4f2dc005a5f28206a46cb034697eeda8e",
        "to": "0xd555d90a6b23b285575cd6192d972e35f70b5b89",
        "gas": "0x13541c",
        "value": "0x143137bd3ea08",
        "input": "0xb70d4241000000000000000000000000000000000000000000000000000000000000006000000000000000000000000000000000000000000000000000000000000004a000000000000000000000000000000000000000000000000000000000000005200000000000000000000000000000000000000000000000000000000000000003000000000000000000000000000000000000000000000000000000000000006000000000000000000000000000000000000000000000000000000000000001a000000000000000000000000000000000000000000000000000000000000002e000000000000000000000000000000000000000000000000000000000000075d83c1b094729102e0c095ee2417e5940ee4f1eab4763f6113fe75281ab74c623980000000000000000000000000000000000000000000000000de0b6b3a7640000000000000000000000000000000000000000000000000000000000000000000000000000000000000000000000000000000000000000000000000000000000e000000000000000000000000000000000000000000000000000000000000001000000000000000000000000000000000000000000000000000000000000000120000000000000000000000000000000000000000000000000000000000000000000000000000000000000000000000000000000000000000000000000000000000000000000000000000000000000000000000000000000000000000000000000000000000000000000000000000000000000000000000000000000000000767509d0eb2763c96e085fa74ba6cf0d49136f8654c48ec7dbc59279a9066c7dd4090000000000000000000000000000000000000000000000000de0b6b3a7640000000000000000000000000000000000000000000000000000000000000000000000000000000000000000000000000000000000000000000000000000000000e000000000000000000000000000000000000000000000000000000000000001000000000000000000000000000000000000000000000000000000000000000120000000000000000000000000000000000000000000000000000000000000000000000000000000000000000000000000000000000000000000000000000000000000000000000000000000000000000000000000000000000000000000000000000000000000000000000000000000000000000000000000000000000000759c09d0eb2763c96e085fa74ba6cf0d49136f8654c48ec7dbc59279a9066c7dd4090000000000000000000000000000000000000000000000000de0b6b3a7640000000000000000000000000000000000000000000000000000000000000000000000000000000000000000000000000000000000000000000000000000000000e00000000000000000000000000000000000000000000000000000000000000100000000000000000000000000000000000000000000000000000000000000012000000000000000000000000000000000000000000000000000000000000000000000000000000000000000000000000000000000000000000000000000000000000000000000000000000000000000000000000000000000000000000000000000000000000000000000000000000000000000000000000000000000000000030000000000000000000000006185334f1542a9966cbad694577ffbede3dd1f1f0000000000000000000000006185334f1542a9966cbad694577ffbede3dd1f1f0000000000000000000000006185334f1542a9966cbad694577ffbede3dd1f1f0000000000000000000000000000000000000000000000000000000000000003000000000000000000000000d555d90a6b23b285575cd6192d972e35f70b5b89000000000000000000000000d555d90a6b23b285575cd6192d972e35f70b5b89000000000000000000000000d555d90a6b23b285575cd6192d972e35f70b5b89",
        "nonce": "0xb5",
        "chainId": "0xe708"
      },
      "additionalContracts": [],
      "isFixedGasLimit": false
    }
  ],
  "receipts": [
    {
      "status": "0x1",
      "cumulativeGasUsed": "0xdfe58",
      "logs": [
        {
          "address": "0x6185334f1542a9966cbad694577ffbede3dd1f1f",
          "topics": [
            "0xddf252ad1be2c89b69c2b068fc378daa952ba7f163c4a11628f55a4df523b3ef",
            "0x000000000000000000000000d555d90a6b23b285575cd6192d972e35f70b5b89",
            "0x0000000000000000000000000000000000000000000000000000000000000000"
          ],
          "data": "0x0000000000000000000000000000000000000000000000000de0b6b3a7640000",
          "blockHash": "0x7f1dbe86c862cf1ec1422d2172bef2e3aecd909de4b1af4283e1e5444a2a1bcc",
          "blockNumber": "0x13c492b",
          "transactionHash": "0x3dfe5e706252b2c265d1a044e12f739451dd899290319ad35ccbc7281cb1e568",
          "transactionIndex": "0x0",
          "logIndex": "0x0",
          "removed": false
        },
        {
          "address": "0x32042142dd551b4ebe17b6fed53131dd4b4eea06",
          "topics": [
            "0x61ed099e74a97a1d7f8bb0952a88ca8b7b8ebd00c126ea04671f92a81213318a"
          ],
          "data": "0x0000000000000000000000000408804c5dcd9796f22558464e6fe5bddf16a7c70000000000000000000000000000000000000000000000000000b022f74e99ac",
          "blockHash": "0x7f1dbe86c862cf1ec1422d2172bef2e3aecd909de4b1af4283e1e5444a2a1bcc",
          "blockNumber": "0x13c492b",
          "transactionHash": "0x3dfe5e706252b2c265d1a044e12f739451dd899290319ad35ccbc7281cb1e568",
          "transactionIndex": "0x0",
          "logIndex": "0x1",
          "removed": false
        },
        {
          "address": "0x32042142dd551b4ebe17b6fed53131dd4b4eea06",
          "topics": [
            "0x07ea52d82345d6e838192107d8fd7123d9c2ec8e916cd0aad13fd2b60db24644"
          ],
          "data": "0x000000000000000000000000000000000000000000000000000000000000006000000000000000000000000000000000000000000000000000000000000000e000000000000000000000000000000000000000000000000000000000000001000000000000000000000000000000000000000000000000000000000000000003000000000000000000000000129ee430cb2ff2708ccaddbdb408a88fe4ffd4800000000000000000000000007fe673201724925b5c477d4e1a4bd3e954688cf5000000000000000000000000f4064220871e3b94ca6ab3b0cee8e29178bf47de000000000000000000000000000000000000000000000000000000000000000000000000000000000000000000000000000000000000000000000000000000030000000000000000000000000000000000000000000000000000056932c7a3190000000000000000000000000000000000000000000000000000056932c7a319000000000000000000000000000000000000000000000000000005a36df1341a",
          "blockHash": "0x7f1dbe86c862cf1ec1422d2172bef2e3aecd909de4b1af4283e1e5444a2a1bcc",
          "blockNumber": "0x13c492b",
          "transactionHash": "0x3dfe5e706252b2c265d1a044e12f739451dd899290319ad35ccbc7281cb1e568",
          "transactionIndex": "0x0",
          "logIndex": "0x2",
          "removed": false
        },
        {
          "address": "0x1a44076050125825900e736c501f859c50fe728c",
          "topics": [
            "0x1ab700d4ced0c005b164c0f789fd09fcbb0156d4c2041b8a3bfbcd961cd1567f"
          ],
          "data": "0x0000000000000000000000000000000000000000000000000000000000000060000000000000000000000000000000000000000000000000000000000000012000000000000000000000000032042142dd551b4ebe17b6fed53131dd4b4eea060000000000000000000000000000000000000000000000000000000000000099010000000000000001000075e70000000000000000000000006185334f1542a9966cbad694577ffbede3dd1f1f000075d8006d6ff762f7fcb768c550bae67f7a6a3a94969e469b6e0689563ace4e3759ad736faebc5871755819d882e2592671bcb99a14bae192ab0566ea1f5a303223933c1b094729102e0c095ee2417e5940ee4f1eab4763f6113fe75281ab74c6239800000000000f424000000000000000000000000000000000000000000000000000000000000000000000000000002600030100210100000000000000000000000000030d40000000000000000000000000002625a00000000000000000000000000000000000000000000000000000",
          "blockHash": "0x7f1dbe86c862cf1ec1422d2172bef2e3aecd909de4b1af4283e1e5444a2a1bcc",
          "blockNumber": "0x13c492b",
          "transactionHash": "0x3dfe5e706252b2c265d1a044e12f739451dd899290319ad35ccbc7281cb1e568",
          "transactionIndex": "0x0",
          "logIndex": "0x3",
          "removed": false
        },
        {
          "address": "0x6185334f1542a9966cbad694577ffbede3dd1f1f",
          "topics": [
            "0x85496b760a4b7f8d66384b9df21b381f5d1b1e79f229a47aaf4c232edc2fe59a",
            "0x736faebc5871755819d882e2592671bcb99a14bae192ab0566ea1f5a30322393",
            "0x000000000000000000000000d555d90a6b23b285575cd6192d972e35f70b5b89"
          ],
          "data": "0x00000000000000000000000000000000000000000000000000000000000075d80000000000000000000000000000000000000000000000000de0b6b3a76400000000000000000000000000000000000000000000000000000de0b6b3a7640000",
          "blockHash": "0x7f1dbe86c862cf1ec1422d2172bef2e3aecd909de4b1af4283e1e5444a2a1bcc",
          "blockNumber": "0x13c492b",
          "transactionHash": "0x3dfe5e706252b2c265d1a044e12f739451dd899290319ad35ccbc7281cb1e568",
          "transactionIndex": "0x0",
          "logIndex": "0x4",
          "removed": false
        },
        {
          "address": "0x6185334f1542a9966cbad694577ffbede3dd1f1f",
          "topics": [
            "0xddf252ad1be2c89b69c2b068fc378daa952ba7f163c4a11628f55a4df523b3ef",
            "0x000000000000000000000000d555d90a6b23b285575cd6192d972e35f70b5b89",
            "0x0000000000000000000000000000000000000000000000000000000000000000"
          ],
          "data": "0x0000000000000000000000000000000000000000000000000de0b6b3a7640000",
          "blockHash": "0x7f1dbe86c862cf1ec1422d2172bef2e3aecd909de4b1af4283e1e5444a2a1bcc",
          "blockNumber": "0x13c492b",
          "transactionHash": "0x3dfe5e706252b2c265d1a044e12f739451dd899290319ad35ccbc7281cb1e568",
          "transactionIndex": "0x0",
          "logIndex": "0x5",
          "removed": false
        },
        {
          "address": "0x32042142dd551b4ebe17b6fed53131dd4b4eea06",
          "topics": [
            "0x61ed099e74a97a1d7f8bb0952a88ca8b7b8ebd00c126ea04671f92a81213318a"
          ],
          "data": "0x0000000000000000000000000408804c5dcd9796f22558464e6fe5bddf16a7c70000000000000000000000000000000000000000000000000000034bf1d033c3",
          "blockHash": "0x7f1dbe86c862cf1ec1422d2172bef2e3aecd909de4b1af4283e1e5444a2a1bcc",
          "blockNumber": "0x13c492b",
          "transactionHash": "0x3dfe5e706252b2c265d1a044e12f739451dd899290319ad35ccbc7281cb1e568",
          "transactionIndex": "0x0",
          "logIndex": "0x6",
          "removed": false
        },
        {
          "address": "0x32042142dd551b4ebe17b6fed53131dd4b4eea06",
          "topics": [
            "0x07ea52d82345d6e838192107d8fd7123d9c2ec8e916cd0aad13fd2b60db24644"
          ],
          "data": "0x000000000000000000000000000000000000000000000000000000000000006000000000000000000000000000000000000000000000000000000000000000e000000000000000000000000000000000000000000000000000000000000001000000000000000000000000000000000000000000000000000000000000000003000000000000000000000000129ee430cb2ff2708ccaddbdb408a88fe4ffd4800000000000000000000000007fe673201724925b5c477d4e1a4bd3e954688cf5000000000000000000000000f4064220871e3b94ca6ab3b0cee8e29178bf47de000000000000000000000000000000000000000000000000000000000000000000000000000000000000000000000000000000000000000000000000000000030000000000000000000000000000000000000000000000000000034bf1d03403000000000000000000000000000000000000000000000000000000000000023a0000000000000000000000000000000000000000000000000000000000000252",
          "blockHash": "0x7f1dbe86c862cf1ec1422d2172bef2e3aecd909de4b1af4283e1e5444a2a1bcc",
          "blockNumber": "0x13c492b",
          "transactionHash": "0x3dfe5e706252b2c265d1a044e12f739451dd899290319ad35ccbc7281cb1e568",
          "transactionIndex": "0x0",
          "logIndex": "0x7",
          "removed": false
        },
        {
          "address": "0x1a44076050125825900e736c501f859c50fe728c",
          "topics": [
            "0x1ab700d4ced0c005b164c0f789fd09fcbb0156d4c2041b8a3bfbcd961cd1567f"
          ],
          "data": "0x0000000000000000000000000000000000000000000000000000000000000060000000000000000000000000000000000000000000000000000000000000012000000000000000000000000032042142dd551b4ebe17b6fed53131dd4b4eea060000000000000000000000000000000000000000000000000000000000000099010000000000000001000075e70000000000000000000000006185334f1542a9966cbad694577ffbede3dd1f1f00007675a1bb74f0d5770dfc905c508e6273fadc595ddc15326cc907889bdfffa50602c867f676baab960192b965ea5fa1607dd6b79c00bacb49b7adf083ce5f41eb04c809d0eb2763c96e085fa74ba6cf0d49136f8654c48ec7dbc59279a9066c7dd40900000000000f42400000000000000000000000000000000000000000000000000000000000000000000000000000160003010011010000000000000000000000000000138800000000000000000000",
          "blockHash": "0x7f1dbe86c862cf1ec1422d2172bef2e3aecd909de4b1af4283e1e5444a2a1bcc",
          "blockNumber": "0x13c492b",
          "transactionHash": "0x3dfe5e706252b2c265d1a044e12f739451dd899290319ad35ccbc7281cb1e568",
          "transactionIndex": "0x0",
          "logIndex": "0x8",
          "removed": false
        },
        {
          "address": "0x6185334f1542a9966cbad694577ffbede3dd1f1f",
          "topics": [
            "0x85496b760a4b7f8d66384b9df21b381f5d1b1e79f229a47aaf4c232edc2fe59a",
            "0x67f676baab960192b965ea5fa1607dd6b79c00bacb49b7adf083ce5f41eb04c8",
            "0x000000000000000000000000d555d90a6b23b285575cd6192d972e35f70b5b89"
          ],
          "data": "0x00000000000000000000000000000000000000000000000000000000000076750000000000000000000000000000000000000000000000000de0b6b3a76400000000000000000000000000000000000000000000000000000de0b6b3a7640000",
          "blockHash": "0x7f1dbe86c862cf1ec1422d2172bef2e3aecd909de4b1af4283e1e5444a2a1bcc",
          "blockNumber": "0x13c492b",
          "transactionHash": "0x3dfe5e706252b2c265d1a044e12f739451dd899290319ad35ccbc7281cb1e568",
          "transactionIndex": "0x0",
          "logIndex": "0x9",
          "removed": false
        },
        {
          "address": "0x6185334f1542a9966cbad694577ffbede3dd1f1f",
          "topics": [
            "0xddf252ad1be2c89b69c2b068fc378daa952ba7f163c4a11628f55a4df523b3ef",
            "0x000000000000000000000000d555d90a6b23b285575cd6192d972e35f70b5b89",
            "0x0000000000000000000000000000000000000000000000000000000000000000"
          ],
          "data": "0x0000000000000000000000000000000000000000000000000de0b6b3a7640000",
          "blockHash": "0x7f1dbe86c862cf1ec1422d2172bef2e3aecd909de4b1af4283e1e5444a2a1bcc",
          "blockNumber": "0x13c492b",
          "transactionHash": "0x3dfe5e706252b2c265d1a044e12f739451dd899290319ad35ccbc7281cb1e568",
          "transactionIndex": "0x0",
          "logIndex": "0xa",
          "removed": false
        },
        {
          "address": "0x32042142dd551b4ebe17b6fed53131dd4b4eea06",
          "topics": [
            "0x61ed099e74a97a1d7f8bb0952a88ca8b7b8ebd00c126ea04671f92a81213318a"
          ],
          "data": "0x0000000000000000000000000408804c5dcd9796f22558464e6fe5bddf16a7c700000000000000000000000000000000000000000000000000000ccca89feeda",
          "blockHash": "0x7f1dbe86c862cf1ec1422d2172bef2e3aecd909de4b1af4283e1e5444a2a1bcc",
          "blockNumber": "0x13c492b",
          "transactionHash": "0x3dfe5e706252b2c265d1a044e12f739451dd899290319ad35ccbc7281cb1e568",
          "transactionIndex": "0x0",
          "logIndex": "0xb",
          "removed": false
        },
        {
          "address": "0x32042142dd551b4ebe17b6fed53131dd4b4eea06",
          "topics": [
            "0x07ea52d82345d6e838192107d8fd7123d9c2ec8e916cd0aad13fd2b60db24644"
          ],
          "data": "0x000000000000000000000000000000000000000000000000000000000000006000000000000000000000000000000000000000000000000000000000000000e000000000000000000000000000000000000000000000000000000000000001000000000000000000000000000000000000000000000000000000000000000003000000000000000000000000129ee430cb2ff2708ccaddbdb408a88fe4ffd4800000000000000000000000007fe673201724925b5c477d4e1a4bd3e954688cf5000000000000000000000000f4064220871e3b94ca6ab3b0cee8e29178bf47de00000000000000000000000000000000000000000000000000000000000000000000000000000000000000000000000000000000000000000000000000000003000000000000000000000000000000000000000000000000000022c12782c0bc000000000000000000000000000000000000000000000000000022c12782c0bc00000000000000000000000000000000000000000000000000002993d5bef96c",
          "blockHash": "0x7f1dbe86c862cf1ec1422d2172bef2e3aecd909de4b1af4283e1e5444a2a1bcc",
          "blockNumber": "0x13c492b",
          "transactionHash": "0x3dfe5e706252b2c265d1a044e12f739451dd899290319ad35ccbc7281cb1e568",
          "transactionIndex": "0x0",
          "logIndex": "0xc",
          "removed": false
        },
        {
          "address": "0x1a44076050125825900e736c501f859c50fe728c",
          "topics": [
            "0x1ab700d4ced0c005b164c0f789fd09fcbb0156d4c2041b8a3bfbcd961cd1567f"
          ],
          "data": "0x0000000000000000000000000000000000000000000000000000000000000060000000000000000000000000000000000000000000000000000000000000012000000000000000000000000032042142dd551b4ebe17b6fed53131dd4b4eea060000000000000000000000000000000000000000000000000000000000000099010000000000000001000075e70000000000000000000000006185334f1542a9966cbad694577ffbede3dd1f1f0000759ca1bb74f0d5770dfc905c508e6273fadc595ddc15326cc907889bdfffa50602c805e2c1a2403070489a631019a3188da9529888ed8c0c8339bec623a10207ab8909d0eb2763c96e085fa74ba6cf0d49136f8654c48ec7dbc59279a9066c7dd40900000000000f42400000000000000000000000000000000000000000000000000000000000000000000000000000160003010011010000000000000000000000000000138800000000000000000000",
          "blockHash": "0x7f1dbe86c862cf1ec1422d2172bef2e3aecd909de4b1af4283e1e5444a2a1bcc",
          "blockNumber": "0x13c492b",
          "transactionHash": "0x3dfe5e706252b2c265d1a044e12f739451dd899290319ad35ccbc7281cb1e568",
          "transactionIndex": "0x0",
          "logIndex": "0xd",
          "removed": false
        },
        {
          "address": "0x6185334f1542a9966cbad694577ffbede3dd1f1f",
          "topics": [
            "0x85496b760a4b7f8d66384b9df21b381f5d1b1e79f229a47aaf4c232edc2fe59a",
            "0x05e2c1a2403070489a631019a3188da9529888ed8c0c8339bec623a10207ab89",
            "0x000000000000000000000000d555d90a6b23b285575cd6192d972e35f70b5b89"
          ],
          "data": "0x000000000000000000000000000000000000000000000000000000000000759c0000000000000000000000000000000000000000000000000de0b6b3a76400000000000000000000000000000000000000000000000000000de0b6b3a7640000",
          "blockHash": "0x7f1dbe86c862cf1ec1422d2172bef2e3aecd909de4b1af4283e1e5444a2a1bcc",
          "blockNumber": "0x13c492b",
          "transactionHash": "0x3dfe5e706252b2c265d1a044e12f739451dd899290319ad35ccbc7281cb1e568",
          "transactionIndex": "0x0",
          "logIndex": "0xe",
          "removed": false
        }
      ],
      "logsBloom": "0x00000000000000000000800000002000000000000000010000000000001000000000000000000000004000000000000000000000000000000000000000000000000002000000000000000008000000000020000000000000000000000000021000000000020000008000000000000800010000000010000000000010000000000000000010000800000080080000000000000000000000020000000000000000000000008000000000100008000000000000000000400000000640000000000000000002800000000000000080000000000000000000000000000000000020000100040000000000000000000000002000000000018010000000400000000000",
      "type": "0x2",
      "transactionHash": "0x3dfe5e706252b2c265d1a044e12f739451dd899290319ad35ccbc7281cb1e568",
      "transactionIndex": "0x0",
      "blockHash": "0x7f1dbe86c862cf1ec1422d2172bef2e3aecd909de4b1af4283e1e5444a2a1bcc",
      "blockNumber": "0x13c492b",
      "gasUsed": "0xdfe58",
      "effectiveGasPrice": "0x5560338",
      "from": "0x45dce8e4f2dc005a5f28206a46cb034697eeda8e",
      "to": "0xd555d90a6b23b285575cd6192d972e35f70b5b89",
      "contractAddress": null
    }
  ],
  "libraries": [],
  "pending": [],
  "returns": {},
  "timestamp": 1752115361,
  "chain": 59144,
  "commit": "4a90ad4"
}