{
  "transactions": [
    {
      "hash": "0xba36dd51972c1208c692e0fe25d21c623a81bf41e7bc41ad26aa8f64c4f35b88",
      "transactionType": "CALL",
      "contractName": null,
      "contractAddress": "0x8f37d9f5404067d4baec77e42956a198d1858080",
      "function": "batchBridgeWithEthFeeFromWallet((uint32,bytes32,uint256,uint256,bytes,bytes,bytes)[],address[],address[])",
      "arguments": [
        "[(30255, 0x000000000000000000000000741f0d8bde14140f62107fc60a0ee122b37d4630, 100000000000000, 0, 0x, 0x, 0x), (30255, 0x000000000000000000000000741f0d8bde14140f62107fc60a0ee122b37d4630, 100000000000000, 0, 0x, 0x, 0x), (30255, 0x000000000000000000000000741f0d8bde14140f62107fc60a0ee122b37d4630, 100000000000000, 0, 0x, 0x, 0x), (30255, 0x000000000000000000000000741f0d8bde14140f62107fc60a0ee122b37d4630, 100000000000000, 0, 0x, 0x, 0x), (30255, 0x000000000000000000000000741f0d8bde14140f62107fc60a0ee122b37d4630, 100000000000000, 0, 0x, 0x, 0x), (30255, 0x000000000000000000000000741f0d8bde14140f62107fc60a0ee122b37d4630, 100000000000000, 0, 0x, 0x, 0x)]",
        "[0x29aCC7c504665A5EA95344796f784095f0cfcC58, 0x137643F7b2C189173867b3391f6629caB46F0F1a, 0x3B4cf37A3335F21c945a40088404c715525fCb29, 0x58E3ee6accd124642dDB5d3f91928816Be8D8ed3, 0x288F9D76019469bfEb56BB77d86aFa2bF563B75B, 0xBa554F7A47f0792b9fa41A1256d4cf628Bb1D028]",
        "[0x8F37D9F5404067d4bAEc77e42956A198d1858080, 0x8F37D9F5404067d4bAEc77e42956A198d1858080, 0x8F37D9F5404067d4bAEc77e42956A198d1858080, 0x8F37D9F5404067d4bAEc77e42956A198d1858080, 0x8F37D9F5404067d4bAEc77e42956A198d1858080, 0x8F37D9F5404067d4bAEc77e42956A198d1858080]"
      ],
      "transaction": {
        "from": "0x0990be6db8c785fbbf9ded8baec612a10cae814b",
        "to": "0x8f37d9f5404067d4baec77e42956a198d1858080",
        "gas": "0x989f7c",
        "value": "0x4fc7304f3a516e7e",
        "input": "0xb70d4241000000000000000000000000000000000000000000000000000000000000006000000000000000000000000000000000000000000000000000000000000008c000000000000000000000000000000000000000000000000000000000000009a0000000000000000000000000000000000000000000000000000000000000000600000000000000000000000000000000000000000000000000000000000000c000000000000000000000000000000000000000000000000000000000000002000000000000000000000000000000000000000000000000000000000000000340000000000000000000000000000000000000000000000000000000000000048000000000000000000000000000000000000000000000000000000000000005c00000000000000000000000000000000000000000000000000000000000000700000000000000000000000000000000000000000000000000000000000000762f000000000000000000000000741f0d8bde14140f62107fc60a0ee122b37d463000000000000000000000000000000000000000000000000000005af3107a4000000000000000000000000000000000000000000000000000000000000000000000000000000000000000000000000000000000000000000000000000000000e000000000000000000000000000000000000000000000000000000000000001000000000000000000000000000000000000000000000000000000000000000120000000000000000000000000000000000000000000000000000000000000000000000000000000000000000000000000000000000000000000000000000000000000000000000000000000000000000000000000000000000000000000000000000000000000000000000000000000000000000000000000000000000000762f000000000000000000000000741f0d8bde14140f62107fc60a0ee122b37d463000000000000000000000000000000000000000000000000000005af3107a4000000000000000000000000000000000000000000000000000000000000000000000000000000000000000000000000000000000000000000000000000000000e000000000000000000000000000000000000000000000000000000000000001000000000000000000000000000000000000000000000000000000000000000120000000000000000000000000000000000000000000000000000000000000000000000000000000000000000000000000000000000000000000000000000000000000000000000000000000000000000000000000000000000000000000000000000000000000000000000000000000000000000000000000000000000000762f000000000000000000000000741f0d8bde14140f62107fc60a0ee122b37d463000000000000000000000000000000000000000000000000000005af3107a4000000000000000000000000000000000000000000000000000000000000000000000000000000000000000000000000000000000000000000000000000000000e000000000000000000000000000000000000000000000000000000000000001000000000000000000000000000000000000000000000000000000000000000120000000000000000000000000000000000000000000000000000000000000000000000000000000000000000000000000000000000000000000000000000000000000000000000000000000000000000000000000000000000000000000000000000000000000000000000000000000000000000000000000000000000000762f000000000000000000000000741f0d8bde14140f62107fc60a0ee122b37d463000000000000000000000000000000000000000000000000000005af3107a4000000000000000000000000000000000000000000000000000000000000000000000000000000000000000000000000000000000000000000000000000000000e000000000000000000000000000000000000000000000000000000000000001000000000000000000000000000000000000000000000000000000000000000120000000000000000000000000000000000000000000000000000000000000000000000000000000000000000000000000000000000000000000000000000000000000000000000000000000000000000000000000000000000000000000000000000000000000000000000000000000000000000000000000000000000000762f000000000000000000000000741f0d8bde14140f62107fc60a0ee122b37d463000000000000000000000000000000000000000000000000000005af3107a4000000000000000000000000000000000000000000000000000000000000000000000000000000000000000000000000000000000000000000000000000000000e000000000000000000000000000000000000000000000000000000000000001000000000000000000000000000000000000000000000000000000000000000120000000000000000000000000000000000000000000000000000000000000000000000000000000000000000000000000000000000000000000000000000000000000000000000000000000000000000000000000000000000000000000000000000000000000000000000000000000000000000000000000000000000000762f000000000000000000000000741f0d8bde14140f62107fc60a0ee122b37d463000000000000000000000000000000000000000000000000000005af3107a4000000000000000000000000000000000000000000000000000000000000000000000000000000000000000000000000000000000000000000000000000000000e000000000000000000000000000000000000000000000000000000000000001000000000000000000000000000000000000000000000000000000000000000120000000000000000000000000000000000000000000000000000000000000000000000000000000000000000000000000000000000000000000000000000000000000000000000000000000000000000000000000000000000000000000000000000000000000000000000000000000000000000000000000000000000000000600000000000000000000000029acc7c504665a5ea95344796f784095f0cfcc58000000000000000000000000137643f7b2c189173867b3391f6629cab46f0f1a0000000000000000000000003b4cf37a3335f21c945a40088404c715525fcb2900000000000000000000000058e3ee6accd124642ddb5d3f91928816be8d8ed3000000000000000000000000288f9d76019469bfeb56bb77d86afa2bf563b75b000000000000000000000000ba554f7a47f0792b9fa41a1256d4cf628bb1d02800000000000000000000000000000000000000000000000000000000000000060000000000000000000000008f37d9f5404067d4baec77e42956a198d18580800000000000000000000000008f37d9f5404067d4baec77e42956a198d18580800000000000000000000000008f37d9f5404067d4baec77e42956a198d18580800000000000000000000000008f37d9f5404067d4baec77e42956a198d18580800000000000000000000000008f37d9f5404067d4baec77e42956a198d18580800000000000000000000000008f37d9f5404067d4baec77e42956a198d1858080",
        "nonce": "0x34",
        "chainId": "0x8f"
      },
      "additionalContracts": [],
      "isFixedGasLimit": true
    }
  ],
  "receipts": [
    {
      "status": "0x1",
      "cumulativeGasUsed": "0xb4c2fb",
      "logs": [
        {
          "address": "0x29acc7c504665a5ea95344796f784095f0cfcc58",
          "topics": [
            "0xddf252ad1be2c89b69c2b068fc378daa952ba7f163c4a11628f55a4df523b3ef",
            "0x0000000000000000000000008f37d9f5404067d4baec77e42956a198d1858080",
            "0x0000000000000000000000000000000000000000000000000000000000000000"
          ],
          "data": "0x00000000000000000000000000000000000000000000000000005af3107a4000",
          "blockHash": "0xf8b30c5104aaedfc92c6ee0b5b10c31d8e957126ce4ba260b8d7b5530a81f4ff",
          "blockNumber": "0x263ef31",
          "blockTimestamp": "0x69332794",
          "transactionHash": "0xba36dd51972c1208c692e0fe25d21c623a81bf41e7bc41ad26aa8f64c4f35b88",
          "transactionIndex": "0x3",
          "logIndex": "0x28",
          "removed": false
        },
        {
          "address": "0xc39161c743d0307eb9bcc9fef03eeb9dc4802de7",
          "topics": [
            "0x61ed099e74a97a1d7f8bb0952a88ca8b7b8ebd00c126ea04671f92a81213318a"
          ],
          "data": "0x0000000000000000000000004208d6e27538189bb48e603d6123a94b8abe0a0b0000000000000000000000000000000000000000000000000ab2f7d1b53a9bc4",
          "blockHash": "0xf8b30c5104aaedfc92c6ee0b5b10c31d8e957126ce4ba260b8d7b5530a81f4ff",
          "blockNumber": "0x263ef31",
          "blockTimestamp": "0x69332794",
          "transactionHash": "0xba36dd51972c1208c692e0fe25d21c623a81bf41e7bc41ad26aa8f64c4f35b88",
          "transactionIndex": "0x3",
          "logIndex": "0x29",
          "removed": false
        },
        {
          "address": "0xc39161c743d0307eb9bcc9fef03eeb9dc4802de7",
          "topics": [
            "0x07ea52d82345d6e838192107d8fd7123d9c2ec8e916cd0aad13fd2b60db24644"
          ],
          "data": "0x000000000000000000000000000000000000000000000000000000000000006000000000000000000000000000000000000000000000000000000000000000e000000000000000000000000000000000000000000000000000000000000001000000000000000000000000000000000000000000000000000000000000000003000000000000000000000000282b3386571f7f794450d5789911a9804fa346b40000000000000000000000005ec52fb644072247c3264f0ac3db981cdebe3eca000000000000000000000000dcdd4628f858b45260c31d6ad076bd2c3d3c2f730000000000000000000000000000000000000000000000000000000000000000000000000000000000000000000000000000000000000000000000000000000300000000000000000000000000000000000000000000000000b777b4b2c2806400000000000000000000000000000000000000000000000000b777b4b2c2806400000000000000000000000000000000000000000000000000b777b4b2c28064",
          "blockHash": "0xf8b30c5104aaedfc92c6ee0b5b10c31d8e957126ce4ba260b8d7b5530a81f4ff",
          "blockNumber": "0x263ef31",
          "blockTimestamp": "0x69332794",
          "transactionHash": "0xba36dd51972c1208c692e0fe25d21c623a81bf41e7bc41ad26aa8f64c4f35b88",
          "transactionIndex": "0x3",
          "logIndex": "0x2a",
          "removed": false
        },
        {
          "address": "0x6f475642a6e85809b1c36fa62763669b1b48dd5b",
          "topics": [
            "0x1ab700d4ced0c005b164c0f789fd09fcbb0156d4c2041b8a3bfbcd961cd1567f"
          ],
          "data": "0x00000000000000000000000000000000000000000000000000000000000000600000000000000000000000000000000000000000000000000000000000000120000000000000000000000000c39161c743d0307eb9bcc9fef03eeb9dc4802de70000000000000000000000000000000000000000000000000000000000000099010000000000000001000076b600000000000000000000000029acc7c504665a5ea95344796f784095f0cfcc580000762f000000000000000000000000d86fbbd0c8715d2c1f40e451e5c3514e65e7576a3d5b75237b251d6b79591f9f0c93701604fb8c04e8ae5da4090184ad0ebc717d000000000000000000000000741f0d8bde14140f62107fc60a0ee122b37d4630000000000000006400000000000000000000000000000000000000000000000000000000000000000000000000001600030100110100000000000000000000000000030d4000000000000000000000",
          "blockHash": "0xf8b30c5104aaedfc92c6ee0b5b10c31d8e957126ce4ba260b8d7b5530a81f4ff",
          "blockNumber": "0x263ef31",
          "blockTimestamp": "0x69332794",
          "transactionHash": "0xba36dd51972c1208c692e0fe25d21c623a81bf41e7bc41ad26aa8f64c4f35b88",
          "transactionIndex": "0x3",
          "logIndex": "0x2b",
          "removed": false
        },
        {
          "address": "0x29acc7c504665a5ea95344796f784095f0cfcc58",
          "topics": [
            "0x85496b760a4b7f8d66384b9df21b381f5d1b1e79f229a47aaf4c232edc2fe59a",
            "0x3d5b75237b251d6b79591f9f0c93701604fb8c04e8ae5da4090184ad0ebc717d",
            "0x0000000000000000000000008f37d9f5404067d4baec77e42956a198d1858080"
          ],
          "data": "0x000000000000000000000000000000000000000000000000000000000000762f00000000000000000000000000000000000000000000000000005af3107a400000000000000000000000000000000000000000000000000000005af3107a4000",
          "blockHash": "0xf8b30c5104aaedfc92c6ee0b5b10c31d8e957126ce4ba260b8d7b5530a81f4ff",
          "blockNumber": "0x263ef31",
          "blockTimestamp": "0x69332794",
          "transactionHash": "0xba36dd51972c1208c692e0fe25d21c623a81bf41e7bc41ad26aa8f64c4f35b88",
          "transactionIndex": "0x3",
          "logIndex": "0x2c",
          "removed": false
        },
        {
          "address": "0x137643f7b2c189173867b3391f6629cab46f0f1a",
          "topics": [
            "0xddf252ad1be2c89b69c2b068fc378daa952ba7f163c4a11628f55a4df523b3ef",
            "0x0000000000000000000000008f37d9f5404067d4baec77e42956a198d1858080",
            "0x0000000000000000000000000000000000000000000000000000000000000000"
          ],
          "data": "0x00000000000000000000000000000000000000000000000000005af3107a4000",
          "blockHash": "0xf8b30c5104aaedfc92c6ee0b5b10c31d8e957126ce4ba260b8d7b5530a81f4ff",
          "blockNumber": "0x263ef31",
          "blockTimestamp": "0x69332794",
          "transactionHash": "0xba36dd51972c1208c692e0fe25d21c623a81bf41e7bc41ad26aa8f64c4f35b88",
          "transactionIndex": "0x3",
          "logIndex": "0x2d",
          "removed": false
        },
        {
          "address": "0xc39161c743d0307eb9bcc9fef03eeb9dc4802de7",
          "topics": [
            "0x61ed099e74a97a1d7f8bb0952a88ca8b7b8ebd00c126ea04671f92a81213318a"
          ],
          "data": "0x0000000000000000000000004208d6e27538189bb48e603d6123a94b8abe0a0b0000000000000000000000000000000000000000000000000ab2f7d1b53a9bc4",
          "blockHash": "0xf8b30c5104aaedfc92c6ee0b5b10c31d8e957126ce4ba260b8d7b5530a81f4ff",
          "blockNumber": "0x263ef31",
          "blockTimestamp": "0x69332794",
          "transactionHash": "0xba36dd51972c1208c692e0fe25d21c623a81bf41e7bc41ad26aa8f64c4f35b88",
          "transactionIndex": "0x3",
          "logIndex": "0x2e",
          "removed": false
        },
        {
          "address": "0xc39161c743d0307eb9bcc9fef03eeb9dc4802de7",
          "topics": [
            "0x07ea52d82345d6e838192107d8fd7123d9c2ec8e916cd0aad13fd2b60db24644"
          ],
          "data": "0x000000000000000000000000000000000000000000000000000000000000006000000000000000000000000000000000000000000000000000000000000000e000000000000000000000000000000000000000000000000000000000000001000000000000000000000000000000000000000000000000000000000000000003000000000000000000000000282b3386571f7f794450d5789911a9804fa346b40000000000000000000000005ec52fb644072247c3264f0ac3db981cdebe3eca000000000000000000000000dcdd4628f858b45260c31d6ad076bd2c3d3c2f730000000000000000000000000000000000000000000000000000000000000000000000000000000000000000000000000000000000000000000000000000000300000000000000000000000000000000000000000000000000b777b4b2c2806400000000000000000000000000000000000000000000000000b777b4b2c2806400000000000000000000000000000000000000000000000000b777b4b2c28064",
          "blockHash": "0xf8b30c5104aaedfc92c6ee0b5b10c31d8e957126ce4ba260b8d7b5530a81f4ff",
          "blockNumber": "0x263ef31",
          "blockTimestamp": "0x69332794",
          "transactionHash": "0xba36dd51972c1208c692e0fe25d21c623a81bf41e7bc41ad26aa8f64c4f35b88",
          "transactionIndex": "0x3",
          "logIndex": "0x2f",
          "removed": false
        },
        {
          "address": "0x6f475642a6e85809b1c36fa62763669b1b48dd5b",
          "topics": [
            "0x1ab700d4ced0c005b164c0f789fd09fcbb0156d4c2041b8a3bfbcd961cd1567f"
          ],
          "data": "0x00000000000000000000000000000000000000000000000000000000000000600000000000000000000000000000000000000000000000000000000000000120000000000000000000000000c39161c743d0307eb9bcc9fef03eeb9dc4802de70000000000000000000000000000000000000000000000000000000000000099010000000000000001000076b6000000000000000000000000137643f7b2c189173867b3391f6629cab46f0f1a0000762f00000000000000000000000088aa7854d3b2daa5e37e7ce73a1f39669623a361681a32693de0f93af6353d4d76095c8b6164c796a59490a9477cb0a8a6955bc9000000000000000000000000741f0d8bde14140f62107fc60a0ee122b37d4630000000000000006400000000000000000000000000000000000000000000000000000000000000000000000000001600030100110100000000000000000000000000030d4000000000000000000000",
          "blockHash": "0xf8b30c5104aaedfc92c6ee0b5b10c31d8e957126ce4ba260b8d7b5530a81f4ff",
          "blockNumber": "0x263ef31",
          "blockTimestamp": "0x69332794",
          "transactionHash": "0xba36dd51972c1208c692e0fe25d21c623a81bf41e7bc41ad26aa8f64c4f35b88",
          "transactionIndex": "0x3",
          "logIndex": "0x30",
          "removed": false
        },
        {
          "address": "0x137643f7b2c189173867b3391f6629cab46f0f1a",
          "topics": [
            "0x85496b760a4b7f8d66384b9df21b381f5d1b1e79f229a47aaf4c232edc2fe59a",
            "0x681a32693de0f93af6353d4d76095c8b6164c796a59490a9477cb0a8a6955bc9",
            "0x0000000000000000000000008f37d9f5404067d4baec77e42956a198d1858080"
          ],
          "data": "0x000000000000000000000000000000000000000000000000000000000000762f00000000000000000000000000000000000000000000000000005af3107a400000000000000000000000000000000000000000000000000000005af3107a4000",
          "blockHash": "0xf8b30c5104aaedfc92c6ee0b5b10c31d8e957126ce4ba260b8d7b5530a81f4ff",
          "blockNumber": "0x263ef31",
          "blockTimestamp": "0x69332794",
          "transactionHash": "0xba36dd51972c1208c692e0fe25d21c623a81bf41e7bc41ad26aa8f64c4f35b88",
          "transactionIndex": "0x3",
          "logIndex": "0x31",
          "removed": false
        },
        {
          "address": "0x3b4cf37a3335f21c945a40088404c715525fcb29",
          "topics": [
            "0xddf252ad1be2c89b69c2b068fc378daa952ba7f163c4a11628f55a4df523b3ef",
            "0x0000000000000000000000008f37d9f5404067d4baec77e42956a198d1858080",
            "0x0000000000000000000000000000000000000000000000000000000000000000"
          ],
          "data": "0x00000000000000000000000000000000000000000000000000005af3107a4000",
          "blockHash": "0xf8b30c5104aaedfc92c6ee0b5b10c31d8e957126ce4ba260b8d7b5530a81f4ff",
          "blockNumber": "0x263ef31",
          "blockTimestamp": "0x69332794",
          "transactionHash": "0xba36dd51972c1208c692e0fe25d21c623a81bf41e7bc41ad26aa8f64c4f35b88",
          "transactionIndex": "0x3",
          "logIndex": "0x32",
          "removed": false
        },
        {
          "address": "0xc39161c743d0307eb9bcc9fef03eeb9dc4802de7",
          "topics": [
            "0x61ed099e74a97a1d7f8bb0952a88ca8b7b8ebd00c126ea04671f92a81213318a"
          ],
          "data": "0x0000000000000000000000004208d6e27538189bb48e603d6123a94b8abe0a0b0000000000000000000000000000000000000000000000000ab2f7d1b53a9bc4",
          "blockHash": "0xf8b30c5104aaedfc92c6ee0b5b10c31d8e957126ce4ba260b8d7b5530a81f4ff",
          "blockNumber": "0x263ef31",
          "blockTimestamp": "0x69332794",
          "transactionHash": "0xba36dd51972c1208c692e0fe25d21c623a81bf41e7bc41ad26aa8f64c4f35b88",
          "transactionIndex": "0x3",
          "logIndex": "0x33",
          "removed": false
        },
        {
          "address": "0xc39161c743d0307eb9bcc9fef03eeb9dc4802de7",
          "topics": [
            "0x07ea52d82345d6e838192107d8fd7123d9c2ec8e916cd0aad13fd2b60db24644"
          ],
          "data": "0x000000000000000000000000000000000000000000000000000000000000006000000000000000000000000000000000000000000000000000000000000000e000000000000000000000000000000000000000000000000000000000000001000000000000000000000000000000000000000000000000000000000000000003000000000000000000000000282b3386571f7f794450d5789911a9804fa346b40000000000000000000000005ec52fb644072247c3264f0ac3db981cdebe3eca000000000000000000000000dcdd4628f858b45260c31d6ad076bd2c3d3c2f730000000000000000000000000000000000000000000000000000000000000000000000000000000000000000000000000000000000000000000000000000000300000000000000000000000000000000000000000000000000b777b4b2c2806400000000000000000000000000000000000000000000000000b777b4b2c2806400000000000000000000000000000000000000000000000000b777b4b2c28064",
          "blockHash": "0xf8b30c5104aaedfc92c6ee0b5b10c31d8e957126ce4ba260b8d7b5530a81f4ff",
          "blockNumber": "0x263ef31",
          "blockTimestamp": "0x69332794",
          "transactionHash": "0xba36dd51972c1208c692e0fe25d21c623a81bf41e7bc41ad26aa8f64c4f35b88",
          "transactionIndex": "0x3",
          "logIndex": "0x34",
          "removed": false
        },
        {
          "address": "0x6f475642a6e85809b1c36fa62763669b1b48dd5b",
          "topics": [
            "0x1ab700d4ced0c005b164c0f789fd09fcbb0156d4c2041b8a3bfbcd961cd1567f"
          ],
          "data": "0x00000000000000000000000000000000000000000000000000000000000000600000000000000000000000000000000000000000000000000000000000000120000000000000000000000000c39161c743d0307eb9bcc9fef03eeb9dc4802de70000000000000000000000000000000000000000000000000000000000000099010000000000000001000076b60000000000000000000000003b4cf37a3335f21c945a40088404c715525fcb290000762f000000000000000000000000999dfabe3b1cc2ef66eb032eea42fea329bba168ecf2f4b76fff71db4ad350affd400bcdd2149fa9fa9d839efa97fab9306e42f9000000000000000000000000741f0d8bde14140f62107fc60a0ee122b37d4630000000000000006400000000000000000000000000000000000000000000000000000000000000000000000000001600030100110100000000000000000000000000030d4000000000000000000000",
          "blockHash": "0xf8b30c5104aaedfc92c6ee0b5b10c31d8e957126ce4ba260b8d7b5530a81f4ff",
          "blockNumber": "0x263ef31",
          "blockTimestamp": "0x69332794",
          "transactionHash": "0xba36dd51972c1208c692e0fe25d21c623a81bf41e7bc41ad26aa8f64c4f35b88",
          "transactionIndex": "0x3",
          "logIndex": "0x35",
          "removed": false
        },
        {
          "address": "0x3b4cf37a3335f21c945a40088404c715525fcb29",
          "topics": [
            "0x85496b760a4b7f8d66384b9df21b381f5d1b1e79f229a47aaf4c232edc2fe59a",
            "0xecf2f4b76fff71db4ad350affd400bcdd2149fa9fa9d839efa97fab9306e42f9",
            "0x0000000000000000000000008f37d9f5404067d4baec77e42956a198d1858080"
          ],
          "data": "0x000000000000000000000000000000000000000000000000000000000000762f00000000000000000000000000000000000000000000000000005af3107a400000000000000000000000000000000000000000000000000000005af3107a4000",
          "blockHash": "0xf8b30c5104aaedfc92c6ee0b5b10c31d8e957126ce4ba260b8d7b5530a81f4ff",
          "blockNumber": "0x263ef31",
          "blockTimestamp": "0x69332794",
          "transactionHash": "0xba36dd51972c1208c692e0fe25d21c623a81bf41e7bc41ad26aa8f64c4f35b88",
          "transactionIndex": "0x3",
          "logIndex": "0x36",
          "removed": false
        },
        {
          "address": "0x58e3ee6accd124642ddb5d3f91928816be8d8ed3",
          "topics": [
            "0xddf252ad1be2c89b69c2b068fc378daa952ba7f163c4a11628f55a4df523b3ef",
            "0x0000000000000000000000008f37d9f5404067d4baec77e42956a198d1858080",
            "0x0000000000000000000000000000000000000000000000000000000000000000"
          ],
          "data": "0x00000000000000000000000000000000000000000000000000005af3107a4000",
          "blockHash": "0xf8b30c5104aaedfc92c6ee0b5b10c31d8e957126ce4ba260b8d7b5530a81f4ff",
          "blockNumber": "0x263ef31",
          "blockTimestamp": "0x69332794",
          "transactionHash": "0xba36dd51972c1208c692e0fe25d21c623a81bf41e7bc41ad26aa8f64c4f35b88",
          "transactionIndex": "0x3",
          "logIndex": "0x37",
          "removed": false
        },
        {
          "address": "0xc39161c743d0307eb9bcc9fef03eeb9dc4802de7",
          "topics": [
            "0x61ed099e74a97a1d7f8bb0952a88ca8b7b8ebd00c126ea04671f92a81213318a"
          ],
          "data": "0x0000000000000000000000004208d6e27538189bb48e603d6123a94b8abe0a0b0000000000000000000000000000000000000000000000000ab2f7d1b53a9bc4",
          "blockHash": "0xf8b30c5104aaedfc92c6ee0b5b10c31d8e957126ce4ba260b8d7b5530a81f4ff",
          "blockNumber": "0x263ef31",
          "blockTimestamp": "0x69332794",
          "transactionHash": "0xba36dd51972c1208c692e0fe25d21c623a81bf41e7bc41ad26aa8f64c4f35b88",
          "transactionIndex": "0x3",
          "logIndex": "0x38",
          "removed": false
        },
        {
          "address": "0xc39161c743d0307eb9bcc9fef03eeb9dc4802de7",
          "topics": [
            "0x07ea52d82345d6e838192107d8fd7123d9c2ec8e916cd0aad13fd2b60db24644"
          ],
          "data": "0x000000000000000000000000000000000000000000000000000000000000006000000000000000000000000000000000000000000000000000000000000000e000000000000000000000000000000000000000000000000000000000000001000000000000000000000000000000000000000000000000000000000000000003000000000000000000000000282b3386571f7f794450d5789911a9804fa346b40000000000000000000000005ec52fb644072247c3264f0ac3db981cdebe3eca000000000000000000000000dcdd4628f858b45260c31d6ad076bd2c3d3c2f730000000000000000000000000000000000000000000000000000000000000000000000000000000000000000000000000000000000000000000000000000000300000000000000000000000000000000000000000000000000b777b4b2c2806400000000000000000000000000000000000000000000000000b777b4b2c2806400000000000000000000000000000000000000000000000000b777b4b2c28064",
          "blockHash": "0xf8b30c5104aaedfc92c6ee0b5b10c31d8e957126ce4ba260b8d7b5530a81f4ff",
          "blockNumber": "0x263ef31",
          "blockTimestamp": "0x69332794",
          "transactionHash": "0xba36dd51972c1208c692e0fe25d21c623a81bf41e7bc41ad26aa8f64c4f35b88",
          "transactionIndex": "0x3",
          "logIndex": "0x39",
          "removed": false
        },
        {
          "address": "0x6f475642a6e85809b1c36fa62763669b1b48dd5b",
          "topics": [
            "0x1ab700d4ced0c005b164c0f789fd09fcbb0156d4c2041b8a3bfbcd961cd1567f"
          ],
          "data": "0x00000000000000000000000000000000000000000000000000000000000000600000000000000000000000000000000000000000000000000000000000000120000000000000000000000000c39161c743d0307eb9bcc9fef03eeb9dc4802de70000000000000000000000000000000000000000000000000000000000000099010000000000000001000076b600000000000000000000000058e3ee6accd124642ddb5d3f91928816be8d8ed30000762f00000000000000000000000096a394058e2b84a89bac9667b19661ed003cf5d4ba56672e177a445ed506733698dbef9ea217e6c9a5e979ff48c03206b8dc2984000000000000000000000000741f0d8bde14140f62107fc60a0ee122b37d4630000000000000006400000000000000000000000000000000000000000000000000000000000000000000000000001600030100110100000000000000000000000000030d4000000000000000000000",
          "blockHash": "0xf8b30c5104aaedfc92c6ee0b5b10c31d8e957126ce4ba260b8d7b5530a81f4ff",
          "blockNumber": "0x263ef31",
          "blockTimestamp": "0x69332794",
          "transactionHash": "0xba36dd51972c1208c692e0fe25d21c623a81bf41e7bc41ad26aa8f64c4f35b88",
          "transactionIndex": "0x3",
          "logIndex": "0x3a",
          "removed": false
        },
        {
          "address": "0x58e3ee6accd124642ddb5d3f91928816be8d8ed3",
          "topics": [
            "0x85496b760a4b7f8d66384b9df21b381f5d1b1e79f229a47aaf4c232edc2fe59a",
            "0xba56672e177a445ed506733698dbef9ea217e6c9a5e979ff48c03206b8dc2984",
            "0x0000000000000000000000008f37d9f5404067d4baec77e42956a198d1858080"
          ],
          "data": "0x000000000000000000000000000000000000000000000000000000000000762f00000000000000000000000000000000000000000000000000005af3107a400000000000000000000000000000000000000000000000000000005af3107a4000",
          "blockHash": "0xf8b30c5104aaedfc92c6ee0b5b10c31d8e957126ce4ba260b8d7b5530a81f4ff",
          "blockNumber": "0x263ef31",
          "blockTimestamp": "0x69332794",
          "transactionHash": "0xba36dd51972c1208c692e0fe25d21c623a81bf41e7bc41ad26aa8f64c4f35b88",
          "transactionIndex": "0x3",
          "logIndex": "0x3b",
          "removed": false
        },
        {
          "address": "0x288f9d76019469bfeb56bb77d86afa2bf563b75b",
          "topics": [
            "0xddf252ad1be2c89b69c2b068fc378daa952ba7f163c4a11628f55a4df523b3ef",
            "0x0000000000000000000000008f37d9f5404067d4baec77e42956a198d1858080",
            "0x0000000000000000000000000000000000000000000000000000000000000000"
          ],
          "data": "0x00000000000000000000000000000000000000000000000000005af3107a4000",
          "blockHash": "0xf8b30c5104aaedfc92c6ee0b5b10c31d8e957126ce4ba260b8d7b5530a81f4ff",
          "blockNumber": "0x263ef31",
          "blockTimestamp": "0x69332794",
          "transactionHash": "0xba36dd51972c1208c692e0fe25d21c623a81bf41e7bc41ad26aa8f64c4f35b88",
          "transactionIndex": "0x3",
          "logIndex": "0x3c",
          "removed": false
        },
        {
          "address": "0xc39161c743d0307eb9bcc9fef03eeb9dc4802de7",
          "topics": [
            "0x61ed099e74a97a1d7f8bb0952a88ca8b7b8ebd00c126ea04671f92a81213318a"
          ],
          "data": "0x0000000000000000000000004208d6e27538189bb48e603d6123a94b8abe0a0b0000000000000000000000000000000000000000000000000ab2f7d1b53a9bc4",
          "blockHash": "0xf8b30c5104aaedfc92c6ee0b5b10c31d8e957126ce4ba260b8d7b5530a81f4ff",
          "blockNumber": "0x263ef31",
          "blockTimestamp": "0x69332794",
          "transactionHash": "0xba36dd51972c1208c692e0fe25d21c623a81bf41e7bc41ad26aa8f64c4f35b88",
          "transactionIndex": "0x3",
          "logIndex": "0x3d",
          "removed": false
        },
        {
          "address": "0xc39161c743d0307eb9bcc9fef03eeb9dc4802de7",
          "topics": [
            "0x07ea52d82345d6e838192107d8fd7123d9c2ec8e916cd0aad13fd2b60db24644"
          ],
          "data": "0x000000000000000000000000000000000000000000000000000000000000006000000000000000000000000000000000000000000000000000000000000000e000000000000000000000000000000000000000000000000000000000000001000000000000000000000000000000000000000000000000000000000000000003000000000000000000000000282b3386571f7f794450d5789911a9804fa346b40000000000000000000000005ec52fb644072247c3264f0ac3db981cdebe3eca000000000000000000000000dcdd4628f858b45260c31d6ad076bd2c3d3c2f730000000000000000000000000000000000000000000000000000000000000000000000000000000000000000000000000000000000000000000000000000000300000000000000000000000000000000000000000000000000b777b4b2c2806400000000000000000000000000000000000000000000000000b777b4b2c2806400000000000000000000000000000000000000000000000000b777b4b2c28064",
          "blockHash": "0xf8b30c5104aaedfc92c6ee0b5b10c31d8e957126ce4ba260b8d7b5530a81f4ff",
          "blockNumber": "0x263ef31",
          "blockTimestamp": "0x69332794",
          "transactionHash": "0xba36dd51972c1208c692e0fe25d21c623a81bf41e7bc41ad26aa8f64c4f35b88",
          "transactionIndex": "0x3",
          "logIndex": "0x3e",
          "removed": false
        },
        {
          "address": "0x6f475642a6e85809b1c36fa62763669b1b48dd5b",
          "topics": [
            "0x1ab700d4ced0c005b164c0f789fd09fcbb0156d4c2041b8a3bfbcd961cd1567f"
          ],
          "data": "0x00000000000000000000000000000000000000000000000000000000000000600000000000000000000000000000000000000000000000000000000000000120000000000000000000000000c39161c743d0307eb9bcc9fef03eeb9dc4802de70000000000000000000000000000000000000000000000000000000000000099010000000000000001000076b6000000000000000000000000288f9d76019469bfeb56bb77d86afa2bf563b75b0000762f0000000000000000000000009abfe1f8a999b0011ecd6116649aee8d575f5604330387f1870ad2f2218912a474b78aefda0a907b8a3425526f25b992188f5d19000000000000000000000000741f0d8bde14140f62107fc60a0ee122b37d4630000000000000006400000000000000000000000000000000000000000000000000000000000000000000000000001600030100110100000000000000000000000000030d4000000000000000000000",
          "blockHash": "0xf8b30c5104aaedfc92c6ee0b5b10c31d8e957126ce4ba260b8d7b5530a81f4ff",
          "blockNumber": "0x263ef31",
          "blockTimestamp": "0x69332794",
          "transactionHash": "0xba36dd51972c1208c692e0fe25d21c623a81bf41e7bc41ad26aa8f64c4f35b88",
          "transactionIndex": "0x3",
          "logIndex": "0x3f",
          "removed": false
        },
        {
          "address": "0x288f9d76019469bfeb56bb77d86afa2bf563b75b",
          "topics": [
            "0x85496b760a4b7f8d66384b9df21b381f5d1b1e79f229a47aaf4c232edc2fe59a",
            "0x330387f1870ad2f2218912a474b78aefda0a907b8a3425526f25b992188f5d19",
            "0x0000000000000000000000008f37d9f5404067d4baec77e42956a198d1858080"
          ],
          "data": "0x000000000000000000000000000000000000000000000000000000000000762f00000000000000000000000000000000000000000000000000005af3107a400000000000000000000000000000000000000000000000000000005af3107a4000",
          "blockHash": "0xf8b30c5104aaedfc92c6ee0b5b10c31d8e957126ce4ba260b8d7b5530a81f4ff",
          "blockNumber": "0x263ef31",
          "blockTimestamp": "0x69332794",
          "transactionHash": "0xba36dd51972c1208c692e0fe25d21c623a81bf41e7bc41ad26aa8f64c4f35b88",
          "transactionIndex": "0x3",
          "logIndex": "0x40",
          "removed": false
        },
        {
          "address": "0xba554f7a47f0792b9fa41a1256d4cf628bb1d028",
          "topics": [
            "0xddf252ad1be2c89b69c2b068fc378daa952ba7f163c4a11628f55a4df523b3ef",
            "0x0000000000000000000000008f37d9f5404067d4baec77e42956a198d1858080",
            "0x0000000000000000000000000000000000000000000000000000000000000000"
          ],
          "data": "0x00000000000000000000000000000000000000000000000000005af3107a4000",
          "blockHash": "0xf8b30c5104aaedfc92c6ee0b5b10c31d8e957126ce4ba260b8d7b5530a81f4ff",
          "blockNumber": "0x263ef31",
          "blockTimestamp": "0x69332794",
          "transactionHash": "0xba36dd51972c1208c692e0fe25d21c623a81bf41e7bc41ad26aa8f64c4f35b88",
          "transactionIndex": "0x3",
          "logIndex": "0x41",
          "removed": false
        },
        {
          "address": "0xc39161c743d0307eb9bcc9fef03eeb9dc4802de7",
          "topics": [
            "0x61ed099e74a97a1d7f8bb0952a88ca8b7b8ebd00c126ea04671f92a81213318a"
          ],
          "data": "0x0000000000000000000000004208d6e27538189bb48e603d6123a94b8abe0a0b0000000000000000000000000000000000000000000000000ab2f7d1b53a9bc4",
          "blockHash": "0xf8b30c5104aaedfc92c6ee0b5b10c31d8e957126ce4ba260b8d7b5530a81f4ff",
          "blockNumber": "0x263ef31",
          "blockTimestamp": "0x69332794",
          "transactionHash": "0xba36dd51972c1208c692e0fe25d21c623a81bf41e7bc41ad26aa8f64c4f35b88",
          "transactionIndex": "0x3",
          "logIndex": "0x42",
          "removed": false
        },
        {
          "address": "0xc39161c743d0307eb9bcc9fef03eeb9dc4802de7",
          "topics": [
            "0x07ea52d82345d6e838192107d8fd7123d9c2ec8e916cd0aad13fd2b60db24644"
          ],
          "data": "0x000000000000000000000000000000000000000000000000000000000000006000000000000000000000000000000000000000000000000000000000000000e000000000000000000000000000000000000000000000000000000000000001000000000000000000000000000000000000000000000000000000000000000003000000000000000000000000282b3386571f7f794450d5789911a9804fa346b40000000000000000000000005ec52fb644072247c3264f0ac3db981cdebe3eca000000000000000000000000dcdd4628f858b45260c31d6ad076bd2c3d3c2f730000000000000000000000000000000000000000000000000000000000000000000000000000000000000000000000000000000000000000000000000000000300000000000000000000000000000000000000000000000000b777b4b2c2806400000000000000000000000000000000000000000000000000b777b4b2c2806400000000000000000000000000000000000000000000000000b777b4b2c28064",
          "blockHash": "0xf8b30c5104aaedfc92c6ee0b5b10c31d8e957126ce4ba260b8d7b5530a81f4ff",
          "blockNumber": "0x263ef31",
          "blockTimestamp": "0x69332794",
          "transactionHash": "0xba36dd51972c1208c692e0fe25d21c623a81bf41e7bc41ad26aa8f64c4f35b88",
          "transactionIndex": "0x3",
          "logIndex": "0x43",
          "removed": false
        },
        {
          "address": "0x6f475642a6e85809b1c36fa62763669b1b48dd5b",
          "topics": [
            "0x1ab700d4ced0c005b164c0f789fd09fcbb0156d4c2041b8a3bfbcd961cd1567f"
          ],
          "data": "0x00000000000000000000000000000000000000000000000000000000000000600000000000000000000000000000000000000000000000000000000000000120000000000000000000000000c39161c743d0307eb9bcc9fef03eeb9dc4802de70000000000000000000000000000000000000000000000000000000000000099010000000000000001000076b6000000000000000000000000ba554f7a47f0792b9fa41a1256d4cf628bb1d0280000762f00000000000000000000000075c38d46001b0f8108c4136216bd2694982c20fcce7be43463265115d440002e8663c0d01f00b8eec7ea25030af008f5886ddf47000000000000000000000000741f0d8bde14140f62107fc60a0ee122b37d4630000000000000006400000000000000000000000000000000000000000000000000000000000000000000000000001600030100110100000000000000000000000000030d4000000000000000000000",
          "blockHash": "0xf8b30c5104aaedfc92c6ee0b5b10c31d8e957126ce4ba260b8d7b5530a81f4ff",
          "blockNumber": "0x263ef31",
          "blockTimestamp": "0x69332794",
          "transactionHash": "0xba36dd51972c1208c692e0fe25d21c623a81bf41e7bc41ad26aa8f64c4f35b88",
          "transactionIndex": "0x3",
          "logIndex": "0x44",
          "removed": false
        },
        {
          "address": "0xba554f7a47f0792b9fa41a1256d4cf628bb1d028",
          "topics": [
            "0x85496b760a4b7f8d66384b9df21b381f5d1b1e79f229a47aaf4c232edc2fe59a",
            "0xce7be43463265115d440002e8663c0d01f00b8eec7ea25030af008f5886ddf47",
            "0x0000000000000000000000008f37d9f5404067d4baec77e42956a198d1858080"
          ],
          "data": "0x000000000000000000000000000000000000000000000000000000000000762f00000000000000000000000000000000000000000000000000005af3107a400000000000000000000000000000000000000000000000000000005af3107a4000",
          "blockHash": "0xf8b30c5104aaedfc92c6ee0b5b10c31d8e957126ce4ba260b8d7b5530a81f4ff",
          "blockNumber": "0x263ef31",
          "blockTimestamp": "0x69332794",
          "transactionHash": "0xba36dd51972c1208c692e0fe25d21c623a81bf41e7bc41ad26aa8f64c4f35b88",
          "transactionIndex": "0x3",
          "logIndex": "0x45",
          "removed": false
        }
      ],
      "logsBloom": "0x00100000000000000000000400800000000000000000000010000000100000000000000400000000000020000000000000000000001000010000000000000000000002800000000080000008000000000140000002000000000000000000020000000000020000008020000005000800000080000000020000000010010000000000000000800000000008080080000000000000000004002000000000000000000000088000000000110000000000001002000000400000000460400000000000000802200000000000400080000000100002000000040000000000000020004000040020000000000000000080002021000000008000002000000000000000",
      "type": "0x2",
      "transactionHash": "0xba36dd51972c1208c692e0fe25d21c623a81bf41e7bc41ad26aa8f64c4f35b88",
      "transactionIndex": "0x3",
      "blockHash": "0xf8b30c5104aaedfc92c6ee0b5b10c31d8e957126ce4ba260b8d7b5530a81f4ff",
      "blockNumber": "0x263ef31",
      "gasUsed": "0x989f7c",
      "effectiveGasPrice": "0x17bfac7c00",
      "from": "0x0990be6db8c785fbbf9ded8baec612a10cae814b",
      "to": "0x8f37d9f5404067d4baec77e42956a198d1858080",
      "contractAddress": null
    }
  ],
  "libraries": [],
  "pending": [],
  "returns": {},
  "timestamp": 1764960150660,
  "chain": 143,
  "commit": "b070b8b"
}