{
  "transactions": [
    {
      "hash": "0x3669c98dc60aef17528ead2928f7002bbd08ae5b6a1de76f3f866160f5878c70",
      "transactionType": "CALL",
      "contractName": "TransparentUpgradeableProxy",
      "contractAddress": "0x57558cb8d6005de0bae8a2789d5efaae52dba5a8",
      "function": null,
      "arguments": null,
      "transaction": {
        "from": "0x45dce8e4f2dc005a5f28206a46cb034697eeda8e",
        "to": "0x57558cb8d6005de0bae8a2789d5efaae52dba5a8",
        "gas": "0xc7c03",
        "value": "0x0",
        "input": "0xb98bd0700000000000000000000000000000000000000000000000000000000000000020000000000000000000000000000000000000000000000000000000000000003a000000000000000000000000000000000000000000000000000000000000074000000000000000000000000000000000000000000000000000000000000007e00000000000000000000000000000000000000000000000000000000000000880000000000000000000000000000000000000000000000000000000000000092000000000000000000000000000000000000000000000000000000000000009c00000000000000000000000000000000000000000000000000000000000000a600000000000000000000000000000000000000000000000000000000000000b000000000000000000000000000000000000000000000000000000000000000ba00000000000000000000000000000000000000000000000000000000000000c400000000000000000000000000000000000000000000000000000000000000ce00000000000000000000000000000000000000000000000000000000000000d800000000000000000000000000000000000000000000000000000000000000e200000000000000000000000000000000000000000000000000000000000000ec00000000000000000000000000000000000000000000000000000000000000f60000000000000000000000000000000000000000000000000000000000000100000000000000000000000000000000000000000000000000000000000000010a0000000000000000000000000000000000000000000000000000000000000114000000000000000000000000000000000000000000000000000000000000011e00000000000000000000000000000000000000000000000000000000000001280000000000000000000000000000000000000000000000000000000000000132000000000000000000000000000000000000000000000000000000000000013c00000000000000000000000000000000000000000000000000000000000001460000000000000000000000000000000000000000000000000000000000000150000000000000000000000000000000000000000000000000000000000000015a0000000000000000000000000000000000000000000000000000000000000164000000000000000000000000000000000000000000000000000000000000016e00000000000000000000000000000000000000000000000000000000000001780000000000000000000000000000000000000000000000000000000000000182000000000000000000000000000000000000000000000000000000000000018c000000000000000000000000000000000000000000000000000000000000019600000000000000000000000000000000000000000000000000000000000001a000000000000000000000000000000000000000000000000000000000000001aa00000000000000000000000000000000000000000000000000000000000001b400000000000000000000000000000000000000000000000000000000000001be00000000000000000000000000000000000000000000000000000000000001c800000000000000000000000000000000000000000000000000000000000001d200000000000000000000000000000000000000000000000000000000000001dc00000000000000000000000000000000000000000000000000000000000001e600000000000000000000000000000000000000000000000000000000000001f000000000000000000000000000000000000000000000000000000000000001fa0000000000000000000000000000000000000000000000000000000000000204000000000000000000000000000000000000000000000000000000000000020e00000000000000000000000000000000000000000000000000000000000002180000000000000000000000000000000000000000000000000000000000000222000000000000000000000000000000000000000000000000000000000000022c00000000000000000000000000000000000000000000000000000000000002360000000000000000000000000000000000000000000000000000000000000240000000000000000000000000000000000000000000000000000000000000024a0000000000000000000000000000000000000000000000000000000000000254000000000000000000000000000000000000000000000000000000000000025e00000000000000000000000000000000000000000000000000000000000002680000000000000000000000000000000000000000000000000000000000000272000000000000000000000000000000000000000000000000000000000000027c00000000000000000000000000000000000000000000000000000000000002860000000000000000000000000000000000000000000000000000000000000290000000000000000000000000000000000000000000000000000000000000029a00000000000000000000000000000000000000000000000000000000000002a400000000000000000000000000000000000000000000000000000000000002ae0000000000000000000000000000000000000000000000000000000000000763400000000000000000000000000000000000000000000000000000000000000010000000000000000000000000000000000000000000000000000000000000060000000000000000000000000000000000000000000000000000000000000001600030100110100000000000000000000000000030d400000000000000000000000000000000000000000000000000000000000000000000000000000000076340000000000000000000000000000000000000000000000000000000000000002000000000000000000000000000000000000000000000000000000000000006000000000000000000000000000000000000000000000000000000000000000160003010011010000000000000000000000000003d09000000000000000000000000000000000000000000000000000000000000000000000000000000000764800000000000000000000000000000000000000000000000000000000000000010000000000000000000000000000000000000000000000000000000000000060000000000000000000000000000000000000000000000000000000000000001600030100110100000000000000000000000000030d400000000000000000000000000000000000000000000000000000000000000000000000000000000076480000000000000000000000000000000000000000000000000000000000000002000000000000000000000000000000000000000000000000000000000000006000000000000000000000000000000000000000000000000000000000000000160003010011010000000000000000000000000003d09000000000000000000000000000000000000000000000000000000000000000000000000000000000764200000000000000000000000000000000000000000000000000000000000000010000000000000000000000000000000000000000000000000000000000000060000000000000000000000000000000000000000000000000000000000000001600030100110100000000000000000000000000030d400000000000000000000000000000000000000000000000000000000000000000000000000000000076420000000000000000000000000000000000000000000000000000000000000002000000000000000000000000000000000000000000000000000000000000006000000000000000000000000000000000000000000000000000000000000000160003010011010000000000000000000000000003d09000000000000000000000000000000000000000000000000000000000000000000000000000000000767c00000000000000000000000000000000000000000000000000000000000000010000000000000000000000000000000000000000000000000000000000000060000000000000000000000000000000000000000000000000000000000000001600030100110100000000000000000000000000030d4000000000000000000000000000000000000000000000000000000000000000000000000000000000767c0000000000000000000000000000000000000000000000000000000000000002000000000000000000000000000000000000000000000000000000000000006000000000000000000000000000000000000000000000000000000000000000160003010011010000000000000000000000000003d09000000000000000000000000000000000000000000000000000000000000000000000000000000000768300000000000000000000000000000000000000000000000000000000000000010000000000000000000000000000000000000000000000000000000000000060000000000000000000000000000000000000000000000000000000000000001600030100110100000000000000000000000000030d400000000000000000000000000000000000000000000000000000000000000000000000000000000076830000000000000000000000000000000000000000000000000000000000000002000000000000000000000000000000000000000000000000000000000000006000000000000000000000000000000000000000000000000000000000000000160003010011010000000000000000000000000003d09000000000000000000000000000000000000000000000000000000000000000000000000000000000759e00000000000000000000000000000000000000000000000000000000000000010000000000000000000000000000000000000000000000000000000000000060000000000000000000000000000000000000000000000000000000000000001600030100110100000000000000000000000000030d4000000000000000000000000000000000000000000000000000000000000000000000000000000000759e0000000000000000000000000000000000000000000000000000000000000002000000000000000000000000000000000000000000000000000000000000006000000000000000000000000000000000000000000000000000000000000000160003010011010000000000000000000000000003d09000000000000000000000000000000000000000000000000000000000000000000000000000000000759f00000000000000000000000000000000000000000000000000000000000000010000000000000000000000000000000000000000000000000000000000000060000000000000000000000000000000000000000000000000000000000000001600030100110100000000000000000000000000030d4000000000000000000000000000000000000000000000000000000000000000000000000000000000759f0000000000000000000000000000000000000000000000000000000000000002000000000000000000000000000000000000000000000000000000000000006000000000000000000000000000000000000000000000000000000000000000160003010011010000000000000000000000000003d09000000000000000000000000000000000000000000000000000000000000000000000000000000000759d00000000000000000000000000000000000000000000000000000000000000010000000000000000000000000000000000000000000000000000000000000060000000000000000000000000000000000000000000000000000000000000001600030100110100000000000000000000000000030d4000000000000000000000000000000000000000000000000000000000000000000000000000000000759d0000000000000000000000000000000000000000000000000000000000000002000000000000000000000000000000000000000000000000000000000000006000000000000000000000000000000000000000000000000000000000000000160003010011010000000000000000000000000003d09000000000000000000000000000000000000000000000000000000000000000000000000000000000759a00000000000000000000000000000000000000000000000000000000000000010000000000000000000000000000000000000000000000000000000000000060000000000000000000000000000000000000000000000000000000000000001600030100110100000000000000000000000000030d4000000000000000000000000000000000000000000000000000000000000000000000000000000000759a0000000000000000000000000000000000000000000000000000000000000002000000000000000000000000000000000000000000000000000000000000006000000000000000000000000000000000000000000000000000000000000000160003010011010000000000000000000000000003d09000000000000000000000000000000000000000000000000000000000000000000000000000000000759600000000000000000000000000000000000000000000000000000000000000010000000000000000000000000000000000000000000000000000000000000060000000000000000000000000000000000000000000000000000000000000001600030100110100000000000000000000000000030d400000000000000000000000000000000000000000000000000000000000000000000000000000000075960000000000000000000000000000000000000000000000000000000000000002000000000000000000000000000000000000000000000000000000000000006000000000000000000000000000000000000000000000000000000000000000160003010011010000000000000000000000000003d0900000000000000000000000000000000000000000000000000000000000000000000000000000000075ce00000000000000000000000000000000000000000000000000000000000000010000000000000000000000000000000000000000000000000000000000000060000000000000000000000000000000000000000000000000000000000000001600030100110100000000000000000000000000030d400000000000000000000000000000000000000000000000000000000000000000000000000000000075ce0000000000000000000000000000000000000000000000000000000000000002000000000000000000000000000000000000000000000000000000000000006000000000000000000000000000000000000000000000000000000000000000160003010011010000000000000000000000000003d09000000000000000000000000000000000000000000000000000000000000000000000000000000000759500000000000000000000000000000000000000000000000000000000000000010000000000000000000000000000000000000000000000000000000000000060000000000000000000000000000000000000000000000000000000000000001600030100110100000000000000000000000000030d400000000000000000000000000000000000000000000000000000000000000000000000000000000075950000000000000000000000000000000000000000000000000000000000000002000000000000000000000000000000000000000000000000000000000000006000000000000000000000000000000000000000000000000000000000000000160003010011010000000000000000000000000003d09000000000000000000000000000000000000000000000000000000000000000000000000000000000762300000000000000000000000000000000000000000000000000000000000000010000000000000000000000000000000000000000000000000000000000000060000000000000000000000000000000000000000000000000000000000000001600030100110100000000000000000000000000030d400000000000000000000000000000000000000000000000000000000000000000000000000000000076230000000000000000000000000000000000000000000000000000000000000002000000000000000000000000000000000000000000000000000000000000006000000000000000000000000000000000000000000000000000000000000000160003010011010000000000000000000000000003d0900000000000000000000000000000000000000000000000000000000000000000000000000000000075e800000000000000000000000000000000000000000000000000000000000000010000000000000000000000000000000000000000000000000000000000000060000000000000000000000000000000000000000000000000000000000000001600030100110100000000000000000000000000030d400000000000000000000000000000000000000000000000000000000000000000000000000000000075e80000000000000000000000000000000000000000000000000000000000000002000000000000000000000000000000000000000000000000000000000000006000000000000000000000000000000000000000000000000000000000000000160003010011010000000000000000000000000003d09000000000000000000000000000000000000000000000000000000000000000000000000000000000769a00000000000000000000000000000000000000000000000000000000000000010000000000000000000000000000000000000000000000000000000000000060000000000000000000000000000000000000000000000000000000000000001600030100110100000000000000000000000000030d4000000000000000000000000000000000000000000000000000000000000000000000000000000000769a0000000000000000000000000000000000000000000000000000000000000002000000000000000000000000000000000000000000000000000000000000006000000000000000000000000000000000000000000000000000000000000000160003010011010000000000000000000000000003d0900000000000000000000000000000000000000000000000000000000000000000000000000000000075e700000000000000000000000000000000000000000000000000000000000000010000000000000000000000000000000000000000000000000000000000000060000000000000000000000000000000000000000000000000000000000000001600030100110100000000000000000000000000030d400000000000000000000000000000000000000000000000000000000000000000000000000000000075e70000000000000000000000000000000000000000000000000000000000000002000000000000000000000000000000000000000000000000000000000000006000000000000000000000000000000000000000000000000000000000000000160003010011010000000000000000000000000003d09000000000000000000000000000000000000000000000000000000000000000000000000000000000766f00000000000000000000000000000000000000000000000000000000000000010000000000000000000000000000000000000000000000000000000000000060000000000000000000000000000000000000000000000000000000000000001600030100110100000000000000000000000000030d4000000000000000000000000000000000000000000000000000000000000000000000000000000000766f0000000000000000000000000000000000000000000000000000000000000002000000000000000000000000000000000000000000000000000000000000006000000000000000000000000000000000000000000000000000000000000000160003010011010000000000000000000000000003d09000000000000000000000000000000000000000000000000000000000000000000000000000000000767000000000000000000000000000000000000000000000000000000000000000010000000000000000000000000000000000000000000000000000000000000060000000000000000000000000000000000000000000000000000000000000001600030100110100000000000000000000000000030d400000000000000000000000000000000000000000000000000000000000000000000000000000000076700000000000000000000000000000000000000000000000000000000000000002000000000000000000000000000000000000000000000000000000000000006000000000000000000000000000000000000000000000000000000000000000160003010011010000000000000000000000000003d0900000000000000000000000000000000000000000000000000000000000000000000000000000000076a200000000000000000000000000000000000000000000000000000000000000010000000000000000000000000000000000000000000000000000000000000060000000000000000000000000000000000000000000000000000000000000001600030100110100000000000000000000000000030d400000000000000000000000000000000000000000000000000000000000000000000000000000000076a20000000000000000000000000000000000000000000000000000000000000002000000000000000000000000000000000000000000000000000000000000006000000000000000000000000000000000000000000000000000000000000000160003010011010000000000000000000000000003d0900000000000000000000000000000000000000000000000000000000000000000000000000000000076a800000000000000000000000000000000000000000000000000000000000000010000000000000000000000000000000000000000000000000000000000000060000000000000000000000000000000000000000000000000000000000000001600030100110100000000000000000000000000030d400000000000000000000000000000000000000000000000000000000000000000000000000000000076a80000000000000000000000000000000000000000000000000000000000000002000000000000000000000000000000000000000000000000000000000000006000000000000000000000000000000000000000000000000000000000000000160003010011010000000000000000000000000003d0900000000000000000000000000000000000000000000000000000000000000000000000000000000076a700000000000000000000000000000000000000000000000000000000000000010000000000000000000000000000000000000000000000000000000000000060000000000000000000000000000000000000000000000000000000000000001600030100110100000000000000000000000000030d400000000000000000000000000000000000000000000000000000000000000000000000000000000076a70000000000000000000000000000000000000000000000000000000000000002000000000000000000000000000000000000000000000000000000000000006000000000000000000000000000000000000000000000000000000000000000160003010011010000000000000000000000000003d09000000000000000000000000000000000000000000000000000000000000000000000000000000000760300000000000000000000000000000000000000000000000000000000000000010000000000000000000000000000000000000000000000000000000000000060000000000000000000000000000000000000000000000000000000000000001600030100110100000000000000000000000000030d400000000000000000000000000000000000000000000000000000000000000000000000000000000076030000000000000000000000000000000000000000000000000000000000000002000000000000000000000000000000000000000000000000000000000000006000000000000000000000000000000000000000000000000000000000000000160003010011010000000000000000000000000003d09000000000000000000000000000000000000000000000000000000000000000000000000000000000760600000000000000000000000000000000000000000000000000000000000000010000000000000000000000000000000000000000000000000000000000000060000000000000000000000000000000000000000000000000000000000000001600030100110100000000000000000000000000030d400000000000000000000000000000000000000000000000000000000000000000000000000000000076060000000000000000000000000000000000000000000000000000000000000002000000000000000000000000000000000000000000000000000000000000006000000000000000000000000000000000000000000000000000000000000000160003010011010000000000000000000000000003d09000000000000000000000000000000000000000000000000000000000000000000000000000000000769f00000000000000000000000000000000000000000000000000000000000000010000000000000000000000000000000000000000000000000000000000000060000000000000000000000000000000000000000000000000000000000000001600030100110100000000000000000000000000030d4000000000000000000000000000000000000000000000000000000000000000000000000000000000769f0000000000000000000000000000000000000000000000000000000000000002000000000000000000000000000000000000000000000000000000000000006000000000000000000000000000000000000000000000000000000000000000160003010011010000000000000000000000000003d0900000000000000000000000000000000000000000000000000000000000000000000000000000000076b600000000000000000000000000000000000000000000000000000000000000010000000000000000000000000000000000000000000000000000000000000060000000000000000000000000000000000000000000000000000000000000001600030100110100000000000000000000000000030d400000000000000000000000000000000000000000000000000000000000000000000000000000000076b60000000000000000000000000000000000000000000000000000000000000002000000000000000000000000000000000000000000000000000000000000006000000000000000000000000000000000000000000000000000000000000000160003010011010000000000000000000000000003d0900000000000000000000000000000000000000000000000000000000000000000000000000000000076bc00000000000000000000000000000000000000000000000000000000000000010000000000000000000000000000000000000000000000000000000000000060000000000000000000000000000000000000000000000000000000000000001600030100110100000000000000000000000000030d400000000000000000000000000000000000000000000000000000000000000000000000000000000076bc0000000000000000000000000000000000000000000000000000000000000002000000000000000000000000000000000000000000000000000000000000006000000000000000000000000000000000000000000000000000000000000000160003010011010000000000000000000000000003d0900000000000000000000000000000000000000000000000000000000000000000000000000000000076ca00000000000000000000000000000000000000000000000000000000000000010000000000000000000000000000000000000000000000000000000000000060000000000000000000000000000000000000000000000000000000000000001600030100110100000000000000000000000000030d400000000000000000000000000000000000000000000000000000000000000000000000000000000076ca0000000000000000000000000000000000000000000000000000000000000002000000000000000000000000000000000000000000000000000000000000006000000000000000000000000000000000000000000000000000000000000000160003010011010000000000000000000000000003d09000000000000000000000000000000000000000000000000000000000000000000000000000000000767400000000000000000000000000000000000000000000000000000000000000010000000000000000000000000000000000000000000000000000000000000060000000000000000000000000000000000000000000000000000000000000001600030100110100000000000000000000000000030d400000000000000000000000000000000000000000000000000000000000000000000000000000000076740000000000000000000000000000000000000000000000000000000000000002000000000000000000000000000000000000000000000000000000000000006000000000000000000000000000000000000000000000000000000000000000160003010011010000000000000000000000000003d0900000000000000000000000000000000000000000000000000000000000000000000000000000000075d500000000000000000000000000000000000000000000000000000000000000010000000000000000000000000000000000000000000000000000000000000060000000000000000000000000000000000000000000000000000000000000001600030100110100000000000000000000000000030d400000000000000000000000000000000000000000000000000000000000000000000000000000000075d50000000000000000000000000000000000000000000000000000000000000002000000000000000000000000000000000000000000000000000000000000006000000000000000000000000000000000000000000000000000000000000000160003010011010000000000000000000000000003d09000000000000000000000",
        "nonce": "0xef",
        "chainId": "0xfc"
      },
      "additionalContracts": [],
      "isFixedGasLimit": false
    },
    {
      "hash": "0xa410e750aff1181c385eb804570bc66358a6a0fc3ed063df9451c3b2d7168f91",
      "transactionType": "CALL",
      "contractName": "TransparentUpgradeableProxy",
      "contractAddress": "0x57558cb8d6005de0bae8a2789d5efaae52dba5a8",
      "function": null,
      "arguments": null,
      "transaction": {
        "from": "0x45dce8e4f2dc005a5f28206a46cb034697eeda8e",
        "to": "0x57558cb8d6005de0bae8a2789d5efaae52dba5a8",
        "gas": "0x13a13",
        "value": "0x0",
        "input": "0x3400288b00000000000000000000000000000000000000000000000000000000000076b600000000000000000000000057558cb8d6005de0bae8a2789d5efaae52dba5a8",
        "nonce": "0xf0",
        "chainId": "0xfc"
      },
      "additionalContracts": [],
      "isFixedGasLimit": false
    },
    {
      "hash": "0x1791dd7170ddc6dd84499336b9f816e0b1fee216da3814dabbf5474600792c69",
      "transactionType": "CALL",
      "contractName": "TransparentUpgradeableProxy",
      "contractAddress": "0x57558cb8d6005de0bae8a2789d5efaae52dba5a8",
      "function": null,
      "arguments": null,
      "transaction": {
        "from": "0x45dce8e4f2dc005a5f28206a46cb034697eeda8e",
        "to": "0x57558cb8d6005de0bae8a2789d5efaae52dba5a8",
        "gas": "0x13a13",
        "value": "0x0",
        "input": "0x3400288b00000000000000000000000000000000000000000000000000000000000076bc00000000000000000000000057558cb8d6005de0bae8a2789d5efaae52dba5a8",
        "nonce": "0xf1",
        "chainId": "0xfc"
      },
      "additionalContracts": [],
      "isFixedGasLimit": false
    },
    {
      "hash": "0xdb0c35cae4fb929aa19b98f7ad1bacdfb6c0955937d288d4c2df6683174cff98",
      "transactionType": "CALL",
      "contractName": "TransparentUpgradeableProxy",
      "contractAddress": "0x57558cb8d6005de0bae8a2789d5efaae52dba5a8",
      "function": null,
      "arguments": null,
      "transaction": {
        "from": "0x45dce8e4f2dc005a5f28206a46cb034697eeda8e",
        "to": "0x57558cb8d6005de0bae8a2789d5efaae52dba5a8",
        "gas": "0x13a13",
        "value": "0x0",
        "input": "0x3400288b00000000000000000000000000000000000000000000000000000000000076ca00000000000000000000000057558cb8d6005de0bae8a2789d5efaae52dba5a8",
        "nonce": "0xf2",
        "chainId": "0xfc"
      },
      "additionalContracts": [],
      "isFixedGasLimit": false
    },
    {
      "hash": "0x90d432b103ecb6f40c2df7cf68a08824427de3f3e94c95c78af3d825cb92ba85",
      "transactionType": "CALL",
      "contractName": "EndpointV2",
      "contractAddress": "0x1a44076050125825900e736c501f859c50fe728c",
      "function": "setConfig(address,address,(uint32,uint32,bytes)[])",
      "arguments": [
        "0x57558Cb8d6005DE0BAe8a2789d5EfaaE52dba5a8",
        "0x377530cdA84DFb2673bF4d145DCF0C4D7fdcB5b6",
        "[(30390, 2, 0x0000000000000000000000000000000000000000000000000000000000000020000000000000000000000000000000000000000000000000000000000000000000000000000000000000000000000000000000000000000000000000000000030000000000000000000000000000000000000000000000000000000000000000000000000000000000000000000000000000000000000000000000000000000000000000000000000000000000000000000000000000000000000000000000c00000000000000000000000000000000000000000000000000000000000000140000000000000000000000000000000000000000000000000000000000000000300000000000000000000000026cd5abadf7ec3f0f02b48314bfca6b2342cddd4000000000000000000000000cce466a522984415bc91338c232d98869193d46e000000000000000000000000dd7b5e1db4aafd5c8ec3b764efb8ed265aa5445b0000000000000000000000000000000000000000000000000000000000000000)]"
      ],
      "transaction": {
        "from": "0x45dce8e4f2dc005a5f28206a46cb034697eeda8e",
        "to": "0x1a44076050125825900e736c501f859c50fe728c",
        "gas": "0x3a0bd",
        "value": "0x0",
        "input": "0x6dbd9f9000000000000000000000000057558cb8d6005de0bae8a2789d5efaae52dba5a8000000000000000000000000377530cda84dfb2673bf4d145dcf0c4d7fdcb5b600000000000000000000000000000000000000000000000000000000000000600000000000000000000000000000000000000000000000000000000000000001000000000000000000000000000000000000000000000000000000000000002000000000000000000000000000000000000000000000000000000000000076b60000000000000000000000000000000000000000000000000000000000000002000000000000000000000000000000000000000000000000000000000000006000000000000000000000000000000000000000000000000000000000000001800000000000000000000000000000000000000000000000000000000000000020000000000000000000000000000000000000000000000000000000000000000000000000000000000000000000000000000000000000000000000000000000030000000000000000000000000000000000000000000000000000000000000000000000000000000000000000000000000000000000000000000000000000000000000000000000000000000000000000000000000000000000000000000000c00000000000000000000000000000000000000000000000000000000000000140000000000000000000000000000000000000000000000000000000000000000300000000000000000000000026cd5abadf7ec3f0f02b48314bfca6b2342cddd4000000000000000000000000cce466a522984415bc91338c232d98869193d46e000000000000000000000000dd7b5e1db4aafd5c8ec3b764efb8ed265aa5445b0000000000000000000000000000000000000000000000000000000000000000",
        "nonce": "0xf3",
        "chainId": "0xfc"
      },
      "additionalContracts": [],
      "isFixedGasLimit": false
    },
    {
      "hash": "0x2e460d1d4ab6f02874bbcfa9100fd557d19f9be9745bc70e7d380abae296635b",
      "transactionType": "CALL",
      "contractName": "EndpointV2",
      "contractAddress": "0x1a44076050125825900e736c501f859c50fe728c",
      "function": "setConfig(address,address,(uint32,uint32,bytes)[])",
      "arguments": [
        "0x57558Cb8d6005DE0BAe8a2789d5EfaaE52dba5a8",
        "0x8bC1e36F015b9902B54b1387A4d733cebc2f5A4e",
        "[(30390, 2, 0x0000000000000000000000000000000000000000000000000000000000000020000000000000000000000000000000000000000000000000000000000000000000000000000000000000000000000000000000000000000000000000000000030000000000000000000000000000000000000000000000000000000000000000000000000000000000000000000000000000000000000000000000000000000000000000000000000000000000000000000000000000000000000000000000c00000000000000000000000000000000000000000000000000000000000000140000000000000000000000000000000000000000000000000000000000000000300000000000000000000000026cd5abadf7ec3f0f02b48314bfca6b2342cddd4000000000000000000000000cce466a522984415bc91338c232d98869193d46e000000000000000000000000dd7b5e1db4aafd5c8ec3b764efb8ed265aa5445b0000000000000000000000000000000000000000000000000000000000000000)]"
      ],
      "transaction": {
        "from": "0x45dce8e4f2dc005a5f28206a46cb034697eeda8e",
        "to": "0x1a44076050125825900e736c501f859c50fe728c",
        "gas": "0x39f54",
        "value": "0x0",
        "input": "0x6dbd9f9000000000000000000000000057558cb8d6005de0bae8a2789d5efaae52dba5a80000000000000000000000008bc1e36f015b9902b54b1387a4d733cebc2f5a4e00000000000000000000000000000000000000000000000000000000000000600000000000000000000000000000000000000000000000000000000000000001000000000000000000000000000000000000000000000000000000000000002000000000000000000000000000000000000000000000000000000000000076b60000000000000000000000000000000000000000000000000000000000000002000000000000000000000000000000000000000000000000000000000000006000000000000000000000000000000000000000000000000000000000000001800000000000000000000000000000000000000000000000000000000000000020000000000000000000000000000000000000000000000000000000000000000000000000000000000000000000000000000000000000000000000000000000030000000000000000000000000000000000000000000000000000000000000000000000000000000000000000000000000000000000000000000000000000000000000000000000000000000000000000000000000000000000000000000000c00000000000000000000000000000000000000000000000000000000000000140000000000000000000000000000000000000000000000000000000000000000300000000000000000000000026cd5abadf7ec3f0f02b48314bfca6b2342cddd4000000000000000000000000cce466a522984415bc91338c232d98869193d46e000000000000000000000000dd7b5e1db4aafd5c8ec3b764efb8ed265aa5445b0000000000000000000000000000000000000000000000000000000000000000",
        "nonce": "0xf4",
        "chainId": "0xfc"
      },
      "additionalContracts": [],
      "isFixedGasLimit": false
    },
    {
      "hash": "0x8320ff9ed32f2bde190842778376a29bea01adffe49d7144ac7428861edfde1e",
      "transactionType": "CALL",
      "contractName": "EndpointV2",
      "contractAddress": "0x1a44076050125825900e736c501f859c50fe728c",
      "function": "setConfig(address,address,(uint32,uint32,bytes)[])",
      "arguments": [
        "0x57558Cb8d6005DE0BAe8a2789d5EfaaE52dba5a8",
        "0x377530cdA84DFb2673bF4d145DCF0C4D7fdcB5b6",
        "[(30396, 2, 0x0000000000000000000000000000000000000000000000000000000000000020000000000000000000000000000000000000000000000000000000000000000000000000000000000000000000000000000000000000000000000000000000030000000000000000000000000000000000000000000000000000000000000000000000000000000000000000000000000000000000000000000000000000000000000000000000000000000000000000000000000000000000000000000000c00000000000000000000000000000000000000000000000000000000000000140000000000000000000000000000000000000000000000000000000000000000300000000000000000000000026cd5abadf7ec3f0f02b48314bfca6b2342cddd4000000000000000000000000cce466a522984415bc91338c232d98869193d46e000000000000000000000000dd7b5e1db4aafd5c8ec3b764efb8ed265aa5445b0000000000000000000000000000000000000000000000000000000000000000)]"
      ],
      "transaction": {
        "from": "0x45dce8e4f2dc005a5f28206a46cb034697eeda8e",
        "to": "0x1a44076050125825900e736c501f859c50fe728c",
        "gas": "0x3a0bd",
        "value": "0x0",
        "input": "0x6dbd9f9000000000000000000000000057558cb8d6005de0bae8a2789d5efaae52dba5a8000000000000000000000000377530cda84dfb2673bf4d145dcf0c4d7fdcb5b600000000000000000000000000000000000000000000000000000000000000600000000000000000000000000000000000000000000000000000000000000001000000000000000000000000000000000000000000000000000000000000002000000000000000000000000000000000000000000000000000000000000076bc0000000000000000000000000000000000000000000000000000000000000002000000000000000000000000000000000000000000000000000000000000006000000000000000000000000000000000000000000000000000000000000001800000000000000000000000000000000000000000000000000000000000000020000000000000000000000000000000000000000000000000000000000000000000000000000000000000000000000000000000000000000000000000000000030000000000000000000000000000000000000000000000000000000000000000000000000000000000000000000000000000000000000000000000000000000000000000000000000000000000000000000000000000000000000000000000c00000000000000000000000000000000000000000000000000000000000000140000000000000000000000000000000000000000000000000000000000000000300000000000000000000000026cd5abadf7ec3f0f02b48314bfca6b2342cddd4000000000000000000000000cce466a522984415bc91338c232d98869193d46e000000000000000000000000dd7b5e1db4aafd5c8ec3b764efb8ed265aa5445b0000000000000000000000000000000000000000000000000000000000000000",
        "nonce": "0xf5",
        "chainId": "0xfc"
      },
      "additionalContracts": [],
      "isFixedGasLimit": false
    },
    {
      "hash": "0x3c7503962cddcb54b607cbc9a6d592456406f037614c64ae3c469c647a470f37",
      "transactionType": "CALL",
      "contractName": "EndpointV2",
      "contractAddress": "0x1a44076050125825900e736c501f859c50fe728c",
      "function": "setConfig(address,address,(uint32,uint32,bytes)[])",
      "arguments": [
        "0x57558Cb8d6005DE0BAe8a2789d5EfaaE52dba5a8",
        "0x8bC1e36F015b9902B54b1387A4d733cebc2f5A4e",
        "[(30396, 2, 0x0000000000000000000000000000000000000000000000000000000000000020000000000000000000000000000000000000000000000000000000000000000000000000000000000000000000000000000000000000000000000000000000030000000000000000000000000000000000000000000000000000000000000000000000000000000000000000000000000000000000000000000000000000000000000000000000000000000000000000000000000000000000000000000000c00000000000000000000000000000000000000000000000000000000000000140000000000000000000000000000000000000000000000000000000000000000300000000000000000000000026cd5abadf7ec3f0f02b48314bfca6b2342cddd4000000000000000000000000cce466a522984415bc91338c232d98869193d46e000000000000000000000000dd7b5e1db4aafd5c8ec3b764efb8ed265aa5445b0000000000000000000000000000000000000000000000000000000000000000)]"
      ],
      "transaction": {
        "from": "0x45dce8e4f2dc005a5f28206a46cb034697eeda8e",
        "to": "0x1a44076050125825900e736c501f859c50fe728c",
        "gas": "0x39f54",
        "value": "0x0",
        "input": "0x6dbd9f9000000000000000000000000057558cb8d6005de0bae8a2789d5efaae52dba5a80000000000000000000000008bc1e36f015b9902b54b1387a4d733cebc2f5a4e00000000000000000000000000000000000000000000000000000000000000600000000000000000000000000000000000000000000000000000000000000001000000000000000000000000000000000000000000000000000000000000002000000000000000000000000000000000000000000000000000000000000076bc0000000000000000000000000000000000000000000000000000000000000002000000000000000000000000000000000000000000000000000000000000006000000000000000000000000000000000000000000000000000000000000001800000000000000000000000000000000000000000000000000000000000000020000000000000000000000000000000000000000000000000000000000000000000000000000000000000000000000000000000000000000000000000000000030000000000000000000000000000000000000000000000000000000000000000000000000000000000000000000000000000000000000000000000000000000000000000000000000000000000000000000000000000000000000000000000c00000000000000000000000000000000000000000000000000000000000000140000000000000000000000000000000000000000000000000000000000000000300000000000000000000000026cd5abadf7ec3f0f02b48314bfca6b2342cddd4000000000000000000000000cce466a522984415bc91338c232d98869193d46e000000000000000000000000dd7b5e1db4aafd5c8ec3b764efb8ed265aa5445b0000000000000000000000000000000000000000000000000000000000000000",
        "nonce": "0xf6",
        "chainId": "0xfc"
      },
      "additionalContracts": [],
      "isFixedGasLimit": false
    },
    {
      "hash": "0x1d46ecfd2e0bd0607db6229f96f1d42370da14d416d4cfa15bac5cd51ca35330",
      "transactionType": "CALL",
      "contractName": "EndpointV2",
      "contractAddress": "0x1a44076050125825900e736c501f859c50fe728c",
      "function": "setConfig(address,address,(uint32,uint32,bytes)[])",
      "arguments": [
        "0x57558Cb8d6005DE0BAe8a2789d5EfaaE52dba5a8",
        "0x377530cdA84DFb2673bF4d145DCF0C4D7fdcB5b6",
        "[(30410, 2, 0x0000000000000000000000000000000000000000000000000000000000000020000000000000000000000000000000000000000000000000000000000000000000000000000000000000000000000000000000000000000000000000000000030000000000000000000000000000000000000000000000000000000000000000000000000000000000000000000000000000000000000000000000000000000000000000000000000000000000000000000000000000000000000000000000c00000000000000000000000000000000000000000000000000000000000000140000000000000000000000000000000000000000000000000000000000000000300000000000000000000000026cd5abadf7ec3f0f02b48314bfca6b2342cddd4000000000000000000000000cce466a522984415bc91338c232d98869193d46e000000000000000000000000dd7b5e1db4aafd5c8ec3b764efb8ed265aa5445b0000000000000000000000000000000000000000000000000000000000000000)]"
      ],
      "transaction": {
        "from": "0x45dce8e4f2dc005a5f28206a46cb034697eeda8e",
        "to": "0x1a44076050125825900e736c501f859c50fe728c",
        "gas": "0x3a0bd",
        "value": "0x0",
        "input": "0x6dbd9f9000000000000000000000000057558cb8d6005de0bae8a2789d5efaae52dba5a8000000000000000000000000377530cda84dfb2673bf4d145dcf0c4d7fdcb5b600000000000000000000000000000000000000000000000000000000000000600000000000000000000000000000000000000000000000000000000000000001000000000000000000000000000000000000000000000000000000000000002000000000000000000000000000000000000000000000000000000000000076ca0000000000000000000000000000000000000000000000000000000000000002000000000000000000000000000000000000000000000000000000000000006000000000000000000000000000000000000000000000000000000000000001800000000000000000000000000000000000000000000000000000000000000020000000000000000000000000000000000000000000000000000000000000000000000000000000000000000000000000000000000000000000000000000000030000000000000000000000000000000000000000000000000000000000000000000000000000000000000000000000000000000000000000000000000000000000000000000000000000000000000000000000000000000000000000000000c00000000000000000000000000000000000000000000000000000000000000140000000000000000000000000000000000000000000000000000000000000000300000000000000000000000026cd5abadf7ec3f0f02b48314bfca6b2342cddd4000000000000000000000000cce466a522984415bc91338c232d98869193d46e000000000000000000000000dd7b5e1db4aafd5c8ec3b764efb8ed265aa5445b0000000000000000000000000000000000000000000000000000000000000000",
        "nonce": "0xf7",
        "chainId": "0xfc"
      },
      "additionalContracts": [],
      "isFixedGasLimit": false
    },
    {
      "hash": "0x9c606277ba9179a247c8e8618181233769892097e4fc94556a88879e5db7e744",
      "transactionType": "CALL",
      "contractName": "EndpointV2",
      "contractAddress": "0x1a44076050125825900e736c501f859c50fe728c",
      "function": "setConfig(address,address,(uint32,uint32,bytes)[])",
      "arguments": [
        "0x57558Cb8d6005DE0BAe8a2789d5EfaaE52dba5a8",
        "0x8bC1e36F015b9902B54b1387A4d733cebc2f5A4e",
        "[(30410, 2, 0x0000000000000000000000000000000000000000000000000000000000000020000000000000000000000000000000000000000000000000000000000000000000000000000000000000000000000000000000000000000000000000000000030000000000000000000000000000000000000000000000000000000000000000000000000000000000000000000000000000000000000000000000000000000000000000000000000000000000000000000000000000000000000000000000c00000000000000000000000000000000000000000000000000000000000000140000000000000000000000000000000000000000000000000000000000000000300000000000000000000000026cd5abadf7ec3f0f02b48314bfca6b2342cddd4000000000000000000000000cce466a522984415bc91338c232d98869193d46e000000000000000000000000dd7b5e1db4aafd5c8ec3b764efb8ed265aa5445b0000000000000000000000000000000000000000000000000000000000000000)]"
      ],
      "transaction": {
        "from": "0x45dce8e4f2dc005a5f28206a46cb034697eeda8e",
        "to": "0x1a44076050125825900e736c501f859c50fe728c",
        "gas": "0x39f54",
        "value": "0x0",
        "input": "0x6dbd9f9000000000000000000000000057558cb8d6005de0bae8a2789d5efaae52dba5a80000000000000000000000008bc1e36f015b9902b54b1387a4d733cebc2f5a4e00000000000000000000000000000000000000000000000000000000000000600000000000000000000000000000000000000000000000000000000000000001000000000000000000000000000000000000000000000000000000000000002000000000000000000000000000000000000000000000000000000000000076ca0000000000000000000000000000000000000000000000000000000000000002000000000000000000000000000000000000000000000000000000000000006000000000000000000000000000000000000000000000000000000000000001800000000000000000000000000000000000000000000000000000000000000020000000000000000000000000000000000000000000000000000000000000000000000000000000000000000000000000000000000000000000000000000000030000000000000000000000000000000000000000000000000000000000000000000000000000000000000000000000000000000000000000000000000000000000000000000000000000000000000000000000000000000000000000000000c00000000000000000000000000000000000000000000000000000000000000140000000000000000000000000000000000000000000000000000000000000000300000000000000000000000026cd5abadf7ec3f0f02b48314bfca6b2342cddd4000000000000000000000000cce466a522984415bc91338c232d98869193d46e000000000000000000000000dd7b5e1db4aafd5c8ec3b764efb8ed265aa5445b0000000000000000000000000000000000000000000000000000000000000000",
        "nonce": "0xf8",
        "chainId": "0xfc"
      },
      "additionalContracts": [],
      "isFixedGasLimit": false
    },
    {
      "hash": "0x2191f71febc6f40251a8b375e1a75bacfe2414fed09c59038e82fad6e1b9c245",
      "transactionType": "CALL",
      "contractName": "EndpointV2",
      "contractAddress": "0x1a44076050125825900e736c501f859c50fe728c",
      "function": "setSendLibrary(address,uint32,address)",
      "arguments": [
        "0x57558Cb8d6005DE0BAe8a2789d5EfaaE52dba5a8",
        "30390",
        "0x377530cdA84DFb2673bF4d145DCF0C4D7fdcB5b6"
      ],
      "transaction": {
        "from": "0x45dce8e4f2dc005a5f28206a46cb034697eeda8e",
        "to": "0x1a44076050125825900e736c501f859c50fe728c",
        "gas": "0x149cd",
        "value": "0x0",
        "input": "0x9535ff3000000000000000000000000057558cb8d6005de0bae8a2789d5efaae52dba5a800000000000000000000000000000000000000000000000000000000000076b6000000000000000000000000377530cda84dfb2673bf4d145dcf0c4d7fdcb5b6",
        "nonce": "0xf9",
        "chainId": "0xfc"
      },
      "additionalContracts": [],
      "isFixedGasLimit": false
    },
    {
      "hash": "0x2655340b68e44b36eb4bdb29d02202e0370ee16bbec9fe924b3e5a58c97e474d",
      "transactionType": "CALL",
      "contractName": "EndpointV2",
      "contractAddress": "0x1a44076050125825900e736c501f859c50fe728c",
      "function": "setReceiveLibrary(address,uint32,address,uint256)",
      "arguments": [
        "0x57558Cb8d6005DE0BAe8a2789d5EfaaE52dba5a8",
        "30390",
        "0x8bC1e36F015b9902B54b1387A4d733cebc2f5A4e",
        "0"
      ],
      "transaction": {
        "from": "0x45dce8e4f2dc005a5f28206a46cb034697eeda8e",
        "to": "0x1a44076050125825900e736c501f859c50fe728c",
        "gas": "0x15b7f",
        "value": "0x0",
        "input": "0x6a14d71500000000000000000000000057558cb8d6005de0bae8a2789d5efaae52dba5a800000000000000000000000000000000000000000000000000000000000076b60000000000000000000000008bc1e36f015b9902b54b1387a4d733cebc2f5a4e0000000000000000000000000000000000000000000000000000000000000000",
        "nonce": "0xfa",
        "chainId": "0xfc"
      },
      "additionalContracts": [],
      "isFixedGasLimit": false
    },
    {
      "hash": "0xdc76375d5eb4fa0568f97cea7e2f25477dda57ecf4db2392d173717401f8e382",
      "transactionType": "CALL",
      "contractName": "EndpointV2",
      "contractAddress": "0x1a44076050125825900e736c501f859c50fe728c",
      "function": "setSendLibrary(address,uint32,address)",
      "arguments": [
        "0x57558Cb8d6005DE0BAe8a2789d5EfaaE52dba5a8",
        "30396",
        "0x377530cdA84DFb2673bF4d145DCF0C4D7fdcB5b6"
      ],
      "transaction": {
        "from": "0x45dce8e4f2dc005a5f28206a46cb034697eeda8e",
        "to": "0x1a44076050125825900e736c501f859c50fe728c",
        "gas": "0x149cd",
        "value": "0x0",
        "input": "0x9535ff3000000000000000000000000057558cb8d6005de0bae8a2789d5efaae52dba5a800000000000000000000000000000000000000000000000000000000000076bc000000000000000000000000377530cda84dfb2673bf4d145dcf0c4d7fdcb5b6",
        "nonce": "0xfb",
        "chainId": "0xfc"
      },
      "additionalContracts": [],
      "isFixedGasLimit": false
    },
    {
      "hash": "0xa116e3a51f768f0caa312ea190e4f75fe27c47e6d97ae98bb453cefeff8c32eb",
      "transactionType": "CALL",
      "contractName": "EndpointV2",
      "contractAddress": "0x1a44076050125825900e736c501f859c50fe728c",
      "function": "setReceiveLibrary(address,uint32,address,uint256)",
      "arguments": [
        "0x57558Cb8d6005DE0BAe8a2789d5EfaaE52dba5a8",
        "30396",
        "0x8bC1e36F015b9902B54b1387A4d733cebc2f5A4e",
        "0"
      ],
      "transaction": {
        "from": "0x45dce8e4f2dc005a5f28206a46cb034697eeda8e",
        "to": "0x1a44076050125825900e736c501f859c50fe728c",
        "gas": "0x15b7f",
        "value": "0x0",
        "input": "0x6a14d71500000000000000000000000057558cb8d6005de0bae8a2789d5efaae52dba5a800000000000000000000000000000000000000000000000000000000000076bc0000000000000000000000008bc1e36f015b9902b54b1387a4d733cebc2f5a4e0000000000000000000000000000000000000000000000000000000000000000",
        "nonce": "0xfc",
        "chainId": "0xfc"
      },
      "additionalContracts": [],
      "isFixedGasLimit": false
    },
    {
      "hash": "0xb8ae26eec4960afc695c5a509414b2c36aff6da940eaae29f2a3eec3438402c4",
      "transactionType": "CALL",
      "contractName": "EndpointV2",
      "contractAddress": "0x1a44076050125825900e736c501f859c50fe728c",
      "function": "setSendLibrary(address,uint32,address)",
      "arguments": [
        "0x57558Cb8d6005DE0BAe8a2789d5EfaaE52dba5a8",
        "30410",
        "0x377530cdA84DFb2673bF4d145DCF0C4D7fdcB5b6"
      ],
      "transaction": {
        "from": "0x45dce8e4f2dc005a5f28206a46cb034697eeda8e",
        "to": "0x1a44076050125825900e736c501f859c50fe728c",
        "gas": "0x149cd",
        "value": "0x0",
        "input": "0x9535ff3000000000000000000000000057558cb8d6005de0bae8a2789d5efaae52dba5a800000000000000000000000000000000000000000000000000000000000076ca000000000000000000000000377530cda84dfb2673bf4d145dcf0c4d7fdcb5b6",
        "nonce": "0xfd",
        "chainId": "0xfc"
      },
      "additionalContracts": [],
      "isFixedGasLimit": false
    },
    {
      "hash": "0xbcd3c63db43126b2cb2348ac9671ab18d03fd8103dd01f3603eb5cf1bc03b264",
      "transactionType": "CALL",
      "contractName": "EndpointV2",
      "contractAddress": "0x1a44076050125825900e736c501f859c50fe728c",
      "function": "setReceiveLibrary(address,uint32,address,uint256)",
      "arguments": [
        "0x57558Cb8d6005DE0BAe8a2789d5EfaaE52dba5a8",
        "30410",
        "0x8bC1e36F015b9902B54b1387A4d733cebc2f5A4e",
        "0"
      ],
      "transaction": {
        "from": "0x45dce8e4f2dc005a5f28206a46cb034697eeda8e",
        "to": "0x1a44076050125825900e736c501f859c50fe728c",
        "gas": "0x15b7f",
        "value": "0x0",
        "input": "0x6a14d71500000000000000000000000057558cb8d6005de0bae8a2789d5efaae52dba5a800000000000000000000000000000000000000000000000000000000000076ca0000000000000000000000008bc1e36f015b9902b54b1387a4d733cebc2f5a4e0000000000000000000000000000000000000000000000000000000000000000",
        "nonce": "0xfe",
        "chainId": "0xfc"
      },
      "additionalContracts": [],
      "isFixedGasLimit": false
    }
  ],
  "receipts": [
    {
      "status": "0x1",
      "cumulativeGasUsed": "0x9c6bf",
      "logs": [
        {
          "address": "0x57558cb8d6005de0bae8a2789d5efaae52dba5a8",
          "topics": [
            "0xbe4864a8e820971c0247f5992e2da559595f7bf076a21cb5928d443d2a13b674"
          ],
          "data": "0x0000000000000000000000000000000000000000000000000000000000000020000000000000000000000000000000000000000000000000000000000000003a000000000000000000000000000000000000000000000000000000000000074000000000000000000000000000000000000000000000000000000000000007e00000000000000000000000000000000000000000000000000000000000000880000000000000000000000000000000000000000000000000000000000000092000000000000000000000000000000000000000000000000000000000000009c00000000000000000000000000000000000000000000000000000000000000a600000000000000000000000000000000000000000000000000000000000000b000000000000000000000000000000000000000000000000000000000000000ba00000000000000000000000000000000000000000000000000000000000000c400000000000000000000000000000000000000000000000000000000000000ce00000000000000000000000000000000000000000000000000000000000000d800000000000000000000000000000000000000000000000000000000000000e200000000000000000000000000000000000000000000000000000000000000ec00000000000000000000000000000000000000000000000000000000000000f60000000000000000000000000000000000000000000000000000000000000100000000000000000000000000000000000000000000000000000000000000010a0000000000000000000000000000000000000000000000000000000000000114000000000000000000000000000000000000000000000000000000000000011e00000000000000000000000000000000000000000000000000000000000001280000000000000000000000000000000000000000000000000000000000000132000000000000000000000000000000000000000000000000000000000000013c00000000000000000000000000000000000000000000000000000000000001460000000000000000000000000000000000000000000000000000000000000150000000000000000000000000000000000000000000000000000000000000015a0000000000000000000000000000000000000000000000000000000000000164000000000000000000000000000000000000000000000000000000000000016e00000000000000000000000000000000000000000000000000000000000001780000000000000000000000000000000000000000000000000000000000000182000000000000000000000000000000000000000000000000000000000000018c000000000000000000000000000000000000000000000000000000000000019600000000000000000000000000000000000000000000000000000000000001a000000000000000000000000000000000000000000000000000000000000001aa00000000000000000000000000000000000000000000000000000000000001b400000000000000000000000000000000000000000000000000000000000001be00000000000000000000000000000000000000000000000000000000000001c800000000000000000000000000000000000000000000000000000000000001d200000000000000000000000000000000000000000000000000000000000001dc00000000000000000000000000000000000000000000000000000000000001e600000000000000000000000000000000000000000000000000000000000001f000000000000000000000000000000000000000000000000000000000000001fa0000000000000000000000000000000000000000000000000000000000000204000000000000000000000000000000000000000000000000000000000000020e00000000000000000000000000000000000000000000000000000000000002180000000000000000000000000000000000000000000000000000000000000222000000000000000000000000000000000000000000000000000000000000022c00000000000000000000000000000000000000000000000000000000000002360000000000000000000000000000000000000000000000000000000000000240000000000000000000000000000000000000000000000000000000000000024a0000000000000000000000000000000000000000000000000000000000000254000000000000000000000000000000000000000000000000000000000000025e00000000000000000000000000000000000000000000000000000000000002680000000000000000000000000000000000000000000000000000000000000272000000000000000000000000000000000000000000000000000000000000027c00000000000000000000000000000000000000000000000000000000000002860000000000000000000000000000000000000000000000000000000000000290000000000000000000000000000000000000000000000000000000000000029a00000000000000000000000000000000000000000000000000000000000002a400000000000000000000000000000000000000000000000000000000000002ae0000000000000000000000000000000000000000000000000000000000000763400000000000000000000000000000000000000000000000000000000000000010000000000000000000000000000000000000000000000000000000000000060000000000000000000000000000000000000000000000000000000000000001600030100110100000000000000000000000000030d400000000000000000000000000000000000000000000000000000000000000000000000000000000076340000000000000000000000000000000000000000000000000000000000000002000000000000000000000000000000000000000000000000000000000000006000000000000000000000000000000000000000000000000000000000000000160003010011010000000000000000000000000003d09000000000000000000000000000000000000000000000000000000000000000000000000000000000764800000000000000000000000000000000000000000000000000000000000000010000000000000000000000000000000000000000000000000000000000000060000000000000000000000000000000000000000000000000000000000000001600030100110100000000000000000000000000030d400000000000000000000000000000000000000000000000000000000000000000000000000000000076480000000000000000000000000000000000000000000000000000000000000002000000000000000000000000000000000000000000000000000000000000006000000000000000000000000000000000000000000000000000000000000000160003010011010000000000000000000000000003d09000000000000000000000000000000000000000000000000000000000000000000000000000000000764200000000000000000000000000000000000000000000000000000000000000010000000000000000000000000000000000000000000000000000000000000060000000000000000000000000000000000000000000000000000000000000001600030100110100000000000000000000000000030d400000000000000000000000000000000000000000000000000000000000000000000000000000000076420000000000000000000000000000000000000000000000000000000000000002000000000000000000000000000000000000000000000000000000000000006000000000000000000000000000000000000000000000000000000000000000160003010011010000000000000000000000000003d09000000000000000000000000000000000000000000000000000000000000000000000000000000000767c00000000000000000000000000000000000000000000000000000000000000010000000000000000000000000000000000000000000000000000000000000060000000000000000000000000000000000000000000000000000000000000001600030100110100000000000000000000000000030d4000000000000000000000000000000000000000000000000000000000000000000000000000000000767c0000000000000000000000000000000000000000000000000000000000000002000000000000000000000000000000000000000000000000000000000000006000000000000000000000000000000000000000000000000000000000000000160003010011010000000000000000000000000003d09000000000000000000000000000000000000000000000000000000000000000000000000000000000768300000000000000000000000000000000000000000000000000000000000000010000000000000000000000000000000000000000000000000000000000000060000000000000000000000000000000000000000000000000000000000000001600030100110100000000000000000000000000030d400000000000000000000000000000000000000000000000000000000000000000000000000000000076830000000000000000000000000000000000000000000000000000000000000002000000000000000000000000000000000000000000000000000000000000006000000000000000000000000000000000000000000000000000000000000000160003010011010000000000000000000000000003d09000000000000000000000000000000000000000000000000000000000000000000000000000000000759e00000000000000000000000000000000000000000000000000000000000000010000000000000000000000000000000000000000000000000000000000000060000000000000000000000000000000000000000000000000000000000000001600030100110100000000000000000000000000030d4000000000000000000000000000000000000000000000000000000000000000000000000000000000759e0000000000000000000000000000000000000000000000000000000000000002000000000000000000000000000000000000000000000000000000000000006000000000000000000000000000000000000000000000000000000000000000160003010011010000000000000000000000000003d09000000000000000000000000000000000000000000000000000000000000000000000000000000000759f00000000000000000000000000000000000000000000000000000000000000010000000000000000000000000000000000000000000000000000000000000060000000000000000000000000000000000000000000000000000000000000001600030100110100000000000000000000000000030d4000000000000000000000000000000000000000000000000000000000000000000000000000000000759f0000000000000000000000000000000000000000000000000000000000000002000000000000000000000000000000000000000000000000000000000000006000000000000000000000000000000000000000000000000000000000000000160003010011010000000000000000000000000003d09000000000000000000000000000000000000000000000000000000000000000000000000000000000759d00000000000000000000000000000000000000000000000000000000000000010000000000000000000000000000000000000000000000000000000000000060000000000000000000000000000000000000000000000000000000000000001600030100110100000000000000000000000000030d4000000000000000000000000000000000000000000000000000000000000000000000000000000000759d0000000000000000000000000000000000000000000000000000000000000002000000000000000000000000000000000000000000000000000000000000006000000000000000000000000000000000000000000000000000000000000000160003010011010000000000000000000000000003d09000000000000000000000000000000000000000000000000000000000000000000000000000000000759a00000000000000000000000000000000000000000000000000000000000000010000000000000000000000000000000000000000000000000000000000000060000000000000000000000000000000000000000000000000000000000000001600030100110100000000000000000000000000030d4000000000000000000000000000000000000000000000000000000000000000000000000000000000759a0000000000000000000000000000000000000000000000000000000000000002000000000000000000000000000000000000000000000000000000000000006000000000000000000000000000000000000000000000000000000000000000160003010011010000000000000000000000000003d09000000000000000000000000000000000000000000000000000000000000000000000000000000000759600000000000000000000000000000000000000000000000000000000000000010000000000000000000000000000000000000000000000000000000000000060000000000000000000000000000000000000000000000000000000000000001600030100110100000000000000000000000000030d400000000000000000000000000000000000000000000000000000000000000000000000000000000075960000000000000000000000000000000000000000000000000000000000000002000000000000000000000000000000000000000000000000000000000000006000000000000000000000000000000000000000000000000000000000000000160003010011010000000000000000000000000003d0900000000000000000000000000000000000000000000000000000000000000000000000000000000075ce00000000000000000000000000000000000000000000000000000000000000010000000000000000000000000000000000000000000000000000000000000060000000000000000000000000000000000000000000000000000000000000001600030100110100000000000000000000000000030d400000000000000000000000000000000000000000000000000000000000000000000000000000000075ce0000000000000000000000000000000000000000000000000000000000000002000000000000000000000000000000000000000000000000000000000000006000000000000000000000000000000000000000000000000000000000000000160003010011010000000000000000000000000003d09000000000000000000000000000000000000000000000000000000000000000000000000000000000759500000000000000000000000000000000000000000000000000000000000000010000000000000000000000000000000000000000000000000000000000000060000000000000000000000000000000000000000000000000000000000000001600030100110100000000000000000000000000030d400000000000000000000000000000000000000000000000000000000000000000000000000000000075950000000000000000000000000000000000000000000000000000000000000002000000000000000000000000000000000000000000000000000000000000006000000000000000000000000000000000000000000000000000000000000000160003010011010000000000000000000000000003d09000000000000000000000000000000000000000000000000000000000000000000000000000000000762300000000000000000000000000000000000000000000000000000000000000010000000000000000000000000000000000000000000000000000000000000060000000000000000000000000000000000000000000000000000000000000001600030100110100000000000000000000000000030d400000000000000000000000000000000000000000000000000000000000000000000000000000000076230000000000000000000000000000000000000000000000000000000000000002000000000000000000000000000000000000000000000000000000000000006000000000000000000000000000000000000000000000000000000000000000160003010011010000000000000000000000000003d0900000000000000000000000000000000000000000000000000000000000000000000000000000000075e800000000000000000000000000000000000000000000000000000000000000010000000000000000000000000000000000000000000000000000000000000060000000000000000000000000000000000000000000000000000000000000001600030100110100000000000000000000000000030d400000000000000000000000000000000000000000000000000000000000000000000000000000000075e80000000000000000000000000000000000000000000000000000000000000002000000000000000000000000000000000000000000000000000000000000006000000000000000000000000000000000000000000000000000000000000000160003010011010000000000000000000000000003d09000000000000000000000000000000000000000000000000000000000000000000000000000000000769a00000000000000000000000000000000000000000000000000000000000000010000000000000000000000000000000000000000000000000000000000000060000000000000000000000000000000000000000000000000000000000000001600030100110100000000000000000000000000030d4000000000000000000000000000000000000000000000000000000000000000000000000000000000769a0000000000000000000000000000000000000000000000000000000000000002000000000000000000000000000000000000000000000000000000000000006000000000000000000000000000000000000000000000000000000000000000160003010011010000000000000000000000000003d0900000000000000000000000000000000000000000000000000000000000000000000000000000000075e700000000000000000000000000000000000000000000000000000000000000010000000000000000000000000000000000000000000000000000000000000060000000000000000000000000000000000000000000000000000000000000001600030100110100000000000000000000000000030d400000000000000000000000000000000000000000000000000000000000000000000000000000000075e70000000000000000000000000000000000000000000000000000000000000002000000000000000000000000000000000000000000000000000000000000006000000000000000000000000000000000000000000000000000000000000000160003010011010000000000000000000000000003d09000000000000000000000000000000000000000000000000000000000000000000000000000000000766f00000000000000000000000000000000000000000000000000000000000000010000000000000000000000000000000000000000000000000000000000000060000000000000000000000000000000000000000000000000000000000000001600030100110100000000000000000000000000030d4000000000000000000000000000000000000000000000000000000000000000000000000000000000766f0000000000000000000000000000000000000000000000000000000000000002000000000000000000000000000000000000000000000000000000000000006000000000000000000000000000000000000000000000000000000000000000160003010011010000000000000000000000000003d09000000000000000000000000000000000000000000000000000000000000000000000000000000000767000000000000000000000000000000000000000000000000000000000000000010000000000000000000000000000000000000000000000000000000000000060000000000000000000000000000000000000000000000000000000000000001600030100110100000000000000000000000000030d400000000000000000000000000000000000000000000000000000000000000000000000000000000076700000000000000000000000000000000000000000000000000000000000000002000000000000000000000000000000000000000000000000000000000000006000000000000000000000000000000000000000000000000000000000000000160003010011010000000000000000000000000003d0900000000000000000000000000000000000000000000000000000000000000000000000000000000076a200000000000000000000000000000000000000000000000000000000000000010000000000000000000000000000000000000000000000000000000000000060000000000000000000000000000000000000000000000000000000000000001600030100110100000000000000000000000000030d400000000000000000000000000000000000000000000000000000000000000000000000000000000076a20000000000000000000000000000000000000000000000000000000000000002000000000000000000000000000000000000000000000000000000000000006000000000000000000000000000000000000000000000000000000000000000160003010011010000000000000000000000000003d0900000000000000000000000000000000000000000000000000000000000000000000000000000000076a800000000000000000000000000000000000000000000000000000000000000010000000000000000000000000000000000000000000000000000000000000060000000000000000000000000000000000000000000000000000000000000001600030100110100000000000000000000000000030d400000000000000000000000000000000000000000000000000000000000000000000000000000000076a80000000000000000000000000000000000000000000000000000000000000002000000000000000000000000000000000000000000000000000000000000006000000000000000000000000000000000000000000000000000000000000000160003010011010000000000000000000000000003d0900000000000000000000000000000000000000000000000000000000000000000000000000000000076a700000000000000000000000000000000000000000000000000000000000000010000000000000000000000000000000000000000000000000000000000000060000000000000000000000000000000000000000000000000000000000000001600030100110100000000000000000000000000030d400000000000000000000000000000000000000000000000000000000000000000000000000000000076a70000000000000000000000000000000000000000000000000000000000000002000000000000000000000000000000000000000000000000000000000000006000000000000000000000000000000000000000000000000000000000000000160003010011010000000000000000000000000003d09000000000000000000000000000000000000000000000000000000000000000000000000000000000760300000000000000000000000000000000000000000000000000000000000000010000000000000000000000000000000000000000000000000000000000000060000000000000000000000000000000000000000000000000000000000000001600030100110100000000000000000000000000030d400000000000000000000000000000000000000000000000000000000000000000000000000000000076030000000000000000000000000000000000000000000000000000000000000002000000000000000000000000000000000000000000000000000000000000006000000000000000000000000000000000000000000000000000000000000000160003010011010000000000000000000000000003d09000000000000000000000000000000000000000000000000000000000000000000000000000000000760600000000000000000000000000000000000000000000000000000000000000010000000000000000000000000000000000000000000000000000000000000060000000000000000000000000000000000000000000000000000000000000001600030100110100000000000000000000000000030d400000000000000000000000000000000000000000000000000000000000000000000000000000000076060000000000000000000000000000000000000000000000000000000000000002000000000000000000000000000000000000000000000000000000000000006000000000000000000000000000000000000000000000000000000000000000160003010011010000000000000000000000000003d09000000000000000000000000000000000000000000000000000000000000000000000000000000000769f00000000000000000000000000000000000000000000000000000000000000010000000000000000000000000000000000000000000000000000000000000060000000000000000000000000000000000000000000000000000000000000001600030100110100000000000000000000000000030d4000000000000000000000000000000000000000000000000000000000000000000000000000000000769f0000000000000000000000000000000000000000000000000000000000000002000000000000000000000000000000000000000000000000000000000000006000000000000000000000000000000000000000000000000000000000000000160003010011010000000000000000000000000003d0900000000000000000000000000000000000000000000000000000000000000000000000000000000076b600000000000000000000000000000000000000000000000000000000000000010000000000000000000000000000000000000000000000000000000000000060000000000000000000000000000000000000000000000000000000000000001600030100110100000000000000000000000000030d400000000000000000000000000000000000000000000000000000000000000000000000000000000076b60000000000000000000000000000000000000000000000000000000000000002000000000000000000000000000000000000000000000000000000000000006000000000000000000000000000000000000000000000000000000000000000160003010011010000000000000000000000000003d0900000000000000000000000000000000000000000000000000000000000000000000000000000000076bc00000000000000000000000000000000000000000000000000000000000000010000000000000000000000000000000000000000000000000000000000000060000000000000000000000000000000000000000000000000000000000000001600030100110100000000000000000000000000030d400000000000000000000000000000000000000000000000000000000000000000000000000000000076bc0000000000000000000000000000000000000000000000000000000000000002000000000000000000000000000000000000000000000000000000000000006000000000000000000000000000000000000000000000000000000000000000160003010011010000000000000000000000000003d0900000000000000000000000000000000000000000000000000000000000000000000000000000000076ca00000000000000000000000000000000000000000000000000000000000000010000000000000000000000000000000000000000000000000000000000000060000000000000000000000000000000000000000000000000000000000000001600030100110100000000000000000000000000030d400000000000000000000000000000000000000000000000000000000000000000000000000000000076ca0000000000000000000000000000000000000000000000000000000000000002000000000000000000000000000000000000000000000000000000000000006000000000000000000000000000000000000000000000000000000000000000160003010011010000000000000000000000000003d09000000000000000000000000000000000000000000000000000000000000000000000000000000000767400000000000000000000000000000000000000000000000000000000000000010000000000000000000000000000000000000000000000000000000000000060000000000000000000000000000000000000000000000000000000000000001600030100110100000000000000000000000000030d400000000000000000000000000000000000000000000000000000000000000000000000000000000076740000000000000000000000000000000000000000000000000000000000000002000000000000000000000000000000000000000000000000000000000000006000000000000000000000000000000000000000000000000000000000000000160003010011010000000000000000000000000003d0900000000000000000000000000000000000000000000000000000000000000000000000000000000075d500000000000000000000000000000000000000000000000000000000000000010000000000000000000000000000000000000000000000000000000000000060000000000000000000000000000000000000000000000000000000000000001600030100110100000000000000000000000000030d400000000000000000000000000000000000000000000000000000000000000000000000000000000075d50000000000000000000000000000000000000000000000000000000000000002000000000000000000000000000000000000000000000000000000000000006000000000000000000000000000000000000000000000000000000000000000160003010011010000000000000000000000000003d09000000000000000000000",
          "blockHash": "0x031174603e2605beffc13f2d53aac5451c74a69e2b398116a0ef0c7c778e167f",
          "blockNumber": "0x1ec9820",
          "blockTimestamp": "0x69950d97",
          "transactionHash": "0x3669c98dc60aef17528ead2928f7002bbd08ae5b6a1de76f3f866160f5878c70",
          "transactionIndex": "0x1",
          "logIndex": "0x0",
          "removed": false
        }
      ],
      "logsBloom": "0x00000000000000000000000000040000000000000000000000000000000000000000000000000000000000000000000400000000000000000000400000000000000000000000000000000000000000000000000000000000000000000000000000000000000000000000000000000000000000000000000000000000000000000000000000000000000000000000000000000000000000000000000000080000000000002000000000000000000000000000000000000000000000000000000000000000000000000000000002000000000000000000000000000000000000000000000000000000000000000000000000000000000000000000000000000000",
      "type": "0x2",
      "transactionHash": "0x3669c98dc60aef17528ead2928f7002bbd08ae5b6a1de76f3f866160f5878c70",
      "transactionIndex": "0x1",
      "blockHash": "0x031174603e2605beffc13f2d53aac5451c74a69e2b398116a0ef0c7c778e167f",
      "blockNumber": "0x1ec9820",
      "gasUsed": "0x909dc",
      "effectiveGasPrice": "0xa0389f",
      "from": "0x45dce8e4f2dc005a5f28206a46cb034697eeda8e",
      "to": "0x57558cb8d6005de0bae8a2789d5efaae52dba5a8",
      "contractAddress": null,
      "l1BaseFeeScalar": "0x2faf080",
      "l1BlobBaseFee": "0x1d4fd2",
      "l1BlobBaseFeeScalar": "0x0",
      "l1Fee": "0x128200f8eea7",
      "l1GasPrice": "0x1e86042",
      "l1GasUsed": "0x31ac"
    },
    {
      "status": "0x1",
      "cumulativeGasUsed": "0x193a4",
      "logs": [
        {
          "address": "0x57558cb8d6005de0bae8a2789d5efaae52dba5a8",
          "topics": [
            "0x238399d427b947898edb290f5ff0f9109849b1c3ba196a42e35f00c50a54b98b"
          ],
          "data": "0x00000000000000000000000000000000000000000000000000000000000076b600000000000000000000000057558cb8d6005de0bae8a2789d5efaae52dba5a8",
          "blockHash": "0xc12daa74a61418e023c26c43e45a2bcfe16014c5dc7821c550f3c5f0861f502c",
          "blockNumber": "0x1ec9822",
          "blockTimestamp": "0x69950d9b",
          "transactionHash": "0xa410e750aff1181c385eb804570bc66358a6a0fc3ed063df9451c3b2d7168f91",
          "transactionIndex": "0x1",
          "logIndex": "0x0",
          "removed": false
        }
      ],
      "logsBloom": "0x00000000000000000000000000040000000000000000000000000000000000000000000000000000000000000000000400000000000000000800000000000000000000000000000000000000000000000000000000000000000000000000000000000000000000000000000000000000000000000000000000000000000000000000000000000000000000000000000000000000000000000000000000000000000000002000000000000000000000000000000000000000000002000000000000000000000000000000000000000000000000000000000000040000000000000000000000000000000000000000000000000000000000000000000000000000",
      "type": "0x2",
      "transactionHash": "0xa410e750aff1181c385eb804570bc66358a6a0fc3ed063df9451c3b2d7168f91",
      "transactionIndex": "0x1",
      "blockHash": "0xc12daa74a61418e023c26c43e45a2bcfe16014c5dc7821c550f3c5f0861f502c",
      "blockNumber": "0x1ec9822",
      "gasUsed": "0xd6c1",
      "effectiveGasPrice": "0xa038a2",
      "from": "0x45dce8e4f2dc005a5f28206a46cb034697eeda8e",
      "to": "0x57558cb8d6005de0bae8a2789d5efaae52dba5a8",
      "contractAddress": null,
      "l1BaseFeeScalar": "0x2faf080",
      "l1BlobBaseFee": "0x1d4fd2",
      "l1BlobBaseFeeScalar": "0x0",
      "l1Fee": "0x25429809100",
      "l1GasPrice": "0x1e86042",
      "l1GasUsed": "0x640"
    },
    {
      "status": "0x1",
      "cumulativeGasUsed": "0x193b0",
      "logs": [
        {
          "address": "0x57558cb8d6005de0bae8a2789d5efaae52dba5a8",
          "topics": [
            "0x238399d427b947898edb290f5ff0f9109849b1c3ba196a42e35f00c50a54b98b"
          ],
          "data": "0x00000000000000000000000000000000000000000000000000000000000076bc00000000000000000000000057558cb8d6005de0bae8a2789d5efaae52dba5a8",
          "blockHash": "0xe207fe9522230bbe3f7119398f79f8037e94c4a58535187e7ecc527fbf7ecca3",
          "blockNumber": "0x1ec9824",
          "blockTimestamp": "0x69950d9f",
          "transactionHash": "0x1791dd7170ddc6dd84499336b9f816e0b1fee216da3814dabbf5474600792c69",
          "transactionIndex": "0x1",
          "logIndex": "0x0",
          "removed": false
        }
      ],
      "logsBloom": "0x00000000000000000000000000040000000000000000000000000000000000000000000000000000000000000000000400000000000000000800000000000000000000000000000000000000000000000000000000000000000000000000000000000000000000000000000000000000000000000000000000000000000000000000000000000000000000000000000000000000000000000000000000000000000000002000000000000000000000000000000000000000000002000000000000000000000000000000000000000000000000000000000000040000000000000000000000000000000000000000000000000000000000000000000000000000",
      "type": "0x2",
      "transactionHash": "0x1791dd7170ddc6dd84499336b9f816e0b1fee216da3814dabbf5474600792c69",
      "transactionIndex": "0x1",
      "blockHash": "0xe207fe9522230bbe3f7119398f79f8037e94c4a58535187e7ecc527fbf7ecca3",
      "blockNumber": "0x1ec9824",
      "gasUsed": "0xd6c1",
      "effectiveGasPrice": "0xa038a2",
      "from": "0x45dce8e4f2dc005a5f28206a46cb034697eeda8e",
      "to": "0x57558cb8d6005de0bae8a2789d5efaae52dba5a8",
      "contractAddress": null,
      "l1BaseFeeScalar": "0x2faf080",
      "l1BlobBaseFee": "0x1dc0e5",
      "l1BlobBaseFeeScalar": "0x0",
      "l1Fee": "0x257b5605680",
      "l1GasPrice": "0x1eb47fd",
      "l1GasUsed": "0x640"
    },
    {
      "status": "0x1",
      "cumulativeGasUsed": "0x193b0",
      "logs": [
        {
          "address": "0x57558cb8d6005de0bae8a2789d5efaae52dba5a8",
          "topics": [
            "0x238399d427b947898edb290f5ff0f9109849b1c3ba196a42e35f00c50a54b98b"
          ],
          "data": "0x00000000000000000000000000000000000000000000000000000000000076ca00000000000000000000000057558cb8d6005de0bae8a2789d5efaae52dba5a8",
          "blockHash": "0x76ffee756b0c6039d478d06251afba20db5198f798f8a457a59c1fc34ac04f38",
          "blockNumber": "0x1ec9826",
          "blockTimestamp": "0x69950da3",
          "transactionHash": "0xdb0c35cae4fb929aa19b98f7ad1bacdfb6c0955937d288d4c2df6683174cff98",
          "transactionIndex": "0x1",
          "logIndex": "0x0",
          "removed": false
        }
      ],
      "logsBloom": "0x00000000000000000000000000040000000000000000000000000000000000000000000000000000000000000000000400000000000000000800000000000000000000000000000000000000000000000000000000000000000000000000000000000000000000000000000000000000000000000000000000000000000000000000000000000000000000000000000000000000000000000000000000000000000000002000000000000000000000000000000000000000000002000000000000000000000000000000000000000000000000000000000000040000000000000000000000000000000000000000000000000000000000000000000000000000",
      "type": "0x2",
      "transactionHash": "0xdb0c35cae4fb929aa19b98f7ad1bacdfb6c0955937d288d4c2df6683174cff98",
      "transactionIndex": "0x1",
      "blockHash": "0x76ffee756b0c6039d478d06251afba20db5198f798f8a457a59c1fc34ac04f38",
      "blockNumber": "0x1ec9826",
      "gasUsed": "0xd6c1",
      "effectiveGasPrice": "0xa038a2",
      "from": "0x45dce8e4f2dc005a5f28206a46cb034697eeda8e",
      "to": "0x57558cb8d6005de0bae8a2789d5efaae52dba5a8",
      "contractAddress": null,
      "l1BaseFeeScalar": "0x2faf080",
      "l1BlobBaseFee": "0x1dc0e5",
      "l1BlobBaseFeeScalar": "0x0",
      "l1Fee": "0x257b5605680",
      "l1GasPrice": "0x1eb47fd",
      "l1GasUsed": "0x640"
    },
    {
      "status": "0x1",
      "cumulativeGasUsed": "0x337f8",
      "logs": [
        {
          "address": "0x377530cda84dfb2673bf4d145dcf0c4d7fdcb5b6",
          "topics": [
            "0x82118522aa536ac0e96cc5c689407ae42b89d592aa133890a01f1509842f5081"
          ],
          "data": "0x00000000000000000000000057558cb8d6005de0bae8a2789d5efaae52dba5a800000000000000000000000000000000000000000000000000000000000076b60000000000000000000000000000000000000000000000000000000000000060000000000000000000000000000000000000000000000000000000000000000000000000000000000000000000000000000000000000000000000000000000030000000000000000000000000000000000000000000000000000000000000000000000000000000000000000000000000000000000000000000000000000000000000000000000000000000000000000000000000000000000000000000000c00000000000000000000000000000000000000000000000000000000000000140000000000000000000000000000000000000000000000000000000000000000300000000000000000000000026cd5abadf7ec3f0f02b48314bfca6b2342cddd4000000000000000000000000cce466a522984415bc91338c232d98869193d46e000000000000000000000000dd7b5e1db4aafd5c8ec3b764efb8ed265aa5445b0000000000000000000000000000000000000000000000000000000000000000",
          "blockHash": "0x71c95e7f713109342aa417d1f1c9ff515770e6bf227ed14bdcbad2c63c525ca6",
          "blockNumber": "0x1ec9828",
          "blockTimestamp": "0x69950da7",
          "transactionHash": "0x90d432b103ecb6f40c2df7cf68a08824427de3f3e94c95c78af3d825cb92ba85",
          "transactionIndex": "0x1",
          "logIndex": "0x0",
          "removed": false
        }
      ],
      "logsBloom": "0x00000000000000000000000000000000000000000000000000000000000000000000000000000000000000000000000000040000000000000000000000000000000000000000000000000000000000000000000000000000002000000000000000000000000000000000000000000000000000000000000000000400000000000000000000000000000000000000000000000000000000000000000000000000000000000000000000000002000000000000000000000000000000000000000000000000000000000000000000000000000000000000000000000000000000000001000000000000000000000000000000000000000000000000000000000010",
      "type": "0x2",
      "transactionHash": "0x90d432b103ecb6f40c2df7cf68a08824427de3f3e94c95c78af3d825cb92ba85",
      "transactionIndex": "0x1",
      "blockHash": "0x71c95e7f713109342aa417d1f1c9ff515770e6bf227ed14bdcbad2c63c525ca6",
      "blockNumber": "0x1ec9828",
      "gasUsed": "0x27b09",
      "effectiveGasPrice": "0xa038a2",
      "from": "0x45dce8e4f2dc005a5f28206a46cb034697eeda8e",
      "to": "0x1a44076050125825900e736c501f859c50fe728c",
      "contractAddress": null,
      "l1BaseFeeScalar": "0x2faf080",
      "l1BlobBaseFee": "0x1dc0e5",
      "l1BlobBaseFeeScalar": "0x0",
      "l1Fee": "0x56906b3fd67",
      "l1GasPrice": "0x1eb47fd",
      "l1GasUsed": "0xe6f"
    },
    {
      "status": "0x1",
      "cumulativeGasUsed": "0x33702",
      "logs": [
        {
          "address": "0x8bc1e36f015b9902b54b1387a4d733cebc2f5a4e",
          "topics": [
            "0x82118522aa536ac0e96cc5c689407ae42b89d592aa133890a01f1509842f5081"
          ],
          "data": "0x00000000000000000000000057558cb8d6005de0bae8a2789d5efaae52dba5a800000000000000000000000000000000000000000000000000000000000076b60000000000000000000000000000000000000000000000000000000000000060000000000000000000000000000000000000000000000000000000000000000000000000000000000000000000000000000000000000000000000000000000030000000000000000000000000000000000000000000000000000000000000000000000000000000000000000000000000000000000000000000000000000000000000000000000000000000000000000000000000000000000000000000000c00000000000000000000000000000000000000000000000000000000000000140000000000000000000000000000000000000000000000000000000000000000300000000000000000000000026cd5abadf7ec3f0f02b48314bfca6b2342cddd4000000000000000000000000cce466a522984415bc91338c232d98869193d46e000000000000000000000000dd7b5e1db4aafd5c8ec3b764efb8ed265aa5445b0000000000000000000000000000000000000000000000000000000000000000",
          "blockHash": "0xa61aa55854c769b824b1a7f10e62d5856bdedd6b9357ea8659f2c4e85c2c8728",
          "blockNumber": "0x1ec982a",
          "blockTimestamp": "0x69950dab",
          "transactionHash": "0x2e460d1d4ab6f02874bbcfa9100fd557d19f9be9745bc70e7d380abae296635b",
          "transactionIndex": "0x1",
          "logIndex": "0x0",
          "removed": false
        }
      ],
      "logsBloom": "0x00000000000000000000000000000000000000000000000000000000000000000000000000000000000000000000000000010000000000000000000000001000000000000000000000000000000000000000000000000000002000000000000000000000000000000000000000000000000000000000000000000000000000000000000000000000000000000000000000000000000000000000000000000000000000000000000000000402000000000000000000000000000000000000000000000000000000000000000000000000000000000000000000000000000000000000000000000000000000000000000000000000000000000000000000000010",
      "type": "0x2",
      "transactionHash": "0x2e460d1d4ab6f02874bbcfa9100fd557d19f9be9745bc70e7d380abae296635b",
      "transactionIndex": "0x1",
      "blockHash": "0xa61aa55854c769b824b1a7f10e62d5856bdedd6b9357ea8659f2c4e85c2c8728",
      "blockNumber": "0x1ec982a",
      "gasUsed": "0x27a13",
      "effectiveGasPrice": "0xa038a2",
      "from": "0x45dce8e4f2dc005a5f28206a46cb034697eeda8e",
      "to": "0x1a44076050125825900e736c501f859c50fe728c",
      "contractAddress": null,
      "l1BaseFeeScalar": "0x2faf080",
      "l1BlobBaseFee": "0x1dc0e5",
      "l1BlobBaseFeeScalar": "0x0",
      "l1Fee": "0x5882c0b40b4",
      "l1GasPrice": "0x1f0ede6",
      "l1GasUsed": "0xe97"
    },
    {
      "status": "0x1",
      "cumulativeGasUsed": "0x4464b6",
      "logs": [
        {
          "address": "0x377530cda84dfb2673bf4d145dcf0c4d7fdcb5b6",
          "topics": [
            "0x82118522aa536ac0e96cc5c689407ae42b89d592aa133890a01f1509842f5081"
          ],
          "data": "0x00000000000000000000000057558cb8d6005de0bae8a2789d5efaae52dba5a800000000000000000000000000000000000000000000000000000000000076bc0000000000000000000000000000000000000000000000000000000000000060000000000000000000000000000000000000000000000000000000000000000000000000000000000000000000000000000000000000000000000000000000030000000000000000000000000000000000000000000000000000000000000000000000000000000000000000000000000000000000000000000000000000000000000000000000000000000000000000000000000000000000000000000000c00000000000000000000000000000000000000000000000000000000000000140000000000000000000000000000000000000000000000000000000000000000300000000000000000000000026cd5abadf7ec3f0f02b48314bfca6b2342cddd4000000000000000000000000cce466a522984415bc91338c232d98869193d46e000000000000000000000000dd7b5e1db4aafd5c8ec3b764efb8ed265aa5445b0000000000000000000000000000000000000000000000000000000000000000",
          "blockHash": "0x1408b621a3bd68a346c17f1977ba16fff036051374ad16429635dc5714743479",
          "blockNumber": "0x1ec982c",
          "blockTimestamp": "0x69950daf",
          "transactionHash": "0x8320ff9ed32f2bde190842778376a29bea01adffe49d7144ac7428861edfde1e",
          "transactionIndex": "0x2",
          "logIndex": "0x7f",
          "removed": false
        }
      ],
      "logsBloom": "0x00000000000000000000000000000000000000000000000000000000000000000000000000000000000000000000000000040000000000000000000000000000000000000000000000000000000000000000000000000000002000000000000000000000000000000000000000000000000000000000000000000400000000000000000000000000000000000000000000000000000000000000000000000000000000000000000000000002000000000000000000000000000000000000000000000000000000000000000000000000000000000000000000000000000000000001000000000000000000000000000000000000000000000000000000000010",
      "type": "0x2",
      "transactionHash": "0x8320ff9ed32f2bde190842778376a29bea01adffe49d7144ac7428861edfde1e",
      "transactionIndex": "0x2",
      "blockHash": "0x1408b621a3bd68a346c17f1977ba16fff036051374ad16429635dc5714743479",
      "blockNumber": "0x1ec982c",
      "gasUsed": "0x27b09",
      "effectiveGasPrice": "0xa038a3",
      "from": "0x45dce8e4f2dc005a5f28206a46cb034697eeda8e",
      "to": "0x1a44076050125825900e736c501f859c50fe728c",
      "contractAddress": null,
      "l1BaseFeeScalar": "0x2faf080",
      "l1BlobBaseFee": "0x1dc0e5",
      "l1BlobBaseFeeScalar": "0x0",
      "l1Fee": "0x5882c0b40b4",
      "l1GasPrice": "0x1f0ede6",
      "l1GasUsed": "0xe97"
    },
    {
      "status": "0x1",
      "cumulativeGasUsed": "0xfc680",
      "logs": [
        {
          "address": "0x8bc1e36f015b9902b54b1387a4d733cebc2f5a4e",
          "topics": [
            "0x82118522aa536ac0e96cc5c689407ae42b89d592aa133890a01f1509842f5081"
          ],
          "data": "0x00000000000000000000000057558cb8d6005de0bae8a2789d5efaae52dba5a800000000000000000000000000000000000000000000000000000000000076bc0000000000000000000000000000000000000000000000000000000000000060000000000000000000000000000000000000000000000000000000000000000000000000000000000000000000000000000000000000000000000000000000030000000000000000000000000000000000000000000000000000000000000000000000000000000000000000000000000000000000000000000000000000000000000000000000000000000000000000000000000000000000000000000000c00000000000000000000000000000000000000000000000000000000000000140000000000000000000000000000000000000000000000000000000000000000300000000000000000000000026cd5abadf7ec3f0f02b48314bfca6b2342cddd4000000000000000000000000cce466a522984415bc91338c232d98869193d46e000000000000000000000000dd7b5e1db4aafd5c8ec3b764efb8ed265aa5445b0000000000000000000000000000000000000000000000000000000000000000",
          "blockHash": "0x8b1364ebb1fa9159c9ac7baafd87c4d50cec00e696080679299bd58c121fd100",
          "blockNumber": "0x1ec982e",
          "blockTimestamp": "0x69950db3",
          "transactionHash": "0x3c7503962cddcb54b607cbc9a6d592456406f037614c64ae3c469c647a470f37",
          "transactionIndex": "0x3",
          "logIndex": "0x8",
          "removed": false
        }
      ],
      "logsBloom": "0x00000000000000000000000000000000000000000000000000000000000000000000000000000000000000000000000000010000000000000000000000001000000000000000000000000000000000000000000000000000002000000000000000000000000000000000000000000000000000000000000000000000000000000000000000000000000000000000000000000000000000000000000000000000000000000000000000000402000000000000000000000000000000000000000000000000000000000000000000000000000000000000000000000000000000000000000000000000000000000000000000000000000000000000000000000010",
      "type": "0x2",
      "transactionHash": "0x3c7503962cddcb54b607cbc9a6d592456406f037614c64ae3c469c647a470f37",
      "transactionIndex": "0x3",
      "blockHash": "0x8b1364ebb1fa9159c9ac7baafd87c4d50cec00e696080679299bd58c121fd100",
      "blockNumber": "0x1ec982e",
      "gasUsed": "0x27a13",
      "effectiveGasPrice": "0xa038a4",
      "from": "0x45dce8e4f2dc005a5f28206a46cb034697eeda8e",
      "to": "0x1a44076050125825900e736c501f859c50fe728c",
      "contractAddress": null,
      "l1BaseFeeScalar": "0x2faf080",
      "l1BlobBaseFee": "0x1dc0e5",
      "l1BlobBaseFeeScalar": "0x0",
      "l1Fee": "0x5882c0b40b4",
      "l1GasPrice": "0x1f0ede6",
      "l1GasUsed": "0xe97"
    },
    {
      "status": "0x1",
      "cumulativeGasUsed": "0x9fe27",
      "logs": [
        {
          "address": "0x377530cda84dfb2673bf4d145dcf0c4d7fdcb5b6",
          "topics": [
            "0x82118522aa536ac0e96cc5c689407ae42b89d592aa133890a01f1509842f5081"
          ],
          "data": "0x00000000000000000000000057558cb8d6005de0bae8a2789d5efaae52dba5a800000000000000000000000000000000000000000000000000000000000076ca0000000000000000000000000000000000000000000000000000000000000060000000000000000000000000000000000000000000000000000000000000000000000000000000000000000000000000000000000000000000000000000000030000000000000000000000000000000000000000000000000000000000000000000000000000000000000000000000000000000000000000000000000000000000000000000000000000000000000000000000000000000000000000000000c00000000000000000000000000000000000000000000000000000000000000140000000000000000000000000000000000000000000000000000000000000000300000000000000000000000026cd5abadf7ec3f0f02b48314bfca6b2342cddd4000000000000000000000000cce466a522984415bc91338c232d98869193d46e000000000000000000000000dd7b5e1db4aafd5c8ec3b764efb8ed265aa5445b0000000000000000000000000000000000000000000000000000000000000000",
          "blockHash": "0x8e39a2ec14581c96a2c31d99f2fb08ae738bda5d65dc3a73ce0d1d887cb6fdec",
          "blockNumber": "0x1ec9830",
          "blockTimestamp": "0x69950db7",
          "transactionHash": "0x1d46ecfd2e0bd0607db6229f96f1d42370da14d416d4cfa15bac5cd51ca35330",
          "transactionIndex": "0x2",
          "logIndex": "0x7",
          "removed": false
        }
      ],
      "logsBloom": "0x00000000000000000000000000000000000000000000000000000000000000000000000000000000000000000000000000040000000000000000000000000000000000000000000000000000000000000000000000000000002000000000000000000000000000000000000000000000000000000000000000000400000000000000000000000000000000000000000000000000000000000000000000000000000000000000000000000002000000000000000000000000000000000000000000000000000000000000000000000000000000000000000000000000000000000001000000000000000000000000000000000000000000000000000000000010",
      "type": "0x2",
      "transactionHash": "0x1d46ecfd2e0bd0607db6229f96f1d42370da14d416d4cfa15bac5cd51ca35330",
      "transactionIndex": "0x2",
      "blockHash": "0x8e39a2ec14581c96a2c31d99f2fb08ae738bda5d65dc3a73ce0d1d887cb6fdec",
      "blockNumber": "0x1ec9830",
      "gasUsed": "0x27b09",
      "effectiveGasPrice": "0xa038a7",
      "from": "0x45dce8e4f2dc005a5f28206a46cb034697eeda8e",
      "to": "0x1a44076050125825900e736c501f859c50fe728c",
      "contractAddress": null,
      "l1BaseFeeScalar": "0x2faf080",
      "l1BlobBaseFee": "0x1dc0e5",
      "l1BlobBaseFeeScalar": "0x0",
      "l1Fee": "0x5de5a876cf7",
      "l1GasPrice": "0x20f2b8a",
      "l1GasUsed": "0xe97"
    },
    {
      "status": "0x1",
      "cumulativeGasUsed": "0x33702",
      "logs": [
        {
          "address": "0x8bc1e36f015b9902b54b1387a4d733cebc2f5a4e",
          "topics": [
            "0x82118522aa536ac0e96cc5c689407ae42b89d592aa133890a01f1509842f5081"
          ],
          "data": "0x00000000000000000000000057558cb8d6005de0bae8a2789d5efaae52dba5a800000000000000000000000000000000000000000000000000000000000076ca0000000000000000000000000000000000000000000000000000000000000060000000000000000000000000000000000000000000000000000000000000000000000000000000000000000000000000000000000000000000000000000000030000000000000000000000000000000000000000000000000000000000000000000000000000000000000000000000000000000000000000000000000000000000000000000000000000000000000000000000000000000000000000000000c00000000000000000000000000000000000000000000000000000000000000140000000000000000000000000000000000000000000000000000000000000000300000000000000000000000026cd5abadf7ec3f0f02b48314bfca6b2342cddd4000000000000000000000000cce466a522984415bc91338c232d98869193d46e000000000000000000000000dd7b5e1db4aafd5c8ec3b764efb8ed265aa5445b0000000000000000000000000000000000000000000000000000000000000000",
          "blockHash": "0x51a9b65b33c95d0cc32694b0799517af5b92fddf66ee66bd99045e7bf9d960e8",
          "blockNumber": "0x1ec9832",
          "blockTimestamp": "0x69950dbb",
          "transactionHash": "0x9c606277ba9179a247c8e8618181233769892097e4fc94556a88879e5db7e744",
          "transactionIndex": "0x1",
          "logIndex": "0x0",
          "removed": false
        }
      ],
      "logsBloom": "0x00000000000000000000000000000000000000000000000000000000000000000000000000000000000000000000000000010000000000000000000000001000000000000000000000000000000000000000000000000000002000000000000000000000000000000000000000000000000000000000000000000000000000000000000000000000000000000000000000000000000000000000000000000000000000000000000000000402000000000000000000000000000000000000000000000000000000000000000000000000000000000000000000000000000000000000000000000000000000000000000000000000000000000000000000000010",
      "type": "0x2",
      "transactionHash": "0x9c606277ba9179a247c8e8618181233769892097e4fc94556a88879e5db7e744",
      "transactionIndex": "0x1",
      "blockHash": "0x51a9b65b33c95d0cc32694b0799517af5b92fddf66ee66bd99045e7bf9d960e8",
      "blockNumber": "0x1ec9832",
      "gasUsed": "0x27a13",
      "effectiveGasPrice": "0xa038a8",
      "from": "0x45dce8e4f2dc005a5f28206a46cb034697eeda8e",
      "to": "0x1a44076050125825900e736c501f859c50fe728c",
      "contractAddress": null,
      "l1BaseFeeScalar": "0x2faf080",
      "l1BlobBaseFee": "0x1dc0e5",
      "l1BlobBaseFeeScalar": "0x0",
      "l1Fee": "0x5de5a876cf7",
      "l1GasPrice": "0x20f2b8a",
      "l1GasUsed": "0xe97"
    },
    {
      "status": "0x1",
      "cumulativeGasUsed": "0x1f212d",
      "logs": [
        {
          "address": "0x1a44076050125825900e736c501f859c50fe728c",
          "topics": [
            "0x4cff966ebee29a156dcb34cf72c1d06231fb1777f6bdf6e8089819232f002b1c"
          ],
          "data": "0x00000000000000000000000057558cb8d6005de0bae8a2789d5efaae52dba5a800000000000000000000000000000000000000000000000000000000000076b6000000000000000000000000377530cda84dfb2673bf4d145dcf0c4d7fdcb5b6",
          "blockHash": "0xe43971c726b007340a7932d8b7e3c0e608147adce639730348cd8710caa11087",
          "blockNumber": "0x1ec9834",
          "blockTimestamp": "0x69950dbf",
          "transactionHash": "0x2191f71febc6f40251a8b375e1a75bacfe2414fed09c59038e82fad6e1b9c245",
          "transactionIndex": "0x2",
          "logIndex": "0x36",
          "removed": false
        }
      ],
      "logsBloom": "0x00000000000000000000000000000000000200000000000000000000001000000000000000000000000000000000000000000000000000000000000001000000000000000000000000000000000000000000000000000000000000000000000000000000000000000000000000000000000000000010000000000000000000000000000000000000000000000000000000000000000000000000000000000000000000000000000000000000000000000000000000000000000000000000000000000000000000000000000000000000000000000000000000000000000000000040000000000000000000000000000000000000010000000000000000000000",
      "type": "0x2",
      "transactionHash": "0x2191f71febc6f40251a8b375e1a75bacfe2414fed09c59038e82fad6e1b9c245",
      "transactionIndex": "0x2",
      "blockHash": "0xe43971c726b007340a7932d8b7e3c0e608147adce639730348cd8710caa11087",
      "blockNumber": "0x1ec9834",
      "gasUsed": "0xe182",
      "effectiveGasPrice": "0xa038a8",
      "from": "0x45dce8e4f2dc005a5f28206a46cb034697eeda8e",
      "to": "0x1a44076050125825900e736c501f859c50fe728c",
      "contractAddress": null,
      "l1BaseFeeScalar": "0x2faf080",
      "l1BlobBaseFee": "0x1dc0e5",
      "l1BlobBaseFeeScalar": "0x0",
      "l1Fee": "0x2a6c008b5a6",
      "l1GasPrice": "0x20f2b8a",
      "l1GasUsed": "0x697"
    },
    {
      "status": "0x1",
      "cumulativeGasUsed": "0x1b884",
      "logs": [
        {
          "address": "0x1a44076050125825900e736c501f859c50fe728c",
          "topics": [
            "0xcd6f92f5ac6185a5acfa02c92090746cec64d777269cbcd0ed031e396657a1c2"
          ],
          "data": "0x00000000000000000000000057558cb8d6005de0bae8a2789d5efaae52dba5a800000000000000000000000000000000000000000000000000000000000076b60000000000000000000000008bc1e36f015b9902b54b1387a4d733cebc2f5a4e",
          "blockHash": "0x9daf9f1cf212d0bd1d55d1ce36c947d19454b9daf45882cca6bcf007786e57b5",
          "blockNumber": "0x1ec9836",
          "blockTimestamp": "0x69950dc3",
          "transactionHash": "0x2655340b68e44b36eb4bdb29d02202e0370ee16bbec9fe924b3e5a58c97e474d",
          "transactionIndex": "0x1",
          "logIndex": "0x0",
          "removed": false
        },
        {
          "address": "0x1a44076050125825900e736c501f859c50fe728c",
          "topics": [
            "0x4e0a5bbfa0c11a64effb1ada324b5437a17272e1aed9320398715ef71bb20928"
          ],
          "data": "0x00000000000000000000000057558cb8d6005de0bae8a2789d5efaae52dba5a800000000000000000000000000000000000000000000000000000000000076b600000000000000000000000000000000000000000000000000000000000000000000000000000000000000000000000000000000000000000000000000000000",
          "blockHash": "0x9daf9f1cf212d0bd1d55d1ce36c947d19454b9daf45882cca6bcf007786e57b5",
          "blockNumber": "0x1ec9836",
          "blockTimestamp": "0x69950dc3",
          "transactionHash": "0x2655340b68e44b36eb4bdb29d02202e0370ee16bbec9fe924b3e5a58c97e474d",
          "transactionIndex": "0x1",
          "logIndex": "0x1",
          "removed": false
        }
      ],
      "logsBloom": "0x00000000000000000000020800000000000000000000000000000000001000020400000000000000000000000000000000000000000000000000000000000000000000000000000000000000000000000000000000800000000000000000000000000000000000000000000000000000000000000010000000000000000000100000000000000000000000000000000000000000000000000000000000000000000000000000000000000000000000000000000000000000000000000000000000000000000000000000000000000000000000000000000000000000000000000000000000000000000000000000000000000000010000000000000000000000",
      "type": "0x2",
      "transactionHash": "0x2655340b68e44b36eb4bdb29d02202e0370ee16bbec9fe924b3e5a58c97e474d",
      "transactionIndex": "0x1",
      "blockHash": "0x9daf9f1cf212d0bd1d55d1ce36c947d19454b9daf45882cca6bcf007786e57b5",
      "blockNumber": "0x1ec9836",
      "gasUsed": "0xfb95",
      "effectiveGasPrice": "0xa038a9",
      "from": "0x45dce8e4f2dc005a5f28206a46cb034697eeda8e",
      "to": "0x1a44076050125825900e736c501f859c50fe728c",
      "contractAddress": null,
      "l1BaseFeeScalar": "0x2faf080",
      "l1BlobBaseFee": "0x1e50a3",
      "l1BlobBaseFeeScalar": "0x0",
      "l1Fee": "0x2836ffd70be",
      "l1GasPrice": "0x1d9758b",
      "l1GasUsed": "0x6f5"
    },
    {
      "status": "0x1",
      "cumulativeGasUsed": "0x19e71",
      "logs": [
        {
          "address": "0x1a44076050125825900e736c501f859c50fe728c",
          "topics": [
            "0x4cff966ebee29a156dcb34cf72c1d06231fb1777f6bdf6e8089819232f002b1c"
          ],
          "data": "0x00000000000000000000000057558cb8d6005de0bae8a2789d5efaae52dba5a800000000000000000000000000000000000000000000000000000000000076bc000000000000000000000000377530cda84dfb2673bf4d145dcf0c4d7fdcb5b6",
          "blockHash": "0xc69a7e907244d54d5f057f80b8163d1c8e2f465443d190cae4b3f053a6b3b595",
          "blockNumber": "0x1ec9838",
          "blockTimestamp": "0x69950dc7",
          "transactionHash": "0xdc76375d5eb4fa0568f97cea7e2f25477dda57ecf4db2392d173717401f8e382",
          "transactionIndex": "0x1",
          "logIndex": "0x0",
          "removed": false
        }
      ],
      "logsBloom": "0x00000000000000000000000000000000000200000000000000000000001000000000000000000000000000000000000000000000000000000000000001000000000000000000000000000000000000000000000000000000000000000000000000000000000000000000000000000000000000000010000000000000000000000000000000000000000000000000000000000000000000000000000000000000000000000000000000000000000000000000000000000000000000000000000000000000000000000000000000000000000000000000000000000000000000000040000000000000000000000000000000000000010000000000000000000000",
      "type": "0x2",
      "transactionHash": "0xdc76375d5eb4fa0568f97cea7e2f25477dda57ecf4db2392d173717401f8e382",
      "transactionIndex": "0x1",
      "blockHash": "0xc69a7e907244d54d5f057f80b8163d1c8e2f465443d190cae4b3f053a6b3b595",
      "blockNumber": "0x1ec9838",
      "gasUsed": "0xe182",
      "effectiveGasPrice": "0xa038aa",
      "from": "0x45dce8e4f2dc005a5f28206a46cb034697eeda8e",
      "to": "0x1a44076050125825900e736c501f859c50fe728c",
      "contractAddress": null,
      "l1BaseFeeScalar": "0x2faf080",
      "l1BlobBaseFee": "0x1e50a3",
      "l1BlobBaseFeeScalar": "0x0",
      "l1Fee": "0x261986d6342",
      "l1GasPrice": "0x1d9758b",
      "l1GasUsed": "0x697"
    },
    {
      "status": "0x1",
      "cumulativeGasUsed": "0x1b884",
      "logs": [
        {
          "address": "0x1a44076050125825900e736c501f859c50fe728c",
          "topics": [
            "0xcd6f92f5ac6185a5acfa02c92090746cec64d777269cbcd0ed031e396657a1c2"
          ],
          "data": "0x00000000000000000000000057558cb8d6005de0bae8a2789d5efaae52dba5a800000000000000000000000000000000000000000000000000000000000076bc0000000000000000000000008bc1e36f015b9902b54b1387a4d733cebc2f5a4e",
          "blockHash": "0x2573022e45c4d9c4a46be2b4b9ae0065e20909c35e6753f36bf0d183f67adc83",
          "blockNumber": "0x1ec983a",
          "blockTimestamp": "0x69950dcb",
          "transactionHash": "0xa116e3a51f768f0caa312ea190e4f75fe27c47e6d97ae98bb453cefeff8c32eb",
          "transactionIndex": "0x1",
          "logIndex": "0x0",
          "removed": false
        },
        {
          "address": "0x1a44076050125825900e736c501f859c50fe728c",
          "topics": [
            "0x4e0a5bbfa0c11a64effb1ada324b5437a17272e1aed9320398715ef71bb20928"
          ],
          "data": "0x00000000000000000000000057558cb8d6005de0bae8a2789d5efaae52dba5a800000000000000000000000000000000000000000000000000000000000076bc00000000000000000000000000000000000000000000000000000000000000000000000000000000000000000000000000000000000000000000000000000000",
          "blockHash": "0x2573022e45c4d9c4a46be2b4b9ae0065e20909c35e6753f36bf0d183f67adc83",
          "blockNumber": "0x1ec983a",
          "blockTimestamp": "0x69950dcb",
          "transactionHash": "0xa116e3a51f768f0caa312ea190e4f75fe27c47e6d97ae98bb453cefeff8c32eb",
          "transactionIndex": "0x1",
          "logIndex": "0x1",
          "removed": false
        }
      ],
      "logsBloom": "0x00000000000000000000020800000000000000000000000000000000001000020400000000000000000000000000000000000000000000000000000000000000000000000000000000000000000000000000000000800000000000000000000000000000000000000000000000000000000000000010000000000000000000100000000000000000000000000000000000000000000000000000000000000000000000000000000000000000000000000000000000000000000000000000000000000000000000000000000000000000000000000000000000000000000000000000000000000000000000000000000000000000010000000000000000000000",
      "type": "0x2",
      "transactionHash": "0xa116e3a51f768f0caa312ea190e4f75fe27c47e6d97ae98bb453cefeff8c32eb",
      "transactionIndex": "0x1",
      "blockHash": "0x2573022e45c4d9c4a46be2b4b9ae0065e20909c35e6753f36bf0d183f67adc83",
      "blockNumber": "0x1ec983a",
      "gasUsed": "0xfb95",
      "effectiveGasPrice": "0xa038aa",
      "from": "0x45dce8e4f2dc005a5f28206a46cb034697eeda8e",
      "to": "0x1a44076050125825900e736c501f859c50fe728c",
      "contractAddress": null,
      "l1BaseFeeScalar": "0x2faf080",
      "l1BlobBaseFee": "0x1e50a3",
      "l1BlobBaseFeeScalar": "0x0",
      "l1Fee": "0x2836ffd70be",
      "l1GasPrice": "0x1d9758b",
      "l1GasUsed": "0x6f5"
    },
    {
      "status": "0x1",
      "cumulativeGasUsed": "0x19e71",
      "logs": [
        {
          "address": "0x1a44076050125825900e736c501f859c50fe728c",
          "topics": [
            "0x4cff966ebee29a156dcb34cf72c1d06231fb1777f6bdf6e8089819232f002b1c"
          ],
          "data": "0x00000000000000000000000057558cb8d6005de0bae8a2789d5efaae52dba5a800000000000000000000000000000000000000000000000000000000000076ca000000000000000000000000377530cda84dfb2673bf4d145dcf0c4d7fdcb5b6",
          "blockHash": "0x2a7761ffc5a4b5e875e1c4ad6e9db568d9328356c4867b284f6202b70a36c66e",
          "blockNumber": "0x1ec983c",
          "blockTimestamp": "0x69950dcf",
          "transactionHash": "0xb8ae26eec4960afc695c5a509414b2c36aff6da940eaae29f2a3eec3438402c4",
          "transactionIndex": "0x1",
          "logIndex": "0x0",
          "removed": false
        }
      ],
      "logsBloom": "0x00000000000000000000000000000000000200000000000000000000001000000000000000000000000000000000000000000000000000000000000001000000000000000000000000000000000000000000000000000000000000000000000000000000000000000000000000000000000000000010000000000000000000000000000000000000000000000000000000000000000000000000000000000000000000000000000000000000000000000000000000000000000000000000000000000000000000000000000000000000000000000000000000000000000000000040000000000000000000000000000000000000010000000000000000000000",
      "type": "0x2",
      "transactionHash": "0xb8ae26eec4960afc695c5a509414b2c36aff6da940eaae29f2a3eec3438402c4",
      "transactionIndex": "0x1",
      "blockHash": "0x2a7761ffc5a4b5e875e1c4ad6e9db568d9328356c4867b284f6202b70a36c66e",
      "blockNumber": "0x1ec983c",
      "gasUsed": "0xe182",
      "effectiveGasPrice": "0xa038aa",
      "from": "0x45dce8e4f2dc005a5f28206a46cb034697eeda8e",
      "to": "0x1a44076050125825900e736c501f859c50fe728c",
      "contractAddress": null,
      "l1BaseFeeScalar": "0x2faf080",
      "l1BlobBaseFee": "0x1dfa11",
      "l1BlobBaseFeeScalar": "0x0",
      "l1Fee": "0x2794957b9fb",
      "l1GasPrice": "0x1ebdc07",
      "l1GasUsed": "0x697"
    },
    {
      "status": "0x1",
      "cumulativeGasUsed": "0x1b884",
      "logs": [
        {
          "address": "0x1a44076050125825900e736c501f859c50fe728c",
          "topics": [
            "0xcd6f92f5ac6185a5acfa02c92090746cec64d777269cbcd0ed031e396657a1c2"
          ],
          "data": "0x00000000000000000000000057558cb8d6005de0bae8a2789d5efaae52dba5a800000000000000000000000000000000000000000000000000000000000076ca0000000000000000000000008bc1e36f015b9902b54b1387a4d733cebc2f5a4e",
          "blockHash": "0x5090cf8def466d505011399008cfa6013b6a72cc779dfd85a2b12d560401a3fc",
          "blockNumber": "0x1ec983e",
          "blockTimestamp": "0x69950dd3",
          "transactionHash": "0xbcd3c63db43126b2cb2348ac9671ab18d03fd8103dd01f3603eb5cf1bc03b264",
          "transactionIndex": "0x1",
          "logIndex": "0x0",
          "removed": false
        },
        {
          "address": "0x1a44076050125825900e736c501f859c50fe728c",
          "topics": [
            "0x4e0a5bbfa0c11a64effb1ada324b5437a17272e1aed9320398715ef71bb20928"
          ],
          "data": "0x00000000000000000000000057558cb8d6005de0bae8a2789d5efaae52dba5a800000000000000000000000000000000000000000000000000000000000076ca00000000000000000000000000000000000000000000000000000000000000000000000000000000000000000000000000000000000000000000000000000000",
          "blockHash": "0x5090cf8def466d505011399008cfa6013b6a72cc779dfd85a2b12d560401a3fc",
          "blockNumber": "0x1ec983e",
          "blockTimestamp": "0x69950dd3",
          "transactionHash": "0xbcd3c63db43126b2cb2348ac9671ab18d03fd8103dd01f3603eb5cf1bc03b264",
          "transactionIndex": "0x1",
          "logIndex": "0x1",
          "removed": false
        }
      ],
      "logsBloom": "0x00000000000000000000020800000000000000000000000000000000001000020400000000000000000000000000000000000000000000000000000000000000000000000000000000000000000000000000000000800000000000000000000000000000000000000000000000000000000000000010000000000000000000100000000000000000000000000000000000000000000000000000000000000000000000000000000000000000000000000000000000000000000000000000000000000000000000000000000000000000000000000000000000000000000000000000000000000000000000000000000000000000010000000000000000000000",
      "type": "0x2",
      "transactionHash": "0xbcd3c63db43126b2cb2348ac9671ab18d03fd8103dd01f3603eb5cf1bc03b264",
      "transactionIndex": "0x1",
      "blockHash": "0x5090cf8def466d505011399008cfa6013b6a72cc779dfd85a2b12d560401a3fc",
      "blockNumber": "0x1ec983e",
      "gasUsed": "0xfb95",
      "effectiveGasPrice": "0xa038ab",
      "from": "0x45dce8e4f2dc005a5f28206a46cb034697eeda8e",
      "to": "0x1a44076050125825900e736c501f859c50fe728c",
      "contractAddress": null,
      "l1BaseFeeScalar": "0x2faf080",
      "l1BlobBaseFee": "0x1dfa11",
      "l1BlobBaseFeeScalar": "0x0",
      "l1Fee": "0x29c719a4878",
      "l1GasPrice": "0x1ebdc07",
      "l1GasUsed": "0x6f5"
    }
  ],
  "libraries": [],
  "pending": [],
  "returns": {},
  "timestamp": 1771376083310,
  "chain": 252,
  "commit": "18cf42f"
}