{
  "transactions": [
    {
      "hash": "0xbaf763936c9ddb03d61e3f67463fb79e5ba312e3326efbc27aa659799244d855",
      "transactionType": "CALL",
      "contractName": "TransparentUpgradeableProxy",
      "contractAddress": "0x57558cb8d6005de0bae8a2789d5efaae52dba5a8",
      "function": null,
      "arguments": null,
      "transaction": {
        "from": "0x45dce8e4f2dc005a5f28206a46cb034697eeda8e",
        "to": "0x57558cb8d6005de0bae8a2789d5efaae52dba5a8",
        "gas": "0xa5d7e",
        "value": "0x0",
        "input": "0xb98bd07000000000000000000000000000000000000000000000000000000000000000200000000000000000000000000000000000000000000000000000000000000032000000000000000000000000000000000000000000000000000000000000064000000000000000000000000000000000000000000000000000000000000006e00000000000000000000000000000000000000000000000000000000000000780000000000000000000000000000000000000000000000000000000000000082000000000000000000000000000000000000000000000000000000000000008c000000000000000000000000000000000000000000000000000000000000009600000000000000000000000000000000000000000000000000000000000000a000000000000000000000000000000000000000000000000000000000000000aa00000000000000000000000000000000000000000000000000000000000000b400000000000000000000000000000000000000000000000000000000000000be00000000000000000000000000000000000000000000000000000000000000c800000000000000000000000000000000000000000000000000000000000000d200000000000000000000000000000000000000000000000000000000000000dc00000000000000000000000000000000000000000000000000000000000000e600000000000000000000000000000000000000000000000000000000000000f000000000000000000000000000000000000000000000000000000000000000fa0000000000000000000000000000000000000000000000000000000000000104000000000000000000000000000000000000000000000000000000000000010e00000000000000000000000000000000000000000000000000000000000001180000000000000000000000000000000000000000000000000000000000000122000000000000000000000000000000000000000000000000000000000000012c00000000000000000000000000000000000000000000000000000000000001360000000000000000000000000000000000000000000000000000000000000140000000000000000000000000000000000000000000000000000000000000014a0000000000000000000000000000000000000000000000000000000000000154000000000000000000000000000000000000000000000000000000000000015e00000000000000000000000000000000000000000000000000000000000001680000000000000000000000000000000000000000000000000000000000000172000000000000000000000000000000000000000000000000000000000000017c00000000000000000000000000000000000000000000000000000000000001860000000000000000000000000000000000000000000000000000000000000190000000000000000000000000000000000000000000000000000000000000019a00000000000000000000000000000000000000000000000000000000000001a400000000000000000000000000000000000000000000000000000000000001ae00000000000000000000000000000000000000000000000000000000000001b800000000000000000000000000000000000000000000000000000000000001c200000000000000000000000000000000000000000000000000000000000001cc00000000000000000000000000000000000000000000000000000000000001d600000000000000000000000000000000000000000000000000000000000001e000000000000000000000000000000000000000000000000000000000000001ea00000000000000000000000000000000000000000000000000000000000001f400000000000000000000000000000000000000000000000000000000000001fe00000000000000000000000000000000000000000000000000000000000002080000000000000000000000000000000000000000000000000000000000000212000000000000000000000000000000000000000000000000000000000000021c00000000000000000000000000000000000000000000000000000000000002260000000000000000000000000000000000000000000000000000000000000230000000000000000000000000000000000000000000000000000000000000023a0000000000000000000000000000000000000000000000000000000000000244000000000000000000000000000000000000000000000000000000000000024e0000000000000000000000000000000000000000000000000000000000000763400000000000000000000000000000000000000000000000000000000000000010000000000000000000000000000000000000000000000000000000000000060000000000000000000000000000000000000000000000000000000000000001600030100110100000000000000000000000000030d400000000000000000000000000000000000000000000000000000000000000000000000000000000076340000000000000000000000000000000000000000000000000000000000000002000000000000000000000000000000000000000000000000000000000000006000000000000000000000000000000000000000000000000000000000000000160003010011010000000000000000000000000003d09000000000000000000000000000000000000000000000000000000000000000000000000000000000764800000000000000000000000000000000000000000000000000000000000000010000000000000000000000000000000000000000000000000000000000000060000000000000000000000000000000000000000000000000000000000000001600030100110100000000000000000000000000030d400000000000000000000000000000000000000000000000000000000000000000000000000000000076480000000000000000000000000000000000000000000000000000000000000002000000000000000000000000000000000000000000000000000000000000006000000000000000000000000000000000000000000000000000000000000000160003010011010000000000000000000000000003d09000000000000000000000000000000000000000000000000000000000000000000000000000000000762f00000000000000000000000000000000000000000000000000000000000000010000000000000000000000000000000000000000000000000000000000000060000000000000000000000000000000000000000000000000000000000000001600030100110100000000000000000000000000030d4000000000000000000000000000000000000000000000000000000000000000000000000000000000762f0000000000000000000000000000000000000000000000000000000000000002000000000000000000000000000000000000000000000000000000000000006000000000000000000000000000000000000000000000000000000000000000160003010011010000000000000000000000000003d09000000000000000000000000000000000000000000000000000000000000000000000000000000000764200000000000000000000000000000000000000000000000000000000000000010000000000000000000000000000000000000000000000000000000000000060000000000000000000000000000000000000000000000000000000000000001600030100110100000000000000000000000000030d400000000000000000000000000000000000000000000000000000000000000000000000000000000076420000000000000000000000000000000000000000000000000000000000000002000000000000000000000000000000000000000000000000000000000000006000000000000000000000000000000000000000000000000000000000000000160003010011010000000000000000000000000003d09000000000000000000000000000000000000000000000000000000000000000000000000000000000767c00000000000000000000000000000000000000000000000000000000000000010000000000000000000000000000000000000000000000000000000000000060000000000000000000000000000000000000000000000000000000000000001600030100110100000000000000000000000000030d4000000000000000000000000000000000000000000000000000000000000000000000000000000000767c0000000000000000000000000000000000000000000000000000000000000002000000000000000000000000000000000000000000000000000000000000006000000000000000000000000000000000000000000000000000000000000000160003010011010000000000000000000000000003d09000000000000000000000000000000000000000000000000000000000000000000000000000000000768300000000000000000000000000000000000000000000000000000000000000010000000000000000000000000000000000000000000000000000000000000060000000000000000000000000000000000000000000000000000000000000001600030100110100000000000000000000000000030d400000000000000000000000000000000000000000000000000000000000000000000000000000000076830000000000000000000000000000000000000000000000000000000000000002000000000000000000000000000000000000000000000000000000000000006000000000000000000000000000000000000000000000000000000000000000160003010011010000000000000000000000000003d09000000000000000000000000000000000000000000000000000000000000000000000000000000000759e00000000000000000000000000000000000000000000000000000000000000010000000000000000000000000000000000000000000000000000000000000060000000000000000000000000000000000000000000000000000000000000001600030100110100000000000000000000000000030d4000000000000000000000000000000000000000000000000000000000000000000000000000000000759e0000000000000000000000000000000000000000000000000000000000000002000000000000000000000000000000000000000000000000000000000000006000000000000000000000000000000000000000000000000000000000000000160003010011010000000000000000000000000003d09000000000000000000000000000000000000000000000000000000000000000000000000000000000759f00000000000000000000000000000000000000000000000000000000000000010000000000000000000000000000000000000000000000000000000000000060000000000000000000000000000000000000000000000000000000000000001600030100110100000000000000000000000000030d4000000000000000000000000000000000000000000000000000000000000000000000000000000000759f0000000000000000000000000000000000000000000000000000000000000002000000000000000000000000000000000000000000000000000000000000006000000000000000000000000000000000000000000000000000000000000000160003010011010000000000000000000000000003d09000000000000000000000000000000000000000000000000000000000000000000000000000000000759a00000000000000000000000000000000000000000000000000000000000000010000000000000000000000000000000000000000000000000000000000000060000000000000000000000000000000000000000000000000000000000000001600030100110100000000000000000000000000030d4000000000000000000000000000000000000000000000000000000000000000000000000000000000759a0000000000000000000000000000000000000000000000000000000000000002000000000000000000000000000000000000000000000000000000000000006000000000000000000000000000000000000000000000000000000000000000160003010011010000000000000000000000000003d09000000000000000000000000000000000000000000000000000000000000000000000000000000000759600000000000000000000000000000000000000000000000000000000000000010000000000000000000000000000000000000000000000000000000000000060000000000000000000000000000000000000000000000000000000000000001600030100110100000000000000000000000000030d400000000000000000000000000000000000000000000000000000000000000000000000000000000075960000000000000000000000000000000000000000000000000000000000000002000000000000000000000000000000000000000000000000000000000000006000000000000000000000000000000000000000000000000000000000000000160003010011010000000000000000000000000003d0900000000000000000000000000000000000000000000000000000000000000000000000000000000075ce00000000000000000000000000000000000000000000000000000000000000010000000000000000000000000000000000000000000000000000000000000060000000000000000000000000000000000000000000000000000000000000001600030100110100000000000000000000000000030d400000000000000000000000000000000000000000000000000000000000000000000000000000000075ce0000000000000000000000000000000000000000000000000000000000000002000000000000000000000000000000000000000000000000000000000000006000000000000000000000000000000000000000000000000000000000000000160003010011010000000000000000000000000003d09000000000000000000000000000000000000000000000000000000000000000000000000000000000759500000000000000000000000000000000000000000000000000000000000000010000000000000000000000000000000000000000000000000000000000000060000000000000000000000000000000000000000000000000000000000000001600030100110100000000000000000000000000030d400000000000000000000000000000000000000000000000000000000000000000000000000000000075950000000000000000000000000000000000000000000000000000000000000002000000000000000000000000000000000000000000000000000000000000006000000000000000000000000000000000000000000000000000000000000000160003010011010000000000000000000000000003d09000000000000000000000000000000000000000000000000000000000000000000000000000000000762300000000000000000000000000000000000000000000000000000000000000010000000000000000000000000000000000000000000000000000000000000060000000000000000000000000000000000000000000000000000000000000001600030100110100000000000000000000000000030d400000000000000000000000000000000000000000000000000000000000000000000000000000000076230000000000000000000000000000000000000000000000000000000000000002000000000000000000000000000000000000000000000000000000000000006000000000000000000000000000000000000000000000000000000000000000160003010011010000000000000000000000000003d0900000000000000000000000000000000000000000000000000000000000000000000000000000000075e800000000000000000000000000000000000000000000000000000000000000010000000000000000000000000000000000000000000000000000000000000060000000000000000000000000000000000000000000000000000000000000001600030100110100000000000000000000000000030d400000000000000000000000000000000000000000000000000000000000000000000000000000000075e80000000000000000000000000000000000000000000000000000000000000002000000000000000000000000000000000000000000000000000000000000006000000000000000000000000000000000000000000000000000000000000000160003010011010000000000000000000000000003d09000000000000000000000000000000000000000000000000000000000000000000000000000000000769a00000000000000000000000000000000000000000000000000000000000000010000000000000000000000000000000000000000000000000000000000000060000000000000000000000000000000000000000000000000000000000000001600030100110100000000000000000000000000030d4000000000000000000000000000000000000000000000000000000000000000000000000000000000769a0000000000000000000000000000000000000000000000000000000000000002000000000000000000000000000000000000000000000000000000000000006000000000000000000000000000000000000000000000000000000000000000160003010011010000000000000000000000000003d0900000000000000000000000000000000000000000000000000000000000000000000000000000000075e700000000000000000000000000000000000000000000000000000000000000010000000000000000000000000000000000000000000000000000000000000060000000000000000000000000000000000000000000000000000000000000001600030100110100000000000000000000000000030d400000000000000000000000000000000000000000000000000000000000000000000000000000000075e70000000000000000000000000000000000000000000000000000000000000002000000000000000000000000000000000000000000000000000000000000006000000000000000000000000000000000000000000000000000000000000000160003010011010000000000000000000000000003d09000000000000000000000000000000000000000000000000000000000000000000000000000000000766f00000000000000000000000000000000000000000000000000000000000000010000000000000000000000000000000000000000000000000000000000000060000000000000000000000000000000000000000000000000000000000000001600030100110100000000000000000000000000030d4000000000000000000000000000000000000000000000000000000000000000000000000000000000766f0000000000000000000000000000000000000000000000000000000000000002000000000000000000000000000000000000000000000000000000000000006000000000000000000000000000000000000000000000000000000000000000160003010011010000000000000000000000000003d09000000000000000000000000000000000000000000000000000000000000000000000000000000000767000000000000000000000000000000000000000000000000000000000000000010000000000000000000000000000000000000000000000000000000000000060000000000000000000000000000000000000000000000000000000000000001600030100110100000000000000000000000000030d400000000000000000000000000000000000000000000000000000000000000000000000000000000076700000000000000000000000000000000000000000000000000000000000000002000000000000000000000000000000000000000000000000000000000000006000000000000000000000000000000000000000000000000000000000000000160003010011010000000000000000000000000003d0900000000000000000000000000000000000000000000000000000000000000000000000000000000076a200000000000000000000000000000000000000000000000000000000000000010000000000000000000000000000000000000000000000000000000000000060000000000000000000000000000000000000000000000000000000000000001600030100110100000000000000000000000000030d400000000000000000000000000000000000000000000000000000000000000000000000000000000076a20000000000000000000000000000000000000000000000000000000000000002000000000000000000000000000000000000000000000000000000000000006000000000000000000000000000000000000000000000000000000000000000160003010011010000000000000000000000000003d0900000000000000000000000000000000000000000000000000000000000000000000000000000000076a800000000000000000000000000000000000000000000000000000000000000010000000000000000000000000000000000000000000000000000000000000060000000000000000000000000000000000000000000000000000000000000001600030100110100000000000000000000000000030d400000000000000000000000000000000000000000000000000000000000000000000000000000000076a80000000000000000000000000000000000000000000000000000000000000002000000000000000000000000000000000000000000000000000000000000006000000000000000000000000000000000000000000000000000000000000000160003010011010000000000000000000000000003d0900000000000000000000000000000000000000000000000000000000000000000000000000000000076a700000000000000000000000000000000000000000000000000000000000000010000000000000000000000000000000000000000000000000000000000000060000000000000000000000000000000000000000000000000000000000000001600030100110100000000000000000000000000030d400000000000000000000000000000000000000000000000000000000000000000000000000000000076a70000000000000000000000000000000000000000000000000000000000000002000000000000000000000000000000000000000000000000000000000000006000000000000000000000000000000000000000000000000000000000000000160003010011010000000000000000000000000003d09000000000000000000000000000000000000000000000000000000000000000000000000000000000760300000000000000000000000000000000000000000000000000000000000000010000000000000000000000000000000000000000000000000000000000000060000000000000000000000000000000000000000000000000000000000000001600030100110100000000000000000000000000030d400000000000000000000000000000000000000000000000000000000000000000000000000000000076030000000000000000000000000000000000000000000000000000000000000002000000000000000000000000000000000000000000000000000000000000006000000000000000000000000000000000000000000000000000000000000000160003010011010000000000000000000000000003d09000000000000000000000000000000000000000000000000000000000000000000000000000000000760600000000000000000000000000000000000000000000000000000000000000010000000000000000000000000000000000000000000000000000000000000060000000000000000000000000000000000000000000000000000000000000001600030100110100000000000000000000000000030d400000000000000000000000000000000000000000000000000000000000000000000000000000000076060000000000000000000000000000000000000000000000000000000000000002000000000000000000000000000000000000000000000000000000000000006000000000000000000000000000000000000000000000000000000000000000160003010011010000000000000000000000000003d09000000000000000000000000000000000000000000000000000000000000000000000000000000000767400000000000000000000000000000000000000000000000000000000000000010000000000000000000000000000000000000000000000000000000000000060000000000000000000000000000000000000000000000000000000000000001600030100110100000000000000000000000000030d400000000000000000000000000000000000000000000000000000000000000000000000000000000076740000000000000000000000000000000000000000000000000000000000000002000000000000000000000000000000000000000000000000000000000000006000000000000000000000000000000000000000000000000000000000000000160003010011010000000000000000000000000003d0900000000000000000000000000000000000000000000000000000000000000000000000000000000075d500000000000000000000000000000000000000000000000000000000000000010000000000000000000000000000000000000000000000000000000000000060000000000000000000000000000000000000000000000000000000000000001600030100110100000000000000000000000000030d400000000000000000000000000000000000000000000000000000000000000000000000000000000075d50000000000000000000000000000000000000000000000000000000000000002000000000000000000000000000000000000000000000000000000000000006000000000000000000000000000000000000000000000000000000000000000160003010011010000000000000000000000000003d09000000000000000000000",
        "nonce": "0x9c",
        "chainId": "0x89"
      },
      "additionalContracts": [],
      "isFixedGasLimit": false
    },
    {
      "hash": "0x677bcc1d7d67fd0c0bdf40227f0c04de932510ede5fe9404ed4c755223dd3628",
      "transactionType": "CALL",
      "contractName": "TransparentUpgradeableProxy",
      "contractAddress": "0x57558cb8d6005de0bae8a2789d5efaae52dba5a8",
      "function": null,
      "arguments": null,
      "transaction": {
        "from": "0x45dce8e4f2dc005a5f28206a46cb034697eeda8e",
        "to": "0x57558cb8d6005de0bae8a2789d5efaae52dba5a8",
        "gas": "0x13a45",
        "value": "0x0",
        "input": "0x3400288b0000000000000000000000000000000000000000000000000000000000007603000000000000000000000000a057d8d4fc86a62801ce363c169b0a8d192f6cee",
        "nonce": "0x9d",
        "chainId": "0x89"
      },
      "additionalContracts": [],
      "isFixedGasLimit": false
    },
    {
      "hash": "0xdaf20111d2d71e51a91dd5ad323fe5418541a68c3d77430dd9ec33d256100329",
      "transactionType": "CALL",
      "contractName": "TransparentUpgradeableProxy",
      "contractAddress": "0x57558cb8d6005de0bae8a2789d5efaae52dba5a8",
      "function": null,
      "arguments": null,
      "transaction": {
        "from": "0x45dce8e4f2dc005a5f28206a46cb034697eeda8e",
        "to": "0x57558cb8d6005de0bae8a2789d5efaae52dba5a8",
        "gas": "0x128be",
        "value": "0x0",
        "input": "0x3400288b000000000000000000000000000000000000000000000000000000000000760600000000000000000000000057558cb8d6005de0bae8a2789d5efaae52dba5a8",
        "nonce": "0x9e",
        "chainId": "0x89"
      },
      "additionalContracts": [],
      "isFixedGasLimit": false
    },
    {
      "hash": "0x8b8e071296bd7057081ead312c91dd393f7a4e4597edd3bfddc476945176085b",
      "transactionType": "CALL",
      "contractName": "EndpointV2",
      "contractAddress": "0x1a44076050125825900e736c501f859c50fe728c",
      "function": "setConfig(address,address,(uint32,uint32,bytes)[])",
      "arguments": [
        "0x57558Cb8d6005DE0BAe8a2789d5EfaaE52dba5a8",
        "0x6c26c61a97006888ea9E4FA36584c7df57Cd9dA3",
        "[(30211, 2, 0x0000000000000000000000000000000000000000000000000000000000000020000000000000000000000000000000000000000000000000000000000000000000000000000000000000000000000000000000000000000000000000000000030000000000000000000000000000000000000000000000000000000000000000000000000000000000000000000000000000000000000000000000000000000000000000000000000000000000000000000000000000000000000000000000c00000000000000000000000000000000000000000000000000000000000000140000000000000000000000000000000000000000000000000000000000000000300000000000000000000000023de2fe932d9043291f870324b74f820e11dc81a00000000000000000000000025e0e650a78e6304a3983fc4b7ffc6544b1beea6000000000000000000000000dab6e6ecb3513a8d2614ad75199b4b264a7310500000000000000000000000000000000000000000000000000000000000000000)]"
      ],
      "transaction": {
        "from": "0x45dce8e4f2dc005a5f28206a46cb034697eeda8e",
        "to": "0x1a44076050125825900e736c501f859c50fe728c",
        "gas": "0x36d12",
        "value": "0x0",
        "input": "0x6dbd9f9000000000000000000000000057558cb8d6005de0bae8a2789d5efaae52dba5a80000000000000000000000006c26c61a97006888ea9e4fa36584c7df57cd9da300000000000000000000000000000000000000000000000000000000000000600000000000000000000000000000000000000000000000000000000000000001000000000000000000000000000000000000000000000000000000000000002000000000000000000000000000000000000000000000000000000000000076030000000000000000000000000000000000000000000000000000000000000002000000000000000000000000000000000000000000000000000000000000006000000000000000000000000000000000000000000000000000000000000001800000000000000000000000000000000000000000000000000000000000000020000000000000000000000000000000000000000000000000000000000000000000000000000000000000000000000000000000000000000000000000000000030000000000000000000000000000000000000000000000000000000000000000000000000000000000000000000000000000000000000000000000000000000000000000000000000000000000000000000000000000000000000000000000c00000000000000000000000000000000000000000000000000000000000000140000000000000000000000000000000000000000000000000000000000000000300000000000000000000000023de2fe932d9043291f870324b74f820e11dc81a00000000000000000000000025e0e650a78e6304a3983fc4b7ffc6544b1beea6000000000000000000000000dab6e6ecb3513a8d2614ad75199b4b264a7310500000000000000000000000000000000000000000000000000000000000000000",
        "nonce": "0x9f",
        "chainId": "0x89"
      },
      "additionalContracts": [],
      "isFixedGasLimit": false
    },
    {
      "hash": "0x132f6736314618e373ffe1723ef0fb11b825b91520396870c91fc6be0c736d5b",
      "transactionType": "CALL",
      "contractName": "EndpointV2",
      "contractAddress": "0x1a44076050125825900e736c501f859c50fe728c",
      "function": "setConfig(address,address,(uint32,uint32,bytes)[])",
      "arguments": [
        "0x57558Cb8d6005DE0BAe8a2789d5EfaaE52dba5a8",
        "0x1322871e4ab09Bc7f5717189434f97bBD9546e95",
        "[(30211, 2, 0x0000000000000000000000000000000000000000000000000000000000000020000000000000000000000000000000000000000000000000000000000000000000000000000000000000000000000000000000000000000000000000000000030000000000000000000000000000000000000000000000000000000000000000000000000000000000000000000000000000000000000000000000000000000000000000000000000000000000000000000000000000000000000000000000c00000000000000000000000000000000000000000000000000000000000000140000000000000000000000000000000000000000000000000000000000000000300000000000000000000000023de2fe932d9043291f870324b74f820e11dc81a00000000000000000000000025e0e650a78e6304a3983fc4b7ffc6544b1beea6000000000000000000000000dab6e6ecb3513a8d2614ad75199b4b264a7310500000000000000000000000000000000000000000000000000000000000000000)]"
      ],
      "transaction": {
        "from": "0x45dce8e4f2dc005a5f28206a46cb034697eeda8e",
        "to": "0x1a44076050125825900e736c501f859c50fe728c",
        "gas": "0x39f54",
        "value": "0x0",
        "input": "0x6dbd9f9000000000000000000000000057558cb8d6005de0bae8a2789d5efaae52dba5a80000000000000000000000001322871e4ab09bc7f5717189434f97bbd9546e9500000000000000000000000000000000000000000000000000000000000000600000000000000000000000000000000000000000000000000000000000000001000000000000000000000000000000000000000000000000000000000000002000000000000000000000000000000000000000000000000000000000000076030000000000000000000000000000000000000000000000000000000000000002000000000000000000000000000000000000000000000000000000000000006000000000000000000000000000000000000000000000000000000000000001800000000000000000000000000000000000000000000000000000000000000020000000000000000000000000000000000000000000000000000000000000000000000000000000000000000000000000000000000000000000000000000000030000000000000000000000000000000000000000000000000000000000000000000000000000000000000000000000000000000000000000000000000000000000000000000000000000000000000000000000000000000000000000000000c00000000000000000000000000000000000000000000000000000000000000140000000000000000000000000000000000000000000000000000000000000000300000000000000000000000023de2fe932d9043291f870324b74f820e11dc81a00000000000000000000000025e0e650a78e6304a3983fc4b7ffc6544b1beea6000000000000000000000000dab6e6ecb3513a8d2614ad75199b4b264a7310500000000000000000000000000000000000000000000000000000000000000000",
        "nonce": "0xa0",
        "chainId": "0x89"
      },
      "additionalContracts": [],
      "isFixedGasLimit": false
    },
    {
      "hash": "0xef5d9d5f7b074119d30ed5a29963ac173b89b5da5a97ad63422361a5a0455a68",
      "transactionType": "CALL",
      "contractName": "EndpointV2",
      "contractAddress": "0x1a44076050125825900e736c501f859c50fe728c",
      "function": "setConfig(address,address,(uint32,uint32,bytes)[])",
      "arguments": [
        "0x57558Cb8d6005DE0BAe8a2789d5EfaaE52dba5a8",
        "0x6c26c61a97006888ea9E4FA36584c7df57Cd9dA3",
        "[(30214, 2, 0x0000000000000000000000000000000000000000000000000000000000000020000000000000000000000000000000000000000000000000000000000000000000000000000000000000000000000000000000000000000000000000000000030000000000000000000000000000000000000000000000000000000000000000000000000000000000000000000000000000000000000000000000000000000000000000000000000000000000000000000000000000000000000000000000c00000000000000000000000000000000000000000000000000000000000000140000000000000000000000000000000000000000000000000000000000000000300000000000000000000000023de2fe932d9043291f870324b74f820e11dc81a00000000000000000000000025e0e650a78e6304a3983fc4b7ffc6544b1beea6000000000000000000000000dab6e6ecb3513a8d2614ad75199b4b264a7310500000000000000000000000000000000000000000000000000000000000000000)]"
      ],
      "transaction": {
        "from": "0x45dce8e4f2dc005a5f28206a46cb034697eeda8e",
        "to": "0x1a44076050125825900e736c501f859c50fe728c",
        "gas": "0x36d12",
        "value": "0x0",
        "input": "0x6dbd9f9000000000000000000000000057558cb8d6005de0bae8a2789d5efaae52dba5a80000000000000000000000006c26c61a97006888ea9e4fa36584c7df57cd9da300000000000000000000000000000000000000000000000000000000000000600000000000000000000000000000000000000000000000000000000000000001000000000000000000000000000000000000000000000000000000000000002000000000000000000000000000000000000000000000000000000000000076060000000000000000000000000000000000000000000000000000000000000002000000000000000000000000000000000000000000000000000000000000006000000000000000000000000000000000000000000000000000000000000001800000000000000000000000000000000000000000000000000000000000000020000000000000000000000000000000000000000000000000000000000000000000000000000000000000000000000000000000000000000000000000000000030000000000000000000000000000000000000000000000000000000000000000000000000000000000000000000000000000000000000000000000000000000000000000000000000000000000000000000000000000000000000000000000c00000000000000000000000000000000000000000000000000000000000000140000000000000000000000000000000000000000000000000000000000000000300000000000000000000000023de2fe932d9043291f870324b74f820e11dc81a00000000000000000000000025e0e650a78e6304a3983fc4b7ffc6544b1beea6000000000000000000000000dab6e6ecb3513a8d2614ad75199b4b264a7310500000000000000000000000000000000000000000000000000000000000000000",
        "nonce": "0xa1",
        "chainId": "0x89"
      },
      "additionalContracts": [],
      "isFixedGasLimit": false
    },
    {
      "hash": "0x48c4cb5d09edc035de53c2afda9931907e1aa20c8691a391205900bb62f6fd8e",
      "transactionType": "CALL",
      "contractName": "EndpointV2",
      "contractAddress": "0x1a44076050125825900e736c501f859c50fe728c",
      "function": "setConfig(address,address,(uint32,uint32,bytes)[])",
      "arguments": [
        "0x57558Cb8d6005DE0BAe8a2789d5EfaaE52dba5a8",
        "0x1322871e4ab09Bc7f5717189434f97bBD9546e95",
        "[(30214, 2, 0x0000000000000000000000000000000000000000000000000000000000000020000000000000000000000000000000000000000000000000000000000000000000000000000000000000000000000000000000000000000000000000000000030000000000000000000000000000000000000000000000000000000000000000000000000000000000000000000000000000000000000000000000000000000000000000000000000000000000000000000000000000000000000000000000c00000000000000000000000000000000000000000000000000000000000000140000000000000000000000000000000000000000000000000000000000000000300000000000000000000000023de2fe932d9043291f870324b74f820e11dc81a00000000000000000000000025e0e650a78e6304a3983fc4b7ffc6544b1beea6000000000000000000000000dab6e6ecb3513a8d2614ad75199b4b264a7310500000000000000000000000000000000000000000000000000000000000000000)]"
      ],
      "transaction": {
        "from": "0x45dce8e4f2dc005a5f28206a46cb034697eeda8e",
        "to": "0x1a44076050125825900e736c501f859c50fe728c",
        "gas": "0x39f54",
        "value": "0x0",
        "input": "0x6dbd9f9000000000000000000000000057558cb8d6005de0bae8a2789d5efaae52dba5a80000000000000000000000001322871e4ab09bc7f5717189434f97bbd9546e9500000000000000000000000000000000000000000000000000000000000000600000000000000000000000000000000000000000000000000000000000000001000000000000000000000000000000000000000000000000000000000000002000000000000000000000000000000000000000000000000000000000000076060000000000000000000000000000000000000000000000000000000000000002000000000000000000000000000000000000000000000000000000000000006000000000000000000000000000000000000000000000000000000000000001800000000000000000000000000000000000000000000000000000000000000020000000000000000000000000000000000000000000000000000000000000000000000000000000000000000000000000000000000000000000000000000000030000000000000000000000000000000000000000000000000000000000000000000000000000000000000000000000000000000000000000000000000000000000000000000000000000000000000000000000000000000000000000000000c00000000000000000000000000000000000000000000000000000000000000140000000000000000000000000000000000000000000000000000000000000000300000000000000000000000023de2fe932d9043291f870324b74f820e11dc81a00000000000000000000000025e0e650a78e6304a3983fc4b7ffc6544b1beea6000000000000000000000000dab6e6ecb3513a8d2614ad75199b4b264a7310500000000000000000000000000000000000000000000000000000000000000000",
        "nonce": "0xa2",
        "chainId": "0x89"
      },
      "additionalContracts": [],
      "isFixedGasLimit": false
    },
    {
      "hash": "0x2c88ab7cd9da83fcd22998ef4bf414663f32146150e098650c0fb3f89c8d5954",
      "transactionType": "CALL",
      "contractName": "EndpointV2",
      "contractAddress": "0x1a44076050125825900e736c501f859c50fe728c",
      "function": "setSendLibrary(address,uint32,address)",
      "arguments": [
        "0x57558Cb8d6005DE0BAe8a2789d5EfaaE52dba5a8",
        "30211",
        "0x6c26c61a97006888ea9E4FA36584c7df57Cd9dA3"
      ],
      "transaction": {
        "from": "0x45dce8e4f2dc005a5f28206a46cb034697eeda8e",
        "to": "0x1a44076050125825900e736c501f859c50fe728c",
        "gas": "0x1376a",
        "value": "0x0",
        "input": "0x9535ff3000000000000000000000000057558cb8d6005de0bae8a2789d5efaae52dba5a800000000000000000000000000000000000000000000000000000000000076030000000000000000000000006c26c61a97006888ea9e4fa36584c7df57cd9da3",
        "nonce": "0xa3",
        "chainId": "0x89"
      },
      "additionalContracts": [],
      "isFixedGasLimit": false
    },
    {
      "hash": "0x548940919785980056bf0ed7a177e2b694286574a35b683aa2a42a2ecc626d8f",
      "transactionType": "CALL",
      "contractName": "EndpointV2",
      "contractAddress": "0x1a44076050125825900e736c501f859c50fe728c",
      "function": "setReceiveLibrary(address,uint32,address,uint256)",
      "arguments": [
        "0x57558Cb8d6005DE0BAe8a2789d5EfaaE52dba5a8",
        "30211",
        "0x1322871e4ab09Bc7f5717189434f97bBD9546e95",
        "0"
      ],
      "transaction": {
        "from": "0x45dce8e4f2dc005a5f28206a46cb034697eeda8e",
        "to": "0x1a44076050125825900e736c501f859c50fe728c",
        "gas": "0x15b7f",
        "value": "0x0",
        "input": "0x6a14d71500000000000000000000000057558cb8d6005de0bae8a2789d5efaae52dba5a800000000000000000000000000000000000000000000000000000000000076030000000000000000000000001322871e4ab09bc7f5717189434f97bbd9546e950000000000000000000000000000000000000000000000000000000000000000",
        "nonce": "0xa4",
        "chainId": "0x89"
      },
      "additionalContracts": [],
      "isFixedGasLimit": false
    },
    {
      "hash": "0xf58696724067468a570bfb22eddd6ca4c286a4678193345d9cc87f4614d0f57b",
      "transactionType": "CALL",
      "contractName": "EndpointV2",
      "contractAddress": "0x1a44076050125825900e736c501f859c50fe728c",
      "function": "setSendLibrary(address,uint32,address)",
      "arguments": [
        "0x57558Cb8d6005DE0BAe8a2789d5EfaaE52dba5a8",
        "30214",
        "0x6c26c61a97006888ea9E4FA36584c7df57Cd9dA3"
      ],
      "transaction": {
        "from": "0x45dce8e4f2dc005a5f28206a46cb034697eeda8e",
        "to": "0x1a44076050125825900e736c501f859c50fe728c",
        "gas": "0x1376a",
        "value": "0x0",
        "input": "0x9535ff3000000000000000000000000057558cb8d6005de0bae8a2789d5efaae52dba5a800000000000000000000000000000000000000000000000000000000000076060000000000000000000000006c26c61a97006888ea9e4fa36584c7df57cd9da3",
        "nonce": "0xa5",
        "chainId": "0x89"
      },
      "additionalContracts": [],
      "isFixedGasLimit": false
    },
    {
      "hash": "0x60cf5895bf74ba33beac1dabfd36613b5a48641aabd2b96189fa74fa26025c37",
      "transactionType": "CALL",
      "contractName": "EndpointV2",
      "contractAddress": "0x1a44076050125825900e736c501f859c50fe728c",
      "function": "setReceiveLibrary(address,uint32,address,uint256)",
      "arguments": [
        "0x57558Cb8d6005DE0BAe8a2789d5EfaaE52dba5a8",
        "30214",
        "0x1322871e4ab09Bc7f5717189434f97bBD9546e95",
        "0"
      ],
      "transaction": {
        "from": "0x45dce8e4f2dc005a5f28206a46cb034697eeda8e",
        "to": "0x1a44076050125825900e736c501f859c50fe728c",
        "gas": "0x15b7f",
        "value": "0x0",
        "input": "0x6a14d71500000000000000000000000057558cb8d6005de0bae8a2789d5efaae52dba5a800000000000000000000000000000000000000000000000000000000000076060000000000000000000000001322871e4ab09bc7f5717189434f97bbd9546e950000000000000000000000000000000000000000000000000000000000000000",
        "nonce": "0xa6",
        "chainId": "0x89"
      },
      "additionalContracts": [],
      "isFixedGasLimit": false
    }
  ],
  "receipts": [
    {
      "status": "0x1",
      "cumulativeGasUsed": "0xcdbdeb",
      "logs": [
        {
          "address": "0x57558cb8d6005de0bae8a2789d5efaae52dba5a8",
          "topics": [
            "0xbe4864a8e820971c0247f5992e2da559595f7bf076a21cb5928d443d2a13b674"
          ],
          "data": "0x00000000000000000000000000000000000000000000000000000000000000200000000000000000000000000000000000000000000000000000000000000032000000000000000000000000000000000000000000000000000000000000064000000000000000000000000000000000000000000000000000000000000006e00000000000000000000000000000000000000000000000000000000000000780000000000000000000000000000000000000000000000000000000000000082000000000000000000000000000000000000000000000000000000000000008c000000000000000000000000000000000000000000000000000000000000009600000000000000000000000000000000000000000000000000000000000000a000000000000000000000000000000000000000000000000000000000000000aa00000000000000000000000000000000000000000000000000000000000000b400000000000000000000000000000000000000000000000000000000000000be00000000000000000000000000000000000000000000000000000000000000c800000000000000000000000000000000000000000000000000000000000000d200000000000000000000000000000000000000000000000000000000000000dc00000000000000000000000000000000000000000000000000000000000000e600000000000000000000000000000000000000000000000000000000000000f000000000000000000000000000000000000000000000000000000000000000fa0000000000000000000000000000000000000000000000000000000000000104000000000000000000000000000000000000000000000000000000000000010e00000000000000000000000000000000000000000000000000000000000001180000000000000000000000000000000000000000000000000000000000000122000000000000000000000000000000000000000000000000000000000000012c00000000000000000000000000000000000000000000000000000000000001360000000000000000000000000000000000000000000000000000000000000140000000000000000000000000000000000000000000000000000000000000014a0000000000000000000000000000000000000000000000000000000000000154000000000000000000000000000000000000000000000000000000000000015e00000000000000000000000000000000000000000000000000000000000001680000000000000000000000000000000000000000000000000000000000000172000000000000000000000000000000000000000000000000000000000000017c00000000000000000000000000000000000000000000000000000000000001860000000000000000000000000000000000000000000000000000000000000190000000000000000000000000000000000000000000000000000000000000019a00000000000000000000000000000000000000000000000000000000000001a400000000000000000000000000000000000000000000000000000000000001ae00000000000000000000000000000000000000000000000000000000000001b800000000000000000000000000000000000000000000000000000000000001c200000000000000000000000000000000000000000000000000000000000001cc00000000000000000000000000000000000000000000000000000000000001d600000000000000000000000000000000000000000000000000000000000001e000000000000000000000000000000000000000000000000000000000000001ea00000000000000000000000000000000000000000000000000000000000001f400000000000000000000000000000000000000000000000000000000000001fe00000000000000000000000000000000000000000000000000000000000002080000000000000000000000000000000000000000000000000000000000000212000000000000000000000000000000000000000000000000000000000000021c00000000000000000000000000000000000000000000000000000000000002260000000000000000000000000000000000000000000000000000000000000230000000000000000000000000000000000000000000000000000000000000023a0000000000000000000000000000000000000000000000000000000000000244000000000000000000000000000000000000000000000000000000000000024e0000000000000000000000000000000000000000000000000000000000000763400000000000000000000000000000000000000000000000000000000000000010000000000000000000000000000000000000000000000000000000000000060000000000000000000000000000000000000000000000000000000000000001600030100110100000000000000000000000000030d400000000000000000000000000000000000000000000000000000000000000000000000000000000076340000000000000000000000000000000000000000000000000000000000000002000000000000000000000000000000000000000000000000000000000000006000000000000000000000000000000000000000000000000000000000000000160003010011010000000000000000000000000003d09000000000000000000000000000000000000000000000000000000000000000000000000000000000764800000000000000000000000000000000000000000000000000000000000000010000000000000000000000000000000000000000000000000000000000000060000000000000000000000000000000000000000000000000000000000000001600030100110100000000000000000000000000030d400000000000000000000000000000000000000000000000000000000000000000000000000000000076480000000000000000000000000000000000000000000000000000000000000002000000000000000000000000000000000000000000000000000000000000006000000000000000000000000000000000000000000000000000000000000000160003010011010000000000000000000000000003d09000000000000000000000000000000000000000000000000000000000000000000000000000000000762f00000000000000000000000000000000000000000000000000000000000000010000000000000000000000000000000000000000000000000000000000000060000000000000000000000000000000000000000000000000000000000000001600030100110100000000000000000000000000030d4000000000000000000000000000000000000000000000000000000000000000000000000000000000762f0000000000000000000000000000000000000000000000000000000000000002000000000000000000000000000000000000000000000000000000000000006000000000000000000000000000000000000000000000000000000000000000160003010011010000000000000000000000000003d09000000000000000000000000000000000000000000000000000000000000000000000000000000000764200000000000000000000000000000000000000000000000000000000000000010000000000000000000000000000000000000000000000000000000000000060000000000000000000000000000000000000000000000000000000000000001600030100110100000000000000000000000000030d400000000000000000000000000000000000000000000000000000000000000000000000000000000076420000000000000000000000000000000000000000000000000000000000000002000000000000000000000000000000000000000000000000000000000000006000000000000000000000000000000000000000000000000000000000000000160003010011010000000000000000000000000003d09000000000000000000000000000000000000000000000000000000000000000000000000000000000767c00000000000000000000000000000000000000000000000000000000000000010000000000000000000000000000000000000000000000000000000000000060000000000000000000000000000000000000000000000000000000000000001600030100110100000000000000000000000000030d4000000000000000000000000000000000000000000000000000000000000000000000000000000000767c0000000000000000000000000000000000000000000000000000000000000002000000000000000000000000000000000000000000000000000000000000006000000000000000000000000000000000000000000000000000000000000000160003010011010000000000000000000000000003d09000000000000000000000000000000000000000000000000000000000000000000000000000000000768300000000000000000000000000000000000000000000000000000000000000010000000000000000000000000000000000000000000000000000000000000060000000000000000000000000000000000000000000000000000000000000001600030100110100000000000000000000000000030d400000000000000000000000000000000000000000000000000000000000000000000000000000000076830000000000000000000000000000000000000000000000000000000000000002000000000000000000000000000000000000000000000000000000000000006000000000000000000000000000000000000000000000000000000000000000160003010011010000000000000000000000000003d09000000000000000000000000000000000000000000000000000000000000000000000000000000000759e00000000000000000000000000000000000000000000000000000000000000010000000000000000000000000000000000000000000000000000000000000060000000000000000000000000000000000000000000000000000000000000001600030100110100000000000000000000000000030d4000000000000000000000000000000000000000000000000000000000000000000000000000000000759e0000000000000000000000000000000000000000000000000000000000000002000000000000000000000000000000000000000000000000000000000000006000000000000000000000000000000000000000000000000000000000000000160003010011010000000000000000000000000003d09000000000000000000000000000000000000000000000000000000000000000000000000000000000759f00000000000000000000000000000000000000000000000000000000000000010000000000000000000000000000000000000000000000000000000000000060000000000000000000000000000000000000000000000000000000000000001600030100110100000000000000000000000000030d4000000000000000000000000000000000000000000000000000000000000000000000000000000000759f0000000000000000000000000000000000000000000000000000000000000002000000000000000000000000000000000000000000000000000000000000006000000000000000000000000000000000000000000000000000000000000000160003010011010000000000000000000000000003d09000000000000000000000000000000000000000000000000000000000000000000000000000000000759a00000000000000000000000000000000000000000000000000000000000000010000000000000000000000000000000000000000000000000000000000000060000000000000000000000000000000000000000000000000000000000000001600030100110100000000000000000000000000030d4000000000000000000000000000000000000000000000000000000000000000000000000000000000759a0000000000000000000000000000000000000000000000000000000000000002000000000000000000000000000000000000000000000000000000000000006000000000000000000000000000000000000000000000000000000000000000160003010011010000000000000000000000000003d09000000000000000000000000000000000000000000000000000000000000000000000000000000000759600000000000000000000000000000000000000000000000000000000000000010000000000000000000000000000000000000000000000000000000000000060000000000000000000000000000000000000000000000000000000000000001600030100110100000000000000000000000000030d400000000000000000000000000000000000000000000000000000000000000000000000000000000075960000000000000000000000000000000000000000000000000000000000000002000000000000000000000000000000000000000000000000000000000000006000000000000000000000000000000000000000000000000000000000000000160003010011010000000000000000000000000003d0900000000000000000000000000000000000000000000000000000000000000000000000000000000075ce00000000000000000000000000000000000000000000000000000000000000010000000000000000000000000000000000000000000000000000000000000060000000000000000000000000000000000000000000000000000000000000001600030100110100000000000000000000000000030d400000000000000000000000000000000000000000000000000000000000000000000000000000000075ce0000000000000000000000000000000000000000000000000000000000000002000000000000000000000000000000000000000000000000000000000000006000000000000000000000000000000000000000000000000000000000000000160003010011010000000000000000000000000003d09000000000000000000000000000000000000000000000000000000000000000000000000000000000759500000000000000000000000000000000000000000000000000000000000000010000000000000000000000000000000000000000000000000000000000000060000000000000000000000000000000000000000000000000000000000000001600030100110100000000000000000000000000030d400000000000000000000000000000000000000000000000000000000000000000000000000000000075950000000000000000000000000000000000000000000000000000000000000002000000000000000000000000000000000000000000000000000000000000006000000000000000000000000000000000000000000000000000000000000000160003010011010000000000000000000000000003d09000000000000000000000000000000000000000000000000000000000000000000000000000000000762300000000000000000000000000000000000000000000000000000000000000010000000000000000000000000000000000000000000000000000000000000060000000000000000000000000000000000000000000000000000000000000001600030100110100000000000000000000000000030d400000000000000000000000000000000000000000000000000000000000000000000000000000000076230000000000000000000000000000000000000000000000000000000000000002000000000000000000000000000000000000000000000000000000000000006000000000000000000000000000000000000000000000000000000000000000160003010011010000000000000000000000000003d0900000000000000000000000000000000000000000000000000000000000000000000000000000000075e800000000000000000000000000000000000000000000000000000000000000010000000000000000000000000000000000000000000000000000000000000060000000000000000000000000000000000000000000000000000000000000001600030100110100000000000000000000000000030d400000000000000000000000000000000000000000000000000000000000000000000000000000000075e80000000000000000000000000000000000000000000000000000000000000002000000000000000000000000000000000000000000000000000000000000006000000000000000000000000000000000000000000000000000000000000000160003010011010000000000000000000000000003d09000000000000000000000000000000000000000000000000000000000000000000000000000000000769a00000000000000000000000000000000000000000000000000000000000000010000000000000000000000000000000000000000000000000000000000000060000000000000000000000000000000000000000000000000000000000000001600030100110100000000000000000000000000030d4000000000000000000000000000000000000000000000000000000000000000000000000000000000769a0000000000000000000000000000000000000000000000000000000000000002000000000000000000000000000000000000000000000000000000000000006000000000000000000000000000000000000000000000000000000000000000160003010011010000000000000000000000000003d0900000000000000000000000000000000000000000000000000000000000000000000000000000000075e700000000000000000000000000000000000000000000000000000000000000010000000000000000000000000000000000000000000000000000000000000060000000000000000000000000000000000000000000000000000000000000001600030100110100000000000000000000000000030d400000000000000000000000000000000000000000000000000000000000000000000000000000000075e70000000000000000000000000000000000000000000000000000000000000002000000000000000000000000000000000000000000000000000000000000006000000000000000000000000000000000000000000000000000000000000000160003010011010000000000000000000000000003d09000000000000000000000000000000000000000000000000000000000000000000000000000000000766f00000000000000000000000000000000000000000000000000000000000000010000000000000000000000000000000000000000000000000000000000000060000000000000000000000000000000000000000000000000000000000000001600030100110100000000000000000000000000030d4000000000000000000000000000000000000000000000000000000000000000000000000000000000766f0000000000000000000000000000000000000000000000000000000000000002000000000000000000000000000000000000000000000000000000000000006000000000000000000000000000000000000000000000000000000000000000160003010011010000000000000000000000000003d09000000000000000000000000000000000000000000000000000000000000000000000000000000000767000000000000000000000000000000000000000000000000000000000000000010000000000000000000000000000000000000000000000000000000000000060000000000000000000000000000000000000000000000000000000000000001600030100110100000000000000000000000000030d400000000000000000000000000000000000000000000000000000000000000000000000000000000076700000000000000000000000000000000000000000000000000000000000000002000000000000000000000000000000000000000000000000000000000000006000000000000000000000000000000000000000000000000000000000000000160003010011010000000000000000000000000003d0900000000000000000000000000000000000000000000000000000000000000000000000000000000076a200000000000000000000000000000000000000000000000000000000000000010000000000000000000000000000000000000000000000000000000000000060000000000000000000000000000000000000000000000000000000000000001600030100110100000000000000000000000000030d400000000000000000000000000000000000000000000000000000000000000000000000000000000076a20000000000000000000000000000000000000000000000000000000000000002000000000000000000000000000000000000000000000000000000000000006000000000000000000000000000000000000000000000000000000000000000160003010011010000000000000000000000000003d0900000000000000000000000000000000000000000000000000000000000000000000000000000000076a800000000000000000000000000000000000000000000000000000000000000010000000000000000000000000000000000000000000000000000000000000060000000000000000000000000000000000000000000000000000000000000001600030100110100000000000000000000000000030d400000000000000000000000000000000000000000000000000000000000000000000000000000000076a80000000000000000000000000000000000000000000000000000000000000002000000000000000000000000000000000000000000000000000000000000006000000000000000000000000000000000000000000000000000000000000000160003010011010000000000000000000000000003d0900000000000000000000000000000000000000000000000000000000000000000000000000000000076a700000000000000000000000000000000000000000000000000000000000000010000000000000000000000000000000000000000000000000000000000000060000000000000000000000000000000000000000000000000000000000000001600030100110100000000000000000000000000030d400000000000000000000000000000000000000000000000000000000000000000000000000000000076a70000000000000000000000000000000000000000000000000000000000000002000000000000000000000000000000000000000000000000000000000000006000000000000000000000000000000000000000000000000000000000000000160003010011010000000000000000000000000003d09000000000000000000000000000000000000000000000000000000000000000000000000000000000760300000000000000000000000000000000000000000000000000000000000000010000000000000000000000000000000000000000000000000000000000000060000000000000000000000000000000000000000000000000000000000000001600030100110100000000000000000000000000030d400000000000000000000000000000000000000000000000000000000000000000000000000000000076030000000000000000000000000000000000000000000000000000000000000002000000000000000000000000000000000000000000000000000000000000006000000000000000000000000000000000000000000000000000000000000000160003010011010000000000000000000000000003d09000000000000000000000000000000000000000000000000000000000000000000000000000000000760600000000000000000000000000000000000000000000000000000000000000010000000000000000000000000000000000000000000000000000000000000060000000000000000000000000000000000000000000000000000000000000001600030100110100000000000000000000000000030d400000000000000000000000000000000000000000000000000000000000000000000000000000000076060000000000000000000000000000000000000000000000000000000000000002000000000000000000000000000000000000000000000000000000000000006000000000000000000000000000000000000000000000000000000000000000160003010011010000000000000000000000000003d09000000000000000000000000000000000000000000000000000000000000000000000000000000000767400000000000000000000000000000000000000000000000000000000000000010000000000000000000000000000000000000000000000000000000000000060000000000000000000000000000000000000000000000000000000000000001600030100110100000000000000000000000000030d400000000000000000000000000000000000000000000000000000000000000000000000000000000076740000000000000000000000000000000000000000000000000000000000000002000000000000000000000000000000000000000000000000000000000000006000000000000000000000000000000000000000000000000000000000000000160003010011010000000000000000000000000003d0900000000000000000000000000000000000000000000000000000000000000000000000000000000075d500000000000000000000000000000000000000000000000000000000000000010000000000000000000000000000000000000000000000000000000000000060000000000000000000000000000000000000000000000000000000000000001600030100110100000000000000000000000000030d400000000000000000000000000000000000000000000000000000000000000000000000000000000075d50000000000000000000000000000000000000000000000000000000000000002000000000000000000000000000000000000000000000000000000000000006000000000000000000000000000000000000000000000000000000000000000160003010011010000000000000000000000000003d09000000000000000000000",
          "blockHash": "0x649bada65f7e07d70b0b8a486876ab1abbdd61d1b55d3922645688b93415fa6e",
          "blockNumber": "0x4874178",
          "transactionHash": "0xbaf763936c9ddb03d61e3f67463fb79e5ba312e3326efbc27aa659799244d855",
          "transactionIndex": "0x3f",
          "logIndex": "0x2f4",
          "removed": false
        },
        {
          "address": "0x0000000000000000000000000000000000001010",
          "topics": [
            "0x4dfe1bbbcf077ddc3e01291eea2d5c70c2b422b415d95645b9adcfd678cb1d63",
            "0x0000000000000000000000000000000000000000000000000000000000001010",
            "0x00000000000000000000000045dce8e4f2dc005a5f28206a46cb034697eeda8e",
            "0x000000000000000000000000a8b52f02108aa5f4b675bdcc973760022d7c6020"
          ],
          "data": "0x000000000000000000000000000000000000000000000000002ccb14fb942dc500000000000000000000000000000000000000000000000009f045ad97159a86000000000000000000000000000000000000000000000080711a32ada28c74e500000000000000000000000000000000000000000000000009c37a989b816cc10000000000000000000000000000000000000000000000807146fdc29e20a2aa",
          "blockHash": "0x649bada65f7e07d70b0b8a486876ab1abbdd61d1b55d3922645688b93415fa6e",
          "blockNumber": "0x4874178",
          "transactionHash": "0xbaf763936c9ddb03d61e3f67463fb79e5ba312e3326efbc27aa659799244d855",
          "transactionIndex": "0x3f",
          "logIndex": "0x2f5",
          "removed": false
        }
      ],
      "logsBloom": "0x00000000000000000000000200040000000000000000000000000000000000000000000000000000000000000002000400008000000000000000400000000000000000000000000000000000000000800000000000000000000100000000000000000000000000000000000000000000000000000000000080000000000000000000000000000000000000000000000000000000000000040000000000080000200000002000004000000000000000000000000000000000000000000000004000000000000000000001000002000000001000000000000000100000000000000000000000000000000000000000800000000000000000000000000000100000",
      "type": "0x2",
      "transactionHash": "0xbaf763936c9ddb03d61e3f67463fb79e5ba312e3326efbc27aa659799244d855",
      "transactionIndex": "0x3f",
      "blockHash": "0x649bada65f7e07d70b0b8a486876ab1abbdd61d1b55d3922645688b93415fa6e",
      "blockNumber": "0x4874178",
      "gasUsed": "0x78115",
      "effectiveGasPrice": "0x5f8155fa1",
      "from": "0x45dce8e4f2dc005a5f28206a46cb034697eeda8e",
      "to": "0x57558cb8d6005de0bae8a2789d5efaae52dba5a8",
      "contractAddress": null
    },
    {
      "status": "0x1",
      "cumulativeGasUsed": "0xce94ce",
      "logs": [
        {
          "address": "0x57558cb8d6005de0bae8a2789d5efaae52dba5a8",
          "topics": [
            "0x238399d427b947898edb290f5ff0f9109849b1c3ba196a42e35f00c50a54b98b"
          ],
          "data": "0x0000000000000000000000000000000000000000000000000000000000007603000000000000000000000000a057d8d4fc86a62801ce363c169b0a8d192f6cee",
          "blockHash": "0x649bada65f7e07d70b0b8a486876ab1abbdd61d1b55d3922645688b93415fa6e",
          "blockNumber": "0x4874178",
          "transactionHash": "0x677bcc1d7d67fd0c0bdf40227f0c04de932510ede5fe9404ed4c755223dd3628",
          "transactionIndex": "0x40",
          "logIndex": "0x2f6",
          "removed": false
        },
        {
          "address": "0x0000000000000000000000000000000000001010",
          "topics": [
            "0x4dfe1bbbcf077ddc3e01291eea2d5c70c2b422b415d95645b9adcfd678cb1d63",
            "0x0000000000000000000000000000000000000000000000000000000000001010",
            "0x00000000000000000000000045dce8e4f2dc005a5f28206a46cb034697eeda8e",
            "0x000000000000000000000000a8b52f02108aa5f4b675bdcc973760022d7c6020"
          ],
          "data": "0x000000000000000000000000000000000000000000000000000502acc3547ab300000000000000000000000000000000000000000000000009c37a97dabda1510000000000000000000000000000000000000000000000807146fdc29e20a2aa00000000000000000000000000000000000000000000000009be77eb1769269e000000000000000000000000000000000000000000000080714c006f61751d5d",
          "blockHash": "0x649bada65f7e07d70b0b8a486876ab1abbdd61d1b55d3922645688b93415fa6e",
          "blockNumber": "0x4874178",
          "transactionHash": "0x677bcc1d7d67fd0c0bdf40227f0c04de932510ede5fe9404ed4c755223dd3628",
          "transactionIndex": "0x40",
          "logIndex": "0x2f7",
          "removed": false
        }
      ],
      "logsBloom": "0x00000000000000000000000200040000000000000000000000000000000000000000000000000000000000000002000400008000000000000800000000000000000000000000000000000000000000800000000000000000000100000000000000000000000000000000000000000000000000000000000080000000000000000000000000000000000000000000000000000000000000040000000000000000200000002000004000000000000000000000000000000000000002000000004000000000000000000001000000000000001000000000000000140000000000000000000000000000000000000000800000000000000000000000000000100000",
      "type": "0x2",
      "transactionHash": "0x677bcc1d7d67fd0c0bdf40227f0c04de932510ede5fe9404ed4c755223dd3628",
      "transactionIndex": "0x40",
      "blockHash": "0x649bada65f7e07d70b0b8a486876ab1abbdd61d1b55d3922645688b93415fa6e",
      "blockNumber": "0x4874178",
      "gasUsed": "0xd6e3",
      "effectiveGasPrice": "0x5f8155fa1",
      "from": "0x45dce8e4f2dc005a5f28206a46cb034697eeda8e",
      "to": "0x57558cb8d6005de0bae8a2789d5efaae52dba5a8",
      "contractAddress": null
    },
    {
      "status": "0x1",
      "cumulativeGasUsed": "0xcf6ba5",
      "logs": [
        {
          "address": "0x57558cb8d6005de0bae8a2789d5efaae52dba5a8",
          "topics": [
            "0x238399d427b947898edb290f5ff0f9109849b1c3ba196a42e35f00c50a54b98b"
          ],
          "data": "0x000000000000000000000000000000000000000000000000000000000000760600000000000000000000000057558cb8d6005de0bae8a2789d5efaae52dba5a8",
          "blockHash": "0x649bada65f7e07d70b0b8a486876ab1abbdd61d1b55d3922645688b93415fa6e",
          "blockNumber": "0x4874178",
          "transactionHash": "0xdaf20111d2d71e51a91dd5ad323fe5418541a68c3d77430dd9ec33d256100329",
          "transactionIndex": "0x41",
          "logIndex": "0x2f8",
          "removed": false
        },
        {
          "address": "0x0000000000000000000000000000000000001010",
          "topics": [
            "0x4dfe1bbbcf077ddc3e01291eea2d5c70c2b422b415d95645b9adcfd678cb1d63",
            "0x0000000000000000000000000000000000000000000000000000000000001010",
            "0x00000000000000000000000045dce8e4f2dc005a5f28206a46cb034697eeda8e",
            "0x000000000000000000000000a8b52f02108aa5f4b675bdcc973760022d7c6020"
          ],
          "data": "0x000000000000000000000000000000000000000000000000000502652255336700000000000000000000000000000000000000000000000009be77eb01d93f8e000000000000000000000000000000000000000000000080714c006f61751d5d00000000000000000000000000000000000000000000000009b97585df840c27000000000000000000000000000000000000000000000080715102d483ca50c4",
          "blockHash": "0x649bada65f7e07d70b0b8a486876ab1abbdd61d1b55d3922645688b93415fa6e",
          "blockNumber": "0x4874178",
          "transactionHash": "0xdaf20111d2d71e51a91dd5ad323fe5418541a68c3d77430dd9ec33d256100329",
          "transactionIndex": "0x41",
          "logIndex": "0x2f9",
          "removed": false
        }
      ],
      "logsBloom": "0x00000000000000000000000200040000000000000000000000000000000000000000000000000000000000000002000400008000000000000800000000000000000000000000000000000000000000800000000000000000000100000000000000000000000000000000000000000000000000000000000080000000000000000000000000000000000000000000000000000000000000040000000000000000200000002000004000000000000000000000000000000000000002000000004000000000000000000001000000000000001000000000000000140000000000000000000000000000000000000000800000000000000000000000000000100000",
      "type": "0x2",
      "transactionHash": "0xdaf20111d2d71e51a91dd5ad323fe5418541a68c3d77430dd9ec33d256100329",
      "transactionIndex": "0x41",
      "blockHash": "0x649bada65f7e07d70b0b8a486876ab1abbdd61d1b55d3922645688b93415fa6e",
      "blockNumber": "0x4874178",
      "gasUsed": "0xd6d7",
      "effectiveGasPrice": "0x5f8155fa1",
      "from": "0x45dce8e4f2dc005a5f28206a46cb034697eeda8e",
      "to": "0x57558cb8d6005de0bae8a2789d5efaae52dba5a8",
      "contractAddress": null
    },
    {
      "status": "0x1",
      "cumulativeGasUsed": "0xd1e6a2",
      "logs": [
        {
          "address": "0x6c26c61a97006888ea9e4fa36584c7df57cd9da3",
          "topics": [
            "0x82118522aa536ac0e96cc5c689407ae42b89d592aa133890a01f1509842f5081"
          ],
          "data": "0x00000000000000000000000057558cb8d6005de0bae8a2789d5efaae52dba5a800000000000000000000000000000000000000000000000000000000000076030000000000000000000000000000000000000000000000000000000000000060000000000000000000000000000000000000000000000000000000000000000000000000000000000000000000000000000000000000000000000000000000030000000000000000000000000000000000000000000000000000000000000000000000000000000000000000000000000000000000000000000000000000000000000000000000000000000000000000000000000000000000000000000000c00000000000000000000000000000000000000000000000000000000000000140000000000000000000000000000000000000000000000000000000000000000300000000000000000000000023de2fe932d9043291f870324b74f820e11dc81a00000000000000000000000025e0e650a78e6304a3983fc4b7ffc6544b1beea6000000000000000000000000dab6e6ecb3513a8d2614ad75199b4b264a7310500000000000000000000000000000000000000000000000000000000000000000",
          "blockHash": "0x649bada65f7e07d70b0b8a486876ab1abbdd61d1b55d3922645688b93415fa6e",
          "blockNumber": "0x4874178",
          "transactionHash": "0x8b8e071296bd7057081ead312c91dd393f7a4e4597edd3bfddc476945176085b",
          "transactionIndex": "0x42",
          "logIndex": "0x2fa",
          "removed": false
        },
        {
          "address": "0x0000000000000000000000000000000000001010",
          "topics": [
            "0x4dfe1bbbcf077ddc3e01291eea2d5c70c2b422b415d95645b9adcfd678cb1d63",
            "0x0000000000000000000000000000000000000000000000000000000000001010",
            "0x00000000000000000000000045dce8e4f2dc005a5f28206a46cb034697eeda8e",
            "0x000000000000000000000000a8b52f02108aa5f4b675bdcc973760022d7c6020"
          ],
          "data": "0x000000000000000000000000000000000000000000000000000ece4adc3cf92d00000000000000000000000000000000000000000000000009b97585c9f55957000000000000000000000000000000000000000000000080715102d483ca50c400000000000000000000000000000000000000000000000009aaa73aedb8602a000000000000000000000000000000000000000000000080715fd11f600749f1",
          "blockHash": "0x649bada65f7e07d70b0b8a486876ab1abbdd61d1b55d3922645688b93415fa6e",
          "blockNumber": "0x4874178",
          "transactionHash": "0x8b8e071296bd7057081ead312c91dd393f7a4e4597edd3bfddc476945176085b",
          "transactionIndex": "0x42",
          "logIndex": "0x2fb",
          "removed": false
        }
      ],
      "logsBloom": "0x00000000000000000000000200000000000000000000000000000000000000000000004000000000000000000002000000008000000000000000000000000000000000000000000000000000000000800000000000000000002100000000000000000000000000000000000000000000000000000000000080000000000000000000000000000000000000000000000000000000000000040000010000000000200000000000004000000002000000000000000000000000000000000000004000000000000000000001000000000000001000000000000000180000000000000000000000000000000000000000800000000000000000000000000000100010",
      "type": "0x2",
      "transactionHash": "0x8b8e071296bd7057081ead312c91dd393f7a4e4597edd3bfddc476945176085b",
      "transactionIndex": "0x42",
      "blockHash": "0x649bada65f7e07d70b0b8a486876ab1abbdd61d1b55d3922645688b93415fa6e",
      "blockNumber": "0x4874178",
      "gasUsed": "0x27afd",
      "effectiveGasPrice": "0x5f8155fa1",
      "from": "0x45dce8e4f2dc005a5f28206a46cb034697eeda8e",
      "to": "0x1a44076050125825900e736c501f859c50fe728c",
      "contractAddress": null
    },
    {
      "status": "0x1",
      "cumulativeGasUsed": "0xd460b5",
      "logs": [
        {
          "address": "0x1322871e4ab09bc7f5717189434f97bbd9546e95",
          "topics": [
            "0x82118522aa536ac0e96cc5c689407ae42b89d592aa133890a01f1509842f5081"
          ],
          "data": "0x00000000000000000000000057558cb8d6005de0bae8a2789d5efaae52dba5a800000000000000000000000000000000000000000000000000000000000076030000000000000000000000000000000000000000000000000000000000000060000000000000000000000000000000000000000000000000000000000000000000000000000000000000000000000000000000000000000000000000000000030000000000000000000000000000000000000000000000000000000000000000000000000000000000000000000000000000000000000000000000000000000000000000000000000000000000000000000000000000000000000000000000c00000000000000000000000000000000000000000000000000000000000000140000000000000000000000000000000000000000000000000000000000000000300000000000000000000000023de2fe932d9043291f870324b74f820e11dc81a00000000000000000000000025e0e650a78e6304a3983fc4b7ffc6544b1beea6000000000000000000000000dab6e6ecb3513a8d2614ad75199b4b264a7310500000000000000000000000000000000000000000000000000000000000000000",
          "blockHash": "0x649bada65f7e07d70b0b8a486876ab1abbdd61d1b55d3922645688b93415fa6e",
          "blockNumber": "0x4874178",
          "transactionHash": "0x132f6736314618e373ffe1723ef0fb11b825b91520396870c91fc6be0c736d5b",
          "transactionIndex": "0x43",
          "logIndex": "0x2fc",
          "removed": false
        },
        {
          "address": "0x0000000000000000000000000000000000001010",
          "topics": [
            "0x4dfe1bbbcf077ddc3e01291eea2d5c70c2b422b415d95645b9adcfd678cb1d63",
            "0x0000000000000000000000000000000000000000000000000000000000001010",
            "0x00000000000000000000000045dce8e4f2dc005a5f28206a46cb034697eeda8e",
            "0x000000000000000000000000a8b52f02108aa5f4b675bdcc973760022d7c6020"
          ],
          "data": "0x000000000000000000000000000000000000000000000000000ec8d618cb0ae300000000000000000000000000000000000000000000000009aaa73aae011d3a000000000000000000000000000000000000000000000080715fd11f600749f1000000000000000000000000000000000000000000000000099bde6495361257000000000000000000000000000000000000000000000080716e99f578d254d4",
          "blockHash": "0x649bada65f7e07d70b0b8a486876ab1abbdd61d1b55d3922645688b93415fa6e",
          "blockNumber": "0x4874178",
          "transactionHash": "0x132f6736314618e373ffe1723ef0fb11b825b91520396870c91fc6be0c736d5b",
          "transactionIndex": "0x43",
          "logIndex": "0x2fd",
          "removed": false
        }
      ],
      "logsBloom": "0x00000000000000000000000200000000000000000000000000000000000000000000000000000000000000000006000000008000000000000000000000000000000000000000000000000000000000800000000000000000002100000000000000000000000000000000000000000000000000000000000080000000000000000000000000000000000000000000800000000000000000040000000000000000200000000000004000000002000000000000000000000000000000000000004000000000000000000001000000000000001000000000000000100000000000000000000000000000000000000000800000000000000000000000000000100010",
      "type": "0x2",
      "transactionHash": "0x132f6736314618e373ffe1723ef0fb11b825b91520396870c91fc6be0c736d5b",
      "transactionIndex": "0x43",
      "blockHash": "0x649bada65f7e07d70b0b8a486876ab1abbdd61d1b55d3922645688b93415fa6e",
      "blockNumber": "0x4874178",
      "gasUsed": "0x27a13",
      "effectiveGasPrice": "0x5f8155fa1",
      "from": "0x45dce8e4f2dc005a5f28206a46cb034697eeda8e",
      "to": "0x1a44076050125825900e736c501f859c50fe728c",
      "contractAddress": null
    },
    {
      "status": "0x1",
      "cumulativeGasUsed": "0xd6dbb2",
      "logs": [
        {
          "address": "0x6c26c61a97006888ea9e4fa36584c7df57cd9da3",
          "topics": [
            "0x82118522aa536ac0e96cc5c689407ae42b89d592aa133890a01f1509842f5081"
          ],
          "data": "0x00000000000000000000000057558cb8d6005de0bae8a2789d5efaae52dba5a800000000000000000000000000000000000000000000000000000000000076060000000000000000000000000000000000000000000000000000000000000060000000000000000000000000000000000000000000000000000000000000000000000000000000000000000000000000000000000000000000000000000000030000000000000000000000000000000000000000000000000000000000000000000000000000000000000000000000000000000000000000000000000000000000000000000000000000000000000000000000000000000000000000000000c00000000000000000000000000000000000000000000000000000000000000140000000000000000000000000000000000000000000000000000000000000000300000000000000000000000023de2fe932d9043291f870324b74f820e11dc81a00000000000000000000000025e0e650a78e6304a3983fc4b7ffc6544b1beea6000000000000000000000000dab6e6ecb3513a8d2614ad75199b4b264a7310500000000000000000000000000000000000000000000000000000000000000000",
          "blockHash": "0x649bada65f7e07d70b0b8a486876ab1abbdd61d1b55d3922645688b93415fa6e",
          "blockNumber": "0x4874178",
          "transactionHash": "0xef5d9d5f7b074119d30ed5a29963ac173b89b5da5a97ad63422361a5a0455a68",
          "transactionIndex": "0x44",
          "logIndex": "0x2fe",
          "removed": false
        },
        {
          "address": "0x0000000000000000000000000000000000001010",
          "topics": [
            "0x4dfe1bbbcf077ddc3e01291eea2d5c70c2b422b415d95645b9adcfd678cb1d63",
            "0x0000000000000000000000000000000000000000000000000000000000001010",
            "0x00000000000000000000000045dce8e4f2dc005a5f28206a46cb034697eeda8e",
            "0x000000000000000000000000a8b52f02108aa5f4b675bdcc973760022d7c6020"
          ],
          "data": "0x000000000000000000000000000000000000000000000000000ece4adc3cf92d000000000000000000000000000000000000000000000000099bde6455964a47000000000000000000000000000000000000000000000080716e99f578d254d4000000000000000000000000000000000000000000000000098d10197959511a000000000000000000000000000000000000000000000080717d6840550f4e01",
          "blockHash": "0x649bada65f7e07d70b0b8a486876ab1abbdd61d1b55d3922645688b93415fa6e",
          "blockNumber": "0x4874178",
          "transactionHash": "0xef5d9d5f7b074119d30ed5a29963ac173b89b5da5a97ad63422361a5a0455a68",
          "transactionIndex": "0x44",
          "logIndex": "0x2ff",
          "removed": false
        }
      ],
      "logsBloom": "0x00000000000000000000000200000000000000000000000000000000000000000000004000000000000000000002000000008000000000000000000000000000000000000000000000000000000000800000000000000000002100000000000000000000000000000000000000000000000000000000000080000000000000000000000000000000000000000000000000000000000000040000010000000000200000000000004000000002000000000000000000000000000000000000004000000000000000000001000000000000001000000000000000180000000000000000000000000000000000000000800000000000000000000000000000100010",
      "type": "0x2",
      "transactionHash": "0xef5d9d5f7b074119d30ed5a29963ac173b89b5da5a97ad63422361a5a0455a68",
      "transactionIndex": "0x44",
      "blockHash": "0x649bada65f7e07d70b0b8a486876ab1abbdd61d1b55d3922645688b93415fa6e",
      "blockNumber": "0x4874178",
      "gasUsed": "0x27afd",
      "effectiveGasPrice": "0x5f8155fa1",
      "from": "0x45dce8e4f2dc005a5f28206a46cb034697eeda8e",
      "to": "0x1a44076050125825900e736c501f859c50fe728c",
      "contractAddress": null
    },
    {
      "status": "0x1",
      "cumulativeGasUsed": "0xd955c5",
      "logs": [
        {
          "address": "0x1322871e4ab09bc7f5717189434f97bbd9546e95",
          "topics": [
            "0x82118522aa536ac0e96cc5c689407ae42b89d592aa133890a01f1509842f5081"
          ],
          "data": "0x00000000000000000000000057558cb8d6005de0bae8a2789d5efaae52dba5a800000000000000000000000000000000000000000000000000000000000076060000000000000000000000000000000000000000000000000000000000000060000000000000000000000000000000000000000000000000000000000000000000000000000000000000000000000000000000000000000000000000000000030000000000000000000000000000000000000000000000000000000000000000000000000000000000000000000000000000000000000000000000000000000000000000000000000000000000000000000000000000000000000000000000c00000000000000000000000000000000000000000000000000000000000000140000000000000000000000000000000000000000000000000000000000000000300000000000000000000000023de2fe932d9043291f870324b74f820e11dc81a00000000000000000000000025e0e650a78e6304a3983fc4b7ffc6544b1beea6000000000000000000000000dab6e6ecb3513a8d2614ad75199b4b264a7310500000000000000000000000000000000000000000000000000000000000000000",
          "blockHash": "0x649bada65f7e07d70b0b8a486876ab1abbdd61d1b55d3922645688b93415fa6e",
          "blockNumber": "0x4874178",
          "transactionHash": "0x48c4cb5d09edc035de53c2afda9931907e1aa20c8691a391205900bb62f6fd8e",
          "transactionIndex": "0x45",
          "logIndex": "0x300",
          "removed": false
        },
        {
          "address": "0x0000000000000000000000000000000000001010",
          "topics": [
            "0x4dfe1bbbcf077ddc3e01291eea2d5c70c2b422b415d95645b9adcfd678cb1d63",
            "0x0000000000000000000000000000000000000000000000000000000000001010",
            "0x00000000000000000000000045dce8e4f2dc005a5f28206a46cb034697eeda8e",
            "0x000000000000000000000000a8b52f02108aa5f4b675bdcc973760022d7c6020"
          ],
          "data": "0x000000000000000000000000000000000000000000000000000ec8d618cb0ae3000000000000000000000000000000000000000000000000098d101939a20e2a000000000000000000000000000000000000000000000080717d6840550f4e01000000000000000000000000000000000000000000000000097e474320d70347000000000000000000000000000000000000000000000080718c31166dda58e4",
          "blockHash": "0x649bada65f7e07d70b0b8a486876ab1abbdd61d1b55d3922645688b93415fa6e",
          "blockNumber": "0x4874178",
          "transactionHash": "0x48c4cb5d09edc035de53c2afda9931907e1aa20c8691a391205900bb62f6fd8e",
          "transactionIndex": "0x45",
          "logIndex": "0x301",
          "removed": false
        }
      ],
      "logsBloom": "0x00000000000000000000000200000000000000000000000000000000000000000000000000000000000000000006000000008000000000000000000000000000000000000000000000000000000000800000000000000000002100000000000000000000000000000000000000000000000000000000000080000000000000000000000000000000000000000000800000000000000000040000000000000000200000000000004000000002000000000000000000000000000000000000004000000000000000000001000000000000001000000000000000100000000000000000000000000000000000000000800000000000000000000000000000100010",
      "type": "0x2",
      "transactionHash": "0x48c4cb5d09edc035de53c2afda9931907e1aa20c8691a391205900bb62f6fd8e",
      "transactionIndex": "0x45",
      "blockHash": "0x649bada65f7e07d70b0b8a486876ab1abbdd61d1b55d3922645688b93415fa6e",
      "blockNumber": "0x4874178",
      "gasUsed": "0x27a13",
      "effectiveGasPrice": "0x5f8155fa1",
      "from": "0x45dce8e4f2dc005a5f28206a46cb034697eeda8e",
      "to": "0x1a44076050125825900e736c501f859c50fe728c",
      "contractAddress": null
    },
    {
      "status": "0x1",
      "cumulativeGasUsed": "0xda373b",
      "logs": [
        {
          "address": "0x1a44076050125825900e736c501f859c50fe728c",
          "topics": [
            "0x4cff966ebee29a156dcb34cf72c1d06231fb1777f6bdf6e8089819232f002b1c"
          ],
          "data": "0x00000000000000000000000057558cb8d6005de0bae8a2789d5efaae52dba5a800000000000000000000000000000000000000000000000000000000000076030000000000000000000000006c26c61a97006888ea9e4fa36584c7df57cd9da3",
          "blockHash": "0x649bada65f7e07d70b0b8a486876ab1abbdd61d1b55d3922645688b93415fa6e",
          "blockNumber": "0x4874178",
          "transactionHash": "0x2c88ab7cd9da83fcd22998ef4bf414663f32146150e098650c0fb3f89c8d5954",
          "transactionIndex": "0x46",
          "logIndex": "0x302",
          "removed": false
        },
        {
          "address": "0x0000000000000000000000000000000000001010",
          "topics": [
            "0x4dfe1bbbcf077ddc3e01291eea2d5c70c2b422b415d95645b9adcfd678cb1d63",
            "0x0000000000000000000000000000000000000000000000000000000000001010",
            "0x00000000000000000000000045dce8e4f2dc005a5f28206a46cb034697eeda8e",
            "0x000000000000000000000000a8b52f02108aa5f4b675bdcc973760022d7c6020"
          ],
          "data": "0x000000000000000000000000000000000000000000000000000541cb0c470e16000000000000000000000000000000000000000000000000097e4742e1373b37000000000000000000000000000000000000000000000080718c31166dda58e400000000000000000000000000000000000000000000000009790577d4f02d21000000000000000000000000000000000000000000000080719172e17a2166fa",
          "blockHash": "0x649bada65f7e07d70b0b8a486876ab1abbdd61d1b55d3922645688b93415fa6e",
          "blockNumber": "0x4874178",
          "transactionHash": "0x2c88ab7cd9da83fcd22998ef4bf414663f32146150e098650c0fb3f89c8d5954",
          "transactionIndex": "0x46",
          "logIndex": "0x303",
          "removed": false
        }
      ],
      "logsBloom": "0x00000000000000000000000200000000000200000000000000000000001000000000000000000000000000000002000000008000000000000000000001000000000000000000000000000000000000800000000000000000000100000000000000000000000000000000000000000000000000000010000080000000000000000000000000000000000000000000000000000000000000040000000000000000200000000000004000000000000000000000000000000000000000000000004000000000000000000001000000000000001000000000000000100000000000000040000000000000000000000000800000000000010000000000000000100000",
      "type": "0x2",
      "transactionHash": "0x2c88ab7cd9da83fcd22998ef4bf414663f32146150e098650c0fb3f89c8d5954",
      "transactionIndex": "0x46",
      "blockHash": "0x649bada65f7e07d70b0b8a486876ab1abbdd61d1b55d3922645688b93415fa6e",
      "blockNumber": "0x4874178",
      "gasUsed": "0xe176",
      "effectiveGasPrice": "0x5f8155fa1",
      "from": "0x45dce8e4f2dc005a5f28206a46cb034697eeda8e",
      "to": "0x1a44076050125825900e736c501f859c50fe728c",
      "contractAddress": null
    },
    {
      "status": "0x1",
      "cumulativeGasUsed": "0xdb32d0",
      "logs": [
        {
          "address": "0x1a44076050125825900e736c501f859c50fe728c",
          "topics": [
            "0xcd6f92f5ac6185a5acfa02c92090746cec64d777269cbcd0ed031e396657a1c2"
          ],
          "data": "0x00000000000000000000000057558cb8d6005de0bae8a2789d5efaae52dba5a800000000000000000000000000000000000000000000000000000000000076030000000000000000000000001322871e4ab09bc7f5717189434f97bbd9546e95",
          "blockHash": "0x649bada65f7e07d70b0b8a486876ab1abbdd61d1b55d3922645688b93415fa6e",
          "blockNumber": "0x4874178",
          "transactionHash": "0x548940919785980056bf0ed7a177e2b694286574a35b683aa2a42a2ecc626d8f",
          "transactionIndex": "0x47",
          "logIndex": "0x304",
          "removed": false
        },
        {
          "address": "0x1a44076050125825900e736c501f859c50fe728c",
          "topics": [
            "0x4e0a5bbfa0c11a64effb1ada324b5437a17272e1aed9320398715ef71bb20928"
          ],
          "data": "0x00000000000000000000000057558cb8d6005de0bae8a2789d5efaae52dba5a8000000000000000000000000000000000000000000000000000000000000760300000000000000000000000000000000000000000000000000000000000000000000000000000000000000000000000000000000000000000000000000000000",
          "blockHash": "0x649bada65f7e07d70b0b8a486876ab1abbdd61d1b55d3922645688b93415fa6e",
          "blockNumber": "0x4874178",
          "transactionHash": "0x548940919785980056bf0ed7a177e2b694286574a35b683aa2a42a2ecc626d8f",
          "transactionIndex": "0x47",
          "logIndex": "0x305",
          "removed": false
        },
        {
          "address": "0x0000000000000000000000000000000000001010",
          "topics": [
            "0x4dfe1bbbcf077ddc3e01291eea2d5c70c2b422b415d95645b9adcfd678cb1d63",
            "0x0000000000000000000000000000000000000000000000000000000000001010",
            "0x00000000000000000000000045dce8e4f2dc005a5f28206a46cb034697eeda8e",
            "0x000000000000000000000000a8b52f02108aa5f4b675bdcc973760022d7c6020"
          ],
          "data": "0x0000000000000000000000000000000000000000000000000005ddb63ff5004500000000000000000000000000000000000000000000000009790577be50a601000000000000000000000000000000000000000000000080719172e17a2166fa000000000000000000000000000000000000000000000000097327c17e5ba5bc00000000000000000000000000000000000000000000008071975097ba16673f",
          "blockHash": "0x649bada65f7e07d70b0b8a486876ab1abbdd61d1b55d3922645688b93415fa6e",
          "blockNumber": "0x4874178",
          "transactionHash": "0x548940919785980056bf0ed7a177e2b694286574a35b683aa2a42a2ecc626d8f",
          "transactionIndex": "0x47",
          "logIndex": "0x306",
          "removed": false
        }
      ],
      "logsBloom": "0x00000000000000000000020a00000000000000000000000000000000001000020400000000000000000000000002000000008000000000000000000000000000000000000000000000000000000000800000000000800000000100000000000000000000000000000000000000000000000000000010000080000000000000100000000000000000000000000000000000000000000000040000000000000000200000000000004000000000000000000000000000000000000000000000004000000000000000000001000000000000001000000000000000100000000000000000000000000000000000000000800000000000010000000000000000100000",
      "type": "0x2",
      "transactionHash": "0x548940919785980056bf0ed7a177e2b694286574a35b683aa2a42a2ecc626d8f",
      "transactionIndex": "0x47",
      "blockHash": "0x649bada65f7e07d70b0b8a486876ab1abbdd61d1b55d3922645688b93415fa6e",
      "blockNumber": "0x4874178",
      "gasUsed": "0xfb95",
      "effectiveGasPrice": "0x5f8155fa1",
      "from": "0x45dce8e4f2dc005a5f28206a46cb034697eeda8e",
      "to": "0x1a44076050125825900e736c501f859c50fe728c",
      "contractAddress": null
    },
    {
      "status": "0x1",
      "cumulativeGasUsed": "0xdc1446",
      "logs": [
        {
          "address": "0x1a44076050125825900e736c501f859c50fe728c",
          "topics": [
            "0x4cff966ebee29a156dcb34cf72c1d06231fb1777f6bdf6e8089819232f002b1c"
          ],
          "data": "0x00000000000000000000000057558cb8d6005de0bae8a2789d5efaae52dba5a800000000000000000000000000000000000000000000000000000000000076060000000000000000000000006c26c61a97006888ea9e4fa36584c7df57cd9da3",
          "blockHash": "0x649bada65f7e07d70b0b8a486876ab1abbdd61d1b55d3922645688b93415fa6e",
          "blockNumber": "0x4874178",
          "transactionHash": "0xf58696724067468a570bfb22eddd6ca4c286a4678193345d9cc87f4614d0f57b",
          "transactionIndex": "0x48",
          "logIndex": "0x307",
          "removed": false
        },
        {
          "address": "0x0000000000000000000000000000000000001010",
          "topics": [
            "0x4dfe1bbbcf077ddc3e01291eea2d5c70c2b422b415d95645b9adcfd678cb1d63",
            "0x0000000000000000000000000000000000000000000000000000000000001010",
            "0x00000000000000000000000045dce8e4f2dc005a5f28206a46cb034697eeda8e",
            "0x000000000000000000000000a8b52f02108aa5f4b675bdcc973760022d7c6020"
          ],
          "data": "0x000000000000000000000000000000000000000000000000000541cb0c470e16000000000000000000000000000000000000000000000000097327c1651d224c00000000000000000000000000000000000000000000008071975097ba16673f000000000000000000000000000000000000000000000000096de5f658d61436000000000000000000000000000000000000000000000080719c9262c65d7555",
          "blockHash": "0x649bada65f7e07d70b0b8a486876ab1abbdd61d1b55d3922645688b93415fa6e",
          "blockNumber": "0x4874178",
          "transactionHash": "0xf58696724067468a570bfb22eddd6ca4c286a4678193345d9cc87f4614d0f57b",
          "transactionIndex": "0x48",
          "logIndex": "0x308",
          "removed": false
        }
      ],
      "logsBloom": "0x00000000000000000000000200000000000200000000000000000000001000000000000000000000000000000002000000008000000000000000000001000000000000000000000000000000000000800000000000000000000100000000000000000000000000000000000000000000000000000010000080000000000000000000000000000000000000000000000000000000000000040000000000000000200000000000004000000000000000000000000000000000000000000000004000000000000000000001000000000000001000000000000000100000000000000040000000000000000000000000800000000000010000000000000000100000",
      "type": "0x2",
      "transactionHash": "0xf58696724067468a570bfb22eddd6ca4c286a4678193345d9cc87f4614d0f57b",
      "transactionIndex": "0x48",
      "blockHash": "0x649bada65f7e07d70b0b8a486876ab1abbdd61d1b55d3922645688b93415fa6e",
      "blockNumber": "0x4874178",
      "gasUsed": "0xe176",
      "effectiveGasPrice": "0x5f8155fa1",
      "from": "0x45dce8e4f2dc005a5f28206a46cb034697eeda8e",
      "to": "0x1a44076050125825900e736c501f859c50fe728c",
      "contractAddress": null
    },
    {
      "status": "0x1",
      "cumulativeGasUsed": "0xdd0fdb",
      "logs": [
        {
          "address": "0x1a44076050125825900e736c501f859c50fe728c",
          "topics": [
            "0xcd6f92f5ac6185a5acfa02c92090746cec64d777269cbcd0ed031e396657a1c2"
          ],
          "data": "0x00000000000000000000000057558cb8d6005de0bae8a2789d5efaae52dba5a800000000000000000000000000000000000000000000000000000000000076060000000000000000000000001322871e4ab09bc7f5717189434f97bbd9546e95",
          "blockHash": "0x649bada65f7e07d70b0b8a486876ab1abbdd61d1b55d3922645688b93415fa6e",
          "blockNumber": "0x4874178",
          "transactionHash": "0x60cf5895bf74ba33beac1dabfd36613b5a48641aabd2b96189fa74fa26025c37",
          "transactionIndex": "0x49",
          "logIndex": "0x309",
          "removed": false
        },
        {
          "address": "0x1a44076050125825900e736c501f859c50fe728c",
          "topics": [
            "0x4e0a5bbfa0c11a64effb1ada324b5437a17272e1aed9320398715ef71bb20928"
          ],
          "data": "0x00000000000000000000000057558cb8d6005de0bae8a2789d5efaae52dba5a8000000000000000000000000000000000000000000000000000000000000760600000000000000000000000000000000000000000000000000000000000000000000000000000000000000000000000000000000000000000000000000000000",
          "blockHash": "0x649bada65f7e07d70b0b8a486876ab1abbdd61d1b55d3922645688b93415fa6e",
          "blockNumber": "0x4874178",
          "transactionHash": "0x60cf5895bf74ba33beac1dabfd36613b5a48641aabd2b96189fa74fa26025c37",
          "transactionIndex": "0x49",
          "logIndex": "0x30a",
          "removed": false
        },
        {
          "address": "0x0000000000000000000000000000000000001010",
          "topics": [
            "0x4dfe1bbbcf077ddc3e01291eea2d5c70c2b422b415d95645b9adcfd678cb1d63",
            "0x0000000000000000000000000000000000000000000000000000000000001010",
            "0x00000000000000000000000045dce8e4f2dc005a5f28206a46cb034697eeda8e",
            "0x000000000000000000000000a8b52f02108aa5f4b675bdcc973760022d7c6020"
          ],
          "data": "0x0000000000000000000000000000000000000000000000000005ddb63ff50045000000000000000000000000000000000000000000000000096de5f642368d16000000000000000000000000000000000000000000000080719c9262c65d75550000000000000000000000000000000000000000000000000968084002418cd100000000000000000000000000000000000000000000008071a270190652759a",
          "blockHash": "0x649bada65f7e07d70b0b8a486876ab1abbdd61d1b55d3922645688b93415fa6e",
          "blockNumber": "0x4874178",
          "transactionHash": "0x60cf5895bf74ba33beac1dabfd36613b5a48641aabd2b96189fa74fa26025c37",
          "transactionIndex": "0x49",
          "logIndex": "0x30b",
          "removed": false
        }
      ],
      "logsBloom": "0x00000000000000000000020a00000000000000000000000000000000001000020400000000000000000000000002000000008000000000000000000000000000000000000000000000000000000000800000000000800000000100000000000000000000000000000000000000000000000000000010000080000000000000100000000000000000000000000000000000000000000000040000000000000000200000000000004000000000000000000000000000000000000000000000004000000000000000000001000000000000001000000000000000100000000000000000000000000000000000000000800000000000010000000000000000100000",
      "type": "0x2",
      "transactionHash": "0x60cf5895bf74ba33beac1dabfd36613b5a48641aabd2b96189fa74fa26025c37",
      "transactionIndex": "0x49",
      "blockHash": "0x649bada65f7e07d70b0b8a486876ab1abbdd61d1b55d3922645688b93415fa6e",
      "blockNumber": "0x4874178",
      "gasUsed": "0xfb95",
      "effectiveGasPrice": "0x5f8155fa1",
      "from": "0x45dce8e4f2dc005a5f28206a46cb034697eeda8e",
      "to": "0x1a44076050125825900e736c501f859c50fe728c",
      "contractAddress": null
    }
  ],
  "libraries": [],
  "pending": [],
  "returns": {},
  "timestamp": 1756840153819,
  "chain": 137,
  "commit": "8c73d32"
}