{
  "transactions": [
    {
      "hash": "0x71a2493b32bb24aad318cbd027d4c8486f5389600766da0a302cfc0d981941d8",
      "transactionType": "CALL",
      "contractName": null,
      "contractAddress": "0xfc00000000000000000000000000000000000001",
      "function": "approve(address,uint256)",
      "arguments": [
        "0x96A394058E2b84A89bac9667B19661Ed003cF5D4",
        "115792089237316195423570985008687907853269984665640564039457584007913129639935"
      ],
      "transaction": {
        "from": "0xb0e1650a9760e0f383174af042091fc544b8356f",
        "to": "0xfc00000000000000000000000000000000000001",
        "gas": "0xff6e",
        "value": "0x0",
        "input": "0x095ea7b300000000000000000000000096a394058e2b84a89bac9667b19661ed003cf5d4ffffffffffffffffffffffffffffffffffffffffffffffffffffffffffffffff",
        "nonce": "0x161",
        "chainId": "0xfc"
      },
      "additionalContracts": [],
      "isFixedGasLimit": false
    },
    {
      "hash": "0x57654843922e095b08b98b233c1fe5fa966c76ab7d29401b0ea6d53c4f03e455",
      "transactionType": "CALL",
      "contractName": null,
      "contractAddress": "0x96a394058e2b84a89bac9667b19661ed003cf5d4",
      "function": "send((uint32,bytes32,uint256,uint256,bytes,bytes,bytes),(uint256,uint256),address)",
      "arguments": [
        "(30339, 0x000000000000000000000000b0e1650a9760e0f383174af042091fc544b8356f, 1000000000000000000, 1000000000000000000, 0x0003, 0x, 0x)",
        "(28917905317084, 0)",
        "0xb0E1650A9760e0f383174af042091fc544b8356f"
      ],
      "transaction": {
        "from": "0xb0e1650a9760e0f383174af042091fc544b8356f",
        "to": "0x96a394058e2b84a89bac9667b19661ed003cf5d4",
        "gas": "0x6f12e",
        "value": "0x1a4cf9795cdc",
        "input": "0xc7c7f5b3000000000000000000000000000000000000000000000000000000000000008000000000000000000000000000000000000000000000000000001a4cf9795cdc0000000000000000000000000000000000000000000000000000000000000000000000000000000000000000b0e1650a9760e0f383174af042091fc544b8356f0000000000000000000000000000000000000000000000000000000000007683000000000000000000000000b0e1650a9760e0f383174af042091fc544b8356f0000000000000000000000000000000000000000000000000de0b6b3a76400000000000000000000000000000000000000000000000000000de0b6b3a764000000000000000000000000000000000000000000000000000000000000000000e0000000000000000000000000000000000000000000000000000000000000012000000000000000000000000000000000000000000000000000000000000001400000000000000000000000000000000000000000000000000000000000000002000300000000000000000000000000000000000000000000000000000000000000000000000000000000000000000000000000000000000000000000000000000000000000000000000000000000000000000000000000000000000000000000",
        "nonce": "0x162",
        "chainId": "0xfc"
      },
      "additionalContracts": [],
      "isFixedGasLimit": false
    }
  ],
  "receipts": [
    {
      "status": "0x1",
      "cumulativeGasUsed": "0x56e7b",
      "logs": [
        {
          "address": "0xfc00000000000000000000000000000000000001",
          "topics": [
            "0x8c5be1e5ebec7d5bd14f71427d1e84f3dd0314c0f7b2291e5b200ac8c7c3b925",
            "0x000000000000000000000000b0e1650a9760e0f383174af042091fc544b8356f",
            "0x00000000000000000000000096a394058e2b84a89bac9667b19661ed003cf5d4"
          ],
          "data": "0xffffffffffffffffffffffffffffffffffffffffffffffffffffffffffffffff",
          "blockHash": "0x36a510b3f25ad819d0550b4df795ff1d697404df81e9bc784c84e7732a088e56",
          "blockNumber": "0xd9a218",
          "transactionHash": "0x71a2493b32bb24aad318cbd027d4c8486f5389600766da0a302cfc0d981941d8",
          "transactionIndex": "0x2",
          "logIndex": "0x7",
          "removed": false
        }
      ],
      "logsBloom": "0x04000000000000000000000000000000000000000000000000000000000000000000000000000000000000000000000000000000000000000000000000200000000000000000000000000000000000000000000000000000010000000000000000000000000000000000100000800000000000000100080000000000000000000000000000000000000000000000000000004000000000000000000000000000020000000000000000000000000000000000000000000000000000000000000000000000000000000000000000000000000000000000000000000000000000000010000080000000000000000001000000000000000000000000000000000000",
      "type": "0x2",
      "transactionHash": "0x71a2493b32bb24aad318cbd027d4c8486f5389600766da0a302cfc0d981941d8",
      "transactionIndex": "0x2",
      "blockHash": "0x36a510b3f25ad819d0550b4df795ff1d697404df81e9bc784c84e7732a088e56",
      "blockNumber": "0xd9a218",
      "gasUsed": "0xb8ee",
      "effectiveGasPrice": "0xfe",
      "from": "0xb0e1650a9760e0f383174af042091fc544b8356f",
      "to": "0xfc00000000000000000000000000000000000001",
      "contractAddress": null,
      "l1BaseFeeScalar": "0xc350",
      "l1BlobBaseFee": "0x18af8a639",
      "l1BlobBaseFeeScalar": "0x0",
      "l1Fee": "0x54c7eb8d10",
      "l1GasPrice": "0x10f4c8b5d",
      "l1GasUsed": "0x640"
    },
    {
      "status": "0x1",
      "cumulativeGasUsed": "0xa2da6",
      "logs": [
        {
          "address": "0xfc00000000000000000000000000000000000001",
          "topics": [
            "0xddf252ad1be2c89b69c2b068fc378daa952ba7f163c4a11628f55a4df523b3ef",
            "0x000000000000000000000000b0e1650a9760e0f383174af042091fc544b8356f",
            "0x00000000000000000000000096a394058e2b84a89bac9667b19661ed003cf5d4"
          ],
          "data": "0x0000000000000000000000000000000000000000000000000de0b6b3a7640000",
          "blockHash": "0x36a510b3f25ad819d0550b4df795ff1d697404df81e9bc784c84e7732a088e56",
          "blockNumber": "0xd9a218",
          "transactionHash": "0x57654843922e095b08b98b233c1fe5fa966c76ab7d29401b0ea6d53c4f03e455",
          "transactionIndex": "0x3",
          "logIndex": "0x8",
          "removed": false
        },
        {
          "address": "0x377530cda84dfb2673bf4d145dcf0c4d7fdcb5b6",
          "topics": [
            "0x61ed099e74a97a1d7f8bb0952a88ca8b7b8ebd00c126ea04671f92a81213318a"
          ],
          "data": "0x00000000000000000000000041bdb4aa4a63a5b2efc531858d3118392b1a1c3d00000000000000000000000000000000000000000000000000001a1d3b3cc058",
          "blockHash": "0x36a510b3f25ad819d0550b4df795ff1d697404df81e9bc784c84e7732a088e56",
          "blockNumber": "0xd9a218",
          "transactionHash": "0x57654843922e095b08b98b233c1fe5fa966c76ab7d29401b0ea6d53c4f03e455",
          "transactionIndex": "0x3",
          "logIndex": "0x9",
          "removed": false
        },
        {
          "address": "0x377530cda84dfb2673bf4d145dcf0c4d7fdcb5b6",
          "topics": [
            "0x07ea52d82345d6e838192107d8fd7123d9c2ec8e916cd0aad13fd2b60db24644"
          ],
          "data": "0x000000000000000000000000000000000000000000000000000000000000006000000000000000000000000000000000000000000000000000000000000000c000000000000000000000000000000000000000000000000000000000000000e00000000000000000000000000000000000000000000000000000000000000002000000000000000000000000cce466a522984415bc91338c232d98869193d46e000000000000000000000000dd7b5e1db4aafd5c8ec3b764efb8ed265aa5445b0000000000000000000000000000000000000000000000000000000000000000000000000000000000000000000000000000000000000000000000000000000200000000000000000000000000000000000000000000000000000017df1e4e4200000000000000000000000000000000000000000000000000000017df1e4e42",
          "blockHash": "0x36a510b3f25ad819d0550b4df795ff1d697404df81e9bc784c84e7732a088e56",
          "blockNumber": "0xd9a218",
          "transactionHash": "0x57654843922e095b08b98b233c1fe5fa966c76ab7d29401b0ea6d53c4f03e455",
          "transactionIndex": "0x3",
          "logIndex": "0xa",
          "removed": false
        },
        {
          "address": "0x1a44076050125825900e736c501f859c50fe728c",
          "topics": [
            "0x1ab700d4ced0c005b164c0f789fd09fcbb0156d4c2041b8a3bfbcd961cd1567f"
          ],
          "data": "0x00000000000000000000000000000000000000000000000000000000000000600000000000000000000000000000000000000000000000000000000000000120000000000000000000000000377530cda84dfb2673bf4d145dcf0c4d7fdcb5b600000000000000000000000000000000000000000000000000000000000000990100000000000000010000762f00000000000000000000000096a394058e2b84a89bac9667b19661ed003cf5d40000768300000000000000000000000080eede496655fb9047dd39d9f418d5483ed600df37c07716a310780841d5a36ff29d34271835815a5228844af3e43a4fe1c646d7000000000000000000000000b0e1650a9760e0f383174af042091fc544b8356f00000000000f424000000000000000000000000000000000000000000000000000000000000000000000000000001600030100110100000000000000000000000000030d4000000000000000000000",
          "blockHash": "0x36a510b3f25ad819d0550b4df795ff1d697404df81e9bc784c84e7732a088e56",
          "blockNumber": "0xd9a218",
          "transactionHash": "0x57654843922e095b08b98b233c1fe5fa966c76ab7d29401b0ea6d53c4f03e455",
          "transactionIndex": "0x3",
          "logIndex": "0xb",
          "removed": false
        },
        {
          "address": "0x96a394058e2b84a89bac9667b19661ed003cf5d4",
          "topics": [
            "0x85496b760a4b7f8d66384b9df21b381f5d1b1e79f229a47aaf4c232edc2fe59a",
            "0x37c07716a310780841d5a36ff29d34271835815a5228844af3e43a4fe1c646d7",
            "0x000000000000000000000000b0e1650a9760e0f383174af042091fc544b8356f"
          ],
          "data": "0x00000000000000000000000000000000000000000000000000000000000076830000000000000000000000000000000000000000000000000de0b6b3a76400000000000000000000000000000000000000000000000000000de0b6b3a7640000",
          "blockHash": "0x36a510b3f25ad819d0550b4df795ff1d697404df81e9bc784c84e7732a088e56",
          "blockNumber": "0xd9a218",
          "transactionHash": "0x57654843922e095b08b98b233c1fe5fa966c76ab7d29401b0ea6d53c4f03e455",
          "transactionIndex": "0x3",
          "logIndex": "0xc",
          "removed": false
        }
      ],
      "logsBloom": "0x04000000000000000080000000000000000000000000000000000000001000000000000000000000000000000000000000040000000000000000000000000000000002200000000000000008000000000000000000000000010000000000000000000000000000008000100000800000000000000110080000000410000000000000000000000000000000080000000000004000000000000000000000000000000000008000000000100000000000000000000000400000000440000000000000000002000000000800000080100000000010000000000000000000000000000001040080000000000000000001002000000000018000000000000000000000",
      "type": "0x2",
      "transactionHash": "0x57654843922e095b08b98b233c1fe5fa966c76ab7d29401b0ea6d53c4f03e455",
      "transactionIndex": "0x3",
      "blockHash": "0x36a510b3f25ad819d0550b4df795ff1d697404df81e9bc784c84e7732a088e56",
      "blockNumber": "0xd9a218",
      "gasUsed": "0x4bf2b",
      "effectiveGasPrice": "0xfe",
      "from": "0xb0e1650a9760e0f383174af042091fc544b8356f",
      "to": "0x96a394058e2b84a89bac9667b19661ed003cf5d4",
      "contractAddress": null,
      "l1BaseFeeScalar": "0xc350",
      "l1BlobBaseFee": "0x18af8a639",
      "l1BlobBaseFeeScalar": "0x0",
      "l1Fee": "0x7e4cf58f53",
      "l1GasPrice": "0x10f4c8b5d",
      "l1GasUsed": "0x94f"
    }
  ],
  "libraries": [],
  "pending": [],
  "returns": {},
  "timestamp": 1735336304,
  "chain": 252,
  "commit": "6a02d0c"
}