{
  "transactions": [
    {
      "hash": "0xcfea790c8d080e600bedeb91717cc8b014fa35eab77f2b5478df3925e47475cb",
      "transactionType": "CALL",
      "contractName": null,
      "contractAddress": "0xfc00000000000000000000000000000000000008",
      "function": "approve(address,uint256)",
      "arguments": [
        "0x88Aa7854D3b2dAA5e37E7Ce73A1F39669623a361",
        "115792089237316195423570985008687907853269984665640564039457584007913129639935"
      ],
      "transaction": {
        "from": "0xb0e1650a9760e0f383174af042091fc544b8356f",
        "to": "0xfc00000000000000000000000000000000000008",
        "gas": "0x10e86",
        "value": "0x0",
        "input": "0x095ea7b300000000000000000000000088aa7854d3b2daa5e37e7ce73a1f39669623a361ffffffffffffffffffffffffffffffffffffffffffffffffffffffffffffffff",
        "nonce": "0x163",
        "chainId": "0xfc"
      },
      "additionalContracts": [],
      "isFixedGasLimit": false
    },
    {
      "hash": "0x2fe29dcaca983605c445c594e82db85742ef22c0c577165f822154e092bab6af",
      "transactionType": "CALL",
      "contractName": null,
      "contractAddress": "0x88aa7854d3b2daa5e37e7ce73a1f39669623a361",
      "function": "send((uint32,bytes32,uint256,uint256,bytes,bytes,bytes),(uint256,uint256),address)",
      "arguments": [
        "(30339, 0x000000000000000000000000b0e1650a9760e0f383174af042091fc544b8356f, 1000000000000000000, 1000000000000000000, 0x0003, 0x, 0x)",
        "(28917905317084, 0)",
        "0xb0E1650A9760e0f383174af042091fc544b8356f"
      ],
      "transaction": {
        "from": "0xb0e1650a9760e0f383174af042091fc544b8356f",
        "to": "0x88aa7854d3b2daa5e37e7ce73a1f39669623a361",
        "gas": "0x6f12e",
        "value": "0x1a4cf9795cdc",
        "input": "0xc7c7f5b3000000000000000000000000000000000000000000000000000000000000008000000000000000000000000000000000000000000000000000001a4cf9795cdc0000000000000000000000000000000000000000000000000000000000000000000000000000000000000000b0e1650a9760e0f383174af042091fc544b8356f0000000000000000000000000000000000000000000000000000000000007683000000000000000000000000b0e1650a9760e0f383174af042091fc544b8356f0000000000000000000000000000000000000000000000000de0b6b3a76400000000000000000000000000000000000000000000000000000de0b6b3a764000000000000000000000000000000000000000000000000000000000000000000e0000000000000000000000000000000000000000000000000000000000000012000000000000000000000000000000000000000000000000000000000000001400000000000000000000000000000000000000000000000000000000000000002000300000000000000000000000000000000000000000000000000000000000000000000000000000000000000000000000000000000000000000000000000000000000000000000000000000000000000000000000000000000000000000000",
        "nonce": "0x164",
        "chainId": "0xfc"
      },
      "additionalContracts": [],
      "isFixedGasLimit": false
    }
  ],
  "receipts": [
    {
      "status": "0x1",
      "cumulativeGasUsed": "0x1983f4",
      "logs": [
        {
          "address": "0xfc00000000000000000000000000000000000008",
          "topics": [
            "0x8c5be1e5ebec7d5bd14f71427d1e84f3dd0314c0f7b2291e5b200ac8c7c3b925",
            "0x000000000000000000000000b0e1650a9760e0f383174af042091fc544b8356f",
            "0x00000000000000000000000088aa7854d3b2daa5e37e7ce73a1f39669623a361"
          ],
          "data": "0xffffffffffffffffffffffffffffffffffffffffffffffffffffffffffffffff",
          "blockHash": "0xd1ef0fdf0bd62e025afb9f2a1305a34907cbf1b56fdfbd37eb2f386a6594ab23",
          "blockNumber": "0xd9a228",
          "transactionHash": "0xcfea790c8d080e600bedeb91717cc8b014fa35eab77f2b5478df3925e47475cb",
          "transactionIndex": "0x2",
          "logIndex": "0x2f",
          "removed": false
        }
      ],
      "logsBloom": "0x00000000000000000000000000000000100000000000000000002000004000000000000000100000000000000000000000000000000000000000000000200000000000000000000000000000000000000000000000000000000000000000000000000000000400000000000000000000000000000100080000000000000000000000000000000000000000000000000000000000000000000000000000000000020000000000000000000000000000000000000000000000000000000000000000000000000000000000000000000000000000000000000000000000000000000010000080000000000000000100000000000000000000000000000000000000",
      "type": "0x2",
      "transactionHash": "0xcfea790c8d080e600bedeb91717cc8b014fa35eab77f2b5478df3925e47475cb",
      "transactionIndex": "0x2",
      "blockHash": "0xd1ef0fdf0bd62e025afb9f2a1305a34907cbf1b56fdfbd37eb2f386a6594ab23",
      "blockNumber": "0xd9a228",
      "gasUsed": "0xb8fa",
      "effectiveGasPrice": "0xfe",
      "from": "0xb0e1650a9760e0f383174af042091fc544b8356f",
      "to": "0xfc00000000000000000000000000000000000008",
      "contractAddress": null,
      "l1BaseFeeScalar": "0xc350",
      "l1BlobBaseFee": "0x1ab3c41da",
      "l1BlobBaseFeeScalar": "0x0",
      "l1Fee": "0x5113e9fed0",
      "l1GasPrice": "0x10372ecc9",
      "l1GasUsed": "0x640"
    },
    {
      "status": "0x1",
      "cumulativeGasUsed": "0x1e431f",
      "logs": [
        {
          "address": "0xfc00000000000000000000000000000000000008",
          "topics": [
            "0xddf252ad1be2c89b69c2b068fc378daa952ba7f163c4a11628f55a4df523b3ef",
            "0x000000000000000000000000b0e1650a9760e0f383174af042091fc544b8356f",
            "0x00000000000000000000000088aa7854d3b2daa5e37e7ce73a1f39669623a361"
          ],
          "data": "0x0000000000000000000000000000000000000000000000000de0b6b3a7640000",
          "blockHash": "0xd1ef0fdf0bd62e025afb9f2a1305a34907cbf1b56fdfbd37eb2f386a6594ab23",
          "blockNumber": "0xd9a228",
          "transactionHash": "0x2fe29dcaca983605c445c594e82db85742ef22c0c577165f822154e092bab6af",
          "transactionIndex": "0x3",
          "logIndex": "0x30",
          "removed": false
        },
        {
          "address": "0x377530cda84dfb2673bf4d145dcf0c4d7fdcb5b6",
          "topics": [
            "0x61ed099e74a97a1d7f8bb0952a88ca8b7b8ebd00c126ea04671f92a81213318a"
          ],
          "data": "0x00000000000000000000000041bdb4aa4a63a5b2efc531858d3118392b1a1c3d00000000000000000000000000000000000000000000000000001a1d3b3cc058",
          "blockHash": "0xd1ef0fdf0bd62e025afb9f2a1305a34907cbf1b56fdfbd37eb2f386a6594ab23",
          "blockNumber": "0xd9a228",
          "transactionHash": "0x2fe29dcaca983605c445c594e82db85742ef22c0c577165f822154e092bab6af",
          "transactionIndex": "0x3",
          "logIndex": "0x31",
          "removed": false
        },
        {
          "address": "0x377530cda84dfb2673bf4d145dcf0c4d7fdcb5b6",
          "topics": [
            "0x07ea52d82345d6e838192107d8fd7123d9c2ec8e916cd0aad13fd2b60db24644"
          ],
          "data": "0x000000000000000000000000000000000000000000000000000000000000006000000000000000000000000000000000000000000000000000000000000000c000000000000000000000000000000000000000000000000000000000000000e00000000000000000000000000000000000000000000000000000000000000002000000000000000000000000cce466a522984415bc91338c232d98869193d46e000000000000000000000000dd7b5e1db4aafd5c8ec3b764efb8ed265aa5445b0000000000000000000000000000000000000000000000000000000000000000000000000000000000000000000000000000000000000000000000000000000200000000000000000000000000000000000000000000000000000017df1e4e4200000000000000000000000000000000000000000000000000000017df1e4e42",
          "blockHash": "0xd1ef0fdf0bd62e025afb9f2a1305a34907cbf1b56fdfbd37eb2f386a6594ab23",
          "blockNumber": "0xd9a228",
          "transactionHash": "0x2fe29dcaca983605c445c594e82db85742ef22c0c577165f822154e092bab6af",
          "transactionIndex": "0x3",
          "logIndex": "0x32",
          "removed": false
        },
        {
          "address": "0x1a44076050125825900e736c501f859c50fe728c",
          "topics": [
            "0x1ab700d4ced0c005b164c0f789fd09fcbb0156d4c2041b8a3bfbcd961cd1567f"
          ],
          "data": "0x00000000000000000000000000000000000000000000000000000000000000600000000000000000000000000000000000000000000000000000000000000120000000000000000000000000377530cda84dfb2673bf4d145dcf0c4d7fdcb5b600000000000000000000000000000000000000000000000000000000000000990100000000000000010000762f00000000000000000000000088aa7854d3b2daa5e37e7ce73a1f39669623a361000076830000000000000000000000005bff88ca1442c2496f7e475e9e7786383bc070c09e74a630d102cd08c6b4ab2e58bb255e8850a8bb66cf054cb8207ae50045768e000000000000000000000000b0e1650a9760e0f383174af042091fc544b8356f00000000000f424000000000000000000000000000000000000000000000000000000000000000000000000000001600030100110100000000000000000000000000030d4000000000000000000000",
          "blockHash": "0xd1ef0fdf0bd62e025afb9f2a1305a34907cbf1b56fdfbd37eb2f386a6594ab23",
          "blockNumber": "0xd9a228",
          "transactionHash": "0x2fe29dcaca983605c445c594e82db85742ef22c0c577165f822154e092bab6af",
          "transactionIndex": "0x3",
          "logIndex": "0x33",
          "removed": false
        },
        {
          "address": "0x88aa7854d3b2daa5e37e7ce73a1f39669623a361",
          "topics": [
            "0x85496b760a4b7f8d66384b9df21b381f5d1b1e79f229a47aaf4c232edc2fe59a",
            "0x9e74a630d102cd08c6b4ab2e58bb255e8850a8bb66cf054cb8207ae50045768e",
            "0x000000000000000000000000b0e1650a9760e0f383174af042091fc544b8356f"
          ],
          "data": "0x00000000000000000000000000000000000000000000000000000000000076830000000000000000000000000000000000000000000000000de0b6b3a76400000000000000000000000000000000000000000000000000000de0b6b3a7640000",
          "blockHash": "0xd1ef0fdf0bd62e025afb9f2a1305a34907cbf1b56fdfbd37eb2f386a6594ab23",
          "blockNumber": "0xd9a228",
          "transactionHash": "0x2fe29dcaca983605c445c594e82db85742ef22c0c577165f822154e092bab6af",
          "transactionIndex": "0x3",
          "logIndex": "0x34",
          "removed": false
        }
      ],
      "logsBloom": "0x0000000000000000000000000000000010000000000000000000200000d000000000000000100000000000000000000000040000000000000000000000000000000002000000000000000008000000000000000000000000000000000000000000000000000400008000000000000000000000000110080000000410000000000000000000000000000000080000002000000000000000000000000200000000000000008004000000100000000000000000000000400000000440000000000000000002000000000000000080000000000000000000000000400000000000000001040080000000000000000100002000000000018000000000000000000000",
      "type": "0x2",
      "transactionHash": "0x2fe29dcaca983605c445c594e82db85742ef22c0c577165f822154e092bab6af",
      "transactionIndex": "0x3",
      "blockHash": "0xd1ef0fdf0bd62e025afb9f2a1305a34907cbf1b56fdfbd37eb2f386a6594ab23",
      "blockNumber": "0xd9a228",
      "gasUsed": "0x4bf2b",
      "effectiveGasPrice": "0xfe",
      "from": "0xb0e1650a9760e0f383174af042091fc544b8356f",
      "to": "0x88aa7854d3b2daa5e37e7ce73a1f39669623a361",
      "contractAddress": null,
      "l1BaseFeeScalar": "0xc350",
      "l1BlobBaseFee": "0x1ab3c41da",
      "l1BlobBaseFeeScalar": "0x0",
      "l1Fee": "0x78c8afe40b",
      "l1GasPrice": "0x10372ecc9",
      "l1GasUsed": "0x94f"
    }
  ],
  "libraries": [],
  "pending": [],
  "returns": {},
  "timestamp": 1735336336,
  "chain": 252,
  "commit": "6a02d0c"
}