{
  "transactions": [
    {
      "hash": "0x0deee80bc8a98e415a77947ddc03e02c02d5d19577aa0f7f977d49c3cdd49c9f",
      "transactionType": "CALL",
      "contractName": null,
      "contractAddress": "0x741f0d8bde14140f62107fc60a0ee122b37d4630",
      "function": "batchBridgeWithEthFeeFromWallet((uint32,bytes32,uint256,uint256,bytes,bytes,bytes)[],address[],address[])",
      "arguments": [
        "[(30168, 0x3c1b094729102e0c095ee2417e5940ee4f1eab4763f6113fe75281ab74c62398, 100000000000000000, 0, 0x, 0x, 0x), (30325, 0x09d0eb2763c96e085fa74ba6cf0d49136f8654c48ec7dbc59279a9066c7dd409, 100000000000000000, 0, 0x, 0x, 0x), (30108, 0x09d0eb2763c96e085fa74ba6cf0d49136f8654c48ec7dbc59279a9066c7dd409, 100000000000000000, 0, 0x, 0x, 0x)]",
        "[0x57558Cb8d6005DE0BAe8a2789d5EfaaE52dba5a8, 0x57558Cb8d6005DE0BAe8a2789d5EfaaE52dba5a8, 0x57558Cb8d6005DE0BAe8a2789d5EfaaE52dba5a8]",
        "[0x741F0d8Bde14140f62107FC60A0EE122B37D4630, 0x741F0d8Bde14140f62107FC60A0EE122B37D4630, 0x741F0d8Bde14140f62107FC60A0EE122B37D4630]"
      ],
      "transaction": {
        "from": "0x45dce8e4f2dc005a5f28206a46cb034697eeda8e",
        "to": "0x741f0d8bde14140f62107fc60a0ee122b37d4630",
        "gas": "0x1253a1",
        "value": "0x67e4dcc0aa1e744",
        "input": "0xb70d4241000000000000000000000000000000000000000000000000000000000000006000000000000000000000000000000000000000000000000000000000000004a000000000000000000000000000000000000000000000000000000000000005200000000000000000000000000000000000000000000000000000000000000003000000000000000000000000000000000000000000000000000000000000006000000000000000000000000000000000000000000000000000000000000001a000000000000000000000000000000000000000000000000000000000000002e000000000000000000000000000000000000000000000000000000000000075d83c1b094729102e0c095ee2417e5940ee4f1eab4763f6113fe75281ab74c62398000000000000000000000000000000000000000000000000016345785d8a0000000000000000000000000000000000000000000000000000000000000000000000000000000000000000000000000000000000000000000000000000000000e000000000000000000000000000000000000000000000000000000000000001000000000000000000000000000000000000000000000000000000000000000120000000000000000000000000000000000000000000000000000000000000000000000000000000000000000000000000000000000000000000000000000000000000000000000000000000000000000000000000000000000000000000000000000000000000000000000000000000000000000000000000000000000000767509d0eb2763c96e085fa74ba6cf0d49136f8654c48ec7dbc59279a9066c7dd409000000000000000000000000000000000000000000000000016345785d8a0000000000000000000000000000000000000000000000000000000000000000000000000000000000000000000000000000000000000000000000000000000000e000000000000000000000000000000000000000000000000000000000000001000000000000000000000000000000000000000000000000000000000000000120000000000000000000000000000000000000000000000000000000000000000000000000000000000000000000000000000000000000000000000000000000000000000000000000000000000000000000000000000000000000000000000000000000000000000000000000000000000000000000000000000000000000759c09d0eb2763c96e085fa74ba6cf0d49136f8654c48ec7dbc59279a9066c7dd409000000000000000000000000000000000000000000000000016345785d8a0000000000000000000000000000000000000000000000000000000000000000000000000000000000000000000000000000000000000000000000000000000000e000000000000000000000000000000000000000000000000000000000000001000000000000000000000000000000000000000000000000000000000000000120000000000000000000000000000000000000000000000000000000000000000000000000000000000000000000000000000000000000000000000000000000000000000000000000000000000000000000000000000000000000000000000000000000000000000000000000000000000000000000000000000000000000000300000000000000000000000057558cb8d6005de0bae8a2789d5efaae52dba5a800000000000000000000000057558cb8d6005de0bae8a2789d5efaae52dba5a800000000000000000000000057558cb8d6005de0bae8a2789d5efaae52dba5a80000000000000000000000000000000000000000000000000000000000000003000000000000000000000000741f0d8bde14140f62107fc60a0ee122b37d4630000000000000000000000000741f0d8bde14140f62107fc60a0ee122b37d4630000000000000000000000000741f0d8bde14140f62107fc60a0ee122b37d4630",
        "nonce": "0x97",
        "chainId": "0xfc"
      },
      "additionalContracts": [],
      "isFixedGasLimit": false
    }
  ],
  "receipts": [
    {
      "status": "0x1",
      "cumulativeGasUsed": "0xdf899",
      "logs": [
        {
          "address": "0x57558cb8d6005de0bae8a2789d5efaae52dba5a8",
          "topics": [
            "0xddf252ad1be2c89b69c2b068fc378daa952ba7f163c4a11628f55a4df523b3ef",
            "0x000000000000000000000000741f0d8bde14140f62107fc60a0ee122b37d4630",
            "0x0000000000000000000000000000000000000000000000000000000000000000"
          ],
          "data": "0x000000000000000000000000000000000000000000000000016345785d8a0000",
          "blockHash": "0xdfe4f4fa8d38667ce84158b3ddda02f7dc0d40de50bf2ed7669872800d4025df",
          "blockNumber": "0x1584651",
          "transactionHash": "0x0deee80bc8a98e415a77947ddc03e02c02d5d19577aa0f7f977d49c3cdd49c9f",
          "transactionIndex": "0x1",
          "logIndex": "0x0",
          "removed": false
        },
        {
          "address": "0x377530cda84dfb2673bf4d145dcf0c4d7fdcb5b6",
          "topics": [
            "0x61ed099e74a97a1d7f8bb0952a88ca8b7b8ebd00c126ea04671f92a81213318a"
          ],
          "data": "0x00000000000000000000000041bdb4aa4a63a5b2efc531858d3118392b1a1c3d0000000000000000000000000000000000000000000000000380d54aaeba1105",
          "blockHash": "0xdfe4f4fa8d38667ce84158b3ddda02f7dc0d40de50bf2ed7669872800d4025df",
          "blockNumber": "0x1584651",
          "transactionHash": "0x0deee80bc8a98e415a77947ddc03e02c02d5d19577aa0f7f977d49c3cdd49c9f",
          "transactionIndex": "0x1",
          "logIndex": "0x1",
          "removed": false
        },
        {
          "address": "0x377530cda84dfb2673bf4d145dcf0c4d7fdcb5b6",
          "topics": [
            "0x07ea52d82345d6e838192107d8fd7123d9c2ec8e916cd0aad13fd2b60db24644"
          ],
          "data": "0x000000000000000000000000000000000000000000000000000000000000006000000000000000000000000000000000000000000000000000000000000000e00000000000000000000000000000000000000000000000000000000000000100000000000000000000000000000000000000000000000000000000000000000300000000000000000000000026cd5abadf7ec3f0f02b48314bfca6b2342cddd4000000000000000000000000cce466a522984415bc91338c232d98869193d46e000000000000000000000000dd7b5e1db4aafd5c8ec3b764efb8ed265aa5445b00000000000000000000000000000000000000000000000000000000000000000000000000000000000000000000000000000000000000000000000000000003000000000000000000000000000000000000000000000000001ca37fc333fab4000000000000000000000000000000000000000000000000001b7bbaf8abdaa6000000000000000000000000000000000000000000000000001b7bbaf8abdaa6",
          "blockHash": "0xdfe4f4fa8d38667ce84158b3ddda02f7dc0d40de50bf2ed7669872800d4025df",
          "blockNumber": "0x1584651",
          "transactionHash": "0x0deee80bc8a98e415a77947ddc03e02c02d5d19577aa0f7f977d49c3cdd49c9f",
          "transactionIndex": "0x1",
          "logIndex": "0x2",
          "removed": false
        },
        {
          "address": "0x1a44076050125825900e736c501f859c50fe728c",
          "topics": [
            "0x1ab700d4ced0c005b164c0f789fd09fcbb0156d4c2041b8a3bfbcd961cd1567f"
          ],
          "data": "0x00000000000000000000000000000000000000000000000000000000000000600000000000000000000000000000000000000000000000000000000000000120000000000000000000000000377530cda84dfb2673bf4d145dcf0c4d7fdcb5b600000000000000000000000000000000000000000000000000000000000000990100000000000000040000762f00000000000000000000000057558cb8d6005de0bae8a2789d5efaae52dba5a8000075d8006d6ff762f7fcb768c550bae67f7a6a3a94969e469b6e0689563ace4e3759ad0c3caca414f2a7282322a21a9e6e5a4449832cf083463e640b594b0fdf5e351e3c1b094729102e0c095ee2417e5940ee4f1eab4763f6113fe75281ab74c6239800000000000186a000000000000000000000000000000000000000000000000000000000000000000000000000002600030100210100000000000000000000000000030d40000000000000000000000000002625a00000000000000000000000000000000000000000000000000000",
          "blockHash": "0xdfe4f4fa8d38667ce84158b3ddda02f7dc0d40de50bf2ed7669872800d4025df",
          "blockNumber": "0x1584651",
          "transactionHash": "0x0deee80bc8a98e415a77947ddc03e02c02d5d19577aa0f7f977d49c3cdd49c9f",
          "transactionIndex": "0x1",
          "logIndex": "0x3",
          "removed": false
        },
        {
          "address": "0x57558cb8d6005de0bae8a2789d5efaae52dba5a8",
          "topics": [
            "0x85496b760a4b7f8d66384b9df21b381f5d1b1e79f229a47aaf4c232edc2fe59a",
            "0x0c3caca414f2a7282322a21a9e6e5a4449832cf083463e640b594b0fdf5e351e",
            "0x000000000000000000000000741f0d8bde14140f62107fc60a0ee122b37d4630"
          ],
          "data": "0x00000000000000000000000000000000000000000000000000000000000075d8000000000000000000000000000000000000000000000000016345785d8a0000000000000000000000000000000000000000000000000000016345785d8a0000",
          "blockHash": "0xdfe4f4fa8d38667ce84158b3ddda02f7dc0d40de50bf2ed7669872800d4025df",
          "blockNumber": "0x1584651",
          "transactionHash": "0x0deee80bc8a98e415a77947ddc03e02c02d5d19577aa0f7f977d49c3cdd49c9f",
          "transactionIndex": "0x1",
          "logIndex": "0x4",
          "removed": false
        },
        {
          "address": "0x57558cb8d6005de0bae8a2789d5efaae52dba5a8",
          "topics": [
            "0xddf252ad1be2c89b69c2b068fc378daa952ba7f163c4a11628f55a4df523b3ef",
            "0x000000000000000000000000741f0d8bde14140f62107fc60a0ee122b37d4630",
            "0x0000000000000000000000000000000000000000000000000000000000000000"
          ],
          "data": "0x000000000000000000000000000000000000000000000000016345785d8a0000",
          "blockHash": "0xdfe4f4fa8d38667ce84158b3ddda02f7dc0d40de50bf2ed7669872800d4025df",
          "blockNumber": "0x1584651",
          "transactionHash": "0x0deee80bc8a98e415a77947ddc03e02c02d5d19577aa0f7f977d49c3cdd49c9f",
          "transactionIndex": "0x1",
          "logIndex": "0x5",
          "removed": false
        },
        {
          "address": "0x377530cda84dfb2673bf4d145dcf0c4d7fdcb5b6",
          "topics": [
            "0x61ed099e74a97a1d7f8bb0952a88ca8b7b8ebd00c126ea04671f92a81213318a"
          ],
          "data": "0x00000000000000000000000041bdb4aa4a63a5b2efc531858d3118392b1a1c3d0000000000000000000000000000000000000000000000000011d7b55d767110",
          "blockHash": "0xdfe4f4fa8d38667ce84158b3ddda02f7dc0d40de50bf2ed7669872800d4025df",
          "blockNumber": "0x1584651",
          "transactionHash": "0x0deee80bc8a98e415a77947ddc03e02c02d5d19577aa0f7f977d49c3cdd49c9f",
          "transactionIndex": "0x1",
          "logIndex": "0x6",
          "removed": false
        },
        {
          "address": "0x377530cda84dfb2673bf4d145dcf0c4d7fdcb5b6",
          "topics": [
            "0x07ea52d82345d6e838192107d8fd7123d9c2ec8e916cd0aad13fd2b60db24644"
          ],
          "data": "0x000000000000000000000000000000000000000000000000000000000000006000000000000000000000000000000000000000000000000000000000000000e00000000000000000000000000000000000000000000000000000000000000100000000000000000000000000000000000000000000000000000000000000000300000000000000000000000026cd5abadf7ec3f0f02b48314bfca6b2342cddd4000000000000000000000000cce466a522984415bc91338c232d98869193d46e000000000000000000000000dd7b5e1db4aafd5c8ec3b764efb8ed265aa5445b0000000000000000000000000000000000000000000000000000000000000000000000000000000000000000000000000000000000000000000000000000000300000000000000000000000000000000000000000000000000000000000c82640000000000000000000000000000000000000000000000000011d7b55d77cdff00000000000000000000000000000000000000000000000000000000000c0133",
          "blockHash": "0xdfe4f4fa8d38667ce84158b3ddda02f7dc0d40de50bf2ed7669872800d4025df",
          "blockNumber": "0x1584651",
          "transactionHash": "0x0deee80bc8a98e415a77947ddc03e02c02d5d19577aa0f7f977d49c3cdd49c9f",
          "transactionIndex": "0x1",
          "logIndex": "0x7",
          "removed": false
        },
        {
          "address": "0x1a44076050125825900e736c501f859c50fe728c",
          "topics": [
            "0x1ab700d4ced0c005b164c0f789fd09fcbb0156d4c2041b8a3bfbcd961cd1567f"
          ],
          "data": "0x00000000000000000000000000000000000000000000000000000000000000600000000000000000000000000000000000000000000000000000000000000120000000000000000000000000377530cda84dfb2673bf4d145dcf0c4d7fdcb5b600000000000000000000000000000000000000000000000000000000000000990100000000000000040000762f00000000000000000000000057558cb8d6005de0bae8a2789d5efaae52dba5a800007675a1bb74f0d5770dfc905c508e6273fadc595ddc15326cc907889bdfffa50602c87ffa4290e1115e6aac261f6a251fb716400d4320bcc0e7d36ef1bedf4356759209d0eb2763c96e085fa74ba6cf0d49136f8654c48ec7dbc59279a9066c7dd40900000000000186a00000000000000000000000000000000000000000000000000000000000000000000000000000160003010011010000000000000000000000000000138800000000000000000000",
          "blockHash": "0xdfe4f4fa8d38667ce84158b3ddda02f7dc0d40de50bf2ed7669872800d4025df",
          "blockNumber": "0x1584651",
          "transactionHash": "0x0deee80bc8a98e415a77947ddc03e02c02d5d19577aa0f7f977d49c3cdd49c9f",
          "transactionIndex": "0x1",
          "logIndex": "0x8",
          "removed": false
        },
        {
          "address": "0x57558cb8d6005de0bae8a2789d5efaae52dba5a8",
          "topics": [
            "0x85496b760a4b7f8d66384b9df21b381f5d1b1e79f229a47aaf4c232edc2fe59a",
            "0x7ffa4290e1115e6aac261f6a251fb716400d4320bcc0e7d36ef1bedf43567592",
            "0x000000000000000000000000741f0d8bde14140f62107fc60a0ee122b37d4630"
          ],
          "data": "0x0000000000000000000000000000000000000000000000000000000000007675000000000000000000000000000000000000000000000000016345785d8a0000000000000000000000000000000000000000000000000000016345785d8a0000",
          "blockHash": "0xdfe4f4fa8d38667ce84158b3ddda02f7dc0d40de50bf2ed7669872800d4025df",
          "blockNumber": "0x1584651",
          "transactionHash": "0x0deee80bc8a98e415a77947ddc03e02c02d5d19577aa0f7f977d49c3cdd49c9f",
          "transactionIndex": "0x1",
          "logIndex": "0x9",
          "removed": false
        },
        {
          "address": "0x57558cb8d6005de0bae8a2789d5efaae52dba5a8",
          "topics": [
            "0xddf252ad1be2c89b69c2b068fc378daa952ba7f163c4a11628f55a4df523b3ef",
            "0x000000000000000000000000741f0d8bde14140f62107fc60a0ee122b37d4630",
            "0x0000000000000000000000000000000000000000000000000000000000000000"
          ],
          "data": "0x000000000000000000000000000000000000000000000000016345785d8a0000",
          "blockHash": "0xdfe4f4fa8d38667ce84158b3ddda02f7dc0d40de50bf2ed7669872800d4025df",
          "blockNumber": "0x1584651",
          "transactionHash": "0x0deee80bc8a98e415a77947ddc03e02c02d5d19577aa0f7f977d49c3cdd49c9f",
          "transactionIndex": "0x1",
          "logIndex": "0xa",
          "removed": false
        },
        {
          "address": "0x377530cda84dfb2673bf4d145dcf0c4d7fdcb5b6",
          "topics": [
            "0x61ed099e74a97a1d7f8bb0952a88ca8b7b8ebd00c126ea04671f92a81213318a"
          ],
          "data": "0x00000000000000000000000041bdb4aa4a63a5b2efc531858d3118392b1a1c3d00000000000000000000000000000000000000000000000000435b822779e170",
          "blockHash": "0xdfe4f4fa8d38667ce84158b3ddda02f7dc0d40de50bf2ed7669872800d4025df",
          "blockNumber": "0x1584651",
          "transactionHash": "0x0deee80bc8a98e415a77947ddc03e02c02d5d19577aa0f7f977d49c3cdd49c9f",
          "transactionIndex": "0x1",
          "logIndex": "0xb",
          "removed": false
        },
        {
          "address": "0x377530cda84dfb2673bf4d145dcf0c4d7fdcb5b6",
          "topics": [
            "0x07ea52d82345d6e838192107d8fd7123d9c2ec8e916cd0aad13fd2b60db24644"
          ],
          "data": "0x000000000000000000000000000000000000000000000000000000000000006000000000000000000000000000000000000000000000000000000000000000e00000000000000000000000000000000000000000000000000000000000000100000000000000000000000000000000000000000000000000000000000000000300000000000000000000000026cd5abadf7ec3f0f02b48314bfca6b2342cddd4000000000000000000000000cce466a522984415bc91338c232d98869193d46e000000000000000000000000dd7b5e1db4aafd5c8ec3b764efb8ed265aa5445b0000000000000000000000000000000000000000000000000000000000000000000000000000000000000000000000000000000000000000000000000000000300000000000000000000000000000000000000000000000000d8a453fe028e9100000000000000000000000000000000000000000000000000b51725636c79cc00000000000000000000000000000000000000000000000000b51725636c79cc",
          "blockHash": "0xdfe4f4fa8d38667ce84158b3ddda02f7dc0d40de50bf2ed7669872800d4025df",
          "blockNumber": "0x1584651",
          "transactionHash": "0x0deee80bc8a98e415a77947ddc03e02c02d5d19577aa0f7f977d49c3cdd49c9f",
          "transactionIndex": "0x1",
          "logIndex": "0xc",
          "removed": false
        },
        {
          "address": "0x1a44076050125825900e736c501f859c50fe728c",
          "topics": [
            "0x1ab700d4ced0c005b164c0f789fd09fcbb0156d4c2041b8a3bfbcd961cd1567f"
          ],
          "data": "0x00000000000000000000000000000000000000000000000000000000000000600000000000000000000000000000000000000000000000000000000000000120000000000000000000000000377530cda84dfb2673bf4d145dcf0c4d7fdcb5b600000000000000000000000000000000000000000000000000000000000000990100000000000000040000762f00000000000000000000000057558cb8d6005de0bae8a2789d5efaae52dba5a80000759ca1bb74f0d5770dfc905c508e6273fadc595ddc15326cc907889bdfffa50602c894e2a5864acd0a2d81e6bc8b7177f184285450e48d7c8a06f73897852c27c2f509d0eb2763c96e085fa74ba6cf0d49136f8654c48ec7dbc59279a9066c7dd40900000000000186a00000000000000000000000000000000000000000000000000000000000000000000000000000160003010011010000000000000000000000000000138800000000000000000000",
          "blockHash": "0xdfe4f4fa8d38667ce84158b3ddda02f7dc0d40de50bf2ed7669872800d4025df",
          "blockNumber": "0x1584651",
          "transactionHash": "0x0deee80bc8a98e415a77947ddc03e02c02d5d19577aa0f7f977d49c3cdd49c9f",
          "transactionIndex": "0x1",
          "logIndex": "0xd",
          "removed": false
        },
        {
          "address": "0x57558cb8d6005de0bae8a2789d5efaae52dba5a8",
          "topics": [
            "0x85496b760a4b7f8d66384b9df21b381f5d1b1e79f229a47aaf4c232edc2fe59a",
            "0x94e2a5864acd0a2d81e6bc8b7177f184285450e48d7c8a06f73897852c27c2f5",
            "0x000000000000000000000000741f0d8bde14140f62107fc60a0ee122b37d4630"
          ],
          "data": "0x000000000000000000000000000000000000000000000000000000000000759c000000000000000000000000000000000000000000000000016345785d8a0000000000000000000000000000000000000000000000000000016345785d8a0000",
          "blockHash": "0xdfe4f4fa8d38667ce84158b3ddda02f7dc0d40de50bf2ed7669872800d4025df",
          "blockNumber": "0x1584651",
          "transactionHash": "0x0deee80bc8a98e415a77947ddc03e02c02d5d19577aa0f7f977d49c3cdd49c9f",
          "transactionIndex": "0x1",
          "logIndex": "0xe",
          "removed": false
        }
      ],
      "logsBloom": "0x0000000800000000000000000004004000000000000000000000000100100000000000000000040000080000000000440004010000000000000000000000000000000200000000000000000800000000000000000000000000000000000000000000000002000000800000000000080000000000001000000000041000000000000000000000000000000008000000000000000000000000000000000000000000000000a000001000100000000000000000000000400000000440000000000400000002000000000000000080000000080000000000000002000000000020000001040000000000000080000000002000000000018000000000000000000000",
      "type": "0x2",
      "transactionHash": "0x0deee80bc8a98e415a77947ddc03e02c02d5d19577aa0f7f977d49c3cdd49c9f",
      "transactionIndex": "0x1",
      "blockHash": "0xdfe4f4fa8d38667ce84158b3ddda02f7dc0d40de50bf2ed7669872800d4025df",
      "blockNumber": "0x1584651",
      "gasUsed": "0xd44a8",
      "effectiveGasPrice": "0x13140c",
      "from": "0x45dce8e4f2dc005a5f28206a46cb034697eeda8e",
      "to": "0x741f0d8bde14140f62107fc60a0ee122b37d4630",
      "contractAddress": null,
      "l1BaseFeeScalar": "0x2faf080",
      "l1BlobBaseFee": "0x1",
      "l1BlobBaseFeeScalar": "0x0",
      "l1Fee": "0x3629fbd42c34",
      "l1GasPrice": "0x1228f8c1",
      "l1GasUsed": "0xf45"
    }
  ],
  "libraries": [],
  "pending": [],
  "returns": {},
  "timestamp": 1751935482,
  "chain": 252,
  "commit": "46f1c07"
}