{
  "transactions": [
    {
      "hash": null,
      "transactionType": "CALL",
      "contractName": null,
      "contractAddress": "0x29a5134d3b22f47ad52e0a22a63247363e9f35c2",
      "function": "setEnforcedOptions((uint32,uint16,bytes)[])",
      "arguments": [
        "[(40444, 1, 0x00030100110100000000000000000000000000030d40), (40444, 2, 0x0003010011010000000000000000000000000003d090)]"
      ],
      "transaction": {
        "from": "0x0990be6db8c785fbbf9ded8baec612a10cae814b",
        "to": "0x29a5134d3b22f47ad52e0a22a63247363e9f35c2",
        "gas": "0x1d9d4",
        "value": "0x0",
        "input": "0xb98bd07000000000000000000000000000000000000000000000000000000000000000200000000000000000000000000000000000000000000000000000000000000002000000000000000000000000000000000000000000000000000000000000004000000000000000000000000000000000000000000000000000000000000000e00000000000000000000000000000000000000000000000000000000000009dfc00000000000000000000000000000000000000000000000000000000000000010000000000000000000000000000000000000000000000000000000000000060000000000000000000000000000000000000000000000000000000000000001600030100110100000000000000000000000000030d40000000000000000000000000000000000000000000000000000000000000000000000000000000009dfc0000000000000000000000000000000000000000000000000000000000000002000000000000000000000000000000000000000000000000000000000000006000000000000000000000000000000000000000000000000000000000000000160003010011010000000000000000000000000003d09000000000000000000000",
        "nonce": "0x34",
        "chainId": "0xaa36a7",
        "feeToken": null,
        "calls": [],
        "keyType": null,
        "keyData": null
      },
      "additionalContracts": [],
      "isFixedGasLimit": false
    },
    {
      "hash": null,
      "transactionType": "CALL",
      "contractName": null,
      "contractAddress": "0x29a5134d3b22f47ad52e0a22a63247363e9f35c2",
      "function": "setPeer(uint32,bytes32)",
      "arguments": [
        "40444",
        "0x00000000000000000000000016fbfcf4970d4550791faf75ae9baece75c85a27"
      ],
      "transaction": {
        "from": "0x0990be6db8c785fbbf9ded8baec612a10cae814b",
        "to": "0x29a5134d3b22f47ad52e0a22a63247363e9f35c2",
        "gas": "0x139e4",
        "value": "0x0",
        "input": "0x3400288b0000000000000000000000000000000000000000000000000000000000009dfc00000000000000000000000016fbfcf4970d4550791faf75ae9baece75c85a27",
        "nonce": "0x35",
        "chainId": "0xaa36a7",
        "feeToken": null,
        "calls": [],
        "keyType": null,
        "keyData": null
      },
      "additionalContracts": [],
      "isFixedGasLimit": false
    },
    {
      "hash": null,
      "transactionType": "CALL",
      "contractName": null,
      "contractAddress": "0x6edce65403992e310a62460808c4b910d972f10f",
      "function": "setSendLibrary(address,uint32,address)",
      "arguments": [
        "0x29a5134D3B22F47AD52e0A22A63247363e9F35c2",
        "40444",
        "0xcc1ae8Cf5D3904Cef3360A9532B477529b177cCE"
      ],
      "transaction": {
        "from": "0x0990be6db8c785fbbf9ded8baec612a10cae814b",
        "to": "0x6edce65403992e310a62460808c4b910d972f10f",
        "gas": "0x1378b",
        "value": "0x0",
        "input": "0x9535ff3000000000000000000000000029a5134d3b22f47ad52e0a22a63247363e9f35c20000000000000000000000000000000000000000000000000000000000009dfc000000000000000000000000cc1ae8cf5d3904cef3360a9532b477529b177cce",
        "nonce": "0x36",
        "chainId": "0xaa36a7",
        "feeToken": null,
        "calls": [],
        "keyType": null,
        "keyData": null
      },
      "additionalContracts": [],
      "isFixedGasLimit": false
    },
    {
      "hash": null,
      "transactionType": "CALL",
      "contractName": null,
      "contractAddress": "0x6edce65403992e310a62460808c4b910d972f10f",
      "function": "setReceiveLibrary(address,uint32,address,uint256)",
      "arguments": [
        "0x29a5134D3B22F47AD52e0A22A63247363e9F35c2",
        "40444",
        "0xdAf00F5eE2158dD58E0d3857851c432E34A3A851",
        "0"
      ],
      "transaction": {
        "from": "0x0990be6db8c785fbbf9ded8baec612a10cae814b",
        "to": "0x6edce65403992e310a62460808c4b910d972f10f",
        "gas": "0x17001",
        "value": "0x0",
        "input": "0x6a14d71500000000000000000000000029a5134d3b22f47ad52e0a22a63247363e9f35c20000000000000000000000000000000000000000000000000000000000009dfc000000000000000000000000daf00f5ee2158dd58e0d3857851c432e34a3a8510000000000000000000000000000000000000000000000000000000000000000",
        "nonce": "0x37",
        "chainId": "0xaa36a7",
        "feeToken": null,
        "calls": [],
        "keyType": null,
        "keyData": null
      },
      "additionalContracts": [],
      "isFixedGasLimit": false
    }
  ],
  "receipts": [],
  "libraries": [],
  "pending": [],
  "returns": {},
  "timestamp": 1770142008118,
  "chain": 11155111,
  "commit": "71b2709"
}