{
  "transactions": [
    {
      "hash": "0x3ede4865f5b35fd5c1e31f60711943dbc9c1b29b915ba9681129977bfbddbf9e",
      "transactionType": "CALL",
      "contractName": null,
      "contractAddress": "0x741f0d8bde14140f62107fc60a0ee122b37d4630",
      "function": "batchBridgeWithEthFeeFromWallet((uint32,bytes32,uint256,uint256,bytes,bytes,bytes)[],address[],address[])",
      "arguments": [
        "[(30320, 0x000000000000000000000000741f0d8bde14140f62107fc60a0ee122b37d4630, 5000000000000000000, 0, 0x, 0x, 0x)]",
        "[0x57558Cb8d6005DE0BAe8a2789d5EfaaE52dba5a8]",
        "[0x741F0d8Bde14140f62107FC60A0EE122B37D4630]"
      ],
      "transaction": {
        "from": "0x45dce8e4f2dc005a5f28206a46cb034697eeda8e",
        "to": "0x741f0d8bde14140f62107fc60a0ee122b37d4630",
        "gas": "0x958e4",
        "value": "0x2a056793fdc51a",
        "input": "0xb70d4241000000000000000000000000000000000000000000000000000000000000006000000000000000000000000000000000000000000000000000000000000001e00000000000000000000000000000000000000000000000000000000000000220000000000000000000000000000000000000000000000000000000000000000100000000000000000000000000000000000000000000000000000000000000200000000000000000000000000000000000000000000000000000000000007670000000000000000000000000741f0d8bde14140f62107fc60a0ee122b37d46300000000000000000000000000000000000000000000000004563918244f40000000000000000000000000000000000000000000000000000000000000000000000000000000000000000000000000000000000000000000000000000000000e000000000000000000000000000000000000000000000000000000000000001000000000000000000000000000000000000000000000000000000000000000120000000000000000000000000000000000000000000000000000000000000000000000000000000000000000000000000000000000000000000000000000000000000000000000000000000000000000000000000000000000000000000000000000000000000000000000000000000000000000000000000000000000000000100000000000000000000000057558cb8d6005de0bae8a2789d5efaae52dba5a80000000000000000000000000000000000000000000000000000000000000001000000000000000000000000741f0d8bde14140f62107fc60a0ee122b37d4630",
        "nonce": "0x85",
        "chainId": "0x138de"
      },
      "additionalContracts": [],
      "isFixedGasLimit": false
    }
  ],
  "receipts": [
    {
      "status": "0x1",
      "cumulativeGasUsed": "0x126a5f",
      "logs": [
        {
          "address": "0x57558cb8d6005de0bae8a2789d5efaae52dba5a8",
          "topics": [
            "0xddf252ad1be2c89b69c2b068fc378daa952ba7f163c4a11628f55a4df523b3ef",
            "0x000000000000000000000000741f0d8bde14140f62107fc60a0ee122b37d4630",
            "0x0000000000000000000000000000000000000000000000000000000000000000"
          ],
          "data": "0x0000000000000000000000000000000000000000000000004563918244f40000",
          "blockHash": "0x5524af974a1262c83e6dd603effbe1cc954d0b505819fdef680ab76561a92753",
          "blockNumber": "0x651926",
          "blockTimestamp": "0x6854d5b0",
          "transactionHash": "0x3ede4865f5b35fd5c1e31f60711943dbc9c1b29b915ba9681129977bfbddbf9e",
          "transactionIndex": "0x7",
          "logIndex": "0x5",
          "removed": false
        },
        {
          "address": "0xc39161c743d0307eb9bcc9fef03eeb9dc4802de7",
          "topics": [
            "0x61ed099e74a97a1d7f8bb0952a88ca8b7b8ebd00c126ea04671f92a81213318a"
          ],
          "data": "0x0000000000000000000000004208d6e27538189bb48e603d6123a94b8abe0a0b0000000000000000000000000000000000000000000000000028712b80a45bc8",
          "blockHash": "0x5524af974a1262c83e6dd603effbe1cc954d0b505819fdef680ab76561a92753",
          "blockNumber": "0x651926",
          "blockTimestamp": "0x6854d5b0",
          "transactionHash": "0x3ede4865f5b35fd5c1e31f60711943dbc9c1b29b915ba9681129977bfbddbf9e",
          "transactionIndex": "0x7",
          "logIndex": "0x6",
          "removed": false
        },
        {
          "address": "0xc39161c743d0307eb9bcc9fef03eeb9dc4802de7",
          "topics": [
            "0x07ea52d82345d6e838192107d8fd7123d9c2ec8e916cd0aad13fd2b60db24644"
          ],
          "data": "0x000000000000000000000000000000000000000000000000000000000000006000000000000000000000000000000000000000000000000000000000000000e000000000000000000000000000000000000000000000000000000000000001000000000000000000000000000000000000000000000000000000000000000003000000000000000000000000282b3386571f7f794450d5789911a9804fa346b4000000000000000000000000559a194dae0508342e7ce1ad96e7e90a77f8bc4c000000000000000000000000ecbaa45c33ce6fa284995e5f8314f5bc7f1c200800000000000000000000000000000000000000000000000000000000000000000000000000000000000000000000000000000000000000000000000000000003000000000000000000000000000000000000000000000000000086beb11dcdc6000000000000000000000000000000000000000000000000000086beb11dcdc6000000000000000000000000000000000000000000000000000086beb11dcdc6",
          "blockHash": "0x5524af974a1262c83e6dd603effbe1cc954d0b505819fdef680ab76561a92753",
          "blockNumber": "0x651926",
          "blockTimestamp": "0x6854d5b0",
          "transactionHash": "0x3ede4865f5b35fd5c1e31f60711943dbc9c1b29b915ba9681129977bfbddbf9e",
          "transactionIndex": "0x7",
          "logIndex": "0x7",
          "removed": false
        },
        {
          "address": "0x6f475642a6e85809b1c36fa62763669b1b48dd5b",
          "topics": [
            "0x1ab700d4ced0c005b164c0f789fd09fcbb0156d4c2041b8a3bfbcd961cd1567f"
          ],
          "data": "0x00000000000000000000000000000000000000000000000000000000000000600000000000000000000000000000000000000000000000000000000000000120000000000000000000000000c39161c743d0307eb9bcc9fef03eeb9dc4802de700000000000000000000000000000000000000000000000000000000000000990100000000000000010000769a00000000000000000000000057558cb8d6005de0bae8a2789d5efaae52dba5a80000767000000000000000000000000057558cb8d6005de0bae8a2789d5efaae52dba5a80d394e371c761fa47239b79dedf28d09ffa23efb8dc6311e307148e91fe5d3aa000000000000000000000000741f0d8bde14140f62107fc60a0ee122b37d463000000000004c4b4000000000000000000000000000000000000000000000000000000000000000000000000000001600030100110100000000000000000000000000030d4000000000000000000000",
          "blockHash": "0x5524af974a1262c83e6dd603effbe1cc954d0b505819fdef680ab76561a92753",
          "blockNumber": "0x651926",
          "blockTimestamp": "0x6854d5b0",
          "transactionHash": "0x3ede4865f5b35fd5c1e31f60711943dbc9c1b29b915ba9681129977bfbddbf9e",
          "transactionIndex": "0x7",
          "logIndex": "0x8",
          "removed": false
        },
        {
          "address": "0x57558cb8d6005de0bae8a2789d5efaae52dba5a8",
          "topics": [
            "0x85496b760a4b7f8d66384b9df21b381f5d1b1e79f229a47aaf4c232edc2fe59a",
            "0x0d394e371c761fa47239b79dedf28d09ffa23efb8dc6311e307148e91fe5d3aa",
            "0x000000000000000000000000741f0d8bde14140f62107fc60a0ee122b37d4630"
          ],
          "data": "0x00000000000000000000000000000000000000000000000000000000000076700000000000000000000000000000000000000000000000004563918244f400000000000000000000000000000000000000000000000000004563918244f40000",
          "blockHash": "0x5524af974a1262c83e6dd603effbe1cc954d0b505819fdef680ab76561a92753",
          "blockNumber": "0x651926",
          "blockTimestamp": "0x6854d5b0",
          "transactionHash": "0x3ede4865f5b35fd5c1e31f60711943dbc9c1b29b915ba9681129977bfbddbf9e",
          "transactionIndex": "0x7",
          "logIndex": "0x9",
          "removed": false
        }
      ],
      "logsBloom": "0x0010000000000000000000000004004000000000000000000000000000000000000000000000000000000000000000040000010000000000000000000000000000000200000000000000000800000000014000000000000000000000000000000000000002000000802000000000080000000000000000000000001000000000000400000080000000000008000000000000100000000000000000000000000000000000a000001000100000000000000000000000400000000450000000000000000002000000000000000080000000000000000000000000000000000020004000040000000000000000000000002000000000008000000000000000000000",
      "type": "0x2",
      "transactionHash": "0x3ede4865f5b35fd5c1e31f60711943dbc9c1b29b915ba9681129977bfbddbf9e",
      "transactionIndex": "0x7",
      "blockHash": "0x5524af974a1262c83e6dd603effbe1cc954d0b505819fdef680ab76561a92753",
      "blockNumber": "0x651926",
      "gasUsed": "0x6642b",
      "effectiveGasPrice": "0xa6",
      "from": "0x45dce8e4f2dc005a5f28206a46cb034697eeda8e",
      "to": "0x741f0d8bde14140f62107fc60a0ee122b37d4630",
      "contractAddress": null
    }
  ],
  "libraries": [],
  "pending": [],
  "returns": {},
  "timestamp": 1750390194,
  "chain": 80094,
  "commit": "2171fc2"
}