{
  "transactions": [
    {
      "hash": "0xc0ea95cb1be0418dc8183ff797b25cbdae920511eb9f177903aede1ae186a92c",
      "transactionType": "CALL",
      "contractName": null,
      "contractAddress": "0x741f0d8bde14140f62107fc60a0ee122b37d4630",
      "function": "batchBridgeWithEthFeeFromWallet((uint32,bytes32,uint256,uint256,bytes,bytes,bytes)[],address[],address[])",
      "arguments": [
        "[(30370, 0x000000000000000000000000741f0d8bde14140f62107fc60a0ee122b37d4630, 1000000000000000000, 0, 0x, 0x, 0x)]",
        "[0x57558Cb8d6005DE0BAe8a2789d5EfaaE52dba5a8]",
        "[0x741F0d8Bde14140f62107FC60A0EE122B37D4630]"
      ],
      "transaction": {
        "from": "0x45dce8e4f2dc005a5f28206a46cb034697eeda8e",
        "to": "0x741f0d8bde14140f62107fc60a0ee122b37d4630",
        "gas": "0x958e4",
        "value": "0x83e4191a2cb187",
        "input": "0xb70d4241000000000000000000000000000000000000000000000000000000000000006000000000000000000000000000000000000000000000000000000000000001e000000000000000000000000000000000000000000000000000000000000002200000000000000000000000000000000000000000000000000000000000000001000000000000000000000000000000000000000000000000000000000000002000000000000000000000000000000000000000000000000000000000000076a2000000000000000000000000741f0d8bde14140f62107fc60a0ee122b37d46300000000000000000000000000000000000000000000000000de0b6b3a7640000000000000000000000000000000000000000000000000000000000000000000000000000000000000000000000000000000000000000000000000000000000e000000000000000000000000000000000000000000000000000000000000001000000000000000000000000000000000000000000000000000000000000000120000000000000000000000000000000000000000000000000000000000000000000000000000000000000000000000000000000000000000000000000000000000000000000000000000000000000000000000000000000000000000000000000000000000000000000000000000000000000000000000000000000000000000100000000000000000000000057558cb8d6005de0bae8a2789d5efaae52dba5a80000000000000000000000000000000000000000000000000000000000000001000000000000000000000000741f0d8bde14140f62107fc60a0ee122b37d4630",
        "nonce": "0xa8",
        "chainId": "0x138de"
      },
      "additionalContracts": [],
      "isFixedGasLimit": false
    }
  ],
  "receipts": [
    {
      "status": "0x1",
      "cumulativeGasUsed": "0x1b511d8",
      "logs": [
        {
          "address": "0x57558cb8d6005de0bae8a2789d5efaae52dba5a8",
          "topics": [
            "0xddf252ad1be2c89b69c2b068fc378daa952ba7f163c4a11628f55a4df523b3ef",
            "0x000000000000000000000000741f0d8bde14140f62107fc60a0ee122b37d4630",
            "0x0000000000000000000000000000000000000000000000000000000000000000"
          ],
          "data": "0x0000000000000000000000000000000000000000000000000de0b6b3a7640000",
          "blockHash": "0x7381269ce3612a091dccea34bf0a4e8d5370688a4fd5fa31b78974dc37c45efd",
          "blockNumber": "0x78bdcd",
          "blockTimestamp": "0x687abfbb",
          "transactionHash": "0xc0ea95cb1be0418dc8183ff797b25cbdae920511eb9f177903aede1ae186a92c",
          "transactionIndex": "0x12",
          "logIndex": "0xa0",
          "removed": false
        },
        {
          "address": "0xc39161c743d0307eb9bcc9fef03eeb9dc4802de7",
          "topics": [
            "0x61ed099e74a97a1d7f8bb0952a88ca8b7b8ebd00c126ea04671f92a81213318a"
          ],
          "data": "0x0000000000000000000000004208d6e27538189bb48e603d6123a94b8abe0a0b000000000000000000000000000000000000000000000000004ee0151615effb",
          "blockHash": "0x7381269ce3612a091dccea34bf0a4e8d5370688a4fd5fa31b78974dc37c45efd",
          "blockNumber": "0x78bdcd",
          "blockTimestamp": "0x687abfbb",
          "transactionHash": "0xc0ea95cb1be0418dc8183ff797b25cbdae920511eb9f177903aede1ae186a92c",
          "transactionIndex": "0x12",
          "logIndex": "0xa1",
          "removed": false
        },
        {
          "address": "0xc39161c743d0307eb9bcc9fef03eeb9dc4802de7",
          "topics": [
            "0x07ea52d82345d6e838192107d8fd7123d9c2ec8e916cd0aad13fd2b60db24644"
          ],
          "data": "0x000000000000000000000000000000000000000000000000000000000000006000000000000000000000000000000000000000000000000000000000000000e000000000000000000000000000000000000000000000000000000000000001000000000000000000000000000000000000000000000000000000000000000003000000000000000000000000282b3386571f7f794450d5789911a9804fa346b4000000000000000000000000559a194dae0508342e7ce1ad96e7e90a77f8bc4c000000000000000000000000ecbaa45c33ce6fa284995e5f8314f5bc7f1c2008000000000000000000000000000000000000000000000000000000000000000000000000000000000000000000000000000000000000000000000000000000030000000000000000000000000000000000000000000000000011ac0156b240840000000000000000000000000000000000000000000000000011ac0156b240840000000000000000000000000000000000000000000000000011ac0156b24084",
          "blockHash": "0x7381269ce3612a091dccea34bf0a4e8d5370688a4fd5fa31b78974dc37c45efd",
          "blockNumber": "0x78bdcd",
          "blockTimestamp": "0x687abfbb",
          "transactionHash": "0xc0ea95cb1be0418dc8183ff797b25cbdae920511eb9f177903aede1ae186a92c",
          "transactionIndex": "0x12",
          "logIndex": "0xa2",
          "removed": false
        },
        {
          "address": "0x6f475642a6e85809b1c36fa62763669b1b48dd5b",
          "topics": [
            "0x1ab700d4ced0c005b164c0f789fd09fcbb0156d4c2041b8a3bfbcd961cd1567f"
          ],
          "data": "0x00000000000000000000000000000000000000000000000000000000000000600000000000000000000000000000000000000000000000000000000000000120000000000000000000000000c39161c743d0307eb9bcc9fef03eeb9dc4802de700000000000000000000000000000000000000000000000000000000000000990100000000000000010000769a00000000000000000000000057558cb8d6005de0bae8a2789d5efaae52dba5a8000076a200000000000000000000000057558cb8d6005de0bae8a2789d5efaae52dba5a84ffd318447011a76560f4f084a634d66cb23e7675c5c0e9a33c120ec10ddce50000000000000000000000000741f0d8bde14140f62107fc60a0ee122b37d463000000000000f424000000000000000000000000000000000000000000000000000000000000000000000000000001600030100110100000000000000000000000000030d4000000000000000000000",
          "blockHash": "0x7381269ce3612a091dccea34bf0a4e8d5370688a4fd5fa31b78974dc37c45efd",
          "blockNumber": "0x78bdcd",
          "blockTimestamp": "0x687abfbb",
          "transactionHash": "0xc0ea95cb1be0418dc8183ff797b25cbdae920511eb9f177903aede1ae186a92c",
          "transactionIndex": "0x12",
          "logIndex": "0xa3",
          "removed": false
        },
        {
          "address": "0x57558cb8d6005de0bae8a2789d5efaae52dba5a8",
          "topics": [
            "0x85496b760a4b7f8d66384b9df21b381f5d1b1e79f229a47aaf4c232edc2fe59a",
            "0x4ffd318447011a76560f4f084a634d66cb23e7675c5c0e9a33c120ec10ddce50",
            "0x000000000000000000000000741f0d8bde14140f62107fc60a0ee122b37d4630"
          ],
          "data": "0x00000000000000000000000000000000000000000000000000000000000076a20000000000000000000000000000000000000000000000000de0b6b3a76400000000000000000000000000000000000000000000000000000de0b6b3a7640000",
          "blockHash": "0x7381269ce3612a091dccea34bf0a4e8d5370688a4fd5fa31b78974dc37c45efd",
          "blockNumber": "0x78bdcd",
          "blockTimestamp": "0x687abfbb",
          "transactionHash": "0xc0ea95cb1be0418dc8183ff797b25cbdae920511eb9f177903aede1ae186a92c",
          "transactionIndex": "0x12",
          "logIndex": "0xa4",
          "removed": false
        }
      ],
      "logsBloom": "0x0010000000000000000000000004004000000000000000000000000000000000000000000000000000000000000000040000010000000000000000000000000000000200000000000000000800000000014000000000000000000000000000000000000002000000802000000000080000000000000000000000001000000000000000000080000000000008000000000000000000000000000000000000000000000000a000001000100000000000000000000000400000000440001000000000000002000000000000040080000000000000000000000000000000000020004000040000000000000000000000002000000000008000000000000000000000",
      "type": "0x2",
      "transactionHash": "0xc0ea95cb1be0418dc8183ff797b25cbdae920511eb9f177903aede1ae186a92c",
      "transactionIndex": "0x12",
      "blockHash": "0x7381269ce3612a091dccea34bf0a4e8d5370688a4fd5fa31b78974dc37c45efd",
      "blockNumber": "0x78bdcd",
      "gasUsed": "0x6642b",
      "effectiveGasPrice": "0x6a",
      "from": "0x45dce8e4f2dc005a5f28206a46cb034697eeda8e",
      "to": "0x741f0d8bde14140f62107fc60a0ee122b37d4630",
      "contractAddress": null
    }
  ],
  "libraries": [],
  "pending": [],
  "returns": {},
  "timestamp": 1752874942,
  "chain": 80094,
  "commit": "c079579"
}