{
  "transactions": [
    {
      "hash": "0xc86141b4f9fb98cad1fd8d5f342e0b69c002a12f0ab186d82df07714db9690c2",
      "transactionType": "CALL",
      "contractName": null,
      "contractAddress": "0x458edf815687e48354909a1a848f2528e1655764",
      "function": "setEnforcedOptions((uint32,uint16,bytes)[])",
      "arguments": [
        "[(30255, 1, 0x00030100110100000000000000000000000000030d40), (30255, 2, 0x0003010011010000000000000000000000000003d090)]"
      ],
      "transaction": {
        "from": "0x45dce8e4f2dc005a5f28206a46cb034697eeda8e",
        "to": "0x458edf815687e48354909a1a848f2528e1655764",
        "gas": "0x887cf",
        "value": "0x0",
        "input": "0xb98bd07000000000000000000000000000000000000000000000000000000000000000200000000000000000000000000000000000000000000000000000000000000002000000000000000000000000000000000000000000000000000000000000004000000000000000000000000000000000000000000000000000000000000000e0000000000000000000000000000000000000000000000000000000000000762f00000000000000000000000000000000000000000000000000000000000000010000000000000000000000000000000000000000000000000000000000000060000000000000000000000000000000000000000000000000000000000000001600030100110100000000000000000000000000030d4000000000000000000000000000000000000000000000000000000000000000000000000000000000762f0000000000000000000000000000000000000000000000000000000000000002000000000000000000000000000000000000000000000000000000000000006000000000000000000000000000000000000000000000000000000000000000160003010011010000000000000000000000000003d09000000000000000000000",
        "nonce": "0xac",
        "chainId": "0x1079",
        "feeToken": "0x20c0000000000000000000000000000000000000",
        "calls": [],
        "keyType": null,
        "keyData": null
      },
      "additionalContracts": [],
      "isFixedGasLimit": false
    },
    {
      "hash": "0x5f3e91e38a17edd06b2ecdb9643483e2301f61b44960285d50e13463f2a039f9",
      "transactionType": "CALL",
      "contractName": null,
      "contractAddress": "0x458edf815687e48354909a1a848f2528e1655764",
      "function": "setPeer(uint32,bytes32)",
      "arguments": [
        "30255",
        "0x000000000000000000000000458edf815687e48354909a1a848f2528e1655764"
      ],
      "transaction": {
        "from": "0x45dce8e4f2dc005a5f28206a46cb034697eeda8e",
        "to": "0x458edf815687e48354909a1a848f2528e1655764",
        "gas": "0x47442",
        "value": "0x0",
        "input": "0x3400288b000000000000000000000000000000000000000000000000000000000000762f000000000000000000000000458edf815687e48354909a1a848f2528e1655764",
        "nonce": "0xad",
        "chainId": "0x1079",
        "feeToken": "0x20c0000000000000000000000000000000000000",
        "calls": [],
        "keyType": null,
        "keyData": null
      },
      "additionalContracts": [],
      "isFixedGasLimit": false
    },
    {
      "hash": "0x26382ed038b094299bb8714968764ba1bd23892fe75edf1074a52b5c74bc061f",
      "transactionType": "CALL",
      "contractName": null,
      "contractAddress": "0x20bb7c2e2f4e5ca2b4c57060d1ae2615245dcc9c",
      "function": "setConfig(address,address,(uint32,uint32,bytes)[])",
      "arguments": [
        "0x458edF815687e48354909A1a848f2528e1655764",
        "0x572863d9247E52026E0892d9Cd2E519B41EdB73C",
        "[(30255, 2, 0x0000000000000000000000000000000000000000000000000000000000000020000000000000000000000000000000000000000000000000000000000000000000000000000000000000000000000000000000000000000000000000000000030000000000000000000000000000000000000000000000000000000000000000000000000000000000000000000000000000000000000000000000000000000000000000000000000000000000000000000000000000000000000000000000c00000000000000000000000000000000000000000000000000000000000000140000000000000000000000000000000000000000000000000000000000000000300000000000000000000000076faff60799021b301b45dc1bbede53f261f996100000000000000000000000097faa2a9c9bf8b4082b175a5b894ce6bac6697a8000000000000000000000000f5771acc42f3321d7193748fa0f656470bf737f20000000000000000000000000000000000000000000000000000000000000000)]"
      ],
      "transaction": {
        "from": "0x45dce8e4f2dc005a5f28206a46cb034697eeda8e",
        "to": "0x20bb7c2e2f4e5ca2b4c57060d1ae2615245dcc9c",
        "gas": "0x1463c4",
        "value": "0x0",
        "input": "0x6dbd9f90000000000000000000000000458edf815687e48354909a1a848f2528e1655764000000000000000000000000572863d9247e52026e0892d9cd2e519b41edb73c000000000000000000000000000000000000000000000000000000000000006000000000000000000000000000000000000000000000000000000000000000010000000000000000000000000000000000000000000000000000000000000020000000000000000000000000000000000000000000000000000000000000762f0000000000000000000000000000000000000000000000000000000000000002000000000000000000000000000000000000000000000000000000000000006000000000000000000000000000000000000000000000000000000000000001800000000000000000000000000000000000000000000000000000000000000020000000000000000000000000000000000000000000000000000000000000000000000000000000000000000000000000000000000000000000000000000000030000000000000000000000000000000000000000000000000000000000000000000000000000000000000000000000000000000000000000000000000000000000000000000000000000000000000000000000000000000000000000000000c00000000000000000000000000000000000000000000000000000000000000140000000000000000000000000000000000000000000000000000000000000000300000000000000000000000076faff60799021b301b45dc1bbede53f261f996100000000000000000000000097faa2a9c9bf8b4082b175a5b894ce6bac6697a8000000000000000000000000f5771acc42f3321d7193748fa0f656470bf737f20000000000000000000000000000000000000000000000000000000000000000",
        "nonce": "0xae",
        "chainId": "0x1079",
        "feeToken": "0x20c0000000000000000000000000000000000000",
        "calls": [],
        "keyType": null,
        "keyData": null
      },
      "additionalContracts": [],
      "isFixedGasLimit": false
    },
    {
      "hash": "0x1057b70ecd11e0f380717adeb43f587b08ec80ddf26e2cb8b7309b2d2da165d9",
      "transactionType": "CALL",
      "contractName": null,
      "contractAddress": "0x20bb7c2e2f4e5ca2b4c57060d1ae2615245dcc9c",
      "function": "setConfig(address,address,(uint32,uint32,bytes)[])",
      "arguments": [
        "0x458edF815687e48354909A1a848f2528e1655764",
        "0x0B6F08C2D39421Acb49c99abCe82050e356171e5",
        "[(30255, 2, 0x0000000000000000000000000000000000000000000000000000000000000020000000000000000000000000000000000000000000000000000000000000000000000000000000000000000000000000000000000000000000000000000000030000000000000000000000000000000000000000000000000000000000000000000000000000000000000000000000000000000000000000000000000000000000000000000000000000000000000000000000000000000000000000000000c00000000000000000000000000000000000000000000000000000000000000140000000000000000000000000000000000000000000000000000000000000000300000000000000000000000076faff60799021b301b45dc1bbede53f261f996100000000000000000000000097faa2a9c9bf8b4082b175a5b894ce6bac6697a8000000000000000000000000f5771acc42f3321d7193748fa0f656470bf737f20000000000000000000000000000000000000000000000000000000000000000)]"
      ],
      "transaction": {
        "from": "0x45dce8e4f2dc005a5f28206a46cb034697eeda8e",
        "to": "0x20bb7c2e2f4e5ca2b4c57060d1ae2615245dcc9c",
        "gas": "0x1462ca",
        "value": "0x0",
        "input": "0x6dbd9f90000000000000000000000000458edf815687e48354909a1a848f2528e16557640000000000000000000000000b6f08c2d39421acb49c99abce82050e356171e5000000000000000000000000000000000000000000000000000000000000006000000000000000000000000000000000000000000000000000000000000000010000000000000000000000000000000000000000000000000000000000000020000000000000000000000000000000000000000000000000000000000000762f0000000000000000000000000000000000000000000000000000000000000002000000000000000000000000000000000000000000000000000000000000006000000000000000000000000000000000000000000000000000000000000001800000000000000000000000000000000000000000000000000000000000000020000000000000000000000000000000000000000000000000000000000000000000000000000000000000000000000000000000000000000000000000000000030000000000000000000000000000000000000000000000000000000000000000000000000000000000000000000000000000000000000000000000000000000000000000000000000000000000000000000000000000000000000000000000c00000000000000000000000000000000000000000000000000000000000000140000000000000000000000000000000000000000000000000000000000000000300000000000000000000000076faff60799021b301b45dc1bbede53f261f996100000000000000000000000097faa2a9c9bf8b4082b175a5b894ce6bac6697a8000000000000000000000000f5771acc42f3321d7193748fa0f656470bf737f20000000000000000000000000000000000000000000000000000000000000000",
        "nonce": "0xaf",
        "chainId": "0x1079",
        "feeToken": "0x20c0000000000000000000000000000000000000",
        "calls": [],
        "keyType": null,
        "keyData": null
      },
      "additionalContracts": [],
      "isFixedGasLimit": false
    },
    {
      "hash": "0x92a46f21b732de108ef235005e96a76ab3fb496a358db6f1207483110de29b51",
      "transactionType": "CALL",
      "contractName": null,
      "contractAddress": "0x20bb7c2e2f4e5ca2b4c57060d1ae2615245dcc9c",
      "function": "setSendLibrary(address,uint32,address)",
      "arguments": [
        "0x458edF815687e48354909A1a848f2528e1655764",
        "30255",
        "0x572863d9247E52026E0892d9Cd2E519B41EdB73C"
      ],
      "transaction": {
        "from": "0x45dce8e4f2dc005a5f28206a46cb034697eeda8e",
        "to": "0x20bb7c2e2f4e5ca2b4c57060d1ae2615245dcc9c",
        "gas": "0x471de",
        "value": "0x0",
        "input": "0x9535ff30000000000000000000000000458edf815687e48354909a1a848f2528e1655764000000000000000000000000000000000000000000000000000000000000762f000000000000000000000000572863d9247e52026e0892d9cd2e519b41edb73c",
        "nonce": "0xb0",
        "chainId": "0x1079",
        "feeToken": "0x20c0000000000000000000000000000000000000",
        "calls": [],
        "keyType": null,
        "keyData": null
      },
      "additionalContracts": [],
      "isFixedGasLimit": false
    },
    {
      "hash": "0x163f381f53b5fba32b9e8e1f759a4e4417de96a2073ccc578c83027661772cc0",
      "transactionType": "CALL",
      "contractName": null,
      "contractAddress": "0x20bb7c2e2f4e5ca2b4c57060d1ae2615245dcc9c",
      "function": "setReceiveLibrary(address,uint32,address,uint256)",
      "arguments": [
        "0x458edF815687e48354909A1a848f2528e1655764",
        "30255",
        "0x0B6F08C2D39421Acb49c99abCe82050e356171e5",
        "0"
      ],
      "transaction": {
        "from": "0x45dce8e4f2dc005a5f28206a46cb034697eeda8e",
        "to": "0x20bb7c2e2f4e5ca2b4c57060d1ae2615245dcc9c",
        "gas": "0x48c26",
        "value": "0x0",
        "input": "0x6a14d715000000000000000000000000458edf815687e48354909a1a848f2528e1655764000000000000000000000000000000000000000000000000000000000000762f0000000000000000000000000b6f08c2d39421acb49c99abce82050e356171e50000000000000000000000000000000000000000000000000000000000000000",
        "nonce": "0xb1",
        "chainId": "0x1079",
        "feeToken": "0x20c0000000000000000000000000000000000000",
        "calls": [],
        "keyType": null,
        "keyData": null
      },
      "additionalContracts": [],
      "isFixedGasLimit": false
    }
  ],
  "receipts": [
    {
      "type": "0x76",
      "status": "0x1",
      "cumulativeGasUsed": "0x85cb4",
      "logs": [
        {
          "address": "0x458edf815687e48354909a1a848f2528e1655764",
          "topics": [
            "0xbe4864a8e820971c0247f5992e2da559595f7bf076a21cb5928d443d2a13b674"
          ],
          "data": "0x00000000000000000000000000000000000000000000000000000000000000200000000000000000000000000000000000000000000000000000000000000002000000000000000000000000000000000000000000000000000000000000004000000000000000000000000000000000000000000000000000000000000000e0000000000000000000000000000000000000000000000000000000000000762f00000000000000000000000000000000000000000000000000000000000000010000000000000000000000000000000000000000000000000000000000000060000000000000000000000000000000000000000000000000000000000000001600030100110100000000000000000000000000030d4000000000000000000000000000000000000000000000000000000000000000000000000000000000762f0000000000000000000000000000000000000000000000000000000000000002000000000000000000000000000000000000000000000000000000000000006000000000000000000000000000000000000000000000000000000000000000160003010011010000000000000000000000000003d09000000000000000000000",
          "blockHash": "0xebe6f9d735137cf4ba51e4d3d4e23f0da16a521c6bf53fe7b6d887206bbc839b",
          "blockNumber": "0x589bd3",
          "blockTimestamp": "0x6998c052",
          "transactionHash": "0xc86141b4f9fb98cad1fd8d5f342e0b69c002a12f0ab186d82df07714db9690c2",
          "transactionIndex": "0x0",
          "logIndex": "0x0",
          "removed": false
        },
        {
          "address": "0x20c0000000000000000000000000000000000000",
          "topics": [
            "0xddf252ad1be2c89b69c2b068fc378daa952ba7f163c4a11628f55a4df523b3ef",
            "0x00000000000000000000000045dce8e4f2dc005a5f28206a46cb034697eeda8e",
            "0x000000000000000000000000feec000000000000000000000000000000000000"
          ],
          "data": "0x0000000000000000000000000000000000000000000000000000000000002ad1",
          "blockHash": "0xebe6f9d735137cf4ba51e4d3d4e23f0da16a521c6bf53fe7b6d887206bbc839b",
          "blockNumber": "0x589bd3",
          "blockTimestamp": "0x6998c052",
          "transactionHash": "0xc86141b4f9fb98cad1fd8d5f342e0b69c002a12f0ab186d82df07714db9690c2",
          "transactionIndex": "0x0",
          "logIndex": "0x1",
          "removed": false
        }
      ],
      "logsBloom": "0x00000000000000000000000200000000000000000000000000000000000000000000000000000000000000000100000000000000000000000000400000000000000004000000000000000008000000000000000000000000000000000400000000000000000000000000000000000000000000000040000000000010000000000000000000000000000000000020000000000000800000000000000040080000000024000000000000000000000000000000000000000000000000000000000000000002000000000000000002000000001000000000000000000000000000000000000000000000000000000000800000000000000000000000000000000000",
      "transactionHash": "0xc86141b4f9fb98cad1fd8d5f342e0b69c002a12f0ab186d82df07714db9690c2",
      "transactionIndex": "0x0",
      "blockHash": "0xebe6f9d735137cf4ba51e4d3d4e23f0da16a521c6bf53fe7b6d887206bbc839b",
      "blockNumber": "0x589bd3",
      "gasUsed": "0x85cb4",
      "effectiveGasPrice": "0x4a817c801",
      "from": "0x45dce8e4f2dc005a5f28206a46cb034697eeda8e",
      "to": "0x458edf815687e48354909a1a848f2528e1655764",
      "contractAddress": null,
      "feeToken": "0x20c0000000000000000000000000000000000000",
      "feePayer": "0x45dce8e4f2dc005a5f28206a46cb034697eeda8e"
    },
    {
      "type": "0x76",
      "status": "0x1",
      "cumulativeGasUsed": "0x45975",
      "logs": [
        {
          "address": "0x458edf815687e48354909a1a848f2528e1655764",
          "topics": [
            "0x238399d427b947898edb290f5ff0f9109849b1c3ba196a42e35f00c50a54b98b"
          ],
          "data": "0x000000000000000000000000000000000000000000000000000000000000762f000000000000000000000000458edf815687e48354909a1a848f2528e1655764",
          "blockHash": "0x844bcd8e0a7cdbe9f6b450f7fbd345eeaf78a06e2a5d2b21cbf415fd78af007e",
          "blockNumber": "0x589bd7",
          "blockTimestamp": "0x6998c054",
          "transactionHash": "0x5f3e91e38a17edd06b2ecdb9643483e2301f61b44960285d50e13463f2a039f9",
          "transactionIndex": "0x0",
          "logIndex": "0x0",
          "removed": false
        },
        {
          "address": "0x20c0000000000000000000000000000000000000",
          "topics": [
            "0xddf252ad1be2c89b69c2b068fc378daa952ba7f163c4a11628f55a4df523b3ef",
            "0x00000000000000000000000045dce8e4f2dc005a5f28206a46cb034697eeda8e",
            "0x000000000000000000000000feec000000000000000000000000000000000000"
          ],
          "data": "0x0000000000000000000000000000000000000000000000000000000000001645",
          "blockHash": "0x844bcd8e0a7cdbe9f6b450f7fbd345eeaf78a06e2a5d2b21cbf415fd78af007e",
          "blockNumber": "0x589bd7",
          "blockTimestamp": "0x6998c054",
          "transactionHash": "0x5f3e91e38a17edd06b2ecdb9643483e2301f61b44960285d50e13463f2a039f9",
          "transactionIndex": "0x0",
          "logIndex": "0x1",
          "removed": false
        }
      ],
      "logsBloom": "0x00000000000000000000000200000000000000000000000000000000000000000000000000000000000000000100000000000000000000000800000000000000000004000000000000000008000000000000000000000000000000000400000000000000000000000000000000000000000000000040000000000010000000000000000000000000000000000020000000000000800000000000000040000000000024000000000000000000000000000000000000000000000002000000000000000002000000000000000000000000001000000000000000040000000000000000000000000000000000000000800000000000000000000000000000000000",
      "transactionHash": "0x5f3e91e38a17edd06b2ecdb9643483e2301f61b44960285d50e13463f2a039f9",
      "transactionIndex": "0x0",
      "blockHash": "0x844bcd8e0a7cdbe9f6b450f7fbd345eeaf78a06e2a5d2b21cbf415fd78af007e",
      "blockNumber": "0x589bd7",
      "gasUsed": "0x45975",
      "effectiveGasPrice": "0x4a817c801",
      "from": "0x45dce8e4f2dc005a5f28206a46cb034697eeda8e",
      "to": "0x458edf815687e48354909a1a848f2528e1655764",
      "contractAddress": null,
      "feeToken": "0x20c0000000000000000000000000000000000000",
      "feePayer": "0x45dce8e4f2dc005a5f28206a46cb034697eeda8e"
    },
    {
      "type": "0x76",
      "status": "0x1",
      "cumulativeGasUsed": "0x140939",
      "logs": [
        {
          "address": "0x572863d9247e52026e0892d9cd2e519b41edb73c",
          "topics": [
            "0x82118522aa536ac0e96cc5c689407ae42b89d592aa133890a01f1509842f5081"
          ],
          "data": "0x000000000000000000000000458edf815687e48354909a1a848f2528e1655764000000000000000000000000000000000000000000000000000000000000762f0000000000000000000000000000000000000000000000000000000000000060000000000000000000000000000000000000000000000000000000000000000000000000000000000000000000000000000000000000000000000000000000030000000000000000000000000000000000000000000000000000000000000000000000000000000000000000000000000000000000000000000000000000000000000000000000000000000000000000000000000000000000000000000000c00000000000000000000000000000000000000000000000000000000000000140000000000000000000000000000000000000000000000000000000000000000300000000000000000000000076faff60799021b301b45dc1bbede53f261f996100000000000000000000000097faa2a9c9bf8b4082b175a5b894ce6bac6697a8000000000000000000000000f5771acc42f3321d7193748fa0f656470bf737f20000000000000000000000000000000000000000000000000000000000000000",
          "blockHash": "0x24b73686c1eb71a0a4ca18e170c4f00047975a6c8266ffd0fb3f9e9a2dcaf5bb",
          "blockNumber": "0x589bdb",
          "blockTimestamp": "0x6998c056",
          "transactionHash": "0x26382ed038b094299bb8714968764ba1bd23892fe75edf1074a52b5c74bc061f",
          "transactionIndex": "0x0",
          "logIndex": "0x0",
          "removed": false
        },
        {
          "address": "0x20c0000000000000000000000000000000000000",
          "topics": [
            "0xddf252ad1be2c89b69c2b068fc378daa952ba7f163c4a11628f55a4df523b3ef",
            "0x00000000000000000000000045dce8e4f2dc005a5f28206a46cb034697eeda8e",
            "0x000000000000000000000000feec000000000000000000000000000000000000"
          ],
          "data": "0x0000000000000000000000000000000000000000000000000000000000006696",
          "blockHash": "0x24b73686c1eb71a0a4ca18e170c4f00047975a6c8266ffd0fb3f9e9a2dcaf5bb",
          "blockNumber": "0x589bdb",
          "blockTimestamp": "0x6998c056",
          "transactionHash": "0x26382ed038b094299bb8714968764ba1bd23892fe75edf1074a52b5c74bc061f",
          "transactionIndex": "0x0",
          "logIndex": "0x1",
          "removed": false
        }
      ],
      "logsBloom": "0x00000000000000000000000200000000000000000000000000000000000000000000000000000000000000000100000000000000000000000000000000000000000004000000000000000008000000000000000000000000002000000400000000000000000000000000000000000000000000000000000000000010000000000000000000000000000000000020000800000000800000000000000000000000000020000000000000000002000000100000000000000000000000000000000000000002000000000000000000080000001000000000000000000000000000000000000000000000000000000000800000000000000000000000000000000010",
      "transactionHash": "0x26382ed038b094299bb8714968764ba1bd23892fe75edf1074a52b5c74bc061f",
      "transactionIndex": "0x0",
      "blockHash": "0x24b73686c1eb71a0a4ca18e170c4f00047975a6c8266ffd0fb3f9e9a2dcaf5bb",
      "blockNumber": "0x589bdb",
      "gasUsed": "0x140939",
      "effectiveGasPrice": "0x4a817c801",
      "from": "0x45dce8e4f2dc005a5f28206a46cb034697eeda8e",
      "to": "0x20bb7c2e2f4e5ca2b4c57060d1ae2615245dcc9c",
      "contractAddress": null,
      "feeToken": "0x20c0000000000000000000000000000000000000",
      "feePayer": "0x45dce8e4f2dc005a5f28206a46cb034697eeda8e"
    },
    {
      "type": "0x76",
      "status": "0x1",
      "cumulativeGasUsed": "0x140843",
      "logs": [
        {
          "address": "0x0b6f08c2d39421acb49c99abce82050e356171e5",
          "topics": [
            "0x82118522aa536ac0e96cc5c689407ae42b89d592aa133890a01f1509842f5081"
          ],
          "data": "0x000000000000000000000000458edf815687e48354909a1a848f2528e1655764000000000000000000000000000000000000000000000000000000000000762f0000000000000000000000000000000000000000000000000000000000000060000000000000000000000000000000000000000000000000000000000000000000000000000000000000000000000000000000000000000000000000000000030000000000000000000000000000000000000000000000000000000000000000000000000000000000000000000000000000000000000000000000000000000000000000000000000000000000000000000000000000000000000000000000c00000000000000000000000000000000000000000000000000000000000000140000000000000000000000000000000000000000000000000000000000000000300000000000000000000000076faff60799021b301b45dc1bbede53f261f996100000000000000000000000097faa2a9c9bf8b4082b175a5b894ce6bac6697a8000000000000000000000000f5771acc42f3321d7193748fa0f656470bf737f20000000000000000000000000000000000000000000000000000000000000000",
          "blockHash": "0x423033b6d7d236bdbaf9acb49aade0284e8987d27f95552afd9ad7a478de591f",
          "blockNumber": "0x589bdf",
          "blockTimestamp": "0x6998c058",
          "transactionHash": "0x1057b70ecd11e0f380717adeb43f587b08ec80ddf26e2cb8b7309b2d2da165d9",
          "transactionIndex": "0x0",
          "logIndex": "0x0",
          "removed": false
        },
        {
          "address": "0x20c0000000000000000000000000000000000000",
          "topics": [
            "0xddf252ad1be2c89b69c2b068fc378daa952ba7f163c4a11628f55a4df523b3ef",
            "0x00000000000000000000000045dce8e4f2dc005a5f28206a46cb034697eeda8e",
            "0x000000000000000000000000feec000000000000000000000000000000000000"
          ],
          "data": "0x0000000000000000000000000000000000000000000000000000000000006691",
          "blockHash": "0x423033b6d7d236bdbaf9acb49aade0284e8987d27f95552afd9ad7a478de591f",
          "blockNumber": "0x589bdf",
          "blockTimestamp": "0x6998c058",
          "transactionHash": "0x1057b70ecd11e0f380717adeb43f587b08ec80ddf26e2cb8b7309b2d2da165d9",
          "transactionIndex": "0x0",
          "logIndex": "0x1",
          "removed": false
        }
      ],
      "logsBloom": "0x00000000000000000000000200000000000000000000000000000000000000000000000000000000000010000100000000000000000000000000000000000000000004000000000000000008000000000000000000000000002000000400000000000000000000000000000000000000000000000000000000000010000000000000000000000000000000000020000000000000804000000000000000000000000020000000000000000002000000000000000000000000000000000000000000000002000000000000000000000000001000000000000000000000000000000000000010000000000000000000800000000000000000000000000000000010",
      "transactionHash": "0x1057b70ecd11e0f380717adeb43f587b08ec80ddf26e2cb8b7309b2d2da165d9",
      "transactionIndex": "0x0",
      "blockHash": "0x423033b6d7d236bdbaf9acb49aade0284e8987d27f95552afd9ad7a478de591f",
      "blockNumber": "0x589bdf",
      "gasUsed": "0x140843",
      "effectiveGasPrice": "0x4a817c801",
      "from": "0x45dce8e4f2dc005a5f28206a46cb034697eeda8e",
      "to": "0x20bb7c2e2f4e5ca2b4c57060d1ae2615245dcc9c",
      "contractAddress": null,
      "feeToken": "0x20c0000000000000000000000000000000000000",
      "feePayer": "0x45dce8e4f2dc005a5f28206a46cb034697eeda8e"
    },
    {
      "type": "0x76",
      "status": "0x1",
      "cumulativeGasUsed": "0x46462",
      "logs": [
        {
          "address": "0x20bb7c2e2f4e5ca2b4c57060d1ae2615245dcc9c",
          "topics": [
            "0x4cff966ebee29a156dcb34cf72c1d06231fb1777f6bdf6e8089819232f002b1c"
          ],
          "data": "0x000000000000000000000000458edf815687e48354909a1a848f2528e1655764000000000000000000000000000000000000000000000000000000000000762f000000000000000000000000572863d9247e52026e0892d9cd2e519b41edb73c",
          "blockHash": "0x2583dc96dd203e71b72536c7197ed7c5857713df86c352042ceb552b868367d7",
          "blockNumber": "0x589be2",
          "blockTimestamp": "0x6998c05a",
          "transactionHash": "0x92a46f21b732de108ef235005e96a76ab3fb496a358db6f1207483110de29b51",
          "transactionIndex": "0x0",
          "logIndex": "0x0",
          "removed": false
        },
        {
          "address": "0x20c0000000000000000000000000000000000000",
          "topics": [
            "0xddf252ad1be2c89b69c2b068fc378daa952ba7f163c4a11628f55a4df523b3ef",
            "0x00000000000000000000000045dce8e4f2dc005a5f28206a46cb034697eeda8e",
            "0x000000000000000000000000feec000000000000000000000000000000000000"
          ],
          "data": "0x000000000000000000000000000000000000000000000000000000000000167d",
          "blockHash": "0x2583dc96dd203e71b72536c7197ed7c5857713df86c352042ceb552b868367d7",
          "blockNumber": "0x589be2",
          "blockTimestamp": "0x6998c05a",
          "transactionHash": "0x92a46f21b732de108ef235005e96a76ab3fb496a358db6f1207483110de29b51",
          "transactionIndex": "0x0",
          "logIndex": "0x1",
          "removed": false
        }
      ],
      "logsBloom": "0x00000000000000000000000200000000000200000000000000000000000000000000000000000000000000000100000000000000000000000000000001000000000004000000000000000008000000000000000000000000000000000400000000000000000000000000000000000000000000000000000000000010010000000000000000000000000000000020000000000000800000000000000000100000000020000000000000000000000000000000000000000000000000000000000000000002000000000000000000000000001000000000000000000000010000000040000000000000000000000000800000000000000000000000000000000000",
      "transactionHash": "0x92a46f21b732de108ef235005e96a76ab3fb496a358db6f1207483110de29b51",
      "transactionIndex": "0x0",
      "blockHash": "0x2583dc96dd203e71b72536c7197ed7c5857713df86c352042ceb552b868367d7",
      "blockNumber": "0x589be2",
      "gasUsed": "0x46462",
      "effectiveGasPrice": "0x4a817c801",
      "from": "0x45dce8e4f2dc005a5f28206a46cb034697eeda8e",
      "to": "0x20bb7c2e2f4e5ca2b4c57060d1ae2615245dcc9c",
      "contractAddress": null,
      "feeToken": "0x20c0000000000000000000000000000000000000",
      "feePayer": "0x45dce8e4f2dc005a5f28206a46cb034697eeda8e"
    },
    {
      "type": "0x76",
      "status": "0x1",
      "cumulativeGasUsed": "0x47e75",
      "logs": [
        {
          "address": "0x20bb7c2e2f4e5ca2b4c57060d1ae2615245dcc9c",
          "topics": [
            "0xcd6f92f5ac6185a5acfa02c92090746cec64d777269cbcd0ed031e396657a1c2"
          ],
          "data": "0x000000000000000000000000458edf815687e48354909a1a848f2528e1655764000000000000000000000000000000000000000000000000000000000000762f0000000000000000000000000b6f08c2d39421acb49c99abce82050e356171e5",
          "blockHash": "0x43429caffe923a606d7339803ba6a0c7964d625ec2fefd4d567e1db3b382c665",
          "blockNumber": "0x589be6",
          "blockTimestamp": "0x6998c05c",
          "transactionHash": "0x163f381f53b5fba32b9e8e1f759a4e4417de96a2073ccc578c83027661772cc0",
          "transactionIndex": "0x0",
          "logIndex": "0x0",
          "removed": false
        },
        {
          "address": "0x20bb7c2e2f4e5ca2b4c57060d1ae2615245dcc9c",
          "topics": [
            "0x4e0a5bbfa0c11a64effb1ada324b5437a17272e1aed9320398715ef71bb20928"
          ],
          "data": "0x000000000000000000000000458edf815687e48354909a1a848f2528e1655764000000000000000000000000000000000000000000000000000000000000762f00000000000000000000000000000000000000000000000000000000000000000000000000000000000000000000000000000000000000000000000000000000",
          "blockHash": "0x43429caffe923a606d7339803ba6a0c7964d625ec2fefd4d567e1db3b382c665",
          "blockNumber": "0x589be6",
          "blockTimestamp": "0x6998c05c",
          "transactionHash": "0x163f381f53b5fba32b9e8e1f759a4e4417de96a2073ccc578c83027661772cc0",
          "transactionIndex": "0x0",
          "logIndex": "0x1",
          "removed": false
        },
        {
          "address": "0x20c0000000000000000000000000000000000000",
          "topics": [
            "0xddf252ad1be2c89b69c2b068fc378daa952ba7f163c4a11628f55a4df523b3ef",
            "0x00000000000000000000000045dce8e4f2dc005a5f28206a46cb034697eeda8e",
            "0x000000000000000000000000feec000000000000000000000000000000000000"
          ],
          "data": "0x0000000000000000000000000000000000000000000000000000000000001703",
          "blockHash": "0x43429caffe923a606d7339803ba6a0c7964d625ec2fefd4d567e1db3b382c665",
          "blockNumber": "0x589be6",
          "blockTimestamp": "0x6998c05c",
          "transactionHash": "0x163f381f53b5fba32b9e8e1f759a4e4417de96a2073ccc578c83027661772cc0",
          "transactionIndex": "0x0",
          "logIndex": "0x2",
          "removed": false
        }
      ],
      "logsBloom": "0x00000000000000000000020a00000000000000000000000000000000000000020400000000000000000000000100000000000000000000000000000000000000000004000000000000000008000000000000000000800000000000000400000000000000000000000000000000000000000000000000000000000010010000100000000000000000000000000020000000000000800000000000000000100000000020000000000000000000000000000000000000000000000000000000000000000002000000000000000000000000001000000000000000000000010000000000000000000000000000000000800000000000000000000000000000000000",
      "transactionHash": "0x163f381f53b5fba32b9e8e1f759a4e4417de96a2073ccc578c83027661772cc0",
      "transactionIndex": "0x0",
      "blockHash": "0x43429caffe923a606d7339803ba6a0c7964d625ec2fefd4d567e1db3b382c665",
      "blockNumber": "0x589be6",
      "gasUsed": "0x47e75",
      "effectiveGasPrice": "0x4a817c801",
      "from": "0x45dce8e4f2dc005a5f28206a46cb034697eeda8e",
      "to": "0x20bb7c2e2f4e5ca2b4c57060d1ae2615245dcc9c",
      "contractAddress": null,
      "feeToken": "0x20c0000000000000000000000000000000000000",
      "feePayer": "0x45dce8e4f2dc005a5f28206a46cb034697eeda8e"
    }
  ],
  "libraries": [],
  "pending": [],
  "returns": {},
  "timestamp": 1771618398302,
  "chain": 4217,
  "commit": "5f49b17"
}