{
  "transactions": [
    {
      "hash": "0xcd9da59dc58439ad4a4de86617b45eddb403c6a9f0e4556fff535e0e8647f85f",
      "transactionType": "CALL",
      "contractName": null,
      "contractAddress": "0x3cfd93b6fbbd879dca6649ef27170f1d1221cc6d",
      "function": "approve(address,uint256)",
      "arguments": [
        "0xa536976c9cA36e74Af76037af555eefa632ce469",
        "115792089237316195423570985008687907853269984665640564039457584007913129639935"
      ],
      "transaction": {
        "from": "0x0990be6db8c785fbbf9ded8baec612a10cae814b",
        "to": "0x3cfd93b6fbbd879dca6649ef27170f1d1221cc6d",
        "gas": "0x10a30",
        "value": "0x0",
        "input": "0x095ea7b3000000000000000000000000a536976c9ca36e74af76037af555eefa632ce469ffffffffffffffffffffffffffffffffffffffffffffffffffffffffffffffff",
        "nonce": "0xb",
        "chainId": "0x2105"
      },
      "additionalContracts": [],
      "isFixedGasLimit": false
    },
    {
      "hash": "0xd07c6df483880ea3ee256a4532f0b21214999ba5afc002b692b96feef892fc0f",
      "transactionType": "CALL",
      "contractName": null,
      "contractAddress": "0xa536976c9ca36e74af76037af555eefa632ce469",
      "function": "send((uint32,bytes32,uint256,uint256,bytes,bytes,bytes),(uint256,uint256),address)",
      "arguments": [
        "(30255, 0x0000000000000000000000000990be6db8c785fbbf9ded8baec612a10cae814b, 500000000000000000000000, 500000000000000000000000, 0x0003, 0x, 0x)",
        "(539186603891592, 0)",
        "0x0990be6dB8c785FBbF9deD8bAEc612A10CaE814b"
      ],
      "transaction": {
        "from": "0x0990be6db8c785fbbf9ded8baec612a10cae814b",
        "to": "0xa536976c9ca36e74af76037af555eefa632ce469",
        "gas": "0x6f8fc",
        "value": "0x1ea6329fe1b88",
        "input": "0xc7c7f5b300000000000000000000000000000000000000000000000000000000000000800000000000000000000000000000000000000000000000000001ea6329fe1b8800000000000000000000000000000000000000000000000000000000000000000000000000000000000000000990be6db8c785fbbf9ded8baec612a10cae814b000000000000000000000000000000000000000000000000000000000000762f0000000000000000000000000990be6db8c785fbbf9ded8baec612a10cae814b0000000000000000000000000000000000000000000069e10de76676d08000000000000000000000000000000000000000000000000069e10de76676d080000000000000000000000000000000000000000000000000000000000000000000e0000000000000000000000000000000000000000000000000000000000000012000000000000000000000000000000000000000000000000000000000000001400000000000000000000000000000000000000000000000000000000000000002000300000000000000000000000000000000000000000000000000000000000000000000000000000000000000000000000000000000000000000000000000000000000000000000000000000000000000000000000000000000000000000000",
        "nonce": "0xc",
        "chainId": "0x2105"
      },
      "additionalContracts": [],
      "isFixedGasLimit": false
    }
  ],
  "receipts": [
    {
      "status": "0x1",
      "cumulativeGasUsed": "0x1e43b1a",
      "logs": [
        {
          "address": "0x3cfd93b6fbbd879dca6649ef27170f1d1221cc6d",
          "topics": [
            "0x8c5be1e5ebec7d5bd14f71427d1e84f3dd0314c0f7b2291e5b200ac8c7c3b925",
            "0x0000000000000000000000000990be6db8c785fbbf9ded8baec612a10cae814b",
            "0x000000000000000000000000a536976c9ca36e74af76037af555eefa632ce469"
          ],
          "data": "0xffffffffffffffffffffffffffffffffffffffffffffffffffffffffffffffff",
          "blockHash": "0xe21b53a748bf8c7c88c0ff7fcad2385ada6b4d173541f58db7e550b12b82ce29",
          "blockNumber": "0x16b2315",
          "transactionHash": "0xcd9da59dc58439ad4a4de86617b45eddb403c6a9f0e4556fff535e0e8647f85f",
          "transactionIndex": "0xb2",
          "logIndex": "0x16c",
          "removed": false
        }
      ],
      "logsBloom": "0x00000000000000000000000000000000000000002000000000000000000000000000002000000000000000000000000000000000000000000000000000a00000000000000000000000000000400000000000000000000000000000000000000000000000000000000010000000000000000000000000000000000000000000000000000000000000000000000000000000000000000000000000000000000000020000000000000000000000000000800000000000000000000000000008000000000000000000000000000000000000000000000000000000000000000000000010000000000000000000000000000000000000000000000000400080000000",
      "type": "0x2",
      "transactionHash": "0xcd9da59dc58439ad4a4de86617b45eddb403c6a9f0e4556fff535e0e8647f85f",
      "transactionIndex": "0xb2",
      "blockHash": "0xe21b53a748bf8c7c88c0ff7fcad2385ada6b4d173541f58db7e550b12b82ce29",
      "blockNumber": "0x16b2315",
      "gasUsed": "0xb603",
      "effectiveGasPrice": "0xffe788",
      "from": "0x0990be6db8c785fbbf9ded8baec612a10cae814b",
      "to": "0x3cfd93b6fbbd879dca6649ef27170f1d1221cc6d",
      "contractAddress": null,
      "l1BaseFeeScalar": "0x8dd",
      "l1BlobBaseFee": "0x2f679080",
      "l1BlobBaseFeeScalar": "0x101c12",
      "l1Fee": "0x204e8c4f12",
      "l1GasPrice": "0x3838ee418",
      "l1GasUsed": "0x640"
    },
    {
      "status": "0x1",
      "cumulativeGasUsed": "0x1e8ff9b",
      "logs": [
        {
          "address": "0x3cfd93b6fbbd879dca6649ef27170f1d1221cc6d",
          "topics": [
            "0xddf252ad1be2c89b69c2b068fc378daa952ba7f163c4a11628f55a4df523b3ef",
            "0x0000000000000000000000000990be6db8c785fbbf9ded8baec612a10cae814b",
            "0x000000000000000000000000a536976c9ca36e74af76037af555eefa632ce469"
          ],
          "data": "0x0000000000000000000000000000000000000000000069e10de76676d0800000",
          "blockHash": "0xe21b53a748bf8c7c88c0ff7fcad2385ada6b4d173541f58db7e550b12b82ce29",
          "blockNumber": "0x16b2315",
          "transactionHash": "0xd07c6df483880ea3ee256a4532f0b21214999ba5afc002b692b96feef892fc0f",
          "transactionIndex": "0xb3",
          "logIndex": "0x16d",
          "removed": false
        },
        {
          "address": "0xb5320b0b3a13cc860893e2bd79fcd7e13484dda2",
          "topics": [
            "0x61ed099e74a97a1d7f8bb0952a88ca8b7b8ebd00c126ea04671f92a81213318a"
          ],
          "data": "0x0000000000000000000000002cca08ae69e0c44b18a57ab2a87644234daebae400000000000000000000000000000000000000000000000000005f0ff912973c",
          "blockHash": "0xe21b53a748bf8c7c88c0ff7fcad2385ada6b4d173541f58db7e550b12b82ce29",
          "blockNumber": "0x16b2315",
          "transactionHash": "0xd07c6df483880ea3ee256a4532f0b21214999ba5afc002b692b96feef892fc0f",
          "transactionIndex": "0xb3",
          "logIndex": "0x16e",
          "removed": false
        },
        {
          "address": "0xb5320b0b3a13cc860893e2bd79fcd7e13484dda2",
          "topics": [
            "0x07ea52d82345d6e838192107d8fd7123d9c2ec8e916cd0aad13fd2b60db24644"
          ],
          "data": "0x000000000000000000000000000000000000000000000000000000000000006000000000000000000000000000000000000000000000000000000000000000c000000000000000000000000000000000000000000000000000000000000000e000000000000000000000000000000000000000000000000000000000000000020000000000000000000000009e059a54699a285714207b43b055483e78faac25000000000000000000000000a7b5189bca84cd304d8553977c7c614329750d99000000000000000000000000000000000000000000000000000000000000000000000000000000000000000000000000000000000000000000000000000000020000000000000000000000000000000000000000000000000000c5a99875c2260000000000000000000000000000000000000000000000000000c5a99875c226",
          "blockHash": "0xe21b53a748bf8c7c88c0ff7fcad2385ada6b4d173541f58db7e550b12b82ce29",
          "blockNumber": "0x16b2315",
          "transactionHash": "0xd07c6df483880ea3ee256a4532f0b21214999ba5afc002b692b96feef892fc0f",
          "transactionIndex": "0xb3",
          "logIndex": "0x16f",
          "removed": false
        },
        {
          "address": "0x1a44076050125825900e736c501f859c50fe728c",
          "topics": [
            "0x1ab700d4ced0c005b164c0f789fd09fcbb0156d4c2041b8a3bfbcd961cd1567f"
          ],
          "data": "0x00000000000000000000000000000000000000000000000000000000000000600000000000000000000000000000000000000000000000000000000000000120000000000000000000000000b5320b0b3a13cc860893e2bd79fcd7e13484dda20000000000000000000000000000000000000000000000000000000000000099010000000000000001000075e8000000000000000000000000a536976c9ca36e74af76037af555eefa632ce4690000762f000000000000000000000000103c430c9fcaa863ea90386e3d0d5cd53333876e6d98bb20fb10724571f3bfb788d31cddc1702eaf4848bc204ae035910fa0e1d60000000000000000000000000990be6db8c785fbbf9ded8baec612a10cae814b000000746a52880000000000000000000000000000000000000000000000000000000000000000000000000000001600030100110100000000000000000000000000030d4000000000000000000000",
          "blockHash": "0xe21b53a748bf8c7c88c0ff7fcad2385ada6b4d173541f58db7e550b12b82ce29",
          "blockNumber": "0x16b2315",
          "transactionHash": "0xd07c6df483880ea3ee256a4532f0b21214999ba5afc002b692b96feef892fc0f",
          "transactionIndex": "0xb3",
          "logIndex": "0x170",
          "removed": false
        },
        {
          "address": "0xa536976c9ca36e74af76037af555eefa632ce469",
          "topics": [
            "0x85496b760a4b7f8d66384b9df21b381f5d1b1e79f229a47aaf4c232edc2fe59a",
            "0x6d98bb20fb10724571f3bfb788d31cddc1702eaf4848bc204ae035910fa0e1d6",
            "0x0000000000000000000000000990be6db8c785fbbf9ded8baec612a10cae814b"
          ],
          "data": "0x000000000000000000000000000000000000000000000000000000000000762f0000000000000000000000000000000000000000000069e10de76676d08000000000000000000000000000000000000000000000000069e10de76676d0800000",
          "blockHash": "0xe21b53a748bf8c7c88c0ff7fcad2385ada6b4d173541f58db7e550b12b82ce29",
          "blockNumber": "0x16b2315",
          "transactionHash": "0xd07c6df483880ea3ee256a4532f0b21214999ba5afc002b692b96feef892fc0f",
          "transactionIndex": "0xb3",
          "logIndex": "0x171",
          "removed": false
        }
      ],
      "logsBloom": "0x00000000000000000000000000000000000000002000000000000000001000000000002100000000000000000000000004000000000000000000000000800000000002000000000000000408400000000000000000000000000000000000000100000000000000008010000000000000000000000010000000800010000000000000000000000000000000080000000000000000000000000004000000000000000000008000000000100000000000800000000000400000000440000008100000000002000000000000000080000000000000000004000000000000000000000000040000000000000000000400002000000000018000000000400080000000",
      "type": "0x2",
      "transactionHash": "0xd07c6df483880ea3ee256a4532f0b21214999ba5afc002b692b96feef892fc0f",
      "transactionIndex": "0xb3",
      "blockHash": "0xe21b53a748bf8c7c88c0ff7fcad2385ada6b4d173541f58db7e550b12b82ce29",
      "blockNumber": "0x16b2315",
      "gasUsed": "0x4c481",
      "effectiveGasPrice": "0xffe788",
      "from": "0x0990be6db8c785fbbf9ded8baec612a10cae814b",
      "to": "0xa536976c9ca36e74af76037af555eefa632ce469",
      "contractAddress": null,
      "l1BaseFeeScalar": "0x8dd",
      "l1BlobBaseFee": "0x2f679080",
      "l1BlobBaseFeeScalar": "0x101c12",
      "l1Fee": "0x32d4b4e852",
      "l1GasPrice": "0x3838ee418",
      "l1GasUsed": "0x9d5"
    }
  ],
  "libraries": [],
  "pending": [],
  "returns": {},
  "timestamp": 1734386426,
  "chain": 8453,
  "commit": "373f982"
}