{
  "transactions": [
    {
      "hash": "0x2c6c0541959dbdf83921ba43f54f76ee240ea62499b1e1c75b9957c7dd6254a4",
      "transactionType": "CALL",
      "contractName": null,
      "contractAddress": "0x741f0d8bde14140f62107fc60a0ee122b37d4630",
      "function": "batchBridgeWithEthFeeFromWallet((uint32,bytes32,uint256,uint256,bytes,bytes,bytes)[],address[],address[])",
      "arguments": [
        "[(30168, 0x3c1b094729102e0c095ee2417e5940ee4f1eab4763f6113fe75281ab74c62398, 1000000000000000000, 0, 0x, 0x, 0x), (30108, 0x09d0eb2763c96e085fa74ba6cf0d49136f8654c48ec7dbc59279a9066c7dd409, 1000000000000000000, 0, 0x, 0x, 0x)]",
        "[0x57558Cb8d6005DE0BAe8a2789d5EfaaE52dba5a8, 0x57558Cb8d6005DE0BAe8a2789d5EfaaE52dba5a8]",
        "[0x741F0d8Bde14140f62107FC60A0EE122B37D4630, 0x741F0d8Bde14140f62107FC60A0EE122B37D4630]"
      ],
      "transaction": {
        "from": "0x45dce8e4f2dc005a5f28206a46cb034697eeda8e",
        "to": "0x741f0d8bde14140f62107fc60a0ee122b37d4630",
        "gas": "0xe1663",
        "value": "0x300363890c06e96f",
        "input": "0xb70d42410000000000000000000000000000000000000000000000000000000000000060000000000000000000000000000000000000000000000000000000000000034000000000000000000000000000000000000000000000000000000000000003a000000000000000000000000000000000000000000000000000000000000000020000000000000000000000000000000000000000000000000000000000000040000000000000000000000000000000000000000000000000000000000000018000000000000000000000000000000000000000000000000000000000000075d83c1b094729102e0c095ee2417e5940ee4f1eab4763f6113fe75281ab74c623980000000000000000000000000000000000000000000000000de0b6b3a7640000000000000000000000000000000000000000000000000000000000000000000000000000000000000000000000000000000000000000000000000000000000e000000000000000000000000000000000000000000000000000000000000001000000000000000000000000000000000000000000000000000000000000000120000000000000000000000000000000000000000000000000000000000000000000000000000000000000000000000000000000000000000000000000000000000000000000000000000000000000000000000000000000000000000000000000000000000000000000000000000000000000000000000000000000000000759c09d0eb2763c96e085fa74ba6cf0d49136f8654c48ec7dbc59279a9066c7dd4090000000000000000000000000000000000000000000000000de0b6b3a7640000000000000000000000000000000000000000000000000000000000000000000000000000000000000000000000000000000000000000000000000000000000e000000000000000000000000000000000000000000000000000000000000001000000000000000000000000000000000000000000000000000000000000000120000000000000000000000000000000000000000000000000000000000000000000000000000000000000000000000000000000000000000000000000000000000000000000000000000000000000000000000000000000000000000000000000000000000000000000000000000000000000000000000000000000000000000200000000000000000000000057558cb8d6005de0bae8a2789d5efaae52dba5a800000000000000000000000057558cb8d6005de0bae8a2789d5efaae52dba5a80000000000000000000000000000000000000000000000000000000000000002000000000000000000000000741f0d8bde14140f62107fc60a0ee122b37d4630000000000000000000000000741f0d8bde14140f62107fc60a0ee122b37d4630",
        "nonce": "0xa8",
        "chainId": "0x531"
      },
      "additionalContracts": [],
      "isFixedGasLimit": false
    }
  ],
  "receipts": [
    {
      "status": "0x1",
      "cumulativeGasUsed": "0x0",
      "logs": [
        {
          "address": "0x57558cb8d6005de0bae8a2789d5efaae52dba5a8",
          "topics": [
            "0xddf252ad1be2c89b69c2b068fc378daa952ba7f163c4a11628f55a4df523b3ef",
            "0x000000000000000000000000741f0d8bde14140f62107fc60a0ee122b37d4630",
            "0x0000000000000000000000000000000000000000000000000000000000000000"
          ],
          "data": "0x0000000000000000000000000000000000000000000000000de0b6b3a7640000",
          "blockHash": "0xa22981239f115f8896ae89c98f19c51359b33c06e630f3f8a6ad8ee57649dffd",
          "blockNumber": "0x953c2ae",
          "transactionHash": "0x2c6c0541959dbdf83921ba43f54f76ee240ea62499b1e1c75b9957c7dd6254a4",
          "transactionIndex": "0x4",
          "logIndex": "0x0",
          "removed": false
        },
        {
          "address": "0xc39161c743d0307eb9bcc9fef03eeb9dc4802de7",
          "topics": [
            "0x61ed099e74a97a1d7f8bb0952a88ca8b7b8ebd00c126ea04671f92a81213318a"
          ],
          "data": "0x000000000000000000000000c097ab8cd7b053326dfe9fb3e3a31a0cce3b526f0000000000000000000000000000000000000000000000001b5b55e51d780f58",
          "blockHash": "0xa22981239f115f8896ae89c98f19c51359b33c06e630f3f8a6ad8ee57649dffd",
          "blockNumber": "0x953c2ae",
          "transactionHash": "0x2c6c0541959dbdf83921ba43f54f76ee240ea62499b1e1c75b9957c7dd6254a4",
          "transactionIndex": "0x4",
          "logIndex": "0x1",
          "removed": false
        },
        {
          "address": "0xc39161c743d0307eb9bcc9fef03eeb9dc4802de7",
          "topics": [
            "0x07ea52d82345d6e838192107d8fd7123d9c2ec8e916cd0aad13fd2b60db24644"
          ],
          "data": "0x000000000000000000000000000000000000000000000000000000000000006000000000000000000000000000000000000000000000000000000000000000e0000000000000000000000000000000000000000000000000000000000000010000000000000000000000000000000000000000000000000000000000000000030000000000000000000000006788f52439aca6bff597d3eec2dc9a44b8fee84200000000000000000000000087048402c32632b7c4d0a892d82bc1160e8b2393000000000000000000000000e016f0f39fb7dcf14e9412d92f2049668d4d26120000000000000000000000000000000000000000000000000000000000000000000000000000000000000000000000000000000000000000000000000000000300000000000000000000000000000000000000000000000000d6e0cf12e369c000000000000000000000000000000000000000000000000000d6e0cf12e369c000000000000000000000000000000000000000000000000000dfe9464766b726",
          "blockHash": "0xa22981239f115f8896ae89c98f19c51359b33c06e630f3f8a6ad8ee57649dffd",
          "blockNumber": "0x953c2ae",
          "transactionHash": "0x2c6c0541959dbdf83921ba43f54f76ee240ea62499b1e1c75b9957c7dd6254a4",
          "transactionIndex": "0x4",
          "logIndex": "0x2",
          "removed": false
        },
        {
          "address": "0x1a44076050125825900e736c501f859c50fe728c",
          "topics": [
            "0x1ab700d4ced0c005b164c0f789fd09fcbb0156d4c2041b8a3bfbcd961cd1567f"
          ],
          "data": "0x00000000000000000000000000000000000000000000000000000000000000600000000000000000000000000000000000000000000000000000000000000120000000000000000000000000c39161c743d0307eb9bcc9fef03eeb9dc4802de700000000000000000000000000000000000000000000000000000000000000990100000000000000010000764800000000000000000000000057558cb8d6005de0bae8a2789d5efaae52dba5a8000075d8006d6ff762f7fcb768c550bae67f7a6a3a94969e469b6e0689563ace4e3759ad2351842516e08e69d88813721b7f173f623572156abb62ab23de6bcb4fc21ab63c1b094729102e0c095ee2417e5940ee4f1eab4763f6113fe75281ab74c6239800000000000f424000000000000000000000000000000000000000000000000000000000000000000000000000002600030100210100000000000000000000000000030d40000000000000000000000000002625a00000000000000000000000000000000000000000000000000000",
          "blockHash": "0xa22981239f115f8896ae89c98f19c51359b33c06e630f3f8a6ad8ee57649dffd",
          "blockNumber": "0x953c2ae",
          "transactionHash": "0x2c6c0541959dbdf83921ba43f54f76ee240ea62499b1e1c75b9957c7dd6254a4",
          "transactionIndex": "0x4",
          "logIndex": "0x3",
          "removed": false
        },
        {
          "address": "0x57558cb8d6005de0bae8a2789d5efaae52dba5a8",
          "topics": [
            "0x85496b760a4b7f8d66384b9df21b381f5d1b1e79f229a47aaf4c232edc2fe59a",
            "0x2351842516e08e69d88813721b7f173f623572156abb62ab23de6bcb4fc21ab6",
            "0x000000000000000000000000741f0d8bde14140f62107fc60a0ee122b37d4630"
          ],
          "data": "0x00000000000000000000000000000000000000000000000000000000000075d80000000000000000000000000000000000000000000000000de0b6b3a76400000000000000000000000000000000000000000000000000000de0b6b3a7640000",
          "blockHash": "0xa22981239f115f8896ae89c98f19c51359b33c06e630f3f8a6ad8ee57649dffd",
          "blockNumber": "0x953c2ae",
          "transactionHash": "0x2c6c0541959dbdf83921ba43f54f76ee240ea62499b1e1c75b9957c7dd6254a4",
          "transactionIndex": "0x4",
          "logIndex": "0x4",
          "removed": false
        },
        {
          "address": "0x57558cb8d6005de0bae8a2789d5efaae52dba5a8",
          "topics": [
            "0xddf252ad1be2c89b69c2b068fc378daa952ba7f163c4a11628f55a4df523b3ef",
            "0x000000000000000000000000741f0d8bde14140f62107fc60a0ee122b37d4630",
            "0x0000000000000000000000000000000000000000000000000000000000000000"
          ],
          "data": "0x0000000000000000000000000000000000000000000000000de0b6b3a7640000",
          "blockHash": "0xa22981239f115f8896ae89c98f19c51359b33c06e630f3f8a6ad8ee57649dffd",
          "blockNumber": "0x953c2ae",
          "transactionHash": "0x2c6c0541959dbdf83921ba43f54f76ee240ea62499b1e1c75b9957c7dd6254a4",
          "transactionIndex": "0x4",
          "logIndex": "0x5",
          "removed": false
        },
        {
          "address": "0xc39161c743d0307eb9bcc9fef03eeb9dc4802de7",
          "topics": [
            "0x61ed099e74a97a1d7f8bb0952a88ca8b7b8ebd00c126ea04671f92a81213318a"
          ],
          "data": "0x000000000000000000000000c097ab8cd7b053326dfe9fb3e3a31a0cce3b526f00000000000000000000000000000000000000000000000001e9c66321e82e10",
          "blockHash": "0xa22981239f115f8896ae89c98f19c51359b33c06e630f3f8a6ad8ee57649dffd",
          "blockNumber": "0x953c2ae",
          "transactionHash": "0x2c6c0541959dbdf83921ba43f54f76ee240ea62499b1e1c75b9957c7dd6254a4",
          "transactionIndex": "0x4",
          "logIndex": "0x6",
          "removed": false
        },
        {
          "address": "0xc39161c743d0307eb9bcc9fef03eeb9dc4802de7",
          "topics": [
            "0x07ea52d82345d6e838192107d8fd7123d9c2ec8e916cd0aad13fd2b60db24644"
          ],
          "data": "0x000000000000000000000000000000000000000000000000000000000000006000000000000000000000000000000000000000000000000000000000000000e0000000000000000000000000000000000000000000000000000000000000010000000000000000000000000000000000000000000000000000000000000000030000000000000000000000006788f52439aca6bff597d3eec2dc9a44b8fee84200000000000000000000000087048402c32632b7c4d0a892d82bc1160e8b2393000000000000000000000000e016f0f39fb7dcf14e9412d92f2049668d4d2612000000000000000000000000000000000000000000000000000000000000000000000000000000000000000000000000000000000000000000000000000000030000000000000000000000000000000000000000000000000510aeb538e509760000000000000000000000000000000000000000000000000510aeb538e50976000000000000000000000000000000000000000000000000060f3ef1edaf0e75",
          "blockHash": "0xa22981239f115f8896ae89c98f19c51359b33c06e630f3f8a6ad8ee57649dffd",
          "blockNumber": "0x953c2ae",
          "transactionHash": "0x2c6c0541959dbdf83921ba43f54f76ee240ea62499b1e1c75b9957c7dd6254a4",
          "transactionIndex": "0x4",
          "logIndex": "0x7",
          "removed": false
        },
        {
          "address": "0x1a44076050125825900e736c501f859c50fe728c",
          "topics": [
            "0x1ab700d4ced0c005b164c0f789fd09fcbb0156d4c2041b8a3bfbcd961cd1567f"
          ],
          "data": "0x00000000000000000000000000000000000000000000000000000000000000600000000000000000000000000000000000000000000000000000000000000120000000000000000000000000c39161c743d0307eb9bcc9fef03eeb9dc4802de700000000000000000000000000000000000000000000000000000000000000990100000000000000010000764800000000000000000000000057558cb8d6005de0bae8a2789d5efaae52dba5a80000759ca1bb74f0d5770dfc905c508e6273fadc595ddc15326cc907889bdfffa50602c84882554a020b07525508490012da7146ecb2708ae900d8bc2eb0b61f4db9f31809d0eb2763c96e085fa74ba6cf0d49136f8654c48ec7dbc59279a9066c7dd40900000000000f42400000000000000000000000000000000000000000000000000000000000000000000000000000160003010011010000000000000000000000000000138800000000000000000000",
          "blockHash": "0xa22981239f115f8896ae89c98f19c51359b33c06e630f3f8a6ad8ee57649dffd",
          "blockNumber": "0x953c2ae",
          "transactionHash": "0x2c6c0541959dbdf83921ba43f54f76ee240ea62499b1e1c75b9957c7dd6254a4",
          "transactionIndex": "0x4",
          "logIndex": "0x8",
          "removed": false
        },
        {
          "address": "0x57558cb8d6005de0bae8a2789d5efaae52dba5a8",
          "topics": [
            "0x85496b760a4b7f8d66384b9df21b381f5d1b1e79f229a47aaf4c232edc2fe59a",
            "0x4882554a020b07525508490012da7146ecb2708ae900d8bc2eb0b61f4db9f318",
            "0x000000000000000000000000741f0d8bde14140f62107fc60a0ee122b37d4630"
          ],
          "data": "0x000000000000000000000000000000000000000000000000000000000000759c0000000000000000000000000000000000000000000000000de0b6b3a76400000000000000000000000000000000000000000000000000000de0b6b3a7640000",
          "blockHash": "0xa22981239f115f8896ae89c98f19c51359b33c06e630f3f8a6ad8ee57649dffd",
          "blockNumber": "0x953c2ae",
          "transactionHash": "0x2c6c0541959dbdf83921ba43f54f76ee240ea62499b1e1c75b9957c7dd6254a4",
          "transactionIndex": "0x4",
          "logIndex": "0x9",
          "removed": false
        }
      ],
      "logsBloom": "0x0010000000000000000000000004804000000000000000000000000000100000000000000000000000000000000000040001010000000000000000000000000000000200000000000000000800000000000000000000000000000000000000000000000002000000802000000000080000000000001000000000001000000000000001000080000000000008000000000000000000000000000000000040000000000000a000001000100000000000000000000000400000000440000000000000000002080000000000000080000000000000000000000000000000000020000000040000000000000000000000002000000000018000000000000000008000",
      "type": "0x2",
      "transactionHash": "0x2c6c0541959dbdf83921ba43f54f76ee240ea62499b1e1c75b9957c7dd6254a4",
      "transactionIndex": "0x4",
      "blockHash": "0xa22981239f115f8896ae89c98f19c51359b33c06e630f3f8a6ad8ee57649dffd",
      "blockNumber": "0x953c2ae",
      "gasUsed": "0xa32f6",
      "effectiveGasPrice": "0x7d9bccad",
      "from": "0x45dce8e4f2dc005a5f28206a46cb034697eeda8e",
      "to": "0x741f0d8bde14140f62107fc60a0ee122b37d4630",
      "contractAddress": null
    }
  ],
  "libraries": [],
  "pending": [],
  "returns": {},
  "timestamp": 1752112910,
  "chain": 1329,
  "commit": "4a90ad4"
}