{
  "transactions": [
    {
      "hash": null,
      "transactionType": "CALL",
      "contractName": null,
      "contractAddress": "0x4a767e2ef83577225522ef8ed71056c6e3acb216",
      "function": "batchBridgeWithEthFeeFromWallet((uint32,bytes32,uint256,uint256,bytes,bytes,bytes)[],address[],address[])",
      "arguments": [
        "[(30255, 0x000000000000000000000000741f0d8bde14140f62107fc60a0ee122b37d4630, 10000000000000, 0, 0x, 0x, 0x), (30255, 0x000000000000000000000000741f0d8bde14140f62107fc60a0ee122b37d4630, 10000000000000, 0, 0x, 0x, 0x), (30255, 0x000000000000000000000000741f0d8bde14140f62107fc60a0ee122b37d4630, 10000000000000, 0, 0x, 0x, 0x), (30255, 0x000000000000000000000000741f0d8bde14140f62107fc60a0ee122b37d4630, 10000000000000, 0, 0x, 0x, 0x), (30255, 0x000000000000000000000000741f0d8bde14140f62107fc60a0ee122b37d4630, 10000000000000, 0, 0x, 0x, 0x), (30255, 0x000000000000000000000000741f0d8bde14140f62107fc60a0ee122b37d4630, 10000000000000, 0, 0x, 0x, 0x)]",
        "[0x64445f0aecC51E94aD52d8AC56b7190e764E561a, 0x5Bff88cA1442c2496f7E475E9e7786383Bc070c0, 0x3Ec3849C33291a9eF4c5dB86De593EB4A37fDe45, 0x80Eede496655FB9047dd39d9f418d5483ED600df, 0x43eDD7f3831b08FE70B7555ddD373C8bF65a9050, 0x90581eCa9469D8D7F5D3B60f4715027aDFCf7927]",
        "[0x4a767e2ef83577225522Ef8Ed71056c6E3acB216, 0x4a767e2ef83577225522Ef8Ed71056c6E3acB216, 0x4a767e2ef83577225522Ef8Ed71056c6E3acB216, 0x4a767e2ef83577225522Ef8Ed71056c6E3acB216, 0x4a767e2ef83577225522Ef8Ed71056c6E3acB216, 0x4a767e2ef83577225522Ef8Ed71056c6E3acB216]"
      ],
      "transaction": {
        "from": "0x45dce8e4f2dc005a5f28206a46cb034697eeda8e",
        "to": "0x4a767e2ef83577225522ef8ed71056c6e3acb216",
        "gas": "0x255868",
        "value": "0x21016d01f47ca",
        "input": "0xb70d4241000000000000000000000000000000000000000000000000000000000000006000000000000000000000000000000000000000000000000000000000000008c000000000000000000000000000000000000000000000000000000000000009a0000000000000000000000000000000000000000000000000000000000000000600000000000000000000000000000000000000000000000000000000000000c000000000000000000000000000000000000000000000000000000000000002000000000000000000000000000000000000000000000000000000000000000340000000000000000000000000000000000000000000000000000000000000048000000000000000000000000000000000000000000000000000000000000005c00000000000000000000000000000000000000000000000000000000000000700000000000000000000000000000000000000000000000000000000000000762f000000000000000000000000741f0d8bde14140f62107fc60a0ee122b37d4630000000000000000000000000000000000000000000000000000009184e72a000000000000000000000000000000000000000000000000000000000000000000000000000000000000000000000000000000000000000000000000000000000e000000000000000000000000000000000000000000000000000000000000001000000000000000000000000000000000000000000000000000000000000000120000000000000000000000000000000000000000000000000000000000000000000000000000000000000000000000000000000000000000000000000000000000000000000000000000000000000000000000000000000000000000000000000000000000000000000000000000000000000000000000000000000000000762f000000000000000000000000741f0d8bde14140f62107fc60a0ee122b37d4630000000000000000000000000000000000000000000000000000009184e72a000000000000000000000000000000000000000000000000000000000000000000000000000000000000000000000000000000000000000000000000000000000e000000000000000000000000000000000000000000000000000000000000001000000000000000000000000000000000000000000000000000000000000000120000000000000000000000000000000000000000000000000000000000000000000000000000000000000000000000000000000000000000000000000000000000000000000000000000000000000000000000000000000000000000000000000000000000000000000000000000000000000000000000000000000000000762f000000000000000000000000741f0d8bde14140f62107fc60a0ee122b37d4630000000000000000000000000000000000000000000000000000009184e72a000000000000000000000000000000000000000000000000000000000000000000000000000000000000000000000000000000000000000000000000000000000e000000000000000000000000000000000000000000000000000000000000001000000000000000000000000000000000000000000000000000000000000000120000000000000000000000000000000000000000000000000000000000000000000000000000000000000000000000000000000000000000000000000000000000000000000000000000000000000000000000000000000000000000000000000000000000000000000000000000000000000000000000000000000000000762f000000000000000000000000741f0d8bde14140f62107fc60a0ee122b37d4630000000000000000000000000000000000000000000000000000009184e72a000000000000000000000000000000000000000000000000000000000000000000000000000000000000000000000000000000000000000000000000000000000e000000000000000000000000000000000000000000000000000000000000001000000000000000000000000000000000000000000000000000000000000000120000000000000000000000000000000000000000000000000000000000000000000000000000000000000000000000000000000000000000000000000000000000000000000000000000000000000000000000000000000000000000000000000000000000000000000000000000000000000000000000000000000000000762f000000000000000000000000741f0d8bde14140f62107fc60a0ee122b37d4630000000000000000000000000000000000000000000000000000009184e72a000000000000000000000000000000000000000000000000000000000000000000000000000000000000000000000000000000000000000000000000000000000e000000000000000000000000000000000000000000000000000000000000001000000000000000000000000000000000000000000000000000000000000000120000000000000000000000000000000000000000000000000000000000000000000000000000000000000000000000000000000000000000000000000000000000000000000000000000000000000000000000000000000000000000000000000000000000000000000000000000000000000000000000000000000000000762f000000000000000000000000741f0d8bde14140f62107fc60a0ee122b37d4630000000000000000000000000000000000000000000000000000009184e72a000000000000000000000000000000000000000000000000000000000000000000000000000000000000000000000000000000000000000000000000000000000e000000000000000000000000000000000000000000000000000000000000001000000000000000000000000000000000000000000000000000000000000000120000000000000000000000000000000000000000000000000000000000000000000000000000000000000000000000000000000000000000000000000000000000000000000000000000000000000000000000000000000000000000000000000000000000000000000000000000000000000000000000000000000000000000600000000000000000000000064445f0aecc51e94ad52d8ac56b7190e764e561a0000000000000000000000005bff88ca1442c2496f7e475e9e7786383bc070c00000000000000000000000003ec3849c33291a9ef4c5db86de593eb4a37fde4500000000000000000000000080eede496655fb9047dd39d9f418d5483ed600df00000000000000000000000043edd7f3831b08fe70b7555ddd373c8bf65a905000000000000000000000000090581eca9469d8d7f5d3b60f4715027adfcf792700000000000000000000000000000000000000000000000000000000000000060000000000000000000000004a767e2ef83577225522ef8ed71056c6e3acb2160000000000000000000000004a767e2ef83577225522ef8ed71056c6e3acb2160000000000000000000000004a767e2ef83577225522ef8ed71056c6e3acb2160000000000000000000000004a767e2ef83577225522ef8ed71056c6e3acb2160000000000000000000000004a767e2ef83577225522ef8ed71056c6e3acb2160000000000000000000000004a767e2ef83577225522ef8ed71056c6e3acb216",
        "nonce": "0xa0",
        "chainId": "0x4e454152"
      },
      "additionalContracts": [],
      "isFixedGasLimit": false
    }
  ],
  "receipts": [],
  "libraries": [],
  "pending": [],
  "returns": {},
  "timestamp": 1756329982159,
  "chain": 1313161554,
  "commit": "e8120d8"
}