{
  "transactions": [
    {
      "hash": null,
      "transactionType": "CALL",
      "contractName": null,
      "contractAddress": "0xd555d90a6b23b285575cd6192d972e35f70b5b89",
      "function": "batchBridgeWithEthFeeFromWallet((uint32,bytes32,uint256,uint256,bytes,bytes,bytes)[],address[],address[])",
      "arguments": [
        "[(30168, 0x3c1b094729102e0c095ee2417e5940ee4f1eab4763f6113fe75281ab74c62398, 1000000000000000000, 0, 0x, 0x, 0x), (30325, 0x09d0eb2763c96e085fa74ba6cf0d49136f8654c48ec7dbc59279a9066c7dd409, 1000000000000000000, 0, 0x, 0x, 0x), (30108, 0x09d0eb2763c96e085fa74ba6cf0d49136f8654c48ec7dbc59279a9066c7dd409, 1000000000000000000, 0, 0x, 0x, 0x)]",
        "[0x6185334f1542a9966CbaD694577fFbede3DD1f1F, 0x6185334f1542a9966CbaD694577fFbede3DD1f1F, 0x6185334f1542a9966CbaD694577fFbede3DD1f1F]",
        "[0xD555D90A6b23B285575cd6192D972e35F70b5B89, 0xD555D90A6b23B285575cd6192D972e35F70b5B89, 0xD555D90A6b23B285575cd6192D972e35F70b5B89]"
      ],
      "transaction": {
        "from": "0x45dce8e4f2dc005a5f28206a46cb034697eeda8e",
        "to": "0xd555d90a6b23b285575cd6192d972e35f70b5b89",
        "gas": "0x13541c",
        "value": "0x143137bd3ea08",
        "input": "0xb70d4241000000000000000000000000000000000000000000000000000000000000006000000000000000000000000000000000000000000000000000000000000004a000000000000000000000000000000000000000000000000000000000000005200000000000000000000000000000000000000000000000000000000000000003000000000000000000000000000000000000000000000000000000000000006000000000000000000000000000000000000000000000000000000000000001a000000000000000000000000000000000000000000000000000000000000002e000000000000000000000000000000000000000000000000000000000000075d83c1b094729102e0c095ee2417e5940ee4f1eab4763f6113fe75281ab74c623980000000000000000000000000000000000000000000000000de0b6b3a7640000000000000000000000000000000000000000000000000000000000000000000000000000000000000000000000000000000000000000000000000000000000e000000000000000000000000000000000000000000000000000000000000001000000000000000000000000000000000000000000000000000000000000000120000000000000000000000000000000000000000000000000000000000000000000000000000000000000000000000000000000000000000000000000000000000000000000000000000000000000000000000000000000000000000000000000000000000000000000000000000000000000000000000000000000000000767509d0eb2763c96e085fa74ba6cf0d49136f8654c48ec7dbc59279a9066c7dd4090000000000000000000000000000000000000000000000000de0b6b3a7640000000000000000000000000000000000000000000000000000000000000000000000000000000000000000000000000000000000000000000000000000000000e000000000000000000000000000000000000000000000000000000000000001000000000000000000000000000000000000000000000000000000000000000120000000000000000000000000000000000000000000000000000000000000000000000000000000000000000000000000000000000000000000000000000000000000000000000000000000000000000000000000000000000000000000000000000000000000000000000000000000000000000000000000000000000000759c09d0eb2763c96e085fa74ba6cf0d49136f8654c48ec7dbc59279a9066c7dd4090000000000000000000000000000000000000000000000000de0b6b3a7640000000000000000000000000000000000000000000000000000000000000000000000000000000000000000000000000000000000000000000000000000000000e00000000000000000000000000000000000000000000000000000000000000100000000000000000000000000000000000000000000000000000000000000012000000000000000000000000000000000000000000000000000000000000000000000000000000000000000000000000000000000000000000000000000000000000000000000000000000000000000000000000000000000000000000000000000000000000000000000000000000000000000000000000000000000000000030000000000000000000000006185334f1542a9966cbad694577ffbede3dd1f1f0000000000000000000000006185334f1542a9966cbad694577ffbede3dd1f1f0000000000000000000000006185334f1542a9966cbad694577ffbede3dd1f1f0000000000000000000000000000000000000000000000000000000000000003000000000000000000000000d555d90a6b23b285575cd6192d972e35f70b5b89000000000000000000000000d555d90a6b23b285575cd6192d972e35f70b5b89000000000000000000000000d555d90a6b23b285575cd6192d972e35f70b5b89",
        "nonce": "0xb5",
        "chainId": "0xe708"
      },
      "additionalContracts": [],
      "isFixedGasLimit": false
    }
  ],
  "receipts": [],
  "libraries": [],
  "pending": [],
  "returns": {},
  "timestamp": 1752114747,
  "chain": 59144,
  "commit": "4a90ad4"
}