{
  "transactions": [
    {
      "hash": "0x6538101955cd3fe7218ec8663d700ca1efef8bdb0e5cf4dd2886e49b9fe6efa3",
      "transactionType": "CALL",
      "contractName": null,
      "contractAddress": "0xf010a7c8877043681d59ad125ebf575633505942",
      "function": "approve(address,uint256)",
      "arguments": [
        "0xF010a7c8877043681D59AD125EbF575633505942",
        "100000000000000"
      ],
      "transaction": {
        "from": "0xb0e1650a9760e0f383174af042091fc544b8356f",
        "to": "0xf010a7c8877043681d59ad125ebf575633505942",
        "gas": "0xfa57",
        "value": "0x0",
        "input": "0x095ea7b3000000000000000000000000f010a7c8877043681d59ad125ebf57563350594200000000000000000000000000000000000000000000000000005af3107a4000",
        "nonce": "0x5",
        "chainId": "0x13e31"
      },
      "additionalContracts": [],
      "isFixedGasLimit": false
    },
    {
      "hash": "0x1b8c487deb9defd8931e7be62dcb90408ab05a4605057952cb12f7796b2849a9",
      "transactionType": "CALL",
      "contractName": null,
      "contractAddress": "0xf010a7c8877043681d59ad125ebf575633505942",
      "function": "send((uint32,bytes32,uint256,uint256,bytes,bytes,bytes),(uint256,uint256),address)",
      "arguments": [
        "(30151, 0x000000000000000000000000b0e1650a9760e0f383174af042091fc544b8356f, 100000000000000, 100000000000000, 0x0003, 0x, 0x)",
        "(151722009872840, 0)",
        "0xb0E1650A9760e0f383174af042091fc544b8356f"
      ],
      "transaction": {
        "from": "0xb0e1650a9760e0f383174af042091fc544b8356f",
        "to": "0xf010a7c8877043681d59ad125ebf575633505942",
        "gas": "0x5def9",
        "value": "0x89fd8880c9c8",
        "input": "0xc7c7f5b30000000000000000000000000000000000000000000000000000000000000080000000000000000000000000000000000000000000000000000089fd8880c9c80000000000000000000000000000000000000000000000000000000000000000000000000000000000000000b0e1650a9760e0f383174af042091fc544b8356f00000000000000000000000000000000000000000000000000000000000075c7000000000000000000000000b0e1650a9760e0f383174af042091fc544b8356f00000000000000000000000000000000000000000000000000005af3107a400000000000000000000000000000000000000000000000000000005af3107a400000000000000000000000000000000000000000000000000000000000000000e0000000000000000000000000000000000000000000000000000000000000012000000000000000000000000000000000000000000000000000000000000001400000000000000000000000000000000000000000000000000000000000000002000300000000000000000000000000000000000000000000000000000000000000000000000000000000000000000000000000000000000000000000000000000000000000000000000000000000000000000000000000000000000000000000",
        "nonce": "0x6",
        "chainId": "0x13e31"
      },
      "additionalContracts": [],
      "isFixedGasLimit": false
    },
    {
      "hash": "0x0d1cc25eae4643b132d55fd7307dfea69a937340ecf34999e0ba3a59ad93af64",
      "transactionType": "CALL",
      "contractName": null,
      "contractAddress": "0xe41228a455700caf09e551805a8ab37caa39d08c",
      "function": "approve(address,uint256)",
      "arguments": [
        "0xE41228a455700cAF09E551805A8aB37caa39D08c",
        "100000000000000"
      ],
      "transaction": {
        "from": "0xb0e1650a9760e0f383174af042091fc544b8356f",
        "to": "0xe41228a455700caf09e551805a8ab37caa39d08c",
        "gas": "0xfa57",
        "value": "0x0",
        "input": "0x095ea7b3000000000000000000000000e41228a455700caf09e551805a8ab37caa39d08c00000000000000000000000000000000000000000000000000005af3107a4000",
        "nonce": "0x7",
        "chainId": "0x13e31"
      },
      "additionalContracts": [],
      "isFixedGasLimit": false
    },
    {
      "hash": "0xaa9a4236fbb69a9467d409ff09fbb7fc9947e38c73c74f533dcb27ebbcb403ad",
      "transactionType": "CALL",
      "contractName": null,
      "contractAddress": "0xe41228a455700caf09e551805a8ab37caa39d08c",
      "function": "send((uint32,bytes32,uint256,uint256,bytes,bytes,bytes),(uint256,uint256),address)",
      "arguments": [
        "(30151, 0x000000000000000000000000b0e1650a9760e0f383174af042091fc544b8356f, 100000000000000, 100000000000000, 0x0003, 0x, 0x)",
        "(151722009872840, 0)",
        "0xb0E1650A9760e0f383174af042091fc544b8356f"
      ],
      "transaction": {
        "from": "0xb0e1650a9760e0f383174af042091fc544b8356f",
        "to": "0xe41228a455700caf09e551805a8ab37caa39d08c",
        "gas": "0x5def9",
        "value": "0x89fd8880c9c8",
        "input": "0xc7c7f5b30000000000000000000000000000000000000000000000000000000000000080000000000000000000000000000000000000000000000000000089fd8880c9c80000000000000000000000000000000000000000000000000000000000000000000000000000000000000000b0e1650a9760e0f383174af042091fc544b8356f00000000000000000000000000000000000000000000000000000000000075c7000000000000000000000000b0e1650a9760e0f383174af042091fc544b8356f00000000000000000000000000000000000000000000000000005af3107a400000000000000000000000000000000000000000000000000000005af3107a400000000000000000000000000000000000000000000000000000000000000000e0000000000000000000000000000000000000000000000000000000000000012000000000000000000000000000000000000000000000000000000000000001400000000000000000000000000000000000000000000000000000000000000002000300000000000000000000000000000000000000000000000000000000000000000000000000000000000000000000000000000000000000000000000000000000000000000000000000000000000000000000000000000000000000000000",
        "nonce": "0x8",
        "chainId": "0x13e31"
      },
      "additionalContracts": [],
      "isFixedGasLimit": false
    },
    {
      "hash": "0xfa96ecea685cf466aea59cd0ee86e236b29812a1f15f083ca81b29f59ec659f0",
      "transactionType": "CALL",
      "contractName": null,
      "contractAddress": "0xf010a7c8877043681d59ad125ebf575633505942",
      "function": "send((uint32,bytes32,uint256,uint256,bytes,bytes,bytes),(uint256,uint256),address)",
      "arguments": [
        "(30184, 0x000000000000000000000000b0e1650a9760e0f383174af042091fc544b8356f, 100000000000000, 100000000000000, 0x0003, 0x, 0x)",
        "(12060920842061, 0)",
        "0xb0E1650A9760e0f383174af042091fc544b8356f"
      ],
      "transaction": {
        "from": "0xb0e1650a9760e0f383174af042091fc544b8356f",
        "to": "0xf010a7c8877043681d59ad125ebf575633505942",
        "gas": "0x5def9",
        "value": "0xaf826e7074d",
        "input": "0xc7c7f5b3000000000000000000000000000000000000000000000000000000000000008000000000000000000000000000000000000000000000000000000af826e7074d0000000000000000000000000000000000000000000000000000000000000000000000000000000000000000b0e1650a9760e0f383174af042091fc544b8356f00000000000000000000000000000000000000000000000000000000000075e8000000000000000000000000b0e1650a9760e0f383174af042091fc544b8356f00000000000000000000000000000000000000000000000000005af3107a400000000000000000000000000000000000000000000000000000005af3107a400000000000000000000000000000000000000000000000000000000000000000e0000000000000000000000000000000000000000000000000000000000000012000000000000000000000000000000000000000000000000000000000000001400000000000000000000000000000000000000000000000000000000000000002000300000000000000000000000000000000000000000000000000000000000000000000000000000000000000000000000000000000000000000000000000000000000000000000000000000000000000000000000000000000000000000000",
        "nonce": "0x9",
        "chainId": "0x13e31"
      },
      "additionalContracts": [],
      "isFixedGasLimit": false
    },
    {
      "hash": "0x8717e512daf69189de4e468ee870c80dc0820709f9df3dbacc9da11367df10f9",
      "transactionType": "CALL",
      "contractName": null,
      "contractAddress": "0xe41228a455700caf09e551805a8ab37caa39d08c",
      "function": "send((uint32,bytes32,uint256,uint256,bytes,bytes,bytes),(uint256,uint256),address)",
      "arguments": [
        "(30184, 0x000000000000000000000000b0e1650a9760e0f383174af042091fc544b8356f, 100000000000000, 100000000000000, 0x0003, 0x, 0x)",
        "(12060920842061, 0)",
        "0xb0E1650A9760e0f383174af042091fc544b8356f"
      ],
      "transaction": {
        "from": "0xb0e1650a9760e0f383174af042091fc544b8356f",
        "to": "0xe41228a455700caf09e551805a8ab37caa39d08c",
        "gas": "0x5def9",
        "value": "0xaf826e7074d",
        "input": "0xc7c7f5b3000000000000000000000000000000000000000000000000000000000000008000000000000000000000000000000000000000000000000000000af826e7074d0000000000000000000000000000000000000000000000000000000000000000000000000000000000000000b0e1650a9760e0f383174af042091fc544b8356f00000000000000000000000000000000000000000000000000000000000075e8000000000000000000000000b0e1650a9760e0f383174af042091fc544b8356f00000000000000000000000000000000000000000000000000005af3107a400000000000000000000000000000000000000000000000000000005af3107a400000000000000000000000000000000000000000000000000000000000000000e0000000000000000000000000000000000000000000000000000000000000012000000000000000000000000000000000000000000000000000000000000001400000000000000000000000000000000000000000000000000000000000000002000300000000000000000000000000000000000000000000000000000000000000000000000000000000000000000000000000000000000000000000000000000000000000000000000000000000000000000000000000000000000000000000",
        "nonce": "0xa",
        "chainId": "0x13e31"
      },
      "additionalContracts": [],
      "isFixedGasLimit": false
    },
    {
      "hash": "0xf0e975bea518d2b9b762b1b3ac9d4693627f2c2ecf589e5827c6cf0cc035cb19",
      "transactionType": "CALL",
      "contractName": null,
      "contractAddress": "0xf010a7c8877043681d59ad125ebf575633505942",
      "function": "send((uint32,bytes32,uint256,uint256,bytes,bytes,bytes),(uint256,uint256),address)",
      "arguments": [
        "(30260, 0x000000000000000000000000b0e1650a9760e0f383174af042091fc544b8356f, 100000000000000, 100000000000000, 0x0003, 0x, 0x)",
        "(8615361990027, 0)",
        "0xb0E1650A9760e0f383174af042091fc544b8356f"
      ],
      "transaction": {
        "from": "0xb0e1650a9760e0f383174af042091fc544b8356f",
        "to": "0xf010a7c8877043681d59ad125ebf575633505942",
        "gas": "0x5def9",
        "value": "0x7d5eb974d8b",
        "input": "0xc7c7f5b30000000000000000000000000000000000000000000000000000000000000080000000000000000000000000000000000000000000000000000007d5eb974d8b0000000000000000000000000000000000000000000000000000000000000000000000000000000000000000b0e1650a9760e0f383174af042091fc544b8356f0000000000000000000000000000000000000000000000000000000000007634000000000000000000000000b0e1650a9760e0f383174af042091fc544b8356f00000000000000000000000000000000000000000000000000005af3107a400000000000000000000000000000000000000000000000000000005af3107a400000000000000000000000000000000000000000000000000000000000000000e0000000000000000000000000000000000000000000000000000000000000012000000000000000000000000000000000000000000000000000000000000001400000000000000000000000000000000000000000000000000000000000000002000300000000000000000000000000000000000000000000000000000000000000000000000000000000000000000000000000000000000000000000000000000000000000000000000000000000000000000000000000000000000000000000",
        "nonce": "0xb",
        "chainId": "0x13e31"
      },
      "additionalContracts": [],
      "isFixedGasLimit": false
    },
    {
      "hash": "0x7adcae24327eebdd1337575c8fc6d577342700211c8c4b5f4f410804045bef77",
      "transactionType": "CALL",
      "contractName": null,
      "contractAddress": "0xe41228a455700caf09e551805a8ab37caa39d08c",
      "function": "send((uint32,bytes32,uint256,uint256,bytes,bytes,bytes),(uint256,uint256),address)",
      "arguments": [
        "(30260, 0x000000000000000000000000b0e1650a9760e0f383174af042091fc544b8356f, 100000000000000, 100000000000000, 0x0003, 0x, 0x)",
        "(8615361990027, 0)",
        "0xb0E1650A9760e0f383174af042091fc544b8356f"
      ],
      "transaction": {
        "from": "0xb0e1650a9760e0f383174af042091fc544b8356f",
        "to": "0xe41228a455700caf09e551805a8ab37caa39d08c",
        "gas": "0x5def9",
        "value": "0x7d5eb974d8b",
        "input": "0xc7c7f5b30000000000000000000000000000000000000000000000000000000000000080000000000000000000000000000000000000000000000000000007d5eb974d8b0000000000000000000000000000000000000000000000000000000000000000000000000000000000000000b0e1650a9760e0f383174af042091fc544b8356f0000000000000000000000000000000000000000000000000000000000007634000000000000000000000000b0e1650a9760e0f383174af042091fc544b8356f00000000000000000000000000000000000000000000000000005af3107a400000000000000000000000000000000000000000000000000000005af3107a400000000000000000000000000000000000000000000000000000000000000000e0000000000000000000000000000000000000000000000000000000000000012000000000000000000000000000000000000000000000000000000000000001400000000000000000000000000000000000000000000000000000000000000002000300000000000000000000000000000000000000000000000000000000000000000000000000000000000000000000000000000000000000000000000000000000000000000000000000000000000000000000000000000000000000000000",
        "nonce": "0xc",
        "chainId": "0x13e31"
      },
      "additionalContracts": [],
      "isFixedGasLimit": false
    }
  ],
  "receipts": [
    {
      "status": "0x1",
      "cumulativeGasUsed": "0x2bbc49",
      "logs": [
        {
          "address": "0xf010a7c8877043681d59ad125ebf575633505942",
          "topics": [
            "0x8c5be1e5ebec7d5bd14f71427d1e84f3dd0314c0f7b2291e5b200ac8c7c3b925",
            "0x000000000000000000000000b0e1650a9760e0f383174af042091fc544b8356f",
            "0x000000000000000000000000f010a7c8877043681d59ad125ebf575633505942"
          ],
          "data": "0x00000000000000000000000000000000000000000000000000005af3107a4000",
          "blockHash": "0x62be5015a9f34ead96287703a13dee63ce182c9ee28d81eb841d4bc1599428a5",
          "blockNumber": "0x54dde1",
          "transactionHash": "0x6538101955cd3fe7218ec8663d700ca1efef8bdb0e5cf4dd2886e49b9fe6efa3",
          "transactionIndex": "0x13",
          "logIndex": "0x31",
          "removed": false
        }
      ],
      "logsBloom": "0x00000000000000000000000000000000000000000000000000000000000000000000000000000000000000000020000000000000000000000000000000200000000000000000000000000000000000000000000000000000000000000000000000000000000000000000040000000000000000000100080000000000000000000000000000000000000000000000000000000000000000000000000001000000020000200000000000000000000000000000000000000000000000000000000000000000000000000000000000000000000080000000000000000000000000000010000080000000000000000000000000000000000040000000000000000000",
      "type": "0x2",
      "transactionHash": "0x6538101955cd3fe7218ec8663d700ca1efef8bdb0e5cf4dd2886e49b9fe6efa3",
      "transactionIndex": "0x13",
      "blockHash": "0x62be5015a9f34ead96287703a13dee63ce182c9ee28d81eb841d4bc1599428a5",
      "blockNumber": "0x54dde1",
      "gasUsed": "0xb53f",
      "effectiveGasPrice": "0xb205f",
      "from": "0xb0e1650a9760e0f383174af042091fc544b8356f",
      "to": "0xf010a7c8877043681d59ad125ebf575633505942",
      "contractAddress": null,
      "l1Fee": "0x47c4ad590",
      "l1GasPrice": "0x1bee012b5",
      "l1GasUsed": "0x920"
    },
    {
      "status": "0x1",
      "cumulativeGasUsed": "0x165a13",
      "logs": [
        {
          "address": "0xf010a7c8877043681d59ad125ebf575633505942",
          "topics": [
            "0xddf252ad1be2c89b69c2b068fc378daa952ba7f163c4a11628f55a4df523b3ef",
            "0x000000000000000000000000b0e1650a9760e0f383174af042091fc544b8356f",
            "0x0000000000000000000000000000000000000000000000000000000000000000"
          ],
          "data": "0x00000000000000000000000000000000000000000000000000005af3107a4000",
          "blockHash": "0x75f6e1f5a7f892ad76d7a7c012a04cd9a0a9e914bb51cd0d8beb36a41fa3a928",
          "blockNumber": "0x54dde5",
          "transactionHash": "0x1b8c487deb9defd8931e7be62dcb90408ab05a4605057952cb12f7796b2849a9",
          "transactionIndex": "0xc",
          "logIndex": "0xd",
          "removed": false
        },
        {
          "address": "0xc1b621b18187f74c8f6d52a6f709dd2780c09821",
          "topics": [
            "0x61ed099e74a97a1d7f8bb0952a88ca8b7b8ebd00c126ea04671f92a81213318a"
          ],
          "data": "0x0000000000000000000000004208d6e27538189bb48e603d6123a94b8abe0a0b000000000000000000000000000000000000000000000000000079b632aeb2da",
          "blockHash": "0x75f6e1f5a7f892ad76d7a7c012a04cd9a0a9e914bb51cd0d8beb36a41fa3a928",
          "blockNumber": "0x54dde5",
          "transactionHash": "0x1b8c487deb9defd8931e7be62dcb90408ab05a4605057952cb12f7796b2849a9",
          "transactionIndex": "0xc",
          "logIndex": "0xe",
          "removed": false
        },
        {
          "address": "0xc1b621b18187f74c8f6d52a6f709dd2780c09821",
          "topics": [
            "0x07ea52d82345d6e838192107d8fd7123d9c2ec8e916cd0aad13fd2b60db24644"
          ],
          "data": "0x000000000000000000000000000000000000000000000000000000000000006000000000000000000000000000000000000000000000000000000000000000c000000000000000000000000000000000000000000000000000000000000000e0000000000000000000000000000000000000000000000000000000000000000200000000000000000000000070bf42c69173d6e33b834f59630dac592c70b369000000000000000000000000c097ab8cd7b053326dfe9fb3e3a31a0cce3b526f0000000000000000000000000000000000000000000000000000000000000000000000000000000000000000000000000000000000000000000000000000000200000000000000000000000000000000000000000000000000000823aae90b7700000000000000000000000000000000000000000000000000000823aae90b77",
          "blockHash": "0x75f6e1f5a7f892ad76d7a7c012a04cd9a0a9e914bb51cd0d8beb36a41fa3a928",
          "blockNumber": "0x54dde5",
          "transactionHash": "0x1b8c487deb9defd8931e7be62dcb90408ab05a4605057952cb12f7796b2849a9",
          "transactionIndex": "0xc",
          "logIndex": "0xf",
          "removed": false
        },
        {
          "address": "0x1a44076050125825900e736c501f859c50fe728c",
          "topics": [
            "0x1ab700d4ced0c005b164c0f789fd09fcbb0156d4c2041b8a3bfbcd961cd1567f"
          ],
          "data": "0x00000000000000000000000000000000000000000000000000000000000000600000000000000000000000000000000000000000000000000000000000000120000000000000000000000000c1b621b18187f74c8f6d52a6f709dd2780c09821000000000000000000000000000000000000000000000000000000000000009901000000000000000100007623000000000000000000000000f010a7c8877043681d59ad125ebf575633505942000075c7000000000000000000000000f010a7c8877043681d59ad125ebf5756335059427d598d9ac32ea2611130dfb1a64e87d8caf1bdb38cecbae18d0fe11c571fb03e000000000000000000000000b0e1650a9760e0f383174af042091fc544b8356f00000000000000640000000000000000000000000000000000000000000000000000000000000000000000000000160003010011010000000000000000000000000001388000000000000000000000",
          "blockHash": "0x75f6e1f5a7f892ad76d7a7c012a04cd9a0a9e914bb51cd0d8beb36a41fa3a928",
          "blockNumber": "0x54dde5",
          "transactionHash": "0x1b8c487deb9defd8931e7be62dcb90408ab05a4605057952cb12f7796b2849a9",
          "transactionIndex": "0xc",
          "logIndex": "0x10",
          "removed": false
        },
        {
          "address": "0xf010a7c8877043681d59ad125ebf575633505942",
          "topics": [
            "0x85496b760a4b7f8d66384b9df21b381f5d1b1e79f229a47aaf4c232edc2fe59a",
            "0x7d598d9ac32ea2611130dfb1a64e87d8caf1bdb38cecbae18d0fe11c571fb03e",
            "0x000000000000000000000000b0e1650a9760e0f383174af042091fc544b8356f"
          ],
          "data": "0x00000000000000000000000000000000000000000000000000000000000075c700000000000000000000000000000000000000000000000000005af3107a400000000000000000000000000000000000000000000000000000005af3107a4000",
          "blockHash": "0x75f6e1f5a7f892ad76d7a7c012a04cd9a0a9e914bb51cd0d8beb36a41fa3a928",
          "blockNumber": "0x54dde5",
          "transactionHash": "0x1b8c487deb9defd8931e7be62dcb90408ab05a4605057952cb12f7796b2849a9",
          "transactionIndex": "0xc",
          "logIndex": "0x11",
          "removed": false
        }
      ],
      "logsBloom": "0x00000000000000000800000000000000000000000000000000000000001000000000000000000000000000000020000000000000000000000000000000000000000002000000000000000008000400000000000000000000000000000000400000000000020000008000000000000800000000000110080000000010000000000000000000000200000000080000000000000000000000000000000000000000000000008000000000100000000000000000000000400000000440000000000000000002000000000000000080000000000080000000000000004000000020000000040080000000000000000000002000000000018040000040000000000000",
      "type": "0x2",
      "transactionHash": "0x1b8c487deb9defd8931e7be62dcb90408ab05a4605057952cb12f7796b2849a9",
      "transactionIndex": "0xc",
      "blockHash": "0x75f6e1f5a7f892ad76d7a7c012a04cd9a0a9e914bb51cd0d8beb36a41fa3a928",
      "blockNumber": "0x54dde5",
      "gasUsed": "0x4cacc",
      "effectiveGasPrice": "0xb142a",
      "from": "0xb0e1650a9760e0f383174af042091fc544b8356f",
      "to": "0xf010a7c8877043681d59ad125ebf575633505942",
      "contractAddress": null,
      "l1Fee": "0x8ecc9809b",
      "l1GasPrice": "0x1bee012b5",
      "l1GasUsed": "0x1228"
    },
    {
      "status": "0x1",
      "cumulativeGasUsed": "0x2a6753",
      "logs": [
        {
          "address": "0xe41228a455700caf09e551805a8ab37caa39d08c",
          "topics": [
            "0x8c5be1e5ebec7d5bd14f71427d1e84f3dd0314c0f7b2291e5b200ac8c7c3b925",
            "0x000000000000000000000000b0e1650a9760e0f383174af042091fc544b8356f",
            "0x000000000000000000000000e41228a455700caf09e551805a8ab37caa39d08c"
          ],
          "data": "0x00000000000000000000000000000000000000000000000000005af3107a4000",
          "blockHash": "0xf10d3faf927ac9e500e80fd1169c32787cf9aecbdc53afae5e376c85ab9c0dc2",
          "blockNumber": "0x54dde9",
          "transactionHash": "0x0d1cc25eae4643b132d55fd7307dfea69a937340ecf34999e0ba3a59ad93af64",
          "transactionIndex": "0xd",
          "logIndex": "0x1b",
          "removed": false
        }
      ],
      "logsBloom": "0x00000000000000000000000000000000000000000010000000000000000000000000000000000000000000800000000000000000000000000000000000200000000000000000000000000000000000000000000000000000000000000000000000000000000000000000000000000000000000000100080000000000000000000000000000000000000000000000000000000000000200000000000000000000020000000000000000000000800000000002000000000000000000000000000000000040000000000000000000000000000000000000000000000000000000000010000080000000000000000000000000000000000000000000000000000000",
      "type": "0x2",
      "transactionHash": "0x0d1cc25eae4643b132d55fd7307dfea69a937340ecf34999e0ba3a59ad93af64",
      "transactionIndex": "0xd",
      "blockHash": "0xf10d3faf927ac9e500e80fd1169c32787cf9aecbdc53afae5e376c85ab9c0dc2",
      "blockNumber": "0x54dde9",
      "gasUsed": "0xb53f",
      "effectiveGasPrice": "0xb0c43",
      "from": "0xb0e1650a9760e0f383174af042091fc544b8356f",
      "to": "0xe41228a455700caf09e551805a8ab37caa39d08c",
      "contractAddress": null,
      "l1Fee": "0x45b99ddf2",
      "l1GasPrice": "0x1afef1d7f",
      "l1GasUsed": "0x92c"
    },
    {
      "status": "0x1",
      "cumulativeGasUsed": "0x2ea204",
      "logs": [
        {
          "address": "0xe41228a455700caf09e551805a8ab37caa39d08c",
          "topics": [
            "0xddf252ad1be2c89b69c2b068fc378daa952ba7f163c4a11628f55a4df523b3ef",
            "0x000000000000000000000000b0e1650a9760e0f383174af042091fc544b8356f",
            "0x0000000000000000000000000000000000000000000000000000000000000000"
          ],
          "data": "0x00000000000000000000000000000000000000000000000000005af3107a4000",
          "blockHash": "0x2c72ff156f6bead6e1b2daf331afdd65ce805c3a3c3c35382660ea0172cdf5c1",
          "blockNumber": "0x54dded",
          "transactionHash": "0xaa9a4236fbb69a9467d409ff09fbb7fc9947e38c73c74f533dcb27ebbcb403ad",
          "transactionIndex": "0xb",
          "logIndex": "0x1c",
          "removed": false
        },
        {
          "address": "0xc1b621b18187f74c8f6d52a6f709dd2780c09821",
          "topics": [
            "0x61ed099e74a97a1d7f8bb0952a88ca8b7b8ebd00c126ea04671f92a81213318a"
          ],
          "data": "0x0000000000000000000000004208d6e27538189bb48e603d6123a94b8abe0a0b000000000000000000000000000000000000000000000000000079b632aeb2da",
          "blockHash": "0x2c72ff156f6bead6e1b2daf331afdd65ce805c3a3c3c35382660ea0172cdf5c1",
          "blockNumber": "0x54dded",
          "transactionHash": "0xaa9a4236fbb69a9467d409ff09fbb7fc9947e38c73c74f533dcb27ebbcb403ad",
          "transactionIndex": "0xb",
          "logIndex": "0x1d",
          "removed": false
        },
        {
          "address": "0xc1b621b18187f74c8f6d52a6f709dd2780c09821",
          "topics": [
            "0x07ea52d82345d6e838192107d8fd7123d9c2ec8e916cd0aad13fd2b60db24644"
          ],
          "data": "0x000000000000000000000000000000000000000000000000000000000000006000000000000000000000000000000000000000000000000000000000000000c000000000000000000000000000000000000000000000000000000000000000e0000000000000000000000000000000000000000000000000000000000000000200000000000000000000000070bf42c69173d6e33b834f59630dac592c70b369000000000000000000000000c097ab8cd7b053326dfe9fb3e3a31a0cce3b526f0000000000000000000000000000000000000000000000000000000000000000000000000000000000000000000000000000000000000000000000000000000200000000000000000000000000000000000000000000000000000823aae90b7700000000000000000000000000000000000000000000000000000823aae90b77",
          "blockHash": "0x2c72ff156f6bead6e1b2daf331afdd65ce805c3a3c3c35382660ea0172cdf5c1",
          "blockNumber": "0x54dded",
          "transactionHash": "0xaa9a4236fbb69a9467d409ff09fbb7fc9947e38c73c74f533dcb27ebbcb403ad",
          "transactionIndex": "0xb",
          "logIndex": "0x1e",
          "removed": false
        },
        {
          "address": "0x1a44076050125825900e736c501f859c50fe728c",
          "topics": [
            "0x1ab700d4ced0c005b164c0f789fd09fcbb0156d4c2041b8a3bfbcd961cd1567f"
          ],
          "data": "0x00000000000000000000000000000000000000000000000000000000000000600000000000000000000000000000000000000000000000000000000000000120000000000000000000000000c1b621b18187f74c8f6d52a6f709dd2780c09821000000000000000000000000000000000000000000000000000000000000009901000000000000000100007623000000000000000000000000e41228a455700caf09e551805a8ab37caa39d08c000075c7000000000000000000000000e41228a455700caf09e551805a8ab37caa39d08c33835e3ebfac41b7d213b57c383fada9e36469a260ca5b9a4c7d6a9710b06ef0000000000000000000000000b0e1650a9760e0f383174af042091fc544b8356f00000000000000640000000000000000000000000000000000000000000000000000000000000000000000000000160003010011010000000000000000000000000001388000000000000000000000",
          "blockHash": "0x2c72ff156f6bead6e1b2daf331afdd65ce805c3a3c3c35382660ea0172cdf5c1",
          "blockNumber": "0x54dded",
          "transactionHash": "0xaa9a4236fbb69a9467d409ff09fbb7fc9947e38c73c74f533dcb27ebbcb403ad",
          "transactionIndex": "0xb",
          "logIndex": "0x1f",
          "removed": false
        },
        {
          "address": "0xe41228a455700caf09e551805a8ab37caa39d08c",
          "topics": [
            "0x85496b760a4b7f8d66384b9df21b381f5d1b1e79f229a47aaf4c232edc2fe59a",
            "0x33835e3ebfac41b7d213b57c383fada9e36469a260ca5b9a4c7d6a9710b06ef0",
            "0x000000000000000000000000b0e1650a9760e0f383174af042091fc544b8356f"
          ],
          "data": "0x00000000000000000000000000000000000000000000000000000000000075c700000000000000000000000000000000000000000000000000005af3107a400000000000000000000000000000000000000000000000000000005af3107a4000",
          "blockHash": "0x2c72ff156f6bead6e1b2daf331afdd65ce805c3a3c3c35382660ea0172cdf5c1",
          "blockNumber": "0x54dded",
          "transactionHash": "0xaa9a4236fbb69a9467d409ff09fbb7fc9947e38c73c74f533dcb27ebbcb403ad",
          "transactionIndex": "0xb",
          "logIndex": "0x20",
          "removed": false
        }
      ],
      "logsBloom": "0x0000000000000000000000000000000000000000000000000000000000100000000000000000000000000000000000000000000000000000000000000000000000000200000000000000000800000000000000000000000000000000000040000000000002000000800000000000080000000000011008000000001000000008000000000000000000000008000000000000000000020000000000000000000000000000800000000010000080000000000040000040000000044000000000000000004200000000000000008000000000000000000000000000400000002000000004008000000000000000000000200000000001c000000040000000000000",
      "type": "0x2",
      "transactionHash": "0xaa9a4236fbb69a9467d409ff09fbb7fc9947e38c73c74f533dcb27ebbcb403ad",
      "transactionIndex": "0xb",
      "blockHash": "0x2c72ff156f6bead6e1b2daf331afdd65ce805c3a3c3c35382660ea0172cdf5c1",
      "blockNumber": "0x54dded",
      "gasUsed": "0x4cacc",
      "effectiveGasPrice": "0xafc34",
      "from": "0xb0e1650a9760e0f383174af042091fc544b8356f",
      "to": "0xe41228a455700caf09e551805a8ab37caa39d08c",
      "contractAddress": null,
      "l1Fee": "0x8ed17b5e4",
      "l1GasPrice": "0x1beef5e9f",
      "l1GasUsed": "0x1228"
    },
    {
      "status": "0x1",
      "cumulativeGasUsed": "0x525995",
      "logs": [
        {
          "address": "0xf010a7c8877043681d59ad125ebf575633505942",
          "topics": [
            "0xddf252ad1be2c89b69c2b068fc378daa952ba7f163c4a11628f55a4df523b3ef",
            "0x000000000000000000000000b0e1650a9760e0f383174af042091fc544b8356f",
            "0x0000000000000000000000000000000000000000000000000000000000000000"
          ],
          "data": "0x00000000000000000000000000000000000000000000000000005af3107a4000",
          "blockHash": "0x9a8e032e4591a5ac640b3d1face2655b67795b1cd42d325240d40749734f3c98",
          "blockNumber": "0x54ddf0",
          "transactionHash": "0xfa96ecea685cf466aea59cd0ee86e236b29812a1f15f083ca81b29f59ec659f0",
          "transactionIndex": "0x11",
          "logIndex": "0x3c",
          "removed": false
        },
        {
          "address": "0xc1b621b18187f74c8f6d52a6f709dd2780c09821",
          "topics": [
            "0x61ed099e74a97a1d7f8bb0952a88ca8b7b8ebd00c126ea04671f92a81213318a"
          ],
          "data": "0x0000000000000000000000004208d6e27538189bb48e603d6123a94b8abe0a0b000000000000000000000000000000000000000000000000000008fd6a6d0c19",
          "blockHash": "0x9a8e032e4591a5ac640b3d1face2655b67795b1cd42d325240d40749734f3c98",
          "blockNumber": "0x54ddf0",
          "transactionHash": "0xfa96ecea685cf466aea59cd0ee86e236b29812a1f15f083ca81b29f59ec659f0",
          "transactionIndex": "0x11",
          "logIndex": "0x3d",
          "removed": false
        },
        {
          "address": "0xc1b621b18187f74c8f6d52a6f709dd2780c09821",
          "topics": [
            "0x07ea52d82345d6e838192107d8fd7123d9c2ec8e916cd0aad13fd2b60db24644"
          ],
          "data": "0x000000000000000000000000000000000000000000000000000000000000006000000000000000000000000000000000000000000000000000000000000000c000000000000000000000000000000000000000000000000000000000000000e0000000000000000000000000000000000000000000000000000000000000000200000000000000000000000070bf42c69173d6e33b834f59630dac592c70b369000000000000000000000000c097ab8cd7b053326dfe9fb3e3a31a0cce3b526f00000000000000000000000000000000000000000000000000000000000000000000000000000000000000000000000000000000000000000000000000000002000000000000000000000000000000000000000000000000000000fd5e3cfd9a000000000000000000000000000000000000000000000000000000fd5e3cfd9a",
          "blockHash": "0x9a8e032e4591a5ac640b3d1face2655b67795b1cd42d325240d40749734f3c98",
          "blockNumber": "0x54ddf0",
          "transactionHash": "0xfa96ecea685cf466aea59cd0ee86e236b29812a1f15f083ca81b29f59ec659f0",
          "transactionIndex": "0x11",
          "logIndex": "0x3e",
          "removed": false
        },
        {
          "address": "0x1a44076050125825900e736c501f859c50fe728c",
          "topics": [
            "0x1ab700d4ced0c005b164c0f789fd09fcbb0156d4c2041b8a3bfbcd961cd1567f"
          ],
          "data": "0x00000000000000000000000000000000000000000000000000000000000000600000000000000000000000000000000000000000000000000000000000000120000000000000000000000000c1b621b18187f74c8f6d52a6f709dd2780c09821000000000000000000000000000000000000000000000000000000000000009901000000000000000100007623000000000000000000000000f010a7c8877043681d59ad125ebf575633505942000075e8000000000000000000000000f010a7c8877043681d59ad125ebf57563350594226c54f79602c559c0f6182338879c11eb5b022d008d0da77fce33290f6057eec000000000000000000000000b0e1650a9760e0f383174af042091fc544b8356f00000000000000640000000000000000000000000000000000000000000000000000000000000000000000000000160003010011010000000000000000000000000001388000000000000000000000",
          "blockHash": "0x9a8e032e4591a5ac640b3d1face2655b67795b1cd42d325240d40749734f3c98",
          "blockNumber": "0x54ddf0",
          "transactionHash": "0xfa96ecea685cf466aea59cd0ee86e236b29812a1f15f083ca81b29f59ec659f0",
          "transactionIndex": "0x11",
          "logIndex": "0x3f",
          "removed": false
        },
        {
          "address": "0xf010a7c8877043681d59ad125ebf575633505942",
          "topics": [
            "0x85496b760a4b7f8d66384b9df21b381f5d1b1e79f229a47aaf4c232edc2fe59a",
            "0x26c54f79602c559c0f6182338879c11eb5b022d008d0da77fce33290f6057eec",
            "0x000000000000000000000000b0e1650a9760e0f383174af042091fc544b8356f"
          ],
          "data": "0x00000000000000000000000000000000000000000000000000000000000075e800000000000000000000000000000000000000000000000000005af3107a400000000000000000000000000000000000000000000000000000005af3107a4000",
          "blockHash": "0x9a8e032e4591a5ac640b3d1face2655b67795b1cd42d325240d40749734f3c98",
          "blockNumber": "0x54ddf0",
          "transactionHash": "0xfa96ecea685cf466aea59cd0ee86e236b29812a1f15f083ca81b29f59ec659f0",
          "transactionIndex": "0x11",
          "logIndex": "0x40",
          "removed": false
        }
      ],
      "logsBloom": "0x00000000000000000000000000000000000000000000000000000000001000000000000000000000000000000020000000000000000000000000000000000000000002000000000000000008000000000000000000000000000000000000400004000000020000008000000000000800000000000110080000000010000000000000000000000000000000080000004000000000000000000000000000000000000000008000000000100000000000000000000000400000000440000000000000000002000000000000000080000000000080000000000000004000000020000000040080008000000000000000002000000000018040000040000000000000",
      "type": "0x2",
      "transactionHash": "0xfa96ecea685cf466aea59cd0ee86e236b29812a1f15f083ca81b29f59ec659f0",
      "transactionIndex": "0x11",
      "blockHash": "0x9a8e032e4591a5ac640b3d1face2655b67795b1cd42d325240d40749734f3c98",
      "blockNumber": "0x54ddf0",
      "gasUsed": "0x4cacc",
      "effectiveGasPrice": "0xaed44",
      "from": "0xb0e1650a9760e0f383174af042091fc544b8356f",
      "to": "0xf010a7c8877043681d59ad125ebf575633505942",
      "contractAddress": null,
      "l1Fee": "0x8ed17b5e4",
      "l1GasPrice": "0x1beef5e9f",
      "l1GasUsed": "0x1228"
    },
    {
      "status": "0x1",
      "cumulativeGasUsed": "0x1f2354",
      "logs": [
        {
          "address": "0xe41228a455700caf09e551805a8ab37caa39d08c",
          "topics": [
            "0xddf252ad1be2c89b69c2b068fc378daa952ba7f163c4a11628f55a4df523b3ef",
            "0x000000000000000000000000b0e1650a9760e0f383174af042091fc544b8356f",
            "0x0000000000000000000000000000000000000000000000000000000000000000"
          ],
          "data": "0x00000000000000000000000000000000000000000000000000005af3107a4000",
          "blockHash": "0x1ddf8747245774b462d7850194bee75017f8ac590a9e1e1efc4917e9abb3e37f",
          "blockNumber": "0x54ddf4",
          "transactionHash": "0x8717e512daf69189de4e468ee870c80dc0820709f9df3dbacc9da11367df10f9",
          "transactionIndex": "0xc",
          "logIndex": "0x23",
          "removed": false
        },
        {
          "address": "0xc1b621b18187f74c8f6d52a6f709dd2780c09821",
          "topics": [
            "0x61ed099e74a97a1d7f8bb0952a88ca8b7b8ebd00c126ea04671f92a81213318a"
          ],
          "data": "0x0000000000000000000000004208d6e27538189bb48e603d6123a94b8abe0a0b000000000000000000000000000000000000000000000000000008fd6a6d0c19",
          "blockHash": "0x1ddf8747245774b462d7850194bee75017f8ac590a9e1e1efc4917e9abb3e37f",
          "blockNumber": "0x54ddf4",
          "transactionHash": "0x8717e512daf69189de4e468ee870c80dc0820709f9df3dbacc9da11367df10f9",
          "transactionIndex": "0xc",
          "logIndex": "0x24",
          "removed": false
        },
        {
          "address": "0xc1b621b18187f74c8f6d52a6f709dd2780c09821",
          "topics": [
            "0x07ea52d82345d6e838192107d8fd7123d9c2ec8e916cd0aad13fd2b60db24644"
          ],
          "data": "0x000000000000000000000000000000000000000000000000000000000000006000000000000000000000000000000000000000000000000000000000000000c000000000000000000000000000000000000000000000000000000000000000e0000000000000000000000000000000000000000000000000000000000000000200000000000000000000000070bf42c69173d6e33b834f59630dac592c70b369000000000000000000000000c097ab8cd7b053326dfe9fb3e3a31a0cce3b526f00000000000000000000000000000000000000000000000000000000000000000000000000000000000000000000000000000000000000000000000000000002000000000000000000000000000000000000000000000000000000fd5e3cfd9a000000000000000000000000000000000000000000000000000000fd5e3cfd9a",
          "blockHash": "0x1ddf8747245774b462d7850194bee75017f8ac590a9e1e1efc4917e9abb3e37f",
          "blockNumber": "0x54ddf4",
          "transactionHash": "0x8717e512daf69189de4e468ee870c80dc0820709f9df3dbacc9da11367df10f9",
          "transactionIndex": "0xc",
          "logIndex": "0x25",
          "removed": false
        },
        {
          "address": "0x1a44076050125825900e736c501f859c50fe728c",
          "topics": [
            "0x1ab700d4ced0c005b164c0f789fd09fcbb0156d4c2041b8a3bfbcd961cd1567f"
          ],
          "data": "0x00000000000000000000000000000000000000000000000000000000000000600000000000000000000000000000000000000000000000000000000000000120000000000000000000000000c1b621b18187f74c8f6d52a6f709dd2780c09821000000000000000000000000000000000000000000000000000000000000009901000000000000000100007623000000000000000000000000e41228a455700caf09e551805a8ab37caa39d08c000075e8000000000000000000000000e41228a455700caf09e551805a8ab37caa39d08c1705b39350a6aee7d4ef256542349c8706580e9572415f707dad8df478dc98e4000000000000000000000000b0e1650a9760e0f383174af042091fc544b8356f00000000000000640000000000000000000000000000000000000000000000000000000000000000000000000000160003010011010000000000000000000000000001388000000000000000000000",
          "blockHash": "0x1ddf8747245774b462d7850194bee75017f8ac590a9e1e1efc4917e9abb3e37f",
          "blockNumber": "0x54ddf4",
          "transactionHash": "0x8717e512daf69189de4e468ee870c80dc0820709f9df3dbacc9da11367df10f9",
          "transactionIndex": "0xc",
          "logIndex": "0x26",
          "removed": false
        },
        {
          "address": "0xe41228a455700caf09e551805a8ab37caa39d08c",
          "topics": [
            "0x85496b760a4b7f8d66384b9df21b381f5d1b1e79f229a47aaf4c232edc2fe59a",
            "0x1705b39350a6aee7d4ef256542349c8706580e9572415f707dad8df478dc98e4",
            "0x000000000000000000000000b0e1650a9760e0f383174af042091fc544b8356f"
          ],
          "data": "0x00000000000000000000000000000000000000000000000000000000000075e800000000000000000000000000000000000000000000000000005af3107a400000000000000000000000000000000000000000000000000000005af3107a4000",
          "blockHash": "0x1ddf8747245774b462d7850194bee75017f8ac590a9e1e1efc4917e9abb3e37f",
          "blockNumber": "0x54ddf4",
          "transactionHash": "0x8717e512daf69189de4e468ee870c80dc0820709f9df3dbacc9da11367df10f9",
          "transactionIndex": "0xc",
          "logIndex": "0x27",
          "removed": false
        }
      ],
      "logsBloom": "0x00000000000000000000000000000000000000000000000000000000001000800000000000000000000000000000000000000000000000000000000000000010000002000000000000000008000000000000000000000000000000000000400000000000020000008000000000000800000000000110080000000010000000000000000000000000000000080000000000000000000200000000000000000000000000008000000000100000800000000000000000400000000440000000000000000042000000000000000080000000000000000000000000004000000020000000040080000000000000000000002000000000018000000040000000000000",
      "type": "0x2",
      "transactionHash": "0x8717e512daf69189de4e468ee870c80dc0820709f9df3dbacc9da11367df10f9",
      "transactionIndex": "0xc",
      "blockHash": "0x1ddf8747245774b462d7850194bee75017f8ac590a9e1e1efc4917e9abb3e37f",
      "blockNumber": "0x54ddf4",
      "gasUsed": "0x4cacc",
      "effectiveGasPrice": "0xae19f",
      "from": "0xb0e1650a9760e0f383174af042091fc544b8356f",
      "to": "0xe41228a455700caf09e551805a8ab37caa39d08c",
      "contractAddress": null,
      "l1Fee": "0x8ee66cd2b",
      "l1GasPrice": "0x1c0594105",
      "l1GasUsed": "0x121c"
    },
    {
      "status": "0x1",
      "cumulativeGasUsed": "0x2f84c7",
      "logs": [
        {
          "address": "0xf010a7c8877043681d59ad125ebf575633505942",
          "topics": [
            "0xddf252ad1be2c89b69c2b068fc378daa952ba7f163c4a11628f55a4df523b3ef",
            "0x000000000000000000000000b0e1650a9760e0f383174af042091fc544b8356f",
            "0x0000000000000000000000000000000000000000000000000000000000000000"
          ],
          "data": "0x00000000000000000000000000000000000000000000000000005af3107a4000",
          "blockHash": "0x3d0091c9a2a759d01262e046b8e9856794b6608ebb66b0f1545a28316df1a39b",
          "blockNumber": "0x54ddf7",
          "transactionHash": "0xf0e975bea518d2b9b762b1b3ac9d4693627f2c2ecf589e5827c6cf0cc035cb19",
          "transactionIndex": "0xf",
          "logIndex": "0x21",
          "removed": false
        },
        {
          "address": "0xc1b621b18187f74c8f6d52a6f709dd2780c09821",
          "topics": [
            "0x61ed099e74a97a1d7f8bb0952a88ca8b7b8ebd00c126ea04671f92a81213318a"
          ],
          "data": "0x0000000000000000000000004208d6e27538189bb48e603d6123a94b8abe0a0b000000000000000000000000000000000000000000000000000007a60a6c4b99",
          "blockHash": "0x3d0091c9a2a759d01262e046b8e9856794b6608ebb66b0f1545a28316df1a39b",
          "blockNumber": "0x54ddf7",
          "transactionHash": "0xf0e975bea518d2b9b762b1b3ac9d4693627f2c2ecf589e5827c6cf0cc035cb19",
          "transactionIndex": "0xf",
          "logIndex": "0x22",
          "removed": false
        },
        {
          "address": "0xc1b621b18187f74c8f6d52a6f709dd2780c09821",
          "topics": [
            "0x07ea52d82345d6e838192107d8fd7123d9c2ec8e916cd0aad13fd2b60db24644"
          ],
          "data": "0x000000000000000000000000000000000000000000000000000000000000006000000000000000000000000000000000000000000000000000000000000000c000000000000000000000000000000000000000000000000000000000000000e0000000000000000000000000000000000000000000000000000000000000000200000000000000000000000070bf42c69173d6e33b834f59630dac592c70b369000000000000000000000000c097ab8cd7b053326dfe9fb3e3a31a0cce3b526f0000000000000000000000000000000000000000000000000000000000000000000000000000000000000000000000000000000000000000000000000000000200000000000000000000000000000000000000000000000000000017f09580f900000000000000000000000000000000000000000000000000000017f09580f9",
          "blockHash": "0x3d0091c9a2a759d01262e046b8e9856794b6608ebb66b0f1545a28316df1a39b",
          "blockNumber": "0x54ddf7",
          "transactionHash": "0xf0e975bea518d2b9b762b1b3ac9d4693627f2c2ecf589e5827c6cf0cc035cb19",
          "transactionIndex": "0xf",
          "logIndex": "0x23",
          "removed": false
        },
        {
          "address": "0x1a44076050125825900e736c501f859c50fe728c",
          "topics": [
            "0x1ab700d4ced0c005b164c0f789fd09fcbb0156d4c2041b8a3bfbcd961cd1567f"
          ],
          "data": "0x00000000000000000000000000000000000000000000000000000000000000600000000000000000000000000000000000000000000000000000000000000120000000000000000000000000c1b621b18187f74c8f6d52a6f709dd2780c09821000000000000000000000000000000000000000000000000000000000000009901000000000000000100007623000000000000000000000000f010a7c8877043681d59ad125ebf5756335059420000763400000000000000000000000043edd7f3831b08fe70b7555ddd373c8bf65a90507a79c162064529e863958cbc78d6c7a3212edd17b9d8fcf1ebb7f250ded95542000000000000000000000000b0e1650a9760e0f383174af042091fc544b8356f000000000000006400000000000000000000000000000000000000000000000000000000000000000000000000001600030100110100000000000000000000000000030d4000000000000000000000",
          "blockHash": "0x3d0091c9a2a759d01262e046b8e9856794b6608ebb66b0f1545a28316df1a39b",
          "blockNumber": "0x54ddf7",
          "transactionHash": "0xf0e975bea518d2b9b762b1b3ac9d4693627f2c2ecf589e5827c6cf0cc035cb19",
          "transactionIndex": "0xf",
          "logIndex": "0x24",
          "removed": false
        },
        {
          "address": "0xf010a7c8877043681d59ad125ebf575633505942",
          "topics": [
            "0x85496b760a4b7f8d66384b9df21b381f5d1b1e79f229a47aaf4c232edc2fe59a",
            "0x7a79c162064529e863958cbc78d6c7a3212edd17b9d8fcf1ebb7f250ded95542",
            "0x000000000000000000000000b0e1650a9760e0f383174af042091fc544b8356f"
          ],
          "data": "0x000000000000000000000000000000000000000000000000000000000000763400000000000000000000000000000000000000000000000000005af3107a400000000000000000000000000000000000000000000000000000005af3107a4000",
          "blockHash": "0x3d0091c9a2a759d01262e046b8e9856794b6608ebb66b0f1545a28316df1a39b",
          "blockNumber": "0x54ddf7",
          "transactionHash": "0xf0e975bea518d2b9b762b1b3ac9d4693627f2c2ecf589e5827c6cf0cc035cb19",
          "transactionIndex": "0xf",
          "logIndex": "0x25",
          "removed": false
        }
      ],
      "logsBloom": "0x00000000000000000000000000000000400000000000000000000000001000000000000000000000000000000020000000000000000000000000000000000000000002000000000000000008000000000000000000000000000000000000400000000000020000008000000000000800000000000110080000000010000000000000000400000000000000080000000000000000000000000000000000000000000000088000000000100000000000000000000000400000000440000000000000000002000000000000000080000000000080000000000000004000000020000000040080000000000000000000002000000000018040000040000000000000",
      "type": "0x2",
      "transactionHash": "0xf0e975bea518d2b9b762b1b3ac9d4693627f2c2ecf589e5827c6cf0cc035cb19",
      "transactionIndex": "0xf",
      "blockHash": "0x3d0091c9a2a759d01262e046b8e9856794b6608ebb66b0f1545a28316df1a39b",
      "blockNumber": "0x54ddf7",
      "gasUsed": "0x4cacc",
      "effectiveGasPrice": "0xad302",
      "from": "0xb0e1650a9760e0f383174af042091fc544b8356f",
      "to": "0xf010a7c8877043681d59ad125ebf575633505942",
      "contractAddress": null,
      "l1Fee": "0x8f451dcf1",
      "l1GasPrice": "0x1c0594105",
      "l1GasUsed": "0x1228"
    },
    {
      "status": "0x1",
      "cumulativeGasUsed": "0x2a19bd",
      "logs": [
        {
          "address": "0xe41228a455700caf09e551805a8ab37caa39d08c",
          "topics": [
            "0xddf252ad1be2c89b69c2b068fc378daa952ba7f163c4a11628f55a4df523b3ef",
            "0x000000000000000000000000b0e1650a9760e0f383174af042091fc544b8356f",
            "0x0000000000000000000000000000000000000000000000000000000000000000"
          ],
          "data": "0x00000000000000000000000000000000000000000000000000005af3107a4000",
          "blockHash": "0x763b73589732fc5bb3e29a3688ff4694e3fb408bf3676985c1919a52074a9f00",
          "blockNumber": "0x54ddfb",
          "transactionHash": "0x7adcae24327eebdd1337575c8fc6d577342700211c8c4b5f4f410804045bef77",
          "transactionIndex": "0xc",
          "logIndex": "0x19",
          "removed": false
        },
        {
          "address": "0xc1b621b18187f74c8f6d52a6f709dd2780c09821",
          "topics": [
            "0x61ed099e74a97a1d7f8bb0952a88ca8b7b8ebd00c126ea04671f92a81213318a"
          ],
          "data": "0x0000000000000000000000004208d6e27538189bb48e603d6123a94b8abe0a0b000000000000000000000000000000000000000000000000000007a60a6c4b99",
          "blockHash": "0x763b73589732fc5bb3e29a3688ff4694e3fb408bf3676985c1919a52074a9f00",
          "blockNumber": "0x54ddfb",
          "transactionHash": "0x7adcae24327eebdd1337575c8fc6d577342700211c8c4b5f4f410804045bef77",
          "transactionIndex": "0xc",
          "logIndex": "0x1a",
          "removed": false
        },
        {
          "address": "0xc1b621b18187f74c8f6d52a6f709dd2780c09821",
          "topics": [
            "0x07ea52d82345d6e838192107d8fd7123d9c2ec8e916cd0aad13fd2b60db24644"
          ],
          "data": "0x000000000000000000000000000000000000000000000000000000000000006000000000000000000000000000000000000000000000000000000000000000c000000000000000000000000000000000000000000000000000000000000000e0000000000000000000000000000000000000000000000000000000000000000200000000000000000000000070bf42c69173d6e33b834f59630dac592c70b369000000000000000000000000c097ab8cd7b053326dfe9fb3e3a31a0cce3b526f0000000000000000000000000000000000000000000000000000000000000000000000000000000000000000000000000000000000000000000000000000000200000000000000000000000000000000000000000000000000000017f09580f900000000000000000000000000000000000000000000000000000017f09580f9",
          "blockHash": "0x763b73589732fc5bb3e29a3688ff4694e3fb408bf3676985c1919a52074a9f00",
          "blockNumber": "0x54ddfb",
          "transactionHash": "0x7adcae24327eebdd1337575c8fc6d577342700211c8c4b5f4f410804045bef77",
          "transactionIndex": "0xc",
          "logIndex": "0x1b",
          "removed": false
        },
        {
          "address": "0x1a44076050125825900e736c501f859c50fe728c",
          "topics": [
            "0x1ab700d4ced0c005b164c0f789fd09fcbb0156d4c2041b8a3bfbcd961cd1567f"
          ],
          "data": "0x00000000000000000000000000000000000000000000000000000000000000600000000000000000000000000000000000000000000000000000000000000120000000000000000000000000c1b621b18187f74c8f6d52a6f709dd2780c09821000000000000000000000000000000000000000000000000000000000000009901000000000000000100007623000000000000000000000000e41228a455700caf09e551805a8ab37caa39d08c00007634000000000000000000000000eed9de5e41b53d1c8fab8aab4b0e446f828c14836836d7bf03274e1e5a05c01d6d6a4de758780c9081f8e40ae30e99ec87f2157d000000000000000000000000b0e1650a9760e0f383174af042091fc544b8356f000000000000006400000000000000000000000000000000000000000000000000000000000000000000000000001600030100110100000000000000000000000000030d4000000000000000000000",
          "blockHash": "0x763b73589732fc5bb3e29a3688ff4694e3fb408bf3676985c1919a52074a9f00",
          "blockNumber": "0x54ddfb",
          "transactionHash": "0x7adcae24327eebdd1337575c8fc6d577342700211c8c4b5f4f410804045bef77",
          "transactionIndex": "0xc",
          "logIndex": "0x1c",
          "removed": false
        },
        {
          "address": "0xe41228a455700caf09e551805a8ab37caa39d08c",
          "topics": [
            "0x85496b760a4b7f8d66384b9df21b381f5d1b1e79f229a47aaf4c232edc2fe59a",
            "0x6836d7bf03274e1e5a05c01d6d6a4de758780c9081f8e40ae30e99ec87f2157d",
            "0x000000000000000000000000b0e1650a9760e0f383174af042091fc544b8356f"
          ],
          "data": "0x000000000000000000000000000000000000000000000000000000000000763400000000000000000000000000000000000000000000000000005af3107a400000000000000000000000000000000000000000000000000000005af3107a4000",
          "blockHash": "0x763b73589732fc5bb3e29a3688ff4694e3fb408bf3676985c1919a52074a9f00",
          "blockNumber": "0x54ddfb",
          "transactionHash": "0x7adcae24327eebdd1337575c8fc6d577342700211c8c4b5f4f410804045bef77",
          "transactionIndex": "0xc",
          "logIndex": "0x1d",
          "removed": false
        }
      ],
      "logsBloom": "0x00000000200000000000800000000000000000000000000000000000001000000000000000000000000000000000000000000000000000000000000000000000000002000000000000000008000000000000000000000000000000000000400000000000020000008000000000000800000000000110080000000010000000000000000000000000000000080000000000000000000200000000010000000000000000008000000000100000800000000000000000400000000440000000000000000042000000000000000080000000000000000000000000004000000020000000040080000000000000000000002000000000018000000040000000000000",
      "type": "0x2",
      "transactionHash": "0x7adcae24327eebdd1337575c8fc6d577342700211c8c4b5f4f410804045bef77",
      "transactionIndex": "0xc",
      "blockHash": "0x763b73589732fc5bb3e29a3688ff4694e3fb408bf3676985c1919a52074a9f00",
      "blockNumber": "0x54ddfb",
      "gasUsed": "0x4cacc",
      "effectiveGasPrice": "0xabae2",
      "from": "0xb0e1650a9760e0f383174af042091fc544b8356f",
      "to": "0xe41228a455700caf09e551805a8ab37caa39d08c",
      "contractAddress": null,
      "l1Fee": "0x8819cd8ca",
      "l1GasPrice": "0x1a9e9ce13",
      "l1GasUsed": "0x1228"
    }
  ],
  "libraries": [],
  "pending": [],
  "returns": {},
  "timestamp": 1719933509,
  "chain": 81457,
  "commit": "52a2592"
}