{
  "transactions": [
    {
      "hash": "0xdf709d91c7039557b58dc73c4e414540aa0143c169ae3a67a16fc3be93d37b46",
      "transactionType": "CALL",
      "contractName": null,
      "contractAddress": "0x23432452b720c80553458496d4d9d7c5003280d0",
      "function": "send((uint32,bytes32,uint256,uint256,bytes,bytes,bytes),(uint256,uint256),address)",
      "arguments": [
        "(30260, 0x000000000000000000000000b0e1650a9760e0f383174af042091fc544b8356f, 100000000000000, 100000000000000, 0x0003, 0x, 0x)",
        "(8615361990027, 0)",
        "0xb0E1650A9760e0f383174af042091fc544b8356f"
      ],
      "transaction": {
        "from": "0xb0e1650a9760e0f383174af042091fc544b8356f",
        "to": "0x23432452b720c80553458496d4d9d7c5003280d0",
        "gas": "0x5df37",
        "value": "0x7d5eb974d8b",
        "input": "0xc7c7f5b30000000000000000000000000000000000000000000000000000000000000080000000000000000000000000000000000000000000000000000007d5eb974d8b0000000000000000000000000000000000000000000000000000000000000000000000000000000000000000b0e1650a9760e0f383174af042091fc544b8356f0000000000000000000000000000000000000000000000000000000000007634000000000000000000000000b0e1650a9760e0f383174af042091fc544b8356f00000000000000000000000000000000000000000000000000005af3107a400000000000000000000000000000000000000000000000000000005af3107a400000000000000000000000000000000000000000000000000000000000000000e0000000000000000000000000000000000000000000000000000000000000012000000000000000000000000000000000000000000000000000000000000001400000000000000000000000000000000000000000000000000000000000000002000300000000000000000000000000000000000000000000000000000000000000000000000000000000000000000000000000000000000000000000000000000000000000000000000000000000000000000000000000000000000000000000",
        "nonce": "0x0",
        "chainId": "0x13e31"
      },
      "additionalContracts": [],
      "isFixedGasLimit": false
    },
    {
      "hash": "0xc428e2073cd65d8eed8d49720d22fb081fe798689412b4b37a67830db3e426cb",
      "transactionType": "CALL",
      "contractName": null,
      "contractAddress": "0xe4796ccb6bb5de2290c417ac337f2b66ca2e770e",
      "function": "send((uint32,bytes32,uint256,uint256,bytes,bytes,bytes),(uint256,uint256),address)",
      "arguments": [
        "(30260, 0x000000000000000000000000b0e1650a9760e0f383174af042091fc544b8356f, 100000000000000, 100000000000000, 0x0003, 0x, 0x)",
        "(8615361990027, 0)",
        "0xb0E1650A9760e0f383174af042091fc544b8356f"
      ],
      "transaction": {
        "from": "0xb0e1650a9760e0f383174af042091fc544b8356f",
        "to": "0xe4796ccb6bb5de2290c417ac337f2b66ca2e770e",
        "gas": "0x5df37",
        "value": "0x7d5eb974d8b",
        "input": "0xc7c7f5b30000000000000000000000000000000000000000000000000000000000000080000000000000000000000000000000000000000000000000000007d5eb974d8b0000000000000000000000000000000000000000000000000000000000000000000000000000000000000000b0e1650a9760e0f383174af042091fc544b8356f0000000000000000000000000000000000000000000000000000000000007634000000000000000000000000b0e1650a9760e0f383174af042091fc544b8356f00000000000000000000000000000000000000000000000000005af3107a400000000000000000000000000000000000000000000000000000005af3107a400000000000000000000000000000000000000000000000000000000000000000e0000000000000000000000000000000000000000000000000000000000000012000000000000000000000000000000000000000000000000000000000000001400000000000000000000000000000000000000000000000000000000000000002000300000000000000000000000000000000000000000000000000000000000000000000000000000000000000000000000000000000000000000000000000000000000000000000000000000000000000000000000000000000000000000000",
        "nonce": "0x1",
        "chainId": "0x13e31"
      },
      "additionalContracts": [],
      "isFixedGasLimit": false
    },
    {
      "hash": "0xf119f11a5b7f99b2c3c78e3fc29157e83e83e143bb7a0f859f34c4195fa681e3",
      "transactionType": "CALL",
      "contractName": null,
      "contractAddress": "0x1f55a02a049033e3419a8e2975cf3f572f4e6e9a",
      "function": "send((uint32,bytes32,uint256,uint256,bytes,bytes,bytes),(uint256,uint256),address)",
      "arguments": [
        "(30260, 0x000000000000000000000000b0e1650a9760e0f383174af042091fc544b8356f, 100000000000000, 100000000000000, 0x0003, 0x, 0x)",
        "(8615361990027, 0)",
        "0xb0E1650A9760e0f383174af042091fc544b8356f"
      ],
      "transaction": {
        "from": "0xb0e1650a9760e0f383174af042091fc544b8356f",
        "to": "0x1f55a02a049033e3419a8e2975cf3f572f4e6e9a",
        "gas": "0x5df37",
        "value": "0x7d5eb974d8b",
        "input": "0xc7c7f5b30000000000000000000000000000000000000000000000000000000000000080000000000000000000000000000000000000000000000000000007d5eb974d8b0000000000000000000000000000000000000000000000000000000000000000000000000000000000000000b0e1650a9760e0f383174af042091fc544b8356f0000000000000000000000000000000000000000000000000000000000007634000000000000000000000000b0e1650a9760e0f383174af042091fc544b8356f00000000000000000000000000000000000000000000000000005af3107a400000000000000000000000000000000000000000000000000000005af3107a400000000000000000000000000000000000000000000000000000000000000000e0000000000000000000000000000000000000000000000000000000000000012000000000000000000000000000000000000000000000000000000000000001400000000000000000000000000000000000000000000000000000000000000002000300000000000000000000000000000000000000000000000000000000000000000000000000000000000000000000000000000000000000000000000000000000000000000000000000000000000000000000000000000000000000000000",
        "nonce": "0x2",
        "chainId": "0x13e31"
      },
      "additionalContracts": [],
      "isFixedGasLimit": false
    },
    {
      "hash": "0x804c5fb79e3b14b7a6e6610df0f81e8df16b312e253cac09a5e2499b74816b08",
      "transactionType": "CALL",
      "contractName": null,
      "contractAddress": "0x909dbde1ebe906af95660033e478d59efe831fed",
      "function": "send((uint32,bytes32,uint256,uint256,bytes,bytes,bytes),(uint256,uint256),address)",
      "arguments": [
        "(30260, 0x000000000000000000000000b0e1650a9760e0f383174af042091fc544b8356f, 100000000000000, 100000000000000, 0x0003, 0x, 0x)",
        "(8615361990027, 0)",
        "0xb0E1650A9760e0f383174af042091fc544b8356f"
      ],
      "transaction": {
        "from": "0xb0e1650a9760e0f383174af042091fc544b8356f",
        "to": "0x909dbde1ebe906af95660033e478d59efe831fed",
        "gas": "0x5df37",
        "value": "0x7d5eb974d8b",
        "input": "0xc7c7f5b30000000000000000000000000000000000000000000000000000000000000080000000000000000000000000000000000000000000000000000007d5eb974d8b0000000000000000000000000000000000000000000000000000000000000000000000000000000000000000b0e1650a9760e0f383174af042091fc544b8356f0000000000000000000000000000000000000000000000000000000000007634000000000000000000000000b0e1650a9760e0f383174af042091fc544b8356f00000000000000000000000000000000000000000000000000005af3107a400000000000000000000000000000000000000000000000000000005af3107a400000000000000000000000000000000000000000000000000000000000000000e0000000000000000000000000000000000000000000000000000000000000012000000000000000000000000000000000000000000000000000000000000001400000000000000000000000000000000000000000000000000000000000000002000300000000000000000000000000000000000000000000000000000000000000000000000000000000000000000000000000000000000000000000000000000000000000000000000000000000000000000000000000000000000000000000",
        "nonce": "0x3",
        "chainId": "0x13e31"
      },
      "additionalContracts": [],
      "isFixedGasLimit": false
    }
  ],
  "receipts": [
    {
      "status": "0x1",
      "cumulativeGasUsed": "0x5dec83",
      "logs": [
        {
          "address": "0x23432452b720c80553458496d4d9d7c5003280d0",
          "topics": [
            "0xddf252ad1be2c89b69c2b068fc378daa952ba7f163c4a11628f55a4df523b3ef",
            "0x000000000000000000000000b0e1650a9760e0f383174af042091fc544b8356f",
            "0x0000000000000000000000000000000000000000000000000000000000000000"
          ],
          "data": "0x00000000000000000000000000000000000000000000000000005af3107a4000",
          "blockHash": "0x5dc1dc2fdf76f872dc7873f82f6e206cda6e86928eaed1b5a5f87d16eb2bfa0d",
          "blockNumber": "0x51c171",
          "transactionHash": "0xdf709d91c7039557b58dc73c4e414540aa0143c169ae3a67a16fc3be93d37b46",
          "transactionIndex": "0x1a",
          "logIndex": "0x3b",
          "removed": false
        },
        {
          "address": "0xc1b621b18187f74c8f6d52a6f709dd2780c09821",
          "topics": [
            "0x61ed099e74a97a1d7f8bb0952a88ca8b7b8ebd00c126ea04671f92a81213318a"
          ],
          "data": "0x0000000000000000000000004208d6e27538189bb48e603d6123a94b8abe0a0b000000000000000000000000000000000000000000000000000007a60a6c4b99",
          "blockHash": "0x5dc1dc2fdf76f872dc7873f82f6e206cda6e86928eaed1b5a5f87d16eb2bfa0d",
          "blockNumber": "0x51c171",
          "transactionHash": "0xdf709d91c7039557b58dc73c4e414540aa0143c169ae3a67a16fc3be93d37b46",
          "transactionIndex": "0x1a",
          "logIndex": "0x3c",
          "removed": false
        },
        {
          "address": "0xc1b621b18187f74c8f6d52a6f709dd2780c09821",
          "topics": [
            "0x07ea52d82345d6e838192107d8fd7123d9c2ec8e916cd0aad13fd2b60db24644"
          ],
          "data": "0x000000000000000000000000000000000000000000000000000000000000006000000000000000000000000000000000000000000000000000000000000000c000000000000000000000000000000000000000000000000000000000000000e0000000000000000000000000000000000000000000000000000000000000000200000000000000000000000070bf42c69173d6e33b834f59630dac592c70b369000000000000000000000000c097ab8cd7b053326dfe9fb3e3a31a0cce3b526f0000000000000000000000000000000000000000000000000000000000000000000000000000000000000000000000000000000000000000000000000000000200000000000000000000000000000000000000000000000000000017f09580f900000000000000000000000000000000000000000000000000000017f09580f9",
          "blockHash": "0x5dc1dc2fdf76f872dc7873f82f6e206cda6e86928eaed1b5a5f87d16eb2bfa0d",
          "blockNumber": "0x51c171",
          "transactionHash": "0xdf709d91c7039557b58dc73c4e414540aa0143c169ae3a67a16fc3be93d37b46",
          "transactionIndex": "0x1a",
          "logIndex": "0x3d",
          "removed": false
        },
        {
          "address": "0x1a44076050125825900e736c501f859c50fe728c",
          "topics": [
            "0x1ab700d4ced0c005b164c0f789fd09fcbb0156d4c2041b8a3bfbcd961cd1567f"
          ],
          "data": "0x00000000000000000000000000000000000000000000000000000000000000600000000000000000000000000000000000000000000000000000000000000120000000000000000000000000c1b621b18187f74c8f6d52a6f709dd2780c0982100000000000000000000000000000000000000000000000000000000000000990100000000000000010000762300000000000000000000000023432452b720c80553458496d4d9d7c5003280d00000763400000000000000000000000064445f0aecc51e94ad52d8ac56b7190e764e561a395acc54d7392851905703647037a45b9d6c09375f19491f26af83f3ee7e947e000000000000000000000000b0e1650a9760e0f383174af042091fc544b8356f000000000000006400000000000000000000000000000000000000000000000000000000000000000000000000001600030100110100000000000000000000000000030d4000000000000000000000",
          "blockHash": "0x5dc1dc2fdf76f872dc7873f82f6e206cda6e86928eaed1b5a5f87d16eb2bfa0d",
          "blockNumber": "0x51c171",
          "transactionHash": "0xdf709d91c7039557b58dc73c4e414540aa0143c169ae3a67a16fc3be93d37b46",
          "transactionIndex": "0x1a",
          "logIndex": "0x3e",
          "removed": false
        },
        {
          "address": "0x23432452b720c80553458496d4d9d7c5003280d0",
          "topics": [
            "0x85496b760a4b7f8d66384b9df21b381f5d1b1e79f229a47aaf4c232edc2fe59a",
            "0x395acc54d7392851905703647037a45b9d6c09375f19491f26af83f3ee7e947e",
            "0x000000000000000000000000b0e1650a9760e0f383174af042091fc544b8356f"
          ],
          "data": "0x000000000000000000000000000000000000000000000000000000000000763400000000000000000000000000000000000000000000000000005af3107a400000000000000000000000000000000000000000000000000000005af3107a4000",
          "blockHash": "0x5dc1dc2fdf76f872dc7873f82f6e206cda6e86928eaed1b5a5f87d16eb2bfa0d",
          "blockNumber": "0x51c171",
          "transactionHash": "0xdf709d91c7039557b58dc73c4e414540aa0143c169ae3a67a16fc3be93d37b46",
          "transactionIndex": "0x1a",
          "logIndex": "0x3f",
          "removed": false
        }
      ],
      "logsBloom": "0x00000000000000000000000000000000000000000000000000000000001000000000000000000000000000000000000000000000000000000000000000000000000002000000000000000008000000000000000000000002000000000000400080000000020000008000000000000800000000000110080000000010000000000000000000000000000000080000000000000000000020000000000000000000000000008000000000100000000000000000000000400000000440000000000000000002000000000000000080000000000000000000000000004000000020000000040080000000000000000020002000000000018000008040000000004000",
      "type": "0x2",
      "transactionHash": "0xdf709d91c7039557b58dc73c4e414540aa0143c169ae3a67a16fc3be93d37b46",
      "transactionIndex": "0x1a",
      "blockHash": "0x5dc1dc2fdf76f872dc7873f82f6e206cda6e86928eaed1b5a5f87d16eb2bfa0d",
      "blockNumber": "0x51c171",
      "gasUsed": "0x4cafa",
      "effectiveGasPrice": "0x982550",
      "from": "0xb0e1650a9760e0f383174af042091fc544b8356f",
      "to": "0x23432452b720c80553458496d4d9d7c5003280d0",
      "contractAddress": null,
      "l1Fee": "0x6ee871f43",
      "l1GasPrice": "0x15ac6f06b",
      "l1GasUsed": "0x122c"
    },
    {
      "status": "0x1",
      "cumulativeGasUsed": "0x5878cc",
      "logs": [
        {
          "address": "0xe4796ccb6bb5de2290c417ac337f2b66ca2e770e",
          "topics": [
            "0xddf252ad1be2c89b69c2b068fc378daa952ba7f163c4a11628f55a4df523b3ef",
            "0x000000000000000000000000b0e1650a9760e0f383174af042091fc544b8356f",
            "0x0000000000000000000000000000000000000000000000000000000000000000"
          ],
          "data": "0x00000000000000000000000000000000000000000000000000005af3107a4000",
          "blockHash": "0x39c42f41ec5566398bf8d918352ae2d40f3bbd9da887a3f9d3f2fe01d38dfd62",
          "blockNumber": "0x51c175",
          "transactionHash": "0xc428e2073cd65d8eed8d49720d22fb081fe798689412b4b37a67830db3e426cb",
          "transactionIndex": "0x1c",
          "logIndex": "0x3d",
          "removed": false
        },
        {
          "address": "0xc1b621b18187f74c8f6d52a6f709dd2780c09821",
          "topics": [
            "0x61ed099e74a97a1d7f8bb0952a88ca8b7b8ebd00c126ea04671f92a81213318a"
          ],
          "data": "0x0000000000000000000000004208d6e27538189bb48e603d6123a94b8abe0a0b000000000000000000000000000000000000000000000000000007a60a6c4b99",
          "blockHash": "0x39c42f41ec5566398bf8d918352ae2d40f3bbd9da887a3f9d3f2fe01d38dfd62",
          "blockNumber": "0x51c175",
          "transactionHash": "0xc428e2073cd65d8eed8d49720d22fb081fe798689412b4b37a67830db3e426cb",
          "transactionIndex": "0x1c",
          "logIndex": "0x3e",
          "removed": false
        },
        {
          "address": "0xc1b621b18187f74c8f6d52a6f709dd2780c09821",
          "topics": [
            "0x07ea52d82345d6e838192107d8fd7123d9c2ec8e916cd0aad13fd2b60db24644"
          ],
          "data": "0x000000000000000000000000000000000000000000000000000000000000006000000000000000000000000000000000000000000000000000000000000000c000000000000000000000000000000000000000000000000000000000000000e0000000000000000000000000000000000000000000000000000000000000000200000000000000000000000070bf42c69173d6e33b834f59630dac592c70b369000000000000000000000000c097ab8cd7b053326dfe9fb3e3a31a0cce3b526f0000000000000000000000000000000000000000000000000000000000000000000000000000000000000000000000000000000000000000000000000000000200000000000000000000000000000000000000000000000000000017f09580f900000000000000000000000000000000000000000000000000000017f09580f9",
          "blockHash": "0x39c42f41ec5566398bf8d918352ae2d40f3bbd9da887a3f9d3f2fe01d38dfd62",
          "blockNumber": "0x51c175",
          "transactionHash": "0xc428e2073cd65d8eed8d49720d22fb081fe798689412b4b37a67830db3e426cb",
          "transactionIndex": "0x1c",
          "logIndex": "0x3f",
          "removed": false
        },
        {
          "address": "0x1a44076050125825900e736c501f859c50fe728c",
          "topics": [
            "0x1ab700d4ced0c005b164c0f789fd09fcbb0156d4c2041b8a3bfbcd961cd1567f"
          ],
          "data": "0x00000000000000000000000000000000000000000000000000000000000000600000000000000000000000000000000000000000000000000000000000000120000000000000000000000000c1b621b18187f74c8f6d52a6f709dd2780c09821000000000000000000000000000000000000000000000000000000000000009901000000000000000100007623000000000000000000000000e4796ccb6bb5de2290c417ac337f2b66ca2e770e000076340000000000000000000000005bff88ca1442c2496f7e475e9e7786383bc070c0955bcd1e2e8c3e6f5629b9c5e0ed070f125a8eac69a57013cfeb009051411551000000000000000000000000b0e1650a9760e0f383174af042091fc544b8356f000000000000006400000000000000000000000000000000000000000000000000000000000000000000000000001600030100110100000000000000000000000000030d4000000000000000000000",
          "blockHash": "0x39c42f41ec5566398bf8d918352ae2d40f3bbd9da887a3f9d3f2fe01d38dfd62",
          "blockNumber": "0x51c175",
          "transactionHash": "0xc428e2073cd65d8eed8d49720d22fb081fe798689412b4b37a67830db3e426cb",
          "transactionIndex": "0x1c",
          "logIndex": "0x40",
          "removed": false
        },
        {
          "address": "0xe4796ccb6bb5de2290c417ac337f2b66ca2e770e",
          "topics": [
            "0x85496b760a4b7f8d66384b9df21b381f5d1b1e79f229a47aaf4c232edc2fe59a",
            "0x955bcd1e2e8c3e6f5629b9c5e0ed070f125a8eac69a57013cfeb009051411551",
            "0x000000000000000000000000b0e1650a9760e0f383174af042091fc544b8356f"
          ],
          "data": "0x000000000000000000000000000000000000000000000000000000000000763400000000000000000000000000000000000000000000000000005af3107a400000000000000000000000000000000000000000000000000000005af3107a4000",
          "blockHash": "0x39c42f41ec5566398bf8d918352ae2d40f3bbd9da887a3f9d3f2fe01d38dfd62",
          "blockNumber": "0x51c175",
          "transactionHash": "0xc428e2073cd65d8eed8d49720d22fb081fe798689412b4b37a67830db3e426cb",
          "transactionIndex": "0x1c",
          "logIndex": "0x41",
          "removed": false
        }
      ],
      "logsBloom": "0x00000000000000000000000100000000000000000000000000000000001000000000000000000000000000000000000000000000000000000000000000000000000002000000000000000008000000000004000000000000000000000000400000400000020000008000000000000800000000000110080000000010100000000000000000000000000000080000000000000000000000000000000000000000000000008000000000100000000000000000010000400000000440000000000000000002000000000000000080000000000000000000000000004000000020000000040080000000000000000000002000000000018000000040000000001000",
      "type": "0x2",
      "transactionHash": "0xc428e2073cd65d8eed8d49720d22fb081fe798689412b4b37a67830db3e426cb",
      "transactionIndex": "0x1c",
      "blockHash": "0x39c42f41ec5566398bf8d918352ae2d40f3bbd9da887a3f9d3f2fe01d38dfd62",
      "blockNumber": "0x51c175",
      "gasUsed": "0x4cafa",
      "effectiveGasPrice": "0x9829f6",
      "from": "0xb0e1650a9760e0f383174af042091fc544b8356f",
      "to": "0xe4796ccb6bb5de2290c417ac337f2b66ca2e770e",
      "contractAddress": null,
      "l1Fee": "0x656644be9",
      "l1GasPrice": "0x13c3b25f8",
      "l1GasUsed": "0x1238"
    },
    {
      "status": "0x1",
      "cumulativeGasUsed": "0x4daa32",
      "logs": [
        {
          "address": "0x1f55a02a049033e3419a8e2975cf3f572f4e6e9a",
          "topics": [
            "0xddf252ad1be2c89b69c2b068fc378daa952ba7f163c4a11628f55a4df523b3ef",
            "0x000000000000000000000000b0e1650a9760e0f383174af042091fc544b8356f",
            "0x0000000000000000000000000000000000000000000000000000000000000000"
          ],
          "data": "0x00000000000000000000000000000000000000000000000000005af3107a4000",
          "blockHash": "0x87f8c03fb9ab3e8730e4015fc3f5482740879651c496d5b8fd49814d43217e37",
          "blockNumber": "0x51c179",
          "transactionHash": "0xf119f11a5b7f99b2c3c78e3fc29157e83e83e143bb7a0f859f34c4195fa681e3",
          "transactionIndex": "0x1d",
          "logIndex": "0x1b",
          "removed": false
        },
        {
          "address": "0xc1b621b18187f74c8f6d52a6f709dd2780c09821",
          "topics": [
            "0x61ed099e74a97a1d7f8bb0952a88ca8b7b8ebd00c126ea04671f92a81213318a"
          ],
          "data": "0x0000000000000000000000004208d6e27538189bb48e603d6123a94b8abe0a0b000000000000000000000000000000000000000000000000000007a60a6c4b99",
          "blockHash": "0x87f8c03fb9ab3e8730e4015fc3f5482740879651c496d5b8fd49814d43217e37",
          "blockNumber": "0x51c179",
          "transactionHash": "0xf119f11a5b7f99b2c3c78e3fc29157e83e83e143bb7a0f859f34c4195fa681e3",
          "transactionIndex": "0x1d",
          "logIndex": "0x1c",
          "removed": false
        },
        {
          "address": "0xc1b621b18187f74c8f6d52a6f709dd2780c09821",
          "topics": [
            "0x07ea52d82345d6e838192107d8fd7123d9c2ec8e916cd0aad13fd2b60db24644"
          ],
          "data": "0x000000000000000000000000000000000000000000000000000000000000006000000000000000000000000000000000000000000000000000000000000000c000000000000000000000000000000000000000000000000000000000000000e0000000000000000000000000000000000000000000000000000000000000000200000000000000000000000070bf42c69173d6e33b834f59630dac592c70b369000000000000000000000000c097ab8cd7b053326dfe9fb3e3a31a0cce3b526f0000000000000000000000000000000000000000000000000000000000000000000000000000000000000000000000000000000000000000000000000000000200000000000000000000000000000000000000000000000000000017f09580f900000000000000000000000000000000000000000000000000000017f09580f9",
          "blockHash": "0x87f8c03fb9ab3e8730e4015fc3f5482740879651c496d5b8fd49814d43217e37",
          "blockNumber": "0x51c179",
          "transactionHash": "0xf119f11a5b7f99b2c3c78e3fc29157e83e83e143bb7a0f859f34c4195fa681e3",
          "transactionIndex": "0x1d",
          "logIndex": "0x1d",
          "removed": false
        },
        {
          "address": "0x1a44076050125825900e736c501f859c50fe728c",
          "topics": [
            "0x1ab700d4ced0c005b164c0f789fd09fcbb0156d4c2041b8a3bfbcd961cd1567f"
          ],
          "data": "0x00000000000000000000000000000000000000000000000000000000000000600000000000000000000000000000000000000000000000000000000000000120000000000000000000000000c1b621b18187f74c8f6d52a6f709dd2780c098210000000000000000000000000000000000000000000000000000000000000099010000000000000001000076230000000000000000000000001f55a02a049033e3419a8e2975cf3f572f4e6e9a000076340000000000000000000000003ec3849c33291a9ef4c5db86de593eb4a37fde4509abda09851fc60cae133c2a74260d3263e589ac4c55d102c85f9aac2c3b0ae8000000000000000000000000b0e1650a9760e0f383174af042091fc544b8356f000000000000006400000000000000000000000000000000000000000000000000000000000000000000000000001600030100110100000000000000000000000000030d4000000000000000000000",
          "blockHash": "0x87f8c03fb9ab3e8730e4015fc3f5482740879651c496d5b8fd49814d43217e37",
          "blockNumber": "0x51c179",
          "transactionHash": "0xf119f11a5b7f99b2c3c78e3fc29157e83e83e143bb7a0f859f34c4195fa681e3",
          "transactionIndex": "0x1d",
          "logIndex": "0x1e",
          "removed": false
        },
        {
          "address": "0x1f55a02a049033e3419a8e2975cf3f572f4e6e9a",
          "topics": [
            "0x85496b760a4b7f8d66384b9df21b381f5d1b1e79f229a47aaf4c232edc2fe59a",
            "0x09abda09851fc60cae133c2a74260d3263e589ac4c55d102c85f9aac2c3b0ae8",
            "0x000000000000000000000000b0e1650a9760e0f383174af042091fc544b8356f"
          ],
          "data": "0x000000000000000000000000000000000000000000000000000000000000763400000000000000000000000000000000000000000000000000005af3107a400000000000000000000000000000000000000000000000000000005af3107a4000",
          "blockHash": "0x87f8c03fb9ab3e8730e4015fc3f5482740879651c496d5b8fd49814d43217e37",
          "blockNumber": "0x51c179",
          "transactionHash": "0xf119f11a5b7f99b2c3c78e3fc29157e83e83e143bb7a0f859f34c4195fa681e3",
          "transactionIndex": "0x1d",
          "logIndex": "0x1f",
          "removed": false
        }
      ],
      "logsBloom": "0x00040000100000000000000000000000000000000000000000000000001000000000000000000000000008000000000000000000000000000000000000000000000002000000000000000008000000000000000000000000000000000000400000000000020000008000000000000800000000000110080000000010000000000000000000000010000000080000000000000000000000000000000000000000000000008000000000100000000000000000000000400100000440000000000000000002000000000000000080000000010000000000000000004000000020000000040080000000000000000000002000000000018000000040000000000000",
      "type": "0x2",
      "transactionHash": "0xf119f11a5b7f99b2c3c78e3fc29157e83e83e143bb7a0f859f34c4195fa681e3",
      "transactionIndex": "0x1d",
      "blockHash": "0x87f8c03fb9ab3e8730e4015fc3f5482740879651c496d5b8fd49814d43217e37",
      "blockNumber": "0x51c179",
      "gasUsed": "0x4cafa",
      "effectiveGasPrice": "0x98410d",
      "from": "0xb0e1650a9760e0f383174af042091fc544b8356f",
      "to": "0x1f55a02a049033e3419a8e2975cf3f572f4e6e9a",
      "contractAddress": null,
      "l1Fee": "0x65237b045",
      "l1GasPrice": "0x13c3b25f8",
      "l1GasUsed": "0x122c"
    },
    {
      "status": "0x1",
      "cumulativeGasUsed": "0x485e65",
      "logs": [
        {
          "address": "0x909dbde1ebe906af95660033e478d59efe831fed",
          "topics": [
            "0xddf252ad1be2c89b69c2b068fc378daa952ba7f163c4a11628f55a4df523b3ef",
            "0x000000000000000000000000b0e1650a9760e0f383174af042091fc544b8356f",
            "0x0000000000000000000000000000000000000000000000000000000000000000"
          ],
          "data": "0x00000000000000000000000000000000000000000000000000005af3107a4000",
          "blockHash": "0xb2af45f6af4afe9a10aab64c26b967b86783288b708105b519abcb612bcb392d",
          "blockNumber": "0x51c17d",
          "transactionHash": "0x804c5fb79e3b14b7a6e6610df0f81e8df16b312e253cac09a5e2499b74816b08",
          "transactionIndex": "0x20",
          "logIndex": "0x2a",
          "removed": false
        },
        {
          "address": "0xc1b621b18187f74c8f6d52a6f709dd2780c09821",
          "topics": [
            "0x61ed099e74a97a1d7f8bb0952a88ca8b7b8ebd00c126ea04671f92a81213318a"
          ],
          "data": "0x0000000000000000000000004208d6e27538189bb48e603d6123a94b8abe0a0b000000000000000000000000000000000000000000000000000007a60a6c4b99",
          "blockHash": "0xb2af45f6af4afe9a10aab64c26b967b86783288b708105b519abcb612bcb392d",
          "blockNumber": "0x51c17d",
          "transactionHash": "0x804c5fb79e3b14b7a6e6610df0f81e8df16b312e253cac09a5e2499b74816b08",
          "transactionIndex": "0x20",
          "logIndex": "0x2b",
          "removed": false
        },
        {
          "address": "0xc1b621b18187f74c8f6d52a6f709dd2780c09821",
          "topics": [
            "0x07ea52d82345d6e838192107d8fd7123d9c2ec8e916cd0aad13fd2b60db24644"
          ],
          "data": "0x000000000000000000000000000000000000000000000000000000000000006000000000000000000000000000000000000000000000000000000000000000c000000000000000000000000000000000000000000000000000000000000000e0000000000000000000000000000000000000000000000000000000000000000200000000000000000000000070bf42c69173d6e33b834f59630dac592c70b369000000000000000000000000c097ab8cd7b053326dfe9fb3e3a31a0cce3b526f0000000000000000000000000000000000000000000000000000000000000000000000000000000000000000000000000000000000000000000000000000000200000000000000000000000000000000000000000000000000000017f09580f900000000000000000000000000000000000000000000000000000017f09580f9",
          "blockHash": "0xb2af45f6af4afe9a10aab64c26b967b86783288b708105b519abcb612bcb392d",
          "blockNumber": "0x51c17d",
          "transactionHash": "0x804c5fb79e3b14b7a6e6610df0f81e8df16b312e253cac09a5e2499b74816b08",
          "transactionIndex": "0x20",
          "logIndex": "0x2c",
          "removed": false
        },
        {
          "address": "0x1a44076050125825900e736c501f859c50fe728c",
          "topics": [
            "0x1ab700d4ced0c005b164c0f789fd09fcbb0156d4c2041b8a3bfbcd961cd1567f"
          ],
          "data": "0x00000000000000000000000000000000000000000000000000000000000000600000000000000000000000000000000000000000000000000000000000000120000000000000000000000000c1b621b18187f74c8f6d52a6f709dd2780c09821000000000000000000000000000000000000000000000000000000000000009901000000000000000100007623000000000000000000000000909dbde1ebe906af95660033e478d59efe831fed0000763400000000000000000000000080eede496655fb9047dd39d9f418d5483ed600dfb64b22f554b0e62c9c2472ce45aa530c6f32da9d53beed6ebdb5298aed9b366a000000000000000000000000b0e1650a9760e0f383174af042091fc544b8356f000000000000006400000000000000000000000000000000000000000000000000000000000000000000000000001600030100110100000000000000000000000000030d4000000000000000000000",
          "blockHash": "0xb2af45f6af4afe9a10aab64c26b967b86783288b708105b519abcb612bcb392d",
          "blockNumber": "0x51c17d",
          "transactionHash": "0x804c5fb79e3b14b7a6e6610df0f81e8df16b312e253cac09a5e2499b74816b08",
          "transactionIndex": "0x20",
          "logIndex": "0x2d",
          "removed": false
        },
        {
          "address": "0x909dbde1ebe906af95660033e478d59efe831fed",
          "topics": [
            "0x85496b760a4b7f8d66384b9df21b381f5d1b1e79f229a47aaf4c232edc2fe59a",
            "0xb64b22f554b0e62c9c2472ce45aa530c6f32da9d53beed6ebdb5298aed9b366a",
            "0x000000000000000000000000b0e1650a9760e0f383174af042091fc544b8356f"
          ],
          "data": "0x000000000000000000000000000000000000000000000000000000000000763400000000000000000000000000000000000000000000000000005af3107a400000000000000000000000000000000000000000000000000000005af3107a4000",
          "blockHash": "0xb2af45f6af4afe9a10aab64c26b967b86783288b708105b519abcb612bcb392d",
          "blockNumber": "0x51c17d",
          "transactionHash": "0x804c5fb79e3b14b7a6e6610df0f81e8df16b312e253cac09a5e2499b74816b08",
          "transactionIndex": "0x20",
          "logIndex": "0x2e",
          "removed": false
        }
      ],
      "logsBloom": "0x00000000000000000000000002000000000000000000000000000000001000000000000000000000000000000000000000000000002000000000000000000000000002000000000000000008000000000000000000000000000010000000400000000004020000008002000000000800000000000110080000000010000000000000000000000000000000080000000000000000000000000000000000000000000000008000000000100000000000000000000000400000000440000000000000000002000000000000000080000000000000000000000000004000000020000000040080000000008000000000002000000000018000000040000000000000",
      "type": "0x2",
      "transactionHash": "0x804c5fb79e3b14b7a6e6610df0f81e8df16b312e253cac09a5e2499b74816b08",
      "transactionIndex": "0x20",
      "blockHash": "0xb2af45f6af4afe9a10aab64c26b967b86783288b708105b519abcb612bcb392d",
      "blockNumber": "0x51c17d",
      "gasUsed": "0x4cafa",
      "effectiveGasPrice": "0x9873f3",
      "from": "0xb0e1650a9760e0f383174af042091fc544b8356f",
      "to": "0x909dbde1ebe906af95660033e478d59efe831fed",
      "contractAddress": null,
      "l1Fee": "0x71c36625f",
      "l1GasPrice": "0x163b46b7e",
      "l1GasUsed": "0x122c"
    }
  ],
  "libraries": [],
  "pending": [],
  "returns": {},
  "timestamp": 1719525713,
  "chain": 81457,
  "commit": "8c3a4d2"
}