{
  "transactions": [
    {
      "hash": "0x40b4868e69a6ba30806972cabfd8ee24fcb39c5c70de03188c04d6e91decf443",
      "transactionType": "CALL",
      "contractName": null,
      "contractAddress": "0x6a678cefca10d5bbe4638d27c671ce7d56865037",
      "function": "setEnforcedOptions((uint32,uint16,bytes)[])",
      "arguments": [
        "[(40161, 1, 0x00030100110100000000000000000000000000030d40), (40161, 2, 0x0003010011010000000000000000000000000003d090)]"
      ],
      "transaction": {
        "from": "0x0990be6db8c785fbbf9ded8baec612a10cae814b",
        "to": "0x6a678cefca10d5bbe4638d27c671ce7d56865037",
        "gas": "0x1d9d4",
        "value": "0x0",
        "input": "0xb98bd07000000000000000000000000000000000000000000000000000000000000000200000000000000000000000000000000000000000000000000000000000000002000000000000000000000000000000000000000000000000000000000000004000000000000000000000000000000000000000000000000000000000000000e00000000000000000000000000000000000000000000000000000000000009ce100000000000000000000000000000000000000000000000000000000000000010000000000000000000000000000000000000000000000000000000000000060000000000000000000000000000000000000000000000000000000000000001600030100110100000000000000000000000000030d40000000000000000000000000000000000000000000000000000000000000000000000000000000009ce10000000000000000000000000000000000000000000000000000000000000002000000000000000000000000000000000000000000000000000000000000006000000000000000000000000000000000000000000000000000000000000000160003010011010000000000000000000000000003d09000000000000000000000",
        "nonce": "0x0",
        "chainId": "0xa5bd",
        "feeToken": null,
        "calls": [],
        "keyType": null,
        "keyData": null
      },
      "additionalContracts": [],
      "isFixedGasLimit": false
    },
    {
      "hash": "0xe737dea6d0a44dfe75479690ed2582820453eb0b07df25527bf6e5d6928ecddb",
      "transactionType": "CALL",
      "contractName": null,
      "contractAddress": "0x6a678cefca10d5bbe4638d27c671ce7d56865037",
      "function": "setPeer(uint32,bytes32)",
      "arguments": [
        "40161",
        "0x00000000000000000000000029a5134d3b22f47ad52e0a22a63247363e9f35c2"
      ],
      "transaction": {
        "from": "0x0990be6db8c785fbbf9ded8baec612a10cae814b",
        "to": "0x6a678cefca10d5bbe4638d27c671ce7d56865037",
        "gas": "0x139e4",
        "value": "0x0",
        "input": "0x3400288b0000000000000000000000000000000000000000000000000000000000009ce100000000000000000000000029a5134d3b22f47ad52e0a22a63247363e9f35c2",
        "nonce": "0x1",
        "chainId": "0xa5bd",
        "feeToken": null,
        "calls": [],
        "keyType": null,
        "keyData": null
      },
      "additionalContracts": [],
      "isFixedGasLimit": false
    },
    {
      "hash": "0x4cfc7c3374556de94da7a0b3cd6313e4af79fd325bb94e4a879a50d47779db33",
      "transactionType": "CALL",
      "contractName": null,
      "contractAddress": "0x50c21fe63c28191ccdc167961992a63e14393565",
      "function": "setSendLibrary(address,uint32,address)",
      "arguments": [
        "0x6A678cEfcA10d5bBe4638D27C671CE7d56865037",
        "40161",
        "0xB8CFaA12Bf058492Ed6F9c746d1DaCf9356076Bc"
      ],
      "transaction": {
        "from": "0x0990be6db8c785fbbf9ded8baec612a10cae814b",
        "to": "0x50c21fe63c28191ccdc167961992a63e14393565",
        "gas": "0x1378b",
        "value": "0x0",
        "input": "0x9535ff300000000000000000000000006a678cefca10d5bbe4638d27c671ce7d568650370000000000000000000000000000000000000000000000000000000000009ce1000000000000000000000000b8cfaa12bf058492ed6f9c746d1dacf9356076bc",
        "nonce": "0x2",
        "chainId": "0xa5bd",
        "feeToken": null,
        "calls": [],
        "keyType": null,
        "keyData": null
      },
      "additionalContracts": [],
      "isFixedGasLimit": false
    },
    {
      "hash": "0x011f4402cef0c0ff49d4f9b64e5a2b19b71de9e3f27b0c595c4fe6f64254520c",
      "transactionType": "CALL",
      "contractName": null,
      "contractAddress": "0x50c21fe63c28191ccdc167961992a63e14393565",
      "function": "setReceiveLibrary(address,uint32,address,uint256)",
      "arguments": [
        "0x6A678cEfcA10d5bBe4638D27C671CE7d56865037",
        "40161",
        "0x417cb9E12cfe7301c8b6ef8f63ffac55263e147C",
        "0"
      ],
      "transaction": {
        "from": "0x0990be6db8c785fbbf9ded8baec612a10cae814b",
        "to": "0x50c21fe63c28191ccdc167961992a63e14393565",
        "gas": "0x17001",
        "value": "0x0",
        "input": "0x6a14d7150000000000000000000000006a678cefca10d5bbe4638d27c671ce7d568650370000000000000000000000000000000000000000000000000000000000009ce1000000000000000000000000417cb9e12cfe7301c8b6ef8f63ffac55263e147c0000000000000000000000000000000000000000000000000000000000000000",
        "nonce": "0x3",
        "chainId": "0xa5bd",
        "feeToken": null,
        "calls": [],
        "keyType": null,
        "keyData": null
      },
      "additionalContracts": [],
      "isFixedGasLimit": false
    },
    {
      "hash": "0x3e5b0420dee0b21c9cc76f3d8d27715831efa21cc95ba24671fb028ac6921305",
      "transactionType": "CALL",
      "contractName": null,
      "contractAddress": "0x6a678cefca10d5bbe4638d27c671ce7d56865037",
      "function": "setDelegate(address)",
      "arguments": [
        "0x0990be6dB8c785FBbF9deD8bAEc612A10CaE814b"
      ],
      "transaction": {
        "from": "0x0990be6db8c785fbbf9ded8baec612a10cae814b",
        "to": "0x6a678cefca10d5bbe4638d27c671ce7d56865037",
        "gas": "0xda49",
        "value": "0x0",
        "input": "0xca5eb5e10000000000000000000000000990be6db8c785fbbf9ded8baec612a10cae814b",
        "nonce": "0x4",
        "chainId": "0xa5bd",
        "feeToken": null,
        "calls": [],
        "keyType": null,
        "keyData": null
      },
      "additionalContracts": [],
      "isFixedGasLimit": false
    },
    {
      "hash": "0x4c203a11303a317d51e5bdc9aff3667eacc9b5aa3955db8351d886fde0dcca2f",
      "transactionType": "CALL",
      "contractName": null,
      "contractAddress": "0x6a678cefca10d5bbe4638d27c671ce7d56865037",
      "function": "transferOwnership(address)",
      "arguments": [
        "0x0990be6dB8c785FBbF9deD8bAEc612A10CaE814b"
      ],
      "transaction": {
        "from": "0x0990be6db8c785fbbf9ded8baec612a10cae814b",
        "to": "0x6a678cefca10d5bbe4638d27c671ce7d56865037",
        "gas": "0xb2a6",
        "value": "0x0",
        "input": "0xf2fde38b0000000000000000000000000990be6db8c785fbbf9ded8baec612a10cae814b",
        "nonce": "0x5",
        "chainId": "0xa5bd",
        "feeToken": null,
        "calls": [],
        "keyType": null,
        "keyData": null
      },
      "additionalContracts": [],
      "isFixedGasLimit": false
    },
    {
      "hash": "0xb3bdee74c4a960efe6f64df0d71d35597591ee9610a0118694265efa96ab34e1",
      "transactionType": "CALL",
      "contractName": null,
      "contractAddress": "0x223a681fc5c5522c85c96157c0efa18cd6c5405c",
      "function": "transferOwnership(address)",
      "arguments": [
        "0x0990be6dB8c785FBbF9deD8bAEc612A10CaE814b"
      ],
      "transaction": {
        "from": "0x0990be6db8c785fbbf9ded8baec612a10cae814b",
        "to": "0x223a681fc5c5522c85c96157c0efa18cd6c5405c",
        "gas": "0x8b32",
        "value": "0x0",
        "input": "0xf2fde38b0000000000000000000000000990be6db8c785fbbf9ded8baec612a10cae814b",
        "nonce": "0x6",
        "chainId": "0xa5bd",
        "feeToken": null,
        "calls": [],
        "keyType": null,
        "keyData": null
      },
      "additionalContracts": [],
      "isFixedGasLimit": false
    }
  ],
  "receipts": [
    {
      "type": "0x2",
      "status": "0x1",
      "cumulativeGasUsed": "0x299a8b",
      "logs": [
        {
          "address": "0x6a678cefca10d5bbe4638d27c671ce7d56865037",
          "topics": [
            "0xbe4864a8e820971c0247f5992e2da559595f7bf076a21cb5928d443d2a13b674"
          ],
          "data": "0x00000000000000000000000000000000000000000000000000000000000000200000000000000000000000000000000000000000000000000000000000000002000000000000000000000000000000000000000000000000000000000000004000000000000000000000000000000000000000000000000000000000000000e00000000000000000000000000000000000000000000000000000000000009ce100000000000000000000000000000000000000000000000000000000000000010000000000000000000000000000000000000000000000000000000000000060000000000000000000000000000000000000000000000000000000000000001600030100110100000000000000000000000000030d40000000000000000000000000000000000000000000000000000000000000000000000000000000009ce10000000000000000000000000000000000000000000000000000000000000002000000000000000000000000000000000000000000000000000000000000006000000000000000000000000000000000000000000000000000000000000000160003010011010000000000000000000000000003d09000000000000000000000",
          "blockHash": "0x152ec0b2ad51bd0275a121ff2617674f0667c08d8d496e7926b5313dad228631",
          "blockNumber": "0x79573b",
          "blockTimestamp": "0x69543329",
          "transactionHash": "0x4cfc7c3374556de94da7a0b3cd6313e4af79fd325bb94e4a879a50d47779db33",
          "transactionIndex": "0x13",
          "logIndex": "0x34",
          "removed": false
        },
        {
          "address": "0x20c0000000000000000000000000000000000000",
          "topics": [
            "0xddf252ad1be2c89b69c2b068fc378daa952ba7f163c4a11628f55a4df523b3ef",
            "0x0000000000000000000000000990be6db8c785fbbf9ded8baec612a10cae814b",
            "0x000000000000000000000000feec000000000000000000000000000000000000"
          ],
          "data": "0x000000000000000000000000000000000000000000000000000000000000036f",
          "blockHash": "0x152ec0b2ad51bd0275a121ff2617674f0667c08d8d496e7926b5313dad228631",
          "blockNumber": "0x79573b",
          "blockTimestamp": "0x69543329",
          "transactionHash": "0x4cfc7c3374556de94da7a0b3cd6313e4af79fd325bb94e4a879a50d47779db33",
          "transactionIndex": "0x13",
          "logIndex": "0x35",
          "removed": false
        }
      ],
      "logsBloom": "0x00000000000000000000000000000000000000002000000000000000000000000000000000000000000000000100000000000000000000000000400000000000000004000000000000000008400000000000000000000000000000000400000000000000000000000000000000000000000000000000000000000010000000000000000000000000000000000020400000000000800000000000000000080000000020000000000000000000000000000000000800000000000000000000000000080002000000000000000002000000000000000000000000000000000000000000000000000000000000000000000000000000000000000000400000000000",
      "transactionHash": "0x4cfc7c3374556de94da7a0b3cd6313e4af79fd325bb94e4a879a50d47779db33",
      "transactionIndex": "0x13",
      "blockHash": "0x152ec0b2ad51bd0275a121ff2617674f0667c08d8d496e7926b5313dad228631",
      "blockNumber": "0x79573b",
      "gasUsed": "0x1570c",
      "effectiveGasPrice": "0x2540e841e",
      "from": "0x0990be6db8c785fbbf9ded8baec612a10cae814b",
      "to": "0x6a678cefca10d5bbe4638d27c671ce7d56865037",
      "contractAddress": null,
      "feeToken": "0x20c0000000000000000000000000000000000000",
      "feePayer": "0x0990be6db8c785fbbf9ded8baec612a10cae814b"
    },
    {
      "type": "0x2",
      "status": "0x1",
      "cumulativeGasUsed": "0x2a712c",
      "logs": [
        {
          "address": "0x6a678cefca10d5bbe4638d27c671ce7d56865037",
          "topics": [
            "0x238399d427b947898edb290f5ff0f9109849b1c3ba196a42e35f00c50a54b98b"
          ],
          "data": "0x0000000000000000000000000000000000000000000000000000000000009ce100000000000000000000000029a5134d3b22f47ad52e0a22a63247363e9f35c2",
          "blockHash": "0x152ec0b2ad51bd0275a121ff2617674f0667c08d8d496e7926b5313dad228631",
          "blockNumber": "0x79573b",
          "blockTimestamp": "0x69543329",
          "transactionHash": "0xe737dea6d0a44dfe75479690ed2582820453eb0b07df25527bf6e5d6928ecddb",
          "transactionIndex": "0x14",
          "logIndex": "0x36",
          "removed": false
        },
        {
          "address": "0x20c0000000000000000000000000000000000000",
          "topics": [
            "0xddf252ad1be2c89b69c2b068fc378daa952ba7f163c4a11628f55a4df523b3ef",
            "0x0000000000000000000000000990be6db8c785fbbf9ded8baec612a10cae814b",
            "0x000000000000000000000000feec000000000000000000000000000000000000"
          ],
          "data": "0x0000000000000000000000000000000000000000000000000000000000000226",
          "blockHash": "0x152ec0b2ad51bd0275a121ff2617674f0667c08d8d496e7926b5313dad228631",
          "blockNumber": "0x79573b",
          "blockTimestamp": "0x69543329",
          "transactionHash": "0xe737dea6d0a44dfe75479690ed2582820453eb0b07df25527bf6e5d6928ecddb",
          "transactionIndex": "0x14",
          "logIndex": "0x37",
          "removed": false
        }
      ],
      "logsBloom": "0x00000000000000000000000000000000000000002000000000000000000000000000000000000000000000000100000000000000000000000800000000000000000004000000000000000008400000000000000000000000000000000400000000000000000000000000000000000000000000000000000000000010000000000000000000000000000000000020400000000000800000000000000000000000000020000000000000000000000000000000000800000000000002000000000000080002000000000000000000000000000000000000000000040000000000000000000000000000000000000000000000000000000000000000400000000000",
      "transactionHash": "0xe737dea6d0a44dfe75479690ed2582820453eb0b07df25527bf6e5d6928ecddb",
      "transactionIndex": "0x14",
      "blockHash": "0x152ec0b2ad51bd0275a121ff2617674f0667c08d8d496e7926b5313dad228631",
      "blockNumber": "0x79573b",
      "gasUsed": "0xd6a1",
      "effectiveGasPrice": "0x2540e841e",
      "from": "0x0990be6db8c785fbbf9ded8baec612a10cae814b",
      "to": "0x6a678cefca10d5bbe4638d27c671ce7d56865037",
      "contractAddress": null,
      "feeToken": "0x20c0000000000000000000000000000000000000",
      "feePayer": "0x0990be6db8c785fbbf9ded8baec612a10cae814b"
    },
    {
      "type": "0x2",
      "status": "0x1",
      "cumulativeGasUsed": "0x2b52ba",
      "logs": [
        {
          "address": "0x50c21fe63c28191ccdc167961992a63e14393565",
          "topics": [
            "0x4cff966ebee29a156dcb34cf72c1d06231fb1777f6bdf6e8089819232f002b1c"
          ],
          "data": "0x0000000000000000000000006a678cefca10d5bbe4638d27c671ce7d568650370000000000000000000000000000000000000000000000000000000000009ce1000000000000000000000000b8cfaa12bf058492ed6f9c746d1dacf9356076bc",
          "blockHash": "0x152ec0b2ad51bd0275a121ff2617674f0667c08d8d496e7926b5313dad228631",
          "blockNumber": "0x79573b",
          "blockTimestamp": "0x69543329",
          "transactionHash": "0x40b4868e69a6ba30806972cabfd8ee24fcb39c5c70de03188c04d6e91decf443",
          "transactionIndex": "0x15",
          "logIndex": "0x38",
          "removed": false
        },
        {
          "address": "0x20c0000000000000000000000000000000000000",
          "topics": [
            "0xddf252ad1be2c89b69c2b068fc378daa952ba7f163c4a11628f55a4df523b3ef",
            "0x0000000000000000000000000990be6db8c785fbbf9ded8baec612a10cae814b",
            "0x000000000000000000000000feec000000000000000000000000000000000000"
          ],
          "data": "0x0000000000000000000000000000000000000000000000000000000000000242",
          "blockHash": "0x152ec0b2ad51bd0275a121ff2617674f0667c08d8d496e7926b5313dad228631",
          "blockNumber": "0x79573b",
          "blockTimestamp": "0x69543329",
          "transactionHash": "0x40b4868e69a6ba30806972cabfd8ee24fcb39c5c70de03188c04d6e91decf443",
          "transactionIndex": "0x15",
          "logIndex": "0x39",
          "removed": false
        }
      ],
      "logsBloom": "0x00000000000000000000000000000000000200002000000000000000000000000000000000000000000000000100000000000000000000000000000001000000000004000000000000000008400000000000000000000000000000000400000000000000000000000000000000000010000000000000000000000050000000004000000000000000000000000020000000000000800000000000000000000000000020000000000000000000000000000000000000000000000000000000000000000002000000000000000000000000000000000000000000000000000000000040000000000000000000000000000000000000000000000000400000000000",
      "transactionHash": "0x40b4868e69a6ba30806972cabfd8ee24fcb39c5c70de03188c04d6e91decf443",
      "transactionIndex": "0x15",
      "blockHash": "0x152ec0b2ad51bd0275a121ff2617674f0667c08d8d496e7926b5313dad228631",
      "blockNumber": "0x79573b",
      "gasUsed": "0xe18e",
      "effectiveGasPrice": "0x2540e841e",
      "from": "0x0990be6db8c785fbbf9ded8baec612a10cae814b",
      "to": "0x50c21fe63c28191ccdc167961992a63e14393565",
      "contractAddress": null,
      "feeToken": "0x20c0000000000000000000000000000000000000",
      "feePayer": "0x0990be6db8c785fbbf9ded8baec612a10cae814b"
    },
    {
      "type": "0x2",
      "status": "0x1",
      "cumulativeGasUsed": "0x2c4e5b",
      "logs": [
        {
          "address": "0x50c21fe63c28191ccdc167961992a63e14393565",
          "topics": [
            "0xcd6f92f5ac6185a5acfa02c92090746cec64d777269cbcd0ed031e396657a1c2"
          ],
          "data": "0x0000000000000000000000006a678cefca10d5bbe4638d27c671ce7d568650370000000000000000000000000000000000000000000000000000000000009ce1000000000000000000000000417cb9e12cfe7301c8b6ef8f63ffac55263e147c",
          "blockHash": "0x152ec0b2ad51bd0275a121ff2617674f0667c08d8d496e7926b5313dad228631",
          "blockNumber": "0x79573b",
          "blockTimestamp": "0x69543329",
          "transactionHash": "0x011f4402cef0c0ff49d4f9b64e5a2b19b71de9e3f27b0c595c4fe6f64254520c",
          "transactionIndex": "0x16",
          "logIndex": "0x3a",
          "removed": false
        },
        {
          "address": "0x50c21fe63c28191ccdc167961992a63e14393565",
          "topics": [
            "0x4e0a5bbfa0c11a64effb1ada324b5437a17272e1aed9320398715ef71bb20928"
          ],
          "data": "0x0000000000000000000000006a678cefca10d5bbe4638d27c671ce7d568650370000000000000000000000000000000000000000000000000000000000009ce100000000000000000000000000000000000000000000000000000000000000000000000000000000000000000000000000000000000000000000000000000000",
          "blockHash": "0x152ec0b2ad51bd0275a121ff2617674f0667c08d8d496e7926b5313dad228631",
          "blockNumber": "0x79573b",
          "blockTimestamp": "0x69543329",
          "transactionHash": "0x011f4402cef0c0ff49d4f9b64e5a2b19b71de9e3f27b0c595c4fe6f64254520c",
          "transactionIndex": "0x16",
          "logIndex": "0x3b",
          "removed": false
        },
        {
          "address": "0x20c0000000000000000000000000000000000000",
          "topics": [
            "0xddf252ad1be2c89b69c2b068fc378daa952ba7f163c4a11628f55a4df523b3ef",
            "0x0000000000000000000000000990be6db8c785fbbf9ded8baec612a10cae814b",
            "0x000000000000000000000000feec000000000000000000000000000000000000"
          ],
          "data": "0x0000000000000000000000000000000000000000000000000000000000000285",
          "blockHash": "0x152ec0b2ad51bd0275a121ff2617674f0667c08d8d496e7926b5313dad228631",
          "blockNumber": "0x79573b",
          "blockTimestamp": "0x69543329",
          "transactionHash": "0x011f4402cef0c0ff49d4f9b64e5a2b19b71de9e3f27b0c595c4fe6f64254520c",
          "transactionIndex": "0x16",
          "logIndex": "0x3c",
          "removed": false
        }
      ],
      "logsBloom": "0x00000000000000000000020800000000000000002000000000000000000000020400000000000000000000000100000000000000000000000000000000000000000004000000000000000008400000000000000000800000000000000400000000000000000000000000000000000010000000000000000000000050000000104000000000000000000000000020000000000000800000000000000000000000000020000000000000000000000000000000000000000000000000000000000000000002000000000000000000000000000000000000000000000000000000000000000000000000000000000000000000000000000000000000400000000000",
      "transactionHash": "0x011f4402cef0c0ff49d4f9b64e5a2b19b71de9e3f27b0c595c4fe6f64254520c",
      "transactionIndex": "0x16",
      "blockHash": "0x152ec0b2ad51bd0275a121ff2617674f0667c08d8d496e7926b5313dad228631",
      "blockNumber": "0x79573b",
      "gasUsed": "0xfba1",
      "effectiveGasPrice": "0x2540e841e",
      "from": "0x0990be6db8c785fbbf9ded8baec612a10cae814b",
      "to": "0x50c21fe63c28191ccdc167961992a63e14393565",
      "contractAddress": null,
      "feeToken": "0x20c0000000000000000000000000000000000000",
      "feePayer": "0x0990be6db8c785fbbf9ded8baec612a10cae814b"
    },
    {
      "type": "0x2",
      "status": "0x1",
      "cumulativeGasUsed": "0x2ce39d",
      "logs": [
        {
          "address": "0x50c21fe63c28191ccdc167961992a63e14393565",
          "topics": [
            "0x6ee10e9ed4d6ce9742703a498707862f4b00f1396a87195eb93267b3d7983981"
          ],
          "data": "0x0000000000000000000000006a678cefca10d5bbe4638d27c671ce7d568650370000000000000000000000000990be6db8c785fbbf9ded8baec612a10cae814b",
          "blockHash": "0x152ec0b2ad51bd0275a121ff2617674f0667c08d8d496e7926b5313dad228631",
          "blockNumber": "0x79573b",
          "blockTimestamp": "0x69543329",
          "transactionHash": "0xb3bdee74c4a960efe6f64df0d71d35597591ee9610a0118694265efa96ab34e1",
          "transactionIndex": "0x17",
          "logIndex": "0x3d",
          "removed": false
        },
        {
          "address": "0x20c0000000000000000000000000000000000000",
          "topics": [
            "0xddf252ad1be2c89b69c2b068fc378daa952ba7f163c4a11628f55a4df523b3ef",
            "0x0000000000000000000000000990be6db8c785fbbf9ded8baec612a10cae814b",
            "0x000000000000000000000000feec000000000000000000000000000000000000"
          ],
          "data": "0x000000000000000000000000000000000000000000000000000000000000017f",
          "blockHash": "0x152ec0b2ad51bd0275a121ff2617674f0667c08d8d496e7926b5313dad228631",
          "blockNumber": "0x79573b",
          "blockTimestamp": "0x69543329",
          "transactionHash": "0xb3bdee74c4a960efe6f64df0d71d35597591ee9610a0118694265efa96ab34e1",
          "transactionIndex": "0x17",
          "logIndex": "0x3e",
          "removed": false
        }
      ],
      "logsBloom": "0x00000000000000000000000000000000000000002000000000800000000000000000000000000000000000000100000000000002000000000000000000000000000004000000000000000008400000000000000000000000000000000400000000000000000000000000000000000010000000000000000000000050000000004000000000000000000000000020000000000000800000000000000000000000000020000000000000000000000000000000000000000000000000000000000400000002000000000000000000000000000000000000000000000000000000000000000000000000000000000000000000000000000000000000400000000000",
      "transactionHash": "0xb3bdee74c4a960efe6f64df0d71d35597591ee9610a0118694265efa96ab34e1",
      "transactionIndex": "0x17",
      "blockHash": "0x152ec0b2ad51bd0275a121ff2617674f0667c08d8d496e7926b5313dad228631",
      "blockNumber": "0x79573b",
      "gasUsed": "0x9542",
      "effectiveGasPrice": "0x2540e841e",
      "from": "0x0990be6db8c785fbbf9ded8baec612a10cae814b",
      "to": "0x6a678cefca10d5bbe4638d27c671ce7d56865037",
      "contractAddress": null,
      "feeToken": "0x20c0000000000000000000000000000000000000",
      "feePayer": "0x0990be6db8c785fbbf9ded8baec612a10cae814b"
    },
    {
      "type": "0x2",
      "status": "0x1",
      "cumulativeGasUsed": "0x2d64f4",
      "logs": [
        {
          "address": "0x6a678cefca10d5bbe4638d27c671ce7d56865037",
          "topics": [
            "0x8be0079c531659141344cd1fd0a4f28419497f9722a3daafe3b4186f6b6457e0",
            "0x0000000000000000000000000990be6db8c785fbbf9ded8baec612a10cae814b",
            "0x0000000000000000000000000990be6db8c785fbbf9ded8baec612a10cae814b"
          ],
          "data": "0x",
          "blockHash": "0x152ec0b2ad51bd0275a121ff2617674f0667c08d8d496e7926b5313dad228631",
          "blockNumber": "0x79573b",
          "blockTimestamp": "0x69543329",
          "transactionHash": "0x3e5b0420dee0b21c9cc76f3d8d27715831efa21cc95ba24671fb028ac6921305",
          "transactionIndex": "0x18",
          "logIndex": "0x3f",
          "removed": false
        },
        {
          "address": "0x20c0000000000000000000000000000000000000",
          "topics": [
            "0xddf252ad1be2c89b69c2b068fc378daa952ba7f163c4a11628f55a4df523b3ef",
            "0x0000000000000000000000000990be6db8c785fbbf9ded8baec612a10cae814b",
            "0x000000000000000000000000feec000000000000000000000000000000000000"
          ],
          "data": "0x000000000000000000000000000000000000000000000000000000000000014c",
          "blockHash": "0x152ec0b2ad51bd0275a121ff2617674f0667c08d8d496e7926b5313dad228631",
          "blockNumber": "0x79573b",
          "blockTimestamp": "0x69543329",
          "transactionHash": "0x3e5b0420dee0b21c9cc76f3d8d27715831efa21cc95ba24671fb028ac6921305",
          "transactionIndex": "0x18",
          "logIndex": "0x40",
          "removed": false
        }
      ],
      "logsBloom": "0x00000000000000000000000000000000000000002000000000800000000000000000000000000000000000000100000000000000000000000000000000000000000004000000000000000008400000000001000000000000000000000400000000000000000000000000000000000000000000000000000000000010000000400000000000000000000000000020400000000000800000000000000000000000000020000000000000000000000000000000000800000000000000000000000000080002000000000000000000000000000000000000000000000000000000000000000000000000000000000000000000000000000000000000400000000000",
      "transactionHash": "0x3e5b0420dee0b21c9cc76f3d8d27715831efa21cc95ba24671fb028ac6921305",
      "transactionIndex": "0x18",
      "blockHash": "0x152ec0b2ad51bd0275a121ff2617674f0667c08d8d496e7926b5313dad228631",
      "blockNumber": "0x79573b",
      "gasUsed": "0x8157",
      "effectiveGasPrice": "0x2540e841e",
      "from": "0x0990be6db8c785fbbf9ded8baec612a10cae814b",
      "to": "0x6a678cefca10d5bbe4638d27c671ce7d56865037",
      "contractAddress": null,
      "feeToken": "0x20c0000000000000000000000000000000000000",
      "feePayer": "0x0990be6db8c785fbbf9ded8baec612a10cae814b"
    },
    {
      "type": "0x2",
      "status": "0x1",
      "cumulativeGasUsed": "0x2dc9bb",
      "logs": [
        {
          "address": "0x223a681fc5c5522c85c96157c0efa18cd6c5405c",
          "topics": [
            "0x8be0079c531659141344cd1fd0a4f28419497f9722a3daafe3b4186f6b6457e0",
            "0x0000000000000000000000000990be6db8c785fbbf9ded8baec612a10cae814b",
            "0x0000000000000000000000000990be6db8c785fbbf9ded8baec612a10cae814b"
          ],
          "data": "0x",
          "blockHash": "0x152ec0b2ad51bd0275a121ff2617674f0667c08d8d496e7926b5313dad228631",
          "blockNumber": "0x79573b",
          "blockTimestamp": "0x69543329",
          "transactionHash": "0x4c203a11303a317d51e5bdc9aff3667eacc9b5aa3955db8351d886fde0dcca2f",
          "transactionIndex": "0x19",
          "logIndex": "0x41",
          "removed": false
        },
        {
          "address": "0x20c0000000000000000000000000000000000000",
          "topics": [
            "0xddf252ad1be2c89b69c2b068fc378daa952ba7f163c4a11628f55a4df523b3ef",
            "0x0000000000000000000000000990be6db8c785fbbf9ded8baec612a10cae814b",
            "0x000000000000000000000000feec000000000000000000000000000000000000"
          ],
          "data": "0x0000000000000000000000000000000000000000000000000000000000000102",
          "blockHash": "0x152ec0b2ad51bd0275a121ff2617674f0667c08d8d496e7926b5313dad228631",
          "blockNumber": "0x79573b",
          "blockTimestamp": "0x69543329",
          "transactionHash": "0x4c203a11303a317d51e5bdc9aff3667eacc9b5aa3955db8351d886fde0dcca2f",
          "transactionIndex": "0x19",
          "logIndex": "0x42",
          "removed": false
        }
      ],
      "logsBloom": "0x00000000000000000000000000000000000000002000000000800000000000000000000000000000000000000100000000000000000000000000000000200000000004000000000000000008400000000001000000000000000000020400000000000000000000000000000000000000000000000000000000000010000000400000000000000000000000000020000000000000800000000000000000000000000020000000000000000000000000000000000000000000000000000000000000000002000000000000000000000000000000000000000000000000000000000000000000000000000000000000000200000000000000000000400000000000",
      "transactionHash": "0x4c203a11303a317d51e5bdc9aff3667eacc9b5aa3955db8351d886fde0dcca2f",
      "transactionIndex": "0x19",
      "blockHash": "0x152ec0b2ad51bd0275a121ff2617674f0667c08d8d496e7926b5313dad228631",
      "blockNumber": "0x79573b",
      "gasUsed": "0x64c7",
      "effectiveGasPrice": "0x2540e841e",
      "from": "0x0990be6db8c785fbbf9ded8baec612a10cae814b",
      "to": "0x223a681fc5c5522c85c96157c0efa18cd6c5405c",
      "contractAddress": null,
      "feeToken": "0x20c0000000000000000000000000000000000000",
      "feePayer": "0x0990be6db8c785fbbf9ded8baec612a10cae814b"
    }
  ],
  "libraries": [],
  "pending": [],
  "returns": {},
  "timestamp": 1767125803831,
  "chain": 42429,
  "commit": "02ede4a"
}