{
  "transactions": [
    {
      "hash": "0xe49747610d8372a83a5272436b1f9ce6fed6307f338664ffbfcccb9aaa5b2462",
      "transactionType": "CALL",
      "contractName": null,
      "contractAddress": "0x45682729bdc0f68e7a02e76e9cfda57d0cd4d20b",
      "function": "upgradeTo(address)",
      "arguments": [
        "0x9D0FEe988A8134Db109c587DB047761904A34B5b"
      ],
      "transaction": {
        "from": "0xb0e1650a9760e0f383174af042091fc544b8356f",
        "to": "0x45682729bdc0f68e7a02e76e9cfda57d0cd4d20b",
        "gas": "0xbc67",
        "value": "0x0",
        "input": "0x3659cfe60000000000000000000000009d0fee988a8134db109c587db047761904a34b5b",
        "nonce": "0xf",
        "chainId": "0xc4"
      },
      "additionalContracts": [],
      "isFixedGasLimit": false
    }
  ],
  "receipts": [
    {
      "status": "0x1",
      "cumulativeGasUsed": "0x80d3",
      "logs": [
        {
          "address": "0x45682729bdc0f68e7a02e76e9cfda57d0cd4d20b",
          "topics": [
            "0xbc7cd75a20ee27fd9adebab32041f755214dbc6bffa90cc0225b39da2e5c2d3b",
            "0x0000000000000000000000009d0fee988a8134db109c587db047761904a34b5b"
          ],
          "data": "0x",
          "blockHash": "0xec0e497fc8bbe7f19793c426b83829a2129a1e704b46251c7a45aef152f4a5bb",
          "blockNumber": "0x72f501",
          "transactionHash": "0xe49747610d8372a83a5272436b1f9ce6fed6307f338664ffbfcccb9aaa5b2462",
          "transactionIndex": "0x0",
          "logIndex": "0x0",
          "removed": false
        }
      ],
      "logsBloom": "0x00000000000000000010000000000000400000000000000000000000000000000000000000000000000000000000000000000000000000000000000000000000000000000000000000000000000002000000000000000000000000000000000000000000000000000000000000000000000000000000001000000000000000000000000000000000000000000000000400000000000000000000000200000000000000000000000000000000000000000000000000000000000000000000000000000020000000000000000000000000000000000000000000000000000000000040000000000000000000001000000000000000000000000000000000000000",
      "type": "0x0",
      "transactionHash": "0xe49747610d8372a83a5272436b1f9ce6fed6307f338664ffbfcccb9aaa5b2462",
      "transactionIndex": "0x0",
      "blockHash": "0xec0e497fc8bbe7f19793c426b83829a2129a1e704b46251c7a45aef152f4a5bb",
      "blockNumber": "0x72f501",
      "gasUsed": "0x80d3",
      "effectiveGasPrice": "0x239396f80",
      "from": "0xb0e1650a9760e0f383174af042091fc544b8356f",
      "to": "0x45682729bdc0f68e7a02e76e9cfda57d0cd4d20b",
      "contractAddress": null
    }
  ],
  "libraries": [],
  "pending": [],
  "returns": {},
  "timestamp": 1734551385,
  "chain": 196,
  "commit": "cb8ebc4"
}