{
  "transactions": [
    {
      "hash": "0x77eb2d91a12ccd6ff35bfb10d86e1414a6930d735002d48ad3c3635a83109e87",
      "transactionType": "CALL",
      "contractName": null,
      "contractAddress": "0x64445f0aecc51e94ad52d8ac56b7190e764e561a",
      "function": "mint(address,uint256)",
      "arguments": [
        "0x7e864fDcBcdf9c588232B8fB4bB891FD6df36700",
        "1000000000000000000000000"
      ],
      "transaction": {
        "from": "0x0990be6db8c785fbbf9ded8baec612a10cae814b",
        "to": "0x64445f0aecc51e94ad52d8ac56b7190e764e561a",
        "gas": "0x1a4b5",
        "value": "0x0",
        "input": "0x40c10f190000000000000000000000007e864fdcbcdf9c588232b8fb4bb891fd6df3670000000000000000000000000000000000000000000000d3c21bcecceda1000000",
        "nonce": "0x5",
        "chainId": "0x899"
      },
      "additionalContracts": [],
      "isFixedGasLimit": false
    }
  ],
  "receipts": [
    {
      "status": "0x1",
      "cumulativeGasUsed": "0x13096",
      "logs": [
        {
          "address": "0x64445f0aecc51e94ad52d8ac56b7190e764e561a",
          "topics": [
            "0xddf252ad1be2c89b69c2b068fc378daa952ba7f163c4a11628f55a4df523b3ef",
            "0x0000000000000000000000000000000000000000000000000000000000000000",
            "0x0000000000000000000000007e864fdcbcdf9c588232b8fb4bb891fd6df36700"
          ],
          "data": "0x00000000000000000000000000000000000000000000d3c21bcecceda1000000",
          "blockHash": "0xf2b423f60d7b6c81d6b4f808758dcb708dfa6aa60a47af4aa33cc00e4acf3555",
          "blockNumber": "0x1d6485d",
          "transactionHash": "0x77eb2d91a12ccd6ff35bfb10d86e1414a6930d735002d48ad3c3635a83109e87",
          "transactionIndex": "0x0",
          "logIndex": "0x0",
          "removed": false
        }
      ],
      "logsBloom": "0x00000000000000000000000000000000000000000000000000008000000000000000000200000000000000000000000000000000000000000000000000000000002000000000000000000008000000000000000000000000000000000000000000000000020000000000000000000800000000000000000000000010000000000000000000000000000000000000000000000000000000000000000000000000000000000000000000000008000000000000000008000000000000000000000000000002000000000000000000000000000000000000000000000000000020000000000000000000000000000000000000000008000000000000000000000000",
      "type": "0x2",
      "transactionHash": "0x77eb2d91a12ccd6ff35bfb10d86e1414a6930d735002d48ad3c3635a83109e87",
      "transactionIndex": "0x0",
      "blockHash": "0xf2b423f60d7b6c81d6b4f808758dcb708dfa6aa60a47af4aa33cc00e4acf3555",
      "blockNumber": "0x1d6485d",
      "gasUsed": "0x13096",
      "effectiveGasPrice": "0x3b9aca01",
      "from": "0x0990be6db8c785fbbf9ded8baec612a10cae814b",
      "to": "0x64445f0aecc51e94ad52d8ac56b7190e764e561a",
      "contractAddress": null
    }
  ],
  "libraries": [],
  "pending": [],
  "returns": {},
  "timestamp": 1761254644937,
  "chain": 2201,
  "commit": "60f577b"
}