{
  "transactions": [
    {
      "hash": "0x7832fa38295e9c1155f492ad37fbed877c8c6b58bb38d7eda8d4ab2768b6f24c",
      "transactionType": "CALL",
      "contractName": null,
      "contractAddress": "0x458edf815687e48354909a1a848f2528e1655764",
      "function": "setEnforcedOptions((uint32,uint16,bytes)[])",
      "arguments": [
        "[(30410, 1, 0x000301001101000000000000000000000000001e8480), (30410, 2, 0x000301001101000000000000000000000000002625a0)]"
      ],
      "transaction": {
        "from": "0x45dce8e4f2dc005a5f28206a46cb034697eeda8e",
        "to": "0x458edf815687e48354909a1a848f2528e1655764",
        "gas": "0x1214e",
        "value": "0x0",
        "input": "0xb98bd07000000000000000000000000000000000000000000000000000000000000000200000000000000000000000000000000000000000000000000000000000000002000000000000000000000000000000000000000000000000000000000000004000000000000000000000000000000000000000000000000000000000000000e000000000000000000000000000000000000000000000000000000000000076ca000000000000000000000000000000000000000000000000000000000000000100000000000000000000000000000000000000000000000000000000000000600000000000000000000000000000000000000000000000000000000000000016000301001101000000000000000000000000001e84800000000000000000000000000000000000000000000000000000000000000000000000000000000076ca000000000000000000000000000000000000000000000000000000000000000200000000000000000000000000000000000000000000000000000000000000600000000000000000000000000000000000000000000000000000000000000016000301001101000000000000000000000000002625a000000000000000000000",
        "nonce": "0x114",
        "chainId": "0xfc"
      },
      "additionalContracts": [],
      "isFixedGasLimit": false
    }
  ],
  "receipts": [
    {
      "status": "0x1",
      "cumulativeGasUsed": "0x20c34",
      "logs": [
        {
          "address": "0x458edf815687e48354909a1a848f2528e1655764",
          "topics": [
            "0xbe4864a8e820971c0247f5992e2da559595f7bf076a21cb5928d443d2a13b674"
          ],
          "data": "0x00000000000000000000000000000000000000000000000000000000000000200000000000000000000000000000000000000000000000000000000000000002000000000000000000000000000000000000000000000000000000000000004000000000000000000000000000000000000000000000000000000000000000e000000000000000000000000000000000000000000000000000000000000076ca000000000000000000000000000000000000000000000000000000000000000100000000000000000000000000000000000000000000000000000000000000600000000000000000000000000000000000000000000000000000000000000016000301001101000000000000000000000000001e84800000000000000000000000000000000000000000000000000000000000000000000000000000000076ca000000000000000000000000000000000000000000000000000000000000000200000000000000000000000000000000000000000000000000000000000000600000000000000000000000000000000000000000000000000000000000000016000301001101000000000000000000000000002625a000000000000000000000",
          "blockHash": "0xaa72d919a955a8a30df195a74de52c2bcdf938cf11515a7557507fa94d16fcbf",
          "blockNumber": "0x1ee7c27",
          "blockTimestamp": "0x6998d5a5",
          "transactionHash": "0x7832fa38295e9c1155f492ad37fbed877c8c6b58bb38d7eda8d4ab2768b6f24c",
          "transactionIndex": "0x1",
          "logIndex": "0x1",
          "removed": false
        }
      ],
      "logsBloom": "0x00000000000000000000000000000000000000000000000000000000000000000000000000000000000000000000000000000000000000000000400000000000000000000000000000000000000000000000000000000000000000000000000000000000000000000000000000000000000000000040000000000000000000000000000000000000000000000000000000000000000000000000000040080000000004000000000000000000000000000000000000000000000000000000000000000000000000000000000002000000000000000000000000000000000000000000000000000000000000000000000000000000000000000000000000000000",
      "type": "0x2",
      "transactionHash": "0x7832fa38295e9c1155f492ad37fbed877c8c6b58bb38d7eda8d4ab2768b6f24c",
      "transactionIndex": "0x1",
      "blockHash": "0xaa72d919a955a8a30df195a74de52c2bcdf938cf11515a7557507fa94d16fcbf",
      "blockNumber": "0x1ee7c27",
      "gasUsed": "0xd174",
      "effectiveGasPrice": "0xf433e",
      "from": "0x45dce8e4f2dc005a5f28206a46cb034697eeda8e",
      "to": "0x458edf815687e48354909a1a848f2528e1655764",
      "contractAddress": null,
      "l1BaseFeeScalar": "0x2faf080",
      "l1BlobBaseFee": "0x24cec6",
      "l1BlobBaseFeeScalar": "0x0",
      "l1Fee": "0x3a9a5fb8e20",
      "l1GasPrice": "0x23d95c4",
      "l1GasUsed": "0x85e"
    }
  ],
  "libraries": [],
  "pending": [],
  "returns": {},
  "timestamp": 1771623845068,
  "chain": 252,
  "commit": "8ac33df"
}