{
  "transactions": [
    {
      "hash": "0x9c027a48ffa84009392918246e3cf824684bc4f5d2a665334cc4d9b33d7899ee",
      "transactionType": "CALL",
      "contractName": null,
      "contractAddress": "0x741f0d8bde14140f62107fc60a0ee122b37d4630",
      "function": "batchBridgeWithEthFeeFromWallet((uint32,bytes32,uint256,uint256,bytes,bytes,bytes)[],address[],address[])",
      "arguments": [
        "[(30410, 0x000000000000000000000000741f0d8bde14140f62107fc60a0ee122b37d4630, 10000000000000000000, 0, 0x, 0x, 0x)]",
        "[0x57558Cb8d6005DE0BAe8a2789d5EfaaE52dba5a8]",
        "[0x741F0d8Bde14140f62107FC60A0EE122B37D4630]"
      ],
      "transaction": {
        "from": "0x45dce8e4f2dc005a5f28206a46cb034697eeda8e",
        "to": "0x741f0d8bde14140f62107fc60a0ee122b37d4630",
        "gas": "0x865da",
        "value": "0x17f3c3f78a26140",
        "input": "0xb70d4241000000000000000000000000000000000000000000000000000000000000006000000000000000000000000000000000000000000000000000000000000001e000000000000000000000000000000000000000000000000000000000000002200000000000000000000000000000000000000000000000000000000000000001000000000000000000000000000000000000000000000000000000000000002000000000000000000000000000000000000000000000000000000000000076ca000000000000000000000000741f0d8bde14140f62107fc60a0ee122b37d46300000000000000000000000000000000000000000000000008ac7230489e80000000000000000000000000000000000000000000000000000000000000000000000000000000000000000000000000000000000000000000000000000000000e000000000000000000000000000000000000000000000000000000000000001000000000000000000000000000000000000000000000000000000000000000120000000000000000000000000000000000000000000000000000000000000000000000000000000000000000000000000000000000000000000000000000000000000000000000000000000000000000000000000000000000000000000000000000000000000000000000000000000000000000000000000000000000000000100000000000000000000000057558cb8d6005de0bae8a2789d5efaae52dba5a80000000000000000000000000000000000000000000000000000000000000001000000000000000000000000741f0d8bde14140f62107fc60a0ee122b37d4630",
        "nonce": "0x11c",
        "chainId": "0xfc"
      },
      "additionalContracts": [],
      "isFixedGasLimit": false
    }
  ],
  "receipts": [
    {
      "status": "0x1",
      "cumulativeGasUsed": "0x6d164",
      "logs": [
        {
          "address": "0x57558cb8d6005de0bae8a2789d5efaae52dba5a8",
          "topics": [
            "0xddf252ad1be2c89b69c2b068fc378daa952ba7f163c4a11628f55a4df523b3ef",
            "0x000000000000000000000000741f0d8bde14140f62107fc60a0ee122b37d4630",
            "0x0000000000000000000000000000000000000000000000000000000000000000"
          ],
          "data": "0x0000000000000000000000000000000000000000000000008ac7230489e80000",
          "blockHash": "0x5278caa3b714a77cc68616a475cd10d15057523b2cf04046bc7532b6f6483433",
          "blockNumber": "0x1f1ed51",
          "blockTimestamp": "0x699fb7f9",
          "transactionHash": "0x9c027a48ffa84009392918246e3cf824684bc4f5d2a665334cc4d9b33d7899ee",
          "transactionIndex": "0x1",
          "logIndex": "0x0",
          "removed": false
        },
        {
          "address": "0x377530cda84dfb2673bf4d145dcf0c4d7fdcb5b6",
          "topics": [
            "0x61ed099e74a97a1d7f8bb0952a88ca8b7b8ebd00c126ea04671f92a81213318a"
          ],
          "data": "0x00000000000000000000000041bdb4aa4a63a5b2efc531858d3118392b1a1c3d000000000000000000000000000000000000000000000000015c516a69742de2",
          "blockHash": "0x5278caa3b714a77cc68616a475cd10d15057523b2cf04046bc7532b6f6483433",
          "blockNumber": "0x1f1ed51",
          "blockTimestamp": "0x699fb7f9",
          "transactionHash": "0x9c027a48ffa84009392918246e3cf824684bc4f5d2a665334cc4d9b33d7899ee",
          "transactionIndex": "0x1",
          "logIndex": "0x1",
          "removed": false
        },
        {
          "address": "0x377530cda84dfb2673bf4d145dcf0c4d7fdcb5b6",
          "topics": [
            "0x07ea52d82345d6e838192107d8fd7123d9c2ec8e916cd0aad13fd2b60db24644"
          ],
          "data": "0x000000000000000000000000000000000000000000000000000000000000006000000000000000000000000000000000000000000000000000000000000000e00000000000000000000000000000000000000000000000000000000000000100000000000000000000000000000000000000000000000000000000000000000300000000000000000000000026cd5abadf7ec3f0f02b48314bfca6b2342cddd4000000000000000000000000cce466a522984415bc91338c232d98869193d46e000000000000000000000000dd7b5e1db4aafd5c8ec3b764efb8ed265aa5445b00000000000000000000000000000000000000000000000000000000000000000000000000000000000000000000000000000000000000000000000000000003000000000000000000000000000000000000000000000000000bf5f629bcd31c000000000000000000000000000000000000000000000000000b7a6f72b8b021000000000000000000000000000000000000000000000000000b7a6f72b8b021",
          "blockHash": "0x5278caa3b714a77cc68616a475cd10d15057523b2cf04046bc7532b6f6483433",
          "blockNumber": "0x1f1ed51",
          "blockTimestamp": "0x699fb7f9",
          "transactionHash": "0x9c027a48ffa84009392918246e3cf824684bc4f5d2a665334cc4d9b33d7899ee",
          "transactionIndex": "0x1",
          "logIndex": "0x2",
          "removed": false
        },
        {
          "address": "0x1a44076050125825900e736c501f859c50fe728c",
          "topics": [
            "0x1ab700d4ced0c005b164c0f789fd09fcbb0156d4c2041b8a3bfbcd961cd1567f"
          ],
          "data": "0x00000000000000000000000000000000000000000000000000000000000000600000000000000000000000000000000000000000000000000000000000000120000000000000000000000000377530cda84dfb2673bf4d145dcf0c4d7fdcb5b600000000000000000000000000000000000000000000000000000000000000990100000000000000040000762f00000000000000000000000057558cb8d6005de0bae8a2789d5efaae52dba5a8000076ca00000000000000000000000057558cb8d6005de0bae8a2789d5efaae52dba5a8081f5447267be8b77b8c4c0efe63c5acf72b001b4a27c472a569388dc3c5fe03000000000000000000000000741f0d8bde14140f62107fc60a0ee122b37d46300000000000989680000000000000000000000000000000000000000000000000000000000000000000000000000016000301001101000000000000000000000000001e848000000000000000000000",
          "blockHash": "0x5278caa3b714a77cc68616a475cd10d15057523b2cf04046bc7532b6f6483433",
          "blockNumber": "0x1f1ed51",
          "blockTimestamp": "0x699fb7f9",
          "transactionHash": "0x9c027a48ffa84009392918246e3cf824684bc4f5d2a665334cc4d9b33d7899ee",
          "transactionIndex": "0x1",
          "logIndex": "0x3",
          "removed": false
        },
        {
          "address": "0x57558cb8d6005de0bae8a2789d5efaae52dba5a8",
          "topics": [
            "0x85496b760a4b7f8d66384b9df21b381f5d1b1e79f229a47aaf4c232edc2fe59a",
            "0x081f5447267be8b77b8c4c0efe63c5acf72b001b4a27c472a569388dc3c5fe03",
            "0x000000000000000000000000741f0d8bde14140f62107fc60a0ee122b37d4630"
          ],
          "data": "0x00000000000000000000000000000000000000000000000000000000000076ca0000000000000000000000000000000000000000000000008ac7230489e800000000000000000000000000000000000000000000000000008ac7230489e80000",
          "blockHash": "0x5278caa3b714a77cc68616a475cd10d15057523b2cf04046bc7532b6f6483433",
          "blockNumber": "0x1f1ed51",
          "blockTimestamp": "0x699fb7f9",
          "transactionHash": "0x9c027a48ffa84009392918246e3cf824684bc4f5d2a665334cc4d9b33d7899ee",
          "transactionIndex": "0x1",
          "logIndex": "0x4",
          "removed": false
        }
      ],
      "logsBloom": "0x0000000000000000000000000004004000000000000000000000000000100000000000000000000000000000000000040004010000000000000000000000000000000200000000000000000800000000000000000000000000000000000000000000000002000000800000000000080000000000001000080000041000000000000000000000000000000008000000000000000000000000000000000000000000000000a000001000100000000000000000000000400000000440000004000000000002000000000000000080000000000000000000000800000000000020000001040000000000000000000000002000000000018000000000000000000000",
      "type": "0x2",
      "transactionHash": "0x9c027a48ffa84009392918246e3cf824684bc4f5d2a665334cc4d9b33d7899ee",
      "transactionIndex": "0x1",
      "blockHash": "0x5278caa3b714a77cc68616a475cd10d15057523b2cf04046bc7532b6f6483433",
      "blockNumber": "0x1f1ed51",
      "gasUsed": "0x61475",
      "effectiveGasPrice": "0x8356c038",
      "from": "0x45dce8e4f2dc005a5f28206a46cb034697eeda8e",
      "to": "0x741f0d8bde14140f62107fc60a0ee122b37d4630",
      "contractAddress": null,
      "l1BaseFeeScalar": "0x2faf080",
      "l1BlobBaseFee": "0x262e3c",
      "l1BlobBaseFeeScalar": "0x0",
      "l1Fee": "0x4bb3ae9bd4f",
      "l1GasPrice": "0x2734eb2",
      "l1GasUsed": "0x9e2"
    }
  ],
  "libraries": [],
  "pending": [],
  "returns": {},
  "timestamp": 1772075002738,
  "chain": 252,
  "commit": "08af8e5"
}