{
  "transactions": [
    {
      "hash": "0x725bfe6fb4ed8d428f3bfc53267a47c509574dcf2cf0b12fdd60d00b7a5bd573",
      "transactionType": "CALL",
      "contractName": null,
      "contractAddress": "0x741f0d8bde14140f62107fc60a0ee122b37d4630",
      "function": "batchBridgeWithEthFeeFromWallet((uint32,bytes32,uint256,uint256,bytes,bytes,bytes)[],address[],address[])",
      "arguments": [
        "[(30211, 0x0000000000000000000000004a767e2ef83577225522ef8ed71056c6e3acb216, 1000000000000000000, 0, 0x, 0x, 0x)]",
        "[0x57558Cb8d6005DE0BAe8a2789d5EfaaE52dba5a8]",
        "[0x741F0d8Bde14140f62107FC60A0EE122B37D4630]"
      ],
      "transaction": {
        "from": "0x45dce8e4f2dc005a5f28206a46cb034697eeda8e",
        "to": "0x741f0d8bde14140f62107fc60a0ee122b37d4630",
        "gas": "0x94602",
        "value": "0x192993fca2d5b5c",
        "input": "0xb70d4241000000000000000000000000000000000000000000000000000000000000006000000000000000000000000000000000000000000000000000000000000001e000000000000000000000000000000000000000000000000000000000000002200000000000000000000000000000000000000000000000000000000000000001000000000000000000000000000000000000000000000000000000000000002000000000000000000000000000000000000000000000000000000000000076030000000000000000000000004a767e2ef83577225522ef8ed71056c6e3acb2160000000000000000000000000000000000000000000000000de0b6b3a7640000000000000000000000000000000000000000000000000000000000000000000000000000000000000000000000000000000000000000000000000000000000e000000000000000000000000000000000000000000000000000000000000001000000000000000000000000000000000000000000000000000000000000000120000000000000000000000000000000000000000000000000000000000000000000000000000000000000000000000000000000000000000000000000000000000000000000000000000000000000000000000000000000000000000000000000000000000000000000000000000000000000000000000000000000000000000100000000000000000000000057558cb8d6005de0bae8a2789d5efaae52dba5a80000000000000000000000000000000000000000000000000000000000000001000000000000000000000000741f0d8bde14140f62107fc60a0ee122b37d4630",
        "nonce": "0xcc",
        "chainId": "0xfc"
      },
      "additionalContracts": [],
      "isFixedGasLimit": false
    }
  ],
  "receipts": [
    {
      "status": "0x1",
      "cumulativeGasUsed": "0x71418",
      "logs": [
        {
          "address": "0x57558cb8d6005de0bae8a2789d5efaae52dba5a8",
          "topics": [
            "0xddf252ad1be2c89b69c2b068fc378daa952ba7f163c4a11628f55a4df523b3ef",
            "0x000000000000000000000000741f0d8bde14140f62107fc60a0ee122b37d4630",
            "0x0000000000000000000000000000000000000000000000000000000000000000"
          ],
          "data": "0x0000000000000000000000000000000000000000000000000de0b6b3a7640000",
          "blockHash": "0x3c6e567aafabd8e3c6fcfea651d6a0e7d3c71a61257bc2044cc1a30b02c6a257",
          "blockNumber": "0x1790de0",
          "transactionHash": "0x725bfe6fb4ed8d428f3bfc53267a47c509574dcf2cf0b12fdd60d00b7a5bd573",
          "transactionIndex": "0x1",
          "logIndex": "0x0",
          "removed": false
        },
        {
          "address": "0x377530cda84dfb2673bf4d145dcf0c4d7fdcb5b6",
          "topics": [
            "0x61ed099e74a97a1d7f8bb0952a88ca8b7b8ebd00c126ea04671f92a81213318a"
          ],
          "data": "0x00000000000000000000000041bdb4aa4a63a5b2efc531858d3118392b1a1c3d00000000000000000000000000000000000000000000000001142209145d3545",
          "blockHash": "0x3c6e567aafabd8e3c6fcfea651d6a0e7d3c71a61257bc2044cc1a30b02c6a257",
          "blockNumber": "0x1790de0",
          "transactionHash": "0x725bfe6fb4ed8d428f3bfc53267a47c509574dcf2cf0b12fdd60d00b7a5bd573",
          "transactionIndex": "0x1",
          "logIndex": "0x1",
          "removed": false
        },
        {
          "address": "0x377530cda84dfb2673bf4d145dcf0c4d7fdcb5b6",
          "topics": [
            "0x07ea52d82345d6e838192107d8fd7123d9c2ec8e916cd0aad13fd2b60db24644"
          ],
          "data": "0x000000000000000000000000000000000000000000000000000000000000006000000000000000000000000000000000000000000000000000000000000000e00000000000000000000000000000000000000000000000000000000000000100000000000000000000000000000000000000000000000000000000000000000300000000000000000000000026cd5abadf7ec3f0f02b48314bfca6b2342cddd4000000000000000000000000cce466a522984415bc91338c232d98869193d46e000000000000000000000000dd7b5e1db4aafd5c8ec3b764efb8ed265aa5445b00000000000000000000000000000000000000000000000000000000000000000000000000000000000000000000000000000000000000000000000000000003000000000000000000000000000000000000000000000000002b52004d5ca31d0000000000000000000000000000000000000000000000000029929b3439c17d0000000000000000000000000000000000000000000000000029929b3439c17d",
          "blockHash": "0x3c6e567aafabd8e3c6fcfea651d6a0e7d3c71a61257bc2044cc1a30b02c6a257",
          "blockNumber": "0x1790de0",
          "transactionHash": "0x725bfe6fb4ed8d428f3bfc53267a47c509574dcf2cf0b12fdd60d00b7a5bd573",
          "transactionIndex": "0x1",
          "logIndex": "0x2",
          "removed": false
        },
        {
          "address": "0x1a44076050125825900e736c501f859c50fe728c",
          "topics": [
            "0x1ab700d4ced0c005b164c0f789fd09fcbb0156d4c2041b8a3bfbcd961cd1567f"
          ],
          "data": "0x00000000000000000000000000000000000000000000000000000000000000600000000000000000000000000000000000000000000000000000000000000120000000000000000000000000377530cda84dfb2673bf4d145dcf0c4d7fdcb5b600000000000000000000000000000000000000000000000000000000000000990100000000000000010000762f00000000000000000000000057558cb8d6005de0bae8a2789d5efaae52dba5a800007603000000000000000000000000a057d8d4fc86a62801ce363c169b0a8d192f6ceeb0c802ff8eb6fbecf9ecaeefe1c34d24c186f53f6f91f55f4ebdd3517aa066600000000000000000000000004a767e2ef83577225522ef8ed71056c6e3acb21600000000000f424000000000000000000000000000000000000000000000000000000000000000000000000000001600030100110100000000000000000000000000030d4000000000000000000000",
          "blockHash": "0x3c6e567aafabd8e3c6fcfea651d6a0e7d3c71a61257bc2044cc1a30b02c6a257",
          "blockNumber": "0x1790de0",
          "transactionHash": "0x725bfe6fb4ed8d428f3bfc53267a47c509574dcf2cf0b12fdd60d00b7a5bd573",
          "transactionIndex": "0x1",
          "logIndex": "0x3",
          "removed": false
        },
        {
          "address": "0x57558cb8d6005de0bae8a2789d5efaae52dba5a8",
          "topics": [
            "0x85496b760a4b7f8d66384b9df21b381f5d1b1e79f229a47aaf4c232edc2fe59a",
            "0xb0c802ff8eb6fbecf9ecaeefe1c34d24c186f53f6f91f55f4ebdd3517aa06660",
            "0x000000000000000000000000741f0d8bde14140f62107fc60a0ee122b37d4630"
          ],
          "data": "0x00000000000000000000000000000000000000000000000000000000000076030000000000000000000000000000000000000000000000000de0b6b3a76400000000000000000000000000000000000000000000000000000de0b6b3a7640000",
          "blockHash": "0x3c6e567aafabd8e3c6fcfea651d6a0e7d3c71a61257bc2044cc1a30b02c6a257",
          "blockNumber": "0x1790de0",
          "transactionHash": "0x725bfe6fb4ed8d428f3bfc53267a47c509574dcf2cf0b12fdd60d00b7a5bd573",
          "transactionIndex": "0x1",
          "logIndex": "0x4",
          "removed": false
        }
      ],
      "logsBloom": "0x0000000000000000000000000004004000000000004000000000000000100000000000000000000000000000000000040004010000000000000000000000000000000200000000000000000800000000000000000000000000000000000000000000000002000000800000000000080000000000001000000000041000000000000000000000000000080008000000000000000000000000000000000000000000000000a000001000100000000000000000000000400000000440000000000000000002000000000000000080000000000000000000000000000000000020008001040000000000000000000000002000000000018000000000000000000000",
      "type": "0x2",
      "transactionHash": "0x725bfe6fb4ed8d428f3bfc53267a47c509574dcf2cf0b12fdd60d00b7a5bd573",
      "transactionIndex": "0x1",
      "blockHash": "0x3c6e567aafabd8e3c6fcfea651d6a0e7d3c71a61257bc2044cc1a30b02c6a257",
      "blockNumber": "0x1790de0",
      "gasUsed": "0x65741",
      "effectiveGasPrice": "0x1250b2",
      "from": "0x45dce8e4f2dc005a5f28206a46cb034697eeda8e",
      "to": "0x741f0d8bde14140f62107fc60a0ee122b37d4630",
      "contractAddress": null,
      "l1BaseFeeScalar": "0x2faf080",
      "l1BlobBaseFee": "0x1",
      "l1BlobBaseFeeScalar": "0x0",
      "l1Fee": "0x8f3389abfeba",
      "l1GasPrice": "0x44b6e299",
      "l1GasUsed": "0xaab"
    }
  ],
  "libraries": [],
  "pending": [],
  "returns": {},
  "timestamp": 1756231960749,
  "chain": 252,
  "commit": "bbd3f01"
}