{
  "transactions": [
    {
      "hash": "0xadd00296ecfa22cd2be5b7301af143340c9d2a26f21b7fcd4f27cb8f1955a056",
      "transactionType": "CALL",
      "contractName": null,
      "contractAddress": "0x741f0d8bde14140f62107fc60a0ee122b37d4630",
      "function": "batchBridgeWithEthFeeFromWallet((uint32,bytes32,uint256,uint256,bytes,bytes,bytes)[],address[],address[])",
      "arguments": [
        "[(30168, 0x3c1b094729102e0c095ee2417e5940ee4f1eab4763f6113fe75281ab74c62398, 1000000000000000000, 0, 0x, 0x, 0x), (30325, 0x09d0eb2763c96e085fa74ba6cf0d49136f8654c48ec7dbc59279a9066c7dd409, 1000000000000000000, 0, 0x, 0x, 0x)]",
        "[0x57558Cb8d6005DE0BAe8a2789d5EfaaE52dba5a8, 0x57558Cb8d6005DE0BAe8a2789d5EfaaE52dba5a8]",
        "[0x741F0d8Bde14140f62107FC60A0EE122B37D4630, 0x741F0d8Bde14140f62107FC60A0EE122B37D4630]"
      ],
      "transaction": {
        "from": "0x45dce8e4f2dc005a5f28206a46cb034697eeda8e",
        "to": "0x741f0d8bde14140f62107fc60a0ee122b37d4630",
        "gas": "0xee540",
        "value": "0xc72cb468fde3",
        "input": "0xb70d42410000000000000000000000000000000000000000000000000000000000000060000000000000000000000000000000000000000000000000000000000000034000000000000000000000000000000000000000000000000000000000000003a000000000000000000000000000000000000000000000000000000000000000020000000000000000000000000000000000000000000000000000000000000040000000000000000000000000000000000000000000000000000000000000018000000000000000000000000000000000000000000000000000000000000075d83c1b094729102e0c095ee2417e5940ee4f1eab4763f6113fe75281ab74c623980000000000000000000000000000000000000000000000000de0b6b3a7640000000000000000000000000000000000000000000000000000000000000000000000000000000000000000000000000000000000000000000000000000000000e000000000000000000000000000000000000000000000000000000000000001000000000000000000000000000000000000000000000000000000000000000120000000000000000000000000000000000000000000000000000000000000000000000000000000000000000000000000000000000000000000000000000000000000000000000000000000000000000000000000000000000000000000000000000000000000000000000000000000000000000000000000000000000000767509d0eb2763c96e085fa74ba6cf0d49136f8654c48ec7dbc59279a9066c7dd4090000000000000000000000000000000000000000000000000de0b6b3a7640000000000000000000000000000000000000000000000000000000000000000000000000000000000000000000000000000000000000000000000000000000000e000000000000000000000000000000000000000000000000000000000000001000000000000000000000000000000000000000000000000000000000000000120000000000000000000000000000000000000000000000000000000000000000000000000000000000000000000000000000000000000000000000000000000000000000000000000000000000000000000000000000000000000000000000000000000000000000000000000000000000000000000000000000000000000000200000000000000000000000057558cb8d6005de0bae8a2789d5efaae52dba5a800000000000000000000000057558cb8d6005de0bae8a2789d5efaae52dba5a80000000000000000000000000000000000000000000000000000000000000002000000000000000000000000741f0d8bde14140f62107fc60a0ee122b37d4630000000000000000000000000741f0d8bde14140f62107fc60a0ee122b37d4630",
        "nonce": "0x81",
        "chainId": "0x44d"
      },
      "additionalContracts": [],
      "isFixedGasLimit": false
    }
  ],
  "receipts": [
    {
      "status": "0x1",
      "cumulativeGasUsed": "0xa2f5a",
      "logs": [
        {
          "address": "0x57558cb8d6005de0bae8a2789d5efaae52dba5a8",
          "topics": [
            "0xddf252ad1be2c89b69c2b068fc378daa952ba7f163c4a11628f55a4df523b3ef",
            "0x000000000000000000000000741f0d8bde14140f62107fc60a0ee122b37d4630",
            "0x0000000000000000000000000000000000000000000000000000000000000000"
          ],
          "data": "0x0000000000000000000000000000000000000000000000000de0b6b3a7640000",
          "blockHash": "0x9ebf31ffd2eaf932a263fcd05895b1c55c8374e6447de477f66e53107b8038b3",
          "blockNumber": "0x16ad8fa",
          "transactionHash": "0xadd00296ecfa22cd2be5b7301af143340c9d2a26f21b7fcd4f27cb8f1955a056",
          "transactionIndex": "0x0",
          "logIndex": "0x0",
          "removed": false
        },
        {
          "address": "0x28b6140ead70cb2fb669705b3598ffb4beaa060b",
          "topics": [
            "0x61ed099e74a97a1d7f8bb0952a88ca8b7b8ebd00c126ea04671f92a81213318a"
          ],
          "data": "0x000000000000000000000000be4fb271cfb7bcbb47ea9573321c7bfe309fc2200000000000000000000000000000000000000000000000000000b020fa4b588e",
          "blockHash": "0x9ebf31ffd2eaf932a263fcd05895b1c55c8374e6447de477f66e53107b8038b3",
          "blockNumber": "0x16ad8fa",
          "transactionHash": "0xadd00296ecfa22cd2be5b7301af143340c9d2a26f21b7fcd4f27cb8f1955a056",
          "transactionIndex": "0x0",
          "logIndex": "0x1",
          "removed": false
        },
        {
          "address": "0x28b6140ead70cb2fb669705b3598ffb4beaa060b",
          "topics": [
            "0x07ea52d82345d6e838192107d8fd7123d9c2ec8e916cd0aad13fd2b60db24644"
          ],
          "data": "0x000000000000000000000000000000000000000000000000000000000000006000000000000000000000000000000000000000000000000000000000000000e000000000000000000000000000000000000000000000000000000000000001000000000000000000000000000000000000000000000000000000000000000003000000000000000000000000488863d609f3a673875a914fbee7508a1de45ec6000000000000000000000000651b1cf59014420112f8b7fcfda840a16ad763e00000000000000000000000007fe673201724925b5c477d4e1a4bd3e954688cf5000000000000000000000000000000000000000000000000000000000000000000000000000000000000000000000000000000000000000000000000000000030000000000000000000000000000000000000000000000000000056932c7a319000000000000000000000000000000000000000000000000000005a36df1341a0000000000000000000000000000000000000000000000000000056932c7a319",
          "blockHash": "0x9ebf31ffd2eaf932a263fcd05895b1c55c8374e6447de477f66e53107b8038b3",
          "blockNumber": "0x16ad8fa",
          "transactionHash": "0xadd00296ecfa22cd2be5b7301af143340c9d2a26f21b7fcd4f27cb8f1955a056",
          "transactionIndex": "0x0",
          "logIndex": "0x2",
          "removed": false
        },
        {
          "address": "0x1a44076050125825900e736c501f859c50fe728c",
          "topics": [
            "0x1ab700d4ced0c005b164c0f789fd09fcbb0156d4c2041b8a3bfbcd961cd1567f"
          ],
          "data": "0x0000000000000000000000000000000000000000000000000000000000000060000000000000000000000000000000000000000000000000000000000000012000000000000000000000000028b6140ead70cb2fb669705b3598ffb4beaa060b0000000000000000000000000000000000000000000000000000000000000099010000000000000001000075ce00000000000000000000000057558cb8d6005de0bae8a2789d5efaae52dba5a8000075d8006d6ff762f7fcb768c550bae67f7a6a3a94969e469b6e0689563ace4e3759adfce05a0cb03f591af442002706e32ca1dd8b5e2e6a99a4bce924ca60eb7dfcc13c1b094729102e0c095ee2417e5940ee4f1eab4763f6113fe75281ab74c6239800000000000f424000000000000000000000000000000000000000000000000000000000000000000000000000002600030100210100000000000000000000000000030d40000000000000000000000000002625a00000000000000000000000000000000000000000000000000000",
          "blockHash": "0x9ebf31ffd2eaf932a263fcd05895b1c55c8374e6447de477f66e53107b8038b3",
          "blockNumber": "0x16ad8fa",
          "transactionHash": "0xadd00296ecfa22cd2be5b7301af143340c9d2a26f21b7fcd4f27cb8f1955a056",
          "transactionIndex": "0x0",
          "logIndex": "0x3",
          "removed": false
        },
        {
          "address": "0x57558cb8d6005de0bae8a2789d5efaae52dba5a8",
          "topics": [
            "0x85496b760a4b7f8d66384b9df21b381f5d1b1e79f229a47aaf4c232edc2fe59a",
            "0xfce05a0cb03f591af442002706e32ca1dd8b5e2e6a99a4bce924ca60eb7dfcc1",
            "0x000000000000000000000000741f0d8bde14140f62107fc60a0ee122b37d4630"
          ],
          "data": "0x00000000000000000000000000000000000000000000000000000000000075d80000000000000000000000000000000000000000000000000de0b6b3a76400000000000000000000000000000000000000000000000000000de0b6b3a7640000",
          "blockHash": "0x9ebf31ffd2eaf932a263fcd05895b1c55c8374e6447de477f66e53107b8038b3",
          "blockNumber": "0x16ad8fa",
          "transactionHash": "0xadd00296ecfa22cd2be5b7301af143340c9d2a26f21b7fcd4f27cb8f1955a056",
          "transactionIndex": "0x0",
          "logIndex": "0x4",
          "removed": false
        },
        {
          "address": "0x57558cb8d6005de0bae8a2789d5efaae52dba5a8",
          "topics": [
            "0xddf252ad1be2c89b69c2b068fc378daa952ba7f163c4a11628f55a4df523b3ef",
            "0x000000000000000000000000741f0d8bde14140f62107fc60a0ee122b37d4630",
            "0x0000000000000000000000000000000000000000000000000000000000000000"
          ],
          "data": "0x0000000000000000000000000000000000000000000000000de0b6b3a7640000",
          "blockHash": "0x9ebf31ffd2eaf932a263fcd05895b1c55c8374e6447de477f66e53107b8038b3",
          "blockNumber": "0x16ad8fa",
          "transactionHash": "0xadd00296ecfa22cd2be5b7301af143340c9d2a26f21b7fcd4f27cb8f1955a056",
          "transactionIndex": "0x0",
          "logIndex": "0x5",
          "removed": false
        },
        {
          "address": "0x28b6140ead70cb2fb669705b3598ffb4beaa060b",
          "topics": [
            "0x61ed099e74a97a1d7f8bb0952a88ca8b7b8ebd00c126ea04671f92a81213318a"
          ],
          "data": "0x000000000000000000000000be4fb271cfb7bcbb47ea9573321c7bfe309fc2200000000000000000000000000000000000000000000000000000034af34e9332",
          "blockHash": "0x9ebf31ffd2eaf932a263fcd05895b1c55c8374e6447de477f66e53107b8038b3",
          "blockNumber": "0x16ad8fa",
          "transactionHash": "0xadd00296ecfa22cd2be5b7301af143340c9d2a26f21b7fcd4f27cb8f1955a056",
          "transactionIndex": "0x0",
          "logIndex": "0x6",
          "removed": false
        },
        {
          "address": "0x28b6140ead70cb2fb669705b3598ffb4beaa060b",
          "topics": [
            "0x07ea52d82345d6e838192107d8fd7123d9c2ec8e916cd0aad13fd2b60db24644"
          ],
          "data": "0x000000000000000000000000000000000000000000000000000000000000006000000000000000000000000000000000000000000000000000000000000000e000000000000000000000000000000000000000000000000000000000000001000000000000000000000000000000000000000000000000000000000000000003000000000000000000000000488863d609f3a673875a914fbee7508a1de45ec6000000000000000000000000651b1cf59014420112f8b7fcfda840a16ad763e00000000000000000000000007fe673201724925b5c477d4e1a4bd3e954688cf5000000000000000000000000000000000000000000000000000000000000000000000000000000000000000000000000000000000000000000000000000000030000000000000000000000000000000000000000000000000000034af34e9371000000000000000000000000000000000000000000000000000000000000023e0000000000000000000000000000000000000000000000000000000000000228",
          "blockHash": "0x9ebf31ffd2eaf932a263fcd05895b1c55c8374e6447de477f66e53107b8038b3",
          "blockNumber": "0x16ad8fa",
          "transactionHash": "0xadd00296ecfa22cd2be5b7301af143340c9d2a26f21b7fcd4f27cb8f1955a056",
          "transactionIndex": "0x0",
          "logIndex": "0x7",
          "removed": false
        },
        {
          "address": "0x1a44076050125825900e736c501f859c50fe728c",
          "topics": [
            "0x1ab700d4ced0c005b164c0f789fd09fcbb0156d4c2041b8a3bfbcd961cd1567f"
          ],
          "data": "0x0000000000000000000000000000000000000000000000000000000000000060000000000000000000000000000000000000000000000000000000000000012000000000000000000000000028b6140ead70cb2fb669705b3598ffb4beaa060b0000000000000000000000000000000000000000000000000000000000000099010000000000000001000075ce00000000000000000000000057558cb8d6005de0bae8a2789d5efaae52dba5a800007675a1bb74f0d5770dfc905c508e6273fadc595ddc15326cc907889bdfffa50602c888e3c15d96cf632c0e82cb941f02a05359641b168e064bc500accc90c3e697d909d0eb2763c96e085fa74ba6cf0d49136f8654c48ec7dbc59279a9066c7dd40900000000000f42400000000000000000000000000000000000000000000000000000000000000000000000000000160003010011010000000000000000000000000000138800000000000000000000",
          "blockHash": "0x9ebf31ffd2eaf932a263fcd05895b1c55c8374e6447de477f66e53107b8038b3",
          "blockNumber": "0x16ad8fa",
          "transactionHash": "0xadd00296ecfa22cd2be5b7301af143340c9d2a26f21b7fcd4f27cb8f1955a056",
          "transactionIndex": "0x0",
          "logIndex": "0x8",
          "removed": false
        },
        {
          "address": "0x57558cb8d6005de0bae8a2789d5efaae52dba5a8",
          "topics": [
            "0x85496b760a4b7f8d66384b9df21b381f5d1b1e79f229a47aaf4c232edc2fe59a",
            "0x88e3c15d96cf632c0e82cb941f02a05359641b168e064bc500accc90c3e697d9",
            "0x000000000000000000000000741f0d8bde14140f62107fc60a0ee122b37d4630"
          ],
          "data": "0x00000000000000000000000000000000000000000000000000000000000076750000000000000000000000000000000000000000000000000de0b6b3a76400000000000000000000000000000000000000000000000000000de0b6b3a7640000",
          "blockHash": "0x9ebf31ffd2eaf932a263fcd05895b1c55c8374e6447de477f66e53107b8038b3",
          "blockNumber": "0x16ad8fa",
          "transactionHash": "0xadd00296ecfa22cd2be5b7301af143340c9d2a26f21b7fcd4f27cb8f1955a056",
          "transactionIndex": "0x0",
          "logIndex": "0x9",
          "removed": false
        }
      ],
      "logsBloom": "0x0000000000000000000000000004004000400000000000000000000000100000000000000000000000000000000000060000010000000000000000000000000000000200000000000000000800000000000000000000000000000000000000000000008002000000800000000000480000000000001000000000001000000000008000000000000000000008000000000000000000000000000000000000000000000000a000001000100900000000000000000000400000000440000000000000000002000000000000000080000000000000000000000000000000000020000000040000000000000000200000002004000000018000000000000000000000",
      "type": "0x0",
      "transactionHash": "0xadd00296ecfa22cd2be5b7301af143340c9d2a26f21b7fcd4f27cb8f1955a056",
      "transactionIndex": "0x0",
      "blockHash": "0x9ebf31ffd2eaf932a263fcd05895b1c55c8374e6447de477f66e53107b8038b3",
      "blockNumber": "0x16ad8fa",
      "gasUsed": "0xa2f5a",
      "effectiveGasPrice": "0x989680",
      "from": "0x45dce8e4f2dc005a5f28206a46cb034697eeda8e",
      "to": "0x741f0d8bde14140f62107fc60a0ee122b37d4630",
      "contractAddress": null
    }
  ],
  "libraries": [],
  "pending": [],
  "returns": {},
  "timestamp": 1752114439,
  "chain": 1101,
  "commit": "4a90ad4"
}