{
  "transactions": [
    {
      "hash": null,
      "transactionType": "CALL",
      "contractName": null,
      "contractAddress": "0x7131f0ec2aac01a5d30138c2d96c25e4fbbc78ce",
      "function": "approve(address,uint256)",
      "arguments": [
        "0x103C430c9Fcaa863EA90386e3d0d5cd53333876e",
        "115792089237316195423570985008687907853269984665640564039457584007913129639935"
      ],
      "transaction": {
        "from": "0x0990be6db8c785fbbf9ded8baec612a10cae814b",
        "to": "0x7131f0ec2aac01a5d30138c2d96c25e4fbbc78ce",
        "gas": "0x10a30",
        "value": "0x0",
        "input": "0x095ea7b3000000000000000000000000103c430c9fcaa863ea90386e3d0d5cd53333876effffffffffffffffffffffffffffffffffffffffffffffffffffffffffffffff",
        "nonce": "0xff",
        "chainId": "0xfc"
      },
      "additionalContracts": [],
      "isFixedGasLimit": false
    },
    {
      "hash": null,
      "transactionType": "CALL",
      "contractName": null,
      "contractAddress": "0x103c430c9fcaa863ea90386e3d0d5cd53333876e",
      "function": "send((uint32,bytes32,uint256,uint256,bytes,bytes,bytes),(uint256,uint256),address)",
      "arguments": [
        "(30274, 0x0000000000000000000000000990be6db8c785fbbf9ded8baec612a10cae814b, 100000000000000000000000, 100000000000000000000000, 0x0003, 0x, 0x)",
        "(303016601411060, 0)",
        "0x0990be6dB8c785FBbF9deD8bAEc612A10CaE814b"
      ],
      "transaction": {
        "from": "0x0990be6db8c785fbbf9ded8baec612a10cae814b",
        "to": "0x103c430c9fcaa863ea90386e3d0d5cd53333876e",
        "gas": "0x6970c",
        "value": "0x113978ce35df4",
        "input": "0xc7c7f5b30000000000000000000000000000000000000000000000000000000000000080000000000000000000000000000000000000000000000000000113978ce35df400000000000000000000000000000000000000000000000000000000000000000000000000000000000000000990be6db8c785fbbf9ded8baec612a10cae814b00000000000000000000000000000000000000000000000000000000000076420000000000000000000000000990be6db8c785fbbf9ded8baec612a10cae814b00000000000000000000000000000000000000000000152d02c7e14af680000000000000000000000000000000000000000000000000152d02c7e14af680000000000000000000000000000000000000000000000000000000000000000000e0000000000000000000000000000000000000000000000000000000000000012000000000000000000000000000000000000000000000000000000000000001400000000000000000000000000000000000000000000000000000000000000002000300000000000000000000000000000000000000000000000000000000000000000000000000000000000000000000000000000000000000000000000000000000000000000000000000000000000000000000000000000000000000000000",
        "nonce": "0x100",
        "chainId": "0xfc"
      },
      "additionalContracts": [],
      "isFixedGasLimit": false
    }
  ],
  "receipts": [],
  "libraries": [],
  "pending": [],
  "returns": {},
  "timestamp": 1734553525,
  "chain": 252,
  "commit": "cb8ebc4"
}