{
  "transactions": [
    {
      "hash": null,
      "transactionType": "CALL",
      "contractName": null,
      "contractAddress": "0x16fbfcf4970d4550791faf75ae9baece75c85a27",
      "function": "setEnforcedOptions((uint32,uint16,bytes)[])",
      "arguments": [
        "[(40161, 1, 0x00030100110100000000000000000000000000030d40), (40161, 2, 0x0003010011010000000000000000000000000003d090)]"
      ],
      "transaction": {
        "from": "0x1d434906aa520e592fab2b82406beff859be8e82",
        "to": "0x16fbfcf4970d4550791faf75ae9baece75c85a27",
        "gas": "0x1d9d4",
        "value": "0x0",
        "input": "0xb98bd07000000000000000000000000000000000000000000000000000000000000000200000000000000000000000000000000000000000000000000000000000000002000000000000000000000000000000000000000000000000000000000000004000000000000000000000000000000000000000000000000000000000000000e00000000000000000000000000000000000000000000000000000000000009ce100000000000000000000000000000000000000000000000000000000000000010000000000000000000000000000000000000000000000000000000000000060000000000000000000000000000000000000000000000000000000000000001600030100110100000000000000000000000000030d40000000000000000000000000000000000000000000000000000000000000000000000000000000009ce10000000000000000000000000000000000000000000000000000000000000002000000000000000000000000000000000000000000000000000000000000006000000000000000000000000000000000000000000000000000000000000000160003010011010000000000000000000000000003d09000000000000000000000",
        "nonce": "0x0",
        "chainId": "0xa5bf",
        "feeToken": null,
        "calls": [],
        "keyType": null,
        "keyData": null
      },
      "additionalContracts": [],
      "isFixedGasLimit": false
    },
    {
      "hash": null,
      "transactionType": "CALL",
      "contractName": null,
      "contractAddress": "0x16fbfcf4970d4550791faf75ae9baece75c85a27",
      "function": "setPeer(uint32,bytes32)",
      "arguments": [
        "40161",
        "0x00000000000000000000000029a5134d3b22f47ad52e0a22a63247363e9f35c2"
      ],
      "transaction": {
        "from": "0x1d434906aa520e592fab2b82406beff859be8e82",
        "to": "0x16fbfcf4970d4550791faf75ae9baece75c85a27",
        "gas": "0x139e4",
        "value": "0x0",
        "input": "0x3400288b0000000000000000000000000000000000000000000000000000000000009ce100000000000000000000000029a5134d3b22f47ad52e0a22a63247363e9f35c2",
        "nonce": "0x1",
        "chainId": "0xa5bf",
        "feeToken": null,
        "calls": [],
        "keyType": null,
        "keyData": null
      },
      "additionalContracts": [],
      "isFixedGasLimit": false
    },
    {
      "hash": null,
      "transactionType": "CALL",
      "contractName": null,
      "contractAddress": "0xfb34352ba2e2d9cb93837bb19d36db5d93bcfc41",
      "function": "setSendLibrary(address,uint32,address)",
      "arguments": [
        "0x16FBfCF4970D4550791faF75AE9BaecE75C85A27",
        "40161",
        "0x91ec94dd5E949BdB2ecE3b91B9602EC5F7F59FFD"
      ],
      "transaction": {
        "from": "0x1d434906aa520e592fab2b82406beff859be8e82",
        "to": "0xfb34352ba2e2d9cb93837bb19d36db5d93bcfc41",
        "gas": "0x1378b",
        "value": "0x0",
        "input": "0x9535ff3000000000000000000000000016fbfcf4970d4550791faf75ae9baece75c85a270000000000000000000000000000000000000000000000000000000000009ce100000000000000000000000091ec94dd5e949bdb2ece3b91b9602ec5f7f59ffd",
        "nonce": "0x2",
        "chainId": "0xa5bf",
        "feeToken": null,
        "calls": [],
        "keyType": null,
        "keyData": null
      },
      "additionalContracts": [],
      "isFixedGasLimit": false
    },
    {
      "hash": null,
      "transactionType": "CALL",
      "contractName": null,
      "contractAddress": "0xfb34352ba2e2d9cb93837bb19d36db5d93bcfc41",
      "function": "setReceiveLibrary(address,uint32,address,uint256)",
      "arguments": [
        "0x16FBfCF4970D4550791faF75AE9BaecE75C85A27",
        "40161",
        "0xfeBE4c839EFA9f506C092a32fD0BB546B76A1d38",
        "0"
      ],
      "transaction": {
        "from": "0x1d434906aa520e592fab2b82406beff859be8e82",
        "to": "0xfb34352ba2e2d9cb93837bb19d36db5d93bcfc41",
        "gas": "0x17001",
        "value": "0x0",
        "input": "0x6a14d71500000000000000000000000016fbfcf4970d4550791faf75ae9baece75c85a270000000000000000000000000000000000000000000000000000000000009ce1000000000000000000000000febe4c839efa9f506c092a32fd0bb546b76a1d380000000000000000000000000000000000000000000000000000000000000000",
        "nonce": "0x3",
        "chainId": "0xa5bf",
        "feeToken": null,
        "calls": [],
        "keyType": null,
        "keyData": null
      },
      "additionalContracts": [],
      "isFixedGasLimit": false
    },
    {
      "hash": null,
      "transactionType": "CALL",
      "contractName": null,
      "contractAddress": "0x16fbfcf4970d4550791faf75ae9baece75c85a27",
      "function": "setDelegate(address)",
      "arguments": [
        "0x1d434906Aa520E592fAB2b82406BEfF859be8e82"
      ],
      "transaction": {
        "from": "0x1d434906aa520e592fab2b82406beff859be8e82",
        "to": "0x16fbfcf4970d4550791faf75ae9baece75c85a27",
        "gas": "0xda49",
        "value": "0x0",
        "input": "0xca5eb5e10000000000000000000000001d434906aa520e592fab2b82406beff859be8e82",
        "nonce": "0x4",
        "chainId": "0xa5bf",
        "feeToken": null,
        "calls": [],
        "keyType": null,
        "keyData": null
      },
      "additionalContracts": [],
      "isFixedGasLimit": false
    },
    {
      "hash": null,
      "transactionType": "CALL",
      "contractName": null,
      "contractAddress": "0x16fbfcf4970d4550791faf75ae9baece75c85a27",
      "function": "transferOwnership(address)",
      "arguments": [
        "0x1d434906Aa520E592fAB2b82406BEfF859be8e82"
      ],
      "transaction": {
        "from": "0x1d434906aa520e592fab2b82406beff859be8e82",
        "to": "0x16fbfcf4970d4550791faf75ae9baece75c85a27",
        "gas": "0xb2a6",
        "value": "0x0",
        "input": "0xf2fde38b0000000000000000000000001d434906aa520e592fab2b82406beff859be8e82",
        "nonce": "0x5",
        "chainId": "0xa5bf",
        "feeToken": null,
        "calls": [],
        "keyType": null,
        "keyData": null
      },
      "additionalContracts": [],
      "isFixedGasLimit": false
    },
    {
      "hash": null,
      "transactionType": "CALL",
      "contractName": null,
      "contractAddress": "0x394e4f810bde9eb786018def607951021c470051",
      "function": "transferOwnership(address)",
      "arguments": [
        "0x1d434906Aa520E592fAB2b82406BEfF859be8e82"
      ],
      "transaction": {
        "from": "0x1d434906aa520e592fab2b82406beff859be8e82",
        "to": "0x394e4f810bde9eb786018def607951021c470051",
        "gas": "0x8b32",
        "value": "0x0",
        "input": "0xf2fde38b0000000000000000000000001d434906aa520e592fab2b82406beff859be8e82",
        "nonce": "0x6",
        "chainId": "0xa5bf",
        "feeToken": null,
        "calls": [],
        "keyType": null,
        "keyData": null
      },
      "additionalContracts": [],
      "isFixedGasLimit": false
    }
  ],
  "receipts": [],
  "libraries": [],
  "pending": [],
  "returns": {},
  "timestamp": 1770141783674,
  "chain": 42431,
  "commit": "71b2709"
}