{
  "transactions": [
    {
      "hash": "0x56f960ddd90df48e0c83546e8fd9abfd0ce4b57c385ae2a4e4b7765b28ad4c0f",
      "transactionType": "CALL",
      "contractName": null,
      "contractAddress": "0x57558cb8d6005de0bae8a2789d5efaae52dba5a8",
      "function": "setEnforcedOptions((uint32,uint16,bytes)[])",
      "arguments": [
        "[(30280, 1, 0x00030100110100000000000000000000000000030d40), (30280, 2, 0x0003010011010000000000000000000000000003d090), (30255, 1, 0x00030100110100000000000000000000000000030d40), (30255, 2, 0x0003010011010000000000000000000000000003d090), (30274, 1, 0x00030100110100000000000000000000000000030d40), (30274, 2, 0x0003010011010000000000000000000000000003d090), (30332, 1, 0x00030100110100000000000000000000000000030d40), (30332, 2, 0x0003010011010000000000000000000000000003d090), (30339, 1, 0x00030100110100000000000000000000000000030d40), (30339, 2, 0x0003010011010000000000000000000000000003d090), (30110, 1, 0x00030100110100000000000000000000000000030d40), (30110, 2, 0x0003010011010000000000000000000000000003d090), (30111, 1, 0x00030100110100000000000000000000000000030d40), (30111, 2, 0x0003010011010000000000000000000000000003d090), (30109, 1, 0x00030100110100000000000000000000000000030d40), (30109, 2, 0x0003010011010000000000000000000000000003d090), (30106, 1, 0x00030100110100000000000000000000000000030d40), (30106, 2, 0x0003010011010000000000000000000000000003d090), (30102, 1, 0x00030100110100000000000000000000000000030d40), (30102, 2, 0x0003010011010000000000000000000000000003d090), (30158, 1, 0x00030100110100000000000000000000000000030d40), (30158, 2, 0x0003010011010000000000000000000000000003d090), (30101, 1, 0x00030100110100000000000000000000000000030d40), (30101, 2, 0x0003010011010000000000000000000000000003d090), (30243, 1, 0x00030100110100000000000000000000000000030d40), (30243, 2, 0x0003010011010000000000000000000000000003d090), (30184, 1, 0x00030100110100000000000000000000000000030d40), (30184, 2, 0x0003010011010000000000000000000000000003d090), (30362, 1, 0x00030100110100000000000000000000000000030d40), (30362, 2, 0x0003010011010000000000000000000000000003d090), (30183, 1, 0x00030100110100000000000000000000000000030d40), (30183, 2, 0x0003010011010000000000000000000000000003d090), (30319, 1, 0x00030100110100000000000000000000000000030d40), (30319, 2, 0x0003010011010000000000000000000000000003d090), (30320, 1, 0x00030100110100000000000000000000000000030d40), (30320, 2, 0x0003010011010000000000000000000000000003d090), (30370, 1, 0x00030100110100000000000000000000000000030d40), (30370, 2, 0x0003010011010000000000000000000000000003d090), (30376, 1, 0x00030100110100000000000000000000000000030d40), (30376, 2, 0x0003010011010000000000000000000000000003d090), (30375, 1, 0x00030100110100000000000000000000000000030d40), (30375, 2, 0x0003010011010000000000000000000000000003d090), (30211, 1, 0x00030100110100000000000000000000000000030d40), (30211, 2, 0x0003010011010000000000000000000000000003d090), (30214, 1, 0x00030100110100000000000000000000000000030d40), (30214, 2, 0x0003010011010000000000000000000000000003d090), (30324, 1, 0x00030100110100000000000000000000000000030d40), (30324, 2, 0x0003010011010000000000000000000000000003d090), (30165, 1, 0x00030100110100000000000000000000000000030d40), (30165, 2, 0x0003010011010000000000000000000000000003d090)]"
      ],
      "transaction": {
        "from": "0x45dce8e4f2dc005a5f28206a46cb034697eeda8e",
        "to": "0x57558cb8d6005de0bae8a2789d5efaae52dba5a8",
        "gas": "0xa5d7e",
        "value": "0x0",
        "input": "0xb98bd07000000000000000000000000000000000000000000000000000000000000000200000000000000000000000000000000000000000000000000000000000000032000000000000000000000000000000000000000000000000000000000000064000000000000000000000000000000000000000000000000000000000000006e00000000000000000000000000000000000000000000000000000000000000780000000000000000000000000000000000000000000000000000000000000082000000000000000000000000000000000000000000000000000000000000008c000000000000000000000000000000000000000000000000000000000000009600000000000000000000000000000000000000000000000000000000000000a000000000000000000000000000000000000000000000000000000000000000aa00000000000000000000000000000000000000000000000000000000000000b400000000000000000000000000000000000000000000000000000000000000be00000000000000000000000000000000000000000000000000000000000000c800000000000000000000000000000000000000000000000000000000000000d200000000000000000000000000000000000000000000000000000000000000dc00000000000000000000000000000000000000000000000000000000000000e600000000000000000000000000000000000000000000000000000000000000f000000000000000000000000000000000000000000000000000000000000000fa0000000000000000000000000000000000000000000000000000000000000104000000000000000000000000000000000000000000000000000000000000010e00000000000000000000000000000000000000000000000000000000000001180000000000000000000000000000000000000000000000000000000000000122000000000000000000000000000000000000000000000000000000000000012c00000000000000000000000000000000000000000000000000000000000001360000000000000000000000000000000000000000000000000000000000000140000000000000000000000000000000000000000000000000000000000000014a0000000000000000000000000000000000000000000000000000000000000154000000000000000000000000000000000000000000000000000000000000015e00000000000000000000000000000000000000000000000000000000000001680000000000000000000000000000000000000000000000000000000000000172000000000000000000000000000000000000000000000000000000000000017c00000000000000000000000000000000000000000000000000000000000001860000000000000000000000000000000000000000000000000000000000000190000000000000000000000000000000000000000000000000000000000000019a00000000000000000000000000000000000000000000000000000000000001a400000000000000000000000000000000000000000000000000000000000001ae00000000000000000000000000000000000000000000000000000000000001b800000000000000000000000000000000000000000000000000000000000001c200000000000000000000000000000000000000000000000000000000000001cc00000000000000000000000000000000000000000000000000000000000001d600000000000000000000000000000000000000000000000000000000000001e000000000000000000000000000000000000000000000000000000000000001ea00000000000000000000000000000000000000000000000000000000000001f400000000000000000000000000000000000000000000000000000000000001fe00000000000000000000000000000000000000000000000000000000000002080000000000000000000000000000000000000000000000000000000000000212000000000000000000000000000000000000000000000000000000000000021c00000000000000000000000000000000000000000000000000000000000002260000000000000000000000000000000000000000000000000000000000000230000000000000000000000000000000000000000000000000000000000000023a0000000000000000000000000000000000000000000000000000000000000244000000000000000000000000000000000000000000000000000000000000024e0000000000000000000000000000000000000000000000000000000000000764800000000000000000000000000000000000000000000000000000000000000010000000000000000000000000000000000000000000000000000000000000060000000000000000000000000000000000000000000000000000000000000001600030100110100000000000000000000000000030d400000000000000000000000000000000000000000000000000000000000000000000000000000000076480000000000000000000000000000000000000000000000000000000000000002000000000000000000000000000000000000000000000000000000000000006000000000000000000000000000000000000000000000000000000000000000160003010011010000000000000000000000000003d09000000000000000000000000000000000000000000000000000000000000000000000000000000000762f00000000000000000000000000000000000000000000000000000000000000010000000000000000000000000000000000000000000000000000000000000060000000000000000000000000000000000000000000000000000000000000001600030100110100000000000000000000000000030d4000000000000000000000000000000000000000000000000000000000000000000000000000000000762f0000000000000000000000000000000000000000000000000000000000000002000000000000000000000000000000000000000000000000000000000000006000000000000000000000000000000000000000000000000000000000000000160003010011010000000000000000000000000003d09000000000000000000000000000000000000000000000000000000000000000000000000000000000764200000000000000000000000000000000000000000000000000000000000000010000000000000000000000000000000000000000000000000000000000000060000000000000000000000000000000000000000000000000000000000000001600030100110100000000000000000000000000030d400000000000000000000000000000000000000000000000000000000000000000000000000000000076420000000000000000000000000000000000000000000000000000000000000002000000000000000000000000000000000000000000000000000000000000006000000000000000000000000000000000000000000000000000000000000000160003010011010000000000000000000000000003d09000000000000000000000000000000000000000000000000000000000000000000000000000000000767c00000000000000000000000000000000000000000000000000000000000000010000000000000000000000000000000000000000000000000000000000000060000000000000000000000000000000000000000000000000000000000000001600030100110100000000000000000000000000030d4000000000000000000000000000000000000000000000000000000000000000000000000000000000767c0000000000000000000000000000000000000000000000000000000000000002000000000000000000000000000000000000000000000000000000000000006000000000000000000000000000000000000000000000000000000000000000160003010011010000000000000000000000000003d09000000000000000000000000000000000000000000000000000000000000000000000000000000000768300000000000000000000000000000000000000000000000000000000000000010000000000000000000000000000000000000000000000000000000000000060000000000000000000000000000000000000000000000000000000000000001600030100110100000000000000000000000000030d400000000000000000000000000000000000000000000000000000000000000000000000000000000076830000000000000000000000000000000000000000000000000000000000000002000000000000000000000000000000000000000000000000000000000000006000000000000000000000000000000000000000000000000000000000000000160003010011010000000000000000000000000003d09000000000000000000000000000000000000000000000000000000000000000000000000000000000759e00000000000000000000000000000000000000000000000000000000000000010000000000000000000000000000000000000000000000000000000000000060000000000000000000000000000000000000000000000000000000000000001600030100110100000000000000000000000000030d4000000000000000000000000000000000000000000000000000000000000000000000000000000000759e0000000000000000000000000000000000000000000000000000000000000002000000000000000000000000000000000000000000000000000000000000006000000000000000000000000000000000000000000000000000000000000000160003010011010000000000000000000000000003d09000000000000000000000000000000000000000000000000000000000000000000000000000000000759f00000000000000000000000000000000000000000000000000000000000000010000000000000000000000000000000000000000000000000000000000000060000000000000000000000000000000000000000000000000000000000000001600030100110100000000000000000000000000030d4000000000000000000000000000000000000000000000000000000000000000000000000000000000759f0000000000000000000000000000000000000000000000000000000000000002000000000000000000000000000000000000000000000000000000000000006000000000000000000000000000000000000000000000000000000000000000160003010011010000000000000000000000000003d09000000000000000000000000000000000000000000000000000000000000000000000000000000000759d00000000000000000000000000000000000000000000000000000000000000010000000000000000000000000000000000000000000000000000000000000060000000000000000000000000000000000000000000000000000000000000001600030100110100000000000000000000000000030d4000000000000000000000000000000000000000000000000000000000000000000000000000000000759d0000000000000000000000000000000000000000000000000000000000000002000000000000000000000000000000000000000000000000000000000000006000000000000000000000000000000000000000000000000000000000000000160003010011010000000000000000000000000003d09000000000000000000000000000000000000000000000000000000000000000000000000000000000759a00000000000000000000000000000000000000000000000000000000000000010000000000000000000000000000000000000000000000000000000000000060000000000000000000000000000000000000000000000000000000000000001600030100110100000000000000000000000000030d4000000000000000000000000000000000000000000000000000000000000000000000000000000000759a0000000000000000000000000000000000000000000000000000000000000002000000000000000000000000000000000000000000000000000000000000006000000000000000000000000000000000000000000000000000000000000000160003010011010000000000000000000000000003d09000000000000000000000000000000000000000000000000000000000000000000000000000000000759600000000000000000000000000000000000000000000000000000000000000010000000000000000000000000000000000000000000000000000000000000060000000000000000000000000000000000000000000000000000000000000001600030100110100000000000000000000000000030d400000000000000000000000000000000000000000000000000000000000000000000000000000000075960000000000000000000000000000000000000000000000000000000000000002000000000000000000000000000000000000000000000000000000000000006000000000000000000000000000000000000000000000000000000000000000160003010011010000000000000000000000000003d0900000000000000000000000000000000000000000000000000000000000000000000000000000000075ce00000000000000000000000000000000000000000000000000000000000000010000000000000000000000000000000000000000000000000000000000000060000000000000000000000000000000000000000000000000000000000000001600030100110100000000000000000000000000030d400000000000000000000000000000000000000000000000000000000000000000000000000000000075ce0000000000000000000000000000000000000000000000000000000000000002000000000000000000000000000000000000000000000000000000000000006000000000000000000000000000000000000000000000000000000000000000160003010011010000000000000000000000000003d09000000000000000000000000000000000000000000000000000000000000000000000000000000000759500000000000000000000000000000000000000000000000000000000000000010000000000000000000000000000000000000000000000000000000000000060000000000000000000000000000000000000000000000000000000000000001600030100110100000000000000000000000000030d400000000000000000000000000000000000000000000000000000000000000000000000000000000075950000000000000000000000000000000000000000000000000000000000000002000000000000000000000000000000000000000000000000000000000000006000000000000000000000000000000000000000000000000000000000000000160003010011010000000000000000000000000003d09000000000000000000000000000000000000000000000000000000000000000000000000000000000762300000000000000000000000000000000000000000000000000000000000000010000000000000000000000000000000000000000000000000000000000000060000000000000000000000000000000000000000000000000000000000000001600030100110100000000000000000000000000030d400000000000000000000000000000000000000000000000000000000000000000000000000000000076230000000000000000000000000000000000000000000000000000000000000002000000000000000000000000000000000000000000000000000000000000006000000000000000000000000000000000000000000000000000000000000000160003010011010000000000000000000000000003d0900000000000000000000000000000000000000000000000000000000000000000000000000000000075e800000000000000000000000000000000000000000000000000000000000000010000000000000000000000000000000000000000000000000000000000000060000000000000000000000000000000000000000000000000000000000000001600030100110100000000000000000000000000030d400000000000000000000000000000000000000000000000000000000000000000000000000000000075e80000000000000000000000000000000000000000000000000000000000000002000000000000000000000000000000000000000000000000000000000000006000000000000000000000000000000000000000000000000000000000000000160003010011010000000000000000000000000003d09000000000000000000000000000000000000000000000000000000000000000000000000000000000769a00000000000000000000000000000000000000000000000000000000000000010000000000000000000000000000000000000000000000000000000000000060000000000000000000000000000000000000000000000000000000000000001600030100110100000000000000000000000000030d4000000000000000000000000000000000000000000000000000000000000000000000000000000000769a0000000000000000000000000000000000000000000000000000000000000002000000000000000000000000000000000000000000000000000000000000006000000000000000000000000000000000000000000000000000000000000000160003010011010000000000000000000000000003d0900000000000000000000000000000000000000000000000000000000000000000000000000000000075e700000000000000000000000000000000000000000000000000000000000000010000000000000000000000000000000000000000000000000000000000000060000000000000000000000000000000000000000000000000000000000000001600030100110100000000000000000000000000030d400000000000000000000000000000000000000000000000000000000000000000000000000000000075e70000000000000000000000000000000000000000000000000000000000000002000000000000000000000000000000000000000000000000000000000000006000000000000000000000000000000000000000000000000000000000000000160003010011010000000000000000000000000003d09000000000000000000000000000000000000000000000000000000000000000000000000000000000766f00000000000000000000000000000000000000000000000000000000000000010000000000000000000000000000000000000000000000000000000000000060000000000000000000000000000000000000000000000000000000000000001600030100110100000000000000000000000000030d4000000000000000000000000000000000000000000000000000000000000000000000000000000000766f0000000000000000000000000000000000000000000000000000000000000002000000000000000000000000000000000000000000000000000000000000006000000000000000000000000000000000000000000000000000000000000000160003010011010000000000000000000000000003d09000000000000000000000000000000000000000000000000000000000000000000000000000000000767000000000000000000000000000000000000000000000000000000000000000010000000000000000000000000000000000000000000000000000000000000060000000000000000000000000000000000000000000000000000000000000001600030100110100000000000000000000000000030d400000000000000000000000000000000000000000000000000000000000000000000000000000000076700000000000000000000000000000000000000000000000000000000000000002000000000000000000000000000000000000000000000000000000000000006000000000000000000000000000000000000000000000000000000000000000160003010011010000000000000000000000000003d0900000000000000000000000000000000000000000000000000000000000000000000000000000000076a200000000000000000000000000000000000000000000000000000000000000010000000000000000000000000000000000000000000000000000000000000060000000000000000000000000000000000000000000000000000000000000001600030100110100000000000000000000000000030d400000000000000000000000000000000000000000000000000000000000000000000000000000000076a20000000000000000000000000000000000000000000000000000000000000002000000000000000000000000000000000000000000000000000000000000006000000000000000000000000000000000000000000000000000000000000000160003010011010000000000000000000000000003d0900000000000000000000000000000000000000000000000000000000000000000000000000000000076a800000000000000000000000000000000000000000000000000000000000000010000000000000000000000000000000000000000000000000000000000000060000000000000000000000000000000000000000000000000000000000000001600030100110100000000000000000000000000030d400000000000000000000000000000000000000000000000000000000000000000000000000000000076a80000000000000000000000000000000000000000000000000000000000000002000000000000000000000000000000000000000000000000000000000000006000000000000000000000000000000000000000000000000000000000000000160003010011010000000000000000000000000003d0900000000000000000000000000000000000000000000000000000000000000000000000000000000076a700000000000000000000000000000000000000000000000000000000000000010000000000000000000000000000000000000000000000000000000000000060000000000000000000000000000000000000000000000000000000000000001600030100110100000000000000000000000000030d400000000000000000000000000000000000000000000000000000000000000000000000000000000076a70000000000000000000000000000000000000000000000000000000000000002000000000000000000000000000000000000000000000000000000000000006000000000000000000000000000000000000000000000000000000000000000160003010011010000000000000000000000000003d09000000000000000000000000000000000000000000000000000000000000000000000000000000000760300000000000000000000000000000000000000000000000000000000000000010000000000000000000000000000000000000000000000000000000000000060000000000000000000000000000000000000000000000000000000000000001600030100110100000000000000000000000000030d400000000000000000000000000000000000000000000000000000000000000000000000000000000076030000000000000000000000000000000000000000000000000000000000000002000000000000000000000000000000000000000000000000000000000000006000000000000000000000000000000000000000000000000000000000000000160003010011010000000000000000000000000003d09000000000000000000000000000000000000000000000000000000000000000000000000000000000760600000000000000000000000000000000000000000000000000000000000000010000000000000000000000000000000000000000000000000000000000000060000000000000000000000000000000000000000000000000000000000000001600030100110100000000000000000000000000030d400000000000000000000000000000000000000000000000000000000000000000000000000000000076060000000000000000000000000000000000000000000000000000000000000002000000000000000000000000000000000000000000000000000000000000006000000000000000000000000000000000000000000000000000000000000000160003010011010000000000000000000000000003d09000000000000000000000000000000000000000000000000000000000000000000000000000000000767400000000000000000000000000000000000000000000000000000000000000010000000000000000000000000000000000000000000000000000000000000060000000000000000000000000000000000000000000000000000000000000001600030100110100000000000000000000000000030d400000000000000000000000000000000000000000000000000000000000000000000000000000000076740000000000000000000000000000000000000000000000000000000000000002000000000000000000000000000000000000000000000000000000000000006000000000000000000000000000000000000000000000000000000000000000160003010011010000000000000000000000000003d0900000000000000000000000000000000000000000000000000000000000000000000000000000000075d500000000000000000000000000000000000000000000000000000000000000010000000000000000000000000000000000000000000000000000000000000060000000000000000000000000000000000000000000000000000000000000001600030100110100000000000000000000000000030d400000000000000000000000000000000000000000000000000000000000000000000000000000000075d50000000000000000000000000000000000000000000000000000000000000002000000000000000000000000000000000000000000000000000000000000006000000000000000000000000000000000000000000000000000000000000000160003010011010000000000000000000000000003d09000000000000000000000",
        "nonce": "0x9a",
        "chainId": "0x868b"
      },
      "additionalContracts": [],
      "isFixedGasLimit": false
    },
    {
      "hash": "0x142a3327ddc079fff82595d4b198c0221b39f3e42767cf0016bb13e3814ef009",
      "transactionType": "CALL",
      "contractName": null,
      "contractAddress": "0x57558cb8d6005de0bae8a2789d5efaae52dba5a8",
      "function": "setPeer(uint32,bytes32)",
      "arguments": [
        "30211",
        "0x000000000000000000000000a057d8d4fc86a62801ce363c169b0a8d192f6cee"
      ],
      "transaction": {
        "from": "0x45dce8e4f2dc005a5f28206a46cb034697eeda8e",
        "to": "0x57558cb8d6005de0bae8a2789d5efaae52dba5a8",
        "gas": "0x13a45",
        "value": "0x0",
        "input": "0x3400288b0000000000000000000000000000000000000000000000000000000000007603000000000000000000000000a057d8d4fc86a62801ce363c169b0a8d192f6cee",
        "nonce": "0x9b",
        "chainId": "0x868b"
      },
      "additionalContracts": [],
      "isFixedGasLimit": false
    },
    {
      "hash": "0xe37620152ca90f0631c4d4493b8c575a3bca1a2489c8fcdae7c8930fc6d7a498",
      "transactionType": "CALL",
      "contractName": null,
      "contractAddress": "0x57558cb8d6005de0bae8a2789d5efaae52dba5a8",
      "function": "setPeer(uint32,bytes32)",
      "arguments": [
        "30214",
        "0x00000000000000000000000057558cb8d6005de0bae8a2789d5efaae52dba5a8"
      ],
      "transaction": {
        "from": "0x45dce8e4f2dc005a5f28206a46cb034697eeda8e",
        "to": "0x57558cb8d6005de0bae8a2789d5efaae52dba5a8",
        "gas": "0x128be",
        "value": "0x0",
        "input": "0x3400288b000000000000000000000000000000000000000000000000000000000000760600000000000000000000000057558cb8d6005de0bae8a2789d5efaae52dba5a8",
        "nonce": "0x9c",
        "chainId": "0x868b"
      },
      "additionalContracts": [],
      "isFixedGasLimit": false
    },
    {
      "hash": "0xe1af9e2603da3c9459139b118ce3f4959a384b7d5baf5697300b974c19b1fa4c",
      "transactionType": "CALL",
      "contractName": null,
      "contractAddress": "0x1a44076050125825900e736c501f859c50fe728c",
      "function": "setConfig(address,address,(uint32,uint32,bytes)[])",
      "arguments": [
        "0x57558Cb8d6005DE0BAe8a2789d5EfaaE52dba5a8",
        "0x2367325334447C5E1E0f1b3a6fB947b262F58312",
        "[(30211, 2, 0x0000000000000000000000000000000000000000000000000000000000000020000000000000000000000000000000000000000000000000000000000000000000000000000000000000000000000000000000000000000000000000000000030000000000000000000000000000000000000000000000000000000000000000000000000000000000000000000000000000000000000000000000000000000000000000000000000000000000000000000000000000000000000000000000c000000000000000000000000000000000000000000000000000000000000001400000000000000000000000000000000000000000000000000000000000000003000000000000000000000000315b0e76a510607bb0f706b17716f426d5b385b8000000000000000000000000acde1f22eeab249d3ca6ba8805c8fee9f52a16e7000000000000000000000000ce8358bc28dd8296ce8caf1cd2b44787abd658870000000000000000000000000000000000000000000000000000000000000000)]"
      ],
      "transaction": {
        "from": "0x45dce8e4f2dc005a5f28206a46cb034697eeda8e",
        "to": "0x1a44076050125825900e736c501f859c50fe728c",
        "gas": "0x3a0bd",
        "value": "0x0",
        "input": "0x6dbd9f9000000000000000000000000057558cb8d6005de0bae8a2789d5efaae52dba5a80000000000000000000000002367325334447c5e1e0f1b3a6fb947b262f5831200000000000000000000000000000000000000000000000000000000000000600000000000000000000000000000000000000000000000000000000000000001000000000000000000000000000000000000000000000000000000000000002000000000000000000000000000000000000000000000000000000000000076030000000000000000000000000000000000000000000000000000000000000002000000000000000000000000000000000000000000000000000000000000006000000000000000000000000000000000000000000000000000000000000001800000000000000000000000000000000000000000000000000000000000000020000000000000000000000000000000000000000000000000000000000000000000000000000000000000000000000000000000000000000000000000000000030000000000000000000000000000000000000000000000000000000000000000000000000000000000000000000000000000000000000000000000000000000000000000000000000000000000000000000000000000000000000000000000c000000000000000000000000000000000000000000000000000000000000001400000000000000000000000000000000000000000000000000000000000000003000000000000000000000000315b0e76a510607bb0f706b17716f426d5b385b8000000000000000000000000acde1f22eeab249d3ca6ba8805c8fee9f52a16e7000000000000000000000000ce8358bc28dd8296ce8caf1cd2b44787abd658870000000000000000000000000000000000000000000000000000000000000000",
        "nonce": "0x9d",
        "chainId": "0x868b"
      },
      "additionalContracts": [],
      "isFixedGasLimit": false
    },
    {
      "hash": "0xac3f10dd402eef2401807da16d1d191efe234f11fefb304513e544789a79fac6",
      "transactionType": "CALL",
      "contractName": null,
      "contractAddress": "0x1a44076050125825900e736c501f859c50fe728c",
      "function": "setConfig(address,address,(uint32,uint32,bytes)[])",
      "arguments": [
        "0x57558Cb8d6005DE0BAe8a2789d5EfaaE52dba5a8",
        "0xc1B621b18187F74c8F6D52a6F709Dd2780C09821",
        "[(30211, 2, 0x0000000000000000000000000000000000000000000000000000000000000020000000000000000000000000000000000000000000000000000000000000000000000000000000000000000000000000000000000000000000000000000000030000000000000000000000000000000000000000000000000000000000000000000000000000000000000000000000000000000000000000000000000000000000000000000000000000000000000000000000000000000000000000000000c000000000000000000000000000000000000000000000000000000000000001400000000000000000000000000000000000000000000000000000000000000003000000000000000000000000315b0e76a510607bb0f706b17716f426d5b385b8000000000000000000000000acde1f22eeab249d3ca6ba8805c8fee9f52a16e7000000000000000000000000ce8358bc28dd8296ce8caf1cd2b44787abd658870000000000000000000000000000000000000000000000000000000000000000)]"
      ],
      "transaction": {
        "from": "0x45dce8e4f2dc005a5f28206a46cb034697eeda8e",
        "to": "0x1a44076050125825900e736c501f859c50fe728c",
        "gas": "0x39f54",
        "value": "0x0",
        "input": "0x6dbd9f9000000000000000000000000057558cb8d6005de0bae8a2789d5efaae52dba5a8000000000000000000000000c1b621b18187f74c8f6d52a6f709dd2780c0982100000000000000000000000000000000000000000000000000000000000000600000000000000000000000000000000000000000000000000000000000000001000000000000000000000000000000000000000000000000000000000000002000000000000000000000000000000000000000000000000000000000000076030000000000000000000000000000000000000000000000000000000000000002000000000000000000000000000000000000000000000000000000000000006000000000000000000000000000000000000000000000000000000000000001800000000000000000000000000000000000000000000000000000000000000020000000000000000000000000000000000000000000000000000000000000000000000000000000000000000000000000000000000000000000000000000000030000000000000000000000000000000000000000000000000000000000000000000000000000000000000000000000000000000000000000000000000000000000000000000000000000000000000000000000000000000000000000000000c000000000000000000000000000000000000000000000000000000000000001400000000000000000000000000000000000000000000000000000000000000003000000000000000000000000315b0e76a510607bb0f706b17716f426d5b385b8000000000000000000000000acde1f22eeab249d3ca6ba8805c8fee9f52a16e7000000000000000000000000ce8358bc28dd8296ce8caf1cd2b44787abd658870000000000000000000000000000000000000000000000000000000000000000",
        "nonce": "0x9e",
        "chainId": "0x868b"
      },
      "additionalContracts": [],
      "isFixedGasLimit": false
    },
    {
      "hash": "0x09d249ecd6eb20316eb52593d20a76a6ffe3d91da6cedcb39004759ccd18e63c",
      "transactionType": "CALL",
      "contractName": null,
      "contractAddress": "0x1a44076050125825900e736c501f859c50fe728c",
      "function": "setConfig(address,address,(uint32,uint32,bytes)[])",
      "arguments": [
        "0x57558Cb8d6005DE0BAe8a2789d5EfaaE52dba5a8",
        "0x2367325334447C5E1E0f1b3a6fB947b262F58312",
        "[(30214, 2, 0x0000000000000000000000000000000000000000000000000000000000000020000000000000000000000000000000000000000000000000000000000000000000000000000000000000000000000000000000000000000000000000000000030000000000000000000000000000000000000000000000000000000000000000000000000000000000000000000000000000000000000000000000000000000000000000000000000000000000000000000000000000000000000000000000c000000000000000000000000000000000000000000000000000000000000001400000000000000000000000000000000000000000000000000000000000000003000000000000000000000000315b0e76a510607bb0f706b17716f426d5b385b8000000000000000000000000acde1f22eeab249d3ca6ba8805c8fee9f52a16e7000000000000000000000000ce8358bc28dd8296ce8caf1cd2b44787abd658870000000000000000000000000000000000000000000000000000000000000000)]"
      ],
      "transaction": {
        "from": "0x45dce8e4f2dc005a5f28206a46cb034697eeda8e",
        "to": "0x1a44076050125825900e736c501f859c50fe728c",
        "gas": "0x3a0bd",
        "value": "0x0",
        "input": "0x6dbd9f9000000000000000000000000057558cb8d6005de0bae8a2789d5efaae52dba5a80000000000000000000000002367325334447c5e1e0f1b3a6fb947b262f5831200000000000000000000000000000000000000000000000000000000000000600000000000000000000000000000000000000000000000000000000000000001000000000000000000000000000000000000000000000000000000000000002000000000000000000000000000000000000000000000000000000000000076060000000000000000000000000000000000000000000000000000000000000002000000000000000000000000000000000000000000000000000000000000006000000000000000000000000000000000000000000000000000000000000001800000000000000000000000000000000000000000000000000000000000000020000000000000000000000000000000000000000000000000000000000000000000000000000000000000000000000000000000000000000000000000000000030000000000000000000000000000000000000000000000000000000000000000000000000000000000000000000000000000000000000000000000000000000000000000000000000000000000000000000000000000000000000000000000c000000000000000000000000000000000000000000000000000000000000001400000000000000000000000000000000000000000000000000000000000000003000000000000000000000000315b0e76a510607bb0f706b17716f426d5b385b8000000000000000000000000acde1f22eeab249d3ca6ba8805c8fee9f52a16e7000000000000000000000000ce8358bc28dd8296ce8caf1cd2b44787abd658870000000000000000000000000000000000000000000000000000000000000000",
        "nonce": "0x9f",
        "chainId": "0x868b"
      },
      "additionalContracts": [],
      "isFixedGasLimit": false
    },
    {
      "hash": "0x0bfccbc818866a3e01d08747fd8ca4060a3b757ae9f3df8ca6a99786c8be205a",
      "transactionType": "CALL",
      "contractName": null,
      "contractAddress": "0x1a44076050125825900e736c501f859c50fe728c",
      "function": "setConfig(address,address,(uint32,uint32,bytes)[])",
      "arguments": [
        "0x57558Cb8d6005DE0BAe8a2789d5EfaaE52dba5a8",
        "0xc1B621b18187F74c8F6D52a6F709Dd2780C09821",
        "[(30214, 2, 0x0000000000000000000000000000000000000000000000000000000000000020000000000000000000000000000000000000000000000000000000000000000000000000000000000000000000000000000000000000000000000000000000030000000000000000000000000000000000000000000000000000000000000000000000000000000000000000000000000000000000000000000000000000000000000000000000000000000000000000000000000000000000000000000000c000000000000000000000000000000000000000000000000000000000000001400000000000000000000000000000000000000000000000000000000000000003000000000000000000000000315b0e76a510607bb0f706b17716f426d5b385b8000000000000000000000000acde1f22eeab249d3ca6ba8805c8fee9f52a16e7000000000000000000000000ce8358bc28dd8296ce8caf1cd2b44787abd658870000000000000000000000000000000000000000000000000000000000000000)]"
      ],
      "transaction": {
        "from": "0x45dce8e4f2dc005a5f28206a46cb034697eeda8e",
        "to": "0x1a44076050125825900e736c501f859c50fe728c",
        "gas": "0x39f54",
        "value": "0x0",
        "input": "0x6dbd9f9000000000000000000000000057558cb8d6005de0bae8a2789d5efaae52dba5a8000000000000000000000000c1b621b18187f74c8f6d52a6f709dd2780c0982100000000000000000000000000000000000000000000000000000000000000600000000000000000000000000000000000000000000000000000000000000001000000000000000000000000000000000000000000000000000000000000002000000000000000000000000000000000000000000000000000000000000076060000000000000000000000000000000000000000000000000000000000000002000000000000000000000000000000000000000000000000000000000000006000000000000000000000000000000000000000000000000000000000000001800000000000000000000000000000000000000000000000000000000000000020000000000000000000000000000000000000000000000000000000000000000000000000000000000000000000000000000000000000000000000000000000030000000000000000000000000000000000000000000000000000000000000000000000000000000000000000000000000000000000000000000000000000000000000000000000000000000000000000000000000000000000000000000000c000000000000000000000000000000000000000000000000000000000000001400000000000000000000000000000000000000000000000000000000000000003000000000000000000000000315b0e76a510607bb0f706b17716f426d5b385b8000000000000000000000000acde1f22eeab249d3ca6ba8805c8fee9f52a16e7000000000000000000000000ce8358bc28dd8296ce8caf1cd2b44787abd658870000000000000000000000000000000000000000000000000000000000000000",
        "nonce": "0xa0",
        "chainId": "0x868b"
      },
      "additionalContracts": [],
      "isFixedGasLimit": false
    },
    {
      "hash": "0x4df1284514486f7e8e9e1637287e2c17cf91cd546bb764c8234a6ef567b9ad04",
      "transactionType": "CALL",
      "contractName": null,
      "contractAddress": "0x1a44076050125825900e736c501f859c50fe728c",
      "function": "setSendLibrary(address,uint32,address)",
      "arguments": [
        "0x57558Cb8d6005DE0BAe8a2789d5EfaaE52dba5a8",
        "30211",
        "0x2367325334447C5E1E0f1b3a6fB947b262F58312"
      ],
      "transaction": {
        "from": "0x45dce8e4f2dc005a5f28206a46cb034697eeda8e",
        "to": "0x1a44076050125825900e736c501f859c50fe728c",
        "gas": "0x149cd",
        "value": "0x0",
        "input": "0x9535ff3000000000000000000000000057558cb8d6005de0bae8a2789d5efaae52dba5a800000000000000000000000000000000000000000000000000000000000076030000000000000000000000002367325334447c5e1e0f1b3a6fb947b262f58312",
        "nonce": "0xa1",
        "chainId": "0x868b"
      },
      "additionalContracts": [],
      "isFixedGasLimit": false
    },
    {
      "hash": "0x88dc5de01007cf5c88b3df2b4a20bef2de26ba6e52eb6fb425bf2ea54985d431",
      "transactionType": "CALL",
      "contractName": null,
      "contractAddress": "0x1a44076050125825900e736c501f859c50fe728c",
      "function": "setReceiveLibrary(address,uint32,address,uint256)",
      "arguments": [
        "0x57558Cb8d6005DE0BAe8a2789d5EfaaE52dba5a8",
        "30211",
        "0xc1B621b18187F74c8F6D52a6F709Dd2780C09821",
        "0"
      ],
      "transaction": {
        "from": "0x45dce8e4f2dc005a5f28206a46cb034697eeda8e",
        "to": "0x1a44076050125825900e736c501f859c50fe728c",
        "gas": "0x15b7f",
        "value": "0x0",
        "input": "0x6a14d71500000000000000000000000057558cb8d6005de0bae8a2789d5efaae52dba5a80000000000000000000000000000000000000000000000000000000000007603000000000000000000000000c1b621b18187f74c8f6d52a6f709dd2780c098210000000000000000000000000000000000000000000000000000000000000000",
        "nonce": "0xa2",
        "chainId": "0x868b"
      },
      "additionalContracts": [],
      "isFixedGasLimit": false
    },
    {
      "hash": "0x7ab4df7d916a1672749d962ded460f038a6cd99a8b271d5e6d4510982aab2e36",
      "transactionType": "CALL",
      "contractName": null,
      "contractAddress": "0x1a44076050125825900e736c501f859c50fe728c",
      "function": "setSendLibrary(address,uint32,address)",
      "arguments": [
        "0x57558Cb8d6005DE0BAe8a2789d5EfaaE52dba5a8",
        "30214",
        "0x2367325334447C5E1E0f1b3a6fB947b262F58312"
      ],
      "transaction": {
        "from": "0x45dce8e4f2dc005a5f28206a46cb034697eeda8e",
        "to": "0x1a44076050125825900e736c501f859c50fe728c",
        "gas": "0x149cd",
        "value": "0x0",
        "input": "0x9535ff3000000000000000000000000057558cb8d6005de0bae8a2789d5efaae52dba5a800000000000000000000000000000000000000000000000000000000000076060000000000000000000000002367325334447c5e1e0f1b3a6fb947b262f58312",
        "nonce": "0xa3",
        "chainId": "0x868b"
      },
      "additionalContracts": [],
      "isFixedGasLimit": false
    },
    {
      "hash": "0xbcece82403f5fa28f0b0de7e79befa17c8a3e2c10f8c389b14f2686610b30e22",
      "transactionType": "CALL",
      "contractName": null,
      "contractAddress": "0x1a44076050125825900e736c501f859c50fe728c",
      "function": "setReceiveLibrary(address,uint32,address,uint256)",
      "arguments": [
        "0x57558Cb8d6005DE0BAe8a2789d5EfaaE52dba5a8",
        "30214",
        "0xc1B621b18187F74c8F6D52a6F709Dd2780C09821",
        "0"
      ],
      "transaction": {
        "from": "0x45dce8e4f2dc005a5f28206a46cb034697eeda8e",
        "to": "0x1a44076050125825900e736c501f859c50fe728c",
        "gas": "0x15b7f",
        "value": "0x0",
        "input": "0x6a14d71500000000000000000000000057558cb8d6005de0bae8a2789d5efaae52dba5a80000000000000000000000000000000000000000000000000000000000007606000000000000000000000000c1b621b18187f74c8f6d52a6f709dd2780c098210000000000000000000000000000000000000000000000000000000000000000",
        "nonce": "0xa4",
        "chainId": "0x868b"
      },
      "additionalContracts": [],
      "isFixedGasLimit": false
    }
  ],
  "receipts": [
    {
      "status": "0x1",
      "cumulativeGasUsed": "0x2c4061",
      "logs": [
        {
          "address": "0x57558cb8d6005de0bae8a2789d5efaae52dba5a8",
          "topics": [
            "0xbe4864a8e820971c0247f5992e2da559595f7bf076a21cb5928d443d2a13b674"
          ],
          "data": "0x00000000000000000000000000000000000000000000000000000000000000200000000000000000000000000000000000000000000000000000000000000032000000000000000000000000000000000000000000000000000000000000064000000000000000000000000000000000000000000000000000000000000006e00000000000000000000000000000000000000000000000000000000000000780000000000000000000000000000000000000000000000000000000000000082000000000000000000000000000000000000000000000000000000000000008c000000000000000000000000000000000000000000000000000000000000009600000000000000000000000000000000000000000000000000000000000000a000000000000000000000000000000000000000000000000000000000000000aa00000000000000000000000000000000000000000000000000000000000000b400000000000000000000000000000000000000000000000000000000000000be00000000000000000000000000000000000000000000000000000000000000c800000000000000000000000000000000000000000000000000000000000000d200000000000000000000000000000000000000000000000000000000000000dc00000000000000000000000000000000000000000000000000000000000000e600000000000000000000000000000000000000000000000000000000000000f000000000000000000000000000000000000000000000000000000000000000fa0000000000000000000000000000000000000000000000000000000000000104000000000000000000000000000000000000000000000000000000000000010e00000000000000000000000000000000000000000000000000000000000001180000000000000000000000000000000000000000000000000000000000000122000000000000000000000000000000000000000000000000000000000000012c00000000000000000000000000000000000000000000000000000000000001360000000000000000000000000000000000000000000000000000000000000140000000000000000000000000000000000000000000000000000000000000014a0000000000000000000000000000000000000000000000000000000000000154000000000000000000000000000000000000000000000000000000000000015e00000000000000000000000000000000000000000000000000000000000001680000000000000000000000000000000000000000000000000000000000000172000000000000000000000000000000000000000000000000000000000000017c00000000000000000000000000000000000000000000000000000000000001860000000000000000000000000000000000000000000000000000000000000190000000000000000000000000000000000000000000000000000000000000019a00000000000000000000000000000000000000000000000000000000000001a400000000000000000000000000000000000000000000000000000000000001ae00000000000000000000000000000000000000000000000000000000000001b800000000000000000000000000000000000000000000000000000000000001c200000000000000000000000000000000000000000000000000000000000001cc00000000000000000000000000000000000000000000000000000000000001d600000000000000000000000000000000000000000000000000000000000001e000000000000000000000000000000000000000000000000000000000000001ea00000000000000000000000000000000000000000000000000000000000001f400000000000000000000000000000000000000000000000000000000000001fe00000000000000000000000000000000000000000000000000000000000002080000000000000000000000000000000000000000000000000000000000000212000000000000000000000000000000000000000000000000000000000000021c00000000000000000000000000000000000000000000000000000000000002260000000000000000000000000000000000000000000000000000000000000230000000000000000000000000000000000000000000000000000000000000023a0000000000000000000000000000000000000000000000000000000000000244000000000000000000000000000000000000000000000000000000000000024e0000000000000000000000000000000000000000000000000000000000000764800000000000000000000000000000000000000000000000000000000000000010000000000000000000000000000000000000000000000000000000000000060000000000000000000000000000000000000000000000000000000000000001600030100110100000000000000000000000000030d400000000000000000000000000000000000000000000000000000000000000000000000000000000076480000000000000000000000000000000000000000000000000000000000000002000000000000000000000000000000000000000000000000000000000000006000000000000000000000000000000000000000000000000000000000000000160003010011010000000000000000000000000003d09000000000000000000000000000000000000000000000000000000000000000000000000000000000762f00000000000000000000000000000000000000000000000000000000000000010000000000000000000000000000000000000000000000000000000000000060000000000000000000000000000000000000000000000000000000000000001600030100110100000000000000000000000000030d4000000000000000000000000000000000000000000000000000000000000000000000000000000000762f0000000000000000000000000000000000000000000000000000000000000002000000000000000000000000000000000000000000000000000000000000006000000000000000000000000000000000000000000000000000000000000000160003010011010000000000000000000000000003d09000000000000000000000000000000000000000000000000000000000000000000000000000000000764200000000000000000000000000000000000000000000000000000000000000010000000000000000000000000000000000000000000000000000000000000060000000000000000000000000000000000000000000000000000000000000001600030100110100000000000000000000000000030d400000000000000000000000000000000000000000000000000000000000000000000000000000000076420000000000000000000000000000000000000000000000000000000000000002000000000000000000000000000000000000000000000000000000000000006000000000000000000000000000000000000000000000000000000000000000160003010011010000000000000000000000000003d09000000000000000000000000000000000000000000000000000000000000000000000000000000000767c00000000000000000000000000000000000000000000000000000000000000010000000000000000000000000000000000000000000000000000000000000060000000000000000000000000000000000000000000000000000000000000001600030100110100000000000000000000000000030d4000000000000000000000000000000000000000000000000000000000000000000000000000000000767c0000000000000000000000000000000000000000000000000000000000000002000000000000000000000000000000000000000000000000000000000000006000000000000000000000000000000000000000000000000000000000000000160003010011010000000000000000000000000003d09000000000000000000000000000000000000000000000000000000000000000000000000000000000768300000000000000000000000000000000000000000000000000000000000000010000000000000000000000000000000000000000000000000000000000000060000000000000000000000000000000000000000000000000000000000000001600030100110100000000000000000000000000030d400000000000000000000000000000000000000000000000000000000000000000000000000000000076830000000000000000000000000000000000000000000000000000000000000002000000000000000000000000000000000000000000000000000000000000006000000000000000000000000000000000000000000000000000000000000000160003010011010000000000000000000000000003d09000000000000000000000000000000000000000000000000000000000000000000000000000000000759e00000000000000000000000000000000000000000000000000000000000000010000000000000000000000000000000000000000000000000000000000000060000000000000000000000000000000000000000000000000000000000000001600030100110100000000000000000000000000030d4000000000000000000000000000000000000000000000000000000000000000000000000000000000759e0000000000000000000000000000000000000000000000000000000000000002000000000000000000000000000000000000000000000000000000000000006000000000000000000000000000000000000000000000000000000000000000160003010011010000000000000000000000000003d09000000000000000000000000000000000000000000000000000000000000000000000000000000000759f00000000000000000000000000000000000000000000000000000000000000010000000000000000000000000000000000000000000000000000000000000060000000000000000000000000000000000000000000000000000000000000001600030100110100000000000000000000000000030d4000000000000000000000000000000000000000000000000000000000000000000000000000000000759f0000000000000000000000000000000000000000000000000000000000000002000000000000000000000000000000000000000000000000000000000000006000000000000000000000000000000000000000000000000000000000000000160003010011010000000000000000000000000003d09000000000000000000000000000000000000000000000000000000000000000000000000000000000759d00000000000000000000000000000000000000000000000000000000000000010000000000000000000000000000000000000000000000000000000000000060000000000000000000000000000000000000000000000000000000000000001600030100110100000000000000000000000000030d4000000000000000000000000000000000000000000000000000000000000000000000000000000000759d0000000000000000000000000000000000000000000000000000000000000002000000000000000000000000000000000000000000000000000000000000006000000000000000000000000000000000000000000000000000000000000000160003010011010000000000000000000000000003d09000000000000000000000000000000000000000000000000000000000000000000000000000000000759a00000000000000000000000000000000000000000000000000000000000000010000000000000000000000000000000000000000000000000000000000000060000000000000000000000000000000000000000000000000000000000000001600030100110100000000000000000000000000030d4000000000000000000000000000000000000000000000000000000000000000000000000000000000759a0000000000000000000000000000000000000000000000000000000000000002000000000000000000000000000000000000000000000000000000000000006000000000000000000000000000000000000000000000000000000000000000160003010011010000000000000000000000000003d09000000000000000000000000000000000000000000000000000000000000000000000000000000000759600000000000000000000000000000000000000000000000000000000000000010000000000000000000000000000000000000000000000000000000000000060000000000000000000000000000000000000000000000000000000000000001600030100110100000000000000000000000000030d400000000000000000000000000000000000000000000000000000000000000000000000000000000075960000000000000000000000000000000000000000000000000000000000000002000000000000000000000000000000000000000000000000000000000000006000000000000000000000000000000000000000000000000000000000000000160003010011010000000000000000000000000003d0900000000000000000000000000000000000000000000000000000000000000000000000000000000075ce00000000000000000000000000000000000000000000000000000000000000010000000000000000000000000000000000000000000000000000000000000060000000000000000000000000000000000000000000000000000000000000001600030100110100000000000000000000000000030d400000000000000000000000000000000000000000000000000000000000000000000000000000000075ce0000000000000000000000000000000000000000000000000000000000000002000000000000000000000000000000000000000000000000000000000000006000000000000000000000000000000000000000000000000000000000000000160003010011010000000000000000000000000003d09000000000000000000000000000000000000000000000000000000000000000000000000000000000759500000000000000000000000000000000000000000000000000000000000000010000000000000000000000000000000000000000000000000000000000000060000000000000000000000000000000000000000000000000000000000000001600030100110100000000000000000000000000030d400000000000000000000000000000000000000000000000000000000000000000000000000000000075950000000000000000000000000000000000000000000000000000000000000002000000000000000000000000000000000000000000000000000000000000006000000000000000000000000000000000000000000000000000000000000000160003010011010000000000000000000000000003d09000000000000000000000000000000000000000000000000000000000000000000000000000000000762300000000000000000000000000000000000000000000000000000000000000010000000000000000000000000000000000000000000000000000000000000060000000000000000000000000000000000000000000000000000000000000001600030100110100000000000000000000000000030d400000000000000000000000000000000000000000000000000000000000000000000000000000000076230000000000000000000000000000000000000000000000000000000000000002000000000000000000000000000000000000000000000000000000000000006000000000000000000000000000000000000000000000000000000000000000160003010011010000000000000000000000000003d0900000000000000000000000000000000000000000000000000000000000000000000000000000000075e800000000000000000000000000000000000000000000000000000000000000010000000000000000000000000000000000000000000000000000000000000060000000000000000000000000000000000000000000000000000000000000001600030100110100000000000000000000000000030d400000000000000000000000000000000000000000000000000000000000000000000000000000000075e80000000000000000000000000000000000000000000000000000000000000002000000000000000000000000000000000000000000000000000000000000006000000000000000000000000000000000000000000000000000000000000000160003010011010000000000000000000000000003d09000000000000000000000000000000000000000000000000000000000000000000000000000000000769a00000000000000000000000000000000000000000000000000000000000000010000000000000000000000000000000000000000000000000000000000000060000000000000000000000000000000000000000000000000000000000000001600030100110100000000000000000000000000030d4000000000000000000000000000000000000000000000000000000000000000000000000000000000769a0000000000000000000000000000000000000000000000000000000000000002000000000000000000000000000000000000000000000000000000000000006000000000000000000000000000000000000000000000000000000000000000160003010011010000000000000000000000000003d0900000000000000000000000000000000000000000000000000000000000000000000000000000000075e700000000000000000000000000000000000000000000000000000000000000010000000000000000000000000000000000000000000000000000000000000060000000000000000000000000000000000000000000000000000000000000001600030100110100000000000000000000000000030d400000000000000000000000000000000000000000000000000000000000000000000000000000000075e70000000000000000000000000000000000000000000000000000000000000002000000000000000000000000000000000000000000000000000000000000006000000000000000000000000000000000000000000000000000000000000000160003010011010000000000000000000000000003d09000000000000000000000000000000000000000000000000000000000000000000000000000000000766f00000000000000000000000000000000000000000000000000000000000000010000000000000000000000000000000000000000000000000000000000000060000000000000000000000000000000000000000000000000000000000000001600030100110100000000000000000000000000030d4000000000000000000000000000000000000000000000000000000000000000000000000000000000766f0000000000000000000000000000000000000000000000000000000000000002000000000000000000000000000000000000000000000000000000000000006000000000000000000000000000000000000000000000000000000000000000160003010011010000000000000000000000000003d09000000000000000000000000000000000000000000000000000000000000000000000000000000000767000000000000000000000000000000000000000000000000000000000000000010000000000000000000000000000000000000000000000000000000000000060000000000000000000000000000000000000000000000000000000000000001600030100110100000000000000000000000000030d400000000000000000000000000000000000000000000000000000000000000000000000000000000076700000000000000000000000000000000000000000000000000000000000000002000000000000000000000000000000000000000000000000000000000000006000000000000000000000000000000000000000000000000000000000000000160003010011010000000000000000000000000003d0900000000000000000000000000000000000000000000000000000000000000000000000000000000076a200000000000000000000000000000000000000000000000000000000000000010000000000000000000000000000000000000000000000000000000000000060000000000000000000000000000000000000000000000000000000000000001600030100110100000000000000000000000000030d400000000000000000000000000000000000000000000000000000000000000000000000000000000076a20000000000000000000000000000000000000000000000000000000000000002000000000000000000000000000000000000000000000000000000000000006000000000000000000000000000000000000000000000000000000000000000160003010011010000000000000000000000000003d0900000000000000000000000000000000000000000000000000000000000000000000000000000000076a800000000000000000000000000000000000000000000000000000000000000010000000000000000000000000000000000000000000000000000000000000060000000000000000000000000000000000000000000000000000000000000001600030100110100000000000000000000000000030d400000000000000000000000000000000000000000000000000000000000000000000000000000000076a80000000000000000000000000000000000000000000000000000000000000002000000000000000000000000000000000000000000000000000000000000006000000000000000000000000000000000000000000000000000000000000000160003010011010000000000000000000000000003d0900000000000000000000000000000000000000000000000000000000000000000000000000000000076a700000000000000000000000000000000000000000000000000000000000000010000000000000000000000000000000000000000000000000000000000000060000000000000000000000000000000000000000000000000000000000000001600030100110100000000000000000000000000030d400000000000000000000000000000000000000000000000000000000000000000000000000000000076a70000000000000000000000000000000000000000000000000000000000000002000000000000000000000000000000000000000000000000000000000000006000000000000000000000000000000000000000000000000000000000000000160003010011010000000000000000000000000003d09000000000000000000000000000000000000000000000000000000000000000000000000000000000760300000000000000000000000000000000000000000000000000000000000000010000000000000000000000000000000000000000000000000000000000000060000000000000000000000000000000000000000000000000000000000000001600030100110100000000000000000000000000030d400000000000000000000000000000000000000000000000000000000000000000000000000000000076030000000000000000000000000000000000000000000000000000000000000002000000000000000000000000000000000000000000000000000000000000006000000000000000000000000000000000000000000000000000000000000000160003010011010000000000000000000000000003d09000000000000000000000000000000000000000000000000000000000000000000000000000000000760600000000000000000000000000000000000000000000000000000000000000010000000000000000000000000000000000000000000000000000000000000060000000000000000000000000000000000000000000000000000000000000001600030100110100000000000000000000000000030d400000000000000000000000000000000000000000000000000000000000000000000000000000000076060000000000000000000000000000000000000000000000000000000000000002000000000000000000000000000000000000000000000000000000000000006000000000000000000000000000000000000000000000000000000000000000160003010011010000000000000000000000000003d09000000000000000000000000000000000000000000000000000000000000000000000000000000000767400000000000000000000000000000000000000000000000000000000000000010000000000000000000000000000000000000000000000000000000000000060000000000000000000000000000000000000000000000000000000000000001600030100110100000000000000000000000000030d400000000000000000000000000000000000000000000000000000000000000000000000000000000076740000000000000000000000000000000000000000000000000000000000000002000000000000000000000000000000000000000000000000000000000000006000000000000000000000000000000000000000000000000000000000000000160003010011010000000000000000000000000003d0900000000000000000000000000000000000000000000000000000000000000000000000000000000075d500000000000000000000000000000000000000000000000000000000000000010000000000000000000000000000000000000000000000000000000000000060000000000000000000000000000000000000000000000000000000000000001600030100110100000000000000000000000000030d400000000000000000000000000000000000000000000000000000000000000000000000000000000075d50000000000000000000000000000000000000000000000000000000000000002000000000000000000000000000000000000000000000000000000000000006000000000000000000000000000000000000000000000000000000000000000160003010011010000000000000000000000000003d09000000000000000000000",
          "blockHash": "0x5cc4881e0faead8b225e8bf41151710b8f80e95c4e03325c7924737021e9a5c5",
          "blockNumber": "0x1add62d",
          "transactionHash": "0x56f960ddd90df48e0c83546e8fd9abfd0ce4b57c385ae2a4e4b7765b28ad4c0f",
          "transactionIndex": "0x6",
          "logIndex": "0x0",
          "removed": false
        }
      ],
      "logsBloom": "0x00000000000000000000000000040000000000000000000000000000000000000000000000000000000000000000000400000000000000000000400000000000000000000000000000000000000000000000000000000000000000000000000000000000000000000000000000000000000000000000000000000000000000000000000000000000000000000000000000000000000000000000000000080000000000002000000000000000000000000000000000000000000000000000000000000000000000000000000002000000000000000000000000000000000000000000000000000000000000000000000000000000000000000000000000000000",
      "type": "0x2",
      "transactionHash": "0x56f960ddd90df48e0c83546e8fd9abfd0ce4b57c385ae2a4e4b7765b28ad4c0f",
      "transactionIndex": "0x6",
      "blockHash": "0x5cc4881e0faead8b225e8bf41151710b8f80e95c4e03325c7924737021e9a5c5",
      "blockNumber": "0x1add62d",
      "gasUsed": "0x78115",
      "effectiveGasPrice": "0x1ef",
      "from": "0x45dce8e4f2dc005a5f28206a46cb034697eeda8e",
      "to": "0x57558cb8d6005de0bae8a2789d5efaae52dba5a8",
      "contractAddress": null,
      "l1BaseFeeScalar": "0x4e20",
      "l1BlobBaseFee": "0x1",
      "l1BlobBaseFeeScalar": "0x95506",
      "l1Fee": "0xca3665166",
      "l1GasPrice": "0xe6bfe5b",
      "l1GasUsed": "0x2bd1"
    },
    {
      "status": "0x1",
      "cumulativeGasUsed": "0x2d1744",
      "logs": [
        {
          "address": "0x57558cb8d6005de0bae8a2789d5efaae52dba5a8",
          "topics": [
            "0x238399d427b947898edb290f5ff0f9109849b1c3ba196a42e35f00c50a54b98b"
          ],
          "data": "0x0000000000000000000000000000000000000000000000000000000000007603000000000000000000000000a057d8d4fc86a62801ce363c169b0a8d192f6cee",
          "blockHash": "0x5cc4881e0faead8b225e8bf41151710b8f80e95c4e03325c7924737021e9a5c5",
          "blockNumber": "0x1add62d",
          "transactionHash": "0x142a3327ddc079fff82595d4b198c0221b39f3e42767cf0016bb13e3814ef009",
          "transactionIndex": "0x7",
          "logIndex": "0x1",
          "removed": false
        }
      ],
      "logsBloom": "0x00000000000000000000000000040000000000000000000000000000000000000000000000000000000000000000000400000000000000000800000000000000000000000000000000000000000000000000000000000000000000000000000000000000000000000000000000000000000000000000000000000000000000000000000000000000000000000000000000000000000000000000000000000000000000002000000000000000000000000000000000000000000002000000000000000000000000000000000000000000000000000000000000040000000000000000000000000000000000000000000000000000000000000000000000000000",
      "type": "0x2",
      "transactionHash": "0x142a3327ddc079fff82595d4b198c0221b39f3e42767cf0016bb13e3814ef009",
      "transactionIndex": "0x7",
      "blockHash": "0x5cc4881e0faead8b225e8bf41151710b8f80e95c4e03325c7924737021e9a5c5",
      "blockNumber": "0x1add62d",
      "gasUsed": "0xd6e3",
      "effectiveGasPrice": "0x1ef",
      "from": "0x45dce8e4f2dc005a5f28206a46cb034697eeda8e",
      "to": "0x57558cb8d6005de0bae8a2789d5efaae52dba5a8",
      "contractAddress": null,
      "l1BaseFeeScalar": "0x4e20",
      "l1BlobBaseFee": "0x1",
      "l1BlobBaseFeeScalar": "0x95506",
      "l1Fee": "0x1cd7fcb9d",
      "l1GasPrice": "0xe6bfe5b",
      "l1GasUsed": "0x640"
    },
    {
      "status": "0x1",
      "cumulativeGasUsed": "0x2dee1b",
      "logs": [
        {
          "address": "0x57558cb8d6005de0bae8a2789d5efaae52dba5a8",
          "topics": [
            "0x238399d427b947898edb290f5ff0f9109849b1c3ba196a42e35f00c50a54b98b"
          ],
          "data": "0x000000000000000000000000000000000000000000000000000000000000760600000000000000000000000057558cb8d6005de0bae8a2789d5efaae52dba5a8",
          "blockHash": "0x5cc4881e0faead8b225e8bf41151710b8f80e95c4e03325c7924737021e9a5c5",
          "blockNumber": "0x1add62d",
          "transactionHash": "0xe37620152ca90f0631c4d4493b8c575a3bca1a2489c8fcdae7c8930fc6d7a498",
          "transactionIndex": "0x8",
          "logIndex": "0x2",
          "removed": false
        }
      ],
      "logsBloom": "0x00000000000000000000000000040000000000000000000000000000000000000000000000000000000000000000000400000000000000000800000000000000000000000000000000000000000000000000000000000000000000000000000000000000000000000000000000000000000000000000000000000000000000000000000000000000000000000000000000000000000000000000000000000000000000002000000000000000000000000000000000000000000002000000000000000000000000000000000000000000000000000000000000040000000000000000000000000000000000000000000000000000000000000000000000000000",
      "type": "0x2",
      "transactionHash": "0xe37620152ca90f0631c4d4493b8c575a3bca1a2489c8fcdae7c8930fc6d7a498",
      "transactionIndex": "0x8",
      "blockHash": "0x5cc4881e0faead8b225e8bf41151710b8f80e95c4e03325c7924737021e9a5c5",
      "blockNumber": "0x1add62d",
      "gasUsed": "0xd6d7",
      "effectiveGasPrice": "0x1ef",
      "from": "0x45dce8e4f2dc005a5f28206a46cb034697eeda8e",
      "to": "0x57558cb8d6005de0bae8a2789d5efaae52dba5a8",
      "contractAddress": null,
      "l1BaseFeeScalar": "0x4e20",
      "l1BlobBaseFee": "0x1",
      "l1BlobBaseFeeScalar": "0x95506",
      "l1Fee": "0x1cd7fcb9d",
      "l1GasPrice": "0xe6bfe5b",
      "l1GasUsed": "0x640"
    },
    {
      "status": "0x1",
      "cumulativeGasUsed": "0x306924",
      "logs": [
        {
          "address": "0x2367325334447c5e1e0f1b3a6fb947b262f58312",
          "topics": [
            "0x82118522aa536ac0e96cc5c689407ae42b89d592aa133890a01f1509842f5081"
          ],
          "data": "0x00000000000000000000000057558cb8d6005de0bae8a2789d5efaae52dba5a800000000000000000000000000000000000000000000000000000000000076030000000000000000000000000000000000000000000000000000000000000060000000000000000000000000000000000000000000000000000000000000000000000000000000000000000000000000000000000000000000000000000000030000000000000000000000000000000000000000000000000000000000000000000000000000000000000000000000000000000000000000000000000000000000000000000000000000000000000000000000000000000000000000000000c000000000000000000000000000000000000000000000000000000000000001400000000000000000000000000000000000000000000000000000000000000003000000000000000000000000315b0e76a510607bb0f706b17716f426d5b385b8000000000000000000000000acde1f22eeab249d3ca6ba8805c8fee9f52a16e7000000000000000000000000ce8358bc28dd8296ce8caf1cd2b44787abd658870000000000000000000000000000000000000000000000000000000000000000",
          "blockHash": "0x5cc4881e0faead8b225e8bf41151710b8f80e95c4e03325c7924737021e9a5c5",
          "blockNumber": "0x1add62d",
          "transactionHash": "0xe1af9e2603da3c9459139b118ce3f4959a384b7d5baf5697300b974c19b1fa4c",
          "transactionIndex": "0x9",
          "logIndex": "0x3",
          "removed": false
        }
      ],
      "logsBloom": "0x00000000000000000000000000000000000000000000000000000000000000000000000000000000000000000000000000000000000000000000000000000000000000000000000000000000000000000000000000000000002000000000000000000000000000000000000000000000000000000000000000010000000000000000000000000000000000000000000000000000200000000000000000000000000000000000000000000002000000000000000000000000000000000000000000000080000000000000000000000000000000000000000000000000000000000000000000000000000000000000000000000000000000000000000000000010",
      "type": "0x2",
      "transactionHash": "0xe1af9e2603da3c9459139b118ce3f4959a384b7d5baf5697300b974c19b1fa4c",
      "transactionIndex": "0x9",
      "blockHash": "0x5cc4881e0faead8b225e8bf41151710b8f80e95c4e03325c7924737021e9a5c5",
      "blockNumber": "0x1add62d",
      "gasUsed": "0x27b09",
      "effectiveGasPrice": "0x1ef",
      "from": "0x45dce8e4f2dc005a5f28206a46cb034697eeda8e",
      "to": "0x1a44076050125825900e736c501f859c50fe728c",
      "contractAddress": null,
      "l1BaseFeeScalar": "0x4e20",
      "l1BlobBaseFee": "0x1",
      "l1BlobBaseFeeScalar": "0x95506",
      "l1Fee": "0x4221c6e7a",
      "l1GasPrice": "0xe6bfe5b",
      "l1GasUsed": "0xe54"
    },
    {
      "status": "0x1",
      "cumulativeGasUsed": "0x32e337",
      "logs": [
        {
          "address": "0xc1b621b18187f74c8f6d52a6f709dd2780c09821",
          "topics": [
            "0x82118522aa536ac0e96cc5c689407ae42b89d592aa133890a01f1509842f5081"
          ],
          "data": "0x00000000000000000000000057558cb8d6005de0bae8a2789d5efaae52dba5a800000000000000000000000000000000000000000000000000000000000076030000000000000000000000000000000000000000000000000000000000000060000000000000000000000000000000000000000000000000000000000000000000000000000000000000000000000000000000000000000000000000000000030000000000000000000000000000000000000000000000000000000000000000000000000000000000000000000000000000000000000000000000000000000000000000000000000000000000000000000000000000000000000000000000c000000000000000000000000000000000000000000000000000000000000001400000000000000000000000000000000000000000000000000000000000000003000000000000000000000000315b0e76a510607bb0f706b17716f426d5b385b8000000000000000000000000acde1f22eeab249d3ca6ba8805c8fee9f52a16e7000000000000000000000000ce8358bc28dd8296ce8caf1cd2b44787abd658870000000000000000000000000000000000000000000000000000000000000000",
          "blockHash": "0x5cc4881e0faead8b225e8bf41151710b8f80e95c4e03325c7924737021e9a5c5",
          "blockNumber": "0x1add62d",
          "transactionHash": "0xac3f10dd402eef2401807da16d1d191efe234f11fefb304513e544789a79fac6",
          "transactionIndex": "0xa",
          "logIndex": "0x4",
          "removed": false
        }
      ],
      "logsBloom": "0x00000000000000000000000000000000000000000000000000000000000000000000000000000000000000000000000000000000000000000000000000000000000000000000000000000000000000000000000000000000002000000000400000000000000000000000000000000000000000000000000000000000000000000000000000000000000000000000000000000000000000000000000000000000000000000000000000000002000000000000000000000000000000000000000000000000000000000000000000000000000000000000000000004000000000000000000000000000000000000000000000000000000000000040000000000010",
      "type": "0x2",
      "transactionHash": "0xac3f10dd402eef2401807da16d1d191efe234f11fefb304513e544789a79fac6",
      "transactionIndex": "0xa",
      "blockHash": "0x5cc4881e0faead8b225e8bf41151710b8f80e95c4e03325c7924737021e9a5c5",
      "blockNumber": "0x1add62d",
      "gasUsed": "0x27a13",
      "effectiveGasPrice": "0x1ef",
      "from": "0x45dce8e4f2dc005a5f28206a46cb034697eeda8e",
      "to": "0x1a44076050125825900e736c501f859c50fe728c",
      "contractAddress": null,
      "l1BaseFeeScalar": "0x4e20",
      "l1BlobBaseFee": "0x1",
      "l1BlobBaseFeeScalar": "0x95506",
      "l1Fee": "0x4221c6e7a",
      "l1GasPrice": "0xe6bfe5b",
      "l1GasUsed": "0xe54"
    },
    {
      "status": "0x1",
      "cumulativeGasUsed": "0x355e40",
      "logs": [
        {
          "address": "0x2367325334447c5e1e0f1b3a6fb947b262f58312",
          "topics": [
            "0x82118522aa536ac0e96cc5c689407ae42b89d592aa133890a01f1509842f5081"
          ],
          "data": "0x00000000000000000000000057558cb8d6005de0bae8a2789d5efaae52dba5a800000000000000000000000000000000000000000000000000000000000076060000000000000000000000000000000000000000000000000000000000000060000000000000000000000000000000000000000000000000000000000000000000000000000000000000000000000000000000000000000000000000000000030000000000000000000000000000000000000000000000000000000000000000000000000000000000000000000000000000000000000000000000000000000000000000000000000000000000000000000000000000000000000000000000c000000000000000000000000000000000000000000000000000000000000001400000000000000000000000000000000000000000000000000000000000000003000000000000000000000000315b0e76a510607bb0f706b17716f426d5b385b8000000000000000000000000acde1f22eeab249d3ca6ba8805c8fee9f52a16e7000000000000000000000000ce8358bc28dd8296ce8caf1cd2b44787abd658870000000000000000000000000000000000000000000000000000000000000000",
          "blockHash": "0x5cc4881e0faead8b225e8bf41151710b8f80e95c4e03325c7924737021e9a5c5",
          "blockNumber": "0x1add62d",
          "transactionHash": "0x09d249ecd6eb20316eb52593d20a76a6ffe3d91da6cedcb39004759ccd18e63c",
          "transactionIndex": "0xb",
          "logIndex": "0x5",
          "removed": false
        }
      ],
      "logsBloom": "0x00000000000000000000000000000000000000000000000000000000000000000000000000000000000000000000000000000000000000000000000000000000000000000000000000000000000000000000000000000000002000000000000000000000000000000000000000000000000000000000000000010000000000000000000000000000000000000000000000000000200000000000000000000000000000000000000000000002000000000000000000000000000000000000000000000080000000000000000000000000000000000000000000000000000000000000000000000000000000000000000000000000000000000000000000000010",
      "type": "0x2",
      "transactionHash": "0x09d249ecd6eb20316eb52593d20a76a6ffe3d91da6cedcb39004759ccd18e63c",
      "transactionIndex": "0xb",
      "blockHash": "0x5cc4881e0faead8b225e8bf41151710b8f80e95c4e03325c7924737021e9a5c5",
      "blockNumber": "0x1add62d",
      "gasUsed": "0x27b09",
      "effectiveGasPrice": "0x1ef",
      "from": "0x45dce8e4f2dc005a5f28206a46cb034697eeda8e",
      "to": "0x1a44076050125825900e736c501f859c50fe728c",
      "contractAddress": null,
      "l1BaseFeeScalar": "0x4e20",
      "l1BlobBaseFee": "0x1",
      "l1BlobBaseFeeScalar": "0x95506",
      "l1Fee": "0x429d4fa2d",
      "l1GasPrice": "0xe6bfe5b",
      "l1GasUsed": "0xe6f"
    },
    {
      "status": "0x1",
      "cumulativeGasUsed": "0x37d853",
      "logs": [
        {
          "address": "0xc1b621b18187f74c8f6d52a6f709dd2780c09821",
          "topics": [
            "0x82118522aa536ac0e96cc5c689407ae42b89d592aa133890a01f1509842f5081"
          ],
          "data": "0x00000000000000000000000057558cb8d6005de0bae8a2789d5efaae52dba5a800000000000000000000000000000000000000000000000000000000000076060000000000000000000000000000000000000000000000000000000000000060000000000000000000000000000000000000000000000000000000000000000000000000000000000000000000000000000000000000000000000000000000030000000000000000000000000000000000000000000000000000000000000000000000000000000000000000000000000000000000000000000000000000000000000000000000000000000000000000000000000000000000000000000000c000000000000000000000000000000000000000000000000000000000000001400000000000000000000000000000000000000000000000000000000000000003000000000000000000000000315b0e76a510607bb0f706b17716f426d5b385b8000000000000000000000000acde1f22eeab249d3ca6ba8805c8fee9f52a16e7000000000000000000000000ce8358bc28dd8296ce8caf1cd2b44787abd658870000000000000000000000000000000000000000000000000000000000000000",
          "blockHash": "0x5cc4881e0faead8b225e8bf41151710b8f80e95c4e03325c7924737021e9a5c5",
          "blockNumber": "0x1add62d",
          "transactionHash": "0x0bfccbc818866a3e01d08747fd8ca4060a3b757ae9f3df8ca6a99786c8be205a",
          "transactionIndex": "0xc",
          "logIndex": "0x6",
          "removed": false
        }
      ],
      "logsBloom": "0x00000000000000000000000000000000000000000000000000000000000000000000000000000000000000000000000000000000000000000000000000000000000000000000000000000000000000000000000000000000002000000000400000000000000000000000000000000000000000000000000000000000000000000000000000000000000000000000000000000000000000000000000000000000000000000000000000000002000000000000000000000000000000000000000000000000000000000000000000000000000000000000000000004000000000000000000000000000000000000000000000000000000000000040000000000010",
      "type": "0x2",
      "transactionHash": "0x0bfccbc818866a3e01d08747fd8ca4060a3b757ae9f3df8ca6a99786c8be205a",
      "transactionIndex": "0xc",
      "blockHash": "0x5cc4881e0faead8b225e8bf41151710b8f80e95c4e03325c7924737021e9a5c5",
      "blockNumber": "0x1add62d",
      "gasUsed": "0x27a13",
      "effectiveGasPrice": "0x1ef",
      "from": "0x45dce8e4f2dc005a5f28206a46cb034697eeda8e",
      "to": "0x1a44076050125825900e736c501f859c50fe728c",
      "contractAddress": null,
      "l1BaseFeeScalar": "0x4e20",
      "l1BlobBaseFee": "0x1",
      "l1BlobBaseFeeScalar": "0x95506",
      "l1Fee": "0x429d4fa2d",
      "l1GasPrice": "0xe6bfe5b",
      "l1GasUsed": "0xe6f"
    },
    {
      "status": "0x1",
      "cumulativeGasUsed": "0x38b9d5",
      "logs": [
        {
          "address": "0x1a44076050125825900e736c501f859c50fe728c",
          "topics": [
            "0x4cff966ebee29a156dcb34cf72c1d06231fb1777f6bdf6e8089819232f002b1c"
          ],
          "data": "0x00000000000000000000000057558cb8d6005de0bae8a2789d5efaae52dba5a800000000000000000000000000000000000000000000000000000000000076030000000000000000000000002367325334447c5e1e0f1b3a6fb947b262f58312",
          "blockHash": "0x5cc4881e0faead8b225e8bf41151710b8f80e95c4e03325c7924737021e9a5c5",
          "blockNumber": "0x1add62d",
          "transactionHash": "0x4df1284514486f7e8e9e1637287e2c17cf91cd546bb764c8234a6ef567b9ad04",
          "transactionIndex": "0xd",
          "logIndex": "0x7",
          "removed": false
        }
      ],
      "logsBloom": "0x00000000000000000000000000000000000200000000000000000000001000000000000000000000000000000000000000000000000000000000000001000000000000000000000000000000000000000000000000000000000000000000000000000000000000000000000000000000000000000010000000000000000000000000000000000000000000000000000000000000000000000000000000000000000000000000000000000000000000000000000000000000000000000000000000000000000000000000000000000000000000000000000000000000000000000040000000000000000000000000000000000000010000000000000000000000",
      "type": "0x2",
      "transactionHash": "0x4df1284514486f7e8e9e1637287e2c17cf91cd546bb764c8234a6ef567b9ad04",
      "transactionIndex": "0xd",
      "blockHash": "0x5cc4881e0faead8b225e8bf41151710b8f80e95c4e03325c7924737021e9a5c5",
      "blockNumber": "0x1add62d",
      "gasUsed": "0xe182",
      "effectiveGasPrice": "0x1ef",
      "from": "0x45dce8e4f2dc005a5f28206a46cb034697eeda8e",
      "to": "0x1a44076050125825900e736c501f859c50fe728c",
      "contractAddress": null,
      "l1BaseFeeScalar": "0x4e20",
      "l1BlobBaseFee": "0x1",
      "l1BlobBaseFeeScalar": "0x95506",
      "l1Fee": "0x1db2f3b41",
      "l1GasPrice": "0xe6bfe5b",
      "l1GasUsed": "0x66f"
    },
    {
      "status": "0x1",
      "cumulativeGasUsed": "0x39b56a",
      "logs": [
        {
          "address": "0x1a44076050125825900e736c501f859c50fe728c",
          "topics": [
            "0xcd6f92f5ac6185a5acfa02c92090746cec64d777269cbcd0ed031e396657a1c2"
          ],
          "data": "0x00000000000000000000000057558cb8d6005de0bae8a2789d5efaae52dba5a80000000000000000000000000000000000000000000000000000000000007603000000000000000000000000c1b621b18187f74c8f6d52a6f709dd2780c09821",
          "blockHash": "0x5cc4881e0faead8b225e8bf41151710b8f80e95c4e03325c7924737021e9a5c5",
          "blockNumber": "0x1add62d",
          "transactionHash": "0x88dc5de01007cf5c88b3df2b4a20bef2de26ba6e52eb6fb425bf2ea54985d431",
          "transactionIndex": "0xe",
          "logIndex": "0x8",
          "removed": false
        },
        {
          "address": "0x1a44076050125825900e736c501f859c50fe728c",
          "topics": [
            "0x4e0a5bbfa0c11a64effb1ada324b5437a17272e1aed9320398715ef71bb20928"
          ],
          "data": "0x00000000000000000000000057558cb8d6005de0bae8a2789d5efaae52dba5a8000000000000000000000000000000000000000000000000000000000000760300000000000000000000000000000000000000000000000000000000000000000000000000000000000000000000000000000000000000000000000000000000",
          "blockHash": "0x5cc4881e0faead8b225e8bf41151710b8f80e95c4e03325c7924737021e9a5c5",
          "blockNumber": "0x1add62d",
          "transactionHash": "0x88dc5de01007cf5c88b3df2b4a20bef2de26ba6e52eb6fb425bf2ea54985d431",
          "transactionIndex": "0xe",
          "logIndex": "0x9",
          "removed": false
        }
      ],
      "logsBloom": "0x00000000000000000000020800000000000000000000000000000000001000020400000000000000000000000000000000000000000000000000000000000000000000000000000000000000000000000000000000800000000000000000000000000000000000000000000000000000000000000010000000000000000000100000000000000000000000000000000000000000000000000000000000000000000000000000000000000000000000000000000000000000000000000000000000000000000000000000000000000000000000000000000000000000000000000000000000000000000000000000000000000000010000000000000000000000",
      "type": "0x2",
      "transactionHash": "0x88dc5de01007cf5c88b3df2b4a20bef2de26ba6e52eb6fb425bf2ea54985d431",
      "transactionIndex": "0xe",
      "blockHash": "0x5cc4881e0faead8b225e8bf41151710b8f80e95c4e03325c7924737021e9a5c5",
      "blockNumber": "0x1add62d",
      "gasUsed": "0xfb95",
      "effectiveGasPrice": "0x1ef",
      "from": "0x45dce8e4f2dc005a5f28206a46cb034697eeda8e",
      "to": "0x1a44076050125825900e736c501f859c50fe728c",
      "contractAddress": null,
      "l1BaseFeeScalar": "0x4e20",
      "l1BlobBaseFee": "0x1",
      "l1BlobBaseFeeScalar": "0x95506",
      "l1Fee": "0x1f6352433",
      "l1GasPrice": "0xe6bfe5b",
      "l1GasUsed": "0x6cd"
    },
    {
      "status": "0x1",
      "cumulativeGasUsed": "0x3a96ec",
      "logs": [
        {
          "address": "0x1a44076050125825900e736c501f859c50fe728c",
          "topics": [
            "0x4cff966ebee29a156dcb34cf72c1d06231fb1777f6bdf6e8089819232f002b1c"
          ],
          "data": "0x00000000000000000000000057558cb8d6005de0bae8a2789d5efaae52dba5a800000000000000000000000000000000000000000000000000000000000076060000000000000000000000002367325334447c5e1e0f1b3a6fb947b262f58312",
          "blockHash": "0x5cc4881e0faead8b225e8bf41151710b8f80e95c4e03325c7924737021e9a5c5",
          "blockNumber": "0x1add62d",
          "transactionHash": "0x7ab4df7d916a1672749d962ded460f038a6cd99a8b271d5e6d4510982aab2e36",
          "transactionIndex": "0xf",
          "logIndex": "0xa",
          "removed": false
        }
      ],
      "logsBloom": "0x00000000000000000000000000000000000200000000000000000000001000000000000000000000000000000000000000000000000000000000000001000000000000000000000000000000000000000000000000000000000000000000000000000000000000000000000000000000000000000010000000000000000000000000000000000000000000000000000000000000000000000000000000000000000000000000000000000000000000000000000000000000000000000000000000000000000000000000000000000000000000000000000000000000000000000040000000000000000000000000000000000000010000000000000000000000",
      "type": "0x2",
      "transactionHash": "0x7ab4df7d916a1672749d962ded460f038a6cd99a8b271d5e6d4510982aab2e36",
      "transactionIndex": "0xf",
      "blockHash": "0x5cc4881e0faead8b225e8bf41151710b8f80e95c4e03325c7924737021e9a5c5",
      "blockNumber": "0x1add62d",
      "gasUsed": "0xe182",
      "effectiveGasPrice": "0x1ef",
      "from": "0x45dce8e4f2dc005a5f28206a46cb034697eeda8e",
      "to": "0x1a44076050125825900e736c501f859c50fe728c",
      "contractAddress": null,
      "l1BaseFeeScalar": "0x4e20",
      "l1BlobBaseFee": "0x1",
      "l1BlobBaseFeeScalar": "0x95506",
      "l1Fee": "0x1db2f3b41",
      "l1GasPrice": "0xe6bfe5b",
      "l1GasUsed": "0x66f"
    },
    {
      "status": "0x1",
      "cumulativeGasUsed": "0x3b9281",
      "logs": [
        {
          "address": "0x1a44076050125825900e736c501f859c50fe728c",
          "topics": [
            "0xcd6f92f5ac6185a5acfa02c92090746cec64d777269cbcd0ed031e396657a1c2"
          ],
          "data": "0x00000000000000000000000057558cb8d6005de0bae8a2789d5efaae52dba5a80000000000000000000000000000000000000000000000000000000000007606000000000000000000000000c1b621b18187f74c8f6d52a6f709dd2780c09821",
          "blockHash": "0x5cc4881e0faead8b225e8bf41151710b8f80e95c4e03325c7924737021e9a5c5",
          "blockNumber": "0x1add62d",
          "transactionHash": "0xbcece82403f5fa28f0b0de7e79befa17c8a3e2c10f8c389b14f2686610b30e22",
          "transactionIndex": "0x10",
          "logIndex": "0xb",
          "removed": false
        },
        {
          "address": "0x1a44076050125825900e736c501f859c50fe728c",
          "topics": [
            "0x4e0a5bbfa0c11a64effb1ada324b5437a17272e1aed9320398715ef71bb20928"
          ],
          "data": "0x00000000000000000000000057558cb8d6005de0bae8a2789d5efaae52dba5a8000000000000000000000000000000000000000000000000000000000000760600000000000000000000000000000000000000000000000000000000000000000000000000000000000000000000000000000000000000000000000000000000",
          "blockHash": "0x5cc4881e0faead8b225e8bf41151710b8f80e95c4e03325c7924737021e9a5c5",
          "blockNumber": "0x1add62d",
          "transactionHash": "0xbcece82403f5fa28f0b0de7e79befa17c8a3e2c10f8c389b14f2686610b30e22",
          "transactionIndex": "0x10",
          "logIndex": "0xc",
          "removed": false
        }
      ],
      "logsBloom": "0x00000000000000000000020800000000000000000000000000000000001000020400000000000000000000000000000000000000000000000000000000000000000000000000000000000000000000000000000000800000000000000000000000000000000000000000000000000000000000000010000000000000000000100000000000000000000000000000000000000000000000000000000000000000000000000000000000000000000000000000000000000000000000000000000000000000000000000000000000000000000000000000000000000000000000000000000000000000000000000000000000000000010000000000000000000000",
      "type": "0x2",
      "transactionHash": "0xbcece82403f5fa28f0b0de7e79befa17c8a3e2c10f8c389b14f2686610b30e22",
      "transactionIndex": "0x10",
      "blockHash": "0x5cc4881e0faead8b225e8bf41151710b8f80e95c4e03325c7924737021e9a5c5",
      "blockNumber": "0x1add62d",
      "gasUsed": "0xfb95",
      "effectiveGasPrice": "0x1ef",
      "from": "0x45dce8e4f2dc005a5f28206a46cb034697eeda8e",
      "to": "0x1a44076050125825900e736c501f859c50fe728c",
      "contractAddress": null,
      "l1BaseFeeScalar": "0x4e20",
      "l1BlobBaseFee": "0x1",
      "l1BlobBaseFeeScalar": "0x95506",
      "l1Fee": "0x1f6352433",
      "l1GasPrice": "0xe6bfe5b",
      "l1GasUsed": "0x6cd"
    }
  ],
  "libraries": [],
  "pending": [],
  "returns": {},
  "timestamp": 1756507129886,
  "chain": 34443,
  "commit": "63f364b"
}