{
  "transactions": [
    {
      "hash": "0x83e8be4151e7d528cd33a8e670cbbc3a2601ecab240ad2ba7f262973ffcbac4b",
      "transactionType": "CALL",
      "contractName": null,
      "contractAddress": "0x4a767e2ef83577225522ef8ed71056c6e3acb216",
      "function": "batchBridgeWithEthFeeFromWallet((uint32,bytes32,uint256,uint256,bytes,bytes,bytes)[],address[],address[])",
      "arguments": [
        "[(30255, 0x000000000000000000000000741f0d8bde14140f62107fc60a0ee122b37d4630, 10000000000000, 0, 0x, 0x, 0x), (30255, 0x000000000000000000000000741f0d8bde14140f62107fc60a0ee122b37d4630, 10000000000000, 0, 0x, 0x, 0x), (30255, 0x000000000000000000000000741f0d8bde14140f62107fc60a0ee122b37d4630, 10000000000000, 0, 0x, 0x, 0x), (30255, 0x000000000000000000000000741f0d8bde14140f62107fc60a0ee122b37d4630, 10000000000000, 0, 0x, 0x, 0x), (30255, 0x000000000000000000000000741f0d8bde14140f62107fc60a0ee122b37d4630, 10000000000000, 0, 0x, 0x, 0x), (30255, 0x000000000000000000000000741f0d8bde14140f62107fc60a0ee122b37d4630, 10000000000000, 0, 0x, 0x, 0x)]",
        "[0x64445f0aecC51E94aD52d8AC56b7190e764E561a, 0x5Bff88cA1442c2496f7E475E9e7786383Bc070c0, 0x3Ec3849C33291a9eF4c5dB86De593EB4A37fDe45, 0x80Eede496655FB9047dd39d9f418d5483ED600df, 0x43eDD7f3831b08FE70B7555ddD373C8bF65a9050, 0x90581eCa9469D8D7F5D3B60f4715027aDFCf7927]",
        "[0x4a767e2ef83577225522Ef8Ed71056c6E3acB216, 0x4a767e2ef83577225522Ef8Ed71056c6E3acB216, 0x4a767e2ef83577225522Ef8Ed71056c6E3acB216, 0x4a767e2ef83577225522Ef8Ed71056c6E3acB216, 0x4a767e2ef83577225522Ef8Ed71056c6E3acB216, 0x4a767e2ef83577225522Ef8Ed71056c6E3acB216]"
      ],
      "transaction": {
        "from": "0x45dce8e4f2dc005a5f28206a46cb034697eeda8e",
        "to": "0x4a767e2ef83577225522ef8ed71056c6e3acb216",
        "gas": "0x255868",
        "value": "0x21016d01f47ca",
        "input": "0xb70d4241000000000000000000000000000000000000000000000000000000000000006000000000000000000000000000000000000000000000000000000000000008c000000000000000000000000000000000000000000000000000000000000009a0000000000000000000000000000000000000000000000000000000000000000600000000000000000000000000000000000000000000000000000000000000c000000000000000000000000000000000000000000000000000000000000002000000000000000000000000000000000000000000000000000000000000000340000000000000000000000000000000000000000000000000000000000000048000000000000000000000000000000000000000000000000000000000000005c00000000000000000000000000000000000000000000000000000000000000700000000000000000000000000000000000000000000000000000000000000762f000000000000000000000000741f0d8bde14140f62107fc60a0ee122b37d4630000000000000000000000000000000000000000000000000000009184e72a000000000000000000000000000000000000000000000000000000000000000000000000000000000000000000000000000000000000000000000000000000000e000000000000000000000000000000000000000000000000000000000000001000000000000000000000000000000000000000000000000000000000000000120000000000000000000000000000000000000000000000000000000000000000000000000000000000000000000000000000000000000000000000000000000000000000000000000000000000000000000000000000000000000000000000000000000000000000000000000000000000000000000000000000000000000762f000000000000000000000000741f0d8bde14140f62107fc60a0ee122b37d4630000000000000000000000000000000000000000000000000000009184e72a000000000000000000000000000000000000000000000000000000000000000000000000000000000000000000000000000000000000000000000000000000000e000000000000000000000000000000000000000000000000000000000000001000000000000000000000000000000000000000000000000000000000000000120000000000000000000000000000000000000000000000000000000000000000000000000000000000000000000000000000000000000000000000000000000000000000000000000000000000000000000000000000000000000000000000000000000000000000000000000000000000000000000000000000000000000762f000000000000000000000000741f0d8bde14140f62107fc60a0ee122b37d4630000000000000000000000000000000000000000000000000000009184e72a000000000000000000000000000000000000000000000000000000000000000000000000000000000000000000000000000000000000000000000000000000000e000000000000000000000000000000000000000000000000000000000000001000000000000000000000000000000000000000000000000000000000000000120000000000000000000000000000000000000000000000000000000000000000000000000000000000000000000000000000000000000000000000000000000000000000000000000000000000000000000000000000000000000000000000000000000000000000000000000000000000000000000000000000000000000762f000000000000000000000000741f0d8bde14140f62107fc60a0ee122b37d4630000000000000000000000000000000000000000000000000000009184e72a000000000000000000000000000000000000000000000000000000000000000000000000000000000000000000000000000000000000000000000000000000000e000000000000000000000000000000000000000000000000000000000000001000000000000000000000000000000000000000000000000000000000000000120000000000000000000000000000000000000000000000000000000000000000000000000000000000000000000000000000000000000000000000000000000000000000000000000000000000000000000000000000000000000000000000000000000000000000000000000000000000000000000000000000000000000762f000000000000000000000000741f0d8bde14140f62107fc60a0ee122b37d4630000000000000000000000000000000000000000000000000000009184e72a000000000000000000000000000000000000000000000000000000000000000000000000000000000000000000000000000000000000000000000000000000000e000000000000000000000000000000000000000000000000000000000000001000000000000000000000000000000000000000000000000000000000000000120000000000000000000000000000000000000000000000000000000000000000000000000000000000000000000000000000000000000000000000000000000000000000000000000000000000000000000000000000000000000000000000000000000000000000000000000000000000000000000000000000000000000762f000000000000000000000000741f0d8bde14140f62107fc60a0ee122b37d4630000000000000000000000000000000000000000000000000000009184e72a000000000000000000000000000000000000000000000000000000000000000000000000000000000000000000000000000000000000000000000000000000000e000000000000000000000000000000000000000000000000000000000000001000000000000000000000000000000000000000000000000000000000000000120000000000000000000000000000000000000000000000000000000000000000000000000000000000000000000000000000000000000000000000000000000000000000000000000000000000000000000000000000000000000000000000000000000000000000000000000000000000000000000000000000000000000000600000000000000000000000064445f0aecc51e94ad52d8ac56b7190e764e561a0000000000000000000000005bff88ca1442c2496f7e475e9e7786383bc070c00000000000000000000000003ec3849c33291a9ef4c5db86de593eb4a37fde4500000000000000000000000080eede496655fb9047dd39d9f418d5483ed600df00000000000000000000000043edd7f3831b08fe70b7555ddd373c8bf65a905000000000000000000000000090581eca9469d8d7f5d3b60f4715027adfcf792700000000000000000000000000000000000000000000000000000000000000060000000000000000000000004a767e2ef83577225522ef8ed71056c6e3acb2160000000000000000000000004a767e2ef83577225522ef8ed71056c6e3acb2160000000000000000000000004a767e2ef83577225522ef8ed71056c6e3acb2160000000000000000000000004a767e2ef83577225522ef8ed71056c6e3acb2160000000000000000000000004a767e2ef83577225522ef8ed71056c6e3acb2160000000000000000000000004a767e2ef83577225522ef8ed71056c6e3acb216",
        "nonce": "0xa0",
        "chainId": "0x4e454152"
      },
      "additionalContracts": [],
      "isFixedGasLimit": false
    }
  ],
  "receipts": [
    {
      "status": "0x1",
      "cumulativeGasUsed": "0x0",
      "logs": [
        {
          "address": "0x64445f0aecc51e94ad52d8ac56b7190e764e561a",
          "topics": [
            "0xddf252ad1be2c89b69c2b068fc378daa952ba7f163c4a11628f55a4df523b3ef",
            "0x0000000000000000000000004a767e2ef83577225522ef8ed71056c6e3acb216",
            "0x0000000000000000000000000000000000000000000000000000000000000000"
          ],
          "data": "0x000000000000000000000000000000000000000000000000000009184e72a000",
          "blockHash": "0x7d084608755eee7eb745f8174342396dd01f34e154e8d97aad6dc55427bd7479",
          "blockNumber": "0x9a00b37",
          "transactionHash": "0x83e8be4151e7d528cd33a8e670cbbc3a2601ecab240ad2ba7f262973ffcbac4b",
          "transactionIndex": "0x0",
          "logIndex": "0x0",
          "removed": false
        },
        {
          "address": "0x1ace9dd1bc743ad036ef2d92af42ca70a1159df5",
          "topics": [
            "0x61ed099e74a97a1d7f8bb0952a88ca8b7b8ebd00c126ea04671f92a81213318a"
          ],
          "data": "0x000000000000000000000000a2b402ffe8dd7460a8b425644b6b9f50667f0a6100000000000000000000000000000000000000000000000000000bc1977a9242",
          "blockHash": "0x7d084608755eee7eb745f8174342396dd01f34e154e8d97aad6dc55427bd7479",
          "blockNumber": "0x9a00b37",
          "transactionHash": "0x83e8be4151e7d528cd33a8e670cbbc3a2601ecab240ad2ba7f262973ffcbac4b",
          "transactionIndex": "0x0",
          "logIndex": "0x1",
          "removed": false
        },
        {
          "address": "0x1ace9dd1bc743ad036ef2d92af42ca70a1159df5",
          "topics": [
            "0x07ea52d82345d6e838192107d8fd7123d9c2ec8e916cd0aad13fd2b60db24644"
          ],
          "data": "0x000000000000000000000000000000000000000000000000000000000000006000000000000000000000000000000000000000000000000000000000000000e000000000000000000000000000000000000000000000000000000000000001000000000000000000000000000000000000000000000000000000000000000003000000000000000000000000045d70bf1939af0489cb44533750a2e15c92d7d4000000000000000000000000d4a903930f2c9085586cda0b11d9681eecb20d2f000000000000000000000000dd7b5e1db4aafd5c8ec3b764efb8ed265aa5445b0000000000000000000000000000000000000000000000000000000000000000000000000000000000000000000000000000000000000000000000000000000300000000000000000000000000000000000000000000000000001dda3515f7cb00000000000000000000000000000000000000000000000000001734006500f500000000000000000000000000000000000000000000000000001734006500f5",
          "blockHash": "0x7d084608755eee7eb745f8174342396dd01f34e154e8d97aad6dc55427bd7479",
          "blockNumber": "0x9a00b37",
          "transactionHash": "0x83e8be4151e7d528cd33a8e670cbbc3a2601ecab240ad2ba7f262973ffcbac4b",
          "transactionIndex": "0x0",
          "logIndex": "0x2",
          "removed": false
        },
        {
          "address": "0x1a44076050125825900e736c501f859c50fe728c",
          "topics": [
            "0x1ab700d4ced0c005b164c0f789fd09fcbb0156d4c2041b8a3bfbcd961cd1567f"
          ],
          "data": "0x000000000000000000000000000000000000000000000000000000000000006000000000000000000000000000000000000000000000000000000000000001200000000000000000000000001ace9dd1bc743ad036ef2d92af42ca70a1159df500000000000000000000000000000000000000000000000000000000000000990100000000000000010000760300000000000000000000000064445f0aecc51e94ad52d8ac56b7190e764e561a0000762f000000000000000000000000d86fbbd0c8715d2c1f40e451e5c3514e65e7576ac644ea64fcfb1ff868eda814be9ea8bc94c49dd80b8b49aaf88fff6483258bb3000000000000000000000000741f0d8bde14140f62107fc60a0ee122b37d4630000000000000000a00000000000000000000000000000000000000000000000000000000000000000000000000001600030100110100000000000000000000000000030d4000000000000000000000",
          "blockHash": "0x7d084608755eee7eb745f8174342396dd01f34e154e8d97aad6dc55427bd7479",
          "blockNumber": "0x9a00b37",
          "transactionHash": "0x83e8be4151e7d528cd33a8e670cbbc3a2601ecab240ad2ba7f262973ffcbac4b",
          "transactionIndex": "0x0",
          "logIndex": "0x3",
          "removed": false
        },
        {
          "address": "0x64445f0aecc51e94ad52d8ac56b7190e764e561a",
          "topics": [
            "0x85496b760a4b7f8d66384b9df21b381f5d1b1e79f229a47aaf4c232edc2fe59a",
            "0xc644ea64fcfb1ff868eda814be9ea8bc94c49dd80b8b49aaf88fff6483258bb3",
            "0x0000000000000000000000004a767e2ef83577225522ef8ed71056c6e3acb216"
          ],
          "data": "0x000000000000000000000000000000000000000000000000000000000000762f000000000000000000000000000000000000000000000000000009184e72a000000000000000000000000000000000000000000000000000000009184e72a000",
          "blockHash": "0x7d084608755eee7eb745f8174342396dd01f34e154e8d97aad6dc55427bd7479",
          "blockNumber": "0x9a00b37",
          "transactionHash": "0x83e8be4151e7d528cd33a8e670cbbc3a2601ecab240ad2ba7f262973ffcbac4b",
          "transactionIndex": "0x0",
          "logIndex": "0x4",
          "removed": false
        },
        {
          "address": "0x5bff88ca1442c2496f7e475e9e7786383bc070c0",
          "topics": [
            "0xddf252ad1be2c89b69c2b068fc378daa952ba7f163c4a11628f55a4df523b3ef",
            "0x0000000000000000000000004a767e2ef83577225522ef8ed71056c6e3acb216",
            "0x0000000000000000000000000000000000000000000000000000000000000000"
          ],
          "data": "0x000000000000000000000000000000000000000000000000000009184e72a000",
          "blockHash": "0x7d084608755eee7eb745f8174342396dd01f34e154e8d97aad6dc55427bd7479",
          "blockNumber": "0x9a00b37",
          "transactionHash": "0x83e8be4151e7d528cd33a8e670cbbc3a2601ecab240ad2ba7f262973ffcbac4b",
          "transactionIndex": "0x0",
          "logIndex": "0x5",
          "removed": false
        },
        {
          "address": "0x1ace9dd1bc743ad036ef2d92af42ca70a1159df5",
          "topics": [
            "0x61ed099e74a97a1d7f8bb0952a88ca8b7b8ebd00c126ea04671f92a81213318a"
          ],
          "data": "0x000000000000000000000000a2b402ffe8dd7460a8b425644b6b9f50667f0a6100000000000000000000000000000000000000000000000000000bc1977a9242",
          "blockHash": "0x7d084608755eee7eb745f8174342396dd01f34e154e8d97aad6dc55427bd7479",
          "blockNumber": "0x9a00b37",
          "transactionHash": "0x83e8be4151e7d528cd33a8e670cbbc3a2601ecab240ad2ba7f262973ffcbac4b",
          "transactionIndex": "0x0",
          "logIndex": "0x6",
          "removed": false
        },
        {
          "address": "0x1ace9dd1bc743ad036ef2d92af42ca70a1159df5",
          "topics": [
            "0x07ea52d82345d6e838192107d8fd7123d9c2ec8e916cd0aad13fd2b60db24644"
          ],
          "data": "0x000000000000000000000000000000000000000000000000000000000000006000000000000000000000000000000000000000000000000000000000000000e000000000000000000000000000000000000000000000000000000000000001000000000000000000000000000000000000000000000000000000000000000003000000000000000000000000045d70bf1939af0489cb44533750a2e15c92d7d4000000000000000000000000d4a903930f2c9085586cda0b11d9681eecb20d2f000000000000000000000000dd7b5e1db4aafd5c8ec3b764efb8ed265aa5445b0000000000000000000000000000000000000000000000000000000000000000000000000000000000000000000000000000000000000000000000000000000300000000000000000000000000000000000000000000000000001dda3515f7cb00000000000000000000000000000000000000000000000000001734006500f500000000000000000000000000000000000000000000000000001734006500f5",
          "blockHash": "0x7d084608755eee7eb745f8174342396dd01f34e154e8d97aad6dc55427bd7479",
          "blockNumber": "0x9a00b37",
          "transactionHash": "0x83e8be4151e7d528cd33a8e670cbbc3a2601ecab240ad2ba7f262973ffcbac4b",
          "transactionIndex": "0x0",
          "logIndex": "0x7",
          "removed": false
        },
        {
          "address": "0x1a44076050125825900e736c501f859c50fe728c",
          "topics": [
            "0x1ab700d4ced0c005b164c0f789fd09fcbb0156d4c2041b8a3bfbcd961cd1567f"
          ],
          "data": "0x000000000000000000000000000000000000000000000000000000000000006000000000000000000000000000000000000000000000000000000000000001200000000000000000000000001ace9dd1bc743ad036ef2d92af42ca70a1159df50000000000000000000000000000000000000000000000000000000000000099010000000000000001000076030000000000000000000000005bff88ca1442c2496f7e475e9e7786383bc070c00000762f00000000000000000000000088aa7854d3b2daa5e37e7ce73a1f39669623a361db5bf920ecfcd5254d84af399e1affc0a322d054003a28f0532539a550fc0fac000000000000000000000000741f0d8bde14140f62107fc60a0ee122b37d4630000000000000000a00000000000000000000000000000000000000000000000000000000000000000000000000001600030100110100000000000000000000000000030d4000000000000000000000",
          "blockHash": "0x7d084608755eee7eb745f8174342396dd01f34e154e8d97aad6dc55427bd7479",
          "blockNumber": "0x9a00b37",
          "transactionHash": "0x83e8be4151e7d528cd33a8e670cbbc3a2601ecab240ad2ba7f262973ffcbac4b",
          "transactionIndex": "0x0",
          "logIndex": "0x8",
          "removed": false
        },
        {
          "address": "0x5bff88ca1442c2496f7e475e9e7786383bc070c0",
          "topics": [
            "0x85496b760a4b7f8d66384b9df21b381f5d1b1e79f229a47aaf4c232edc2fe59a",
            "0xdb5bf920ecfcd5254d84af399e1affc0a322d054003a28f0532539a550fc0fac",
            "0x0000000000000000000000004a767e2ef83577225522ef8ed71056c6e3acb216"
          ],
          "data": "0x000000000000000000000000000000000000000000000000000000000000762f000000000000000000000000000000000000000000000000000009184e72a000000000000000000000000000000000000000000000000000000009184e72a000",
          "blockHash": "0x7d084608755eee7eb745f8174342396dd01f34e154e8d97aad6dc55427bd7479",
          "blockNumber": "0x9a00b37",
          "transactionHash": "0x83e8be4151e7d528cd33a8e670cbbc3a2601ecab240ad2ba7f262973ffcbac4b",
          "transactionIndex": "0x0",
          "logIndex": "0x9",
          "removed": false
        },
        {
          "address": "0x3ec3849c33291a9ef4c5db86de593eb4a37fde45",
          "topics": [
            "0xddf252ad1be2c89b69c2b068fc378daa952ba7f163c4a11628f55a4df523b3ef",
            "0x0000000000000000000000004a767e2ef83577225522ef8ed71056c6e3acb216",
            "0x0000000000000000000000000000000000000000000000000000000000000000"
          ],
          "data": "0x000000000000000000000000000000000000000000000000000009184e72a000",
          "blockHash": "0x7d084608755eee7eb745f8174342396dd01f34e154e8d97aad6dc55427bd7479",
          "blockNumber": "0x9a00b37",
          "transactionHash": "0x83e8be4151e7d528cd33a8e670cbbc3a2601ecab240ad2ba7f262973ffcbac4b",
          "transactionIndex": "0x0",
          "logIndex": "0xa",
          "removed": false
        },
        {
          "address": "0x1ace9dd1bc743ad036ef2d92af42ca70a1159df5",
          "topics": [
            "0x61ed099e74a97a1d7f8bb0952a88ca8b7b8ebd00c126ea04671f92a81213318a"
          ],
          "data": "0x000000000000000000000000a2b402ffe8dd7460a8b425644b6b9f50667f0a6100000000000000000000000000000000000000000000000000000bc1977a9242",
          "blockHash": "0x7d084608755eee7eb745f8174342396dd01f34e154e8d97aad6dc55427bd7479",
          "blockNumber": "0x9a00b37",
          "transactionHash": "0x83e8be4151e7d528cd33a8e670cbbc3a2601ecab240ad2ba7f262973ffcbac4b",
          "transactionIndex": "0x0",
          "logIndex": "0xb",
          "removed": false
        },
        {
          "address": "0x1ace9dd1bc743ad036ef2d92af42ca70a1159df5",
          "topics": [
            "0x07ea52d82345d6e838192107d8fd7123d9c2ec8e916cd0aad13fd2b60db24644"
          ],
          "data": "0x000000000000000000000000000000000000000000000000000000000000006000000000000000000000000000000000000000000000000000000000000000e000000000000000000000000000000000000000000000000000000000000001000000000000000000000000000000000000000000000000000000000000000003000000000000000000000000045d70bf1939af0489cb44533750a2e15c92d7d4000000000000000000000000d4a903930f2c9085586cda0b11d9681eecb20d2f000000000000000000000000dd7b5e1db4aafd5c8ec3b764efb8ed265aa5445b0000000000000000000000000000000000000000000000000000000000000000000000000000000000000000000000000000000000000000000000000000000300000000000000000000000000000000000000000000000000001dda3515f7cb00000000000000000000000000000000000000000000000000001734006500f500000000000000000000000000000000000000000000000000001734006500f5",
          "blockHash": "0x7d084608755eee7eb745f8174342396dd01f34e154e8d97aad6dc55427bd7479",
          "blockNumber": "0x9a00b37",
          "transactionHash": "0x83e8be4151e7d528cd33a8e670cbbc3a2601ecab240ad2ba7f262973ffcbac4b",
          "transactionIndex": "0x0",
          "logIndex": "0xc",
          "removed": false
        },
        {
          "address": "0x1a44076050125825900e736c501f859c50fe728c",
          "topics": [
            "0x1ab700d4ced0c005b164c0f789fd09fcbb0156d4c2041b8a3bfbcd961cd1567f"
          ],
          "data": "0x000000000000000000000000000000000000000000000000000000000000006000000000000000000000000000000000000000000000000000000000000001200000000000000000000000001ace9dd1bc743ad036ef2d92af42ca70a1159df50000000000000000000000000000000000000000000000000000000000000099010000000000000001000076030000000000000000000000003ec3849c33291a9ef4c5db86de593eb4a37fde450000762f000000000000000000000000999dfabe3b1cc2ef66eb032eea42fea329bba168a03c6cbf08fb83bb721a4927f4e4a91e77ac33f3c1588c9f878b1f6a605d655a000000000000000000000000741f0d8bde14140f62107fc60a0ee122b37d4630000000000000000a00000000000000000000000000000000000000000000000000000000000000000000000000001600030100110100000000000000000000000000030d4000000000000000000000",
          "blockHash": "0x7d084608755eee7eb745f8174342396dd01f34e154e8d97aad6dc55427bd7479",
          "blockNumber": "0x9a00b37",
          "transactionHash": "0x83e8be4151e7d528cd33a8e670cbbc3a2601ecab240ad2ba7f262973ffcbac4b",
          "transactionIndex": "0x0",
          "logIndex": "0xd",
          "removed": false
        },
        {
          "address": "0x3ec3849c33291a9ef4c5db86de593eb4a37fde45",
          "topics": [
            "0x85496b760a4b7f8d66384b9df21b381f5d1b1e79f229a47aaf4c232edc2fe59a",
            "0xa03c6cbf08fb83bb721a4927f4e4a91e77ac33f3c1588c9f878b1f6a605d655a",
            "0x0000000000000000000000004a767e2ef83577225522ef8ed71056c6e3acb216"
          ],
          "data": "0x000000000000000000000000000000000000000000000000000000000000762f000000000000000000000000000000000000000000000000000009184e72a000000000000000000000000000000000000000000000000000000009184e72a000",
          "blockHash": "0x7d084608755eee7eb745f8174342396dd01f34e154e8d97aad6dc55427bd7479",
          "blockNumber": "0x9a00b37",
          "transactionHash": "0x83e8be4151e7d528cd33a8e670cbbc3a2601ecab240ad2ba7f262973ffcbac4b",
          "transactionIndex": "0x0",
          "logIndex": "0xe",
          "removed": false
        },
        {
          "address": "0x80eede496655fb9047dd39d9f418d5483ed600df",
          "topics": [
            "0xddf252ad1be2c89b69c2b068fc378daa952ba7f163c4a11628f55a4df523b3ef",
            "0x0000000000000000000000004a767e2ef83577225522ef8ed71056c6e3acb216",
            "0x0000000000000000000000000000000000000000000000000000000000000000"
          ],
          "data": "0x000000000000000000000000000000000000000000000000000009184e72a000",
          "blockHash": "0x7d084608755eee7eb745f8174342396dd01f34e154e8d97aad6dc55427bd7479",
          "blockNumber": "0x9a00b37",
          "transactionHash": "0x83e8be4151e7d528cd33a8e670cbbc3a2601ecab240ad2ba7f262973ffcbac4b",
          "transactionIndex": "0x0",
          "logIndex": "0xf",
          "removed": false
        },
        {
          "address": "0x1ace9dd1bc743ad036ef2d92af42ca70a1159df5",
          "topics": [
            "0x61ed099e74a97a1d7f8bb0952a88ca8b7b8ebd00c126ea04671f92a81213318a"
          ],
          "data": "0x000000000000000000000000a2b402ffe8dd7460a8b425644b6b9f50667f0a6100000000000000000000000000000000000000000000000000000bc1977a9242",
          "blockHash": "0x7d084608755eee7eb745f8174342396dd01f34e154e8d97aad6dc55427bd7479",
          "blockNumber": "0x9a00b37",
          "transactionHash": "0x83e8be4151e7d528cd33a8e670cbbc3a2601ecab240ad2ba7f262973ffcbac4b",
          "transactionIndex": "0x0",
          "logIndex": "0x10",
          "removed": false
        },
        {
          "address": "0x1ace9dd1bc743ad036ef2d92af42ca70a1159df5",
          "topics": [
            "0x07ea52d82345d6e838192107d8fd7123d9c2ec8e916cd0aad13fd2b60db24644"
          ],
          "data": "0x000000000000000000000000000000000000000000000000000000000000006000000000000000000000000000000000000000000000000000000000000000e000000000000000000000000000000000000000000000000000000000000001000000000000000000000000000000000000000000000000000000000000000003000000000000000000000000045d70bf1939af0489cb44533750a2e15c92d7d4000000000000000000000000d4a903930f2c9085586cda0b11d9681eecb20d2f000000000000000000000000dd7b5e1db4aafd5c8ec3b764efb8ed265aa5445b0000000000000000000000000000000000000000000000000000000000000000000000000000000000000000000000000000000000000000000000000000000300000000000000000000000000000000000000000000000000001dda3515f7cb00000000000000000000000000000000000000000000000000001734006500f500000000000000000000000000000000000000000000000000001734006500f5",
          "blockHash": "0x7d084608755eee7eb745f8174342396dd01f34e154e8d97aad6dc55427bd7479",
          "blockNumber": "0x9a00b37",
          "transactionHash": "0x83e8be4151e7d528cd33a8e670cbbc3a2601ecab240ad2ba7f262973ffcbac4b",
          "transactionIndex": "0x0",
          "logIndex": "0x11",
          "removed": false
        },
        {
          "address": "0x1a44076050125825900e736c501f859c50fe728c",
          "topics": [
            "0x1ab700d4ced0c005b164c0f789fd09fcbb0156d4c2041b8a3bfbcd961cd1567f"
          ],
          "data": "0x000000000000000000000000000000000000000000000000000000000000006000000000000000000000000000000000000000000000000000000000000001200000000000000000000000001ace9dd1bc743ad036ef2d92af42ca70a1159df500000000000000000000000000000000000000000000000000000000000000990100000000000000010000760300000000000000000000000080eede496655fb9047dd39d9f418d5483ed600df0000762f00000000000000000000000096a394058e2b84a89bac9667b19661ed003cf5d48bfeb0852ae8ff3eb1df9e3023f9ff09d371cd5f594570f2dedefd95523d9796000000000000000000000000741f0d8bde14140f62107fc60a0ee122b37d4630000000000000000a00000000000000000000000000000000000000000000000000000000000000000000000000001600030100110100000000000000000000000000030d4000000000000000000000",
          "blockHash": "0x7d084608755eee7eb745f8174342396dd01f34e154e8d97aad6dc55427bd7479",
          "blockNumber": "0x9a00b37",
          "transactionHash": "0x83e8be4151e7d528cd33a8e670cbbc3a2601ecab240ad2ba7f262973ffcbac4b",
          "transactionIndex": "0x0",
          "logIndex": "0x12",
          "removed": false
        },
        {
          "address": "0x80eede496655fb9047dd39d9f418d5483ed600df",
          "topics": [
            "0x85496b760a4b7f8d66384b9df21b381f5d1b1e79f229a47aaf4c232edc2fe59a",
            "0x8bfeb0852ae8ff3eb1df9e3023f9ff09d371cd5f594570f2dedefd95523d9796",
            "0x0000000000000000000000004a767e2ef83577225522ef8ed71056c6e3acb216"
          ],
          "data": "0x000000000000000000000000000000000000000000000000000000000000762f000000000000000000000000000000000000000000000000000009184e72a000000000000000000000000000000000000000000000000000000009184e72a000",
          "blockHash": "0x7d084608755eee7eb745f8174342396dd01f34e154e8d97aad6dc55427bd7479",
          "blockNumber": "0x9a00b37",
          "transactionHash": "0x83e8be4151e7d528cd33a8e670cbbc3a2601ecab240ad2ba7f262973ffcbac4b",
          "transactionIndex": "0x0",
          "logIndex": "0x13",
          "removed": false
        },
        {
          "address": "0x43edd7f3831b08fe70b7555ddd373c8bf65a9050",
          "topics": [
            "0xddf252ad1be2c89b69c2b068fc378daa952ba7f163c4a11628f55a4df523b3ef",
            "0x0000000000000000000000004a767e2ef83577225522ef8ed71056c6e3acb216",
            "0x0000000000000000000000000000000000000000000000000000000000000000"
          ],
          "data": "0x000000000000000000000000000000000000000000000000000009184e72a000",
          "blockHash": "0x7d084608755eee7eb745f8174342396dd01f34e154e8d97aad6dc55427bd7479",
          "blockNumber": "0x9a00b37",
          "transactionHash": "0x83e8be4151e7d528cd33a8e670cbbc3a2601ecab240ad2ba7f262973ffcbac4b",
          "transactionIndex": "0x0",
          "logIndex": "0x14",
          "removed": false
        },
        {
          "address": "0x1ace9dd1bc743ad036ef2d92af42ca70a1159df5",
          "topics": [
            "0x61ed099e74a97a1d7f8bb0952a88ca8b7b8ebd00c126ea04671f92a81213318a"
          ],
          "data": "0x000000000000000000000000a2b402ffe8dd7460a8b425644b6b9f50667f0a6100000000000000000000000000000000000000000000000000000bc1977a9242",
          "blockHash": "0x7d084608755eee7eb745f8174342396dd01f34e154e8d97aad6dc55427bd7479",
          "blockNumber": "0x9a00b37",
          "transactionHash": "0x83e8be4151e7d528cd33a8e670cbbc3a2601ecab240ad2ba7f262973ffcbac4b",
          "transactionIndex": "0x0",
          "logIndex": "0x15",
          "removed": false
        },
        {
          "address": "0x1ace9dd1bc743ad036ef2d92af42ca70a1159df5",
          "topics": [
            "0x07ea52d82345d6e838192107d8fd7123d9c2ec8e916cd0aad13fd2b60db24644"
          ],
          "data": "0x000000000000000000000000000000000000000000000000000000000000006000000000000000000000000000000000000000000000000000000000000000e000000000000000000000000000000000000000000000000000000000000001000000000000000000000000000000000000000000000000000000000000000003000000000000000000000000045d70bf1939af0489cb44533750a2e15c92d7d4000000000000000000000000d4a903930f2c9085586cda0b11d9681eecb20d2f000000000000000000000000dd7b5e1db4aafd5c8ec3b764efb8ed265aa5445b0000000000000000000000000000000000000000000000000000000000000000000000000000000000000000000000000000000000000000000000000000000300000000000000000000000000000000000000000000000000001dda3515f7cb00000000000000000000000000000000000000000000000000001734006500f500000000000000000000000000000000000000000000000000001734006500f5",
          "blockHash": "0x7d084608755eee7eb745f8174342396dd01f34e154e8d97aad6dc55427bd7479",
          "blockNumber": "0x9a00b37",
          "transactionHash": "0x83e8be4151e7d528cd33a8e670cbbc3a2601ecab240ad2ba7f262973ffcbac4b",
          "transactionIndex": "0x0",
          "logIndex": "0x16",
          "removed": false
        },
        {
          "address": "0x1a44076050125825900e736c501f859c50fe728c",
          "topics": [
            "0x1ab700d4ced0c005b164c0f789fd09fcbb0156d4c2041b8a3bfbcd961cd1567f"
          ],
          "data": "0x000000000000000000000000000000000000000000000000000000000000006000000000000000000000000000000000000000000000000000000000000001200000000000000000000000001ace9dd1bc743ad036ef2d92af42ca70a1159df500000000000000000000000000000000000000000000000000000000000000990100000000000000010000760300000000000000000000000043edd7f3831b08fe70b7555ddd373c8bf65a90500000762f0000000000000000000000009abfe1f8a999b0011ecd6116649aee8d575f560405ca13b6c1b24d467ec4b9f69c616d63088de8c77e464dac8a211d93f4718729000000000000000000000000741f0d8bde14140f62107fc60a0ee122b37d4630000000000000000a00000000000000000000000000000000000000000000000000000000000000000000000000001600030100110100000000000000000000000000030d4000000000000000000000",
          "blockHash": "0x7d084608755eee7eb745f8174342396dd01f34e154e8d97aad6dc55427bd7479",
          "blockNumber": "0x9a00b37",
          "transactionHash": "0x83e8be4151e7d528cd33a8e670cbbc3a2601ecab240ad2ba7f262973ffcbac4b",
          "transactionIndex": "0x0",
          "logIndex": "0x17",
          "removed": false
        },
        {
          "address": "0x43edd7f3831b08fe70b7555ddd373c8bf65a9050",
          "topics": [
            "0x85496b760a4b7f8d66384b9df21b381f5d1b1e79f229a47aaf4c232edc2fe59a",
            "0x05ca13b6c1b24d467ec4b9f69c616d63088de8c77e464dac8a211d93f4718729",
            "0x0000000000000000000000004a767e2ef83577225522ef8ed71056c6e3acb216"
          ],
          "data": "0x000000000000000000000000000000000000000000000000000000000000762f000000000000000000000000000000000000000000000000000009184e72a000000000000000000000000000000000000000000000000000000009184e72a000",
          "blockHash": "0x7d084608755eee7eb745f8174342396dd01f34e154e8d97aad6dc55427bd7479",
          "blockNumber": "0x9a00b37",
          "transactionHash": "0x83e8be4151e7d528cd33a8e670cbbc3a2601ecab240ad2ba7f262973ffcbac4b",
          "transactionIndex": "0x0",
          "logIndex": "0x18",
          "removed": false
        },
        {
          "address": "0x90581eca9469d8d7f5d3b60f4715027adfcf7927",
          "topics": [
            "0xddf252ad1be2c89b69c2b068fc378daa952ba7f163c4a11628f55a4df523b3ef",
            "0x0000000000000000000000004a767e2ef83577225522ef8ed71056c6e3acb216",
            "0x0000000000000000000000000000000000000000000000000000000000000000"
          ],
          "data": "0x000000000000000000000000000000000000000000000000000009184e72a000",
          "blockHash": "0x7d084608755eee7eb745f8174342396dd01f34e154e8d97aad6dc55427bd7479",
          "blockNumber": "0x9a00b37",
          "transactionHash": "0x83e8be4151e7d528cd33a8e670cbbc3a2601ecab240ad2ba7f262973ffcbac4b",
          "transactionIndex": "0x0",
          "logIndex": "0x19",
          "removed": false
        },
        {
          "address": "0x1ace9dd1bc743ad036ef2d92af42ca70a1159df5",
          "topics": [
            "0x61ed099e74a97a1d7f8bb0952a88ca8b7b8ebd00c126ea04671f92a81213318a"
          ],
          "data": "0x000000000000000000000000a2b402ffe8dd7460a8b425644b6b9f50667f0a6100000000000000000000000000000000000000000000000000000bc1977a9242",
          "blockHash": "0x7d084608755eee7eb745f8174342396dd01f34e154e8d97aad6dc55427bd7479",
          "blockNumber": "0x9a00b37",
          "transactionHash": "0x83e8be4151e7d528cd33a8e670cbbc3a2601ecab240ad2ba7f262973ffcbac4b",
          "transactionIndex": "0x0",
          "logIndex": "0x1a",
          "removed": false
        },
        {
          "address": "0x1ace9dd1bc743ad036ef2d92af42ca70a1159df5",
          "topics": [
            "0x07ea52d82345d6e838192107d8fd7123d9c2ec8e916cd0aad13fd2b60db24644"
          ],
          "data": "0x000000000000000000000000000000000000000000000000000000000000006000000000000000000000000000000000000000000000000000000000000000e000000000000000000000000000000000000000000000000000000000000001000000000000000000000000000000000000000000000000000000000000000003000000000000000000000000045d70bf1939af0489cb44533750a2e15c92d7d4000000000000000000000000d4a903930f2c9085586cda0b11d9681eecb20d2f000000000000000000000000dd7b5e1db4aafd5c8ec3b764efb8ed265aa5445b0000000000000000000000000000000000000000000000000000000000000000000000000000000000000000000000000000000000000000000000000000000300000000000000000000000000000000000000000000000000001dda3515f7cb00000000000000000000000000000000000000000000000000001734006500f500000000000000000000000000000000000000000000000000001734006500f5",
          "blockHash": "0x7d084608755eee7eb745f8174342396dd01f34e154e8d97aad6dc55427bd7479",
          "blockNumber": "0x9a00b37",
          "transactionHash": "0x83e8be4151e7d528cd33a8e670cbbc3a2601ecab240ad2ba7f262973ffcbac4b",
          "transactionIndex": "0x0",
          "logIndex": "0x1b",
          "removed": false
        },
        {
          "address": "0x1a44076050125825900e736c501f859c50fe728c",
          "topics": [
            "0x1ab700d4ced0c005b164c0f789fd09fcbb0156d4c2041b8a3bfbcd961cd1567f"
          ],
          "data": "0x000000000000000000000000000000000000000000000000000000000000006000000000000000000000000000000000000000000000000000000000000001200000000000000000000000001ace9dd1bc743ad036ef2d92af42ca70a1159df500000000000000000000000000000000000000000000000000000000000000990100000000000000010000760300000000000000000000000090581eca9469d8d7f5d3b60f4715027adfcf79270000762f00000000000000000000000075c38d46001b0f8108c4136216bd2694982c20fce1ff1d8c8a9de6b77ce256b866090ed303214f0e832397c5715716911c838eac000000000000000000000000741f0d8bde14140f62107fc60a0ee122b37d4630000000000000000a00000000000000000000000000000000000000000000000000000000000000000000000000001600030100110100000000000000000000000000030d4000000000000000000000",
          "blockHash": "0x7d084608755eee7eb745f8174342396dd01f34e154e8d97aad6dc55427bd7479",
          "blockNumber": "0x9a00b37",
          "transactionHash": "0x83e8be4151e7d528cd33a8e670cbbc3a2601ecab240ad2ba7f262973ffcbac4b",
          "transactionIndex": "0x0",
          "logIndex": "0x1c",
          "removed": false
        },
        {
          "address": "0x90581eca9469d8d7f5d3b60f4715027adfcf7927",
          "topics": [
            "0x85496b760a4b7f8d66384b9df21b381f5d1b1e79f229a47aaf4c232edc2fe59a",
            "0xe1ff1d8c8a9de6b77ce256b866090ed303214f0e832397c5715716911c838eac",
            "0x0000000000000000000000004a767e2ef83577225522ef8ed71056c6e3acb216"
          ],
          "data": "0x000000000000000000000000000000000000000000000000000000000000762f000000000000000000000000000000000000000000000000000009184e72a000000000000000000000000000000000000000000000000000000009184e72a000",
          "blockHash": "0x7d084608755eee7eb745f8174342396dd01f34e154e8d97aad6dc55427bd7479",
          "blockNumber": "0x9a00b37",
          "transactionHash": "0x83e8be4151e7d528cd33a8e670cbbc3a2601ecab240ad2ba7f262973ffcbac4b",
          "transactionIndex": "0x0",
          "logIndex": "0x1d",
          "removed": false
        }
      ],
      "logsBloom": "0x0000010000000000000000000000200000000000000000000000400000100000000000000800000000000000080000000000000000008000800000020000010000a002002000000000000008000000010000000000000000000000000040000010000000020000008000000000000800080080000010000000000010010000000000000000000004000010080000000000000000000021000040000000000000000000008000000002100008000000000000100000400000000440000010108000000002000000000000000080000000000000800000000000000000000020000080040000004000000000040000002000400208018020000000000008084800",
      "type": "0x0",
      "transactionHash": "0x83e8be4151e7d528cd33a8e670cbbc3a2601ecab240ad2ba7f262973ffcbac4b",
      "transactionIndex": "0x0",
      "blockHash": "0x7d084608755eee7eb745f8174342396dd01f34e154e8d97aad6dc55427bd7479",
      "blockNumber": "0x9a00b37",
      "gasUsed": "0x1b0990",
      "effectiveGasPrice": "0x42c1d80",
      "from": "0x45dce8e4f2dc005a5f28206a46cb034697eeda8e",
      "to": "0x4a767e2ef83577225522ef8ed71056c6e3acb216",
      "contractAddress": null,
      "nearReceiptHash": "0x3f271a5541a1c50c359334d3b6f3f713c92b7d0d91044cc71abf466fe768b4af",
      "nearTransactionHash": "0x35b3198d329e2f085d05aeb55634825493d8cf5d79422484c4d9aeba03c08dba"
    }
  ],
  "libraries": [],
  "pending": [],
  "returns": {},
  "timestamp": 1756330103564,
  "chain": 1313161554,
  "commit": "e8120d8"
}