{
  "transactions": [
    {
      "hash": "0x951305ab9c7d8bead0eb4df183a7531e76bdf37ffbcb7cfe1e6070287a986d4f",
      "transactionType": "CALL",
      "contractName": null,
      "contractAddress": "0x741f0d8bde14140f62107fc60a0ee122b37d4630",
      "function": "batchBridgeWithEthFeeFromWallet((uint32,bytes32,uint256,uint256,bytes,bytes,bytes)[],address[],address[])",
      "arguments": [
        "[(30168, 0x3c1b094729102e0c095ee2417e5940ee4f1eab4763f6113fe75281ab74c62398, 10000000000000, 0, 0x, 0x, 0x), (30168, 0x3c1b094729102e0c095ee2417e5940ee4f1eab4763f6113fe75281ab74c62398, 10000000000000, 0, 0x, 0x, 0x), (30168, 0x3c1b094729102e0c095ee2417e5940ee4f1eab4763f6113fe75281ab74c62398, 10000000000000, 0, 0x, 0x, 0x), (30168, 0x3c1b094729102e0c095ee2417e5940ee4f1eab4763f6113fe75281ab74c62398, 10000000000000, 0, 0x, 0x, 0x), (30168, 0x3c1b094729102e0c095ee2417e5940ee4f1eab4763f6113fe75281ab74c62398, 10000000000000, 0, 0x, 0x, 0x), (30168, 0x3c1b094729102e0c095ee2417e5940ee4f1eab4763f6113fe75281ab74c62398, 10000000000000, 0, 0x, 0x, 0x)]",
        "[0x566a6442A5A6e9895B9dCA97cC7879D632c6e4B0, 0x7311CEA93ccf5f4F7b789eE31eBA5D9B9290E126, 0x1c1649A38f4A3c5A0c4a24070f688C525AB7D6E6, 0xbBc424e58ED38dd911309611ae2d7A23014Bd960, 0x04ACaF8D2865c0714F79da09645C13FD2888977f, 0x9033BAD7aA130a2466060A2dA71fAe2219781B4b]",
        "[0x741F0d8Bde14140f62107FC60A0EE122B37D4630, 0x741F0d8Bde14140f62107FC60A0EE122B37D4630, 0x741F0d8Bde14140f62107FC60A0EE122B37D4630, 0x741F0d8Bde14140f62107FC60A0EE122B37D4630, 0x741F0d8Bde14140f62107FC60A0EE122B37D4630, 0x741F0d8Bde14140f62107FC60A0EE122B37D4630]"
      ],
      "transaction": {
        "from": "0x45dce8e4f2dc005a5f28206a46cb034697eeda8e",
        "to": "0x741f0d8bde14140f62107fc60a0ee122b37d4630",
        "gas": "0x23fc29",
        "value": "0x3b403bbbbe41c",
        "input": "0xb70d4241000000000000000000000000000000000000000000000000000000000000006000000000000000000000000000000000000000000000000000000000000008c000000000000000000000000000000000000000000000000000000000000009a0000000000000000000000000000000000000000000000000000000000000000600000000000000000000000000000000000000000000000000000000000000c000000000000000000000000000000000000000000000000000000000000002000000000000000000000000000000000000000000000000000000000000000340000000000000000000000000000000000000000000000000000000000000048000000000000000000000000000000000000000000000000000000000000005c0000000000000000000000000000000000000000000000000000000000000070000000000000000000000000000000000000000000000000000000000000075d83c1b094729102e0c095ee2417e5940ee4f1eab4763f6113fe75281ab74c62398000000000000000000000000000000000000000000000000000009184e72a000000000000000000000000000000000000000000000000000000000000000000000000000000000000000000000000000000000000000000000000000000000e00000000000000000000000000000000000000000000000000000000000000100000000000000000000000000000000000000000000000000000000000000012000000000000000000000000000000000000000000000000000000000000000000000000000000000000000000000000000000000000000000000000000000000000000000000000000000000000000000000000000000000000000000000000000000000000000000000000000000000000000000000000000000000000075d83c1b094729102e0c095ee2417e5940ee4f1eab4763f6113fe75281ab74c62398000000000000000000000000000000000000000000000000000009184e72a000000000000000000000000000000000000000000000000000000000000000000000000000000000000000000000000000000000000000000000000000000000e00000000000000000000000000000000000000000000000000000000000000100000000000000000000000000000000000000000000000000000000000000012000000000000000000000000000000000000000000000000000000000000000000000000000000000000000000000000000000000000000000000000000000000000000000000000000000000000000000000000000000000000000000000000000000000000000000000000000000000000000000000000000000000000075d83c1b094729102e0c095ee2417e5940ee4f1eab4763f6113fe75281ab74c62398000000000000000000000000000000000000000000000000000009184e72a000000000000000000000000000000000000000000000000000000000000000000000000000000000000000000000000000000000000000000000000000000000e00000000000000000000000000000000000000000000000000000000000000100000000000000000000000000000000000000000000000000000000000000012000000000000000000000000000000000000000000000000000000000000000000000000000000000000000000000000000000000000000000000000000000000000000000000000000000000000000000000000000000000000000000000000000000000000000000000000000000000000000000000000000000000000075d83c1b094729102e0c095ee2417e5940ee4f1eab4763f6113fe75281ab74c62398000000000000000000000000000000000000000000000000000009184e72a000000000000000000000000000000000000000000000000000000000000000000000000000000000000000000000000000000000000000000000000000000000e00000000000000000000000000000000000000000000000000000000000000100000000000000000000000000000000000000000000000000000000000000012000000000000000000000000000000000000000000000000000000000000000000000000000000000000000000000000000000000000000000000000000000000000000000000000000000000000000000000000000000000000000000000000000000000000000000000000000000000000000000000000000000000000075d83c1b094729102e0c095ee2417e5940ee4f1eab4763f6113fe75281ab74c62398000000000000000000000000000000000000000000000000000009184e72a000000000000000000000000000000000000000000000000000000000000000000000000000000000000000000000000000000000000000000000000000000000e00000000000000000000000000000000000000000000000000000000000000100000000000000000000000000000000000000000000000000000000000000012000000000000000000000000000000000000000000000000000000000000000000000000000000000000000000000000000000000000000000000000000000000000000000000000000000000000000000000000000000000000000000000000000000000000000000000000000000000000000000000000000000000000075d83c1b094729102e0c095ee2417e5940ee4f1eab4763f6113fe75281ab74c62398000000000000000000000000000000000000000000000000000009184e72a000000000000000000000000000000000000000000000000000000000000000000000000000000000000000000000000000000000000000000000000000000000e0000000000000000000000000000000000000000000000000000000000000010000000000000000000000000000000000000000000000000000000000000001200000000000000000000000000000000000000000000000000000000000000000000000000000000000000000000000000000000000000000000000000000000000000000000000000000000000000000000000000000000000000000000000000000000000000000000000000000000000000000000000000000000000000006000000000000000000000000566a6442a5a6e9895b9dca97cc7879d632c6e4b00000000000000000000000007311cea93ccf5f4f7b789ee31eba5d9b9290e1260000000000000000000000001c1649a38f4a3c5a0c4a24070f688c525ab7d6e6000000000000000000000000bbc424e58ed38dd911309611ae2d7a23014bd96000000000000000000000000004acaf8d2865c0714f79da09645c13fd2888977f0000000000000000000000009033bad7aa130a2466060a2da71fae2219781b4b0000000000000000000000000000000000000000000000000000000000000006000000000000000000000000741f0d8bde14140f62107fc60a0ee122b37d4630000000000000000000000000741f0d8bde14140f62107fc60a0ee122b37d4630000000000000000000000000741f0d8bde14140f62107fc60a0ee122b37d4630000000000000000000000000741f0d8bde14140f62107fc60a0ee122b37d4630000000000000000000000000741f0d8bde14140f62107fc60a0ee122b37d4630000000000000000000000000741f0d8bde14140f62107fc60a0ee122b37d4630",
        "nonce": "0xb6",
        "chainId": "0x1"
      },
      "additionalContracts": [],
      "isFixedGasLimit": false
    }
  ],
  "receipts": [
    {
      "status": "0x1",
      "cumulativeGasUsed": "0x230c84b",
      "logs": [
        {
          "address": "0xcacd6fd266af91b8aed52accc382b4e165586e29",
          "topics": [
            "0xddf252ad1be2c89b69c2b068fc378daa952ba7f163c4a11628f55a4df523b3ef",
            "0x000000000000000000000000741f0d8bde14140f62107fc60a0ee122b37d4630",
            "0x000000000000000000000000566a6442a5a6e9895b9dca97cc7879d632c6e4b0"
          ],
          "data": "0x000000000000000000000000000000000000000000000000000009184e72a000",
          "blockHash": "0xcbb0138820223d312950dba6c692e55f1e83bb0dab195ce8d81d6326d7f512b5",
          "blockNumber": "0x16022a9",
          "blockTimestamp": "0x68927723",
          "transactionHash": "0x951305ab9c7d8bead0eb4df183a7531e76bdf37ffbcb7cfe1e6070287a986d4f",
          "transactionIndex": "0x169",
          "logIndex": "0x35a",
          "removed": false
        },
        {
          "address": "0xbb2ea70c9e858123480642cf96acbcce1372dce1",
          "topics": [
            "0x61ed099e74a97a1d7f8bb0952a88ca8b7b8ebd00c126ea04671f92a81213318a"
          ],
          "data": "0x000000000000000000000000173272739bd7aa6e4e214714048a9fe6994530590000000000000000000000000000000000000000000000000000907a56370fe7",
          "blockHash": "0xcbb0138820223d312950dba6c692e55f1e83bb0dab195ce8d81d6326d7f512b5",
          "blockNumber": "0x16022a9",
          "blockTimestamp": "0x68927723",
          "transactionHash": "0x951305ab9c7d8bead0eb4df183a7531e76bdf37ffbcb7cfe1e6070287a986d4f",
          "transactionIndex": "0x169",
          "logIndex": "0x35b",
          "removed": false
        },
        {
          "address": "0xbb2ea70c9e858123480642cf96acbcce1372dce1",
          "topics": [
            "0x07ea52d82345d6e838192107d8fd7123d9c2ec8e916cd0aad13fd2b60db24644"
          ],
          "data": "0x000000000000000000000000000000000000000000000000000000000000006000000000000000000000000000000000000000000000000000000000000000e000000000000000000000000000000000000000000000000000000000000001000000000000000000000000000000000000000000000000000000000000000003000000000000000000000000380275805876ff19055ea900cdb2b46a94ecf20d00000000000000000000000038654142f5e672ae86a1b21523aafc765e6a1e08000000000000000000000000589dedbd617e0cbcb916a9223f4d1300c294236b0000000000000000000000000000000000000000000000000000000000000000000000000000000000000000000000000000000000000000000000000000000300000000000000000000000000000000000000000000000000000472258a5461000000000000000000000000000000000000000000000000000004a1fdfe42b100000000000000000000000000000000000000000000000000000472258a5461",
          "blockHash": "0xcbb0138820223d312950dba6c692e55f1e83bb0dab195ce8d81d6326d7f512b5",
          "blockNumber": "0x16022a9",
          "blockTimestamp": "0x68927723",
          "transactionHash": "0x951305ab9c7d8bead0eb4df183a7531e76bdf37ffbcb7cfe1e6070287a986d4f",
          "transactionIndex": "0x169",
          "logIndex": "0x35c",
          "removed": false
        },
        {
          "address": "0x1a44076050125825900e736c501f859c50fe728c",
          "topics": [
            "0x1ab700d4ced0c005b164c0f789fd09fcbb0156d4c2041b8a3bfbcd961cd1567f"
          ],
          "data": "0x00000000000000000000000000000000000000000000000000000000000000600000000000000000000000000000000000000000000000000000000000000120000000000000000000000000bb2ea70c9e858123480642cf96acbcce1372dce1000000000000000000000000000000000000000000000000000000000000009901000000000000002100007595000000000000000000000000566a6442a5a6e9895b9dca97cc7879d632c6e4b0000075d85e208a73d5bb1c78e9dbf53badd7299afd6bee9acacdcd4fd668833e53c538addcf05ac629c0d7e1c48fba7df95308d16fe4a216e658fbd61ab617e8e56b35ee3c1b094729102e0c095ee2417e5940ee4f1eab4763f6113fe75281ab74c62398000000000000000a00000000000000000000000000000000000000000000000000000000000000000000000000002600030100210100000000000000000000000000030d40000000000000000000000000002625a00000000000000000000000000000000000000000000000000000",
          "blockHash": "0xcbb0138820223d312950dba6c692e55f1e83bb0dab195ce8d81d6326d7f512b5",
          "blockNumber": "0x16022a9",
          "blockTimestamp": "0x68927723",
          "transactionHash": "0x951305ab9c7d8bead0eb4df183a7531e76bdf37ffbcb7cfe1e6070287a986d4f",
          "transactionIndex": "0x169",
          "logIndex": "0x35d",
          "removed": false
        },
        {
          "address": "0x566a6442a5a6e9895b9dca97cc7879d632c6e4b0",
          "topics": [
            "0x85496b760a4b7f8d66384b9df21b381f5d1b1e79f229a47aaf4c232edc2fe59a",
            "0xdcf05ac629c0d7e1c48fba7df95308d16fe4a216e658fbd61ab617e8e56b35ee",
            "0x000000000000000000000000741f0d8bde14140f62107fc60a0ee122b37d4630"
          ],
          "data": "0x00000000000000000000000000000000000000000000000000000000000075d8000000000000000000000000000000000000000000000000000009184e72a000000000000000000000000000000000000000000000000000000009184e72a000",
          "blockHash": "0xcbb0138820223d312950dba6c692e55f1e83bb0dab195ce8d81d6326d7f512b5",
          "blockNumber": "0x16022a9",
          "blockTimestamp": "0x68927723",
          "transactionHash": "0x951305ab9c7d8bead0eb4df183a7531e76bdf37ffbcb7cfe1e6070287a986d4f",
          "transactionIndex": "0x169",
          "logIndex": "0x35e",
          "removed": false
        },
        {
          "address": "0xcf62f905562626cfcdd2261162a51fd02fc9c5b6",
          "topics": [
            "0xddf252ad1be2c89b69c2b068fc378daa952ba7f163c4a11628f55a4df523b3ef",
            "0x000000000000000000000000741f0d8bde14140f62107fc60a0ee122b37d4630",
            "0x0000000000000000000000007311cea93ccf5f4f7b789ee31eba5d9b9290e126"
          ],
          "data": "0x000000000000000000000000000000000000000000000000000009184e72a000",
          "blockHash": "0xcbb0138820223d312950dba6c692e55f1e83bb0dab195ce8d81d6326d7f512b5",
          "blockNumber": "0x16022a9",
          "blockTimestamp": "0x68927723",
          "transactionHash": "0x951305ab9c7d8bead0eb4df183a7531e76bdf37ffbcb7cfe1e6070287a986d4f",
          "transactionIndex": "0x169",
          "logIndex": "0x35f",
          "removed": false
        },
        {
          "address": "0xbb2ea70c9e858123480642cf96acbcce1372dce1",
          "topics": [
            "0x61ed099e74a97a1d7f8bb0952a88ca8b7b8ebd00c126ea04671f92a81213318a"
          ],
          "data": "0x000000000000000000000000173272739bd7aa6e4e214714048a9fe6994530590000000000000000000000000000000000000000000000000000907a56370fe7",
          "blockHash": "0xcbb0138820223d312950dba6c692e55f1e83bb0dab195ce8d81d6326d7f512b5",
          "blockNumber": "0x16022a9",
          "blockTimestamp": "0x68927723",
          "transactionHash": "0x951305ab9c7d8bead0eb4df183a7531e76bdf37ffbcb7cfe1e6070287a986d4f",
          "transactionIndex": "0x169",
          "logIndex": "0x360",
          "removed": false
        },
        {
          "address": "0xbb2ea70c9e858123480642cf96acbcce1372dce1",
          "topics": [
            "0x07ea52d82345d6e838192107d8fd7123d9c2ec8e916cd0aad13fd2b60db24644"
          ],
          "data": "0x000000000000000000000000000000000000000000000000000000000000006000000000000000000000000000000000000000000000000000000000000000e000000000000000000000000000000000000000000000000000000000000001000000000000000000000000000000000000000000000000000000000000000003000000000000000000000000380275805876ff19055ea900cdb2b46a94ecf20d00000000000000000000000038654142f5e672ae86a1b21523aafc765e6a1e08000000000000000000000000589dedbd617e0cbcb916a9223f4d1300c294236b0000000000000000000000000000000000000000000000000000000000000000000000000000000000000000000000000000000000000000000000000000000300000000000000000000000000000000000000000000000000000472258a5461000000000000000000000000000000000000000000000000000004a1fdfe42b100000000000000000000000000000000000000000000000000000472258a5461",
          "blockHash": "0xcbb0138820223d312950dba6c692e55f1e83bb0dab195ce8d81d6326d7f512b5",
          "blockNumber": "0x16022a9",
          "blockTimestamp": "0x68927723",
          "transactionHash": "0x951305ab9c7d8bead0eb4df183a7531e76bdf37ffbcb7cfe1e6070287a986d4f",
          "transactionIndex": "0x169",
          "logIndex": "0x361",
          "removed": false
        },
        {
          "address": "0x1a44076050125825900e736c501f859c50fe728c",
          "topics": [
            "0x1ab700d4ced0c005b164c0f789fd09fcbb0156d4c2041b8a3bfbcd961cd1567f"
          ],
          "data": "0x00000000000000000000000000000000000000000000000000000000000000600000000000000000000000000000000000000000000000000000000000000120000000000000000000000000bb2ea70c9e858123480642cf96acbcce1372dce10000000000000000000000000000000000000000000000000000000000000099010000000000000002000075950000000000000000000000007311cea93ccf5f4f7b789ee31eba5d9b9290e126000075d88602f005ca65b6da46a3c6ce66ecd1d15be911ca650d5f418d369df184b584cf90231e771541f83086ad607c86cba36be37efa51f5c0d78b314282dc544ba4263c1b094729102e0c095ee2417e5940ee4f1eab4763f6113fe75281ab74c62398000000000000000a00000000000000000000000000000000000000000000000000000000000000000000000000002600030100210100000000000000000000000000030d40000000000000000000000000002625a00000000000000000000000000000000000000000000000000000",
          "blockHash": "0xcbb0138820223d312950dba6c692e55f1e83bb0dab195ce8d81d6326d7f512b5",
          "blockNumber": "0x16022a9",
          "blockTimestamp": "0x68927723",
          "transactionHash": "0x951305ab9c7d8bead0eb4df183a7531e76bdf37ffbcb7cfe1e6070287a986d4f",
          "transactionIndex": "0x169",
          "logIndex": "0x362",
          "removed": false
        },
        {
          "address": "0x7311cea93ccf5f4f7b789ee31eba5d9b9290e126",
          "topics": [
            "0x85496b760a4b7f8d66384b9df21b381f5d1b1e79f229a47aaf4c232edc2fe59a",
            "0x90231e771541f83086ad607c86cba36be37efa51f5c0d78b314282dc544ba426",
            "0x000000000000000000000000741f0d8bde14140f62107fc60a0ee122b37d4630"
          ],
          "data": "0x00000000000000000000000000000000000000000000000000000000000075d8000000000000000000000000000000000000000000000000000009184e72a000000000000000000000000000000000000000000000000000000009184e72a000",
          "blockHash": "0xcbb0138820223d312950dba6c692e55f1e83bb0dab195ce8d81d6326d7f512b5",
          "blockNumber": "0x16022a9",
          "blockTimestamp": "0x68927723",
          "transactionHash": "0x951305ab9c7d8bead0eb4df183a7531e76bdf37ffbcb7cfe1e6070287a986d4f",
          "transactionIndex": "0x169",
          "logIndex": "0x363",
          "removed": false
        },
        {
          "address": "0x5e8422345238f34275888049021821e8e08caa1f",
          "topics": [
            "0x8c5be1e5ebec7d5bd14f71427d1e84f3dd0314c0f7b2291e5b200ac8c7c3b925",
            "0x000000000000000000000000741f0d8bde14140f62107fc60a0ee122b37d4630",
            "0x0000000000000000000000001c1649a38f4a3c5a0c4a24070f688c525ab7d6e6"
          ],
          "data": "0x00000000000000000000000000000000000000000000003635c9a4ad902d6000",
          "blockHash": "0xcbb0138820223d312950dba6c692e55f1e83bb0dab195ce8d81d6326d7f512b5",
          "blockNumber": "0x16022a9",
          "blockTimestamp": "0x68927723",
          "transactionHash": "0x951305ab9c7d8bead0eb4df183a7531e76bdf37ffbcb7cfe1e6070287a986d4f",
          "transactionIndex": "0x169",
          "logIndex": "0x364",
          "removed": false
        },
        {
          "address": "0x5e8422345238f34275888049021821e8e08caa1f",
          "topics": [
            "0xddf252ad1be2c89b69c2b068fc378daa952ba7f163c4a11628f55a4df523b3ef",
            "0x000000000000000000000000741f0d8bde14140f62107fc60a0ee122b37d4630",
            "0x0000000000000000000000001c1649a38f4a3c5a0c4a24070f688c525ab7d6e6"
          ],
          "data": "0x000000000000000000000000000000000000000000000000000009184e72a000",
          "blockHash": "0xcbb0138820223d312950dba6c692e55f1e83bb0dab195ce8d81d6326d7f512b5",
          "blockNumber": "0x16022a9",
          "blockTimestamp": "0x68927723",
          "transactionHash": "0x951305ab9c7d8bead0eb4df183a7531e76bdf37ffbcb7cfe1e6070287a986d4f",
          "transactionIndex": "0x169",
          "logIndex": "0x365",
          "removed": false
        },
        {
          "address": "0xbb2ea70c9e858123480642cf96acbcce1372dce1",
          "topics": [
            "0x61ed099e74a97a1d7f8bb0952a88ca8b7b8ebd00c126ea04671f92a81213318a"
          ],
          "data": "0x000000000000000000000000173272739bd7aa6e4e214714048a9fe6994530590000000000000000000000000000000000000000000000000000907a56370fe7",
          "blockHash": "0xcbb0138820223d312950dba6c692e55f1e83bb0dab195ce8d81d6326d7f512b5",
          "blockNumber": "0x16022a9",
          "blockTimestamp": "0x68927723",
          "transactionHash": "0x951305ab9c7d8bead0eb4df183a7531e76bdf37ffbcb7cfe1e6070287a986d4f",
          "transactionIndex": "0x169",
          "logIndex": "0x366",
          "removed": false
        },
        {
          "address": "0xbb2ea70c9e858123480642cf96acbcce1372dce1",
          "topics": [
            "0x07ea52d82345d6e838192107d8fd7123d9c2ec8e916cd0aad13fd2b60db24644"
          ],
          "data": "0x000000000000000000000000000000000000000000000000000000000000006000000000000000000000000000000000000000000000000000000000000000e000000000000000000000000000000000000000000000000000000000000001000000000000000000000000000000000000000000000000000000000000000003000000000000000000000000380275805876ff19055ea900cdb2b46a94ecf20d00000000000000000000000038654142f5e672ae86a1b21523aafc765e6a1e08000000000000000000000000589dedbd617e0cbcb916a9223f4d1300c294236b0000000000000000000000000000000000000000000000000000000000000000000000000000000000000000000000000000000000000000000000000000000300000000000000000000000000000000000000000000000000000472258a5461000000000000000000000000000000000000000000000000000004a1fdfe42b100000000000000000000000000000000000000000000000000000472258a5461",
          "blockHash": "0xcbb0138820223d312950dba6c692e55f1e83bb0dab195ce8d81d6326d7f512b5",
          "blockNumber": "0x16022a9",
          "blockTimestamp": "0x68927723",
          "transactionHash": "0x951305ab9c7d8bead0eb4df183a7531e76bdf37ffbcb7cfe1e6070287a986d4f",
          "transactionIndex": "0x169",
          "logIndex": "0x367",
          "removed": false
        },
        {
          "address": "0x1a44076050125825900e736c501f859c50fe728c",
          "topics": [
            "0x1ab700d4ced0c005b164c0f789fd09fcbb0156d4c2041b8a3bfbcd961cd1567f"
          ],
          "data": "0x00000000000000000000000000000000000000000000000000000000000000600000000000000000000000000000000000000000000000000000000000000120000000000000000000000000bb2ea70c9e858123480642cf96acbcce1372dce10000000000000000000000000000000000000000000000000000000000000099010000000000000002000075950000000000000000000000001c1649a38f4a3c5a0c4a24070f688c525ab7d6e6000075d838dd9e11bbf63835dc61d3cbf259f4221f5987ac92982c96609b99634662dfb37a90a48bb321194a25cf5f913e43604660cd7c98206daddf3d4dc5c75a57e9923c1b094729102e0c095ee2417e5940ee4f1eab4763f6113fe75281ab74c62398000000000000000a00000000000000000000000000000000000000000000000000000000000000000000000000002600030100210100000000000000000000000000030d40000000000000000000000000002625a00000000000000000000000000000000000000000000000000000",
          "blockHash": "0xcbb0138820223d312950dba6c692e55f1e83bb0dab195ce8d81d6326d7f512b5",
          "blockNumber": "0x16022a9",
          "blockTimestamp": "0x68927723",
          "transactionHash": "0x951305ab9c7d8bead0eb4df183a7531e76bdf37ffbcb7cfe1e6070287a986d4f",
          "transactionIndex": "0x169",
          "logIndex": "0x368",
          "removed": false
        },
        {
          "address": "0x1c1649a38f4a3c5a0c4a24070f688c525ab7d6e6",
          "topics": [
            "0x85496b760a4b7f8d66384b9df21b381f5d1b1e79f229a47aaf4c232edc2fe59a",
            "0x7a90a48bb321194a25cf5f913e43604660cd7c98206daddf3d4dc5c75a57e992",
            "0x000000000000000000000000741f0d8bde14140f62107fc60a0ee122b37d4630"
          ],
          "data": "0x00000000000000000000000000000000000000000000000000000000000075d8000000000000000000000000000000000000000000000000000009184e72a000000000000000000000000000000000000000000000000000000009184e72a000",
          "blockHash": "0xcbb0138820223d312950dba6c692e55f1e83bb0dab195ce8d81d6326d7f512b5",
          "blockNumber": "0x16022a9",
          "blockTimestamp": "0x68927723",
          "transactionHash": "0x951305ab9c7d8bead0eb4df183a7531e76bdf37ffbcb7cfe1e6070287a986d4f",
          "transactionIndex": "0x169",
          "logIndex": "0x369",
          "removed": false
        },
        {
          "address": "0xac3e018457b222d93114458476f3e3416abbe38f",
          "topics": [
            "0xddf252ad1be2c89b69c2b068fc378daa952ba7f163c4a11628f55a4df523b3ef",
            "0x000000000000000000000000741f0d8bde14140f62107fc60a0ee122b37d4630",
            "0x000000000000000000000000bbc424e58ed38dd911309611ae2d7a23014bd960"
          ],
          "data": "0x000000000000000000000000000000000000000000000000000009184e72a000",
          "blockHash": "0xcbb0138820223d312950dba6c692e55f1e83bb0dab195ce8d81d6326d7f512b5",
          "blockNumber": "0x16022a9",
          "blockTimestamp": "0x68927723",
          "transactionHash": "0x951305ab9c7d8bead0eb4df183a7531e76bdf37ffbcb7cfe1e6070287a986d4f",
          "transactionIndex": "0x169",
          "logIndex": "0x36a",
          "removed": false
        },
        {
          "address": "0xbb2ea70c9e858123480642cf96acbcce1372dce1",
          "topics": [
            "0x61ed099e74a97a1d7f8bb0952a88ca8b7b8ebd00c126ea04671f92a81213318a"
          ],
          "data": "0x000000000000000000000000173272739bd7aa6e4e214714048a9fe6994530590000000000000000000000000000000000000000000000000000907a56370fe7",
          "blockHash": "0xcbb0138820223d312950dba6c692e55f1e83bb0dab195ce8d81d6326d7f512b5",
          "blockNumber": "0x16022a9",
          "blockTimestamp": "0x68927723",
          "transactionHash": "0x951305ab9c7d8bead0eb4df183a7531e76bdf37ffbcb7cfe1e6070287a986d4f",
          "transactionIndex": "0x169",
          "logIndex": "0x36b",
          "removed": false
        },
        {
          "address": "0xbb2ea70c9e858123480642cf96acbcce1372dce1",
          "topics": [
            "0x07ea52d82345d6e838192107d8fd7123d9c2ec8e916cd0aad13fd2b60db24644"
          ],
          "data": "0x000000000000000000000000000000000000000000000000000000000000006000000000000000000000000000000000000000000000000000000000000000e000000000000000000000000000000000000000000000000000000000000001000000000000000000000000000000000000000000000000000000000000000003000000000000000000000000380275805876ff19055ea900cdb2b46a94ecf20d00000000000000000000000038654142f5e672ae86a1b21523aafc765e6a1e08000000000000000000000000589dedbd617e0cbcb916a9223f4d1300c294236b0000000000000000000000000000000000000000000000000000000000000000000000000000000000000000000000000000000000000000000000000000000300000000000000000000000000000000000000000000000000000472258a5461000000000000000000000000000000000000000000000000000004a1fdfe42b100000000000000000000000000000000000000000000000000000472258a5461",
          "blockHash": "0xcbb0138820223d312950dba6c692e55f1e83bb0dab195ce8d81d6326d7f512b5",
          "blockNumber": "0x16022a9",
          "blockTimestamp": "0x68927723",
          "transactionHash": "0x951305ab9c7d8bead0eb4df183a7531e76bdf37ffbcb7cfe1e6070287a986d4f",
          "transactionIndex": "0x169",
          "logIndex": "0x36c",
          "removed": false
        },
        {
          "address": "0x1a44076050125825900e736c501f859c50fe728c",
          "topics": [
            "0x1ab700d4ced0c005b164c0f789fd09fcbb0156d4c2041b8a3bfbcd961cd1567f"
          ],
          "data": "0x00000000000000000000000000000000000000000000000000000000000000600000000000000000000000000000000000000000000000000000000000000120000000000000000000000000bb2ea70c9e858123480642cf96acbcce1372dce1000000000000000000000000000000000000000000000000000000000000009901000000000000000200007595000000000000000000000000bbc424e58ed38dd911309611ae2d7a23014bd960000075d8bf2f1fc27286a43f25b05bd843a74a5478c4246343fa90c1fcb641a1caf46c61ac9c61319fd376ca221a64cf5845be62598a796a4bd29d54c1eb70c87c20a6a83c1b094729102e0c095ee2417e5940ee4f1eab4763f6113fe75281ab74c62398000000000000000a00000000000000000000000000000000000000000000000000000000000000000000000000002600030100210100000000000000000000000000030d40000000000000000000000000002625a00000000000000000000000000000000000000000000000000000",
          "blockHash": "0xcbb0138820223d312950dba6c692e55f1e83bb0dab195ce8d81d6326d7f512b5",
          "blockNumber": "0x16022a9",
          "blockTimestamp": "0x68927723",
          "transactionHash": "0x951305ab9c7d8bead0eb4df183a7531e76bdf37ffbcb7cfe1e6070287a986d4f",
          "transactionIndex": "0x169",
          "logIndex": "0x36d",
          "removed": false
        },
        {
          "address": "0xbbc424e58ed38dd911309611ae2d7a23014bd960",
          "topics": [
            "0x85496b760a4b7f8d66384b9df21b381f5d1b1e79f229a47aaf4c232edc2fe59a",
            "0xac9c61319fd376ca221a64cf5845be62598a796a4bd29d54c1eb70c87c20a6a8",
            "0x000000000000000000000000741f0d8bde14140f62107fc60a0ee122b37d4630"
          ],
          "data": "0x00000000000000000000000000000000000000000000000000000000000075d8000000000000000000000000000000000000000000000000000009184e72a000000000000000000000000000000000000000000000000000000009184e72a000",
          "blockHash": "0xcbb0138820223d312950dba6c692e55f1e83bb0dab195ce8d81d6326d7f512b5",
          "blockNumber": "0x16022a9",
          "blockTimestamp": "0x68927723",
          "transactionHash": "0x951305ab9c7d8bead0eb4df183a7531e76bdf37ffbcb7cfe1e6070287a986d4f",
          "transactionIndex": "0x169",
          "logIndex": "0x36e",
          "removed": false
        },
        {
          "address": "0x04acaf8d2865c0714f79da09645c13fd2888977f",
          "topics": [
            "0xddf252ad1be2c89b69c2b068fc378daa952ba7f163c4a11628f55a4df523b3ef",
            "0x000000000000000000000000741f0d8bde14140f62107fc60a0ee122b37d4630",
            "0x0000000000000000000000000000000000000000000000000000000000000000"
          ],
          "data": "0x000000000000000000000000000000000000000000000000000009184e72a000",
          "blockHash": "0xcbb0138820223d312950dba6c692e55f1e83bb0dab195ce8d81d6326d7f512b5",
          "blockNumber": "0x16022a9",
          "blockTimestamp": "0x68927723",
          "transactionHash": "0x951305ab9c7d8bead0eb4df183a7531e76bdf37ffbcb7cfe1e6070287a986d4f",
          "transactionIndex": "0x169",
          "logIndex": "0x36f",
          "removed": false
        },
        {
          "address": "0xbb2ea70c9e858123480642cf96acbcce1372dce1",
          "topics": [
            "0x61ed099e74a97a1d7f8bb0952a88ca8b7b8ebd00c126ea04671f92a81213318a"
          ],
          "data": "0x000000000000000000000000173272739bd7aa6e4e214714048a9fe6994530590000000000000000000000000000000000000000000000000000907a56370fe7",
          "blockHash": "0xcbb0138820223d312950dba6c692e55f1e83bb0dab195ce8d81d6326d7f512b5",
          "blockNumber": "0x16022a9",
          "blockTimestamp": "0x68927723",
          "transactionHash": "0x951305ab9c7d8bead0eb4df183a7531e76bdf37ffbcb7cfe1e6070287a986d4f",
          "transactionIndex": "0x169",
          "logIndex": "0x370",
          "removed": false
        },
        {
          "address": "0xbb2ea70c9e858123480642cf96acbcce1372dce1",
          "topics": [
            "0x07ea52d82345d6e838192107d8fd7123d9c2ec8e916cd0aad13fd2b60db24644"
          ],
          "data": "0x000000000000000000000000000000000000000000000000000000000000006000000000000000000000000000000000000000000000000000000000000000e000000000000000000000000000000000000000000000000000000000000001000000000000000000000000000000000000000000000000000000000000000003000000000000000000000000380275805876ff19055ea900cdb2b46a94ecf20d00000000000000000000000038654142f5e672ae86a1b21523aafc765e6a1e08000000000000000000000000589dedbd617e0cbcb916a9223f4d1300c294236b0000000000000000000000000000000000000000000000000000000000000000000000000000000000000000000000000000000000000000000000000000000300000000000000000000000000000000000000000000000000000472258a5461000000000000000000000000000000000000000000000000000004a1fdfe42b100000000000000000000000000000000000000000000000000000472258a5461",
          "blockHash": "0xcbb0138820223d312950dba6c692e55f1e83bb0dab195ce8d81d6326d7f512b5",
          "blockNumber": "0x16022a9",
          "blockTimestamp": "0x68927723",
          "transactionHash": "0x951305ab9c7d8bead0eb4df183a7531e76bdf37ffbcb7cfe1e6070287a986d4f",
          "transactionIndex": "0x169",
          "logIndex": "0x371",
          "removed": false
        },
        {
          "address": "0x1a44076050125825900e736c501f859c50fe728c",
          "topics": [
            "0x1ab700d4ced0c005b164c0f789fd09fcbb0156d4c2041b8a3bfbcd961cd1567f"
          ],
          "data": "0x00000000000000000000000000000000000000000000000000000000000000600000000000000000000000000000000000000000000000000000000000000120000000000000000000000000bb2ea70c9e858123480642cf96acbcce1372dce100000000000000000000000000000000000000000000000000000000000000990100000000000000030000759500000000000000000000000004acaf8d2865c0714f79da09645c13fd2888977f000075d84939035f8dd13d15a9386e28b6705519aa6f488791323466a3c0116a201e51aaf09ee223768b9158ae16c6b4e5591b5f6e07099b94beba2e2ca64dfba2e5fcd63c1b094729102e0c095ee2417e5940ee4f1eab4763f6113fe75281ab74c62398000000000000000a00000000000000000000000000000000000000000000000000000000000000000000000000002600030100210100000000000000000000000000030d40000000000000000000000000002625a00000000000000000000000000000000000000000000000000000",
          "blockHash": "0xcbb0138820223d312950dba6c692e55f1e83bb0dab195ce8d81d6326d7f512b5",
          "blockNumber": "0x16022a9",
          "blockTimestamp": "0x68927723",
          "transactionHash": "0x951305ab9c7d8bead0eb4df183a7531e76bdf37ffbcb7cfe1e6070287a986d4f",
          "transactionIndex": "0x169",
          "logIndex": "0x372",
          "removed": false
        },
        {
          "address": "0x04acaf8d2865c0714f79da09645c13fd2888977f",
          "topics": [
            "0x85496b760a4b7f8d66384b9df21b381f5d1b1e79f229a47aaf4c232edc2fe59a",
            "0xf09ee223768b9158ae16c6b4e5591b5f6e07099b94beba2e2ca64dfba2e5fcd6",
            "0x000000000000000000000000741f0d8bde14140f62107fc60a0ee122b37d4630"
          ],
          "data": "0x00000000000000000000000000000000000000000000000000000000000075d8000000000000000000000000000000000000000000000000000009184e72a000000000000000000000000000000000000000000000000000000009184e72a000",
          "blockHash": "0xcbb0138820223d312950dba6c692e55f1e83bb0dab195ce8d81d6326d7f512b5",
          "blockNumber": "0x16022a9",
          "blockTimestamp": "0x68927723",
          "transactionHash": "0x951305ab9c7d8bead0eb4df183a7531e76bdf37ffbcb7cfe1e6070287a986d4f",
          "transactionIndex": "0x169",
          "logIndex": "0x373",
          "removed": false
        },
        {
          "address": "0x5ca135cb8527d76e932f34b5145575f9d8cbe08e",
          "topics": [
            "0x8c5be1e5ebec7d5bd14f71427d1e84f3dd0314c0f7b2291e5b200ac8c7c3b925",
            "0x000000000000000000000000741f0d8bde14140f62107fc60a0ee122b37d4630",
            "0x0000000000000000000000009033bad7aa130a2466060a2da71fae2219781b4b"
          ],
          "data": "0x00000000000000000000000000000000000000000000003635c9a4ad902d6000",
          "blockHash": "0xcbb0138820223d312950dba6c692e55f1e83bb0dab195ce8d81d6326d7f512b5",
          "blockNumber": "0x16022a9",
          "blockTimestamp": "0x68927723",
          "transactionHash": "0x951305ab9c7d8bead0eb4df183a7531e76bdf37ffbcb7cfe1e6070287a986d4f",
          "transactionIndex": "0x169",
          "logIndex": "0x374",
          "removed": false
        },
        {
          "address": "0x5ca135cb8527d76e932f34b5145575f9d8cbe08e",
          "topics": [
            "0xddf252ad1be2c89b69c2b068fc378daa952ba7f163c4a11628f55a4df523b3ef",
            "0x000000000000000000000000741f0d8bde14140f62107fc60a0ee122b37d4630",
            "0x0000000000000000000000009033bad7aa130a2466060a2da71fae2219781b4b"
          ],
          "data": "0x000000000000000000000000000000000000000000000000000009184e72a000",
          "blockHash": "0xcbb0138820223d312950dba6c692e55f1e83bb0dab195ce8d81d6326d7f512b5",
          "blockNumber": "0x16022a9",
          "blockTimestamp": "0x68927723",
          "transactionHash": "0x951305ab9c7d8bead0eb4df183a7531e76bdf37ffbcb7cfe1e6070287a986d4f",
          "transactionIndex": "0x169",
          "logIndex": "0x375",
          "removed": false
        },
        {
          "address": "0xbb2ea70c9e858123480642cf96acbcce1372dce1",
          "topics": [
            "0x61ed099e74a97a1d7f8bb0952a88ca8b7b8ebd00c126ea04671f92a81213318a"
          ],
          "data": "0x000000000000000000000000173272739bd7aa6e4e214714048a9fe6994530590000000000000000000000000000000000000000000000000000907a56370fe7",
          "blockHash": "0xcbb0138820223d312950dba6c692e55f1e83bb0dab195ce8d81d6326d7f512b5",
          "blockNumber": "0x16022a9",
          "blockTimestamp": "0x68927723",
          "transactionHash": "0x951305ab9c7d8bead0eb4df183a7531e76bdf37ffbcb7cfe1e6070287a986d4f",
          "transactionIndex": "0x169",
          "logIndex": "0x376",
          "removed": false
        },
        {
          "address": "0xbb2ea70c9e858123480642cf96acbcce1372dce1",
          "topics": [
            "0x07ea52d82345d6e838192107d8fd7123d9c2ec8e916cd0aad13fd2b60db24644"
          ],
          "data": "0x000000000000000000000000000000000000000000000000000000000000006000000000000000000000000000000000000000000000000000000000000000e000000000000000000000000000000000000000000000000000000000000001000000000000000000000000000000000000000000000000000000000000000003000000000000000000000000380275805876ff19055ea900cdb2b46a94ecf20d00000000000000000000000038654142f5e672ae86a1b21523aafc765e6a1e08000000000000000000000000589dedbd617e0cbcb916a9223f4d1300c294236b0000000000000000000000000000000000000000000000000000000000000000000000000000000000000000000000000000000000000000000000000000000300000000000000000000000000000000000000000000000000000472258a5461000000000000000000000000000000000000000000000000000004a1fdfe42b100000000000000000000000000000000000000000000000000000472258a5461",
          "blockHash": "0xcbb0138820223d312950dba6c692e55f1e83bb0dab195ce8d81d6326d7f512b5",
          "blockNumber": "0x16022a9",
          "blockTimestamp": "0x68927723",
          "transactionHash": "0x951305ab9c7d8bead0eb4df183a7531e76bdf37ffbcb7cfe1e6070287a986d4f",
          "transactionIndex": "0x169",
          "logIndex": "0x377",
          "removed": false
        },
        {
          "address": "0x1a44076050125825900e736c501f859c50fe728c",
          "topics": [
            "0x1ab700d4ced0c005b164c0f789fd09fcbb0156d4c2041b8a3bfbcd961cd1567f"
          ],
          "data": "0x00000000000000000000000000000000000000000000000000000000000000600000000000000000000000000000000000000000000000000000000000000120000000000000000000000000bb2ea70c9e858123480642cf96acbcce1372dce10000000000000000000000000000000000000000000000000000000000000099010000000000000002000075950000000000000000000000009033bad7aa130a2466060a2da71fae2219781b4b000075d8d3cee058686107cc51844f331ee213a33142ab299b5ce473c1cf3a8ddaa721a0e9c3e91bfb6342dc54c60321eec902ff7a695dc7c38ae223a024b8053c8306c73c1b094729102e0c095ee2417e5940ee4f1eab4763f6113fe75281ab74c62398000000000000000a00000000000000000000000000000000000000000000000000000000000000000000000000002600030100210100000000000000000000000000030d40000000000000000000000000002625a00000000000000000000000000000000000000000000000000000",
          "blockHash": "0xcbb0138820223d312950dba6c692e55f1e83bb0dab195ce8d81d6326d7f512b5",
          "blockNumber": "0x16022a9",
          "blockTimestamp": "0x68927723",
          "transactionHash": "0x951305ab9c7d8bead0eb4df183a7531e76bdf37ffbcb7cfe1e6070287a986d4f",
          "transactionIndex": "0x169",
          "logIndex": "0x378",
          "removed": false
        },
        {
          "address": "0x9033bad7aa130a2466060a2da71fae2219781b4b",
          "topics": [
            "0x85496b760a4b7f8d66384b9df21b381f5d1b1e79f229a47aaf4c232edc2fe59a",
            "0xe9c3e91bfb6342dc54c60321eec902ff7a695dc7c38ae223a024b8053c8306c7",
            "0x000000000000000000000000741f0d8bde14140f62107fc60a0ee122b37d4630"
          ],
          "data": "0x00000000000000000000000000000000000000000000000000000000000075d8000000000000000000000000000000000000000000000000000009184e72a000000000000000000000000000000000000000000000000000000009184e72a000",
          "blockHash": "0xcbb0138820223d312950dba6c692e55f1e83bb0dab195ce8d81d6326d7f512b5",
          "blockNumber": "0x16022a9",
          "blockTimestamp": "0x68927723",
          "transactionHash": "0x951305ab9c7d8bead0eb4df183a7531e76bdf37ffbcb7cfe1e6070287a986d4f",
          "transactionIndex": "0x169",
          "logIndex": "0x379",
          "removed": false
        }
      ],
      "logsBloom": "0x000000000040040000040000000000440000000000000000420000000030000004000010000040002000000000000000000041020000000000800000002000000004020000000000100000080001000000022000048000000000000000000000000420000200080080000004000008204000200000100000000000100004040000000000000000000010000800000000000000000000000000000400820081000200000080200010001004000000a0000014000c00402000040448004000028080000002000002010000000080000010000002000000040000000010200020000010040090002000000000020200102000000000018000000408080040000000",
      "type": "0x2",
      "transactionHash": "0x951305ab9c7d8bead0eb4df183a7531e76bdf37ffbcb7cfe1e6070287a986d4f",
      "transactionIndex": "0x169",
      "blockHash": "0xcbb0138820223d312950dba6c692e55f1e83bb0dab195ce8d81d6326d7f512b5",
      "blockNumber": "0x16022a9",
      "gasUsed": "0x1a0d70",
      "effectiveGasPrice": "0x1db90191",
      "from": "0x45dce8e4f2dc005a5f28206a46cb034697eeda8e",
      "to": "0x741f0d8bde14140f62107fc60a0ee122b37d4630",
      "contractAddress": null
    }
  ],
  "libraries": [],
  "pending": [],
  "returns": {},
  "timestamp": 1754429221,
  "chain": 1,
  "commit": "640ba29"
}