{
  "transactions": [
    {
      "hash": "0x5542840e429eb24036345d2527666beb08009ca03a228b1cc4918f9f07019655",
      "transactionType": "CALL",
      "contractName": null,
      "contractAddress": "0x29a5134d3b22f47ad52e0a22a63247363e9f35c2",
      "function": "send((uint32,bytes32,uint256,uint256,bytes,bytes,bytes),(uint256,uint256),address)",
      "arguments": [
        "(40444, 0x0000000000000000000000001d434906aa520e592fab2b82406beff859be8e82, 1000000000000000000, 1000000000000000000, 0x0003, 0x, 0x)",
        "(14831191243825, 0)",
        "0x0990be6dB8c785FBbF9deD8bAEc612A10CaE814b"
      ],
      "transaction": {
        "from": "0x0990be6db8c785fbbf9ded8baec612a10cae814b",
        "to": "0x29a5134d3b22f47ad52e0a22a63247363e9f35c2",
        "gas": "0x5fd36",
        "value": "0xd7d27e2bc31",
        "input": "0xc7c7f5b3000000000000000000000000000000000000000000000000000000000000008000000000000000000000000000000000000000000000000000000d7d27e2bc3100000000000000000000000000000000000000000000000000000000000000000000000000000000000000000990be6db8c785fbbf9ded8baec612a10cae814b0000000000000000000000000000000000000000000000000000000000009dfc0000000000000000000000001d434906aa520e592fab2b82406beff859be8e820000000000000000000000000000000000000000000000000de0b6b3a76400000000000000000000000000000000000000000000000000000de0b6b3a764000000000000000000000000000000000000000000000000000000000000000000e0000000000000000000000000000000000000000000000000000000000000012000000000000000000000000000000000000000000000000000000000000001400000000000000000000000000000000000000000000000000000000000000002000300000000000000000000000000000000000000000000000000000000000000000000000000000000000000000000000000000000000000000000000000000000000000000000000000000000000000000000000000000000000000000000",
        "nonce": "0x3a",
        "chainId": "0xaa36a7"
      },
      "additionalContracts": [],
      "isFixedGasLimit": false
    }
  ],
  "receipts": [
    {
      "status": "0x1",
      "cumulativeGasUsed": "0x78fbe4",
      "logs": [
        {
          "address": "0x29a5134d3b22f47ad52e0a22a63247363e9f35c2",
          "topics": [
            "0x603e191ccb1fad1c0004c9c1f37101358f84c3cf059031e9ec9b0c17cad34188",
            "0x0000000000000000000000000000000000000000000000000000000000009dfc"
          ],
          "data": "0x0000000000000000000000000000000000000000000000000de0b6b3a76400000000000000000000000000000000000000000000000000000de0b6b3a7640000",
          "blockHash": "0x38c078f1b04a2d409427c817aafd0f6eb9e8ee2229294fbb20e646bc6b1ba8c5",
          "blockNumber": "0x9b69d4",
          "blockTimestamp": "0x69826428",
          "transactionHash": "0x5542840e429eb24036345d2527666beb08009ca03a228b1cc4918f9f07019655",
          "transactionIndex": "0x5d",
          "logIndex": "0x61",
          "removed": false
        },
        {
          "address": "0x29a5134d3b22f47ad52e0a22a63247363e9f35c2",
          "topics": [
            "0xd2ff7607bbad14e866630d67da40c9a9cedd964cce5ce4c3dc4176133954ef98"
          ],
          "data": "0x000000000000000000000000000000000000000000002a5fee3d8d14329400000000000000000000000000000000000000000000000000000de0b6b3a7640000",
          "blockHash": "0x38c078f1b04a2d409427c817aafd0f6eb9e8ee2229294fbb20e646bc6b1ba8c5",
          "blockNumber": "0x9b69d4",
          "blockTimestamp": "0x69826428",
          "transactionHash": "0x5542840e429eb24036345d2527666beb08009ca03a228b1cc4918f9f07019655",
          "transactionIndex": "0x5d",
          "logIndex": "0x62",
          "removed": false
        },
        {
          "address": "0xca35c3fe456a87e6ce7827d1d784741613463204",
          "topics": [
            "0x8c5be1e5ebec7d5bd14f71427d1e84f3dd0314c0f7b2291e5b200ac8c7c3b925",
            "0x0000000000000000000000000990be6db8c785fbbf9ded8baec612a10cae814b",
            "0x00000000000000000000000029a5134d3b22f47ad52e0a22a63247363e9f35c2"
          ],
          "data": "0x0000000000000000000000000000000000000000000017816e33c632d6280000",
          "blockHash": "0x38c078f1b04a2d409427c817aafd0f6eb9e8ee2229294fbb20e646bc6b1ba8c5",
          "blockNumber": "0x9b69d4",
          "blockTimestamp": "0x69826428",
          "transactionHash": "0x5542840e429eb24036345d2527666beb08009ca03a228b1cc4918f9f07019655",
          "transactionIndex": "0x5d",
          "logIndex": "0x63",
          "removed": false
        },
        {
          "address": "0xca35c3fe456a87e6ce7827d1d784741613463204",
          "topics": [
            "0xddf252ad1be2c89b69c2b068fc378daa952ba7f163c4a11628f55a4df523b3ef",
            "0x0000000000000000000000000990be6db8c785fbbf9ded8baec612a10cae814b",
            "0x0000000000000000000000000000000000000000000000000000000000000000"
          ],
          "data": "0x0000000000000000000000000000000000000000000000000de0b6b3a7640000",
          "blockHash": "0x38c078f1b04a2d409427c817aafd0f6eb9e8ee2229294fbb20e646bc6b1ba8c5",
          "blockNumber": "0x9b69d4",
          "blockTimestamp": "0x69826428",
          "transactionHash": "0x5542840e429eb24036345d2527666beb08009ca03a228b1cc4918f9f07019655",
          "transactionIndex": "0x5d",
          "logIndex": "0x64",
          "removed": false
        },
        {
          "address": "0xca35c3fe456a87e6ce7827d1d784741613463204",
          "topics": [
            "0xdc7fd22bc401e7c6b9be2c2736286a2a42ea0c6307bc97ff0fb12bd0abd2c747",
            "0x0000000000000000000000000990be6db8c785fbbf9ded8baec612a10cae814b",
            "0x00000000000000000000000029a5134d3b22f47ad52e0a22a63247363e9f35c2"
          ],
          "data": "0x0000000000000000000000000000000000000000000000000de0b6b3a7640000",
          "blockHash": "0x38c078f1b04a2d409427c817aafd0f6eb9e8ee2229294fbb20e646bc6b1ba8c5",
          "blockNumber": "0x9b69d4",
          "blockTimestamp": "0x69826428",
          "transactionHash": "0x5542840e429eb24036345d2527666beb08009ca03a228b1cc4918f9f07019655",
          "transactionIndex": "0x5d",
          "logIndex": "0x65",
          "removed": false
        },
        {
          "address": "0xcc1ae8cf5d3904cef3360a9532b477529b177cce",
          "topics": [
            "0x61ed099e74a97a1d7f8bb0952a88ca8b7b8ebd00c126ea04671f92a81213318a"
          ],
          "data": "0x000000000000000000000000718b92b5cb0a5552039b593faf724d182a881eda0000000000000000000000000000000000000000000000000000091de429fe1b",
          "blockHash": "0x38c078f1b04a2d409427c817aafd0f6eb9e8ee2229294fbb20e646bc6b1ba8c5",
          "blockNumber": "0x9b69d4",
          "blockTimestamp": "0x69826428",
          "transactionHash": "0x5542840e429eb24036345d2527666beb08009ca03a228b1cc4918f9f07019655",
          "transactionIndex": "0x5d",
          "logIndex": "0x66",
          "removed": false
        },
        {
          "address": "0xcc1ae8cf5d3904cef3360a9532b477529b177cce",
          "topics": [
            "0x07ea52d82345d6e838192107d8fd7123d9c2ec8e916cd0aad13fd2b60db24644"
          ],
          "data": "0x000000000000000000000000000000000000000000000000000000000000006000000000000000000000000000000000000000000000000000000000000000a000000000000000000000000000000000000000000000000000000000000000c000000000000000000000000000000000000000000000000000000000000000010000000000000000000000008eebf8b423b73bfca51a1db4b7354aa0bfca9193000000000000000000000000000000000000000000000000000000000000000000000000000000000000000000000000000000000000000000000000000000010000000000000000000000000000000000000000000000000000045f43b8be16",
          "blockHash": "0x38c078f1b04a2d409427c817aafd0f6eb9e8ee2229294fbb20e646bc6b1ba8c5",
          "blockNumber": "0x9b69d4",
          "blockTimestamp": "0x69826428",
          "transactionHash": "0x5542840e429eb24036345d2527666beb08009ca03a228b1cc4918f9f07019655",
          "transactionIndex": "0x5d",
          "logIndex": "0x67",
          "removed": false
        },
        {
          "address": "0x6edce65403992e310a62460808c4b910d972f10f",
          "topics": [
            "0x1ab700d4ced0c005b164c0f789fd09fcbb0156d4c2041b8a3bfbcd961cd1567f"
          ],
          "data": "0x00000000000000000000000000000000000000000000000000000000000000600000000000000000000000000000000000000000000000000000000000000120000000000000000000000000cc1ae8cf5d3904cef3360a9532b477529b177cce000000000000000000000000000000000000000000000000000000000000009901000000000000000200009ce100000000000000000000000029a5134d3b22f47ad52e0a22a63247363e9f35c200009dfc00000000000000000000000016fbfcf4970d4550791faf75ae9baece75c85a27fa41b3f2db4942bde07fe1c9e258f19be25a021c71344e8ac405d66bc38ea4650000000000000000000000001d434906aa520e592fab2b82406beff859be8e8200000000000f424000000000000000000000000000000000000000000000000000000000000000000000000000001600030100110100000000000000000000000000030d4000000000000000000000",
          "blockHash": "0x38c078f1b04a2d409427c817aafd0f6eb9e8ee2229294fbb20e646bc6b1ba8c5",
          "blockNumber": "0x9b69d4",
          "blockTimestamp": "0x69826428",
          "transactionHash": "0x5542840e429eb24036345d2527666beb08009ca03a228b1cc4918f9f07019655",
          "transactionIndex": "0x5d",
          "logIndex": "0x68",
          "removed": false
        },
        {
          "address": "0x29a5134d3b22f47ad52e0a22a63247363e9f35c2",
          "topics": [
            "0x85496b760a4b7f8d66384b9df21b381f5d1b1e79f229a47aaf4c232edc2fe59a",
            "0xfa41b3f2db4942bde07fe1c9e258f19be25a021c71344e8ac405d66bc38ea465",
            "0x0000000000000000000000000990be6db8c785fbbf9ded8baec612a10cae814b"
          ],
          "data": "0x0000000000000000000000000000000000000000000000000000000000009dfc0000000000000000000000000000000000000000000000000de0b6b3a76400000000000000000000000000000000000000000000000000000de0b6b3a7640000",
          "blockHash": "0x38c078f1b04a2d409427c817aafd0f6eb9e8ee2229294fbb20e646bc6b1ba8c5",
          "blockNumber": "0x9b69d4",
          "blockTimestamp": "0x69826428",
          "transactionHash": "0x5542840e429eb24036345d2527666beb08009ca03a228b1cc4918f9f07019655",
          "transactionIndex": "0x5d",
          "logIndex": "0x69",
          "removed": false
        }
      ],
      "logsBloom": "0x00000000000000000000000000000000000000002000000010000000000100000000000020000000201000008000000000000200000000000000000000202040000002000000000000000008401300000000000000000000000000000000080000000000020000008200000000000800000000000000040000000010040000000001000000000820000000080000000000000100000000200000000000000000020000008000000000100000000000000000000000400000004440000000000000040002000000000080000080000000000000080000080000000000000020000090040000000000000000000000002000000000008800000000400000000020",
      "type": "0x2",
      "transactionHash": "0x5542840e429eb24036345d2527666beb08009ca03a228b1cc4918f9f07019655",
      "transactionIndex": "0x5d",
      "blockHash": "0x38c078f1b04a2d409427c817aafd0f6eb9e8ee2229294fbb20e646bc6b1ba8c5",
      "blockNumber": "0x9b69d4",
      "gasUsed": "0x4185a",
      "effectiveGasPrice": "0x3bfd42a4",
      "from": "0x0990be6db8c785fbbf9ded8baec612a10cae814b",
      "to": "0x29a5134d3b22f47ad52e0a22a63247363e9f35c2",
      "contractAddress": null
    }
  ],
  "libraries": [],
  "pending": [],
  "returns": {},
  "timestamp": 1770153003397,
  "chain": 11155111,
  "commit": "47b8acf"
}