{
  "transactions": [
    {
      "hash": "0x5763820ef37916701e0da569507d9dc4bd1e98e52571c7c435624f6a9af0ba85",
      "transactionType": "CALL",
      "contractName": null,
      "contractAddress": "0x741f0d8bde14140f62107fc60a0ee122b37d4630",
      "function": "batchBridgeWithEthFeeFromWallet((uint32,bytes32,uint256,uint256,bytes,bytes,bytes)[],address[],address[])",
      "arguments": [
        "[(30367, 0x000000000000000000000000741f0d8bde14140f62107fc60a0ee122b37d4630, 500000000000000000, 0, 0x, 0x, 0x)]",
        "[0x57558Cb8d6005DE0BAe8a2789d5EfaaE52dba5a8]",
        "[0x741F0d8Bde14140f62107FC60A0EE122B37D4630]"
      ],
      "transaction": {
        "from": "0x45dce8e4f2dc005a5f28206a46cb034697eeda8e",
        "to": "0x741f0d8bde14140f62107fc60a0ee122b37d4630",
        "gas": "0x94763",
        "value": "0x270529aa8be7d",
        "input": "0xb70d4241000000000000000000000000000000000000000000000000000000000000006000000000000000000000000000000000000000000000000000000000000001e0000000000000000000000000000000000000000000000000000000000000022000000000000000000000000000000000000000000000000000000000000000010000000000000000000000000000000000000000000000000000000000000020000000000000000000000000000000000000000000000000000000000000769f000000000000000000000000741f0d8bde14140f62107fc60a0ee122b37d463000000000000000000000000000000000000000000000000006f05b59d3b20000000000000000000000000000000000000000000000000000000000000000000000000000000000000000000000000000000000000000000000000000000000e000000000000000000000000000000000000000000000000000000000000001000000000000000000000000000000000000000000000000000000000000000120000000000000000000000000000000000000000000000000000000000000000000000000000000000000000000000000000000000000000000000000000000000000000000000000000000000000000000000000000000000000000000000000000000000000000000000000000000000000000000000000000000000000000100000000000000000000000057558cb8d6005de0bae8a2789d5efaae52dba5a80000000000000000000000000000000000000000000000000000000000000001000000000000000000000000741f0d8bde14140f62107fc60a0ee122b37d4630",
        "nonce": "0x9b",
        "chainId": "0xc4"
      },
      "additionalContracts": [],
      "isFixedGasLimit": false
    }
  ],
  "receipts": [
    {
      "status": "0x1",
      "cumulativeGasUsed": "0x12703c",
      "logs": [
        {
          "address": "0x57558cb8d6005de0bae8a2789d5efaae52dba5a8",
          "topics": [
            "0xddf252ad1be2c89b69c2b068fc378daa952ba7f163c4a11628f55a4df523b3ef",
            "0x000000000000000000000000741f0d8bde14140f62107fc60a0ee122b37d4630",
            "0x0000000000000000000000000000000000000000000000000000000000000000"
          ],
          "data": "0x00000000000000000000000000000000000000000000000006f05b59d3b20000",
          "blockHash": "0x2baea415450ae715071a90a0fbc1fa447aa98b7d7e99d91079bb4c452aae2b78",
          "blockNumber": "0x2227210",
          "transactionHash": "0x5763820ef37916701e0da569507d9dc4bd1e98e52571c7c435624f6a9af0ba85",
          "transactionIndex": "0x7",
          "logIndex": "0xc",
          "removed": false
        },
        {
          "address": "0xe1844c5d63a9543023008d332bd3d2e6f1fe1043",
          "topics": [
            "0x61ed099e74a97a1d7f8bb0952a88ca8b7b8ebd00c126ea04671f92a81213318a"
          ],
          "data": "0x000000000000000000000000cce466a522984415bc91338c232d98869193d46e00000000000000000000000000000000000000000000000000015950aa5a2c57",
          "blockHash": "0x2baea415450ae715071a90a0fbc1fa447aa98b7d7e99d91079bb4c452aae2b78",
          "blockNumber": "0x2227210",
          "transactionHash": "0x5763820ef37916701e0da569507d9dc4bd1e98e52571c7c435624f6a9af0ba85",
          "transactionIndex": "0x7",
          "logIndex": "0xd",
          "removed": false
        },
        {
          "address": "0xe1844c5d63a9543023008d332bd3d2e6f1fe1043",
          "topics": [
            "0x07ea52d82345d6e838192107d8fd7123d9c2ec8e916cd0aad13fd2b60db24644"
          ],
          "data": "0x000000000000000000000000000000000000000000000000000000000000006000000000000000000000000000000000000000000000000000000000000000e0000000000000000000000000000000000000000000000000000000000000010000000000000000000000000000000000000000000000000000000000000000030000000000000000000000002ae36a544b904f2f2960f6fd1a6084b4b11ba3340000000000000000000000009c061c9a4782294eef65ef28cb88233a987f4bdd000000000000000000000000dd7b5e1db4aafd5c8ec3b764efb8ed265aa5445b0000000000000000000000000000000000000000000000000000000000000000000000000000000000000000000000000000000000000000000000000000000300000000000000000000000000000000000000000000000000005f92ac1bc45a00000000000000000000000000000000000000000000000000005bb7a21966e600000000000000000000000000000000000000000000000000005bb7a21966e6",
          "blockHash": "0x2baea415450ae715071a90a0fbc1fa447aa98b7d7e99d91079bb4c452aae2b78",
          "blockNumber": "0x2227210",
          "transactionHash": "0x5763820ef37916701e0da569507d9dc4bd1e98e52571c7c435624f6a9af0ba85",
          "transactionIndex": "0x7",
          "logIndex": "0xe",
          "removed": false
        },
        {
          "address": "0x1a44076050125825900e736c501f859c50fe728c",
          "topics": [
            "0x1ab700d4ced0c005b164c0f789fd09fcbb0156d4c2041b8a3bfbcd961cd1567f"
          ],
          "data": "0x00000000000000000000000000000000000000000000000000000000000000600000000000000000000000000000000000000000000000000000000000000120000000000000000000000000e1844c5d63a9543023008d332bd3d2e6f1fe104300000000000000000000000000000000000000000000000000000000000000990100000000000000010000764200000000000000000000000057558cb8d6005de0bae8a2789d5efaae52dba5a80000769f00000000000000000000000057558cb8d6005de0bae8a2789d5efaae52dba5a84b61c9f86511a6ef02b7bff5a9e0ba5cf8d9226251f62f64e9c1f3e15dff6012000000000000000000000000741f0d8bde14140f62107fc60a0ee122b37d4630000000000007a12000000000000000000000000000000000000000000000000000000000000000000000000000001600030100110100000000000000000000000000030d4000000000000000000000",
          "blockHash": "0x2baea415450ae715071a90a0fbc1fa447aa98b7d7e99d91079bb4c452aae2b78",
          "blockNumber": "0x2227210",
          "transactionHash": "0x5763820ef37916701e0da569507d9dc4bd1e98e52571c7c435624f6a9af0ba85",
          "transactionIndex": "0x7",
          "logIndex": "0xf",
          "removed": false
        },
        {
          "address": "0x57558cb8d6005de0bae8a2789d5efaae52dba5a8",
          "topics": [
            "0x85496b760a4b7f8d66384b9df21b381f5d1b1e79f229a47aaf4c232edc2fe59a",
            "0x4b61c9f86511a6ef02b7bff5a9e0ba5cf8d9226251f62f64e9c1f3e15dff6012",
            "0x000000000000000000000000741f0d8bde14140f62107fc60a0ee122b37d4630"
          ],
          "data": "0x000000000000000000000000000000000000000000000000000000000000769f00000000000000000000000000000000000000000000000006f05b59d3b2000000000000000000000000000000000000000000000000000006f05b59d3b20000",
          "blockHash": "0x2baea415450ae715071a90a0fbc1fa447aa98b7d7e99d91079bb4c452aae2b78",
          "blockNumber": "0x2227210",
          "transactionHash": "0x5763820ef37916701e0da569507d9dc4bd1e98e52571c7c435624f6a9af0ba85",
          "transactionIndex": "0x7",
          "logIndex": "0x10",
          "removed": false
        }
      ],
      "logsBloom": "0x0000000000000000000000000004004002000000000000000000010000100000000000000000000000000000000000040000010000000000000000000000000000000200000000000000000a00000000000000000000000000000000000000000000000002000000800000000000080000000000001000000000001000000000000000000000000000000008000000000000000000000000000000000000000000000000a000001000102000000000000000000000400000000440000000000000000002000000000000000080000000000000008000000000000000000020000000040000000002000000000000002000000000018000000000000000000000",
      "type": "0x0",
      "transactionHash": "0x5763820ef37916701e0da569507d9dc4bd1e98e52571c7c435624f6a9af0ba85",
      "transactionIndex": "0x7",
      "blockHash": "0x2baea415450ae715071a90a0fbc1fa447aa98b7d7e99d91079bb4c452aae2b78",
      "blockNumber": "0x2227210",
      "gasUsed": "0x65833",
      "effectiveGasPrice": "0x5f5e100",
      "from": "0x45dce8e4f2dc005a5f28206a46cb034697eeda8e",
      "to": "0x741f0d8bde14140f62107fc60a0ee122b37d4630",
      "contractAddress": null
    }
  ],
  "libraries": [],
  "pending": [],
  "returns": {},
  "timestamp": 1757940680332,
  "chain": 196,
  "commit": "35844b5"
}