{
  "transactions": [
    {
      "hash": "0xa7e955c5b78887e20ce159e07a9678a402ab0dad147d3f4cc9797c55003a3c8f",
      "transactionType": "CALL",
      "contractName": null,
      "contractAddress": "0x741f0d8bde14140f62107fc60a0ee122b37d4630",
      "function": "batchBridgeWithEthFeeFromWallet((uint32,bytes32,uint256,uint256,bytes,bytes,bytes)[],address[],address[])",
      "arguments": [
        "[(30383, 0x000000000000000000000000741f0d8bde14140f62107fc60a0ee122b37d4630, 500000000000000000, 0, 0x, 0x, 0x)]",
        "[0x57558Cb8d6005DE0BAe8a2789d5EfaaE52dba5a8]",
        "[0x741F0d8Bde14140f62107FC60A0EE122B37D4630]"
      ],
      "transaction": {
        "from": "0x45dce8e4f2dc005a5f28206a46cb034697eeda8e",
        "to": "0x741f0d8bde14140f62107fc60a0ee122b37d4630",
        "gas": "0x94763",
        "value": "0x18aa8a4a27eb9",
        "input": "0xb70d4241000000000000000000000000000000000000000000000000000000000000006000000000000000000000000000000000000000000000000000000000000001e000000000000000000000000000000000000000000000000000000000000002200000000000000000000000000000000000000000000000000000000000000001000000000000000000000000000000000000000000000000000000000000002000000000000000000000000000000000000000000000000000000000000076af000000000000000000000000741f0d8bde14140f62107fc60a0ee122b37d463000000000000000000000000000000000000000000000000006f05b59d3b20000000000000000000000000000000000000000000000000000000000000000000000000000000000000000000000000000000000000000000000000000000000e000000000000000000000000000000000000000000000000000000000000001000000000000000000000000000000000000000000000000000000000000000120000000000000000000000000000000000000000000000000000000000000000000000000000000000000000000000000000000000000000000000000000000000000000000000000000000000000000000000000000000000000000000000000000000000000000000000000000000000000000000000000000000000000000100000000000000000000000057558cb8d6005de0bae8a2789d5efaae52dba5a80000000000000000000000000000000000000000000000000000000000000001000000000000000000000000741f0d8bde14140f62107fc60a0ee122b37d4630",
        "nonce": "0xa2",
        "chainId": "0xc4"
      },
      "additionalContracts": [],
      "isFixedGasLimit": false
    }
  ],
  "receipts": [
    {
      "status": "0x1",
      "cumulativeGasUsed": "0x65833",
      "logs": [
        {
          "address": "0x57558cb8d6005de0bae8a2789d5efaae52dba5a8",
          "topics": [
            "0xddf252ad1be2c89b69c2b068fc378daa952ba7f163c4a11628f55a4df523b3ef",
            "0x000000000000000000000000741f0d8bde14140f62107fc60a0ee122b37d4630",
            "0x0000000000000000000000000000000000000000000000000000000000000000"
          ],
          "data": "0x00000000000000000000000000000000000000000000000006f05b59d3b20000",
          "blockHash": "0x18fbb63857eb33b068936344068a0fd614fae73814e535fa028b85646436a180",
          "blockNumber": "0x253d8e1",
          "transactionHash": "0xa7e955c5b78887e20ce159e07a9678a402ab0dad147d3f4cc9797c55003a3c8f",
          "transactionIndex": "0x0",
          "logIndex": "0x0",
          "removed": false
        },
        {
          "address": "0xe1844c5d63a9543023008d332bd3d2e6f1fe1043",
          "topics": [
            "0x61ed099e74a97a1d7f8bb0952a88ca8b7b8ebd00c126ea04671f92a81213318a"
          ],
          "data": "0x000000000000000000000000cce466a522984415bc91338c232d98869193d46e00000000000000000000000000000000000000000000000000018aa8a3f2524c",
          "blockHash": "0x18fbb63857eb33b068936344068a0fd614fae73814e535fa028b85646436a180",
          "blockNumber": "0x253d8e1",
          "transactionHash": "0xa7e955c5b78887e20ce159e07a9678a402ab0dad147d3f4cc9797c55003a3c8f",
          "transactionIndex": "0x0",
          "logIndex": "0x1",
          "removed": false
        },
        {
          "address": "0xe1844c5d63a9543023008d332bd3d2e6f1fe1043",
          "topics": [
            "0x07ea52d82345d6e838192107d8fd7123d9c2ec8e916cd0aad13fd2b60db24644"
          ],
          "data": "0x000000000000000000000000000000000000000000000000000000000000006000000000000000000000000000000000000000000000000000000000000000e0000000000000000000000000000000000000000000000000000000000000010000000000000000000000000000000000000000000000000000000000000000030000000000000000000000002ae36a544b904f2f2960f6fd1a6084b4b11ba3340000000000000000000000009c061c9a4782294eef65ef28cb88233a987f4bdd000000000000000000000000dd7b5e1db4aafd5c8ec3b764efb8ed265aa5445b0000000000000000000000000000000000000000000000000000000000000000000000000000000000000000000000000000000000000000000000000000000300000000000000000000000000000000000000000000000000000000003c58f9000000000000000000000000000000000000000000000000000000000039e9ba000000000000000000000000000000000000000000000000000000000039e9ba",
          "blockHash": "0x18fbb63857eb33b068936344068a0fd614fae73814e535fa028b85646436a180",
          "blockNumber": "0x253d8e1",
          "transactionHash": "0xa7e955c5b78887e20ce159e07a9678a402ab0dad147d3f4cc9797c55003a3c8f",
          "transactionIndex": "0x0",
          "logIndex": "0x2",
          "removed": false
        },
        {
          "address": "0x1a44076050125825900e736c501f859c50fe728c",
          "topics": [
            "0x1ab700d4ced0c005b164c0f789fd09fcbb0156d4c2041b8a3bfbcd961cd1567f"
          ],
          "data": "0x00000000000000000000000000000000000000000000000000000000000000600000000000000000000000000000000000000000000000000000000000000120000000000000000000000000e1844c5d63a9543023008d332bd3d2e6f1fe104300000000000000000000000000000000000000000000000000000000000000990100000000000000010000764200000000000000000000000057558cb8d6005de0bae8a2789d5efaae52dba5a8000076af00000000000000000000000057558cb8d6005de0bae8a2789d5efaae52dba5a8d14e3f4de3cad0e3e8d859bb413826ef5ab05367ba98deb8c75ab103f06c18b7000000000000000000000000741f0d8bde14140f62107fc60a0ee122b37d4630000000000007a12000000000000000000000000000000000000000000000000000000000000000000000000000001600030100110100000000000000000000000000030d4000000000000000000000",
          "blockHash": "0x18fbb63857eb33b068936344068a0fd614fae73814e535fa028b85646436a180",
          "blockNumber": "0x253d8e1",
          "transactionHash": "0xa7e955c5b78887e20ce159e07a9678a402ab0dad147d3f4cc9797c55003a3c8f",
          "transactionIndex": "0x0",
          "logIndex": "0x3",
          "removed": false
        },
        {
          "address": "0x57558cb8d6005de0bae8a2789d5efaae52dba5a8",
          "topics": [
            "0x85496b760a4b7f8d66384b9df21b381f5d1b1e79f229a47aaf4c232edc2fe59a",
            "0xd14e3f4de3cad0e3e8d859bb413826ef5ab05367ba98deb8c75ab103f06c18b7",
            "0x000000000000000000000000741f0d8bde14140f62107fc60a0ee122b37d4630"
          ],
          "data": "0x00000000000000000000000000000000000000000000000000000000000076af00000000000000000000000000000000000000000000000006f05b59d3b2000000000000000000000000000000000000000000000000000006f05b59d3b20000",
          "blockHash": "0x18fbb63857eb33b068936344068a0fd614fae73814e535fa028b85646436a180",
          "blockNumber": "0x253d8e1",
          "transactionHash": "0xa7e955c5b78887e20ce159e07a9678a402ab0dad147d3f4cc9797c55003a3c8f",
          "transactionIndex": "0x0",
          "logIndex": "0x4",
          "removed": false
        }
      ],
      "logsBloom": "0x0000000000000000000000000004004002000000000000000000000200100000000000000000000000000000000000040000010000000000000000000000000000000200000000000000000800000000000000000000000000000000000000000000000002400000800000000000080000000000001000000000001000000000000000000000000000000008000000000000000000000000000000000000000000000000a000001000100000000000000000000000400000000440000000000000400002000000000000000080000000000000008000000000000000000020000000040000000002000000000000002000000000018000000000000000000000",
      "type": "0x0",
      "transactionHash": "0xa7e955c5b78887e20ce159e07a9678a402ab0dad147d3f4cc9797c55003a3c8f",
      "transactionIndex": "0x0",
      "blockHash": "0x18fbb63857eb33b068936344068a0fd614fae73814e535fa028b85646436a180",
      "blockNumber": "0x253d8e1",
      "gasUsed": "0x65833",
      "effectiveGasPrice": "0x5f5e100",
      "from": "0x45dce8e4f2dc005a5f28206a46cb034697eeda8e",
      "to": "0x741f0d8bde14140f62107fc60a0ee122b37d4630",
      "contractAddress": null
    }
  ],
  "libraries": [],
  "pending": [],
  "returns": {},
  "timestamp": 1759693769342,
  "chain": 196,
  "commit": "eed1662"
}