{
  "transactions": [
    {
      "hash": "0x594927ffef12e089ec4d12db3c6c7a3b1d7b67621c1de62d3cf0659b3a8481bd",
      "transactionType": "CALL",
      "contractName": null,
      "contractAddress": "0x741f0d8bde14140f62107fc60a0ee122b37d4630",
      "function": "batchBridgeWithEthFeeFromWallet((uint32,bytes32,uint256,uint256,bytes,bytes,bytes)[],address[],address[])",
      "arguments": [
        "[(30211, 0x0000000000000000000000004a767e2ef83577225522ef8ed71056c6e3acb216, 1000000000000000000, 0, 0x, 0x, 0x), (30214, 0x000000000000000000000000741f0d8bde14140f62107fc60a0ee122b37d4630, 1000000000000000000, 0, 0x, 0x, 0x)]",
        "[0x57558Cb8d6005DE0BAe8a2789d5EfaaE52dba5a8, 0x57558Cb8d6005DE0BAe8a2789d5EfaaE52dba5a8]",
        "[0x741F0d8Bde14140f62107FC60A0EE122B37D4630, 0x741F0d8Bde14140f62107FC60A0EE122B37D4630]"
      ],
      "transaction": {
        "from": "0x45dce8e4f2dc005a5f28206a46cb034697eeda8e",
        "to": "0x741f0d8bde14140f62107fc60a0ee122b37d4630",
        "gas": "0xedb33",
        "value": "0xe6b4abcda9d49",
        "input": "0xb70d42410000000000000000000000000000000000000000000000000000000000000060000000000000000000000000000000000000000000000000000000000000034000000000000000000000000000000000000000000000000000000000000003a000000000000000000000000000000000000000000000000000000000000000020000000000000000000000000000000000000000000000000000000000000040000000000000000000000000000000000000000000000000000000000000018000000000000000000000000000000000000000000000000000000000000076030000000000000000000000004a767e2ef83577225522ef8ed71056c6e3acb2160000000000000000000000000000000000000000000000000de0b6b3a7640000000000000000000000000000000000000000000000000000000000000000000000000000000000000000000000000000000000000000000000000000000000e0000000000000000000000000000000000000000000000000000000000000010000000000000000000000000000000000000000000000000000000000000001200000000000000000000000000000000000000000000000000000000000000000000000000000000000000000000000000000000000000000000000000000000000000000000000000000000000000000000000000000000000000000000000000000000000000000000000000000000000000000000000000000000000007606000000000000000000000000741f0d8bde14140f62107fc60a0ee122b37d46300000000000000000000000000000000000000000000000000de0b6b3a7640000000000000000000000000000000000000000000000000000000000000000000000000000000000000000000000000000000000000000000000000000000000e000000000000000000000000000000000000000000000000000000000000001000000000000000000000000000000000000000000000000000000000000000120000000000000000000000000000000000000000000000000000000000000000000000000000000000000000000000000000000000000000000000000000000000000000000000000000000000000000000000000000000000000000000000000000000000000000000000000000000000000000000000000000000000000000200000000000000000000000057558cb8d6005de0bae8a2789d5efaae52dba5a800000000000000000000000057558cb8d6005de0bae8a2789d5efaae52dba5a80000000000000000000000000000000000000000000000000000000000000002000000000000000000000000741f0d8bde14140f62107fc60a0ee122b37d4630000000000000000000000000741f0d8bde14140f62107fc60a0ee122b37d4630",
        "nonce": "0x94",
        "chainId": "0xc4"
      },
      "additionalContracts": [],
      "isFixedGasLimit": false
    }
  ],
  "receipts": [
    {
      "status": "0x1",
      "cumulativeGasUsed": "0xbccc3",
      "logs": [
        {
          "address": "0x57558cb8d6005de0bae8a2789d5efaae52dba5a8",
          "topics": [
            "0xddf252ad1be2c89b69c2b068fc378daa952ba7f163c4a11628f55a4df523b3ef",
            "0x000000000000000000000000741f0d8bde14140f62107fc60a0ee122b37d4630",
            "0x0000000000000000000000000000000000000000000000000000000000000000"
          ],
          "data": "0x0000000000000000000000000000000000000000000000000de0b6b3a7640000",
          "blockHash": "0x13befec2ff452d53c8d0128aed4da135b202ca1a4523fa7dfc24d07ced4a1097",
          "blockNumber": "0x20455ad",
          "transactionHash": "0x594927ffef12e089ec4d12db3c6c7a3b1d7b67621c1de62d3cf0659b3a8481bd",
          "transactionIndex": "0x1",
          "logIndex": "0x0",
          "removed": false
        },
        {
          "address": "0xe1844c5d63a9543023008d332bd3d2e6f1fe1043",
          "topics": [
            "0x61ed099e74a97a1d7f8bb0952a88ca8b7b8ebd00c126ea04671f92a81213318a"
          ],
          "data": "0x000000000000000000000000cce466a522984415bc91338c232d98869193d46e00000000000000000000000000000000000000000000000000046d08936f2b1c",
          "blockHash": "0x13befec2ff452d53c8d0128aed4da135b202ca1a4523fa7dfc24d07ced4a1097",
          "blockNumber": "0x20455ad",
          "transactionHash": "0x594927ffef12e089ec4d12db3c6c7a3b1d7b67621c1de62d3cf0659b3a8481bd",
          "transactionIndex": "0x1",
          "logIndex": "0x1",
          "removed": false
        },
        {
          "address": "0xe1844c5d63a9543023008d332bd3d2e6f1fe1043",
          "topics": [
            "0x07ea52d82345d6e838192107d8fd7123d9c2ec8e916cd0aad13fd2b60db24644"
          ],
          "data": "0x000000000000000000000000000000000000000000000000000000000000006000000000000000000000000000000000000000000000000000000000000000e0000000000000000000000000000000000000000000000000000000000000010000000000000000000000000000000000000000000000000000000000000000030000000000000000000000002ae36a544b904f2f2960f6fd1a6084b4b11ba3340000000000000000000000009c061c9a4782294eef65ef28cb88233a987f4bdd000000000000000000000000dd7b5e1db4aafd5c8ec3b764efb8ed265aa5445b000000000000000000000000000000000000000000000000000000000000000000000000000000000000000000000000000000000000000000000000000000030000000000000000000000000000000000000000000000000000a49aaaac657900000000000000000000000000000000000000000000000000009df6b35f276700000000000000000000000000000000000000000000000000009df6b35f2767",
          "blockHash": "0x13befec2ff452d53c8d0128aed4da135b202ca1a4523fa7dfc24d07ced4a1097",
          "blockNumber": "0x20455ad",
          "transactionHash": "0x594927ffef12e089ec4d12db3c6c7a3b1d7b67621c1de62d3cf0659b3a8481bd",
          "transactionIndex": "0x1",
          "logIndex": "0x2",
          "removed": false
        },
        {
          "address": "0x1a44076050125825900e736c501f859c50fe728c",
          "topics": [
            "0x1ab700d4ced0c005b164c0f789fd09fcbb0156d4c2041b8a3bfbcd961cd1567f"
          ],
          "data": "0x00000000000000000000000000000000000000000000000000000000000000600000000000000000000000000000000000000000000000000000000000000120000000000000000000000000e1844c5d63a9543023008d332bd3d2e6f1fe104300000000000000000000000000000000000000000000000000000000000000990100000000000000010000764200000000000000000000000057558cb8d6005de0bae8a2789d5efaae52dba5a800007603000000000000000000000000a057d8d4fc86a62801ce363c169b0a8d192f6cee1c6095af4268112892f6ecb0678dd8054163a6ea115f053284123732301dc7ad0000000000000000000000004a767e2ef83577225522ef8ed71056c6e3acb21600000000000f424000000000000000000000000000000000000000000000000000000000000000000000000000001600030100110100000000000000000000000000030d4000000000000000000000",
          "blockHash": "0x13befec2ff452d53c8d0128aed4da135b202ca1a4523fa7dfc24d07ced4a1097",
          "blockNumber": "0x20455ad",
          "transactionHash": "0x594927ffef12e089ec4d12db3c6c7a3b1d7b67621c1de62d3cf0659b3a8481bd",
          "transactionIndex": "0x1",
          "logIndex": "0x3",
          "removed": false
        },
        {
          "address": "0x57558cb8d6005de0bae8a2789d5efaae52dba5a8",
          "topics": [
            "0x85496b760a4b7f8d66384b9df21b381f5d1b1e79f229a47aaf4c232edc2fe59a",
            "0x1c6095af4268112892f6ecb0678dd8054163a6ea115f053284123732301dc7ad",
            "0x000000000000000000000000741f0d8bde14140f62107fc60a0ee122b37d4630"
          ],
          "data": "0x00000000000000000000000000000000000000000000000000000000000076030000000000000000000000000000000000000000000000000de0b6b3a76400000000000000000000000000000000000000000000000000000de0b6b3a7640000",
          "blockHash": "0x13befec2ff452d53c8d0128aed4da135b202ca1a4523fa7dfc24d07ced4a1097",
          "blockNumber": "0x20455ad",
          "transactionHash": "0x594927ffef12e089ec4d12db3c6c7a3b1d7b67621c1de62d3cf0659b3a8481bd",
          "transactionIndex": "0x1",
          "logIndex": "0x4",
          "removed": false
        },
        {
          "address": "0x57558cb8d6005de0bae8a2789d5efaae52dba5a8",
          "topics": [
            "0xddf252ad1be2c89b69c2b068fc378daa952ba7f163c4a11628f55a4df523b3ef",
            "0x000000000000000000000000741f0d8bde14140f62107fc60a0ee122b37d4630",
            "0x0000000000000000000000000000000000000000000000000000000000000000"
          ],
          "data": "0x0000000000000000000000000000000000000000000000000de0b6b3a7640000",
          "blockHash": "0x13befec2ff452d53c8d0128aed4da135b202ca1a4523fa7dfc24d07ced4a1097",
          "blockNumber": "0x20455ad",
          "transactionHash": "0x594927ffef12e089ec4d12db3c6c7a3b1d7b67621c1de62d3cf0659b3a8481bd",
          "transactionIndex": "0x1",
          "logIndex": "0x5",
          "removed": false
        },
        {
          "address": "0xe1844c5d63a9543023008d332bd3d2e6f1fe1043",
          "topics": [
            "0x61ed099e74a97a1d7f8bb0952a88ca8b7b8ebd00c126ea04671f92a81213318a"
          ],
          "data": "0x000000000000000000000000cce466a522984415bc91338c232d98869193d46e00000000000000000000000000000000000000000000000000081cd4315b52b3",
          "blockHash": "0x13befec2ff452d53c8d0128aed4da135b202ca1a4523fa7dfc24d07ced4a1097",
          "blockNumber": "0x20455ad",
          "transactionHash": "0x594927ffef12e089ec4d12db3c6c7a3b1d7b67621c1de62d3cf0659b3a8481bd",
          "transactionIndex": "0x1",
          "logIndex": "0x6",
          "removed": false
        },
        {
          "address": "0xe1844c5d63a9543023008d332bd3d2e6f1fe1043",
          "topics": [
            "0x07ea52d82345d6e838192107d8fd7123d9c2ec8e916cd0aad13fd2b60db24644"
          ],
          "data": "0x000000000000000000000000000000000000000000000000000000000000006000000000000000000000000000000000000000000000000000000000000000e0000000000000000000000000000000000000000000000000000000000000010000000000000000000000000000000000000000000000000000000000000000030000000000000000000000002ae36a544b904f2f2960f6fd1a6084b4b11ba3340000000000000000000000009c061c9a4782294eef65ef28cb88233a987f4bdd000000000000000000000000dd7b5e1db4aafd5c8ec3b764efb8ed265aa5445b000000000000000000000000000000000000000000000000000000000000000000000000000000000000000000000000000000000000000000000000000000030000000000000000000000000000000000000000000000000000004ec06d049d0000000000000000000000000000000000000000000000000000004b931c334b0000000000000000000000000000000000000000000000000000004b931c334b",
          "blockHash": "0x13befec2ff452d53c8d0128aed4da135b202ca1a4523fa7dfc24d07ced4a1097",
          "blockNumber": "0x20455ad",
          "transactionHash": "0x594927ffef12e089ec4d12db3c6c7a3b1d7b67621c1de62d3cf0659b3a8481bd",
          "transactionIndex": "0x1",
          "logIndex": "0x7",
          "removed": false
        },
        {
          "address": "0x1a44076050125825900e736c501f859c50fe728c",
          "topics": [
            "0x1ab700d4ced0c005b164c0f789fd09fcbb0156d4c2041b8a3bfbcd961cd1567f"
          ],
          "data": "0x00000000000000000000000000000000000000000000000000000000000000600000000000000000000000000000000000000000000000000000000000000120000000000000000000000000e1844c5d63a9543023008d332bd3d2e6f1fe104300000000000000000000000000000000000000000000000000000000000000990100000000000000010000764200000000000000000000000057558cb8d6005de0bae8a2789d5efaae52dba5a80000760600000000000000000000000057558cb8d6005de0bae8a2789d5efaae52dba5a81fdebbdd315f1ebe69b5bdb48838ea988f3b4278a4778210b29b9aca903532f5000000000000000000000000741f0d8bde14140f62107fc60a0ee122b37d463000000000000f424000000000000000000000000000000000000000000000000000000000000000000000000000001600030100110100000000000000000000000000030d4000000000000000000000",
          "blockHash": "0x13befec2ff452d53c8d0128aed4da135b202ca1a4523fa7dfc24d07ced4a1097",
          "blockNumber": "0x20455ad",
          "transactionHash": "0x594927ffef12e089ec4d12db3c6c7a3b1d7b67621c1de62d3cf0659b3a8481bd",
          "transactionIndex": "0x1",
          "logIndex": "0x8",
          "removed": false
        },
        {
          "address": "0x57558cb8d6005de0bae8a2789d5efaae52dba5a8",
          "topics": [
            "0x85496b760a4b7f8d66384b9df21b381f5d1b1e79f229a47aaf4c232edc2fe59a",
            "0x1fdebbdd315f1ebe69b5bdb48838ea988f3b4278a4778210b29b9aca903532f5",
            "0x000000000000000000000000741f0d8bde14140f62107fc60a0ee122b37d4630"
          ],
          "data": "0x00000000000000000000000000000000000000000000000000000000000076060000000000000000000000000000000000000000000000000de0b6b3a76400000000000000000000000000000000000000000000000000000de0b6b3a7640000",
          "blockHash": "0x13befec2ff452d53c8d0128aed4da135b202ca1a4523fa7dfc24d07ced4a1097",
          "blockNumber": "0x20455ad",
          "transactionHash": "0x594927ffef12e089ec4d12db3c6c7a3b1d7b67621c1de62d3cf0659b3a8481bd",
          "transactionIndex": "0x1",
          "logIndex": "0x9",
          "removed": false
        }
      ],
      "logsBloom": "0x0000000000000000000000000004004002000000000800000000000000100000000000000000000000000000000000040000010000000000004000000000000000000200000000000000000800000000000000000000000000000000000000000000000002000000800000000000080000000000001000000000001000000000002000000000800000000008000000000040000000000000000000000000000000000000a000001000100000000000000000000000400000000440000000000000000002000000000000000080000000000000008000000000000000000020000000040000000002000000000000002000000000018000000000000800000000",
      "type": "0x0",
      "transactionHash": "0x594927ffef12e089ec4d12db3c6c7a3b1d7b67621c1de62d3cf0659b3a8481bd",
      "transactionIndex": "0x1",
      "blockHash": "0x13befec2ff452d53c8d0128aed4da135b202ca1a4523fa7dfc24d07ced4a1097",
      "blockNumber": "0x20455ad",
      "gasUsed": "0xa287b",
      "effectiveGasPrice": "0x5f5e101",
      "from": "0x45dce8e4f2dc005a5f28206a46cb034697eeda8e",
      "to": "0x741f0d8bde14140f62107fc60a0ee122b37d4630",
      "contractAddress": null
    }
  ],
  "libraries": [],
  "pending": [],
  "returns": {},
  "timestamp": 1756838617373,
  "chain": 196,
  "commit": "15622a9"
}