{
  "transactions": [
    {
      "hash": "0xbed89a9edb0efe5e4cae6b181975be496320416559ab0063ef8fc72ac0a05268",
      "transactionType": "CALL",
      "contractName": null,
      "contractAddress": "0x458edf815687e48354909a1a848f2528e1655764",
      "function": "mint(address,uint256)",
      "arguments": [
        "0x741F0d8Bde14140f62107FC60A0EE122B37D4630",
        "1000000000000000000000"
      ],
      "transaction": {
        "from": "0x45dce8e4f2dc005a5f28206a46cb034697eeda8e",
        "to": "0x458edf815687e48354909a1a848f2528e1655764",
        "gas": "0x1bc3f",
        "value": "0x0",
        "input": "0x40c10f19000000000000000000000000741f0d8bde14140f62107fc60a0ee122b37d463000000000000000000000000000000000000000000000003635c9adc5dea00000",
        "nonce": "0x10d",
        "chainId": "0xfc"
      },
      "additionalContracts": [],
      "isFixedGasLimit": false
    }
  ],
  "receipts": [
    {
      "status": "0x1",
      "cumulativeGasUsed": "0x1ecb2",
      "logs": [
        {
          "address": "0x458edf815687e48354909a1a848f2528e1655764",
          "topics": [
            "0xddf252ad1be2c89b69c2b068fc378daa952ba7f163c4a11628f55a4df523b3ef",
            "0x0000000000000000000000000000000000000000000000000000000000000000",
            "0x000000000000000000000000741f0d8bde14140f62107fc60a0ee122b37d4630"
          ],
          "data": "0x00000000000000000000000000000000000000000000003635c9adc5dea00000",
          "blockHash": "0x04062582695ea5ebaca2b6a6ae718f97da920980485d7e3f7094f4e9a7e5031f",
          "blockNumber": "0x1ee72d3",
          "blockTimestamp": "0x6998c2fd",
          "transactionHash": "0xbed89a9edb0efe5e4cae6b181975be496320416559ab0063ef8fc72ac0a05268",
          "transactionIndex": "0x1",
          "logIndex": "0x0",
          "removed": false
        }
      ],
      "logsBloom": "0x00000000000000000000000000000040000000000000000000000000000000000000000000000000000000000000000000000100000000000000000000000000000000000000000000000008000000000000000000000000000000000000000000000000020000000000000000000800000000000040000000000010000000000000000000000000000000000000000000000000000000000000000040000000000004000000001000000000000000000000000000000000000000000000000000000002000000000000000000000000000000000000000000000000000020000000000000000000000000000000000000000000000000000000000000000000",
      "type": "0x2",
      "transactionHash": "0xbed89a9edb0efe5e4cae6b181975be496320416559ab0063ef8fc72ac0a05268",
      "transactionIndex": "0x1",
      "blockHash": "0x04062582695ea5ebaca2b6a6ae718f97da920980485d7e3f7094f4e9a7e5031f",
      "blockNumber": "0x1ee72d3",
      "gasUsed": "0x12fc3",
      "effectiveGasPrice": "0xff",
      "from": "0x45dce8e4f2dc005a5f28206a46cb034697eeda8e",
      "to": "0x458edf815687e48354909a1a848f2528e1655764",
      "contractAddress": null,
      "l1BaseFeeScalar": "0x2faf080",
      "l1BlobBaseFee": "0x23db69",
      "l1BlobBaseFeeScalar": "0x0",
      "l1Fee": "0x31abe948f00",
      "l1GasPrice": "0x28b0dfe",
      "l1GasUsed": "0x640"
    }
  ],
  "libraries": [],
  "pending": [],
  "returns": {},
  "timestamp": 1771619069790,
  "chain": 252,
  "commit": "8ac33df"
}