{
  "transactions": [
    {
      "hash": "0x7f2819afa100acceae631b67f75d45ef1935b4b0f5e81e0c4eb9fbbb2431d49d",
      "transactionType": "CALL",
      "contractName": null,
      "contractAddress": "0x741f0d8bde14140f62107fc60a0ee122b37d4630",
      "function": "batchBridgeWithEthFeeFromWallet((uint32,bytes32,uint256,uint256,bytes,bytes,bytes)[],address[],address[])",
      "arguments": [
        "[(30211, 0x0000000000000000000000004a767e2ef83577225522ef8ed71056c6e3acb216, 1000000000000000000, 0, 0x, 0x, 0x), (30214, 0x000000000000000000000000741f0d8bde14140f62107fc60a0ee122b37d4630, 1000000000000000000, 0, 0x, 0x, 0x)]",
        "[0x57558Cb8d6005DE0BAe8a2789d5EfaaE52dba5a8, 0x57558Cb8d6005DE0BAe8a2789d5EfaaE52dba5a8]",
        "[0x741F0d8Bde14140f62107FC60A0EE122B37D4630, 0x741F0d8Bde14140f62107FC60A0EE122B37D4630]"
      ],
      "transaction": {
        "from": "0x45dce8e4f2dc005a5f28206a46cb034697eeda8e",
        "to": "0x741f0d8bde14140f62107fc60a0ee122b37d4630",
        "gas": "0xedb33",
        "value": "0x8acb5d2d2280",
        "input": "0xb70d42410000000000000000000000000000000000000000000000000000000000000060000000000000000000000000000000000000000000000000000000000000034000000000000000000000000000000000000000000000000000000000000003a000000000000000000000000000000000000000000000000000000000000000020000000000000000000000000000000000000000000000000000000000000040000000000000000000000000000000000000000000000000000000000000018000000000000000000000000000000000000000000000000000000000000076030000000000000000000000004a767e2ef83577225522ef8ed71056c6e3acb2160000000000000000000000000000000000000000000000000de0b6b3a7640000000000000000000000000000000000000000000000000000000000000000000000000000000000000000000000000000000000000000000000000000000000e0000000000000000000000000000000000000000000000000000000000000010000000000000000000000000000000000000000000000000000000000000001200000000000000000000000000000000000000000000000000000000000000000000000000000000000000000000000000000000000000000000000000000000000000000000000000000000000000000000000000000000000000000000000000000000000000000000000000000000000000000000000000000000000007606000000000000000000000000741f0d8bde14140f62107fc60a0ee122b37d46300000000000000000000000000000000000000000000000000de0b6b3a7640000000000000000000000000000000000000000000000000000000000000000000000000000000000000000000000000000000000000000000000000000000000e000000000000000000000000000000000000000000000000000000000000001000000000000000000000000000000000000000000000000000000000000000120000000000000000000000000000000000000000000000000000000000000000000000000000000000000000000000000000000000000000000000000000000000000000000000000000000000000000000000000000000000000000000000000000000000000000000000000000000000000000000000000000000000000000200000000000000000000000057558cb8d6005de0bae8a2789d5efaae52dba5a800000000000000000000000057558cb8d6005de0bae8a2789d5efaae52dba5a80000000000000000000000000000000000000000000000000000000000000002000000000000000000000000741f0d8bde14140f62107fc60a0ee122b37d4630000000000000000000000000741f0d8bde14140f62107fc60a0ee122b37d4630",
        "nonce": "0xa5",
        "chainId": "0x13e31"
      },
      "additionalContracts": [],
      "isFixedGasLimit": false
    }
  ],
  "receipts": [
    {
      "status": "0x1",
      "cumulativeGasUsed": "0x45504e",
      "logs": [
        {
          "address": "0x57558cb8d6005de0bae8a2789d5efaae52dba5a8",
          "topics": [
            "0xddf252ad1be2c89b69c2b068fc378daa952ba7f163c4a11628f55a4df523b3ef",
            "0x000000000000000000000000741f0d8bde14140f62107fc60a0ee122b37d4630",
            "0x0000000000000000000000000000000000000000000000000000000000000000"
          ],
          "data": "0x0000000000000000000000000000000000000000000000000de0b6b3a7640000",
          "blockHash": "0x14f9fe43a0bcba4ecf027c699eb92eb0c20c3629e04f3445b1f519ff0b892a5d",
          "blockNumber": "0x16be5af",
          "transactionHash": "0x7f2819afa100acceae631b67f75d45ef1935b4b0f5e81e0c4eb9fbbb2431d49d",
          "transactionIndex": "0x8",
          "logIndex": "0x4",
          "removed": false
        },
        {
          "address": "0xc1b621b18187f74c8f6d52a6f709dd2780c09821",
          "topics": [
            "0x61ed099e74a97a1d7f8bb0952a88ca8b7b8ebd00c126ea04671f92a81213318a"
          ],
          "data": "0x0000000000000000000000004208d6e27538189bb48e603d6123a94b8abe0a0b00000000000000000000000000000000000000000000000000002b5e220370cb",
          "blockHash": "0x14f9fe43a0bcba4ecf027c699eb92eb0c20c3629e04f3445b1f519ff0b892a5d",
          "blockNumber": "0x16be5af",
          "transactionHash": "0x7f2819afa100acceae631b67f75d45ef1935b4b0f5e81e0c4eb9fbbb2431d49d",
          "transactionIndex": "0x8",
          "logIndex": "0x5",
          "removed": false
        },
        {
          "address": "0xc1b621b18187f74c8f6d52a6f709dd2780c09821",
          "topics": [
            "0x07ea52d82345d6e838192107d8fd7123d9c2ec8e916cd0aad13fd2b60db24644"
          ],
          "data": "0x000000000000000000000000000000000000000000000000000000000000006000000000000000000000000000000000000000000000000000000000000000e00000000000000000000000000000000000000000000000000000000000000100000000000000000000000000000000000000000000000000000000000000000300000000000000000000000070bf42c69173d6e33b834f59630dac592c70b369000000000000000000000000c097ab8cd7b053326dfe9fb3e3a31a0cce3b526f000000000000000000000000fa06f93ad99825114c8f8738943734b07fdd162f00000000000000000000000000000000000000000000000000000000000000000000000000000000000000000000000000000000000000000000000000000003000000000000000000000000000000000000000000000000000006836ae6e800000000000000000000000000000000000000000000000000000006836ae6e800000000000000000000000000000000000000000000000000000006c9833ce800",
          "blockHash": "0x14f9fe43a0bcba4ecf027c699eb92eb0c20c3629e04f3445b1f519ff0b892a5d",
          "blockNumber": "0x16be5af",
          "transactionHash": "0x7f2819afa100acceae631b67f75d45ef1935b4b0f5e81e0c4eb9fbbb2431d49d",
          "transactionIndex": "0x8",
          "logIndex": "0x6",
          "removed": false
        },
        {
          "address": "0x1a44076050125825900e736c501f859c50fe728c",
          "topics": [
            "0x1ab700d4ced0c005b164c0f789fd09fcbb0156d4c2041b8a3bfbcd961cd1567f"
          ],
          "data": "0x00000000000000000000000000000000000000000000000000000000000000600000000000000000000000000000000000000000000000000000000000000120000000000000000000000000c1b621b18187f74c8f6d52a6f709dd2780c0982100000000000000000000000000000000000000000000000000000000000000990100000000000000010000762300000000000000000000000057558cb8d6005de0bae8a2789d5efaae52dba5a800007603000000000000000000000000a057d8d4fc86a62801ce363c169b0a8d192f6cee816c73ac14dddbf0fec9caf2ff1fc6218ea36f9997a4d41a4e4b919526a2eb130000000000000000000000004a767e2ef83577225522ef8ed71056c6e3acb21600000000000f424000000000000000000000000000000000000000000000000000000000000000000000000000001600030100110100000000000000000000000000030d4000000000000000000000",
          "blockHash": "0x14f9fe43a0bcba4ecf027c699eb92eb0c20c3629e04f3445b1f519ff0b892a5d",
          "blockNumber": "0x16be5af",
          "transactionHash": "0x7f2819afa100acceae631b67f75d45ef1935b4b0f5e81e0c4eb9fbbb2431d49d",
          "transactionIndex": "0x8",
          "logIndex": "0x7",
          "removed": false
        },
        {
          "address": "0x57558cb8d6005de0bae8a2789d5efaae52dba5a8",
          "topics": [
            "0x85496b760a4b7f8d66384b9df21b381f5d1b1e79f229a47aaf4c232edc2fe59a",
            "0x816c73ac14dddbf0fec9caf2ff1fc6218ea36f9997a4d41a4e4b919526a2eb13",
            "0x000000000000000000000000741f0d8bde14140f62107fc60a0ee122b37d4630"
          ],
          "data": "0x00000000000000000000000000000000000000000000000000000000000076030000000000000000000000000000000000000000000000000de0b6b3a76400000000000000000000000000000000000000000000000000000de0b6b3a7640000",
          "blockHash": "0x14f9fe43a0bcba4ecf027c699eb92eb0c20c3629e04f3445b1f519ff0b892a5d",
          "blockNumber": "0x16be5af",
          "transactionHash": "0x7f2819afa100acceae631b67f75d45ef1935b4b0f5e81e0c4eb9fbbb2431d49d",
          "transactionIndex": "0x8",
          "logIndex": "0x8",
          "removed": false
        },
        {
          "address": "0x57558cb8d6005de0bae8a2789d5efaae52dba5a8",
          "topics": [
            "0xddf252ad1be2c89b69c2b068fc378daa952ba7f163c4a11628f55a4df523b3ef",
            "0x000000000000000000000000741f0d8bde14140f62107fc60a0ee122b37d4630",
            "0x0000000000000000000000000000000000000000000000000000000000000000"
          ],
          "data": "0x0000000000000000000000000000000000000000000000000de0b6b3a7640000",
          "blockHash": "0x14f9fe43a0bcba4ecf027c699eb92eb0c20c3629e04f3445b1f519ff0b892a5d",
          "blockNumber": "0x16be5af",
          "transactionHash": "0x7f2819afa100acceae631b67f75d45ef1935b4b0f5e81e0c4eb9fbbb2431d49d",
          "transactionIndex": "0x8",
          "logIndex": "0x9",
          "removed": false
        },
        {
          "address": "0xc1b621b18187f74c8f6d52a6f709dd2780c09821",
          "topics": [
            "0x61ed099e74a97a1d7f8bb0952a88ca8b7b8ebd00c126ea04671f92a81213318a"
          ],
          "data": "0x0000000000000000000000004208d6e27538189bb48e603d6123a94b8abe0a0b00000000000000000000000000000000000000000000000000004b942e14dcc3",
          "blockHash": "0x14f9fe43a0bcba4ecf027c699eb92eb0c20c3629e04f3445b1f519ff0b892a5d",
          "blockNumber": "0x16be5af",
          "transactionHash": "0x7f2819afa100acceae631b67f75d45ef1935b4b0f5e81e0c4eb9fbbb2431d49d",
          "transactionIndex": "0x8",
          "logIndex": "0xa",
          "removed": false
        },
        {
          "address": "0xc1b621b18187f74c8f6d52a6f709dd2780c09821",
          "topics": [
            "0x07ea52d82345d6e838192107d8fd7123d9c2ec8e916cd0aad13fd2b60db24644"
          ],
          "data": "0x000000000000000000000000000000000000000000000000000000000000006000000000000000000000000000000000000000000000000000000000000000e00000000000000000000000000000000000000000000000000000000000000100000000000000000000000000000000000000000000000000000000000000000300000000000000000000000070bf42c69173d6e33b834f59630dac592c70b369000000000000000000000000c097ab8cd7b053326dfe9fb3e3a31a0cce3b526f000000000000000000000000fa06f93ad99825114c8f8738943734b07fdd162f0000000000000000000000000000000000000000000000000000000000000000000000000000000000000000000000000000000000000000000000000000000300000000000000000000000000000000000000000000000000000002dc6aacd900000000000000000000000000000000000000000000000000000002dc6aacd900000000000000000000000000000000000000000000000000000002fb34c340",
          "blockHash": "0x14f9fe43a0bcba4ecf027c699eb92eb0c20c3629e04f3445b1f519ff0b892a5d",
          "blockNumber": "0x16be5af",
          "transactionHash": "0x7f2819afa100acceae631b67f75d45ef1935b4b0f5e81e0c4eb9fbbb2431d49d",
          "transactionIndex": "0x8",
          "logIndex": "0xb",
          "removed": false
        },
        {
          "address": "0x1a44076050125825900e736c501f859c50fe728c",
          "topics": [
            "0x1ab700d4ced0c005b164c0f789fd09fcbb0156d4c2041b8a3bfbcd961cd1567f"
          ],
          "data": "0x00000000000000000000000000000000000000000000000000000000000000600000000000000000000000000000000000000000000000000000000000000120000000000000000000000000c1b621b18187f74c8f6d52a6f709dd2780c0982100000000000000000000000000000000000000000000000000000000000000990100000000000000010000762300000000000000000000000057558cb8d6005de0bae8a2789d5efaae52dba5a80000760600000000000000000000000057558cb8d6005de0bae8a2789d5efaae52dba5a813d434ca387b30b8f8b509f2fde0ceab2f35da8651e904f9a12354a4706e77a7000000000000000000000000741f0d8bde14140f62107fc60a0ee122b37d463000000000000f424000000000000000000000000000000000000000000000000000000000000000000000000000001600030100110100000000000000000000000000030d4000000000000000000000",
          "blockHash": "0x14f9fe43a0bcba4ecf027c699eb92eb0c20c3629e04f3445b1f519ff0b892a5d",
          "blockNumber": "0x16be5af",
          "transactionHash": "0x7f2819afa100acceae631b67f75d45ef1935b4b0f5e81e0c4eb9fbbb2431d49d",
          "transactionIndex": "0x8",
          "logIndex": "0xc",
          "removed": false
        },
        {
          "address": "0x57558cb8d6005de0bae8a2789d5efaae52dba5a8",
          "topics": [
            "0x85496b760a4b7f8d66384b9df21b381f5d1b1e79f229a47aaf4c232edc2fe59a",
            "0x13d434ca387b30b8f8b509f2fde0ceab2f35da8651e904f9a12354a4706e77a7",
            "0x000000000000000000000000741f0d8bde14140f62107fc60a0ee122b37d4630"
          ],
          "data": "0x00000000000000000000000000000000000000000000000000000000000076060000000000000000000000000000000000000000000000000de0b6b3a76400000000000000000000000000000000000000000000000000000de0b6b3a7640000",
          "blockHash": "0x14f9fe43a0bcba4ecf027c699eb92eb0c20c3629e04f3445b1f519ff0b892a5d",
          "blockNumber": "0x16be5af",
          "transactionHash": "0x7f2819afa100acceae631b67f75d45ef1935b4b0f5e81e0c4eb9fbbb2431d49d",
          "transactionIndex": "0x8",
          "logIndex": "0xd",
          "removed": false
        }
      ],
      "logsBloom": "0x0000000000000002000000000004014000000000000000000000000000100000000000000000000000000000000000040000018000000000000000000000000000000200000000000000000800000000000000000000000000000000000040000000000002000000800000000000080000000400001000000000001000000000000000000000000000000008000000000000000000000000000000000000000000000000a000001000100000000000000000000000400000000440000000000000000002000000000000000080000000000000000000000000004000000020000000040000000001000000000000002000000000018000000040000000000000",
      "type": "0x2",
      "transactionHash": "0x7f2819afa100acceae631b67f75d45ef1935b4b0f5e81e0c4eb9fbbb2431d49d",
      "transactionIndex": "0x8",
      "blockHash": "0x14f9fe43a0bcba4ecf027c699eb92eb0c20c3629e04f3445b1f519ff0b892a5d",
      "blockNumber": "0x16be5af",
      "gasUsed": "0xb065b",
      "effectiveGasPrice": "0x34ff1",
      "from": "0x45dce8e4f2dc005a5f28206a46cb034697eeda8e",
      "to": "0x741f0d8bde14140f62107fc60a0ee122b37d4630",
      "contractAddress": null,
      "l1Fee": "0x7639a534",
      "l1GasPrice": "0xda7334d",
      "l1GasUsed": "0x1ec0"
    }
  ],
  "libraries": [],
  "pending": [],
  "returns": {},
  "timestamp": 1756506550665,
  "chain": 81457,
  "commit": "aef07ec"
}