{
  "transactions": [
    {
      "hash": "0x5501bf1a58678be6a5b93c0c48e4f2450a2cb1a740782a0820fdb1b0747498e3",
      "transactionType": "CALL",
      "contractName": null,
      "contractAddress": "0x741f0d8bde14140f62107fc60a0ee122b37d4630",
      "function": "batchBridgeWithEthFeeFromWallet((uint32,bytes32,uint256,uint256,bytes,bytes,bytes)[],address[],address[])",
      "arguments": [
        "[(30370, 0x000000000000000000000000741f0d8bde14140f62107fc60a0ee122b37d4630, 1000000000000000000, 0, 0x, 0x, 0x)]",
        "[0x57558Cb8d6005DE0BAe8a2789d5EfaaE52dba5a8]",
        "[0x741F0d8Bde14140f62107FC60A0EE122B37D4630]"
      ],
      "transaction": {
        "from": "0x45dce8e4f2dc005a5f28206a46cb034697eeda8e",
        "to": "0x741f0d8bde14140f62107fc60a0ee122b37d4630",
        "gas": "0x94763",
        "value": "0x16fc1f60525e",
        "input": "0xb70d4241000000000000000000000000000000000000000000000000000000000000006000000000000000000000000000000000000000000000000000000000000001e000000000000000000000000000000000000000000000000000000000000002200000000000000000000000000000000000000000000000000000000000000001000000000000000000000000000000000000000000000000000000000000002000000000000000000000000000000000000000000000000000000000000076a2000000000000000000000000741f0d8bde14140f62107fc60a0ee122b37d46300000000000000000000000000000000000000000000000000de0b6b3a7640000000000000000000000000000000000000000000000000000000000000000000000000000000000000000000000000000000000000000000000000000000000e000000000000000000000000000000000000000000000000000000000000001000000000000000000000000000000000000000000000000000000000000000120000000000000000000000000000000000000000000000000000000000000000000000000000000000000000000000000000000000000000000000000000000000000000000000000000000000000000000000000000000000000000000000000000000000000000000000000000000000000000000000000000000000000000100000000000000000000000057558cb8d6005de0bae8a2789d5efaae52dba5a80000000000000000000000000000000000000000000000000000000000000001000000000000000000000000741f0d8bde14140f62107fc60a0ee122b37d4630",
        "nonce": "0x92",
        "chainId": "0x13e31"
      },
      "additionalContracts": [],
      "isFixedGasLimit": false
    }
  ],
  "receipts": [
    {
      "status": "0x1",
      "cumulativeGasUsed": "0x474878",
      "logs": [
        {
          "address": "0x57558cb8d6005de0bae8a2789d5efaae52dba5a8",
          "topics": [
            "0xddf252ad1be2c89b69c2b068fc378daa952ba7f163c4a11628f55a4df523b3ef",
            "0x000000000000000000000000741f0d8bde14140f62107fc60a0ee122b37d4630",
            "0x0000000000000000000000000000000000000000000000000000000000000000"
          ],
          "data": "0x0000000000000000000000000000000000000000000000000de0b6b3a7640000",
          "blockHash": "0x9d108998b89a1e8808813b4e401a2b5611eda9349eb6fde8aa57c6fc34ae686f",
          "blockNumber": "0x14faf0b",
          "transactionHash": "0x5501bf1a58678be6a5b93c0c48e4f2450a2cb1a740782a0820fdb1b0747498e3",
          "transactionIndex": "0x7",
          "logIndex": "0x3",
          "removed": false
        },
        {
          "address": "0xc1b621b18187f74c8f6d52a6f709dd2780c09821",
          "topics": [
            "0x61ed099e74a97a1d7f8bb0952a88ca8b7b8ebd00c126ea04671f92a81213318a"
          ],
          "data": "0x0000000000000000000000004208d6e27538189bb48e603d6123a94b8abe0a0b00000000000000000000000000000000000000000000000000000de301695f00",
          "blockHash": "0x9d108998b89a1e8808813b4e401a2b5611eda9349eb6fde8aa57c6fc34ae686f",
          "blockNumber": "0x14faf0b",
          "transactionHash": "0x5501bf1a58678be6a5b93c0c48e4f2450a2cb1a740782a0820fdb1b0747498e3",
          "transactionIndex": "0x7",
          "logIndex": "0x4",
          "removed": false
        },
        {
          "address": "0xc1b621b18187f74c8f6d52a6f709dd2780c09821",
          "topics": [
            "0x07ea52d82345d6e838192107d8fd7123d9c2ec8e916cd0aad13fd2b60db24644"
          ],
          "data": "0x000000000000000000000000000000000000000000000000000000000000006000000000000000000000000000000000000000000000000000000000000000e00000000000000000000000000000000000000000000000000000000000000100000000000000000000000000000000000000000000000000000000000000000300000000000000000000000070bf42c69173d6e33b834f59630dac592c70b369000000000000000000000000c097ab8cd7b053326dfe9fb3e3a31a0cce3b526f000000000000000000000000fa06f93ad99825114c8f8738943734b07fdd162f00000000000000000000000000000000000000000000000000000000000000000000000000000000000000000000000000000000000000000000000000000003000000000000000000000000000000000000000000000000000002fda4c40913000000000000000000000000000000000000000000000000000002fda4c409130000000000000000000000000000000000000000000000000000031dd46ee138",
          "blockHash": "0x9d108998b89a1e8808813b4e401a2b5611eda9349eb6fde8aa57c6fc34ae686f",
          "blockNumber": "0x14faf0b",
          "transactionHash": "0x5501bf1a58678be6a5b93c0c48e4f2450a2cb1a740782a0820fdb1b0747498e3",
          "transactionIndex": "0x7",
          "logIndex": "0x5",
          "removed": false
        },
        {
          "address": "0x1a44076050125825900e736c501f859c50fe728c",
          "topics": [
            "0x1ab700d4ced0c005b164c0f789fd09fcbb0156d4c2041b8a3bfbcd961cd1567f"
          ],
          "data": "0x00000000000000000000000000000000000000000000000000000000000000600000000000000000000000000000000000000000000000000000000000000120000000000000000000000000c1b621b18187f74c8f6d52a6f709dd2780c0982100000000000000000000000000000000000000000000000000000000000000990100000000000000010000762300000000000000000000000057558cb8d6005de0bae8a2789d5efaae52dba5a8000076a200000000000000000000000057558cb8d6005de0bae8a2789d5efaae52dba5a8a5cf6dd648a353196414098bf0b94311bc0849ea3af9897bdbbf9c161f0ff83b000000000000000000000000741f0d8bde14140f62107fc60a0ee122b37d463000000000000f424000000000000000000000000000000000000000000000000000000000000000000000000000001600030100110100000000000000000000000000030d4000000000000000000000",
          "blockHash": "0x9d108998b89a1e8808813b4e401a2b5611eda9349eb6fde8aa57c6fc34ae686f",
          "blockNumber": "0x14faf0b",
          "transactionHash": "0x5501bf1a58678be6a5b93c0c48e4f2450a2cb1a740782a0820fdb1b0747498e3",
          "transactionIndex": "0x7",
          "logIndex": "0x6",
          "removed": false
        },
        {
          "address": "0x57558cb8d6005de0bae8a2789d5efaae52dba5a8",
          "topics": [
            "0x85496b760a4b7f8d66384b9df21b381f5d1b1e79f229a47aaf4c232edc2fe59a",
            "0xa5cf6dd648a353196414098bf0b94311bc0849ea3af9897bdbbf9c161f0ff83b",
            "0x000000000000000000000000741f0d8bde14140f62107fc60a0ee122b37d4630"
          ],
          "data": "0x00000000000000000000000000000000000000000000000000000000000076a20000000000000000000000000000000000000000000000000de0b6b3a76400000000000000000000000000000000000000000000000000000de0b6b3a7640000",
          "blockHash": "0x9d108998b89a1e8808813b4e401a2b5611eda9349eb6fde8aa57c6fc34ae686f",
          "blockNumber": "0x14faf0b",
          "transactionHash": "0x5501bf1a58678be6a5b93c0c48e4f2450a2cb1a740782a0820fdb1b0747498e3",
          "transactionIndex": "0x7",
          "logIndex": "0x7",
          "removed": false
        }
      ],
      "logsBloom": "0x0000000000000000000000000004004000000000000000000000000000100000000000000000000000000000000000040000010000080000010000000000000000000220000000000000000800000000000000000000000000000000000040000000000002000000800000000000080000000000001000000000001000000000000000000000000000000008000000000000000000000000000000000000000000000000a000001000100000000000000000000000400000000440000000000000000002000000000000000080000000000000000000000000004000000020000000040000000000000000000000002000000000018000000040000000000000",
      "type": "0x2",
      "transactionHash": "0x5501bf1a58678be6a5b93c0c48e4f2450a2cb1a740782a0820fdb1b0747498e3",
      "transactionIndex": "0x7",
      "blockHash": "0x9d108998b89a1e8808813b4e401a2b5611eda9349eb6fde8aa57c6fc34ae686f",
      "blockNumber": "0x14faf0b",
      "gasUsed": "0x73613",
      "effectiveGasPrice": "0xec2f3",
      "from": "0x45dce8e4f2dc005a5f28206a46cb034697eeda8e",
      "to": "0x741f0d8bde14140f62107fc60a0ee122b37d4630",
      "contractAddress": null,
      "l1Fee": "0x45e2e9c11",
      "l1GasPrice": "0xbe3801b4",
      "l1GasUsed": "0x14e0"
    }
  ],
  "libraries": [],
  "pending": [],
  "returns": {},
  "timestamp": 1752808558,
  "chain": 81457,
  "commit": "c079579"
}