{
  "transactions": [
    {
      "hash": "0xf55663a77894859d84d9763ba4efe4fe4e7fe3b9267bbb24ed2f776eb80836a1",
      "transactionType": "CALL",
      "contractName": null,
      "contractAddress": "0x741f0d8bde14140f62107fc60a0ee122b37d4630",
      "function": "batchBridgeWithEthFeeFromWallet((uint32,bytes32,uint256,uint256,bytes,bytes,bytes)[],address[],address[])",
      "arguments": [
        "[(30320, 0x000000000000000000000000741f0d8bde14140f62107fc60a0ee122b37d4630, 5000000000000000000, 0, 0x, 0x, 0x)]",
        "[0x57558Cb8d6005DE0BAe8a2789d5EfaaE52dba5a8]",
        "[0x741F0d8Bde14140f62107FC60A0EE122B37D4630]"
      ],
      "transaction": {
        "from": "0x45dce8e4f2dc005a5f28206a46cb034697eeda8e",
        "to": "0x741f0d8bde14140f62107fc60a0ee122b37d4630",
        "gas": "0x94763",
        "value": "0x76a1bb7fb27",
        "input": "0xb70d4241000000000000000000000000000000000000000000000000000000000000006000000000000000000000000000000000000000000000000000000000000001e00000000000000000000000000000000000000000000000000000000000000220000000000000000000000000000000000000000000000000000000000000000100000000000000000000000000000000000000000000000000000000000000200000000000000000000000000000000000000000000000000000000000007670000000000000000000000000741f0d8bde14140f62107fc60a0ee122b37d46300000000000000000000000000000000000000000000000004563918244f40000000000000000000000000000000000000000000000000000000000000000000000000000000000000000000000000000000000000000000000000000000000e000000000000000000000000000000000000000000000000000000000000001000000000000000000000000000000000000000000000000000000000000000120000000000000000000000000000000000000000000000000000000000000000000000000000000000000000000000000000000000000000000000000000000000000000000000000000000000000000000000000000000000000000000000000000000000000000000000000000000000000000000000000000000000000000100000000000000000000000057558cb8d6005de0bae8a2789d5efaae52dba5a80000000000000000000000000000000000000000000000000000000000000001000000000000000000000000741f0d8bde14140f62107fc60a0ee122b37d4630",
        "nonce": "0x71",
        "chainId": "0x13e31"
      },
      "additionalContracts": [],
      "isFixedGasLimit": false
    }
  ],
  "receipts": [
    {
      "status": "0x1",
      "cumulativeGasUsed": "0x42afd4",
      "logs": [
        {
          "address": "0x57558cb8d6005de0bae8a2789d5efaae52dba5a8",
          "topics": [
            "0xddf252ad1be2c89b69c2b068fc378daa952ba7f163c4a11628f55a4df523b3ef",
            "0x000000000000000000000000741f0d8bde14140f62107fc60a0ee122b37d4630",
            "0x0000000000000000000000000000000000000000000000000000000000000000"
          ],
          "data": "0x0000000000000000000000000000000000000000000000004563918244f40000",
          "blockHash": "0x11dbbcdc27ae12b2ea7aa2d11014d8181e338e77c8bc575eae342eedb48fd1ba",
          "blockNumber": "0x13d2ef8",
          "transactionHash": "0xf55663a77894859d84d9763ba4efe4fe4e7fe3b9267bbb24ed2f776eb80836a1",
          "transactionIndex": "0xe",
          "logIndex": "0x1a",
          "removed": false
        },
        {
          "address": "0xc1b621b18187f74c8f6d52a6f709dd2780c09821",
          "topics": [
            "0x61ed099e74a97a1d7f8bb0952a88ca8b7b8ebd00c126ea04671f92a81213318a"
          ],
          "data": "0x0000000000000000000000004208d6e27538189bb48e603d6123a94b8abe0a0b0000000000000000000000000000000000000000000000000000071fbe1b5c37",
          "blockHash": "0x11dbbcdc27ae12b2ea7aa2d11014d8181e338e77c8bc575eae342eedb48fd1ba",
          "blockNumber": "0x13d2ef8",
          "transactionHash": "0xf55663a77894859d84d9763ba4efe4fe4e7fe3b9267bbb24ed2f776eb80836a1",
          "transactionIndex": "0xe",
          "logIndex": "0x1b",
          "removed": false
        },
        {
          "address": "0xc1b621b18187f74c8f6d52a6f709dd2780c09821",
          "topics": [
            "0x07ea52d82345d6e838192107d8fd7123d9c2ec8e916cd0aad13fd2b60db24644"
          ],
          "data": "0x000000000000000000000000000000000000000000000000000000000000006000000000000000000000000000000000000000000000000000000000000000e00000000000000000000000000000000000000000000000000000000000000100000000000000000000000000000000000000000000000000000000000000000300000000000000000000000070bf42c69173d6e33b834f59630dac592c70b369000000000000000000000000c097ab8cd7b053326dfe9fb3e3a31a0cce3b526f000000000000000000000000fa06f93ad99825114c8f8738943734b07fdd162f0000000000000000000000000000000000000000000000000000000000000000000000000000000000000000000000000000000000000000000000000000000300000000000000000000000000000000000000000000000000000018722d393700000000000000000000000000000000000000000000000000000018722d39370000000000000000000000000000000000000000000000000000001979422c82",
          "blockHash": "0x11dbbcdc27ae12b2ea7aa2d11014d8181e338e77c8bc575eae342eedb48fd1ba",
          "blockNumber": "0x13d2ef8",
          "transactionHash": "0xf55663a77894859d84d9763ba4efe4fe4e7fe3b9267bbb24ed2f776eb80836a1",
          "transactionIndex": "0xe",
          "logIndex": "0x1c",
          "removed": false
        },
        {
          "address": "0x1a44076050125825900e736c501f859c50fe728c",
          "topics": [
            "0x1ab700d4ced0c005b164c0f789fd09fcbb0156d4c2041b8a3bfbcd961cd1567f"
          ],
          "data": "0x00000000000000000000000000000000000000000000000000000000000000600000000000000000000000000000000000000000000000000000000000000120000000000000000000000000c1b621b18187f74c8f6d52a6f709dd2780c0982100000000000000000000000000000000000000000000000000000000000000990100000000000000010000762300000000000000000000000057558cb8d6005de0bae8a2789d5efaae52dba5a80000767000000000000000000000000057558cb8d6005de0bae8a2789d5efaae52dba5a8dfc331f0fae73e992054a793b49675e28ab2e57fbe78dbddf6fe3bdad635fdb0000000000000000000000000741f0d8bde14140f62107fc60a0ee122b37d463000000000004c4b4000000000000000000000000000000000000000000000000000000000000000000000000000001600030100110100000000000000000000000000030d4000000000000000000000",
          "blockHash": "0x11dbbcdc27ae12b2ea7aa2d11014d8181e338e77c8bc575eae342eedb48fd1ba",
          "blockNumber": "0x13d2ef8",
          "transactionHash": "0xf55663a77894859d84d9763ba4efe4fe4e7fe3b9267bbb24ed2f776eb80836a1",
          "transactionIndex": "0xe",
          "logIndex": "0x1d",
          "removed": false
        },
        {
          "address": "0x57558cb8d6005de0bae8a2789d5efaae52dba5a8",
          "topics": [
            "0x85496b760a4b7f8d66384b9df21b381f5d1b1e79f229a47aaf4c232edc2fe59a",
            "0xdfc331f0fae73e992054a793b49675e28ab2e57fbe78dbddf6fe3bdad635fdb0",
            "0x000000000000000000000000741f0d8bde14140f62107fc60a0ee122b37d4630"
          ],
          "data": "0x00000000000000000000000000000000000000000000000000000000000076700000000000000000000000000000000000000000000000004563918244f400000000000000000000000000000000000000000000000000004563918244f40000",
          "blockHash": "0x11dbbcdc27ae12b2ea7aa2d11014d8181e338e77c8bc575eae342eedb48fd1ba",
          "blockNumber": "0x13d2ef8",
          "transactionHash": "0xf55663a77894859d84d9763ba4efe4fe4e7fe3b9267bbb24ed2f776eb80836a1",
          "transactionIndex": "0xe",
          "logIndex": "0x1e",
          "removed": false
        }
      ],
      "logsBloom": "0x0000000000000000000000000004004000000200000000000000000000100000000000000000000000000000000000040000010000000000000000000000000000000200000000000000000800000000000000000000000000000000000040000000000002004000800000000000080000000000001000000000001000000000000000000000000000000008000000000000000000000000000000000000200000000000a000001000100000000000000000000000400000000440000000000000000002000000000000000080000000000000000000000000004000000020000000040000000000000000000000002000000000018000000040000000000000",
      "type": "0x2",
      "transactionHash": "0xf55663a77894859d84d9763ba4efe4fe4e7fe3b9267bbb24ed2f776eb80836a1",
      "transactionIndex": "0xe",
      "blockHash": "0x11dbbcdc27ae12b2ea7aa2d11014d8181e338e77c8bc575eae342eedb48fd1ba",
      "blockNumber": "0x13d2ef8",
      "gasUsed": "0x73613",
      "effectiveGasPrice": "0x6c94",
      "from": "0x45dce8e4f2dc005a5f28206a46cb034697eeda8e",
      "to": "0x741f0d8bde14140f62107fc60a0ee122b37d4630",
      "contractAddress": null,
      "l1Fee": "0x848f7c22",
      "l1GasPrice": "0x16bcd652",
      "l1GasUsed": "0x14b4"
    }
  ],
  "libraries": [],
  "pending": [],
  "returns": {},
  "timestamp": 1750383688,
  "chain": 81457,
  "commit": "2171fc2"
}