{
  "transactions": [
    {
      "hash": "0xa6aa5d57acb545257a3f3f5407a948887c2885f15ff30fa6a5e89d3d0717f6c4",
      "transactionType": "CALL",
      "contractName": null,
      "contractAddress": "0x741f0d8bde14140f62107fc60a0ee122b37d4630",
      "function": "batchBridgeWithEthFeeFromWallet((uint32,bytes32,uint256,uint256,bytes,bytes,bytes)[],address[],address[])",
      "arguments": [
        "[(30375, 0x000000000000000000000000741f0d8bde14140f62107fc60a0ee122b37d4630, 1000000000000000000, 0, 0x, 0x, 0x)]",
        "[0x57558Cb8d6005DE0BAe8a2789d5EfaaE52dba5a8]",
        "[0x741F0d8Bde14140f62107FC60A0EE122B37D4630]"
      ],
      "transaction": {
        "from": "0x45dce8e4f2dc005a5f28206a46cb034697eeda8e",
        "to": "0x741f0d8bde14140f62107fc60a0ee122b37d4630",
        "gas": "0x94763",
        "value": "0x5912e1455e9",
        "input": "0xb70d4241000000000000000000000000000000000000000000000000000000000000006000000000000000000000000000000000000000000000000000000000000001e000000000000000000000000000000000000000000000000000000000000002200000000000000000000000000000000000000000000000000000000000000001000000000000000000000000000000000000000000000000000000000000002000000000000000000000000000000000000000000000000000000000000076a7000000000000000000000000741f0d8bde14140f62107fc60a0ee122b37d46300000000000000000000000000000000000000000000000000de0b6b3a7640000000000000000000000000000000000000000000000000000000000000000000000000000000000000000000000000000000000000000000000000000000000e000000000000000000000000000000000000000000000000000000000000001000000000000000000000000000000000000000000000000000000000000000120000000000000000000000000000000000000000000000000000000000000000000000000000000000000000000000000000000000000000000000000000000000000000000000000000000000000000000000000000000000000000000000000000000000000000000000000000000000000000000000000000000000000000100000000000000000000000057558cb8d6005de0bae8a2789d5efaae52dba5a80000000000000000000000000000000000000000000000000000000000000001000000000000000000000000741f0d8bde14140f62107fc60a0ee122b37d4630",
        "nonce": "0x99",
        "chainId": "0x13e31"
      },
      "additionalContracts": [],
      "isFixedGasLimit": false
    }
  ],
  "receipts": [
    {
      "status": "0x1",
      "cumulativeGasUsed": "0x47852f",
      "logs": [
        {
          "address": "0x57558cb8d6005de0bae8a2789d5efaae52dba5a8",
          "topics": [
            "0xddf252ad1be2c89b69c2b068fc378daa952ba7f163c4a11628f55a4df523b3ef",
            "0x000000000000000000000000741f0d8bde14140f62107fc60a0ee122b37d4630",
            "0x0000000000000000000000000000000000000000000000000000000000000000"
          ],
          "data": "0x0000000000000000000000000000000000000000000000000de0b6b3a7640000",
          "blockHash": "0x4452750cc9f991a8b00e9369ff03d74f9788a0587a241738a3a76434d09637b1",
          "blockNumber": "0x158402e",
          "transactionHash": "0xa6aa5d57acb545257a3f3f5407a948887c2885f15ff30fa6a5e89d3d0717f6c4",
          "transactionIndex": "0xa",
          "logIndex": "0x9",
          "removed": false
        },
        {
          "address": "0xc1b621b18187f74c8f6d52a6f709dd2780c09821",
          "topics": [
            "0x61ed099e74a97a1d7f8bb0952a88ca8b7b8ebd00c126ea04671f92a81213318a"
          ],
          "data": "0x0000000000000000000000004208d6e27538189bb48e603d6123a94b8abe0a0b000000000000000000000000000000000000000000000000000005432e9f6e5e",
          "blockHash": "0x4452750cc9f991a8b00e9369ff03d74f9788a0587a241738a3a76434d09637b1",
          "blockNumber": "0x158402e",
          "transactionHash": "0xa6aa5d57acb545257a3f3f5407a948887c2885f15ff30fa6a5e89d3d0717f6c4",
          "transactionIndex": "0xa",
          "logIndex": "0xa",
          "removed": false
        },
        {
          "address": "0xc1b621b18187f74c8f6d52a6f709dd2780c09821",
          "topics": [
            "0x07ea52d82345d6e838192107d8fd7123d9c2ec8e916cd0aad13fd2b60db24644"
          ],
          "data": "0x000000000000000000000000000000000000000000000000000000000000006000000000000000000000000000000000000000000000000000000000000000e000000000000000000000000000000000000000000000000000000000000001000000000000000000000000000000000000000000000000000000000000000003000000000000000000000000c097ab8cd7b053326dfe9fb3e3a31a0cce3b526f000000000000000000000000dd7b5e1db4aafd5c8ec3b764efb8ed265aa5445b000000000000000000000000fa06f93ad99825114c8f8738943734b07fdd162f0000000000000000000000000000000000000000000000000000000000000000000000000000000000000000000000000000000000000000000000000000000300000000000000000000000000000000000000000000000000000019bddc4a22000000000000000000000000000000000000000000000000000000196eb5e0130000000000000000000000000000000000000000000000000000001ad2e2bd56",
          "blockHash": "0x4452750cc9f991a8b00e9369ff03d74f9788a0587a241738a3a76434d09637b1",
          "blockNumber": "0x158402e",
          "transactionHash": "0xa6aa5d57acb545257a3f3f5407a948887c2885f15ff30fa6a5e89d3d0717f6c4",
          "transactionIndex": "0xa",
          "logIndex": "0xb",
          "removed": false
        },
        {
          "address": "0x1a44076050125825900e736c501f859c50fe728c",
          "topics": [
            "0x1ab700d4ced0c005b164c0f789fd09fcbb0156d4c2041b8a3bfbcd961cd1567f"
          ],
          "data": "0x00000000000000000000000000000000000000000000000000000000000000600000000000000000000000000000000000000000000000000000000000000120000000000000000000000000c1b621b18187f74c8f6d52a6f709dd2780c0982100000000000000000000000000000000000000000000000000000000000000990100000000000000010000762300000000000000000000000057558cb8d6005de0bae8a2789d5efaae52dba5a8000076a700000000000000000000000057558cb8d6005de0bae8a2789d5efaae52dba5a831a6ed73d703df11bec1611468474c1de7554122eb2aab14f59124abef5f35c8000000000000000000000000741f0d8bde14140f62107fc60a0ee122b37d463000000000000f424000000000000000000000000000000000000000000000000000000000000000000000000000001600030100110100000000000000000000000000030d4000000000000000000000",
          "blockHash": "0x4452750cc9f991a8b00e9369ff03d74f9788a0587a241738a3a76434d09637b1",
          "blockNumber": "0x158402e",
          "transactionHash": "0xa6aa5d57acb545257a3f3f5407a948887c2885f15ff30fa6a5e89d3d0717f6c4",
          "transactionIndex": "0xa",
          "logIndex": "0xc",
          "removed": false
        },
        {
          "address": "0x57558cb8d6005de0bae8a2789d5efaae52dba5a8",
          "topics": [
            "0x85496b760a4b7f8d66384b9df21b381f5d1b1e79f229a47aaf4c232edc2fe59a",
            "0x31a6ed73d703df11bec1611468474c1de7554122eb2aab14f59124abef5f35c8",
            "0x000000000000000000000000741f0d8bde14140f62107fc60a0ee122b37d4630"
          ],
          "data": "0x00000000000000000000000000000000000000000000000000000000000076a70000000000000000000000000000000000000000000000000de0b6b3a76400000000000000000000000000000000000000000000000000000de0b6b3a7640000",
          "blockHash": "0x4452750cc9f991a8b00e9369ff03d74f9788a0587a241738a3a76434d09637b1",
          "blockNumber": "0x158402e",
          "transactionHash": "0xa6aa5d57acb545257a3f3f5407a948887c2885f15ff30fa6a5e89d3d0717f6c4",
          "transactionIndex": "0xa",
          "logIndex": "0xd",
          "removed": false
        }
      ],
      "logsBloom": "0x00000000000040000000000000040040000000000000000000000000001000000000000000000000000000000000000400000100000000000000000000000000000002000000000000000008000000000000000000100000000000000000400000000000020000008000000000000c0000000000001000000000001000000000000000000000000000000008000000000000000000000000000000000000000000000000a000001000100000000000000000000000400000000440000000000000000002000000000000000080000000000000000000000000004000000020000000040000000000000000000000002000000000018000000040000000000000",
      "type": "0x2",
      "transactionHash": "0xa6aa5d57acb545257a3f3f5407a948887c2885f15ff30fa6a5e89d3d0717f6c4",
      "transactionIndex": "0xa",
      "blockHash": "0x4452750cc9f991a8b00e9369ff03d74f9788a0587a241738a3a76434d09637b1",
      "blockNumber": "0x158402e",
      "gasUsed": "0x73613",
      "effectiveGasPrice": "0x2a649",
      "from": "0x45dce8e4f2dc005a5f28206a46cb034697eeda8e",
      "to": "0x741f0d8bde14140f62107fc60a0ee122b37d4630",
      "contractAddress": null,
      "l1Fee": "0x320001559",
      "l1GasPrice": "0x88176cf2",
      "l1GasUsed": "0x14e0"
    }
  ],
  "libraries": [],
  "pending": [],
  "returns": {},
  "timestamp": 1753931445,
  "chain": 81457,
  "commit": "bc2ac99"
}