{
  "transactions": [
    {
      "hash": "0xf31f06fe4ac60d460473cf8b485b6cb7b0f162a51eaebd76e5fbe2c30fd06fbc",
      "transactionType": "CALL",
      "contractName": null,
      "contractAddress": "0x741f0d8bde14140f62107fc60a0ee122b37d4630",
      "function": "batchBridgeWithEthFeeFromWallet((uint32,bytes32,uint256,uint256,bytes,bytes,bytes)[],address[],address[])",
      "arguments": [
        "[(30211, 0x0000000000000000000000004a767e2ef83577225522ef8ed71056c6e3acb216, 1000000000000000000, 0, 0x, 0x, 0x), (30214, 0x000000000000000000000000741f0d8bde14140f62107fc60a0ee122b37d4630, 1000000000000000000, 0, 0x, 0x, 0x)]",
        "[0x57558Cb8d6005DE0BAe8a2789d5EfaaE52dba5a8, 0x57558Cb8d6005DE0BAe8a2789d5EfaaE52dba5a8]",
        "[0x741F0d8Bde14140f62107FC60A0EE122B37D4630, 0x741F0d8Bde14140f62107FC60A0EE122B37D4630]"
      ],
      "transaction": {
        "from": "0x45dce8e4f2dc005a5f28206a46cb034697eeda8e",
        "to": "0x741f0d8bde14140f62107fc60a0ee122b37d4630",
        "gas": "0xe18cf",
        "value": "0x5f1055ff6f309f",
        "input": "0xb70d42410000000000000000000000000000000000000000000000000000000000000060000000000000000000000000000000000000000000000000000000000000034000000000000000000000000000000000000000000000000000000000000003a000000000000000000000000000000000000000000000000000000000000000020000000000000000000000000000000000000000000000000000000000000040000000000000000000000000000000000000000000000000000000000000018000000000000000000000000000000000000000000000000000000000000076030000000000000000000000004a767e2ef83577225522ef8ed71056c6e3acb2160000000000000000000000000000000000000000000000000de0b6b3a7640000000000000000000000000000000000000000000000000000000000000000000000000000000000000000000000000000000000000000000000000000000000e0000000000000000000000000000000000000000000000000000000000000010000000000000000000000000000000000000000000000000000000000000001200000000000000000000000000000000000000000000000000000000000000000000000000000000000000000000000000000000000000000000000000000000000000000000000000000000000000000000000000000000000000000000000000000000000000000000000000000000000000000000000000000000000007606000000000000000000000000741f0d8bde14140f62107fc60a0ee122b37d46300000000000000000000000000000000000000000000000000de0b6b3a7640000000000000000000000000000000000000000000000000000000000000000000000000000000000000000000000000000000000000000000000000000000000e000000000000000000000000000000000000000000000000000000000000001000000000000000000000000000000000000000000000000000000000000000120000000000000000000000000000000000000000000000000000000000000000000000000000000000000000000000000000000000000000000000000000000000000000000000000000000000000000000000000000000000000000000000000000000000000000000000000000000000000000000000000000000000000000200000000000000000000000057558cb8d6005de0bae8a2789d5efaae52dba5a800000000000000000000000057558cb8d6005de0bae8a2789d5efaae52dba5a80000000000000000000000000000000000000000000000000000000000000002000000000000000000000000741f0d8bde14140f62107fc60a0ee122b37d4630000000000000000000000000741f0d8bde14140f62107fc60a0ee122b37d4630",
        "nonce": "0xa3",
        "chainId": "0xa86a"
      },
      "additionalContracts": [],
      "isFixedGasLimit": false
    }
  ],
  "receipts": [
    {
      "status": "0x1",
      "cumulativeGasUsed": "0x2f02fd",
      "logs": [
        {
          "address": "0x57558cb8d6005de0bae8a2789d5efaae52dba5a8",
          "topics": [
            "0xddf252ad1be2c89b69c2b068fc378daa952ba7f163c4a11628f55a4df523b3ef",
            "0x000000000000000000000000741f0d8bde14140f62107fc60a0ee122b37d4630",
            "0x0000000000000000000000000000000000000000000000000000000000000000"
          ],
          "data": "0x0000000000000000000000000000000000000000000000000de0b6b3a7640000",
          "blockHash": "0xfee0e8eac00bd6ea64ff3d1830a2859aec5f511824aa811682ed771557a045ff",
          "blockNumber": "0x40f172b",
          "transactionHash": "0xf31f06fe4ac60d460473cf8b485b6cb7b0f162a51eaebd76e5fbe2c30fd06fbc",
          "transactionIndex": "0x1a",
          "logIndex": "0x3e",
          "removed": false
        },
        {
          "address": "0x197d1333dea5fe0d6600e9b396c7f1b1cfcc558a",
          "topics": [
            "0x61ed099e74a97a1d7f8bb0952a88ca8b7b8ebd00c126ea04671f92a81213318a"
          ],
          "data": "0x00000000000000000000000090e595783e43eb89ff07f63d27b8430e6b44bd9c000000000000000000000000000000000000000000000000001b13b686c2ed06",
          "blockHash": "0xfee0e8eac00bd6ea64ff3d1830a2859aec5f511824aa811682ed771557a045ff",
          "blockNumber": "0x40f172b",
          "transactionHash": "0xf31f06fe4ac60d460473cf8b485b6cb7b0f162a51eaebd76e5fbe2c30fd06fbc",
          "transactionIndex": "0x1a",
          "logIndex": "0x3f",
          "removed": false
        },
        {
          "address": "0x197d1333dea5fe0d6600e9b396c7f1b1cfcc558a",
          "topics": [
            "0x07ea52d82345d6e838192107d8fd7123d9c2ec8e916cd0aad13fd2b60db24644"
          ],
          "data": "0x000000000000000000000000000000000000000000000000000000000000006000000000000000000000000000000000000000000000000000000000000000e00000000000000000000000000000000000000000000000000000000000000100000000000000000000000000000000000000000000000000000000000000000300000000000000000000000007c05eab7716acb6f83ebf6268f8eecda8892ba1000000000000000000000000962f502a63f5fbeb44dc9ab932122648e8352959000000000000000000000000fe4c37cd401f58ee0bf4d214447bf306c2bbd41b00000000000000000000000000000000000000000000000000000000000000000000000000000000000000000000000000000000000000000000000000000003000000000000000000000000000000000000000000000000000485e4bb0bfcdd000000000000000000000000000000000000000000000000000485e4bb0bfcdd0000000000000000000000000000000000000000000000000004b691b1afb213",
          "blockHash": "0xfee0e8eac00bd6ea64ff3d1830a2859aec5f511824aa811682ed771557a045ff",
          "blockNumber": "0x40f172b",
          "transactionHash": "0xf31f06fe4ac60d460473cf8b485b6cb7b0f162a51eaebd76e5fbe2c30fd06fbc",
          "transactionIndex": "0x1a",
          "logIndex": "0x40",
          "removed": false
        },
        {
          "address": "0x1a44076050125825900e736c501f859c50fe728c",
          "topics": [
            "0x1ab700d4ced0c005b164c0f789fd09fcbb0156d4c2041b8a3bfbcd961cd1567f"
          ],
          "data": "0x00000000000000000000000000000000000000000000000000000000000000600000000000000000000000000000000000000000000000000000000000000120000000000000000000000000197d1333dea5fe0d6600e9b396c7f1b1cfcc558a00000000000000000000000000000000000000000000000000000000000000990100000000000000010000759a00000000000000000000000057558cb8d6005de0bae8a2789d5efaae52dba5a800007603000000000000000000000000a057d8d4fc86a62801ce363c169b0a8d192f6ceeca17920554d815cc67cb80e1d1bad233e74391db17d95b3981533c6ea91ba2970000000000000000000000004a767e2ef83577225522ef8ed71056c6e3acb21600000000000f424000000000000000000000000000000000000000000000000000000000000000000000000000001600030100110100000000000000000000000000030d4000000000000000000000",
          "blockHash": "0xfee0e8eac00bd6ea64ff3d1830a2859aec5f511824aa811682ed771557a045ff",
          "blockNumber": "0x40f172b",
          "transactionHash": "0xf31f06fe4ac60d460473cf8b485b6cb7b0f162a51eaebd76e5fbe2c30fd06fbc",
          "transactionIndex": "0x1a",
          "logIndex": "0x41",
          "removed": false
        },
        {
          "address": "0x57558cb8d6005de0bae8a2789d5efaae52dba5a8",
          "topics": [
            "0x85496b760a4b7f8d66384b9df21b381f5d1b1e79f229a47aaf4c232edc2fe59a",
            "0xca17920554d815cc67cb80e1d1bad233e74391db17d95b3981533c6ea91ba297",
            "0x000000000000000000000000741f0d8bde14140f62107fc60a0ee122b37d4630"
          ],
          "data": "0x00000000000000000000000000000000000000000000000000000000000076030000000000000000000000000000000000000000000000000de0b6b3a76400000000000000000000000000000000000000000000000000000de0b6b3a7640000",
          "blockHash": "0xfee0e8eac00bd6ea64ff3d1830a2859aec5f511824aa811682ed771557a045ff",
          "blockNumber": "0x40f172b",
          "transactionHash": "0xf31f06fe4ac60d460473cf8b485b6cb7b0f162a51eaebd76e5fbe2c30fd06fbc",
          "transactionIndex": "0x1a",
          "logIndex": "0x42",
          "removed": false
        },
        {
          "address": "0x57558cb8d6005de0bae8a2789d5efaae52dba5a8",
          "topics": [
            "0xddf252ad1be2c89b69c2b068fc378daa952ba7f163c4a11628f55a4df523b3ef",
            "0x000000000000000000000000741f0d8bde14140f62107fc60a0ee122b37d4630",
            "0x0000000000000000000000000000000000000000000000000000000000000000"
          ],
          "data": "0x0000000000000000000000000000000000000000000000000de0b6b3a7640000",
          "blockHash": "0xfee0e8eac00bd6ea64ff3d1830a2859aec5f511824aa811682ed771557a045ff",
          "blockNumber": "0x40f172b",
          "transactionHash": "0xf31f06fe4ac60d460473cf8b485b6cb7b0f162a51eaebd76e5fbe2c30fd06fbc",
          "transactionIndex": "0x1a",
          "logIndex": "0x43",
          "removed": false
        },
        {
          "address": "0x197d1333dea5fe0d6600e9b396c7f1b1cfcc558a",
          "topics": [
            "0x61ed099e74a97a1d7f8bb0952a88ca8b7b8ebd00c126ea04671f92a81213318a"
          ],
          "data": "0x00000000000000000000000090e595783e43eb89ff07f63d27b8430e6b44bd9c000000000000000000000000000000000000000000000000003634507d460dec",
          "blockHash": "0xfee0e8eac00bd6ea64ff3d1830a2859aec5f511824aa811682ed771557a045ff",
          "blockNumber": "0x40f172b",
          "transactionHash": "0xf31f06fe4ac60d460473cf8b485b6cb7b0f162a51eaebd76e5fbe2c30fd06fbc",
          "transactionIndex": "0x1a",
          "logIndex": "0x44",
          "removed": false
        },
        {
          "address": "0x197d1333dea5fe0d6600e9b396c7f1b1cfcc558a",
          "topics": [
            "0x07ea52d82345d6e838192107d8fd7123d9c2ec8e916cd0aad13fd2b60db24644"
          ],
          "data": "0x000000000000000000000000000000000000000000000000000000000000006000000000000000000000000000000000000000000000000000000000000000e00000000000000000000000000000000000000000000000000000000000000100000000000000000000000000000000000000000000000000000000000000000300000000000000000000000007c05eab7716acb6f83ebf6268f8eecda8892ba1000000000000000000000000962f502a63f5fbeb44dc9ab932122648e8352959000000000000000000000000fe4c37cd401f58ee0bf4d214447bf306c2bbd41b00000000000000000000000000000000000000000000000000000000000000000000000000000000000000000000000000000000000000000000000000000003000000000000000000000000000000000000000000000000000001f4ec452a28000000000000000000000000000000000000000000000000000001f4ec452a2800000000000000000000000000000000000000000000000000000209fb143590",
          "blockHash": "0xfee0e8eac00bd6ea64ff3d1830a2859aec5f511824aa811682ed771557a045ff",
          "blockNumber": "0x40f172b",
          "transactionHash": "0xf31f06fe4ac60d460473cf8b485b6cb7b0f162a51eaebd76e5fbe2c30fd06fbc",
          "transactionIndex": "0x1a",
          "logIndex": "0x45",
          "removed": false
        },
        {
          "address": "0x1a44076050125825900e736c501f859c50fe728c",
          "topics": [
            "0x1ab700d4ced0c005b164c0f789fd09fcbb0156d4c2041b8a3bfbcd961cd1567f"
          ],
          "data": "0x00000000000000000000000000000000000000000000000000000000000000600000000000000000000000000000000000000000000000000000000000000120000000000000000000000000197d1333dea5fe0d6600e9b396c7f1b1cfcc558a00000000000000000000000000000000000000000000000000000000000000990100000000000000010000759a00000000000000000000000057558cb8d6005de0bae8a2789d5efaae52dba5a80000760600000000000000000000000057558cb8d6005de0bae8a2789d5efaae52dba5a8a90d4fecd19d529c8fdcea2461549bc9f6f9b25508f6d34228aeba464f05114a000000000000000000000000741f0d8bde14140f62107fc60a0ee122b37d463000000000000f424000000000000000000000000000000000000000000000000000000000000000000000000000001600030100110100000000000000000000000000030d4000000000000000000000",
          "blockHash": "0xfee0e8eac00bd6ea64ff3d1830a2859aec5f511824aa811682ed771557a045ff",
          "blockNumber": "0x40f172b",
          "transactionHash": "0xf31f06fe4ac60d460473cf8b485b6cb7b0f162a51eaebd76e5fbe2c30fd06fbc",
          "transactionIndex": "0x1a",
          "logIndex": "0x46",
          "removed": false
        },
        {
          "address": "0x57558cb8d6005de0bae8a2789d5efaae52dba5a8",
          "topics": [
            "0x85496b760a4b7f8d66384b9df21b381f5d1b1e79f229a47aaf4c232edc2fe59a",
            "0xa90d4fecd19d529c8fdcea2461549bc9f6f9b25508f6d34228aeba464f05114a",
            "0x000000000000000000000000741f0d8bde14140f62107fc60a0ee122b37d4630"
          ],
          "data": "0x00000000000000000000000000000000000000000000000000000000000076060000000000000000000000000000000000000000000000000de0b6b3a76400000000000000000000000000000000000000000000000000000de0b6b3a7640000",
          "blockHash": "0xfee0e8eac00bd6ea64ff3d1830a2859aec5f511824aa811682ed771557a045ff",
          "blockNumber": "0x40f172b",
          "transactionHash": "0xf31f06fe4ac60d460473cf8b485b6cb7b0f162a51eaebd76e5fbe2c30fd06fbc",
          "transactionIndex": "0x1a",
          "logIndex": "0x47",
          "removed": false
        }
      ],
      "logsBloom": "0x0000000000000000800000000004004000000000000000000000000000100000000000000000000000000000000000040000010010000000000000000000000000000200000000000000000800000000000000000000000000000000000000000000000002000000800000000000080000000000001000000000001800000000000002000000000000000008800000000000000000000000000000000000800000000100a000001000100000000000000000000000400000000440000000000000000002000000000000000080000000000000000000000000000000000020000000040002000400000000000000002000000000018000000000000000000000",
      "type": "0x2",
      "transactionHash": "0xf31f06fe4ac60d460473cf8b485b6cb7b0f162a51eaebd76e5fbe2c30fd06fbc",
      "transactionIndex": "0x1a",
      "blockHash": "0xfee0e8eac00bd6ea64ff3d1830a2859aec5f511824aa811682ed771557a045ff",
      "blockNumber": "0x40f172b",
      "gasUsed": "0xa4a97",
      "effectiveGasPrice": "0x367cc6d5",
      "from": "0x45dce8e4f2dc005a5f28206a46cb034697eeda8e",
      "to": "0x741f0d8bde14140f62107fc60a0ee122b37d4630",
      "contractAddress": null
    }
  ],
  "libraries": [],
  "pending": [],
  "returns": {},
  "timestamp": 1756881791497,
  "chain": 43114,
  "commit": "487ed68"
}