{
  "transactions": [
    {
      "hash": "0x9dc51c64a21b7ff640d56774c8017326163409e796dc32a3fe6e37d426d08444",
      "transactionType": "CALL",
      "contractName": null,
      "contractAddress": "0x741f0d8bde14140f62107fc60a0ee122b37d4630",
      "function": "batchBridgeWithEthFeeFromWallet((uint32,bytes32,uint256,uint256,bytes,bytes,bytes)[],address[],address[])",
      "arguments": [
        "[(30367, 0x000000000000000000000000741f0d8bde14140f62107fc60a0ee122b37d4630, 500000000000000000, 0, 0x, 0x, 0x)]",
        "[0x57558Cb8d6005DE0BAe8a2789d5EfaaE52dba5a8]",
        "[0x741F0d8Bde14140f62107FC60A0EE122B37D4630]"
      ],
      "transaction": {
        "from": "0x45dce8e4f2dc005a5f28206a46cb034697eeda8e",
        "to": "0x741f0d8bde14140f62107fc60a0ee122b37d4630",
        "gas": "0x94f31",
        "value": "0x14f6ddd51ffbb8c",
        "input": "0xb70d4241000000000000000000000000000000000000000000000000000000000000006000000000000000000000000000000000000000000000000000000000000001e0000000000000000000000000000000000000000000000000000000000000022000000000000000000000000000000000000000000000000000000000000000010000000000000000000000000000000000000000000000000000000000000020000000000000000000000000000000000000000000000000000000000000769f000000000000000000000000741f0d8bde14140f62107fc60a0ee122b37d463000000000000000000000000000000000000000000000000006f05b59d3b20000000000000000000000000000000000000000000000000000000000000000000000000000000000000000000000000000000000000000000000000000000000e000000000000000000000000000000000000000000000000000000000000001000000000000000000000000000000000000000000000000000000000000000120000000000000000000000000000000000000000000000000000000000000000000000000000000000000000000000000000000000000000000000000000000000000000000000000000000000000000000000000000000000000000000000000000000000000000000000000000000000000000000000000000000000000000100000000000000000000000057558cb8d6005de0bae8a2789d5efaae52dba5a80000000000000000000000000000000000000000000000000000000000000001000000000000000000000000741f0d8bde14140f62107fc60a0ee122b37d4630",
        "nonce": "0xaa",
        "chainId": "0xa86a"
      },
      "additionalContracts": [],
      "isFixedGasLimit": false
    }
  ],
  "receipts": [
    {
      "status": "0x1",
      "cumulativeGasUsed": "0x251c7c",
      "logs": [
        {
          "address": "0x57558cb8d6005de0bae8a2789d5efaae52dba5a8",
          "topics": [
            "0xddf252ad1be2c89b69c2b068fc378daa952ba7f163c4a11628f55a4df523b3ef",
            "0x000000000000000000000000741f0d8bde14140f62107fc60a0ee122b37d4630",
            "0x0000000000000000000000000000000000000000000000000000000000000000"
          ],
          "data": "0x00000000000000000000000000000000000000000000000006f05b59d3b20000",
          "blockHash": "0x00e2d1deb464eb333cd823d25cee96605e0fb0a642e88009be489ef11e5e7c6c",
          "blockNumber": "0x419a0bc",
          "transactionHash": "0x9dc51c64a21b7ff640d56774c8017326163409e796dc32a3fe6e37d426d08444",
          "transactionIndex": "0x27",
          "logIndex": "0x23",
          "removed": false
        },
        {
          "address": "0x197d1333dea5fe0d6600e9b396c7f1b1cfcc558a",
          "topics": [
            "0x61ed099e74a97a1d7f8bb0952a88ca8b7b8ebd00c126ea04671f92a81213318a"
          ],
          "data": "0x00000000000000000000000090e595783e43eb89ff07f63d27b8430e6b44bd9c00000000000000000000000000000000000000000000000000afcdec57d981d8",
          "blockHash": "0x00e2d1deb464eb333cd823d25cee96605e0fb0a642e88009be489ef11e5e7c6c",
          "blockNumber": "0x419a0bc",
          "transactionHash": "0x9dc51c64a21b7ff640d56774c8017326163409e796dc32a3fe6e37d426d08444",
          "transactionIndex": "0x27",
          "logIndex": "0x24",
          "removed": false
        },
        {
          "address": "0x197d1333dea5fe0d6600e9b396c7f1b1cfcc558a",
          "topics": [
            "0x07ea52d82345d6e838192107d8fd7123d9c2ec8e916cd0aad13fd2b60db24644"
          ],
          "data": "0x000000000000000000000000000000000000000000000000000000000000006000000000000000000000000000000000000000000000000000000000000000e00000000000000000000000000000000000000000000000000000000000000100000000000000000000000000000000000000000000000000000000000000000300000000000000000000000007c05eab7716acb6f83ebf6268f8eecda8892ba1000000000000000000000000962f502a63f5fbeb44dc9ab932122648e8352959000000000000000000000000fe4c37cd401f58ee0bf4d214447bf306c2bbd41b00000000000000000000000000000000000000000000000000000000000000000000000000000000000000000000000000000000000000000000000000000003000000000000000000000000000000000000000000000000003479147f1d78ec000000000000000000000000000000000000000000000000003479147f1d78ec0000000000000000000000000000000000000000000000000036adc7fbeb47dc",
          "blockHash": "0x00e2d1deb464eb333cd823d25cee96605e0fb0a642e88009be489ef11e5e7c6c",
          "blockNumber": "0x419a0bc",
          "transactionHash": "0x9dc51c64a21b7ff640d56774c8017326163409e796dc32a3fe6e37d426d08444",
          "transactionIndex": "0x27",
          "logIndex": "0x25",
          "removed": false
        },
        {
          "address": "0x1a44076050125825900e736c501f859c50fe728c",
          "topics": [
            "0x1ab700d4ced0c005b164c0f789fd09fcbb0156d4c2041b8a3bfbcd961cd1567f"
          ],
          "data": "0x00000000000000000000000000000000000000000000000000000000000000600000000000000000000000000000000000000000000000000000000000000120000000000000000000000000197d1333dea5fe0d6600e9b396c7f1b1cfcc558a00000000000000000000000000000000000000000000000000000000000000990100000000000000010000759a00000000000000000000000057558cb8d6005de0bae8a2789d5efaae52dba5a80000769f00000000000000000000000057558cb8d6005de0bae8a2789d5efaae52dba5a8502abcbd1f6cc58275c3be6934f63e23a05fcbddb8dee17018c5a8f22e541b44000000000000000000000000741f0d8bde14140f62107fc60a0ee122b37d4630000000000007a12000000000000000000000000000000000000000000000000000000000000000000000000000001600030100110100000000000000000000000000030d4000000000000000000000",
          "blockHash": "0x00e2d1deb464eb333cd823d25cee96605e0fb0a642e88009be489ef11e5e7c6c",
          "blockNumber": "0x419a0bc",
          "transactionHash": "0x9dc51c64a21b7ff640d56774c8017326163409e796dc32a3fe6e37d426d08444",
          "transactionIndex": "0x27",
          "logIndex": "0x26",
          "removed": false
        },
        {
          "address": "0x57558cb8d6005de0bae8a2789d5efaae52dba5a8",
          "topics": [
            "0x85496b760a4b7f8d66384b9df21b381f5d1b1e79f229a47aaf4c232edc2fe59a",
            "0x502abcbd1f6cc58275c3be6934f63e23a05fcbddb8dee17018c5a8f22e541b44",
            "0x000000000000000000000000741f0d8bde14140f62107fc60a0ee122b37d4630"
          ],
          "data": "0x000000000000000000000000000000000000000000000000000000000000769f00000000000000000000000000000000000000000000000006f05b59d3b2000000000000000000000000000000000000000000000000000006f05b59d3b20000",
          "blockHash": "0x00e2d1deb464eb333cd823d25cee96605e0fb0a642e88009be489ef11e5e7c6c",
          "blockNumber": "0x419a0bc",
          "transactionHash": "0x9dc51c64a21b7ff640d56774c8017326163409e796dc32a3fe6e37d426d08444",
          "transactionIndex": "0x27",
          "logIndex": "0x27",
          "removed": false
        }
      ],
      "logsBloom": "0x0000000000000000000000000004004000000000000000000000000000100000000000000000000000000000000000040000010010000000000000000000000000000200000000000000000800000000000000000000000000000000000020000000000002000000800000000000080000000000001000000000001000000000000002000000000000000008000000000000000000000000080000000000000000000100a000001000100000000000000000000000400000000440000000000000000002000000000800000080000000000000000000000000000000000020000000040000000000000000000000002000000000018000000000000000000000",
      "type": "0x2",
      "transactionHash": "0x9dc51c64a21b7ff640d56774c8017326163409e796dc32a3fe6e37d426d08444",
      "transactionIndex": "0x27",
      "blockHash": "0x00e2d1deb464eb333cd823d25cee96605e0fb0a642e88009be489ef11e5e7c6c",
      "blockNumber": "0x419a0bc",
      "gasUsed": "0x66879",
      "effectiveGasPrice": "0x2b819c6e",
      "from": "0x45dce8e4f2dc005a5f28206a46cb034697eeda8e",
      "to": "0x741f0d8bde14140f62107fc60a0ee122b37d4630",
      "contractAddress": null
    }
  ],
  "libraries": [],
  "pending": [],
  "returns": {},
  "timestamp": 1757955718333,
  "chain": 43114,
  "commit": "e9d64cb"
}