{
  "transactions": [
    {
      "hash": "0x5c4c2a12c1fca3c9595da89f5020e3d11f40f91092e6386556d376111ffa8f5c",
      "transactionType": "CALL",
      "contractName": null,
      "contractAddress": "0x741f0d8bde14140f62107fc60a0ee122b37d4630",
      "function": "batchBridgeWithEthFeeFromWallet((uint32,bytes32,uint256,uint256,bytes,bytes,bytes)[],address[],address[])",
      "arguments": [
        "[(30168, 0x3c1b094729102e0c095ee2417e5940ee4f1eab4763f6113fe75281ab74c62398, 1000000000000000000, 0, 0x, 0x, 0x), (30325, 0x09d0eb2763c96e085fa74ba6cf0d49136f8654c48ec7dbc59279a9066c7dd409, 1000000000000000000, 0, 0x, 0x, 0x), (30108, 0x09d0eb2763c96e085fa74ba6cf0d49136f8654c48ec7dbc59279a9066c7dd409, 1000000000000000000, 0, 0x, 0x, 0x)]",
        "[0x57558Cb8d6005DE0BAe8a2789d5EfaaE52dba5a8, 0x57558Cb8d6005DE0BAe8a2789d5EfaaE52dba5a8, 0x57558Cb8d6005DE0BAe8a2789d5EfaaE52dba5a8]",
        "[0x741F0d8Bde14140f62107FC60A0EE122B37D4630, 0x741F0d8Bde14140f62107FC60A0EE122B37D4630, 0x741F0d8Bde14140f62107FC60A0EE122B37D4630]"
      ],
      "transaction": {
        "from": "0x45dce8e4f2dc005a5f28206a46cb034697eeda8e",
        "to": "0x741f0d8bde14140f62107fc60a0ee122b37d4630",
        "gas": "0x13687b",
        "value": "0x41eda8d1c3cf2aa0",
        "input": "0xb70d4241000000000000000000000000000000000000000000000000000000000000006000000000000000000000000000000000000000000000000000000000000004a000000000000000000000000000000000000000000000000000000000000005200000000000000000000000000000000000000000000000000000000000000003000000000000000000000000000000000000000000000000000000000000006000000000000000000000000000000000000000000000000000000000000001a000000000000000000000000000000000000000000000000000000000000002e000000000000000000000000000000000000000000000000000000000000075d83c1b094729102e0c095ee2417e5940ee4f1eab4763f6113fe75281ab74c623980000000000000000000000000000000000000000000000000de0b6b3a7640000000000000000000000000000000000000000000000000000000000000000000000000000000000000000000000000000000000000000000000000000000000e000000000000000000000000000000000000000000000000000000000000001000000000000000000000000000000000000000000000000000000000000000120000000000000000000000000000000000000000000000000000000000000000000000000000000000000000000000000000000000000000000000000000000000000000000000000000000000000000000000000000000000000000000000000000000000000000000000000000000000000000000000000000000000000767509d0eb2763c96e085fa74ba6cf0d49136f8654c48ec7dbc59279a9066c7dd4090000000000000000000000000000000000000000000000000de0b6b3a7640000000000000000000000000000000000000000000000000000000000000000000000000000000000000000000000000000000000000000000000000000000000e000000000000000000000000000000000000000000000000000000000000001000000000000000000000000000000000000000000000000000000000000000120000000000000000000000000000000000000000000000000000000000000000000000000000000000000000000000000000000000000000000000000000000000000000000000000000000000000000000000000000000000000000000000000000000000000000000000000000000000000000000000000000000000000759c09d0eb2763c96e085fa74ba6cf0d49136f8654c48ec7dbc59279a9066c7dd4090000000000000000000000000000000000000000000000000de0b6b3a7640000000000000000000000000000000000000000000000000000000000000000000000000000000000000000000000000000000000000000000000000000000000e000000000000000000000000000000000000000000000000000000000000001000000000000000000000000000000000000000000000000000000000000000120000000000000000000000000000000000000000000000000000000000000000000000000000000000000000000000000000000000000000000000000000000000000000000000000000000000000000000000000000000000000000000000000000000000000000000000000000000000000000000000000000000000000000300000000000000000000000057558cb8d6005de0bae8a2789d5efaae52dba5a800000000000000000000000057558cb8d6005de0bae8a2789d5efaae52dba5a800000000000000000000000057558cb8d6005de0bae8a2789d5efaae52dba5a80000000000000000000000000000000000000000000000000000000000000003000000000000000000000000741f0d8bde14140f62107fc60a0ee122b37d4630000000000000000000000000741f0d8bde14140f62107fc60a0ee122b37d4630000000000000000000000000741f0d8bde14140f62107fc60a0ee122b37d4630",
        "nonce": "0x89",
        "chainId": "0x89"
      },
      "additionalContracts": [],
      "isFixedGasLimit": false
    }
  ],
  "receipts": [
    {
      "status": "0x1",
      "cumulativeGasUsed": "0x7b6e08",
      "logs": [
        {
          "address": "0x0000000000000000000000000000000000001010",
          "topics": [
            "0xe6497e3ee548a3372136af2fcb0696db31fc6cf20260707645068bd3fe97f3c4",
            "0x0000000000000000000000000000000000000000000000000000000000001010",
            "0x00000000000000000000000045dce8e4f2dc005a5f28206a46cb034697eeda8e",
            "0x000000000000000000000000741f0d8bde14140f62107fc60a0ee122b37d4630"
          ],
          "data": "0x00000000000000000000000000000000000000000000000041eda8d1c3cf2aa00000000000000000000000000000000000000000000000005381e55367d48dde000000000000000000000000000000000000000000000000000000000000000000000000000000000000000000000000000000000000000011943c81a405633e00000000000000000000000000000000000000000000000041eda8d1c3cf2aa0",
          "blockHash": "0x8cc6dfe9886e536b9b0075ae439c9e7d497c364b4df18b578a08e87a8d8392c6",
          "blockNumber": "0x465ff78",
          "transactionHash": "0x5c4c2a12c1fca3c9595da89f5020e3d11f40f91092e6386556d376111ffa8f5c",
          "transactionIndex": "0x27",
          "logIndex": "0x10c",
          "removed": false
        },
        {
          "address": "0x0000000000000000000000000000000000001010",
          "topics": [
            "0xe6497e3ee548a3372136af2fcb0696db31fc6cf20260707645068bd3fe97f3c4",
            "0x0000000000000000000000000000000000000000000000000000000000001010",
            "0x000000000000000000000000741f0d8bde14140f62107fc60a0ee122b37d4630",
            "0x00000000000000000000000057558cb8d6005de0bae8a2789d5efaae52dba5a8"
          ],
          "data": "0x0000000000000000000000000000000000000000000000002658a00bcb312dc900000000000000000000000000000000000000000000000041eda8d1c3cf2aa000000000000000000000000000000000000000000000000000000000000000000000000000000000000000000000000000000000000000001b9508c5f89dfcd70000000000000000000000000000000000000000000000002658a00bcb312dc9",
          "blockHash": "0x8cc6dfe9886e536b9b0075ae439c9e7d497c364b4df18b578a08e87a8d8392c6",
          "blockNumber": "0x465ff78",
          "transactionHash": "0x5c4c2a12c1fca3c9595da89f5020e3d11f40f91092e6386556d376111ffa8f5c",
          "transactionIndex": "0x27",
          "logIndex": "0x10d",
          "removed": false
        },
        {
          "address": "0x57558cb8d6005de0bae8a2789d5efaae52dba5a8",
          "topics": [
            "0xddf252ad1be2c89b69c2b068fc378daa952ba7f163c4a11628f55a4df523b3ef",
            "0x000000000000000000000000741f0d8bde14140f62107fc60a0ee122b37d4630",
            "0x0000000000000000000000000000000000000000000000000000000000000000"
          ],
          "data": "0x0000000000000000000000000000000000000000000000000de0b6b3a7640000",
          "blockHash": "0x8cc6dfe9886e536b9b0075ae439c9e7d497c364b4df18b578a08e87a8d8392c6",
          "blockNumber": "0x465ff78",
          "transactionHash": "0x5c4c2a12c1fca3c9595da89f5020e3d11f40f91092e6386556d376111ffa8f5c",
          "transactionIndex": "0x27",
          "logIndex": "0x10e",
          "removed": false
        },
        {
          "address": "0x0000000000000000000000000000000000001010",
          "topics": [
            "0xe6497e3ee548a3372136af2fcb0696db31fc6cf20260707645068bd3fe97f3c4",
            "0x0000000000000000000000000000000000000000000000000000000000001010",
            "0x00000000000000000000000057558cb8d6005de0bae8a2789d5efaae52dba5a8",
            "0x0000000000000000000000001a44076050125825900e736c501f859c50fe728c"
          ],
          "data": "0x0000000000000000000000000000000000000000000000002658a00bcb312dc90000000000000000000000000000000000000000000000002658a00bcb312dc9000000000000000000000000000000000000000000000000000000000000000000000000000000000000000000000000000000000000000000000000000000000000000000000000000000000000000000000000000000002658a00bcb312dc9",
          "blockHash": "0x8cc6dfe9886e536b9b0075ae439c9e7d497c364b4df18b578a08e87a8d8392c6",
          "blockNumber": "0x465ff78",
          "transactionHash": "0x5c4c2a12c1fca3c9595da89f5020e3d11f40f91092e6386556d376111ffa8f5c",
          "transactionIndex": "0x27",
          "logIndex": "0x10f",
          "removed": false
        },
        {
          "address": "0x6c26c61a97006888ea9e4fa36584c7df57cd9da3",
          "topics": [
            "0x61ed099e74a97a1d7f8bb0952a88ca8b7b8ebd00c126ea04671f92a81213318a"
          ],
          "data": "0x000000000000000000000000cd3f213ad101472e1713c72b1697e727c803885b00000000000000000000000000000000000000000000000023147e1d4066d868",
          "blockHash": "0x8cc6dfe9886e536b9b0075ae439c9e7d497c364b4df18b578a08e87a8d8392c6",
          "blockNumber": "0x465ff78",
          "transactionHash": "0x5c4c2a12c1fca3c9595da89f5020e3d11f40f91092e6386556d376111ffa8f5c",
          "transactionIndex": "0x27",
          "logIndex": "0x110",
          "removed": false
        },
        {
          "address": "0x6c26c61a97006888ea9e4fa36584c7df57cd9da3",
          "topics": [
            "0x07ea52d82345d6e838192107d8fd7123d9c2ec8e916cd0aad13fd2b60db24644"
          ],
          "data": "0x000000000000000000000000000000000000000000000000000000000000006000000000000000000000000000000000000000000000000000000000000000e00000000000000000000000000000000000000000000000000000000000000100000000000000000000000000000000000000000000000000000000000000000300000000000000000000000023de2fe932d9043291f870324b74f820e11dc81a00000000000000000000000025e0e650a78e6304a3983fc4b7ffc6544b1beea6000000000000000000000000dab6e6ecb3513a8d2614ad75199b4b264a731050000000000000000000000000000000000000000000000000000000000000000000000000000000000000000000000000000000000000000000000000000000030000000000000000000000000000000000000000000000000112dbfce60a9ac20000000000000000000000000000000000000000000000000112dbfce60a9ac2000000000000000000000000000000000000000000000000011e69f4beb51fdd",
          "blockHash": "0x8cc6dfe9886e536b9b0075ae439c9e7d497c364b4df18b578a08e87a8d8392c6",
          "blockNumber": "0x465ff78",
          "transactionHash": "0x5c4c2a12c1fca3c9595da89f5020e3d11f40f91092e6386556d376111ffa8f5c",
          "transactionIndex": "0x27",
          "logIndex": "0x111",
          "removed": false
        },
        {
          "address": "0x1a44076050125825900e736c501f859c50fe728c",
          "topics": [
            "0x1ab700d4ced0c005b164c0f789fd09fcbb0156d4c2041b8a3bfbcd961cd1567f"
          ],
          "data": "0x000000000000000000000000000000000000000000000000000000000000006000000000000000000000000000000000000000000000000000000000000001200000000000000000000000006c26c61a97006888ea9e4fa36584c7df57cd9da300000000000000000000000000000000000000000000000000000000000000990100000000000000010000759d00000000000000000000000057558cb8d6005de0bae8a2789d5efaae52dba5a8000075d8006d6ff762f7fcb768c550bae67f7a6a3a94969e469b6e0689563ace4e3759ad85e55d9c9e379ef25b6b0d20f9438d29159d884ca1f417a840188e5c16b3f8353c1b094729102e0c095ee2417e5940ee4f1eab4763f6113fe75281ab74c6239800000000000f424000000000000000000000000000000000000000000000000000000000000000000000000000002600030100210100000000000000000000000000030d40000000000000000000000000002625a00000000000000000000000000000000000000000000000000000",
          "blockHash": "0x8cc6dfe9886e536b9b0075ae439c9e7d497c364b4df18b578a08e87a8d8392c6",
          "blockNumber": "0x465ff78",
          "transactionHash": "0x5c4c2a12c1fca3c9595da89f5020e3d11f40f91092e6386556d376111ffa8f5c",
          "transactionIndex": "0x27",
          "logIndex": "0x112",
          "removed": false
        },
        {
          "address": "0x0000000000000000000000000000000000001010",
          "topics": [
            "0xe6497e3ee548a3372136af2fcb0696db31fc6cf20260707645068bd3fe97f3c4",
            "0x0000000000000000000000000000000000000000000000000000000000001010",
            "0x0000000000000000000000001a44076050125825900e736c501f859c50fe728c",
            "0x0000000000000000000000006c26c61a97006888ea9e4fa36584c7df57cd9da3"
          ],
          "data": "0x0000000000000000000000000000000000000000000000002658a00bcb312dc90000000000000000000000000000000000000000000000002658a00bcb312dc9000000000000000000000000000000000000000000001781b0f23951c0ec7ba30000000000000000000000000000000000000000000000000000000000000000000000000000000000000000000000000000000000001781d74ad95d8c1da96c",
          "blockHash": "0x8cc6dfe9886e536b9b0075ae439c9e7d497c364b4df18b578a08e87a8d8392c6",
          "blockNumber": "0x465ff78",
          "transactionHash": "0x5c4c2a12c1fca3c9595da89f5020e3d11f40f91092e6386556d376111ffa8f5c",
          "transactionIndex": "0x27",
          "logIndex": "0x113",
          "removed": false
        },
        {
          "address": "0x57558cb8d6005de0bae8a2789d5efaae52dba5a8",
          "topics": [
            "0x85496b760a4b7f8d66384b9df21b381f5d1b1e79f229a47aaf4c232edc2fe59a",
            "0x85e55d9c9e379ef25b6b0d20f9438d29159d884ca1f417a840188e5c16b3f835",
            "0x000000000000000000000000741f0d8bde14140f62107fc60a0ee122b37d4630"
          ],
          "data": "0x00000000000000000000000000000000000000000000000000000000000075d80000000000000000000000000000000000000000000000000de0b6b3a76400000000000000000000000000000000000000000000000000000de0b6b3a7640000",
          "blockHash": "0x8cc6dfe9886e536b9b0075ae439c9e7d497c364b4df18b578a08e87a8d8392c6",
          "blockNumber": "0x465ff78",
          "transactionHash": "0x5c4c2a12c1fca3c9595da89f5020e3d11f40f91092e6386556d376111ffa8f5c",
          "transactionIndex": "0x27",
          "logIndex": "0x114",
          "removed": false
        },
        {
          "address": "0x0000000000000000000000000000000000001010",
          "topics": [
            "0xe6497e3ee548a3372136af2fcb0696db31fc6cf20260707645068bd3fe97f3c4",
            "0x0000000000000000000000000000000000000000000000000000000000001010",
            "0x000000000000000000000000741f0d8bde14140f62107fc60a0ee122b37d4630",
            "0x00000000000000000000000057558cb8d6005de0bae8a2789d5efaae52dba5a8"
          ],
          "data": "0x000000000000000000000000000000000000000000000000017031ec5d6cd0140000000000000000000000000000000000000000000000001b9508c5f89dfcd700000000000000000000000000000000000000000000000000000000000000000000000000000000000000000000000000000000000000001a24d6d99b312cc3000000000000000000000000000000000000000000000000017031ec5d6cd014",
          "blockHash": "0x8cc6dfe9886e536b9b0075ae439c9e7d497c364b4df18b578a08e87a8d8392c6",
          "blockNumber": "0x465ff78",
          "transactionHash": "0x5c4c2a12c1fca3c9595da89f5020e3d11f40f91092e6386556d376111ffa8f5c",
          "transactionIndex": "0x27",
          "logIndex": "0x115",
          "removed": false
        },
        {
          "address": "0x57558cb8d6005de0bae8a2789d5efaae52dba5a8",
          "topics": [
            "0xddf252ad1be2c89b69c2b068fc378daa952ba7f163c4a11628f55a4df523b3ef",
            "0x000000000000000000000000741f0d8bde14140f62107fc60a0ee122b37d4630",
            "0x0000000000000000000000000000000000000000000000000000000000000000"
          ],
          "data": "0x0000000000000000000000000000000000000000000000000de0b6b3a7640000",
          "blockHash": "0x8cc6dfe9886e536b9b0075ae439c9e7d497c364b4df18b578a08e87a8d8392c6",
          "blockNumber": "0x465ff78",
          "transactionHash": "0x5c4c2a12c1fca3c9595da89f5020e3d11f40f91092e6386556d376111ffa8f5c",
          "transactionIndex": "0x27",
          "logIndex": "0x116",
          "removed": false
        },
        {
          "address": "0x0000000000000000000000000000000000001010",
          "topics": [
            "0xe6497e3ee548a3372136af2fcb0696db31fc6cf20260707645068bd3fe97f3c4",
            "0x0000000000000000000000000000000000000000000000000000000000001010",
            "0x00000000000000000000000057558cb8d6005de0bae8a2789d5efaae52dba5a8",
            "0x0000000000000000000000001a44076050125825900e736c501f859c50fe728c"
          ],
          "data": "0x000000000000000000000000000000000000000000000000017031ec5d6cd014000000000000000000000000000000000000000000000000017031ec5d6cd01400000000000000000000000000000000000000000000000000000000000000000000000000000000000000000000000000000000000000000000000000000000000000000000000000000000000000000000000000000000017031ec5d6cd014",
          "blockHash": "0x8cc6dfe9886e536b9b0075ae439c9e7d497c364b4df18b578a08e87a8d8392c6",
          "blockNumber": "0x465ff78",
          "transactionHash": "0x5c4c2a12c1fca3c9595da89f5020e3d11f40f91092e6386556d376111ffa8f5c",
          "transactionIndex": "0x27",
          "logIndex": "0x117",
          "removed": false
        },
        {
          "address": "0x6c26c61a97006888ea9e4fa36584c7df57cd9da3",
          "topics": [
            "0x61ed099e74a97a1d7f8bb0952a88ca8b7b8ebd00c126ea04671f92a81213318a"
          ],
          "data": "0x000000000000000000000000cd3f213ad101472e1713c72b1697e727c803885b00000000000000000000000000000000000000000000000000b818f62e38099b",
          "blockHash": "0x8cc6dfe9886e536b9b0075ae439c9e7d497c364b4df18b578a08e87a8d8392c6",
          "blockNumber": "0x465ff78",
          "transactionHash": "0x5c4c2a12c1fca3c9595da89f5020e3d11f40f91092e6386556d376111ffa8f5c",
          "transactionIndex": "0x27",
          "logIndex": "0x118",
          "removed": false
        },
        {
          "address": "0x6c26c61a97006888ea9e4fa36584c7df57cd9da3",
          "topics": [
            "0x07ea52d82345d6e838192107d8fd7123d9c2ec8e916cd0aad13fd2b60db24644"
          ],
          "data": "0x000000000000000000000000000000000000000000000000000000000000006000000000000000000000000000000000000000000000000000000000000000e00000000000000000000000000000000000000000000000000000000000000100000000000000000000000000000000000000000000000000000000000000000300000000000000000000000023de2fe932d9043291f870324b74f820e11dc81a00000000000000000000000025e0e650a78e6304a3983fc4b7ffc6544b1beea6000000000000000000000000dab6e6ecb3513a8d2614ad75199b4b264a7310500000000000000000000000000000000000000000000000000000000000000000000000000000000000000000000000000000000000000000000000000000000300000000000000000000000000000000000000000000000000b818f62e4559950000000000000000000000000000000000000000000000000000000000753f8c00000000000000000000000000000000000000000000000000000000007a2d58",
          "blockHash": "0x8cc6dfe9886e536b9b0075ae439c9e7d497c364b4df18b578a08e87a8d8392c6",
          "blockNumber": "0x465ff78",
          "transactionHash": "0x5c4c2a12c1fca3c9595da89f5020e3d11f40f91092e6386556d376111ffa8f5c",
          "transactionIndex": "0x27",
          "logIndex": "0x119",
          "removed": false
        },
        {
          "address": "0x1a44076050125825900e736c501f859c50fe728c",
          "topics": [
            "0x1ab700d4ced0c005b164c0f789fd09fcbb0156d4c2041b8a3bfbcd961cd1567f"
          ],
          "data": "0x000000000000000000000000000000000000000000000000000000000000006000000000000000000000000000000000000000000000000000000000000001200000000000000000000000006c26c61a97006888ea9e4fa36584c7df57cd9da300000000000000000000000000000000000000000000000000000000000000990100000000000000010000759d00000000000000000000000057558cb8d6005de0bae8a2789d5efaae52dba5a800007675a1bb74f0d5770dfc905c508e6273fadc595ddc15326cc907889bdfffa50602c8fd99bc258d35d31bab79fb3a46db0ac889d655e0bc3055d062ec3fd2501c444209d0eb2763c96e085fa74ba6cf0d49136f8654c48ec7dbc59279a9066c7dd40900000000000f42400000000000000000000000000000000000000000000000000000000000000000000000000000160003010011010000000000000000000000000000138800000000000000000000",
          "blockHash": "0x8cc6dfe9886e536b9b0075ae439c9e7d497c364b4df18b578a08e87a8d8392c6",
          "blockNumber": "0x465ff78",
          "transactionHash": "0x5c4c2a12c1fca3c9595da89f5020e3d11f40f91092e6386556d376111ffa8f5c",
          "transactionIndex": "0x27",
          "logIndex": "0x11a",
          "removed": false
        },
        {
          "address": "0x0000000000000000000000000000000000001010",
          "topics": [
            "0xe6497e3ee548a3372136af2fcb0696db31fc6cf20260707645068bd3fe97f3c4",
            "0x0000000000000000000000000000000000000000000000000000000000001010",
            "0x0000000000000000000000001a44076050125825900e736c501f859c50fe728c",
            "0x0000000000000000000000006c26c61a97006888ea9e4fa36584c7df57cd9da3"
          ],
          "data": "0x000000000000000000000000000000000000000000000000017031ec5d6cd014000000000000000000000000000000000000000000000000017031ec5d6cd014000000000000000000000000000000000000000000001781d74ad95d8c1da96c0000000000000000000000000000000000000000000000000000000000000000000000000000000000000000000000000000000000001781d8bb0b49e98a7980",
          "blockHash": "0x8cc6dfe9886e536b9b0075ae439c9e7d497c364b4df18b578a08e87a8d8392c6",
          "blockNumber": "0x465ff78",
          "transactionHash": "0x5c4c2a12c1fca3c9595da89f5020e3d11f40f91092e6386556d376111ffa8f5c",
          "transactionIndex": "0x27",
          "logIndex": "0x11b",
          "removed": false
        },
        {
          "address": "0x57558cb8d6005de0bae8a2789d5efaae52dba5a8",
          "topics": [
            "0x85496b760a4b7f8d66384b9df21b381f5d1b1e79f229a47aaf4c232edc2fe59a",
            "0xfd99bc258d35d31bab79fb3a46db0ac889d655e0bc3055d062ec3fd2501c4442",
            "0x000000000000000000000000741f0d8bde14140f62107fc60a0ee122b37d4630"
          ],
          "data": "0x00000000000000000000000000000000000000000000000000000000000076750000000000000000000000000000000000000000000000000de0b6b3a76400000000000000000000000000000000000000000000000000000de0b6b3a7640000",
          "blockHash": "0x8cc6dfe9886e536b9b0075ae439c9e7d497c364b4df18b578a08e87a8d8392c6",
          "blockNumber": "0x465ff78",
          "transactionHash": "0x5c4c2a12c1fca3c9595da89f5020e3d11f40f91092e6386556d376111ffa8f5c",
          "transactionIndex": "0x27",
          "logIndex": "0x11c",
          "removed": false
        },
        {
          "address": "0x0000000000000000000000000000000000001010",
          "topics": [
            "0xe6497e3ee548a3372136af2fcb0696db31fc6cf20260707645068bd3fe97f3c4",
            "0x0000000000000000000000000000000000000000000000000000000000001010",
            "0x000000000000000000000000741f0d8bde14140f62107fc60a0ee122b37d4630",
            "0x00000000000000000000000057558cb8d6005de0bae8a2789d5efaae52dba5a8"
          ],
          "data": "0x0000000000000000000000000000000000000000000000001a24d6d99b312cc30000000000000000000000000000000000000000000000001a24d6d99b312cc3000000000000000000000000000000000000000000000000000000000000000000000000000000000000000000000000000000000000000000000000000000000000000000000000000000000000000000000000000000001a24d6d99b312cc3",
          "blockHash": "0x8cc6dfe9886e536b9b0075ae439c9e7d497c364b4df18b578a08e87a8d8392c6",
          "blockNumber": "0x465ff78",
          "transactionHash": "0x5c4c2a12c1fca3c9595da89f5020e3d11f40f91092e6386556d376111ffa8f5c",
          "transactionIndex": "0x27",
          "logIndex": "0x11d",
          "removed": false
        },
        {
          "address": "0x57558cb8d6005de0bae8a2789d5efaae52dba5a8",
          "topics": [
            "0xddf252ad1be2c89b69c2b068fc378daa952ba7f163c4a11628f55a4df523b3ef",
            "0x000000000000000000000000741f0d8bde14140f62107fc60a0ee122b37d4630",
            "0x0000000000000000000000000000000000000000000000000000000000000000"
          ],
          "data": "0x0000000000000000000000000000000000000000000000000de0b6b3a7640000",
          "blockHash": "0x8cc6dfe9886e536b9b0075ae439c9e7d497c364b4df18b578a08e87a8d8392c6",
          "blockNumber": "0x465ff78",
          "transactionHash": "0x5c4c2a12c1fca3c9595da89f5020e3d11f40f91092e6386556d376111ffa8f5c",
          "transactionIndex": "0x27",
          "logIndex": "0x11e",
          "removed": false
        },
        {
          "address": "0x0000000000000000000000000000000000001010",
          "topics": [
            "0xe6497e3ee548a3372136af2fcb0696db31fc6cf20260707645068bd3fe97f3c4",
            "0x0000000000000000000000000000000000000000000000000000000000001010",
            "0x00000000000000000000000057558cb8d6005de0bae8a2789d5efaae52dba5a8",
            "0x0000000000000000000000001a44076050125825900e736c501f859c50fe728c"
          ],
          "data": "0x0000000000000000000000000000000000000000000000001a24d6d99b312cc30000000000000000000000000000000000000000000000001a24d6d99b312cc3000000000000000000000000000000000000000000000000000000000000000000000000000000000000000000000000000000000000000000000000000000000000000000000000000000000000000000000000000000001a24d6d99b312cc3",
          "blockHash": "0x8cc6dfe9886e536b9b0075ae439c9e7d497c364b4df18b578a08e87a8d8392c6",
          "blockNumber": "0x465ff78",
          "transactionHash": "0x5c4c2a12c1fca3c9595da89f5020e3d11f40f91092e6386556d376111ffa8f5c",
          "transactionIndex": "0x27",
          "logIndex": "0x11f",
          "removed": false
        },
        {
          "address": "0x6c26c61a97006888ea9e4fa36584c7df57cd9da3",
          "topics": [
            "0x61ed099e74a97a1d7f8bb0952a88ca8b7b8ebd00c126ea04671f92a81213318a"
          ],
          "data": "0x000000000000000000000000cd3f213ad101472e1713c72b1697e727c803885b00000000000000000000000000000000000000000000000002b9016495d93a52",
          "blockHash": "0x8cc6dfe9886e536b9b0075ae439c9e7d497c364b4df18b578a08e87a8d8392c6",
          "blockNumber": "0x465ff78",
          "transactionHash": "0x5c4c2a12c1fca3c9595da89f5020e3d11f40f91092e6386556d376111ffa8f5c",
          "transactionIndex": "0x27",
          "logIndex": "0x120",
          "removed": false
        },
        {
          "address": "0x6c26c61a97006888ea9e4fa36584c7df57cd9da3",
          "topics": [
            "0x07ea52d82345d6e838192107d8fd7123d9c2ec8e916cd0aad13fd2b60db24644"
          ],
          "data": "0x000000000000000000000000000000000000000000000000000000000000006000000000000000000000000000000000000000000000000000000000000000e00000000000000000000000000000000000000000000000000000000000000100000000000000000000000000000000000000000000000000000000000000000300000000000000000000000023de2fe932d9043291f870324b74f820e11dc81a00000000000000000000000025e0e650a78e6304a3983fc4b7ffc6544b1beea6000000000000000000000000dab6e6ecb3513a8d2614ad75199b4b264a731050000000000000000000000000000000000000000000000000000000000000000000000000000000000000000000000000000000000000000000000000000000030000000000000000000000000000000000000000000000000753db1ac8ac77950000000000000000000000000000000000000000000000000753db1ac8ac779500000000000000000000000000000000000000000000000008c41f3f73ff0347",
          "blockHash": "0x8cc6dfe9886e536b9b0075ae439c9e7d497c364b4df18b578a08e87a8d8392c6",
          "blockNumber": "0x465ff78",
          "transactionHash": "0x5c4c2a12c1fca3c9595da89f5020e3d11f40f91092e6386556d376111ffa8f5c",
          "transactionIndex": "0x27",
          "logIndex": "0x121",
          "removed": false
        },
        {
          "address": "0x1a44076050125825900e736c501f859c50fe728c",
          "topics": [
            "0x1ab700d4ced0c005b164c0f789fd09fcbb0156d4c2041b8a3bfbcd961cd1567f"
          ],
          "data": "0x000000000000000000000000000000000000000000000000000000000000006000000000000000000000000000000000000000000000000000000000000001200000000000000000000000006c26c61a97006888ea9e4fa36584c7df57cd9da300000000000000000000000000000000000000000000000000000000000000990100000000000000010000759d00000000000000000000000057558cb8d6005de0bae8a2789d5efaae52dba5a80000759ca1bb74f0d5770dfc905c508e6273fadc595ddc15326cc907889bdfffa50602c895d67b435a15b2ef5b37262583fef28cbee03fb601b40f60eda9411c1dce4c4e09d0eb2763c96e085fa74ba6cf0d49136f8654c48ec7dbc59279a9066c7dd40900000000000f42400000000000000000000000000000000000000000000000000000000000000000000000000000160003010011010000000000000000000000000000138800000000000000000000",
          "blockHash": "0x8cc6dfe9886e536b9b0075ae439c9e7d497c364b4df18b578a08e87a8d8392c6",
          "blockNumber": "0x465ff78",
          "transactionHash": "0x5c4c2a12c1fca3c9595da89f5020e3d11f40f91092e6386556d376111ffa8f5c",
          "transactionIndex": "0x27",
          "logIndex": "0x122",
          "removed": false
        },
        {
          "address": "0x0000000000000000000000000000000000001010",
          "topics": [
            "0xe6497e3ee548a3372136af2fcb0696db31fc6cf20260707645068bd3fe97f3c4",
            "0x0000000000000000000000000000000000000000000000000000000000001010",
            "0x0000000000000000000000001a44076050125825900e736c501f859c50fe728c",
            "0x0000000000000000000000006c26c61a97006888ea9e4fa36584c7df57cd9da3"
          ],
          "data": "0x0000000000000000000000000000000000000000000000001a24d6d99b312cc30000000000000000000000000000000000000000000000001a24d6d99b312cc3000000000000000000000000000000000000000000001781d8bb0b49e98a79800000000000000000000000000000000000000000000000000000000000000000000000000000000000000000000000000000000000001781f2dfe22384bba643",
          "blockHash": "0x8cc6dfe9886e536b9b0075ae439c9e7d497c364b4df18b578a08e87a8d8392c6",
          "blockNumber": "0x465ff78",
          "transactionHash": "0x5c4c2a12c1fca3c9595da89f5020e3d11f40f91092e6386556d376111ffa8f5c",
          "transactionIndex": "0x27",
          "logIndex": "0x123",
          "removed": false
        },
        {
          "address": "0x57558cb8d6005de0bae8a2789d5efaae52dba5a8",
          "topics": [
            "0x85496b760a4b7f8d66384b9df21b381f5d1b1e79f229a47aaf4c232edc2fe59a",
            "0x95d67b435a15b2ef5b37262583fef28cbee03fb601b40f60eda9411c1dce4c4e",
            "0x000000000000000000000000741f0d8bde14140f62107fc60a0ee122b37d4630"
          ],
          "data": "0x000000000000000000000000000000000000000000000000000000000000759c0000000000000000000000000000000000000000000000000de0b6b3a76400000000000000000000000000000000000000000000000000000de0b6b3a7640000",
          "blockHash": "0x8cc6dfe9886e536b9b0075ae439c9e7d497c364b4df18b578a08e87a8d8392c6",
          "blockNumber": "0x465ff78",
          "transactionHash": "0x5c4c2a12c1fca3c9595da89f5020e3d11f40f91092e6386556d376111ffa8f5c",
          "transactionIndex": "0x27",
          "logIndex": "0x124",
          "removed": false
        },
        {
          "address": "0x0000000000000000000000000000000000001010",
          "topics": [
            "0x4dfe1bbbcf077ddc3e01291eea2d5c70c2b422b415d95645b9adcfd678cb1d63",
            "0x0000000000000000000000000000000000000000000000000000000000001010",
            "0x00000000000000000000000045dce8e4f2dc005a5f28206a46cb034697eeda8e",
            "0x0000000000000000000000005fe93ddf4490a02257bef079f2498650c97c44de"
          ],
          "data": "0x00000000000000000000000000000000000000000000000000622568d80142c0000000000000000000000000000000000000000000000000540975c2d2f03bd000000000000000000000000000000000000000000000001a4bc7783109e8daf900000000000000000000000000000000000000000000000053a75059faeef91000000000000000000000000000000000000000000000001a4c299d99e1ea1db9",
          "blockHash": "0x8cc6dfe9886e536b9b0075ae439c9e7d497c364b4df18b578a08e87a8d8392c6",
          "blockNumber": "0x465ff78",
          "transactionHash": "0x5c4c2a12c1fca3c9595da89f5020e3d11f40f91092e6386556d376111ffa8f5c",
          "transactionIndex": "0x27",
          "logIndex": "0x125",
          "removed": false
        }
      ],
      "logsBloom": "0x0000000000000000000100820004004000000000000000000000000400100000000000400000000000000010000200040000850000000000800000000000000000018200000000000000000800000080000000000000000000010000001000008000000002000000800010000000080000000000001000008020001000000000000000000000000000000008000000000000000080000000000001000000000020000000a000001400100000004000000200000200400000000440000000004000000002000000000001000080000000801000000000805000188000000020000000040000000000000000000000802000000000018000000000000000100000",
      "type": "0x2",
      "transactionHash": "0x5c4c2a12c1fca3c9595da89f5020e3d11f40f91092e6386556d376111ffa8f5c",
      "transactionIndex": "0x27",
      "blockHash": "0x8cc6dfe9886e536b9b0075ae439c9e7d497c364b4df18b578a08e87a8d8392c6",
      "blockNumber": "0x465ff78",
      "gasUsed": "0xe0d18",
      "effectiveGasPrice": "0x6fc23ac36",
      "from": "0x45dce8e4f2dc005a5f28206a46cb034697eeda8e",
      "to": "0x741f0d8bde14140f62107fc60a0ee122b37d4630",
      "contractAddress": null
    }
  ],
  "libraries": [],
  "pending": [],
  "returns": {},
  "timestamp": 1752113990,
  "chain": 137,
  "commit": "4a90ad4"
}