{
  "transactions": [
    {
      "hash": "0x24042022024034030fdd3e43b7b41753836faf15aa0dc8f381f75437a9f38001",
      "transactionType": "CALL",
      "contractName": null,
      "contractAddress": "0x741f0d8bde14140f62107fc60a0ee122b37d4630",
      "function": "batchBridgeWithEthFeeFromWallet((uint32,bytes32,uint256,uint256,bytes,bytes,bytes)[],address[],address[])",
      "arguments": [
        "[(30168, 0x3c1b094729102e0c095ee2417e5940ee4f1eab4763f6113fe75281ab74c62398, 1000000000000000000, 0, 0x, 0x, 0x), (30108, 0x09d0eb2763c96e085fa74ba6cf0d49136f8654c48ec7dbc59279a9066c7dd409, 1000000000000000000, 0, 0x, 0x, 0x)]",
        "[0x57558Cb8d6005DE0BAe8a2789d5EfaaE52dba5a8, 0x57558Cb8d6005DE0BAe8a2789d5EfaaE52dba5a8]",
        "[0x741F0d8Bde14140f62107FC60A0EE122B37D4630, 0x741F0d8Bde14140f62107FC60A0EE122B37D4630]"
      ],
      "transaction": {
        "from": "0x45dce8e4f2dc005a5f28206a46cb034697eeda8e",
        "to": "0x741f0d8bde14140f62107fc60a0ee122b37d4630",
        "gas": "0xe73d5",
        "value": "0x450d17b3e0bf08",
        "input": "0xb70d42410000000000000000000000000000000000000000000000000000000000000060000000000000000000000000000000000000000000000000000000000000034000000000000000000000000000000000000000000000000000000000000003a000000000000000000000000000000000000000000000000000000000000000020000000000000000000000000000000000000000000000000000000000000040000000000000000000000000000000000000000000000000000000000000018000000000000000000000000000000000000000000000000000000000000075d83c1b094729102e0c095ee2417e5940ee4f1eab4763f6113fe75281ab74c623980000000000000000000000000000000000000000000000000de0b6b3a7640000000000000000000000000000000000000000000000000000000000000000000000000000000000000000000000000000000000000000000000000000000000e000000000000000000000000000000000000000000000000000000000000001000000000000000000000000000000000000000000000000000000000000000120000000000000000000000000000000000000000000000000000000000000000000000000000000000000000000000000000000000000000000000000000000000000000000000000000000000000000000000000000000000000000000000000000000000000000000000000000000000000000000000000000000000000759c09d0eb2763c96e085fa74ba6cf0d49136f8654c48ec7dbc59279a9066c7dd4090000000000000000000000000000000000000000000000000de0b6b3a7640000000000000000000000000000000000000000000000000000000000000000000000000000000000000000000000000000000000000000000000000000000000e000000000000000000000000000000000000000000000000000000000000001000000000000000000000000000000000000000000000000000000000000000120000000000000000000000000000000000000000000000000000000000000000000000000000000000000000000000000000000000000000000000000000000000000000000000000000000000000000000000000000000000000000000000000000000000000000000000000000000000000000000000000000000000000000200000000000000000000000057558cb8d6005de0bae8a2789d5efaae52dba5a800000000000000000000000057558cb8d6005de0bae8a2789d5efaae52dba5a80000000000000000000000000000000000000000000000000000000000000002000000000000000000000000741f0d8bde14140f62107fc60a0ee122b37d4630000000000000000000000000741f0d8bde14140f62107fc60a0ee122b37d4630",
        "nonce": "0x7f",
        "chainId": "0xc4"
      },
      "additionalContracts": [],
      "isFixedGasLimit": false
    }
  ],
  "receipts": [
    {
      "status": "0x1",
      "cumulativeGasUsed": "0xa769e",
      "logs": [
        {
          "address": "0x57558cb8d6005de0bae8a2789d5efaae52dba5a8",
          "topics": [
            "0xddf252ad1be2c89b69c2b068fc378daa952ba7f163c4a11628f55a4df523b3ef",
            "0x000000000000000000000000741f0d8bde14140f62107fc60a0ee122b37d4630",
            "0x0000000000000000000000000000000000000000000000000000000000000000"
          ],
          "data": "0x0000000000000000000000000000000000000000000000000de0b6b3a7640000",
          "blockHash": "0x0f6e9a7ca7682435eb72189749c01018eb427b648611d8c9c6a5767edc56edc5",
          "blockNumber": "0x1627ee3",
          "transactionHash": "0x24042022024034030fdd3e43b7b41753836faf15aa0dc8f381f75437a9f38001",
          "transactionIndex": "0x0",
          "logIndex": "0x0",
          "removed": false
        },
        {
          "address": "0xe1844c5d63a9543023008d332bd3d2e6f1fe1043",
          "topics": [
            "0x61ed099e74a97a1d7f8bb0952a88ca8b7b8ebd00c126ea04671f92a81213318a"
          ],
          "data": "0x000000000000000000000000cce466a522984415bc91338c232d98869193d46e00000000000000000000000000000000000000000000000000263121efde5875",
          "blockHash": "0x0f6e9a7ca7682435eb72189749c01018eb427b648611d8c9c6a5767edc56edc5",
          "blockNumber": "0x1627ee3",
          "transactionHash": "0x24042022024034030fdd3e43b7b41753836faf15aa0dc8f381f75437a9f38001",
          "transactionIndex": "0x0",
          "logIndex": "0x1",
          "removed": false
        },
        {
          "address": "0xe1844c5d63a9543023008d332bd3d2e6f1fe1043",
          "topics": [
            "0x07ea52d82345d6e838192107d8fd7123d9c2ec8e916cd0aad13fd2b60db24644"
          ],
          "data": "0x000000000000000000000000000000000000000000000000000000000000006000000000000000000000000000000000000000000000000000000000000000e0000000000000000000000000000000000000000000000000000000000000010000000000000000000000000000000000000000000000000000000000000000030000000000000000000000002ae36a544b904f2f2960f6fd1a6084b4b11ba3340000000000000000000000009c061c9a4782294eef65ef28cb88233a987f4bdd000000000000000000000000dd7b5e1db4aafd5c8ec3b764efb8ed265aa5445b00000000000000000000000000000000000000000000000000000000000000000000000000000000000000000000000000000000000000000000000000000003000000000000000000000000000000000000000000000000000139093cb293cc00000000000000000000000000000000000000000000000000012c68535a6f6800000000000000000000000000000000000000000000000000012c68535a6f68",
          "blockHash": "0x0f6e9a7ca7682435eb72189749c01018eb427b648611d8c9c6a5767edc56edc5",
          "blockNumber": "0x1627ee3",
          "transactionHash": "0x24042022024034030fdd3e43b7b41753836faf15aa0dc8f381f75437a9f38001",
          "transactionIndex": "0x0",
          "logIndex": "0x2",
          "removed": false
        },
        {
          "address": "0x1a44076050125825900e736c501f859c50fe728c",
          "topics": [
            "0x1ab700d4ced0c005b164c0f789fd09fcbb0156d4c2041b8a3bfbcd961cd1567f"
          ],
          "data": "0x00000000000000000000000000000000000000000000000000000000000000600000000000000000000000000000000000000000000000000000000000000120000000000000000000000000e1844c5d63a9543023008d332bd3d2e6f1fe104300000000000000000000000000000000000000000000000000000000000000990100000000000000010000764200000000000000000000000057558cb8d6005de0bae8a2789d5efaae52dba5a8000075d8006d6ff762f7fcb768c550bae67f7a6a3a94969e469b6e0689563ace4e3759ad2e9f5eee2500b676a621c6716e341e40ad6118cacf30082f45dcf8a790822c9c3c1b094729102e0c095ee2417e5940ee4f1eab4763f6113fe75281ab74c6239800000000000f424000000000000000000000000000000000000000000000000000000000000000000000000000002600030100210100000000000000000000000000030d40000000000000000000000000002625a00000000000000000000000000000000000000000000000000000",
          "blockHash": "0x0f6e9a7ca7682435eb72189749c01018eb427b648611d8c9c6a5767edc56edc5",
          "blockNumber": "0x1627ee3",
          "transactionHash": "0x24042022024034030fdd3e43b7b41753836faf15aa0dc8f381f75437a9f38001",
          "transactionIndex": "0x0",
          "logIndex": "0x3",
          "removed": false
        },
        {
          "address": "0x57558cb8d6005de0bae8a2789d5efaae52dba5a8",
          "topics": [
            "0x85496b760a4b7f8d66384b9df21b381f5d1b1e79f229a47aaf4c232edc2fe59a",
            "0x2e9f5eee2500b676a621c6716e341e40ad6118cacf30082f45dcf8a790822c9c",
            "0x000000000000000000000000741f0d8bde14140f62107fc60a0ee122b37d4630"
          ],
          "data": "0x00000000000000000000000000000000000000000000000000000000000075d80000000000000000000000000000000000000000000000000de0b6b3a76400000000000000000000000000000000000000000000000000000de0b6b3a7640000",
          "blockHash": "0x0f6e9a7ca7682435eb72189749c01018eb427b648611d8c9c6a5767edc56edc5",
          "blockNumber": "0x1627ee3",
          "transactionHash": "0x24042022024034030fdd3e43b7b41753836faf15aa0dc8f381f75437a9f38001",
          "transactionIndex": "0x0",
          "logIndex": "0x4",
          "removed": false
        },
        {
          "address": "0x57558cb8d6005de0bae8a2789d5efaae52dba5a8",
          "topics": [
            "0xddf252ad1be2c89b69c2b068fc378daa952ba7f163c4a11628f55a4df523b3ef",
            "0x000000000000000000000000741f0d8bde14140f62107fc60a0ee122b37d4630",
            "0x0000000000000000000000000000000000000000000000000000000000000000"
          ],
          "data": "0x0000000000000000000000000000000000000000000000000de0b6b3a7640000",
          "blockHash": "0x0f6e9a7ca7682435eb72189749c01018eb427b648611d8c9c6a5767edc56edc5",
          "blockNumber": "0x1627ee3",
          "transactionHash": "0x24042022024034030fdd3e43b7b41753836faf15aa0dc8f381f75437a9f38001",
          "transactionIndex": "0x0",
          "logIndex": "0x5",
          "removed": false
        },
        {
          "address": "0xe1844c5d63a9543023008d332bd3d2e6f1fe1043",
          "topics": [
            "0x61ed099e74a97a1d7f8bb0952a88ca8b7b8ebd00c126ea04671f92a81213318a"
          ],
          "data": "0x000000000000000000000000cce466a522984415bc91338c232d98869193d46e0000000000000000000000000000000000000000000000000003037979b4656f",
          "blockHash": "0x0f6e9a7ca7682435eb72189749c01018eb427b648611d8c9c6a5767edc56edc5",
          "blockNumber": "0x1627ee3",
          "transactionHash": "0x24042022024034030fdd3e43b7b41753836faf15aa0dc8f381f75437a9f38001",
          "transactionIndex": "0x0",
          "logIndex": "0x6",
          "removed": false
        },
        {
          "address": "0xe1844c5d63a9543023008d332bd3d2e6f1fe1043",
          "topics": [
            "0x07ea52d82345d6e838192107d8fd7123d9c2ec8e916cd0aad13fd2b60db24644"
          ],
          "data": "0x000000000000000000000000000000000000000000000000000000000000006000000000000000000000000000000000000000000000000000000000000000e0000000000000000000000000000000000000000000000000000000000000010000000000000000000000000000000000000000000000000000000000000000030000000000000000000000002ae36a544b904f2f2960f6fd1a6084b4b11ba3340000000000000000000000009c061c9a4782294eef65ef28cb88233a987f4bdd000000000000000000000000dd7b5e1db4aafd5c8ec3b764efb8ed265aa5445b0000000000000000000000000000000000000000000000000000000000000000000000000000000000000000000000000000000000000000000000000000000300000000000000000000000000000000000000000000000000091603c9279d060000000000000000000000000000000000000000000000000007984f4edf78c10000000000000000000000000000000000000000000000000007984f4edf78c1",
          "blockHash": "0x0f6e9a7ca7682435eb72189749c01018eb427b648611d8c9c6a5767edc56edc5",
          "blockNumber": "0x1627ee3",
          "transactionHash": "0x24042022024034030fdd3e43b7b41753836faf15aa0dc8f381f75437a9f38001",
          "transactionIndex": "0x0",
          "logIndex": "0x7",
          "removed": false
        },
        {
          "address": "0x1a44076050125825900e736c501f859c50fe728c",
          "topics": [
            "0x1ab700d4ced0c005b164c0f789fd09fcbb0156d4c2041b8a3bfbcd961cd1567f"
          ],
          "data": "0x00000000000000000000000000000000000000000000000000000000000000600000000000000000000000000000000000000000000000000000000000000120000000000000000000000000e1844c5d63a9543023008d332bd3d2e6f1fe104300000000000000000000000000000000000000000000000000000000000000990100000000000000010000764200000000000000000000000057558cb8d6005de0bae8a2789d5efaae52dba5a80000759ca1bb74f0d5770dfc905c508e6273fadc595ddc15326cc907889bdfffa50602c81bff73a9a71fef7e1e3d66c5adad008b4e0d28ab5f2d985131a7fcf7ccf36b8509d0eb2763c96e085fa74ba6cf0d49136f8654c48ec7dbc59279a9066c7dd40900000000000f42400000000000000000000000000000000000000000000000000000000000000000000000000000160003010011010000000000000000000000000000138800000000000000000000",
          "blockHash": "0x0f6e9a7ca7682435eb72189749c01018eb427b648611d8c9c6a5767edc56edc5",
          "blockNumber": "0x1627ee3",
          "transactionHash": "0x24042022024034030fdd3e43b7b41753836faf15aa0dc8f381f75437a9f38001",
          "transactionIndex": "0x0",
          "logIndex": "0x8",
          "removed": false
        },
        {
          "address": "0x57558cb8d6005de0bae8a2789d5efaae52dba5a8",
          "topics": [
            "0x85496b760a4b7f8d66384b9df21b381f5d1b1e79f229a47aaf4c232edc2fe59a",
            "0x1bff73a9a71fef7e1e3d66c5adad008b4e0d28ab5f2d985131a7fcf7ccf36b85",
            "0x000000000000000000000000741f0d8bde14140f62107fc60a0ee122b37d4630"
          ],
          "data": "0x000000000000000000000000000000000000000000000000000000000000759c0000000000000000000000000000000000000000000000000de0b6b3a76400000000000000000000000000000000000000000000000000000de0b6b3a7640000",
          "blockHash": "0x0f6e9a7ca7682435eb72189749c01018eb427b648611d8c9c6a5767edc56edc5",
          "blockNumber": "0x1627ee3",
          "transactionHash": "0x24042022024034030fdd3e43b7b41753836faf15aa0dc8f381f75437a9f38001",
          "transactionIndex": "0x0",
          "logIndex": "0x9",
          "removed": false
        }
      ],
      "logsBloom": "0x0000000000000000000000000004004002000000000000000000000000100000000000000800000000000000000000040000010000000000000000000000000000000200000000000000000800000000000000000000000000002000000000000000000002000000800000000000080000000000001000000000001000000000000000000000000000000008000000200000000000000000000000000000000000000000a000001000100000000000000004000000400000000440000000000000000002000000000000000080000000000020008000000000000000000020000800040000000002000000000000002000000000018000000000000000000000",
      "type": "0x0",
      "transactionHash": "0x24042022024034030fdd3e43b7b41753836faf15aa0dc8f381f75437a9f38001",
      "transactionIndex": "0x0",
      "blockHash": "0x0f6e9a7ca7682435eb72189749c01018eb427b648611d8c9c6a5767edc56edc5",
      "blockNumber": "0x1627ee3",
      "gasUsed": "0xa769e",
      "effectiveGasPrice": "0x3b9aca00",
      "from": "0x45dce8e4f2dc005a5f28206a46cb034697eeda8e",
      "to": "0x741f0d8bde14140f62107fc60a0ee122b37d4630",
      "contractAddress": null
    }
  ],
  "libraries": [],
  "pending": [],
  "returns": {},
  "timestamp": 1752113205,
  "chain": 196,
  "commit": "4a90ad4"
}