{
  "transactions": [
    {
      "hash": "0x71288508c6f5f72f8c5e7b5a6ae992be0f4599695c9fecd9d54f341a32758410",
      "transactionType": "CALL",
      "contractName": null,
      "contractAddress": "0x741f0d8bde14140f62107fc60a0ee122b37d4630",
      "function": "batchBridgeWithEthFeeFromWallet((uint32,bytes32,uint256,uint256,bytes,bytes,bytes)[],address[],address[])",
      "arguments": [
        "[(30320, 0x000000000000000000000000741f0d8bde14140f62107fc60a0ee122b37d4630, 5000000000000000000, 0, 0x, 0x, 0x)]",
        "[0x57558Cb8d6005DE0BAe8a2789d5EfaaE52dba5a8]",
        "[0x741F0d8Bde14140f62107FC60A0EE122B37D4630]"
      ],
      "transaction": {
        "from": "0x45dce8e4f2dc005a5f28206a46cb034697eeda8e",
        "to": "0x741f0d8bde14140f62107fc60a0ee122b37d4630",
        "gas": "0x95056",
        "value": "0x1db990f564fd",
        "input": "0xb70d4241000000000000000000000000000000000000000000000000000000000000006000000000000000000000000000000000000000000000000000000000000001e00000000000000000000000000000000000000000000000000000000000000220000000000000000000000000000000000000000000000000000000000000000100000000000000000000000000000000000000000000000000000000000000200000000000000000000000000000000000000000000000000000000000007670000000000000000000000000741f0d8bde14140f62107fc60a0ee122b37d46300000000000000000000000000000000000000000000000004563918244f40000000000000000000000000000000000000000000000000000000000000000000000000000000000000000000000000000000000000000000000000000000000e000000000000000000000000000000000000000000000000000000000000001000000000000000000000000000000000000000000000000000000000000000120000000000000000000000000000000000000000000000000000000000000000000000000000000000000000000000000000000000000000000000000000000000000000000000000000000000000000000000000000000000000000000000000000000000000000000000000000000000000000000000000000000000000000100000000000000000000000057558cb8d6005de0bae8a2789d5efaae52dba5a80000000000000000000000000000000000000000000000000000000000000001000000000000000000000000741f0d8bde14140f62107fc60a0ee122b37d4630",
        "nonce": "0x70",
        "chainId": "0x38"
      },
      "additionalContracts": [],
      "isFixedGasLimit": false
    }
  ],
  "receipts": [
    {
      "status": "0x1",
      "cumulativeGasUsed": "0x30dc923",
      "logs": [
        {
          "address": "0x57558cb8d6005de0bae8a2789d5efaae52dba5a8",
          "topics": [
            "0xddf252ad1be2c89b69c2b068fc378daa952ba7f163c4a11628f55a4df523b3ef",
            "0x000000000000000000000000741f0d8bde14140f62107fc60a0ee122b37d4630",
            "0x0000000000000000000000000000000000000000000000000000000000000000"
          ],
          "data": "0x0000000000000000000000000000000000000000000000004563918244f40000",
          "blockHash": "0x043464545033fc1f893302c603f38f72143531542eb2662cc06956b059eb6c0a",
          "blockNumber": "0x315da82",
          "transactionHash": "0x71288508c6f5f72f8c5e7b5a6ae992be0f4599695c9fecd9d54f341a32758410",
          "transactionIndex": "0x11f",
          "logIndex": "0x81a",
          "removed": false
        },
        {
          "address": "0x9f8c645f2d0b2159767bd6e0839de4be49e823de",
          "topics": [
            "0x61ed099e74a97a1d7f8bb0952a88ca8b7b8ebd00c126ea04671f92a81213318a"
          ],
          "data": "0x0000000000000000000000003ebd570ed38b1b3b4bc886999fcf507e9d58485900000000000000000000000000000000000000000000000000001c97564b579b",
          "blockHash": "0x043464545033fc1f893302c603f38f72143531542eb2662cc06956b059eb6c0a",
          "blockNumber": "0x315da82",
          "transactionHash": "0x71288508c6f5f72f8c5e7b5a6ae992be0f4599695c9fecd9d54f341a32758410",
          "transactionIndex": "0x11f",
          "logIndex": "0x81b",
          "removed": false
        },
        {
          "address": "0x9f8c645f2d0b2159767bd6e0839de4be49e823de",
          "topics": [
            "0x07ea52d82345d6e838192107d8fd7123d9c2ec8e916cd0aad13fd2b60db24644"
          ],
          "data": "0x000000000000000000000000000000000000000000000000000000000000006000000000000000000000000000000000000000000000000000000000000000e000000000000000000000000000000000000000000000000000000000000001000000000000000000000000000000000000000000000000000000000000000003000000000000000000000000247624e2143504730aec22912ed41f092498bef2000000000000000000000000d4bf35ce3bfc7f7d7dfc0694a7d4aa8b8c60a38c000000000000000000000000fd6865c841c2d64565562fcc7e05e619a30615f0000000000000000000000000000000000000000000000000000000000000000000000000000000000000000000000000000000000000000000000000000000030000000000000000000000000000000000000000000000000000005f67f9c127000000000000000000000000000000000000000000000000000000636ab68b140000000000000000000000000000000000000000000000000000005f67f9c127",
          "blockHash": "0x043464545033fc1f893302c603f38f72143531542eb2662cc06956b059eb6c0a",
          "blockNumber": "0x315da82",
          "transactionHash": "0x71288508c6f5f72f8c5e7b5a6ae992be0f4599695c9fecd9d54f341a32758410",
          "transactionIndex": "0x11f",
          "logIndex": "0x81c",
          "removed": false
        },
        {
          "address": "0x1a44076050125825900e736c501f859c50fe728c",
          "topics": [
            "0x1ab700d4ced0c005b164c0f789fd09fcbb0156d4c2041b8a3bfbcd961cd1567f"
          ],
          "data": "0x000000000000000000000000000000000000000000000000000000000000006000000000000000000000000000000000000000000000000000000000000001200000000000000000000000009f8c645f2d0b2159767bd6e0839de4be49e823de00000000000000000000000000000000000000000000000000000000000000990100000000000000010000759600000000000000000000000057558cb8d6005de0bae8a2789d5efaae52dba5a80000767000000000000000000000000057558cb8d6005de0bae8a2789d5efaae52dba5a85fe9b839f0cd5bb10c8c2e3f5f2e4bf3b05536ddb59db7a05ec35b8757033e1f000000000000000000000000741f0d8bde14140f62107fc60a0ee122b37d463000000000004c4b4000000000000000000000000000000000000000000000000000000000000000000000000000001600030100110100000000000000000000000000030d4000000000000000000000",
          "blockHash": "0x043464545033fc1f893302c603f38f72143531542eb2662cc06956b059eb6c0a",
          "blockNumber": "0x315da82",
          "transactionHash": "0x71288508c6f5f72f8c5e7b5a6ae992be0f4599695c9fecd9d54f341a32758410",
          "transactionIndex": "0x11f",
          "logIndex": "0x81d",
          "removed": false
        },
        {
          "address": "0x57558cb8d6005de0bae8a2789d5efaae52dba5a8",
          "topics": [
            "0x85496b760a4b7f8d66384b9df21b381f5d1b1e79f229a47aaf4c232edc2fe59a",
            "0x5fe9b839f0cd5bb10c8c2e3f5f2e4bf3b05536ddb59db7a05ec35b8757033e1f",
            "0x000000000000000000000000741f0d8bde14140f62107fc60a0ee122b37d4630"
          ],
          "data": "0x00000000000000000000000000000000000000000000000000000000000076700000000000000000000000000000000000000000000000004563918244f400000000000000000000000000000000000000000000000000004563918244f40000",
          "blockHash": "0x043464545033fc1f893302c603f38f72143531542eb2662cc06956b059eb6c0a",
          "blockNumber": "0x315da82",
          "transactionHash": "0x71288508c6f5f72f8c5e7b5a6ae992be0f4599695c9fecd9d54f341a32758410",
          "transactionIndex": "0x11f",
          "logIndex": "0x81e",
          "removed": false
        }
      ],
      "logsBloom": "0x0000000000000000000000000004004020000010000000000000000000100000000000000000000000000000000000040000010000000000000000000000000000000200000000000000000800000000000000000000000000000000000000000000000002000000800000000000080000000000001000000000001000000100000000000000000000000008000000000000000000000000000000000000000000000000a000001000100000000000000000000000400000000444000000000000000002000000000000000080000000000000000000000000000000000020000000040040000000000000000000002000000000018000000000000000000000",
      "type": "0x0",
      "transactionHash": "0x71288508c6f5f72f8c5e7b5a6ae992be0f4599695c9fecd9d54f341a32758410",
      "transactionIndex": "0x11f",
      "blockHash": "0x043464545033fc1f893302c603f38f72143531542eb2662cc06956b059eb6c0a",
      "blockNumber": "0x315da82",
      "gasUsed": "0x65e51",
      "effectiveGasPrice": "0x5f5e100",
      "from": "0x45dce8e4f2dc005a5f28206a46cb034697eeda8e",
      "to": "0x741f0d8bde14140f62107fc60a0ee122b37d4630",
      "contractAddress": null
    }
  ],
  "libraries": [],
  "pending": [],
  "returns": {},
  "timestamp": 1750389932,
  "chain": 56,
  "commit": "2171fc2"
}