{
  "transactions": [
    {
      "hash": "0x061e504843396e7813ef5a2d33ea76d9c559d791af910cc9ed27b57a485ea287",
      "transactionType": "CALL",
      "contractName": null,
      "contractAddress": "0x741f0d8bde14140f62107fc60a0ee122b37d4630",
      "function": "batchBridgeWithEthFeeFromWallet((uint32,bytes32,uint256,uint256,bytes,bytes,bytes)[],address[],address[])",
      "arguments": [
        "[(30211, 0x0000000000000000000000004a767e2ef83577225522ef8ed71056c6e3acb216, 1000000000000000000, 0, 0x, 0x, 0x), (30214, 0x000000000000000000000000741f0d8bde14140f62107fc60a0ee122b37d4630, 1000000000000000000, 0, 0x, 0x, 0x)]",
        "[0x57558Cb8d6005DE0BAe8a2789d5EfaaE52dba5a8, 0x57558Cb8d6005DE0BAe8a2789d5EfaaE52dba5a8]",
        "[0x741F0d8Bde14140f62107FC60A0EE122B37D4630, 0x741F0d8Bde14140f62107FC60A0EE122B37D4630]"
      ],
      "transaction": {
        "from": "0x45dce8e4f2dc005a5f28206a46cb034697eeda8e",
        "to": "0x741f0d8bde14140f62107fc60a0ee122b37d4630",
        "gas": "0xe18cf",
        "value": "0x2d23161ac2679",
        "input": "0xb70d42410000000000000000000000000000000000000000000000000000000000000060000000000000000000000000000000000000000000000000000000000000034000000000000000000000000000000000000000000000000000000000000003a000000000000000000000000000000000000000000000000000000000000000020000000000000000000000000000000000000000000000000000000000000040000000000000000000000000000000000000000000000000000000000000018000000000000000000000000000000000000000000000000000000000000076030000000000000000000000004a767e2ef83577225522ef8ed71056c6e3acb2160000000000000000000000000000000000000000000000000de0b6b3a7640000000000000000000000000000000000000000000000000000000000000000000000000000000000000000000000000000000000000000000000000000000000e0000000000000000000000000000000000000000000000000000000000000010000000000000000000000000000000000000000000000000000000000000001200000000000000000000000000000000000000000000000000000000000000000000000000000000000000000000000000000000000000000000000000000000000000000000000000000000000000000000000000000000000000000000000000000000000000000000000000000000000000000000000000000000000007606000000000000000000000000741f0d8bde14140f62107fc60a0ee122b37d46300000000000000000000000000000000000000000000000000de0b6b3a7640000000000000000000000000000000000000000000000000000000000000000000000000000000000000000000000000000000000000000000000000000000000e000000000000000000000000000000000000000000000000000000000000001000000000000000000000000000000000000000000000000000000000000000120000000000000000000000000000000000000000000000000000000000000000000000000000000000000000000000000000000000000000000000000000000000000000000000000000000000000000000000000000000000000000000000000000000000000000000000000000000000000000000000000000000000000000200000000000000000000000057558cb8d6005de0bae8a2789d5efaae52dba5a800000000000000000000000057558cb8d6005de0bae8a2789d5efaae52dba5a80000000000000000000000000000000000000000000000000000000000000002000000000000000000000000741f0d8bde14140f62107fc60a0ee122b37d4630000000000000000000000000741f0d8bde14140f62107fc60a0ee122b37d4630",
        "nonce": "0xa7",
        "chainId": "0x38"
      },
      "additionalContracts": [],
      "isFixedGasLimit": false
    }
  ],
  "receipts": [
    {
      "status": "0x1",
      "cumulativeGasUsed": "0xafa275",
      "logs": [
        {
          "address": "0x57558cb8d6005de0bae8a2789d5efaae52dba5a8",
          "topics": [
            "0xddf252ad1be2c89b69c2b068fc378daa952ba7f163c4a11628f55a4df523b3ef",
            "0x000000000000000000000000741f0d8bde14140f62107fc60a0ee122b37d4630",
            "0x0000000000000000000000000000000000000000000000000000000000000000"
          ],
          "data": "0x0000000000000000000000000000000000000000000000000de0b6b3a7640000",
          "blockHash": "0xa7700e819af379f468d437325feaff9d84aeed934969e76beeb97e62c5154db1",
          "blockNumber": "0x3912b26",
          "transactionHash": "0x061e504843396e7813ef5a2d33ea76d9c559d791af910cc9ed27b57a485ea287",
          "transactionIndex": "0x53",
          "logIndex": "0x147",
          "removed": false
        },
        {
          "address": "0x9f8c645f2d0b2159767bd6e0839de4be49e823de",
          "topics": [
            "0x61ed099e74a97a1d7f8bb0952a88ca8b7b8ebd00c126ea04671f92a81213318a"
          ],
          "data": "0x0000000000000000000000003ebd570ed38b1b3b4bc886999fcf507e9d5848590000000000000000000000000000000000000000000000000000cba6e2a0c0f0",
          "blockHash": "0xa7700e819af379f468d437325feaff9d84aeed934969e76beeb97e62c5154db1",
          "blockNumber": "0x3912b26",
          "transactionHash": "0x061e504843396e7813ef5a2d33ea76d9c559d791af910cc9ed27b57a485ea287",
          "transactionIndex": "0x53",
          "logIndex": "0x148",
          "removed": false
        },
        {
          "address": "0x9f8c645f2d0b2159767bd6e0839de4be49e823de",
          "topics": [
            "0x07ea52d82345d6e838192107d8fd7123d9c2ec8e916cd0aad13fd2b60db24644"
          ],
          "data": "0x000000000000000000000000000000000000000000000000000000000000006000000000000000000000000000000000000000000000000000000000000000e000000000000000000000000000000000000000000000000000000000000001000000000000000000000000000000000000000000000000000000000000000003000000000000000000000000247624e2143504730aec22912ed41f092498bef2000000000000000000000000d4bf35ce3bfc7f7d7dfc0694a7d4aa8b8c60a38c000000000000000000000000fd6865c841c2d64565562fcc7e05e619a30615f0000000000000000000000000000000000000000000000000000000000000000000000000000000000000000000000000000000000000000000000000000000030000000000000000000000000000000000000000000000000000210c82f730e0000000000000000000000000000000000000000000000000000022702ce670110000000000000000000000000000000000000000000000000000210c82f730e0",
          "blockHash": "0xa7700e819af379f468d437325feaff9d84aeed934969e76beeb97e62c5154db1",
          "blockNumber": "0x3912b26",
          "transactionHash": "0x061e504843396e7813ef5a2d33ea76d9c559d791af910cc9ed27b57a485ea287",
          "transactionIndex": "0x53",
          "logIndex": "0x149",
          "removed": false
        },
        {
          "address": "0x1a44076050125825900e736c501f859c50fe728c",
          "topics": [
            "0x1ab700d4ced0c005b164c0f789fd09fcbb0156d4c2041b8a3bfbcd961cd1567f"
          ],
          "data": "0x000000000000000000000000000000000000000000000000000000000000006000000000000000000000000000000000000000000000000000000000000001200000000000000000000000009f8c645f2d0b2159767bd6e0839de4be49e823de00000000000000000000000000000000000000000000000000000000000000990100000000000000010000759600000000000000000000000057558cb8d6005de0bae8a2789d5efaae52dba5a800007603000000000000000000000000a057d8d4fc86a62801ce363c169b0a8d192f6cee71d2f42aee98b3f248fafb88830a373ad8d3f9fcccaeebd86f3ba784e6063f600000000000000000000000004a767e2ef83577225522ef8ed71056c6e3acb21600000000000f424000000000000000000000000000000000000000000000000000000000000000000000000000001600030100110100000000000000000000000000030d4000000000000000000000",
          "blockHash": "0xa7700e819af379f468d437325feaff9d84aeed934969e76beeb97e62c5154db1",
          "blockNumber": "0x3912b26",
          "transactionHash": "0x061e504843396e7813ef5a2d33ea76d9c559d791af910cc9ed27b57a485ea287",
          "transactionIndex": "0x53",
          "logIndex": "0x14a",
          "removed": false
        },
        {
          "address": "0x57558cb8d6005de0bae8a2789d5efaae52dba5a8",
          "topics": [
            "0x85496b760a4b7f8d66384b9df21b381f5d1b1e79f229a47aaf4c232edc2fe59a",
            "0x71d2f42aee98b3f248fafb88830a373ad8d3f9fcccaeebd86f3ba784e6063f60",
            "0x000000000000000000000000741f0d8bde14140f62107fc60a0ee122b37d4630"
          ],
          "data": "0x00000000000000000000000000000000000000000000000000000000000076030000000000000000000000000000000000000000000000000de0b6b3a76400000000000000000000000000000000000000000000000000000de0b6b3a7640000",
          "blockHash": "0xa7700e819af379f468d437325feaff9d84aeed934969e76beeb97e62c5154db1",
          "blockNumber": "0x3912b26",
          "transactionHash": "0x061e504843396e7813ef5a2d33ea76d9c559d791af910cc9ed27b57a485ea287",
          "transactionIndex": "0x53",
          "logIndex": "0x14b",
          "removed": false
        },
        {
          "address": "0x57558cb8d6005de0bae8a2789d5efaae52dba5a8",
          "topics": [
            "0xddf252ad1be2c89b69c2b068fc378daa952ba7f163c4a11628f55a4df523b3ef",
            "0x000000000000000000000000741f0d8bde14140f62107fc60a0ee122b37d4630",
            "0x0000000000000000000000000000000000000000000000000000000000000000"
          ],
          "data": "0x0000000000000000000000000000000000000000000000000de0b6b3a7640000",
          "blockHash": "0xa7700e819af379f468d437325feaff9d84aeed934969e76beeb97e62c5154db1",
          "blockNumber": "0x3912b26",
          "transactionHash": "0x061e504843396e7813ef5a2d33ea76d9c559d791af910cc9ed27b57a485ea287",
          "transactionIndex": "0x53",
          "logIndex": "0x14c",
          "removed": false
        },
        {
          "address": "0x9f8c645f2d0b2159767bd6e0839de4be49e823de",
          "topics": [
            "0x61ed099e74a97a1d7f8bb0952a88ca8b7b8ebd00c126ea04671f92a81213318a"
          ],
          "data": "0x0000000000000000000000003ebd570ed38b1b3b4bc886999fcf507e9d5848590000000000000000000000000000000000000000000000000001a1d53bc7ed13",
          "blockHash": "0xa7700e819af379f468d437325feaff9d84aeed934969e76beeb97e62c5154db1",
          "blockNumber": "0x3912b26",
          "transactionHash": "0x061e504843396e7813ef5a2d33ea76d9c559d791af910cc9ed27b57a485ea287",
          "transactionIndex": "0x53",
          "logIndex": "0x14d",
          "removed": false
        },
        {
          "address": "0x9f8c645f2d0b2159767bd6e0839de4be49e823de",
          "topics": [
            "0x07ea52d82345d6e838192107d8fd7123d9c2ec8e916cd0aad13fd2b60db24644"
          ],
          "data": "0x000000000000000000000000000000000000000000000000000000000000006000000000000000000000000000000000000000000000000000000000000000e000000000000000000000000000000000000000000000000000000000000001000000000000000000000000000000000000000000000000000000000000000003000000000000000000000000247624e2143504730aec22912ed41f092498bef2000000000000000000000000d4bf35ce3bfc7f7d7dfc0694a7d4aa8b8c60a38c000000000000000000000000fd6865c841c2d64565562fcc7e05e619a30615f0000000000000000000000000000000000000000000000000000000000000000000000000000000000000000000000000000000000000000000000000000000030000000000000000000000000000000000000000000000000000000e7c2eb3e50000000000000000000000000000000000000000000000000000000f18113edb0000000000000000000000000000000000000000000000000000000e7c2eb3e5",
          "blockHash": "0xa7700e819af379f468d437325feaff9d84aeed934969e76beeb97e62c5154db1",
          "blockNumber": "0x3912b26",
          "transactionHash": "0x061e504843396e7813ef5a2d33ea76d9c559d791af910cc9ed27b57a485ea287",
          "transactionIndex": "0x53",
          "logIndex": "0x14e",
          "removed": false
        },
        {
          "address": "0x1a44076050125825900e736c501f859c50fe728c",
          "topics": [
            "0x1ab700d4ced0c005b164c0f789fd09fcbb0156d4c2041b8a3bfbcd961cd1567f"
          ],
          "data": "0x000000000000000000000000000000000000000000000000000000000000006000000000000000000000000000000000000000000000000000000000000001200000000000000000000000009f8c645f2d0b2159767bd6e0839de4be49e823de00000000000000000000000000000000000000000000000000000000000000990100000000000000010000759600000000000000000000000057558cb8d6005de0bae8a2789d5efaae52dba5a80000760600000000000000000000000057558cb8d6005de0bae8a2789d5efaae52dba5a8166426e199041ad2d3122869f2aec924185ef3646ac6b516db79241caded5b61000000000000000000000000741f0d8bde14140f62107fc60a0ee122b37d463000000000000f424000000000000000000000000000000000000000000000000000000000000000000000000000001600030100110100000000000000000000000000030d4000000000000000000000",
          "blockHash": "0xa7700e819af379f468d437325feaff9d84aeed934969e76beeb97e62c5154db1",
          "blockNumber": "0x3912b26",
          "transactionHash": "0x061e504843396e7813ef5a2d33ea76d9c559d791af910cc9ed27b57a485ea287",
          "transactionIndex": "0x53",
          "logIndex": "0x14f",
          "removed": false
        },
        {
          "address": "0x57558cb8d6005de0bae8a2789d5efaae52dba5a8",
          "topics": [
            "0x85496b760a4b7f8d66384b9df21b381f5d1b1e79f229a47aaf4c232edc2fe59a",
            "0x166426e199041ad2d3122869f2aec924185ef3646ac6b516db79241caded5b61",
            "0x000000000000000000000000741f0d8bde14140f62107fc60a0ee122b37d4630"
          ],
          "data": "0x00000000000000000000000000000000000000000000000000000000000076060000000000000000000000000000000000000000000000000de0b6b3a76400000000000000000000000000000000000000000000000000000de0b6b3a7640000",
          "blockHash": "0xa7700e819af379f468d437325feaff9d84aeed934969e76beeb97e62c5154db1",
          "blockNumber": "0x3912b26",
          "transactionHash": "0x061e504843396e7813ef5a2d33ea76d9c559d791af910cc9ed27b57a485ea287",
          "transactionIndex": "0x53",
          "logIndex": "0x150",
          "removed": false
        }
      ],
      "logsBloom": "0x0000000000000000000000000004004000000000000000000000000000100000000000000004000000000000000000040000010000000000000000000000000000000200000000000000000800000000000000000000000000000000000000000000000002000000800000000000082000000000001200000000001000000100000004000000000000000008000000000204000000000000000000000000000000000000a000001000100000000000000000000000400000000444000000000000000002000000000000000080000000000000000000000000000000000020000000040000000000000000000000002000000000018000000000000000000000",
      "type": "0x2",
      "transactionHash": "0x061e504843396e7813ef5a2d33ea76d9c559d791af910cc9ed27b57a485ea287",
      "transactionIndex": "0x53",
      "blockHash": "0xa7700e819af379f468d437325feaff9d84aeed934969e76beeb97e62c5154db1",
      "blockNumber": "0x3912b26",
      "gasUsed": "0xa34b7",
      "effectiveGasPrice": "0x5f5e100",
      "from": "0x45dce8e4f2dc005a5f28206a46cb034697eeda8e",
      "to": "0x741f0d8bde14140f62107fc60a0ee122b37d4630",
      "contractAddress": null
    }
  ],
  "libraries": [],
  "pending": [],
  "returns": {},
  "timestamp": 1756882544799,
  "chain": 56,
  "commit": "487ed68"
}