{
  "transactions": [
    {
      "hash": "0xf74c63a9e90c5e3a61d3cee0f7ee633235e96e52b87bcd8e68dfbea51edd371a",
      "transactionType": "CALL",
      "contractName": null,
      "contractAddress": "0xa057d8d4fc86a62801ce363c169b0a8d192f6cee",
      "function": "setEnforcedOptions((uint32,uint16,bytes)[])",
      "arguments": [
        "[(30260, 1, 0x00030100110100000000000000000000000000030d40), (30260, 2, 0x0003010011010000000000000000000000000003d090), (30280, 1, 0x00030100110100000000000000000000000000030d40), (30280, 2, 0x0003010011010000000000000000000000000003d090), (30255, 1, 0x00030100110100000000000000000000000000030d40), (30255, 2, 0x0003010011010000000000000000000000000003d090), (30274, 1, 0x00030100110100000000000000000000000000030d40), (30274, 2, 0x0003010011010000000000000000000000000003d090), (30332, 1, 0x00030100110100000000000000000000000000030d40), (30332, 2, 0x0003010011010000000000000000000000000003d090), (30339, 1, 0x00030100110100000000000000000000000000030d40), (30339, 2, 0x0003010011010000000000000000000000000003d090), (30110, 1, 0x00030100110100000000000000000000000000030d40), (30110, 2, 0x0003010011010000000000000000000000000003d090), (30111, 1, 0x00030100110100000000000000000000000000030d40), (30111, 2, 0x0003010011010000000000000000000000000003d090), (30109, 1, 0x00030100110100000000000000000000000000030d40), (30109, 2, 0x0003010011010000000000000000000000000003d090), (30106, 1, 0x00030100110100000000000000000000000000030d40), (30106, 2, 0x0003010011010000000000000000000000000003d090), (30102, 1, 0x00030100110100000000000000000000000000030d40), (30102, 2, 0x0003010011010000000000000000000000000003d090), (30158, 1, 0x00030100110100000000000000000000000000030d40), (30158, 2, 0x0003010011010000000000000000000000000003d090), (30101, 1, 0x00030100110100000000000000000000000000030d40), (30101, 2, 0x0003010011010000000000000000000000000003d090), (30243, 1, 0x00030100110100000000000000000000000000030d40), (30243, 2, 0x0003010011010000000000000000000000000003d090), (30184, 1, 0x00030100110100000000000000000000000000030d40), (30184, 2, 0x0003010011010000000000000000000000000003d090), (30362, 1, 0x00030100110100000000000000000000000000030d40), (30362, 2, 0x0003010011010000000000000000000000000003d090), (30183, 1, 0x00030100110100000000000000000000000000030d40), (30183, 2, 0x0003010011010000000000000000000000000003d090), (30319, 1, 0x00030100110100000000000000000000000000030d40), (30319, 2, 0x0003010011010000000000000000000000000003d090), (30320, 1, 0x00030100110100000000000000000000000000030d40), (30320, 2, 0x0003010011010000000000000000000000000003d090), (30370, 1, 0x00030100110100000000000000000000000000030d40), (30370, 2, 0x0003010011010000000000000000000000000003d090), (30376, 1, 0x00030100110100000000000000000000000000030d40), (30376, 2, 0x0003010011010000000000000000000000000003d090), (30375, 1, 0x00030100110100000000000000000000000000030d40), (30375, 2, 0x0003010011010000000000000000000000000003d090), (30214, 1, 0x00030100110100000000000000000000000000030d40), (30214, 2, 0x0003010011010000000000000000000000000003d090), (30324, 1, 0x00030100110100000000000000000000000000030d40), (30324, 2, 0x0003010011010000000000000000000000000003d090), (30165, 1, 0x00030100110100000000000000000000000000030d40), (30165, 2, 0x0003010011010000000000000000000000000003d090)]"
      ],
      "transaction": {
        "from": "0x45dce8e4f2dc005a5f28206a46cb034697eeda8e",
        "to": "0xa057d8d4fc86a62801ce363c169b0a8d192f6cee",
        "gas": "0x1da889",
        "value": "0x0",
        "input": "0xb98bd07000000000000000000000000000000000000000000000000000000000000000200000000000000000000000000000000000000000000000000000000000000032000000000000000000000000000000000000000000000000000000000000064000000000000000000000000000000000000000000000000000000000000006e00000000000000000000000000000000000000000000000000000000000000780000000000000000000000000000000000000000000000000000000000000082000000000000000000000000000000000000000000000000000000000000008c000000000000000000000000000000000000000000000000000000000000009600000000000000000000000000000000000000000000000000000000000000a000000000000000000000000000000000000000000000000000000000000000aa00000000000000000000000000000000000000000000000000000000000000b400000000000000000000000000000000000000000000000000000000000000be00000000000000000000000000000000000000000000000000000000000000c800000000000000000000000000000000000000000000000000000000000000d200000000000000000000000000000000000000000000000000000000000000dc00000000000000000000000000000000000000000000000000000000000000e600000000000000000000000000000000000000000000000000000000000000f000000000000000000000000000000000000000000000000000000000000000fa0000000000000000000000000000000000000000000000000000000000000104000000000000000000000000000000000000000000000000000000000000010e00000000000000000000000000000000000000000000000000000000000001180000000000000000000000000000000000000000000000000000000000000122000000000000000000000000000000000000000000000000000000000000012c00000000000000000000000000000000000000000000000000000000000001360000000000000000000000000000000000000000000000000000000000000140000000000000000000000000000000000000000000000000000000000000014a0000000000000000000000000000000000000000000000000000000000000154000000000000000000000000000000000000000000000000000000000000015e00000000000000000000000000000000000000000000000000000000000001680000000000000000000000000000000000000000000000000000000000000172000000000000000000000000000000000000000000000000000000000000017c00000000000000000000000000000000000000000000000000000000000001860000000000000000000000000000000000000000000000000000000000000190000000000000000000000000000000000000000000000000000000000000019a00000000000000000000000000000000000000000000000000000000000001a400000000000000000000000000000000000000000000000000000000000001ae00000000000000000000000000000000000000000000000000000000000001b800000000000000000000000000000000000000000000000000000000000001c200000000000000000000000000000000000000000000000000000000000001cc00000000000000000000000000000000000000000000000000000000000001d600000000000000000000000000000000000000000000000000000000000001e000000000000000000000000000000000000000000000000000000000000001ea00000000000000000000000000000000000000000000000000000000000001f400000000000000000000000000000000000000000000000000000000000001fe00000000000000000000000000000000000000000000000000000000000002080000000000000000000000000000000000000000000000000000000000000212000000000000000000000000000000000000000000000000000000000000021c00000000000000000000000000000000000000000000000000000000000002260000000000000000000000000000000000000000000000000000000000000230000000000000000000000000000000000000000000000000000000000000023a0000000000000000000000000000000000000000000000000000000000000244000000000000000000000000000000000000000000000000000000000000024e0000000000000000000000000000000000000000000000000000000000000763400000000000000000000000000000000000000000000000000000000000000010000000000000000000000000000000000000000000000000000000000000060000000000000000000000000000000000000000000000000000000000000001600030100110100000000000000000000000000030d400000000000000000000000000000000000000000000000000000000000000000000000000000000076340000000000000000000000000000000000000000000000000000000000000002000000000000000000000000000000000000000000000000000000000000006000000000000000000000000000000000000000000000000000000000000000160003010011010000000000000000000000000003d09000000000000000000000000000000000000000000000000000000000000000000000000000000000764800000000000000000000000000000000000000000000000000000000000000010000000000000000000000000000000000000000000000000000000000000060000000000000000000000000000000000000000000000000000000000000001600030100110100000000000000000000000000030d400000000000000000000000000000000000000000000000000000000000000000000000000000000076480000000000000000000000000000000000000000000000000000000000000002000000000000000000000000000000000000000000000000000000000000006000000000000000000000000000000000000000000000000000000000000000160003010011010000000000000000000000000003d09000000000000000000000000000000000000000000000000000000000000000000000000000000000762f00000000000000000000000000000000000000000000000000000000000000010000000000000000000000000000000000000000000000000000000000000060000000000000000000000000000000000000000000000000000000000000001600030100110100000000000000000000000000030d4000000000000000000000000000000000000000000000000000000000000000000000000000000000762f0000000000000000000000000000000000000000000000000000000000000002000000000000000000000000000000000000000000000000000000000000006000000000000000000000000000000000000000000000000000000000000000160003010011010000000000000000000000000003d09000000000000000000000000000000000000000000000000000000000000000000000000000000000764200000000000000000000000000000000000000000000000000000000000000010000000000000000000000000000000000000000000000000000000000000060000000000000000000000000000000000000000000000000000000000000001600030100110100000000000000000000000000030d400000000000000000000000000000000000000000000000000000000000000000000000000000000076420000000000000000000000000000000000000000000000000000000000000002000000000000000000000000000000000000000000000000000000000000006000000000000000000000000000000000000000000000000000000000000000160003010011010000000000000000000000000003d09000000000000000000000000000000000000000000000000000000000000000000000000000000000767c00000000000000000000000000000000000000000000000000000000000000010000000000000000000000000000000000000000000000000000000000000060000000000000000000000000000000000000000000000000000000000000001600030100110100000000000000000000000000030d4000000000000000000000000000000000000000000000000000000000000000000000000000000000767c0000000000000000000000000000000000000000000000000000000000000002000000000000000000000000000000000000000000000000000000000000006000000000000000000000000000000000000000000000000000000000000000160003010011010000000000000000000000000003d09000000000000000000000000000000000000000000000000000000000000000000000000000000000768300000000000000000000000000000000000000000000000000000000000000010000000000000000000000000000000000000000000000000000000000000060000000000000000000000000000000000000000000000000000000000000001600030100110100000000000000000000000000030d400000000000000000000000000000000000000000000000000000000000000000000000000000000076830000000000000000000000000000000000000000000000000000000000000002000000000000000000000000000000000000000000000000000000000000006000000000000000000000000000000000000000000000000000000000000000160003010011010000000000000000000000000003d09000000000000000000000000000000000000000000000000000000000000000000000000000000000759e00000000000000000000000000000000000000000000000000000000000000010000000000000000000000000000000000000000000000000000000000000060000000000000000000000000000000000000000000000000000000000000001600030100110100000000000000000000000000030d4000000000000000000000000000000000000000000000000000000000000000000000000000000000759e0000000000000000000000000000000000000000000000000000000000000002000000000000000000000000000000000000000000000000000000000000006000000000000000000000000000000000000000000000000000000000000000160003010011010000000000000000000000000003d09000000000000000000000000000000000000000000000000000000000000000000000000000000000759f00000000000000000000000000000000000000000000000000000000000000010000000000000000000000000000000000000000000000000000000000000060000000000000000000000000000000000000000000000000000000000000001600030100110100000000000000000000000000030d4000000000000000000000000000000000000000000000000000000000000000000000000000000000759f0000000000000000000000000000000000000000000000000000000000000002000000000000000000000000000000000000000000000000000000000000006000000000000000000000000000000000000000000000000000000000000000160003010011010000000000000000000000000003d09000000000000000000000000000000000000000000000000000000000000000000000000000000000759d00000000000000000000000000000000000000000000000000000000000000010000000000000000000000000000000000000000000000000000000000000060000000000000000000000000000000000000000000000000000000000000001600030100110100000000000000000000000000030d4000000000000000000000000000000000000000000000000000000000000000000000000000000000759d0000000000000000000000000000000000000000000000000000000000000002000000000000000000000000000000000000000000000000000000000000006000000000000000000000000000000000000000000000000000000000000000160003010011010000000000000000000000000003d09000000000000000000000000000000000000000000000000000000000000000000000000000000000759a00000000000000000000000000000000000000000000000000000000000000010000000000000000000000000000000000000000000000000000000000000060000000000000000000000000000000000000000000000000000000000000001600030100110100000000000000000000000000030d4000000000000000000000000000000000000000000000000000000000000000000000000000000000759a0000000000000000000000000000000000000000000000000000000000000002000000000000000000000000000000000000000000000000000000000000006000000000000000000000000000000000000000000000000000000000000000160003010011010000000000000000000000000003d09000000000000000000000000000000000000000000000000000000000000000000000000000000000759600000000000000000000000000000000000000000000000000000000000000010000000000000000000000000000000000000000000000000000000000000060000000000000000000000000000000000000000000000000000000000000001600030100110100000000000000000000000000030d400000000000000000000000000000000000000000000000000000000000000000000000000000000075960000000000000000000000000000000000000000000000000000000000000002000000000000000000000000000000000000000000000000000000000000006000000000000000000000000000000000000000000000000000000000000000160003010011010000000000000000000000000003d0900000000000000000000000000000000000000000000000000000000000000000000000000000000075ce00000000000000000000000000000000000000000000000000000000000000010000000000000000000000000000000000000000000000000000000000000060000000000000000000000000000000000000000000000000000000000000001600030100110100000000000000000000000000030d400000000000000000000000000000000000000000000000000000000000000000000000000000000075ce0000000000000000000000000000000000000000000000000000000000000002000000000000000000000000000000000000000000000000000000000000006000000000000000000000000000000000000000000000000000000000000000160003010011010000000000000000000000000003d09000000000000000000000000000000000000000000000000000000000000000000000000000000000759500000000000000000000000000000000000000000000000000000000000000010000000000000000000000000000000000000000000000000000000000000060000000000000000000000000000000000000000000000000000000000000001600030100110100000000000000000000000000030d400000000000000000000000000000000000000000000000000000000000000000000000000000000075950000000000000000000000000000000000000000000000000000000000000002000000000000000000000000000000000000000000000000000000000000006000000000000000000000000000000000000000000000000000000000000000160003010011010000000000000000000000000003d09000000000000000000000000000000000000000000000000000000000000000000000000000000000762300000000000000000000000000000000000000000000000000000000000000010000000000000000000000000000000000000000000000000000000000000060000000000000000000000000000000000000000000000000000000000000001600030100110100000000000000000000000000030d400000000000000000000000000000000000000000000000000000000000000000000000000000000076230000000000000000000000000000000000000000000000000000000000000002000000000000000000000000000000000000000000000000000000000000006000000000000000000000000000000000000000000000000000000000000000160003010011010000000000000000000000000003d0900000000000000000000000000000000000000000000000000000000000000000000000000000000075e800000000000000000000000000000000000000000000000000000000000000010000000000000000000000000000000000000000000000000000000000000060000000000000000000000000000000000000000000000000000000000000001600030100110100000000000000000000000000030d400000000000000000000000000000000000000000000000000000000000000000000000000000000075e80000000000000000000000000000000000000000000000000000000000000002000000000000000000000000000000000000000000000000000000000000006000000000000000000000000000000000000000000000000000000000000000160003010011010000000000000000000000000003d09000000000000000000000000000000000000000000000000000000000000000000000000000000000769a00000000000000000000000000000000000000000000000000000000000000010000000000000000000000000000000000000000000000000000000000000060000000000000000000000000000000000000000000000000000000000000001600030100110100000000000000000000000000030d4000000000000000000000000000000000000000000000000000000000000000000000000000000000769a0000000000000000000000000000000000000000000000000000000000000002000000000000000000000000000000000000000000000000000000000000006000000000000000000000000000000000000000000000000000000000000000160003010011010000000000000000000000000003d0900000000000000000000000000000000000000000000000000000000000000000000000000000000075e700000000000000000000000000000000000000000000000000000000000000010000000000000000000000000000000000000000000000000000000000000060000000000000000000000000000000000000000000000000000000000000001600030100110100000000000000000000000000030d400000000000000000000000000000000000000000000000000000000000000000000000000000000075e70000000000000000000000000000000000000000000000000000000000000002000000000000000000000000000000000000000000000000000000000000006000000000000000000000000000000000000000000000000000000000000000160003010011010000000000000000000000000003d09000000000000000000000000000000000000000000000000000000000000000000000000000000000766f00000000000000000000000000000000000000000000000000000000000000010000000000000000000000000000000000000000000000000000000000000060000000000000000000000000000000000000000000000000000000000000001600030100110100000000000000000000000000030d4000000000000000000000000000000000000000000000000000000000000000000000000000000000766f0000000000000000000000000000000000000000000000000000000000000002000000000000000000000000000000000000000000000000000000000000006000000000000000000000000000000000000000000000000000000000000000160003010011010000000000000000000000000003d09000000000000000000000000000000000000000000000000000000000000000000000000000000000767000000000000000000000000000000000000000000000000000000000000000010000000000000000000000000000000000000000000000000000000000000060000000000000000000000000000000000000000000000000000000000000001600030100110100000000000000000000000000030d400000000000000000000000000000000000000000000000000000000000000000000000000000000076700000000000000000000000000000000000000000000000000000000000000002000000000000000000000000000000000000000000000000000000000000006000000000000000000000000000000000000000000000000000000000000000160003010011010000000000000000000000000003d0900000000000000000000000000000000000000000000000000000000000000000000000000000000076a200000000000000000000000000000000000000000000000000000000000000010000000000000000000000000000000000000000000000000000000000000060000000000000000000000000000000000000000000000000000000000000001600030100110100000000000000000000000000030d400000000000000000000000000000000000000000000000000000000000000000000000000000000076a20000000000000000000000000000000000000000000000000000000000000002000000000000000000000000000000000000000000000000000000000000006000000000000000000000000000000000000000000000000000000000000000160003010011010000000000000000000000000003d0900000000000000000000000000000000000000000000000000000000000000000000000000000000076a800000000000000000000000000000000000000000000000000000000000000010000000000000000000000000000000000000000000000000000000000000060000000000000000000000000000000000000000000000000000000000000001600030100110100000000000000000000000000030d400000000000000000000000000000000000000000000000000000000000000000000000000000000076a80000000000000000000000000000000000000000000000000000000000000002000000000000000000000000000000000000000000000000000000000000006000000000000000000000000000000000000000000000000000000000000000160003010011010000000000000000000000000003d0900000000000000000000000000000000000000000000000000000000000000000000000000000000076a700000000000000000000000000000000000000000000000000000000000000010000000000000000000000000000000000000000000000000000000000000060000000000000000000000000000000000000000000000000000000000000001600030100110100000000000000000000000000030d400000000000000000000000000000000000000000000000000000000000000000000000000000000076a70000000000000000000000000000000000000000000000000000000000000002000000000000000000000000000000000000000000000000000000000000006000000000000000000000000000000000000000000000000000000000000000160003010011010000000000000000000000000003d09000000000000000000000000000000000000000000000000000000000000000000000000000000000760600000000000000000000000000000000000000000000000000000000000000010000000000000000000000000000000000000000000000000000000000000060000000000000000000000000000000000000000000000000000000000000001600030100110100000000000000000000000000030d400000000000000000000000000000000000000000000000000000000000000000000000000000000076060000000000000000000000000000000000000000000000000000000000000002000000000000000000000000000000000000000000000000000000000000006000000000000000000000000000000000000000000000000000000000000000160003010011010000000000000000000000000003d09000000000000000000000000000000000000000000000000000000000000000000000000000000000767400000000000000000000000000000000000000000000000000000000000000010000000000000000000000000000000000000000000000000000000000000060000000000000000000000000000000000000000000000000000000000000001600030100110100000000000000000000000000030d400000000000000000000000000000000000000000000000000000000000000000000000000000000076740000000000000000000000000000000000000000000000000000000000000002000000000000000000000000000000000000000000000000000000000000006000000000000000000000000000000000000000000000000000000000000000160003010011010000000000000000000000000003d0900000000000000000000000000000000000000000000000000000000000000000000000000000000075d500000000000000000000000000000000000000000000000000000000000000010000000000000000000000000000000000000000000000000000000000000060000000000000000000000000000000000000000000000000000000000000001600030100110100000000000000000000000000030d400000000000000000000000000000000000000000000000000000000000000000000000000000000075d50000000000000000000000000000000000000000000000000000000000000002000000000000000000000000000000000000000000000000000000000000006000000000000000000000000000000000000000000000000000000000000000160003010011010000000000000000000000000003d09000000000000000000000",
        "nonce": "0x1b",
        "chainId": "0x4e454152"
      },
      "additionalContracts": [],
      "isFixedGasLimit": false
    },
    {
      "hash": "0x806ced9a65fb929a90f6ffd956d3ff4a0484e9ebd13bdc18f968b8c924962102",
      "transactionType": "CALL",
      "contractName": null,
      "contractAddress": "0xa057d8d4fc86a62801ce363c169b0a8d192f6cee",
      "function": "setPeer(uint32,bytes32)",
      "arguments": [
        "30260",
        "0x00000000000000000000000057558cb8d6005de0bae8a2789d5efaae52dba5a8"
      ],
      "transaction": {
        "from": "0x45dce8e4f2dc005a5f28206a46cb034697eeda8e",
        "to": "0xa057d8d4fc86a62801ce363c169b0a8d192f6cee",
        "gas": "0x128be",
        "value": "0x0",
        "input": "0x3400288b000000000000000000000000000000000000000000000000000000000000763400000000000000000000000057558cb8d6005de0bae8a2789d5efaae52dba5a8",
        "nonce": "0x1c",
        "chainId": "0x4e454152"
      },
      "additionalContracts": [],
      "isFixedGasLimit": false
    },
    {
      "hash": "0xdcadfcf5eb24b3cfbc9cc3a6c467de91377eb1b005aedcbe8b54bf61c0ff3801",
      "transactionType": "CALL",
      "contractName": null,
      "contractAddress": "0xa057d8d4fc86a62801ce363c169b0a8d192f6cee",
      "function": "setPeer(uint32,bytes32)",
      "arguments": [
        "30280",
        "0x00000000000000000000000057558cb8d6005de0bae8a2789d5efaae52dba5a8"
      ],
      "transaction": {
        "from": "0x45dce8e4f2dc005a5f28206a46cb034697eeda8e",
        "to": "0xa057d8d4fc86a62801ce363c169b0a8d192f6cee",
        "gas": "0x128be",
        "value": "0x0",
        "input": "0x3400288b000000000000000000000000000000000000000000000000000000000000764800000000000000000000000057558cb8d6005de0bae8a2789d5efaae52dba5a8",
        "nonce": "0x1d",
        "chainId": "0x4e454152"
      },
      "additionalContracts": [],
      "isFixedGasLimit": false
    },
    {
      "hash": "0xb693faf2206edacb98eee76298fe5646c53a01b4b61e3766ea4e5249bc4b9843",
      "transactionType": "CALL",
      "contractName": null,
      "contractAddress": "0xa057d8d4fc86a62801ce363c169b0a8d192f6cee",
      "function": "setPeer(uint32,bytes32)",
      "arguments": [
        "30255",
        "0x00000000000000000000000057558cb8d6005de0bae8a2789d5efaae52dba5a8"
      ],
      "transaction": {
        "from": "0x45dce8e4f2dc005a5f28206a46cb034697eeda8e",
        "to": "0xa057d8d4fc86a62801ce363c169b0a8d192f6cee",
        "gas": "0x128be",
        "value": "0x0",
        "input": "0x3400288b000000000000000000000000000000000000000000000000000000000000762f00000000000000000000000057558cb8d6005de0bae8a2789d5efaae52dba5a8",
        "nonce": "0x1e",
        "chainId": "0x4e454152"
      },
      "additionalContracts": [],
      "isFixedGasLimit": false
    },
    {
      "hash": "0x8e9305994007ae274086688105951ce4a438111c4ecebc7086a83f3d2fcf8811",
      "transactionType": "CALL",
      "contractName": null,
      "contractAddress": "0xa057d8d4fc86a62801ce363c169b0a8d192f6cee",
      "function": "setPeer(uint32,bytes32)",
      "arguments": [
        "30274",
        "0x00000000000000000000000057558cb8d6005de0bae8a2789d5efaae52dba5a8"
      ],
      "transaction": {
        "from": "0x45dce8e4f2dc005a5f28206a46cb034697eeda8e",
        "to": "0xa057d8d4fc86a62801ce363c169b0a8d192f6cee",
        "gas": "0x128be",
        "value": "0x0",
        "input": "0x3400288b000000000000000000000000000000000000000000000000000000000000764200000000000000000000000057558cb8d6005de0bae8a2789d5efaae52dba5a8",
        "nonce": "0x1f",
        "chainId": "0x4e454152"
      },
      "additionalContracts": [],
      "isFixedGasLimit": false
    },
    {
      "hash": "0x12555afbc62aa12ef181b301fecfb9af5e4c08ec89cf38c34402bb9f9cf87d7b",
      "transactionType": "CALL",
      "contractName": null,
      "contractAddress": "0xa057d8d4fc86a62801ce363c169b0a8d192f6cee",
      "function": "setPeer(uint32,bytes32)",
      "arguments": [
        "30332",
        "0x00000000000000000000000057558cb8d6005de0bae8a2789d5efaae52dba5a8"
      ],
      "transaction": {
        "from": "0x45dce8e4f2dc005a5f28206a46cb034697eeda8e",
        "to": "0xa057d8d4fc86a62801ce363c169b0a8d192f6cee",
        "gas": "0x128be",
        "value": "0x0",
        "input": "0x3400288b000000000000000000000000000000000000000000000000000000000000767c00000000000000000000000057558cb8d6005de0bae8a2789d5efaae52dba5a8",
        "nonce": "0x20",
        "chainId": "0x4e454152"
      },
      "additionalContracts": [],
      "isFixedGasLimit": false
    },
    {
      "hash": "0x15ef70c3c460bb003690a801b95d20183110e6efa03b71b7eb8cd4552023245e",
      "transactionType": "CALL",
      "contractName": null,
      "contractAddress": "0xa057d8d4fc86a62801ce363c169b0a8d192f6cee",
      "function": "setPeer(uint32,bytes32)",
      "arguments": [
        "30339",
        "0x00000000000000000000000057558cb8d6005de0bae8a2789d5efaae52dba5a8"
      ],
      "transaction": {
        "from": "0x45dce8e4f2dc005a5f28206a46cb034697eeda8e",
        "to": "0xa057d8d4fc86a62801ce363c169b0a8d192f6cee",
        "gas": "0x128be",
        "value": "0x0",
        "input": "0x3400288b000000000000000000000000000000000000000000000000000000000000768300000000000000000000000057558cb8d6005de0bae8a2789d5efaae52dba5a8",
        "nonce": "0x21",
        "chainId": "0x4e454152"
      },
      "additionalContracts": [],
      "isFixedGasLimit": false
    },
    {
      "hash": "0x2d5950a1f5f9b22218faa15798bc5e093a1b77bacf928addc4bf22f34799bb04",
      "transactionType": "CALL",
      "contractName": null,
      "contractAddress": "0xa057d8d4fc86a62801ce363c169b0a8d192f6cee",
      "function": "setPeer(uint32,bytes32)",
      "arguments": [
        "30110",
        "0x00000000000000000000000057558cb8d6005de0bae8a2789d5efaae52dba5a8"
      ],
      "transaction": {
        "from": "0x45dce8e4f2dc005a5f28206a46cb034697eeda8e",
        "to": "0xa057d8d4fc86a62801ce363c169b0a8d192f6cee",
        "gas": "0x128be",
        "value": "0x0",
        "input": "0x3400288b000000000000000000000000000000000000000000000000000000000000759e00000000000000000000000057558cb8d6005de0bae8a2789d5efaae52dba5a8",
        "nonce": "0x22",
        "chainId": "0x4e454152"
      },
      "additionalContracts": [],
      "isFixedGasLimit": false
    },
    {
      "hash": "0x79e67d554a9cd898627e07f37934b6d05242d55a031f122f1444b06cba20e682",
      "transactionType": "CALL",
      "contractName": null,
      "contractAddress": "0xa057d8d4fc86a62801ce363c169b0a8d192f6cee",
      "function": "setPeer(uint32,bytes32)",
      "arguments": [
        "30111",
        "0x00000000000000000000000057558cb8d6005de0bae8a2789d5efaae52dba5a8"
      ],
      "transaction": {
        "from": "0x45dce8e4f2dc005a5f28206a46cb034697eeda8e",
        "to": "0xa057d8d4fc86a62801ce363c169b0a8d192f6cee",
        "gas": "0x128be",
        "value": "0x0",
        "input": "0x3400288b000000000000000000000000000000000000000000000000000000000000759f00000000000000000000000057558cb8d6005de0bae8a2789d5efaae52dba5a8",
        "nonce": "0x23",
        "chainId": "0x4e454152"
      },
      "additionalContracts": [],
      "isFixedGasLimit": false
    },
    {
      "hash": "0x7070beda57f1025fff2f3711d437f490d342f0b9c4ee0c6752e6003c45a20e33",
      "transactionType": "CALL",
      "contractName": null,
      "contractAddress": "0xa057d8d4fc86a62801ce363c169b0a8d192f6cee",
      "function": "setPeer(uint32,bytes32)",
      "arguments": [
        "30109",
        "0x00000000000000000000000057558cb8d6005de0bae8a2789d5efaae52dba5a8"
      ],
      "transaction": {
        "from": "0x45dce8e4f2dc005a5f28206a46cb034697eeda8e",
        "to": "0xa057d8d4fc86a62801ce363c169b0a8d192f6cee",
        "gas": "0x128be",
        "value": "0x0",
        "input": "0x3400288b000000000000000000000000000000000000000000000000000000000000759d00000000000000000000000057558cb8d6005de0bae8a2789d5efaae52dba5a8",
        "nonce": "0x24",
        "chainId": "0x4e454152"
      },
      "additionalContracts": [],
      "isFixedGasLimit": false
    },
    {
      "hash": "0xb3e3037eb68668958a38f0f54f48f9fdf7ff0d41d6384cbd86c787f79078da7d",
      "transactionType": "CALL",
      "contractName": null,
      "contractAddress": "0xa057d8d4fc86a62801ce363c169b0a8d192f6cee",
      "function": "setPeer(uint32,bytes32)",
      "arguments": [
        "30106",
        "0x00000000000000000000000057558cb8d6005de0bae8a2789d5efaae52dba5a8"
      ],
      "transaction": {
        "from": "0x45dce8e4f2dc005a5f28206a46cb034697eeda8e",
        "to": "0xa057d8d4fc86a62801ce363c169b0a8d192f6cee",
        "gas": "0x128be",
        "value": "0x0",
        "input": "0x3400288b000000000000000000000000000000000000000000000000000000000000759a00000000000000000000000057558cb8d6005de0bae8a2789d5efaae52dba5a8",
        "nonce": "0x25",
        "chainId": "0x4e454152"
      },
      "additionalContracts": [],
      "isFixedGasLimit": false
    },
    {
      "hash": "0xf0703fcb97c88e14ddd70d33a8950df519651583583c089741c7c0c6447b88bc",
      "transactionType": "CALL",
      "contractName": null,
      "contractAddress": "0xa057d8d4fc86a62801ce363c169b0a8d192f6cee",
      "function": "setPeer(uint32,bytes32)",
      "arguments": [
        "30102",
        "0x00000000000000000000000057558cb8d6005de0bae8a2789d5efaae52dba5a8"
      ],
      "transaction": {
        "from": "0x45dce8e4f2dc005a5f28206a46cb034697eeda8e",
        "to": "0xa057d8d4fc86a62801ce363c169b0a8d192f6cee",
        "gas": "0x128be",
        "value": "0x0",
        "input": "0x3400288b000000000000000000000000000000000000000000000000000000000000759600000000000000000000000057558cb8d6005de0bae8a2789d5efaae52dba5a8",
        "nonce": "0x26",
        "chainId": "0x4e454152"
      },
      "additionalContracts": [],
      "isFixedGasLimit": false
    },
    {
      "hash": "0xdf794d31b31234c67bf70085251b6d68f40fbbcc44e4d34017731bd0c4ea076a",
      "transactionType": "CALL",
      "contractName": null,
      "contractAddress": "0xa057d8d4fc86a62801ce363c169b0a8d192f6cee",
      "function": "setPeer(uint32,bytes32)",
      "arguments": [
        "30158",
        "0x00000000000000000000000057558cb8d6005de0bae8a2789d5efaae52dba5a8"
      ],
      "transaction": {
        "from": "0x45dce8e4f2dc005a5f28206a46cb034697eeda8e",
        "to": "0xa057d8d4fc86a62801ce363c169b0a8d192f6cee",
        "gas": "0x128be",
        "value": "0x0",
        "input": "0x3400288b00000000000000000000000000000000000000000000000000000000000075ce00000000000000000000000057558cb8d6005de0bae8a2789d5efaae52dba5a8",
        "nonce": "0x27",
        "chainId": "0x4e454152"
      },
      "additionalContracts": [],
      "isFixedGasLimit": false
    },
    {
      "hash": "0x292f674189c88e417af278c4621ebcc05037ae24965a3f2789931a6d3e6cd2af",
      "transactionType": "CALL",
      "contractName": null,
      "contractAddress": "0xa057d8d4fc86a62801ce363c169b0a8d192f6cee",
      "function": "setPeer(uint32,bytes32)",
      "arguments": [
        "30101",
        "0x00000000000000000000000057558cb8d6005de0bae8a2789d5efaae52dba5a8"
      ],
      "transaction": {
        "from": "0x45dce8e4f2dc005a5f28206a46cb034697eeda8e",
        "to": "0xa057d8d4fc86a62801ce363c169b0a8d192f6cee",
        "gas": "0x128be",
        "value": "0x0",
        "input": "0x3400288b000000000000000000000000000000000000000000000000000000000000759500000000000000000000000057558cb8d6005de0bae8a2789d5efaae52dba5a8",
        "nonce": "0x28",
        "chainId": "0x4e454152"
      },
      "additionalContracts": [],
      "isFixedGasLimit": false
    },
    {
      "hash": "0xc6d06c1115294297042131326c197997cc76669ed2f46f9e3f15cab154d1937d",
      "transactionType": "CALL",
      "contractName": null,
      "contractAddress": "0xa057d8d4fc86a62801ce363c169b0a8d192f6cee",
      "function": "setPeer(uint32,bytes32)",
      "arguments": [
        "30243",
        "0x00000000000000000000000057558cb8d6005de0bae8a2789d5efaae52dba5a8"
      ],
      "transaction": {
        "from": "0x45dce8e4f2dc005a5f28206a46cb034697eeda8e",
        "to": "0xa057d8d4fc86a62801ce363c169b0a8d192f6cee",
        "gas": "0x128be",
        "value": "0x0",
        "input": "0x3400288b000000000000000000000000000000000000000000000000000000000000762300000000000000000000000057558cb8d6005de0bae8a2789d5efaae52dba5a8",
        "nonce": "0x29",
        "chainId": "0x4e454152"
      },
      "additionalContracts": [],
      "isFixedGasLimit": false
    },
    {
      "hash": "0xddae4aaa5b93bc7595d35488953d4bf845e1fa7f915a14453dc0d003b2a3e6d7",
      "transactionType": "CALL",
      "contractName": null,
      "contractAddress": "0xa057d8d4fc86a62801ce363c169b0a8d192f6cee",
      "function": "setPeer(uint32,bytes32)",
      "arguments": [
        "30184",
        "0x00000000000000000000000057558cb8d6005de0bae8a2789d5efaae52dba5a8"
      ],
      "transaction": {
        "from": "0x45dce8e4f2dc005a5f28206a46cb034697eeda8e",
        "to": "0xa057d8d4fc86a62801ce363c169b0a8d192f6cee",
        "gas": "0x128be",
        "value": "0x0",
        "input": "0x3400288b00000000000000000000000000000000000000000000000000000000000075e800000000000000000000000057558cb8d6005de0bae8a2789d5efaae52dba5a8",
        "nonce": "0x2a",
        "chainId": "0x4e454152"
      },
      "additionalContracts": [],
      "isFixedGasLimit": false
    },
    {
      "hash": "0xc23b66d6d8700d2842e06d377e0c82342a8b0adcf4c7915a883b820b7924ba1f",
      "transactionType": "CALL",
      "contractName": null,
      "contractAddress": "0xa057d8d4fc86a62801ce363c169b0a8d192f6cee",
      "function": "setPeer(uint32,bytes32)",
      "arguments": [
        "30362",
        "0x00000000000000000000000057558cb8d6005de0bae8a2789d5efaae52dba5a8"
      ],
      "transaction": {
        "from": "0x45dce8e4f2dc005a5f28206a46cb034697eeda8e",
        "to": "0xa057d8d4fc86a62801ce363c169b0a8d192f6cee",
        "gas": "0x128be",
        "value": "0x0",
        "input": "0x3400288b000000000000000000000000000000000000000000000000000000000000769a00000000000000000000000057558cb8d6005de0bae8a2789d5efaae52dba5a8",
        "nonce": "0x2b",
        "chainId": "0x4e454152"
      },
      "additionalContracts": [],
      "isFixedGasLimit": false
    },
    {
      "hash": "0xccde48800985ab93143326db40ddbb6e5468ea467893ca997f59c4c864f04ce8",
      "transactionType": "CALL",
      "contractName": null,
      "contractAddress": "0xa057d8d4fc86a62801ce363c169b0a8d192f6cee",
      "function": "setPeer(uint32,bytes32)",
      "arguments": [
        "30183",
        "0x0000000000000000000000006185334f1542a9966cbad694577ffbede3dd1f1f"
      ],
      "transaction": {
        "from": "0x45dce8e4f2dc005a5f28206a46cb034697eeda8e",
        "to": "0xa057d8d4fc86a62801ce363c169b0a8d192f6cee",
        "gas": "0x13a45",
        "value": "0x0",
        "input": "0x3400288b00000000000000000000000000000000000000000000000000000000000075e70000000000000000000000006185334f1542a9966cbad694577ffbede3dd1f1f",
        "nonce": "0x2c",
        "chainId": "0x4e454152"
      },
      "additionalContracts": [],
      "isFixedGasLimit": false
    },
    {
      "hash": "0xd03774024c850a943ccc17f7b6f62bd6ad0c2d9cad46a7afdb8cbccc7ba6cb56",
      "transactionType": "CALL",
      "contractName": null,
      "contractAddress": "0xa057d8d4fc86a62801ce363c169b0a8d192f6cee",
      "function": "setPeer(uint32,bytes32)",
      "arguments": [
        "30319",
        "0x00000000000000000000000057558cb8d6005de0bae8a2789d5efaae52dba5a8"
      ],
      "transaction": {
        "from": "0x45dce8e4f2dc005a5f28206a46cb034697eeda8e",
        "to": "0xa057d8d4fc86a62801ce363c169b0a8d192f6cee",
        "gas": "0x128be",
        "value": "0x0",
        "input": "0x3400288b000000000000000000000000000000000000000000000000000000000000766f00000000000000000000000057558cb8d6005de0bae8a2789d5efaae52dba5a8",
        "nonce": "0x2d",
        "chainId": "0x4e454152"
      },
      "additionalContracts": [],
      "isFixedGasLimit": false
    },
    {
      "hash": "0x6f14bcec3d5d399d432c72903b290c0d8c91af1a3c37bf600d0ad2242a698ac8",
      "transactionType": "CALL",
      "contractName": null,
      "contractAddress": "0xa057d8d4fc86a62801ce363c169b0a8d192f6cee",
      "function": "setPeer(uint32,bytes32)",
      "arguments": [
        "30320",
        "0x00000000000000000000000057558cb8d6005de0bae8a2789d5efaae52dba5a8"
      ],
      "transaction": {
        "from": "0x45dce8e4f2dc005a5f28206a46cb034697eeda8e",
        "to": "0xa057d8d4fc86a62801ce363c169b0a8d192f6cee",
        "gas": "0x128be",
        "value": "0x0",
        "input": "0x3400288b000000000000000000000000000000000000000000000000000000000000767000000000000000000000000057558cb8d6005de0bae8a2789d5efaae52dba5a8",
        "nonce": "0x2e",
        "chainId": "0x4e454152"
      },
      "additionalContracts": [],
      "isFixedGasLimit": false
    },
    {
      "hash": "0x73eb0db767104638d2fafef0e7791f85fe65ddad72dcf86657ebd3b032e11bfe",
      "transactionType": "CALL",
      "contractName": null,
      "contractAddress": "0xa057d8d4fc86a62801ce363c169b0a8d192f6cee",
      "function": "setPeer(uint32,bytes32)",
      "arguments": [
        "30370",
        "0x00000000000000000000000057558cb8d6005de0bae8a2789d5efaae52dba5a8"
      ],
      "transaction": {
        "from": "0x45dce8e4f2dc005a5f28206a46cb034697eeda8e",
        "to": "0xa057d8d4fc86a62801ce363c169b0a8d192f6cee",
        "gas": "0x128be",
        "value": "0x0",
        "input": "0x3400288b00000000000000000000000000000000000000000000000000000000000076a200000000000000000000000057558cb8d6005de0bae8a2789d5efaae52dba5a8",
        "nonce": "0x2f",
        "chainId": "0x4e454152"
      },
      "additionalContracts": [],
      "isFixedGasLimit": false
    },
    {
      "hash": "0x600b4c36164656e7a80f1cb2f388fe1d0344535a3693303403941672083d30cb",
      "transactionType": "CALL",
      "contractName": null,
      "contractAddress": "0xa057d8d4fc86a62801ce363c169b0a8d192f6cee",
      "function": "setPeer(uint32,bytes32)",
      "arguments": [
        "30376",
        "0x00000000000000000000000057558cb8d6005de0bae8a2789d5efaae52dba5a8"
      ],
      "transaction": {
        "from": "0x45dce8e4f2dc005a5f28206a46cb034697eeda8e",
        "to": "0xa057d8d4fc86a62801ce363c169b0a8d192f6cee",
        "gas": "0x128be",
        "value": "0x0",
        "input": "0x3400288b00000000000000000000000000000000000000000000000000000000000076a800000000000000000000000057558cb8d6005de0bae8a2789d5efaae52dba5a8",
        "nonce": "0x30",
        "chainId": "0x4e454152"
      },
      "additionalContracts": [],
      "isFixedGasLimit": false
    },
    {
      "hash": "0xa3b4ab02c7ff0dda0287ec032709c610d543fb33d66ecc1cafbc09028ab13664",
      "transactionType": "CALL",
      "contractName": null,
      "contractAddress": "0xa057d8d4fc86a62801ce363c169b0a8d192f6cee",
      "function": "setPeer(uint32,bytes32)",
      "arguments": [
        "30375",
        "0x00000000000000000000000057558cb8d6005de0bae8a2789d5efaae52dba5a8"
      ],
      "transaction": {
        "from": "0x45dce8e4f2dc005a5f28206a46cb034697eeda8e",
        "to": "0xa057d8d4fc86a62801ce363c169b0a8d192f6cee",
        "gas": "0x128be",
        "value": "0x0",
        "input": "0x3400288b00000000000000000000000000000000000000000000000000000000000076a700000000000000000000000057558cb8d6005de0bae8a2789d5efaae52dba5a8",
        "nonce": "0x31",
        "chainId": "0x4e454152"
      },
      "additionalContracts": [],
      "isFixedGasLimit": false
    },
    {
      "hash": "0x8dc73cb407d99bd0b48b6f9cf9cae2b37e99e171a7fcea93dbe0ab29c8f9e098",
      "transactionType": "CALL",
      "contractName": null,
      "contractAddress": "0xa057d8d4fc86a62801ce363c169b0a8d192f6cee",
      "function": "setPeer(uint32,bytes32)",
      "arguments": [
        "30214",
        "0x00000000000000000000000057558cb8d6005de0bae8a2789d5efaae52dba5a8"
      ],
      "transaction": {
        "from": "0x45dce8e4f2dc005a5f28206a46cb034697eeda8e",
        "to": "0xa057d8d4fc86a62801ce363c169b0a8d192f6cee",
        "gas": "0x128be",
        "value": "0x0",
        "input": "0x3400288b000000000000000000000000000000000000000000000000000000000000760600000000000000000000000057558cb8d6005de0bae8a2789d5efaae52dba5a8",
        "nonce": "0x32",
        "chainId": "0x4e454152"
      },
      "additionalContracts": [],
      "isFixedGasLimit": false
    },
    {
      "hash": "0x90e3b0089bc7f1527466ddc2bc92313216d9b10f0d914fcb65b44021daa9dad4",
      "transactionType": "CALL",
      "contractName": null,
      "contractAddress": "0xa057d8d4fc86a62801ce363c169b0a8d192f6cee",
      "function": "setPeer(uint32,bytes32)",
      "arguments": [
        "30324",
        "0x000000000000000000000000bd39033994f5324fe8d50bb524396a78ff9dfe22"
      ],
      "transaction": {
        "from": "0x45dce8e4f2dc005a5f28206a46cb034697eeda8e",
        "to": "0xa057d8d4fc86a62801ce363c169b0a8d192f6cee",
        "gas": "0x13a45",
        "value": "0x0",
        "input": "0x3400288b0000000000000000000000000000000000000000000000000000000000007674000000000000000000000000bd39033994f5324fe8d50bb524396a78ff9dfe22",
        "nonce": "0x33",
        "chainId": "0x4e454152"
      },
      "additionalContracts": [],
      "isFixedGasLimit": false
    },
    {
      "hash": "0xd0aad2c44eff2ade3a84859dd96b0094a2e8b65c06a38d9a703f93d99a552d56",
      "transactionType": "CALL",
      "contractName": null,
      "contractAddress": "0xa057d8d4fc86a62801ce363c169b0a8d192f6cee",
      "function": "setPeer(uint32,bytes32)",
      "arguments": [
        "30165",
        "0x0000000000000000000000003fc877008e396fdd7f9ee3deb2e8a54d54da705a"
      ],
      "transaction": {
        "from": "0x45dce8e4f2dc005a5f28206a46cb034697eeda8e",
        "to": "0xa057d8d4fc86a62801ce363c169b0a8d192f6cee",
        "gas": "0x128be",
        "value": "0x0",
        "input": "0x3400288b00000000000000000000000000000000000000000000000000000000000075d50000000000000000000000003fc877008e396fdd7f9ee3deb2e8a54d54da705a",
        "nonce": "0x34",
        "chainId": "0x4e454152"
      },
      "additionalContracts": [],
      "isFixedGasLimit": false
    },
    {
      "hash": "0xb576eb7c8a475fedff8502a93f33b566663e2d882845af08208395beb21f7bf3",
      "transactionType": "CALL",
      "contractName": null,
      "contractAddress": "0x1a44076050125825900e736c501f859c50fe728c",
      "function": "setConfig(address,address,(uint32,uint32,bytes)[])",
      "arguments": [
        "0xA057D8D4Fc86a62801CE363C169b0A8d192F6cEE",
        "0x1aCe9DD1BC743aD036eF2D92Af42Ca70A1159df5",
        "[(30375, 2, 0x0000000000000000000000000000000000000000000000000000000000000020000000000000000000000000000000000000000000000000000000000000000000000000000000000000000000000000000000000000000000000000000000020000000000000000000000000000000000000000000000000000000000000000000000000000000000000000000000000000000000000000000000000000000000000000000000000000000000000000000000000000000000000000000000c000000000000000000000000000000000000000000000000000000000000001200000000000000000000000000000000000000000000000000000000000000002000000000000000000000000045d70bf1939af0489cb44533750a2e15c92d7d4000000000000000000000000d4a903930f2c9085586cda0b11d9681eecb20d2f0000000000000000000000000000000000000000000000000000000000000000)]"
      ],
      "transaction": {
        "from": "0x45dce8e4f2dc005a5f28206a46cb034697eeda8e",
        "to": "0x1a44076050125825900e736c501f859c50fe728c",
        "gas": "0x2ef2a",
        "value": "0x0",
        "input": "0x6dbd9f90000000000000000000000000a057d8d4fc86a62801ce363c169b0a8d192f6cee0000000000000000000000001ace9dd1bc743ad036ef2d92af42ca70a1159df500000000000000000000000000000000000000000000000000000000000000600000000000000000000000000000000000000000000000000000000000000001000000000000000000000000000000000000000000000000000000000000002000000000000000000000000000000000000000000000000000000000000076a70000000000000000000000000000000000000000000000000000000000000002000000000000000000000000000000000000000000000000000000000000006000000000000000000000000000000000000000000000000000000000000001600000000000000000000000000000000000000000000000000000000000000020000000000000000000000000000000000000000000000000000000000000000000000000000000000000000000000000000000000000000000000000000000020000000000000000000000000000000000000000000000000000000000000000000000000000000000000000000000000000000000000000000000000000000000000000000000000000000000000000000000000000000000000000000000c000000000000000000000000000000000000000000000000000000000000001200000000000000000000000000000000000000000000000000000000000000002000000000000000000000000045d70bf1939af0489cb44533750a2e15c92d7d4000000000000000000000000d4a903930f2c9085586cda0b11d9681eecb20d2f0000000000000000000000000000000000000000000000000000000000000000",
        "nonce": "0x35",
        "chainId": "0x4e454152"
      },
      "additionalContracts": [],
      "isFixedGasLimit": false
    },
    {
      "hash": "0x92843d288c29f626d0f0ecc35e86098be0b932826142865328ef922543e5e59a",
      "transactionType": "CALL",
      "contractName": null,
      "contractAddress": "0x1a44076050125825900e736c501f859c50fe728c",
      "function": "setConfig(address,address,(uint32,uint32,bytes)[])",
      "arguments": [
        "0xA057D8D4Fc86a62801CE363C169b0A8d192F6cEE",
        "0x000CC1A759bC3A15e664Ed5379E321Be5de1c9B6",
        "[(30375, 2, 0x0000000000000000000000000000000000000000000000000000000000000020000000000000000000000000000000000000000000000000000000000000000000000000000000000000000000000000000000000000000000000000000000020000000000000000000000000000000000000000000000000000000000000000000000000000000000000000000000000000000000000000000000000000000000000000000000000000000000000000000000000000000000000000000000c000000000000000000000000000000000000000000000000000000000000001200000000000000000000000000000000000000000000000000000000000000002000000000000000000000000045d70bf1939af0489cb44533750a2e15c92d7d4000000000000000000000000d4a903930f2c9085586cda0b11d9681eecb20d2f0000000000000000000000000000000000000000000000000000000000000000)]"
      ],
      "transaction": {
        "from": "0x45dce8e4f2dc005a5f28206a46cb034697eeda8e",
        "to": "0x1a44076050125825900e736c501f859c50fe728c",
        "gas": "0x2edbd",
        "value": "0x0",
        "input": "0x6dbd9f90000000000000000000000000a057d8d4fc86a62801ce363c169b0a8d192f6cee000000000000000000000000000cc1a759bc3a15e664ed5379e321be5de1c9b600000000000000000000000000000000000000000000000000000000000000600000000000000000000000000000000000000000000000000000000000000001000000000000000000000000000000000000000000000000000000000000002000000000000000000000000000000000000000000000000000000000000076a70000000000000000000000000000000000000000000000000000000000000002000000000000000000000000000000000000000000000000000000000000006000000000000000000000000000000000000000000000000000000000000001600000000000000000000000000000000000000000000000000000000000000020000000000000000000000000000000000000000000000000000000000000000000000000000000000000000000000000000000000000000000000000000000020000000000000000000000000000000000000000000000000000000000000000000000000000000000000000000000000000000000000000000000000000000000000000000000000000000000000000000000000000000000000000000000c000000000000000000000000000000000000000000000000000000000000001200000000000000000000000000000000000000000000000000000000000000002000000000000000000000000045d70bf1939af0489cb44533750a2e15c92d7d4000000000000000000000000d4a903930f2c9085586cda0b11d9681eecb20d2f0000000000000000000000000000000000000000000000000000000000000000",
        "nonce": "0x36",
        "chainId": "0x4e454152"
      },
      "additionalContracts": [],
      "isFixedGasLimit": false
    },
    {
      "hash": "0x60299f448315a1b6d6fc0e13dffe1361dead2188a7d9ce3fea44f150c9367ea2",
      "transactionType": "CALL",
      "contractName": null,
      "contractAddress": "0x1a44076050125825900e736c501f859c50fe728c",
      "function": "setSendLibrary(address,uint32,address)",
      "arguments": [
        "0xA057D8D4Fc86a62801CE363C169b0A8d192F6cEE",
        "30375",
        "0x1aCe9DD1BC743aD036eF2D92Af42Ca70A1159df5"
      ],
      "transaction": {
        "from": "0x45dce8e4f2dc005a5f28206a46cb034697eeda8e",
        "to": "0x1a44076050125825900e736c501f859c50fe728c",
        "gas": "0x1378b",
        "value": "0x0",
        "input": "0x9535ff30000000000000000000000000a057d8d4fc86a62801ce363c169b0a8d192f6cee00000000000000000000000000000000000000000000000000000000000076a70000000000000000000000001ace9dd1bc743ad036ef2d92af42ca70a1159df5",
        "nonce": "0x37",
        "chainId": "0x4e454152"
      },
      "additionalContracts": [],
      "isFixedGasLimit": false
    },
    {
      "hash": "0xa02af30ea578d9276c0a4814e9c440e3e50f745bb11e88f11a674a8980d537a7",
      "transactionType": "CALL",
      "contractName": null,
      "contractAddress": "0x1a44076050125825900e736c501f859c50fe728c",
      "function": "setReceiveLibrary(address,uint32,address,uint256)",
      "arguments": [
        "0xA057D8D4Fc86a62801CE363C169b0A8d192F6cEE",
        "30375",
        "0x000CC1A759bC3A15e664Ed5379E321Be5de1c9B6",
        "0"
      ],
      "transaction": {
        "from": "0x45dce8e4f2dc005a5f28206a46cb034697eeda8e",
        "to": "0x1a44076050125825900e736c501f859c50fe728c",
        "gas": "0x15b7f",
        "value": "0x0",
        "input": "0x6a14d715000000000000000000000000a057d8d4fc86a62801ce363c169b0a8d192f6cee00000000000000000000000000000000000000000000000000000000000076a7000000000000000000000000000cc1a759bc3a15e664ed5379e321be5de1c9b60000000000000000000000000000000000000000000000000000000000000000",
        "nonce": "0x38",
        "chainId": "0x4e454152"
      },
      "additionalContracts": [],
      "isFixedGasLimit": false
    }
  ],
  "receipts": [
    {
      "status": "0x1",
      "cumulativeGasUsed": "0x0",
      "logs": [
        {
          "address": "0xa057d8d4fc86a62801ce363c169b0a8d192f6cee",
          "topics": [
            "0xbe4864a8e820971c0247f5992e2da559595f7bf076a21cb5928d443d2a13b674"
          ],
          "data": "0x00000000000000000000000000000000000000000000000000000000000000200000000000000000000000000000000000000000000000000000000000000032000000000000000000000000000000000000000000000000000000000000064000000000000000000000000000000000000000000000000000000000000006e00000000000000000000000000000000000000000000000000000000000000780000000000000000000000000000000000000000000000000000000000000082000000000000000000000000000000000000000000000000000000000000008c000000000000000000000000000000000000000000000000000000000000009600000000000000000000000000000000000000000000000000000000000000a000000000000000000000000000000000000000000000000000000000000000aa00000000000000000000000000000000000000000000000000000000000000b400000000000000000000000000000000000000000000000000000000000000be00000000000000000000000000000000000000000000000000000000000000c800000000000000000000000000000000000000000000000000000000000000d200000000000000000000000000000000000000000000000000000000000000dc00000000000000000000000000000000000000000000000000000000000000e600000000000000000000000000000000000000000000000000000000000000f000000000000000000000000000000000000000000000000000000000000000fa0000000000000000000000000000000000000000000000000000000000000104000000000000000000000000000000000000000000000000000000000000010e00000000000000000000000000000000000000000000000000000000000001180000000000000000000000000000000000000000000000000000000000000122000000000000000000000000000000000000000000000000000000000000012c00000000000000000000000000000000000000000000000000000000000001360000000000000000000000000000000000000000000000000000000000000140000000000000000000000000000000000000000000000000000000000000014a0000000000000000000000000000000000000000000000000000000000000154000000000000000000000000000000000000000000000000000000000000015e00000000000000000000000000000000000000000000000000000000000001680000000000000000000000000000000000000000000000000000000000000172000000000000000000000000000000000000000000000000000000000000017c00000000000000000000000000000000000000000000000000000000000001860000000000000000000000000000000000000000000000000000000000000190000000000000000000000000000000000000000000000000000000000000019a00000000000000000000000000000000000000000000000000000000000001a400000000000000000000000000000000000000000000000000000000000001ae00000000000000000000000000000000000000000000000000000000000001b800000000000000000000000000000000000000000000000000000000000001c200000000000000000000000000000000000000000000000000000000000001cc00000000000000000000000000000000000000000000000000000000000001d600000000000000000000000000000000000000000000000000000000000001e000000000000000000000000000000000000000000000000000000000000001ea00000000000000000000000000000000000000000000000000000000000001f400000000000000000000000000000000000000000000000000000000000001fe00000000000000000000000000000000000000000000000000000000000002080000000000000000000000000000000000000000000000000000000000000212000000000000000000000000000000000000000000000000000000000000021c00000000000000000000000000000000000000000000000000000000000002260000000000000000000000000000000000000000000000000000000000000230000000000000000000000000000000000000000000000000000000000000023a0000000000000000000000000000000000000000000000000000000000000244000000000000000000000000000000000000000000000000000000000000024e0000000000000000000000000000000000000000000000000000000000000763400000000000000000000000000000000000000000000000000000000000000010000000000000000000000000000000000000000000000000000000000000060000000000000000000000000000000000000000000000000000000000000001600030100110100000000000000000000000000030d400000000000000000000000000000000000000000000000000000000000000000000000000000000076340000000000000000000000000000000000000000000000000000000000000002000000000000000000000000000000000000000000000000000000000000006000000000000000000000000000000000000000000000000000000000000000160003010011010000000000000000000000000003d09000000000000000000000000000000000000000000000000000000000000000000000000000000000764800000000000000000000000000000000000000000000000000000000000000010000000000000000000000000000000000000000000000000000000000000060000000000000000000000000000000000000000000000000000000000000001600030100110100000000000000000000000000030d400000000000000000000000000000000000000000000000000000000000000000000000000000000076480000000000000000000000000000000000000000000000000000000000000002000000000000000000000000000000000000000000000000000000000000006000000000000000000000000000000000000000000000000000000000000000160003010011010000000000000000000000000003d09000000000000000000000000000000000000000000000000000000000000000000000000000000000762f00000000000000000000000000000000000000000000000000000000000000010000000000000000000000000000000000000000000000000000000000000060000000000000000000000000000000000000000000000000000000000000001600030100110100000000000000000000000000030d4000000000000000000000000000000000000000000000000000000000000000000000000000000000762f0000000000000000000000000000000000000000000000000000000000000002000000000000000000000000000000000000000000000000000000000000006000000000000000000000000000000000000000000000000000000000000000160003010011010000000000000000000000000003d09000000000000000000000000000000000000000000000000000000000000000000000000000000000764200000000000000000000000000000000000000000000000000000000000000010000000000000000000000000000000000000000000000000000000000000060000000000000000000000000000000000000000000000000000000000000001600030100110100000000000000000000000000030d400000000000000000000000000000000000000000000000000000000000000000000000000000000076420000000000000000000000000000000000000000000000000000000000000002000000000000000000000000000000000000000000000000000000000000006000000000000000000000000000000000000000000000000000000000000000160003010011010000000000000000000000000003d09000000000000000000000000000000000000000000000000000000000000000000000000000000000767c00000000000000000000000000000000000000000000000000000000000000010000000000000000000000000000000000000000000000000000000000000060000000000000000000000000000000000000000000000000000000000000001600030100110100000000000000000000000000030d4000000000000000000000000000000000000000000000000000000000000000000000000000000000767c0000000000000000000000000000000000000000000000000000000000000002000000000000000000000000000000000000000000000000000000000000006000000000000000000000000000000000000000000000000000000000000000160003010011010000000000000000000000000003d09000000000000000000000000000000000000000000000000000000000000000000000000000000000768300000000000000000000000000000000000000000000000000000000000000010000000000000000000000000000000000000000000000000000000000000060000000000000000000000000000000000000000000000000000000000000001600030100110100000000000000000000000000030d400000000000000000000000000000000000000000000000000000000000000000000000000000000076830000000000000000000000000000000000000000000000000000000000000002000000000000000000000000000000000000000000000000000000000000006000000000000000000000000000000000000000000000000000000000000000160003010011010000000000000000000000000003d09000000000000000000000000000000000000000000000000000000000000000000000000000000000759e00000000000000000000000000000000000000000000000000000000000000010000000000000000000000000000000000000000000000000000000000000060000000000000000000000000000000000000000000000000000000000000001600030100110100000000000000000000000000030d4000000000000000000000000000000000000000000000000000000000000000000000000000000000759e0000000000000000000000000000000000000000000000000000000000000002000000000000000000000000000000000000000000000000000000000000006000000000000000000000000000000000000000000000000000000000000000160003010011010000000000000000000000000003d09000000000000000000000000000000000000000000000000000000000000000000000000000000000759f00000000000000000000000000000000000000000000000000000000000000010000000000000000000000000000000000000000000000000000000000000060000000000000000000000000000000000000000000000000000000000000001600030100110100000000000000000000000000030d4000000000000000000000000000000000000000000000000000000000000000000000000000000000759f0000000000000000000000000000000000000000000000000000000000000002000000000000000000000000000000000000000000000000000000000000006000000000000000000000000000000000000000000000000000000000000000160003010011010000000000000000000000000003d09000000000000000000000000000000000000000000000000000000000000000000000000000000000759d00000000000000000000000000000000000000000000000000000000000000010000000000000000000000000000000000000000000000000000000000000060000000000000000000000000000000000000000000000000000000000000001600030100110100000000000000000000000000030d4000000000000000000000000000000000000000000000000000000000000000000000000000000000759d0000000000000000000000000000000000000000000000000000000000000002000000000000000000000000000000000000000000000000000000000000006000000000000000000000000000000000000000000000000000000000000000160003010011010000000000000000000000000003d09000000000000000000000000000000000000000000000000000000000000000000000000000000000759a00000000000000000000000000000000000000000000000000000000000000010000000000000000000000000000000000000000000000000000000000000060000000000000000000000000000000000000000000000000000000000000001600030100110100000000000000000000000000030d4000000000000000000000000000000000000000000000000000000000000000000000000000000000759a0000000000000000000000000000000000000000000000000000000000000002000000000000000000000000000000000000000000000000000000000000006000000000000000000000000000000000000000000000000000000000000000160003010011010000000000000000000000000003d09000000000000000000000000000000000000000000000000000000000000000000000000000000000759600000000000000000000000000000000000000000000000000000000000000010000000000000000000000000000000000000000000000000000000000000060000000000000000000000000000000000000000000000000000000000000001600030100110100000000000000000000000000030d400000000000000000000000000000000000000000000000000000000000000000000000000000000075960000000000000000000000000000000000000000000000000000000000000002000000000000000000000000000000000000000000000000000000000000006000000000000000000000000000000000000000000000000000000000000000160003010011010000000000000000000000000003d0900000000000000000000000000000000000000000000000000000000000000000000000000000000075ce00000000000000000000000000000000000000000000000000000000000000010000000000000000000000000000000000000000000000000000000000000060000000000000000000000000000000000000000000000000000000000000001600030100110100000000000000000000000000030d400000000000000000000000000000000000000000000000000000000000000000000000000000000075ce0000000000000000000000000000000000000000000000000000000000000002000000000000000000000000000000000000000000000000000000000000006000000000000000000000000000000000000000000000000000000000000000160003010011010000000000000000000000000003d09000000000000000000000000000000000000000000000000000000000000000000000000000000000759500000000000000000000000000000000000000000000000000000000000000010000000000000000000000000000000000000000000000000000000000000060000000000000000000000000000000000000000000000000000000000000001600030100110100000000000000000000000000030d400000000000000000000000000000000000000000000000000000000000000000000000000000000075950000000000000000000000000000000000000000000000000000000000000002000000000000000000000000000000000000000000000000000000000000006000000000000000000000000000000000000000000000000000000000000000160003010011010000000000000000000000000003d09000000000000000000000000000000000000000000000000000000000000000000000000000000000762300000000000000000000000000000000000000000000000000000000000000010000000000000000000000000000000000000000000000000000000000000060000000000000000000000000000000000000000000000000000000000000001600030100110100000000000000000000000000030d400000000000000000000000000000000000000000000000000000000000000000000000000000000076230000000000000000000000000000000000000000000000000000000000000002000000000000000000000000000000000000000000000000000000000000006000000000000000000000000000000000000000000000000000000000000000160003010011010000000000000000000000000003d0900000000000000000000000000000000000000000000000000000000000000000000000000000000075e800000000000000000000000000000000000000000000000000000000000000010000000000000000000000000000000000000000000000000000000000000060000000000000000000000000000000000000000000000000000000000000001600030100110100000000000000000000000000030d400000000000000000000000000000000000000000000000000000000000000000000000000000000075e80000000000000000000000000000000000000000000000000000000000000002000000000000000000000000000000000000000000000000000000000000006000000000000000000000000000000000000000000000000000000000000000160003010011010000000000000000000000000003d09000000000000000000000000000000000000000000000000000000000000000000000000000000000769a00000000000000000000000000000000000000000000000000000000000000010000000000000000000000000000000000000000000000000000000000000060000000000000000000000000000000000000000000000000000000000000001600030100110100000000000000000000000000030d4000000000000000000000000000000000000000000000000000000000000000000000000000000000769a0000000000000000000000000000000000000000000000000000000000000002000000000000000000000000000000000000000000000000000000000000006000000000000000000000000000000000000000000000000000000000000000160003010011010000000000000000000000000003d0900000000000000000000000000000000000000000000000000000000000000000000000000000000075e700000000000000000000000000000000000000000000000000000000000000010000000000000000000000000000000000000000000000000000000000000060000000000000000000000000000000000000000000000000000000000000001600030100110100000000000000000000000000030d400000000000000000000000000000000000000000000000000000000000000000000000000000000075e70000000000000000000000000000000000000000000000000000000000000002000000000000000000000000000000000000000000000000000000000000006000000000000000000000000000000000000000000000000000000000000000160003010011010000000000000000000000000003d09000000000000000000000000000000000000000000000000000000000000000000000000000000000766f00000000000000000000000000000000000000000000000000000000000000010000000000000000000000000000000000000000000000000000000000000060000000000000000000000000000000000000000000000000000000000000001600030100110100000000000000000000000000030d4000000000000000000000000000000000000000000000000000000000000000000000000000000000766f0000000000000000000000000000000000000000000000000000000000000002000000000000000000000000000000000000000000000000000000000000006000000000000000000000000000000000000000000000000000000000000000160003010011010000000000000000000000000003d09000000000000000000000000000000000000000000000000000000000000000000000000000000000767000000000000000000000000000000000000000000000000000000000000000010000000000000000000000000000000000000000000000000000000000000060000000000000000000000000000000000000000000000000000000000000001600030100110100000000000000000000000000030d400000000000000000000000000000000000000000000000000000000000000000000000000000000076700000000000000000000000000000000000000000000000000000000000000002000000000000000000000000000000000000000000000000000000000000006000000000000000000000000000000000000000000000000000000000000000160003010011010000000000000000000000000003d0900000000000000000000000000000000000000000000000000000000000000000000000000000000076a200000000000000000000000000000000000000000000000000000000000000010000000000000000000000000000000000000000000000000000000000000060000000000000000000000000000000000000000000000000000000000000001600030100110100000000000000000000000000030d400000000000000000000000000000000000000000000000000000000000000000000000000000000076a20000000000000000000000000000000000000000000000000000000000000002000000000000000000000000000000000000000000000000000000000000006000000000000000000000000000000000000000000000000000000000000000160003010011010000000000000000000000000003d0900000000000000000000000000000000000000000000000000000000000000000000000000000000076a800000000000000000000000000000000000000000000000000000000000000010000000000000000000000000000000000000000000000000000000000000060000000000000000000000000000000000000000000000000000000000000001600030100110100000000000000000000000000030d400000000000000000000000000000000000000000000000000000000000000000000000000000000076a80000000000000000000000000000000000000000000000000000000000000002000000000000000000000000000000000000000000000000000000000000006000000000000000000000000000000000000000000000000000000000000000160003010011010000000000000000000000000003d0900000000000000000000000000000000000000000000000000000000000000000000000000000000076a700000000000000000000000000000000000000000000000000000000000000010000000000000000000000000000000000000000000000000000000000000060000000000000000000000000000000000000000000000000000000000000001600030100110100000000000000000000000000030d400000000000000000000000000000000000000000000000000000000000000000000000000000000076a70000000000000000000000000000000000000000000000000000000000000002000000000000000000000000000000000000000000000000000000000000006000000000000000000000000000000000000000000000000000000000000000160003010011010000000000000000000000000003d09000000000000000000000000000000000000000000000000000000000000000000000000000000000760600000000000000000000000000000000000000000000000000000000000000010000000000000000000000000000000000000000000000000000000000000060000000000000000000000000000000000000000000000000000000000000001600030100110100000000000000000000000000030d400000000000000000000000000000000000000000000000000000000000000000000000000000000076060000000000000000000000000000000000000000000000000000000000000002000000000000000000000000000000000000000000000000000000000000006000000000000000000000000000000000000000000000000000000000000000160003010011010000000000000000000000000003d09000000000000000000000000000000000000000000000000000000000000000000000000000000000767400000000000000000000000000000000000000000000000000000000000000010000000000000000000000000000000000000000000000000000000000000060000000000000000000000000000000000000000000000000000000000000001600030100110100000000000000000000000000030d400000000000000000000000000000000000000000000000000000000000000000000000000000000076740000000000000000000000000000000000000000000000000000000000000002000000000000000000000000000000000000000000000000000000000000006000000000000000000000000000000000000000000000000000000000000000160003010011010000000000000000000000000003d0900000000000000000000000000000000000000000000000000000000000000000000000000000000075d500000000000000000000000000000000000000000000000000000000000000010000000000000000000000000000000000000000000000000000000000000060000000000000000000000000000000000000000000000000000000000000001600030100110100000000000000000000000000030d400000000000000000000000000000000000000000000000000000000000000000000000000000000075d50000000000000000000000000000000000000000000000000000000000000002000000000000000000000000000000000000000000000000000000000000006000000000000000000000000000000000000000000000000000000000000000160003010011010000000000000000000000000003d09000000000000000000000",
          "blockHash": "0xa0c1ff8deb0bcc53bd560263d69e229b39ea897443f06563940a0f3947dd66be",
          "blockNumber": "0x99c4db2",
          "transactionHash": "0xf74c63a9e90c5e3a61d3cee0f7ee633235e96e52b87bcd8e68dfbea51edd371a",
          "transactionIndex": "0x0",
          "logIndex": "0x0",
          "removed": false
        }
      ],
      "logsBloom": "0x00000000000080000000000000000000000000000000000000000000000000000000000020000000000000000000000000000000000000000000400000000000000000000000000000000000000000000000000000000000000000000000000000000000000000000000000000000000000000000000000000000000000000000000000000000000000000000000000000000000000000000000000000080000000000000000800000000000000000000000000000000000000000000000000000000000000000000000000002000000000000000000000000000000000000000000000000000000000000000000000000000000000000000000000000000000",
      "type": "0x0",
      "transactionHash": "0xf74c63a9e90c5e3a61d3cee0f7ee633235e96e52b87bcd8e68dfbea51edd371a",
      "transactionIndex": "0x0",
      "blockHash": "0xa0c1ff8deb0bcc53bd560263d69e229b39ea897443f06563940a0f3947dd66be",
      "blockNumber": "0x99c4db2",
      "gasUsed": "0x1578dd",
      "effectiveGasPrice": "0x42c1d80",
      "from": "0x45dce8e4f2dc005a5f28206a46cb034697eeda8e",
      "to": "0xa057d8d4fc86a62801ce363c169b0a8d192f6cee",
      "contractAddress": null,
      "nearReceiptHash": "0x002417bebe2615a83f3866fd75fc3bfdd759c5cd37b4243a2a841284b3446243",
      "nearTransactionHash": "0x3f85142a477ee3144f3d405f22ac723c0ac3cb3a9fda574c478e8df88143a91b"
    },
    {
      "status": "0x1",
      "cumulativeGasUsed": "0x0",
      "logs": [
        {
          "address": "0xa057d8d4fc86a62801ce363c169b0a8d192f6cee",
          "topics": [
            "0x238399d427b947898edb290f5ff0f9109849b1c3ba196a42e35f00c50a54b98b"
          ],
          "data": "0x000000000000000000000000000000000000000000000000000000000000763400000000000000000000000057558cb8d6005de0bae8a2789d5efaae52dba5a8",
          "blockHash": "0x4fccb951e3b08068e158f367ed0ec5288cc6fc3e92e3d873d7228d426c2cb491",
          "blockNumber": "0x99c4dbc",
          "transactionHash": "0x806ced9a65fb929a90f6ffd956d3ff4a0484e9ebd13bdc18f968b8c924962102",
          "transactionIndex": "0x0",
          "logIndex": "0x0",
          "removed": false
        }
      ],
      "logsBloom": "0x00000000000080000000000000000000000000000000000000000000000000000000000020000000000000000000000000000000000000000800000000000000000000000000000000000000000000000000000000000000000000000000000000000000000000000000000000000000000000000000000000000000000000000000000000000000000000000000000000000000000000000000000000000000000000000000800000000000000000000000000000000000000002000000000000000000000000000000000000000000000000000000000000040000000000000000000000000000000000000000000000000000000000000000000000000000",
      "type": "0x0",
      "transactionHash": "0x806ced9a65fb929a90f6ffd956d3ff4a0484e9ebd13bdc18f968b8c924962102",
      "transactionIndex": "0x0",
      "blockHash": "0x4fccb951e3b08068e158f367ed0ec5288cc6fc3e92e3d873d7228d426c2cb491",
      "blockNumber": "0x99c4dbc",
      "gasUsed": "0xd6d7",
      "effectiveGasPrice": "0x42c1d80",
      "from": "0x45dce8e4f2dc005a5f28206a46cb034697eeda8e",
      "to": "0xa057d8d4fc86a62801ce363c169b0a8d192f6cee",
      "contractAddress": null,
      "nearReceiptHash": "0x103d357eca76f82a1eacabbe34700c919674443eb89fc030dcee00b59cb83ad1",
      "nearTransactionHash": "0x91022e5cde8d0580095a603bfb31a7b060b6c7c57c734cfcf285e9cda502ebe7"
    },
    {
      "status": "0x1",
      "cumulativeGasUsed": "0x0",
      "logs": [
        {
          "address": "0xa057d8d4fc86a62801ce363c169b0a8d192f6cee",
          "topics": [
            "0x238399d427b947898edb290f5ff0f9109849b1c3ba196a42e35f00c50a54b98b"
          ],
          "data": "0x000000000000000000000000000000000000000000000000000000000000764800000000000000000000000057558cb8d6005de0bae8a2789d5efaae52dba5a8",
          "blockHash": "0xd892d16b2dff6ea816cd058c69b460b98dd1af0acd425f2f9f28836cb73113a3",
          "blockNumber": "0x99c4dc5",
          "transactionHash": "0xdcadfcf5eb24b3cfbc9cc3a6c467de91377eb1b005aedcbe8b54bf61c0ff3801",
          "transactionIndex": "0x0",
          "logIndex": "0x0",
          "removed": false
        }
      ],
      "logsBloom": "0x00000000000080000000000000000000000000000000000000000000000000000000000020000000000000000000000000000000000000000800000000000000000000000000000000000000000000000000000000000000000000000000000000000000000000000000000000000000000000000000000000000000000000000000000000000000000000000000000000000000000000000000000000000000000000000000800000000000000000000000000000000000000002000000000000000000000000000000000000000000000000000000000000040000000000000000000000000000000000000000000000000000000000000000000000000000",
      "type": "0x0",
      "transactionHash": "0xdcadfcf5eb24b3cfbc9cc3a6c467de91377eb1b005aedcbe8b54bf61c0ff3801",
      "transactionIndex": "0x0",
      "blockHash": "0xd892d16b2dff6ea816cd058c69b460b98dd1af0acd425f2f9f28836cb73113a3",
      "blockNumber": "0x99c4dc5",
      "gasUsed": "0xd6d7",
      "effectiveGasPrice": "0x42c1d80",
      "from": "0x45dce8e4f2dc005a5f28206a46cb034697eeda8e",
      "to": "0xa057d8d4fc86a62801ce363c169b0a8d192f6cee",
      "contractAddress": null,
      "nearReceiptHash": "0x249577125e5bbcc01556e3e6ab3cf98e586ff688b3b4e10fc77db902f5d169b8",
      "nearTransactionHash": "0x99990673aaa5c89a121711ba0fba078f1b5f9a2008b5ba9ba289fe995d12f53a"
    },
    {
      "status": "0x1",
      "cumulativeGasUsed": "0x0",
      "logs": [
        {
          "address": "0xa057d8d4fc86a62801ce363c169b0a8d192f6cee",
          "topics": [
            "0x238399d427b947898edb290f5ff0f9109849b1c3ba196a42e35f00c50a54b98b"
          ],
          "data": "0x000000000000000000000000000000000000000000000000000000000000762f00000000000000000000000057558cb8d6005de0bae8a2789d5efaae52dba5a8",
          "blockHash": "0x2f357bd61f7936ddc09b943a7a8763e5f117e7e05003d3c73e33eb4b6809cd9f",
          "blockNumber": "0x99c4dd1",
          "transactionHash": "0xb693faf2206edacb98eee76298fe5646c53a01b4b61e3766ea4e5249bc4b9843",
          "transactionIndex": "0x0",
          "logIndex": "0x0",
          "removed": false
        }
      ],
      "logsBloom": "0x00000000000080000000000000000000000000000000000000000000000000000000000020000000000000000000000000000000000000000800000000000000000000000000000000000000000000000000000000000000000000000000000000000000000000000000000000000000000000000000000000000000000000000000000000000000000000000000000000000000000000000000000000000000000000000000800000000000000000000000000000000000000002000000000000000000000000000000000000000000000000000000000000040000000000000000000000000000000000000000000000000000000000000000000000000000",
      "type": "0x0",
      "transactionHash": "0xb693faf2206edacb98eee76298fe5646c53a01b4b61e3766ea4e5249bc4b9843",
      "transactionIndex": "0x0",
      "blockHash": "0x2f357bd61f7936ddc09b943a7a8763e5f117e7e05003d3c73e33eb4b6809cd9f",
      "blockNumber": "0x99c4dd1",
      "gasUsed": "0xd6d7",
      "effectiveGasPrice": "0x42c1d80",
      "from": "0x45dce8e4f2dc005a5f28206a46cb034697eeda8e",
      "to": "0xa057d8d4fc86a62801ce363c169b0a8d192f6cee",
      "contractAddress": null,
      "nearReceiptHash": "0x60ef8d3f000c1044677c3a6b7573bf076248cba9dcfc9f3c5d7a8cc14df06247",
      "nearTransactionHash": "0x8cb1550ba6f465ee85a6c431a34967ed8fe014020fc08406c0b1ea73679e3db4"
    },
    {
      "status": "0x1",
      "cumulativeGasUsed": "0x0",
      "logs": [
        {
          "address": "0xa057d8d4fc86a62801ce363c169b0a8d192f6cee",
          "topics": [
            "0x238399d427b947898edb290f5ff0f9109849b1c3ba196a42e35f00c50a54b98b"
          ],
          "data": "0x000000000000000000000000000000000000000000000000000000000000764200000000000000000000000057558cb8d6005de0bae8a2789d5efaae52dba5a8",
          "blockHash": "0x278f5c8f03a9a40594c060f4bfec37d2a570d5d8014c7c9bed4800a0d652f6fd",
          "blockNumber": "0x99c4dda",
          "transactionHash": "0x8e9305994007ae274086688105951ce4a438111c4ecebc7086a83f3d2fcf8811",
          "transactionIndex": "0x0",
          "logIndex": "0x0",
          "removed": false
        }
      ],
      "logsBloom": "0x00000000000080000000000000000000000000000000000000000000000000000000000020000000000000000000000000000000000000000800000000000000000000000000000000000000000000000000000000000000000000000000000000000000000000000000000000000000000000000000000000000000000000000000000000000000000000000000000000000000000000000000000000000000000000000000800000000000000000000000000000000000000002000000000000000000000000000000000000000000000000000000000000040000000000000000000000000000000000000000000000000000000000000000000000000000",
      "type": "0x0",
      "transactionHash": "0x8e9305994007ae274086688105951ce4a438111c4ecebc7086a83f3d2fcf8811",
      "transactionIndex": "0x0",
      "blockHash": "0x278f5c8f03a9a40594c060f4bfec37d2a570d5d8014c7c9bed4800a0d652f6fd",
      "blockNumber": "0x99c4dda",
      "gasUsed": "0xd6d7",
      "effectiveGasPrice": "0x42c1d80",
      "from": "0x45dce8e4f2dc005a5f28206a46cb034697eeda8e",
      "to": "0xa057d8d4fc86a62801ce363c169b0a8d192f6cee",
      "contractAddress": null,
      "nearReceiptHash": "0xc34b6eebcb561ead41abbe158aa104c30721cd508e5a528b85744f356e19bdd6",
      "nearTransactionHash": "0x106d39c6ed4077f8170c88f45fd72a12edfd9a3afa52e46cc9ec1fbe4c3a5dd5"
    },
    {
      "status": "0x1",
      "cumulativeGasUsed": "0x0",
      "logs": [
        {
          "address": "0xa057d8d4fc86a62801ce363c169b0a8d192f6cee",
          "topics": [
            "0x238399d427b947898edb290f5ff0f9109849b1c3ba196a42e35f00c50a54b98b"
          ],
          "data": "0x000000000000000000000000000000000000000000000000000000000000767c00000000000000000000000057558cb8d6005de0bae8a2789d5efaae52dba5a8",
          "blockHash": "0x455b4dd3c4e26aa32a88d888205a65a803da89c7d91f07a0befc7217812886d7",
          "blockNumber": "0x99c4dec",
          "transactionHash": "0x12555afbc62aa12ef181b301fecfb9af5e4c08ec89cf38c34402bb9f9cf87d7b",
          "transactionIndex": "0x0",
          "logIndex": "0x0",
          "removed": false
        }
      ],
      "logsBloom": "0x00000000000080000000000000000000000000000000000000000000000000000000000020000000000000000000000000000000000000000800000000000000000000000000000000000000000000000000000000000000000000000000000000000000000000000000000000000000000000000000000000000000000000000000000000000000000000000000000000000000000000000000000000000000000000000000800000000000000000000000000000000000000002000000000000000000000000000000000000000000000000000000000000040000000000000000000000000000000000000000000000000000000000000000000000000000",
      "type": "0x0",
      "transactionHash": "0x12555afbc62aa12ef181b301fecfb9af5e4c08ec89cf38c34402bb9f9cf87d7b",
      "transactionIndex": "0x0",
      "blockHash": "0x455b4dd3c4e26aa32a88d888205a65a803da89c7d91f07a0befc7217812886d7",
      "blockNumber": "0x99c4dec",
      "gasUsed": "0xd6d7",
      "effectiveGasPrice": "0x42c1d80",
      "from": "0x45dce8e4f2dc005a5f28206a46cb034697eeda8e",
      "to": "0xa057d8d4fc86a62801ce363c169b0a8d192f6cee",
      "contractAddress": null,
      "nearReceiptHash": "0xaf35c08c2279ed14cd0cf4d6a7edc109f6d236de63d1609d9b5e2b3d1d205f42",
      "nearTransactionHash": "0x272fea16e8a71d6df2cb66d59dcbb6c9af8663fcc89bb52df6b1a7404e75e850"
    },
    {
      "status": "0x1",
      "cumulativeGasUsed": "0x0",
      "logs": [
        {
          "address": "0xa057d8d4fc86a62801ce363c169b0a8d192f6cee",
          "topics": [
            "0x238399d427b947898edb290f5ff0f9109849b1c3ba196a42e35f00c50a54b98b"
          ],
          "data": "0x000000000000000000000000000000000000000000000000000000000000768300000000000000000000000057558cb8d6005de0bae8a2789d5efaae52dba5a8",
          "blockHash": "0xa9dcd8296aa3f0db5ba2fc355867fae2bbc71ba42bb961e80878b8e5012aaa5a",
          "blockNumber": "0x99c4dfa",
          "transactionHash": "0x15ef70c3c460bb003690a801b95d20183110e6efa03b71b7eb8cd4552023245e",
          "transactionIndex": "0x0",
          "logIndex": "0x0",
          "removed": false
        }
      ],
      "logsBloom": "0x00000000000080000000000000000000000000000000000000000000000000000000000020000000000000000000000000000000000000000800000000000000000000000000000000000000000000000000000000000000000000000000000000000000000000000000000000000000000000000000000000000000000000000000000000000000000000000000000000000000000000000000000000000000000000000000800000000000000000000000000000000000000002000000000000000000000000000000000000000000000000000000000000040000000000000000000000000000000000000000000000000000000000000000000000000000",
      "type": "0x0",
      "transactionHash": "0x15ef70c3c460bb003690a801b95d20183110e6efa03b71b7eb8cd4552023245e",
      "transactionIndex": "0x0",
      "blockHash": "0xa9dcd8296aa3f0db5ba2fc355867fae2bbc71ba42bb961e80878b8e5012aaa5a",
      "blockNumber": "0x99c4dfa",
      "gasUsed": "0xd6d7",
      "effectiveGasPrice": "0x42c1d80",
      "from": "0x45dce8e4f2dc005a5f28206a46cb034697eeda8e",
      "to": "0xa057d8d4fc86a62801ce363c169b0a8d192f6cee",
      "contractAddress": null,
      "nearReceiptHash": "0x332ef847d6d5cb8407b437af7c85749c7f35471adaebff982d28efd7a97f0f9d",
      "nearTransactionHash": "0xb7c8b463efb75688bccc865c4bf52a2aa16a2ce3c0b38453ce4ad024d2a947ba"
    },
    {
      "status": "0x1",
      "cumulativeGasUsed": "0x0",
      "logs": [
        {
          "address": "0xa057d8d4fc86a62801ce363c169b0a8d192f6cee",
          "topics": [
            "0x238399d427b947898edb290f5ff0f9109849b1c3ba196a42e35f00c50a54b98b"
          ],
          "data": "0x000000000000000000000000000000000000000000000000000000000000759e00000000000000000000000057558cb8d6005de0bae8a2789d5efaae52dba5a8",
          "blockHash": "0x69c678e32b903e02ccc616723cdf0c47b6c66254032db736d7e40033ca8ab5be",
          "blockNumber": "0x99c4e0b",
          "transactionHash": "0x2d5950a1f5f9b22218faa15798bc5e093a1b77bacf928addc4bf22f34799bb04",
          "transactionIndex": "0x1",
          "logIndex": "0x0",
          "removed": false
        }
      ],
      "logsBloom": "0x00000000000080000000000000000000000000000000000000000000000000000000000020000000000000000000000000000000000000000800000000000000000000000000000000000000000000000000000000000000000000000000000000000000000000000000000000000000000000000000000000000000000000000000000000000000000000000000000000000000000000000000000000000000000000000000800000000000000000000000000000000000000002000000000000000000000000000000000000000000000000000000000000040000000000000000000000000000000000000000000000000000000000000000000000000000",
      "type": "0x0",
      "transactionHash": "0x2d5950a1f5f9b22218faa15798bc5e093a1b77bacf928addc4bf22f34799bb04",
      "transactionIndex": "0x1",
      "blockHash": "0x69c678e32b903e02ccc616723cdf0c47b6c66254032db736d7e40033ca8ab5be",
      "blockNumber": "0x99c4e0b",
      "gasUsed": "0xd6d7",
      "effectiveGasPrice": "0x42c1d80",
      "from": "0x45dce8e4f2dc005a5f28206a46cb034697eeda8e",
      "to": "0xa057d8d4fc86a62801ce363c169b0a8d192f6cee",
      "contractAddress": null,
      "nearReceiptHash": "0x6a3f40fb4f2e51f5efa92ff98be1dcf4c102cdb9b25eb6b0b092fe0180cb0bce",
      "nearTransactionHash": "0xf4817fa6fcb51ddb3592e4433923611dc403aaf5aac06030c57a39423e02236d"
    },
    {
      "status": "0x1",
      "cumulativeGasUsed": "0x0",
      "logs": [
        {
          "address": "0xa057d8d4fc86a62801ce363c169b0a8d192f6cee",
          "topics": [
            "0x238399d427b947898edb290f5ff0f9109849b1c3ba196a42e35f00c50a54b98b"
          ],
          "data": "0x000000000000000000000000000000000000000000000000000000000000759f00000000000000000000000057558cb8d6005de0bae8a2789d5efaae52dba5a8",
          "blockHash": "0x191faf4393e88621d53c492a4584e258a71ff1f7e52588acf1f2badfa0a9f2fb",
          "blockNumber": "0x99c4e1b",
          "transactionHash": "0x79e67d554a9cd898627e07f37934b6d05242d55a031f122f1444b06cba20e682",
          "transactionIndex": "0x0",
          "logIndex": "0x0",
          "removed": false
        }
      ],
      "logsBloom": "0x00000000000080000000000000000000000000000000000000000000000000000000000020000000000000000000000000000000000000000800000000000000000000000000000000000000000000000000000000000000000000000000000000000000000000000000000000000000000000000000000000000000000000000000000000000000000000000000000000000000000000000000000000000000000000000000800000000000000000000000000000000000000002000000000000000000000000000000000000000000000000000000000000040000000000000000000000000000000000000000000000000000000000000000000000000000",
      "type": "0x0",
      "transactionHash": "0x79e67d554a9cd898627e07f37934b6d05242d55a031f122f1444b06cba20e682",
      "transactionIndex": "0x0",
      "blockHash": "0x191faf4393e88621d53c492a4584e258a71ff1f7e52588acf1f2badfa0a9f2fb",
      "blockNumber": "0x99c4e1b",
      "gasUsed": "0xd6d7",
      "effectiveGasPrice": "0x42c1d80",
      "from": "0x45dce8e4f2dc005a5f28206a46cb034697eeda8e",
      "to": "0xa057d8d4fc86a62801ce363c169b0a8d192f6cee",
      "contractAddress": null,
      "nearReceiptHash": "0x02efb1683f1d117c1e0b98655f3e93c5c075a753463750712844968e6243e90b",
      "nearTransactionHash": "0xbc09112a83cb931c2c0671e0dde292c1fd807907d9102b6529d6a7757441b257"
    },
    {
      "status": "0x1",
      "cumulativeGasUsed": "0x0",
      "logs": [
        {
          "address": "0xa057d8d4fc86a62801ce363c169b0a8d192f6cee",
          "topics": [
            "0x238399d427b947898edb290f5ff0f9109849b1c3ba196a42e35f00c50a54b98b"
          ],
          "data": "0x000000000000000000000000000000000000000000000000000000000000759d00000000000000000000000057558cb8d6005de0bae8a2789d5efaae52dba5a8",
          "blockHash": "0xdfa8aeea4f2caa88828def0a71f1d9af09d28c37accb052074695fae4d9e1e02",
          "blockNumber": "0x99c4e2a",
          "transactionHash": "0x7070beda57f1025fff2f3711d437f490d342f0b9c4ee0c6752e6003c45a20e33",
          "transactionIndex": "0x0",
          "logIndex": "0x0",
          "removed": false
        }
      ],
      "logsBloom": "0x00000000000080000000000000000000000000000000000000000000000000000000000020000000000000000000000000000000000000000800000000000000000000000000000000000000000000000000000000000000000000000000000000000000000000000000000000000000000000000000000000000000000000000000000000000000000000000000000000000000000000000000000000000000000000000000800000000000000000000000000000000000000002000000000000000000000000000000000000000000000000000000000000040000000000000000000000000000000000000000000000000000000000000000000000000000",
      "type": "0x0",
      "transactionHash": "0x7070beda57f1025fff2f3711d437f490d342f0b9c4ee0c6752e6003c45a20e33",
      "transactionIndex": "0x0",
      "blockHash": "0xdfa8aeea4f2caa88828def0a71f1d9af09d28c37accb052074695fae4d9e1e02",
      "blockNumber": "0x99c4e2a",
      "gasUsed": "0xd6d7",
      "effectiveGasPrice": "0x42c1d80",
      "from": "0x45dce8e4f2dc005a5f28206a46cb034697eeda8e",
      "to": "0xa057d8d4fc86a62801ce363c169b0a8d192f6cee",
      "contractAddress": null,
      "nearReceiptHash": "0xdbc3b19068a91c488524bdde043d61d5125cfac08533ff1796ebc0b1af32b375",
      "nearTransactionHash": "0xce2a03746f5adf43c22409ba316a24b8708a2e64362fcdb17d0819769d675fa7"
    },
    {
      "status": "0x1",
      "cumulativeGasUsed": "0x0",
      "logs": [
        {
          "address": "0xa057d8d4fc86a62801ce363c169b0a8d192f6cee",
          "topics": [
            "0x238399d427b947898edb290f5ff0f9109849b1c3ba196a42e35f00c50a54b98b"
          ],
          "data": "0x000000000000000000000000000000000000000000000000000000000000759a00000000000000000000000057558cb8d6005de0bae8a2789d5efaae52dba5a8",
          "blockHash": "0x52a3692543b903f6875b715f4aeee166dfaccb367647c614d4189edf08ce31fe",
          "blockNumber": "0x99c4e3b",
          "transactionHash": "0xb3e3037eb68668958a38f0f54f48f9fdf7ff0d41d6384cbd86c787f79078da7d",
          "transactionIndex": "0x0",
          "logIndex": "0x0",
          "removed": false
        }
      ],
      "logsBloom": "0x00000000000080000000000000000000000000000000000000000000000000000000000020000000000000000000000000000000000000000800000000000000000000000000000000000000000000000000000000000000000000000000000000000000000000000000000000000000000000000000000000000000000000000000000000000000000000000000000000000000000000000000000000000000000000000000800000000000000000000000000000000000000002000000000000000000000000000000000000000000000000000000000000040000000000000000000000000000000000000000000000000000000000000000000000000000",
      "type": "0x0",
      "transactionHash": "0xb3e3037eb68668958a38f0f54f48f9fdf7ff0d41d6384cbd86c787f79078da7d",
      "transactionIndex": "0x0",
      "blockHash": "0x52a3692543b903f6875b715f4aeee166dfaccb367647c614d4189edf08ce31fe",
      "blockNumber": "0x99c4e3b",
      "gasUsed": "0xd6d7",
      "effectiveGasPrice": "0x42c1d80",
      "from": "0x45dce8e4f2dc005a5f28206a46cb034697eeda8e",
      "to": "0xa057d8d4fc86a62801ce363c169b0a8d192f6cee",
      "contractAddress": null,
      "nearReceiptHash": "0xb005e1261ef4ae98372c5f932b4734754dcace4e31495368ed27cf85dbd667f3",
      "nearTransactionHash": "0x583db5873473dbb8be10a9f84d4f9f48c6b19ad277eca815aceb0ab719be3ccd"
    },
    {
      "status": "0x1",
      "cumulativeGasUsed": "0x0",
      "logs": [
        {
          "address": "0xa057d8d4fc86a62801ce363c169b0a8d192f6cee",
          "topics": [
            "0x238399d427b947898edb290f5ff0f9109849b1c3ba196a42e35f00c50a54b98b"
          ],
          "data": "0x000000000000000000000000000000000000000000000000000000000000759600000000000000000000000057558cb8d6005de0bae8a2789d5efaae52dba5a8",
          "blockHash": "0x500ba615851e2e88841c68ec69486046763088452404e296c8bf92e86005241c",
          "blockNumber": "0x99c4e47",
          "transactionHash": "0xf0703fcb97c88e14ddd70d33a8950df519651583583c089741c7c0c6447b88bc",
          "transactionIndex": "0x0",
          "logIndex": "0x0",
          "removed": false
        }
      ],
      "logsBloom": "0x00000000000080000000000000000000000000000000000000000000000000000000000020000000000000000000000000000000000000000800000000000000000000000000000000000000000000000000000000000000000000000000000000000000000000000000000000000000000000000000000000000000000000000000000000000000000000000000000000000000000000000000000000000000000000000000800000000000000000000000000000000000000002000000000000000000000000000000000000000000000000000000000000040000000000000000000000000000000000000000000000000000000000000000000000000000",
      "type": "0x0",
      "transactionHash": "0xf0703fcb97c88e14ddd70d33a8950df519651583583c089741c7c0c6447b88bc",
      "transactionIndex": "0x0",
      "blockHash": "0x500ba615851e2e88841c68ec69486046763088452404e296c8bf92e86005241c",
      "blockNumber": "0x99c4e47",
      "gasUsed": "0xd6d7",
      "effectiveGasPrice": "0x42c1d80",
      "from": "0x45dce8e4f2dc005a5f28206a46cb034697eeda8e",
      "to": "0xa057d8d4fc86a62801ce363c169b0a8d192f6cee",
      "contractAddress": null,
      "nearReceiptHash": "0x49062490c54168908c25c0a1d7d06e888b7d0eddd97e47773ec2846399c84eef",
      "nearTransactionHash": "0xcefe9bf1d384c52b298d4a09fcc22f70ff5ce87327f9ff48fa7b28c4e818d5f7"
    },
    {
      "status": "0x1",
      "cumulativeGasUsed": "0x0",
      "logs": [
        {
          "address": "0xa057d8d4fc86a62801ce363c169b0a8d192f6cee",
          "topics": [
            "0x238399d427b947898edb290f5ff0f9109849b1c3ba196a42e35f00c50a54b98b"
          ],
          "data": "0x00000000000000000000000000000000000000000000000000000000000075ce00000000000000000000000057558cb8d6005de0bae8a2789d5efaae52dba5a8",
          "blockHash": "0xf3ad5d8ab165ff4b8bc8492b8698fc40fd0c247e903a3b41ed65275d64431f1a",
          "blockNumber": "0x99c4e4f",
          "transactionHash": "0xdf794d31b31234c67bf70085251b6d68f40fbbcc44e4d34017731bd0c4ea076a",
          "transactionIndex": "0x0",
          "logIndex": "0x0",
          "removed": false
        }
      ],
      "logsBloom": "0x00000000000080000000000000000000000000000000000000000000000000000000000020000000000000000000000000000000000000000800000000000000000000000000000000000000000000000000000000000000000000000000000000000000000000000000000000000000000000000000000000000000000000000000000000000000000000000000000000000000000000000000000000000000000000000000800000000000000000000000000000000000000002000000000000000000000000000000000000000000000000000000000000040000000000000000000000000000000000000000000000000000000000000000000000000000",
      "type": "0x0",
      "transactionHash": "0xdf794d31b31234c67bf70085251b6d68f40fbbcc44e4d34017731bd0c4ea076a",
      "transactionIndex": "0x0",
      "blockHash": "0xf3ad5d8ab165ff4b8bc8492b8698fc40fd0c247e903a3b41ed65275d64431f1a",
      "blockNumber": "0x99c4e4f",
      "gasUsed": "0xd6d7",
      "effectiveGasPrice": "0x42c1d80",
      "from": "0x45dce8e4f2dc005a5f28206a46cb034697eeda8e",
      "to": "0xa057d8d4fc86a62801ce363c169b0a8d192f6cee",
      "contractAddress": null,
      "nearReceiptHash": "0x3b14af11691a28dcdd270749c6bf54fbc6b18a29f63ecc9ad97e14b3254d340d",
      "nearTransactionHash": "0x1ca8755adcd55243af35ca29c915c3cddb8957d79ad7039e23c7aa91302fe573"
    },
    {
      "status": "0x1",
      "cumulativeGasUsed": "0x0",
      "logs": [
        {
          "address": "0xa057d8d4fc86a62801ce363c169b0a8d192f6cee",
          "topics": [
            "0x238399d427b947898edb290f5ff0f9109849b1c3ba196a42e35f00c50a54b98b"
          ],
          "data": "0x000000000000000000000000000000000000000000000000000000000000759500000000000000000000000057558cb8d6005de0bae8a2789d5efaae52dba5a8",
          "blockHash": "0x3bf031db4bb042f7da4d3b7c45ac55ccca417461a3e5138bdea8e9ae09efafd0",
          "blockNumber": "0x99c4e56",
          "transactionHash": "0x292f674189c88e417af278c4621ebcc05037ae24965a3f2789931a6d3e6cd2af",
          "transactionIndex": "0x0",
          "logIndex": "0x0",
          "removed": false
        }
      ],
      "logsBloom": "0x00000000000080000000000000000000000000000000000000000000000000000000000020000000000000000000000000000000000000000800000000000000000000000000000000000000000000000000000000000000000000000000000000000000000000000000000000000000000000000000000000000000000000000000000000000000000000000000000000000000000000000000000000000000000000000000800000000000000000000000000000000000000002000000000000000000000000000000000000000000000000000000000000040000000000000000000000000000000000000000000000000000000000000000000000000000",
      "type": "0x0",
      "transactionHash": "0x292f674189c88e417af278c4621ebcc05037ae24965a3f2789931a6d3e6cd2af",
      "transactionIndex": "0x0",
      "blockHash": "0x3bf031db4bb042f7da4d3b7c45ac55ccca417461a3e5138bdea8e9ae09efafd0",
      "blockNumber": "0x99c4e56",
      "gasUsed": "0xd6d7",
      "effectiveGasPrice": "0x42c1d80",
      "from": "0x45dce8e4f2dc005a5f28206a46cb034697eeda8e",
      "to": "0xa057d8d4fc86a62801ce363c169b0a8d192f6cee",
      "contractAddress": null,
      "nearReceiptHash": "0x301785c110dc1374e935847479fdc58e0a6648071fa55ed907cd1813f28d0fe7",
      "nearTransactionHash": "0x7e03716331e326ab57f9fb8be25d721c0d0a70a925802a912699d228b33bce2b"
    },
    {
      "status": "0x1",
      "cumulativeGasUsed": "0x0",
      "logs": [
        {
          "address": "0xa057d8d4fc86a62801ce363c169b0a8d192f6cee",
          "topics": [
            "0x238399d427b947898edb290f5ff0f9109849b1c3ba196a42e35f00c50a54b98b"
          ],
          "data": "0x000000000000000000000000000000000000000000000000000000000000762300000000000000000000000057558cb8d6005de0bae8a2789d5efaae52dba5a8",
          "blockHash": "0x1a1f43f9b6c34ccb797b40b0e174b0c9a8f0425dcbe9f030900101b80097e448",
          "blockNumber": "0x99c4e5c",
          "transactionHash": "0xc6d06c1115294297042131326c197997cc76669ed2f46f9e3f15cab154d1937d",
          "transactionIndex": "0x0",
          "logIndex": "0x0",
          "removed": false
        }
      ],
      "logsBloom": "0x00000000000080000000000000000000000000000000000000000000000000000000000020000000000000000000000000000000000000000800000000000000000000000000000000000000000000000000000000000000000000000000000000000000000000000000000000000000000000000000000000000000000000000000000000000000000000000000000000000000000000000000000000000000000000000000800000000000000000000000000000000000000002000000000000000000000000000000000000000000000000000000000000040000000000000000000000000000000000000000000000000000000000000000000000000000",
      "type": "0x0",
      "transactionHash": "0xc6d06c1115294297042131326c197997cc76669ed2f46f9e3f15cab154d1937d",
      "transactionIndex": "0x0",
      "blockHash": "0x1a1f43f9b6c34ccb797b40b0e174b0c9a8f0425dcbe9f030900101b80097e448",
      "blockNumber": "0x99c4e5c",
      "gasUsed": "0xd6d7",
      "effectiveGasPrice": "0x42c1d80",
      "from": "0x45dce8e4f2dc005a5f28206a46cb034697eeda8e",
      "to": "0xa057d8d4fc86a62801ce363c169b0a8d192f6cee",
      "contractAddress": null,
      "nearReceiptHash": "0xcbe00df8de9d4f191cbc69005264f229ded92d4299cf37343d8d3978a58b3202",
      "nearTransactionHash": "0xdbf59be17067acfd7b95c4051af91731fe66e631039a0874e7e08b14c6847c0d"
    },
    {
      "status": "0x1",
      "cumulativeGasUsed": "0x0",
      "logs": [
        {
          "address": "0xa057d8d4fc86a62801ce363c169b0a8d192f6cee",
          "topics": [
            "0x238399d427b947898edb290f5ff0f9109849b1c3ba196a42e35f00c50a54b98b"
          ],
          "data": "0x00000000000000000000000000000000000000000000000000000000000075e800000000000000000000000057558cb8d6005de0bae8a2789d5efaae52dba5a8",
          "blockHash": "0xe084945a7b2fdae8485059584101680fb894c15d406c3a440d88e2350b707e4f",
          "blockNumber": "0x99c4e64",
          "transactionHash": "0xddae4aaa5b93bc7595d35488953d4bf845e1fa7f915a14453dc0d003b2a3e6d7",
          "transactionIndex": "0x0",
          "logIndex": "0x0",
          "removed": false
        }
      ],
      "logsBloom": "0x00000000000080000000000000000000000000000000000000000000000000000000000020000000000000000000000000000000000000000800000000000000000000000000000000000000000000000000000000000000000000000000000000000000000000000000000000000000000000000000000000000000000000000000000000000000000000000000000000000000000000000000000000000000000000000000800000000000000000000000000000000000000002000000000000000000000000000000000000000000000000000000000000040000000000000000000000000000000000000000000000000000000000000000000000000000",
      "type": "0x0",
      "transactionHash": "0xddae4aaa5b93bc7595d35488953d4bf845e1fa7f915a14453dc0d003b2a3e6d7",
      "transactionIndex": "0x0",
      "blockHash": "0xe084945a7b2fdae8485059584101680fb894c15d406c3a440d88e2350b707e4f",
      "blockNumber": "0x99c4e64",
      "gasUsed": "0xd6d7",
      "effectiveGasPrice": "0x42c1d80",
      "from": "0x45dce8e4f2dc005a5f28206a46cb034697eeda8e",
      "to": "0xa057d8d4fc86a62801ce363c169b0a8d192f6cee",
      "contractAddress": null,
      "nearReceiptHash": "0x6887fc8e5db2bc5e5de7d0ed7463f90b13b31a3868d1141d65ce7a71613b49b6",
      "nearTransactionHash": "0xc648b1a4ec83e0086295f005d249da2f674e7354ecc89847c9296d7252954af8"
    },
    {
      "status": "0x1",
      "cumulativeGasUsed": "0x0",
      "logs": [
        {
          "address": "0xa057d8d4fc86a62801ce363c169b0a8d192f6cee",
          "topics": [
            "0x238399d427b947898edb290f5ff0f9109849b1c3ba196a42e35f00c50a54b98b"
          ],
          "data": "0x000000000000000000000000000000000000000000000000000000000000769a00000000000000000000000057558cb8d6005de0bae8a2789d5efaae52dba5a8",
          "blockHash": "0x7610c31366b5ba88b6ad07e63da5e365ed064ade2bb1bc643e21a0b80e5e1c28",
          "blockNumber": "0x99c4e6b",
          "transactionHash": "0xc23b66d6d8700d2842e06d377e0c82342a8b0adcf4c7915a883b820b7924ba1f",
          "transactionIndex": "0x0",
          "logIndex": "0x0",
          "removed": false
        }
      ],
      "logsBloom": "0x00000000000080000000000000000000000000000000000000000000000000000000000020000000000000000000000000000000000000000800000000000000000000000000000000000000000000000000000000000000000000000000000000000000000000000000000000000000000000000000000000000000000000000000000000000000000000000000000000000000000000000000000000000000000000000000800000000000000000000000000000000000000002000000000000000000000000000000000000000000000000000000000000040000000000000000000000000000000000000000000000000000000000000000000000000000",
      "type": "0x0",
      "transactionHash": "0xc23b66d6d8700d2842e06d377e0c82342a8b0adcf4c7915a883b820b7924ba1f",
      "transactionIndex": "0x0",
      "blockHash": "0x7610c31366b5ba88b6ad07e63da5e365ed064ade2bb1bc643e21a0b80e5e1c28",
      "blockNumber": "0x99c4e6b",
      "gasUsed": "0xd6d7",
      "effectiveGasPrice": "0x42c1d80",
      "from": "0x45dce8e4f2dc005a5f28206a46cb034697eeda8e",
      "to": "0xa057d8d4fc86a62801ce363c169b0a8d192f6cee",
      "contractAddress": null,
      "nearReceiptHash": "0xf8554b4d14a102219dae244f164b2a201f5d82128f60cc669d1260b7d939b787",
      "nearTransactionHash": "0x47a536f69217443179c196937366f89d430dc5ec780a4e5270372c09ba66e434"
    },
    {
      "status": "0x1",
      "cumulativeGasUsed": "0x0",
      "logs": [
        {
          "address": "0xa057d8d4fc86a62801ce363c169b0a8d192f6cee",
          "topics": [
            "0x238399d427b947898edb290f5ff0f9109849b1c3ba196a42e35f00c50a54b98b"
          ],
          "data": "0x00000000000000000000000000000000000000000000000000000000000075e70000000000000000000000006185334f1542a9966cbad694577ffbede3dd1f1f",
          "blockHash": "0x4786498610972de589f781ff94350d802c87496aacab4bbe9255c0f876f4444f",
          "blockNumber": "0x99c4e75",
          "transactionHash": "0xccde48800985ab93143326db40ddbb6e5468ea467893ca997f59c4c864f04ce8",
          "transactionIndex": "0x0",
          "logIndex": "0x0",
          "removed": false
        }
      ],
      "logsBloom": "0x00000000000080000000000000000000000000000000000000000000000000000000000020000000000000000000000000000000000000000800000000000000000000000000000000000000000000000000000000000000000000000000000000000000000000000000000000000000000000000000000000000000000000000000000000000000000000000000000000000000000000000000000000000000000000000000800000000000000000000000000000000000000002000000000000000000000000000000000000000000000000000000000000040000000000000000000000000000000000000000000000000000000000000000000000000000",
      "type": "0x0",
      "transactionHash": "0xccde48800985ab93143326db40ddbb6e5468ea467893ca997f59c4c864f04ce8",
      "transactionIndex": "0x0",
      "blockHash": "0x4786498610972de589f781ff94350d802c87496aacab4bbe9255c0f876f4444f",
      "blockNumber": "0x99c4e75",
      "gasUsed": "0xd6e3",
      "effectiveGasPrice": "0x42c1d80",
      "from": "0x45dce8e4f2dc005a5f28206a46cb034697eeda8e",
      "to": "0xa057d8d4fc86a62801ce363c169b0a8d192f6cee",
      "contractAddress": null,
      "nearReceiptHash": "0xaba5c474d479a71fbd2ee92637a090b9dc975ef4000cc953c3265dded39987f9",
      "nearTransactionHash": "0x9b022ed32ed3fe9defc03034510c505efcb5932cb5da57d0c2d1048865950d04"
    },
    {
      "status": "0x1",
      "cumulativeGasUsed": "0x0",
      "logs": [
        {
          "address": "0xa057d8d4fc86a62801ce363c169b0a8d192f6cee",
          "topics": [
            "0x238399d427b947898edb290f5ff0f9109849b1c3ba196a42e35f00c50a54b98b"
          ],
          "data": "0x000000000000000000000000000000000000000000000000000000000000766f00000000000000000000000057558cb8d6005de0bae8a2789d5efaae52dba5a8",
          "blockHash": "0x26413a0e1a7eb6cd443669ed37fe47a63bde7e21fe7fa1d6524ee264ebd6b8a6",
          "blockNumber": "0x99c4e7c",
          "transactionHash": "0xd03774024c850a943ccc17f7b6f62bd6ad0c2d9cad46a7afdb8cbccc7ba6cb56",
          "transactionIndex": "0x0",
          "logIndex": "0x0",
          "removed": false
        }
      ],
      "logsBloom": "0x00000000000080000000000000000000000000000000000000000000000000000000000020000000000000000000000000000000000000000800000000000000000000000000000000000000000000000000000000000000000000000000000000000000000000000000000000000000000000000000000000000000000000000000000000000000000000000000000000000000000000000000000000000000000000000000800000000000000000000000000000000000000002000000000000000000000000000000000000000000000000000000000000040000000000000000000000000000000000000000000000000000000000000000000000000000",
      "type": "0x0",
      "transactionHash": "0xd03774024c850a943ccc17f7b6f62bd6ad0c2d9cad46a7afdb8cbccc7ba6cb56",
      "transactionIndex": "0x0",
      "blockHash": "0x26413a0e1a7eb6cd443669ed37fe47a63bde7e21fe7fa1d6524ee264ebd6b8a6",
      "blockNumber": "0x99c4e7c",
      "gasUsed": "0xd6d7",
      "effectiveGasPrice": "0x42c1d80",
      "from": "0x45dce8e4f2dc005a5f28206a46cb034697eeda8e",
      "to": "0xa057d8d4fc86a62801ce363c169b0a8d192f6cee",
      "contractAddress": null,
      "nearReceiptHash": "0x0ba4af72d8682a4cca1f879bae5b99b33bb1fa0bbce579051e60e5fa6cc5b1d1",
      "nearTransactionHash": "0x2c65515e6d27eca4d0a176c01772d336691b35925ddabf39e596ac28a6cc78b8"
    },
    {
      "status": "0x1",
      "cumulativeGasUsed": "0x0",
      "logs": [
        {
          "address": "0xa057d8d4fc86a62801ce363c169b0a8d192f6cee",
          "topics": [
            "0x238399d427b947898edb290f5ff0f9109849b1c3ba196a42e35f00c50a54b98b"
          ],
          "data": "0x000000000000000000000000000000000000000000000000000000000000767000000000000000000000000057558cb8d6005de0bae8a2789d5efaae52dba5a8",
          "blockHash": "0x7357e6f323fe68619d52c8b25001c100d44ea6aa57cba4d1cf24b92aa1b0f7e6",
          "blockNumber": "0x99c4e8b",
          "transactionHash": "0x6f14bcec3d5d399d432c72903b290c0d8c91af1a3c37bf600d0ad2242a698ac8",
          "transactionIndex": "0x0",
          "logIndex": "0x0",
          "removed": false
        }
      ],
      "logsBloom": "0x00000000000080000000000000000000000000000000000000000000000000000000000020000000000000000000000000000000000000000800000000000000000000000000000000000000000000000000000000000000000000000000000000000000000000000000000000000000000000000000000000000000000000000000000000000000000000000000000000000000000000000000000000000000000000000000800000000000000000000000000000000000000002000000000000000000000000000000000000000000000000000000000000040000000000000000000000000000000000000000000000000000000000000000000000000000",
      "type": "0x0",
      "transactionHash": "0x6f14bcec3d5d399d432c72903b290c0d8c91af1a3c37bf600d0ad2242a698ac8",
      "transactionIndex": "0x0",
      "blockHash": "0x7357e6f323fe68619d52c8b25001c100d44ea6aa57cba4d1cf24b92aa1b0f7e6",
      "blockNumber": "0x99c4e8b",
      "gasUsed": "0xd6d7",
      "effectiveGasPrice": "0x42c1d80",
      "from": "0x45dce8e4f2dc005a5f28206a46cb034697eeda8e",
      "to": "0xa057d8d4fc86a62801ce363c169b0a8d192f6cee",
      "contractAddress": null,
      "nearReceiptHash": "0x07f9963e735e09551e71bd006e2276eb300edf14c54deb691bc7c66d15c313b0",
      "nearTransactionHash": "0x28c0cef494fb6b87e500852a432441fa3831ebacb5230f67d26967536bde7b44"
    },
    {
      "status": "0x1",
      "cumulativeGasUsed": "0x0",
      "logs": [
        {
          "address": "0xa057d8d4fc86a62801ce363c169b0a8d192f6cee",
          "topics": [
            "0x238399d427b947898edb290f5ff0f9109849b1c3ba196a42e35f00c50a54b98b"
          ],
          "data": "0x00000000000000000000000000000000000000000000000000000000000076a200000000000000000000000057558cb8d6005de0bae8a2789d5efaae52dba5a8",
          "blockHash": "0x2851adc0efa1580b4de7ab3dcd93aa2c8797a254052ad4705f641d9b6d1bb2e5",
          "blockNumber": "0x99c4e9b",
          "transactionHash": "0x73eb0db767104638d2fafef0e7791f85fe65ddad72dcf86657ebd3b032e11bfe",
          "transactionIndex": "0x0",
          "logIndex": "0x0",
          "removed": false
        }
      ],
      "logsBloom": "0x00000000000080000000000000000000000000000000000000000000000000000000000020000000000000000000000000000000000000000800000000000000000000000000000000000000000000000000000000000000000000000000000000000000000000000000000000000000000000000000000000000000000000000000000000000000000000000000000000000000000000000000000000000000000000000000800000000000000000000000000000000000000002000000000000000000000000000000000000000000000000000000000000040000000000000000000000000000000000000000000000000000000000000000000000000000",
      "type": "0x0",
      "transactionHash": "0x73eb0db767104638d2fafef0e7791f85fe65ddad72dcf86657ebd3b032e11bfe",
      "transactionIndex": "0x0",
      "blockHash": "0x2851adc0efa1580b4de7ab3dcd93aa2c8797a254052ad4705f641d9b6d1bb2e5",
      "blockNumber": "0x99c4e9b",
      "gasUsed": "0xd6d7",
      "effectiveGasPrice": "0x42c1d80",
      "from": "0x45dce8e4f2dc005a5f28206a46cb034697eeda8e",
      "to": "0xa057d8d4fc86a62801ce363c169b0a8d192f6cee",
      "contractAddress": null,
      "nearReceiptHash": "0x00c2d7142a6227d853bc717c99a352ddbefef6c6d070ec54e66b11e3b6dd45d8",
      "nearTransactionHash": "0x05494e414c822c7dc22700378ea86b96ad01fa55ad3209dee3958c0fd992d7c7"
    },
    {
      "status": "0x1",
      "cumulativeGasUsed": "0x0",
      "logs": [
        {
          "address": "0xa057d8d4fc86a62801ce363c169b0a8d192f6cee",
          "topics": [
            "0x238399d427b947898edb290f5ff0f9109849b1c3ba196a42e35f00c50a54b98b"
          ],
          "data": "0x00000000000000000000000000000000000000000000000000000000000076a800000000000000000000000057558cb8d6005de0bae8a2789d5efaae52dba5a8",
          "blockHash": "0xf9fdcdc766d17fdef6a26c1cd29601ea39187faebd61772a9e3f43d745f9c675",
          "blockNumber": "0x99c4eae",
          "transactionHash": "0x600b4c36164656e7a80f1cb2f388fe1d0344535a3693303403941672083d30cb",
          "transactionIndex": "0x0",
          "logIndex": "0x0",
          "removed": false
        }
      ],
      "logsBloom": "0x00000000000080000000000000000000000000000000000000000000000000000000000020000000000000000000000000000000000000000800000000000000000000000000000000000000000000000000000000000000000000000000000000000000000000000000000000000000000000000000000000000000000000000000000000000000000000000000000000000000000000000000000000000000000000000000800000000000000000000000000000000000000002000000000000000000000000000000000000000000000000000000000000040000000000000000000000000000000000000000000000000000000000000000000000000000",
      "type": "0x0",
      "transactionHash": "0x600b4c36164656e7a80f1cb2f388fe1d0344535a3693303403941672083d30cb",
      "transactionIndex": "0x0",
      "blockHash": "0xf9fdcdc766d17fdef6a26c1cd29601ea39187faebd61772a9e3f43d745f9c675",
      "blockNumber": "0x99c4eae",
      "gasUsed": "0xd6d7",
      "effectiveGasPrice": "0x42c1d80",
      "from": "0x45dce8e4f2dc005a5f28206a46cb034697eeda8e",
      "to": "0xa057d8d4fc86a62801ce363c169b0a8d192f6cee",
      "contractAddress": null,
      "nearReceiptHash": "0x396367c305f76b4532904276bdab5dbadf6ecd29b22c2f1789817d88940aa276",
      "nearTransactionHash": "0x0f02f1c5fae2894fb41aa61c88dd7dc1f0f64e40c305c0241fcfe2013411f605"
    },
    {
      "status": "0x1",
      "cumulativeGasUsed": "0x0",
      "logs": [
        {
          "address": "0xa057d8d4fc86a62801ce363c169b0a8d192f6cee",
          "topics": [
            "0x238399d427b947898edb290f5ff0f9109849b1c3ba196a42e35f00c50a54b98b"
          ],
          "data": "0x00000000000000000000000000000000000000000000000000000000000076a700000000000000000000000057558cb8d6005de0bae8a2789d5efaae52dba5a8",
          "blockHash": "0x74f4f7c75cda14eec2d8dc3e9c317437a8ca2521520c2e9f215352e3d1579848",
          "blockNumber": "0x99c4eb5",
          "transactionHash": "0xa3b4ab02c7ff0dda0287ec032709c610d543fb33d66ecc1cafbc09028ab13664",
          "transactionIndex": "0x0",
          "logIndex": "0x0",
          "removed": false
        }
      ],
      "logsBloom": "0x00000000000080000000000000000000000000000000000000000000000000000000000020000000000000000000000000000000000000000800000000000000000000000000000000000000000000000000000000000000000000000000000000000000000000000000000000000000000000000000000000000000000000000000000000000000000000000000000000000000000000000000000000000000000000000000800000000000000000000000000000000000000002000000000000000000000000000000000000000000000000000000000000040000000000000000000000000000000000000000000000000000000000000000000000000000",
      "type": "0x0",
      "transactionHash": "0xa3b4ab02c7ff0dda0287ec032709c610d543fb33d66ecc1cafbc09028ab13664",
      "transactionIndex": "0x0",
      "blockHash": "0x74f4f7c75cda14eec2d8dc3e9c317437a8ca2521520c2e9f215352e3d1579848",
      "blockNumber": "0x99c4eb5",
      "gasUsed": "0xd6d7",
      "effectiveGasPrice": "0x42c1d80",
      "from": "0x45dce8e4f2dc005a5f28206a46cb034697eeda8e",
      "to": "0xa057d8d4fc86a62801ce363c169b0a8d192f6cee",
      "contractAddress": null,
      "nearReceiptHash": "0x5aac366d04e5c0ea24da4a40d7493ae8f94d8649fbb03070a5f79934e3f94bcf",
      "nearTransactionHash": "0x8806ca881843021e92f70ae3f1d1a562ca3bc913999a207b7cdd198ff3ee38f6"
    },
    {
      "status": "0x1",
      "cumulativeGasUsed": "0x0",
      "logs": [
        {
          "address": "0xa057d8d4fc86a62801ce363c169b0a8d192f6cee",
          "topics": [
            "0x238399d427b947898edb290f5ff0f9109849b1c3ba196a42e35f00c50a54b98b"
          ],
          "data": "0x000000000000000000000000000000000000000000000000000000000000760600000000000000000000000057558cb8d6005de0bae8a2789d5efaae52dba5a8",
          "blockHash": "0xce3f7fdc7ff73959f2cb18632c3b0557ad2aa616b399e3e4fbe758fa934b3328",
          "blockNumber": "0x99c4ec6",
          "transactionHash": "0x8dc73cb407d99bd0b48b6f9cf9cae2b37e99e171a7fcea93dbe0ab29c8f9e098",
          "transactionIndex": "0x0",
          "logIndex": "0x0",
          "removed": false
        }
      ],
      "logsBloom": "0x00000000000080000000000000000000000000000000000000000000000000000000000020000000000000000000000000000000000000000800000000000000000000000000000000000000000000000000000000000000000000000000000000000000000000000000000000000000000000000000000000000000000000000000000000000000000000000000000000000000000000000000000000000000000000000000800000000000000000000000000000000000000002000000000000000000000000000000000000000000000000000000000000040000000000000000000000000000000000000000000000000000000000000000000000000000",
      "type": "0x0",
      "transactionHash": "0x8dc73cb407d99bd0b48b6f9cf9cae2b37e99e171a7fcea93dbe0ab29c8f9e098",
      "transactionIndex": "0x0",
      "blockHash": "0xce3f7fdc7ff73959f2cb18632c3b0557ad2aa616b399e3e4fbe758fa934b3328",
      "blockNumber": "0x99c4ec6",
      "gasUsed": "0xd6d7",
      "effectiveGasPrice": "0x42c1d80",
      "from": "0x45dce8e4f2dc005a5f28206a46cb034697eeda8e",
      "to": "0xa057d8d4fc86a62801ce363c169b0a8d192f6cee",
      "contractAddress": null,
      "nearReceiptHash": "0x9ac93b1d40cf549bdd1795a158c0336426ca34de92379196715c92c09de0e2e2",
      "nearTransactionHash": "0xa0e6595b7f4255ce074b65f0cf5f55882644a09777a1a384cc19296d06cabaa3"
    },
    {
      "status": "0x1",
      "cumulativeGasUsed": "0x0",
      "logs": [
        {
          "address": "0xa057d8d4fc86a62801ce363c169b0a8d192f6cee",
          "topics": [
            "0x238399d427b947898edb290f5ff0f9109849b1c3ba196a42e35f00c50a54b98b"
          ],
          "data": "0x0000000000000000000000000000000000000000000000000000000000007674000000000000000000000000bd39033994f5324fe8d50bb524396a78ff9dfe22",
          "blockHash": "0x3f88c8890dcb1c155d4cccc495f863997dad9863ca2f68ca7cfc80593ac0dcc7",
          "blockNumber": "0x99c4ed0",
          "transactionHash": "0x90e3b0089bc7f1527466ddc2bc92313216d9b10f0d914fcb65b44021daa9dad4",
          "transactionIndex": "0x0",
          "logIndex": "0x0",
          "removed": false
        }
      ],
      "logsBloom": "0x00000000000080000000000000000000000000000000000000000000000000000000000020000000000000000000000000000000000000000800000000000000000000000000000000000000000000000000000000000000000000000000000000000000000000000000000000000000000000000000000000000000000000000000000000000000000000000000000000000000000000000000000000000000000000000000800000000000000000000000000000000000000002000000000000000000000000000000000000000000000000000000000000040000000000000000000000000000000000000000000000000000000000000000000000000000",
      "type": "0x0",
      "transactionHash": "0x90e3b0089bc7f1527466ddc2bc92313216d9b10f0d914fcb65b44021daa9dad4",
      "transactionIndex": "0x0",
      "blockHash": "0x3f88c8890dcb1c155d4cccc495f863997dad9863ca2f68ca7cfc80593ac0dcc7",
      "blockNumber": "0x99c4ed0",
      "gasUsed": "0xd6e3",
      "effectiveGasPrice": "0x42c1d80",
      "from": "0x45dce8e4f2dc005a5f28206a46cb034697eeda8e",
      "to": "0xa057d8d4fc86a62801ce363c169b0a8d192f6cee",
      "contractAddress": null,
      "nearReceiptHash": "0xfd860a9410c2b0c476a9f8402d11e03ba4a40c504093c5dd39dba94be1000458",
      "nearTransactionHash": "0xca0407ec27aa20a831d1e00c196b3254ec000007072ae496a39abc8b97a2073b"
    },
    {
      "status": "0x1",
      "cumulativeGasUsed": "0x0",
      "logs": [
        {
          "address": "0xa057d8d4fc86a62801ce363c169b0a8d192f6cee",
          "topics": [
            "0x238399d427b947898edb290f5ff0f9109849b1c3ba196a42e35f00c50a54b98b"
          ],
          "data": "0x00000000000000000000000000000000000000000000000000000000000075d50000000000000000000000003fc877008e396fdd7f9ee3deb2e8a54d54da705a",
          "blockHash": "0x6f4f81e5acf0652582ffcd34fac84a916c8c625aa6eff5c8ae67bfa7a8afc67d",
          "blockNumber": "0x99c4ed6",
          "transactionHash": "0xd0aad2c44eff2ade3a84859dd96b0094a2e8b65c06a38d9a703f93d99a552d56",
          "transactionIndex": "0x0",
          "logIndex": "0x0",
          "removed": false
        }
      ],
      "logsBloom": "0x00000000000080000000000000000000000000000000000000000000000000000000000020000000000000000000000000000000000000000800000000000000000000000000000000000000000000000000000000000000000000000000000000000000000000000000000000000000000000000000000000000000000000000000000000000000000000000000000000000000000000000000000000000000000000000000800000000000000000000000000000000000000002000000000000000000000000000000000000000000000000000000000000040000000000000000000000000000000000000000000000000000000000000000000000000000",
      "type": "0x0",
      "transactionHash": "0xd0aad2c44eff2ade3a84859dd96b0094a2e8b65c06a38d9a703f93d99a552d56",
      "transactionIndex": "0x0",
      "blockHash": "0x6f4f81e5acf0652582ffcd34fac84a916c8c625aa6eff5c8ae67bfa7a8afc67d",
      "blockNumber": "0x99c4ed6",
      "gasUsed": "0xd6d7",
      "effectiveGasPrice": "0x42c1d80",
      "from": "0x45dce8e4f2dc005a5f28206a46cb034697eeda8e",
      "to": "0xa057d8d4fc86a62801ce363c169b0a8d192f6cee",
      "contractAddress": null,
      "nearReceiptHash": "0xa4275e8bf76ab3db2afc5197cb1c57b136001894a05b5c9a43e24a7b1515867e",
      "nearTransactionHash": "0x5f8f46a953153270c72e95939a853c2a3fd51968d27671e8c923773cff90ea20"
    },
    {
      "status": "0x1",
      "cumulativeGasUsed": "0x0",
      "logs": [
        {
          "address": "0x1ace9dd1bc743ad036ef2d92af42ca70a1159df5",
          "topics": [
            "0x82118522aa536ac0e96cc5c689407ae42b89d592aa133890a01f1509842f5081"
          ],
          "data": "0x000000000000000000000000a057d8d4fc86a62801ce363c169b0a8d192f6cee00000000000000000000000000000000000000000000000000000000000076a70000000000000000000000000000000000000000000000000000000000000060000000000000000000000000000000000000000000000000000000000000000000000000000000000000000000000000000000000000000000000000000000020000000000000000000000000000000000000000000000000000000000000000000000000000000000000000000000000000000000000000000000000000000000000000000000000000000000000000000000000000000000000000000000c000000000000000000000000000000000000000000000000000000000000001200000000000000000000000000000000000000000000000000000000000000002000000000000000000000000045d70bf1939af0489cb44533750a2e15c92d7d4000000000000000000000000d4a903930f2c9085586cda0b11d9681eecb20d2f0000000000000000000000000000000000000000000000000000000000000000",
          "blockHash": "0x889713e049fd616dc9ee763aaaef0cc779595c5d4623ace27c7ac6e8433baba8",
          "blockNumber": "0x99c4ede",
          "transactionHash": "0xb576eb7c8a475fedff8502a93f33b566663e2d882845af08208395beb21f7bf3",
          "transactionIndex": "0x0",
          "logIndex": "0x0",
          "removed": false
        }
      ],
      "logsBloom": "0x00000000000000000000000000000000000000000000000000000000000000000000000008000000000000000000000000000000000000000000000000000000000000000000000000000000000000010000000000000000002000000000000000000000000000000000000000000000000080000000000000000000000000000000000000000000000000000000000000000000000000000000000000000000000000000000000000000002000000000000000000000000000000000000000000000000000000000000000000000000000000000000000000000000000000000000000000000000000000000000000000000000000000000000000000000010",
      "type": "0x0",
      "transactionHash": "0xb576eb7c8a475fedff8502a93f33b566663e2d882845af08208395beb21f7bf3",
      "transactionIndex": "0x0",
      "blockHash": "0x889713e049fd616dc9ee763aaaef0cc779595c5d4623ace27c7ac6e8433baba8",
      "blockNumber": "0x99c4ede",
      "gasUsed": "0x21fd5",
      "effectiveGasPrice": "0x42c1d80",
      "from": "0x45dce8e4f2dc005a5f28206a46cb034697eeda8e",
      "to": "0x1a44076050125825900e736c501f859c50fe728c",
      "contractAddress": null,
      "nearReceiptHash": "0xa4798ec81373cfdf98188f659fc6b826b9b58caed83598ea56ba046f8bfdfc3a",
      "nearTransactionHash": "0xdde3984713302d51420f32b896713f2a0ed28a9c9a75035703f4e1cfb35c6e2e"
    },
    {
      "status": "0x1",
      "cumulativeGasUsed": "0x0",
      "logs": [
        {
          "address": "0x000cc1a759bc3a15e664ed5379e321be5de1c9b6",
          "topics": [
            "0x82118522aa536ac0e96cc5c689407ae42b89d592aa133890a01f1509842f5081"
          ],
          "data": "0x000000000000000000000000a057d8d4fc86a62801ce363c169b0a8d192f6cee00000000000000000000000000000000000000000000000000000000000076a70000000000000000000000000000000000000000000000000000000000000060000000000000000000000000000000000000000000000000000000000000000000000000000000000000000000000000000000000000000000000000000000020000000000000000000000000000000000000000000000000000000000000000000000000000000000000000000000000000000000000000000000000000000000000000000000000000000000000000000000000000000000000000000000c000000000000000000000000000000000000000000000000000000000000001200000000000000000000000000000000000000000000000000000000000000002000000000000000000000000045d70bf1939af0489cb44533750a2e15c92d7d4000000000000000000000000d4a903930f2c9085586cda0b11d9681eecb20d2f0000000000000000000000000000000000000000000000000000000000000000",
          "blockHash": "0xc705c28ce727b9c595570cf814a54d547af701757b8f04693f93be70884d2271",
          "blockNumber": "0x99c4eed",
          "transactionHash": "0x92843d288c29f626d0f0ecc35e86098be0b932826142865328ef922543e5e59a",
          "transactionIndex": "0x0",
          "logIndex": "0x0",
          "removed": false
        }
      ],
      "logsBloom": "0x00000000000000000000000000000000000000000000008000000000000000000000000000000000000000000000000000000000000000000000000000000000000000000000000000000000000000000000000000000000002000000000000000000000000000000000000000000000000000000000000000000000000000000000000000000000000000000000000000000000000000008000000000000000000000000000000000000002000000000000000000000000000000000000000000000000000000000000000000000000000000000000000000000000000000000000000000000000000000000400000000000000000000000000000000000010",
      "type": "0x0",
      "transactionHash": "0x92843d288c29f626d0f0ecc35e86098be0b932826142865328ef922543e5e59a",
      "transactionIndex": "0x0",
      "blockHash": "0xc705c28ce727b9c595570cf814a54d547af701757b8f04693f93be70884d2271",
      "blockNumber": "0x99c4eed",
      "gasUsed": "0x21ecd",
      "effectiveGasPrice": "0x42c1d80",
      "from": "0x45dce8e4f2dc005a5f28206a46cb034697eeda8e",
      "to": "0x1a44076050125825900e736c501f859c50fe728c",
      "contractAddress": null,
      "nearReceiptHash": "0x2eab99e22a6b02787c45967b8fd2fbd5565638b31cc046d4fcdeaa8f9ac16537",
      "nearTransactionHash": "0xec92129027d89e790dd7f034b5b6645dad5a75b3980150f9b52fd92d4b7c4b63"
    },
    {
      "status": "0x1",
      "cumulativeGasUsed": "0x0",
      "logs": [
        {
          "address": "0x1a44076050125825900e736c501f859c50fe728c",
          "topics": [
            "0x4cff966ebee29a156dcb34cf72c1d06231fb1777f6bdf6e8089819232f002b1c"
          ],
          "data": "0x000000000000000000000000a057d8d4fc86a62801ce363c169b0a8d192f6cee00000000000000000000000000000000000000000000000000000000000076a70000000000000000000000001ace9dd1bc743ad036ef2d92af42ca70a1159df5",
          "blockHash": "0xf7855640767d97d7e3b0b90f83a6778ff564a93baef8ad6c3db6132d0a19b0a1",
          "blockNumber": "0x99c4ef7",
          "transactionHash": "0x60299f448315a1b6d6fc0e13dffe1361dead2188a7d9ce3fea44f150c9367ea2",
          "transactionIndex": "0x0",
          "logIndex": "0x0",
          "removed": false
        }
      ],
      "logsBloom": "0x00000000000000000000000000000000000200000000000000000000001000000000000000000000000000000000000000000000000000000000000001000000000000000000000000000000000000000000000000000000000000000000000000000000000000000000000000000000000000000010000000000000000000000000000000000000000000000000000000000000000000000000000000000000000000000000000000000000000000000000000000000000000000000000000000000000000000000000000000000000000000000000000000000000000000000040000000000000000000000000000000000000010000000000000000000000",
      "type": "0x0",
      "transactionHash": "0x60299f448315a1b6d6fc0e13dffe1361dead2188a7d9ce3fea44f150c9367ea2",
      "transactionIndex": "0x0",
      "blockHash": "0xf7855640767d97d7e3b0b90f83a6778ff564a93baef8ad6c3db6132d0a19b0a1",
      "blockNumber": "0x99c4ef7",
      "gasUsed": "0xe18e",
      "effectiveGasPrice": "0x42c1d80",
      "from": "0x45dce8e4f2dc005a5f28206a46cb034697eeda8e",
      "to": "0x1a44076050125825900e736c501f859c50fe728c",
      "contractAddress": null,
      "nearReceiptHash": "0xcdc6d0aeaddf403e2f253c9f69b68152e6835c4ccecd6ac6f97355d0c8965292",
      "nearTransactionHash": "0x955d14d8dd0c2be1a2b6224d413bf80db337d0b3e6d42b291311c1517022413b"
    },
    {
      "status": "0x1",
      "cumulativeGasUsed": "0x0",
      "logs": [
        {
          "address": "0x1a44076050125825900e736c501f859c50fe728c",
          "topics": [
            "0xcd6f92f5ac6185a5acfa02c92090746cec64d777269cbcd0ed031e396657a1c2"
          ],
          "data": "0x000000000000000000000000a057d8d4fc86a62801ce363c169b0a8d192f6cee00000000000000000000000000000000000000000000000000000000000076a7000000000000000000000000000cc1a759bc3a15e664ed5379e321be5de1c9b6",
          "blockHash": "0x1236c4587cde74ae002d6e357e04c62a61c0c6313ff4e6bca6767c687e5bc0a0",
          "blockNumber": "0x99c4f00",
          "transactionHash": "0xa02af30ea578d9276c0a4814e9c440e3e50f745bb11e88f11a674a8980d537a7",
          "transactionIndex": "0x0",
          "logIndex": "0x0",
          "removed": false
        },
        {
          "address": "0x1a44076050125825900e736c501f859c50fe728c",
          "topics": [
            "0x4e0a5bbfa0c11a64effb1ada324b5437a17272e1aed9320398715ef71bb20928"
          ],
          "data": "0x000000000000000000000000a057d8d4fc86a62801ce363c169b0a8d192f6cee00000000000000000000000000000000000000000000000000000000000076a700000000000000000000000000000000000000000000000000000000000000000000000000000000000000000000000000000000000000000000000000000000",
          "blockHash": "0x1236c4587cde74ae002d6e357e04c62a61c0c6313ff4e6bca6767c687e5bc0a0",
          "blockNumber": "0x99c4f00",
          "transactionHash": "0xa02af30ea578d9276c0a4814e9c440e3e50f745bb11e88f11a674a8980d537a7",
          "transactionIndex": "0x0",
          "logIndex": "0x1",
          "removed": false
        }
      ],
      "logsBloom": "0x00000000000000000000020800000000000000000000000000000000001000020400000000000000000000000000000000000000000000000000000000000000000000000000000000000000000000000000000000800000000000000000000000000000000000000000000000000000000000000010000000000000000000100000000000000000000000000000000000000000000000000000000000000000000000000000000000000000000000000000000000000000000000000000000000000000000000000000000000000000000000000000000000000000000000000000000000000000000000000000000000000000010000000000000000000000",
      "type": "0x0",
      "transactionHash": "0xa02af30ea578d9276c0a4814e9c440e3e50f745bb11e88f11a674a8980d537a7",
      "transactionIndex": "0x0",
      "blockHash": "0x1236c4587cde74ae002d6e357e04c62a61c0c6313ff4e6bca6767c687e5bc0a0",
      "blockNumber": "0x99c4f00",
      "gasUsed": "0xfb95",
      "effectiveGasPrice": "0x42c1d80",
      "from": "0x45dce8e4f2dc005a5f28206a46cb034697eeda8e",
      "to": "0x1a44076050125825900e736c501f859c50fe728c",
      "contractAddress": null,
      "nearReceiptHash": "0xaec35df8aac75d76244b9c55b641a6f9d678ff0db0f8792ed1392c1e8138942a",
      "nearTransactionHash": "0x068c9fbf05f2f7509f801aeb701a531f2aa8ca4d3a4b4499c5f175e05a8e625e"
    }
  ],
  "libraries": [],
  "pending": [],
  "returns": {},
  "timestamp": 1756180598384,
  "chain": 1313161554,
  "commit": "982fb8c"
}