{
  "transactions": [
    {
      "hash": "0x7bafd60a55db38d53cae84fa1b30a1679cbfe338c4c170c512e74c0b70a164e6",
      "transactionType": "CALL",
      "contractName": null,
      "contractAddress": "0x741f0d8bde14140f62107fc60a0ee122b37d4630",
      "function": "batchBridgeWithEthFeeFromWallet((uint32,bytes32,uint256,uint256,bytes,bytes,bytes)[],address[],address[])",
      "arguments": [
        "[(30211, 0x0000000000000000000000004a767e2ef83577225522ef8ed71056c6e3acb216, 1000000000000000000, 0, 0x, 0x, 0x), (30214, 0x000000000000000000000000741f0d8bde14140f62107fc60a0ee122b37d4630, 1000000000000000000, 0, 0x, 0x, 0x)]",
        "[0x57558Cb8d6005DE0BAe8a2789d5EfaaE52dba5a8, 0x57558Cb8d6005DE0BAe8a2789d5EfaaE52dba5a8]",
        "[0x741F0d8Bde14140f62107FC60A0EE122B37D4630, 0x741F0d8Bde14140f62107FC60A0EE122B37D4630]"
      ],
      "transaction": {
        "from": "0x45dce8e4f2dc005a5f28206a46cb034697eeda8e",
        "to": "0x741f0d8bde14140f62107fc60a0ee122b37d4630",
        "gas": "0xf00b9",
        "value": "0x73a88f8ed7cb106f",
        "input": "0xb70d42410000000000000000000000000000000000000000000000000000000000000060000000000000000000000000000000000000000000000000000000000000034000000000000000000000000000000000000000000000000000000000000003a000000000000000000000000000000000000000000000000000000000000000020000000000000000000000000000000000000000000000000000000000000040000000000000000000000000000000000000000000000000000000000000018000000000000000000000000000000000000000000000000000000000000076030000000000000000000000004a767e2ef83577225522ef8ed71056c6e3acb2160000000000000000000000000000000000000000000000000de0b6b3a7640000000000000000000000000000000000000000000000000000000000000000000000000000000000000000000000000000000000000000000000000000000000e0000000000000000000000000000000000000000000000000000000000000010000000000000000000000000000000000000000000000000000000000000001200000000000000000000000000000000000000000000000000000000000000000000000000000000000000000000000000000000000000000000000000000000000000000000000000000000000000000000000000000000000000000000000000000000000000000000000000000000000000000000000000000000000007606000000000000000000000000741f0d8bde14140f62107fc60a0ee122b37d46300000000000000000000000000000000000000000000000000de0b6b3a7640000000000000000000000000000000000000000000000000000000000000000000000000000000000000000000000000000000000000000000000000000000000e000000000000000000000000000000000000000000000000000000000000001000000000000000000000000000000000000000000000000000000000000000120000000000000000000000000000000000000000000000000000000000000000000000000000000000000000000000000000000000000000000000000000000000000000000000000000000000000000000000000000000000000000000000000000000000000000000000000000000000000000000000000000000000000000200000000000000000000000057558cb8d6005de0bae8a2789d5efaae52dba5a800000000000000000000000057558cb8d6005de0bae8a2789d5efaae52dba5a80000000000000000000000000000000000000000000000000000000000000002000000000000000000000000741f0d8bde14140f62107fc60a0ee122b37d4630000000000000000000000000741f0d8bde14140f62107fc60a0ee122b37d4630",
        "nonce": "0x7c",
        "chainId": "0x18232"
      },
      "additionalContracts": [],
      "isFixedGasLimit": false
    }
  ],
  "receipts": [
    {
      "status": "0x1",
      "cumulativeGasUsed": "0xa4223",
      "logs": [
        {
          "address": "0x57558cb8d6005de0bae8a2789d5efaae52dba5a8",
          "topics": [
            "0xddf252ad1be2c89b69c2b068fc378daa952ba7f163c4a11628f55a4df523b3ef",
            "0x000000000000000000000000741f0d8bde14140f62107fc60a0ee122b37d4630",
            "0x0000000000000000000000000000000000000000000000000000000000000000"
          ],
          "data": "0x0000000000000000000000000000000000000000000000000de0b6b3a7640000",
          "blockHash": "0x476667c9454172fd426b5b904cd58ce930d54c466eb015567b19481fbe3df355",
          "blockNumber": "0x19308be",
          "transactionHash": "0x7bafd60a55db38d53cae84fa1b30a1679cbfe338c4c170c512e74c0b70a164e6",
          "transactionIndex": "0x1",
          "logIndex": "0x0",
          "removed": false
        },
        {
          "address": "0xfe7c30860d01e28371d40434806f4a8fcdd3a098",
          "topics": [
            "0x61ed099e74a97a1d7f8bb0952a88ca8b7b8ebd00c126ea04671f92a81213318a"
          ],
          "data": "0x00000000000000000000000041bdb4aa4a63a5b2efc531858d3118392b1a1c3d0000000000000000000000000000000000000000000000002094904711dec84e",
          "blockHash": "0x476667c9454172fd426b5b904cd58ce930d54c466eb015567b19481fbe3df355",
          "blockNumber": "0x19308be",
          "transactionHash": "0x7bafd60a55db38d53cae84fa1b30a1679cbfe338c4c170c512e74c0b70a164e6",
          "transactionIndex": "0x1",
          "logIndex": "0x1",
          "removed": false
        },
        {
          "address": "0xfe7c30860d01e28371d40434806f4a8fcdd3a098",
          "topics": [
            "0x07ea52d82345d6e838192107d8fd7123d9c2ec8e916cd0aad13fd2b60db24644"
          ],
          "data": "0x000000000000000000000000000000000000000000000000000000000000006000000000000000000000000000000000000000000000000000000000000000e0000000000000000000000000000000000000000000000000000000000000010000000000000000000000000000000000000000000000000000000000000000030000000000000000000000001e4ce74ccf5498b19900649d9196e64bab5924510000000000000000000000004208d6e27538189bb48e603d6123a94b8abe0a0b0000000000000000000000005e0744f8fbf26446c683bcf4cd405ad56ba76f8a00000000000000000000000000000000000000000000000000000000000000000000000000000000000000000000000000000000000000000000000000000003000000000000000000000000000000000000000000000000058e0f923f5000cf000000000000000000000000000000000000000000000000058e0f923f5000cf000000000000000000000000000000000000000000000000058e0f923f5000cf",
          "blockHash": "0x476667c9454172fd426b5b904cd58ce930d54c466eb015567b19481fbe3df355",
          "blockNumber": "0x19308be",
          "transactionHash": "0x7bafd60a55db38d53cae84fa1b30a1679cbfe338c4c170c512e74c0b70a164e6",
          "transactionIndex": "0x1",
          "logIndex": "0x2",
          "removed": false
        },
        {
          "address": "0xc1b15d3b262beec0e3565c11c9e0f6134bdacb36",
          "topics": [
            "0x1ab700d4ced0c005b164c0f789fd09fcbb0156d4c2041b8a3bfbcd961cd1567f"
          ],
          "data": "0x00000000000000000000000000000000000000000000000000000000000000600000000000000000000000000000000000000000000000000000000000000120000000000000000000000000fe7c30860d01e28371d40434806f4a8fcdd3a0980000000000000000000000000000000000000000000000000000000000000099010000000000000001000076a200000000000000000000000057558cb8d6005de0bae8a2789d5efaae52dba5a800007603000000000000000000000000a057d8d4fc86a62801ce363c169b0a8d192f6ceed3aa4c5a0569099042fbeda305818387031fc46a81f724ce1b5b57fac7e519450000000000000000000000004a767e2ef83577225522ef8ed71056c6e3acb21600000000000f424000000000000000000000000000000000000000000000000000000000000000000000000000001600030100110100000000000000000000000000030d4000000000000000000000",
          "blockHash": "0x476667c9454172fd426b5b904cd58ce930d54c466eb015567b19481fbe3df355",
          "blockNumber": "0x19308be",
          "transactionHash": "0x7bafd60a55db38d53cae84fa1b30a1679cbfe338c4c170c512e74c0b70a164e6",
          "transactionIndex": "0x1",
          "logIndex": "0x3",
          "removed": false
        },
        {
          "address": "0x57558cb8d6005de0bae8a2789d5efaae52dba5a8",
          "topics": [
            "0x85496b760a4b7f8d66384b9df21b381f5d1b1e79f229a47aaf4c232edc2fe59a",
            "0xd3aa4c5a0569099042fbeda305818387031fc46a81f724ce1b5b57fac7e51945",
            "0x000000000000000000000000741f0d8bde14140f62107fc60a0ee122b37d4630"
          ],
          "data": "0x00000000000000000000000000000000000000000000000000000000000076030000000000000000000000000000000000000000000000000de0b6b3a76400000000000000000000000000000000000000000000000000000de0b6b3a7640000",
          "blockHash": "0x476667c9454172fd426b5b904cd58ce930d54c466eb015567b19481fbe3df355",
          "blockNumber": "0x19308be",
          "transactionHash": "0x7bafd60a55db38d53cae84fa1b30a1679cbfe338c4c170c512e74c0b70a164e6",
          "transactionIndex": "0x1",
          "logIndex": "0x4",
          "removed": false
        },
        {
          "address": "0x57558cb8d6005de0bae8a2789d5efaae52dba5a8",
          "topics": [
            "0xddf252ad1be2c89b69c2b068fc378daa952ba7f163c4a11628f55a4df523b3ef",
            "0x000000000000000000000000741f0d8bde14140f62107fc60a0ee122b37d4630",
            "0x0000000000000000000000000000000000000000000000000000000000000000"
          ],
          "data": "0x0000000000000000000000000000000000000000000000000de0b6b3a7640000",
          "blockHash": "0x476667c9454172fd426b5b904cd58ce930d54c466eb015567b19481fbe3df355",
          "blockNumber": "0x19308be",
          "transactionHash": "0x7bafd60a55db38d53cae84fa1b30a1679cbfe338c4c170c512e74c0b70a164e6",
          "transactionIndex": "0x1",
          "logIndex": "0x5",
          "removed": false
        },
        {
          "address": "0xfe7c30860d01e28371d40434806f4a8fcdd3a098",
          "topics": [
            "0x61ed099e74a97a1d7f8bb0952a88ca8b7b8ebd00c126ea04671f92a81213318a"
          ],
          "data": "0x00000000000000000000000041bdb4aa4a63a5b2efc531858d3118392b1a1c3d0000000000000000000000000000000000000000000000004262fadc5206f3b8",
          "blockHash": "0x476667c9454172fd426b5b904cd58ce930d54c466eb015567b19481fbe3df355",
          "blockNumber": "0x19308be",
          "transactionHash": "0x7bafd60a55db38d53cae84fa1b30a1679cbfe338c4c170c512e74c0b70a164e6",
          "transactionIndex": "0x1",
          "logIndex": "0x6",
          "removed": false
        },
        {
          "address": "0xfe7c30860d01e28371d40434806f4a8fcdd3a098",
          "topics": [
            "0x07ea52d82345d6e838192107d8fd7123d9c2ec8e916cd0aad13fd2b60db24644"
          ],
          "data": "0x000000000000000000000000000000000000000000000000000000000000006000000000000000000000000000000000000000000000000000000000000000e0000000000000000000000000000000000000000000000000000000000000010000000000000000000000000000000000000000000000000000000000000000030000000000000000000000001e4ce74ccf5498b19900649d9196e64bab5924510000000000000000000000004208d6e27538189bb48e603d6123a94b8abe0a0b0000000000000000000000005e0744f8fbf26446c683bcf4cd405ad56ba76f8a000000000000000000000000000000000000000000000000000000000000000000000000000000000000000000000000000000000000000000000000000000030000000000000000000000000000000000000000000000000002473c3ca71b540000000000000000000000000000000000000000000000000002473c3ca71b540000000000000000000000000000000000000000000000000002473c3ca71b54",
          "blockHash": "0x476667c9454172fd426b5b904cd58ce930d54c466eb015567b19481fbe3df355",
          "blockNumber": "0x19308be",
          "transactionHash": "0x7bafd60a55db38d53cae84fa1b30a1679cbfe338c4c170c512e74c0b70a164e6",
          "transactionIndex": "0x1",
          "logIndex": "0x7",
          "removed": false
        },
        {
          "address": "0xc1b15d3b262beec0e3565c11c9e0f6134bdacb36",
          "topics": [
            "0x1ab700d4ced0c005b164c0f789fd09fcbb0156d4c2041b8a3bfbcd961cd1567f"
          ],
          "data": "0x00000000000000000000000000000000000000000000000000000000000000600000000000000000000000000000000000000000000000000000000000000120000000000000000000000000fe7c30860d01e28371d40434806f4a8fcdd3a0980000000000000000000000000000000000000000000000000000000000000099010000000000000001000076a200000000000000000000000057558cb8d6005de0bae8a2789d5efaae52dba5a80000760600000000000000000000000057558cb8d6005de0bae8a2789d5efaae52dba5a878f06b51a49775b25494625aed0ad09e7a609f896aeb67f84d97ac3259a7d2c5000000000000000000000000741f0d8bde14140f62107fc60a0ee122b37d463000000000000f424000000000000000000000000000000000000000000000000000000000000000000000000000001600030100110100000000000000000000000000030d4000000000000000000000",
          "blockHash": "0x476667c9454172fd426b5b904cd58ce930d54c466eb015567b19481fbe3df355",
          "blockNumber": "0x19308be",
          "transactionHash": "0x7bafd60a55db38d53cae84fa1b30a1679cbfe338c4c170c512e74c0b70a164e6",
          "transactionIndex": "0x1",
          "logIndex": "0x8",
          "removed": false
        },
        {
          "address": "0x57558cb8d6005de0bae8a2789d5efaae52dba5a8",
          "topics": [
            "0x85496b760a4b7f8d66384b9df21b381f5d1b1e79f229a47aaf4c232edc2fe59a",
            "0x78f06b51a49775b25494625aed0ad09e7a609f896aeb67f84d97ac3259a7d2c5",
            "0x000000000000000000000000741f0d8bde14140f62107fc60a0ee122b37d4630"
          ],
          "data": "0x00000000000000000000000000000000000000000000000000000000000076060000000000000000000000000000000000000000000000000de0b6b3a76400000000000000000000000000000000000000000000000000000de0b6b3a7640000",
          "blockHash": "0x476667c9454172fd426b5b904cd58ce930d54c466eb015567b19481fbe3df355",
          "blockNumber": "0x19308be",
          "transactionHash": "0x7bafd60a55db38d53cae84fa1b30a1679cbfe338c4c170c512e74c0b70a164e6",
          "transactionIndex": "0x1",
          "logIndex": "0x9",
          "removed": false
        }
      ],
      "logsBloom": "0x0000000000000000000000000004004000000000000000000000000000000000000000000002000000000200000004040000010000000004000000000000000000000280000000000000000800000000000000000000000000800000000000000000000002000000800000000010080000000001000000000000001000000000000000000000000000010088000000000000000000000000000000000000000000000000a000001000100000000000000000000000400000000440000000000000000042000000000000000080000000000000000000000000000000000020000000040000000000000000000000002000000000008000000800000000000000",
      "type": "0x2",
      "transactionHash": "0x7bafd60a55db38d53cae84fa1b30a1679cbfe338c4c170c512e74c0b70a164e6",
      "transactionIndex": "0x1",
      "blockHash": "0x476667c9454172fd426b5b904cd58ce930d54c466eb015567b19481fbe3df355",
      "blockNumber": "0x19308be",
      "gasUsed": "0xa4223",
      "effectiveGasPrice": "0xe8d4a51000",
      "from": "0x45dce8e4f2dc005a5f28206a46cb034697eeda8e",
      "to": "0x741f0d8bde14140f62107fc60a0ee122b37d4630",
      "contractAddress": null,
      "gasUsedForL1": "0x0",
      "l1BlockNumber": "0x163b3dc"
    }
  ],
  "libraries": [],
  "pending": [],
  "returns": {},
  "timestamp": 1757249392882,
  "chain": 98866,
  "commit": "51c9ef6"
}