{
  "transactions": [
    {
      "hash": "0x6fcbeb3848b7eed123b8f6662e2b01e51122ae16e4c034f70d54e6fffe4aa0b8",
      "transactionType": "CALL",
      "contractName": null,
      "contractAddress": "0x741f0d8bde14140f62107fc60a0ee122b37d4630",
      "function": "batchBridgeWithEthFeeFromWallet((uint32,bytes32,uint256,uint256,bytes,bytes,bytes)[],address[],address[])",
      "arguments": [
        "[(30383, 0x000000000000000000000000741f0d8bde14140f62107fc60a0ee122b37d4630, 500000000000000000, 0, 0x, 0x, 0x)]",
        "[0x57558Cb8d6005DE0BAe8a2789d5EfaaE52dba5a8]",
        "[0x741F0d8Bde14140f62107FC60A0EE122B37D4630]"
      ],
      "transaction": {
        "from": "0x45dce8e4f2dc005a5f28206a46cb034697eeda8e",
        "to": "0x741f0d8bde14140f62107fc60a0ee122b37d4630",
        "gas": "0x8d524",
        "value": "0xdf909a7924c86fb",
        "input": "0xb70d4241000000000000000000000000000000000000000000000000000000000000006000000000000000000000000000000000000000000000000000000000000001e000000000000000000000000000000000000000000000000000000000000002200000000000000000000000000000000000000000000000000000000000000001000000000000000000000000000000000000000000000000000000000000002000000000000000000000000000000000000000000000000000000000000076af000000000000000000000000741f0d8bde14140f62107fc60a0ee122b37d463000000000000000000000000000000000000000000000000006f05b59d3b20000000000000000000000000000000000000000000000000000000000000000000000000000000000000000000000000000000000000000000000000000000000e000000000000000000000000000000000000000000000000000000000000001000000000000000000000000000000000000000000000000000000000000000120000000000000000000000000000000000000000000000000000000000000000000000000000000000000000000000000000000000000000000000000000000000000000000000000000000000000000000000000000000000000000000000000000000000000000000000000000000000000000000000000000000000000000100000000000000000000000057558cb8d6005de0bae8a2789d5efaae52dba5a80000000000000000000000000000000000000000000000000000000000000001000000000000000000000000741f0d8bde14140f62107fc60a0ee122b37d4630",
        "nonce": "0x8a",
        "chainId": "0x18232"
      },
      "additionalContracts": [],
      "isFixedGasLimit": false
    }
  ],
  "receipts": [
    {
      "status": "0x1",
      "cumulativeGasUsed": "0xa4223",
      "logs": [
        {
          "address": "0x57558cb8d6005de0bae8a2789d5efaae52dba5a8",
          "topics": [
            "0xddf252ad1be2c89b69c2b068fc378daa952ba7f163c4a11628f55a4df523b3ef",
            "0x000000000000000000000000741f0d8bde14140f62107fc60a0ee122b37d4630",
            "0x0000000000000000000000000000000000000000000000000000000000000000"
          ],
          "data": "0x00000000000000000000000000000000000000000000000006f05b59d3b20000",
          "blockHash": "0x5b786a306e9004e2a859ba651792426ec192e388fdfe461432d9923fdee548fc",
          "blockNumber": "0x1e76ba2",
          "transactionHash": "0x6fcbeb3848b7eed123b8f6662e2b01e51122ae16e4c034f70d54e6fffe4aa0b8",
          "transactionIndex": "0x1",
          "logIndex": "0x0",
          "removed": false
        },
        {
          "address": "0xfe7c30860d01e28371d40434806f4a8fcdd3a098",
          "topics": [
            "0x61ed099e74a97a1d7f8bb0952a88ca8b7b8ebd00c126ea04671f92a81213318a"
          ],
          "data": "0x00000000000000000000000041bdb4aa4a63a5b2efc531858d3118392b1a1c3d0000000000000000000000000000000000000000000000000df909a15e944232",
          "blockHash": "0x5b786a306e9004e2a859ba651792426ec192e388fdfe461432d9923fdee548fc",
          "blockNumber": "0x1e76ba2",
          "transactionHash": "0x6fcbeb3848b7eed123b8f6662e2b01e51122ae16e4c034f70d54e6fffe4aa0b8",
          "transactionIndex": "0x1",
          "logIndex": "0x1",
          "removed": false
        },
        {
          "address": "0xfe7c30860d01e28371d40434806f4a8fcdd3a098",
          "topics": [
            "0x07ea52d82345d6e838192107d8fd7123d9c2ec8e916cd0aad13fd2b60db24644"
          ],
          "data": "0x000000000000000000000000000000000000000000000000000000000000006000000000000000000000000000000000000000000000000000000000000000e0000000000000000000000000000000000000000000000000000000000000010000000000000000000000000000000000000000000000000000000000000000030000000000000000000000001e4ce74ccf5498b19900649d9196e64bab5924510000000000000000000000004208d6e27538189bb48e603d6123a94b8abe0a0b0000000000000000000000005e0744f8fbf26446c683bcf4cd405ad56ba76f8a0000000000000000000000000000000000000000000000000000000000000000000000000000000000000000000000000000000000000000000000000000000300000000000000000000000000000000000000000000000000000002113d6c4300000000000000000000000000000000000000000000000000000002113d6c4300000000000000000000000000000000000000000000000000000002113d6c43",
          "blockHash": "0x5b786a306e9004e2a859ba651792426ec192e388fdfe461432d9923fdee548fc",
          "blockNumber": "0x1e76ba2",
          "transactionHash": "0x6fcbeb3848b7eed123b8f6662e2b01e51122ae16e4c034f70d54e6fffe4aa0b8",
          "transactionIndex": "0x1",
          "logIndex": "0x2",
          "removed": false
        },
        {
          "address": "0xc1b15d3b262beec0e3565c11c9e0f6134bdacb36",
          "topics": [
            "0x1ab700d4ced0c005b164c0f789fd09fcbb0156d4c2041b8a3bfbcd961cd1567f"
          ],
          "data": "0x00000000000000000000000000000000000000000000000000000000000000600000000000000000000000000000000000000000000000000000000000000120000000000000000000000000fe7c30860d01e28371d40434806f4a8fcdd3a0980000000000000000000000000000000000000000000000000000000000000099010000000000000001000076a200000000000000000000000057558cb8d6005de0bae8a2789d5efaae52dba5a8000076af00000000000000000000000057558cb8d6005de0bae8a2789d5efaae52dba5a8f7328c7fdb697322676c289a38350f55c4c1ad97c918e66287bcd09f2de5f548000000000000000000000000741f0d8bde14140f62107fc60a0ee122b37d4630000000000007a12000000000000000000000000000000000000000000000000000000000000000000000000000001600030100110100000000000000000000000000030d4000000000000000000000",
          "blockHash": "0x5b786a306e9004e2a859ba651792426ec192e388fdfe461432d9923fdee548fc",
          "blockNumber": "0x1e76ba2",
          "transactionHash": "0x6fcbeb3848b7eed123b8f6662e2b01e51122ae16e4c034f70d54e6fffe4aa0b8",
          "transactionIndex": "0x1",
          "logIndex": "0x3",
          "removed": false
        },
        {
          "address": "0x57558cb8d6005de0bae8a2789d5efaae52dba5a8",
          "topics": [
            "0x85496b760a4b7f8d66384b9df21b381f5d1b1e79f229a47aaf4c232edc2fe59a",
            "0xf7328c7fdb697322676c289a38350f55c4c1ad97c918e66287bcd09f2de5f548",
            "0x000000000000000000000000741f0d8bde14140f62107fc60a0ee122b37d4630"
          ],
          "data": "0x00000000000000000000000000000000000000000000000000000000000076af00000000000000000000000000000000000000000000000006f05b59d3b2000000000000000000000000000000000000000000000000000006f05b59d3b20000",
          "blockHash": "0x5b786a306e9004e2a859ba651792426ec192e388fdfe461432d9923fdee548fc",
          "blockNumber": "0x1e76ba2",
          "transactionHash": "0x6fcbeb3848b7eed123b8f6662e2b01e51122ae16e4c034f70d54e6fffe4aa0b8",
          "transactionIndex": "0x1",
          "logIndex": "0x4",
          "removed": false
        },
        {
          "address": "0x57558cb8d6005de0bae8a2789d5efaae52dba5a8",
          "topics": [
            "0xddf252ad1be2c89b69c2b068fc378daa952ba7f163c4a11628f55a4df523b3ef",
            "0x000000000000000000000000741f0d8bde14140f62107fc60a0ee122b37d4630",
            "0x0000000000000000000000000000000000000000000000000000000000000000"
          ],
          "data": "0x0000000000000000000000000000000000000000000000000de0b6b3a7640000",
          "blockHash": "0x476667c9454172fd426b5b904cd58ce930d54c466eb015567b19481fbe3df355",
          "blockNumber": "0x19308be",
          "transactionHash": "0x7bafd60a55db38d53cae84fa1b30a1679cbfe338c4c170c512e74c0b70a164e6",
          "transactionIndex": "0x1",
          "logIndex": "0x5",
          "removed": false
        },
        {
          "address": "0xfe7c30860d01e28371d40434806f4a8fcdd3a098",
          "topics": [
            "0x61ed099e74a97a1d7f8bb0952a88ca8b7b8ebd00c126ea04671f92a81213318a"
          ],
          "data": "0x00000000000000000000000041bdb4aa4a63a5b2efc531858d3118392b1a1c3d0000000000000000000000000000000000000000000000004262fadc5206f3b8",
          "blockHash": "0x476667c9454172fd426b5b904cd58ce930d54c466eb015567b19481fbe3df355",
          "blockNumber": "0x19308be",
          "transactionHash": "0x7bafd60a55db38d53cae84fa1b30a1679cbfe338c4c170c512e74c0b70a164e6",
          "transactionIndex": "0x1",
          "logIndex": "0x6",
          "removed": false
        },
        {
          "address": "0xfe7c30860d01e28371d40434806f4a8fcdd3a098",
          "topics": [
            "0x07ea52d82345d6e838192107d8fd7123d9c2ec8e916cd0aad13fd2b60db24644"
          ],
          "data": "0x000000000000000000000000000000000000000000000000000000000000006000000000000000000000000000000000000000000000000000000000000000e0000000000000000000000000000000000000000000000000000000000000010000000000000000000000000000000000000000000000000000000000000000030000000000000000000000001e4ce74ccf5498b19900649d9196e64bab5924510000000000000000000000004208d6e27538189bb48e603d6123a94b8abe0a0b0000000000000000000000005e0744f8fbf26446c683bcf4cd405ad56ba76f8a000000000000000000000000000000000000000000000000000000000000000000000000000000000000000000000000000000000000000000000000000000030000000000000000000000000000000000000000000000000002473c3ca71b540000000000000000000000000000000000000000000000000002473c3ca71b540000000000000000000000000000000000000000000000000002473c3ca71b54",
          "blockHash": "0x476667c9454172fd426b5b904cd58ce930d54c466eb015567b19481fbe3df355",
          "blockNumber": "0x19308be",
          "transactionHash": "0x7bafd60a55db38d53cae84fa1b30a1679cbfe338c4c170c512e74c0b70a164e6",
          "transactionIndex": "0x1",
          "logIndex": "0x7",
          "removed": false
        },
        {
          "address": "0xc1b15d3b262beec0e3565c11c9e0f6134bdacb36",
          "topics": [
            "0x1ab700d4ced0c005b164c0f789fd09fcbb0156d4c2041b8a3bfbcd961cd1567f"
          ],
          "data": "0x00000000000000000000000000000000000000000000000000000000000000600000000000000000000000000000000000000000000000000000000000000120000000000000000000000000fe7c30860d01e28371d40434806f4a8fcdd3a0980000000000000000000000000000000000000000000000000000000000000099010000000000000001000076a200000000000000000000000057558cb8d6005de0bae8a2789d5efaae52dba5a80000760600000000000000000000000057558cb8d6005de0bae8a2789d5efaae52dba5a878f06b51a49775b25494625aed0ad09e7a609f896aeb67f84d97ac3259a7d2c5000000000000000000000000741f0d8bde14140f62107fc60a0ee122b37d463000000000000f424000000000000000000000000000000000000000000000000000000000000000000000000000001600030100110100000000000000000000000000030d4000000000000000000000",
          "blockHash": "0x476667c9454172fd426b5b904cd58ce930d54c466eb015567b19481fbe3df355",
          "blockNumber": "0x19308be",
          "transactionHash": "0x7bafd60a55db38d53cae84fa1b30a1679cbfe338c4c170c512e74c0b70a164e6",
          "transactionIndex": "0x1",
          "logIndex": "0x8",
          "removed": false
        },
        {
          "address": "0x57558cb8d6005de0bae8a2789d5efaae52dba5a8",
          "topics": [
            "0x85496b760a4b7f8d66384b9df21b381f5d1b1e79f229a47aaf4c232edc2fe59a",
            "0x78f06b51a49775b25494625aed0ad09e7a609f896aeb67f84d97ac3259a7d2c5",
            "0x000000000000000000000000741f0d8bde14140f62107fc60a0ee122b37d4630"
          ],
          "data": "0x00000000000000000000000000000000000000000000000000000000000076060000000000000000000000000000000000000000000000000de0b6b3a76400000000000000000000000000000000000000000000000000000de0b6b3a7640000",
          "blockHash": "0x476667c9454172fd426b5b904cd58ce930d54c466eb015567b19481fbe3df355",
          "blockNumber": "0x19308be",
          "transactionHash": "0x7bafd60a55db38d53cae84fa1b30a1679cbfe338c4c170c512e74c0b70a164e6",
          "transactionIndex": "0x1",
          "logIndex": "0x9",
          "removed": false
        }
      ],
      "logsBloom": "0x0000000000000000000000000004004008000000000000000000000000000000000000000002000000000200000000040000010000000004000000000000000000000280000000000000000800000000000000000000000000000000000000000000000002000000800000000000080000400001000000000000001000000000000000000000000000000008000000000000000000000000000000000000000000000000a000001000100000000000000000000000400000000440000000000000000042000000000000000080000000000000000000000000000000000020000000040000000000000000000000002000000000008004000000000000000000",
      "type": "0x2",
      "transactionHash": "0x6fcbeb3848b7eed123b8f6662e2b01e51122ae16e4c034f70d54e6fffe4aa0b8",
      "transactionIndex": "0x1",
      "blockHash": "0x5b786a306e9004e2a859ba651792426ec192e388fdfe461432d9923fdee548fc",
      "blockNumber": "0x1e76ba2",
      "gasUsed": "0x66507",
      "effectiveGasPrice": "0xe8d4a51000",
      "from": "0x45dce8e4f2dc005a5f28206a46cb034697eeda8e",
      "to": "0x741f0d8bde14140f62107fc60a0ee122b37d4630",
      "contractAddress": null,
      "gasUsedForL1": "0x0",
      "l1BlockNumber": "0x166cad7"
    }
  ],
  "libraries": [],
  "pending": [],
  "returns": {},
  "timestamp": 1759694402154,
  "chain": 98866,
  "commit": "eed1662"
}