{
  "transactions": [
    {
      "hash": "0x78daa1eb3b136c8de92c37077c003dc41c44ed3a3c72c6b6432ca3064b325cc1",
      "transactionType": "CALL",
      "contractName": null,
      "contractAddress": "0x741f0d8bde14140f62107fc60a0ee122b37d4630",
      "function": "batchBridgeWithEthFeeFromWallet((uint32,bytes32,uint256,uint256,bytes,bytes,bytes)[],address[],address[])",
      "arguments": [
        "[(30367, 0x000000000000000000000000741f0d8bde14140f62107fc60a0ee122b37d4630, 500000000000000000, 0, 0x, 0x, 0x)]",
        "[0x57558Cb8d6005DE0BAe8a2789d5EfaaE52dba5a8]",
        "[0x741F0d8Bde14140f62107FC60A0EE122B37D4630]"
      ],
      "transaction": {
        "from": "0x45dce8e4f2dc005a5f28206a46cb034697eeda8e",
        "to": "0x741f0d8bde14140f62107fc60a0ee122b37d4630",
        "gas": "0x95056",
        "value": "0x4a857716cf6",
        "input": "0xb70d4241000000000000000000000000000000000000000000000000000000000000006000000000000000000000000000000000000000000000000000000000000001e0000000000000000000000000000000000000000000000000000000000000022000000000000000000000000000000000000000000000000000000000000000010000000000000000000000000000000000000000000000000000000000000020000000000000000000000000000000000000000000000000000000000000769f000000000000000000000000741f0d8bde14140f62107fc60a0ee122b37d463000000000000000000000000000000000000000000000000006f05b59d3b20000000000000000000000000000000000000000000000000000000000000000000000000000000000000000000000000000000000000000000000000000000000e000000000000000000000000000000000000000000000000000000000000001000000000000000000000000000000000000000000000000000000000000000120000000000000000000000000000000000000000000000000000000000000000000000000000000000000000000000000000000000000000000000000000000000000000000000000000000000000000000000000000000000000000000000000000000000000000000000000000000000000000000000000000000000000000100000000000000000000000057558cb8d6005de0bae8a2789d5efaae52dba5a80000000000000000000000000000000000000000000000000000000000000001000000000000000000000000741f0d8bde14140f62107fc60a0ee122b37d4630",
        "nonce": "0xd3",
        "chainId": "0x1"
      },
      "additionalContracts": [],
      "isFixedGasLimit": false
    }
  ],
  "receipts": [
    {
      "status": "0x1",
      "cumulativeGasUsed": "0x1a13810",
      "logs": [
        {
          "address": "0x57558cb8d6005de0bae8a2789d5efaae52dba5a8",
          "topics": [
            "0xddf252ad1be2c89b69c2b068fc378daa952ba7f163c4a11628f55a4df523b3ef",
            "0x000000000000000000000000741f0d8bde14140f62107fc60a0ee122b37d4630",
            "0x0000000000000000000000000000000000000000000000000000000000000000"
          ],
          "data": "0x00000000000000000000000000000000000000000000000006f05b59d3b20000",
          "blockHash": "0x24f73bffb7b10f5736a028b2ddbe310ef6b88609471860ef49a6843937e8dd83",
          "blockNumber": "0x1646fae",
          "blockTimestamp": "0x68c65adb",
          "transactionHash": "0x78daa1eb3b136c8de92c37077c003dc41c44ed3a3c72c6b6432ca3064b325cc1",
          "transactionIndex": "0xed",
          "logIndex": "0x34d",
          "removed": false
        },
        {
          "address": "0xbb2ea70c9e858123480642cf96acbcce1372dce1",
          "topics": [
            "0x61ed099e74a97a1d7f8bb0952a88ca8b7b8ebd00c126ea04671f92a81213318a"
          ],
          "data": "0x000000000000000000000000173272739bd7aa6e4e214714048a9fe6994530590000000000000000000000000000000000000000000000000000045354ca9a42",
          "blockHash": "0x24f73bffb7b10f5736a028b2ddbe310ef6b88609471860ef49a6843937e8dd83",
          "blockNumber": "0x1646fae",
          "blockTimestamp": "0x68c65adb",
          "transactionHash": "0x78daa1eb3b136c8de92c37077c003dc41c44ed3a3c72c6b6432ca3064b325cc1",
          "transactionIndex": "0xed",
          "logIndex": "0x34e",
          "removed": false
        },
        {
          "address": "0xbb2ea70c9e858123480642cf96acbcce1372dce1",
          "topics": [
            "0x07ea52d82345d6e838192107d8fd7123d9c2ec8e916cd0aad13fd2b60db24644"
          ],
          "data": "0x000000000000000000000000000000000000000000000000000000000000006000000000000000000000000000000000000000000000000000000000000000e000000000000000000000000000000000000000000000000000000000000001000000000000000000000000000000000000000000000000000000000000000003000000000000000000000000380275805876ff19055ea900cdb2b46a94ecf20d00000000000000000000000038654142f5e672ae86a1b21523aafc765e6a1e08000000000000000000000000589dedbd617e0cbcb916a9223f4d1300c294236b000000000000000000000000000000000000000000000000000000000000000000000000000000000000000000000000000000000000000000000000000000030000000000000000000000000000000000000000000000000000001bf1f884ed0000000000000000000000000000000000000000000000000000001d1eb5c8da0000000000000000000000000000000000000000000000000000001bf1f884ed",
          "blockHash": "0x24f73bffb7b10f5736a028b2ddbe310ef6b88609471860ef49a6843937e8dd83",
          "blockNumber": "0x1646fae",
          "blockTimestamp": "0x68c65adb",
          "transactionHash": "0x78daa1eb3b136c8de92c37077c003dc41c44ed3a3c72c6b6432ca3064b325cc1",
          "transactionIndex": "0xed",
          "logIndex": "0x34f",
          "removed": false
        },
        {
          "address": "0x1a44076050125825900e736c501f859c50fe728c",
          "topics": [
            "0x1ab700d4ced0c005b164c0f789fd09fcbb0156d4c2041b8a3bfbcd961cd1567f"
          ],
          "data": "0x00000000000000000000000000000000000000000000000000000000000000600000000000000000000000000000000000000000000000000000000000000120000000000000000000000000bb2ea70c9e858123480642cf96acbcce1372dce100000000000000000000000000000000000000000000000000000000000000990100000000000000010000759500000000000000000000000057558cb8d6005de0bae8a2789d5efaae52dba5a80000769f00000000000000000000000057558cb8d6005de0bae8a2789d5efaae52dba5a87385e7257f015205467e154ff8e08e65dcdd40b383f78c61db2c7c24d3a3ea0b000000000000000000000000741f0d8bde14140f62107fc60a0ee122b37d4630000000000007a12000000000000000000000000000000000000000000000000000000000000000000000000000001600030100110100000000000000000000000000030d4000000000000000000000",
          "blockHash": "0x24f73bffb7b10f5736a028b2ddbe310ef6b88609471860ef49a6843937e8dd83",
          "blockNumber": "0x1646fae",
          "blockTimestamp": "0x68c65adb",
          "transactionHash": "0x78daa1eb3b136c8de92c37077c003dc41c44ed3a3c72c6b6432ca3064b325cc1",
          "transactionIndex": "0xed",
          "logIndex": "0x350",
          "removed": false
        },
        {
          "address": "0x57558cb8d6005de0bae8a2789d5efaae52dba5a8",
          "topics": [
            "0x85496b760a4b7f8d66384b9df21b381f5d1b1e79f229a47aaf4c232edc2fe59a",
            "0x7385e7257f015205467e154ff8e08e65dcdd40b383f78c61db2c7c24d3a3ea0b",
            "0x000000000000000000000000741f0d8bde14140f62107fc60a0ee122b37d4630"
          ],
          "data": "0x000000000000000000000000000000000000000000000000000000000000769f00000000000000000000000000000000000000000000000006f05b59d3b2000000000000000000000000000000000000000000000000000006f05b59d3b20000",
          "blockHash": "0x24f73bffb7b10f5736a028b2ddbe310ef6b88609471860ef49a6843937e8dd83",
          "blockNumber": "0x1646fae",
          "blockTimestamp": "0x68c65adb",
          "transactionHash": "0x78daa1eb3b136c8de92c37077c003dc41c44ed3a3c72c6b6432ca3064b325cc1",
          "transactionIndex": "0xed",
          "logIndex": "0x351",
          "removed": false
        }
      ],
      "logsBloom": "0x0000000000000000000000000004004040000000000000000000000000100000040000000000000000000000000000040000010000000002000000000000000000000200000040000000000800000000000020000000000000000000000000000000000002000000800000000000080000000000001000000000001000000000000000000000000000100008000000000000000000000000000000000000000000000000a000001000100000000000000000000000400000000440000000000000000002000000000000000080000000000000000000000000000000000020000000040000000000000000000000002000000000018000000000000000000000",
      "type": "0x2",
      "transactionHash": "0x78daa1eb3b136c8de92c37077c003dc41c44ed3a3c72c6b6432ca3064b325cc1",
      "transactionIndex": "0xed",
      "blockHash": "0x24f73bffb7b10f5736a028b2ddbe310ef6b88609471860ef49a6843937e8dd83",
      "blockNumber": "0x1646fae",
      "gasUsed": "0x65e51",
      "effectiveGasPrice": "0x7c824e7",
      "from": "0x45dce8e4f2dc005a5f28206a46cb034697eeda8e",
      "to": "0x741f0d8bde14140f62107fc60a0ee122b37d4630",
      "contractAddress": null
    }
  ],
  "libraries": [],
  "pending": [],
  "returns": {},
  "timestamp": 1757829855143,
  "chain": 1,
  "commit": "97886d9"
}