{
  "transactions": [
    {
      "hash": "0x415387708b583d2f3eb4a23fe142f9098f48fb1993d2196dd89900009ec1b750",
      "transactionType": "CALL",
      "contractName": null,
      "contractAddress": "0x741f0d8bde14140f62107fc60a0ee122b37d4630",
      "function": "batchBridgeWithEthFeeFromWallet((uint32,bytes32,uint256,uint256,bytes,bytes,bytes)[],address[],address[])",
      "arguments": [
        "[(30211, 0x0000000000000000000000004a767e2ef83577225522ef8ed71056c6e3acb216, 1000000000000000000, 0, 0x, 0x, 0x)]",
        "[0x57558Cb8d6005DE0BAe8a2789d5EfaaE52dba5a8]",
        "[0x741F0d8Bde14140f62107FC60A0EE122B37D4630]"
      ],
      "transaction": {
        "from": "0x45dce8e4f2dc005a5f28206a46cb034697eeda8e",
        "to": "0x741f0d8bde14140f62107fc60a0ee122b37d4630",
        "gas": "0x95056",
        "value": "0x3a080c467ed6",
        "input": "0xb70d4241000000000000000000000000000000000000000000000000000000000000006000000000000000000000000000000000000000000000000000000000000001e000000000000000000000000000000000000000000000000000000000000002200000000000000000000000000000000000000000000000000000000000000001000000000000000000000000000000000000000000000000000000000000002000000000000000000000000000000000000000000000000000000000000076030000000000000000000000004a767e2ef83577225522ef8ed71056c6e3acb2160000000000000000000000000000000000000000000000000de0b6b3a7640000000000000000000000000000000000000000000000000000000000000000000000000000000000000000000000000000000000000000000000000000000000e000000000000000000000000000000000000000000000000000000000000001000000000000000000000000000000000000000000000000000000000000000120000000000000000000000000000000000000000000000000000000000000000000000000000000000000000000000000000000000000000000000000000000000000000000000000000000000000000000000000000000000000000000000000000000000000000000000000000000000000000000000000000000000000000100000000000000000000000057558cb8d6005de0bae8a2789d5efaae52dba5a80000000000000000000000000000000000000000000000000000000000000001000000000000000000000000741f0d8bde14140f62107fc60a0ee122b37d4630",
        "nonce": "0xc6",
        "chainId": "0x1"
      },
      "additionalContracts": [],
      "isFixedGasLimit": false
    }
  ],
  "receipts": [
    {
      "status": "0x1",
      "cumulativeGasUsed": "0x1701fc6",
      "logs": [
        {
          "address": "0x57558cb8d6005de0bae8a2789d5efaae52dba5a8",
          "topics": [
            "0xddf252ad1be2c89b69c2b068fc378daa952ba7f163c4a11628f55a4df523b3ef",
            "0x000000000000000000000000741f0d8bde14140f62107fc60a0ee122b37d4630",
            "0x0000000000000000000000000000000000000000000000000000000000000000"
          ],
          "data": "0x0000000000000000000000000000000000000000000000000de0b6b3a7640000",
          "blockHash": "0x360faf2191ae41e08544257cb719f5510f68d099edd5d171204f1d4a93c5519d",
          "blockNumber": "0x162c318",
          "transactionHash": "0x415387708b583d2f3eb4a23fe142f9098f48fb1993d2196dd89900009ec1b750",
          "transactionIndex": "0xdb",
          "logIndex": "0x22b",
          "removed": false
        },
        {
          "address": "0xbb2ea70c9e858123480642cf96acbcce1372dce1",
          "topics": [
            "0x61ed099e74a97a1d7f8bb0952a88ca8b7b8ebd00c126ea04671f92a81213318a"
          ],
          "data": "0x000000000000000000000000173272739bd7aa6e4e214714048a9fe69945305900000000000000000000000000000000000000000000000000002637b33bc6d6",
          "blockHash": "0x360faf2191ae41e08544257cb719f5510f68d099edd5d171204f1d4a93c5519d",
          "blockNumber": "0x162c318",
          "transactionHash": "0x415387708b583d2f3eb4a23fe142f9098f48fb1993d2196dd89900009ec1b750",
          "transactionIndex": "0xdb",
          "logIndex": "0x22c",
          "removed": false
        },
        {
          "address": "0xbb2ea70c9e858123480642cf96acbcce1372dce1",
          "topics": [
            "0x07ea52d82345d6e838192107d8fd7123d9c2ec8e916cd0aad13fd2b60db24644"
          ],
          "data": "0x000000000000000000000000000000000000000000000000000000000000006000000000000000000000000000000000000000000000000000000000000000e000000000000000000000000000000000000000000000000000000000000001000000000000000000000000000000000000000000000000000000000000000003000000000000000000000000380275805876ff19055ea900cdb2b46a94ecf20d00000000000000000000000038654142f5e672ae86a1b21523aafc765e6a1e08000000000000000000000000589dedbd617e0cbcb916a9223f4d1300c294236b00000000000000000000000000000000000000000000000000000000000000000000000000000000000000000000000000000000000000000000000000000003000000000000000000000000000000000000000000000000000006836ae6e800000000000000000000000000000000000000000000000000000006c9833ce800000000000000000000000000000000000000000000000000000006836ae6e800",
          "blockHash": "0x360faf2191ae41e08544257cb719f5510f68d099edd5d171204f1d4a93c5519d",
          "blockNumber": "0x162c318",
          "transactionHash": "0x415387708b583d2f3eb4a23fe142f9098f48fb1993d2196dd89900009ec1b750",
          "transactionIndex": "0xdb",
          "logIndex": "0x22d",
          "removed": false
        },
        {
          "address": "0x1a44076050125825900e736c501f859c50fe728c",
          "topics": [
            "0x1ab700d4ced0c005b164c0f789fd09fcbb0156d4c2041b8a3bfbcd961cd1567f"
          ],
          "data": "0x00000000000000000000000000000000000000000000000000000000000000600000000000000000000000000000000000000000000000000000000000000120000000000000000000000000bb2ea70c9e858123480642cf96acbcce1372dce100000000000000000000000000000000000000000000000000000000000000990100000000000000010000759500000000000000000000000057558cb8d6005de0bae8a2789d5efaae52dba5a800007603000000000000000000000000a057d8d4fc86a62801ce363c169b0a8d192f6ceecbb547b38ffbfc7bdc22fae99eed01a871cb9936d109d135f66134dffc5356600000000000000000000000004a767e2ef83577225522ef8ed71056c6e3acb21600000000000f424000000000000000000000000000000000000000000000000000000000000000000000000000001600030100110100000000000000000000000000030d4000000000000000000000",
          "blockHash": "0x360faf2191ae41e08544257cb719f5510f68d099edd5d171204f1d4a93c5519d",
          "blockNumber": "0x162c318",
          "transactionHash": "0x415387708b583d2f3eb4a23fe142f9098f48fb1993d2196dd89900009ec1b750",
          "transactionIndex": "0xdb",
          "logIndex": "0x22e",
          "removed": false
        },
        {
          "address": "0x57558cb8d6005de0bae8a2789d5efaae52dba5a8",
          "topics": [
            "0x85496b760a4b7f8d66384b9df21b381f5d1b1e79f229a47aaf4c232edc2fe59a",
            "0xcbb547b38ffbfc7bdc22fae99eed01a871cb9936d109d135f66134dffc535660",
            "0x000000000000000000000000741f0d8bde14140f62107fc60a0ee122b37d4630"
          ],
          "data": "0x00000000000000000000000000000000000000000000000000000000000076030000000000000000000000000000000000000000000000000de0b6b3a76400000000000000000000000000000000000000000000000000000de0b6b3a7640000",
          "blockHash": "0x360faf2191ae41e08544257cb719f5510f68d099edd5d171204f1d4a93c5519d",
          "blockNumber": "0x162c318",
          "transactionHash": "0x415387708b583d2f3eb4a23fe142f9098f48fb1993d2196dd89900009ec1b750",
          "transactionIndex": "0xdb",
          "logIndex": "0x22f",
          "removed": false
        }
      ],
      "logsBloom": "0x0000000000000000000000000004004000000000001000000000000000100000040000000000000000000000000000040000010000000000000000000000000000000200000000000000000800000000000020000004000000000000000000000000000002000000800000000000080000000000001000000000001000000000000000000000000000100008000000000000000000000000000000000000000000000000a000001000100000000000000000000000400000000440000000000000000002200000000000000080000000000000000000000000000000000020000000040000000000000000000000002000000000018000000000000000000000",
      "type": "0x2",
      "transactionHash": "0x415387708b583d2f3eb4a23fe142f9098f48fb1993d2196dd89900009ec1b750",
      "transactionIndex": "0xdb",
      "blockHash": "0x360faf2191ae41e08544257cb719f5510f68d099edd5d171204f1d4a93c5519d",
      "blockNumber": "0x162c318",
      "gasUsed": "0x65e51",
      "effectiveGasPrice": "0xf8d2c9f",
      "from": "0x45dce8e4f2dc005a5f28206a46cb034697eeda8e",
      "to": "0x741f0d8bde14140f62107fc60a0ee122b37d4630",
      "contractAddress": null
    }
  ],
  "libraries": [],
  "pending": [],
  "returns": {},
  "timestamp": 1756505533229,
  "chain": 1,
  "commit": "cda9302"
}