{
  "transactions": [
    {
      "hash": "0xc7333caa3edb72db7b90f742f362c4b6247721d1e54215735bcd7d247a21e0e4",
      "transactionType": "CALL",
      "contractName": null,
      "contractAddress": "0x741f0d8bde14140f62107fc60a0ee122b37d4630",
      "function": "batchBridgeWithEthFeeFromWallet((uint32,bytes32,uint256,uint256,bytes,bytes,bytes)[],address[],address[])",
      "arguments": [
        "[(30375, 0x000000000000000000000000741f0d8bde14140f62107fc60a0ee122b37d4630, 600000000000000000, 0, 0x, 0x, 0x)]",
        "[0x57558Cb8d6005DE0BAe8a2789d5EfaaE52dba5a8]",
        "[0x741F0d8Bde14140f62107FC60A0EE122B37D4630]"
      ],
      "transaction": {
        "from": "0x45dce8e4f2dc005a5f28206a46cb034697eeda8e",
        "to": "0x741f0d8bde14140f62107fc60a0ee122b37d4630",
        "gas": "0x95056",
        "value": "0x5ee694936da",
        "input": "0xb70d4241000000000000000000000000000000000000000000000000000000000000006000000000000000000000000000000000000000000000000000000000000001e000000000000000000000000000000000000000000000000000000000000002200000000000000000000000000000000000000000000000000000000000000001000000000000000000000000000000000000000000000000000000000000002000000000000000000000000000000000000000000000000000000000000076a7000000000000000000000000741f0d8bde14140f62107fc60a0ee122b37d46300000000000000000000000000000000000000000000000000853a0d2313c0000000000000000000000000000000000000000000000000000000000000000000000000000000000000000000000000000000000000000000000000000000000e000000000000000000000000000000000000000000000000000000000000001000000000000000000000000000000000000000000000000000000000000000120000000000000000000000000000000000000000000000000000000000000000000000000000000000000000000000000000000000000000000000000000000000000000000000000000000000000000000000000000000000000000000000000000000000000000000000000000000000000000000000000000000000000000100000000000000000000000057558cb8d6005de0bae8a2789d5efaae52dba5a80000000000000000000000000000000000000000000000000000000000000001000000000000000000000000741f0d8bde14140f62107fc60a0ee122b37d4630",
        "nonce": "0xb0",
        "chainId": "0x1"
      },
      "additionalContracts": [],
      "isFixedGasLimit": false
    }
  ],
  "receipts": [
    {
      "status": "0x1",
      "cumulativeGasUsed": "0xff995b",
      "logs": [
        {
          "address": "0x57558cb8d6005de0bae8a2789d5efaae52dba5a8",
          "topics": [
            "0xddf252ad1be2c89b69c2b068fc378daa952ba7f163c4a11628f55a4df523b3ef",
            "0x000000000000000000000000741f0d8bde14140f62107fc60a0ee122b37d4630",
            "0x0000000000000000000000000000000000000000000000000000000000000000"
          ],
          "data": "0x0000000000000000000000000000000000000000000000000853a0d2313c0000",
          "blockHash": "0xe013bfbffcf3a80592cae0b7e20d73587494315c2d1cce04d273d480d5113baf",
          "blockNumber": "0x15fae37",
          "transactionHash": "0xc7333caa3edb72db7b90f742f362c4b6247721d1e54215735bcd7d247a21e0e4",
          "transactionIndex": "0xe0",
          "logIndex": "0x1a8",
          "removed": false
        },
        {
          "address": "0xbb2ea70c9e858123480642cf96acbcce1372dce1",
          "topics": [
            "0x61ed099e74a97a1d7f8bb0952a88ca8b7b8ebd00c126ea04671f92a81213318a"
          ],
          "data": "0x000000000000000000000000173272739bd7aa6e4e214714048a9fe6994530590000000000000000000000000000000000000000000000000000055b903416e0",
          "blockHash": "0xe013bfbffcf3a80592cae0b7e20d73587494315c2d1cce04d273d480d5113baf",
          "blockNumber": "0x15fae37",
          "transactionHash": "0xc7333caa3edb72db7b90f742f362c4b6247721d1e54215735bcd7d247a21e0e4",
          "transactionIndex": "0xe0",
          "logIndex": "0x1a9",
          "removed": false
        },
        {
          "address": "0xbb2ea70c9e858123480642cf96acbcce1372dce1",
          "topics": [
            "0x07ea52d82345d6e838192107d8fd7123d9c2ec8e916cd0aad13fd2b60db24644"
          ],
          "data": "0x000000000000000000000000000000000000000000000000000000000000006000000000000000000000000000000000000000000000000000000000000000e00000000000000000000000000000000000000000000000000000000000000100000000000000000000000000000000000000000000000000000000000000000300000000000000000000000038654142f5e672ae86a1b21523aafc765e6a1e08000000000000000000000000589dedbd617e0cbcb916a9223f4d1300c294236b000000000000000000000000a59ba433ac34d2927232918ef5b2eaafcf130ba5000000000000000000000000000000000000000000000000000000000000000000000000000000000000000000000000000000000000000000000000000000030000000000000000000000000000000000000000000000000000003280681ec30000000000000000000000000000000000000000000000000000003076d8b4600000000000000000000000000000000000000000000000000000002fe1d44cd7",
          "blockHash": "0xe013bfbffcf3a80592cae0b7e20d73587494315c2d1cce04d273d480d5113baf",
          "blockNumber": "0x15fae37",
          "transactionHash": "0xc7333caa3edb72db7b90f742f362c4b6247721d1e54215735bcd7d247a21e0e4",
          "transactionIndex": "0xe0",
          "logIndex": "0x1aa",
          "removed": false
        },
        {
          "address": "0x1a44076050125825900e736c501f859c50fe728c",
          "topics": [
            "0x1ab700d4ced0c005b164c0f789fd09fcbb0156d4c2041b8a3bfbcd961cd1567f"
          ],
          "data": "0x00000000000000000000000000000000000000000000000000000000000000600000000000000000000000000000000000000000000000000000000000000120000000000000000000000000bb2ea70c9e858123480642cf96acbcce1372dce100000000000000000000000000000000000000000000000000000000000000990100000000000000010000759500000000000000000000000057558cb8d6005de0bae8a2789d5efaae52dba5a8000076a700000000000000000000000057558cb8d6005de0bae8a2789d5efaae52dba5a8c9f88d72dc4bbbffb8518db236c66927d5e49c114d4bd74d4aeb377a907374c4000000000000000000000000741f0d8bde14140f62107fc60a0ee122b37d463000000000000927c000000000000000000000000000000000000000000000000000000000000000000000000000001600030100110100000000000000000000000000030d4000000000000000000000",
          "blockHash": "0xe013bfbffcf3a80592cae0b7e20d73587494315c2d1cce04d273d480d5113baf",
          "blockNumber": "0x15fae37",
          "transactionHash": "0xc7333caa3edb72db7b90f742f362c4b6247721d1e54215735bcd7d247a21e0e4",
          "transactionIndex": "0xe0",
          "logIndex": "0x1ab",
          "removed": false
        },
        {
          "address": "0x57558cb8d6005de0bae8a2789d5efaae52dba5a8",
          "topics": [
            "0x85496b760a4b7f8d66384b9df21b381f5d1b1e79f229a47aaf4c232edc2fe59a",
            "0xc9f88d72dc4bbbffb8518db236c66927d5e49c114d4bd74d4aeb377a907374c4",
            "0x000000000000000000000000741f0d8bde14140f62107fc60a0ee122b37d4630"
          ],
          "data": "0x00000000000000000000000000000000000000000000000000000000000076a70000000000000000000000000000000000000000000000000853a0d2313c00000000000000000000000000000000000000000000000000000853a0d2313c0000",
          "blockHash": "0xe013bfbffcf3a80592cae0b7e20d73587494315c2d1cce04d273d480d5113baf",
          "blockNumber": "0x15fae37",
          "transactionHash": "0xc7333caa3edb72db7b90f742f362c4b6247721d1e54215735bcd7d247a21e0e4",
          "transactionIndex": "0xe0",
          "logIndex": "0x1ac",
          "removed": false
        }
      ],
      "logsBloom": "0x0000000000000000000000000004004000000000000000000000000000100000040000000000000000010000000000040000010000000000000000000000000000000200000000000000000800000000000020000000000000000000000000000000000002000000800000000000080000000000001000000000001000000000000000000000000000180008000000000000000000000000000000000000000000000000a000001000100000000000000000000000400000000440000000000000000002000000000000020080000000000000000000000000000000000020000000040000000000000000000000002000000000018000000000000000000000",
      "type": "0x2",
      "transactionHash": "0xc7333caa3edb72db7b90f742f362c4b6247721d1e54215735bcd7d247a21e0e4",
      "transactionIndex": "0xe0",
      "blockHash": "0xe013bfbffcf3a80592cae0b7e20d73587494315c2d1cce04d273d480d5113baf",
      "blockNumber": "0x15fae37",
      "gasUsed": "0x65e51",
      "effectiveGasPrice": "0x26913709",
      "from": "0x45dce8e4f2dc005a5f28206a46cb034697eeda8e",
      "to": "0x741f0d8bde14140f62107fc60a0ee122b37d4630",
      "contractAddress": null
    }
  ],
  "libraries": [],
  "pending": [],
  "returns": {},
  "timestamp": 1754069449,
  "chain": 1,
  "commit": "6804cbf"
}