{
  "deployments": [
    {
      "transactions": [
        {
          "hash": "0x9eaace5035f645157e0cbad16462f64aa9bd457b73fb435ec59d8598e7f92e51",
          "transactionType": "CALL",
          "contractName": "EndpointV2",
          "contractAddress": "0x6edce65403992e310a62460808c4b910d972f10f",
          "function": "setConfig(address,address,(uint32,uint32,bytes)[])",
          "arguments": [
            "0x29a5134D3B22F47AD52e0A22A63247363e9F35c2",
            "0xdAf00F5eE2158dD58E0d3857851c432E34A3A851",
            "[(40231, 2, 0x0000000000000000000000000000000000000000000000000000000000000020000000000000000000000000000000000000000000000000000000000000000000000000000000000000000000000000000000000000000000000000000000020000000000000000000000000000000000000000000000000000000000000000000000000000000000000000000000000000000000000000000000000000000000000000000000000000000000000000000000000000000000000000000000c000000000000000000000000000000000000000000000000000000000000001200000000000000000000000000000000000000000000000000000000000000002000000000000000000000000000bfb182cc999879ffb5cd7cf9f1db18a4542480000000000000000000000008eebf8b423b73bfca51a1db4b7354aa0bfca91930000000000000000000000000000000000000000000000000000000000000000), (40255, 2, 0x0000000000000000000000000000000000000000000000000000000000000020000000000000000000000000000000000000000000000000000000000000000000000000000000000000000000000000000000000000000000000000000000020000000000000000000000000000000000000000000000000000000000000000000000000000000000000000000000000000000000000000000000000000000000000000000000000000000000000000000000000000000000000000000000c000000000000000000000000000000000000000000000000000000000000001200000000000000000000000000000000000000000000000000000000000000002000000000000000000000000000bfb182cc999879ffb5cd7cf9f1db18a4542480000000000000000000000008eebf8b423b73bfca51a1db4b7354aa0bfca91930000000000000000000000000000000000000000000000000000000000000000)]"
          ],
          "transaction": {
            "from": "0x0990be6db8c785fbbf9ded8baec612a10cae814b",
            "to": "0x6edce65403992e310a62460808c4b910d972f10f",
            "gas": "0x1f747",
            "value": "0x0",
            "input": "0x6dbd9f9000000000000000000000000029a5134d3b22f47ad52e0a22a63247363e9f35c2000000000000000000000000daf00f5ee2158dd58e0d3857851c432e34a3a85100000000000000000000000000000000000000000000000000000000000000600000000000000000000000000000000000000000000000000000000000000002000000000000000000000000000000000000000000000000000000000000004000000000000000000000000000000000000000000000000000000000000002200000000000000000000000000000000000000000000000000000000000009d270000000000000000000000000000000000000000000000000000000000000002000000000000000000000000000000000000000000000000000000000000006000000000000000000000000000000000000000000000000000000000000001600000000000000000000000000000000000000000000000000000000000000020000000000000000000000000000000000000000000000000000000000000000000000000000000000000000000000000000000000000000000000000000000020000000000000000000000000000000000000000000000000000000000000000000000000000000000000000000000000000000000000000000000000000000000000000000000000000000000000000000000000000000000000000000000c000000000000000000000000000000000000000000000000000000000000001200000000000000000000000000000000000000000000000000000000000000002000000000000000000000000000bfb182cc999879ffb5cd7cf9f1db18a4542480000000000000000000000008eebf8b423b73bfca51a1db4b7354aa0bfca919300000000000000000000000000000000000000000000000000000000000000000000000000000000000000000000000000000000000000000000000000009d3f0000000000000000000000000000000000000000000000000000000000000002000000000000000000000000000000000000000000000000000000000000006000000000000000000000000000000000000000000000000000000000000001600000000000000000000000000000000000000000000000000000000000000020000000000000000000000000000000000000000000000000000000000000000000000000000000000000000000000000000000000000000000000000000000020000000000000000000000000000000000000000000000000000000000000000000000000000000000000000000000000000000000000000000000000000000000000000000000000000000000000000000000000000000000000000000000c000000000000000000000000000000000000000000000000000000000000001200000000000000000000000000000000000000000000000000000000000000002000000000000000000000000000bfb182cc999879ffb5cd7cf9f1db18a4542480000000000000000000000008eebf8b423b73bfca51a1db4b7354aa0bfca91930000000000000000000000000000000000000000000000000000000000000000",
            "nonce": "0x10",
            "chainId": "0xaa36a7"
          },
          "additionalContracts": [],
          "isFixedGasLimit": false
        },
        {
          "hash": "0x6392aa2c3ccecbd2bfbcf4e2d503fd2c4cfc4bc312c7096d8823678c772d6c97",
          "transactionType": "CALL",
          "contractName": "EndpointV2",
          "contractAddress": "0x6edce65403992e310a62460808c4b910d972f10f",
          "function": "setConfig(address,address,(uint32,uint32,bytes)[])",
          "arguments": [
            "0x29a5134D3B22F47AD52e0A22A63247363e9F35c2",
            "0xcc1ae8Cf5D3904Cef3360A9532B477529b177cCE",
            "[(40231, 2, 0x0000000000000000000000000000000000000000000000000000000000000020000000000000000000000000000000000000000000000000000000000000000000000000000000000000000000000000000000000000000000000000000000020000000000000000000000000000000000000000000000000000000000000000000000000000000000000000000000000000000000000000000000000000000000000000000000000000000000000000000000000000000000000000000000c000000000000000000000000000000000000000000000000000000000000001200000000000000000000000000000000000000000000000000000000000000002000000000000000000000000000bfb182cc999879ffb5cd7cf9f1db18a4542480000000000000000000000008eebf8b423b73bfca51a1db4b7354aa0bfca91930000000000000000000000000000000000000000000000000000000000000000), (40255, 2, 0x0000000000000000000000000000000000000000000000000000000000000020000000000000000000000000000000000000000000000000000000000000000000000000000000000000000000000000000000000000000000000000000000020000000000000000000000000000000000000000000000000000000000000000000000000000000000000000000000000000000000000000000000000000000000000000000000000000000000000000000000000000000000000000000000c000000000000000000000000000000000000000000000000000000000000001200000000000000000000000000000000000000000000000000000000000000002000000000000000000000000000bfb182cc999879ffb5cd7cf9f1db18a4542480000000000000000000000008eebf8b423b73bfca51a1db4b7354aa0bfca91930000000000000000000000000000000000000000000000000000000000000000)]"
          ],
          "transaction": {
            "from": "0x0990be6db8c785fbbf9ded8baec612a10cae814b",
            "to": "0x6edce65403992e310a62460808c4b910d972f10f",
            "gas": "0x2176a",
            "value": "0x0",
            "input": "0x6dbd9f9000000000000000000000000029a5134d3b22f47ad52e0a22a63247363e9f35c2000000000000000000000000cc1ae8cf5d3904cef3360a9532b477529b177cce00000000000000000000000000000000000000000000000000000000000000600000000000000000000000000000000000000000000000000000000000000002000000000000000000000000000000000000000000000000000000000000004000000000000000000000000000000000000000000000000000000000000002200000000000000000000000000000000000000000000000000000000000009d270000000000000000000000000000000000000000000000000000000000000002000000000000000000000000000000000000000000000000000000000000006000000000000000000000000000000000000000000000000000000000000001600000000000000000000000000000000000000000000000000000000000000020000000000000000000000000000000000000000000000000000000000000000000000000000000000000000000000000000000000000000000000000000000020000000000000000000000000000000000000000000000000000000000000000000000000000000000000000000000000000000000000000000000000000000000000000000000000000000000000000000000000000000000000000000000c000000000000000000000000000000000000000000000000000000000000001200000000000000000000000000000000000000000000000000000000000000002000000000000000000000000000bfb182cc999879ffb5cd7cf9f1db18a4542480000000000000000000000008eebf8b423b73bfca51a1db4b7354aa0bfca919300000000000000000000000000000000000000000000000000000000000000000000000000000000000000000000000000000000000000000000000000009d3f0000000000000000000000000000000000000000000000000000000000000002000000000000000000000000000000000000000000000000000000000000006000000000000000000000000000000000000000000000000000000000000001600000000000000000000000000000000000000000000000000000000000000020000000000000000000000000000000000000000000000000000000000000000000000000000000000000000000000000000000000000000000000000000000020000000000000000000000000000000000000000000000000000000000000000000000000000000000000000000000000000000000000000000000000000000000000000000000000000000000000000000000000000000000000000000000c000000000000000000000000000000000000000000000000000000000000001200000000000000000000000000000000000000000000000000000000000000002000000000000000000000000000bfb182cc999879ffb5cd7cf9f1db18a4542480000000000000000000000008eebf8b423b73bfca51a1db4b7354aa0bfca91930000000000000000000000000000000000000000000000000000000000000000",
            "nonce": "0x11",
            "chainId": "0xaa36a7"
          },
          "additionalContracts": [],
          "isFixedGasLimit": false
        }
      ],
      "receipts": [
        {
          "status": "0x1",
          "cumulativeGasUsed": "0x2fb5aff",
          "logs": [
            {
              "address": "0xdaf00f5ee2158dd58e0d3857851c432e34a3a851",
              "topics": [
                "0x82118522aa536ac0e96cc5c689407ae42b89d592aa133890a01f1509842f5081"
              ],
              "data": "0x00000000000000000000000029a5134d3b22f47ad52e0a22a63247363e9f35c20000000000000000000000000000000000000000000000000000000000009d270000000000000000000000000000000000000000000000000000000000000060000000000000000000000000000000000000000000000000000000000000000000000000000000000000000000000000000000000000000000000000000000020000000000000000000000000000000000000000000000000000000000000000000000000000000000000000000000000000000000000000000000000000000000000000000000000000000000000000000000000000000000000000000000c000000000000000000000000000000000000000000000000000000000000001200000000000000000000000000000000000000000000000000000000000000002000000000000000000000000000bfb182cc999879ffb5cd7cf9f1db18a4542480000000000000000000000008eebf8b423b73bfca51a1db4b7354aa0bfca91930000000000000000000000000000000000000000000000000000000000000000",
              "blockHash": "0x33fd87ed26cea260f15e8dca3c3eecd6f44828a586973f97bd75f4a138b1f409",
              "blockNumber": "0x81e5fd",
              "blockTimestamp": "0x684731ac",
              "transactionHash": "0x9eaace5035f645157e0cbad16462f64aa9bd457b73fb435ec59d8598e7f92e51",
              "transactionIndex": "0x7c",
              "logIndex": "0x1ef",
              "removed": false
            },
            {
              "address": "0xdaf00f5ee2158dd58e0d3857851c432e34a3a851",
              "topics": [
                "0x82118522aa536ac0e96cc5c689407ae42b89d592aa133890a01f1509842f5081"
              ],
              "data": "0x00000000000000000000000029a5134d3b22f47ad52e0a22a63247363e9f35c20000000000000000000000000000000000000000000000000000000000009d3f0000000000000000000000000000000000000000000000000000000000000060000000000000000000000000000000000000000000000000000000000000000000000000000000000000000000000000000000000000000000000000000000020000000000000000000000000000000000000000000000000000000000000000000000000000000000000000000000000000000000000000000000000000000000000000000000000000000000000000000000000000000000000000000000c000000000000000000000000000000000000000000000000000000000000001200000000000000000000000000000000000000000000000000000000000000002000000000000000000000000000bfb182cc999879ffb5cd7cf9f1db18a4542480000000000000000000000008eebf8b423b73bfca51a1db4b7354aa0bfca91930000000000000000000000000000000000000000000000000000000000000000",
              "blockHash": "0x33fd87ed26cea260f15e8dca3c3eecd6f44828a586973f97bd75f4a138b1f409",
              "blockNumber": "0x81e5fd",
              "blockTimestamp": "0x684731ac",
              "transactionHash": "0x9eaace5035f645157e0cbad16462f64aa9bd457b73fb435ec59d8598e7f92e51",
              "transactionIndex": "0x7c",
              "logIndex": "0x1f0",
              "removed": false
            }
          ],
          "logsBloom": "0x00000000000000000000000000000000000000000000000000000000000000000000000000800000000000000000000000000000000000000000000000000000000000000000000000000000000000000000000000000000002000000000000000000000000000000000000000000000000000000000000000000000000000000000000000000000000000000000000000000000000000000000000000000000000000000000000000000002000000000000000000000000000000000000000000000000000000000000000000000000000000000000000000000000000000000000000000001000000000000000000000000000000000100000000000000010",
          "type": "0x2",
          "transactionHash": "0x9eaace5035f645157e0cbad16462f64aa9bd457b73fb435ec59d8598e7f92e51",
          "transactionIndex": "0x7c",
          "blockHash": "0x33fd87ed26cea260f15e8dca3c3eecd6f44828a586973f97bd75f4a138b1f409",
          "blockNumber": "0x81e5fd",
          "gasUsed": "0x16c5e",
          "effectiveGasPrice": "0x1b4fe8",
          "from": "0x0990be6db8c785fbbf9ded8baec612a10cae814b",
          "to": "0x6edce65403992e310a62460808c4b910d972f10f",
          "contractAddress": null
        },
        {
          "status": "0x1",
          "cumulativeGasUsed": "0x2fcc918",
          "logs": [
            {
              "address": "0xcc1ae8cf5d3904cef3360a9532b477529b177cce",
              "topics": [
                "0x82118522aa536ac0e96cc5c689407ae42b89d592aa133890a01f1509842f5081"
              ],
              "data": "0x00000000000000000000000029a5134d3b22f47ad52e0a22a63247363e9f35c20000000000000000000000000000000000000000000000000000000000009d270000000000000000000000000000000000000000000000000000000000000060000000000000000000000000000000000000000000000000000000000000000000000000000000000000000000000000000000000000000000000000000000020000000000000000000000000000000000000000000000000000000000000000000000000000000000000000000000000000000000000000000000000000000000000000000000000000000000000000000000000000000000000000000000c000000000000000000000000000000000000000000000000000000000000001200000000000000000000000000000000000000000000000000000000000000002000000000000000000000000000bfb182cc999879ffb5cd7cf9f1db18a4542480000000000000000000000008eebf8b423b73bfca51a1db4b7354aa0bfca91930000000000000000000000000000000000000000000000000000000000000000",
              "blockHash": "0x33fd87ed26cea260f15e8dca3c3eecd6f44828a586973f97bd75f4a138b1f409",
              "blockNumber": "0x81e5fd",
              "blockTimestamp": "0x684731ac",
              "transactionHash": "0x6392aa2c3ccecbd2bfbcf4e2d503fd2c4cfc4bc312c7096d8823678c772d6c97",
              "transactionIndex": "0x7d",
              "logIndex": "0x1f1",
              "removed": false
            },
            {
              "address": "0xcc1ae8cf5d3904cef3360a9532b477529b177cce",
              "topics": [
                "0x82118522aa536ac0e96cc5c689407ae42b89d592aa133890a01f1509842f5081"
              ],
              "data": "0x00000000000000000000000029a5134d3b22f47ad52e0a22a63247363e9f35c20000000000000000000000000000000000000000000000000000000000009d3f0000000000000000000000000000000000000000000000000000000000000060000000000000000000000000000000000000000000000000000000000000000000000000000000000000000000000000000000000000000000000000000000020000000000000000000000000000000000000000000000000000000000000000000000000000000000000000000000000000000000000000000000000000000000000000000000000000000000000000000000000000000000000000000000c000000000000000000000000000000000000000000000000000000000000001200000000000000000000000000000000000000000000000000000000000000002000000000000000000000000000bfb182cc999879ffb5cd7cf9f1db18a4542480000000000000000000000008eebf8b423b73bfca51a1db4b7354aa0bfca91930000000000000000000000000000000000000000000000000000000000000000",
              "blockHash": "0x33fd87ed26cea260f15e8dca3c3eecd6f44828a586973f97bd75f4a138b1f409",
              "blockNumber": "0x81e5fd",
              "blockTimestamp": "0x684731ac",
              "transactionHash": "0x6392aa2c3ccecbd2bfbcf4e2d503fd2c4cfc4bc312c7096d8823678c772d6c97",
              "transactionIndex": "0x7d",
              "logIndex": "0x1f2",
              "removed": false
            }
          ],
          "logsBloom": "0x00000000000000000000000000000000000000000000000000000000000100000000000000000000000000000000000000000000000000000000000000000000000000000000000000000000000000000000000000000000002000000000000000000000000000000000000000000000000000000000000000000000000000000000000000000000000000000000000000000000000000000000000000000000000000000000000000000002000000000000000000000000000000000000000000000000000000000000000000000000000000080000000000000000000000000000000000000000000000000000000000000000000000000000000000000030",
          "type": "0x2",
          "transactionHash": "0x6392aa2c3ccecbd2bfbcf4e2d503fd2c4cfc4bc312c7096d8823678c772d6c97",
          "transactionIndex": "0x7d",
          "blockHash": "0x33fd87ed26cea260f15e8dca3c3eecd6f44828a586973f97bd75f4a138b1f409",
          "blockNumber": "0x81e5fd",
          "gasUsed": "0x16e19",
          "effectiveGasPrice": "0x1b4fe8",
          "from": "0x0990be6db8c785fbbf9ded8baec612a10cae814b",
          "to": "0x6edce65403992e310a62460808c4b910d972f10f",
          "contractAddress": null
        }
      ],
      "libraries": [],
      "pending": [],
      "returns": {},
      "timestamp": 1749496191,
      "chain": 11155111,
      "commit": "6d727c1"
    },
    {
      "transactions": [
        {
          "hash": "0x12023177c7a980614cd9a66b9effbee76276b2a5c5aa728ab57b6a01234248bd",
          "transactionType": "CALL",
          "contractName": "EndpointV2",
          "contractAddress": "0x6edce65403992e310a62460808c4b910d972f10f",
          "function": "setConfig(address,address,(uint32,uint32,bytes)[])",
          "arguments": [
            "0x0768C16445B41137F98Ab68CA545C0afD65A7513",
            "0x75Db67CDab2824970131D5aa9CECfC9F69c69636",
            "[(40231, 2, 0x0000000000000000000000000000000000000000000000000000000000000020000000000000000000000000000000000000000000000000000000000000000000000000000000000000000000000000000000000000000000000000000000020000000000000000000000000000000000000000000000000000000000000000000000000000000000000000000000000000000000000000000000000000000000000000000000000000000000000000000000000000000000000000000000c000000000000000000000000000000000000000000000000000000000000001200000000000000000000000000000000000000000000000000000000000000002000000000000000000000000000bfb182cc999879ffb5cd7cf9f1db18a4542480000000000000000000000008eebf8b423b73bfca51a1db4b7354aa0bfca91930000000000000000000000000000000000000000000000000000000000000000), (40255, 2, 0x0000000000000000000000000000000000000000000000000000000000000020000000000000000000000000000000000000000000000000000000000000000000000000000000000000000000000000000000000000000000000000000000020000000000000000000000000000000000000000000000000000000000000000000000000000000000000000000000000000000000000000000000000000000000000000000000000000000000000000000000000000000000000000000000c000000000000000000000000000000000000000000000000000000000000001200000000000000000000000000000000000000000000000000000000000000002000000000000000000000000000bfb182cc999879ffb5cd7cf9f1db18a4542480000000000000000000000008eebf8b423b73bfca51a1db4b7354aa0bfca91930000000000000000000000000000000000000000000000000000000000000000), (40161, 2, 0x0000000000000000000000000000000000000000000000000000000000000020000000000000000000000000000000000000000000000000000000000000000000000000000000000000000000000000000000000000000000000000000000020000000000000000000000000000000000000000000000000000000000000000000000000000000000000000000000000000000000000000000000000000000000000000000000000000000000000000000000000000000000000000000000c00000000000000000000000000000000000000000000000000000000000000120000000000000000000000000000000000000000000000000000000000000000200000000000000000000000053f488e93b4f1b60e8e83aa374dbe1780a1ee8a8000000000000000000000000bc0c3eaee5d759f0ce13a59ad3113080ed7bd9410000000000000000000000000000000000000000000000000000000000000000), (40255, 2, 0x0000000000000000000000000000000000000000000000000000000000000020000000000000000000000000000000000000000000000000000000000000000000000000000000000000000000000000000000000000000000000000000000020000000000000000000000000000000000000000000000000000000000000000000000000000000000000000000000000000000000000000000000000000000000000000000000000000000000000000000000000000000000000000000000c00000000000000000000000000000000000000000000000000000000000000120000000000000000000000000000000000000000000000000000000000000000200000000000000000000000053f488e93b4f1b60e8e83aa374dbe1780a1ee8a8000000000000000000000000bc0c3eaee5d759f0ce13a59ad3113080ed7bd9410000000000000000000000000000000000000000000000000000000000000000)]"
          ],
          "transaction": {
            "from": "0x0990be6db8c785fbbf9ded8baec612a10cae814b",
            "to": "0x6edce65403992e310a62460808c4b910d972f10f",
            "gas": "0x30036",
            "value": "0x0",
            "input": "0x6dbd9f900000000000000000000000000768c16445b41137f98ab68ca545c0afd65a751300000000000000000000000075db67cdab2824970131d5aa9cecfc9f69c696360000000000000000000000000000000000000000000000000000000000000060000000000000000000000000000000000000000000000000000000000000000400000000000000000000000000000000000000000000000000000000000000800000000000000000000000000000000000000000000000000000000000000260000000000000000000000000000000000000000000000000000000000000044000000000000000000000000000000000000000000000000000000000000006200000000000000000000000000000000000000000000000000000000000009d270000000000000000000000000000000000000000000000000000000000000002000000000000000000000000000000000000000000000000000000000000006000000000000000000000000000000000000000000000000000000000000001600000000000000000000000000000000000000000000000000000000000000020000000000000000000000000000000000000000000000000000000000000000000000000000000000000000000000000000000000000000000000000000000020000000000000000000000000000000000000000000000000000000000000000000000000000000000000000000000000000000000000000000000000000000000000000000000000000000000000000000000000000000000000000000000c000000000000000000000000000000000000000000000000000000000000001200000000000000000000000000000000000000000000000000000000000000002000000000000000000000000000bfb182cc999879ffb5cd7cf9f1db18a4542480000000000000000000000008eebf8b423b73bfca51a1db4b7354aa0bfca919300000000000000000000000000000000000000000000000000000000000000000000000000000000000000000000000000000000000000000000000000009d3f0000000000000000000000000000000000000000000000000000000000000002000000000000000000000000000000000000000000000000000000000000006000000000000000000000000000000000000000000000000000000000000001600000000000000000000000000000000000000000000000000000000000000020000000000000000000000000000000000000000000000000000000000000000000000000000000000000000000000000000000000000000000000000000000020000000000000000000000000000000000000000000000000000000000000000000000000000000000000000000000000000000000000000000000000000000000000000000000000000000000000000000000000000000000000000000000c000000000000000000000000000000000000000000000000000000000000001200000000000000000000000000000000000000000000000000000000000000002000000000000000000000000000bfb182cc999879ffb5cd7cf9f1db18a4542480000000000000000000000008eebf8b423b73bfca51a1db4b7354aa0bfca919300000000000000000000000000000000000000000000000000000000000000000000000000000000000000000000000000000000000000000000000000009ce10000000000000000000000000000000000000000000000000000000000000002000000000000000000000000000000000000000000000000000000000000006000000000000000000000000000000000000000000000000000000000000001600000000000000000000000000000000000000000000000000000000000000020000000000000000000000000000000000000000000000000000000000000000000000000000000000000000000000000000000000000000000000000000000020000000000000000000000000000000000000000000000000000000000000000000000000000000000000000000000000000000000000000000000000000000000000000000000000000000000000000000000000000000000000000000000c00000000000000000000000000000000000000000000000000000000000000120000000000000000000000000000000000000000000000000000000000000000200000000000000000000000053f488e93b4f1b60e8e83aa374dbe1780a1ee8a8000000000000000000000000bc0c3eaee5d759f0ce13a59ad3113080ed7bd94100000000000000000000000000000000000000000000000000000000000000000000000000000000000000000000000000000000000000000000000000009d3f0000000000000000000000000000000000000000000000000000000000000002000000000000000000000000000000000000000000000000000000000000006000000000000000000000000000000000000000000000000000000000000001600000000000000000000000000000000000000000000000000000000000000020000000000000000000000000000000000000000000000000000000000000000000000000000000000000000000000000000000000000000000000000000000020000000000000000000000000000000000000000000000000000000000000000000000000000000000000000000000000000000000000000000000000000000000000000000000000000000000000000000000000000000000000000000000c00000000000000000000000000000000000000000000000000000000000000120000000000000000000000000000000000000000000000000000000000000000200000000000000000000000053f488e93b4f1b60e8e83aa374dbe1780a1ee8a8000000000000000000000000bc0c3eaee5d759f0ce13a59ad3113080ed7bd9410000000000000000000000000000000000000000000000000000000000000000",
            "nonce": "0x6",
            "chainId": "0x66eee"
          },
          "additionalContracts": [],
          "isFixedGasLimit": false
        },
        {
          "hash": "0x4c08f661439105ae3e47540394a0825c8fbcb264805846892cb866ce092bb165",
          "transactionType": "CALL",
          "contractName": "EndpointV2",
          "contractAddress": "0x6edce65403992e310a62460808c4b910d972f10f",
          "function": "setConfig(address,address,(uint32,uint32,bytes)[])",
          "arguments": [
            "0x0768C16445B41137F98Ab68CA545C0afD65A7513",
            "0x4f7cd4DA19ABB31b0eC98b9066B9e857B1bf9C0E",
            "[(40231, 2, 0x0000000000000000000000000000000000000000000000000000000000000020000000000000000000000000000000000000000000000000000000000000000000000000000000000000000000000000000000000000000000000000000000020000000000000000000000000000000000000000000000000000000000000000000000000000000000000000000000000000000000000000000000000000000000000000000000000000000000000000000000000000000000000000000000c000000000000000000000000000000000000000000000000000000000000001200000000000000000000000000000000000000000000000000000000000000002000000000000000000000000000bfb182cc999879ffb5cd7cf9f1db18a4542480000000000000000000000008eebf8b423b73bfca51a1db4b7354aa0bfca91930000000000000000000000000000000000000000000000000000000000000000), (40255, 2, 0x0000000000000000000000000000000000000000000000000000000000000020000000000000000000000000000000000000000000000000000000000000000000000000000000000000000000000000000000000000000000000000000000020000000000000000000000000000000000000000000000000000000000000000000000000000000000000000000000000000000000000000000000000000000000000000000000000000000000000000000000000000000000000000000000c000000000000000000000000000000000000000000000000000000000000001200000000000000000000000000000000000000000000000000000000000000002000000000000000000000000000bfb182cc999879ffb5cd7cf9f1db18a4542480000000000000000000000008eebf8b423b73bfca51a1db4b7354aa0bfca91930000000000000000000000000000000000000000000000000000000000000000), (40161, 2, 0x0000000000000000000000000000000000000000000000000000000000000020000000000000000000000000000000000000000000000000000000000000000000000000000000000000000000000000000000000000000000000000000000020000000000000000000000000000000000000000000000000000000000000000000000000000000000000000000000000000000000000000000000000000000000000000000000000000000000000000000000000000000000000000000000c00000000000000000000000000000000000000000000000000000000000000120000000000000000000000000000000000000000000000000000000000000000200000000000000000000000053f488e93b4f1b60e8e83aa374dbe1780a1ee8a8000000000000000000000000bc0c3eaee5d759f0ce13a59ad3113080ed7bd9410000000000000000000000000000000000000000000000000000000000000000), (40255, 2, 0x0000000000000000000000000000000000000000000000000000000000000020000000000000000000000000000000000000000000000000000000000000000000000000000000000000000000000000000000000000000000000000000000020000000000000000000000000000000000000000000000000000000000000000000000000000000000000000000000000000000000000000000000000000000000000000000000000000000000000000000000000000000000000000000000c00000000000000000000000000000000000000000000000000000000000000120000000000000000000000000000000000000000000000000000000000000000200000000000000000000000053f488e93b4f1b60e8e83aa374dbe1780a1ee8a8000000000000000000000000bc0c3eaee5d759f0ce13a59ad3113080ed7bd9410000000000000000000000000000000000000000000000000000000000000000)]"
          ],
          "transaction": {
            "from": "0x0990be6db8c785fbbf9ded8baec612a10cae814b",
            "to": "0x6edce65403992e310a62460808c4b910d972f10f",
            "gas": "0x30474",
            "value": "0x0",
            "input": "0x6dbd9f900000000000000000000000000768c16445b41137f98ab68ca545c0afd65a75130000000000000000000000004f7cd4da19abb31b0ec98b9066b9e857b1bf9c0e0000000000000000000000000000000000000000000000000000000000000060000000000000000000000000000000000000000000000000000000000000000400000000000000000000000000000000000000000000000000000000000000800000000000000000000000000000000000000000000000000000000000000260000000000000000000000000000000000000000000000000000000000000044000000000000000000000000000000000000000000000000000000000000006200000000000000000000000000000000000000000000000000000000000009d270000000000000000000000000000000000000000000000000000000000000002000000000000000000000000000000000000000000000000000000000000006000000000000000000000000000000000000000000000000000000000000001600000000000000000000000000000000000000000000000000000000000000020000000000000000000000000000000000000000000000000000000000000000000000000000000000000000000000000000000000000000000000000000000020000000000000000000000000000000000000000000000000000000000000000000000000000000000000000000000000000000000000000000000000000000000000000000000000000000000000000000000000000000000000000000000c000000000000000000000000000000000000000000000000000000000000001200000000000000000000000000000000000000000000000000000000000000002000000000000000000000000000bfb182cc999879ffb5cd7cf9f1db18a4542480000000000000000000000008eebf8b423b73bfca51a1db4b7354aa0bfca919300000000000000000000000000000000000000000000000000000000000000000000000000000000000000000000000000000000000000000000000000009d3f0000000000000000000000000000000000000000000000000000000000000002000000000000000000000000000000000000000000000000000000000000006000000000000000000000000000000000000000000000000000000000000001600000000000000000000000000000000000000000000000000000000000000020000000000000000000000000000000000000000000000000000000000000000000000000000000000000000000000000000000000000000000000000000000020000000000000000000000000000000000000000000000000000000000000000000000000000000000000000000000000000000000000000000000000000000000000000000000000000000000000000000000000000000000000000000000c000000000000000000000000000000000000000000000000000000000000001200000000000000000000000000000000000000000000000000000000000000002000000000000000000000000000bfb182cc999879ffb5cd7cf9f1db18a4542480000000000000000000000008eebf8b423b73bfca51a1db4b7354aa0bfca919300000000000000000000000000000000000000000000000000000000000000000000000000000000000000000000000000000000000000000000000000009ce10000000000000000000000000000000000000000000000000000000000000002000000000000000000000000000000000000000000000000000000000000006000000000000000000000000000000000000000000000000000000000000001600000000000000000000000000000000000000000000000000000000000000020000000000000000000000000000000000000000000000000000000000000000000000000000000000000000000000000000000000000000000000000000000020000000000000000000000000000000000000000000000000000000000000000000000000000000000000000000000000000000000000000000000000000000000000000000000000000000000000000000000000000000000000000000000c00000000000000000000000000000000000000000000000000000000000000120000000000000000000000000000000000000000000000000000000000000000200000000000000000000000053f488e93b4f1b60e8e83aa374dbe1780a1ee8a8000000000000000000000000bc0c3eaee5d759f0ce13a59ad3113080ed7bd94100000000000000000000000000000000000000000000000000000000000000000000000000000000000000000000000000000000000000000000000000009d3f0000000000000000000000000000000000000000000000000000000000000002000000000000000000000000000000000000000000000000000000000000006000000000000000000000000000000000000000000000000000000000000001600000000000000000000000000000000000000000000000000000000000000020000000000000000000000000000000000000000000000000000000000000000000000000000000000000000000000000000000000000000000000000000000020000000000000000000000000000000000000000000000000000000000000000000000000000000000000000000000000000000000000000000000000000000000000000000000000000000000000000000000000000000000000000000000c00000000000000000000000000000000000000000000000000000000000000120000000000000000000000000000000000000000000000000000000000000000200000000000000000000000053f488e93b4f1b60e8e83aa374dbe1780a1ee8a8000000000000000000000000bc0c3eaee5d759f0ce13a59ad3113080ed7bd9410000000000000000000000000000000000000000000000000000000000000000",
            "nonce": "0x7",
            "chainId": "0x66eee"
          },
          "additionalContracts": [],
          "isFixedGasLimit": false
        }
      ],
      "receipts": [
        {
          "status": "0x1",
          "cumulativeGasUsed": "0x3f75c",
          "logs": [
            {
              "address": "0x75db67cdab2824970131d5aa9cecfc9f69c69636",
              "topics": [
                "0x82118522aa536ac0e96cc5c689407ae42b89d592aa133890a01f1509842f5081"
              ],
              "data": "0x0000000000000000000000000768c16445b41137f98ab68ca545c0afd65a75130000000000000000000000000000000000000000000000000000000000009d270000000000000000000000000000000000000000000000000000000000000060000000000000000000000000000000000000000000000000000000000000000000000000000000000000000000000000000000000000000000000000000000020000000000000000000000000000000000000000000000000000000000000000000000000000000000000000000000000000000000000000000000000000000000000000000000000000000000000000000000000000000000000000000000c000000000000000000000000000000000000000000000000000000000000001200000000000000000000000000000000000000000000000000000000000000002000000000000000000000000000bfb182cc999879ffb5cd7cf9f1db18a4542480000000000000000000000008eebf8b423b73bfca51a1db4b7354aa0bfca91930000000000000000000000000000000000000000000000000000000000000000",
              "blockHash": "0xc8fc8a3043928a216c89962795c992024e9d01da6aecf2f99e7f86fe29a70c07",
              "blockNumber": "0x9a5d171",
              "transactionHash": "0x12023177c7a980614cd9a66b9effbee76276b2a5c5aa728ab57b6a01234248bd",
              "transactionIndex": "0x2",
              "logIndex": "0x4",
              "removed": false
            },
            {
              "address": "0x75db67cdab2824970131d5aa9cecfc9f69c69636",
              "topics": [
                "0x82118522aa536ac0e96cc5c689407ae42b89d592aa133890a01f1509842f5081"
              ],
              "data": "0x0000000000000000000000000768c16445b41137f98ab68ca545c0afd65a75130000000000000000000000000000000000000000000000000000000000009d3f0000000000000000000000000000000000000000000000000000000000000060000000000000000000000000000000000000000000000000000000000000000000000000000000000000000000000000000000000000000000000000000000020000000000000000000000000000000000000000000000000000000000000000000000000000000000000000000000000000000000000000000000000000000000000000000000000000000000000000000000000000000000000000000000c000000000000000000000000000000000000000000000000000000000000001200000000000000000000000000000000000000000000000000000000000000002000000000000000000000000000bfb182cc999879ffb5cd7cf9f1db18a4542480000000000000000000000008eebf8b423b73bfca51a1db4b7354aa0bfca91930000000000000000000000000000000000000000000000000000000000000000",
              "blockHash": "0xc8fc8a3043928a216c89962795c992024e9d01da6aecf2f99e7f86fe29a70c07",
              "blockNumber": "0x9a5d171",
              "transactionHash": "0x12023177c7a980614cd9a66b9effbee76276b2a5c5aa728ab57b6a01234248bd",
              "transactionIndex": "0x2",
              "logIndex": "0x5",
              "removed": false
            },
            {
              "address": "0x75db67cdab2824970131d5aa9cecfc9f69c69636",
              "topics": [
                "0x82118522aa536ac0e96cc5c689407ae42b89d592aa133890a01f1509842f5081"
              ],
              "data": "0x0000000000000000000000000768c16445b41137f98ab68ca545c0afd65a75130000000000000000000000000000000000000000000000000000000000009ce10000000000000000000000000000000000000000000000000000000000000060000000000000000000000000000000000000000000000000000000000000000000000000000000000000000000000000000000000000000000000000000000020000000000000000000000000000000000000000000000000000000000000000000000000000000000000000000000000000000000000000000000000000000000000000000000000000000000000000000000000000000000000000000000c00000000000000000000000000000000000000000000000000000000000000120000000000000000000000000000000000000000000000000000000000000000200000000000000000000000053f488e93b4f1b60e8e83aa374dbe1780a1ee8a8000000000000000000000000bc0c3eaee5d759f0ce13a59ad3113080ed7bd9410000000000000000000000000000000000000000000000000000000000000000",
              "blockHash": "0xc8fc8a3043928a216c89962795c992024e9d01da6aecf2f99e7f86fe29a70c07",
              "blockNumber": "0x9a5d171",
              "transactionHash": "0x12023177c7a980614cd9a66b9effbee76276b2a5c5aa728ab57b6a01234248bd",
              "transactionIndex": "0x2",
              "logIndex": "0x6",
              "removed": false
            },
            {
              "address": "0x75db67cdab2824970131d5aa9cecfc9f69c69636",
              "topics": [
                "0x82118522aa536ac0e96cc5c689407ae42b89d592aa133890a01f1509842f5081"
              ],
              "data": "0x0000000000000000000000000768c16445b41137f98ab68ca545c0afd65a75130000000000000000000000000000000000000000000000000000000000009d3f0000000000000000000000000000000000000000000000000000000000000060000000000000000000000000000000000000000000000000000000000000000000000000000000000000000000000000000000000000000000000000000000020000000000000000000000000000000000000000000000000000000000000000000000000000000000000000000000000000000000000000000000000000000000000000000000000000000000000000000000000000000000000000000000c00000000000000000000000000000000000000000000000000000000000000120000000000000000000000000000000000000000000000000000000000000000200000000000000000000000053f488e93b4f1b60e8e83aa374dbe1780a1ee8a8000000000000000000000000bc0c3eaee5d759f0ce13a59ad3113080ed7bd9410000000000000000000000000000000000000000000000000000000000000000",
              "blockHash": "0xc8fc8a3043928a216c89962795c992024e9d01da6aecf2f99e7f86fe29a70c07",
              "blockNumber": "0x9a5d171",
              "transactionHash": "0x12023177c7a980614cd9a66b9effbee76276b2a5c5aa728ab57b6a01234248bd",
              "transactionIndex": "0x2",
              "logIndex": "0x7",
              "removed": false
            }
          ],
          "logsBloom": "0x00000000000000000000000000000000000000000000000000000000000000000000000000000000000000000000000000000000000000000000000000000000000000000000000000000000000000000000000000000000002000000000000000000000000000000000000000000000000000000000000000000000000000000000000000000000000000000000000000000000000000000000000000000000000000000000000000000002000000000000000000000000000000000000000000000000000000000000000000000000020000000000000000000040000000000000000000000000000000000000000000000000000000000000000000020010",
          "type": "0x2",
          "transactionHash": "0x12023177c7a980614cd9a66b9effbee76276b2a5c5aa728ab57b6a01234248bd",
          "transactionIndex": "0x2",
          "blockHash": "0xc8fc8a3043928a216c89962795c992024e9d01da6aecf2f99e7f86fe29a70c07",
          "blockNumber": "0x9a5d171",
          "gasUsed": "0x230c0",
          "effectiveGasPrice": "0x5f5e100",
          "from": "0x0990be6db8c785fbbf9ded8baec612a10cae814b",
          "to": "0x6edce65403992e310a62460808c4b910d972f10f",
          "contractAddress": null,
          "gasUsedForL1": "0x0",
          "l1BlockNumber": "0x81e5fc",
          "timeboosted": false
        },
        {
          "status": "0x1",
          "cumulativeGasUsed": "0x74f8e",
          "logs": [
            {
              "address": "0x4f7cd4da19abb31b0ec98b9066b9e857b1bf9c0e",
              "topics": [
                "0x82118522aa536ac0e96cc5c689407ae42b89d592aa133890a01f1509842f5081"
              ],
              "data": "0x0000000000000000000000000768c16445b41137f98ab68ca545c0afd65a75130000000000000000000000000000000000000000000000000000000000009d270000000000000000000000000000000000000000000000000000000000000060000000000000000000000000000000000000000000000000000000000000000000000000000000000000000000000000000000000000000000000000000000020000000000000000000000000000000000000000000000000000000000000000000000000000000000000000000000000000000000000000000000000000000000000000000000000000000000000000000000000000000000000000000000c000000000000000000000000000000000000000000000000000000000000001200000000000000000000000000000000000000000000000000000000000000002000000000000000000000000000bfb182cc999879ffb5cd7cf9f1db18a4542480000000000000000000000008eebf8b423b73bfca51a1db4b7354aa0bfca91930000000000000000000000000000000000000000000000000000000000000000",
              "blockHash": "0xb7913e995fcc4b554c550bcedc3b5af25fb7cdf10f50b7613538516ecb2f1df7",
              "blockNumber": "0x9a5d177",
              "transactionHash": "0x4c08f661439105ae3e47540394a0825c8fbcb264805846892cb866ce092bb165",
              "transactionIndex": "0x4",
              "logIndex": "0xa",
              "removed": false
            },
            {
              "address": "0x4f7cd4da19abb31b0ec98b9066b9e857b1bf9c0e",
              "topics": [
                "0x82118522aa536ac0e96cc5c689407ae42b89d592aa133890a01f1509842f5081"
              ],
              "data": "0x0000000000000000000000000768c16445b41137f98ab68ca545c0afd65a75130000000000000000000000000000000000000000000000000000000000009d3f0000000000000000000000000000000000000000000000000000000000000060000000000000000000000000000000000000000000000000000000000000000000000000000000000000000000000000000000000000000000000000000000020000000000000000000000000000000000000000000000000000000000000000000000000000000000000000000000000000000000000000000000000000000000000000000000000000000000000000000000000000000000000000000000c000000000000000000000000000000000000000000000000000000000000001200000000000000000000000000000000000000000000000000000000000000002000000000000000000000000000bfb182cc999879ffb5cd7cf9f1db18a4542480000000000000000000000008eebf8b423b73bfca51a1db4b7354aa0bfca91930000000000000000000000000000000000000000000000000000000000000000",
              "blockHash": "0xb7913e995fcc4b554c550bcedc3b5af25fb7cdf10f50b7613538516ecb2f1df7",
              "blockNumber": "0x9a5d177",
              "transactionHash": "0x4c08f661439105ae3e47540394a0825c8fbcb264805846892cb866ce092bb165",
              "transactionIndex": "0x4",
              "logIndex": "0xb",
              "removed": false
            },
            {
              "address": "0x4f7cd4da19abb31b0ec98b9066b9e857b1bf9c0e",
              "topics": [
                "0x82118522aa536ac0e96cc5c689407ae42b89d592aa133890a01f1509842f5081"
              ],
              "data": "0x0000000000000000000000000768c16445b41137f98ab68ca545c0afd65a75130000000000000000000000000000000000000000000000000000000000009ce10000000000000000000000000000000000000000000000000000000000000060000000000000000000000000000000000000000000000000000000000000000000000000000000000000000000000000000000000000000000000000000000020000000000000000000000000000000000000000000000000000000000000000000000000000000000000000000000000000000000000000000000000000000000000000000000000000000000000000000000000000000000000000000000c00000000000000000000000000000000000000000000000000000000000000120000000000000000000000000000000000000000000000000000000000000000200000000000000000000000053f488e93b4f1b60e8e83aa374dbe1780a1ee8a8000000000000000000000000bc0c3eaee5d759f0ce13a59ad3113080ed7bd9410000000000000000000000000000000000000000000000000000000000000000",
              "blockHash": "0xb7913e995fcc4b554c550bcedc3b5af25fb7cdf10f50b7613538516ecb2f1df7",
              "blockNumber": "0x9a5d177",
              "transactionHash": "0x4c08f661439105ae3e47540394a0825c8fbcb264805846892cb866ce092bb165",
              "transactionIndex": "0x4",
              "logIndex": "0xc",
              "removed": false
            },
            {
              "address": "0x4f7cd4da19abb31b0ec98b9066b9e857b1bf9c0e",
              "topics": [
                "0x82118522aa536ac0e96cc5c689407ae42b89d592aa133890a01f1509842f5081"
              ],
              "data": "0x0000000000000000000000000768c16445b41137f98ab68ca545c0afd65a75130000000000000000000000000000000000000000000000000000000000009d3f0000000000000000000000000000000000000000000000000000000000000060000000000000000000000000000000000000000000000000000000000000000000000000000000000000000000000000000000000000000000000000000000020000000000000000000000000000000000000000000000000000000000000000000000000000000000000000000000000000000000000000000000000000000000000000000000000000000000000000000000000000000000000000000000c00000000000000000000000000000000000000000000000000000000000000120000000000000000000000000000000000000000000000000000000000000000200000000000000000000000053f488e93b4f1b60e8e83aa374dbe1780a1ee8a8000000000000000000000000bc0c3eaee5d759f0ce13a59ad3113080ed7bd9410000000000000000000000000000000000000000000000000000000000000000",
              "blockHash": "0xb7913e995fcc4b554c550bcedc3b5af25fb7cdf10f50b7613538516ecb2f1df7",
              "blockNumber": "0x9a5d177",
              "transactionHash": "0x4c08f661439105ae3e47540394a0825c8fbcb264805846892cb866ce092bb165",
              "transactionIndex": "0x4",
              "logIndex": "0xd",
              "removed": false
            }
          ],
          "logsBloom": "0x00000000000000000000000000000000000000000000000000000000000000000000000000000000000000000000000000000000008000000000000000000000000000000000000000000000000000000000000000000000002000000000000000000000000000000000000000000000000000000000000000000000000000000000000000000000000000000000000000000000000000010000000000000000000000000000000000002002000000000000000000000000000000000000000000000000000000000000000000000000000000000000000000000000000000000000000000000000000000000000000000000000000000000000000000000010",
          "type": "0x2",
          "transactionHash": "0x4c08f661439105ae3e47540394a0825c8fbcb264805846892cb866ce092bb165",
          "transactionIndex": "0x4",
          "blockHash": "0xb7913e995fcc4b554c550bcedc3b5af25fb7cdf10f50b7613538516ecb2f1df7",
          "blockNumber": "0x9a5d177",
          "gasUsed": "0x233f9",
          "effectiveGasPrice": "0x5f5e100",
          "from": "0x0990be6db8c785fbbf9ded8baec612a10cae814b",
          "to": "0x6edce65403992e310a62460808c4b910d972f10f",
          "contractAddress": null,
          "gasUsedForL1": "0x0",
          "l1BlockNumber": "0x81e5fc",
          "timeboosted": false
        }
      ],
      "libraries": [],
      "pending": [],
      "returns": {},
      "timestamp": 1749496198,
      "chain": 421614,
      "commit": "6d727c1"
    }
  ],
  "timestamp": 1749496212
}