{
  "transactions": [
    {
      "hash": null,
      "transactionType": "CALL",
      "contractName": null,
      "contractAddress": "0xa536976c9ca36e74af76037af555eefa632ce469",
      "function": "setPeer(uint32,bytes32)",
      "arguments": [
        "30260",
        "0x0000000000000000000000000b107b1618d7570d0a07b69dda8b32ae15e62de2"
      ],
      "transaction": {
        "from": "0x0990be6db8c785fbbf9ded8baec612a10cae814b",
        "to": "0xa536976c9ca36e74af76037af555eefa632ce469",
        "gas": "0xaef6",
        "value": "0x0",
        "input": "0x3400288b00000000000000000000000000000000000000000000000000000000000076340000000000000000000000000b107b1618d7570d0a07b69dda8b32ae15e62de2",
        "nonce": "0x12",
        "chainId": "0x2105"
      },
      "additionalContracts": [],
      "isFixedGasLimit": false
    },
    {
      "hash": null,
      "transactionType": "CALL",
      "contractName": null,
      "contractAddress": "0xa536976c9ca36e74af76037af555eefa632ce469",
      "function": "setPeer(uint32,bytes32)",
      "arguments": [
        "30280",
        "0x0000000000000000000000000b107b1618d7570d0a07b69dda8b32ae15e62de2"
      ],
      "transaction": {
        "from": "0x0990be6db8c785fbbf9ded8baec612a10cae814b",
        "to": "0xa536976c9ca36e74af76037af555eefa632ce469",
        "gas": "0xaef6",
        "value": "0x0",
        "input": "0x3400288b00000000000000000000000000000000000000000000000000000000000076480000000000000000000000000b107b1618d7570d0a07b69dda8b32ae15e62de2",
        "nonce": "0x13",
        "chainId": "0x2105"
      },
      "additionalContracts": [],
      "isFixedGasLimit": false
    },
    {
      "hash": null,
      "transactionType": "CALL",
      "contractName": null,
      "contractAddress": "0xa536976c9ca36e74af76037af555eefa632ce469",
      "function": "setPeer(uint32,bytes32)",
      "arguments": [
        "30255",
        "0x0000000000000000000000000b107b1618d7570d0a07b69dda8b32ae15e62de2"
      ],
      "transaction": {
        "from": "0x0990be6db8c785fbbf9ded8baec612a10cae814b",
        "to": "0xa536976c9ca36e74af76037af555eefa632ce469",
        "gas": "0x9ef7",
        "value": "0x0",
        "input": "0x3400288b000000000000000000000000000000000000000000000000000000000000762f0000000000000000000000000b107b1618d7570d0a07b69dda8b32ae15e62de2",
        "nonce": "0x14",
        "chainId": "0x2105"
      },
      "additionalContracts": [],
      "isFixedGasLimit": false
    },
    {
      "hash": null,
      "transactionType": "CALL",
      "contractName": null,
      "contractAddress": "0xa536976c9ca36e74af76037af555eefa632ce469",
      "function": "setPeer(uint32,bytes32)",
      "arguments": [
        "30274",
        "0x0000000000000000000000000b107b1618d7570d0a07b69dda8b32ae15e62de2"
      ],
      "transaction": {
        "from": "0x0990be6db8c785fbbf9ded8baec612a10cae814b",
        "to": "0xa536976c9ca36e74af76037af555eefa632ce469",
        "gas": "0xaef6",
        "value": "0x0",
        "input": "0x3400288b00000000000000000000000000000000000000000000000000000000000076420000000000000000000000000b107b1618d7570d0a07b69dda8b32ae15e62de2",
        "nonce": "0x15",
        "chainId": "0x2105"
      },
      "additionalContracts": [],
      "isFixedGasLimit": false
    },
    {
      "hash": null,
      "transactionType": "CALL",
      "contractName": null,
      "contractAddress": "0xa536976c9ca36e74af76037af555eefa632ce469",
      "function": "setPeer(uint32,bytes32)",
      "arguments": [
        "30260",
        "0x0000000000000000000000000b107b1618d7570d0a07b69dda8b32ae15e62de2"
      ],
      "transaction": {
        "from": "0x0990be6db8c785fbbf9ded8baec612a10cae814b",
        "to": "0xa536976c9ca36e74af76037af555eefa632ce469",
        "gas": "0x9ef7",
        "value": "0x0",
        "input": "0x3400288b00000000000000000000000000000000000000000000000000000000000076340000000000000000000000000b107b1618d7570d0a07b69dda8b32ae15e62de2",
        "nonce": "0x16",
        "chainId": "0x2105"
      },
      "additionalContracts": [],
      "isFixedGasLimit": false
    },
    {
      "hash": null,
      "transactionType": "CALL",
      "contractName": null,
      "contractAddress": "0xa536976c9ca36e74af76037af555eefa632ce469",
      "function": "setPeer(uint32,bytes32)",
      "arguments": [
        "30280",
        "0x0000000000000000000000000b107b1618d7570d0a07b69dda8b32ae15e62de2"
      ],
      "transaction": {
        "from": "0x0990be6db8c785fbbf9ded8baec612a10cae814b",
        "to": "0xa536976c9ca36e74af76037af555eefa632ce469",
        "gas": "0x9ef7",
        "value": "0x0",
        "input": "0x3400288b00000000000000000000000000000000000000000000000000000000000076480000000000000000000000000b107b1618d7570d0a07b69dda8b32ae15e62de2",
        "nonce": "0x17",
        "chainId": "0x2105"
      },
      "additionalContracts": [],
      "isFixedGasLimit": false
    },
    {
      "hash": null,
      "transactionType": "CALL",
      "contractName": null,
      "contractAddress": "0xa536976c9ca36e74af76037af555eefa632ce469",
      "function": "setPeer(uint32,bytes32)",
      "arguments": [
        "30255",
        "0x0000000000000000000000000b107b1618d7570d0a07b69dda8b32ae15e62de2"
      ],
      "transaction": {
        "from": "0x0990be6db8c785fbbf9ded8baec612a10cae814b",
        "to": "0xa536976c9ca36e74af76037af555eefa632ce469",
        "gas": "0x9ef7",
        "value": "0x0",
        "input": "0x3400288b000000000000000000000000000000000000000000000000000000000000762f0000000000000000000000000b107b1618d7570d0a07b69dda8b32ae15e62de2",
        "nonce": "0x18",
        "chainId": "0x2105"
      },
      "additionalContracts": [],
      "isFixedGasLimit": false
    },
    {
      "hash": null,
      "transactionType": "CALL",
      "contractName": null,
      "contractAddress": "0xa536976c9ca36e74af76037af555eefa632ce469",
      "function": "setPeer(uint32,bytes32)",
      "arguments": [
        "30274",
        "0x0000000000000000000000000b107b1618d7570d0a07b69dda8b32ae15e62de2"
      ],
      "transaction": {
        "from": "0x0990be6db8c785fbbf9ded8baec612a10cae814b",
        "to": "0xa536976c9ca36e74af76037af555eefa632ce469",
        "gas": "0x9ef7",
        "value": "0x0",
        "input": "0x3400288b00000000000000000000000000000000000000000000000000000000000076420000000000000000000000000b107b1618d7570d0a07b69dda8b32ae15e62de2",
        "nonce": "0x19",
        "chainId": "0x2105"
      },
      "additionalContracts": [],
      "isFixedGasLimit": false
    },
    {
      "hash": null,
      "transactionType": "CALL",
      "contractName": null,
      "contractAddress": "0xa536976c9ca36e74af76037af555eefa632ce469",
      "function": "setPeer(uint32,bytes32)",
      "arguments": [
        "30260",
        "0x0000000000000000000000000b107b1618d7570d0a07b69dda8b32ae15e62de2"
      ],
      "transaction": {
        "from": "0x0990be6db8c785fbbf9ded8baec612a10cae814b",
        "to": "0xa536976c9ca36e74af76037af555eefa632ce469",
        "gas": "0x9ef7",
        "value": "0x0",
        "input": "0x3400288b00000000000000000000000000000000000000000000000000000000000076340000000000000000000000000b107b1618d7570d0a07b69dda8b32ae15e62de2",
        "nonce": "0x1a",
        "chainId": "0x2105"
      },
      "additionalContracts": [],
      "isFixedGasLimit": false
    },
    {
      "hash": null,
      "transactionType": "CALL",
      "contractName": null,
      "contractAddress": "0xa536976c9ca36e74af76037af555eefa632ce469",
      "function": "setPeer(uint32,bytes32)",
      "arguments": [
        "30280",
        "0x0000000000000000000000000b107b1618d7570d0a07b69dda8b32ae15e62de2"
      ],
      "transaction": {
        "from": "0x0990be6db8c785fbbf9ded8baec612a10cae814b",
        "to": "0xa536976c9ca36e74af76037af555eefa632ce469",
        "gas": "0x9ef7",
        "value": "0x0",
        "input": "0x3400288b00000000000000000000000000000000000000000000000000000000000076480000000000000000000000000b107b1618d7570d0a07b69dda8b32ae15e62de2",
        "nonce": "0x1b",
        "chainId": "0x2105"
      },
      "additionalContracts": [],
      "isFixedGasLimit": false
    },
    {
      "hash": null,
      "transactionType": "CALL",
      "contractName": null,
      "contractAddress": "0xa536976c9ca36e74af76037af555eefa632ce469",
      "function": "setPeer(uint32,bytes32)",
      "arguments": [
        "30255",
        "0x0000000000000000000000000b107b1618d7570d0a07b69dda8b32ae15e62de2"
      ],
      "transaction": {
        "from": "0x0990be6db8c785fbbf9ded8baec612a10cae814b",
        "to": "0xa536976c9ca36e74af76037af555eefa632ce469",
        "gas": "0x9ef7",
        "value": "0x0",
        "input": "0x3400288b000000000000000000000000000000000000000000000000000000000000762f0000000000000000000000000b107b1618d7570d0a07b69dda8b32ae15e62de2",
        "nonce": "0x1c",
        "chainId": "0x2105"
      },
      "additionalContracts": [],
      "isFixedGasLimit": false
    },
    {
      "hash": null,
      "transactionType": "CALL",
      "contractName": null,
      "contractAddress": "0xa536976c9ca36e74af76037af555eefa632ce469",
      "function": "setPeer(uint32,bytes32)",
      "arguments": [
        "30274",
        "0x0000000000000000000000000b107b1618d7570d0a07b69dda8b32ae15e62de2"
      ],
      "transaction": {
        "from": "0x0990be6db8c785fbbf9ded8baec612a10cae814b",
        "to": "0xa536976c9ca36e74af76037af555eefa632ce469",
        "gas": "0x9ef7",
        "value": "0x0",
        "input": "0x3400288b00000000000000000000000000000000000000000000000000000000000076420000000000000000000000000b107b1618d7570d0a07b69dda8b32ae15e62de2",
        "nonce": "0x1d",
        "chainId": "0x2105"
      },
      "additionalContracts": [],
      "isFixedGasLimit": false
    },
    {
      "hash": null,
      "transactionType": "CALL",
      "contractName": null,
      "contractAddress": "0xa536976c9ca36e74af76037af555eefa632ce469",
      "function": "setPeer(uint32,bytes32)",
      "arguments": [
        "30260",
        "0x0000000000000000000000000b107b1618d7570d0a07b69dda8b32ae15e62de2"
      ],
      "transaction": {
        "from": "0x0990be6db8c785fbbf9ded8baec612a10cae814b",
        "to": "0xa536976c9ca36e74af76037af555eefa632ce469",
        "gas": "0x9ef7",
        "value": "0x0",
        "input": "0x3400288b00000000000000000000000000000000000000000000000000000000000076340000000000000000000000000b107b1618d7570d0a07b69dda8b32ae15e62de2",
        "nonce": "0x1e",
        "chainId": "0x2105"
      },
      "additionalContracts": [],
      "isFixedGasLimit": false
    },
    {
      "hash": null,
      "transactionType": "CALL",
      "contractName": null,
      "contractAddress": "0xa536976c9ca36e74af76037af555eefa632ce469",
      "function": "setPeer(uint32,bytes32)",
      "arguments": [
        "30280",
        "0x0000000000000000000000000b107b1618d7570d0a07b69dda8b32ae15e62de2"
      ],
      "transaction": {
        "from": "0x0990be6db8c785fbbf9ded8baec612a10cae814b",
        "to": "0xa536976c9ca36e74af76037af555eefa632ce469",
        "gas": "0x9ef7",
        "value": "0x0",
        "input": "0x3400288b00000000000000000000000000000000000000000000000000000000000076480000000000000000000000000b107b1618d7570d0a07b69dda8b32ae15e62de2",
        "nonce": "0x1f",
        "chainId": "0x2105"
      },
      "additionalContracts": [],
      "isFixedGasLimit": false
    },
    {
      "hash": null,
      "transactionType": "CALL",
      "contractName": null,
      "contractAddress": "0xa536976c9ca36e74af76037af555eefa632ce469",
      "function": "setPeer(uint32,bytes32)",
      "arguments": [
        "30255",
        "0x0000000000000000000000000b107b1618d7570d0a07b69dda8b32ae15e62de2"
      ],
      "transaction": {
        "from": "0x0990be6db8c785fbbf9ded8baec612a10cae814b",
        "to": "0xa536976c9ca36e74af76037af555eefa632ce469",
        "gas": "0x9ef7",
        "value": "0x0",
        "input": "0x3400288b000000000000000000000000000000000000000000000000000000000000762f0000000000000000000000000b107b1618d7570d0a07b69dda8b32ae15e62de2",
        "nonce": "0x20",
        "chainId": "0x2105"
      },
      "additionalContracts": [],
      "isFixedGasLimit": false
    },
    {
      "hash": null,
      "transactionType": "CALL",
      "contractName": null,
      "contractAddress": "0xa536976c9ca36e74af76037af555eefa632ce469",
      "function": "setPeer(uint32,bytes32)",
      "arguments": [
        "30274",
        "0x0000000000000000000000000b107b1618d7570d0a07b69dda8b32ae15e62de2"
      ],
      "transaction": {
        "from": "0x0990be6db8c785fbbf9ded8baec612a10cae814b",
        "to": "0xa536976c9ca36e74af76037af555eefa632ce469",
        "gas": "0x9ef7",
        "value": "0x0",
        "input": "0x3400288b00000000000000000000000000000000000000000000000000000000000076420000000000000000000000000b107b1618d7570d0a07b69dda8b32ae15e62de2",
        "nonce": "0x21",
        "chainId": "0x2105"
      },
      "additionalContracts": [],
      "isFixedGasLimit": false
    }
  ],
  "receipts": [],
  "libraries": [],
  "pending": [],
  "returns": {},
  "timestamp": 1734396676,
  "chain": 8453,
  "commit": "b552015"
}