{
  "transactions": [
    {
      "hash": "0x9bb4df26c4c655a196fc43a6fe92428bf686c371aa4f7bf6df8c48518c6c1263",
      "transactionType": "CALL",
      "contractName": null,
      "contractAddress": "0xbd39033994f5324fe8d50bb524396a78ff9dfe22",
      "function": "setEnforcedOptions((uint32,uint16,bytes)[])",
      "arguments": [
        "[(30260, 1, 0x00030100110100000000000000000000000000030d40), (30260, 2, 0x0003010011010000000000000000000000000003d090), (30280, 1, 0x00030100110100000000000000000000000000030d40), (30280, 2, 0x0003010011010000000000000000000000000003d090), (30255, 1, 0x00030100110100000000000000000000000000030d40), (30255, 2, 0x0003010011010000000000000000000000000003d090), (30274, 1, 0x00030100110100000000000000000000000000030d40), (30274, 2, 0x0003010011010000000000000000000000000003d090), (30332, 1, 0x00030100110100000000000000000000000000030d40), (30332, 2, 0x0003010011010000000000000000000000000003d090), (30339, 1, 0x00030100110100000000000000000000000000030d40), (30339, 2, 0x0003010011010000000000000000000000000003d090), (30110, 1, 0x00030100110100000000000000000000000000030d40), (30110, 2, 0x0003010011010000000000000000000000000003d090), (30111, 1, 0x00030100110100000000000000000000000000030d40), (30111, 2, 0x0003010011010000000000000000000000000003d090), (30109, 1, 0x00030100110100000000000000000000000000030d40), (30109, 2, 0x0003010011010000000000000000000000000003d090), (30106, 1, 0x00030100110100000000000000000000000000030d40), (30106, 2, 0x0003010011010000000000000000000000000003d090), (30102, 1, 0x00030100110100000000000000000000000000030d40), (30102, 2, 0x0003010011010000000000000000000000000003d090), (30158, 1, 0x00030100110100000000000000000000000000030d40), (30158, 2, 0x0003010011010000000000000000000000000003d090), (30101, 1, 0x00030100110100000000000000000000000000030d40), (30101, 2, 0x0003010011010000000000000000000000000003d090), (30243, 1, 0x00030100110100000000000000000000000000030d40), (30243, 2, 0x0003010011010000000000000000000000000003d090), (30184, 1, 0x00030100110100000000000000000000000000030d40), (30184, 2, 0x0003010011010000000000000000000000000003d090), (30362, 1, 0x00030100110100000000000000000000000000030d40), (30362, 2, 0x0003010011010000000000000000000000000003d090), (30183, 1, 0x00030100110100000000000000000000000000030d40), (30183, 2, 0x0003010011010000000000000000000000000003d090), (30319, 1, 0x00030100110100000000000000000000000000030d40), (30319, 2, 0x0003010011010000000000000000000000000003d090), (30320, 1, 0x00030100110100000000000000000000000000030d40), (30320, 2, 0x0003010011010000000000000000000000000003d090), (30376, 1, 0x00030100110100000000000000000000000000030d40), (30376, 2, 0x0003010011010000000000000000000000000003d090), (30165, 1, 0x00030100110100000000000000000000000000030d40), (30165, 2, 0x0003010011010000000000000000000000000003d090), (30370, 1, 0x00030100110100000000000000000000000000030d40), (30370, 2, 0x0003010011010000000000000000000000000003d090)]"
      ],
      "transaction": {
        "from": "0x45dce8e4f2dc005a5f28206a46cb034697eeda8e",
        "to": "0xbd39033994f5324fe8d50bb524396a78ff9dfe22",
        "gas": "0xe6786",
        "value": "0x0",
        "input": "0xb98bd0700000000000000000000000000000000000000000000000000000000000000020000000000000000000000000000000000000000000000000000000000000002c0000000000000000000000000000000000000000000000000000000000000580000000000000000000000000000000000000000000000000000000000000062000000000000000000000000000000000000000000000000000000000000006c00000000000000000000000000000000000000000000000000000000000000760000000000000000000000000000000000000000000000000000000000000080000000000000000000000000000000000000000000000000000000000000008a0000000000000000000000000000000000000000000000000000000000000094000000000000000000000000000000000000000000000000000000000000009e00000000000000000000000000000000000000000000000000000000000000a800000000000000000000000000000000000000000000000000000000000000b200000000000000000000000000000000000000000000000000000000000000bc00000000000000000000000000000000000000000000000000000000000000c600000000000000000000000000000000000000000000000000000000000000d000000000000000000000000000000000000000000000000000000000000000da00000000000000000000000000000000000000000000000000000000000000e400000000000000000000000000000000000000000000000000000000000000ee00000000000000000000000000000000000000000000000000000000000000f80000000000000000000000000000000000000000000000000000000000000102000000000000000000000000000000000000000000000000000000000000010c00000000000000000000000000000000000000000000000000000000000001160000000000000000000000000000000000000000000000000000000000000120000000000000000000000000000000000000000000000000000000000000012a0000000000000000000000000000000000000000000000000000000000000134000000000000000000000000000000000000000000000000000000000000013e00000000000000000000000000000000000000000000000000000000000001480000000000000000000000000000000000000000000000000000000000000152000000000000000000000000000000000000000000000000000000000000015c00000000000000000000000000000000000000000000000000000000000001660000000000000000000000000000000000000000000000000000000000000170000000000000000000000000000000000000000000000000000000000000017a0000000000000000000000000000000000000000000000000000000000000184000000000000000000000000000000000000000000000000000000000000018e000000000000000000000000000000000000000000000000000000000000019800000000000000000000000000000000000000000000000000000000000001a200000000000000000000000000000000000000000000000000000000000001ac00000000000000000000000000000000000000000000000000000000000001b600000000000000000000000000000000000000000000000000000000000001c000000000000000000000000000000000000000000000000000000000000001ca00000000000000000000000000000000000000000000000000000000000001d400000000000000000000000000000000000000000000000000000000000001de00000000000000000000000000000000000000000000000000000000000001e800000000000000000000000000000000000000000000000000000000000001f200000000000000000000000000000000000000000000000000000000000001fc00000000000000000000000000000000000000000000000000000000000002060000000000000000000000000000000000000000000000000000000000000763400000000000000000000000000000000000000000000000000000000000000010000000000000000000000000000000000000000000000000000000000000060000000000000000000000000000000000000000000000000000000000000001600030100110100000000000000000000000000030d400000000000000000000000000000000000000000000000000000000000000000000000000000000076340000000000000000000000000000000000000000000000000000000000000002000000000000000000000000000000000000000000000000000000000000006000000000000000000000000000000000000000000000000000000000000000160003010011010000000000000000000000000003d09000000000000000000000000000000000000000000000000000000000000000000000000000000000764800000000000000000000000000000000000000000000000000000000000000010000000000000000000000000000000000000000000000000000000000000060000000000000000000000000000000000000000000000000000000000000001600030100110100000000000000000000000000030d400000000000000000000000000000000000000000000000000000000000000000000000000000000076480000000000000000000000000000000000000000000000000000000000000002000000000000000000000000000000000000000000000000000000000000006000000000000000000000000000000000000000000000000000000000000000160003010011010000000000000000000000000003d09000000000000000000000000000000000000000000000000000000000000000000000000000000000762f00000000000000000000000000000000000000000000000000000000000000010000000000000000000000000000000000000000000000000000000000000060000000000000000000000000000000000000000000000000000000000000001600030100110100000000000000000000000000030d4000000000000000000000000000000000000000000000000000000000000000000000000000000000762f0000000000000000000000000000000000000000000000000000000000000002000000000000000000000000000000000000000000000000000000000000006000000000000000000000000000000000000000000000000000000000000000160003010011010000000000000000000000000003d09000000000000000000000000000000000000000000000000000000000000000000000000000000000764200000000000000000000000000000000000000000000000000000000000000010000000000000000000000000000000000000000000000000000000000000060000000000000000000000000000000000000000000000000000000000000001600030100110100000000000000000000000000030d400000000000000000000000000000000000000000000000000000000000000000000000000000000076420000000000000000000000000000000000000000000000000000000000000002000000000000000000000000000000000000000000000000000000000000006000000000000000000000000000000000000000000000000000000000000000160003010011010000000000000000000000000003d09000000000000000000000000000000000000000000000000000000000000000000000000000000000767c00000000000000000000000000000000000000000000000000000000000000010000000000000000000000000000000000000000000000000000000000000060000000000000000000000000000000000000000000000000000000000000001600030100110100000000000000000000000000030d4000000000000000000000000000000000000000000000000000000000000000000000000000000000767c0000000000000000000000000000000000000000000000000000000000000002000000000000000000000000000000000000000000000000000000000000006000000000000000000000000000000000000000000000000000000000000000160003010011010000000000000000000000000003d09000000000000000000000000000000000000000000000000000000000000000000000000000000000768300000000000000000000000000000000000000000000000000000000000000010000000000000000000000000000000000000000000000000000000000000060000000000000000000000000000000000000000000000000000000000000001600030100110100000000000000000000000000030d400000000000000000000000000000000000000000000000000000000000000000000000000000000076830000000000000000000000000000000000000000000000000000000000000002000000000000000000000000000000000000000000000000000000000000006000000000000000000000000000000000000000000000000000000000000000160003010011010000000000000000000000000003d09000000000000000000000000000000000000000000000000000000000000000000000000000000000759e00000000000000000000000000000000000000000000000000000000000000010000000000000000000000000000000000000000000000000000000000000060000000000000000000000000000000000000000000000000000000000000001600030100110100000000000000000000000000030d4000000000000000000000000000000000000000000000000000000000000000000000000000000000759e0000000000000000000000000000000000000000000000000000000000000002000000000000000000000000000000000000000000000000000000000000006000000000000000000000000000000000000000000000000000000000000000160003010011010000000000000000000000000003d09000000000000000000000000000000000000000000000000000000000000000000000000000000000759f00000000000000000000000000000000000000000000000000000000000000010000000000000000000000000000000000000000000000000000000000000060000000000000000000000000000000000000000000000000000000000000001600030100110100000000000000000000000000030d4000000000000000000000000000000000000000000000000000000000000000000000000000000000759f0000000000000000000000000000000000000000000000000000000000000002000000000000000000000000000000000000000000000000000000000000006000000000000000000000000000000000000000000000000000000000000000160003010011010000000000000000000000000003d09000000000000000000000000000000000000000000000000000000000000000000000000000000000759d00000000000000000000000000000000000000000000000000000000000000010000000000000000000000000000000000000000000000000000000000000060000000000000000000000000000000000000000000000000000000000000001600030100110100000000000000000000000000030d4000000000000000000000000000000000000000000000000000000000000000000000000000000000759d0000000000000000000000000000000000000000000000000000000000000002000000000000000000000000000000000000000000000000000000000000006000000000000000000000000000000000000000000000000000000000000000160003010011010000000000000000000000000003d09000000000000000000000000000000000000000000000000000000000000000000000000000000000759a00000000000000000000000000000000000000000000000000000000000000010000000000000000000000000000000000000000000000000000000000000060000000000000000000000000000000000000000000000000000000000000001600030100110100000000000000000000000000030d4000000000000000000000000000000000000000000000000000000000000000000000000000000000759a0000000000000000000000000000000000000000000000000000000000000002000000000000000000000000000000000000000000000000000000000000006000000000000000000000000000000000000000000000000000000000000000160003010011010000000000000000000000000003d09000000000000000000000000000000000000000000000000000000000000000000000000000000000759600000000000000000000000000000000000000000000000000000000000000010000000000000000000000000000000000000000000000000000000000000060000000000000000000000000000000000000000000000000000000000000001600030100110100000000000000000000000000030d400000000000000000000000000000000000000000000000000000000000000000000000000000000075960000000000000000000000000000000000000000000000000000000000000002000000000000000000000000000000000000000000000000000000000000006000000000000000000000000000000000000000000000000000000000000000160003010011010000000000000000000000000003d0900000000000000000000000000000000000000000000000000000000000000000000000000000000075ce00000000000000000000000000000000000000000000000000000000000000010000000000000000000000000000000000000000000000000000000000000060000000000000000000000000000000000000000000000000000000000000001600030100110100000000000000000000000000030d400000000000000000000000000000000000000000000000000000000000000000000000000000000075ce0000000000000000000000000000000000000000000000000000000000000002000000000000000000000000000000000000000000000000000000000000006000000000000000000000000000000000000000000000000000000000000000160003010011010000000000000000000000000003d09000000000000000000000000000000000000000000000000000000000000000000000000000000000759500000000000000000000000000000000000000000000000000000000000000010000000000000000000000000000000000000000000000000000000000000060000000000000000000000000000000000000000000000000000000000000001600030100110100000000000000000000000000030d400000000000000000000000000000000000000000000000000000000000000000000000000000000075950000000000000000000000000000000000000000000000000000000000000002000000000000000000000000000000000000000000000000000000000000006000000000000000000000000000000000000000000000000000000000000000160003010011010000000000000000000000000003d09000000000000000000000000000000000000000000000000000000000000000000000000000000000762300000000000000000000000000000000000000000000000000000000000000010000000000000000000000000000000000000000000000000000000000000060000000000000000000000000000000000000000000000000000000000000001600030100110100000000000000000000000000030d400000000000000000000000000000000000000000000000000000000000000000000000000000000076230000000000000000000000000000000000000000000000000000000000000002000000000000000000000000000000000000000000000000000000000000006000000000000000000000000000000000000000000000000000000000000000160003010011010000000000000000000000000003d0900000000000000000000000000000000000000000000000000000000000000000000000000000000075e800000000000000000000000000000000000000000000000000000000000000010000000000000000000000000000000000000000000000000000000000000060000000000000000000000000000000000000000000000000000000000000001600030100110100000000000000000000000000030d400000000000000000000000000000000000000000000000000000000000000000000000000000000075e80000000000000000000000000000000000000000000000000000000000000002000000000000000000000000000000000000000000000000000000000000006000000000000000000000000000000000000000000000000000000000000000160003010011010000000000000000000000000003d09000000000000000000000000000000000000000000000000000000000000000000000000000000000769a00000000000000000000000000000000000000000000000000000000000000010000000000000000000000000000000000000000000000000000000000000060000000000000000000000000000000000000000000000000000000000000001600030100110100000000000000000000000000030d4000000000000000000000000000000000000000000000000000000000000000000000000000000000769a0000000000000000000000000000000000000000000000000000000000000002000000000000000000000000000000000000000000000000000000000000006000000000000000000000000000000000000000000000000000000000000000160003010011010000000000000000000000000003d0900000000000000000000000000000000000000000000000000000000000000000000000000000000075e700000000000000000000000000000000000000000000000000000000000000010000000000000000000000000000000000000000000000000000000000000060000000000000000000000000000000000000000000000000000000000000001600030100110100000000000000000000000000030d400000000000000000000000000000000000000000000000000000000000000000000000000000000075e70000000000000000000000000000000000000000000000000000000000000002000000000000000000000000000000000000000000000000000000000000006000000000000000000000000000000000000000000000000000000000000000160003010011010000000000000000000000000003d09000000000000000000000000000000000000000000000000000000000000000000000000000000000766f00000000000000000000000000000000000000000000000000000000000000010000000000000000000000000000000000000000000000000000000000000060000000000000000000000000000000000000000000000000000000000000001600030100110100000000000000000000000000030d4000000000000000000000000000000000000000000000000000000000000000000000000000000000766f0000000000000000000000000000000000000000000000000000000000000002000000000000000000000000000000000000000000000000000000000000006000000000000000000000000000000000000000000000000000000000000000160003010011010000000000000000000000000003d09000000000000000000000000000000000000000000000000000000000000000000000000000000000767000000000000000000000000000000000000000000000000000000000000000010000000000000000000000000000000000000000000000000000000000000060000000000000000000000000000000000000000000000000000000000000001600030100110100000000000000000000000000030d400000000000000000000000000000000000000000000000000000000000000000000000000000000076700000000000000000000000000000000000000000000000000000000000000002000000000000000000000000000000000000000000000000000000000000006000000000000000000000000000000000000000000000000000000000000000160003010011010000000000000000000000000003d0900000000000000000000000000000000000000000000000000000000000000000000000000000000076a800000000000000000000000000000000000000000000000000000000000000010000000000000000000000000000000000000000000000000000000000000060000000000000000000000000000000000000000000000000000000000000001600030100110100000000000000000000000000030d400000000000000000000000000000000000000000000000000000000000000000000000000000000076a80000000000000000000000000000000000000000000000000000000000000002000000000000000000000000000000000000000000000000000000000000006000000000000000000000000000000000000000000000000000000000000000160003010011010000000000000000000000000003d0900000000000000000000000000000000000000000000000000000000000000000000000000000000075d500000000000000000000000000000000000000000000000000000000000000010000000000000000000000000000000000000000000000000000000000000060000000000000000000000000000000000000000000000000000000000000001600030100110100000000000000000000000000030d400000000000000000000000000000000000000000000000000000000000000000000000000000000075d50000000000000000000000000000000000000000000000000000000000000002000000000000000000000000000000000000000000000000000000000000006000000000000000000000000000000000000000000000000000000000000000160003010011010000000000000000000000000003d0900000000000000000000000000000000000000000000000000000000000000000000000000000000076a200000000000000000000000000000000000000000000000000000000000000010000000000000000000000000000000000000000000000000000000000000060000000000000000000000000000000000000000000000000000000000000001600030100110100000000000000000000000000030d400000000000000000000000000000000000000000000000000000000000000000000000000000000076a20000000000000000000000000000000000000000000000000000000000000002000000000000000000000000000000000000000000000000000000000000006000000000000000000000000000000000000000000000000000000000000000160003010011010000000000000000000000000003d09000000000000000000000",
        "nonce": "0xa7",
        "chainId": "0xab5",
        "zksync": {
          "factoryDeps": [],
          "paymasterData": null
        }
      },
      "additionalContracts": [],
      "isFixedGasLimit": false
    },
    {
      "hash": "0xedc6a2f372216edb8c6ea94eead0b35fdad480fb61f15a413fc95b88e10c1f23",
      "transactionType": "CALL",
      "contractName": null,
      "contractAddress": "0xbd39033994f5324fe8d50bb524396a78ff9dfe22",
      "function": "setPeer(uint32,bytes32)",
      "arguments": [
        "30376",
        "0x00000000000000000000000057558cb8d6005de0bae8a2789d5efaae52dba5a8"
      ],
      "transaction": {
        "from": "0x45dce8e4f2dc005a5f28206a46cb034697eeda8e",
        "to": "0xbd39033994f5324fe8d50bb524396a78ff9dfe22",
        "gas": "0x32bc8",
        "value": "0x0",
        "input": "0x3400288b00000000000000000000000000000000000000000000000000000000000076a800000000000000000000000057558cb8d6005de0bae8a2789d5efaae52dba5a8",
        "nonce": "0xa8",
        "chainId": "0xab5",
        "zksync": {
          "factoryDeps": [],
          "paymasterData": null
        }
      },
      "additionalContracts": [],
      "isFixedGasLimit": false
    },
    {
      "hash": "0xe68ae21172a87a093919e3a8191cb32acf0665c2f82c2609a4f277fe8e247705",
      "transactionType": "CALL",
      "contractName": null,
      "contractAddress": "0xbd39033994f5324fe8d50bb524396a78ff9dfe22",
      "function": "setPeer(uint32,bytes32)",
      "arguments": [
        "30370",
        "0x00000000000000000000000057558cb8d6005de0bae8a2789d5efaae52dba5a8"
      ],
      "transaction": {
        "from": "0x45dce8e4f2dc005a5f28206a46cb034697eeda8e",
        "to": "0xbd39033994f5324fe8d50bb524396a78ff9dfe22",
        "gas": "0x32bc8",
        "value": "0x0",
        "input": "0x3400288b00000000000000000000000000000000000000000000000000000000000076a200000000000000000000000057558cb8d6005de0bae8a2789d5efaae52dba5a8",
        "nonce": "0xa9",
        "chainId": "0xab5",
        "zksync": {
          "factoryDeps": [],
          "paymasterData": null
        }
      },
      "additionalContracts": [],
      "isFixedGasLimit": false
    },
    {
      "hash": "0x1a8525ed6fa0e1589e1531be8f52c3f4c6da3b20a595b6a5daaa02dcec051921",
      "transactionType": "CALL",
      "contractName": null,
      "contractAddress": "0x5c6cff4b7c49805f8295ff73c204ac83f3bc4ae7",
      "function": "setConfig(address,address,(uint32,uint32,bytes)[])",
      "arguments": [
        "0xBd39033994F5324Fe8D50bB524396A78ff9dFe22",
        "0x166CAb679EBDB0853055522D3B523621b94029a1",
        "[(30370, 2, 0x0000000000000000000000000000000000000000000000000000000000000020000000000000000000000000000000000000000000000000000000000000000000000000000000000000000000000000000000000000000000000000000000000000000000000000000000000000000000000000000000000000000000000000000000000000000000000000000000000000000000000000000000000000000000000000000000000000000000000000000000000000000000000000000000c000000000000000000000000000000000000000000000000000000000000000e000000000000000000000000000000000000000000000000000000000000000000000000000000000000000000000000000000000000000000000000000000000)]"
      ],
      "transaction": {
        "from": "0x45dce8e4f2dc005a5f28206a46cb034697eeda8e",
        "to": "0x5c6cff4b7c49805f8295ff73c204ac83f3bc4ae7",
        "gas": "0x3d0ea",
        "value": "0x0",
        "input": "0x6dbd9f90000000000000000000000000bd39033994f5324fe8d50bb524396a78ff9dfe22000000000000000000000000166cab679ebdb0853055522d3b523621b94029a100000000000000000000000000000000000000000000000000000000000000600000000000000000000000000000000000000000000000000000000000000001000000000000000000000000000000000000000000000000000000000000002000000000000000000000000000000000000000000000000000000000000076a20000000000000000000000000000000000000000000000000000000000000002000000000000000000000000000000000000000000000000000000000000006000000000000000000000000000000000000000000000000000000000000001200000000000000000000000000000000000000000000000000000000000000020000000000000000000000000000000000000000000000000000000000000000000000000000000000000000000000000000000000000000000000000000000000000000000000000000000000000000000000000000000000000000000000000000000000000000000000000000000000000000000000000000000000000000000000000000000000000000000000000000000000000000000000000000000c000000000000000000000000000000000000000000000000000000000000000e000000000000000000000000000000000000000000000000000000000000000000000000000000000000000000000000000000000000000000000000000000000",
        "nonce": "0xaa",
        "chainId": "0xab5",
        "zksync": {
          "factoryDeps": [],
          "paymasterData": null
        }
      },
      "additionalContracts": [],
      "isFixedGasLimit": false
    },
    {
      "hash": "0x30f39ba5f39ad52471f7f4b17a6f51bc7623f7338d2de47ff57e8f9e77400471",
      "transactionType": "CALL",
      "contractName": null,
      "contractAddress": "0x5c6cff4b7c49805f8295ff73c204ac83f3bc4ae7",
      "function": "setConfig(address,address,(uint32,uint32,bytes)[])",
      "arguments": [
        "0xBd39033994F5324Fe8D50bB524396A78ff9dFe22",
        "0x9d799c1935c51CA399e6465Ed9841DEbCcEc413E",
        "[(30370, 2, 0x0000000000000000000000000000000000000000000000000000000000000020000000000000000000000000000000000000000000000000000000000000000000000000000000000000000000000000000000000000000000000000000000000000000000000000000000000000000000000000000000000000000000000000000000000000000000000000000000000000000000000000000000000000000000000000000000000000000000000000000000000000000000000000000000c000000000000000000000000000000000000000000000000000000000000000e000000000000000000000000000000000000000000000000000000000000000000000000000000000000000000000000000000000000000000000000000000000)]"
      ],
      "transaction": {
        "from": "0x45dce8e4f2dc005a5f28206a46cb034697eeda8e",
        "to": "0x5c6cff4b7c49805f8295ff73c204ac83f3bc4ae7",
        "gas": "0x3af52",
        "value": "0x0",
        "input": "0x6dbd9f90000000000000000000000000bd39033994f5324fe8d50bb524396a78ff9dfe220000000000000000000000009d799c1935c51ca399e6465ed9841debccec413e00000000000000000000000000000000000000000000000000000000000000600000000000000000000000000000000000000000000000000000000000000001000000000000000000000000000000000000000000000000000000000000002000000000000000000000000000000000000000000000000000000000000076a20000000000000000000000000000000000000000000000000000000000000002000000000000000000000000000000000000000000000000000000000000006000000000000000000000000000000000000000000000000000000000000001200000000000000000000000000000000000000000000000000000000000000020000000000000000000000000000000000000000000000000000000000000000000000000000000000000000000000000000000000000000000000000000000000000000000000000000000000000000000000000000000000000000000000000000000000000000000000000000000000000000000000000000000000000000000000000000000000000000000000000000000000000000000000000000000c000000000000000000000000000000000000000000000000000000000000000e000000000000000000000000000000000000000000000000000000000000000000000000000000000000000000000000000000000000000000000000000000000",
        "nonce": "0xab",
        "chainId": "0xab5",
        "zksync": {
          "factoryDeps": [],
          "paymasterData": null
        }
      },
      "additionalContracts": [],
      "isFixedGasLimit": false
    },
    {
      "hash": "0xc9f16fa09ea07afe72929db9d6930cea33892a60bcc673496cc917c0688f2b53",
      "transactionType": "CALL",
      "contractName": null,
      "contractAddress": "0x5c6cff4b7c49805f8295ff73c204ac83f3bc4ae7",
      "function": "setSendLibrary(address,uint32,address)",
      "arguments": [
        "0xBd39033994F5324Fe8D50bB524396A78ff9dFe22",
        "30370",
        "0x166CAb679EBDB0853055522D3B523621b94029a1"
      ],
      "transaction": {
        "from": "0x45dce8e4f2dc005a5f28206a46cb034697eeda8e",
        "to": "0x5c6cff4b7c49805f8295ff73c204ac83f3bc4ae7",
        "gas": "0x38dec",
        "value": "0x0",
        "input": "0x9535ff30000000000000000000000000bd39033994f5324fe8d50bb524396a78ff9dfe2200000000000000000000000000000000000000000000000000000000000076a2000000000000000000000000166cab679ebdb0853055522d3b523621b94029a1",
        "nonce": "0xac",
        "chainId": "0xab5",
        "zksync": {
          "factoryDeps": [],
          "paymasterData": null
        }
      },
      "additionalContracts": [],
      "isFixedGasLimit": false
    },
    {
      "hash": "0x31e48d4da92bd5fe75999a27613cbb04606872397b3cf14a74d47e5db5ccb007",
      "transactionType": "CALL",
      "contractName": null,
      "contractAddress": "0x5c6cff4b7c49805f8295ff73c204ac83f3bc4ae7",
      "function": "setReceiveLibrary(address,uint32,address,uint256)",
      "arguments": [
        "0xBd39033994F5324Fe8D50bB524396A78ff9dFe22",
        "30370",
        "0x9d799c1935c51CA399e6465Ed9841DEbCcEc413E",
        "0"
      ],
      "transaction": {
        "from": "0x45dce8e4f2dc005a5f28206a46cb034697eeda8e",
        "to": "0x5c6cff4b7c49805f8295ff73c204ac83f3bc4ae7",
        "gas": "0x3b373",
        "value": "0x0",
        "input": "0x6a14d715000000000000000000000000bd39033994f5324fe8d50bb524396a78ff9dfe2200000000000000000000000000000000000000000000000000000000000076a20000000000000000000000009d799c1935c51ca399e6465ed9841debccec413e0000000000000000000000000000000000000000000000000000000000000000",
        "nonce": "0xad",
        "chainId": "0xab5",
        "zksync": {
          "factoryDeps": [],
          "paymasterData": null
        }
      },
      "additionalContracts": [],
      "isFixedGasLimit": false
    }
  ],
  "receipts": [
    {
      "status": "0x1",
      "cumulativeGasUsed": "0x0",
      "logs": [
        {
          "address": "0x000000000000000000000000000000000000800a",
          "topics": [
            "0xddf252ad1be2c89b69c2b068fc378daa952ba7f163c4a11628f55a4df523b3ef",
            "0x00000000000000000000000045dce8e4f2dc005a5f28206a46cb034697eeda8e",
            "0x0000000000000000000000000000000000000000000000000000000000008001"
          ],
          "data": "0x000000000000000000000000000000000000000000000000000023f4e911cbd0",
          "blockHash": "0xdfe97eb6643c2cf36eee8ff9cf73f76999eb0fcd1e9b2f4b6811497ee48b8402",
          "blockNumber": "0xdd434f",
          "blockTimestamp": "0x68783d33",
          "transactionHash": "0x9bb4df26c4c655a196fc43a6fe92428bf686c371aa4f7bf6df8c48518c6c1263",
          "transactionIndex": "0x4",
          "logIndex": "0x11",
          "removed": false
        },
        {
          "address": "0xbd39033994f5324fe8d50bb524396a78ff9dfe22",
          "topics": [
            "0xbe4864a8e820971c0247f5992e2da559595f7bf076a21cb5928d443d2a13b674"
          ],
          "data": "0x0000000000000000000000000000000000000000000000000000000000000020000000000000000000000000000000000000000000000000000000000000002c0000000000000000000000000000000000000000000000000000000000000580000000000000000000000000000000000000000000000000000000000000062000000000000000000000000000000000000000000000000000000000000006c00000000000000000000000000000000000000000000000000000000000000760000000000000000000000000000000000000000000000000000000000000080000000000000000000000000000000000000000000000000000000000000008a0000000000000000000000000000000000000000000000000000000000000094000000000000000000000000000000000000000000000000000000000000009e00000000000000000000000000000000000000000000000000000000000000a800000000000000000000000000000000000000000000000000000000000000b200000000000000000000000000000000000000000000000000000000000000bc00000000000000000000000000000000000000000000000000000000000000c600000000000000000000000000000000000000000000000000000000000000d000000000000000000000000000000000000000000000000000000000000000da00000000000000000000000000000000000000000000000000000000000000e400000000000000000000000000000000000000000000000000000000000000ee00000000000000000000000000000000000000000000000000000000000000f80000000000000000000000000000000000000000000000000000000000000102000000000000000000000000000000000000000000000000000000000000010c00000000000000000000000000000000000000000000000000000000000001160000000000000000000000000000000000000000000000000000000000000120000000000000000000000000000000000000000000000000000000000000012a0000000000000000000000000000000000000000000000000000000000000134000000000000000000000000000000000000000000000000000000000000013e00000000000000000000000000000000000000000000000000000000000001480000000000000000000000000000000000000000000000000000000000000152000000000000000000000000000000000000000000000000000000000000015c00000000000000000000000000000000000000000000000000000000000001660000000000000000000000000000000000000000000000000000000000000170000000000000000000000000000000000000000000000000000000000000017a0000000000000000000000000000000000000000000000000000000000000184000000000000000000000000000000000000000000000000000000000000018e000000000000000000000000000000000000000000000000000000000000019800000000000000000000000000000000000000000000000000000000000001a200000000000000000000000000000000000000000000000000000000000001ac00000000000000000000000000000000000000000000000000000000000001b600000000000000000000000000000000000000000000000000000000000001c000000000000000000000000000000000000000000000000000000000000001ca00000000000000000000000000000000000000000000000000000000000001d400000000000000000000000000000000000000000000000000000000000001de00000000000000000000000000000000000000000000000000000000000001e800000000000000000000000000000000000000000000000000000000000001f200000000000000000000000000000000000000000000000000000000000001fc00000000000000000000000000000000000000000000000000000000000002060000000000000000000000000000000000000000000000000000000000000763400000000000000000000000000000000000000000000000000000000000000010000000000000000000000000000000000000000000000000000000000000060000000000000000000000000000000000000000000000000000000000000001600030100110100000000000000000000000000030d400000000000000000000000000000000000000000000000000000000000000000000000000000000076340000000000000000000000000000000000000000000000000000000000000002000000000000000000000000000000000000000000000000000000000000006000000000000000000000000000000000000000000000000000000000000000160003010011010000000000000000000000000003d09000000000000000000000000000000000000000000000000000000000000000000000000000000000764800000000000000000000000000000000000000000000000000000000000000010000000000000000000000000000000000000000000000000000000000000060000000000000000000000000000000000000000000000000000000000000001600030100110100000000000000000000000000030d400000000000000000000000000000000000000000000000000000000000000000000000000000000076480000000000000000000000000000000000000000000000000000000000000002000000000000000000000000000000000000000000000000000000000000006000000000000000000000000000000000000000000000000000000000000000160003010011010000000000000000000000000003d09000000000000000000000000000000000000000000000000000000000000000000000000000000000762f00000000000000000000000000000000000000000000000000000000000000010000000000000000000000000000000000000000000000000000000000000060000000000000000000000000000000000000000000000000000000000000001600030100110100000000000000000000000000030d4000000000000000000000000000000000000000000000000000000000000000000000000000000000762f0000000000000000000000000000000000000000000000000000000000000002000000000000000000000000000000000000000000000000000000000000006000000000000000000000000000000000000000000000000000000000000000160003010011010000000000000000000000000003d09000000000000000000000000000000000000000000000000000000000000000000000000000000000764200000000000000000000000000000000000000000000000000000000000000010000000000000000000000000000000000000000000000000000000000000060000000000000000000000000000000000000000000000000000000000000001600030100110100000000000000000000000000030d400000000000000000000000000000000000000000000000000000000000000000000000000000000076420000000000000000000000000000000000000000000000000000000000000002000000000000000000000000000000000000000000000000000000000000006000000000000000000000000000000000000000000000000000000000000000160003010011010000000000000000000000000003d09000000000000000000000000000000000000000000000000000000000000000000000000000000000767c00000000000000000000000000000000000000000000000000000000000000010000000000000000000000000000000000000000000000000000000000000060000000000000000000000000000000000000000000000000000000000000001600030100110100000000000000000000000000030d4000000000000000000000000000000000000000000000000000000000000000000000000000000000767c0000000000000000000000000000000000000000000000000000000000000002000000000000000000000000000000000000000000000000000000000000006000000000000000000000000000000000000000000000000000000000000000160003010011010000000000000000000000000003d09000000000000000000000000000000000000000000000000000000000000000000000000000000000768300000000000000000000000000000000000000000000000000000000000000010000000000000000000000000000000000000000000000000000000000000060000000000000000000000000000000000000000000000000000000000000001600030100110100000000000000000000000000030d400000000000000000000000000000000000000000000000000000000000000000000000000000000076830000000000000000000000000000000000000000000000000000000000000002000000000000000000000000000000000000000000000000000000000000006000000000000000000000000000000000000000000000000000000000000000160003010011010000000000000000000000000003d09000000000000000000000000000000000000000000000000000000000000000000000000000000000759e00000000000000000000000000000000000000000000000000000000000000010000000000000000000000000000000000000000000000000000000000000060000000000000000000000000000000000000000000000000000000000000001600030100110100000000000000000000000000030d4000000000000000000000000000000000000000000000000000000000000000000000000000000000759e0000000000000000000000000000000000000000000000000000000000000002000000000000000000000000000000000000000000000000000000000000006000000000000000000000000000000000000000000000000000000000000000160003010011010000000000000000000000000003d09000000000000000000000000000000000000000000000000000000000000000000000000000000000759f00000000000000000000000000000000000000000000000000000000000000010000000000000000000000000000000000000000000000000000000000000060000000000000000000000000000000000000000000000000000000000000001600030100110100000000000000000000000000030d4000000000000000000000000000000000000000000000000000000000000000000000000000000000759f0000000000000000000000000000000000000000000000000000000000000002000000000000000000000000000000000000000000000000000000000000006000000000000000000000000000000000000000000000000000000000000000160003010011010000000000000000000000000003d09000000000000000000000000000000000000000000000000000000000000000000000000000000000759d00000000000000000000000000000000000000000000000000000000000000010000000000000000000000000000000000000000000000000000000000000060000000000000000000000000000000000000000000000000000000000000001600030100110100000000000000000000000000030d4000000000000000000000000000000000000000000000000000000000000000000000000000000000759d0000000000000000000000000000000000000000000000000000000000000002000000000000000000000000000000000000000000000000000000000000006000000000000000000000000000000000000000000000000000000000000000160003010011010000000000000000000000000003d09000000000000000000000000000000000000000000000000000000000000000000000000000000000759a00000000000000000000000000000000000000000000000000000000000000010000000000000000000000000000000000000000000000000000000000000060000000000000000000000000000000000000000000000000000000000000001600030100110100000000000000000000000000030d4000000000000000000000000000000000000000000000000000000000000000000000000000000000759a0000000000000000000000000000000000000000000000000000000000000002000000000000000000000000000000000000000000000000000000000000006000000000000000000000000000000000000000000000000000000000000000160003010011010000000000000000000000000003d09000000000000000000000000000000000000000000000000000000000000000000000000000000000759600000000000000000000000000000000000000000000000000000000000000010000000000000000000000000000000000000000000000000000000000000060000000000000000000000000000000000000000000000000000000000000001600030100110100000000000000000000000000030d400000000000000000000000000000000000000000000000000000000000000000000000000000000075960000000000000000000000000000000000000000000000000000000000000002000000000000000000000000000000000000000000000000000000000000006000000000000000000000000000000000000000000000000000000000000000160003010011010000000000000000000000000003d0900000000000000000000000000000000000000000000000000000000000000000000000000000000075ce00000000000000000000000000000000000000000000000000000000000000010000000000000000000000000000000000000000000000000000000000000060000000000000000000000000000000000000000000000000000000000000001600030100110100000000000000000000000000030d400000000000000000000000000000000000000000000000000000000000000000000000000000000075ce0000000000000000000000000000000000000000000000000000000000000002000000000000000000000000000000000000000000000000000000000000006000000000000000000000000000000000000000000000000000000000000000160003010011010000000000000000000000000003d09000000000000000000000000000000000000000000000000000000000000000000000000000000000759500000000000000000000000000000000000000000000000000000000000000010000000000000000000000000000000000000000000000000000000000000060000000000000000000000000000000000000000000000000000000000000001600030100110100000000000000000000000000030d400000000000000000000000000000000000000000000000000000000000000000000000000000000075950000000000000000000000000000000000000000000000000000000000000002000000000000000000000000000000000000000000000000000000000000006000000000000000000000000000000000000000000000000000000000000000160003010011010000000000000000000000000003d09000000000000000000000000000000000000000000000000000000000000000000000000000000000762300000000000000000000000000000000000000000000000000000000000000010000000000000000000000000000000000000000000000000000000000000060000000000000000000000000000000000000000000000000000000000000001600030100110100000000000000000000000000030d400000000000000000000000000000000000000000000000000000000000000000000000000000000076230000000000000000000000000000000000000000000000000000000000000002000000000000000000000000000000000000000000000000000000000000006000000000000000000000000000000000000000000000000000000000000000160003010011010000000000000000000000000003d0900000000000000000000000000000000000000000000000000000000000000000000000000000000075e800000000000000000000000000000000000000000000000000000000000000010000000000000000000000000000000000000000000000000000000000000060000000000000000000000000000000000000000000000000000000000000001600030100110100000000000000000000000000030d400000000000000000000000000000000000000000000000000000000000000000000000000000000075e80000000000000000000000000000000000000000000000000000000000000002000000000000000000000000000000000000000000000000000000000000006000000000000000000000000000000000000000000000000000000000000000160003010011010000000000000000000000000003d09000000000000000000000000000000000000000000000000000000000000000000000000000000000769a00000000000000000000000000000000000000000000000000000000000000010000000000000000000000000000000000000000000000000000000000000060000000000000000000000000000000000000000000000000000000000000001600030100110100000000000000000000000000030d4000000000000000000000000000000000000000000000000000000000000000000000000000000000769a0000000000000000000000000000000000000000000000000000000000000002000000000000000000000000000000000000000000000000000000000000006000000000000000000000000000000000000000000000000000000000000000160003010011010000000000000000000000000003d0900000000000000000000000000000000000000000000000000000000000000000000000000000000075e700000000000000000000000000000000000000000000000000000000000000010000000000000000000000000000000000000000000000000000000000000060000000000000000000000000000000000000000000000000000000000000001600030100110100000000000000000000000000030d400000000000000000000000000000000000000000000000000000000000000000000000000000000075e70000000000000000000000000000000000000000000000000000000000000002000000000000000000000000000000000000000000000000000000000000006000000000000000000000000000000000000000000000000000000000000000160003010011010000000000000000000000000003d09000000000000000000000000000000000000000000000000000000000000000000000000000000000766f00000000000000000000000000000000000000000000000000000000000000010000000000000000000000000000000000000000000000000000000000000060000000000000000000000000000000000000000000000000000000000000001600030100110100000000000000000000000000030d4000000000000000000000000000000000000000000000000000000000000000000000000000000000766f0000000000000000000000000000000000000000000000000000000000000002000000000000000000000000000000000000000000000000000000000000006000000000000000000000000000000000000000000000000000000000000000160003010011010000000000000000000000000003d09000000000000000000000000000000000000000000000000000000000000000000000000000000000767000000000000000000000000000000000000000000000000000000000000000010000000000000000000000000000000000000000000000000000000000000060000000000000000000000000000000000000000000000000000000000000001600030100110100000000000000000000000000030d400000000000000000000000000000000000000000000000000000000000000000000000000000000076700000000000000000000000000000000000000000000000000000000000000002000000000000000000000000000000000000000000000000000000000000006000000000000000000000000000000000000000000000000000000000000000160003010011010000000000000000000000000003d0900000000000000000000000000000000000000000000000000000000000000000000000000000000076a800000000000000000000000000000000000000000000000000000000000000010000000000000000000000000000000000000000000000000000000000000060000000000000000000000000000000000000000000000000000000000000001600030100110100000000000000000000000000030d400000000000000000000000000000000000000000000000000000000000000000000000000000000076a80000000000000000000000000000000000000000000000000000000000000002000000000000000000000000000000000000000000000000000000000000006000000000000000000000000000000000000000000000000000000000000000160003010011010000000000000000000000000003d0900000000000000000000000000000000000000000000000000000000000000000000000000000000075d500000000000000000000000000000000000000000000000000000000000000010000000000000000000000000000000000000000000000000000000000000060000000000000000000000000000000000000000000000000000000000000001600030100110100000000000000000000000000030d400000000000000000000000000000000000000000000000000000000000000000000000000000000075d50000000000000000000000000000000000000000000000000000000000000002000000000000000000000000000000000000000000000000000000000000006000000000000000000000000000000000000000000000000000000000000000160003010011010000000000000000000000000003d0900000000000000000000000000000000000000000000000000000000000000000000000000000000076a200000000000000000000000000000000000000000000000000000000000000010000000000000000000000000000000000000000000000000000000000000060000000000000000000000000000000000000000000000000000000000000001600030100110100000000000000000000000000030d400000000000000000000000000000000000000000000000000000000000000000000000000000000076a20000000000000000000000000000000000000000000000000000000000000002000000000000000000000000000000000000000000000000000000000000006000000000000000000000000000000000000000000000000000000000000000160003010011010000000000000000000000000003d09000000000000000000000",
          "blockHash": "0xdfe97eb6643c2cf36eee8ff9cf73f76999eb0fcd1e9b2f4b6811497ee48b8402",
          "blockNumber": "0xdd434f",
          "blockTimestamp": "0x68783d33",
          "transactionHash": "0x9bb4df26c4c655a196fc43a6fe92428bf686c371aa4f7bf6df8c48518c6c1263",
          "transactionIndex": "0x4",
          "logIndex": "0x12",
          "removed": false
        },
        {
          "address": "0x000000000000000000000000000000000000800a",
          "topics": [
            "0xddf252ad1be2c89b69c2b068fc378daa952ba7f163c4a11628f55a4df523b3ef",
            "0x0000000000000000000000000000000000000000000000000000000000008001",
            "0x00000000000000000000000045dce8e4f2dc005a5f28206a46cb034697eeda8e"
          ],
          "data": "0x00000000000000000000000000000000000000000000000000000f70b5b45c50",
          "blockHash": "0xdfe97eb6643c2cf36eee8ff9cf73f76999eb0fcd1e9b2f4b6811497ee48b8402",
          "blockNumber": "0xdd434f",
          "blockTimestamp": "0x68783d33",
          "transactionHash": "0x9bb4df26c4c655a196fc43a6fe92428bf686c371aa4f7bf6df8c48518c6c1263",
          "transactionIndex": "0x4",
          "logIndex": "0x13",
          "removed": false
        }
      ],
      "logsBloom": "0x00000000000400000000000200000000000000000000000000000000000000000000000000000000000000000000000000000000000000000000400000000000000000000000040000000008000000000000000000000000000000000000080000000000000000000000000000000000000000000000000000000010000000000000000000000000000004000000000000000000000000000000000000080000000000000000100000000000000000000000020000000000000000000000000000000002008000000000000002000000001000000000000000000000000000010000000000000000000000000000800000000000000000000040000000000000",
      "type": "0x71",
      "transactionHash": "0x9bb4df26c4c655a196fc43a6fe92428bf686c371aa4f7bf6df8c48518c6c1263",
      "transactionIndex": "0x4",
      "blockHash": "0xdfe97eb6643c2cf36eee8ff9cf73f76999eb0fcd1e9b2f4b6811497ee48b8402",
      "blockNumber": "0xdd434f",
      "gasUsed": "0x79b58",
      "effectiveGasPrice": "0x2b275d0",
      "from": "0x45dce8e4f2dc005a5f28206a46cb034697eeda8e",
      "to": "0xbd39033994f5324fe8d50bb524396a78ff9dfe22",
      "contractAddress": null,
      "l1BatchNumber": null,
      "l1BatchTxIndex": null,
      "l2ToL1Logs": []
    },
    {
      "status": "0x1",
      "cumulativeGasUsed": "0x0",
      "logs": [
        {
          "address": "0x000000000000000000000000000000000000800a",
          "topics": [
            "0xddf252ad1be2c89b69c2b068fc378daa952ba7f163c4a11628f55a4df523b3ef",
            "0x00000000000000000000000045dce8e4f2dc005a5f28206a46cb034697eeda8e",
            "0x0000000000000000000000000000000000000000000000000000000000008001"
          ],
          "data": "0x0000000000000000000000000000000000000000000000000000094fc2c114a0",
          "blockHash": "0xdfe97eb6643c2cf36eee8ff9cf73f76999eb0fcd1e9b2f4b6811497ee48b8402",
          "blockNumber": "0xdd434f",
          "blockTimestamp": "0x68783d33",
          "transactionHash": "0xedc6a2f372216edb8c6ea94eead0b35fdad480fb61f15a413fc95b88e10c1f23",
          "transactionIndex": "0x5",
          "logIndex": "0x14",
          "removed": false
        },
        {
          "address": "0xbd39033994f5324fe8d50bb524396a78ff9dfe22",
          "topics": [
            "0x238399d427b947898edb290f5ff0f9109849b1c3ba196a42e35f00c50a54b98b"
          ],
          "data": "0x00000000000000000000000000000000000000000000000000000000000076a800000000000000000000000057558cb8d6005de0bae8a2789d5efaae52dba5a8",
          "blockHash": "0xdfe97eb6643c2cf36eee8ff9cf73f76999eb0fcd1e9b2f4b6811497ee48b8402",
          "blockNumber": "0xdd434f",
          "blockTimestamp": "0x68783d33",
          "transactionHash": "0xedc6a2f372216edb8c6ea94eead0b35fdad480fb61f15a413fc95b88e10c1f23",
          "transactionIndex": "0x5",
          "logIndex": "0x15",
          "removed": false
        },
        {
          "address": "0x000000000000000000000000000000000000800a",
          "topics": [
            "0xddf252ad1be2c89b69c2b068fc378daa952ba7f163c4a11628f55a4df523b3ef",
            "0x0000000000000000000000000000000000000000000000000000000000008001",
            "0x00000000000000000000000045dce8e4f2dc005a5f28206a46cb034697eeda8e"
          ],
          "data": "0x000000000000000000000000000000000000000000000000000005d64decba20",
          "blockHash": "0xdfe97eb6643c2cf36eee8ff9cf73f76999eb0fcd1e9b2f4b6811497ee48b8402",
          "blockNumber": "0xdd434f",
          "blockTimestamp": "0x68783d33",
          "transactionHash": "0xedc6a2f372216edb8c6ea94eead0b35fdad480fb61f15a413fc95b88e10c1f23",
          "transactionIndex": "0x5",
          "logIndex": "0x16",
          "removed": false
        }
      ],
      "logsBloom": "0x00000000000400000000000200000000000000000000000000000000000000000000000000000000000000000000000000000000000000000800000000000000000000000000040000000008000000000000000000000000000000000000080000000000000000000000000000000000000000000000000000000010000000000000000000000000000004000000000000000000000000000000000000000000000000000000100000000000000000000000020000000000000002000000000000000002008000000000000000000000001000000000000000040000000000010000000000000000000000000000800000000000000000000040000000000000",
      "type": "0x71",
      "transactionHash": "0xedc6a2f372216edb8c6ea94eead0b35fdad480fb61f15a413fc95b88e10c1f23",
      "transactionIndex": "0x5",
      "blockHash": "0xdfe97eb6643c2cf36eee8ff9cf73f76999eb0fcd1e9b2f4b6811497ee48b8402",
      "blockNumber": "0xdd434f",
      "gasUsed": "0x149c8",
      "effectiveGasPrice": "0x2b275d0",
      "from": "0x45dce8e4f2dc005a5f28206a46cb034697eeda8e",
      "to": "0xbd39033994f5324fe8d50bb524396a78ff9dfe22",
      "contractAddress": null,
      "l1BatchNumber": null,
      "l1BatchTxIndex": null,
      "l2ToL1Logs": []
    },
    {
      "status": "0x1",
      "cumulativeGasUsed": "0x0",
      "logs": [
        {
          "address": "0x000000000000000000000000000000000000800a",
          "topics": [
            "0xddf252ad1be2c89b69c2b068fc378daa952ba7f163c4a11628f55a4df523b3ef",
            "0x00000000000000000000000045dce8e4f2dc005a5f28206a46cb034697eeda8e",
            "0x0000000000000000000000000000000000000000000000000000000000008001"
          ],
          "data": "0x0000000000000000000000000000000000000000000000000000094fc2c114a0",
          "blockHash": "0xdfe97eb6643c2cf36eee8ff9cf73f76999eb0fcd1e9b2f4b6811497ee48b8402",
          "blockNumber": "0xdd434f",
          "blockTimestamp": "0x68783d33",
          "transactionHash": "0xe68ae21172a87a093919e3a8191cb32acf0665c2f82c2609a4f277fe8e247705",
          "transactionIndex": "0x6",
          "logIndex": "0x17",
          "removed": false
        },
        {
          "address": "0xbd39033994f5324fe8d50bb524396a78ff9dfe22",
          "topics": [
            "0x238399d427b947898edb290f5ff0f9109849b1c3ba196a42e35f00c50a54b98b"
          ],
          "data": "0x00000000000000000000000000000000000000000000000000000000000076a200000000000000000000000057558cb8d6005de0bae8a2789d5efaae52dba5a8",
          "blockHash": "0xdfe97eb6643c2cf36eee8ff9cf73f76999eb0fcd1e9b2f4b6811497ee48b8402",
          "blockNumber": "0xdd434f",
          "blockTimestamp": "0x68783d33",
          "transactionHash": "0xe68ae21172a87a093919e3a8191cb32acf0665c2f82c2609a4f277fe8e247705",
          "transactionIndex": "0x6",
          "logIndex": "0x18",
          "removed": false
        },
        {
          "address": "0x000000000000000000000000000000000000800a",
          "topics": [
            "0xddf252ad1be2c89b69c2b068fc378daa952ba7f163c4a11628f55a4df523b3ef",
            "0x0000000000000000000000000000000000000000000000000000000000008001",
            "0x00000000000000000000000045dce8e4f2dc005a5f28206a46cb034697eeda8e"
          ],
          "data": "0x000000000000000000000000000000000000000000000000000005d64decba20",
          "blockHash": "0xdfe97eb6643c2cf36eee8ff9cf73f76999eb0fcd1e9b2f4b6811497ee48b8402",
          "blockNumber": "0xdd434f",
          "blockTimestamp": "0x68783d33",
          "transactionHash": "0xe68ae21172a87a093919e3a8191cb32acf0665c2f82c2609a4f277fe8e247705",
          "transactionIndex": "0x6",
          "logIndex": "0x19",
          "removed": false
        }
      ],
      "logsBloom": "0x00000000000400000000000200000000000000000000000000000000000000000000000000000000000000000000000000000000000000000800000000000000000000000000040000000008000000000000000000000000000000000000080000000000000000000000000000000000000000000000000000000010000000000000000000000000000004000000000000000000000000000000000000000000000000000000100000000000000000000000020000000000000002000000000000000002008000000000000000000000001000000000000000040000000000010000000000000000000000000000800000000000000000000040000000000000",
      "type": "0x71",
      "transactionHash": "0xe68ae21172a87a093919e3a8191cb32acf0665c2f82c2609a4f277fe8e247705",
      "transactionIndex": "0x6",
      "blockHash": "0xdfe97eb6643c2cf36eee8ff9cf73f76999eb0fcd1e9b2f4b6811497ee48b8402",
      "blockNumber": "0xdd434f",
      "gasUsed": "0x149c8",
      "effectiveGasPrice": "0x2b275d0",
      "from": "0x45dce8e4f2dc005a5f28206a46cb034697eeda8e",
      "to": "0xbd39033994f5324fe8d50bb524396a78ff9dfe22",
      "contractAddress": null,
      "l1BatchNumber": null,
      "l1BatchTxIndex": null,
      "l2ToL1Logs": []
    },
    {
      "status": "0x1",
      "cumulativeGasUsed": "0x0",
      "logs": [
        {
          "address": "0x000000000000000000000000000000000000800a",
          "topics": [
            "0xddf252ad1be2c89b69c2b068fc378daa952ba7f163c4a11628f55a4df523b3ef",
            "0x00000000000000000000000045dce8e4f2dc005a5f28206a46cb034697eeda8e",
            "0x0000000000000000000000000000000000000000000000000000000000008001"
          ],
          "data": "0x00000000000000000000000000000000000000000000000000000c277c3ed370",
          "blockHash": "0xdfe97eb6643c2cf36eee8ff9cf73f76999eb0fcd1e9b2f4b6811497ee48b8402",
          "blockNumber": "0xdd434f",
          "blockTimestamp": "0x68783d33",
          "transactionHash": "0x1a8525ed6fa0e1589e1531be8f52c3f4c6da3b20a595b6a5daaa02dcec051921",
          "transactionIndex": "0x7",
          "logIndex": "0x1a",
          "removed": false
        },
        {
          "address": "0x166cab679ebdb0853055522d3b523621b94029a1",
          "topics": [
            "0x82118522aa536ac0e96cc5c689407ae42b89d592aa133890a01f1509842f5081"
          ],
          "data": "0x000000000000000000000000bd39033994f5324fe8d50bb524396a78ff9dfe2200000000000000000000000000000000000000000000000000000000000076a20000000000000000000000000000000000000000000000000000000000000060000000000000000000000000000000000000000000000000000000000000000000000000000000000000000000000000000000000000000000000000000000000000000000000000000000000000000000000000000000000000000000000000000000000000000000000000000000000000000000000000000000000000000000000000000000000000000000000000000000000000000000000000000000c000000000000000000000000000000000000000000000000000000000000000e000000000000000000000000000000000000000000000000000000000000000000000000000000000000000000000000000000000000000000000000000000000",
          "blockHash": "0xdfe97eb6643c2cf36eee8ff9cf73f76999eb0fcd1e9b2f4b6811497ee48b8402",
          "blockNumber": "0xdd434f",
          "blockTimestamp": "0x68783d33",
          "transactionHash": "0x1a8525ed6fa0e1589e1531be8f52c3f4c6da3b20a595b6a5daaa02dcec051921",
          "transactionIndex": "0x7",
          "logIndex": "0x1b",
          "removed": false
        },
        {
          "address": "0x000000000000000000000000000000000000800a",
          "topics": [
            "0xddf252ad1be2c89b69c2b068fc378daa952ba7f163c4a11628f55a4df523b3ef",
            "0x0000000000000000000000000000000000000000000000000000000000008001",
            "0x00000000000000000000000045dce8e4f2dc005a5f28206a46cb034697eeda8e"
          ],
          "data": "0x0000000000000000000000000000000000000000000000000000076fc51c98f0",
          "blockHash": "0xdfe97eb6643c2cf36eee8ff9cf73f76999eb0fcd1e9b2f4b6811497ee48b8402",
          "blockNumber": "0xdd434f",
          "blockTimestamp": "0x68783d33",
          "transactionHash": "0x1a8525ed6fa0e1589e1531be8f52c3f4c6da3b20a595b6a5daaa02dcec051921",
          "transactionIndex": "0x7",
          "logIndex": "0x1c",
          "removed": false
        }
      ],
      "logsBloom": "0x00000000000400004000000200000000000000000000000000000000000000000000000000000000000000000000000000000000000000000000000000000000000000000000040000000008000000000000000000000000002000000000080000000000000000000000000000000000000000000000000000000010000000000000000000000000000004000000000000000000000000000000000000000000000000000000100000000002000000000000000000000000000000000000000000000002008000000000000000200000001000000000000000008000000000000000000000000000000000000000800000000000000000000000000000000010",
      "type": "0x71",
      "transactionHash": "0x1a8525ed6fa0e1589e1531be8f52c3f4c6da3b20a595b6a5daaa02dcec051921",
      "transactionIndex": "0x7",
      "blockHash": "0xdfe97eb6643c2cf36eee8ff9cf73f76999eb0fcd1e9b2f4b6811497ee48b8402",
      "blockNumber": "0xdd434f",
      "gasUsed": "0x1bfc8",
      "effectiveGasPrice": "0x2b275d0",
      "from": "0x45dce8e4f2dc005a5f28206a46cb034697eeda8e",
      "to": "0x5c6cff4b7c49805f8295ff73c204ac83f3bc4ae7",
      "contractAddress": null,
      "l1BatchNumber": null,
      "l1BatchTxIndex": null,
      "l2ToL1Logs": []
    },
    {
      "status": "0x1",
      "cumulativeGasUsed": "0x0",
      "logs": [
        {
          "address": "0x000000000000000000000000000000000000800a",
          "topics": [
            "0xddf252ad1be2c89b69c2b068fc378daa952ba7f163c4a11628f55a4df523b3ef",
            "0x00000000000000000000000045dce8e4f2dc005a5f28206a46cb034697eeda8e",
            "0x0000000000000000000000000000000000000000000000000000000000008001"
          ],
          "data": "0x00000000000000000000000000000000000000000000000000000bd08bb136b0",
          "blockHash": "0xdfe97eb6643c2cf36eee8ff9cf73f76999eb0fcd1e9b2f4b6811497ee48b8402",
          "blockNumber": "0xdd434f",
          "blockTimestamp": "0x68783d33",
          "transactionHash": "0x30f39ba5f39ad52471f7f4b17a6f51bc7623f7338d2de47ff57e8f9e77400471",
          "transactionIndex": "0x8",
          "logIndex": "0x1d",
          "removed": false
        },
        {
          "address": "0x9d799c1935c51ca399e6465ed9841debccec413e",
          "topics": [
            "0x82118522aa536ac0e96cc5c689407ae42b89d592aa133890a01f1509842f5081"
          ],
          "data": "0x000000000000000000000000bd39033994f5324fe8d50bb524396a78ff9dfe2200000000000000000000000000000000000000000000000000000000000076a20000000000000000000000000000000000000000000000000000000000000060000000000000000000000000000000000000000000000000000000000000000000000000000000000000000000000000000000000000000000000000000000000000000000000000000000000000000000000000000000000000000000000000000000000000000000000000000000000000000000000000000000000000000000000000000000000000000000000000000000000000000000000000000000c000000000000000000000000000000000000000000000000000000000000000e000000000000000000000000000000000000000000000000000000000000000000000000000000000000000000000000000000000000000000000000000000000",
          "blockHash": "0xdfe97eb6643c2cf36eee8ff9cf73f76999eb0fcd1e9b2f4b6811497ee48b8402",
          "blockNumber": "0xdd434f",
          "blockTimestamp": "0x68783d33",
          "transactionHash": "0x30f39ba5f39ad52471f7f4b17a6f51bc7623f7338d2de47ff57e8f9e77400471",
          "transactionIndex": "0x8",
          "logIndex": "0x1e",
          "removed": false
        },
        {
          "address": "0x000000000000000000000000000000000000800a",
          "topics": [
            "0xddf252ad1be2c89b69c2b068fc378daa952ba7f163c4a11628f55a4df523b3ef",
            "0x0000000000000000000000000000000000000000000000000000000000008001",
            "0x00000000000000000000000045dce8e4f2dc005a5f28206a46cb034697eeda8e"
          ],
          "data": "0x0000000000000000000000000000000000000000000000000000072dd698a250",
          "blockHash": "0xdfe97eb6643c2cf36eee8ff9cf73f76999eb0fcd1e9b2f4b6811497ee48b8402",
          "blockNumber": "0xdd434f",
          "blockTimestamp": "0x68783d33",
          "transactionHash": "0x30f39ba5f39ad52471f7f4b17a6f51bc7623f7338d2de47ff57e8f9e77400471",
          "transactionIndex": "0x8",
          "logIndex": "0x1f",
          "removed": false
        }
      ],
      "logsBloom": "0x00000000000400000000000200000000000000000000000000000000000000000000000000000000000000000000000000000000000000000000000000001000000000000000040000000008000000000000000000000000002000000000080000000000000000000000000000000000000000000000000000000010000000000000000000000000000004000000000000000000000000000001000000000000000000000000100000000002000000000000000000000000000000000000000000000002008000000000000000000000003000000000000000000000000000000000000000000000000000000000800000000000000000000000000000000010",
      "type": "0x71",
      "transactionHash": "0x30f39ba5f39ad52471f7f4b17a6f51bc7623f7338d2de47ff57e8f9e77400471",
      "transactionIndex": "0x8",
      "blockHash": "0xdfe97eb6643c2cf36eee8ff9cf73f76999eb0fcd1e9b2f4b6811497ee48b8402",
      "blockNumber": "0xdd434f",
      "gasUsed": "0x1b7fe",
      "effectiveGasPrice": "0x2b275d0",
      "from": "0x45dce8e4f2dc005a5f28206a46cb034697eeda8e",
      "to": "0x5c6cff4b7c49805f8295ff73c204ac83f3bc4ae7",
      "contractAddress": null,
      "l1BatchNumber": null,
      "l1BatchTxIndex": null,
      "l2ToL1Logs": []
    },
    {
      "status": "0x1",
      "cumulativeGasUsed": "0x0",
      "logs": [
        {
          "address": "0x000000000000000000000000000000000000800a",
          "topics": [
            "0xddf252ad1be2c89b69c2b068fc378daa952ba7f163c4a11628f55a4df523b3ef",
            "0x00000000000000000000000045dce8e4f2dc005a5f28206a46cb034697eeda8e",
            "0x0000000000000000000000000000000000000000000000000000000000008001"
          ],
          "data": "0x00000000000000000000000000000000000000000000000000000a549469eae0",
          "blockHash": "0xdfe97eb6643c2cf36eee8ff9cf73f76999eb0fcd1e9b2f4b6811497ee48b8402",
          "blockNumber": "0xdd434f",
          "blockTimestamp": "0x68783d33",
          "transactionHash": "0xc9f16fa09ea07afe72929db9d6930cea33892a60bcc673496cc917c0688f2b53",
          "transactionIndex": "0x9",
          "logIndex": "0x20",
          "removed": false
        },
        {
          "address": "0x5c6cff4b7c49805f8295ff73c204ac83f3bc4ae7",
          "topics": [
            "0x4cff966ebee29a156dcb34cf72c1d06231fb1777f6bdf6e8089819232f002b1c"
          ],
          "data": "0x000000000000000000000000bd39033994f5324fe8d50bb524396a78ff9dfe2200000000000000000000000000000000000000000000000000000000000076a2000000000000000000000000166cab679ebdb0853055522d3b523621b94029a1",
          "blockHash": "0xdfe97eb6643c2cf36eee8ff9cf73f76999eb0fcd1e9b2f4b6811497ee48b8402",
          "blockNumber": "0xdd434f",
          "blockTimestamp": "0x68783d33",
          "transactionHash": "0xc9f16fa09ea07afe72929db9d6930cea33892a60bcc673496cc917c0688f2b53",
          "transactionIndex": "0x9",
          "logIndex": "0x21",
          "removed": false
        },
        {
          "address": "0x000000000000000000000000000000000000800a",
          "topics": [
            "0xddf252ad1be2c89b69c2b068fc378daa952ba7f163c4a11628f55a4df523b3ef",
            "0x0000000000000000000000000000000000000000000000000000000000008001",
            "0x00000000000000000000000045dce8e4f2dc005a5f28206a46cb034697eeda8e"
          ],
          "data": "0x000000000000000000000000000000000000000000000000000006ae91815b50",
          "blockHash": "0xdfe97eb6643c2cf36eee8ff9cf73f76999eb0fcd1e9b2f4b6811497ee48b8402",
          "blockNumber": "0xdd434f",
          "blockTimestamp": "0x68783d33",
          "transactionHash": "0xc9f16fa09ea07afe72929db9d6930cea33892a60bcc673496cc917c0688f2b53",
          "transactionIndex": "0x9",
          "logIndex": "0x22",
          "removed": false
        }
      ],
      "logsBloom": "0x00000000000400000000000200000000000200000000000000000000000000000000000000000008000000000000000000000000000000000000000001000000000000000000040000000008000000000000000000000000000000000000080000000000000000000020000000000000000000000000000000000010000000000000000000000000000004000000000000000000000000000000000000000000000000000000100000000000000000000000000000000000000000000000000000000002008000000000000000000000001000000000000002000000000000000040000000000000000000000000800000000000000000000000000000000000",
      "type": "0x71",
      "transactionHash": "0xc9f16fa09ea07afe72929db9d6930cea33892a60bcc673496cc917c0688f2b53",
      "transactionIndex": "0x9",
      "blockHash": "0xdfe97eb6643c2cf36eee8ff9cf73f76999eb0fcd1e9b2f4b6811497ee48b8402",
      "blockNumber": "0xdd434f",
      "gasUsed": "0x15a4d",
      "effectiveGasPrice": "0x2b275d0",
      "from": "0x45dce8e4f2dc005a5f28206a46cb034697eeda8e",
      "to": "0x5c6cff4b7c49805f8295ff73c204ac83f3bc4ae7",
      "contractAddress": null,
      "l1BatchNumber": null,
      "l1BatchTxIndex": null,
      "l2ToL1Logs": []
    },
    {
      "status": "0x1",
      "cumulativeGasUsed": "0x0",
      "logs": [
        {
          "address": "0x000000000000000000000000000000000000800a",
          "topics": [
            "0xddf252ad1be2c89b69c2b068fc378daa952ba7f163c4a11628f55a4df523b3ef",
            "0x00000000000000000000000045dce8e4f2dc005a5f28206a46cb034697eeda8e",
            "0x0000000000000000000000000000000000000000000000000000000000008001"
          ],
          "data": "0x00000000000000000000000000000000000000000000000000000b0272d2ae90",
          "blockHash": "0xdfe97eb6643c2cf36eee8ff9cf73f76999eb0fcd1e9b2f4b6811497ee48b8402",
          "blockNumber": "0xdd434f",
          "blockTimestamp": "0x68783d33",
          "transactionHash": "0x31e48d4da92bd5fe75999a27613cbb04606872397b3cf14a74d47e5db5ccb007",
          "transactionIndex": "0xa",
          "logIndex": "0x23",
          "removed": false
        },
        {
          "address": "0x5c6cff4b7c49805f8295ff73c204ac83f3bc4ae7",
          "topics": [
            "0xcd6f92f5ac6185a5acfa02c92090746cec64d777269cbcd0ed031e396657a1c2"
          ],
          "data": "0x000000000000000000000000bd39033994f5324fe8d50bb524396a78ff9dfe2200000000000000000000000000000000000000000000000000000000000076a20000000000000000000000009d799c1935c51ca399e6465ed9841debccec413e",
          "blockHash": "0xdfe97eb6643c2cf36eee8ff9cf73f76999eb0fcd1e9b2f4b6811497ee48b8402",
          "blockNumber": "0xdd434f",
          "blockTimestamp": "0x68783d33",
          "transactionHash": "0x31e48d4da92bd5fe75999a27613cbb04606872397b3cf14a74d47e5db5ccb007",
          "transactionIndex": "0xa",
          "logIndex": "0x24",
          "removed": false
        },
        {
          "address": "0x5c6cff4b7c49805f8295ff73c204ac83f3bc4ae7",
          "topics": [
            "0x4e0a5bbfa0c11a64effb1ada324b5437a17272e1aed9320398715ef71bb20928"
          ],
          "data": "0x000000000000000000000000bd39033994f5324fe8d50bb524396a78ff9dfe2200000000000000000000000000000000000000000000000000000000000076a200000000000000000000000000000000000000000000000000000000000000000000000000000000000000000000000000000000000000000000000000000000",
          "blockHash": "0xdfe97eb6643c2cf36eee8ff9cf73f76999eb0fcd1e9b2f4b6811497ee48b8402",
          "blockNumber": "0xdd434f",
          "blockTimestamp": "0x68783d33",
          "transactionHash": "0x31e48d4da92bd5fe75999a27613cbb04606872397b3cf14a74d47e5db5ccb007",
          "transactionIndex": "0xa",
          "logIndex": "0x25",
          "removed": false
        },
        {
          "address": "0x000000000000000000000000000000000000800a",
          "topics": [
            "0xddf252ad1be2c89b69c2b068fc378daa952ba7f163c4a11628f55a4df523b3ef",
            "0x0000000000000000000000000000000000000000000000000000000000008001",
            "0x00000000000000000000000045dce8e4f2dc005a5f28206a46cb034697eeda8e"
          ],
          "data": "0x000000000000000000000000000000000000000000000000000006d5773c6f10",
          "blockHash": "0xdfe97eb6643c2cf36eee8ff9cf73f76999eb0fcd1e9b2f4b6811497ee48b8402",
          "blockNumber": "0xdd434f",
          "blockTimestamp": "0x68783d33",
          "transactionHash": "0x31e48d4da92bd5fe75999a27613cbb04606872397b3cf14a74d47e5db5ccb007",
          "transactionIndex": "0xa",
          "logIndex": "0x26",
          "removed": false
        }
      ],
      "logsBloom": "0x00000000000400000000020a00000000000000000000000000000000000000020400000000000008000000000000000000000000000000000000000000000000000000000000040000000008000000000000000000800000000000000000080000000000000000000020000000000000000000000000000000000010000000100000000000000000000004000000000000000000000000000000000000000000000000000000100000000000000000000000000000000000000000000000000000000002008000000000000000000000001000000000000002000000000000000000000000000000000000000000800000000000000000000000000000000000",
      "type": "0x71",
      "transactionHash": "0x31e48d4da92bd5fe75999a27613cbb04606872397b3cf14a74d47e5db5ccb007",
      "transactionIndex": "0xa",
      "blockHash": "0xdfe97eb6643c2cf36eee8ff9cf73f76999eb0fcd1e9b2f4b6811497ee48b8402",
      "blockNumber": "0xdd434f",
      "gasUsed": "0x18c58",
      "effectiveGasPrice": "0x2b275d0",
      "from": "0x45dce8e4f2dc005a5f28206a46cb034697eeda8e",
      "to": "0x5c6cff4b7c49805f8295ff73c204ac83f3bc4ae7",
      "contractAddress": null,
      "l1BatchNumber": null,
      "l1BatchTxIndex": null,
      "l2ToL1Logs": []
    }
  ],
  "libraries": [],
  "pending": [],
  "returns": {},
  "timestamp": 1752710454,
  "chain": 2741,
  "commit": "04c80d9"
}