{
  "transactions": [
    {
      "hash": null,
      "transactionType": "CALL",
      "contractName": null,
      "contractAddress": "0xa057d8d4fc86a62801ce363c169b0a8d192f6cee",
      "function": "setEnforcedOptions((uint32,uint16,bytes)[])",
      "arguments": [
        "[(30260, 1, 0x00030100110100000000000000000000000000030d40), (30260, 2, 0x0003010011010000000000000000000000000003d090), (30280, 1, 0x00030100110100000000000000000000000000030d40), (30280, 2, 0x0003010011010000000000000000000000000003d090), (30255, 1, 0x00030100110100000000000000000000000000030d40), (30255, 2, 0x0003010011010000000000000000000000000003d090), (30274, 1, 0x00030100110100000000000000000000000000030d40), (30274, 2, 0x0003010011010000000000000000000000000003d090), (30332, 1, 0x00030100110100000000000000000000000000030d40), (30332, 2, 0x0003010011010000000000000000000000000003d090), (30339, 1, 0x00030100110100000000000000000000000000030d40), (30339, 2, 0x0003010011010000000000000000000000000003d090), (30110, 1, 0x00030100110100000000000000000000000000030d40), (30110, 2, 0x0003010011010000000000000000000000000003d090), (30111, 1, 0x00030100110100000000000000000000000000030d40), (30111, 2, 0x0003010011010000000000000000000000000003d090), (30109, 1, 0x00030100110100000000000000000000000000030d40), (30109, 2, 0x0003010011010000000000000000000000000003d090), (30106, 1, 0x00030100110100000000000000000000000000030d40), (30106, 2, 0x0003010011010000000000000000000000000003d090), (30102, 1, 0x00030100110100000000000000000000000000030d40), (30102, 2, 0x0003010011010000000000000000000000000003d090), (30158, 1, 0x00030100110100000000000000000000000000030d40), (30158, 2, 0x0003010011010000000000000000000000000003d090), (30101, 1, 0x00030100110100000000000000000000000000030d40), (30101, 2, 0x0003010011010000000000000000000000000003d090), (30243, 1, 0x00030100110100000000000000000000000000030d40), (30243, 2, 0x0003010011010000000000000000000000000003d090), (30184, 1, 0x00030100110100000000000000000000000000030d40), (30184, 2, 0x0003010011010000000000000000000000000003d090), (30362, 1, 0x00030100110100000000000000000000000000030d40), (30362, 2, 0x0003010011010000000000000000000000000003d090), (30183, 1, 0x00030100110100000000000000000000000000030d40), (30183, 2, 0x0003010011010000000000000000000000000003d090), (30319, 1, 0x00030100110100000000000000000000000000030d40), (30319, 2, 0x0003010011010000000000000000000000000003d090), (30320, 1, 0x00030100110100000000000000000000000000030d40), (30320, 2, 0x0003010011010000000000000000000000000003d090), (30370, 1, 0x00030100110100000000000000000000000000030d40), (30370, 2, 0x0003010011010000000000000000000000000003d090), (30376, 1, 0x00030100110100000000000000000000000000030d40), (30376, 2, 0x0003010011010000000000000000000000000003d090), (30375, 1, 0x00030100110100000000000000000000000000030d40), (30375, 2, 0x0003010011010000000000000000000000000003d090), (30214, 1, 0x00030100110100000000000000000000000000030d40), (30214, 2, 0x0003010011010000000000000000000000000003d090), (30324, 1, 0x00030100110100000000000000000000000000030d40), (30324, 2, 0x0003010011010000000000000000000000000003d090), (30165, 1, 0x00030100110100000000000000000000000000030d40), (30165, 2, 0x0003010011010000000000000000000000000003d090)]"
      ],
      "transaction": {
        "from": "0x45dce8e4f2dc005a5f28206a46cb034697eeda8e",
        "to": "0xa057d8d4fc86a62801ce363c169b0a8d192f6cee",
        "gas": "0x1da889",
        "value": "0x0",
        "input": "0xb98bd07000000000000000000000000000000000000000000000000000000000000000200000000000000000000000000000000000000000000000000000000000000032000000000000000000000000000000000000000000000000000000000000064000000000000000000000000000000000000000000000000000000000000006e00000000000000000000000000000000000000000000000000000000000000780000000000000000000000000000000000000000000000000000000000000082000000000000000000000000000000000000000000000000000000000000008c000000000000000000000000000000000000000000000000000000000000009600000000000000000000000000000000000000000000000000000000000000a000000000000000000000000000000000000000000000000000000000000000aa00000000000000000000000000000000000000000000000000000000000000b400000000000000000000000000000000000000000000000000000000000000be00000000000000000000000000000000000000000000000000000000000000c800000000000000000000000000000000000000000000000000000000000000d200000000000000000000000000000000000000000000000000000000000000dc00000000000000000000000000000000000000000000000000000000000000e600000000000000000000000000000000000000000000000000000000000000f000000000000000000000000000000000000000000000000000000000000000fa0000000000000000000000000000000000000000000000000000000000000104000000000000000000000000000000000000000000000000000000000000010e00000000000000000000000000000000000000000000000000000000000001180000000000000000000000000000000000000000000000000000000000000122000000000000000000000000000000000000000000000000000000000000012c00000000000000000000000000000000000000000000000000000000000001360000000000000000000000000000000000000000000000000000000000000140000000000000000000000000000000000000000000000000000000000000014a0000000000000000000000000000000000000000000000000000000000000154000000000000000000000000000000000000000000000000000000000000015e00000000000000000000000000000000000000000000000000000000000001680000000000000000000000000000000000000000000000000000000000000172000000000000000000000000000000000000000000000000000000000000017c00000000000000000000000000000000000000000000000000000000000001860000000000000000000000000000000000000000000000000000000000000190000000000000000000000000000000000000000000000000000000000000019a00000000000000000000000000000000000000000000000000000000000001a400000000000000000000000000000000000000000000000000000000000001ae00000000000000000000000000000000000000000000000000000000000001b800000000000000000000000000000000000000000000000000000000000001c200000000000000000000000000000000000000000000000000000000000001cc00000000000000000000000000000000000000000000000000000000000001d600000000000000000000000000000000000000000000000000000000000001e000000000000000000000000000000000000000000000000000000000000001ea00000000000000000000000000000000000000000000000000000000000001f400000000000000000000000000000000000000000000000000000000000001fe00000000000000000000000000000000000000000000000000000000000002080000000000000000000000000000000000000000000000000000000000000212000000000000000000000000000000000000000000000000000000000000021c00000000000000000000000000000000000000000000000000000000000002260000000000000000000000000000000000000000000000000000000000000230000000000000000000000000000000000000000000000000000000000000023a0000000000000000000000000000000000000000000000000000000000000244000000000000000000000000000000000000000000000000000000000000024e0000000000000000000000000000000000000000000000000000000000000763400000000000000000000000000000000000000000000000000000000000000010000000000000000000000000000000000000000000000000000000000000060000000000000000000000000000000000000000000000000000000000000001600030100110100000000000000000000000000030d400000000000000000000000000000000000000000000000000000000000000000000000000000000076340000000000000000000000000000000000000000000000000000000000000002000000000000000000000000000000000000000000000000000000000000006000000000000000000000000000000000000000000000000000000000000000160003010011010000000000000000000000000003d09000000000000000000000000000000000000000000000000000000000000000000000000000000000764800000000000000000000000000000000000000000000000000000000000000010000000000000000000000000000000000000000000000000000000000000060000000000000000000000000000000000000000000000000000000000000001600030100110100000000000000000000000000030d400000000000000000000000000000000000000000000000000000000000000000000000000000000076480000000000000000000000000000000000000000000000000000000000000002000000000000000000000000000000000000000000000000000000000000006000000000000000000000000000000000000000000000000000000000000000160003010011010000000000000000000000000003d09000000000000000000000000000000000000000000000000000000000000000000000000000000000762f00000000000000000000000000000000000000000000000000000000000000010000000000000000000000000000000000000000000000000000000000000060000000000000000000000000000000000000000000000000000000000000001600030100110100000000000000000000000000030d4000000000000000000000000000000000000000000000000000000000000000000000000000000000762f0000000000000000000000000000000000000000000000000000000000000002000000000000000000000000000000000000000000000000000000000000006000000000000000000000000000000000000000000000000000000000000000160003010011010000000000000000000000000003d09000000000000000000000000000000000000000000000000000000000000000000000000000000000764200000000000000000000000000000000000000000000000000000000000000010000000000000000000000000000000000000000000000000000000000000060000000000000000000000000000000000000000000000000000000000000001600030100110100000000000000000000000000030d400000000000000000000000000000000000000000000000000000000000000000000000000000000076420000000000000000000000000000000000000000000000000000000000000002000000000000000000000000000000000000000000000000000000000000006000000000000000000000000000000000000000000000000000000000000000160003010011010000000000000000000000000003d09000000000000000000000000000000000000000000000000000000000000000000000000000000000767c00000000000000000000000000000000000000000000000000000000000000010000000000000000000000000000000000000000000000000000000000000060000000000000000000000000000000000000000000000000000000000000001600030100110100000000000000000000000000030d4000000000000000000000000000000000000000000000000000000000000000000000000000000000767c0000000000000000000000000000000000000000000000000000000000000002000000000000000000000000000000000000000000000000000000000000006000000000000000000000000000000000000000000000000000000000000000160003010011010000000000000000000000000003d09000000000000000000000000000000000000000000000000000000000000000000000000000000000768300000000000000000000000000000000000000000000000000000000000000010000000000000000000000000000000000000000000000000000000000000060000000000000000000000000000000000000000000000000000000000000001600030100110100000000000000000000000000030d400000000000000000000000000000000000000000000000000000000000000000000000000000000076830000000000000000000000000000000000000000000000000000000000000002000000000000000000000000000000000000000000000000000000000000006000000000000000000000000000000000000000000000000000000000000000160003010011010000000000000000000000000003d09000000000000000000000000000000000000000000000000000000000000000000000000000000000759e00000000000000000000000000000000000000000000000000000000000000010000000000000000000000000000000000000000000000000000000000000060000000000000000000000000000000000000000000000000000000000000001600030100110100000000000000000000000000030d4000000000000000000000000000000000000000000000000000000000000000000000000000000000759e0000000000000000000000000000000000000000000000000000000000000002000000000000000000000000000000000000000000000000000000000000006000000000000000000000000000000000000000000000000000000000000000160003010011010000000000000000000000000003d09000000000000000000000000000000000000000000000000000000000000000000000000000000000759f00000000000000000000000000000000000000000000000000000000000000010000000000000000000000000000000000000000000000000000000000000060000000000000000000000000000000000000000000000000000000000000001600030100110100000000000000000000000000030d4000000000000000000000000000000000000000000000000000000000000000000000000000000000759f0000000000000000000000000000000000000000000000000000000000000002000000000000000000000000000000000000000000000000000000000000006000000000000000000000000000000000000000000000000000000000000000160003010011010000000000000000000000000003d09000000000000000000000000000000000000000000000000000000000000000000000000000000000759d00000000000000000000000000000000000000000000000000000000000000010000000000000000000000000000000000000000000000000000000000000060000000000000000000000000000000000000000000000000000000000000001600030100110100000000000000000000000000030d4000000000000000000000000000000000000000000000000000000000000000000000000000000000759d0000000000000000000000000000000000000000000000000000000000000002000000000000000000000000000000000000000000000000000000000000006000000000000000000000000000000000000000000000000000000000000000160003010011010000000000000000000000000003d09000000000000000000000000000000000000000000000000000000000000000000000000000000000759a00000000000000000000000000000000000000000000000000000000000000010000000000000000000000000000000000000000000000000000000000000060000000000000000000000000000000000000000000000000000000000000001600030100110100000000000000000000000000030d4000000000000000000000000000000000000000000000000000000000000000000000000000000000759a0000000000000000000000000000000000000000000000000000000000000002000000000000000000000000000000000000000000000000000000000000006000000000000000000000000000000000000000000000000000000000000000160003010011010000000000000000000000000003d09000000000000000000000000000000000000000000000000000000000000000000000000000000000759600000000000000000000000000000000000000000000000000000000000000010000000000000000000000000000000000000000000000000000000000000060000000000000000000000000000000000000000000000000000000000000001600030100110100000000000000000000000000030d400000000000000000000000000000000000000000000000000000000000000000000000000000000075960000000000000000000000000000000000000000000000000000000000000002000000000000000000000000000000000000000000000000000000000000006000000000000000000000000000000000000000000000000000000000000000160003010011010000000000000000000000000003d0900000000000000000000000000000000000000000000000000000000000000000000000000000000075ce00000000000000000000000000000000000000000000000000000000000000010000000000000000000000000000000000000000000000000000000000000060000000000000000000000000000000000000000000000000000000000000001600030100110100000000000000000000000000030d400000000000000000000000000000000000000000000000000000000000000000000000000000000075ce0000000000000000000000000000000000000000000000000000000000000002000000000000000000000000000000000000000000000000000000000000006000000000000000000000000000000000000000000000000000000000000000160003010011010000000000000000000000000003d09000000000000000000000000000000000000000000000000000000000000000000000000000000000759500000000000000000000000000000000000000000000000000000000000000010000000000000000000000000000000000000000000000000000000000000060000000000000000000000000000000000000000000000000000000000000001600030100110100000000000000000000000000030d400000000000000000000000000000000000000000000000000000000000000000000000000000000075950000000000000000000000000000000000000000000000000000000000000002000000000000000000000000000000000000000000000000000000000000006000000000000000000000000000000000000000000000000000000000000000160003010011010000000000000000000000000003d09000000000000000000000000000000000000000000000000000000000000000000000000000000000762300000000000000000000000000000000000000000000000000000000000000010000000000000000000000000000000000000000000000000000000000000060000000000000000000000000000000000000000000000000000000000000001600030100110100000000000000000000000000030d400000000000000000000000000000000000000000000000000000000000000000000000000000000076230000000000000000000000000000000000000000000000000000000000000002000000000000000000000000000000000000000000000000000000000000006000000000000000000000000000000000000000000000000000000000000000160003010011010000000000000000000000000003d0900000000000000000000000000000000000000000000000000000000000000000000000000000000075e800000000000000000000000000000000000000000000000000000000000000010000000000000000000000000000000000000000000000000000000000000060000000000000000000000000000000000000000000000000000000000000001600030100110100000000000000000000000000030d400000000000000000000000000000000000000000000000000000000000000000000000000000000075e80000000000000000000000000000000000000000000000000000000000000002000000000000000000000000000000000000000000000000000000000000006000000000000000000000000000000000000000000000000000000000000000160003010011010000000000000000000000000003d09000000000000000000000000000000000000000000000000000000000000000000000000000000000769a00000000000000000000000000000000000000000000000000000000000000010000000000000000000000000000000000000000000000000000000000000060000000000000000000000000000000000000000000000000000000000000001600030100110100000000000000000000000000030d4000000000000000000000000000000000000000000000000000000000000000000000000000000000769a0000000000000000000000000000000000000000000000000000000000000002000000000000000000000000000000000000000000000000000000000000006000000000000000000000000000000000000000000000000000000000000000160003010011010000000000000000000000000003d0900000000000000000000000000000000000000000000000000000000000000000000000000000000075e700000000000000000000000000000000000000000000000000000000000000010000000000000000000000000000000000000000000000000000000000000060000000000000000000000000000000000000000000000000000000000000001600030100110100000000000000000000000000030d400000000000000000000000000000000000000000000000000000000000000000000000000000000075e70000000000000000000000000000000000000000000000000000000000000002000000000000000000000000000000000000000000000000000000000000006000000000000000000000000000000000000000000000000000000000000000160003010011010000000000000000000000000003d09000000000000000000000000000000000000000000000000000000000000000000000000000000000766f00000000000000000000000000000000000000000000000000000000000000010000000000000000000000000000000000000000000000000000000000000060000000000000000000000000000000000000000000000000000000000000001600030100110100000000000000000000000000030d4000000000000000000000000000000000000000000000000000000000000000000000000000000000766f0000000000000000000000000000000000000000000000000000000000000002000000000000000000000000000000000000000000000000000000000000006000000000000000000000000000000000000000000000000000000000000000160003010011010000000000000000000000000003d09000000000000000000000000000000000000000000000000000000000000000000000000000000000767000000000000000000000000000000000000000000000000000000000000000010000000000000000000000000000000000000000000000000000000000000060000000000000000000000000000000000000000000000000000000000000001600030100110100000000000000000000000000030d400000000000000000000000000000000000000000000000000000000000000000000000000000000076700000000000000000000000000000000000000000000000000000000000000002000000000000000000000000000000000000000000000000000000000000006000000000000000000000000000000000000000000000000000000000000000160003010011010000000000000000000000000003d0900000000000000000000000000000000000000000000000000000000000000000000000000000000076a200000000000000000000000000000000000000000000000000000000000000010000000000000000000000000000000000000000000000000000000000000060000000000000000000000000000000000000000000000000000000000000001600030100110100000000000000000000000000030d400000000000000000000000000000000000000000000000000000000000000000000000000000000076a20000000000000000000000000000000000000000000000000000000000000002000000000000000000000000000000000000000000000000000000000000006000000000000000000000000000000000000000000000000000000000000000160003010011010000000000000000000000000003d0900000000000000000000000000000000000000000000000000000000000000000000000000000000076a800000000000000000000000000000000000000000000000000000000000000010000000000000000000000000000000000000000000000000000000000000060000000000000000000000000000000000000000000000000000000000000001600030100110100000000000000000000000000030d400000000000000000000000000000000000000000000000000000000000000000000000000000000076a80000000000000000000000000000000000000000000000000000000000000002000000000000000000000000000000000000000000000000000000000000006000000000000000000000000000000000000000000000000000000000000000160003010011010000000000000000000000000003d0900000000000000000000000000000000000000000000000000000000000000000000000000000000076a700000000000000000000000000000000000000000000000000000000000000010000000000000000000000000000000000000000000000000000000000000060000000000000000000000000000000000000000000000000000000000000001600030100110100000000000000000000000000030d400000000000000000000000000000000000000000000000000000000000000000000000000000000076a70000000000000000000000000000000000000000000000000000000000000002000000000000000000000000000000000000000000000000000000000000006000000000000000000000000000000000000000000000000000000000000000160003010011010000000000000000000000000003d09000000000000000000000000000000000000000000000000000000000000000000000000000000000760600000000000000000000000000000000000000000000000000000000000000010000000000000000000000000000000000000000000000000000000000000060000000000000000000000000000000000000000000000000000000000000001600030100110100000000000000000000000000030d400000000000000000000000000000000000000000000000000000000000000000000000000000000076060000000000000000000000000000000000000000000000000000000000000002000000000000000000000000000000000000000000000000000000000000006000000000000000000000000000000000000000000000000000000000000000160003010011010000000000000000000000000003d09000000000000000000000000000000000000000000000000000000000000000000000000000000000767400000000000000000000000000000000000000000000000000000000000000010000000000000000000000000000000000000000000000000000000000000060000000000000000000000000000000000000000000000000000000000000001600030100110100000000000000000000000000030d400000000000000000000000000000000000000000000000000000000000000000000000000000000076740000000000000000000000000000000000000000000000000000000000000002000000000000000000000000000000000000000000000000000000000000006000000000000000000000000000000000000000000000000000000000000000160003010011010000000000000000000000000003d0900000000000000000000000000000000000000000000000000000000000000000000000000000000075d500000000000000000000000000000000000000000000000000000000000000010000000000000000000000000000000000000000000000000000000000000060000000000000000000000000000000000000000000000000000000000000001600030100110100000000000000000000000000030d400000000000000000000000000000000000000000000000000000000000000000000000000000000075d50000000000000000000000000000000000000000000000000000000000000002000000000000000000000000000000000000000000000000000000000000006000000000000000000000000000000000000000000000000000000000000000160003010011010000000000000000000000000003d09000000000000000000000",
        "nonce": "0x1b",
        "chainId": "0x4e454152"
      },
      "additionalContracts": [],
      "isFixedGasLimit": false
    },
    {
      "hash": null,
      "transactionType": "CALL",
      "contractName": null,
      "contractAddress": "0xa057d8d4fc86a62801ce363c169b0a8d192f6cee",
      "function": "setPeer(uint32,bytes32)",
      "arguments": [
        "30260",
        "0x00000000000000000000000057558cb8d6005de0bae8a2789d5efaae52dba5a8"
      ],
      "transaction": {
        "from": "0x45dce8e4f2dc005a5f28206a46cb034697eeda8e",
        "to": "0xa057d8d4fc86a62801ce363c169b0a8d192f6cee",
        "gas": "0x128be",
        "value": "0x0",
        "input": "0x3400288b000000000000000000000000000000000000000000000000000000000000763400000000000000000000000057558cb8d6005de0bae8a2789d5efaae52dba5a8",
        "nonce": "0x1c",
        "chainId": "0x4e454152"
      },
      "additionalContracts": [],
      "isFixedGasLimit": false
    },
    {
      "hash": null,
      "transactionType": "CALL",
      "contractName": null,
      "contractAddress": "0xa057d8d4fc86a62801ce363c169b0a8d192f6cee",
      "function": "setPeer(uint32,bytes32)",
      "arguments": [
        "30280",
        "0x00000000000000000000000057558cb8d6005de0bae8a2789d5efaae52dba5a8"
      ],
      "transaction": {
        "from": "0x45dce8e4f2dc005a5f28206a46cb034697eeda8e",
        "to": "0xa057d8d4fc86a62801ce363c169b0a8d192f6cee",
        "gas": "0x128be",
        "value": "0x0",
        "input": "0x3400288b000000000000000000000000000000000000000000000000000000000000764800000000000000000000000057558cb8d6005de0bae8a2789d5efaae52dba5a8",
        "nonce": "0x1d",
        "chainId": "0x4e454152"
      },
      "additionalContracts": [],
      "isFixedGasLimit": false
    },
    {
      "hash": null,
      "transactionType": "CALL",
      "contractName": null,
      "contractAddress": "0xa057d8d4fc86a62801ce363c169b0a8d192f6cee",
      "function": "setPeer(uint32,bytes32)",
      "arguments": [
        "30255",
        "0x00000000000000000000000057558cb8d6005de0bae8a2789d5efaae52dba5a8"
      ],
      "transaction": {
        "from": "0x45dce8e4f2dc005a5f28206a46cb034697eeda8e",
        "to": "0xa057d8d4fc86a62801ce363c169b0a8d192f6cee",
        "gas": "0x128be",
        "value": "0x0",
        "input": "0x3400288b000000000000000000000000000000000000000000000000000000000000762f00000000000000000000000057558cb8d6005de0bae8a2789d5efaae52dba5a8",
        "nonce": "0x1e",
        "chainId": "0x4e454152"
      },
      "additionalContracts": [],
      "isFixedGasLimit": false
    },
    {
      "hash": null,
      "transactionType": "CALL",
      "contractName": null,
      "contractAddress": "0xa057d8d4fc86a62801ce363c169b0a8d192f6cee",
      "function": "setPeer(uint32,bytes32)",
      "arguments": [
        "30274",
        "0x00000000000000000000000057558cb8d6005de0bae8a2789d5efaae52dba5a8"
      ],
      "transaction": {
        "from": "0x45dce8e4f2dc005a5f28206a46cb034697eeda8e",
        "to": "0xa057d8d4fc86a62801ce363c169b0a8d192f6cee",
        "gas": "0x128be",
        "value": "0x0",
        "input": "0x3400288b000000000000000000000000000000000000000000000000000000000000764200000000000000000000000057558cb8d6005de0bae8a2789d5efaae52dba5a8",
        "nonce": "0x1f",
        "chainId": "0x4e454152"
      },
      "additionalContracts": [],
      "isFixedGasLimit": false
    },
    {
      "hash": null,
      "transactionType": "CALL",
      "contractName": null,
      "contractAddress": "0xa057d8d4fc86a62801ce363c169b0a8d192f6cee",
      "function": "setPeer(uint32,bytes32)",
      "arguments": [
        "30332",
        "0x00000000000000000000000057558cb8d6005de0bae8a2789d5efaae52dba5a8"
      ],
      "transaction": {
        "from": "0x45dce8e4f2dc005a5f28206a46cb034697eeda8e",
        "to": "0xa057d8d4fc86a62801ce363c169b0a8d192f6cee",
        "gas": "0x128be",
        "value": "0x0",
        "input": "0x3400288b000000000000000000000000000000000000000000000000000000000000767c00000000000000000000000057558cb8d6005de0bae8a2789d5efaae52dba5a8",
        "nonce": "0x20",
        "chainId": "0x4e454152"
      },
      "additionalContracts": [],
      "isFixedGasLimit": false
    },
    {
      "hash": null,
      "transactionType": "CALL",
      "contractName": null,
      "contractAddress": "0xa057d8d4fc86a62801ce363c169b0a8d192f6cee",
      "function": "setPeer(uint32,bytes32)",
      "arguments": [
        "30339",
        "0x00000000000000000000000057558cb8d6005de0bae8a2789d5efaae52dba5a8"
      ],
      "transaction": {
        "from": "0x45dce8e4f2dc005a5f28206a46cb034697eeda8e",
        "to": "0xa057d8d4fc86a62801ce363c169b0a8d192f6cee",
        "gas": "0x128be",
        "value": "0x0",
        "input": "0x3400288b000000000000000000000000000000000000000000000000000000000000768300000000000000000000000057558cb8d6005de0bae8a2789d5efaae52dba5a8",
        "nonce": "0x21",
        "chainId": "0x4e454152"
      },
      "additionalContracts": [],
      "isFixedGasLimit": false
    },
    {
      "hash": null,
      "transactionType": "CALL",
      "contractName": null,
      "contractAddress": "0xa057d8d4fc86a62801ce363c169b0a8d192f6cee",
      "function": "setPeer(uint32,bytes32)",
      "arguments": [
        "30110",
        "0x00000000000000000000000057558cb8d6005de0bae8a2789d5efaae52dba5a8"
      ],
      "transaction": {
        "from": "0x45dce8e4f2dc005a5f28206a46cb034697eeda8e",
        "to": "0xa057d8d4fc86a62801ce363c169b0a8d192f6cee",
        "gas": "0x128be",
        "value": "0x0",
        "input": "0x3400288b000000000000000000000000000000000000000000000000000000000000759e00000000000000000000000057558cb8d6005de0bae8a2789d5efaae52dba5a8",
        "nonce": "0x22",
        "chainId": "0x4e454152"
      },
      "additionalContracts": [],
      "isFixedGasLimit": false
    },
    {
      "hash": null,
      "transactionType": "CALL",
      "contractName": null,
      "contractAddress": "0xa057d8d4fc86a62801ce363c169b0a8d192f6cee",
      "function": "setPeer(uint32,bytes32)",
      "arguments": [
        "30111",
        "0x00000000000000000000000057558cb8d6005de0bae8a2789d5efaae52dba5a8"
      ],
      "transaction": {
        "from": "0x45dce8e4f2dc005a5f28206a46cb034697eeda8e",
        "to": "0xa057d8d4fc86a62801ce363c169b0a8d192f6cee",
        "gas": "0x128be",
        "value": "0x0",
        "input": "0x3400288b000000000000000000000000000000000000000000000000000000000000759f00000000000000000000000057558cb8d6005de0bae8a2789d5efaae52dba5a8",
        "nonce": "0x23",
        "chainId": "0x4e454152"
      },
      "additionalContracts": [],
      "isFixedGasLimit": false
    },
    {
      "hash": null,
      "transactionType": "CALL",
      "contractName": null,
      "contractAddress": "0xa057d8d4fc86a62801ce363c169b0a8d192f6cee",
      "function": "setPeer(uint32,bytes32)",
      "arguments": [
        "30109",
        "0x00000000000000000000000057558cb8d6005de0bae8a2789d5efaae52dba5a8"
      ],
      "transaction": {
        "from": "0x45dce8e4f2dc005a5f28206a46cb034697eeda8e",
        "to": "0xa057d8d4fc86a62801ce363c169b0a8d192f6cee",
        "gas": "0x128be",
        "value": "0x0",
        "input": "0x3400288b000000000000000000000000000000000000000000000000000000000000759d00000000000000000000000057558cb8d6005de0bae8a2789d5efaae52dba5a8",
        "nonce": "0x24",
        "chainId": "0x4e454152"
      },
      "additionalContracts": [],
      "isFixedGasLimit": false
    },
    {
      "hash": null,
      "transactionType": "CALL",
      "contractName": null,
      "contractAddress": "0xa057d8d4fc86a62801ce363c169b0a8d192f6cee",
      "function": "setPeer(uint32,bytes32)",
      "arguments": [
        "30106",
        "0x00000000000000000000000057558cb8d6005de0bae8a2789d5efaae52dba5a8"
      ],
      "transaction": {
        "from": "0x45dce8e4f2dc005a5f28206a46cb034697eeda8e",
        "to": "0xa057d8d4fc86a62801ce363c169b0a8d192f6cee",
        "gas": "0x128be",
        "value": "0x0",
        "input": "0x3400288b000000000000000000000000000000000000000000000000000000000000759a00000000000000000000000057558cb8d6005de0bae8a2789d5efaae52dba5a8",
        "nonce": "0x25",
        "chainId": "0x4e454152"
      },
      "additionalContracts": [],
      "isFixedGasLimit": false
    },
    {
      "hash": null,
      "transactionType": "CALL",
      "contractName": null,
      "contractAddress": "0xa057d8d4fc86a62801ce363c169b0a8d192f6cee",
      "function": "setPeer(uint32,bytes32)",
      "arguments": [
        "30102",
        "0x00000000000000000000000057558cb8d6005de0bae8a2789d5efaae52dba5a8"
      ],
      "transaction": {
        "from": "0x45dce8e4f2dc005a5f28206a46cb034697eeda8e",
        "to": "0xa057d8d4fc86a62801ce363c169b0a8d192f6cee",
        "gas": "0x128be",
        "value": "0x0",
        "input": "0x3400288b000000000000000000000000000000000000000000000000000000000000759600000000000000000000000057558cb8d6005de0bae8a2789d5efaae52dba5a8",
        "nonce": "0x26",
        "chainId": "0x4e454152"
      },
      "additionalContracts": [],
      "isFixedGasLimit": false
    },
    {
      "hash": null,
      "transactionType": "CALL",
      "contractName": null,
      "contractAddress": "0xa057d8d4fc86a62801ce363c169b0a8d192f6cee",
      "function": "setPeer(uint32,bytes32)",
      "arguments": [
        "30158",
        "0x00000000000000000000000057558cb8d6005de0bae8a2789d5efaae52dba5a8"
      ],
      "transaction": {
        "from": "0x45dce8e4f2dc005a5f28206a46cb034697eeda8e",
        "to": "0xa057d8d4fc86a62801ce363c169b0a8d192f6cee",
        "gas": "0x128be",
        "value": "0x0",
        "input": "0x3400288b00000000000000000000000000000000000000000000000000000000000075ce00000000000000000000000057558cb8d6005de0bae8a2789d5efaae52dba5a8",
        "nonce": "0x27",
        "chainId": "0x4e454152"
      },
      "additionalContracts": [],
      "isFixedGasLimit": false
    },
    {
      "hash": null,
      "transactionType": "CALL",
      "contractName": null,
      "contractAddress": "0xa057d8d4fc86a62801ce363c169b0a8d192f6cee",
      "function": "setPeer(uint32,bytes32)",
      "arguments": [
        "30101",
        "0x00000000000000000000000057558cb8d6005de0bae8a2789d5efaae52dba5a8"
      ],
      "transaction": {
        "from": "0x45dce8e4f2dc005a5f28206a46cb034697eeda8e",
        "to": "0xa057d8d4fc86a62801ce363c169b0a8d192f6cee",
        "gas": "0x128be",
        "value": "0x0",
        "input": "0x3400288b000000000000000000000000000000000000000000000000000000000000759500000000000000000000000057558cb8d6005de0bae8a2789d5efaae52dba5a8",
        "nonce": "0x28",
        "chainId": "0x4e454152"
      },
      "additionalContracts": [],
      "isFixedGasLimit": false
    },
    {
      "hash": null,
      "transactionType": "CALL",
      "contractName": null,
      "contractAddress": "0xa057d8d4fc86a62801ce363c169b0a8d192f6cee",
      "function": "setPeer(uint32,bytes32)",
      "arguments": [
        "30243",
        "0x00000000000000000000000057558cb8d6005de0bae8a2789d5efaae52dba5a8"
      ],
      "transaction": {
        "from": "0x45dce8e4f2dc005a5f28206a46cb034697eeda8e",
        "to": "0xa057d8d4fc86a62801ce363c169b0a8d192f6cee",
        "gas": "0x128be",
        "value": "0x0",
        "input": "0x3400288b000000000000000000000000000000000000000000000000000000000000762300000000000000000000000057558cb8d6005de0bae8a2789d5efaae52dba5a8",
        "nonce": "0x29",
        "chainId": "0x4e454152"
      },
      "additionalContracts": [],
      "isFixedGasLimit": false
    },
    {
      "hash": null,
      "transactionType": "CALL",
      "contractName": null,
      "contractAddress": "0xa057d8d4fc86a62801ce363c169b0a8d192f6cee",
      "function": "setPeer(uint32,bytes32)",
      "arguments": [
        "30184",
        "0x00000000000000000000000057558cb8d6005de0bae8a2789d5efaae52dba5a8"
      ],
      "transaction": {
        "from": "0x45dce8e4f2dc005a5f28206a46cb034697eeda8e",
        "to": "0xa057d8d4fc86a62801ce363c169b0a8d192f6cee",
        "gas": "0x128be",
        "value": "0x0",
        "input": "0x3400288b00000000000000000000000000000000000000000000000000000000000075e800000000000000000000000057558cb8d6005de0bae8a2789d5efaae52dba5a8",
        "nonce": "0x2a",
        "chainId": "0x4e454152"
      },
      "additionalContracts": [],
      "isFixedGasLimit": false
    },
    {
      "hash": null,
      "transactionType": "CALL",
      "contractName": null,
      "contractAddress": "0xa057d8d4fc86a62801ce363c169b0a8d192f6cee",
      "function": "setPeer(uint32,bytes32)",
      "arguments": [
        "30362",
        "0x00000000000000000000000057558cb8d6005de0bae8a2789d5efaae52dba5a8"
      ],
      "transaction": {
        "from": "0x45dce8e4f2dc005a5f28206a46cb034697eeda8e",
        "to": "0xa057d8d4fc86a62801ce363c169b0a8d192f6cee",
        "gas": "0x128be",
        "value": "0x0",
        "input": "0x3400288b000000000000000000000000000000000000000000000000000000000000769a00000000000000000000000057558cb8d6005de0bae8a2789d5efaae52dba5a8",
        "nonce": "0x2b",
        "chainId": "0x4e454152"
      },
      "additionalContracts": [],
      "isFixedGasLimit": false
    },
    {
      "hash": null,
      "transactionType": "CALL",
      "contractName": null,
      "contractAddress": "0xa057d8d4fc86a62801ce363c169b0a8d192f6cee",
      "function": "setPeer(uint32,bytes32)",
      "arguments": [
        "30183",
        "0x0000000000000000000000006185334f1542a9966cbad694577ffbede3dd1f1f"
      ],
      "transaction": {
        "from": "0x45dce8e4f2dc005a5f28206a46cb034697eeda8e",
        "to": "0xa057d8d4fc86a62801ce363c169b0a8d192f6cee",
        "gas": "0x13a45",
        "value": "0x0",
        "input": "0x3400288b00000000000000000000000000000000000000000000000000000000000075e70000000000000000000000006185334f1542a9966cbad694577ffbede3dd1f1f",
        "nonce": "0x2c",
        "chainId": "0x4e454152"
      },
      "additionalContracts": [],
      "isFixedGasLimit": false
    },
    {
      "hash": null,
      "transactionType": "CALL",
      "contractName": null,
      "contractAddress": "0xa057d8d4fc86a62801ce363c169b0a8d192f6cee",
      "function": "setPeer(uint32,bytes32)",
      "arguments": [
        "30319",
        "0x00000000000000000000000057558cb8d6005de0bae8a2789d5efaae52dba5a8"
      ],
      "transaction": {
        "from": "0x45dce8e4f2dc005a5f28206a46cb034697eeda8e",
        "to": "0xa057d8d4fc86a62801ce363c169b0a8d192f6cee",
        "gas": "0x128be",
        "value": "0x0",
        "input": "0x3400288b000000000000000000000000000000000000000000000000000000000000766f00000000000000000000000057558cb8d6005de0bae8a2789d5efaae52dba5a8",
        "nonce": "0x2d",
        "chainId": "0x4e454152"
      },
      "additionalContracts": [],
      "isFixedGasLimit": false
    },
    {
      "hash": null,
      "transactionType": "CALL",
      "contractName": null,
      "contractAddress": "0xa057d8d4fc86a62801ce363c169b0a8d192f6cee",
      "function": "setPeer(uint32,bytes32)",
      "arguments": [
        "30320",
        "0x00000000000000000000000057558cb8d6005de0bae8a2789d5efaae52dba5a8"
      ],
      "transaction": {
        "from": "0x45dce8e4f2dc005a5f28206a46cb034697eeda8e",
        "to": "0xa057d8d4fc86a62801ce363c169b0a8d192f6cee",
        "gas": "0x128be",
        "value": "0x0",
        "input": "0x3400288b000000000000000000000000000000000000000000000000000000000000767000000000000000000000000057558cb8d6005de0bae8a2789d5efaae52dba5a8",
        "nonce": "0x2e",
        "chainId": "0x4e454152"
      },
      "additionalContracts": [],
      "isFixedGasLimit": false
    },
    {
      "hash": null,
      "transactionType": "CALL",
      "contractName": null,
      "contractAddress": "0xa057d8d4fc86a62801ce363c169b0a8d192f6cee",
      "function": "setPeer(uint32,bytes32)",
      "arguments": [
        "30370",
        "0x00000000000000000000000057558cb8d6005de0bae8a2789d5efaae52dba5a8"
      ],
      "transaction": {
        "from": "0x45dce8e4f2dc005a5f28206a46cb034697eeda8e",
        "to": "0xa057d8d4fc86a62801ce363c169b0a8d192f6cee",
        "gas": "0x128be",
        "value": "0x0",
        "input": "0x3400288b00000000000000000000000000000000000000000000000000000000000076a200000000000000000000000057558cb8d6005de0bae8a2789d5efaae52dba5a8",
        "nonce": "0x2f",
        "chainId": "0x4e454152"
      },
      "additionalContracts": [],
      "isFixedGasLimit": false
    },
    {
      "hash": null,
      "transactionType": "CALL",
      "contractName": null,
      "contractAddress": "0xa057d8d4fc86a62801ce363c169b0a8d192f6cee",
      "function": "setPeer(uint32,bytes32)",
      "arguments": [
        "30376",
        "0x00000000000000000000000057558cb8d6005de0bae8a2789d5efaae52dba5a8"
      ],
      "transaction": {
        "from": "0x45dce8e4f2dc005a5f28206a46cb034697eeda8e",
        "to": "0xa057d8d4fc86a62801ce363c169b0a8d192f6cee",
        "gas": "0x128be",
        "value": "0x0",
        "input": "0x3400288b00000000000000000000000000000000000000000000000000000000000076a800000000000000000000000057558cb8d6005de0bae8a2789d5efaae52dba5a8",
        "nonce": "0x30",
        "chainId": "0x4e454152"
      },
      "additionalContracts": [],
      "isFixedGasLimit": false
    },
    {
      "hash": null,
      "transactionType": "CALL",
      "contractName": null,
      "contractAddress": "0xa057d8d4fc86a62801ce363c169b0a8d192f6cee",
      "function": "setPeer(uint32,bytes32)",
      "arguments": [
        "30375",
        "0x00000000000000000000000057558cb8d6005de0bae8a2789d5efaae52dba5a8"
      ],
      "transaction": {
        "from": "0x45dce8e4f2dc005a5f28206a46cb034697eeda8e",
        "to": "0xa057d8d4fc86a62801ce363c169b0a8d192f6cee",
        "gas": "0x128be",
        "value": "0x0",
        "input": "0x3400288b00000000000000000000000000000000000000000000000000000000000076a700000000000000000000000057558cb8d6005de0bae8a2789d5efaae52dba5a8",
        "nonce": "0x31",
        "chainId": "0x4e454152"
      },
      "additionalContracts": [],
      "isFixedGasLimit": false
    },
    {
      "hash": null,
      "transactionType": "CALL",
      "contractName": null,
      "contractAddress": "0xa057d8d4fc86a62801ce363c169b0a8d192f6cee",
      "function": "setPeer(uint32,bytes32)",
      "arguments": [
        "30214",
        "0x00000000000000000000000057558cb8d6005de0bae8a2789d5efaae52dba5a8"
      ],
      "transaction": {
        "from": "0x45dce8e4f2dc005a5f28206a46cb034697eeda8e",
        "to": "0xa057d8d4fc86a62801ce363c169b0a8d192f6cee",
        "gas": "0x128be",
        "value": "0x0",
        "input": "0x3400288b000000000000000000000000000000000000000000000000000000000000760600000000000000000000000057558cb8d6005de0bae8a2789d5efaae52dba5a8",
        "nonce": "0x32",
        "chainId": "0x4e454152"
      },
      "additionalContracts": [],
      "isFixedGasLimit": false
    },
    {
      "hash": null,
      "transactionType": "CALL",
      "contractName": null,
      "contractAddress": "0xa057d8d4fc86a62801ce363c169b0a8d192f6cee",
      "function": "setPeer(uint32,bytes32)",
      "arguments": [
        "30324",
        "0x000000000000000000000000bd39033994f5324fe8d50bb524396a78ff9dfe22"
      ],
      "transaction": {
        "from": "0x45dce8e4f2dc005a5f28206a46cb034697eeda8e",
        "to": "0xa057d8d4fc86a62801ce363c169b0a8d192f6cee",
        "gas": "0x13a45",
        "value": "0x0",
        "input": "0x3400288b0000000000000000000000000000000000000000000000000000000000007674000000000000000000000000bd39033994f5324fe8d50bb524396a78ff9dfe22",
        "nonce": "0x33",
        "chainId": "0x4e454152"
      },
      "additionalContracts": [],
      "isFixedGasLimit": false
    },
    {
      "hash": null,
      "transactionType": "CALL",
      "contractName": null,
      "contractAddress": "0xa057d8d4fc86a62801ce363c169b0a8d192f6cee",
      "function": "setPeer(uint32,bytes32)",
      "arguments": [
        "30165",
        "0x0000000000000000000000003fc877008e396fdd7f9ee3deb2e8a54d54da705a"
      ],
      "transaction": {
        "from": "0x45dce8e4f2dc005a5f28206a46cb034697eeda8e",
        "to": "0xa057d8d4fc86a62801ce363c169b0a8d192f6cee",
        "gas": "0x128be",
        "value": "0x0",
        "input": "0x3400288b00000000000000000000000000000000000000000000000000000000000075d50000000000000000000000003fc877008e396fdd7f9ee3deb2e8a54d54da705a",
        "nonce": "0x34",
        "chainId": "0x4e454152"
      },
      "additionalContracts": [],
      "isFixedGasLimit": false
    },
    {
      "hash": null,
      "transactionType": "CALL",
      "contractName": null,
      "contractAddress": "0x1a44076050125825900e736c501f859c50fe728c",
      "function": "setConfig(address,address,(uint32,uint32,bytes)[])",
      "arguments": [
        "0xA057D8D4Fc86a62801CE363C169b0A8d192F6cEE",
        "0x1aCe9DD1BC743aD036eF2D92Af42Ca70A1159df5",
        "[(30375, 2, 0x0000000000000000000000000000000000000000000000000000000000000020000000000000000000000000000000000000000000000000000000000000000000000000000000000000000000000000000000000000000000000000000000020000000000000000000000000000000000000000000000000000000000000000000000000000000000000000000000000000000000000000000000000000000000000000000000000000000000000000000000000000000000000000000000c000000000000000000000000000000000000000000000000000000000000001200000000000000000000000000000000000000000000000000000000000000002000000000000000000000000045d70bf1939af0489cb44533750a2e15c92d7d4000000000000000000000000d4a903930f2c9085586cda0b11d9681eecb20d2f0000000000000000000000000000000000000000000000000000000000000000)]"
      ],
      "transaction": {
        "from": "0x45dce8e4f2dc005a5f28206a46cb034697eeda8e",
        "to": "0x1a44076050125825900e736c501f859c50fe728c",
        "gas": "0x2ef2a",
        "value": "0x0",
        "input": "0x6dbd9f90000000000000000000000000a057d8d4fc86a62801ce363c169b0a8d192f6cee0000000000000000000000001ace9dd1bc743ad036ef2d92af42ca70a1159df500000000000000000000000000000000000000000000000000000000000000600000000000000000000000000000000000000000000000000000000000000001000000000000000000000000000000000000000000000000000000000000002000000000000000000000000000000000000000000000000000000000000076a70000000000000000000000000000000000000000000000000000000000000002000000000000000000000000000000000000000000000000000000000000006000000000000000000000000000000000000000000000000000000000000001600000000000000000000000000000000000000000000000000000000000000020000000000000000000000000000000000000000000000000000000000000000000000000000000000000000000000000000000000000000000000000000000020000000000000000000000000000000000000000000000000000000000000000000000000000000000000000000000000000000000000000000000000000000000000000000000000000000000000000000000000000000000000000000000c000000000000000000000000000000000000000000000000000000000000001200000000000000000000000000000000000000000000000000000000000000002000000000000000000000000045d70bf1939af0489cb44533750a2e15c92d7d4000000000000000000000000d4a903930f2c9085586cda0b11d9681eecb20d2f0000000000000000000000000000000000000000000000000000000000000000",
        "nonce": "0x35",
        "chainId": "0x4e454152"
      },
      "additionalContracts": [],
      "isFixedGasLimit": false
    },
    {
      "hash": null,
      "transactionType": "CALL",
      "contractName": null,
      "contractAddress": "0x1a44076050125825900e736c501f859c50fe728c",
      "function": "setConfig(address,address,(uint32,uint32,bytes)[])",
      "arguments": [
        "0xA057D8D4Fc86a62801CE363C169b0A8d192F6cEE",
        "0x000CC1A759bC3A15e664Ed5379E321Be5de1c9B6",
        "[(30375, 2, 0x0000000000000000000000000000000000000000000000000000000000000020000000000000000000000000000000000000000000000000000000000000000000000000000000000000000000000000000000000000000000000000000000020000000000000000000000000000000000000000000000000000000000000000000000000000000000000000000000000000000000000000000000000000000000000000000000000000000000000000000000000000000000000000000000c000000000000000000000000000000000000000000000000000000000000001200000000000000000000000000000000000000000000000000000000000000002000000000000000000000000045d70bf1939af0489cb44533750a2e15c92d7d4000000000000000000000000d4a903930f2c9085586cda0b11d9681eecb20d2f0000000000000000000000000000000000000000000000000000000000000000)]"
      ],
      "transaction": {
        "from": "0x45dce8e4f2dc005a5f28206a46cb034697eeda8e",
        "to": "0x1a44076050125825900e736c501f859c50fe728c",
        "gas": "0x2edbd",
        "value": "0x0",
        "input": "0x6dbd9f90000000000000000000000000a057d8d4fc86a62801ce363c169b0a8d192f6cee000000000000000000000000000cc1a759bc3a15e664ed5379e321be5de1c9b600000000000000000000000000000000000000000000000000000000000000600000000000000000000000000000000000000000000000000000000000000001000000000000000000000000000000000000000000000000000000000000002000000000000000000000000000000000000000000000000000000000000076a70000000000000000000000000000000000000000000000000000000000000002000000000000000000000000000000000000000000000000000000000000006000000000000000000000000000000000000000000000000000000000000001600000000000000000000000000000000000000000000000000000000000000020000000000000000000000000000000000000000000000000000000000000000000000000000000000000000000000000000000000000000000000000000000020000000000000000000000000000000000000000000000000000000000000000000000000000000000000000000000000000000000000000000000000000000000000000000000000000000000000000000000000000000000000000000000c000000000000000000000000000000000000000000000000000000000000001200000000000000000000000000000000000000000000000000000000000000002000000000000000000000000045d70bf1939af0489cb44533750a2e15c92d7d4000000000000000000000000d4a903930f2c9085586cda0b11d9681eecb20d2f0000000000000000000000000000000000000000000000000000000000000000",
        "nonce": "0x36",
        "chainId": "0x4e454152"
      },
      "additionalContracts": [],
      "isFixedGasLimit": false
    },
    {
      "hash": null,
      "transactionType": "CALL",
      "contractName": null,
      "contractAddress": "0x1a44076050125825900e736c501f859c50fe728c",
      "function": "setSendLibrary(address,uint32,address)",
      "arguments": [
        "0xA057D8D4Fc86a62801CE363C169b0A8d192F6cEE",
        "30375",
        "0x1aCe9DD1BC743aD036eF2D92Af42Ca70A1159df5"
      ],
      "transaction": {
        "from": "0x45dce8e4f2dc005a5f28206a46cb034697eeda8e",
        "to": "0x1a44076050125825900e736c501f859c50fe728c",
        "gas": "0x1378b",
        "value": "0x0",
        "input": "0x9535ff30000000000000000000000000a057d8d4fc86a62801ce363c169b0a8d192f6cee00000000000000000000000000000000000000000000000000000000000076a70000000000000000000000001ace9dd1bc743ad036ef2d92af42ca70a1159df5",
        "nonce": "0x37",
        "chainId": "0x4e454152"
      },
      "additionalContracts": [],
      "isFixedGasLimit": false
    },
    {
      "hash": null,
      "transactionType": "CALL",
      "contractName": null,
      "contractAddress": "0x1a44076050125825900e736c501f859c50fe728c",
      "function": "setReceiveLibrary(address,uint32,address,uint256)",
      "arguments": [
        "0xA057D8D4Fc86a62801CE363C169b0A8d192F6cEE",
        "30375",
        "0x000CC1A759bC3A15e664Ed5379E321Be5de1c9B6",
        "0"
      ],
      "transaction": {
        "from": "0x45dce8e4f2dc005a5f28206a46cb034697eeda8e",
        "to": "0x1a44076050125825900e736c501f859c50fe728c",
        "gas": "0x15b7f",
        "value": "0x0",
        "input": "0x6a14d715000000000000000000000000a057d8d4fc86a62801ce363c169b0a8d192f6cee00000000000000000000000000000000000000000000000000000000000076a7000000000000000000000000000cc1a759bc3a15e664ed5379e321be5de1c9b60000000000000000000000000000000000000000000000000000000000000000",
        "nonce": "0x38",
        "chainId": "0x4e454152"
      },
      "additionalContracts": [],
      "isFixedGasLimit": false
    }
  ],
  "receipts": [],
  "libraries": [],
  "pending": [],
  "returns": {},
  "timestamp": 1756179271617,
  "chain": 1313161554,
  "commit": "982fb8c"
}