{
  "transactions": [
    {
      "hash": null,
      "transactionType": "CALL",
      "contractName": null,
      "contractAddress": "0x3ad4dc2319394bb4be99a0e4ae2abf7bcebd648e",
      "function": "setExecutorOptions(uint32,bytes)",
      "arguments": [
        "30168",
        "0x0100210100000000000000000000000000030d40000000000000000000000000002dc6c0"
      ],
      "transaction": {
        "from": "0xb0e1650a9760e0f383174af042091fc544b8356f",
        "to": "0x3ad4dc2319394bb4be99a0e4ae2abf7bcebd648e",
        "gas": "0x1f32f",
        "value": "0x0",
        "input": "0x5135db4600000000000000000000000000000000000000000000000000000000000075d8000000000000000000000000000000000000000000000000000000000000004000000000000000000000000000000000000000000000000000000000000000240100210100000000000000000000000000030d40000000000000000000000000002dc6c000000000000000000000000000000000000000000000000000000000",
        "nonce": "0x149",
        "chainId": "0x1"
      },
      "additionalContracts": [],
      "isFixedGasLimit": false
    }
  ],
  "receipts": [],
  "libraries": [],
  "pending": [],
  "returns": {},
  "timestamp": 1760989185121,
  "chain": 1,
  "commit": "65ffb7b"
}