{
  "transactions": [
    {
      "hash": "0x389e1b1fa31035deae8b0b1ae39eca7c003d7224e9f92a1abbcda420968021c5",
      "transactionType": "CALL",
      "contractName": null,
      "contractAddress": "0xfeec000000000000000000000000000000000000",
      "function": "setUserToken(address)",
      "arguments": [
        "0x20C0000000000000000000000000000000000000"
      ],
      "transaction": {
        "from": "0x45dce8e4f2dc005a5f28206a46cb034697eeda8e",
        "to": "0xfeec000000000000000000000000000000000000",
        "gas": "0x8b82",
        "value": "0x0",
        "input": "0xe789744400000000000000000000000020c0000000000000000000000000000000000000",
        "nonce": "0xbc",
        "chainId": "0x1079",
        "feeToken": null,
        "calls": [],
        "keyType": null,
        "keyData": null
      },
      "additionalContracts": [],
      "isFixedGasLimit": false
    },
    {
      "hash": "0x89c913153819b98465a59e993516b218d06327e8d87bc3c57d1b3fe1c546663e",
      "transactionType": "CALL",
      "contractName": null,
      "contractAddress": "0x741f0d8bde14140f62107fc60a0ee122b37d4630",
      "function": "approveToken(address,address,uint256)",
      "arguments": [
        "0x20C000000000000000000000CFD2e14f4Cdf1380",
        "0x458edF815687e48354909A1a848f2528e1655764",
        "250000"
      ],
      "transaction": {
        "from": "0x45dce8e4f2dc005a5f28206a46cb034697eeda8e",
        "to": "0x741f0d8bde14140f62107fc60a0ee122b37d4630",
        "gas": "0xc771",
        "value": "0x0",
        "input": "0xda3e339700000000000000000000000020c000000000000000000000cfd2e14f4cdf1380000000000000000000000000458edf815687e48354909a1a848f2528e1655764000000000000000000000000000000000000000000000000000000000003d090",
        "nonce": "0xbd",
        "chainId": "0x1079",
        "feeToken": null,
        "calls": [],
        "keyType": null,
        "keyData": null
      },
      "additionalContracts": [],
      "isFixedGasLimit": false
    },
    {
      "hash": "0x5b3790e00b53416a8381dbaa6b7188f165cd61fea905c43c4915cbcd735a03f2",
      "transactionType": "CALL",
      "contractName": null,
      "contractAddress": "0x20c0000000000000000000000000000000000000",
      "function": "approve(address,uint256)",
      "arguments": [
        "0x741F0d8Bde14140f62107FC60A0EE122B37D4630",
        "24993"
      ],
      "transaction": {
        "from": "0x45dce8e4f2dc005a5f28206a46cb034697eeda8e",
        "to": "0x20c0000000000000000000000000000000000000",
        "gas": "0x848a",
        "value": "0x0",
        "input": "0x095ea7b3000000000000000000000000741f0d8bde14140f62107fc60a0ee122b37d463000000000000000000000000000000000000000000000000000000000000061a1",
        "nonce": "0xbe",
        "chainId": "0x1079",
        "feeToken": null,
        "calls": [],
        "keyType": null,
        "keyData": null
      },
      "additionalContracts": [],
      "isFixedGasLimit": false
    },
    {
      "hash": "0xd8f51064a04f2fd71f0520b6d6c6662b108dacfcf5175a43c7b4434e8cf1a652",
      "transactionType": "CALL",
      "contractName": null,
      "contractAddress": "0x741f0d8bde14140f62107fc60a0ee122b37d4630",
      "function": "batchBridgeWithTIP20FeeFromWallet((uint32,bytes32,uint256,uint256,bytes,bytes,bytes)[],address[],address[])",
      "arguments": [
        "[(30255, 0x000000000000000000000000741f0d8bde14140f62107fc60a0ee122b37d4630, 250000, 0, 0x, 0x, 0x)]",
        "[0x458edF815687e48354909A1a848f2528e1655764]",
        "[0x741F0d8Bde14140f62107FC60A0EE122B37D4630]"
      ],
      "transaction": {
        "from": "0x45dce8e4f2dc005a5f28206a46cb034697eeda8e",
        "to": "0x741f0d8bde14140f62107fc60a0ee122b37d4630",
        "gas": "0x3aaa5b",
        "value": "0x0",
        "input": "0xddfe224e000000000000000000000000000000000000000000000000000000000000006000000000000000000000000000000000000000000000000000000000000001e0000000000000000000000000000000000000000000000000000000000000022000000000000000000000000000000000000000000000000000000000000000010000000000000000000000000000000000000000000000000000000000000020000000000000000000000000000000000000000000000000000000000000762f000000000000000000000000741f0d8bde14140f62107fc60a0ee122b37d4630000000000000000000000000000000000000000000000000000000000003d090000000000000000000000000000000000000000000000000000000000000000000000000000000000000000000000000000000000000000000000000000000e0000000000000000000000000000000000000000000000000000000000000010000000000000000000000000000000000000000000000000000000000000001200000000000000000000000000000000000000000000000000000000000000000000000000000000000000000000000000000000000000000000000000000000000000000000000000000000000000000000000000000000000000000000000000000000000000000000000000000000000000000000000000000000000000001000000000000000000000000458edf815687e48354909a1a848f2528e16557640000000000000000000000000000000000000000000000000000000000000001000000000000000000000000741f0d8bde14140f62107fc60a0ee122b37d4630",
        "nonce": "0xbf",
        "chainId": "0x1079",
        "feeToken": null,
        "calls": [],
        "keyType": null,
        "keyData": null
      },
      "additionalContracts": [],
      "isFixedGasLimit": false
    }
  ],
  "receipts": [
    {
      "type": "0x2",
      "status": "0x1",
      "cumulativeGasUsed": "0x6228",
      "logs": [
        {
          "address": "0xfeec000000000000000000000000000000000000",
          "topics": [
            "0xabc7758d4ca817ce0d125eb731121a1304c36077b791253be835b95472368856",
            "0x00000000000000000000000045dce8e4f2dc005a5f28206a46cb034697eeda8e",
            "0x00000000000000000000000020c0000000000000000000000000000000000000"
          ],
          "data": "0x",
          "blockHash": "0xcfad98d729630326dbec1725c4c21b4d92399de5eff0424175583ab06f3d377f",
          "blockNumber": "0x58d89c",
          "blockTimestamp": "0x6998e0fa",
          "transactionHash": "0x389e1b1fa31035deae8b0b1ae39eca7c003d7224e9f92a1abbcda420968021c5",
          "transactionIndex": "0x0",
          "logIndex": "0x0",
          "removed": false
        },
        {
          "address": "0x20c0000000000000000000000000000000000000",
          "topics": [
            "0xddf252ad1be2c89b69c2b068fc378daa952ba7f163c4a11628f55a4df523b3ef",
            "0x00000000000000000000000045dce8e4f2dc005a5f28206a46cb034697eeda8e",
            "0x000000000000000000000000feec000000000000000000000000000000000000"
          ],
          "data": "0x00000000000000000000000000000000000000000000000000000000000001f7",
          "blockHash": "0xcfad98d729630326dbec1725c4c21b4d92399de5eff0424175583ab06f3d377f",
          "blockNumber": "0x58d89c",
          "blockTimestamp": "0x6998e0fa",
          "transactionHash": "0x389e1b1fa31035deae8b0b1ae39eca7c003d7224e9f92a1abbcda420968021c5",
          "transactionIndex": "0x0",
          "logIndex": "0x1",
          "removed": false
        }
      ],
      "logsBloom": "0x00000000000000000000000200000000000000000000000000000000000000000000040000000000000000000100000000000000000000000000000000000000000004000000000000000008000000000000000000000000000000000400000000000000000000000080000000000000000000000000000000000010100000000000000000000000000000000020000000000000800000000000000000000000000020000000000000000000000400000000000000000000000000040000000000000002000000000000000000000000001000000080000000000000000000000000000000000000000100000000800002000800000000000000000000000000",
      "transactionHash": "0x389e1b1fa31035deae8b0b1ae39eca7c003d7224e9f92a1abbcda420968021c5",
      "transactionIndex": "0x0",
      "blockHash": "0xcfad98d729630326dbec1725c4c21b4d92399de5eff0424175583ab06f3d377f",
      "blockNumber": "0x58d89c",
      "gasUsed": "0x6228",
      "effectiveGasPrice": "0x4a817c801",
      "from": "0x45dce8e4f2dc005a5f28206a46cb034697eeda8e",
      "to": "0xfeec000000000000000000000000000000000000",
      "contractAddress": null,
      "feeToken": "0x20c0000000000000000000000000000000000000",
      "feePayer": "0x45dce8e4f2dc005a5f28206a46cb034697eeda8e"
    },
    {
      "type": "0x2",
      "status": "0x1",
      "cumulativeGasUsed": "0x97fb",
      "logs": [
        {
          "address": "0x20c000000000000000000000cfd2e14f4cdf1380",
          "topics": [
            "0x8c5be1e5ebec7d5bd14f71427d1e84f3dd0314c0f7b2291e5b200ac8c7c3b925",
            "0x000000000000000000000000741f0d8bde14140f62107fc60a0ee122b37d4630",
            "0x000000000000000000000000458edf815687e48354909a1a848f2528e1655764"
          ],
          "data": "0x000000000000000000000000000000000000000000000000000000000003d090",
          "blockHash": "0xc955890b6e4cc0ccafddd2549718daac206c12b2d97fec81a8e651e7e67e88d3",
          "blockNumber": "0x58d8a0",
          "blockTimestamp": "0x6998e0fc",
          "transactionHash": "0x89c913153819b98465a59e993516b218d06327e8d87bc3c57d1b3fe1c546663e",
          "transactionIndex": "0x0",
          "logIndex": "0x0",
          "removed": false
        },
        {
          "address": "0x20c0000000000000000000000000000000000000",
          "topics": [
            "0xddf252ad1be2c89b69c2b068fc378daa952ba7f163c4a11628f55a4df523b3ef",
            "0x00000000000000000000000045dce8e4f2dc005a5f28206a46cb034697eeda8e",
            "0x000000000000000000000000feec000000000000000000000000000000000000"
          ],
          "data": "0x000000000000000000000000000000000000000000000000000000000000030b",
          "blockHash": "0xc955890b6e4cc0ccafddd2549718daac206c12b2d97fec81a8e651e7e67e88d3",
          "blockNumber": "0x58d8a0",
          "blockTimestamp": "0x6998e0fc",
          "transactionHash": "0x89c913153819b98465a59e993516b218d06327e8d87bc3c57d1b3fe1c546663e",
          "transactionIndex": "0x0",
          "logIndex": "0x1",
          "removed": false
        }
      ],
      "logsBloom": "0x00000000000000000000000200000040000000000000000000000000000000000000000000000000000100000100000000000100000000000000002000200000000004000000000000000008000000000000000000000000000000000400000000000000000000000000000000000000000000000000000000000010000000000000000040000000000000000020000000000000800000000000000001000000020020000000001000000000000000008000000000000000000000000000000000000002000000000000000000000000001000000000000000000000000000000010000000000000000000000000800000000000000000000000000000001000",
      "transactionHash": "0x89c913153819b98465a59e993516b218d06327e8d87bc3c57d1b3fe1c546663e",
      "transactionIndex": "0x0",
      "blockHash": "0xc955890b6e4cc0ccafddd2549718daac206c12b2d97fec81a8e651e7e67e88d3",
      "blockNumber": "0x58d8a0",
      "gasUsed": "0x97fb",
      "effectiveGasPrice": "0x4a817c801",
      "from": "0x45dce8e4f2dc005a5f28206a46cb034697eeda8e",
      "to": "0x741f0d8bde14140f62107fc60a0ee122b37d4630",
      "contractAddress": null,
      "feeToken": "0x20c0000000000000000000000000000000000000",
      "feePayer": "0x45dce8e4f2dc005a5f28206a46cb034697eeda8e"
    },
    {
      "type": "0x2",
      "status": "0x1",
      "cumulativeGasUsed": "0x649e",
      "logs": [
        {
          "address": "0x20c0000000000000000000000000000000000000",
          "topics": [
            "0x8c5be1e5ebec7d5bd14f71427d1e84f3dd0314c0f7b2291e5b200ac8c7c3b925",
            "0x00000000000000000000000045dce8e4f2dc005a5f28206a46cb034697eeda8e",
            "0x000000000000000000000000741f0d8bde14140f62107fc60a0ee122b37d4630"
          ],
          "data": "0x00000000000000000000000000000000000000000000000000000000000061a1",
          "blockHash": "0x56646fc30a9c30d472dfbde429e6f170d1699fbe5609c2a6778bbaafdcad5f1f",
          "blockNumber": "0x58d8a4",
          "blockTimestamp": "0x6998e0fe",
          "transactionHash": "0x5b3790e00b53416a8381dbaa6b7188f165cd61fea905c43c4915cbcd735a03f2",
          "transactionIndex": "0x0",
          "logIndex": "0x0",
          "removed": false
        },
        {
          "address": "0x20c0000000000000000000000000000000000000",
          "topics": [
            "0xddf252ad1be2c89b69c2b068fc378daa952ba7f163c4a11628f55a4df523b3ef",
            "0x00000000000000000000000045dce8e4f2dc005a5f28206a46cb034697eeda8e",
            "0x000000000000000000000000feec000000000000000000000000000000000000"
          ],
          "data": "0x0000000000000000000000000000000000000000000000000000000000000204",
          "blockHash": "0x56646fc30a9c30d472dfbde429e6f170d1699fbe5609c2a6778bbaafdcad5f1f",
          "blockNumber": "0x58d8a4",
          "blockTimestamp": "0x6998e0fe",
          "transactionHash": "0x5b3790e00b53416a8381dbaa6b7188f165cd61fea905c43c4915cbcd735a03f2",
          "transactionIndex": "0x0",
          "logIndex": "0x1",
          "removed": false
        }
      ],
      "logsBloom": "0x00000000000000000000000200000040000000000000000000000000000000000000000000000000000000000100000000000100000000000000000000200000000004000000000000000008000000000000000000000000000000000400000000000000000000000000000000000000000000000000000000000010000000000000000000000000000000000020000000000000800000000000000000000000020020000000001000000000000000000000000000000000000000000000000000000002000000000000000000000000001000000000000000000000000000000010000000000000000000000000800000000000000000000000000000000000",
      "transactionHash": "0x5b3790e00b53416a8381dbaa6b7188f165cd61fea905c43c4915cbcd735a03f2",
      "transactionIndex": "0x0",
      "blockHash": "0x56646fc30a9c30d472dfbde429e6f170d1699fbe5609c2a6778bbaafdcad5f1f",
      "blockNumber": "0x58d8a4",
      "gasUsed": "0x649e",
      "effectiveGasPrice": "0x4a817c801",
      "from": "0x45dce8e4f2dc005a5f28206a46cb034697eeda8e",
      "to": "0x20c0000000000000000000000000000000000000",
      "contractAddress": null,
      "feeToken": "0x20c0000000000000000000000000000000000000",
      "feePayer": "0x45dce8e4f2dc005a5f28206a46cb034697eeda8e"
    },
    {
      "type": "0x2",
      "status": "0x1",
      "cumulativeGasUsed": "0x2a745a",
      "logs": [
        {
          "address": "0xfeec000000000000000000000000000000000000",
          "topics": [
            "0xabc7758d4ca817ce0d125eb731121a1304c36077b791253be835b95472368856",
            "0x000000000000000000000000741f0d8bde14140f62107fc60a0ee122b37d4630",
            "0x00000000000000000000000020c0000000000000000000000000000000000000"
          ],
          "data": "0x",
          "blockHash": "0x0f085eab58c88ee19f9ce3795e270d4939339e50b8ca151409c22590dd9dcf65",
          "blockNumber": "0x58d8a9",
          "blockTimestamp": "0x6998e101",
          "transactionHash": "0xd8f51064a04f2fd71f0520b6d6c6662b108dacfcf5175a43c7b4434e8cf1a652",
          "transactionIndex": "0x0",
          "logIndex": "0x0",
          "removed": false
        },
        {
          "address": "0x20c0000000000000000000000000000000000000",
          "topics": [
            "0xddf252ad1be2c89b69c2b068fc378daa952ba7f163c4a11628f55a4df523b3ef",
            "0x00000000000000000000000045dce8e4f2dc005a5f28206a46cb034697eeda8e",
            "0x000000000000000000000000741f0d8bde14140f62107fc60a0ee122b37d4630"
          ],
          "data": "0x00000000000000000000000000000000000000000000000000000000000061a1",
          "blockHash": "0x0f085eab58c88ee19f9ce3795e270d4939339e50b8ca151409c22590dd9dcf65",
          "blockNumber": "0x58d8a9",
          "blockTimestamp": "0x6998e101",
          "transactionHash": "0xd8f51064a04f2fd71f0520b6d6c6662b108dacfcf5175a43c7b4434e8cf1a652",
          "transactionIndex": "0x0",
          "logIndex": "0x1",
          "removed": false
        },
        {
          "address": "0x20c0000000000000000000000000000000000000",
          "topics": [
            "0x8c5be1e5ebec7d5bd14f71427d1e84f3dd0314c0f7b2291e5b200ac8c7c3b925",
            "0x000000000000000000000000741f0d8bde14140f62107fc60a0ee122b37d4630",
            "0x000000000000000000000000458edf815687e48354909a1a848f2528e1655764"
          ],
          "data": "0x00000000000000000000000000000000000000000000000000000000000061a1",
          "blockHash": "0x0f085eab58c88ee19f9ce3795e270d4939339e50b8ca151409c22590dd9dcf65",
          "blockNumber": "0x58d8a9",
          "blockTimestamp": "0x6998e101",
          "transactionHash": "0xd8f51064a04f2fd71f0520b6d6c6662b108dacfcf5175a43c7b4434e8cf1a652",
          "transactionIndex": "0x0",
          "logIndex": "0x2",
          "removed": false
        },
        {
          "address": "0x458edf815687e48354909a1a848f2528e1655764",
          "topics": [
            "0x603e191ccb1fad1c0004c9c1f37101358f84c3cf059031e9ec9b0c17cad34188",
            "0x000000000000000000000000000000000000000000000000000000000000762f"
          ],
          "data": "0x0000000000000000000000000000000000000000000000000000000000000000000000000000000000000000000000000000000000000000000000000003d090",
          "blockHash": "0x0f085eab58c88ee19f9ce3795e270d4939339e50b8ca151409c22590dd9dcf65",
          "blockNumber": "0x58d8a9",
          "blockTimestamp": "0x6998e101",
          "transactionHash": "0xd8f51064a04f2fd71f0520b6d6c6662b108dacfcf5175a43c7b4434e8cf1a652",
          "transactionIndex": "0x0",
          "logIndex": "0x3",
          "removed": false
        },
        {
          "address": "0x458edf815687e48354909a1a848f2528e1655764",
          "topics": [
            "0xd2ff7607bbad14e866630d67da40c9a9cedd964cce5ce4c3dc4176133954ef98"
          ],
          "data": "0x0000000000000000000000000000000000000000000000000000000000000000000000000000000000000000000000000000000000000000000000000003d090",
          "blockHash": "0x0f085eab58c88ee19f9ce3795e270d4939339e50b8ca151409c22590dd9dcf65",
          "blockNumber": "0x58d8a9",
          "blockTimestamp": "0x6998e101",
          "transactionHash": "0xd8f51064a04f2fd71f0520b6d6c6662b108dacfcf5175a43c7b4434e8cf1a652",
          "transactionIndex": "0x0",
          "logIndex": "0x4",
          "removed": false
        },
        {
          "address": "0x20c000000000000000000000cfd2e14f4cdf1380",
          "topics": [
            "0xddf252ad1be2c89b69c2b068fc378daa952ba7f163c4a11628f55a4df523b3ef",
            "0x000000000000000000000000741f0d8bde14140f62107fc60a0ee122b37d4630",
            "0x000000000000000000000000458edf815687e48354909a1a848f2528e1655764"
          ],
          "data": "0x000000000000000000000000000000000000000000000000000000000003d090",
          "blockHash": "0x0f085eab58c88ee19f9ce3795e270d4939339e50b8ca151409c22590dd9dcf65",
          "blockNumber": "0x58d8a9",
          "blockTimestamp": "0x6998e101",
          "transactionHash": "0xd8f51064a04f2fd71f0520b6d6c6662b108dacfcf5175a43c7b4434e8cf1a652",
          "transactionIndex": "0x0",
          "logIndex": "0x5",
          "removed": false
        },
        {
          "address": "0x20c000000000000000000000cfd2e14f4cdf1380",
          "topics": [
            "0xddf252ad1be2c89b69c2b068fc378daa952ba7f163c4a11628f55a4df523b3ef",
            "0x000000000000000000000000458edf815687e48354909a1a848f2528e1655764",
            "0x0000000000000000000000000000000000000000000000000000000000000000"
          ],
          "data": "0x000000000000000000000000000000000000000000000000000000000003d090",
          "blockHash": "0x0f085eab58c88ee19f9ce3795e270d4939339e50b8ca151409c22590dd9dcf65",
          "blockNumber": "0x58d8a9",
          "blockTimestamp": "0x6998e101",
          "transactionHash": "0xd8f51064a04f2fd71f0520b6d6c6662b108dacfcf5175a43c7b4434e8cf1a652",
          "transactionIndex": "0x0",
          "logIndex": "0x6",
          "removed": false
        },
        {
          "address": "0x20c000000000000000000000cfd2e14f4cdf1380",
          "topics": [
            "0xcc16f5dbb4873280815c1ee09dbd06736cffcc184412cf7a71a0fdb75d397ca5",
            "0x000000000000000000000000458edf815687e48354909a1a848f2528e1655764"
          ],
          "data": "0x000000000000000000000000000000000000000000000000000000000003d090",
          "blockHash": "0x0f085eab58c88ee19f9ce3795e270d4939339e50b8ca151409c22590dd9dcf65",
          "blockNumber": "0x58d8a9",
          "blockTimestamp": "0x6998e101",
          "transactionHash": "0xd8f51064a04f2fd71f0520b6d6c6662b108dacfcf5175a43c7b4434e8cf1a652",
          "transactionIndex": "0x0",
          "logIndex": "0x7",
          "removed": false
        },
        {
          "address": "0x20c0000000000000000000000000000000000000",
          "topics": [
            "0xddf252ad1be2c89b69c2b068fc378daa952ba7f163c4a11628f55a4df523b3ef",
            "0x000000000000000000000000741f0d8bde14140f62107fc60a0ee122b37d4630",
            "0x000000000000000000000000458edf815687e48354909a1a848f2528e1655764"
          ],
          "data": "0x00000000000000000000000000000000000000000000000000000000000061a1",
          "blockHash": "0x0f085eab58c88ee19f9ce3795e270d4939339e50b8ca151409c22590dd9dcf65",
          "blockNumber": "0x58d8a9",
          "blockTimestamp": "0x6998e101",
          "transactionHash": "0xd8f51064a04f2fd71f0520b6d6c6662b108dacfcf5175a43c7b4434e8cf1a652",
          "transactionIndex": "0x0",
          "logIndex": "0x8",
          "removed": false
        },
        {
          "address": "0x20c0000000000000000000000000000000000000",
          "topics": [
            "0x8c5be1e5ebec7d5bd14f71427d1e84f3dd0314c0f7b2291e5b200ac8c7c3b925",
            "0x000000000000000000000000458edf815687e48354909a1a848f2528e1655764",
            "0x0000000000000000000000000ceb237e109ee22374a567c6b09f373c73fa4cbb"
          ],
          "data": "0x00000000000000000000000000000000000000000000000000000000000061a1",
          "blockHash": "0x0f085eab58c88ee19f9ce3795e270d4939339e50b8ca151409c22590dd9dcf65",
          "blockNumber": "0x58d8a9",
          "blockTimestamp": "0x6998e101",
          "transactionHash": "0xd8f51064a04f2fd71f0520b6d6c6662b108dacfcf5175a43c7b4434e8cf1a652",
          "transactionIndex": "0x0",
          "logIndex": "0x9",
          "removed": false
        },
        {
          "address": "0x20c0000000000000000000000000000000000000",
          "topics": [
            "0xddf252ad1be2c89b69c2b068fc378daa952ba7f163c4a11628f55a4df523b3ef",
            "0x000000000000000000000000458edf815687e48354909a1a848f2528e1655764",
            "0x0000000000000000000000000ceb237e109ee22374a567c6b09f373c73fa4cbb"
          ],
          "data": "0x00000000000000000000000000000000000000000000000000000000000061a1",
          "blockHash": "0x0f085eab58c88ee19f9ce3795e270d4939339e50b8ca151409c22590dd9dcf65",
          "blockNumber": "0x58d8a9",
          "blockTimestamp": "0x6998e101",
          "transactionHash": "0xd8f51064a04f2fd71f0520b6d6c6662b108dacfcf5175a43c7b4434e8cf1a652",
          "transactionIndex": "0x0",
          "logIndex": "0xa",
          "removed": false
        },
        {
          "address": "0x0ceb237e109ee22374a567c6b09f373c73fa4cbb",
          "topics": [
            "0xddf252ad1be2c89b69c2b068fc378daa952ba7f163c4a11628f55a4df523b3ef",
            "0x0000000000000000000000000000000000000000000000000000000000000000",
            "0x00000000000000000000000020bb7c2e2f4e5ca2b4c57060d1ae2615245dcc9c"
          ],
          "data": "0x00000000000000000000000000000000000000000000000000000000000061a1",
          "blockHash": "0x0f085eab58c88ee19f9ce3795e270d4939339e50b8ca151409c22590dd9dcf65",
          "blockNumber": "0x58d8a9",
          "blockTimestamp": "0x6998e101",
          "transactionHash": "0xd8f51064a04f2fd71f0520b6d6c6662b108dacfcf5175a43c7b4434e8cf1a652",
          "transactionIndex": "0x0",
          "logIndex": "0xb",
          "removed": false
        },
        {
          "address": "0x0ceb237e109ee22374a567c6b09f373c73fa4cbb",
          "topics": [
            "0x8ed59ebee7004468a5666f7566d43343b5917817e35765800064b665b66d070f",
            "0x00000000000000000000000020c0000000000000000000000000000000000000",
            "0x000000000000000000000000458edf815687e48354909a1a848f2528e1655764",
            "0x00000000000000000000000020bb7c2e2f4e5ca2b4c57060d1ae2615245dcc9c"
          ],
          "data": "0x00000000000000000000000000000000000000000000000000000000000061a1",
          "blockHash": "0x0f085eab58c88ee19f9ce3795e270d4939339e50b8ca151409c22590dd9dcf65",
          "blockNumber": "0x58d8a9",
          "blockTimestamp": "0x6998e101",
          "transactionHash": "0xd8f51064a04f2fd71f0520b6d6c6662b108dacfcf5175a43c7b4434e8cf1a652",
          "transactionIndex": "0x0",
          "logIndex": "0xc",
          "removed": false
        },
        {
          "address": "0x572863d9247e52026e0892d9cd2e519b41edb73c",
          "topics": [
            "0x61ed099e74a97a1d7f8bb0952a88ca8b7b8ebd00c126ea04671f92a81213318a"
          ],
          "data": "0x000000000000000000000000f851abca1d0fd1df8eaba6de466a102996b7d7b20000000000000000000000000000000000000000000000000000000000004fb3",
          "blockHash": "0x0f085eab58c88ee19f9ce3795e270d4939339e50b8ca151409c22590dd9dcf65",
          "blockNumber": "0x58d8a9",
          "blockTimestamp": "0x6998e101",
          "transactionHash": "0xd8f51064a04f2fd71f0520b6d6c6662b108dacfcf5175a43c7b4434e8cf1a652",
          "transactionIndex": "0x0",
          "logIndex": "0xd",
          "removed": false
        },
        {
          "address": "0x572863d9247e52026e0892d9cd2e519b41edb73c",
          "topics": [
            "0x07ea52d82345d6e838192107d8fd7123d9c2ec8e916cd0aad13fd2b60db24644"
          ],
          "data": "0x000000000000000000000000000000000000000000000000000000000000006000000000000000000000000000000000000000000000000000000000000000e00000000000000000000000000000000000000000000000000000000000000100000000000000000000000000000000000000000000000000000000000000000300000000000000000000000076faff60799021b301b45dc1bbede53f261f996100000000000000000000000097faa2a9c9bf8b4082b175a5b894ce6bac6697a8000000000000000000000000f5771acc42f3321d7193748fa0f656470bf737f20000000000000000000000000000000000000000000000000000000000000000000000000000000000000000000000000000000000000000000000000000000300000000000000000000000000000000000000000000000000000000000005fa00000000000000000000000000000000000000000000000000000000000005fa00000000000000000000000000000000000000000000000000000000000005fa",
          "blockHash": "0x0f085eab58c88ee19f9ce3795e270d4939339e50b8ca151409c22590dd9dcf65",
          "blockNumber": "0x58d8a9",
          "blockTimestamp": "0x6998e101",
          "transactionHash": "0xd8f51064a04f2fd71f0520b6d6c6662b108dacfcf5175a43c7b4434e8cf1a652",
          "transactionIndex": "0x0",
          "logIndex": "0xe",
          "removed": false
        },
        {
          "address": "0x20bb7c2e2f4e5ca2b4c57060d1ae2615245dcc9c",
          "topics": [
            "0x1ab700d4ced0c005b164c0f789fd09fcbb0156d4c2041b8a3bfbcd961cd1567f"
          ],
          "data": "0x00000000000000000000000000000000000000000000000000000000000000600000000000000000000000000000000000000000000000000000000000000120000000000000000000000000572863d9247e52026e0892d9cd2e519b41edb73c0000000000000000000000000000000000000000000000000000000000000099010000000000000001000076ca000000000000000000000000458edf815687e48354909a1a848f2528e16557640000762f000000000000000000000000458edf815687e48354909a1a848f2528e165576427d33b545ba3ab61074cad386ed94092b3014c140108f8643be0c6c0cc2550cb000000000000000000000000741f0d8bde14140f62107fc60a0ee122b37d4630000000000003d09000000000000000000000000000000000000000000000000000000000000000000000000000001600030100110100000000000000000000000000030d4000000000000000000000",
          "blockHash": "0x0f085eab58c88ee19f9ce3795e270d4939339e50b8ca151409c22590dd9dcf65",
          "blockNumber": "0x58d8a9",
          "blockTimestamp": "0x6998e101",
          "transactionHash": "0xd8f51064a04f2fd71f0520b6d6c6662b108dacfcf5175a43c7b4434e8cf1a652",
          "transactionIndex": "0x0",
          "logIndex": "0xf",
          "removed": false
        },
        {
          "address": "0x0ceb237e109ee22374a567c6b09f373c73fa4cbb",
          "topics": [
            "0xddf252ad1be2c89b69c2b068fc378daa952ba7f163c4a11628f55a4df523b3ef",
            "0x00000000000000000000000020bb7c2e2f4e5ca2b4c57060d1ae2615245dcc9c",
            "0x000000000000000000000000572863d9247e52026e0892d9cd2e519b41edb73c"
          ],
          "data": "0x00000000000000000000000000000000000000000000000000000000000061a1",
          "blockHash": "0x0f085eab58c88ee19f9ce3795e270d4939339e50b8ca151409c22590dd9dcf65",
          "blockNumber": "0x58d8a9",
          "blockTimestamp": "0x6998e101",
          "transactionHash": "0xd8f51064a04f2fd71f0520b6d6c6662b108dacfcf5175a43c7b4434e8cf1a652",
          "transactionIndex": "0x0",
          "logIndex": "0x10",
          "removed": false
        },
        {
          "address": "0x458edf815687e48354909a1a848f2528e1655764",
          "topics": [
            "0x85496b760a4b7f8d66384b9df21b381f5d1b1e79f229a47aaf4c232edc2fe59a",
            "0x27d33b545ba3ab61074cad386ed94092b3014c140108f8643be0c6c0cc2550cb",
            "0x000000000000000000000000741f0d8bde14140f62107fc60a0ee122b37d4630"
          ],
          "data": "0x000000000000000000000000000000000000000000000000000000000000762f000000000000000000000000000000000000000000000000000000000003d090000000000000000000000000000000000000000000000000000000000003d090",
          "blockHash": "0x0f085eab58c88ee19f9ce3795e270d4939339e50b8ca151409c22590dd9dcf65",
          "blockNumber": "0x58d8a9",
          "blockTimestamp": "0x6998e101",
          "transactionHash": "0xd8f51064a04f2fd71f0520b6d6c6662b108dacfcf5175a43c7b4434e8cf1a652",
          "transactionIndex": "0x0",
          "logIndex": "0x11",
          "removed": false
        },
        {
          "address": "0x20c0000000000000000000000000000000000000",
          "topics": [
            "0xddf252ad1be2c89b69c2b068fc378daa952ba7f163c4a11628f55a4df523b3ef",
            "0x00000000000000000000000045dce8e4f2dc005a5f28206a46cb034697eeda8e",
            "0x000000000000000000000000feec000000000000000000000000000000000000"
          ],
          "data": "0x000000000000000000000000000000000000000000000000000000000000d95e",
          "blockHash": "0x0f085eab58c88ee19f9ce3795e270d4939339e50b8ca151409c22590dd9dcf65",
          "blockNumber": "0x58d8a9",
          "blockTimestamp": "0x6998e101",
          "transactionHash": "0xd8f51064a04f2fd71f0520b6d6c6662b108dacfcf5175a43c7b4434e8cf1a652",
          "transactionIndex": "0x0",
          "logIndex": "0x12",
          "removed": false
        }
      ],
      "logsBloom": "0x0000000000000000002000020000004000000400000100101200000000000000000004002000000000010000010000000008010000000000000000200020000000000600000000000000000801100000000000000000000000000000040000000000000002000400c0800000000008000800040000400000000000101100000000000000400008000020000800200008000000808000002000000000413000000200240080808010001000000004001080000000004000000004c0040000000000000002000008000000000080080000001000000080000000000000010020020010040000041000080100000000802002000800008800000001000000001000",
      "transactionHash": "0xd8f51064a04f2fd71f0520b6d6c6662b108dacfcf5175a43c7b4434e8cf1a652",
      "transactionIndex": "0x0",
      "blockHash": "0x0f085eab58c88ee19f9ce3795e270d4939339e50b8ca151409c22590dd9dcf65",
      "blockNumber": "0x58d8a9",
      "gasUsed": "0x2a745a",
      "effectiveGasPrice": "0x4a817c801",
      "from": "0x45dce8e4f2dc005a5f28206a46cb034697eeda8e",
      "to": "0x741f0d8bde14140f62107fc60a0ee122b37d4630",
      "contractAddress": null,
      "feeToken": "0x20c0000000000000000000000000000000000000",
      "feePayer": "0x45dce8e4f2dc005a5f28206a46cb034697eeda8e"
    }
  ],
  "libraries": [],
  "pending": [],
  "returns": {},
  "timestamp": 1771626754235,
  "chain": 4217,
  "commit": "08af8e5"
}