{
  "transactions": [
    {
      "hash": "0x575b096a0428ab561fcb2446e4a1308fb83231fbd31012120884af72f03bf8ad",
      "transactionType": "CALL",
      "contractName": null,
      "contractAddress": "0x6f475642a6e85809b1c36fa62763669b1b48dd5b",
      "function": "setConfig(address,address,(uint32,uint32,bytes)[])",
      "arguments": [
        "0x90581eCa9469D8D7F5D3B60f4715027aDFCf7927",
        "0xe1844c5D63a9543023008D332Bd3d2e6f1FE1043",
        "[(30255, 2, 0x0000000000000000000000000000000000000000000000000000000000000020000000000000000000000000000000000000000000000000000000000000000000000000000000000000000000000000000000000000000000000000000000030000000000000000000000000000000000000000000000000000000000000000000000000000000000000000000000000000000000000000000000000000000000000000000000000000000000000000000000000000000000000000000000c0000000000000000000000000000000000000000000000000000000000000014000000000000000000000000000000000000000000000000000000000000000030000000000000000000000000a5a808dc5f9280b26ebe11b356d200e34a48517000000000000000000000000282b3386571f7f794450d5789911a9804fa346b4000000000000000000000000d4ce45957fbcb88b868ad2c759c7db9bc2741e560000000000000000000000000000000000000000000000000000000000000000)]"
      ],
      "transaction": {
        "from": "0x0990be6db8c785fbbf9ded8baec612a10cae814b",
        "to": "0x6f475642a6e85809b1c36fa62763669b1b48dd5b",
        "gas": "0x39f54",
        "value": "0x0",
        "input": "0x6dbd9f9000000000000000000000000090581eca9469d8d7f5d3b60f4715027adfcf7927000000000000000000000000e1844c5d63a9543023008d332bd3d2e6f1fe1043000000000000000000000000000000000000000000000000000000000000006000000000000000000000000000000000000000000000000000000000000000010000000000000000000000000000000000000000000000000000000000000020000000000000000000000000000000000000000000000000000000000000762f0000000000000000000000000000000000000000000000000000000000000002000000000000000000000000000000000000000000000000000000000000006000000000000000000000000000000000000000000000000000000000000001800000000000000000000000000000000000000000000000000000000000000020000000000000000000000000000000000000000000000000000000000000000000000000000000000000000000000000000000000000000000000000000000030000000000000000000000000000000000000000000000000000000000000000000000000000000000000000000000000000000000000000000000000000000000000000000000000000000000000000000000000000000000000000000000c0000000000000000000000000000000000000000000000000000000000000014000000000000000000000000000000000000000000000000000000000000000030000000000000000000000000a5a808dc5f9280b26ebe11b356d200e34a48517000000000000000000000000282b3386571f7f794450d5789911a9804fa346b4000000000000000000000000d4ce45957fbcb88b868ad2c759c7db9bc2741e560000000000000000000000000000000000000000000000000000000000000000",
        "nonce": "0x2c",
        "chainId": "0x2611"
      },
      "additionalContracts": [],
      "isFixedGasLimit": false
    },
    {
      "hash": "0x51e6d73289307a8966799c6c62239c9d86b1e0a2be6702781d857ea4d480b0d2",
      "transactionType": "CALL",
      "contractName": null,
      "contractAddress": "0x43edd7f3831b08fe70b7555ddd373c8bf65a9050",
      "function": "setDelegate(address)",
      "arguments": [
        "0x7d99C7737751b044DF4fA10aeEFA31532dd11DBE"
      ],
      "transaction": {
        "from": "0x0990be6db8c785fbbf9ded8baec612a10cae814b",
        "to": "0x43edd7f3831b08fe70b7555ddd373c8bf65a9050",
        "gas": "0xea99",
        "value": "0x0",
        "input": "0xca5eb5e10000000000000000000000007d99c7737751b044df4fa10aeefa31532dd11dbe",
        "nonce": "0x2d",
        "chainId": "0x2611"
      },
      "additionalContracts": [],
      "isFixedGasLimit": false
    },
    {
      "hash": "0xb10783e8d574f35defbb02c8d3223c644a85cee0517b78be9f9cb2c8c1777897",
      "transactionType": "CALL",
      "contractName": null,
      "contractAddress": "0x43edd7f3831b08fe70b7555ddd373c8bf65a9050",
      "function": "transferOwnership(address)",
      "arguments": [
        "0x7d99C7737751b044DF4fA10aeEFA31532dd11DBE"
      ],
      "transaction": {
        "from": "0x0990be6db8c785fbbf9ded8baec612a10cae814b",
        "to": "0x43edd7f3831b08fe70b7555ddd373c8bf65a9050",
        "gas": "0xc1df",
        "value": "0x0",
        "input": "0xf2fde38b0000000000000000000000007d99c7737751b044df4fa10aeefa31532dd11dbe",
        "nonce": "0x2e",
        "chainId": "0x2611"
      },
      "additionalContracts": [],
      "isFixedGasLimit": false
    },
    {
      "hash": "0xa07d3f63c221354e0983733d8f964a616b30d9fb91b4f4a19a098f208c16b79e",
      "transactionType": "CALL",
      "contractName": null,
      "contractAddress": "0x90581eca9469d8d7f5d3b60f4715027adfcf7927",
      "function": "setDelegate(address)",
      "arguments": [
        "0x7d99C7737751b044DF4fA10aeEFA31532dd11DBE"
      ],
      "transaction": {
        "from": "0x0990be6db8c785fbbf9ded8baec612a10cae814b",
        "to": "0x90581eca9469d8d7f5d3b60f4715027adfcf7927",
        "gas": "0xea99",
        "value": "0x0",
        "input": "0xca5eb5e10000000000000000000000007d99c7737751b044df4fa10aeefa31532dd11dbe",
        "nonce": "0x2f",
        "chainId": "0x2611"
      },
      "additionalContracts": [],
      "isFixedGasLimit": false
    },
    {
      "hash": "0x7544636708a654c007f33939a1ea956c72afa42d90b285c54349866028aa7593",
      "transactionType": "CALL",
      "contractName": null,
      "contractAddress": "0x90581eca9469d8d7f5d3b60f4715027adfcf7927",
      "function": "transferOwnership(address)",
      "arguments": [
        "0x7d99C7737751b044DF4fA10aeEFA31532dd11DBE"
      ],
      "transaction": {
        "from": "0x0990be6db8c785fbbf9ded8baec612a10cae814b",
        "to": "0x90581eca9469d8d7f5d3b60f4715027adfcf7927",
        "gas": "0xc1df",
        "value": "0x0",
        "input": "0xf2fde38b0000000000000000000000007d99c7737751b044df4fa10aeefa31532dd11dbe",
        "nonce": "0x30",
        "chainId": "0x2611"
      },
      "additionalContracts": [],
      "isFixedGasLimit": false
    },
    {
      "hash": "0x5e042b07f62dd2bc67e8600aa78050cefd4b81486a0e51734321be85cc2924dd",
      "transactionType": "CALL",
      "contractName": null,
      "contractAddress": "0x223a681fc5c5522c85c96157c0efa18cd6c5405c",
      "function": "transferOwnership(address)",
      "arguments": [
        "0x7d99C7737751b044DF4fA10aeEFA31532dd11DBE"
      ],
      "transaction": {
        "from": "0x0990be6db8c785fbbf9ded8baec612a10cae814b",
        "to": "0x223a681fc5c5522c85c96157c0efa18cd6c5405c",
        "gas": "0x9a4d",
        "value": "0x0",
        "input": "0xf2fde38b0000000000000000000000007d99c7737751b044df4fa10aeefa31532dd11dbe",
        "nonce": "0x31",
        "chainId": "0x2611"
      },
      "additionalContracts": [],
      "isFixedGasLimit": false
    }
  ],
  "receipts": [
    {
      "status": "0x1",
      "cumulativeGasUsed": "0xb381f6",
      "logs": [
        {
          "address": "0xe1844c5d63a9543023008d332bd3d2e6f1fe1043",
          "topics": [
            "0x82118522aa536ac0e96cc5c689407ae42b89d592aa133890a01f1509842f5081"
          ],
          "data": "0x00000000000000000000000090581eca9469d8d7f5d3b60f4715027adfcf7927000000000000000000000000000000000000000000000000000000000000762f0000000000000000000000000000000000000000000000000000000000000060000000000000000000000000000000000000000000000000000000000000000000000000000000000000000000000000000000000000000000000000000000030000000000000000000000000000000000000000000000000000000000000000000000000000000000000000000000000000000000000000000000000000000000000000000000000000000000000000000000000000000000000000000000c0000000000000000000000000000000000000000000000000000000000000014000000000000000000000000000000000000000000000000000000000000000030000000000000000000000000a5a808dc5f9280b26ebe11b356d200e34a48517000000000000000000000000282b3386571f7f794450d5789911a9804fa346b4000000000000000000000000d4ce45957fbcb88b868ad2c759c7db9bc2741e560000000000000000000000000000000000000000000000000000000000000000",
          "blockHash": "0x65bc62dc436097b006fcf88a0ca1af6896e33253022f1265c7c51eb456890a71",
          "blockNumber": "0x2b7d3c",
          "blockTimestamp": "0x68e419da",
          "transactionHash": "0x575b096a0428ab561fcb2446e4a1308fb83231fbd31012120884af72f03bf8ad",
          "transactionIndex": "0x10",
          "logIndex": "0x19",
          "removed": false
        }
      ],
      "logsBloom": "0x00000000000000000000000000000000020000000000000000000000000000000000000000000000000000000000000000000000000000000000000000000000000000000000000000000000000000000000000000000000002000000000000000000000000000000000000000000000000000000000000000000000000000000000000000000000000000000000000000000000000000000000000000000000000000000000000000000002000000000000000000000000000000000000000000000000000000000000000000000000000000008000000000000000000000000000000000000002000000000000000000000000000000000000000000000010",
      "type": "0x2",
      "transactionHash": "0x575b096a0428ab561fcb2446e4a1308fb83231fbd31012120884af72f03bf8ad",
      "transactionIndex": "0x10",
      "blockHash": "0x65bc62dc436097b006fcf88a0ca1af6896e33253022f1265c7c51eb456890a71",
      "blockNumber": "0x2b7d3c",
      "gasUsed": "0x27a13",
      "effectiveGasPrice": "0x7cb",
      "from": "0x0990be6db8c785fbbf9ded8baec612a10cae814b",
      "to": "0x6f475642a6e85809b1c36fa62763669b1b48dd5b",
      "contractAddress": null
    },
    {
      "status": "0x1",
      "cumulativeGasUsed": "0xb4225f",
      "logs": [
        {
          "address": "0x6f475642a6e85809b1c36fa62763669b1b48dd5b",
          "topics": [
            "0x6ee10e9ed4d6ce9742703a498707862f4b00f1396a87195eb93267b3d7983981"
          ],
          "data": "0x00000000000000000000000043edd7f3831b08fe70b7555ddd373c8bf65a90500000000000000000000000007d99c7737751b044df4fa10aeefa31532dd11dbe",
          "blockHash": "0x65bc62dc436097b006fcf88a0ca1af6896e33253022f1265c7c51eb456890a71",
          "blockNumber": "0x2b7d3c",
          "blockTimestamp": "0x68e419da",
          "transactionHash": "0x51e6d73289307a8966799c6c62239c9d86b1e0a2be6702781d857ea4d480b0d2",
          "transactionIndex": "0x11",
          "logIndex": "0x1a",
          "removed": false
        }
      ],
      "logsBloom": "0x00000000000000000000000000000000000000000000000000800000000000000000000000000000000000000000000000000002000000000000000000000000000000000000000000000000000000000140000000000000000000000000000000000000000000000000000000000000000000000000000000000000000000000000000000000000000000000000000000000000000000000000000000000000000000000000000000000000000000000000000000000000000000000000000400000000000000000000000000000000000000000000000000000000000000004000000000000000000000000000000000000000000000000000000000000000",
      "type": "0x2",
      "transactionHash": "0x51e6d73289307a8966799c6c62239c9d86b1e0a2be6702781d857ea4d480b0d2",
      "transactionIndex": "0x11",
      "blockHash": "0x65bc62dc436097b006fcf88a0ca1af6896e33253022f1265c7c51eb456890a71",
      "blockNumber": "0x2b7d3c",
      "gasUsed": "0xa069",
      "effectiveGasPrice": "0x7cb",
      "from": "0x0990be6db8c785fbbf9ded8baec612a10cae814b",
      "to": "0x43edd7f3831b08fe70b7555ddd373c8bf65a9050",
      "contractAddress": null
    },
    {
      "status": "0x1",
      "cumulativeGasUsed": "0xb4aebc",
      "logs": [
        {
          "address": "0x43edd7f3831b08fe70b7555ddd373c8bf65a9050",
          "topics": [
            "0x8be0079c531659141344cd1fd0a4f28419497f9722a3daafe3b4186f6b6457e0",
            "0x0000000000000000000000000990be6db8c785fbbf9ded8baec612a10cae814b",
            "0x0000000000000000000000007d99c7737751b044df4fa10aeefa31532dd11dbe"
          ],
          "data": "0x",
          "blockHash": "0x65bc62dc436097b006fcf88a0ca1af6896e33253022f1265c7c51eb456890a71",
          "blockNumber": "0x2b7d3c",
          "blockTimestamp": "0x68e419da",
          "transactionHash": "0xb10783e8d574f35defbb02c8d3223c644a85cee0517b78be9f9cb2c8c1777897",
          "transactionIndex": "0x12",
          "logIndex": "0x1b",
          "removed": false
        }
      ],
      "logsBloom": "0x00000000000000000000000000000000000000002000000000800000000000000000000000080000000000000000000000000000000000000000000000000000000000000000000000000000400000000001000000000000000000000000000000000000000000000000000000000000000000000000000000000000000000400000000000000000000000000000000000000000000000000000000000000000000000000000000002000000000000000000000000000000000000000008000000000000000000000000000000000004000000000000000000000000000000000000000000000000000000040000000000000000000000000000400000080000",
      "type": "0x2",
      "transactionHash": "0xb10783e8d574f35defbb02c8d3223c644a85cee0517b78be9f9cb2c8c1777897",
      "transactionIndex": "0x12",
      "blockHash": "0x65bc62dc436097b006fcf88a0ca1af6896e33253022f1265c7c51eb456890a71",
      "blockNumber": "0x2b7d3c",
      "gasUsed": "0x8c5d",
      "effectiveGasPrice": "0x7cb",
      "from": "0x0990be6db8c785fbbf9ded8baec612a10cae814b",
      "to": "0x43edd7f3831b08fe70b7555ddd373c8bf65a9050",
      "contractAddress": null
    },
    {
      "status": "0x1",
      "cumulativeGasUsed": "0xb54f25",
      "logs": [
        {
          "address": "0x6f475642a6e85809b1c36fa62763669b1b48dd5b",
          "topics": [
            "0x6ee10e9ed4d6ce9742703a498707862f4b00f1396a87195eb93267b3d7983981"
          ],
          "data": "0x00000000000000000000000090581eca9469d8d7f5d3b60f4715027adfcf79270000000000000000000000007d99c7737751b044df4fa10aeefa31532dd11dbe",
          "blockHash": "0x65bc62dc436097b006fcf88a0ca1af6896e33253022f1265c7c51eb456890a71",
          "blockNumber": "0x2b7d3c",
          "blockTimestamp": "0x68e419da",
          "transactionHash": "0xa07d3f63c221354e0983733d8f964a616b30d9fb91b4f4a19a098f208c16b79e",
          "transactionIndex": "0x13",
          "logIndex": "0x1c",
          "removed": false
        }
      ],
      "logsBloom": "0x00000000000000000000000000000000000000000000000000800000000000000000000000000000000000000000000000000002000000000000000000000000000000000000000000000000000000000140000000000000000000000000000000000000000000000000000000000000000000000000000000000000000000000000000000000000000000000000000000000000000000000000000000000000000000000000000000000000000000000000000000000000000000000000000400000000000000000000000000000000000000000000000000000000000000004000000000000000000000000000000000000000000000000000000000000000",
      "type": "0x2",
      "transactionHash": "0xa07d3f63c221354e0983733d8f964a616b30d9fb91b4f4a19a098f208c16b79e",
      "transactionIndex": "0x13",
      "blockHash": "0x65bc62dc436097b006fcf88a0ca1af6896e33253022f1265c7c51eb456890a71",
      "blockNumber": "0x2b7d3c",
      "gasUsed": "0xa069",
      "effectiveGasPrice": "0x7cb",
      "from": "0x0990be6db8c785fbbf9ded8baec612a10cae814b",
      "to": "0x90581eca9469d8d7f5d3b60f4715027adfcf7927",
      "contractAddress": null
    },
    {
      "status": "0x1",
      "cumulativeGasUsed": "0xb5db82",
      "logs": [
        {
          "address": "0x90581eca9469d8d7f5d3b60f4715027adfcf7927",
          "topics": [
            "0x8be0079c531659141344cd1fd0a4f28419497f9722a3daafe3b4186f6b6457e0",
            "0x0000000000000000000000000990be6db8c785fbbf9ded8baec612a10cae814b",
            "0x0000000000000000000000007d99c7737751b044df4fa10aeefa31532dd11dbe"
          ],
          "data": "0x",
          "blockHash": "0x65bc62dc436097b006fcf88a0ca1af6896e33253022f1265c7c51eb456890a71",
          "blockNumber": "0x2b7d3c",
          "blockTimestamp": "0x68e419da",
          "transactionHash": "0x7544636708a654c007f33939a1ea956c72afa42d90b285c54349866028aa7593",
          "transactionIndex": "0x14",
          "logIndex": "0x1d",
          "removed": false
        }
      ],
      "logsBloom": "0x00000000000000000000000000000000000000002000000000800000000000000000000000080000000000000000000000000000000000000000000000000000000000000000000000000000400000000001000000000000000000000000000000000000000000000000000000000000000000000000000000000000000000400000000000000004000010000000000000000000000000000000000000000000000000000000000000000000000000000000000000000000000000000008000000000000000000000000000000000004000000000000000000000000000000000000000000000000000000000000000000400000000000000000400000000000",
      "type": "0x2",
      "transactionHash": "0x7544636708a654c007f33939a1ea956c72afa42d90b285c54349866028aa7593",
      "transactionIndex": "0x14",
      "blockHash": "0x65bc62dc436097b006fcf88a0ca1af6896e33253022f1265c7c51eb456890a71",
      "blockNumber": "0x2b7d3c",
      "gasUsed": "0x8c5d",
      "effectiveGasPrice": "0x7cb",
      "from": "0x0990be6db8c785fbbf9ded8baec612a10cae814b",
      "to": "0x90581eca9469d8d7f5d3b60f4715027adfcf7927",
      "contractAddress": null
    },
    {
      "status": "0x1",
      "cumulativeGasUsed": "0xb64b39",
      "logs": [
        {
          "address": "0x223a681fc5c5522c85c96157c0efa18cd6c5405c",
          "topics": [
            "0x8be0079c531659141344cd1fd0a4f28419497f9722a3daafe3b4186f6b6457e0",
            "0x0000000000000000000000000990be6db8c785fbbf9ded8baec612a10cae814b",
            "0x0000000000000000000000007d99c7737751b044df4fa10aeefa31532dd11dbe"
          ],
          "data": "0x",
          "blockHash": "0x65bc62dc436097b006fcf88a0ca1af6896e33253022f1265c7c51eb456890a71",
          "blockNumber": "0x2b7d3c",
          "blockTimestamp": "0x68e419da",
          "transactionHash": "0x5e042b07f62dd2bc67e8600aa78050cefd4b81486a0e51734321be85cc2924dd",
          "transactionIndex": "0x15",
          "logIndex": "0x1e",
          "removed": false
        }
      ],
      "logsBloom": "0x00000000000000000000000000000000000000002000000000800000000000000000000000080000000000000000000000000000000000000000000000200000000000000000000000000000400000000001000000000000000000020000000000000000000000000000000000000000000000000000000000000000000000400000000000000000000000000000000000000000000000000000000000000000000000000000000000000000000000000000000000000000000000000008000000000000000000000000000000000004000000000000000000000000000000000000000000000000000000000000000200000000000000000000400000000000",
      "type": "0x2",
      "transactionHash": "0x5e042b07f62dd2bc67e8600aa78050cefd4b81486a0e51734321be85cc2924dd",
      "transactionIndex": "0x15",
      "blockHash": "0x65bc62dc436097b006fcf88a0ca1af6896e33253022f1265c7c51eb456890a71",
      "blockNumber": "0x2b7d3c",
      "gasUsed": "0x6fb7",
      "effectiveGasPrice": "0x7cb",
      "from": "0x0990be6db8c785fbbf9ded8baec612a10cae814b",
      "to": "0x223a681fc5c5522c85c96157c0efa18cd6c5405c",
      "contractAddress": null
    }
  ],
  "libraries": [],
  "pending": [],
  "returns": {},
  "timestamp": 1759779291283,
  "chain": 9745,
  "commit": "3ce69bd"
}