{
  "transactions": [
    {
      "hash": null,
      "transactionType": "CALL",
      "contractName": null,
      "contractAddress": "0x4a767e2ef83577225522ef8ed71056c6e3acb216",
      "function": "batchBridgeWithEthFeeFromWallet((uint32,bytes32,uint256,uint256,bytes,bytes,bytes)[],address[],address[])",
      "arguments": [
        "[(30101, 0x000000000000000000000000741f0d8bde14140f62107fc60a0ee122b37d4630, 500000000000000000, 0, 0x, 0x, 0x), (30243, 0x000000000000000000000000741f0d8bde14140f62107fc60a0ee122b37d4630, 500000000000000000, 0, 0x, 0x, 0x), (30184, 0x000000000000000000000000741f0d8bde14140f62107fc60a0ee122b37d4630, 500000000000000000, 0, 0x, 0x, 0x), (30260, 0x000000000000000000000000741f0d8bde14140f62107fc60a0ee122b37d4630, 500000000000000000, 0, 0x, 0x, 0x), (30280, 0x000000000000000000000000741f0d8bde14140f62107fc60a0ee122b37d4630, 500000000000000000, 0, 0x, 0x, 0x)]",
        "[0xA057D8D4Fc86a62801CE363C169b0A8d192F6cEE, 0xA057D8D4Fc86a62801CE363C169b0A8d192F6cEE, 0xA057D8D4Fc86a62801CE363C169b0A8d192F6cEE, 0xA057D8D4Fc86a62801CE363C169b0A8d192F6cEE, 0xA057D8D4Fc86a62801CE363C169b0A8d192F6cEE]",
        "[0x4a767e2ef83577225522Ef8Ed71056c6E3acB216, 0x4a767e2ef83577225522Ef8Ed71056c6E3acB216, 0x4a767e2ef83577225522Ef8Ed71056c6E3acB216, 0x4a767e2ef83577225522Ef8Ed71056c6E3acB216, 0x4a767e2ef83577225522Ef8Ed71056c6E3acB216]"
      ],
      "transaction": {
        "from": "0x45dce8e4f2dc005a5f28206a46cb034697eeda8e",
        "to": "0x4a767e2ef83577225522ef8ed71056c6e3acb216",
        "gas": "0x1e192b",
        "value": "0x1c4a2964689a0",
        "input": "0xb70d4241000000000000000000000000000000000000000000000000000000000000006000000000000000000000000000000000000000000000000000000000000007600000000000000000000000000000000000000000000000000000000000000820000000000000000000000000000000000000000000000000000000000000000500000000000000000000000000000000000000000000000000000000000000a000000000000000000000000000000000000000000000000000000000000001e00000000000000000000000000000000000000000000000000000000000000320000000000000000000000000000000000000000000000000000000000000046000000000000000000000000000000000000000000000000000000000000005a00000000000000000000000000000000000000000000000000000000000007595000000000000000000000000741f0d8bde14140f62107fc60a0ee122b37d463000000000000000000000000000000000000000000000000006f05b59d3b20000000000000000000000000000000000000000000000000000000000000000000000000000000000000000000000000000000000000000000000000000000000e0000000000000000000000000000000000000000000000000000000000000010000000000000000000000000000000000000000000000000000000000000001200000000000000000000000000000000000000000000000000000000000000000000000000000000000000000000000000000000000000000000000000000000000000000000000000000000000000000000000000000000000000000000000000000000000000000000000000000000000000000000000000000000000007623000000000000000000000000741f0d8bde14140f62107fc60a0ee122b37d463000000000000000000000000000000000000000000000000006f05b59d3b20000000000000000000000000000000000000000000000000000000000000000000000000000000000000000000000000000000000000000000000000000000000e00000000000000000000000000000000000000000000000000000000000000100000000000000000000000000000000000000000000000000000000000000012000000000000000000000000000000000000000000000000000000000000000000000000000000000000000000000000000000000000000000000000000000000000000000000000000000000000000000000000000000000000000000000000000000000000000000000000000000000000000000000000000000000000075e8000000000000000000000000741f0d8bde14140f62107fc60a0ee122b37d463000000000000000000000000000000000000000000000000006f05b59d3b20000000000000000000000000000000000000000000000000000000000000000000000000000000000000000000000000000000000000000000000000000000000e0000000000000000000000000000000000000000000000000000000000000010000000000000000000000000000000000000000000000000000000000000001200000000000000000000000000000000000000000000000000000000000000000000000000000000000000000000000000000000000000000000000000000000000000000000000000000000000000000000000000000000000000000000000000000000000000000000000000000000000000000000000000000000000007634000000000000000000000000741f0d8bde14140f62107fc60a0ee122b37d463000000000000000000000000000000000000000000000000006f05b59d3b20000000000000000000000000000000000000000000000000000000000000000000000000000000000000000000000000000000000000000000000000000000000e0000000000000000000000000000000000000000000000000000000000000010000000000000000000000000000000000000000000000000000000000000001200000000000000000000000000000000000000000000000000000000000000000000000000000000000000000000000000000000000000000000000000000000000000000000000000000000000000000000000000000000000000000000000000000000000000000000000000000000000000000000000000000000000007648000000000000000000000000741f0d8bde14140f62107fc60a0ee122b37d463000000000000000000000000000000000000000000000000006f05b59d3b20000000000000000000000000000000000000000000000000000000000000000000000000000000000000000000000000000000000000000000000000000000000e0000000000000000000000000000000000000000000000000000000000000010000000000000000000000000000000000000000000000000000000000000001200000000000000000000000000000000000000000000000000000000000000000000000000000000000000000000000000000000000000000000000000000000000000000000000000000000000000000000000000000000000000000000000000000000000000000000000000000000000000000000000000000000000000005000000000000000000000000a057d8d4fc86a62801ce363c169b0a8d192f6cee000000000000000000000000a057d8d4fc86a62801ce363c169b0a8d192f6cee000000000000000000000000a057d8d4fc86a62801ce363c169b0a8d192f6cee000000000000000000000000a057d8d4fc86a62801ce363c169b0a8d192f6cee000000000000000000000000a057d8d4fc86a62801ce363c169b0a8d192f6cee00000000000000000000000000000000000000000000000000000000000000050000000000000000000000004a767e2ef83577225522ef8ed71056c6e3acb2160000000000000000000000004a767e2ef83577225522ef8ed71056c6e3acb2160000000000000000000000004a767e2ef83577225522ef8ed71056c6e3acb2160000000000000000000000004a767e2ef83577225522ef8ed71056c6e3acb2160000000000000000000000004a767e2ef83577225522ef8ed71056c6e3acb216",
        "nonce": "0xa9",
        "chainId": "0x4e454152"
      },
      "additionalContracts": [],
      "isFixedGasLimit": false
    }
  ],
  "receipts": [],
  "libraries": [],
  "pending": [],
  "returns": {},
  "timestamp": 1757014152285,
  "chain": 1313161554,
  "commit": "2c9551f"
}