{
  "transactions": [
    {
      "hash": null,
      "transactionType": "CALL",
      "contractName": null,
      "contractAddress": "0x0768c16445b41137f98ab68ca545c0afd65a7513",
      "function": "setEnforcedOptions((uint32,uint16,bytes)[])",
      "arguments": [
        "[(40161, 1, 0x00030100110100000000000000000000000000030d40), (40161, 2, 0x0003010011010000000000000000000000000003d090)]"
      ],
      "transaction": {
        "from": "0x009ff4940727c274424c16999f9632223d820b0b",
        "to": "0x0768c16445b41137f98ab68ca545c0afd65a7513",
        "gas": "0x1c2cc",
        "value": "0x0",
        "input": "0xb98bd07000000000000000000000000000000000000000000000000000000000000000200000000000000000000000000000000000000000000000000000000000000002000000000000000000000000000000000000000000000000000000000000004000000000000000000000000000000000000000000000000000000000000000e00000000000000000000000000000000000000000000000000000000000009ce100000000000000000000000000000000000000000000000000000000000000010000000000000000000000000000000000000000000000000000000000000060000000000000000000000000000000000000000000000000000000000000001600030100110100000000000000000000000000030d40000000000000000000000000000000000000000000000000000000000000000000000000000000009ce10000000000000000000000000000000000000000000000000000000000000002000000000000000000000000000000000000000000000000000000000000006000000000000000000000000000000000000000000000000000000000000000160003010011010000000000000000000000000003d09000000000000000000000",
        "nonce": "0x10",
        "chainId": "0x66eee"
      },
      "additionalContracts": [],
      "isFixedGasLimit": false
    },
    {
      "hash": null,
      "transactionType": "CALL",
      "contractName": null,
      "contractAddress": "0x0768c16445b41137f98ab68ca545c0afd65a7513",
      "function": "setPeer(uint32,bytes32)",
      "arguments": [
        "40161",
        "0x00000000000000000000000029a5134d3b22f47ad52e0a22a63247363e9f35c2"
      ],
      "transaction": {
        "from": "0x009ff4940727c274424c16999f9632223d820b0b",
        "to": "0x0768c16445b41137f98ab68ca545c0afd65a7513",
        "gas": "0x11b6b",
        "value": "0x0",
        "input": "0x3400288b0000000000000000000000000000000000000000000000000000000000009ce100000000000000000000000029a5134d3b22f47ad52e0a22a63247363e9f35c2",
        "nonce": "0x11",
        "chainId": "0x66eee"
      },
      "additionalContracts": [],
      "isFixedGasLimit": false
    },
    {
      "hash": null,
      "transactionType": "CALL",
      "contractName": null,
      "contractAddress": "0x6edce65403992e310a62460808c4b910d972f10f",
      "function": "setConfig(address,address,(uint32,uint32,bytes)[])",
      "arguments": [
        "0x0768C16445B41137F98Ab68CA545C0afD65A7513",
        "0x75Db67CDab2824970131D5aa9CECfC9F69c69636",
        "[(40161, 2, 0x0000000000000000000000000000000000000000000000000000000000000020000000000000000000000000000000000000000000000000000000000000000000000000000000000000000000000000000000000000000000000000000000020000000000000000000000000000000000000000000000000000000000000000000000000000000000000000000000000000000000000000000000000000000000000000000000000000000000000000000000000000000000000000000000c00000000000000000000000000000000000000000000000000000000000000120000000000000000000000000000000000000000000000000000000000000000200000000000000000000000053f488e93b4f1b60e8e83aa374dbe1780a1ee8a80000000000000000000000005669628ce106599d88ff8019312c715b36c79c750000000000000000000000000000000000000000000000000000000000000000)]"
      ],
      "transaction": {
        "from": "0x009ff4940727c274424c16999f9632223d820b0b",
        "to": "0x6edce65403992e310a62460808c4b910d972f10f",
        "gas": "0x2cd3a",
        "value": "0x0",
        "input": "0x6dbd9f900000000000000000000000000768c16445b41137f98ab68ca545c0afd65a751300000000000000000000000075db67cdab2824970131d5aa9cecfc9f69c696360000000000000000000000000000000000000000000000000000000000000060000000000000000000000000000000000000000000000000000000000000000100000000000000000000000000000000000000000000000000000000000000200000000000000000000000000000000000000000000000000000000000009ce10000000000000000000000000000000000000000000000000000000000000002000000000000000000000000000000000000000000000000000000000000006000000000000000000000000000000000000000000000000000000000000001600000000000000000000000000000000000000000000000000000000000000020000000000000000000000000000000000000000000000000000000000000000000000000000000000000000000000000000000000000000000000000000000020000000000000000000000000000000000000000000000000000000000000000000000000000000000000000000000000000000000000000000000000000000000000000000000000000000000000000000000000000000000000000000000c00000000000000000000000000000000000000000000000000000000000000120000000000000000000000000000000000000000000000000000000000000000200000000000000000000000053f488e93b4f1b60e8e83aa374dbe1780a1ee8a80000000000000000000000005669628ce106599d88ff8019312c715b36c79c750000000000000000000000000000000000000000000000000000000000000000",
        "nonce": "0x12",
        "chainId": "0x66eee"
      },
      "additionalContracts": [],
      "isFixedGasLimit": false
    },
    {
      "hash": null,
      "transactionType": "CALL",
      "contractName": null,
      "contractAddress": "0x6edce65403992e310a62460808c4b910d972f10f",
      "function": "setConfig(address,address,(uint32,uint32,bytes)[])",
      "arguments": [
        "0x0768C16445B41137F98Ab68CA545C0afD65A7513",
        "0x4f7cd4DA19ABB31b0eC98b9066B9e857B1bf9C0E",
        "[(40161, 2, 0x0000000000000000000000000000000000000000000000000000000000000020000000000000000000000000000000000000000000000000000000000000000000000000000000000000000000000000000000000000000000000000000000020000000000000000000000000000000000000000000000000000000000000000000000000000000000000000000000000000000000000000000000000000000000000000000000000000000000000000000000000000000000000000000000c00000000000000000000000000000000000000000000000000000000000000120000000000000000000000000000000000000000000000000000000000000000200000000000000000000000053f488e93b4f1b60e8e83aa374dbe1780a1ee8a80000000000000000000000005669628ce106599d88ff8019312c715b36c79c750000000000000000000000000000000000000000000000000000000000000000)]"
      ],
      "transaction": {
        "from": "0x009ff4940727c274424c16999f9632223d820b0b",
        "to": "0x6edce65403992e310a62460808c4b910d972f10f",
        "gas": "0x2ce84",
        "value": "0x0",
        "input": "0x6dbd9f900000000000000000000000000768c16445b41137f98ab68ca545c0afd65a75130000000000000000000000004f7cd4da19abb31b0ec98b9066b9e857b1bf9c0e0000000000000000000000000000000000000000000000000000000000000060000000000000000000000000000000000000000000000000000000000000000100000000000000000000000000000000000000000000000000000000000000200000000000000000000000000000000000000000000000000000000000009ce10000000000000000000000000000000000000000000000000000000000000002000000000000000000000000000000000000000000000000000000000000006000000000000000000000000000000000000000000000000000000000000001600000000000000000000000000000000000000000000000000000000000000020000000000000000000000000000000000000000000000000000000000000000000000000000000000000000000000000000000000000000000000000000000020000000000000000000000000000000000000000000000000000000000000000000000000000000000000000000000000000000000000000000000000000000000000000000000000000000000000000000000000000000000000000000000c00000000000000000000000000000000000000000000000000000000000000120000000000000000000000000000000000000000000000000000000000000000200000000000000000000000053f488e93b4f1b60e8e83aa374dbe1780a1ee8a80000000000000000000000005669628ce106599d88ff8019312c715b36c79c750000000000000000000000000000000000000000000000000000000000000000",
        "nonce": "0x13",
        "chainId": "0x66eee"
      },
      "additionalContracts": [],
      "isFixedGasLimit": false
    },
    {
      "hash": null,
      "transactionType": "CALL",
      "contractName": null,
      "contractAddress": "0x6edce65403992e310a62460808c4b910d972f10f",
      "function": "setSendLibrary(address,uint32,address)",
      "arguments": [
        "0x0768C16445B41137F98Ab68CA545C0afD65A7513",
        "40161",
        "0x4f7cd4DA19ABB31b0eC98b9066B9e857B1bf9C0E"
      ],
      "transaction": {
        "from": "0x009ff4940727c274424c16999f9632223d820b0b",
        "to": "0x6edce65403992e310a62460808c4b910d972f10f",
        "gas": "0x12958",
        "value": "0x0",
        "input": "0x9535ff300000000000000000000000000768c16445b41137f98ab68ca545c0afd65a75130000000000000000000000000000000000000000000000000000000000009ce10000000000000000000000004f7cd4da19abb31b0ec98b9066b9e857b1bf9c0e",
        "nonce": "0x14",
        "chainId": "0x66eee"
      },
      "additionalContracts": [],
      "isFixedGasLimit": false
    },
    {
      "hash": null,
      "transactionType": "CALL",
      "contractName": null,
      "contractAddress": "0x6edce65403992e310a62460808c4b910d972f10f",
      "function": "setReceiveLibrary(address,uint32,address,uint256)",
      "arguments": [
        "0x0768C16445B41137F98Ab68CA545C0afD65A7513",
        "40161",
        "0x75Db67CDab2824970131D5aa9CECfC9F69c69636",
        "0"
      ],
      "transaction": {
        "from": "0x009ff4940727c274424c16999f9632223d820b0b",
        "to": "0x6edce65403992e310a62460808c4b910d972f10f",
        "gas": "0x14b60",
        "value": "0x0",
        "input": "0x6a14d7150000000000000000000000000768c16445b41137f98ab68ca545c0afd65a75130000000000000000000000000000000000000000000000000000000000009ce100000000000000000000000075db67cdab2824970131d5aa9cecfc9f69c696360000000000000000000000000000000000000000000000000000000000000000",
        "nonce": "0x15",
        "chainId": "0x66eee"
      },
      "additionalContracts": [],
      "isFixedGasLimit": false
    }
  ],
  "receipts": [],
  "libraries": [],
  "pending": [],
  "returns": {},
  "timestamp": 1745348259,
  "chain": 421614,
  "commit": "3236159"
}