{
  "transactions": [
    {
      "hash": "0x7ab3d58870147eaa1b1823f463a155c41d8ecef6196070e5619ed46a03d96d6d",
      "transactionType": "CALL",
      "contractName": "TransparentUpgradeableProxy",
      "contractAddress": "0x29a5134d3b22f47ad52e0a22a63247363e9f35c2",
      "function": null,
      "arguments": null,
      "transaction": {
        "from": "0x009ff4940727c274424c16999f9632223d820b0b",
        "to": "0x29a5134d3b22f47ad52e0a22a63247363e9f35c2",
        "gas": "0x11275",
        "value": "0x0",
        "input": "0xb98bd07000000000000000000000000000000000000000000000000000000000000000200000000000000000000000000000000000000000000000000000000000000002000000000000000000000000000000000000000000000000000000000000004000000000000000000000000000000000000000000000000000000000000000e00000000000000000000000000000000000000000000000000000000000009d2700000000000000000000000000000000000000000000000000000000000000010000000000000000000000000000000000000000000000000000000000000060000000000000000000000000000000000000000000000000000000000000001600030100110100000000000000000000000000030d40000000000000000000000000000000000000000000000000000000000000000000000000000000009d270000000000000000000000000000000000000000000000000000000000000002000000000000000000000000000000000000000000000000000000000000006000000000000000000000000000000000000000000000000000000000000000160003010011010000000000000000000000000003d09000000000000000000000",
        "nonce": "0x16",
        "chainId": "0xaa36a7"
      },
      "additionalContracts": [],
      "isFixedGasLimit": false
    },
    {
      "hash": "0x0bb8cc0a082b2f63b9ea50ba596f89afbd646d8e013e3870c76c840bcb2ac98f",
      "transactionType": "CALL",
      "contractName": "TransparentUpgradeableProxy",
      "contractAddress": "0x29a5134d3b22f47ad52e0a22a63247363e9f35c2",
      "function": null,
      "arguments": null,
      "transaction": {
        "from": "0x009ff4940727c274424c16999f9632223d820b0b",
        "to": "0x29a5134d3b22f47ad52e0a22a63247363e9f35c2",
        "gas": "0xc875",
        "value": "0x0",
        "input": "0x3400288b0000000000000000000000000000000000000000000000000000000000009d270000000000000000000000000768c16445b41137f98ab68ca545c0afd65a7513",
        "nonce": "0x17",
        "chainId": "0xaa36a7"
      },
      "additionalContracts": [],
      "isFixedGasLimit": false
    },
    {
      "hash": "0x9835bf98b2cf261fa639899a67961f60f3069f09d4549927758d06cb50a92f61",
      "transactionType": "CALL",
      "contractName": "EndpointV2",
      "contractAddress": "0x6edce65403992e310a62460808c4b910d972f10f",
      "function": "setConfig(address,address,(uint32,uint32,bytes)[])",
      "arguments": [
        "0x29a5134D3B22F47AD52e0A22A63247363e9F35c2",
        "0xdAf00F5eE2158dD58E0d3857851c432E34A3A851",
        "[(40231, 2, 0x0000000000000000000000000000000000000000000000000000000000000020000000000000000000000000000000000000000000000000000000000000000000000000000000000000000000000000000000000000000000000000000000020000000000000000000000000000000000000000000000000000000000000000000000000000000000000000000000000000000000000000000000000000000000000000000000000000000000000000000000000000000000000000000000c0000000000000000000000000000000000000000000000000000000000000012000000000000000000000000000000000000000000000000000000000000000020000000000000000000000008eebf8b423b73bfca51a1db4b7354aa0bfca91930000000000000000000000009dc10a8de79f1de5242c88baa313b500490d764e0000000000000000000000000000000000000000000000000000000000000000)]"
      ],
      "transaction": {
        "from": "0x009ff4940727c274424c16999f9632223d820b0b",
        "to": "0x6edce65403992e310a62460808c4b910d972f10f",
        "gas": "0x15e78",
        "value": "0x0",
        "input": "0x6dbd9f9000000000000000000000000029a5134d3b22f47ad52e0a22a63247363e9f35c2000000000000000000000000daf00f5ee2158dd58e0d3857851c432e34a3a8510000000000000000000000000000000000000000000000000000000000000060000000000000000000000000000000000000000000000000000000000000000100000000000000000000000000000000000000000000000000000000000000200000000000000000000000000000000000000000000000000000000000009d270000000000000000000000000000000000000000000000000000000000000002000000000000000000000000000000000000000000000000000000000000006000000000000000000000000000000000000000000000000000000000000001600000000000000000000000000000000000000000000000000000000000000020000000000000000000000000000000000000000000000000000000000000000000000000000000000000000000000000000000000000000000000000000000020000000000000000000000000000000000000000000000000000000000000000000000000000000000000000000000000000000000000000000000000000000000000000000000000000000000000000000000000000000000000000000000c0000000000000000000000000000000000000000000000000000000000000012000000000000000000000000000000000000000000000000000000000000000020000000000000000000000008eebf8b423b73bfca51a1db4b7354aa0bfca91930000000000000000000000009dc10a8de79f1de5242c88baa313b500490d764e0000000000000000000000000000000000000000000000000000000000000000",
        "nonce": "0x18",
        "chainId": "0xaa36a7"
      },
      "additionalContracts": [],
      "isFixedGasLimit": false
    },
    {
      "hash": "0x87a6bb3682975c8891d96c335e5f5944ace1d0e6a3a169d072e51edd21802e87",
      "transactionType": "CALL",
      "contractName": "EndpointV2",
      "contractAddress": "0x6edce65403992e310a62460808c4b910d972f10f",
      "function": "setConfig(address,address,(uint32,uint32,bytes)[])",
      "arguments": [
        "0x29a5134D3B22F47AD52e0A22A63247363e9F35c2",
        "0xcc1ae8Cf5D3904Cef3360A9532B477529b177cCE",
        "[(40231, 2, 0x0000000000000000000000000000000000000000000000000000000000000020000000000000000000000000000000000000000000000000000000000000000000000000000000000000000000000000000000000000000000000000000000020000000000000000000000000000000000000000000000000000000000000000000000000000000000000000000000000000000000000000000000000000000000000000000000000000000000000000000000000000000000000000000000c0000000000000000000000000000000000000000000000000000000000000012000000000000000000000000000000000000000000000000000000000000000020000000000000000000000008eebf8b423b73bfca51a1db4b7354aa0bfca91930000000000000000000000009dc10a8de79f1de5242c88baa313b500490d764e0000000000000000000000000000000000000000000000000000000000000000)]"
      ],
      "transaction": {
        "from": "0x009ff4940727c274424c16999f9632223d820b0b",
        "to": "0x6edce65403992e310a62460808c4b910d972f10f",
        "gas": "0x17488",
        "value": "0x0",
        "input": "0x6dbd9f9000000000000000000000000029a5134d3b22f47ad52e0a22a63247363e9f35c2000000000000000000000000cc1ae8cf5d3904cef3360a9532b477529b177cce0000000000000000000000000000000000000000000000000000000000000060000000000000000000000000000000000000000000000000000000000000000100000000000000000000000000000000000000000000000000000000000000200000000000000000000000000000000000000000000000000000000000009d270000000000000000000000000000000000000000000000000000000000000002000000000000000000000000000000000000000000000000000000000000006000000000000000000000000000000000000000000000000000000000000001600000000000000000000000000000000000000000000000000000000000000020000000000000000000000000000000000000000000000000000000000000000000000000000000000000000000000000000000000000000000000000000000020000000000000000000000000000000000000000000000000000000000000000000000000000000000000000000000000000000000000000000000000000000000000000000000000000000000000000000000000000000000000000000000c0000000000000000000000000000000000000000000000000000000000000012000000000000000000000000000000000000000000000000000000000000000020000000000000000000000008eebf8b423b73bfca51a1db4b7354aa0bfca91930000000000000000000000009dc10a8de79f1de5242c88baa313b500490d764e0000000000000000000000000000000000000000000000000000000000000000",
        "nonce": "0x19",
        "chainId": "0xaa36a7"
      },
      "additionalContracts": [],
      "isFixedGasLimit": false
    }
  ],
  "receipts": [
    {
      "status": "0x1",
      "cumulativeGasUsed": "0x1cdcc5d",
      "logs": [
        {
          "address": "0x29a5134d3b22f47ad52e0a22a63247363e9f35c2",
          "topics": [
            "0xbe4864a8e820971c0247f5992e2da559595f7bf076a21cb5928d443d2a13b674"
          ],
          "data": "0x00000000000000000000000000000000000000000000000000000000000000200000000000000000000000000000000000000000000000000000000000000002000000000000000000000000000000000000000000000000000000000000004000000000000000000000000000000000000000000000000000000000000000e00000000000000000000000000000000000000000000000000000000000009d2700000000000000000000000000000000000000000000000000000000000000010000000000000000000000000000000000000000000000000000000000000060000000000000000000000000000000000000000000000000000000000000001600030100110100000000000000000000000000030d40000000000000000000000000000000000000000000000000000000000000000000000000000000009d270000000000000000000000000000000000000000000000000000000000000002000000000000000000000000000000000000000000000000000000000000006000000000000000000000000000000000000000000000000000000000000000160003010011010000000000000000000000000003d09000000000000000000000",
          "blockHash": "0xdcaecce032ff701a517ad495a0f5197fe7cf755a287b971a5ad55f7d497bbe76",
          "blockNumber": "0x7cd7fd",
          "transactionHash": "0x7ab3d58870147eaa1b1823f463a155c41d8ecef6196070e5619ed46a03d96d6d",
          "transactionIndex": "0x71",
          "logIndex": "0x532",
          "removed": false
        }
      ],
      "logsBloom": "0x00000000000000000000000000000000000000000000000010000000000000000000000000000000000000000000000000000000000000000000400000000000000000000000000000000000000000000000000000000000000000000000080000000000000000000000000000000000000000000000000000000000000000000000000000000000000000000000000000000000000000000000000000080000000000000000000000000000000000000000000000000000000000000000000000000000000000000080000002000000000000000000000000000000000000000000000000000000000000000000000000000000000000000000000000000000",
      "type": "0x2",
      "transactionHash": "0x7ab3d58870147eaa1b1823f463a155c41d8ecef6196070e5619ed46a03d96d6d",
      "transactionIndex": "0x71",
      "blockHash": "0xdcaecce032ff701a517ad495a0f5197fe7cf755a287b971a5ad55f7d497bbe76",
      "blockNumber": "0x7cd7fd",
      "gasUsed": "0xbbaa",
      "effectiveGasPrice": "0xe6f6",
      "from": "0x009ff4940727c274424c16999f9632223d820b0b",
      "to": "0x29a5134d3b22f47ad52e0a22a63247363e9f35c2",
      "contractAddress": null
    },
    {
      "status": "0x1",
      "cumulativeGasUsed": "0x1ce556e",
      "logs": [
        {
          "address": "0x29a5134d3b22f47ad52e0a22a63247363e9f35c2",
          "topics": [
            "0x238399d427b947898edb290f5ff0f9109849b1c3ba196a42e35f00c50a54b98b"
          ],
          "data": "0x0000000000000000000000000000000000000000000000000000000000009d270000000000000000000000000768c16445b41137f98ab68ca545c0afd65a7513",
          "blockHash": "0xdcaecce032ff701a517ad495a0f5197fe7cf755a287b971a5ad55f7d497bbe76",
          "blockNumber": "0x7cd7fd",
          "transactionHash": "0x0bb8cc0a082b2f63b9ea50ba596f89afbd646d8e013e3870c76c840bcb2ac98f",
          "transactionIndex": "0x72",
          "logIndex": "0x533",
          "removed": false
        }
      ],
      "logsBloom": "0x00000000000000000000000000000000000000000000000010000000000000000000000000000000000000000000000000000000000000000800000000000000000000000000000000000000000000000000000000000000000000000000080000000000000000000000000000000000000000000000000000000000000000000000000000000000000000000000000000000000000000000000000000000000000000000000000000000000000000000000000000000000000002000000000000000000000000000080000000000000000000000000000000040000000000000000000000000000000000000000000000000000000000000000000000000000",
      "type": "0x2",
      "transactionHash": "0x0bb8cc0a082b2f63b9ea50ba596f89afbd646d8e013e3870c76c840bcb2ac98f",
      "transactionIndex": "0x72",
      "blockHash": "0xdcaecce032ff701a517ad495a0f5197fe7cf755a287b971a5ad55f7d497bbe76",
      "blockNumber": "0x7cd7fd",
      "gasUsed": "0x8911",
      "effectiveGasPrice": "0xe6f6",
      "from": "0x009ff4940727c274424c16999f9632223d820b0b",
      "to": "0x29a5134d3b22f47ad52e0a22a63247363e9f35c2",
      "contractAddress": null
    },
    {
      "status": "0x1",
      "cumulativeGasUsed": "0x1cf532b",
      "logs": [
        {
          "address": "0xdaf00f5ee2158dd58e0d3857851c432e34a3a851",
          "topics": [
            "0x82118522aa536ac0e96cc5c689407ae42b89d592aa133890a01f1509842f5081"
          ],
          "data": "0x00000000000000000000000029a5134d3b22f47ad52e0a22a63247363e9f35c20000000000000000000000000000000000000000000000000000000000009d270000000000000000000000000000000000000000000000000000000000000060000000000000000000000000000000000000000000000000000000000000000000000000000000000000000000000000000000000000000000000000000000020000000000000000000000000000000000000000000000000000000000000000000000000000000000000000000000000000000000000000000000000000000000000000000000000000000000000000000000000000000000000000000000c0000000000000000000000000000000000000000000000000000000000000012000000000000000000000000000000000000000000000000000000000000000020000000000000000000000008eebf8b423b73bfca51a1db4b7354aa0bfca91930000000000000000000000009dc10a8de79f1de5242c88baa313b500490d764e0000000000000000000000000000000000000000000000000000000000000000",
          "blockHash": "0xdcaecce032ff701a517ad495a0f5197fe7cf755a287b971a5ad55f7d497bbe76",
          "blockNumber": "0x7cd7fd",
          "transactionHash": "0x9835bf98b2cf261fa639899a67961f60f3069f09d4549927758d06cb50a92f61",
          "transactionIndex": "0x73",
          "logIndex": "0x534",
          "removed": false
        }
      ],
      "logsBloom": "0x00000000000000000000000000000000000000000000000000000000000000000000000000800000000000000000000000000000000000000000000000000000000000000000000000000000000000000000000000000000002000000000000000000000000000000000000000000000000000000000000000000000000000000000000000000000000000000000000000000000000000000000000000000000000000000000000000000002000000000000000000000000000000000000000000000000000000000000000000000000000000000000000000000000000000000000000000001000000000000000000000000000000000100000000000000010",
      "type": "0x2",
      "transactionHash": "0x9835bf98b2cf261fa639899a67961f60f3069f09d4549927758d06cb50a92f61",
      "transactionIndex": "0x73",
      "blockHash": "0xdcaecce032ff701a517ad495a0f5197fe7cf755a287b971a5ad55f7d497bbe76",
      "blockNumber": "0x7cd7fd",
      "gasUsed": "0xfdbd",
      "effectiveGasPrice": "0xe6f6",
      "from": "0x009ff4940727c274424c16999f9632223d820b0b",
      "to": "0x6edce65403992e310a62460808c4b910d972f10f",
      "contractAddress": null
    },
    {
      "status": "0x1",
      "cumulativeGasUsed": "0x1d051e4",
      "logs": [
        {
          "address": "0xcc1ae8cf5d3904cef3360a9532b477529b177cce",
          "topics": [
            "0x82118522aa536ac0e96cc5c689407ae42b89d592aa133890a01f1509842f5081"
          ],
          "data": "0x00000000000000000000000029a5134d3b22f47ad52e0a22a63247363e9f35c20000000000000000000000000000000000000000000000000000000000009d270000000000000000000000000000000000000000000000000000000000000060000000000000000000000000000000000000000000000000000000000000000000000000000000000000000000000000000000000000000000000000000000020000000000000000000000000000000000000000000000000000000000000000000000000000000000000000000000000000000000000000000000000000000000000000000000000000000000000000000000000000000000000000000000c0000000000000000000000000000000000000000000000000000000000000012000000000000000000000000000000000000000000000000000000000000000020000000000000000000000008eebf8b423b73bfca51a1db4b7354aa0bfca91930000000000000000000000009dc10a8de79f1de5242c88baa313b500490d764e0000000000000000000000000000000000000000000000000000000000000000",
          "blockHash": "0xdcaecce032ff701a517ad495a0f5197fe7cf755a287b971a5ad55f7d497bbe76",
          "blockNumber": "0x7cd7fd",
          "transactionHash": "0x87a6bb3682975c8891d96c335e5f5944ace1d0e6a3a169d072e51edd21802e87",
          "transactionIndex": "0x74",
          "logIndex": "0x535",
          "removed": false
        }
      ],
      "logsBloom": "0x00000000000000000000000000000000000000000000000000000000000100000000000000000000000000000000000000000000000000000000000000000000000000000000000000000000000000000000000000000000002000000000000000000000000000000000000000000000000000000000000000000000000000000000000000000000000000000000000000000000000000000000000000000000000000000000000000000002000000000000000000000000000000000000000000000000000000000000000000000000000000080000000000000000000000000000000000000000000000000000000000000000000000000000000000000030",
      "type": "0x2",
      "transactionHash": "0x87a6bb3682975c8891d96c335e5f5944ace1d0e6a3a169d072e51edd21802e87",
      "transactionIndex": "0x74",
      "blockHash": "0xdcaecce032ff701a517ad495a0f5197fe7cf755a287b971a5ad55f7d497bbe76",
      "blockNumber": "0x7cd7fd",
      "gasUsed": "0xfeb9",
      "effectiveGasPrice": "0xe6f6",
      "from": "0x009ff4940727c274424c16999f9632223d820b0b",
      "to": "0x6edce65403992e310a62460808c4b910d972f10f",
      "contractAddress": null
    }
  ],
  "libraries": [],
  "pending": [],
  "returns": {},
  "timestamp": 1745445314,
  "chain": 11155111,
  "commit": "de9cdcd"
}