{
  "transactions": [
    {
      "hash": "0x79e3c7f9b2158af3699153d4d702bde87b49403e84a3de8a554764304a97c996",
      "transactionType": "CALL",
      "contractName": null,
      "contractAddress": "0x29a5134d3b22f47ad52e0a22a63247363e9f35c2",
      "function": "setEnforcedOptions((uint32,uint16,bytes)[])",
      "arguments": [
        "[(40231, 1, 0x00030100110100000000000000000000000000030d40), (40231, 2, 0x0003010011010000000000000000000000000003d090)]"
      ],
      "transaction": {
        "from": "0x009ff4940727c274424c16999f9632223d820b0b",
        "to": "0x29a5134d3b22f47ad52e0a22a63247363e9f35c2",
        "gas": "0x11275",
        "value": "0x0",
        "input": "0xb98bd07000000000000000000000000000000000000000000000000000000000000000200000000000000000000000000000000000000000000000000000000000000002000000000000000000000000000000000000000000000000000000000000004000000000000000000000000000000000000000000000000000000000000000e00000000000000000000000000000000000000000000000000000000000009d2700000000000000000000000000000000000000000000000000000000000000010000000000000000000000000000000000000000000000000000000000000060000000000000000000000000000000000000000000000000000000000000001600030100110100000000000000000000000000030d40000000000000000000000000000000000000000000000000000000000000000000000000000000009d270000000000000000000000000000000000000000000000000000000000000002000000000000000000000000000000000000000000000000000000000000006000000000000000000000000000000000000000000000000000000000000000160003010011010000000000000000000000000003d09000000000000000000000",
        "nonce": "0x1d",
        "chainId": "0xaa36a7"
      },
      "additionalContracts": [],
      "isFixedGasLimit": false
    },
    {
      "hash": "0x04ac2372cce788c69969e0a2f37cef256bf069ecd1abadeb947f15f6dc25bcdb",
      "transactionType": "CALL",
      "contractName": null,
      "contractAddress": "0x29a5134d3b22f47ad52e0a22a63247363e9f35c2",
      "function": "setPeer(uint32,bytes32)",
      "arguments": [
        "40231",
        "0x0000000000000000000000000768c16445b41137f98ab68ca545c0afd65a7513"
      ],
      "transaction": {
        "from": "0x009ff4940727c274424c16999f9632223d820b0b",
        "to": "0x29a5134d3b22f47ad52e0a22a63247363e9f35c2",
        "gas": "0xc875",
        "value": "0x0",
        "input": "0x3400288b0000000000000000000000000000000000000000000000000000000000009d270000000000000000000000000768c16445b41137f98ab68ca545c0afd65a7513",
        "nonce": "0x1e",
        "chainId": "0xaa36a7"
      },
      "additionalContracts": [],
      "isFixedGasLimit": false
    },
    {
      "hash": "0x6f8365d1d61ea347a64f3e8a5f431bd2714e9ebc15a8eab3bad9cb9cf509303b",
      "transactionType": "CALL",
      "contractName": "EndpointV2",
      "contractAddress": "0x6edce65403992e310a62460808c4b910d972f10f",
      "function": "setConfig(address,address,(uint32,uint32,bytes)[])",
      "arguments": [
        "0x29a5134D3B22F47AD52e0A22A63247363e9F35c2",
        "0xdAf00F5eE2158dD58E0d3857851c432E34A3A851",
        "[(40231, 2, 0x0000000000000000000000000000000000000000000000000000000000000020000000000000000000000000000000000000000000000000000000000000000000000000000000000000000000000000000000000000000000000000000000020000000000000000000000000000000000000000000000000000000000000000000000000000000000000000000000000000000000000000000000000000000000000000000000000000000000000000000000000000000000000000000000c0000000000000000000000000000000000000000000000000000000000000012000000000000000000000000000000000000000000000000000000000000000020000000000000000000000004386167355cda5dbb434e6997fe38fe1f4822c120000000000000000000000008eebf8b423b73bfca51a1db4b7354aa0bfca91930000000000000000000000000000000000000000000000000000000000000000)]"
      ],
      "transaction": {
        "from": "0x009ff4940727c274424c16999f9632223d820b0b",
        "to": "0x6edce65403992e310a62460808c4b910d972f10f",
        "gas": "0x17329",
        "value": "0x0",
        "input": "0x6dbd9f9000000000000000000000000029a5134d3b22f47ad52e0a22a63247363e9f35c2000000000000000000000000daf00f5ee2158dd58e0d3857851c432e34a3a8510000000000000000000000000000000000000000000000000000000000000060000000000000000000000000000000000000000000000000000000000000000100000000000000000000000000000000000000000000000000000000000000200000000000000000000000000000000000000000000000000000000000009d270000000000000000000000000000000000000000000000000000000000000002000000000000000000000000000000000000000000000000000000000000006000000000000000000000000000000000000000000000000000000000000001600000000000000000000000000000000000000000000000000000000000000020000000000000000000000000000000000000000000000000000000000000000000000000000000000000000000000000000000000000000000000000000000020000000000000000000000000000000000000000000000000000000000000000000000000000000000000000000000000000000000000000000000000000000000000000000000000000000000000000000000000000000000000000000000c0000000000000000000000000000000000000000000000000000000000000012000000000000000000000000000000000000000000000000000000000000000020000000000000000000000004386167355cda5dbb434e6997fe38fe1f4822c120000000000000000000000008eebf8b423b73bfca51a1db4b7354aa0bfca91930000000000000000000000000000000000000000000000000000000000000000",
        "nonce": "0x1f",
        "chainId": "0xaa36a7"
      },
      "additionalContracts": [],
      "isFixedGasLimit": false
    },
    {
      "hash": "0xd454299fd4bdca485c853ec383f15c5546468c2bed0267082ade493813ceb14d",
      "transactionType": "CALL",
      "contractName": "EndpointV2",
      "contractAddress": "0x6edce65403992e310a62460808c4b910d972f10f",
      "function": "setConfig(address,address,(uint32,uint32,bytes)[])",
      "arguments": [
        "0x29a5134D3B22F47AD52e0A22A63247363e9F35c2",
        "0xcc1ae8Cf5D3904Cef3360A9532B477529b177cCE",
        "[(40231, 2, 0x0000000000000000000000000000000000000000000000000000000000000020000000000000000000000000000000000000000000000000000000000000000000000000000000000000000000000000000000000000000000000000000000020000000000000000000000000000000000000000000000000000000000000000000000000000000000000000000000000000000000000000000000000000000000000000000000000000000000000000000000000000000000000000000000c0000000000000000000000000000000000000000000000000000000000000012000000000000000000000000000000000000000000000000000000000000000020000000000000000000000004386167355cda5dbb434e6997fe38fe1f4822c120000000000000000000000008eebf8b423b73bfca51a1db4b7354aa0bfca91930000000000000000000000000000000000000000000000000000000000000000)]"
      ],
      "transaction": {
        "from": "0x009ff4940727c274424c16999f9632223d820b0b",
        "to": "0x6edce65403992e310a62460808c4b910d972f10f",
        "gas": "0x15fe6",
        "value": "0x0",
        "input": "0x6dbd9f9000000000000000000000000029a5134d3b22f47ad52e0a22a63247363e9f35c2000000000000000000000000cc1ae8cf5d3904cef3360a9532b477529b177cce0000000000000000000000000000000000000000000000000000000000000060000000000000000000000000000000000000000000000000000000000000000100000000000000000000000000000000000000000000000000000000000000200000000000000000000000000000000000000000000000000000000000009d270000000000000000000000000000000000000000000000000000000000000002000000000000000000000000000000000000000000000000000000000000006000000000000000000000000000000000000000000000000000000000000001600000000000000000000000000000000000000000000000000000000000000020000000000000000000000000000000000000000000000000000000000000000000000000000000000000000000000000000000000000000000000000000000020000000000000000000000000000000000000000000000000000000000000000000000000000000000000000000000000000000000000000000000000000000000000000000000000000000000000000000000000000000000000000000000c0000000000000000000000000000000000000000000000000000000000000012000000000000000000000000000000000000000000000000000000000000000020000000000000000000000004386167355cda5dbb434e6997fe38fe1f4822c120000000000000000000000008eebf8b423b73bfca51a1db4b7354aa0bfca91930000000000000000000000000000000000000000000000000000000000000000",
        "nonce": "0x20",
        "chainId": "0xaa36a7"
      },
      "additionalContracts": [],
      "isFixedGasLimit": false
    }
  ],
  "receipts": [
    {
      "status": "0x1",
      "cumulativeGasUsed": "0xf25c00",
      "logs": [
        {
          "address": "0x29a5134d3b22f47ad52e0a22a63247363e9f35c2",
          "topics": [
            "0xbe4864a8e820971c0247f5992e2da559595f7bf076a21cb5928d443d2a13b674"
          ],
          "data": "0x00000000000000000000000000000000000000000000000000000000000000200000000000000000000000000000000000000000000000000000000000000002000000000000000000000000000000000000000000000000000000000000004000000000000000000000000000000000000000000000000000000000000000e00000000000000000000000000000000000000000000000000000000000009d2700000000000000000000000000000000000000000000000000000000000000010000000000000000000000000000000000000000000000000000000000000060000000000000000000000000000000000000000000000000000000000000001600030100110100000000000000000000000000030d40000000000000000000000000000000000000000000000000000000000000000000000000000000009d270000000000000000000000000000000000000000000000000000000000000002000000000000000000000000000000000000000000000000000000000000006000000000000000000000000000000000000000000000000000000000000000160003010011010000000000000000000000000003d09000000000000000000000",
          "blockHash": "0xec7ccaad5d6559809b15242022d252715ba958821e0e57d95b610f3a5604bb1b",
          "blockNumber": "0x7cf33a",
          "transactionHash": "0x79e3c7f9b2158af3699153d4d702bde87b49403e84a3de8a554764304a97c996",
          "transactionIndex": "0x57",
          "logIndex": "0x47a",
          "removed": false
        }
      ],
      "logsBloom": "0x00000000000000000000000000000000000000000000000010000000000000000000000000000000000000000000000000000000000000000000400000000000000000000000000000000000000000000000000000000000000000000000080000000000000000000000000000000000000000000000000000000000000000000000000000000000000000000000000000000000000000000000000000080000000000000000000000000000000000000000000000000000000000000000000000000000000000000080000002000000000000000000000000000000000000000000000000000000000000000000000000000000000000000000000000000000",
      "type": "0x2",
      "transactionHash": "0x79e3c7f9b2158af3699153d4d702bde87b49403e84a3de8a554764304a97c996",
      "transactionIndex": "0x57",
      "blockHash": "0xec7ccaad5d6559809b15242022d252715ba958821e0e57d95b610f3a5604bb1b",
      "blockNumber": "0x7cf33a",
      "gasUsed": "0xbbaa",
      "effectiveGasPrice": "0x24362e0",
      "from": "0x009ff4940727c274424c16999f9632223d820b0b",
      "to": "0x29a5134d3b22f47ad52e0a22a63247363e9f35c2",
      "contractAddress": null
    },
    {
      "status": "0x1",
      "cumulativeGasUsed": "0xf2e511",
      "logs": [
        {
          "address": "0x29a5134d3b22f47ad52e0a22a63247363e9f35c2",
          "topics": [
            "0x238399d427b947898edb290f5ff0f9109849b1c3ba196a42e35f00c50a54b98b"
          ],
          "data": "0x0000000000000000000000000000000000000000000000000000000000009d270000000000000000000000000768c16445b41137f98ab68ca545c0afd65a7513",
          "blockHash": "0xec7ccaad5d6559809b15242022d252715ba958821e0e57d95b610f3a5604bb1b",
          "blockNumber": "0x7cf33a",
          "transactionHash": "0x04ac2372cce788c69969e0a2f37cef256bf069ecd1abadeb947f15f6dc25bcdb",
          "transactionIndex": "0x58",
          "logIndex": "0x47b",
          "removed": false
        }
      ],
      "logsBloom": "0x00000000000000000000000000000000000000000000000010000000000000000000000000000000000000000000000000000000000000000800000000000000000000000000000000000000000000000000000000000000000000000000080000000000000000000000000000000000000000000000000000000000000000000000000000000000000000000000000000000000000000000000000000000000000000000000000000000000000000000000000000000000000002000000000000000000000000000080000000000000000000000000000000040000000000000000000000000000000000000000000000000000000000000000000000000000",
      "type": "0x2",
      "transactionHash": "0x04ac2372cce788c69969e0a2f37cef256bf069ecd1abadeb947f15f6dc25bcdb",
      "transactionIndex": "0x58",
      "blockHash": "0xec7ccaad5d6559809b15242022d252715ba958821e0e57d95b610f3a5604bb1b",
      "blockNumber": "0x7cf33a",
      "gasUsed": "0x8911",
      "effectiveGasPrice": "0x24362e0",
      "from": "0x009ff4940727c274424c16999f9632223d820b0b",
      "to": "0x29a5134d3b22f47ad52e0a22a63247363e9f35c2",
      "contractAddress": null
    },
    {
      "status": "0x1",
      "cumulativeGasUsed": "0xf3e2da",
      "logs": [
        {
          "address": "0xdaf00f5ee2158dd58e0d3857851c432e34a3a851",
          "topics": [
            "0x82118522aa536ac0e96cc5c689407ae42b89d592aa133890a01f1509842f5081"
          ],
          "data": "0x00000000000000000000000029a5134d3b22f47ad52e0a22a63247363e9f35c20000000000000000000000000000000000000000000000000000000000009d270000000000000000000000000000000000000000000000000000000000000060000000000000000000000000000000000000000000000000000000000000000000000000000000000000000000000000000000000000000000000000000000020000000000000000000000000000000000000000000000000000000000000000000000000000000000000000000000000000000000000000000000000000000000000000000000000000000000000000000000000000000000000000000000c0000000000000000000000000000000000000000000000000000000000000012000000000000000000000000000000000000000000000000000000000000000020000000000000000000000004386167355cda5dbb434e6997fe38fe1f4822c120000000000000000000000008eebf8b423b73bfca51a1db4b7354aa0bfca91930000000000000000000000000000000000000000000000000000000000000000",
          "blockHash": "0xec7ccaad5d6559809b15242022d252715ba958821e0e57d95b610f3a5604bb1b",
          "blockNumber": "0x7cf33a",
          "transactionHash": "0x6f8365d1d61ea347a64f3e8a5f431bd2714e9ebc15a8eab3bad9cb9cf509303b",
          "transactionIndex": "0x59",
          "logIndex": "0x47c",
          "removed": false
        }
      ],
      "logsBloom": "0x00000000000000000000000000000000000000000000000000000000000000000000000000800000000000000000000000000000000000000000000000000000000000000000000000000000000000000000000000000000002000000000000000000000000000000000000000000000000000000000000000000000000000000000000000000000000000000000000000000000000000000000000000000000000000000000000000000002000000000000000000000000000000000000000000000000000000000000000000000000000000000000000000000000000000000000000000001000000000000000000000000000000000100000000000000010",
      "type": "0x2",
      "transactionHash": "0x6f8365d1d61ea347a64f3e8a5f431bd2714e9ebc15a8eab3bad9cb9cf509303b",
      "transactionIndex": "0x59",
      "blockHash": "0xec7ccaad5d6559809b15242022d252715ba958821e0e57d95b610f3a5604bb1b",
      "blockNumber": "0x7cf33a",
      "gasUsed": "0xfdc9",
      "effectiveGasPrice": "0x24362e0",
      "from": "0x009ff4940727c274424c16999f9632223d820b0b",
      "to": "0x6edce65403992e310a62460808c4b910d972f10f",
      "contractAddress": null
    },
    {
      "status": "0x1",
      "cumulativeGasUsed": "0xf4e19f",
      "logs": [
        {
          "address": "0xcc1ae8cf5d3904cef3360a9532b477529b177cce",
          "topics": [
            "0x82118522aa536ac0e96cc5c689407ae42b89d592aa133890a01f1509842f5081"
          ],
          "data": "0x00000000000000000000000029a5134d3b22f47ad52e0a22a63247363e9f35c20000000000000000000000000000000000000000000000000000000000009d270000000000000000000000000000000000000000000000000000000000000060000000000000000000000000000000000000000000000000000000000000000000000000000000000000000000000000000000000000000000000000000000020000000000000000000000000000000000000000000000000000000000000000000000000000000000000000000000000000000000000000000000000000000000000000000000000000000000000000000000000000000000000000000000c0000000000000000000000000000000000000000000000000000000000000012000000000000000000000000000000000000000000000000000000000000000020000000000000000000000004386167355cda5dbb434e6997fe38fe1f4822c120000000000000000000000008eebf8b423b73bfca51a1db4b7354aa0bfca91930000000000000000000000000000000000000000000000000000000000000000",
          "blockHash": "0xec7ccaad5d6559809b15242022d252715ba958821e0e57d95b610f3a5604bb1b",
          "blockNumber": "0x7cf33a",
          "transactionHash": "0xd454299fd4bdca485c853ec383f15c5546468c2bed0267082ade493813ceb14d",
          "transactionIndex": "0x5a",
          "logIndex": "0x47d",
          "removed": false
        }
      ],
      "logsBloom": "0x00000000000000000000000000000000000000000000000000000000000100000000000000000000000000000000000000000000000000000000000000000000000000000000000000000000000000000000000000000000002000000000000000000000000000000000000000000000000000000000000000000000000000000000000000000000000000000000000000000000000000000000000000000000000000000000000000000002000000000000000000000000000000000000000000000000000000000000000000000000000000080000000000000000000000000000000000000000000000000000000000000000000000000000000000000030",
      "type": "0x2",
      "transactionHash": "0xd454299fd4bdca485c853ec383f15c5546468c2bed0267082ade493813ceb14d",
      "transactionIndex": "0x5a",
      "blockHash": "0xec7ccaad5d6559809b15242022d252715ba958821e0e57d95b610f3a5604bb1b",
      "blockNumber": "0x7cf33a",
      "gasUsed": "0xfec5",
      "effectiveGasPrice": "0x24362e0",
      "from": "0x009ff4940727c274424c16999f9632223d820b0b",
      "to": "0x6edce65403992e310a62460808c4b910d972f10f",
      "contractAddress": null
    }
  ],
  "libraries": [],
  "pending": [],
  "returns": {},
  "timestamp": 1745533393,
  "chain": 11155111,
  "commit": "0123d99"
}