{
  "transactions": [
    {
      "hash": "0xfe625f4c17a317c04147a67b69708406ff41643a81066aaaff27e998c103604d",
      "transactionType": "CALL",
      "contractName": null,
      "contractAddress": "0x29a5134d3b22f47ad52e0a22a63247363e9f35c2",
      "function": "send((uint32,bytes32,uint256,uint256,bytes,bytes,bytes),(uint256,uint256),address)",
      "arguments": [
        "(40231, 0x000000000000000000000000009ff4940727c274424c16999f9632223d820b0b, 1000000000000000000, 0, 0x, 0x, 0x)",
        "(66294661093072, 0)",
        "0x009fF4940727C274424c16999F9632223d820b0b"
      ],
      "transaction": {
        "from": "0x009ff4940727c274424c16999f9632223d820b0b",
        "to": "0x29a5134d3b22f47ad52e0a22a63247363e9f35c2",
        "gas": "0x5ad86",
        "value": "0x3c4b6db996d0",
        "input": "0xc7c7f5b3000000000000000000000000000000000000000000000000000000000000008000000000000000000000000000000000000000000000000000003c4b6db996d00000000000000000000000000000000000000000000000000000000000000000000000000000000000000000009ff4940727c274424c16999f9632223d820b0b0000000000000000000000000000000000000000000000000000000000009d27000000000000000000000000009ff4940727c274424c16999f9632223d820b0b0000000000000000000000000000000000000000000000000de0b6b3a7640000000000000000000000000000000000000000000000000000000000000000000000000000000000000000000000000000000000000000000000000000000000e000000000000000000000000000000000000000000000000000000000000001000000000000000000000000000000000000000000000000000000000000000120000000000000000000000000000000000000000000000000000000000000000000000000000000000000000000000000000000000000000000000000000000000000000000000000000000000000000000000000000000000000000000000000",
        "nonce": "0x1c",
        "chainId": "0xaa36a7"
      },
      "additionalContracts": [],
      "isFixedGasLimit": false
    }
  ],
  "receipts": [
    {
      "status": "0x1",
      "cumulativeGasUsed": "0x10926f8",
      "logs": [
        {
          "address": "0x29a5134d3b22f47ad52e0a22a63247363e9f35c2",
          "topics": [
            "0xddf252ad1be2c89b69c2b068fc378daa952ba7f163c4a11628f55a4df523b3ef",
            "0x000000000000000000000000009ff4940727c274424c16999f9632223d820b0b",
            "0x0000000000000000000000000000000000000000000000000000000000000000"
          ],
          "data": "0x0000000000000000000000000000000000000000000000000de0b6b3a7640000",
          "blockHash": "0xd54b38f8a7c50c2db2d1ef4f71b4f721a8d5293bf45f90ca72ded3aa1accd07d",
          "blockNumber": "0x7cf20e",
          "transactionHash": "0xfe625f4c17a317c04147a67b69708406ff41643a81066aaaff27e998c103604d",
          "transactionIndex": "0x7d",
          "logIndex": "0x4b2",
          "removed": false
        },
        {
          "address": "0xcc1ae8cf5d3904cef3360a9532b477529b177cce",
          "topics": [
            "0x61ed099e74a97a1d7f8bb0952a88ca8b7b8ebd00c126ea04671f92a81213318a"
          ],
          "data": "0x000000000000000000000000718b92b5cb0a5552039b593faf724d182a881eda00000000000000000000000000000000000000000000000000001f2cb07cf000",
          "blockHash": "0xd54b38f8a7c50c2db2d1ef4f71b4f721a8d5293bf45f90ca72ded3aa1accd07d",
          "blockNumber": "0x7cf20e",
          "transactionHash": "0xfe625f4c17a317c04147a67b69708406ff41643a81066aaaff27e998c103604d",
          "transactionIndex": "0x7d",
          "logIndex": "0x4b3",
          "removed": false
        },
        {
          "address": "0xcc1ae8cf5d3904cef3360a9532b477529b177cce",
          "topics": [
            "0x07ea52d82345d6e838192107d8fd7123d9c2ec8e916cd0aad13fd2b60db24644"
          ],
          "data": "0x000000000000000000000000000000000000000000000000000000000000006000000000000000000000000000000000000000000000000000000000000000c000000000000000000000000000000000000000000000000000000000000000e000000000000000000000000000000000000000000000000000000000000000020000000000000000000000008eebf8b423b73bfca51a1db4b7354aa0bfca91930000000000000000000000009dc10a8de79f1de5242c88baa313b500490d764e0000000000000000000000000000000000000000000000000000000000000000000000000000000000000000000000000000000000000000000000000000000200000000000000000000000000000000000000000000000000000e719139536800000000000000000000000000000000000000000000000000000ead2c035368",
          "blockHash": "0xd54b38f8a7c50c2db2d1ef4f71b4f721a8d5293bf45f90ca72ded3aa1accd07d",
          "blockNumber": "0x7cf20e",
          "transactionHash": "0xfe625f4c17a317c04147a67b69708406ff41643a81066aaaff27e998c103604d",
          "transactionIndex": "0x7d",
          "logIndex": "0x4b4",
          "removed": false
        },
        {
          "address": "0x6edce65403992e310a62460808c4b910d972f10f",
          "topics": [
            "0x1ab700d4ced0c005b164c0f789fd09fcbb0156d4c2041b8a3bfbcd961cd1567f"
          ],
          "data": "0x00000000000000000000000000000000000000000000000000000000000000600000000000000000000000000000000000000000000000000000000000000120000000000000000000000000cc1ae8cf5d3904cef3360a9532b477529b177cce000000000000000000000000000000000000000000000000000000000000009901000000000000000400009ce100000000000000000000000029a5134d3b22f47ad52e0a22a63247363e9f35c200009d270000000000000000000000000768c16445b41137f98ab68ca545c0afd65a75135568a705e0f94de8f2b501e8c1244145dd6e142fa279bedb0dc2b5c9b6707010000000000000000000000000009ff4940727c274424c16999f9632223d820b0b00000000000f424000000000000000000000000000000000000000000000000000000000000000000000000000001600030100110100000000000000000000000000030d4000000000000000000000",
          "blockHash": "0xd54b38f8a7c50c2db2d1ef4f71b4f721a8d5293bf45f90ca72ded3aa1accd07d",
          "blockNumber": "0x7cf20e",
          "transactionHash": "0xfe625f4c17a317c04147a67b69708406ff41643a81066aaaff27e998c103604d",
          "transactionIndex": "0x7d",
          "logIndex": "0x4b5",
          "removed": false
        },
        {
          "address": "0x29a5134d3b22f47ad52e0a22a63247363e9f35c2",
          "topics": [
            "0x85496b760a4b7f8d66384b9df21b381f5d1b1e79f229a47aaf4c232edc2fe59a",
            "0x5568a705e0f94de8f2b501e8c1244145dd6e142fa279bedb0dc2b5c9b6707010",
            "0x000000000000000000000000009ff4940727c274424c16999f9632223d820b0b"
          ],
          "data": "0x0000000000000000000000000000000000000000000000000000000000009d270000000000000000000000000000000000000000000000000de0b6b3a76400000000000000000000000000000000000000000000000000000de0b6b3a7640000",
          "blockHash": "0xd54b38f8a7c50c2db2d1ef4f71b4f721a8d5293bf45f90ca72ded3aa1accd07d",
          "blockNumber": "0x7cf20e",
          "transactionHash": "0xfe625f4c17a317c04147a67b69708406ff41643a81066aaaff27e998c103604d",
          "transactionIndex": "0x7d",
          "logIndex": "0x4b6",
          "removed": false
        }
      ],
      "logsBloom": "0x00000000000000000000000000000000000000000000000010000000000100000000000000000400204000000000000000000000000000000000000000000000000002000000000000000008000000000000000000000000000000000000080000000000020000008200000000000800000000000000000000000010000000000000000000000030000000080000000000000000000000040000000000000000000000008000000000100000000000000000002000400000000440000000000000000002000000000080000080000000000000080000000000000000000820000000040000000000000000000000002000000000008000000000000000000020",
      "type": "0x2",
      "transactionHash": "0xfe625f4c17a317c04147a67b69708406ff41643a81066aaaff27e998c103604d",
      "transactionIndex": "0x7d",
      "blockHash": "0xd54b38f8a7c50c2db2d1ef4f71b4f721a8d5293bf45f90ca72ded3aa1accd07d",
      "blockNumber": "0x7cf20e",
      "gasUsed": "0x41c54",
      "effectiveGasPrice": "0xa6d7086",
      "from": "0x009ff4940727c274424c16999f9632223d820b0b",
      "to": "0x29a5134d3b22f47ad52e0a22a63247363e9f35c2",
      "contractAddress": null
    }
  ],
  "libraries": [],
  "pending": [],
  "returns": {},
  "timestamp": 1745529600,
  "chain": 11155111,
  "commit": "0123d99"
}