{
  "transactions": [
    {
      "hash": "0x1a2c8d627e54a65d187e7066552cde6436d2887dc28fdf13256800eb49ddf989",
      "transactionType": "CALL",
      "contractName": null,
      "contractAddress": "0xdec0000000000000000000000000000000000000",
      "function": "createPair(address)",
      "arguments": [
        "0x20c000000000000000000000cf5b0F48F7fEDC7F"
      ],
      "transaction": {
        "from": "0x1d434906aa520e592fab2b82406beff859be8e82",
        "to": "0xdec0000000000000000000000000000000000000",
        "gas": "0x2a6bf",
        "value": "0x0",
        "input": "0x9ccb074400000000000000000000000020c000000000000000000000cf5b0f48f7fedc7f",
        "nonce": "0xb",
        "chainId": "0xa5bf",
        "feeToken": null,
        "calls": [],
        "keyType": null,
        "keyData": null
      },
      "additionalContracts": [],
      "isFixedGasLimit": false
    },
    {
      "hash": "0x5c47c868066e105203654e5f4b14f836e3dd40f0547c265c48adf3750059549b",
      "transactionType": "CALL",
      "contractName": null,
      "contractAddress": "0x20c0000000000000000000000000000000000000",
      "function": "approve(address,uint256)",
      "arguments": [
        "0xDEc0000000000000000000000000000000000000",
        "100000000"
      ],
      "transaction": {
        "from": "0x1d434906aa520e592fab2b82406beff859be8e82",
        "to": "0x20c0000000000000000000000000000000000000",
        "gas": "0xf53e",
        "value": "0x0",
        "input": "0x095ea7b3000000000000000000000000dec00000000000000000000000000000000000000000000000000000000000000000000000000000000000000000000005f5e100",
        "nonce": "0xc",
        "chainId": "0xa5bf",
        "feeToken": null,
        "calls": [],
        "keyType": null,
        "keyData": null
      },
      "additionalContracts": [],
      "isFixedGasLimit": false
    },
    {
      "hash": "0x6c4c9773915d57d4724a2c110df3007c6a436eeb9e471ee542a59ae5db3db402",
      "transactionType": "CALL",
      "contractName": null,
      "contractAddress": "0xdec0000000000000000000000000000000000000",
      "function": "place(address,uint128,bool,int16)",
      "arguments": [
        "0x20c000000000000000000000cf5b0F48F7fEDC7F",
        "100000000",
        "true",
        "0"
      ],
      "transaction": {
        "from": "0x1d434906aa520e592fab2b82406beff859be8e82",
        "to": "0xdec0000000000000000000000000000000000000",
        "gas": "0x5986c",
        "value": "0x0",
        "input": "0x6381312500000000000000000000000020c000000000000000000000cf5b0f48f7fedc7f0000000000000000000000000000000000000000000000000000000005f5e10000000000000000000000000000000000000000000000000000000000000000010000000000000000000000000000000000000000000000000000000000000000",
        "nonce": "0xd",
        "chainId": "0xa5bf",
        "feeToken": null,
        "calls": [],
        "keyType": null,
        "keyData": null
      },
      "additionalContracts": [],
      "isFixedGasLimit": false
    }
  ],
  "receipts": [
    {
      "type": "0x2",
      "status": "0x1",
      "cumulativeGasUsed": "0x28c90d",
      "logs": [
        {
          "address": "0xdec0000000000000000000000000000000000000",
          "topics": [
            "0xaff90cfc97c741e6d1ffffa62656c16a763f41dc773055d7b0c36950a823babf",
            "0xf04e6335da9325c0f550929ece26f0f8f6df87f83f53f9e96612d6a155b9b875",
            "0x00000000000000000000000020c000000000000000000000cf5b0f48f7fedc7f",
            "0x00000000000000000000000020c0000000000000000000000000000000000000"
          ],
          "data": "0x",
          "blockHash": "0xa1fa308e50ab8aee51586093ad8f41ad0fca4803bd5eb6cb2cb374072129c386",
          "blockNumber": "0x35d95e",
          "blockTimestamp": "0x69826383",
          "transactionHash": "0x5c47c868066e105203654e5f4b14f836e3dd40f0547c265c48adf3750059549b",
          "transactionIndex": "0x2a",
          "logIndex": "0x44",
          "removed": false
        },
        {
          "address": "0x20c0000000000000000000000000000000000000",
          "topics": [
            "0xddf252ad1be2c89b69c2b068fc378daa952ba7f163c4a11628f55a4df523b3ef",
            "0x0000000000000000000000001d434906aa520e592fab2b82406beff859be8e82",
            "0x000000000000000000000000feec000000000000000000000000000000000000"
          ],
          "data": "0x00000000000000000000000000000000000000000000000000000000000004d6",
          "blockHash": "0xa1fa308e50ab8aee51586093ad8f41ad0fca4803bd5eb6cb2cb374072129c386",
          "blockNumber": "0x35d95e",
          "blockTimestamp": "0x69826383",
          "transactionHash": "0x5c47c868066e105203654e5f4b14f836e3dd40f0547c265c48adf3750059549b",
          "transactionIndex": "0x2a",
          "logIndex": "0x45",
          "removed": false
        }
      ],
      "logsBloom": "0x00004000000040000000000000000000000000000000000000000000000000000040040000000000000100000100000000000100000000020000000000000000020004000000000000000008000000000000000000040000000000000400000000000000000000000000000000000200000000000000000000000010108060000000000000000000000000000020000000000000800000000000000000000040080020000000000000000000000000000000000000000000000000040000000000000002000000000000000000000000000000000000000000000000000000000000000000000000000000000000000000000000000000000000000000000000",
      "transactionHash": "0x5c47c868066e105203654e5f4b14f836e3dd40f0547c265c48adf3750059549b",
      "transactionIndex": "0x2a",
      "blockHash": "0xa1fa308e50ab8aee51586093ad8f41ad0fca4803bd5eb6cb2cb374072129c386",
      "blockNumber": "0x35d95e",
      "gasUsed": "0x1e397",
      "effectiveGasPrice": "0x2540c48b5",
      "from": "0x1d434906aa520e592fab2b82406beff859be8e82",
      "to": "0xdec0000000000000000000000000000000000000",
      "contractAddress": null,
      "feeToken": "0x20c0000000000000000000000000000000000000",
      "feePayer": "0x1d434906aa520e592fab2b82406beff859be8e82"
    },
    {
      "type": "0x2",
      "status": "0x1",
      "cumulativeGasUsed": "0x297a9b",
      "logs": [
        {
          "address": "0x20c0000000000000000000000000000000000000",
          "topics": [
            "0x8c5be1e5ebec7d5bd14f71427d1e84f3dd0314c0f7b2291e5b200ac8c7c3b925",
            "0x0000000000000000000000001d434906aa520e592fab2b82406beff859be8e82",
            "0x000000000000000000000000dec0000000000000000000000000000000000000"
          ],
          "data": "0x0000000000000000000000000000000000000000000000000000000005f5e100",
          "blockHash": "0xa1fa308e50ab8aee51586093ad8f41ad0fca4803bd5eb6cb2cb374072129c386",
          "blockNumber": "0x35d95e",
          "blockTimestamp": "0x69826383",
          "transactionHash": "0x6c4c9773915d57d4724a2c110df3007c6a436eeb9e471ee542a59ae5db3db402",
          "transactionIndex": "0x2b",
          "logIndex": "0x46",
          "removed": false
        },
        {
          "address": "0x20c0000000000000000000000000000000000000",
          "topics": [
            "0xddf252ad1be2c89b69c2b068fc378daa952ba7f163c4a11628f55a4df523b3ef",
            "0x0000000000000000000000001d434906aa520e592fab2b82406beff859be8e82",
            "0x000000000000000000000000feec000000000000000000000000000000000000"
          ],
          "data": "0x00000000000000000000000000000000000000000000000000000000000001c7",
          "blockHash": "0xa1fa308e50ab8aee51586093ad8f41ad0fca4803bd5eb6cb2cb374072129c386",
          "blockNumber": "0x35d95e",
          "blockTimestamp": "0x69826383",
          "transactionHash": "0x6c4c9773915d57d4724a2c110df3007c6a436eeb9e471ee542a59ae5db3db402",
          "transactionIndex": "0x2b",
          "logIndex": "0x47",
          "removed": false
        }
      ],
      "logsBloom": "0x000000000000000000000000000000000000000000000000000000000000000000400000000000000001000001000000000000000000000000000000002000000000040000000000000000080000000000000000000000000000000004000000000000000000000000000000000000000000000000000000000000100000000000000000000000000000000000200000000000008001000000000000000000000a0020000000000000000000000000000000000000000000000000000000000000000002000000000100200000000000000000000000000000000000000000000010000000000000000000000000000000000000000000000000000000000000",
      "transactionHash": "0x6c4c9773915d57d4724a2c110df3007c6a436eeb9e471ee542a59ae5db3db402",
      "transactionIndex": "0x2b",
      "blockHash": "0xa1fa308e50ab8aee51586093ad8f41ad0fca4803bd5eb6cb2cb374072129c386",
      "blockNumber": "0x35d95e",
      "gasUsed": "0xb18e",
      "effectiveGasPrice": "0x2540c48b5",
      "from": "0x1d434906aa520e592fab2b82406beff859be8e82",
      "to": "0x20c0000000000000000000000000000000000000",
      "contractAddress": null,
      "feeToken": "0x20c0000000000000000000000000000000000000",
      "feePayer": "0x1d434906aa520e592fab2b82406beff859be8e82"
    },
    {
      "type": "0x2",
      "status": "0x1",
      "cumulativeGasUsed": "0x2d4dd8",
      "logs": [
        {
          "address": "0x20c0000000000000000000000000000000000000",
          "topics": [
            "0xddf252ad1be2c89b69c2b068fc378daa952ba7f163c4a11628f55a4df523b3ef",
            "0x0000000000000000000000001d434906aa520e592fab2b82406beff859be8e82",
            "0x000000000000000000000000dec0000000000000000000000000000000000000"
          ],
          "data": "0x0000000000000000000000000000000000000000000000000000000005f5e100",
          "blockHash": "0xa1fa308e50ab8aee51586093ad8f41ad0fca4803bd5eb6cb2cb374072129c386",
          "blockNumber": "0x35d95e",
          "blockTimestamp": "0x69826383",
          "transactionHash": "0x1a2c8d627e54a65d187e7066552cde6436d2887dc28fdf13256800eb49ddf989",
          "transactionIndex": "0x2c",
          "logIndex": "0x48",
          "removed": false
        },
        {
          "address": "0xdec0000000000000000000000000000000000000",
          "topics": [
            "0xc200d837816d02c5ee9bf081cba1a32ab1482de7a738b41c0b357186b0b998cd",
            "0x0000000000000000000000000000000000000000000000000000000000454654",
            "0x0000000000000000000000001d434906aa520e592fab2b82406beff859be8e82",
            "0x00000000000000000000000020c000000000000000000000cf5b0f48f7fedc7f"
          ],
          "data": "0x0000000000000000000000000000000000000000000000000000000005f5e1000000000000000000000000000000000000000000000000000000000000000001000000000000000000000000000000000000000000000000000000000000000000000000000000000000000000000000000000000000000000000000000000000000000000000000000000000000000000000000000000000000000000000000",
          "blockHash": "0xa1fa308e50ab8aee51586093ad8f41ad0fca4803bd5eb6cb2cb374072129c386",
          "blockNumber": "0x35d95e",
          "blockTimestamp": "0x69826383",
          "transactionHash": "0x1a2c8d627e54a65d187e7066552cde6436d2887dc28fdf13256800eb49ddf989",
          "transactionIndex": "0x2c",
          "logIndex": "0x49",
          "removed": false
        },
        {
          "address": "0x20c0000000000000000000000000000000000000",
          "topics": [
            "0xddf252ad1be2c89b69c2b068fc378daa952ba7f163c4a11628f55a4df523b3ef",
            "0x0000000000000000000000001d434906aa520e592fab2b82406beff859be8e82",
            "0x000000000000000000000000feec000000000000000000000000000000000000"
          ],
          "data": "0x00000000000000000000000000000000000000000000000000000000000009cb",
          "blockHash": "0xa1fa308e50ab8aee51586093ad8f41ad0fca4803bd5eb6cb2cb374072129c386",
          "blockNumber": "0x35d95e",
          "blockTimestamp": "0x69826383",
          "transactionHash": "0x1a2c8d627e54a65d187e7066552cde6436d2887dc28fdf13256800eb49ddf989",
          "transactionIndex": "0x2c",
          "logIndex": "0x4a",
          "removed": false
        }
      ],
      "logsBloom": "0x00004000000000000000000000000000000000000000000000000000000000020040000000000000000100000100000000040000000020020000000000000000000004000000000000000008000000000000000000000000000000000400000000000000000000000000000000000000000000000000000000000010008060000000000080000000000000000020000000000000800100000000004000000040080020000000000000000000000000000000000000000000000000000000000000000002000000000100200000000000000000000000000000000000000000000000000000000000000000000000000000000002000000000000000000000000",
      "transactionHash": "0x1a2c8d627e54a65d187e7066552cde6436d2887dc28fdf13256800eb49ddf989",
      "transactionIndex": "0x2c",
      "blockHash": "0xa1fa308e50ab8aee51586093ad8f41ad0fca4803bd5eb6cb2cb374072129c386",
      "blockNumber": "0x35d95e",
      "gasUsed": "0x3d33d",
      "effectiveGasPrice": "0x2540c48b5",
      "from": "0x1d434906aa520e592fab2b82406beff859be8e82",
      "to": "0xdec0000000000000000000000000000000000000",
      "contractAddress": null,
      "feeToken": "0x20c0000000000000000000000000000000000000",
      "feePayer": "0x1d434906aa520e592fab2b82406beff859be8e82"
    }
  ],
  "libraries": [],
  "pending": [],
  "returns": {},
  "timestamp": 1770152837602,
  "chain": 42431,
  "commit": "47b8acf"
}