{
  "transactions": [
    {
      "hash": "0xa2de96642a1d1f4dc5c22d68eed70ac50bb97877ab0ee462d3a6fcc825cd4dc3",
      "transactionType": "CALL",
      "contractName": null,
      "contractAddress": "0x741f0d8bde14140f62107fc60a0ee122b37d4630",
      "function": "batchBridgeWithEthFeeFromWallet((uint32,bytes32,uint256,uint256,bytes,bytes,bytes)[],address[],address[])",
      "arguments": [
        "[(30375, 0x000000000000000000000000741f0d8bde14140f62107fc60a0ee122b37d4630, 1000000000000000000, 0, 0x, 0x, 0x)]",
        "[0x57558Cb8d6005DE0BAe8a2789d5EfaaE52dba5a8]",
        "[0x741F0d8Bde14140f62107FC60A0EE122B37D4630]"
      ],
      "transaction": {
        "from": "0x45dce8e4f2dc005a5f28206a46cb034697eeda8e",
        "to": "0x741f0d8bde14140f62107fc60a0ee122b37d4630",
        "gas": "0x95056",
        "value": "0x5ee694936da",
        "input": "0xb70d4241000000000000000000000000000000000000000000000000000000000000006000000000000000000000000000000000000000000000000000000000000001e000000000000000000000000000000000000000000000000000000000000002200000000000000000000000000000000000000000000000000000000000000001000000000000000000000000000000000000000000000000000000000000002000000000000000000000000000000000000000000000000000000000000076a7000000000000000000000000741f0d8bde14140f62107fc60a0ee122b37d46300000000000000000000000000000000000000000000000000de0b6b3a7640000000000000000000000000000000000000000000000000000000000000000000000000000000000000000000000000000000000000000000000000000000000e000000000000000000000000000000000000000000000000000000000000001000000000000000000000000000000000000000000000000000000000000000120000000000000000000000000000000000000000000000000000000000000000000000000000000000000000000000000000000000000000000000000000000000000000000000000000000000000000000000000000000000000000000000000000000000000000000000000000000000000000000000000000000000000000100000000000000000000000057558cb8d6005de0bae8a2789d5efaae52dba5a80000000000000000000000000000000000000000000000000000000000000001000000000000000000000000741f0d8bde14140f62107fc60a0ee122b37d4630",
        "nonce": "0xae",
        "chainId": "0x2105"
      },
      "additionalContracts": [],
      "isFixedGasLimit": false
    }
  ],
  "receipts": [
    {
      "status": "0x1",
      "cumulativeGasUsed": "0x5616bf",
      "logs": [
        {
          "address": "0x57558cb8d6005de0bae8a2789d5efaae52dba5a8",
          "topics": [
            "0xddf252ad1be2c89b69c2b068fc378daa952ba7f163c4a11628f55a4df523b3ef",
            "0x000000000000000000000000741f0d8bde14140f62107fc60a0ee122b37d4630",
            "0x0000000000000000000000000000000000000000000000000000000000000000"
          ],
          "data": "0x0000000000000000000000000000000000000000000000000de0b6b3a7640000",
          "blockHash": "0xfb7bc3c9d60438737e10cfc85d62d4e5ea97ce4738936f2e7e1f8dec5958fd30",
          "blockNumber": "0x200425d",
          "transactionHash": "0xa2de96642a1d1f4dc5c22d68eed70ac50bb97877ab0ee462d3a6fcc825cd4dc3",
          "transactionIndex": "0x1b",
          "logIndex": "0x69",
          "removed": false
        },
        {
          "address": "0xb5320b0b3a13cc860893e2bd79fcd7e13484dda2",
          "topics": [
            "0x61ed099e74a97a1d7f8bb0952a88ca8b7b8ebd00c126ea04671f92a81213318a"
          ],
          "data": "0x0000000000000000000000002cca08ae69e0c44b18a57ab2a87644234daebae40000000000000000000000000000000000000000000000000000055b903416e0",
          "blockHash": "0xfb7bc3c9d60438737e10cfc85d62d4e5ea97ce4738936f2e7e1f8dec5958fd30",
          "blockNumber": "0x200425d",
          "transactionHash": "0xa2de96642a1d1f4dc5c22d68eed70ac50bb97877ab0ee462d3a6fcc825cd4dc3",
          "transactionIndex": "0x1b",
          "logIndex": "0x6a",
          "removed": false
        },
        {
          "address": "0xb5320b0b3a13cc860893e2bd79fcd7e13484dda2",
          "topics": [
            "0x07ea52d82345d6e838192107d8fd7123d9c2ec8e916cd0aad13fd2b60db24644"
          ],
          "data": "0x000000000000000000000000000000000000000000000000000000000000006000000000000000000000000000000000000000000000000000000000000000e000000000000000000000000000000000000000000000000000000000000001000000000000000000000000000000000000000000000000000000000000000003000000000000000000000000187cf227f81c287303ee765ee001e151347faaa20000000000000000000000009e059a54699a285714207b43b055483e78faac25000000000000000000000000cd37ca043f8479064e10635020c65ffc005d36f6000000000000000000000000000000000000000000000000000000000000000000000000000000000000000000000000000000000000000000000000000000030000000000000000000000000000000000000000000000000000003280681ec30000000000000000000000000000000000000000000000000000003076d8b4600000000000000000000000000000000000000000000000000000002fe1d44cd7",
          "blockHash": "0xfb7bc3c9d60438737e10cfc85d62d4e5ea97ce4738936f2e7e1f8dec5958fd30",
          "blockNumber": "0x200425d",
          "transactionHash": "0xa2de96642a1d1f4dc5c22d68eed70ac50bb97877ab0ee462d3a6fcc825cd4dc3",
          "transactionIndex": "0x1b",
          "logIndex": "0x6b",
          "removed": false
        },
        {
          "address": "0x1a44076050125825900e736c501f859c50fe728c",
          "topics": [
            "0x1ab700d4ced0c005b164c0f789fd09fcbb0156d4c2041b8a3bfbcd961cd1567f"
          ],
          "data": "0x00000000000000000000000000000000000000000000000000000000000000600000000000000000000000000000000000000000000000000000000000000120000000000000000000000000b5320b0b3a13cc860893e2bd79fcd7e13484dda20000000000000000000000000000000000000000000000000000000000000099010000000000000001000075e800000000000000000000000057558cb8d6005de0bae8a2789d5efaae52dba5a8000076a700000000000000000000000057558cb8d6005de0bae8a2789d5efaae52dba5a8ad2a549503504a4841874d916c20f387301c2817069ddf679098762ecddf9ea3000000000000000000000000741f0d8bde14140f62107fc60a0ee122b37d463000000000000f424000000000000000000000000000000000000000000000000000000000000000000000000000001600030100110100000000000000000000000000030d4000000000000000000000",
          "blockHash": "0xfb7bc3c9d60438737e10cfc85d62d4e5ea97ce4738936f2e7e1f8dec5958fd30",
          "blockNumber": "0x200425d",
          "transactionHash": "0xa2de96642a1d1f4dc5c22d68eed70ac50bb97877ab0ee462d3a6fcc825cd4dc3",
          "transactionIndex": "0x1b",
          "logIndex": "0x6c",
          "removed": false
        },
        {
          "address": "0x57558cb8d6005de0bae8a2789d5efaae52dba5a8",
          "topics": [
            "0x85496b760a4b7f8d66384b9df21b381f5d1b1e79f229a47aaf4c232edc2fe59a",
            "0xad2a549503504a4841874d916c20f387301c2817069ddf679098762ecddf9ea3",
            "0x000000000000000000000000741f0d8bde14140f62107fc60a0ee122b37d4630"
          ],
          "data": "0x00000000000000000000000000000000000000000000000000000000000076a70000000000000000000000000000000000000000000000000de0b6b3a76400000000000000000000000000000000000000000000000000000de0b6b3a7640000",
          "blockHash": "0xfb7bc3c9d60438737e10cfc85d62d4e5ea97ce4738936f2e7e1f8dec5958fd30",
          "blockNumber": "0x200425d",
          "transactionHash": "0xa2de96642a1d1f4dc5c22d68eed70ac50bb97877ab0ee462d3a6fcc825cd4dc3",
          "transactionIndex": "0x1b",
          "logIndex": "0x6d",
          "removed": false
        }
      ],
      "logsBloom": "0x0000000000000000000000000004004000000000000000000000000000100000000000000000000000000000000000040000010000000000000000000000000000000200000000000000040800000000000000000000002000000000000000010000000002000000800000000000080000000000001000000000001000000000000000000000000000000008000000000000000000000000000400000000000000000000a000001000100000000000000000000000400000000440000000000000000002000000000000000080000000000000000000000000000000000020000000040000002000000000000000002000000000018000000000000000040000",
      "type": "0x2",
      "transactionHash": "0xa2de96642a1d1f4dc5c22d68eed70ac50bb97877ab0ee462d3a6fcc825cd4dc3",
      "transactionIndex": "0x1b",
      "blockHash": "0xfb7bc3c9d60438737e10cfc85d62d4e5ea97ce4738936f2e7e1f8dec5958fd30",
      "blockNumber": "0x200425d",
      "gasUsed": "0x65e51",
      "effectiveGasPrice": "0x7bf1f9",
      "from": "0x45dce8e4f2dc005a5f28206a46cb034697eeda8e",
      "to": "0x741f0d8bde14140f62107fc60a0ee122b37d4630",
      "contractAddress": null,
      "l1BaseFeeScalar": "0x8dd",
      "l1BlobBaseFee": "0x1",
      "l1BlobBaseFeeScalar": "0x101c12",
      "l1Fee": "0x33a75863c",
      "l1GasPrice": "0x9308925b",
      "l1GasUsed": "0x9ad"
    }
  ],
  "libraries": [],
  "pending": [],
  "returns": {},
  "timestamp": 1753932190,
  "chain": 8453,
  "commit": "bc2ac99"
}