{
  "transactions": [
    {
      "hash": "0x2f9c52b1c098cfb026c47580e531be8e4fbaa3fa02c9690799495f9a06bc4b37",
      "transactionType": "CALL",
      "contractName": null,
      "contractAddress": "0x741f0d8bde14140f62107fc60a0ee122b37d4630",
      "function": "batchBridgeWithEthFeeFromWallet((uint32,bytes32,uint256,uint256,bytes,bytes,bytes)[],address[],address[])",
      "arguments": [
        "[(30211, 0x0000000000000000000000004a767e2ef83577225522ef8ed71056c6e3acb216, 1000000000000000000, 0, 0x, 0x, 0x), (30214, 0x000000000000000000000000741f0d8bde14140f62107fc60a0ee122b37d4630, 1000000000000000000, 0, 0x, 0x, 0x)]",
        "[0x57558Cb8d6005DE0BAe8a2789d5EfaaE52dba5a8, 0x57558Cb8d6005DE0BAe8a2789d5EfaaE52dba5a8]",
        "[0x741F0d8Bde14140f62107FC60A0EE122B37D4630, 0x741F0d8Bde14140f62107FC60A0EE122B37D4630]"
      ],
      "transaction": {
        "from": "0x45dce8e4f2dc005a5f28206a46cb034697eeda8e",
        "to": "0x741f0d8bde14140f62107fc60a0ee122b37d4630",
        "gas": "0xe18cf",
        "value": "0x8537db44a6ce",
        "input": "0xb70d42410000000000000000000000000000000000000000000000000000000000000060000000000000000000000000000000000000000000000000000000000000034000000000000000000000000000000000000000000000000000000000000003a000000000000000000000000000000000000000000000000000000000000000020000000000000000000000000000000000000000000000000000000000000040000000000000000000000000000000000000000000000000000000000000018000000000000000000000000000000000000000000000000000000000000076030000000000000000000000004a767e2ef83577225522ef8ed71056c6e3acb2160000000000000000000000000000000000000000000000000de0b6b3a7640000000000000000000000000000000000000000000000000000000000000000000000000000000000000000000000000000000000000000000000000000000000e0000000000000000000000000000000000000000000000000000000000000010000000000000000000000000000000000000000000000000000000000000001200000000000000000000000000000000000000000000000000000000000000000000000000000000000000000000000000000000000000000000000000000000000000000000000000000000000000000000000000000000000000000000000000000000000000000000000000000000000000000000000000000000000007606000000000000000000000000741f0d8bde14140f62107fc60a0ee122b37d46300000000000000000000000000000000000000000000000000de0b6b3a7640000000000000000000000000000000000000000000000000000000000000000000000000000000000000000000000000000000000000000000000000000000000e000000000000000000000000000000000000000000000000000000000000001000000000000000000000000000000000000000000000000000000000000000120000000000000000000000000000000000000000000000000000000000000000000000000000000000000000000000000000000000000000000000000000000000000000000000000000000000000000000000000000000000000000000000000000000000000000000000000000000000000000000000000000000000000000200000000000000000000000057558cb8d6005de0bae8a2789d5efaae52dba5a800000000000000000000000057558cb8d6005de0bae8a2789d5efaae52dba5a80000000000000000000000000000000000000000000000000000000000000002000000000000000000000000741f0d8bde14140f62107fc60a0ee122b37d4630000000000000000000000000741f0d8bde14140f62107fc60a0ee122b37d4630",
        "nonce": "0xbb",
        "chainId": "0x2105"
      },
      "additionalContracts": [],
      "isFixedGasLimit": false
    }
  ],
  "receipts": [
    {
      "status": "0x1",
      "cumulativeGasUsed": "0x20ab2c2",
      "logs": [
        {
          "address": "0x57558cb8d6005de0bae8a2789d5efaae52dba5a8",
          "topics": [
            "0xddf252ad1be2c89b69c2b068fc378daa952ba7f163c4a11628f55a4df523b3ef",
            "0x000000000000000000000000741f0d8bde14140f62107fc60a0ee122b37d4630",
            "0x0000000000000000000000000000000000000000000000000000000000000000"
          ],
          "data": "0x0000000000000000000000000000000000000000000000000de0b6b3a7640000",
          "blockHash": "0x207d1718f07c44cfb5cf625ae01237cbd19ca619b49ff21a64011ad9625138d1",
          "blockNumber": "0x213e710",
          "blockTimestamp": "0x68b22b03",
          "transactionHash": "0x2f9c52b1c098cfb026c47580e531be8e4fbaa3fa02c9690799495f9a06bc4b37",
          "transactionIndex": "0xe9",
          "logIndex": "0x1ab",
          "removed": false
        },
        {
          "address": "0xb5320b0b3a13cc860893e2bd79fcd7e13484dda2",
          "topics": [
            "0x61ed099e74a97a1d7f8bb0952a88ca8b7b8ebd00c126ea04671f92a81213318a"
          ],
          "data": "0x0000000000000000000000002cca08ae69e0c44b18a57ab2a87644234daebae400000000000000000000000000000000000000000000000000002637b33bc6d6",
          "blockHash": "0x207d1718f07c44cfb5cf625ae01237cbd19ca619b49ff21a64011ad9625138d1",
          "blockNumber": "0x213e710",
          "blockTimestamp": "0x68b22b03",
          "transactionHash": "0x2f9c52b1c098cfb026c47580e531be8e4fbaa3fa02c9690799495f9a06bc4b37",
          "transactionIndex": "0xe9",
          "logIndex": "0x1ac",
          "removed": false
        },
        {
          "address": "0xb5320b0b3a13cc860893e2bd79fcd7e13484dda2",
          "topics": [
            "0x07ea52d82345d6e838192107d8fd7123d9c2ec8e916cd0aad13fd2b60db24644"
          ],
          "data": "0x000000000000000000000000000000000000000000000000000000000000006000000000000000000000000000000000000000000000000000000000000000e000000000000000000000000000000000000000000000000000000000000001000000000000000000000000000000000000000000000000000000000000000003000000000000000000000000187cf227f81c287303ee765ee001e151347faaa20000000000000000000000009e059a54699a285714207b43b055483e78faac25000000000000000000000000a7b5189bca84cd304d8553977c7c614329750d9900000000000000000000000000000000000000000000000000000000000000000000000000000000000000000000000000000000000000000000000000000003000000000000000000000000000000000000000000000000000006c9833ce800000000000000000000000000000000000000000000000000000006836ae6e800000000000000000000000000000000000000000000000000000006836ae6e800",
          "blockHash": "0x207d1718f07c44cfb5cf625ae01237cbd19ca619b49ff21a64011ad9625138d1",
          "blockNumber": "0x213e710",
          "blockTimestamp": "0x68b22b03",
          "transactionHash": "0x2f9c52b1c098cfb026c47580e531be8e4fbaa3fa02c9690799495f9a06bc4b37",
          "transactionIndex": "0xe9",
          "logIndex": "0x1ad",
          "removed": false
        },
        {
          "address": "0x1a44076050125825900e736c501f859c50fe728c",
          "topics": [
            "0x1ab700d4ced0c005b164c0f789fd09fcbb0156d4c2041b8a3bfbcd961cd1567f"
          ],
          "data": "0x00000000000000000000000000000000000000000000000000000000000000600000000000000000000000000000000000000000000000000000000000000120000000000000000000000000b5320b0b3a13cc860893e2bd79fcd7e13484dda20000000000000000000000000000000000000000000000000000000000000099010000000000000001000075e800000000000000000000000057558cb8d6005de0bae8a2789d5efaae52dba5a800007603000000000000000000000000a057d8d4fc86a62801ce363c169b0a8d192f6cee8845ce60b61ef29d49861792ef9fb85241783784df3a0564d39a721e924206160000000000000000000000004a767e2ef83577225522ef8ed71056c6e3acb21600000000000f424000000000000000000000000000000000000000000000000000000000000000000000000000001600030100110100000000000000000000000000030d4000000000000000000000",
          "blockHash": "0x207d1718f07c44cfb5cf625ae01237cbd19ca619b49ff21a64011ad9625138d1",
          "blockNumber": "0x213e710",
          "blockTimestamp": "0x68b22b03",
          "transactionHash": "0x2f9c52b1c098cfb026c47580e531be8e4fbaa3fa02c9690799495f9a06bc4b37",
          "transactionIndex": "0xe9",
          "logIndex": "0x1ae",
          "removed": false
        },
        {
          "address": "0x57558cb8d6005de0bae8a2789d5efaae52dba5a8",
          "topics": [
            "0x85496b760a4b7f8d66384b9df21b381f5d1b1e79f229a47aaf4c232edc2fe59a",
            "0x8845ce60b61ef29d49861792ef9fb85241783784df3a0564d39a721e92420616",
            "0x000000000000000000000000741f0d8bde14140f62107fc60a0ee122b37d4630"
          ],
          "data": "0x00000000000000000000000000000000000000000000000000000000000076030000000000000000000000000000000000000000000000000de0b6b3a76400000000000000000000000000000000000000000000000000000de0b6b3a7640000",
          "blockHash": "0x207d1718f07c44cfb5cf625ae01237cbd19ca619b49ff21a64011ad9625138d1",
          "blockNumber": "0x213e710",
          "blockTimestamp": "0x68b22b03",
          "transactionHash": "0x2f9c52b1c098cfb026c47580e531be8e4fbaa3fa02c9690799495f9a06bc4b37",
          "transactionIndex": "0xe9",
          "logIndex": "0x1af",
          "removed": false
        },
        {
          "address": "0x57558cb8d6005de0bae8a2789d5efaae52dba5a8",
          "topics": [
            "0xddf252ad1be2c89b69c2b068fc378daa952ba7f163c4a11628f55a4df523b3ef",
            "0x000000000000000000000000741f0d8bde14140f62107fc60a0ee122b37d4630",
            "0x0000000000000000000000000000000000000000000000000000000000000000"
          ],
          "data": "0x0000000000000000000000000000000000000000000000000de0b6b3a7640000",
          "blockHash": "0x207d1718f07c44cfb5cf625ae01237cbd19ca619b49ff21a64011ad9625138d1",
          "blockNumber": "0x213e710",
          "blockTimestamp": "0x68b22b03",
          "transactionHash": "0x2f9c52b1c098cfb026c47580e531be8e4fbaa3fa02c9690799495f9a06bc4b37",
          "transactionIndex": "0xe9",
          "logIndex": "0x1b0",
          "removed": false
        },
        {
          "address": "0xb5320b0b3a13cc860893e2bd79fcd7e13484dda2",
          "topics": [
            "0x61ed099e74a97a1d7f8bb0952a88ca8b7b8ebd00c126ea04671f92a81213318a"
          ],
          "data": "0x0000000000000000000000002cca08ae69e0c44b18a57ab2a87644234daebae400000000000000000000000000000000000000000000000000004b271af40b06",
          "blockHash": "0x207d1718f07c44cfb5cf625ae01237cbd19ca619b49ff21a64011ad9625138d1",
          "blockNumber": "0x213e710",
          "blockTimestamp": "0x68b22b03",
          "transactionHash": "0x2f9c52b1c098cfb026c47580e531be8e4fbaa3fa02c9690799495f9a06bc4b37",
          "transactionIndex": "0xe9",
          "logIndex": "0x1b1",
          "removed": false
        },
        {
          "address": "0xb5320b0b3a13cc860893e2bd79fcd7e13484dda2",
          "topics": [
            "0x07ea52d82345d6e838192107d8fd7123d9c2ec8e916cd0aad13fd2b60db24644"
          ],
          "data": "0x000000000000000000000000000000000000000000000000000000000000006000000000000000000000000000000000000000000000000000000000000000e000000000000000000000000000000000000000000000000000000000000001000000000000000000000000000000000000000000000000000000000000000003000000000000000000000000187cf227f81c287303ee765ee001e151347faaa20000000000000000000000009e059a54699a285714207b43b055483e78faac25000000000000000000000000a7b5189bca84cd304d8553977c7c614329750d990000000000000000000000000000000000000000000000000000000000000000000000000000000000000000000000000000000000000000000000000000000300000000000000000000000000000000000000000000000000000002fb34c34000000000000000000000000000000000000000000000000000000002dc6aacd900000000000000000000000000000000000000000000000000000002dc6aacd9",
          "blockHash": "0x207d1718f07c44cfb5cf625ae01237cbd19ca619b49ff21a64011ad9625138d1",
          "blockNumber": "0x213e710",
          "blockTimestamp": "0x68b22b03",
          "transactionHash": "0x2f9c52b1c098cfb026c47580e531be8e4fbaa3fa02c9690799495f9a06bc4b37",
          "transactionIndex": "0xe9",
          "logIndex": "0x1b2",
          "removed": false
        },
        {
          "address": "0x1a44076050125825900e736c501f859c50fe728c",
          "topics": [
            "0x1ab700d4ced0c005b164c0f789fd09fcbb0156d4c2041b8a3bfbcd961cd1567f"
          ],
          "data": "0x00000000000000000000000000000000000000000000000000000000000000600000000000000000000000000000000000000000000000000000000000000120000000000000000000000000b5320b0b3a13cc860893e2bd79fcd7e13484dda20000000000000000000000000000000000000000000000000000000000000099010000000000000001000075e800000000000000000000000057558cb8d6005de0bae8a2789d5efaae52dba5a80000760600000000000000000000000057558cb8d6005de0bae8a2789d5efaae52dba5a8e491138a48e3998a7ea8d8737954398acad3b0732e0104720711b3ce30de8520000000000000000000000000741f0d8bde14140f62107fc60a0ee122b37d463000000000000f424000000000000000000000000000000000000000000000000000000000000000000000000000001600030100110100000000000000000000000000030d4000000000000000000000",
          "blockHash": "0x207d1718f07c44cfb5cf625ae01237cbd19ca619b49ff21a64011ad9625138d1",
          "blockNumber": "0x213e710",
          "blockTimestamp": "0x68b22b03",
          "transactionHash": "0x2f9c52b1c098cfb026c47580e531be8e4fbaa3fa02c9690799495f9a06bc4b37",
          "transactionIndex": "0xe9",
          "logIndex": "0x1b3",
          "removed": false
        },
        {
          "address": "0x57558cb8d6005de0bae8a2789d5efaae52dba5a8",
          "topics": [
            "0x85496b760a4b7f8d66384b9df21b381f5d1b1e79f229a47aaf4c232edc2fe59a",
            "0xe491138a48e3998a7ea8d8737954398acad3b0732e0104720711b3ce30de8520",
            "0x000000000000000000000000741f0d8bde14140f62107fc60a0ee122b37d4630"
          ],
          "data": "0x00000000000000000000000000000000000000000000000000000000000076060000000000000000000000000000000000000000000000000de0b6b3a76400000000000000000000000000000000000000000000000000000de0b6b3a7640000",
          "blockHash": "0x207d1718f07c44cfb5cf625ae01237cbd19ca619b49ff21a64011ad9625138d1",
          "blockNumber": "0x213e710",
          "blockTimestamp": "0x68b22b03",
          "transactionHash": "0x2f9c52b1c098cfb026c47580e531be8e4fbaa3fa02c9690799495f9a06bc4b37",
          "transactionIndex": "0xe9",
          "logIndex": "0x1b4",
          "removed": false
        }
      ],
      "logsBloom": "0x0000000000000000000000000004004000000000000000000010000000100000000000000000000000000000000000042000010000020000000000000000000000000200000000000000041800000000000000000000000000000000000000010000000002000000800000000000080000000000001000000000001000000000000000000000000000000008000000000000000000000000000400000000001000000000a000001000100000000000000000000000400000000440000000000000000002000000000000000080000000000000000000000000000000000020000100040000000000000000000000002000000000018000000000000000000000",
      "type": "0x2",
      "transactionHash": "0x2f9c52b1c098cfb026c47580e531be8e4fbaa3fa02c9690799495f9a06bc4b37",
      "transactionIndex": "0xe9",
      "blockHash": "0x207d1718f07c44cfb5cf625ae01237cbd19ca619b49ff21a64011ad9625138d1",
      "blockNumber": "0x213e710",
      "gasUsed": "0xa34b7",
      "effectiveGasPrice": "0xa0ebe",
      "from": "0x45dce8e4f2dc005a5f28206a46cb034697eeda8e",
      "to": "0x741f0d8bde14140f62107fc60a0ee122b37d4630",
      "contractAddress": null,
      "l1BaseFeeScalar": "0x8dd",
      "l1BlobBaseFee": "0x1",
      "l1BlobBaseFeeScalar": "0x101c12",
      "l1Fee": "0x7a99391d",
      "l1GasPrice": "0x10679d76",
      "l1GasUsed": "0xcdd"
    }
  ],
  "libraries": [],
  "pending": [],
  "returns": {},
  "timestamp": 1756506884403,
  "chain": 8453,
  "commit": "63f364b"
}