{
  "transactions": [
    {
      "hash": "0xa2e4fcd8002bf0325f7da6f1474191a635f4814d1d8782019f76db1865f02eca",
      "transactionType": "CALL",
      "contractName": null,
      "contractAddress": "0x741f0d8bde14140f62107fc60a0ee122b37d4630",
      "function": "batchBridgeWithEthFeeFromWallet((uint32,bytes32,uint256,uint256,bytes,bytes,bytes)[],address[],address[])",
      "arguments": [
        "[(30367, 0x000000000000000000000000741f0d8bde14140f62107fc60a0ee122b37d4630, 500000000000000000, 0, 0x, 0x, 0x)]",
        "[0x57558Cb8d6005DE0BAe8a2789d5EfaaE52dba5a8]",
        "[0x741F0d8Bde14140f62107FC60A0EE122B37D4630]"
      ],
      "transaction": {
        "from": "0x45dce8e4f2dc005a5f28206a46cb034697eeda8e",
        "to": "0x741f0d8bde14140f62107fc60a0ee122b37d4630",
        "gas": "0x95056",
        "value": "0x4a857716cf6",
        "input": "0xb70d4241000000000000000000000000000000000000000000000000000000000000006000000000000000000000000000000000000000000000000000000000000001e0000000000000000000000000000000000000000000000000000000000000022000000000000000000000000000000000000000000000000000000000000000010000000000000000000000000000000000000000000000000000000000000020000000000000000000000000000000000000000000000000000000000000769f000000000000000000000000741f0d8bde14140f62107fc60a0ee122b37d463000000000000000000000000000000000000000000000000006f05b59d3b20000000000000000000000000000000000000000000000000000000000000000000000000000000000000000000000000000000000000000000000000000000000e000000000000000000000000000000000000000000000000000000000000001000000000000000000000000000000000000000000000000000000000000000120000000000000000000000000000000000000000000000000000000000000000000000000000000000000000000000000000000000000000000000000000000000000000000000000000000000000000000000000000000000000000000000000000000000000000000000000000000000000000000000000000000000000000100000000000000000000000057558cb8d6005de0bae8a2789d5efaae52dba5a80000000000000000000000000000000000000000000000000000000000000001000000000000000000000000741f0d8bde14140f62107fc60a0ee122b37d4630",
        "nonce": "0xc2",
        "chainId": "0x2105"
      },
      "additionalContracts": [],
      "isFixedGasLimit": false
    }
  ],
  "receipts": [
    {
      "status": "0x1",
      "cumulativeGasUsed": "0xa08afa",
      "logs": [
        {
          "address": "0x57558cb8d6005de0bae8a2789d5efaae52dba5a8",
          "topics": [
            "0xddf252ad1be2c89b69c2b068fc378daa952ba7f163c4a11628f55a4df523b3ef",
            "0x000000000000000000000000741f0d8bde14140f62107fc60a0ee122b37d4630",
            "0x0000000000000000000000000000000000000000000000000000000000000000"
          ],
          "data": "0x00000000000000000000000000000000000000000000000006f05b59d3b20000",
          "blockHash": "0x6bade3f8c0d58ca41e60d1934dd965ffc91b2cc6e9fe4da686ac23cdf9bd0ad1",
          "blockNumber": "0x21e0625",
          "blockTimestamp": "0x68c6692d",
          "transactionHash": "0xa2e4fcd8002bf0325f7da6f1474191a635f4814d1d8782019f76db1865f02eca",
          "transactionIndex": "0x39",
          "logIndex": "0xaa",
          "removed": false
        },
        {
          "address": "0xb5320b0b3a13cc860893e2bd79fcd7e13484dda2",
          "topics": [
            "0x61ed099e74a97a1d7f8bb0952a88ca8b7b8ebd00c126ea04671f92a81213318a"
          ],
          "data": "0x0000000000000000000000002cca08ae69e0c44b18a57ab2a87644234daebae40000000000000000000000000000000000000000000000000000045354ca9a42",
          "blockHash": "0x6bade3f8c0d58ca41e60d1934dd965ffc91b2cc6e9fe4da686ac23cdf9bd0ad1",
          "blockNumber": "0x21e0625",
          "blockTimestamp": "0x68c6692d",
          "transactionHash": "0xa2e4fcd8002bf0325f7da6f1474191a635f4814d1d8782019f76db1865f02eca",
          "transactionIndex": "0x39",
          "logIndex": "0xab",
          "removed": false
        },
        {
          "address": "0xb5320b0b3a13cc860893e2bd79fcd7e13484dda2",
          "topics": [
            "0x07ea52d82345d6e838192107d8fd7123d9c2ec8e916cd0aad13fd2b60db24644"
          ],
          "data": "0x000000000000000000000000000000000000000000000000000000000000006000000000000000000000000000000000000000000000000000000000000000e000000000000000000000000000000000000000000000000000000000000001000000000000000000000000000000000000000000000000000000000000000003000000000000000000000000187cf227f81c287303ee765ee001e151347faaa20000000000000000000000009e059a54699a285714207b43b055483e78faac25000000000000000000000000a7b5189bca84cd304d8553977c7c614329750d99000000000000000000000000000000000000000000000000000000000000000000000000000000000000000000000000000000000000000000000000000000030000000000000000000000000000000000000000000000000000001d1eb5c8da0000000000000000000000000000000000000000000000000000001bf1f884ed0000000000000000000000000000000000000000000000000000001bf1f884ed",
          "blockHash": "0x6bade3f8c0d58ca41e60d1934dd965ffc91b2cc6e9fe4da686ac23cdf9bd0ad1",
          "blockNumber": "0x21e0625",
          "blockTimestamp": "0x68c6692d",
          "transactionHash": "0xa2e4fcd8002bf0325f7da6f1474191a635f4814d1d8782019f76db1865f02eca",
          "transactionIndex": "0x39",
          "logIndex": "0xac",
          "removed": false
        },
        {
          "address": "0x1a44076050125825900e736c501f859c50fe728c",
          "topics": [
            "0x1ab700d4ced0c005b164c0f789fd09fcbb0156d4c2041b8a3bfbcd961cd1567f"
          ],
          "data": "0x00000000000000000000000000000000000000000000000000000000000000600000000000000000000000000000000000000000000000000000000000000120000000000000000000000000b5320b0b3a13cc860893e2bd79fcd7e13484dda20000000000000000000000000000000000000000000000000000000000000099010000000000000001000075e800000000000000000000000057558cb8d6005de0bae8a2789d5efaae52dba5a80000769f00000000000000000000000057558cb8d6005de0bae8a2789d5efaae52dba5a8c8bee2f978dc50c5dab57bbe7ad8550a4eff73ffb12f967b6685dfbe72e86752000000000000000000000000741f0d8bde14140f62107fc60a0ee122b37d4630000000000007a12000000000000000000000000000000000000000000000000000000000000000000000000000001600030100110100000000000000000000000000030d4000000000000000000000",
          "blockHash": "0x6bade3f8c0d58ca41e60d1934dd965ffc91b2cc6e9fe4da686ac23cdf9bd0ad1",
          "blockNumber": "0x21e0625",
          "blockTimestamp": "0x68c6692d",
          "transactionHash": "0xa2e4fcd8002bf0325f7da6f1474191a635f4814d1d8782019f76db1865f02eca",
          "transactionIndex": "0x39",
          "logIndex": "0xad",
          "removed": false
        },
        {
          "address": "0x57558cb8d6005de0bae8a2789d5efaae52dba5a8",
          "topics": [
            "0x85496b760a4b7f8d66384b9df21b381f5d1b1e79f229a47aaf4c232edc2fe59a",
            "0xc8bee2f978dc50c5dab57bbe7ad8550a4eff73ffb12f967b6685dfbe72e86752",
            "0x000000000000000000000000741f0d8bde14140f62107fc60a0ee122b37d4630"
          ],
          "data": "0x000000000000000000000000000000000000000000000000000000000000769f00000000000000000000000000000000000000000000000006f05b59d3b2000000000000000000000000000000000000000000000000000006f05b59d3b20000",
          "blockHash": "0x6bade3f8c0d58ca41e60d1934dd965ffc91b2cc6e9fe4da686ac23cdf9bd0ad1",
          "blockNumber": "0x21e0625",
          "blockTimestamp": "0x68c6692d",
          "transactionHash": "0xa2e4fcd8002bf0325f7da6f1474191a635f4814d1d8782019f76db1865f02eca",
          "transactionIndex": "0x39",
          "logIndex": "0xae",
          "removed": false
        }
      ],
      "logsBloom": "0x0000000000000000000000000004004000000000000000000000000000100000000000000000000000000000000000040000010000000000000000000000000000000200000000000000040800000000000000000000000000000000000000010000000002000000800000000000080000000000001000000000001000000000000000000000000000000008000000000000000000100000000400000000000000000000a000001000100000000000000000000000400000000440000000000000000002000000000000000080000000000000000000000000000080000020000000040000001000000000000000002000000000018000000000000000000000",
      "type": "0x2",
      "transactionHash": "0xa2e4fcd8002bf0325f7da6f1474191a635f4814d1d8782019f76db1865f02eca",
      "transactionIndex": "0x39",
      "blockHash": "0x6bade3f8c0d58ca41e60d1934dd965ffc91b2cc6e9fe4da686ac23cdf9bd0ad1",
      "blockNumber": "0x21e0625",
      "gasUsed": "0x65e51",
      "effectiveGasPrice": "0x1a386d",
      "from": "0x45dce8e4f2dc005a5f28206a46cb034697eeda8e",
      "to": "0x741f0d8bde14140f62107fc60a0ee122b37d4630",
      "contractAddress": null,
      "l1BaseFeeScalar": "0x8dd",
      "l1BlobBaseFee": "0x1",
      "l1BlobBaseFeeScalar": "0x101c12",
      "l1Fee": "0x33b71538",
      "l1GasPrice": "0x93355cd",
      "l1GasUsed": "0x9ad"
    }
  ],
  "libraries": [],
  "pending": [],
  "returns": {},
  "timestamp": 1757833516842,
  "chain": 8453,
  "commit": "691a08d"
}