{
  "transactions": [
    {
      "hash": "0x6c2468618682f530eb036cf1b65156340d21f0f3474d593f42f5b336d4f785fe",
      "transactionType": "CALL",
      "contractName": null,
      "contractAddress": "0x741f0d8bde14140f62107fc60a0ee122b37d4630",
      "function": "batchBridgeWithEthFeeFromWallet((uint32,bytes32,uint256,uint256,bytes,bytes,bytes)[],address[],address[])",
      "arguments": [
        "[(30370, 0x000000000000000000000000741f0d8bde14140f62107fc60a0ee122b37d4630, 1000000000000000000, 0, 0x, 0x, 0x)]",
        "[0x57558Cb8d6005DE0BAe8a2789d5EfaaE52dba5a8]",
        "[0x741F0d8Bde14140f62107FC60A0EE122B37D4630]"
      ],
      "transaction": {
        "from": "0x45dce8e4f2dc005a5f28206a46cb034697eeda8e",
        "to": "0x741f0d8bde14140f62107fc60a0ee122b37d4630",
        "gas": "0x95056",
        "value": "0x173be6a5f0bc",
        "input": "0xb70d4241000000000000000000000000000000000000000000000000000000000000006000000000000000000000000000000000000000000000000000000000000001e000000000000000000000000000000000000000000000000000000000000002200000000000000000000000000000000000000000000000000000000000000001000000000000000000000000000000000000000000000000000000000000002000000000000000000000000000000000000000000000000000000000000076a2000000000000000000000000741f0d8bde14140f62107fc60a0ee122b37d46300000000000000000000000000000000000000000000000000de0b6b3a7640000000000000000000000000000000000000000000000000000000000000000000000000000000000000000000000000000000000000000000000000000000000e000000000000000000000000000000000000000000000000000000000000001000000000000000000000000000000000000000000000000000000000000000120000000000000000000000000000000000000000000000000000000000000000000000000000000000000000000000000000000000000000000000000000000000000000000000000000000000000000000000000000000000000000000000000000000000000000000000000000000000000000000000000000000000000000100000000000000000000000057558cb8d6005de0bae8a2789d5efaae52dba5a80000000000000000000000000000000000000000000000000000000000000001000000000000000000000000741f0d8bde14140f62107fc60a0ee122b37d4630",
        "nonce": "0xa7",
        "chainId": "0x2105"
      },
      "additionalContracts": [],
      "isFixedGasLimit": false
    }
  ],
  "receipts": [
    {
      "status": "0x1",
      "cumulativeGasUsed": "0x158895d",
      "logs": [
        {
          "address": "0x57558cb8d6005de0bae8a2789d5efaae52dba5a8",
          "topics": [
            "0xddf252ad1be2c89b69c2b068fc378daa952ba7f163c4a11628f55a4df523b3ef",
            "0x000000000000000000000000741f0d8bde14140f62107fc60a0ee122b37d4630",
            "0x0000000000000000000000000000000000000000000000000000000000000000"
          ],
          "data": "0x0000000000000000000000000000000000000000000000000de0b6b3a7640000",
          "blockHash": "0x45d6a0321ddedc684b86af3ecea190c39809ba098b5aa081b37b96d53e122236",
          "blockNumber": "0x1f7b032",
          "transactionHash": "0x6c2468618682f530eb036cf1b65156340d21f0f3474d593f42f5b336d4f785fe",
          "transactionIndex": "0x4c",
          "logIndex": "0x242",
          "removed": false
        },
        {
          "address": "0xb5320b0b3a13cc860893e2bd79fcd7e13484dda2",
          "topics": [
            "0x61ed099e74a97a1d7f8bb0952a88ca8b7b8ebd00c126ea04671f92a81213318a"
          ],
          "data": "0x0000000000000000000000002cca08ae69e0c44b18a57ab2a87644234daebae400000000000000000000000000000000000000000000000000000dc767d4536d",
          "blockHash": "0x45d6a0321ddedc684b86af3ecea190c39809ba098b5aa081b37b96d53e122236",
          "blockNumber": "0x1f7b032",
          "transactionHash": "0x6c2468618682f530eb036cf1b65156340d21f0f3474d593f42f5b336d4f785fe",
          "transactionIndex": "0x4c",
          "logIndex": "0x243",
          "removed": false
        },
        {
          "address": "0xb5320b0b3a13cc860893e2bd79fcd7e13484dda2",
          "topics": [
            "0x07ea52d82345d6e838192107d8fd7123d9c2ec8e916cd0aad13fd2b60db24644"
          ],
          "data": "0x000000000000000000000000000000000000000000000000000000000000006000000000000000000000000000000000000000000000000000000000000000e000000000000000000000000000000000000000000000000000000000000001000000000000000000000000000000000000000000000000000000000000000003000000000000000000000000187cf227f81c287303ee765ee001e151347faaa20000000000000000000000009e059a54699a285714207b43b055483e78faac25000000000000000000000000a7b5189bca84cd304d8553977c7c614329750d99000000000000000000000000000000000000000000000000000000000000000000000000000000000000000000000000000000000000000000000000000000030000000000000000000000000000000000000000000000000000033d219008690000000000000000000000000000000000000000000000000000031baea0ca730000000000000000000000000000000000000000000000000000031baea0ca73",
          "blockHash": "0x45d6a0321ddedc684b86af3ecea190c39809ba098b5aa081b37b96d53e122236",
          "blockNumber": "0x1f7b032",
          "transactionHash": "0x6c2468618682f530eb036cf1b65156340d21f0f3474d593f42f5b336d4f785fe",
          "transactionIndex": "0x4c",
          "logIndex": "0x244",
          "removed": false
        },
        {
          "address": "0x1a44076050125825900e736c501f859c50fe728c",
          "topics": [
            "0x1ab700d4ced0c005b164c0f789fd09fcbb0156d4c2041b8a3bfbcd961cd1567f"
          ],
          "data": "0x00000000000000000000000000000000000000000000000000000000000000600000000000000000000000000000000000000000000000000000000000000120000000000000000000000000b5320b0b3a13cc860893e2bd79fcd7e13484dda20000000000000000000000000000000000000000000000000000000000000099010000000000000001000075e800000000000000000000000057558cb8d6005de0bae8a2789d5efaae52dba5a8000076a200000000000000000000000057558cb8d6005de0bae8a2789d5efaae52dba5a89422bddecfda48d7ac28517667fd8bbd94e701cf7dc4fdee2f3367c9e3c2ec4c000000000000000000000000741f0d8bde14140f62107fc60a0ee122b37d463000000000000f424000000000000000000000000000000000000000000000000000000000000000000000000000001600030100110100000000000000000000000000030d4000000000000000000000",
          "blockHash": "0x45d6a0321ddedc684b86af3ecea190c39809ba098b5aa081b37b96d53e122236",
          "blockNumber": "0x1f7b032",
          "transactionHash": "0x6c2468618682f530eb036cf1b65156340d21f0f3474d593f42f5b336d4f785fe",
          "transactionIndex": "0x4c",
          "logIndex": "0x245",
          "removed": false
        },
        {
          "address": "0x57558cb8d6005de0bae8a2789d5efaae52dba5a8",
          "topics": [
            "0x85496b760a4b7f8d66384b9df21b381f5d1b1e79f229a47aaf4c232edc2fe59a",
            "0x9422bddecfda48d7ac28517667fd8bbd94e701cf7dc4fdee2f3367c9e3c2ec4c",
            "0x000000000000000000000000741f0d8bde14140f62107fc60a0ee122b37d4630"
          ],
          "data": "0x00000000000000000000000000000000000000000000000000000000000076a20000000000000000000000000000000000000000000000000de0b6b3a76400000000000000000000000000000000000000000000000000000de0b6b3a7640000",
          "blockHash": "0x45d6a0321ddedc684b86af3ecea190c39809ba098b5aa081b37b96d53e122236",
          "blockNumber": "0x1f7b032",
          "transactionHash": "0x6c2468618682f530eb036cf1b65156340d21f0f3474d593f42f5b336d4f785fe",
          "transactionIndex": "0x4c",
          "logIndex": "0x246",
          "removed": false
        }
      ],
      "logsBloom": "0x0000000000000000000000000004004000000000000000000040000000100000000000000000000000000000000000040000010000000000000000000000000000000200000000000000040800000000000000000000000000000000000000010000000002000000800000000000080000000000001000000000001000000000000000000000000000000008000000000000000000000000000400000000000000000000a000001000100000000001000000000000400000000440000000000000000002000000000000000080000000000000000000080000000000000020000000040000000000000000000000002000000000018000000000000000000000",
      "type": "0x2",
      "transactionHash": "0x6c2468618682f530eb036cf1b65156340d21f0f3474d593f42f5b336d4f785fe",
      "transactionIndex": "0x4c",
      "blockHash": "0x45d6a0321ddedc684b86af3ecea190c39809ba098b5aa081b37b96d53e122236",
      "blockNumber": "0x1f7b032",
      "gasUsed": "0x65e51",
      "effectiveGasPrice": "0x844126",
      "from": "0x45dce8e4f2dc005a5f28206a46cb034697eeda8e",
      "to": "0x741f0d8bde14140f62107fc60a0ee122b37d4630",
      "contractAddress": null,
      "l1BaseFeeScalar": "0x8dd",
      "l1BlobBaseFee": "0x1",
      "l1BlobBaseFeeScalar": "0x101c12",
      "l1Fee": "0x44ed3e735",
      "l1GasPrice": "0xc325b437",
      "l1GasUsed": "0x9ba"
    }
  ],
  "libraries": [],
  "pending": [],
  "returns": {},
  "timestamp": 1752808777,
  "chain": 8453,
  "commit": "c079579"
}