{
  "transactions": [
    {
      "hash": "0x838737c275d2a687d0624c89757635471e0c124dfd976cf0aafd5566d8e63eda",
      "transactionType": "CALL",
      "contractName": null,
      "contractAddress": "0x741f0d8bde14140f62107fc60a0ee122b37d4630",
      "function": "batchBridgeWithEthFeeFromWallet((uint32,bytes32,uint256,uint256,bytes,bytes,bytes)[],address[],address[])",
      "arguments": [
        "[(30255, 0x000000000000000000000000741f0d8bde14140f62107fc60a0ee122b37d4630, 10000000000000, 0, 0x, 0x, 0x), (30255, 0x000000000000000000000000741f0d8bde14140f62107fc60a0ee122b37d4630, 10000000000000, 0, 0x, 0x, 0x), (30255, 0x000000000000000000000000741f0d8bde14140f62107fc60a0ee122b37d4630, 10000000000000, 0, 0x, 0x, 0x), (30255, 0x000000000000000000000000741f0d8bde14140f62107fc60a0ee122b37d4630, 10000000000000, 0, 0x, 0x, 0x), (30255, 0x000000000000000000000000741f0d8bde14140f62107fc60a0ee122b37d4630, 10000000000000, 0, 0x, 0x, 0x), (30255, 0x000000000000000000000000741f0d8bde14140f62107fc60a0ee122b37d4630, 10000000000000, 0, 0x, 0x, 0x)]",
        "[0x80Eede496655FB9047dd39d9f418d5483ED600df, 0x5Bff88cA1442c2496f7E475E9e7786383Bc070c0, 0x43eDD7f3831b08FE70B7555ddD373C8bF65a9050, 0x3Ec3849C33291a9eF4c5dB86De593EB4A37fDe45, 0x64445f0aecC51E94aD52d8AC56b7190e764E561a, 0x90581eCa9469D8D7F5D3B60f4715027aDFCf7927]",
        "[0x741F0d8Bde14140f62107FC60A0EE122B37D4630, 0x741F0d8Bde14140f62107FC60A0EE122B37D4630, 0x741F0d8Bde14140f62107FC60A0EE122B37D4630, 0x741F0d8Bde14140f62107FC60A0EE122B37D4630, 0x741F0d8Bde14140f62107FC60A0EE122B37D4630, 0x741F0d8Bde14140f62107FC60A0EE122B37D4630]"
      ],
      "transaction": {
        "from": "0x45dce8e4f2dc005a5f28206a46cb034697eeda8e",
        "to": "0x741f0d8bde14140f62107fc60a0ee122b37d4630",
        "gas": "0x22e09d",
        "value": "0x386597e328974a52",
        "input": "0xb70d4241000000000000000000000000000000000000000000000000000000000000006000000000000000000000000000000000000000000000000000000000000008c000000000000000000000000000000000000000000000000000000000000009a0000000000000000000000000000000000000000000000000000000000000000600000000000000000000000000000000000000000000000000000000000000c000000000000000000000000000000000000000000000000000000000000002000000000000000000000000000000000000000000000000000000000000000340000000000000000000000000000000000000000000000000000000000000048000000000000000000000000000000000000000000000000000000000000005c00000000000000000000000000000000000000000000000000000000000000700000000000000000000000000000000000000000000000000000000000000762f000000000000000000000000741f0d8bde14140f62107fc60a0ee122b37d4630000000000000000000000000000000000000000000000000000009184e72a000000000000000000000000000000000000000000000000000000000000000000000000000000000000000000000000000000000000000000000000000000000e000000000000000000000000000000000000000000000000000000000000001000000000000000000000000000000000000000000000000000000000000000120000000000000000000000000000000000000000000000000000000000000000000000000000000000000000000000000000000000000000000000000000000000000000000000000000000000000000000000000000000000000000000000000000000000000000000000000000000000000000000000000000000000000762f000000000000000000000000741f0d8bde14140f62107fc60a0ee122b37d4630000000000000000000000000000000000000000000000000000009184e72a000000000000000000000000000000000000000000000000000000000000000000000000000000000000000000000000000000000000000000000000000000000e000000000000000000000000000000000000000000000000000000000000001000000000000000000000000000000000000000000000000000000000000000120000000000000000000000000000000000000000000000000000000000000000000000000000000000000000000000000000000000000000000000000000000000000000000000000000000000000000000000000000000000000000000000000000000000000000000000000000000000000000000000000000000000000762f000000000000000000000000741f0d8bde14140f62107fc60a0ee122b37d4630000000000000000000000000000000000000000000000000000009184e72a000000000000000000000000000000000000000000000000000000000000000000000000000000000000000000000000000000000000000000000000000000000e000000000000000000000000000000000000000000000000000000000000001000000000000000000000000000000000000000000000000000000000000000120000000000000000000000000000000000000000000000000000000000000000000000000000000000000000000000000000000000000000000000000000000000000000000000000000000000000000000000000000000000000000000000000000000000000000000000000000000000000000000000000000000000000762f000000000000000000000000741f0d8bde14140f62107fc60a0ee122b37d4630000000000000000000000000000000000000000000000000000009184e72a000000000000000000000000000000000000000000000000000000000000000000000000000000000000000000000000000000000000000000000000000000000e000000000000000000000000000000000000000000000000000000000000001000000000000000000000000000000000000000000000000000000000000000120000000000000000000000000000000000000000000000000000000000000000000000000000000000000000000000000000000000000000000000000000000000000000000000000000000000000000000000000000000000000000000000000000000000000000000000000000000000000000000000000000000000000762f000000000000000000000000741f0d8bde14140f62107fc60a0ee122b37d4630000000000000000000000000000000000000000000000000000009184e72a000000000000000000000000000000000000000000000000000000000000000000000000000000000000000000000000000000000000000000000000000000000e000000000000000000000000000000000000000000000000000000000000001000000000000000000000000000000000000000000000000000000000000000120000000000000000000000000000000000000000000000000000000000000000000000000000000000000000000000000000000000000000000000000000000000000000000000000000000000000000000000000000000000000000000000000000000000000000000000000000000000000000000000000000000000000762f000000000000000000000000741f0d8bde14140f62107fc60a0ee122b37d4630000000000000000000000000000000000000000000000000000009184e72a000000000000000000000000000000000000000000000000000000000000000000000000000000000000000000000000000000000000000000000000000000000e000000000000000000000000000000000000000000000000000000000000001000000000000000000000000000000000000000000000000000000000000000120000000000000000000000000000000000000000000000000000000000000000000000000000000000000000000000000000000000000000000000000000000000000000000000000000000000000000000000000000000000000000000000000000000000000000000000000000000000000000000000000000000000000000600000000000000000000000080eede496655fb9047dd39d9f418d5483ed600df0000000000000000000000005bff88ca1442c2496f7e475e9e7786383bc070c000000000000000000000000043edd7f3831b08fe70b7555ddd373c8bf65a90500000000000000000000000003ec3849c33291a9ef4c5db86de593eb4a37fde4500000000000000000000000064445f0aecc51e94ad52d8ac56b7190e764e561a00000000000000000000000090581eca9469d8d7f5d3b60f4715027adfcf79270000000000000000000000000000000000000000000000000000000000000006000000000000000000000000741f0d8bde14140f62107fc60a0ee122b37d4630000000000000000000000000741f0d8bde14140f62107fc60a0ee122b37d4630000000000000000000000000741f0d8bde14140f62107fc60a0ee122b37d4630000000000000000000000000741f0d8bde14140f62107fc60a0ee122b37d4630000000000000000000000000741f0d8bde14140f62107fc60a0ee122b37d4630000000000000000000000000741f0d8bde14140f62107fc60a0ee122b37d4630",
        "nonce": "0x6f",
        "chainId": "0x18232"
      },
      "additionalContracts": [],
      "isFixedGasLimit": false
    }
  ],
  "receipts": [
    {
      "status": "0x1",
      "cumulativeGasUsed": "0x194028",
      "logs": [
        {
          "address": "0x80eede496655fb9047dd39d9f418d5483ed600df",
          "topics": [
            "0xddf252ad1be2c89b69c2b068fc378daa952ba7f163c4a11628f55a4df523b3ef",
            "0x000000000000000000000000741f0d8bde14140f62107fc60a0ee122b37d4630",
            "0x0000000000000000000000000000000000000000000000000000000000000000"
          ],
          "data": "0x000000000000000000000000000000000000000000000000000009184e72a000",
          "blockHash": "0xddc4b96cd63ae387efe3ceb6a03cad710d4c298e6cb1e17a5185ca327953bc72",
          "blockNumber": "0xddda57",
          "transactionHash": "0x838737c275d2a687d0624c89757635471e0c124dfd976cf0aafd5566d8e63eda",
          "transactionIndex": "0x1",
          "logIndex": "0x0",
          "removed": false
        },
        {
          "address": "0xfe7c30860d01e28371d40434806f4a8fcdd3a098",
          "topics": [
            "0x61ed099e74a97a1d7f8bb0952a88ca8b7b8ebd00c126ea04671f92a81213318a"
          ],
          "data": "0x00000000000000000000000041bdb4aa4a63a5b2efc531858d3118392b1a1c3d000000000000000000000000000000000000000000000000031444efb472f54e",
          "blockHash": "0xddc4b96cd63ae387efe3ceb6a03cad710d4c298e6cb1e17a5185ca327953bc72",
          "blockNumber": "0xddda57",
          "transactionHash": "0x838737c275d2a687d0624c89757635471e0c124dfd976cf0aafd5566d8e63eda",
          "transactionIndex": "0x1",
          "logIndex": "0x1",
          "removed": false
        },
        {
          "address": "0xfe7c30860d01e28371d40434806f4a8fcdd3a098",
          "topics": [
            "0x07ea52d82345d6e838192107d8fd7123d9c2ec8e916cd0aad13fd2b60db24644"
          ],
          "data": "0x000000000000000000000000000000000000000000000000000000000000006000000000000000000000000000000000000000000000000000000000000000e0000000000000000000000000000000000000000000000000000000000000010000000000000000000000000000000000000000000000000000000000000000030000000000000000000000001e4ce74ccf5498b19900649d9196e64bab5924510000000000000000000000004208d6e27538189bb48e603d6123a94b8abe0a0b0000000000000000000000005e0744f8fbf26446c683bcf4cd405ad56ba76f8a00000000000000000000000000000000000000000000000000000000000000000000000000000000000000000000000000000000000000000000000000000003000000000000000000000000000000000000000000000000021b5503d453dd07000000000000000000000000000000000000000000000000021b5503d453dd07000000000000000000000000000000000000000000000000021b5503d453dd07",
          "blockHash": "0xddc4b96cd63ae387efe3ceb6a03cad710d4c298e6cb1e17a5185ca327953bc72",
          "blockNumber": "0xddda57",
          "transactionHash": "0x838737c275d2a687d0624c89757635471e0c124dfd976cf0aafd5566d8e63eda",
          "transactionIndex": "0x1",
          "logIndex": "0x2",
          "removed": false
        },
        {
          "address": "0xc1b15d3b262beec0e3565c11c9e0f6134bdacb36",
          "topics": [
            "0x1ab700d4ced0c005b164c0f789fd09fcbb0156d4c2041b8a3bfbcd961cd1567f"
          ],
          "data": "0x00000000000000000000000000000000000000000000000000000000000000600000000000000000000000000000000000000000000000000000000000000120000000000000000000000000fe7c30860d01e28371d40434806f4a8fcdd3a0980000000000000000000000000000000000000000000000000000000000000099010000000000000002000076a200000000000000000000000080eede496655fb9047dd39d9f418d5483ed600df0000762f00000000000000000000000096a394058e2b84a89bac9667b19661ed003cf5d478dc7d561efb9e3aa6cec7eb13148171a9c4a73c76368b30dde08c84edf2429a000000000000000000000000741f0d8bde14140f62107fc60a0ee122b37d4630000000000000000a00000000000000000000000000000000000000000000000000000000000000000000000000001600030100110100000000000000000000000000030d4000000000000000000000",
          "blockHash": "0xddc4b96cd63ae387efe3ceb6a03cad710d4c298e6cb1e17a5185ca327953bc72",
          "blockNumber": "0xddda57",
          "transactionHash": "0x838737c275d2a687d0624c89757635471e0c124dfd976cf0aafd5566d8e63eda",
          "transactionIndex": "0x1",
          "logIndex": "0x3",
          "removed": false
        },
        {
          "address": "0x80eede496655fb9047dd39d9f418d5483ed600df",
          "topics": [
            "0x85496b760a4b7f8d66384b9df21b381f5d1b1e79f229a47aaf4c232edc2fe59a",
            "0x78dc7d561efb9e3aa6cec7eb13148171a9c4a73c76368b30dde08c84edf2429a",
            "0x000000000000000000000000741f0d8bde14140f62107fc60a0ee122b37d4630"
          ],
          "data": "0x000000000000000000000000000000000000000000000000000000000000762f000000000000000000000000000000000000000000000000000009184e72a000000000000000000000000000000000000000000000000000000009184e72a000",
          "blockHash": "0xddc4b96cd63ae387efe3ceb6a03cad710d4c298e6cb1e17a5185ca327953bc72",
          "blockNumber": "0xddda57",
          "transactionHash": "0x838737c275d2a687d0624c89757635471e0c124dfd976cf0aafd5566d8e63eda",
          "transactionIndex": "0x1",
          "logIndex": "0x4",
          "removed": false
        },
        {
          "address": "0x5bff88ca1442c2496f7e475e9e7786383bc070c0",
          "topics": [
            "0xddf252ad1be2c89b69c2b068fc378daa952ba7f163c4a11628f55a4df523b3ef",
            "0x000000000000000000000000741f0d8bde14140f62107fc60a0ee122b37d4630",
            "0x0000000000000000000000000000000000000000000000000000000000000000"
          ],
          "data": "0x000000000000000000000000000000000000000000000000000009184e72a000",
          "blockHash": "0xddc4b96cd63ae387efe3ceb6a03cad710d4c298e6cb1e17a5185ca327953bc72",
          "blockNumber": "0xddda57",
          "transactionHash": "0x838737c275d2a687d0624c89757635471e0c124dfd976cf0aafd5566d8e63eda",
          "transactionIndex": "0x1",
          "logIndex": "0x5",
          "removed": false
        },
        {
          "address": "0xfe7c30860d01e28371d40434806f4a8fcdd3a098",
          "topics": [
            "0x61ed099e74a97a1d7f8bb0952a88ca8b7b8ebd00c126ea04671f92a81213318a"
          ],
          "data": "0x00000000000000000000000041bdb4aa4a63a5b2efc531858d3118392b1a1c3d000000000000000000000000000000000000000000000000031444efb472f54e",
          "blockHash": "0xddc4b96cd63ae387efe3ceb6a03cad710d4c298e6cb1e17a5185ca327953bc72",
          "blockNumber": "0xddda57",
          "transactionHash": "0x838737c275d2a687d0624c89757635471e0c124dfd976cf0aafd5566d8e63eda",
          "transactionIndex": "0x1",
          "logIndex": "0x6",
          "removed": false
        },
        {
          "address": "0xfe7c30860d01e28371d40434806f4a8fcdd3a098",
          "topics": [
            "0x07ea52d82345d6e838192107d8fd7123d9c2ec8e916cd0aad13fd2b60db24644"
          ],
          "data": "0x000000000000000000000000000000000000000000000000000000000000006000000000000000000000000000000000000000000000000000000000000000e0000000000000000000000000000000000000000000000000000000000000010000000000000000000000000000000000000000000000000000000000000000030000000000000000000000001e4ce74ccf5498b19900649d9196e64bab5924510000000000000000000000004208d6e27538189bb48e603d6123a94b8abe0a0b0000000000000000000000005e0744f8fbf26446c683bcf4cd405ad56ba76f8a00000000000000000000000000000000000000000000000000000000000000000000000000000000000000000000000000000000000000000000000000000003000000000000000000000000000000000000000000000000021b5503d453dd07000000000000000000000000000000000000000000000000021b5503d453dd07000000000000000000000000000000000000000000000000021b5503d453dd07",
          "blockHash": "0xddc4b96cd63ae387efe3ceb6a03cad710d4c298e6cb1e17a5185ca327953bc72",
          "blockNumber": "0xddda57",
          "transactionHash": "0x838737c275d2a687d0624c89757635471e0c124dfd976cf0aafd5566d8e63eda",
          "transactionIndex": "0x1",
          "logIndex": "0x7",
          "removed": false
        },
        {
          "address": "0xc1b15d3b262beec0e3565c11c9e0f6134bdacb36",
          "topics": [
            "0x1ab700d4ced0c005b164c0f789fd09fcbb0156d4c2041b8a3bfbcd961cd1567f"
          ],
          "data": "0x00000000000000000000000000000000000000000000000000000000000000600000000000000000000000000000000000000000000000000000000000000120000000000000000000000000fe7c30860d01e28371d40434806f4a8fcdd3a0980000000000000000000000000000000000000000000000000000000000000099010000000000000002000076a20000000000000000000000005bff88ca1442c2496f7e475e9e7786383bc070c00000762f00000000000000000000000088aa7854d3b2daa5e37e7ce73a1f39669623a361ea7099fe606638e83f4c850829d2b7381787c88b553bb007b3c1822e860c8fb9000000000000000000000000741f0d8bde14140f62107fc60a0ee122b37d4630000000000000000a00000000000000000000000000000000000000000000000000000000000000000000000000001600030100110100000000000000000000000000030d4000000000000000000000",
          "blockHash": "0xddc4b96cd63ae387efe3ceb6a03cad710d4c298e6cb1e17a5185ca327953bc72",
          "blockNumber": "0xddda57",
          "transactionHash": "0x838737c275d2a687d0624c89757635471e0c124dfd976cf0aafd5566d8e63eda",
          "transactionIndex": "0x1",
          "logIndex": "0x8",
          "removed": false
        },
        {
          "address": "0x5bff88ca1442c2496f7e475e9e7786383bc070c0",
          "topics": [
            "0x85496b760a4b7f8d66384b9df21b381f5d1b1e79f229a47aaf4c232edc2fe59a",
            "0xea7099fe606638e83f4c850829d2b7381787c88b553bb007b3c1822e860c8fb9",
            "0x000000000000000000000000741f0d8bde14140f62107fc60a0ee122b37d4630"
          ],
          "data": "0x000000000000000000000000000000000000000000000000000000000000762f000000000000000000000000000000000000000000000000000009184e72a000000000000000000000000000000000000000000000000000000009184e72a000",
          "blockHash": "0xddc4b96cd63ae387efe3ceb6a03cad710d4c298e6cb1e17a5185ca327953bc72",
          "blockNumber": "0xddda57",
          "transactionHash": "0x838737c275d2a687d0624c89757635471e0c124dfd976cf0aafd5566d8e63eda",
          "transactionIndex": "0x1",
          "logIndex": "0x9",
          "removed": false
        },
        {
          "address": "0x43edd7f3831b08fe70b7555ddd373c8bf65a9050",
          "topics": [
            "0xddf252ad1be2c89b69c2b068fc378daa952ba7f163c4a11628f55a4df523b3ef",
            "0x000000000000000000000000741f0d8bde14140f62107fc60a0ee122b37d4630",
            "0x0000000000000000000000000000000000000000000000000000000000000000"
          ],
          "data": "0x000000000000000000000000000000000000000000000000000009184e72a000",
          "blockHash": "0xddc4b96cd63ae387efe3ceb6a03cad710d4c298e6cb1e17a5185ca327953bc72",
          "blockNumber": "0xddda57",
          "transactionHash": "0x838737c275d2a687d0624c89757635471e0c124dfd976cf0aafd5566d8e63eda",
          "transactionIndex": "0x1",
          "logIndex": "0xa",
          "removed": false
        },
        {
          "address": "0xfe7c30860d01e28371d40434806f4a8fcdd3a098",
          "topics": [
            "0x61ed099e74a97a1d7f8bb0952a88ca8b7b8ebd00c126ea04671f92a81213318a"
          ],
          "data": "0x00000000000000000000000041bdb4aa4a63a5b2efc531858d3118392b1a1c3d000000000000000000000000000000000000000000000000031444efb472f54e",
          "blockHash": "0xddc4b96cd63ae387efe3ceb6a03cad710d4c298e6cb1e17a5185ca327953bc72",
          "blockNumber": "0xddda57",
          "transactionHash": "0x838737c275d2a687d0624c89757635471e0c124dfd976cf0aafd5566d8e63eda",
          "transactionIndex": "0x1",
          "logIndex": "0xb",
          "removed": false
        },
        {
          "address": "0xfe7c30860d01e28371d40434806f4a8fcdd3a098",
          "topics": [
            "0x07ea52d82345d6e838192107d8fd7123d9c2ec8e916cd0aad13fd2b60db24644"
          ],
          "data": "0x000000000000000000000000000000000000000000000000000000000000006000000000000000000000000000000000000000000000000000000000000000e0000000000000000000000000000000000000000000000000000000000000010000000000000000000000000000000000000000000000000000000000000000030000000000000000000000001e4ce74ccf5498b19900649d9196e64bab5924510000000000000000000000004208d6e27538189bb48e603d6123a94b8abe0a0b0000000000000000000000005e0744f8fbf26446c683bcf4cd405ad56ba76f8a00000000000000000000000000000000000000000000000000000000000000000000000000000000000000000000000000000000000000000000000000000003000000000000000000000000000000000000000000000000021b5503d453dd07000000000000000000000000000000000000000000000000021b5503d453dd07000000000000000000000000000000000000000000000000021b5503d453dd07",
          "blockHash": "0xddc4b96cd63ae387efe3ceb6a03cad710d4c298e6cb1e17a5185ca327953bc72",
          "blockNumber": "0xddda57",
          "transactionHash": "0x838737c275d2a687d0624c89757635471e0c124dfd976cf0aafd5566d8e63eda",
          "transactionIndex": "0x1",
          "logIndex": "0xc",
          "removed": false
        },
        {
          "address": "0xc1b15d3b262beec0e3565c11c9e0f6134bdacb36",
          "topics": [
            "0x1ab700d4ced0c005b164c0f789fd09fcbb0156d4c2041b8a3bfbcd961cd1567f"
          ],
          "data": "0x00000000000000000000000000000000000000000000000000000000000000600000000000000000000000000000000000000000000000000000000000000120000000000000000000000000fe7c30860d01e28371d40434806f4a8fcdd3a0980000000000000000000000000000000000000000000000000000000000000099010000000000000002000076a200000000000000000000000043edd7f3831b08fe70b7555ddd373c8bf65a90500000762f0000000000000000000000009abfe1f8a999b0011ecd6116649aee8d575f5604c07cf4256ba2fadc90f514d906f2d3476f8ff6030e5d568c9fe80246c4d0b42a000000000000000000000000741f0d8bde14140f62107fc60a0ee122b37d4630000000000000000a00000000000000000000000000000000000000000000000000000000000000000000000000001600030100110100000000000000000000000000030d4000000000000000000000",
          "blockHash": "0xddc4b96cd63ae387efe3ceb6a03cad710d4c298e6cb1e17a5185ca327953bc72",
          "blockNumber": "0xddda57",
          "transactionHash": "0x838737c275d2a687d0624c89757635471e0c124dfd976cf0aafd5566d8e63eda",
          "transactionIndex": "0x1",
          "logIndex": "0xd",
          "removed": false
        },
        {
          "address": "0x43edd7f3831b08fe70b7555ddd373c8bf65a9050",
          "topics": [
            "0x85496b760a4b7f8d66384b9df21b381f5d1b1e79f229a47aaf4c232edc2fe59a",
            "0xc07cf4256ba2fadc90f514d906f2d3476f8ff6030e5d568c9fe80246c4d0b42a",
            "0x000000000000000000000000741f0d8bde14140f62107fc60a0ee122b37d4630"
          ],
          "data": "0x000000000000000000000000000000000000000000000000000000000000762f000000000000000000000000000000000000000000000000000009184e72a000000000000000000000000000000000000000000000000000000009184e72a000",
          "blockHash": "0xddc4b96cd63ae387efe3ceb6a03cad710d4c298e6cb1e17a5185ca327953bc72",
          "blockNumber": "0xddda57",
          "transactionHash": "0x838737c275d2a687d0624c89757635471e0c124dfd976cf0aafd5566d8e63eda",
          "transactionIndex": "0x1",
          "logIndex": "0xe",
          "removed": false
        },
        {
          "address": "0x3ec3849c33291a9ef4c5db86de593eb4a37fde45",
          "topics": [
            "0xddf252ad1be2c89b69c2b068fc378daa952ba7f163c4a11628f55a4df523b3ef",
            "0x000000000000000000000000741f0d8bde14140f62107fc60a0ee122b37d4630",
            "0x0000000000000000000000000000000000000000000000000000000000000000"
          ],
          "data": "0x000000000000000000000000000000000000000000000000000009184e72a000",
          "blockHash": "0xddc4b96cd63ae387efe3ceb6a03cad710d4c298e6cb1e17a5185ca327953bc72",
          "blockNumber": "0xddda57",
          "transactionHash": "0x838737c275d2a687d0624c89757635471e0c124dfd976cf0aafd5566d8e63eda",
          "transactionIndex": "0x1",
          "logIndex": "0xf",
          "removed": false
        },
        {
          "address": "0xfe7c30860d01e28371d40434806f4a8fcdd3a098",
          "topics": [
            "0x61ed099e74a97a1d7f8bb0952a88ca8b7b8ebd00c126ea04671f92a81213318a"
          ],
          "data": "0x00000000000000000000000041bdb4aa4a63a5b2efc531858d3118392b1a1c3d000000000000000000000000000000000000000000000000031444efb472f54e",
          "blockHash": "0xddc4b96cd63ae387efe3ceb6a03cad710d4c298e6cb1e17a5185ca327953bc72",
          "blockNumber": "0xddda57",
          "transactionHash": "0x838737c275d2a687d0624c89757635471e0c124dfd976cf0aafd5566d8e63eda",
          "transactionIndex": "0x1",
          "logIndex": "0x10",
          "removed": false
        },
        {
          "address": "0xfe7c30860d01e28371d40434806f4a8fcdd3a098",
          "topics": [
            "0x07ea52d82345d6e838192107d8fd7123d9c2ec8e916cd0aad13fd2b60db24644"
          ],
          "data": "0x000000000000000000000000000000000000000000000000000000000000006000000000000000000000000000000000000000000000000000000000000000e0000000000000000000000000000000000000000000000000000000000000010000000000000000000000000000000000000000000000000000000000000000030000000000000000000000001e4ce74ccf5498b19900649d9196e64bab5924510000000000000000000000004208d6e27538189bb48e603d6123a94b8abe0a0b0000000000000000000000005e0744f8fbf26446c683bcf4cd405ad56ba76f8a00000000000000000000000000000000000000000000000000000000000000000000000000000000000000000000000000000000000000000000000000000003000000000000000000000000000000000000000000000000021b5503d453dd07000000000000000000000000000000000000000000000000021b5503d453dd07000000000000000000000000000000000000000000000000021b5503d453dd07",
          "blockHash": "0xddc4b96cd63ae387efe3ceb6a03cad710d4c298e6cb1e17a5185ca327953bc72",
          "blockNumber": "0xddda57",
          "transactionHash": "0x838737c275d2a687d0624c89757635471e0c124dfd976cf0aafd5566d8e63eda",
          "transactionIndex": "0x1",
          "logIndex": "0x11",
          "removed": false
        },
        {
          "address": "0xc1b15d3b262beec0e3565c11c9e0f6134bdacb36",
          "topics": [
            "0x1ab700d4ced0c005b164c0f789fd09fcbb0156d4c2041b8a3bfbcd961cd1567f"
          ],
          "data": "0x00000000000000000000000000000000000000000000000000000000000000600000000000000000000000000000000000000000000000000000000000000120000000000000000000000000fe7c30860d01e28371d40434806f4a8fcdd3a0980000000000000000000000000000000000000000000000000000000000000099010000000000000002000076a20000000000000000000000003ec3849c33291a9ef4c5db86de593eb4a37fde450000762f000000000000000000000000999dfabe3b1cc2ef66eb032eea42fea329bba1684948c8298b353884c7154420d415a2258a01b51a692ab2b34fb47f927873d4a6000000000000000000000000741f0d8bde14140f62107fc60a0ee122b37d4630000000000000000a00000000000000000000000000000000000000000000000000000000000000000000000000001600030100110100000000000000000000000000030d4000000000000000000000",
          "blockHash": "0xddc4b96cd63ae387efe3ceb6a03cad710d4c298e6cb1e17a5185ca327953bc72",
          "blockNumber": "0xddda57",
          "transactionHash": "0x838737c275d2a687d0624c89757635471e0c124dfd976cf0aafd5566d8e63eda",
          "transactionIndex": "0x1",
          "logIndex": "0x12",
          "removed": false
        },
        {
          "address": "0x3ec3849c33291a9ef4c5db86de593eb4a37fde45",
          "topics": [
            "0x85496b760a4b7f8d66384b9df21b381f5d1b1e79f229a47aaf4c232edc2fe59a",
            "0x4948c8298b353884c7154420d415a2258a01b51a692ab2b34fb47f927873d4a6",
            "0x000000000000000000000000741f0d8bde14140f62107fc60a0ee122b37d4630"
          ],
          "data": "0x000000000000000000000000000000000000000000000000000000000000762f000000000000000000000000000000000000000000000000000009184e72a000000000000000000000000000000000000000000000000000000009184e72a000",
          "blockHash": "0xddc4b96cd63ae387efe3ceb6a03cad710d4c298e6cb1e17a5185ca327953bc72",
          "blockNumber": "0xddda57",
          "transactionHash": "0x838737c275d2a687d0624c89757635471e0c124dfd976cf0aafd5566d8e63eda",
          "transactionIndex": "0x1",
          "logIndex": "0x13",
          "removed": false
        },
        {
          "address": "0x64445f0aecc51e94ad52d8ac56b7190e764e561a",
          "topics": [
            "0xddf252ad1be2c89b69c2b068fc378daa952ba7f163c4a11628f55a4df523b3ef",
            "0x000000000000000000000000741f0d8bde14140f62107fc60a0ee122b37d4630",
            "0x0000000000000000000000000000000000000000000000000000000000000000"
          ],
          "data": "0x000000000000000000000000000000000000000000000000000009184e72a000",
          "blockHash": "0xddc4b96cd63ae387efe3ceb6a03cad710d4c298e6cb1e17a5185ca327953bc72",
          "blockNumber": "0xddda57",
          "transactionHash": "0x838737c275d2a687d0624c89757635471e0c124dfd976cf0aafd5566d8e63eda",
          "transactionIndex": "0x1",
          "logIndex": "0x14",
          "removed": false
        },
        {
          "address": "0xfe7c30860d01e28371d40434806f4a8fcdd3a098",
          "topics": [
            "0x61ed099e74a97a1d7f8bb0952a88ca8b7b8ebd00c126ea04671f92a81213318a"
          ],
          "data": "0x00000000000000000000000041bdb4aa4a63a5b2efc531858d3118392b1a1c3d000000000000000000000000000000000000000000000000031444efb472f54e",
          "blockHash": "0xddc4b96cd63ae387efe3ceb6a03cad710d4c298e6cb1e17a5185ca327953bc72",
          "blockNumber": "0xddda57",
          "transactionHash": "0x838737c275d2a687d0624c89757635471e0c124dfd976cf0aafd5566d8e63eda",
          "transactionIndex": "0x1",
          "logIndex": "0x15",
          "removed": false
        },
        {
          "address": "0xfe7c30860d01e28371d40434806f4a8fcdd3a098",
          "topics": [
            "0x07ea52d82345d6e838192107d8fd7123d9c2ec8e916cd0aad13fd2b60db24644"
          ],
          "data": "0x000000000000000000000000000000000000000000000000000000000000006000000000000000000000000000000000000000000000000000000000000000e0000000000000000000000000000000000000000000000000000000000000010000000000000000000000000000000000000000000000000000000000000000030000000000000000000000001e4ce74ccf5498b19900649d9196e64bab5924510000000000000000000000004208d6e27538189bb48e603d6123a94b8abe0a0b0000000000000000000000005e0744f8fbf26446c683bcf4cd405ad56ba76f8a00000000000000000000000000000000000000000000000000000000000000000000000000000000000000000000000000000000000000000000000000000003000000000000000000000000000000000000000000000000021b5503d453dd07000000000000000000000000000000000000000000000000021b5503d453dd07000000000000000000000000000000000000000000000000021b5503d453dd07",
          "blockHash": "0xddc4b96cd63ae387efe3ceb6a03cad710d4c298e6cb1e17a5185ca327953bc72",
          "blockNumber": "0xddda57",
          "transactionHash": "0x838737c275d2a687d0624c89757635471e0c124dfd976cf0aafd5566d8e63eda",
          "transactionIndex": "0x1",
          "logIndex": "0x16",
          "removed": false
        },
        {
          "address": "0xc1b15d3b262beec0e3565c11c9e0f6134bdacb36",
          "topics": [
            "0x1ab700d4ced0c005b164c0f789fd09fcbb0156d4c2041b8a3bfbcd961cd1567f"
          ],
          "data": "0x00000000000000000000000000000000000000000000000000000000000000600000000000000000000000000000000000000000000000000000000000000120000000000000000000000000fe7c30860d01e28371d40434806f4a8fcdd3a0980000000000000000000000000000000000000000000000000000000000000099010000000000000002000076a200000000000000000000000064445f0aecc51e94ad52d8ac56b7190e764e561a0000762f000000000000000000000000d86fbbd0c8715d2c1f40e451e5c3514e65e7576a102ddc05759638d619237fb4d4135dde9079d68188c96328a5ca343b3b93dc1b000000000000000000000000741f0d8bde14140f62107fc60a0ee122b37d4630000000000000000a00000000000000000000000000000000000000000000000000000000000000000000000000001600030100110100000000000000000000000000030d4000000000000000000000",
          "blockHash": "0xddc4b96cd63ae387efe3ceb6a03cad710d4c298e6cb1e17a5185ca327953bc72",
          "blockNumber": "0xddda57",
          "transactionHash": "0x838737c275d2a687d0624c89757635471e0c124dfd976cf0aafd5566d8e63eda",
          "transactionIndex": "0x1",
          "logIndex": "0x17",
          "removed": false
        },
        {
          "address": "0x64445f0aecc51e94ad52d8ac56b7190e764e561a",
          "topics": [
            "0x85496b760a4b7f8d66384b9df21b381f5d1b1e79f229a47aaf4c232edc2fe59a",
            "0x102ddc05759638d619237fb4d4135dde9079d68188c96328a5ca343b3b93dc1b",
            "0x000000000000000000000000741f0d8bde14140f62107fc60a0ee122b37d4630"
          ],
          "data": "0x000000000000000000000000000000000000000000000000000000000000762f000000000000000000000000000000000000000000000000000009184e72a000000000000000000000000000000000000000000000000000000009184e72a000",
          "blockHash": "0xddc4b96cd63ae387efe3ceb6a03cad710d4c298e6cb1e17a5185ca327953bc72",
          "blockNumber": "0xddda57",
          "transactionHash": "0x838737c275d2a687d0624c89757635471e0c124dfd976cf0aafd5566d8e63eda",
          "transactionIndex": "0x1",
          "logIndex": "0x18",
          "removed": false
        },
        {
          "address": "0x90581eca9469d8d7f5d3b60f4715027adfcf7927",
          "topics": [
            "0xddf252ad1be2c89b69c2b068fc378daa952ba7f163c4a11628f55a4df523b3ef",
            "0x000000000000000000000000741f0d8bde14140f62107fc60a0ee122b37d4630",
            "0x0000000000000000000000000000000000000000000000000000000000000000"
          ],
          "data": "0x000000000000000000000000000000000000000000000000000009184e72a000",
          "blockHash": "0xddc4b96cd63ae387efe3ceb6a03cad710d4c298e6cb1e17a5185ca327953bc72",
          "blockNumber": "0xddda57",
          "transactionHash": "0x838737c275d2a687d0624c89757635471e0c124dfd976cf0aafd5566d8e63eda",
          "transactionIndex": "0x1",
          "logIndex": "0x19",
          "removed": false
        },
        {
          "address": "0xfe7c30860d01e28371d40434806f4a8fcdd3a098",
          "topics": [
            "0x61ed099e74a97a1d7f8bb0952a88ca8b7b8ebd00c126ea04671f92a81213318a"
          ],
          "data": "0x00000000000000000000000041bdb4aa4a63a5b2efc531858d3118392b1a1c3d000000000000000000000000000000000000000000000000031444efb472f54e",
          "blockHash": "0xddc4b96cd63ae387efe3ceb6a03cad710d4c298e6cb1e17a5185ca327953bc72",
          "blockNumber": "0xddda57",
          "transactionHash": "0x838737c275d2a687d0624c89757635471e0c124dfd976cf0aafd5566d8e63eda",
          "transactionIndex": "0x1",
          "logIndex": "0x1a",
          "removed": false
        },
        {
          "address": "0xfe7c30860d01e28371d40434806f4a8fcdd3a098",
          "topics": [
            "0x07ea52d82345d6e838192107d8fd7123d9c2ec8e916cd0aad13fd2b60db24644"
          ],
          "data": "0x000000000000000000000000000000000000000000000000000000000000006000000000000000000000000000000000000000000000000000000000000000e0000000000000000000000000000000000000000000000000000000000000010000000000000000000000000000000000000000000000000000000000000000030000000000000000000000001e4ce74ccf5498b19900649d9196e64bab5924510000000000000000000000004208d6e27538189bb48e603d6123a94b8abe0a0b0000000000000000000000005e0744f8fbf26446c683bcf4cd405ad56ba76f8a00000000000000000000000000000000000000000000000000000000000000000000000000000000000000000000000000000000000000000000000000000003000000000000000000000000000000000000000000000000021b5503d453dd07000000000000000000000000000000000000000000000000021b5503d453dd07000000000000000000000000000000000000000000000000021b5503d453dd07",
          "blockHash": "0xddc4b96cd63ae387efe3ceb6a03cad710d4c298e6cb1e17a5185ca327953bc72",
          "blockNumber": "0xddda57",
          "transactionHash": "0x838737c275d2a687d0624c89757635471e0c124dfd976cf0aafd5566d8e63eda",
          "transactionIndex": "0x1",
          "logIndex": "0x1b",
          "removed": false
        },
        {
          "address": "0xc1b15d3b262beec0e3565c11c9e0f6134bdacb36",
          "topics": [
            "0x1ab700d4ced0c005b164c0f789fd09fcbb0156d4c2041b8a3bfbcd961cd1567f"
          ],
          "data": "0x00000000000000000000000000000000000000000000000000000000000000600000000000000000000000000000000000000000000000000000000000000120000000000000000000000000fe7c30860d01e28371d40434806f4a8fcdd3a0980000000000000000000000000000000000000000000000000000000000000099010000000000000002000076a200000000000000000000000090581eca9469d8d7f5d3b60f4715027adfcf79270000762f00000000000000000000000075c38d46001b0f8108c4136216bd2694982c20fc9b055d9793b8a5754a28d70f1a4962668afaee4a2128ec6e772488517dd92213000000000000000000000000741f0d8bde14140f62107fc60a0ee122b37d4630000000000000000a00000000000000000000000000000000000000000000000000000000000000000000000000001600030100110100000000000000000000000000030d4000000000000000000000",
          "blockHash": "0xddc4b96cd63ae387efe3ceb6a03cad710d4c298e6cb1e17a5185ca327953bc72",
          "blockNumber": "0xddda57",
          "transactionHash": "0x838737c275d2a687d0624c89757635471e0c124dfd976cf0aafd5566d8e63eda",
          "transactionIndex": "0x1",
          "logIndex": "0x1c",
          "removed": false
        },
        {
          "address": "0x90581eca9469d8d7f5d3b60f4715027adfcf7927",
          "topics": [
            "0x85496b760a4b7f8d66384b9df21b381f5d1b1e79f229a47aaf4c232edc2fe59a",
            "0x9b055d9793b8a5754a28d70f1a4962668afaee4a2128ec6e772488517dd92213",
            "0x000000000000000000000000741f0d8bde14140f62107fc60a0ee122b37d4630"
          ],
          "data": "0x000000000000000000000000000000000000000000000000000000000000762f000000000000000000000000000000000000000000000000000009184e72a000000000000000000000000000000000000000000000000000000009184e72a000",
          "blockHash": "0xddc4b96cd63ae387efe3ceb6a03cad710d4c298e6cb1e17a5185ca327953bc72",
          "blockNumber": "0xddda57",
          "transactionHash": "0x838737c275d2a687d0624c89757635471e0c124dfd976cf0aafd5566d8e63eda",
          "transactionIndex": "0x1",
          "logIndex": "0x1d",
          "removed": false
        }
      ],
      "logsBloom": "0x000000000010000000000800000020400000000000000000000000000000000000000000000200000000020058000000000001000000000c0000000200000000002002800000000000000008000000000000000000000000000000000000000002000000020004008000000000000800000000010000000000000010010000000000000000001004800010080000000000000000000020000040000000008000000000008000001002104008000000000200000000400000000440000010010000000042000000000000010080001000000100800000000000000000000020004000040000000000000000040000002000400008008000000000000000080820",
      "type": "0x2",
      "transactionHash": "0x838737c275d2a687d0624c89757635471e0c124dfd976cf0aafd5566d8e63eda",
      "transactionIndex": "0x1",
      "blockHash": "0xddc4b96cd63ae387efe3ceb6a03cad710d4c298e6cb1e17a5185ca327953bc72",
      "blockNumber": "0xddda57",
      "gasUsed": "0x194028",
      "effectiveGasPrice": "0xe8d4a51000",
      "from": "0x45dce8e4f2dc005a5f28206a46cb034697eeda8e",
      "to": "0x741f0d8bde14140f62107fc60a0ee122b37d4630",
      "contractAddress": null,
      "gasUsedForL1": "0x0",
      "l1BlockNumber": "0x15ed51f"
    }
  ],
  "libraries": [],
  "pending": [],
  "returns": {},
  "timestamp": 1753398119,
  "chain": 98866,
  "commit": "26d2116"
}