{
  "transactions": [
    {
      "hash": "0x9bc46ebdd820e17aca7553c6aa29d218b52bb7f737927b8ce8f06f32650e3df5",
      "transactionType": "CALL",
      "contractName": null,
      "contractAddress": "0x0768c16445b41137f98ab68ca545c0afd65a7513",
      "function": "send((uint32,bytes32,uint256,uint256,bytes,bytes,bytes),(uint256,uint256),address)",
      "arguments": [
        "(40161, 0x000000000000000000000000009ff4940727c274424c16999f9632223d820b0b, 500000000000000000, 0, 0x, 0x, 0x)",
        "(17033339710294, 0)",
        "0x009fF4940727C274424c16999F9632223d820b0b"
      ],
      "transaction": {
        "from": "0x009ff4940727c274424c16999f9632223d820b0b",
        "to": "0x0768c16445b41137f98ab68ca545c0afd65a7513",
        "gas": "0x5dd75",
        "value": "0xf7de229ab56",
        "input": "0xc7c7f5b3000000000000000000000000000000000000000000000000000000000000008000000000000000000000000000000000000000000000000000000f7de229ab560000000000000000000000000000000000000000000000000000000000000000000000000000000000000000009ff4940727c274424c16999f9632223d820b0b0000000000000000000000000000000000000000000000000000000000009ce1000000000000000000000000009ff4940727c274424c16999f9632223d820b0b00000000000000000000000000000000000000000000000006f05b59d3b20000000000000000000000000000000000000000000000000000000000000000000000000000000000000000000000000000000000000000000000000000000000e000000000000000000000000000000000000000000000000000000000000001000000000000000000000000000000000000000000000000000000000000000120000000000000000000000000000000000000000000000000000000000000000000000000000000000000000000000000000000000000000000000000000000000000000000000000000000000000000000000000000000000000000000000000",
        "nonce": "0x20",
        "chainId": "0x66eee"
      },
      "additionalContracts": [],
      "isFixedGasLimit": false
    }
  ],
  "receipts": [
    {
      "status": "0x1",
      "cumulativeGasUsed": "0x7ed3b",
      "logs": [
        {
          "address": "0x0768c16445b41137f98ab68ca545c0afd65a7513",
          "topics": [
            "0xddf252ad1be2c89b69c2b068fc378daa952ba7f163c4a11628f55a4df523b3ef",
            "0x000000000000000000000000009ff4940727c274424c16999f9632223d820b0b",
            "0x0000000000000000000000000000000000000000000000000000000000000000"
          ],
          "data": "0x00000000000000000000000000000000000000000000000006f05b59d3b20000",
          "blockHash": "0xe7d1468abe4634eb65f51f3fe4642e2ae8cd1f5d6d94f5394d3b403d7684dd69",
          "blockNumber": "0x8b60dd6",
          "transactionHash": "0x9bc46ebdd820e17aca7553c6aa29d218b52bb7f737927b8ce8f06f32650e3df5",
          "transactionIndex": "0x4",
          "logIndex": "0x5",
          "removed": false
        },
        {
          "address": "0x4f7cd4da19abb31b0ec98b9066b9e857b1bf9c0e",
          "topics": [
            "0x61ed099e74a97a1d7f8bb0952a88ca8b7b8ebd00c126ea04671f92a81213318a"
          ],
          "data": "0x0000000000000000000000005df3a1cebbd9c8ba7f8df51fd632a9aef83088970000000000000000000000000000000000000000000000000000030712413060",
          "blockHash": "0xe7d1468abe4634eb65f51f3fe4642e2ae8cd1f5d6d94f5394d3b403d7684dd69",
          "blockNumber": "0x8b60dd6",
          "transactionHash": "0x9bc46ebdd820e17aca7553c6aa29d218b52bb7f737927b8ce8f06f32650e3df5",
          "transactionIndex": "0x4",
          "logIndex": "0x6",
          "removed": false
        },
        {
          "address": "0x4f7cd4da19abb31b0ec98b9066b9e857b1bf9c0e",
          "topics": [
            "0x07ea52d82345d6e838192107d8fd7123d9c2ec8e916cd0aad13fd2b60db24644"
          ],
          "data": "0x000000000000000000000000000000000000000000000000000000000000006000000000000000000000000000000000000000000000000000000000000000c000000000000000000000000000000000000000000000000000000000000000e0000000000000000000000000000000000000000000000000000000000000000200000000000000000000000053f488e93b4f1b60e8e83aa374dbe1780a1ee8a8000000000000000000000000cdb4933d7f37560186aca8fdadfd5a3b3e27b088000000000000000000000000000000000000000000000000000000000000000000000000000000000000000000000000000000000000000000000000000000020000000000000000000000000000000000000000000000000000063882fffb7b0000000000000000000000000000000000000000000000000000063e4ce87f7b",
          "blockHash": "0xe7d1468abe4634eb65f51f3fe4642e2ae8cd1f5d6d94f5394d3b403d7684dd69",
          "blockNumber": "0x8b60dd6",
          "transactionHash": "0x9bc46ebdd820e17aca7553c6aa29d218b52bb7f737927b8ce8f06f32650e3df5",
          "transactionIndex": "0x4",
          "logIndex": "0x7",
          "removed": false
        },
        {
          "address": "0x6edce65403992e310a62460808c4b910d972f10f",
          "topics": [
            "0x1ab700d4ced0c005b164c0f789fd09fcbb0156d4c2041b8a3bfbcd961cd1567f"
          ],
          "data": "0x000000000000000000000000000000000000000000000000000000000000006000000000000000000000000000000000000000000000000000000000000001200000000000000000000000004f7cd4da19abb31b0ec98b9066b9e857b1bf9c0e000000000000000000000000000000000000000000000000000000000000009901000000000000000100009d270000000000000000000000000768c16445b41137f98ab68ca545c0afd65a751300009ce100000000000000000000000029a5134d3b22f47ad52e0a22a63247363e9f35c2e7a48d7cccfbb33791229a161edfdb9fd0a25263ea79cc737783db1e60ed6673000000000000000000000000009ff4940727c274424c16999f9632223d820b0b000000000007a12000000000000000000000000000000000000000000000000000000000000000000000000000001600030100110100000000000000000000000000030d4000000000000000000000",
          "blockHash": "0xe7d1468abe4634eb65f51f3fe4642e2ae8cd1f5d6d94f5394d3b403d7684dd69",
          "blockNumber": "0x8b60dd6",
          "transactionHash": "0x9bc46ebdd820e17aca7553c6aa29d218b52bb7f737927b8ce8f06f32650e3df5",
          "transactionIndex": "0x4",
          "logIndex": "0x8",
          "removed": false
        },
        {
          "address": "0x0768c16445b41137f98ab68ca545c0afd65a7513",
          "topics": [
            "0x85496b760a4b7f8d66384b9df21b381f5d1b1e79f229a47aaf4c232edc2fe59a",
            "0xe7a48d7cccfbb33791229a161edfdb9fd0a25263ea79cc737783db1e60ed6673",
            "0x000000000000000000000000009ff4940727c274424c16999f9632223d820b0b"
          ],
          "data": "0x0000000000000000000000000000000000000000000000000000000000009ce100000000000000000000000000000000000000000000000006f05b59d3b2000000000000000000000000000000000000000000000000000006f05b59d3b20000",
          "blockHash": "0xe7d1468abe4634eb65f51f3fe4642e2ae8cd1f5d6d94f5394d3b403d7684dd69",
          "blockNumber": "0x8b60dd6",
          "transactionHash": "0x9bc46ebdd820e17aca7553c6aa29d218b52bb7f737927b8ce8f06f32650e3df5",
          "transactionIndex": "0x4",
          "logIndex": "0x9",
          "removed": false
        }
      ],
      "logsBloom": "0x00000000000000000000000000000000000000000000000000000000000000000000000000000400204000000000004000000000008000000000000000000000000002000000000000000008000000000000000000000000000000000000000000000000020000008200000100000800000000000000000000000010000000000000000000000020004000084000000000000000000000050000000000000000000000008000000000102000000000000000000000400000000440000020000000000002000000000000000080000000000000000000000100000000000020000000040000000000000000000000002000000000008000000000000000000000",
      "type": "0x2",
      "transactionHash": "0x9bc46ebdd820e17aca7553c6aa29d218b52bb7f737927b8ce8f06f32650e3df5",
      "transactionIndex": "0x4",
      "blockHash": "0xe7d1468abe4634eb65f51f3fe4642e2ae8cd1f5d6d94f5394d3b403d7684dd69",
      "blockNumber": "0x8b60dd6",
      "gasUsed": "0x45f20",
      "effectiveGasPrice": "0x5f5e100",
      "from": "0x009ff4940727c274424c16999f9632223d820b0b",
      "to": "0x0768c16445b41137f98ab68ca545c0afd65a7513",
      "contractAddress": null,
      "gasUsedForL1": "0x0",
      "l1BlockNumber": "0x7cf3df",
      "timeboosted": false
    }
  ],
  "libraries": [],
  "pending": [],
  "returns": {},
  "timestamp": 1745535456,
  "chain": 421614,
  "commit": "0123d99"
}