{
  "transactions": [
    {
      "hash": "0x4c2cdc6ed1005fcf4735a1a0d43b4daad53ecceb0cf1c98e0c12183ae723d140",
      "transactionType": "CALL",
      "contractName": null,
      "contractAddress": "0x103c430c9fcaa863ea90386e3d0d5cd53333876e",
      "function": "setEnforcedOptions((uint32,uint16,bytes)[])",
      "arguments": [
        "[(30255, 1, 0x00030100110100000000000000000000000000030d40), (30255, 2, 0x0003010011010000000000000000000000000003d090)]"
      ],
      "transaction": {
        "from": "0x0990be6db8c785fbbf9ded8baec612a10cae814b",
        "to": "0x103c430c9fcaa863ea90386e3d0d5cd53333876e",
        "gas": "0x1d9fb",
        "value": "0x0",
        "input": "0xb98bd07000000000000000000000000000000000000000000000000000000000000000200000000000000000000000000000000000000000000000000000000000000002000000000000000000000000000000000000000000000000000000000000004000000000000000000000000000000000000000000000000000000000000000e0000000000000000000000000000000000000000000000000000000000000762f00000000000000000000000000000000000000000000000000000000000000010000000000000000000000000000000000000000000000000000000000000060000000000000000000000000000000000000000000000000000000000000001600030100110100000000000000000000000000030d4000000000000000000000000000000000000000000000000000000000000000000000000000000000762f0000000000000000000000000000000000000000000000000000000000000002000000000000000000000000000000000000000000000000000000000000006000000000000000000000000000000000000000000000000000000000000000160003010011010000000000000000000000000003d09000000000000000000000",
        "nonce": "0x232",
        "chainId": "0xfc"
      },
      "additionalContracts": [],
      "isFixedGasLimit": false
    },
    {
      "hash": "0x431d459c593c8523d56434e8146adb5e37255c07abbf1eb521f302d04663d5a7",
      "transactionType": "CALL",
      "contractName": null,
      "contractAddress": "0x103c430c9fcaa863ea90386e3d0d5cd53333876e",
      "function": "setPeer(uint32,bytes32)",
      "arguments": [
        "30255",
        "0x000000000000000000000000103c430c9fcaa863ea90386e3d0d5cd53333876e"
      ],
      "transaction": {
        "from": "0x0990be6db8c785fbbf9ded8baec612a10cae814b",
        "to": "0x103c430c9fcaa863ea90386e3d0d5cd53333876e",
        "gas": "0x128e1",
        "value": "0x0",
        "input": "0x3400288b000000000000000000000000000000000000000000000000000000000000762f000000000000000000000000103c430c9fcaa863ea90386e3d0d5cd53333876e",
        "nonce": "0x233",
        "chainId": "0xfc"
      },
      "additionalContracts": [],
      "isFixedGasLimit": false
    },
    {
      "hash": "0xaabbfb95d7f427c5863fb7a82ecfb58d273acd31fe5650ba4b3e0f3b20899462",
      "transactionType": "CALL",
      "contractName": null,
      "contractAddress": "0x1a44076050125825900e736c501f859c50fe728c",
      "function": "setConfig(address,address,(uint32,uint32,bytes)[])",
      "arguments": [
        "0x103C430c9Fcaa863EA90386e3d0d5cd53333876e",
        "0x8bC1e36F015b9902B54b1387A4d733cebc2f5A4e",
        "[(30255, 2, 0x0000000000000000000000000000000000000000000000000000000000000020000000000000000000000000000000000000000000000000000000000000000000000000000000000000000000000000000000000000000000000000000000020000000000000000000000000000000000000000000000000000000000000000000000000000000000000000000000000000000000000000000000000000000000000000000000000000000000000000000000000000000000000000000000c000000000000000000000000000000000000000000000000000000000000001200000000000000000000000000000000000000000000000000000000000000002000000000000000000000000cce466a522984415bc91338c232d98869193d46e000000000000000000000000dd7b5e1db4aafd5c8ec3b764efb8ed265aa5445b0000000000000000000000000000000000000000000000000000000000000000)]"
      ],
      "transaction": {
        "from": "0x0990be6db8c785fbbf9ded8baec612a10cae814b",
        "to": "0x1a44076050125825900e736c501f859c50fe728c",
        "gas": "0x319ea",
        "value": "0x0",
        "input": "0x6dbd9f90000000000000000000000000103c430c9fcaa863ea90386e3d0d5cd53333876e0000000000000000000000008bc1e36f015b9902b54b1387a4d733cebc2f5a4e000000000000000000000000000000000000000000000000000000000000006000000000000000000000000000000000000000000000000000000000000000010000000000000000000000000000000000000000000000000000000000000020000000000000000000000000000000000000000000000000000000000000762f0000000000000000000000000000000000000000000000000000000000000002000000000000000000000000000000000000000000000000000000000000006000000000000000000000000000000000000000000000000000000000000001600000000000000000000000000000000000000000000000000000000000000020000000000000000000000000000000000000000000000000000000000000000000000000000000000000000000000000000000000000000000000000000000020000000000000000000000000000000000000000000000000000000000000000000000000000000000000000000000000000000000000000000000000000000000000000000000000000000000000000000000000000000000000000000000c000000000000000000000000000000000000000000000000000000000000001200000000000000000000000000000000000000000000000000000000000000002000000000000000000000000cce466a522984415bc91338c232d98869193d46e000000000000000000000000dd7b5e1db4aafd5c8ec3b764efb8ed265aa5445b0000000000000000000000000000000000000000000000000000000000000000",
        "nonce": "0x234",
        "chainId": "0xfc"
      },
      "additionalContracts": [],
      "isFixedGasLimit": false
    },
    {
      "hash": "0x540e4a2f4d5ac3a315be02ce9e8d7dcc7d0c214ae1ffa9fe6c228a9e15a0a9ab",
      "transactionType": "CALL",
      "contractName": null,
      "contractAddress": "0x1a44076050125825900e736c501f859c50fe728c",
      "function": "setConfig(address,address,(uint32,uint32,bytes)[])",
      "arguments": [
        "0x103C430c9Fcaa863EA90386e3d0d5cd53333876e",
        "0x377530cdA84DFb2673bF4d145DCF0C4D7fdcB5b6",
        "[(30255, 2, 0x0000000000000000000000000000000000000000000000000000000000000020000000000000000000000000000000000000000000000000000000000000000000000000000000000000000000000000000000000000000000000000000000020000000000000000000000000000000000000000000000000000000000000000000000000000000000000000000000000000000000000000000000000000000000000000000000000000000000000000000000000000000000000000000000c000000000000000000000000000000000000000000000000000000000000001200000000000000000000000000000000000000000000000000000000000000002000000000000000000000000cce466a522984415bc91338c232d98869193d46e000000000000000000000000dd7b5e1db4aafd5c8ec3b764efb8ed265aa5445b0000000000000000000000000000000000000000000000000000000000000000)]"
      ],
      "transaction": {
        "from": "0x0990be6db8c785fbbf9ded8baec612a10cae814b",
        "to": "0x1a44076050125825900e736c501f859c50fe728c",
        "gas": "0x2ef2a",
        "value": "0x0",
        "input": "0x6dbd9f90000000000000000000000000103c430c9fcaa863ea90386e3d0d5cd53333876e000000000000000000000000377530cda84dfb2673bf4d145dcf0c4d7fdcb5b6000000000000000000000000000000000000000000000000000000000000006000000000000000000000000000000000000000000000000000000000000000010000000000000000000000000000000000000000000000000000000000000020000000000000000000000000000000000000000000000000000000000000762f0000000000000000000000000000000000000000000000000000000000000002000000000000000000000000000000000000000000000000000000000000006000000000000000000000000000000000000000000000000000000000000001600000000000000000000000000000000000000000000000000000000000000020000000000000000000000000000000000000000000000000000000000000000000000000000000000000000000000000000000000000000000000000000000020000000000000000000000000000000000000000000000000000000000000000000000000000000000000000000000000000000000000000000000000000000000000000000000000000000000000000000000000000000000000000000000c000000000000000000000000000000000000000000000000000000000000001200000000000000000000000000000000000000000000000000000000000000002000000000000000000000000cce466a522984415bc91338c232d98869193d46e000000000000000000000000dd7b5e1db4aafd5c8ec3b764efb8ed265aa5445b0000000000000000000000000000000000000000000000000000000000000000",
        "nonce": "0x235",
        "chainId": "0xfc"
      },
      "additionalContracts": [],
      "isFixedGasLimit": false
    }
  ],
  "receipts": [
    {
      "status": "0x1",
      "cumulativeGasUsed": "0x20b05",
      "logs": [
        {
          "address": "0x103c430c9fcaa863ea90386e3d0d5cd53333876e",
          "topics": [
            "0xbe4864a8e820971c0247f5992e2da559595f7bf076a21cb5928d443d2a13b674"
          ],
          "data": "0x00000000000000000000000000000000000000000000000000000000000000200000000000000000000000000000000000000000000000000000000000000002000000000000000000000000000000000000000000000000000000000000004000000000000000000000000000000000000000000000000000000000000000e0000000000000000000000000000000000000000000000000000000000000762f00000000000000000000000000000000000000000000000000000000000000010000000000000000000000000000000000000000000000000000000000000060000000000000000000000000000000000000000000000000000000000000001600030100110100000000000000000000000000030d4000000000000000000000000000000000000000000000000000000000000000000000000000000000762f0000000000000000000000000000000000000000000000000000000000000002000000000000000000000000000000000000000000000000000000000000006000000000000000000000000000000000000000000000000000000000000000160003010011010000000000000000000000000003d09000000000000000000000",
          "blockHash": "0xf4b3b77e76f59a43eb7da7601d90f7910041832412f17faaff447d9563c0116f",
          "blockNumber": "0x105dd1f",
          "transactionHash": "0x4c2cdc6ed1005fcf4735a1a0d43b4daad53ecceb0cf1c98e0c12183ae723d140",
          "transactionIndex": "0x1",
          "logIndex": "0x0",
          "removed": false
        }
      ],
      "logsBloom": "0x00000000000000000000000000000000000000000000000000000000000000000000000000000000000000000000000000000000000000000000400000000000000000000000000000000000000000000000000000000000000000000000000000000000000000000000000000000000000000000000000000000000000000000000000000000000000000000000000000000000000000000000000000080000000000000000000000000000000000000000000000080000000000000000010000000000000000000000000002000000000000000000000000000040000000000000000000000000000000000000000000000000000000000000000000000000",
      "type": "0x2",
      "transactionHash": "0x4c2cdc6ed1005fcf4735a1a0d43b4daad53ecceb0cf1c98e0c12183ae723d140",
      "transactionIndex": "0x1",
      "blockHash": "0xf4b3b77e76f59a43eb7da7601d90f7910041832412f17faaff447d9563c0116f",
      "blockNumber": "0x105dd1f",
      "gasUsed": "0x15728",
      "effectiveGasPrice": "0xfe",
      "from": "0x0990be6db8c785fbbf9ded8baec612a10cae814b",
      "to": "0x103c430c9fcaa863ea90386e3d0d5cd53333876e",
      "contractAddress": null,
      "l1BaseFeeScalar": "0xc350",
      "l1BlobBaseFee": "0x1a28f",
      "l1BlobBaseFeeScalar": "0x0",
      "l1Fee": "0xfb276e9a4",
      "l1GasPrice": "0x26786e51",
      "l1GasUsed": "0x829"
    },
    {
      "status": "0x1",
      "cumulativeGasUsed": "0x2e1f5",
      "logs": [
        {
          "address": "0x103c430c9fcaa863ea90386e3d0d5cd53333876e",
          "topics": [
            "0x238399d427b947898edb290f5ff0f9109849b1c3ba196a42e35f00c50a54b98b"
          ],
          "data": "0x000000000000000000000000000000000000000000000000000000000000762f000000000000000000000000103c430c9fcaa863ea90386e3d0d5cd53333876e",
          "blockHash": "0xf4b3b77e76f59a43eb7da7601d90f7910041832412f17faaff447d9563c0116f",
          "blockNumber": "0x105dd1f",
          "transactionHash": "0x431d459c593c8523d56434e8146adb5e37255c07abbf1eb521f302d04663d5a7",
          "transactionIndex": "0x2",
          "logIndex": "0x1",
          "removed": false
        }
      ],
      "logsBloom": "0x00000000000000000000000000000000000000000000000000000000000000000000000000000000000000000000000000000000000000000800000000000000000000000000000000000000000000000000000000000000000000000000000000000000000000000000000000000000000000000000000000000000000000000000000000000000000000000000000000000000000000000000000000000000000000000000000000000000000000000000000000080000000002000000010000000000000000000000000000000000000000000000000000040040000000000000000000000000000000000000000000000000000000000000000000000000",
      "type": "0x2",
      "transactionHash": "0x431d459c593c8523d56434e8146adb5e37255c07abbf1eb521f302d04663d5a7",
      "transactionIndex": "0x2",
      "blockHash": "0xf4b3b77e76f59a43eb7da7601d90f7910041832412f17faaff447d9563c0116f",
      "blockNumber": "0x105dd1f",
      "gasUsed": "0xd6f0",
      "effectiveGasPrice": "0xfe",
      "from": "0x0990be6db8c785fbbf9ded8baec612a10cae814b",
      "to": "0x103c430c9fcaa863ea90386e3d0d5cd53333876e",
      "contractAddress": null,
      "l1BaseFeeScalar": "0xc350",
      "l1BlobBaseFee": "0x1a28f",
      "l1BlobBaseFeeScalar": "0x0",
      "l1Fee": "0xc05a27950",
      "l1GasPrice": "0x26786e51",
      "l1GasUsed": "0x640"
    },
    {
      "status": "0x1",
      "cumulativeGasUsed": "0x500ce",
      "logs": [
        {
          "address": "0x8bc1e36f015b9902b54b1387a4d733cebc2f5a4e",
          "topics": [
            "0x82118522aa536ac0e96cc5c689407ae42b89d592aa133890a01f1509842f5081"
          ],
          "data": "0x000000000000000000000000103c430c9fcaa863ea90386e3d0d5cd53333876e000000000000000000000000000000000000000000000000000000000000762f0000000000000000000000000000000000000000000000000000000000000060000000000000000000000000000000000000000000000000000000000000000000000000000000000000000000000000000000000000000000000000000000020000000000000000000000000000000000000000000000000000000000000000000000000000000000000000000000000000000000000000000000000000000000000000000000000000000000000000000000000000000000000000000000c000000000000000000000000000000000000000000000000000000000000001200000000000000000000000000000000000000000000000000000000000000002000000000000000000000000cce466a522984415bc91338c232d98869193d46e000000000000000000000000dd7b5e1db4aafd5c8ec3b764efb8ed265aa5445b0000000000000000000000000000000000000000000000000000000000000000",
          "blockHash": "0xf4b3b77e76f59a43eb7da7601d90f7910041832412f17faaff447d9563c0116f",
          "blockNumber": "0x105dd1f",
          "transactionHash": "0xaabbfb95d7f427c5863fb7a82ecfb58d273acd31fe5650ba4b3e0f3b20899462",
          "transactionIndex": "0x3",
          "logIndex": "0x2",
          "removed": false
        }
      ],
      "logsBloom": "0x00000000000000000000000000000000000000000000000000000000000000000000000000000000000000000000000000010000000000000000000000001000000000000000000000000000000000000000000000000000002000000000000000000000000000000000000000000000000000000000000000000000000000000000000000000000000000000000000000000000000000000000000000000000000000000000000000000402000000000000000000000000000000000000000000000000000000000000000000000000000000000000000000000000000000000000000000000000000000000000000000000000000000000000000000000010",
      "type": "0x2",
      "transactionHash": "0xaabbfb95d7f427c5863fb7a82ecfb58d273acd31fe5650ba4b3e0f3b20899462",
      "transactionIndex": "0x3",
      "blockHash": "0xf4b3b77e76f59a43eb7da7601d90f7910041832412f17faaff447d9563c0116f",
      "blockNumber": "0x105dd1f",
      "gasUsed": "0x21ed9",
      "effectiveGasPrice": "0xfe",
      "from": "0x0990be6db8c785fbbf9ded8baec612a10cae814b",
      "to": "0x1a44076050125825900e736c501f859c50fe728c",
      "contractAddress": null,
      "l1BaseFeeScalar": "0xc350",
      "l1BlobBaseFee": "0x1a28f",
      "l1BlobBaseFeeScalar": "0x0",
      "l1Fee": "0x183ebd5c46",
      "l1GasPrice": "0x26786e51",
      "l1GasUsed": "0xc9a"
    },
    {
      "status": "0x1",
      "cumulativeGasUsed": "0x720a3",
      "logs": [
        {
          "address": "0x377530cda84dfb2673bf4d145dcf0c4d7fdcb5b6",
          "topics": [
            "0x82118522aa536ac0e96cc5c689407ae42b89d592aa133890a01f1509842f5081"
          ],
          "data": "0x000000000000000000000000103c430c9fcaa863ea90386e3d0d5cd53333876e000000000000000000000000000000000000000000000000000000000000762f0000000000000000000000000000000000000000000000000000000000000060000000000000000000000000000000000000000000000000000000000000000000000000000000000000000000000000000000000000000000000000000000020000000000000000000000000000000000000000000000000000000000000000000000000000000000000000000000000000000000000000000000000000000000000000000000000000000000000000000000000000000000000000000000c000000000000000000000000000000000000000000000000000000000000001200000000000000000000000000000000000000000000000000000000000000002000000000000000000000000cce466a522984415bc91338c232d98869193d46e000000000000000000000000dd7b5e1db4aafd5c8ec3b764efb8ed265aa5445b0000000000000000000000000000000000000000000000000000000000000000",
          "blockHash": "0xf4b3b77e76f59a43eb7da7601d90f7910041832412f17faaff447d9563c0116f",
          "blockNumber": "0x105dd1f",
          "transactionHash": "0x540e4a2f4d5ac3a315be02ce9e8d7dcc7d0c214ae1ffa9fe6c228a9e15a0a9ab",
          "transactionIndex": "0x4",
          "logIndex": "0x3",
          "removed": false
        }
      ],
      "logsBloom": "0x00000000000000000000000000000000000000000000000000000000000000000000000000000000000000000000000000040000000000000000000000000000000000000000000000000000000000000000000000000000002000000000000000000000000000000000000000000000000000000000000000000400000000000000000000000000000000000000000000000000000000000000000000000000000000000000000000000002000000000000000000000000000000000000000000000000000000000000000000000000000000000000000000000000000000000001000000000000000000000000000000000000000000000000000000000010",
      "type": "0x2",
      "transactionHash": "0x540e4a2f4d5ac3a315be02ce9e8d7dcc7d0c214ae1ffa9fe6c228a9e15a0a9ab",
      "transactionIndex": "0x4",
      "blockHash": "0xf4b3b77e76f59a43eb7da7601d90f7910041832412f17faaff447d9563c0116f",
      "blockNumber": "0x105dd1f",
      "gasUsed": "0x21fd5",
      "effectiveGasPrice": "0xfe",
      "from": "0x0990be6db8c785fbbf9ded8baec612a10cae814b",
      "to": "0x1a44076050125825900e736c501f859c50fe728c",
      "contractAddress": null,
      "l1BaseFeeScalar": "0xc350",
      "l1BlobBaseFee": "0x1a28f",
      "l1BlobBaseFeeScalar": "0x0",
      "l1Fee": "0x183ebd5c46",
      "l1GasPrice": "0x26786e51",
      "l1GasUsed": "0xc9a"
    }
  ],
  "libraries": [],
  "pending": [],
  "returns": {},
  "timestamp": 1741133691,
  "chain": 252,
  "commit": "e48b9e9"
}