{
  "transactions": [
    {
      "hash": null,
      "transactionType": "CALL",
      "contractName": null,
      "contractAddress": "0xfeec000000000000000000000000000000000000",
      "function": "setUserToken(address)",
      "arguments": [
        "0x20C0000000000000000000000000000000000000"
      ],
      "transaction": {
        "from": "0x1d434906aa520e592fab2b82406beff859be8e82",
        "to": "0xfeec000000000000000000000000000000000000",
        "gas": "0x925d",
        "value": "0x0",
        "input": "0xe789744400000000000000000000000020c0000000000000000000000000000000000000",
        "nonce": "0xf",
        "chainId": "0xa5bf",
        "feeToken": null,
        "calls": [],
        "keyType": null,
        "keyData": null
      },
      "additionalContracts": [],
      "isFixedGasLimit": false
    },
    {
      "hash": null,
      "transactionType": "CALL",
      "contractName": null,
      "contractAddress": "0x20c0000000000000000000000000000000000000",
      "function": "approve(address,uint256)",
      "arguments": [
        "0xfeEC000000000000000000000000000000000000",
        "10000000"
      ],
      "transaction": {
        "from": "0x1d434906aa520e592fab2b82406beff859be8e82",
        "to": "0x20c0000000000000000000000000000000000000",
        "gas": "0xf53e",
        "value": "0x0",
        "input": "0x095ea7b3000000000000000000000000feec0000000000000000000000000000000000000000000000000000000000000000000000000000000000000000000000989680",
        "nonce": "0x10",
        "chainId": "0xa5bf",
        "feeToken": null,
        "calls": [],
        "keyType": null,
        "keyData": null
      },
      "additionalContracts": [],
      "isFixedGasLimit": false
    },
    {
      "hash": null,
      "transactionType": "CALL",
      "contractName": null,
      "contractAddress": "0xfeec000000000000000000000000000000000000",
      "function": "mint(address,address,uint256,address)",
      "arguments": [
        "0x20c000000000000000000000cf5b0F48F7fEDC7F",
        "0x20C0000000000000000000000000000000000000",
        "10000000",
        "0x1d434906Aa520E592fAB2b82406BEfF859be8e82"
      ],
      "transaction": {
        "from": "0x1d434906aa520e592fab2b82406beff859be8e82",
        "to": "0xfeec000000000000000000000000000000000000",
        "gas": "0x2c5ae",
        "value": "0x0",
        "input": "0xf1aa8cb800000000000000000000000020c000000000000000000000cf5b0f48f7fedc7f00000000000000000000000020c000000000000000000000000000000000000000000000000000000000000000000000000000000000000000000000009896800000000000000000000000001d434906aa520e592fab2b82406beff859be8e82",
        "nonce": "0x11",
        "chainId": "0xa5bf",
        "feeToken": null,
        "calls": [],
        "keyType": null,
        "keyData": null
      },
      "additionalContracts": [],
      "isFixedGasLimit": false
    }
  ],
  "receipts": [],
  "libraries": [],
  "pending": [],
  "returns": {},
  "timestamp": 1770156042162,
  "chain": 42431,
  "commit": "47b8acf"
}