{
  "transactions": [
    {
      "hash": "0x48276834f09b35f057102f73c5032dd753db5628c87e1572b3e10d84203ac876",
      "transactionType": "CALL",
      "contractName": null,
      "contractAddress": "0x741f0d8bde14140f62107fc60a0ee122b37d4630",
      "function": "batchBridgeWithEthFeeFromWallet((uint32,bytes32,uint256,uint256,bytes,bytes,bytes)[],address[],address[])",
      "arguments": [
        "[(30367, 0x000000000000000000000000741f0d8bde14140f62107fc60a0ee122b37d4630, 500000000000000000, 0, 0x, 0x, 0x)]",
        "[0x57558Cb8d6005DE0BAe8a2789d5EfaaE52dba5a8]",
        "[0x741F0d8Bde14140f62107FC60A0EE122B37D4630]"
      ],
      "transaction": {
        "from": "0x45dce8e4f2dc005a5f28206a46cb034697eeda8e",
        "to": "0x741f0d8bde14140f62107fc60a0ee122b37d4630",
        "gas": "0x8d524",
        "value": "0x6ba618af5da",
        "input": "0xb70d4241000000000000000000000000000000000000000000000000000000000000006000000000000000000000000000000000000000000000000000000000000001e0000000000000000000000000000000000000000000000000000000000000022000000000000000000000000000000000000000000000000000000000000000010000000000000000000000000000000000000000000000000000000000000020000000000000000000000000000000000000000000000000000000000000769f000000000000000000000000741f0d8bde14140f62107fc60a0ee122b37d463000000000000000000000000000000000000000000000000006f05b59d3b20000000000000000000000000000000000000000000000000000000000000000000000000000000000000000000000000000000000000000000000000000000000e000000000000000000000000000000000000000000000000000000000000001000000000000000000000000000000000000000000000000000000000000000120000000000000000000000000000000000000000000000000000000000000000000000000000000000000000000000000000000000000000000000000000000000000000000000000000000000000000000000000000000000000000000000000000000000000000000000000000000000000000000000000000000000000000100000000000000000000000057558cb8d6005de0bae8a2789d5efaae52dba5a80000000000000000000000000000000000000000000000000000000000000001000000000000000000000000741f0d8bde14140f62107fc60a0ee122b37d4630",
        "nonce": "0xb6",
        "chainId": "0xdef1"
      },
      "additionalContracts": [],
      "isFixedGasLimit": false
    }
  ],
  "receipts": [
    {
      "status": "0x1",
      "cumulativeGasUsed": "0x1a9219",
      "logs": [
        {
          "address": "0x57558cb8d6005de0bae8a2789d5efaae52dba5a8",
          "topics": [
            "0xddf252ad1be2c89b69c2b068fc378daa952ba7f163c4a11628f55a4df523b3ef",
            "0x000000000000000000000000741f0d8bde14140f62107fc60a0ee122b37d4630",
            "0x0000000000000000000000000000000000000000000000000000000000000000"
          ],
          "data": "0x00000000000000000000000000000000000000000000000006f05b59d3b20000",
          "blockHash": "0x01d9ea8267cca039f8f27a4455ba326797744f27476f519488e05db375a5c334",
          "blockNumber": "0x1750675",
          "transactionHash": "0x48276834f09b35f057102f73c5032dd753db5628c87e1572b3e10d84203ac876",
          "transactionIndex": "0xb",
          "logIndex": "0x6",
          "removed": false
        },
        {
          "address": "0x76111de813f83aaadbd62773bf41247634e2319a",
          "topics": [
            "0x61ed099e74a97a1d7f8bb0952a88ca8b7b8ebd00c126ea04671f92a81213318a"
          ],
          "data": "0x000000000000000000000000febcf17b11376c724ab5a5229803c6e838b6eae5000000000000000000000000000000000000000000000000000005587328246c",
          "blockHash": "0x01d9ea8267cca039f8f27a4455ba326797744f27476f519488e05db375a5c334",
          "blockNumber": "0x1750675",
          "transactionHash": "0x48276834f09b35f057102f73c5032dd753db5628c87e1572b3e10d84203ac876",
          "transactionIndex": "0xb",
          "logIndex": "0x7",
          "removed": false
        },
        {
          "address": "0x76111de813f83aaadbd62773bf41247634e2319a",
          "topics": [
            "0x07ea52d82345d6e838192107d8fd7123d9c2ec8e916cd0aad13fd2b60db24644"
          ],
          "data": "0x000000000000000000000000000000000000000000000000000000000000006000000000000000000000000000000000000000000000000000000000000000e000000000000000000000000000000000000000000000000000000000000001000000000000000000000000000000000000000000000000000000000000000003000000000000000000000000174f2ba26f8adeafa82663bcf908288d5dbca649000000000000000000000000395b14700812cccc38b8e64f0a06ce2045fe9ba3000000000000000000000000f007f1fef50c0acaf4418741454bcaeaecb96b870000000000000000000000000000000000000000000000000000000000000000000000000000000000000000000000000000000000000000000000000000000300000000000000000000000000000000000000000000000000000075fa20f07a00000000000000000000000000000000000000000000000000000075fa20f07a00000000000000000000000000000000000000000000000000000075fa20f07a",
          "blockHash": "0x01d9ea8267cca039f8f27a4455ba326797744f27476f519488e05db375a5c334",
          "blockNumber": "0x1750675",
          "transactionHash": "0x48276834f09b35f057102f73c5032dd753db5628c87e1572b3e10d84203ac876",
          "transactionIndex": "0xb",
          "logIndex": "0x8",
          "removed": false
        },
        {
          "address": "0xca29f3a6f966cb2fc0de625f8f325c0c46dbe958",
          "topics": [
            "0x1ab700d4ced0c005b164c0f789fd09fcbb0156d4c2041b8a3bfbcd961cd1567f"
          ],
          "data": "0x0000000000000000000000000000000000000000000000000000000000000060000000000000000000000000000000000000000000000000000000000000012000000000000000000000000076111de813f83aaadbd62773bf41247634e2319a00000000000000000000000000000000000000000000000000000000000000990100000000000000010000768300000000000000000000000057558cb8d6005de0bae8a2789d5efaae52dba5a80000769f00000000000000000000000057558cb8d6005de0bae8a2789d5efaae52dba5a8a7452b43dc5d45f9c670afdeb95d28ae512b76abdb6f31ba5ace2050fe7d0e1a000000000000000000000000741f0d8bde14140f62107fc60a0ee122b37d4630000000000007a12000000000000000000000000000000000000000000000000000000000000000000000000000001600030100110100000000000000000000000000030d4000000000000000000000",
          "blockHash": "0x01d9ea8267cca039f8f27a4455ba326797744f27476f519488e05db375a5c334",
          "blockNumber": "0x1750675",
          "transactionHash": "0x48276834f09b35f057102f73c5032dd753db5628c87e1572b3e10d84203ac876",
          "transactionIndex": "0xb",
          "logIndex": "0x9",
          "removed": false
        },
        {
          "address": "0x57558cb8d6005de0bae8a2789d5efaae52dba5a8",
          "topics": [
            "0x85496b760a4b7f8d66384b9df21b381f5d1b1e79f229a47aaf4c232edc2fe59a",
            "0xa7452b43dc5d45f9c670afdeb95d28ae512b76abdb6f31ba5ace2050fe7d0e1a",
            "0x000000000000000000000000741f0d8bde14140f62107fc60a0ee122b37d4630"
          ],
          "data": "0x000000000000000000000000000000000000000000000000000000000000769f00000000000000000000000000000000000000000000000006f05b59d3b2000000000000000000000000000000000000000000000000000006f05b59d3b20000",
          "blockHash": "0x01d9ea8267cca039f8f27a4455ba326797744f27476f519488e05db375a5c334",
          "blockNumber": "0x1750675",
          "transactionHash": "0x48276834f09b35f057102f73c5032dd753db5628c87e1572b3e10d84203ac876",
          "transactionIndex": "0xb",
          "logIndex": "0xa",
          "removed": false
        }
      ],
      "logsBloom": "0x0000000000000000000000000004004000000000000000000000000000000020000000000000000000000000000000040000010000000000000000000000000000000200000000020000000800000000000000000000000004000000000000000000000002000000800000000000080000000000000200000001001000000000000000001040000000000008000000000000001000000000000000000000000000000000a000001000100000000000000000000000400000000440000000000000000002000000000000000080000000000000000000000000000000000020000000040000000000000000200000002000000000008000000000000000000000",
      "type": "0x2",
      "transactionHash": "0x48276834f09b35f057102f73c5032dd753db5628c87e1572b3e10d84203ac876",
      "transactionIndex": "0xb",
      "blockHash": "0x01d9ea8267cca039f8f27a4455ba326797744f27476f519488e05db375a5c334",
      "blockNumber": "0x1750675",
      "gasUsed": "0x66507",
      "effectiveGasPrice": "0x343",
      "from": "0x45dce8e4f2dc005a5f28206a46cb034697eeda8e",
      "to": "0x741f0d8bde14140f62107fc60a0ee122b37d4630",
      "contractAddress": null,
      "l1BaseFeeScalar": "0x1148",
      "l1BlobBaseFee": "0x1",
      "l1BlobBaseFeeScalar": "0xc5f4f",
      "l1Fee": "0x70cc7f7a2",
      "l1GasPrice": "0xa8511492",
      "l1GasUsed": "0x977"
    }
  ],
  "libraries": [],
  "pending": [],
  "returns": {},
  "timestamp": 1757944992946,
  "chain": 57073,
  "commit": "31866c5"
}