{
  "transactions": [
    {
      "hash": "0xd81e0a79b5b03f71bbf5b501ae6344d2c6b96a878cd329a32f3d4ed27235908b",
      "transactionType": "CALL",
      "contractName": null,
      "contractAddress": "0x741f0d8bde14140f62107fc60a0ee122b37d4630",
      "function": "batchBridgeWithEthFeeFromWallet((uint32,bytes32,uint256,uint256,bytes,bytes,bytes)[],address[],address[])",
      "arguments": [
        "[(30370, 0x000000000000000000000000741f0d8bde14140f62107fc60a0ee122b37d4630, 1000000000000000000, 0, 0x, 0x, 0x)]",
        "[0x57558Cb8d6005DE0BAe8a2789d5EfaaE52dba5a8]",
        "[0x741F0d8Bde14140f62107FC60A0EE122B37D4630]"
      ],
      "transaction": {
        "from": "0x45dce8e4f2dc005a5f28206a46cb034697eeda8e",
        "to": "0x741f0d8bde14140f62107fc60a0ee122b37d4630",
        "gas": "0x8d524",
        "value": "0x16d9962d0cd0",
        "input": "0xb70d4241000000000000000000000000000000000000000000000000000000000000006000000000000000000000000000000000000000000000000000000000000001e000000000000000000000000000000000000000000000000000000000000002200000000000000000000000000000000000000000000000000000000000000001000000000000000000000000000000000000000000000000000000000000002000000000000000000000000000000000000000000000000000000000000076a2000000000000000000000000741f0d8bde14140f62107fc60a0ee122b37d46300000000000000000000000000000000000000000000000000de0b6b3a7640000000000000000000000000000000000000000000000000000000000000000000000000000000000000000000000000000000000000000000000000000000000e000000000000000000000000000000000000000000000000000000000000001000000000000000000000000000000000000000000000000000000000000000120000000000000000000000000000000000000000000000000000000000000000000000000000000000000000000000000000000000000000000000000000000000000000000000000000000000000000000000000000000000000000000000000000000000000000000000000000000000000000000000000000000000000000100000000000000000000000057558cb8d6005de0bae8a2789d5efaae52dba5a80000000000000000000000000000000000000000000000000000000000000001000000000000000000000000741f0d8bde14140f62107fc60a0ee122b37d4630",
        "nonce": "0x9d",
        "chainId": "0xdef1"
      },
      "additionalContracts": [],
      "isFixedGasLimit": false
    }
  ],
  "receipts": [
    {
      "status": "0x1",
      "cumulativeGasUsed": "0x3da947",
      "logs": [
        {
          "address": "0x57558cb8d6005de0bae8a2789d5efaae52dba5a8",
          "topics": [
            "0xddf252ad1be2c89b69c2b068fc378daa952ba7f163c4a11628f55a4df523b3ef",
            "0x000000000000000000000000741f0d8bde14140f62107fc60a0ee122b37d4630",
            "0x0000000000000000000000000000000000000000000000000000000000000000"
          ],
          "data": "0x0000000000000000000000000000000000000000000000000de0b6b3a7640000",
          "blockHash": "0x3358f0ab92227daccd6b7974d8b6ba984d86436fa0e5551bf268d0166c77821f",
          "blockNumber": "0x1276a2e",
          "transactionHash": "0xd81e0a79b5b03f71bbf5b501ae6344d2c6b96a878cd329a32f3d4ed27235908b",
          "transactionIndex": "0x7",
          "logIndex": "0x4",
          "removed": false
        },
        {
          "address": "0x76111de813f83aaadbd62773bf41247634e2319a",
          "topics": [
            "0x61ed099e74a97a1d7f8bb0952a88ca8b7b8ebd00c126ea04671f92a81213318a"
          ],
          "data": "0x000000000000000000000000febcf17b11376c724ab5a5229803c6e838b6eae500000000000000000000000000000000000000000000000000000d8018e06928",
          "blockHash": "0x3358f0ab92227daccd6b7974d8b6ba984d86436fa0e5551bf268d0166c77821f",
          "blockNumber": "0x1276a2e",
          "transactionHash": "0xd81e0a79b5b03f71bbf5b501ae6344d2c6b96a878cd329a32f3d4ed27235908b",
          "transactionIndex": "0x7",
          "logIndex": "0x5",
          "removed": false
        },
        {
          "address": "0x76111de813f83aaadbd62773bf41247634e2319a",
          "topics": [
            "0x07ea52d82345d6e838192107d8fd7123d9c2ec8e916cd0aad13fd2b60db24644"
          ],
          "data": "0x000000000000000000000000000000000000000000000000000000000000006000000000000000000000000000000000000000000000000000000000000000e000000000000000000000000000000000000000000000000000000000000001000000000000000000000000000000000000000000000000000000000000000003000000000000000000000000174f2ba26f8adeafa82663bcf908288d5dbca649000000000000000000000000395b14700812cccc38b8e64f0a06ce2045fe9ba3000000000000000000000000f007f1fef50c0acaf4418741454bcaeaecb96b87000000000000000000000000000000000000000000000000000000000000000000000000000000000000000000000000000000000000000000000000000000030000000000000000000000000000000000000000000000000000031dd46ee1380000000000000000000000000000000000000000000000000000031dd46ee1380000000000000000000000000000000000000000000000000000031dd46ee138",
          "blockHash": "0x3358f0ab92227daccd6b7974d8b6ba984d86436fa0e5551bf268d0166c77821f",
          "blockNumber": "0x1276a2e",
          "transactionHash": "0xd81e0a79b5b03f71bbf5b501ae6344d2c6b96a878cd329a32f3d4ed27235908b",
          "transactionIndex": "0x7",
          "logIndex": "0x6",
          "removed": false
        },
        {
          "address": "0xca29f3a6f966cb2fc0de625f8f325c0c46dbe958",
          "topics": [
            "0x1ab700d4ced0c005b164c0f789fd09fcbb0156d4c2041b8a3bfbcd961cd1567f"
          ],
          "data": "0x0000000000000000000000000000000000000000000000000000000000000060000000000000000000000000000000000000000000000000000000000000012000000000000000000000000076111de813f83aaadbd62773bf41247634e2319a00000000000000000000000000000000000000000000000000000000000000990100000000000000010000768300000000000000000000000057558cb8d6005de0bae8a2789d5efaae52dba5a8000076a200000000000000000000000057558cb8d6005de0bae8a2789d5efaae52dba5a829e10920d86e390a3cfe5f86f36b729bd4b45c4160c82ed0cfa04f078c8ad791000000000000000000000000741f0d8bde14140f62107fc60a0ee122b37d463000000000000f424000000000000000000000000000000000000000000000000000000000000000000000000000001600030100110100000000000000000000000000030d4000000000000000000000",
          "blockHash": "0x3358f0ab92227daccd6b7974d8b6ba984d86436fa0e5551bf268d0166c77821f",
          "blockNumber": "0x1276a2e",
          "transactionHash": "0xd81e0a79b5b03f71bbf5b501ae6344d2c6b96a878cd329a32f3d4ed27235908b",
          "transactionIndex": "0x7",
          "logIndex": "0x7",
          "removed": false
        },
        {
          "address": "0x57558cb8d6005de0bae8a2789d5efaae52dba5a8",
          "topics": [
            "0x85496b760a4b7f8d66384b9df21b381f5d1b1e79f229a47aaf4c232edc2fe59a",
            "0x29e10920d86e390a3cfe5f86f36b729bd4b45c4160c82ed0cfa04f078c8ad791",
            "0x000000000000000000000000741f0d8bde14140f62107fc60a0ee122b37d4630"
          ],
          "data": "0x00000000000000000000000000000000000000000000000000000000000076a20000000000000000000000000000000000000000000000000de0b6b3a76400000000000000000000000000000000000000000000000000000de0b6b3a7640000",
          "blockHash": "0x3358f0ab92227daccd6b7974d8b6ba984d86436fa0e5551bf268d0166c77821f",
          "blockNumber": "0x1276a2e",
          "transactionHash": "0xd81e0a79b5b03f71bbf5b501ae6344d2c6b96a878cd329a32f3d4ed27235908b",
          "transactionIndex": "0x7",
          "logIndex": "0x8",
          "removed": false
        }
      ],
      "logsBloom": "0x0000000000000000000000000004004000000000000000000000000000000020000000000000000000000000000000040000010000000400000001000000000000000200000000020000000800000000000000000000000004000000000000000000000002000000800000000000080002000000000200000001001000000000000000000000000000000008000000000000000000000000000000000000000000000000a000001000100000000000000000000000400000000440000000000000000002000000000000000080000000000000000000000000000000000020000000040000000000000000200000002000000000008000000000000000000000",
      "type": "0x2",
      "transactionHash": "0xd81e0a79b5b03f71bbf5b501ae6344d2c6b96a878cd329a32f3d4ed27235908b",
      "transactionIndex": "0x7",
      "blockHash": "0x3358f0ab92227daccd6b7974d8b6ba984d86436fa0e5551bf268d0166c77821f",
      "blockNumber": "0x1276a2e",
      "gasUsed": "0x66507",
      "effectiveGasPrice": "0xb12",
      "from": "0x45dce8e4f2dc005a5f28206a46cb034697eeda8e",
      "to": "0x741f0d8bde14140f62107fc60a0ee122b37d4630",
      "contractAddress": null,
      "l1BaseFeeScalar": "0x1148",
      "l1BlobBaseFee": "0x1",
      "l1BlobBaseFeeScalar": "0xc5f4f",
      "l1Fee": "0x9fa869e67",
      "l1GasPrice": "0xeba2fd27",
      "l1GasUsed": "0x992"
    }
  ],
  "libraries": [],
  "pending": [],
  "returns": {},
  "timestamp": 1752858714,
  "chain": 57073,
  "commit": "c079579"
}