{
  "transactions": [
    {
      "hash": "0x8f503778329c8b529ceb9200d5b06ba621d949474915860736a828d7b8a5365e",
      "transactionType": "CALL",
      "contractName": null,
      "contractAddress": "0x741f0d8bde14140f62107fc60a0ee122b37d4630",
      "function": "batchBridgeWithEthFeeFromWallet((uint32,bytes32,uint256,uint256,bytes,bytes,bytes)[],address[],address[])",
      "arguments": [
        "[(30375, 0x000000000000000000000000741f0d8bde14140f62107fc60a0ee122b37d4630, 1000000000000000000, 0, 0x, 0x, 0x)]",
        "[0x57558Cb8d6005DE0BAe8a2789d5EfaaE52dba5a8]",
        "[0x741F0d8Bde14140f62107FC60A0EE122B37D4630]"
      ],
      "transaction": {
        "from": "0x45dce8e4f2dc005a5f28206a46cb034697eeda8e",
        "to": "0x741f0d8bde14140f62107fc60a0ee122b37d4630",
        "gas": "0x8d524",
        "value": "0x5393bedfb41",
        "input": "0xb70d4241000000000000000000000000000000000000000000000000000000000000006000000000000000000000000000000000000000000000000000000000000001e000000000000000000000000000000000000000000000000000000000000002200000000000000000000000000000000000000000000000000000000000000001000000000000000000000000000000000000000000000000000000000000002000000000000000000000000000000000000000000000000000000000000076a7000000000000000000000000741f0d8bde14140f62107fc60a0ee122b37d46300000000000000000000000000000000000000000000000000de0b6b3a7640000000000000000000000000000000000000000000000000000000000000000000000000000000000000000000000000000000000000000000000000000000000e000000000000000000000000000000000000000000000000000000000000001000000000000000000000000000000000000000000000000000000000000000120000000000000000000000000000000000000000000000000000000000000000000000000000000000000000000000000000000000000000000000000000000000000000000000000000000000000000000000000000000000000000000000000000000000000000000000000000000000000000000000000000000000000000100000000000000000000000057558cb8d6005de0bae8a2789d5efaae52dba5a80000000000000000000000000000000000000000000000000000000000000001000000000000000000000000741f0d8bde14140f62107fc60a0ee122b37d4630",
        "nonce": "0xa4",
        "chainId": "0xdef1"
      },
      "additionalContracts": [],
      "isFixedGasLimit": false
    }
  ],
  "receipts": [
    {
      "status": "0x1",
      "cumulativeGasUsed": "0x7a607b",
      "logs": [
        {
          "address": "0x57558cb8d6005de0bae8a2789d5efaae52dba5a8",
          "topics": [
            "0xddf252ad1be2c89b69c2b068fc378daa952ba7f163c4a11628f55a4df523b3ef",
            "0x000000000000000000000000741f0d8bde14140f62107fc60a0ee122b37d4630",
            "0x0000000000000000000000000000000000000000000000000000000000000000"
          ],
          "data": "0x0000000000000000000000000000000000000000000000000de0b6b3a7640000",
          "blockHash": "0xbc44ba68d089483d21c7aa0fb7e1c9fbefc13e5ab8b47faeb561a2861fc02a54",
          "blockNumber": "0x137cde3",
          "transactionHash": "0x8f503778329c8b529ceb9200d5b06ba621d949474915860736a828d7b8a5365e",
          "transactionIndex": "0x6",
          "logIndex": "0x1",
          "removed": false
        },
        {
          "address": "0x76111de813f83aaadbd62773bf41247634e2319a",
          "topics": [
            "0x61ed099e74a97a1d7f8bb0952a88ca8b7b8ebd00c126ea04671f92a81213318a"
          ],
          "data": "0x000000000000000000000000febcf17b11376c724ab5a5229803c6e838b6eae5000000000000000000000000000000000000000000000000000004e9126c2d4e",
          "blockHash": "0xbc44ba68d089483d21c7aa0fb7e1c9fbefc13e5ab8b47faeb561a2861fc02a54",
          "blockNumber": "0x137cde3",
          "transactionHash": "0x8f503778329c8b529ceb9200d5b06ba621d949474915860736a828d7b8a5365e",
          "transactionIndex": "0x6",
          "logIndex": "0x2",
          "removed": false
        },
        {
          "address": "0x76111de813f83aaadbd62773bf41247634e2319a",
          "topics": [
            "0x07ea52d82345d6e838192107d8fd7123d9c2ec8e916cd0aad13fd2b60db24644"
          ],
          "data": "0x000000000000000000000000000000000000000000000000000000000000006000000000000000000000000000000000000000000000000000000000000000e000000000000000000000000000000000000000000000000000000000000001000000000000000000000000000000000000000000000000000000000000000003000000000000000000000000174f2ba26f8adeafa82663bcf908288d5dbca649000000000000000000000000dd7b5e1db4aafd5c8ec3b764efb8ed265aa5445b000000000000000000000000f007f1fef50c0acaf4418741454bcaeaecb96b87000000000000000000000000000000000000000000000000000000000000000000000000000000000000000000000000000000000000000000000000000000030000000000000000000000000000000000000000000000000000001ad2e2bd560000000000000000000000000000000000000000000000000000001a83bc53470000000000000000000000000000000000000000000000000000001ad2e2bd56",
          "blockHash": "0xbc44ba68d089483d21c7aa0fb7e1c9fbefc13e5ab8b47faeb561a2861fc02a54",
          "blockNumber": "0x137cde3",
          "transactionHash": "0x8f503778329c8b529ceb9200d5b06ba621d949474915860736a828d7b8a5365e",
          "transactionIndex": "0x6",
          "logIndex": "0x3",
          "removed": false
        },
        {
          "address": "0xca29f3a6f966cb2fc0de625f8f325c0c46dbe958",
          "topics": [
            "0x1ab700d4ced0c005b164c0f789fd09fcbb0156d4c2041b8a3bfbcd961cd1567f"
          ],
          "data": "0x0000000000000000000000000000000000000000000000000000000000000060000000000000000000000000000000000000000000000000000000000000012000000000000000000000000076111de813f83aaadbd62773bf41247634e2319a00000000000000000000000000000000000000000000000000000000000000990100000000000000010000768300000000000000000000000057558cb8d6005de0bae8a2789d5efaae52dba5a8000076a700000000000000000000000057558cb8d6005de0bae8a2789d5efaae52dba5a891320342217f11a044a7692c94664d462a476eb8fe4f351d49a717b6122cd69d000000000000000000000000741f0d8bde14140f62107fc60a0ee122b37d463000000000000f424000000000000000000000000000000000000000000000000000000000000000000000000000001600030100110100000000000000000000000000030d4000000000000000000000",
          "blockHash": "0xbc44ba68d089483d21c7aa0fb7e1c9fbefc13e5ab8b47faeb561a2861fc02a54",
          "blockNumber": "0x137cde3",
          "transactionHash": "0x8f503778329c8b529ceb9200d5b06ba621d949474915860736a828d7b8a5365e",
          "transactionIndex": "0x6",
          "logIndex": "0x4",
          "removed": false
        },
        {
          "address": "0x57558cb8d6005de0bae8a2789d5efaae52dba5a8",
          "topics": [
            "0x85496b760a4b7f8d66384b9df21b381f5d1b1e79f229a47aaf4c232edc2fe59a",
            "0x91320342217f11a044a7692c94664d462a476eb8fe4f351d49a717b6122cd69d",
            "0x000000000000000000000000741f0d8bde14140f62107fc60a0ee122b37d4630"
          ],
          "data": "0x00000000000000000000000000000000000000000000000000000000000076a70000000000000000000000000000000000000000000000000de0b6b3a76400000000000000000000000000000000000000000000000000000de0b6b3a7640000",
          "blockHash": "0xbc44ba68d089483d21c7aa0fb7e1c9fbefc13e5ab8b47faeb561a2861fc02a54",
          "blockNumber": "0x137cde3",
          "transactionHash": "0x8f503778329c8b529ceb9200d5b06ba621d949474915860736a828d7b8a5365e",
          "transactionIndex": "0x6",
          "logIndex": "0x5",
          "removed": false
        }
      ],
      "logsBloom": "0x0000000000000000000000000004004000000000000000000000000000000020000000000000000000000000000000040000010000000000000000000000000000000200000000020000000800000000000000000000000004000000000000000000000002000000800000000000080000000000000200000001001000000000000000000000000000000008000000000000000000000000000000000000000100000000a000001000100000000000000000000000400000000440000000000000000002000000000000000080000000000000000000000000000400000020000000040000000000000000200000002000010000008000000000000000000000",
      "type": "0x2",
      "transactionHash": "0x8f503778329c8b529ceb9200d5b06ba621d949474915860736a828d7b8a5365e",
      "transactionIndex": "0x6",
      "blockHash": "0xbc44ba68d089483d21c7aa0fb7e1c9fbefc13e5ab8b47faeb561a2861fc02a54",
      "blockNumber": "0x137cde3",
      "gasUsed": "0x66507",
      "effectiveGasPrice": "0xe9f2",
      "from": "0x45dce8e4f2dc005a5f28206a46cb034697eeda8e",
      "to": "0x741f0d8bde14140f62107fc60a0ee122b37d4630",
      "contractAddress": null,
      "l1BaseFeeScalar": "0x1148",
      "l1BlobBaseFee": "0x1",
      "l1BlobBaseFeeScalar": "0xc5f4f",
      "l1Fee": "0x60b01318c",
      "l1GasPrice": "0x8eb33835",
      "l1GasUsed": "0x992"
    }
  ],
  "libraries": [],
  "pending": [],
  "returns": {},
  "timestamp": 1753932816,
  "chain": 57073,
  "commit": "bc2ac99"
}