{
  "transactions": [
    {
      "hash": "0x3d53899b21bc62d9131af71b172a0d62fac9369f733624e327254fb40c20ee87",
      "transactionType": "CALL",
      "contractName": null,
      "contractAddress": "0x741f0d8bde14140f62107fc60a0ee122b37d4630",
      "function": "batchBridgeWithEthFeeFromWallet((uint32,bytes32,uint256,uint256,bytes,bytes,bytes)[],address[],address[])",
      "arguments": [
        "[(30168, 0x3c1b094729102e0c095ee2417e5940ee4f1eab4763f6113fe75281ab74c62398, 1000000000000000000, 0, 0x, 0x, 0x), (30325, 0x09d0eb2763c96e085fa74ba6cf0d49136f8654c48ec7dbc59279a9066c7dd409, 1000000000000000000, 0, 0x, 0x, 0x), (30108, 0x09d0eb2763c96e085fa74ba6cf0d49136f8654c48ec7dbc59279a9066c7dd409, 1000000000000000000, 0, 0x, 0x, 0x)]",
        "[0x57558Cb8d6005DE0BAe8a2789d5EfaaE52dba5a8, 0x57558Cb8d6005DE0BAe8a2789d5EfaaE52dba5a8, 0x57558Cb8d6005DE0BAe8a2789d5EfaaE52dba5a8]",
        "[0x741F0d8Bde14140f62107FC60A0EE122B37D4630, 0x741F0d8Bde14140f62107FC60A0EE122B37D4630, 0x741F0d8Bde14140f62107FC60A0EE122B37D4630]"
      ],
      "transaction": {
        "from": "0x45dce8e4f2dc005a5f28206a46cb034697eeda8e",
        "to": "0x741f0d8bde14140f62107fc60a0ee122b37d4630",
        "gas": "0x136adc",
        "value": "0x51654e376872f",
        "input": "0xb70d4241000000000000000000000000000000000000000000000000000000000000006000000000000000000000000000000000000000000000000000000000000004a000000000000000000000000000000000000000000000000000000000000005200000000000000000000000000000000000000000000000000000000000000003000000000000000000000000000000000000000000000000000000000000006000000000000000000000000000000000000000000000000000000000000001a000000000000000000000000000000000000000000000000000000000000002e000000000000000000000000000000000000000000000000000000000000075d83c1b094729102e0c095ee2417e5940ee4f1eab4763f6113fe75281ab74c623980000000000000000000000000000000000000000000000000de0b6b3a7640000000000000000000000000000000000000000000000000000000000000000000000000000000000000000000000000000000000000000000000000000000000e000000000000000000000000000000000000000000000000000000000000001000000000000000000000000000000000000000000000000000000000000000120000000000000000000000000000000000000000000000000000000000000000000000000000000000000000000000000000000000000000000000000000000000000000000000000000000000000000000000000000000000000000000000000000000000000000000000000000000000000000000000000000000000000767509d0eb2763c96e085fa74ba6cf0d49136f8654c48ec7dbc59279a9066c7dd4090000000000000000000000000000000000000000000000000de0b6b3a7640000000000000000000000000000000000000000000000000000000000000000000000000000000000000000000000000000000000000000000000000000000000e000000000000000000000000000000000000000000000000000000000000001000000000000000000000000000000000000000000000000000000000000000120000000000000000000000000000000000000000000000000000000000000000000000000000000000000000000000000000000000000000000000000000000000000000000000000000000000000000000000000000000000000000000000000000000000000000000000000000000000000000000000000000000000000759c09d0eb2763c96e085fa74ba6cf0d49136f8654c48ec7dbc59279a9066c7dd4090000000000000000000000000000000000000000000000000de0b6b3a7640000000000000000000000000000000000000000000000000000000000000000000000000000000000000000000000000000000000000000000000000000000000e000000000000000000000000000000000000000000000000000000000000001000000000000000000000000000000000000000000000000000000000000000120000000000000000000000000000000000000000000000000000000000000000000000000000000000000000000000000000000000000000000000000000000000000000000000000000000000000000000000000000000000000000000000000000000000000000000000000000000000000000000000000000000000000000300000000000000000000000057558cb8d6005de0bae8a2789d5efaae52dba5a800000000000000000000000057558cb8d6005de0bae8a2789d5efaae52dba5a800000000000000000000000057558cb8d6005de0bae8a2789d5efaae52dba5a80000000000000000000000000000000000000000000000000000000000000003000000000000000000000000741f0d8bde14140f62107fc60a0ee122b37d4630000000000000000000000000741f0d8bde14140f62107fc60a0ee122b37d4630000000000000000000000000741f0d8bde14140f62107fc60a0ee122b37d4630",
        "nonce": "0x88",
        "chainId": "0x38"
      },
      "additionalContracts": [],
      "isFixedGasLimit": false
    }
  ],
  "receipts": [
    {
      "status": "0x1",
      "cumulativeGasUsed": "0x15b185b",
      "logs": [
        {
          "address": "0x57558cb8d6005de0bae8a2789d5efaae52dba5a8",
          "topics": [
            "0xddf252ad1be2c89b69c2b068fc378daa952ba7f163c4a11628f55a4df523b3ef",
            "0x000000000000000000000000741f0d8bde14140f62107fc60a0ee122b37d4630",
            "0x0000000000000000000000000000000000000000000000000000000000000000"
          ],
          "data": "0x0000000000000000000000000000000000000000000000000de0b6b3a7640000",
          "blockHash": "0xef04310057ee8348cc0bfc09f78d528a2031c1b9ead96202a9ce0dde18d5f375",
          "blockNumber": "0x3302b96",
          "transactionHash": "0x3d53899b21bc62d9131af71b172a0d62fac9369f733624e327254fb40c20ee87",
          "transactionIndex": "0x84",
          "logIndex": "0x37b",
          "removed": false
        },
        {
          "address": "0x9f8c645f2d0b2159767bd6e0839de4be49e823de",
          "topics": [
            "0x61ed099e74a97a1d7f8bb0952a88ca8b7b8ebd00c126ea04671f92a81213318a"
          ],
          "data": "0x0000000000000000000000003ebd570ed38b1b3b4bc886999fcf507e9d5848590000000000000000000000000000000000000000000000000002c921b77df966",
          "blockHash": "0xef04310057ee8348cc0bfc09f78d528a2031c1b9ead96202a9ce0dde18d5f375",
          "blockNumber": "0x3302b96",
          "transactionHash": "0x3d53899b21bc62d9131af71b172a0d62fac9369f733624e327254fb40c20ee87",
          "transactionIndex": "0x84",
          "logIndex": "0x37c",
          "removed": false
        },
        {
          "address": "0x9f8c645f2d0b2159767bd6e0839de4be49e823de",
          "topics": [
            "0x07ea52d82345d6e838192107d8fd7123d9c2ec8e916cd0aad13fd2b60db24644"
          ],
          "data": "0x000000000000000000000000000000000000000000000000000000000000006000000000000000000000000000000000000000000000000000000000000000e000000000000000000000000000000000000000000000000000000000000001000000000000000000000000000000000000000000000000000000000000000003000000000000000000000000247624e2143504730aec22912ed41f092498bef2000000000000000000000000d4bf35ce3bfc7f7d7dfc0694a7d4aa8b8c60a38c000000000000000000000000fd6865c841c2d64565562fcc7e05e619a30615f000000000000000000000000000000000000000000000000000000000000000000000000000000000000000000000000000000000000000000000000000000003000000000000000000000000000000000000000000000000000015e15167c4dc000000000000000000000000000000000000000000000000000016ccc967b614000000000000000000000000000000000000000000000000000015e15167c4dc",
          "blockHash": "0xef04310057ee8348cc0bfc09f78d528a2031c1b9ead96202a9ce0dde18d5f375",
          "blockNumber": "0x3302b96",
          "transactionHash": "0x3d53899b21bc62d9131af71b172a0d62fac9369f733624e327254fb40c20ee87",
          "transactionIndex": "0x84",
          "logIndex": "0x37d",
          "removed": false
        },
        {
          "address": "0x1a44076050125825900e736c501f859c50fe728c",
          "topics": [
            "0x1ab700d4ced0c005b164c0f789fd09fcbb0156d4c2041b8a3bfbcd961cd1567f"
          ],
          "data": "0x000000000000000000000000000000000000000000000000000000000000006000000000000000000000000000000000000000000000000000000000000001200000000000000000000000009f8c645f2d0b2159767bd6e0839de4be49e823de00000000000000000000000000000000000000000000000000000000000000990100000000000000010000759600000000000000000000000057558cb8d6005de0bae8a2789d5efaae52dba5a8000075d8006d6ff762f7fcb768c550bae67f7a6a3a94969e469b6e0689563ace4e3759ad2d0696c68f5f17f3160a4ce650eb7485e1437526311407a5b269baa08f678f783c1b094729102e0c095ee2417e5940ee4f1eab4763f6113fe75281ab74c6239800000000000f424000000000000000000000000000000000000000000000000000000000000000000000000000002600030100210100000000000000000000000000030d40000000000000000000000000002625a00000000000000000000000000000000000000000000000000000",
          "blockHash": "0xef04310057ee8348cc0bfc09f78d528a2031c1b9ead96202a9ce0dde18d5f375",
          "blockNumber": "0x3302b96",
          "transactionHash": "0x3d53899b21bc62d9131af71b172a0d62fac9369f733624e327254fb40c20ee87",
          "transactionIndex": "0x84",
          "logIndex": "0x37e",
          "removed": false
        },
        {
          "address": "0x57558cb8d6005de0bae8a2789d5efaae52dba5a8",
          "topics": [
            "0x85496b760a4b7f8d66384b9df21b381f5d1b1e79f229a47aaf4c232edc2fe59a",
            "0x2d0696c68f5f17f3160a4ce650eb7485e1437526311407a5b269baa08f678f78",
            "0x000000000000000000000000741f0d8bde14140f62107fc60a0ee122b37d4630"
          ],
          "data": "0x00000000000000000000000000000000000000000000000000000000000075d80000000000000000000000000000000000000000000000000de0b6b3a76400000000000000000000000000000000000000000000000000000de0b6b3a7640000",
          "blockHash": "0xef04310057ee8348cc0bfc09f78d528a2031c1b9ead96202a9ce0dde18d5f375",
          "blockNumber": "0x3302b96",
          "transactionHash": "0x3d53899b21bc62d9131af71b172a0d62fac9369f733624e327254fb40c20ee87",
          "transactionIndex": "0x84",
          "logIndex": "0x37f",
          "removed": false
        },
        {
          "address": "0x57558cb8d6005de0bae8a2789d5efaae52dba5a8",
          "topics": [
            "0xddf252ad1be2c89b69c2b068fc378daa952ba7f163c4a11628f55a4df523b3ef",
            "0x000000000000000000000000741f0d8bde14140f62107fc60a0ee122b37d4630",
            "0x0000000000000000000000000000000000000000000000000000000000000000"
          ],
          "data": "0x0000000000000000000000000000000000000000000000000de0b6b3a7640000",
          "blockHash": "0xef04310057ee8348cc0bfc09f78d528a2031c1b9ead96202a9ce0dde18d5f375",
          "blockNumber": "0x3302b96",
          "transactionHash": "0x3d53899b21bc62d9131af71b172a0d62fac9369f733624e327254fb40c20ee87",
          "transactionIndex": "0x84",
          "logIndex": "0x380",
          "removed": false
        },
        {
          "address": "0x9f8c645f2d0b2159767bd6e0839de4be49e823de",
          "topics": [
            "0x61ed099e74a97a1d7f8bb0952a88ca8b7b8ebd00c126ea04671f92a81213318a"
          ],
          "data": "0x0000000000000000000000003ebd570ed38b1b3b4bc886999fcf507e9d58485900000000000000000000000000000000000000000000000000000dc67b7afd47",
          "blockHash": "0xef04310057ee8348cc0bfc09f78d528a2031c1b9ead96202a9ce0dde18d5f375",
          "blockNumber": "0x3302b96",
          "transactionHash": "0x3d53899b21bc62d9131af71b172a0d62fac9369f733624e327254fb40c20ee87",
          "transactionIndex": "0x84",
          "logIndex": "0x381",
          "removed": false
        },
        {
          "address": "0x9f8c645f2d0b2159767bd6e0839de4be49e823de",
          "topics": [
            "0x07ea52d82345d6e838192107d8fd7123d9c2ec8e916cd0aad13fd2b60db24644"
          ],
          "data": "0x000000000000000000000000000000000000000000000000000000000000006000000000000000000000000000000000000000000000000000000000000000e000000000000000000000000000000000000000000000000000000000000001000000000000000000000000000000000000000000000000000000000000000003000000000000000000000000247624e2143504730aec22912ed41f092498bef2000000000000000000000000d4bf35ce3bfc7f7d7dfc0694a7d4aa8b8c60a38c000000000000000000000000fd6865c841c2d64565562fcc7e05e619a30615f00000000000000000000000000000000000000000000000000000000000000000000000000000000000000000000000000000000000000000000000000000000300000000000000000000000000000000000000000000000000000000000008ae000000000000000000000000000000000000000000000000000000000000090c00000000000000000000000000000000000000000000000000000dc67b7afe43",
          "blockHash": "0xef04310057ee8348cc0bfc09f78d528a2031c1b9ead96202a9ce0dde18d5f375",
          "blockNumber": "0x3302b96",
          "transactionHash": "0x3d53899b21bc62d9131af71b172a0d62fac9369f733624e327254fb40c20ee87",
          "transactionIndex": "0x84",
          "logIndex": "0x382",
          "removed": false
        },
        {
          "address": "0x1a44076050125825900e736c501f859c50fe728c",
          "topics": [
            "0x1ab700d4ced0c005b164c0f789fd09fcbb0156d4c2041b8a3bfbcd961cd1567f"
          ],
          "data": "0x000000000000000000000000000000000000000000000000000000000000006000000000000000000000000000000000000000000000000000000000000001200000000000000000000000009f8c645f2d0b2159767bd6e0839de4be49e823de00000000000000000000000000000000000000000000000000000000000000990100000000000000010000759600000000000000000000000057558cb8d6005de0bae8a2789d5efaae52dba5a800007675a1bb74f0d5770dfc905c508e6273fadc595ddc15326cc907889bdfffa50602c804837a3eb0e6a6aa9152d8976bba427f6e380a547be0f26df9d8459c5aa5094c09d0eb2763c96e085fa74ba6cf0d49136f8654c48ec7dbc59279a9066c7dd40900000000000f42400000000000000000000000000000000000000000000000000000000000000000000000000000160003010011010000000000000000000000000000138800000000000000000000",
          "blockHash": "0xef04310057ee8348cc0bfc09f78d528a2031c1b9ead96202a9ce0dde18d5f375",
          "blockNumber": "0x3302b96",
          "transactionHash": "0x3d53899b21bc62d9131af71b172a0d62fac9369f733624e327254fb40c20ee87",
          "transactionIndex": "0x84",
          "logIndex": "0x383",
          "removed": false
        },
        {
          "address": "0x57558cb8d6005de0bae8a2789d5efaae52dba5a8",
          "topics": [
            "0x85496b760a4b7f8d66384b9df21b381f5d1b1e79f229a47aaf4c232edc2fe59a",
            "0x04837a3eb0e6a6aa9152d8976bba427f6e380a547be0f26df9d8459c5aa5094c",
            "0x000000000000000000000000741f0d8bde14140f62107fc60a0ee122b37d4630"
          ],
          "data": "0x00000000000000000000000000000000000000000000000000000000000076750000000000000000000000000000000000000000000000000de0b6b3a76400000000000000000000000000000000000000000000000000000de0b6b3a7640000",
          "blockHash": "0xef04310057ee8348cc0bfc09f78d528a2031c1b9ead96202a9ce0dde18d5f375",
          "blockNumber": "0x3302b96",
          "transactionHash": "0x3d53899b21bc62d9131af71b172a0d62fac9369f733624e327254fb40c20ee87",
          "transactionIndex": "0x84",
          "logIndex": "0x384",
          "removed": false
        },
        {
          "address": "0x57558cb8d6005de0bae8a2789d5efaae52dba5a8",
          "topics": [
            "0xddf252ad1be2c89b69c2b068fc378daa952ba7f163c4a11628f55a4df523b3ef",
            "0x000000000000000000000000741f0d8bde14140f62107fc60a0ee122b37d4630",
            "0x0000000000000000000000000000000000000000000000000000000000000000"
          ],
          "data": "0x0000000000000000000000000000000000000000000000000de0b6b3a7640000",
          "blockHash": "0xef04310057ee8348cc0bfc09f78d528a2031c1b9ead96202a9ce0dde18d5f375",
          "blockNumber": "0x3302b96",
          "transactionHash": "0x3d53899b21bc62d9131af71b172a0d62fac9369f733624e327254fb40c20ee87",
          "transactionIndex": "0x84",
          "logIndex": "0x385",
          "removed": false
        },
        {
          "address": "0x9f8c645f2d0b2159767bd6e0839de4be49e823de",
          "topics": [
            "0x61ed099e74a97a1d7f8bb0952a88ca8b7b8ebd00c126ea04671f92a81213318a"
          ],
          "data": "0x0000000000000000000000003ebd570ed38b1b3b4bc886999fcf507e9d584859000000000000000000000000000000000000000000000000000033b449c99b68",
          "blockHash": "0xef04310057ee8348cc0bfc09f78d528a2031c1b9ead96202a9ce0dde18d5f375",
          "blockNumber": "0x3302b96",
          "transactionHash": "0x3d53899b21bc62d9131af71b172a0d62fac9369f733624e327254fb40c20ee87",
          "transactionIndex": "0x84",
          "logIndex": "0x386",
          "removed": false
        },
        {
          "address": "0x9f8c645f2d0b2159767bd6e0839de4be49e823de",
          "topics": [
            "0x07ea52d82345d6e838192107d8fd7123d9c2ec8e916cd0aad13fd2b60db24644"
          ],
          "data": "0x000000000000000000000000000000000000000000000000000000000000006000000000000000000000000000000000000000000000000000000000000000e000000000000000000000000000000000000000000000000000000000000001000000000000000000000000000000000000000000000000000000000000000003000000000000000000000000247624e2143504730aec22912ed41f092498bef2000000000000000000000000d4bf35ce3bfc7f7d7dfc0694a7d4aa8b8c60a38c000000000000000000000000fd6865c841c2d64565562fcc7e05e619a30615f00000000000000000000000000000000000000000000000000000000000000000000000000000000000000000000000000000000000000000000000000000000300000000000000000000000000000000000000000000000000008ab7a11a10d60000000000000000000000000000000000000000000000000000a5f33ccd83a500000000000000000000000000000000000000000000000000008ab7a11a10d6",
          "blockHash": "0xef04310057ee8348cc0bfc09f78d528a2031c1b9ead96202a9ce0dde18d5f375",
          "blockNumber": "0x3302b96",
          "transactionHash": "0x3d53899b21bc62d9131af71b172a0d62fac9369f733624e327254fb40c20ee87",
          "transactionIndex": "0x84",
          "logIndex": "0x387",
          "removed": false
        },
        {
          "address": "0x1a44076050125825900e736c501f859c50fe728c",
          "topics": [
            "0x1ab700d4ced0c005b164c0f789fd09fcbb0156d4c2041b8a3bfbcd961cd1567f"
          ],
          "data": "0x000000000000000000000000000000000000000000000000000000000000006000000000000000000000000000000000000000000000000000000000000001200000000000000000000000009f8c645f2d0b2159767bd6e0839de4be49e823de00000000000000000000000000000000000000000000000000000000000000990100000000000000010000759600000000000000000000000057558cb8d6005de0bae8a2789d5efaae52dba5a80000759ca1bb74f0d5770dfc905c508e6273fadc595ddc15326cc907889bdfffa50602c86c8b73984e1a6d292d185029015b5327e19ea145f6a4e1f35392feb2ea7d73b309d0eb2763c96e085fa74ba6cf0d49136f8654c48ec7dbc59279a9066c7dd40900000000000f42400000000000000000000000000000000000000000000000000000000000000000000000000000160003010011010000000000000000000000000000138800000000000000000000",
          "blockHash": "0xef04310057ee8348cc0bfc09f78d528a2031c1b9ead96202a9ce0dde18d5f375",
          "blockNumber": "0x3302b96",
          "transactionHash": "0x3d53899b21bc62d9131af71b172a0d62fac9369f733624e327254fb40c20ee87",
          "transactionIndex": "0x84",
          "logIndex": "0x388",
          "removed": false
        },
        {
          "address": "0x57558cb8d6005de0bae8a2789d5efaae52dba5a8",
          "topics": [
            "0x85496b760a4b7f8d66384b9df21b381f5d1b1e79f229a47aaf4c232edc2fe59a",
            "0x6c8b73984e1a6d292d185029015b5327e19ea145f6a4e1f35392feb2ea7d73b3",
            "0x000000000000000000000000741f0d8bde14140f62107fc60a0ee122b37d4630"
          ],
          "data": "0x000000000000000000000000000000000000000000000000000000000000759c0000000000000000000000000000000000000000000000000de0b6b3a76400000000000000000000000000000000000000000000000000000de0b6b3a7640000",
          "blockHash": "0xef04310057ee8348cc0bfc09f78d528a2031c1b9ead96202a9ce0dde18d5f375",
          "blockNumber": "0x3302b96",
          "transactionHash": "0x3d53899b21bc62d9131af71b172a0d62fac9369f733624e327254fb40c20ee87",
          "transactionIndex": "0x84",
          "logIndex": "0x389",
          "removed": false
        }
      ],
      "logsBloom": "0x0000000000000080000020000004004000000000000000000000000000100000000000000000000000008000000000040000010000000000000000000000000000000200000000000000000800000000000000000000000000000080000000400000000002000000800000000000080000000000001000000000001000000100000000000000000000000008000000000000000000000080000800000000000000000000a000001000100000000000000000000000400000000444000000000000000002000000000000000080000000800000000000000000000000000020000000040000000000000000000040002000000000018000000000000000000000",
      "type": "0x0",
      "transactionHash": "0x3d53899b21bc62d9131af71b172a0d62fac9369f733624e327254fb40c20ee87",
      "transactionIndex": "0x84",
      "blockHash": "0xef04310057ee8348cc0bfc09f78d528a2031c1b9ead96202a9ce0dde18d5f375",
      "blockNumber": "0x3302b96",
      "gasUsed": "0xe0ed0",
      "effectiveGasPrice": "0x5f5e100",
      "from": "0x45dce8e4f2dc005a5f28206a46cb034697eeda8e",
      "to": "0x741f0d8bde14140f62107fc60a0ee122b37d4630",
      "contractAddress": null
    }
  ],
  "libraries": [],
  "pending": [],
  "returns": {},
  "timestamp": 1752114234,
  "chain": 56,
  "commit": "4a90ad4"
}