{
  "transactions": [
    {
      "hash": null,
      "transactionType": "CREATE",
      "contractName": "OFTUpgradeableMock",
      "contractAddress": "0x5d8eb59a12bc98708702305a7b032f4b69dd5b5c",
      "function": null,
      "arguments": [
        "0x1a44076050125825900e736c501f859c50fE728c"
      ],
      "transaction": {
        "from": "0x9c9dd956b413cdbd81690c9394a6b4d22afe6745",
        "gas": "0x442eed",
        "value": "0x0",
        "input": "0x60c06040523480156200001157600080fd5b5060405162003f7e38038062003f7e83398101604081905262000034916200006f565b6001600160a01b038116608052808060128162000053600683620000b7565b6200006090600a620001d6565b60a05250620001e79350505050565b6000602082840312156200008257600080fd5b81516001600160a01b03811681146200009a57600080fd5b9392505050565b634e487b7160e01b600052601160045260246000fd5b60ff8281168282160390811115620000d357620000d3620000a1565b92915050565b600181815b808511156200011a578160001904821115620000fe57620000fe620000a1565b808516156200010c57918102915b93841c9390800290620000de565b509250929050565b6000826200013357506001620000d3565b816200014257506000620000d3565b81600181146200015b5760028114620001665762000186565b6001915050620000d3565b60ff8411156200017a576200017a620000a1565b50506001821b620000d3565b5060208310610133831016604e8410600b8410161715620001ab575081810a620000d3565b620001b78383620000d9565b8060001904821115620001ce57620001ce620000a1565b029392505050565b60006200009a60ff84168362000122565b60805160a051613d246200025a6000396000818161078801528181611cec015281816122e5015261235901526000818161067f01528181610cf401528181610ede015281816117a001528181611df101528181612152015281816123dc015281816127eb01526128a40152613d246000f3fe6080604052600436106102ff5760003560e01c8063715018a611610190578063bb0b6a53116100dc578063d045a0dc11610095578063f01630231161006f578063f01630231461097a578063f2fde38b146109af578063fc0c546a146105c9578063ff7bd03d146109cf57600080fd5b8063d045a0dc14610927578063d42438851461093a578063dd62ed3e1461095a57600080fd5b8063bb0b6a5314610853578063bc70b35414610893578063bd815db0146108b3578063c0779988146108c6578063c7c7f5b3146108e6578063ca5eb5e11461090757600080fd5b80639f68b96411610149578063b3a5abeb11610123578063b3a5abeb146107fe578063b731ea0a1461081e578063b92d0eff146105c9578063b98bd0701461083357600080fd5b80639f68b964146107aa578063a457c2d7146107be578063a9059cbb146107de57600080fd5b8063715018a6146106f75780637d25a05e1461070c578063857749b01461072f5780638da5cb5b1461074357806395d89b4114610761578063963efcaa1461077657600080fd5b806323b872dd1161024f57806352ae2879116102085780635a0dfe4d116101e25780635a0dfe4d146106295780635e280f111461066d5780636fc1b31e146106a157806370a08231146106c157600080fd5b806352ae2879146105c957806354fd4d50146105dc5780635535d4611461060957600080fd5b806323b872dd146104fa578063313ce5671461051a5780633400288b1461053c578063395093511461055c5780633b6f743b1461057c57806340c10f19146105a957600080fd5b8063111ecdad116102bc578063156a0d0f11610296578063156a0d0f1461047e57806317442b70146104a557806318160ddd146104c65780631f5e1334146104e557600080fd5b8063111ecdad1461041657806313137d6514610443578063134d4f251461045657600080fd5b8063056d62de1461030457806306fdde031461033b578063077f224a1461035d578063095ea7b31461037f5780630d35b415146103af5780630e78842c146103de575b600080fd5b34801561031057600080fd5b5061032461031f366004612c28565b6109ef565b604051610332929190612cbc565b60405180910390f35b34801561034757600080fd5b50610350610a08565b6040516103329190612ce1565b34801561036957600080fd5b5061037d610378366004612df4565b610a9a565b005b34801561038b57600080fd5b5061039f61039a366004612e6b565b610bc7565b6040519015158152602001610332565b3480156103bb57600080fd5b506103cf6103ca366004612e97565b610be1565b60405161033293929190612ecb565b3480156103ea57600080fd5b506103fe6103f9366004612f64565b610cb2565b6040516001600160401b039091168152602001610332565b34801561042257600080fd5b5061042b610cbd565b6040516001600160a01b039091168152602001610332565b61037d610451366004612fd0565b610cf2565b34801561046257600080fd5b5061046b600281565b60405161ffff9091168152602001610332565b34801561048a57600080fd5b506040805162b9270b60e21b81526001602082015201610332565b3480156104b157600080fd5b50604080516001808252602082015201610332565b3480156104d257600080fd5b506067545b604051908152602001610332565b3480156104f157600080fd5b5061046b600181565b34801561050657600080fd5b5061039f61051536600461306f565b610dad565b34801561052657600080fd5b5060125b60405160ff9091168152602001610332565b34801561054857600080fd5b5061037d6105573660046130c9565b610dd3565b34801561056857600080fd5b5061039f610577366004612e6b565b610e40565b34801561058857600080fd5b5061059c6105973660046130f3565b610e62565b6040516103329190613144565b3480156105b557600080fd5b5061037d6105c4366004612e6b565b610ec9565b3480156105d557600080fd5b503061042b565b3480156105e857600080fd5b50600160008060408051938452602084019290925290820152606001610332565b34801561061557600080fd5b5061035061062436600461316d565b610f7c565b34801561063557600080fd5b5061039f6106443660046130c9565b63ffffffff919091166000908152600080516020613ccf83398151915260205260409020541490565b34801561067957600080fd5b5061042b7f000000000000000000000000000000000000000000000000000000000000000081565b3480156106ad57600080fd5b5061037d6106bc3660046131a0565b611057565b3480156106cd57600080fd5b506104d76106dc3660046131a0565b6001600160a01b031660009081526065602052604090205490565b34801561070357600080fd5b5061037d6110d3565b34801561071857600080fd5b506103fe6107273660046130c9565b600092915050565b34801561073b57600080fd5b50600661052a565b34801561074f57600080fd5b506033546001600160a01b031661042b565b34801561076d57600080fd5b506103506110e7565b34801561078257600080fd5b506104d77f000000000000000000000000000000000000000000000000000000000000000081565b3480156107b657600080fd5b50600061039f565b3480156107ca57600080fd5b5061039f6107d9366004612e6b565b6110f6565b3480156107ea57600080fd5b5061039f6107f9366004612e6b565b61117c565b34801561080a57600080fd5b506104d76108193660046131d2565b61118a565b34801561082a57600080fd5b5061042b611195565b34801561083f57600080fd5b5061037d61084e366004613233565b6111be565b34801561085f57600080fd5b506104d761086e366004613274565b63ffffffff166000908152600080516020613ccf833981519152602052604090205490565b34801561089f57600080fd5b506103506108ae36600461328f565b61133f565b61037d6108c1366004613233565b6114dd565b3480156108d257600080fd5b506104d76108e1366004612f64565b611674565b6108f96108f43660046132ef565b61167f565b604051610332929190613351565b34801561091357600080fd5b5061037d6109223660046131a0565b611779565b61037d610935366004612fd0565b6117ff565b34801561094657600080fd5b5061037d6109553660046131a0565b61182e565b34801561096657600080fd5b506104d76109753660046133a3565b6118a2565b34801561098657600080fd5b5061099a6109953660046133d1565b6118cd565b60408051928352602083019190915201610332565b3480156109bb57600080fd5b5061037d6109ca3660046131a0565b6118e8565b3480156109db57600080fd5b5061039f6109ea366004613406565b611961565b6060806109fc848461197f565b915091505b9250929050565b606060688054610a1790613422565b80601f0160208091040260200160405190810160405280929190818152602001828054610a4390613422565b8015610a905780601f10610a6557610100808354040283529160200191610a90565b820191906000526020600020905b815481529060010190602001808311610a7357829003601f168201915b5050505050905090565b600054610100900460ff1615808015610aba5750600054600160ff909116105b80610ad45750303b158015610ad4575060005460ff166001145b610b3c5760405162461bcd60e51b815260206004820152602e60248201527f496e697469616c697a61626c653a20636f6e747261637420697320616c72656160448201526d191e481a5b9a5d1a585b1a5e995960921b60648201526084015b60405180910390fd5b6000805460ff191660011790558015610b5f576000805461ff0019166101001790555b610b6a848484611ac5565b610b72611b04565b610b7b82611b33565b8015610bc1576000805461ff0019169055604051600181527f7f26b83ff96e1f2b6a682f133852f6798a09c465da95921460cefb38474024989060200160405180910390a15b50505050565b600033610bd5818585611b85565b60019150505b92915050565b60408051808201909152600080825260208201526060610c14604051806040016040528060008152602001600081525090565b60408051808201825260008082526001600160401b03602080840182905284518381529081019094529195509182610c6f565b604080518082019091526000815260606020820152815260200190600190039081610c475790505b509350600080610c94604089013560608a0135610c8f60208c018c613274565b611ca9565b60408051808201909152918252602082015296989597505050505050565b6000610bdb82611ce5565b6000807f41db8a78b0206aba5c54bcbfc2bda0d84082a84eb88e680379a57b9e9f653c005b546001600160a01b031692915050565b7f00000000000000000000000000000000000000000000000000000000000000006001600160a01b03163314610d3d576040516391ac5e4f60e01b8152336004820152602401610b33565b60208701803590610d5790610d52908a613274565b611d11565b14610d9557610d696020880188613274565b60405163309afaf360e21b815263ffffffff909116600482015260208801356024820152604401610b33565b610da487878787878787611d5c565b50505050505050565b600033610dbb858285611ec3565b610dc6858585611f37565b60019150505b9392505050565b610ddb6120e2565b63ffffffff82166000818152600080516020613ccf833981519152602081815260409283902085905582519384528301849052917f238399d427b947898edb290f5ff0f9109849b1c3ba196a42e35f00c50a54b98b91015b60405180910390a1505050565b600033610bd5818585610e5383836118a2565b610e5d919061346c565b611b85565b60408051808201909152600080825260208201526000610e9260408501356060860135610c8f6020880188613274565b915050600080610ea2868461197f565b9092509050610ebf610eb76020880188613274565b83838861213c565b9695505050505050565b604051632c3e6f0f60e11b81523060048201527f00000000000000000000000000000000000000000000000000000000000000006001600160a01b03169063587cde1e90602401602060405180830381865afa158015610f2d573d6000803e3d6000fd5b505050506040513d601f19601f82011682018060405250810190610f51919061347f565b6001600160a01b0316336001600160a01b031614610f6e57600080fd5b610f78828261221d565b5050565b63ffffffff821660009081527f8d2bda5d9f6ffb5796910376005392955773acee5548d0fcdb10e7c264ea00006020818152604080842061ffff8616855290915290912080546060929190610fd090613422565b80601f0160208091040260200160405190810160405280929190818152602001828054610ffc90613422565b80156110495780601f1061101e57610100808354040283529160200191611049565b820191906000526020600020905b81548152906001019060200180831161102c57829003601f168201915b505050505091505092915050565b61105f6120e2565b7f41db8a78b0206aba5c54bcbfc2bda0d84082a84eb88e680379a57b9e9f653c0080546001600160a01b0319166001600160a01b03831690811782556040519081527ff0be4f1e87349231d80c36b33f9e8639658eeaf474014dee15a3e6a4d4414197906020015b60405180910390a15050565b6110db6120e2565b6110e56000611b33565b565b606060698054610a1790613422565b6000338161110482866118a2565b9050838110156111645760405162461bcd60e51b815260206004820152602560248201527f45524332303a2064656372656173656420616c6c6f77616e63652062656c6f77604482015264207a65726f60d81b6064820152608401610b33565b6111718286868403611b85565b506001949350505050565b600033610bd5818585611f37565b6000610bdb826122de565b6000807fefb041d771d6daaa55702fff6eb740d63ba559a75d2d1d3e151c78ff2480b600610ce2565b6111c66120e2565b7f8d2bda5d9f6ffb5796910376005392955773acee5548d0fcdb10e7c264ea000060005b8281101561130d5761122c8484838181106112075761120761349c565b905060200281019061121991906134b2565b6112279060408101906134d2565b612313565b83838281811061123e5761123e61349c565b905060200281019061125091906134b2565b61125e9060408101906134d2565b8360008787868181106112735761127361349c565b905060200281019061128591906134b2565b611293906020810190613274565b63ffffffff1663ffffffff16815260200190815260200160002060008787868181106112c1576112c161349c565b90506020028101906112d391906134b2565b6112e4906040810190602001613518565b61ffff168152602081019190915260400160002091611304919083613583565b506001016111ea565b507fbe4864a8e820971c0247f5992e2da559595f7bf076a21cb5928d443d2a13b6748383604051610e3392919061366b565b63ffffffff841660009081527f8d2bda5d9f6ffb5796910376005392955773acee5548d0fcdb10e7c264ea00006020818152604080842061ffff8816855290915282208054606093919061139290613422565b80601f01602080910402602001604051908101604052809291908181526020018280546113be90613422565b801561140b5780601f106113e05761010080835404028352916020019161140b565b820191906000526020600020905b8154815290600101906020018083116113ee57829003601f168201915b50505050509050805160000361145c5784848080601f0160208091040260200160405190810160405280939291908181526020018383808284376000920191909152509295506114d5945050505050565b600084900361146e5791506114d59050565b600284106114b8576114808585612313565b8061148e856002818961374f565b6040516020016114a093929190613779565b604051602081830303815290604052925050506114d5565b8484604051639a6d49cd60e01b8152600401610b339291906137a1565b949350505050565b60005b818110156115f357368383838181106114fb576114fb61349c565b905060200281019061150d91906137b5565b905061154d61151f6020830183613274565b602083013563ffffffff919091166000908152600080516020613ccf83398151915260205260409020541490565b61155757506115eb565b3063d045a0dc60c08301358360a08101356115766101008301836134d2565b611587610100890160e08a016131a0565b6115956101208a018a6134d2565b6040518963ffffffff1660e01b81526004016115b797969594939291906137cc565b6000604051808303818588803b1580156115d057600080fd5b505af11580156115e4573d6000803e3d6000fd5b5050505050505b6001016114e0565b50336001600160a01b0316638e9e70996040518163ffffffff1660e01b8152600401600060405180830381865afa158015611632573d6000803e3d6000fd5b505050506040513d6000823e601f3d908101601f1916820160405261165a9190810190613852565b604051638351eea760e01b8152600401610b339190612ce1565b6000610bdb82612355565b611687612bc9565b60408051808201909152600080825260208201526000806116bd604088013560608901356116b860208b018b613274565b61238c565b915091506000806116ce898461197f565b90925090506116fa6116e360208b018b613274565b83836116f4368d90038d018d6138bf565b8b6123a9565b60408051808201909152858152602080820186905282519298509096503391907f85496b760a4b7f8d66384b9df21b381f5d1b1e79f229a47aaf4c232edc2fe59a90611748908d018d613274565b6040805163ffffffff909216825260208201899052810187905260600160405180910390a350505050935093915050565b6117816120e2565b60405163ca5eb5e160e01b81526001600160a01b0382811660048301527f0000000000000000000000000000000000000000000000000000000000000000169063ca5eb5e190602401600060405180830381600087803b1580156117e457600080fd5b505af11580156117f8573d6000803e3d6000fd5b5050505050565b33301461181f5760405163029a949d60e31b815260040160405180910390fd5b610da487878787878787610d95565b6118366120e2565b7fefb041d771d6daaa55702fff6eb740d63ba559a75d2d1d3e151c78ff2480b60080546001600160a01b0319166001600160a01b03831690811782556040519081527fd48d879cef83a1c0bdda516f27b13ddb1b3f8bbac1c9e1511bb2a659c2427760906020016110c7565b6001600160a01b03918216600090815260666020908152604080832093909416825291909152205490565b6000806118db858585611ca9565b915091505b935093915050565b6118f06120e2565b6001600160a01b0381166119555760405162461bcd60e51b815260206004820152602660248201527f4f776e61626c653a206e6577206f776e657220697320746865207a65726f206160448201526564647265737360d01b6064820152608401610b33565b61195e81611b33565b50565b6000602082018035906119789061086e9085613274565b1492915050565b60608060006119dc856020013561199586611ce5565b6119a260a08901896134d2565b8080601f0160208091040260200160405190810160405280939291908181526020018383808284376000920191909152506124b492505050565b90935090506000816119ef5760016119f2565b60025b9050611a12611a046020880188613274565b826108ae60808a018a6134d2565b7f41db8a78b0206aba5c54bcbfc2bda0d84082a84eb88e680379a57b9e9f653c008054919450906001600160a01b031615611abb57805460405163043a78eb60e01b81526001600160a01b039091169063043a78eb90611a789088908890600401612cbc565b602060405180830381865afa158015611a95573d6000803e3d6000fd5b505050506040513d601f19601f82011682018060405250810190611ab991906138f1565b505b5050509250929050565b600054610100900460ff16611aec5760405162461bcd60e51b8152600401610b339061390e565b611af6838361252e565b611aff8161255f565b505050565b600054610100900460ff16611b2b5760405162461bcd60e51b8152600401610b339061390e565b6110e561258f565b603380546001600160a01b038381166001600160a01b0319831681179093556040519116919082907f8be0079c531659141344cd1fd0a4f28419497f9722a3daafe3b4186f6b6457e090600090a35050565b6001600160a01b038316611be75760405162461bcd60e51b8152602060048201526024808201527f45524332303a20617070726f76652066726f6d20746865207a65726f206164646044820152637265737360e01b6064820152608401610b33565b6001600160a01b038216611c485760405162461bcd60e51b815260206004820152602260248201527f45524332303a20617070726f766520746f20746865207a65726f206164647265604482015261737360f01b6064820152608401610b33565b6001600160a01b0383811660008181526066602090815260408083209487168084529482529182902085905590518481527f8c5be1e5ebec7d5bd14f71427d1e84f3dd0314c0f7b2291e5b200ac8c7c3b925910160405180910390a3505050565b600080611cb585612355565b9150819050838110156118e0576040516371c4efed60e01b81526004810182905260248101859052604401610b33565b6000610bdb7f000000000000000000000000000000000000000000000000000000000000000083613959565b63ffffffff81166000908152600080516020613ccf8339815191526020819052604082205480610dcc5760405163f6ff4fb760e01b815263ffffffff85166004820152602401610b33565b6000611d6e611d6b87876125bf565b90565b90506000611d9a82611d88611d838a8a6125d7565b6122de565b611d9560208d018d613274565b6125fa565b90506028861115611e61576000611dd7611dba60608c0160408d016131d2565b611dc760208d018d613274565b84611dd28c8c61260e565b612659565b604051633e5ac80960e11b81529091506001600160a01b037f00000000000000000000000000000000000000000000000000000000000000001690637cb5901290611e2d9086908d90600090879060040161397b565b600060405180830381600087803b158015611e4757600080fd5b505af1158015611e5b573d6000803e3d6000fd5b50505050505b6001600160a01b038216887fefed6d3500546b29533b128a29e3a94d70788727f0507505ac12eaf2e578fd9c611e9a60208d018d613274565b6040805163ffffffff9092168252602082018690520160405180910390a3505050505050505050565b6000611ecf84846118a2565b90506000198114610bc15781811015611f2a5760405162461bcd60e51b815260206004820152601d60248201527f45524332303a20696e73756666696369656e7420616c6c6f77616e63650000006044820152606401610b33565b610bc18484848403611b85565b6001600160a01b038316611f9b5760405162461bcd60e51b815260206004820152602560248201527f45524332303a207472616e736665722066726f6d20746865207a65726f206164604482015264647265737360d81b6064820152608401610b33565b6001600160a01b038216611ffd5760405162461bcd60e51b815260206004820152602360248201527f45524332303a207472616e7366657220746f20746865207a65726f206164647260448201526265737360e81b6064820152608401610b33565b6001600160a01b038316600090815260656020526040902054818110156120755760405162461bcd60e51b815260206004820152602660248201527f45524332303a207472616e7366657220616d6f756e7420657863656564732062604482015265616c616e636560d01b6064820152608401610b33565b6001600160a01b0380851660008181526065602052604080822086860390559286168082529083902080548601905591517fddf252ad1be2c89b69c2b068fc378daa952ba7f163c4a11628f55a4df523b3ef906120d59086815260200190565b60405180910390a3610bc1565b6033546001600160a01b031633146110e55760405162461bcd60e51b815260206004820181905260248201527f4f776e61626c653a2063616c6c6572206973206e6f7420746865206f776e65726044820152606401610b33565b60408051808201909152600080825260208201527f00000000000000000000000000000000000000000000000000000000000000006001600160a01b031663ddc28c586040518060a001604052808863ffffffff16815260200161219f89611d11565b8152602001878152602001868152602001851515815250306040518363ffffffff1660e01b81526004016121d49291906139ac565b6040805180830381865afa1580156121f0573d6000803e3d6000fd5b505050506040513d601f19601f820116820180604052508101906122149190613a55565b95945050505050565b6001600160a01b0382166122735760405162461bcd60e51b815260206004820152601f60248201527f45524332303a206d696e7420746f20746865207a65726f2061646472657373006044820152606401610b33565b8060676000828254612285919061346c565b90915550506001600160a01b0382166000818152606560209081526040808320805486019055518481527fddf252ad1be2c89b69c2b068fc378daa952ba7f163c4a11628f55a4df523b3ef910160405180910390a35050565b6000610bdb7f00000000000000000000000000000000000000000000000000000000000000006001600160401b038416613a71565b6000612322600282848661374f565b61232b91613a88565b60f01c905060038114611aff578282604051639a6d49cd60e01b8152600401610b339291906137a1565b60007f00000000000000000000000000000000000000000000000000000000000000006123828184613959565b610bdb9190613a71565b60008061239a858585611ca9565b90925090506118e0338361268b565b6123b1612bc9565b60006123c084600001516127bf565b6020850151909150156123da576123da84602001516127e7565b7f00000000000000000000000000000000000000000000000000000000000000006001600160a01b0316632637a450826040518060a001604052808b63ffffffff16815260200161242a8c611d11565b81526020018a815260200189815260200160008960200151111515815250866040518463ffffffff1660e01b81526004016124669291906139ac565b60806040518083038185885af1158015612484573d6000803e3d6000fd5b50505050506040513d601f19601f820116820180604052508101906124a99190613ab8565b979650505050505050565b80516060901515806124fd5784846040516020016124e992919091825260c01b6001600160c01b031916602082015260280190565b604051602081830303815290604052612524565b848433856040516020016125149493929190613b1f565b6040516020818303038152906040525b9150935093915050565b600054610100900460ff166125555760405162461bcd60e51b8152600401610b339061390e565b610f7882826128c9565b600054610100900460ff166125865760405162461bcd60e51b8152600401610b339061390e565b61195e81612909565b600054610100900460ff166125b65760405162461bcd60e51b8152600401610b339061390e565b6110e533611b33565b60006125ce602082848661374f565b610dcc91613b62565b60006125e760286020848661374f565b6125f091613b80565b60c01c9392505050565b6000612606848461221d565b509092915050565b606061261d826028818661374f565b8080601f016020809104026020016040519081016040528093929190818152602001838380828437600092019190915250929695505050505050565b6060848484846040516020016126729493929190613bae565b6040516020818303038152906040529050949350505050565b6001600160a01b0382166126eb5760405162461bcd60e51b815260206004820152602160248201527f45524332303a206275726e2066726f6d20746865207a65726f206164647265736044820152607360f81b6064820152608401610b33565b6001600160a01b0382166000908152606560205260409020548181101561275f5760405162461bcd60e51b815260206004820152602260248201527f45524332303a206275726e20616d6f756e7420657863656564732062616c616e604482015261636560f01b6064820152608401610b33565b6001600160a01b03831660008181526065602090815260408083208686039055606780548790039055518581529192917fddf252ad1be2c89b69c2b068fc378daa952ba7f163c4a11628f55a4df523b3ef910160405180910390a3505050565b60008134146127e3576040516304fb820960e51b8152346004820152602401610b33565b5090565b60007f00000000000000000000000000000000000000000000000000000000000000006001600160a01b031663e4fe1d946040518163ffffffff1660e01b8152600401602060405180830381865afa158015612847573d6000803e3d6000fd5b505050506040513d601f19601f8201168201806040525081019061286b919061347f565b90506001600160a01b038116612894576040516329b99a9560e11b815260040160405180910390fd5b610f786001600160a01b038216337f000000000000000000000000000000000000000000000000000000000000000085612939565b600054610100900460ff166128f05760405162461bcd60e51b8152600401610b339061390e565b60686128fc8382613bfd565b506069611aff8282613bfd565b600054610100900460ff166129305760405162461bcd60e51b8152600401610b339061390e565b61195e81612993565b604080516001600160a01b0385811660248301528416604482015260648082018490528251808303909101815260849091019091526020810180516001600160e01b03166323b872dd60e01b179052610bc19085906129e1565b600054610100900460ff166129ba5760405162461bcd60e51b8152600401610b339061390e565b6001600160a01b03811661178157604051632d618d8160e21b815260040160405180910390fd5b6000612a36826040518060400160405280602081526020017f5361666545524332303a206c6f772d6c6576656c2063616c6c206661696c6564815250856001600160a01b0316612ab69092919063ffffffff16565b9050805160001480612a57575080806020019051810190612a5791906138f1565b611aff5760405162461bcd60e51b815260206004820152602a60248201527f5361666545524332303a204552433230206f7065726174696f6e20646964206e6044820152691bdd081cdd58d8d9595960b21b6064820152608401610b33565b60606114d5848460008585600080866001600160a01b03168587604051612add9190613cbc565b60006040518083038185875af1925050503d8060008114612b1a576040519150601f19603f3d011682016040523d82523d6000602084013e612b1f565b606091505b50915091506124a98783838760608315612b9a578251600003612b93576001600160a01b0385163b612b935760405162461bcd60e51b815260206004820152601d60248201527f416464726573733a2063616c6c20746f206e6f6e2d636f6e74726163740000006044820152606401610b33565b50816114d5565b6114d58383815115612baf5781518083602001fd5b8060405162461bcd60e51b8152600401610b339190612ce1565b60405180606001604052806000801916815260200160006001600160401b03168152602001612c0b604051806040016040528060008152602001600081525090565b905290565b600060e08284031215612c2257600080fd5b50919050565b60008060408385031215612c3b57600080fd5b82356001600160401b03811115612c5157600080fd5b612c5d85828601612c10565b95602094909401359450505050565b60005b83811015612c87578181015183820152602001612c6f565b50506000910152565b60008151808452612ca8816020860160208601612c6c565b601f01601f19169290920160200192915050565b604081526000612ccf6040830185612c90565b82810360208401526122148185612c90565b602081526000610dcc6020830184612c90565b634e487b7160e01b600052604160045260246000fd5b604080519081016001600160401b0381118282101715612d2c57612d2c612cf4565b60405290565b604051601f8201601f191681016001600160401b0381118282101715612d5a57612d5a612cf4565b604052919050565b60006001600160401b03821115612d7b57612d7b612cf4565b50601f01601f191660200190565b600082601f830112612d9a57600080fd5b8135612dad612da882612d62565b612d32565b818152846020838601011115612dc257600080fd5b816020850160208301376000918101602001919091529392505050565b6001600160a01b038116811461195e57600080fd5b600080600060608486031215612e0957600080fd5b83356001600160401b0380821115612e2057600080fd5b612e2c87838801612d89565b94506020860135915080821115612e4257600080fd5b50612e4f86828701612d89565b9250506040840135612e6081612ddf565b809150509250925092565b60008060408385031215612e7e57600080fd5b8235612e8981612ddf565b946020939093013593505050565b600060208284031215612ea957600080fd5b81356001600160401b03811115612ebf57600080fd5b6114d584828501612c10565b8351815260208085015190820152600060a08201604060a0604085015281865180845260c08601915060c08160051b8701019350602080890160005b83811015612f465788870360bf19018552815180518852830151838801879052612f3387890182612c90565b9750509382019390820190600101612f07565b505087516060880152505050602085015160808501525090506114d5565b600060208284031215612f7657600080fd5b5035919050565b600060608284031215612c2257600080fd5b60008083601f840112612fa157600080fd5b5081356001600160401b03811115612fb857600080fd5b602083019150836020828501011115610a0157600080fd5b600080600080600080600060e0888a031215612feb57600080fd5b612ff58989612f7d565b96506060880135955060808801356001600160401b038082111561301857600080fd5b6130248b838c01612f8f565b909750955060a08a0135915061303982612ddf565b90935060c0890135908082111561304f57600080fd5b5061305c8a828b01612f8f565b989b979a50959850939692959293505050565b60008060006060848603121561308457600080fd5b833561308f81612ddf565b9250602084013561309f81612ddf565b929592945050506040919091013590565b803563ffffffff811681146130c457600080fd5b919050565b600080604083850312156130dc57600080fd5b612e89836130b0565b801515811461195e57600080fd5b6000806040838503121561310657600080fd5b82356001600160401b0381111561311c57600080fd5b61312885828601612c10565b9250506020830135613139816130e5565b809150509250929050565b815181526020808301519082015260408101610bdb565b803561ffff811681146130c457600080fd5b6000806040838503121561318057600080fd5b613189836130b0565b91506131976020840161315b565b90509250929050565b6000602082840312156131b257600080fd5b8135610dcc81612ddf565b6001600160401b038116811461195e57600080fd5b6000602082840312156131e457600080fd5b8135610dcc816131bd565b60008083601f84011261320157600080fd5b5081356001600160401b0381111561321857600080fd5b6020830191508360208260051b8501011115610a0157600080fd5b6000806020838503121561324657600080fd5b82356001600160401b0381111561325c57600080fd5b613268858286016131ef565b90969095509350505050565b60006020828403121561328657600080fd5b610dcc826130b0565b600080600080606085870312156132a557600080fd5b6132ae856130b0565b93506132bc6020860161315b565b925060408501356001600160401b038111156132d757600080fd5b6132e387828801612f8f565b95989497509550505050565b6000806000838503608081121561330557600080fd5b84356001600160401b0381111561331b57600080fd5b61332787828801612c10565b9450506040601f198201121561333c57600080fd5b506020840191506060840135612e6081612ddf565b600060c082019050835182526001600160401b036020850151166020830152604084015161338c604084018280518252602090810151910152565b5082516080830152602083015160a0830152610dcc565b600080604083850312156133b657600080fd5b82356133c181612ddf565b9150602083013561313981612ddf565b6000806000606084860312156133e657600080fd5b83359250602084013591506133fd604085016130b0565b90509250925092565b60006060828403121561341857600080fd5b610dcc8383612f7d565b600181811c9082168061343657607f821691505b602082108103612c2257634e487b7160e01b600052602260045260246000fd5b634e487b7160e01b600052601160045260246000fd5b80820180821115610bdb57610bdb613456565b60006020828403121561349157600080fd5b8151610dcc81612ddf565b634e487b7160e01b600052603260045260246000fd5b60008235605e198336030181126134c857600080fd5b9190910192915050565b6000808335601e198436030181126134e957600080fd5b8301803591506001600160401b0382111561350357600080fd5b602001915036819003821315610a0157600080fd5b60006020828403121561352a57600080fd5b610dcc8261315b565b601f821115611aff576000816000526020600020601f850160051c8101602086101561355c5750805b601f850160051c820191505b8181101561357b57828155600101613568565b505050505050565b6001600160401b0383111561359a5761359a612cf4565b6135ae836135a88354613422565b83613533565b6000601f8411600181146135e257600085156135ca5750838201355b600019600387901b1c1916600186901b1783556117f8565b600083815260209020601f19861690835b8281101561361357868501358255602094850194600190920191016135f3565b50868210156136305760001960f88860031b161c19848701351681555b505060018560011b0183555050505050565b81835281816020850137506000828201602090810191909152601f909101601f19169091010190565b60208082528181018390526000906040808401600586901b8501820187855b8881101561374157878303603f190184528135368b9003605e190181126136b057600080fd5b8a01606063ffffffff6136c2836130b0565b16855261ffff6136d389840161315b565b168886015286820135601e198336030181126136ee57600080fd5b9091018781019190356001600160401b0381111561370b57600080fd5b80360383131561371a57600080fd5b818887015261372c8287018285613642565b9689019695505050918601915060010161368a565b509098975050505050505050565b6000808585111561375f57600080fd5b8386111561376c57600080fd5b5050820193919092039150565b6000845161378b818460208901612c6c565b8201838582376000930192835250909392505050565b6020815260006114d5602083018486613642565b6000823561013e198336030181126134c857600080fd5b63ffffffff6137da896130b0565b16815260208801356020820152600060408901356137f7816131bd565b6001600160401b03811660408401525087606083015260e0608083015261382260e083018789613642565b6001600160a01b03861660a084015282810360c0840152613844818587613642565b9a9950505050505050505050565b60006020828403121561386457600080fd5b81516001600160401b0381111561387a57600080fd5b8201601f8101841361388b57600080fd5b8051613899612da882612d62565b8181528560208385010111156138ae57600080fd5b612214826020830160208601612c6c565b6000604082840312156138d157600080fd5b6138d9612d0a565b82358152602083013560208201528091505092915050565b60006020828403121561390357600080fd5b8151610dcc816130e5565b6020808252602b908201527f496e697469616c697a61626c653a20636f6e7472616374206973206e6f74206960408201526a6e697469616c697a696e6760a81b606082015260800190565b60008261397657634e487b7160e01b600052601260045260246000fd5b500490565b60018060a01b038516815283602082015261ffff83166040820152608060608201526000610ebf6080830184612c90565b6040815263ffffffff8351166040820152602083015160608201526000604084015160a060808401526139e260e0840182612c90565b90506060850151603f198483030160a08501526139ff8282612c90565b60809690960151151560c08501525050506001600160a01b039190911660209091015290565b600060408284031215613a3757600080fd5b613a3f612d0a565b9050815181526020820151602082015292915050565b600060408284031215613a6757600080fd5b610dcc8383613a25565b8082028115828204841417610bdb57610bdb613456565b6001600160f01b03198135818116916002851015613ab05780818660020360031b1b83161692505b505092915050565b600060808284031215613aca57600080fd5b604051606081018181106001600160401b0382111715613aec57613aec612cf4565b604052825181526020830151613b01816131bd565b6020820152613b138460408501613a25565b60408201529392505050565b8481526001600160401b0360c01b8460c01b16602082015282602882015260008251613b52816048850160208701612c6c565b9190910160480195945050505050565b80356020831015610bdb57600019602084900360031b1b1692915050565b6001600160c01b03198135818116916008851015613ab05760089490940360031b84901b1690921692915050565b6001600160401b0360c01b8560c01b16815263ffffffff60e01b8460e01b16600882015282600c82015260008251613bed81602c850160208701612c6c565b91909101602c0195945050505050565b81516001600160401b03811115613c1657613c16612cf4565b613c2a81613c248454613422565b84613533565b602080601f831160018114613c5f5760008415613c475750858301515b600019600386901b1c1916600185901b17855561357b565b600085815260208120601f198616915b82811015613c8e57888601518255948401946001909101908401613c6f565b5085821015613cac5787850151600019600388901b60f8161c191681555b5050505050600190811b01905550565b600082516134c8818460208701612c6c56fe72ab1bc1039b79dc4724ffca13de82c96834302d3c7e0d4252232d4b2dd8f900a2646970667358221220a7dd1535e0ce6a97862bcab07f12d368f392bb0e47e6477bc9926da016b8d63c64736f6c634300081600330000000000000000000000001a44076050125825900e736c501f859c50fe728c",
        "nonce": "0x1e",
        "chainId": "0xfc"
      },
      "additionalContracts": [],
      "isFixedGasLimit": false
    },
    {
      "hash": null,
      "transactionType": "CREATE",
      "contractName": "TransparentUpgradeableProxy",
      "contractAddress": "0xf6f45ccb5e85d1400067ee66f9e168f83e86124e",
      "function": null,
      "arguments": [
        "0x8f1B9c1fd67136D525E14D96Efb3887a33f16250",
        "0x9C9dD956b413cdBD81690c9394a6B4D22afe6745",
        "0x"
      ],
      "transaction": {
        "from": "0x9c9dd956b413cdbd81690c9394a6b4d22afe6745",
        "gas": "0xb0cd9",
        "value": "0x0",
        "input": "0x608060405260405162000df638038062000df6833981016040819052620000269162000473565b828162000036828260006200009a565b5062000066905060017fb53127684a568b3173ae13b9f8a6016e243e63b6e8ee1178d6a717850b5d610462000553565b60008051602062000daf8339815191521462000086576200008662000575565b6200009182620000cc565b505050620005de565b620000a5836200013e565b600082511180620000b35750805b15620000c757620000c5838362000180565b505b505050565b7f7e644d79422f17c01e4894b5f4f588d331ebfa28653d42ae832dc59e38c9798f6200010e60008051602062000daf833981519152546001600160a01b031690565b604080516001600160a01b03928316815291841660208301520160405180910390a16200013b81620001b1565b50565b62000149816200024f565b6040516001600160a01b038216907fbc7cd75a20ee27fd9adebab32041f755214dbc6bffa90cc0225b39da2e5c2d3b90600090a250565b6060620001a8838360405180606001604052806027815260200162000dcf60279139620002e6565b90505b92915050565b6001600160a01b0381166200021c5760405162461bcd60e51b815260206004820152602660248201527f455243313936373a206e65772061646d696e20697320746865207a65726f206160448201526564647265737360d01b60648201526084015b60405180910390fd5b8060008051602062000daf8339815191525b80546001600160a01b0319166001600160a01b039290921691909117905550565b6001600160a01b0381163b620002be5760405162461bcd60e51b815260206004820152602d60248201527f455243313936373a206e657720696d706c656d656e746174696f6e206973206e60448201526c1bdd08184818dbdb9d1c9858dd609a1b606482015260840162000213565b807f360894a13ba1a3210667c828492db98dca3e2076cc3735a920a3ca505d382bbc6200022e565b6060600080856001600160a01b0316856040516200030591906200058b565b600060405180830381855af49150503d806000811462000342576040519150601f19603f3d011682016040523d82523d6000602084013e62000347565b606091505b5090925090506200035b8683838762000365565b9695505050505050565b60608315620003d9578251600003620003d1576001600160a01b0385163b620003d15760405162461bcd60e51b815260206004820152601d60248201527f416464726573733a2063616c6c20746f206e6f6e2d636f6e7472616374000000604482015260640162000213565b5081620003e5565b620003e58383620003ed565b949350505050565b815115620003fe5781518083602001fd5b8060405162461bcd60e51b8152600401620002139190620005a9565b80516001600160a01b03811681146200043257600080fd5b919050565b634e487b7160e01b600052604160045260246000fd5b60005b838110156200046a57818101518382015260200162000450565b50506000910152565b6000806000606084860312156200048957600080fd5b62000494846200041a565b9250620004a4602085016200041a565b60408501519092506001600160401b0380821115620004c257600080fd5b818601915086601f830112620004d757600080fd5b815181811115620004ec57620004ec62000437565b604051601f8201601f19908116603f0116810190838211818310171562000517576200051762000437565b816040528281528960208487010111156200053157600080fd5b620005448360208301602088016200044d565b80955050505050509250925092565b81810381811115620001ab57634e487b7160e01b600052601160045260246000fd5b634e487b7160e01b600052600160045260246000fd5b600082516200059f8184602087016200044d565b9190910192915050565b6020815260008251806020840152620005ca8160408501602087016200044d565b601f01601f19169190910160400192915050565b6107c180620005ee6000396000f3fe60806040526004361061004e5760003560e01c80633659cfe6146100655780634f1ef286146100855780635c60da1b146100985780638f283970146100c9578063f851a440146100e95761005d565b3661005d5761005b6100fe565b005b61005b6100fe565b34801561007157600080fd5b5061005b610080366004610653565b610118565b61005b61009336600461066e565b610155565b3480156100a457600080fd5b506100ad6101bc565b6040516001600160a01b03909116815260200160405180910390f35b3480156100d557600080fd5b5061005b6100e4366004610653565b6101ed565b3480156100f557600080fd5b506100ad61020d565b61010661022e565b61011661011161025e565b610268565b565b61012061028c565b6001600160a01b0316330361014d5761014a816040518060200160405280600081525060006102bf565b50565b61014a6100fe565b61015d61028c565b6001600160a01b031633036101b4576101af8383838080601f016020809104026020016040519081016040528093929190818152602001838380828437600092019190915250600192506102bf915050565b505050565b6101af6100fe565b60006101c661028c565b6001600160a01b031633036101e2576101dd61025e565b905090565b6101ea6100fe565b90565b6101f561028c565b6001600160a01b0316330361014d5761014a816102ea565b600061021761028c565b6001600160a01b031633036101e2576101dd61028c565b61023661028c565b6001600160a01b031633036101165760405163786a591f60e11b815260040160405180910390fd5b60006101dd61033e565b3660008037600080366000845af43d6000803e808015610287573d6000f35b3d6000fd5b60007fb53127684a568b3173ae13b9f8a6016e243e63b6e8ee1178d6a717850b5d61035b546001600160a01b0316919050565b6102c883610366565b6000825111806102d55750805b156101af576102e483836103a6565b50505050565b7f7e644d79422f17c01e4894b5f4f588d331ebfa28653d42ae832dc59e38c9798f61031361028c565b604080516001600160a01b03928316815291841660208301520160405180910390a161014a816103d2565b60007f360894a13ba1a3210667c828492db98dca3e2076cc3735a920a3ca505d382bbc6102b0565b61036f81610480565b6040516001600160a01b038216907fbc7cd75a20ee27fd9adebab32041f755214dbc6bffa90cc0225b39da2e5c2d3b90600090a250565b60606103cb838360405180606001604052806027815260200161076560279139610514565b9392505050565b6001600160a01b03811661043c5760405162461bcd60e51b815260206004820152602660248201527f455243313936373a206e65772061646d696e20697320746865207a65726f206160448201526564647265737360d01b60648201526084015b60405180910390fd5b807fb53127684a568b3173ae13b9f8a6016e243e63b6e8ee1178d6a717850b5d61035b80546001600160a01b0319166001600160a01b039290921691909117905550565b6001600160a01b0381163b6104ed5760405162461bcd60e51b815260206004820152602d60248201527f455243313936373a206e657720696d706c656d656e746174696f6e206973206e60448201526c1bdd08184818dbdb9d1c9858dd609a1b6064820152608401610433565b807f360894a13ba1a3210667c828492db98dca3e2076cc3735a920a3ca505d382bbc61045f565b6060600080856001600160a01b0316856040516105319190610715565b600060405180830381855af49150503d806000811461056c576040519150601f19603f3d011682016040523d82523d6000602084013e610571565b606091505b50915091506105828683838761058c565b9695505050505050565b606083156105fb5782516000036105f4576001600160a01b0385163b6105f45760405162461bcd60e51b815260206004820152601d60248201527f416464726573733a2063616c6c20746f206e6f6e2d636f6e74726163740000006044820152606401610433565b5081610605565b610605838361060d565b949350505050565b81511561061d5781518083602001fd5b8060405162461bcd60e51b81526004016104339190610731565b80356001600160a01b038116811461064e57600080fd5b919050565b60006020828403121561066557600080fd5b6103cb82610637565b60008060006040848603121561068357600080fd5b61068c84610637565b9250602084013567ffffffffffffffff808211156106a957600080fd5b818601915086601f8301126106bd57600080fd5b8135818111156106cc57600080fd5b8760208285010111156106de57600080fd5b6020830194508093505050509250925092565b60005b8381101561070c5781810151838201526020016106f4565b50506000910152565b600082516107278184602087016106f1565b9190910192915050565b60208152600082518060208401526107508160408501602087016106f1565b601f01601f1916919091016040019291505056fe416464726573733a206c6f772d6c6576656c2064656c65676174652063616c6c206661696c6564a2646970667358221220c9758782effd34c50684c9008a4ffd4b3fbcecbd39c17a55f1248566c174078b64736f6c63430008160033b53127684a568b3173ae13b9f8a6016e243e63b6e8ee1178d6a717850b5d6103416464726573733a206c6f772d6c6576656c2064656c65676174652063616c6c206661696c65640000000000000000000000008f1b9c1fd67136d525e14d96efb3887a33f162500000000000000000000000009c9dd956b413cdbd81690c9394a6b4d22afe674500000000000000000000000000000000000000000000000000000000000000600000000000000000000000000000000000000000000000000000000000000000",
        "nonce": "0x1f",
        "chainId": "0xfc"
      },
      "additionalContracts": [],
      "isFixedGasLimit": false
    },
    {
      "hash": null,
      "transactionType": "CALL",
      "contractName": "TransparentUpgradeableProxy",
      "contractAddress": "0xf6f45ccb5e85d1400067ee66f9e168f83e86124e",
      "function": "upgradeToAndCall(address,bytes)",
      "arguments": [
        "0x5d8EB59A12Bc98708702305A7b032f4b69Dd5b5c",
        "0x077f224a000000000000000000000000000000000000000000000000000000000000006000000000000000000000000000000000000000000000000000000000000000a00000000000000000000000000990be6db8c785fbbf9ded8baec612a10cae814b00000000000000000000000000000000000000000000000000000000000000094d6f636b2046726178000000000000000000000000000000000000000000000000000000000000000000000000000000000000000000000000000000000000056d46524158000000000000000000000000000000000000000000000000000000"
      ],
      "transaction": {
        "from": "0x9c9dd956b413cdbd81690c9394a6b4d22afe6745",
        "to": "0xf6f45ccb5e85d1400067ee66f9e168f83e86124e",
        "gas": "0x3621c",
        "value": "0x0",
        "input": "0x4f1ef2860000000000000000000000005d8eb59a12bc98708702305a7b032f4b69dd5b5c000000000000000000000000000000000000000000000000000000000000004000000000000000000000000000000000000000000000000000000000000000e4077f224a000000000000000000000000000000000000000000000000000000000000006000000000000000000000000000000000000000000000000000000000000000a00000000000000000000000000990be6db8c785fbbf9ded8baec612a10cae814b00000000000000000000000000000000000000000000000000000000000000094d6f636b2046726178000000000000000000000000000000000000000000000000000000000000000000000000000000000000000000000000000000000000056d4652415800000000000000000000000000000000000000000000000000000000000000000000000000000000000000000000000000000000000000",
        "nonce": "0x20",
        "chainId": "0xfc"
      },
      "additionalContracts": [],
      "isFixedGasLimit": false
    },
    {
      "hash": null,
      "transactionType": "CALL",
      "contractName": "TransparentUpgradeableProxy",
      "contractAddress": "0xf6f45ccb5e85d1400067ee66f9e168f83e86124e",
      "function": "changeAdmin(address)",
      "arguments": [
        "0x223a681fc5c5522c85C96157c0efA18cd6c5405c"
      ],
      "transaction": {
        "from": "0x9c9dd956b413cdbd81690c9394a6b4d22afe6745",
        "to": "0xf6f45ccb5e85d1400067ee66f9e168f83e86124e",
        "gas": "0xa3ad",
        "value": "0x0",
        "input": "0x8f283970000000000000000000000000223a681fc5c5522c85c96157c0efa18cd6c5405c",
        "nonce": "0x21",
        "chainId": "0xfc"
      },
      "additionalContracts": [],
      "isFixedGasLimit": false
    },
    {
      "hash": null,
      "transactionType": "CREATE",
      "contractName": "OFTUpgradeableMock",
      "contractAddress": "0x8ebb34b1880b2ea5e458082590b3a2c9ea7c41a2",
      "function": null,
      "arguments": [
        "0x1a44076050125825900e736c501f859c50fE728c"
      ],
      "transaction": {
        "from": "0x9c9dd956b413cdbd81690c9394a6b4d22afe6745",
        "gas": "0x442eed",
        "value": "0x0",
        "input": "0x60c06040523480156200001157600080fd5b5060405162003f7e38038062003f7e83398101604081905262000034916200006f565b6001600160a01b038116608052808060128162000053600683620000b7565b6200006090600a620001d6565b60a05250620001e79350505050565b6000602082840312156200008257600080fd5b81516001600160a01b03811681146200009a57600080fd5b9392505050565b634e487b7160e01b600052601160045260246000fd5b60ff8281168282160390811115620000d357620000d3620000a1565b92915050565b600181815b808511156200011a578160001904821115620000fe57620000fe620000a1565b808516156200010c57918102915b93841c9390800290620000de565b509250929050565b6000826200013357506001620000d3565b816200014257506000620000d3565b81600181146200015b5760028114620001665762000186565b6001915050620000d3565b60ff8411156200017a576200017a620000a1565b50506001821b620000d3565b5060208310610133831016604e8410600b8410161715620001ab575081810a620000d3565b620001b78383620000d9565b8060001904821115620001ce57620001ce620000a1565b029392505050565b60006200009a60ff84168362000122565b60805160a051613d246200025a6000396000818161078801528181611cec015281816122e5015261235901526000818161067f01528181610cf401528181610ede015281816117a001528181611df101528181612152015281816123dc015281816127eb01526128a40152613d246000f3fe6080604052600436106102ff5760003560e01c8063715018a611610190578063bb0b6a53116100dc578063d045a0dc11610095578063f01630231161006f578063f01630231461097a578063f2fde38b146109af578063fc0c546a146105c9578063ff7bd03d146109cf57600080fd5b8063d045a0dc14610927578063d42438851461093a578063dd62ed3e1461095a57600080fd5b8063bb0b6a5314610853578063bc70b35414610893578063bd815db0146108b3578063c0779988146108c6578063c7c7f5b3146108e6578063ca5eb5e11461090757600080fd5b80639f68b96411610149578063b3a5abeb11610123578063b3a5abeb146107fe578063b731ea0a1461081e578063b92d0eff146105c9578063b98bd0701461083357600080fd5b80639f68b964146107aa578063a457c2d7146107be578063a9059cbb146107de57600080fd5b8063715018a6146106f75780637d25a05e1461070c578063857749b01461072f5780638da5cb5b1461074357806395d89b4114610761578063963efcaa1461077657600080fd5b806323b872dd1161024f57806352ae2879116102085780635a0dfe4d116101e25780635a0dfe4d146106295780635e280f111461066d5780636fc1b31e146106a157806370a08231146106c157600080fd5b806352ae2879146105c957806354fd4d50146105dc5780635535d4611461060957600080fd5b806323b872dd146104fa578063313ce5671461051a5780633400288b1461053c578063395093511461055c5780633b6f743b1461057c57806340c10f19146105a957600080fd5b8063111ecdad116102bc578063156a0d0f11610296578063156a0d0f1461047e57806317442b70146104a557806318160ddd146104c65780631f5e1334146104e557600080fd5b8063111ecdad1461041657806313137d6514610443578063134d4f251461045657600080fd5b8063056d62de1461030457806306fdde031461033b578063077f224a1461035d578063095ea7b31461037f5780630d35b415146103af5780630e78842c146103de575b600080fd5b34801561031057600080fd5b5061032461031f366004612c28565b6109ef565b604051610332929190612cbc565b60405180910390f35b34801561034757600080fd5b50610350610a08565b6040516103329190612ce1565b34801561036957600080fd5b5061037d610378366004612df4565b610a9a565b005b34801561038b57600080fd5b5061039f61039a366004612e6b565b610bc7565b6040519015158152602001610332565b3480156103bb57600080fd5b506103cf6103ca366004612e97565b610be1565b60405161033293929190612ecb565b3480156103ea57600080fd5b506103fe6103f9366004612f64565b610cb2565b6040516001600160401b039091168152602001610332565b34801561042257600080fd5b5061042b610cbd565b6040516001600160a01b039091168152602001610332565b61037d610451366004612fd0565b610cf2565b34801561046257600080fd5b5061046b600281565b60405161ffff9091168152602001610332565b34801561048a57600080fd5b506040805162b9270b60e21b81526001602082015201610332565b3480156104b157600080fd5b50604080516001808252602082015201610332565b3480156104d257600080fd5b506067545b604051908152602001610332565b3480156104f157600080fd5b5061046b600181565b34801561050657600080fd5b5061039f61051536600461306f565b610dad565b34801561052657600080fd5b5060125b60405160ff9091168152602001610332565b34801561054857600080fd5b5061037d6105573660046130c9565b610dd3565b34801561056857600080fd5b5061039f610577366004612e6b565b610e40565b34801561058857600080fd5b5061059c6105973660046130f3565b610e62565b6040516103329190613144565b3480156105b557600080fd5b5061037d6105c4366004612e6b565b610ec9565b3480156105d557600080fd5b503061042b565b3480156105e857600080fd5b50600160008060408051938452602084019290925290820152606001610332565b34801561061557600080fd5b5061035061062436600461316d565b610f7c565b34801561063557600080fd5b5061039f6106443660046130c9565b63ffffffff919091166000908152600080516020613ccf83398151915260205260409020541490565b34801561067957600080fd5b5061042b7f000000000000000000000000000000000000000000000000000000000000000081565b3480156106ad57600080fd5b5061037d6106bc3660046131a0565b611057565b3480156106cd57600080fd5b506104d76106dc3660046131a0565b6001600160a01b031660009081526065602052604090205490565b34801561070357600080fd5b5061037d6110d3565b34801561071857600080fd5b506103fe6107273660046130c9565b600092915050565b34801561073b57600080fd5b50600661052a565b34801561074f57600080fd5b506033546001600160a01b031661042b565b34801561076d57600080fd5b506103506110e7565b34801561078257600080fd5b506104d77f000000000000000000000000000000000000000000000000000000000000000081565b3480156107b657600080fd5b50600061039f565b3480156107ca57600080fd5b5061039f6107d9366004612e6b565b6110f6565b3480156107ea57600080fd5b5061039f6107f9366004612e6b565b61117c565b34801561080a57600080fd5b506104d76108193660046131d2565b61118a565b34801561082a57600080fd5b5061042b611195565b34801561083f57600080fd5b5061037d61084e366004613233565b6111be565b34801561085f57600080fd5b506104d761086e366004613274565b63ffffffff166000908152600080516020613ccf833981519152602052604090205490565b34801561089f57600080fd5b506103506108ae36600461328f565b61133f565b61037d6108c1366004613233565b6114dd565b3480156108d257600080fd5b506104d76108e1366004612f64565b611674565b6108f96108f43660046132ef565b61167f565b604051610332929190613351565b34801561091357600080fd5b5061037d6109223660046131a0565b611779565b61037d610935366004612fd0565b6117ff565b34801561094657600080fd5b5061037d6109553660046131a0565b61182e565b34801561096657600080fd5b506104d76109753660046133a3565b6118a2565b34801561098657600080fd5b5061099a6109953660046133d1565b6118cd565b60408051928352602083019190915201610332565b3480156109bb57600080fd5b5061037d6109ca3660046131a0565b6118e8565b3480156109db57600080fd5b5061039f6109ea366004613406565b611961565b6060806109fc848461197f565b915091505b9250929050565b606060688054610a1790613422565b80601f0160208091040260200160405190810160405280929190818152602001828054610a4390613422565b8015610a905780601f10610a6557610100808354040283529160200191610a90565b820191906000526020600020905b815481529060010190602001808311610a7357829003601f168201915b5050505050905090565b600054610100900460ff1615808015610aba5750600054600160ff909116105b80610ad45750303b158015610ad4575060005460ff166001145b610b3c5760405162461bcd60e51b815260206004820152602e60248201527f496e697469616c697a61626c653a20636f6e747261637420697320616c72656160448201526d191e481a5b9a5d1a585b1a5e995960921b60648201526084015b60405180910390fd5b6000805460ff191660011790558015610b5f576000805461ff0019166101001790555b610b6a848484611ac5565b610b72611b04565b610b7b82611b33565b8015610bc1576000805461ff0019169055604051600181527f7f26b83ff96e1f2b6a682f133852f6798a09c465da95921460cefb38474024989060200160405180910390a15b50505050565b600033610bd5818585611b85565b60019150505b92915050565b60408051808201909152600080825260208201526060610c14604051806040016040528060008152602001600081525090565b60408051808201825260008082526001600160401b03602080840182905284518381529081019094529195509182610c6f565b604080518082019091526000815260606020820152815260200190600190039081610c475790505b509350600080610c94604089013560608a0135610c8f60208c018c613274565b611ca9565b60408051808201909152918252602082015296989597505050505050565b6000610bdb82611ce5565b6000807f41db8a78b0206aba5c54bcbfc2bda0d84082a84eb88e680379a57b9e9f653c005b546001600160a01b031692915050565b7f00000000000000000000000000000000000000000000000000000000000000006001600160a01b03163314610d3d576040516391ac5e4f60e01b8152336004820152602401610b33565b60208701803590610d5790610d52908a613274565b611d11565b14610d9557610d696020880188613274565b60405163309afaf360e21b815263ffffffff909116600482015260208801356024820152604401610b33565b610da487878787878787611d5c565b50505050505050565b600033610dbb858285611ec3565b610dc6858585611f37565b60019150505b9392505050565b610ddb6120e2565b63ffffffff82166000818152600080516020613ccf833981519152602081815260409283902085905582519384528301849052917f238399d427b947898edb290f5ff0f9109849b1c3ba196a42e35f00c50a54b98b91015b60405180910390a1505050565b600033610bd5818585610e5383836118a2565b610e5d919061346c565b611b85565b60408051808201909152600080825260208201526000610e9260408501356060860135610c8f6020880188613274565b915050600080610ea2868461197f565b9092509050610ebf610eb76020880188613274565b83838861213c565b9695505050505050565b604051632c3e6f0f60e11b81523060048201527f00000000000000000000000000000000000000000000000000000000000000006001600160a01b03169063587cde1e90602401602060405180830381865afa158015610f2d573d6000803e3d6000fd5b505050506040513d601f19601f82011682018060405250810190610f51919061347f565b6001600160a01b0316336001600160a01b031614610f6e57600080fd5b610f78828261221d565b5050565b63ffffffff821660009081527f8d2bda5d9f6ffb5796910376005392955773acee5548d0fcdb10e7c264ea00006020818152604080842061ffff8616855290915290912080546060929190610fd090613422565b80601f0160208091040260200160405190810160405280929190818152602001828054610ffc90613422565b80156110495780601f1061101e57610100808354040283529160200191611049565b820191906000526020600020905b81548152906001019060200180831161102c57829003601f168201915b505050505091505092915050565b61105f6120e2565b7f41db8a78b0206aba5c54bcbfc2bda0d84082a84eb88e680379a57b9e9f653c0080546001600160a01b0319166001600160a01b03831690811782556040519081527ff0be4f1e87349231d80c36b33f9e8639658eeaf474014dee15a3e6a4d4414197906020015b60405180910390a15050565b6110db6120e2565b6110e56000611b33565b565b606060698054610a1790613422565b6000338161110482866118a2565b9050838110156111645760405162461bcd60e51b815260206004820152602560248201527f45524332303a2064656372656173656420616c6c6f77616e63652062656c6f77604482015264207a65726f60d81b6064820152608401610b33565b6111718286868403611b85565b506001949350505050565b600033610bd5818585611f37565b6000610bdb826122de565b6000807fefb041d771d6daaa55702fff6eb740d63ba559a75d2d1d3e151c78ff2480b600610ce2565b6111c66120e2565b7f8d2bda5d9f6ffb5796910376005392955773acee5548d0fcdb10e7c264ea000060005b8281101561130d5761122c8484838181106112075761120761349c565b905060200281019061121991906134b2565b6112279060408101906134d2565b612313565b83838281811061123e5761123e61349c565b905060200281019061125091906134b2565b61125e9060408101906134d2565b8360008787868181106112735761127361349c565b905060200281019061128591906134b2565b611293906020810190613274565b63ffffffff1663ffffffff16815260200190815260200160002060008787868181106112c1576112c161349c565b90506020028101906112d391906134b2565b6112e4906040810190602001613518565b61ffff168152602081019190915260400160002091611304919083613583565b506001016111ea565b507fbe4864a8e820971c0247f5992e2da559595f7bf076a21cb5928d443d2a13b6748383604051610e3392919061366b565b63ffffffff841660009081527f8d2bda5d9f6ffb5796910376005392955773acee5548d0fcdb10e7c264ea00006020818152604080842061ffff8816855290915282208054606093919061139290613422565b80601f01602080910402602001604051908101604052809291908181526020018280546113be90613422565b801561140b5780601f106113e05761010080835404028352916020019161140b565b820191906000526020600020905b8154815290600101906020018083116113ee57829003601f168201915b50505050509050805160000361145c5784848080601f0160208091040260200160405190810160405280939291908181526020018383808284376000920191909152509295506114d5945050505050565b600084900361146e5791506114d59050565b600284106114b8576114808585612313565b8061148e856002818961374f565b6040516020016114a093929190613779565b604051602081830303815290604052925050506114d5565b8484604051639a6d49cd60e01b8152600401610b339291906137a1565b949350505050565b60005b818110156115f357368383838181106114fb576114fb61349c565b905060200281019061150d91906137b5565b905061154d61151f6020830183613274565b602083013563ffffffff919091166000908152600080516020613ccf83398151915260205260409020541490565b61155757506115eb565b3063d045a0dc60c08301358360a08101356115766101008301836134d2565b611587610100890160e08a016131a0565b6115956101208a018a6134d2565b6040518963ffffffff1660e01b81526004016115b797969594939291906137cc565b6000604051808303818588803b1580156115d057600080fd5b505af11580156115e4573d6000803e3d6000fd5b5050505050505b6001016114e0565b50336001600160a01b0316638e9e70996040518163ffffffff1660e01b8152600401600060405180830381865afa158015611632573d6000803e3d6000fd5b505050506040513d6000823e601f3d908101601f1916820160405261165a9190810190613852565b604051638351eea760e01b8152600401610b339190612ce1565b6000610bdb82612355565b611687612bc9565b60408051808201909152600080825260208201526000806116bd604088013560608901356116b860208b018b613274565b61238c565b915091506000806116ce898461197f565b90925090506116fa6116e360208b018b613274565b83836116f4368d90038d018d6138bf565b8b6123a9565b60408051808201909152858152602080820186905282519298509096503391907f85496b760a4b7f8d66384b9df21b381f5d1b1e79f229a47aaf4c232edc2fe59a90611748908d018d613274565b6040805163ffffffff909216825260208201899052810187905260600160405180910390a350505050935093915050565b6117816120e2565b60405163ca5eb5e160e01b81526001600160a01b0382811660048301527f0000000000000000000000000000000000000000000000000000000000000000169063ca5eb5e190602401600060405180830381600087803b1580156117e457600080fd5b505af11580156117f8573d6000803e3d6000fd5b5050505050565b33301461181f5760405163029a949d60e31b815260040160405180910390fd5b610da487878787878787610d95565b6118366120e2565b7fefb041d771d6daaa55702fff6eb740d63ba559a75d2d1d3e151c78ff2480b60080546001600160a01b0319166001600160a01b03831690811782556040519081527fd48d879cef83a1c0bdda516f27b13ddb1b3f8bbac1c9e1511bb2a659c2427760906020016110c7565b6001600160a01b03918216600090815260666020908152604080832093909416825291909152205490565b6000806118db858585611ca9565b915091505b935093915050565b6118f06120e2565b6001600160a01b0381166119555760405162461bcd60e51b815260206004820152602660248201527f4f776e61626c653a206e6577206f776e657220697320746865207a65726f206160448201526564647265737360d01b6064820152608401610b33565b61195e81611b33565b50565b6000602082018035906119789061086e9085613274565b1492915050565b60608060006119dc856020013561199586611ce5565b6119a260a08901896134d2565b8080601f0160208091040260200160405190810160405280939291908181526020018383808284376000920191909152506124b492505050565b90935090506000816119ef5760016119f2565b60025b9050611a12611a046020880188613274565b826108ae60808a018a6134d2565b7f41db8a78b0206aba5c54bcbfc2bda0d84082a84eb88e680379a57b9e9f653c008054919450906001600160a01b031615611abb57805460405163043a78eb60e01b81526001600160a01b039091169063043a78eb90611a789088908890600401612cbc565b602060405180830381865afa158015611a95573d6000803e3d6000fd5b505050506040513d601f19601f82011682018060405250810190611ab991906138f1565b505b5050509250929050565b600054610100900460ff16611aec5760405162461bcd60e51b8152600401610b339061390e565b611af6838361252e565b611aff8161255f565b505050565b600054610100900460ff16611b2b5760405162461bcd60e51b8152600401610b339061390e565b6110e561258f565b603380546001600160a01b038381166001600160a01b0319831681179093556040519116919082907f8be0079c531659141344cd1fd0a4f28419497f9722a3daafe3b4186f6b6457e090600090a35050565b6001600160a01b038316611be75760405162461bcd60e51b8152602060048201526024808201527f45524332303a20617070726f76652066726f6d20746865207a65726f206164646044820152637265737360e01b6064820152608401610b33565b6001600160a01b038216611c485760405162461bcd60e51b815260206004820152602260248201527f45524332303a20617070726f766520746f20746865207a65726f206164647265604482015261737360f01b6064820152608401610b33565b6001600160a01b0383811660008181526066602090815260408083209487168084529482529182902085905590518481527f8c5be1e5ebec7d5bd14f71427d1e84f3dd0314c0f7b2291e5b200ac8c7c3b925910160405180910390a3505050565b600080611cb585612355565b9150819050838110156118e0576040516371c4efed60e01b81526004810182905260248101859052604401610b33565b6000610bdb7f000000000000000000000000000000000000000000000000000000000000000083613959565b63ffffffff81166000908152600080516020613ccf8339815191526020819052604082205480610dcc5760405163f6ff4fb760e01b815263ffffffff85166004820152602401610b33565b6000611d6e611d6b87876125bf565b90565b90506000611d9a82611d88611d838a8a6125d7565b6122de565b611d9560208d018d613274565b6125fa565b90506028861115611e61576000611dd7611dba60608c0160408d016131d2565b611dc760208d018d613274565b84611dd28c8c61260e565b612659565b604051633e5ac80960e11b81529091506001600160a01b037f00000000000000000000000000000000000000000000000000000000000000001690637cb5901290611e2d9086908d90600090879060040161397b565b600060405180830381600087803b158015611e4757600080fd5b505af1158015611e5b573d6000803e3d6000fd5b50505050505b6001600160a01b038216887fefed6d3500546b29533b128a29e3a94d70788727f0507505ac12eaf2e578fd9c611e9a60208d018d613274565b6040805163ffffffff9092168252602082018690520160405180910390a3505050505050505050565b6000611ecf84846118a2565b90506000198114610bc15781811015611f2a5760405162461bcd60e51b815260206004820152601d60248201527f45524332303a20696e73756666696369656e7420616c6c6f77616e63650000006044820152606401610b33565b610bc18484848403611b85565b6001600160a01b038316611f9b5760405162461bcd60e51b815260206004820152602560248201527f45524332303a207472616e736665722066726f6d20746865207a65726f206164604482015264647265737360d81b6064820152608401610b33565b6001600160a01b038216611ffd5760405162461bcd60e51b815260206004820152602360248201527f45524332303a207472616e7366657220746f20746865207a65726f206164647260448201526265737360e81b6064820152608401610b33565b6001600160a01b038316600090815260656020526040902054818110156120755760405162461bcd60e51b815260206004820152602660248201527f45524332303a207472616e7366657220616d6f756e7420657863656564732062604482015265616c616e636560d01b6064820152608401610b33565b6001600160a01b0380851660008181526065602052604080822086860390559286168082529083902080548601905591517fddf252ad1be2c89b69c2b068fc378daa952ba7f163c4a11628f55a4df523b3ef906120d59086815260200190565b60405180910390a3610bc1565b6033546001600160a01b031633146110e55760405162461bcd60e51b815260206004820181905260248201527f4f776e61626c653a2063616c6c6572206973206e6f7420746865206f776e65726044820152606401610b33565b60408051808201909152600080825260208201527f00000000000000000000000000000000000000000000000000000000000000006001600160a01b031663ddc28c586040518060a001604052808863ffffffff16815260200161219f89611d11565b8152602001878152602001868152602001851515815250306040518363ffffffff1660e01b81526004016121d49291906139ac565b6040805180830381865afa1580156121f0573d6000803e3d6000fd5b505050506040513d601f19601f820116820180604052508101906122149190613a55565b95945050505050565b6001600160a01b0382166122735760405162461bcd60e51b815260206004820152601f60248201527f45524332303a206d696e7420746f20746865207a65726f2061646472657373006044820152606401610b33565b8060676000828254612285919061346c565b90915550506001600160a01b0382166000818152606560209081526040808320805486019055518481527fddf252ad1be2c89b69c2b068fc378daa952ba7f163c4a11628f55a4df523b3ef910160405180910390a35050565b6000610bdb7f00000000000000000000000000000000000000000000000000000000000000006001600160401b038416613a71565b6000612322600282848661374f565b61232b91613a88565b60f01c905060038114611aff578282604051639a6d49cd60e01b8152600401610b339291906137a1565b60007f00000000000000000000000000000000000000000000000000000000000000006123828184613959565b610bdb9190613a71565b60008061239a858585611ca9565b90925090506118e0338361268b565b6123b1612bc9565b60006123c084600001516127bf565b6020850151909150156123da576123da84602001516127e7565b7f00000000000000000000000000000000000000000000000000000000000000006001600160a01b0316632637a450826040518060a001604052808b63ffffffff16815260200161242a8c611d11565b81526020018a815260200189815260200160008960200151111515815250866040518463ffffffff1660e01b81526004016124669291906139ac565b60806040518083038185885af1158015612484573d6000803e3d6000fd5b50505050506040513d601f19601f820116820180604052508101906124a99190613ab8565b979650505050505050565b80516060901515806124fd5784846040516020016124e992919091825260c01b6001600160c01b031916602082015260280190565b604051602081830303815290604052612524565b848433856040516020016125149493929190613b1f565b6040516020818303038152906040525b9150935093915050565b600054610100900460ff166125555760405162461bcd60e51b8152600401610b339061390e565b610f7882826128c9565b600054610100900460ff166125865760405162461bcd60e51b8152600401610b339061390e565b61195e81612909565b600054610100900460ff166125b65760405162461bcd60e51b8152600401610b339061390e565b6110e533611b33565b60006125ce602082848661374f565b610dcc91613b62565b60006125e760286020848661374f565b6125f091613b80565b60c01c9392505050565b6000612606848461221d565b509092915050565b606061261d826028818661374f565b8080601f016020809104026020016040519081016040528093929190818152602001838380828437600092019190915250929695505050505050565b6060848484846040516020016126729493929190613bae565b6040516020818303038152906040529050949350505050565b6001600160a01b0382166126eb5760405162461bcd60e51b815260206004820152602160248201527f45524332303a206275726e2066726f6d20746865207a65726f206164647265736044820152607360f81b6064820152608401610b33565b6001600160a01b0382166000908152606560205260409020548181101561275f5760405162461bcd60e51b815260206004820152602260248201527f45524332303a206275726e20616d6f756e7420657863656564732062616c616e604482015261636560f01b6064820152608401610b33565b6001600160a01b03831660008181526065602090815260408083208686039055606780548790039055518581529192917fddf252ad1be2c89b69c2b068fc378daa952ba7f163c4a11628f55a4df523b3ef910160405180910390a3505050565b60008134146127e3576040516304fb820960e51b8152346004820152602401610b33565b5090565b60007f00000000000000000000000000000000000000000000000000000000000000006001600160a01b031663e4fe1d946040518163ffffffff1660e01b8152600401602060405180830381865afa158015612847573d6000803e3d6000fd5b505050506040513d601f19601f8201168201806040525081019061286b919061347f565b90506001600160a01b038116612894576040516329b99a9560e11b815260040160405180910390fd5b610f786001600160a01b038216337f000000000000000000000000000000000000000000000000000000000000000085612939565b600054610100900460ff166128f05760405162461bcd60e51b8152600401610b339061390e565b60686128fc8382613bfd565b506069611aff8282613bfd565b600054610100900460ff166129305760405162461bcd60e51b8152600401610b339061390e565b61195e81612993565b604080516001600160a01b0385811660248301528416604482015260648082018490528251808303909101815260849091019091526020810180516001600160e01b03166323b872dd60e01b179052610bc19085906129e1565b600054610100900460ff166129ba5760405162461bcd60e51b8152600401610b339061390e565b6001600160a01b03811661178157604051632d618d8160e21b815260040160405180910390fd5b6000612a36826040518060400160405280602081526020017f5361666545524332303a206c6f772d6c6576656c2063616c6c206661696c6564815250856001600160a01b0316612ab69092919063ffffffff16565b9050805160001480612a57575080806020019051810190612a5791906138f1565b611aff5760405162461bcd60e51b815260206004820152602a60248201527f5361666545524332303a204552433230206f7065726174696f6e20646964206e6044820152691bdd081cdd58d8d9595960b21b6064820152608401610b33565b60606114d5848460008585600080866001600160a01b03168587604051612add9190613cbc565b60006040518083038185875af1925050503d8060008114612b1a576040519150601f19603f3d011682016040523d82523d6000602084013e612b1f565b606091505b50915091506124a98783838760608315612b9a578251600003612b93576001600160a01b0385163b612b935760405162461bcd60e51b815260206004820152601d60248201527f416464726573733a2063616c6c20746f206e6f6e2d636f6e74726163740000006044820152606401610b33565b50816114d5565b6114d58383815115612baf5781518083602001fd5b8060405162461bcd60e51b8152600401610b339190612ce1565b60405180606001604052806000801916815260200160006001600160401b03168152602001612c0b604051806040016040528060008152602001600081525090565b905290565b600060e08284031215612c2257600080fd5b50919050565b60008060408385031215612c3b57600080fd5b82356001600160401b03811115612c5157600080fd5b612c5d85828601612c10565b95602094909401359450505050565b60005b83811015612c87578181015183820152602001612c6f565b50506000910152565b60008151808452612ca8816020860160208601612c6c565b601f01601f19169290920160200192915050565b604081526000612ccf6040830185612c90565b82810360208401526122148185612c90565b602081526000610dcc6020830184612c90565b634e487b7160e01b600052604160045260246000fd5b604080519081016001600160401b0381118282101715612d2c57612d2c612cf4565b60405290565b604051601f8201601f191681016001600160401b0381118282101715612d5a57612d5a612cf4565b604052919050565b60006001600160401b03821115612d7b57612d7b612cf4565b50601f01601f191660200190565b600082601f830112612d9a57600080fd5b8135612dad612da882612d62565b612d32565b818152846020838601011115612dc257600080fd5b816020850160208301376000918101602001919091529392505050565b6001600160a01b038116811461195e57600080fd5b600080600060608486031215612e0957600080fd5b83356001600160401b0380821115612e2057600080fd5b612e2c87838801612d89565b94506020860135915080821115612e4257600080fd5b50612e4f86828701612d89565b9250506040840135612e6081612ddf565b809150509250925092565b60008060408385031215612e7e57600080fd5b8235612e8981612ddf565b946020939093013593505050565b600060208284031215612ea957600080fd5b81356001600160401b03811115612ebf57600080fd5b6114d584828501612c10565b8351815260208085015190820152600060a08201604060a0604085015281865180845260c08601915060c08160051b8701019350602080890160005b83811015612f465788870360bf19018552815180518852830151838801879052612f3387890182612c90565b9750509382019390820190600101612f07565b505087516060880152505050602085015160808501525090506114d5565b600060208284031215612f7657600080fd5b5035919050565b600060608284031215612c2257600080fd5b60008083601f840112612fa157600080fd5b5081356001600160401b03811115612fb857600080fd5b602083019150836020828501011115610a0157600080fd5b600080600080600080600060e0888a031215612feb57600080fd5b612ff58989612f7d565b96506060880135955060808801356001600160401b038082111561301857600080fd5b6130248b838c01612f8f565b909750955060a08a0135915061303982612ddf565b90935060c0890135908082111561304f57600080fd5b5061305c8a828b01612f8f565b989b979a50959850939692959293505050565b60008060006060848603121561308457600080fd5b833561308f81612ddf565b9250602084013561309f81612ddf565b929592945050506040919091013590565b803563ffffffff811681146130c457600080fd5b919050565b600080604083850312156130dc57600080fd5b612e89836130b0565b801515811461195e57600080fd5b6000806040838503121561310657600080fd5b82356001600160401b0381111561311c57600080fd5b61312885828601612c10565b9250506020830135613139816130e5565b809150509250929050565b815181526020808301519082015260408101610bdb565b803561ffff811681146130c457600080fd5b6000806040838503121561318057600080fd5b613189836130b0565b91506131976020840161315b565b90509250929050565b6000602082840312156131b257600080fd5b8135610dcc81612ddf565b6001600160401b038116811461195e57600080fd5b6000602082840312156131e457600080fd5b8135610dcc816131bd565b60008083601f84011261320157600080fd5b5081356001600160401b0381111561321857600080fd5b6020830191508360208260051b8501011115610a0157600080fd5b6000806020838503121561324657600080fd5b82356001600160401b0381111561325c57600080fd5b613268858286016131ef565b90969095509350505050565b60006020828403121561328657600080fd5b610dcc826130b0565b600080600080606085870312156132a557600080fd5b6132ae856130b0565b93506132bc6020860161315b565b925060408501356001600160401b038111156132d757600080fd5b6132e387828801612f8f565b95989497509550505050565b6000806000838503608081121561330557600080fd5b84356001600160401b0381111561331b57600080fd5b61332787828801612c10565b9450506040601f198201121561333c57600080fd5b506020840191506060840135612e6081612ddf565b600060c082019050835182526001600160401b036020850151166020830152604084015161338c604084018280518252602090810151910152565b5082516080830152602083015160a0830152610dcc565b600080604083850312156133b657600080fd5b82356133c181612ddf565b9150602083013561313981612ddf565b6000806000606084860312156133e657600080fd5b83359250602084013591506133fd604085016130b0565b90509250925092565b60006060828403121561341857600080fd5b610dcc8383612f7d565b600181811c9082168061343657607f821691505b602082108103612c2257634e487b7160e01b600052602260045260246000fd5b634e487b7160e01b600052601160045260246000fd5b80820180821115610bdb57610bdb613456565b60006020828403121561349157600080fd5b8151610dcc81612ddf565b634e487b7160e01b600052603260045260246000fd5b60008235605e198336030181126134c857600080fd5b9190910192915050565b6000808335601e198436030181126134e957600080fd5b8301803591506001600160401b0382111561350357600080fd5b602001915036819003821315610a0157600080fd5b60006020828403121561352a57600080fd5b610dcc8261315b565b601f821115611aff576000816000526020600020601f850160051c8101602086101561355c5750805b601f850160051c820191505b8181101561357b57828155600101613568565b505050505050565b6001600160401b0383111561359a5761359a612cf4565b6135ae836135a88354613422565b83613533565b6000601f8411600181146135e257600085156135ca5750838201355b600019600387901b1c1916600186901b1783556117f8565b600083815260209020601f19861690835b8281101561361357868501358255602094850194600190920191016135f3565b50868210156136305760001960f88860031b161c19848701351681555b505060018560011b0183555050505050565b81835281816020850137506000828201602090810191909152601f909101601f19169091010190565b60208082528181018390526000906040808401600586901b8501820187855b8881101561374157878303603f190184528135368b9003605e190181126136b057600080fd5b8a01606063ffffffff6136c2836130b0565b16855261ffff6136d389840161315b565b168886015286820135601e198336030181126136ee57600080fd5b9091018781019190356001600160401b0381111561370b57600080fd5b80360383131561371a57600080fd5b818887015261372c8287018285613642565b9689019695505050918601915060010161368a565b509098975050505050505050565b6000808585111561375f57600080fd5b8386111561376c57600080fd5b5050820193919092039150565b6000845161378b818460208901612c6c565b8201838582376000930192835250909392505050565b6020815260006114d5602083018486613642565b6000823561013e198336030181126134c857600080fd5b63ffffffff6137da896130b0565b16815260208801356020820152600060408901356137f7816131bd565b6001600160401b03811660408401525087606083015260e0608083015261382260e083018789613642565b6001600160a01b03861660a084015282810360c0840152613844818587613642565b9a9950505050505050505050565b60006020828403121561386457600080fd5b81516001600160401b0381111561387a57600080fd5b8201601f8101841361388b57600080fd5b8051613899612da882612d62565b8181528560208385010111156138ae57600080fd5b612214826020830160208601612c6c565b6000604082840312156138d157600080fd5b6138d9612d0a565b82358152602083013560208201528091505092915050565b60006020828403121561390357600080fd5b8151610dcc816130e5565b6020808252602b908201527f496e697469616c697a61626c653a20636f6e7472616374206973206e6f74206960408201526a6e697469616c697a696e6760a81b606082015260800190565b60008261397657634e487b7160e01b600052601260045260246000fd5b500490565b60018060a01b038516815283602082015261ffff83166040820152608060608201526000610ebf6080830184612c90565b6040815263ffffffff8351166040820152602083015160608201526000604084015160a060808401526139e260e0840182612c90565b90506060850151603f198483030160a08501526139ff8282612c90565b60809690960151151560c08501525050506001600160a01b039190911660209091015290565b600060408284031215613a3757600080fd5b613a3f612d0a565b9050815181526020820151602082015292915050565b600060408284031215613a6757600080fd5b610dcc8383613a25565b8082028115828204841417610bdb57610bdb613456565b6001600160f01b03198135818116916002851015613ab05780818660020360031b1b83161692505b505092915050565b600060808284031215613aca57600080fd5b604051606081018181106001600160401b0382111715613aec57613aec612cf4565b604052825181526020830151613b01816131bd565b6020820152613b138460408501613a25565b60408201529392505050565b8481526001600160401b0360c01b8460c01b16602082015282602882015260008251613b52816048850160208701612c6c565b9190910160480195945050505050565b80356020831015610bdb57600019602084900360031b1b1692915050565b6001600160c01b03198135818116916008851015613ab05760089490940360031b84901b1690921692915050565b6001600160401b0360c01b8560c01b16815263ffffffff60e01b8460e01b16600882015282600c82015260008251613bed81602c850160208701612c6c565b91909101602c0195945050505050565b81516001600160401b03811115613c1657613c16612cf4565b613c2a81613c248454613422565b84613533565b602080601f831160018114613c5f5760008415613c475750858301515b600019600386901b1c1916600185901b17855561357b565b600085815260208120601f198616915b82811015613c8e57888601518255948401946001909101908401613c6f565b5085821015613cac5787850151600019600388901b60f8161c191681555b5050505050600190811b01905550565b600082516134c8818460208701612c6c56fe72ab1bc1039b79dc4724ffca13de82c96834302d3c7e0d4252232d4b2dd8f900a2646970667358221220a7dd1535e0ce6a97862bcab07f12d368f392bb0e47e6477bc9926da016b8d63c64736f6c634300081600330000000000000000000000001a44076050125825900e736c501f859c50fe728c",
        "nonce": "0x22",
        "chainId": "0xfc"
      },
      "additionalContracts": [],
      "isFixedGasLimit": false
    },
    {
      "hash": null,
      "transactionType": "CREATE",
      "contractName": "TransparentUpgradeableProxy",
      "contractAddress": "0xb85a8fda7f5e52e32fa5582847cfffee9456a5dc",
      "function": null,
      "arguments": [
        "0x8f1B9c1fd67136D525E14D96Efb3887a33f16250",
        "0x9C9dD956b413cdBD81690c9394a6B4D22afe6745",
        "0x"
      ],
      "transaction": {
        "from": "0x9c9dd956b413cdbd81690c9394a6b4d22afe6745",
        "gas": "0xb0cd9",
        "value": "0x0",
        "input": "0x608060405260405162000df638038062000df6833981016040819052620000269162000473565b828162000036828260006200009a565b5062000066905060017fb53127684a568b3173ae13b9f8a6016e243e63b6e8ee1178d6a717850b5d610462000553565b60008051602062000daf8339815191521462000086576200008662000575565b6200009182620000cc565b505050620005de565b620000a5836200013e565b600082511180620000b35750805b15620000c757620000c5838362000180565b505b505050565b7f7e644d79422f17c01e4894b5f4f588d331ebfa28653d42ae832dc59e38c9798f6200010e60008051602062000daf833981519152546001600160a01b031690565b604080516001600160a01b03928316815291841660208301520160405180910390a16200013b81620001b1565b50565b62000149816200024f565b6040516001600160a01b038216907fbc7cd75a20ee27fd9adebab32041f755214dbc6bffa90cc0225b39da2e5c2d3b90600090a250565b6060620001a8838360405180606001604052806027815260200162000dcf60279139620002e6565b90505b92915050565b6001600160a01b0381166200021c5760405162461bcd60e51b815260206004820152602660248201527f455243313936373a206e65772061646d696e20697320746865207a65726f206160448201526564647265737360d01b60648201526084015b60405180910390fd5b8060008051602062000daf8339815191525b80546001600160a01b0319166001600160a01b039290921691909117905550565b6001600160a01b0381163b620002be5760405162461bcd60e51b815260206004820152602d60248201527f455243313936373a206e657720696d706c656d656e746174696f6e206973206e60448201526c1bdd08184818dbdb9d1c9858dd609a1b606482015260840162000213565b807f360894a13ba1a3210667c828492db98dca3e2076cc3735a920a3ca505d382bbc6200022e565b6060600080856001600160a01b0316856040516200030591906200058b565b600060405180830381855af49150503d806000811462000342576040519150601f19603f3d011682016040523d82523d6000602084013e62000347565b606091505b5090925090506200035b8683838762000365565b9695505050505050565b60608315620003d9578251600003620003d1576001600160a01b0385163b620003d15760405162461bcd60e51b815260206004820152601d60248201527f416464726573733a2063616c6c20746f206e6f6e2d636f6e7472616374000000604482015260640162000213565b5081620003e5565b620003e58383620003ed565b949350505050565b815115620003fe5781518083602001fd5b8060405162461bcd60e51b8152600401620002139190620005a9565b80516001600160a01b03811681146200043257600080fd5b919050565b634e487b7160e01b600052604160045260246000fd5b60005b838110156200046a57818101518382015260200162000450565b50506000910152565b6000806000606084860312156200048957600080fd5b62000494846200041a565b9250620004a4602085016200041a565b60408501519092506001600160401b0380821115620004c257600080fd5b818601915086601f830112620004d757600080fd5b815181811115620004ec57620004ec62000437565b604051601f8201601f19908116603f0116810190838211818310171562000517576200051762000437565b816040528281528960208487010111156200053157600080fd5b620005448360208301602088016200044d565b80955050505050509250925092565b81810381811115620001ab57634e487b7160e01b600052601160045260246000fd5b634e487b7160e01b600052600160045260246000fd5b600082516200059f8184602087016200044d565b9190910192915050565b6020815260008251806020840152620005ca8160408501602087016200044d565b601f01601f19169190910160400192915050565b6107c180620005ee6000396000f3fe60806040526004361061004e5760003560e01c80633659cfe6146100655780634f1ef286146100855780635c60da1b146100985780638f283970146100c9578063f851a440146100e95761005d565b3661005d5761005b6100fe565b005b61005b6100fe565b34801561007157600080fd5b5061005b610080366004610653565b610118565b61005b61009336600461066e565b610155565b3480156100a457600080fd5b506100ad6101bc565b6040516001600160a01b03909116815260200160405180910390f35b3480156100d557600080fd5b5061005b6100e4366004610653565b6101ed565b3480156100f557600080fd5b506100ad61020d565b61010661022e565b61011661011161025e565b610268565b565b61012061028c565b6001600160a01b0316330361014d5761014a816040518060200160405280600081525060006102bf565b50565b61014a6100fe565b61015d61028c565b6001600160a01b031633036101b4576101af8383838080601f016020809104026020016040519081016040528093929190818152602001838380828437600092019190915250600192506102bf915050565b505050565b6101af6100fe565b60006101c661028c565b6001600160a01b031633036101e2576101dd61025e565b905090565b6101ea6100fe565b90565b6101f561028c565b6001600160a01b0316330361014d5761014a816102ea565b600061021761028c565b6001600160a01b031633036101e2576101dd61028c565b61023661028c565b6001600160a01b031633036101165760405163786a591f60e11b815260040160405180910390fd5b60006101dd61033e565b3660008037600080366000845af43d6000803e808015610287573d6000f35b3d6000fd5b60007fb53127684a568b3173ae13b9f8a6016e243e63b6e8ee1178d6a717850b5d61035b546001600160a01b0316919050565b6102c883610366565b6000825111806102d55750805b156101af576102e483836103a6565b50505050565b7f7e644d79422f17c01e4894b5f4f588d331ebfa28653d42ae832dc59e38c9798f61031361028c565b604080516001600160a01b03928316815291841660208301520160405180910390a161014a816103d2565b60007f360894a13ba1a3210667c828492db98dca3e2076cc3735a920a3ca505d382bbc6102b0565b61036f81610480565b6040516001600160a01b038216907fbc7cd75a20ee27fd9adebab32041f755214dbc6bffa90cc0225b39da2e5c2d3b90600090a250565b60606103cb838360405180606001604052806027815260200161076560279139610514565b9392505050565b6001600160a01b03811661043c5760405162461bcd60e51b815260206004820152602660248201527f455243313936373a206e65772061646d696e20697320746865207a65726f206160448201526564647265737360d01b60648201526084015b60405180910390fd5b807fb53127684a568b3173ae13b9f8a6016e243e63b6e8ee1178d6a717850b5d61035b80546001600160a01b0319166001600160a01b039290921691909117905550565b6001600160a01b0381163b6104ed5760405162461bcd60e51b815260206004820152602d60248201527f455243313936373a206e657720696d706c656d656e746174696f6e206973206e60448201526c1bdd08184818dbdb9d1c9858dd609a1b6064820152608401610433565b807f360894a13ba1a3210667c828492db98dca3e2076cc3735a920a3ca505d382bbc61045f565b6060600080856001600160a01b0316856040516105319190610715565b600060405180830381855af49150503d806000811461056c576040519150601f19603f3d011682016040523d82523d6000602084013e610571565b606091505b50915091506105828683838761058c565b9695505050505050565b606083156105fb5782516000036105f4576001600160a01b0385163b6105f45760405162461bcd60e51b815260206004820152601d60248201527f416464726573733a2063616c6c20746f206e6f6e2d636f6e74726163740000006044820152606401610433565b5081610605565b610605838361060d565b949350505050565b81511561061d5781518083602001fd5b8060405162461bcd60e51b81526004016104339190610731565b80356001600160a01b038116811461064e57600080fd5b919050565b60006020828403121561066557600080fd5b6103cb82610637565b60008060006040848603121561068357600080fd5b61068c84610637565b9250602084013567ffffffffffffffff808211156106a957600080fd5b818601915086601f8301126106bd57600080fd5b8135818111156106cc57600080fd5b8760208285010111156106de57600080fd5b6020830194508093505050509250925092565b60005b8381101561070c5781810151838201526020016106f4565b50506000910152565b600082516107278184602087016106f1565b9190910192915050565b60208152600082518060208401526107508160408501602087016106f1565b601f01601f1916919091016040019291505056fe416464726573733a206c6f772d6c6576656c2064656c65676174652063616c6c206661696c6564a2646970667358221220c9758782effd34c50684c9008a4ffd4b3fbcecbd39c17a55f1248566c174078b64736f6c63430008160033b53127684a568b3173ae13b9f8a6016e243e63b6e8ee1178d6a717850b5d6103416464726573733a206c6f772d6c6576656c2064656c65676174652063616c6c206661696c65640000000000000000000000008f1b9c1fd67136d525e14d96efb3887a33f162500000000000000000000000009c9dd956b413cdbd81690c9394a6b4d22afe674500000000000000000000000000000000000000000000000000000000000000600000000000000000000000000000000000000000000000000000000000000000",
        "nonce": "0x23",
        "chainId": "0xfc"
      },
      "additionalContracts": [],
      "isFixedGasLimit": false
    },
    {
      "hash": null,
      "transactionType": "CALL",
      "contractName": "TransparentUpgradeableProxy",
      "contractAddress": "0xb85a8fda7f5e52e32fa5582847cfffee9456a5dc",
      "function": "upgradeToAndCall(address,bytes)",
      "arguments": [
        "0x8EbB34b1880B2EA5e458082590B3A2c9Ea7C41A2",
        "0x077f224a000000000000000000000000000000000000000000000000000000000000006000000000000000000000000000000000000000000000000000000000000000a00000000000000000000000000990be6db8c785fbbf9ded8baec612a10cae814b000000000000000000000000000000000000000000000000000000000000000a4d6f636b2073467261780000000000000000000000000000000000000000000000000000000000000000000000000000000000000000000000000000000000066d73467261780000000000000000000000000000000000000000000000000000"
      ],
      "transaction": {
        "from": "0x9c9dd956b413cdbd81690c9394a6b4d22afe6745",
        "to": "0xb85a8fda7f5e52e32fa5582847cfffee9456a5dc",
        "gas": "0x3623d",
        "value": "0x0",
        "input": "0x4f1ef2860000000000000000000000008ebb34b1880b2ea5e458082590b3a2c9ea7c41a2000000000000000000000000000000000000000000000000000000000000004000000000000000000000000000000000000000000000000000000000000000e4077f224a000000000000000000000000000000000000000000000000000000000000006000000000000000000000000000000000000000000000000000000000000000a00000000000000000000000000990be6db8c785fbbf9ded8baec612a10cae814b000000000000000000000000000000000000000000000000000000000000000a4d6f636b2073467261780000000000000000000000000000000000000000000000000000000000000000000000000000000000000000000000000000000000066d7346726178000000000000000000000000000000000000000000000000000000000000000000000000000000000000000000000000000000000000",
        "nonce": "0x24",
        "chainId": "0xfc"
      },
      "additionalContracts": [],
      "isFixedGasLimit": false
    },
    {
      "hash": null,
      "transactionType": "CALL",
      "contractName": "TransparentUpgradeableProxy",
      "contractAddress": "0xb85a8fda7f5e52e32fa5582847cfffee9456a5dc",
      "function": "changeAdmin(address)",
      "arguments": [
        "0x223a681fc5c5522c85C96157c0efA18cd6c5405c"
      ],
      "transaction": {
        "from": "0x9c9dd956b413cdbd81690c9394a6b4d22afe6745",
        "to": "0xb85a8fda7f5e52e32fa5582847cfffee9456a5dc",
        "gas": "0xa3ad",
        "value": "0x0",
        "input": "0x8f283970000000000000000000000000223a681fc5c5522c85c96157c0efa18cd6c5405c",
        "nonce": "0x25",
        "chainId": "0xfc"
      },
      "additionalContracts": [],
      "isFixedGasLimit": false
    },
    {
      "hash": null,
      "transactionType": "CALL",
      "contractName": "TransparentUpgradeableProxy",
      "contractAddress": "0xf6f45ccb5e85d1400067ee66f9e168f83e86124e",
      "function": null,
      "arguments": null,
      "transaction": {
        "from": "0x0990be6db8c785fbbf9ded8baec612a10cae814b",
        "to": "0xf6f45ccb5e85d1400067ee66f9e168f83e86124e",
        "gas": "0x95367",
        "value": "0x0",
        "input": "0xb98bd0700000000000000000000000000000000000000000000000000000000000000020000000000000000000000000000000000000000000000000000000000000000e00000000000000000000000000000000000000000000000000000000000001c00000000000000000000000000000000000000000000000000000000000000260000000000000000000000000000000000000000000000000000000000000030000000000000000000000000000000000000000000000000000000000000003a0000000000000000000000000000000000000000000000000000000000000044000000000000000000000000000000000000000000000000000000000000004e00000000000000000000000000000000000000000000000000000000000000580000000000000000000000000000000000000000000000000000000000000062000000000000000000000000000000000000000000000000000000000000006c00000000000000000000000000000000000000000000000000000000000000760000000000000000000000000000000000000000000000000000000000000080000000000000000000000000000000000000000000000000000000000000008a0000000000000000000000000000000000000000000000000000000000000094000000000000000000000000000000000000000000000000000000000000009e0000000000000000000000000000000000000000000000000000000000000759500000000000000000000000000000000000000000000000000000000000000010000000000000000000000000000000000000000000000000000000000000060000000000000000000000000000000000000000000000000000000000000001600030100110100000000000000000000000000030d400000000000000000000000000000000000000000000000000000000000000000000000000000000075950000000000000000000000000000000000000000000000000000000000000002000000000000000000000000000000000000000000000000000000000000006000000000000000000000000000000000000000000000000000000000000000160003010011010000000000000000000000000003d09000000000000000000000000000000000000000000000000000000000000000000000000000000000762300000000000000000000000000000000000000000000000000000000000000010000000000000000000000000000000000000000000000000000000000000060000000000000000000000000000000000000000000000000000000000000001600030100110100000000000000000000000000030d400000000000000000000000000000000000000000000000000000000000000000000000000000000076230000000000000000000000000000000000000000000000000000000000000002000000000000000000000000000000000000000000000000000000000000006000000000000000000000000000000000000000000000000000000000000000160003010011010000000000000000000000000003d0900000000000000000000000000000000000000000000000000000000000000000000000000000000075c700000000000000000000000000000000000000000000000000000000000000010000000000000000000000000000000000000000000000000000000000000060000000000000000000000000000000000000000000000000000000000000001600030100110100000000000000000000000000030d400000000000000000000000000000000000000000000000000000000000000000000000000000000075c70000000000000000000000000000000000000000000000000000000000000002000000000000000000000000000000000000000000000000000000000000006000000000000000000000000000000000000000000000000000000000000000160003010011010000000000000000000000000003d0900000000000000000000000000000000000000000000000000000000000000000000000000000000075e800000000000000000000000000000000000000000000000000000000000000010000000000000000000000000000000000000000000000000000000000000060000000000000000000000000000000000000000000000000000000000000001600030100110100000000000000000000000000030d400000000000000000000000000000000000000000000000000000000000000000000000000000000075e80000000000000000000000000000000000000000000000000000000000000002000000000000000000000000000000000000000000000000000000000000006000000000000000000000000000000000000000000000000000000000000000160003010011010000000000000000000000000003d09000000000000000000000000000000000000000000000000000000000000000000000000000000000763400000000000000000000000000000000000000000000000000000000000000010000000000000000000000000000000000000000000000000000000000000060000000000000000000000000000000000000000000000000000000000000001600030100110100000000000000000000000000030d400000000000000000000000000000000000000000000000000000000000000000000000000000000076340000000000000000000000000000000000000000000000000000000000000002000000000000000000000000000000000000000000000000000000000000006000000000000000000000000000000000000000000000000000000000000000160003010011010000000000000000000000000003d09000000000000000000000000000000000000000000000000000000000000000000000000000000000764800000000000000000000000000000000000000000000000000000000000000010000000000000000000000000000000000000000000000000000000000000060000000000000000000000000000000000000000000000000000000000000001600030100110100000000000000000000000000030d400000000000000000000000000000000000000000000000000000000000000000000000000000000076480000000000000000000000000000000000000000000000000000000000000002000000000000000000000000000000000000000000000000000000000000006000000000000000000000000000000000000000000000000000000000000000160003010011010000000000000000000000000003d09000000000000000000000000000000000000000000000000000000000000000000000000000000000764200000000000000000000000000000000000000000000000000000000000000010000000000000000000000000000000000000000000000000000000000000060000000000000000000000000000000000000000000000000000000000000001600030100110100000000000000000000000000030d400000000000000000000000000000000000000000000000000000000000000000000000000000000076420000000000000000000000000000000000000000000000000000000000000002000000000000000000000000000000000000000000000000000000000000006000000000000000000000000000000000000000000000000000000000000000160003010011010000000000000000000000000003d09000000000000000000000",
        "nonce": "0x4f",
        "chainId": "0xfc"
      },
      "additionalContracts": [],
      "isFixedGasLimit": false
    },
    {
      "hash": null,
      "transactionType": "CALL",
      "contractName": "TransparentUpgradeableProxy",
      "contractAddress": "0xb85a8fda7f5e52e32fa5582847cfffee9456a5dc",
      "function": null,
      "arguments": null,
      "transaction": {
        "from": "0x0990be6db8c785fbbf9ded8baec612a10cae814b",
        "to": "0xb85a8fda7f5e52e32fa5582847cfffee9456a5dc",
        "gas": "0x95367",
        "value": "0x0",
        "input": "0xb98bd0700000000000000000000000000000000000000000000000000000000000000020000000000000000000000000000000000000000000000000000000000000000e00000000000000000000000000000000000000000000000000000000000001c00000000000000000000000000000000000000000000000000000000000000260000000000000000000000000000000000000000000000000000000000000030000000000000000000000000000000000000000000000000000000000000003a0000000000000000000000000000000000000000000000000000000000000044000000000000000000000000000000000000000000000000000000000000004e00000000000000000000000000000000000000000000000000000000000000580000000000000000000000000000000000000000000000000000000000000062000000000000000000000000000000000000000000000000000000000000006c00000000000000000000000000000000000000000000000000000000000000760000000000000000000000000000000000000000000000000000000000000080000000000000000000000000000000000000000000000000000000000000008a0000000000000000000000000000000000000000000000000000000000000094000000000000000000000000000000000000000000000000000000000000009e0000000000000000000000000000000000000000000000000000000000000759500000000000000000000000000000000000000000000000000000000000000010000000000000000000000000000000000000000000000000000000000000060000000000000000000000000000000000000000000000000000000000000001600030100110100000000000000000000000000030d400000000000000000000000000000000000000000000000000000000000000000000000000000000075950000000000000000000000000000000000000000000000000000000000000002000000000000000000000000000000000000000000000000000000000000006000000000000000000000000000000000000000000000000000000000000000160003010011010000000000000000000000000003d09000000000000000000000000000000000000000000000000000000000000000000000000000000000762300000000000000000000000000000000000000000000000000000000000000010000000000000000000000000000000000000000000000000000000000000060000000000000000000000000000000000000000000000000000000000000001600030100110100000000000000000000000000030d400000000000000000000000000000000000000000000000000000000000000000000000000000000076230000000000000000000000000000000000000000000000000000000000000002000000000000000000000000000000000000000000000000000000000000006000000000000000000000000000000000000000000000000000000000000000160003010011010000000000000000000000000003d0900000000000000000000000000000000000000000000000000000000000000000000000000000000075c700000000000000000000000000000000000000000000000000000000000000010000000000000000000000000000000000000000000000000000000000000060000000000000000000000000000000000000000000000000000000000000001600030100110100000000000000000000000000030d400000000000000000000000000000000000000000000000000000000000000000000000000000000075c70000000000000000000000000000000000000000000000000000000000000002000000000000000000000000000000000000000000000000000000000000006000000000000000000000000000000000000000000000000000000000000000160003010011010000000000000000000000000003d0900000000000000000000000000000000000000000000000000000000000000000000000000000000075e800000000000000000000000000000000000000000000000000000000000000010000000000000000000000000000000000000000000000000000000000000060000000000000000000000000000000000000000000000000000000000000001600030100110100000000000000000000000000030d400000000000000000000000000000000000000000000000000000000000000000000000000000000075e80000000000000000000000000000000000000000000000000000000000000002000000000000000000000000000000000000000000000000000000000000006000000000000000000000000000000000000000000000000000000000000000160003010011010000000000000000000000000003d09000000000000000000000000000000000000000000000000000000000000000000000000000000000763400000000000000000000000000000000000000000000000000000000000000010000000000000000000000000000000000000000000000000000000000000060000000000000000000000000000000000000000000000000000000000000001600030100110100000000000000000000000000030d400000000000000000000000000000000000000000000000000000000000000000000000000000000076340000000000000000000000000000000000000000000000000000000000000002000000000000000000000000000000000000000000000000000000000000006000000000000000000000000000000000000000000000000000000000000000160003010011010000000000000000000000000003d09000000000000000000000000000000000000000000000000000000000000000000000000000000000764800000000000000000000000000000000000000000000000000000000000000010000000000000000000000000000000000000000000000000000000000000060000000000000000000000000000000000000000000000000000000000000001600030100110100000000000000000000000000030d400000000000000000000000000000000000000000000000000000000000000000000000000000000076480000000000000000000000000000000000000000000000000000000000000002000000000000000000000000000000000000000000000000000000000000006000000000000000000000000000000000000000000000000000000000000000160003010011010000000000000000000000000003d09000000000000000000000000000000000000000000000000000000000000000000000000000000000764200000000000000000000000000000000000000000000000000000000000000010000000000000000000000000000000000000000000000000000000000000060000000000000000000000000000000000000000000000000000000000000001600030100110100000000000000000000000000030d400000000000000000000000000000000000000000000000000000000000000000000000000000000076420000000000000000000000000000000000000000000000000000000000000002000000000000000000000000000000000000000000000000000000000000006000000000000000000000000000000000000000000000000000000000000000160003010011010000000000000000000000000003d09000000000000000000000",
        "nonce": "0x50",
        "chainId": "0xfc"
      },
      "additionalContracts": [],
      "isFixedGasLimit": false
    },
    {
      "hash": null,
      "transactionType": "CALL",
      "contractName": null,
      "contractAddress": "0x1a44076050125825900e736c501f859c50fe728c",
      "function": "setConfig(address,address,(uint32,uint32,bytes)[])",
      "arguments": [
        "0xF6f45CCB5E85D1400067ee66F9e168f83e86124E",
        "0x8bC1e36F015b9902B54b1387A4d733cebc2f5A4e",
        "[(30101, 2, 0x0000000000000000000000000000000000000000000000000000000000000020000000000000000000000000000000000000000000000000000000000000000000000000000000000000000000000000000000000000000000000000000000020000000000000000000000000000000000000000000000000000000000000000000000000000000000000000000000000000000000000000000000000000000000000000000000000000000000000000000000000000000000000000000000c000000000000000000000000000000000000000000000000000000000000001200000000000000000000000000000000000000000000000000000000000000002000000000000000000000000cce466a522984415bc91338c232d98869193d46e000000000000000000000000dd7b5e1db4aafd5c8ec3b764efb8ed265aa5445b0000000000000000000000000000000000000000000000000000000000000000), (30243, 2, 0x0000000000000000000000000000000000000000000000000000000000000020000000000000000000000000000000000000000000000000000000000000000000000000000000000000000000000000000000000000000000000000000000020000000000000000000000000000000000000000000000000000000000000000000000000000000000000000000000000000000000000000000000000000000000000000000000000000000000000000000000000000000000000000000000c000000000000000000000000000000000000000000000000000000000000001200000000000000000000000000000000000000000000000000000000000000002000000000000000000000000cce466a522984415bc91338c232d98869193d46e000000000000000000000000dd7b5e1db4aafd5c8ec3b764efb8ed265aa5445b0000000000000000000000000000000000000000000000000000000000000000), (30151, 2, 0x0000000000000000000000000000000000000000000000000000000000000020000000000000000000000000000000000000000000000000000000000000000000000000000000000000000000000000000000000000000000000000000000020000000000000000000000000000000000000000000000000000000000000000000000000000000000000000000000000000000000000000000000000000000000000000000000000000000000000000000000000000000000000000000000c000000000000000000000000000000000000000000000000000000000000001200000000000000000000000000000000000000000000000000000000000000002000000000000000000000000cce466a522984415bc91338c232d98869193d46e000000000000000000000000dd7b5e1db4aafd5c8ec3b764efb8ed265aa5445b0000000000000000000000000000000000000000000000000000000000000000), (30184, 2, 0x0000000000000000000000000000000000000000000000000000000000000020000000000000000000000000000000000000000000000000000000000000000000000000000000000000000000000000000000000000000000000000000000020000000000000000000000000000000000000000000000000000000000000000000000000000000000000000000000000000000000000000000000000000000000000000000000000000000000000000000000000000000000000000000000c000000000000000000000000000000000000000000000000000000000000001200000000000000000000000000000000000000000000000000000000000000002000000000000000000000000cce466a522984415bc91338c232d98869193d46e000000000000000000000000dd7b5e1db4aafd5c8ec3b764efb8ed265aa5445b0000000000000000000000000000000000000000000000000000000000000000), (30260, 2, 0x0000000000000000000000000000000000000000000000000000000000000020000000000000000000000000000000000000000000000000000000000000000000000000000000000000000000000000000000000000000000000000000000020000000000000000000000000000000000000000000000000000000000000000000000000000000000000000000000000000000000000000000000000000000000000000000000000000000000000000000000000000000000000000000000c000000000000000000000000000000000000000000000000000000000000001200000000000000000000000000000000000000000000000000000000000000002000000000000000000000000cce466a522984415bc91338c232d98869193d46e000000000000000000000000dd7b5e1db4aafd5c8ec3b764efb8ed265aa5445b0000000000000000000000000000000000000000000000000000000000000000), (30280, 2, 0x0000000000000000000000000000000000000000000000000000000000000020000000000000000000000000000000000000000000000000000000000000000000000000000000000000000000000000000000000000000000000000000000020000000000000000000000000000000000000000000000000000000000000000000000000000000000000000000000000000000000000000000000000000000000000000000000000000000000000000000000000000000000000000000000c000000000000000000000000000000000000000000000000000000000000001200000000000000000000000000000000000000000000000000000000000000002000000000000000000000000cce466a522984415bc91338c232d98869193d46e000000000000000000000000dd7b5e1db4aafd5c8ec3b764efb8ed265aa5445b0000000000000000000000000000000000000000000000000000000000000000), (30274, 2, 0x0000000000000000000000000000000000000000000000000000000000000020000000000000000000000000000000000000000000000000000000000000000000000000000000000000000000000000000000000000000000000000000000020000000000000000000000000000000000000000000000000000000000000000000000000000000000000000000000000000000000000000000000000000000000000000000000000000000000000000000000000000000000000000000000c000000000000000000000000000000000000000000000000000000000000001200000000000000000000000000000000000000000000000000000000000000002000000000000000000000000cce466a522984415bc91338c232d98869193d46e000000000000000000000000dd7b5e1db4aafd5c8ec3b764efb8ed265aa5445b0000000000000000000000000000000000000000000000000000000000000000)]"
      ],
      "transaction": {
        "from": "0x0990be6db8c785fbbf9ded8baec612a10cae814b",
        "to": "0x1a44076050125825900e736c501f859c50fe728c",
        "gas": "0x118db8",
        "value": "0x0",
        "input": "0x6dbd9f90000000000000000000000000f6f45ccb5e85d1400067ee66f9e168f83e86124e0000000000000000000000008bc1e36f015b9902b54b1387a4d733cebc2f5a4e0000000000000000000000000000000000000000000000000000000000000060000000000000000000000000000000000000000000000000000000000000000700000000000000000000000000000000000000000000000000000000000000e000000000000000000000000000000000000000000000000000000000000002c000000000000000000000000000000000000000000000000000000000000004a0000000000000000000000000000000000000000000000000000000000000068000000000000000000000000000000000000000000000000000000000000008600000000000000000000000000000000000000000000000000000000000000a400000000000000000000000000000000000000000000000000000000000000c2000000000000000000000000000000000000000000000000000000000000075950000000000000000000000000000000000000000000000000000000000000002000000000000000000000000000000000000000000000000000000000000006000000000000000000000000000000000000000000000000000000000000001600000000000000000000000000000000000000000000000000000000000000020000000000000000000000000000000000000000000000000000000000000000000000000000000000000000000000000000000000000000000000000000000020000000000000000000000000000000000000000000000000000000000000000000000000000000000000000000000000000000000000000000000000000000000000000000000000000000000000000000000000000000000000000000000c000000000000000000000000000000000000000000000000000000000000001200000000000000000000000000000000000000000000000000000000000000002000000000000000000000000cce466a522984415bc91338c232d98869193d46e000000000000000000000000dd7b5e1db4aafd5c8ec3b764efb8ed265aa5445b000000000000000000000000000000000000000000000000000000000000000000000000000000000000000000000000000000000000000000000000000076230000000000000000000000000000000000000000000000000000000000000002000000000000000000000000000000000000000000000000000000000000006000000000000000000000000000000000000000000000000000000000000001600000000000000000000000000000000000000000000000000000000000000020000000000000000000000000000000000000000000000000000000000000000000000000000000000000000000000000000000000000000000000000000000020000000000000000000000000000000000000000000000000000000000000000000000000000000000000000000000000000000000000000000000000000000000000000000000000000000000000000000000000000000000000000000000c000000000000000000000000000000000000000000000000000000000000001200000000000000000000000000000000000000000000000000000000000000002000000000000000000000000cce466a522984415bc91338c232d98869193d46e000000000000000000000000dd7b5e1db4aafd5c8ec3b764efb8ed265aa5445b000000000000000000000000000000000000000000000000000000000000000000000000000000000000000000000000000000000000000000000000000075c70000000000000000000000000000000000000000000000000000000000000002000000000000000000000000000000000000000000000000000000000000006000000000000000000000000000000000000000000000000000000000000001600000000000000000000000000000000000000000000000000000000000000020000000000000000000000000000000000000000000000000000000000000000000000000000000000000000000000000000000000000000000000000000000020000000000000000000000000000000000000000000000000000000000000000000000000000000000000000000000000000000000000000000000000000000000000000000000000000000000000000000000000000000000000000000000c000000000000000000000000000000000000000000000000000000000000001200000000000000000000000000000000000000000000000000000000000000002000000000000000000000000cce466a522984415bc91338c232d98869193d46e000000000000000000000000dd7b5e1db4aafd5c8ec3b764efb8ed265aa5445b000000000000000000000000000000000000000000000000000000000000000000000000000000000000000000000000000000000000000000000000000075e80000000000000000000000000000000000000000000000000000000000000002000000000000000000000000000000000000000000000000000000000000006000000000000000000000000000000000000000000000000000000000000001600000000000000000000000000000000000000000000000000000000000000020000000000000000000000000000000000000000000000000000000000000000000000000000000000000000000000000000000000000000000000000000000020000000000000000000000000000000000000000000000000000000000000000000000000000000000000000000000000000000000000000000000000000000000000000000000000000000000000000000000000000000000000000000000c000000000000000000000000000000000000000000000000000000000000001200000000000000000000000000000000000000000000000000000000000000002000000000000000000000000cce466a522984415bc91338c232d98869193d46e000000000000000000000000dd7b5e1db4aafd5c8ec3b764efb8ed265aa5445b000000000000000000000000000000000000000000000000000000000000000000000000000000000000000000000000000000000000000000000000000076340000000000000000000000000000000000000000000000000000000000000002000000000000000000000000000000000000000000000000000000000000006000000000000000000000000000000000000000000000000000000000000001600000000000000000000000000000000000000000000000000000000000000020000000000000000000000000000000000000000000000000000000000000000000000000000000000000000000000000000000000000000000000000000000020000000000000000000000000000000000000000000000000000000000000000000000000000000000000000000000000000000000000000000000000000000000000000000000000000000000000000000000000000000000000000000000c000000000000000000000000000000000000000000000000000000000000001200000000000000000000000000000000000000000000000000000000000000002000000000000000000000000cce466a522984415bc91338c232d98869193d46e000000000000000000000000dd7b5e1db4aafd5c8ec3b764efb8ed265aa5445b000000000000000000000000000000000000000000000000000000000000000000000000000000000000000000000000000000000000000000000000000076480000000000000000000000000000000000000000000000000000000000000002000000000000000000000000000000000000000000000000000000000000006000000000000000000000000000000000000000000000000000000000000001600000000000000000000000000000000000000000000000000000000000000020000000000000000000000000000000000000000000000000000000000000000000000000000000000000000000000000000000000000000000000000000000020000000000000000000000000000000000000000000000000000000000000000000000000000000000000000000000000000000000000000000000000000000000000000000000000000000000000000000000000000000000000000000000c000000000000000000000000000000000000000000000000000000000000001200000000000000000000000000000000000000000000000000000000000000002000000000000000000000000cce466a522984415bc91338c232d98869193d46e000000000000000000000000dd7b5e1db4aafd5c8ec3b764efb8ed265aa5445b000000000000000000000000000000000000000000000000000000000000000000000000000000000000000000000000000000000000000000000000000076420000000000000000000000000000000000000000000000000000000000000002000000000000000000000000000000000000000000000000000000000000006000000000000000000000000000000000000000000000000000000000000001600000000000000000000000000000000000000000000000000000000000000020000000000000000000000000000000000000000000000000000000000000000000000000000000000000000000000000000000000000000000000000000000020000000000000000000000000000000000000000000000000000000000000000000000000000000000000000000000000000000000000000000000000000000000000000000000000000000000000000000000000000000000000000000000c000000000000000000000000000000000000000000000000000000000000001200000000000000000000000000000000000000000000000000000000000000002000000000000000000000000cce466a522984415bc91338c232d98869193d46e000000000000000000000000dd7b5e1db4aafd5c8ec3b764efb8ed265aa5445b0000000000000000000000000000000000000000000000000000000000000000",
        "nonce": "0x51",
        "chainId": "0xfc"
      },
      "additionalContracts": [],
      "isFixedGasLimit": false
    },
    {
      "hash": null,
      "transactionType": "CALL",
      "contractName": null,
      "contractAddress": "0x1a44076050125825900e736c501f859c50fe728c",
      "function": "setConfig(address,address,(uint32,uint32,bytes)[])",
      "arguments": [
        "0xF6f45CCB5E85D1400067ee66F9e168f83e86124E",
        "0x377530cdA84DFb2673bF4d145DCF0C4D7fdcB5b6",
        "[(30101, 2, 0x0000000000000000000000000000000000000000000000000000000000000020000000000000000000000000000000000000000000000000000000000000000000000000000000000000000000000000000000000000000000000000000000020000000000000000000000000000000000000000000000000000000000000000000000000000000000000000000000000000000000000000000000000000000000000000000000000000000000000000000000000000000000000000000000c000000000000000000000000000000000000000000000000000000000000001200000000000000000000000000000000000000000000000000000000000000002000000000000000000000000cce466a522984415bc91338c232d98869193d46e000000000000000000000000dd7b5e1db4aafd5c8ec3b764efb8ed265aa5445b0000000000000000000000000000000000000000000000000000000000000000), (30243, 2, 0x0000000000000000000000000000000000000000000000000000000000000020000000000000000000000000000000000000000000000000000000000000000000000000000000000000000000000000000000000000000000000000000000020000000000000000000000000000000000000000000000000000000000000000000000000000000000000000000000000000000000000000000000000000000000000000000000000000000000000000000000000000000000000000000000c000000000000000000000000000000000000000000000000000000000000001200000000000000000000000000000000000000000000000000000000000000002000000000000000000000000cce466a522984415bc91338c232d98869193d46e000000000000000000000000dd7b5e1db4aafd5c8ec3b764efb8ed265aa5445b0000000000000000000000000000000000000000000000000000000000000000), (30151, 2, 0x0000000000000000000000000000000000000000000000000000000000000020000000000000000000000000000000000000000000000000000000000000000000000000000000000000000000000000000000000000000000000000000000020000000000000000000000000000000000000000000000000000000000000000000000000000000000000000000000000000000000000000000000000000000000000000000000000000000000000000000000000000000000000000000000c000000000000000000000000000000000000000000000000000000000000001200000000000000000000000000000000000000000000000000000000000000002000000000000000000000000cce466a522984415bc91338c232d98869193d46e000000000000000000000000dd7b5e1db4aafd5c8ec3b764efb8ed265aa5445b0000000000000000000000000000000000000000000000000000000000000000), (30184, 2, 0x0000000000000000000000000000000000000000000000000000000000000020000000000000000000000000000000000000000000000000000000000000000000000000000000000000000000000000000000000000000000000000000000020000000000000000000000000000000000000000000000000000000000000000000000000000000000000000000000000000000000000000000000000000000000000000000000000000000000000000000000000000000000000000000000c000000000000000000000000000000000000000000000000000000000000001200000000000000000000000000000000000000000000000000000000000000002000000000000000000000000cce466a522984415bc91338c232d98869193d46e000000000000000000000000dd7b5e1db4aafd5c8ec3b764efb8ed265aa5445b0000000000000000000000000000000000000000000000000000000000000000), (30260, 2, 0x0000000000000000000000000000000000000000000000000000000000000020000000000000000000000000000000000000000000000000000000000000000000000000000000000000000000000000000000000000000000000000000000020000000000000000000000000000000000000000000000000000000000000000000000000000000000000000000000000000000000000000000000000000000000000000000000000000000000000000000000000000000000000000000000c000000000000000000000000000000000000000000000000000000000000001200000000000000000000000000000000000000000000000000000000000000002000000000000000000000000cce466a522984415bc91338c232d98869193d46e000000000000000000000000dd7b5e1db4aafd5c8ec3b764efb8ed265aa5445b0000000000000000000000000000000000000000000000000000000000000000), (30280, 2, 0x0000000000000000000000000000000000000000000000000000000000000020000000000000000000000000000000000000000000000000000000000000000000000000000000000000000000000000000000000000000000000000000000020000000000000000000000000000000000000000000000000000000000000000000000000000000000000000000000000000000000000000000000000000000000000000000000000000000000000000000000000000000000000000000000c000000000000000000000000000000000000000000000000000000000000001200000000000000000000000000000000000000000000000000000000000000002000000000000000000000000cce466a522984415bc91338c232d98869193d46e000000000000000000000000dd7b5e1db4aafd5c8ec3b764efb8ed265aa5445b0000000000000000000000000000000000000000000000000000000000000000), (30274, 2, 0x0000000000000000000000000000000000000000000000000000000000000020000000000000000000000000000000000000000000000000000000000000000000000000000000000000000000000000000000000000000000000000000000020000000000000000000000000000000000000000000000000000000000000000000000000000000000000000000000000000000000000000000000000000000000000000000000000000000000000000000000000000000000000000000000c000000000000000000000000000000000000000000000000000000000000001200000000000000000000000000000000000000000000000000000000000000002000000000000000000000000cce466a522984415bc91338c232d98869193d46e000000000000000000000000dd7b5e1db4aafd5c8ec3b764efb8ed265aa5445b0000000000000000000000000000000000000000000000000000000000000000)]"
      ],
      "transaction": {
        "from": "0x0990be6db8c785fbbf9ded8baec612a10cae814b",
        "to": "0x1a44076050125825900e736c501f859c50fe728c",
        "gas": "0x109b9c",
        "value": "0x0",
        "input": "0x6dbd9f90000000000000000000000000f6f45ccb5e85d1400067ee66f9e168f83e86124e000000000000000000000000377530cda84dfb2673bf4d145dcf0c4d7fdcb5b60000000000000000000000000000000000000000000000000000000000000060000000000000000000000000000000000000000000000000000000000000000700000000000000000000000000000000000000000000000000000000000000e000000000000000000000000000000000000000000000000000000000000002c000000000000000000000000000000000000000000000000000000000000004a0000000000000000000000000000000000000000000000000000000000000068000000000000000000000000000000000000000000000000000000000000008600000000000000000000000000000000000000000000000000000000000000a400000000000000000000000000000000000000000000000000000000000000c2000000000000000000000000000000000000000000000000000000000000075950000000000000000000000000000000000000000000000000000000000000002000000000000000000000000000000000000000000000000000000000000006000000000000000000000000000000000000000000000000000000000000001600000000000000000000000000000000000000000000000000000000000000020000000000000000000000000000000000000000000000000000000000000000000000000000000000000000000000000000000000000000000000000000000020000000000000000000000000000000000000000000000000000000000000000000000000000000000000000000000000000000000000000000000000000000000000000000000000000000000000000000000000000000000000000000000c000000000000000000000000000000000000000000000000000000000000001200000000000000000000000000000000000000000000000000000000000000002000000000000000000000000cce466a522984415bc91338c232d98869193d46e000000000000000000000000dd7b5e1db4aafd5c8ec3b764efb8ed265aa5445b000000000000000000000000000000000000000000000000000000000000000000000000000000000000000000000000000000000000000000000000000076230000000000000000000000000000000000000000000000000000000000000002000000000000000000000000000000000000000000000000000000000000006000000000000000000000000000000000000000000000000000000000000001600000000000000000000000000000000000000000000000000000000000000020000000000000000000000000000000000000000000000000000000000000000000000000000000000000000000000000000000000000000000000000000000020000000000000000000000000000000000000000000000000000000000000000000000000000000000000000000000000000000000000000000000000000000000000000000000000000000000000000000000000000000000000000000000c000000000000000000000000000000000000000000000000000000000000001200000000000000000000000000000000000000000000000000000000000000002000000000000000000000000cce466a522984415bc91338c232d98869193d46e000000000000000000000000dd7b5e1db4aafd5c8ec3b764efb8ed265aa5445b000000000000000000000000000000000000000000000000000000000000000000000000000000000000000000000000000000000000000000000000000075c70000000000000000000000000000000000000000000000000000000000000002000000000000000000000000000000000000000000000000000000000000006000000000000000000000000000000000000000000000000000000000000001600000000000000000000000000000000000000000000000000000000000000020000000000000000000000000000000000000000000000000000000000000000000000000000000000000000000000000000000000000000000000000000000020000000000000000000000000000000000000000000000000000000000000000000000000000000000000000000000000000000000000000000000000000000000000000000000000000000000000000000000000000000000000000000000c000000000000000000000000000000000000000000000000000000000000001200000000000000000000000000000000000000000000000000000000000000002000000000000000000000000cce466a522984415bc91338c232d98869193d46e000000000000000000000000dd7b5e1db4aafd5c8ec3b764efb8ed265aa5445b000000000000000000000000000000000000000000000000000000000000000000000000000000000000000000000000000000000000000000000000000075e80000000000000000000000000000000000000000000000000000000000000002000000000000000000000000000000000000000000000000000000000000006000000000000000000000000000000000000000000000000000000000000001600000000000000000000000000000000000000000000000000000000000000020000000000000000000000000000000000000000000000000000000000000000000000000000000000000000000000000000000000000000000000000000000020000000000000000000000000000000000000000000000000000000000000000000000000000000000000000000000000000000000000000000000000000000000000000000000000000000000000000000000000000000000000000000000c000000000000000000000000000000000000000000000000000000000000001200000000000000000000000000000000000000000000000000000000000000002000000000000000000000000cce466a522984415bc91338c232d98869193d46e000000000000000000000000dd7b5e1db4aafd5c8ec3b764efb8ed265aa5445b000000000000000000000000000000000000000000000000000000000000000000000000000000000000000000000000000000000000000000000000000076340000000000000000000000000000000000000000000000000000000000000002000000000000000000000000000000000000000000000000000000000000006000000000000000000000000000000000000000000000000000000000000001600000000000000000000000000000000000000000000000000000000000000020000000000000000000000000000000000000000000000000000000000000000000000000000000000000000000000000000000000000000000000000000000020000000000000000000000000000000000000000000000000000000000000000000000000000000000000000000000000000000000000000000000000000000000000000000000000000000000000000000000000000000000000000000000c000000000000000000000000000000000000000000000000000000000000001200000000000000000000000000000000000000000000000000000000000000002000000000000000000000000cce466a522984415bc91338c232d98869193d46e000000000000000000000000dd7b5e1db4aafd5c8ec3b764efb8ed265aa5445b000000000000000000000000000000000000000000000000000000000000000000000000000000000000000000000000000000000000000000000000000076480000000000000000000000000000000000000000000000000000000000000002000000000000000000000000000000000000000000000000000000000000006000000000000000000000000000000000000000000000000000000000000001600000000000000000000000000000000000000000000000000000000000000020000000000000000000000000000000000000000000000000000000000000000000000000000000000000000000000000000000000000000000000000000000020000000000000000000000000000000000000000000000000000000000000000000000000000000000000000000000000000000000000000000000000000000000000000000000000000000000000000000000000000000000000000000000c000000000000000000000000000000000000000000000000000000000000001200000000000000000000000000000000000000000000000000000000000000002000000000000000000000000cce466a522984415bc91338c232d98869193d46e000000000000000000000000dd7b5e1db4aafd5c8ec3b764efb8ed265aa5445b000000000000000000000000000000000000000000000000000000000000000000000000000000000000000000000000000000000000000000000000000076420000000000000000000000000000000000000000000000000000000000000002000000000000000000000000000000000000000000000000000000000000006000000000000000000000000000000000000000000000000000000000000001600000000000000000000000000000000000000000000000000000000000000020000000000000000000000000000000000000000000000000000000000000000000000000000000000000000000000000000000000000000000000000000000020000000000000000000000000000000000000000000000000000000000000000000000000000000000000000000000000000000000000000000000000000000000000000000000000000000000000000000000000000000000000000000000c000000000000000000000000000000000000000000000000000000000000001200000000000000000000000000000000000000000000000000000000000000002000000000000000000000000cce466a522984415bc91338c232d98869193d46e000000000000000000000000dd7b5e1db4aafd5c8ec3b764efb8ed265aa5445b0000000000000000000000000000000000000000000000000000000000000000",
        "nonce": "0x52",
        "chainId": "0xfc"
      },
      "additionalContracts": [],
      "isFixedGasLimit": false
    },
    {
      "hash": null,
      "transactionType": "CALL",
      "contractName": null,
      "contractAddress": "0x1a44076050125825900e736c501f859c50fe728c",
      "function": "setConfig(address,address,(uint32,uint32,bytes)[])",
      "arguments": [
        "0xb85A8FDa7F5e52E32fa5582847CFfFee9456a5Dc",
        "0x8bC1e36F015b9902B54b1387A4d733cebc2f5A4e",
        "[(30101, 2, 0x0000000000000000000000000000000000000000000000000000000000000020000000000000000000000000000000000000000000000000000000000000000000000000000000000000000000000000000000000000000000000000000000020000000000000000000000000000000000000000000000000000000000000000000000000000000000000000000000000000000000000000000000000000000000000000000000000000000000000000000000000000000000000000000000c000000000000000000000000000000000000000000000000000000000000001200000000000000000000000000000000000000000000000000000000000000002000000000000000000000000cce466a522984415bc91338c232d98869193d46e000000000000000000000000dd7b5e1db4aafd5c8ec3b764efb8ed265aa5445b0000000000000000000000000000000000000000000000000000000000000000), (30243, 2, 0x0000000000000000000000000000000000000000000000000000000000000020000000000000000000000000000000000000000000000000000000000000000000000000000000000000000000000000000000000000000000000000000000020000000000000000000000000000000000000000000000000000000000000000000000000000000000000000000000000000000000000000000000000000000000000000000000000000000000000000000000000000000000000000000000c000000000000000000000000000000000000000000000000000000000000001200000000000000000000000000000000000000000000000000000000000000002000000000000000000000000cce466a522984415bc91338c232d98869193d46e000000000000000000000000dd7b5e1db4aafd5c8ec3b764efb8ed265aa5445b0000000000000000000000000000000000000000000000000000000000000000), (30151, 2, 0x0000000000000000000000000000000000000000000000000000000000000020000000000000000000000000000000000000000000000000000000000000000000000000000000000000000000000000000000000000000000000000000000020000000000000000000000000000000000000000000000000000000000000000000000000000000000000000000000000000000000000000000000000000000000000000000000000000000000000000000000000000000000000000000000c000000000000000000000000000000000000000000000000000000000000001200000000000000000000000000000000000000000000000000000000000000002000000000000000000000000cce466a522984415bc91338c232d98869193d46e000000000000000000000000dd7b5e1db4aafd5c8ec3b764efb8ed265aa5445b0000000000000000000000000000000000000000000000000000000000000000), (30184, 2, 0x0000000000000000000000000000000000000000000000000000000000000020000000000000000000000000000000000000000000000000000000000000000000000000000000000000000000000000000000000000000000000000000000020000000000000000000000000000000000000000000000000000000000000000000000000000000000000000000000000000000000000000000000000000000000000000000000000000000000000000000000000000000000000000000000c000000000000000000000000000000000000000000000000000000000000001200000000000000000000000000000000000000000000000000000000000000002000000000000000000000000cce466a522984415bc91338c232d98869193d46e000000000000000000000000dd7b5e1db4aafd5c8ec3b764efb8ed265aa5445b0000000000000000000000000000000000000000000000000000000000000000), (30260, 2, 0x0000000000000000000000000000000000000000000000000000000000000020000000000000000000000000000000000000000000000000000000000000000000000000000000000000000000000000000000000000000000000000000000020000000000000000000000000000000000000000000000000000000000000000000000000000000000000000000000000000000000000000000000000000000000000000000000000000000000000000000000000000000000000000000000c000000000000000000000000000000000000000000000000000000000000001200000000000000000000000000000000000000000000000000000000000000002000000000000000000000000cce466a522984415bc91338c232d98869193d46e000000000000000000000000dd7b5e1db4aafd5c8ec3b764efb8ed265aa5445b0000000000000000000000000000000000000000000000000000000000000000), (30280, 2, 0x0000000000000000000000000000000000000000000000000000000000000020000000000000000000000000000000000000000000000000000000000000000000000000000000000000000000000000000000000000000000000000000000020000000000000000000000000000000000000000000000000000000000000000000000000000000000000000000000000000000000000000000000000000000000000000000000000000000000000000000000000000000000000000000000c000000000000000000000000000000000000000000000000000000000000001200000000000000000000000000000000000000000000000000000000000000002000000000000000000000000cce466a522984415bc91338c232d98869193d46e000000000000000000000000dd7b5e1db4aafd5c8ec3b764efb8ed265aa5445b0000000000000000000000000000000000000000000000000000000000000000), (30274, 2, 0x0000000000000000000000000000000000000000000000000000000000000020000000000000000000000000000000000000000000000000000000000000000000000000000000000000000000000000000000000000000000000000000000020000000000000000000000000000000000000000000000000000000000000000000000000000000000000000000000000000000000000000000000000000000000000000000000000000000000000000000000000000000000000000000000c000000000000000000000000000000000000000000000000000000000000001200000000000000000000000000000000000000000000000000000000000000002000000000000000000000000cce466a522984415bc91338c232d98869193d46e000000000000000000000000dd7b5e1db4aafd5c8ec3b764efb8ed265aa5445b0000000000000000000000000000000000000000000000000000000000000000)]"
      ],
      "transaction": {
        "from": "0x0990be6db8c785fbbf9ded8baec612a10cae814b",
        "to": "0x1a44076050125825900e736c501f859c50fe728c",
        "gas": "0x109421",
        "value": "0x0",
        "input": "0x6dbd9f90000000000000000000000000b85a8fda7f5e52e32fa5582847cfffee9456a5dc0000000000000000000000008bc1e36f015b9902b54b1387a4d733cebc2f5a4e0000000000000000000000000000000000000000000000000000000000000060000000000000000000000000000000000000000000000000000000000000000700000000000000000000000000000000000000000000000000000000000000e000000000000000000000000000000000000000000000000000000000000002c000000000000000000000000000000000000000000000000000000000000004a0000000000000000000000000000000000000000000000000000000000000068000000000000000000000000000000000000000000000000000000000000008600000000000000000000000000000000000000000000000000000000000000a400000000000000000000000000000000000000000000000000000000000000c2000000000000000000000000000000000000000000000000000000000000075950000000000000000000000000000000000000000000000000000000000000002000000000000000000000000000000000000000000000000000000000000006000000000000000000000000000000000000000000000000000000000000001600000000000000000000000000000000000000000000000000000000000000020000000000000000000000000000000000000000000000000000000000000000000000000000000000000000000000000000000000000000000000000000000020000000000000000000000000000000000000000000000000000000000000000000000000000000000000000000000000000000000000000000000000000000000000000000000000000000000000000000000000000000000000000000000c000000000000000000000000000000000000000000000000000000000000001200000000000000000000000000000000000000000000000000000000000000002000000000000000000000000cce466a522984415bc91338c232d98869193d46e000000000000000000000000dd7b5e1db4aafd5c8ec3b764efb8ed265aa5445b000000000000000000000000000000000000000000000000000000000000000000000000000000000000000000000000000000000000000000000000000076230000000000000000000000000000000000000000000000000000000000000002000000000000000000000000000000000000000000000000000000000000006000000000000000000000000000000000000000000000000000000000000001600000000000000000000000000000000000000000000000000000000000000020000000000000000000000000000000000000000000000000000000000000000000000000000000000000000000000000000000000000000000000000000000020000000000000000000000000000000000000000000000000000000000000000000000000000000000000000000000000000000000000000000000000000000000000000000000000000000000000000000000000000000000000000000000c000000000000000000000000000000000000000000000000000000000000001200000000000000000000000000000000000000000000000000000000000000002000000000000000000000000cce466a522984415bc91338c232d98869193d46e000000000000000000000000dd7b5e1db4aafd5c8ec3b764efb8ed265aa5445b000000000000000000000000000000000000000000000000000000000000000000000000000000000000000000000000000000000000000000000000000075c70000000000000000000000000000000000000000000000000000000000000002000000000000000000000000000000000000000000000000000000000000006000000000000000000000000000000000000000000000000000000000000001600000000000000000000000000000000000000000000000000000000000000020000000000000000000000000000000000000000000000000000000000000000000000000000000000000000000000000000000000000000000000000000000020000000000000000000000000000000000000000000000000000000000000000000000000000000000000000000000000000000000000000000000000000000000000000000000000000000000000000000000000000000000000000000000c000000000000000000000000000000000000000000000000000000000000001200000000000000000000000000000000000000000000000000000000000000002000000000000000000000000cce466a522984415bc91338c232d98869193d46e000000000000000000000000dd7b5e1db4aafd5c8ec3b764efb8ed265aa5445b000000000000000000000000000000000000000000000000000000000000000000000000000000000000000000000000000000000000000000000000000075e80000000000000000000000000000000000000000000000000000000000000002000000000000000000000000000000000000000000000000000000000000006000000000000000000000000000000000000000000000000000000000000001600000000000000000000000000000000000000000000000000000000000000020000000000000000000000000000000000000000000000000000000000000000000000000000000000000000000000000000000000000000000000000000000020000000000000000000000000000000000000000000000000000000000000000000000000000000000000000000000000000000000000000000000000000000000000000000000000000000000000000000000000000000000000000000000c000000000000000000000000000000000000000000000000000000000000001200000000000000000000000000000000000000000000000000000000000000002000000000000000000000000cce466a522984415bc91338c232d98869193d46e000000000000000000000000dd7b5e1db4aafd5c8ec3b764efb8ed265aa5445b000000000000000000000000000000000000000000000000000000000000000000000000000000000000000000000000000000000000000000000000000076340000000000000000000000000000000000000000000000000000000000000002000000000000000000000000000000000000000000000000000000000000006000000000000000000000000000000000000000000000000000000000000001600000000000000000000000000000000000000000000000000000000000000020000000000000000000000000000000000000000000000000000000000000000000000000000000000000000000000000000000000000000000000000000000020000000000000000000000000000000000000000000000000000000000000000000000000000000000000000000000000000000000000000000000000000000000000000000000000000000000000000000000000000000000000000000000c000000000000000000000000000000000000000000000000000000000000001200000000000000000000000000000000000000000000000000000000000000002000000000000000000000000cce466a522984415bc91338c232d98869193d46e000000000000000000000000dd7b5e1db4aafd5c8ec3b764efb8ed265aa5445b000000000000000000000000000000000000000000000000000000000000000000000000000000000000000000000000000000000000000000000000000076480000000000000000000000000000000000000000000000000000000000000002000000000000000000000000000000000000000000000000000000000000006000000000000000000000000000000000000000000000000000000000000001600000000000000000000000000000000000000000000000000000000000000020000000000000000000000000000000000000000000000000000000000000000000000000000000000000000000000000000000000000000000000000000000020000000000000000000000000000000000000000000000000000000000000000000000000000000000000000000000000000000000000000000000000000000000000000000000000000000000000000000000000000000000000000000000c000000000000000000000000000000000000000000000000000000000000001200000000000000000000000000000000000000000000000000000000000000002000000000000000000000000cce466a522984415bc91338c232d98869193d46e000000000000000000000000dd7b5e1db4aafd5c8ec3b764efb8ed265aa5445b000000000000000000000000000000000000000000000000000000000000000000000000000000000000000000000000000000000000000000000000000076420000000000000000000000000000000000000000000000000000000000000002000000000000000000000000000000000000000000000000000000000000006000000000000000000000000000000000000000000000000000000000000001600000000000000000000000000000000000000000000000000000000000000020000000000000000000000000000000000000000000000000000000000000000000000000000000000000000000000000000000000000000000000000000000020000000000000000000000000000000000000000000000000000000000000000000000000000000000000000000000000000000000000000000000000000000000000000000000000000000000000000000000000000000000000000000000c000000000000000000000000000000000000000000000000000000000000001200000000000000000000000000000000000000000000000000000000000000002000000000000000000000000cce466a522984415bc91338c232d98869193d46e000000000000000000000000dd7b5e1db4aafd5c8ec3b764efb8ed265aa5445b0000000000000000000000000000000000000000000000000000000000000000",
        "nonce": "0x53",
        "chainId": "0xfc"
      },
      "additionalContracts": [],
      "isFixedGasLimit": false
    },
    {
      "hash": null,
      "transactionType": "CALL",
      "contractName": null,
      "contractAddress": "0x1a44076050125825900e736c501f859c50fe728c",
      "function": "setConfig(address,address,(uint32,uint32,bytes)[])",
      "arguments": [
        "0xb85A8FDa7F5e52E32fa5582847CFfFee9456a5Dc",
        "0x377530cdA84DFb2673bF4d145DCF0C4D7fdcB5b6",
        "[(30101, 2, 0x0000000000000000000000000000000000000000000000000000000000000020000000000000000000000000000000000000000000000000000000000000000000000000000000000000000000000000000000000000000000000000000000020000000000000000000000000000000000000000000000000000000000000000000000000000000000000000000000000000000000000000000000000000000000000000000000000000000000000000000000000000000000000000000000c000000000000000000000000000000000000000000000000000000000000001200000000000000000000000000000000000000000000000000000000000000002000000000000000000000000cce466a522984415bc91338c232d98869193d46e000000000000000000000000dd7b5e1db4aafd5c8ec3b764efb8ed265aa5445b0000000000000000000000000000000000000000000000000000000000000000), (30243, 2, 0x0000000000000000000000000000000000000000000000000000000000000020000000000000000000000000000000000000000000000000000000000000000000000000000000000000000000000000000000000000000000000000000000020000000000000000000000000000000000000000000000000000000000000000000000000000000000000000000000000000000000000000000000000000000000000000000000000000000000000000000000000000000000000000000000c000000000000000000000000000000000000000000000000000000000000001200000000000000000000000000000000000000000000000000000000000000002000000000000000000000000cce466a522984415bc91338c232d98869193d46e000000000000000000000000dd7b5e1db4aafd5c8ec3b764efb8ed265aa5445b0000000000000000000000000000000000000000000000000000000000000000), (30151, 2, 0x0000000000000000000000000000000000000000000000000000000000000020000000000000000000000000000000000000000000000000000000000000000000000000000000000000000000000000000000000000000000000000000000020000000000000000000000000000000000000000000000000000000000000000000000000000000000000000000000000000000000000000000000000000000000000000000000000000000000000000000000000000000000000000000000c000000000000000000000000000000000000000000000000000000000000001200000000000000000000000000000000000000000000000000000000000000002000000000000000000000000cce466a522984415bc91338c232d98869193d46e000000000000000000000000dd7b5e1db4aafd5c8ec3b764efb8ed265aa5445b0000000000000000000000000000000000000000000000000000000000000000), (30184, 2, 0x0000000000000000000000000000000000000000000000000000000000000020000000000000000000000000000000000000000000000000000000000000000000000000000000000000000000000000000000000000000000000000000000020000000000000000000000000000000000000000000000000000000000000000000000000000000000000000000000000000000000000000000000000000000000000000000000000000000000000000000000000000000000000000000000c000000000000000000000000000000000000000000000000000000000000001200000000000000000000000000000000000000000000000000000000000000002000000000000000000000000cce466a522984415bc91338c232d98869193d46e000000000000000000000000dd7b5e1db4aafd5c8ec3b764efb8ed265aa5445b0000000000000000000000000000000000000000000000000000000000000000), (30260, 2, 0x0000000000000000000000000000000000000000000000000000000000000020000000000000000000000000000000000000000000000000000000000000000000000000000000000000000000000000000000000000000000000000000000020000000000000000000000000000000000000000000000000000000000000000000000000000000000000000000000000000000000000000000000000000000000000000000000000000000000000000000000000000000000000000000000c000000000000000000000000000000000000000000000000000000000000001200000000000000000000000000000000000000000000000000000000000000002000000000000000000000000cce466a522984415bc91338c232d98869193d46e000000000000000000000000dd7b5e1db4aafd5c8ec3b764efb8ed265aa5445b0000000000000000000000000000000000000000000000000000000000000000), (30280, 2, 0x0000000000000000000000000000000000000000000000000000000000000020000000000000000000000000000000000000000000000000000000000000000000000000000000000000000000000000000000000000000000000000000000020000000000000000000000000000000000000000000000000000000000000000000000000000000000000000000000000000000000000000000000000000000000000000000000000000000000000000000000000000000000000000000000c000000000000000000000000000000000000000000000000000000000000001200000000000000000000000000000000000000000000000000000000000000002000000000000000000000000cce466a522984415bc91338c232d98869193d46e000000000000000000000000dd7b5e1db4aafd5c8ec3b764efb8ed265aa5445b0000000000000000000000000000000000000000000000000000000000000000), (30274, 2, 0x0000000000000000000000000000000000000000000000000000000000000020000000000000000000000000000000000000000000000000000000000000000000000000000000000000000000000000000000000000000000000000000000020000000000000000000000000000000000000000000000000000000000000000000000000000000000000000000000000000000000000000000000000000000000000000000000000000000000000000000000000000000000000000000000c000000000000000000000000000000000000000000000000000000000000001200000000000000000000000000000000000000000000000000000000000000002000000000000000000000000cce466a522984415bc91338c232d98869193d46e000000000000000000000000dd7b5e1db4aafd5c8ec3b764efb8ed265aa5445b0000000000000000000000000000000000000000000000000000000000000000)]"
      ],
      "transaction": {
        "from": "0x0990be6db8c785fbbf9ded8baec612a10cae814b",
        "to": "0x1a44076050125825900e736c501f859c50fe728c",
        "gas": "0x1195c5",
        "value": "0x0",
        "input": "0x6dbd9f90000000000000000000000000b85a8fda7f5e52e32fa5582847cfffee9456a5dc000000000000000000000000377530cda84dfb2673bf4d145dcf0c4d7fdcb5b60000000000000000000000000000000000000000000000000000000000000060000000000000000000000000000000000000000000000000000000000000000700000000000000000000000000000000000000000000000000000000000000e000000000000000000000000000000000000000000000000000000000000002c000000000000000000000000000000000000000000000000000000000000004a0000000000000000000000000000000000000000000000000000000000000068000000000000000000000000000000000000000000000000000000000000008600000000000000000000000000000000000000000000000000000000000000a400000000000000000000000000000000000000000000000000000000000000c2000000000000000000000000000000000000000000000000000000000000075950000000000000000000000000000000000000000000000000000000000000002000000000000000000000000000000000000000000000000000000000000006000000000000000000000000000000000000000000000000000000000000001600000000000000000000000000000000000000000000000000000000000000020000000000000000000000000000000000000000000000000000000000000000000000000000000000000000000000000000000000000000000000000000000020000000000000000000000000000000000000000000000000000000000000000000000000000000000000000000000000000000000000000000000000000000000000000000000000000000000000000000000000000000000000000000000c000000000000000000000000000000000000000000000000000000000000001200000000000000000000000000000000000000000000000000000000000000002000000000000000000000000cce466a522984415bc91338c232d98869193d46e000000000000000000000000dd7b5e1db4aafd5c8ec3b764efb8ed265aa5445b000000000000000000000000000000000000000000000000000000000000000000000000000000000000000000000000000000000000000000000000000076230000000000000000000000000000000000000000000000000000000000000002000000000000000000000000000000000000000000000000000000000000006000000000000000000000000000000000000000000000000000000000000001600000000000000000000000000000000000000000000000000000000000000020000000000000000000000000000000000000000000000000000000000000000000000000000000000000000000000000000000000000000000000000000000020000000000000000000000000000000000000000000000000000000000000000000000000000000000000000000000000000000000000000000000000000000000000000000000000000000000000000000000000000000000000000000000c000000000000000000000000000000000000000000000000000000000000001200000000000000000000000000000000000000000000000000000000000000002000000000000000000000000cce466a522984415bc91338c232d98869193d46e000000000000000000000000dd7b5e1db4aafd5c8ec3b764efb8ed265aa5445b000000000000000000000000000000000000000000000000000000000000000000000000000000000000000000000000000000000000000000000000000075c70000000000000000000000000000000000000000000000000000000000000002000000000000000000000000000000000000000000000000000000000000006000000000000000000000000000000000000000000000000000000000000001600000000000000000000000000000000000000000000000000000000000000020000000000000000000000000000000000000000000000000000000000000000000000000000000000000000000000000000000000000000000000000000000020000000000000000000000000000000000000000000000000000000000000000000000000000000000000000000000000000000000000000000000000000000000000000000000000000000000000000000000000000000000000000000000c000000000000000000000000000000000000000000000000000000000000001200000000000000000000000000000000000000000000000000000000000000002000000000000000000000000cce466a522984415bc91338c232d98869193d46e000000000000000000000000dd7b5e1db4aafd5c8ec3b764efb8ed265aa5445b000000000000000000000000000000000000000000000000000000000000000000000000000000000000000000000000000000000000000000000000000075e80000000000000000000000000000000000000000000000000000000000000002000000000000000000000000000000000000000000000000000000000000006000000000000000000000000000000000000000000000000000000000000001600000000000000000000000000000000000000000000000000000000000000020000000000000000000000000000000000000000000000000000000000000000000000000000000000000000000000000000000000000000000000000000000020000000000000000000000000000000000000000000000000000000000000000000000000000000000000000000000000000000000000000000000000000000000000000000000000000000000000000000000000000000000000000000000c000000000000000000000000000000000000000000000000000000000000001200000000000000000000000000000000000000000000000000000000000000002000000000000000000000000cce466a522984415bc91338c232d98869193d46e000000000000000000000000dd7b5e1db4aafd5c8ec3b764efb8ed265aa5445b000000000000000000000000000000000000000000000000000000000000000000000000000000000000000000000000000000000000000000000000000076340000000000000000000000000000000000000000000000000000000000000002000000000000000000000000000000000000000000000000000000000000006000000000000000000000000000000000000000000000000000000000000001600000000000000000000000000000000000000000000000000000000000000020000000000000000000000000000000000000000000000000000000000000000000000000000000000000000000000000000000000000000000000000000000020000000000000000000000000000000000000000000000000000000000000000000000000000000000000000000000000000000000000000000000000000000000000000000000000000000000000000000000000000000000000000000000c000000000000000000000000000000000000000000000000000000000000001200000000000000000000000000000000000000000000000000000000000000002000000000000000000000000cce466a522984415bc91338c232d98869193d46e000000000000000000000000dd7b5e1db4aafd5c8ec3b764efb8ed265aa5445b000000000000000000000000000000000000000000000000000000000000000000000000000000000000000000000000000000000000000000000000000076480000000000000000000000000000000000000000000000000000000000000002000000000000000000000000000000000000000000000000000000000000006000000000000000000000000000000000000000000000000000000000000001600000000000000000000000000000000000000000000000000000000000000020000000000000000000000000000000000000000000000000000000000000000000000000000000000000000000000000000000000000000000000000000000020000000000000000000000000000000000000000000000000000000000000000000000000000000000000000000000000000000000000000000000000000000000000000000000000000000000000000000000000000000000000000000000c000000000000000000000000000000000000000000000000000000000000001200000000000000000000000000000000000000000000000000000000000000002000000000000000000000000cce466a522984415bc91338c232d98869193d46e000000000000000000000000dd7b5e1db4aafd5c8ec3b764efb8ed265aa5445b000000000000000000000000000000000000000000000000000000000000000000000000000000000000000000000000000000000000000000000000000076420000000000000000000000000000000000000000000000000000000000000002000000000000000000000000000000000000000000000000000000000000006000000000000000000000000000000000000000000000000000000000000001600000000000000000000000000000000000000000000000000000000000000020000000000000000000000000000000000000000000000000000000000000000000000000000000000000000000000000000000000000000000000000000000020000000000000000000000000000000000000000000000000000000000000000000000000000000000000000000000000000000000000000000000000000000000000000000000000000000000000000000000000000000000000000000000c000000000000000000000000000000000000000000000000000000000000001200000000000000000000000000000000000000000000000000000000000000002000000000000000000000000cce466a522984415bc91338c232d98869193d46e000000000000000000000000dd7b5e1db4aafd5c8ec3b764efb8ed265aa5445b0000000000000000000000000000000000000000000000000000000000000000",
        "nonce": "0x54",
        "chainId": "0xfc"
      },
      "additionalContracts": [],
      "isFixedGasLimit": false
    },
    {
      "hash": null,
      "transactionType": "CALL",
      "contractName": "TransparentUpgradeableProxy",
      "contractAddress": "0xf6f45ccb5e85d1400067ee66f9e168f83e86124e",
      "function": null,
      "arguments": null,
      "transaction": {
        "from": "0x0990be6db8c785fbbf9ded8baec612a10cae814b",
        "to": "0xf6f45ccb5e85d1400067ee66f9e168f83e86124e",
        "gas": "0x128b1",
        "value": "0x0",
        "input": "0x3400288b0000000000000000000000000000000000000000000000000000000000007595000000000000000000000000909dbde1ebe906af95660033e478d59efe831fed",
        "nonce": "0x55",
        "chainId": "0xfc"
      },
      "additionalContracts": [],
      "isFixedGasLimit": false
    },
    {
      "hash": null,
      "transactionType": "CALL",
      "contractName": "TransparentUpgradeableProxy",
      "contractAddress": "0xf6f45ccb5e85d1400067ee66f9e168f83e86124e",
      "function": null,
      "arguments": null,
      "transaction": {
        "from": "0x0990be6db8c785fbbf9ded8baec612a10cae814b",
        "to": "0xf6f45ccb5e85d1400067ee66f9e168f83e86124e",
        "gas": "0x128b1",
        "value": "0x0",
        "input": "0x3400288b0000000000000000000000000000000000000000000000000000000000007623000000000000000000000000909dbde1ebe906af95660033e478d59efe831fed",
        "nonce": "0x56",
        "chainId": "0xfc"
      },
      "additionalContracts": [],
      "isFixedGasLimit": false
    },
    {
      "hash": null,
      "transactionType": "CALL",
      "contractName": "TransparentUpgradeableProxy",
      "contractAddress": "0xf6f45ccb5e85d1400067ee66f9e168f83e86124e",
      "function": null,
      "arguments": null,
      "transaction": {
        "from": "0x0990be6db8c785fbbf9ded8baec612a10cae814b",
        "to": "0xf6f45ccb5e85d1400067ee66f9e168f83e86124e",
        "gas": "0x128b1",
        "value": "0x0",
        "input": "0x3400288b00000000000000000000000000000000000000000000000000000000000075c7000000000000000000000000909dbde1ebe906af95660033e478d59efe831fed",
        "nonce": "0x57",
        "chainId": "0xfc"
      },
      "additionalContracts": [],
      "isFixedGasLimit": false
    },
    {
      "hash": null,
      "transactionType": "CALL",
      "contractName": "TransparentUpgradeableProxy",
      "contractAddress": "0xf6f45ccb5e85d1400067ee66f9e168f83e86124e",
      "function": null,
      "arguments": null,
      "transaction": {
        "from": "0x0990be6db8c785fbbf9ded8baec612a10cae814b",
        "to": "0xf6f45ccb5e85d1400067ee66f9e168f83e86124e",
        "gas": "0x128b1",
        "value": "0x0",
        "input": "0x3400288b00000000000000000000000000000000000000000000000000000000000075e8000000000000000000000000909dbde1ebe906af95660033e478d59efe831fed",
        "nonce": "0x58",
        "chainId": "0xfc"
      },
      "additionalContracts": [],
      "isFixedGasLimit": false
    },
    {
      "hash": null,
      "transactionType": "CALL",
      "contractName": "TransparentUpgradeableProxy",
      "contractAddress": "0xb85a8fda7f5e52e32fa5582847cfffee9456a5dc",
      "function": null,
      "arguments": null,
      "transaction": {
        "from": "0x0990be6db8c785fbbf9ded8baec612a10cae814b",
        "to": "0xb85a8fda7f5e52e32fa5582847cfffee9456a5dc",
        "gas": "0x13a38",
        "value": "0x0",
        "input": "0x3400288b00000000000000000000000000000000000000000000000000000000000075950000000000000000000000001f55a02a049033e3419a8e2975cf3f572f4e6e9a",
        "nonce": "0x59",
        "chainId": "0xfc"
      },
      "additionalContracts": [],
      "isFixedGasLimit": false
    },
    {
      "hash": null,
      "transactionType": "CALL",
      "contractName": "TransparentUpgradeableProxy",
      "contractAddress": "0xb85a8fda7f5e52e32fa5582847cfffee9456a5dc",
      "function": null,
      "arguments": null,
      "transaction": {
        "from": "0x0990be6db8c785fbbf9ded8baec612a10cae814b",
        "to": "0xb85a8fda7f5e52e32fa5582847cfffee9456a5dc",
        "gas": "0x13a38",
        "value": "0x0",
        "input": "0x3400288b00000000000000000000000000000000000000000000000000000000000076230000000000000000000000001f55a02a049033e3419a8e2975cf3f572f4e6e9a",
        "nonce": "0x5a",
        "chainId": "0xfc"
      },
      "additionalContracts": [],
      "isFixedGasLimit": false
    },
    {
      "hash": null,
      "transactionType": "CALL",
      "contractName": "TransparentUpgradeableProxy",
      "contractAddress": "0xb85a8fda7f5e52e32fa5582847cfffee9456a5dc",
      "function": null,
      "arguments": null,
      "transaction": {
        "from": "0x0990be6db8c785fbbf9ded8baec612a10cae814b",
        "to": "0xb85a8fda7f5e52e32fa5582847cfffee9456a5dc",
        "gas": "0x13a38",
        "value": "0x0",
        "input": "0x3400288b00000000000000000000000000000000000000000000000000000000000075c70000000000000000000000001f55a02a049033e3419a8e2975cf3f572f4e6e9a",
        "nonce": "0x5b",
        "chainId": "0xfc"
      },
      "additionalContracts": [],
      "isFixedGasLimit": false
    },
    {
      "hash": null,
      "transactionType": "CALL",
      "contractName": "TransparentUpgradeableProxy",
      "contractAddress": "0xb85a8fda7f5e52e32fa5582847cfffee9456a5dc",
      "function": null,
      "arguments": null,
      "transaction": {
        "from": "0x0990be6db8c785fbbf9ded8baec612a10cae814b",
        "to": "0xb85a8fda7f5e52e32fa5582847cfffee9456a5dc",
        "gas": "0x13a38",
        "value": "0x0",
        "input": "0x3400288b00000000000000000000000000000000000000000000000000000000000075e80000000000000000000000001f55a02a049033e3419a8e2975cf3f572f4e6e9a",
        "nonce": "0x5c",
        "chainId": "0xfc"
      },
      "additionalContracts": [],
      "isFixedGasLimit": false
    },
    {
      "hash": null,
      "transactionType": "CALL",
      "contractName": "TransparentUpgradeableProxy",
      "contractAddress": "0xf6f45ccb5e85d1400067ee66f9e168f83e86124e",
      "function": null,
      "arguments": null,
      "transaction": {
        "from": "0x0990be6db8c785fbbf9ded8baec612a10cae814b",
        "to": "0xf6f45ccb5e85d1400067ee66f9e168f83e86124e",
        "gas": "0x128b1",
        "value": "0x0",
        "input": "0x3400288b0000000000000000000000000000000000000000000000000000000000007634000000000000000000000000f6f45ccb5e85d1400067ee66f9e168f83e86124e",
        "nonce": "0x5d",
        "chainId": "0xfc"
      },
      "additionalContracts": [],
      "isFixedGasLimit": false
    },
    {
      "hash": null,
      "transactionType": "CALL",
      "contractName": "TransparentUpgradeableProxy",
      "contractAddress": "0xf6f45ccb5e85d1400067ee66f9e168f83e86124e",
      "function": null,
      "arguments": null,
      "transaction": {
        "from": "0x0990be6db8c785fbbf9ded8baec612a10cae814b",
        "to": "0xf6f45ccb5e85d1400067ee66f9e168f83e86124e",
        "gas": "0x128b1",
        "value": "0x0",
        "input": "0x3400288b0000000000000000000000000000000000000000000000000000000000007648000000000000000000000000f6f45ccb5e85d1400067ee66f9e168f83e86124e",
        "nonce": "0x5e",
        "chainId": "0xfc"
      },
      "additionalContracts": [],
      "isFixedGasLimit": false
    },
    {
      "hash": null,
      "transactionType": "CALL",
      "contractName": "TransparentUpgradeableProxy",
      "contractAddress": "0xf6f45ccb5e85d1400067ee66f9e168f83e86124e",
      "function": null,
      "arguments": null,
      "transaction": {
        "from": "0x0990be6db8c785fbbf9ded8baec612a10cae814b",
        "to": "0xf6f45ccb5e85d1400067ee66f9e168f83e86124e",
        "gas": "0x128b1",
        "value": "0x0",
        "input": "0x3400288b0000000000000000000000000000000000000000000000000000000000007642000000000000000000000000f6f45ccb5e85d1400067ee66f9e168f83e86124e",
        "nonce": "0x5f",
        "chainId": "0xfc"
      },
      "additionalContracts": [],
      "isFixedGasLimit": false
    },
    {
      "hash": null,
      "transactionType": "CALL",
      "contractName": "TransparentUpgradeableProxy",
      "contractAddress": "0xb85a8fda7f5e52e32fa5582847cfffee9456a5dc",
      "function": null,
      "arguments": null,
      "transaction": {
        "from": "0x0990be6db8c785fbbf9ded8baec612a10cae814b",
        "to": "0xb85a8fda7f5e52e32fa5582847cfffee9456a5dc",
        "gas": "0x13a38",
        "value": "0x0",
        "input": "0x3400288b0000000000000000000000000000000000000000000000000000000000007634000000000000000000000000b85a8fda7f5e52e32fa5582847cfffee9456a5dc",
        "nonce": "0x60",
        "chainId": "0xfc"
      },
      "additionalContracts": [],
      "isFixedGasLimit": false
    },
    {
      "hash": null,
      "transactionType": "CALL",
      "contractName": "TransparentUpgradeableProxy",
      "contractAddress": "0xb85a8fda7f5e52e32fa5582847cfffee9456a5dc",
      "function": null,
      "arguments": null,
      "transaction": {
        "from": "0x0990be6db8c785fbbf9ded8baec612a10cae814b",
        "to": "0xb85a8fda7f5e52e32fa5582847cfffee9456a5dc",
        "gas": "0x13a38",
        "value": "0x0",
        "input": "0x3400288b0000000000000000000000000000000000000000000000000000000000007648000000000000000000000000b85a8fda7f5e52e32fa5582847cfffee9456a5dc",
        "nonce": "0x61",
        "chainId": "0xfc"
      },
      "additionalContracts": [],
      "isFixedGasLimit": false
    },
    {
      "hash": null,
      "transactionType": "CALL",
      "contractName": "TransparentUpgradeableProxy",
      "contractAddress": "0xb85a8fda7f5e52e32fa5582847cfffee9456a5dc",
      "function": null,
      "arguments": null,
      "transaction": {
        "from": "0x0990be6db8c785fbbf9ded8baec612a10cae814b",
        "to": "0xb85a8fda7f5e52e32fa5582847cfffee9456a5dc",
        "gas": "0x13a38",
        "value": "0x0",
        "input": "0x3400288b0000000000000000000000000000000000000000000000000000000000007642000000000000000000000000b85a8fda7f5e52e32fa5582847cfffee9456a5dc",
        "nonce": "0x62",
        "chainId": "0xfc"
      },
      "additionalContracts": [],
      "isFixedGasLimit": false
    },
    {
      "hash": null,
      "transactionType": "CALL",
      "contractName": "TransparentUpgradeableProxy",
      "contractAddress": "0xf6f45ccb5e85d1400067ee66f9e168f83e86124e",
      "function": null,
      "arguments": null,
      "transaction": {
        "from": "0x0990be6db8c785fbbf9ded8baec612a10cae814b",
        "to": "0xf6f45ccb5e85d1400067ee66f9e168f83e86124e",
        "gas": "0xdda2",
        "value": "0x0",
        "input": "0xca5eb5e10000000000000000000000005f25218ed9474b721d6a38c115107428e832fa2e",
        "nonce": "0x63",
        "chainId": "0xfc"
      },
      "additionalContracts": [],
      "isFixedGasLimit": false
    },
    {
      "hash": null,
      "transactionType": "CALL",
      "contractName": "TransparentUpgradeableProxy",
      "contractAddress": "0xf6f45ccb5e85d1400067ee66f9e168f83e86124e",
      "function": null,
      "arguments": null,
      "transaction": {
        "from": "0x0990be6db8c785fbbf9ded8baec612a10cae814b",
        "to": "0xf6f45ccb5e85d1400067ee66f9e168f83e86124e",
        "gas": "0xcd59",
        "value": "0x0",
        "input": "0xf2fde38b0000000000000000000000005f25218ed9474b721d6a38c115107428e832fa2e",
        "nonce": "0x64",
        "chainId": "0xfc"
      },
      "additionalContracts": [],
      "isFixedGasLimit": false
    },
    {
      "hash": null,
      "transactionType": "CALL",
      "contractName": "TransparentUpgradeableProxy",
      "contractAddress": "0xb85a8fda7f5e52e32fa5582847cfffee9456a5dc",
      "function": null,
      "arguments": null,
      "transaction": {
        "from": "0x0990be6db8c785fbbf9ded8baec612a10cae814b",
        "to": "0xb85a8fda7f5e52e32fa5582847cfffee9456a5dc",
        "gas": "0xdda2",
        "value": "0x0",
        "input": "0xca5eb5e10000000000000000000000005f25218ed9474b721d6a38c115107428e832fa2e",
        "nonce": "0x65",
        "chainId": "0xfc"
      },
      "additionalContracts": [],
      "isFixedGasLimit": false
    },
    {
      "hash": null,
      "transactionType": "CALL",
      "contractName": "TransparentUpgradeableProxy",
      "contractAddress": "0xb85a8fda7f5e52e32fa5582847cfffee9456a5dc",
      "function": null,
      "arguments": null,
      "transaction": {
        "from": "0x0990be6db8c785fbbf9ded8baec612a10cae814b",
        "to": "0xb85a8fda7f5e52e32fa5582847cfffee9456a5dc",
        "gas": "0xcd59",
        "value": "0x0",
        "input": "0xf2fde38b0000000000000000000000005f25218ed9474b721d6a38c115107428e832fa2e",
        "nonce": "0x66",
        "chainId": "0xfc"
      },
      "additionalContracts": [],
      "isFixedGasLimit": false
    }
  ],
  "receipts": [],
  "libraries": [],
  "pending": [],
  "returns": {},
  "timestamp": 1731692004,
  "chain": 252,
  "commit": "0a99b12"
}