{
  "transactions": [
    {
      "hash": "0xc7f2aaee259f2f940ef519b1432a5badbbbce608cee7370ae204f87fdcacf0b5",
      "transactionType": "CALL",
      "contractName": null,
      "contractAddress": "0x741f0d8bde14140f62107fc60a0ee122b37d4630",
      "function": "batchBridgeWithEthFeeFromWallet((uint32,bytes32,uint256,uint256,bytes,bytes,bytes)[],address[],address[])",
      "arguments": [
        "[(30255, 0x000000000000000000000000741f0d8bde14140f62107fc60a0ee122b37d4630, 10000000000000, 0, 0x, 0x, 0x), (30255, 0x000000000000000000000000741f0d8bde14140f62107fc60a0ee122b37d4630, 10000000000000, 0, 0x, 0x, 0x), (30255, 0x000000000000000000000000741f0d8bde14140f62107fc60a0ee122b37d4630, 10000000000000, 0, 0x, 0x, 0x), (30255, 0x000000000000000000000000741f0d8bde14140f62107fc60a0ee122b37d4630, 10000000000000, 0, 0x, 0x, 0x), (30255, 0x000000000000000000000000741f0d8bde14140f62107fc60a0ee122b37d4630, 10000000000000, 0, 0x, 0x, 0x), (30255, 0x000000000000000000000000741f0d8bde14140f62107fc60a0ee122b37d4630, 10000000000000, 0, 0x, 0x, 0x)]",
        "[0x80Eede496655FB9047dd39d9f418d5483ED600df, 0x5Bff88cA1442c2496f7E475E9e7786383Bc070c0, 0x43eDD7f3831b08FE70B7555ddD373C8bF65a9050, 0x3Ec3849C33291a9eF4c5dB86De593EB4A37fDe45, 0x64445f0aecC51E94aD52d8AC56b7190e764E561a, 0x90581eCa9469D8D7F5D3B60f4715027aDFCf7927]",
        "[0x741F0d8Bde14140f62107FC60A0EE122B37D4630, 0x741F0d8Bde14140f62107FC60A0EE122B37D4630, 0x741F0d8Bde14140f62107FC60A0EE122B37D4630, 0x741F0d8Bde14140f62107FC60A0EE122B37D4630, 0x741F0d8Bde14140f62107FC60A0EE122B37D4630, 0x741F0d8Bde14140f62107FC60A0EE122B37D4630]"
      ],
      "transaction": {
        "from": "0x45dce8e4f2dc005a5f28206a46cb034697eeda8e",
        "to": "0x741f0d8bde14140f62107fc60a0ee122b37d4630",
        "gas": "0x250a31",
        "value": "0x94b839300e3e",
        "input": "0xb70d4241000000000000000000000000000000000000000000000000000000000000006000000000000000000000000000000000000000000000000000000000000008c000000000000000000000000000000000000000000000000000000000000009a0000000000000000000000000000000000000000000000000000000000000000600000000000000000000000000000000000000000000000000000000000000c000000000000000000000000000000000000000000000000000000000000002000000000000000000000000000000000000000000000000000000000000000340000000000000000000000000000000000000000000000000000000000000048000000000000000000000000000000000000000000000000000000000000005c00000000000000000000000000000000000000000000000000000000000000700000000000000000000000000000000000000000000000000000000000000762f000000000000000000000000741f0d8bde14140f62107fc60a0ee122b37d4630000000000000000000000000000000000000000000000000000009184e72a000000000000000000000000000000000000000000000000000000000000000000000000000000000000000000000000000000000000000000000000000000000e000000000000000000000000000000000000000000000000000000000000001000000000000000000000000000000000000000000000000000000000000000120000000000000000000000000000000000000000000000000000000000000000000000000000000000000000000000000000000000000000000000000000000000000000000000000000000000000000000000000000000000000000000000000000000000000000000000000000000000000000000000000000000000000762f000000000000000000000000741f0d8bde14140f62107fc60a0ee122b37d4630000000000000000000000000000000000000000000000000000009184e72a000000000000000000000000000000000000000000000000000000000000000000000000000000000000000000000000000000000000000000000000000000000e000000000000000000000000000000000000000000000000000000000000001000000000000000000000000000000000000000000000000000000000000000120000000000000000000000000000000000000000000000000000000000000000000000000000000000000000000000000000000000000000000000000000000000000000000000000000000000000000000000000000000000000000000000000000000000000000000000000000000000000000000000000000000000000762f000000000000000000000000741f0d8bde14140f62107fc60a0ee122b37d4630000000000000000000000000000000000000000000000000000009184e72a000000000000000000000000000000000000000000000000000000000000000000000000000000000000000000000000000000000000000000000000000000000e000000000000000000000000000000000000000000000000000000000000001000000000000000000000000000000000000000000000000000000000000000120000000000000000000000000000000000000000000000000000000000000000000000000000000000000000000000000000000000000000000000000000000000000000000000000000000000000000000000000000000000000000000000000000000000000000000000000000000000000000000000000000000000000762f000000000000000000000000741f0d8bde14140f62107fc60a0ee122b37d4630000000000000000000000000000000000000000000000000000009184e72a000000000000000000000000000000000000000000000000000000000000000000000000000000000000000000000000000000000000000000000000000000000e000000000000000000000000000000000000000000000000000000000000001000000000000000000000000000000000000000000000000000000000000000120000000000000000000000000000000000000000000000000000000000000000000000000000000000000000000000000000000000000000000000000000000000000000000000000000000000000000000000000000000000000000000000000000000000000000000000000000000000000000000000000000000000000762f000000000000000000000000741f0d8bde14140f62107fc60a0ee122b37d4630000000000000000000000000000000000000000000000000000009184e72a000000000000000000000000000000000000000000000000000000000000000000000000000000000000000000000000000000000000000000000000000000000e000000000000000000000000000000000000000000000000000000000000001000000000000000000000000000000000000000000000000000000000000000120000000000000000000000000000000000000000000000000000000000000000000000000000000000000000000000000000000000000000000000000000000000000000000000000000000000000000000000000000000000000000000000000000000000000000000000000000000000000000000000000000000000000762f000000000000000000000000741f0d8bde14140f62107fc60a0ee122b37d4630000000000000000000000000000000000000000000000000000009184e72a000000000000000000000000000000000000000000000000000000000000000000000000000000000000000000000000000000000000000000000000000000000e000000000000000000000000000000000000000000000000000000000000001000000000000000000000000000000000000000000000000000000000000000120000000000000000000000000000000000000000000000000000000000000000000000000000000000000000000000000000000000000000000000000000000000000000000000000000000000000000000000000000000000000000000000000000000000000000000000000000000000000000000000000000000000000000600000000000000000000000080eede496655fb9047dd39d9f418d5483ed600df0000000000000000000000005bff88ca1442c2496f7e475e9e7786383bc070c000000000000000000000000043edd7f3831b08fe70b7555ddd373c8bf65a90500000000000000000000000003ec3849c33291a9ef4c5db86de593eb4a37fde4500000000000000000000000064445f0aecc51e94ad52d8ac56b7190e764e561a00000000000000000000000090581eca9469d8d7f5d3b60f4715027adfcf79270000000000000000000000000000000000000000000000000000000000000006000000000000000000000000741f0d8bde14140f62107fc60a0ee122b37d4630000000000000000000000000741f0d8bde14140f62107fc60a0ee122b37d4630000000000000000000000000741f0d8bde14140f62107fc60a0ee122b37d4630000000000000000000000000741f0d8bde14140f62107fc60a0ee122b37d4630000000000000000000000000741f0d8bde14140f62107fc60a0ee122b37d4630000000000000000000000000741f0d8bde14140f62107fc60a0ee122b37d4630",
        "nonce": "0x7e",
        "chainId": "0xb67d2"
      },
      "additionalContracts": [],
      "isFixedGasLimit": false
    }
  ],
  "receipts": [
    {
      "status": "0x1",
      "cumulativeGasUsed": "0x1b8584",
      "logs": [
        {
          "address": "0x80eede496655fb9047dd39d9f418d5483ed600df",
          "topics": [
            "0xddf252ad1be2c89b69c2b068fc378daa952ba7f163c4a11628f55a4df523b3ef",
            "0x000000000000000000000000741f0d8bde14140f62107fc60a0ee122b37d4630",
            "0x0000000000000000000000000000000000000000000000000000000000000000"
          ],
          "data": "0x000000000000000000000000000000000000000000000000000009184e72a000",
          "blockHash": "0x2c91a5c360359593e53becfc1af6231b69527f4f53478afb1333fc264db8fddb",
          "blockNumber": "0x6ed8b0",
          "transactionHash": "0xc7f2aaee259f2f940ef519b1432a5badbbbce608cee7370ae204f87fdcacf0b5",
          "transactionIndex": "0x1",
          "logIndex": "0x0",
          "removed": false
        },
        {
          "address": "0xc39161c743d0307eb9bcc9fef03eeb9dc4802de7",
          "topics": [
            "0x61ed099e74a97a1d7f8bb0952a88ca8b7b8ebd00c126ea04671f92a81213318a"
          ],
          "data": "0x0000000000000000000000004208d6e27538189bb48e603d6123a94b8abe0a0b0000000000000000000000000000000000000000000000000000069cafd1e968",
          "blockHash": "0x2c91a5c360359593e53becfc1af6231b69527f4f53478afb1333fc264db8fddb",
          "blockNumber": "0x6ed8b0",
          "transactionHash": "0xc7f2aaee259f2f940ef519b1432a5badbbbce608cee7370ae204f87fdcacf0b5",
          "transactionIndex": "0x1",
          "logIndex": "0x1",
          "removed": false
        },
        {
          "address": "0xc39161c743d0307eb9bcc9fef03eeb9dc4802de7",
          "topics": [
            "0x07ea52d82345d6e838192107d8fd7123d9c2ec8e916cd0aad13fd2b60db24644"
          ],
          "data": "0x000000000000000000000000000000000000000000000000000000000000006000000000000000000000000000000000000000000000000000000000000000e000000000000000000000000000000000000000000000000000000000000001000000000000000000000000000000000000000000000000000000000000000003000000000000000000000000282b3386571f7f794450d5789911a9804fa346b40000000000000000000000005fa12ebc08e183c1f5d44678cf897edefe68738b000000000000000000000000acde1f22eeab249d3ca6ba8805c8fee9f52a16e7000000000000000000000000000000000000000000000000000000000000000000000000000000000000000000000000000000000000000000000000000000030000000000000000000000000000000000000000000000000000063081af0d5f0000000000000000000000000000000000000000000000000000063081af0d5f000000000000000000000000000000000000000000000000000005cbabad538f",
          "blockHash": "0x2c91a5c360359593e53becfc1af6231b69527f4f53478afb1333fc264db8fddb",
          "blockNumber": "0x6ed8b0",
          "transactionHash": "0xc7f2aaee259f2f940ef519b1432a5badbbbce608cee7370ae204f87fdcacf0b5",
          "transactionIndex": "0x1",
          "logIndex": "0x2",
          "removed": false
        },
        {
          "address": "0x6f475642a6e85809b1c36fa62763669b1b48dd5b",
          "topics": [
            "0x1ab700d4ced0c005b164c0f789fd09fcbb0156d4c2041b8a3bfbcd961cd1567f"
          ],
          "data": "0x00000000000000000000000000000000000000000000000000000000000000600000000000000000000000000000000000000000000000000000000000000120000000000000000000000000c39161c743d0307eb9bcc9fef03eeb9dc4802de70000000000000000000000000000000000000000000000000000000000000099010000000000000001000076a700000000000000000000000080eede496655fb9047dd39d9f418d5483ed600df0000762f00000000000000000000000096a394058e2b84a89bac9667b19661ed003cf5d49b8e17b0eb526f0eba23cb2a9451ff992f7f8cb2a47a2bc280472b932f8e9006000000000000000000000000741f0d8bde14140f62107fc60a0ee122b37d4630000000000000000a00000000000000000000000000000000000000000000000000000000000000000000000000001600030100110100000000000000000000000000030d4000000000000000000000",
          "blockHash": "0x2c91a5c360359593e53becfc1af6231b69527f4f53478afb1333fc264db8fddb",
          "blockNumber": "0x6ed8b0",
          "transactionHash": "0xc7f2aaee259f2f940ef519b1432a5badbbbce608cee7370ae204f87fdcacf0b5",
          "transactionIndex": "0x1",
          "logIndex": "0x3",
          "removed": false
        },
        {
          "address": "0x80eede496655fb9047dd39d9f418d5483ed600df",
          "topics": [
            "0x85496b760a4b7f8d66384b9df21b381f5d1b1e79f229a47aaf4c232edc2fe59a",
            "0x9b8e17b0eb526f0eba23cb2a9451ff992f7f8cb2a47a2bc280472b932f8e9006",
            "0x000000000000000000000000741f0d8bde14140f62107fc60a0ee122b37d4630"
          ],
          "data": "0x000000000000000000000000000000000000000000000000000000000000762f000000000000000000000000000000000000000000000000000009184e72a000000000000000000000000000000000000000000000000000000009184e72a000",
          "blockHash": "0x2c91a5c360359593e53becfc1af6231b69527f4f53478afb1333fc264db8fddb",
          "blockNumber": "0x6ed8b0",
          "transactionHash": "0xc7f2aaee259f2f940ef519b1432a5badbbbce608cee7370ae204f87fdcacf0b5",
          "transactionIndex": "0x1",
          "logIndex": "0x4",
          "removed": false
        },
        {
          "address": "0x5bff88ca1442c2496f7e475e9e7786383bc070c0",
          "topics": [
            "0xddf252ad1be2c89b69c2b068fc378daa952ba7f163c4a11628f55a4df523b3ef",
            "0x000000000000000000000000741f0d8bde14140f62107fc60a0ee122b37d4630",
            "0x0000000000000000000000000000000000000000000000000000000000000000"
          ],
          "data": "0x000000000000000000000000000000000000000000000000000009184e72a000",
          "blockHash": "0x2c91a5c360359593e53becfc1af6231b69527f4f53478afb1333fc264db8fddb",
          "blockNumber": "0x6ed8b0",
          "transactionHash": "0xc7f2aaee259f2f940ef519b1432a5badbbbce608cee7370ae204f87fdcacf0b5",
          "transactionIndex": "0x1",
          "logIndex": "0x5",
          "removed": false
        },
        {
          "address": "0xc39161c743d0307eb9bcc9fef03eeb9dc4802de7",
          "topics": [
            "0x61ed099e74a97a1d7f8bb0952a88ca8b7b8ebd00c126ea04671f92a81213318a"
          ],
          "data": "0x0000000000000000000000004208d6e27538189bb48e603d6123a94b8abe0a0b0000000000000000000000000000000000000000000000000000069cafd1e968",
          "blockHash": "0x2c91a5c360359593e53becfc1af6231b69527f4f53478afb1333fc264db8fddb",
          "blockNumber": "0x6ed8b0",
          "transactionHash": "0xc7f2aaee259f2f940ef519b1432a5badbbbce608cee7370ae204f87fdcacf0b5",
          "transactionIndex": "0x1",
          "logIndex": "0x6",
          "removed": false
        },
        {
          "address": "0xc39161c743d0307eb9bcc9fef03eeb9dc4802de7",
          "topics": [
            "0x07ea52d82345d6e838192107d8fd7123d9c2ec8e916cd0aad13fd2b60db24644"
          ],
          "data": "0x000000000000000000000000000000000000000000000000000000000000006000000000000000000000000000000000000000000000000000000000000000e000000000000000000000000000000000000000000000000000000000000001000000000000000000000000000000000000000000000000000000000000000003000000000000000000000000282b3386571f7f794450d5789911a9804fa346b40000000000000000000000005fa12ebc08e183c1f5d44678cf897edefe68738b000000000000000000000000acde1f22eeab249d3ca6ba8805c8fee9f52a16e7000000000000000000000000000000000000000000000000000000000000000000000000000000000000000000000000000000000000000000000000000000030000000000000000000000000000000000000000000000000000063081af0d5f0000000000000000000000000000000000000000000000000000063081af0d5f000000000000000000000000000000000000000000000000000005cbabad538f",
          "blockHash": "0x2c91a5c360359593e53becfc1af6231b69527f4f53478afb1333fc264db8fddb",
          "blockNumber": "0x6ed8b0",
          "transactionHash": "0xc7f2aaee259f2f940ef519b1432a5badbbbce608cee7370ae204f87fdcacf0b5",
          "transactionIndex": "0x1",
          "logIndex": "0x7",
          "removed": false
        },
        {
          "address": "0x6f475642a6e85809b1c36fa62763669b1b48dd5b",
          "topics": [
            "0x1ab700d4ced0c005b164c0f789fd09fcbb0156d4c2041b8a3bfbcd961cd1567f"
          ],
          "data": "0x00000000000000000000000000000000000000000000000000000000000000600000000000000000000000000000000000000000000000000000000000000120000000000000000000000000c39161c743d0307eb9bcc9fef03eeb9dc4802de70000000000000000000000000000000000000000000000000000000000000099010000000000000001000076a70000000000000000000000005bff88ca1442c2496f7e475e9e7786383bc070c00000762f00000000000000000000000088aa7854d3b2daa5e37e7ce73a1f39669623a361b990be3f809fb0d881f100817569b8eb8ea5b51c0b14d56dfd602b18ff485443000000000000000000000000741f0d8bde14140f62107fc60a0ee122b37d4630000000000000000a00000000000000000000000000000000000000000000000000000000000000000000000000001600030100110100000000000000000000000000030d4000000000000000000000",
          "blockHash": "0x2c91a5c360359593e53becfc1af6231b69527f4f53478afb1333fc264db8fddb",
          "blockNumber": "0x6ed8b0",
          "transactionHash": "0xc7f2aaee259f2f940ef519b1432a5badbbbce608cee7370ae204f87fdcacf0b5",
          "transactionIndex": "0x1",
          "logIndex": "0x8",
          "removed": false
        },
        {
          "address": "0x5bff88ca1442c2496f7e475e9e7786383bc070c0",
          "topics": [
            "0x85496b760a4b7f8d66384b9df21b381f5d1b1e79f229a47aaf4c232edc2fe59a",
            "0xb990be3f809fb0d881f100817569b8eb8ea5b51c0b14d56dfd602b18ff485443",
            "0x000000000000000000000000741f0d8bde14140f62107fc60a0ee122b37d4630"
          ],
          "data": "0x000000000000000000000000000000000000000000000000000000000000762f000000000000000000000000000000000000000000000000000009184e72a000000000000000000000000000000000000000000000000000000009184e72a000",
          "blockHash": "0x2c91a5c360359593e53becfc1af6231b69527f4f53478afb1333fc264db8fddb",
          "blockNumber": "0x6ed8b0",
          "transactionHash": "0xc7f2aaee259f2f940ef519b1432a5badbbbce608cee7370ae204f87fdcacf0b5",
          "transactionIndex": "0x1",
          "logIndex": "0x9",
          "removed": false
        },
        {
          "address": "0x43edd7f3831b08fe70b7555ddd373c8bf65a9050",
          "topics": [
            "0xddf252ad1be2c89b69c2b068fc378daa952ba7f163c4a11628f55a4df523b3ef",
            "0x000000000000000000000000741f0d8bde14140f62107fc60a0ee122b37d4630",
            "0x0000000000000000000000000000000000000000000000000000000000000000"
          ],
          "data": "0x000000000000000000000000000000000000000000000000000009184e72a000",
          "blockHash": "0x2c91a5c360359593e53becfc1af6231b69527f4f53478afb1333fc264db8fddb",
          "blockNumber": "0x6ed8b0",
          "transactionHash": "0xc7f2aaee259f2f940ef519b1432a5badbbbce608cee7370ae204f87fdcacf0b5",
          "transactionIndex": "0x1",
          "logIndex": "0xa",
          "removed": false
        },
        {
          "address": "0xc39161c743d0307eb9bcc9fef03eeb9dc4802de7",
          "topics": [
            "0x61ed099e74a97a1d7f8bb0952a88ca8b7b8ebd00c126ea04671f92a81213318a"
          ],
          "data": "0x0000000000000000000000004208d6e27538189bb48e603d6123a94b8abe0a0b0000000000000000000000000000000000000000000000000000069cafd1e968",
          "blockHash": "0x2c91a5c360359593e53becfc1af6231b69527f4f53478afb1333fc264db8fddb",
          "blockNumber": "0x6ed8b0",
          "transactionHash": "0xc7f2aaee259f2f940ef519b1432a5badbbbce608cee7370ae204f87fdcacf0b5",
          "transactionIndex": "0x1",
          "logIndex": "0xb",
          "removed": false
        },
        {
          "address": "0xc39161c743d0307eb9bcc9fef03eeb9dc4802de7",
          "topics": [
            "0x07ea52d82345d6e838192107d8fd7123d9c2ec8e916cd0aad13fd2b60db24644"
          ],
          "data": "0x000000000000000000000000000000000000000000000000000000000000006000000000000000000000000000000000000000000000000000000000000000e000000000000000000000000000000000000000000000000000000000000001000000000000000000000000000000000000000000000000000000000000000003000000000000000000000000282b3386571f7f794450d5789911a9804fa346b40000000000000000000000005fa12ebc08e183c1f5d44678cf897edefe68738b000000000000000000000000acde1f22eeab249d3ca6ba8805c8fee9f52a16e7000000000000000000000000000000000000000000000000000000000000000000000000000000000000000000000000000000000000000000000000000000030000000000000000000000000000000000000000000000000000063081af0d5f0000000000000000000000000000000000000000000000000000063081af0d5f000000000000000000000000000000000000000000000000000005cbabad538f",
          "blockHash": "0x2c91a5c360359593e53becfc1af6231b69527f4f53478afb1333fc264db8fddb",
          "blockNumber": "0x6ed8b0",
          "transactionHash": "0xc7f2aaee259f2f940ef519b1432a5badbbbce608cee7370ae204f87fdcacf0b5",
          "transactionIndex": "0x1",
          "logIndex": "0xc",
          "removed": false
        },
        {
          "address": "0x6f475642a6e85809b1c36fa62763669b1b48dd5b",
          "topics": [
            "0x1ab700d4ced0c005b164c0f789fd09fcbb0156d4c2041b8a3bfbcd961cd1567f"
          ],
          "data": "0x00000000000000000000000000000000000000000000000000000000000000600000000000000000000000000000000000000000000000000000000000000120000000000000000000000000c39161c743d0307eb9bcc9fef03eeb9dc4802de70000000000000000000000000000000000000000000000000000000000000099010000000000000001000076a700000000000000000000000043edd7f3831b08fe70b7555ddd373c8bf65a90500000762f0000000000000000000000009abfe1f8a999b0011ecd6116649aee8d575f56042eb4ae3aee54628c138bbb81d90188cb8732d9424d5231e57ffbf5c7288ad50e000000000000000000000000741f0d8bde14140f62107fc60a0ee122b37d4630000000000000000a00000000000000000000000000000000000000000000000000000000000000000000000000001600030100110100000000000000000000000000030d4000000000000000000000",
          "blockHash": "0x2c91a5c360359593e53becfc1af6231b69527f4f53478afb1333fc264db8fddb",
          "blockNumber": "0x6ed8b0",
          "transactionHash": "0xc7f2aaee259f2f940ef519b1432a5badbbbce608cee7370ae204f87fdcacf0b5",
          "transactionIndex": "0x1",
          "logIndex": "0xd",
          "removed": false
        },
        {
          "address": "0x43edd7f3831b08fe70b7555ddd373c8bf65a9050",
          "topics": [
            "0x85496b760a4b7f8d66384b9df21b381f5d1b1e79f229a47aaf4c232edc2fe59a",
            "0x2eb4ae3aee54628c138bbb81d90188cb8732d9424d5231e57ffbf5c7288ad50e",
            "0x000000000000000000000000741f0d8bde14140f62107fc60a0ee122b37d4630"
          ],
          "data": "0x000000000000000000000000000000000000000000000000000000000000762f000000000000000000000000000000000000000000000000000009184e72a000000000000000000000000000000000000000000000000000000009184e72a000",
          "blockHash": "0x2c91a5c360359593e53becfc1af6231b69527f4f53478afb1333fc264db8fddb",
          "blockNumber": "0x6ed8b0",
          "transactionHash": "0xc7f2aaee259f2f940ef519b1432a5badbbbce608cee7370ae204f87fdcacf0b5",
          "transactionIndex": "0x1",
          "logIndex": "0xe",
          "removed": false
        },
        {
          "address": "0x3ec3849c33291a9ef4c5db86de593eb4a37fde45",
          "topics": [
            "0xddf252ad1be2c89b69c2b068fc378daa952ba7f163c4a11628f55a4df523b3ef",
            "0x000000000000000000000000741f0d8bde14140f62107fc60a0ee122b37d4630",
            "0x0000000000000000000000000000000000000000000000000000000000000000"
          ],
          "data": "0x000000000000000000000000000000000000000000000000000009184e72a000",
          "blockHash": "0x2c91a5c360359593e53becfc1af6231b69527f4f53478afb1333fc264db8fddb",
          "blockNumber": "0x6ed8b0",
          "transactionHash": "0xc7f2aaee259f2f940ef519b1432a5badbbbce608cee7370ae204f87fdcacf0b5",
          "transactionIndex": "0x1",
          "logIndex": "0xf",
          "removed": false
        },
        {
          "address": "0xc39161c743d0307eb9bcc9fef03eeb9dc4802de7",
          "topics": [
            "0x61ed099e74a97a1d7f8bb0952a88ca8b7b8ebd00c126ea04671f92a81213318a"
          ],
          "data": "0x0000000000000000000000004208d6e27538189bb48e603d6123a94b8abe0a0b0000000000000000000000000000000000000000000000000000069cafd1e968",
          "blockHash": "0x2c91a5c360359593e53becfc1af6231b69527f4f53478afb1333fc264db8fddb",
          "blockNumber": "0x6ed8b0",
          "transactionHash": "0xc7f2aaee259f2f940ef519b1432a5badbbbce608cee7370ae204f87fdcacf0b5",
          "transactionIndex": "0x1",
          "logIndex": "0x10",
          "removed": false
        },
        {
          "address": "0xc39161c743d0307eb9bcc9fef03eeb9dc4802de7",
          "topics": [
            "0x07ea52d82345d6e838192107d8fd7123d9c2ec8e916cd0aad13fd2b60db24644"
          ],
          "data": "0x000000000000000000000000000000000000000000000000000000000000006000000000000000000000000000000000000000000000000000000000000000e000000000000000000000000000000000000000000000000000000000000001000000000000000000000000000000000000000000000000000000000000000003000000000000000000000000282b3386571f7f794450d5789911a9804fa346b40000000000000000000000005fa12ebc08e183c1f5d44678cf897edefe68738b000000000000000000000000acde1f22eeab249d3ca6ba8805c8fee9f52a16e7000000000000000000000000000000000000000000000000000000000000000000000000000000000000000000000000000000000000000000000000000000030000000000000000000000000000000000000000000000000000063081af0d5f0000000000000000000000000000000000000000000000000000063081af0d5f000000000000000000000000000000000000000000000000000005cbabad538f",
          "blockHash": "0x2c91a5c360359593e53becfc1af6231b69527f4f53478afb1333fc264db8fddb",
          "blockNumber": "0x6ed8b0",
          "transactionHash": "0xc7f2aaee259f2f940ef519b1432a5badbbbce608cee7370ae204f87fdcacf0b5",
          "transactionIndex": "0x1",
          "logIndex": "0x11",
          "removed": false
        },
        {
          "address": "0x6f475642a6e85809b1c36fa62763669b1b48dd5b",
          "topics": [
            "0x1ab700d4ced0c005b164c0f789fd09fcbb0156d4c2041b8a3bfbcd961cd1567f"
          ],
          "data": "0x00000000000000000000000000000000000000000000000000000000000000600000000000000000000000000000000000000000000000000000000000000120000000000000000000000000c39161c743d0307eb9bcc9fef03eeb9dc4802de70000000000000000000000000000000000000000000000000000000000000099010000000000000001000076a70000000000000000000000003ec3849c33291a9ef4c5db86de593eb4a37fde450000762f000000000000000000000000999dfabe3b1cc2ef66eb032eea42fea329bba168c4b202501cd5da85624459f2b040a51cacec1252bd25931470385907f69df30b000000000000000000000000741f0d8bde14140f62107fc60a0ee122b37d4630000000000000000a00000000000000000000000000000000000000000000000000000000000000000000000000001600030100110100000000000000000000000000030d4000000000000000000000",
          "blockHash": "0x2c91a5c360359593e53becfc1af6231b69527f4f53478afb1333fc264db8fddb",
          "blockNumber": "0x6ed8b0",
          "transactionHash": "0xc7f2aaee259f2f940ef519b1432a5badbbbce608cee7370ae204f87fdcacf0b5",
          "transactionIndex": "0x1",
          "logIndex": "0x12",
          "removed": false
        },
        {
          "address": "0x3ec3849c33291a9ef4c5db86de593eb4a37fde45",
          "topics": [
            "0x85496b760a4b7f8d66384b9df21b381f5d1b1e79f229a47aaf4c232edc2fe59a",
            "0xc4b202501cd5da85624459f2b040a51cacec1252bd25931470385907f69df30b",
            "0x000000000000000000000000741f0d8bde14140f62107fc60a0ee122b37d4630"
          ],
          "data": "0x000000000000000000000000000000000000000000000000000000000000762f000000000000000000000000000000000000000000000000000009184e72a000000000000000000000000000000000000000000000000000000009184e72a000",
          "blockHash": "0x2c91a5c360359593e53becfc1af6231b69527f4f53478afb1333fc264db8fddb",
          "blockNumber": "0x6ed8b0",
          "transactionHash": "0xc7f2aaee259f2f940ef519b1432a5badbbbce608cee7370ae204f87fdcacf0b5",
          "transactionIndex": "0x1",
          "logIndex": "0x13",
          "removed": false
        },
        {
          "address": "0x64445f0aecc51e94ad52d8ac56b7190e764e561a",
          "topics": [
            "0xddf252ad1be2c89b69c2b068fc378daa952ba7f163c4a11628f55a4df523b3ef",
            "0x000000000000000000000000741f0d8bde14140f62107fc60a0ee122b37d4630",
            "0x0000000000000000000000000000000000000000000000000000000000000000"
          ],
          "data": "0x000000000000000000000000000000000000000000000000000009184e72a000",
          "blockHash": "0x2c91a5c360359593e53becfc1af6231b69527f4f53478afb1333fc264db8fddb",
          "blockNumber": "0x6ed8b0",
          "transactionHash": "0xc7f2aaee259f2f940ef519b1432a5badbbbce608cee7370ae204f87fdcacf0b5",
          "transactionIndex": "0x1",
          "logIndex": "0x14",
          "removed": false
        },
        {
          "address": "0xc39161c743d0307eb9bcc9fef03eeb9dc4802de7",
          "topics": [
            "0x61ed099e74a97a1d7f8bb0952a88ca8b7b8ebd00c126ea04671f92a81213318a"
          ],
          "data": "0x0000000000000000000000004208d6e27538189bb48e603d6123a94b8abe0a0b0000000000000000000000000000000000000000000000000000069cafd1e968",
          "blockHash": "0x2c91a5c360359593e53becfc1af6231b69527f4f53478afb1333fc264db8fddb",
          "blockNumber": "0x6ed8b0",
          "transactionHash": "0xc7f2aaee259f2f940ef519b1432a5badbbbce608cee7370ae204f87fdcacf0b5",
          "transactionIndex": "0x1",
          "logIndex": "0x15",
          "removed": false
        },
        {
          "address": "0xc39161c743d0307eb9bcc9fef03eeb9dc4802de7",
          "topics": [
            "0x07ea52d82345d6e838192107d8fd7123d9c2ec8e916cd0aad13fd2b60db24644"
          ],
          "data": "0x000000000000000000000000000000000000000000000000000000000000006000000000000000000000000000000000000000000000000000000000000000e000000000000000000000000000000000000000000000000000000000000001000000000000000000000000000000000000000000000000000000000000000003000000000000000000000000282b3386571f7f794450d5789911a9804fa346b40000000000000000000000005fa12ebc08e183c1f5d44678cf897edefe68738b000000000000000000000000acde1f22eeab249d3ca6ba8805c8fee9f52a16e7000000000000000000000000000000000000000000000000000000000000000000000000000000000000000000000000000000000000000000000000000000030000000000000000000000000000000000000000000000000000063081af0d5f0000000000000000000000000000000000000000000000000000063081af0d5f000000000000000000000000000000000000000000000000000005cbabad538f",
          "blockHash": "0x2c91a5c360359593e53becfc1af6231b69527f4f53478afb1333fc264db8fddb",
          "blockNumber": "0x6ed8b0",
          "transactionHash": "0xc7f2aaee259f2f940ef519b1432a5badbbbce608cee7370ae204f87fdcacf0b5",
          "transactionIndex": "0x1",
          "logIndex": "0x16",
          "removed": false
        },
        {
          "address": "0x6f475642a6e85809b1c36fa62763669b1b48dd5b",
          "topics": [
            "0x1ab700d4ced0c005b164c0f789fd09fcbb0156d4c2041b8a3bfbcd961cd1567f"
          ],
          "data": "0x00000000000000000000000000000000000000000000000000000000000000600000000000000000000000000000000000000000000000000000000000000120000000000000000000000000c39161c743d0307eb9bcc9fef03eeb9dc4802de70000000000000000000000000000000000000000000000000000000000000099010000000000000001000076a700000000000000000000000064445f0aecc51e94ad52d8ac56b7190e764e561a0000762f000000000000000000000000d86fbbd0c8715d2c1f40e451e5c3514e65e7576a10b2f41ef7953094876536652f9c7ddd297eb3d36017df98b37f5f90dec82ecc000000000000000000000000741f0d8bde14140f62107fc60a0ee122b37d4630000000000000000a00000000000000000000000000000000000000000000000000000000000000000000000000001600030100110100000000000000000000000000030d4000000000000000000000",
          "blockHash": "0x2c91a5c360359593e53becfc1af6231b69527f4f53478afb1333fc264db8fddb",
          "blockNumber": "0x6ed8b0",
          "transactionHash": "0xc7f2aaee259f2f940ef519b1432a5badbbbce608cee7370ae204f87fdcacf0b5",
          "transactionIndex": "0x1",
          "logIndex": "0x17",
          "removed": false
        },
        {
          "address": "0x64445f0aecc51e94ad52d8ac56b7190e764e561a",
          "topics": [
            "0x85496b760a4b7f8d66384b9df21b381f5d1b1e79f229a47aaf4c232edc2fe59a",
            "0x10b2f41ef7953094876536652f9c7ddd297eb3d36017df98b37f5f90dec82ecc",
            "0x000000000000000000000000741f0d8bde14140f62107fc60a0ee122b37d4630"
          ],
          "data": "0x000000000000000000000000000000000000000000000000000000000000762f000000000000000000000000000000000000000000000000000009184e72a000000000000000000000000000000000000000000000000000000009184e72a000",
          "blockHash": "0x2c91a5c360359593e53becfc1af6231b69527f4f53478afb1333fc264db8fddb",
          "blockNumber": "0x6ed8b0",
          "transactionHash": "0xc7f2aaee259f2f940ef519b1432a5badbbbce608cee7370ae204f87fdcacf0b5",
          "transactionIndex": "0x1",
          "logIndex": "0x18",
          "removed": false
        },
        {
          "address": "0x90581eca9469d8d7f5d3b60f4715027adfcf7927",
          "topics": [
            "0xddf252ad1be2c89b69c2b068fc378daa952ba7f163c4a11628f55a4df523b3ef",
            "0x000000000000000000000000741f0d8bde14140f62107fc60a0ee122b37d4630",
            "0x0000000000000000000000000000000000000000000000000000000000000000"
          ],
          "data": "0x000000000000000000000000000000000000000000000000000009184e72a000",
          "blockHash": "0x2c91a5c360359593e53becfc1af6231b69527f4f53478afb1333fc264db8fddb",
          "blockNumber": "0x6ed8b0",
          "transactionHash": "0xc7f2aaee259f2f940ef519b1432a5badbbbce608cee7370ae204f87fdcacf0b5",
          "transactionIndex": "0x1",
          "logIndex": "0x19",
          "removed": false
        },
        {
          "address": "0xc39161c743d0307eb9bcc9fef03eeb9dc4802de7",
          "topics": [
            "0x61ed099e74a97a1d7f8bb0952a88ca8b7b8ebd00c126ea04671f92a81213318a"
          ],
          "data": "0x0000000000000000000000004208d6e27538189bb48e603d6123a94b8abe0a0b0000000000000000000000000000000000000000000000000000069cafd1e968",
          "blockHash": "0x2c91a5c360359593e53becfc1af6231b69527f4f53478afb1333fc264db8fddb",
          "blockNumber": "0x6ed8b0",
          "transactionHash": "0xc7f2aaee259f2f940ef519b1432a5badbbbce608cee7370ae204f87fdcacf0b5",
          "transactionIndex": "0x1",
          "logIndex": "0x1a",
          "removed": false
        },
        {
          "address": "0xc39161c743d0307eb9bcc9fef03eeb9dc4802de7",
          "topics": [
            "0x07ea52d82345d6e838192107d8fd7123d9c2ec8e916cd0aad13fd2b60db24644"
          ],
          "data": "0x000000000000000000000000000000000000000000000000000000000000006000000000000000000000000000000000000000000000000000000000000000e000000000000000000000000000000000000000000000000000000000000001000000000000000000000000000000000000000000000000000000000000000003000000000000000000000000282b3386571f7f794450d5789911a9804fa346b40000000000000000000000005fa12ebc08e183c1f5d44678cf897edefe68738b000000000000000000000000acde1f22eeab249d3ca6ba8805c8fee9f52a16e7000000000000000000000000000000000000000000000000000000000000000000000000000000000000000000000000000000000000000000000000000000030000000000000000000000000000000000000000000000000000063081af0d5f0000000000000000000000000000000000000000000000000000063081af0d5f000000000000000000000000000000000000000000000000000005cbabad538f",
          "blockHash": "0x2c91a5c360359593e53becfc1af6231b69527f4f53478afb1333fc264db8fddb",
          "blockNumber": "0x6ed8b0",
          "transactionHash": "0xc7f2aaee259f2f940ef519b1432a5badbbbce608cee7370ae204f87fdcacf0b5",
          "transactionIndex": "0x1",
          "logIndex": "0x1b",
          "removed": false
        },
        {
          "address": "0x6f475642a6e85809b1c36fa62763669b1b48dd5b",
          "topics": [
            "0x1ab700d4ced0c005b164c0f789fd09fcbb0156d4c2041b8a3bfbcd961cd1567f"
          ],
          "data": "0x00000000000000000000000000000000000000000000000000000000000000600000000000000000000000000000000000000000000000000000000000000120000000000000000000000000c39161c743d0307eb9bcc9fef03eeb9dc4802de70000000000000000000000000000000000000000000000000000000000000099010000000000000001000076a700000000000000000000000090581eca9469d8d7f5d3b60f4715027adfcf79270000762f00000000000000000000000075c38d46001b0f8108c4136216bd2694982c20fc80ffe50cbe9b69cf2ff729b63425afbf45c69eac8cd3de796dfe420696a8eaa4000000000000000000000000741f0d8bde14140f62107fc60a0ee122b37d4630000000000000000a00000000000000000000000000000000000000000000000000000000000000000000000000001600030100110100000000000000000000000000030d4000000000000000000000",
          "blockHash": "0x2c91a5c360359593e53becfc1af6231b69527f4f53478afb1333fc264db8fddb",
          "blockNumber": "0x6ed8b0",
          "transactionHash": "0xc7f2aaee259f2f940ef519b1432a5badbbbce608cee7370ae204f87fdcacf0b5",
          "transactionIndex": "0x1",
          "logIndex": "0x1c",
          "removed": false
        },
        {
          "address": "0x90581eca9469d8d7f5d3b60f4715027adfcf7927",
          "topics": [
            "0x85496b760a4b7f8d66384b9df21b381f5d1b1e79f229a47aaf4c232edc2fe59a",
            "0x80ffe50cbe9b69cf2ff729b63425afbf45c69eac8cd3de796dfe420696a8eaa4",
            "0x000000000000000000000000741f0d8bde14140f62107fc60a0ee122b37d4630"
          ],
          "data": "0x000000000000000000000000000000000000000000000000000000000000762f000000000000000000000000000000000000000000000000000009184e72a000000000000000000000000000000000000000000000000000000009184e72a000",
          "blockHash": "0x2c91a5c360359593e53becfc1af6231b69527f4f53478afb1333fc264db8fddb",
          "blockNumber": "0x6ed8b0",
          "transactionHash": "0xc7f2aaee259f2f940ef519b1432a5badbbbce608cee7370ae204f87fdcacf0b5",
          "transactionIndex": "0x1",
          "logIndex": "0x1d",
          "removed": false
        }
      ],
      "logsBloom": "0x02100000000000000000000000002040000000000000000000000000000002000000000000000000000200000800000000000100000000000000000200000000002002000000000000000008000000001140000000000000000000000000000000000000020000008020000000000800000000000000000000000010010000000000000000800004000810080000000000000000000020000041000000000000000000008000001002100008000000000004000000400000000d40000010000000000002000000000000000080000400000000802800000000000001000020004000040000000000040040040000002800400009008000000000000000080800",
      "type": "0x2",
      "transactionHash": "0xc7f2aaee259f2f940ef519b1432a5badbbbce608cee7370ae204f87fdcacf0b5",
      "transactionIndex": "0x1",
      "blockHash": "0x2c91a5c360359593e53becfc1af6231b69527f4f53478afb1333fc264db8fddb",
      "blockNumber": "0x6ed8b0",
      "gasUsed": "0x1ad0f0",
      "effectiveGasPrice": "0x66d8c",
      "blobGasUsed": "0x0",
      "from": "0x45dce8e4f2dc005a5f28206a46cb034697eeda8e",
      "to": "0x741f0d8bde14140f62107fc60a0ee122b37d4630",
      "contractAddress": null,
      "l1BaseFeeScalar": "0x558",
      "l1BlobBaseFee": "0x1",
      "l1BlobBaseFeeScalar": "0xc5fc5",
      "l1Fee": "0xee103d95",
      "l1GasPrice": "0x229280ea",
      "l1GasUsed": "0x13a9",
      "operatorFeeConstant": "0x13aa2d13837",
      "operatorFeeScalar": "0x0"
    }
  ],
  "libraries": [],
  "pending": [],
  "returns": {},
  "timestamp": 1754007247,
  "chain": 747474,
  "commit": "a0dbcb1"
}