{
  "transactions": [
    {
      "hash": "0x9c2160a2a1b8fae16e26565d86f6355669cd72b692883fb06688978faf6c942b",
      "transactionType": "CALL",
      "contractName": null,
      "contractAddress": "0x4a767e2ef83577225522ef8ed71056c6e3acb216",
      "function": "batchBridgeWithEthFeeFromWallet((uint32,bytes32,uint256,uint256,bytes,bytes,bytes)[],address[],address[])",
      "arguments": [
        "[(30109, 0x000000000000000000000000741f0d8bde14140f62107fc60a0ee122b37d4630, 500000000000000000, 0, 0x, 0x, 0x), (30106, 0x000000000000000000000000741f0d8bde14140f62107fc60a0ee122b37d4630, 500000000000000000, 0, 0x, 0x, 0x), (30102, 0x000000000000000000000000741f0d8bde14140f62107fc60a0ee122b37d4630, 500000000000000000, 0, 0x, 0x, 0x), (30158, 0x000000000000000000000000741f0d8bde14140f62107fc60a0ee122b37d4630, 500000000000000000, 0, 0x, 0x, 0x), (30362, 0x000000000000000000000000741f0d8bde14140f62107fc60a0ee122b37d4630, 500000000000000000, 0, 0x, 0x, 0x), (30183, 0x000000000000000000000000d555d90a6b23b285575cd6192d972e35f70b5b89, 500000000000000000, 0, 0x, 0x, 0x)]",
        "[0xA057D8D4Fc86a62801CE363C169b0A8d192F6cEE, 0xA057D8D4Fc86a62801CE363C169b0A8d192F6cEE, 0xA057D8D4Fc86a62801CE363C169b0A8d192F6cEE, 0xA057D8D4Fc86a62801CE363C169b0A8d192F6cEE, 0xA057D8D4Fc86a62801CE363C169b0A8d192F6cEE, 0xA057D8D4Fc86a62801CE363C169b0A8d192F6cEE]",
        "[0x4a767e2ef83577225522Ef8Ed71056c6E3acB216, 0x4a767e2ef83577225522Ef8Ed71056c6E3acB216, 0x4a767e2ef83577225522Ef8Ed71056c6E3acB216, 0x4a767e2ef83577225522Ef8Ed71056c6E3acB216, 0x4a767e2ef83577225522Ef8Ed71056c6E3acB216, 0x4a767e2ef83577225522Ef8Ed71056c6E3acB216]"
      ],
      "transaction": {
        "from": "0x45dce8e4f2dc005a5f28206a46cb034697eeda8e",
        "to": "0x4a767e2ef83577225522ef8ed71056c6e3acb216",
        "gas": "0x231a58",
        "value": "0x7ae3a88a094f",
        "input": "0xb70d4241000000000000000000000000000000000000000000000000000000000000006000000000000000000000000000000000000000000000000000000000000008c000000000000000000000000000000000000000000000000000000000000009a0000000000000000000000000000000000000000000000000000000000000000600000000000000000000000000000000000000000000000000000000000000c000000000000000000000000000000000000000000000000000000000000002000000000000000000000000000000000000000000000000000000000000000340000000000000000000000000000000000000000000000000000000000000048000000000000000000000000000000000000000000000000000000000000005c00000000000000000000000000000000000000000000000000000000000000700000000000000000000000000000000000000000000000000000000000000759d000000000000000000000000741f0d8bde14140f62107fc60a0ee122b37d463000000000000000000000000000000000000000000000000006f05b59d3b20000000000000000000000000000000000000000000000000000000000000000000000000000000000000000000000000000000000000000000000000000000000e000000000000000000000000000000000000000000000000000000000000001000000000000000000000000000000000000000000000000000000000000000120000000000000000000000000000000000000000000000000000000000000000000000000000000000000000000000000000000000000000000000000000000000000000000000000000000000000000000000000000000000000000000000000000000000000000000000000000000000000000000000000000000000000759a000000000000000000000000741f0d8bde14140f62107fc60a0ee122b37d463000000000000000000000000000000000000000000000000006f05b59d3b20000000000000000000000000000000000000000000000000000000000000000000000000000000000000000000000000000000000000000000000000000000000e0000000000000000000000000000000000000000000000000000000000000010000000000000000000000000000000000000000000000000000000000000001200000000000000000000000000000000000000000000000000000000000000000000000000000000000000000000000000000000000000000000000000000000000000000000000000000000000000000000000000000000000000000000000000000000000000000000000000000000000000000000000000000000000007596000000000000000000000000741f0d8bde14140f62107fc60a0ee122b37d463000000000000000000000000000000000000000000000000006f05b59d3b20000000000000000000000000000000000000000000000000000000000000000000000000000000000000000000000000000000000000000000000000000000000e00000000000000000000000000000000000000000000000000000000000000100000000000000000000000000000000000000000000000000000000000000012000000000000000000000000000000000000000000000000000000000000000000000000000000000000000000000000000000000000000000000000000000000000000000000000000000000000000000000000000000000000000000000000000000000000000000000000000000000000000000000000000000000000075ce000000000000000000000000741f0d8bde14140f62107fc60a0ee122b37d463000000000000000000000000000000000000000000000000006f05b59d3b20000000000000000000000000000000000000000000000000000000000000000000000000000000000000000000000000000000000000000000000000000000000e000000000000000000000000000000000000000000000000000000000000001000000000000000000000000000000000000000000000000000000000000000120000000000000000000000000000000000000000000000000000000000000000000000000000000000000000000000000000000000000000000000000000000000000000000000000000000000000000000000000000000000000000000000000000000000000000000000000000000000000000000000000000000000000769a000000000000000000000000741f0d8bde14140f62107fc60a0ee122b37d463000000000000000000000000000000000000000000000000006f05b59d3b20000000000000000000000000000000000000000000000000000000000000000000000000000000000000000000000000000000000000000000000000000000000e00000000000000000000000000000000000000000000000000000000000000100000000000000000000000000000000000000000000000000000000000000012000000000000000000000000000000000000000000000000000000000000000000000000000000000000000000000000000000000000000000000000000000000000000000000000000000000000000000000000000000000000000000000000000000000000000000000000000000000000000000000000000000000000075e7000000000000000000000000d555d90a6b23b285575cd6192d972e35f70b5b8900000000000000000000000000000000000000000000000006f05b59d3b20000000000000000000000000000000000000000000000000000000000000000000000000000000000000000000000000000000000000000000000000000000000e0000000000000000000000000000000000000000000000000000000000000010000000000000000000000000000000000000000000000000000000000000001200000000000000000000000000000000000000000000000000000000000000000000000000000000000000000000000000000000000000000000000000000000000000000000000000000000000000000000000000000000000000000000000000000000000000000000000000000000000000000000000000000000000000006000000000000000000000000a057d8d4fc86a62801ce363c169b0a8d192f6cee000000000000000000000000a057d8d4fc86a62801ce363c169b0a8d192f6cee000000000000000000000000a057d8d4fc86a62801ce363c169b0a8d192f6cee000000000000000000000000a057d8d4fc86a62801ce363c169b0a8d192f6cee000000000000000000000000a057d8d4fc86a62801ce363c169b0a8d192f6cee000000000000000000000000a057d8d4fc86a62801ce363c169b0a8d192f6cee00000000000000000000000000000000000000000000000000000000000000060000000000000000000000004a767e2ef83577225522ef8ed71056c6e3acb2160000000000000000000000004a767e2ef83577225522ef8ed71056c6e3acb2160000000000000000000000004a767e2ef83577225522ef8ed71056c6e3acb2160000000000000000000000004a767e2ef83577225522ef8ed71056c6e3acb2160000000000000000000000004a767e2ef83577225522ef8ed71056c6e3acb2160000000000000000000000004a767e2ef83577225522ef8ed71056c6e3acb216",
        "nonce": "0xab",
        "chainId": "0x4e454152"
      },
      "additionalContracts": [],
      "isFixedGasLimit": false
    }
  ],
  "receipts": [
    {
      "status": "0x1",
      "cumulativeGasUsed": "0x0",
      "logs": [
        {
          "address": "0xa057d8d4fc86a62801ce363c169b0a8d192f6cee",
          "topics": [
            "0xddf252ad1be2c89b69c2b068fc378daa952ba7f163c4a11628f55a4df523b3ef",
            "0x0000000000000000000000004a767e2ef83577225522ef8ed71056c6e3acb216",
            "0x0000000000000000000000000000000000000000000000000000000000000000"
          ],
          "data": "0x00000000000000000000000000000000000000000000000006f05b59d3b20000",
          "blockHash": "0xc19ba0f80ebc20c8c6fa476d5af1a79db5c5e0c642260296e650c5098be565cd",
          "blockNumber": "0x9b1826c",
          "transactionHash": "0x9c2160a2a1b8fae16e26565d86f6355669cd72b692883fb06688978faf6c942b",
          "transactionIndex": "0x0",
          "logIndex": "0x0",
          "removed": false
        },
        {
          "address": "0x1ace9dd1bc743ad036ef2d92af42ca70a1159df5",
          "topics": [
            "0x61ed099e74a97a1d7f8bb0952a88ca8b7b8ebd00c126ea04671f92a81213318a"
          ],
          "data": "0x000000000000000000000000a2b402ffe8dd7460a8b425644b6b9f50667f0a6100000000000000000000000000000000000000000000000000000aebc86715ea",
          "blockHash": "0xc19ba0f80ebc20c8c6fa476d5af1a79db5c5e0c642260296e650c5098be565cd",
          "blockNumber": "0x9b1826c",
          "transactionHash": "0x9c2160a2a1b8fae16e26565d86f6355669cd72b692883fb06688978faf6c942b",
          "transactionIndex": "0x0",
          "logIndex": "0x1",
          "removed": false
        },
        {
          "address": "0x1ace9dd1bc743ad036ef2d92af42ca70a1159df5",
          "topics": [
            "0x07ea52d82345d6e838192107d8fd7123d9c2ec8e916cd0aad13fd2b60db24644"
          ],
          "data": "0x000000000000000000000000000000000000000000000000000000000000006000000000000000000000000000000000000000000000000000000000000000e000000000000000000000000000000000000000000000000000000000000001000000000000000000000000000000000000000000000000000000000000000003000000000000000000000000045d70bf1939af0489cb44533750a2e15c92d7d4000000000000000000000000d4a903930f2c9085586cda0b11d9681eecb20d2f000000000000000000000000dd7b5e1db4aafd5c8ec3b764efb8ed265aa5445b000000000000000000000000000000000000000000000000000000000000000000000000000000000000000000000000000000000000000000000000000000030000000000000000000000000000000000000000000000000000002974a0cfe600000000000000000000000000000000000000000000000000000027c87dd4dc00000000000000000000000000000000000000000000000000000027c87dd4dc",
          "blockHash": "0xc19ba0f80ebc20c8c6fa476d5af1a79db5c5e0c642260296e650c5098be565cd",
          "blockNumber": "0x9b1826c",
          "transactionHash": "0x9c2160a2a1b8fae16e26565d86f6355669cd72b692883fb06688978faf6c942b",
          "transactionIndex": "0x0",
          "logIndex": "0x2",
          "removed": false
        },
        {
          "address": "0x1a44076050125825900e736c501f859c50fe728c",
          "topics": [
            "0x1ab700d4ced0c005b164c0f789fd09fcbb0156d4c2041b8a3bfbcd961cd1567f"
          ],
          "data": "0x000000000000000000000000000000000000000000000000000000000000006000000000000000000000000000000000000000000000000000000000000001200000000000000000000000001ace9dd1bc743ad036ef2d92af42ca70a1159df5000000000000000000000000000000000000000000000000000000000000009901000000000000000100007603000000000000000000000000a057d8d4fc86a62801ce363c169b0a8d192f6cee0000759d00000000000000000000000057558cb8d6005de0bae8a2789d5efaae52dba5a8b9d6396704f3d3a3f40436fb68694a7ee6348d6459d36a3f494a2d6bdafa542a000000000000000000000000741f0d8bde14140f62107fc60a0ee122b37d4630000000000007a12000000000000000000000000000000000000000000000000000000000000000000000000000001600030100110100000000000000000000000000030d4000000000000000000000",
          "blockHash": "0xc19ba0f80ebc20c8c6fa476d5af1a79db5c5e0c642260296e650c5098be565cd",
          "blockNumber": "0x9b1826c",
          "transactionHash": "0x9c2160a2a1b8fae16e26565d86f6355669cd72b692883fb06688978faf6c942b",
          "transactionIndex": "0x0",
          "logIndex": "0x3",
          "removed": false
        },
        {
          "address": "0xa057d8d4fc86a62801ce363c169b0a8d192f6cee",
          "topics": [
            "0x85496b760a4b7f8d66384b9df21b381f5d1b1e79f229a47aaf4c232edc2fe59a",
            "0xb9d6396704f3d3a3f40436fb68694a7ee6348d6459d36a3f494a2d6bdafa542a",
            "0x0000000000000000000000004a767e2ef83577225522ef8ed71056c6e3acb216"
          ],
          "data": "0x000000000000000000000000000000000000000000000000000000000000759d00000000000000000000000000000000000000000000000006f05b59d3b2000000000000000000000000000000000000000000000000000006f05b59d3b20000",
          "blockHash": "0xc19ba0f80ebc20c8c6fa476d5af1a79db5c5e0c642260296e650c5098be565cd",
          "blockNumber": "0x9b1826c",
          "transactionHash": "0x9c2160a2a1b8fae16e26565d86f6355669cd72b692883fb06688978faf6c942b",
          "transactionIndex": "0x0",
          "logIndex": "0x4",
          "removed": false
        },
        {
          "address": "0xa057d8d4fc86a62801ce363c169b0a8d192f6cee",
          "topics": [
            "0xddf252ad1be2c89b69c2b068fc378daa952ba7f163c4a11628f55a4df523b3ef",
            "0x0000000000000000000000004a767e2ef83577225522ef8ed71056c6e3acb216",
            "0x0000000000000000000000000000000000000000000000000000000000000000"
          ],
          "data": "0x00000000000000000000000000000000000000000000000006f05b59d3b20000",
          "blockHash": "0xc19ba0f80ebc20c8c6fa476d5af1a79db5c5e0c642260296e650c5098be565cd",
          "blockNumber": "0x9b1826c",
          "transactionHash": "0x9c2160a2a1b8fae16e26565d86f6355669cd72b692883fb06688978faf6c942b",
          "transactionIndex": "0x0",
          "logIndex": "0x5",
          "removed": false
        },
        {
          "address": "0x1ace9dd1bc743ad036ef2d92af42ca70a1159df5",
          "topics": [
            "0x61ed099e74a97a1d7f8bb0952a88ca8b7b8ebd00c126ea04671f92a81213318a"
          ],
          "data": "0x000000000000000000000000a2b402ffe8dd7460a8b425644b6b9f50667f0a6100000000000000000000000000000000000000000000000000000c76a712be28",
          "blockHash": "0xc19ba0f80ebc20c8c6fa476d5af1a79db5c5e0c642260296e650c5098be565cd",
          "blockNumber": "0x9b1826c",
          "transactionHash": "0x9c2160a2a1b8fae16e26565d86f6355669cd72b692883fb06688978faf6c942b",
          "transactionIndex": "0x0",
          "logIndex": "0x6",
          "removed": false
        },
        {
          "address": "0x1ace9dd1bc743ad036ef2d92af42ca70a1159df5",
          "topics": [
            "0x07ea52d82345d6e838192107d8fd7123d9c2ec8e916cd0aad13fd2b60db24644"
          ],
          "data": "0x000000000000000000000000000000000000000000000000000000000000006000000000000000000000000000000000000000000000000000000000000000e000000000000000000000000000000000000000000000000000000000000001000000000000000000000000000000000000000000000000000000000000000003000000000000000000000000045d70bf1939af0489cb44533750a2e15c92d7d4000000000000000000000000d4a903930f2c9085586cda0b11d9681eecb20d2f000000000000000000000000dd7b5e1db4aafd5c8ec3b764efb8ed265aa5445b00000000000000000000000000000000000000000000000000000000000000000000000000000000000000000000000000000000000000000000000000000003000000000000000000000000000000000000000000000000000000bcd4b465a4000000000000000000000000000000000000000000000000000000b53688ed3d000000000000000000000000000000000000000000000000000000b53688ed3d",
          "blockHash": "0xc19ba0f80ebc20c8c6fa476d5af1a79db5c5e0c642260296e650c5098be565cd",
          "blockNumber": "0x9b1826c",
          "transactionHash": "0x9c2160a2a1b8fae16e26565d86f6355669cd72b692883fb06688978faf6c942b",
          "transactionIndex": "0x0",
          "logIndex": "0x7",
          "removed": false
        },
        {
          "address": "0x1a44076050125825900e736c501f859c50fe728c",
          "topics": [
            "0x1ab700d4ced0c005b164c0f789fd09fcbb0156d4c2041b8a3bfbcd961cd1567f"
          ],
          "data": "0x000000000000000000000000000000000000000000000000000000000000006000000000000000000000000000000000000000000000000000000000000001200000000000000000000000001ace9dd1bc743ad036ef2d92af42ca70a1159df5000000000000000000000000000000000000000000000000000000000000009901000000000000000100007603000000000000000000000000a057d8d4fc86a62801ce363c169b0a8d192f6cee0000759a00000000000000000000000057558cb8d6005de0bae8a2789d5efaae52dba5a87d8ba6345c165067b920493ad503fb101fb1d816095611b4144a6634a2ca9ac9000000000000000000000000741f0d8bde14140f62107fc60a0ee122b37d4630000000000007a12000000000000000000000000000000000000000000000000000000000000000000000000000001600030100110100000000000000000000000000030d4000000000000000000000",
          "blockHash": "0xc19ba0f80ebc20c8c6fa476d5af1a79db5c5e0c642260296e650c5098be565cd",
          "blockNumber": "0x9b1826c",
          "transactionHash": "0x9c2160a2a1b8fae16e26565d86f6355669cd72b692883fb06688978faf6c942b",
          "transactionIndex": "0x0",
          "logIndex": "0x8",
          "removed": false
        },
        {
          "address": "0xa057d8d4fc86a62801ce363c169b0a8d192f6cee",
          "topics": [
            "0x85496b760a4b7f8d66384b9df21b381f5d1b1e79f229a47aaf4c232edc2fe59a",
            "0x7d8ba6345c165067b920493ad503fb101fb1d816095611b4144a6634a2ca9ac9",
            "0x0000000000000000000000004a767e2ef83577225522ef8ed71056c6e3acb216"
          ],
          "data": "0x000000000000000000000000000000000000000000000000000000000000759a00000000000000000000000000000000000000000000000006f05b59d3b2000000000000000000000000000000000000000000000000000006f05b59d3b20000",
          "blockHash": "0xc19ba0f80ebc20c8c6fa476d5af1a79db5c5e0c642260296e650c5098be565cd",
          "blockNumber": "0x9b1826c",
          "transactionHash": "0x9c2160a2a1b8fae16e26565d86f6355669cd72b692883fb06688978faf6c942b",
          "transactionIndex": "0x0",
          "logIndex": "0x9",
          "removed": false
        },
        {
          "address": "0xa057d8d4fc86a62801ce363c169b0a8d192f6cee",
          "topics": [
            "0xddf252ad1be2c89b69c2b068fc378daa952ba7f163c4a11628f55a4df523b3ef",
            "0x0000000000000000000000004a767e2ef83577225522ef8ed71056c6e3acb216",
            "0x0000000000000000000000000000000000000000000000000000000000000000"
          ],
          "data": "0x00000000000000000000000000000000000000000000000006f05b59d3b20000",
          "blockHash": "0xc19ba0f80ebc20c8c6fa476d5af1a79db5c5e0c642260296e650c5098be565cd",
          "blockNumber": "0x9b1826c",
          "transactionHash": "0x9c2160a2a1b8fae16e26565d86f6355669cd72b692883fb06688978faf6c942b",
          "transactionIndex": "0x0",
          "logIndex": "0xa",
          "removed": false
        },
        {
          "address": "0x1ace9dd1bc743ad036ef2d92af42ca70a1159df5",
          "topics": [
            "0x61ed099e74a97a1d7f8bb0952a88ca8b7b8ebd00c126ea04671f92a81213318a"
          ],
          "data": "0x000000000000000000000000a2b402ffe8dd7460a8b425644b6b9f50667f0a6100000000000000000000000000000000000000000000000000000f81aa507ec8",
          "blockHash": "0xc19ba0f80ebc20c8c6fa476d5af1a79db5c5e0c642260296e650c5098be565cd",
          "blockNumber": "0x9b1826c",
          "transactionHash": "0x9c2160a2a1b8fae16e26565d86f6355669cd72b692883fb06688978faf6c942b",
          "transactionIndex": "0x0",
          "logIndex": "0xb",
          "removed": false
        },
        {
          "address": "0x1ace9dd1bc743ad036ef2d92af42ca70a1159df5",
          "topics": [
            "0x07ea52d82345d6e838192107d8fd7123d9c2ec8e916cd0aad13fd2b60db24644"
          ],
          "data": "0x000000000000000000000000000000000000000000000000000000000000006000000000000000000000000000000000000000000000000000000000000000e000000000000000000000000000000000000000000000000000000000000001000000000000000000000000000000000000000000000000000000000000000003000000000000000000000000045d70bf1939af0489cb44533750a2e15c92d7d4000000000000000000000000d4a903930f2c9085586cda0b11d9681eecb20d2f000000000000000000000000dd7b5e1db4aafd5c8ec3b764efb8ed265aa5445b00000000000000000000000000000000000000000000000000000000000000000000000000000000000000000000000000000000000000000000000000000003000000000000000000000000000000000000000000000000000001df93f1c828000000000000000000000000000000000000000000000000000001cc3b0e39e4000000000000000000000000000000000000000000000000000001cc3b0e39e4",
          "blockHash": "0xc19ba0f80ebc20c8c6fa476d5af1a79db5c5e0c642260296e650c5098be565cd",
          "blockNumber": "0x9b1826c",
          "transactionHash": "0x9c2160a2a1b8fae16e26565d86f6355669cd72b692883fb06688978faf6c942b",
          "transactionIndex": "0x0",
          "logIndex": "0xc",
          "removed": false
        },
        {
          "address": "0x1a44076050125825900e736c501f859c50fe728c",
          "topics": [
            "0x1ab700d4ced0c005b164c0f789fd09fcbb0156d4c2041b8a3bfbcd961cd1567f"
          ],
          "data": "0x000000000000000000000000000000000000000000000000000000000000006000000000000000000000000000000000000000000000000000000000000001200000000000000000000000001ace9dd1bc743ad036ef2d92af42ca70a1159df5000000000000000000000000000000000000000000000000000000000000009901000000000000000100007603000000000000000000000000a057d8d4fc86a62801ce363c169b0a8d192f6cee0000759600000000000000000000000057558cb8d6005de0bae8a2789d5efaae52dba5a894f1a84fb29297ad8e26e082663decbbbe53da1857ca55b4e1633cab3c8cc3fa000000000000000000000000741f0d8bde14140f62107fc60a0ee122b37d4630000000000007a12000000000000000000000000000000000000000000000000000000000000000000000000000001600030100110100000000000000000000000000030d4000000000000000000000",
          "blockHash": "0xc19ba0f80ebc20c8c6fa476d5af1a79db5c5e0c642260296e650c5098be565cd",
          "blockNumber": "0x9b1826c",
          "transactionHash": "0x9c2160a2a1b8fae16e26565d86f6355669cd72b692883fb06688978faf6c942b",
          "transactionIndex": "0x0",
          "logIndex": "0xd",
          "removed": false
        },
        {
          "address": "0xa057d8d4fc86a62801ce363c169b0a8d192f6cee",
          "topics": [
            "0x85496b760a4b7f8d66384b9df21b381f5d1b1e79f229a47aaf4c232edc2fe59a",
            "0x94f1a84fb29297ad8e26e082663decbbbe53da1857ca55b4e1633cab3c8cc3fa",
            "0x0000000000000000000000004a767e2ef83577225522ef8ed71056c6e3acb216"
          ],
          "data": "0x000000000000000000000000000000000000000000000000000000000000759600000000000000000000000000000000000000000000000006f05b59d3b2000000000000000000000000000000000000000000000000000006f05b59d3b20000",
          "blockHash": "0xc19ba0f80ebc20c8c6fa476d5af1a79db5c5e0c642260296e650c5098be565cd",
          "blockNumber": "0x9b1826c",
          "transactionHash": "0x9c2160a2a1b8fae16e26565d86f6355669cd72b692883fb06688978faf6c942b",
          "transactionIndex": "0x0",
          "logIndex": "0xe",
          "removed": false
        },
        {
          "address": "0xa057d8d4fc86a62801ce363c169b0a8d192f6cee",
          "topics": [
            "0xddf252ad1be2c89b69c2b068fc378daa952ba7f163c4a11628f55a4df523b3ef",
            "0x0000000000000000000000004a767e2ef83577225522ef8ed71056c6e3acb216",
            "0x0000000000000000000000000000000000000000000000000000000000000000"
          ],
          "data": "0x00000000000000000000000000000000000000000000000006f05b59d3b20000",
          "blockHash": "0xc19ba0f80ebc20c8c6fa476d5af1a79db5c5e0c642260296e650c5098be565cd",
          "blockNumber": "0x9b1826c",
          "transactionHash": "0x9c2160a2a1b8fae16e26565d86f6355669cd72b692883fb06688978faf6c942b",
          "transactionIndex": "0x0",
          "logIndex": "0xf",
          "removed": false
        },
        {
          "address": "0x1ace9dd1bc743ad036ef2d92af42ca70a1159df5",
          "topics": [
            "0x61ed099e74a97a1d7f8bb0952a88ca8b7b8ebd00c126ea04671f92a81213318a"
          ],
          "data": "0x000000000000000000000000a2b402ffe8dd7460a8b425644b6b9f50667f0a610000000000000000000000000000000000000000000000000000179279a6a3a8",
          "blockHash": "0xc19ba0f80ebc20c8c6fa476d5af1a79db5c5e0c642260296e650c5098be565cd",
          "blockNumber": "0x9b1826c",
          "transactionHash": "0x9c2160a2a1b8fae16e26565d86f6355669cd72b692883fb06688978faf6c942b",
          "transactionIndex": "0x0",
          "logIndex": "0x10",
          "removed": false
        },
        {
          "address": "0x1ace9dd1bc743ad036ef2d92af42ca70a1159df5",
          "topics": [
            "0x07ea52d82345d6e838192107d8fd7123d9c2ec8e916cd0aad13fd2b60db24644"
          ],
          "data": "0x000000000000000000000000000000000000000000000000000000000000006000000000000000000000000000000000000000000000000000000000000000e000000000000000000000000000000000000000000000000000000000000001000000000000000000000000000000000000000000000000000000000000000003000000000000000000000000045d70bf1939af0489cb44533750a2e15c92d7d4000000000000000000000000d4a903930f2c9085586cda0b11d9681eecb20d2f000000000000000000000000dd7b5e1db4aafd5c8ec3b764efb8ed265aa5445b00000000000000000000000000000000000000000000000000000000000000000000000000000000000000000000000000000000000000000000000000000003000000000000000000000000000000000000000000000000000000f83751d800000000000000000000000000000000000000000000000000000000ee33d7d800000000000000000000000000000000000000000000000000000000ee33d7d800",
          "blockHash": "0xc19ba0f80ebc20c8c6fa476d5af1a79db5c5e0c642260296e650c5098be565cd",
          "blockNumber": "0x9b1826c",
          "transactionHash": "0x9c2160a2a1b8fae16e26565d86f6355669cd72b692883fb06688978faf6c942b",
          "transactionIndex": "0x0",
          "logIndex": "0x11",
          "removed": false
        },
        {
          "address": "0x1a44076050125825900e736c501f859c50fe728c",
          "topics": [
            "0x1ab700d4ced0c005b164c0f789fd09fcbb0156d4c2041b8a3bfbcd961cd1567f"
          ],
          "data": "0x000000000000000000000000000000000000000000000000000000000000006000000000000000000000000000000000000000000000000000000000000001200000000000000000000000001ace9dd1bc743ad036ef2d92af42ca70a1159df5000000000000000000000000000000000000000000000000000000000000009901000000000000000100007603000000000000000000000000a057d8d4fc86a62801ce363c169b0a8d192f6cee000075ce00000000000000000000000057558cb8d6005de0bae8a2789d5efaae52dba5a8e70058e925c49a04b38f9865fd991dc634c0d7525ae08f25d6500cce80ea6010000000000000000000000000741f0d8bde14140f62107fc60a0ee122b37d4630000000000007a12000000000000000000000000000000000000000000000000000000000000000000000000000001600030100110100000000000000000000000000030d4000000000000000000000",
          "blockHash": "0xc19ba0f80ebc20c8c6fa476d5af1a79db5c5e0c642260296e650c5098be565cd",
          "blockNumber": "0x9b1826c",
          "transactionHash": "0x9c2160a2a1b8fae16e26565d86f6355669cd72b692883fb06688978faf6c942b",
          "transactionIndex": "0x0",
          "logIndex": "0x12",
          "removed": false
        },
        {
          "address": "0xa057d8d4fc86a62801ce363c169b0a8d192f6cee",
          "topics": [
            "0x85496b760a4b7f8d66384b9df21b381f5d1b1e79f229a47aaf4c232edc2fe59a",
            "0xe70058e925c49a04b38f9865fd991dc634c0d7525ae08f25d6500cce80ea6010",
            "0x0000000000000000000000004a767e2ef83577225522ef8ed71056c6e3acb216"
          ],
          "data": "0x00000000000000000000000000000000000000000000000000000000000075ce00000000000000000000000000000000000000000000000006f05b59d3b2000000000000000000000000000000000000000000000000000006f05b59d3b20000",
          "blockHash": "0xc19ba0f80ebc20c8c6fa476d5af1a79db5c5e0c642260296e650c5098be565cd",
          "blockNumber": "0x9b1826c",
          "transactionHash": "0x9c2160a2a1b8fae16e26565d86f6355669cd72b692883fb06688978faf6c942b",
          "transactionIndex": "0x0",
          "logIndex": "0x13",
          "removed": false
        },
        {
          "address": "0xa057d8d4fc86a62801ce363c169b0a8d192f6cee",
          "topics": [
            "0xddf252ad1be2c89b69c2b068fc378daa952ba7f163c4a11628f55a4df523b3ef",
            "0x0000000000000000000000004a767e2ef83577225522ef8ed71056c6e3acb216",
            "0x0000000000000000000000000000000000000000000000000000000000000000"
          ],
          "data": "0x00000000000000000000000000000000000000000000000006f05b59d3b20000",
          "blockHash": "0xc19ba0f80ebc20c8c6fa476d5af1a79db5c5e0c642260296e650c5098be565cd",
          "blockNumber": "0x9b1826c",
          "transactionHash": "0x9c2160a2a1b8fae16e26565d86f6355669cd72b692883fb06688978faf6c942b",
          "transactionIndex": "0x0",
          "logIndex": "0x14",
          "removed": false
        },
        {
          "address": "0x1ace9dd1bc743ad036ef2d92af42ca70a1159df5",
          "topics": [
            "0x61ed099e74a97a1d7f8bb0952a88ca8b7b8ebd00c126ea04671f92a81213318a"
          ],
          "data": "0x000000000000000000000000a2b402ffe8dd7460a8b425644b6b9f50667f0a61000000000000000000000000000000000000000000000000000004560cf213b1",
          "blockHash": "0xc19ba0f80ebc20c8c6fa476d5af1a79db5c5e0c642260296e650c5098be565cd",
          "blockNumber": "0x9b1826c",
          "transactionHash": "0x9c2160a2a1b8fae16e26565d86f6355669cd72b692883fb06688978faf6c942b",
          "transactionIndex": "0x0",
          "logIndex": "0x15",
          "removed": false
        },
        {
          "address": "0x1ace9dd1bc743ad036ef2d92af42ca70a1159df5",
          "topics": [
            "0x07ea52d82345d6e838192107d8fd7123d9c2ec8e916cd0aad13fd2b60db24644"
          ],
          "data": "0x000000000000000000000000000000000000000000000000000000000000006000000000000000000000000000000000000000000000000000000000000000e000000000000000000000000000000000000000000000000000000000000001000000000000000000000000000000000000000000000000000000000000000003000000000000000000000000045d70bf1939af0489cb44533750a2e15c92d7d4000000000000000000000000d4a903930f2c9085586cda0b11d9681eecb20d2f000000000000000000000000dd7b5e1db4aafd5c8ec3b764efb8ed265aa5445b000000000000000000000000000000000000000000000000000000000000000000000000000000000000000000000000000000000000000000000000000000030000000000000000000000000000000000000000000000000000000d7f9992ea0000000000000000000000000000000000000000000000000000000cf431850f0000000000000000000000000000000000000000000000000000000cf431850f",
          "blockHash": "0xc19ba0f80ebc20c8c6fa476d5af1a79db5c5e0c642260296e650c5098be565cd",
          "blockNumber": "0x9b1826c",
          "transactionHash": "0x9c2160a2a1b8fae16e26565d86f6355669cd72b692883fb06688978faf6c942b",
          "transactionIndex": "0x0",
          "logIndex": "0x16",
          "removed": false
        },
        {
          "address": "0x1a44076050125825900e736c501f859c50fe728c",
          "topics": [
            "0x1ab700d4ced0c005b164c0f789fd09fcbb0156d4c2041b8a3bfbcd961cd1567f"
          ],
          "data": "0x000000000000000000000000000000000000000000000000000000000000006000000000000000000000000000000000000000000000000000000000000001200000000000000000000000001ace9dd1bc743ad036ef2d92af42ca70a1159df5000000000000000000000000000000000000000000000000000000000000009901000000000000000100007603000000000000000000000000a057d8d4fc86a62801ce363c169b0a8d192f6cee0000769a00000000000000000000000057558cb8d6005de0bae8a2789d5efaae52dba5a85e048f3cf67a3c8052633e1a01555715f3d92126988cc417d4ff119b81ca342a000000000000000000000000741f0d8bde14140f62107fc60a0ee122b37d4630000000000007a12000000000000000000000000000000000000000000000000000000000000000000000000000001600030100110100000000000000000000000000030d4000000000000000000000",
          "blockHash": "0xc19ba0f80ebc20c8c6fa476d5af1a79db5c5e0c642260296e650c5098be565cd",
          "blockNumber": "0x9b1826c",
          "transactionHash": "0x9c2160a2a1b8fae16e26565d86f6355669cd72b692883fb06688978faf6c942b",
          "transactionIndex": "0x0",
          "logIndex": "0x17",
          "removed": false
        },
        {
          "address": "0xa057d8d4fc86a62801ce363c169b0a8d192f6cee",
          "topics": [
            "0x85496b760a4b7f8d66384b9df21b381f5d1b1e79f229a47aaf4c232edc2fe59a",
            "0x5e048f3cf67a3c8052633e1a01555715f3d92126988cc417d4ff119b81ca342a",
            "0x0000000000000000000000004a767e2ef83577225522ef8ed71056c6e3acb216"
          ],
          "data": "0x000000000000000000000000000000000000000000000000000000000000769a00000000000000000000000000000000000000000000000006f05b59d3b2000000000000000000000000000000000000000000000000000006f05b59d3b20000",
          "blockHash": "0xc19ba0f80ebc20c8c6fa476d5af1a79db5c5e0c642260296e650c5098be565cd",
          "blockNumber": "0x9b1826c",
          "transactionHash": "0x9c2160a2a1b8fae16e26565d86f6355669cd72b692883fb06688978faf6c942b",
          "transactionIndex": "0x0",
          "logIndex": "0x18",
          "removed": false
        },
        {
          "address": "0xa057d8d4fc86a62801ce363c169b0a8d192f6cee",
          "topics": [
            "0xddf252ad1be2c89b69c2b068fc378daa952ba7f163c4a11628f55a4df523b3ef",
            "0x0000000000000000000000004a767e2ef83577225522ef8ed71056c6e3acb216",
            "0x0000000000000000000000000000000000000000000000000000000000000000"
          ],
          "data": "0x00000000000000000000000000000000000000000000000006f05b59d3b20000",
          "blockHash": "0xc19ba0f80ebc20c8c6fa476d5af1a79db5c5e0c642260296e650c5098be565cd",
          "blockNumber": "0x9b1826c",
          "transactionHash": "0x9c2160a2a1b8fae16e26565d86f6355669cd72b692883fb06688978faf6c942b",
          "transactionIndex": "0x0",
          "logIndex": "0x19",
          "removed": false
        },
        {
          "address": "0x1ace9dd1bc743ad036ef2d92af42ca70a1159df5",
          "topics": [
            "0x61ed099e74a97a1d7f8bb0952a88ca8b7b8ebd00c126ea04671f92a81213318a"
          ],
          "data": "0x000000000000000000000000a2b402ffe8dd7460a8b425644b6b9f50667f0a610000000000000000000000000000000000000000000000000000207a2ed950a0",
          "blockHash": "0xc19ba0f80ebc20c8c6fa476d5af1a79db5c5e0c642260296e650c5098be565cd",
          "blockNumber": "0x9b1826c",
          "transactionHash": "0x9c2160a2a1b8fae16e26565d86f6355669cd72b692883fb06688978faf6c942b",
          "transactionIndex": "0x0",
          "logIndex": "0x1a",
          "removed": false
        },
        {
          "address": "0x1ace9dd1bc743ad036ef2d92af42ca70a1159df5",
          "topics": [
            "0x07ea52d82345d6e838192107d8fd7123d9c2ec8e916cd0aad13fd2b60db24644"
          ],
          "data": "0x000000000000000000000000000000000000000000000000000000000000006000000000000000000000000000000000000000000000000000000000000000e000000000000000000000000000000000000000000000000000000000000001000000000000000000000000000000000000000000000000000000000000000003000000000000000000000000045d70bf1939af0489cb44533750a2e15c92d7d4000000000000000000000000d4a903930f2c9085586cda0b11d9681eecb20d2f000000000000000000000000dd7b5e1db4aafd5c8ec3b764efb8ed265aa5445b000000000000000000000000000000000000000000000000000000000000000000000000000000000000000000000000000000000000000000000000000000030000000000000000000000000000000000000000000000000000044b0f6466100000000000000000000000000000000000000000000000000000041eb8bd16dc0000000000000000000000000000000000000000000000000000041eb8bd16dc",
          "blockHash": "0xc19ba0f80ebc20c8c6fa476d5af1a79db5c5e0c642260296e650c5098be565cd",
          "blockNumber": "0x9b1826c",
          "transactionHash": "0x9c2160a2a1b8fae16e26565d86f6355669cd72b692883fb06688978faf6c942b",
          "transactionIndex": "0x0",
          "logIndex": "0x1b",
          "removed": false
        },
        {
          "address": "0x1a44076050125825900e736c501f859c50fe728c",
          "topics": [
            "0x1ab700d4ced0c005b164c0f789fd09fcbb0156d4c2041b8a3bfbcd961cd1567f"
          ],
          "data": "0x000000000000000000000000000000000000000000000000000000000000006000000000000000000000000000000000000000000000000000000000000001200000000000000000000000001ace9dd1bc743ad036ef2d92af42ca70a1159df5000000000000000000000000000000000000000000000000000000000000009901000000000000000100007603000000000000000000000000a057d8d4fc86a62801ce363c169b0a8d192f6cee000075e70000000000000000000000006185334f1542a9966cbad694577ffbede3dd1f1f336e1ee656ef6f99a49c7dc77a9c9b8ff13e2e06d0afaac278a3028731498cab000000000000000000000000d555d90a6b23b285575cd6192d972e35f70b5b89000000000007a12000000000000000000000000000000000000000000000000000000000000000000000000000001600030100110100000000000000000000000000030d4000000000000000000000",
          "blockHash": "0xc19ba0f80ebc20c8c6fa476d5af1a79db5c5e0c642260296e650c5098be565cd",
          "blockNumber": "0x9b1826c",
          "transactionHash": "0x9c2160a2a1b8fae16e26565d86f6355669cd72b692883fb06688978faf6c942b",
          "transactionIndex": "0x0",
          "logIndex": "0x1c",
          "removed": false
        },
        {
          "address": "0xa057d8d4fc86a62801ce363c169b0a8d192f6cee",
          "topics": [
            "0x85496b760a4b7f8d66384b9df21b381f5d1b1e79f229a47aaf4c232edc2fe59a",
            "0x336e1ee656ef6f99a49c7dc77a9c9b8ff13e2e06d0afaac278a3028731498cab",
            "0x0000000000000000000000004a767e2ef83577225522ef8ed71056c6e3acb216"
          ],
          "data": "0x00000000000000000000000000000000000000000000000000000000000075e700000000000000000000000000000000000000000000000006f05b59d3b2000000000000000000000000000000000000000000000000000006f05b59d3b20000",
          "blockHash": "0xc19ba0f80ebc20c8c6fa476d5af1a79db5c5e0c642260296e650c5098be565cd",
          "blockNumber": "0x9b1826c",
          "transactionHash": "0x9c2160a2a1b8fae16e26565d86f6355669cd72b692883fb06688978faf6c942b",
          "transactionIndex": "0x0",
          "logIndex": "0x1d",
          "removed": false
        }
      ],
      "logsBloom": "0x00000000000080000000000000000000000000000000000000000001001000000000000128000080000000000000000000000000000000000000000000000000000002002000000010000008000000010000000100000000000000000000000002000000020000008000000000000800000082002010080000000010000000000000000000000000000040080000010000000000000000000020000000000000000000008000800000100000000000008000000000400000000440000000008000000002000000100000000480000000000000000000000000000000000020180000040000000000000000000000002000020000018020000000000000000000",
      "type": "0x0",
      "transactionHash": "0x9c2160a2a1b8fae16e26565d86f6355669cd72b692883fb06688978faf6c942b",
      "transactionIndex": "0x0",
      "blockHash": "0xc19ba0f80ebc20c8c6fa476d5af1a79db5c5e0c642260296e650c5098be565cd",
      "blockNumber": "0x9b1826c",
      "gasUsed": "0x1969f4",
      "effectiveGasPrice": "0x42c1d80",
      "from": "0x45dce8e4f2dc005a5f28206a46cb034697eeda8e",
      "to": "0x4a767e2ef83577225522ef8ed71056c6e3acb216",
      "contractAddress": null,
      "nearReceiptHash": "0x016e913853b6099940d323958feed204264351c08b3e7b2330cb7577827a95d5",
      "nearTransactionHash": "0x64703e0fa3b44e0f83ca7d6bd7ff740c766bb95fff506e034f7931cb220ddc81"
    }
  ],
  "libraries": [],
  "pending": [],
  "returns": {},
  "timestamp": 1757021241020,
  "chain": 1313161554,
  "commit": "2c9551f"
}