{
  "transactions": [
    {
      "hash": "0x0847d15c23a303fcf65aa63fef375ccfc217772d32b0228c85fbd7812a4e4ad5",
      "transactionType": "CALL",
      "contractName": null,
      "contractAddress": "0x4a767e2ef83577225522ef8ed71056c6e3acb216",
      "function": "batchBridgeWithEthFeeFromWallet((uint32,bytes32,uint256,uint256,bytes,bytes,bytes)[],address[],address[])",
      "arguments": [
        "[(30255, 0x000000000000000000000000741f0d8bde14140f62107fc60a0ee122b37d4630, 500000000000000000, 0, 0x, 0x, 0x), (30274, 0x000000000000000000000000741f0d8bde14140f62107fc60a0ee122b37d4630, 500000000000000000, 0, 0x, 0x, 0x), (30332, 0x000000000000000000000000741f0d8bde14140f62107fc60a0ee122b37d4630, 500000000000000000, 0, 0x, 0x, 0x), (30339, 0x000000000000000000000000741f0d8bde14140f62107fc60a0ee122b37d4630, 500000000000000000, 0, 0x, 0x, 0x), (30110, 0x000000000000000000000000741f0d8bde14140f62107fc60a0ee122b37d4630, 500000000000000000, 0, 0x, 0x, 0x), (30111, 0x000000000000000000000000741f0d8bde14140f62107fc60a0ee122b37d4630, 500000000000000000, 0, 0x, 0x, 0x)]",
        "[0xA057D8D4Fc86a62801CE363C169b0A8d192F6cEE, 0xA057D8D4Fc86a62801CE363C169b0A8d192F6cEE, 0xA057D8D4Fc86a62801CE363C169b0A8d192F6cEE, 0xA057D8D4Fc86a62801CE363C169b0A8d192F6cEE, 0xA057D8D4Fc86a62801CE363C169b0A8d192F6cEE, 0xA057D8D4Fc86a62801CE363C169b0A8d192F6cEE]",
        "[0x4a767e2ef83577225522Ef8Ed71056c6E3acB216, 0x4a767e2ef83577225522Ef8Ed71056c6E3acB216, 0x4a767e2ef83577225522Ef8Ed71056c6E3acB216, 0x4a767e2ef83577225522Ef8Ed71056c6E3acB216, 0x4a767e2ef83577225522Ef8Ed71056c6E3acB216, 0x4a767e2ef83577225522Ef8Ed71056c6E3acB216]"
      ],
      "transaction": {
        "from": "0x45dce8e4f2dc005a5f28206a46cb034697eeda8e",
        "to": "0x4a767e2ef83577225522ef8ed71056c6e3acb216",
        "gas": "0x244e31",
        "value": "0x621080227fef",
        "input": "0xb70d4241000000000000000000000000000000000000000000000000000000000000006000000000000000000000000000000000000000000000000000000000000008c000000000000000000000000000000000000000000000000000000000000009a0000000000000000000000000000000000000000000000000000000000000000600000000000000000000000000000000000000000000000000000000000000c000000000000000000000000000000000000000000000000000000000000002000000000000000000000000000000000000000000000000000000000000000340000000000000000000000000000000000000000000000000000000000000048000000000000000000000000000000000000000000000000000000000000005c00000000000000000000000000000000000000000000000000000000000000700000000000000000000000000000000000000000000000000000000000000762f000000000000000000000000741f0d8bde14140f62107fc60a0ee122b37d463000000000000000000000000000000000000000000000000006f05b59d3b20000000000000000000000000000000000000000000000000000000000000000000000000000000000000000000000000000000000000000000000000000000000e0000000000000000000000000000000000000000000000000000000000000010000000000000000000000000000000000000000000000000000000000000001200000000000000000000000000000000000000000000000000000000000000000000000000000000000000000000000000000000000000000000000000000000000000000000000000000000000000000000000000000000000000000000000000000000000000000000000000000000000000000000000000000000000007642000000000000000000000000741f0d8bde14140f62107fc60a0ee122b37d463000000000000000000000000000000000000000000000000006f05b59d3b20000000000000000000000000000000000000000000000000000000000000000000000000000000000000000000000000000000000000000000000000000000000e000000000000000000000000000000000000000000000000000000000000001000000000000000000000000000000000000000000000000000000000000000120000000000000000000000000000000000000000000000000000000000000000000000000000000000000000000000000000000000000000000000000000000000000000000000000000000000000000000000000000000000000000000000000000000000000000000000000000000000000000000000000000000000000767c000000000000000000000000741f0d8bde14140f62107fc60a0ee122b37d463000000000000000000000000000000000000000000000000006f05b59d3b20000000000000000000000000000000000000000000000000000000000000000000000000000000000000000000000000000000000000000000000000000000000e0000000000000000000000000000000000000000000000000000000000000010000000000000000000000000000000000000000000000000000000000000001200000000000000000000000000000000000000000000000000000000000000000000000000000000000000000000000000000000000000000000000000000000000000000000000000000000000000000000000000000000000000000000000000000000000000000000000000000000000000000000000000000000000007683000000000000000000000000741f0d8bde14140f62107fc60a0ee122b37d463000000000000000000000000000000000000000000000000006f05b59d3b20000000000000000000000000000000000000000000000000000000000000000000000000000000000000000000000000000000000000000000000000000000000e000000000000000000000000000000000000000000000000000000000000001000000000000000000000000000000000000000000000000000000000000000120000000000000000000000000000000000000000000000000000000000000000000000000000000000000000000000000000000000000000000000000000000000000000000000000000000000000000000000000000000000000000000000000000000000000000000000000000000000000000000000000000000000000759e000000000000000000000000741f0d8bde14140f62107fc60a0ee122b37d463000000000000000000000000000000000000000000000000006f05b59d3b20000000000000000000000000000000000000000000000000000000000000000000000000000000000000000000000000000000000000000000000000000000000e000000000000000000000000000000000000000000000000000000000000001000000000000000000000000000000000000000000000000000000000000000120000000000000000000000000000000000000000000000000000000000000000000000000000000000000000000000000000000000000000000000000000000000000000000000000000000000000000000000000000000000000000000000000000000000000000000000000000000000000000000000000000000000000759f000000000000000000000000741f0d8bde14140f62107fc60a0ee122b37d463000000000000000000000000000000000000000000000000006f05b59d3b20000000000000000000000000000000000000000000000000000000000000000000000000000000000000000000000000000000000000000000000000000000000e0000000000000000000000000000000000000000000000000000000000000010000000000000000000000000000000000000000000000000000000000000001200000000000000000000000000000000000000000000000000000000000000000000000000000000000000000000000000000000000000000000000000000000000000000000000000000000000000000000000000000000000000000000000000000000000000000000000000000000000000000000000000000000000000006000000000000000000000000a057d8d4fc86a62801ce363c169b0a8d192f6cee000000000000000000000000a057d8d4fc86a62801ce363c169b0a8d192f6cee000000000000000000000000a057d8d4fc86a62801ce363c169b0a8d192f6cee000000000000000000000000a057d8d4fc86a62801ce363c169b0a8d192f6cee000000000000000000000000a057d8d4fc86a62801ce363c169b0a8d192f6cee000000000000000000000000a057d8d4fc86a62801ce363c169b0a8d192f6cee00000000000000000000000000000000000000000000000000000000000000060000000000000000000000004a767e2ef83577225522ef8ed71056c6e3acb2160000000000000000000000004a767e2ef83577225522ef8ed71056c6e3acb2160000000000000000000000004a767e2ef83577225522ef8ed71056c6e3acb2160000000000000000000000004a767e2ef83577225522ef8ed71056c6e3acb2160000000000000000000000004a767e2ef83577225522ef8ed71056c6e3acb2160000000000000000000000004a767e2ef83577225522ef8ed71056c6e3acb216",
        "nonce": "0xaa",
        "chainId": "0x4e454152"
      },
      "additionalContracts": [],
      "isFixedGasLimit": false
    }
  ],
  "receipts": [
    {
      "status": "0x1",
      "cumulativeGasUsed": "0x0",
      "logs": [
        {
          "address": "0xa057d8d4fc86a62801ce363c169b0a8d192f6cee",
          "topics": [
            "0xddf252ad1be2c89b69c2b068fc378daa952ba7f163c4a11628f55a4df523b3ef",
            "0x0000000000000000000000004a767e2ef83577225522ef8ed71056c6e3acb216",
            "0x0000000000000000000000000000000000000000000000000000000000000000"
          ],
          "data": "0x00000000000000000000000000000000000000000000000006f05b59d3b20000",
          "blockHash": "0x0e32658e25709e69b999190aa68f99bcae511d04c96b6255727c8c8fa74428ba",
          "blockNumber": "0x9b17975",
          "transactionHash": "0x0847d15c23a303fcf65aa63fef375ccfc217772d32b0228c85fbd7812a4e4ad5",
          "transactionIndex": "0x1",
          "logIndex": "0x0",
          "removed": false
        },
        {
          "address": "0x1ace9dd1bc743ad036ef2d92af42ca70a1159df5",
          "topics": [
            "0x61ed099e74a97a1d7f8bb0952a88ca8b7b8ebd00c126ea04671f92a81213318a"
          ],
          "data": "0x000000000000000000000000a2b402ffe8dd7460a8b425644b6b9f50667f0a610000000000000000000000000000000000000000000000000000056401d4f056",
          "blockHash": "0x0e32658e25709e69b999190aa68f99bcae511d04c96b6255727c8c8fa74428ba",
          "blockNumber": "0x9b17975",
          "transactionHash": "0x0847d15c23a303fcf65aa63fef375ccfc217772d32b0228c85fbd7812a4e4ad5",
          "transactionIndex": "0x1",
          "logIndex": "0x1",
          "removed": false
        },
        {
          "address": "0x1ace9dd1bc743ad036ef2d92af42ca70a1159df5",
          "topics": [
            "0x07ea52d82345d6e838192107d8fd7123d9c2ec8e916cd0aad13fd2b60db24644"
          ],
          "data": "0x000000000000000000000000000000000000000000000000000000000000006000000000000000000000000000000000000000000000000000000000000000e000000000000000000000000000000000000000000000000000000000000001000000000000000000000000000000000000000000000000000000000000000003000000000000000000000000045d70bf1939af0489cb44533750a2e15c92d7d4000000000000000000000000d4a903930f2c9085586cda0b11d9681eecb20d2f000000000000000000000000dd7b5e1db4aafd5c8ec3b764efb8ed265aa5445b00000000000000000000000000000000000000000000000000000000000000000000000000000000000000000000000000000000000000000000000000000003000000000000000000000000000000000000000000000000000004b875502543000000000000000000000000000000000000000000000000000003ab4aab2b6d000000000000000000000000000000000000000000000000000003ab4aab2b6d",
          "blockHash": "0x0e32658e25709e69b999190aa68f99bcae511d04c96b6255727c8c8fa74428ba",
          "blockNumber": "0x9b17975",
          "transactionHash": "0x0847d15c23a303fcf65aa63fef375ccfc217772d32b0228c85fbd7812a4e4ad5",
          "transactionIndex": "0x1",
          "logIndex": "0x2",
          "removed": false
        },
        {
          "address": "0x1a44076050125825900e736c501f859c50fe728c",
          "topics": [
            "0x1ab700d4ced0c005b164c0f789fd09fcbb0156d4c2041b8a3bfbcd961cd1567f"
          ],
          "data": "0x000000000000000000000000000000000000000000000000000000000000006000000000000000000000000000000000000000000000000000000000000001200000000000000000000000001ace9dd1bc743ad036ef2d92af42ca70a1159df5000000000000000000000000000000000000000000000000000000000000009901000000000000000100007603000000000000000000000000a057d8d4fc86a62801ce363c169b0a8d192f6cee0000762f00000000000000000000000057558cb8d6005de0bae8a2789d5efaae52dba5a8499f8ed49fbc85f2e01f2927f9c5a7b7130deb4224dfd5681f5033c2ac4c4bfa000000000000000000000000741f0d8bde14140f62107fc60a0ee122b37d4630000000000007a12000000000000000000000000000000000000000000000000000000000000000000000000000001600030100110100000000000000000000000000030d4000000000000000000000",
          "blockHash": "0x0e32658e25709e69b999190aa68f99bcae511d04c96b6255727c8c8fa74428ba",
          "blockNumber": "0x9b17975",
          "transactionHash": "0x0847d15c23a303fcf65aa63fef375ccfc217772d32b0228c85fbd7812a4e4ad5",
          "transactionIndex": "0x1",
          "logIndex": "0x3",
          "removed": false
        },
        {
          "address": "0xa057d8d4fc86a62801ce363c169b0a8d192f6cee",
          "topics": [
            "0x85496b760a4b7f8d66384b9df21b381f5d1b1e79f229a47aaf4c232edc2fe59a",
            "0x499f8ed49fbc85f2e01f2927f9c5a7b7130deb4224dfd5681f5033c2ac4c4bfa",
            "0x0000000000000000000000004a767e2ef83577225522ef8ed71056c6e3acb216"
          ],
          "data": "0x000000000000000000000000000000000000000000000000000000000000762f00000000000000000000000000000000000000000000000006f05b59d3b2000000000000000000000000000000000000000000000000000006f05b59d3b20000",
          "blockHash": "0x0e32658e25709e69b999190aa68f99bcae511d04c96b6255727c8c8fa74428ba",
          "blockNumber": "0x9b17975",
          "transactionHash": "0x0847d15c23a303fcf65aa63fef375ccfc217772d32b0228c85fbd7812a4e4ad5",
          "transactionIndex": "0x1",
          "logIndex": "0x4",
          "removed": false
        },
        {
          "address": "0xa057d8d4fc86a62801ce363c169b0a8d192f6cee",
          "topics": [
            "0xddf252ad1be2c89b69c2b068fc378daa952ba7f163c4a11628f55a4df523b3ef",
            "0x0000000000000000000000004a767e2ef83577225522ef8ed71056c6e3acb216",
            "0x0000000000000000000000000000000000000000000000000000000000000000"
          ],
          "data": "0x00000000000000000000000000000000000000000000000006f05b59d3b20000",
          "blockHash": "0x0e32658e25709e69b999190aa68f99bcae511d04c96b6255727c8c8fa74428ba",
          "blockNumber": "0x9b17975",
          "transactionHash": "0x0847d15c23a303fcf65aa63fef375ccfc217772d32b0228c85fbd7812a4e4ad5",
          "transactionIndex": "0x1",
          "logIndex": "0x5",
          "removed": false
        },
        {
          "address": "0x1ace9dd1bc743ad036ef2d92af42ca70a1159df5",
          "topics": [
            "0x61ed099e74a97a1d7f8bb0952a88ca8b7b8ebd00c126ea04671f92a81213318a"
          ],
          "data": "0x000000000000000000000000a2b402ffe8dd7460a8b425644b6b9f50667f0a6100000000000000000000000000000000000000000000000000000543d41b1346",
          "blockHash": "0x0e32658e25709e69b999190aa68f99bcae511d04c96b6255727c8c8fa74428ba",
          "blockNumber": "0x9b17975",
          "transactionHash": "0x0847d15c23a303fcf65aa63fef375ccfc217772d32b0228c85fbd7812a4e4ad5",
          "transactionIndex": "0x1",
          "logIndex": "0x6",
          "removed": false
        },
        {
          "address": "0x1ace9dd1bc743ad036ef2d92af42ca70a1159df5",
          "topics": [
            "0x07ea52d82345d6e838192107d8fd7123d9c2ec8e916cd0aad13fd2b60db24644"
          ],
          "data": "0x000000000000000000000000000000000000000000000000000000000000006000000000000000000000000000000000000000000000000000000000000000e000000000000000000000000000000000000000000000000000000000000001000000000000000000000000000000000000000000000000000000000000000003000000000000000000000000045d70bf1939af0489cb44533750a2e15c92d7d4000000000000000000000000d4a903930f2c9085586cda0b11d9681eecb20d2f000000000000000000000000dd7b5e1db4aafd5c8ec3b764efb8ed265aa5445b00000000000000000000000000000000000000000000000000000000000000000000000000000000000000000000000000000000000000000000000000000003000000000000000000000000000000000000000000000000000000663e3db176000000000000000000000000000000000000000000000000000000621e5098e6000000000000000000000000000000000000000000000000000000621e5098e6",
          "blockHash": "0x0e32658e25709e69b999190aa68f99bcae511d04c96b6255727c8c8fa74428ba",
          "blockNumber": "0x9b17975",
          "transactionHash": "0x0847d15c23a303fcf65aa63fef375ccfc217772d32b0228c85fbd7812a4e4ad5",
          "transactionIndex": "0x1",
          "logIndex": "0x7",
          "removed": false
        },
        {
          "address": "0x1a44076050125825900e736c501f859c50fe728c",
          "topics": [
            "0x1ab700d4ced0c005b164c0f789fd09fcbb0156d4c2041b8a3bfbcd961cd1567f"
          ],
          "data": "0x000000000000000000000000000000000000000000000000000000000000006000000000000000000000000000000000000000000000000000000000000001200000000000000000000000001ace9dd1bc743ad036ef2d92af42ca70a1159df5000000000000000000000000000000000000000000000000000000000000009901000000000000000100007603000000000000000000000000a057d8d4fc86a62801ce363c169b0a8d192f6cee0000764200000000000000000000000057558cb8d6005de0bae8a2789d5efaae52dba5a89353b9e2259d32108915412270226089f2fbabd482556ba4178299bb377ecaf2000000000000000000000000741f0d8bde14140f62107fc60a0ee122b37d4630000000000007a12000000000000000000000000000000000000000000000000000000000000000000000000000001600030100110100000000000000000000000000030d4000000000000000000000",
          "blockHash": "0x0e32658e25709e69b999190aa68f99bcae511d04c96b6255727c8c8fa74428ba",
          "blockNumber": "0x9b17975",
          "transactionHash": "0x0847d15c23a303fcf65aa63fef375ccfc217772d32b0228c85fbd7812a4e4ad5",
          "transactionIndex": "0x1",
          "logIndex": "0x8",
          "removed": false
        },
        {
          "address": "0xa057d8d4fc86a62801ce363c169b0a8d192f6cee",
          "topics": [
            "0x85496b760a4b7f8d66384b9df21b381f5d1b1e79f229a47aaf4c232edc2fe59a",
            "0x9353b9e2259d32108915412270226089f2fbabd482556ba4178299bb377ecaf2",
            "0x0000000000000000000000004a767e2ef83577225522ef8ed71056c6e3acb216"
          ],
          "data": "0x000000000000000000000000000000000000000000000000000000000000764200000000000000000000000000000000000000000000000006f05b59d3b2000000000000000000000000000000000000000000000000000006f05b59d3b20000",
          "blockHash": "0x0e32658e25709e69b999190aa68f99bcae511d04c96b6255727c8c8fa74428ba",
          "blockNumber": "0x9b17975",
          "transactionHash": "0x0847d15c23a303fcf65aa63fef375ccfc217772d32b0228c85fbd7812a4e4ad5",
          "transactionIndex": "0x1",
          "logIndex": "0x9",
          "removed": false
        },
        {
          "address": "0xa057d8d4fc86a62801ce363c169b0a8d192f6cee",
          "topics": [
            "0xddf252ad1be2c89b69c2b068fc378daa952ba7f163c4a11628f55a4df523b3ef",
            "0x0000000000000000000000004a767e2ef83577225522ef8ed71056c6e3acb216",
            "0x0000000000000000000000000000000000000000000000000000000000000000"
          ],
          "data": "0x00000000000000000000000000000000000000000000000006f05b59d3b20000",
          "blockHash": "0x0e32658e25709e69b999190aa68f99bcae511d04c96b6255727c8c8fa74428ba",
          "blockNumber": "0x9b17975",
          "transactionHash": "0x0847d15c23a303fcf65aa63fef375ccfc217772d32b0228c85fbd7812a4e4ad5",
          "transactionIndex": "0x1",
          "logIndex": "0xa",
          "removed": false
        },
        {
          "address": "0x1ace9dd1bc743ad036ef2d92af42ca70a1159df5",
          "topics": [
            "0x61ed099e74a97a1d7f8bb0952a88ca8b7b8ebd00c126ea04671f92a81213318a"
          ],
          "data": "0x000000000000000000000000a2b402ffe8dd7460a8b425644b6b9f50667f0a61000000000000000000000000000000000000000000000000000016062b68c947",
          "blockHash": "0x0e32658e25709e69b999190aa68f99bcae511d04c96b6255727c8c8fa74428ba",
          "blockNumber": "0x9b17975",
          "transactionHash": "0x0847d15c23a303fcf65aa63fef375ccfc217772d32b0228c85fbd7812a4e4ad5",
          "transactionIndex": "0x1",
          "logIndex": "0xb",
          "removed": false
        },
        {
          "address": "0x1ace9dd1bc743ad036ef2d92af42ca70a1159df5",
          "topics": [
            "0x07ea52d82345d6e838192107d8fd7123d9c2ec8e916cd0aad13fd2b60db24644"
          ],
          "data": "0x000000000000000000000000000000000000000000000000000000000000006000000000000000000000000000000000000000000000000000000000000000e000000000000000000000000000000000000000000000000000000000000001000000000000000000000000000000000000000000000000000000000000000003000000000000000000000000045d70bf1939af0489cb44533750a2e15c92d7d4000000000000000000000000d4a903930f2c9085586cda0b11d9681eecb20d2f000000000000000000000000dd7b5e1db4aafd5c8ec3b764efb8ed265aa5445b00000000000000000000000000000000000000000000000000000000000000000000000000000000000000000000000000000000000000000000000000000003000000000000000000000000000000000000000000000000000000644e0e74bf000000000000000000000000000000000000000000000000000000604225c164000000000000000000000000000000000000000000000000000000604225c164",
          "blockHash": "0x0e32658e25709e69b999190aa68f99bcae511d04c96b6255727c8c8fa74428ba",
          "blockNumber": "0x9b17975",
          "transactionHash": "0x0847d15c23a303fcf65aa63fef375ccfc217772d32b0228c85fbd7812a4e4ad5",
          "transactionIndex": "0x1",
          "logIndex": "0xc",
          "removed": false
        },
        {
          "address": "0x1a44076050125825900e736c501f859c50fe728c",
          "topics": [
            "0x1ab700d4ced0c005b164c0f789fd09fcbb0156d4c2041b8a3bfbcd961cd1567f"
          ],
          "data": "0x000000000000000000000000000000000000000000000000000000000000006000000000000000000000000000000000000000000000000000000000000001200000000000000000000000001ace9dd1bc743ad036ef2d92af42ca70a1159df5000000000000000000000000000000000000000000000000000000000000009901000000000000000100007603000000000000000000000000a057d8d4fc86a62801ce363c169b0a8d192f6cee0000767c00000000000000000000000057558cb8d6005de0bae8a2789d5efaae52dba5a84235817eb28daffbd42f93732a725d0006995467afa308b9e609491340c7a631000000000000000000000000741f0d8bde14140f62107fc60a0ee122b37d4630000000000007a12000000000000000000000000000000000000000000000000000000000000000000000000000001600030100110100000000000000000000000000030d4000000000000000000000",
          "blockHash": "0x0e32658e25709e69b999190aa68f99bcae511d04c96b6255727c8c8fa74428ba",
          "blockNumber": "0x9b17975",
          "transactionHash": "0x0847d15c23a303fcf65aa63fef375ccfc217772d32b0228c85fbd7812a4e4ad5",
          "transactionIndex": "0x1",
          "logIndex": "0xd",
          "removed": false
        },
        {
          "address": "0xa057d8d4fc86a62801ce363c169b0a8d192f6cee",
          "topics": [
            "0x85496b760a4b7f8d66384b9df21b381f5d1b1e79f229a47aaf4c232edc2fe59a",
            "0x4235817eb28daffbd42f93732a725d0006995467afa308b9e609491340c7a631",
            "0x0000000000000000000000004a767e2ef83577225522ef8ed71056c6e3acb216"
          ],
          "data": "0x000000000000000000000000000000000000000000000000000000000000767c00000000000000000000000000000000000000000000000006f05b59d3b2000000000000000000000000000000000000000000000000000006f05b59d3b20000",
          "blockHash": "0x0e32658e25709e69b999190aa68f99bcae511d04c96b6255727c8c8fa74428ba",
          "blockNumber": "0x9b17975",
          "transactionHash": "0x0847d15c23a303fcf65aa63fef375ccfc217772d32b0228c85fbd7812a4e4ad5",
          "transactionIndex": "0x1",
          "logIndex": "0xe",
          "removed": false
        },
        {
          "address": "0xa057d8d4fc86a62801ce363c169b0a8d192f6cee",
          "topics": [
            "0xddf252ad1be2c89b69c2b068fc378daa952ba7f163c4a11628f55a4df523b3ef",
            "0x0000000000000000000000004a767e2ef83577225522ef8ed71056c6e3acb216",
            "0x0000000000000000000000000000000000000000000000000000000000000000"
          ],
          "data": "0x00000000000000000000000000000000000000000000000006f05b59d3b20000",
          "blockHash": "0x0e32658e25709e69b999190aa68f99bcae511d04c96b6255727c8c8fa74428ba",
          "blockNumber": "0x9b17975",
          "transactionHash": "0x0847d15c23a303fcf65aa63fef375ccfc217772d32b0228c85fbd7812a4e4ad5",
          "transactionIndex": "0x1",
          "logIndex": "0xf",
          "removed": false
        },
        {
          "address": "0x1ace9dd1bc743ad036ef2d92af42ca70a1159df5",
          "topics": [
            "0x61ed099e74a97a1d7f8bb0952a88ca8b7b8ebd00c126ea04671f92a81213318a"
          ],
          "data": "0x000000000000000000000000a2b402ffe8dd7460a8b425644b6b9f50667f0a610000000000000000000000000000000000000000000000000000153dd08cf548",
          "blockHash": "0x0e32658e25709e69b999190aa68f99bcae511d04c96b6255727c8c8fa74428ba",
          "blockNumber": "0x9b17975",
          "transactionHash": "0x0847d15c23a303fcf65aa63fef375ccfc217772d32b0228c85fbd7812a4e4ad5",
          "transactionIndex": "0x1",
          "logIndex": "0x10",
          "removed": false
        },
        {
          "address": "0x1ace9dd1bc743ad036ef2d92af42ca70a1159df5",
          "topics": [
            "0x07ea52d82345d6e838192107d8fd7123d9c2ec8e916cd0aad13fd2b60db24644"
          ],
          "data": "0x000000000000000000000000000000000000000000000000000000000000006000000000000000000000000000000000000000000000000000000000000000e000000000000000000000000000000000000000000000000000000000000001000000000000000000000000000000000000000000000000000000000000000003000000000000000000000000045d70bf1939af0489cb44533750a2e15c92d7d4000000000000000000000000d4a903930f2c9085586cda0b11d9681eecb20d2f000000000000000000000000dd7b5e1db4aafd5c8ec3b764efb8ed265aa5445b0000000000000000000000000000000000000000000000000000000000000000000000000000000000000000000000000000000000000000000000000000000300000000000000000000000000000000000000000000000000000019870614c0000000000000000000000000000000000000000000000000000000187f62f7f3000000000000000000000000000000000000000000000000000000187f62f7f3",
          "blockHash": "0x0e32658e25709e69b999190aa68f99bcae511d04c96b6255727c8c8fa74428ba",
          "blockNumber": "0x9b17975",
          "transactionHash": "0x0847d15c23a303fcf65aa63fef375ccfc217772d32b0228c85fbd7812a4e4ad5",
          "transactionIndex": "0x1",
          "logIndex": "0x11",
          "removed": false
        },
        {
          "address": "0x1a44076050125825900e736c501f859c50fe728c",
          "topics": [
            "0x1ab700d4ced0c005b164c0f789fd09fcbb0156d4c2041b8a3bfbcd961cd1567f"
          ],
          "data": "0x000000000000000000000000000000000000000000000000000000000000006000000000000000000000000000000000000000000000000000000000000001200000000000000000000000001ace9dd1bc743ad036ef2d92af42ca70a1159df5000000000000000000000000000000000000000000000000000000000000009901000000000000000100007603000000000000000000000000a057d8d4fc86a62801ce363c169b0a8d192f6cee0000768300000000000000000000000057558cb8d6005de0bae8a2789d5efaae52dba5a84c9f1b7813cf896bfd4998029f53c8a00c872764820353d6f07f2f943eeb7805000000000000000000000000741f0d8bde14140f62107fc60a0ee122b37d4630000000000007a12000000000000000000000000000000000000000000000000000000000000000000000000000001600030100110100000000000000000000000000030d4000000000000000000000",
          "blockHash": "0x0e32658e25709e69b999190aa68f99bcae511d04c96b6255727c8c8fa74428ba",
          "blockNumber": "0x9b17975",
          "transactionHash": "0x0847d15c23a303fcf65aa63fef375ccfc217772d32b0228c85fbd7812a4e4ad5",
          "transactionIndex": "0x1",
          "logIndex": "0x12",
          "removed": false
        },
        {
          "address": "0xa057d8d4fc86a62801ce363c169b0a8d192f6cee",
          "topics": [
            "0x85496b760a4b7f8d66384b9df21b381f5d1b1e79f229a47aaf4c232edc2fe59a",
            "0x4c9f1b7813cf896bfd4998029f53c8a00c872764820353d6f07f2f943eeb7805",
            "0x0000000000000000000000004a767e2ef83577225522ef8ed71056c6e3acb216"
          ],
          "data": "0x000000000000000000000000000000000000000000000000000000000000768300000000000000000000000000000000000000000000000006f05b59d3b2000000000000000000000000000000000000000000000000000006f05b59d3b20000",
          "blockHash": "0x0e32658e25709e69b999190aa68f99bcae511d04c96b6255727c8c8fa74428ba",
          "blockNumber": "0x9b17975",
          "transactionHash": "0x0847d15c23a303fcf65aa63fef375ccfc217772d32b0228c85fbd7812a4e4ad5",
          "transactionIndex": "0x1",
          "logIndex": "0x13",
          "removed": false
        },
        {
          "address": "0xa057d8d4fc86a62801ce363c169b0a8d192f6cee",
          "topics": [
            "0xddf252ad1be2c89b69c2b068fc378daa952ba7f163c4a11628f55a4df523b3ef",
            "0x0000000000000000000000004a767e2ef83577225522ef8ed71056c6e3acb216",
            "0x0000000000000000000000000000000000000000000000000000000000000000"
          ],
          "data": "0x00000000000000000000000000000000000000000000000006f05b59d3b20000",
          "blockHash": "0x0e32658e25709e69b999190aa68f99bcae511d04c96b6255727c8c8fa74428ba",
          "blockNumber": "0x9b17975",
          "transactionHash": "0x0847d15c23a303fcf65aa63fef375ccfc217772d32b0228c85fbd7812a4e4ad5",
          "transactionIndex": "0x1",
          "logIndex": "0x14",
          "removed": false
        },
        {
          "address": "0x1ace9dd1bc743ad036ef2d92af42ca70a1159df5",
          "topics": [
            "0x61ed099e74a97a1d7f8bb0952a88ca8b7b8ebd00c126ea04671f92a81213318a"
          ],
          "data": "0x000000000000000000000000a2b402ffe8dd7460a8b425644b6b9f50667f0a6100000000000000000000000000000000000000000000000000000c53731a18bb",
          "blockHash": "0x0e32658e25709e69b999190aa68f99bcae511d04c96b6255727c8c8fa74428ba",
          "blockNumber": "0x9b17975",
          "transactionHash": "0x0847d15c23a303fcf65aa63fef375ccfc217772d32b0228c85fbd7812a4e4ad5",
          "transactionIndex": "0x1",
          "logIndex": "0x15",
          "removed": false
        },
        {
          "address": "0x1ace9dd1bc743ad036ef2d92af42ca70a1159df5",
          "topics": [
            "0x07ea52d82345d6e838192107d8fd7123d9c2ec8e916cd0aad13fd2b60db24644"
          ],
          "data": "0x000000000000000000000000000000000000000000000000000000000000006000000000000000000000000000000000000000000000000000000000000000e000000000000000000000000000000000000000000000000000000000000001000000000000000000000000000000000000000000000000000000000000000003000000000000000000000000045d70bf1939af0489cb44533750a2e15c92d7d4000000000000000000000000d4a903930f2c9085586cda0b11d9681eecb20d2f000000000000000000000000dd7b5e1db4aafd5c8ec3b764efb8ed265aa5445b000000000000000000000000000000000000000000000000000000000000000000000000000000000000000000000000000000000000000000000000000000030000000000000000000000000000000000000000000000000000022490a6e01700000000000000000000000000000000000000000000000000000217e7dab49000000000000000000000000000000000000000000000000000000217e7dab490",
          "blockHash": "0x0e32658e25709e69b999190aa68f99bcae511d04c96b6255727c8c8fa74428ba",
          "blockNumber": "0x9b17975",
          "transactionHash": "0x0847d15c23a303fcf65aa63fef375ccfc217772d32b0228c85fbd7812a4e4ad5",
          "transactionIndex": "0x1",
          "logIndex": "0x16",
          "removed": false
        },
        {
          "address": "0x1a44076050125825900e736c501f859c50fe728c",
          "topics": [
            "0x1ab700d4ced0c005b164c0f789fd09fcbb0156d4c2041b8a3bfbcd961cd1567f"
          ],
          "data": "0x000000000000000000000000000000000000000000000000000000000000006000000000000000000000000000000000000000000000000000000000000001200000000000000000000000001ace9dd1bc743ad036ef2d92af42ca70a1159df5000000000000000000000000000000000000000000000000000000000000009901000000000000000100007603000000000000000000000000a057d8d4fc86a62801ce363c169b0a8d192f6cee0000759e00000000000000000000000057558cb8d6005de0bae8a2789d5efaae52dba5a84c9ebe3a1caa97eeb7002cc83bcb6b00ce8c045a439b2dccce3a142fd2cf69de000000000000000000000000741f0d8bde14140f62107fc60a0ee122b37d4630000000000007a12000000000000000000000000000000000000000000000000000000000000000000000000000001600030100110100000000000000000000000000030d4000000000000000000000",
          "blockHash": "0x0e32658e25709e69b999190aa68f99bcae511d04c96b6255727c8c8fa74428ba",
          "blockNumber": "0x9b17975",
          "transactionHash": "0x0847d15c23a303fcf65aa63fef375ccfc217772d32b0228c85fbd7812a4e4ad5",
          "transactionIndex": "0x1",
          "logIndex": "0x17",
          "removed": false
        },
        {
          "address": "0xa057d8d4fc86a62801ce363c169b0a8d192f6cee",
          "topics": [
            "0x85496b760a4b7f8d66384b9df21b381f5d1b1e79f229a47aaf4c232edc2fe59a",
            "0x4c9ebe3a1caa97eeb7002cc83bcb6b00ce8c045a439b2dccce3a142fd2cf69de",
            "0x0000000000000000000000004a767e2ef83577225522ef8ed71056c6e3acb216"
          ],
          "data": "0x000000000000000000000000000000000000000000000000000000000000759e00000000000000000000000000000000000000000000000006f05b59d3b2000000000000000000000000000000000000000000000000000006f05b59d3b20000",
          "blockHash": "0x0e32658e25709e69b999190aa68f99bcae511d04c96b6255727c8c8fa74428ba",
          "blockNumber": "0x9b17975",
          "transactionHash": "0x0847d15c23a303fcf65aa63fef375ccfc217772d32b0228c85fbd7812a4e4ad5",
          "transactionIndex": "0x1",
          "logIndex": "0x18",
          "removed": false
        },
        {
          "address": "0xa057d8d4fc86a62801ce363c169b0a8d192f6cee",
          "topics": [
            "0xddf252ad1be2c89b69c2b068fc378daa952ba7f163c4a11628f55a4df523b3ef",
            "0x0000000000000000000000004a767e2ef83577225522ef8ed71056c6e3acb216",
            "0x0000000000000000000000000000000000000000000000000000000000000000"
          ],
          "data": "0x00000000000000000000000000000000000000000000000006f05b59d3b20000",
          "blockHash": "0x0e32658e25709e69b999190aa68f99bcae511d04c96b6255727c8c8fa74428ba",
          "blockNumber": "0x9b17975",
          "transactionHash": "0x0847d15c23a303fcf65aa63fef375ccfc217772d32b0228c85fbd7812a4e4ad5",
          "transactionIndex": "0x1",
          "logIndex": "0x19",
          "removed": false
        },
        {
          "address": "0x1ace9dd1bc743ad036ef2d92af42ca70a1159df5",
          "topics": [
            "0x61ed099e74a97a1d7f8bb0952a88ca8b7b8ebd00c126ea04671f92a81213318a"
          ],
          "data": "0x000000000000000000000000a2b402ffe8dd7460a8b425644b6b9f50667f0a6100000000000000000000000000000000000000000000000000000ab2e75b4354",
          "blockHash": "0x0e32658e25709e69b999190aa68f99bcae511d04c96b6255727c8c8fa74428ba",
          "blockNumber": "0x9b17975",
          "transactionHash": "0x0847d15c23a303fcf65aa63fef375ccfc217772d32b0228c85fbd7812a4e4ad5",
          "transactionIndex": "0x1",
          "logIndex": "0x1a",
          "removed": false
        },
        {
          "address": "0x1ace9dd1bc743ad036ef2d92af42ca70a1159df5",
          "topics": [
            "0x07ea52d82345d6e838192107d8fd7123d9c2ec8e916cd0aad13fd2b60db24644"
          ],
          "data": "0x000000000000000000000000000000000000000000000000000000000000006000000000000000000000000000000000000000000000000000000000000000e000000000000000000000000000000000000000000000000000000000000001000000000000000000000000000000000000000000000000000000000000000003000000000000000000000000045d70bf1939af0489cb44533750a2e15c92d7d4000000000000000000000000d4a903930f2c9085586cda0b11d9681eecb20d2f000000000000000000000000dd7b5e1db4aafd5c8ec3b764efb8ed265aa5445b000000000000000000000000000000000000000000000000000000000000000000000000000000000000000000000000000000000000000000000000000000030000000000000000000000000000000000000000000000000000000bb23d73400000000000000000000000000000000000000000000000000000000ab1c124d90000000000000000000000000000000000000000000000000000000ab1c124d9",
          "blockHash": "0x0e32658e25709e69b999190aa68f99bcae511d04c96b6255727c8c8fa74428ba",
          "blockNumber": "0x9b17975",
          "transactionHash": "0x0847d15c23a303fcf65aa63fef375ccfc217772d32b0228c85fbd7812a4e4ad5",
          "transactionIndex": "0x1",
          "logIndex": "0x1b",
          "removed": false
        },
        {
          "address": "0x1a44076050125825900e736c501f859c50fe728c",
          "topics": [
            "0x1ab700d4ced0c005b164c0f789fd09fcbb0156d4c2041b8a3bfbcd961cd1567f"
          ],
          "data": "0x000000000000000000000000000000000000000000000000000000000000006000000000000000000000000000000000000000000000000000000000000001200000000000000000000000001ace9dd1bc743ad036ef2d92af42ca70a1159df5000000000000000000000000000000000000000000000000000000000000009901000000000000000100007603000000000000000000000000a057d8d4fc86a62801ce363c169b0a8d192f6cee0000759f00000000000000000000000057558cb8d6005de0bae8a2789d5efaae52dba5a86599e9d51e94c06f20f568778583875dd10aa3972348cd0880da4df3ca65c148000000000000000000000000741f0d8bde14140f62107fc60a0ee122b37d4630000000000007a12000000000000000000000000000000000000000000000000000000000000000000000000000001600030100110100000000000000000000000000030d4000000000000000000000",
          "blockHash": "0x0e32658e25709e69b999190aa68f99bcae511d04c96b6255727c8c8fa74428ba",
          "blockNumber": "0x9b17975",
          "transactionHash": "0x0847d15c23a303fcf65aa63fef375ccfc217772d32b0228c85fbd7812a4e4ad5",
          "transactionIndex": "0x1",
          "logIndex": "0x1c",
          "removed": false
        },
        {
          "address": "0xa057d8d4fc86a62801ce363c169b0a8d192f6cee",
          "topics": [
            "0x85496b760a4b7f8d66384b9df21b381f5d1b1e79f229a47aaf4c232edc2fe59a",
            "0x6599e9d51e94c06f20f568778583875dd10aa3972348cd0880da4df3ca65c148",
            "0x0000000000000000000000004a767e2ef83577225522ef8ed71056c6e3acb216"
          ],
          "data": "0x000000000000000000000000000000000000000000000000000000000000759f00000000000000000000000000000000000000000000000006f05b59d3b2000000000000000000000000000000000000000000000000000006f05b59d3b20000",
          "blockHash": "0x0e32658e25709e69b999190aa68f99bcae511d04c96b6255727c8c8fa74428ba",
          "blockNumber": "0x9b17975",
          "transactionHash": "0x0847d15c23a303fcf65aa63fef375ccfc217772d32b0228c85fbd7812a4e4ad5",
          "transactionIndex": "0x1",
          "logIndex": "0x1d",
          "removed": false
        }
      ],
      "logsBloom": "0x00000040000080082000000000000000000000000000000000000000001000000000000038004000000000000000040000000000000000000000000000000000000002003000000000000008000000010000000000000000000000000000002000000000020000008000000000000800000080000010000000000010000000000100000000000014000000080000000000000000000000000000000000000000000000009000800000100000000000000080000000400000000444000000008040000002000000000040000080000000000000000004000000000000000020000000040000000000000000000000002000000000018020200000000000000000",
      "type": "0x0",
      "transactionHash": "0x0847d15c23a303fcf65aa63fef375ccfc217772d32b0228c85fbd7812a4e4ad5",
      "transactionIndex": "0x1",
      "blockHash": "0x0e32658e25709e69b999190aa68f99bcae511d04c96b6255727c8c8fa74428ba",
      "blockNumber": "0x9b17975",
      "gasUsed": "0x1a48d4",
      "effectiveGasPrice": "0x42c1d80",
      "from": "0x45dce8e4f2dc005a5f28206a46cb034697eeda8e",
      "to": "0x4a767e2ef83577225522ef8ed71056c6e3acb216",
      "contractAddress": null,
      "nearReceiptHash": "0xad7be27dfd3ec39953b60a3ab37dcf772112955b4817e88b43af5ebfbe062848",
      "nearTransactionHash": "0x3ca106b3dcbe24cc17d8cb61fbbfc6d642d9730d0b9fe39dc216e54fe920b324"
    }
  ],
  "libraries": [],
  "pending": [],
  "returns": {},
  "timestamp": 1757019862229,
  "chain": 1313161554,
  "commit": "2c9551f"
}