{
  "transactions": [
    {
      "hash": "0xe7dde6090918456b3b7e0d6a36c85bedbedb6862e313a0f38c3e14c98184a468",
      "transactionType": "CALL",
      "contractName": null,
      "contractAddress": "0x4a767e2ef83577225522ef8ed71056c6e3acb216",
      "function": "batchBridgeWithEthFeeFromWallet((uint32,bytes32,uint256,uint256,bytes,bytes,bytes)[],address[],address[])",
      "arguments": [
        "[(30101, 0x000000000000000000000000741f0d8bde14140f62107fc60a0ee122b37d4630, 500000000000000000, 0, 0x, 0x, 0x), (30243, 0x000000000000000000000000741f0d8bde14140f62107fc60a0ee122b37d4630, 500000000000000000, 0, 0x, 0x, 0x), (30184, 0x000000000000000000000000741f0d8bde14140f62107fc60a0ee122b37d4630, 500000000000000000, 0, 0x, 0x, 0x), (30260, 0x000000000000000000000000741f0d8bde14140f62107fc60a0ee122b37d4630, 500000000000000000, 0, 0x, 0x, 0x), (30280, 0x000000000000000000000000741f0d8bde14140f62107fc60a0ee122b37d4630, 500000000000000000, 0, 0x, 0x, 0x)]",
        "[0xA057D8D4Fc86a62801CE363C169b0A8d192F6cEE, 0xA057D8D4Fc86a62801CE363C169b0A8d192F6cEE, 0xA057D8D4Fc86a62801CE363C169b0A8d192F6cEE, 0xA057D8D4Fc86a62801CE363C169b0A8d192F6cEE, 0xA057D8D4Fc86a62801CE363C169b0A8d192F6cEE]",
        "[0x4a767e2ef83577225522Ef8Ed71056c6E3acB216, 0x4a767e2ef83577225522Ef8Ed71056c6E3acB216, 0x4a767e2ef83577225522Ef8Ed71056c6E3acB216, 0x4a767e2ef83577225522Ef8Ed71056c6E3acB216, 0x4a767e2ef83577225522Ef8Ed71056c6E3acB216]"
      ],
      "transaction": {
        "from": "0x45dce8e4f2dc005a5f28206a46cb034697eeda8e",
        "to": "0x4a767e2ef83577225522ef8ed71056c6e3acb216",
        "gas": "0x1e192b",
        "value": "0x13ba64adcc69b",
        "input": "0xb70d4241000000000000000000000000000000000000000000000000000000000000006000000000000000000000000000000000000000000000000000000000000007600000000000000000000000000000000000000000000000000000000000000820000000000000000000000000000000000000000000000000000000000000000500000000000000000000000000000000000000000000000000000000000000a000000000000000000000000000000000000000000000000000000000000001e00000000000000000000000000000000000000000000000000000000000000320000000000000000000000000000000000000000000000000000000000000046000000000000000000000000000000000000000000000000000000000000005a00000000000000000000000000000000000000000000000000000000000007595000000000000000000000000741f0d8bde14140f62107fc60a0ee122b37d463000000000000000000000000000000000000000000000000006f05b59d3b20000000000000000000000000000000000000000000000000000000000000000000000000000000000000000000000000000000000000000000000000000000000e0000000000000000000000000000000000000000000000000000000000000010000000000000000000000000000000000000000000000000000000000000001200000000000000000000000000000000000000000000000000000000000000000000000000000000000000000000000000000000000000000000000000000000000000000000000000000000000000000000000000000000000000000000000000000000000000000000000000000000000000000000000000000000000007623000000000000000000000000741f0d8bde14140f62107fc60a0ee122b37d463000000000000000000000000000000000000000000000000006f05b59d3b20000000000000000000000000000000000000000000000000000000000000000000000000000000000000000000000000000000000000000000000000000000000e00000000000000000000000000000000000000000000000000000000000000100000000000000000000000000000000000000000000000000000000000000012000000000000000000000000000000000000000000000000000000000000000000000000000000000000000000000000000000000000000000000000000000000000000000000000000000000000000000000000000000000000000000000000000000000000000000000000000000000000000000000000000000000000075e8000000000000000000000000741f0d8bde14140f62107fc60a0ee122b37d463000000000000000000000000000000000000000000000000006f05b59d3b20000000000000000000000000000000000000000000000000000000000000000000000000000000000000000000000000000000000000000000000000000000000e0000000000000000000000000000000000000000000000000000000000000010000000000000000000000000000000000000000000000000000000000000001200000000000000000000000000000000000000000000000000000000000000000000000000000000000000000000000000000000000000000000000000000000000000000000000000000000000000000000000000000000000000000000000000000000000000000000000000000000000000000000000000000000000007634000000000000000000000000741f0d8bde14140f62107fc60a0ee122b37d463000000000000000000000000000000000000000000000000006f05b59d3b20000000000000000000000000000000000000000000000000000000000000000000000000000000000000000000000000000000000000000000000000000000000e0000000000000000000000000000000000000000000000000000000000000010000000000000000000000000000000000000000000000000000000000000001200000000000000000000000000000000000000000000000000000000000000000000000000000000000000000000000000000000000000000000000000000000000000000000000000000000000000000000000000000000000000000000000000000000000000000000000000000000000000000000000000000000000007648000000000000000000000000741f0d8bde14140f62107fc60a0ee122b37d463000000000000000000000000000000000000000000000000006f05b59d3b20000000000000000000000000000000000000000000000000000000000000000000000000000000000000000000000000000000000000000000000000000000000e0000000000000000000000000000000000000000000000000000000000000010000000000000000000000000000000000000000000000000000000000000001200000000000000000000000000000000000000000000000000000000000000000000000000000000000000000000000000000000000000000000000000000000000000000000000000000000000000000000000000000000000000000000000000000000000000000000000000000000000000000000000000000000000000005000000000000000000000000a057d8d4fc86a62801ce363c169b0a8d192f6cee000000000000000000000000a057d8d4fc86a62801ce363c169b0a8d192f6cee000000000000000000000000a057d8d4fc86a62801ce363c169b0a8d192f6cee000000000000000000000000a057d8d4fc86a62801ce363c169b0a8d192f6cee000000000000000000000000a057d8d4fc86a62801ce363c169b0a8d192f6cee00000000000000000000000000000000000000000000000000000000000000050000000000000000000000004a767e2ef83577225522ef8ed71056c6e3acb2160000000000000000000000004a767e2ef83577225522ef8ed71056c6e3acb2160000000000000000000000004a767e2ef83577225522ef8ed71056c6e3acb2160000000000000000000000004a767e2ef83577225522ef8ed71056c6e3acb2160000000000000000000000004a767e2ef83577225522ef8ed71056c6e3acb216",
        "nonce": "0xa9",
        "chainId": "0x4e454152"
      },
      "additionalContracts": [],
      "isFixedGasLimit": false
    }
  ],
  "receipts": [
    {
      "status": "0x1",
      "cumulativeGasUsed": "0x0",
      "logs": [
        {
          "address": "0xa057d8d4fc86a62801ce363c169b0a8d192f6cee",
          "topics": [
            "0xddf252ad1be2c89b69c2b068fc378daa952ba7f163c4a11628f55a4df523b3ef",
            "0x0000000000000000000000004a767e2ef83577225522ef8ed71056c6e3acb216",
            "0x0000000000000000000000000000000000000000000000000000000000000000"
          ],
          "data": "0x00000000000000000000000000000000000000000000000006f05b59d3b20000",
          "blockHash": "0xc8edef7a8b84f783f9613e7b49db71ef21bdf15ffaf18f27d5ba5b29fe23ae58",
          "blockNumber": "0x9b17701",
          "transactionHash": "0xe7dde6090918456b3b7e0d6a36c85bedbedb6862e313a0f38c3e14c98184a468",
          "transactionIndex": "0x0",
          "logIndex": "0x0",
          "removed": false
        },
        {
          "address": "0x1ace9dd1bc743ad036ef2d92af42ca70a1159df5",
          "topics": [
            "0x61ed099e74a97a1d7f8bb0952a88ca8b7b8ebd00c126ea04671f92a81213318a"
          ],
          "data": "0x000000000000000000000000a2b402ffe8dd7460a8b425644b6b9f50667f0a61000000000000000000000000000000000000000000000000000066bc706a76b0",
          "blockHash": "0xc8edef7a8b84f783f9613e7b49db71ef21bdf15ffaf18f27d5ba5b29fe23ae58",
          "blockNumber": "0x9b17701",
          "transactionHash": "0xe7dde6090918456b3b7e0d6a36c85bedbedb6862e313a0f38c3e14c98184a468",
          "transactionIndex": "0x0",
          "logIndex": "0x1",
          "removed": false
        },
        {
          "address": "0x1ace9dd1bc743ad036ef2d92af42ca70a1159df5",
          "topics": [
            "0x07ea52d82345d6e838192107d8fd7123d9c2ec8e916cd0aad13fd2b60db24644"
          ],
          "data": "0x000000000000000000000000000000000000000000000000000000000000006000000000000000000000000000000000000000000000000000000000000000e000000000000000000000000000000000000000000000000000000000000001000000000000000000000000000000000000000000000000000000000000000003000000000000000000000000045d70bf1939af0489cb44533750a2e15c92d7d4000000000000000000000000d4a903930f2c9085586cda0b11d9681eecb20d2f000000000000000000000000dd7b5e1db4aafd5c8ec3b764efb8ed265aa5445b00000000000000000000000000000000000000000000000000000000000000000000000000000000000000000000000000000000000000000000000000000003000000000000000000000000000000000000000000000000000018f3b0043a920000000000000000000000000000000000000000000000000000182bc19766980000000000000000000000000000000000000000000000000000182bc1976698",
          "blockHash": "0xc8edef7a8b84f783f9613e7b49db71ef21bdf15ffaf18f27d5ba5b29fe23ae58",
          "blockNumber": "0x9b17701",
          "transactionHash": "0xe7dde6090918456b3b7e0d6a36c85bedbedb6862e313a0f38c3e14c98184a468",
          "transactionIndex": "0x0",
          "logIndex": "0x2",
          "removed": false
        },
        {
          "address": "0x1a44076050125825900e736c501f859c50fe728c",
          "topics": [
            "0x1ab700d4ced0c005b164c0f789fd09fcbb0156d4c2041b8a3bfbcd961cd1567f"
          ],
          "data": "0x000000000000000000000000000000000000000000000000000000000000006000000000000000000000000000000000000000000000000000000000000001200000000000000000000000001ace9dd1bc743ad036ef2d92af42ca70a1159df5000000000000000000000000000000000000000000000000000000000000009901000000000000000100007603000000000000000000000000a057d8d4fc86a62801ce363c169b0a8d192f6cee0000759500000000000000000000000057558cb8d6005de0bae8a2789d5efaae52dba5a8746fb02049ccb672e9e5d49dc987fa89cc03ae0231993e264a39bc8e222164f8000000000000000000000000741f0d8bde14140f62107fc60a0ee122b37d4630000000000007a12000000000000000000000000000000000000000000000000000000000000000000000000000001600030100110100000000000000000000000000030d4000000000000000000000",
          "blockHash": "0xc8edef7a8b84f783f9613e7b49db71ef21bdf15ffaf18f27d5ba5b29fe23ae58",
          "blockNumber": "0x9b17701",
          "transactionHash": "0xe7dde6090918456b3b7e0d6a36c85bedbedb6862e313a0f38c3e14c98184a468",
          "transactionIndex": "0x0",
          "logIndex": "0x3",
          "removed": false
        },
        {
          "address": "0xa057d8d4fc86a62801ce363c169b0a8d192f6cee",
          "topics": [
            "0x85496b760a4b7f8d66384b9df21b381f5d1b1e79f229a47aaf4c232edc2fe59a",
            "0x746fb02049ccb672e9e5d49dc987fa89cc03ae0231993e264a39bc8e222164f8",
            "0x0000000000000000000000004a767e2ef83577225522ef8ed71056c6e3acb216"
          ],
          "data": "0x000000000000000000000000000000000000000000000000000000000000759500000000000000000000000000000000000000000000000006f05b59d3b2000000000000000000000000000000000000000000000000000006f05b59d3b20000",
          "blockHash": "0xc8edef7a8b84f783f9613e7b49db71ef21bdf15ffaf18f27d5ba5b29fe23ae58",
          "blockNumber": "0x9b17701",
          "transactionHash": "0xe7dde6090918456b3b7e0d6a36c85bedbedb6862e313a0f38c3e14c98184a468",
          "transactionIndex": "0x0",
          "logIndex": "0x4",
          "removed": false
        },
        {
          "address": "0xa057d8d4fc86a62801ce363c169b0a8d192f6cee",
          "topics": [
            "0xddf252ad1be2c89b69c2b068fc378daa952ba7f163c4a11628f55a4df523b3ef",
            "0x0000000000000000000000004a767e2ef83577225522ef8ed71056c6e3acb216",
            "0x0000000000000000000000000000000000000000000000000000000000000000"
          ],
          "data": "0x00000000000000000000000000000000000000000000000006f05b59d3b20000",
          "blockHash": "0xc8edef7a8b84f783f9613e7b49db71ef21bdf15ffaf18f27d5ba5b29fe23ae58",
          "blockNumber": "0x9b17701",
          "transactionHash": "0xe7dde6090918456b3b7e0d6a36c85bedbedb6862e313a0f38c3e14c98184a468",
          "transactionIndex": "0x0",
          "logIndex": "0x5",
          "removed": false
        },
        {
          "address": "0x1ace9dd1bc743ad036ef2d92af42ca70a1159df5",
          "topics": [
            "0x61ed099e74a97a1d7f8bb0952a88ca8b7b8ebd00c126ea04671f92a81213318a"
          ],
          "data": "0x000000000000000000000000a2b402ffe8dd7460a8b425644b6b9f50667f0a6100000000000000000000000000000000000000000000000000006a2bbfbe99f6",
          "blockHash": "0xc8edef7a8b84f783f9613e7b49db71ef21bdf15ffaf18f27d5ba5b29fe23ae58",
          "blockNumber": "0x9b17701",
          "transactionHash": "0xe7dde6090918456b3b7e0d6a36c85bedbedb6862e313a0f38c3e14c98184a468",
          "transactionIndex": "0x0",
          "logIndex": "0x6",
          "removed": false
        },
        {
          "address": "0x1ace9dd1bc743ad036ef2d92af42ca70a1159df5",
          "topics": [
            "0x07ea52d82345d6e838192107d8fd7123d9c2ec8e916cd0aad13fd2b60db24644"
          ],
          "data": "0x000000000000000000000000000000000000000000000000000000000000006000000000000000000000000000000000000000000000000000000000000000e000000000000000000000000000000000000000000000000000000000000001000000000000000000000000000000000000000000000000000000000000000003000000000000000000000000045d70bf1939af0489cb44533750a2e15c92d7d4000000000000000000000000d4a903930f2c9085586cda0b11d9681eecb20d2f000000000000000000000000dd7b5e1db4aafd5c8ec3b764efb8ed265aa5445b000000000000000000000000000000000000000000000000000000000000000000000000000000000000000000000000000000000000000000000000000000030000000000000000000000000000000000000000000000000000041d050ffa6e000000000000000000000000000000000000000000000000000003376e24623b000000000000000000000000000000000000000000000000000003376e24623b",
          "blockHash": "0xc8edef7a8b84f783f9613e7b49db71ef21bdf15ffaf18f27d5ba5b29fe23ae58",
          "blockNumber": "0x9b17701",
          "transactionHash": "0xe7dde6090918456b3b7e0d6a36c85bedbedb6862e313a0f38c3e14c98184a468",
          "transactionIndex": "0x0",
          "logIndex": "0x7",
          "removed": false
        },
        {
          "address": "0x1a44076050125825900e736c501f859c50fe728c",
          "topics": [
            "0x1ab700d4ced0c005b164c0f789fd09fcbb0156d4c2041b8a3bfbcd961cd1567f"
          ],
          "data": "0x000000000000000000000000000000000000000000000000000000000000006000000000000000000000000000000000000000000000000000000000000001200000000000000000000000001ace9dd1bc743ad036ef2d92af42ca70a1159df5000000000000000000000000000000000000000000000000000000000000009901000000000000000100007603000000000000000000000000a057d8d4fc86a62801ce363c169b0a8d192f6cee0000762300000000000000000000000057558cb8d6005de0bae8a2789d5efaae52dba5a810782521572fd13076f05537a56077fac167fad167c4cb61084ef59867765886000000000000000000000000741f0d8bde14140f62107fc60a0ee122b37d4630000000000007a12000000000000000000000000000000000000000000000000000000000000000000000000000001600030100110100000000000000000000000000030d4000000000000000000000",
          "blockHash": "0xc8edef7a8b84f783f9613e7b49db71ef21bdf15ffaf18f27d5ba5b29fe23ae58",
          "blockNumber": "0x9b17701",
          "transactionHash": "0xe7dde6090918456b3b7e0d6a36c85bedbedb6862e313a0f38c3e14c98184a468",
          "transactionIndex": "0x0",
          "logIndex": "0x8",
          "removed": false
        },
        {
          "address": "0xa057d8d4fc86a62801ce363c169b0a8d192f6cee",
          "topics": [
            "0x85496b760a4b7f8d66384b9df21b381f5d1b1e79f229a47aaf4c232edc2fe59a",
            "0x10782521572fd13076f05537a56077fac167fad167c4cb61084ef59867765886",
            "0x0000000000000000000000004a767e2ef83577225522ef8ed71056c6e3acb216"
          ],
          "data": "0x000000000000000000000000000000000000000000000000000000000000762300000000000000000000000000000000000000000000000006f05b59d3b2000000000000000000000000000000000000000000000000000006f05b59d3b20000",
          "blockHash": "0xc8edef7a8b84f783f9613e7b49db71ef21bdf15ffaf18f27d5ba5b29fe23ae58",
          "blockNumber": "0x9b17701",
          "transactionHash": "0xe7dde6090918456b3b7e0d6a36c85bedbedb6862e313a0f38c3e14c98184a468",
          "transactionIndex": "0x0",
          "logIndex": "0x9",
          "removed": false
        },
        {
          "address": "0xa057d8d4fc86a62801ce363c169b0a8d192f6cee",
          "topics": [
            "0xddf252ad1be2c89b69c2b068fc378daa952ba7f163c4a11628f55a4df523b3ef",
            "0x0000000000000000000000004a767e2ef83577225522ef8ed71056c6e3acb216",
            "0x0000000000000000000000000000000000000000000000000000000000000000"
          ],
          "data": "0x00000000000000000000000000000000000000000000000006f05b59d3b20000",
          "blockHash": "0xc8edef7a8b84f783f9613e7b49db71ef21bdf15ffaf18f27d5ba5b29fe23ae58",
          "blockNumber": "0x9b17701",
          "transactionHash": "0xe7dde6090918456b3b7e0d6a36c85bedbedb6862e313a0f38c3e14c98184a468",
          "transactionIndex": "0x0",
          "logIndex": "0xa",
          "removed": false
        },
        {
          "address": "0x1ace9dd1bc743ad036ef2d92af42ca70a1159df5",
          "topics": [
            "0x61ed099e74a97a1d7f8bb0952a88ca8b7b8ebd00c126ea04671f92a81213318a"
          ],
          "data": "0x000000000000000000000000a2b402ffe8dd7460a8b425644b6b9f50667f0a6100000000000000000000000000000000000000000000000000000b213f824c02",
          "blockHash": "0xc8edef7a8b84f783f9613e7b49db71ef21bdf15ffaf18f27d5ba5b29fe23ae58",
          "blockNumber": "0x9b17701",
          "transactionHash": "0xe7dde6090918456b3b7e0d6a36c85bedbedb6862e313a0f38c3e14c98184a468",
          "transactionIndex": "0x0",
          "logIndex": "0xb",
          "removed": false
        },
        {
          "address": "0x1ace9dd1bc743ad036ef2d92af42ca70a1159df5",
          "topics": [
            "0x07ea52d82345d6e838192107d8fd7123d9c2ec8e916cd0aad13fd2b60db24644"
          ],
          "data": "0x000000000000000000000000000000000000000000000000000000000000006000000000000000000000000000000000000000000000000000000000000000e000000000000000000000000000000000000000000000000000000000000001000000000000000000000000000000000000000000000000000000000000000003000000000000000000000000045d70bf1939af0489cb44533750a2e15c92d7d4000000000000000000000000d4a903930f2c9085586cda0b11d9681eecb20d2f000000000000000000000000dd7b5e1db4aafd5c8ec3b764efb8ed265aa5445b000000000000000000000000000000000000000000000000000000000000000000000000000000000000000000000000000000000000000000000000000000030000000000000000000000000000000000000000000000000000003d68ffbaed0000000000000000000000000000000000000000000000000000003aeec789e40000000000000000000000000000000000000000000000000000003aeec789e4",
          "blockHash": "0xc8edef7a8b84f783f9613e7b49db71ef21bdf15ffaf18f27d5ba5b29fe23ae58",
          "blockNumber": "0x9b17701",
          "transactionHash": "0xe7dde6090918456b3b7e0d6a36c85bedbedb6862e313a0f38c3e14c98184a468",
          "transactionIndex": "0x0",
          "logIndex": "0xc",
          "removed": false
        },
        {
          "address": "0x1a44076050125825900e736c501f859c50fe728c",
          "topics": [
            "0x1ab700d4ced0c005b164c0f789fd09fcbb0156d4c2041b8a3bfbcd961cd1567f"
          ],
          "data": "0x000000000000000000000000000000000000000000000000000000000000006000000000000000000000000000000000000000000000000000000000000001200000000000000000000000001ace9dd1bc743ad036ef2d92af42ca70a1159df5000000000000000000000000000000000000000000000000000000000000009901000000000000000100007603000000000000000000000000a057d8d4fc86a62801ce363c169b0a8d192f6cee000075e800000000000000000000000057558cb8d6005de0bae8a2789d5efaae52dba5a82d40b3ea3c374aa22bc7cf392f5d76a34f5128df2b9df51c81267e35096a9edc000000000000000000000000741f0d8bde14140f62107fc60a0ee122b37d4630000000000007a12000000000000000000000000000000000000000000000000000000000000000000000000000001600030100110100000000000000000000000000030d4000000000000000000000",
          "blockHash": "0xc8edef7a8b84f783f9613e7b49db71ef21bdf15ffaf18f27d5ba5b29fe23ae58",
          "blockNumber": "0x9b17701",
          "transactionHash": "0xe7dde6090918456b3b7e0d6a36c85bedbedb6862e313a0f38c3e14c98184a468",
          "transactionIndex": "0x0",
          "logIndex": "0xd",
          "removed": false
        },
        {
          "address": "0xa057d8d4fc86a62801ce363c169b0a8d192f6cee",
          "topics": [
            "0x85496b760a4b7f8d66384b9df21b381f5d1b1e79f229a47aaf4c232edc2fe59a",
            "0x2d40b3ea3c374aa22bc7cf392f5d76a34f5128df2b9df51c81267e35096a9edc",
            "0x0000000000000000000000004a767e2ef83577225522ef8ed71056c6e3acb216"
          ],
          "data": "0x00000000000000000000000000000000000000000000000000000000000075e800000000000000000000000000000000000000000000000006f05b59d3b2000000000000000000000000000000000000000000000000000006f05b59d3b20000",
          "blockHash": "0xc8edef7a8b84f783f9613e7b49db71ef21bdf15ffaf18f27d5ba5b29fe23ae58",
          "blockNumber": "0x9b17701",
          "transactionHash": "0xe7dde6090918456b3b7e0d6a36c85bedbedb6862e313a0f38c3e14c98184a468",
          "transactionIndex": "0x0",
          "logIndex": "0xe",
          "removed": false
        },
        {
          "address": "0xa057d8d4fc86a62801ce363c169b0a8d192f6cee",
          "topics": [
            "0xddf252ad1be2c89b69c2b068fc378daa952ba7f163c4a11628f55a4df523b3ef",
            "0x0000000000000000000000004a767e2ef83577225522ef8ed71056c6e3acb216",
            "0x0000000000000000000000000000000000000000000000000000000000000000"
          ],
          "data": "0x00000000000000000000000000000000000000000000000006f05b59d3b20000",
          "blockHash": "0xc8edef7a8b84f783f9613e7b49db71ef21bdf15ffaf18f27d5ba5b29fe23ae58",
          "blockNumber": "0x9b17701",
          "transactionHash": "0xe7dde6090918456b3b7e0d6a36c85bedbedb6862e313a0f38c3e14c98184a468",
          "transactionIndex": "0x0",
          "logIndex": "0xf",
          "removed": false
        },
        {
          "address": "0x1ace9dd1bc743ad036ef2d92af42ca70a1159df5",
          "topics": [
            "0x61ed099e74a97a1d7f8bb0952a88ca8b7b8ebd00c126ea04671f92a81213318a"
          ],
          "data": "0x000000000000000000000000a2b402ffe8dd7460a8b425644b6b9f50667f0a610000000000000000000000000000000000000000000000000000068dc47c45ce",
          "blockHash": "0xc8edef7a8b84f783f9613e7b49db71ef21bdf15ffaf18f27d5ba5b29fe23ae58",
          "blockNumber": "0x9b17701",
          "transactionHash": "0xe7dde6090918456b3b7e0d6a36c85bedbedb6862e313a0f38c3e14c98184a468",
          "transactionIndex": "0x0",
          "logIndex": "0x10",
          "removed": false
        },
        {
          "address": "0x1ace9dd1bc743ad036ef2d92af42ca70a1159df5",
          "topics": [
            "0x07ea52d82345d6e838192107d8fd7123d9c2ec8e916cd0aad13fd2b60db24644"
          ],
          "data": "0x000000000000000000000000000000000000000000000000000000000000006000000000000000000000000000000000000000000000000000000000000000e000000000000000000000000000000000000000000000000000000000000001000000000000000000000000000000000000000000000000000000000000000003000000000000000000000000045d70bf1939af0489cb44533750a2e15c92d7d4000000000000000000000000d4a903930f2c9085586cda0b11d9681eecb20d2f000000000000000000000000dd7b5e1db4aafd5c8ec3b764efb8ed265aa5445b0000000000000000000000000000000000000000000000000000000000000000000000000000000000000000000000000000000000000000000000000000000300000000000000000000000000000000000000000000000000000018fc08736800000000000000000000000000000000000000000000000000000017fa00c77500000000000000000000000000000000000000000000000000000017fa00c775",
          "blockHash": "0xc8edef7a8b84f783f9613e7b49db71ef21bdf15ffaf18f27d5ba5b29fe23ae58",
          "blockNumber": "0x9b17701",
          "transactionHash": "0xe7dde6090918456b3b7e0d6a36c85bedbedb6862e313a0f38c3e14c98184a468",
          "transactionIndex": "0x0",
          "logIndex": "0x11",
          "removed": false
        },
        {
          "address": "0x1a44076050125825900e736c501f859c50fe728c",
          "topics": [
            "0x1ab700d4ced0c005b164c0f789fd09fcbb0156d4c2041b8a3bfbcd961cd1567f"
          ],
          "data": "0x000000000000000000000000000000000000000000000000000000000000006000000000000000000000000000000000000000000000000000000000000001200000000000000000000000001ace9dd1bc743ad036ef2d92af42ca70a1159df5000000000000000000000000000000000000000000000000000000000000009901000000000000000100007603000000000000000000000000a057d8d4fc86a62801ce363c169b0a8d192f6cee0000763400000000000000000000000057558cb8d6005de0bae8a2789d5efaae52dba5a8e12af7d644488eb6f0990a9b9515e846f930c846811d18c7e4665dd142082848000000000000000000000000741f0d8bde14140f62107fc60a0ee122b37d4630000000000007a12000000000000000000000000000000000000000000000000000000000000000000000000000001600030100110100000000000000000000000000030d4000000000000000000000",
          "blockHash": "0xc8edef7a8b84f783f9613e7b49db71ef21bdf15ffaf18f27d5ba5b29fe23ae58",
          "blockNumber": "0x9b17701",
          "transactionHash": "0xe7dde6090918456b3b7e0d6a36c85bedbedb6862e313a0f38c3e14c98184a468",
          "transactionIndex": "0x0",
          "logIndex": "0x12",
          "removed": false
        },
        {
          "address": "0xa057d8d4fc86a62801ce363c169b0a8d192f6cee",
          "topics": [
            "0x85496b760a4b7f8d66384b9df21b381f5d1b1e79f229a47aaf4c232edc2fe59a",
            "0xe12af7d644488eb6f0990a9b9515e846f930c846811d18c7e4665dd142082848",
            "0x0000000000000000000000004a767e2ef83577225522ef8ed71056c6e3acb216"
          ],
          "data": "0x000000000000000000000000000000000000000000000000000000000000763400000000000000000000000000000000000000000000000006f05b59d3b2000000000000000000000000000000000000000000000000000006f05b59d3b20000",
          "blockHash": "0xc8edef7a8b84f783f9613e7b49db71ef21bdf15ffaf18f27d5ba5b29fe23ae58",
          "blockNumber": "0x9b17701",
          "transactionHash": "0xe7dde6090918456b3b7e0d6a36c85bedbedb6862e313a0f38c3e14c98184a468",
          "transactionIndex": "0x0",
          "logIndex": "0x13",
          "removed": false
        },
        {
          "address": "0xa057d8d4fc86a62801ce363c169b0a8d192f6cee",
          "topics": [
            "0xddf252ad1be2c89b69c2b068fc378daa952ba7f163c4a11628f55a4df523b3ef",
            "0x0000000000000000000000004a767e2ef83577225522ef8ed71056c6e3acb216",
            "0x0000000000000000000000000000000000000000000000000000000000000000"
          ],
          "data": "0x00000000000000000000000000000000000000000000000006f05b59d3b20000",
          "blockHash": "0xc8edef7a8b84f783f9613e7b49db71ef21bdf15ffaf18f27d5ba5b29fe23ae58",
          "blockNumber": "0x9b17701",
          "transactionHash": "0xe7dde6090918456b3b7e0d6a36c85bedbedb6862e313a0f38c3e14c98184a468",
          "transactionIndex": "0x0",
          "logIndex": "0x14",
          "removed": false
        },
        {
          "address": "0x1ace9dd1bc743ad036ef2d92af42ca70a1159df5",
          "topics": [
            "0x61ed099e74a97a1d7f8bb0952a88ca8b7b8ebd00c126ea04671f92a81213318a"
          ],
          "data": "0x000000000000000000000000a2b402ffe8dd7460a8b425644b6b9f50667f0a6100000000000000000000000000000000000000000000000000000436a07fb4a7",
          "blockHash": "0xc8edef7a8b84f783f9613e7b49db71ef21bdf15ffaf18f27d5ba5b29fe23ae58",
          "blockNumber": "0x9b17701",
          "transactionHash": "0xe7dde6090918456b3b7e0d6a36c85bedbedb6862e313a0f38c3e14c98184a468",
          "transactionIndex": "0x0",
          "logIndex": "0x15",
          "removed": false
        },
        {
          "address": "0x1ace9dd1bc743ad036ef2d92af42ca70a1159df5",
          "topics": [
            "0x07ea52d82345d6e838192107d8fd7123d9c2ec8e916cd0aad13fd2b60db24644"
          ],
          "data": "0x000000000000000000000000000000000000000000000000000000000000006000000000000000000000000000000000000000000000000000000000000000e000000000000000000000000000000000000000000000000000000000000001000000000000000000000000000000000000000000000000000000000000000003000000000000000000000000045d70bf1939af0489cb44533750a2e15c92d7d4000000000000000000000000d4a903930f2c9085586cda0b11d9681eecb20d2f000000000000000000000000dd7b5e1db4aafd5c8ec3b764efb8ed265aa5445b0000000000000000000000000000000000000000000000000000000000000000000000000000000000000000000000000000000000000000000000000000000300000000000000000000000000000000000000000000000000000001c536008100000000000000000000000000000000000000000000000000000001b2ed6ba800000000000000000000000000000000000000000000000000000001b2ed6ba8",
          "blockHash": "0xc8edef7a8b84f783f9613e7b49db71ef21bdf15ffaf18f27d5ba5b29fe23ae58",
          "blockNumber": "0x9b17701",
          "transactionHash": "0xe7dde6090918456b3b7e0d6a36c85bedbedb6862e313a0f38c3e14c98184a468",
          "transactionIndex": "0x0",
          "logIndex": "0x16",
          "removed": false
        },
        {
          "address": "0x1a44076050125825900e736c501f859c50fe728c",
          "topics": [
            "0x1ab700d4ced0c005b164c0f789fd09fcbb0156d4c2041b8a3bfbcd961cd1567f"
          ],
          "data": "0x000000000000000000000000000000000000000000000000000000000000006000000000000000000000000000000000000000000000000000000000000001200000000000000000000000001ace9dd1bc743ad036ef2d92af42ca70a1159df5000000000000000000000000000000000000000000000000000000000000009901000000000000000100007603000000000000000000000000a057d8d4fc86a62801ce363c169b0a8d192f6cee0000764800000000000000000000000057558cb8d6005de0bae8a2789d5efaae52dba5a8a9f7f32091db35f17e5a75590fab94fddb528f10b768a60f8d79ea238e0964ff000000000000000000000000741f0d8bde14140f62107fc60a0ee122b37d4630000000000007a12000000000000000000000000000000000000000000000000000000000000000000000000000001600030100110100000000000000000000000000030d4000000000000000000000",
          "blockHash": "0xc8edef7a8b84f783f9613e7b49db71ef21bdf15ffaf18f27d5ba5b29fe23ae58",
          "blockNumber": "0x9b17701",
          "transactionHash": "0xe7dde6090918456b3b7e0d6a36c85bedbedb6862e313a0f38c3e14c98184a468",
          "transactionIndex": "0x0",
          "logIndex": "0x17",
          "removed": false
        },
        {
          "address": "0xa057d8d4fc86a62801ce363c169b0a8d192f6cee",
          "topics": [
            "0x85496b760a4b7f8d66384b9df21b381f5d1b1e79f229a47aaf4c232edc2fe59a",
            "0xa9f7f32091db35f17e5a75590fab94fddb528f10b768a60f8d79ea238e0964ff",
            "0x0000000000000000000000004a767e2ef83577225522ef8ed71056c6e3acb216"
          ],
          "data": "0x000000000000000000000000000000000000000000000000000000000000764800000000000000000000000000000000000000000000000006f05b59d3b2000000000000000000000000000000000000000000000000000006f05b59d3b20000",
          "blockHash": "0xc8edef7a8b84f783f9613e7b49db71ef21bdf15ffaf18f27d5ba5b29fe23ae58",
          "blockNumber": "0x9b17701",
          "transactionHash": "0xe7dde6090918456b3b7e0d6a36c85bedbedb6862e313a0f38c3e14c98184a468",
          "transactionIndex": "0x0",
          "logIndex": "0x18",
          "removed": false
        }
      ],
      "logsBloom": "0x00000000000080000000002000000000000000000000000000000000001000000000000028000000000000000000200000000000000000000000000000000000000002002000000000000008000000010000000000080020000000000040000000000000020000008000000000080800080080002010000000000010000000000000000000000020000000080000800000000000000000000000000000000000000000008000800000100000000000000000000000400000000440000000008000000003000008000004000080000000010000000000000000000000008020000000040000000000000000000000002000000000018020000000000000000000",
      "type": "0x0",
      "transactionHash": "0xe7dde6090918456b3b7e0d6a36c85bedbedb6862e313a0f38c3e14c98184a468",
      "transactionIndex": "0x0",
      "blockHash": "0xc8edef7a8b84f783f9613e7b49db71ef21bdf15ffaf18f27d5ba5b29fe23ae58",
      "blockNumber": "0x9b17701",
      "gasUsed": "0x15ca68",
      "effectiveGasPrice": "0x42c1d80",
      "from": "0x45dce8e4f2dc005a5f28206a46cb034697eeda8e",
      "to": "0x4a767e2ef83577225522ef8ed71056c6e3acb216",
      "contractAddress": null,
      "nearReceiptHash": "0x943d3096bdb5b4b4bf5cd5fdac720811e35ce38d0717c5ff1a1b1b482b2523a3",
      "nearTransactionHash": "0x9f5b33e265fd2a340169a33c6ed23f77829cc241058c7dbf30a4601c4d44e0bd"
    }
  ],
  "libraries": [],
  "pending": [],
  "returns": {},
  "timestamp": 1757019480773,
  "chain": 1313161554,
  "commit": "2c9551f"
}