{
  "transactions": [
    {
      "hash": "0x2280279d70ad98e33de78d7d16ed666254502e046cbe91260afc515964720168",
      "transactionType": "CALL",
      "contractName": null,
      "contractAddress": "0x4a767e2ef83577225522ef8ed71056c6e3acb216",
      "function": "batchBridgeWithEthFeeFromWallet((uint32,bytes32,uint256,uint256,bytes,bytes,bytes)[],address[],address[])",
      "arguments": [
        "[(30383, 0x000000000000000000000000741f0d8bde14140f62107fc60a0ee122b37d4630, 500000000000000000, 0, 0x, 0x, 0x)]",
        "[0xA057D8D4Fc86a62801CE363C169b0A8d192F6cEE]",
        "[0x4a767e2ef83577225522Ef8Ed71056c6E3acB216]"
      ],
      "transaction": {
        "from": "0x45dce8e4f2dc005a5f28206a46cb034697eeda8e",
        "to": "0x4a767e2ef83577225522ef8ed71056c6e3acb216",
        "gas": "0x8c37c",
        "value": "0x14f4c7bebfe6",
        "input": "0xb70d4241000000000000000000000000000000000000000000000000000000000000006000000000000000000000000000000000000000000000000000000000000001e000000000000000000000000000000000000000000000000000000000000002200000000000000000000000000000000000000000000000000000000000000001000000000000000000000000000000000000000000000000000000000000002000000000000000000000000000000000000000000000000000000000000076af000000000000000000000000741f0d8bde14140f62107fc60a0ee122b37d463000000000000000000000000000000000000000000000000006f05b59d3b20000000000000000000000000000000000000000000000000000000000000000000000000000000000000000000000000000000000000000000000000000000000e0000000000000000000000000000000000000000000000000000000000000010000000000000000000000000000000000000000000000000000000000000001200000000000000000000000000000000000000000000000000000000000000000000000000000000000000000000000000000000000000000000000000000000000000000000000000000000000000000000000000000000000000000000000000000000000000000000000000000000000000000000000000000000000000001000000000000000000000000a057d8d4fc86a62801ce363c169b0a8d192f6cee00000000000000000000000000000000000000000000000000000000000000010000000000000000000000004a767e2ef83577225522ef8ed71056c6e3acb216",
        "nonce": "0xbc",
        "chainId": "0x4e454152"
      },
      "additionalContracts": [],
      "isFixedGasLimit": false
    }
  ],
  "receipts": [
    {
      "status": "0x1",
      "cumulativeGasUsed": "0x0",
      "logs": [
        {
          "address": "0xa057d8d4fc86a62801ce363c169b0a8d192f6cee",
          "topics": [
            "0xddf252ad1be2c89b69c2b068fc378daa952ba7f163c4a11628f55a4df523b3ef",
            "0x0000000000000000000000004a767e2ef83577225522ef8ed71056c6e3acb216",
            "0x0000000000000000000000000000000000000000000000000000000000000000"
          ],
          "data": "0x00000000000000000000000000000000000000000000000006f05b59d3b20000",
          "blockHash": "0x797ffd03923d00dd7df8124964fcc7015f6bd4c200405e498af10581d4da21ee",
          "blockNumber": "0x9f492d2",
          "transactionHash": "0x2280279d70ad98e33de78d7d16ed666254502e046cbe91260afc515964720168",
          "transactionIndex": "0x0",
          "logIndex": "0x0",
          "removed": false
        },
        {
          "address": "0x1ace9dd1bc743ad036ef2d92af42ca70a1159df5",
          "topics": [
            "0x61ed099e74a97a1d7f8bb0952a88ca8b7b8ebd00c126ea04671f92a81213318a"
          ],
          "data": "0x000000000000000000000000a2b402ffe8dd7460a8b425644b6b9f50667f0a61000000000000000000000000000000000000000000000000000014f4c7b6282f",
          "blockHash": "0x797ffd03923d00dd7df8124964fcc7015f6bd4c200405e498af10581d4da21ee",
          "blockNumber": "0x9f492d2",
          "transactionHash": "0x2280279d70ad98e33de78d7d16ed666254502e046cbe91260afc515964720168",
          "transactionIndex": "0x0",
          "logIndex": "0x1",
          "removed": false
        },
        {
          "address": "0x1ace9dd1bc743ad036ef2d92af42ca70a1159df5",
          "topics": [
            "0x07ea52d82345d6e838192107d8fd7123d9c2ec8e916cd0aad13fd2b60db24644"
          ],
          "data": "0x000000000000000000000000000000000000000000000000000000000000006000000000000000000000000000000000000000000000000000000000000000e000000000000000000000000000000000000000000000000000000000000001000000000000000000000000000000000000000000000000000000000000000003000000000000000000000000045d70bf1939af0489cb44533750a2e15c92d7d4000000000000000000000000d4a903930f2c9085586cda0b11d9681eecb20d2f000000000000000000000000dd7b5e1db4aafd5c8ec3b764efb8ed265aa5445b00000000000000000000000000000000000000000000000000000000000000000000000000000000000000000000000000000000000000000000000000000003000000000000000000000000000000000000000000000000000000000002f181000000000000000000000000000000000000000000000000000000000002d31b000000000000000000000000000000000000000000000000000000000002d31b",
          "blockHash": "0x797ffd03923d00dd7df8124964fcc7015f6bd4c200405e498af10581d4da21ee",
          "blockNumber": "0x9f492d2",
          "transactionHash": "0x2280279d70ad98e33de78d7d16ed666254502e046cbe91260afc515964720168",
          "transactionIndex": "0x0",
          "logIndex": "0x2",
          "removed": false
        },
        {
          "address": "0x1a44076050125825900e736c501f859c50fe728c",
          "topics": [
            "0x1ab700d4ced0c005b164c0f789fd09fcbb0156d4c2041b8a3bfbcd961cd1567f"
          ],
          "data": "0x000000000000000000000000000000000000000000000000000000000000006000000000000000000000000000000000000000000000000000000000000001200000000000000000000000001ace9dd1bc743ad036ef2d92af42ca70a1159df5000000000000000000000000000000000000000000000000000000000000009901000000000000000100007603000000000000000000000000a057d8d4fc86a62801ce363c169b0a8d192f6cee000076af00000000000000000000000057558cb8d6005de0bae8a2789d5efaae52dba5a87dd9e33162bf3c0f8e2043babe68c1c108727f23fa926ebc799d0192a881a4ed000000000000000000000000741f0d8bde14140f62107fc60a0ee122b37d4630000000000007a12000000000000000000000000000000000000000000000000000000000000000000000000000001600030100110100000000000000000000000000030d4000000000000000000000",
          "blockHash": "0x797ffd03923d00dd7df8124964fcc7015f6bd4c200405e498af10581d4da21ee",
          "blockNumber": "0x9f492d2",
          "transactionHash": "0x2280279d70ad98e33de78d7d16ed666254502e046cbe91260afc515964720168",
          "transactionIndex": "0x0",
          "logIndex": "0x3",
          "removed": false
        },
        {
          "address": "0xa057d8d4fc86a62801ce363c169b0a8d192f6cee",
          "topics": [
            "0x85496b760a4b7f8d66384b9df21b381f5d1b1e79f229a47aaf4c232edc2fe59a",
            "0x7dd9e33162bf3c0f8e2043babe68c1c108727f23fa926ebc799d0192a881a4ed",
            "0x0000000000000000000000004a767e2ef83577225522ef8ed71056c6e3acb216"
          ],
          "data": "0x00000000000000000000000000000000000000000000000000000000000076af00000000000000000000000000000000000000000000000006f05b59d3b2000000000000000000000000000000000000000000000000000006f05b59d3b20000",
          "blockHash": "0x797ffd03923d00dd7df8124964fcc7015f6bd4c200405e498af10581d4da21ee",
          "blockNumber": "0x9f492d2",
          "transactionHash": "0x2280279d70ad98e33de78d7d16ed666254502e046cbe91260afc515964720168",
          "transactionIndex": "0x0",
          "logIndex": "0x4",
          "removed": false
        }
      ],
      "logsBloom": "0x00000000000080000000000000000000000000000000000000000000001000000000000028000000020000000000000000000000000000000000000000000000000002002000000000000008000000010000000000000000000000000000000000000000020000008000000000000800000080000010000000000010000000000000000000000000000000080000040000000000000000000000000000000000000000008000800000100000000000000000000000400000000440000000008000000002000000000000100080000000000000000000000000000000000020000000040000000000000000000000002000000000018020000000000000000000",
      "type": "0x0",
      "transactionHash": "0x2280279d70ad98e33de78d7d16ed666254502e046cbe91260afc515964720168",
      "transactionIndex": "0x0",
      "blockHash": "0x797ffd03923d00dd7df8124964fcc7015f6bd4c200405e498af10581d4da21ee",
      "blockNumber": "0x9f492d2",
      "gasUsed": "0x6583f",
      "effectiveGasPrice": "0x42c1d80",
      "from": "0x45dce8e4f2dc005a5f28206a46cb034697eeda8e",
      "to": "0x4a767e2ef83577225522ef8ed71056c6e3acb216",
      "contractAddress": null,
      "nearReceiptHash": "0xe8b2faca1f3918b745d9a9c0edacf7240f6d556a530687bd99436a811d5c2ea8",
      "nearTransactionHash": "0xff3a595a80ad991b30de21532839fcf8b6e9b16b12d73127b9925357671abae7"
    }
  ],
  "libraries": [],
  "pending": [],
  "returns": {},
  "timestamp": 1759694512750,
  "chain": 1313161554,
  "commit": "eed1662"
}