{
  "transactions": [
    {
      "hash": "0x1b4f7b58fba41cf70849b83899678400d3b65146bc036380dae5699ff975376e",
      "transactionType": "CALL",
      "contractName": null,
      "contractAddress": "0xfeec000000000000000000000000000000000000",
      "function": "setUserToken(address)",
      "arguments": [
        "0x20C0000000000000000000000000000000000000"
      ],
      "transaction": {
        "from": "0x45dce8e4f2dc005a5f28206a46cb034697eeda8e",
        "to": "0xfeec000000000000000000000000000000000000",
        "gas": "0x7646",
        "value": "0x0",
        "input": "0xe789744400000000000000000000000020c0000000000000000000000000000000000000",
        "nonce": "0xc8",
        "chainId": "0x1079",
        "feeToken": null,
        "calls": [],
        "keyType": null,
        "keyData": null
      },
      "additionalContracts": [],
      "isFixedGasLimit": false
    },
    {
      "hash": "0xe67d01ffd3851662846671afe3f57f0d63a68d809e1635baba379af8ef07dbe5",
      "transactionType": "CALL",
      "contractName": null,
      "contractAddress": "0x20c0000000000000000000000000000000000000",
      "function": "approve(address,uint256)",
      "arguments": [
        "0x741F0d8Bde14140f62107FC60A0EE122B37D4630",
        "24720"
      ],
      "transaction": {
        "from": "0x45dce8e4f2dc005a5f28206a46cb034697eeda8e",
        "to": "0x20c0000000000000000000000000000000000000",
        "gas": "0x4424a",
        "value": "0x0",
        "input": "0x095ea7b3000000000000000000000000741f0d8bde14140f62107fc60a0ee122b37d46300000000000000000000000000000000000000000000000000000000000006090",
        "nonce": "0xc9",
        "chainId": "0x1079",
        "feeToken": null,
        "calls": [],
        "keyType": null,
        "keyData": null
      },
      "additionalContracts": [],
      "isFixedGasLimit": false
    },
    {
      "hash": "0x6bb97762a744da2239ff9fe47812039b065c2a4bfbabb1765b849a885f4f750c",
      "transactionType": "CALL",
      "contractName": null,
      "contractAddress": "0x741f0d8bde14140f62107fc60a0ee122b37d4630",
      "function": "batchBridgeWithTIP20FeeFromWallet((uint32,bytes32,uint256,uint256,bytes,bytes,bytes)[],address[],address[])",
      "arguments": [
        "[(30255, 0x000000000000000000000000741f0d8bde14140f62107fc60a0ee122b37d4630, 10000000000000000000, 0, 0x, 0x, 0x)]",
        "[0x57558Cb8d6005DE0BAe8a2789d5EfaaE52dba5a8]",
        "[0x741F0d8Bde14140f62107FC60A0EE122B37D4630]"
      ],
      "transaction": {
        "from": "0x45dce8e4f2dc005a5f28206a46cb034697eeda8e",
        "to": "0x741f0d8bde14140f62107fc60a0ee122b37d4630",
        "gas": "0x9b923",
        "value": "0x0",
        "input": "0xddfe224e000000000000000000000000000000000000000000000000000000000000006000000000000000000000000000000000000000000000000000000000000001e0000000000000000000000000000000000000000000000000000000000000022000000000000000000000000000000000000000000000000000000000000000010000000000000000000000000000000000000000000000000000000000000020000000000000000000000000000000000000000000000000000000000000762f000000000000000000000000741f0d8bde14140f62107fc60a0ee122b37d46300000000000000000000000000000000000000000000000008ac7230489e80000000000000000000000000000000000000000000000000000000000000000000000000000000000000000000000000000000000000000000000000000000000e000000000000000000000000000000000000000000000000000000000000001000000000000000000000000000000000000000000000000000000000000000120000000000000000000000000000000000000000000000000000000000000000000000000000000000000000000000000000000000000000000000000000000000000000000000000000000000000000000000000000000000000000000000000000000000000000000000000000000000000000000000000000000000000000100000000000000000000000057558cb8d6005de0bae8a2789d5efaae52dba5a80000000000000000000000000000000000000000000000000000000000000001000000000000000000000000741f0d8bde14140f62107fc60a0ee122b37d4630",
        "nonce": "0xca",
        "chainId": "0x1079",
        "feeToken": null,
        "calls": [],
        "keyType": null,
        "keyData": null
      },
      "additionalContracts": [],
      "isFixedGasLimit": false
    }
  ],
  "receipts": [
    {
      "type": "0x2",
      "status": "0x1",
      "cumulativeGasUsed": "0x6d18",
      "logs": [
        {
          "address": "0xfeec000000000000000000000000000000000000",
          "topics": [
            "0xabc7758d4ca817ce0d125eb731121a1304c36077b791253be835b95472368856",
            "0x00000000000000000000000045dce8e4f2dc005a5f28206a46cb034697eeda8e",
            "0x00000000000000000000000020c0000000000000000000000000000000000000"
          ],
          "data": "0x",
          "blockHash": "0x96c8f36db1f89c21af10be7435619b14613935c45256927818d9497fa55a7838",
          "blockNumber": "0x65904a",
          "blockTimestamp": "0x699fb96a",
          "transactionHash": "0x1b4f7b58fba41cf70849b83899678400d3b65146bc036380dae5699ff975376e",
          "transactionIndex": "0x0",
          "logIndex": "0x0",
          "removed": false
        },
        {
          "address": "0x20c0000000000000000000000000000000000000",
          "topics": [
            "0xddf252ad1be2c89b69c2b068fc378daa952ba7f163c4a11628f55a4df523b3ef",
            "0x00000000000000000000000045dce8e4f2dc005a5f28206a46cb034697eeda8e",
            "0x000000000000000000000000feec000000000000000000000000000000000000"
          ],
          "data": "0x000000000000000000000000000000000000000000000000000000000000022f",
          "blockHash": "0x96c8f36db1f89c21af10be7435619b14613935c45256927818d9497fa55a7838",
          "blockNumber": "0x65904a",
          "blockTimestamp": "0x699fb96a",
          "transactionHash": "0x1b4f7b58fba41cf70849b83899678400d3b65146bc036380dae5699ff975376e",
          "transactionIndex": "0x0",
          "logIndex": "0x1",
          "removed": false
        }
      ],
      "logsBloom": "0x00000000000000000000000200000000000000000000000000000000000000000000040000000000000000000100000000000000000000000000000000000000000004000000000000000008000000000000000000000000000000000400000000000000000000000080000000000000000000000000000000000010100000000000000000000000000000000020000000000000800000000000000000000000000020000000000000000000000400000000000000000000000000040000000000000002000000000000000000000000001000000080000000000000000000000000000000000000000100000000800002000800000000000000000000000000",
      "transactionHash": "0x1b4f7b58fba41cf70849b83899678400d3b65146bc036380dae5699ff975376e",
      "transactionIndex": "0x0",
      "blockHash": "0x96c8f36db1f89c21af10be7435619b14613935c45256927818d9497fa55a7838",
      "blockNumber": "0x65904a",
      "gasUsed": "0x6d18",
      "effectiveGasPrice": "0x4a817c801",
      "from": "0x45dce8e4f2dc005a5f28206a46cb034697eeda8e",
      "to": "0xfeec000000000000000000000000000000000000",
      "contractAddress": null,
      "feeToken": "0x20c0000000000000000000000000000000000000",
      "feePayer": "0x45dce8e4f2dc005a5f28206a46cb034697eeda8e"
    },
    {
      "type": "0x2",
      "status": "0x1",
      "cumulativeGasUsed": "0x4352e",
      "logs": [
        {
          "address": "0x20c0000000000000000000000000000000000000",
          "topics": [
            "0x8c5be1e5ebec7d5bd14f71427d1e84f3dd0314c0f7b2291e5b200ac8c7c3b925",
            "0x00000000000000000000000045dce8e4f2dc005a5f28206a46cb034697eeda8e",
            "0x000000000000000000000000741f0d8bde14140f62107fc60a0ee122b37d4630"
          ],
          "data": "0x0000000000000000000000000000000000000000000000000000000000006090",
          "blockHash": "0xaba85ded1c61e52be9471520b2c10657e118952eac0b2c8a01ac9dab6c8c6ea7",
          "blockNumber": "0x65904e",
          "blockTimestamp": "0x699fb96c",
          "transactionHash": "0xe67d01ffd3851662846671afe3f57f0d63a68d809e1635baba379af8ef07dbe5",
          "transactionIndex": "0x0",
          "logIndex": "0x0",
          "removed": false
        },
        {
          "address": "0x20c0000000000000000000000000000000000000",
          "topics": [
            "0xddf252ad1be2c89b69c2b068fc378daa952ba7f163c4a11628f55a4df523b3ef",
            "0x00000000000000000000000045dce8e4f2dc005a5f28206a46cb034697eeda8e",
            "0x000000000000000000000000feec000000000000000000000000000000000000"
          ],
          "data": "0x000000000000000000000000000000000000000000000000000000000000158c",
          "blockHash": "0xaba85ded1c61e52be9471520b2c10657e118952eac0b2c8a01ac9dab6c8c6ea7",
          "blockNumber": "0x65904e",
          "blockTimestamp": "0x699fb96c",
          "transactionHash": "0xe67d01ffd3851662846671afe3f57f0d63a68d809e1635baba379af8ef07dbe5",
          "transactionIndex": "0x0",
          "logIndex": "0x1",
          "removed": false
        }
      ],
      "logsBloom": "0x00000000000000000000000200000040000000000000000000000000000000000000000000000000000000000100000000000100000000000000000000200000000004000000000000000008000000000000000000000000000000000400000000000000000000000000000000000000000000000000000000000010000000000000000000000000000000000020000000000000800000000000000000000000020020000000001000000000000000000000000000000000000000000000000000000002000000000000000000000000001000000000000000000000000000000010000000000000000000000000800000000000000000000000000000000000",
      "transactionHash": "0xe67d01ffd3851662846671afe3f57f0d63a68d809e1635baba379af8ef07dbe5",
      "transactionIndex": "0x0",
      "blockHash": "0xaba85ded1c61e52be9471520b2c10657e118952eac0b2c8a01ac9dab6c8c6ea7",
      "blockNumber": "0x65904e",
      "gasUsed": "0x4352e",
      "effectiveGasPrice": "0x4a817c801",
      "from": "0x45dce8e4f2dc005a5f28206a46cb034697eeda8e",
      "to": "0x20c0000000000000000000000000000000000000",
      "contractAddress": null,
      "feeToken": "0x20c0000000000000000000000000000000000000",
      "feePayer": "0x45dce8e4f2dc005a5f28206a46cb034697eeda8e"
    },
    {
      "type": "0x2",
      "status": "0x1",
      "cumulativeGasUsed": "0x1a639c",
      "logs": [
        {
          "address": "0xfeec000000000000000000000000000000000000",
          "topics": [
            "0xabc7758d4ca817ce0d125eb731121a1304c36077b791253be835b95472368856",
            "0x000000000000000000000000741f0d8bde14140f62107fc60a0ee122b37d4630",
            "0x00000000000000000000000020c0000000000000000000000000000000000000"
          ],
          "data": "0x",
          "blockHash": "0x7a763a165018aae9b71e22dd537e0b88153c138452f5199ce6052d2dd585605a",
          "blockNumber": "0x659052",
          "blockTimestamp": "0x699fb96e",
          "transactionHash": "0x6bb97762a744da2239ff9fe47812039b065c2a4bfbabb1765b849a885f4f750c",
          "transactionIndex": "0x0",
          "logIndex": "0x0",
          "removed": false
        },
        {
          "address": "0x20c0000000000000000000000000000000000000",
          "topics": [
            "0xddf252ad1be2c89b69c2b068fc378daa952ba7f163c4a11628f55a4df523b3ef",
            "0x00000000000000000000000045dce8e4f2dc005a5f28206a46cb034697eeda8e",
            "0x000000000000000000000000741f0d8bde14140f62107fc60a0ee122b37d4630"
          ],
          "data": "0x0000000000000000000000000000000000000000000000000000000000006090",
          "blockHash": "0x7a763a165018aae9b71e22dd537e0b88153c138452f5199ce6052d2dd585605a",
          "blockNumber": "0x659052",
          "blockTimestamp": "0x699fb96e",
          "transactionHash": "0x6bb97762a744da2239ff9fe47812039b065c2a4bfbabb1765b849a885f4f750c",
          "transactionIndex": "0x0",
          "logIndex": "0x1",
          "removed": false
        },
        {
          "address": "0x20c0000000000000000000000000000000000000",
          "topics": [
            "0x8c5be1e5ebec7d5bd14f71427d1e84f3dd0314c0f7b2291e5b200ac8c7c3b925",
            "0x000000000000000000000000741f0d8bde14140f62107fc60a0ee122b37d4630",
            "0x00000000000000000000000057558cb8d6005de0bae8a2789d5efaae52dba5a8"
          ],
          "data": "0x0000000000000000000000000000000000000000000000000000000000006090",
          "blockHash": "0x7a763a165018aae9b71e22dd537e0b88153c138452f5199ce6052d2dd585605a",
          "blockNumber": "0x659052",
          "blockTimestamp": "0x699fb96e",
          "transactionHash": "0x6bb97762a744da2239ff9fe47812039b065c2a4bfbabb1765b849a885f4f750c",
          "transactionIndex": "0x0",
          "logIndex": "0x2",
          "removed": false
        },
        {
          "address": "0x57558cb8d6005de0bae8a2789d5efaae52dba5a8",
          "topics": [
            "0xddf252ad1be2c89b69c2b068fc378daa952ba7f163c4a11628f55a4df523b3ef",
            "0x000000000000000000000000741f0d8bde14140f62107fc60a0ee122b37d4630",
            "0x0000000000000000000000000000000000000000000000000000000000000000"
          ],
          "data": "0x0000000000000000000000000000000000000000000000008ac7230489e80000",
          "blockHash": "0x7a763a165018aae9b71e22dd537e0b88153c138452f5199ce6052d2dd585605a",
          "blockNumber": "0x659052",
          "blockTimestamp": "0x699fb96e",
          "transactionHash": "0x6bb97762a744da2239ff9fe47812039b065c2a4bfbabb1765b849a885f4f750c",
          "transactionIndex": "0x0",
          "logIndex": "0x3",
          "removed": false
        },
        {
          "address": "0x20c0000000000000000000000000000000000000",
          "topics": [
            "0xddf252ad1be2c89b69c2b068fc378daa952ba7f163c4a11628f55a4df523b3ef",
            "0x000000000000000000000000741f0d8bde14140f62107fc60a0ee122b37d4630",
            "0x00000000000000000000000057558cb8d6005de0bae8a2789d5efaae52dba5a8"
          ],
          "data": "0x0000000000000000000000000000000000000000000000000000000000006090",
          "blockHash": "0x7a763a165018aae9b71e22dd537e0b88153c138452f5199ce6052d2dd585605a",
          "blockNumber": "0x659052",
          "blockTimestamp": "0x699fb96e",
          "transactionHash": "0x6bb97762a744da2239ff9fe47812039b065c2a4bfbabb1765b849a885f4f750c",
          "transactionIndex": "0x0",
          "logIndex": "0x4",
          "removed": false
        },
        {
          "address": "0x20c0000000000000000000000000000000000000",
          "topics": [
            "0x8c5be1e5ebec7d5bd14f71427d1e84f3dd0314c0f7b2291e5b200ac8c7c3b925",
            "0x00000000000000000000000057558cb8d6005de0bae8a2789d5efaae52dba5a8",
            "0x0000000000000000000000000ceb237e109ee22374a567c6b09f373c73fa4cbb"
          ],
          "data": "0x0000000000000000000000000000000000000000000000000000000000006090",
          "blockHash": "0x7a763a165018aae9b71e22dd537e0b88153c138452f5199ce6052d2dd585605a",
          "blockNumber": "0x659052",
          "blockTimestamp": "0x699fb96e",
          "transactionHash": "0x6bb97762a744da2239ff9fe47812039b065c2a4bfbabb1765b849a885f4f750c",
          "transactionIndex": "0x0",
          "logIndex": "0x5",
          "removed": false
        },
        {
          "address": "0x20c0000000000000000000000000000000000000",
          "topics": [
            "0xddf252ad1be2c89b69c2b068fc378daa952ba7f163c4a11628f55a4df523b3ef",
            "0x00000000000000000000000057558cb8d6005de0bae8a2789d5efaae52dba5a8",
            "0x0000000000000000000000000ceb237e109ee22374a567c6b09f373c73fa4cbb"
          ],
          "data": "0x0000000000000000000000000000000000000000000000000000000000006090",
          "blockHash": "0x7a763a165018aae9b71e22dd537e0b88153c138452f5199ce6052d2dd585605a",
          "blockNumber": "0x659052",
          "blockTimestamp": "0x699fb96e",
          "transactionHash": "0x6bb97762a744da2239ff9fe47812039b065c2a4bfbabb1765b849a885f4f750c",
          "transactionIndex": "0x0",
          "logIndex": "0x6",
          "removed": false
        },
        {
          "address": "0x0ceb237e109ee22374a567c6b09f373c73fa4cbb",
          "topics": [
            "0xddf252ad1be2c89b69c2b068fc378daa952ba7f163c4a11628f55a4df523b3ef",
            "0x0000000000000000000000000000000000000000000000000000000000000000",
            "0x00000000000000000000000020bb7c2e2f4e5ca2b4c57060d1ae2615245dcc9c"
          ],
          "data": "0x0000000000000000000000000000000000000000000000000000000000006090",
          "blockHash": "0x7a763a165018aae9b71e22dd537e0b88153c138452f5199ce6052d2dd585605a",
          "blockNumber": "0x659052",
          "blockTimestamp": "0x699fb96e",
          "transactionHash": "0x6bb97762a744da2239ff9fe47812039b065c2a4bfbabb1765b849a885f4f750c",
          "transactionIndex": "0x0",
          "logIndex": "0x7",
          "removed": false
        },
        {
          "address": "0x0ceb237e109ee22374a567c6b09f373c73fa4cbb",
          "topics": [
            "0x8ed59ebee7004468a5666f7566d43343b5917817e35765800064b665b66d070f",
            "0x00000000000000000000000020c0000000000000000000000000000000000000",
            "0x00000000000000000000000057558cb8d6005de0bae8a2789d5efaae52dba5a8",
            "0x00000000000000000000000020bb7c2e2f4e5ca2b4c57060d1ae2615245dcc9c"
          ],
          "data": "0x0000000000000000000000000000000000000000000000000000000000006090",
          "blockHash": "0x7a763a165018aae9b71e22dd537e0b88153c138452f5199ce6052d2dd585605a",
          "blockNumber": "0x659052",
          "blockTimestamp": "0x699fb96e",
          "transactionHash": "0x6bb97762a744da2239ff9fe47812039b065c2a4bfbabb1765b849a885f4f750c",
          "transactionIndex": "0x0",
          "logIndex": "0x8",
          "removed": false
        },
        {
          "address": "0x572863d9247e52026e0892d9cd2e519b41edb73c",
          "topics": [
            "0x61ed099e74a97a1d7f8bb0952a88ca8b7b8ebd00c126ea04671f92a81213318a"
          ],
          "data": "0x000000000000000000000000f851abca1d0fd1df8eaba6de466a102996b7d7b20000000000000000000000000000000000000000000000000000000000004f9e",
          "blockHash": "0x7a763a165018aae9b71e22dd537e0b88153c138452f5199ce6052d2dd585605a",
          "blockNumber": "0x659052",
          "blockTimestamp": "0x699fb96e",
          "transactionHash": "0x6bb97762a744da2239ff9fe47812039b065c2a4bfbabb1765b849a885f4f750c",
          "transactionIndex": "0x0",
          "logIndex": "0x9",
          "removed": false
        },
        {
          "address": "0x572863d9247e52026e0892d9cd2e519b41edb73c",
          "topics": [
            "0x07ea52d82345d6e838192107d8fd7123d9c2ec8e916cd0aad13fd2b60db24644"
          ],
          "data": "0x000000000000000000000000000000000000000000000000000000000000006000000000000000000000000000000000000000000000000000000000000000e00000000000000000000000000000000000000000000000000000000000000100000000000000000000000000000000000000000000000000000000000000000300000000000000000000000076faff60799021b301b45dc1bbede53f261f996100000000000000000000000097faa2a9c9bf8b4082b175a5b894ce6bac6697a8000000000000000000000000f5771acc42f3321d7193748fa0f656470bf737f20000000000000000000000000000000000000000000000000000000000000000000000000000000000000000000000000000000000000000000000000000000300000000000000000000000000000000000000000000000000000000000005a600000000000000000000000000000000000000000000000000000000000005a600000000000000000000000000000000000000000000000000000000000005a6",
          "blockHash": "0x7a763a165018aae9b71e22dd537e0b88153c138452f5199ce6052d2dd585605a",
          "blockNumber": "0x659052",
          "blockTimestamp": "0x699fb96e",
          "transactionHash": "0x6bb97762a744da2239ff9fe47812039b065c2a4bfbabb1765b849a885f4f750c",
          "transactionIndex": "0x0",
          "logIndex": "0xa",
          "removed": false
        },
        {
          "address": "0x20bb7c2e2f4e5ca2b4c57060d1ae2615245dcc9c",
          "topics": [
            "0x1ab700d4ced0c005b164c0f789fd09fcbb0156d4c2041b8a3bfbcd961cd1567f"
          ],
          "data": "0x00000000000000000000000000000000000000000000000000000000000000600000000000000000000000000000000000000000000000000000000000000120000000000000000000000000572863d9247e52026e0892d9cd2e519b41edb73c0000000000000000000000000000000000000000000000000000000000000099010000000000000003000076ca00000000000000000000000057558cb8d6005de0bae8a2789d5efaae52dba5a80000762f00000000000000000000000057558cb8d6005de0bae8a2789d5efaae52dba5a80d20088a180d09d99f00213105c343eb101ede611edda1811cb31309a28a69b1000000000000000000000000741f0d8bde14140f62107fc60a0ee122b37d4630000000000098968000000000000000000000000000000000000000000000000000000000000000000000000000001600030100110100000000000000000000000000030d4000000000000000000000",
          "blockHash": "0x7a763a165018aae9b71e22dd537e0b88153c138452f5199ce6052d2dd585605a",
          "blockNumber": "0x659052",
          "blockTimestamp": "0x699fb96e",
          "transactionHash": "0x6bb97762a744da2239ff9fe47812039b065c2a4bfbabb1765b849a885f4f750c",
          "transactionIndex": "0x0",
          "logIndex": "0xb",
          "removed": false
        },
        {
          "address": "0x0ceb237e109ee22374a567c6b09f373c73fa4cbb",
          "topics": [
            "0xddf252ad1be2c89b69c2b068fc378daa952ba7f163c4a11628f55a4df523b3ef",
            "0x00000000000000000000000020bb7c2e2f4e5ca2b4c57060d1ae2615245dcc9c",
            "0x000000000000000000000000572863d9247e52026e0892d9cd2e519b41edb73c"
          ],
          "data": "0x0000000000000000000000000000000000000000000000000000000000006090",
          "blockHash": "0x7a763a165018aae9b71e22dd537e0b88153c138452f5199ce6052d2dd585605a",
          "blockNumber": "0x659052",
          "blockTimestamp": "0x699fb96e",
          "transactionHash": "0x6bb97762a744da2239ff9fe47812039b065c2a4bfbabb1765b849a885f4f750c",
          "transactionIndex": "0x0",
          "logIndex": "0xc",
          "removed": false
        },
        {
          "address": "0x57558cb8d6005de0bae8a2789d5efaae52dba5a8",
          "topics": [
            "0x85496b760a4b7f8d66384b9df21b381f5d1b1e79f229a47aaf4c232edc2fe59a",
            "0x0d20088a180d09d99f00213105c343eb101ede611edda1811cb31309a28a69b1",
            "0x000000000000000000000000741f0d8bde14140f62107fc60a0ee122b37d4630"
          ],
          "data": "0x000000000000000000000000000000000000000000000000000000000000762f0000000000000000000000000000000000000000000000008ac7230489e800000000000000000000000000000000000000000000000000008ac7230489e80000",
          "blockHash": "0x7a763a165018aae9b71e22dd537e0b88153c138452f5199ce6052d2dd585605a",
          "blockNumber": "0x659052",
          "blockTimestamp": "0x699fb96e",
          "transactionHash": "0x6bb97762a744da2239ff9fe47812039b065c2a4bfbabb1765b849a885f4f750c",
          "transactionIndex": "0x0",
          "logIndex": "0xd",
          "removed": false
        },
        {
          "address": "0x20c0000000000000000000000000000000000000",
          "topics": [
            "0xddf252ad1be2c89b69c2b068fc378daa952ba7f163c4a11628f55a4df523b3ef",
            "0x00000000000000000000000045dce8e4f2dc005a5f28206a46cb034697eeda8e",
            "0x000000000000000000000000feec000000000000000000000000000000000000"
          ],
          "data": "0x000000000000000000000000000000000000000000000000000000000000871d",
          "blockHash": "0x7a763a165018aae9b71e22dd537e0b88153c138452f5199ce6052d2dd585605a",
          "blockNumber": "0x659052",
          "blockTimestamp": "0x699fb96e",
          "transactionHash": "0x6bb97762a744da2239ff9fe47812039b065c2a4bfbabb1765b849a885f4f750c",
          "transactionIndex": "0x0",
          "logIndex": "0xe",
          "removed": false
        }
      ],
      "logsBloom": "0x0000000000000000000104020004004000000400000100000200000000000000000004000000000000000000010000040000010000000000000000000020000000000600000000000000000800000000000000000000000000000000040000000000000002000400c08000000000080000000400000000000000001011000000000000000000000000000008002000080000008080000000000000000010004002002000a080801400100000000400100000000000400000000440040000000000000002000008000000000080080000001000000080000000000000010020020010040000041000080100000000802002000800008000000001000000000000",
      "transactionHash": "0x6bb97762a744da2239ff9fe47812039b065c2a4bfbabb1765b849a885f4f750c",
      "transactionIndex": "0x0",
      "blockHash": "0x7a763a165018aae9b71e22dd537e0b88153c138452f5199ce6052d2dd585605a",
      "blockNumber": "0x659052",
      "gasUsed": "0x1a639c",
      "effectiveGasPrice": "0x4a817c801",
      "from": "0x45dce8e4f2dc005a5f28206a46cb034697eeda8e",
      "to": "0x741f0d8bde14140f62107fc60a0ee122b37d4630",
      "contractAddress": null,
      "feeToken": "0x20c0000000000000000000000000000000000000",
      "feePayer": "0x45dce8e4f2dc005a5f28206a46cb034697eeda8e"
    }
  ],
  "libraries": [],
  "pending": [],
  "returns": {},
  "timestamp": 1772075376327,
  "chain": 4217,
  "commit": "c15cbd9"
}