{
  "transactions": [
    {
      "hash": "0xdb3d3c3d9c4e7e88d93da48ab86a99743be70db5048b3945532730d1c0ca08d1",
      "transactionType": "CALL",
      "contractName": null,
      "contractAddress": "0xfeec000000000000000000000000000000000000",
      "function": "setUserToken(address)",
      "arguments": [
        "0x20C000000000000000000000CFD2e14f4Cdf1380"
      ],
      "transaction": {
        "from": "0x45dce8e4f2dc005a5f28206a46cb034697eeda8e",
        "to": "0xfeec000000000000000000000000000000000000",
        "gas": "0x76a6",
        "value": "0x0",
        "input": "0xe789744400000000000000000000000020c000000000000000000000cfd2e14f4cdf1380",
        "nonce": "0xcd",
        "chainId": "0x1079",
        "feeToken": null,
        "calls": [],
        "keyType": null,
        "keyData": null
      },
      "additionalContracts": [],
      "isFixedGasLimit": false
    },
    {
      "hash": "0x5c3519e9a2c49e3aeaeccfe263cebf4924565226176fa962b8b81d264d3ca502",
      "transactionType": "CALL",
      "contractName": null,
      "contractAddress": "0x20c000000000000000000000cfd2e14f4cdf1380",
      "function": "approve(address,uint256)",
      "arguments": [
        "0x741F0d8Bde14140f62107FC60A0EE122B37D4630",
        "23923"
      ],
      "transaction": {
        "from": "0x45dce8e4f2dc005a5f28206a46cb034697eeda8e",
        "to": "0x20c000000000000000000000cfd2e14f4cdf1380",
        "gas": "0x4424a",
        "value": "0x0",
        "input": "0x095ea7b3000000000000000000000000741f0d8bde14140f62107fc60a0ee122b37d46300000000000000000000000000000000000000000000000000000000000005d73",
        "nonce": "0xce",
        "chainId": "0x1079",
        "feeToken": null,
        "calls": [],
        "keyType": null,
        "keyData": null
      },
      "additionalContracts": [],
      "isFixedGasLimit": false
    },
    {
      "hash": "0x533714498e065b07819e9646112fc25ec566685aba00a3acea986a3379ab5af7",
      "transactionType": "CALL",
      "contractName": null,
      "contractAddress": "0x741f0d8bde14140f62107fc60a0ee122b37d4630",
      "function": "batchBridgeWithTIP20FeeFromWallet((uint32,bytes32,uint256,uint256,bytes,bytes,bytes)[],address[],address[])",
      "arguments": [
        "[(30255, 0x000000000000000000000000741f0d8bde14140f62107fc60a0ee122b37d4630, 250000000000000000, 0, 0x, 0x, 0x)]",
        "[0x57558Cb8d6005DE0BAe8a2789d5EfaaE52dba5a8]",
        "[0x741F0d8Bde14140f62107FC60A0EE122B37D4630]"
      ],
      "transaction": {
        "from": "0x45dce8e4f2dc005a5f28206a46cb034697eeda8e",
        "to": "0x741f0d8bde14140f62107fc60a0ee122b37d4630",
        "gas": "0xe2414",
        "value": "0x0",
        "input": "0xddfe224e000000000000000000000000000000000000000000000000000000000000006000000000000000000000000000000000000000000000000000000000000001e0000000000000000000000000000000000000000000000000000000000000022000000000000000000000000000000000000000000000000000000000000000010000000000000000000000000000000000000000000000000000000000000020000000000000000000000000000000000000000000000000000000000000762f000000000000000000000000741f0d8bde14140f62107fc60a0ee122b37d463000000000000000000000000000000000000000000000000003782dace9d90000000000000000000000000000000000000000000000000000000000000000000000000000000000000000000000000000000000000000000000000000000000e000000000000000000000000000000000000000000000000000000000000001000000000000000000000000000000000000000000000000000000000000000120000000000000000000000000000000000000000000000000000000000000000000000000000000000000000000000000000000000000000000000000000000000000000000000000000000000000000000000000000000000000000000000000000000000000000000000000000000000000000000000000000000000000000100000000000000000000000057558cb8d6005de0bae8a2789d5efaae52dba5a80000000000000000000000000000000000000000000000000000000000000001000000000000000000000000741f0d8bde14140f62107fc60a0ee122b37d4630",
        "nonce": "0xcf",
        "chainId": "0x1079",
        "feeToken": null,
        "calls": [],
        "keyType": null,
        "keyData": null
      },
      "additionalContracts": [],
      "isFixedGasLimit": false
    }
  ],
  "receipts": [
    {
      "type": "0x2",
      "status": "0x1",
      "cumulativeGasUsed": "0x6d78",
      "logs": [
        {
          "address": "0xfeec000000000000000000000000000000000000",
          "topics": [
            "0xabc7758d4ca817ce0d125eb731121a1304c36077b791253be835b95472368856",
            "0x00000000000000000000000045dce8e4f2dc005a5f28206a46cb034697eeda8e",
            "0x00000000000000000000000020c000000000000000000000cfd2e14f4cdf1380"
          ],
          "data": "0x",
          "blockHash": "0xa9135bd75e588688ff1a6988bcd1a2c112dbb3664ae565d64f250d494541d4f6",
          "blockNumber": "0x65a6be",
          "blockTimestamp": "0x699fc588",
          "transactionHash": "0xdb3d3c3d9c4e7e88d93da48ab86a99743be70db5048b3945532730d1c0ca08d1",
          "transactionIndex": "0x0",
          "logIndex": "0x0",
          "removed": false
        },
        {
          "address": "0x20c000000000000000000000cfd2e14f4cdf1380",
          "topics": [
            "0xddf252ad1be2c89b69c2b068fc378daa952ba7f163c4a11628f55a4df523b3ef",
            "0x00000000000000000000000045dce8e4f2dc005a5f28206a46cb034697eeda8e",
            "0x000000000000000000000000feec000000000000000000000000000000000000"
          ],
          "data": "0x0000000000000000000000000000000000000000000000000000000000000231",
          "blockHash": "0xa9135bd75e588688ff1a6988bcd1a2c112dbb3664ae565d64f250d494541d4f6",
          "blockNumber": "0x65a6be",
          "blockTimestamp": "0x699fc588",
          "transactionHash": "0xdb3d3c3d9c4e7e88d93da48ab86a99743be70db5048b3945532730d1c0ca08d1",
          "transactionIndex": "0x0",
          "logIndex": "0x1",
          "removed": false
        }
      ],
      "logsBloom": "0x00000000000000000000000200000000000000000000000040000000000000000000000000000000000000000000000000000000000000000000000000000000000004000000000000000008000000000000000000000000000000000000000000000000000000000080000000000000000000000000000000000010000000000000000040000000000000000020000000000000000000000000000001000000000020000000000000000000000400000000000000000000000000000000000000000002000000000000400000000000001000000080000000000000000020000000000000000000000100000000800002000800000000000000000000001000",
      "transactionHash": "0xdb3d3c3d9c4e7e88d93da48ab86a99743be70db5048b3945532730d1c0ca08d1",
      "transactionIndex": "0x0",
      "blockHash": "0xa9135bd75e588688ff1a6988bcd1a2c112dbb3664ae565d64f250d494541d4f6",
      "blockNumber": "0x65a6be",
      "gasUsed": "0x6d78",
      "effectiveGasPrice": "0x4a817c801",
      "from": "0x45dce8e4f2dc005a5f28206a46cb034697eeda8e",
      "to": "0xfeec000000000000000000000000000000000000",
      "contractAddress": null,
      "feeToken": "0x20c000000000000000000000cfd2e14f4cdf1380",
      "feePayer": "0x45dce8e4f2dc005a5f28206a46cb034697eeda8e"
    },
    {
      "type": "0x2",
      "status": "0x1",
      "cumulativeGasUsed": "0x4352e",
      "logs": [
        {
          "address": "0x20c000000000000000000000cfd2e14f4cdf1380",
          "topics": [
            "0x8c5be1e5ebec7d5bd14f71427d1e84f3dd0314c0f7b2291e5b200ac8c7c3b925",
            "0x00000000000000000000000045dce8e4f2dc005a5f28206a46cb034697eeda8e",
            "0x000000000000000000000000741f0d8bde14140f62107fc60a0ee122b37d4630"
          ],
          "data": "0x0000000000000000000000000000000000000000000000000000000000005d73",
          "blockHash": "0xcf913094f69a4903ddbb22703920af7cc6d787d6b15c91df09c7af2d811c008e",
          "blockNumber": "0x65a6c2",
          "blockTimestamp": "0x699fc58a",
          "transactionHash": "0x5c3519e9a2c49e3aeaeccfe263cebf4924565226176fa962b8b81d264d3ca502",
          "transactionIndex": "0x0",
          "logIndex": "0x0",
          "removed": false
        },
        {
          "address": "0x20c000000000000000000000cfd2e14f4cdf1380",
          "topics": [
            "0xddf252ad1be2c89b69c2b068fc378daa952ba7f163c4a11628f55a4df523b3ef",
            "0x00000000000000000000000045dce8e4f2dc005a5f28206a46cb034697eeda8e",
            "0x000000000000000000000000feec000000000000000000000000000000000000"
          ],
          "data": "0x000000000000000000000000000000000000000000000000000000000000158c",
          "blockHash": "0xcf913094f69a4903ddbb22703920af7cc6d787d6b15c91df09c7af2d811c008e",
          "blockNumber": "0x65a6c2",
          "blockTimestamp": "0x699fc58a",
          "transactionHash": "0x5c3519e9a2c49e3aeaeccfe263cebf4924565226176fa962b8b81d264d3ca502",
          "transactionIndex": "0x0",
          "logIndex": "0x1",
          "removed": false
        }
      ],
      "logsBloom": "0x00000000000000000000000200000040000000000000000000000000000000000000000000000000000000000000000000000100000000000000000000200000000004000000000000000008000000000000000000000000000000000000000000000000000000000000000000000000000000000000000000000010000000000000000040000000000000000020000000000000000000000000000001000000020020000000001000000000000000000000000000000000000000000000000000000002000000000000000000000000001000000000000000000000000000000010000000000000000000000000800000000000000000000000000000001000",
      "transactionHash": "0x5c3519e9a2c49e3aeaeccfe263cebf4924565226176fa962b8b81d264d3ca502",
      "transactionIndex": "0x0",
      "blockHash": "0xcf913094f69a4903ddbb22703920af7cc6d787d6b15c91df09c7af2d811c008e",
      "blockNumber": "0x65a6c2",
      "gasUsed": "0x4352e",
      "effectiveGasPrice": "0x4a817c801",
      "from": "0x45dce8e4f2dc005a5f28206a46cb034697eeda8e",
      "to": "0x20c000000000000000000000cfd2e14f4cdf1380",
      "contractAddress": null,
      "feeToken": "0x20c000000000000000000000cfd2e14f4cdf1380",
      "feePayer": "0x45dce8e4f2dc005a5f28206a46cb034697eeda8e"
    },
    {
      "type": "0x2",
      "status": "0x1",
      "cumulativeGasUsed": "0x285739",
      "logs": [
        {
          "address": "0xfeec000000000000000000000000000000000000",
          "topics": [
            "0xabc7758d4ca817ce0d125eb731121a1304c36077b791253be835b95472368856",
            "0x000000000000000000000000741f0d8bde14140f62107fc60a0ee122b37d4630",
            "0x00000000000000000000000020c000000000000000000000cfd2e14f4cdf1380"
          ],
          "data": "0x",
          "blockHash": "0xd1c6382c0ed72fcb25550ae10dd9c540f88047bfc515abc7deeb6718a6fa665f",
          "blockNumber": "0x65a6c6",
          "blockTimestamp": "0x699fc58c",
          "transactionHash": "0x533714498e065b07819e9646112fc25ec566685aba00a3acea986a3379ab5af7",
          "transactionIndex": "0x0",
          "logIndex": "0x0",
          "removed": false
        },
        {
          "address": "0x20c000000000000000000000cfd2e14f4cdf1380",
          "topics": [
            "0xddf252ad1be2c89b69c2b068fc378daa952ba7f163c4a11628f55a4df523b3ef",
            "0x00000000000000000000000045dce8e4f2dc005a5f28206a46cb034697eeda8e",
            "0x000000000000000000000000741f0d8bde14140f62107fc60a0ee122b37d4630"
          ],
          "data": "0x0000000000000000000000000000000000000000000000000000000000005d73",
          "blockHash": "0xd1c6382c0ed72fcb25550ae10dd9c540f88047bfc515abc7deeb6718a6fa665f",
          "blockNumber": "0x65a6c6",
          "blockTimestamp": "0x699fc58c",
          "transactionHash": "0x533714498e065b07819e9646112fc25ec566685aba00a3acea986a3379ab5af7",
          "transactionIndex": "0x0",
          "logIndex": "0x1",
          "removed": false
        },
        {
          "address": "0x20c000000000000000000000cfd2e14f4cdf1380",
          "topics": [
            "0x8c5be1e5ebec7d5bd14f71427d1e84f3dd0314c0f7b2291e5b200ac8c7c3b925",
            "0x000000000000000000000000741f0d8bde14140f62107fc60a0ee122b37d4630",
            "0x00000000000000000000000057558cb8d6005de0bae8a2789d5efaae52dba5a8"
          ],
          "data": "0x0000000000000000000000000000000000000000000000000000000000005d73",
          "blockHash": "0xd1c6382c0ed72fcb25550ae10dd9c540f88047bfc515abc7deeb6718a6fa665f",
          "blockNumber": "0x65a6c6",
          "blockTimestamp": "0x699fc58c",
          "transactionHash": "0x533714498e065b07819e9646112fc25ec566685aba00a3acea986a3379ab5af7",
          "transactionIndex": "0x0",
          "logIndex": "0x2",
          "removed": false
        },
        {
          "address": "0x57558cb8d6005de0bae8a2789d5efaae52dba5a8",
          "topics": [
            "0xddf252ad1be2c89b69c2b068fc378daa952ba7f163c4a11628f55a4df523b3ef",
            "0x000000000000000000000000741f0d8bde14140f62107fc60a0ee122b37d4630",
            "0x0000000000000000000000000000000000000000000000000000000000000000"
          ],
          "data": "0x00000000000000000000000000000000000000000000000003782dace9d90000",
          "blockHash": "0xd1c6382c0ed72fcb25550ae10dd9c540f88047bfc515abc7deeb6718a6fa665f",
          "blockNumber": "0x65a6c6",
          "blockTimestamp": "0x699fc58c",
          "transactionHash": "0x533714498e065b07819e9646112fc25ec566685aba00a3acea986a3379ab5af7",
          "transactionIndex": "0x0",
          "logIndex": "0x3",
          "removed": false
        },
        {
          "address": "0x20c000000000000000000000cfd2e14f4cdf1380",
          "topics": [
            "0xddf252ad1be2c89b69c2b068fc378daa952ba7f163c4a11628f55a4df523b3ef",
            "0x000000000000000000000000741f0d8bde14140f62107fc60a0ee122b37d4630",
            "0x00000000000000000000000057558cb8d6005de0bae8a2789d5efaae52dba5a8"
          ],
          "data": "0x0000000000000000000000000000000000000000000000000000000000005d73",
          "blockHash": "0xd1c6382c0ed72fcb25550ae10dd9c540f88047bfc515abc7deeb6718a6fa665f",
          "blockNumber": "0x65a6c6",
          "blockTimestamp": "0x699fc58c",
          "transactionHash": "0x533714498e065b07819e9646112fc25ec566685aba00a3acea986a3379ab5af7",
          "transactionIndex": "0x0",
          "logIndex": "0x4",
          "removed": false
        },
        {
          "address": "0x20c000000000000000000000cfd2e14f4cdf1380",
          "topics": [
            "0x8c5be1e5ebec7d5bd14f71427d1e84f3dd0314c0f7b2291e5b200ac8c7c3b925",
            "0x00000000000000000000000057558cb8d6005de0bae8a2789d5efaae52dba5a8",
            "0x000000000000000000000000dec0000000000000000000000000000000000000"
          ],
          "data": "0x0000000000000000000000000000000000000000000000000000000000005d73",
          "blockHash": "0xd1c6382c0ed72fcb25550ae10dd9c540f88047bfc515abc7deeb6718a6fa665f",
          "blockNumber": "0x65a6c6",
          "blockTimestamp": "0x699fc58c",
          "transactionHash": "0x533714498e065b07819e9646112fc25ec566685aba00a3acea986a3379ab5af7",
          "transactionIndex": "0x0",
          "logIndex": "0x5",
          "removed": false
        },
        {
          "address": "0xdec0000000000000000000000000000000000000",
          "topics": [
            "0x16c08f8f2c17b3c8879b3e3cf5efdbdcdfdbd0fcb3890f9d3086f470cd601ddd",
            "0x0000000000000000000000000000000000000000000000000000000000000002",
            "0x0000000000000000000000008d8290d49e88d16d81c6adf6c8774ed88762274a",
            "0x00000000000000000000000057558cb8d6005de0bae8a2789d5efaae52dba5a8"
          ],
          "data": "0x0000000000000000000000000000000000000000000000000000000000005d730000000000000000000000000000000000000000000000000000000000000001",
          "blockHash": "0xd1c6382c0ed72fcb25550ae10dd9c540f88047bfc515abc7deeb6718a6fa665f",
          "blockNumber": "0x65a6c6",
          "blockTimestamp": "0x699fc58c",
          "transactionHash": "0x533714498e065b07819e9646112fc25ec566685aba00a3acea986a3379ab5af7",
          "transactionIndex": "0x0",
          "logIndex": "0x6",
          "removed": false
        },
        {
          "address": "0x20c000000000000000000000cfd2e14f4cdf1380",
          "topics": [
            "0xddf252ad1be2c89b69c2b068fc378daa952ba7f163c4a11628f55a4df523b3ef",
            "0x00000000000000000000000057558cb8d6005de0bae8a2789d5efaae52dba5a8",
            "0x000000000000000000000000dec0000000000000000000000000000000000000"
          ],
          "data": "0x0000000000000000000000000000000000000000000000000000000000005d73",
          "blockHash": "0xd1c6382c0ed72fcb25550ae10dd9c540f88047bfc515abc7deeb6718a6fa665f",
          "blockNumber": "0x65a6c6",
          "blockTimestamp": "0x699fc58c",
          "transactionHash": "0x533714498e065b07819e9646112fc25ec566685aba00a3acea986a3379ab5af7",
          "transactionIndex": "0x0",
          "logIndex": "0x7",
          "removed": false
        },
        {
          "address": "0x20c0000000000000000000000000000000000000",
          "topics": [
            "0xddf252ad1be2c89b69c2b068fc378daa952ba7f163c4a11628f55a4df523b3ef",
            "0x000000000000000000000000dec0000000000000000000000000000000000000",
            "0x00000000000000000000000057558cb8d6005de0bae8a2789d5efaae52dba5a8"
          ],
          "data": "0x0000000000000000000000000000000000000000000000000000000000005d73",
          "blockHash": "0xd1c6382c0ed72fcb25550ae10dd9c540f88047bfc515abc7deeb6718a6fa665f",
          "blockNumber": "0x65a6c6",
          "blockTimestamp": "0x699fc58c",
          "transactionHash": "0x533714498e065b07819e9646112fc25ec566685aba00a3acea986a3379ab5af7",
          "transactionIndex": "0x0",
          "logIndex": "0x8",
          "removed": false
        },
        {
          "address": "0x20c0000000000000000000000000000000000000",
          "topics": [
            "0x8c5be1e5ebec7d5bd14f71427d1e84f3dd0314c0f7b2291e5b200ac8c7c3b925",
            "0x00000000000000000000000057558cb8d6005de0bae8a2789d5efaae52dba5a8",
            "0x0000000000000000000000000ceb237e109ee22374a567c6b09f373c73fa4cbb"
          ],
          "data": "0x0000000000000000000000000000000000000000000000000000000000005d73",
          "blockHash": "0xd1c6382c0ed72fcb25550ae10dd9c540f88047bfc515abc7deeb6718a6fa665f",
          "blockNumber": "0x65a6c6",
          "blockTimestamp": "0x699fc58c",
          "transactionHash": "0x533714498e065b07819e9646112fc25ec566685aba00a3acea986a3379ab5af7",
          "transactionIndex": "0x0",
          "logIndex": "0x9",
          "removed": false
        },
        {
          "address": "0x20c0000000000000000000000000000000000000",
          "topics": [
            "0xddf252ad1be2c89b69c2b068fc378daa952ba7f163c4a11628f55a4df523b3ef",
            "0x00000000000000000000000057558cb8d6005de0bae8a2789d5efaae52dba5a8",
            "0x0000000000000000000000000ceb237e109ee22374a567c6b09f373c73fa4cbb"
          ],
          "data": "0x0000000000000000000000000000000000000000000000000000000000005d73",
          "blockHash": "0xd1c6382c0ed72fcb25550ae10dd9c540f88047bfc515abc7deeb6718a6fa665f",
          "blockNumber": "0x65a6c6",
          "blockTimestamp": "0x699fc58c",
          "transactionHash": "0x533714498e065b07819e9646112fc25ec566685aba00a3acea986a3379ab5af7",
          "transactionIndex": "0x0",
          "logIndex": "0xa",
          "removed": false
        },
        {
          "address": "0x0ceb237e109ee22374a567c6b09f373c73fa4cbb",
          "topics": [
            "0xddf252ad1be2c89b69c2b068fc378daa952ba7f163c4a11628f55a4df523b3ef",
            "0x0000000000000000000000000000000000000000000000000000000000000000",
            "0x00000000000000000000000020bb7c2e2f4e5ca2b4c57060d1ae2615245dcc9c"
          ],
          "data": "0x0000000000000000000000000000000000000000000000000000000000005d73",
          "blockHash": "0xd1c6382c0ed72fcb25550ae10dd9c540f88047bfc515abc7deeb6718a6fa665f",
          "blockNumber": "0x65a6c6",
          "blockTimestamp": "0x699fc58c",
          "transactionHash": "0x533714498e065b07819e9646112fc25ec566685aba00a3acea986a3379ab5af7",
          "transactionIndex": "0x0",
          "logIndex": "0xb",
          "removed": false
        },
        {
          "address": "0x0ceb237e109ee22374a567c6b09f373c73fa4cbb",
          "topics": [
            "0x8ed59ebee7004468a5666f7566d43343b5917817e35765800064b665b66d070f",
            "0x00000000000000000000000020c0000000000000000000000000000000000000",
            "0x00000000000000000000000057558cb8d6005de0bae8a2789d5efaae52dba5a8",
            "0x00000000000000000000000020bb7c2e2f4e5ca2b4c57060d1ae2615245dcc9c"
          ],
          "data": "0x0000000000000000000000000000000000000000000000000000000000005d73",
          "blockHash": "0xd1c6382c0ed72fcb25550ae10dd9c540f88047bfc515abc7deeb6718a6fa665f",
          "blockNumber": "0x65a6c6",
          "blockTimestamp": "0x699fc58c",
          "transactionHash": "0x533714498e065b07819e9646112fc25ec566685aba00a3acea986a3379ab5af7",
          "transactionIndex": "0x0",
          "logIndex": "0xc",
          "removed": false
        },
        {
          "address": "0x572863d9247e52026e0892d9cd2e519b41edb73c",
          "topics": [
            "0x61ed099e74a97a1d7f8bb0952a88ca8b7b8ebd00c126ea04671f92a81213318a"
          ],
          "data": "0x000000000000000000000000f851abca1d0fd1df8eaba6de466a102996b7d7b20000000000000000000000000000000000000000000000000000000000004f60",
          "blockHash": "0xd1c6382c0ed72fcb25550ae10dd9c540f88047bfc515abc7deeb6718a6fa665f",
          "blockNumber": "0x65a6c6",
          "blockTimestamp": "0x699fc58c",
          "transactionHash": "0x533714498e065b07819e9646112fc25ec566685aba00a3acea986a3379ab5af7",
          "transactionIndex": "0x0",
          "logIndex": "0xd",
          "removed": false
        },
        {
          "address": "0x572863d9247e52026e0892d9cd2e519b41edb73c",
          "topics": [
            "0x07ea52d82345d6e838192107d8fd7123d9c2ec8e916cd0aad13fd2b60db24644"
          ],
          "data": "0x000000000000000000000000000000000000000000000000000000000000006000000000000000000000000000000000000000000000000000000000000000e00000000000000000000000000000000000000000000000000000000000000100000000000000000000000000000000000000000000000000000000000000000300000000000000000000000076faff60799021b301b45dc1bbede53f261f996100000000000000000000000097faa2a9c9bf8b4082b175a5b894ce6bac6697a8000000000000000000000000f5771acc42f3321d7193748fa0f656470bf737f20000000000000000000000000000000000000000000000000000000000000000000000000000000000000000000000000000000000000000000000000000000300000000000000000000000000000000000000000000000000000000000004b100000000000000000000000000000000000000000000000000000000000004b100000000000000000000000000000000000000000000000000000000000004b1",
          "blockHash": "0xd1c6382c0ed72fcb25550ae10dd9c540f88047bfc515abc7deeb6718a6fa665f",
          "blockNumber": "0x65a6c6",
          "blockTimestamp": "0x699fc58c",
          "transactionHash": "0x533714498e065b07819e9646112fc25ec566685aba00a3acea986a3379ab5af7",
          "transactionIndex": "0x0",
          "logIndex": "0xe",
          "removed": false
        },
        {
          "address": "0x20bb7c2e2f4e5ca2b4c57060d1ae2615245dcc9c",
          "topics": [
            "0x1ab700d4ced0c005b164c0f789fd09fcbb0156d4c2041b8a3bfbcd961cd1567f"
          ],
          "data": "0x00000000000000000000000000000000000000000000000000000000000000600000000000000000000000000000000000000000000000000000000000000120000000000000000000000000572863d9247e52026e0892d9cd2e519b41edb73c0000000000000000000000000000000000000000000000000000000000000099010000000000000004000076ca00000000000000000000000057558cb8d6005de0bae8a2789d5efaae52dba5a80000762f00000000000000000000000057558cb8d6005de0bae8a2789d5efaae52dba5a83131e21d49d45d4661959b5ddcc623c177941a18566022a93c26d11581002ace000000000000000000000000741f0d8bde14140f62107fc60a0ee122b37d4630000000000003d09000000000000000000000000000000000000000000000000000000000000000000000000000001600030100110100000000000000000000000000030d4000000000000000000000",
          "blockHash": "0xd1c6382c0ed72fcb25550ae10dd9c540f88047bfc515abc7deeb6718a6fa665f",
          "blockNumber": "0x65a6c6",
          "blockTimestamp": "0x699fc58c",
          "transactionHash": "0x533714498e065b07819e9646112fc25ec566685aba00a3acea986a3379ab5af7",
          "transactionIndex": "0x0",
          "logIndex": "0xf",
          "removed": false
        },
        {
          "address": "0x0ceb237e109ee22374a567c6b09f373c73fa4cbb",
          "topics": [
            "0xddf252ad1be2c89b69c2b068fc378daa952ba7f163c4a11628f55a4df523b3ef",
            "0x00000000000000000000000020bb7c2e2f4e5ca2b4c57060d1ae2615245dcc9c",
            "0x000000000000000000000000572863d9247e52026e0892d9cd2e519b41edb73c"
          ],
          "data": "0x0000000000000000000000000000000000000000000000000000000000005d73",
          "blockHash": "0xd1c6382c0ed72fcb25550ae10dd9c540f88047bfc515abc7deeb6718a6fa665f",
          "blockNumber": "0x65a6c6",
          "blockTimestamp": "0x699fc58c",
          "transactionHash": "0x533714498e065b07819e9646112fc25ec566685aba00a3acea986a3379ab5af7",
          "transactionIndex": "0x0",
          "logIndex": "0x10",
          "removed": false
        },
        {
          "address": "0x57558cb8d6005de0bae8a2789d5efaae52dba5a8",
          "topics": [
            "0x85496b760a4b7f8d66384b9df21b381f5d1b1e79f229a47aaf4c232edc2fe59a",
            "0x3131e21d49d45d4661959b5ddcc623c177941a18566022a93c26d11581002ace",
            "0x000000000000000000000000741f0d8bde14140f62107fc60a0ee122b37d4630"
          ],
          "data": "0x000000000000000000000000000000000000000000000000000000000000762f00000000000000000000000000000000000000000000000003782dace9d9000000000000000000000000000000000000000000000000000003782dace9d90000",
          "blockHash": "0xd1c6382c0ed72fcb25550ae10dd9c540f88047bfc515abc7deeb6718a6fa665f",
          "blockNumber": "0x65a6c6",
          "blockTimestamp": "0x699fc58c",
          "transactionHash": "0x533714498e065b07819e9646112fc25ec566685aba00a3acea986a3379ab5af7",
          "transactionIndex": "0x0",
          "logIndex": "0x11",
          "removed": false
        },
        {
          "address": "0x20c000000000000000000000cfd2e14f4cdf1380",
          "topics": [
            "0xddf252ad1be2c89b69c2b068fc378daa952ba7f163c4a11628f55a4df523b3ef",
            "0x00000000000000000000000045dce8e4f2dc005a5f28206a46cb034697eeda8e",
            "0x000000000000000000000000feec000000000000000000000000000000000000"
          ],
          "data": "0x000000000000000000000000000000000000000000000000000000000000ce8c",
          "blockHash": "0xd1c6382c0ed72fcb25550ae10dd9c540f88047bfc515abc7deeb6718a6fa665f",
          "blockNumber": "0x65a6c6",
          "blockTimestamp": "0x699fc58c",
          "transactionHash": "0x533714498e065b07819e9646112fc25ec566685aba00a3acea986a3379ab5af7",
          "transactionIndex": "0x0",
          "logIndex": "0x12",
          "removed": false
        }
      ],
      "logsBloom": "0x0402000008000000000100020004004000000440000100004200000000000000000004000000000000000000010000040000010000000002020000000020000000000600000020000000000800000000000000000000000000000000040000000000000002000400c28000000000080000000400000000000000001011802000000000004000000000000008002000080000008080010000000000000110000002002000a080801400100100000400100000000000400000000440040100000000000002000008000100600084080000001000000880000000000000010020020010040000041000080100000000802002000800008000000001000000001000",
      "transactionHash": "0x533714498e065b07819e9646112fc25ec566685aba00a3acea986a3379ab5af7",
      "transactionIndex": "0x0",
      "blockHash": "0xd1c6382c0ed72fcb25550ae10dd9c540f88047bfc515abc7deeb6718a6fa665f",
      "blockNumber": "0x65a6c6",
      "gasUsed": "0x285739",
      "effectiveGasPrice": "0x4a817c801",
      "from": "0x45dce8e4f2dc005a5f28206a46cb034697eeda8e",
      "to": "0x741f0d8bde14140f62107fc60a0ee122b37d4630",
      "contractAddress": null,
      "feeToken": "0x20c000000000000000000000cfd2e14f4cdf1380",
      "feePayer": "0x45dce8e4f2dc005a5f28206a46cb034697eeda8e"
    }
  ],
  "libraries": [],
  "pending": [],
  "returns": {},
  "timestamp": 1772078478695,
  "chain": 4217,
  "commit": "c15cbd9"
}