{
  "transactions": [
    {
      "hash": null,
      "transactionType": "CALL",
      "contractName": null,
      "contractAddress": "0x741f0d8bde14140f62107fc60a0ee122b37d4630",
      "function": "batchBridgeWithEthFeeFromWallet((uint32,bytes32,uint256,uint256,bytes,bytes,bytes)[],address[],address[])",
      "arguments": [
        "[(30280, 0x000000000000000000000000741f0d8bde14140f62107fc60a0ee122b37d4630, 10000000000000, 0, 0x, 0x, 0x), (30280, 0x000000000000000000000000741f0d8bde14140f62107fc60a0ee122b37d4630, 10000000000000, 0, 0x, 0x, 0x), (30280, 0x000000000000000000000000741f0d8bde14140f62107fc60a0ee122b37d4630, 10000000000000, 0, 0x, 0x, 0x), (30280, 0x000000000000000000000000741f0d8bde14140f62107fc60a0ee122b37d4630, 10000000000000, 0, 0x, 0x, 0x), (30280, 0x000000000000000000000000741f0d8bde14140f62107fc60a0ee122b37d4630, 10000000000000, 0, 0x, 0x, 0x), (30280, 0x000000000000000000000000741f0d8bde14140f62107fc60a0ee122b37d4630, 10000000000000, 0, 0x, 0x, 0x)]",
        "[0xd86fBBd0c8715d2C1f40e451e5C3514e65E7576A, 0x88Aa7854D3b2dAA5e37E7Ce73A1F39669623a361, 0x999dfAbe3b1cc2EF66eB032Eea42FeA329bBa168, 0x96A394058E2b84A89bac9667B19661Ed003cF5D4, 0x9aBFE1F8a999B0011ecD6116649AEe8D575F5604, 0x75c38D46001b0F8108c4136216bd2694982C20FC]",
        "[0x741F0d8Bde14140f62107FC60A0EE122B37D4630, 0x741F0d8Bde14140f62107FC60A0EE122B37D4630, 0x741F0d8Bde14140f62107FC60A0EE122B37D4630, 0x741F0d8Bde14140f62107FC60A0EE122B37D4630, 0x741F0d8Bde14140f62107FC60A0EE122B37D4630, 0x741F0d8Bde14140f62107FC60A0EE122B37D4630]"
      ],
      "transaction": {
        "from": "0x45dce8e4f2dc005a5f28206a46cb034697eeda8e",
        "to": "0x741f0d8bde14140f62107fc60a0ee122b37d4630",
        "gas": "0x27920f",
        "value": "0x278e9343be19f8c",
        "input": "0xb70d4241000000000000000000000000000000000000000000000000000000000000006000000000000000000000000000000000000000000000000000000000000008c000000000000000000000000000000000000000000000000000000000000009a0000000000000000000000000000000000000000000000000000000000000000600000000000000000000000000000000000000000000000000000000000000c000000000000000000000000000000000000000000000000000000000000002000000000000000000000000000000000000000000000000000000000000000340000000000000000000000000000000000000000000000000000000000000048000000000000000000000000000000000000000000000000000000000000005c000000000000000000000000000000000000000000000000000000000000007000000000000000000000000000000000000000000000000000000000000007648000000000000000000000000741f0d8bde14140f62107fc60a0ee122b37d4630000000000000000000000000000000000000000000000000000009184e72a000000000000000000000000000000000000000000000000000000000000000000000000000000000000000000000000000000000000000000000000000000000e0000000000000000000000000000000000000000000000000000000000000010000000000000000000000000000000000000000000000000000000000000001200000000000000000000000000000000000000000000000000000000000000000000000000000000000000000000000000000000000000000000000000000000000000000000000000000000000000000000000000000000000000000000000000000000000000000000000000000000000000000000000000000000000007648000000000000000000000000741f0d8bde14140f62107fc60a0ee122b37d4630000000000000000000000000000000000000000000000000000009184e72a000000000000000000000000000000000000000000000000000000000000000000000000000000000000000000000000000000000000000000000000000000000e0000000000000000000000000000000000000000000000000000000000000010000000000000000000000000000000000000000000000000000000000000001200000000000000000000000000000000000000000000000000000000000000000000000000000000000000000000000000000000000000000000000000000000000000000000000000000000000000000000000000000000000000000000000000000000000000000000000000000000000000000000000000000000000007648000000000000000000000000741f0d8bde14140f62107fc60a0ee122b37d4630000000000000000000000000000000000000000000000000000009184e72a000000000000000000000000000000000000000000000000000000000000000000000000000000000000000000000000000000000000000000000000000000000e0000000000000000000000000000000000000000000000000000000000000010000000000000000000000000000000000000000000000000000000000000001200000000000000000000000000000000000000000000000000000000000000000000000000000000000000000000000000000000000000000000000000000000000000000000000000000000000000000000000000000000000000000000000000000000000000000000000000000000000000000000000000000000000007648000000000000000000000000741f0d8bde14140f62107fc60a0ee122b37d4630000000000000000000000000000000000000000000000000000009184e72a000000000000000000000000000000000000000000000000000000000000000000000000000000000000000000000000000000000000000000000000000000000e0000000000000000000000000000000000000000000000000000000000000010000000000000000000000000000000000000000000000000000000000000001200000000000000000000000000000000000000000000000000000000000000000000000000000000000000000000000000000000000000000000000000000000000000000000000000000000000000000000000000000000000000000000000000000000000000000000000000000000000000000000000000000000000007648000000000000000000000000741f0d8bde14140f62107fc60a0ee122b37d4630000000000000000000000000000000000000000000000000000009184e72a000000000000000000000000000000000000000000000000000000000000000000000000000000000000000000000000000000000000000000000000000000000e0000000000000000000000000000000000000000000000000000000000000010000000000000000000000000000000000000000000000000000000000000001200000000000000000000000000000000000000000000000000000000000000000000000000000000000000000000000000000000000000000000000000000000000000000000000000000000000000000000000000000000000000000000000000000000000000000000000000000000000000000000000000000000000007648000000000000000000000000741f0d8bde14140f62107fc60a0ee122b37d4630000000000000000000000000000000000000000000000000000009184e72a000000000000000000000000000000000000000000000000000000000000000000000000000000000000000000000000000000000000000000000000000000000e0000000000000000000000000000000000000000000000000000000000000010000000000000000000000000000000000000000000000000000000000000001200000000000000000000000000000000000000000000000000000000000000000000000000000000000000000000000000000000000000000000000000000000000000000000000000000000000000000000000000000000000000000000000000000000000000000000000000000000000000000000000000000000000000006000000000000000000000000d86fbbd0c8715d2c1f40e451e5c3514e65e7576a00000000000000000000000088aa7854d3b2daa5e37e7ce73a1f39669623a361000000000000000000000000999dfabe3b1cc2ef66eb032eea42fea329bba16800000000000000000000000096a394058e2b84a89bac9667b19661ed003cf5d40000000000000000000000009abfe1f8a999b0011ecd6116649aee8d575f560400000000000000000000000075c38d46001b0f8108c4136216bd2694982c20fc0000000000000000000000000000000000000000000000000000000000000006000000000000000000000000741f0d8bde14140f62107fc60a0ee122b37d4630000000000000000000000000741f0d8bde14140f62107fc60a0ee122b37d4630000000000000000000000000741f0d8bde14140f62107fc60a0ee122b37d4630000000000000000000000000741f0d8bde14140f62107fc60a0ee122b37d4630000000000000000000000000741f0d8bde14140f62107fc60a0ee122b37d4630000000000000000000000000741f0d8bde14140f62107fc60a0ee122b37d4630",
        "nonce": "0x101",
        "chainId": "0xfc"
      },
      "additionalContracts": [],
      "isFixedGasLimit": false
    }
  ],
  "receipts": [],
  "libraries": [],
  "pending": [],
  "returns": {},
  "timestamp": 1771463904920,
  "chain": 252,
  "commit": "f037d85"
}