{
  "transactions": [
    {
      "hash": "0x8ffd313858f743072eb786ed5167d31ba772e2229bf7c3a2176bfaddf09e1a66",
      "transactionType": "CALL",
      "contractName": null,
      "contractAddress": "0xf6f45ccb5e85d1400067ee66f9e168f83e86124e",
      "function": "batchBridgeWithEthFeeFromWallet((uint32,bytes32,uint256,uint256,bytes,bytes,bytes)[],address[],address[])",
      "arguments": [
        "[(30255, 0x000000000000000000000000741f0d8bde14140f62107fc60a0ee122b37d4630, 100000000000000, 0, 0x, 0x, 0x), (30255, 0x000000000000000000000000741f0d8bde14140f62107fc60a0ee122b37d4630, 100000000000000, 0, 0x, 0x, 0x), (30255, 0x000000000000000000000000741f0d8bde14140f62107fc60a0ee122b37d4630, 100000000000000, 0, 0x, 0x, 0x), (30255, 0x000000000000000000000000741f0d8bde14140f62107fc60a0ee122b37d4630, 100000000000000, 0, 0x, 0x, 0x), (30255, 0x000000000000000000000000741f0d8bde14140f62107fc60a0ee122b37d4630, 100000000000000, 0, 0x, 0x, 0x), (30255, 0x000000000000000000000000741f0d8bde14140f62107fc60a0ee122b37d4630, 100000000000000, 0, 0x, 0x, 0x)]",
        "[0x64445f0aecC51E94aD52d8AC56b7190e764E561a, 0x5Bff88cA1442c2496f7E475E9e7786383Bc070c0, 0x3Ec3849C33291a9eF4c5dB86De593EB4A37fDe45, 0x80Eede496655FB9047dd39d9f418d5483ED600df, 0x43eDD7f3831b08FE70B7555ddD373C8bF65a9050, 0x90581eCa9469D8D7F5D3B60f4715027aDFCf7927]",
        "[0xF6f45CCB5E85D1400067ee66F9e168f83e86124E, 0xF6f45CCB5E85D1400067ee66F9e168f83e86124E, 0xF6f45CCB5E85D1400067ee66F9e168f83e86124E, 0xF6f45CCB5E85D1400067ee66F9e168f83e86124E, 0xF6f45CCB5E85D1400067ee66F9e168f83e86124E, 0xF6f45CCB5E85D1400067ee66F9e168f83e86124E]"
      ],
      "transaction": {
        "from": "0x0990be6db8c785fbbf9ded8baec612a10cae814b",
        "to": "0xf6f45ccb5e85d1400067ee66f9e168f83e86124e",
        "gas": "0x2596b6",
        "value": "0x4d92071d4d7ec96",
        "input": "0xb70d4241000000000000000000000000000000000000000000000000000000000000006000000000000000000000000000000000000000000000000000000000000008c000000000000000000000000000000000000000000000000000000000000009a0000000000000000000000000000000000000000000000000000000000000000600000000000000000000000000000000000000000000000000000000000000c000000000000000000000000000000000000000000000000000000000000002000000000000000000000000000000000000000000000000000000000000000340000000000000000000000000000000000000000000000000000000000000048000000000000000000000000000000000000000000000000000000000000005c00000000000000000000000000000000000000000000000000000000000000700000000000000000000000000000000000000000000000000000000000000762f000000000000000000000000741f0d8bde14140f62107fc60a0ee122b37d463000000000000000000000000000000000000000000000000000005af3107a4000000000000000000000000000000000000000000000000000000000000000000000000000000000000000000000000000000000000000000000000000000000e000000000000000000000000000000000000000000000000000000000000001000000000000000000000000000000000000000000000000000000000000000120000000000000000000000000000000000000000000000000000000000000000000000000000000000000000000000000000000000000000000000000000000000000000000000000000000000000000000000000000000000000000000000000000000000000000000000000000000000000000000000000000000000000762f000000000000000000000000741f0d8bde14140f62107fc60a0ee122b37d463000000000000000000000000000000000000000000000000000005af3107a4000000000000000000000000000000000000000000000000000000000000000000000000000000000000000000000000000000000000000000000000000000000e000000000000000000000000000000000000000000000000000000000000001000000000000000000000000000000000000000000000000000000000000000120000000000000000000000000000000000000000000000000000000000000000000000000000000000000000000000000000000000000000000000000000000000000000000000000000000000000000000000000000000000000000000000000000000000000000000000000000000000000000000000000000000000000762f000000000000000000000000741f0d8bde14140f62107fc60a0ee122b37d463000000000000000000000000000000000000000000000000000005af3107a4000000000000000000000000000000000000000000000000000000000000000000000000000000000000000000000000000000000000000000000000000000000e000000000000000000000000000000000000000000000000000000000000001000000000000000000000000000000000000000000000000000000000000000120000000000000000000000000000000000000000000000000000000000000000000000000000000000000000000000000000000000000000000000000000000000000000000000000000000000000000000000000000000000000000000000000000000000000000000000000000000000000000000000000000000000000762f000000000000000000000000741f0d8bde14140f62107fc60a0ee122b37d463000000000000000000000000000000000000000000000000000005af3107a4000000000000000000000000000000000000000000000000000000000000000000000000000000000000000000000000000000000000000000000000000000000e000000000000000000000000000000000000000000000000000000000000001000000000000000000000000000000000000000000000000000000000000000120000000000000000000000000000000000000000000000000000000000000000000000000000000000000000000000000000000000000000000000000000000000000000000000000000000000000000000000000000000000000000000000000000000000000000000000000000000000000000000000000000000000000762f000000000000000000000000741f0d8bde14140f62107fc60a0ee122b37d463000000000000000000000000000000000000000000000000000005af3107a4000000000000000000000000000000000000000000000000000000000000000000000000000000000000000000000000000000000000000000000000000000000e000000000000000000000000000000000000000000000000000000000000001000000000000000000000000000000000000000000000000000000000000000120000000000000000000000000000000000000000000000000000000000000000000000000000000000000000000000000000000000000000000000000000000000000000000000000000000000000000000000000000000000000000000000000000000000000000000000000000000000000000000000000000000000000762f000000000000000000000000741f0d8bde14140f62107fc60a0ee122b37d463000000000000000000000000000000000000000000000000000005af3107a4000000000000000000000000000000000000000000000000000000000000000000000000000000000000000000000000000000000000000000000000000000000e000000000000000000000000000000000000000000000000000000000000001000000000000000000000000000000000000000000000000000000000000000120000000000000000000000000000000000000000000000000000000000000000000000000000000000000000000000000000000000000000000000000000000000000000000000000000000000000000000000000000000000000000000000000000000000000000000000000000000000000000000000000000000000000000600000000000000000000000064445f0aecc51e94ad52d8ac56b7190e764e561a0000000000000000000000005bff88ca1442c2496f7e475e9e7786383bc070c00000000000000000000000003ec3849c33291a9ef4c5db86de593eb4a37fde4500000000000000000000000080eede496655fb9047dd39d9f418d5483ed600df00000000000000000000000043edd7f3831b08fe70b7555ddd373c8bf65a905000000000000000000000000090581eca9469d8d7f5d3b60f4715027adfcf79270000000000000000000000000000000000000000000000000000000000000006000000000000000000000000f6f45ccb5e85d1400067ee66f9e168f83e86124e000000000000000000000000f6f45ccb5e85d1400067ee66f9e168f83e86124e000000000000000000000000f6f45ccb5e85d1400067ee66f9e168f83e86124e000000000000000000000000f6f45ccb5e85d1400067ee66f9e168f83e86124e000000000000000000000000f6f45ccb5e85d1400067ee66f9e168f83e86124e000000000000000000000000f6f45ccb5e85d1400067ee66f9e168f83e86124e",
        "nonce": "0x31",
        "chainId": "0x3dc"
      },
      "additionalContracts": [],
      "isFixedGasLimit": false
    }
  ],
  "receipts": [
    {
      "status": "0x1",
      "cumulativeGasUsed": "0x1b36ac",
      "logs": [
        {
          "address": "0x64445f0aecc51e94ad52d8ac56b7190e764e561a",
          "topics": [
            "0xddf252ad1be2c89b69c2b068fc378daa952ba7f163c4a11628f55a4df523b3ef",
            "0x000000000000000000000000f6f45ccb5e85d1400067ee66f9e168f83e86124e",
            "0x0000000000000000000000000000000000000000000000000000000000000000"
          ],
          "data": "0x00000000000000000000000000000000000000000000000000005af3107a4000",
          "blockHash": "0xe9cfdd1e09f659b45bae16506e4b8252b142db56601306b4d1b03c29cb368f5c",
          "blockNumber": "0x29bad3",
          "transactionHash": "0x8ffd313858f743072eb786ed5167d31ba772e2229bf7c3a2176bfaddf09e1a66",
          "transactionIndex": "0x0",
          "logIndex": "0x0",
          "removed": false
        },
        {
          "address": "0x37aaaf95887624a363effb7762d489e3c05c2a02",
          "topics": [
            "0x61ed099e74a97a1d7f8bb0952a88ca8b7b8ebd00c126ea04671f92a81213318a"
          ],
          "data": "0x0000000000000000000000004208d6e27538189bb48e603d6123a94b8abe0a0b0000000000000000000000000000000000000000000000000051a2695f82e264",
          "blockHash": "0xe9cfdd1e09f659b45bae16506e4b8252b142db56601306b4d1b03c29cb368f5c",
          "blockNumber": "0x29bad3",
          "transactionHash": "0x8ffd313858f743072eb786ed5167d31ba772e2229bf7c3a2176bfaddf09e1a66",
          "transactionIndex": "0x0",
          "logIndex": "0x1",
          "removed": false
        },
        {
          "address": "0x37aaaf95887624a363effb7762d489e3c05c2a02",
          "topics": [
            "0x07ea52d82345d6e838192107d8fd7123d9c2ec8e916cd0aad13fd2b60db24644"
          ],
          "data": "0x000000000000000000000000000000000000000000000000000000000000006000000000000000000000000000000000000000000000000000000000000000e00000000000000000000000000000000000000000000000000000000000000100000000000000000000000000000000000000000000000000000000000000000300000000000000000000000045a7305c65aad28384f20a80f87a5183772e4f70000000000000000000000000965a80dc87cec5848310e612dead84b543aef8740000000000000000000000009c061c9a4782294eef65ef28cb88233a987f4bdd000000000000000000000000000000000000000000000000000000000000000000000000000000000000000000000000000000000000000000000000000000030000000000000000000000000000000000000000000000000029bd716bfccfe70000000000000000000000000000000000000000000000000029bd716bfccfe70000000000000000000000000000000000000000000000000029bd716bfccfe7",
          "blockHash": "0xe9cfdd1e09f659b45bae16506e4b8252b142db56601306b4d1b03c29cb368f5c",
          "blockNumber": "0x29bad3",
          "transactionHash": "0x8ffd313858f743072eb786ed5167d31ba772e2229bf7c3a2176bfaddf09e1a66",
          "transactionIndex": "0x0",
          "logIndex": "0x2",
          "removed": false
        },
        {
          "address": "0x6f475642a6e85809b1c36fa62763669b1b48dd5b",
          "topics": [
            "0x1ab700d4ced0c005b164c0f789fd09fcbb0156d4c2041b8a3bfbcd961cd1567f"
          ],
          "data": "0x0000000000000000000000000000000000000000000000000000000000000060000000000000000000000000000000000000000000000000000000000000012000000000000000000000000037aaaf95887624a363effb7762d489e3c05c2a020000000000000000000000000000000000000000000000000000000000000099010000000000000001000076bc00000000000000000000000064445f0aecc51e94ad52d8ac56b7190e764e561a0000762f000000000000000000000000d86fbbd0c8715d2c1f40e451e5c3514e65e7576a9dfcf3bd659195bc9c4060cdc08a2a0ad058b873b1da2b3a04657954b9f68327000000000000000000000000741f0d8bde14140f62107fc60a0ee122b37d4630000000000000006400000000000000000000000000000000000000000000000000000000000000000000000000001600030100110100000000000000000000000000030d4000000000000000000000",
          "blockHash": "0xe9cfdd1e09f659b45bae16506e4b8252b142db56601306b4d1b03c29cb368f5c",
          "blockNumber": "0x29bad3",
          "transactionHash": "0x8ffd313858f743072eb786ed5167d31ba772e2229bf7c3a2176bfaddf09e1a66",
          "transactionIndex": "0x0",
          "logIndex": "0x3",
          "removed": false
        },
        {
          "address": "0x64445f0aecc51e94ad52d8ac56b7190e764e561a",
          "topics": [
            "0x85496b760a4b7f8d66384b9df21b381f5d1b1e79f229a47aaf4c232edc2fe59a",
            "0x9dfcf3bd659195bc9c4060cdc08a2a0ad058b873b1da2b3a04657954b9f68327",
            "0x000000000000000000000000f6f45ccb5e85d1400067ee66f9e168f83e86124e"
          ],
          "data": "0x000000000000000000000000000000000000000000000000000000000000762f00000000000000000000000000000000000000000000000000005af3107a400000000000000000000000000000000000000000000000000000005af3107a4000",
          "blockHash": "0xe9cfdd1e09f659b45bae16506e4b8252b142db56601306b4d1b03c29cb368f5c",
          "blockNumber": "0x29bad3",
          "transactionHash": "0x8ffd313858f743072eb786ed5167d31ba772e2229bf7c3a2176bfaddf09e1a66",
          "transactionIndex": "0x0",
          "logIndex": "0x4",
          "removed": false
        },
        {
          "address": "0x5bff88ca1442c2496f7e475e9e7786383bc070c0",
          "topics": [
            "0xddf252ad1be2c89b69c2b068fc378daa952ba7f163c4a11628f55a4df523b3ef",
            "0x000000000000000000000000f6f45ccb5e85d1400067ee66f9e168f83e86124e",
            "0x0000000000000000000000000000000000000000000000000000000000000000"
          ],
          "data": "0x00000000000000000000000000000000000000000000000000005af3107a4000",
          "blockHash": "0xe9cfdd1e09f659b45bae16506e4b8252b142db56601306b4d1b03c29cb368f5c",
          "blockNumber": "0x29bad3",
          "transactionHash": "0x8ffd313858f743072eb786ed5167d31ba772e2229bf7c3a2176bfaddf09e1a66",
          "transactionIndex": "0x0",
          "logIndex": "0x5",
          "removed": false
        },
        {
          "address": "0x37aaaf95887624a363effb7762d489e3c05c2a02",
          "topics": [
            "0x61ed099e74a97a1d7f8bb0952a88ca8b7b8ebd00c126ea04671f92a81213318a"
          ],
          "data": "0x0000000000000000000000004208d6e27538189bb48e603d6123a94b8abe0a0b0000000000000000000000000000000000000000000000000051a2695f82e264",
          "blockHash": "0xe9cfdd1e09f659b45bae16506e4b8252b142db56601306b4d1b03c29cb368f5c",
          "blockNumber": "0x29bad3",
          "transactionHash": "0x8ffd313858f743072eb786ed5167d31ba772e2229bf7c3a2176bfaddf09e1a66",
          "transactionIndex": "0x0",
          "logIndex": "0x6",
          "removed": false
        },
        {
          "address": "0x37aaaf95887624a363effb7762d489e3c05c2a02",
          "topics": [
            "0x07ea52d82345d6e838192107d8fd7123d9c2ec8e916cd0aad13fd2b60db24644"
          ],
          "data": "0x000000000000000000000000000000000000000000000000000000000000006000000000000000000000000000000000000000000000000000000000000000e00000000000000000000000000000000000000000000000000000000000000100000000000000000000000000000000000000000000000000000000000000000300000000000000000000000045a7305c65aad28384f20a80f87a5183772e4f70000000000000000000000000965a80dc87cec5848310e612dead84b543aef8740000000000000000000000009c061c9a4782294eef65ef28cb88233a987f4bdd000000000000000000000000000000000000000000000000000000000000000000000000000000000000000000000000000000000000000000000000000000030000000000000000000000000000000000000000000000000029bd716bfccfe70000000000000000000000000000000000000000000000000029bd716bfccfe70000000000000000000000000000000000000000000000000029bd716bfccfe7",
          "blockHash": "0xe9cfdd1e09f659b45bae16506e4b8252b142db56601306b4d1b03c29cb368f5c",
          "blockNumber": "0x29bad3",
          "transactionHash": "0x8ffd313858f743072eb786ed5167d31ba772e2229bf7c3a2176bfaddf09e1a66",
          "transactionIndex": "0x0",
          "logIndex": "0x7",
          "removed": false
        },
        {
          "address": "0x6f475642a6e85809b1c36fa62763669b1b48dd5b",
          "topics": [
            "0x1ab700d4ced0c005b164c0f789fd09fcbb0156d4c2041b8a3bfbcd961cd1567f"
          ],
          "data": "0x0000000000000000000000000000000000000000000000000000000000000060000000000000000000000000000000000000000000000000000000000000012000000000000000000000000037aaaf95887624a363effb7762d489e3c05c2a020000000000000000000000000000000000000000000000000000000000000099010000000000000001000076bc0000000000000000000000005bff88ca1442c2496f7e475e9e7786383bc070c00000762f00000000000000000000000088aa7854d3b2daa5e37e7ce73a1f39669623a3611b59812ee52103d498bc4dccb4b5319bc79af3d5f221447ba4880fc63815c05b000000000000000000000000741f0d8bde14140f62107fc60a0ee122b37d4630000000000000006400000000000000000000000000000000000000000000000000000000000000000000000000001600030100110100000000000000000000000000030d4000000000000000000000",
          "blockHash": "0xe9cfdd1e09f659b45bae16506e4b8252b142db56601306b4d1b03c29cb368f5c",
          "blockNumber": "0x29bad3",
          "transactionHash": "0x8ffd313858f743072eb786ed5167d31ba772e2229bf7c3a2176bfaddf09e1a66",
          "transactionIndex": "0x0",
          "logIndex": "0x8",
          "removed": false
        },
        {
          "address": "0x5bff88ca1442c2496f7e475e9e7786383bc070c0",
          "topics": [
            "0x85496b760a4b7f8d66384b9df21b381f5d1b1e79f229a47aaf4c232edc2fe59a",
            "0x1b59812ee52103d498bc4dccb4b5319bc79af3d5f221447ba4880fc63815c05b",
            "0x000000000000000000000000f6f45ccb5e85d1400067ee66f9e168f83e86124e"
          ],
          "data": "0x000000000000000000000000000000000000000000000000000000000000762f00000000000000000000000000000000000000000000000000005af3107a400000000000000000000000000000000000000000000000000000005af3107a4000",
          "blockHash": "0xe9cfdd1e09f659b45bae16506e4b8252b142db56601306b4d1b03c29cb368f5c",
          "blockNumber": "0x29bad3",
          "transactionHash": "0x8ffd313858f743072eb786ed5167d31ba772e2229bf7c3a2176bfaddf09e1a66",
          "transactionIndex": "0x0",
          "logIndex": "0x9",
          "removed": false
        },
        {
          "address": "0x3ec3849c33291a9ef4c5db86de593eb4a37fde45",
          "topics": [
            "0xddf252ad1be2c89b69c2b068fc378daa952ba7f163c4a11628f55a4df523b3ef",
            "0x000000000000000000000000f6f45ccb5e85d1400067ee66f9e168f83e86124e",
            "0x0000000000000000000000000000000000000000000000000000000000000000"
          ],
          "data": "0x00000000000000000000000000000000000000000000000000005af3107a4000",
          "blockHash": "0xe9cfdd1e09f659b45bae16506e4b8252b142db56601306b4d1b03c29cb368f5c",
          "blockNumber": "0x29bad3",
          "transactionHash": "0x8ffd313858f743072eb786ed5167d31ba772e2229bf7c3a2176bfaddf09e1a66",
          "transactionIndex": "0x0",
          "logIndex": "0xa",
          "removed": false
        },
        {
          "address": "0x37aaaf95887624a363effb7762d489e3c05c2a02",
          "topics": [
            "0x61ed099e74a97a1d7f8bb0952a88ca8b7b8ebd00c126ea04671f92a81213318a"
          ],
          "data": "0x0000000000000000000000004208d6e27538189bb48e603d6123a94b8abe0a0b0000000000000000000000000000000000000000000000000051a2695f82e264",
          "blockHash": "0xe9cfdd1e09f659b45bae16506e4b8252b142db56601306b4d1b03c29cb368f5c",
          "blockNumber": "0x29bad3",
          "transactionHash": "0x8ffd313858f743072eb786ed5167d31ba772e2229bf7c3a2176bfaddf09e1a66",
          "transactionIndex": "0x0",
          "logIndex": "0xb",
          "removed": false
        },
        {
          "address": "0x37aaaf95887624a363effb7762d489e3c05c2a02",
          "topics": [
            "0x07ea52d82345d6e838192107d8fd7123d9c2ec8e916cd0aad13fd2b60db24644"
          ],
          "data": "0x000000000000000000000000000000000000000000000000000000000000006000000000000000000000000000000000000000000000000000000000000000e00000000000000000000000000000000000000000000000000000000000000100000000000000000000000000000000000000000000000000000000000000000300000000000000000000000045a7305c65aad28384f20a80f87a5183772e4f70000000000000000000000000965a80dc87cec5848310e612dead84b543aef8740000000000000000000000009c061c9a4782294eef65ef28cb88233a987f4bdd000000000000000000000000000000000000000000000000000000000000000000000000000000000000000000000000000000000000000000000000000000030000000000000000000000000000000000000000000000000029bd716bfccfe70000000000000000000000000000000000000000000000000029bd716bfccfe70000000000000000000000000000000000000000000000000029bd716bfccfe7",
          "blockHash": "0xe9cfdd1e09f659b45bae16506e4b8252b142db56601306b4d1b03c29cb368f5c",
          "blockNumber": "0x29bad3",
          "transactionHash": "0x8ffd313858f743072eb786ed5167d31ba772e2229bf7c3a2176bfaddf09e1a66",
          "transactionIndex": "0x0",
          "logIndex": "0xc",
          "removed": false
        },
        {
          "address": "0x6f475642a6e85809b1c36fa62763669b1b48dd5b",
          "topics": [
            "0x1ab700d4ced0c005b164c0f789fd09fcbb0156d4c2041b8a3bfbcd961cd1567f"
          ],
          "data": "0x0000000000000000000000000000000000000000000000000000000000000060000000000000000000000000000000000000000000000000000000000000012000000000000000000000000037aaaf95887624a363effb7762d489e3c05c2a020000000000000000000000000000000000000000000000000000000000000099010000000000000001000076bc0000000000000000000000003ec3849c33291a9ef4c5db86de593eb4a37fde450000762f000000000000000000000000999dfabe3b1cc2ef66eb032eea42fea329bba16800a56937452317b381b985883c06db977840ceb2693d1bd91b74ab6a99aeb87e000000000000000000000000741f0d8bde14140f62107fc60a0ee122b37d4630000000000000006400000000000000000000000000000000000000000000000000000000000000000000000000001600030100110100000000000000000000000000030d4000000000000000000000",
          "blockHash": "0xe9cfdd1e09f659b45bae16506e4b8252b142db56601306b4d1b03c29cb368f5c",
          "blockNumber": "0x29bad3",
          "transactionHash": "0x8ffd313858f743072eb786ed5167d31ba772e2229bf7c3a2176bfaddf09e1a66",
          "transactionIndex": "0x0",
          "logIndex": "0xd",
          "removed": false
        },
        {
          "address": "0x3ec3849c33291a9ef4c5db86de593eb4a37fde45",
          "topics": [
            "0x85496b760a4b7f8d66384b9df21b381f5d1b1e79f229a47aaf4c232edc2fe59a",
            "0x00a56937452317b381b985883c06db977840ceb2693d1bd91b74ab6a99aeb87e",
            "0x000000000000000000000000f6f45ccb5e85d1400067ee66f9e168f83e86124e"
          ],
          "data": "0x000000000000000000000000000000000000000000000000000000000000762f00000000000000000000000000000000000000000000000000005af3107a400000000000000000000000000000000000000000000000000000005af3107a4000",
          "blockHash": "0xe9cfdd1e09f659b45bae16506e4b8252b142db56601306b4d1b03c29cb368f5c",
          "blockNumber": "0x29bad3",
          "transactionHash": "0x8ffd313858f743072eb786ed5167d31ba772e2229bf7c3a2176bfaddf09e1a66",
          "transactionIndex": "0x0",
          "logIndex": "0xe",
          "removed": false
        },
        {
          "address": "0x80eede496655fb9047dd39d9f418d5483ed600df",
          "topics": [
            "0xddf252ad1be2c89b69c2b068fc378daa952ba7f163c4a11628f55a4df523b3ef",
            "0x000000000000000000000000f6f45ccb5e85d1400067ee66f9e168f83e86124e",
            "0x0000000000000000000000000000000000000000000000000000000000000000"
          ],
          "data": "0x00000000000000000000000000000000000000000000000000005af3107a4000",
          "blockHash": "0xe9cfdd1e09f659b45bae16506e4b8252b142db56601306b4d1b03c29cb368f5c",
          "blockNumber": "0x29bad3",
          "transactionHash": "0x8ffd313858f743072eb786ed5167d31ba772e2229bf7c3a2176bfaddf09e1a66",
          "transactionIndex": "0x0",
          "logIndex": "0xf",
          "removed": false
        },
        {
          "address": "0x37aaaf95887624a363effb7762d489e3c05c2a02",
          "topics": [
            "0x61ed099e74a97a1d7f8bb0952a88ca8b7b8ebd00c126ea04671f92a81213318a"
          ],
          "data": "0x0000000000000000000000004208d6e27538189bb48e603d6123a94b8abe0a0b0000000000000000000000000000000000000000000000000051a2695f82e264",
          "blockHash": "0xe9cfdd1e09f659b45bae16506e4b8252b142db56601306b4d1b03c29cb368f5c",
          "blockNumber": "0x29bad3",
          "transactionHash": "0x8ffd313858f743072eb786ed5167d31ba772e2229bf7c3a2176bfaddf09e1a66",
          "transactionIndex": "0x0",
          "logIndex": "0x10",
          "removed": false
        },
        {
          "address": "0x37aaaf95887624a363effb7762d489e3c05c2a02",
          "topics": [
            "0x07ea52d82345d6e838192107d8fd7123d9c2ec8e916cd0aad13fd2b60db24644"
          ],
          "data": "0x000000000000000000000000000000000000000000000000000000000000006000000000000000000000000000000000000000000000000000000000000000e00000000000000000000000000000000000000000000000000000000000000100000000000000000000000000000000000000000000000000000000000000000300000000000000000000000045a7305c65aad28384f20a80f87a5183772e4f70000000000000000000000000965a80dc87cec5848310e612dead84b543aef8740000000000000000000000009c061c9a4782294eef65ef28cb88233a987f4bdd000000000000000000000000000000000000000000000000000000000000000000000000000000000000000000000000000000000000000000000000000000030000000000000000000000000000000000000000000000000029bd716bfccfe70000000000000000000000000000000000000000000000000029bd716bfccfe70000000000000000000000000000000000000000000000000029bd716bfccfe7",
          "blockHash": "0xe9cfdd1e09f659b45bae16506e4b8252b142db56601306b4d1b03c29cb368f5c",
          "blockNumber": "0x29bad3",
          "transactionHash": "0x8ffd313858f743072eb786ed5167d31ba772e2229bf7c3a2176bfaddf09e1a66",
          "transactionIndex": "0x0",
          "logIndex": "0x11",
          "removed": false
        },
        {
          "address": "0x6f475642a6e85809b1c36fa62763669b1b48dd5b",
          "topics": [
            "0x1ab700d4ced0c005b164c0f789fd09fcbb0156d4c2041b8a3bfbcd961cd1567f"
          ],
          "data": "0x0000000000000000000000000000000000000000000000000000000000000060000000000000000000000000000000000000000000000000000000000000012000000000000000000000000037aaaf95887624a363effb7762d489e3c05c2a020000000000000000000000000000000000000000000000000000000000000099010000000000000001000076bc00000000000000000000000080eede496655fb9047dd39d9f418d5483ed600df0000762f00000000000000000000000096a394058e2b84a89bac9667b19661ed003cf5d4fb580158154cc631b62dddd54106b7d5a95b04ced8a76e6aa2405ee515d8546d000000000000000000000000741f0d8bde14140f62107fc60a0ee122b37d4630000000000000006400000000000000000000000000000000000000000000000000000000000000000000000000001600030100110100000000000000000000000000030d4000000000000000000000",
          "blockHash": "0xe9cfdd1e09f659b45bae16506e4b8252b142db56601306b4d1b03c29cb368f5c",
          "blockNumber": "0x29bad3",
          "transactionHash": "0x8ffd313858f743072eb786ed5167d31ba772e2229bf7c3a2176bfaddf09e1a66",
          "transactionIndex": "0x0",
          "logIndex": "0x12",
          "removed": false
        },
        {
          "address": "0x80eede496655fb9047dd39d9f418d5483ed600df",
          "topics": [
            "0x85496b760a4b7f8d66384b9df21b381f5d1b1e79f229a47aaf4c232edc2fe59a",
            "0xfb580158154cc631b62dddd54106b7d5a95b04ced8a76e6aa2405ee515d8546d",
            "0x000000000000000000000000f6f45ccb5e85d1400067ee66f9e168f83e86124e"
          ],
          "data": "0x000000000000000000000000000000000000000000000000000000000000762f00000000000000000000000000000000000000000000000000005af3107a400000000000000000000000000000000000000000000000000000005af3107a4000",
          "blockHash": "0xe9cfdd1e09f659b45bae16506e4b8252b142db56601306b4d1b03c29cb368f5c",
          "blockNumber": "0x29bad3",
          "transactionHash": "0x8ffd313858f743072eb786ed5167d31ba772e2229bf7c3a2176bfaddf09e1a66",
          "transactionIndex": "0x0",
          "logIndex": "0x13",
          "removed": false
        },
        {
          "address": "0x43edd7f3831b08fe70b7555ddd373c8bf65a9050",
          "topics": [
            "0xddf252ad1be2c89b69c2b068fc378daa952ba7f163c4a11628f55a4df523b3ef",
            "0x000000000000000000000000f6f45ccb5e85d1400067ee66f9e168f83e86124e",
            "0x0000000000000000000000000000000000000000000000000000000000000000"
          ],
          "data": "0x00000000000000000000000000000000000000000000000000005af3107a4000",
          "blockHash": "0xe9cfdd1e09f659b45bae16506e4b8252b142db56601306b4d1b03c29cb368f5c",
          "blockNumber": "0x29bad3",
          "transactionHash": "0x8ffd313858f743072eb786ed5167d31ba772e2229bf7c3a2176bfaddf09e1a66",
          "transactionIndex": "0x0",
          "logIndex": "0x14",
          "removed": false
        },
        {
          "address": "0x37aaaf95887624a363effb7762d489e3c05c2a02",
          "topics": [
            "0x61ed099e74a97a1d7f8bb0952a88ca8b7b8ebd00c126ea04671f92a81213318a"
          ],
          "data": "0x0000000000000000000000004208d6e27538189bb48e603d6123a94b8abe0a0b0000000000000000000000000000000000000000000000000051a2695f82e264",
          "blockHash": "0xe9cfdd1e09f659b45bae16506e4b8252b142db56601306b4d1b03c29cb368f5c",
          "blockNumber": "0x29bad3",
          "transactionHash": "0x8ffd313858f743072eb786ed5167d31ba772e2229bf7c3a2176bfaddf09e1a66",
          "transactionIndex": "0x0",
          "logIndex": "0x15",
          "removed": false
        },
        {
          "address": "0x37aaaf95887624a363effb7762d489e3c05c2a02",
          "topics": [
            "0x07ea52d82345d6e838192107d8fd7123d9c2ec8e916cd0aad13fd2b60db24644"
          ],
          "data": "0x000000000000000000000000000000000000000000000000000000000000006000000000000000000000000000000000000000000000000000000000000000e00000000000000000000000000000000000000000000000000000000000000100000000000000000000000000000000000000000000000000000000000000000300000000000000000000000045a7305c65aad28384f20a80f87a5183772e4f70000000000000000000000000965a80dc87cec5848310e612dead84b543aef8740000000000000000000000009c061c9a4782294eef65ef28cb88233a987f4bdd000000000000000000000000000000000000000000000000000000000000000000000000000000000000000000000000000000000000000000000000000000030000000000000000000000000000000000000000000000000029bd716bfccfe70000000000000000000000000000000000000000000000000029bd716bfccfe70000000000000000000000000000000000000000000000000029bd716bfccfe7",
          "blockHash": "0xe9cfdd1e09f659b45bae16506e4b8252b142db56601306b4d1b03c29cb368f5c",
          "blockNumber": "0x29bad3",
          "transactionHash": "0x8ffd313858f743072eb786ed5167d31ba772e2229bf7c3a2176bfaddf09e1a66",
          "transactionIndex": "0x0",
          "logIndex": "0x16",
          "removed": false
        },
        {
          "address": "0x6f475642a6e85809b1c36fa62763669b1b48dd5b",
          "topics": [
            "0x1ab700d4ced0c005b164c0f789fd09fcbb0156d4c2041b8a3bfbcd961cd1567f"
          ],
          "data": "0x0000000000000000000000000000000000000000000000000000000000000060000000000000000000000000000000000000000000000000000000000000012000000000000000000000000037aaaf95887624a363effb7762d489e3c05c2a020000000000000000000000000000000000000000000000000000000000000099010000000000000001000076bc00000000000000000000000043edd7f3831b08fe70b7555ddd373c8bf65a90500000762f0000000000000000000000009abfe1f8a999b0011ecd6116649aee8d575f56046471dbf4ff98bba3ed88813c265af156772f32560f11d77609d7a3dd86b4dec1000000000000000000000000741f0d8bde14140f62107fc60a0ee122b37d4630000000000000006400000000000000000000000000000000000000000000000000000000000000000000000000001600030100110100000000000000000000000000030d4000000000000000000000",
          "blockHash": "0xe9cfdd1e09f659b45bae16506e4b8252b142db56601306b4d1b03c29cb368f5c",
          "blockNumber": "0x29bad3",
          "transactionHash": "0x8ffd313858f743072eb786ed5167d31ba772e2229bf7c3a2176bfaddf09e1a66",
          "transactionIndex": "0x0",
          "logIndex": "0x17",
          "removed": false
        },
        {
          "address": "0x43edd7f3831b08fe70b7555ddd373c8bf65a9050",
          "topics": [
            "0x85496b760a4b7f8d66384b9df21b381f5d1b1e79f229a47aaf4c232edc2fe59a",
            "0x6471dbf4ff98bba3ed88813c265af156772f32560f11d77609d7a3dd86b4dec1",
            "0x000000000000000000000000f6f45ccb5e85d1400067ee66f9e168f83e86124e"
          ],
          "data": "0x000000000000000000000000000000000000000000000000000000000000762f00000000000000000000000000000000000000000000000000005af3107a400000000000000000000000000000000000000000000000000000005af3107a4000",
          "blockHash": "0xe9cfdd1e09f659b45bae16506e4b8252b142db56601306b4d1b03c29cb368f5c",
          "blockNumber": "0x29bad3",
          "transactionHash": "0x8ffd313858f743072eb786ed5167d31ba772e2229bf7c3a2176bfaddf09e1a66",
          "transactionIndex": "0x0",
          "logIndex": "0x18",
          "removed": false
        },
        {
          "address": "0x90581eca9469d8d7f5d3b60f4715027adfcf7927",
          "topics": [
            "0xddf252ad1be2c89b69c2b068fc378daa952ba7f163c4a11628f55a4df523b3ef",
            "0x000000000000000000000000f6f45ccb5e85d1400067ee66f9e168f83e86124e",
            "0x0000000000000000000000000000000000000000000000000000000000000000"
          ],
          "data": "0x00000000000000000000000000000000000000000000000000005af3107a4000",
          "blockHash": "0xe9cfdd1e09f659b45bae16506e4b8252b142db56601306b4d1b03c29cb368f5c",
          "blockNumber": "0x29bad3",
          "transactionHash": "0x8ffd313858f743072eb786ed5167d31ba772e2229bf7c3a2176bfaddf09e1a66",
          "transactionIndex": "0x0",
          "logIndex": "0x19",
          "removed": false
        },
        {
          "address": "0x37aaaf95887624a363effb7762d489e3c05c2a02",
          "topics": [
            "0x61ed099e74a97a1d7f8bb0952a88ca8b7b8ebd00c126ea04671f92a81213318a"
          ],
          "data": "0x0000000000000000000000004208d6e27538189bb48e603d6123a94b8abe0a0b0000000000000000000000000000000000000000000000000051a2695f82e264",
          "blockHash": "0xe9cfdd1e09f659b45bae16506e4b8252b142db56601306b4d1b03c29cb368f5c",
          "blockNumber": "0x29bad3",
          "transactionHash": "0x8ffd313858f743072eb786ed5167d31ba772e2229bf7c3a2176bfaddf09e1a66",
          "transactionIndex": "0x0",
          "logIndex": "0x1a",
          "removed": false
        },
        {
          "address": "0x37aaaf95887624a363effb7762d489e3c05c2a02",
          "topics": [
            "0x07ea52d82345d6e838192107d8fd7123d9c2ec8e916cd0aad13fd2b60db24644"
          ],
          "data": "0x000000000000000000000000000000000000000000000000000000000000006000000000000000000000000000000000000000000000000000000000000000e00000000000000000000000000000000000000000000000000000000000000100000000000000000000000000000000000000000000000000000000000000000300000000000000000000000045a7305c65aad28384f20a80f87a5183772e4f70000000000000000000000000965a80dc87cec5848310e612dead84b543aef8740000000000000000000000009c061c9a4782294eef65ef28cb88233a987f4bdd000000000000000000000000000000000000000000000000000000000000000000000000000000000000000000000000000000000000000000000000000000030000000000000000000000000000000000000000000000000029bd716bfccfe70000000000000000000000000000000000000000000000000029bd716bfccfe70000000000000000000000000000000000000000000000000029bd716bfccfe7",
          "blockHash": "0xe9cfdd1e09f659b45bae16506e4b8252b142db56601306b4d1b03c29cb368f5c",
          "blockNumber": "0x29bad3",
          "transactionHash": "0x8ffd313858f743072eb786ed5167d31ba772e2229bf7c3a2176bfaddf09e1a66",
          "transactionIndex": "0x0",
          "logIndex": "0x1b",
          "removed": false
        },
        {
          "address": "0x6f475642a6e85809b1c36fa62763669b1b48dd5b",
          "topics": [
            "0x1ab700d4ced0c005b164c0f789fd09fcbb0156d4c2041b8a3bfbcd961cd1567f"
          ],
          "data": "0x0000000000000000000000000000000000000000000000000000000000000060000000000000000000000000000000000000000000000000000000000000012000000000000000000000000037aaaf95887624a363effb7762d489e3c05c2a020000000000000000000000000000000000000000000000000000000000000099010000000000000001000076bc00000000000000000000000090581eca9469d8d7f5d3b60f4715027adfcf79270000762f00000000000000000000000075c38d46001b0f8108c4136216bd2694982c20fcc2243028c0bded59050a5c7615cc0a6c33ad22608899c7ce02b2105970d1c407000000000000000000000000741f0d8bde14140f62107fc60a0ee122b37d4630000000000000006400000000000000000000000000000000000000000000000000000000000000000000000000001600030100110100000000000000000000000000030d4000000000000000000000",
          "blockHash": "0xe9cfdd1e09f659b45bae16506e4b8252b142db56601306b4d1b03c29cb368f5c",
          "blockNumber": "0x29bad3",
          "transactionHash": "0x8ffd313858f743072eb786ed5167d31ba772e2229bf7c3a2176bfaddf09e1a66",
          "transactionIndex": "0x0",
          "logIndex": "0x1c",
          "removed": false
        },
        {
          "address": "0x90581eca9469d8d7f5d3b60f4715027adfcf7927",
          "topics": [
            "0x85496b760a4b7f8d66384b9df21b381f5d1b1e79f229a47aaf4c232edc2fe59a",
            "0xc2243028c0bded59050a5c7615cc0a6c33ad22608899c7ce02b2105970d1c407",
            "0x000000000000000000000000f6f45ccb5e85d1400067ee66f9e168f83e86124e"
          ],
          "data": "0x000000000000000000000000000000000000000000000000000000000000762f00000000000000000000000000000000000000000000000000005af3107a400000000000000000000000000000000000000000000000000000005af3107a4000",
          "blockHash": "0xe9cfdd1e09f659b45bae16506e4b8252b142db56601306b4d1b03c29cb368f5c",
          "blockNumber": "0x29bad3",
          "transactionHash": "0x8ffd313858f743072eb786ed5167d31ba772e2229bf7c3a2176bfaddf09e1a66",
          "transactionIndex": "0x0",
          "logIndex": "0x1d",
          "removed": false
        }
      ],
      "logsBloom": "0x00000500001000000000001000002000000000000000000000000100000001000000000000000000000000000800000000000800000000000000000200000000002002000000004008000008000000000140000000000020000000000000000000000000020000008000000001000800000040000000000000000010410000000000000000000004000010080000100010000000000020001040000000000000000000008000000002901008000000000000000000400000000440000010000000000002000000000000000080000000008800800000000000000000000020004000048000000004000000040001002000400008008000000000200000080800",
      "type": "0x2",
      "transactionHash": "0x8ffd313858f743072eb786ed5167d31ba772e2229bf7c3a2176bfaddf09e1a66",
      "transactionIndex": "0x0",
      "blockHash": "0xe9cfdd1e09f659b45bae16506e4b8252b142db56601306b4d1b03c29cb368f5c",
      "blockNumber": "0x29bad3",
      "gasUsed": "0x1b36ac",
      "effectiveGasPrice": "0x3b9aca01",
      "from": "0x0990be6db8c785fbbf9ded8baec612a10cae814b",
      "to": "0xf6f45ccb5e85d1400067ee66f9e168f83e86124e",
      "contractAddress": null
    }
  ],
  "libraries": [],
  "pending": [],
  "returns": {},
  "timestamp": 1763673561066,
  "chain": 988,
  "commit": "c76561a"
}