{
  "transactions": [
    {
      "hash": null,
      "transactionType": "CALL",
      "contractName": null,
      "contractAddress": "0x65c042454005de49106a6b0129f4af56939457da",
      "function": "setEnforcedOptions((uint32,uint16,bytes)[])",
      "arguments": [
        "[(30255, 1, 0x00030100110100000000000000000000000000030d40), (30255, 2, 0x0003010011010000000000000000000000000003d090)]"
      ],
      "transaction": {
        "from": "0x1d434906aa520e592fab2b82406beff859be8e82",
        "to": "0x65c042454005de49106a6b0129f4af56939457da",
        "gas": "0x1f5d4",
        "value": "0x0",
        "input": "0xb98bd07000000000000000000000000000000000000000000000000000000000000000200000000000000000000000000000000000000000000000000000000000000002000000000000000000000000000000000000000000000000000000000000004000000000000000000000000000000000000000000000000000000000000000e0000000000000000000000000000000000000000000000000000000000000762f00000000000000000000000000000000000000000000000000000000000000010000000000000000000000000000000000000000000000000000000000000060000000000000000000000000000000000000000000000000000000000000001600030100110100000000000000000000000000030d4000000000000000000000000000000000000000000000000000000000000000000000000000000000762f0000000000000000000000000000000000000000000000000000000000000002000000000000000000000000000000000000000000000000000000000000006000000000000000000000000000000000000000000000000000000000000000160003010011010000000000000000000000000003d09000000000000000000000",
        "nonce": "0x1",
        "chainId": "0x3e7"
      },
      "additionalContracts": [],
      "isFixedGasLimit": false
    },
    {
      "hash": null,
      "transactionType": "CALL",
      "contractName": "TransparentUpgradeableProxy",
      "contractAddress": "0xe1851f6ac161d1911104b19918fb866ef6fee577",
      "function": null,
      "arguments": null,
      "transaction": {
        "from": "0x1d434906aa520e592fab2b82406beff859be8e82",
        "to": "0xe1851f6ac161d1911104b19918fb866ef6fee577",
        "gas": "0x1f5d4",
        "value": "0x0",
        "input": "0xb98bd07000000000000000000000000000000000000000000000000000000000000000200000000000000000000000000000000000000000000000000000000000000002000000000000000000000000000000000000000000000000000000000000004000000000000000000000000000000000000000000000000000000000000000e0000000000000000000000000000000000000000000000000000000000000762f00000000000000000000000000000000000000000000000000000000000000010000000000000000000000000000000000000000000000000000000000000060000000000000000000000000000000000000000000000000000000000000001600030100110100000000000000000000000000030d4000000000000000000000000000000000000000000000000000000000000000000000000000000000762f0000000000000000000000000000000000000000000000000000000000000002000000000000000000000000000000000000000000000000000000000000006000000000000000000000000000000000000000000000000000000000000000160003010011010000000000000000000000000003d09000000000000000000000",
        "nonce": "0x2",
        "chainId": "0x3e7"
      },
      "additionalContracts": [],
      "isFixedGasLimit": false
    },
    {
      "hash": null,
      "transactionType": "CALL",
      "contractName": null,
      "contractAddress": "0xb7583b07c12286bb9026a7053b0c44e8f5fa8624",
      "function": "setEnforcedOptions((uint32,uint16,bytes)[])",
      "arguments": [
        "[(30255, 1, 0x00030100110100000000000000000000000000030d40), (30255, 2, 0x0003010011010000000000000000000000000003d090)]"
      ],
      "transaction": {
        "from": "0x1d434906aa520e592fab2b82406beff859be8e82",
        "to": "0xb7583b07c12286bb9026a7053b0c44e8f5fa8624",
        "gas": "0x1f5d4",
        "value": "0x0",
        "input": "0xb98bd07000000000000000000000000000000000000000000000000000000000000000200000000000000000000000000000000000000000000000000000000000000002000000000000000000000000000000000000000000000000000000000000004000000000000000000000000000000000000000000000000000000000000000e0000000000000000000000000000000000000000000000000000000000000762f00000000000000000000000000000000000000000000000000000000000000010000000000000000000000000000000000000000000000000000000000000060000000000000000000000000000000000000000000000000000000000000001600030100110100000000000000000000000000030d4000000000000000000000000000000000000000000000000000000000000000000000000000000000762f0000000000000000000000000000000000000000000000000000000000000002000000000000000000000000000000000000000000000000000000000000006000000000000000000000000000000000000000000000000000000000000000160003010011010000000000000000000000000003d09000000000000000000000",
        "nonce": "0x3",
        "chainId": "0x3e7"
      },
      "additionalContracts": [],
      "isFixedGasLimit": false
    },
    {
      "hash": null,
      "transactionType": "CALL",
      "contractName": "TransparentUpgradeableProxy",
      "contractAddress": "0xa444f92734be29e71b8a4762595c9733ab2c9c47",
      "function": null,
      "arguments": null,
      "transaction": {
        "from": "0x1d434906aa520e592fab2b82406beff859be8e82",
        "to": "0xa444f92734be29e71b8a4762595c9733ab2c9c47",
        "gas": "0x1f5d4",
        "value": "0x0",
        "input": "0xb98bd07000000000000000000000000000000000000000000000000000000000000000200000000000000000000000000000000000000000000000000000000000000002000000000000000000000000000000000000000000000000000000000000004000000000000000000000000000000000000000000000000000000000000000e0000000000000000000000000000000000000000000000000000000000000762f00000000000000000000000000000000000000000000000000000000000000010000000000000000000000000000000000000000000000000000000000000060000000000000000000000000000000000000000000000000000000000000001600030100110100000000000000000000000000030d4000000000000000000000000000000000000000000000000000000000000000000000000000000000762f0000000000000000000000000000000000000000000000000000000000000002000000000000000000000000000000000000000000000000000000000000006000000000000000000000000000000000000000000000000000000000000000160003010011010000000000000000000000000003d09000000000000000000000",
        "nonce": "0x4",
        "chainId": "0x3e7"
      },
      "additionalContracts": [],
      "isFixedGasLimit": false
    },
    {
      "hash": null,
      "transactionType": "CALL",
      "contractName": "TransparentUpgradeableProxy",
      "contractAddress": "0xa5c2889f0e3da388df3bf87f8f0b8e56bb863c41",
      "function": null,
      "arguments": null,
      "transaction": {
        "from": "0x1d434906aa520e592fab2b82406beff859be8e82",
        "to": "0xa5c2889f0e3da388df3bf87f8f0b8e56bb863c41",
        "gas": "0x1f5d4",
        "value": "0x0",
        "input": "0xb98bd07000000000000000000000000000000000000000000000000000000000000000200000000000000000000000000000000000000000000000000000000000000002000000000000000000000000000000000000000000000000000000000000004000000000000000000000000000000000000000000000000000000000000000e0000000000000000000000000000000000000000000000000000000000000762f00000000000000000000000000000000000000000000000000000000000000010000000000000000000000000000000000000000000000000000000000000060000000000000000000000000000000000000000000000000000000000000001600030100110100000000000000000000000000030d4000000000000000000000000000000000000000000000000000000000000000000000000000000000762f0000000000000000000000000000000000000000000000000000000000000002000000000000000000000000000000000000000000000000000000000000006000000000000000000000000000000000000000000000000000000000000000160003010011010000000000000000000000000003d09000000000000000000000",
        "nonce": "0x5",
        "chainId": "0x3e7"
      },
      "additionalContracts": [],
      "isFixedGasLimit": false
    },
    {
      "hash": null,
      "transactionType": "CALL",
      "contractName": "TransparentUpgradeableProxy",
      "contractAddress": "0xc6563942d1ae02dd6e450847de3753011ca3eee1",
      "function": null,
      "arguments": null,
      "transaction": {
        "from": "0x1d434906aa520e592fab2b82406beff859be8e82",
        "to": "0xc6563942d1ae02dd6e450847de3753011ca3eee1",
        "gas": "0x1f5d4",
        "value": "0x0",
        "input": "0xb98bd07000000000000000000000000000000000000000000000000000000000000000200000000000000000000000000000000000000000000000000000000000000002000000000000000000000000000000000000000000000000000000000000004000000000000000000000000000000000000000000000000000000000000000e0000000000000000000000000000000000000000000000000000000000000762f00000000000000000000000000000000000000000000000000000000000000010000000000000000000000000000000000000000000000000000000000000060000000000000000000000000000000000000000000000000000000000000001600030100110100000000000000000000000000030d4000000000000000000000000000000000000000000000000000000000000000000000000000000000762f0000000000000000000000000000000000000000000000000000000000000002000000000000000000000000000000000000000000000000000000000000006000000000000000000000000000000000000000000000000000000000000000160003010011010000000000000000000000000003d09000000000000000000000",
        "nonce": "0x6",
        "chainId": "0x3e7"
      },
      "additionalContracts": [],
      "isFixedGasLimit": false
    },
    {
      "hash": null,
      "transactionType": "CALL",
      "contractName": null,
      "contractAddress": "0x65c042454005de49106a6b0129f4af56939457da",
      "function": "setPeer(uint32,bytes32)",
      "arguments": [
        "30255",
        "0x000000000000000000000000d86fbbd0c8715d2c1f40e451e5c3514e65e7576a"
      ],
      "transaction": {
        "from": "0x1d434906aa520e592fab2b82406beff859be8e82",
        "to": "0x65c042454005de49106a6b0129f4af56939457da",
        "gas": "0x13a45",
        "value": "0x0",
        "input": "0x3400288b000000000000000000000000000000000000000000000000000000000000762f000000000000000000000000d86fbbd0c8715d2c1f40e451e5c3514e65e7576a",
        "nonce": "0x7",
        "chainId": "0x3e7"
      },
      "additionalContracts": [],
      "isFixedGasLimit": false
    },
    {
      "hash": null,
      "transactionType": "CALL",
      "contractName": "TransparentUpgradeableProxy",
      "contractAddress": "0xe1851f6ac161d1911104b19918fb866ef6fee577",
      "function": null,
      "arguments": null,
      "transaction": {
        "from": "0x1d434906aa520e592fab2b82406beff859be8e82",
        "to": "0xe1851f6ac161d1911104b19918fb866ef6fee577",
        "gas": "0x13a45",
        "value": "0x0",
        "input": "0x3400288b000000000000000000000000000000000000000000000000000000000000762f00000000000000000000000088aa7854d3b2daa5e37e7ce73a1f39669623a361",
        "nonce": "0x8",
        "chainId": "0x3e7"
      },
      "additionalContracts": [],
      "isFixedGasLimit": false
    },
    {
      "hash": null,
      "transactionType": "CALL",
      "contractName": null,
      "contractAddress": "0xb7583b07c12286bb9026a7053b0c44e8f5fa8624",
      "function": "setPeer(uint32,bytes32)",
      "arguments": [
        "30255",
        "0x000000000000000000000000999dfabe3b1cc2ef66eb032eea42fea329bba168"
      ],
      "transaction": {
        "from": "0x1d434906aa520e592fab2b82406beff859be8e82",
        "to": "0xb7583b07c12286bb9026a7053b0c44e8f5fa8624",
        "gas": "0x13a45",
        "value": "0x0",
        "input": "0x3400288b000000000000000000000000000000000000000000000000000000000000762f000000000000000000000000999dfabe3b1cc2ef66eb032eea42fea329bba168",
        "nonce": "0x9",
        "chainId": "0x3e7"
      },
      "additionalContracts": [],
      "isFixedGasLimit": false
    },
    {
      "hash": null,
      "transactionType": "CALL",
      "contractName": "TransparentUpgradeableProxy",
      "contractAddress": "0xa444f92734be29e71b8a4762595c9733ab2c9c47",
      "function": null,
      "arguments": null,
      "transaction": {
        "from": "0x1d434906aa520e592fab2b82406beff859be8e82",
        "to": "0xa444f92734be29e71b8a4762595c9733ab2c9c47",
        "gas": "0x128be",
        "value": "0x0",
        "input": "0x3400288b000000000000000000000000000000000000000000000000000000000000762f00000000000000000000000096a394058e2b84a89bac9667b19661ed003cf5d4",
        "nonce": "0xa",
        "chainId": "0x3e7"
      },
      "additionalContracts": [],
      "isFixedGasLimit": false
    },
    {
      "hash": null,
      "transactionType": "CALL",
      "contractName": "TransparentUpgradeableProxy",
      "contractAddress": "0xa5c2889f0e3da388df3bf87f8f0b8e56bb863c41",
      "function": null,
      "arguments": null,
      "transaction": {
        "from": "0x1d434906aa520e592fab2b82406beff859be8e82",
        "to": "0xa5c2889f0e3da388df3bf87f8f0b8e56bb863c41",
        "gas": "0x13a45",
        "value": "0x0",
        "input": "0x3400288b000000000000000000000000000000000000000000000000000000000000762f0000000000000000000000009abfe1f8a999b0011ecd6116649aee8d575f5604",
        "nonce": "0xb",
        "chainId": "0x3e7"
      },
      "additionalContracts": [],
      "isFixedGasLimit": false
    },
    {
      "hash": null,
      "transactionType": "CALL",
      "contractName": "TransparentUpgradeableProxy",
      "contractAddress": "0xc6563942d1ae02dd6e450847de3753011ca3eee1",
      "function": null,
      "arguments": null,
      "transaction": {
        "from": "0x1d434906aa520e592fab2b82406beff859be8e82",
        "to": "0xc6563942d1ae02dd6e450847de3753011ca3eee1",
        "gas": "0x128be",
        "value": "0x0",
        "input": "0x3400288b000000000000000000000000000000000000000000000000000000000000762f00000000000000000000000075c38d46001b0f8108c4136216bd2694982c20fc",
        "nonce": "0xc",
        "chainId": "0x3e7"
      },
      "additionalContracts": [],
      "isFixedGasLimit": false
    },
    {
      "hash": null,
      "transactionType": "CALL",
      "contractName": "EndpointV2",
      "contractAddress": "0x3a73033c0b1407574c76bdbac67f126f6b4a9aa9",
      "function": "setConfig(address,address,(uint32,uint32,bytes)[])",
      "arguments": [
        "0x65C042454005de49106a6B0129F4Af56939457da",
        "0xfd76d9CB0Bac839725aB79127E7411fe71b1e3CA",
        "[(30255, 2, 0x0000000000000000000000000000000000000000000000000000000000000020000000000000000000000000000000000000000000000000000000000000000000000000000000000000000000000000000000000000000000000000000000030000000000000000000000000000000000000000000000000000000000000000000000000000000000000000000000000000000000000000000000000000000000000000000000000000000000000000000000000000000000000000000000c000000000000000000000000000000000000000000000000000000000000001400000000000000000000000000000000000000000000000000000000000000003000000000000000000000000082a08f524c043ec7f6b9a42bae79a1990d8499a000000000000000000000000bb83ecf372cbb6daa629ea9a9a53bec6d601f229000000000000000000000000c097ab8cd7b053326dfe9fb3e3a31a0cce3b526f0000000000000000000000000000000000000000000000000000000000000000)]"
      ],
      "transaction": {
        "from": "0x1d434906aa520e592fab2b82406beff859be8e82",
        "to": "0x3a73033c0b1407574c76bdbac67f126f6b4a9aa9",
        "gas": "0x36d34",
        "value": "0x0",
        "input": "0x6dbd9f9000000000000000000000000065c042454005de49106a6b0129f4af56939457da000000000000000000000000fd76d9cb0bac839725ab79127e7411fe71b1e3ca000000000000000000000000000000000000000000000000000000000000006000000000000000000000000000000000000000000000000000000000000000010000000000000000000000000000000000000000000000000000000000000020000000000000000000000000000000000000000000000000000000000000762f0000000000000000000000000000000000000000000000000000000000000002000000000000000000000000000000000000000000000000000000000000006000000000000000000000000000000000000000000000000000000000000001800000000000000000000000000000000000000000000000000000000000000020000000000000000000000000000000000000000000000000000000000000000000000000000000000000000000000000000000000000000000000000000000030000000000000000000000000000000000000000000000000000000000000000000000000000000000000000000000000000000000000000000000000000000000000000000000000000000000000000000000000000000000000000000000c000000000000000000000000000000000000000000000000000000000000001400000000000000000000000000000000000000000000000000000000000000003000000000000000000000000082a08f524c043ec7f6b9a42bae79a1990d8499a000000000000000000000000bb83ecf372cbb6daa629ea9a9a53bec6d601f229000000000000000000000000c097ab8cd7b053326dfe9fb3e3a31a0cce3b526f0000000000000000000000000000000000000000000000000000000000000000",
        "nonce": "0xd",
        "chainId": "0x3e7"
      },
      "additionalContracts": [],
      "isFixedGasLimit": false
    },
    {
      "hash": null,
      "transactionType": "CALL",
      "contractName": "EndpointV2",
      "contractAddress": "0x3a73033c0b1407574c76bdbac67f126f6b4a9aa9",
      "function": "setConfig(address,address,(uint32,uint32,bytes)[])",
      "arguments": [
        "0x65C042454005de49106a6B0129F4Af56939457da",
        "0x7cacBe439EaD55fa1c22790330b12835c6884a91",
        "[(30255, 2, 0x0000000000000000000000000000000000000000000000000000000000000020000000000000000000000000000000000000000000000000000000000000000000000000000000000000000000000000000000000000000000000000000000030000000000000000000000000000000000000000000000000000000000000000000000000000000000000000000000000000000000000000000000000000000000000000000000000000000000000000000000000000000000000000000000c000000000000000000000000000000000000000000000000000000000000001400000000000000000000000000000000000000000000000000000000000000003000000000000000000000000082a08f524c043ec7f6b9a42bae79a1990d8499a000000000000000000000000bb83ecf372cbb6daa629ea9a9a53bec6d601f229000000000000000000000000c097ab8cd7b053326dfe9fb3e3a31a0cce3b526f0000000000000000000000000000000000000000000000000000000000000000)]"
      ],
      "transaction": {
        "from": "0x1d434906aa520e592fab2b82406beff859be8e82",
        "to": "0x3a73033c0b1407574c76bdbac67f126f6b4a9aa9",
        "gas": "0x36be0",
        "value": "0x0",
        "input": "0x6dbd9f9000000000000000000000000065c042454005de49106a6b0129f4af56939457da0000000000000000000000007cacbe439ead55fa1c22790330b12835c6884a91000000000000000000000000000000000000000000000000000000000000006000000000000000000000000000000000000000000000000000000000000000010000000000000000000000000000000000000000000000000000000000000020000000000000000000000000000000000000000000000000000000000000762f0000000000000000000000000000000000000000000000000000000000000002000000000000000000000000000000000000000000000000000000000000006000000000000000000000000000000000000000000000000000000000000001800000000000000000000000000000000000000000000000000000000000000020000000000000000000000000000000000000000000000000000000000000000000000000000000000000000000000000000000000000000000000000000000030000000000000000000000000000000000000000000000000000000000000000000000000000000000000000000000000000000000000000000000000000000000000000000000000000000000000000000000000000000000000000000000c000000000000000000000000000000000000000000000000000000000000001400000000000000000000000000000000000000000000000000000000000000003000000000000000000000000082a08f524c043ec7f6b9a42bae79a1990d8499a000000000000000000000000bb83ecf372cbb6daa629ea9a9a53bec6d601f229000000000000000000000000c097ab8cd7b053326dfe9fb3e3a31a0cce3b526f0000000000000000000000000000000000000000000000000000000000000000",
        "nonce": "0xe",
        "chainId": "0x3e7"
      },
      "additionalContracts": [],
      "isFixedGasLimit": false
    },
    {
      "hash": null,
      "transactionType": "CALL",
      "contractName": "EndpointV2",
      "contractAddress": "0x3a73033c0b1407574c76bdbac67f126f6b4a9aa9",
      "function": "setConfig(address,address,(uint32,uint32,bytes)[])",
      "arguments": [
        "0xE1851f6ac161d1911104b19918FB866eF6FEE577",
        "0xfd76d9CB0Bac839725aB79127E7411fe71b1e3CA",
        "[(30255, 2, 0x0000000000000000000000000000000000000000000000000000000000000020000000000000000000000000000000000000000000000000000000000000000000000000000000000000000000000000000000000000000000000000000000030000000000000000000000000000000000000000000000000000000000000000000000000000000000000000000000000000000000000000000000000000000000000000000000000000000000000000000000000000000000000000000000c000000000000000000000000000000000000000000000000000000000000001400000000000000000000000000000000000000000000000000000000000000003000000000000000000000000082a08f524c043ec7f6b9a42bae79a1990d8499a000000000000000000000000bb83ecf372cbb6daa629ea9a9a53bec6d601f229000000000000000000000000c097ab8cd7b053326dfe9fb3e3a31a0cce3b526f0000000000000000000000000000000000000000000000000000000000000000)]"
      ],
      "transaction": {
        "from": "0x1d434906aa520e592fab2b82406beff859be8e82",
        "to": "0x3a73033c0b1407574c76bdbac67f126f6b4a9aa9",
        "gas": "0x36d34",
        "value": "0x0",
        "input": "0x6dbd9f90000000000000000000000000e1851f6ac161d1911104b19918fb866ef6fee577000000000000000000000000fd76d9cb0bac839725ab79127e7411fe71b1e3ca000000000000000000000000000000000000000000000000000000000000006000000000000000000000000000000000000000000000000000000000000000010000000000000000000000000000000000000000000000000000000000000020000000000000000000000000000000000000000000000000000000000000762f0000000000000000000000000000000000000000000000000000000000000002000000000000000000000000000000000000000000000000000000000000006000000000000000000000000000000000000000000000000000000000000001800000000000000000000000000000000000000000000000000000000000000020000000000000000000000000000000000000000000000000000000000000000000000000000000000000000000000000000000000000000000000000000000030000000000000000000000000000000000000000000000000000000000000000000000000000000000000000000000000000000000000000000000000000000000000000000000000000000000000000000000000000000000000000000000c000000000000000000000000000000000000000000000000000000000000001400000000000000000000000000000000000000000000000000000000000000003000000000000000000000000082a08f524c043ec7f6b9a42bae79a1990d8499a000000000000000000000000bb83ecf372cbb6daa629ea9a9a53bec6d601f229000000000000000000000000c097ab8cd7b053326dfe9fb3e3a31a0cce3b526f0000000000000000000000000000000000000000000000000000000000000000",
        "nonce": "0xf",
        "chainId": "0x3e7"
      },
      "additionalContracts": [],
      "isFixedGasLimit": false
    },
    {
      "hash": null,
      "transactionType": "CALL",
      "contractName": "EndpointV2",
      "contractAddress": "0x3a73033c0b1407574c76bdbac67f126f6b4a9aa9",
      "function": "setConfig(address,address,(uint32,uint32,bytes)[])",
      "arguments": [
        "0xE1851f6ac161d1911104b19918FB866eF6FEE577",
        "0x7cacBe439EaD55fa1c22790330b12835c6884a91",
        "[(30255, 2, 0x0000000000000000000000000000000000000000000000000000000000000020000000000000000000000000000000000000000000000000000000000000000000000000000000000000000000000000000000000000000000000000000000030000000000000000000000000000000000000000000000000000000000000000000000000000000000000000000000000000000000000000000000000000000000000000000000000000000000000000000000000000000000000000000000c000000000000000000000000000000000000000000000000000000000000001400000000000000000000000000000000000000000000000000000000000000003000000000000000000000000082a08f524c043ec7f6b9a42bae79a1990d8499a000000000000000000000000bb83ecf372cbb6daa629ea9a9a53bec6d601f229000000000000000000000000c097ab8cd7b053326dfe9fb3e3a31a0cce3b526f0000000000000000000000000000000000000000000000000000000000000000)]"
      ],
      "transaction": {
        "from": "0x1d434906aa520e592fab2b82406beff859be8e82",
        "to": "0x3a73033c0b1407574c76bdbac67f126f6b4a9aa9",
        "gas": "0x36be0",
        "value": "0x0",
        "input": "0x6dbd9f90000000000000000000000000e1851f6ac161d1911104b19918fb866ef6fee5770000000000000000000000007cacbe439ead55fa1c22790330b12835c6884a91000000000000000000000000000000000000000000000000000000000000006000000000000000000000000000000000000000000000000000000000000000010000000000000000000000000000000000000000000000000000000000000020000000000000000000000000000000000000000000000000000000000000762f0000000000000000000000000000000000000000000000000000000000000002000000000000000000000000000000000000000000000000000000000000006000000000000000000000000000000000000000000000000000000000000001800000000000000000000000000000000000000000000000000000000000000020000000000000000000000000000000000000000000000000000000000000000000000000000000000000000000000000000000000000000000000000000000030000000000000000000000000000000000000000000000000000000000000000000000000000000000000000000000000000000000000000000000000000000000000000000000000000000000000000000000000000000000000000000000c000000000000000000000000000000000000000000000000000000000000001400000000000000000000000000000000000000000000000000000000000000003000000000000000000000000082a08f524c043ec7f6b9a42bae79a1990d8499a000000000000000000000000bb83ecf372cbb6daa629ea9a9a53bec6d601f229000000000000000000000000c097ab8cd7b053326dfe9fb3e3a31a0cce3b526f0000000000000000000000000000000000000000000000000000000000000000",
        "nonce": "0x10",
        "chainId": "0x3e7"
      },
      "additionalContracts": [],
      "isFixedGasLimit": false
    },
    {
      "hash": null,
      "transactionType": "CALL",
      "contractName": "EndpointV2",
      "contractAddress": "0x3a73033c0b1407574c76bdbac67f126f6b4a9aa9",
      "function": "setConfig(address,address,(uint32,uint32,bytes)[])",
      "arguments": [
        "0xb7583B07C12286bb9026A7053B0C44e8f5fa8624",
        "0xfd76d9CB0Bac839725aB79127E7411fe71b1e3CA",
        "[(30255, 2, 0x0000000000000000000000000000000000000000000000000000000000000020000000000000000000000000000000000000000000000000000000000000000000000000000000000000000000000000000000000000000000000000000000030000000000000000000000000000000000000000000000000000000000000000000000000000000000000000000000000000000000000000000000000000000000000000000000000000000000000000000000000000000000000000000000c000000000000000000000000000000000000000000000000000000000000001400000000000000000000000000000000000000000000000000000000000000003000000000000000000000000082a08f524c043ec7f6b9a42bae79a1990d8499a000000000000000000000000bb83ecf372cbb6daa629ea9a9a53bec6d601f229000000000000000000000000c097ab8cd7b053326dfe9fb3e3a31a0cce3b526f0000000000000000000000000000000000000000000000000000000000000000)]"
      ],
      "transaction": {
        "from": "0x1d434906aa520e592fab2b82406beff859be8e82",
        "to": "0x3a73033c0b1407574c76bdbac67f126f6b4a9aa9",
        "gas": "0x36d34",
        "value": "0x0",
        "input": "0x6dbd9f90000000000000000000000000b7583b07c12286bb9026a7053b0c44e8f5fa8624000000000000000000000000fd76d9cb0bac839725ab79127e7411fe71b1e3ca000000000000000000000000000000000000000000000000000000000000006000000000000000000000000000000000000000000000000000000000000000010000000000000000000000000000000000000000000000000000000000000020000000000000000000000000000000000000000000000000000000000000762f0000000000000000000000000000000000000000000000000000000000000002000000000000000000000000000000000000000000000000000000000000006000000000000000000000000000000000000000000000000000000000000001800000000000000000000000000000000000000000000000000000000000000020000000000000000000000000000000000000000000000000000000000000000000000000000000000000000000000000000000000000000000000000000000030000000000000000000000000000000000000000000000000000000000000000000000000000000000000000000000000000000000000000000000000000000000000000000000000000000000000000000000000000000000000000000000c000000000000000000000000000000000000000000000000000000000000001400000000000000000000000000000000000000000000000000000000000000003000000000000000000000000082a08f524c043ec7f6b9a42bae79a1990d8499a000000000000000000000000bb83ecf372cbb6daa629ea9a9a53bec6d601f229000000000000000000000000c097ab8cd7b053326dfe9fb3e3a31a0cce3b526f0000000000000000000000000000000000000000000000000000000000000000",
        "nonce": "0x11",
        "chainId": "0x3e7"
      },
      "additionalContracts": [],
      "isFixedGasLimit": false
    },
    {
      "hash": null,
      "transactionType": "CALL",
      "contractName": "EndpointV2",
      "contractAddress": "0x3a73033c0b1407574c76bdbac67f126f6b4a9aa9",
      "function": "setConfig(address,address,(uint32,uint32,bytes)[])",
      "arguments": [
        "0xb7583B07C12286bb9026A7053B0C44e8f5fa8624",
        "0x7cacBe439EaD55fa1c22790330b12835c6884a91",
        "[(30255, 2, 0x0000000000000000000000000000000000000000000000000000000000000020000000000000000000000000000000000000000000000000000000000000000000000000000000000000000000000000000000000000000000000000000000030000000000000000000000000000000000000000000000000000000000000000000000000000000000000000000000000000000000000000000000000000000000000000000000000000000000000000000000000000000000000000000000c000000000000000000000000000000000000000000000000000000000000001400000000000000000000000000000000000000000000000000000000000000003000000000000000000000000082a08f524c043ec7f6b9a42bae79a1990d8499a000000000000000000000000bb83ecf372cbb6daa629ea9a9a53bec6d601f229000000000000000000000000c097ab8cd7b053326dfe9fb3e3a31a0cce3b526f0000000000000000000000000000000000000000000000000000000000000000)]"
      ],
      "transaction": {
        "from": "0x1d434906aa520e592fab2b82406beff859be8e82",
        "to": "0x3a73033c0b1407574c76bdbac67f126f6b4a9aa9",
        "gas": "0x36be0",
        "value": "0x0",
        "input": "0x6dbd9f90000000000000000000000000b7583b07c12286bb9026a7053b0c44e8f5fa86240000000000000000000000007cacbe439ead55fa1c22790330b12835c6884a91000000000000000000000000000000000000000000000000000000000000006000000000000000000000000000000000000000000000000000000000000000010000000000000000000000000000000000000000000000000000000000000020000000000000000000000000000000000000000000000000000000000000762f0000000000000000000000000000000000000000000000000000000000000002000000000000000000000000000000000000000000000000000000000000006000000000000000000000000000000000000000000000000000000000000001800000000000000000000000000000000000000000000000000000000000000020000000000000000000000000000000000000000000000000000000000000000000000000000000000000000000000000000000000000000000000000000000030000000000000000000000000000000000000000000000000000000000000000000000000000000000000000000000000000000000000000000000000000000000000000000000000000000000000000000000000000000000000000000000c000000000000000000000000000000000000000000000000000000000000001400000000000000000000000000000000000000000000000000000000000000003000000000000000000000000082a08f524c043ec7f6b9a42bae79a1990d8499a000000000000000000000000bb83ecf372cbb6daa629ea9a9a53bec6d601f229000000000000000000000000c097ab8cd7b053326dfe9fb3e3a31a0cce3b526f0000000000000000000000000000000000000000000000000000000000000000",
        "nonce": "0x12",
        "chainId": "0x3e7"
      },
      "additionalContracts": [],
      "isFixedGasLimit": false
    },
    {
      "hash": null,
      "transactionType": "CALL",
      "contractName": "EndpointV2",
      "contractAddress": "0x3a73033c0b1407574c76bdbac67f126f6b4a9aa9",
      "function": "setConfig(address,address,(uint32,uint32,bytes)[])",
      "arguments": [
        "0xA444F92734be29E71b8A4762595C9733Ab2C9c47",
        "0xfd76d9CB0Bac839725aB79127E7411fe71b1e3CA",
        "[(30255, 2, 0x0000000000000000000000000000000000000000000000000000000000000020000000000000000000000000000000000000000000000000000000000000000000000000000000000000000000000000000000000000000000000000000000030000000000000000000000000000000000000000000000000000000000000000000000000000000000000000000000000000000000000000000000000000000000000000000000000000000000000000000000000000000000000000000000c000000000000000000000000000000000000000000000000000000000000001400000000000000000000000000000000000000000000000000000000000000003000000000000000000000000082a08f524c043ec7f6b9a42bae79a1990d8499a000000000000000000000000bb83ecf372cbb6daa629ea9a9a53bec6d601f229000000000000000000000000c097ab8cd7b053326dfe9fb3e3a31a0cce3b526f0000000000000000000000000000000000000000000000000000000000000000)]"
      ],
      "transaction": {
        "from": "0x1d434906aa520e592fab2b82406beff859be8e82",
        "to": "0x3a73033c0b1407574c76bdbac67f126f6b4a9aa9",
        "gas": "0x36d34",
        "value": "0x0",
        "input": "0x6dbd9f90000000000000000000000000a444f92734be29e71b8a4762595c9733ab2c9c47000000000000000000000000fd76d9cb0bac839725ab79127e7411fe71b1e3ca000000000000000000000000000000000000000000000000000000000000006000000000000000000000000000000000000000000000000000000000000000010000000000000000000000000000000000000000000000000000000000000020000000000000000000000000000000000000000000000000000000000000762f0000000000000000000000000000000000000000000000000000000000000002000000000000000000000000000000000000000000000000000000000000006000000000000000000000000000000000000000000000000000000000000001800000000000000000000000000000000000000000000000000000000000000020000000000000000000000000000000000000000000000000000000000000000000000000000000000000000000000000000000000000000000000000000000030000000000000000000000000000000000000000000000000000000000000000000000000000000000000000000000000000000000000000000000000000000000000000000000000000000000000000000000000000000000000000000000c000000000000000000000000000000000000000000000000000000000000001400000000000000000000000000000000000000000000000000000000000000003000000000000000000000000082a08f524c043ec7f6b9a42bae79a1990d8499a000000000000000000000000bb83ecf372cbb6daa629ea9a9a53bec6d601f229000000000000000000000000c097ab8cd7b053326dfe9fb3e3a31a0cce3b526f0000000000000000000000000000000000000000000000000000000000000000",
        "nonce": "0x13",
        "chainId": "0x3e7"
      },
      "additionalContracts": [],
      "isFixedGasLimit": false
    },
    {
      "hash": null,
      "transactionType": "CALL",
      "contractName": "EndpointV2",
      "contractAddress": "0x3a73033c0b1407574c76bdbac67f126f6b4a9aa9",
      "function": "setConfig(address,address,(uint32,uint32,bytes)[])",
      "arguments": [
        "0xA444F92734be29E71b8A4762595C9733Ab2C9c47",
        "0x7cacBe439EaD55fa1c22790330b12835c6884a91",
        "[(30255, 2, 0x0000000000000000000000000000000000000000000000000000000000000020000000000000000000000000000000000000000000000000000000000000000000000000000000000000000000000000000000000000000000000000000000030000000000000000000000000000000000000000000000000000000000000000000000000000000000000000000000000000000000000000000000000000000000000000000000000000000000000000000000000000000000000000000000c000000000000000000000000000000000000000000000000000000000000001400000000000000000000000000000000000000000000000000000000000000003000000000000000000000000082a08f524c043ec7f6b9a42bae79a1990d8499a000000000000000000000000bb83ecf372cbb6daa629ea9a9a53bec6d601f229000000000000000000000000c097ab8cd7b053326dfe9fb3e3a31a0cce3b526f0000000000000000000000000000000000000000000000000000000000000000)]"
      ],
      "transaction": {
        "from": "0x1d434906aa520e592fab2b82406beff859be8e82",
        "to": "0x3a73033c0b1407574c76bdbac67f126f6b4a9aa9",
        "gas": "0x36be0",
        "value": "0x0",
        "input": "0x6dbd9f90000000000000000000000000a444f92734be29e71b8a4762595c9733ab2c9c470000000000000000000000007cacbe439ead55fa1c22790330b12835c6884a91000000000000000000000000000000000000000000000000000000000000006000000000000000000000000000000000000000000000000000000000000000010000000000000000000000000000000000000000000000000000000000000020000000000000000000000000000000000000000000000000000000000000762f0000000000000000000000000000000000000000000000000000000000000002000000000000000000000000000000000000000000000000000000000000006000000000000000000000000000000000000000000000000000000000000001800000000000000000000000000000000000000000000000000000000000000020000000000000000000000000000000000000000000000000000000000000000000000000000000000000000000000000000000000000000000000000000000030000000000000000000000000000000000000000000000000000000000000000000000000000000000000000000000000000000000000000000000000000000000000000000000000000000000000000000000000000000000000000000000c000000000000000000000000000000000000000000000000000000000000001400000000000000000000000000000000000000000000000000000000000000003000000000000000000000000082a08f524c043ec7f6b9a42bae79a1990d8499a000000000000000000000000bb83ecf372cbb6daa629ea9a9a53bec6d601f229000000000000000000000000c097ab8cd7b053326dfe9fb3e3a31a0cce3b526f0000000000000000000000000000000000000000000000000000000000000000",
        "nonce": "0x14",
        "chainId": "0x3e7"
      },
      "additionalContracts": [],
      "isFixedGasLimit": false
    },
    {
      "hash": null,
      "transactionType": "CALL",
      "contractName": "EndpointV2",
      "contractAddress": "0x3a73033c0b1407574c76bdbac67f126f6b4a9aa9",
      "function": "setConfig(address,address,(uint32,uint32,bytes)[])",
      "arguments": [
        "0xa5C2889F0E3DA388DF3BF87f8f0B8E56bB863C41",
        "0xfd76d9CB0Bac839725aB79127E7411fe71b1e3CA",
        "[(30255, 2, 0x0000000000000000000000000000000000000000000000000000000000000020000000000000000000000000000000000000000000000000000000000000000000000000000000000000000000000000000000000000000000000000000000030000000000000000000000000000000000000000000000000000000000000000000000000000000000000000000000000000000000000000000000000000000000000000000000000000000000000000000000000000000000000000000000c000000000000000000000000000000000000000000000000000000000000001400000000000000000000000000000000000000000000000000000000000000003000000000000000000000000082a08f524c043ec7f6b9a42bae79a1990d8499a000000000000000000000000bb83ecf372cbb6daa629ea9a9a53bec6d601f229000000000000000000000000c097ab8cd7b053326dfe9fb3e3a31a0cce3b526f0000000000000000000000000000000000000000000000000000000000000000)]"
      ],
      "transaction": {
        "from": "0x1d434906aa520e592fab2b82406beff859be8e82",
        "to": "0x3a73033c0b1407574c76bdbac67f126f6b4a9aa9",
        "gas": "0x36d34",
        "value": "0x0",
        "input": "0x6dbd9f90000000000000000000000000a5c2889f0e3da388df3bf87f8f0b8e56bb863c41000000000000000000000000fd76d9cb0bac839725ab79127e7411fe71b1e3ca000000000000000000000000000000000000000000000000000000000000006000000000000000000000000000000000000000000000000000000000000000010000000000000000000000000000000000000000000000000000000000000020000000000000000000000000000000000000000000000000000000000000762f0000000000000000000000000000000000000000000000000000000000000002000000000000000000000000000000000000000000000000000000000000006000000000000000000000000000000000000000000000000000000000000001800000000000000000000000000000000000000000000000000000000000000020000000000000000000000000000000000000000000000000000000000000000000000000000000000000000000000000000000000000000000000000000000030000000000000000000000000000000000000000000000000000000000000000000000000000000000000000000000000000000000000000000000000000000000000000000000000000000000000000000000000000000000000000000000c000000000000000000000000000000000000000000000000000000000000001400000000000000000000000000000000000000000000000000000000000000003000000000000000000000000082a08f524c043ec7f6b9a42bae79a1990d8499a000000000000000000000000bb83ecf372cbb6daa629ea9a9a53bec6d601f229000000000000000000000000c097ab8cd7b053326dfe9fb3e3a31a0cce3b526f0000000000000000000000000000000000000000000000000000000000000000",
        "nonce": "0x15",
        "chainId": "0x3e7"
      },
      "additionalContracts": [],
      "isFixedGasLimit": false
    },
    {
      "hash": null,
      "transactionType": "CALL",
      "contractName": "EndpointV2",
      "contractAddress": "0x3a73033c0b1407574c76bdbac67f126f6b4a9aa9",
      "function": "setConfig(address,address,(uint32,uint32,bytes)[])",
      "arguments": [
        "0xa5C2889F0E3DA388DF3BF87f8f0B8E56bB863C41",
        "0x7cacBe439EaD55fa1c22790330b12835c6884a91",
        "[(30255, 2, 0x0000000000000000000000000000000000000000000000000000000000000020000000000000000000000000000000000000000000000000000000000000000000000000000000000000000000000000000000000000000000000000000000030000000000000000000000000000000000000000000000000000000000000000000000000000000000000000000000000000000000000000000000000000000000000000000000000000000000000000000000000000000000000000000000c000000000000000000000000000000000000000000000000000000000000001400000000000000000000000000000000000000000000000000000000000000003000000000000000000000000082a08f524c043ec7f6b9a42bae79a1990d8499a000000000000000000000000bb83ecf372cbb6daa629ea9a9a53bec6d601f229000000000000000000000000c097ab8cd7b053326dfe9fb3e3a31a0cce3b526f0000000000000000000000000000000000000000000000000000000000000000)]"
      ],
      "transaction": {
        "from": "0x1d434906aa520e592fab2b82406beff859be8e82",
        "to": "0x3a73033c0b1407574c76bdbac67f126f6b4a9aa9",
        "gas": "0x36be0",
        "value": "0x0",
        "input": "0x6dbd9f90000000000000000000000000a5c2889f0e3da388df3bf87f8f0b8e56bb863c410000000000000000000000007cacbe439ead55fa1c22790330b12835c6884a91000000000000000000000000000000000000000000000000000000000000006000000000000000000000000000000000000000000000000000000000000000010000000000000000000000000000000000000000000000000000000000000020000000000000000000000000000000000000000000000000000000000000762f0000000000000000000000000000000000000000000000000000000000000002000000000000000000000000000000000000000000000000000000000000006000000000000000000000000000000000000000000000000000000000000001800000000000000000000000000000000000000000000000000000000000000020000000000000000000000000000000000000000000000000000000000000000000000000000000000000000000000000000000000000000000000000000000030000000000000000000000000000000000000000000000000000000000000000000000000000000000000000000000000000000000000000000000000000000000000000000000000000000000000000000000000000000000000000000000c000000000000000000000000000000000000000000000000000000000000001400000000000000000000000000000000000000000000000000000000000000003000000000000000000000000082a08f524c043ec7f6b9a42bae79a1990d8499a000000000000000000000000bb83ecf372cbb6daa629ea9a9a53bec6d601f229000000000000000000000000c097ab8cd7b053326dfe9fb3e3a31a0cce3b526f0000000000000000000000000000000000000000000000000000000000000000",
        "nonce": "0x16",
        "chainId": "0x3e7"
      },
      "additionalContracts": [],
      "isFixedGasLimit": false
    },
    {
      "hash": null,
      "transactionType": "CALL",
      "contractName": "EndpointV2",
      "contractAddress": "0x3a73033c0b1407574c76bdbac67f126f6b4a9aa9",
      "function": "setConfig(address,address,(uint32,uint32,bytes)[])",
      "arguments": [
        "0xC6563942D1AE02Dd6e450847de3753011cA3eee1",
        "0xfd76d9CB0Bac839725aB79127E7411fe71b1e3CA",
        "[(30255, 2, 0x0000000000000000000000000000000000000000000000000000000000000020000000000000000000000000000000000000000000000000000000000000000000000000000000000000000000000000000000000000000000000000000000030000000000000000000000000000000000000000000000000000000000000000000000000000000000000000000000000000000000000000000000000000000000000000000000000000000000000000000000000000000000000000000000c000000000000000000000000000000000000000000000000000000000000001400000000000000000000000000000000000000000000000000000000000000003000000000000000000000000082a08f524c043ec7f6b9a42bae79a1990d8499a000000000000000000000000bb83ecf372cbb6daa629ea9a9a53bec6d601f229000000000000000000000000c097ab8cd7b053326dfe9fb3e3a31a0cce3b526f0000000000000000000000000000000000000000000000000000000000000000)]"
      ],
      "transaction": {
        "from": "0x1d434906aa520e592fab2b82406beff859be8e82",
        "to": "0x3a73033c0b1407574c76bdbac67f126f6b4a9aa9",
        "gas": "0x36d34",
        "value": "0x0",
        "input": "0x6dbd9f90000000000000000000000000c6563942d1ae02dd6e450847de3753011ca3eee1000000000000000000000000fd76d9cb0bac839725ab79127e7411fe71b1e3ca000000000000000000000000000000000000000000000000000000000000006000000000000000000000000000000000000000000000000000000000000000010000000000000000000000000000000000000000000000000000000000000020000000000000000000000000000000000000000000000000000000000000762f0000000000000000000000000000000000000000000000000000000000000002000000000000000000000000000000000000000000000000000000000000006000000000000000000000000000000000000000000000000000000000000001800000000000000000000000000000000000000000000000000000000000000020000000000000000000000000000000000000000000000000000000000000000000000000000000000000000000000000000000000000000000000000000000030000000000000000000000000000000000000000000000000000000000000000000000000000000000000000000000000000000000000000000000000000000000000000000000000000000000000000000000000000000000000000000000c000000000000000000000000000000000000000000000000000000000000001400000000000000000000000000000000000000000000000000000000000000003000000000000000000000000082a08f524c043ec7f6b9a42bae79a1990d8499a000000000000000000000000bb83ecf372cbb6daa629ea9a9a53bec6d601f229000000000000000000000000c097ab8cd7b053326dfe9fb3e3a31a0cce3b526f0000000000000000000000000000000000000000000000000000000000000000",
        "nonce": "0x17",
        "chainId": "0x3e7"
      },
      "additionalContracts": [],
      "isFixedGasLimit": false
    },
    {
      "hash": null,
      "transactionType": "CALL",
      "contractName": "EndpointV2",
      "contractAddress": "0x3a73033c0b1407574c76bdbac67f126f6b4a9aa9",
      "function": "setConfig(address,address,(uint32,uint32,bytes)[])",
      "arguments": [
        "0xC6563942D1AE02Dd6e450847de3753011cA3eee1",
        "0x7cacBe439EaD55fa1c22790330b12835c6884a91",
        "[(30255, 2, 0x0000000000000000000000000000000000000000000000000000000000000020000000000000000000000000000000000000000000000000000000000000000000000000000000000000000000000000000000000000000000000000000000030000000000000000000000000000000000000000000000000000000000000000000000000000000000000000000000000000000000000000000000000000000000000000000000000000000000000000000000000000000000000000000000c000000000000000000000000000000000000000000000000000000000000001400000000000000000000000000000000000000000000000000000000000000003000000000000000000000000082a08f524c043ec7f6b9a42bae79a1990d8499a000000000000000000000000bb83ecf372cbb6daa629ea9a9a53bec6d601f229000000000000000000000000c097ab8cd7b053326dfe9fb3e3a31a0cce3b526f0000000000000000000000000000000000000000000000000000000000000000)]"
      ],
      "transaction": {
        "from": "0x1d434906aa520e592fab2b82406beff859be8e82",
        "to": "0x3a73033c0b1407574c76bdbac67f126f6b4a9aa9",
        "gas": "0x36be0",
        "value": "0x0",
        "input": "0x6dbd9f90000000000000000000000000c6563942d1ae02dd6e450847de3753011ca3eee10000000000000000000000007cacbe439ead55fa1c22790330b12835c6884a91000000000000000000000000000000000000000000000000000000000000006000000000000000000000000000000000000000000000000000000000000000010000000000000000000000000000000000000000000000000000000000000020000000000000000000000000000000000000000000000000000000000000762f0000000000000000000000000000000000000000000000000000000000000002000000000000000000000000000000000000000000000000000000000000006000000000000000000000000000000000000000000000000000000000000001800000000000000000000000000000000000000000000000000000000000000020000000000000000000000000000000000000000000000000000000000000000000000000000000000000000000000000000000000000000000000000000000030000000000000000000000000000000000000000000000000000000000000000000000000000000000000000000000000000000000000000000000000000000000000000000000000000000000000000000000000000000000000000000000c000000000000000000000000000000000000000000000000000000000000001400000000000000000000000000000000000000000000000000000000000000003000000000000000000000000082a08f524c043ec7f6b9a42bae79a1990d8499a000000000000000000000000bb83ecf372cbb6daa629ea9a9a53bec6d601f229000000000000000000000000c097ab8cd7b053326dfe9fb3e3a31a0cce3b526f0000000000000000000000000000000000000000000000000000000000000000",
        "nonce": "0x18",
        "chainId": "0x3e7"
      },
      "additionalContracts": [],
      "isFixedGasLimit": false
    },
    {
      "hash": null,
      "transactionType": "CALL",
      "contractName": "EndpointV2",
      "contractAddress": "0x3a73033c0b1407574c76bdbac67f126f6b4a9aa9",
      "function": "setSendLibrary(address,uint32,address)",
      "arguments": [
        "0x65C042454005de49106a6B0129F4Af56939457da",
        "30255",
        "0xfd76d9CB0Bac839725aB79127E7411fe71b1e3CA"
      ],
      "transaction": {
        "from": "0x1d434906aa520e592fab2b82406beff859be8e82",
        "to": "0x3a73033c0b1407574c76bdbac67f126f6b4a9aa9",
        "gas": "0x1378b",
        "value": "0x0",
        "input": "0x9535ff3000000000000000000000000065c042454005de49106a6b0129f4af56939457da000000000000000000000000000000000000000000000000000000000000762f000000000000000000000000fd76d9cb0bac839725ab79127e7411fe71b1e3ca",
        "nonce": "0x19",
        "chainId": "0x3e7"
      },
      "additionalContracts": [],
      "isFixedGasLimit": false
    },
    {
      "hash": null,
      "transactionType": "CALL",
      "contractName": "EndpointV2",
      "contractAddress": "0x3a73033c0b1407574c76bdbac67f126f6b4a9aa9",
      "function": "setReceiveLibrary(address,uint32,address,uint256)",
      "arguments": [
        "0x65C042454005de49106a6B0129F4Af56939457da",
        "30255",
        "0x7cacBe439EaD55fa1c22790330b12835c6884a91",
        "0"
      ],
      "transaction": {
        "from": "0x1d434906aa520e592fab2b82406beff859be8e82",
        "to": "0x3a73033c0b1407574c76bdbac67f126f6b4a9aa9",
        "gas": "0x17001",
        "value": "0x0",
        "input": "0x6a14d71500000000000000000000000065c042454005de49106a6b0129f4af56939457da000000000000000000000000000000000000000000000000000000000000762f0000000000000000000000007cacbe439ead55fa1c22790330b12835c6884a910000000000000000000000000000000000000000000000000000000000000000",
        "nonce": "0x1a",
        "chainId": "0x3e7"
      },
      "additionalContracts": [],
      "isFixedGasLimit": false
    },
    {
      "hash": null,
      "transactionType": "CALL",
      "contractName": "EndpointV2",
      "contractAddress": "0x3a73033c0b1407574c76bdbac67f126f6b4a9aa9",
      "function": "setSendLibrary(address,uint32,address)",
      "arguments": [
        "0xE1851f6ac161d1911104b19918FB866eF6FEE577",
        "30255",
        "0xfd76d9CB0Bac839725aB79127E7411fe71b1e3CA"
      ],
      "transaction": {
        "from": "0x1d434906aa520e592fab2b82406beff859be8e82",
        "to": "0x3a73033c0b1407574c76bdbac67f126f6b4a9aa9",
        "gas": "0x1378b",
        "value": "0x0",
        "input": "0x9535ff30000000000000000000000000e1851f6ac161d1911104b19918fb866ef6fee577000000000000000000000000000000000000000000000000000000000000762f000000000000000000000000fd76d9cb0bac839725ab79127e7411fe71b1e3ca",
        "nonce": "0x1b",
        "chainId": "0x3e7"
      },
      "additionalContracts": [],
      "isFixedGasLimit": false
    },
    {
      "hash": null,
      "transactionType": "CALL",
      "contractName": "EndpointV2",
      "contractAddress": "0x3a73033c0b1407574c76bdbac67f126f6b4a9aa9",
      "function": "setReceiveLibrary(address,uint32,address,uint256)",
      "arguments": [
        "0xE1851f6ac161d1911104b19918FB866eF6FEE577",
        "30255",
        "0x7cacBe439EaD55fa1c22790330b12835c6884a91",
        "0"
      ],
      "transaction": {
        "from": "0x1d434906aa520e592fab2b82406beff859be8e82",
        "to": "0x3a73033c0b1407574c76bdbac67f126f6b4a9aa9",
        "gas": "0x17001",
        "value": "0x0",
        "input": "0x6a14d715000000000000000000000000e1851f6ac161d1911104b19918fb866ef6fee577000000000000000000000000000000000000000000000000000000000000762f0000000000000000000000007cacbe439ead55fa1c22790330b12835c6884a910000000000000000000000000000000000000000000000000000000000000000",
        "nonce": "0x1c",
        "chainId": "0x3e7"
      },
      "additionalContracts": [],
      "isFixedGasLimit": false
    },
    {
      "hash": null,
      "transactionType": "CALL",
      "contractName": "EndpointV2",
      "contractAddress": "0x3a73033c0b1407574c76bdbac67f126f6b4a9aa9",
      "function": "setSendLibrary(address,uint32,address)",
      "arguments": [
        "0xb7583B07C12286bb9026A7053B0C44e8f5fa8624",
        "30255",
        "0xfd76d9CB0Bac839725aB79127E7411fe71b1e3CA"
      ],
      "transaction": {
        "from": "0x1d434906aa520e592fab2b82406beff859be8e82",
        "to": "0x3a73033c0b1407574c76bdbac67f126f6b4a9aa9",
        "gas": "0x1378b",
        "value": "0x0",
        "input": "0x9535ff30000000000000000000000000b7583b07c12286bb9026a7053b0c44e8f5fa8624000000000000000000000000000000000000000000000000000000000000762f000000000000000000000000fd76d9cb0bac839725ab79127e7411fe71b1e3ca",
        "nonce": "0x1d",
        "chainId": "0x3e7"
      },
      "additionalContracts": [],
      "isFixedGasLimit": false
    },
    {
      "hash": null,
      "transactionType": "CALL",
      "contractName": "EndpointV2",
      "contractAddress": "0x3a73033c0b1407574c76bdbac67f126f6b4a9aa9",
      "function": "setReceiveLibrary(address,uint32,address,uint256)",
      "arguments": [
        "0xb7583B07C12286bb9026A7053B0C44e8f5fa8624",
        "30255",
        "0x7cacBe439EaD55fa1c22790330b12835c6884a91",
        "0"
      ],
      "transaction": {
        "from": "0x1d434906aa520e592fab2b82406beff859be8e82",
        "to": "0x3a73033c0b1407574c76bdbac67f126f6b4a9aa9",
        "gas": "0x17001",
        "value": "0x0",
        "input": "0x6a14d715000000000000000000000000b7583b07c12286bb9026a7053b0c44e8f5fa8624000000000000000000000000000000000000000000000000000000000000762f0000000000000000000000007cacbe439ead55fa1c22790330b12835c6884a910000000000000000000000000000000000000000000000000000000000000000",
        "nonce": "0x1e",
        "chainId": "0x3e7"
      },
      "additionalContracts": [],
      "isFixedGasLimit": false
    },
    {
      "hash": null,
      "transactionType": "CALL",
      "contractName": "EndpointV2",
      "contractAddress": "0x3a73033c0b1407574c76bdbac67f126f6b4a9aa9",
      "function": "setSendLibrary(address,uint32,address)",
      "arguments": [
        "0xA444F92734be29E71b8A4762595C9733Ab2C9c47",
        "30255",
        "0xfd76d9CB0Bac839725aB79127E7411fe71b1e3CA"
      ],
      "transaction": {
        "from": "0x1d434906aa520e592fab2b82406beff859be8e82",
        "to": "0x3a73033c0b1407574c76bdbac67f126f6b4a9aa9",
        "gas": "0x1378b",
        "value": "0x0",
        "input": "0x9535ff30000000000000000000000000a444f92734be29e71b8a4762595c9733ab2c9c47000000000000000000000000000000000000000000000000000000000000762f000000000000000000000000fd76d9cb0bac839725ab79127e7411fe71b1e3ca",
        "nonce": "0x1f",
        "chainId": "0x3e7"
      },
      "additionalContracts": [],
      "isFixedGasLimit": false
    },
    {
      "hash": null,
      "transactionType": "CALL",
      "contractName": "EndpointV2",
      "contractAddress": "0x3a73033c0b1407574c76bdbac67f126f6b4a9aa9",
      "function": "setReceiveLibrary(address,uint32,address,uint256)",
      "arguments": [
        "0xA444F92734be29E71b8A4762595C9733Ab2C9c47",
        "30255",
        "0x7cacBe439EaD55fa1c22790330b12835c6884a91",
        "0"
      ],
      "transaction": {
        "from": "0x1d434906aa520e592fab2b82406beff859be8e82",
        "to": "0x3a73033c0b1407574c76bdbac67f126f6b4a9aa9",
        "gas": "0x17001",
        "value": "0x0",
        "input": "0x6a14d715000000000000000000000000a444f92734be29e71b8a4762595c9733ab2c9c47000000000000000000000000000000000000000000000000000000000000762f0000000000000000000000007cacbe439ead55fa1c22790330b12835c6884a910000000000000000000000000000000000000000000000000000000000000000",
        "nonce": "0x20",
        "chainId": "0x3e7"
      },
      "additionalContracts": [],
      "isFixedGasLimit": false
    },
    {
      "hash": null,
      "transactionType": "CALL",
      "contractName": "EndpointV2",
      "contractAddress": "0x3a73033c0b1407574c76bdbac67f126f6b4a9aa9",
      "function": "setSendLibrary(address,uint32,address)",
      "arguments": [
        "0xa5C2889F0E3DA388DF3BF87f8f0B8E56bB863C41",
        "30255",
        "0xfd76d9CB0Bac839725aB79127E7411fe71b1e3CA"
      ],
      "transaction": {
        "from": "0x1d434906aa520e592fab2b82406beff859be8e82",
        "to": "0x3a73033c0b1407574c76bdbac67f126f6b4a9aa9",
        "gas": "0x1378b",
        "value": "0x0",
        "input": "0x9535ff30000000000000000000000000a5c2889f0e3da388df3bf87f8f0b8e56bb863c41000000000000000000000000000000000000000000000000000000000000762f000000000000000000000000fd76d9cb0bac839725ab79127e7411fe71b1e3ca",
        "nonce": "0x21",
        "chainId": "0x3e7"
      },
      "additionalContracts": [],
      "isFixedGasLimit": false
    },
    {
      "hash": null,
      "transactionType": "CALL",
      "contractName": "EndpointV2",
      "contractAddress": "0x3a73033c0b1407574c76bdbac67f126f6b4a9aa9",
      "function": "setReceiveLibrary(address,uint32,address,uint256)",
      "arguments": [
        "0xa5C2889F0E3DA388DF3BF87f8f0B8E56bB863C41",
        "30255",
        "0x7cacBe439EaD55fa1c22790330b12835c6884a91",
        "0"
      ],
      "transaction": {
        "from": "0x1d434906aa520e592fab2b82406beff859be8e82",
        "to": "0x3a73033c0b1407574c76bdbac67f126f6b4a9aa9",
        "gas": "0x17001",
        "value": "0x0",
        "input": "0x6a14d715000000000000000000000000a5c2889f0e3da388df3bf87f8f0b8e56bb863c41000000000000000000000000000000000000000000000000000000000000762f0000000000000000000000007cacbe439ead55fa1c22790330b12835c6884a910000000000000000000000000000000000000000000000000000000000000000",
        "nonce": "0x22",
        "chainId": "0x3e7"
      },
      "additionalContracts": [],
      "isFixedGasLimit": false
    },
    {
      "hash": null,
      "transactionType": "CALL",
      "contractName": "EndpointV2",
      "contractAddress": "0x3a73033c0b1407574c76bdbac67f126f6b4a9aa9",
      "function": "setSendLibrary(address,uint32,address)",
      "arguments": [
        "0xC6563942D1AE02Dd6e450847de3753011cA3eee1",
        "30255",
        "0xfd76d9CB0Bac839725aB79127E7411fe71b1e3CA"
      ],
      "transaction": {
        "from": "0x1d434906aa520e592fab2b82406beff859be8e82",
        "to": "0x3a73033c0b1407574c76bdbac67f126f6b4a9aa9",
        "gas": "0x1378b",
        "value": "0x0",
        "input": "0x9535ff30000000000000000000000000c6563942d1ae02dd6e450847de3753011ca3eee1000000000000000000000000000000000000000000000000000000000000762f000000000000000000000000fd76d9cb0bac839725ab79127e7411fe71b1e3ca",
        "nonce": "0x23",
        "chainId": "0x3e7"
      },
      "additionalContracts": [],
      "isFixedGasLimit": false
    },
    {
      "hash": null,
      "transactionType": "CALL",
      "contractName": "EndpointV2",
      "contractAddress": "0x3a73033c0b1407574c76bdbac67f126f6b4a9aa9",
      "function": "setReceiveLibrary(address,uint32,address,uint256)",
      "arguments": [
        "0xC6563942D1AE02Dd6e450847de3753011cA3eee1",
        "30255",
        "0x7cacBe439EaD55fa1c22790330b12835c6884a91",
        "0"
      ],
      "transaction": {
        "from": "0x1d434906aa520e592fab2b82406beff859be8e82",
        "to": "0x3a73033c0b1407574c76bdbac67f126f6b4a9aa9",
        "gas": "0x17001",
        "value": "0x0",
        "input": "0x6a14d715000000000000000000000000c6563942d1ae02dd6e450847de3753011ca3eee1000000000000000000000000000000000000000000000000000000000000762f0000000000000000000000007cacbe439ead55fa1c22790330b12835c6884a910000000000000000000000000000000000000000000000000000000000000000",
        "nonce": "0x24",
        "chainId": "0x3e7"
      },
      "additionalContracts": [],
      "isFixedGasLimit": false
    },
    {
      "hash": null,
      "transactionType": "CALL",
      "contractName": null,
      "contractAddress": "0x65c042454005de49106a6b0129f4af56939457da",
      "function": "setDelegate(address)",
      "arguments": [
        "0x8d8290d49e88D16d81C6aDf6C8774eD88762274A"
      ],
      "transaction": {
        "from": "0x1d434906aa520e592fab2b82406beff859be8e82",
        "to": "0x65c042454005de49106a6b0129f4af56939457da",
        "gas": "0xea99",
        "value": "0x0",
        "input": "0xca5eb5e10000000000000000000000008d8290d49e88d16d81c6adf6c8774ed88762274a",
        "nonce": "0x25",
        "chainId": "0x3e7"
      },
      "additionalContracts": [],
      "isFixedGasLimit": false
    },
    {
      "hash": null,
      "transactionType": "CALL",
      "contractName": null,
      "contractAddress": "0x65c042454005de49106a6b0129f4af56939457da",
      "function": "transferOwnership(address)",
      "arguments": [
        "0x8d8290d49e88D16d81C6aDf6C8774eD88762274A"
      ],
      "transaction": {
        "from": "0x1d434906aa520e592fab2b82406beff859be8e82",
        "to": "0x65c042454005de49106a6b0129f4af56939457da",
        "gas": "0xc1df",
        "value": "0x0",
        "input": "0xf2fde38b0000000000000000000000008d8290d49e88d16d81c6adf6c8774ed88762274a",
        "nonce": "0x26",
        "chainId": "0x3e7"
      },
      "additionalContracts": [],
      "isFixedGasLimit": false
    },
    {
      "hash": null,
      "transactionType": "CALL",
      "contractName": "TransparentUpgradeableProxy",
      "contractAddress": "0xe1851f6ac161d1911104b19918fb866ef6fee577",
      "function": null,
      "arguments": null,
      "transaction": {
        "from": "0x1d434906aa520e592fab2b82406beff859be8e82",
        "to": "0xe1851f6ac161d1911104b19918fb866ef6fee577",
        "gas": "0xea99",
        "value": "0x0",
        "input": "0xca5eb5e10000000000000000000000008d8290d49e88d16d81c6adf6c8774ed88762274a",
        "nonce": "0x27",
        "chainId": "0x3e7"
      },
      "additionalContracts": [],
      "isFixedGasLimit": false
    },
    {
      "hash": null,
      "transactionType": "CALL",
      "contractName": "TransparentUpgradeableProxy",
      "contractAddress": "0xe1851f6ac161d1911104b19918fb866ef6fee577",
      "function": null,
      "arguments": null,
      "transaction": {
        "from": "0x1d434906aa520e592fab2b82406beff859be8e82",
        "to": "0xe1851f6ac161d1911104b19918fb866ef6fee577",
        "gas": "0xc1df",
        "value": "0x0",
        "input": "0xf2fde38b0000000000000000000000008d8290d49e88d16d81c6adf6c8774ed88762274a",
        "nonce": "0x28",
        "chainId": "0x3e7"
      },
      "additionalContracts": [],
      "isFixedGasLimit": false
    },
    {
      "hash": null,
      "transactionType": "CALL",
      "contractName": null,
      "contractAddress": "0xb7583b07c12286bb9026a7053b0c44e8f5fa8624",
      "function": "setDelegate(address)",
      "arguments": [
        "0x8d8290d49e88D16d81C6aDf6C8774eD88762274A"
      ],
      "transaction": {
        "from": "0x1d434906aa520e592fab2b82406beff859be8e82",
        "to": "0xb7583b07c12286bb9026a7053b0c44e8f5fa8624",
        "gas": "0xea99",
        "value": "0x0",
        "input": "0xca5eb5e10000000000000000000000008d8290d49e88d16d81c6adf6c8774ed88762274a",
        "nonce": "0x29",
        "chainId": "0x3e7"
      },
      "additionalContracts": [],
      "isFixedGasLimit": false
    },
    {
      "hash": null,
      "transactionType": "CALL",
      "contractName": null,
      "contractAddress": "0xb7583b07c12286bb9026a7053b0c44e8f5fa8624",
      "function": "transferOwnership(address)",
      "arguments": [
        "0x8d8290d49e88D16d81C6aDf6C8774eD88762274A"
      ],
      "transaction": {
        "from": "0x1d434906aa520e592fab2b82406beff859be8e82",
        "to": "0xb7583b07c12286bb9026a7053b0c44e8f5fa8624",
        "gas": "0xc1df",
        "value": "0x0",
        "input": "0xf2fde38b0000000000000000000000008d8290d49e88d16d81c6adf6c8774ed88762274a",
        "nonce": "0x2a",
        "chainId": "0x3e7"
      },
      "additionalContracts": [],
      "isFixedGasLimit": false
    },
    {
      "hash": null,
      "transactionType": "CALL",
      "contractName": "TransparentUpgradeableProxy",
      "contractAddress": "0xa444f92734be29e71b8a4762595c9733ab2c9c47",
      "function": null,
      "arguments": null,
      "transaction": {
        "from": "0x1d434906aa520e592fab2b82406beff859be8e82",
        "to": "0xa444f92734be29e71b8a4762595c9733ab2c9c47",
        "gas": "0xea99",
        "value": "0x0",
        "input": "0xca5eb5e10000000000000000000000008d8290d49e88d16d81c6adf6c8774ed88762274a",
        "nonce": "0x2b",
        "chainId": "0x3e7"
      },
      "additionalContracts": [],
      "isFixedGasLimit": false
    },
    {
      "hash": null,
      "transactionType": "CALL",
      "contractName": "TransparentUpgradeableProxy",
      "contractAddress": "0xa444f92734be29e71b8a4762595c9733ab2c9c47",
      "function": null,
      "arguments": null,
      "transaction": {
        "from": "0x1d434906aa520e592fab2b82406beff859be8e82",
        "to": "0xa444f92734be29e71b8a4762595c9733ab2c9c47",
        "gas": "0xc1df",
        "value": "0x0",
        "input": "0xf2fde38b0000000000000000000000008d8290d49e88d16d81c6adf6c8774ed88762274a",
        "nonce": "0x2c",
        "chainId": "0x3e7"
      },
      "additionalContracts": [],
      "isFixedGasLimit": false
    },
    {
      "hash": null,
      "transactionType": "CALL",
      "contractName": "TransparentUpgradeableProxy",
      "contractAddress": "0xa5c2889f0e3da388df3bf87f8f0b8e56bb863c41",
      "function": null,
      "arguments": null,
      "transaction": {
        "from": "0x1d434906aa520e592fab2b82406beff859be8e82",
        "to": "0xa5c2889f0e3da388df3bf87f8f0b8e56bb863c41",
        "gas": "0xea99",
        "value": "0x0",
        "input": "0xca5eb5e10000000000000000000000008d8290d49e88d16d81c6adf6c8774ed88762274a",
        "nonce": "0x2d",
        "chainId": "0x3e7"
      },
      "additionalContracts": [],
      "isFixedGasLimit": false
    },
    {
      "hash": null,
      "transactionType": "CALL",
      "contractName": "TransparentUpgradeableProxy",
      "contractAddress": "0xa5c2889f0e3da388df3bf87f8f0b8e56bb863c41",
      "function": null,
      "arguments": null,
      "transaction": {
        "from": "0x1d434906aa520e592fab2b82406beff859be8e82",
        "to": "0xa5c2889f0e3da388df3bf87f8f0b8e56bb863c41",
        "gas": "0xc1df",
        "value": "0x0",
        "input": "0xf2fde38b0000000000000000000000008d8290d49e88d16d81c6adf6c8774ed88762274a",
        "nonce": "0x2e",
        "chainId": "0x3e7"
      },
      "additionalContracts": [],
      "isFixedGasLimit": false
    },
    {
      "hash": null,
      "transactionType": "CALL",
      "contractName": "TransparentUpgradeableProxy",
      "contractAddress": "0xc6563942d1ae02dd6e450847de3753011ca3eee1",
      "function": null,
      "arguments": null,
      "transaction": {
        "from": "0x1d434906aa520e592fab2b82406beff859be8e82",
        "to": "0xc6563942d1ae02dd6e450847de3753011ca3eee1",
        "gas": "0xea99",
        "value": "0x0",
        "input": "0xca5eb5e10000000000000000000000008d8290d49e88d16d81c6adf6c8774ed88762274a",
        "nonce": "0x2f",
        "chainId": "0x3e7"
      },
      "additionalContracts": [],
      "isFixedGasLimit": false
    },
    {
      "hash": null,
      "transactionType": "CALL",
      "contractName": "TransparentUpgradeableProxy",
      "contractAddress": "0xc6563942d1ae02dd6e450847de3753011ca3eee1",
      "function": null,
      "arguments": null,
      "transaction": {
        "from": "0x1d434906aa520e592fab2b82406beff859be8e82",
        "to": "0xc6563942d1ae02dd6e450847de3753011ca3eee1",
        "gas": "0xc1df",
        "value": "0x0",
        "input": "0xf2fde38b0000000000000000000000008d8290d49e88d16d81c6adf6c8774ed88762274a",
        "nonce": "0x30",
        "chainId": "0x3e7"
      },
      "additionalContracts": [],
      "isFixedGasLimit": false
    },
    {
      "hash": null,
      "transactionType": "CALL",
      "contractName": "FraxProxyAdmin",
      "contractAddress": "0xb4d6a05f58e1671c4ecd5d6544c83954b44fb8d5",
      "function": "transferOwnership(address)",
      "arguments": [
        "0x8d8290d49e88D16d81C6aDf6C8774eD88762274A"
      ],
      "transaction": {
        "from": "0x1d434906aa520e592fab2b82406beff859be8e82",
        "to": "0xb4d6a05f58e1671c4ecd5d6544c83954b44fb8d5",
        "gas": "0x9a4d",
        "value": "0x0",
        "input": "0xf2fde38b0000000000000000000000008d8290d49e88d16d81c6adf6c8774ed88762274a",
        "nonce": "0x31",
        "chainId": "0x3e7"
      },
      "additionalContracts": [],
      "isFixedGasLimit": false
    }
  ],
  "receipts": [],
  "libraries": [],
  "pending": [],
  "returns": {},
  "timestamp": 1757493617917,
  "chain": 999,
  "commit": "7890eb7"
}