{
  "transactions": [
    {
      "hash": null,
      "transactionType": "CALL",
      "contractName": null,
      "contractAddress": "0x23432452b720c80553458496d4d9d7c5003280d0",
      "function": "send((uint32,bytes32,uint256,uint256,bytes,bytes,bytes),(uint256,uint256),address)",
      "arguments": [
        "(30243, 0x000000000000000000000000b0e1650a9760e0f383174af042091fc544b8356f, 1000000000000000, 1000000000000000, 0x0003, 0x, 0x)",
        "(269308547786438, 0)",
        "0xb0E1650A9760e0f383174af042091fc544b8356f"
      ],
      "transaction": {
        "from": "0xb0e1650a9760e0f383174af042091fc544b8356f",
        "to": "0x23432452b720c80553458496d4d9d7c5003280d0",
        "gas": "0x7c2de",
        "value": "0xf4ef485366c6",
        "input": "0xc7c7f5b300000000000000000000000000000000000000000000000000000000000000800000000000000000000000000000000000000000000000000000f4ef485366c60000000000000000000000000000000000000000000000000000000000000000000000000000000000000000b0e1650a9760e0f383174af042091fc544b8356f0000000000000000000000000000000000000000000000000000000000007623000000000000000000000000b0e1650a9760e0f383174af042091fc544b8356f00000000000000000000000000000000000000000000000000038d7ea4c6800000000000000000000000000000000000000000000000000000038d7ea4c6800000000000000000000000000000000000000000000000000000000000000000e0000000000000000000000000000000000000000000000000000000000000012000000000000000000000000000000000000000000000000000000000000001400000000000000000000000000000000000000000000000000000000000000002000300000000000000000000000000000000000000000000000000000000000000000000000000000000000000000000000000000000000000000000000000000000000000000000000000000000000000000000000000000000000000000000",
        "nonce": "0x4a",
        "chainId": "0x1"
      },
      "additionalContracts": [],
      "isFixedGasLimit": false
    },
    {
      "hash": null,
      "transactionType": "CALL",
      "contractName": null,
      "contractAddress": "0xe4796ccb6bb5de2290c417ac337f2b66ca2e770e",
      "function": "send((uint32,bytes32,uint256,uint256,bytes,bytes,bytes),(uint256,uint256),address)",
      "arguments": [
        "(30243, 0x000000000000000000000000b0e1650a9760e0f383174af042091fc544b8356f, 1000000000000000, 1000000000000000, 0x0003, 0x, 0x)",
        "(269308547786438, 0)",
        "0xb0E1650A9760e0f383174af042091fc544b8356f"
      ],
      "transaction": {
        "from": "0xb0e1650a9760e0f383174af042091fc544b8356f",
        "to": "0xe4796ccb6bb5de2290c417ac337f2b66ca2e770e",
        "gas": "0x6328d",
        "value": "0xf4ef485366c6",
        "input": "0xc7c7f5b300000000000000000000000000000000000000000000000000000000000000800000000000000000000000000000000000000000000000000000f4ef485366c60000000000000000000000000000000000000000000000000000000000000000000000000000000000000000b0e1650a9760e0f383174af042091fc544b8356f0000000000000000000000000000000000000000000000000000000000007623000000000000000000000000b0e1650a9760e0f383174af042091fc544b8356f00000000000000000000000000000000000000000000000000038d7ea4c6800000000000000000000000000000000000000000000000000000038d7ea4c6800000000000000000000000000000000000000000000000000000000000000000e0000000000000000000000000000000000000000000000000000000000000012000000000000000000000000000000000000000000000000000000000000001400000000000000000000000000000000000000000000000000000000000000002000300000000000000000000000000000000000000000000000000000000000000000000000000000000000000000000000000000000000000000000000000000000000000000000000000000000000000000000000000000000000000000000",
        "nonce": "0x4b",
        "chainId": "0x1"
      },
      "additionalContracts": [],
      "isFixedGasLimit": false
    },
    {
      "hash": null,
      "transactionType": "CALL",
      "contractName": null,
      "contractAddress": "0x1f55a02a049033e3419a8e2975cf3f572f4e6e9a",
      "function": "send((uint32,bytes32,uint256,uint256,bytes,bytes,bytes),(uint256,uint256),address)",
      "arguments": [
        "(30243, 0x000000000000000000000000b0e1650a9760e0f383174af042091fc544b8356f, 1000000000000000, 1000000000000000, 0x0003, 0x, 0x)",
        "(269308547786438, 0)",
        "0xb0E1650A9760e0f383174af042091fc544b8356f"
      ],
      "transaction": {
        "from": "0xb0e1650a9760e0f383174af042091fc544b8356f",
        "to": "0x1f55a02a049033e3419a8e2975cf3f572f4e6e9a",
        "gas": "0x5dc53",
        "value": "0xf4ef485366c6",
        "input": "0xc7c7f5b300000000000000000000000000000000000000000000000000000000000000800000000000000000000000000000000000000000000000000000f4ef485366c60000000000000000000000000000000000000000000000000000000000000000000000000000000000000000b0e1650a9760e0f383174af042091fc544b8356f0000000000000000000000000000000000000000000000000000000000007623000000000000000000000000b0e1650a9760e0f383174af042091fc544b8356f00000000000000000000000000000000000000000000000000038d7ea4c6800000000000000000000000000000000000000000000000000000038d7ea4c6800000000000000000000000000000000000000000000000000000000000000000e0000000000000000000000000000000000000000000000000000000000000012000000000000000000000000000000000000000000000000000000000000001400000000000000000000000000000000000000000000000000000000000000002000300000000000000000000000000000000000000000000000000000000000000000000000000000000000000000000000000000000000000000000000000000000000000000000000000000000000000000000000000000000000000000000",
        "nonce": "0x4c",
        "chainId": "0x1"
      },
      "additionalContracts": [],
      "isFixedGasLimit": false
    },
    {
      "hash": null,
      "transactionType": "CALL",
      "contractName": null,
      "contractAddress": "0x909dbde1ebe906af95660033e478d59efe831fed",
      "function": "send((uint32,bytes32,uint256,uint256,bytes,bytes,bytes),(uint256,uint256),address)",
      "arguments": [
        "(30243, 0x000000000000000000000000b0e1650a9760e0f383174af042091fc544b8356f, 1000000000000000, 1000000000000000, 0x0003, 0x, 0x)",
        "(269308547786438, 0)",
        "0xb0E1650A9760e0f383174af042091fc544b8356f"
      ],
      "transaction": {
        "from": "0xb0e1650a9760e0f383174af042091fc544b8356f",
        "to": "0x909dbde1ebe906af95660033e478d59efe831fed",
        "gas": "0x5e938",
        "value": "0xf4ef485366c6",
        "input": "0xc7c7f5b300000000000000000000000000000000000000000000000000000000000000800000000000000000000000000000000000000000000000000000f4ef485366c60000000000000000000000000000000000000000000000000000000000000000000000000000000000000000b0e1650a9760e0f383174af042091fc544b8356f0000000000000000000000000000000000000000000000000000000000007623000000000000000000000000b0e1650a9760e0f383174af042091fc544b8356f00000000000000000000000000000000000000000000000000038d7ea4c6800000000000000000000000000000000000000000000000000000038d7ea4c6800000000000000000000000000000000000000000000000000000000000000000e0000000000000000000000000000000000000000000000000000000000000012000000000000000000000000000000000000000000000000000000000000001400000000000000000000000000000000000000000000000000000000000000002000300000000000000000000000000000000000000000000000000000000000000000000000000000000000000000000000000000000000000000000000000000000000000000000000000000000000000000000000000000000000000000000",
        "nonce": "0x4d",
        "chainId": "0x1"
      },
      "additionalContracts": [],
      "isFixedGasLimit": false
    },
    {
      "hash": null,
      "transactionType": "CALL",
      "contractName": null,
      "contractAddress": "0x5e8422345238f34275888049021821e8e08caa1f",
      "function": "approve(address,uint256)",
      "arguments": [
        "0xF010a7c8877043681D59AD125EbF575633505942",
        "1000000000000000"
      ],
      "transaction": {
        "from": "0xb0e1650a9760e0f383174af042091fc544b8356f",
        "to": "0x5e8422345238f34275888049021821e8e08caa1f",
        "gas": "0x1088b",
        "value": "0x0",
        "input": "0x095ea7b3000000000000000000000000f010a7c8877043681d59ad125ebf57563350594200000000000000000000000000000000000000000000000000038d7ea4c68000",
        "nonce": "0x4e",
        "chainId": "0x1"
      },
      "additionalContracts": [],
      "isFixedGasLimit": false
    },
    {
      "hash": null,
      "transactionType": "CALL",
      "contractName": null,
      "contractAddress": "0xf010a7c8877043681d59ad125ebf575633505942",
      "function": "send((uint32,bytes32,uint256,uint256,bytes,bytes,bytes),(uint256,uint256),address)",
      "arguments": [
        "(30243, 0x000000000000000000000000b0e1650a9760e0f383174af042091fc544b8356f, 1000000000000000, 1000000000000000, 0x0003, 0x, 0x)",
        "(266479439368732, 0)",
        "0xb0E1650A9760e0f383174af042091fc544b8356f"
      ],
      "transaction": {
        "from": "0xb0e1650a9760e0f383174af042091fc544b8356f",
        "to": "0xf010a7c8877043681d59ad125ebf575633505942",
        "gas": "0x6e7f0",
        "value": "0xf25c9452d21c",
        "input": "0xc7c7f5b300000000000000000000000000000000000000000000000000000000000000800000000000000000000000000000000000000000000000000000f25c9452d21c0000000000000000000000000000000000000000000000000000000000000000000000000000000000000000b0e1650a9760e0f383174af042091fc544b8356f0000000000000000000000000000000000000000000000000000000000007623000000000000000000000000b0e1650a9760e0f383174af042091fc544b8356f00000000000000000000000000000000000000000000000000038d7ea4c6800000000000000000000000000000000000000000000000000000038d7ea4c6800000000000000000000000000000000000000000000000000000000000000000e0000000000000000000000000000000000000000000000000000000000000012000000000000000000000000000000000000000000000000000000000000001400000000000000000000000000000000000000000000000000000000000000002000300000000000000000000000000000000000000000000000000000000000000000000000000000000000000000000000000000000000000000000000000000000000000000000000000000000000000000000000000000000000000000000",
        "nonce": "0x4f",
        "chainId": "0x1"
      },
      "additionalContracts": [],
      "isFixedGasLimit": false
    },
    {
      "hash": null,
      "transactionType": "CALL",
      "contractName": null,
      "contractAddress": "0x853d955acef822db058eb8505911ed77f175b99e",
      "function": "approve(address,uint256)",
      "arguments": [
        "0xE41228a455700cAF09E551805A8aB37caa39D08c",
        "1000000000000000"
      ],
      "transaction": {
        "from": "0xb0e1650a9760e0f383174af042091fc544b8356f",
        "to": "0x853d955acef822db058eb8505911ed77f175b99e",
        "gas": "0xfa28",
        "value": "0x0",
        "input": "0x095ea7b3000000000000000000000000e41228a455700caf09e551805a8ab37caa39d08c00000000000000000000000000000000000000000000000000038d7ea4c68000",
        "nonce": "0x50",
        "chainId": "0x1"
      },
      "additionalContracts": [],
      "isFixedGasLimit": false
    },
    {
      "hash": null,
      "transactionType": "CALL",
      "contractName": null,
      "contractAddress": "0xe41228a455700caf09e551805a8ab37caa39d08c",
      "function": "send((uint32,bytes32,uint256,uint256,bytes,bytes,bytes),(uint256,uint256),address)",
      "arguments": [
        "(30243, 0x000000000000000000000000b0e1650a9760e0f383174af042091fc544b8356f, 1000000000000000, 1000000000000000, 0x0003, 0x, 0x)",
        "(266479439368732, 0)",
        "0xb0E1650A9760e0f383174af042091fc544b8356f"
      ],
      "transaction": {
        "from": "0xb0e1650a9760e0f383174af042091fc544b8356f",
        "to": "0xe41228a455700caf09e551805a8ab37caa39d08c",
        "gas": "0x6879b",
        "value": "0xf25c9452d21c",
        "input": "0xc7c7f5b300000000000000000000000000000000000000000000000000000000000000800000000000000000000000000000000000000000000000000000f25c9452d21c0000000000000000000000000000000000000000000000000000000000000000000000000000000000000000b0e1650a9760e0f383174af042091fc544b8356f0000000000000000000000000000000000000000000000000000000000007623000000000000000000000000b0e1650a9760e0f383174af042091fc544b8356f00000000000000000000000000000000000000000000000000038d7ea4c6800000000000000000000000000000000000000000000000000000038d7ea4c6800000000000000000000000000000000000000000000000000000000000000000e0000000000000000000000000000000000000000000000000000000000000012000000000000000000000000000000000000000000000000000000000000001400000000000000000000000000000000000000000000000000000000000000002000300000000000000000000000000000000000000000000000000000000000000000000000000000000000000000000000000000000000000000000000000000000000000000000000000000000000000000000000000000000000000000000",
        "nonce": "0x51",
        "chainId": "0x1"
      },
      "additionalContracts": [],
      "isFixedGasLimit": false
    },
    {
      "hash": null,
      "transactionType": "CALL",
      "contractName": null,
      "contractAddress": "0x23432452b720c80553458496d4d9d7c5003280d0",
      "function": "send((uint32,bytes32,uint256,uint256,bytes,bytes,bytes),(uint256,uint256),address)",
      "arguments": [
        "(30151, 0x000000000000000000000000b0e1650a9760e0f383174af042091fc544b8356f, 1000000000000000, 1000000000000000, 0x0003, 0x, 0x)",
        "(87197710332136, 0)",
        "0xb0E1650A9760e0f383174af042091fc544b8356f"
      ],
      "transaction": {
        "from": "0xb0e1650a9760e0f383174af042091fc544b8356f",
        "to": "0x23432452b720c80553458496d4d9d7c5003280d0",
        "gas": "0x69d88",
        "value": "0x4f4e4c8cb0e8",
        "input": "0xc7c7f5b3000000000000000000000000000000000000000000000000000000000000008000000000000000000000000000000000000000000000000000004f4e4c8cb0e80000000000000000000000000000000000000000000000000000000000000000000000000000000000000000b0e1650a9760e0f383174af042091fc544b8356f00000000000000000000000000000000000000000000000000000000000075c7000000000000000000000000b0e1650a9760e0f383174af042091fc544b8356f00000000000000000000000000000000000000000000000000038d7ea4c6800000000000000000000000000000000000000000000000000000038d7ea4c6800000000000000000000000000000000000000000000000000000000000000000e0000000000000000000000000000000000000000000000000000000000000012000000000000000000000000000000000000000000000000000000000000001400000000000000000000000000000000000000000000000000000000000000002000300000000000000000000000000000000000000000000000000000000000000000000000000000000000000000000000000000000000000000000000000000000000000000000000000000000000000000000000000000000000000000000",
        "nonce": "0x52",
        "chainId": "0x1"
      },
      "additionalContracts": [],
      "isFixedGasLimit": false
    },
    {
      "hash": null,
      "transactionType": "CALL",
      "contractName": null,
      "contractAddress": "0xe4796ccb6bb5de2290c417ac337f2b66ca2e770e",
      "function": "send((uint32,bytes32,uint256,uint256,bytes,bytes,bytes),(uint256,uint256),address)",
      "arguments": [
        "(30151, 0x000000000000000000000000b0e1650a9760e0f383174af042091fc544b8356f, 1000000000000000, 1000000000000000, 0x0003, 0x, 0x)",
        "(87197710332136, 0)",
        "0xb0E1650A9760e0f383174af042091fc544b8356f"
      ],
      "transaction": {
        "from": "0xb0e1650a9760e0f383174af042091fc544b8356f",
        "to": "0xe4796ccb6bb5de2290c417ac337f2b66ca2e770e",
        "gas": "0x60c64",
        "value": "0x4f4e4c8cb0e8",
        "input": "0xc7c7f5b3000000000000000000000000000000000000000000000000000000000000008000000000000000000000000000000000000000000000000000004f4e4c8cb0e80000000000000000000000000000000000000000000000000000000000000000000000000000000000000000b0e1650a9760e0f383174af042091fc544b8356f00000000000000000000000000000000000000000000000000000000000075c7000000000000000000000000b0e1650a9760e0f383174af042091fc544b8356f00000000000000000000000000000000000000000000000000038d7ea4c6800000000000000000000000000000000000000000000000000000038d7ea4c6800000000000000000000000000000000000000000000000000000000000000000e0000000000000000000000000000000000000000000000000000000000000012000000000000000000000000000000000000000000000000000000000000001400000000000000000000000000000000000000000000000000000000000000002000300000000000000000000000000000000000000000000000000000000000000000000000000000000000000000000000000000000000000000000000000000000000000000000000000000000000000000000000000000000000000000000",
        "nonce": "0x53",
        "chainId": "0x1"
      },
      "additionalContracts": [],
      "isFixedGasLimit": false
    },
    {
      "hash": null,
      "transactionType": "CALL",
      "contractName": null,
      "contractAddress": "0x1f55a02a049033e3419a8e2975cf3f572f4e6e9a",
      "function": "send((uint32,bytes32,uint256,uint256,bytes,bytes,bytes),(uint256,uint256),address)",
      "arguments": [
        "(30151, 0x000000000000000000000000b0e1650a9760e0f383174af042091fc544b8356f, 1000000000000000, 1000000000000000, 0x0003, 0x, 0x)",
        "(87197710332136, 0)",
        "0xb0E1650A9760e0f383174af042091fc544b8356f"
      ],
      "transaction": {
        "from": "0xb0e1650a9760e0f383174af042091fc544b8356f",
        "to": "0x1f55a02a049033e3419a8e2975cf3f572f4e6e9a",
        "gas": "0x5b848",
        "value": "0x4f4e4c8cb0e8",
        "input": "0xc7c7f5b3000000000000000000000000000000000000000000000000000000000000008000000000000000000000000000000000000000000000000000004f4e4c8cb0e80000000000000000000000000000000000000000000000000000000000000000000000000000000000000000b0e1650a9760e0f383174af042091fc544b8356f00000000000000000000000000000000000000000000000000000000000075c7000000000000000000000000b0e1650a9760e0f383174af042091fc544b8356f00000000000000000000000000000000000000000000000000038d7ea4c6800000000000000000000000000000000000000000000000000000038d7ea4c6800000000000000000000000000000000000000000000000000000000000000000e0000000000000000000000000000000000000000000000000000000000000012000000000000000000000000000000000000000000000000000000000000001400000000000000000000000000000000000000000000000000000000000000002000300000000000000000000000000000000000000000000000000000000000000000000000000000000000000000000000000000000000000000000000000000000000000000000000000000000000000000000000000000000000000000000",
        "nonce": "0x54",
        "chainId": "0x1"
      },
      "additionalContracts": [],
      "isFixedGasLimit": false
    },
    {
      "hash": null,
      "transactionType": "CALL",
      "contractName": null,
      "contractAddress": "0x909dbde1ebe906af95660033e478d59efe831fed",
      "function": "send((uint32,bytes32,uint256,uint256,bytes,bytes,bytes),(uint256,uint256),address)",
      "arguments": [
        "(30151, 0x000000000000000000000000b0e1650a9760e0f383174af042091fc544b8356f, 1000000000000000, 1000000000000000, 0x0003, 0x, 0x)",
        "(87197710332136, 0)",
        "0xb0E1650A9760e0f383174af042091fc544b8356f"
      ],
      "transaction": {
        "from": "0xb0e1650a9760e0f383174af042091fc544b8356f",
        "to": "0x909dbde1ebe906af95660033e478d59efe831fed",
        "gas": "0x5c52e",
        "value": "0x4f4e4c8cb0e8",
        "input": "0xc7c7f5b3000000000000000000000000000000000000000000000000000000000000008000000000000000000000000000000000000000000000000000004f4e4c8cb0e80000000000000000000000000000000000000000000000000000000000000000000000000000000000000000b0e1650a9760e0f383174af042091fc544b8356f00000000000000000000000000000000000000000000000000000000000075c7000000000000000000000000b0e1650a9760e0f383174af042091fc544b8356f00000000000000000000000000000000000000000000000000038d7ea4c6800000000000000000000000000000000000000000000000000000038d7ea4c6800000000000000000000000000000000000000000000000000000000000000000e0000000000000000000000000000000000000000000000000000000000000012000000000000000000000000000000000000000000000000000000000000001400000000000000000000000000000000000000000000000000000000000000002000300000000000000000000000000000000000000000000000000000000000000000000000000000000000000000000000000000000000000000000000000000000000000000000000000000000000000000000000000000000000000000000",
        "nonce": "0x55",
        "chainId": "0x1"
      },
      "additionalContracts": [],
      "isFixedGasLimit": false
    },
    {
      "hash": null,
      "transactionType": "CALL",
      "contractName": null,
      "contractAddress": "0x5e8422345238f34275888049021821e8e08caa1f",
      "function": "approve(address,uint256)",
      "arguments": [
        "0xF010a7c8877043681D59AD125EbF575633505942",
        "1000000000000000"
      ],
      "transaction": {
        "from": "0xb0e1650a9760e0f383174af042091fc544b8356f",
        "to": "0x5e8422345238f34275888049021821e8e08caa1f",
        "gas": "0x1088b",
        "value": "0x0",
        "input": "0x095ea7b3000000000000000000000000f010a7c8877043681d59ad125ebf57563350594200000000000000000000000000000000000000000000000000038d7ea4c68000",
        "nonce": "0x56",
        "chainId": "0x1"
      },
      "additionalContracts": [],
      "isFixedGasLimit": false
    },
    {
      "hash": null,
      "transactionType": "CALL",
      "contractName": null,
      "contractAddress": "0xf010a7c8877043681d59ad125ebf575633505942",
      "function": "send((uint32,bytes32,uint256,uint256,bytes,bytes,bytes),(uint256,uint256),address)",
      "arguments": [
        "(30151, 0x000000000000000000000000b0e1650a9760e0f383174af042091fc544b8356f, 1000000000000000, 1000000000000000, 0x0003, 0x, 0x)",
        "(63988379408721, 0)",
        "0xb0E1650A9760e0f383174af042091fc544b8356f"
      ],
      "transaction": {
        "from": "0xb0e1650a9760e0f383174af042091fc544b8356f",
        "to": "0xf010a7c8877043681d59ad125ebf575633505942",
        "gas": "0x6056a",
        "value": "0x3a32749fd951",
        "input": "0xc7c7f5b3000000000000000000000000000000000000000000000000000000000000008000000000000000000000000000000000000000000000000000003a32749fd9510000000000000000000000000000000000000000000000000000000000000000000000000000000000000000b0e1650a9760e0f383174af042091fc544b8356f00000000000000000000000000000000000000000000000000000000000075c7000000000000000000000000b0e1650a9760e0f383174af042091fc544b8356f00000000000000000000000000000000000000000000000000038d7ea4c6800000000000000000000000000000000000000000000000000000038d7ea4c6800000000000000000000000000000000000000000000000000000000000000000e0000000000000000000000000000000000000000000000000000000000000012000000000000000000000000000000000000000000000000000000000000001400000000000000000000000000000000000000000000000000000000000000002000300000000000000000000000000000000000000000000000000000000000000000000000000000000000000000000000000000000000000000000000000000000000000000000000000000000000000000000000000000000000000000000",
        "nonce": "0x57",
        "chainId": "0x1"
      },
      "additionalContracts": [],
      "isFixedGasLimit": false
    },
    {
      "hash": null,
      "transactionType": "CALL",
      "contractName": null,
      "contractAddress": "0x853d955acef822db058eb8505911ed77f175b99e",
      "function": "approve(address,uint256)",
      "arguments": [
        "0xE41228a455700cAF09E551805A8aB37caa39D08c",
        "1000000000000000"
      ],
      "transaction": {
        "from": "0xb0e1650a9760e0f383174af042091fc544b8356f",
        "to": "0x853d955acef822db058eb8505911ed77f175b99e",
        "gas": "0xfa28",
        "value": "0x0",
        "input": "0x095ea7b3000000000000000000000000e41228a455700caf09e551805a8ab37caa39d08c00000000000000000000000000000000000000000000000000038d7ea4c68000",
        "nonce": "0x58",
        "chainId": "0x1"
      },
      "additionalContracts": [],
      "isFixedGasLimit": false
    },
    {
      "hash": null,
      "transactionType": "CALL",
      "contractName": null,
      "contractAddress": "0xe41228a455700caf09e551805a8ab37caa39d08c",
      "function": "send((uint32,bytes32,uint256,uint256,bytes,bytes,bytes),(uint256,uint256),address)",
      "arguments": [
        "(30151, 0x000000000000000000000000b0e1650a9760e0f383174af042091fc544b8356f, 1000000000000000, 1000000000000000, 0x0003, 0x, 0x)",
        "(63988379408721, 0)",
        "0xb0E1650A9760e0f383174af042091fc544b8356f"
      ],
      "transaction": {
        "from": "0xb0e1650a9760e0f383174af042091fc544b8356f",
        "to": "0xe41228a455700caf09e551805a8ab37caa39d08c",
        "gas": "0x66215",
        "value": "0x3a32749fd951",
        "input": "0xc7c7f5b3000000000000000000000000000000000000000000000000000000000000008000000000000000000000000000000000000000000000000000003a32749fd9510000000000000000000000000000000000000000000000000000000000000000000000000000000000000000b0e1650a9760e0f383174af042091fc544b8356f00000000000000000000000000000000000000000000000000000000000075c7000000000000000000000000b0e1650a9760e0f383174af042091fc544b8356f00000000000000000000000000000000000000000000000000038d7ea4c6800000000000000000000000000000000000000000000000000000038d7ea4c6800000000000000000000000000000000000000000000000000000000000000000e0000000000000000000000000000000000000000000000000000000000000012000000000000000000000000000000000000000000000000000000000000001400000000000000000000000000000000000000000000000000000000000000002000300000000000000000000000000000000000000000000000000000000000000000000000000000000000000000000000000000000000000000000000000000000000000000000000000000000000000000000000000000000000000000000",
        "nonce": "0x59",
        "chainId": "0x1"
      },
      "additionalContracts": [],
      "isFixedGasLimit": false
    },
    {
      "hash": null,
      "transactionType": "CALL",
      "contractName": null,
      "contractAddress": "0x23432452b720c80553458496d4d9d7c5003280d0",
      "function": "send((uint32,bytes32,uint256,uint256,bytes,bytes,bytes),(uint256,uint256),address)",
      "arguments": [
        "(30184, 0x000000000000000000000000b0e1650a9760e0f383174af042091fc544b8356f, 1000000000000000, 1000000000000000, 0x0003, 0x, 0x)",
        "(21786710001614, 0)",
        "0xb0E1650A9760e0f383174af042091fc544b8356f"
      ],
      "transaction": {
        "from": "0xb0e1650a9760e0f383174af042091fc544b8356f",
        "to": "0x23432452b720c80553458496d4d9d7c5003280d0",
        "gas": "0x69d88",
        "value": "0x13d09d1c47ce",
        "input": "0xc7c7f5b30000000000000000000000000000000000000000000000000000000000000080000000000000000000000000000000000000000000000000000013d09d1c47ce0000000000000000000000000000000000000000000000000000000000000000000000000000000000000000b0e1650a9760e0f383174af042091fc544b8356f00000000000000000000000000000000000000000000000000000000000075e8000000000000000000000000b0e1650a9760e0f383174af042091fc544b8356f00000000000000000000000000000000000000000000000000038d7ea4c6800000000000000000000000000000000000000000000000000000038d7ea4c6800000000000000000000000000000000000000000000000000000000000000000e0000000000000000000000000000000000000000000000000000000000000012000000000000000000000000000000000000000000000000000000000000001400000000000000000000000000000000000000000000000000000000000000002000300000000000000000000000000000000000000000000000000000000000000000000000000000000000000000000000000000000000000000000000000000000000000000000000000000000000000000000000000000000000000000000",
        "nonce": "0x5a",
        "chainId": "0x1"
      },
      "additionalContracts": [],
      "isFixedGasLimit": false
    },
    {
      "hash": null,
      "transactionType": "CALL",
      "contractName": null,
      "contractAddress": "0xe4796ccb6bb5de2290c417ac337f2b66ca2e770e",
      "function": "send((uint32,bytes32,uint256,uint256,bytes,bytes,bytes),(uint256,uint256),address)",
      "arguments": [
        "(30184, 0x000000000000000000000000b0e1650a9760e0f383174af042091fc544b8356f, 1000000000000000, 1000000000000000, 0x0003, 0x, 0x)",
        "(21786710001614, 0)",
        "0xb0E1650A9760e0f383174af042091fc544b8356f"
      ],
      "transaction": {
        "from": "0xb0e1650a9760e0f383174af042091fc544b8356f",
        "to": "0xe4796ccb6bb5de2290c417ac337f2b66ca2e770e",
        "gas": "0x60c64",
        "value": "0x13d09d1c47ce",
        "input": "0xc7c7f5b30000000000000000000000000000000000000000000000000000000000000080000000000000000000000000000000000000000000000000000013d09d1c47ce0000000000000000000000000000000000000000000000000000000000000000000000000000000000000000b0e1650a9760e0f383174af042091fc544b8356f00000000000000000000000000000000000000000000000000000000000075e8000000000000000000000000b0e1650a9760e0f383174af042091fc544b8356f00000000000000000000000000000000000000000000000000038d7ea4c6800000000000000000000000000000000000000000000000000000038d7ea4c6800000000000000000000000000000000000000000000000000000000000000000e0000000000000000000000000000000000000000000000000000000000000012000000000000000000000000000000000000000000000000000000000000001400000000000000000000000000000000000000000000000000000000000000002000300000000000000000000000000000000000000000000000000000000000000000000000000000000000000000000000000000000000000000000000000000000000000000000000000000000000000000000000000000000000000000000",
        "nonce": "0x5b",
        "chainId": "0x1"
      },
      "additionalContracts": [],
      "isFixedGasLimit": false
    },
    {
      "hash": null,
      "transactionType": "CALL",
      "contractName": null,
      "contractAddress": "0x1f55a02a049033e3419a8e2975cf3f572f4e6e9a",
      "function": "send((uint32,bytes32,uint256,uint256,bytes,bytes,bytes),(uint256,uint256),address)",
      "arguments": [
        "(30184, 0x000000000000000000000000b0e1650a9760e0f383174af042091fc544b8356f, 1000000000000000, 1000000000000000, 0x0003, 0x, 0x)",
        "(21786710001614, 0)",
        "0xb0E1650A9760e0f383174af042091fc544b8356f"
      ],
      "transaction": {
        "from": "0xb0e1650a9760e0f383174af042091fc544b8356f",
        "to": "0x1f55a02a049033e3419a8e2975cf3f572f4e6e9a",
        "gas": "0x5b848",
        "value": "0x13d09d1c47ce",
        "input": "0xc7c7f5b30000000000000000000000000000000000000000000000000000000000000080000000000000000000000000000000000000000000000000000013d09d1c47ce0000000000000000000000000000000000000000000000000000000000000000000000000000000000000000b0e1650a9760e0f383174af042091fc544b8356f00000000000000000000000000000000000000000000000000000000000075e8000000000000000000000000b0e1650a9760e0f383174af042091fc544b8356f00000000000000000000000000000000000000000000000000038d7ea4c6800000000000000000000000000000000000000000000000000000038d7ea4c6800000000000000000000000000000000000000000000000000000000000000000e0000000000000000000000000000000000000000000000000000000000000012000000000000000000000000000000000000000000000000000000000000001400000000000000000000000000000000000000000000000000000000000000002000300000000000000000000000000000000000000000000000000000000000000000000000000000000000000000000000000000000000000000000000000000000000000000000000000000000000000000000000000000000000000000000",
        "nonce": "0x5c",
        "chainId": "0x1"
      },
      "additionalContracts": [],
      "isFixedGasLimit": false
    },
    {
      "hash": null,
      "transactionType": "CALL",
      "contractName": null,
      "contractAddress": "0x909dbde1ebe906af95660033e478d59efe831fed",
      "function": "send((uint32,bytes32,uint256,uint256,bytes,bytes,bytes),(uint256,uint256),address)",
      "arguments": [
        "(30184, 0x000000000000000000000000b0e1650a9760e0f383174af042091fc544b8356f, 1000000000000000, 1000000000000000, 0x0003, 0x, 0x)",
        "(21786710001614, 0)",
        "0xb0E1650A9760e0f383174af042091fc544b8356f"
      ],
      "transaction": {
        "from": "0xb0e1650a9760e0f383174af042091fc544b8356f",
        "to": "0x909dbde1ebe906af95660033e478d59efe831fed",
        "gas": "0x5c52e",
        "value": "0x13d09d1c47ce",
        "input": "0xc7c7f5b30000000000000000000000000000000000000000000000000000000000000080000000000000000000000000000000000000000000000000000013d09d1c47ce0000000000000000000000000000000000000000000000000000000000000000000000000000000000000000b0e1650a9760e0f383174af042091fc544b8356f00000000000000000000000000000000000000000000000000000000000075e8000000000000000000000000b0e1650a9760e0f383174af042091fc544b8356f00000000000000000000000000000000000000000000000000038d7ea4c6800000000000000000000000000000000000000000000000000000038d7ea4c6800000000000000000000000000000000000000000000000000000000000000000e0000000000000000000000000000000000000000000000000000000000000012000000000000000000000000000000000000000000000000000000000000001400000000000000000000000000000000000000000000000000000000000000002000300000000000000000000000000000000000000000000000000000000000000000000000000000000000000000000000000000000000000000000000000000000000000000000000000000000000000000000000000000000000000000000",
        "nonce": "0x5d",
        "chainId": "0x1"
      },
      "additionalContracts": [],
      "isFixedGasLimit": false
    },
    {
      "hash": null,
      "transactionType": "CALL",
      "contractName": null,
      "contractAddress": "0x5e8422345238f34275888049021821e8e08caa1f",
      "function": "approve(address,uint256)",
      "arguments": [
        "0xF010a7c8877043681D59AD125EbF575633505942",
        "1000000000000000"
      ],
      "transaction": {
        "from": "0xb0e1650a9760e0f383174af042091fc544b8356f",
        "to": "0x5e8422345238f34275888049021821e8e08caa1f",
        "gas": "0x1088b",
        "value": "0x0",
        "input": "0x095ea7b3000000000000000000000000f010a7c8877043681d59ad125ebf57563350594200000000000000000000000000000000000000000000000000038d7ea4c68000",
        "nonce": "0x5e",
        "chainId": "0x1"
      },
      "additionalContracts": [],
      "isFixedGasLimit": false
    },
    {
      "hash": null,
      "transactionType": "CALL",
      "contractName": null,
      "contractAddress": "0xf010a7c8877043681d59ad125ebf575633505942",
      "function": "send((uint32,bytes32,uint256,uint256,bytes,bytes,bytes),(uint256,uint256),address)",
      "arguments": [
        "(30184, 0x000000000000000000000000b0e1650a9760e0f383174af042091fc544b8356f, 1000000000000000, 1000000000000000, 0x0003, 0x, 0x)",
        "(19928197281614, 0)",
        "0xb0E1650A9760e0f383174af042091fc544b8356f"
      ],
      "transaction": {
        "from": "0xb0e1650a9760e0f383174af042091fc544b8356f",
        "to": "0xf010a7c8877043681d59ad125ebf575633505942",
        "gas": "0x6056a",
        "value": "0x121fe51eb74e",
        "input": "0xc7c7f5b300000000000000000000000000000000000000000000000000000000000000800000000000000000000000000000000000000000000000000000121fe51eb74e0000000000000000000000000000000000000000000000000000000000000000000000000000000000000000b0e1650a9760e0f383174af042091fc544b8356f00000000000000000000000000000000000000000000000000000000000075e8000000000000000000000000b0e1650a9760e0f383174af042091fc544b8356f00000000000000000000000000000000000000000000000000038d7ea4c6800000000000000000000000000000000000000000000000000000038d7ea4c6800000000000000000000000000000000000000000000000000000000000000000e0000000000000000000000000000000000000000000000000000000000000012000000000000000000000000000000000000000000000000000000000000001400000000000000000000000000000000000000000000000000000000000000002000300000000000000000000000000000000000000000000000000000000000000000000000000000000000000000000000000000000000000000000000000000000000000000000000000000000000000000000000000000000000000000000",
        "nonce": "0x5f",
        "chainId": "0x1"
      },
      "additionalContracts": [],
      "isFixedGasLimit": false
    },
    {
      "hash": null,
      "transactionType": "CALL",
      "contractName": null,
      "contractAddress": "0x853d955acef822db058eb8505911ed77f175b99e",
      "function": "approve(address,uint256)",
      "arguments": [
        "0xE41228a455700cAF09E551805A8aB37caa39D08c",
        "1000000000000000"
      ],
      "transaction": {
        "from": "0xb0e1650a9760e0f383174af042091fc544b8356f",
        "to": "0x853d955acef822db058eb8505911ed77f175b99e",
        "gas": "0xfa28",
        "value": "0x0",
        "input": "0x095ea7b3000000000000000000000000e41228a455700caf09e551805a8ab37caa39d08c00000000000000000000000000000000000000000000000000038d7ea4c68000",
        "nonce": "0x60",
        "chainId": "0x1"
      },
      "additionalContracts": [],
      "isFixedGasLimit": false
    },
    {
      "hash": null,
      "transactionType": "CALL",
      "contractName": null,
      "contractAddress": "0xe41228a455700caf09e551805a8ab37caa39d08c",
      "function": "send((uint32,bytes32,uint256,uint256,bytes,bytes,bytes),(uint256,uint256),address)",
      "arguments": [
        "(30184, 0x000000000000000000000000b0e1650a9760e0f383174af042091fc544b8356f, 1000000000000000, 1000000000000000, 0x0003, 0x, 0x)",
        "(19928197281614, 0)",
        "0xb0E1650A9760e0f383174af042091fc544b8356f"
      ],
      "transaction": {
        "from": "0xb0e1650a9760e0f383174af042091fc544b8356f",
        "to": "0xe41228a455700caf09e551805a8ab37caa39d08c",
        "gas": "0x66215",
        "value": "0x121fe51eb74e",
        "input": "0xc7c7f5b300000000000000000000000000000000000000000000000000000000000000800000000000000000000000000000000000000000000000000000121fe51eb74e0000000000000000000000000000000000000000000000000000000000000000000000000000000000000000b0e1650a9760e0f383174af042091fc544b8356f00000000000000000000000000000000000000000000000000000000000075e8000000000000000000000000b0e1650a9760e0f383174af042091fc544b8356f00000000000000000000000000000000000000000000000000038d7ea4c6800000000000000000000000000000000000000000000000000000038d7ea4c6800000000000000000000000000000000000000000000000000000000000000000e0000000000000000000000000000000000000000000000000000000000000012000000000000000000000000000000000000000000000000000000000000001400000000000000000000000000000000000000000000000000000000000000002000300000000000000000000000000000000000000000000000000000000000000000000000000000000000000000000000000000000000000000000000000000000000000000000000000000000000000000000000000000000000000000000",
        "nonce": "0x61",
        "chainId": "0x1"
      },
      "additionalContracts": [],
      "isFixedGasLimit": false
    },
    {
      "hash": null,
      "transactionType": "CALL",
      "contractName": null,
      "contractAddress": "0x23432452b720c80553458496d4d9d7c5003280d0",
      "function": "send((uint32,bytes32,uint256,uint256,bytes,bytes,bytes),(uint256,uint256),address)",
      "arguments": [
        "(30260, 0x000000000000000000000000b0e1650a9760e0f383174af042091fc544b8356f, 1000000000000000, 1000000000000000, 0x0003, 0x, 0x)",
        "(9307274903933, 0)",
        "0xb0E1650A9760e0f383174af042091fc544b8356f"
      ],
      "transaction": {
        "from": "0xb0e1650a9760e0f383174af042091fc544b8356f",
        "to": "0x23432452b720c80553458496d4d9d7c5003280d0",
        "gas": "0x69d88",
        "value": "0x87704d0817d",
        "input": "0xc7c7f5b300000000000000000000000000000000000000000000000000000000000000800000000000000000000000000000000000000000000000000000087704d0817d0000000000000000000000000000000000000000000000000000000000000000000000000000000000000000b0e1650a9760e0f383174af042091fc544b8356f0000000000000000000000000000000000000000000000000000000000007634000000000000000000000000b0e1650a9760e0f383174af042091fc544b8356f00000000000000000000000000000000000000000000000000038d7ea4c6800000000000000000000000000000000000000000000000000000038d7ea4c6800000000000000000000000000000000000000000000000000000000000000000e0000000000000000000000000000000000000000000000000000000000000012000000000000000000000000000000000000000000000000000000000000001400000000000000000000000000000000000000000000000000000000000000002000300000000000000000000000000000000000000000000000000000000000000000000000000000000000000000000000000000000000000000000000000000000000000000000000000000000000000000000000000000000000000000000",
        "nonce": "0x62",
        "chainId": "0x1"
      },
      "additionalContracts": [],
      "isFixedGasLimit": false
    },
    {
      "hash": null,
      "transactionType": "CALL",
      "contractName": null,
      "contractAddress": "0xe4796ccb6bb5de2290c417ac337f2b66ca2e770e",
      "function": "send((uint32,bytes32,uint256,uint256,bytes,bytes,bytes),(uint256,uint256),address)",
      "arguments": [
        "(30260, 0x000000000000000000000000b0e1650a9760e0f383174af042091fc544b8356f, 1000000000000000, 1000000000000000, 0x0003, 0x, 0x)",
        "(9307274903933, 0)",
        "0xb0E1650A9760e0f383174af042091fc544b8356f"
      ],
      "transaction": {
        "from": "0xb0e1650a9760e0f383174af042091fc544b8356f",
        "to": "0xe4796ccb6bb5de2290c417ac337f2b66ca2e770e",
        "gas": "0x60c64",
        "value": "0x87704d0817d",
        "input": "0xc7c7f5b300000000000000000000000000000000000000000000000000000000000000800000000000000000000000000000000000000000000000000000087704d0817d0000000000000000000000000000000000000000000000000000000000000000000000000000000000000000b0e1650a9760e0f383174af042091fc544b8356f0000000000000000000000000000000000000000000000000000000000007634000000000000000000000000b0e1650a9760e0f383174af042091fc544b8356f00000000000000000000000000000000000000000000000000038d7ea4c6800000000000000000000000000000000000000000000000000000038d7ea4c6800000000000000000000000000000000000000000000000000000000000000000e0000000000000000000000000000000000000000000000000000000000000012000000000000000000000000000000000000000000000000000000000000001400000000000000000000000000000000000000000000000000000000000000002000300000000000000000000000000000000000000000000000000000000000000000000000000000000000000000000000000000000000000000000000000000000000000000000000000000000000000000000000000000000000000000000",
        "nonce": "0x63",
        "chainId": "0x1"
      },
      "additionalContracts": [],
      "isFixedGasLimit": false
    },
    {
      "hash": null,
      "transactionType": "CALL",
      "contractName": null,
      "contractAddress": "0x1f55a02a049033e3419a8e2975cf3f572f4e6e9a",
      "function": "send((uint32,bytes32,uint256,uint256,bytes,bytes,bytes),(uint256,uint256),address)",
      "arguments": [
        "(30260, 0x000000000000000000000000b0e1650a9760e0f383174af042091fc544b8356f, 1000000000000000, 1000000000000000, 0x0003, 0x, 0x)",
        "(9307274903933, 0)",
        "0xb0E1650A9760e0f383174af042091fc544b8356f"
      ],
      "transaction": {
        "from": "0xb0e1650a9760e0f383174af042091fc544b8356f",
        "to": "0x1f55a02a049033e3419a8e2975cf3f572f4e6e9a",
        "gas": "0x5b848",
        "value": "0x87704d0817d",
        "input": "0xc7c7f5b300000000000000000000000000000000000000000000000000000000000000800000000000000000000000000000000000000000000000000000087704d0817d0000000000000000000000000000000000000000000000000000000000000000000000000000000000000000b0e1650a9760e0f383174af042091fc544b8356f0000000000000000000000000000000000000000000000000000000000007634000000000000000000000000b0e1650a9760e0f383174af042091fc544b8356f00000000000000000000000000000000000000000000000000038d7ea4c6800000000000000000000000000000000000000000000000000000038d7ea4c6800000000000000000000000000000000000000000000000000000000000000000e0000000000000000000000000000000000000000000000000000000000000012000000000000000000000000000000000000000000000000000000000000001400000000000000000000000000000000000000000000000000000000000000002000300000000000000000000000000000000000000000000000000000000000000000000000000000000000000000000000000000000000000000000000000000000000000000000000000000000000000000000000000000000000000000000",
        "nonce": "0x64",
        "chainId": "0x1"
      },
      "additionalContracts": [],
      "isFixedGasLimit": false
    },
    {
      "hash": null,
      "transactionType": "CALL",
      "contractName": null,
      "contractAddress": "0x909dbde1ebe906af95660033e478d59efe831fed",
      "function": "send((uint32,bytes32,uint256,uint256,bytes,bytes,bytes),(uint256,uint256),address)",
      "arguments": [
        "(30260, 0x000000000000000000000000b0e1650a9760e0f383174af042091fc544b8356f, 1000000000000000, 1000000000000000, 0x0003, 0x, 0x)",
        "(9307274903933, 0)",
        "0xb0E1650A9760e0f383174af042091fc544b8356f"
      ],
      "transaction": {
        "from": "0xb0e1650a9760e0f383174af042091fc544b8356f",
        "to": "0x909dbde1ebe906af95660033e478d59efe831fed",
        "gas": "0x5c52e",
        "value": "0x87704d0817d",
        "input": "0xc7c7f5b300000000000000000000000000000000000000000000000000000000000000800000000000000000000000000000000000000000000000000000087704d0817d0000000000000000000000000000000000000000000000000000000000000000000000000000000000000000b0e1650a9760e0f383174af042091fc544b8356f0000000000000000000000000000000000000000000000000000000000007634000000000000000000000000b0e1650a9760e0f383174af042091fc544b8356f00000000000000000000000000000000000000000000000000038d7ea4c6800000000000000000000000000000000000000000000000000000038d7ea4c6800000000000000000000000000000000000000000000000000000000000000000e0000000000000000000000000000000000000000000000000000000000000012000000000000000000000000000000000000000000000000000000000000001400000000000000000000000000000000000000000000000000000000000000002000300000000000000000000000000000000000000000000000000000000000000000000000000000000000000000000000000000000000000000000000000000000000000000000000000000000000000000000000000000000000000000000",
        "nonce": "0x65",
        "chainId": "0x1"
      },
      "additionalContracts": [],
      "isFixedGasLimit": false
    },
    {
      "hash": null,
      "transactionType": "CALL",
      "contractName": null,
      "contractAddress": "0x5e8422345238f34275888049021821e8e08caa1f",
      "function": "approve(address,uint256)",
      "arguments": [
        "0xF010a7c8877043681D59AD125EbF575633505942",
        "1000000000000000"
      ],
      "transaction": {
        "from": "0xb0e1650a9760e0f383174af042091fc544b8356f",
        "to": "0x5e8422345238f34275888049021821e8e08caa1f",
        "gas": "0x1088b",
        "value": "0x0",
        "input": "0x095ea7b3000000000000000000000000f010a7c8877043681d59ad125ebf57563350594200000000000000000000000000000000000000000000000000038d7ea4c68000",
        "nonce": "0x66",
        "chainId": "0x1"
      },
      "additionalContracts": [],
      "isFixedGasLimit": false
    },
    {
      "hash": null,
      "transactionType": "CALL",
      "contractName": null,
      "contractAddress": "0xf010a7c8877043681d59ad125ebf575633505942",
      "function": "send((uint32,bytes32,uint256,uint256,bytes,bytes,bytes),(uint256,uint256),address)",
      "arguments": [
        "(30260, 0x000000000000000000000000b0e1650a9760e0f383174af042091fc544b8356f, 1000000000000000, 1000000000000000, 0x0003, 0x, 0x)",
        "(9307274903933, 0)",
        "0xb0E1650A9760e0f383174af042091fc544b8356f"
      ],
      "transaction": {
        "from": "0xb0e1650a9760e0f383174af042091fc544b8356f",
        "to": "0xf010a7c8877043681d59ad125ebf575633505942",
        "gas": "0x6056a",
        "value": "0x87704d0817d",
        "input": "0xc7c7f5b300000000000000000000000000000000000000000000000000000000000000800000000000000000000000000000000000000000000000000000087704d0817d0000000000000000000000000000000000000000000000000000000000000000000000000000000000000000b0e1650a9760e0f383174af042091fc544b8356f0000000000000000000000000000000000000000000000000000000000007634000000000000000000000000b0e1650a9760e0f383174af042091fc544b8356f00000000000000000000000000000000000000000000000000038d7ea4c6800000000000000000000000000000000000000000000000000000038d7ea4c6800000000000000000000000000000000000000000000000000000000000000000e0000000000000000000000000000000000000000000000000000000000000012000000000000000000000000000000000000000000000000000000000000001400000000000000000000000000000000000000000000000000000000000000002000300000000000000000000000000000000000000000000000000000000000000000000000000000000000000000000000000000000000000000000000000000000000000000000000000000000000000000000000000000000000000000000",
        "nonce": "0x67",
        "chainId": "0x1"
      },
      "additionalContracts": [],
      "isFixedGasLimit": false
    },
    {
      "hash": null,
      "transactionType": "CALL",
      "contractName": null,
      "contractAddress": "0x853d955acef822db058eb8505911ed77f175b99e",
      "function": "approve(address,uint256)",
      "arguments": [
        "0xE41228a455700cAF09E551805A8aB37caa39D08c",
        "1000000000000000"
      ],
      "transaction": {
        "from": "0xb0e1650a9760e0f383174af042091fc544b8356f",
        "to": "0x853d955acef822db058eb8505911ed77f175b99e",
        "gas": "0xfa28",
        "value": "0x0",
        "input": "0x095ea7b3000000000000000000000000e41228a455700caf09e551805a8ab37caa39d08c00000000000000000000000000000000000000000000000000038d7ea4c68000",
        "nonce": "0x68",
        "chainId": "0x1"
      },
      "additionalContracts": [],
      "isFixedGasLimit": false
    },
    {
      "hash": null,
      "transactionType": "CALL",
      "contractName": null,
      "contractAddress": "0xe41228a455700caf09e551805a8ab37caa39d08c",
      "function": "send((uint32,bytes32,uint256,uint256,bytes,bytes,bytes),(uint256,uint256),address)",
      "arguments": [
        "(30260, 0x000000000000000000000000b0e1650a9760e0f383174af042091fc544b8356f, 1000000000000000, 1000000000000000, 0x0003, 0x, 0x)",
        "(9307274903933, 0)",
        "0xb0E1650A9760e0f383174af042091fc544b8356f"
      ],
      "transaction": {
        "from": "0xb0e1650a9760e0f383174af042091fc544b8356f",
        "to": "0xe41228a455700caf09e551805a8ab37caa39d08c",
        "gas": "0x66215",
        "value": "0x87704d0817d",
        "input": "0xc7c7f5b300000000000000000000000000000000000000000000000000000000000000800000000000000000000000000000000000000000000000000000087704d0817d0000000000000000000000000000000000000000000000000000000000000000000000000000000000000000b0e1650a9760e0f383174af042091fc544b8356f0000000000000000000000000000000000000000000000000000000000007634000000000000000000000000b0e1650a9760e0f383174af042091fc544b8356f00000000000000000000000000000000000000000000000000038d7ea4c6800000000000000000000000000000000000000000000000000000038d7ea4c6800000000000000000000000000000000000000000000000000000000000000000e0000000000000000000000000000000000000000000000000000000000000012000000000000000000000000000000000000000000000000000000000000001400000000000000000000000000000000000000000000000000000000000000002000300000000000000000000000000000000000000000000000000000000000000000000000000000000000000000000000000000000000000000000000000000000000000000000000000000000000000000000000000000000000000000000",
        "nonce": "0x69",
        "chainId": "0x1"
      },
      "additionalContracts": [],
      "isFixedGasLimit": false
    }
  ],
  "receipts": [],
  "libraries": [],
  "pending": [],
  "returns": {},
  "timestamp": 1719875578,
  "chain": 1,
  "commit": "52a2592"
}