{
  "transactions": [
    {
      "hash": "0xb0f84df15ce2d17e1d0a8dd0842bf4acb3a468b59234fbd407b1e90598f3ba11",
      "transactionType": "CALL",
      "contractName": null,
      "contractAddress": "0x741f0d8bde14140f62107fc60a0ee122b37d4630",
      "function": "batchBridgeWithEthFeeFromWallet((uint32,bytes32,uint256,uint256,bytes,bytes,bytes)[],address[],address[])",
      "arguments": [
        "[(30383, 0x000000000000000000000000741f0d8bde14140f62107fc60a0ee122b37d4630, 500000000000000000, 0, 0x, 0x, 0x)]",
        "[0x57558Cb8d6005DE0BAe8a2789d5EfaaE52dba5a8]",
        "[0x741F0d8Bde14140f62107FC60A0EE122B37D4630]"
      ],
      "transaction": {
        "from": "0x45dce8e4f2dc005a5f28206a46cb034697eeda8e",
        "to": "0x741f0d8bde14140f62107fc60a0ee122b37d4630",
        "gas": "0x94763",
        "value": "0x147badcd280e",
        "input": "0xb70d4241000000000000000000000000000000000000000000000000000000000000006000000000000000000000000000000000000000000000000000000000000001e000000000000000000000000000000000000000000000000000000000000002200000000000000000000000000000000000000000000000000000000000000001000000000000000000000000000000000000000000000000000000000000002000000000000000000000000000000000000000000000000000000000000076af000000000000000000000000741f0d8bde14140f62107fc60a0ee122b37d463000000000000000000000000000000000000000000000000006f05b59d3b20000000000000000000000000000000000000000000000000000000000000000000000000000000000000000000000000000000000000000000000000000000000e000000000000000000000000000000000000000000000000000000000000001000000000000000000000000000000000000000000000000000000000000000120000000000000000000000000000000000000000000000000000000000000000000000000000000000000000000000000000000000000000000000000000000000000000000000000000000000000000000000000000000000000000000000000000000000000000000000000000000000000000000000000000000000000000100000000000000000000000057558cb8d6005de0bae8a2789d5efaae52dba5a80000000000000000000000000000000000000000000000000000000000000001000000000000000000000000741f0d8bde14140f62107fc60a0ee122b37d4630",
        "nonce": "0xa4",
        "chainId": "0x44d"
      },
      "additionalContracts": [],
      "isFixedGasLimit": false
    }
  ],
  "receipts": [
    {
      "status": "0x1",
      "cumulativeGasUsed": "0x65833",
      "logs": [
        {
          "address": "0x57558cb8d6005de0bae8a2789d5efaae52dba5a8",
          "topics": [
            "0xddf252ad1be2c89b69c2b068fc378daa952ba7f163c4a11628f55a4df523b3ef",
            "0x000000000000000000000000741f0d8bde14140f62107fc60a0ee122b37d4630",
            "0x0000000000000000000000000000000000000000000000000000000000000000"
          ],
          "data": "0x00000000000000000000000000000000000000000000000006f05b59d3b20000",
          "blockHash": "0x52b8aef86a90ec8370e225ee1b095d06a39366cb9d383b0e0e43e9ced9d0f55f",
          "blockNumber": "0x18e97c1",
          "transactionHash": "0xb0f84df15ce2d17e1d0a8dd0842bf4acb3a468b59234fbd407b1e90598f3ba11",
          "transactionIndex": "0x0",
          "logIndex": "0x0",
          "removed": false
        },
        {
          "address": "0x28b6140ead70cb2fb669705b3598ffb4beaa060b",
          "topics": [
            "0x61ed099e74a97a1d7f8bb0952a88ca8b7b8ebd00c126ea04671f92a81213318a"
          ],
          "data": "0x000000000000000000000000be4fb271cfb7bcbb47ea9573321c7bfe309fc2200000000000000000000000000000000000000000000000000000147badc49057",
          "blockHash": "0x52b8aef86a90ec8370e225ee1b095d06a39366cb9d383b0e0e43e9ced9d0f55f",
          "blockNumber": "0x18e97c1",
          "transactionHash": "0xb0f84df15ce2d17e1d0a8dd0842bf4acb3a468b59234fbd407b1e90598f3ba11",
          "transactionIndex": "0x0",
          "logIndex": "0x1",
          "removed": false
        },
        {
          "address": "0x28b6140ead70cb2fb669705b3598ffb4beaa060b",
          "topics": [
            "0x07ea52d82345d6e838192107d8fd7123d9c2ec8e916cd0aad13fd2b60db24644"
          ],
          "data": "0x000000000000000000000000000000000000000000000000000000000000006000000000000000000000000000000000000000000000000000000000000000e000000000000000000000000000000000000000000000000000000000000001000000000000000000000000000000000000000000000000000000000000000003000000000000000000000000488863d609f3a673875a914fbee7508a1de45ec6000000000000000000000000651b1cf59014420112f8b7fcfda840a16ad763e00000000000000000000000007fe673201724925b5c477d4e1a4bd3e954688cf500000000000000000000000000000000000000000000000000000000000000000000000000000000000000000000000000000000000000000000000000000003000000000000000000000000000000000000000000000000000000000002d31b000000000000000000000000000000000000000000000000000000000002f181000000000000000000000000000000000000000000000000000000000002d31b",
          "blockHash": "0x52b8aef86a90ec8370e225ee1b095d06a39366cb9d383b0e0e43e9ced9d0f55f",
          "blockNumber": "0x18e97c1",
          "transactionHash": "0xb0f84df15ce2d17e1d0a8dd0842bf4acb3a468b59234fbd407b1e90598f3ba11",
          "transactionIndex": "0x0",
          "logIndex": "0x2",
          "removed": false
        },
        {
          "address": "0x1a44076050125825900e736c501f859c50fe728c",
          "topics": [
            "0x1ab700d4ced0c005b164c0f789fd09fcbb0156d4c2041b8a3bfbcd961cd1567f"
          ],
          "data": "0x0000000000000000000000000000000000000000000000000000000000000060000000000000000000000000000000000000000000000000000000000000012000000000000000000000000028b6140ead70cb2fb669705b3598ffb4beaa060b0000000000000000000000000000000000000000000000000000000000000099010000000000000001000075ce00000000000000000000000057558cb8d6005de0bae8a2789d5efaae52dba5a8000076af00000000000000000000000057558cb8d6005de0bae8a2789d5efaae52dba5a877bc575a4ac8fd09582f50da7ab88bb85b5ddfcf5ea1e33e38e03855b24e2bc1000000000000000000000000741f0d8bde14140f62107fc60a0ee122b37d4630000000000007a12000000000000000000000000000000000000000000000000000000000000000000000000000001600030100110100000000000000000000000000030d4000000000000000000000",
          "blockHash": "0x52b8aef86a90ec8370e225ee1b095d06a39366cb9d383b0e0e43e9ced9d0f55f",
          "blockNumber": "0x18e97c1",
          "transactionHash": "0xb0f84df15ce2d17e1d0a8dd0842bf4acb3a468b59234fbd407b1e90598f3ba11",
          "transactionIndex": "0x0",
          "logIndex": "0x3",
          "removed": false
        },
        {
          "address": "0x57558cb8d6005de0bae8a2789d5efaae52dba5a8",
          "topics": [
            "0x85496b760a4b7f8d66384b9df21b381f5d1b1e79f229a47aaf4c232edc2fe59a",
            "0x77bc575a4ac8fd09582f50da7ab88bb85b5ddfcf5ea1e33e38e03855b24e2bc1",
            "0x000000000000000000000000741f0d8bde14140f62107fc60a0ee122b37d4630"
          ],
          "data": "0x00000000000000000000000000000000000000000000000000000000000076af00000000000000000000000000000000000000000000000006f05b59d3b2000000000000000000000000000000000000000000000000000006f05b59d3b20000",
          "blockHash": "0x52b8aef86a90ec8370e225ee1b095d06a39366cb9d383b0e0e43e9ced9d0f55f",
          "blockNumber": "0x18e97c1",
          "transactionHash": "0xb0f84df15ce2d17e1d0a8dd0842bf4acb3a468b59234fbd407b1e90598f3ba11",
          "transactionIndex": "0x0",
          "logIndex": "0x4",
          "removed": false
        }
      ],
      "logsBloom": "0x0000000000001000000000000004004000000000000000000000000000100000000000000000000000000000000000040000010000000000000000000000000000000200000000000000000800000000000000000000000000000000000000800000008002000000800000000000080000000000001000000000001000000000008000000000000000000008000000000000000000000000000000000000000000000000a000001000100000000000000000000000400000000440000000000000000002000000000000000080000000000000000000000000000000000020000000040000000000000000200000002000200000018000000000000000000000",
      "type": "0x0",
      "transactionHash": "0xb0f84df15ce2d17e1d0a8dd0842bf4acb3a468b59234fbd407b1e90598f3ba11",
      "transactionIndex": "0x0",
      "blockHash": "0x52b8aef86a90ec8370e225ee1b095d06a39366cb9d383b0e0e43e9ced9d0f55f",
      "blockNumber": "0x18e97c1",
      "gasUsed": "0x65833",
      "effectiveGasPrice": "0x989680",
      "from": "0x45dce8e4f2dc005a5f28206a46cb034697eeda8e",
      "to": "0x741f0d8bde14140f62107fc60a0ee122b37d4630",
      "contractAddress": null
    }
  ],
  "libraries": [],
  "pending": [],
  "returns": {},
  "timestamp": 1759694089028,
  "chain": 1101,
  "commit": "eed1662"
}