{
  "transactions": [
    {
      "hash": "0x5025baf7d8ca429a880d1e1a6bb5c824c0a109a1c4c7be83961c061b2c6f3929",
      "transactionType": "CALL",
      "contractName": null,
      "contractAddress": "0x741f0d8bde14140f62107fc60a0ee122b37d4630",
      "function": "batchBridgeWithEthFeeFromWallet((uint32,bytes32,uint256,uint256,bytes,bytes,bytes)[],address[],address[])",
      "arguments": [
        "[(30367, 0x000000000000000000000000741f0d8bde14140f62107fc60a0ee122b37d4630, 500000000000000000, 0, 0x, 0x, 0x)]",
        "[0x57558Cb8d6005DE0BAe8a2789d5EfaaE52dba5a8]",
        "[0x741F0d8Bde14140f62107FC60A0EE122B37D4630]"
      ],
      "transaction": {
        "from": "0x45dce8e4f2dc005a5f28206a46cb034697eeda8e",
        "to": "0x741f0d8bde14140f62107fc60a0ee122b37d4630",
        "gas": "0x8c387",
        "value": "0x456d9af84e53",
        "input": "0xb70d4241000000000000000000000000000000000000000000000000000000000000006000000000000000000000000000000000000000000000000000000000000001e0000000000000000000000000000000000000000000000000000000000000022000000000000000000000000000000000000000000000000000000000000000010000000000000000000000000000000000000000000000000000000000000020000000000000000000000000000000000000000000000000000000000000769f000000000000000000000000741f0d8bde14140f62107fc60a0ee122b37d463000000000000000000000000000000000000000000000000006f05b59d3b20000000000000000000000000000000000000000000000000000000000000000000000000000000000000000000000000000000000000000000000000000000000e000000000000000000000000000000000000000000000000000000000000001000000000000000000000000000000000000000000000000000000000000000120000000000000000000000000000000000000000000000000000000000000000000000000000000000000000000000000000000000000000000000000000000000000000000000000000000000000000000000000000000000000000000000000000000000000000000000000000000000000000000000000000000000000000100000000000000000000000057558cb8d6005de0bae8a2789d5efaae52dba5a80000000000000000000000000000000000000000000000000000000000000001000000000000000000000000741f0d8bde14140f62107fc60a0ee122b37d4630",
        "nonce": "0x9d",
        "chainId": "0x44d"
      },
      "additionalContracts": [],
      "isFixedGasLimit": false
    }
  ],
  "receipts": [
    {
      "status": "0x1",
      "cumulativeGasUsed": "0x65847",
      "logs": [
        {
          "address": "0x57558cb8d6005de0bae8a2789d5efaae52dba5a8",
          "topics": [
            "0xddf252ad1be2c89b69c2b068fc378daa952ba7f163c4a11628f55a4df523b3ef",
            "0x000000000000000000000000741f0d8bde14140f62107fc60a0ee122b37d4630",
            "0x0000000000000000000000000000000000000000000000000000000000000000"
          ],
          "data": "0x00000000000000000000000000000000000000000000000006f05b59d3b20000",
          "blockHash": "0x3b016eeb3cc3d56b6e105f48c1a4af025c77cee03bbbcc076cfeebab2db4c306",
          "blockNumber": "0x18662bc",
          "transactionHash": "0x5025baf7d8ca429a880d1e1a6bb5c824c0a109a1c4c7be83961c061b2c6f3929",
          "transactionIndex": "0x0",
          "logIndex": "0x0",
          "removed": false
        },
        {
          "address": "0x28b6140ead70cb2fb669705b3598ffb4beaa060b",
          "topics": [
            "0x61ed099e74a97a1d7f8bb0952a88ca8b7b8ebd00c126ea04671f92a81213318a"
          ],
          "data": "0x000000000000000000000000be4fb271cfb7bcbb47ea9573321c7bfe309fc220000000000000000000000000000000000000000000000000000024637671acb8",
          "blockHash": "0x3b016eeb3cc3d56b6e105f48c1a4af025c77cee03bbbcc076cfeebab2db4c306",
          "blockNumber": "0x18662bc",
          "transactionHash": "0x5025baf7d8ca429a880d1e1a6bb5c824c0a109a1c4c7be83961c061b2c6f3929",
          "transactionIndex": "0x0",
          "logIndex": "0x1",
          "removed": false
        },
        {
          "address": "0x28b6140ead70cb2fb669705b3598ffb4beaa060b",
          "topics": [
            "0x07ea52d82345d6e838192107d8fd7123d9c2ec8e916cd0aad13fd2b60db24644"
          ],
          "data": "0x000000000000000000000000000000000000000000000000000000000000006000000000000000000000000000000000000000000000000000000000000000e000000000000000000000000000000000000000000000000000000000000001000000000000000000000000000000000000000000000000000000000000000003000000000000000000000000488863d609f3a673875a914fbee7508a1de45ec6000000000000000000000000651b1cf59014420112f8b7fcfda840a16ad763e00000000000000000000000007fe673201724925b5c477d4e1a4bd3e954688cf50000000000000000000000000000000000000000000000000000000000000000000000000000000000000000000000000000000000000000000000000000000300000000000000000000000000000000000000000000000000000adc6b7205ff00000000000000000000000000000000000000000000000000000b514da2959d00000000000000000000000000000000000000000000000000000adc6b7205ff",
          "blockHash": "0x3b016eeb3cc3d56b6e105f48c1a4af025c77cee03bbbcc076cfeebab2db4c306",
          "blockNumber": "0x18662bc",
          "transactionHash": "0x5025baf7d8ca429a880d1e1a6bb5c824c0a109a1c4c7be83961c061b2c6f3929",
          "transactionIndex": "0x0",
          "logIndex": "0x2",
          "removed": false
        },
        {
          "address": "0x1a44076050125825900e736c501f859c50fe728c",
          "topics": [
            "0x1ab700d4ced0c005b164c0f789fd09fcbb0156d4c2041b8a3bfbcd961cd1567f"
          ],
          "data": "0x0000000000000000000000000000000000000000000000000000000000000060000000000000000000000000000000000000000000000000000000000000012000000000000000000000000028b6140ead70cb2fb669705b3598ffb4beaa060b0000000000000000000000000000000000000000000000000000000000000099010000000000000001000075ce00000000000000000000000057558cb8d6005de0bae8a2789d5efaae52dba5a80000769f00000000000000000000000057558cb8d6005de0bae8a2789d5efaae52dba5a8a8623c9ff98f1953b9477e372437589d38f1622e21d09594b70467986cd4e10f000000000000000000000000741f0d8bde14140f62107fc60a0ee122b37d4630000000000007a12000000000000000000000000000000000000000000000000000000000000000000000000000001600030100110100000000000000000000000000030d4000000000000000000000",
          "blockHash": "0x3b016eeb3cc3d56b6e105f48c1a4af025c77cee03bbbcc076cfeebab2db4c306",
          "blockNumber": "0x18662bc",
          "transactionHash": "0x5025baf7d8ca429a880d1e1a6bb5c824c0a109a1c4c7be83961c061b2c6f3929",
          "transactionIndex": "0x0",
          "logIndex": "0x3",
          "removed": false
        },
        {
          "address": "0x57558cb8d6005de0bae8a2789d5efaae52dba5a8",
          "topics": [
            "0x85496b760a4b7f8d66384b9df21b381f5d1b1e79f229a47aaf4c232edc2fe59a",
            "0xa8623c9ff98f1953b9477e372437589d38f1622e21d09594b70467986cd4e10f",
            "0x000000000000000000000000741f0d8bde14140f62107fc60a0ee122b37d4630"
          ],
          "data": "0x000000000000000000000000000000000000000000000000000000000000769f00000000000000000000000000000000000000000000000006f05b59d3b2000000000000000000000000000000000000000000000000000006f05b59d3b20000",
          "blockHash": "0x3b016eeb3cc3d56b6e105f48c1a4af025c77cee03bbbcc076cfeebab2db4c306",
          "blockNumber": "0x18662bc",
          "transactionHash": "0x5025baf7d8ca429a880d1e1a6bb5c824c0a109a1c4c7be83961c061b2c6f3929",
          "transactionIndex": "0x0",
          "logIndex": "0x4",
          "removed": false
        }
      ],
      "logsBloom": "0x0000000000000000000000000004004000000000000000000000000000100000000000000000000000000000000000040000010000000000000000000000000000000200000000000000000800000000000000000000000000000000000000000000008002000000800000000000080000000000001000004000001000000000008000000000000000000088000000000000000000000000000000000000000000000000a000001000100020000000000000000000400000000440000000000000000002000000000000000080000000000000000000000000000000000020000000040000000000000000200000002000000000018000000000000000000000",
      "type": "0x0",
      "transactionHash": "0x5025baf7d8ca429a880d1e1a6bb5c824c0a109a1c4c7be83961c061b2c6f3929",
      "transactionIndex": "0x0",
      "blockHash": "0x3b016eeb3cc3d56b6e105f48c1a4af025c77cee03bbbcc076cfeebab2db4c306",
      "blockNumber": "0x18662bc",
      "gasUsed": "0x65847",
      "effectiveGasPrice": "0x989680",
      "from": "0x45dce8e4f2dc005a5f28206a46cb034697eeda8e",
      "to": "0x741f0d8bde14140f62107fc60a0ee122b37d4630",
      "contractAddress": null
    }
  ],
  "libraries": [],
  "pending": [],
  "returns": {},
  "timestamp": 1757956297651,
  "chain": 1101,
  "commit": "e9d64cb"
}