{
  "transactions": [
    {
      "hash": "0x0f1c3b76cb518c2f65589ec56a269e9793e72c7fcc28fa44819bd2765a42a02f",
      "transactionType": "CALL",
      "contractName": null,
      "contractAddress": "0x741f0d8bde14140f62107fc60a0ee122b37d4630",
      "function": "batchBridgeWithEthFeeFromWallet((uint32,bytes32,uint256,uint256,bytes,bytes,bytes)[],address[],address[])",
      "arguments": [
        "[(30211, 0x0000000000000000000000004a767e2ef83577225522ef8ed71056c6e3acb216, 1000000000000000000, 0, 0x, 0x, 0x), (30214, 0x000000000000000000000000741f0d8bde14140f62107fc60a0ee122b37d4630, 1000000000000000000, 0, 0x, 0x, 0x)]",
        "[0x57558Cb8d6005DE0BAe8a2789d5EfaaE52dba5a8, 0x57558Cb8d6005DE0BAe8a2789d5EfaaE52dba5a8]",
        "[0x741F0d8Bde14140f62107FC60A0EE122B37D4630, 0x741F0d8Bde14140f62107FC60A0EE122B37D4630]"
      ],
      "transaction": {
        "from": "0x45dce8e4f2dc005a5f28206a46cb034697eeda8e",
        "to": "0x741f0d8bde14140f62107fc60a0ee122b37d4630",
        "gas": "0xedb33",
        "value": "0x8ae997b0988f",
        "input": "0xb70d42410000000000000000000000000000000000000000000000000000000000000060000000000000000000000000000000000000000000000000000000000000034000000000000000000000000000000000000000000000000000000000000003a000000000000000000000000000000000000000000000000000000000000000020000000000000000000000000000000000000000000000000000000000000040000000000000000000000000000000000000000000000000000000000000018000000000000000000000000000000000000000000000000000000000000076030000000000000000000000004a767e2ef83577225522ef8ed71056c6e3acb2160000000000000000000000000000000000000000000000000de0b6b3a7640000000000000000000000000000000000000000000000000000000000000000000000000000000000000000000000000000000000000000000000000000000000e0000000000000000000000000000000000000000000000000000000000000010000000000000000000000000000000000000000000000000000000000000001200000000000000000000000000000000000000000000000000000000000000000000000000000000000000000000000000000000000000000000000000000000000000000000000000000000000000000000000000000000000000000000000000000000000000000000000000000000000000000000000000000000000007606000000000000000000000000741f0d8bde14140f62107fc60a0ee122b37d46300000000000000000000000000000000000000000000000000de0b6b3a7640000000000000000000000000000000000000000000000000000000000000000000000000000000000000000000000000000000000000000000000000000000000e000000000000000000000000000000000000000000000000000000000000001000000000000000000000000000000000000000000000000000000000000000120000000000000000000000000000000000000000000000000000000000000000000000000000000000000000000000000000000000000000000000000000000000000000000000000000000000000000000000000000000000000000000000000000000000000000000000000000000000000000000000000000000000000000200000000000000000000000057558cb8d6005de0bae8a2789d5efaae52dba5a800000000000000000000000057558cb8d6005de0bae8a2789d5efaae52dba5a80000000000000000000000000000000000000000000000000000000000000002000000000000000000000000741f0d8bde14140f62107fc60a0ee122b37d4630000000000000000000000000741f0d8bde14140f62107fc60a0ee122b37d4630",
        "nonce": "0x96",
        "chainId": "0x44d"
      },
      "additionalContracts": [],
      "isFixedGasLimit": false
    }
  ],
  "receipts": [
    {
      "status": "0x1",
      "cumulativeGasUsed": "0xa287b",
      "logs": [
        {
          "address": "0x57558cb8d6005de0bae8a2789d5efaae52dba5a8",
          "topics": [
            "0xddf252ad1be2c89b69c2b068fc378daa952ba7f163c4a11628f55a4df523b3ef",
            "0x000000000000000000000000741f0d8bde14140f62107fc60a0ee122b37d4630",
            "0x0000000000000000000000000000000000000000000000000000000000000000"
          ],
          "data": "0x0000000000000000000000000000000000000000000000000de0b6b3a7640000",
          "blockHash": "0xe87d402c6bb27abe53e69a21399c3dab80459069799f33b9b7c2ffe85502b1e0",
          "blockNumber": "0x1814fca",
          "transactionHash": "0x0f1c3b76cb518c2f65589ec56a269e9793e72c7fcc28fa44819bd2765a42a02f",
          "transactionIndex": "0x0",
          "logIndex": "0x0",
          "removed": false
        },
        {
          "address": "0x28b6140ead70cb2fb669705b3598ffb4beaa060b",
          "topics": [
            "0x61ed099e74a97a1d7f8bb0952a88ca8b7b8ebd00c126ea04671f92a81213318a"
          ],
          "data": "0x000000000000000000000000be4fb271cfb7bcbb47ea9573321c7bfe309fc2200000000000000000000000000000000000000000000000000000276dc8fc369b",
          "blockHash": "0xe87d402c6bb27abe53e69a21399c3dab80459069799f33b9b7c2ffe85502b1e0",
          "blockNumber": "0x1814fca",
          "transactionHash": "0x0f1c3b76cb518c2f65589ec56a269e9793e72c7fcc28fa44819bd2765a42a02f",
          "transactionIndex": "0x0",
          "logIndex": "0x1",
          "removed": false
        },
        {
          "address": "0x28b6140ead70cb2fb669705b3598ffb4beaa060b",
          "topics": [
            "0x07ea52d82345d6e838192107d8fd7123d9c2ec8e916cd0aad13fd2b60db24644"
          ],
          "data": "0x000000000000000000000000000000000000000000000000000000000000006000000000000000000000000000000000000000000000000000000000000000e000000000000000000000000000000000000000000000000000000000000001000000000000000000000000000000000000000000000000000000000000000003000000000000000000000000488863d609f3a673875a914fbee7508a1de45ec6000000000000000000000000651b1cf59014420112f8b7fcfda840a16ad763e00000000000000000000000007fe673201724925b5c477d4e1a4bd3e954688cf5000000000000000000000000000000000000000000000000000000000000000000000000000000000000000000000000000000000000000000000000000000030000000000000000000000000000000000000000000000000000068575a5ae96000000000000000000000000000000000000000000000000000006cba3f5563a0000000000000000000000000000000000000000000000000000068575a5ae96",
          "blockHash": "0xe87d402c6bb27abe53e69a21399c3dab80459069799f33b9b7c2ffe85502b1e0",
          "blockNumber": "0x1814fca",
          "transactionHash": "0x0f1c3b76cb518c2f65589ec56a269e9793e72c7fcc28fa44819bd2765a42a02f",
          "transactionIndex": "0x0",
          "logIndex": "0x2",
          "removed": false
        },
        {
          "address": "0x1a44076050125825900e736c501f859c50fe728c",
          "topics": [
            "0x1ab700d4ced0c005b164c0f789fd09fcbb0156d4c2041b8a3bfbcd961cd1567f"
          ],
          "data": "0x0000000000000000000000000000000000000000000000000000000000000060000000000000000000000000000000000000000000000000000000000000012000000000000000000000000028b6140ead70cb2fb669705b3598ffb4beaa060b0000000000000000000000000000000000000000000000000000000000000099010000000000000001000075ce00000000000000000000000057558cb8d6005de0bae8a2789d5efaae52dba5a800007603000000000000000000000000a057d8d4fc86a62801ce363c169b0a8d192f6cee8480b8100ff4d6edc411fdba408852169ba3906246c08b71998fb5bda66e67d00000000000000000000000004a767e2ef83577225522ef8ed71056c6e3acb21600000000000f424000000000000000000000000000000000000000000000000000000000000000000000000000001600030100110100000000000000000000000000030d4000000000000000000000",
          "blockHash": "0xe87d402c6bb27abe53e69a21399c3dab80459069799f33b9b7c2ffe85502b1e0",
          "blockNumber": "0x1814fca",
          "transactionHash": "0x0f1c3b76cb518c2f65589ec56a269e9793e72c7fcc28fa44819bd2765a42a02f",
          "transactionIndex": "0x0",
          "logIndex": "0x3",
          "removed": false
        },
        {
          "address": "0x57558cb8d6005de0bae8a2789d5efaae52dba5a8",
          "topics": [
            "0x85496b760a4b7f8d66384b9df21b381f5d1b1e79f229a47aaf4c232edc2fe59a",
            "0x8480b8100ff4d6edc411fdba408852169ba3906246c08b71998fb5bda66e67d0",
            "0x000000000000000000000000741f0d8bde14140f62107fc60a0ee122b37d4630"
          ],
          "data": "0x00000000000000000000000000000000000000000000000000000000000076030000000000000000000000000000000000000000000000000de0b6b3a76400000000000000000000000000000000000000000000000000000de0b6b3a7640000",
          "blockHash": "0xe87d402c6bb27abe53e69a21399c3dab80459069799f33b9b7c2ffe85502b1e0",
          "blockNumber": "0x1814fca",
          "transactionHash": "0x0f1c3b76cb518c2f65589ec56a269e9793e72c7fcc28fa44819bd2765a42a02f",
          "transactionIndex": "0x0",
          "logIndex": "0x4",
          "removed": false
        },
        {
          "address": "0x57558cb8d6005de0bae8a2789d5efaae52dba5a8",
          "topics": [
            "0xddf252ad1be2c89b69c2b068fc378daa952ba7f163c4a11628f55a4df523b3ef",
            "0x000000000000000000000000741f0d8bde14140f62107fc60a0ee122b37d4630",
            "0x0000000000000000000000000000000000000000000000000000000000000000"
          ],
          "data": "0x0000000000000000000000000000000000000000000000000de0b6b3a7640000",
          "blockHash": "0xe87d402c6bb27abe53e69a21399c3dab80459069799f33b9b7c2ffe85502b1e0",
          "blockNumber": "0x1814fca",
          "transactionHash": "0x0f1c3b76cb518c2f65589ec56a269e9793e72c7fcc28fa44819bd2765a42a02f",
          "transactionIndex": "0x0",
          "logIndex": "0x5",
          "removed": false
        },
        {
          "address": "0x28b6140ead70cb2fb669705b3598ffb4beaa060b",
          "topics": [
            "0x61ed099e74a97a1d7f8bb0952a88ca8b7b8ebd00c126ea04671f92a81213318a"
          ],
          "data": "0x000000000000000000000000be4fb271cfb7bcbb47ea9573321c7bfe309fc22000000000000000000000000000000000000000000000000000004f9c8b69919c",
          "blockHash": "0xe87d402c6bb27abe53e69a21399c3dab80459069799f33b9b7c2ffe85502b1e0",
          "blockNumber": "0x1814fca",
          "transactionHash": "0x0f1c3b76cb518c2f65589ec56a269e9793e72c7fcc28fa44819bd2765a42a02f",
          "transactionIndex": "0x0",
          "logIndex": "0x6",
          "removed": false
        },
        {
          "address": "0x28b6140ead70cb2fb669705b3598ffb4beaa060b",
          "topics": [
            "0x07ea52d82345d6e838192107d8fd7123d9c2ec8e916cd0aad13fd2b60db24644"
          ],
          "data": "0x000000000000000000000000000000000000000000000000000000000000006000000000000000000000000000000000000000000000000000000000000000e000000000000000000000000000000000000000000000000000000000000001000000000000000000000000000000000000000000000000000000000000000003000000000000000000000000488863d609f3a673875a914fbee7508a1de45ec6000000000000000000000000651b1cf59014420112f8b7fcfda840a16ad763e00000000000000000000000007fe673201724925b5c477d4e1a4bd3e954688cf50000000000000000000000000000000000000000000000000000000000000000000000000000000000000000000000000000000000000000000000000000000300000000000000000000000000000000000000000000000000000002dc6aacd900000000000000000000000000000000000000000000000000000002fb34c34000000000000000000000000000000000000000000000000000000002dc6aacd9",
          "blockHash": "0xe87d402c6bb27abe53e69a21399c3dab80459069799f33b9b7c2ffe85502b1e0",
          "blockNumber": "0x1814fca",
          "transactionHash": "0x0f1c3b76cb518c2f65589ec56a269e9793e72c7fcc28fa44819bd2765a42a02f",
          "transactionIndex": "0x0",
          "logIndex": "0x7",
          "removed": false
        },
        {
          "address": "0x1a44076050125825900e736c501f859c50fe728c",
          "topics": [
            "0x1ab700d4ced0c005b164c0f789fd09fcbb0156d4c2041b8a3bfbcd961cd1567f"
          ],
          "data": "0x0000000000000000000000000000000000000000000000000000000000000060000000000000000000000000000000000000000000000000000000000000012000000000000000000000000028b6140ead70cb2fb669705b3598ffb4beaa060b0000000000000000000000000000000000000000000000000000000000000099010000000000000001000075ce00000000000000000000000057558cb8d6005de0bae8a2789d5efaae52dba5a80000760600000000000000000000000057558cb8d6005de0bae8a2789d5efaae52dba5a809994a02de7484cf3b7e5810c0de5ebd0fec44e059b3dc36edb7877d9084332f000000000000000000000000741f0d8bde14140f62107fc60a0ee122b37d463000000000000f424000000000000000000000000000000000000000000000000000000000000000000000000000001600030100110100000000000000000000000000030d4000000000000000000000",
          "blockHash": "0xe87d402c6bb27abe53e69a21399c3dab80459069799f33b9b7c2ffe85502b1e0",
          "blockNumber": "0x1814fca",
          "transactionHash": "0x0f1c3b76cb518c2f65589ec56a269e9793e72c7fcc28fa44819bd2765a42a02f",
          "transactionIndex": "0x0",
          "logIndex": "0x8",
          "removed": false
        },
        {
          "address": "0x57558cb8d6005de0bae8a2789d5efaae52dba5a8",
          "topics": [
            "0x85496b760a4b7f8d66384b9df21b381f5d1b1e79f229a47aaf4c232edc2fe59a",
            "0x09994a02de7484cf3b7e5810c0de5ebd0fec44e059b3dc36edb7877d9084332f",
            "0x000000000000000000000000741f0d8bde14140f62107fc60a0ee122b37d4630"
          ],
          "data": "0x00000000000000000000000000000000000000000000000000000000000076060000000000000000000000000000000000000000000000000de0b6b3a76400000000000000000000000000000000000000000000000000000de0b6b3a7640000",
          "blockHash": "0xe87d402c6bb27abe53e69a21399c3dab80459069799f33b9b7c2ffe85502b1e0",
          "blockNumber": "0x1814fca",
          "transactionHash": "0x0f1c3b76cb518c2f65589ec56a269e9793e72c7fcc28fa44819bd2765a42a02f",
          "transactionIndex": "0x0",
          "logIndex": "0x9",
          "removed": false
        }
      ],
      "logsBloom": "0x0000001000000000000000000004004000000000000000000400000000100000000000000000000000000000000000040000010000000000000000000000000000000200000000000000000800000000000000000000000000000000000000100000088002000000800000000000080000000000001000002000001000000000008000000000000100000008000000000000000000000000000000000000000000000000a000001000100000000000000000000000400000000440000000000000000002000000000000000080000000000000000000000000000000000020000000040000000000000000200000002000000000018000000000000000000000",
      "type": "0x0",
      "transactionHash": "0x0f1c3b76cb518c2f65589ec56a269e9793e72c7fcc28fa44819bd2765a42a02f",
      "transactionIndex": "0x0",
      "blockHash": "0xe87d402c6bb27abe53e69a21399c3dab80459069799f33b9b7c2ffe85502b1e0",
      "blockNumber": "0x1814fca",
      "gasUsed": "0xa287b",
      "effectiveGasPrice": "0x989680",
      "from": "0x45dce8e4f2dc005a5f28206a46cb034697eeda8e",
      "to": "0x741f0d8bde14140f62107fc60a0ee122b37d4630",
      "contractAddress": null,
      "root": "0x0000000000000000000000000000000000000000000000000000000000000000"
    }
  ],
  "libraries": [],
  "pending": [],
  "returns": {},
  "timestamp": 1756883154046,
  "chain": 1101,
  "commit": "487ed68"
}