{
  "transactions": [
    {
      "hash": "0xe170e9310b6e0e35bfaf3d21e6a40fcc5a4313c5c7f837bf6af589d6d655fc72",
      "transactionType": "CALL",
      "contractName": null,
      "contractAddress": "0x741f0d8bde14140f62107fc60a0ee122b37d4630",
      "function": "batchBridgeWithEthFeeFromWallet((uint32,bytes32,uint256,uint256,bytes,bytes,bytes)[],address[],address[])",
      "arguments": [
        "[(30255, 0x000000000000000000000000741f0d8bde14140f62107fc60a0ee122b37d4630, 10000000000000, 0, 0x, 0x, 0x), (30255, 0x000000000000000000000000741f0d8bde14140f62107fc60a0ee122b37d4630, 10000000000000, 0, 0x, 0x, 0x), (30255, 0x000000000000000000000000741f0d8bde14140f62107fc60a0ee122b37d4630, 10000000000000, 0, 0x, 0x, 0x), (30255, 0x000000000000000000000000741f0d8bde14140f62107fc60a0ee122b37d4630, 10000000000000, 0, 0x, 0x, 0x), (30255, 0x000000000000000000000000741f0d8bde14140f62107fc60a0ee122b37d4630, 10000000000000, 0, 0x, 0x, 0x), (30255, 0x000000000000000000000000741f0d8bde14140f62107fc60a0ee122b37d4630, 10000000000000, 0, 0x, 0x, 0x)]",
        "[0x64445f0aecC51E94aD52d8AC56b7190e764E561a, 0x5Bff88cA1442c2496f7E475E9e7786383Bc070c0, 0x3Ec3849C33291a9eF4c5dB86De593EB4A37fDe45, 0x80Eede496655FB9047dd39d9f418d5483ED600df, 0x43eDD7f3831b08FE70B7555ddD373C8bF65a9050, 0x90581eCa9469D8D7F5D3B60f4715027aDFCf7927]",
        "[0x741F0d8Bde14140f62107FC60A0EE122B37D4630, 0x741F0d8Bde14140f62107FC60A0EE122B37D4630, 0x741F0d8Bde14140f62107FC60A0EE122B37D4630, 0x741F0d8Bde14140f62107FC60A0EE122B37D4630, 0x741F0d8Bde14140f62107FC60A0EE122B37D4630, 0x741F0d8Bde14140f62107FC60A0EE122B37D4630]"
      ],
      "transaction": {
        "from": "0x45dce8e4f2dc005a5f28206a46cb034697eeda8e",
        "to": "0x741f0d8bde14140f62107fc60a0ee122b37d4630",
        "gas": "0x235aa4",
        "value": "0x19fd5b52175c1072",
        "input": "0xb70d4241000000000000000000000000000000000000000000000000000000000000006000000000000000000000000000000000000000000000000000000000000008c000000000000000000000000000000000000000000000000000000000000009a0000000000000000000000000000000000000000000000000000000000000000600000000000000000000000000000000000000000000000000000000000000c000000000000000000000000000000000000000000000000000000000000002000000000000000000000000000000000000000000000000000000000000000340000000000000000000000000000000000000000000000000000000000000048000000000000000000000000000000000000000000000000000000000000005c00000000000000000000000000000000000000000000000000000000000000700000000000000000000000000000000000000000000000000000000000000762f000000000000000000000000741f0d8bde14140f62107fc60a0ee122b37d4630000000000000000000000000000000000000000000000000000009184e72a000000000000000000000000000000000000000000000000000000000000000000000000000000000000000000000000000000000000000000000000000000000e000000000000000000000000000000000000000000000000000000000000001000000000000000000000000000000000000000000000000000000000000000120000000000000000000000000000000000000000000000000000000000000000000000000000000000000000000000000000000000000000000000000000000000000000000000000000000000000000000000000000000000000000000000000000000000000000000000000000000000000000000000000000000000000762f000000000000000000000000741f0d8bde14140f62107fc60a0ee122b37d4630000000000000000000000000000000000000000000000000000009184e72a000000000000000000000000000000000000000000000000000000000000000000000000000000000000000000000000000000000000000000000000000000000e000000000000000000000000000000000000000000000000000000000000001000000000000000000000000000000000000000000000000000000000000000120000000000000000000000000000000000000000000000000000000000000000000000000000000000000000000000000000000000000000000000000000000000000000000000000000000000000000000000000000000000000000000000000000000000000000000000000000000000000000000000000000000000000762f000000000000000000000000741f0d8bde14140f62107fc60a0ee122b37d4630000000000000000000000000000000000000000000000000000009184e72a000000000000000000000000000000000000000000000000000000000000000000000000000000000000000000000000000000000000000000000000000000000e000000000000000000000000000000000000000000000000000000000000001000000000000000000000000000000000000000000000000000000000000000120000000000000000000000000000000000000000000000000000000000000000000000000000000000000000000000000000000000000000000000000000000000000000000000000000000000000000000000000000000000000000000000000000000000000000000000000000000000000000000000000000000000000762f000000000000000000000000741f0d8bde14140f62107fc60a0ee122b37d4630000000000000000000000000000000000000000000000000000009184e72a000000000000000000000000000000000000000000000000000000000000000000000000000000000000000000000000000000000000000000000000000000000e000000000000000000000000000000000000000000000000000000000000001000000000000000000000000000000000000000000000000000000000000000120000000000000000000000000000000000000000000000000000000000000000000000000000000000000000000000000000000000000000000000000000000000000000000000000000000000000000000000000000000000000000000000000000000000000000000000000000000000000000000000000000000000000762f000000000000000000000000741f0d8bde14140f62107fc60a0ee122b37d4630000000000000000000000000000000000000000000000000000009184e72a000000000000000000000000000000000000000000000000000000000000000000000000000000000000000000000000000000000000000000000000000000000e000000000000000000000000000000000000000000000000000000000000001000000000000000000000000000000000000000000000000000000000000000120000000000000000000000000000000000000000000000000000000000000000000000000000000000000000000000000000000000000000000000000000000000000000000000000000000000000000000000000000000000000000000000000000000000000000000000000000000000000000000000000000000000000762f000000000000000000000000741f0d8bde14140f62107fc60a0ee122b37d4630000000000000000000000000000000000000000000000000000009184e72a000000000000000000000000000000000000000000000000000000000000000000000000000000000000000000000000000000000000000000000000000000000e000000000000000000000000000000000000000000000000000000000000001000000000000000000000000000000000000000000000000000000000000000120000000000000000000000000000000000000000000000000000000000000000000000000000000000000000000000000000000000000000000000000000000000000000000000000000000000000000000000000000000000000000000000000000000000000000000000000000000000000000000000000000000000000000600000000000000000000000064445f0aecc51e94ad52d8ac56b7190e764e561a0000000000000000000000005bff88ca1442c2496f7e475e9e7786383bc070c00000000000000000000000003ec3849c33291a9ef4c5db86de593eb4a37fde4500000000000000000000000080eede496655fb9047dd39d9f418d5483ed600df00000000000000000000000043edd7f3831b08fe70b7555ddd373c8bf65a905000000000000000000000000090581eca9469d8d7f5d3b60f4715027adfcf79270000000000000000000000000000000000000000000000000000000000000006000000000000000000000000741f0d8bde14140f62107fc60a0ee122b37d4630000000000000000000000000741f0d8bde14140f62107fc60a0ee122b37d4630000000000000000000000000741f0d8bde14140f62107fc60a0ee122b37d4630000000000000000000000000741f0d8bde14140f62107fc60a0ee122b37d4630000000000000000000000000741f0d8bde14140f62107fc60a0ee122b37d4630000000000000000000000000741f0d8bde14140f62107fc60a0ee122b37d4630",
        "nonce": "0xd5",
        "chainId": "0x531"
      },
      "additionalContracts": [],
      "isFixedGasLimit": false
    }
  ],
  "receipts": [
    {
      "status": "0x1",
      "cumulativeGasUsed": "0x223a86",
      "logs": [
        {
          "address": "0x64445f0aecc51e94ad52d8ac56b7190e764e561a",
          "topics": [
            "0xddf252ad1be2c89b69c2b068fc378daa952ba7f163c4a11628f55a4df523b3ef",
            "0x000000000000000000000000741f0d8bde14140f62107fc60a0ee122b37d4630",
            "0x0000000000000000000000000000000000000000000000000000000000000000"
          ],
          "data": "0x000000000000000000000000000000000000000000000000000009184e72a000",
          "blockHash": "0x9bf14c73861cc385c6551a0d38673eb59047ff21425630744e7b6632c6bedf94",
          "blockNumber": "0xb98dd4d",
          "transactionHash": "0xe170e9310b6e0e35bfaf3d21e6a40fcc5a4313c5c7f837bf6af589d6d655fc72",
          "transactionIndex": "0x4",
          "logIndex": "0x12",
          "removed": false
        },
        {
          "address": "0xc39161c743d0307eb9bcc9fef03eeb9dc4802de7",
          "topics": [
            "0x61ed099e74a97a1d7f8bb0952a88ca8b7b8ebd00c126ea04671f92a81213318a"
          ],
          "data": "0x000000000000000000000000c097ab8cd7b053326dfe9fb3e3a31a0cce3b526f00000000000000000000000000000000000000000000000003b165ea4bb5e57f",
          "blockHash": "0x9bf14c73861cc385c6551a0d38673eb59047ff21425630744e7b6632c6bedf94",
          "blockNumber": "0xb98dd4d",
          "transactionHash": "0xe170e9310b6e0e35bfaf3d21e6a40fcc5a4313c5c7f837bf6af589d6d655fc72",
          "transactionIndex": "0x4",
          "logIndex": "0x13",
          "removed": false
        },
        {
          "address": "0xc39161c743d0307eb9bcc9fef03eeb9dc4802de7",
          "topics": [
            "0x07ea52d82345d6e838192107d8fd7123d9c2ec8e916cd0aad13fd2b60db24644"
          ],
          "data": "0x000000000000000000000000000000000000000000000000000000000000006000000000000000000000000000000000000000000000000000000000000000e0000000000000000000000000000000000000000000000000000000000000010000000000000000000000000000000000000000000000000000000000000000030000000000000000000000006788f52439aca6bff597d3eec2dc9a44b8fee84200000000000000000000000087048402c32632b7c4d0a892d82bc1160e8b2393000000000000000000000000e016f0f39fb7dcf14e9412d92f2049668d4d2612000000000000000000000000000000000000000000000000000000000000000000000000000000000000000000000000000000000000000000000000000000030000000000000000000000000000000000000000000000000031bf214362155e0000000000000000000000000000000000000000000000000031bf214362155e00000000000000000000000000000000000000000000000000400060dc1547d8",
          "blockHash": "0x9bf14c73861cc385c6551a0d38673eb59047ff21425630744e7b6632c6bedf94",
          "blockNumber": "0xb98dd4d",
          "transactionHash": "0xe170e9310b6e0e35bfaf3d21e6a40fcc5a4313c5c7f837bf6af589d6d655fc72",
          "transactionIndex": "0x4",
          "logIndex": "0x14",
          "removed": false
        },
        {
          "address": "0x1a44076050125825900e736c501f859c50fe728c",
          "topics": [
            "0x1ab700d4ced0c005b164c0f789fd09fcbb0156d4c2041b8a3bfbcd961cd1567f"
          ],
          "data": "0x00000000000000000000000000000000000000000000000000000000000000600000000000000000000000000000000000000000000000000000000000000120000000000000000000000000c39161c743d0307eb9bcc9fef03eeb9dc4802de700000000000000000000000000000000000000000000000000000000000000990100000000000001be0000764800000000000000000000000064445f0aecc51e94ad52d8ac56b7190e764e561a0000762f000000000000000000000000d86fbbd0c8715d2c1f40e451e5c3514e65e7576ad33509a340de987fcc44b5d0db7fbed33c96b16b9ac54e8d6124b59ec51194eb000000000000000000000000741f0d8bde14140f62107fc60a0ee122b37d4630000000000000000a00000000000000000000000000000000000000000000000000000000000000000000000000001600030100110100000000000000000000000000030d4000000000000000000000",
          "blockHash": "0x9bf14c73861cc385c6551a0d38673eb59047ff21425630744e7b6632c6bedf94",
          "blockNumber": "0xb98dd4d",
          "transactionHash": "0xe170e9310b6e0e35bfaf3d21e6a40fcc5a4313c5c7f837bf6af589d6d655fc72",
          "transactionIndex": "0x4",
          "logIndex": "0x15",
          "removed": false
        },
        {
          "address": "0x64445f0aecc51e94ad52d8ac56b7190e764e561a",
          "topics": [
            "0x85496b760a4b7f8d66384b9df21b381f5d1b1e79f229a47aaf4c232edc2fe59a",
            "0xd33509a340de987fcc44b5d0db7fbed33c96b16b9ac54e8d6124b59ec51194eb",
            "0x000000000000000000000000741f0d8bde14140f62107fc60a0ee122b37d4630"
          ],
          "data": "0x000000000000000000000000000000000000000000000000000000000000762f000000000000000000000000000000000000000000000000000009184e72a000000000000000000000000000000000000000000000000000000009184e72a000",
          "blockHash": "0x9bf14c73861cc385c6551a0d38673eb59047ff21425630744e7b6632c6bedf94",
          "blockNumber": "0xb98dd4d",
          "transactionHash": "0xe170e9310b6e0e35bfaf3d21e6a40fcc5a4313c5c7f837bf6af589d6d655fc72",
          "transactionIndex": "0x4",
          "logIndex": "0x16",
          "removed": false
        },
        {
          "address": "0x5bff88ca1442c2496f7e475e9e7786383bc070c0",
          "topics": [
            "0xddf252ad1be2c89b69c2b068fc378daa952ba7f163c4a11628f55a4df523b3ef",
            "0x000000000000000000000000741f0d8bde14140f62107fc60a0ee122b37d4630",
            "0x0000000000000000000000000000000000000000000000000000000000000000"
          ],
          "data": "0x000000000000000000000000000000000000000000000000000009184e72a000",
          "blockHash": "0x9bf14c73861cc385c6551a0d38673eb59047ff21425630744e7b6632c6bedf94",
          "blockNumber": "0xb98dd4d",
          "transactionHash": "0xe170e9310b6e0e35bfaf3d21e6a40fcc5a4313c5c7f837bf6af589d6d655fc72",
          "transactionIndex": "0x4",
          "logIndex": "0x17",
          "removed": false
        },
        {
          "address": "0xc39161c743d0307eb9bcc9fef03eeb9dc4802de7",
          "topics": [
            "0x61ed099e74a97a1d7f8bb0952a88ca8b7b8ebd00c126ea04671f92a81213318a"
          ],
          "data": "0x000000000000000000000000c097ab8cd7b053326dfe9fb3e3a31a0cce3b526f00000000000000000000000000000000000000000000000003b165ea4bb5e57f",
          "blockHash": "0x9bf14c73861cc385c6551a0d38673eb59047ff21425630744e7b6632c6bedf94",
          "blockNumber": "0xb98dd4d",
          "transactionHash": "0xe170e9310b6e0e35bfaf3d21e6a40fcc5a4313c5c7f837bf6af589d6d655fc72",
          "transactionIndex": "0x4",
          "logIndex": "0x18",
          "removed": false
        },
        {
          "address": "0xc39161c743d0307eb9bcc9fef03eeb9dc4802de7",
          "topics": [
            "0x07ea52d82345d6e838192107d8fd7123d9c2ec8e916cd0aad13fd2b60db24644"
          ],
          "data": "0x000000000000000000000000000000000000000000000000000000000000006000000000000000000000000000000000000000000000000000000000000000e0000000000000000000000000000000000000000000000000000000000000010000000000000000000000000000000000000000000000000000000000000000030000000000000000000000006788f52439aca6bff597d3eec2dc9a44b8fee84200000000000000000000000087048402c32632b7c4d0a892d82bc1160e8b2393000000000000000000000000e016f0f39fb7dcf14e9412d92f2049668d4d2612000000000000000000000000000000000000000000000000000000000000000000000000000000000000000000000000000000000000000000000000000000030000000000000000000000000000000000000000000000000031bf214362155e0000000000000000000000000000000000000000000000000031bf214362155e00000000000000000000000000000000000000000000000000400060dc1547d8",
          "blockHash": "0x9bf14c73861cc385c6551a0d38673eb59047ff21425630744e7b6632c6bedf94",
          "blockNumber": "0xb98dd4d",
          "transactionHash": "0xe170e9310b6e0e35bfaf3d21e6a40fcc5a4313c5c7f837bf6af589d6d655fc72",
          "transactionIndex": "0x4",
          "logIndex": "0x19",
          "removed": false
        },
        {
          "address": "0x1a44076050125825900e736c501f859c50fe728c",
          "topics": [
            "0x1ab700d4ced0c005b164c0f789fd09fcbb0156d4c2041b8a3bfbcd961cd1567f"
          ],
          "data": "0x00000000000000000000000000000000000000000000000000000000000000600000000000000000000000000000000000000000000000000000000000000120000000000000000000000000c39161c743d0307eb9bcc9fef03eeb9dc4802de70000000000000000000000000000000000000000000000000000000000000099010000000000000111000076480000000000000000000000005bff88ca1442c2496f7e475e9e7786383bc070c00000762f00000000000000000000000088aa7854d3b2daa5e37e7ce73a1f39669623a36131400640c0e6d26a1dd1c2175a00e0f40266635034c5a78c63de227d064e5e32000000000000000000000000741f0d8bde14140f62107fc60a0ee122b37d4630000000000000000a00000000000000000000000000000000000000000000000000000000000000000000000000001600030100110100000000000000000000000000030d4000000000000000000000",
          "blockHash": "0x9bf14c73861cc385c6551a0d38673eb59047ff21425630744e7b6632c6bedf94",
          "blockNumber": "0xb98dd4d",
          "transactionHash": "0xe170e9310b6e0e35bfaf3d21e6a40fcc5a4313c5c7f837bf6af589d6d655fc72",
          "transactionIndex": "0x4",
          "logIndex": "0x1a",
          "removed": false
        },
        {
          "address": "0x5bff88ca1442c2496f7e475e9e7786383bc070c0",
          "topics": [
            "0x85496b760a4b7f8d66384b9df21b381f5d1b1e79f229a47aaf4c232edc2fe59a",
            "0x31400640c0e6d26a1dd1c2175a00e0f40266635034c5a78c63de227d064e5e32",
            "0x000000000000000000000000741f0d8bde14140f62107fc60a0ee122b37d4630"
          ],
          "data": "0x000000000000000000000000000000000000000000000000000000000000762f000000000000000000000000000000000000000000000000000009184e72a000000000000000000000000000000000000000000000000000000009184e72a000",
          "blockHash": "0x9bf14c73861cc385c6551a0d38673eb59047ff21425630744e7b6632c6bedf94",
          "blockNumber": "0xb98dd4d",
          "transactionHash": "0xe170e9310b6e0e35bfaf3d21e6a40fcc5a4313c5c7f837bf6af589d6d655fc72",
          "transactionIndex": "0x4",
          "logIndex": "0x1b",
          "removed": false
        },
        {
          "address": "0x3ec3849c33291a9ef4c5db86de593eb4a37fde45",
          "topics": [
            "0xddf252ad1be2c89b69c2b068fc378daa952ba7f163c4a11628f55a4df523b3ef",
            "0x000000000000000000000000741f0d8bde14140f62107fc60a0ee122b37d4630",
            "0x0000000000000000000000000000000000000000000000000000000000000000"
          ],
          "data": "0x000000000000000000000000000000000000000000000000000009184e72a000",
          "blockHash": "0x9bf14c73861cc385c6551a0d38673eb59047ff21425630744e7b6632c6bedf94",
          "blockNumber": "0xb98dd4d",
          "transactionHash": "0xe170e9310b6e0e35bfaf3d21e6a40fcc5a4313c5c7f837bf6af589d6d655fc72",
          "transactionIndex": "0x4",
          "logIndex": "0x1c",
          "removed": false
        },
        {
          "address": "0xc39161c743d0307eb9bcc9fef03eeb9dc4802de7",
          "topics": [
            "0x61ed099e74a97a1d7f8bb0952a88ca8b7b8ebd00c126ea04671f92a81213318a"
          ],
          "data": "0x000000000000000000000000c097ab8cd7b053326dfe9fb3e3a31a0cce3b526f00000000000000000000000000000000000000000000000003b165ea4bb5e57f",
          "blockHash": "0x9bf14c73861cc385c6551a0d38673eb59047ff21425630744e7b6632c6bedf94",
          "blockNumber": "0xb98dd4d",
          "transactionHash": "0xe170e9310b6e0e35bfaf3d21e6a40fcc5a4313c5c7f837bf6af589d6d655fc72",
          "transactionIndex": "0x4",
          "logIndex": "0x1d",
          "removed": false
        },
        {
          "address": "0xc39161c743d0307eb9bcc9fef03eeb9dc4802de7",
          "topics": [
            "0x07ea52d82345d6e838192107d8fd7123d9c2ec8e916cd0aad13fd2b60db24644"
          ],
          "data": "0x000000000000000000000000000000000000000000000000000000000000006000000000000000000000000000000000000000000000000000000000000000e0000000000000000000000000000000000000000000000000000000000000010000000000000000000000000000000000000000000000000000000000000000030000000000000000000000006788f52439aca6bff597d3eec2dc9a44b8fee84200000000000000000000000087048402c32632b7c4d0a892d82bc1160e8b2393000000000000000000000000e016f0f39fb7dcf14e9412d92f2049668d4d2612000000000000000000000000000000000000000000000000000000000000000000000000000000000000000000000000000000000000000000000000000000030000000000000000000000000000000000000000000000000031bf214362155e0000000000000000000000000000000000000000000000000031bf214362155e00000000000000000000000000000000000000000000000000400060dc1547d8",
          "blockHash": "0x9bf14c73861cc385c6551a0d38673eb59047ff21425630744e7b6632c6bedf94",
          "blockNumber": "0xb98dd4d",
          "transactionHash": "0xe170e9310b6e0e35bfaf3d21e6a40fcc5a4313c5c7f837bf6af589d6d655fc72",
          "transactionIndex": "0x4",
          "logIndex": "0x1e",
          "removed": false
        },
        {
          "address": "0x1a44076050125825900e736c501f859c50fe728c",
          "topics": [
            "0x1ab700d4ced0c005b164c0f789fd09fcbb0156d4c2041b8a3bfbcd961cd1567f"
          ],
          "data": "0x00000000000000000000000000000000000000000000000000000000000000600000000000000000000000000000000000000000000000000000000000000120000000000000000000000000c39161c743d0307eb9bcc9fef03eeb9dc4802de70000000000000000000000000000000000000000000000000000000000000099010000000000000038000076480000000000000000000000003ec3849c33291a9ef4c5db86de593eb4a37fde450000762f000000000000000000000000999dfabe3b1cc2ef66eb032eea42fea329bba1685b5eddca31a96ff9a7bf9c746be8e707f268f8ee67be6bc88013bff929889c43000000000000000000000000741f0d8bde14140f62107fc60a0ee122b37d4630000000000000000a00000000000000000000000000000000000000000000000000000000000000000000000000001600030100110100000000000000000000000000030d4000000000000000000000",
          "blockHash": "0x9bf14c73861cc385c6551a0d38673eb59047ff21425630744e7b6632c6bedf94",
          "blockNumber": "0xb98dd4d",
          "transactionHash": "0xe170e9310b6e0e35bfaf3d21e6a40fcc5a4313c5c7f837bf6af589d6d655fc72",
          "transactionIndex": "0x4",
          "logIndex": "0x1f",
          "removed": false
        },
        {
          "address": "0x3ec3849c33291a9ef4c5db86de593eb4a37fde45",
          "topics": [
            "0x85496b760a4b7f8d66384b9df21b381f5d1b1e79f229a47aaf4c232edc2fe59a",
            "0x5b5eddca31a96ff9a7bf9c746be8e707f268f8ee67be6bc88013bff929889c43",
            "0x000000000000000000000000741f0d8bde14140f62107fc60a0ee122b37d4630"
          ],
          "data": "0x000000000000000000000000000000000000000000000000000000000000762f000000000000000000000000000000000000000000000000000009184e72a000000000000000000000000000000000000000000000000000000009184e72a000",
          "blockHash": "0x9bf14c73861cc385c6551a0d38673eb59047ff21425630744e7b6632c6bedf94",
          "blockNumber": "0xb98dd4d",
          "transactionHash": "0xe170e9310b6e0e35bfaf3d21e6a40fcc5a4313c5c7f837bf6af589d6d655fc72",
          "transactionIndex": "0x4",
          "logIndex": "0x20",
          "removed": false
        },
        {
          "address": "0x80eede496655fb9047dd39d9f418d5483ed600df",
          "topics": [
            "0xddf252ad1be2c89b69c2b068fc378daa952ba7f163c4a11628f55a4df523b3ef",
            "0x000000000000000000000000741f0d8bde14140f62107fc60a0ee122b37d4630",
            "0x0000000000000000000000000000000000000000000000000000000000000000"
          ],
          "data": "0x000000000000000000000000000000000000000000000000000009184e72a000",
          "blockHash": "0x9bf14c73861cc385c6551a0d38673eb59047ff21425630744e7b6632c6bedf94",
          "blockNumber": "0xb98dd4d",
          "transactionHash": "0xe170e9310b6e0e35bfaf3d21e6a40fcc5a4313c5c7f837bf6af589d6d655fc72",
          "transactionIndex": "0x4",
          "logIndex": "0x21",
          "removed": false
        },
        {
          "address": "0xc39161c743d0307eb9bcc9fef03eeb9dc4802de7",
          "topics": [
            "0x61ed099e74a97a1d7f8bb0952a88ca8b7b8ebd00c126ea04671f92a81213318a"
          ],
          "data": "0x000000000000000000000000c097ab8cd7b053326dfe9fb3e3a31a0cce3b526f00000000000000000000000000000000000000000000000003b165ea4bb5e57f",
          "blockHash": "0x9bf14c73861cc385c6551a0d38673eb59047ff21425630744e7b6632c6bedf94",
          "blockNumber": "0xb98dd4d",
          "transactionHash": "0xe170e9310b6e0e35bfaf3d21e6a40fcc5a4313c5c7f837bf6af589d6d655fc72",
          "transactionIndex": "0x4",
          "logIndex": "0x22",
          "removed": false
        },
        {
          "address": "0xc39161c743d0307eb9bcc9fef03eeb9dc4802de7",
          "topics": [
            "0x07ea52d82345d6e838192107d8fd7123d9c2ec8e916cd0aad13fd2b60db24644"
          ],
          "data": "0x000000000000000000000000000000000000000000000000000000000000006000000000000000000000000000000000000000000000000000000000000000e0000000000000000000000000000000000000000000000000000000000000010000000000000000000000000000000000000000000000000000000000000000030000000000000000000000006788f52439aca6bff597d3eec2dc9a44b8fee84200000000000000000000000087048402c32632b7c4d0a892d82bc1160e8b2393000000000000000000000000e016f0f39fb7dcf14e9412d92f2049668d4d2612000000000000000000000000000000000000000000000000000000000000000000000000000000000000000000000000000000000000000000000000000000030000000000000000000000000000000000000000000000000031bf214362155e0000000000000000000000000000000000000000000000000031bf214362155e00000000000000000000000000000000000000000000000000400060dc1547d8",
          "blockHash": "0x9bf14c73861cc385c6551a0d38673eb59047ff21425630744e7b6632c6bedf94",
          "blockNumber": "0xb98dd4d",
          "transactionHash": "0xe170e9310b6e0e35bfaf3d21e6a40fcc5a4313c5c7f837bf6af589d6d655fc72",
          "transactionIndex": "0x4",
          "logIndex": "0x23",
          "removed": false
        },
        {
          "address": "0x1a44076050125825900e736c501f859c50fe728c",
          "topics": [
            "0x1ab700d4ced0c005b164c0f789fd09fcbb0156d4c2041b8a3bfbcd961cd1567f"
          ],
          "data": "0x00000000000000000000000000000000000000000000000000000000000000600000000000000000000000000000000000000000000000000000000000000120000000000000000000000000c39161c743d0307eb9bcc9fef03eeb9dc4802de700000000000000000000000000000000000000000000000000000000000000990100000000000001800000764800000000000000000000000080eede496655fb9047dd39d9f418d5483ed600df0000762f00000000000000000000000096a394058e2b84a89bac9667b19661ed003cf5d4d28b04b3dc79d69042b9900ae2bd3452253407d8a64eff76acc18de7b91e20fb000000000000000000000000741f0d8bde14140f62107fc60a0ee122b37d4630000000000000000a00000000000000000000000000000000000000000000000000000000000000000000000000001600030100110100000000000000000000000000030d4000000000000000000000",
          "blockHash": "0x9bf14c73861cc385c6551a0d38673eb59047ff21425630744e7b6632c6bedf94",
          "blockNumber": "0xb98dd4d",
          "transactionHash": "0xe170e9310b6e0e35bfaf3d21e6a40fcc5a4313c5c7f837bf6af589d6d655fc72",
          "transactionIndex": "0x4",
          "logIndex": "0x24",
          "removed": false
        },
        {
          "address": "0x80eede496655fb9047dd39d9f418d5483ed600df",
          "topics": [
            "0x85496b760a4b7f8d66384b9df21b381f5d1b1e79f229a47aaf4c232edc2fe59a",
            "0xd28b04b3dc79d69042b9900ae2bd3452253407d8a64eff76acc18de7b91e20fb",
            "0x000000000000000000000000741f0d8bde14140f62107fc60a0ee122b37d4630"
          ],
          "data": "0x000000000000000000000000000000000000000000000000000000000000762f000000000000000000000000000000000000000000000000000009184e72a000000000000000000000000000000000000000000000000000000009184e72a000",
          "blockHash": "0x9bf14c73861cc385c6551a0d38673eb59047ff21425630744e7b6632c6bedf94",
          "blockNumber": "0xb98dd4d",
          "transactionHash": "0xe170e9310b6e0e35bfaf3d21e6a40fcc5a4313c5c7f837bf6af589d6d655fc72",
          "transactionIndex": "0x4",
          "logIndex": "0x25",
          "removed": false
        },
        {
          "address": "0x43edd7f3831b08fe70b7555ddd373c8bf65a9050",
          "topics": [
            "0xddf252ad1be2c89b69c2b068fc378daa952ba7f163c4a11628f55a4df523b3ef",
            "0x000000000000000000000000741f0d8bde14140f62107fc60a0ee122b37d4630",
            "0x0000000000000000000000000000000000000000000000000000000000000000"
          ],
          "data": "0x000000000000000000000000000000000000000000000000000009184e72a000",
          "blockHash": "0x9bf14c73861cc385c6551a0d38673eb59047ff21425630744e7b6632c6bedf94",
          "blockNumber": "0xb98dd4d",
          "transactionHash": "0xe170e9310b6e0e35bfaf3d21e6a40fcc5a4313c5c7f837bf6af589d6d655fc72",
          "transactionIndex": "0x4",
          "logIndex": "0x26",
          "removed": false
        },
        {
          "address": "0xc39161c743d0307eb9bcc9fef03eeb9dc4802de7",
          "topics": [
            "0x61ed099e74a97a1d7f8bb0952a88ca8b7b8ebd00c126ea04671f92a81213318a"
          ],
          "data": "0x000000000000000000000000c097ab8cd7b053326dfe9fb3e3a31a0cce3b526f00000000000000000000000000000000000000000000000003b165ea4bb5e57f",
          "blockHash": "0x9bf14c73861cc385c6551a0d38673eb59047ff21425630744e7b6632c6bedf94",
          "blockNumber": "0xb98dd4d",
          "transactionHash": "0xe170e9310b6e0e35bfaf3d21e6a40fcc5a4313c5c7f837bf6af589d6d655fc72",
          "transactionIndex": "0x4",
          "logIndex": "0x27",
          "removed": false
        },
        {
          "address": "0xc39161c743d0307eb9bcc9fef03eeb9dc4802de7",
          "topics": [
            "0x07ea52d82345d6e838192107d8fd7123d9c2ec8e916cd0aad13fd2b60db24644"
          ],
          "data": "0x000000000000000000000000000000000000000000000000000000000000006000000000000000000000000000000000000000000000000000000000000000e0000000000000000000000000000000000000000000000000000000000000010000000000000000000000000000000000000000000000000000000000000000030000000000000000000000006788f52439aca6bff597d3eec2dc9a44b8fee84200000000000000000000000087048402c32632b7c4d0a892d82bc1160e8b2393000000000000000000000000e016f0f39fb7dcf14e9412d92f2049668d4d2612000000000000000000000000000000000000000000000000000000000000000000000000000000000000000000000000000000000000000000000000000000030000000000000000000000000000000000000000000000000031bf214362155e0000000000000000000000000000000000000000000000000031bf214362155e00000000000000000000000000000000000000000000000000400060dc1547d8",
          "blockHash": "0x9bf14c73861cc385c6551a0d38673eb59047ff21425630744e7b6632c6bedf94",
          "blockNumber": "0xb98dd4d",
          "transactionHash": "0xe170e9310b6e0e35bfaf3d21e6a40fcc5a4313c5c7f837bf6af589d6d655fc72",
          "transactionIndex": "0x4",
          "logIndex": "0x28",
          "removed": false
        },
        {
          "address": "0x1a44076050125825900e736c501f859c50fe728c",
          "topics": [
            "0x1ab700d4ced0c005b164c0f789fd09fcbb0156d4c2041b8a3bfbcd961cd1567f"
          ],
          "data": "0x00000000000000000000000000000000000000000000000000000000000000600000000000000000000000000000000000000000000000000000000000000120000000000000000000000000c39161c743d0307eb9bcc9fef03eeb9dc4802de7000000000000000000000000000000000000000000000000000000000000009901000000000000003c0000764800000000000000000000000043edd7f3831b08fe70b7555ddd373c8bf65a90500000762f0000000000000000000000009abfe1f8a999b0011ecd6116649aee8d575f5604070de0bc85fbf400b66ccae964ef747e07fdfebaeaceeacb636fa4315621c8b3000000000000000000000000741f0d8bde14140f62107fc60a0ee122b37d4630000000000000000a00000000000000000000000000000000000000000000000000000000000000000000000000001600030100110100000000000000000000000000030d4000000000000000000000",
          "blockHash": "0x9bf14c73861cc385c6551a0d38673eb59047ff21425630744e7b6632c6bedf94",
          "blockNumber": "0xb98dd4d",
          "transactionHash": "0xe170e9310b6e0e35bfaf3d21e6a40fcc5a4313c5c7f837bf6af589d6d655fc72",
          "transactionIndex": "0x4",
          "logIndex": "0x29",
          "removed": false
        },
        {
          "address": "0x43edd7f3831b08fe70b7555ddd373c8bf65a9050",
          "topics": [
            "0x85496b760a4b7f8d66384b9df21b381f5d1b1e79f229a47aaf4c232edc2fe59a",
            "0x070de0bc85fbf400b66ccae964ef747e07fdfebaeaceeacb636fa4315621c8b3",
            "0x000000000000000000000000741f0d8bde14140f62107fc60a0ee122b37d4630"
          ],
          "data": "0x000000000000000000000000000000000000000000000000000000000000762f000000000000000000000000000000000000000000000000000009184e72a000000000000000000000000000000000000000000000000000000009184e72a000",
          "blockHash": "0x9bf14c73861cc385c6551a0d38673eb59047ff21425630744e7b6632c6bedf94",
          "blockNumber": "0xb98dd4d",
          "transactionHash": "0xe170e9310b6e0e35bfaf3d21e6a40fcc5a4313c5c7f837bf6af589d6d655fc72",
          "transactionIndex": "0x4",
          "logIndex": "0x2a",
          "removed": false
        },
        {
          "address": "0x90581eca9469d8d7f5d3b60f4715027adfcf7927",
          "topics": [
            "0xddf252ad1be2c89b69c2b068fc378daa952ba7f163c4a11628f55a4df523b3ef",
            "0x000000000000000000000000741f0d8bde14140f62107fc60a0ee122b37d4630",
            "0x0000000000000000000000000000000000000000000000000000000000000000"
          ],
          "data": "0x000000000000000000000000000000000000000000000000000009184e72a000",
          "blockHash": "0x9bf14c73861cc385c6551a0d38673eb59047ff21425630744e7b6632c6bedf94",
          "blockNumber": "0xb98dd4d",
          "transactionHash": "0xe170e9310b6e0e35bfaf3d21e6a40fcc5a4313c5c7f837bf6af589d6d655fc72",
          "transactionIndex": "0x4",
          "logIndex": "0x2b",
          "removed": false
        },
        {
          "address": "0xc39161c743d0307eb9bcc9fef03eeb9dc4802de7",
          "topics": [
            "0x61ed099e74a97a1d7f8bb0952a88ca8b7b8ebd00c126ea04671f92a81213318a"
          ],
          "data": "0x000000000000000000000000c097ab8cd7b053326dfe9fb3e3a31a0cce3b526f00000000000000000000000000000000000000000000000003b165ea4bb5e57f",
          "blockHash": "0x9bf14c73861cc385c6551a0d38673eb59047ff21425630744e7b6632c6bedf94",
          "blockNumber": "0xb98dd4d",
          "transactionHash": "0xe170e9310b6e0e35bfaf3d21e6a40fcc5a4313c5c7f837bf6af589d6d655fc72",
          "transactionIndex": "0x4",
          "logIndex": "0x2c",
          "removed": false
        },
        {
          "address": "0xc39161c743d0307eb9bcc9fef03eeb9dc4802de7",
          "topics": [
            "0x07ea52d82345d6e838192107d8fd7123d9c2ec8e916cd0aad13fd2b60db24644"
          ],
          "data": "0x000000000000000000000000000000000000000000000000000000000000006000000000000000000000000000000000000000000000000000000000000000e0000000000000000000000000000000000000000000000000000000000000010000000000000000000000000000000000000000000000000000000000000000030000000000000000000000006788f52439aca6bff597d3eec2dc9a44b8fee84200000000000000000000000087048402c32632b7c4d0a892d82bc1160e8b2393000000000000000000000000e016f0f39fb7dcf14e9412d92f2049668d4d2612000000000000000000000000000000000000000000000000000000000000000000000000000000000000000000000000000000000000000000000000000000030000000000000000000000000000000000000000000000000031bf214362155e0000000000000000000000000000000000000000000000000031bf214362155e00000000000000000000000000000000000000000000000000400060dc1547d8",
          "blockHash": "0x9bf14c73861cc385c6551a0d38673eb59047ff21425630744e7b6632c6bedf94",
          "blockNumber": "0xb98dd4d",
          "transactionHash": "0xe170e9310b6e0e35bfaf3d21e6a40fcc5a4313c5c7f837bf6af589d6d655fc72",
          "transactionIndex": "0x4",
          "logIndex": "0x2d",
          "removed": false
        },
        {
          "address": "0x1a44076050125825900e736c501f859c50fe728c",
          "topics": [
            "0x1ab700d4ced0c005b164c0f789fd09fcbb0156d4c2041b8a3bfbcd961cd1567f"
          ],
          "data": "0x00000000000000000000000000000000000000000000000000000000000000600000000000000000000000000000000000000000000000000000000000000120000000000000000000000000c39161c743d0307eb9bcc9fef03eeb9dc4802de700000000000000000000000000000000000000000000000000000000000000990100000000000000020000764800000000000000000000000090581eca9469d8d7f5d3b60f4715027adfcf79270000762f00000000000000000000000075c38d46001b0f8108c4136216bd2694982c20fc5c9316d98f529dc6ea8929af6c445ccc53085a7e83daac469100e01d101fa25c000000000000000000000000741f0d8bde14140f62107fc60a0ee122b37d4630000000000000000a00000000000000000000000000000000000000000000000000000000000000000000000000001600030100110100000000000000000000000000030d4000000000000000000000",
          "blockHash": "0x9bf14c73861cc385c6551a0d38673eb59047ff21425630744e7b6632c6bedf94",
          "blockNumber": "0xb98dd4d",
          "transactionHash": "0xe170e9310b6e0e35bfaf3d21e6a40fcc5a4313c5c7f837bf6af589d6d655fc72",
          "transactionIndex": "0x4",
          "logIndex": "0x2e",
          "removed": false
        },
        {
          "address": "0x90581eca9469d8d7f5d3b60f4715027adfcf7927",
          "topics": [
            "0x85496b760a4b7f8d66384b9df21b381f5d1b1e79f229a47aaf4c232edc2fe59a",
            "0x5c9316d98f529dc6ea8929af6c445ccc53085a7e83daac469100e01d101fa25c",
            "0x000000000000000000000000741f0d8bde14140f62107fc60a0ee122b37d4630"
          ],
          "data": "0x000000000000000000000000000000000000000000000000000000000000762f000000000000000000000000000000000000000000000000000009184e72a000000000000000000000000000000000000000000000000000000009184e72a000",
          "blockHash": "0x9bf14c73861cc385c6551a0d38673eb59047ff21425630744e7b6632c6bedf94",
          "blockNumber": "0xb98dd4d",
          "transactionHash": "0xe170e9310b6e0e35bfaf3d21e6a40fcc5a4313c5c7f837bf6af589d6d655fc72",
          "transactionIndex": "0x4",
          "logIndex": "0x2f",
          "removed": false
        }
      ],
      "logsBloom": "0x0010000000000000000000000000204000000000000000000000000000100000000002000000000001020000080000000000010000000000000000020000000000200a000000001000000008000000000000000000000000000000000000000000000000020000048020000000000800000000000010000000000010010000800800000000900004000010080000000000040000000020000040000000000000000000008000001002100008000000000000000000400004080440000010000000000002800000000000000080000000000400800000000000000000000020000000042010000000000000040000002081400008018000000000000000080800",
      "type": "0x2",
      "transactionHash": "0xe170e9310b6e0e35bfaf3d21e6a40fcc5a4313c5c7f837bf6af589d6d655fc72",
      "transactionIndex": "0x4",
      "blockHash": "0x9bf14c73861cc385c6551a0d38673eb59047ff21425630744e7b6632c6bedf94",
      "blockNumber": "0xb98dd4d",
      "gasUsed": "0x199880",
      "effectiveGasPrice": "0x2902ee693",
      "from": "0x45dce8e4f2dc005a5f28206a46cb034697eeda8e",
      "to": "0x741f0d8bde14140f62107fc60a0ee122b37d4630",
      "contractAddress": null
    }
  ],
  "libraries": [],
  "pending": [],
  "returns": {},
  "timestamp": 1771464637910,
  "chain": 1329,
  "commit": "f037d85"
}