{
  "transactions": [
    {
      "hash": "0xa7eb247d9c518e1663ef7a4164daa0452793956075eac103759006fe154b8bd6",
      "transactionType": "CALL",
      "contractName": null,
      "contractAddress": "0x741f0d8bde14140f62107fc60a0ee122b37d4630",
      "function": "batchBridgeWithEthFeeFromWallet((uint32,bytes32,uint256,uint256,bytes,bytes,bytes)[],address[],address[])",
      "arguments": [
        "[(30255, 0x000000000000000000000000741f0d8bde14140f62107fc60a0ee122b37d4630, 1000000000000000000, 0, 0x, 0x, 0x), (30255, 0x000000000000000000000000741f0d8bde14140f62107fc60a0ee122b37d4630, 1000000000000000000, 0, 0x, 0x, 0x), (30255, 0x000000000000000000000000741f0d8bde14140f62107fc60a0ee122b37d4630, 1000000000000000000, 0, 0x, 0x, 0x), (30255, 0x000000000000000000000000741f0d8bde14140f62107fc60a0ee122b37d4630, 1000000000000000000, 0, 0x, 0x, 0x), (30255, 0x000000000000000000000000741f0d8bde14140f62107fc60a0ee122b37d4630, 1000000000000000000, 0, 0x, 0x, 0x), (30255, 0x000000000000000000000000741f0d8bde14140f62107fc60a0ee122b37d4630, 1000000000000000000, 0, 0x, 0x, 0x)]",
        "[0x65C042454005de49106a6B0129F4Af56939457da, 0xE1851f6ac161d1911104b19918FB866eF6FEE577, 0xb7583B07C12286bb9026A7053B0C44e8f5fa8624, 0xA444F92734be29E71b8A4762595C9733Ab2C9c47, 0xa5C2889F0E3DA388DF3BF87f8f0B8E56bB863C41, 0xC6563942D1AE02Dd6e450847de3753011cA3eee1]",
        "[0x741F0d8Bde14140f62107FC60A0EE122B37D4630, 0x741F0d8Bde14140f62107FC60A0EE122B37D4630, 0x741F0d8Bde14140f62107FC60A0EE122B37D4630, 0x741F0d8Bde14140f62107FC60A0EE122B37D4630, 0x741F0d8Bde14140f62107FC60A0EE122B37D4630, 0x741F0d8Bde14140f62107FC60A0EE122B37D4630]"
      ],
      "transaction": {
        "from": "0x45dce8e4f2dc005a5f28206a46cb034697eeda8e",
        "to": "0x741f0d8bde14140f62107fc60a0ee122b37d4630",
        "gas": "0x269d0a",
        "value": "0x1d9db357a2f5a4",
        "input": "0xb70d4241000000000000000000000000000000000000000000000000000000000000006000000000000000000000000000000000000000000000000000000000000008c000000000000000000000000000000000000000000000000000000000000009a0000000000000000000000000000000000000000000000000000000000000000600000000000000000000000000000000000000000000000000000000000000c000000000000000000000000000000000000000000000000000000000000002000000000000000000000000000000000000000000000000000000000000000340000000000000000000000000000000000000000000000000000000000000048000000000000000000000000000000000000000000000000000000000000005c00000000000000000000000000000000000000000000000000000000000000700000000000000000000000000000000000000000000000000000000000000762f000000000000000000000000741f0d8bde14140f62107fc60a0ee122b37d46300000000000000000000000000000000000000000000000000de0b6b3a7640000000000000000000000000000000000000000000000000000000000000000000000000000000000000000000000000000000000000000000000000000000000e000000000000000000000000000000000000000000000000000000000000001000000000000000000000000000000000000000000000000000000000000000120000000000000000000000000000000000000000000000000000000000000000000000000000000000000000000000000000000000000000000000000000000000000000000000000000000000000000000000000000000000000000000000000000000000000000000000000000000000000000000000000000000000000762f000000000000000000000000741f0d8bde14140f62107fc60a0ee122b37d46300000000000000000000000000000000000000000000000000de0b6b3a7640000000000000000000000000000000000000000000000000000000000000000000000000000000000000000000000000000000000000000000000000000000000e000000000000000000000000000000000000000000000000000000000000001000000000000000000000000000000000000000000000000000000000000000120000000000000000000000000000000000000000000000000000000000000000000000000000000000000000000000000000000000000000000000000000000000000000000000000000000000000000000000000000000000000000000000000000000000000000000000000000000000000000000000000000000000000762f000000000000000000000000741f0d8bde14140f62107fc60a0ee122b37d46300000000000000000000000000000000000000000000000000de0b6b3a7640000000000000000000000000000000000000000000000000000000000000000000000000000000000000000000000000000000000000000000000000000000000e000000000000000000000000000000000000000000000000000000000000001000000000000000000000000000000000000000000000000000000000000000120000000000000000000000000000000000000000000000000000000000000000000000000000000000000000000000000000000000000000000000000000000000000000000000000000000000000000000000000000000000000000000000000000000000000000000000000000000000000000000000000000000000000762f000000000000000000000000741f0d8bde14140f62107fc60a0ee122b37d46300000000000000000000000000000000000000000000000000de0b6b3a7640000000000000000000000000000000000000000000000000000000000000000000000000000000000000000000000000000000000000000000000000000000000e000000000000000000000000000000000000000000000000000000000000001000000000000000000000000000000000000000000000000000000000000000120000000000000000000000000000000000000000000000000000000000000000000000000000000000000000000000000000000000000000000000000000000000000000000000000000000000000000000000000000000000000000000000000000000000000000000000000000000000000000000000000000000000000762f000000000000000000000000741f0d8bde14140f62107fc60a0ee122b37d46300000000000000000000000000000000000000000000000000de0b6b3a7640000000000000000000000000000000000000000000000000000000000000000000000000000000000000000000000000000000000000000000000000000000000e000000000000000000000000000000000000000000000000000000000000001000000000000000000000000000000000000000000000000000000000000000120000000000000000000000000000000000000000000000000000000000000000000000000000000000000000000000000000000000000000000000000000000000000000000000000000000000000000000000000000000000000000000000000000000000000000000000000000000000000000000000000000000000000762f000000000000000000000000741f0d8bde14140f62107fc60a0ee122b37d46300000000000000000000000000000000000000000000000000de0b6b3a7640000000000000000000000000000000000000000000000000000000000000000000000000000000000000000000000000000000000000000000000000000000000e000000000000000000000000000000000000000000000000000000000000001000000000000000000000000000000000000000000000000000000000000000120000000000000000000000000000000000000000000000000000000000000000000000000000000000000000000000000000000000000000000000000000000000000000000000000000000000000000000000000000000000000000000000000000000000000000000000000000000000000000000000000000000000000000600000000000000000000000065c042454005de49106a6b0129f4af56939457da000000000000000000000000e1851f6ac161d1911104b19918fb866ef6fee577000000000000000000000000b7583b07c12286bb9026a7053b0c44e8f5fa8624000000000000000000000000a444f92734be29e71b8a4762595c9733ab2c9c47000000000000000000000000a5c2889f0e3da388df3bf87f8f0b8e56bb863c41000000000000000000000000c6563942d1ae02dd6e450847de3753011ca3eee10000000000000000000000000000000000000000000000000000000000000006000000000000000000000000741f0d8bde14140f62107fc60a0ee122b37d4630000000000000000000000000741f0d8bde14140f62107fc60a0ee122b37d4630000000000000000000000000741f0d8bde14140f62107fc60a0ee122b37d4630000000000000000000000000741f0d8bde14140f62107fc60a0ee122b37d4630000000000000000000000000741f0d8bde14140f62107fc60a0ee122b37d4630000000000000000000000000741f0d8bde14140f62107fc60a0ee122b37d4630",
        "nonce": "0x9",
        "chainId": "0x3e7"
      },
      "additionalContracts": [],
      "isFixedGasLimit": false
    }
  ],
  "receipts": [
    {
      "status": "0x1",
      "cumulativeGasUsed": "0x22ab6f",
      "logs": [
        {
          "address": "0x65c042454005de49106a6b0129f4af56939457da",
          "topics": [
            "0xddf252ad1be2c89b69c2b068fc378daa952ba7f163c4a11628f55a4df523b3ef",
            "0x000000000000000000000000741f0d8bde14140f62107fc60a0ee122b37d4630",
            "0x0000000000000000000000000000000000000000000000000000000000000000"
          ],
          "data": "0x0000000000000000000000000000000000000000000000000de0b6b3a7640000",
          "blockHash": "0x4f7fc2b4392410c7eef8bca59ecfb7ff480b29245e541a5664536dfc18f2ae01",
          "blockNumber": "0xd178a0",
          "blockTimestamp": "0x68c5386c",
          "transactionHash": "0xa7eb247d9c518e1663ef7a4164daa0452793956075eac103759006fe154b8bd6",
          "transactionIndex": "0x2",
          "logIndex": "0xd",
          "removed": false
        },
        {
          "address": "0xfd76d9cb0bac839725ab79127e7411fe71b1e3ca",
          "topics": [
            "0x61ed099e74a97a1d7f8bb0952a88ca8b7b8ebd00c126ea04671f92a81213318a"
          ],
          "data": "0x00000000000000000000000041bdb4aa4a63a5b2efc531858d3118392b1a1c3d00000000000000000000000000000000000000000000000000019384e575cf4a",
          "blockHash": "0x4f7fc2b4392410c7eef8bca59ecfb7ff480b29245e541a5664536dfc18f2ae01",
          "blockNumber": "0xd178a0",
          "blockTimestamp": "0x68c5386c",
          "transactionHash": "0xa7eb247d9c518e1663ef7a4164daa0452793956075eac103759006fe154b8bd6",
          "transactionIndex": "0x2",
          "logIndex": "0xe",
          "removed": false
        },
        {
          "address": "0xfd76d9cb0bac839725ab79127e7411fe71b1e3ca",
          "topics": [
            "0x07ea52d82345d6e838192107d8fd7123d9c2ec8e916cd0aad13fd2b60db24644"
          ],
          "data": "0x000000000000000000000000000000000000000000000000000000000000006000000000000000000000000000000000000000000000000000000000000000e000000000000000000000000000000000000000000000000000000000000001000000000000000000000000000000000000000000000000000000000000000003000000000000000000000000082a08f524c043ec7f6b9a42bae79a1990d8499a000000000000000000000000bb83ecf372cbb6daa629ea9a9a53bec6d601f229000000000000000000000000c097ab8cd7b053326dfe9fb3e3a31a0cce3b526f0000000000000000000000000000000000000000000000000000000000000000000000000000000000000000000000000000000000000000000000000000000300000000000000000000000000000000000000000000000000011eb2ff7e3a5400000000000000000000000000000000000000000000000000011eb2ff7e3a5400000000000000000000000000000000000000000000000000011eb2ff7e3a54",
          "blockHash": "0x4f7fc2b4392410c7eef8bca59ecfb7ff480b29245e541a5664536dfc18f2ae01",
          "blockNumber": "0xd178a0",
          "blockTimestamp": "0x68c5386c",
          "transactionHash": "0xa7eb247d9c518e1663ef7a4164daa0452793956075eac103759006fe154b8bd6",
          "transactionIndex": "0x2",
          "logIndex": "0xf",
          "removed": false
        },
        {
          "address": "0x3a73033c0b1407574c76bdbac67f126f6b4a9aa9",
          "topics": [
            "0x1ab700d4ced0c005b164c0f789fd09fcbb0156d4c2041b8a3bfbcd961cd1567f"
          ],
          "data": "0x00000000000000000000000000000000000000000000000000000000000000600000000000000000000000000000000000000000000000000000000000000120000000000000000000000000fd76d9cb0bac839725ab79127e7411fe71b1e3ca00000000000000000000000000000000000000000000000000000000000000990100000000000000010000769f00000000000000000000000065c042454005de49106a6b0129f4af56939457da0000762f000000000000000000000000bc54454844815ffd8229d1f617efa554d2d68f63a3a32ae74733fa36070adfde890c8b858cacbe29643f08d00e5d149ee28bce61000000000000000000000000741f0d8bde14140f62107fc60a0ee122b37d463000000000000f424000000000000000000000000000000000000000000000000000000000000000000000000000001600030100110100000000000000000000000000030d4000000000000000000000",
          "blockHash": "0x4f7fc2b4392410c7eef8bca59ecfb7ff480b29245e541a5664536dfc18f2ae01",
          "blockNumber": "0xd178a0",
          "blockTimestamp": "0x68c5386c",
          "transactionHash": "0xa7eb247d9c518e1663ef7a4164daa0452793956075eac103759006fe154b8bd6",
          "transactionIndex": "0x2",
          "logIndex": "0x10",
          "removed": false
        },
        {
          "address": "0x65c042454005de49106a6b0129f4af56939457da",
          "topics": [
            "0x85496b760a4b7f8d66384b9df21b381f5d1b1e79f229a47aaf4c232edc2fe59a",
            "0xa3a32ae74733fa36070adfde890c8b858cacbe29643f08d00e5d149ee28bce61",
            "0x000000000000000000000000741f0d8bde14140f62107fc60a0ee122b37d4630"
          ],
          "data": "0x000000000000000000000000000000000000000000000000000000000000762f0000000000000000000000000000000000000000000000000de0b6b3a76400000000000000000000000000000000000000000000000000000de0b6b3a7640000",
          "blockHash": "0x4f7fc2b4392410c7eef8bca59ecfb7ff480b29245e541a5664536dfc18f2ae01",
          "blockNumber": "0xd178a0",
          "blockTimestamp": "0x68c5386c",
          "transactionHash": "0xa7eb247d9c518e1663ef7a4164daa0452793956075eac103759006fe154b8bd6",
          "transactionIndex": "0x2",
          "logIndex": "0x11",
          "removed": false
        },
        {
          "address": "0xe1851f6ac161d1911104b19918fb866ef6fee577",
          "topics": [
            "0xddf252ad1be2c89b69c2b068fc378daa952ba7f163c4a11628f55a4df523b3ef",
            "0x000000000000000000000000741f0d8bde14140f62107fc60a0ee122b37d4630",
            "0x0000000000000000000000000000000000000000000000000000000000000000"
          ],
          "data": "0x0000000000000000000000000000000000000000000000000de0b6b3a7640000",
          "blockHash": "0x4f7fc2b4392410c7eef8bca59ecfb7ff480b29245e541a5664536dfc18f2ae01",
          "blockNumber": "0xd178a0",
          "blockTimestamp": "0x68c5386c",
          "transactionHash": "0xa7eb247d9c518e1663ef7a4164daa0452793956075eac103759006fe154b8bd6",
          "transactionIndex": "0x2",
          "logIndex": "0x12",
          "removed": false
        },
        {
          "address": "0xfd76d9cb0bac839725ab79127e7411fe71b1e3ca",
          "topics": [
            "0x61ed099e74a97a1d7f8bb0952a88ca8b7b8ebd00c126ea04671f92a81213318a"
          ],
          "data": "0x00000000000000000000000041bdb4aa4a63a5b2efc531858d3118392b1a1c3d00000000000000000000000000000000000000000000000000019384e575cf4a",
          "blockHash": "0x4f7fc2b4392410c7eef8bca59ecfb7ff480b29245e541a5664536dfc18f2ae01",
          "blockNumber": "0xd178a0",
          "blockTimestamp": "0x68c5386c",
          "transactionHash": "0xa7eb247d9c518e1663ef7a4164daa0452793956075eac103759006fe154b8bd6",
          "transactionIndex": "0x2",
          "logIndex": "0x13",
          "removed": false
        },
        {
          "address": "0xfd76d9cb0bac839725ab79127e7411fe71b1e3ca",
          "topics": [
            "0x07ea52d82345d6e838192107d8fd7123d9c2ec8e916cd0aad13fd2b60db24644"
          ],
          "data": "0x000000000000000000000000000000000000000000000000000000000000006000000000000000000000000000000000000000000000000000000000000000e000000000000000000000000000000000000000000000000000000000000001000000000000000000000000000000000000000000000000000000000000000003000000000000000000000000082a08f524c043ec7f6b9a42bae79a1990d8499a000000000000000000000000bb83ecf372cbb6daa629ea9a9a53bec6d601f229000000000000000000000000c097ab8cd7b053326dfe9fb3e3a31a0cce3b526f0000000000000000000000000000000000000000000000000000000000000000000000000000000000000000000000000000000000000000000000000000000300000000000000000000000000000000000000000000000000011eb2ff7e3a5400000000000000000000000000000000000000000000000000011eb2ff7e3a5400000000000000000000000000000000000000000000000000011eb2ff7e3a54",
          "blockHash": "0x4f7fc2b4392410c7eef8bca59ecfb7ff480b29245e541a5664536dfc18f2ae01",
          "blockNumber": "0xd178a0",
          "blockTimestamp": "0x68c5386c",
          "transactionHash": "0xa7eb247d9c518e1663ef7a4164daa0452793956075eac103759006fe154b8bd6",
          "transactionIndex": "0x2",
          "logIndex": "0x14",
          "removed": false
        },
        {
          "address": "0x3a73033c0b1407574c76bdbac67f126f6b4a9aa9",
          "topics": [
            "0x1ab700d4ced0c005b164c0f789fd09fcbb0156d4c2041b8a3bfbcd961cd1567f"
          ],
          "data": "0x00000000000000000000000000000000000000000000000000000000000000600000000000000000000000000000000000000000000000000000000000000120000000000000000000000000fd76d9cb0bac839725ab79127e7411fe71b1e3ca00000000000000000000000000000000000000000000000000000000000000990100000000000000010000769f000000000000000000000000e1851f6ac161d1911104b19918fb866ef6fee5770000762f0000000000000000000000006ff6b416b574ebc51c8dddf0b32b82af3bd088888a9add34c86199e24060485fb918240205bace7186a86b6552eee6f6913e7692000000000000000000000000741f0d8bde14140f62107fc60a0ee122b37d463000000000000f424000000000000000000000000000000000000000000000000000000000000000000000000000001600030100110100000000000000000000000000030d4000000000000000000000",
          "blockHash": "0x4f7fc2b4392410c7eef8bca59ecfb7ff480b29245e541a5664536dfc18f2ae01",
          "blockNumber": "0xd178a0",
          "blockTimestamp": "0x68c5386c",
          "transactionHash": "0xa7eb247d9c518e1663ef7a4164daa0452793956075eac103759006fe154b8bd6",
          "transactionIndex": "0x2",
          "logIndex": "0x15",
          "removed": false
        },
        {
          "address": "0xe1851f6ac161d1911104b19918fb866ef6fee577",
          "topics": [
            "0x85496b760a4b7f8d66384b9df21b381f5d1b1e79f229a47aaf4c232edc2fe59a",
            "0x8a9add34c86199e24060485fb918240205bace7186a86b6552eee6f6913e7692",
            "0x000000000000000000000000741f0d8bde14140f62107fc60a0ee122b37d4630"
          ],
          "data": "0x000000000000000000000000000000000000000000000000000000000000762f0000000000000000000000000000000000000000000000000de0b6b3a76400000000000000000000000000000000000000000000000000000de0b6b3a7640000",
          "blockHash": "0x4f7fc2b4392410c7eef8bca59ecfb7ff480b29245e541a5664536dfc18f2ae01",
          "blockNumber": "0xd178a0",
          "blockTimestamp": "0x68c5386c",
          "transactionHash": "0xa7eb247d9c518e1663ef7a4164daa0452793956075eac103759006fe154b8bd6",
          "transactionIndex": "0x2",
          "logIndex": "0x16",
          "removed": false
        },
        {
          "address": "0xb7583b07c12286bb9026a7053b0c44e8f5fa8624",
          "topics": [
            "0xddf252ad1be2c89b69c2b068fc378daa952ba7f163c4a11628f55a4df523b3ef",
            "0x000000000000000000000000741f0d8bde14140f62107fc60a0ee122b37d4630",
            "0x0000000000000000000000000000000000000000000000000000000000000000"
          ],
          "data": "0x0000000000000000000000000000000000000000000000000de0b6b3a7640000",
          "blockHash": "0x4f7fc2b4392410c7eef8bca59ecfb7ff480b29245e541a5664536dfc18f2ae01",
          "blockNumber": "0xd178a0",
          "blockTimestamp": "0x68c5386c",
          "transactionHash": "0xa7eb247d9c518e1663ef7a4164daa0452793956075eac103759006fe154b8bd6",
          "transactionIndex": "0x2",
          "logIndex": "0x17",
          "removed": false
        },
        {
          "address": "0xfd76d9cb0bac839725ab79127e7411fe71b1e3ca",
          "topics": [
            "0x61ed099e74a97a1d7f8bb0952a88ca8b7b8ebd00c126ea04671f92a81213318a"
          ],
          "data": "0x00000000000000000000000041bdb4aa4a63a5b2efc531858d3118392b1a1c3d00000000000000000000000000000000000000000000000000019384e575cf4a",
          "blockHash": "0x4f7fc2b4392410c7eef8bca59ecfb7ff480b29245e541a5664536dfc18f2ae01",
          "blockNumber": "0xd178a0",
          "blockTimestamp": "0x68c5386c",
          "transactionHash": "0xa7eb247d9c518e1663ef7a4164daa0452793956075eac103759006fe154b8bd6",
          "transactionIndex": "0x2",
          "logIndex": "0x18",
          "removed": false
        },
        {
          "address": "0xfd76d9cb0bac839725ab79127e7411fe71b1e3ca",
          "topics": [
            "0x07ea52d82345d6e838192107d8fd7123d9c2ec8e916cd0aad13fd2b60db24644"
          ],
          "data": "0x000000000000000000000000000000000000000000000000000000000000006000000000000000000000000000000000000000000000000000000000000000e000000000000000000000000000000000000000000000000000000000000001000000000000000000000000000000000000000000000000000000000000000003000000000000000000000000082a08f524c043ec7f6b9a42bae79a1990d8499a000000000000000000000000bb83ecf372cbb6daa629ea9a9a53bec6d601f229000000000000000000000000c097ab8cd7b053326dfe9fb3e3a31a0cce3b526f0000000000000000000000000000000000000000000000000000000000000000000000000000000000000000000000000000000000000000000000000000000300000000000000000000000000000000000000000000000000011eb2ff7e3a5400000000000000000000000000000000000000000000000000011eb2ff7e3a5400000000000000000000000000000000000000000000000000011eb2ff7e3a54",
          "blockHash": "0x4f7fc2b4392410c7eef8bca59ecfb7ff480b29245e541a5664536dfc18f2ae01",
          "blockNumber": "0xd178a0",
          "blockTimestamp": "0x68c5386c",
          "transactionHash": "0xa7eb247d9c518e1663ef7a4164daa0452793956075eac103759006fe154b8bd6",
          "transactionIndex": "0x2",
          "logIndex": "0x19",
          "removed": false
        },
        {
          "address": "0x3a73033c0b1407574c76bdbac67f126f6b4a9aa9",
          "topics": [
            "0x1ab700d4ced0c005b164c0f789fd09fcbb0156d4c2041b8a3bfbcd961cd1567f"
          ],
          "data": "0x00000000000000000000000000000000000000000000000000000000000000600000000000000000000000000000000000000000000000000000000000000120000000000000000000000000fd76d9cb0bac839725ab79127e7411fe71b1e3ca00000000000000000000000000000000000000000000000000000000000000990100000000000000010000769f000000000000000000000000b7583b07c12286bb9026a7053b0c44e8f5fa86240000762f00000000000000000000000016cea656b1ad3caaef01894794373e48b77faaef17f580f3190fde6228c1cb1012729ccdc2c5635e6f54b7a7bce0852cbbc78ef9000000000000000000000000741f0d8bde14140f62107fc60a0ee122b37d463000000000000f424000000000000000000000000000000000000000000000000000000000000000000000000000001600030100110100000000000000000000000000030d4000000000000000000000",
          "blockHash": "0x4f7fc2b4392410c7eef8bca59ecfb7ff480b29245e541a5664536dfc18f2ae01",
          "blockNumber": "0xd178a0",
          "blockTimestamp": "0x68c5386c",
          "transactionHash": "0xa7eb247d9c518e1663ef7a4164daa0452793956075eac103759006fe154b8bd6",
          "transactionIndex": "0x2",
          "logIndex": "0x1a",
          "removed": false
        },
        {
          "address": "0xb7583b07c12286bb9026a7053b0c44e8f5fa8624",
          "topics": [
            "0x85496b760a4b7f8d66384b9df21b381f5d1b1e79f229a47aaf4c232edc2fe59a",
            "0x17f580f3190fde6228c1cb1012729ccdc2c5635e6f54b7a7bce0852cbbc78ef9",
            "0x000000000000000000000000741f0d8bde14140f62107fc60a0ee122b37d4630"
          ],
          "data": "0x000000000000000000000000000000000000000000000000000000000000762f0000000000000000000000000000000000000000000000000de0b6b3a76400000000000000000000000000000000000000000000000000000de0b6b3a7640000",
          "blockHash": "0x4f7fc2b4392410c7eef8bca59ecfb7ff480b29245e541a5664536dfc18f2ae01",
          "blockNumber": "0xd178a0",
          "blockTimestamp": "0x68c5386c",
          "transactionHash": "0xa7eb247d9c518e1663ef7a4164daa0452793956075eac103759006fe154b8bd6",
          "transactionIndex": "0x2",
          "logIndex": "0x1b",
          "removed": false
        },
        {
          "address": "0xa444f92734be29e71b8a4762595c9733ab2c9c47",
          "topics": [
            "0xddf252ad1be2c89b69c2b068fc378daa952ba7f163c4a11628f55a4df523b3ef",
            "0x000000000000000000000000741f0d8bde14140f62107fc60a0ee122b37d4630",
            "0x0000000000000000000000000000000000000000000000000000000000000000"
          ],
          "data": "0x0000000000000000000000000000000000000000000000000de0b6b3a7640000",
          "blockHash": "0x4f7fc2b4392410c7eef8bca59ecfb7ff480b29245e541a5664536dfc18f2ae01",
          "blockNumber": "0xd178a0",
          "blockTimestamp": "0x68c5386c",
          "transactionHash": "0xa7eb247d9c518e1663ef7a4164daa0452793956075eac103759006fe154b8bd6",
          "transactionIndex": "0x2",
          "logIndex": "0x1c",
          "removed": false
        },
        {
          "address": "0xfd76d9cb0bac839725ab79127e7411fe71b1e3ca",
          "topics": [
            "0x61ed099e74a97a1d7f8bb0952a88ca8b7b8ebd00c126ea04671f92a81213318a"
          ],
          "data": "0x00000000000000000000000041bdb4aa4a63a5b2efc531858d3118392b1a1c3d00000000000000000000000000000000000000000000000000019384e575cf4a",
          "blockHash": "0x4f7fc2b4392410c7eef8bca59ecfb7ff480b29245e541a5664536dfc18f2ae01",
          "blockNumber": "0xd178a0",
          "blockTimestamp": "0x68c5386c",
          "transactionHash": "0xa7eb247d9c518e1663ef7a4164daa0452793956075eac103759006fe154b8bd6",
          "transactionIndex": "0x2",
          "logIndex": "0x1d",
          "removed": false
        },
        {
          "address": "0xfd76d9cb0bac839725ab79127e7411fe71b1e3ca",
          "topics": [
            "0x07ea52d82345d6e838192107d8fd7123d9c2ec8e916cd0aad13fd2b60db24644"
          ],
          "data": "0x000000000000000000000000000000000000000000000000000000000000006000000000000000000000000000000000000000000000000000000000000000e000000000000000000000000000000000000000000000000000000000000001000000000000000000000000000000000000000000000000000000000000000003000000000000000000000000082a08f524c043ec7f6b9a42bae79a1990d8499a000000000000000000000000bb83ecf372cbb6daa629ea9a9a53bec6d601f229000000000000000000000000c097ab8cd7b053326dfe9fb3e3a31a0cce3b526f0000000000000000000000000000000000000000000000000000000000000000000000000000000000000000000000000000000000000000000000000000000300000000000000000000000000000000000000000000000000011eb2ff7e3a5400000000000000000000000000000000000000000000000000011eb2ff7e3a5400000000000000000000000000000000000000000000000000011eb2ff7e3a54",
          "blockHash": "0x4f7fc2b4392410c7eef8bca59ecfb7ff480b29245e541a5664536dfc18f2ae01",
          "blockNumber": "0xd178a0",
          "blockTimestamp": "0x68c5386c",
          "transactionHash": "0xa7eb247d9c518e1663ef7a4164daa0452793956075eac103759006fe154b8bd6",
          "transactionIndex": "0x2",
          "logIndex": "0x1e",
          "removed": false
        },
        {
          "address": "0x3a73033c0b1407574c76bdbac67f126f6b4a9aa9",
          "topics": [
            "0x1ab700d4ced0c005b164c0f789fd09fcbb0156d4c2041b8a3bfbcd961cd1567f"
          ],
          "data": "0x00000000000000000000000000000000000000000000000000000000000000600000000000000000000000000000000000000000000000000000000000000120000000000000000000000000fd76d9cb0bac839725ab79127e7411fe71b1e3ca00000000000000000000000000000000000000000000000000000000000000990100000000000000010000769f000000000000000000000000a444f92734be29e71b8a4762595c9733ab2c9c470000762f0000000000000000000000001c3fe45704d8b5b09c145356a6dfd570ab264cdbb22316a98a0bd0000595b971b0856c0a20d4044045c4afba0b443c24e758ded3000000000000000000000000741f0d8bde14140f62107fc60a0ee122b37d463000000000000f424000000000000000000000000000000000000000000000000000000000000000000000000000001600030100110100000000000000000000000000030d4000000000000000000000",
          "blockHash": "0x4f7fc2b4392410c7eef8bca59ecfb7ff480b29245e541a5664536dfc18f2ae01",
          "blockNumber": "0xd178a0",
          "blockTimestamp": "0x68c5386c",
          "transactionHash": "0xa7eb247d9c518e1663ef7a4164daa0452793956075eac103759006fe154b8bd6",
          "transactionIndex": "0x2",
          "logIndex": "0x1f",
          "removed": false
        },
        {
          "address": "0xa444f92734be29e71b8a4762595c9733ab2c9c47",
          "topics": [
            "0x85496b760a4b7f8d66384b9df21b381f5d1b1e79f229a47aaf4c232edc2fe59a",
            "0xb22316a98a0bd0000595b971b0856c0a20d4044045c4afba0b443c24e758ded3",
            "0x000000000000000000000000741f0d8bde14140f62107fc60a0ee122b37d4630"
          ],
          "data": "0x000000000000000000000000000000000000000000000000000000000000762f0000000000000000000000000000000000000000000000000de0b6b3a76400000000000000000000000000000000000000000000000000000de0b6b3a7640000",
          "blockHash": "0x4f7fc2b4392410c7eef8bca59ecfb7ff480b29245e541a5664536dfc18f2ae01",
          "blockNumber": "0xd178a0",
          "blockTimestamp": "0x68c5386c",
          "transactionHash": "0xa7eb247d9c518e1663ef7a4164daa0452793956075eac103759006fe154b8bd6",
          "transactionIndex": "0x2",
          "logIndex": "0x20",
          "removed": false
        },
        {
          "address": "0xa5c2889f0e3da388df3bf87f8f0b8e56bb863c41",
          "topics": [
            "0xddf252ad1be2c89b69c2b068fc378daa952ba7f163c4a11628f55a4df523b3ef",
            "0x000000000000000000000000741f0d8bde14140f62107fc60a0ee122b37d4630",
            "0x0000000000000000000000000000000000000000000000000000000000000000"
          ],
          "data": "0x0000000000000000000000000000000000000000000000000de0b6b3a7640000",
          "blockHash": "0x4f7fc2b4392410c7eef8bca59ecfb7ff480b29245e541a5664536dfc18f2ae01",
          "blockNumber": "0xd178a0",
          "blockTimestamp": "0x68c5386c",
          "transactionHash": "0xa7eb247d9c518e1663ef7a4164daa0452793956075eac103759006fe154b8bd6",
          "transactionIndex": "0x2",
          "logIndex": "0x21",
          "removed": false
        },
        {
          "address": "0xfd76d9cb0bac839725ab79127e7411fe71b1e3ca",
          "topics": [
            "0x61ed099e74a97a1d7f8bb0952a88ca8b7b8ebd00c126ea04671f92a81213318a"
          ],
          "data": "0x00000000000000000000000041bdb4aa4a63a5b2efc531858d3118392b1a1c3d00000000000000000000000000000000000000000000000000019384e575cf4a",
          "blockHash": "0x4f7fc2b4392410c7eef8bca59ecfb7ff480b29245e541a5664536dfc18f2ae01",
          "blockNumber": "0xd178a0",
          "blockTimestamp": "0x68c5386c",
          "transactionHash": "0xa7eb247d9c518e1663ef7a4164daa0452793956075eac103759006fe154b8bd6",
          "transactionIndex": "0x2",
          "logIndex": "0x22",
          "removed": false
        },
        {
          "address": "0xfd76d9cb0bac839725ab79127e7411fe71b1e3ca",
          "topics": [
            "0x07ea52d82345d6e838192107d8fd7123d9c2ec8e916cd0aad13fd2b60db24644"
          ],
          "data": "0x000000000000000000000000000000000000000000000000000000000000006000000000000000000000000000000000000000000000000000000000000000e000000000000000000000000000000000000000000000000000000000000001000000000000000000000000000000000000000000000000000000000000000003000000000000000000000000082a08f524c043ec7f6b9a42bae79a1990d8499a000000000000000000000000bb83ecf372cbb6daa629ea9a9a53bec6d601f229000000000000000000000000c097ab8cd7b053326dfe9fb3e3a31a0cce3b526f0000000000000000000000000000000000000000000000000000000000000000000000000000000000000000000000000000000000000000000000000000000300000000000000000000000000000000000000000000000000011eb2ff7e3a5400000000000000000000000000000000000000000000000000011eb2ff7e3a5400000000000000000000000000000000000000000000000000011eb2ff7e3a54",
          "blockHash": "0x4f7fc2b4392410c7eef8bca59ecfb7ff480b29245e541a5664536dfc18f2ae01",
          "blockNumber": "0xd178a0",
          "blockTimestamp": "0x68c5386c",
          "transactionHash": "0xa7eb247d9c518e1663ef7a4164daa0452793956075eac103759006fe154b8bd6",
          "transactionIndex": "0x2",
          "logIndex": "0x23",
          "removed": false
        },
        {
          "address": "0x3a73033c0b1407574c76bdbac67f126f6b4a9aa9",
          "topics": [
            "0x1ab700d4ced0c005b164c0f789fd09fcbb0156d4c2041b8a3bfbcd961cd1567f"
          ],
          "data": "0x00000000000000000000000000000000000000000000000000000000000000600000000000000000000000000000000000000000000000000000000000000120000000000000000000000000fd76d9cb0bac839725ab79127e7411fe71b1e3ca00000000000000000000000000000000000000000000000000000000000000990100000000000000010000769f000000000000000000000000a5c2889f0e3da388df3bf87f8f0b8e56bb863c410000762f000000000000000000000000fd34516a516c4f76a5d5b3f9da562f5731ac42afeaad496d95cda0735bbb69474ee66dd7fdc8290058950f501b5b49ace9170bff000000000000000000000000741f0d8bde14140f62107fc60a0ee122b37d463000000000000f424000000000000000000000000000000000000000000000000000000000000000000000000000001600030100110100000000000000000000000000030d4000000000000000000000",
          "blockHash": "0x4f7fc2b4392410c7eef8bca59ecfb7ff480b29245e541a5664536dfc18f2ae01",
          "blockNumber": "0xd178a0",
          "blockTimestamp": "0x68c5386c",
          "transactionHash": "0xa7eb247d9c518e1663ef7a4164daa0452793956075eac103759006fe154b8bd6",
          "transactionIndex": "0x2",
          "logIndex": "0x24",
          "removed": false
        },
        {
          "address": "0xa5c2889f0e3da388df3bf87f8f0b8e56bb863c41",
          "topics": [
            "0x85496b760a4b7f8d66384b9df21b381f5d1b1e79f229a47aaf4c232edc2fe59a",
            "0xeaad496d95cda0735bbb69474ee66dd7fdc8290058950f501b5b49ace9170bff",
            "0x000000000000000000000000741f0d8bde14140f62107fc60a0ee122b37d4630"
          ],
          "data": "0x000000000000000000000000000000000000000000000000000000000000762f0000000000000000000000000000000000000000000000000de0b6b3a76400000000000000000000000000000000000000000000000000000de0b6b3a7640000",
          "blockHash": "0x4f7fc2b4392410c7eef8bca59ecfb7ff480b29245e541a5664536dfc18f2ae01",
          "blockNumber": "0xd178a0",
          "blockTimestamp": "0x68c5386c",
          "transactionHash": "0xa7eb247d9c518e1663ef7a4164daa0452793956075eac103759006fe154b8bd6",
          "transactionIndex": "0x2",
          "logIndex": "0x25",
          "removed": false
        },
        {
          "address": "0xc6563942d1ae02dd6e450847de3753011ca3eee1",
          "topics": [
            "0xddf252ad1be2c89b69c2b068fc378daa952ba7f163c4a11628f55a4df523b3ef",
            "0x000000000000000000000000741f0d8bde14140f62107fc60a0ee122b37d4630",
            "0x0000000000000000000000000000000000000000000000000000000000000000"
          ],
          "data": "0x0000000000000000000000000000000000000000000000000de0b6b3a7640000",
          "blockHash": "0x4f7fc2b4392410c7eef8bca59ecfb7ff480b29245e541a5664536dfc18f2ae01",
          "blockNumber": "0xd178a0",
          "blockTimestamp": "0x68c5386c",
          "transactionHash": "0xa7eb247d9c518e1663ef7a4164daa0452793956075eac103759006fe154b8bd6",
          "transactionIndex": "0x2",
          "logIndex": "0x26",
          "removed": false
        },
        {
          "address": "0xfd76d9cb0bac839725ab79127e7411fe71b1e3ca",
          "topics": [
            "0x61ed099e74a97a1d7f8bb0952a88ca8b7b8ebd00c126ea04671f92a81213318a"
          ],
          "data": "0x00000000000000000000000041bdb4aa4a63a5b2efc531858d3118392b1a1c3d00000000000000000000000000000000000000000000000000019384e575cf4a",
          "blockHash": "0x4f7fc2b4392410c7eef8bca59ecfb7ff480b29245e541a5664536dfc18f2ae01",
          "blockNumber": "0xd178a0",
          "blockTimestamp": "0x68c5386c",
          "transactionHash": "0xa7eb247d9c518e1663ef7a4164daa0452793956075eac103759006fe154b8bd6",
          "transactionIndex": "0x2",
          "logIndex": "0x27",
          "removed": false
        },
        {
          "address": "0xfd76d9cb0bac839725ab79127e7411fe71b1e3ca",
          "topics": [
            "0x07ea52d82345d6e838192107d8fd7123d9c2ec8e916cd0aad13fd2b60db24644"
          ],
          "data": "0x000000000000000000000000000000000000000000000000000000000000006000000000000000000000000000000000000000000000000000000000000000e000000000000000000000000000000000000000000000000000000000000001000000000000000000000000000000000000000000000000000000000000000003000000000000000000000000082a08f524c043ec7f6b9a42bae79a1990d8499a000000000000000000000000bb83ecf372cbb6daa629ea9a9a53bec6d601f229000000000000000000000000c097ab8cd7b053326dfe9fb3e3a31a0cce3b526f0000000000000000000000000000000000000000000000000000000000000000000000000000000000000000000000000000000000000000000000000000000300000000000000000000000000000000000000000000000000011eb2ff7e3a5400000000000000000000000000000000000000000000000000011eb2ff7e3a5400000000000000000000000000000000000000000000000000011eb2ff7e3a54",
          "blockHash": "0x4f7fc2b4392410c7eef8bca59ecfb7ff480b29245e541a5664536dfc18f2ae01",
          "blockNumber": "0xd178a0",
          "blockTimestamp": "0x68c5386c",
          "transactionHash": "0xa7eb247d9c518e1663ef7a4164daa0452793956075eac103759006fe154b8bd6",
          "transactionIndex": "0x2",
          "logIndex": "0x28",
          "removed": false
        },
        {
          "address": "0x3a73033c0b1407574c76bdbac67f126f6b4a9aa9",
          "topics": [
            "0x1ab700d4ced0c005b164c0f789fd09fcbb0156d4c2041b8a3bfbcd961cd1567f"
          ],
          "data": "0x00000000000000000000000000000000000000000000000000000000000000600000000000000000000000000000000000000000000000000000000000000120000000000000000000000000fd76d9cb0bac839725ab79127e7411fe71b1e3ca00000000000000000000000000000000000000000000000000000000000000990100000000000000010000769f000000000000000000000000c6563942d1ae02dd6e450847de3753011ca3eee10000762f000000000000000000000000c149f946e3ee35766a7250b6ff619d9cf198ebf0b32aa2062f91950341812202f908a10b28256c399577052ddb0b050d89115b65000000000000000000000000741f0d8bde14140f62107fc60a0ee122b37d463000000000000f424000000000000000000000000000000000000000000000000000000000000000000000000000001600030100110100000000000000000000000000030d4000000000000000000000",
          "blockHash": "0x4f7fc2b4392410c7eef8bca59ecfb7ff480b29245e541a5664536dfc18f2ae01",
          "blockNumber": "0xd178a0",
          "blockTimestamp": "0x68c5386c",
          "transactionHash": "0xa7eb247d9c518e1663ef7a4164daa0452793956075eac103759006fe154b8bd6",
          "transactionIndex": "0x2",
          "logIndex": "0x29",
          "removed": false
        },
        {
          "address": "0xc6563942d1ae02dd6e450847de3753011ca3eee1",
          "topics": [
            "0x85496b760a4b7f8d66384b9df21b381f5d1b1e79f229a47aaf4c232edc2fe59a",
            "0xb32aa2062f91950341812202f908a10b28256c399577052ddb0b050d89115b65",
            "0x000000000000000000000000741f0d8bde14140f62107fc60a0ee122b37d4630"
          ],
          "data": "0x000000000000000000000000000000000000000000000000000000000000762f0000000000000000000000000000000000000000000000000de0b6b3a76400000000000000000000000000000000000000000000000000000de0b6b3a7640000",
          "blockHash": "0x4f7fc2b4392410c7eef8bca59ecfb7ff480b29245e541a5664536dfc18f2ae01",
          "blockNumber": "0xd178a0",
          "blockTimestamp": "0x68c5386c",
          "transactionHash": "0xa7eb247d9c518e1663ef7a4164daa0452793956075eac103759006fe154b8bd6",
          "transactionIndex": "0x2",
          "logIndex": "0x2a",
          "removed": false
        }
      ],
      "logsBloom": "0x040000000000004000000040000000400000000000000000020000000000000000000000010000000000000000000000000001000000800080010000000000000000020000040000000001080000042000000000000400400000000000000000000000004220000180000000000008000000100000004000000000180000000000000000000800000000000804000000000000000020010000000000004200001000000080000010001000000000000000000000004000000004c00000400000000000030000000000000000c0200000000000000000000800000000200020001000440000000000000800000000002040100000088004000000000001000000",
      "type": "0x2",
      "transactionHash": "0xa7eb247d9c518e1663ef7a4164daa0452793956075eac103759006fe154b8bd6",
      "transactionIndex": "0x2",
      "blockHash": "0x4f7fc2b4392410c7eef8bca59ecfb7ff480b29245e541a5664536dfc18f2ae01",
      "blockNumber": "0xd178a0",
      "gasUsed": "0x1bf498",
      "effectiveGasPrice": "0x8583b00",
      "from": "0x45dce8e4f2dc005a5f28206a46cb034697eeda8e",
      "to": "0x741f0d8bde14140f62107fc60a0ee122b37d4630",
      "contractAddress": null
    }
  ],
  "libraries": [],
  "pending": [],
  "returns": {},
  "timestamp": 1757755501719,
  "chain": 999,
  "commit": "4f21956"
}